{
  "contractName": "BridgeManager",
  "abi": [
    {
      "inputs": [],
      "stateMutability": "nonpayable",
      "type": "constructor"
    },
    {
      "anonymous": false,
      "inputs": [
        {
          "indexed": true,
          "internalType": "string",
          "name": "name",
          "type": "string"
        },
        {
          "indexed": false,
          "internalType": "address",
          "name": "tokenAddress",
          "type": "address"
        }
      ],
      "name": "RegisterERC1155Token",
      "type": "event"
    },
    {
      "anonymous": false,
      "inputs": [
        {
          "indexed": true,
          "internalType": "string",
          "name": "name",
          "type": "string"
        },
        {
          "indexed": false,
          "internalType": "address",
          "name": "tokenAddress",
          "type": "address"
        }
      ],
      "name": "RegisterERC20Token",
      "type": "event"
    },
    {
      "anonymous": false,
      "inputs": [
        {
          "indexed": true,
          "internalType": "string",
          "name": "name",
          "type": "string"
        },
        {
          "indexed": false,
          "internalType": "address",
          "name": "tokenAddress",
          "type": "address"
        }
      ],
      "name": "RegisterERC721Token",
      "type": "event"
    },
    {
      "anonymous": false,
      "inputs": [
        {
          "indexed": true,
          "internalType": "bytes32",
          "name": "role",
          "type": "bytes32"
        },
        {
          "indexed": true,
          "internalType": "bytes32",
          "name": "previousAdminRole",
          "type": "bytes32"
        },
        {
          "indexed": true,
          "internalType": "bytes32",
          "name": "newAdminRole",
          "type": "bytes32"
        }
      ],
      "name": "RoleAdminChanged",
      "type": "event"
    },
    {
      "anonymous": false,
      "inputs": [
        {
          "indexed": true,
          "internalType": "bytes32",
          "name": "role",
          "type": "bytes32"
        },
        {
          "indexed": true,
          "internalType": "address",
          "name": "account",
          "type": "address"
        },
        {
          "indexed": true,
          "internalType": "address",
          "name": "sender",
          "type": "address"
        }
      ],
      "name": "RoleGranted",
      "type": "event"
    },
    {
      "anonymous": false,
      "inputs": [
        {
          "indexed": true,
          "internalType": "bytes32",
          "name": "role",
          "type": "bytes32"
        },
        {
          "indexed": true,
          "internalType": "address",
          "name": "account",
          "type": "address"
        },
        {
          "indexed": true,
          "internalType": "address",
          "name": "sender",
          "type": "address"
        }
      ],
      "name": "RoleRevoked",
      "type": "event"
    },
    {
      "anonymous": false,
      "inputs": [
        {
          "indexed": true,
          "internalType": "string",
          "name": "name",
          "type": "string"
        }
      ],
      "name": "UnRegisterERC1155Token",
      "type": "event"
    },
    {
      "anonymous": false,
      "inputs": [
        {
          "indexed": true,
          "internalType": "string",
          "name": "name",
          "type": "string"
        }
      ],
      "name": "UnRegisterERC20Token",
      "type": "event"
    },
    {
      "anonymous": false,
      "inputs": [
        {
          "indexed": true,
          "internalType": "string",
          "name": "name",
          "type": "string"
        }
      ],
      "name": "UnRegisterERC721Token",
      "type": "event"
    },
    {
      "inputs": [],
      "name": "DEFAULT_ADMIN_ROLE",
      "outputs": [
        {
          "internalType": "bytes32",
          "name": "",
          "type": "bytes32"
        }
      ],
      "stateMutability": "view",
      "type": "function",
      "constant": true
    },
    {
      "inputs": [],
      "name": "REGISTER_ROLE",
      "outputs": [
        {
          "internalType": "bytes32",
          "name": "",
          "type": "bytes32"
        }
      ],
      "stateMutability": "view",
      "type": "function",
      "constant": true
    },
    {
      "inputs": [
        {
          "internalType": "bytes32",
          "name": "role",
          "type": "bytes32"
        }
      ],
      "name": "getRoleAdmin",
      "outputs": [
        {
          "internalType": "bytes32",
          "name": "",
          "type": "bytes32"
        }
      ],
      "stateMutability": "view",
      "type": "function",
      "constant": true
    },
    {
      "inputs": [
        {
          "internalType": "bytes32",
          "name": "role",
          "type": "bytes32"
        },
        {
          "internalType": "uint256",
          "name": "index",
          "type": "uint256"
        }
      ],
      "name": "getRoleMember",
      "outputs": [
        {
          "internalType": "address",
          "name": "",
          "type": "address"
        }
      ],
      "stateMutability": "view",
      "type": "function",
      "constant": true
    },
    {
      "inputs": [
        {
          "internalType": "bytes32",
          "name": "role",
          "type": "bytes32"
        }
      ],
      "name": "getRoleMemberCount",
      "outputs": [
        {
          "internalType": "uint256",
          "name": "",
          "type": "uint256"
        }
      ],
      "stateMutability": "view",
      "type": "function",
      "constant": true
    },
    {
      "inputs": [
        {
          "internalType": "bytes32",
          "name": "role",
          "type": "bytes32"
        },
        {
          "internalType": "address",
          "name": "account",
          "type": "address"
        }
      ],
      "name": "grantRole",
      "outputs": [],
      "stateMutability": "nonpayable",
      "type": "function"
    },
    {
      "inputs": [
        {
          "internalType": "bytes32",
          "name": "role",
          "type": "bytes32"
        },
        {
          "internalType": "address",
          "name": "account",
          "type": "address"
        }
      ],
      "name": "hasRole",
      "outputs": [
        {
          "internalType": "bool",
          "name": "",
          "type": "bool"
        }
      ],
      "stateMutability": "view",
      "type": "function",
      "constant": true
    },
    {
      "inputs": [
        {
          "internalType": "bytes32",
          "name": "role",
          "type": "bytes32"
        },
        {
          "internalType": "address",
          "name": "account",
          "type": "address"
        }
      ],
      "name": "renounceRole",
      "outputs": [],
      "stateMutability": "nonpayable",
      "type": "function"
    },
    {
      "inputs": [
        {
          "internalType": "bytes32",
          "name": "role",
          "type": "bytes32"
        },
        {
          "internalType": "address",
          "name": "account",
          "type": "address"
        }
      ],
      "name": "revokeRole",
      "outputs": [],
      "stateMutability": "nonpayable",
      "type": "function"
    },
    {
      "inputs": [
        {
          "internalType": "string",
          "name": "tokenSymbol",
          "type": "string"
        }
      ],
      "name": "getErc20AddressRegistered",
      "outputs": [
        {
          "internalType": "address",
          "name": "returnAddress",
          "type": "address"
        }
      ],
      "stateMutability": "view",
      "type": "function",
      "constant": true
    },
    {
      "inputs": [],
      "name": "getAllErc20Registered",
      "outputs": [
        {
          "components": [
            {
              "internalType": "string",
              "name": "name",
              "type": "string"
            },
            {
              "internalType": "string",
              "name": "symbol",
              "type": "string"
            },
            {
              "internalType": "address",
              "name": "deployedAddress",
              "type": "address"
            }
          ],
          "internalType": "struct BridgeManager.registeredToken[]",
          "name": "",
          "type": "tuple[]"
        }
      ],
      "stateMutability": "view",
      "type": "function",
      "constant": true
    },
    {
      "inputs": [],
      "name": "getAllErc20Count",
      "outputs": [
        {
          "internalType": "uint256",
          "name": "",
          "type": "uint256"
        }
      ],
      "stateMutability": "view",
      "type": "function",
      "constant": true
    },
    {
      "inputs": [
        {
          "internalType": "string",
          "name": "tokenSymbol",
          "type": "string"
        }
      ],
      "name": "getErc721AddressRegistered",
      "outputs": [
        {
          "internalType": "address",
          "name": "returnAddress",
          "type": "address"
        }
      ],
      "stateMutability": "view",
      "type": "function",
      "constant": true
    },
    {
      "inputs": [],
      "name": "getAllErc721Registered",
      "outputs": [
        {
          "components": [
            {
              "internalType": "string",
              "name": "name",
              "type": "string"
            },
            {
              "internalType": "string",
              "name": "symbol",
              "type": "string"
            },
            {
              "internalType": "address",
              "name": "deployedAddress",
              "type": "address"
            }
          ],
          "internalType": "struct BridgeManager.registeredToken[]",
          "name": "",
          "type": "tuple[]"
        }
      ],
      "stateMutability": "view",
      "type": "function",
      "constant": true
    },
    {
      "inputs": [],
      "name": "getAllErc721Count",
      "outputs": [
        {
          "internalType": "uint256",
          "name": "",
          "type": "uint256"
        }
      ],
      "stateMutability": "view",
      "type": "function",
      "constant": true
    },
    {
      "inputs": [
        {
          "internalType": "string",
          "name": "tokenURI",
          "type": "string"
        }
      ],
      "name": "getErc1155AddressRegistered",
      "outputs": [
        {
          "internalType": "address",
          "name": "returnAddress",
          "type": "address"
        }
      ],
      "stateMutability": "view",
      "type": "function",
      "constant": true
    },
    {
      "inputs": [],
      "name": "getAllErc1155Registered",
      "outputs": [
        {
          "components": [
            {
              "internalType": "string",
              "name": "name",
              "type": "string"
            },
            {
              "internalType": "string",
              "name": "symbol",
              "type": "string"
            },
            {
              "internalType": "address",
              "name": "deployedAddress",
              "type": "address"
            }
          ],
          "internalType": "struct BridgeManager.registeredToken[]",
          "name": "",
          "type": "tuple[]"
        }
      ],
      "stateMutability": "view",
      "type": "function",
      "constant": true
    },
    {
      "inputs": [],
      "name": "getAllErc1155Count",
      "outputs": [
        {
          "internalType": "uint256",
          "name": "",
          "type": "uint256"
        }
      ],
      "stateMutability": "view",
      "type": "function",
      "constant": true
    },
    {
      "inputs": [
        {
          "internalType": "string",
          "name": "tokenName",
          "type": "string"
        },
        {
          "internalType": "string",
          "name": "tokenSymbol",
          "type": "string"
        },
        {
          "internalType": "address",
          "name": "tokenContractAddress",
          "type": "address"
        }
      ],
      "name": "registerTokenERC20",
      "outputs": [],
      "stateMutability": "nonpayable",
      "type": "function"
    },
    {
      "inputs": [
        {
          "internalType": "string",
          "name": "tokenName",
          "type": "string"
        },
        {
          "internalType": "string",
          "name": "tokenSymbol",
          "type": "string"
        },
        {
          "internalType": "address",
          "name": "tokenContractAddress",
          "type": "address"
        }
      ],
      "name": "registerTokenERC721",
      "outputs": [],
      "stateMutability": "nonpayable",
      "type": "function"
    },
    {
      "inputs": [
        {
          "internalType": "string",
          "name": "tokenName",
          "type": "string"
        },
        {
          "internalType": "string",
          "name": "tokenURI",
          "type": "string"
        },
        {
          "internalType": "address",
          "name": "tokenContractAddress",
          "type": "address"
        }
      ],
      "name": "registerTokenERC1155",
      "outputs": [],
      "stateMutability": "nonpayable",
      "type": "function"
    }
  ],
  "bytecode": "0x6080604052600180546001600160a01b03191690553480156200002157600080fd5b50620000386000620000326200006d565b62000071565b620000677fd1f21ec03a6eb050fba156f5316dad461735df521fb446dd42c5a4728e9c70fe620000326200006d565b62000181565b3390565b6200007d828262000081565b5050565b600082815260208181526040909120620000a6918390620011f0620000fa821b17901c565b156200007d57620000b66200006d565b6001600160a01b0316816001600160a01b0316837f2f8788117e7eff1d82e926ec794901d17c78024a50270940304540a733656f0d60405160405180910390a45050565b600062000111836001600160a01b0384166200011a565b90505b92915050565b600062000128838362000169565b620001605750815460018181018455600084815260208082209093018490558454848252828601909352604090209190915562000114565b50600062000114565b60009081526001919091016020526040902054151590565b6119df80620001916000396000f3fe608060405234801561001057600080fd5b50600436106101475760003560e01c80639010d07c116100c8578063a217fddf1161008c578063ca15c87311610066578063ca15c87314610289578063d547741f1461029c578063dd2c859c146102af57610147565b8063a217fddf14610266578063c082713b1461026e578063c7092a821461028157610147565b80639010d07c1461021057806390344f621461022357806391567da81461022b57806391d148541461023e5780639f45c1d31461025e57610147565b8063455686c31161010f578063455686c3146101c55780634d4825a0146101cd5780634dd1b5f8146101e057806353206452146101f357806374f533171461020857610147565b806301ab669c1461014c57806310a43eba1461016a578063248a9ca31461018a5780632f2ff15d1461019d57806336568abe146101b2575b600080fd5b6101546102c2565b6040516101619190611808565b60405180910390f35b61017d610178366004611639565b6102c8565b6040516101619190611752565b6101546101983660046115d5565b6102fc565b6101b06101ab3660046115ed565b610314565b005b6101b06101c03660046115ed565b61037b565b6101546103dc565b6101b06101db366004611679565b6103e2565b61017d6101ee366004611639565b61066c565b6101fb610680565b6040516101619190611766565b610154610826565b61017d61021e366004611618565b61084a565b61015461086b565b61017d610239366004611639565b610871565b61025161024c3660046115ed565b610885565b60405161016191906117fd565b6101fb61089d565b610154610a3a565b6101b061027c366004611679565b610a3f565b6101fb610d1b565b6101546102973660046115d5565b610eb8565b6101b06102aa3660046115ed565b610ecf565b6101b06102bd366004611679565b610f28565b60045490565b6000600383836040516102dc929190611742565b908152604051908190036020019020546001600160a01b03169392505050565b6000818152602081905260409020600201545b919050565b6000828152602081905260409020600201546103329061024c611205565b61036d5760405162461bcd60e51b815260040180806020018281038252602f81526020018061191c602f913960400191505060405180910390fd5b6103778282611209565b5050565b610383611205565b6001600160a01b0316816001600160a01b0316146103d25760405162461bcd60e51b815260040180806020018281038252602f81526020018061197b602f913960400191505060405180910390fd5b6103778282611272565b60025490565b82828080601f016020809104026020016040519081016040528093929190818152602001838380828437600092019190915250508251839250151590506104445760405162461bcd60e51b815260040161043b9061186e565b60405180910390fd5b6001546040516001600160a01b03909116906007906104669088908890611742565b908152604051908190036020019020546001600160a01b03161461049c5760405162461bcd60e51b815260040161043b90611811565b601984106104bc5760405162461bcd60e51b815260040161043b906118b5565b82600786866040516104cf929190611742565b90815260405190819003602001902080546001600160a01b03929092166001600160a01b03199092169190911790556105066114ac565b87878080601f016020809104026020016040519081016040528093929190818152602001838380828437600092019190915250505090825250604080516020601f880181900481028201810190925286815290879087908190840183828082843760009201829052506020808701959095526001600160a01b038916604087015260068054600181018255915285518051879660039093027ff652222313e28459528d920b65115c16c04f3efc82aaedc97be59f3f377c0d3f0195506105d294508593509101906114d6565b5060208281015180516105eb92600185019201906114d6565b5060409182015160029190910180546001600160a01b0319166001600160a01b03909216919091179055516106239087908790611742565b60405180910390207f823c87a16eb6a527733c83f98949577c23e881d4bd9e2af78535058fa5cd775c8560405161065a9190611752565b60405180910390a25050505050505050565b6000600783836040516102dc929190611742565b60606002805480602002602001604051908101604052809291908181526020016000905b8282101561081d5760008481526020908190206040805160038602909201805460026001821615610100026000190190911604601f810185900490940283016080908101909252606083018481529293909284929091849184018282801561074d5780601f106107225761010080835404028352916020019161074d565b820191906000526020600020905b81548152906001019060200180831161073057829003601f168201915b50505050508152602001600182018054600181600116156101000203166002900480601f0160208091040260200160405190810160405280929190818152602001828054600181600116156101000203166002900480156107ef5780601f106107c4576101008083540402835291602001916107ef565b820191906000526020600020905b8154815290600101906020018083116107d257829003601f168201915b5050509183525050600291909101546001600160a01b031660209182015290825260019290920191016106a4565b50505050905090565b7fd1f21ec03a6eb050fba156f5316dad461735df521fb446dd42c5a4728e9c70fe81565b600082815260208190526040812061086290836112db565b90505b92915050565b60065490565b6000600583836040516102dc929190611742565b600082815260208190526040812061086290836112e7565b60606004805480602002602001604051908101604052809291908181526020016000905b8282101561081d5760008481526020908190206040805160038602909201805460026001821615610100026000190190911604601f810185900490940283016080908101909252606083018481529293909284929091849184018282801561096a5780601f1061093f5761010080835404028352916020019161096a565b820191906000526020600020905b81548152906001019060200180831161094d57829003601f168201915b50505050508152602001600182018054600181600116156101000203166002900480601f016020809104026020016040519081016040528092919081815260200182805460018160011615610100020316600290048015610a0c5780601f106109e157610100808354040283529160200191610a0c565b820191906000526020600020905b8154815290600101906020018083116109ef57829003601f168201915b5050509183525050600291909101546001600160a01b031660209182015290825260019290920191016108c1565b600081565b84848080601f01602080910402602001604051908101604052809392919081815260200183838082843760009201919091525050825183925015159050610a985760405162461bcd60e51b815260040161043b9061186e565b84848080601f01602080910402602001604051908101604052809392919081815260200183838082843760009201919091525050825183925015159050610af15760405162461bcd60e51b815260040161043b9061186e565b6001546040516001600160a01b0390911690600590610b13908a908a90611742565b908152604051908190036020019020546001600160a01b031614610b495760405162461bcd60e51b815260040161043b90611811565b60198610610b695760405162461bcd60e51b815260040161043b906118b5565b8460058888604051610b7c929190611742565b90815260405190819003602001902080546001600160a01b03929092166001600160a01b0319909216919091179055610bb36114ac565b89898080601f016020809104026020016040519081016040528093929190818152602001838380828437600092019190915250505090825250604080516020601f8a0181900481028201810190925288815290899089908190840183828082843760009201829052506020808701959095526001600160a01b038b16604087015260048054600181018255915285518051879660039093027f8a35acfbc15ff81a39ae7d344fd709f28e8600b4aa8c65c6b64bfe7fe36bd19b019550610c7f94508593509101906114d6565b506020828101518051610c9892600185019201906114d6565b5060409182015160029190910180546001600160a01b0319166001600160a01b0390921691909117905551610cd09089908990611742565b60405180910390207f8b716abc5c12b2b1b216049f179e5b7ea408a5a96880c14d00b5c83282e43b9587604051610d079190611752565b60405180910390a250505050505050505050565b60606006805480602002602001604051908101604052809291908181526020016000905b8282101561081d5760008481526020908190206040805160038602909201805460026001821615610100026000190190911604601f8101859004909402830160809081019092526060830184815292939092849290918491840182828015610de85780601f10610dbd57610100808354040283529160200191610de8565b820191906000526020600020905b815481529060010190602001808311610dcb57829003601f168201915b50505050508152602001600182018054600181600116156101000203166002900480601f016020809104026020016040519081016040528092919081815260200182805460018160011615610100020316600290048015610e8a5780601f10610e5f57610100808354040283529160200191610e8a565b820191906000526020600020905b815481529060010190602001808311610e6d57829003601f168201915b5050509183525050600291909101546001600160a01b03166020918201529082526001929092019101610d3f565b6000818152602081905260408120610865906112fc565b600082815260208190526040902060020154610eed9061024c611205565b6103d25760405162461bcd60e51b815260040180806020018281038252603081526020018061194b6030913960400191505060405180910390fd5b84848080601f01602080910402602001604051908101604052809392919081815260200183838082843760009201919091525050825183925015159050610f815760405162461bcd60e51b815260040161043b9061186e565b84848080601f01602080910402602001604051908101604052809392919081815260200183838082843760009201919091525050825183925015159050610fda5760405162461bcd60e51b815260040161043b9061186e565b6001546040516001600160a01b0390911690600390610ffc908a908a90611742565b908152604051908190036020019020546001600160a01b0316146110325760405162461bcd60e51b815260040161043b90611811565b601986106110525760405162461bcd60e51b815260040161043b906118b5565b8460038888604051611065929190611742565b90815260405190819003602001902080546001600160a01b03929092166001600160a01b031990921691909117905561109c6114ac565b89898080601f016020809104026020016040519081016040528093929190818152602001838380828437600092019190915250505090825250604080516020601f8a0181900481028201810190925288815290899089908190840183828082843760009201829052506020808701959095526001600160a01b038b16604087015260028054600181018255915285518051879660039093027f405787fa12a823e0f2b7631cc41b3ba8828b3321ca811111fa75cd3aa3bb5ace01955061116894508593509101906114d6565b50602082810151805161118192600185019201906114d6565b5060409182015160029190910180546001600160a01b0319166001600160a01b03909216919091179055516111b99089908990611742565b60405180910390207f8332d9919bf32207cb796a0a21674da0f96c4d6f2257c02073ff112e117bff0c87604051610d079190611752565b6000610862836001600160a01b038416611307565b3390565b600082815260208190526040902061122190826111f0565b156103775761122e611205565b6001600160a01b0316816001600160a01b0316837f2f8788117e7eff1d82e926ec794901d17c78024a50270940304540a733656f0d60405160405180910390a45050565b600082815260208190526040902061128a9082611351565b1561037757611297611205565b6001600160a01b0316816001600160a01b0316837ff6391f5c32d9c69d2a47ea670b442974b53935d1edc7fd64eb21e047a839171b60405160405180910390a45050565b60006108628383611366565b6000610862836001600160a01b0384166113ca565b6000610865826113e2565b600061131383836113ca565b61134957508154600181810184556000848152602080822090930184905584548482528286019093526040902091909155610865565b506000610865565b6000610862836001600160a01b0384166113e6565b815460009082106113a85760405162461bcd60e51b81526004018080602001828103825260228152602001806118fa6022913960400191505060405180910390fd5b8260000182815481106113b757fe5b9060005260206000200154905092915050565b60009081526001919091016020526040902054151590565b5490565b600081815260018301602052604081205480156114a2578354600019808301919081019060009087908390811061141957fe5b906000526020600020015490508087600001848154811061143657fe5b60009182526020808320909101929092558281526001898101909252604090209084019055865487908061146657fe5b60019003818190600052602060002001600090559055866001016000878152602001908152602001600020600090556001945050505050610865565b6000915050610865565b6040518060600160405280606081526020016060815260200160006001600160a01b031681525090565b828054600181600116156101000203166002900490600052602060002090601f01602090048101928261150c5760008555611552565b82601f1061152557805160ff1916838001178555611552565b82800160010185558215611552579182015b82811115611552578251825591602001919060010190611537565b5061155e929150611562565b5090565b5b8082111561155e5760008155600101611563565b80356001600160a01b038116811461030f57600080fd5b60008083601f84011261159f578182fd5b50813567ffffffffffffffff8111156115b6578182fd5b6020830191508360208285010111156115ce57600080fd5b9250929050565b6000602082840312156115e6578081fd5b5035919050565b600080604083850312156115ff578081fd5b8235915061160f60208401611577565b90509250929050565b6000806040838503121561162a578182fd5b50508035926020909101359150565b6000806020838503121561164b578182fd5b823567ffffffffffffffff811115611661578283fd5b61166d8582860161158e565b90969095509350505050565b600080600080600060608688031215611690578081fd5b853567ffffffffffffffff808211156116a7578283fd5b6116b389838a0161158e565b909750955060208801359150808211156116cb578283fd5b506116d88882890161158e565b90945092506116eb905060408701611577565b90509295509295909350565b60008151808452815b8181101561171c57602081850181015186830182015201611700565b8181111561172d5782602083870101525b50601f01601f19169290920160200192915050565b6000828483379101908152919050565b6001600160a01b0391909116815260200190565b60208082528251828201819052600091906040908185019080840286018301878501865b838110156117ef57603f198984030185528151606081518186526117b0828701826116f7565b915050888201518582038a8701526117c882826116f7565b928901516001600160a01b031695890195909552509487019492509086019060010161178a565b509098975050505050505050565b901515815260200190565b90815260200190565b60208082526032908201527f4272696467654d616e616765723a20746f6b656e20616464726573732069732060408201527f616c726561647920726567697374657265640000000000000000000000000000606082015260800190565b60208082526027908201527f4272696467654d616e616765723a20746f6b656e4e616d652063616e277420626040820152666520656d70747960c81b606082015260800190565b60208082526024908201527f4272696467654d616e616765723a20746f6b656e2053796d626f6c20746f6f206040820152636c6f6e6760e01b60608201526080019056fe456e756d657261626c655365743a20696e646578206f7574206f6620626f756e6473416363657373436f6e74726f6c3a2073656e646572206d75737420626520616e2061646d696e20746f206772616e74416363657373436f6e74726f6c3a2073656e646572206d75737420626520616e2061646d696e20746f207265766f6b65416363657373436f6e74726f6c3a2063616e206f6e6c792072656e6f756e636520726f6c657320666f722073656c66a26469706673582212204a613910d328e26966c46ba5de36001d2b78974379f9669b22f91ee74c73d67564736f6c63430007060033",
  "immutableReferences": {},
  "source": "// SPDX-License-Identifier: MIT\npragma solidity ^0.7.6;\npragma experimental ABIEncoderV2;\n\nimport \"@openzeppelin/contracts/access/AccessControl.sol\";\nimport \"@openzeppelin/contracts/token/ERC20/IERC20.sol\";\nimport \"@openzeppelin/contracts/token/ERC721/IERC721.sol\";\n// import \"https://github.com/OpenZeppelin/openzeppelin-contracts/blob/master/contracts/access/AccessControl.sol\";\n// import \"https://github.com/OpenZeppelin/openzeppelin-contracts/blob/master/contracts/token/ERC20/IERC20.sol\";\n// import \"https://github.com/OpenZeppelin/openzeppelin-contracts/blob/master/contracts/token/ERC721/IERC721.sol\";\n\n/// @author The PRIVI Blockchain team\n/// @title Manages Bridge with ethereum, ERC20 tokens and ERC721 tokens between Users on Ethereum and PRIVI platform\n\ncontract BridgeManager is AccessControl{\n    bytes32 public constant REGISTER_ROLE = keccak256(\"REGISTER_ROLE\");\n    address private ZERO_ADDRESS = 0x0000000000000000000000000000000000000000;\n    \n    struct registeredToken {\n        string name;\n        string symbol;\n        address deployedAddress;\n    }\n    \n    registeredToken[] private erc20RegisteredArray;\n    mapping(string => address) private contractAddressERC20;\n    registeredToken[] private erc721RegisteredArray;\n    mapping(string => address) private contractAddressERC721;\n    registeredToken[] private erc1155RegisteredArray;\n    mapping(string => address) private contractAddressERC1155;\n\n    event RegisterERC20Token(string indexed name, address tokenAddress);\n    event UnRegisterERC20Token(string indexed name);\n    event RegisterERC721Token(string indexed name, address tokenAddress);\n    event UnRegisterERC721Token(string indexed name);\n    event RegisterERC1155Token(string indexed name, address tokenAddress);\n    event UnRegisterERC1155Token(string indexed name);\n\n    /**\n     * @notice  Modifier to require 'tokenName' is not empty\n     * @param   tokenNameToCheck Token name to be checked\n     */\n    modifier nameIsNotEmpty(string memory tokenNameToCheck) {\n        bytes memory bytesTokenName = bytes(tokenNameToCheck);\n        require(bytesTokenName.length != 0, \"BridgeManager: tokenName can't be empty\");\n        _;\n    }\n\n    /**\n     * @notice Constructor to assign all roles to contract creator\n     */\n    constructor() {\n        _setupRole(DEFAULT_ADMIN_ROLE, _msgSender());\n        _setupRole(REGISTER_ROLE, _msgSender());\n    }\n\n    /**\n     * @notice get an address of a registered erc20 tokens\n     */\n    function getErc20AddressRegistered(string calldata tokenSymbol) external view returns(address returnAddress) {\n        returnAddress = contractAddressERC20[tokenSymbol];\n    }\n    \n    /**\n     * @notice get an array of all registered erc20 tokens\n     */\n    function getAllErc20Registered() external view returns(registeredToken[] memory) {\n        return erc20RegisteredArray;\n    }\n    \n    /**\n     * @notice get count of all registered erc20 tokens\n     */\n    function getAllErc20Count() external view returns(uint256) {\n        return erc20RegisteredArray.length;\n    }\n\n    /**\n     * @notice get an address of a registered erc721 tokens\n     */\n    function getErc721AddressRegistered(string calldata tokenSymbol) external view returns(address returnAddress) {\n        returnAddress = contractAddressERC721[tokenSymbol];\n    }\n    \n    /**\n     * @notice get an array of all registered erc721 tokens\n     */\n    function getAllErc721Registered() external view returns(registeredToken[] memory) {\n        return erc721RegisteredArray;\n    }\n    \n    /**\n     * @notice get count of all registered erc721 tokens\n     */\n    function getAllErc721Count() external view returns(uint256) {\n        return erc721RegisteredArray.length;\n    }\n\n    /**\n     * @notice get an address of a registered erc1155 tokens\n     */\n    function getErc1155AddressRegistered(string calldata tokenURI) external view returns(address returnAddress) {\n        returnAddress = contractAddressERC1155[tokenURI];\n    }\n    \n    /**\n     * @notice get an array of all registered erc1155 tokens\n     */\n    function getAllErc1155Registered() external view returns(registeredToken[] memory) {\n        return erc1155RegisteredArray;\n    }\n    \n    /**\n     * @notice get count of all registered erc1155 tokens\n     */\n    function getAllErc1155Count() external view returns(uint256) {\n        return erc1155RegisteredArray.length;\n    }\n    \n    /**\n     * @notice  Register the contract address of an ERC20 Token\n     * @dev     - Token name and address can't be already registered\n     *          - Length of token name can't be higher than 25\n     * @param   tokenName Name of the token to be registered (e.g.: DAI, UNI)\n     * @param   tokenContractAddress Contract address of the ERC20 Token\n     */\n    function registerTokenERC20(string calldata tokenName, string calldata tokenSymbol, address tokenContractAddress) external nameIsNotEmpty(tokenName) nameIsNotEmpty(tokenSymbol)  {\n        require(contractAddressERC20[tokenSymbol] == ZERO_ADDRESS, \n            \"BridgeManager: token address is already registered\");\n        require(bytes(tokenSymbol).length < 25, \n            \"BridgeManager: token Symbol too long\");\n        contractAddressERC20[tokenSymbol] = tokenContractAddress;\n        registeredToken memory regToken;\n        regToken.name = tokenName;\n        regToken.symbol = tokenSymbol;\n        regToken.deployedAddress = tokenContractAddress;\n        erc20RegisteredArray.push(regToken);\n        emit RegisterERC20Token(tokenSymbol, tokenContractAddress);\n    }\n\n    /**\n     * @notice  Register the contract address of an ERC721 Token\n     * @dev     - Token name and address can't be already registered\n     *          - Length of token name can't be higher than 25\n     * @param   tokenName Name of the token to be registered\n     * @param   tokenContractAddress Contract address of the ERC721 Token\n     */\n    function registerTokenERC721(string calldata tokenName, string calldata tokenSymbol, address tokenContractAddress) external nameIsNotEmpty(tokenName) nameIsNotEmpty(tokenSymbol) {\n        // require(hasRole(REGISTER_ROLE, _msgSender()), \n        //     \"BridgeManager: must have REGISTER_ROLE to register a token\");\n        require(contractAddressERC721[tokenSymbol] == ZERO_ADDRESS, \n            \"BridgeManager: token address is already registered\");\n        require(bytes(tokenSymbol).length < 25, \n            \"BridgeManager: token Symbol too long\");\n        contractAddressERC721[tokenSymbol] = tokenContractAddress;\n        registeredToken memory regToken;\n        regToken.name = tokenName;\n        regToken.symbol = tokenSymbol;\n        regToken.deployedAddress = tokenContractAddress;\n        erc721RegisteredArray.push(regToken);\n        emit RegisterERC721Token(tokenSymbol, tokenContractAddress);\n    }\n\n    /**\n     * @notice  Register the contract address of an ERC1155 Token\n     * @dev     - Token name and address can't be already registered\n     *          - Length of token name can't be higher than 25\n     * @param   tokenURI URI of the token to be registered\n     * @param   tokenContractAddress Contract address of the ERC1155 Token\n     */\n    function registerTokenERC1155(string calldata tokenName, string calldata tokenURI, address tokenContractAddress) external nameIsNotEmpty(tokenURI) {\n        require(contractAddressERC1155[tokenURI] == ZERO_ADDRESS, \n            \"BridgeManager: token address is already registered\");\n        require(bytes(tokenURI).length < 25, \n            \"BridgeManager: token Symbol too long\");\n        contractAddressERC1155[tokenURI] = tokenContractAddress;\n        registeredToken memory regToken;\n        regToken.name = tokenName;\n        regToken.symbol = tokenURI;\n        regToken.deployedAddress = tokenContractAddress;\n        erc1155RegisteredArray.push(regToken);\n        emit RegisterERC1155Token(tokenURI, tokenContractAddress);\n    }\n\n}",
  "sourcePath": "/home/rekard0/Documents/WORK/PriviEthereum/PRIVIethereum/contracts/BridgeManager.sol",
  "compiler": {
    "name": "solc",
    "version": "0.7.6+commit.7338295f.Emscripten.clang"
  },
  "schemaVersion": "3.3.3",
  "updatedAt": "2021-03-05T19:27:36.391Z",
  "networkType": "ethereum",
  "devdoc": {
    "author": "The PRIVI Blockchain team",
    "kind": "dev",
    "methods": {
      "getRoleAdmin(bytes32)": {
        "details": "Returns the admin role that controls `role`. See {grantRole} and {revokeRole}. To change a role's admin, use {_setRoleAdmin}."
      },
      "getRoleMember(bytes32,uint256)": {
        "details": "Returns one of the accounts that have `role`. `index` must be a value between 0 and {getRoleMemberCount}, non-inclusive. Role bearers are not sorted in any particular way, and their ordering may change at any point. WARNING: When using {getRoleMember} and {getRoleMemberCount}, make sure you perform all queries on the same block. See the following https://forum.openzeppelin.com/t/iterating-over-elements-on-enumerableset-in-openzeppelin-contracts/2296[forum post] for more information."
      },
      "getRoleMemberCount(bytes32)": {
        "details": "Returns the number of accounts that have `role`. Can be used together with {getRoleMember} to enumerate all bearers of a role."
      },
      "grantRole(bytes32,address)": {
        "details": "Grants `role` to `account`. If `account` had not been already granted `role`, emits a {RoleGranted} event. Requirements: - the caller must have ``role``'s admin role."
      },
      "hasRole(bytes32,address)": {
        "details": "Returns `true` if `account` has been granted `role`."
      },
      "registerTokenERC1155(string,string,address)": {
        "details": "- Token name and address can't be already registered          - Length of token name can't be higher than 25",
        "params": {
          "tokenContractAddress": "Contract address of the ERC1155 Token",
          "tokenURI": "URI of the token to be registered"
        }
      },
      "registerTokenERC20(string,string,address)": {
        "details": "- Token name and address can't be already registered          - Length of token name can't be higher than 25",
        "params": {
          "tokenContractAddress": "Contract address of the ERC20 Token",
          "tokenName": "Name of the token to be registered (e.g.: DAI, UNI)"
        }
      },
      "registerTokenERC721(string,string,address)": {
        "details": "- Token name and address can't be already registered          - Length of token name can't be higher than 25",
        "params": {
          "tokenContractAddress": "Contract address of the ERC721 Token",
          "tokenName": "Name of the token to be registered"
        }
      },
      "renounceRole(bytes32,address)": {
        "details": "Revokes `role` from the calling account. Roles are often managed via {grantRole} and {revokeRole}: this function's purpose is to provide a mechanism for accounts to lose their privileges if they are compromised (such as when a trusted device is misplaced). If the calling account had been granted `role`, emits a {RoleRevoked} event. Requirements: - the caller must be `account`."
      },
      "revokeRole(bytes32,address)": {
        "details": "Revokes `role` from `account`. If `account` had been granted `role`, emits a {RoleRevoked} event. Requirements: - the caller must have ``role``'s admin role."
      }
    },
    "title": "Manages Bridge with ethereum, ERC20 tokens and ERC721 tokens between Users on Ethereum and PRIVI platform",
    "version": 1
  },
  "userdoc": {
    "kind": "user",
    "methods": {
      "constructor": {
        "notice": "Constructor to assign all roles to contract creator"
      },
      "getAllErc1155Count()": {
        "notice": "get count of all registered erc1155 tokens"
      },
      "getAllErc1155Registered()": {
        "notice": "get an array of all registered erc1155 tokens"
      },
      "getAllErc20Count()": {
        "notice": "get count of all registered erc20 tokens"
      },
      "getAllErc20Registered()": {
        "notice": "get an array of all registered erc20 tokens"
      },
      "getAllErc721Count()": {
        "notice": "get count of all registered erc721 tokens"
      },
      "getAllErc721Registered()": {
        "notice": "get an array of all registered erc721 tokens"
      },
      "getErc1155AddressRegistered(string)": {
        "notice": "get an address of a registered erc1155 tokens"
      },
      "getErc20AddressRegistered(string)": {
        "notice": "get an address of a registered erc20 tokens"
      },
      "getErc721AddressRegistered(string)": {
        "notice": "get an address of a registered erc721 tokens"
      },
      "registerTokenERC1155(string,string,address)": {
        "notice": "Register the contract address of an ERC1155 Token"
      },
      "registerTokenERC20(string,string,address)": {
        "notice": "Register the contract address of an ERC20 Token"
      },
      "registerTokenERC721(string,string,address)": {
        "notice": "Register the contract address of an ERC721 Token"
      }
    },
    "version": 1
  }
}