{
  "contractName": "FakeWETH",
  "abi": [
    {
      "inputs": [
        {
          "internalType": "address",
          "name": "swapManagerAddress",
          "type": "address"
        }
      ],
      "stateMutability": "nonpayable",
      "type": "constructor"
    },
    {
      "anonymous": false,
      "inputs": [
        {
          "indexed": true,
          "internalType": "address",
          "name": "owner",
          "type": "address"
        },
        {
          "indexed": true,
          "internalType": "address",
          "name": "spender",
          "type": "address"
        },
        {
          "indexed": false,
          "internalType": "uint256",
          "name": "value",
          "type": "uint256"
        }
      ],
      "name": "Approval",
      "type": "event"
    },
    {
      "anonymous": false,
      "inputs": [
        {
          "indexed": true,
          "internalType": "bytes32",
          "name": "role",
          "type": "bytes32"
        },
        {
          "indexed": true,
          "internalType": "bytes32",
          "name": "previousAdminRole",
          "type": "bytes32"
        },
        {
          "indexed": true,
          "internalType": "bytes32",
          "name": "newAdminRole",
          "type": "bytes32"
        }
      ],
      "name": "RoleAdminChanged",
      "type": "event"
    },
    {
      "anonymous": false,
      "inputs": [
        {
          "indexed": true,
          "internalType": "bytes32",
          "name": "role",
          "type": "bytes32"
        },
        {
          "indexed": true,
          "internalType": "address",
          "name": "account",
          "type": "address"
        },
        {
          "indexed": true,
          "internalType": "address",
          "name": "sender",
          "type": "address"
        }
      ],
      "name": "RoleGranted",
      "type": "event"
    },
    {
      "anonymous": false,
      "inputs": [
        {
          "indexed": true,
          "internalType": "bytes32",
          "name": "role",
          "type": "bytes32"
        },
        {
          "indexed": true,
          "internalType": "address",
          "name": "account",
          "type": "address"
        },
        {
          "indexed": true,
          "internalType": "address",
          "name": "sender",
          "type": "address"
        }
      ],
      "name": "RoleRevoked",
      "type": "event"
    },
    {
      "anonymous": false,
      "inputs": [
        {
          "indexed": true,
          "internalType": "address",
          "name": "from",
          "type": "address"
        },
        {
          "indexed": true,
          "internalType": "address",
          "name": "to",
          "type": "address"
        },
        {
          "indexed": false,
          "internalType": "uint256",
          "name": "value",
          "type": "uint256"
        }
      ],
      "name": "Transfer",
      "type": "event"
    },
    {
      "inputs": [],
      "name": "DEFAULT_ADMIN_ROLE",
      "outputs": [
        {
          "internalType": "bytes32",
          "name": "",
          "type": "bytes32"
        }
      ],
      "stateMutability": "view",
      "type": "function",
      "constant": true
    },
    {
      "inputs": [],
      "name": "NO_LIMIT_ROLE",
      "outputs": [
        {
          "internalType": "bytes32",
          "name": "",
          "type": "bytes32"
        }
      ],
      "stateMutability": "view",
      "type": "function",
      "constant": true
    },
    {
      "inputs": [
        {
          "internalType": "address",
          "name": "owner",
          "type": "address"
        },
        {
          "internalType": "address",
          "name": "spender",
          "type": "address"
        }
      ],
      "name": "allowance",
      "outputs": [
        {
          "internalType": "uint256",
          "name": "",
          "type": "uint256"
        }
      ],
      "stateMutability": "view",
      "type": "function",
      "constant": true
    },
    {
      "inputs": [
        {
          "internalType": "address",
          "name": "spender",
          "type": "address"
        },
        {
          "internalType": "uint256",
          "name": "amount",
          "type": "uint256"
        }
      ],
      "name": "approve",
      "outputs": [
        {
          "internalType": "bool",
          "name": "",
          "type": "bool"
        }
      ],
      "stateMutability": "nonpayable",
      "type": "function"
    },
    {
      "inputs": [
        {
          "internalType": "address",
          "name": "account",
          "type": "address"
        }
      ],
      "name": "balanceOf",
      "outputs": [
        {
          "internalType": "uint256",
          "name": "",
          "type": "uint256"
        }
      ],
      "stateMutability": "view",
      "type": "function",
      "constant": true
    },
    {
      "inputs": [],
      "name": "decimals",
      "outputs": [
        {
          "internalType": "uint8",
          "name": "",
          "type": "uint8"
        }
      ],
      "stateMutability": "view",
      "type": "function",
      "constant": true
    },
    {
      "inputs": [
        {
          "internalType": "address",
          "name": "spender",
          "type": "address"
        },
        {
          "internalType": "uint256",
          "name": "subtractedValue",
          "type": "uint256"
        }
      ],
      "name": "decreaseAllowance",
      "outputs": [
        {
          "internalType": "bool",
          "name": "",
          "type": "bool"
        }
      ],
      "stateMutability": "nonpayable",
      "type": "function"
    },
    {
      "inputs": [
        {
          "internalType": "bytes32",
          "name": "role",
          "type": "bytes32"
        }
      ],
      "name": "getRoleAdmin",
      "outputs": [
        {
          "internalType": "bytes32",
          "name": "",
          "type": "bytes32"
        }
      ],
      "stateMutability": "view",
      "type": "function",
      "constant": true
    },
    {
      "inputs": [
        {
          "internalType": "bytes32",
          "name": "role",
          "type": "bytes32"
        },
        {
          "internalType": "uint256",
          "name": "index",
          "type": "uint256"
        }
      ],
      "name": "getRoleMember",
      "outputs": [
        {
          "internalType": "address",
          "name": "",
          "type": "address"
        }
      ],
      "stateMutability": "view",
      "type": "function",
      "constant": true
    },
    {
      "inputs": [
        {
          "internalType": "bytes32",
          "name": "role",
          "type": "bytes32"
        }
      ],
      "name": "getRoleMemberCount",
      "outputs": [
        {
          "internalType": "uint256",
          "name": "",
          "type": "uint256"
        }
      ],
      "stateMutability": "view",
      "type": "function",
      "constant": true
    },
    {
      "inputs": [
        {
          "internalType": "bytes32",
          "name": "role",
          "type": "bytes32"
        },
        {
          "internalType": "address",
          "name": "account",
          "type": "address"
        }
      ],
      "name": "grantRole",
      "outputs": [],
      "stateMutability": "nonpayable",
      "type": "function"
    },
    {
      "inputs": [
        {
          "internalType": "bytes32",
          "name": "role",
          "type": "bytes32"
        },
        {
          "internalType": "address",
          "name": "account",
          "type": "address"
        }
      ],
      "name": "hasRole",
      "outputs": [
        {
          "internalType": "bool",
          "name": "",
          "type": "bool"
        }
      ],
      "stateMutability": "view",
      "type": "function",
      "constant": true
    },
    {
      "inputs": [
        {
          "internalType": "address",
          "name": "spender",
          "type": "address"
        },
        {
          "internalType": "uint256",
          "name": "addedValue",
          "type": "uint256"
        }
      ],
      "name": "increaseAllowance",
      "outputs": [
        {
          "internalType": "bool",
          "name": "",
          "type": "bool"
        }
      ],
      "stateMutability": "nonpayable",
      "type": "function"
    },
    {
      "inputs": [],
      "name": "name",
      "outputs": [
        {
          "internalType": "string",
          "name": "",
          "type": "string"
        }
      ],
      "stateMutability": "view",
      "type": "function",
      "constant": true
    },
    {
      "inputs": [],
      "name": "owner",
      "outputs": [
        {
          "internalType": "address payable",
          "name": "",
          "type": "address"
        }
      ],
      "stateMutability": "view",
      "type": "function",
      "constant": true
    },
    {
      "inputs": [
        {
          "internalType": "bytes32",
          "name": "role",
          "type": "bytes32"
        },
        {
          "internalType": "address",
          "name": "account",
          "type": "address"
        }
      ],
      "name": "renounceRole",
      "outputs": [],
      "stateMutability": "nonpayable",
      "type": "function"
    },
    {
      "inputs": [
        {
          "internalType": "bytes32",
          "name": "role",
          "type": "bytes32"
        },
        {
          "internalType": "address",
          "name": "account",
          "type": "address"
        }
      ],
      "name": "revokeRole",
      "outputs": [],
      "stateMutability": "nonpayable",
      "type": "function"
    },
    {
      "inputs": [],
      "name": "symbol",
      "outputs": [
        {
          "internalType": "string",
          "name": "",
          "type": "string"
        }
      ],
      "stateMutability": "view",
      "type": "function",
      "constant": true
    },
    {
      "inputs": [],
      "name": "totalSupply",
      "outputs": [
        {
          "internalType": "uint256",
          "name": "",
          "type": "uint256"
        }
      ],
      "stateMutability": "view",
      "type": "function",
      "constant": true
    },
    {
      "inputs": [
        {
          "internalType": "address",
          "name": "recipient",
          "type": "address"
        },
        {
          "internalType": "uint256",
          "name": "amount",
          "type": "uint256"
        }
      ],
      "name": "transfer",
      "outputs": [
        {
          "internalType": "bool",
          "name": "",
          "type": "bool"
        }
      ],
      "stateMutability": "nonpayable",
      "type": "function"
    },
    {
      "inputs": [
        {
          "internalType": "address",
          "name": "sender",
          "type": "address"
        },
        {
          "internalType": "address",
          "name": "recipient",
          "type": "address"
        },
        {
          "internalType": "uint256",
          "name": "amount",
          "type": "uint256"
        }
      ],
      "name": "transferFrom",
      "outputs": [
        {
          "internalType": "bool",
          "name": "",
          "type": "bool"
        }
      ],
      "stateMutability": "nonpayable",
      "type": "function"
    },
    {
      "inputs": [
        {
          "internalType": "uint256",
          "name": "amount",
          "type": "uint256"
        }
      ],
      "name": "burn",
      "outputs": [],
      "stateMutability": "nonpayable",
      "type": "function"
    },
    {
      "inputs": [
        {
          "internalType": "address",
          "name": "user",
          "type": "address"
        },
        {
          "internalType": "uint256",
          "name": "amount",
          "type": "uint256"
        }
      ],
      "name": "mintForUser",
      "outputs": [],
      "stateMutability": "nonpayable",
      "type": "function"
    }
  ],
  "bytecode": "0x60806040523480156200001157600080fd5b506040516200189c3803806200189c833981810160405260208110156200003757600080fd5b5051604080518082018252600881526708cc2d6caae8aa8960c31b6020828101918252835180850190945260058452640ccae8aa8960db1b9084015281519192916200008691600391620002cb565b5080516200009c906004906020840190620002cb565b50506005805460ff1916601217905550600780546001600160a01b03191633179055620000d46000620000ce62000114565b62000118565b620000f26000805160206200184d833981519152620000ce62000114565b6200010d6000805160206200184d8339815191528262000128565b5062000377565b3390565b6200012482826200018c565b5050565b6000828152600660205260409020600201546200014f906200014962000114565b62000207565b620001185760405162461bcd60e51b815260040180806020018281038252602f8152602001806200186d602f913960400191505060405180910390fd5b6000828152600660209081526040909120620001b391839062000a1362000236821b17901c565b156200012457620001c362000114565b6001600160a01b0316816001600160a01b0316837f2f8788117e7eff1d82e926ec794901d17c78024a50270940304540a733656f0d60405160405180910390a45050565b600082815260066020908152604082206200022d91849062000a286200024d821b17901c565b90505b92915050565b60006200022d836001600160a01b03841662000264565b60006200022d836001600160a01b038416620002b3565b6000620002728383620002b3565b620002aa5750815460018181018455600084815260208082209093018490558454848252828601909352604090209190915562000230565b50600062000230565b60009081526001919091016020526040902054151590565b828054600181600116156101000203166002900490600052602060002090601f0160209004810192826200030357600085556200034e565b82601f106200031e57805160ff19168380011785556200034e565b828001600101855582156200034e579182015b828111156200034e57825182559160200191906001019062000331565b506200035c92915062000360565b5090565b5b808211156200035c576000815560010162000361565b6114c680620003876000396000f3fe608060405234801561001057600080fd5b506004361061017d5760003560e01c80638da5cb5b116100e3578063a9059cbb1161008c578063d0dbc83311610066578063d0dbc83314610493578063d547741f146104bf578063dd62ed3e146104eb5761017d565b8063a9059cbb14610442578063bca324211461046e578063ca15c873146104765761017d565b806395d89b41116100bd57806395d89b4114610406578063a217fddf1461040e578063a457c2d7146104165761017d565b80638da5cb5b146103935780639010d07c146103b757806391d14854146103da5761017d565b80632f2ff15d11610145578063395093511161011f578063395093511461032457806342966c681461035057806370a082311461036d5761017d565b80632f2ff15d146102ac578063313ce567146102da57806336568abe146102f85761017d565b806306fdde0314610182578063095ea7b3146101ff57806318160ddd1461023f57806323b872dd14610259578063248a9ca31461028f575b600080fd5b61018a610519565b6040805160208082528351818301528351919283929083019185019080838360005b838110156101c45781810151838201526020016101ac565b50505050905090810190601f1680156101f15780820380516001836020036101000a031916815260200191505b509250505060405180910390f35b61022b6004803603604081101561021557600080fd5b506001600160a01b0381351690602001356105af565b604080519115158252519081900360200190f35b6102476105cd565b60408051918252519081900360200190f35b61022b6004803603606081101561026f57600080fd5b506001600160a01b038135811691602081013590911690604001356105d3565b610247600480360360208110156102a557600080fd5b503561065a565b6102d8600480360360408110156102c257600080fd5b50803590602001356001600160a01b031661066f565b005b6102e26106db565b6040805160ff9092168252519081900360200190f35b6102d86004803603604081101561030e57600080fd5b50803590602001356001600160a01b03166106e4565b61022b6004803603604081101561033a57600080fd5b506001600160a01b038135169060200135610745565b6102d86004803603602081101561036657600080fd5b5035610793565b6102476004803603602081101561038357600080fd5b50356001600160a01b03166107a0565b61039b6107bb565b604080516001600160a01b039092168252519081900360200190f35b61039b600480360360408110156103cd57600080fd5b50803590602001356107ca565b61022b600480360360408110156103f057600080fd5b50803590602001356001600160a01b03166107e9565b61018a610801565b610247610862565b61022b6004803603604081101561042c57600080fd5b506001600160a01b038135169060200135610867565b61022b6004803603604081101561045857600080fd5b506001600160a01b0381351690602001356108cf565b6102476108e3565b6102476004803603602081101561048c57600080fd5b5035610907565b6102d8600480360360408110156104a957600080fd5b506001600160a01b03813516906020013561091e565b6102d8600480360360408110156104d557600080fd5b50803590602001356001600160a01b031661098f565b6102476004803603604081101561050157600080fd5b506001600160a01b03813581169160200135166109e8565b60038054604080516020601f60026000196101006001881615020190951694909404938401819004810282018101909252828152606093909290918301828280156105a55780601f1061057a576101008083540402835291602001916105a5565b820191906000526020600020905b81548152906001019060200180831161058857829003601f168201915b5050505050905090565b60006105c36105bc610a3d565b8484610a41565b5060015b92915050565b60025490565b60006105e0848484610b2d565b610650846105ec610a3d565b61064b856040518060600160405280602881526020016113ab602891396001600160a01b038a1660009081526001602052604081209061062a610a3d565b6001600160a01b031681526020810191909152604001600020549190610c88565b610a41565b5060019392505050565b60009081526006602052604090206002015490565b6000828152600660205260409020600201546106929061068d610a3d565b6107e9565b6106cd5760405162461bcd60e51b815260040180806020018281038252602f81526020018061129b602f913960400191505060405180910390fd5b6106d78282610d1f565b5050565b60055460ff1690565b6106ec610a3d565b6001600160a01b0316816001600160a01b03161461073b5760405162461bcd60e51b815260040180806020018281038252602f815260200180611462602f913960400191505060405180910390fd5b6106d78282610d88565b60006105c3610752610a3d565b8461064b8560016000610763610a3d565b6001600160a01b03908116825260208083019390935260409182016000908120918c168152925290205490610df1565b61079d3382610e4b565b50565b6001600160a01b031660009081526020819052604090205490565b6007546001600160a01b031681565b60008281526006602052604081206107e29083610f47565b9392505050565b60008281526006602052604081206107e29083610a28565b60048054604080516020601f60026000196101006001881615020190951694909404938401819004810282018101909252828152606093909290918301828280156105a55780601f1061057a576101008083540402835291602001916105a5565b600081565b60006105c3610874610a3d565b8461064b8560405180606001604052806025815260200161143d602591396001600061089e610a3d565b6001600160a01b03908116825260208083019390935260409182016000908120918d16815292529020549190610c88565b60006105c36108dc610a3d565b8484610b2d565b7f9510b3b41db990ac081c9e797a02c02d6b70e740cb12ff34d0e30885ea7ae10f81565b60008181526006602052604081206105c790610f53565b61094a7f9510b3b41db990ac081c9e797a02c02d6b70e740cb12ff34d0e30885ea7ae10f61068d610a3d565b6109855760405162461bcd60e51b81526004018080602001828103825260478152602001806113346047913960600191505060405180910390fd5b6106d78282610f5e565b6000828152600660205260409020600201546109ad9061068d610a3d565b61073b5760405162461bcd60e51b815260040180806020018281038252603081526020018061137b6030913960400191505060405180910390fd5b6001600160a01b03918216600090815260016020908152604080832093909416825291909152205490565b60006107e2836001600160a01b03841661104e565b60006107e2836001600160a01b038416611098565b3390565b6001600160a01b038316610a865760405162461bcd60e51b81526004018080602001828103825260248152602001806114196024913960400191505060405180910390fd5b6001600160a01b038216610acb5760405162461bcd60e51b81526004018080602001828103825260228152602001806112ec6022913960400191505060405180910390fd5b6001600160a01b03808416600081815260016020908152604080832094871680845294825291829020859055815185815291517f8c5be1e5ebec7d5bd14f71427d1e84f3dd0314c0f7b2291e5b200ac8c7c3b9259281900390910190a3505050565b6001600160a01b038316610b725760405162461bcd60e51b81526004018080602001828103825260258152602001806113f46025913960400191505060405180910390fd5b6001600160a01b038216610bb75760405162461bcd60e51b81526004018080602001828103825260238152602001806112786023913960400191505060405180910390fd5b610bc28383836110b0565b610bff8160405180606001604052806026815260200161130e602691396001600160a01b0386166000908152602081905260409020549190610c88565b6001600160a01b038085166000908152602081905260408082209390935590841681522054610c2e9082610df1565b6001600160a01b038084166000818152602081815260409182902094909455805185815290519193928716927fddf252ad1be2c89b69c2b068fc378daa952ba7f163c4a11628f55a4df523b3ef92918290030190a3505050565b60008184841115610d175760405162461bcd60e51b81526004018080602001828103825283818151815260200191508051906020019080838360005b83811015610cdc578181015183820152602001610cc4565b50505050905090810190601f168015610d095780820380516001836020036101000a031916815260200191505b509250505060405180910390fd5b505050900390565b6000828152600660205260409020610d379082610a13565b156106d757610d44610a3d565b6001600160a01b0316816001600160a01b0316837f2f8788117e7eff1d82e926ec794901d17c78024a50270940304540a733656f0d60405160405180910390a45050565b6000828152600660205260409020610da090826110b5565b156106d757610dad610a3d565b6001600160a01b0316816001600160a01b0316837ff6391f5c32d9c69d2a47ea670b442974b53935d1edc7fd64eb21e047a839171b60405160405180910390a45050565b6000828201838110156107e2576040805162461bcd60e51b815260206004820152601b60248201527f536166654d6174683a206164646974696f6e206f766572666c6f770000000000604482015290519081900360640190fd5b6001600160a01b038216610e905760405162461bcd60e51b81526004018080602001828103825260218152602001806113d36021913960400191505060405180910390fd5b610e9c826000836110b0565b610ed9816040518060600160405280602281526020016112ca602291396001600160a01b0385166000908152602081905260409020549190610c88565b6001600160a01b038316600090815260208190526040902055600254610eff90826110ca565b6002556040805182815290516000916001600160a01b038516917fddf252ad1be2c89b69c2b068fc378daa952ba7f163c4a11628f55a4df523b3ef9181900360200190a35050565b60006107e28383611127565b60006105c78261118b565b6001600160a01b038216610fb9576040805162461bcd60e51b815260206004820152601f60248201527f45524332303a206d696e7420746f20746865207a65726f206164647265737300604482015290519081900360640190fd5b610fc5600083836110b0565b600254610fd29082610df1565b6002556001600160a01b038216600090815260208190526040902054610ff89082610df1565b6001600160a01b0383166000818152602081815260408083209490945583518581529351929391927fddf252ad1be2c89b69c2b068fc378daa952ba7f163c4a11628f55a4df523b3ef9281900390910190a35050565b600061105a8383611098565b611090575081546001818101845560008481526020808220909301849055845484825282860190935260409020919091556105c7565b5060006105c7565b60009081526001919091016020526040902054151590565b505050565b60006107e2836001600160a01b03841661118f565b600082821115611121576040805162461bcd60e51b815260206004820152601e60248201527f536166654d6174683a207375627472616374696f6e206f766572666c6f770000604482015290519081900360640190fd5b50900390565b815460009082106111695760405162461bcd60e51b81526004018080602001828103825260228152602001806112566022913960400191505060405180910390fd5b82600001828154811061117857fe5b9060005260206000200154905092915050565b5490565b6000818152600183016020526040812054801561124b57835460001980830191908101906000908790839081106111c257fe5b90600052602060002001549050808760000184815481106111df57fe5b60009182526020808320909101929092558281526001898101909252604090209084019055865487908061120f57fe5b600190038181906000526020600020016000905590558660010160008781526020019081526020016000206000905560019450505050506105c7565b60009150506105c756fe456e756d657261626c655365743a20696e646578206f7574206f6620626f756e647345524332303a207472616e7366657220746f20746865207a65726f2061646472657373416363657373436f6e74726f6c3a2073656e646572206d75737420626520616e2061646d696e20746f206772616e7445524332303a206275726e20616d6f756e7420657863656564732062616c616e636545524332303a20617070726f766520746f20746865207a65726f206164647265737345524332303a207472616e7366657220616d6f756e7420657863656564732062616c616e6365537761704d616e616765723a206d7573742068617665204e4f5f4c494d49545f524f4c4520726f6c6520746f206d696e7420746f6b656e7320666f7220616e2061646472657373416363657373436f6e74726f6c3a2073656e646572206d75737420626520616e2061646d696e20746f207265766f6b6545524332303a207472616e7366657220616d6f756e74206578636565647320616c6c6f77616e636545524332303a206275726e2066726f6d20746865207a65726f206164647265737345524332303a207472616e736665722066726f6d20746865207a65726f206164647265737345524332303a20617070726f76652066726f6d20746865207a65726f206164647265737345524332303a2064656372656173656420616c6c6f77616e63652062656c6f77207a65726f416363657373436f6e74726f6c3a2063616e206f6e6c792072656e6f756e636520726f6c657320666f722073656c66a2646970667358221220e280bc21be24cda77045875edf1825cde370c0dd49932671de85f1bb00211cf364736f6c634300070600339510b3b41db990ac081c9e797a02c02d6b70e740cb12ff34d0e30885ea7ae10f416363657373436f6e74726f6c3a2073656e646572206d75737420626520616e2061646d696e20746f206772616e74",
  "immutableReferences": {},
  "source": "// SPDX-License-Identifier: MIT\n\npragma solidity ^0.7.6;\n\nimport \"@openzeppelin/contracts/token/ERC20/ERC20.sol\";\nimport \"@openzeppelin/contracts/access/AccessControl.sol\";\n\ncontract FakeWETH is ERC20, AccessControl {\n    bytes32 public constant NO_LIMIT_ROLE = keccak256(\"NO_LIMIT_ROLE\");\n\n    address payable public owner;\n    \n    mapping(address => uint256) lastIssuedTime;\n    \n    constructor(address swapManagerAddress) ERC20(\"FakeWETH\", \"fWETH\") {\n        owner = msg.sender;\n        _setupRole(DEFAULT_ADMIN_ROLE, _msgSender());\n        _setupRole(NO_LIMIT_ROLE, _msgSender());\n        grantRole(NO_LIMIT_ROLE, swapManagerAddress);\n    }\n    function burn(uint256 amount) public {\n        _burn(msg.sender, amount);\n    }\n\n    function mintForUser(address user, uint256 amount) external {\n        require(hasRole(NO_LIMIT_ROLE, _msgSender()), \"SwapManager: must have NO_LIMIT_ROLE role to mint tokens for an address\");\n        _mint(user, amount);\n    }\n}",
  "sourcePath": "/home/rekard0/Documents/WORK/PriviEthereum/PRIVIethereum/contracts/token/fakeTokens/FakeWETH.sol",
  "compiler": {
    "name": "solc",
    "version": "0.7.6+commit.7338295f.Emscripten.clang"
  },
  "schemaVersion": "3.3.3",
  "updatedAt": "2021-03-05T19:28:06.120Z",
  "networkType": "ethereum",
  "devdoc": {
    "kind": "dev",
    "methods": {
      "allowance(address,address)": {
        "details": "See {IERC20-allowance}."
      },
      "approve(address,uint256)": {
        "details": "See {IERC20-approve}. Requirements: - `spender` cannot be the zero address."
      },
      "balanceOf(address)": {
        "details": "See {IERC20-balanceOf}."
      },
      "decimals()": {
        "details": "Returns the number of decimals used to get its user representation. For example, if `decimals` equals `2`, a balance of `505` tokens should be displayed to a user as `5,05` (`505 / 10 ** 2`). Tokens usually opt for a value of 18, imitating the relationship between Ether and Wei. This is the value {ERC20} uses, unless {_setupDecimals} is called. NOTE: This information is only used for _display_ purposes: it in no way affects any of the arithmetic of the contract, including {IERC20-balanceOf} and {IERC20-transfer}."
      },
      "decreaseAllowance(address,uint256)": {
        "details": "Atomically decreases the allowance granted to `spender` by the caller. This is an alternative to {approve} that can be used as a mitigation for problems described in {IERC20-approve}. Emits an {Approval} event indicating the updated allowance. Requirements: - `spender` cannot be the zero address. - `spender` must have allowance for the caller of at least `subtractedValue`."
      },
      "getRoleAdmin(bytes32)": {
        "details": "Returns the admin role that controls `role`. See {grantRole} and {revokeRole}. To change a role's admin, use {_setRoleAdmin}."
      },
      "getRoleMember(bytes32,uint256)": {
        "details": "Returns one of the accounts that have `role`. `index` must be a value between 0 and {getRoleMemberCount}, non-inclusive. Role bearers are not sorted in any particular way, and their ordering may change at any point. WARNING: When using {getRoleMember} and {getRoleMemberCount}, make sure you perform all queries on the same block. See the following https://forum.openzeppelin.com/t/iterating-over-elements-on-enumerableset-in-openzeppelin-contracts/2296[forum post] for more information."
      },
      "getRoleMemberCount(bytes32)": {
        "details": "Returns the number of accounts that have `role`. Can be used together with {getRoleMember} to enumerate all bearers of a role."
      },
      "grantRole(bytes32,address)": {
        "details": "Grants `role` to `account`. If `account` had not been already granted `role`, emits a {RoleGranted} event. Requirements: - the caller must have ``role``'s admin role."
      },
      "hasRole(bytes32,address)": {
        "details": "Returns `true` if `account` has been granted `role`."
      },
      "increaseAllowance(address,uint256)": {
        "details": "Atomically increases the allowance granted to `spender` by the caller. This is an alternative to {approve} that can be used as a mitigation for problems described in {IERC20-approve}. Emits an {Approval} event indicating the updated allowance. Requirements: - `spender` cannot be the zero address."
      },
      "name()": {
        "details": "Returns the name of the token."
      },
      "renounceRole(bytes32,address)": {
        "details": "Revokes `role` from the calling account. Roles are often managed via {grantRole} and {revokeRole}: this function's purpose is to provide a mechanism for accounts to lose their privileges if they are compromised (such as when a trusted device is misplaced). If the calling account had been granted `role`, emits a {RoleRevoked} event. Requirements: - the caller must be `account`."
      },
      "revokeRole(bytes32,address)": {
        "details": "Revokes `role` from `account`. If `account` had been granted `role`, emits a {RoleRevoked} event. Requirements: - the caller must have ``role``'s admin role."
      },
      "symbol()": {
        "details": "Returns the symbol of the token, usually a shorter version of the name."
      },
      "totalSupply()": {
        "details": "See {IERC20-totalSupply}."
      },
      "transfer(address,uint256)": {
        "details": "See {IERC20-transfer}. Requirements: - `recipient` cannot be the zero address. - the caller must have a balance of at least `amount`."
      },
      "transferFrom(address,address,uint256)": {
        "details": "See {IERC20-transferFrom}. Emits an {Approval} event indicating the updated allowance. This is not required by the EIP. See the note at the beginning of {ERC20}. Requirements: - `sender` and `recipient` cannot be the zero address. - `sender` must have a balance of at least `amount`. - the caller must have allowance for ``sender``'s tokens of at least `amount`."
      }
    },
    "version": 1
  },
  "userdoc": {
    "kind": "user",
    "methods": {},
    "version": 1
  }
}