{
  "contractName": "PRIVIPodERC721Token",
  "abi": [
    {
      "inputs": [
        {
          "internalType": "string",
          "name": "name",
          "type": "string"
        },
        {
          "internalType": "string",
          "name": "symbol",
          "type": "string"
        },
        {
          "internalType": "string",
          "name": "baseURI",
          "type": "string"
        },
        {
          "internalType": "address",
          "name": "factory",
          "type": "address"
        }
      ],
      "stateMutability": "nonpayable",
      "type": "constructor"
    },
    {
      "anonymous": false,
      "inputs": [
        {
          "indexed": true,
          "internalType": "address",
          "name": "owner",
          "type": "address"
        },
        {
          "indexed": true,
          "internalType": "address",
          "name": "approved",
          "type": "address"
        },
        {
          "indexed": true,
          "internalType": "uint256",
          "name": "tokenId",
          "type": "uint256"
        }
      ],
      "name": "Approval",
      "type": "event"
    },
    {
      "anonymous": false,
      "inputs": [
        {
          "indexed": true,
          "internalType": "address",
          "name": "owner",
          "type": "address"
        },
        {
          "indexed": true,
          "internalType": "address",
          "name": "operator",
          "type": "address"
        },
        {
          "indexed": false,
          "internalType": "bool",
          "name": "approved",
          "type": "bool"
        }
      ],
      "name": "ApprovalForAll",
      "type": "event"
    },
    {
      "anonymous": false,
      "inputs": [
        {
          "indexed": true,
          "internalType": "address",
          "name": "from",
          "type": "address"
        },
        {
          "indexed": true,
          "internalType": "address",
          "name": "to",
          "type": "address"
        },
        {
          "indexed": true,
          "internalType": "uint256",
          "name": "tokenId",
          "type": "uint256"
        }
      ],
      "name": "Transfer",
      "type": "event"
    },
    {
      "inputs": [
        {
          "internalType": "address",
          "name": "to",
          "type": "address"
        },
        {
          "internalType": "uint256",
          "name": "tokenId",
          "type": "uint256"
        }
      ],
      "name": "approve",
      "outputs": [],
      "stateMutability": "nonpayable",
      "type": "function"
    },
    {
      "inputs": [
        {
          "internalType": "address",
          "name": "owner",
          "type": "address"
        }
      ],
      "name": "balanceOf",
      "outputs": [
        {
          "internalType": "uint256",
          "name": "",
          "type": "uint256"
        }
      ],
      "stateMutability": "view",
      "type": "function"
    },
    {
      "inputs": [],
      "name": "baseURI",
      "outputs": [
        {
          "internalType": "string",
          "name": "",
          "type": "string"
        }
      ],
      "stateMutability": "view",
      "type": "function"
    },
    {
      "inputs": [
        {
          "internalType": "uint256",
          "name": "tokenId",
          "type": "uint256"
        }
      ],
      "name": "burn",
      "outputs": [],
      "stateMutability": "nonpayable",
      "type": "function"
    },
    {
      "inputs": [
        {
          "internalType": "uint256",
          "name": "tokenId",
          "type": "uint256"
        }
      ],
      "name": "getApproved",
      "outputs": [
        {
          "internalType": "address",
          "name": "",
          "type": "address"
        }
      ],
      "stateMutability": "view",
      "type": "function"
    },
    {
      "inputs": [
        {
          "internalType": "address",
          "name": "owner",
          "type": "address"
        },
        {
          "internalType": "address",
          "name": "operator",
          "type": "address"
        }
      ],
      "name": "isApprovedForAll",
      "outputs": [
        {
          "internalType": "bool",
          "name": "",
          "type": "bool"
        }
      ],
      "stateMutability": "view",
      "type": "function"
    },
    {
      "inputs": [],
      "name": "name",
      "outputs": [
        {
          "internalType": "string",
          "name": "",
          "type": "string"
        }
      ],
      "stateMutability": "view",
      "type": "function"
    },
    {
      "inputs": [
        {
          "internalType": "uint256",
          "name": "tokenId",
          "type": "uint256"
        }
      ],
      "name": "ownerOf",
      "outputs": [
        {
          "internalType": "address",
          "name": "",
          "type": "address"
        }
      ],
      "stateMutability": "view",
      "type": "function"
    },
    {
      "inputs": [],
      "name": "parentFactory",
      "outputs": [
        {
          "internalType": "address",
          "name": "",
          "type": "address"
        }
      ],
      "stateMutability": "view",
      "type": "function"
    },
    {
      "inputs": [
        {
          "internalType": "address",
          "name": "from",
          "type": "address"
        },
        {
          "internalType": "address",
          "name": "to",
          "type": "address"
        },
        {
          "internalType": "uint256",
          "name": "tokenId",
          "type": "uint256"
        }
      ],
      "name": "safeTransferFrom",
      "outputs": [],
      "stateMutability": "nonpayable",
      "type": "function"
    },
    {
      "inputs": [
        {
          "internalType": "address",
          "name": "from",
          "type": "address"
        },
        {
          "internalType": "address",
          "name": "to",
          "type": "address"
        },
        {
          "internalType": "uint256",
          "name": "tokenId",
          "type": "uint256"
        },
        {
          "internalType": "bytes",
          "name": "_data",
          "type": "bytes"
        }
      ],
      "name": "safeTransferFrom",
      "outputs": [],
      "stateMutability": "nonpayable",
      "type": "function"
    },
    {
      "inputs": [
        {
          "internalType": "address",
          "name": "operator",
          "type": "address"
        },
        {
          "internalType": "bool",
          "name": "approved",
          "type": "bool"
        }
      ],
      "name": "setApprovalForAll",
      "outputs": [],
      "stateMutability": "nonpayable",
      "type": "function"
    },
    {
      "inputs": [
        {
          "internalType": "bytes4",
          "name": "interfaceId",
          "type": "bytes4"
        }
      ],
      "name": "supportsInterface",
      "outputs": [
        {
          "internalType": "bool",
          "name": "",
          "type": "bool"
        }
      ],
      "stateMutability": "view",
      "type": "function"
    },
    {
      "inputs": [],
      "name": "symbol",
      "outputs": [
        {
          "internalType": "string",
          "name": "",
          "type": "string"
        }
      ],
      "stateMutability": "view",
      "type": "function"
    },
    {
      "inputs": [
        {
          "internalType": "uint256",
          "name": "index",
          "type": "uint256"
        }
      ],
      "name": "tokenByIndex",
      "outputs": [
        {
          "internalType": "uint256",
          "name": "",
          "type": "uint256"
        }
      ],
      "stateMutability": "view",
      "type": "function"
    },
    {
      "inputs": [
        {
          "internalType": "address",
          "name": "owner",
          "type": "address"
        },
        {
          "internalType": "uint256",
          "name": "index",
          "type": "uint256"
        }
      ],
      "name": "tokenOfOwnerByIndex",
      "outputs": [
        {
          "internalType": "uint256",
          "name": "",
          "type": "uint256"
        }
      ],
      "stateMutability": "view",
      "type": "function"
    },
    {
      "inputs": [
        {
          "internalType": "uint256",
          "name": "tokenId",
          "type": "uint256"
        }
      ],
      "name": "tokenURI",
      "outputs": [
        {
          "internalType": "string",
          "name": "",
          "type": "string"
        }
      ],
      "stateMutability": "view",
      "type": "function"
    },
    {
      "inputs": [],
      "name": "totalSupply",
      "outputs": [
        {
          "internalType": "uint256",
          "name": "",
          "type": "uint256"
        }
      ],
      "stateMutability": "view",
      "type": "function"
    },
    {
      "inputs": [
        {
          "internalType": "address",
          "name": "from",
          "type": "address"
        },
        {
          "internalType": "address",
          "name": "to",
          "type": "address"
        },
        {
          "internalType": "uint256",
          "name": "tokenId",
          "type": "uint256"
        }
      ],
      "name": "transferFrom",
      "outputs": [],
      "stateMutability": "nonpayable",
      "type": "function"
    },
    {
      "inputs": [
        {
          "internalType": "address",
          "name": "to",
          "type": "address"
        }
      ],
      "name": "mint",
      "outputs": [],
      "stateMutability": "nonpayable",
      "type": "function"
    }
  ],
  "bytecode": "0x60806040523480156200001157600080fd5b506040516200230038038062002300833981810160405260808110156200003757600080fd5b81019080805160405193929190846401000000008211156200005857600080fd5b9083019060208201858111156200006e57600080fd5b82516401000000008111828201881017156200008957600080fd5b82525081516020918201929091019080838360005b83811015620000b85781810151838201526020016200009e565b50505050905090810190601f168015620000e65780820380516001836020036101000a031916815260200191505b50604052602001805160405193929190846401000000008211156200010a57600080fd5b9083019060208201858111156200012057600080fd5b82516401000000008111828201881017156200013b57600080fd5b82525081516020918201929091019080838360005b838110156200016a57818101518382015260200162000150565b50505050905090810190601f168015620001985780820380516001836020036101000a031916815260200191505b5060405260200180516040519392919084640100000000821115620001bc57600080fd5b908301906020820185811115620001d257600080fd5b8251640100000000811182820188101715620001ed57600080fd5b82525081516020918201929091019080838360005b838110156200021c57818101518382015260200162000202565b50505050905090810190601f1680156200024a5780820380516001836020036101000a031916815260200191505b50604052602001519150849050836200026a6301ffc9a760e01b620002fe565b81516200027f9060069060208501906200039c565b508051620002959060079060208401906200039c565b50620002a86380ac58cd60e01b620002fe565b620002ba635b5e139f60e01b620002fe565b620002cc63780e9d6360e01b620002fe565b5050600b80546001600160a01b0319166001600160a01b038316179055620002f48262000383565b5050505062000448565b6001600160e01b031980821614156200035e576040805162461bcd60e51b815260206004820152601c60248201527f4552433136353a20696e76616c696420696e7465726661636520696400000000604482015290519081900360640190fd5b6001600160e01b0319166000908152602081905260409020805460ff19166001179055565b8051620003989060099060208401906200039c565b5050565b828054600181600116156101000203166002900490600052602060002090601f016020900481019282620003d457600085556200041f565b82601f10620003ef57805160ff19168380011785556200041f565b828001600101855582156200041f579182015b828111156200041f57825182559160200191906001019062000402565b506200042d92915062000431565b5090565b5b808211156200042d576000815560010162000432565b611ea880620004586000396000f3fe608060405234801561001057600080fd5b506004361061012c5760003560e01c80636352211e116100ad5780639d35c161116100715780639d35c161146103b5578063a22cb465146103bd578063b88d4fde146103eb578063c87b56dd146104b1578063e985e9c5146104ce5761012c565b80636352211e1461033c5780636a627842146103595780636c0360eb1461037f57806370a082311461038757806395d89b41146103ad5761012c565b806323b872dd116100f457806323b872dd1461026a5780632f745c59146102a057806342842e0e146102cc57806342966c68146103025780634f6ccce71461031f5761012c565b806301ffc9a71461013157806306fdde031461016c578063081812fc146101e9578063095ea7b31461022257806318160ddd14610250575b600080fd5b6101586004803603602081101561014757600080fd5b50356001600160e01b0319166104fc565b604080519115158252519081900360200190f35b61017461051f565b6040805160208082528351818301528351919283929083019185019080838360005b838110156101ae578181015183820152602001610196565b50505050905090810190601f1680156101db5780820380516001836020036101000a031916815260200191505b509250505060405180910390f35b610206600480360360208110156101ff57600080fd5b50356105b5565b604080516001600160a01b039092168252519081900360200190f35b61024e6004803603604081101561023857600080fd5b506001600160a01b038135169060200135610617565b005b6102586106f2565b60408051918252519081900360200190f35b61024e6004803603606081101561028057600080fd5b506001600160a01b03813581169160208101359091169060400135610703565b610258600480360360408110156102b657600080fd5b506001600160a01b03813516906020013561075a565b61024e600480360360608110156102e257600080fd5b506001600160a01b03813581169160208101359091169060400135610785565b61024e6004803603602081101561031857600080fd5b50356107a0565b6102586004803603602081101561033557600080fd5b50356107f2565b6102066004803603602081101561035257600080fd5b5035610808565b61024e6004803603602081101561036f57600080fd5b50356001600160a01b0316610830565b6101746108a6565b6102586004803603602081101561039d57600080fd5b50356001600160a01b0316610907565b61017461096f565b6102066109d0565b61024e600480360360408110156103d357600080fd5b506001600160a01b03813516906020013515156109df565b61024e6004803603608081101561040157600080fd5b6001600160a01b0382358116926020810135909116916040820135919081019060808101606082013564010000000081111561043c57600080fd5b82018360208201111561044e57600080fd5b8035906020019184600183028401116401000000008311171561047057600080fd5b91908080601f016020809104026020016040519081016040528093929190818152602001838380828437600092019190915250929550610ae4945050505050565b610174600480360360208110156104c757600080fd5b5035610b42565b610158600480360360408110156104e457600080fd5b506001600160a01b0381358116916020013516610dc3565b6001600160e01b0319811660009081526020819052604090205460ff165b919050565b60068054604080516020601f60026000196101006001881615020190951694909404938401819004810282018101909252828152606093909290918301828280156105ab5780601f10610580576101008083540402835291602001916105ab565b820191906000526020600020905b81548152906001019060200180831161058e57829003601f168201915b5050505050905090565b60006105c082610df1565b6105fb5760405162461bcd60e51b815260040180806020018281038252602c815260200180611d6d602c913960400191505060405180910390fd5b506000908152600460205260409020546001600160a01b031690565b600061062282610808565b9050806001600160a01b0316836001600160a01b031614156106755760405162461bcd60e51b8152600401808060200182810382526021815260200180611df16021913960400191505060405180910390fd5b806001600160a01b0316610687610dfe565b6001600160a01b031614806106a857506106a8816106a3610dfe565b610dc3565b6106e35760405162461bcd60e51b8152600401808060200182810382526038815260200180611cc06038913960400191505060405180910390fd5b6106ed8383610e02565b505050565b60006106fe6002610e7d565b905090565b61071461070e610dfe565b82610e88565b61074f5760405162461bcd60e51b8152600401808060200182810382526031815260200180611e126031913960400191505060405180910390fd5b6106ed838383610f2c565b6001600160a01b038216600090815260016020526040812061077c9083611078565b90505b92915050565b6106ed83838360405180602001604052806000815250610ae4565b6107ab61070e610dfe565b6107e65760405162461bcd60e51b8152600401808060200182810382526030815260200180611e436030913960400191505060405180910390fd5b6107ef81611084565b50565b600080610800600284611151565b509392505050565b600061077f82604051806060016040528060298152602001611d22602991396002919061116d565b600b546001600160a01b0316610844610dfe565b6001600160a01b0316146108895760405162461bcd60e51b8152600401808060200182810382526039815260200180611c376039913960400191505060405180910390fd5b61089c81610897600a611184565b611188565b6107ef600a6112b6565b60098054604080516020601f60026000196101006001881615020190951694909404938401819004810282018101909252828152606093909290918301828280156105ab5780601f10610580576101008083540402835291602001916105ab565b60006001600160a01b03821661094e5760405162461bcd60e51b815260040180806020018281038252602a815260200180611cf8602a913960400191505060405180910390fd5b6001600160a01b038216600090815260016020526040902061077f90610e7d565b60078054604080516020601f60026000196101006001881615020190951694909404938401819004810282018101909252828152606093909290918301828280156105ab5780601f10610580576101008083540402835291602001916105ab565b600b546001600160a01b031681565b6109e7610dfe565b6001600160a01b0316826001600160a01b03161415610a4d576040805162461bcd60e51b815260206004820152601960248201527f4552433732313a20617070726f766520746f2063616c6c657200000000000000604482015290519081900360640190fd5b8060056000610a5a610dfe565b6001600160a01b03908116825260208083019390935260409182016000908120918716808252919093529120805460ff191692151592909217909155610a9e610dfe565b6001600160a01b03167f17307eab39ab6107e8899845ad3d59bd9653f200f220920489ca2b5937696c318360405180821515815260200191505060405180910390a35050565b610af5610aef610dfe565b83610e88565b610b305760405162461bcd60e51b8152600401808060200182810382526031815260200180611e126031913960400191505060405180910390fd5b610b3c848484846112bf565b50505050565b6060610b4d82610df1565b610b885760405162461bcd60e51b815260040180806020018281038252602f815260200180611dc2602f913960400191505060405180910390fd5b60008281526008602090815260408083208054825160026001831615610100026000190190921691909104601f810185900485028201850190935282815292909190830182828015610c1b5780601f10610bf057610100808354040283529160200191610c1b565b820191906000526020600020905b815481529060010190602001808311610bfe57829003601f168201915b505050505090506000610c2c6108a6565b9050805160001415610c405750905061051a565b815115610d015780826040516020018083805190602001908083835b60208310610c7b5780518252601f199092019160209182019101610c5c565b51815160209384036101000a600019018019909216911617905285519190930192850191508083835b60208310610cc35780518252601f199092019160209182019101610ca4565b6001836020036101000a038019825116818451168082178552505050505050905001925050506040516020818303038152906040529250505061051a565b80610d0b85611311565b6040516020018083805190602001908083835b60208310610d3d5780518252601f199092019160209182019101610d1e565b51815160209384036101000a600019018019909216911617905285519190930192850191508083835b60208310610d855780518252601f199092019160209182019101610d66565b6001836020036101000a0380198251168184511680821785525050505050509050019250505060405160208183030381529060405292505050919050565b6001600160a01b03918216600090815260056020908152604080832093909416825291909152205460ff1690565b600061077f600283611404565b3390565b6000818152600460205260409020805473ffffffffffffffffffffffffffffffffffffffff19166001600160a01b0384169081179091558190610e4482610808565b6001600160a01b03167f8c5be1e5ebec7d5bd14f71427d1e84f3dd0314c0f7b2291e5b200ac8c7c3b92560405160405180910390a45050565b600061077f82611184565b6000610e9382610df1565b610ece5760405162461bcd60e51b815260040180806020018281038252602c815260200180611c94602c913960400191505060405180910390fd5b6000610ed983610808565b9050806001600160a01b0316846001600160a01b03161480610f145750836001600160a01b0316610f09846105b5565b6001600160a01b0316145b80610f245750610f248185610dc3565b949350505050565b826001600160a01b0316610f3f82610808565b6001600160a01b031614610f845760405162461bcd60e51b8152600401808060200182810382526029815260200180611d996029913960400191505060405180910390fd5b6001600160a01b038216610fc95760405162461bcd60e51b8152600401808060200182810382526024815260200180611c706024913960400191505060405180910390fd5b610fd4838383611410565b610fdf600082610e02565b6001600160a01b0383166000908152600160205260409020611001908261141b565b506001600160a01b03821660009081526001602052604090206110249082611427565b5061103160028284611433565b5080826001600160a01b0316846001600160a01b03167fddf252ad1be2c89b69c2b068fc378daa952ba7f163c4a11628f55a4df523b3ef60405160405180910390a4505050565b600061077c8383611449565b600061108f82610808565b905061109d81600084611410565b6110a8600083610e02565b60008281526008602052604090205460026000196101006001841615020190911604156110e65760008281526008602052604081206110e691611b8a565b6001600160a01b0381166000908152600160205260409020611108908361141b565b506111146002836114ad565b5060405182906000906001600160a01b038416907fddf252ad1be2c89b69c2b068fc378daa952ba7f163c4a11628f55a4df523b3ef908390a45050565b600080808061116086866114b9565b9097909650945050505050565b600061117a848484611534565b90505b9392505050565b5490565b6001600160a01b0382166111e3576040805162461bcd60e51b815260206004820181905260248201527f4552433732313a206d696e7420746f20746865207a65726f2061646472657373604482015290519081900360640190fd5b6111ec81610df1565b1561123e576040805162461bcd60e51b815260206004820152601c60248201527f4552433732313a20746f6b656e20616c7265616479206d696e74656400000000604482015290519081900360640190fd5b61124a60008383611410565b6001600160a01b038216600090815260016020526040902061126c9082611427565b5061127960028284611433565b5060405181906001600160a01b038416906000907fddf252ad1be2c89b69c2b068fc378daa952ba7f163c4a11628f55a4df523b3ef908290a45050565b80546001019055565b6112ca848484610f2c565b6112d6848484846115fe565b610b3c5760405162461bcd60e51b8152600401808060200182810382526032815260200180611c056032913960400191505060405180910390fd5b60608161133657506040805180820190915260018152600360fc1b602082015261051a565b8160005b811561134e57600101600a8204915061133a565b60008167ffffffffffffffff8111801561136757600080fd5b506040519080825280601f01601f191660200182016040528015611392576020820181803683370190505b50859350905060001982015b83156113fb57600a840660300160f81b828280600190039350815181106113c157fe5b60200101907effffffffffffffffffffffffffffffffffffffffffffffffffffffffffffff1916908160001a905350600a8404935061139e565b50949350505050565b600061077c8383611766565b6106ed8383836106ed565b600061077c838361177e565b600061077c8383611844565b600061117a84846001600160a01b03851661188e565b8154600090821061148b5760405162461bcd60e51b8152600401808060200182810382526022815260200180611be36022913960400191505060405180910390fd5b82600001828154811061149a57fe5b9060005260206000200154905092915050565b600061077c8383611925565b8154600090819083106114fd5760405162461bcd60e51b8152600401808060200182810382526022815260200180611d4b6022913960400191505060405180910390fd5b600084600001848154811061150e57fe5b906000526020600020906002020190508060000154816001015492509250509250929050565b600082815260018401602052604081205482816115cf5760405162461bcd60e51b81526004018080602001828103825283818151815260200191508051906020019080838360005b8381101561159457818101518382015260200161157c565b50505050905090810190601f1680156115c15780820380516001836020036101000a031916815260200191505b509250505060405180910390fd5b508460000160018203815481106115e257fe5b9060005260206000209060020201600101549150509392505050565b6000611612846001600160a01b03166119f9565b61161e57506001610f24565b600061172c630a85bd0160e11b611633610dfe565b88878760405160240180856001600160a01b03168152602001846001600160a01b0316815260200183815260200180602001828103825283818151815260200191508051906020019080838360005b8381101561169a578181015183820152602001611682565b50505050905090810190601f1680156116c75780820380516001836020036101000a031916815260200191505b5095505050505050604051602081830303815290604052906001600160e01b0319166020820180516001600160e01b038381831617835250505050604051806060016040528060328152602001611c05603291396001600160a01b03881691906119ff565b9050600081806020019051602081101561174557600080fd5b50516001600160e01b031916630a85bd0160e11b1492505050949350505050565b60009081526001919091016020526040902054151590565b6000818152600183016020526040812054801561183a57835460001980830191908101906000908790839081106117b157fe5b90600052602060002001549050808760000184815481106117ce57fe5b6000918252602080832090910192909255828152600189810190925260409020908401905586548790806117fe57fe5b6001900381819060005260206000200160009055905586600101600087815260200190815260200160002060009055600194505050505061077f565b600091505061077f565b60006118508383611766565b6118865750815460018181018455600084815260208082209093018490558454848252828601909352604090209190915561077f565b50600061077f565b6000828152600184016020526040812054806118f357505060408051808201825283815260208082018481528654600181810189556000898152848120955160029093029095019182559151908201558654868452818801909252929091205561117d565b8285600001600183038154811061190657fe5b906000526020600020906002020160010181905550600091505061117d565b6000818152600183016020526040812054801561183a578354600019808301919081019060009087908390811061195857fe5b906000526020600020906002020190508087600001848154811061197857fe5b6000918252602080832084546002909302019182556001938401549184019190915583548252898301905260409020908401905586548790806119b757fe5b600082815260208082206002600019909401938402018281556001908101839055929093558881528982019092526040822091909155945061077f9350505050565b3b151590565b606061117a848460008585611a13856119f9565b611a64576040805162461bcd60e51b815260206004820152601d60248201527f416464726573733a2063616c6c20746f206e6f6e2d636f6e7472616374000000604482015290519081900360640190fd5b600080866001600160a01b031685876040518082805190602001908083835b60208310611aa25780518252601f199092019160209182019101611a83565b6001836020036101000a03801982511681845116808217855250505050505090500191505060006040518083038185875af1925050503d8060008114611b04576040519150601f19603f3d011682016040523d82523d6000602084013e611b09565b606091505b5091509150611b19828286611b24565b979650505050505050565b60608315611b3357508161117d565b825115611b435782518084602001fd5b60405162461bcd60e51b815260206004820181815284516024840152845185939192839260440191908501908083836000831561159457818101518382015260200161157c565b50805460018160011615610100020316600290046000825580601f10611bb057506107ef565b601f0160209004906000526020600020908101906107ef91905b80821115611bde5760008155600101611bca565b509056fe456e756d657261626c655365743a20696e646578206f7574206f6620626f756e64734552433732313a207472616e7366657220746f206e6f6e20455243373231526563656976657220696d706c656d656e7465725052495649506f64455243373231546f6b656e3a204f6e6c7920466163746f72792063616e2063616c6c20746869732066756e6374696f6e2e4552433732313a207472616e7366657220746f20746865207a65726f20616464726573734552433732313a206f70657261746f7220717565727920666f72206e6f6e6578697374656e7420746f6b656e4552433732313a20617070726f76652063616c6c6572206973206e6f74206f776e6572206e6f7220617070726f76656420666f7220616c6c4552433732313a2062616c616e636520717565727920666f7220746865207a65726f20616464726573734552433732313a206f776e657220717565727920666f72206e6f6e6578697374656e7420746f6b656e456e756d657261626c654d61703a20696e646578206f7574206f6620626f756e64734552433732313a20617070726f76656420717565727920666f72206e6f6e6578697374656e7420746f6b656e4552433732313a207472616e73666572206f6620746f6b656e2074686174206973206e6f74206f776e4552433732314d657461646174613a2055524920717565727920666f72206e6f6e6578697374656e7420746f6b656e4552433732313a20617070726f76616c20746f2063757272656e74206f776e65724552433732313a207472616e736665722063616c6c6572206973206e6f74206f776e6572206e6f7220617070726f7665644552433732314275726e61626c653a2063616c6c6572206973206e6f74206f776e6572206e6f7220617070726f766564a264697066735822122099f8ee6b697f3c899bb5e3d5eda65f36afab64b5c63251bed7749d8a0b9d348564736f6c63430007060033",
  "immutableReferences": {},
  "source": "// SPDX-License-Identifier: MIT\n\npragma solidity ^0.7.6;\n\nimport \"@openzeppelin/contracts/GSN/Context.sol\";\nimport \"@openzeppelin/contracts/utils/Counters.sol\";\nimport \"@openzeppelin/contracts/token/ERC721/ERC721.sol\";\nimport \"@openzeppelin/contracts/token/ERC721/ERC721Burnable.sol\";\n\n/**\n * @dev {ERC20} token, including:\n *\n *  - ability for holders to burn (destroy) their tokens\n *  - a factoryOnly modifier, that grants mint capabilities only to factory who deployed this pod token contract\n *\n */\ncontract PRIVIPodERC721Token is Context, ERC721Burnable {\n    using Counters for Counters.Counter;\n    Counters.Counter private _tokenIdTracker;\n    address public parentFactory;\n\n    /**\n     * @dev Sets factory address\n     *\n     * See {ERC20-constructor}.\n     */\n    constructor(string memory name, string memory symbol, string memory baseURI, address factory) ERC721(name, symbol) {\n        parentFactory = factory;\n        _setBaseURI(baseURI);\n    }\n\n    modifier onlyFactory() {\n        require(_msgSender() == parentFactory, \"PRIVIPodERC721Token: Only Factory can call this function.\");\n        _;\n    }\n\n    /**\n     * @dev Creates `amount` new tokens for `to`.\n     *\n     * See {ERC20-_mint}.\n     *\n     * Requirements:\n     *\n     * - the caller must be factory only.\n     */\n    function mint(address to) public virtual onlyFactory{\n        // We cannot just use balanceOf to create the new tokenId because tokens\n        // can be burned (destroyed), so we need a separate counter.\n        _mint(to, _tokenIdTracker.current());\n        _tokenIdTracker.increment();\n    }\n\n    function _beforeTokenTransfer(address from, address to, uint256 tokenId) internal virtual override(ERC721) {\n        super._beforeTokenTransfer(from, to, tokenId);\n    }\n}\n",
  "sourcePath": "/home/rekard0/Documents/WORK/PriviEthereum/PRIVIethereum/contracts/token/PRIVIPodERC721Token.sol",
  "compiler": {
    "name": "solc",
    "version": "0.7.6+commit.7338295f.Emscripten.clang"
  },
  "schemaVersion": "3.3.3",
  "updatedAt": "2021-03-05T14:50:31.481Z",
  "devdoc": {
    "details": "{ERC20} token, including:  - ability for holders to burn (destroy) their tokens  - a factoryOnly modifier, that grants mint capabilities only to factory who deployed this pod token contract",
    "kind": "dev",
    "methods": {
      "approve(address,uint256)": {
        "details": "See {IERC721-approve}."
      },
      "balanceOf(address)": {
        "details": "See {IERC721-balanceOf}."
      },
      "baseURI()": {
        "details": "Returns the base URI set via {_setBaseURI}. This will be automatically added as a prefix in {tokenURI} to each token's URI, or to the token ID if no specific URI is set for that token ID."
      },
      "burn(uint256)": {
        "details": "Burns `tokenId`. See {ERC721-_burn}. Requirements: - The caller must own `tokenId` or be an approved operator."
      },
      "constructor": {
        "details": "Sets factory address See {ERC20-constructor}."
      },
      "getApproved(uint256)": {
        "details": "See {IERC721-getApproved}."
      },
      "isApprovedForAll(address,address)": {
        "details": "See {IERC721-isApprovedForAll}."
      },
      "mint(address)": {
        "details": "Creates `amount` new tokens for `to`. See {ERC20-_mint}. Requirements: - the caller must be factory only."
      },
      "name()": {
        "details": "See {IERC721Metadata-name}."
      },
      "ownerOf(uint256)": {
        "details": "See {IERC721-ownerOf}."
      },
      "safeTransferFrom(address,address,uint256)": {
        "details": "See {IERC721-safeTransferFrom}."
      },
      "safeTransferFrom(address,address,uint256,bytes)": {
        "details": "See {IERC721-safeTransferFrom}."
      },
      "setApprovalForAll(address,bool)": {
        "details": "See {IERC721-setApprovalForAll}."
      },
      "supportsInterface(bytes4)": {
        "details": "See {IERC165-supportsInterface}. Time complexity O(1), guaranteed to always use less than 30 000 gas."
      },
      "symbol()": {
        "details": "See {IERC721Metadata-symbol}."
      },
      "tokenByIndex(uint256)": {
        "details": "See {IERC721Enumerable-tokenByIndex}."
      },
      "tokenOfOwnerByIndex(address,uint256)": {
        "details": "See {IERC721Enumerable-tokenOfOwnerByIndex}."
      },
      "tokenURI(uint256)": {
        "details": "See {IERC721Metadata-tokenURI}."
      },
      "totalSupply()": {
        "details": "See {IERC721Enumerable-totalSupply}."
      },
      "transferFrom(address,address,uint256)": {
        "details": "See {IERC721-transferFrom}."
      }
    },
    "version": 1
  },
  "userdoc": {
    "kind": "user",
    "methods": {},
    "version": 1
  }
}