{
  "contractName": "ERC721VaultFactory",
  "abi": [
    {
      "inputs": [
        {
          "internalType": "address",
          "name": "_settings",
          "type": "address"
        }
      ],
      "stateMutability": "nonpayable",
      "type": "constructor"
    },
    {
      "anonymous": false,
      "inputs": [
        {
          "indexed": true,
          "internalType": "address",
          "name": "token",
          "type": "address"
        },
        {
          "indexed": false,
          "internalType": "uint256",
          "name": "id",
          "type": "uint256"
        },
        {
          "indexed": false,
          "internalType": "bool",
          "name": "withETH",
          "type": "bool"
        },
        {
          "indexed": false,
          "internalType": "address",
          "name": "asset",
          "type": "address"
        },
        {
          "indexed": false,
          "internalType": "uint256",
          "name": "price",
          "type": "uint256"
        },
        {
          "indexed": false,
          "internalType": "address",
          "name": "vault",
          "type": "address"
        },
        {
          "indexed": false,
          "internalType": "uint256",
          "name": "vaultId",
          "type": "uint256"
        }
      ],
      "name": "Mint",
      "type": "event"
    },
    {
      "anonymous": false,
      "inputs": [
        {
          "indexed": true,
          "internalType": "address",
          "name": "previousOwner",
          "type": "address"
        },
        {
          "indexed": true,
          "internalType": "address",
          "name": "newOwner",
          "type": "address"
        }
      ],
      "name": "OwnershipTransferred",
      "type": "event"
    },
    {
      "anonymous": false,
      "inputs": [
        {
          "indexed": false,
          "internalType": "address",
          "name": "account",
          "type": "address"
        }
      ],
      "name": "Paused",
      "type": "event"
    },
    {
      "anonymous": false,
      "inputs": [
        {
          "indexed": false,
          "internalType": "address",
          "name": "account",
          "type": "address"
        }
      ],
      "name": "Unpaused",
      "type": "event"
    },
    {
      "inputs": [],
      "name": "logic",
      "outputs": [
        {
          "internalType": "address",
          "name": "",
          "type": "address"
        }
      ],
      "stateMutability": "view",
      "type": "function",
      "constant": true
    },
    {
      "inputs": [],
      "name": "owner",
      "outputs": [
        {
          "internalType": "address",
          "name": "",
          "type": "address"
        }
      ],
      "stateMutability": "view",
      "type": "function",
      "constant": true
    },
    {
      "inputs": [],
      "name": "paused",
      "outputs": [
        {
          "internalType": "bool",
          "name": "",
          "type": "bool"
        }
      ],
      "stateMutability": "view",
      "type": "function",
      "constant": true
    },
    {
      "inputs": [],
      "name": "renounceOwnership",
      "outputs": [],
      "stateMutability": "nonpayable",
      "type": "function"
    },
    {
      "inputs": [],
      "name": "settings",
      "outputs": [
        {
          "internalType": "address",
          "name": "",
          "type": "address"
        }
      ],
      "stateMutability": "view",
      "type": "function",
      "constant": true
    },
    {
      "inputs": [
        {
          "internalType": "address",
          "name": "newOwner",
          "type": "address"
        }
      ],
      "name": "transferOwnership",
      "outputs": [],
      "stateMutability": "nonpayable",
      "type": "function"
    },
    {
      "inputs": [],
      "name": "vaultCount",
      "outputs": [
        {
          "internalType": "uint256",
          "name": "",
          "type": "uint256"
        }
      ],
      "stateMutability": "view",
      "type": "function",
      "constant": true
    },
    {
      "inputs": [
        {
          "internalType": "uint256",
          "name": "",
          "type": "uint256"
        }
      ],
      "name": "vaults",
      "outputs": [
        {
          "internalType": "address",
          "name": "",
          "type": "address"
        }
      ],
      "stateMutability": "view",
      "type": "function",
      "constant": true
    },
    {
      "inputs": [
        {
          "internalType": "string",
          "name": "_name",
          "type": "string"
        },
        {
          "internalType": "string",
          "name": "_symbol",
          "type": "string"
        },
        {
          "internalType": "address",
          "name": "_token",
          "type": "address"
        },
        {
          "internalType": "uint256",
          "name": "_id",
          "type": "uint256"
        },
        {
          "internalType": "uint256",
          "name": "_supply",
          "type": "uint256"
        },
        {
          "internalType": "address",
          "name": "_asset",
          "type": "address"
        },
        {
          "internalType": "uint256",
          "name": "_listPrice",
          "type": "uint256"
        },
        {
          "internalType": "uint256",
          "name": "_fee",
          "type": "uint256"
        }
      ],
      "name": "mint",
      "outputs": [
        {
          "internalType": "uint256",
          "name": "",
          "type": "uint256"
        }
      ],
      "stateMutability": "nonpayable",
      "type": "function"
    },
    {
      "inputs": [],
      "name": "pause",
      "outputs": [],
      "stateMutability": "nonpayable",
      "type": "function"
    },
    {
      "inputs": [],
      "name": "unpause",
      "outputs": [],
      "stateMutability": "nonpayable",
      "type": "function"
    }
  ],
  "bytecode": "0x60c060405234801561001057600080fd5b50604051620074253803806200742583398101604081905261003191610137565b6100536100456401000000006100d5810204565b6401000000006100d9810204565b6000805460a060020a60ff02191690556c01000000000000000000000000600160a060020a03821602608052604051819061008d90610129565b6100979190610165565b604051809103906000f0801580156100b3573d6000803e3d6000fd5b50600160a060020a03166c010000000000000000000000000260a05250610179565b3390565b60008054600160a060020a03838116600160a060020a0319831681178455604051919092169283917f8be0079c531659141344cd1fd0a4f28419497f9722a3daafe3b4186f6b6457e09190a35050565b6160b1806200137483390190565b600060208284031215610148578081fd5b8151600160a060020a038116811461015e578182fd5b9392505050565b600160a060020a0391909116815260200190565b6080516c01000000000000000000000000900460a0516c0100000000000000000000000090046111a7620001cd60003960008181610354015261063a0152600081816102a1015261065e01526111a76000f3fe60806040523480156200001157600080fd5b5060043610620000d5576000357c0100000000000000000000000000000000000000000000000000000000900480638c64ea4a11620000985780638c64ea4a14620001425780638da5cb5b1462000168578063a7c6a1001462000172578063d7dfa0dd146200017c578063e06174e41462000186578063f2fde38b146200019057620000d5565b80631c52842014620000da5780633f4ba83a14620001095780635c975abb1462000115578063715018a6146200012e5780638456cb591462000138575b600080fd5b620000f1620000eb3660046200097f565b620001a7565b60405162000100919062000cdd565b60405180910390f35b62000113620004ea565b005b6200011f6200053f565b60405162000100919062000b75565b6200011362000560565b62000113620005b5565b620001596200015336600462000a33565b62000608565b60405162000100919062000a9a565b6200015962000623565b620000f162000632565b6200015962000638565b620001596200065c565b62000113620001a136600462000939565b62000680565b6000620001b36200053f565b15620001df5760405160e560020a62461bcd028152600401620001d69062000c14565b60405180910390fd5b60003388888887878f8f8c604051602401620002049998979695949392919062000ad2565b60408051601f198184030181529190526020810180517bffffffffffffffffffffffffffffffffffffffffffffffffffffffff167fca8aa742000000000000000000000000000000000000000000000000000000001790529050600160a060020a0385161580806200032e57506040517f19cdff59000000000000000000000000000000000000000000000000000000008152600160a060020a037f000000000000000000000000000000000000000000000000000000000000000016906319cdff5990620002d890899060040162000a9a565b602060405180830381600087803b158015620002f357600080fd5b505af115801562000308573d6000803e3d6000fd5b505050506040513d601f19601f820116820180604052508101906200032e91906200095d565b620003505760405160e560020a62461bcd028152600401620001d69062000c80565b60007f00000000000000000000000000000000000000000000000000000000000000008360405162000382906200087f565b6200038f92919062000b49565b604051809103906000f080158015620003ac573d6000803e3d6000fd5b50905089600160a060020a03167ff8806de304c8beb47a88eaeb57212118e5dd7104c12f966a22939012f1da1df08a848a8a86600154604051620003f69695949392919062000ce6565b60405180910390a26040517f42842e0e000000000000000000000000000000000000000000000000000000008152600160a060020a038b16906342842e0e906200044990339085908e9060040162000aae565b600060405180830381600087803b1580156200046457600080fd5b505af115801562000479573d6000803e3d6000fd5b5050600180546000908152600260205260408120805473ffffffffffffffffffffffffffffffffffffffff1916600160a060020a03871617905581549350909150620004c58362000d34565b919050555060018054620004da919062000d1a565b9c9b505050505050505050505050565b620004f462000703565b600160a060020a03166200050762000623565b600160a060020a031614620005335760405160e560020a62461bcd028152600401620001d69062000c4b565b6200053d62000707565b565b60005474010000000000000000000000000000000000000000900460ff1690565b6200056a62000703565b600160a060020a03166200057d62000623565b600160a060020a031614620005a95760405160e560020a62461bcd028152600401620001d69062000c4b565b6200053d600062000795565b620005bf62000703565b600160a060020a0316620005d262000623565b600160a060020a031614620005fe5760405160e560020a62461bcd028152600401620001d69062000c4b565b6200053d620007f2565b600260205260009081526040902054600160a060020a031681565b600054600160a060020a031690565b60015481565b7f000000000000000000000000000000000000000000000000000000000000000081565b7f000000000000000000000000000000000000000000000000000000000000000081565b6200068a62000703565b600160a060020a03166200069d62000623565b600160a060020a031614620006c95760405160e560020a62461bcd028152600401620001d69062000c4b565b600160a060020a038116620006f55760405160e560020a62461bcd028152600401620001d69062000bb7565b620007008162000795565b50565b3390565b620007116200053f565b620007335760405160e560020a62461bcd028152600401620001d69062000b80565b6000805474ff0000000000000000000000000000000000000000191690557f5db9ee0a495bf2e6ff9c91a7834c1ba4fdd244a5e8aa4e537bd38aeae4b073aa6200077c62000703565b6040516200078b919062000a9a565b60405180910390a1565b60008054600160a060020a0383811673ffffffffffffffffffffffffffffffffffffffff19831681178455604051919092169283917f8be0079c531659141344cd1fd0a4f28419497f9722a3daafe3b4186f6b6457e09190a35050565b620007fc6200053f565b156200081f5760405160e560020a62461bcd028152600401620001d69062000c14565b6000805474ff00000000000000000000000000000000000000001916740100000000000000000000000000000000000000001790557f62e78cea01bee320cd4e420270b5ea74000d11b0c9f74754ebdbfc544b05a2586200077c62000703565b6103c18062000db183390190565b8035600160a060020a0381168114620008a557600080fd5b919050565b600082601f830112620008bb578081fd5b813567ffffffffffffffff80821115620008d957620008d962000d81565b604051601f8301601f19908116603f0116810190828211818310171562000904576200090462000d81565b816040528381528660208588010111156200091d578485fd5b8360208701602083013792830160200193909352509392505050565b6000602082840312156200094b578081fd5b62000956826200088d565b9392505050565b6000602082840312156200096f578081fd5b8151801515811462000956578182fd5b600080600080600080600080610100898b0312156200099c578384fd5b883567ffffffffffffffff80821115620009b4578586fd5b620009c28c838d01620008aa565b995060208b0135915080821115620009d8578586fd5b50620009e78b828c01620008aa565b975050620009f860408a016200088d565b9550606089013594506080890135935062000a1660a08a016200088d565b925060c0890135915060e089013590509295985092959890939650565b60006020828403121562000a45578081fd5b5035919050565b60008151808452815b8181101562000a735760208185018101518683018201520162000a55565b8181111562000a855782602083870101525b50601f01601f19169290920160200192915050565b600160a060020a0391909116815260200190565b600160a060020a039384168152919092166020820152604081019190915260600190565b6000610120600160a060020a03808d168452808c1660208501528a60408501528960608501528860808501528760a08501528160c085015262000b188285018862000a4c565b915083820360e085015262000b2e828762000a4c565b925080851661010085015250509a9950505050505050505050565b6000600160a060020a03841682526040602083015262000b6d604083018462000a4c565b949350505050565b901515815260200190565b60208082526014908201527f5061757361626c653a206e6f7420706175736564000000000000000000000000604082015260600190565b60208082526026908201527f4f776e61626c653a206e6577206f776e657220697320746865207a65726f206160408201527f6464726573730000000000000000000000000000000000000000000000000000606082015260800190565b60208082526010908201527f5061757361626c653a2070617573656400000000000000000000000000000000604082015260600190565b6020808252818101527f4f776e61626c653a2063616c6c6572206973206e6f7420746865206f776e6572604082015260600190565b60208082526024908201527f6d696e743a20617373657420746f6b656e206973206e6f742077686974656c6960408201527f7374656400000000000000000000000000000000000000000000000000000000606082015260800190565b90815260200190565b9586529315156020860152600160a060020a039283166040860152606085019190915216608083015260a082015260c00190565b60008282101562000d2f5762000d2f62000d52565b500390565b600060001982141562000d4b5762000d4b62000d52565b5060010190565b7f4e487b7100000000000000000000000000000000000000000000000000000000600052601160045260246000fd5b7f4e487b7100000000000000000000000000000000000000000000000000000000600052604160045260246000fdfe60a060405234801561001057600080fd5b506040516103c13803806103c183398101604081905261002f916100f1565b600160a060020a0382166c010000000000000000000000008102608052604051600091829161005f9085906101bb565b600060405180830381855af49150503d806000811461009a576040519150601f19603f3d011682016040523d82523d6000602084013e61009f565b606091505b50915091508181906100e7576040517f08c379a00000000000000000000000000000000000000000000000000000000081526004016100de91906101d7565b60405180910390fd5b5050505050610269565b60008060408385031215610103578182fd5b8251600160a060020a0381168114610119578283fd5b602084015190925067ffffffffffffffff80821115610136578283fd5b818501915085601f830112610149578283fd5b81518181111561015b5761015b61023a565b604051601f8201601f19908116603f011681019083821181831017156101835761018361023a565b8160405282815288602084870101111561019b578586fd5b6101ac83602083016020880161020a565b80955050505050509250929050565b600082516101cd81846020870161020a565b9190910192915050565b60006020825282518060208401526101f681604085016020870161020a565b601f01601f19169190910160400192915050565b60005b8381101561022557818101518382015260200161020d565b83811115610234576000848401525b50505050565b7f4e487b7100000000000000000000000000000000000000000000000000000000600052604160045260246000fd5b6080516c010000000000000000000000009004610128610299600039600081816046015260af01526101286000f3fe608060405260043610603b577c01000000000000000000000000000000000000000000000000000000006000350463d7dfa0dd81146087576041565b36604157005b6040517f00000000000000000000000000000000000000000000000000000000000000009036600082376000803683855af43d806000843e8180156083578184f35b8184fd5b348015609257600080fd5b50609960ad565b60405160a4919060d1565b60405180910390f35b7f000000000000000000000000000000000000000000000000000000000000000081565b73ffffffffffffffffffffffffffffffffffffffff9190911681526020019056fea2646970667358221220e5770940a5ca6eebd54da85a58d29ca3a31fd121ca350384a1a69fe8b352292c64736f6c63430008010033a2646970667358221220fa9480d418dd1ede492abaa6751b8e61c47850823d8854b1eb3996db35956e9c64736f6c6343000801003360a06040523480156200001157600080fd5b50604051620060b1380380620060b1833981016040819052620000349162000055565b600160a060020a03166c010000000000000000000000000260805262000085565b60006020828403121562000067578081fd5b8151600160a060020a03811681146200007e578182fd5b9392505050565b6080516c010000000000000000000000009004615f906200012160003960008181610a7c01528181610b7a01528181610c1f01528181610f38015281816113f8015281816114d70152818161168401528181611763015281816118f601528181611b2b01528181611d81015281816123b40152818161262b015281816128db015281816129cb0152818161326901526133070152615f906000f3fe608060405260043610620002d65760003560e060020a9004806380436fe0116200017f578063c50115c911620000d7578063ddca3f431162000089578063ddca3f4314620007ff578063e06174e41462000817578063e66f53b7146200082f578063e92955491462000847578063efbe1c1c1462000851578063fc0c546a146200086957620002d6565b8063c50115c91462000756578063c91de6491462000760578063ca8aa7421462000785578063d294f09314620007aa578063db2e1eed14620007c2578063dd62ed3e14620007da57620002d6565b80639a4e6d3411620001315780639a4e6d3414620006ac578063a457c2d714620006c4578063a9059cbb14620006e9578063adc1b956146200070e578063af640d0f1462000726578063be040fb0146200073e57620002d6565b806380436fe01462000603578063853a1b9014620006285780639012c4a8146200064057806395805dad146200066557806395d89b41146200067c578063961be391146200069457620002d6565b806336c2857411620002335780635c9920fc11620001e55780635c9920fc146200054a5780636a77571414620005625780636da84e6c146200058757806370a08231146200059f5780637b5581ed14620005c45780637fb4509914620005dc57620002d6565b806336c28574146200049f57806338d52e0f14620004b75780633950935114620004de5780633fc8cef31462000503578063454a2ab3146200051b57806347ccca02146200053257620002d6565b806323b872dd116200028d57806323b872dd14620003d95780632a24f46c14620003fe5780632a44f12014620004165780632bf33bd9146200043b578063313ce5671462000460578063325c25a2146200048757620002d6565b806306fdde0314620002db578063095ea7b3146200030b5780630c6a62dd146200033f578063120049c11462000366578063150b7a02146200037e57806318160ddd14620003b2575b600080fd5b348015620002e857600080fd5b50620002f362000881565b60405162000302919062004057565b60405180910390f35b3480156200031857600080fd5b50620003306200032a36600462003eaf565b6200091b565b60405162000302919062003fea565b3480156200034c57600080fd5b50620003646200035e36600462003c9e565b6200093c565b005b3480156200037357600080fd5b506200033062000997565b3480156200038b57600080fd5b50620003a36200039d36600462003d5e565b620009a7565b60405162000302919062003ff5565b348015620003bf57600080fd5b50620003ca620009d0565b6040516200030291906200404e565b348015620003e657600080fd5b5062000330620003f836600462003d19565b620009d6565b3480156200040b57600080fd5b50620003ca62000a74565b3480156200042357600080fd5b50620003646200043536600462003c9e565b62000a7a565b3480156200044857600080fd5b50620003646200045a36600462003eff565b62000b48565b3480156200046d57600080fd5b506200047862000ce2565b60405162000302919062004b94565b3480156200049457600080fd5b50620003ca62000ce7565b348015620004ac57600080fd5b506200036462000ced565b348015620004c457600080fd5b50620004cf62000e2c565b60405162000302919062003f7f565b348015620004eb57600080fd5b5062000330620004fd36600462003eaf565b62000e3b565b3480156200051057600080fd5b50620004cf62000e97565b620003646200052c36600462003eff565b62000eaf565b3480156200053f57600080fd5b50620004cf620012da565b3480156200055757600080fd5b5062000330620012e9565b3480156200056f57600080fd5b50620003646200058136600462003eff565b620012f2565b3480156200059457600080fd5b50620003ca620018b9565b348015620005ac57600080fd5b50620003ca620005be36600462003c9e565b620018bf565b348015620005d157600080fd5b50620003ca620018de565b348015620005e957600080fd5b50620005f4620018e4565b60405162000302919062004022565b3480156200061057600080fd5b50620003646200062236600462003c9e565b620018f4565b3480156200063557600080fd5b50620004cf62001aea565b3480156200064d57600080fd5b50620003646200065f36600462003eff565b62001af9565b620003646200067636600462003eff565b62001bf7565b3480156200068957600080fd5b50620002f362001f66565b348015620006a157600080fd5b506200036462001f77565b348015620006b957600080fd5b50620003ca62002143565b348015620006d157600080fd5b5062000330620006e336600462003eaf565b62002149565b348015620006f657600080fd5b50620003306200070836600462003eaf565b620021ce565b3480156200071b57600080fd5b50620003ca620021e6565b3480156200073357600080fd5b50620003ca620021ec565b3480156200074b57600080fd5b5062000364620021f2565b620003646200232c565b3480156200076d57600080fd5b50620003ca6200077f36600462003c9e565b6200256e565b3480156200079257600080fd5b5062000364620007a436600462003de4565b62002580565b348015620007b757600080fd5b50620003646200286f565b348015620007cf57600080fd5b50620003ca6200287b565b348015620007e757600080fd5b50620003ca620007f936600462003cdc565b620028a8565b3480156200080c57600080fd5b50620003ca620028d3565b3480156200082457600080fd5b50620004cf620028d9565b3480156200083c57600080fd5b50620004cf620028fd565b620003646200290c565b3480156200085e57600080fd5b506200036462002b2b565b3480156200087657600080fd5b50620004cf62002c9c565b606060368054620008929062004c1d565b80601f0160208091040260200160405190810160405280929190818152602001828054620008c09062004c1d565b8015620009115780601f10620008e55761010080835404028352916020019162000911565b820191906000526020600020905b815481529060010190602001808311620008f357829003601f168201915b5050505050905090565b6000620009336200092b62002cab565b848462002caf565b50600192915050565b609e54600160a060020a03163314620009755760405160e560020a62461bcd0281526004016200096c9062004529565b60405180910390fd5b609e8054600160a060020a031916600160a060020a0392909216919091179055565b609e5460a060020a900460ff1681565b7f150b7a0200000000000000000000000000000000000000000000000000000000949350505050565b60355490565b6000620009e584848462002d71565b600160a060020a03841660009081526034602052604081208162000a0862002cab565b600160a060020a0316600160a060020a031681526020019081526020016000205490508281101562000a515760405160e560020a62461bcd0281526004016200096c9062004651565b62000a698562000a6062002cab565b85840362002caf565b506001949350505050565b60995481565b7f0000000000000000000000000000000000000000000000000000000000000000600160a060020a0316638da5cb5b6040518163ffffffff1660e060020a02815260040160206040518083038186803b15801562000ad757600080fd5b505afa15801562000aec573d6000803e3d6000fd5b505050506040513d601f19601f8201168201806040525081019062000b12919062003cbd565b600160a060020a031633600160a060020a031614620009755760405160e560020a62461bcd0281526004016200096c90620042ff565b609e54600160a060020a0316331462000b785760405160e560020a62461bcd0281526004016200096c9062004529565b7f0000000000000000000000000000000000000000000000000000000000000000600160a060020a031663a0b335e36040518163ffffffff1660e060020a028152600401602060405180830381600087803b15801562000bd757600080fd5b505af115801562000bec573d6000803e3d6000fd5b505050506040513d601f19601f8201168201806040525081019062000c12919062003f18565b811015801562000cbb57507f0000000000000000000000000000000000000000000000000000000000000000600160a060020a0316630e519ef96040518163ffffffff1660e060020a028152600401602060405180830381600087803b15801562000c7c57600080fd5b505af115801562000c91573d6000803e3d6000fd5b505050506040513d601f19601f8201168201806040525081019062000cb7919062003f18565b8111155b62000cdd5760405160e560020a62461bcd0281526004016200096c906200461a565b609a55565b601290565b609a5481565b609e5460a060020a900460ff1662000d1c5760405160e560020a62461bcd0281526004016200096c9062004560565b6002609d5460a060020a900460ff16600381111562000d4e5760e060020a634e487b7102600052602160045260246000fd5b1462000d715760405160e560020a62461bcd0281526004016200096c9062004b5d565b600062000d7e33620018bf565b90506000811162000da65760405160e560020a62461bcd0281526004016200096c9062004291565b600062000db2620009d0565b62000dbf30318462004be1565b62000dcb919062004bbd565b905062000dd9338362002eb5565b62000de5338262002fba565b33600160a060020a03167f730831a1e4aa2d187ddd8e03d7beeac760a3927da5f112d645e0f8df7494b3678260405162000e2091906200404e565b60405180910390a25050565b609f54600160a060020a031681565b60006200093362000e4b62002cab565b84846034600062000e5b62002cab565b600160a060020a03908116825260208083019390935260409182016000908120918b168152925290205462000e91919062004ba2565b62002caf565b73c02aaa39b223fe8d0a0e5c4f27ead9083c756cc281565b609e5460a060020a900460ff161562000edf5760405160e560020a62461bcd0281526004016200096c9062004a24565b6001609d5460a060020a900460ff16600381111562000f115760e060020a634e487b7102600052602160045260246000fd5b1462000f345760405160e560020a62461bcd0281526004016200096c906200425a565b60007f0000000000000000000000000000000000000000000000000000000000000000600160a060020a0316637c513c0f6040518163ffffffff1660e060020a028152600401602060405180830381600087803b15801562000f9557600080fd5b505af115801562000faa573d6000803e3d6000fd5b505050506040513d601f19601f8201168201806040525081019062000fd0919062003f18565b62000fde906103e862004ba2565b905080609c5462000ff0919062004be1565b62000ffe836103e862004be1565b1015620010225760405160e560020a62461bcd0281526004016200096c9062004959565b609f546040517fdd62ed3e000000000000000000000000000000000000000000000000000000008152600091600160a060020a03169063dd62ed3e9062001070903390309060040162003fac565b60206040518083038186803b1580156200108957600080fd5b505afa1580156200109e573d6000803e3d6000fd5b505050506040513d601f19601f82011682018060405250810190620010c4919062003f18565b905082811015620010ec5760405160e560020a62461bcd0281526004016200096c9062004aef565b6099544210620011135760405160e560020a62461bcd0281526004016200096c90620046ae565b609f5460405160e060020a6323b872dd028152600160a060020a03909116906323b872dd906200114c9033903090889060040162003fc6565b602060405180830381600087803b1580156200116757600080fd5b505af11580156200117c573d6000803e3d6000fd5b505050506040513d601f19601f82011682018060405250810190620011a2919062003edd565b5061038442609954620011b6919062004c03565b11620011d85761038460996000828254620011d2919062004ba2565b90915550505b609f54609d54609c546040517fa9059cbb000000000000000000000000000000000000000000000000000000008152600160a060020a039384169363a9059cbb936200122a9391169160040162003f93565b602060405180830381600087803b1580156200124557600080fd5b505af11580156200125a573d6000803e3d6000fd5b505050506040513d601f19601f8201168201806040525081019062001280919062003edd565b50609c839055609d8054600160a060020a031916339081179091556040517fe684a55f31b79eca403df938249029212a5925ec6be8012e099b45bc1019e5d290620012cd9086906200404e565b60405180910390a2505050565b60a554600160a060020a031681565b60a25460ff1681565b6000609d5460a060020a900460ff166003811115620013245760e060020a634e487b7102600052602160045260246000fd5b14620013475760405160e560020a62461bcd0281526004016200096c90620049c7565b33600090815260a46020526040902054818114156200137d5760405160e560020a62461bcd0281526004016200096c9062004a5b565b60006200138a33620018bf565b905060a35460001415620013b25760a3819055620013a9838262004be1565b609b5562001875565b60a35481148015620013c357508115155b15620013d557620013a9838262004be1565b81620015f757600060a354609b54620013ef919062004bbd565b905060006103e87f0000000000000000000000000000000000000000000000000000000000000000600160a060020a03166309990a966040518163ffffffff1660e060020a028152600401602060405180830381600087803b1580156200145557600080fd5b505af11580156200146a573d6000803e3d6000fd5b505050506040513d601f19601f8201168201806040525081019062001490919062003f18565b6200149c908462004be1565b620014a8919062004bbd565b905080851015620014d05760405160e560020a62461bcd0281526004016200096c9062004169565b60006103e87f0000000000000000000000000000000000000000000000000000000000000000600160a060020a0316635410bfc96040518163ffffffff1660e060020a028152600401602060405180830381600087803b1580156200153457600080fd5b505af115801562001549573d6000803e3d6000fd5b505050506040513d601f19601f820116820180604052508101906200156f919062003f18565b6200157b908562004be1565b62001587919062004bbd565b905080861115620015af5760405160e560020a62461bcd0281526004016200096c9062004990565b8360a36000828254620015c3919062004ba2565b90915550620015d59050868562004be1565b609b6000828254620015e8919062004ba2565b90915550620018759350505050565b8262001642578060a3600082825462001611919062004c03565b90915550620016239050828262004be1565b609b600082825462001636919062004c03565b90915550620018759050565b60008160a35462001654919062004c03565b62001660838562004be1565b609b546200166f919062004c03565b6200167b919062004bbd565b905060006103e87f0000000000000000000000000000000000000000000000000000000000000000600160a060020a03166309990a966040518163ffffffff1660e060020a028152600401602060405180830381600087803b158015620016e157600080fd5b505af1158015620016f6573d6000803e3d6000fd5b505050506040513d601f19601f820116820180604052508101906200171c919062003f18565b62001728908462004be1565b62001734919062004bbd565b9050808510156200175c5760405160e560020a62461bcd0281526004016200096c9062004169565b60006103e87f0000000000000000000000000000000000000000000000000000000000000000600160a060020a0316635410bfc96040518163ffffffff1660e060020a028152600401602060405180830381600087803b158015620017c057600080fd5b505af1158015620017d5573d6000803e3d6000fd5b505050506040513d601f19601f82011682018060405250810190620017fb919062003f18565b62001807908562004be1565b62001813919062004bbd565b9050808611156200183b5760405160e560020a62461bcd0281526004016200096c9062004990565b62001847858562004be1565b62001853878662004be1565b609b5462001862919062004ba2565b6200186e919062004c03565b609b555050505b33600081815260a4602052604090819020859055517f64e6e7bd72b853c4e62fd6ceaca05a104700c70a4cb567c75c7f2242ba7f037c90620012cd9086906200404e565b609c5481565b600160a060020a0381166000908152603360205260409020545b919050565b609b5481565b609d5460a060020a900460ff1681565b7f0000000000000000000000000000000000000000000000000000000000000000600160a060020a0316638da5cb5b6040518163ffffffff1660e060020a02815260040160206040518083038186803b1580156200195157600080fd5b505afa15801562001966573d6000803e3d6000fd5b505050506040513d601f19601f820116820180604052508101906200198c919062003cbd565b600160a060020a031633600160a060020a031614620019c25760405160e560020a62461bcd0281526004016200096c9062004831565b6000609d5460a060020a900460ff166003811115620019f45760e060020a634e487b7102600052602160045260246000fd5b1462001a175760405160e560020a62461bcd0281526004016200096c90620049c7565b600160a060020a038116600090815260a460205260409020548062001a535760405160e560020a62461bcd0281526004016200096c9062004a5b565b600062001a6083620018bf565b90508060a3600082825462001a76919062004c03565b9091555062001a889050828262004be1565b609b600082825462001a9b919062004c03565b9091555050600160a060020a038316600081815260a46020526040808220829055517f64e6e7bd72b853c4e62fd6ceaca05a104700c70a4cb567c75c7f2242ba7f037c91620012cd916200404e565b609d54600160a060020a031681565b609e54600160a060020a0316331462001b295760405160e560020a62461bcd0281526004016200096c9062004529565b7f0000000000000000000000000000000000000000000000000000000000000000600160a060020a0316638a364bc16040518163ffffffff1660e060020a028152600401602060405180830381600087803b15801562001b8857600080fd5b505af115801562001b9d573d6000803e3d6000fd5b505050506040513d601f19601f8201168201806040525081019062001bc3919062003f18565b81111562001be85760405160e560020a62461bcd0281526004016200096c90620046e5565b62001bf2620031ab565b60a055565b609e5460a060020a900460ff161562001c275760405160e560020a62461bcd0281526004016200096c9062004a24565b6000609d5460a060020a900460ff16600381111562001c595760e060020a634e487b7102600052602160045260246000fd5b1462001c7c5760405160e560020a62461bcd0281526004016200096c9062004132565b62001c866200287b565b81101562001cab5760405160e560020a62461bcd0281526004016200096c9062004393565b609f546040517fdd62ed3e000000000000000000000000000000000000000000000000000000008152600091600160a060020a03169063dd62ed3e9062001cf9903390309060040162003fac565b60206040518083038186803b15801562001d1257600080fd5b505afa15801562001d27573d6000803e3d6000fd5b505050506040513d601f19601f8201168201806040525081019062001d4d919062003f18565b90508181101562001d755760405160e560020a62461bcd0281526004016200096c906200409e565b62001d7f620009d0565b7f0000000000000000000000000000000000000000000000000000000000000000600160a060020a03166332977c736040518163ffffffff1660e060020a028152600401602060405180830381600087803b15801562001dde57600080fd5b505af115801562001df3573d6000803e3d6000fd5b505050506040513d601f19601f8201168201806040525081019062001e19919062003f18565b62001e25919062004be1565b60a35462001e36906103e862004be1565b101562001e5a5760405160e560020a62461bcd0281526004016200096c90620044bb565b609f5460405160e060020a6323b872dd028152600160a060020a03909116906323b872dd9062001e939033903090879060040162003fc6565b602060405180830381600087803b15801562001eae57600080fd5b505af115801562001ec3573d6000803e3d6000fd5b505050506040513d601f19601f8201168201806040525081019062001ee9919062003edd565b50609a5462001ef9904262004ba2565b609955609d8054609c84905574ff0000000000000000000000000000000000000000191660a060020a17600160a060020a031916339081179091556040517fcfb9c5312b25ec7b809d61e638df25f749eae5d5c25399e1c93d1d319bfd58219062000e209085906200404e565b606060378054620008929062004c1d565b609e5460a060020a900460ff161562001fa75760405160e560020a62461bcd0281526004016200096c90620044f2565b6002609d5460a060020a900460ff16600381111562001fd95760e060020a634e487b7102600052602160045260246000fd5b1462001ffc5760405160e560020a62461bcd0281526004016200096c9062004b5d565b60006200200933620018bf565b905060008111620020315760405160e560020a62461bcd0281526004016200096c9062004291565b60006200203d620009d0565b6200204a30318462004be1565b62002056919062004bbd565b905062002064338362002eb5565b609f546040517fa9059cbb000000000000000000000000000000000000000000000000000000008152600160a060020a039091169063a9059cbb90620020b1903390859060040162003f93565b602060405180830381600087803b158015620020cc57600080fd5b505af1158015620020e1573d6000803e3d6000fd5b505050506040513d601f19601f8201168201806040525081019062002107919062003edd565b5033600160a060020a03167f730831a1e4aa2d187ddd8e03d7beeac760a3927da5f112d645e0f8df7494b3678260405162000e2091906200404e565b60a35481565b600080603460006200215a62002cab565b600160a060020a0390811682526020808301939093526040918201600090812091881681529252902054905082811015620021ac5760405160e560020a62461bcd0281526004016200096c9062004a92565b620021c4620021ba62002cab565b8585840362002caf565b5060019392505050565b600062000933620021de62002cab565b848462002d71565b60a15481565b60985481565b6000609d5460a060020a900460ff166003811115620022245760e060020a634e487b7102600052602160045260246000fd5b14620022475760405160e560020a62461bcd0281526004016200096c90620042c8565b6200225c3362002256620009d0565b62002eb5565b60975460985460405160e060020a6323b872dd028152600160a060020a03909216916323b872dd9162002296913091339160040162003fc6565b600060405180830381600087803b158015620022b157600080fd5b505af1158015620022c6573d6000803e3d6000fd5b5050609d805474ff0000000000000000000000000000000000000000191674030000000000000000000000000000000000000000179055505060405133907fd1b5ea7fe0f1c2fa09d49c2aa9b2200664ba57a734f1d95481d95b7f99af991c90600090a2565b609e5460a060020a900460ff166200235b5760405160e560020a62461bcd0281526004016200096c9062004742565b6001609d5460a060020a900460ff1660038111156200238d5760e060020a634e487b7102600052602160045260246000fd5b14620023b05760405160e560020a62461bcd0281526004016200096c906200425a565b60007f0000000000000000000000000000000000000000000000000000000000000000600160a060020a0316637c513c0f6040518163ffffffff1660e060020a028152600401602060405180830381600087803b1580156200241157600080fd5b505af115801562002426573d6000803e3d6000fd5b505050506040513d601f19601f820116820180604052508101906200244c919062003f18565b6200245a906103e862004ba2565b905080609c546200246c919062004be1565b6200247a346103e862004be1565b10156200249e5760405160e560020a62461bcd0281526004016200096c9062004959565b6099544210620024c55760405160e560020a62461bcd0281526004016200096c90620046ae565b61038442609954620024d8919062004c03565b11620024fa5761038460996000828254620024f4919062004ba2565b90915550505b609d54609c546200251591600160a060020a0316906200341c565b34609c819055609d8054600160a060020a0319163390811790915560405190917fe684a55f31b79eca403df938249029212a5925ec6be8012e099b45bc1019e5d2916200256391906200404e565b60405180910390a250565b60a46020526000908152604090205481565b600054610100900460ff16806200259a575060005460ff16155b620025bc5760405160e560020a62461bcd0281526004016200096c90620045bd565b600054610100900460ff16158015620025e8576000805460ff1961ff0019909116610100171660011790555b600160a060020a038216158080620026b857506040517f19cdff59000000000000000000000000000000000000000000000000000000008152600160a060020a037f000000000000000000000000000000000000000000000000000000000000000016906319cdff59906200266290869060040162003f7f565b602060405180830381600087803b1580156200267d57600080fd5b505af115801562002692573d6000803e3d6000fd5b505050506040513d601f19601f82011682018060405250810190620026b8919062003edd565b620026da5760405160e560020a62461bcd0281526004016200096c906200445e565b620026e68585620035b1565b620026f062003646565b8484604051620027009062003b37565b6200270d9291906200406c565b604051809103906000f0801580156200272a573d6000803e3d6000fd5b5060a58054600160a060020a0319908116600160a060020a039384161790915560978054909116918c1691909117905560988990556200276b888862004be1565b609b8190555062093a80609a819055508a609e60006101000a815481600160a060020a030219169083600160a060020a0316021790555080609e60146101000a81548160ff021916908315150217905550609e60149054906101000a900460ff16620027ed57609f8054600160a060020a031916600160a060020a0385161790555b60a08690554260a155861562002804578762002807565b60005b60a355609d805474ff000000000000000000000000000000000000000019169055620028348b89620036ce565b50600160a060020a038a16600090815260a460205260409020869055801562002863576000805461ff00191690555b50505050505050505050565b62002879620031ab565b565b600060a354600014620028a05760a354609b546200289a919062004bbd565b620028a3565b60005b905090565b600160a060020a03918216600090815260346020908152604080832093909416825291909152205490565b60a05481565b7f000000000000000000000000000000000000000000000000000000000000000081565b609e54600160a060020a031681565b609e5460a060020a900460ff166200293b5760405160e560020a62461bcd0281526004016200096c90620043ca565b6000609d5460a060020a900460ff1660038111156200296d5760e060020a634e487b7102600052602160045260246000fd5b14620029905760405160e560020a62461bcd0281526004016200096c9062004132565b6200299a6200287b565b341015620029bf5760405160e560020a62461bcd0281526004016200096c9062004393565b620029c9620009d0565b7f0000000000000000000000000000000000000000000000000000000000000000600160a060020a03166332977c736040518163ffffffff1660e060020a028152600401602060405180830381600087803b15801562002a2857600080fd5b505af115801562002a3d573d6000803e3d6000fd5b505050506040513d601f19601f8201168201806040525081019062002a63919062003f18565b62002a6f919062004be1565b60a35462002a80906103e862004be1565b101562002aa45760405160e560020a62461bcd0281526004016200096c90620044bb565b609a5462002ab3904262004ba2565b609955609d805434609c81905574ff00000000000000000000000000000000000000001990911660a060020a17600160a060020a031916339081179092556040517fcfb9c5312b25ec7b809d61e638df25f749eae5d5c25399e1c93d1d319bfd58219162002b21916200404e565b60405180910390a2565b6001609d5460a060020a900460ff16600381111562002b5d5760e060020a634e487b7102600052602160045260246000fd5b1462002b805760405160e560020a62461bcd0281526004016200096c90620048c5565b60995442101562002ba85760405160e560020a62461bcd0281526004016200096c9062004427565b62002bb2620031ab565b609754609d5460985460405160e060020a6323b872dd028152600160a060020a03938416936323b872dd9362002bf2933093929091169160040162003fc6565b600060405180830381600087803b15801562002c0d57600080fd5b505af115801562002c22573d6000803e3d6000fd5b5050609d805474ff00000000000000000000000000000000000000001916740200000000000000000000000000000000000000001790819055609c54604051600160a060020a0390921693507f8b01f9dd0400d6a1e84369a5fb8f6033934856ffa8ebadd707dca302ab551695925062002b21916200404e565b609754600160a060020a031681565b3390565b600160a060020a03831662002cdb5760405160e560020a62461bcd0281526004016200096c9062004868565b600160a060020a03821662002d075760405160e560020a62461bcd0281526004016200096c90620041fd565b600160a060020a0380841660008181526034602090815260408083209487168084529490915290819020849055517f8c5be1e5ebec7d5bd14f71427d1e84f3dd0314c0f7b2291e5b200ac8c7c3b9259062002d649085906200404e565b60405180910390a3505050565b600160a060020a03831662002d9d5760405160e560020a62461bcd0281526004016200096c90620047d4565b600160a060020a03821662002dc95760405160e560020a62461bcd0281526004016200096c90620040d5565b62002dd6838383620037a6565b600160a060020a0383166000908152603360205260409020548181101562002e155760405160e560020a62461bcd0281526004016200096c9062004336565b600160a060020a0380851660009081526033602052604080822085850390559185168152908120805484929062002e4e90849062004ba2565b9250508190555082600160a060020a031684600160a060020a03167fddf252ad1be2c89b69c2b068fc378daa952ba7f163c4a11628f55a4df523b3ef8460405162002e9a91906200404e565b60405180910390a362002eaf84848462002fb5565b50505050565b600160a060020a03821662002ee15760405160e560020a62461bcd0281526004016200096c9062004777565b62002eef82600083620037a6565b600160a060020a0382166000908152603360205260409020548181101562002f2e5760405160e560020a62461bcd0281526004016200096c90620041a0565b600160a060020a038316600090815260336020526040812083830390556035805484929062002f5f90849062004c03565b9091555050604051600090600160a060020a038516907fddf252ad1be2c89b69c2b068fc378daa952ba7f163c4a11628f55a4df523b3ef9062002fa49086906200404e565b60405180910390a362002fb5836000845b505050565b62002fce82600160a060020a031662003a0a565b15620031705773c02aaa39b223fe8d0a0e5c4f27ead9083c756cc2600160a060020a031663d0e30db0826040518263ffffffff1660e060020a0281526004016000604051808303818588803b1580156200302757600080fd5b505af11580156200303c573d6000803e3d6000fd5b50506040517f70a0823100000000000000000000000000000000000000000000000000000000815273c02aaa39b223fe8d0a0e5c4f27ead9083c756cc2935063a9059cbb925085915083906370a08231906200309d90309060040162003f7f565b60206040518083038186803b158015620030b657600080fd5b505afa158015620030cb573d6000803e3d6000fd5b505050506040513d601f19601f82011682018060405250810190620030f1919062003f18565b6040518363ffffffff1660e060020a0281526004016200311392919062003f93565b602060405180830381600087803b1580156200312e57600080fd5b505af115801562003143573d6000803e3d6000fd5b505050506040513d601f19601f8201168201806040525081019062003169919062003edd565b50620031a7565b604051600160a060020a0383169082156108fc029083906000818181858888f1935050505015801562002fb5573d6000803e3d6000fd5b5050565b6002609d5460a060020a900460ff166003811115620031dd5760e060020a634e487b7102600052602160045260246000fd5b1415620032015760405160e560020a62461bcd0281526004016200096c90620048fc565b60006103e862003210620009d0565b60a0546200321f919062004be1565b6200322b919062004bbd565b905060006200323f6301e133808362004bbd565b9050600060a1544262003253919062004c03565b9050600062003263838362004be1565b905060007f0000000000000000000000000000000000000000000000000000000000000000600160a060020a031663b3f006746040518163ffffffff1660e060020a028152600401602060405180830381600087803b158015620032c657600080fd5b505af1158015620032db573d6000803e3d6000fd5b505050506040513d601f19601f8201168201806040525081019062003301919062003cbd565b905060007f0000000000000000000000000000000000000000000000000000000000000000600160a060020a0316630ea90a126040518163ffffffff1660e060020a028152600401602060405180830381600087803b1580156200336457600080fd5b505af115801562003379573d6000803e3d6000fd5b505050506040513d601f19601f820116820180604052508101906200339f919062003f18565b90506103e8620033ae620009d0565b620033ba908362004be1565b620033c6919062004bbd565b9550620033d86301e133808762004bbd565b94506000620033e8868662004be1565b4260a155609e549091506200340790600160a060020a031685620036ce565b620034138382620036ce565b50505050505050565b73c02aaa39b223fe8d0a0e5c4f27ead9083c756cc2600160a060020a031663d0e30db0826040518263ffffffff1660e060020a0281526004016000604051808303818588803b1580156200346f57600080fd5b505af115801562003484573d6000803e3d6000fd5b50506040517f70a0823100000000000000000000000000000000000000000000000000000000815273c02aaa39b223fe8d0a0e5c4f27ead9083c756cc2935063a9059cbb925085915083906370a0823190620034e590309060040162003f7f565b60206040518083038186803b158015620034fe57600080fd5b505afa15801562003513573d6000803e3d6000fd5b505050506040513d601f19601f8201168201806040525081019062003539919062003f18565b6040518363ffffffff1660e060020a0281526004016200355b92919062003f93565b602060405180830381600087803b1580156200357657600080fd5b505af11580156200358b573d6000803e3d6000fd5b505050506040513d601f19601f8201168201806040525081019062002fb5919062003edd565b600054610100900460ff1680620035cb575060005460ff16155b620035ed5760405160e560020a62461bcd0281526004016200096c90620045bd565b600054610100900460ff1615801562003619576000805460ff1961ff0019909116610100171660011790555b6200362362003a10565b6200362f838362003a8c565b801562002fb5576000805461ff0019169055505050565b600054610100900460ff168062003660575060005460ff16155b620036825760405160e560020a62461bcd0281526004016200096c90620045bd565b600054610100900460ff16158015620036ae576000805460ff1961ff0019909116610100171660011790555b620036b862003a10565b8015620036cb576000805461ff00191690555b50565b600160a060020a038216620036fa5760405160e560020a62461bcd0281526004016200096c9062004b26565b6200370860008383620037a6565b80603560008282546200371c919062004ba2565b9091555050600160a060020a038216600090815260336020526040812080548392906200374b90849062004ba2565b9091555050604051600160a060020a038316906000907fddf252ad1be2c89b69c2b068fc378daa952ba7f163c4a11628f55a4df523b3ef90620037909085906200404e565b60405180910390a3620031a76000838362002fb5565b80620037b284620018bf565b1415620038395760a5546040517f89afcb44000000000000000000000000000000000000000000000000000000008152600160a060020a03909116906389afcb44906200380490869060040162003f7f565b600060405180830381600087803b1580156200381f57600080fd5b505af115801562003834573d6000803e3d6000fd5b505050505b6200384482620018bf565b620038c95760a5546040517f6a627842000000000000000000000000000000000000000000000000000000008152600160a060020a0390911690636a627842906200389490859060040162003f7f565b600060405180830381600087803b158015620038af57600080fd5b505af1158015620038c4573d6000803e3d6000fd5b505050505b600160a060020a038316158015906200391157506000609d5460a060020a900460ff1660038111156200390f5760e060020a634e487b7102600052602160045260246000fd5b145b1562002fb557600160a060020a03808416600090815260a4602052604080822054928516825290205480821462003a0357806200398d578260a360008282546200395c919062004c03565b909155506200396e9050828462004be1565b609b600082825462003981919062004c03565b9091555062003a039050565b81620039cc578260a36000828254620039a7919062004ba2565b90915550620039b99050818462004be1565b609b600082825462003981919062004ba2565b620039d8828462004be1565b620039e4828562004be1565b609b54620039f3919062004ba2565b620039ff919062004c03565b609b555b5050505050565b3b151590565b600054610100900460ff168062003a2a575060005460ff16155b62003a4c5760405160e560020a62461bcd0281526004016200096c90620045bd565b600054610100900460ff16158015620036b8576000805460ff1961ff0019909116610100171660011790558015620036cb576000805461ff001916905550565b600054610100900460ff168062003aa6575060005460ff16155b62003ac85760405160e560020a62461bcd0281526004016200096c90620045bd565b600054610100900460ff1615801562003af4576000805460ff1961ff0019909116610100171660011790555b825162003b0990603690602086019062003b45565b50815162003b1f90603790602085019062003b45565b50801562002fb5576000805461ff0019169055505050565b6112b58062004ca683390190565b82805462003b539062004c1d565b90600052602060002090601f01602090048101928262003b77576000855562003bc2565b82601f1062003b9257805160ff191683800117855562003bc2565b8280016001018555821562003bc2579182015b8281111562003bc257825182559160200191906001019062003ba5565b5062003bd092915062003bd4565b5090565b5b8082111562003bd0576000815560010162003bd5565b600067ffffffffffffffff8084111562003c095762003c0962004c76565b604051601f8501601f19908116603f0116810190828211818310171562003c345762003c3462004c76565b8160405280935085815286868601111562003c4e57600080fd5b858560208301376000602087830101525050509392505050565b8035620018d98162004c8f565b600082601f83011262003c86578081fd5b62003c978383356020850162003beb565b9392505050565b60006020828403121562003cb0578081fd5b813562003c978162004c8f565b60006020828403121562003ccf578081fd5b815162003c978162004c8f565b6000806040838503121562003cef578081fd5b823562003cfc8162004c8f565b9150602083013562003d0e8162004c8f565b809150509250929050565b60008060006060848603121562003d2e578081fd5b833562003d3b8162004c8f565b9250602084013562003d4d8162004c8f565b929592945050506040919091013590565b6000806000806080858703121562003d74578081fd5b843562003d818162004c8f565b9350602085013562003d938162004c8f565b925060408501359150606085013567ffffffffffffffff81111562003db6578182fd5b8501601f8101871362003dc7578182fd5b62003dd88782356020840162003beb565b91505092959194509250565b60008060008060008060008060006101208a8c03121562003e03578485fd5b893562003e108162004c8f565b985060208a013562003e228162004c8f565b975060408a0135965060608a0135955060808a0135945060a08a0135935060c08a013567ffffffffffffffff8082111562003e5b578485fd5b62003e698d838e0162003c75565b945060e08c013591508082111562003e7f578384fd5b5062003e8e8c828d0162003c75565b92505062003ea06101008b0162003c68565b90509295985092959850929598565b6000806040838503121562003ec2578182fd5b823562003ecf8162004c8f565b946020939093013593505050565b60006020828403121562003eef578081fd5b8151801515811462003c97578182fd5b60006020828403121562003f11578081fd5b5035919050565b60006020828403121562003f2a578081fd5b5051919050565b60008151808452815b8181101562003f585760208185018101518683018201520162003f3a565b8181111562003f6a5782602083870101525b50601f01601f19169290920160200192915050565b600160a060020a0391909116815260200190565b600160a060020a03929092168252602082015260400190565b600160a060020a0392831681529116602082015260400190565b600160a060020a039384168152919092166020820152604081019190915260600190565b901515815260200190565b7fffffffff0000000000000000000000000000000000000000000000000000000091909116815260200190565b6020810160048310620040485760e060020a634e487b7102600052602160045260246000fd5b91905290565b90815260200190565b60006020825262003c97602083018462003f31565b60006040825262004081604083018562003f31565b828103602084015262004095818562003f31565b95945050505050565b6020808252601f908201527f73746172743a636865636b2074686520746f6b656e20616c6c6f77616e636500604082015260600190565b60208082526023908201527f45524332303a207472616e7366657220746f20746865207a65726f206164647260408201527f6573730000000000000000000000000000000000000000000000000000000000606082015260800190565b60208082526017908201527f73746172743a6e6f2061756374696f6e20737461727473000000000000000000604082015260600190565b6020808252601c908201527f7570646174653a7265736572766520707269636520746f6f206c6f7700000000604082015260600190565b60208082526022908201527f45524332303a206275726e20616d6f756e7420657863656564732062616c616e60408201527f6365000000000000000000000000000000000000000000000000000000000000606082015260800190565b60208082526022908201527f45524332303a20617070726f766520746f20746865207a65726f20616464726560408201527f7373000000000000000000000000000000000000000000000000000000000000606082015260800190565b60208082526017908201527f6269643a61756374696f6e206973206e6f74206c697665000000000000000000604082015260600190565b6020808252601a908201527f636173683a6e6f20746f6b656e7320746f2063617368206f7574000000000000604082015260600190565b60208082526013908201527f72656465656d3a6e6f2072656465656d696e6700000000000000000000000000604082015260600190565b6020808252600c908201527f6b69636b3a6e6f7420676f760000000000000000000000000000000000000000604082015260600190565b60208082526026908201527f45524332303a207472616e7366657220616d6f756e742065786365656473206260408201527f616c616e63650000000000000000000000000000000000000000000000000000606082015260800190565b60208082526011908201527f73746172743a746f6f206c6f7720626964000000000000000000000000000000604082015260600190565b60208082526022908201527f73746172743a7468652072657365727665206173736574206973206e6f74204560408201527f5448000000000000000000000000000000000000000000000000000000000000606082015260800190565b60208082526010908201527f656e643a61756374696f6e206c69766500000000000000000000000000000000604082015260600190565b6020808252602b908201527f696e697469616c697a65723a20617373657420746f6b656e206973206e6f742060408201527f77686974656c6973746564000000000000000000000000000000000000000000606082015260800190565b60208082526017908201527f73746172743a6e6f7420656e6f75676820766f74657273000000000000000000604082015260600190565b6020808252601d908201527f636173683a746865207265736572766520617373657420697320455448000000604082015260600190565b60208082526012908201527f7570646174653a6e6f742063757261746f720000000000000000000000000000604082015260600190565b60208082526021908201527f636173683a7468652072657365727665206173736574206973206e6f7420455460408201527f4800000000000000000000000000000000000000000000000000000000000000606082015260800190565b6020808252602e908201527f496e697469616c697a61626c653a20636f6e747261637420697320616c72656160408201527f647920696e697469616c697a6564000000000000000000000000000000000000606082015260800190565b6020808252601d908201527f7570646174653a696e76616c69642061756374696f6e206c656e677468000000604082015260600190565b60208082526028908201527f45524332303a207472616e7366657220616d6f756e742065786365656473206160408201527f6c6c6f77616e6365000000000000000000000000000000000000000000000000606082015260800190565b60208082526011908201527f6269643a61756374696f6e20656e646564000000000000000000000000000000604082015260600190565b60208082526024908201527f7570646174653a63616e6e6f7420696e6372656173652066656520746869732060408201527f6869676800000000000000000000000000000000000000000000000000000000606082015260800190565b6020808252818101527f6269643a7468652072657365727665206173736574206973206e6f7420455448604082015260600190565b60208082526021908201527f45524332303a206275726e2066726f6d20746865207a65726f2061646472657360408201527f7300000000000000000000000000000000000000000000000000000000000000606082015260800190565b60208082526025908201527f45524332303a207472616e736665722066726f6d20746865207a65726f20616460408201527f6472657373000000000000000000000000000000000000000000000000000000606082015260800190565b6020808252600e908201527f72656d6f76653a6e6f7420676f76000000000000000000000000000000000000604082015260600190565b60208082526024908201527f45524332303a20617070726f76652066726f6d20746865207a65726f2061646460408201527f7265737300000000000000000000000000000000000000000000000000000000606082015260800190565b6020808252601c908201527f656e643a7661756c742068617320616c726561647920636c6f73656400000000604082015260600190565b60208082526025908201527f636c61696d3a63616e6e6f7420636c61696d2061667465722061756374696f6e60408201527f20656e6473000000000000000000000000000000000000000000000000000000606082015260800190565b6020808252600f908201527f6269643a746f6f206c6f77206269640000000000000000000000000000000000604082015260600190565b6020808252601d908201527f7570646174653a7265736572766520707269636520746f6f2068696768000000604082015260600190565b60208082526027908201527f7570646174653a61756374696f6e206c6976652063616e6e6f7420757064617460408201527f6520707269636500000000000000000000000000000000000000000000000000606082015260800190565b6020808252601e908201527f73746172743a7468652072657365727665206173736574206973204554480000604082015260600190565b60208082526014908201527f7570646174653a6e6f7420616e20757064617465000000000000000000000000604082015260600190565b60208082526025908201527f45524332303a2064656372656173656420616c6c6f77616e63652062656c6f7760408201527f207a65726f000000000000000000000000000000000000000000000000000000606082015260800190565b6020808252601d908201527f6269643a636865636b2074686520746f6b656e20616c6c6f77616e6365000000604082015260600190565b6020808252601f908201527f45524332303a206d696e7420746f20746865207a65726f206164647265737300604082015260600190565b60208082526019908201527f636173683a7661756c74206e6f7420636c6f7365642079657400000000000000604082015260600190565b60ff91909116815260200190565b6000821982111562004bb85762004bb862004c5d565b500190565b60008262004bdc5760e060020a634e487b710281526012600452602481fd5b500490565b600081600019048311821515161562004bfe5762004bfe62004c5d565b500290565b60008282101562004c185762004c1862004c5d565b500390565b60028104600182168062004c3257607f821691505b6020821081141562004c575760e060020a634e487b7102600052602260045260246000fd5b50919050565b60e060020a634e487b7102600052601160045260246000fd5b60e060020a634e487b7102600052604160045260246000fd5b600160a060020a0381168114620036cb57600080fdfe60e0604052601b60a08190527f68747470733a2f2f7572692e6672616374696f6e616c2e6172742f000000000060c0908152620000409160079190620001c5565b503480156200004e57600080fd5b50604051620012b5380380620012b583398101604081905262000071916200031e565b815162000086906004906020850190620001c5565b5080516200009c906005906020840190620001c5565b506c010000000000000000000000003302608052620000e47f80ac58cd0000000000000000000000000000000000000000000000000000000064010000000062000120810204565b620001187f5b5e139f0000000000000000000000000000000000000000000000000000000064010000000062000120810204565b505062000441565b7fffffffff00000000000000000000000000000000000000000000000000000000808216141562000188576040517f08c379a00000000000000000000000000000000000000000000000000000000081526004016200017f9062000385565b60405180910390fd5b7fffffffff00000000000000000000000000000000000000000000000000000000166000908152602081905260409020805460ff19166001179055565b828054620001d390620003bc565b90600052602060002090601f016020900481019282620001f7576000855562000242565b82601f106200021257805160ff191683800117855562000242565b8280016001018555821562000242579182015b828111156200024257825182559160200191906001019062000225565b506200025092915062000254565b5090565b5b8082111562000250576000815560010162000255565b600082601f8301126200027c578081fd5b81516001604060020a038082111562000299576200029962000412565b604051601f8301601f19908116603f01168101908282118183101715620002c457620002c462000412565b81604052838152602092508683858801011115620002e0578485fd5b8491505b83821015620003035785820183015181830184015290820190620002e4565b838211156200031457848385830101525b9695505050505050565b6000806040838503121562000331578182fd5b82516001604060020a038082111562000348578384fd5b62000356868387016200026b565b935060208501519150808211156200036c578283fd5b506200037b858286016200026b565b9150509250929050565b6020808252601c908201527f4552433136353a20696e76616c696420696e7465726661636520696400000000604082015260600190565b600281046001821680620003d157607f821691505b602082108114156200040c577f4e487b7100000000000000000000000000000000000000000000000000000000600052602260045260246000fd5b50919050565b7f4e487b7100000000000000000000000000000000000000000000000000000000600052604160045260246000fd5b6080516c010000000000000000000000009004610e3a6200047b60003960008181610367015281816104ce015261067b0152610e3a6000f3fe608060405234801561001057600080fd5b5060043610610128576000357c0100000000000000000000000000000000000000000000000000000000900480636c0360eb116100bf578063a22cb4651161008e578063a22cb46514610217578063b88d4fde14610225578063c87b56dd14610233578063e985e9c514610246578063fbfa77cf1461025957610128565b80636c0360eb146101d457806370a08231146101dc57806389afcb44146101fc57806395d89b411461020f57610128565b806323b872dd116100fb57806323b872dd146101a057806342842e0e146101a05780636352211e146101ae5780636a627842146101c157610128565b806301ffc9a71461012d57806306fdde0314610156578063081812fc1461016b578063095ea7b31461018b575b600080fd5b61014061013b366004610b44565b610261565b60405161014d9190610bdc565b60405180910390f35b61015e6102ad565b60405161014d9190610be7565b61017e610179366004610b81565b61033b565b60405161014d9190610bc8565b61019e610199366004610b1b565b610128565b005b61019e6101993660046109d1565b61017e6101bc366004610b81565b610341565b61019e6101cf36600461097e565b61035c565b61015e6103b5565b6101ef6101ea36600461097e565b610447565b60405161014d9190610cd4565b61019e61020a36600461097e565b6104c3565b61015e610501565b61019e610199366004610ae1565b61019e610199366004610a0c565b61015e610241366004610b81565b610514565b61014061025436600461099f565b610671565b61017e610679565b600061026c8261069d565b806102a557507bffffffffffffffffffffffffffffffffffffffffffffffffffffffff19821660009081526020819052604090205460ff165b90505b919050565b600480546102ba90610d4c565b80601f01602080910402602001604051908101604052809291908181526020018280546102e690610d4c565b80156103335780601f1061030857610100808354040283529160200191610333565b820191906000526020600020905b81548152906001019060200180831161031657829003601f168201915b505050505081565b50600090565b600090815260036020526040902054600160a060020a031690565b33600160a060020a037f0000000000000000000000000000000000000000000000000000000000000000161461039157600080fd5b600180549060006103a183610d8a565b91905055506103b2816001546106e4565b50565b6060600780546103c490610d4c565b80601f01602080910402602001604051908101604052809291908181526020018280546103f090610d4c565b801561043d5780601f106104125761010080835404028352916020019161043d565b820191906000526020600020905b81548152906001019060200180831161042057829003601f168201915b5050505050905090565b6000600160a060020a038216610492576040517f08c379a000000000000000000000000000000000000000000000000000000000815260040161048990610c1a565b60405180910390fd5b600160a060020a038216600090815260026020526040902054156104b75760016104ba565b60005b60ff1692915050565b33600160a060020a037f000000000000000000000000000000000000000000000000000000000000000016146104f857600080fd5b6103b281610758565b600580546102ba90610d4c565b50505050565b606061051f826107ce565b610555576040517f08c379a000000000000000000000000000000000000000000000000000000000815260040161048990610c77565b6000828152600660205260408120805461056e90610d4c565b80601f016020809104026020016040519081016040528092919081815260200182805461059a90610d4c565b80156105e75780601f106105bc576101008083540402835291602001916105e7565b820191906000526020600020905b8154815290600101906020018083116105ca57829003601f168201915b5050505050905060006105f86103b5565b905080516000141561060c575090506102a8565b81511561063e578082604051602001610626929190610b99565b604051602081830303815290604052925050506102a8565b80610648856107eb565b604051602001610659929190610b99565b60405160208183030381529060405292505050919050565b600092915050565b7f000000000000000000000000000000000000000000000000000000000000000081565b7bffffffffffffffffffffffffffffffffffffffffffffffffffffffff1981167f01ffc9a70000000000000000000000000000000000000000000000000000000014919050565b600160a060020a03821660008181526002602090815260408083208590558483526003909152808220805473ffffffffffffffffffffffffffffffffffffffff19168417905551839291907fddf252ad1be2c89b69c2b068fc378daa952ba7f163c4a11628f55a4df523b3ef908290a45050565b600160a060020a03811660008181526002602090815260408083208054908490558084526003909252808320805473ffffffffffffffffffffffffffffffffffffffff191690555190928392917fddf252ad1be2c89b69c2b068fc378daa952ba7f163c4a11628f55a4df523b3ef908390a45050565b600090815260036020526040902054600160a060020a0316151590565b60608161082c575060408051808201909152600181527f300000000000000000000000000000000000000000000000000000000000000060208201526102a8565b8160005b8115610856578061084081610d8a565b915061084f9050600a83610cf5565b9150610830565b60008167ffffffffffffffff8111156108825760e060020a634e487b7102600052604160045260246000fd5b6040519080825280601f01601f1916602001820160405280156108ac576020820181803683370190505b5090505b841561095f576108c1600183610d09565b91506108ce600a86610da5565b6108d9906030610cdd565b7f01000000000000000000000000000000000000000000000000000000000000000281838151811061091e5760e060020a634e487b7102600052603260045260246000fd5b60200101907effffffffffffffffffffffffffffffffffffffffffffffffffffffffffffff1916908160001a905350610958600a86610cf5565b94506108b0565b949350505050565b8035600160a060020a03811681146102a857600080fd5b60006020828403121561098f578081fd5b61099882610967565b9392505050565b600080604083850312156109b1578081fd5b6109ba83610967565b91506109c860208401610967565b90509250929050565b6000806000606084860312156109e5578081fd5b6109ee84610967565b92506109fc60208501610967565b9150604084013590509250925092565b60008060008060808587031215610a21578081fd5b610a2a85610967565b9350610a3860208601610967565b925060408501359150606085013567ffffffffffffffff80821115610a5b578283fd5b818701915087601f830112610a6e578283fd5b813581811115610a8057610a80610deb565b604051601f8201601f19908116603f01168101908382118183101715610aa857610aa8610deb565b816040528281528a6020848701011115610ac0578586fd5b82602086016020830137918201602001949094529598949750929550505050565b60008060408385031215610af3578182fd5b610afc83610967565b915060208301358015158114610b10578182fd5b809150509250929050565b60008060408385031215610b2d578182fd5b610b3683610967565b946020939093013593505050565b600060208284031215610b55578081fd5b81357bffffffffffffffffffffffffffffffffffffffffffffffffffffffff1981168114610998578182fd5b600060208284031215610b92578081fd5b5035919050565b60008351610bab818460208801610d20565b835190830190610bbf818360208801610d20565b01949350505050565b600160a060020a0391909116815260200190565b901515815260200190565b6000602082528251806020840152610c06816040850160208701610d20565b601f01601f19169190910160400192915050565b6020808252602a908201527f4552433732313a2062616c616e636520717565727920666f7220746865207a6560408201527f726f206164647265737300000000000000000000000000000000000000000000606082015260800190565b6020808252602f908201527f4552433732314d657461646174613a2055524920717565727920666f72206e6f60408201527f6e6578697374656e7420746f6b656e0000000000000000000000000000000000606082015260800190565b90815260200190565b60008219821115610cf057610cf0610db9565b500190565b600082610d0457610d04610dd2565b500490565b600082821015610d1b57610d1b610db9565b500390565b60005b83811015610d3b578181015183820152602001610d23565b8381111561050e5750506000910152565b600281046001821680610d6057607f821691505b60208210811415610d845760e060020a634e487b7102600052602260045260246000fd5b50919050565b6000600019821415610d9e57610d9e610db9565b5060010190565b600082610db457610db4610dd2565b500690565b60e060020a634e487b7102600052601160045260246000fd5b60e060020a634e487b7102600052601260045260246000fd5b60e060020a634e487b7102600052604160045260246000fdfea2646970667358221220cb9d68c4c3bd228480ba98f4b28c2b98075a1f2d0b38da591910df9ef3894c5964736f6c63430008010033a2646970667358221220a610b90e5b81273be357bb4967fadd5a849938cb7baa08372756aefd8df090d464736f6c63430008010033",
  "immutableReferences": {
    "5068": [
      {
        "length": 32,
        "start": 673
      },
      {
        "length": 32,
        "start": 1630
      }
    ],
    "5071": [
      {
        "length": 32,
        "start": 852
      },
      {
        "length": 32,
        "start": 1594
      }
    ]
  },
  "source": "//SPDX-License-Identifier: MIT\npragma solidity ^0.8.0;\n\nimport \"@openzeppelin/contracts/access/Ownable.sol\";\nimport \"@openzeppelin/contracts/security/Pausable.sol\";\nimport \"@openzeppelin/contracts/token/ERC721/ERC721.sol\";\nimport \"@openzeppelin/contracts/token/ERC721/utils/ERC721Holder.sol\";\n\nimport \"./InitializedProxy.sol\";\nimport \"./Settings.sol\";\nimport \"./ERC721TokenVault.sol\";\n\ncontract ERC721VaultFactory is Ownable, Pausable {\n    /// @notice the number of ERC721 vaults\n    uint256 public vaultCount;\n\n    /// @notice the mapping of vault number to vault contract\n    mapping(uint256 => address) public vaults;\n\n    /// @notice a settings contract controlled by governance\n    address public immutable settings;\n    /// @notice the TokenVault logic contract\n    address public immutable logic;\n\n    event Mint(\n        address indexed token,\n        uint256 id,\n        bool withETH,\n        address asset,\n        uint256 price,\n        address vault,\n        uint256 vaultId\n    );\n\n    constructor(address _settings) {\n        settings = _settings;\n        logic = address(new TokenVault(_settings));\n    }\n\n    /// @notice the function to mint a new vault\n    /// @param _name the desired name of the vault\n    /// @param _symbol the desired sumbol of the vault\n    /// @param _token the ERC721 token address fo the NFT\n    /// @param _id the uint256 ID of the token\n    /// @param _asset the address of reserve asset. if it is address(0), then it is ETH\n    /// @param _listPrice the initial price of the NFT\n    /// @return the ID of the vault\n    function mint(\n        string memory _name,\n        string memory _symbol,\n        address _token,\n        uint256 _id,\n        uint256 _supply,\n        address _asset,\n        uint256 _listPrice,\n        uint256 _fee\n    ) external whenNotPaused returns (uint256) {\n        bytes memory _initializationCalldata = abi.encodeWithSignature(\n            \"initialize(address,address,uint256,uint256,uint256,uint256,string,string,address)\",\n            msg.sender,\n            _token,\n            _id,\n            _supply,\n            _listPrice,\n            _fee,\n            _name,\n            _symbol,\n            _asset\n        );\n\n        bool _withETH = _asset == address(0);\n        require(\n            _withETH || ISettings(settings).assetWhitelisted(_asset),\n            \"mint: asset token is not whitelisted\"\n        );\n\n        address vault = address(\n            new InitializedProxy(logic, _initializationCalldata)\n        );\n\n        emit Mint(_token, _id, _withETH, _asset, _listPrice, vault, vaultCount);\n\n        IERC721(_token).safeTransferFrom(msg.sender, vault, _id);\n\n        vaults[vaultCount] = vault;\n        vaultCount++;\n\n        return vaultCount - 1;\n    }\n\n    function pause() external onlyOwner {\n        _pause();\n    }\n\n    function unpause() external onlyOwner {\n        _unpause();\n    }\n}\n",
  "sourcePath": "/Users/angelsatorresalmenara/Privi-Polygon/privi-nft-fractionalize/contracts/ERC721VaultFactory.sol",
  "compiler": {
    "name": "solc",
    "version": "0.8.1+commit.df193b15.Emscripten.clang"
  },
  "schemaVersion": "3.4.2",
  "updatedAt": "2021-09-02T14:56:20.043Z",
  "networkType": "ethereum",
  "devdoc": {
    "kind": "dev",
    "methods": {
      "mint(string,string,address,uint256,uint256,address,uint256,uint256)": {
        "params": {
          "_asset": "the address of reserve asset. if it is address(0), then it is ETH",
          "_id": "the uint256 ID of the token",
          "_listPrice": "the initial price of the NFT",
          "_name": "the desired name of the vault",
          "_symbol": "the desired sumbol of the vault",
          "_token": "the ERC721 token address fo the NFT"
        },
        "returns": {
          "_0": "the ID of the vault"
        }
      },
      "owner()": {
        "details": "Returns the address of the current owner."
      },
      "paused()": {
        "details": "Returns true if the contract is paused, and false otherwise."
      },
      "renounceOwnership()": {
        "details": "Leaves the contract without owner. It will not be possible to call `onlyOwner` functions anymore. Can only be called by the current owner. NOTE: Renouncing ownership will leave the contract without an owner, thereby removing any functionality that is only available to the owner."
      },
      "transferOwnership(address)": {
        "details": "Transfers ownership of the contract to a new account (`newOwner`). Can only be called by the current owner."
      }
    },
    "version": 1
  },
  "userdoc": {
    "kind": "user",
    "methods": {
      "logic()": {
        "notice": "the TokenVault logic contract"
      },
      "mint(string,string,address,uint256,uint256,address,uint256,uint256)": {
        "notice": "the function to mint a new vault"
      },
      "settings()": {
        "notice": "a settings contract controlled by governance"
      },
      "vaultCount()": {
        "notice": "the number of ERC721 vaults"
      },
      "vaults(uint256)": {
        "notice": "the mapping of vault number to vault contract"
      }
    },
    "version": 1
  }
}