{
  "address": "0x4f3f22EB1Df566A930f365b56d1230AA73aBa0d0",
  "abi": [
    {
      "inputs": [
        {
          "components": [
            {
              "internalType": "address",
              "name": "linkToken",
              "type": "address"
            },
            {
              "internalType": "address",
              "name": "chainlinkNode",
              "type": "address"
            },
            {
              "internalType": "string",
              "name": "jobId",
              "type": "string"
            },
            {
              "internalType": "uint256",
              "name": "nodeFee",
              "type": "uint256"
            }
          ],
          "internalType": "struct APIOracleInfo",
          "name": "_oracleInfo",
          "type": "tuple"
        }
      ],
      "stateMutability": "nonpayable",
      "type": "constructor"
    },
    {
      "anonymous": false,
      "inputs": [
        {
          "indexed": true,
          "internalType": "bytes32",
          "name": "id",
          "type": "bytes32"
        }
      ],
      "name": "ChainlinkCancelled",
      "type": "event"
    },
    {
      "anonymous": false,
      "inputs": [
        {
          "indexed": true,
          "internalType": "bytes32",
          "name": "id",
          "type": "bytes32"
        }
      ],
      "name": "ChainlinkFulfilled",
      "type": "event"
    },
    {
      "anonymous": false,
      "inputs": [
        {
          "indexed": true,
          "internalType": "bytes32",
          "name": "id",
          "type": "bytes32"
        }
      ],
      "name": "ChainlinkRequested",
      "type": "event"
    },
    {
      "anonymous": false,
      "inputs": [
        {
          "indexed": true,
          "internalType": "address",
          "name": "previousOwner",
          "type": "address"
        },
        {
          "indexed": true,
          "internalType": "address",
          "name": "newOwner",
          "type": "address"
        }
      ],
      "name": "OwnershipTransferred",
      "type": "event"
    },
    {
      "anonymous": false,
      "inputs": [
        {
          "indexed": true,
          "internalType": "bytes32",
          "name": "requestId",
          "type": "bytes32"
        },
        {
          "indexed": false,
          "internalType": "address",
          "name": "collection",
          "type": "address"
        },
        {
          "indexed": false,
          "internalType": "uint256",
          "name": "tokenId",
          "type": "uint256"
        },
        {
          "indexed": false,
          "internalType": "address",
          "name": "newOwner",
          "type": "address"
        }
      ],
      "name": "ResponseReceived",
      "type": "event"
    },
    {
      "inputs": [],
      "name": "apiURL",
      "outputs": [
        {
          "internalType": "string",
          "name": "",
          "type": "string"
        }
      ],
      "stateMutability": "view",
      "type": "function"
    },
    {
      "inputs": [],
      "name": "chainlinkNode",
      "outputs": [
        {
          "internalType": "address",
          "name": "",
          "type": "address"
        }
      ],
      "stateMutability": "view",
      "type": "function"
    },
    {
      "inputs": [
        {
          "internalType": "address",
          "name": "_vault",
          "type": "address"
        }
      ],
      "name": "initialize",
      "outputs": [],
      "stateMutability": "nonpayable",
      "type": "function"
    },
    {
      "inputs": [],
      "name": "jobId",
      "outputs": [
        {
          "internalType": "bytes32",
          "name": "",
          "type": "bytes32"
        }
      ],
      "stateMutability": "view",
      "type": "function"
    },
    {
      "inputs": [],
      "name": "linkToken",
      "outputs": [
        {
          "internalType": "address",
          "name": "",
          "type": "address"
        }
      ],
      "stateMutability": "view",
      "type": "function"
    },
    {
      "inputs": [],
      "name": "nodeFee",
      "outputs": [
        {
          "internalType": "uint256",
          "name": "",
          "type": "uint256"
        }
      ],
      "stateMutability": "view",
      "type": "function"
    },
    {
      "inputs": [],
      "name": "owner",
      "outputs": [
        {
          "internalType": "address",
          "name": "",
          "type": "address"
        }
      ],
      "stateMutability": "view",
      "type": "function"
    },
    {
      "inputs": [
        {
          "internalType": "bytes32",
          "name": "requestId",
          "type": "bytes32"
        },
        {
          "internalType": "uint256",
          "name": "newOwner_",
          "type": "uint256"
        }
      ],
      "name": "processResponse",
      "outputs": [],
      "stateMutability": "nonpayable",
      "type": "function"
    },
    {
      "inputs": [],
      "name": "renounceOwnership",
      "outputs": [],
      "stateMutability": "nonpayable",
      "type": "function"
    },
    {
      "inputs": [],
      "name": "token",
      "outputs": [
        {
          "internalType": "string",
          "name": "",
          "type": "string"
        }
      ],
      "stateMutability": "view",
      "type": "function"
    },
    {
      "inputs": [
        {
          "internalType": "address",
          "name": "newOwner",
          "type": "address"
        }
      ],
      "name": "transferOwnership",
      "outputs": [],
      "stateMutability": "nonpayable",
      "type": "function"
    },
    {
      "inputs": [
        {
          "internalType": "address",
          "name": "collection",
          "type": "address"
        },
        {
          "internalType": "uint256",
          "name": "tokenId",
          "type": "uint256"
        },
        {
          "internalType": "uint256",
          "name": "nonce",
          "type": "uint256"
        }
      ],
      "name": "verifyTokenIsWithdrawable",
      "outputs": [
        {
          "internalType": "bytes32",
          "name": "requestId",
          "type": "bytes32"
        }
      ],
      "stateMutability": "nonpayable",
      "type": "function"
    }
  ],
  "transactionHash": "0x094c92ed721f4943cb588482291f41c986820bb4837c4e4a926face7e4ff7c6b",
  "args": [
    {
      "chainlinkNode": "0xfF07C97631Ff3bAb5e5e5660Cdf47AdEd8D4d4Fd",
      "linkToken": "0x01be23585060835e02b77ef475b0cc51aa1e0709",
      "jobId": "2075d7d470ef47d68612abfa3f1a5bd9",
      "nodeFee": "100000000000000000"
    }
  ],
  "solcInputHash": "dbc990dbd439091e43e17a94da519917",
  "bytecode": "0x608060405260016004553480156200001657600080fd5b50604051620019513803806200195183398101604081905262000039916200025a565b620000443362000127565b8051600c80546001600160a01b039283166001600160a01b0319918216179091556020830151600980549190931691161790556040810151620000879062000179565b600a5560608101516103e890620000a890670de0b6b3a764000090620003f1565b620000b49190620003d0565b600b556040805180820190915260168082527f53484f554c44204245204445504c4f59454420594554000000000000000000006020909201918252620000fd9160089162000197565b50600c54600280546001600160a01b0319166001600160a01b039092169190911790555062000470565b600680546001600160a01b038381166001600160a01b0319831681179093556040519116919082907f8be0079c531659141344cd1fd0a4f28419497f9722a3daafe3b4186f6b6457e090600090a35050565b805160009082906200018e5750600092915050565b50506020015190565b828054620001a5906200041d565b90600052602060002090601f016020900481019282620001c9576000855562000214565b82601f10620001e457805160ff191683800117855562000214565b8280016001018555821562000214579182015b8281111562000214578251825591602001919060010190620001f7565b506200022292915062000226565b5090565b5b8082111562000222576000815560010162000227565b80516001600160a01b03811681146200025557600080fd5b919050565b600060208083850312156200026d578182fd5b82516001600160401b038082111562000284578384fd5b908401906080828703121562000298578384fd5b620002a262000372565b620002ad836200023d565b8152620002bc8484016200023d565b84820152604083015182811115620002d2578586fd5b8301601f81018813620002e3578586fd5b805183811115620002f857620002f86200045a565b6200030c601f8201601f191687016200039d565b9350808452888682840101111562000322578687fd5b865b818110156200034157828101870151858201880152860162000324565b818111156200035257878783870101525b505050816040820152606083015160608201528094505050505092915050565b604051608081016001600160401b03811182821017156200039757620003976200045a565b60405290565b604051601f8201601f191681016001600160401b0381118282101715620003c857620003c86200045a565b604052919050565b600082620003ec57634e487b7160e01b81526012600452602481fd5b500490565b60008160001904831182151516156200041857634e487b7160e01b81526011600452602481fd5b500290565b600181811c908216806200043257607f821691505b602082108114156200045457634e487b7160e01b600052602260045260246000fd5b50919050565b634e487b7160e01b600052604160045260246000fd5b6114d180620004806000396000f3fe608060405234801561001057600080fd5b50600436106100b45760003560e01c8063c2939d9711610071578063c2939d971461014d578063c4d66de814610156578063f07029b914610169578063f2fde38b1461017c578063f41625301461018f578063fc0c546a1461019857600080fd5b80630c85284b146100b95780633296f997146100df57806357970e93146100f4578063715018a61461011f5780638da5cb5b14610127578063bce66e0a14610138575b600080fd5b6100cc6100c7366004610fc6565b6101a0565b6040519081526020015b60405180910390f35b6100f26100ed366004611018565b6102d3565b005b600c54610107906001600160a01b031681565b6040516001600160a01b0390911681526020016100d6565b6100f26104af565b6006546001600160a01b0316610107565b6101406104e5565b6040516100d69190611225565b6100cc600a5481565b6100f2610164366004610fac565b610573565b600954610107906001600160a01b031681565b6100f261018a366004610fac565b610687565b6100cc600b5481565b610140610722565b6000806101b7600a5430633296f99760e01b61072f565b9050610215816040518060400160405280600381526020016219d95d60ea1b8152506008886101e589610754565b6101ee89610754565b6040516020016102019493929190611081565b604051602081830303815290604052610899565b61026381604051806040016040528060048152602001630e0c2e8d60e31b8152506040518060400160405280600f81526020016e776974686472617761626c655f627960881b815250610899565b600954600b5461027e916001600160a01b03169083906108bc565b6040805180820182526001600160a01b03978816815260208082019788526000848152600e90915291909120905181546001600160a01b03191697169690961786559351600190950194909455509092915050565b60008281526005602052604090205482906001600160a01b031633146103515760405162461bcd60e51b815260206004820152602860248201527f536f75726365206d75737420626520746865206f7261636c65206f6620746865604482015267081c995c5d595cdd60c21b60648201526084015b60405180910390fd5b60008181526005602052604080822080546001600160a01b03191690555182917f7cc135e0cebb02c3480ae5d74d377283180a2601f8f644edf7987b009316c63a91a26000838152600e6020908152604091829020825180840190935280546001600160a01b03908116845260019091015491830191909152839081161561044957600d548251602084015160405163780aa4c760e11b81526001600160a01b0392831660048201526024810191909152838216604482015291169063f015498e90606401600060405180830381600087803b15801561043057600080fd5b505af1158015610444573d6000803e3d6000fd5b505050505b8151602083015160405187927f7a454d9894af8fe3ff63fd770774db2cf5e4d6de25dcf3555f96613a89665ac0926104a09286906001600160a01b0393841681526020810192909252909116604082015260600190565b60405180910390a25050505050565b6006546001600160a01b031633146104d95760405162461bcd60e51b815260040161034890611238565b6104e360006108db565b565b600880546104f29061140b565b80601f016020809104026020016040519081016040528092919081815260200182805461051e9061140b565b801561056b5780601f106105405761010080835404028352916020019161056b565b820191906000526020600020905b81548152906001019060200180831161054e57829003601f168201915b505050505081565b600654600160a81b900460ff16806105955750600654600160a01b900460ff16155b6105f85760405162461bcd60e51b815260206004820152602e60248201527f496e697469616c697a61626c653a20636f6e747261637420697320616c72656160448201526d191e481a5b9a5d1a585b1a5e995960921b6064820152608401610348565b600654600160a81b900460ff16158015610622576006805461ffff60a01b191661010160a01b1790555b6006546001600160a01b0316331461064c5760405162461bcd60e51b815260040161034890611238565b600d80546001600160a01b0319166001600160a01b03841617905561066f6104af565b8015610683576006805460ff60a81b191690555b5050565b6006546001600160a01b031633146106b15760405162461bcd60e51b815260040161034890611238565b6001600160a01b0381166107165760405162461bcd60e51b815260206004820152602660248201527f4f776e61626c653a206e6577206f776e657220697320746865207a65726f206160448201526564647265737360d01b6064820152608401610348565b61071f816108db565b50565b600780546104f29061140b565b610737610f55565b61073f610f55565b61074b8186868661092d565b95945050505050565b6060816107785750506040805180820190915260018152600360fc1b602082015290565b8160005b81156107a2578061078c81611440565b915061079b9050600a836112aa565b915061077c565b60008167ffffffffffffffff8111156107cb57634e487b7160e01b600052604160045260246000fd5b6040519080825280601f01601f1916602001820160405280156107f5576020820181803683370190505b509050815b85156108905761080b6001826113c8565b9050600061081a600a886112aa565b61082590600a6113a9565b61082f90886113c8565b61083a906030611285565b905060008160f81b90508084848151811061086557634e487b7160e01b600052603260045260246000fd5b60200101906001600160f81b031916908160001a905350610887600a896112aa565b975050506107fa565b50949350505050565b60808301516108a8908361096a565b60808301516108b7908261096a565b505050565b60006108d384848460016320214ca360e11b610981565b949350505050565b600680546001600160a01b038381166001600160a01b0319831681179093556040519116919082907f8be0079c531659141344cd1fd0a4f28419497f9722a3daafe3b4186f6b6457e090600090a35050565b610935610f55565b6109458560800151610100610b8d565b50509183526001600160a01b031660208301526001600160e01b031916604082015290565b6109778260038351610bf8565b6108b78282610ccc565b6004546040516bffffffffffffffffffffffff193060601b166020820152603481019190915260009060540160408051808303601f19018152918152815160209283012060045460608901526000818152600590935281832080546001600160a01b0319166001600160a01b038b16179055905190925082917fb5e6e01e79f91267dc17b4e6314d5d4d03593d2ceee0fbb452b750bd70ea5af991a2600082600080886000015189602001518a604001518b606001518a8d6080015160000151604051602401610a58989796959493929190611196565b60408051601f198184030181529181526020820180516001600160e01b03166001600160e01b0319909416939093179092526002549151630200057560e51b81529092506001600160a01b0390911690634000aea090610ac0908a90899086906004016111fe565b602060405180830381600087803b158015610ada57600080fd5b505af1158015610aee573d6000803e3d6000fd5b505050506040513d601f19601f82011682018060405250810190610b129190610ff8565b610b6a5760405162461bcd60e51b815260206004820152602360248201527f756e61626c6520746f207472616e73666572416e6443616c6c20746f206f7261604482015262636c6560e81b6064820152608401610348565b600160046000828254610b7d919061126d565b9091555091979650505050505050565b604080518082019091526060815260006020820152610bad60208361145b565b15610bd557610bbd60208361145b565b610bc89060206113c8565b610bd2908361126d565b91505b506020808301829052604080518085526000815283019091019052815b92915050565b60178111610c1957610c138360e0600585901b168317610cfa565b50505050565b60ff8111610c4357610c36836018611fe0600586901b1617610cfa565b50610c1383826001610d1f565b61ffff8111610c6e57610c61836019611fe0600586901b1617610cfa565b50610c1383826002610d1f565b63ffffffff8111610c9b57610c8e83601a611fe0600586901b1617610cfa565b50610c1383826004610d1f565b67ffffffffffffffff81116108b757610cbf83601b611fe0600586901b1617610cfa565b50610c1383826008610d1f565b604080518082019091526060815260006020820152610cf383846000015151848551610d45565b9392505050565b604080518082019091526060815260006020820152610cf38384600001515184610e4a565b6040805180820190915260608152600060208201526108d3848560000151518585610ea6565b6040805180820190915260608152600060208201528251821115610d6857600080fd5b6020850151610d77838661126d565b1115610daa57610daa85610d9a87602001518786610d95919061126d565b610f27565b610da59060026113a9565b610f3e565b600080865180518760208301019350808887011115610dc95787860182525b505050602084015b60208410610e095780518252610de860208361126d565b9150610df560208261126d565b9050610e026020856113c8565b9350610dd1565b60006001610e188660206113c8565b610e2490610100611301565b610e2e91906113c8565b9151835183169219169190911790915250849050949350505050565b60408051808201909152606081526000602082015283602001518310610e7f57610e7f8485602001516002610da591906113a9565b835180516020858301018481535080851415610e9c576001810182525b5093949350505050565b6040805180820190915260608152600060208201526020850151610eca858461126d565b1115610ede57610ede85610d9a868561126d565b60006001610eee84610100611301565b610ef891906113c8565b9050855183868201018583198251161781525080518487011115610f1c5783860181525b509495945050505050565b600081831115610f38575081610bf2565b50919050565b8151610f4a8383610b8d565b50610c138382610ccc565b6040805160a0810182526000808252602080830182905282840182905260608084018390528451808601909552845283015290608082015290565b80356001600160a01b0381168114610fa757600080fd5b919050565b600060208284031215610fbd578081fd5b610cf382610f90565b600080600060608486031215610fda578182fd5b610fe384610f90565b95602085013595506040909401359392505050565b600060208284031215611009578081fd5b81518015158114610cf3578182fd5b6000806040838503121561102a578182fd5b50508035926020909101359150565b600081518084526110518160208601602086016113df565b601f01601f19169290920160200192915050565b600081516110778185602086016113df565b9290920192915050565b600080865482600182811c91508083168061109d57607f831692505b60208084108214156110bd57634e487b7160e01b87526022600452602487fd5b8180156110d157600181146110e25761110e565b60ff1986168952848901965061110e565b60008d815260209020885b868110156111065781548b8201529085019083016110ed565b505084890196505b505050505050611130816b3f636f6c6c656374696f6e3d60a01b8152600c0190565b905061114d818760601b6bffffffffffffffffffffffff19169052565b6826746f6b656e49643d60b81b601482015261118b611185611172601d840188611065565b66266e6f6e63653d60c81b815260070190565b85611065565b979650505050505050565b6001600160a01b0389811682526020820189905260408201889052861660608201526001600160e01b03198516608082015260a0810184905260c0810183905261010060e082018190526000906111ef83820185611039565b9b9a5050505050505050505050565b60018060a01b038416815282602082015260606040820152600061074b6060830184611039565b602081526000610cf36020830184611039565b6020808252818101527f4f776e61626c653a2063616c6c6572206973206e6f7420746865206f776e6572604082015260600190565b600082198211156112805761128061146f565b500190565b600060ff821660ff84168060ff038211156112a2576112a261146f565b019392505050565b6000826112b9576112b9611485565b500490565b600181815b808511156112f95781600019048211156112df576112df61146f565b808516156112ec57918102915b93841c93908002906112c3565b509250929050565b6000610cf3838360008261131757506001610bf2565b8161132457506000610bf2565b816001811461133a576002811461134457611360565b6001915050610bf2565b60ff8411156113555761135561146f565b50506001821b610bf2565b5060208310610133831016604e8410600b8410161715611383575081810a610bf2565b61138d83836112be565b80600019048211156113a1576113a161146f565b029392505050565b60008160001904831182151516156113c3576113c361146f565b500290565b6000828210156113da576113da61146f565b500390565b60005b838110156113fa5781810151838201526020016113e2565b83811115610c135750506000910152565b600181811c9082168061141f57607f821691505b60208210811415610f3857634e487b7160e01b600052602260045260246000fd5b60006000198214156114545761145461146f565b5060010190565b60008261146a5761146a611485565b500690565b634e487b7160e01b600052601160045260246000fd5b634e487b7160e01b600052601260045260246000fdfea26469706673582212202746efddce7c5256915a545a5d61638e4ecf7eaacca89433398c59c4a337533a64736f6c63430008040033",
  "devdoc": {
    "kind": "dev",
    "methods": {
      "initialize(address)": {
        "details": "only owner can initialize, and the ownership is removed after that"
      },
      "owner()": {
        "details": "Returns the address of the current owner."
      },
      "processResponse(bytes32,uint256)": {
        "details": "function to process the oracle response (only callable from oracle)",
        "params": {
          "newOwner_": "the address who can retrieve the nft (if 0 assumes is not withdrawable)",
          "requestId": "the id of the request to the Chainlink oracle"
        }
      },
      "renounceOwnership()": {
        "details": "Leaves the contract without owner. It will not be possible to call `onlyOwner` functions anymore. Can only be called by the current owner. NOTE: Renouncing ownership will leave the contract without an owner, thereby removing any functionality that is only available to the owner."
      },
      "transferOwnership(address)": {
        "details": "Transfers ownership of the contract to a new account (`newOwner`). Can only be called by the current owner."
      },
      "verifyTokenIsWithdrawable(address,uint256,uint256)": {
        "details": "call to verify if a token is withdrawble in the synthetic collection, this method can be called only from the nft vault contract",
        "params": {
          "collection": "the collection address",
          "nonce": "the nonce",
          "tokenId": "the id of the nft in the collection"
        },
        "returns": {
          "requestId": "the id of the request to the Chainlink oracle"
        }
      }
    },
    "stateVariables": {
      "token": {
        "details": "oracle configuration parameters"
      }
    },
    "version": 1
  },
  "userdoc": {
    "kind": "user",
    "methods": {},
    "version": 1
  },
  "storageLayout": {
    "storage": [
      {
        "astId": 318,
        "contract": "contracts/ethereum/chainlink/ETHValidatorOracle.sol:ETHValidatorOracle",
        "label": "ens",
        "offset": 0,
        "slot": "0",
        "type": "t_contract(ENSInterface)1083"
      },
      {
        "astId": 320,
        "contract": "contracts/ethereum/chainlink/ETHValidatorOracle.sol:ETHValidatorOracle",
        "label": "ensNode",
        "offset": 0,
        "slot": "1",
        "type": "t_bytes32"
      },
      {
        "astId": 323,
        "contract": "contracts/ethereum/chainlink/ETHValidatorOracle.sol:ETHValidatorOracle",
        "label": "link",
        "offset": 0,
        "slot": "2",
        "type": "t_contract(LinkTokenInterface)1178"
      },
      {
        "astId": 326,
        "contract": "contracts/ethereum/chainlink/ETHValidatorOracle.sol:ETHValidatorOracle",
        "label": "oracle",
        "offset": 0,
        "slot": "3",
        "type": "t_contract(OperatorInterface)1260"
      },
      {
        "astId": 329,
        "contract": "contracts/ethereum/chainlink/ETHValidatorOracle.sol:ETHValidatorOracle",
        "label": "requestCount",
        "offset": 0,
        "slot": "4",
        "type": "t_uint256"
      },
      {
        "astId": 333,
        "contract": "contracts/ethereum/chainlink/ETHValidatorOracle.sol:ETHValidatorOracle",
        "label": "pendingRequests",
        "offset": 0,
        "slot": "5",
        "type": "t_mapping(t_bytes32,t_address)"
      },
      {
        "astId": 2647,
        "contract": "contracts/ethereum/chainlink/ETHValidatorOracle.sol:ETHValidatorOracle",
        "label": "_owner",
        "offset": 0,
        "slot": "6",
        "type": "t_address"
      },
      {
        "astId": 5456,
        "contract": "contracts/ethereum/chainlink/ETHValidatorOracle.sol:ETHValidatorOracle",
        "label": "_initialized",
        "offset": 20,
        "slot": "6",
        "type": "t_bool"
      },
      {
        "astId": 5459,
        "contract": "contracts/ethereum/chainlink/ETHValidatorOracle.sol:ETHValidatorOracle",
        "label": "_initializing",
        "offset": 21,
        "slot": "6",
        "type": "t_bool"
      },
      {
        "astId": 10373,
        "contract": "contracts/ethereum/chainlink/ETHValidatorOracle.sol:ETHValidatorOracle",
        "label": "token",
        "offset": 0,
        "slot": "7",
        "type": "t_string_storage"
      },
      {
        "astId": 10375,
        "contract": "contracts/ethereum/chainlink/ETHValidatorOracle.sol:ETHValidatorOracle",
        "label": "apiURL",
        "offset": 0,
        "slot": "8",
        "type": "t_string_storage"
      },
      {
        "astId": 10377,
        "contract": "contracts/ethereum/chainlink/ETHValidatorOracle.sol:ETHValidatorOracle",
        "label": "chainlinkNode",
        "offset": 0,
        "slot": "9",
        "type": "t_address"
      },
      {
        "astId": 10379,
        "contract": "contracts/ethereum/chainlink/ETHValidatorOracle.sol:ETHValidatorOracle",
        "label": "jobId",
        "offset": 0,
        "slot": "10",
        "type": "t_bytes32"
      },
      {
        "astId": 10381,
        "contract": "contracts/ethereum/chainlink/ETHValidatorOracle.sol:ETHValidatorOracle",
        "label": "nodeFee",
        "offset": 0,
        "slot": "11",
        "type": "t_uint256"
      },
      {
        "astId": 10383,
        "contract": "contracts/ethereum/chainlink/ETHValidatorOracle.sol:ETHValidatorOracle",
        "label": "linkToken",
        "offset": 0,
        "slot": "12",
        "type": "t_address"
      },
      {
        "astId": 10385,
        "contract": "contracts/ethereum/chainlink/ETHValidatorOracle.sol:ETHValidatorOracle",
        "label": "_vaultManagerAddress",
        "offset": 0,
        "slot": "13",
        "type": "t_address"
      },
      {
        "astId": 10390,
        "contract": "contracts/ethereum/chainlink/ETHValidatorOracle.sol:ETHValidatorOracle",
        "label": "_verifyRequests",
        "offset": 0,
        "slot": "14",
        "type": "t_mapping(t_bytes32,t_struct(VerifyRequest)10731_storage)"
      }
    ],
    "types": {
      "t_address": {
        "encoding": "inplace",
        "label": "address",
        "numberOfBytes": "20"
      },
      "t_bool": {
        "encoding": "inplace",
        "label": "bool",
        "numberOfBytes": "1"
      },
      "t_bytes32": {
        "encoding": "inplace",
        "label": "bytes32",
        "numberOfBytes": "32"
      },
      "t_contract(ENSInterface)1083": {
        "encoding": "inplace",
        "label": "contract ENSInterface",
        "numberOfBytes": "20"
      },
      "t_contract(LinkTokenInterface)1178": {
        "encoding": "inplace",
        "label": "contract LinkTokenInterface",
        "numberOfBytes": "20"
      },
      "t_contract(OperatorInterface)1260": {
        "encoding": "inplace",
        "label": "contract OperatorInterface",
        "numberOfBytes": "20"
      },
      "t_mapping(t_bytes32,t_address)": {
        "encoding": "mapping",
        "key": "t_bytes32",
        "label": "mapping(bytes32 => address)",
        "numberOfBytes": "32",
        "value": "t_address"
      },
      "t_mapping(t_bytes32,t_struct(VerifyRequest)10731_storage)": {
        "encoding": "mapping",
        "key": "t_bytes32",
        "label": "mapping(bytes32 => struct VerifyRequest)",
        "numberOfBytes": "32",
        "value": "t_struct(VerifyRequest)10731_storage"
      },
      "t_string_storage": {
        "encoding": "bytes",
        "label": "string",
        "numberOfBytes": "32"
      },
      "t_struct(VerifyRequest)10731_storage": {
        "encoding": "inplace",
        "label": "struct VerifyRequest",
        "members": [
          {
            "astId": 10728,
            "contract": "contracts/ethereum/chainlink/ETHValidatorOracle.sol:ETHValidatorOracle",
            "label": "collection",
            "offset": 0,
            "slot": "0",
            "type": "t_address"
          },
          {
            "astId": 10730,
            "contract": "contracts/ethereum/chainlink/ETHValidatorOracle.sol:ETHValidatorOracle",
            "label": "tokenId",
            "offset": 0,
            "slot": "1",
            "type": "t_uint256"
          }
        ],
        "numberOfBytes": "64"
      },
      "t_uint256": {
        "encoding": "inplace",
        "label": "uint256",
        "numberOfBytes": "32"
      }
    }
  }
}