{
  "address": "0x2Ade07b02EC780665aD88Fa1F539692B908ebb8b",
  "abi": [
    {
      "inputs": [
        {
          "components": [
            {
              "internalType": "address",
              "name": "linkToken",
              "type": "address"
            },
            {
              "internalType": "address",
              "name": "chainlinkNode",
              "type": "address"
            },
            {
              "internalType": "string",
              "name": "jobId",
              "type": "string"
            },
            {
              "internalType": "string",
              "name": "booleanJobId",
              "type": "string"
            },
            {
              "internalType": "uint256",
              "name": "nodeFee",
              "type": "uint256"
            }
          ],
          "internalType": "struct APIOracleInfo",
          "name": "_oracleInfo",
          "type": "tuple"
        }
      ],
      "stateMutability": "nonpayable",
      "type": "constructor"
    },
    {
      "anonymous": false,
      "inputs": [
        {
          "indexed": true,
          "internalType": "bytes32",
          "name": "id",
          "type": "bytes32"
        }
      ],
      "name": "ChainlinkCancelled",
      "type": "event"
    },
    {
      "anonymous": false,
      "inputs": [
        {
          "indexed": true,
          "internalType": "bytes32",
          "name": "id",
          "type": "bytes32"
        }
      ],
      "name": "ChainlinkFulfilled",
      "type": "event"
    },
    {
      "anonymous": false,
      "inputs": [
        {
          "indexed": true,
          "internalType": "bytes32",
          "name": "id",
          "type": "bytes32"
        }
      ],
      "name": "ChainlinkRequested",
      "type": "event"
    },
    {
      "anonymous": false,
      "inputs": [
        {
          "indexed": true,
          "internalType": "bytes32",
          "name": "requestId",
          "type": "bytes32"
        },
        {
          "indexed": false,
          "internalType": "address",
          "name": "collection",
          "type": "address"
        },
        {
          "indexed": false,
          "internalType": "uint256",
          "name": "tokenFrom",
          "type": "uint256"
        },
        {
          "indexed": false,
          "internalType": "uint256",
          "name": "tokenTo",
          "type": "uint256"
        },
        {
          "indexed": false,
          "internalType": "bool",
          "name": "response",
          "type": "bool"
        }
      ],
      "name": "ChangeResponseReceived",
      "type": "event"
    },
    {
      "anonymous": false,
      "inputs": [
        {
          "indexed": true,
          "internalType": "address",
          "name": "previousOwner",
          "type": "address"
        },
        {
          "indexed": true,
          "internalType": "address",
          "name": "newOwner",
          "type": "address"
        }
      ],
      "name": "OwnershipTransferred",
      "type": "event"
    },
    {
      "anonymous": false,
      "inputs": [
        {
          "indexed": true,
          "internalType": "bytes32",
          "name": "requestId",
          "type": "bytes32"
        },
        {
          "indexed": false,
          "internalType": "address",
          "name": "collection",
          "type": "address"
        },
        {
          "indexed": false,
          "internalType": "uint256",
          "name": "tokenId",
          "type": "uint256"
        },
        {
          "indexed": false,
          "internalType": "address",
          "name": "newOwner",
          "type": "address"
        }
      ],
      "name": "ResponseReceived",
      "type": "event"
    },
    {
      "inputs": [],
      "name": "apiURL",
      "outputs": [
        {
          "internalType": "string",
          "name": "",
          "type": "string"
        }
      ],
      "stateMutability": "view",
      "type": "function"
    },
    {
      "inputs": [],
      "name": "apiURLForChanges",
      "outputs": [
        {
          "internalType": "string",
          "name": "",
          "type": "string"
        }
      ],
      "stateMutability": "view",
      "type": "function"
    },
    {
      "inputs": [],
      "name": "booleanJobId",
      "outputs": [
        {
          "internalType": "bytes32",
          "name": "",
          "type": "bytes32"
        }
      ],
      "stateMutability": "view",
      "type": "function"
    },
    {
      "inputs": [],
      "name": "chainlinkNode",
      "outputs": [
        {
          "internalType": "address",
          "name": "",
          "type": "address"
        }
      ],
      "stateMutability": "view",
      "type": "function"
    },
    {
      "inputs": [
        {
          "internalType": "address",
          "name": "_vault",
          "type": "address"
        }
      ],
      "name": "initialize",
      "outputs": [],
      "stateMutability": "nonpayable",
      "type": "function"
    },
    {
      "inputs": [],
      "name": "jobId",
      "outputs": [
        {
          "internalType": "bytes32",
          "name": "",
          "type": "bytes32"
        }
      ],
      "stateMutability": "view",
      "type": "function"
    },
    {
      "inputs": [],
      "name": "linkToken",
      "outputs": [
        {
          "internalType": "address",
          "name": "",
          "type": "address"
        }
      ],
      "stateMutability": "view",
      "type": "function"
    },
    {
      "inputs": [],
      "name": "nodeFee",
      "outputs": [
        {
          "internalType": "uint256",
          "name": "",
          "type": "uint256"
        }
      ],
      "stateMutability": "view",
      "type": "function"
    },
    {
      "inputs": [],
      "name": "owner",
      "outputs": [
        {
          "internalType": "address",
          "name": "",
          "type": "address"
        }
      ],
      "stateMutability": "view",
      "type": "function"
    },
    {
      "inputs": [
        {
          "internalType": "bytes32",
          "name": "requestId",
          "type": "bytes32"
        },
        {
          "internalType": "uint256",
          "name": "newOwner_",
          "type": "uint256"
        }
      ],
      "name": "processResponse",
      "outputs": [],
      "stateMutability": "nonpayable",
      "type": "function"
    },
    {
      "inputs": [
        {
          "internalType": "bytes32",
          "name": "requestId",
          "type": "bytes32"
        },
        {
          "internalType": "bool",
          "name": "changeable",
          "type": "bool"
        }
      ],
      "name": "processResponseForChange",
      "outputs": [],
      "stateMutability": "nonpayable",
      "type": "function"
    },
    {
      "inputs": [],
      "name": "renounceOwnership",
      "outputs": [],
      "stateMutability": "nonpayable",
      "type": "function"
    },
    {
      "inputs": [],
      "name": "token",
      "outputs": [
        {
          "internalType": "string",
          "name": "",
          "type": "string"
        }
      ],
      "stateMutability": "view",
      "type": "function"
    },
    {
      "inputs": [
        {
          "internalType": "address",
          "name": "newOwner",
          "type": "address"
        }
      ],
      "name": "transferOwnership",
      "outputs": [],
      "stateMutability": "nonpayable",
      "type": "function"
    },
    {
      "inputs": [
        {
          "internalType": "address",
          "name": "collection",
          "type": "address"
        },
        {
          "internalType": "uint256",
          "name": "tokenFrom",
          "type": "uint256"
        },
        {
          "internalType": "uint256",
          "name": "tokenTo",
          "type": "uint256"
        },
        {
          "internalType": "address",
          "name": "caller",
          "type": "address"
        },
        {
          "internalType": "uint256",
          "name": "nonce",
          "type": "uint256"
        }
      ],
      "name": "verifyTokenIsChangeable",
      "outputs": [
        {
          "internalType": "bytes32",
          "name": "requestId",
          "type": "bytes32"
        }
      ],
      "stateMutability": "nonpayable",
      "type": "function"
    },
    {
      "inputs": [
        {
          "internalType": "address",
          "name": "collection",
          "type": "address"
        },
        {
          "internalType": "uint256",
          "name": "tokenId",
          "type": "uint256"
        },
        {
          "internalType": "uint256",
          "name": "nonce",
          "type": "uint256"
        }
      ],
      "name": "verifyTokenIsWithdrawable",
      "outputs": [
        {
          "internalType": "bytes32",
          "name": "requestId",
          "type": "bytes32"
        }
      ],
      "stateMutability": "nonpayable",
      "type": "function"
    }
  ],
  "transactionHash": "0x48d5f2f7556abdf05eb7d205e7cb357001a0de5c1b5ece1e17088b4e803ffda0",
  "args": [
    {
      "chainlinkNode": "0xfF07C97631Ff3bAb5e5e5660Cdf47AdEd8D4d4Fd",
      "linkToken": "0x01be23585060835e02b77ef475b0cc51aa1e0709",
      "jobId": "2075d7d470ef47d68612abfa3f1a5bd9",
      "booleanJobId": "ba4aeaf24afe4294a5e73c8f292d4114",
      "nodeFee": "100000000000000000"
    }
  ],
  "solcInputHash": "0e8299978f43dd1c678fda543157965a",
  "bytecode": "0x61010060405260016004553480156200001757600080fd5b506040516200226a3803806200226a8339810160408190526200003a91620002f7565b620000453362000133565b8051600a80546001600160a01b0319166001600160a01b03909216919091179055602081015160601b6001600160601b03191660805260408101516200008b9062000185565b60a05260608101516200009e9062000185565b60c052608081015160e0526040805160608101909152603d8082526200222d60208301398051620000d891600891602090910190620001a3565b506040518060600160405280603b8152602001620021f2603b913980516200010991600991602090910190620001a3565b50600a54600280546001600160a01b0319166001600160a01b039092169190911790555062000471565b600680546001600160a01b038381166001600160a01b0319831681179093556040519116919082907f8be0079c531659141344cd1fd0a4f28419497f9722a3daafe3b4186f6b6457e090600090a35050565b805160009082906200019a5750600092915050565b50506020015190565b828054620001b1906200041e565b90600052602060002090601f016020900481019282620001d5576000855562000220565b82601f10620001f057805160ff191683800117855562000220565b8280016001018555821562000220579182015b828111156200022057825182559160200191906001019062000203565b506200022e92915062000232565b5090565b5b808211156200022e576000815560010162000233565b80516001600160a01b03811681146200026157600080fd5b919050565b600082601f83011262000277578081fd5b81516001600160401b038111156200029357620002936200045b565b6020620002a9601f8301601f19168201620003eb565b8281528582848701011115620002bd578384fd5b835b83811015620002dc578581018301518282018401528201620002bf565b83811115620002ed57848385840101525b5095945050505050565b60006020828403121562000309578081fd5b81516001600160401b038082111562000320578283fd5b9083019060a0828603121562000334578283fd5b6200033e620003c0565b620003498362000249565b8152620003596020840162000249565b602082015260408301518281111562000370578485fd5b6200037e8782860162000266565b60408301525060608301518281111562000396578485fd5b620003a48782860162000266565b6060830152506080830151608082015280935050505092915050565b60405160a081016001600160401b0381118282101715620003e557620003e56200045b565b60405290565b604051601f8201601f191681016001600160401b03811182821017156200041657620004166200045b565b604052919050565b600181811c908216806200043357607f821691505b602082108114156200045557634e487b7160e01b600052602260045260246000fd5b50919050565b634e487b7160e01b600052604160045260246000fd5b60805160601c60a05160c05160e051611d1a620004d8600039600081816102660152818161056601526106fe01526000818161022c01526105e70152600081816101c301526104550152600081816102050152818161054401526106dc0152611d1a6000f3fe608060405234801561001057600080fd5b50600436106100ff5760003560e01c8063c2939d9711610097578063f1a591d711610066578063f1a591d714610227578063f2fde38b1461024e578063f416253014610261578063fc0c546a1461028857600080fd5b8063c2939d97146101be578063c4d66de8146101e5578063cfef5572146101f8578063f07029b91461020057600080fd5b806357970e93116100d357806357970e9314610165578063715018a6146101905780638da5cb5b14610198578063bce66e0a146101a957600080fd5b8062ffff3a146101045780630c85284b146101195780630ffb29ed1461013f5780633296f99714610152575b600080fd5b610117610112366004611675565b610290565b005b61012c6101273660046115da565b61044d565b6040519081526020015b60405180910390f35b61012c61014d36600461160c565b6105df565b6101176101603660046116a4565b6107a2565b600a54610178906001600160a01b031681565b6040516001600160a01b039091168152602001610136565b610117610938565b6006546001600160a01b0316610178565b6101b161096e565b60405161013691906119b0565b61012c7f000000000000000000000000000000000000000000000000000000000000000081565b6101176101f33660046115c0565b6109fc565b6101b1610b10565b6101787f000000000000000000000000000000000000000000000000000000000000000081565b61012c7f000000000000000000000000000000000000000000000000000000000000000081565b61011761025c3660046115c0565b610b1d565b61012c7f000000000000000000000000000000000000000000000000000000000000000081565b6101b1610bb8565b60008281526005602052604090205482906001600160a01b031633146102d15760405162461bcd60e51b81526004016102c8906119f8565b60405180910390fd5b60008181526005602052604080822080546001600160a01b03191690555182917f7cc135e0cebb02c3480ae5d74d377283180a2601f8f644edf7987b009316c63a91a26000838152600d6020908152604091829020825160808101845281546001600160a01b0390811682526001830154938201939093526002820154938101939093526003015416606082015282156103e957600b5481516020830151604080850151606086015191516334abfdc560e11b81526001600160a01b0394851660048201526024810193909352604483015282166064820152911690636957fb8a90608401600060405180830381600087803b1580156103d057600080fd5b505af11580156103e4573d6000803e3d6000fd5b505050505b805160208083015160408085015181516001600160a01b03909516855292840191909152820152831515606082015284907f9cc08b652558ad0d32a05868cb6dc740e61e5c99ea201addb9ec107dfbc036aa9060800160405180910390a250505050565b6000806104827f000000000000000000000000000000000000000000000000000000000000000030633296f99760e01b610bc5565b90506104f1816040518060400160405280600381526020016219d95d60ea1b81525060086104b8896001600160a01b0316610bea565b6104c189610d4d565b6104ca89610d4d565b6040516020016104dd94939291906117a5565b604051602081830303815290604052610e92565b61053f81604051806040016040528060048152602001630e0c2e8d60e31b8152506040518060400160405280600f81526020016e776974686472617761626c655f627960881b815250610e92565b61058a7f0000000000000000000000000000000000000000000000000000000000000000827f0000000000000000000000000000000000000000000000000000000000000000610eb5565b6040805180820182526001600160a01b03978816815260208082019788526000848152600c90915291909120905181546001600160a01b03191697169690961786559351600190950194909455509092915050565b6000806106137f000000000000000000000000000000000000000000000000000000000000000030627fff9d60e11b610bc5565b905061068b816040518060400160405280600381526020016219d95d60ea1b81525060096106498b6001600160a01b0316610bea565b6106528b610d4d565b61065b8b610d4d565b61066d8b6001600160a01b0316610bea565b6106768b610d4d565b6040516020016104dd96959493929190611838565b6106d781604051806040016040528060048152602001630e0c2e8d60e31b8152506040518060400160405280600d81526020016c69735f6368616e676561626c6560981b815250610e92565b6107227f0000000000000000000000000000000000000000000000000000000000000000827f0000000000000000000000000000000000000000000000000000000000000000610eb5565b604080516080810182526001600160a01b03998a1681526020808201998a52818301988952968a16606082019081526000848152600d9098529190962095518654908a166001600160a01b031991821617875597516001870155955160028601559451600390940180549490971693909516929092179094555092915050565b60008281526005602052604090205482906001600160a01b031633146107da5760405162461bcd60e51b81526004016102c8906119f8565b60008181526005602052604080822080546001600160a01b03191690555182917f7cc135e0cebb02c3480ae5d74d377283180a2601f8f644edf7987b009316c63a91a26000838152600c6020908152604091829020825180840190935280546001600160a01b0390811684526001909101549183019190915283908116156108d257600b548251602084015160405163780aa4c760e11b81526001600160a01b0392831660048201526024810191909152838216604482015291169063f015498e90606401600060405180830381600087803b1580156108b957600080fd5b505af11580156108cd573d6000803e3d6000fd5b505050505b8151602083015160405187927f7a454d9894af8fe3ff63fd770774db2cf5e4d6de25dcf3555f96613a89665ac0926109299286906001600160a01b0393841681526020810192909252909116604082015260600190565b60405180910390a25050505050565b6006546001600160a01b031633146109625760405162461bcd60e51b81526004016102c8906119c3565b61096c6000610ed4565b565b6008805461097b90611c46565b80601f01602080910402602001604051908101604052809291908181526020018280546109a790611c46565b80156109f45780601f106109c9576101008083540402835291602001916109f4565b820191906000526020600020905b8154815290600101906020018083116109d757829003601f168201915b505050505081565b600654600160a81b900460ff1680610a1e5750600654600160a01b900460ff16155b610a815760405162461bcd60e51b815260206004820152602e60248201527f496e697469616c697a61626c653a20636f6e747261637420697320616c72656160448201526d191e481a5b9a5d1a585b1a5e995960921b60648201526084016102c8565b600654600160a81b900460ff16158015610aab576006805461ffff60a01b191661010160a01b1790555b6006546001600160a01b03163314610ad55760405162461bcd60e51b81526004016102c8906119c3565b600b80546001600160a01b0319166001600160a01b038416179055610af8610938565b8015610b0c576006805460ff60a81b191690555b5050565b6009805461097b90611c46565b6006546001600160a01b03163314610b475760405162461bcd60e51b81526004016102c8906119c3565b6001600160a01b038116610bac5760405162461bcd60e51b815260206004820152602660248201527f4f776e61626c653a206e6577206f776e657220697320746865207a65726f206160448201526564647265737360d01b60648201526084016102c8565b610bb581610ed4565b50565b6007805461097b90611c46565b610bcd61156e565b610bd561156e565b610be181868686610f26565b95945050505050565b60408051602880825260608281019093526000919060208201818036833701905050905060005b6014811015610d46576000610c27826013611be0565b610c32906008611ba0565b610c3d906002611af8565b610c50906001600160a01b038716611a7d565b60f81b9050600060108260f81c610c679190611a91565b60f81b905060008160f81c6010610c7e9190611bbf565b8360f81c610c8c9190611bf7565b60f81b9050610c9a82610f63565b85610ca6866002611ba0565b81518110610cc457634e487b7160e01b600052603260045260246000fd5b60200101906001600160f81b031916908160001a905350610ce481610f63565b85610cf0866002611ba0565b610cfb906001611a40565b81518110610d1957634e487b7160e01b600052603260045260246000fd5b60200101906001600160f81b031916908160001a9053505050508080610d3e90611c7b565b915050610c11565b5092915050565b606081610d715750506040805180820190915260018152600360fc1b602082015290565b8160005b8115610d9b5780610d8581611c7b565b9150610d949050600a83611a7d565b9150610d75565b60008167ffffffffffffffff811115610dc457634e487b7160e01b600052604160045260246000fd5b6040519080825280601f01601f191660200182016040528015610dee576020820181803683370190505b509050815b8515610e8957610e04600182611be0565b90506000610e13600a88611a7d565b610e1e90600a611ba0565b610e289088611be0565b610e33906030611a58565b905060008160f81b905080848481518110610e5e57634e487b7160e01b600052603260045260246000fd5b60200101906001600160f81b031916908160001a905350610e80600a89611a7d565b97505050610df3565b50949350505050565b6080830151610ea19083610f9e565b6080830151610eb09082610f9e565b505050565b6000610ecc84848460016320214ca360e11b610fb5565b949350505050565b600680546001600160a01b038381166001600160a01b0319831681179093556040519116919082907f8be0079c531659141344cd1fd0a4f28419497f9722a3daafe3b4186f6b6457e090600090a35050565b610f2e61156e565b610f3e85608001516101006111c1565b50509183526001600160a01b031660208301526001600160e01b031916604082015290565b6000600a60f883901c1015610f8a57610f8160f883901c6030611a58565b60f81b92915050565b610f8160f883901c6057611a58565b919050565b610fab826003835161122c565b610eb08282611300565b6004546040516bffffffffffffffffffffffff193060601b166020820152603481019190915260009060540160408051808303601f19018152918152815160209283012060045460608901526000818152600590935281832080546001600160a01b0319166001600160a01b038b16179055905190925082917fb5e6e01e79f91267dc17b4e6314d5d4d03593d2ceee0fbb452b750bd70ea5af991a2600082600080886000015189602001518a604001518b606001518a8d608001516000015160405160240161108c989796959493929190611921565b60408051601f198184030181529181526020820180516001600160e01b03166001600160e01b0319909416939093179092526002549151630200057560e51b81529092506001600160a01b0390911690634000aea0906110f4908a9089908690600401611989565b602060405180830381600087803b15801561110e57600080fd5b505af1158015611122573d6000803e3d6000fd5b505050506040513d601f19601f820116820180604052508101906111469190611659565b61119e5760405162461bcd60e51b815260206004820152602360248201527f756e61626c6520746f207472616e73666572416e6443616c6c20746f206f7261604482015262636c6560e81b60648201526084016102c8565b6001600460008282546111b19190611a40565b9091555091979650505050505050565b6040805180820190915260608152600060208201526111e1602083611c96565b15611209576111f1602083611c96565b6111fc906020611be0565b6112069083611a40565b91505b506020808301829052604080518085526000815283019091019052815b92915050565b6017811161124d576112478360e0600585901b16831761132e565b50505050565b60ff81116112775761126a836018611fe0600586901b161761132e565b5061124783826001611353565b61ffff81116112a257611295836019611fe0600586901b161761132e565b5061124783826002611353565b63ffffffff81116112cf576112c283601a611fe0600586901b161761132e565b5061124783826004611353565b67ffffffffffffffff8111610eb0576112f383601b611fe0600586901b161761132e565b5061124783826008611353565b60408051808201909152606081526000602082015261132783846000015151848551611379565b9392505050565b6040805180820190915260608152600060208201526113278384600001515184611463565b604080518082019091526060815260006020820152610ecc8485600001515185856114bf565b604080518082019091526060815260006020820152825182111561139c57600080fd5b60208501516113ab8386611a40565b11156113de576113de856113ce876020015187866113c99190611a40565b611540565b6113d9906002611ba0565b611557565b6000808651805187602083010193508088870111156113fd5787860182525b505050602084015b6020841061143d578051825261141c602083611a40565b9150611429602082611a40565b9050611436602085611be0565b9350611405565b51815160001960208690036101000a019081169019919091161790525083949350505050565b604080518082019091526060815260006020820152836020015183106114985761149884856020015160026113d99190611ba0565b8351805160208583010184815350808514156114b5576001810182525b5093949350505050565b60408051808201909152606081526000602082015260208501516114e38584611a40565b11156114f7576114f7856113ce8685611a40565b6000600161150784610100611af8565b6115119190611be0565b90508551838682010185831982511617815250805184870111156115355783860181525b509495945050505050565b600081831115611551575081611226565b50919050565b815161156383836111c1565b506112478382611300565b6040805160a0810182526000808252602080830182905282840182905260608084018390528451808601909552845283015290608082015290565b80356001600160a01b0381168114610f9957600080fd5b6000602082840312156115d1578081fd5b611327826115a9565b6000806000606084860312156115ee578182fd5b6115f7846115a9565b95602085013595506040909401359392505050565b600080600080600060a08688031215611623578081fd5b61162c866115a9565b94506020860135935060408601359250611648606087016115a9565b949793965091946080013592915050565b60006020828403121561166a578081fd5b815161132781611cd6565b60008060408385031215611687578182fd5b82359150602083013561169981611cd6565b809150509250929050565b600080604083850312156116b6578182fd5b50508035926020909101359150565b600081518084526116dd816020860160208601611c1a565b601f01601f19169290920160200192915050565b60008151611703818560208601611c1a565b9290920192915050565b8054600090600181811c908083168061172757607f831692505b602080841082141561174757634e487b7160e01b86526022600452602486fd5b81801561175b576001811461176c57611799565b60ff19861689528489019650611799565b60008881526020902060005b868110156117915781548b820152908501908301611778565b505084890196505b50505050505092915050565b60006117b1828761170d565b6d07ec6ded8d8cac6e8d2dedc7a60f60931b815285516117d881600e840160208a01611c1a565b6826746f6b656e49643d60b81b600e92909101918201528451611802816017840160208901611c1a565b66266e6f6e63653d60c81b60179290910191820152835161182a81601e840160208801611c1a565b01601e019695505050505050565b6000611844828961170d565b6d07ec6ded8d8cac6e8d2dedc7a60f60931b8152875161186b81600e840160208c01611c1a565b6a26746f6b656e46726f6d3d60a81b600e92909101918201528651611897816019840160208b01611c1a565b6826746f6b656e546f3d60b81b6019929091019182015285516118c1816022840160208a01611c1a565b600e81830101915050672663616c6c65723d60c01b601482015284516118ee81601c840160208901611c1a565b61191361190d601c8484010166266e6f6e63653d60c81b815260070190565b866116f1565b9a9950505050505050505050565b6001600160a01b0389811682526020820189905260408201889052861660608201526001600160e01b03198516608082015260a0810184905260c0810183905261010060e0820181905260009061197a838201856116c5565b9b9a5050505050505050505050565b60018060a01b0384168152826020820152606060408201526000610be160608301846116c5565b60208152600061132760208301846116c5565b6020808252818101527f4f776e61626c653a2063616c6c6572206973206e6f7420746865206f776e6572604082015260600190565b60208082526028908201527f536f75726365206d75737420626520746865206f7261636c65206f6620746865604082015267081c995c5d595cdd60c21b606082015260800190565b60008219821115611a5357611a53611caa565b500190565b600060ff821660ff84168060ff03821115611a7557611a75611caa565b019392505050565b600082611a8c57611a8c611cc0565b500490565b600060ff831680611aa457611aa4611cc0565b8060ff84160491505092915050565b600181600019825b80861115611aef57828204831115611ad557611ad5611caa565b80861615611ae257928202925b94851c9491800291611abb565b50509250929050565b60006113278383600082611b0e57506001611226565b81611b1b57506000611226565b8160018114611b315760028114611b3b57611b57565b6001915050611226565b60ff841115611b4c57611b4c611caa565b50506001821b611226565b5060208310610133831016604e8410600b8410161715611b7a575081810a611226565b611b848383611ab3565b8060001904821115611b9857611b98611caa565b029392505050565b6000816000190483118215151615611bba57611bba611caa565b500290565b600060ff821660ff84168160ff0481118215151615611b9857611b98611caa565b600082821015611bf257611bf2611caa565b500390565b600060ff821660ff841680821015611c1157611c11611caa565b90039392505050565b60005b83811015611c35578181015183820152602001611c1d565b838111156112475750506000910152565b600181811c90821680611c5a57607f821691505b6020821081141561155157634e487b7160e01b600052602260045260246000fd5b6000600019821415611c8f57611c8f611caa565b5060010190565b600082611ca557611ca5611cc0565b500690565b634e487b7160e01b600052601160045260246000fd5b634e487b7160e01b600052601260045260246000fd5b8015158114610bb557600080fdfea26469706673582212208b6b55154290f291bd48a26990c3a0033270b0b18344e3c5a066fb8cb30b6e6764736f6c6343000804003368747470733a2f2f6e66742d76616c696461746f722d68776b37782e6f6e6469676974616c6f6365616e2e6170702f69736368616e676561626c6568747470733a2f2f6e66742d76616c696461746f722d68776b37782e6f6e6469676974616c6f6365616e2e6170702f6973776974686472617761626c65",
  "devdoc": {
    "kind": "dev",
    "methods": {
      "initialize(address)": {
        "details": "only owner can initialize, and the ownership is removed after that"
      },
      "owner()": {
        "details": "Returns the address of the current owner."
      },
      "processResponse(bytes32,uint256)": {
        "details": "function to process the oracle response (only callable from oracle)",
        "params": {
          "newOwner_": "the address who can retrieve the nft (if 0 assumes is not withdrawable)",
          "requestId": "the id of the request to the Chainlink oracle"
        }
      },
      "processResponseForChange(bytes32,bool)": {
        "details": "function to process the oracle response (only callable from oracle)",
        "params": {
          "changeable": "the response telling us if this tokens are changeable",
          "requestId": "the id of the request to the Chainlink oracle"
        }
      },
      "renounceOwnership()": {
        "details": "Leaves the contract without owner. It will not be possible to call `onlyOwner` functions anymore. Can only be called by the current owner. NOTE: Renouncing ownership will leave the contract without an owner, thereby removing any functionality that is only available to the owner."
      },
      "transferOwnership(address)": {
        "details": "Transfers ownership of the contract to a new account (`newOwner`). Can only be called by the current owner."
      },
      "verifyTokenIsChangeable(address,uint256,uint256,address,uint256)": {
        "details": "call to verify if a token is changable in the synthetic collection, this method can be called only from the nft vault contract",
        "params": {
          "caller": "the caller",
          "collection": "the collection address",
          "nonce": "the nonce",
          "tokenFrom": "the id of the nft in the collection to change from",
          "tokenTo": "the id of the nft in the collection to change to"
        },
        "returns": {
          "requestId": "the id of the request to the Chainlink oracle"
        }
      },
      "verifyTokenIsWithdrawable(address,uint256,uint256)": {
        "details": "call to verify if a token is withdrawble in the synthetic collection, this method can be called only from the nft vault contract",
        "params": {
          "collection": "the collection address",
          "nonce": "the nonce",
          "tokenId": "the id of the nft in the collection"
        },
        "returns": {
          "requestId": "the id of the request to the Chainlink oracle"
        }
      }
    },
    "stateVariables": {
      "token": {
        "details": "oracle configuration parameters"
      }
    },
    "version": 1
  },
  "userdoc": {
    "kind": "user",
    "methods": {},
    "version": 1
  },
  "storageLayout": {
    "storage": [
      {
        "astId": 318,
        "contract": "contracts/ethereum/chainlink/ETHValidatorOracle.sol:ETHValidatorOracle",
        "label": "ens",
        "offset": 0,
        "slot": "0",
        "type": "t_contract(ENSInterface)1083"
      },
      {
        "astId": 320,
        "contract": "contracts/ethereum/chainlink/ETHValidatorOracle.sol:ETHValidatorOracle",
        "label": "ensNode",
        "offset": 0,
        "slot": "1",
        "type": "t_bytes32"
      },
      {
        "astId": 323,
        "contract": "contracts/ethereum/chainlink/ETHValidatorOracle.sol:ETHValidatorOracle",
        "label": "link",
        "offset": 0,
        "slot": "2",
        "type": "t_contract(LinkTokenInterface)1178"
      },
      {
        "astId": 326,
        "contract": "contracts/ethereum/chainlink/ETHValidatorOracle.sol:ETHValidatorOracle",
        "label": "oracle",
        "offset": 0,
        "slot": "3",
        "type": "t_contract(OperatorInterface)1260"
      },
      {
        "astId": 329,
        "contract": "contracts/ethereum/chainlink/ETHValidatorOracle.sol:ETHValidatorOracle",
        "label": "requestCount",
        "offset": 0,
        "slot": "4",
        "type": "t_uint256"
      },
      {
        "astId": 333,
        "contract": "contracts/ethereum/chainlink/ETHValidatorOracle.sol:ETHValidatorOracle",
        "label": "pendingRequests",
        "offset": 0,
        "slot": "5",
        "type": "t_mapping(t_bytes32,t_address)"
      },
      {
        "astId": 2652,
        "contract": "contracts/ethereum/chainlink/ETHValidatorOracle.sol:ETHValidatorOracle",
        "label": "_owner",
        "offset": 0,
        "slot": "6",
        "type": "t_address"
      },
      {
        "astId": 5461,
        "contract": "contracts/ethereum/chainlink/ETHValidatorOracle.sol:ETHValidatorOracle",
        "label": "_initialized",
        "offset": 20,
        "slot": "6",
        "type": "t_bool"
      },
      {
        "astId": 5464,
        "contract": "contracts/ethereum/chainlink/ETHValidatorOracle.sol:ETHValidatorOracle",
        "label": "_initializing",
        "offset": 21,
        "slot": "6",
        "type": "t_bool"
      },
      {
        "astId": 10580,
        "contract": "contracts/ethereum/chainlink/ETHValidatorOracle.sol:ETHValidatorOracle",
        "label": "token",
        "offset": 0,
        "slot": "7",
        "type": "t_string_storage"
      },
      {
        "astId": 10582,
        "contract": "contracts/ethereum/chainlink/ETHValidatorOracle.sol:ETHValidatorOracle",
        "label": "apiURL",
        "offset": 0,
        "slot": "8",
        "type": "t_string_storage"
      },
      {
        "astId": 10584,
        "contract": "contracts/ethereum/chainlink/ETHValidatorOracle.sol:ETHValidatorOracle",
        "label": "apiURLForChanges",
        "offset": 0,
        "slot": "9",
        "type": "t_string_storage"
      },
      {
        "astId": 10594,
        "contract": "contracts/ethereum/chainlink/ETHValidatorOracle.sol:ETHValidatorOracle",
        "label": "linkToken",
        "offset": 0,
        "slot": "10",
        "type": "t_address"
      },
      {
        "astId": 10596,
        "contract": "contracts/ethereum/chainlink/ETHValidatorOracle.sol:ETHValidatorOracle",
        "label": "_vaultManagerAddress",
        "offset": 0,
        "slot": "11",
        "type": "t_address"
      },
      {
        "astId": 10601,
        "contract": "contracts/ethereum/chainlink/ETHValidatorOracle.sol:ETHValidatorOracle",
        "label": "_verifyRequests",
        "offset": 0,
        "slot": "12",
        "type": "t_mapping(t_bytes32,t_struct(VerifyRequest)11015_storage)"
      },
      {
        "astId": 10606,
        "contract": "contracts/ethereum/chainlink/ETHValidatorOracle.sol:ETHValidatorOracle",
        "label": "_changeRequests",
        "offset": 0,
        "slot": "13",
        "type": "t_mapping(t_bytes32,t_struct(ChangeRequest)11024_storage)"
      }
    ],
    "types": {
      "t_address": {
        "encoding": "inplace",
        "label": "address",
        "numberOfBytes": "20"
      },
      "t_bool": {
        "encoding": "inplace",
        "label": "bool",
        "numberOfBytes": "1"
      },
      "t_bytes32": {
        "encoding": "inplace",
        "label": "bytes32",
        "numberOfBytes": "32"
      },
      "t_contract(ENSInterface)1083": {
        "encoding": "inplace",
        "label": "contract ENSInterface",
        "numberOfBytes": "20"
      },
      "t_contract(LinkTokenInterface)1178": {
        "encoding": "inplace",
        "label": "contract LinkTokenInterface",
        "numberOfBytes": "20"
      },
      "t_contract(OperatorInterface)1260": {
        "encoding": "inplace",
        "label": "contract OperatorInterface",
        "numberOfBytes": "20"
      },
      "t_mapping(t_bytes32,t_address)": {
        "encoding": "mapping",
        "key": "t_bytes32",
        "label": "mapping(bytes32 => address)",
        "numberOfBytes": "32",
        "value": "t_address"
      },
      "t_mapping(t_bytes32,t_struct(ChangeRequest)11024_storage)": {
        "encoding": "mapping",
        "key": "t_bytes32",
        "label": "mapping(bytes32 => struct ChangeRequest)",
        "numberOfBytes": "32",
        "value": "t_struct(ChangeRequest)11024_storage"
      },
      "t_mapping(t_bytes32,t_struct(VerifyRequest)11015_storage)": {
        "encoding": "mapping",
        "key": "t_bytes32",
        "label": "mapping(bytes32 => struct VerifyRequest)",
        "numberOfBytes": "32",
        "value": "t_struct(VerifyRequest)11015_storage"
      },
      "t_string_storage": {
        "encoding": "bytes",
        "label": "string",
        "numberOfBytes": "32"
      },
      "t_struct(ChangeRequest)11024_storage": {
        "encoding": "inplace",
        "label": "struct ChangeRequest",
        "members": [
          {
            "astId": 11017,
            "contract": "contracts/ethereum/chainlink/ETHValidatorOracle.sol:ETHValidatorOracle",
            "label": "collection",
            "offset": 0,
            "slot": "0",
            "type": "t_address"
          },
          {
            "astId": 11019,
            "contract": "contracts/ethereum/chainlink/ETHValidatorOracle.sol:ETHValidatorOracle",
            "label": "tokenFrom",
            "offset": 0,
            "slot": "1",
            "type": "t_uint256"
          },
          {
            "astId": 11021,
            "contract": "contracts/ethereum/chainlink/ETHValidatorOracle.sol:ETHValidatorOracle",
            "label": "tokenTo",
            "offset": 0,
            "slot": "2",
            "type": "t_uint256"
          },
          {
            "astId": 11023,
            "contract": "contracts/ethereum/chainlink/ETHValidatorOracle.sol:ETHValidatorOracle",
            "label": "caller",
            "offset": 0,
            "slot": "3",
            "type": "t_address"
          }
        ],
        "numberOfBytes": "128"
      },
      "t_struct(VerifyRequest)11015_storage": {
        "encoding": "inplace",
        "label": "struct VerifyRequest",
        "members": [
          {
            "astId": 11012,
            "contract": "contracts/ethereum/chainlink/ETHValidatorOracle.sol:ETHValidatorOracle",
            "label": "collection",
            "offset": 0,
            "slot": "0",
            "type": "t_address"
          },
          {
            "astId": 11014,
            "contract": "contracts/ethereum/chainlink/ETHValidatorOracle.sol:ETHValidatorOracle",
            "label": "tokenId",
            "offset": 0,
            "slot": "1",
            "type": "t_uint256"
          }
        ],
        "numberOfBytes": "64"
      },
      "t_uint256": {
        "encoding": "inplace",
        "label": "uint256",
        "numberOfBytes": "32"
      }
    }
  }
}