{
  "address": "0xd4E7b022F3819D8E10EA98eB47CFb0E99731c680",
  "abi": [
    {
      "inputs": [
        {
          "components": [
            {
              "internalType": "address",
              "name": "linkToken",
              "type": "address"
            },
            {
              "internalType": "address",
              "name": "chainlinkNode",
              "type": "address"
            },
            {
              "internalType": "string",
              "name": "jobId",
              "type": "string"
            },
            {
              "internalType": "string",
              "name": "booleanJobId",
              "type": "string"
            },
            {
              "internalType": "uint256",
              "name": "nodeFee",
              "type": "uint256"
            }
          ],
          "internalType": "struct APIOracleInfo",
          "name": "oracleInfo_",
          "type": "tuple"
        }
      ],
      "stateMutability": "nonpayable",
      "type": "constructor"
    },
    {
      "anonymous": false,
      "inputs": [
        {
          "indexed": true,
          "internalType": "bytes32",
          "name": "id",
          "type": "bytes32"
        }
      ],
      "name": "ChainlinkCancelled",
      "type": "event"
    },
    {
      "anonymous": false,
      "inputs": [
        {
          "indexed": true,
          "internalType": "bytes32",
          "name": "id",
          "type": "bytes32"
        }
      ],
      "name": "ChainlinkFulfilled",
      "type": "event"
    },
    {
      "anonymous": false,
      "inputs": [
        {
          "indexed": true,
          "internalType": "bytes32",
          "name": "id",
          "type": "bytes32"
        }
      ],
      "name": "ChainlinkRequested",
      "type": "event"
    },
    {
      "anonymous": false,
      "inputs": [
        {
          "indexed": true,
          "internalType": "address",
          "name": "previousOwner",
          "type": "address"
        },
        {
          "indexed": true,
          "internalType": "address",
          "name": "newOwner",
          "type": "address"
        }
      ],
      "name": "OwnershipTransferred",
      "type": "event"
    },
    {
      "inputs": [],
      "name": "apiURLForChanges",
      "outputs": [
        {
          "internalType": "string",
          "name": "",
          "type": "string"
        }
      ],
      "stateMutability": "view",
      "type": "function"
    },
    {
      "inputs": [],
      "name": "apiURLForWithdraws",
      "outputs": [
        {
          "internalType": "string",
          "name": "",
          "type": "string"
        }
      ],
      "stateMutability": "view",
      "type": "function"
    },
    {
      "inputs": [],
      "name": "booleanJobId",
      "outputs": [
        {
          "internalType": "bytes32",
          "name": "",
          "type": "bytes32"
        }
      ],
      "stateMutability": "view",
      "type": "function"
    },
    {
      "inputs": [],
      "name": "chainlinkNode",
      "outputs": [
        {
          "internalType": "address",
          "name": "",
          "type": "address"
        }
      ],
      "stateMutability": "view",
      "type": "function"
    },
    {
      "inputs": [
        {
          "internalType": "address",
          "name": "vault_",
          "type": "address"
        }
      ],
      "name": "initialize",
      "outputs": [],
      "stateMutability": "nonpayable",
      "type": "function"
    },
    {
      "inputs": [],
      "name": "jobId",
      "outputs": [
        {
          "internalType": "bytes32",
          "name": "",
          "type": "bytes32"
        }
      ],
      "stateMutability": "view",
      "type": "function"
    },
    {
      "inputs": [],
      "name": "linkToken",
      "outputs": [
        {
          "internalType": "address",
          "name": "",
          "type": "address"
        }
      ],
      "stateMutability": "view",
      "type": "function"
    },
    {
      "inputs": [],
      "name": "nodeFee",
      "outputs": [
        {
          "internalType": "uint256",
          "name": "",
          "type": "uint256"
        }
      ],
      "stateMutability": "view",
      "type": "function"
    },
    {
      "inputs": [],
      "name": "owner",
      "outputs": [
        {
          "internalType": "address",
          "name": "",
          "type": "address"
        }
      ],
      "stateMutability": "view",
      "type": "function"
    },
    {
      "inputs": [
        {
          "internalType": "bytes32",
          "name": "requestId_",
          "type": "bytes32"
        },
        {
          "internalType": "uint256",
          "name": "newOwner_",
          "type": "uint256"
        }
      ],
      "name": "processResponse",
      "outputs": [],
      "stateMutability": "nonpayable",
      "type": "function"
    },
    {
      "inputs": [
        {
          "internalType": "bytes32",
          "name": "requestId_",
          "type": "bytes32"
        },
        {
          "internalType": "bool",
          "name": "changeable_",
          "type": "bool"
        }
      ],
      "name": "processResponseForChange",
      "outputs": [],
      "stateMutability": "nonpayable",
      "type": "function"
    },
    {
      "inputs": [],
      "name": "renounceOwnership",
      "outputs": [],
      "stateMutability": "nonpayable",
      "type": "function"
    },
    {
      "inputs": [
        {
          "internalType": "address",
          "name": "newOwner",
          "type": "address"
        }
      ],
      "name": "transferOwnership",
      "outputs": [],
      "stateMutability": "nonpayable",
      "type": "function"
    },
    {
      "inputs": [],
      "name": "vaultManagerAddress",
      "outputs": [
        {
          "internalType": "address",
          "name": "",
          "type": "address"
        }
      ],
      "stateMutability": "view",
      "type": "function"
    },
    {
      "inputs": [
        {
          "internalType": "address",
          "name": "collection_",
          "type": "address"
        },
        {
          "internalType": "uint256",
          "name": "tokenFrom_",
          "type": "uint256"
        },
        {
          "internalType": "uint256",
          "name": "tokenTo_",
          "type": "uint256"
        },
        {
          "internalType": "address",
          "name": "caller_",
          "type": "address"
        },
        {
          "internalType": "uint256",
          "name": "nonce_",
          "type": "uint256"
        }
      ],
      "name": "verifyTokenIsChangeable",
      "outputs": [
        {
          "internalType": "bytes32",
          "name": "requestId",
          "type": "bytes32"
        }
      ],
      "stateMutability": "nonpayable",
      "type": "function"
    },
    {
      "inputs": [
        {
          "internalType": "address",
          "name": "collection_",
          "type": "address"
        },
        {
          "internalType": "uint256",
          "name": "tokenId_",
          "type": "uint256"
        },
        {
          "internalType": "uint256",
          "name": "nonce_",
          "type": "uint256"
        }
      ],
      "name": "verifyTokenIsWithdrawable",
      "outputs": [
        {
          "internalType": "bytes32",
          "name": "requestId",
          "type": "bytes32"
        }
      ],
      "stateMutability": "nonpayable",
      "type": "function"
    }
  ],
  "transactionHash": "0xcc6c926cf53e54d37aa0d9afb15c272d1ee3d799c5e029be413ef2f6e7169096",
  "args": [
    {
      "chainlinkNode": "0xfF07C97631Ff3bAb5e5e5660Cdf47AdEd8D4d4Fd",
      "linkToken": "0x01be23585060835e02b77ef475b0cc51aa1e0709",
      "jobId": "2075d7d470ef47d68612abfa3f1a5bd9",
      "booleanJobId": "ba4aeaf24afe4294a5e73c8f292d4114",
      "nodeFee": "100000000000000000"
    }
  ],
  "solcInputHash": "0ee6d1f3caba6a17a6e87435da06c095",
  "bytecode": "0x61010060405260016004553480156200001757600080fd5b506040516200224d3803806200224d8339810160408190526200003a91620002f8565b620000453362000134565b60208181015160601b6001600160601b031916608090815282015160e05260408201516200007c9162000186811b62000b4417901c565b60a081815250506200009d81606001516200018660201b62000b441760201c565b60c0526040805160608101909152603d8082526200221060208301398051620000cf91600791602090910190620001a4565b506040518060600160405280603b8152602001620021d5603b913980516200010091600891602090910190620001a4565b508051600980546001600160a01b039092166001600160a01b03199283168117909155600280549092161790555062000472565b600680546001600160a01b038381166001600160a01b0319831681179093556040519116919082907f8be0079c531659141344cd1fd0a4f28419497f9722a3daafe3b4186f6b6457e090600090a35050565b805160009082906200019b5750600092915050565b50506020015190565b828054620001b2906200041f565b90600052602060002090601f016020900481019282620001d6576000855562000221565b82601f10620001f157805160ff191683800117855562000221565b8280016001018555821562000221579182015b828111156200022157825182559160200191906001019062000204565b506200022f92915062000233565b5090565b5b808211156200022f576000815560010162000234565b80516001600160a01b03811681146200026257600080fd5b919050565b600082601f83011262000278578081fd5b81516001600160401b038111156200029457620002946200045c565b6020620002aa601f8301601f19168201620003ec565b8281528582848701011115620002be578384fd5b835b83811015620002dd578581018301518282018401528201620002c0565b83811115620002ee57848385840101525b5095945050505050565b6000602082840312156200030a578081fd5b81516001600160401b038082111562000321578283fd5b9083019060a0828603121562000335578283fd5b6200033f620003c1565b6200034a836200024a565b81526200035a602084016200024a565b602082015260408301518281111562000371578485fd5b6200037f8782860162000267565b60408301525060608301518281111562000397578485fd5b620003a58782860162000267565b6060830152506080830151608082015280935050505092915050565b60405160a081016001600160401b0381118282101715620003e657620003e66200045c565b60405290565b604051601f8201601f191681016001600160401b03811182821017156200041757620004176200045c565b604052919050565b600181811c908216806200043457607f821691505b602082108114156200045657634e487b7160e01b600052602260045260246000fd5b50919050565b634e487b7160e01b600052604160045260246000fd5b60805160601c60a05160c05160e051611cfc620004d9600039600081816102790152818161053701526106fb01526000818161023f01526105e40152600081816101d601526104260152600081816102180152818161051501526106d90152611cfc6000f3fe608060405234801561001057600080fd5b50600436106100ff5760003560e01c80638da5cb5b11610097578063f07029b911610066578063f07029b914610213578063f1a591d71461023a578063f2fde38b14610261578063f41625301461027457600080fd5b80638da5cb5b146101c0578063c2939d97146101d1578063c4d66de8146101f8578063cfef55721461020b57600080fd5b80633d8b8cb2116100d35780633d8b8cb2146101655780635047638d1461019057806357970e93146101a5578063715018a6146101b857600080fd5b8062ffff3a146101045780630c85284b146101195780630ffb29ed1461013f5780633296f99714610152575b600080fd5b610117610112366004611611565b61029b565b005b61012c610127366004611576565b6103f2565b6040519081526020015b60405180910390f35b61012c61014d3660046115a8565b6105b0565b610117610160366004611640565b61079f565b600a54610178906001600160a01b031681565b6040516001600160a01b039091168152602001610136565b6101986108c4565b604051610136919061194e565b600954610178906001600160a01b031681565b610117610952565b6006546001600160a01b0316610178565b61012c7f000000000000000000000000000000000000000000000000000000000000000081565b61011761020636600461155c565b610988565b610198610a9c565b6101787f000000000000000000000000000000000000000000000000000000000000000081565b61012c7f000000000000000000000000000000000000000000000000000000000000000081565b61011761026f36600461155c565b610aa9565b61012c7f000000000000000000000000000000000000000000000000000000000000000081565b60008281526005602052604090205482906001600160a01b031633146102dc5760405162461bcd60e51b81526004016102d3906119da565b60405180910390fd5b60008181526005602052604080822080546001600160a01b03191690555182917f7cc135e0cebb02c3480ae5d74d377283180a2601f8f644edf7987b009316c63a91a26000838152600c6020908152604091829020825160808101845281546001600160a01b0390811680835260018401549483018590526002840154838701819052600390940154821660608401819052600a54965163b8bb8c7360e01b81526004810192909252602482019590955260448101939093526064830193909352851515608483015260a48201879052929091169063b8bb8c739060c401600060405180830381600087803b1580156103d457600080fd5b505af11580156103e8573d6000803e3d6000fd5b5050505050505050565b600a546000906001600160a01b0316331461041f5760405162461bcd60e51b81526004016102d390611961565b60006104537f000000000000000000000000000000000000000000000000000000000000000030633296f99760e01b610b61565b90506104c2816040518060400160405280600381526020016219d95d60ea1b8152506007610489896001600160a01b0316610b86565b61049289610ce9565b61049b89610ce9565b6040516020016104ae9493929190611741565b604051602081830303815290604052610e2e565b61051081604051806040016040528060048152602001630e0c2e8d60e31b8152506040518060400160405280600f81526020016e776974686472617761626c655f627960881b815250610e2e565b61055b7f0000000000000000000000000000000000000000000000000000000000000000827f0000000000000000000000000000000000000000000000000000000000000000610e51565b6040805180820182526001600160a01b03978816815260208082019788526000848152600b90915291909120905181546001600160a01b03191697169690961786559351600190950194909455509092915050565b600a546000906001600160a01b031633146105dd5760405162461bcd60e51b81526004016102d390611961565b60006106107f000000000000000000000000000000000000000000000000000000000000000030627fff9d60e11b610b61565b9050610688816040518060400160405280600381526020016219d95d60ea1b81525060086106468b6001600160a01b0316610b86565b61064f8b610ce9565b6106588b610ce9565b61066a8b6001600160a01b0316610b86565b6106738b610ce9565b6040516020016104ae969594939291906117d4565b6106d481604051806040016040528060048152602001630e0c2e8d60e31b8152506040518060400160405280600d81526020016c69735f6368616e676561626c6560981b815250610e2e565b61071f7f0000000000000000000000000000000000000000000000000000000000000000827f0000000000000000000000000000000000000000000000000000000000000000610e51565b604080516080810182526001600160a01b03998a1681526020808201998a52818301988952968a16606082019081526000848152600c9098529190962095518654908a166001600160a01b031991821617875597516001870155955160028601559451600390940180549490971693909516929092179094555092915050565b60008281526005602052604090205482906001600160a01b031633146107d75760405162461bcd60e51b81526004016102d3906119da565b60008181526005602052604080822080546001600160a01b03191690555182917f7cc135e0cebb02c3480ae5d74d377283180a2601f8f644edf7987b009316c63a91a26000838152600b60209081526040918290208251808401845281546001600160a01b03908116808352600190930154938201849052600a5494516318fad45b60e11b81526004810189905260248101939093526044830193909352858316606483015292859216906331f5a8b690608401600060405180830381600087803b1580156108a557600080fd5b505af11580156108b9573d6000803e3d6000fd5b505050505050505050565b600780546108d190611c28565b80601f01602080910402602001604051908101604052809291908181526020018280546108fd90611c28565b801561094a5780601f1061091f5761010080835404028352916020019161094a565b820191906000526020600020905b81548152906001019060200180831161092d57829003601f168201915b505050505081565b6006546001600160a01b0316331461097c5760405162461bcd60e51b81526004016102d3906119a5565b6109866000610e70565b565b600654600160a81b900460ff16806109aa5750600654600160a01b900460ff16155b610a0d5760405162461bcd60e51b815260206004820152602e60248201527f496e697469616c697a61626c653a20636f6e747261637420697320616c72656160448201526d191e481a5b9a5d1a585b1a5e995960921b60648201526084016102d3565b600654600160a81b900460ff16158015610a37576006805461ffff60a01b191661010160a01b1790555b6006546001600160a01b03163314610a615760405162461bcd60e51b81526004016102d3906119a5565b600a80546001600160a01b0319166001600160a01b038416179055610a84610952565b8015610a98576006805460ff60a81b191690555b5050565b600880546108d190611c28565b6006546001600160a01b03163314610ad35760405162461bcd60e51b81526004016102d3906119a5565b6001600160a01b038116610b385760405162461bcd60e51b815260206004820152602660248201527f4f776e61626c653a206e6577206f776e657220697320746865207a65726f206160448201526564647265737360d01b60648201526084016102d3565b610b4181610e70565b50565b80516000908290610b585750600092915050565b50506020015190565b610b6961150a565b610b7161150a565b610b7d81868686610ec2565b95945050505050565b60408051602880825260608281019093526000919060208201818036833701905050905060005b6014811015610ce2576000610bc3826013611bc2565b610bce906008611b82565b610bd9906002611ada565b610bec906001600160a01b038716611a5f565b60f81b9050600060108260f81c610c039190611a73565b60f81b905060008160f81c6010610c1a9190611ba1565b8360f81c610c289190611bd9565b60f81b9050610c3682610eff565b85610c42866002611b82565b81518110610c6057634e487b7160e01b600052603260045260246000fd5b60200101906001600160f81b031916908160001a905350610c8081610eff565b85610c8c866002611b82565b610c97906001611a22565b81518110610cb557634e487b7160e01b600052603260045260246000fd5b60200101906001600160f81b031916908160001a9053505050508080610cda90611c5d565b915050610bad565b5092915050565b606081610d0d5750506040805180820190915260018152600360fc1b602082015290565b6000825b8015610d375781610d2181611c5d565b9250610d309050600a82611a5f565b9050610d11565b60008267ffffffffffffffff811115610d6057634e487b7160e01b600052604160045260246000fd5b6040519080825280601f01601f191660200182016040528015610d8a576020820181803683370190505b509050825b8515610e2557610da0600182611bc2565b90506000610daf600a88611a5f565b610dba90600a611b82565b610dc49088611bc2565b610dcf906030611a3a565b905060008160f81b905080848481518110610dfa57634e487b7160e01b600052603260045260246000fd5b60200101906001600160f81b031916908160001a905350610e1c600a89611a5f565b97505050610d8f565b50949350505050565b6080830151610e3d9083610f3a565b6080830151610e4c9082610f3a565b505050565b6000610e6884848460016320214ca360e11b610f51565b949350505050565b600680546001600160a01b038381166001600160a01b0319831681179093556040519116919082907f8be0079c531659141344cd1fd0a4f28419497f9722a3daafe3b4186f6b6457e090600090a35050565b610eca61150a565b610eda856080015161010061115d565b50509183526001600160a01b031660208301526001600160e01b031916604082015290565b6000600a60f883901c1015610f2657610f1d60f883901c6030611a3a565b60f81b92915050565b610f1d60f883901c6057611a3a565b919050565b610f4782600383516111c8565b610e4c828261129c565b6004546040516bffffffffffffffffffffffff193060601b166020820152603481019190915260009060540160408051808303601f19018152918152815160209283012060045460608901526000818152600590935281832080546001600160a01b0319166001600160a01b038b16179055905190925082917fb5e6e01e79f91267dc17b4e6314d5d4d03593d2ceee0fbb452b750bd70ea5af991a2600082600080886000015189602001518a604001518b606001518a8d60800151600001516040516024016110289897969594939291906118bf565b60408051601f198184030181529181526020820180516001600160e01b03166001600160e01b0319909416939093179092526002549151630200057560e51b81529092506001600160a01b0390911690634000aea090611090908a9089908690600401611927565b602060405180830381600087803b1580156110aa57600080fd5b505af11580156110be573d6000803e3d6000fd5b505050506040513d601f19601f820116820180604052508101906110e291906115f5565b61113a5760405162461bcd60e51b815260206004820152602360248201527f756e61626c6520746f207472616e73666572416e6443616c6c20746f206f7261604482015262636c6560e81b60648201526084016102d3565b60016004600082825461114d9190611a22565b9091555091979650505050505050565b60408051808201909152606081526000602082015261117d602083611c78565b156111a55761118d602083611c78565b611198906020611bc2565b6111a29083611a22565b91505b506020808301829052604080518085526000815283019091019052815b92915050565b601781116111e9576111e38360e0600585901b1683176112ca565b50505050565b60ff811161121357611206836018611fe0600586901b16176112ca565b506111e3838260016112ef565b61ffff811161123e57611231836019611fe0600586901b16176112ca565b506111e3838260026112ef565b63ffffffff811161126b5761125e83601a611fe0600586901b16176112ca565b506111e3838260046112ef565b67ffffffffffffffff8111610e4c5761128f83601b611fe0600586901b16176112ca565b506111e3838260086112ef565b6040805180820190915260608152600060208201526112c383846000015151848551611315565b9392505050565b6040805180820190915260608152600060208201526112c383846000015151846113ff565b604080518082019091526060815260006020820152610e6884856000015151858561145b565b604080518082019091526060815260006020820152825182111561133857600080fd5b60208501516113478386611a22565b111561137a5761137a8561136a876020015187866113659190611a22565b6114dc565b611375906002611b82565b6114f3565b6000808651805187602083010193508088870111156113995787860182525b505050602084015b602084106113d957805182526113b8602083611a22565b91506113c5602082611a22565b90506113d2602085611bc2565b93506113a1565b51815160001960208690036101000a019081169019919091161790525083949350505050565b604080518082019091526060815260006020820152836020015183106114345761143484856020015160026113759190611b82565b835180516020858301018481535080851415611451576001810182525b5093949350505050565b604080518082019091526060815260006020820152602085015161147f8584611a22565b1115611493576114938561136a8685611a22565b600060016114a384610100611ada565b6114ad9190611bc2565b90508551838682010185831982511617815250805184870111156114d15783860181525b509495945050505050565b6000818311156114ed5750816111c2565b50919050565b81516114ff838361115d565b506111e3838261129c565b6040805160a0810182526000808252602080830182905282840182905260608084018390528451808601909552845283015290608082015290565b80356001600160a01b0381168114610f3557600080fd5b60006020828403121561156d578081fd5b6112c382611545565b60008060006060848603121561158a578182fd5b61159384611545565b95602085013595506040909401359392505050565b600080600080600060a086880312156115bf578081fd5b6115c886611545565b945060208601359350604086013592506115e460608701611545565b949793965091946080013592915050565b600060208284031215611606578081fd5b81516112c381611cb8565b60008060408385031215611623578182fd5b82359150602083013561163581611cb8565b809150509250929050565b60008060408385031215611652578182fd5b50508035926020909101359150565b60008151808452611679816020860160208601611bfc565b601f01601f19169290920160200192915050565b6000815161169f818560208601611bfc565b9290920192915050565b8054600090600181811c90808316806116c357607f831692505b60208084108214156116e357634e487b7160e01b86526022600452602486fd5b8180156116f7576001811461170857611735565b60ff19861689528489019650611735565b60008881526020902060005b8681101561172d5781548b820152908501908301611714565b505084890196505b50505050505092915050565b600061174d82876116a9565b6d07ec6ded8d8cac6e8d2dedc7a60f60931b8152855161177481600e840160208a01611bfc565b6826746f6b656e49643d60b81b600e9290910191820152845161179e816017840160208901611bfc565b66266e6f6e63653d60c81b6017929091019182015283516117c681601e840160208801611bfc565b01601e019695505050505050565b60006117e082896116a9565b6d07ec6ded8d8cac6e8d2dedc7a60f60931b8152875161180781600e840160208c01611bfc565b6a26746f6b656e46726f6d3d60a81b600e92909101918201528651611833816019840160208b01611bfc565b6826746f6b656e546f3d60b81b60199290910191820152855161185d816022840160208a01611bfc565b600e818301019150506904cc6c2d8d8cae47a60f60b31b6014820152845161188c81601e840160208901611bfc565b6118b16118ab601e8484010166266e6f6e63653d60c81b815260070190565b8661168d565b9a9950505050505050505050565b6001600160a01b0389811682526020820189905260408201889052861660608201526001600160e01b03198516608082015260a0810184905260c0810183905261010060e0820181905260009061191883820185611661565b9b9a5050505050505050505050565b60018060a01b0384168152826020820152606060408201526000610b7d6060830184611661565b6020815260006112c36020830184611661565b60208082526024908201527f4f6e6c79207661756c742063616e207265717565737420766572696669636174604082015263696f6e7360e01b606082015260800190565b6020808252818101527f4f776e61626c653a2063616c6c6572206973206e6f7420746865206f776e6572604082015260600190565b60208082526028908201527f536f75726365206d75737420626520746865206f7261636c65206f6620746865604082015267081c995c5d595cdd60c21b606082015260800190565b60008219821115611a3557611a35611c8c565b500190565b600060ff821660ff84168060ff03821115611a5757611a57611c8c565b019392505050565b600082611a6e57611a6e611ca2565b500490565b600060ff831680611a8657611a86611ca2565b8060ff84160491505092915050565b600181600019825b80861115611ad157828204831115611ab757611ab7611c8c565b80861615611ac457928202925b94851c9491800291611a9d565b50509250929050565b60006112c38383600082611af0575060016111c2565b81611afd575060006111c2565b8160018114611b135760028114611b1d57611b39565b60019150506111c2565b60ff841115611b2e57611b2e611c8c565b50506001821b6111c2565b5060208310610133831016604e8410600b8410161715611b5c575081810a6111c2565b611b668383611a95565b8060001904821115611b7a57611b7a611c8c565b029392505050565b6000816000190483118215151615611b9c57611b9c611c8c565b500290565b600060ff821660ff84168160ff0481118215151615611b7a57611b7a611c8c565b600082821015611bd457611bd4611c8c565b500390565b600060ff821660ff841680821015611bf357611bf3611c8c565b90039392505050565b60005b83811015611c17578181015183820152602001611bff565b838111156111e35750506000910152565b600181811c90821680611c3c57607f821691505b602082108114156114ed57634e487b7160e01b600052602260045260246000fd5b6000600019821415611c7157611c71611c8c565b5060010190565b600082611c8757611c87611ca2565b500690565b634e487b7160e01b600052601160045260246000fd5b634e487b7160e01b600052601260045260246000fd5b8015158114610b4157600080fdfea264697066735822122017e672728c0161fa0c509e63379c370fc7571c2a8ac0bcf1374d3330e06d53db64736f6c6343000804003368747470733a2f2f6e66742d76616c696461746f722d68776b37782e6f6e6469676974616c6f6365616e2e6170702f69736368616e676561626c6568747470733a2f2f6e66742d76616c696461746f722d68776b37782e6f6e6469676974616c6f6365616e2e6170702f6973776974686472617761626c65",
  "devdoc": {
    "author": "priviprotocol",
    "kind": "dev",
    "methods": {
      "constructor": {
        "details": "initialize the Chainlink client params",
        "params": {
          "oracleInfo_": "the struct with the oracle specifications"
        }
      },
      "initialize(address)": {
        "details": "only owner can initialize, and the ownership is removed after that",
        "params": {
          "vault_": "the address of the vault contract"
        }
      },
      "owner()": {
        "details": "Returns the address of the current owner."
      },
      "processResponse(bytes32,uint256)": {
        "details": "function to process the oracle response (only callable from oracle)",
        "params": {
          "newOwner_": "the address who can retrieve the nft (if 0 assumes is not withdrawable)",
          "requestId_": "the id of the request to the Chainlink oracle"
        }
      },
      "processResponseForChange(bytes32,bool)": {
        "details": "function to process the oracle response (only callable from oracle)",
        "params": {
          "changeable_": "the response telling us if this tokens are changeable",
          "requestId_": "the id of the request to the Chainlink oracle"
        }
      },
      "renounceOwnership()": {
        "details": "Leaves the contract without owner. It will not be possible to call `onlyOwner` functions anymore. Can only be called by the current owner. NOTE: Renouncing ownership will leave the contract without an owner, thereby removing any functionality that is only available to the owner."
      },
      "transferOwnership(address)": {
        "details": "Transfers ownership of the contract to a new account (`newOwner`). Can only be called by the current owner."
      },
      "verifyTokenIsChangeable(address,uint256,uint256,address,uint256)": {
        "details": "call to verify if a token is changable in the synthetic collection,      this method can be called only from the nft vault contract",
        "params": {
          "caller_": "the caller",
          "collection_": "the address of the nft collection",
          "nonce_": "the nonce {see: NFTVaultManager}",
          "tokenFrom_": "the id of the nft in the collection to change from",
          "tokenTo_": "the id of the nft in the collection to change to"
        },
        "returns": {
          "requestId": "the id of the request to the Chainlink oracle"
        }
      },
      "verifyTokenIsWithdrawable(address,uint256,uint256)": {
        "details": "call to verify if a token is withdrawble in the synthetic collection,      this method can be called only from the nft vault contract",
        "params": {
          "collection_": "the address of the nft collection",
          "nonce_": "the nonce {see: NFTVaultManager}",
          "tokenId_": "the id of the nft in the collection"
        },
        "returns": {
          "requestId": "the id of the request to the Chainlink oracle"
        }
      }
    },
    "title": "Validator Oracle for withdraws and changes",
    "version": 1
  },
  "userdoc": {
    "kind": "user",
    "methods": {
      "apiURLForChanges()": {
        "notice": "the API url to check changeable status"
      },
      "apiURLForWithdraws()": {
        "notice": "the API url to check withdrawable status"
      },
      "booleanJobId()": {
        "notice": "the job id for GET -> bool"
      },
      "chainlinkNode()": {
        "notice": "the Chainlink node oracle address"
      },
      "jobId()": {
        "notice": "the job id for GET -> uint256"
      },
      "linkToken()": {
        "notice": "the address of the LINK token"
      },
      "nodeFee()": {
        "notice": "the node fee required by the Chainlink node"
      },
      "vaultManagerAddress()": {
        "notice": "the address the vault contract"
      }
    },
    "notice": "use Chainlink API Get request to check if a locked         token is withdrawable or if two locked token are         interchangeable",
    "version": 1
  },
  "storageLayout": {
    "storage": [
      {
        "astId": 318,
        "contract": "contracts/ethereum/chainlink/ETHValidatorOracle.sol:ETHValidatorOracle",
        "label": "ens",
        "offset": 0,
        "slot": "0",
        "type": "t_contract(ENSInterface)1083"
      },
      {
        "astId": 320,
        "contract": "contracts/ethereum/chainlink/ETHValidatorOracle.sol:ETHValidatorOracle",
        "label": "ensNode",
        "offset": 0,
        "slot": "1",
        "type": "t_bytes32"
      },
      {
        "astId": 323,
        "contract": "contracts/ethereum/chainlink/ETHValidatorOracle.sol:ETHValidatorOracle",
        "label": "link",
        "offset": 0,
        "slot": "2",
        "type": "t_contract(LinkTokenInterface)1178"
      },
      {
        "astId": 326,
        "contract": "contracts/ethereum/chainlink/ETHValidatorOracle.sol:ETHValidatorOracle",
        "label": "oracle",
        "offset": 0,
        "slot": "3",
        "type": "t_contract(OperatorInterface)1260"
      },
      {
        "astId": 329,
        "contract": "contracts/ethereum/chainlink/ETHValidatorOracle.sol:ETHValidatorOracle",
        "label": "requestCount",
        "offset": 0,
        "slot": "4",
        "type": "t_uint256"
      },
      {
        "astId": 333,
        "contract": "contracts/ethereum/chainlink/ETHValidatorOracle.sol:ETHValidatorOracle",
        "label": "pendingRequests",
        "offset": 0,
        "slot": "5",
        "type": "t_mapping(t_bytes32,t_address)"
      },
      {
        "astId": 4235,
        "contract": "contracts/ethereum/chainlink/ETHValidatorOracle.sol:ETHValidatorOracle",
        "label": "_owner",
        "offset": 0,
        "slot": "6",
        "type": "t_address"
      },
      {
        "astId": 7665,
        "contract": "contracts/ethereum/chainlink/ETHValidatorOracle.sol:ETHValidatorOracle",
        "label": "_initialized",
        "offset": 20,
        "slot": "6",
        "type": "t_bool"
      },
      {
        "astId": 7668,
        "contract": "contracts/ethereum/chainlink/ETHValidatorOracle.sol:ETHValidatorOracle",
        "label": "_initializing",
        "offset": 21,
        "slot": "6",
        "type": "t_bool"
      },
      {
        "astId": 13006,
        "contract": "contracts/ethereum/chainlink/ETHValidatorOracle.sol:ETHValidatorOracle",
        "label": "apiURLForWithdraws",
        "offset": 0,
        "slot": "7",
        "type": "t_string_storage"
      },
      {
        "astId": 13009,
        "contract": "contracts/ethereum/chainlink/ETHValidatorOracle.sol:ETHValidatorOracle",
        "label": "apiURLForChanges",
        "offset": 0,
        "slot": "8",
        "type": "t_string_storage"
      },
      {
        "astId": 13012,
        "contract": "contracts/ethereum/chainlink/ETHValidatorOracle.sol:ETHValidatorOracle",
        "label": "linkToken",
        "offset": 0,
        "slot": "9",
        "type": "t_address"
      },
      {
        "astId": 13015,
        "contract": "contracts/ethereum/chainlink/ETHValidatorOracle.sol:ETHValidatorOracle",
        "label": "vaultManagerAddress",
        "offset": 0,
        "slot": "10",
        "type": "t_address"
      },
      {
        "astId": 13020,
        "contract": "contracts/ethereum/chainlink/ETHValidatorOracle.sol:ETHValidatorOracle",
        "label": "_verifyRequests",
        "offset": 0,
        "slot": "11",
        "type": "t_mapping(t_bytes32,t_struct(VerifyRequest)13379_storage)"
      },
      {
        "astId": 13025,
        "contract": "contracts/ethereum/chainlink/ETHValidatorOracle.sol:ETHValidatorOracle",
        "label": "_changeRequests",
        "offset": 0,
        "slot": "12",
        "type": "t_mapping(t_bytes32,t_struct(ChangeRequest)13388_storage)"
      }
    ],
    "types": {
      "t_address": {
        "encoding": "inplace",
        "label": "address",
        "numberOfBytes": "20"
      },
      "t_bool": {
        "encoding": "inplace",
        "label": "bool",
        "numberOfBytes": "1"
      },
      "t_bytes32": {
        "encoding": "inplace",
        "label": "bytes32",
        "numberOfBytes": "32"
      },
      "t_contract(ENSInterface)1083": {
        "encoding": "inplace",
        "label": "contract ENSInterface",
        "numberOfBytes": "20"
      },
      "t_contract(LinkTokenInterface)1178": {
        "encoding": "inplace",
        "label": "contract LinkTokenInterface",
        "numberOfBytes": "20"
      },
      "t_contract(OperatorInterface)1260": {
        "encoding": "inplace",
        "label": "contract OperatorInterface",
        "numberOfBytes": "20"
      },
      "t_mapping(t_bytes32,t_address)": {
        "encoding": "mapping",
        "key": "t_bytes32",
        "label": "mapping(bytes32 => address)",
        "numberOfBytes": "32",
        "value": "t_address"
      },
      "t_mapping(t_bytes32,t_struct(ChangeRequest)13388_storage)": {
        "encoding": "mapping",
        "key": "t_bytes32",
        "label": "mapping(bytes32 => struct ChangeRequest)",
        "numberOfBytes": "32",
        "value": "t_struct(ChangeRequest)13388_storage"
      },
      "t_mapping(t_bytes32,t_struct(VerifyRequest)13379_storage)": {
        "encoding": "mapping",
        "key": "t_bytes32",
        "label": "mapping(bytes32 => struct VerifyRequest)",
        "numberOfBytes": "32",
        "value": "t_struct(VerifyRequest)13379_storage"
      },
      "t_string_storage": {
        "encoding": "bytes",
        "label": "string",
        "numberOfBytes": "32"
      },
      "t_struct(ChangeRequest)13388_storage": {
        "encoding": "inplace",
        "label": "struct ChangeRequest",
        "members": [
          {
            "astId": 13381,
            "contract": "contracts/ethereum/chainlink/ETHValidatorOracle.sol:ETHValidatorOracle",
            "label": "collection",
            "offset": 0,
            "slot": "0",
            "type": "t_address"
          },
          {
            "astId": 13383,
            "contract": "contracts/ethereum/chainlink/ETHValidatorOracle.sol:ETHValidatorOracle",
            "label": "tokenFrom",
            "offset": 0,
            "slot": "1",
            "type": "t_uint256"
          },
          {
            "astId": 13385,
            "contract": "contracts/ethereum/chainlink/ETHValidatorOracle.sol:ETHValidatorOracle",
            "label": "tokenTo",
            "offset": 0,
            "slot": "2",
            "type": "t_uint256"
          },
          {
            "astId": 13387,
            "contract": "contracts/ethereum/chainlink/ETHValidatorOracle.sol:ETHValidatorOracle",
            "label": "caller",
            "offset": 0,
            "slot": "3",
            "type": "t_address"
          }
        ],
        "numberOfBytes": "128"
      },
      "t_struct(VerifyRequest)13379_storage": {
        "encoding": "inplace",
        "label": "struct VerifyRequest",
        "members": [
          {
            "astId": 13376,
            "contract": "contracts/ethereum/chainlink/ETHValidatorOracle.sol:ETHValidatorOracle",
            "label": "collection",
            "offset": 0,
            "slot": "0",
            "type": "t_address"
          },
          {
            "astId": 13378,
            "contract": "contracts/ethereum/chainlink/ETHValidatorOracle.sol:ETHValidatorOracle",
            "label": "tokenId",
            "offset": 0,
            "slot": "1",
            "type": "t_uint256"
          }
        ],
        "numberOfBytes": "64"
      },
      "t_uint256": {
        "encoding": "inplace",
        "label": "uint256",
        "numberOfBytes": "32"
      }
    }
  }
}