{
  "_format": "hh-sol-artifact-1",
  "contractName": "NFTMock",
  "sourceName": "contracts/ethereum/mocks/NFTMock.sol",
  "abi": [
    {
      "inputs": [],
      "stateMutability": "nonpayable",
      "type": "constructor"
    },
    {
      "anonymous": false,
      "inputs": [
        {
          "indexed": true,
          "internalType": "address",
          "name": "owner",
          "type": "address"
        },
        {
          "indexed": true,
          "internalType": "address",
          "name": "approved",
          "type": "address"
        },
        {
          "indexed": true,
          "internalType": "uint256",
          "name": "tokenId",
          "type": "uint256"
        }
      ],
      "name": "Approval",
      "type": "event"
    },
    {
      "anonymous": false,
      "inputs": [
        {
          "indexed": true,
          "internalType": "address",
          "name": "owner",
          "type": "address"
        },
        {
          "indexed": true,
          "internalType": "address",
          "name": "operator",
          "type": "address"
        },
        {
          "indexed": false,
          "internalType": "bool",
          "name": "approved",
          "type": "bool"
        }
      ],
      "name": "ApprovalForAll",
      "type": "event"
    },
    {
      "anonymous": false,
      "inputs": [
        {
          "indexed": true,
          "internalType": "address",
          "name": "from",
          "type": "address"
        },
        {
          "indexed": true,
          "internalType": "address",
          "name": "to",
          "type": "address"
        },
        {
          "indexed": true,
          "internalType": "uint256",
          "name": "tokenId",
          "type": "uint256"
        }
      ],
      "name": "Transfer",
      "type": "event"
    },
    {
      "inputs": [
        {
          "internalType": "address",
          "name": "to",
          "type": "address"
        },
        {
          "internalType": "uint256",
          "name": "tokenId",
          "type": "uint256"
        }
      ],
      "name": "approve",
      "outputs": [],
      "stateMutability": "nonpayable",
      "type": "function"
    },
    {
      "inputs": [
        {
          "internalType": "address",
          "name": "owner",
          "type": "address"
        }
      ],
      "name": "balanceOf",
      "outputs": [
        {
          "internalType": "uint256",
          "name": "",
          "type": "uint256"
        }
      ],
      "stateMutability": "view",
      "type": "function"
    },
    {
      "inputs": [
        {
          "internalType": "uint256",
          "name": "tokenId",
          "type": "uint256"
        }
      ],
      "name": "getApproved",
      "outputs": [
        {
          "internalType": "address",
          "name": "",
          "type": "address"
        }
      ],
      "stateMutability": "view",
      "type": "function"
    },
    {
      "inputs": [
        {
          "internalType": "address",
          "name": "owner",
          "type": "address"
        },
        {
          "internalType": "address",
          "name": "operator",
          "type": "address"
        }
      ],
      "name": "isApprovedForAll",
      "outputs": [
        {
          "internalType": "bool",
          "name": "",
          "type": "bool"
        }
      ],
      "stateMutability": "view",
      "type": "function"
    },
    {
      "inputs": [],
      "name": "name",
      "outputs": [
        {
          "internalType": "string",
          "name": "",
          "type": "string"
        }
      ],
      "stateMutability": "view",
      "type": "function"
    },
    {
      "inputs": [
        {
          "internalType": "uint256",
          "name": "tokenId",
          "type": "uint256"
        }
      ],
      "name": "ownerOf",
      "outputs": [
        {
          "internalType": "address",
          "name": "",
          "type": "address"
        }
      ],
      "stateMutability": "view",
      "type": "function"
    },
    {
      "inputs": [
        {
          "internalType": "address",
          "name": "to",
          "type": "address"
        }
      ],
      "name": "safeMint",
      "outputs": [],
      "stateMutability": "nonpayable",
      "type": "function"
    },
    {
      "inputs": [
        {
          "internalType": "address",
          "name": "from",
          "type": "address"
        },
        {
          "internalType": "address",
          "name": "to",
          "type": "address"
        },
        {
          "internalType": "uint256",
          "name": "tokenId",
          "type": "uint256"
        }
      ],
      "name": "safeTransferFrom",
      "outputs": [],
      "stateMutability": "nonpayable",
      "type": "function"
    },
    {
      "inputs": [
        {
          "internalType": "address",
          "name": "from",
          "type": "address"
        },
        {
          "internalType": "address",
          "name": "to",
          "type": "address"
        },
        {
          "internalType": "uint256",
          "name": "tokenId",
          "type": "uint256"
        },
        {
          "internalType": "bytes",
          "name": "_data",
          "type": "bytes"
        }
      ],
      "name": "safeTransferFrom",
      "outputs": [],
      "stateMutability": "nonpayable",
      "type": "function"
    },
    {
      "inputs": [
        {
          "internalType": "address",
          "name": "operator",
          "type": "address"
        },
        {
          "internalType": "bool",
          "name": "approved",
          "type": "bool"
        }
      ],
      "name": "setApprovalForAll",
      "outputs": [],
      "stateMutability": "nonpayable",
      "type": "function"
    },
    {
      "inputs": [
        {
          "internalType": "bytes4",
          "name": "interfaceId",
          "type": "bytes4"
        }
      ],
      "name": "supportsInterface",
      "outputs": [
        {
          "internalType": "bool",
          "name": "",
          "type": "bool"
        }
      ],
      "stateMutability": "view",
      "type": "function"
    },
    {
      "inputs": [],
      "name": "symbol",
      "outputs": [
        {
          "internalType": "string",
          "name": "",
          "type": "string"
        }
      ],
      "stateMutability": "view",
      "type": "function"
    },
    {
      "inputs": [
        {
          "internalType": "uint256",
          "name": "tokenId",
          "type": "uint256"
        }
      ],
      "name": "tokenURI",
      "outputs": [
        {
          "internalType": "string",
          "name": "",
          "type": "string"
        }
      ],
      "stateMutability": "view",
      "type": "function"
    },
    {
      "inputs": [
        {
          "internalType": "address",
          "name": "from",
          "type": "address"
        },
        {
          "internalType": "address",
          "name": "to",
          "type": "address"
        },
        {
          "internalType": "uint256",
          "name": "tokenId",
          "type": "uint256"
        }
      ],
      "name": "transferFrom",
      "outputs": [],
      "stateMutability": "nonpayable",
      "type": "function"
    }
  ],
  "bytecode": "0x60806040523480156200001157600080fd5b50604080518082018252600781526626bcaa37b5b2b760c91b6020808301918252835180850190945260038452624d544b60e81b9084015281519192916200005c916000916200007b565b508051620000729060019060208401906200007b565b5050506200015e565b828054620000899062000121565b90600052602060002090601f016020900481019282620000ad5760008555620000f8565b82601f10620000c857805160ff1916838001178555620000f8565b82800160010185558215620000f8579182015b82811115620000f8578251825591602001919060010190620000db565b50620001069291506200010a565b5090565b5b808211156200010657600081556001016200010b565b600181811c908216806200013657607f821691505b602082108114156200015857634e487b7160e01b600052602260045260246000fd5b50919050565b61141d806200016e6000396000f3fe608060405234801561001057600080fd5b50600436106100ea5760003560e01c80636352211e1161008c578063a22cb46511610066578063a22cb465146101e1578063b88d4fde146101f4578063c87b56dd14610207578063e985e9c51461021a57600080fd5b80636352211e146101a557806370a08231146101b857806395d89b41146101d957600080fd5b8063095ea7b3116100c8578063095ea7b31461015757806323b872dd1461016c57806340d097c31461017f57806342842e0e1461019257600080fd5b806301ffc9a7146100ef57806306fdde0314610117578063081812fc1461012c575b600080fd5b6101026100fd366004611118565b610256565b60405190151581526020015b60405180910390f35b61011f6102a8565b60405161010e9190611200565b61013f61013a366004611150565b61033a565b6040516001600160a01b03909116815260200161010e565b61016a6101653660046110ef565b6103d4565b005b61016a61017a366004610fa5565b6104ea565b61016a61018d366004610f59565b61051b565b61016a6101a0366004610fa5565b61053e565b61013f6101b3366004611150565b610559565b6101cb6101c6366004610f59565b6105d0565b60405190815260200161010e565b61011f610657565b61016a6101ef3660046110b5565b610666565b61016a610202366004610fe0565b61072b565b61011f610215366004611150565b610763565b610102610228366004610f73565b6001600160a01b03918216600090815260056020908152604080832093909416825291909152205460ff1690565b60006001600160e01b031982166380ac58cd60e01b148061028757506001600160e01b03198216635b5e139f60e01b145b806102a257506301ffc9a760e01b6001600160e01b03198316145b92915050565b6060600080546102b790611325565b80601f01602080910402602001604051908101604052809291908181526020018280546102e390611325565b80156103305780601f1061030557610100808354040283529160200191610330565b820191906000526020600020905b81548152906001019060200180831161031357829003601f168201915b5050505050905090565b6000818152600260205260408120546001600160a01b03166103b85760405162461bcd60e51b815260206004820152602c60248201527f4552433732313a20617070726f76656420717565727920666f72206e6f6e657860448201526b34b9ba32b73a103a37b5b2b760a11b60648201526084015b60405180910390fd5b506000908152600460205260409020546001600160a01b031690565b60006103df82610559565b9050806001600160a01b0316836001600160a01b0316141561044d5760405162461bcd60e51b815260206004820152602160248201527f4552433732313a20617070726f76616c20746f2063757272656e74206f776e656044820152603960f91b60648201526084016103af565b336001600160a01b038216148061046957506104698133610228565b6104db5760405162461bcd60e51b815260206004820152603860248201527f4552433732313a20617070726f76652063616c6c6572206973206e6f74206f7760448201527f6e6572206e6f7220617070726f76656420666f7220616c6c000000000000000060648201526084016103af565b6104e5838361084b565b505050565b6104f433826108b9565b6105105760405162461bcd60e51b81526004016103af90611265565b6104e58383836109b0565b610529600680546001019055565b61053b8161053660065490565b610b50565b50565b6104e58383836040518060200160405280600081525061072b565b6000818152600260205260408120546001600160a01b0316806102a25760405162461bcd60e51b815260206004820152602960248201527f4552433732313a206f776e657220717565727920666f72206e6f6e657869737460448201526832b73a103a37b5b2b760b91b60648201526084016103af565b60006001600160a01b03821661063b5760405162461bcd60e51b815260206004820152602a60248201527f4552433732313a2062616c616e636520717565727920666f7220746865207a65604482015269726f206164647265737360b01b60648201526084016103af565b506001600160a01b031660009081526003602052604090205490565b6060600180546102b790611325565b6001600160a01b0382163314156106bf5760405162461bcd60e51b815260206004820152601960248201527f4552433732313a20617070726f766520746f2063616c6c65720000000000000060448201526064016103af565b3360008181526005602090815260408083206001600160a01b03871680855290835292819020805460ff191686151590811790915590519081529192917f17307eab39ab6107e8899845ad3d59bd9653f200f220920489ca2b5937696c31910160405180910390a35050565b61073533836108b9565b6107515760405162461bcd60e51b81526004016103af90611265565b61075d84848484610b6e565b50505050565b6000818152600260205260409020546060906001600160a01b03166107e25760405162461bcd60e51b815260206004820152602f60248201527f4552433732314d657461646174613a2055524920717565727920666f72206e6f60448201526e3732bc34b9ba32b73a103a37b5b2b760891b60648201526084016103af565b60006107f960408051602081019091526000815290565b905060008151116108195760405180602001604052806000815250610844565b8061082384610ba1565b604051602001610834929190611194565b6040516020818303038152906040525b9392505050565b600081815260046020526040902080546001600160a01b0319166001600160a01b038416908117909155819061088082610559565b6001600160a01b03167f8c5be1e5ebec7d5bd14f71427d1e84f3dd0314c0f7b2291e5b200ac8c7c3b92560405160405180910390a45050565b6000818152600260205260408120546001600160a01b03166109325760405162461bcd60e51b815260206004820152602c60248201527f4552433732313a206f70657261746f7220717565727920666f72206e6f6e657860448201526b34b9ba32b73a103a37b5b2b760a11b60648201526084016103af565b600061093d83610559565b9050806001600160a01b0316846001600160a01b031614806109785750836001600160a01b031661096d8461033a565b6001600160a01b0316145b806109a857506001600160a01b0380821660009081526005602090815260408083209388168352929052205460ff165b949350505050565b826001600160a01b03166109c382610559565b6001600160a01b031614610a2b5760405162461bcd60e51b815260206004820152602960248201527f4552433732313a207472616e73666572206f6620746f6b656e2074686174206960448201526839903737ba1037bbb760b91b60648201526084016103af565b6001600160a01b038216610a8d5760405162461bcd60e51b8152602060048201526024808201527f4552433732313a207472616e7366657220746f20746865207a65726f206164646044820152637265737360e01b60648201526084016103af565b610a9860008261084b565b6001600160a01b0383166000908152600360205260408120805460019290610ac19084906112e2565b90915550506001600160a01b0382166000908152600360205260408120805460019290610aef9084906112b6565b909155505060008181526002602052604080822080546001600160a01b0319166001600160a01b0386811691821790925591518493918716917fddf252ad1be2c89b69c2b068fc378daa952ba7f163c4a11628f55a4df523b3ef91a4505050565b610b6a828260405180602001604052806000815250610cbb565b5050565b610b798484846109b0565b610b8584848484610cee565b61075d5760405162461bcd60e51b81526004016103af90611213565b606081610bc55750506040805180820190915260018152600360fc1b602082015290565b8160005b8115610bef5780610bd981611360565b9150610be89050600a836112ce565b9150610bc9565b60008167ffffffffffffffff811115610c1857634e487b7160e01b600052604160045260246000fd5b6040519080825280601f01601f191660200182016040528015610c42576020820181803683370190505b5090505b84156109a857610c576001836112e2565b9150610c64600a8661137b565b610c6f9060306112b6565b60f81b818381518110610c9257634e487b7160e01b600052603260045260246000fd5b60200101906001600160f81b031916908160001a905350610cb4600a866112ce565b9450610c46565b610cc58383610dfb565b610cd26000848484610cee565b6104e55760405162461bcd60e51b81526004016103af90611213565b60006001600160a01b0384163b15610df057604051630a85bd0160e11b81526001600160a01b0385169063150b7a0290610d329033908990889088906004016111c3565b602060405180830381600087803b158015610d4c57600080fd5b505af1925050508015610d7c575060408051601f3d908101601f19168201909252610d7991810190611134565b60015b610dd6573d808015610daa576040519150601f19603f3d011682016040523d82523d6000602084013e610daf565b606091505b508051610dce5760405162461bcd60e51b81526004016103af90611213565b805181602001fd5b6001600160e01b031916630a85bd0160e11b1490506109a8565b506001949350505050565b6001600160a01b038216610e515760405162461bcd60e51b815260206004820181905260248201527f4552433732313a206d696e7420746f20746865207a65726f206164647265737360448201526064016103af565b6000818152600260205260409020546001600160a01b031615610eb65760405162461bcd60e51b815260206004820152601c60248201527f4552433732313a20746f6b656e20616c7265616479206d696e7465640000000060448201526064016103af565b6001600160a01b0382166000908152600360205260408120805460019290610edf9084906112b6565b909155505060008181526002602052604080822080546001600160a01b0319166001600160a01b03861690811790915590518392907fddf252ad1be2c89b69c2b068fc378daa952ba7f163c4a11628f55a4df523b3ef908290a45050565b80356001600160a01b0381168114610f5457600080fd5b919050565b600060208284031215610f6a578081fd5b61084482610f3d565b60008060408385031215610f85578081fd5b610f8e83610f3d565b9150610f9c60208401610f3d565b90509250929050565b600080600060608486031215610fb9578081fd5b610fc284610f3d565b9250610fd060208501610f3d565b9150604084013590509250925092565b60008060008060808587031215610ff5578081fd5b610ffe85610f3d565b935061100c60208601610f3d565b925060408501359150606085013567ffffffffffffffff8082111561102f578283fd5b818701915087601f830112611042578283fd5b813581811115611054576110546113bb565b604051601f8201601f19908116603f0116810190838211818310171561107c5761107c6113bb565b816040528281528a6020848701011115611094578586fd5b82602086016020830137918201602001949094529598949750929550505050565b600080604083850312156110c7578182fd5b6110d083610f3d565b9150602083013580151581146110e4578182fd5b809150509250929050565b60008060408385031215611101578182fd5b61110a83610f3d565b946020939093013593505050565b600060208284031215611129578081fd5b8135610844816113d1565b600060208284031215611145578081fd5b8151610844816113d1565b600060208284031215611161578081fd5b5035919050565b600081518084526111808160208601602086016112f9565b601f01601f19169290920160200192915050565b600083516111a68184602088016112f9565b8351908301906111ba8183602088016112f9565b01949350505050565b6001600160a01b03858116825284166020820152604081018390526080606082018190526000906111f690830184611168565b9695505050505050565b6020815260006108446020830184611168565b60208082526032908201527f4552433732313a207472616e7366657220746f206e6f6e20455243373231526560408201527131b2b4bb32b91034b6b83632b6b2b73a32b960711b606082015260800190565b60208082526031908201527f4552433732313a207472616e736665722063616c6c6572206973206e6f74206f6040820152701ddb995c881b9bdc88185c1c1c9bdd9959607a1b606082015260800190565b600082198211156112c9576112c961138f565b500190565b6000826112dd576112dd6113a5565b500490565b6000828210156112f4576112f461138f565b500390565b60005b838110156113145781810151838201526020016112fc565b8381111561075d5750506000910152565b600181811c9082168061133957607f821691505b6020821081141561135a57634e487b7160e01b600052602260045260246000fd5b50919050565b60006000198214156113745761137461138f565b5060010190565b60008261138a5761138a6113a5565b500690565b634e487b7160e01b600052601160045260246000fd5b634e487b7160e01b600052601260045260246000fd5b634e487b7160e01b600052604160045260246000fd5b6001600160e01b03198116811461053b57600080fdfea2646970667358221220f3d17d5dce781f696893449edbbd999a8f57e90f5abf52d109340ca30b7d069264736f6c63430008040033",
  "linkReferences": {},
  "deployedLinkReferences": {}
}