{
  "address": "0xd255FB4DEe514c059298a68410cCA7aeeEbAA9EE",
  "abi": [
    {
      "inputs": [
        {
          "internalType": "address",
          "name": "validatorOracleAddress_",
          "type": "address"
        }
      ],
      "stateMutability": "nonpayable",
      "type": "constructor"
    },
    {
      "anonymous": false,
      "inputs": [
        {
          "indexed": true,
          "internalType": "bytes32",
          "name": "requestId",
          "type": "bytes32"
        },
        {
          "indexed": false,
          "internalType": "address",
          "name": "collection",
          "type": "address"
        },
        {
          "indexed": false,
          "internalType": "uint256",
          "name": "tokenFrom",
          "type": "uint256"
        },
        {
          "indexed": false,
          "internalType": "uint256",
          "name": "tokenTo",
          "type": "uint256"
        }
      ],
      "name": "ChangeApproveRequested",
      "type": "event"
    },
    {
      "anonymous": false,
      "inputs": [
        {
          "indexed": true,
          "internalType": "bytes32",
          "name": "requestId",
          "type": "bytes32"
        },
        {
          "indexed": false,
          "internalType": "address",
          "name": "collection",
          "type": "address"
        },
        {
          "indexed": false,
          "internalType": "uint256",
          "name": "tokenFrom",
          "type": "uint256"
        },
        {
          "indexed": false,
          "internalType": "uint256",
          "name": "tokenTo",
          "type": "uint256"
        },
        {
          "indexed": false,
          "internalType": "bool",
          "name": "response",
          "type": "bool"
        }
      ],
      "name": "ChangeResponseReceived",
      "type": "event"
    },
    {
      "anonymous": false,
      "inputs": [
        {
          "indexed": true,
          "internalType": "bytes32",
          "name": "role",
          "type": "bytes32"
        },
        {
          "indexed": true,
          "internalType": "bytes32",
          "name": "previousAdminRole",
          "type": "bytes32"
        },
        {
          "indexed": true,
          "internalType": "bytes32",
          "name": "newAdminRole",
          "type": "bytes32"
        }
      ],
      "name": "RoleAdminChanged",
      "type": "event"
    },
    {
      "anonymous": false,
      "inputs": [
        {
          "indexed": true,
          "internalType": "bytes32",
          "name": "role",
          "type": "bytes32"
        },
        {
          "indexed": true,
          "internalType": "address",
          "name": "account",
          "type": "address"
        },
        {
          "indexed": true,
          "internalType": "address",
          "name": "sender",
          "type": "address"
        }
      ],
      "name": "RoleGranted",
      "type": "event"
    },
    {
      "anonymous": false,
      "inputs": [
        {
          "indexed": true,
          "internalType": "bytes32",
          "name": "role",
          "type": "bytes32"
        },
        {
          "indexed": true,
          "internalType": "address",
          "name": "account",
          "type": "address"
        },
        {
          "indexed": true,
          "internalType": "address",
          "name": "sender",
          "type": "address"
        }
      ],
      "name": "RoleRevoked",
      "type": "event"
    },
    {
      "anonymous": false,
      "inputs": [
        {
          "indexed": true,
          "internalType": "bytes32",
          "name": "requestId",
          "type": "bytes32"
        },
        {
          "indexed": false,
          "internalType": "address",
          "name": "collection",
          "type": "address"
        },
        {
          "indexed": false,
          "internalType": "uint256",
          "name": "tokenId",
          "type": "uint256"
        }
      ],
      "name": "UnlockRequested",
      "type": "event"
    },
    {
      "anonymous": false,
      "inputs": [
        {
          "indexed": true,
          "internalType": "bytes32",
          "name": "requestId",
          "type": "bytes32"
        },
        {
          "indexed": false,
          "internalType": "address",
          "name": "collection",
          "type": "address"
        },
        {
          "indexed": false,
          "internalType": "uint256",
          "name": "tokenId",
          "type": "uint256"
        },
        {
          "indexed": false,
          "internalType": "address",
          "name": "newOwner",
          "type": "address"
        }
      ],
      "name": "WithdrawResponseReceived",
      "type": "event"
    },
    {
      "inputs": [],
      "name": "DEFAULT_ADMIN_ROLE",
      "outputs": [
        {
          "internalType": "bytes32",
          "name": "",
          "type": "bytes32"
        }
      ],
      "stateMutability": "view",
      "type": "function"
    },
    {
      "inputs": [],
      "name": "VALIDATOR_ORACLE",
      "outputs": [
        {
          "internalType": "bytes32",
          "name": "",
          "type": "bytes32"
        }
      ],
      "stateMutability": "view",
      "type": "function"
    },
    {
      "inputs": [
        {
          "internalType": "address",
          "name": "collection_",
          "type": "address"
        },
        {
          "internalType": "uint256",
          "name": "tokenFrom_",
          "type": "uint256"
        },
        {
          "internalType": "uint256",
          "name": "tokenTo_",
          "type": "uint256"
        }
      ],
      "name": "change",
      "outputs": [],
      "stateMutability": "nonpayable",
      "type": "function"
    },
    {
      "inputs": [
        {
          "internalType": "address",
          "name": "",
          "type": "address"
        },
        {
          "internalType": "uint256",
          "name": "",
          "type": "uint256"
        }
      ],
      "name": "changeNonces",
      "outputs": [
        {
          "internalType": "uint256",
          "name": "",
          "type": "uint256"
        }
      ],
      "stateMutability": "view",
      "type": "function"
    },
    {
      "inputs": [
        {
          "internalType": "bytes32",
          "name": "role",
          "type": "bytes32"
        }
      ],
      "name": "getRoleAdmin",
      "outputs": [
        {
          "internalType": "bytes32",
          "name": "",
          "type": "bytes32"
        }
      ],
      "stateMutability": "view",
      "type": "function"
    },
    {
      "inputs": [
        {
          "internalType": "bytes32",
          "name": "role",
          "type": "bytes32"
        },
        {
          "internalType": "address",
          "name": "account",
          "type": "address"
        }
      ],
      "name": "grantRole",
      "outputs": [],
      "stateMutability": "nonpayable",
      "type": "function"
    },
    {
      "inputs": [
        {
          "internalType": "bytes32",
          "name": "role",
          "type": "bytes32"
        },
        {
          "internalType": "address",
          "name": "account",
          "type": "address"
        }
      ],
      "name": "hasRole",
      "outputs": [
        {
          "internalType": "bool",
          "name": "",
          "type": "bool"
        }
      ],
      "stateMutability": "view",
      "type": "function"
    },
    {
      "inputs": [
        {
          "internalType": "address",
          "name": "collection_",
          "type": "address"
        },
        {
          "internalType": "uint256",
          "name": "tokenId_",
          "type": "uint256"
        }
      ],
      "name": "isTokenInVault",
      "outputs": [
        {
          "internalType": "bool",
          "name": "isInVault",
          "type": "bool"
        }
      ],
      "stateMutability": "view",
      "type": "function"
    },
    {
      "inputs": [
        {
          "internalType": "address",
          "name": "collection_",
          "type": "address"
        },
        {
          "internalType": "uint256",
          "name": "tokenId_",
          "type": "uint256"
        }
      ],
      "name": "lockNFT",
      "outputs": [],
      "stateMutability": "nonpayable",
      "type": "function"
    },
    {
      "inputs": [
        {
          "internalType": "address",
          "name": "",
          "type": "address"
        },
        {
          "internalType": "uint256",
          "name": "",
          "type": "uint256"
        }
      ],
      "name": "nonces",
      "outputs": [
        {
          "internalType": "uint256",
          "name": "",
          "type": "uint256"
        }
      ],
      "stateMutability": "view",
      "type": "function"
    },
    {
      "inputs": [
        {
          "internalType": "address",
          "name": "",
          "type": "address"
        },
        {
          "internalType": "uint256",
          "name": "",
          "type": "uint256"
        }
      ],
      "name": "pendingChanges",
      "outputs": [
        {
          "internalType": "address",
          "name": "owner",
          "type": "address"
        },
        {
          "internalType": "uint256",
          "name": "tokenTo",
          "type": "uint256"
        }
      ],
      "stateMutability": "view",
      "type": "function"
    },
    {
      "inputs": [
        {
          "internalType": "address",
          "name": "",
          "type": "address"
        },
        {
          "internalType": "uint256",
          "name": "",
          "type": "uint256"
        }
      ],
      "name": "pendingWithdraws",
      "outputs": [
        {
          "internalType": "address",
          "name": "",
          "type": "address"
        }
      ],
      "stateMutability": "view",
      "type": "function"
    },
    {
      "inputs": [
        {
          "internalType": "address",
          "name": "collection_",
          "type": "address"
        },
        {
          "internalType": "uint256",
          "name": "tokenFrom_",
          "type": "uint256"
        },
        {
          "internalType": "uint256",
          "name": "tokenTo_",
          "type": "uint256"
        },
        {
          "internalType": "address",
          "name": "owner_",
          "type": "address"
        },
        {
          "internalType": "bool",
          "name": "changeable_",
          "type": "bool"
        },
        {
          "internalType": "bytes32",
          "name": "requestId_",
          "type": "bytes32"
        }
      ],
      "name": "processChangeResponse",
      "outputs": [],
      "stateMutability": "nonpayable",
      "type": "function"
    },
    {
      "inputs": [
        {
          "internalType": "bytes32",
          "name": "requestId_",
          "type": "bytes32"
        },
        {
          "internalType": "address",
          "name": "collection_",
          "type": "address"
        },
        {
          "internalType": "uint256",
          "name": "tokenId_",
          "type": "uint256"
        },
        {
          "internalType": "address",
          "name": "newOwner_",
          "type": "address"
        }
      ],
      "name": "processUnlockResponse",
      "outputs": [],
      "stateMutability": "nonpayable",
      "type": "function"
    },
    {
      "inputs": [
        {
          "internalType": "bytes32",
          "name": "role",
          "type": "bytes32"
        },
        {
          "internalType": "address",
          "name": "account",
          "type": "address"
        }
      ],
      "name": "renounceRole",
      "outputs": [],
      "stateMutability": "nonpayable",
      "type": "function"
    },
    {
      "inputs": [
        {
          "internalType": "address",
          "name": "collection_",
          "type": "address"
        },
        {
          "internalType": "uint256",
          "name": "tokenFrom_",
          "type": "uint256"
        },
        {
          "internalType": "uint256",
          "name": "tokenTo_",
          "type": "uint256"
        }
      ],
      "name": "requestChange",
      "outputs": [],
      "stateMutability": "nonpayable",
      "type": "function"
    },
    {
      "inputs": [
        {
          "internalType": "address",
          "name": "collection_",
          "type": "address"
        },
        {
          "internalType": "uint256",
          "name": "tokenId_",
          "type": "uint256"
        }
      ],
      "name": "requestUnlock",
      "outputs": [],
      "stateMutability": "nonpayable",
      "type": "function"
    },
    {
      "inputs": [
        {
          "internalType": "bytes32",
          "name": "role",
          "type": "bytes32"
        },
        {
          "internalType": "address",
          "name": "account",
          "type": "address"
        }
      ],
      "name": "revokeRole",
      "outputs": [],
      "stateMutability": "nonpayable",
      "type": "function"
    },
    {
      "inputs": [
        {
          "internalType": "bytes4",
          "name": "interfaceId",
          "type": "bytes4"
        }
      ],
      "name": "supportsInterface",
      "outputs": [
        {
          "internalType": "bool",
          "name": "",
          "type": "bool"
        }
      ],
      "stateMutability": "view",
      "type": "function"
    },
    {
      "inputs": [],
      "name": "validatorOracleAddress",
      "outputs": [
        {
          "internalType": "address",
          "name": "",
          "type": "address"
        }
      ],
      "stateMutability": "view",
      "type": "function"
    },
    {
      "inputs": [
        {
          "internalType": "address",
          "name": "collection_",
          "type": "address"
        },
        {
          "internalType": "uint256",
          "name": "tokenId_",
          "type": "uint256"
        }
      ],
      "name": "withdraw",
      "outputs": [],
      "stateMutability": "nonpayable",
      "type": "function"
    }
  ],
  "transactionHash": "0xd1df02515745cce8dbf956e15d76fdc6fdd4e308019935da3b93bc2601816192",
  "args": [
    "0xd4E7b022F3819D8E10EA98eB47CFb0E99731c680"
  ],
  "solcInputHash": "0ee6d1f3caba6a17a6e87435da06c095",
  "bytecode": "0x60806040523480156200001157600080fd5b506040516200182138038062001821833981016040819052620000349162000132565b600680546001600160a01b0319166001600160a01b0383161790556200007b7f747c8a75243ae2ca1d188aaaeab610daf9d97e45b6513baed451ebf0b9ec74fd8262000082565b5062000162565b6200008e828262000092565b5050565b6000828152602081815260408083206001600160a01b038516845290915290205460ff166200008e576000828152602081815260408083206001600160a01b03851684529091529020805460ff19166001179055620000ee3390565b6001600160a01b0316816001600160a01b0316837f2f8788117e7eff1d82e926ec794901d17c78024a50270940304540a733656f0d60405160405180910390a45050565b60006020828403121562000144578081fd5b81516001600160a01b03811681146200015b578182fd5b9392505050565b6116af80620001726000396000f3fe608060405234801561001057600080fd5b50600436106101375760003560e01c806380769e98116100b8578063abacac251161007c578063abacac2514610311578063b8bb8c7314610338578063d0e009651461034b578063d547741f146103a8578063de207035146103bb578063f3fef3a3146103ce57600080fd5b806380769e98146102a557806391d14854146102d0578063a217fddf146102e3578063a9112140146102eb578063a9aadece146102fe57600080fd5b80633a404917116100ff5780633a404917146101d0578063428e173e146101e3578063502e1a161461021b5780635802c89e146102465780637223d1da1461029257600080fd5b806301ffc9a71461013c578063248a9ca3146101645780632f2ff15d1461019557806331f5a8b6146101aa57806336568abe146101bd575b600080fd5b61014f61014a3660046114f1565b6103e1565b60405190151581526020015b60405180910390f35b610187610172366004611451565b60009081526020819052604090206001015490565b60405190815260200161015b565b6101a86101a3366004611481565b610418565b005b6101a86101b83660046114ac565b610443565b6101a86101cb366004611481565b610537565b6101a86101de366004611390565b6105ba565b61014f6101f1366004611390565b6001600160a01b039182166000908152600160209081526040808320938352929052205416151590565b610187610229366004611390565b600260209081526000928352604080842090915290825290205481565b61027a610254366004611390565b60046020908152600092835260408084209091529082529020546001600160a01b031681565b6040516001600160a01b03909116815260200161015b565b60065461027a906001600160a01b031681565b6101876102b3366004611390565b600360209081526000928352604080842090915290825290205481565b61014f6102de366004611481565b6106bb565b610187600081565b6101a86102f93660046113b9565b6106e4565b6101a861030c3660046113b9565b610917565b6101877f747c8a75243ae2ca1d188aaaeab610daf9d97e45b6513baed451ebf0b9ec74fd81565b6101a86103463660046113eb565b610bce565b610389610359366004611390565b6005602090815260009283526040808420909152908252902080546001909101546001600160a01b039091169082565b604080516001600160a01b03909316835260208301919091520161015b565b6101a86103b6366004611481565b610d0b565b6101a86103c9366004611390565b610d31565b6101a86103dc366004611390565b610ef6565b60006001600160e01b03198216637965db0b60e01b148061041257506301ffc9a760e01b6001600160e01b03198316145b92915050565b600082815260208190526040902060010154610434813361103e565b61043e83836110a2565b505050565b7f747c8a75243ae2ca1d188aaaeab610daf9d97e45b6513baed451ebf0b9ec74fd61046e813361103e565b6001600160a01b0384811660009081526001602090815260408083208784529091529020541615610530576001600160a01b038216156104e2576001600160a01b038481166000908152600460209081526040808320878452909152902080546001600160a01b0319169184169190911790555b604080516001600160a01b03868116825260208201869052841681830152905186917f2cdf40344d878a961ef279e6fbcaa42b3afa8a4359eada285c09d799a9f5e591919081900360600190a25b5050505050565b6001600160a01b03811633146105ac5760405162461bcd60e51b815260206004820152602f60248201527f416363657373436f6e74726f6c3a2063616e206f6e6c792072656e6f756e636560448201526e103937b632b9903337b91039b2b63360891b60648201526084015b60405180910390fd5b6105b68282611126565b5050565b6001600160a01b03828116600090815260016020908152604080832085845290915290205416156106245760405162461bcd60e51b8152602060048201526014602482015273151bdad95b88185b1c9958591e481b1bd8dad95960621b60448201526064016105a3565b6040516323b872dd60e01b81526001600160a01b038316906323b872dd906106549033903090869060040161158e565b600060405180830381600087803b15801561066e57600080fd5b505af1158015610682573d6000803e3d6000fd5b5050506001600160a01b0390921660009081526001602090815260408083209383529290522080546001600160a01b0319163317905550565b6000918252602082815260408084206001600160a01b0393909316845291905290205460ff1690565b6001600160a01b0380841660009081526005602090815260408083208684528252918290208251808401909352805490931682526001909201549181018290529082146107695760405162461bcd60e51b81526020600482015260136024820152724e6f6e20617070726f766564206368616e676560681b60448201526064016105a3565b80516001600160a01b031633146107ba5760405162461bcd60e51b81526020600482015260156024820152744f6e6c79206f776e65722063616e206368616e676560581b60448201526064016105a3565b6001600160a01b03808516600081815260016020818152604080842089855280835281852080546001600160a01b0319908116909155868652600584528286208b87528452828620805482168155850186905588518a8752918452828620805492909816911617909555928252600383528382208783529092529182208054919290916108489084906115e5565b90915550506040516323b872dd60e01b81526001600160a01b038516906323b872dd9061087d9033903090879060040161158e565b600060405180830381600087803b15801561089757600080fd5b505af11580156108ab573d6000803e3d6000fd5b50506040516323b872dd60e01b81526001600160a01b03871692506323b872dd91506108df9030903390889060040161158e565b600060405180830381600087803b1580156108f957600080fd5b505af115801561090d573d6000803e3d6000fd5b5050505050505050565b6001600160a01b0383811660009081526001602090815260408083208684529091529020541661097c5760405162461bcd60e51b815260206004820152601060248201526f151bdad95b881b9bdd081b1bd8dad95960821b60448201526064016105a3565b6001600160a01b03838116600090815260016020908152604080832085845290915290205416156109e65760405162461bcd60e51b8152602060048201526014602482015273151bdad95b88185b1c9958591e481b1bd8dad95960621b60448201526064016105a3565b6001600160a01b0383811660009081526004602090815260408083208684529091529020541615610a4e5760405162461bcd60e51b81526020600482015260126024820152712bb4ba34323930bbb0b13632903a37b5b2b760711b60448201526064016105a3565b6001600160a01b038316600090815260056020908152604080832085845290915290206001015415610ac25760405162461bcd60e51b815260206004820152601760248201527f4368616e676520616c726561647920617070726f76656400000000000000000060448201526064016105a3565b6006546001600160a01b038481166000818152600360209081526040808320888452909152808220549051630ffb29ed60e01b8152600481019390935260248301879052604483018690523360648401526084830152929190911690630ffb29ed9060a401602060405180830381600087803b158015610b4157600080fd5b505af1158015610b55573d6000803e3d6000fd5b505050506040513d601f19601f82011682018060405250810190610b799190611469565b604080516001600160a01b03871681526020810186905290810184905290915081907f1d90362ea7fb87044aa174135a335410d86bcb7d72c5d75678b1aa04ebbd72f09060600160405180910390a250505050565b7f747c8a75243ae2ca1d188aaaeab610daf9d97e45b6513baed451ebf0b9ec74fd610bf9813361103e565b6001600160a01b0387811660009081526001602090815260408083208a84529091529020541615801590610c5057506001600160a01b03878116600090815260016020908152604080832089845290915290205416155b15610d02578215610cad576040805180820182526001600160a01b03868116825260208083018981528b83166000908152600583528581208c8252909252939020915182546001600160a01b031916911617815590516001909101555b604080516001600160a01b038916815260208101889052908101869052831515606082015282907f9cc08b652558ad0d32a05868cb6dc740e61e5c99ea201addb9ec107dfbc036aa9060800160405180910390a25b50505050505050565b600082815260208190526040902060010154610d27813361103e565b61043e8383611126565b6001600160a01b03828116600090815260016020908152604080832085845290915290205416610d965760405162461bcd60e51b815260206004820152601060248201526f151bdad95b881b9bdd081b1bd8dad95960821b60448201526064016105a3565b6001600160a01b0382811660009081526004602090815260408083208584529091529020541615610e005760405162461bcd60e51b8152602060048201526014602482015273416c726561647920776974686472617761626c6560601b60448201526064016105a3565b6006546001600160a01b038381166000818152600260209081526040808320878452909152808220549051630c85284b60e01b81526004810193909352602483018690526044830152929190911690630c85284b90606401602060405180830381600087803b158015610e7257600080fd5b505af1158015610e86573d6000803e3d6000fd5b505050506040513d601f19601f82011682018060405250810190610eaa9190611469565b604080516001600160a01b03861681526020810185905291925082917ffc72bbe2858daa3c5e979a90386125316b9034f6644459cc5cc1cb2299b70896910160405180910390a2505050565b6001600160a01b038281166000908152600460209081526040808320858452909152902054163314610f625760405162461bcd60e51b81526020600482015260156024820152744e6f6e20617070726f76656420776974686472617760581b60448201526064016105a3565b6001600160a01b0382166000818152600460209081526040808320858452825280832080546001600160a01b03199081169091558484526001808452828520878652845282852080549092169091559383526002825280832085845290915281208054909190610fd39084906115e5565b90915550506040516323b872dd60e01b81526001600160a01b038316906323b872dd906110089030903390869060040161158e565b600060405180830381600087803b15801561102257600080fd5b505af1158015611036573d6000803e3d6000fd5b505050505050565b61104882826106bb565b6105b657611060816001600160a01b0316601461118b565b61106b83602061118b565b60405160200161107c929190611519565b60408051601f198184030181529082905262461bcd60e51b82526105a3916004016115b2565b6110ac82826106bb565b6105b6576000828152602081815260408083206001600160a01b03851684529091529020805460ff191660011790556110e23390565b6001600160a01b0316816001600160a01b0316837f2f8788117e7eff1d82e926ec794901d17c78024a50270940304540a733656f0d60405160405180910390a45050565b61113082826106bb565b156105b6576000828152602081815260408083206001600160a01b0385168085529252808320805460ff1916905551339285917ff6391f5c32d9c69d2a47ea670b442974b53935d1edc7fd64eb21e047a839171b9190a45050565b6060600061119a8360026115fd565b6111a59060026115e5565b67ffffffffffffffff8111156111cb57634e487b7160e01b600052604160045260246000fd5b6040519080825280601f01601f1916602001820160405280156111f5576020820181803683370190505b509050600360fc1b8160008151811061121e57634e487b7160e01b600052603260045260246000fd5b60200101906001600160f81b031916908160001a905350600f60fb1b8160018151811061125b57634e487b7160e01b600052603260045260246000fd5b60200101906001600160f81b031916908160001a905350600061127f8460026115fd565b61128a9060016115e5565b90505b600181111561131e576f181899199a1a9b1b9c1cb0b131b232b360811b85600f16601081106112cc57634e487b7160e01b600052603260045260246000fd5b1a60f81b8282815181106112f057634e487b7160e01b600052603260045260246000fd5b60200101906001600160f81b031916908160001a90535060049490941c936113178161164c565b905061128d565b50831561136d5760405162461bcd60e51b815260206004820181905260248201527f537472696e67733a20686578206c656e67746820696e73756666696369656e7460448201526064016105a3565b9392505050565b80356001600160a01b038116811461138b57600080fd5b919050565b600080604083850312156113a2578182fd5b6113ab83611374565b946020939093013593505050565b6000806000606084860312156113cd578081fd5b6113d684611374565b95602085013595506040909401359392505050565b60008060008060008060c08789031215611403578182fd5b61140c87611374565b9550602087013594506040870135935061142860608801611374565b92506080870135801515811461143c578283fd5b8092505060a087013590509295509295509295565b600060208284031215611462578081fd5b5035919050565b60006020828403121561147a578081fd5b5051919050565b60008060408385031215611493578182fd5b823591506114a360208401611374565b90509250929050565b600080600080608085870312156114c1578384fd5b843593506114d160208601611374565b9250604085013591506114e660608601611374565b905092959194509250565b600060208284031215611502578081fd5b81356001600160e01b03198116811461136d578182fd5b7f416363657373436f6e74726f6c3a206163636f756e742000000000000000000081526000835161155181601785016020880161161c565b7001034b99036b4b9b9b4b733903937b6329607d1b601791840191820152835161158281602884016020880161161c565b01602801949350505050565b6001600160a01b039384168152919092166020820152604081019190915260600190565b60208152600082518060208401526115d181604085016020870161161c565b601f01601f19169190910160400192915050565b600082198211156115f8576115f8611663565b500190565b600081600019048311821515161561161757611617611663565b500290565b60005b8381101561163757818101518382015260200161161f565b83811115611646576000848401525b50505050565b60008161165b5761165b611663565b506000190190565b634e487b7160e01b600052601160045260246000fdfea26469706673582212205c2330a39f9687b9193d5e0208ed880344d23729edb7d1f765fda274fac7b1c264736f6c63430008040033",
  "devdoc": {
    "author": "priviprotocol",
    "events": {
      "ChangeApproveRequested(bytes32,address,uint256,uint256)": {
        "details": "emitted when owner of a locked token request a change",
        "params": {
          "collection": "the address of the nft collection",
          "requestId": "the Chainlink oracle request id from the validator oracle",
          "tokenFrom": "the id of the nft token to change (from)",
          "tokenTo": "the id of the nft token to change (to)"
        }
      },
      "ChangeResponseReceived(bytes32,address,uint256,uint256,bool)": {
        "details": "emitted when the Chainlink oracle response for a change is received",
        "params": {
          "collection": "the address of the nft collection",
          "requestId": "the Chainlink oracle request id from the validator oracle (to match)",
          "response": "wheter the tokens are changeable or not",
          "tokenFrom": "the id of the nft token to change (from)",
          "tokenTo": "the id of the nft token to change (to)"
        }
      },
      "UnlockRequested(bytes32,address,uint256)": {
        "details": "emitted when owner of a locked token request a unlock",
        "params": {
          "collection": "the address of the nft collection",
          "requestId": "the Chainlink oracle request id from the validator oracle",
          "tokenId": "the id of the nft token to unlock"
        }
      },
      "WithdrawResponseReceived(bytes32,address,uint256,address)": {
        "details": "emitted when the Chainlink oracle response for unlocking is received",
        "params": {
          "collection": "the address of the nft collection",
          "newOwner": "the address of the owner allowed to withdraw (if 0 assume is not withdrawable)",
          "requestId": "the Chainlink oracle request id from the validator oracle (to match)",
          "tokenId": "the id of the nft token to unlock"
        }
      }
    },
    "kind": "dev",
    "methods": {
      "change(address,uint256,uint256)": {
        "params": {
          "collection_": "the address of the nft collection",
          "tokenFrom_": "the nft token id to change (from)",
          "tokenTo_": "the nft token id to change (to)"
        }
      },
      "constructor": {
        "params": {
          "validatorOracleAddress_": "the address of the validator oracle (Chainlink client)"
        }
      },
      "getRoleAdmin(bytes32)": {
        "details": "Returns the admin role that controls `role`. See {grantRole} and {revokeRole}. To change a role's admin, use {_setRoleAdmin}."
      },
      "grantRole(bytes32,address)": {
        "details": "Grants `role` to `account`. If `account` had not been already granted `role`, emits a {RoleGranted} event. Requirements: - the caller must have ``role``'s admin role."
      },
      "hasRole(bytes32,address)": {
        "details": "Returns `true` if `account` has been granted `role`."
      },
      "isTokenInVault(address,uint256)": {
        "params": {
          "collection_": "the address of the nft collection",
          "tokenId_": "the nft token id"
        },
        "returns": {
          "isInVault": "where the token is in vault or not"
        }
      },
      "lockNFT(address,uint256)": {
        "params": {
          "collection_": "the address of the nft collection",
          "tokenId_": "the nft token id"
        }
      },
      "processChangeResponse(address,uint256,uint256,address,bool,bytes32)": {
        "details": "processes the oracle response for change requests",
        "params": {
          "changeable_": "the response, wheter is changeable or not",
          "collection_": "the address of the nft collection",
          "owner_": "the owner of the nfts",
          "requestId_": "the id of the Chainlink request",
          "tokenFrom_": "the nft token id to change (from)",
          "tokenTo_": "the nft token id to change (to)"
        }
      },
      "processUnlockResponse(bytes32,address,uint256,address)": {
        "details": "processes the oracle response for unlock requests",
        "params": {
          "collection_": "the address of the nft collection",
          "newOwner_": "the new owner (if 0, token is not withdrawable)",
          "requestId_": "the id of the Chainlink request",
          "tokenId_": "the nft token id"
        }
      },
      "renounceRole(bytes32,address)": {
        "details": "Revokes `role` from the calling account. Roles are often managed via {grantRole} and {revokeRole}: this function's purpose is to provide a mechanism for accounts to lose their privileges if they are compromised (such as when a trusted device is misplaced). If the calling account had been granted `role`, emits a {RoleRevoked} event. Requirements: - the caller must be `account`."
      },
      "requestChange(address,uint256,uint256)": {
        "params": {
          "collection_": "the address of the nft collection",
          "tokenFrom_": "the nft token id to change (from)",
          "tokenTo_": "the nft token id to change (to)"
        }
      },
      "requestUnlock(address,uint256)": {
        "params": {
          "collection_": "the address of the nft collection",
          "tokenId_": "the nft token id"
        }
      },
      "revokeRole(bytes32,address)": {
        "details": "Revokes `role` from `account`. If `account` had been granted `role`, emits a {RoleRevoked} event. Requirements: - the caller must have ``role``'s admin role."
      },
      "supportsInterface(bytes4)": {
        "details": "See {IERC165-supportsInterface}."
      },
      "withdraw(address,uint256)": {
        "params": {
          "collection_": "the address of the nft collection",
          "tokenId_": "the nft token id to withdraw"
        }
      }
    },
    "stateVariables": {
      "_holdings": {
        "details": "map to check if a holder has a token registered over an approved collection  COLLECTION_CONTRACT_ADDRESS => NFT_ID => HOLDER_ACCOUNT_ADDRESS OR ZERO_ADDRESS"
      }
    },
    "title": "the Vault where nfts are locked",
    "version": 1
  },
  "userdoc": {
    "kind": "user",
    "methods": {
      "change(address,uint256,uint256)": {
        "notice": "allows to change tokens after a succesfull verification process"
      },
      "changeNonces(address,uint256)": {
        "notice": "nonces to count the changes of an original collection token id      in order to avoid double change (with the second one keeping the synthetic playing)"
      },
      "isTokenInVault(address,uint256)": {
        "notice": "check if the vault holds a token"
      },
      "lockNFT(address,uint256)": {
        "notice": "call this method to lock an NFT in the vault (add it to the protocol)"
      },
      "nonces(address,uint256)": {
        "notice": "the nonces allow to check if a token is safely withdrawable (avoid double verifying)         a user could try to withdraw a non registered token if nonces dont exist"
      },
      "pendingChanges(address,uint256)": {
        "notice": "tokens in this map can be directly swapped"
      },
      "pendingWithdraws(address,uint256)": {
        "notice": "tokens in this map can be retrieved by the owner (address returned)"
      },
      "requestChange(address,uint256,uint256)": {
        "notice": "allows owners of locked tokens to request changes,         validates through the validator oracle"
      },
      "requestUnlock(address,uint256)": {
        "notice": "allows owners of locked tokens to request unlocking,         validates the availability through the validator oracle"
      },
      "validatorOracleAddress()": {
        "notice": "the address of the validator oracle"
      },
      "withdraw(address,uint256)": {
        "notice": "allows withdrawing a token after a successful verification process"
      }
    },
    "version": 1
  },
  "storageLayout": {
    "storage": [
      {
        "astId": 3872,
        "contract": "contracts/ethereum/NFTVaultManager.sol:NFTVaultManager",
        "label": "_roles",
        "offset": 0,
        "slot": "0",
        "type": "t_mapping(t_bytes32,t_struct(RoleData)3867_storage)"
      },
      {
        "astId": 12382,
        "contract": "contracts/ethereum/NFTVaultManager.sol:NFTVaultManager",
        "label": "_holdings",
        "offset": 0,
        "slot": "1",
        "type": "t_mapping(t_address,t_mapping(t_uint256,t_address))"
      },
      {
        "astId": 12389,
        "contract": "contracts/ethereum/NFTVaultManager.sol:NFTVaultManager",
        "label": "nonces",
        "offset": 0,
        "slot": "2",
        "type": "t_mapping(t_address,t_mapping(t_uint256,t_uint256))"
      },
      {
        "astId": 12396,
        "contract": "contracts/ethereum/NFTVaultManager.sol:NFTVaultManager",
        "label": "changeNonces",
        "offset": 0,
        "slot": "3",
        "type": "t_mapping(t_address,t_mapping(t_uint256,t_uint256))"
      },
      {
        "astId": 12403,
        "contract": "contracts/ethereum/NFTVaultManager.sol:NFTVaultManager",
        "label": "pendingWithdraws",
        "offset": 0,
        "slot": "4",
        "type": "t_mapping(t_address,t_mapping(t_uint256,t_address))"
      },
      {
        "astId": 12411,
        "contract": "contracts/ethereum/NFTVaultManager.sol:NFTVaultManager",
        "label": "pendingChanges",
        "offset": 0,
        "slot": "5",
        "type": "t_mapping(t_address,t_mapping(t_uint256,t_struct(PendingChange)12967_storage))"
      },
      {
        "astId": 12414,
        "contract": "contracts/ethereum/NFTVaultManager.sol:NFTVaultManager",
        "label": "validatorOracleAddress",
        "offset": 0,
        "slot": "6",
        "type": "t_address"
      }
    ],
    "types": {
      "t_address": {
        "encoding": "inplace",
        "label": "address",
        "numberOfBytes": "20"
      },
      "t_bool": {
        "encoding": "inplace",
        "label": "bool",
        "numberOfBytes": "1"
      },
      "t_bytes32": {
        "encoding": "inplace",
        "label": "bytes32",
        "numberOfBytes": "32"
      },
      "t_mapping(t_address,t_bool)": {
        "encoding": "mapping",
        "key": "t_address",
        "label": "mapping(address => bool)",
        "numberOfBytes": "32",
        "value": "t_bool"
      },
      "t_mapping(t_address,t_mapping(t_uint256,t_address))": {
        "encoding": "mapping",
        "key": "t_address",
        "label": "mapping(address => mapping(uint256 => address))",
        "numberOfBytes": "32",
        "value": "t_mapping(t_uint256,t_address)"
      },
      "t_mapping(t_address,t_mapping(t_uint256,t_struct(PendingChange)12967_storage))": {
        "encoding": "mapping",
        "key": "t_address",
        "label": "mapping(address => mapping(uint256 => struct PendingChange))",
        "numberOfBytes": "32",
        "value": "t_mapping(t_uint256,t_struct(PendingChange)12967_storage)"
      },
      "t_mapping(t_address,t_mapping(t_uint256,t_uint256))": {
        "encoding": "mapping",
        "key": "t_address",
        "label": "mapping(address => mapping(uint256 => uint256))",
        "numberOfBytes": "32",
        "value": "t_mapping(t_uint256,t_uint256)"
      },
      "t_mapping(t_bytes32,t_struct(RoleData)3867_storage)": {
        "encoding": "mapping",
        "key": "t_bytes32",
        "label": "mapping(bytes32 => struct AccessControl.RoleData)",
        "numberOfBytes": "32",
        "value": "t_struct(RoleData)3867_storage"
      },
      "t_mapping(t_uint256,t_address)": {
        "encoding": "mapping",
        "key": "t_uint256",
        "label": "mapping(uint256 => address)",
        "numberOfBytes": "32",
        "value": "t_address"
      },
      "t_mapping(t_uint256,t_struct(PendingChange)12967_storage)": {
        "encoding": "mapping",
        "key": "t_uint256",
        "label": "mapping(uint256 => struct PendingChange)",
        "numberOfBytes": "32",
        "value": "t_struct(PendingChange)12967_storage"
      },
      "t_mapping(t_uint256,t_uint256)": {
        "encoding": "mapping",
        "key": "t_uint256",
        "label": "mapping(uint256 => uint256)",
        "numberOfBytes": "32",
        "value": "t_uint256"
      },
      "t_struct(PendingChange)12967_storage": {
        "encoding": "inplace",
        "label": "struct PendingChange",
        "members": [
          {
            "astId": 12964,
            "contract": "contracts/ethereum/NFTVaultManager.sol:NFTVaultManager",
            "label": "owner",
            "offset": 0,
            "slot": "0",
            "type": "t_address"
          },
          {
            "astId": 12966,
            "contract": "contracts/ethereum/NFTVaultManager.sol:NFTVaultManager",
            "label": "tokenTo",
            "offset": 0,
            "slot": "1",
            "type": "t_uint256"
          }
        ],
        "numberOfBytes": "64"
      },
      "t_struct(RoleData)3867_storage": {
        "encoding": "inplace",
        "label": "struct AccessControl.RoleData",
        "members": [
          {
            "astId": 3864,
            "contract": "contracts/ethereum/NFTVaultManager.sol:NFTVaultManager",
            "label": "members",
            "offset": 0,
            "slot": "0",
            "type": "t_mapping(t_address,t_bool)"
          },
          {
            "astId": 3866,
            "contract": "contracts/ethereum/NFTVaultManager.sol:NFTVaultManager",
            "label": "adminRole",
            "offset": 0,
            "slot": "1",
            "type": "t_bytes32"
          }
        ],
        "numberOfBytes": "64"
      },
      "t_uint256": {
        "encoding": "inplace",
        "label": "uint256",
        "numberOfBytes": "32"
      }
    }
  }
}