{
  "address": "0x91Fb7376b53FE717C27Ea3948e5C0B614980C593",
  "abi": [
    {
      "inputs": [
        {
          "internalType": "address",
          "name": "validatorOracleAddress_",
          "type": "address"
        }
      ],
      "stateMutability": "nonpayable",
      "type": "constructor"
    },
    {
      "anonymous": false,
      "inputs": [
        {
          "indexed": false,
          "internalType": "address",
          "name": "collection",
          "type": "address"
        },
        {
          "indexed": false,
          "internalType": "uint256",
          "name": "tokenFrom",
          "type": "uint256"
        },
        {
          "indexed": false,
          "internalType": "uint256",
          "name": "tokenTo",
          "type": "uint256"
        }
      ],
      "name": "ChangeApproved",
      "type": "event"
    },
    {
      "anonymous": false,
      "inputs": [
        {
          "indexed": false,
          "internalType": "address",
          "name": "collection",
          "type": "address"
        },
        {
          "indexed": false,
          "internalType": "uint256",
          "name": "tokenFrom",
          "type": "uint256"
        },
        {
          "indexed": false,
          "internalType": "uint256",
          "name": "tokenTo",
          "type": "uint256"
        }
      ],
      "name": "ChangeRequested",
      "type": "event"
    },
    {
      "anonymous": false,
      "inputs": [
        {
          "indexed": false,
          "internalType": "address",
          "name": "collection",
          "type": "address"
        },
        {
          "indexed": false,
          "internalType": "uint256",
          "name": "tokenId",
          "type": "uint256"
        },
        {
          "indexed": false,
          "internalType": "address",
          "name": "newOwner",
          "type": "address"
        }
      ],
      "name": "NFTUnlocked",
      "type": "event"
    },
    {
      "anonymous": false,
      "inputs": [
        {
          "indexed": true,
          "internalType": "bytes32",
          "name": "role",
          "type": "bytes32"
        },
        {
          "indexed": true,
          "internalType": "bytes32",
          "name": "previousAdminRole",
          "type": "bytes32"
        },
        {
          "indexed": true,
          "internalType": "bytes32",
          "name": "newAdminRole",
          "type": "bytes32"
        }
      ],
      "name": "RoleAdminChanged",
      "type": "event"
    },
    {
      "anonymous": false,
      "inputs": [
        {
          "indexed": true,
          "internalType": "bytes32",
          "name": "role",
          "type": "bytes32"
        },
        {
          "indexed": true,
          "internalType": "address",
          "name": "account",
          "type": "address"
        },
        {
          "indexed": true,
          "internalType": "address",
          "name": "sender",
          "type": "address"
        }
      ],
      "name": "RoleGranted",
      "type": "event"
    },
    {
      "anonymous": false,
      "inputs": [
        {
          "indexed": true,
          "internalType": "bytes32",
          "name": "role",
          "type": "bytes32"
        },
        {
          "indexed": true,
          "internalType": "address",
          "name": "account",
          "type": "address"
        },
        {
          "indexed": true,
          "internalType": "address",
          "name": "sender",
          "type": "address"
        }
      ],
      "name": "RoleRevoked",
      "type": "event"
    },
    {
      "anonymous": false,
      "inputs": [
        {
          "indexed": false,
          "internalType": "address",
          "name": "collection",
          "type": "address"
        },
        {
          "indexed": false,
          "internalType": "uint256",
          "name": "tokenId",
          "type": "uint256"
        }
      ],
      "name": "UnlockRequested",
      "type": "event"
    },
    {
      "inputs": [],
      "name": "DEFAULT_ADMIN_ROLE",
      "outputs": [
        {
          "internalType": "bytes32",
          "name": "",
          "type": "bytes32"
        }
      ],
      "stateMutability": "view",
      "type": "function"
    },
    {
      "inputs": [],
      "name": "MANAGER",
      "outputs": [
        {
          "internalType": "bytes32",
          "name": "",
          "type": "bytes32"
        }
      ],
      "stateMutability": "view",
      "type": "function"
    },
    {
      "inputs": [],
      "name": "VALIDATOR_ORACLE",
      "outputs": [
        {
          "internalType": "bytes32",
          "name": "",
          "type": "bytes32"
        }
      ],
      "stateMutability": "view",
      "type": "function"
    },
    {
      "inputs": [
        {
          "internalType": "address",
          "name": "collection_",
          "type": "address"
        },
        {
          "internalType": "uint256",
          "name": "tokenFrom_",
          "type": "uint256"
        },
        {
          "internalType": "uint256",
          "name": "tokenTo_",
          "type": "uint256"
        },
        {
          "internalType": "address",
          "name": "owner_",
          "type": "address"
        }
      ],
      "name": "changeNFTs",
      "outputs": [],
      "stateMutability": "nonpayable",
      "type": "function"
    },
    {
      "inputs": [
        {
          "internalType": "address",
          "name": "",
          "type": "address"
        },
        {
          "internalType": "uint256",
          "name": "",
          "type": "uint256"
        }
      ],
      "name": "changeNonces",
      "outputs": [
        {
          "internalType": "uint256",
          "name": "",
          "type": "uint256"
        }
      ],
      "stateMutability": "view",
      "type": "function"
    },
    {
      "inputs": [
        {
          "internalType": "bytes32",
          "name": "role",
          "type": "bytes32"
        }
      ],
      "name": "getRoleAdmin",
      "outputs": [
        {
          "internalType": "bytes32",
          "name": "",
          "type": "bytes32"
        }
      ],
      "stateMutability": "view",
      "type": "function"
    },
    {
      "inputs": [
        {
          "internalType": "bytes32",
          "name": "role",
          "type": "bytes32"
        },
        {
          "internalType": "address",
          "name": "account",
          "type": "address"
        }
      ],
      "name": "grantRole",
      "outputs": [],
      "stateMutability": "nonpayable",
      "type": "function"
    },
    {
      "inputs": [
        {
          "internalType": "bytes32",
          "name": "role",
          "type": "bytes32"
        },
        {
          "internalType": "address",
          "name": "account",
          "type": "address"
        }
      ],
      "name": "hasRole",
      "outputs": [
        {
          "internalType": "bool",
          "name": "",
          "type": "bool"
        }
      ],
      "stateMutability": "view",
      "type": "function"
    },
    {
      "inputs": [
        {
          "internalType": "address",
          "name": "collection_",
          "type": "address"
        },
        {
          "internalType": "uint256",
          "name": "tokenId_",
          "type": "uint256"
        }
      ],
      "name": "isTokenInVault",
      "outputs": [
        {
          "internalType": "bool",
          "name": "",
          "type": "bool"
        }
      ],
      "stateMutability": "view",
      "type": "function"
    },
    {
      "inputs": [
        {
          "internalType": "address",
          "name": "collection_",
          "type": "address"
        },
        {
          "internalType": "uint256",
          "name": "tokenId_",
          "type": "uint256"
        }
      ],
      "name": "lockNFT",
      "outputs": [],
      "stateMutability": "nonpayable",
      "type": "function"
    },
    {
      "inputs": [
        {
          "internalType": "address",
          "name": "",
          "type": "address"
        },
        {
          "internalType": "uint256",
          "name": "",
          "type": "uint256"
        }
      ],
      "name": "nonces",
      "outputs": [
        {
          "internalType": "uint256",
          "name": "",
          "type": "uint256"
        }
      ],
      "stateMutability": "view",
      "type": "function"
    },
    {
      "inputs": [
        {
          "internalType": "address",
          "name": "",
          "type": "address"
        },
        {
          "internalType": "uint256",
          "name": "",
          "type": "uint256"
        }
      ],
      "name": "pendingWithdraws",
      "outputs": [
        {
          "internalType": "address",
          "name": "",
          "type": "address"
        }
      ],
      "stateMutability": "view",
      "type": "function"
    },
    {
      "inputs": [
        {
          "internalType": "bytes32",
          "name": "role",
          "type": "bytes32"
        },
        {
          "internalType": "address",
          "name": "account",
          "type": "address"
        }
      ],
      "name": "renounceRole",
      "outputs": [],
      "stateMutability": "nonpayable",
      "type": "function"
    },
    {
      "inputs": [
        {
          "internalType": "address",
          "name": "collection_",
          "type": "address"
        },
        {
          "internalType": "uint256",
          "name": "tokenFrom_",
          "type": "uint256"
        },
        {
          "internalType": "uint256",
          "name": "tokenTo_",
          "type": "uint256"
        }
      ],
      "name": "requestChange",
      "outputs": [],
      "stateMutability": "nonpayable",
      "type": "function"
    },
    {
      "inputs": [
        {
          "internalType": "address",
          "name": "collection_",
          "type": "address"
        },
        {
          "internalType": "uint256",
          "name": "tokenId_",
          "type": "uint256"
        }
      ],
      "name": "requestUnlock",
      "outputs": [],
      "stateMutability": "nonpayable",
      "type": "function"
    },
    {
      "inputs": [
        {
          "internalType": "bytes32",
          "name": "role",
          "type": "bytes32"
        },
        {
          "internalType": "address",
          "name": "account",
          "type": "address"
        }
      ],
      "name": "revokeRole",
      "outputs": [],
      "stateMutability": "nonpayable",
      "type": "function"
    },
    {
      "inputs": [
        {
          "internalType": "bytes4",
          "name": "interfaceId",
          "type": "bytes4"
        }
      ],
      "name": "supportsInterface",
      "outputs": [
        {
          "internalType": "bool",
          "name": "",
          "type": "bool"
        }
      ],
      "stateMutability": "view",
      "type": "function"
    },
    {
      "inputs": [
        {
          "internalType": "address",
          "name": "collection_",
          "type": "address"
        },
        {
          "internalType": "uint256",
          "name": "tokenId_",
          "type": "uint256"
        },
        {
          "internalType": "address",
          "name": "newOwner",
          "type": "address"
        }
      ],
      "name": "unlockNFT",
      "outputs": [],
      "stateMutability": "nonpayable",
      "type": "function"
    },
    {
      "inputs": [
        {
          "internalType": "address",
          "name": "collection_",
          "type": "address"
        },
        {
          "internalType": "uint256",
          "name": "tokenId_",
          "type": "uint256"
        }
      ],
      "name": "withdraw",
      "outputs": [],
      "stateMutability": "nonpayable",
      "type": "function"
    }
  ],
  "transactionHash": "0x5db53120822ecc591d849ca172513cb81db73e2e27a8fbdacc25b76458dde112",
  "args": [
    "0x2Ade07b02EC780665aD88Fa1F539692B908ebb8b"
  ],
  "solcInputHash": "0e8299978f43dd1c678fda543157965a",
  "bytecode": "0x60806040523480156200001157600080fd5b506040516200152d3803806200152d83398101604081905262000034916200015e565b600580546001600160a01b0319166001600160a01b0383161790556200007b7f747c8a75243ae2ca1d188aaaeab610daf9d97e45b6513baed451ebf0b9ec74fd82620000ae565b620000a77faf290d8680820aad922855f39b306097b20e28774d6c1ad35a20325630c3a02c33620000ae565b506200018e565b620000ba8282620000be565b5050565b6000828152602081815260408083206001600160a01b038516845290915290205460ff16620000ba576000828152602081815260408083206001600160a01b03851684529091529020805460ff191660011790556200011a3390565b6001600160a01b0316816001600160a01b0316837f2f8788117e7eff1d82e926ec794901d17c78024a50270940304540a733656f0d60405160405180910390a45050565b60006020828403121562000170578081fd5b81516001600160a01b038116811462000187578182fd5b9392505050565b61138f806200019e6000396000f3fe608060405234801561001057600080fd5b50600436106101215760003560e01c80636957fb8a116100ad578063abacac2511610071578063abacac25146102fc578063d547741f14610323578063de20703514610336578063f015498e14610349578063f3fef3a31461035c57600080fd5b80636957fb8a1461029057806380769e98146102a357806391d14854146102ce578063a217fddf146102e1578063a9aadece146102e957600080fd5b806336568abe116100f457806336568abe146101bb5780633a404917146101ce578063428e173e146101e1578063502e1a16146102195780635802c89e1461024457600080fd5b806301ffc9a7146101265780631b2df8501461014e578063248a9ca3146101835780632f2ff15d146101a6575b600080fd5b6101396101343660046111d1565b61036f565b60405190151581526020015b60405180910390f35b6101757faf290d8680820aad922855f39b306097b20e28774d6c1ad35a20325630c3a02c81565b604051908152602001610145565b610175610191366004611176565b60009081526020819052604090206001015490565b6101b96101b43660046111a6565b6103a6565b005b6101b96101c93660046111a6565b6103d1565b6101b96101dc36600461109b565b610454565b6101396101ef36600461109b565b6001600160a01b039182166000908152600160209081526040808320938352929052205416151590565b61017561022736600461109b565b600260209081526000928352604080842090915290825290205481565b61027861025236600461109b565b60046020908152600092835260408084209091529082529020546001600160a01b031681565b6040516001600160a01b039091168152602001610145565b6101b961029e366004611131565b610555565b6101756102b136600461109b565b600360209081526000928352604080842090915290825290205481565b6101396102dc3660046111a6565b6106a7565b610175600081565b6101b96102f73660046110ff565b6106d0565b6101757f747c8a75243ae2ca1d188aaaeab610daf9d97e45b6513baed451ebf0b9ec74fd81565b6101b96103313660046111a6565b61096e565b6101b961034436600461109b565b610994565b6101b96103573660046110c4565b610b52565b6101b961036a36600461109b565b610bf9565b60006001600160e01b03198216637965db0b60e01b14806103a057506301ffc9a760e01b6001600160e01b03198316145b92915050565b6000828152602081905260409020600101546103c28133610d49565b6103cc8383610dad565b505050565b6001600160a01b03811633146104465760405162461bcd60e51b815260206004820152602f60248201527f416363657373436f6e74726f6c3a2063616e206f6e6c792072656e6f756e636560448201526e103937b632b9903337b91039b2b63360891b60648201526084015b60405180910390fd5b6104508282610e31565b5050565b6001600160a01b03828116600090815260016020908152604080832085845290915290205416156104be5760405162461bcd60e51b8152602060048201526014602482015273151bdad95b88185b1c9958591e481b1bd8dad95960621b604482015260640161043d565b6040516323b872dd60e01b81526001600160a01b038316906323b872dd906104ee9033903090869060040161126e565b600060405180830381600087803b15801561050857600080fd5b505af115801561051c573d6000803e3d6000fd5b5050506001600160a01b0390921660009081526001602090815260408083209383529290522080546001600160a01b0319163317905550565b7f747c8a75243ae2ca1d188aaaeab610daf9d97e45b6513baed451ebf0b9ec74fd6105808133610d49565b6001600160a01b0385811660008181526001602081815260408084208a8552825280842080546001600160a01b0319908116909155898552818520805490911696891696909617909555928252600383528382208883529092529182208054919290916105ee9084906112c5565b90915550506040516323b872dd60e01b81526001600160a01b038616906323b872dd906106239030908690899060040161126e565b600060405180830381600087803b15801561063d57600080fd5b505af1158015610651573d6000803e3d6000fd5b5050604080516001600160a01b0389168152602081018890529081018690527fc9cf03ebadb81068f95066168aa1a1ea807ccbc49d6e6b374aae849d9a4f688f9250606001905060405180910390a15050505050565b6000918252602082815260408084206001600160a01b0393909316845291905290205460ff1690565b6001600160a01b038381166000908152600160209081526040808320868452909152902054166107355760405162461bcd60e51b815260206004820152601060248201526f151bdad95b881b9bdd081b1bd8dad95960821b604482015260640161043d565b6001600160a01b038381166000908152600160209081526040808320858452909152902054161561079f5760405162461bcd60e51b8152602060048201526014602482015273151bdad95b88185b1c9958591e481b1bd8dad95960621b604482015260640161043d565b6001600160a01b03838116600090815260046020908152604080832086845290915290205416156108075760405162461bcd60e51b81526020600482015260126024820152712bb4ba34323930bbb0b13632903a37b5b2b760711b604482015260640161043d565b6040516323b872dd60e01b81526001600160a01b038416906323b872dd906108379033903090869060040161126e565b600060405180830381600087803b15801561085157600080fd5b505af1158015610865573d6000803e3d6000fd5b50506005546001600160a01b0386811660008181526003602090815260408083208a845290915290819020549051630ffb29ed60e01b815260048101929092526024820188905260448201879052336064830152608482015291169250630ffb29ed915060a401602060405180830381600087803b1580156108e657600080fd5b505af11580156108fa573d6000803e3d6000fd5b505050506040513d601f19601f8201168201806040525081019061091e919061118e565b50604080516001600160a01b0385168152602081018490529081018290527fdadde19e65bca0a068712079542bc41c8e51f5fa0e55a1434c6c89f06796ad2a9060600160405180910390a1505050565b60008281526020819052604090206001015461098a8133610d49565b6103cc8383610e31565b6001600160a01b038281166000908152600160209081526040808320858452909152902054166109f95760405162461bcd60e51b815260206004820152601060248201526f151bdad95b881b9bdd081b1bd8dad95960821b604482015260640161043d565b6001600160a01b0382811660009081526004602090815260408083208584529091529020541615610a635760405162461bcd60e51b8152602060048201526014602482015273416c726561647920776974686472617761626c6560601b604482015260640161043d565b6005546001600160a01b03838116600081815260026020908152604080832087845290915290819020549051630c85284b60e01b81526004810192909252602482018590526044820152911690630c85284b90606401602060405180830381600087803b158015610ad357600080fd5b505af1158015610ae7573d6000803e3d6000fd5b505050506040513d601f19601f82011682018060405250810190610b0b919061118e565b50604080516001600160a01b0384168152602081018390527fd843ce9ef55b27026be6c5e44e9f58097e0ebfa0d9d2d5823cb8ffa779585170910160405180910390a15050565b7f747c8a75243ae2ca1d188aaaeab610daf9d97e45b6513baed451ebf0b9ec74fd610b7d8133610d49565b6001600160a01b03848116600081815260046020908152604080832088845282529182902080546001600160a01b0319169487169485179055815192835282018690528101919091527fc82027111cdc25a13287e45aaad5b7c1b91e77bb72aa2a8cc6eb098f298224879060600160405180910390a150505050565b6001600160a01b038281166000908152600460209081526040808320858452909152902054163314610c6d5760405162461bcd60e51b815260206004820152601d60248201527f596f752063616e2774207769746864726177207468697320746f6b656e000000604482015260640161043d565b6001600160a01b0382166000818152600460209081526040808320858452825280832080546001600160a01b03199081169091558484526001808452828520878652845282852080549092169091559383526002825280832085845290915281208054909190610cde9084906112c5565b90915550506040516323b872dd60e01b81526001600160a01b038316906323b872dd90610d139030903390869060040161126e565b600060405180830381600087803b158015610d2d57600080fd5b505af1158015610d41573d6000803e3d6000fd5b505050505050565b610d5382826106a7565b61045057610d6b816001600160a01b03166014610e96565b610d76836020610e96565b604051602001610d879291906111f9565b60408051601f198184030181529082905262461bcd60e51b825261043d91600401611292565b610db782826106a7565b610450576000828152602081815260408083206001600160a01b03851684529091529020805460ff19166001179055610ded3390565b6001600160a01b0316816001600160a01b0316837f2f8788117e7eff1d82e926ec794901d17c78024a50270940304540a733656f0d60405160405180910390a45050565b610e3b82826106a7565b15610450576000828152602081815260408083206001600160a01b0385168085529252808320805460ff1916905551339285917ff6391f5c32d9c69d2a47ea670b442974b53935d1edc7fd64eb21e047a839171b9190a45050565b60606000610ea58360026112dd565b610eb09060026112c5565b67ffffffffffffffff811115610ed657634e487b7160e01b600052604160045260246000fd5b6040519080825280601f01601f191660200182016040528015610f00576020820181803683370190505b509050600360fc1b81600081518110610f2957634e487b7160e01b600052603260045260246000fd5b60200101906001600160f81b031916908160001a905350600f60fb1b81600181518110610f6657634e487b7160e01b600052603260045260246000fd5b60200101906001600160f81b031916908160001a9053506000610f8a8460026112dd565b610f959060016112c5565b90505b6001811115611029576f181899199a1a9b1b9c1cb0b131b232b360811b85600f1660108110610fd757634e487b7160e01b600052603260045260246000fd5b1a60f81b828281518110610ffb57634e487b7160e01b600052603260045260246000fd5b60200101906001600160f81b031916908160001a90535060049490941c936110228161132c565b9050610f98565b5083156110785760405162461bcd60e51b815260206004820181905260248201527f537472696e67733a20686578206c656e67746820696e73756666696369656e74604482015260640161043d565b9392505050565b80356001600160a01b038116811461109657600080fd5b919050565b600080604083850312156110ad578182fd5b6110b68361107f565b946020939093013593505050565b6000806000606084860312156110d8578081fd5b6110e18461107f565b9250602084013591506110f66040850161107f565b90509250925092565b600080600060608486031215611113578283fd5b61111c8461107f565b95602085013595506040909401359392505050565b60008060008060808587031215611146578081fd5b61114f8561107f565b9350602085013592506040850135915061116b6060860161107f565b905092959194509250565b600060208284031215611187578081fd5b5035919050565b60006020828403121561119f578081fd5b5051919050565b600080604083850312156111b8578182fd5b823591506111c86020840161107f565b90509250929050565b6000602082840312156111e2578081fd5b81356001600160e01b031981168114611078578182fd5b7f416363657373436f6e74726f6c3a206163636f756e74200000000000000000008152600083516112318160178501602088016112fc565b7001034b99036b4b9b9b4b733903937b6329607d1b60179184019182015283516112628160288401602088016112fc565b01602801949350505050565b6001600160a01b039384168152919092166020820152604081019190915260600190565b60208152600082518060208401526112b18160408501602087016112fc565b601f01601f19169190910160400192915050565b600082198211156112d8576112d8611343565b500190565b60008160001904831182151516156112f7576112f7611343565b500290565b60005b838110156113175781810151838201526020016112ff565b83811115611326576000848401525b50505050565b60008161133b5761133b611343565b506000190190565b634e487b7160e01b600052601160045260246000fdfea2646970667358221220a88e17e11ebc6a256e66058f9ac495c5f2e00ed130ef640f7358a8054320633c64736f6c63430008040033",
  "devdoc": {
    "kind": "dev",
    "methods": {
      "getRoleAdmin(bytes32)": {
        "details": "Returns the admin role that controls `role`. See {grantRole} and {revokeRole}. To change a role's admin, use {_setRoleAdmin}."
      },
      "grantRole(bytes32,address)": {
        "details": "Grants `role` to `account`. If `account` had not been already granted `role`, emits a {RoleGranted} event. Requirements: - the caller must have ``role``'s admin role."
      },
      "hasRole(bytes32,address)": {
        "details": "Returns `true` if `account` has been granted `role`."
      },
      "renounceRole(bytes32,address)": {
        "details": "Revokes `role` from the calling account. Roles are often managed via {grantRole} and {revokeRole}: this function's purpose is to provide a mechanism for accounts to lose their privileges if they are compromised (such as when a trusted device is misplaced). If the calling account had been granted `role`, emits a {RoleRevoked} event. Requirements: - the caller must be `account`."
      },
      "revokeRole(bytes32,address)": {
        "details": "Revokes `role` from `account`. If `account` had been granted `role`, emits a {RoleRevoked} event. Requirements: - the caller must have ``role``'s admin role."
      },
      "supportsInterface(bytes4)": {
        "details": "See {IERC165-supportsInterface}."
      }
    },
    "stateVariables": {
      "_holdings": {
        "details": "map to check if a holder has a token registered over an approved collection  COLLECTION_CONTRACT_ADDRESS => NFT_ID => HOLDER_ACCOUNT_ADDRESS OR ZERO_ADDRESS"
      },
      "changeNonces": {
        "details": "nonce to count the changes of an original collection token id      in order to avoid double change (with the second one keeping the synthetic playing)"
      },
      "nonces": {
        "details": "the nonces allow to check if a token is safely withdrawable (avoid double verifying)"
      },
      "pendingWithdraws": {
        "details": "tokens in this map can be retrieved by the owner (address returned)"
      }
    },
    "version": 1
  },
  "userdoc": {
    "kind": "user",
    "methods": {
      "isTokenInVault(address,uint256)": {
        "notice": "check if the vault holds a token"
      }
    },
    "version": 1
  },
  "storageLayout": {
    "storage": [
      {
        "astId": 2289,
        "contract": "contracts/ethereum/NFTVaultManager.sol:NFTVaultManager",
        "label": "_roles",
        "offset": 0,
        "slot": "0",
        "type": "t_mapping(t_bytes32,t_struct(RoleData)2284_storage)"
      },
      {
        "astId": 10121,
        "contract": "contracts/ethereum/NFTVaultManager.sol:NFTVaultManager",
        "label": "_holdings",
        "offset": 0,
        "slot": "1",
        "type": "t_mapping(t_address,t_mapping(t_uint256,t_address))"
      },
      {
        "astId": 10128,
        "contract": "contracts/ethereum/NFTVaultManager.sol:NFTVaultManager",
        "label": "nonces",
        "offset": 0,
        "slot": "2",
        "type": "t_mapping(t_address,t_mapping(t_uint256,t_uint256))"
      },
      {
        "astId": 10135,
        "contract": "contracts/ethereum/NFTVaultManager.sol:NFTVaultManager",
        "label": "changeNonces",
        "offset": 0,
        "slot": "3",
        "type": "t_mapping(t_address,t_mapping(t_uint256,t_uint256))"
      },
      {
        "astId": 10142,
        "contract": "contracts/ethereum/NFTVaultManager.sol:NFTVaultManager",
        "label": "pendingWithdraws",
        "offset": 0,
        "slot": "4",
        "type": "t_mapping(t_address,t_mapping(t_uint256,t_address))"
      },
      {
        "astId": 10144,
        "contract": "contracts/ethereum/NFTVaultManager.sol:NFTVaultManager",
        "label": "_validatorOracleAddress",
        "offset": 0,
        "slot": "5",
        "type": "t_address"
      }
    ],
    "types": {
      "t_address": {
        "encoding": "inplace",
        "label": "address",
        "numberOfBytes": "20"
      },
      "t_bool": {
        "encoding": "inplace",
        "label": "bool",
        "numberOfBytes": "1"
      },
      "t_bytes32": {
        "encoding": "inplace",
        "label": "bytes32",
        "numberOfBytes": "32"
      },
      "t_mapping(t_address,t_bool)": {
        "encoding": "mapping",
        "key": "t_address",
        "label": "mapping(address => bool)",
        "numberOfBytes": "32",
        "value": "t_bool"
      },
      "t_mapping(t_address,t_mapping(t_uint256,t_address))": {
        "encoding": "mapping",
        "key": "t_address",
        "label": "mapping(address => mapping(uint256 => address))",
        "numberOfBytes": "32",
        "value": "t_mapping(t_uint256,t_address)"
      },
      "t_mapping(t_address,t_mapping(t_uint256,t_uint256))": {
        "encoding": "mapping",
        "key": "t_address",
        "label": "mapping(address => mapping(uint256 => uint256))",
        "numberOfBytes": "32",
        "value": "t_mapping(t_uint256,t_uint256)"
      },
      "t_mapping(t_bytes32,t_struct(RoleData)2284_storage)": {
        "encoding": "mapping",
        "key": "t_bytes32",
        "label": "mapping(bytes32 => struct AccessControl.RoleData)",
        "numberOfBytes": "32",
        "value": "t_struct(RoleData)2284_storage"
      },
      "t_mapping(t_uint256,t_address)": {
        "encoding": "mapping",
        "key": "t_uint256",
        "label": "mapping(uint256 => address)",
        "numberOfBytes": "32",
        "value": "t_address"
      },
      "t_mapping(t_uint256,t_uint256)": {
        "encoding": "mapping",
        "key": "t_uint256",
        "label": "mapping(uint256 => uint256)",
        "numberOfBytes": "32",
        "value": "t_uint256"
      },
      "t_struct(RoleData)2284_storage": {
        "encoding": "inplace",
        "label": "struct AccessControl.RoleData",
        "members": [
          {
            "astId": 2281,
            "contract": "contracts/ethereum/NFTVaultManager.sol:NFTVaultManager",
            "label": "members",
            "offset": 0,
            "slot": "0",
            "type": "t_mapping(t_address,t_bool)"
          },
          {
            "astId": 2283,
            "contract": "contracts/ethereum/NFTVaultManager.sol:NFTVaultManager",
            "label": "adminRole",
            "offset": 0,
            "slot": "1",
            "type": "t_bytes32"
          }
        ],
        "numberOfBytes": "64"
      },
      "t_uint256": {
        "encoding": "inplace",
        "label": "uint256",
        "numberOfBytes": "32"
      }
    }
  }
}