{
  "address": "0x2d78C028cD5357c33f7307a65c48afa8aCaADbA7",
  "abi": [
    {
      "inputs": [
        {
          "internalType": "address",
          "name": "validatorOracleAddress_",
          "type": "address"
        }
      ],
      "stateMutability": "nonpayable",
      "type": "constructor"
    },
    {
      "anonymous": false,
      "inputs": [
        {
          "indexed": false,
          "internalType": "address",
          "name": "collection",
          "type": "address"
        },
        {
          "indexed": false,
          "internalType": "uint256",
          "name": "tokenId",
          "type": "uint256"
        },
        {
          "indexed": false,
          "internalType": "address",
          "name": "newOwner",
          "type": "address"
        }
      ],
      "name": "NFTUnlocked",
      "type": "event"
    },
    {
      "anonymous": false,
      "inputs": [
        {
          "indexed": true,
          "internalType": "bytes32",
          "name": "role",
          "type": "bytes32"
        },
        {
          "indexed": true,
          "internalType": "bytes32",
          "name": "previousAdminRole",
          "type": "bytes32"
        },
        {
          "indexed": true,
          "internalType": "bytes32",
          "name": "newAdminRole",
          "type": "bytes32"
        }
      ],
      "name": "RoleAdminChanged",
      "type": "event"
    },
    {
      "anonymous": false,
      "inputs": [
        {
          "indexed": true,
          "internalType": "bytes32",
          "name": "role",
          "type": "bytes32"
        },
        {
          "indexed": true,
          "internalType": "address",
          "name": "account",
          "type": "address"
        },
        {
          "indexed": true,
          "internalType": "address",
          "name": "sender",
          "type": "address"
        }
      ],
      "name": "RoleGranted",
      "type": "event"
    },
    {
      "anonymous": false,
      "inputs": [
        {
          "indexed": true,
          "internalType": "bytes32",
          "name": "role",
          "type": "bytes32"
        },
        {
          "indexed": true,
          "internalType": "address",
          "name": "account",
          "type": "address"
        },
        {
          "indexed": true,
          "internalType": "address",
          "name": "sender",
          "type": "address"
        }
      ],
      "name": "RoleRevoked",
      "type": "event"
    },
    {
      "anonymous": false,
      "inputs": [
        {
          "indexed": false,
          "internalType": "address",
          "name": "collection",
          "type": "address"
        },
        {
          "indexed": false,
          "internalType": "uint256",
          "name": "tokenId",
          "type": "uint256"
        }
      ],
      "name": "UnlockRequested",
      "type": "event"
    },
    {
      "inputs": [],
      "name": "DEFAULT_ADMIN_ROLE",
      "outputs": [
        {
          "internalType": "bytes32",
          "name": "",
          "type": "bytes32"
        }
      ],
      "stateMutability": "view",
      "type": "function"
    },
    {
      "inputs": [],
      "name": "MANAGER",
      "outputs": [
        {
          "internalType": "bytes32",
          "name": "",
          "type": "bytes32"
        }
      ],
      "stateMutability": "view",
      "type": "function"
    },
    {
      "inputs": [],
      "name": "VALIDATOR_ORACLE",
      "outputs": [
        {
          "internalType": "bytes32",
          "name": "",
          "type": "bytes32"
        }
      ],
      "stateMutability": "view",
      "type": "function"
    },
    {
      "inputs": [
        {
          "internalType": "bytes32",
          "name": "role",
          "type": "bytes32"
        }
      ],
      "name": "getRoleAdmin",
      "outputs": [
        {
          "internalType": "bytes32",
          "name": "",
          "type": "bytes32"
        }
      ],
      "stateMutability": "view",
      "type": "function"
    },
    {
      "inputs": [
        {
          "internalType": "bytes32",
          "name": "role",
          "type": "bytes32"
        },
        {
          "internalType": "address",
          "name": "account",
          "type": "address"
        }
      ],
      "name": "grantRole",
      "outputs": [],
      "stateMutability": "nonpayable",
      "type": "function"
    },
    {
      "inputs": [
        {
          "internalType": "bytes32",
          "name": "role",
          "type": "bytes32"
        },
        {
          "internalType": "address",
          "name": "account",
          "type": "address"
        }
      ],
      "name": "hasRole",
      "outputs": [
        {
          "internalType": "bool",
          "name": "",
          "type": "bool"
        }
      ],
      "stateMutability": "view",
      "type": "function"
    },
    {
      "inputs": [
        {
          "internalType": "address",
          "name": "collection_",
          "type": "address"
        },
        {
          "internalType": "uint256",
          "name": "tokenId_",
          "type": "uint256"
        }
      ],
      "name": "isTokenInVault",
      "outputs": [
        {
          "internalType": "bool",
          "name": "",
          "type": "bool"
        }
      ],
      "stateMutability": "view",
      "type": "function"
    },
    {
      "inputs": [
        {
          "internalType": "address",
          "name": "collection_",
          "type": "address"
        },
        {
          "internalType": "uint256",
          "name": "tokenId_",
          "type": "uint256"
        }
      ],
      "name": "lockNFT",
      "outputs": [],
      "stateMutability": "nonpayable",
      "type": "function"
    },
    {
      "inputs": [
        {
          "internalType": "address",
          "name": "",
          "type": "address"
        },
        {
          "internalType": "uint256",
          "name": "",
          "type": "uint256"
        }
      ],
      "name": "nonces",
      "outputs": [
        {
          "internalType": "uint256",
          "name": "",
          "type": "uint256"
        }
      ],
      "stateMutability": "view",
      "type": "function"
    },
    {
      "inputs": [
        {
          "internalType": "address",
          "name": "",
          "type": "address"
        },
        {
          "internalType": "uint256",
          "name": "",
          "type": "uint256"
        }
      ],
      "name": "pendingWithdraws",
      "outputs": [
        {
          "internalType": "address",
          "name": "",
          "type": "address"
        }
      ],
      "stateMutability": "view",
      "type": "function"
    },
    {
      "inputs": [
        {
          "internalType": "bytes32",
          "name": "role",
          "type": "bytes32"
        },
        {
          "internalType": "address",
          "name": "account",
          "type": "address"
        }
      ],
      "name": "renounceRole",
      "outputs": [],
      "stateMutability": "nonpayable",
      "type": "function"
    },
    {
      "inputs": [
        {
          "internalType": "address",
          "name": "collection_",
          "type": "address"
        },
        {
          "internalType": "uint256",
          "name": "tokenId_",
          "type": "uint256"
        }
      ],
      "name": "requestUnlock",
      "outputs": [],
      "stateMutability": "nonpayable",
      "type": "function"
    },
    {
      "inputs": [
        {
          "internalType": "bytes32",
          "name": "role",
          "type": "bytes32"
        },
        {
          "internalType": "address",
          "name": "account",
          "type": "address"
        }
      ],
      "name": "revokeRole",
      "outputs": [],
      "stateMutability": "nonpayable",
      "type": "function"
    },
    {
      "inputs": [
        {
          "internalType": "bytes4",
          "name": "interfaceId",
          "type": "bytes4"
        }
      ],
      "name": "supportsInterface",
      "outputs": [
        {
          "internalType": "bool",
          "name": "",
          "type": "bool"
        }
      ],
      "stateMutability": "view",
      "type": "function"
    },
    {
      "inputs": [
        {
          "internalType": "address",
          "name": "collection_",
          "type": "address"
        },
        {
          "internalType": "uint256",
          "name": "tokenId_",
          "type": "uint256"
        },
        {
          "internalType": "address",
          "name": "newOwner",
          "type": "address"
        }
      ],
      "name": "unlockNFT",
      "outputs": [],
      "stateMutability": "nonpayable",
      "type": "function"
    },
    {
      "inputs": [
        {
          "internalType": "address",
          "name": "collection_",
          "type": "address"
        },
        {
          "internalType": "uint256",
          "name": "tokenId_",
          "type": "uint256"
        }
      ],
      "name": "withdraw",
      "outputs": [],
      "stateMutability": "nonpayable",
      "type": "function"
    }
  ],
  "transactionHash": "0xdc72cf696023b5fdfb2c2ca1bc64338ddd9617fe610192bac2c692ae654b87f6",
  "args": [
    "0x4f3f22EB1Df566A930f365b56d1230AA73aBa0d0"
  ],
  "solcInputHash": "dbc990dbd439091e43e17a94da519917",
  "bytecode": "0x608060405234801561001057600080fd5b50604051610f9e380380610f9e83398101604081905261002f91610150565b600480546001600160a01b0319166001600160a01b0383161790556100747f747c8a75243ae2ca1d188aaaeab610daf9d97e45b6513baed451ebf0b9ec74fd826100a4565b61009e7faf290d8680820aad922855f39b306097b20e28774d6c1ad35a20325630c3a02c336100a4565b5061017e565b6100ae82826100b2565b5050565b6000828152602081815260408083206001600160a01b038516845290915290205460ff166100ae576000828152602081815260408083206001600160a01b03851684529091529020805460ff1916600117905561010c3390565b6001600160a01b0316816001600160a01b0316837f2f8788117e7eff1d82e926ec794901d17c78024a50270940304540a733656f0d60405160405180910390a45050565b600060208284031215610161578081fd5b81516001600160a01b0381168114610177578182fd5b9392505050565b610e118061018d6000396000f3fe608060405234801561001057600080fd5b50600436106101005760003560e01c80635802c89e11610097578063d547741f11610066578063d547741f146102b1578063de207035146102c4578063f015498e146102d7578063f3fef3a3146102ea57600080fd5b80635802c89e1461022357806391d148541461026f578063a217fddf14610282578063abacac251461028a57600080fd5b806336568abe116100d357806336568abe1461019a5780633a404917146101ad578063428e173e146101c0578063502e1a16146101f857600080fd5b806301ffc9a7146101055780631b2df8501461012d578063248a9ca3146101625780632f2ff15d14610185575b600080fd5b610118610113366004610c77565b6102fd565b60405190151581526020015b60405180910390f35b6101547faf290d8680820aad922855f39b306097b20e28774d6c1ad35a20325630c3a02c81565b604051908152602001610124565b610154610170366004610c1c565b60009081526020819052604090206001015490565b610198610193366004610c4c565b610334565b005b6101986101a8366004610c4c565b61035f565b6101986101bb366004610bb8565b6103e2565b6101186101ce366004610bb8565b6001600160a01b039182166000908152600160209081526040808320938352929052205416151590565b610154610206366004610bb8565b600260209081526000928352604080842090915290825290205481565b610257610231366004610bb8565b60036020908152600092835260408084209091529082529020546001600160a01b031681565b6040516001600160a01b039091168152602001610124565b61011861027d366004610c4c565b6104e7565b610154600081565b6101547f747c8a75243ae2ca1d188aaaeab610daf9d97e45b6513baed451ebf0b9ec74fd81565b6101986102bf366004610c4c565b610510565b6101986102d2366004610bb8565b610536565b6101986102e5366004610be1565b610689565b6101986102f8366004610bb8565b610730565b60006001600160e01b03198216637965db0b60e01b148061032e57506301ffc9a760e01b6001600160e01b03198316145b92915050565b6000828152602081905260409020600101546103508133610866565b61035a83836108ca565b505050565b6001600160a01b03811633146103d45760405162461bcd60e51b815260206004820152602f60248201527f416363657373436f6e74726f6c3a2063616e206f6e6c792072656e6f756e636560448201526e103937b632b9903337b91039b2b63360891b60648201526084015b60405180910390fd5b6103de828261094e565b5050565b6001600160a01b038281166000908152600160209081526040808320858452909152902054161561044c5760405162461bcd60e51b8152602060048201526014602482015273151bdad95b88185b1c9958591e481b1bd8dad95960621b60448201526064016103cb565b6040516323b872dd60e01b8152336004820152306024820152604481018290526001600160a01b038316906323b872dd90606401600060405180830381600087803b15801561049a57600080fd5b505af11580156104ae573d6000803e3d6000fd5b5050506001600160a01b0390921660009081526001602090815260408083209383529290522080546001600160a01b0319163317905550565b6000918252602082815260408084206001600160a01b0393909316845291905290205460ff1690565b60008281526020819052604090206001015461052c8133610866565b61035a838361094e565b6001600160a01b0382811660009081526001602090815260408083208584529091529020541661059b5760405162461bcd60e51b815260206004820152601060248201526f151bdad95b881b9bdd081b1bd8dad95960821b60448201526064016103cb565b600480546001600160a01b03848116600081815260026020908152604080832088845290915290819020549051630c85284b60e01b8152948501919091526024840185905260448401521690630c85284b90606401602060405180830381600087803b15801561060a57600080fd5b505af115801561061e573d6000803e3d6000fd5b505050506040513d601f19601f820116820180604052508101906106429190610c34565b50604080516001600160a01b0384168152602081018390527fd843ce9ef55b27026be6c5e44e9f58097e0ebfa0d9d2d5823cb8ffa779585170910160405180910390a15050565b7f747c8a75243ae2ca1d188aaaeab610daf9d97e45b6513baed451ebf0b9ec74fd6106b48133610866565b6001600160a01b03848116600081815260036020908152604080832088845282529182902080546001600160a01b0319169487169485179055815192835282018690528101919091527fc82027111cdc25a13287e45aaad5b7c1b91e77bb72aa2a8cc6eb098f298224879060600160405180910390a150505050565b6001600160a01b0382811660009081526003602090815260408083208584529091529020541633146107a45760405162461bcd60e51b815260206004820152601f60248201527f596f752063616e206e6f74207769746864726177207468697320746f6b656e0060448201526064016103cb565b6001600160a01b0382166000818152600160208181526040808420868552825280842080546001600160a01b031916905593835260028152838320858452905291812080549091906107f7908490610d47565b90915550506040516323b872dd60e01b8152306004820152336024820152604481018290526001600160a01b038316906323b872dd90606401600060405180830381600087803b15801561084a57600080fd5b505af115801561085e573d6000803e3d6000fd5b505050505050565b61087082826104e7565b6103de57610888816001600160a01b031660146109b3565b6108938360206109b3565b6040516020016108a4929190610c9f565b60408051601f198184030181529082905262461bcd60e51b82526103cb91600401610d14565b6108d482826104e7565b6103de576000828152602081815260408083206001600160a01b03851684529091529020805460ff1916600117905561090a3390565b6001600160a01b0316816001600160a01b0316837f2f8788117e7eff1d82e926ec794901d17c78024a50270940304540a733656f0d60405160405180910390a45050565b61095882826104e7565b156103de576000828152602081815260408083206001600160a01b0385168085529252808320805460ff1916905551339285917ff6391f5c32d9c69d2a47ea670b442974b53935d1edc7fd64eb21e047a839171b9190a45050565b606060006109c2836002610d5f565b6109cd906002610d47565b67ffffffffffffffff8111156109f357634e487b7160e01b600052604160045260246000fd5b6040519080825280601f01601f191660200182016040528015610a1d576020820181803683370190505b509050600360fc1b81600081518110610a4657634e487b7160e01b600052603260045260246000fd5b60200101906001600160f81b031916908160001a905350600f60fb1b81600181518110610a8357634e487b7160e01b600052603260045260246000fd5b60200101906001600160f81b031916908160001a9053506000610aa7846002610d5f565b610ab2906001610d47565b90505b6001811115610b46576f181899199a1a9b1b9c1cb0b131b232b360811b85600f1660108110610af457634e487b7160e01b600052603260045260246000fd5b1a60f81b828281518110610b1857634e487b7160e01b600052603260045260246000fd5b60200101906001600160f81b031916908160001a90535060049490941c93610b3f81610dae565b9050610ab5565b508315610b955760405162461bcd60e51b815260206004820181905260248201527f537472696e67733a20686578206c656e67746820696e73756666696369656e7460448201526064016103cb565b9392505050565b80356001600160a01b0381168114610bb357600080fd5b919050565b60008060408385031215610bca578182fd5b610bd383610b9c565b946020939093013593505050565b600080600060608486031215610bf5578081fd5b610bfe84610b9c565b925060208401359150610c1360408501610b9c565b90509250925092565b600060208284031215610c2d578081fd5b5035919050565b600060208284031215610c45578081fd5b5051919050565b60008060408385031215610c5e578182fd5b82359150610c6e60208401610b9c565b90509250929050565b600060208284031215610c88578081fd5b81356001600160e01b031981168114610b95578182fd5b7f416363657373436f6e74726f6c3a206163636f756e7420000000000000000000815260008351610cd7816017850160208801610d7e565b7001034b99036b4b9b9b4b733903937b6329607d1b6017918401918201528351610d08816028840160208801610d7e565b01602801949350505050565b6020815260008251806020840152610d33816040850160208701610d7e565b601f01601f19169190910160400192915050565b60008219821115610d5a57610d5a610dc5565b500190565b6000816000190483118215151615610d7957610d79610dc5565b500290565b60005b83811015610d99578181015183820152602001610d81565b83811115610da8576000848401525b50505050565b600081610dbd57610dbd610dc5565b506000190190565b634e487b7160e01b600052601160045260246000fdfea26469706673582212201367cc8818853e1ba9099edc01531436d161102492f38e600560da52b7356f2364736f6c63430008040033",
  "devdoc": {
    "kind": "dev",
    "methods": {
      "getRoleAdmin(bytes32)": {
        "details": "Returns the admin role that controls `role`. See {grantRole} and {revokeRole}. To change a role's admin, use {_setRoleAdmin}."
      },
      "grantRole(bytes32,address)": {
        "details": "Grants `role` to `account`. If `account` had not been already granted `role`, emits a {RoleGranted} event. Requirements: - the caller must have ``role``'s admin role."
      },
      "hasRole(bytes32,address)": {
        "details": "Returns `true` if `account` has been granted `role`."
      },
      "renounceRole(bytes32,address)": {
        "details": "Revokes `role` from the calling account. Roles are often managed via {grantRole} and {revokeRole}: this function's purpose is to provide a mechanism for accounts to lose their privileges if they are compromised (such as when a trusted device is misplaced). If the calling account had been granted `role`, emits a {RoleRevoked} event. Requirements: - the caller must be `account`."
      },
      "revokeRole(bytes32,address)": {
        "details": "Revokes `role` from `account`. If `account` had been granted `role`, emits a {RoleRevoked} event. Requirements: - the caller must have ``role``'s admin role."
      },
      "supportsInterface(bytes4)": {
        "details": "See {IERC165-supportsInterface}."
      }
    },
    "stateVariables": {
      "_holdings": {
        "details": "map to check if a holder has a token registered over an approved collection  COLLECTION_CONTRACT_ADDRESS => NFT_ID => HOLDER_ACCOUNT_ADDRESS OR ZERO_ADDRESS"
      },
      "nonces": {
        "details": "the nonces allow to check if a token is safely withdrawable (avoid double verifying)"
      },
      "pendingWithdraws": {
        "details": "tokens in this map can be retrieved by the owner (address returned)"
      }
    },
    "version": 1
  },
  "userdoc": {
    "kind": "user",
    "methods": {
      "isTokenInVault(address,uint256)": {
        "notice": "check if the vault holds a token"
      }
    },
    "version": 1
  },
  "storageLayout": {
    "storage": [
      {
        "astId": 2284,
        "contract": "contracts/ethereum/NFTVaultManager.sol:NFTVaultManager",
        "label": "_roles",
        "offset": 0,
        "slot": "0",
        "type": "t_mapping(t_bytes32,t_struct(RoleData)2279_storage)"
      },
      {
        "astId": 10116,
        "contract": "contracts/ethereum/NFTVaultManager.sol:NFTVaultManager",
        "label": "_holdings",
        "offset": 0,
        "slot": "1",
        "type": "t_mapping(t_address,t_mapping(t_uint256,t_address))"
      },
      {
        "astId": 10123,
        "contract": "contracts/ethereum/NFTVaultManager.sol:NFTVaultManager",
        "label": "nonces",
        "offset": 0,
        "slot": "2",
        "type": "t_mapping(t_address,t_mapping(t_uint256,t_uint256))"
      },
      {
        "astId": 10130,
        "contract": "contracts/ethereum/NFTVaultManager.sol:NFTVaultManager",
        "label": "pendingWithdraws",
        "offset": 0,
        "slot": "3",
        "type": "t_mapping(t_address,t_mapping(t_uint256,t_address))"
      },
      {
        "astId": 10132,
        "contract": "contracts/ethereum/NFTVaultManager.sol:NFTVaultManager",
        "label": "_validatorOracleAddress",
        "offset": 0,
        "slot": "4",
        "type": "t_address"
      }
    ],
    "types": {
      "t_address": {
        "encoding": "inplace",
        "label": "address",
        "numberOfBytes": "20"
      },
      "t_bool": {
        "encoding": "inplace",
        "label": "bool",
        "numberOfBytes": "1"
      },
      "t_bytes32": {
        "encoding": "inplace",
        "label": "bytes32",
        "numberOfBytes": "32"
      },
      "t_mapping(t_address,t_bool)": {
        "encoding": "mapping",
        "key": "t_address",
        "label": "mapping(address => bool)",
        "numberOfBytes": "32",
        "value": "t_bool"
      },
      "t_mapping(t_address,t_mapping(t_uint256,t_address))": {
        "encoding": "mapping",
        "key": "t_address",
        "label": "mapping(address => mapping(uint256 => address))",
        "numberOfBytes": "32",
        "value": "t_mapping(t_uint256,t_address)"
      },
      "t_mapping(t_address,t_mapping(t_uint256,t_uint256))": {
        "encoding": "mapping",
        "key": "t_address",
        "label": "mapping(address => mapping(uint256 => uint256))",
        "numberOfBytes": "32",
        "value": "t_mapping(t_uint256,t_uint256)"
      },
      "t_mapping(t_bytes32,t_struct(RoleData)2279_storage)": {
        "encoding": "mapping",
        "key": "t_bytes32",
        "label": "mapping(bytes32 => struct AccessControl.RoleData)",
        "numberOfBytes": "32",
        "value": "t_struct(RoleData)2279_storage"
      },
      "t_mapping(t_uint256,t_address)": {
        "encoding": "mapping",
        "key": "t_uint256",
        "label": "mapping(uint256 => address)",
        "numberOfBytes": "32",
        "value": "t_address"
      },
      "t_mapping(t_uint256,t_uint256)": {
        "encoding": "mapping",
        "key": "t_uint256",
        "label": "mapping(uint256 => uint256)",
        "numberOfBytes": "32",
        "value": "t_uint256"
      },
      "t_struct(RoleData)2279_storage": {
        "encoding": "inplace",
        "label": "struct AccessControl.RoleData",
        "members": [
          {
            "astId": 2276,
            "contract": "contracts/ethereum/NFTVaultManager.sol:NFTVaultManager",
            "label": "members",
            "offset": 0,
            "slot": "0",
            "type": "t_mapping(t_address,t_bool)"
          },
          {
            "astId": 2278,
            "contract": "contracts/ethereum/NFTVaultManager.sol:NFTVaultManager",
            "label": "adminRole",
            "offset": 0,
            "slot": "1",
            "type": "t_bytes32"
          }
        ],
        "numberOfBytes": "64"
      },
      "t_uint256": {
        "encoding": "inplace",
        "label": "uint256",
        "numberOfBytes": "32"
      }
    }
  }
}