{
  "_format": "hh-sol-artifact-1",
  "contractName": "NFTVaultManager",
  "sourceName": "contracts/ethereum/NFTVaultManager.sol",
  "abi": [
    {
      "inputs": [
        {
          "internalType": "address",
          "name": "validatorOracleAddress_",
          "type": "address"
        }
      ],
      "stateMutability": "nonpayable",
      "type": "constructor"
    },
    {
      "anonymous": false,
      "inputs": [
        {
          "indexed": false,
          "internalType": "address",
          "name": "collection",
          "type": "address"
        },
        {
          "indexed": false,
          "internalType": "uint256",
          "name": "tokenFrom",
          "type": "uint256"
        },
        {
          "indexed": false,
          "internalType": "uint256",
          "name": "tokenTo",
          "type": "uint256"
        }
      ],
      "name": "ChangeApproveRequested",
      "type": "event"
    },
    {
      "anonymous": false,
      "inputs": [
        {
          "indexed": true,
          "internalType": "bytes32",
          "name": "requestId",
          "type": "bytes32"
        },
        {
          "indexed": false,
          "internalType": "address",
          "name": "collection",
          "type": "address"
        },
        {
          "indexed": false,
          "internalType": "uint256",
          "name": "tokenFrom",
          "type": "uint256"
        },
        {
          "indexed": false,
          "internalType": "uint256",
          "name": "tokenTo",
          "type": "uint256"
        },
        {
          "indexed": false,
          "internalType": "bool",
          "name": "response",
          "type": "bool"
        }
      ],
      "name": "ChangeResponseReceived",
      "type": "event"
    },
    {
      "anonymous": false,
      "inputs": [
        {
          "indexed": true,
          "internalType": "bytes32",
          "name": "role",
          "type": "bytes32"
        },
        {
          "indexed": true,
          "internalType": "bytes32",
          "name": "previousAdminRole",
          "type": "bytes32"
        },
        {
          "indexed": true,
          "internalType": "bytes32",
          "name": "newAdminRole",
          "type": "bytes32"
        }
      ],
      "name": "RoleAdminChanged",
      "type": "event"
    },
    {
      "anonymous": false,
      "inputs": [
        {
          "indexed": true,
          "internalType": "bytes32",
          "name": "role",
          "type": "bytes32"
        },
        {
          "indexed": true,
          "internalType": "address",
          "name": "account",
          "type": "address"
        },
        {
          "indexed": true,
          "internalType": "address",
          "name": "sender",
          "type": "address"
        }
      ],
      "name": "RoleGranted",
      "type": "event"
    },
    {
      "anonymous": false,
      "inputs": [
        {
          "indexed": true,
          "internalType": "bytes32",
          "name": "role",
          "type": "bytes32"
        },
        {
          "indexed": true,
          "internalType": "address",
          "name": "account",
          "type": "address"
        },
        {
          "indexed": true,
          "internalType": "address",
          "name": "sender",
          "type": "address"
        }
      ],
      "name": "RoleRevoked",
      "type": "event"
    },
    {
      "anonymous": false,
      "inputs": [
        {
          "indexed": true,
          "internalType": "bytes32",
          "name": "requestId",
          "type": "bytes32"
        },
        {
          "indexed": false,
          "internalType": "address",
          "name": "collection",
          "type": "address"
        },
        {
          "indexed": false,
          "internalType": "uint256",
          "name": "tokenId",
          "type": "uint256"
        }
      ],
      "name": "UnlockRequested",
      "type": "event"
    },
    {
      "anonymous": false,
      "inputs": [
        {
          "indexed": true,
          "internalType": "bytes32",
          "name": "requestId",
          "type": "bytes32"
        },
        {
          "indexed": false,
          "internalType": "address",
          "name": "collection",
          "type": "address"
        },
        {
          "indexed": false,
          "internalType": "uint256",
          "name": "tokenId",
          "type": "uint256"
        },
        {
          "indexed": false,
          "internalType": "address",
          "name": "newOwner",
          "type": "address"
        }
      ],
      "name": "WithdrawResponseReceived",
      "type": "event"
    },
    {
      "inputs": [],
      "name": "DEFAULT_ADMIN_ROLE",
      "outputs": [
        {
          "internalType": "bytes32",
          "name": "",
          "type": "bytes32"
        }
      ],
      "stateMutability": "view",
      "type": "function"
    },
    {
      "inputs": [],
      "name": "VALIDATOR_ORACLE",
      "outputs": [
        {
          "internalType": "bytes32",
          "name": "",
          "type": "bytes32"
        }
      ],
      "stateMutability": "view",
      "type": "function"
    },
    {
      "inputs": [
        {
          "internalType": "address",
          "name": "collection_",
          "type": "address"
        },
        {
          "internalType": "uint256",
          "name": "tokenFrom_",
          "type": "uint256"
        },
        {
          "internalType": "uint256",
          "name": "tokenTo_",
          "type": "uint256"
        }
      ],
      "name": "change",
      "outputs": [],
      "stateMutability": "nonpayable",
      "type": "function"
    },
    {
      "inputs": [
        {
          "internalType": "address",
          "name": "",
          "type": "address"
        },
        {
          "internalType": "uint256",
          "name": "",
          "type": "uint256"
        }
      ],
      "name": "changeNonces",
      "outputs": [
        {
          "internalType": "uint256",
          "name": "",
          "type": "uint256"
        }
      ],
      "stateMutability": "view",
      "type": "function"
    },
    {
      "inputs": [
        {
          "internalType": "bytes32",
          "name": "role",
          "type": "bytes32"
        }
      ],
      "name": "getRoleAdmin",
      "outputs": [
        {
          "internalType": "bytes32",
          "name": "",
          "type": "bytes32"
        }
      ],
      "stateMutability": "view",
      "type": "function"
    },
    {
      "inputs": [
        {
          "internalType": "bytes32",
          "name": "role",
          "type": "bytes32"
        },
        {
          "internalType": "address",
          "name": "account",
          "type": "address"
        }
      ],
      "name": "grantRole",
      "outputs": [],
      "stateMutability": "nonpayable",
      "type": "function"
    },
    {
      "inputs": [
        {
          "internalType": "bytes32",
          "name": "role",
          "type": "bytes32"
        },
        {
          "internalType": "address",
          "name": "account",
          "type": "address"
        }
      ],
      "name": "hasRole",
      "outputs": [
        {
          "internalType": "bool",
          "name": "",
          "type": "bool"
        }
      ],
      "stateMutability": "view",
      "type": "function"
    },
    {
      "inputs": [
        {
          "internalType": "address",
          "name": "collection_",
          "type": "address"
        },
        {
          "internalType": "uint256",
          "name": "tokenId_",
          "type": "uint256"
        }
      ],
      "name": "isTokenInVault",
      "outputs": [
        {
          "internalType": "bool",
          "name": "",
          "type": "bool"
        }
      ],
      "stateMutability": "view",
      "type": "function"
    },
    {
      "inputs": [
        {
          "internalType": "address",
          "name": "collection_",
          "type": "address"
        },
        {
          "internalType": "uint256",
          "name": "tokenId_",
          "type": "uint256"
        }
      ],
      "name": "lockNFT",
      "outputs": [],
      "stateMutability": "nonpayable",
      "type": "function"
    },
    {
      "inputs": [
        {
          "internalType": "address",
          "name": "",
          "type": "address"
        },
        {
          "internalType": "uint256",
          "name": "",
          "type": "uint256"
        }
      ],
      "name": "nonces",
      "outputs": [
        {
          "internalType": "uint256",
          "name": "",
          "type": "uint256"
        }
      ],
      "stateMutability": "view",
      "type": "function"
    },
    {
      "inputs": [
        {
          "internalType": "address",
          "name": "",
          "type": "address"
        },
        {
          "internalType": "uint256",
          "name": "",
          "type": "uint256"
        }
      ],
      "name": "pendingChanges",
      "outputs": [
        {
          "internalType": "address",
          "name": "owner",
          "type": "address"
        },
        {
          "internalType": "uint256",
          "name": "tokenTo",
          "type": "uint256"
        }
      ],
      "stateMutability": "view",
      "type": "function"
    },
    {
      "inputs": [
        {
          "internalType": "address",
          "name": "",
          "type": "address"
        },
        {
          "internalType": "uint256",
          "name": "",
          "type": "uint256"
        }
      ],
      "name": "pendingWithdraws",
      "outputs": [
        {
          "internalType": "address",
          "name": "",
          "type": "address"
        }
      ],
      "stateMutability": "view",
      "type": "function"
    },
    {
      "inputs": [
        {
          "internalType": "address",
          "name": "collection_",
          "type": "address"
        },
        {
          "internalType": "uint256",
          "name": "tokenFrom_",
          "type": "uint256"
        },
        {
          "internalType": "uint256",
          "name": "tokenTo_",
          "type": "uint256"
        },
        {
          "internalType": "address",
          "name": "owner_",
          "type": "address"
        },
        {
          "internalType": "bool",
          "name": "changeable_",
          "type": "bool"
        },
        {
          "internalType": "bytes32",
          "name": "requestId_",
          "type": "bytes32"
        }
      ],
      "name": "processChange",
      "outputs": [],
      "stateMutability": "nonpayable",
      "type": "function"
    },
    {
      "inputs": [
        {
          "internalType": "bytes32",
          "name": "role",
          "type": "bytes32"
        },
        {
          "internalType": "address",
          "name": "account",
          "type": "address"
        }
      ],
      "name": "renounceRole",
      "outputs": [],
      "stateMutability": "nonpayable",
      "type": "function"
    },
    {
      "inputs": [
        {
          "internalType": "address",
          "name": "collection_",
          "type": "address"
        },
        {
          "internalType": "uint256",
          "name": "tokenFrom_",
          "type": "uint256"
        },
        {
          "internalType": "uint256",
          "name": "tokenTo_",
          "type": "uint256"
        }
      ],
      "name": "requestChange",
      "outputs": [],
      "stateMutability": "nonpayable",
      "type": "function"
    },
    {
      "inputs": [
        {
          "internalType": "address",
          "name": "collection_",
          "type": "address"
        },
        {
          "internalType": "uint256",
          "name": "tokenId_",
          "type": "uint256"
        }
      ],
      "name": "requestUnlock",
      "outputs": [],
      "stateMutability": "nonpayable",
      "type": "function"
    },
    {
      "inputs": [
        {
          "internalType": "bytes32",
          "name": "role",
          "type": "bytes32"
        },
        {
          "internalType": "address",
          "name": "account",
          "type": "address"
        }
      ],
      "name": "revokeRole",
      "outputs": [],
      "stateMutability": "nonpayable",
      "type": "function"
    },
    {
      "inputs": [
        {
          "internalType": "bytes4",
          "name": "interfaceId",
          "type": "bytes4"
        }
      ],
      "name": "supportsInterface",
      "outputs": [
        {
          "internalType": "bool",
          "name": "",
          "type": "bool"
        }
      ],
      "stateMutability": "view",
      "type": "function"
    },
    {
      "inputs": [
        {
          "internalType": "bytes32",
          "name": "requestId_",
          "type": "bytes32"
        },
        {
          "internalType": "address",
          "name": "collection_",
          "type": "address"
        },
        {
          "internalType": "uint256",
          "name": "tokenId_",
          "type": "uint256"
        },
        {
          "internalType": "address",
          "name": "newOwner",
          "type": "address"
        }
      ],
      "name": "unlockNFT",
      "outputs": [],
      "stateMutability": "nonpayable",
      "type": "function"
    },
    {
      "inputs": [
        {
          "internalType": "address",
          "name": "collection_",
          "type": "address"
        },
        {
          "internalType": "uint256",
          "name": "tokenId_",
          "type": "uint256"
        }
      ],
      "name": "withdraw",
      "outputs": [],
      "stateMutability": "nonpayable",
      "type": "function"
    }
  ],
  "bytecode": "0x60806040523480156200001157600080fd5b50604051620017fc380380620017fc833981016040819052620000349162000132565b600680546001600160a01b0319166001600160a01b0383161790556200007b7f747c8a75243ae2ca1d188aaaeab610daf9d97e45b6513baed451ebf0b9ec74fd8262000082565b5062000162565b6200008e828262000092565b5050565b6000828152602081815260408083206001600160a01b038516845290915290205460ff166200008e576000828152602081815260408083206001600160a01b03851684529091529020805460ff19166001179055620000ee3390565b6001600160a01b0316816001600160a01b0316837f2f8788117e7eff1d82e926ec794901d17c78024a50270940304540a733656f0d60405160405180910390a45050565b60006020828403121562000144578081fd5b81516001600160a01b03811681146200015b578182fd5b9392505050565b61168a80620001726000396000f3fe608060405234801561001057600080fd5b506004361061012c5760003560e01c8063a217fddf116100ad578063d0e0096511610071578063d0e009651461031a578063d547741f14610377578063d574f46c1461038a578063de2070351461039d578063f3fef3a3146103b057600080fd5b8063a217fddf146102b2578063a865bf89146102ba578063a9112140146102cd578063a9aadece146102e0578063abacac25146102f357600080fd5b8063428e173e116100f4578063428e173e146101c5578063502e1a16146101fd5780635802c89e1461022857806380769e981461027457806391d148541461029f57600080fd5b806301ffc9a714610131578063248a9ca3146101595780632f2ff15d1461018a57806336568abe1461019f5780633a404917146101b2575b600080fd5b61014461013f3660046114cc565b6103c3565b60405190151581526020015b60405180910390f35b61017c61016736600461142c565b60009081526020819052604090206001015490565b604051908152602001610150565b61019d61019836600461145c565b6103fa565b005b61019d6101ad36600461145c565b610425565b61019d6101c036600461136b565b6104a8565b6101446101d336600461136b565b6001600160a01b039182166000908152600160209081526040808320938352929052205416151590565b61017c61020b36600461136b565b600260209081526000928352604080842090915290825290205481565b61025c61023636600461136b565b60046020908152600092835260408084209091529082529020546001600160a01b031681565b6040516001600160a01b039091168152602001610150565b61017c61028236600461136b565b600360209081526000928352604080842090915290825290205481565b6101446102ad36600461145c565b6105a9565b61017c600081565b61019d6102c8366004611487565b6105d2565b61019d6102db366004611394565b6106c6565b61019d6102ee366004611394565b6108f9565b61017c7f747c8a75243ae2ca1d188aaaeab610daf9d97e45b6513baed451ebf0b9ec74fd81565b61035861032836600461136b565b6005602090815260009283526040808420909152908252902080546001909101546001600160a01b039091169082565b604080516001600160a01b039093168352602083019190915201610150565b61019d61038536600461145c565b610ba9565b61019d6103983660046113c6565b610bcf565b61019d6103ab36600461136b565b610d0c565b61019d6103be36600461136b565b610ed1565b60006001600160e01b03198216637965db0b60e01b14806103f457506301ffc9a760e01b6001600160e01b03198316145b92915050565b6000828152602081905260409020600101546104168133611019565b610420838361107d565b505050565b6001600160a01b038116331461049a5760405162461bcd60e51b815260206004820152602f60248201527f416363657373436f6e74726f6c3a2063616e206f6e6c792072656e6f756e636560448201526e103937b632b9903337b91039b2b63360891b60648201526084015b60405180910390fd5b6104a48282611101565b5050565b6001600160a01b03828116600090815260016020908152604080832085845290915290205416156105125760405162461bcd60e51b8152602060048201526014602482015273151bdad95b88185b1c9958591e481b1bd8dad95960621b6044820152606401610491565b6040516323b872dd60e01b81526001600160a01b038316906323b872dd9061054290339030908690600401611569565b600060405180830381600087803b15801561055c57600080fd5b505af1158015610570573d6000803e3d6000fd5b5050506001600160a01b0390921660009081526001602090815260408083209383529290522080546001600160a01b0319163317905550565b6000918252602082815260408084206001600160a01b0393909316845291905290205460ff1690565b7f747c8a75243ae2ca1d188aaaeab610daf9d97e45b6513baed451ebf0b9ec74fd6105fd8133611019565b6001600160a01b03848116600090815260016020908152604080832087845290915290205416156106bf576001600160a01b03821615610671576001600160a01b038481166000908152600460209081526040808320878452909152902080546001600160a01b0319169184169190911790555b604080516001600160a01b03868116825260208201869052841681830152905186917f2cdf40344d878a961ef279e6fbcaa42b3afa8a4359eada285c09d799a9f5e591919081900360600190a25b5050505050565b6001600160a01b03808416600090815260056020908152604080832086845282529182902082518084019093528054909316825260019092015491810182905290821461074b5760405162461bcd60e51b81526020600482015260136024820152724e6f6e20617070726f766564206368616e676560681b6044820152606401610491565b80516001600160a01b0316331461079c5760405162461bcd60e51b81526020600482015260156024820152744f6e6c79206f776e65722063616e206368616e676560581b6044820152606401610491565b6001600160a01b03808516600081815260016020818152604080842089855280835281852080546001600160a01b0319908116909155868652600584528286208b87528452828620805482168155850186905588518a87529184528286208054929098169116179095559282526003835283822087835290925291822080549192909161082a9084906115c0565b90915550506040516323b872dd60e01b81526001600160a01b038516906323b872dd9061085f90339030908790600401611569565b600060405180830381600087803b15801561087957600080fd5b505af115801561088d573d6000803e3d6000fd5b50506040516323b872dd60e01b81526001600160a01b03871692506323b872dd91506108c190309033908890600401611569565b600060405180830381600087803b1580156108db57600080fd5b505af11580156108ef573d6000803e3d6000fd5b5050505050505050565b6001600160a01b0383811660009081526001602090815260408083208684529091529020541661095e5760405162461bcd60e51b815260206004820152601060248201526f151bdad95b881b9bdd081b1bd8dad95960821b6044820152606401610491565b6001600160a01b03838116600090815260016020908152604080832085845290915290205416156109c85760405162461bcd60e51b8152602060048201526014602482015273151bdad95b88185b1c9958591e481b1bd8dad95960621b6044820152606401610491565b6001600160a01b0383811660009081526004602090815260408083208684529091529020541615610a305760405162461bcd60e51b81526020600482015260126024820152712bb4ba34323930bbb0b13632903a37b5b2b760711b6044820152606401610491565b6001600160a01b038316600090815260056020908152604080832085845290915290206001015415610aa45760405162461bcd60e51b815260206004820152601760248201527f4368616e676520616c726561647920617070726f7665640000000000000000006044820152606401610491565b6006546001600160a01b03848116600081815260036020908152604080832088845290915290819020549051630ffb29ed60e01b8152600481019290925260248201869052604482018590523360648301526084820152911690630ffb29ed9060a401602060405180830381600087803b158015610b2157600080fd5b505af1158015610b35573d6000803e3d6000fd5b505050506040513d601f19601f82011682018060405250810190610b599190611444565b50604080516001600160a01b0385168152602081018490529081018290527f044c8a401492aa25e3899924d1ae9ddcc1ef9a99aedef27f3b702782f5081e8b9060600160405180910390a1505050565b600082815260208190526040902060010154610bc58133611019565b6104208383611101565b7f747c8a75243ae2ca1d188aaaeab610daf9d97e45b6513baed451ebf0b9ec74fd610bfa8133611019565b6001600160a01b0387811660009081526001602090815260408083208a84529091529020541615801590610c5157506001600160a01b03878116600090815260016020908152604080832089845290915290205416155b15610d03578215610cae576040805180820182526001600160a01b03868116825260208083018981528b83166000908152600583528581208c8252909252939020915182546001600160a01b031916911617815590516001909101555b604080516001600160a01b038916815260208101889052908101869052831515606082015282907f9cc08b652558ad0d32a05868cb6dc740e61e5c99ea201addb9ec107dfbc036aa9060800160405180910390a25b50505050505050565b6001600160a01b03828116600090815260016020908152604080832085845290915290205416610d715760405162461bcd60e51b815260206004820152601060248201526f151bdad95b881b9bdd081b1bd8dad95960821b6044820152606401610491565b6001600160a01b0382811660009081526004602090815260408083208584529091529020541615610ddb5760405162461bcd60e51b8152602060048201526014602482015273416c726561647920776974686472617761626c6560601b6044820152606401610491565b6006546001600160a01b038381166000818152600260209081526040808320878452909152808220549051630c85284b60e01b81526004810193909352602483018690526044830152929190911690630c85284b90606401602060405180830381600087803b158015610e4d57600080fd5b505af1158015610e61573d6000803e3d6000fd5b505050506040513d601f19601f82011682018060405250810190610e859190611444565b604080516001600160a01b03861681526020810185905291925082917ffc72bbe2858daa3c5e979a90386125316b9034f6644459cc5cc1cb2299b70896910160405180910390a2505050565b6001600160a01b038281166000908152600460209081526040808320858452909152902054163314610f3d5760405162461bcd60e51b81526020600482015260156024820152744e6f6e20617070726f76656420776974686472617760581b6044820152606401610491565b6001600160a01b0382166000818152600460209081526040808320858452825280832080546001600160a01b03199081169091558484526001808452828520878652845282852080549092169091559383526002825280832085845290915281208054909190610fae9084906115c0565b90915550506040516323b872dd60e01b81526001600160a01b038316906323b872dd90610fe390309033908690600401611569565b600060405180830381600087803b158015610ffd57600080fd5b505af1158015611011573d6000803e3d6000fd5b505050505050565b61102382826105a9565b6104a45761103b816001600160a01b03166014611166565b611046836020611166565b6040516020016110579291906114f4565b60408051601f198184030181529082905262461bcd60e51b82526104919160040161158d565b61108782826105a9565b6104a4576000828152602081815260408083206001600160a01b03851684529091529020805460ff191660011790556110bd3390565b6001600160a01b0316816001600160a01b0316837f2f8788117e7eff1d82e926ec794901d17c78024a50270940304540a733656f0d60405160405180910390a45050565b61110b82826105a9565b156104a4576000828152602081815260408083206001600160a01b0385168085529252808320805460ff1916905551339285917ff6391f5c32d9c69d2a47ea670b442974b53935d1edc7fd64eb21e047a839171b9190a45050565b606060006111758360026115d8565b6111809060026115c0565b67ffffffffffffffff8111156111a657634e487b7160e01b600052604160045260246000fd5b6040519080825280601f01601f1916602001820160405280156111d0576020820181803683370190505b509050600360fc1b816000815181106111f957634e487b7160e01b600052603260045260246000fd5b60200101906001600160f81b031916908160001a905350600f60fb1b8160018151811061123657634e487b7160e01b600052603260045260246000fd5b60200101906001600160f81b031916908160001a905350600061125a8460026115d8565b6112659060016115c0565b90505b60018111156112f9576f181899199a1a9b1b9c1cb0b131b232b360811b85600f16601081106112a757634e487b7160e01b600052603260045260246000fd5b1a60f81b8282815181106112cb57634e487b7160e01b600052603260045260246000fd5b60200101906001600160f81b031916908160001a90535060049490941c936112f281611627565b9050611268565b5083156113485760405162461bcd60e51b815260206004820181905260248201527f537472696e67733a20686578206c656e67746820696e73756666696369656e746044820152606401610491565b9392505050565b80356001600160a01b038116811461136657600080fd5b919050565b6000806040838503121561137d578182fd5b6113868361134f565b946020939093013593505050565b6000806000606084860312156113a8578081fd5b6113b18461134f565b95602085013595506040909401359392505050565b60008060008060008060c087890312156113de578182fd5b6113e78761134f565b955060208701359450604087013593506114036060880161134f565b925060808701358015158114611417578283fd5b8092505060a087013590509295509295509295565b60006020828403121561143d578081fd5b5035919050565b600060208284031215611455578081fd5b5051919050565b6000806040838503121561146e578182fd5b8235915061147e6020840161134f565b90509250929050565b6000806000806080858703121561149c578384fd5b843593506114ac6020860161134f565b9250604085013591506114c16060860161134f565b905092959194509250565b6000602082840312156114dd578081fd5b81356001600160e01b031981168114611348578182fd5b7f416363657373436f6e74726f6c3a206163636f756e742000000000000000000081526000835161152c8160178501602088016115f7565b7001034b99036b4b9b9b4b733903937b6329607d1b601791840191820152835161155d8160288401602088016115f7565b01602801949350505050565b6001600160a01b039384168152919092166020820152604081019190915260600190565b60208152600082518060208401526115ac8160408501602087016115f7565b601f01601f19169190910160400192915050565b600082198211156115d3576115d361163e565b500190565b60008160001904831182151516156115f2576115f261163e565b500290565b60005b838110156116125781810151838201526020016115fa565b83811115611621576000848401525b50505050565b6000816116365761163661163e565b506000190190565b634e487b7160e01b600052601160045260246000fdfea26469706673582212202c8bd0f8409aab9d874b49e94f4294c2f90d78bc895af4109ff8c1e2f869045a64736f6c63430008040033",
  "linkReferences": {},
  "deployedLinkReferences": {}
}