{
  "contractName": "ArtistsPool",
  "abi": [
    {
      "inputs": [],
      "name": "initialize",
      "outputs": [],
      "stateMutability": "nonpayable",
      "type": "function"
    }
  ],
  "bytecode": "0x608060405234801561001057600080fd5b506101ec806100206000396000f3fe608060405234801561001057600080fd5b506004361061002b5760003560e01c80638129fc1c14610030575b600080fd5b61003861003a565b005b600060019054906101000a900460ff1680610060575060008054906101000a900460ff16155b61009f576040517f08c379a000000000000000000000000000000000000000000000000000000000815260040161009690610136565b60405180910390fd5b60008060019054906101000a900460ff1615905080156100ef576001600060016101000a81548160ff02191690831515021790555060016000806101000a81548160ff0219169083151502179055505b80156101105760008060016101000a81548160ff0219169083151502179055505b50565b6000610120602e83610156565b915061012b82610167565b604082019050919050565b6000602082019050818103600083015261014f81610113565b9050919050565b600082825260208201905092915050565b7f496e697469616c697a61626c653a20636f6e747261637420697320616c72656160008201527f647920696e697469616c697a656400000000000000000000000000000000000060208201525056fea26469706673582212200e57e9bb11a7da563f2724a9c9c1ad9cf50ab3962ca3b15660944e326cb4871464736f6c63430008060033",
  "immutableReferences": {},
  "source": "// SPDX-License-Identifier: MIT\npragma solidity ^0.8.0;\n\nimport \"@openzeppelin/contracts/proxy/utils/Initializable.sol\";\n\n/**\n * @title song artists pool contract implementation for minimal proxy multiple deployments\n * @author Eric Nordelo\n */\ncontract ArtistsPool is Initializable {\n    /**\n     * @notice initializes the minimal proxy clone\n     */\n    function initialize() external initializer {}\n}\n",
  "sourcePath": "/Users/angelsatorresalmenara/Desktop/privi-trax-smart-contracts/contracts/implementations/ArtistsPool.sol",
  "compiler": {
    "name": "solc",
    "version": "0.8.6+commit.11564f7e.Emscripten.clang"
  },
  "schemaVersion": "3.4.2",
  "updatedAt": "2021-09-02T15:30:08.546Z",
  "networkType": "ethereum",
  "devdoc": {
    "author": "Eric Nordelo",
    "kind": "dev",
    "methods": {},
    "title": "song artists pool contract implementation for minimal proxy multiple deployments",
    "version": 1
  },
  "userdoc": {
    "kind": "user",
    "methods": {
      "initialize()": {
        "notice": "initializes the minimal proxy clone"
      }
    },
    "version": 1
  }
}