{
  "contractName": "BopGenerator",
  "abi": [
    {
      "inputs": [],
      "stateMutability": "nonpayable",
      "type": "constructor"
    },
    {
      "anonymous": false,
      "inputs": [
        {
          "indexed": true,
          "internalType": "uint64",
          "name": "parentId1",
          "type": "uint64"
        },
        {
          "indexed": true,
          "internalType": "uint64",
          "name": "parentId2",
          "type": "uint64"
        },
        {
          "indexed": false,
          "internalType": "bytes32",
          "name": "requestId",
          "type": "bytes32"
        }
      ],
      "name": "CombinedBops",
      "type": "event"
    },
    {
      "anonymous": false,
      "inputs": [
        {
          "indexed": true,
          "internalType": "uint64",
          "name": "parentId1",
          "type": "uint64"
        },
        {
          "indexed": true,
          "internalType": "uint64",
          "name": "parentId2",
          "type": "uint64"
        },
        {
          "indexed": false,
          "internalType": "uint256",
          "name": "songId",
          "type": "uint256"
        }
      ],
      "name": "CreatedBop",
      "type": "event"
    },
    {
      "anonymous": false,
      "inputs": [
        {
          "indexed": true,
          "internalType": "address",
          "name": "previousOwner",
          "type": "address"
        },
        {
          "indexed": true,
          "internalType": "address",
          "name": "newOwner",
          "type": "address"
        }
      ],
      "name": "OwnershipTransferred",
      "type": "event"
    },
    {
      "inputs": [],
      "name": "minBeatsToCreateBop",
      "outputs": [
        {
          "internalType": "uint256",
          "name": "",
          "type": "uint256"
        }
      ],
      "stateMutability": "view",
      "type": "function",
      "constant": true
    },
    {
      "inputs": [],
      "name": "minTraxToCreateBop",
      "outputs": [
        {
          "internalType": "uint256",
          "name": "",
          "type": "uint256"
        }
      ],
      "stateMutability": "view",
      "type": "function",
      "constant": true
    },
    {
      "inputs": [],
      "name": "owner",
      "outputs": [
        {
          "internalType": "address",
          "name": "",
          "type": "address"
        }
      ],
      "stateMutability": "view",
      "type": "function",
      "constant": true
    },
    {
      "inputs": [],
      "name": "renounceOwnership",
      "outputs": [],
      "stateMutability": "nonpayable",
      "type": "function"
    },
    {
      "inputs": [
        {
          "internalType": "address",
          "name": "newOwner",
          "type": "address"
        }
      ],
      "name": "transferOwnership",
      "outputs": [],
      "stateMutability": "nonpayable",
      "type": "function"
    },
    {
      "inputs": [],
      "name": "waitTime",
      "outputs": [
        {
          "internalType": "uint256",
          "name": "",
          "type": "uint256"
        }
      ],
      "stateMutability": "view",
      "type": "function",
      "constant": true
    },
    {
      "inputs": [
        {
          "internalType": "address",
          "name": "_songAddress",
          "type": "address"
        },
        {
          "internalType": "address",
          "name": "_songOracleAddress",
          "type": "address"
        },
        {
          "internalType": "address",
          "name": "_stakingToken",
          "type": "address"
        }
      ],
      "name": "initialize",
      "outputs": [],
      "stateMutability": "nonpayable",
      "type": "function"
    },
    {
      "inputs": [
        {
          "internalType": "uint256",
          "name": "inputBeats",
          "type": "uint256"
        },
        {
          "internalType": "uint64",
          "name": "parentId1",
          "type": "uint64"
        },
        {
          "internalType": "uint64",
          "name": "parentId2",
          "type": "uint64"
        }
      ],
      "name": "combineBops",
      "outputs": [],
      "stateMutability": "nonpayable",
      "type": "function"
    },
    {
      "inputs": [
        {
          "internalType": "uint256",
          "name": "inputBeats",
          "type": "uint256"
        },
        {
          "internalType": "uint64",
          "name": "parentId1",
          "type": "uint64"
        },
        {
          "internalType": "uint64",
          "name": "parentId2",
          "type": "uint64"
        }
      ],
      "name": "createBop",
      "outputs": [],
      "stateMutability": "nonpayable",
      "type": "function"
    },
    {
      "inputs": [
        {
          "internalType": "uint256",
          "name": "_inSeconds",
          "type": "uint256"
        }
      ],
      "name": "setWaitTime",
      "outputs": [],
      "stateMutability": "nonpayable",
      "type": "function"
    },
    {
      "inputs": [
        {
          "internalType": "uint256",
          "name": "minBeats",
          "type": "uint256"
        }
      ],
      "name": "setMinBeats",
      "outputs": [],
      "stateMutability": "nonpayable",
      "type": "function"
    },
    {
      "inputs": [
        {
          "internalType": "uint256",
          "name": "minTrax",
          "type": "uint256"
        }
      ],
      "name": "setMinTrax",
      "outputs": [],
      "stateMutability": "nonpayable",
      "type": "function"
    }
  ],
  "bytecode": "0x608060405260076001556012600a62000019919062000185565b6001620000279190620002c2565b6002553480156200003757600080fd5b50620000586200004c6200005e60201b60201c565b6200006660201b60201c565b62000369565b600033905090565b60008060009054906101000a900473ffffffffffffffffffffffffffffffffffffffff169050816000806101000a81548173ffffffffffffffffffffffffffffffffffffffff021916908373ffffffffffffffffffffffffffffffffffffffff1602179055508173ffffffffffffffffffffffffffffffffffffffff168173ffffffffffffffffffffffffffffffffffffffff167f8be0079c531659141344cd1fd0a4f28419497f9722a3daafe3b4186f6b6457e060405160405180910390a35050565b6000808291508390505b60018511156200017c578086048111156200015457620001536200032d565b5b6001851615620001645780820291505b808102905062000174856200035c565b945062000134565b94509492505050565b6000620001928262000323565b91506200019f8362000323565b9250620001ce7fffffffffffffffffffffffffffffffffffffffffffffffffffffffffffffffff8484620001d6565b905092915050565b600082620001e85760019050620002bb565b81620001f85760009050620002bb565b81600181146200021157600281146200021c5762000252565b6001915050620002bb565b60ff8411156200023157620002306200032d565b5b8360020a9150848211156200024b576200024a6200032d565b5b50620002bb565b5060208310610133831016604e8410600b84101617156200028c5782820a9050838111156200028657620002856200032d565b5b620002bb565b6200029b84848460016200012a565b92509050818404811115620002b557620002b46200032d565b5b81810290505b9392505050565b6000620002cf8262000323565b9150620002dc8362000323565b9250817fffffffffffffffffffffffffffffffffffffffffffffffffffffffffffffffff04831182151516156200031857620003176200032d565b5b828202905092915050565b6000819050919050565b7f4e487b7100000000000000000000000000000000000000000000000000000000600052601160045260246000fd5b60008160011c9050919050565b611a6280620003796000396000f3fe608060405234801561001057600080fd5b50600436106100b45760003560e01c8063c0c53b8b11610071578063c0c53b8b14610153578063cbbe25ea1461016f578063ccca123b1461018d578063df351aaf146101ab578063f2fde38b146101c7578063fc4fdcd8146101e3576100b4565b8063137049a2146100b9578063715018a6146100d55780638da5cb5b146100df578063a9a806b3146100fd578063af2fa96c1461011b578063bec1377014610137575b600080fd5b6100d360048036038101906100ce9190611044565b6101ff565b005b6100dd6102c9565b005b6100e7610351565b6040516100f491906112ce565b60405180910390f35b61010561037a565b6040516101129190611477565b60405180910390f35b61013560048036038101906101309190611044565b610380565b005b610151600480360381019061014c919061109e565b610462565b005b61016d60048036038101906101689190610fc4565b61088d565b005b610177610a2f565b6040516101849190611477565b60405180910390f35b610195610a35565b6040516101a29190611477565b60405180910390f35b6101c560048036038101906101c09190611044565b610a3b565b005b6101e160048036038101906101dc9190610f97565b610b04565b005b6101fd60048036038101906101f8919061109e565b610bfc565b005b610207610e16565b73ffffffffffffffffffffffffffffffffffffffff16610225610351565b73ffffffffffffffffffffffffffffffffffffffff161461027b576040517f08c379a0000000000000000000000000000000000000000000000000000000008152600401610272906113f7565b60405180910390fd5b60008114156102bf576040517f08c379a00000000000000000000000000000000000000000000000000000000081526004016102b690611397565b60405180910390fd5b8060038190555050565b6102d1610e16565b73ffffffffffffffffffffffffffffffffffffffff166102ef610351565b73ffffffffffffffffffffffffffffffffffffffff1614610345576040517f08c379a000000000000000000000000000000000000000000000000000000000815260040161033c906113f7565b60405180910390fd5b61034f6000610e1e565b565b60008060009054906101000a900473ffffffffffffffffffffffffffffffffffffffff16905090565b60025481565b610388610e16565b73ffffffffffffffffffffffffffffffffffffffff166103a6610351565b73ffffffffffffffffffffffffffffffffffffffff16146103fc576040517f08c379a00000000000000000000000000000000000000000000000000000000081526004016103f3906113f7565b60405180910390fd5b6000811415610440576040517f08c379a000000000000000000000000000000000000000000000000000000000815260040161043790611397565b60405180910390fd5b6012600a61044e919061155b565b816104599190611679565b60028190555050565b61046a610e16565b73ffffffffffffffffffffffffffffffffffffffff16610488610351565b73ffffffffffffffffffffffffffffffffffffffff16146104de576040517f08c379a00000000000000000000000000000000000000000000000000000000081526004016104d5906113f7565b60405180910390fd5b6003548311610522576040517f08c379a000000000000000000000000000000000000000000000000000000000815260040161051990611417565b60405180910390fd5b60006105428367ffffffffffffffff168367ffffffffffffffff16610ee2565b905060006008600083815260200190815260200160002054905060006009600084815260200190815260200160002054905061057d81610f15565b156105bd576040517f08c379a00000000000000000000000000000000000000000000000000000000081526004016105b490611457565b60405180910390fd5b6000600460009054906101000a900473ffffffffffffffffffffffffffffffffffffffff1673ffffffffffffffffffffffffffffffffffffffff1663aa58e8ec846040518263ffffffff1660e01b815260040161061a919061133c565b60206040518083038186803b15801561063257600080fd5b505afa158015610646573d6000803e3d6000fd5b505050506040513d601f19601f8201168201806040525081019061066a9190611071565b905060008114156106b0576040517f08c379a00000000000000000000000000000000000000000000000000000000081526004016106a7906113d7565b60405180910390fd5b60006002549050600560009054906101000a900473ffffffffffffffffffffffffffffffffffffffff1673ffffffffffffffffffffffffffffffffffffffff16631d9a9ea283600660009054906101000a900473ffffffffffffffffffffffffffffffffffffffff166040518363ffffffff1660e01b8152600401610736929190611492565b600060405180830381600087803b15801561075057600080fd5b505af1158015610764573d6000803e3d6000fd5b50505050600560009054906101000a900473ffffffffffffffffffffffffffffffffffffffff1673ffffffffffffffffffffffffffffffffffffffff1663972ec97a600760009054906101000a900473ffffffffffffffffffffffffffffffffffffffff168989858d6040518663ffffffff1660e01b81526004016107ed9594939291906112e9565b600060405180830381600087803b15801561080757600080fd5b505af115801561081b573d6000803e3d6000fd5b5050505060086000868152602001908152602001600020600090558567ffffffffffffffff168767ffffffffffffffff167fa545b764749b1252fcaaafff571bad4fca70ccce856d3c642a7af2a051f0b65a8460405161087b9190611477565b60405180910390a35050505050505050565b600060159054906101000a900460ff16806108b55750600060149054906101000a900460ff16155b6108f4576040517f08c379a00000000000000000000000000000000000000000000000000000000081526004016108eb906113b7565b60405180910390fd5b60008060159054906101000a900460ff161590508015610945576001600060156101000a81548160ff0219169083151502179055506001600060146101000a81548160ff0219169083151502179055505b83600560006101000a81548173ffffffffffffffffffffffffffffffffffffffff021916908373ffffffffffffffffffffffffffffffffffffffff16021790555082600460006101000a81548173ffffffffffffffffffffffffffffffffffffffff021916908373ffffffffffffffffffffffffffffffffffffffff16021790555081600760006101000a81548173ffffffffffffffffffffffffffffffffffffffff021916908373ffffffffffffffffffffffffffffffffffffffff1602179055508015610a295760008060156101000a81548160ff0219169083151502179055505b50505050565b60035481565b60015481565b610a43610e16565b73ffffffffffffffffffffffffffffffffffffffff16610a61610351565b73ffffffffffffffffffffffffffffffffffffffff1614610ab7576040517f08c379a0000000000000000000000000000000000000000000000000000000008152600401610aae906113f7565b60405180910390fd5b60008111610afa576040517f08c379a0000000000000000000000000000000000000000000000000000000008152600401610af190611357565b60405180910390fd5b8060018190555050565b610b0c610e16565b73ffffffffffffffffffffffffffffffffffffffff16610b2a610351565b73ffffffffffffffffffffffffffffffffffffffff1614610b80576040517f08c379a0000000000000000000000000000000000000000000000000000000008152600401610b77906113f7565b60405180910390fd5b600073ffffffffffffffffffffffffffffffffffffffff168173ffffffffffffffffffffffffffffffffffffffff161415610bf0576040517f08c379a0000000000000000000000000000000000000000000000000000000008152600401610be790611377565b60405180910390fd5b610bf981610e1e565b50565b610c04610e16565b73ffffffffffffffffffffffffffffffffffffffff16610c22610351565b73ffffffffffffffffffffffffffffffffffffffff1614610c78576040517f08c379a0000000000000000000000000000000000000000000000000000000008152600401610c6f906113f7565b60405180910390fd5b600354831015610cbd576040517f08c379a0000000000000000000000000000000000000000000000000000000008152600401610cb490611437565b60405180910390fd5b6000610cdd8367ffffffffffffffff168367ffffffffffffffff16610ee2565b90506000600460009054906101000a900473ffffffffffffffffffffffffffffffffffffffff1673ffffffffffffffffffffffffffffffffffffffff16637cab4cee85856040518363ffffffff1660e01b8152600401610d3e9291906114ce565b602060405180830381600087803b158015610d5857600080fd5b505af1158015610d6c573d6000803e3d6000fd5b505050506040513d601f19601f82011682018060405250810190610d909190611017565b90508060086000848152602001908152602001600020819055504260096000848152602001908152602001600020819055508267ffffffffffffffff168467ffffffffffffffff167f490e61fc818235bc6d0589e2742ba217321b6f6ef35256df9bee6910b3fcc19a83604051610e07919061133c565b60405180910390a35050505050565b600033905090565b60008060009054906101000a900473ffffffffffffffffffffffffffffffffffffffff169050816000806101000a81548173ffffffffffffffffffffffffffffffffffffffff021916908373ffffffffffffffffffffffffffffffffffffffff1602179055508173ffffffffffffffffffffffffffffffffffffffff168173ffffffffffffffffffffffffffffffffffffffff167f8be0079c531659141344cd1fd0a4f28419497f9722a3daafe3b4186f6b6457e060405160405180910390a35050565b60008282604051602001610ef79291906112a2565b60405160208183030381529060405280519060200120905092915050565b600060015482610f259190611679565b42119050919050565b600081359050610f3d816119d0565b92915050565b600081519050610f52816119e7565b92915050565b600081359050610f67816119fe565b92915050565b600081519050610f7c816119fe565b92915050565b600081359050610f9181611a15565b92915050565b600060208284031215610fad57610fac611766565b5b6000610fbb84828501610f2e565b91505092915050565b600080600060608486031215610fdd57610fdc611766565b5b6000610feb86828701610f2e565b9350506020610ffc86828701610f2e565b925050604061100d86828701610f2e565b9150509250925092565b60006020828403121561102d5761102c611766565b5b600061103b84828501610f43565b91505092915050565b60006020828403121561105a57611059611766565b5b600061106884828501610f58565b91505092915050565b60006020828403121561108757611086611766565b5b600061109584828501610f6d565b91505092915050565b6000806000606084860312156110b7576110b6611766565b5b60006110c586828701610f58565b93505060206110d686828701610f82565b92505060406110e786828701610f82565b9150509250925092565b6110fa816116d3565b82525050565b611109816116e5565b82525050565b600061111c6025836114f7565b915061112782611778565b604082019050919050565b600061113f6026836114f7565b915061114a826117c7565b604082019050919050565b60006111626021836114f7565b915061116d82611816565b604082019050919050565b6000611185602e836114f7565b915061119082611865565b604082019050919050565b60006111a86013836114f7565b91506111b3826118b4565b602082019050919050565b60006111cb6020836114f7565b91506111d6826118dd565b602082019050919050565b60006111ee6020836114f7565b91506111f982611906565b602082019050919050565b60006112116021836114f7565b915061121c8261192f565b604082019050919050565b60006112346005836114f7565b915061123f8261197e565b602082019050919050565b6000611257601a836114f7565b9150611262826119a7565b602082019050919050565b6112768161170f565b82525050565b61128d6112888261170f565b61172d565b82525050565b61129c81611719565b82525050565b60006112ae828561127c565b6020820191506112be828461127c565b6020820191508190509392505050565b60006020820190506112e360008301846110f1565b92915050565b600060a0820190506112fe60008301886110f1565b61130b6020830187611293565b6113186040830186611293565b611325606083018561126d565b611332608083018461126d565b9695505050505050565b60006020820190506113516000830184611100565b92915050565b600060208201905081810360008301526113708161110f565b9050919050565b6000602082019050818103600083015261139081611132565b9050919050565b600060208201905081810360008301526113b081611155565b9050919050565b600060208201905081810360008301526113d081611178565b9050919050565b600060208201905081810360008301526113f08161119b565b9050919050565b60006020820190508181036000830152611410816111be565b9050919050565b60006020820190508181036000830152611430816111e1565b9050919050565b6000602082019050818103600083015261145081611204565b9050919050565b600060208201905081810360008301526114708161124a565b9050919050565b600060208201905061148c600083018461126d565b92915050565b60006060820190506114a7600083018561126d565b81810360208301526114b881611227565b90506114c760408301846110f1565b9392505050565b60006040820190506114e36000830185611293565b6114f06020830184611293565b9392505050565b600082825260208201905092915050565b6000808291508390505b60018511156115525780860481111561152e5761152d611737565b5b600185161561153d5780820291505b808102905061154b8561176b565b9450611512565b94509492505050565b60006115668261170f565b91506115718361170f565b925061159e7fffffffffffffffffffffffffffffffffffffffffffffffffffffffffffffffff84846115a6565b905092915050565b6000826115b65760019050611672565b816115c45760009050611672565b81600181146115da57600281146115e457611613565b6001915050611672565b60ff8411156115f6576115f5611737565b5b8360020a91508482111561160d5761160c611737565b5b50611672565b5060208310610133831016604e8410600b84101617156116485782820a90508381111561164357611642611737565b5b611672565b6116558484846001611508565b9250905081840481111561166c5761166b611737565b5b81810290505b9392505050565b60006116848261170f565b915061168f8361170f565b9250817fffffffffffffffffffffffffffffffffffffffffffffffffffffffffffffffff04831182151516156116c8576116c7611737565b5b828202905092915050565b60006116de826116ef565b9050919050565b6000819050919050565b600073ffffffffffffffffffffffffffffffffffffffff82169050919050565b6000819050919050565b600067ffffffffffffffff82169050919050565b6000819050919050565b7f4e487b7100000000000000000000000000000000000000000000000000000000600052601160045260246000fd5b600080fd5b60008160011c9050919050565b7f576169742074696d652073686f756c642062652067726561746572207468616e60008201527f207a65726f000000000000000000000000000000000000000000000000000000602082015250565b7f4f776e61626c653a206e6577206f776e657220697320746865207a65726f206160008201527f6464726573730000000000000000000000000000000000000000000000000000602082015250565b7f42656174732073686f756c642062652067726561746572207468616e207a657260008201527f6f00000000000000000000000000000000000000000000000000000000000000602082015250565b7f496e697469616c697a61626c653a20636f6e747261637420697320616c72656160008201527f647920696e697469616c697a6564000000000000000000000000000000000000602082015250565b7f536f6e6720646f6573206e6f7420657869737400000000000000000000000000600082015250565b7f4f776e61626c653a2063616c6c6572206973206e6f7420746865206f776e6572600082015250565b7f496e73756666696369656e7420626561747320746f2063726561746520426f70600082015250565b7f496e73756666696369656e7420626561747320746f20636f6d62696e6520426f60008201527f7000000000000000000000000000000000000000000000000000000000000000602082015250565b7f67656e7265000000000000000000000000000000000000000000000000000000600082015250565b7f4e6f7420656c696769626c6520746f2063726561746520426f70000000000000600082015250565b6119d9816116d3565b81146119e457600080fd5b50565b6119f0816116e5565b81146119fb57600080fd5b50565b611a078161170f565b8114611a1257600080fd5b50565b611a1e81611719565b8114611a2957600080fd5b5056fea2646970667358221220ce9469b5c319e11c9089b047c81d6acf2b7bfc842d75c4f26969fbb58104ce9a64736f6c63430008060033",
  "immutableReferences": {},
  "source": "// SPDX-License-Identifier: MIT\npragma solidity ^0.8.0;\n\nimport \"@openzeppelin/contracts/proxy/utils/Initializable.sol\";\nimport \"@openzeppelin/contracts/access/Ownable.sol\";\nimport \"@openzeppelin/contracts/proxy/Clones.sol\";\nimport \"../Structs.sol\";\nimport \"./BopToken.sol\";\nimport \"../oracles/SongOracleStructs.sol\";\nimport \"../oracles/SongOracle.sol\";\nimport \"../implementations/Song.sol\";\n\n\n/**\n * @title Bop Generator\n * @notice definition and management of bop creation\n * @author Vijay Dhanasekaran\n */\ncontract BopGenerator is Ownable, Initializable {\n\n    uint256 private constant TRAX_DECIMALS = 18;\n    uint256 public waitTime = 7;\n\n    // 1 TRAX needed for Bop creation (could be changed by owner)\n    uint256 public minTraxToCreateBop = 1 * 10**TRAX_DECIMALS;\n    uint256 public minBeatsToCreateBop;\n\n    // to be checked on instantiation\n    address private songOracleAddress;\n    address private songAddress;\n    address private songManagerAddress;\n    address private stakingToken;\n\n    mapping(bytes32 => bytes32) private _awaitingOracleRequests;\n    mapping(bytes32 => uint) private _bopTimeRegister;\n\n    event CombinedBops( uint64 indexed parentId1, uint64 indexed parentId2, bytes32 requestId);\n    event CreatedBop( uint64 indexed parentId1, uint64 indexed parentId2, uint256 songId);\n\n    constructor(){}\n\n    function initialize(\n        address _songAddress,\n        address _songOracleAddress,\n        address _stakingToken\n    ) external initializer {\n        songAddress = _songAddress;\n        songOracleAddress = _songOracleAddress;\n        stakingToken = _stakingToken;\n    }\n\n    function combineBops(\n        uint256 inputBeats,\n        uint64 parentId1,\n        uint64 parentId2\n      ) external onlyOwner {\n        require(inputBeats >= minBeatsToCreateBop, \"Insufficient beats to combine Bop\");\n\n        bytes32 key = hashKey(parentId1,parentId2);\n\n        bytes32 requestId = SongOracle(songOracleAddress).findSong(parentId1, parentId2);\n        _awaitingOracleRequests[key] = requestId;\n        _bopTimeRegister[key] = block.timestamp;\n\n        emit CombinedBops(parentId1, parentId2, requestId);\n    }\n\n    // placeholder function to createbop tokens after 7 days of breeding\n    function createBop(\n        uint256 inputBeats,\n        uint64 parentId1,\n        uint64 parentId2\n      ) external onlyOwner {\n      require(inputBeats > minBeatsToCreateBop, \"Insufficient beats to create Bop\");\n\n      bytes32 key = hashKey(parentId1, parentId2);\n      bytes32 requestId = _awaitingOracleRequests[key];\n\n      // Wait until elapsed time to create Bop (7 days)\n      uint createdTime = _bopTimeRegister[key];\n      require(!isTimePassed(createdTime), \"Not eligible to create Bop\");\n\n      // Get song id from oracle contract\n      uint256 songId = SongOracle(songOracleAddress).getSongId(requestId);\n\n      // Check if song already exist\n      require(songId != 0, \"Song does not exist\");\n\n      uint256 traxAmount = minTraxToCreateBop;\n\n      // Mint boptoken in SongContract\n      Song(songAddress).initialize(songId, \"genre\", songManagerAddress);\n      Song(songAddress).spawnChildBop(stakingToken, parentId1, parentId2, traxAmount, inputBeats);\n\n      delete _awaitingOracleRequests[key];\n      emit CreatedBop(parentId1, parentId2, songId);\n    }\n\n    /**\n     * @notice Set minimum waiting time before creating Bop(only by the owner)\n     * @param _inSeconds days to needed\n     */\n    function setWaitTime(uint _inSeconds) external onlyOwner {\n        require(_inSeconds > 0, \"Wait time should be greater than zero\");\n        waitTime = _inSeconds;\n    }\n\n    /**\n     * @notice Set minimum beats needed to combine NFTs (only by the owner)\n     * @param minBeats The minimum number of beats needed\n     */\n    function setMinBeats(uint256 minBeats) external onlyOwner {\n        require(minBeats != 0, \"Beats should be greater than zero\");\n        minBeatsToCreateBop = minBeats;\n    }\n\n    /**\n     * @notice Set minimum Trax needed to combine NFTs (only by the owner)\n     * @param minTrax The minimum number of Trax needed\n     */\n    function setMinTrax(uint256 minTrax) external onlyOwner {\n        require(minTrax != 0, \"Beats should be greater than zero\");\n        minTraxToCreateBop = minTrax* 10**TRAX_DECIMALS;\n    }\n\n    // hash to convert ids\n    function hashKey(uint256 parentId1, uint256 parentId2) internal pure returns (bytes32) {\n      return keccak256(abi.encodePacked(parentId1, parentId2));\n   }\n\n   /**\n    * @notice Check if the waiting time is over to create Bop\n    * @param _createdTime The minimum number of beats needed\n    */\n   function isTimePassed(uint _createdTime) internal view returns (bool) {\n       return block.timestamp > (_createdTime * waitTime);\n   }\n}\n",
  "sourcePath": "/Users/angelsatorresalmenara/Desktop/privi-trax-smart-contracts/contracts/bops/BopGenerator.sol",
  "compiler": {
    "name": "solc",
    "version": "0.8.6+commit.11564f7e.Emscripten.clang"
  },
  "schemaVersion": "3.4.2",
  "updatedAt": "2021-09-02T15:29:10.567Z",
  "networkType": "ethereum",
  "devdoc": {
    "author": "Vijay Dhanasekaran",
    "kind": "dev",
    "methods": {
      "owner()": {
        "details": "Returns the address of the current owner."
      },
      "renounceOwnership()": {
        "details": "Leaves the contract without owner. It will not be possible to call `onlyOwner` functions anymore. Can only be called by the current owner. NOTE: Renouncing ownership will leave the contract without an owner, thereby removing any functionality that is only available to the owner."
      },
      "setMinBeats(uint256)": {
        "params": {
          "minBeats": "The minimum number of beats needed"
        }
      },
      "setMinTrax(uint256)": {
        "params": {
          "minTrax": "The minimum number of Trax needed"
        }
      },
      "setWaitTime(uint256)": {
        "params": {
          "_inSeconds": "days to needed"
        }
      },
      "transferOwnership(address)": {
        "details": "Transfers ownership of the contract to a new account (`newOwner`). Can only be called by the current owner."
      }
    },
    "title": "Bop Generator",
    "version": 1
  },
  "userdoc": {
    "kind": "user",
    "methods": {
      "setMinBeats(uint256)": {
        "notice": "Set minimum beats needed to combine NFTs (only by the owner)"
      },
      "setMinTrax(uint256)": {
        "notice": "Set minimum Trax needed to combine NFTs (only by the owner)"
      },
      "setWaitTime(uint256)": {
        "notice": "Set minimum waiting time before creating Bop(only by the owner)"
      }
    },
    "notice": "definition and management of bop creation",
    "version": 1
  }
}