{
  "contractName": "BopLevelsHandler",
  "abi": [
    {
      "inputs": [
        {
          "components": [
            {
              "internalType": "uint256",
              "name": "beatsForNextLevel",
              "type": "uint256"
            }
          ],
          "internalType": "struct BopLevel[]",
          "name": "levels",
          "type": "tuple[]"
        }
      ],
      "stateMutability": "nonpayable",
      "type": "constructor"
    },
    {
      "anonymous": false,
      "inputs": [
        {
          "indexed": true,
          "internalType": "bytes32",
          "name": "role",
          "type": "bytes32"
        },
        {
          "indexed": true,
          "internalType": "bytes32",
          "name": "previousAdminRole",
          "type": "bytes32"
        },
        {
          "indexed": true,
          "internalType": "bytes32",
          "name": "newAdminRole",
          "type": "bytes32"
        }
      ],
      "name": "RoleAdminChanged",
      "type": "event"
    },
    {
      "anonymous": false,
      "inputs": [
        {
          "indexed": true,
          "internalType": "bytes32",
          "name": "role",
          "type": "bytes32"
        },
        {
          "indexed": true,
          "internalType": "address",
          "name": "account",
          "type": "address"
        },
        {
          "indexed": true,
          "internalType": "address",
          "name": "sender",
          "type": "address"
        }
      ],
      "name": "RoleGranted",
      "type": "event"
    },
    {
      "anonymous": false,
      "inputs": [
        {
          "indexed": true,
          "internalType": "bytes32",
          "name": "role",
          "type": "bytes32"
        },
        {
          "indexed": true,
          "internalType": "address",
          "name": "account",
          "type": "address"
        },
        {
          "indexed": true,
          "internalType": "address",
          "name": "sender",
          "type": "address"
        }
      ],
      "name": "RoleRevoked",
      "type": "event"
    },
    {
      "inputs": [],
      "name": "DEFAULT_ADMIN_ROLE",
      "outputs": [
        {
          "internalType": "bytes32",
          "name": "",
          "type": "bytes32"
        }
      ],
      "stateMutability": "view",
      "type": "function"
    },
    {
      "inputs": [],
      "name": "OWNER",
      "outputs": [
        {
          "internalType": "bytes32",
          "name": "",
          "type": "bytes32"
        }
      ],
      "stateMutability": "view",
      "type": "function"
    },
    {
      "inputs": [
        {
          "internalType": "bytes32",
          "name": "role",
          "type": "bytes32"
        }
      ],
      "name": "getRoleAdmin",
      "outputs": [
        {
          "internalType": "bytes32",
          "name": "",
          "type": "bytes32"
        }
      ],
      "stateMutability": "view",
      "type": "function"
    },
    {
      "inputs": [
        {
          "internalType": "bytes32",
          "name": "role",
          "type": "bytes32"
        },
        {
          "internalType": "address",
          "name": "account",
          "type": "address"
        }
      ],
      "name": "grantRole",
      "outputs": [],
      "stateMutability": "nonpayable",
      "type": "function"
    },
    {
      "inputs": [
        {
          "internalType": "bytes32",
          "name": "role",
          "type": "bytes32"
        },
        {
          "internalType": "address",
          "name": "account",
          "type": "address"
        }
      ],
      "name": "hasRole",
      "outputs": [
        {
          "internalType": "bool",
          "name": "",
          "type": "bool"
        }
      ],
      "stateMutability": "view",
      "type": "function"
    },
    {
      "inputs": [
        {
          "internalType": "bytes32",
          "name": "role",
          "type": "bytes32"
        },
        {
          "internalType": "address",
          "name": "account",
          "type": "address"
        }
      ],
      "name": "renounceRole",
      "outputs": [],
      "stateMutability": "nonpayable",
      "type": "function"
    },
    {
      "inputs": [
        {
          "internalType": "bytes32",
          "name": "role",
          "type": "bytes32"
        },
        {
          "internalType": "address",
          "name": "account",
          "type": "address"
        }
      ],
      "name": "revokeRole",
      "outputs": [],
      "stateMutability": "nonpayable",
      "type": "function"
    },
    {
      "inputs": [],
      "name": "startingLevel",
      "outputs": [
        {
          "internalType": "uint256",
          "name": "",
          "type": "uint256"
        }
      ],
      "stateMutability": "view",
      "type": "function"
    },
    {
      "inputs": [
        {
          "internalType": "bytes4",
          "name": "interfaceId",
          "type": "bytes4"
        }
      ],
      "name": "supportsInterface",
      "outputs": [
        {
          "internalType": "bool",
          "name": "",
          "type": "bool"
        }
      ],
      "stateMutability": "view",
      "type": "function"
    },
    {
      "inputs": [],
      "name": "traxToCreateBop",
      "outputs": [
        {
          "internalType": "uint256",
          "name": "",
          "type": "uint256"
        }
      ],
      "stateMutability": "view",
      "type": "function"
    },
    {
      "inputs": [
        {
          "internalType": "uint256",
          "name": "_amount",
          "type": "uint256"
        }
      ],
      "name": "setTraxToCreateBop",
      "outputs": [],
      "stateMutability": "nonpayable",
      "type": "function"
    },
    {
      "inputs": [
        {
          "internalType": "uint256",
          "name": "_number",
          "type": "uint256"
        }
      ],
      "name": "setStartingLevel",
      "outputs": [],
      "stateMutability": "nonpayable",
      "type": "function"
    },
    {
      "inputs": [],
      "name": "getLevels",
      "outputs": [
        {
          "components": [
            {
              "internalType": "uint256",
              "name": "beatsForNextLevel",
              "type": "uint256"
            }
          ],
          "internalType": "struct BopLevel[]",
          "name": "levels",
          "type": "tuple[]"
        }
      ],
      "stateMutability": "view",
      "type": "function"
    },
    {
      "inputs": [
        {
          "internalType": "uint256",
          "name": "_level",
          "type": "uint256"
        }
      ],
      "name": "getLevelInfo",
      "outputs": [
        {
          "components": [
            {
              "internalType": "uint256",
              "name": "beatsForNextLevel",
              "type": "uint256"
            }
          ],
          "internalType": "struct BopLevel",
          "name": "level",
          "type": "tuple"
        }
      ],
      "stateMutability": "view",
      "type": "function"
    }
  ],
  "bytecode": "0x60806040526012600a620000149190620005f6565b600162000022919062000733565b60025560016003553480156200003757600080fd5b5060405162001efd38038062001efd83398181016040528101906200005d91906200044f565b6000815111620000a4576040517f08c379a00000000000000000000000000000000000000000000000000000000081526004016200009b90620004ee565b60405180910390fd5b60005b81518110156200017f576000828281518110620000c957620000c862000851565b5b6020026020010151600001511162000118576040517f08c379a00000000000000000000000000000000000000000000000000000000081526004016200010f9062000510565b60405180910390fd5b600182828151811062000130576200012f62000851565b5b60200260200101519080600181540180825580915050600190039060005260206000200160009091909190915060008201518160000155505080806200017690620007d4565b915050620000a7565b50620001956000801b33620001ce60201b60201c565b620001c77f6270edb7c868f86fda4adedba75108201087268ea345934db8bad688e1feb91b33620001ce60201b60201c565b5062000952565b620001e08282620001e460201b60201c565b5050565b620001f68282620002d560201b60201c565b620002d157600160008084815260200190815260200160002060000160008373ffffffffffffffffffffffffffffffffffffffff1673ffffffffffffffffffffffffffffffffffffffff16815260200190815260200160002060006101000a81548160ff021916908315150217905550620002766200033f60201b60201c565b73ffffffffffffffffffffffffffffffffffffffff168173ffffffffffffffffffffffffffffffffffffffff16837f2f8788117e7eff1d82e926ec794901d17c78024a50270940304540a733656f0d60405160405180910390a45b5050565b600080600084815260200190815260200160002060000160008373ffffffffffffffffffffffffffffffffffffffff1673ffffffffffffffffffffffffffffffffffffffff16815260200190815260200160002060009054906101000a900460ff16905092915050565b600033905090565b60006200035e62000358846200055b565b62000532565b90508083825260208201905082856020860282011115620003845762000383620008b9565b5b60005b85811015620003b857816200039d8882620003f5565b84526020840193506020830192505060018101905062000387565b5050509392505050565b600082601f830112620003da57620003d9620008af565b5b8151620003ec84826020860162000347565b91505092915050565b6000602082840312156200040e576200040d620008b4565b5b6200041a602062000532565b905060006200042c8482850162000438565b60008301525092915050565b600081519050620004498162000938565b92915050565b600060208284031215620004685762000467620008c3565b5b600082015167ffffffffffffffff811115620004895762000488620008be565b5b6200049784828501620003c2565b91505092915050565b6000620004af600f836200058a565b9150620004bc82620008e6565b602082019050919050565b6000620004d6600e836200058a565b9150620004e3826200090f565b602082019050919050565b600060208201905081810360008301526200050981620004a0565b9050919050565b600060208201905081810360008301526200052b81620004c7565b9050919050565b60006200053e62000551565b90506200054c82826200079e565b919050565b6000604051905090565b600067ffffffffffffffff82111562000579576200057862000880565b5b602082029050602081019050919050565b600082825260208201905092915050565b6000808291508390505b6001851115620005ed57808604811115620005c557620005c462000822565b5b6001851615620005d55780820291505b8081029050620005e585620008d9565b9450620005a5565b94509492505050565b6000620006038262000794565b9150620006108362000794565b92506200063f7fffffffffffffffffffffffffffffffffffffffffffffffffffffffffffffffff848462000647565b905092915050565b6000826200065957600190506200072c565b816200066957600090506200072c565b81600181146200068257600281146200068d57620006c3565b60019150506200072c565b60ff841115620006a257620006a162000822565b5b8360020a915084821115620006bc57620006bb62000822565b5b506200072c565b5060208310610133831016604e8410600b8410161715620006fd5782820a905083811115620006f757620006f662000822565b5b6200072c565b6200070c84848460016200059b565b9250905081840481111562000726576200072562000822565b5b81810290505b9392505050565b6000620007408262000794565b91506200074d8362000794565b9250817fffffffffffffffffffffffffffffffffffffffffffffffffffffffffffffffff048311821515161562000789576200078862000822565b5b828202905092915050565b6000819050919050565b620007a982620008c8565b810181811067ffffffffffffffff82111715620007cb57620007ca62000880565b5b80604052505050565b6000620007e18262000794565b91507fffffffffffffffffffffffffffffffffffffffffffffffffffffffffffffffff82141562000817576200081662000822565b5b600182019050919050565b7f4e487b7100000000000000000000000000000000000000000000000000000000600052601160045260246000fd5b7f4e487b7100000000000000000000000000000000000000000000000000000000600052603260045260246000fd5b7f4e487b7100000000000000000000000000000000000000000000000000000000600052604160045260246000fd5b600080fd5b600080fd5b600080fd5b600080fd5b600080fd5b6000601f19601f8301169050919050565b60008160011c9050919050565b7f4e6f206c6576656c7320666f756e640000000000000000000000000000000000600082015250565b7f496e76616c6964206c6576656c73000000000000000000000000000000000000600082015250565b620009438162000794565b81146200094f57600080fd5b50565b61159b80620009626000396000f3fe608060405234801561001057600080fd5b50600436106100ea5760003560e01c806349366d261161008c578063a217fddf11610066578063a217fddf1461025d578063d547741f1461027b578063e1aa9d0a14610297578063f64276f2146102b3576100ea565b806349366d26146101f357806391d148541461021157806399700bbd14610241576100ea565b8063117803e3116100c8578063117803e31461016d578063248a9ca31461018b5780632f2ff15d146101bb57806336568abe146101d7576100ea565b806301ffc9a7146100ef578063030101db1461011f5780630c394a601461014f575b600080fd5b61010960048036038101906101049190610cd5565b6102d1565b6040516101169190610fd4565b60405180910390f35b61013960048036038101906101349190610d02565b61034b565b60405161014691906110cc565b60405180910390f35b6101576103eb565b6040516101649190610fb2565b60405180910390f35b610175610450565b6040516101829190610fef565b60405180910390f35b6101a560048036038101906101a09190610c68565b610474565b6040516101b29190610fef565b60405180910390f35b6101d560048036038101906101d09190610c95565b610493565b005b6101f160048036038101906101ec9190610c95565b6104bc565b005b6101fb61053f565b60405161020891906110e7565b60405180910390f35b61022b60048036038101906102269190610c95565b610545565b6040516102389190610fd4565b60405180910390f35b61025b60048036038101906102569190610d02565b6105af565b005b61026561063f565b6040516102729190610fef565b60405180910390f35b61029560048036038101906102909190610c95565b610646565b005b6102b160048036038101906102ac9190610d02565b61066f565b005b6102bb6106ef565b6040516102c891906110e7565b60405180910390f35b60007f7965db0b000000000000000000000000000000000000000000000000000000007bffffffffffffffffffffffffffffffffffffffffffffffffffffffff1916827bffffffffffffffffffffffffffffffffffffffffffffffffffffffff191614806103445750610343826106f5565b5b9050919050565b610353610c01565b6000821480610366575060018054905082115b156103a6576040517f08c379a000000000000000000000000000000000000000000000000000000000815260040161039d9061108c565b60405180910390fd5b600180836103b49190611212565b815481106103c5576103c4611350565b5b906000526020600020016040518060200160405290816000820154815250509050919050565b60606001805480602002602001604051908101604052809291908181526020016000905b82821015610447578382906000526020600020016040518060200160405290816000820154815250508152602001906001019061040f565b50505050905090565b7f6270edb7c868f86fda4adedba75108201087268ea345934db8bad688e1feb91b81565b6000806000838152602001908152602001600020600101549050919050565b61049c82610474565b6104ad816104a861075f565b610767565b6104b78383610804565b505050565b6104c461075f565b73ffffffffffffffffffffffffffffffffffffffff168173ffffffffffffffffffffffffffffffffffffffff1614610531576040517f08c379a0000000000000000000000000000000000000000000000000000000008152600401610528906110ac565b60405180910390fd5b61053b82826108e4565b5050565b60035481565b600080600084815260200190815260200160002060000160008373ffffffffffffffffffffffffffffffffffffffff1673ffffffffffffffffffffffffffffffffffffffff16815260200190815260200160002060009054906101000a900460ff16905092915050565b7f6270edb7c868f86fda4adedba75108201087268ea345934db8bad688e1feb91b6105e1816105dc61075f565b610767565b60008214806105f4575060018054905082115b15610634576040517f08c379a000000000000000000000000000000000000000000000000000000000815260040161062b9061104c565b60405180910390fd5b816003819055505050565b6000801b81565b61064f82610474565b6106608161065b61075f565b610767565b61066a83836108e4565b505050565b7f6270edb7c868f86fda4adedba75108201087268ea345934db8bad688e1feb91b6106a18161069c61075f565b610767565b600082116106e4576040517f08c379a00000000000000000000000000000000000000000000000000000000081526004016106db9061106c565b60405180910390fd5b816002819055505050565b60025481565b60007f01ffc9a7000000000000000000000000000000000000000000000000000000007bffffffffffffffffffffffffffffffffffffffffffffffffffffffff1916827bffffffffffffffffffffffffffffffffffffffffffffffffffffffff1916149050919050565b600033905090565b6107718282610545565b610800576107968173ffffffffffffffffffffffffffffffffffffffff1660146109c5565b6107a48360001c60206109c5565b6040516020016107b5929190610f78565b6040516020818303038152906040526040517f08c379a00000000000000000000000000000000000000000000000000000000081526004016107f7919061100a565b60405180910390fd5b5050565b61080e8282610545565b6108e057600160008084815260200190815260200160002060000160008373ffffffffffffffffffffffffffffffffffffffff1673ffffffffffffffffffffffffffffffffffffffff16815260200190815260200160002060006101000a81548160ff02191690831515021790555061088561075f565b73ffffffffffffffffffffffffffffffffffffffff168173ffffffffffffffffffffffffffffffffffffffff16837f2f8788117e7eff1d82e926ec794901d17c78024a50270940304540a733656f0d60405160405180910390a45b5050565b6108ee8282610545565b156109c157600080600084815260200190815260200160002060000160008373ffffffffffffffffffffffffffffffffffffffff1673ffffffffffffffffffffffffffffffffffffffff16815260200190815260200160002060006101000a81548160ff02191690831515021790555061096661075f565b73ffffffffffffffffffffffffffffffffffffffff168173ffffffffffffffffffffffffffffffffffffffff16837ff6391f5c32d9c69d2a47ea670b442974b53935d1edc7fd64eb21e047a839171b60405160405180910390a45b5050565b6060600060028360026109d891906111b8565b6109e29190611162565b67ffffffffffffffff8111156109fb576109fa61137f565b5b6040519080825280601f01601f191660200182016040528015610a2d5781602001600182028036833780820191505090505b5090507f300000000000000000000000000000000000000000000000000000000000000081600081518110610a6557610a64611350565b5b60200101907effffffffffffffffffffffffffffffffffffffffffffffffffffffffffffff1916908160001a9053507f780000000000000000000000000000000000000000000000000000000000000081600181518110610ac957610ac8611350565b5b60200101907effffffffffffffffffffffffffffffffffffffffffffffffffffffffffffff1916908160001a90535060006001846002610b0991906111b8565b610b139190611162565b90505b6001811115610bb3577f3031323334353637383961626364656600000000000000000000000000000000600f861660108110610b5557610b54611350565b5b1a60f81b828281518110610b6c57610b6b611350565b5b60200101907effffffffffffffffffffffffffffffffffffffffffffffffffffffffffffff1916908160001a905350600485901c945080610bac906112f7565b9050610b16565b5060008414610bf7576040517f08c379a0000000000000000000000000000000000000000000000000000000008152600401610bee9061102c565b60405180910390fd5b8091505092915050565b6040518060200160405280600081525090565b600081359050610c2381611509565b92915050565b600081359050610c3881611520565b92915050565b600081359050610c4d81611537565b92915050565b600081359050610c628161154e565b92915050565b600060208284031215610c7e57610c7d6113ae565b5b6000610c8c84828501610c29565b91505092915050565b60008060408385031215610cac57610cab6113ae565b5b6000610cba85828601610c29565b9250506020610ccb85828601610c14565b9150509250929050565b600060208284031215610ceb57610cea6113ae565b5b6000610cf984828501610c3e565b91505092915050565b600060208284031215610d1857610d176113ae565b5b6000610d2684828501610c53565b91505092915050565b6000610d3b8383610f22565b60208301905092915050565b6000610d5282611112565b610d5c8185611135565b9350610d6783611102565b8060005b83811015610d98578151610d7f8882610d2f565b9750610d8a83611128565b925050600181019050610d6b565b5085935050505092915050565b610dae81611258565b82525050565b610dbd81611264565b82525050565b6000610dce8261111d565b610dd88185611146565b9350610de88185602086016112c4565b610df1816113b3565b840191505092915050565b6000610e078261111d565b610e118185611157565b9350610e218185602086016112c4565b80840191505092915050565b6000610e3a602083611146565b9150610e45826113c4565b602082019050919050565b6000610e5d601683611146565b9150610e68826113ed565b602082019050919050565b6000610e80600e83611146565b9150610e8b82611416565b602082019050919050565b6000610ea3600d83611146565b9150610eae8261143f565b602082019050919050565b6000610ec6601783611157565b9150610ed182611468565b601782019050919050565b6000610ee9601183611157565b9150610ef482611491565b601182019050919050565b6000610f0c602f83611146565b9150610f17826114ba565b604082019050919050565b602082016000820151610f386000850182610f5a565b50505050565b602082016000820151610f546000850182610f5a565b50505050565b610f63816112ba565b82525050565b610f72816112ba565b82525050565b6000610f8382610eb9565b9150610f8f8285610dfc565b9150610f9a82610edc565b9150610fa68284610dfc565b91508190509392505050565b60006020820190508181036000830152610fcc8184610d47565b905092915050565b6000602082019050610fe96000830184610da5565b92915050565b60006020820190506110046000830184610db4565b92915050565b600060208201905081810360008301526110248184610dc3565b905092915050565b6000602082019050818103600083015261104581610e2d565b9050919050565b6000602082019050818103600083015261106581610e50565b9050919050565b6000602082019050818103600083015261108581610e73565b9050919050565b600060208201905081810360008301526110a581610e96565b9050919050565b600060208201905081810360008301526110c581610eff565b9050919050565b60006020820190506110e16000830184610f3e565b92915050565b60006020820190506110fc6000830184610f69565b92915050565b6000819050602082019050919050565b600081519050919050565b600081519050919050565b6000602082019050919050565b600082825260208201905092915050565b600082825260208201905092915050565b600081905092915050565b600061116d826112ba565b9150611178836112ba565b9250827fffffffffffffffffffffffffffffffffffffffffffffffffffffffffffffffff038211156111ad576111ac611321565b5b828201905092915050565b60006111c3826112ba565b91506111ce836112ba565b9250817fffffffffffffffffffffffffffffffffffffffffffffffffffffffffffffffff048311821515161561120757611206611321565b5b828202905092915050565b600061121d826112ba565b9150611228836112ba565b92508282101561123b5761123a611321565b5b828203905092915050565b60006112518261129a565b9050919050565b60008115159050919050565b6000819050919050565b60007fffffffff0000000000000000000000000000000000000000000000000000000082169050919050565b600073ffffffffffffffffffffffffffffffffffffffff82169050919050565b6000819050919050565b60005b838110156112e25780820151818401526020810190506112c7565b838111156112f1576000848401525b50505050565b6000611302826112ba565b9150600082141561131657611315611321565b5b600182039050919050565b7f4e487b7100000000000000000000000000000000000000000000000000000000600052601160045260246000fd5b7f4e487b7100000000000000000000000000000000000000000000000000000000600052603260045260246000fd5b7f4e487b7100000000000000000000000000000000000000000000000000000000600052604160045260246000fd5b600080fd5b6000601f19601f8301169050919050565b7f537472696e67733a20686578206c656e67746820696e73756666696369656e74600082015250565b7f496e76616c6964207374617274696e67206c6576656c00000000000000000000600082015250565b7f496e76616c696420616d6f756e74000000000000000000000000000000000000600082015250565b7f496e76616c6964206c6576656c00000000000000000000000000000000000000600082015250565b7f416363657373436f6e74726f6c3a206163636f756e7420000000000000000000600082015250565b7f206973206d697373696e6720726f6c6520000000000000000000000000000000600082015250565b7f416363657373436f6e74726f6c3a2063616e206f6e6c792072656e6f756e636560008201527f20726f6c657320666f722073656c660000000000000000000000000000000000602082015250565b61151281611246565b811461151d57600080fd5b50565b61152981611264565b811461153457600080fd5b50565b6115408161126e565b811461154b57600080fd5b50565b611557816112ba565b811461156257600080fd5b5056fea2646970667358221220b23cd736042635b9fde65940d4f114a9eb4f81108fdb908ef04b144b1b155dde64736f6c63430008060033",
  "immutableReferences": {},
  "source": "// SPDX-License-Identifier: MIT\npragma solidity ^0.8.0;\n\nimport \"@openzeppelin/contracts/access/AccessControl.sol\";\nimport \"../Structs.sol\";\n\n/**\n * @title Bop Levels Handler\n * @notice definition and management of bop levels info\n * @author Eric Nordelo\n */\ncontract BopLevelsHandler is AccessControl {\n    bytes32 public constant OWNER = keccak256(\"OWNER\");\n\n    uint256 private constant TRAX_DECIMALS = 18;\n\n    BopLevel[] private _levels;\n\n    // 1 TRAX needed for Bop creation (could be changed by owner)\n    uint256 public traxToCreateBop = 1 * 10**TRAX_DECIMALS;\n\n    uint256 public startingLevel = 1;\n\n    constructor(BopLevel[] memory levels) {\n        require(levels.length > 0, \"No levels found\");\n\n        for (uint256 i; i < levels.length; i++) {\n            require(levels[i].beatsForNextLevel > 0, \"Invalid levels\");\n            _levels.push(levels[i]);\n        }\n\n        // deployer can give and remove roles\n        _setupRole(DEFAULT_ADMIN_ROLE, msg.sender);\n        _setupRole(OWNER, msg.sender);\n    }\n\n    function setTraxToCreateBop(uint256 _amount) external onlyRole(OWNER) {\n        require(_amount > 0, \"Invalid amount\");\n        traxToCreateBop = _amount;\n    }\n\n    function setStartingLevel(uint256 _number) external onlyRole(OWNER) {\n        if (_number == 0 || _number > _levels.length) {\n            revert(\"Invalid starting level\");\n        }\n        startingLevel = _number;\n    }\n\n    function getLevels() external view returns (BopLevel[] memory levels) {\n        return _levels;\n    }\n\n    function getLevelInfo(uint256 _level) external view returns (BopLevel memory level) {\n        if (_level == 0 || _level > _levels.length) {\n            revert(\"Invalid level\");\n        }\n        return _levels[_level - 1];\n    }\n\n    /**\n     * @dev TODO add update levels functionality (only owner)\n     */\n}\n",
  "sourcePath": "/Users/angelsatorresalmenara/Desktop/privi-trax-smart-contracts/contracts/bops/BopLevelsHandler.sol",
  "compiler": {
    "name": "solc",
    "version": "0.8.6+commit.11564f7e.Emscripten.clang"
  },
  "schemaVersion": "3.4.2",
  "updatedAt": "2021-09-02T15:27:50.056Z",
  "devdoc": {
    "author": "Eric Nordelo",
    "kind": "dev",
    "methods": {
      "getRoleAdmin(bytes32)": {
        "details": "Returns the admin role that controls `role`. See {grantRole} and {revokeRole}. To change a role's admin, use {_setRoleAdmin}."
      },
      "grantRole(bytes32,address)": {
        "details": "Grants `role` to `account`. If `account` had not been already granted `role`, emits a {RoleGranted} event. Requirements: - the caller must have ``role``'s admin role."
      },
      "hasRole(bytes32,address)": {
        "details": "Returns `true` if `account` has been granted `role`."
      },
      "renounceRole(bytes32,address)": {
        "details": "Revokes `role` from the calling account. Roles are often managed via {grantRole} and {revokeRole}: this function's purpose is to provide a mechanism for accounts to lose their privileges if they are compromised (such as when a trusted device is misplaced). If the calling account had been granted `role`, emits a {RoleRevoked} event. Requirements: - the caller must be `account`."
      },
      "revokeRole(bytes32,address)": {
        "details": "Revokes `role` from `account`. If `account` had been granted `role`, emits a {RoleRevoked} event. Requirements: - the caller must have ``role``'s admin role."
      },
      "supportsInterface(bytes4)": {
        "details": "See {IERC165-supportsInterface}."
      }
    },
    "title": "Bop Levels Handler",
    "version": 1
  },
  "userdoc": {
    "kind": "user",
    "methods": {},
    "notice": "definition and management of bop levels info",
    "version": 1
  }
}