{
  "contractName": "BopsToken",
  "abi": [
    {
      "inputs": [
        {
          "internalType": "string",
          "name": "name",
          "type": "string"
        },
        {
          "internalType": "string",
          "name": "symbol",
          "type": "string"
        },
        {
          "internalType": "address",
          "name": "_songsManagerAddress",
          "type": "address"
        }
      ],
      "stateMutability": "nonpayable",
      "type": "constructor"
    },
    {
      "anonymous": false,
      "inputs": [
        {
          "indexed": true,
          "internalType": "address",
          "name": "owner",
          "type": "address"
        },
        {
          "indexed": true,
          "internalType": "address",
          "name": "approved",
          "type": "address"
        },
        {
          "indexed": true,
          "internalType": "uint256",
          "name": "tokenId",
          "type": "uint256"
        }
      ],
      "name": "Approval",
      "type": "event"
    },
    {
      "anonymous": false,
      "inputs": [
        {
          "indexed": true,
          "internalType": "address",
          "name": "owner",
          "type": "address"
        },
        {
          "indexed": true,
          "internalType": "address",
          "name": "operator",
          "type": "address"
        },
        {
          "indexed": false,
          "internalType": "bool",
          "name": "approved",
          "type": "bool"
        }
      ],
      "name": "ApprovalForAll",
      "type": "event"
    },
    {
      "anonymous": false,
      "inputs": [
        {
          "indexed": true,
          "internalType": "address",
          "name": "account",
          "type": "address"
        },
        {
          "indexed": false,
          "internalType": "uint256",
          "name": "bopsTokenId",
          "type": "uint256"
        },
        {
          "indexed": false,
          "internalType": "uint256",
          "name": "timestamp",
          "type": "uint256"
        }
      ],
      "name": "Burned",
      "type": "event"
    },
    {
      "anonymous": false,
      "inputs": [
        {
          "indexed": true,
          "internalType": "address",
          "name": "account",
          "type": "address"
        },
        {
          "indexed": false,
          "internalType": "uint256",
          "name": "bopsTokenId",
          "type": "uint256"
        },
        {
          "indexed": false,
          "internalType": "uint256",
          "name": "amount",
          "type": "uint256"
        },
        {
          "indexed": false,
          "internalType": "uint256",
          "name": "timestamp",
          "type": "uint256"
        }
      ],
      "name": "BurnedBeats",
      "type": "event"
    },
    {
      "anonymous": false,
      "inputs": [
        {
          "indexed": true,
          "internalType": "address",
          "name": "account",
          "type": "address"
        },
        {
          "indexed": false,
          "internalType": "uint256",
          "name": "bopsTokenId",
          "type": "uint256"
        },
        {
          "indexed": false,
          "internalType": "uint256",
          "name": "amount",
          "type": "uint256"
        },
        {
          "indexed": false,
          "internalType": "uint256",
          "name": "timestamp",
          "type": "uint256"
        }
      ],
      "name": "IncreasedIntensity",
      "type": "event"
    },
    {
      "anonymous": false,
      "inputs": [
        {
          "indexed": true,
          "internalType": "address",
          "name": "account",
          "type": "address"
        },
        {
          "indexed": false,
          "internalType": "uint256",
          "name": "bopsTokenId",
          "type": "uint256"
        },
        {
          "indexed": false,
          "internalType": "uint256",
          "name": "timestamp",
          "type": "uint256"
        }
      ],
      "name": "Minted",
      "type": "event"
    },
    {
      "anonymous": false,
      "inputs": [
        {
          "indexed": true,
          "internalType": "bytes32",
          "name": "role",
          "type": "bytes32"
        },
        {
          "indexed": true,
          "internalType": "bytes32",
          "name": "previousAdminRole",
          "type": "bytes32"
        },
        {
          "indexed": true,
          "internalType": "bytes32",
          "name": "newAdminRole",
          "type": "bytes32"
        }
      ],
      "name": "RoleAdminChanged",
      "type": "event"
    },
    {
      "anonymous": false,
      "inputs": [
        {
          "indexed": true,
          "internalType": "bytes32",
          "name": "role",
          "type": "bytes32"
        },
        {
          "indexed": true,
          "internalType": "address",
          "name": "account",
          "type": "address"
        },
        {
          "indexed": true,
          "internalType": "address",
          "name": "sender",
          "type": "address"
        }
      ],
      "name": "RoleGranted",
      "type": "event"
    },
    {
      "anonymous": false,
      "inputs": [
        {
          "indexed": true,
          "internalType": "bytes32",
          "name": "role",
          "type": "bytes32"
        },
        {
          "indexed": true,
          "internalType": "address",
          "name": "account",
          "type": "address"
        },
        {
          "indexed": true,
          "internalType": "address",
          "name": "sender",
          "type": "address"
        }
      ],
      "name": "RoleRevoked",
      "type": "event"
    },
    {
      "anonymous": false,
      "inputs": [
        {
          "indexed": true,
          "internalType": "address",
          "name": "from",
          "type": "address"
        },
        {
          "indexed": true,
          "internalType": "address",
          "name": "to",
          "type": "address"
        },
        {
          "indexed": true,
          "internalType": "uint256",
          "name": "tokenId",
          "type": "uint256"
        }
      ],
      "name": "Transfer",
      "type": "event"
    },
    {
      "anonymous": false,
      "inputs": [
        {
          "indexed": true,
          "internalType": "address",
          "name": "account",
          "type": "address"
        },
        {
          "indexed": false,
          "internalType": "uint256",
          "name": "bopsTokenId",
          "type": "uint256"
        },
        {
          "indexed": false,
          "internalType": "uint256",
          "name": "level",
          "type": "uint256"
        },
        {
          "indexed": false,
          "internalType": "uint256",
          "name": "timestamp",
          "type": "uint256"
        }
      ],
      "name": "UpdatedLevel",
      "type": "event"
    },
    {
      "inputs": [],
      "name": "DEFAULT_ADMIN_ROLE",
      "outputs": [
        {
          "internalType": "bytes32",
          "name": "",
          "type": "bytes32"
        }
      ],
      "stateMutability": "view",
      "type": "function"
    },
    {
      "inputs": [],
      "name": "SONGS_MANAGER",
      "outputs": [
        {
          "internalType": "bytes32",
          "name": "",
          "type": "bytes32"
        }
      ],
      "stateMutability": "view",
      "type": "function"
    },
    {
      "inputs": [],
      "name": "SONG_CONTRACT",
      "outputs": [
        {
          "internalType": "bytes32",
          "name": "",
          "type": "bytes32"
        }
      ],
      "stateMutability": "view",
      "type": "function"
    },
    {
      "inputs": [
        {
          "internalType": "address",
          "name": "to",
          "type": "address"
        },
        {
          "internalType": "uint256",
          "name": "tokenId",
          "type": "uint256"
        }
      ],
      "name": "approve",
      "outputs": [],
      "stateMutability": "nonpayable",
      "type": "function"
    },
    {
      "inputs": [
        {
          "internalType": "address",
          "name": "owner",
          "type": "address"
        }
      ],
      "name": "balanceOf",
      "outputs": [
        {
          "internalType": "uint256",
          "name": "",
          "type": "uint256"
        }
      ],
      "stateMutability": "view",
      "type": "function"
    },
    {
      "inputs": [
        {
          "internalType": "uint256",
          "name": "tokenId",
          "type": "uint256"
        }
      ],
      "name": "getApproved",
      "outputs": [
        {
          "internalType": "address",
          "name": "",
          "type": "address"
        }
      ],
      "stateMutability": "view",
      "type": "function"
    },
    {
      "inputs": [
        {
          "internalType": "bytes32",
          "name": "role",
          "type": "bytes32"
        }
      ],
      "name": "getRoleAdmin",
      "outputs": [
        {
          "internalType": "bytes32",
          "name": "",
          "type": "bytes32"
        }
      ],
      "stateMutability": "view",
      "type": "function"
    },
    {
      "inputs": [
        {
          "internalType": "bytes32",
          "name": "role",
          "type": "bytes32"
        },
        {
          "internalType": "address",
          "name": "account",
          "type": "address"
        }
      ],
      "name": "grantRole",
      "outputs": [],
      "stateMutability": "nonpayable",
      "type": "function"
    },
    {
      "inputs": [
        {
          "internalType": "bytes32",
          "name": "role",
          "type": "bytes32"
        },
        {
          "internalType": "address",
          "name": "account",
          "type": "address"
        }
      ],
      "name": "hasRole",
      "outputs": [
        {
          "internalType": "bool",
          "name": "",
          "type": "bool"
        }
      ],
      "stateMutability": "view",
      "type": "function"
    },
    {
      "inputs": [
        {
          "internalType": "address",
          "name": "owner",
          "type": "address"
        },
        {
          "internalType": "address",
          "name": "operator",
          "type": "address"
        }
      ],
      "name": "isApprovedForAll",
      "outputs": [
        {
          "internalType": "bool",
          "name": "",
          "type": "bool"
        }
      ],
      "stateMutability": "view",
      "type": "function"
    },
    {
      "inputs": [],
      "name": "name",
      "outputs": [
        {
          "internalType": "string",
          "name": "",
          "type": "string"
        }
      ],
      "stateMutability": "view",
      "type": "function"
    },
    {
      "inputs": [
        {
          "internalType": "bytes32",
          "name": "role",
          "type": "bytes32"
        },
        {
          "internalType": "address",
          "name": "account",
          "type": "address"
        }
      ],
      "name": "renounceRole",
      "outputs": [],
      "stateMutability": "nonpayable",
      "type": "function"
    },
    {
      "inputs": [
        {
          "internalType": "bytes32",
          "name": "role",
          "type": "bytes32"
        },
        {
          "internalType": "address",
          "name": "account",
          "type": "address"
        }
      ],
      "name": "revokeRole",
      "outputs": [],
      "stateMutability": "nonpayable",
      "type": "function"
    },
    {
      "inputs": [
        {
          "internalType": "address",
          "name": "from",
          "type": "address"
        },
        {
          "internalType": "address",
          "name": "to",
          "type": "address"
        },
        {
          "internalType": "uint256",
          "name": "tokenId",
          "type": "uint256"
        }
      ],
      "name": "safeTransferFrom",
      "outputs": [],
      "stateMutability": "nonpayable",
      "type": "function"
    },
    {
      "inputs": [
        {
          "internalType": "address",
          "name": "from",
          "type": "address"
        },
        {
          "internalType": "address",
          "name": "to",
          "type": "address"
        },
        {
          "internalType": "uint256",
          "name": "tokenId",
          "type": "uint256"
        },
        {
          "internalType": "bytes",
          "name": "_data",
          "type": "bytes"
        }
      ],
      "name": "safeTransferFrom",
      "outputs": [],
      "stateMutability": "nonpayable",
      "type": "function"
    },
    {
      "inputs": [
        {
          "internalType": "address",
          "name": "operator",
          "type": "address"
        },
        {
          "internalType": "bool",
          "name": "approved",
          "type": "bool"
        }
      ],
      "name": "setApprovalForAll",
      "outputs": [],
      "stateMutability": "nonpayable",
      "type": "function"
    },
    {
      "inputs": [],
      "name": "symbol",
      "outputs": [
        {
          "internalType": "string",
          "name": "",
          "type": "string"
        }
      ],
      "stateMutability": "view",
      "type": "function"
    },
    {
      "inputs": [
        {
          "internalType": "uint256",
          "name": "tokenId",
          "type": "uint256"
        }
      ],
      "name": "tokenURI",
      "outputs": [
        {
          "internalType": "string",
          "name": "",
          "type": "string"
        }
      ],
      "stateMutability": "view",
      "type": "function"
    },
    {
      "inputs": [
        {
          "internalType": "address",
          "name": "from",
          "type": "address"
        },
        {
          "internalType": "address",
          "name": "to",
          "type": "address"
        },
        {
          "internalType": "uint256",
          "name": "tokenId",
          "type": "uint256"
        }
      ],
      "name": "transferFrom",
      "outputs": [],
      "stateMutability": "nonpayable",
      "type": "function"
    },
    {
      "inputs": [
        {
          "internalType": "uint256",
          "name": "bopsTokenId",
          "type": "uint256"
        }
      ],
      "name": "getBops",
      "outputs": [
        {
          "components": [
            {
              "internalType": "uint256",
              "name": "bopsId",
              "type": "uint256"
            },
            {
              "internalType": "uint256",
              "name": "songId",
              "type": "uint256"
            },
            {
              "internalType": "uint256",
              "name": "level",
              "type": "uint256"
            },
            {
              "internalType": "uint256",
              "name": "intensity",
              "type": "uint256"
            },
            {
              "internalType": "uint256",
              "name": "offsprings",
              "type": "uint256"
            },
            {
              "internalType": "uint256",
              "name": "parentId1",
              "type": "uint256"
            },
            {
              "internalType": "uint256",
              "name": "parentId2",
              "type": "uint256"
            },
            {
              "internalType": "uint256",
              "name": "genre",
              "type": "uint256"
            },
            {
              "internalType": "uint256",
              "name": "beatsBurnt",
              "type": "uint256"
            }
          ],
          "internalType": "struct Bops",
          "name": "",
          "type": "tuple"
        }
      ],
      "stateMutability": "view",
      "type": "function"
    },
    {
      "inputs": [
        {
          "internalType": "address",
          "name": "to",
          "type": "address"
        },
        {
          "components": [
            {
              "internalType": "uint256",
              "name": "bopsId",
              "type": "uint256"
            },
            {
              "internalType": "uint256",
              "name": "songId",
              "type": "uint256"
            },
            {
              "internalType": "uint256",
              "name": "level",
              "type": "uint256"
            },
            {
              "internalType": "uint256",
              "name": "intensity",
              "type": "uint256"
            },
            {
              "internalType": "uint256",
              "name": "offsprings",
              "type": "uint256"
            },
            {
              "internalType": "uint256",
              "name": "parentId1",
              "type": "uint256"
            },
            {
              "internalType": "uint256",
              "name": "parentId2",
              "type": "uint256"
            },
            {
              "internalType": "uint256",
              "name": "genre",
              "type": "uint256"
            },
            {
              "internalType": "uint256",
              "name": "beatsBurnt",
              "type": "uint256"
            }
          ],
          "internalType": "struct Bops",
          "name": "bopsData",
          "type": "tuple"
        }
      ],
      "name": "mint",
      "outputs": [],
      "stateMutability": "nonpayable",
      "type": "function"
    },
    {
      "inputs": [
        {
          "internalType": "uint256",
          "name": "bopsTokenId",
          "type": "uint256"
        }
      ],
      "name": "burn",
      "outputs": [],
      "stateMutability": "nonpayable",
      "type": "function"
    },
    {
      "inputs": [
        {
          "internalType": "uint256",
          "name": "bopsTokenId",
          "type": "uint256"
        }
      ],
      "name": "ownerOf",
      "outputs": [
        {
          "internalType": "address",
          "name": "",
          "type": "address"
        }
      ],
      "stateMutability": "view",
      "type": "function"
    },
    {
      "inputs": [
        {
          "internalType": "uint256",
          "name": "bopsTokenId",
          "type": "uint256"
        },
        {
          "internalType": "uint256",
          "name": "level",
          "type": "uint256"
        }
      ],
      "name": "updateLevel",
      "outputs": [],
      "stateMutability": "nonpayable",
      "type": "function"
    },
    {
      "inputs": [
        {
          "internalType": "uint256",
          "name": "bopsTokenId",
          "type": "uint256"
        },
        {
          "internalType": "uint256",
          "name": "intensity",
          "type": "uint256"
        }
      ],
      "name": "increaseIntensity",
      "outputs": [],
      "stateMutability": "nonpayable",
      "type": "function"
    },
    {
      "inputs": [
        {
          "internalType": "uint256",
          "name": "bopsTokenId",
          "type": "uint256"
        },
        {
          "internalType": "uint256",
          "name": "beatsToBurn",
          "type": "uint256"
        }
      ],
      "name": "burnBeats",
      "outputs": [],
      "stateMutability": "nonpayable",
      "type": "function"
    },
    {
      "inputs": [
        {
          "internalType": "bytes4",
          "name": "interfaceId",
          "type": "bytes4"
        }
      ],
      "name": "supportsInterface",
      "outputs": [
        {
          "internalType": "bool",
          "name": "",
          "type": "bool"
        }
      ],
      "stateMutability": "view",
      "type": "function"
    }
  ],
  "bytecode": "0x60806040523480156200001157600080fd5b506040516200453838038062004538833981810160405281019062000037919062000438565b8282816000908051906020019062000051929190620002f3565b5080600190805190602001906200006a929190620002f3565b505050620000bf7f21d749bccb2cd1ecd43da02f61cbdf715b020c28617853628b041975aa29b9167f7f7bbcda39ae5178d4dfa23b257c451c03decf7b918c030beee122c680d56387620000fa60201b60201c565b620000f17f7f7bbcda39ae5178d4dfa23b257c451c03decf7b918c030beee122c680d56387826200015860201b60201c565b505050620006a4565b806200010c836200016e60201b60201c565b837fbd79b86ffe0ab8e8776151514217cd7cacd52c909f66475c3af44e129f0b00ff60405160405180910390a48060066000848152602001908152602001600020600101819055505050565b6200016a82826200018e60201b60201c565b5050565b600060066000838152602001908152602001600020600101549050919050565b620001a082826200028060201b60201c565b6200027c5760016006600084815260200190815260200160002060000160008373ffffffffffffffffffffffffffffffffffffffff1673ffffffffffffffffffffffffffffffffffffffff16815260200190815260200160002060006101000a81548160ff02191690831515021790555062000221620002eb60201b60201c565b73ffffffffffffffffffffffffffffffffffffffff168173ffffffffffffffffffffffffffffffffffffffff16837f2f8788117e7eff1d82e926ec794901d17c78024a50270940304540a733656f0d60405160405180910390a45b5050565b60006006600084815260200190815260200160002060000160008373ffffffffffffffffffffffffffffffffffffffff1673ffffffffffffffffffffffffffffffffffffffff16815260200190815260200160002060009054906101000a900460ff16905092915050565b600033905090565b82805462000301906200059b565b90600052602060002090601f01602090048101928262000325576000855562000371565b82601f106200034057805160ff191683800117855562000371565b8280016001018555821562000371579182015b828111156200037057825182559160200191906001019062000353565b5b50905062000380919062000384565b5090565b5b808211156200039f57600081600090555060010162000385565b5090565b6000620003ba620003b484620004fb565b620004d2565b905082815260208101848484011115620003d957620003d86200066a565b5b620003e684828562000565565b509392505050565b600081519050620003ff816200068a565b92915050565b600082601f8301126200041d576200041c62000665565b5b81516200042f848260208601620003a3565b91505092915050565b60008060006060848603121562000454576200045362000674565b5b600084015167ffffffffffffffff8111156200047557620004746200066f565b5b620004838682870162000405565b935050602084015167ffffffffffffffff811115620004a757620004a66200066f565b5b620004b58682870162000405565b9250506040620004c886828701620003ee565b9150509250925092565b6000620004de620004f1565b9050620004ec8282620005d1565b919050565b6000604051905090565b600067ffffffffffffffff82111562000519576200051862000636565b5b620005248262000679565b9050602081019050919050565b60006200053e8262000545565b9050919050565b600073ffffffffffffffffffffffffffffffffffffffff82169050919050565b60005b838110156200058557808201518184015260208101905062000568565b8381111562000595576000848401525b50505050565b60006002820490506001821680620005b457607f821691505b60208210811415620005cb57620005ca62000607565b5b50919050565b620005dc8262000679565b810181811067ffffffffffffffff82111715620005fe57620005fd62000636565b5b80604052505050565b7f4e487b7100000000000000000000000000000000000000000000000000000000600052602260045260246000fd5b7f4e487b7100000000000000000000000000000000000000000000000000000000600052604160045260246000fd5b600080fd5b600080fd5b600080fd5b600080fd5b6000601f19601f8301169050919050565b620006958162000531565b8114620006a157600080fd5b50565b613e8480620006b46000396000f3fe608060405234801561001057600080fd5b50600436106101a95760003560e01c80636352211e116100f9578063a22cb46511610097578063ca2baa7011610071578063ca2baa70146104c6578063d547741f146104f6578063e985e9c514610512578063f8055ac814610542576101a9565b8063a22cb4651461045e578063b88d4fde1461047a578063c87b56dd14610496576101a9565b806391d14854116100d357806391d14854146103d657806395d89b4114610406578063a10126a514610424578063a217fddf14610440576101a9565b80636352211e1461035a57806370a082311461038a57806380064a66146103ba576101a9565b80632d864a061161016657806342842e0e1161014057806342842e0e146102e857806342966c68146103045780634ba2631614610320578063605fd53c1461033e576101a9565b80632d864a06146102945780632f2ff15d146102b057806336568abe146102cc576101a9565b806301ffc9a7146101ae57806306fdde03146101de578063081812fc146101fc578063095ea7b31461022c57806323b872dd14610248578063248a9ca314610264575b600080fd5b6101c860048036038101906101c39190612ba5565b610560565b6040516101d5919061316f565b60405180910390f35b6101e6610582565b6040516101f391906131a5565b60405180910390f35b61021660048036038101906102119190612bff565b610614565b6040516102239190613108565b60405180910390f35b61024660048036038101906102419190612af8565b610699565b005b610262600480360381019061025d91906129a1565b6107b1565b005b61027e60048036038101906102799190612b38565b610811565b60405161028b919061318a565b60405180910390f35b6102ae60048036038101906102a99190612c2c565b610831565b005b6102ca60048036038101906102c59190612b65565b610935565b005b6102e660048036038101906102e19190612b65565b61095e565b005b61030260048036038101906102fd91906129a1565b6109e1565b005b61031e60048036038101906103199190612bff565b610a01565b005b610328610b24565b604051610335919061318a565b60405180910390f35b61035860048036038101906103539190612c2c565b610b48565b005b610374600480360381019061036f9190612bff565b610c62565b6040516103819190613108565b60405180910390f35b6103a4600480360381019061039f9190612934565b610c9f565b6040516103b19190613403565b60405180910390f35b6103d460048036038101906103cf9190612ab7565b610d57565b005b6103f060048036038101906103eb9190612b65565b610ecf565b6040516103fd919061316f565b60405180910390f35b61040e610f3a565b60405161041b91906131a5565b60405180910390f35b61043e60048036038101906104399190612c2c565b610fcc565b005b6104486110e6565b604051610455919061318a565b60405180910390f35b61047860048036038101906104739190612a77565b6110ed565b005b610494600480360381019061048f91906129f4565b61126e565b005b6104b060048036038101906104ab9190612bff565b6112d0565b6040516104bd91906131a5565b60405180910390f35b6104e060048036038101906104db9190612bff565b611377565b6040516104ed91906133e7565b60405180910390f35b610510600480360381019061050b9190612b65565b611438565b005b61052c60048036038101906105279190612961565b611461565b604051610539919061316f565b60405180910390f35b61054a6114f5565b604051610557919061318a565b60405180910390f35b600061056b82611519565b8061057b575061057a826115fb565b5b9050919050565b60606000805461059190613716565b80601f01602080910402602001604051908101604052809291908181526020018280546105bd90613716565b801561060a5780601f106105df5761010080835404028352916020019161060a565b820191906000526020600020905b8154815290600101906020018083116105ed57829003601f168201915b5050505050905090565b600061061f82611675565b61065e576040517f08c379a000000000000000000000000000000000000000000000000000000000815260040161065590613307565b60405180910390fd5b6004600083815260200190815260200160002060009054906101000a900473ffffffffffffffffffffffffffffffffffffffff169050919050565b60006106a4826116e1565b90508073ffffffffffffffffffffffffffffffffffffffff168373ffffffffffffffffffffffffffffffffffffffff161415610715576040517f08c379a000000000000000000000000000000000000000000000000000000000815260040161070c90613367565b60405180910390fd5b8073ffffffffffffffffffffffffffffffffffffffff16610734611793565b73ffffffffffffffffffffffffffffffffffffffff16148061076357506107628161075d611793565b611461565b5b6107a2576040517f08c379a000000000000000000000000000000000000000000000000000000000815260040161079990613287565b60405180910390fd5b6107ac838361179b565b505050565b6107c26107bc611793565b82611854565b610801576040517f08c379a00000000000000000000000000000000000000000000000000000000081526004016107f890613387565b60405180910390fd5b61080c838383611932565b505050565b600060066000838152602001908152602001600020600101549050919050565b7f21d749bccb2cd1ecd43da02f61cbdf715b020c28617853628b041975aa29b9166108638161085e611793565b611b8e565b6000600960008581526020019081526020016000206000015414156108bd576040517f08c379a00000000000000000000000000000000000000000000000000000000081526004016108b4906133a7565b60405180910390fd5b60006009600085815260200190815260200160002090508281600201819055503373ffffffffffffffffffffffffffffffffffffffff167f62e00c1a77a5476b5c616408e2926dbe3847467758ce6ede44452df1380f13b785854260405161092793929190613447565b60405180910390a250505050565b61093e82610811565b61094f8161094a611793565b611b8e565b6109598383611c2b565b505050565b610966611793565b73ffffffffffffffffffffffffffffffffffffffff168173ffffffffffffffffffffffffffffffffffffffff16146109d3576040517f08c379a00000000000000000000000000000000000000000000000000000000081526004016109ca906133c7565b60405180910390fd5b6109dd8282611d0c565b5050565b6109fc8383836040518060200160405280600081525061126e565b505050565b7f21d749bccb2cd1ecd43da02f61cbdf715b020c28617853628b041975aa29b916610a3381610a2e611793565b611b8e565b610a3c82611dee565b6008600083815260200190815260200160002060006101000a81549073ffffffffffffffffffffffffffffffffffffffff0219169055600960008381526020019081526020016000206000808201600090556001820160009055600282016000905560038201600090556004820160009055600582016000905560068201600090556007820160009055600882016000905550503373ffffffffffffffffffffffffffffffffffffffff167f23ff0e75edf108e3d0392d92e13e8c8a868ef19001bd49f9e94876dc46dff87f8342604051610b1892919061341e565b60405180910390a25050565b7f21d749bccb2cd1ecd43da02f61cbdf715b020c28617853628b041975aa29b91681565b7f21d749bccb2cd1ecd43da02f61cbdf715b020c28617853628b041975aa29b916610b7a81610b75611793565b611b8e565b600060096000858152602001908152602001600020600001541415610bd4576040517f08c379a0000000000000000000000000000000000000000000000000000000008152600401610bcb906133a7565b60405180910390fd5b600060096000858152602001908152602001600020905082816008016000828254610bff9190613517565b925050819055503373ffffffffffffffffffffffffffffffffffffffff167f36276b62f242023ec0999597225bc812dce6194904604ac74b5abbcdbeb139f482600001548542604051610c5493929190613447565b60405180910390a250505050565b60006008600083815260200190815260200160002060009054906101000a900473ffffffffffffffffffffffffffffffffffffffff169050919050565b60008073ffffffffffffffffffffffffffffffffffffffff168273ffffffffffffffffffffffffffffffffffffffff161415610d10576040517f08c379a0000000000000000000000000000000000000000000000000000000008152600401610d07906132a7565b60405180910390fd5b600360008373ffffffffffffffffffffffffffffffffffffffff1673ffffffffffffffffffffffffffffffffffffffff168152602001908152602001600020549050919050565b7f21d749bccb2cd1ecd43da02f61cbdf715b020c28617853628b041975aa29b916610d8981610d84611793565b611b8e565b610d936007611eff565b6000610d9f6007611f15565b905080836000018181525050610db58482611f23565b836008600083815260200190815260200160002060006101000a81548173ffffffffffffffffffffffffffffffffffffffff021916908373ffffffffffffffffffffffffffffffffffffffff1602179055508260096000838152602001908152602001600020600082015181600001556020820151816001015560408201518160020155606082015181600301556080820151816004015560a0820151816005015560c0820151816006015560e0820151816007015561010082015181600801559050508373ffffffffffffffffffffffffffffffffffffffff167f25b428dfde728ccfaddad7e29e4ac23c24ed7fd1a6e3e3f91894a9a073f5dfff8242604051610ec192919061341e565b60405180910390a250505050565b60006006600084815260200190815260200160002060000160008373ffffffffffffffffffffffffffffffffffffffff1673ffffffffffffffffffffffffffffffffffffffff16815260200190815260200160002060009054906101000a900460ff16905092915050565b606060018054610f4990613716565b80601f0160208091040260200160405190810160405280929190818152602001828054610f7590613716565b8015610fc25780601f10610f9757610100808354040283529160200191610fc2565b820191906000526020600020905b815481529060010190602001808311610fa557829003601f168201915b5050505050905090565b7f21d749bccb2cd1ecd43da02f61cbdf715b020c28617853628b041975aa29b916610ffe81610ff9611793565b611b8e565b600060096000858152602001908152602001600020600001541415611058576040517f08c379a000000000000000000000000000000000000000000000000000000000815260040161104f906133a7565b60405180910390fd5b6000600960008581526020019081526020016000209050828160030160008282546110839190613517565b925050819055503373ffffffffffffffffffffffffffffffffffffffff167fa37027cb42adc6896f06e8c3b9ef61d7c76b732eb26e9dfca7dee642a85b3933826000015485426040516110d893929190613447565b60405180910390a250505050565b6000801b81565b6110f5611793565b73ffffffffffffffffffffffffffffffffffffffff168273ffffffffffffffffffffffffffffffffffffffff161415611163576040517f08c379a000000000000000000000000000000000000000000000000000000000815260040161115a90613247565b60405180910390fd5b8060056000611170611793565b73ffffffffffffffffffffffffffffffffffffffff1673ffffffffffffffffffffffffffffffffffffffff16815260200190815260200160002060008473ffffffffffffffffffffffffffffffffffffffff1673ffffffffffffffffffffffffffffffffffffffff16815260200190815260200160002060006101000a81548160ff0219169083151502179055508173ffffffffffffffffffffffffffffffffffffffff1661121d611793565b73ffffffffffffffffffffffffffffffffffffffff167f17307eab39ab6107e8899845ad3d59bd9653f200f220920489ca2b5937696c3183604051611262919061316f565b60405180910390a35050565b61127f611279611793565b83611854565b6112be576040517f08c379a00000000000000000000000000000000000000000000000000000000081526004016112b590613387565b60405180910390fd5b6112ca848484846120f1565b50505050565b60606112db82611675565b61131a576040517f08c379a000000000000000000000000000000000000000000000000000000000815260040161131190613347565b60405180910390fd5b600061132461214d565b90506000815111611344576040518060200160405280600081525061136f565b8061134e84612164565b60405160200161135f9291906130aa565b6040516020818303038152906040525b915050919050565b61137f61271a565b7f21d749bccb2cd1ecd43da02f61cbdf715b020c28617853628b041975aa29b9166113b1816113ac611793565b611b8e565b60006009600085815260200190815260200160002060405180610120016040529081600082015481526020016001820154815260200160028201548152602001600382015481526020016004820154815260200160058201548152602001600682015481526020016007820154815260200160088201548152505090508092505050919050565b61144182610811565b6114528161144d611793565b611b8e565b61145c8383611d0c565b505050565b6000600560008473ffffffffffffffffffffffffffffffffffffffff1673ffffffffffffffffffffffffffffffffffffffff16815260200190815260200160002060008373ffffffffffffffffffffffffffffffffffffffff1673ffffffffffffffffffffffffffffffffffffffff16815260200190815260200160002060009054906101000a900460ff16905092915050565b7f7f7bbcda39ae5178d4dfa23b257c451c03decf7b918c030beee122c680d5638781565b60007f80ac58cd000000000000000000000000000000000000000000000000000000007bffffffffffffffffffffffffffffffffffffffffffffffffffffffff1916827bffffffffffffffffffffffffffffffffffffffffffffffffffffffff191614806115e457507f5b5e139f000000000000000000000000000000000000000000000000000000007bffffffffffffffffffffffffffffffffffffffffffffffffffffffff1916827bffffffffffffffffffffffffffffffffffffffffffffffffffffffff1916145b806115f457506115f3826122c5565b5b9050919050565b60007f7965db0b000000000000000000000000000000000000000000000000000000007bffffffffffffffffffffffffffffffffffffffffffffffffffffffff1916827bffffffffffffffffffffffffffffffffffffffffffffffffffffffff1916148061166e575061166d82611519565b5b9050919050565b60008073ffffffffffffffffffffffffffffffffffffffff166002600084815260200190815260200160002060009054906101000a900473ffffffffffffffffffffffffffffffffffffffff1673ffffffffffffffffffffffffffffffffffffffff1614159050919050565b6000806002600084815260200190815260200160002060009054906101000a900473ffffffffffffffffffffffffffffffffffffffff169050600073ffffffffffffffffffffffffffffffffffffffff168173ffffffffffffffffffffffffffffffffffffffff16141561178a576040517f08c379a0000000000000000000000000000000000000000000000000000000008152600401611781906132c7565b60405180910390fd5b80915050919050565b600033905090565b816004600083815260200190815260200160002060006101000a81548173ffffffffffffffffffffffffffffffffffffffff021916908373ffffffffffffffffffffffffffffffffffffffff160217905550808273ffffffffffffffffffffffffffffffffffffffff1661180e836116e1565b73ffffffffffffffffffffffffffffffffffffffff167f8c5be1e5ebec7d5bd14f71427d1e84f3dd0314c0f7b2291e5b200ac8c7c3b92560405160405180910390a45050565b600061185f82611675565b61189e576040517f08c379a000000000000000000000000000000000000000000000000000000000815260040161189590613267565b60405180910390fd5b60006118a9836116e1565b90508073ffffffffffffffffffffffffffffffffffffffff168473ffffffffffffffffffffffffffffffffffffffff16148061191857508373ffffffffffffffffffffffffffffffffffffffff1661190084610614565b73ffffffffffffffffffffffffffffffffffffffff16145b8061192957506119288185611461565b5b91505092915050565b8273ffffffffffffffffffffffffffffffffffffffff16611952826116e1565b73ffffffffffffffffffffffffffffffffffffffff16146119a8576040517f08c379a000000000000000000000000000000000000000000000000000000000815260040161199f90613327565b60405180910390fd5b600073ffffffffffffffffffffffffffffffffffffffff168273ffffffffffffffffffffffffffffffffffffffff161415611a18576040517f08c379a0000000000000000000000000000000000000000000000000000000008152600401611a0f90613227565b60405180910390fd5b611a2383838361232f565b611a2e60008261179b565b6001600360008573ffffffffffffffffffffffffffffffffffffffff1673ffffffffffffffffffffffffffffffffffffffff1681526020019081526020016000206000828254611a7e91906135f8565b925050819055506001600360008473ffffffffffffffffffffffffffffffffffffffff1673ffffffffffffffffffffffffffffffffffffffff1681526020019081526020016000206000828254611ad59190613517565b92505081905550816002600083815260200190815260200160002060006101000a81548173ffffffffffffffffffffffffffffffffffffffff021916908373ffffffffffffffffffffffffffffffffffffffff160217905550808273ffffffffffffffffffffffffffffffffffffffff168473ffffffffffffffffffffffffffffffffffffffff167fddf252ad1be2c89b69c2b068fc378daa952ba7f163c4a11628f55a4df523b3ef60405160405180910390a4505050565b611b988282610ecf565b611c2757611bbd8173ffffffffffffffffffffffffffffffffffffffff166014612334565b611bcb8360001c6020612334565b604051602001611bdc9291906130ce565b6040516020818303038152906040526040517f08c379a0000000000000000000000000000000000000000000000000000000008152600401611c1e91906131a5565b60405180910390fd5b5050565b611c358282610ecf565b611d085760016006600084815260200190815260200160002060000160008373ffffffffffffffffffffffffffffffffffffffff1673ffffffffffffffffffffffffffffffffffffffff16815260200190815260200160002060006101000a81548160ff021916908315150217905550611cad611793565b73ffffffffffffffffffffffffffffffffffffffff168173ffffffffffffffffffffffffffffffffffffffff16837f2f8788117e7eff1d82e926ec794901d17c78024a50270940304540a733656f0d60405160405180910390a45b5050565b611d168282610ecf565b15611dea5760006006600084815260200190815260200160002060000160008373ffffffffffffffffffffffffffffffffffffffff1673ffffffffffffffffffffffffffffffffffffffff16815260200190815260200160002060006101000a81548160ff021916908315150217905550611d8f611793565b73ffffffffffffffffffffffffffffffffffffffff168173ffffffffffffffffffffffffffffffffffffffff16837ff6391f5c32d9c69d2a47ea670b442974b53935d1edc7fd64eb21e047a839171b60405160405180910390a45b5050565b6000611df9826116e1565b9050611e078160008461232f565b611e1260008361179b565b6001600360008373ffffffffffffffffffffffffffffffffffffffff1673ffffffffffffffffffffffffffffffffffffffff1681526020019081526020016000206000828254611e6291906135f8565b925050819055506002600083815260200190815260200160002060006101000a81549073ffffffffffffffffffffffffffffffffffffffff021916905581600073ffffffffffffffffffffffffffffffffffffffff168273ffffffffffffffffffffffffffffffffffffffff167fddf252ad1be2c89b69c2b068fc378daa952ba7f163c4a11628f55a4df523b3ef60405160405180910390a45050565b6001816000016000828254019250508190555050565b600081600001549050919050565b600073ffffffffffffffffffffffffffffffffffffffff168273ffffffffffffffffffffffffffffffffffffffff161415611f93576040517f08c379a0000000000000000000000000000000000000000000000000000000008152600401611f8a906132e7565b60405180910390fd5b611f9c81611675565b15611fdc576040517f08c379a0000000000000000000000000000000000000000000000000000000008152600401611fd390613207565b60405180910390fd5b611fe86000838361232f565b6001600360008473ffffffffffffffffffffffffffffffffffffffff1673ffffffffffffffffffffffffffffffffffffffff16815260200190815260200160002060008282546120389190613517565b92505081905550816002600083815260200190815260200160002060006101000a81548173ffffffffffffffffffffffffffffffffffffffff021916908373ffffffffffffffffffffffffffffffffffffffff160217905550808273ffffffffffffffffffffffffffffffffffffffff16600073ffffffffffffffffffffffffffffffffffffffff167fddf252ad1be2c89b69c2b068fc378daa952ba7f163c4a11628f55a4df523b3ef60405160405180910390a45050565b6120fc848484611932565b61210884848484612570565b612147576040517f08c379a000000000000000000000000000000000000000000000000000000000815260040161213e906131e7565b60405180910390fd5b50505050565b606060405180602001604052806000815250905090565b606060008214156121ac576040518060400160405280600181526020017f300000000000000000000000000000000000000000000000000000000000000081525090506122c0565b600082905060005b600082146121de5780806121c790613779565b915050600a826121d7919061356d565b91506121b4565b60008167ffffffffffffffff8111156121fa576121f96138af565b5b6040519080825280601f01601f19166020018201604052801561222c5781602001600182028036833780820191505090505b5090505b600085146122b95760018261224591906135f8565b9150600a8561225491906137c2565b60306122609190613517565b60f81b81838151811061227657612275613880565b5b60200101907effffffffffffffffffffffffffffffffffffffffffffffffffffffffffffff1916908160001a905350600a856122b2919061356d565b9450612230565b8093505050505b919050565b60007f01ffc9a7000000000000000000000000000000000000000000000000000000007bffffffffffffffffffffffffffffffffffffffffffffffffffffffff1916827bffffffffffffffffffffffffffffffffffffffffffffffffffffffff1916149050919050565b505050565b606060006002836002612347919061359e565b6123519190613517565b67ffffffffffffffff81111561236a576123696138af565b5b6040519080825280601f01601f19166020018201604052801561239c5781602001600182028036833780820191505090505b5090507f3000000000000000000000000000000000000000000000000000000000000000816000815181106123d4576123d3613880565b5b60200101907effffffffffffffffffffffffffffffffffffffffffffffffffffffffffffff1916908160001a9053507f78000000000000000000000000000000000000000000000000000000000000008160018151811061243857612437613880565b5b60200101907effffffffffffffffffffffffffffffffffffffffffffffffffffffffffffff1916908160001a90535060006001846002612478919061359e565b6124829190613517565b90505b6001811115612522577f3031323334353637383961626364656600000000000000000000000000000000600f8616601081106124c4576124c3613880565b5b1a60f81b8282815181106124db576124da613880565b5b60200101907effffffffffffffffffffffffffffffffffffffffffffffffffffffffffffff1916908160001a905350600485901c94508061251b906136ec565b9050612485565b5060008414612566576040517f08c379a000000000000000000000000000000000000000000000000000000000815260040161255d906131c7565b60405180910390fd5b8091505092915050565b60006125918473ffffffffffffffffffffffffffffffffffffffff16612707565b156126fa578373ffffffffffffffffffffffffffffffffffffffff1663150b7a026125ba611793565b8786866040518563ffffffff1660e01b81526004016125dc9493929190613123565b602060405180830381600087803b1580156125f657600080fd5b505af192505050801561262757506040513d601f19601f820116820180604052508101906126249190612bd2565b60015b6126aa573d8060008114612657576040519150601f19603f3d011682016040523d82523d6000602084013e61265c565b606091505b506000815114156126a2576040517f08c379a0000000000000000000000000000000000000000000000000000000008152600401612699906131e7565b60405180910390fd5b805181602001fd5b63150b7a0260e01b7bffffffffffffffffffffffffffffffffffffffffffffffffffffffff1916817bffffffffffffffffffffffffffffffffffffffffffffffffffffffff1916149150506126ff565b600190505b949350505050565b600080823b905060008111915050919050565b6040518061012001604052806000815260200160008152602001600081526020016000815260200160008152602001600081526020016000815260200160008152602001600081525090565b6000612779612774846134a3565b61347e565b905082815260208101848484011115612795576127946138e8565b5b6127a08482856136aa565b509392505050565b6000813590506127b781613ddb565b92915050565b6000813590506127cc81613df2565b92915050565b6000813590506127e181613e09565b92915050565b6000813590506127f681613e20565b92915050565b60008151905061280b81613e20565b92915050565b600082601f830112612826576128256138de565b5b8135612836848260208601612766565b91505092915050565b60006101208284031215612856576128556138e3565b5b61286161012061347e565b905060006128718482850161291f565b60008301525060206128858482850161291f565b60208301525060406128998482850161291f565b60408301525060606128ad8482850161291f565b60608301525060806128c18482850161291f565b60808301525060a06128d58482850161291f565b60a08301525060c06128e98482850161291f565b60c08301525060e06128fd8482850161291f565b60e0830152506101006129128482850161291f565b6101008301525092915050565b60008135905061292e81613e37565b92915050565b60006020828403121561294a576129496138f2565b5b6000612958848285016127a8565b91505092915050565b60008060408385031215612978576129776138f2565b5b6000612986858286016127a8565b9250506020612997858286016127a8565b9150509250929050565b6000806000606084860312156129ba576129b96138f2565b5b60006129c8868287016127a8565b93505060206129d9868287016127a8565b92505060406129ea8682870161291f565b9150509250925092565b60008060008060808587031215612a0e57612a0d6138f2565b5b6000612a1c878288016127a8565b9450506020612a2d878288016127a8565b9350506040612a3e8782880161291f565b925050606085013567ffffffffffffffff811115612a5f57612a5e6138ed565b5b612a6b87828801612811565b91505092959194509250565b60008060408385031215612a8e57612a8d6138f2565b5b6000612a9c858286016127a8565b9250506020612aad858286016127bd565b9150509250929050565b6000806101408385031215612acf57612ace6138f2565b5b6000612add858286016127a8565b9250506020612aee8582860161283f565b9150509250929050565b60008060408385031215612b0f57612b0e6138f2565b5b6000612b1d858286016127a8565b9250506020612b2e8582860161291f565b9150509250929050565b600060208284031215612b4e57612b4d6138f2565b5b6000612b5c848285016127d2565b91505092915050565b60008060408385031215612b7c57612b7b6138f2565b5b6000612b8a858286016127d2565b9250506020612b9b858286016127a8565b9150509250929050565b600060208284031215612bbb57612bba6138f2565b5b6000612bc9848285016127e7565b91505092915050565b600060208284031215612be857612be76138f2565b5b6000612bf6848285016127fc565b91505092915050565b600060208284031215612c1557612c146138f2565b5b6000612c238482850161291f565b91505092915050565b60008060408385031215612c4357612c426138f2565b5b6000612c518582860161291f565b9250506020612c628582860161291f565b9150509250929050565b612c758161362c565b82525050565b612c848161363e565b82525050565b612c938161364a565b82525050565b6000612ca4826134d4565b612cae81856134ea565b9350612cbe8185602086016136b9565b612cc7816138f7565b840191505092915050565b6000612cdd826134df565b612ce781856134fb565b9350612cf78185602086016136b9565b612d00816138f7565b840191505092915050565b6000612d16826134df565b612d20818561350c565b9350612d308185602086016136b9565b80840191505092915050565b6000612d496020836134fb565b9150612d5482613908565b602082019050919050565b6000612d6c6032836134fb565b9150612d7782613931565b604082019050919050565b6000612d8f601c836134fb565b9150612d9a82613980565b602082019050919050565b6000612db26024836134fb565b9150612dbd826139a9565b604082019050919050565b6000612dd56019836134fb565b9150612de0826139f8565b602082019050919050565b6000612df8602c836134fb565b9150612e0382613a21565b604082019050919050565b6000612e1b6038836134fb565b9150612e2682613a70565b604082019050919050565b6000612e3e602a836134fb565b9150612e4982613abf565b604082019050919050565b6000612e616029836134fb565b9150612e6c82613b0e565b604082019050919050565b6000612e846020836134fb565b9150612e8f82613b5d565b602082019050919050565b6000612ea7602c836134fb565b9150612eb282613b86565b604082019050919050565b6000612eca6029836134fb565b9150612ed582613bd5565b604082019050919050565b6000612eed602f836134fb565b9150612ef882613c24565b604082019050919050565b6000612f106021836134fb565b9150612f1b82613c73565b604082019050919050565b6000612f336031836134fb565b9150612f3e82613cc2565b604082019050919050565b6000612f5660178361350c565b9150612f6182613d11565b601782019050919050565b6000612f79601a836134fb565b9150612f8482613d3a565b602082019050919050565b6000612f9c60118361350c565b9150612fa782613d63565b601182019050919050565b6000612fbf602f836134fb565b9150612fca82613d8c565b604082019050919050565b61012082016000820151612fec600085018261308c565b506020820151612fff602085018261308c565b506040820151613012604085018261308c565b506060820151613025606085018261308c565b506080820151613038608085018261308c565b5060a082015161304b60a085018261308c565b5060c082015161305e60c085018261308c565b5060e082015161307160e085018261308c565b5061010082015161308661010085018261308c565b50505050565b613095816136a0565b82525050565b6130a4816136a0565b82525050565b60006130b68285612d0b565b91506130c28284612d0b565b91508190509392505050565b60006130d982612f49565b91506130e58285612d0b565b91506130f082612f8f565b91506130fc8284612d0b565b91508190509392505050565b600060208201905061311d6000830184612c6c565b92915050565b60006080820190506131386000830187612c6c565b6131456020830186612c6c565b613152604083018561309b565b81810360608301526131648184612c99565b905095945050505050565b60006020820190506131846000830184612c7b565b92915050565b600060208201905061319f6000830184612c8a565b92915050565b600060208201905081810360008301526131bf8184612cd2565b905092915050565b600060208201905081810360008301526131e081612d3c565b9050919050565b6000602082019050818103600083015261320081612d5f565b9050919050565b6000602082019050818103600083015261322081612d82565b9050919050565b6000602082019050818103600083015261324081612da5565b9050919050565b6000602082019050818103600083015261326081612dc8565b9050919050565b6000602082019050818103600083015261328081612deb565b9050919050565b600060208201905081810360008301526132a081612e0e565b9050919050565b600060208201905081810360008301526132c081612e31565b9050919050565b600060208201905081810360008301526132e081612e54565b9050919050565b6000602082019050818103600083015261330081612e77565b9050919050565b6000602082019050818103600083015261332081612e9a565b9050919050565b6000602082019050818103600083015261334081612ebd565b9050919050565b6000602082019050818103600083015261336081612ee0565b9050919050565b6000602082019050818103600083015261338081612f03565b9050919050565b600060208201905081810360008301526133a081612f26565b9050919050565b600060208201905081810360008301526133c081612f6c565b9050919050565b600060208201905081810360008301526133e081612fb2565b9050919050565b6000610120820190506133fd6000830184612fd5565b92915050565b6000602082019050613418600083018461309b565b92915050565b6000604082019050613433600083018561309b565b613440602083018461309b565b9392505050565b600060608201905061345c600083018661309b565b613469602083018561309b565b613476604083018461309b565b949350505050565b6000613488613499565b90506134948282613748565b919050565b6000604051905090565b600067ffffffffffffffff8211156134be576134bd6138af565b5b6134c7826138f7565b9050602081019050919050565b600081519050919050565b600081519050919050565b600082825260208201905092915050565b600082825260208201905092915050565b600081905092915050565b6000613522826136a0565b915061352d836136a0565b9250827fffffffffffffffffffffffffffffffffffffffffffffffffffffffffffffffff03821115613562576135616137f3565b5b828201905092915050565b6000613578826136a0565b9150613583836136a0565b92508261359357613592613822565b5b828204905092915050565b60006135a9826136a0565b91506135b4836136a0565b9250817fffffffffffffffffffffffffffffffffffffffffffffffffffffffffffffffff04831182151516156135ed576135ec6137f3565b5b828202905092915050565b6000613603826136a0565b915061360e836136a0565b925082821015613621576136206137f3565b5b828203905092915050565b600061363782613680565b9050919050565b60008115159050919050565b6000819050919050565b60007fffffffff0000000000000000000000000000000000000000000000000000000082169050919050565b600073ffffffffffffffffffffffffffffffffffffffff82169050919050565b6000819050919050565b82818337600083830152505050565b60005b838110156136d75780820151818401526020810190506136bc565b838111156136e6576000848401525b50505050565b60006136f7826136a0565b9150600082141561370b5761370a6137f3565b5b600182039050919050565b6000600282049050600182168061372e57607f821691505b6020821081141561374257613741613851565b5b50919050565b613751826138f7565b810181811067ffffffffffffffff821117156137705761376f6138af565b5b80604052505050565b6000613784826136a0565b91507fffffffffffffffffffffffffffffffffffffffffffffffffffffffffffffffff8214156137b7576137b66137f3565b5b600182019050919050565b60006137cd826136a0565b91506137d8836136a0565b9250826137e8576137e7613822565b5b828206905092915050565b7f4e487b7100000000000000000000000000000000000000000000000000000000600052601160045260246000fd5b7f4e487b7100000000000000000000000000000000000000000000000000000000600052601260045260246000fd5b7f4e487b7100000000000000000000000000000000000000000000000000000000600052602260045260246000fd5b7f4e487b7100000000000000000000000000000000000000000000000000000000600052603260045260246000fd5b7f4e487b7100000000000000000000000000000000000000000000000000000000600052604160045260246000fd5b600080fd5b600080fd5b600080fd5b600080fd5b600080fd5b6000601f19601f8301169050919050565b7f537472696e67733a20686578206c656e67746820696e73756666696369656e74600082015250565b7f4552433732313a207472616e7366657220746f206e6f6e20455243373231526560008201527f63656976657220696d706c656d656e7465720000000000000000000000000000602082015250565b7f4552433732313a20746f6b656e20616c7265616479206d696e74656400000000600082015250565b7f4552433732313a207472616e7366657220746f20746865207a65726f2061646460008201527f7265737300000000000000000000000000000000000000000000000000000000602082015250565b7f4552433732313a20617070726f766520746f2063616c6c657200000000000000600082015250565b7f4552433732313a206f70657261746f7220717565727920666f72206e6f6e657860008201527f697374656e7420746f6b656e0000000000000000000000000000000000000000602082015250565b7f4552433732313a20617070726f76652063616c6c6572206973206e6f74206f7760008201527f6e6572206e6f7220617070726f76656420666f7220616c6c0000000000000000602082015250565b7f4552433732313a2062616c616e636520717565727920666f7220746865207a6560008201527f726f206164647265737300000000000000000000000000000000000000000000602082015250565b7f4552433732313a206f776e657220717565727920666f72206e6f6e657869737460008201527f656e7420746f6b656e0000000000000000000000000000000000000000000000602082015250565b7f4552433732313a206d696e7420746f20746865207a65726f2061646472657373600082015250565b7f4552433732313a20617070726f76656420717565727920666f72206e6f6e657860008201527f697374656e7420746f6b656e0000000000000000000000000000000000000000602082015250565b7f4552433732313a207472616e73666572206f6620746f6b656e2074686174206960008201527f73206e6f74206f776e0000000000000000000000000000000000000000000000602082015250565b7f4552433732314d657461646174613a2055524920717565727920666f72206e6f60008201527f6e6578697374656e7420746f6b656e0000000000000000000000000000000000602082015250565b7f4552433732313a20617070726f76616c20746f2063757272656e74206f776e6560008201527f7200000000000000000000000000000000000000000000000000000000000000602082015250565b7f4552433732313a207472616e736665722063616c6c6572206973206e6f74206f60008201527f776e6572206e6f7220617070726f766564000000000000000000000000000000602082015250565b7f416363657373436f6e74726f6c3a206163636f756e7420000000000000000000600082015250565b7f4163636f756e7420646f6573206e6f74206861766520426f7073000000000000600082015250565b7f206973206d697373696e6720726f6c6520000000000000000000000000000000600082015250565b7f416363657373436f6e74726f6c3a2063616e206f6e6c792072656e6f756e636560008201527f20726f6c657320666f722073656c660000000000000000000000000000000000602082015250565b613de48161362c565b8114613def57600080fd5b50565b613dfb8161363e565b8114613e0657600080fd5b50565b613e128161364a565b8114613e1d57600080fd5b50565b613e2981613654565b8114613e3457600080fd5b50565b613e40816136a0565b8114613e4b57600080fd5b5056fea2646970667358221220966cb1ae458957cac9ce02e310c85c293753798abbdadec5f463398595a417f064736f6c63430008060033",
  "immutableReferences": {},
  "source": "// SPDX-License-Identifier: MIT\npragma solidity ^0.8.2;\n\nimport \"@openzeppelin/contracts/utils/Counters.sol\";\nimport \"@openzeppelin/contracts/token/ERC721/ERC721.sol\";\nimport \"@openzeppelin/contracts/access/Ownable.sol\";\nimport \"@openzeppelin/contracts/access/AccessControl.sol\";\n\nimport \"./Structs.sol\";\n\n/**\n * @title the NFT contract for Bops\n * @author Vijay Dhanasekaran\n */\ncontract BopsToken is ERC721, AccessControl {\n    bytes32 public constant SONGS_MANAGER = keccak256(\"SONGS_MANAGER\");\n    bytes32 public constant SONG_CONTRACT = keccak256(\"SONG_CONTRACT\");\n\n    using Counters for Counters.Counter;\n    Counters.Counter private _bopsTokenId;\n\n    mapping(uint256 => address) private _bopsTokenOwners;\n    mapping(uint256 => Bops) private _bopsTokens;\n\n    event Minted(address indexed account, uint256 bopsTokenId, uint256 timestamp);\n    event Burned(address indexed account, uint256 bopsTokenId, uint256 timestamp);\n    event UpdatedLevel(address indexed account, uint256 bopsTokenId, uint256 level, uint256 timestamp);\n    event IncreasedIntensity(address indexed account, uint256 bopsTokenId, uint256 amount, uint256 timestamp);\n    event BurnedBeats(address indexed account, uint256 bopsTokenId, uint256 amount, uint256 timestamp);\n\n    /**\n     * @param name name of the token\n     * @param symbol symbol of the token\n     * @param _songsManagerAddress the address of the SongsManager contract\n     */\n    constructor(\n        string memory name,\n        string memory symbol,\n        address _songsManagerAddress\n    ) ERC721(name, symbol) {\n        _setRoleAdmin(SONG_CONTRACT, SONGS_MANAGER);\n        _setupRole(SONGS_MANAGER, _songsManagerAddress);\n    }\n\n    /**\n     * @notice Bops struct getter (only for owner)\n     * @param bopsTokenId The id of the media to retrieve\n     * @return The struct with the Bops data\n     */\n    function getBops(uint256 bopsTokenId) external view onlyRole(SONG_CONTRACT) returns (Bops memory) {\n        Bops memory bops = _bopsTokens[bopsTokenId];\n        return bops;\n    }\n\n    /**\n     * @notice Mint Bops NFT Token\n     * @param to The address of the account holder\n     * @param bopsData The Bops data struct\n     */\n    function mint(address to, Bops memory bopsData) public onlyRole(SONG_CONTRACT) {\n        // generate new token id\n        _bopsTokenId.increment();\n        uint256 newTokenId = _bopsTokenId.current();\n        bopsData.bopsId = newTokenId;\n\n        _mint(to, newTokenId);\n\n        // store in storage\n        _bopsTokenOwners[newTokenId] = to;\n        _bopsTokens[newTokenId] = bopsData;\n\n        emit Minted(to, newTokenId, block.timestamp);\n    }\n\n    /**\n     * @notice Burn Bops NFT Token\n     * @param bopsTokenId The NFT token Id\n     */\n    function burn(uint256 bopsTokenId) public onlyRole(SONG_CONTRACT) {\n        _burn(bopsTokenId);\n\n        // remove token and  nullify\n        delete _bopsTokenOwners[bopsTokenId];\n        delete _bopsTokens[bopsTokenId];\n\n        emit Burned(msg.sender, bopsTokenId, block.timestamp);\n    }\n\n    /**\n     * @dev returns owner of tokenId\n     **/\n    function ownerOf(uint256 bopsTokenId) public view override returns (address) {\n        return _bopsTokenOwners[bopsTokenId];\n    }\n\n    /**\n     * @notice Update Bops level (only by the owner)\n     * @param bopsTokenId The Bops NFT token Id\n     * @param level The level to be updated\n     */\n    function updateLevel(uint256 bopsTokenId, uint256 level) external onlyRole(SONG_CONTRACT) {\n        require(_bopsTokens[bopsTokenId].bopsId != 0, \"Account does not have Bops\");\n        Bops storage bops = _bopsTokens[bopsTokenId];\n        bops.level = level;\n\n        emit UpdatedLevel(msg.sender, bopsTokenId, level, block.timestamp);\n    }\n\n    /**\n     * @notice Increase the intensity (only by the owner)\n     * @param bopsTokenId The Bops NFT token Id\n     * @param intensity The intensity to be increased\n     */\n    function increaseIntensity(uint256 bopsTokenId, uint256 intensity) external onlyRole(SONG_CONTRACT) {\n        require(_bopsTokens[bopsTokenId].bopsId != 0, \"Account does not have Bops\");\n        Bops storage bops = _bopsTokens[bopsTokenId];\n        bops.intensity += intensity;\n\n        emit IncreasedIntensity(msg.sender, bops.bopsId, intensity, block.timestamp);\n    }\n\n    /**\n     * @notice Burn beats (only by the owner)\n     * @param bopsTokenId The Bops NFT token Id\n     * @param beatsToBurn The amount of beats to be burnt\n     */\n    function burnBeats(uint256 bopsTokenId, uint256 beatsToBurn) external onlyRole(SONG_CONTRACT) {\n        require(_bopsTokens[bopsTokenId].bopsId != 0, \"Account does not have Bops\");\n        Bops storage bops = _bopsTokens[bopsTokenId];\n        bops.beatsBurnt += beatsToBurn;\n\n        emit BurnedBeats(msg.sender, bops.bopsId, beatsToBurn, block.timestamp);\n    }\n\n    /**\n     * @dev See {IERC165-supportsInterface}.\n     */\n    function supportsInterface(bytes4 interfaceId)\n        public\n        view\n        override(ERC721, AccessControl)\n        returns (bool)\n    {\n        return ERC721.supportsInterface(interfaceId) || AccessControl.supportsInterface(interfaceId);\n    }\n}\n",
  "sourcePath": "/home/ericng/Documents/PRIVI/privi-trax-app/contracts/BopsToken.sol",
  "compiler": {
    "name": "solc",
    "version": "0.8.6+commit.11564f7e.Emscripten.clang"
  },
  "schemaVersion": "3.4.2",
  "updatedAt": "2021-08-24T16:01:25.196Z",
  "devdoc": {
    "author": "Vijay Dhanasekaran",
    "kind": "dev",
    "methods": {
      "approve(address,uint256)": {
        "details": "See {IERC721-approve}."
      },
      "balanceOf(address)": {
        "details": "See {IERC721-balanceOf}."
      },
      "burn(uint256)": {
        "params": {
          "bopsTokenId": "The NFT token Id"
        }
      },
      "burnBeats(uint256,uint256)": {
        "params": {
          "beatsToBurn": "The amount of beats to be burnt",
          "bopsTokenId": "The Bops NFT token Id"
        }
      },
      "constructor": {
        "params": {
          "_songsManagerAddress": "the address of the SongsManager contract",
          "name": "name of the token",
          "symbol": "symbol of the token"
        }
      },
      "getApproved(uint256)": {
        "details": "See {IERC721-getApproved}."
      },
      "getBops(uint256)": {
        "params": {
          "bopsTokenId": "The id of the media to retrieve"
        },
        "returns": {
          "_0": "The struct with the Bops data"
        }
      },
      "getRoleAdmin(bytes32)": {
        "details": "Returns the admin role that controls `role`. See {grantRole} and {revokeRole}. To change a role's admin, use {_setRoleAdmin}."
      },
      "grantRole(bytes32,address)": {
        "details": "Grants `role` to `account`. If `account` had not been already granted `role`, emits a {RoleGranted} event. Requirements: - the caller must have ``role``'s admin role."
      },
      "hasRole(bytes32,address)": {
        "details": "Returns `true` if `account` has been granted `role`."
      },
      "increaseIntensity(uint256,uint256)": {
        "params": {
          "bopsTokenId": "The Bops NFT token Id",
          "intensity": "The intensity to be increased"
        }
      },
      "isApprovedForAll(address,address)": {
        "details": "See {IERC721-isApprovedForAll}."
      },
      "mint(address,(uint256,uint256,uint256,uint256,uint256,uint256,uint256,uint256,uint256))": {
        "params": {
          "bopsData": "The Bops data struct",
          "to": "The address of the account holder"
        }
      },
      "name()": {
        "details": "See {IERC721Metadata-name}."
      },
      "ownerOf(uint256)": {
        "details": "returns owner of tokenId*"
      },
      "renounceRole(bytes32,address)": {
        "details": "Revokes `role` from the calling account. Roles are often managed via {grantRole} and {revokeRole}: this function's purpose is to provide a mechanism for accounts to lose their privileges if they are compromised (such as when a trusted device is misplaced). If the calling account had been granted `role`, emits a {RoleRevoked} event. Requirements: - the caller must be `account`."
      },
      "revokeRole(bytes32,address)": {
        "details": "Revokes `role` from `account`. If `account` had been granted `role`, emits a {RoleRevoked} event. Requirements: - the caller must have ``role``'s admin role."
      },
      "safeTransferFrom(address,address,uint256)": {
        "details": "See {IERC721-safeTransferFrom}."
      },
      "safeTransferFrom(address,address,uint256,bytes)": {
        "details": "See {IERC721-safeTransferFrom}."
      },
      "setApprovalForAll(address,bool)": {
        "details": "See {IERC721-setApprovalForAll}."
      },
      "supportsInterface(bytes4)": {
        "details": "See {IERC165-supportsInterface}."
      },
      "symbol()": {
        "details": "See {IERC721Metadata-symbol}."
      },
      "tokenURI(uint256)": {
        "details": "See {IERC721Metadata-tokenURI}."
      },
      "transferFrom(address,address,uint256)": {
        "details": "See {IERC721-transferFrom}."
      },
      "updateLevel(uint256,uint256)": {
        "params": {
          "bopsTokenId": "The Bops NFT token Id",
          "level": "The level to be updated"
        }
      }
    },
    "title": "the NFT contract for Bops",
    "version": 1
  },
  "userdoc": {
    "kind": "user",
    "methods": {
      "burn(uint256)": {
        "notice": "Burn Bops NFT Token"
      },
      "burnBeats(uint256,uint256)": {
        "notice": "Burn beats (only by the owner)"
      },
      "getBops(uint256)": {
        "notice": "Bops struct getter (only for owner)"
      },
      "increaseIntensity(uint256,uint256)": {
        "notice": "Increase the intensity (only by the owner)"
      },
      "mint(address,(uint256,uint256,uint256,uint256,uint256,uint256,uint256,uint256,uint256))": {
        "notice": "Mint Bops NFT Token"
      },
      "updateLevel(uint256,uint256)": {
        "notice": "Update Bops level (only by the owner)"
      }
    },
    "version": 1
  }
}