{
  "contractName": "BopToken",
  "abi": [
    {
      "inputs": [
        {
          "internalType": "string",
          "name": "name",
          "type": "string"
        },
        {
          "internalType": "string",
          "name": "symbol",
          "type": "string"
        },
        {
          "internalType": "address",
          "name": "_songsManagerAddress",
          "type": "address"
        }
      ],
      "stateMutability": "nonpayable",
      "type": "constructor"
    },
    {
      "anonymous": false,
      "inputs": [
        {
          "indexed": true,
          "internalType": "address",
          "name": "owner",
          "type": "address"
        },
        {
          "indexed": true,
          "internalType": "address",
          "name": "approved",
          "type": "address"
        },
        {
          "indexed": true,
          "internalType": "uint256",
          "name": "tokenId",
          "type": "uint256"
        }
      ],
      "name": "Approval",
      "type": "event"
    },
    {
      "anonymous": false,
      "inputs": [
        {
          "indexed": true,
          "internalType": "address",
          "name": "owner",
          "type": "address"
        },
        {
          "indexed": true,
          "internalType": "address",
          "name": "operator",
          "type": "address"
        },
        {
          "indexed": false,
          "internalType": "bool",
          "name": "approved",
          "type": "bool"
        }
      ],
      "name": "ApprovalForAll",
      "type": "event"
    },
    {
      "anonymous": false,
      "inputs": [
        {
          "indexed": true,
          "internalType": "address",
          "name": "account",
          "type": "address"
        },
        {
          "indexed": true,
          "internalType": "uint256",
          "name": "bopTokenId",
          "type": "uint256"
        },
        {
          "indexed": false,
          "internalType": "uint256",
          "name": "timestamp",
          "type": "uint256"
        }
      ],
      "name": "Burned",
      "type": "event"
    },
    {
      "anonymous": false,
      "inputs": [
        {
          "indexed": true,
          "internalType": "address",
          "name": "account",
          "type": "address"
        },
        {
          "indexed": true,
          "internalType": "uint256",
          "name": "bopTokenId",
          "type": "uint256"
        },
        {
          "indexed": false,
          "internalType": "uint256",
          "name": "amount",
          "type": "uint256"
        },
        {
          "indexed": false,
          "internalType": "uint256",
          "name": "timestamp",
          "type": "uint256"
        }
      ],
      "name": "BurnedBeats",
      "type": "event"
    },
    {
      "anonymous": false,
      "inputs": [
        {
          "indexed": true,
          "internalType": "address",
          "name": "account",
          "type": "address"
        },
        {
          "indexed": true,
          "internalType": "uint256",
          "name": "bopTokenId",
          "type": "uint256"
        },
        {
          "indexed": false,
          "internalType": "uint256",
          "name": "amount",
          "type": "uint256"
        },
        {
          "indexed": false,
          "internalType": "uint256",
          "name": "timestamp",
          "type": "uint256"
        }
      ],
      "name": "IncreasedIntensity",
      "type": "event"
    },
    {
      "anonymous": false,
      "inputs": [
        {
          "indexed": true,
          "internalType": "address",
          "name": "account",
          "type": "address"
        },
        {
          "indexed": true,
          "internalType": "uint256",
          "name": "bopTokenId",
          "type": "uint256"
        },
        {
          "indexed": false,
          "internalType": "uint256",
          "name": "timestamp",
          "type": "uint256"
        }
      ],
      "name": "Minted",
      "type": "event"
    },
    {
      "anonymous": false,
      "inputs": [
        {
          "indexed": true,
          "internalType": "bytes32",
          "name": "role",
          "type": "bytes32"
        },
        {
          "indexed": true,
          "internalType": "bytes32",
          "name": "previousAdminRole",
          "type": "bytes32"
        },
        {
          "indexed": true,
          "internalType": "bytes32",
          "name": "newAdminRole",
          "type": "bytes32"
        }
      ],
      "name": "RoleAdminChanged",
      "type": "event"
    },
    {
      "anonymous": false,
      "inputs": [
        {
          "indexed": true,
          "internalType": "bytes32",
          "name": "role",
          "type": "bytes32"
        },
        {
          "indexed": true,
          "internalType": "address",
          "name": "account",
          "type": "address"
        },
        {
          "indexed": true,
          "internalType": "address",
          "name": "sender",
          "type": "address"
        }
      ],
      "name": "RoleGranted",
      "type": "event"
    },
    {
      "anonymous": false,
      "inputs": [
        {
          "indexed": true,
          "internalType": "bytes32",
          "name": "role",
          "type": "bytes32"
        },
        {
          "indexed": true,
          "internalType": "address",
          "name": "account",
          "type": "address"
        },
        {
          "indexed": true,
          "internalType": "address",
          "name": "sender",
          "type": "address"
        }
      ],
      "name": "RoleRevoked",
      "type": "event"
    },
    {
      "anonymous": false,
      "inputs": [
        {
          "indexed": true,
          "internalType": "address",
          "name": "from",
          "type": "address"
        },
        {
          "indexed": true,
          "internalType": "address",
          "name": "to",
          "type": "address"
        },
        {
          "indexed": true,
          "internalType": "uint256",
          "name": "tokenId",
          "type": "uint256"
        }
      ],
      "name": "Transfer",
      "type": "event"
    },
    {
      "anonymous": false,
      "inputs": [
        {
          "indexed": true,
          "internalType": "address",
          "name": "account",
          "type": "address"
        },
        {
          "indexed": true,
          "internalType": "uint256",
          "name": "bopTokenId",
          "type": "uint256"
        },
        {
          "indexed": false,
          "internalType": "uint256",
          "name": "level",
          "type": "uint256"
        },
        {
          "indexed": false,
          "internalType": "uint256",
          "name": "timestamp",
          "type": "uint256"
        }
      ],
      "name": "UpdatedLevel",
      "type": "event"
    },
    {
      "inputs": [],
      "name": "DEFAULT_ADMIN_ROLE",
      "outputs": [
        {
          "internalType": "bytes32",
          "name": "",
          "type": "bytes32"
        }
      ],
      "stateMutability": "view",
      "type": "function",
      "constant": true
    },
    {
      "inputs": [],
      "name": "SONGS_MANAGER",
      "outputs": [
        {
          "internalType": "bytes32",
          "name": "",
          "type": "bytes32"
        }
      ],
      "stateMutability": "view",
      "type": "function",
      "constant": true
    },
    {
      "inputs": [],
      "name": "SONG_CONTRACT",
      "outputs": [
        {
          "internalType": "bytes32",
          "name": "",
          "type": "bytes32"
        }
      ],
      "stateMutability": "view",
      "type": "function",
      "constant": true
    },
    {
      "inputs": [
        {
          "internalType": "address",
          "name": "to",
          "type": "address"
        },
        {
          "internalType": "uint256",
          "name": "tokenId",
          "type": "uint256"
        }
      ],
      "name": "approve",
      "outputs": [],
      "stateMutability": "nonpayable",
      "type": "function"
    },
    {
      "inputs": [
        {
          "internalType": "address",
          "name": "owner",
          "type": "address"
        }
      ],
      "name": "balanceOf",
      "outputs": [
        {
          "internalType": "uint256",
          "name": "",
          "type": "uint256"
        }
      ],
      "stateMutability": "view",
      "type": "function",
      "constant": true
    },
    {
      "inputs": [
        {
          "internalType": "uint256",
          "name": "tokenId",
          "type": "uint256"
        }
      ],
      "name": "getApproved",
      "outputs": [
        {
          "internalType": "address",
          "name": "",
          "type": "address"
        }
      ],
      "stateMutability": "view",
      "type": "function",
      "constant": true
    },
    {
      "inputs": [
        {
          "internalType": "bytes32",
          "name": "role",
          "type": "bytes32"
        }
      ],
      "name": "getRoleAdmin",
      "outputs": [
        {
          "internalType": "bytes32",
          "name": "",
          "type": "bytes32"
        }
      ],
      "stateMutability": "view",
      "type": "function",
      "constant": true
    },
    {
      "inputs": [
        {
          "internalType": "bytes32",
          "name": "role",
          "type": "bytes32"
        },
        {
          "internalType": "address",
          "name": "account",
          "type": "address"
        }
      ],
      "name": "grantRole",
      "outputs": [],
      "stateMutability": "nonpayable",
      "type": "function"
    },
    {
      "inputs": [
        {
          "internalType": "bytes32",
          "name": "role",
          "type": "bytes32"
        },
        {
          "internalType": "address",
          "name": "account",
          "type": "address"
        }
      ],
      "name": "hasRole",
      "outputs": [
        {
          "internalType": "bool",
          "name": "",
          "type": "bool"
        }
      ],
      "stateMutability": "view",
      "type": "function",
      "constant": true
    },
    {
      "inputs": [
        {
          "internalType": "address",
          "name": "owner",
          "type": "address"
        },
        {
          "internalType": "address",
          "name": "operator",
          "type": "address"
        }
      ],
      "name": "isApprovedForAll",
      "outputs": [
        {
          "internalType": "bool",
          "name": "",
          "type": "bool"
        }
      ],
      "stateMutability": "view",
      "type": "function",
      "constant": true
    },
    {
      "inputs": [],
      "name": "name",
      "outputs": [
        {
          "internalType": "string",
          "name": "",
          "type": "string"
        }
      ],
      "stateMutability": "view",
      "type": "function",
      "constant": true
    },
    {
      "inputs": [
        {
          "internalType": "uint256",
          "name": "tokenId",
          "type": "uint256"
        }
      ],
      "name": "ownerOf",
      "outputs": [
        {
          "internalType": "address",
          "name": "",
          "type": "address"
        }
      ],
      "stateMutability": "view",
      "type": "function",
      "constant": true
    },
    {
      "inputs": [
        {
          "internalType": "bytes32",
          "name": "role",
          "type": "bytes32"
        },
        {
          "internalType": "address",
          "name": "account",
          "type": "address"
        }
      ],
      "name": "renounceRole",
      "outputs": [],
      "stateMutability": "nonpayable",
      "type": "function"
    },
    {
      "inputs": [
        {
          "internalType": "bytes32",
          "name": "role",
          "type": "bytes32"
        },
        {
          "internalType": "address",
          "name": "account",
          "type": "address"
        }
      ],
      "name": "revokeRole",
      "outputs": [],
      "stateMutability": "nonpayable",
      "type": "function"
    },
    {
      "inputs": [
        {
          "internalType": "address",
          "name": "from",
          "type": "address"
        },
        {
          "internalType": "address",
          "name": "to",
          "type": "address"
        },
        {
          "internalType": "uint256",
          "name": "tokenId",
          "type": "uint256"
        }
      ],
      "name": "safeTransferFrom",
      "outputs": [],
      "stateMutability": "nonpayable",
      "type": "function"
    },
    {
      "inputs": [
        {
          "internalType": "address",
          "name": "from",
          "type": "address"
        },
        {
          "internalType": "address",
          "name": "to",
          "type": "address"
        },
        {
          "internalType": "uint256",
          "name": "tokenId",
          "type": "uint256"
        },
        {
          "internalType": "bytes",
          "name": "_data",
          "type": "bytes"
        }
      ],
      "name": "safeTransferFrom",
      "outputs": [],
      "stateMutability": "nonpayable",
      "type": "function"
    },
    {
      "inputs": [
        {
          "internalType": "address",
          "name": "operator",
          "type": "address"
        },
        {
          "internalType": "bool",
          "name": "approved",
          "type": "bool"
        }
      ],
      "name": "setApprovalForAll",
      "outputs": [],
      "stateMutability": "nonpayable",
      "type": "function"
    },
    {
      "inputs": [],
      "name": "symbol",
      "outputs": [
        {
          "internalType": "string",
          "name": "",
          "type": "string"
        }
      ],
      "stateMutability": "view",
      "type": "function",
      "constant": true
    },
    {
      "inputs": [
        {
          "internalType": "uint256",
          "name": "tokenId",
          "type": "uint256"
        }
      ],
      "name": "tokenURI",
      "outputs": [
        {
          "internalType": "string",
          "name": "",
          "type": "string"
        }
      ],
      "stateMutability": "view",
      "type": "function",
      "constant": true
    },
    {
      "inputs": [
        {
          "internalType": "address",
          "name": "from",
          "type": "address"
        },
        {
          "internalType": "address",
          "name": "to",
          "type": "address"
        },
        {
          "internalType": "uint256",
          "name": "tokenId",
          "type": "uint256"
        }
      ],
      "name": "transferFrom",
      "outputs": [],
      "stateMutability": "nonpayable",
      "type": "function"
    },
    {
      "inputs": [
        {
          "internalType": "uint256",
          "name": "bopTokenId",
          "type": "uint256"
        }
      ],
      "name": "getBop",
      "outputs": [
        {
          "components": [
            {
              "internalType": "uint256",
              "name": "bopId",
              "type": "uint256"
            },
            {
              "internalType": "uint256",
              "name": "songId",
              "type": "uint256"
            },
            {
              "internalType": "uint256",
              "name": "level",
              "type": "uint256"
            },
            {
              "internalType": "uint256",
              "name": "intensity",
              "type": "uint256"
            },
            {
              "internalType": "uint64[]",
              "name": "offsprings",
              "type": "uint64[]"
            },
            {
              "internalType": "uint64",
              "name": "parentId1",
              "type": "uint64"
            },
            {
              "internalType": "uint64",
              "name": "parentId2",
              "type": "uint64"
            },
            {
              "internalType": "bool",
              "name": "priviVerified",
              "type": "bool"
            },
            {
              "internalType": "address",
              "name": "stablecoinToken",
              "type": "address"
            },
            {
              "internalType": "string",
              "name": "genre",
              "type": "string"
            },
            {
              "internalType": "uint256",
              "name": "beatsBurnt",
              "type": "uint256"
            },
            {
              "internalType": "uint256",
              "name": "traxStaked",
              "type": "uint256"
            },
            {
              "internalType": "uint256",
              "name": "stablecoinStaked",
              "type": "uint256"
            }
          ],
          "internalType": "struct Bop",
          "name": "bop",
          "type": "tuple"
        }
      ],
      "stateMutability": "view",
      "type": "function",
      "constant": true
    },
    {
      "inputs": [
        {
          "internalType": "address",
          "name": "to",
          "type": "address"
        },
        {
          "internalType": "uint256",
          "name": "songId",
          "type": "uint256"
        },
        {
          "internalType": "uint64",
          "name": "parentId1",
          "type": "uint64"
        },
        {
          "internalType": "uint64",
          "name": "parentId2",
          "type": "uint64"
        },
        {
          "internalType": "string",
          "name": "genre",
          "type": "string"
        },
        {
          "internalType": "uint256",
          "name": "level",
          "type": "uint256"
        },
        {
          "internalType": "uint256",
          "name": "beatsBurnt",
          "type": "uint256"
        },
        {
          "internalType": "uint256",
          "name": "traxStaked",
          "type": "uint256"
        },
        {
          "internalType": "uint256",
          "name": "stablecoinStaked",
          "type": "uint256"
        },
        {
          "internalType": "bool",
          "name": "priviVerified",
          "type": "bool"
        },
        {
          "internalType": "address",
          "name": "stablecoinToken",
          "type": "address"
        }
      ],
      "name": "mint",
      "outputs": [],
      "stateMutability": "nonpayable",
      "type": "function"
    },
    {
      "inputs": [
        {
          "internalType": "uint256",
          "name": "bopTokenId",
          "type": "uint256"
        }
      ],
      "name": "burn",
      "outputs": [],
      "stateMutability": "nonpayable",
      "type": "function"
    },
    {
      "inputs": [
        {
          "internalType": "uint256",
          "name": "bopTokenId",
          "type": "uint256"
        },
        {
          "internalType": "uint256",
          "name": "level",
          "type": "uint256"
        }
      ],
      "name": "updateLevel",
      "outputs": [],
      "stateMutability": "nonpayable",
      "type": "function"
    },
    {
      "inputs": [
        {
          "internalType": "uint256",
          "name": "bopTokenId",
          "type": "uint256"
        },
        {
          "internalType": "uint256",
          "name": "intensity",
          "type": "uint256"
        }
      ],
      "name": "increaseIntensity",
      "outputs": [],
      "stateMutability": "nonpayable",
      "type": "function"
    },
    {
      "inputs": [
        {
          "internalType": "uint256",
          "name": "bopTokenId",
          "type": "uint256"
        },
        {
          "internalType": "uint256",
          "name": "beatsToBurn",
          "type": "uint256"
        }
      ],
      "name": "burnBeats",
      "outputs": [],
      "stateMutability": "nonpayable",
      "type": "function"
    },
    {
      "inputs": [
        {
          "internalType": "uint256",
          "name": "_bopId",
          "type": "uint256"
        },
        {
          "internalType": "uint256",
          "name": "_amountOfBeats",
          "type": "uint256"
        }
      ],
      "name": "breedBop",
      "outputs": [],
      "stateMutability": "nonpayable",
      "type": "function"
    },
    {
      "inputs": [
        {
          "internalType": "bytes4",
          "name": "interfaceId",
          "type": "bytes4"
        }
      ],
      "name": "supportsInterface",
      "outputs": [
        {
          "internalType": "bool",
          "name": "",
          "type": "bool"
        }
      ],
      "stateMutability": "view",
      "type": "function",
      "constant": true
    }
  ],
  "bytecode": "0x60806040523480156200001157600080fd5b5060405162004d7738038062004d77833981810160405281019062000037919062000438565b8282816000908051906020019062000051929190620002f3565b5080600190805190602001906200006a929190620002f3565b505050620000bf7f21d749bccb2cd1ecd43da02f61cbdf715b020c28617853628b041975aa29b9167f7f7bbcda39ae5178d4dfa23b257c451c03decf7b918c030beee122c680d56387620000fa60201b60201c565b620000f17f7f7bbcda39ae5178d4dfa23b257c451c03decf7b918c030beee122c680d56387826200015860201b60201c565b505050620006a4565b806200010c836200016e60201b60201c565b837fbd79b86ffe0ab8e8776151514217cd7cacd52c909f66475c3af44e129f0b00ff60405160405180910390a48060066000848152602001908152602001600020600101819055505050565b6200016a82826200018e60201b60201c565b5050565b600060066000838152602001908152602001600020600101549050919050565b620001a082826200028060201b60201c565b6200027c5760016006600084815260200190815260200160002060000160008373ffffffffffffffffffffffffffffffffffffffff1673ffffffffffffffffffffffffffffffffffffffff16815260200190815260200160002060006101000a81548160ff02191690831515021790555062000221620002eb60201b60201c565b73ffffffffffffffffffffffffffffffffffffffff168173ffffffffffffffffffffffffffffffffffffffff16837f2f8788117e7eff1d82e926ec794901d17c78024a50270940304540a733656f0d60405160405180910390a45b5050565b60006006600084815260200190815260200160002060000160008373ffffffffffffffffffffffffffffffffffffffff1673ffffffffffffffffffffffffffffffffffffffff16815260200190815260200160002060009054906101000a900460ff16905092915050565b600033905090565b82805462000301906200059b565b90600052602060002090601f01602090048101928262000325576000855562000371565b82601f106200034057805160ff191683800117855562000371565b8280016001018555821562000371579182015b828111156200037057825182559160200191906001019062000353565b5b50905062000380919062000384565b5090565b5b808211156200039f57600081600090555060010162000385565b5090565b6000620003ba620003b484620004fb565b620004d2565b905082815260208101848484011115620003d957620003d86200066a565b5b620003e684828562000565565b509392505050565b600081519050620003ff816200068a565b92915050565b600082601f8301126200041d576200041c62000665565b5b81516200042f848260208601620003a3565b91505092915050565b60008060006060848603121562000454576200045362000674565b5b600084015167ffffffffffffffff8111156200047557620004746200066f565b5b620004838682870162000405565b935050602084015167ffffffffffffffff811115620004a757620004a66200066f565b5b620004b58682870162000405565b9250506040620004c886828701620003ee565b9150509250925092565b6000620004de620004f1565b9050620004ec8282620005d1565b919050565b6000604051905090565b600067ffffffffffffffff82111562000519576200051862000636565b5b620005248262000679565b9050602081019050919050565b60006200053e8262000545565b9050919050565b600073ffffffffffffffffffffffffffffffffffffffff82169050919050565b60005b838110156200058557808201518184015260208101905062000568565b8381111562000595576000848401525b50505050565b60006002820490506001821680620005b457607f821691505b60208210811415620005cb57620005ca62000607565b5b50919050565b620005dc8262000679565b810181811067ffffffffffffffff82111715620005fe57620005fd62000636565b5b80604052505050565b7f4e487b7100000000000000000000000000000000000000000000000000000000600052602260045260246000fd5b7f4e487b7100000000000000000000000000000000000000000000000000000000600052604160045260246000fd5b600080fd5b600080fd5b600080fd5b600080fd5b6000601f19601f8301169050919050565b620006958162000531565b8114620006a157600080fd5b50565b6146c380620006b46000396000f3fe608060405234801561001057600080fd5b50600436106101c45760003560e01c80636352211e116100f9578063a217fddf11610097578063c87b56dd11610071578063c87b56dd146104fd578063d547741f1461052d578063e985e9c514610549578063f8055ac814610579576101c4565b8063a217fddf146104a7578063a22cb465146104c5578063b88d4fde146104e1576101c4565b806391d14854116100d357806391d148541461042157806395d89b4114610451578063a10126a51461046f578063a15e7b3c1461048b576101c4565b80636352211e146103a557806370a08231146103d55780638e70001e14610405576101c4565b80632d864a061161016657806342842e0e1161014057806342842e0e1461033357806342966c681461034f5780634ba263161461036b578063605fd53c14610389576101c4565b80632d864a06146102df5780632f2ff15d146102fb57806336568abe14610317576101c4565b8063095ea7b3116101a2578063095ea7b3146102475780631bf474b71461026357806323b872dd14610293578063248a9ca3146102af576101c4565b806301ffc9a7146101c957806306fdde03146101f9578063081812fc14610217575b600080fd5b6101e360048036038101906101de91906131c3565b610597565b6040516101f091906138f5565b60405180910390f35b6102016105b9565b60405161020e919061392b565b60405180910390f35b610231600480360381019061022c919061321d565b61064b565b60405161023e919061388e565b60405180910390f35b610261600480360381019061025c9190613006565b6106d0565b005b61027d6004803603810190610278919061321d565b6107e8565b60405161028a9190613b8d565b60405180910390f35b6102ad60048036038101906102a89190612ef0565b610a97565b005b6102c960048036038101906102c49190613156565b610af7565b6040516102d69190613910565b60405180910390f35b6102f960048036038101906102f4919061324a565b610b17565b005b61031560048036038101906103109190613183565b610c1a565b005b610331600480360381019061032c9190613183565b610c43565b005b61034d60048036038101906103489190612ef0565b610cc6565b005b6103696004803603810190610364919061321d565b610ce6565b005b610373610e61565b6040516103809190613910565b60405180910390f35b6103a3600480360381019061039e919061324a565b610e85565b005b6103bf60048036038101906103ba919061321d565b610f9e565b6040516103cc919061388e565b60405180910390f35b6103ef60048036038101906103ea9190612e83565b611050565b6040516103fc9190613baf565b60405180910390f35b61041f600480360381019061041a919061324a565b611108565b005b61043b60048036038101906104369190613183565b61113f565b60405161044891906138f5565b60405180910390f35b6104596111aa565b604051610466919061392b565b60405180910390f35b6104896004803603810190610484919061324a565b61123c565b005b6104a560048036038101906104a09190613046565b611355565b005b6104af6115f4565b6040516104bc9190613910565b60405180910390f35b6104df60048036038101906104da9190612fc6565b6115fb565b005b6104fb60048036038101906104f69190612f43565b61177c565b005b6105176004803603810190610512919061321d565b6117de565b604051610524919061392b565b60405180910390f35b61054760048036038101906105429190613183565b611885565b005b610563600480360381019061055e9190612eb0565b6118ae565b60405161057091906138f5565b60405180910390f35b610581611942565b60405161058e9190613910565b60405180910390f35b60006105a282611966565b806105b257506105b182611a48565b5b9050919050565b6060600080546105c890613f1a565b80601f01602080910402602001604051908101604052809291908181526020018280546105f490613f1a565b80156106415780601f1061061657610100808354040283529160200191610641565b820191906000526020600020905b81548152906001019060200180831161062457829003601f168201915b5050505050905090565b600061065682611ac2565b610695576040517f08c379a000000000000000000000000000000000000000000000000000000000815260040161068c90613aad565b60405180910390fd5b6004600083815260200190815260200160002060009054906101000a900473ffffffffffffffffffffffffffffffffffffffff169050919050565b60006106db82610f9e565b90508073ffffffffffffffffffffffffffffffffffffffff168373ffffffffffffffffffffffffffffffffffffffff16141561074c576040517f08c379a000000000000000000000000000000000000000000000000000000000815260040161074390613b2d565b60405180910390fd5b8073ffffffffffffffffffffffffffffffffffffffff1661076b611b2e565b73ffffffffffffffffffffffffffffffffffffffff16148061079a575061079981610794611b2e565b6118ae565b5b6107d9576040517f08c379a00000000000000000000000000000000000000000000000000000000081526004016107d090613a0d565b60405180910390fd5b6107e38383611b36565b505050565b6107f0612ab5565b6107f982611ac2565b610838576040517f08c379a000000000000000000000000000000000000000000000000000000000815260040161082f90613a2d565b60405180910390fd5b60086000838152602001908152602001600020604051806101a0016040529081600082015481526020016001820154815260200160028201548152602001600382015481526020016004820180548060200260200160405190810160405280929190818152602001828054801561090257602002820191906000526020600020906000905b82829054906101000a900467ffffffffffffffff1667ffffffffffffffff16815260200190600801906020826007010492830192600103820291508084116108bd5790505b505050505081526020016005820160009054906101000a900467ffffffffffffffff1667ffffffffffffffff1667ffffffffffffffff1681526020016005820160089054906101000a900467ffffffffffffffff1667ffffffffffffffff1667ffffffffffffffff1681526020016005820160109054906101000a900460ff161515151581526020016006820160009054906101000a900473ffffffffffffffffffffffffffffffffffffffff1673ffffffffffffffffffffffffffffffffffffffff1673ffffffffffffffffffffffffffffffffffffffff1681526020016007820180546109f090613f1a565b80601f0160208091040260200160405190810160405280929190818152602001828054610a1c90613f1a565b8015610a695780601f10610a3e57610100808354040283529160200191610a69565b820191906000526020600020905b815481529060010190602001808311610a4c57829003601f168201915b505050505081526020016008820154815260200160098201548152602001600a820154815250509050919050565b610aa8610aa2611b2e565b82611bef565b610ae7576040517f08c379a0000000000000000000000000000000000000000000000000000000008152600401610ade90613b4d565b60405180910390fd5b610af2838383611ccd565b505050565b600060066000838152602001908152602001600020600101549050919050565b7f21d749bccb2cd1ecd43da02f61cbdf715b020c28617853628b041975aa29b916610b4981610b44611b2e565b611f29565b600060086000858152602001908152602001600020600001541415610ba3576040517f08c379a0000000000000000000000000000000000000000000000000000000008152600401610b9a90613acd565b60405180910390fd5b6000600860008581526020019081526020016000209050828160020181905550833373ffffffffffffffffffffffffffffffffffffffff167f62e00c1a77a5476b5c616408e2926dbe3847467758ce6ede44452df1380f13b78542604051610c0c929190613bca565b60405180910390a350505050565b610c2382610af7565b610c3481610c2f611b2e565b611f29565b610c3e8383611fc6565b505050565b610c4b611b2e565b73ffffffffffffffffffffffffffffffffffffffff168173ffffffffffffffffffffffffffffffffffffffff1614610cb8576040517f08c379a0000000000000000000000000000000000000000000000000000000008152600401610caf90613b6d565b60405180910390fd5b610cc282826120a7565b5050565b610ce18383836040518060200160405280600081525061177c565b505050565b7f21d749bccb2cd1ecd43da02f61cbdf715b020c28617853628b041975aa29b916610d1881610d13611b2e565b611f29565b6000610d2383610f9e565b9050610d2e83612189565b60086000848152602001908152602001600020600080820160009055600182016000905560028201600090556003820160009055600482016000610d729190612b49565b6005820160006101000a81549067ffffffffffffffff02191690556005820160086101000a81549067ffffffffffffffff02191690556005820160106101000a81549060ff02191690556006820160006101000a81549073ffffffffffffffffffffffffffffffffffffffff0219169055600782016000610df39190612b71565b60088201600090556009820160009055600a8201600090555050828173ffffffffffffffffffffffffffffffffffffffff167f23ff0e75edf108e3d0392d92e13e8c8a868ef19001bd49f9e94876dc46dff87f42604051610e549190613baf565b60405180910390a3505050565b7f21d749bccb2cd1ecd43da02f61cbdf715b020c28617853628b041975aa29b91681565b7f21d749bccb2cd1ecd43da02f61cbdf715b020c28617853628b041975aa29b916610eb781610eb2611b2e565b611f29565b600060086000858152602001908152602001600020600001541415610f11576040517f08c379a0000000000000000000000000000000000000000000000000000000008152600401610f0890613acd565b60405180910390fd5b600060086000858152602001908152602001600020905082816008016000828254610f3c9190613d07565b9250508190555080600001543373ffffffffffffffffffffffffffffffffffffffff167f36276b62f242023ec0999597225bc812dce6194904604ac74b5abbcdbeb139f48542604051610f90929190613bca565b60405180910390a350505050565b6000806002600084815260200190815260200160002060009054906101000a900473ffffffffffffffffffffffffffffffffffffffff169050600073ffffffffffffffffffffffffffffffffffffffff168173ffffffffffffffffffffffffffffffffffffffff161415611047576040517f08c379a000000000000000000000000000000000000000000000000000000000815260040161103e90613a6d565b60405180910390fd5b80915050919050565b60008073ffffffffffffffffffffffffffffffffffffffff168273ffffffffffffffffffffffffffffffffffffffff1614156110c1576040517f08c379a00000000000000000000000000000000000000000000000000000000081526004016110b890613a4d565b60405180910390fd5b600360008373ffffffffffffffffffffffffffffffffffffffff1673ffffffffffffffffffffffffffffffffffffffff168152602001908152602001600020549050919050565b7f21d749bccb2cd1ecd43da02f61cbdf715b020c28617853628b041975aa29b91661113a81611135611b2e565b611f29565b505050565b60006006600084815260200190815260200160002060000160008373ffffffffffffffffffffffffffffffffffffffff1673ffffffffffffffffffffffffffffffffffffffff16815260200190815260200160002060009054906101000a900460ff16905092915050565b6060600180546111b990613f1a565b80601f01602080910402602001604051908101604052809291908181526020018280546111e590613f1a565b80156112325780601f1061120757610100808354040283529160200191611232565b820191906000526020600020905b81548152906001019060200180831161121557829003601f168201915b5050505050905090565b7f21d749bccb2cd1ecd43da02f61cbdf715b020c28617853628b041975aa29b91661126e81611269611b2e565b611f29565b6000600860008581526020019081526020016000206000015414156112c8576040517f08c379a00000000000000000000000000000000000000000000000000000000081526004016112bf90613acd565b60405180910390fd5b6000600860008581526020019081526020016000209050828160030160008282546112f39190613d07565b9250508190555080600001543373ffffffffffffffffffffffffffffffffffffffff167fa37027cb42adc6896f06e8c3b9ef61d7c76b732eb26e9dfca7dee642a85b39338542604051611347929190613bca565b60405180910390a350505050565b7f21d749bccb2cd1ecd43da02f61cbdf715b020c28617853628b041975aa29b91661138781611382611b2e565b611f29565b611391600761229a565b600061139d60076122b0565b905060606000604051806101a001604052808481526020018f81526020018b81526020018881526020018381526020018e67ffffffffffffffff1681526020018d67ffffffffffffffff16815260200187151581526020018673ffffffffffffffffffffffffffffffffffffffff1681526020018c81526020018a81526020018981526020018881525090506114338f846122be565b806008600085815260200190815260200160002060008201518160000155602082015181600101556040820151816002015560608201518160030155608082015181600401908051906020019061148b929190612bb1565b5060a08201518160050160006101000a81548167ffffffffffffffff021916908367ffffffffffffffff16021790555060c08201518160050160086101000a81548167ffffffffffffffff021916908367ffffffffffffffff16021790555060e08201518160050160106101000a81548160ff0219169083151502179055506101008201518160060160006101000a81548173ffffffffffffffffffffffffffffffffffffffff021916908373ffffffffffffffffffffffffffffffffffffffff16021790555061012082015181600701908051906020019061156f929190612c6d565b506101408201518160080155610160820151816009015561018082015181600a0155905050828f73ffffffffffffffffffffffffffffffffffffffff167f25b428dfde728ccfaddad7e29e4ac23c24ed7fd1a6e3e3f91894a9a073f5dfff426040516115db9190613baf565b60405180910390a3505050505050505050505050505050565b6000801b81565b611603611b2e565b73ffffffffffffffffffffffffffffffffffffffff168273ffffffffffffffffffffffffffffffffffffffff161415611671576040517f08c379a0000000000000000000000000000000000000000000000000000000008152600401611668906139cd565b60405180910390fd5b806005600061167e611b2e565b73ffffffffffffffffffffffffffffffffffffffff1673ffffffffffffffffffffffffffffffffffffffff16815260200190815260200160002060008473ffffffffffffffffffffffffffffffffffffffff1673ffffffffffffffffffffffffffffffffffffffff16815260200190815260200160002060006101000a81548160ff0219169083151502179055508173ffffffffffffffffffffffffffffffffffffffff1661172b611b2e565b73ffffffffffffffffffffffffffffffffffffffff167f17307eab39ab6107e8899845ad3d59bd9653f200f220920489ca2b5937696c318360405161177091906138f5565b60405180910390a35050565b61178d611787611b2e565b83611bef565b6117cc576040517f08c379a00000000000000000000000000000000000000000000000000000000081526004016117c390613b4d565b60405180910390fd5b6117d88484848461248c565b50505050565b60606117e982611ac2565b611828576040517f08c379a000000000000000000000000000000000000000000000000000000000815260040161181f90613b0d565b60405180910390fd5b60006118326124e8565b90506000815111611852576040518060200160405280600081525061187d565b8061185c846124ff565b60405160200161186d929190613830565b6040516020818303038152906040525b915050919050565b61188e82610af7565b61189f8161189a611b2e565b611f29565b6118a983836120a7565b505050565b6000600560008473ffffffffffffffffffffffffffffffffffffffff1673ffffffffffffffffffffffffffffffffffffffff16815260200190815260200160002060008373ffffffffffffffffffffffffffffffffffffffff1673ffffffffffffffffffffffffffffffffffffffff16815260200190815260200160002060009054906101000a900460ff16905092915050565b7f7f7bbcda39ae5178d4dfa23b257c451c03decf7b918c030beee122c680d5638781565b60007f80ac58cd000000000000000000000000000000000000000000000000000000007bffffffffffffffffffffffffffffffffffffffffffffffffffffffff1916827bffffffffffffffffffffffffffffffffffffffffffffffffffffffff19161480611a3157507f5b5e139f000000000000000000000000000000000000000000000000000000007bffffffffffffffffffffffffffffffffffffffffffffffffffffffff1916827bffffffffffffffffffffffffffffffffffffffffffffffffffffffff1916145b80611a415750611a4082612660565b5b9050919050565b60007f7965db0b000000000000000000000000000000000000000000000000000000007bffffffffffffffffffffffffffffffffffffffffffffffffffffffff1916827bffffffffffffffffffffffffffffffffffffffffffffffffffffffff19161480611abb5750611aba82611966565b5b9050919050565b60008073ffffffffffffffffffffffffffffffffffffffff166002600084815260200190815260200160002060009054906101000a900473ffffffffffffffffffffffffffffffffffffffff1673ffffffffffffffffffffffffffffffffffffffff1614159050919050565b600033905090565b816004600083815260200190815260200160002060006101000a81548173ffffffffffffffffffffffffffffffffffffffff021916908373ffffffffffffffffffffffffffffffffffffffff160217905550808273ffffffffffffffffffffffffffffffffffffffff16611ba983610f9e565b73ffffffffffffffffffffffffffffffffffffffff167f8c5be1e5ebec7d5bd14f71427d1e84f3dd0314c0f7b2291e5b200ac8c7c3b92560405160405180910390a45050565b6000611bfa82611ac2565b611c39576040517f08c379a0000000000000000000000000000000000000000000000000000000008152600401611c30906139ed565b60405180910390fd5b6000611c4483610f9e565b90508073ffffffffffffffffffffffffffffffffffffffff168473ffffffffffffffffffffffffffffffffffffffff161480611cb357508373ffffffffffffffffffffffffffffffffffffffff16611c9b8461064b565b73ffffffffffffffffffffffffffffffffffffffff16145b80611cc45750611cc381856118ae565b5b91505092915050565b8273ffffffffffffffffffffffffffffffffffffffff16611ced82610f9e565b73ffffffffffffffffffffffffffffffffffffffff1614611d43576040517f08c379a0000000000000000000000000000000000000000000000000000000008152600401611d3a90613aed565b60405180910390fd5b600073ffffffffffffffffffffffffffffffffffffffff168273ffffffffffffffffffffffffffffffffffffffff161415611db3576040517f08c379a0000000000000000000000000000000000000000000000000000000008152600401611daa906139ad565b60405180910390fd5b611dbe8383836126ca565b611dc9600082611b36565b6001600360008573ffffffffffffffffffffffffffffffffffffffff1673ffffffffffffffffffffffffffffffffffffffff1681526020019081526020016000206000828254611e199190613de8565b925050819055506001600360008473ffffffffffffffffffffffffffffffffffffffff1673ffffffffffffffffffffffffffffffffffffffff1681526020019081526020016000206000828254611e709190613d07565b92505081905550816002600083815260200190815260200160002060006101000a81548173ffffffffffffffffffffffffffffffffffffffff021916908373ffffffffffffffffffffffffffffffffffffffff160217905550808273ffffffffffffffffffffffffffffffffffffffff168473ffffffffffffffffffffffffffffffffffffffff167fddf252ad1be2c89b69c2b068fc378daa952ba7f163c4a11628f55a4df523b3ef60405160405180910390a4505050565b611f33828261113f565b611fc257611f588173ffffffffffffffffffffffffffffffffffffffff1660146126cf565b611f668360001c60206126cf565b604051602001611f77929190613854565b6040516020818303038152906040526040517f08c379a0000000000000000000000000000000000000000000000000000000008152600401611fb9919061392b565b60405180910390fd5b5050565b611fd0828261113f565b6120a35760016006600084815260200190815260200160002060000160008373ffffffffffffffffffffffffffffffffffffffff1673ffffffffffffffffffffffffffffffffffffffff16815260200190815260200160002060006101000a81548160ff021916908315150217905550612048611b2e565b73ffffffffffffffffffffffffffffffffffffffff168173ffffffffffffffffffffffffffffffffffffffff16837f2f8788117e7eff1d82e926ec794901d17c78024a50270940304540a733656f0d60405160405180910390a45b5050565b6120b1828261113f565b156121855760006006600084815260200190815260200160002060000160008373ffffffffffffffffffffffffffffffffffffffff1673ffffffffffffffffffffffffffffffffffffffff16815260200190815260200160002060006101000a81548160ff02191690831515021790555061212a611b2e565b73ffffffffffffffffffffffffffffffffffffffff168173ffffffffffffffffffffffffffffffffffffffff16837ff6391f5c32d9c69d2a47ea670b442974b53935d1edc7fd64eb21e047a839171b60405160405180910390a45b5050565b600061219482610f9e565b90506121a2816000846126ca565b6121ad600083611b36565b6001600360008373ffffffffffffffffffffffffffffffffffffffff1673ffffffffffffffffffffffffffffffffffffffff16815260200190815260200160002060008282546121fd9190613de8565b925050819055506002600083815260200190815260200160002060006101000a81549073ffffffffffffffffffffffffffffffffffffffff021916905581600073ffffffffffffffffffffffffffffffffffffffff168273ffffffffffffffffffffffffffffffffffffffff167fddf252ad1be2c89b69c2b068fc378daa952ba7f163c4a11628f55a4df523b3ef60405160405180910390a45050565b6001816000016000828254019250508190555050565b600081600001549050919050565b600073ffffffffffffffffffffffffffffffffffffffff168273ffffffffffffffffffffffffffffffffffffffff16141561232e576040517f08c379a000000000000000000000000000000000000000000000000000000000815260040161232590613a8d565b60405180910390fd5b61233781611ac2565b15612377576040517f08c379a000000000000000000000000000000000000000000000000000000000815260040161236e9061398d565b60405180910390fd5b612383600083836126ca565b6001600360008473ffffffffffffffffffffffffffffffffffffffff1673ffffffffffffffffffffffffffffffffffffffff16815260200190815260200160002060008282546123d39190613d07565b92505081905550816002600083815260200190815260200160002060006101000a81548173ffffffffffffffffffffffffffffffffffffffff021916908373ffffffffffffffffffffffffffffffffffffffff160217905550808273ffffffffffffffffffffffffffffffffffffffff16600073ffffffffffffffffffffffffffffffffffffffff167fddf252ad1be2c89b69c2b068fc378daa952ba7f163c4a11628f55a4df523b3ef60405160405180910390a45050565b612497848484611ccd565b6124a38484848461290b565b6124e2576040517f08c379a00000000000000000000000000000000000000000000000000000000081526004016124d99061396d565b60405180910390fd5b50505050565b606060405180602001604052806000815250905090565b60606000821415612547576040518060400160405280600181526020017f3000000000000000000000000000000000000000000000000000000000000000815250905061265b565b600082905060005b6000821461257957808061256290613f7d565b915050600a826125729190613d5d565b915061254f565b60008167ffffffffffffffff811115612595576125946140b3565b5b6040519080825280601f01601f1916602001820160405280156125c75781602001600182028036833780820191505090505b5090505b60008514612654576001826125e09190613de8565b9150600a856125ef9190613fc6565b60306125fb9190613d07565b60f81b81838151811061261157612610614084565b5b60200101907effffffffffffffffffffffffffffffffffffffffffffffffffffffffffffff1916908160001a905350600a8561264d9190613d5d565b94506125cb565b8093505050505b919050565b60007f01ffc9a7000000000000000000000000000000000000000000000000000000007bffffffffffffffffffffffffffffffffffffffffffffffffffffffff1916827bffffffffffffffffffffffffffffffffffffffffffffffffffffffff1916149050919050565b505050565b6060600060028360026126e29190613d8e565b6126ec9190613d07565b67ffffffffffffffff811115612705576127046140b3565b5b6040519080825280601f01601f1916602001820160405280156127375781602001600182028036833780820191505090505b5090507f30000000000000000000000000000000000000000000000000000000000000008160008151811061276f5761276e614084565b5b60200101907effffffffffffffffffffffffffffffffffffffffffffffffffffffffffffff1916908160001a9053507f7800000000000000000000000000000000000000000000000000000000000000816001815181106127d3576127d2614084565b5b60200101907effffffffffffffffffffffffffffffffffffffffffffffffffffffffffffff1916908160001a905350600060018460026128139190613d8e565b61281d9190613d07565b90505b60018111156128bd577f3031323334353637383961626364656600000000000000000000000000000000600f86166010811061285f5761285e614084565b5b1a60f81b82828151811061287657612875614084565b5b60200101907effffffffffffffffffffffffffffffffffffffffffffffffffffffffffffff1916908160001a905350600485901c9450806128b690613ef0565b9050612820565b5060008414612901576040517f08c379a00000000000000000000000000000000000000000000000000000000081526004016128f89061394d565b60405180910390fd5b8091505092915050565b600061292c8473ffffffffffffffffffffffffffffffffffffffff16612aa2565b15612a95578373ffffffffffffffffffffffffffffffffffffffff1663150b7a02612955611b2e565b8786866040518563ffffffff1660e01b815260040161297794939291906138a9565b602060405180830381600087803b15801561299157600080fd5b505af19250505080156129c257506040513d601f19601f820116820180604052508101906129bf91906131f0565b60015b612a45573d80600081146129f2576040519150601f19603f3d011682016040523d82523d6000602084013e6129f7565b606091505b50600081511415612a3d576040517f08c379a0000000000000000000000000000000000000000000000000000000008152600401612a349061396d565b60405180910390fd5b805181602001fd5b63150b7a0260e01b7bffffffffffffffffffffffffffffffffffffffffffffffffffffffff1916817bffffffffffffffffffffffffffffffffffffffffffffffffffffffff191614915050612a9a565b600190505b949350505050565b600080823b905060008111915050919050565b604051806101a001604052806000815260200160008152602001600081526020016000815260200160608152602001600067ffffffffffffffff168152602001600067ffffffffffffffff168152602001600015158152602001600073ffffffffffffffffffffffffffffffffffffffff168152602001606081526020016000815260200160008152602001600081525090565b508054600082556003016004900490600052602060002090810190612b6e9190612cf3565b50565b508054612b7d90613f1a565b6000825580601f10612b8f5750612bae565b601f016020900490600052602060002090810190612bad9190612cf3565b5b50565b82805482825590600052602060002090600301600490048101928215612c5c5791602002820160005b83821115612c2657835183826101000a81548167ffffffffffffffff021916908367ffffffffffffffff1602179055509260200192600801602081600701049283019260010302612bda565b8015612c5a5782816101000a81549067ffffffffffffffff0219169055600801602081600701049283019260010302612c26565b505b509050612c699190612cf3565b5090565b828054612c7990613f1a565b90600052602060002090601f016020900481019282612c9b5760008555612ce2565b82601f10612cb457805160ff1916838001178555612ce2565b82800160010185558215612ce2579182015b82811115612ce1578251825591602001919060010190612cc6565b5b509050612cef9190612cf3565b5090565b5b80821115612d0c576000816000905550600101612cf4565b5090565b6000612d23612d1e84613c18565b613bf3565b905082815260208101848484011115612d3f57612d3e6140e7565b5b612d4a848285613eae565b509392505050565b6000612d65612d6084613c49565b613bf3565b905082815260208101848484011115612d8157612d806140e7565b5b612d8c848285613eae565b509392505050565b600081359050612da381614603565b92915050565b600081359050612db88161461a565b92915050565b600081359050612dcd81614631565b92915050565b600081359050612de281614648565b92915050565b600081519050612df781614648565b92915050565b600082601f830112612e1257612e116140e2565b5b8135612e22848260208601612d10565b91505092915050565b600082601f830112612e4057612e3f6140e2565b5b8135612e50848260208601612d52565b91505092915050565b600081359050612e688161465f565b92915050565b600081359050612e7d81614676565b92915050565b600060208284031215612e9957612e986140f1565b5b6000612ea784828501612d94565b91505092915050565b60008060408385031215612ec757612ec66140f1565b5b6000612ed585828601612d94565b9250506020612ee685828601612d94565b9150509250929050565b600080600060608486031215612f0957612f086140f1565b5b6000612f1786828701612d94565b9350506020612f2886828701612d94565b9250506040612f3986828701612e59565b9150509250925092565b60008060008060808587031215612f5d57612f5c6140f1565b5b6000612f6b87828801612d94565b9450506020612f7c87828801612d94565b9350506040612f8d87828801612e59565b925050606085013567ffffffffffffffff811115612fae57612fad6140ec565b5b612fba87828801612dfd565b91505092959194509250565b60008060408385031215612fdd57612fdc6140f1565b5b6000612feb85828601612d94565b9250506020612ffc85828601612da9565b9150509250929050565b6000806040838503121561301d5761301c6140f1565b5b600061302b85828601612d94565b925050602061303c85828601612e59565b9150509250929050565b60008060008060008060008060008060006101608c8e03121561306c5761306b6140f1565b5b600061307a8e828f01612d94565b9b5050602061308b8e828f01612e59565b9a5050604061309c8e828f01612e6e565b99505060606130ad8e828f01612e6e565b98505060808c013567ffffffffffffffff8111156130ce576130cd6140ec565b5b6130da8e828f01612e2b565b97505060a06130eb8e828f01612e59565b96505060c06130fc8e828f01612e59565b95505060e061310d8e828f01612e59565b94505061010061311f8e828f01612e59565b9350506101206131318e828f01612da9565b9250506101406131438e828f01612d94565b9150509295989b509295989b9093969950565b60006020828403121561316c5761316b6140f1565b5b600061317a84828501612dbe565b91505092915050565b6000806040838503121561319a576131996140f1565b5b60006131a885828601612dbe565b92505060206131b985828601612d94565b9150509250929050565b6000602082840312156131d9576131d86140f1565b5b60006131e784828501612dd3565b91505092915050565b600060208284031215613206576132056140f1565b5b600061321484828501612de8565b91505092915050565b600060208284031215613233576132326140f1565b5b600061324184828501612e59565b91505092915050565b60008060408385031215613261576132606140f1565b5b600061326f85828601612e59565b925050602061328085828601612e59565b9150509250929050565b60006132968383613821565b60208301905092915050565b6132ab81613e1c565b82525050565b6132ba81613e1c565b82525050565b60006132cb82613c8a565b6132d58185613cb8565b93506132e083613c7a565b8060005b838110156133115781516132f8888261328a565b975061330383613cab565b9250506001810190506132e4565b5085935050505092915050565b61332781613e2e565b82525050565b61333681613e2e565b82525050565b61334581613e3a565b82525050565b600061335682613c95565b6133608185613cc9565b9350613370818560208601613ebd565b613379816140f6565b840191505092915050565b600061338f82613ca0565b6133998185613cda565b93506133a9818560208601613ebd565b6133b2816140f6565b840191505092915050565b60006133c882613ca0565b6133d28185613ceb565b93506133e2818560208601613ebd565b6133eb816140f6565b840191505092915050565b600061340182613ca0565b61340b8185613cfc565b935061341b818560208601613ebd565b80840191505092915050565b6000613434602083613ceb565b915061343f82614107565b602082019050919050565b6000613457603283613ceb565b915061346282614130565b604082019050919050565b600061347a601c83613ceb565b91506134858261417f565b602082019050919050565b600061349d602483613ceb565b91506134a8826141a8565b604082019050919050565b60006134c0601983613ceb565b91506134cb826141f7565b602082019050919050565b60006134e3602c83613ceb565b91506134ee82614220565b604082019050919050565b6000613506603883613ceb565b91506135118261426f565b604082019050919050565b6000613529601183613ceb565b9150613534826142be565b602082019050919050565b600061354c602a83613ceb565b9150613557826142e7565b604082019050919050565b600061356f602983613ceb565b915061357a82614336565b604082019050919050565b6000613592602083613ceb565b915061359d82614385565b602082019050919050565b60006135b5602c83613ceb565b91506135c0826143ae565b604082019050919050565b60006135d8601983613ceb565b91506135e3826143fd565b602082019050919050565b60006135fb602983613ceb565b915061360682614426565b604082019050919050565b600061361e602f83613ceb565b915061362982614475565b604082019050919050565b6000613641602183613ceb565b915061364c826144c4565b604082019050919050565b6000613664603183613ceb565b915061366f82614513565b604082019050919050565b6000613687601783613cfc565b915061369282614562565b601782019050919050565b60006136aa601183613cfc565b91506136b58261458b565b601182019050919050565b60006136cd602f83613ceb565b91506136d8826145b4565b604082019050919050565b60006101a0830160008301516136fc6000860182613803565b50602083015161370f6020860182613803565b5060408301516137226040860182613803565b5060608301516137356060860182613803565b506080830151848203608086015261374d82826132c0565b91505060a083015161376260a0860182613821565b5060c083015161377560c0860182613821565b5060e083015161378860e086018261331e565b5061010083015161379d6101008601826132a2565b506101208301518482036101208601526137b78282613384565b9150506101408301516137ce610140860182613803565b506101608301516137e3610160860182613803565b506101808301516137f8610180860182613803565b508091505092915050565b61380c81613e90565b82525050565b61381b81613e90565b82525050565b61382a81613e9a565b82525050565b600061383c82856133f6565b915061384882846133f6565b91508190509392505050565b600061385f8261367a565b915061386b82856133f6565b91506138768261369d565b915061388282846133f6565b91508190509392505050565b60006020820190506138a360008301846132b1565b92915050565b60006080820190506138be60008301876132b1565b6138cb60208301866132b1565b6138d86040830185613812565b81810360608301526138ea818461334b565b905095945050505050565b600060208201905061390a600083018461332d565b92915050565b6000602082019050613925600083018461333c565b92915050565b6000602082019050818103600083015261394581846133bd565b905092915050565b6000602082019050818103600083015261396681613427565b9050919050565b600060208201905081810360008301526139868161344a565b9050919050565b600060208201905081810360008301526139a68161346d565b9050919050565b600060208201905081810360008301526139c681613490565b9050919050565b600060208201905081810360008301526139e6816134b3565b9050919050565b60006020820190508181036000830152613a06816134d6565b9050919050565b60006020820190508181036000830152613a26816134f9565b9050919050565b60006020820190508181036000830152613a468161351c565b9050919050565b60006020820190508181036000830152613a668161353f565b9050919050565b60006020820190508181036000830152613a8681613562565b9050919050565b60006020820190508181036000830152613aa681613585565b9050919050565b60006020820190508181036000830152613ac6816135a8565b9050919050565b60006020820190508181036000830152613ae6816135cb565b9050919050565b60006020820190508181036000830152613b06816135ee565b9050919050565b60006020820190508181036000830152613b2681613611565b9050919050565b60006020820190508181036000830152613b4681613634565b9050919050565b60006020820190508181036000830152613b6681613657565b9050919050565b60006020820190508181036000830152613b86816136c0565b9050919050565b60006020820190508181036000830152613ba781846136e3565b905092915050565b6000602082019050613bc46000830184613812565b92915050565b6000604082019050613bdf6000830185613812565b613bec6020830184613812565b9392505050565b6000613bfd613c0e565b9050613c098282613f4c565b919050565b6000604051905090565b600067ffffffffffffffff821115613c3357613c326140b3565b5b613c3c826140f6565b9050602081019050919050565b600067ffffffffffffffff821115613c6457613c636140b3565b5b613c6d826140f6565b9050602081019050919050565b6000819050602082019050919050565b600081519050919050565b600081519050919050565b600081519050919050565b6000602082019050919050565b600082825260208201905092915050565b600082825260208201905092915050565b600082825260208201905092915050565b600082825260208201905092915050565b600081905092915050565b6000613d1282613e90565b9150613d1d83613e90565b9250827fffffffffffffffffffffffffffffffffffffffffffffffffffffffffffffffff03821115613d5257613d51613ff7565b5b828201905092915050565b6000613d6882613e90565b9150613d7383613e90565b925082613d8357613d82614026565b5b828204905092915050565b6000613d9982613e90565b9150613da483613e90565b9250817fffffffffffffffffffffffffffffffffffffffffffffffffffffffffffffffff0483118215151615613ddd57613ddc613ff7565b5b828202905092915050565b6000613df382613e90565b9150613dfe83613e90565b925082821015613e1157613e10613ff7565b5b828203905092915050565b6000613e2782613e70565b9050919050565b60008115159050919050565b6000819050919050565b60007fffffffff0000000000000000000000000000000000000000000000000000000082169050919050565b600073ffffffffffffffffffffffffffffffffffffffff82169050919050565b6000819050919050565b600067ffffffffffffffff82169050919050565b82818337600083830152505050565b60005b83811015613edb578082015181840152602081019050613ec0565b83811115613eea576000848401525b50505050565b6000613efb82613e90565b91506000821415613f0f57613f0e613ff7565b5b600182039050919050565b60006002820490506001821680613f3257607f821691505b60208210811415613f4657613f45614055565b5b50919050565b613f55826140f6565b810181811067ffffffffffffffff82111715613f7457613f736140b3565b5b80604052505050565b6000613f8882613e90565b91507fffffffffffffffffffffffffffffffffffffffffffffffffffffffffffffffff821415613fbb57613fba613ff7565b5b600182019050919050565b6000613fd182613e90565b9150613fdc83613e90565b925082613fec57613feb614026565b5b828206905092915050565b7f4e487b7100000000000000000000000000000000000000000000000000000000600052601160045260246000fd5b7f4e487b7100000000000000000000000000000000000000000000000000000000600052601260045260246000fd5b7f4e487b7100000000000000000000000000000000000000000000000000000000600052602260045260246000fd5b7f4e487b7100000000000000000000000000000000000000000000000000000000600052603260045260246000fd5b7f4e487b7100000000000000000000000000000000000000000000000000000000600052604160045260246000fd5b600080fd5b600080fd5b600080fd5b600080fd5b6000601f19601f8301169050919050565b7f537472696e67733a20686578206c656e67746820696e73756666696369656e74600082015250565b7f4552433732313a207472616e7366657220746f206e6f6e20455243373231526560008201527f63656976657220696d706c656d656e7465720000000000000000000000000000602082015250565b7f4552433732313a20746f6b656e20616c7265616479206d696e74656400000000600082015250565b7f4552433732313a207472616e7366657220746f20746865207a65726f2061646460008201527f7265737300000000000000000000000000000000000000000000000000000000602082015250565b7f4552433732313a20617070726f766520746f2063616c6c657200000000000000600082015250565b7f4552433732313a206f70657261746f7220717565727920666f72206e6f6e657860008201527f697374656e7420746f6b656e0000000000000000000000000000000000000000602082015250565b7f4552433732313a20617070726f76652063616c6c6572206973206e6f74206f7760008201527f6e6572206e6f7220617070726f76656420666f7220616c6c0000000000000000602082015250565b7f4e6f6e6578697374656e7420746f6b656e000000000000000000000000000000600082015250565b7f4552433732313a2062616c616e636520717565727920666f7220746865207a6560008201527f726f206164647265737300000000000000000000000000000000000000000000602082015250565b7f4552433732313a206f776e657220717565727920666f72206e6f6e657869737460008201527f656e7420746f6b656e0000000000000000000000000000000000000000000000602082015250565b7f4552433732313a206d696e7420746f20746865207a65726f2061646472657373600082015250565b7f4552433732313a20617070726f76656420717565727920666f72206e6f6e657860008201527f697374656e7420746f6b656e0000000000000000000000000000000000000000602082015250565b7f4163636f756e7420646f6573206e6f74206861766520426f7000000000000000600082015250565b7f4552433732313a207472616e73666572206f6620746f6b656e2074686174206960008201527f73206e6f74206f776e0000000000000000000000000000000000000000000000602082015250565b7f4552433732314d657461646174613a2055524920717565727920666f72206e6f60008201527f6e6578697374656e7420746f6b656e0000000000000000000000000000000000602082015250565b7f4552433732313a20617070726f76616c20746f2063757272656e74206f776e6560008201527f7200000000000000000000000000000000000000000000000000000000000000602082015250565b7f4552433732313a207472616e736665722063616c6c6572206973206e6f74206f60008201527f776e6572206e6f7220617070726f766564000000000000000000000000000000602082015250565b7f416363657373436f6e74726f6c3a206163636f756e7420000000000000000000600082015250565b7f206973206d697373696e6720726f6c6520000000000000000000000000000000600082015250565b7f416363657373436f6e74726f6c3a2063616e206f6e6c792072656e6f756e636560008201527f20726f6c657320666f722073656c660000000000000000000000000000000000602082015250565b61460c81613e1c565b811461461757600080fd5b50565b61462381613e2e565b811461462e57600080fd5b50565b61463a81613e3a565b811461464557600080fd5b50565b61465181613e44565b811461465c57600080fd5b50565b61466881613e90565b811461467357600080fd5b50565b61467f81613e9a565b811461468a57600080fd5b5056fea26469706673582212207543370420cab459f36e925c7ab5edcf31a49185b583273b628d49c4da64497764736f6c63430008060033",
  "immutableReferences": {},
  "source": "// SPDX-License-Identifier: MIT\npragma solidity ^0.8.0;\n\nimport \"@openzeppelin/contracts/utils/Counters.sol\";\nimport \"@openzeppelin/contracts/token/ERC721/ERC721.sol\";\nimport \"@openzeppelin/contracts/access/AccessControl.sol\";\n\nimport \"../Structs.sol\";\n\n/**\n * @title the NFT contract for Bop\n * @author Vijay Dhanasekaran\n */\ncontract BopToken is ERC721, AccessControl {\n    bytes32 public constant SONGS_MANAGER = keccak256(\"SONGS_MANAGER\");\n    bytes32 public constant SONG_CONTRACT = keccak256(\"SONG_CONTRACT\");\n\n    using Counters for Counters.Counter;\n    Counters.Counter private _bopTokenId;\n\n    mapping(uint256 => Bop) private _bopTokens;\n\n    event Minted(address indexed account, uint256 indexed bopTokenId, uint256 timestamp);\n    event Burned(address indexed account, uint256 indexed bopTokenId, uint256 timestamp);\n    event UpdatedLevel(address indexed account, uint256 indexed bopTokenId, uint256 level, uint256 timestamp);\n    event IncreasedIntensity(\n        address indexed account,\n        uint256 indexed bopTokenId,\n        uint256 amount,\n        uint256 timestamp\n    );\n    event BurnedBeats(address indexed account, uint256 indexed bopTokenId, uint256 amount, uint256 timestamp);\n\n    /**\n     * @param name name of the token\n     * @param symbol symbol of the token\n     * @param _songsManagerAddress the address of the SongsManager contract\n     */\n    constructor(\n        string memory name,\n        string memory symbol,\n        address _songsManagerAddress\n    ) ERC721(name, symbol) {\n        _setRoleAdmin(SONG_CONTRACT, SONGS_MANAGER);\n        _setupRole(SONGS_MANAGER, _songsManagerAddress);\n    }\n\n    /**\n     * @notice Bop struct getter (only for owner)\n     * @param bopTokenId The id of the media to retrieve\n     */\n    function getBop(uint256 bopTokenId) external view returns (Bop memory bop) {\n        require(_exists(bopTokenId), \"Nonexistent token\");\n        bop = _bopTokens[bopTokenId];\n    }\n\n    /**\n     * @notice Mint Bop NFT Token\n     * @param to The address of the account holder\n     * @param songId Id of the song\n     * @param parentId1 Id of the parent1\n     * @param parentId2 Id of the parent2\n     * @param genre Genre of the bop\n     * @param beatsBurnt amount of beats burnt\n     * @param traxStaked amount of trax staked\n     * @param stablecoinStaked amount of stableCoinStaked\n     */\n    function mint(\n        address to,\n        uint256 songId,\n        uint64 parentId1,\n        uint64 parentId2,\n        string memory genre,\n        uint256 level,\n        uint256 beatsBurnt,\n        uint256 traxStaked,\n        uint256 stablecoinStaked,\n        bool priviVerified,\n        address stablecoinToken\n    ) public onlyRole(SONG_CONTRACT) {\n        // generate new token id\n        _bopTokenId.increment();\n        uint256 newTokenId = _bopTokenId.current();\n\n        uint64[] memory offsprings;\n\n        Bop memory bop = Bop({\n            bopId: newTokenId,\n            songId: songId,\n            level: level,\n            intensity: stablecoinStaked,\n            offsprings: offsprings,\n            parentId1: parentId1,\n            priviVerified: priviVerified,\n            parentId2: parentId2,\n            genre: genre,\n            beatsBurnt: beatsBurnt,\n            traxStaked: traxStaked,\n            stablecoinStaked: stablecoinStaked,\n            stablecoinToken: stablecoinToken\n        });\n\n        _mint(to, newTokenId);\n\n        // store in storage\n        _bopTokens[newTokenId] = bop;\n\n        emit Minted(to, newTokenId, block.timestamp);\n    }\n\n    /**\n     * @notice Burn Bop NFT Token\n     * @param bopTokenId The NFT token Id\n     */\n    function burn(uint256 bopTokenId) public onlyRole(SONG_CONTRACT) {\n        address owner = ownerOf(bopTokenId);\n\n        _burn(bopTokenId);\n\n        // remove token and  nullify\n        delete _bopTokens[bopTokenId];\n\n        emit Burned(owner, bopTokenId, block.timestamp);\n    }\n\n    /**\n     * @notice Update Bop level (only by the owner)\n     * @param bopTokenId The Bop NFT token Id\n     * @param level The level to be updated\n     */\n    function updateLevel(uint256 bopTokenId, uint256 level) external onlyRole(SONG_CONTRACT) {\n        require(_bopTokens[bopTokenId].bopId != 0, \"Account does not have Bop\");\n        Bop storage bop = _bopTokens[bopTokenId];\n        bop.level = level;\n\n        emit UpdatedLevel(msg.sender, bopTokenId, level, block.timestamp);\n    }\n\n    /**\n     * @notice Increase the intensity (only by the owner)\n     * @param bopTokenId The Bop NFT token Id\n     * @param intensity The intensity to be increased\n     */\n    function increaseIntensity(uint256 bopTokenId, uint256 intensity) external onlyRole(SONG_CONTRACT) {\n        require(_bopTokens[bopTokenId].bopId != 0, \"Account does not have Bop\");\n        Bop storage bop = _bopTokens[bopTokenId];\n        bop.intensity += intensity;\n\n        emit IncreasedIntensity(msg.sender, bop.bopId, intensity, block.timestamp);\n    }\n\n    /**\n     * @notice Burn beats (only by the owner)\n     * @param bopTokenId The Bop NFT token Id\n     * @param beatsToBurn The amount of beats to be burnt\n     */\n    function burnBeats(uint256 bopTokenId, uint256 beatsToBurn) external onlyRole(SONG_CONTRACT) {\n        require(_bopTokens[bopTokenId].bopId != 0, \"Account does not have Bop\");\n        Bop storage bop = _bopTokens[bopTokenId];\n        bop.beatsBurnt += beatsToBurn;\n\n        emit BurnedBeats(msg.sender, bop.bopId, beatsToBurn, block.timestamp);\n    }\n\n\n\n\n    /**\n     * @notice allows breeding a bop with beats\n     * @param _bopId the token id\n     * @param _amountOfBeats the token id\n     */\n    function breedBop(uint256 _bopId, uint256 _amountOfBeats) external onlyRole(SONG_CONTRACT) {}\n\n    /**\n     * @dev See {IERC165-supportsInterface}.\n     */\n    function supportsInterface(bytes4 interfaceId)\n        public\n        view\n        override(ERC721, AccessControl)\n        returns (bool)\n    {\n        return ERC721.supportsInterface(interfaceId) || AccessControl.supportsInterface(interfaceId);\n    }\n}\n",
  "sourcePath": "/Users/angelsatorresalmenara/Desktop/privi-trax-smart-contracts/contracts/bops/BopToken.sol",
  "compiler": {
    "name": "solc",
    "version": "0.8.6+commit.11564f7e.Emscripten.clang"
  },
  "schemaVersion": "3.4.2",
  "updatedAt": "2021-09-02T15:30:08.497Z",
  "networkType": "ethereum",
  "devdoc": {
    "author": "Vijay Dhanasekaran",
    "kind": "dev",
    "methods": {
      "approve(address,uint256)": {
        "details": "See {IERC721-approve}."
      },
      "balanceOf(address)": {
        "details": "See {IERC721-balanceOf}."
      },
      "breedBop(uint256,uint256)": {
        "params": {
          "_amountOfBeats": "the token id",
          "_bopId": "the token id"
        }
      },
      "burn(uint256)": {
        "params": {
          "bopTokenId": "The NFT token Id"
        }
      },
      "burnBeats(uint256,uint256)": {
        "params": {
          "beatsToBurn": "The amount of beats to be burnt",
          "bopTokenId": "The Bop NFT token Id"
        }
      },
      "constructor": {
        "params": {
          "_songsManagerAddress": "the address of the SongsManager contract",
          "name": "name of the token",
          "symbol": "symbol of the token"
        }
      },
      "getApproved(uint256)": {
        "details": "See {IERC721-getApproved}."
      },
      "getBop(uint256)": {
        "params": {
          "bopTokenId": "The id of the media to retrieve"
        }
      },
      "getRoleAdmin(bytes32)": {
        "details": "Returns the admin role that controls `role`. See {grantRole} and {revokeRole}. To change a role's admin, use {_setRoleAdmin}."
      },
      "grantRole(bytes32,address)": {
        "details": "Grants `role` to `account`. If `account` had not been already granted `role`, emits a {RoleGranted} event. Requirements: - the caller must have ``role``'s admin role."
      },
      "hasRole(bytes32,address)": {
        "details": "Returns `true` if `account` has been granted `role`."
      },
      "increaseIntensity(uint256,uint256)": {
        "params": {
          "bopTokenId": "The Bop NFT token Id",
          "intensity": "The intensity to be increased"
        }
      },
      "isApprovedForAll(address,address)": {
        "details": "See {IERC721-isApprovedForAll}."
      },
      "mint(address,uint256,uint64,uint64,string,uint256,uint256,uint256,uint256,bool,address)": {
        "params": {
          "beatsBurnt": "amount of beats burnt",
          "genre": "Genre of the bop",
          "parentId1": "Id of the parent1",
          "parentId2": "Id of the parent2",
          "songId": "Id of the song",
          "stablecoinStaked": "amount of stableCoinStaked",
          "to": "The address of the account holder",
          "traxStaked": "amount of trax staked"
        }
      },
      "name()": {
        "details": "See {IERC721Metadata-name}."
      },
      "ownerOf(uint256)": {
        "details": "See {IERC721-ownerOf}."
      },
      "renounceRole(bytes32,address)": {
        "details": "Revokes `role` from the calling account. Roles are often managed via {grantRole} and {revokeRole}: this function's purpose is to provide a mechanism for accounts to lose their privileges if they are compromised (such as when a trusted device is misplaced). If the calling account had been granted `role`, emits a {RoleRevoked} event. Requirements: - the caller must be `account`."
      },
      "revokeRole(bytes32,address)": {
        "details": "Revokes `role` from `account`. If `account` had been granted `role`, emits a {RoleRevoked} event. Requirements: - the caller must have ``role``'s admin role."
      },
      "safeTransferFrom(address,address,uint256)": {
        "details": "See {IERC721-safeTransferFrom}."
      },
      "safeTransferFrom(address,address,uint256,bytes)": {
        "details": "See {IERC721-safeTransferFrom}."
      },
      "setApprovalForAll(address,bool)": {
        "details": "See {IERC721-setApprovalForAll}."
      },
      "supportsInterface(bytes4)": {
        "details": "See {IERC165-supportsInterface}."
      },
      "symbol()": {
        "details": "See {IERC721Metadata-symbol}."
      },
      "tokenURI(uint256)": {
        "details": "See {IERC721Metadata-tokenURI}."
      },
      "transferFrom(address,address,uint256)": {
        "details": "See {IERC721-transferFrom}."
      },
      "updateLevel(uint256,uint256)": {
        "params": {
          "bopTokenId": "The Bop NFT token Id",
          "level": "The level to be updated"
        }
      }
    },
    "title": "the NFT contract for Bop",
    "version": 1
  },
  "userdoc": {
    "kind": "user",
    "methods": {
      "breedBop(uint256,uint256)": {
        "notice": "allows breeding a bop with beats"
      },
      "burn(uint256)": {
        "notice": "Burn Bop NFT Token"
      },
      "burnBeats(uint256,uint256)": {
        "notice": "Burn beats (only by the owner)"
      },
      "getBop(uint256)": {
        "notice": "Bop struct getter (only for owner)"
      },
      "increaseIntensity(uint256,uint256)": {
        "notice": "Increase the intensity (only by the owner)"
      },
      "mint(address,uint256,uint64,uint64,string,uint256,uint256,uint256,uint256,bool,address)": {
        "notice": "Mint Bop NFT Token"
      },
      "updateLevel(uint256,uint256)": {
        "notice": "Update Bop level (only by the owner)"
      }
    },
    "version": 1
  }
}