{
  "contractName": "CopyrightToken",
  "abi": [
    {
      "inputs": [],
      "stateMutability": "nonpayable",
      "type": "constructor"
    },
    {
      "anonymous": false,
      "inputs": [
        {
          "indexed": true,
          "internalType": "address",
          "name": "owner",
          "type": "address"
        },
        {
          "indexed": true,
          "internalType": "address",
          "name": "spender",
          "type": "address"
        },
        {
          "indexed": false,
          "internalType": "uint256",
          "name": "value",
          "type": "uint256"
        }
      ],
      "name": "Approval",
      "type": "event"
    },
    {
      "anonymous": false,
      "inputs": [
        {
          "indexed": false,
          "internalType": "address",
          "name": "account",
          "type": "address"
        }
      ],
      "name": "Paused",
      "type": "event"
    },
    {
      "anonymous": false,
      "inputs": [
        {
          "indexed": true,
          "internalType": "bytes32",
          "name": "role",
          "type": "bytes32"
        },
        {
          "indexed": true,
          "internalType": "bytes32",
          "name": "previousAdminRole",
          "type": "bytes32"
        },
        {
          "indexed": true,
          "internalType": "bytes32",
          "name": "newAdminRole",
          "type": "bytes32"
        }
      ],
      "name": "RoleAdminChanged",
      "type": "event"
    },
    {
      "anonymous": false,
      "inputs": [
        {
          "indexed": true,
          "internalType": "bytes32",
          "name": "role",
          "type": "bytes32"
        },
        {
          "indexed": true,
          "internalType": "address",
          "name": "account",
          "type": "address"
        },
        {
          "indexed": true,
          "internalType": "address",
          "name": "sender",
          "type": "address"
        }
      ],
      "name": "RoleGranted",
      "type": "event"
    },
    {
      "anonymous": false,
      "inputs": [
        {
          "indexed": true,
          "internalType": "bytes32",
          "name": "role",
          "type": "bytes32"
        },
        {
          "indexed": true,
          "internalType": "address",
          "name": "account",
          "type": "address"
        },
        {
          "indexed": true,
          "internalType": "address",
          "name": "sender",
          "type": "address"
        }
      ],
      "name": "RoleRevoked",
      "type": "event"
    },
    {
      "anonymous": false,
      "inputs": [
        {
          "indexed": true,
          "internalType": "address",
          "name": "from",
          "type": "address"
        },
        {
          "indexed": true,
          "internalType": "address",
          "name": "to",
          "type": "address"
        },
        {
          "indexed": false,
          "internalType": "uint256",
          "name": "value",
          "type": "uint256"
        }
      ],
      "name": "Transfer",
      "type": "event"
    },
    {
      "anonymous": false,
      "inputs": [
        {
          "indexed": false,
          "internalType": "address",
          "name": "account",
          "type": "address"
        }
      ],
      "name": "Unpaused",
      "type": "event"
    },
    {
      "inputs": [],
      "name": "DEFAULT_ADMIN_ROLE",
      "outputs": [
        {
          "internalType": "bytes32",
          "name": "",
          "type": "bytes32"
        }
      ],
      "stateMutability": "view",
      "type": "function"
    },
    {
      "inputs": [],
      "name": "WITHDRAW_MANAGER_ROLE",
      "outputs": [
        {
          "internalType": "bytes32",
          "name": "",
          "type": "bytes32"
        }
      ],
      "stateMutability": "view",
      "type": "function"
    },
    {
      "inputs": [
        {
          "internalType": "address",
          "name": "owner",
          "type": "address"
        },
        {
          "internalType": "address",
          "name": "spender",
          "type": "address"
        }
      ],
      "name": "allowance",
      "outputs": [
        {
          "internalType": "uint256",
          "name": "",
          "type": "uint256"
        }
      ],
      "stateMutability": "view",
      "type": "function"
    },
    {
      "inputs": [
        {
          "internalType": "address",
          "name": "spender",
          "type": "address"
        },
        {
          "internalType": "uint256",
          "name": "amount",
          "type": "uint256"
        }
      ],
      "name": "approve",
      "outputs": [
        {
          "internalType": "bool",
          "name": "",
          "type": "bool"
        }
      ],
      "stateMutability": "nonpayable",
      "type": "function"
    },
    {
      "inputs": [
        {
          "internalType": "address",
          "name": "account",
          "type": "address"
        }
      ],
      "name": "balanceOf",
      "outputs": [
        {
          "internalType": "uint256",
          "name": "",
          "type": "uint256"
        }
      ],
      "stateMutability": "view",
      "type": "function"
    },
    {
      "inputs": [],
      "name": "decimals",
      "outputs": [
        {
          "internalType": "uint8",
          "name": "",
          "type": "uint8"
        }
      ],
      "stateMutability": "view",
      "type": "function"
    },
    {
      "inputs": [
        {
          "internalType": "address",
          "name": "spender",
          "type": "address"
        },
        {
          "internalType": "uint256",
          "name": "subtractedValue",
          "type": "uint256"
        }
      ],
      "name": "decreaseAllowance",
      "outputs": [
        {
          "internalType": "bool",
          "name": "",
          "type": "bool"
        }
      ],
      "stateMutability": "nonpayable",
      "type": "function"
    },
    {
      "inputs": [
        {
          "internalType": "bytes32",
          "name": "role",
          "type": "bytes32"
        }
      ],
      "name": "getRoleAdmin",
      "outputs": [
        {
          "internalType": "bytes32",
          "name": "",
          "type": "bytes32"
        }
      ],
      "stateMutability": "view",
      "type": "function"
    },
    {
      "inputs": [
        {
          "internalType": "bytes32",
          "name": "role",
          "type": "bytes32"
        },
        {
          "internalType": "address",
          "name": "account",
          "type": "address"
        }
      ],
      "name": "grantRole",
      "outputs": [],
      "stateMutability": "nonpayable",
      "type": "function"
    },
    {
      "inputs": [
        {
          "internalType": "bytes32",
          "name": "role",
          "type": "bytes32"
        },
        {
          "internalType": "address",
          "name": "account",
          "type": "address"
        }
      ],
      "name": "hasRole",
      "outputs": [
        {
          "internalType": "bool",
          "name": "",
          "type": "bool"
        }
      ],
      "stateMutability": "view",
      "type": "function"
    },
    {
      "inputs": [
        {
          "internalType": "address",
          "name": "spender",
          "type": "address"
        },
        {
          "internalType": "uint256",
          "name": "addedValue",
          "type": "uint256"
        }
      ],
      "name": "increaseAllowance",
      "outputs": [
        {
          "internalType": "bool",
          "name": "",
          "type": "bool"
        }
      ],
      "stateMutability": "nonpayable",
      "type": "function"
    },
    {
      "inputs": [],
      "name": "paused",
      "outputs": [
        {
          "internalType": "bool",
          "name": "",
          "type": "bool"
        }
      ],
      "stateMutability": "view",
      "type": "function"
    },
    {
      "inputs": [
        {
          "internalType": "bytes32",
          "name": "role",
          "type": "bytes32"
        },
        {
          "internalType": "address",
          "name": "account",
          "type": "address"
        }
      ],
      "name": "renounceRole",
      "outputs": [],
      "stateMutability": "nonpayable",
      "type": "function"
    },
    {
      "inputs": [
        {
          "internalType": "bytes32",
          "name": "role",
          "type": "bytes32"
        },
        {
          "internalType": "address",
          "name": "account",
          "type": "address"
        }
      ],
      "name": "revokeRole",
      "outputs": [],
      "stateMutability": "nonpayable",
      "type": "function"
    },
    {
      "inputs": [
        {
          "internalType": "bytes4",
          "name": "interfaceId",
          "type": "bytes4"
        }
      ],
      "name": "supportsInterface",
      "outputs": [
        {
          "internalType": "bool",
          "name": "",
          "type": "bool"
        }
      ],
      "stateMutability": "view",
      "type": "function"
    },
    {
      "inputs": [],
      "name": "totalSupply",
      "outputs": [
        {
          "internalType": "uint256",
          "name": "",
          "type": "uint256"
        }
      ],
      "stateMutability": "view",
      "type": "function"
    },
    {
      "inputs": [
        {
          "internalType": "string",
          "name": "_name",
          "type": "string"
        },
        {
          "internalType": "string",
          "name": "_symbol",
          "type": "string"
        }
      ],
      "name": "initialize",
      "outputs": [],
      "stateMutability": "nonpayable",
      "type": "function"
    },
    {
      "inputs": [],
      "name": "pause",
      "outputs": [],
      "stateMutability": "nonpayable",
      "type": "function"
    },
    {
      "inputs": [],
      "name": "unpause",
      "outputs": [],
      "stateMutability": "nonpayable",
      "type": "function"
    },
    {
      "inputs": [
        {
          "internalType": "address",
          "name": "to",
          "type": "address"
        },
        {
          "internalType": "uint256",
          "name": "amount",
          "type": "uint256"
        }
      ],
      "name": "mint",
      "outputs": [],
      "stateMutability": "nonpayable",
      "type": "function"
    },
    {
      "inputs": [
        {
          "internalType": "address",
          "name": "to",
          "type": "address"
        },
        {
          "internalType": "uint256",
          "name": "amount",
          "type": "uint256"
        }
      ],
      "name": "burn",
      "outputs": [],
      "stateMutability": "nonpayable",
      "type": "function"
    },
    {
      "inputs": [
        {
          "internalType": "address",
          "name": "recipient",
          "type": "address"
        },
        {
          "internalType": "uint256",
          "name": "amount",
          "type": "uint256"
        }
      ],
      "name": "transfer",
      "outputs": [
        {
          "internalType": "bool",
          "name": "",
          "type": "bool"
        }
      ],
      "stateMutability": "nonpayable",
      "type": "function"
    },
    {
      "inputs": [
        {
          "internalType": "address",
          "name": "sender",
          "type": "address"
        },
        {
          "internalType": "address",
          "name": "recipient",
          "type": "address"
        },
        {
          "internalType": "uint256",
          "name": "amount",
          "type": "uint256"
        }
      ],
      "name": "transferFrom",
      "outputs": [
        {
          "internalType": "bool",
          "name": "",
          "type": "bool"
        }
      ],
      "stateMutability": "nonpayable",
      "type": "function"
    },
    {
      "inputs": [],
      "name": "name",
      "outputs": [
        {
          "internalType": "string",
          "name": "",
          "type": "string"
        }
      ],
      "stateMutability": "view",
      "type": "function"
    },
    {
      "inputs": [],
      "name": "symbol",
      "outputs": [
        {
          "internalType": "string",
          "name": "",
          "type": "string"
        }
      ],
      "stateMutability": "view",
      "type": "function"
    }
  ],
  "bytecode": "0x60806040523480156200001157600080fd5b5060405180606001604052806024815260200162002f25602491396040518060400160405280600581526020017f70434f505200000000000000000000000000000000000000000000000000000081525081600390805190602001906200007a929190620000b7565b50806004908051906020019062000093929190620000b7565b5050506000600560006101000a81548160ff021916908315150217905550620001cc565b828054620000c59062000167565b90600052602060002090601f016020900481019282620000e9576000855562000135565b82601f106200010457805160ff191683800117855562000135565b8280016001018555821562000135579182015b828111156200013457825182559160200191906001019062000117565b5b50905062000144919062000148565b5090565b5b808211156200016357600081600090555060010162000149565b5090565b600060028204905060018216806200018057607f821691505b602082108114156200019757620001966200019d565b5b50919050565b7f4e487b7100000000000000000000000000000000000000000000000000000000600052602260045260246000fd5b612d4980620001dc6000396000f3fe608060405234801561001057600080fd5b50600436106101735760003560e01c80634cd88b76116100de5780639dc29fac11610097578063a9059cbb11610071578063a9059cbb1461044c578063d547741f1461047c578063dd62ed3e14610498578063e1b08619146104c857610173565b80639dc29fac146103e2578063a217fddf146103fe578063a457c2d71461041c57610173565b80634cd88b76146103205780635c975abb1461033c57806370a082311461035a5780638456cb591461038a57806391d148541461039457806395d89b41146103c457610173565b80632f2ff15d116101305780632f2ff15d14610274578063313ce5671461029057806336568abe146102ae57806339509351146102ca5780633f4ba83a146102fa57806340c10f191461030457610173565b806301ffc9a71461017857806306fdde03146101a8578063095ea7b3146101c657806318160ddd146101f657806323b872dd14610214578063248a9ca314610244575b600080fd5b610192600480360381019061018d9190611ed8565b6104e6565b60405161019f91906122e3565b60405180910390f35b6101b0610560565b6040516101bd9190612319565b60405180910390f35b6101e060048036038101906101db9190611e2b565b6105f2565b6040516101ed91906122e3565b60405180910390f35b6101fe610610565b60405161020b919061251b565b60405180910390f35b61022e60048036038101906102299190611dd8565b61061a565b60405161023b91906122e3565b60405180910390f35b61025e60048036038101906102599190611e6b565b610678565b60405161026b91906122fe565b60405180910390f35b61028e60048036038101906102899190611e98565b610698565b005b6102986106c1565b6040516102a59190612536565b60405180910390f35b6102c860048036038101906102c39190611e98565b6106ca565b005b6102e460048036038101906102df9190611e2b565b61074d565b6040516102f191906122e3565b60405180910390f35b6103026107f9565b005b61031e60048036038101906103199190611e2b565b610819565b005b61033a60048036038101906103359190611f05565b61083d565b005b610344610958565b60405161035191906122e3565b60405180910390f35b610374600480360381019061036f9190611d6b565b61096f565b604051610381919061251b565b60405180910390f35b6103926109b7565b005b6103ae60048036038101906103a99190611e98565b6109d7565b6040516103bb91906122e3565b60405180910390f35b6103cc610a42565b6040516103d99190612319565b60405180910390f35b6103fc60048036038101906103f79190611e2b565b610ad4565b005b610406610af8565b60405161041391906122fe565b60405180910390f35b61043660048036038101906104319190611e2b565b610aff565b60405161044391906122e3565b60405180910390f35b61046660048036038101906104619190611e2b565b610bea565b60405161047391906122e3565b60405180910390f35b61049660048036038101906104919190611e98565b610c46565b005b6104b260048036038101906104ad9190611d98565b610c6f565b6040516104bf919061251b565b60405180910390f35b6104d0610cf6565b6040516104dd91906122fe565b60405180910390f35b60007f7965db0b000000000000000000000000000000000000000000000000000000007bffffffffffffffffffffffffffffffffffffffffffffffffffffffff1916827bffffffffffffffffffffffffffffffffffffffffffffffffffffffff19161480610559575061055882610d1a565b5b9050919050565b60606008805461056f90612744565b80601f016020809104026020016040519081016040528092919081815260200182805461059b90612744565b80156105e85780601f106105bd576101008083540402835291602001916105e8565b820191906000526020600020905b8154815290600101906020018083116105cb57829003601f168201915b5050505050905090565b60006106066105ff610d84565b8484610d8c565b6001905092915050565b6000600254905090565b6000610624610958565b15610664576040517f08c379a000000000000000000000000000000000000000000000000000000000815260040161065b906123fb565b60405180910390fd5b61066f848484610f57565b90509392505050565b600060066000838152602001908152602001600020600101549050919050565b6106a182610678565b6106b2816106ad610d84565b61104f565b6106bc83836110ec565b505050565b60006012905090565b6106d2610d84565b73ffffffffffffffffffffffffffffffffffffffff168173ffffffffffffffffffffffffffffffffffffffff161461073f576040517f08c379a0000000000000000000000000000000000000000000000000000000008152600401610736906124db565b60405180910390fd5b61074982826111cd565b5050565b60006107ef61075a610d84565b848460016000610768610d84565b73ffffffffffffffffffffffffffffffffffffffff1673ffffffffffffffffffffffffffffffffffffffff16815260200190815260200160002060008873ffffffffffffffffffffffffffffffffffffffff1673ffffffffffffffffffffffffffffffffffffffff168152602001908152602001600020546107ea9190612578565b610d8c565b6001905092915050565b6000801b61080e81610809610d84565b61104f565b6108166112af565b50565b6000801b61082e81610829610d84565b61104f565b6108388383611351565b505050565b600760019054906101000a900460ff16806108655750600760009054906101000a900460ff16155b6108a4576040517f08c379a000000000000000000000000000000000000000000000000000000000815260040161089b9061241b565b60405180910390fd5b6000600760019054906101000a900460ff1615905080156108f6576001600760016101000a81548160ff0219169083151502179055506001600760006101000a81548160ff0219169083151502179055505b848460089190610907929190611c1e565b50828260099190610919929190611c1e565b506109226114b1565b61092f6000801b33611554565b8015610951576000600760016101000a81548160ff0219169083151502179055505b5050505050565b6000600560009054906101000a900460ff16905090565b60008060008373ffffffffffffffffffffffffffffffffffffffff1673ffffffffffffffffffffffffffffffffffffffff168152602001908152602001600020549050919050565b6000801b6109cc816109c7610d84565b61104f565b6109d46114b1565b50565b60006006600084815260200190815260200160002060000160008373ffffffffffffffffffffffffffffffffffffffff1673ffffffffffffffffffffffffffffffffffffffff16815260200190815260200160002060009054906101000a900460ff16905092915050565b606060098054610a5190612744565b80601f0160208091040260200160405190810160405280929190818152602001828054610a7d90612744565b8015610aca5780601f10610a9f57610100808354040283529160200191610aca565b820191906000526020600020905b815481529060010190602001808311610aad57829003601f168201915b5050505050905090565b6000801b610ae981610ae4610d84565b61104f565b610af38383611562565b505050565b6000801b81565b60008060016000610b0e610d84565b73ffffffffffffffffffffffffffffffffffffffff1673ffffffffffffffffffffffffffffffffffffffff16815260200190815260200160002060008573ffffffffffffffffffffffffffffffffffffffff1673ffffffffffffffffffffffffffffffffffffffff16815260200190815260200160002054905082811015610bcb576040517f08c379a0000000000000000000000000000000000000000000000000000000008152600401610bc2906124bb565b60405180910390fd5b610bdf610bd6610d84565b85858403610d8c565b600191505092915050565b6000610bf4610958565b15610c34576040517f08c379a0000000000000000000000000000000000000000000000000000000008152600401610c2b906123fb565b60405180910390fd5b610c3e8383611739565b905092915050565b610c4f82610678565b610c6081610c5b610d84565b61104f565b610c6a83836111cd565b505050565b6000600160008473ffffffffffffffffffffffffffffffffffffffff1673ffffffffffffffffffffffffffffffffffffffff16815260200190815260200160002060008373ffffffffffffffffffffffffffffffffffffffff1673ffffffffffffffffffffffffffffffffffffffff16815260200190815260200160002054905092915050565b7fbe4b8ff2378fafab5b779323935cef89cecb6bffd2e15c86526a218902195a3581565b60007f01ffc9a7000000000000000000000000000000000000000000000000000000007bffffffffffffffffffffffffffffffffffffffffffffffffffffffff1916827bffffffffffffffffffffffffffffffffffffffffffffffffffffffff1916149050919050565b600033905090565b600073ffffffffffffffffffffffffffffffffffffffff168373ffffffffffffffffffffffffffffffffffffffff161415610dfc576040517f08c379a0000000000000000000000000000000000000000000000000000000008152600401610df39061249b565b60405180910390fd5b600073ffffffffffffffffffffffffffffffffffffffff168273ffffffffffffffffffffffffffffffffffffffff161415610e6c576040517f08c379a0000000000000000000000000000000000000000000000000000000008152600401610e63906123bb565b60405180910390fd5b80600160008573ffffffffffffffffffffffffffffffffffffffff1673ffffffffffffffffffffffffffffffffffffffff16815260200190815260200160002060008473ffffffffffffffffffffffffffffffffffffffff1673ffffffffffffffffffffffffffffffffffffffff168152602001908152602001600020819055508173ffffffffffffffffffffffffffffffffffffffff168373ffffffffffffffffffffffffffffffffffffffff167f8c5be1e5ebec7d5bd14f71427d1e84f3dd0314c0f7b2291e5b200ac8c7c3b92583604051610f4a919061251b565b60405180910390a3505050565b6000610f64848484611757565b6000600160008673ffffffffffffffffffffffffffffffffffffffff1673ffffffffffffffffffffffffffffffffffffffff1681526020019081526020016000206000610faf610d84565b73ffffffffffffffffffffffffffffffffffffffff1673ffffffffffffffffffffffffffffffffffffffff1681526020019081526020016000205490508281101561102f576040517f08c379a00000000000000000000000000000000000000000000000000000000081526004016110269061243b565b60405180910390fd5b6110438561103b610d84565b858403610d8c565b60019150509392505050565b61105982826109d7565b6110e85761107e8173ffffffffffffffffffffffffffffffffffffffff1660146119d8565b61108c8360001c60206119d8565b60405160200161109d92919061228e565b6040516020818303038152906040526040517f08c379a00000000000000000000000000000000000000000000000000000000081526004016110df9190612319565b60405180910390fd5b5050565b6110f682826109d7565b6111c95760016006600084815260200190815260200160002060000160008373ffffffffffffffffffffffffffffffffffffffff1673ffffffffffffffffffffffffffffffffffffffff16815260200190815260200160002060006101000a81548160ff02191690831515021790555061116e610d84565b73ffffffffffffffffffffffffffffffffffffffff168173ffffffffffffffffffffffffffffffffffffffff16837f2f8788117e7eff1d82e926ec794901d17c78024a50270940304540a733656f0d60405160405180910390a45b5050565b6111d782826109d7565b156112ab5760006006600084815260200190815260200160002060000160008373ffffffffffffffffffffffffffffffffffffffff1673ffffffffffffffffffffffffffffffffffffffff16815260200190815260200160002060006101000a81548160ff021916908315150217905550611250610d84565b73ffffffffffffffffffffffffffffffffffffffff168173ffffffffffffffffffffffffffffffffffffffff16837ff6391f5c32d9c69d2a47ea670b442974b53935d1edc7fd64eb21e047a839171b60405160405180910390a45b5050565b6112b7610958565b6112f6576040517f08c379a00000000000000000000000000000000000000000000000000000000081526004016112ed9061237b565b60405180910390fd5b6000600560006101000a81548160ff0219169083151502179055507f5db9ee0a495bf2e6ff9c91a7834c1ba4fdd244a5e8aa4e537bd38aeae4b073aa61133a610d84565b60405161134791906122c8565b60405180910390a1565b600073ffffffffffffffffffffffffffffffffffffffff168273ffffffffffffffffffffffffffffffffffffffff1614156113c1576040517f08c379a00000000000000000000000000000000000000000000000000000000081526004016113b8906124fb565b60405180910390fd5b6113cd60008383611c14565b80600260008282546113df9190612578565b92505081905550806000808473ffffffffffffffffffffffffffffffffffffffff1673ffffffffffffffffffffffffffffffffffffffff16815260200190815260200160002060008282546114349190612578565b925050819055508173ffffffffffffffffffffffffffffffffffffffff16600073ffffffffffffffffffffffffffffffffffffffff167fddf252ad1be2c89b69c2b068fc378daa952ba7f163c4a11628f55a4df523b3ef83604051611499919061251b565b60405180910390a36114ad60008383611c19565b5050565b6114b9610958565b156114f9576040517f08c379a00000000000000000000000000000000000000000000000000000000081526004016114f0906123fb565b60405180910390fd5b6001600560006101000a81548160ff0219169083151502179055507f62e78cea01bee320cd4e420270b5ea74000d11b0c9f74754ebdbfc544b05a25861153d610d84565b60405161154a91906122c8565b60405180910390a1565b61155e82826110ec565b5050565b600073ffffffffffffffffffffffffffffffffffffffff168273ffffffffffffffffffffffffffffffffffffffff1614156115d2576040517f08c379a00000000000000000000000000000000000000000000000000000000081526004016115c99061245b565b60405180910390fd5b6115de82600083611c14565b60008060008473ffffffffffffffffffffffffffffffffffffffff1673ffffffffffffffffffffffffffffffffffffffff16815260200190815260200160002054905081811015611664576040517f08c379a000000000000000000000000000000000000000000000000000000000815260040161165b9061239b565b60405180910390fd5b8181036000808573ffffffffffffffffffffffffffffffffffffffff1673ffffffffffffffffffffffffffffffffffffffff1681526020019081526020016000208190555081600260008282546116bb9190612628565b92505081905550600073ffffffffffffffffffffffffffffffffffffffff168373ffffffffffffffffffffffffffffffffffffffff167fddf252ad1be2c89b69c2b068fc378daa952ba7f163c4a11628f55a4df523b3ef84604051611720919061251b565b60405180910390a361173483600084611c19565b505050565b600061174d611746610d84565b8484611757565b6001905092915050565b600073ffffffffffffffffffffffffffffffffffffffff168373ffffffffffffffffffffffffffffffffffffffff1614156117c7576040517f08c379a00000000000000000000000000000000000000000000000000000000081526004016117be9061247b565b60405180910390fd5b600073ffffffffffffffffffffffffffffffffffffffff168273ffffffffffffffffffffffffffffffffffffffff161415611837576040517f08c379a000000000000000000000000000000000000000000000000000000000815260040161182e9061235b565b60405180910390fd5b611842838383611c14565b60008060008573ffffffffffffffffffffffffffffffffffffffff1673ffffffffffffffffffffffffffffffffffffffff168152602001908152602001600020549050818110156118c8576040517f08c379a00000000000000000000000000000000000000000000000000000000081526004016118bf906123db565b60405180910390fd5b8181036000808673ffffffffffffffffffffffffffffffffffffffff1673ffffffffffffffffffffffffffffffffffffffff16815260200190815260200160002081905550816000808573ffffffffffffffffffffffffffffffffffffffff1673ffffffffffffffffffffffffffffffffffffffff168152602001908152602001600020600082825461195b9190612578565b925050819055508273ffffffffffffffffffffffffffffffffffffffff168473ffffffffffffffffffffffffffffffffffffffff167fddf252ad1be2c89b69c2b068fc378daa952ba7f163c4a11628f55a4df523b3ef846040516119bf919061251b565b60405180910390a36119d2848484611c19565b50505050565b6060600060028360026119eb91906125ce565b6119f59190612578565b67ffffffffffffffff811115611a0e57611a0d612803565b5b6040519080825280601f01601f191660200182016040528015611a405781602001600182028036833780820191505090505b5090507f300000000000000000000000000000000000000000000000000000000000000081600081518110611a7857611a776127d4565b5b60200101907effffffffffffffffffffffffffffffffffffffffffffffffffffffffffffff1916908160001a9053507f780000000000000000000000000000000000000000000000000000000000000081600181518110611adc57611adb6127d4565b5b60200101907effffffffffffffffffffffffffffffffffffffffffffffffffffffffffffff1916908160001a90535060006001846002611b1c91906125ce565b611b269190612578565b90505b6001811115611bc6577f3031323334353637383961626364656600000000000000000000000000000000600f861660108110611b6857611b676127d4565b5b1a60f81b828281518110611b7f57611b7e6127d4565b5b60200101907effffffffffffffffffffffffffffffffffffffffffffffffffffffffffffff1916908160001a905350600485901c945080611bbf9061271a565b9050611b29565b5060008414611c0a576040517f08c379a0000000000000000000000000000000000000000000000000000000008152600401611c019061233b565b60405180910390fd5b8091505092915050565b505050565b505050565b828054611c2a90612744565b90600052602060002090601f016020900481019282611c4c5760008555611c93565b82601f10611c6557803560ff1916838001178555611c93565b82800160010185558215611c93579182015b82811115611c92578235825591602001919060010190611c77565b5b509050611ca09190611ca4565b5090565b5b80821115611cbd576000816000905550600101611ca5565b5090565b600081359050611cd081612cb7565b92915050565b600081359050611ce581612cce565b92915050565b600081359050611cfa81612ce5565b92915050565b60008083601f840112611d1657611d15612837565b5b8235905067ffffffffffffffff811115611d3357611d32612832565b5b602083019150836001820283011115611d4f57611d4e61283c565b5b9250929050565b600081359050611d6581612cfc565b92915050565b600060208284031215611d8157611d80612846565b5b6000611d8f84828501611cc1565b91505092915050565b60008060408385031215611daf57611dae612846565b5b6000611dbd85828601611cc1565b9250506020611dce85828601611cc1565b9150509250929050565b600080600060608486031215611df157611df0612846565b5b6000611dff86828701611cc1565b9350506020611e1086828701611cc1565b9250506040611e2186828701611d56565b9150509250925092565b60008060408385031215611e4257611e41612846565b5b6000611e5085828601611cc1565b9250506020611e6185828601611d56565b9150509250929050565b600060208284031215611e8157611e80612846565b5b6000611e8f84828501611cd6565b91505092915050565b60008060408385031215611eaf57611eae612846565b5b6000611ebd85828601611cd6565b9250506020611ece85828601611cc1565b9150509250929050565b600060208284031215611eee57611eed612846565b5b6000611efc84828501611ceb565b91505092915050565b60008060008060408587031215611f1f57611f1e612846565b5b600085013567ffffffffffffffff811115611f3d57611f3c612841565b5b611f4987828801611d00565b9450945050602085013567ffffffffffffffff811115611f6c57611f6b612841565b5b611f7887828801611d00565b925092505092959194509250565b611f8f8161265c565b82525050565b611f9e8161266e565b82525050565b611fad8161267a565b82525050565b6000611fbe82612551565b611fc8818561255c565b9350611fd88185602086016126e7565b611fe18161284b565b840191505092915050565b6000611ff782612551565b612001818561256d565b93506120118185602086016126e7565b80840191505092915050565b600061202a60208361255c565b91506120358261285c565b602082019050919050565b600061204d60238361255c565b915061205882612885565b604082019050919050565b600061207060148361255c565b915061207b826128d4565b602082019050919050565b600061209360228361255c565b915061209e826128fd565b604082019050919050565b60006120b660228361255c565b91506120c18261294c565b604082019050919050565b60006120d960268361255c565b91506120e48261299b565b604082019050919050565b60006120fc60108361255c565b9150612107826129ea565b602082019050919050565b600061211f602e8361255c565b915061212a82612a13565b604082019050919050565b600061214260288361255c565b915061214d82612a62565b604082019050919050565b600061216560218361255c565b915061217082612ab1565b604082019050919050565b600061218860258361255c565b915061219382612b00565b604082019050919050565b60006121ab60248361255c565b91506121b682612b4f565b604082019050919050565b60006121ce60178361256d565b91506121d982612b9e565b601782019050919050565b60006121f160258361255c565b91506121fc82612bc7565b604082019050919050565b600061221460118361256d565b915061221f82612c16565b601182019050919050565b6000612237602f8361255c565b915061224282612c3f565b604082019050919050565b600061225a601f8361255c565b915061226582612c8e565b602082019050919050565b612279816126d0565b82525050565b612288816126da565b82525050565b6000612299826121c1565b91506122a58285611fec565b91506122b082612207565b91506122bc8284611fec565b91508190509392505050565b60006020820190506122dd6000830184611f86565b92915050565b60006020820190506122f86000830184611f95565b92915050565b60006020820190506123136000830184611fa4565b92915050565b600060208201905081810360008301526123338184611fb3565b905092915050565b600060208201905081810360008301526123548161201d565b9050919050565b6000602082019050818103600083015261237481612040565b9050919050565b6000602082019050818103600083015261239481612063565b9050919050565b600060208201905081810360008301526123b481612086565b9050919050565b600060208201905081810360008301526123d4816120a9565b9050919050565b600060208201905081810360008301526123f4816120cc565b9050919050565b60006020820190508181036000830152612414816120ef565b9050919050565b6000602082019050818103600083015261243481612112565b9050919050565b6000602082019050818103600083015261245481612135565b9050919050565b6000602082019050818103600083015261247481612158565b9050919050565b600060208201905081810360008301526124948161217b565b9050919050565b600060208201905081810360008301526124b48161219e565b9050919050565b600060208201905081810360008301526124d4816121e4565b9050919050565b600060208201905081810360008301526124f48161222a565b9050919050565b600060208201905081810360008301526125148161224d565b9050919050565b60006020820190506125306000830184612270565b92915050565b600060208201905061254b600083018461227f565b92915050565b600081519050919050565b600082825260208201905092915050565b600081905092915050565b6000612583826126d0565b915061258e836126d0565b9250827fffffffffffffffffffffffffffffffffffffffffffffffffffffffffffffffff038211156125c3576125c2612776565b5b828201905092915050565b60006125d9826126d0565b91506125e4836126d0565b9250817fffffffffffffffffffffffffffffffffffffffffffffffffffffffffffffffff048311821515161561261d5761261c612776565b5b828202905092915050565b6000612633826126d0565b915061263e836126d0565b92508282101561265157612650612776565b5b828203905092915050565b6000612667826126b0565b9050919050565b60008115159050919050565b6000819050919050565b60007fffffffff0000000000000000000000000000000000000000000000000000000082169050919050565b600073ffffffffffffffffffffffffffffffffffffffff82169050919050565b6000819050919050565b600060ff82169050919050565b60005b838110156127055780820151818401526020810190506126ea565b83811115612714576000848401525b50505050565b6000612725826126d0565b9150600082141561273957612738612776565b5b600182039050919050565b6000600282049050600182168061275c57607f821691505b602082108114156127705761276f6127a5565b5b50919050565b7f4e487b7100000000000000000000000000000000000000000000000000000000600052601160045260246000fd5b7f4e487b7100000000000000000000000000000000000000000000000000000000600052602260045260246000fd5b7f4e487b7100000000000000000000000000000000000000000000000000000000600052603260045260246000fd5b7f4e487b7100000000000000000000000000000000000000000000000000000000600052604160045260246000fd5b600080fd5b600080fd5b600080fd5b600080fd5b600080fd5b6000601f19601f8301169050919050565b7f537472696e67733a20686578206c656e67746820696e73756666696369656e74600082015250565b7f45524332303a207472616e7366657220746f20746865207a65726f206164647260008201527f6573730000000000000000000000000000000000000000000000000000000000602082015250565b7f5061757361626c653a206e6f7420706175736564000000000000000000000000600082015250565b7f45524332303a206275726e20616d6f756e7420657863656564732062616c616e60008201527f6365000000000000000000000000000000000000000000000000000000000000602082015250565b7f45524332303a20617070726f766520746f20746865207a65726f20616464726560008201527f7373000000000000000000000000000000000000000000000000000000000000602082015250565b7f45524332303a207472616e7366657220616d6f756e742065786365656473206260008201527f616c616e63650000000000000000000000000000000000000000000000000000602082015250565b7f5061757361626c653a2070617573656400000000000000000000000000000000600082015250565b7f496e697469616c697a61626c653a20636f6e747261637420697320616c72656160008201527f647920696e697469616c697a6564000000000000000000000000000000000000602082015250565b7f45524332303a207472616e7366657220616d6f756e742065786365656473206160008201527f6c6c6f77616e6365000000000000000000000000000000000000000000000000602082015250565b7f45524332303a206275726e2066726f6d20746865207a65726f2061646472657360008201527f7300000000000000000000000000000000000000000000000000000000000000602082015250565b7f45524332303a207472616e736665722066726f6d20746865207a65726f20616460008201527f6472657373000000000000000000000000000000000000000000000000000000602082015250565b7f45524332303a20617070726f76652066726f6d20746865207a65726f2061646460008201527f7265737300000000000000000000000000000000000000000000000000000000602082015250565b7f416363657373436f6e74726f6c3a206163636f756e7420000000000000000000600082015250565b7f45524332303a2064656372656173656420616c6c6f77616e63652062656c6f7760008201527f207a65726f000000000000000000000000000000000000000000000000000000602082015250565b7f206973206d697373696e6720726f6c6520000000000000000000000000000000600082015250565b7f416363657373436f6e74726f6c3a2063616e206f6e6c792072656e6f756e636560008201527f20726f6c657320666f722073656c660000000000000000000000000000000000602082015250565b7f45524332303a206d696e7420746f20746865207a65726f206164647265737300600082015250565b612cc08161265c565b8114612ccb57600080fd5b50565b612cd78161267a565b8114612ce257600080fd5b50565b612cee81612684565b8114612cf957600080fd5b50565b612d05816126d0565b8114612d1057600080fd5b5056fea2646970667358221220569cc851bd3175db0f7b6a80e80cb60095c858c9f7342defb258c758c44e933164736f6c63430008060033507269766920636f7079726967687420546f6b656e20496d706c656d656e746174696f6e",
  "immutableReferences": {},
  "source": "// SPDX-License-Identifier: MIT\npragma solidity ^0.8.0;\n\nimport \"@openzeppelin/contracts/token/ERC20/ERC20.sol\";\nimport \"@openzeppelin/contracts/security/Pausable.sol\";\nimport \"@openzeppelin/contracts/access/AccessControl.sol\";\nimport \"@openzeppelin/contracts/proxy/utils/Initializable.sol\";\n\n/**\n * @title the implementation to clone on each pod creation\n * @author Eric Nordelo\n */\ncontract CopyrightToken is ERC20, Pausable, AccessControl, Initializable {\n    bytes32 public constant WITHDRAW_MANAGER_ROLE = keccak256(\"WITHDRAW_MANAGER_ROLE\");\n    uint256 private constant PRICE_PRECISION = 10000;\n\n    string private _proxiedName;\n    string private _proxiedSymbol;\n\n    // solhint-disable-next-line\n    constructor() ERC20(\"Privi copyright Token Implementation\", \"pCOPR\") {}\n\n    /**\n     * @notice ensures that the pod token contract begins paused and with the default admin\n     */\n    function initialize(string calldata _name, string calldata _symbol) external initializer {\n        _proxiedName = _name;\n        _proxiedSymbol = _symbol;\n\n        _pause();\n        _setupRole(DEFAULT_ADMIN_ROLE, msg.sender);\n    }\n\n    function pause() public onlyRole(DEFAULT_ADMIN_ROLE) {\n        _pause();\n    }\n\n    function unpause() public onlyRole(DEFAULT_ADMIN_ROLE) {\n        _unpause();\n    }\n\n    function mint(address to, uint256 amount) public onlyRole(DEFAULT_ADMIN_ROLE) {\n        _mint(to, amount);\n    }\n\n    function burn(address to, uint256 amount) public onlyRole(DEFAULT_ADMIN_ROLE) {\n        _burn(to, amount);\n    }\n\n    /**\n     * @dev ensures that only minting is allowed when paused\n     */\n    function transfer(address recipient, uint256 amount) public override whenNotPaused returns (bool) {\n        return super.transfer(recipient, amount);\n    }\n\n    /**\n     * @dev ensures that only minting is allowed when paused\n     */\n    function transferFrom(\n        address sender,\n        address recipient,\n        uint256 amount\n    ) public override whenNotPaused returns (bool) {\n        return super.transferFrom(sender, recipient, amount);\n    }\n\n    function name() public view virtual override returns (string memory) {\n        return _proxiedName;\n    }\n\n    function symbol() public view virtual override returns (string memory) {\n        return _proxiedSymbol;\n    }\n}\n",
  "sourcePath": "/Users/angelsatorresalmenara/Desktop/privi-pod/contracts/implementations/CopyrightToken.sol",
  "compiler": {
    "name": "solc",
    "version": "0.8.6+commit.11564f7e.Emscripten.clang"
  },
  "schemaVersion": "3.4.3",
  "updatedAt": "2021-09-15T13:47:31.855Z",
  "devdoc": {
    "author": "Eric Nordelo",
    "kind": "dev",
    "methods": {
      "allowance(address,address)": {
        "details": "See {IERC20-allowance}."
      },
      "approve(address,uint256)": {
        "details": "See {IERC20-approve}. Requirements: - `spender` cannot be the zero address."
      },
      "balanceOf(address)": {
        "details": "See {IERC20-balanceOf}."
      },
      "decimals()": {
        "details": "Returns the number of decimals used to get its user representation. For example, if `decimals` equals `2`, a balance of `505` tokens should be displayed to a user as `5.05` (`505 / 10 ** 2`). Tokens usually opt for a value of 18, imitating the relationship between Ether and Wei. This is the value {ERC20} uses, unless this function is overridden; NOTE: This information is only used for _display_ purposes: it in no way affects any of the arithmetic of the contract, including {IERC20-balanceOf} and {IERC20-transfer}."
      },
      "decreaseAllowance(address,uint256)": {
        "details": "Atomically decreases the allowance granted to `spender` by the caller. This is an alternative to {approve} that can be used as a mitigation for problems described in {IERC20-approve}. Emits an {Approval} event indicating the updated allowance. Requirements: - `spender` cannot be the zero address. - `spender` must have allowance for the caller of at least `subtractedValue`."
      },
      "getRoleAdmin(bytes32)": {
        "details": "Returns the admin role that controls `role`. See {grantRole} and {revokeRole}. To change a role's admin, use {_setRoleAdmin}."
      },
      "grantRole(bytes32,address)": {
        "details": "Grants `role` to `account`. If `account` had not been already granted `role`, emits a {RoleGranted} event. Requirements: - the caller must have ``role``'s admin role."
      },
      "hasRole(bytes32,address)": {
        "details": "Returns `true` if `account` has been granted `role`."
      },
      "increaseAllowance(address,uint256)": {
        "details": "Atomically increases the allowance granted to `spender` by the caller. This is an alternative to {approve} that can be used as a mitigation for problems described in {IERC20-approve}. Emits an {Approval} event indicating the updated allowance. Requirements: - `spender` cannot be the zero address."
      },
      "name()": {
        "details": "Returns the name of the token."
      },
      "paused()": {
        "details": "Returns true if the contract is paused, and false otherwise."
      },
      "renounceRole(bytes32,address)": {
        "details": "Revokes `role` from the calling account. Roles are often managed via {grantRole} and {revokeRole}: this function's purpose is to provide a mechanism for accounts to lose their privileges if they are compromised (such as when a trusted device is misplaced). If the calling account had been granted `role`, emits a {RoleRevoked} event. Requirements: - the caller must be `account`."
      },
      "revokeRole(bytes32,address)": {
        "details": "Revokes `role` from `account`. If `account` had been granted `role`, emits a {RoleRevoked} event. Requirements: - the caller must have ``role``'s admin role."
      },
      "supportsInterface(bytes4)": {
        "details": "See {IERC165-supportsInterface}."
      },
      "symbol()": {
        "details": "Returns the symbol of the token, usually a shorter version of the name."
      },
      "totalSupply()": {
        "details": "See {IERC20-totalSupply}."
      },
      "transfer(address,uint256)": {
        "details": "ensures that only minting is allowed when paused"
      },
      "transferFrom(address,address,uint256)": {
        "details": "ensures that only minting is allowed when paused"
      }
    },
    "title": "the implementation to clone on each pod creation",
    "version": 1
  },
  "userdoc": {
    "kind": "user",
    "methods": {
      "initialize(string,string)": {
        "notice": "ensures that the pod token contract begins paused and with the default admin"
      }
    },
    "version": 1
  }
}