{
  "contractName": "CreationManager",
  "abi": [
    {
      "inputs": [
        {
          "internalType": "address",
          "name": "_podTokenImplementationAddress",
          "type": "address"
        },
        {
          "internalType": "address",
          "name": "_copyrightTokenImplementationAddress",
          "type": "address"
        },
        {
          "internalType": "address",
          "name": "_erc721WithRoyaltyAddress",
          "type": "address"
        },
        {
          "internalType": "address",
          "name": "_podWithdrawManagerAddress",
          "type": "address"
        }
      ],
      "stateMutability": "nonpayable",
      "type": "constructor"
    },
    {
      "inputs": [],
      "name": "WITHDRAW_MANAGER_ROLE",
      "outputs": [
        {
          "internalType": "bytes32",
          "name": "",
          "type": "bytes32"
        }
      ],
      "stateMutability": "view",
      "type": "function"
    },
    {
      "inputs": [
        {
          "internalType": "string",
          "name": "name",
          "type": "string"
        },
        {
          "internalType": "string",
          "name": "symbol",
          "type": "string"
        }
      ],
      "name": "createPodToken",
      "outputs": [
        {
          "internalType": "address",
          "name": "",
          "type": "address"
        }
      ],
      "stateMutability": "nonpayable",
      "type": "function"
    },
    {
      "inputs": [
        {
          "internalType": "string",
          "name": "name",
          "type": "string"
        },
        {
          "internalType": "string",
          "name": "symbol",
          "type": "string"
        },
        {
          "internalType": "address[]",
          "name": "owners",
          "type": "address[]"
        },
        {
          "internalType": "uint256[]",
          "name": "copyrightAllocation",
          "type": "uint256[]"
        },
        {
          "internalType": "uint256",
          "name": "copyrightTokenSupply",
          "type": "uint256"
        }
      ],
      "name": "createCopyrightToken",
      "outputs": [
        {
          "internalType": "address",
          "name": "",
          "type": "address"
        }
      ],
      "stateMutability": "nonpayable",
      "type": "function"
    },
    {
      "inputs": [
        {
          "internalType": "string",
          "name": "name",
          "type": "string"
        },
        {
          "internalType": "string",
          "name": "symbol",
          "type": "string"
        },
        {
          "internalType": "address",
          "name": "podAddress",
          "type": "address"
        },
        {
          "internalType": "uint256",
          "name": "royaltyPercentage",
          "type": "uint256"
        }
      ],
      "name": "createErc721WithRoyalty",
      "outputs": [
        {
          "internalType": "address",
          "name": "",
          "type": "address"
        }
      ],
      "stateMutability": "nonpayable",
      "type": "function"
    }
  ],
  "bytecode": "0x6101006040523480156200001257600080fd5b506040516200112b3803806200112b833981810160405281019062000038919062000135565b8373ffffffffffffffffffffffffffffffffffffffff1660a08173ffffffffffffffffffffffffffffffffffffffff1660601b815250508273ffffffffffffffffffffffffffffffffffffffff1660c08173ffffffffffffffffffffffffffffffffffffffff1660601b815250508173ffffffffffffffffffffffffffffffffffffffff1660e08173ffffffffffffffffffffffffffffffffffffffff1660601b815250508073ffffffffffffffffffffffffffffffffffffffff1660808173ffffffffffffffffffffffffffffffffffffffff1660601b8152505050505050620001fa565b6000815190506200012f81620001e0565b92915050565b60008060008060808587031215620001525762000151620001db565b5b600062000162878288016200011e565b945050602062000175878288016200011e565b935050604062000188878288016200011e565b92505060606200019b878288016200011e565b91505092959194509250565b6000620001b482620001bb565b9050919050565b600073ffffffffffffffffffffffffffffffffffffffff82169050919050565b600080fd5b620001eb81620001a7565b8114620001f757600080fd5b50565b60805160601c60a05160601c60c05160601c60e05160601c610ee46200024760003960006103f701526000610107015260006104cc0152600081816101dd01526105a20152610ee46000f3fe608060405234801561001057600080fd5b506004361061004c5760003560e01c8063258d79e91461005157806353fe2d9114610081578063e1b08619146100b1578063fd4eb0d7146100cf575b600080fd5b61006b60048036038101906100669190610972565b6100ff565b6040516100789190610aeb565b60405180910390f35b61009b600480360381019061009691906108cb565b6103ef565b6040516100a89190610aeb565b60405180910390f35b6100b96104a0565b6040516100c69190610b2f565b60405180910390f35b6100e960048036038101906100e4919061084a565b6104c4565b6040516100f69190610aeb565b60405180910390f35b60008061012b7f000000000000000000000000000000000000000000000000000000000000000061061c565b90508073ffffffffffffffffffffffffffffffffffffffff16634cd88b768c8c8c8c6040518563ffffffff1660e01b815260040161016c9493929190610b73565b600060405180830381600087803b15801561018657600080fd5b505af115801561019a573d6000803e3d6000fd5b505050508073ffffffffffffffffffffffffffffffffffffffff16632f2ff15d7fbe4b8ff2378fafab5b779323935cef89cecb6bffd2e15c86526a218902195a357f00000000000000000000000000000000000000000000000000000000000000006040518363ffffffff1660e01b8152600401610219929190610b4a565b600060405180830381600087803b15801561023357600080fd5b505af1158015610247573d6000803e3d6000fd5b5050505060005b87879050811015610331578173ffffffffffffffffffffffffffffffffffffffff166340c10f1989898481811061028857610287610dfe565b5b905060200201602081019061029d919061081d565b6064878a8a878181106102b3576102b2610dfe565b5b905060200201356102c49190610cbd565b6102ce9190610c8c565b6040518363ffffffff1660e01b81526004016102eb929190610b06565b600060405180830381600087803b15801561030557600080fd5b505af1158015610319573d6000803e3d6000fd5b5050505060018161032a9190610c36565b905061024e565b508073ffffffffffffffffffffffffffffffffffffffff166340c10f1933606486898960018c8c90506103649190610d17565b81811061037457610373610dfe565b5b905060200201356103859190610cbd565b61038f9190610c8c565b6040518363ffffffff1660e01b81526004016103ac929190610b06565b600060405180830381600087803b1580156103c657600080fd5b505af11580156103da573d6000803e3d6000fd5b50505050809150509998505050505050505050565b60008061041b7f000000000000000000000000000000000000000000000000000000000000000061061c565b90508073ffffffffffffffffffffffffffffffffffffffff1663f542033f8989898989896040518763ffffffff1660e01b815260040161046096959493929190610bae565b600060405180830381600087803b15801561047a57600080fd5b505af115801561048e573d6000803e3d6000fd5b50505050809150509695505050505050565b7fbe4b8ff2378fafab5b779323935cef89cecb6bffd2e15c86526a218902195a3581565b6000806104f07f000000000000000000000000000000000000000000000000000000000000000061061c565b90508073ffffffffffffffffffffffffffffffffffffffff16634cd88b76878787876040518563ffffffff1660e01b81526004016105319493929190610b73565b600060405180830381600087803b15801561054b57600080fd5b505af115801561055f573d6000803e3d6000fd5b505050508073ffffffffffffffffffffffffffffffffffffffff16632f2ff15d7fbe4b8ff2378fafab5b779323935cef89cecb6bffd2e15c86526a218902195a357f00000000000000000000000000000000000000000000000000000000000000006040518363ffffffff1660e01b81526004016105de929190610b4a565b600060405180830381600087803b1580156105f857600080fd5b505af115801561060c573d6000803e3d6000fd5b5050505080915050949350505050565b60006040517f3d602d80600a3d3981f3363d3d373d3d3d363d7300000000000000000000000081528260601b60148201527f5af43d82803e903d91602b57fd5bf3000000000000000000000000000000000060288201526037816000f0915050600073ffffffffffffffffffffffffffffffffffffffff168173ffffffffffffffffffffffffffffffffffffffff1614156106ec576040517f08c379a00000000000000000000000000000000000000000000000000000000081526004016106e390610c05565b60405180910390fd5b919050565b60008135905061070081610e80565b92915050565b60008083601f84011261071c5761071b610e32565b5b8235905067ffffffffffffffff81111561073957610738610e2d565b5b60208301915083602082028301111561075557610754610e37565b5b9250929050565b60008083601f84011261077257610771610e32565b5b8235905067ffffffffffffffff81111561078f5761078e610e2d565b5b6020830191508360208202830111156107ab576107aa610e37565b5b9250929050565b60008083601f8401126107c8576107c7610e32565b5b8235905067ffffffffffffffff8111156107e5576107e4610e2d565b5b60208301915083600182028301111561080157610800610e37565b5b9250929050565b60008135905061081781610e97565b92915050565b60006020828403121561083357610832610e41565b5b6000610841848285016106f1565b91505092915050565b6000806000806040858703121561086457610863610e41565b5b600085013567ffffffffffffffff81111561088257610881610e3c565b5b61088e878288016107b2565b9450945050602085013567ffffffffffffffff8111156108b1576108b0610e3c565b5b6108bd878288016107b2565b925092505092959194509250565b600080600080600080608087890312156108e8576108e7610e41565b5b600087013567ffffffffffffffff81111561090657610905610e3c565b5b61091289828a016107b2565b9650965050602087013567ffffffffffffffff81111561093557610934610e3c565b5b61094189828a016107b2565b9450945050604061095489828a016106f1565b925050606061096589828a01610808565b9150509295509295509295565b600080600080600080600080600060a08a8c03121561099457610993610e41565b5b60008a013567ffffffffffffffff8111156109b2576109b1610e3c565b5b6109be8c828d016107b2565b995099505060208a013567ffffffffffffffff8111156109e1576109e0610e3c565b5b6109ed8c828d016107b2565b975097505060408a013567ffffffffffffffff811115610a1057610a0f610e3c565b5b610a1c8c828d01610706565b955095505060608a013567ffffffffffffffff811115610a3f57610a3e610e3c565b5b610a4b8c828d0161075c565b93509350506080610a5e8c828d01610808565b9150509295985092959850929598565b610a7781610d4b565b82525050565b610a8681610d5d565b82525050565b6000610a988385610c25565b9350610aa5838584610d91565b610aae83610e46565b840190509392505050565b6000610ac6601683610c25565b9150610ad182610e57565b602082019050919050565b610ae581610d87565b82525050565b6000602082019050610b006000830184610a6e565b92915050565b6000604082019050610b1b6000830185610a6e565b610b286020830184610adc565b9392505050565b6000602082019050610b446000830184610a7d565b92915050565b6000604082019050610b5f6000830185610a7d565b610b6c6020830184610a6e565b9392505050565b60006040820190508181036000830152610b8e818688610a8c565b90508181036020830152610ba3818486610a8c565b905095945050505050565b60006080820190508181036000830152610bc981888a610a8c565b90508181036020830152610bde818688610a8c565b9050610bed6040830185610a6e565b610bfa6060830184610adc565b979650505050505050565b60006020820190508181036000830152610c1e81610ab9565b9050919050565b600082825260208201905092915050565b6000610c4182610d87565b9150610c4c83610d87565b9250827fffffffffffffffffffffffffffffffffffffffffffffffffffffffffffffffff03821115610c8157610c80610da0565b5b828201905092915050565b6000610c9782610d87565b9150610ca283610d87565b925082610cb257610cb1610dcf565b5b828204905092915050565b6000610cc882610d87565b9150610cd383610d87565b9250817fffffffffffffffffffffffffffffffffffffffffffffffffffffffffffffffff0483118215151615610d0c57610d0b610da0565b5b828202905092915050565b6000610d2282610d87565b9150610d2d83610d87565b925082821015610d4057610d3f610da0565b5b828203905092915050565b6000610d5682610d67565b9050919050565b6000819050919050565b600073ffffffffffffffffffffffffffffffffffffffff82169050919050565b6000819050919050565b82818337600083830152505050565b7f4e487b7100000000000000000000000000000000000000000000000000000000600052601160045260246000fd5b7f4e487b7100000000000000000000000000000000000000000000000000000000600052601260045260246000fd5b7f4e487b7100000000000000000000000000000000000000000000000000000000600052603260045260246000fd5b600080fd5b600080fd5b600080fd5b600080fd5b600080fd5b6000601f19601f8301169050919050565b7f455243313136373a20637265617465206661696c656400000000000000000000600082015250565b610e8981610d4b565b8114610e9457600080fd5b50565b610ea081610d87565b8114610eab57600080fd5b5056fea264697066735822122016d0714459de5095f0e4064c0cbd6dc7b811b0ca8430ba1a24ddf619edf25a0964736f6c63430008060033",
  "immutableReferences": {
    "2930": [
      {
        "length": 32,
        "start": 477
      },
      {
        "length": 32,
        "start": 1442
      }
    ],
    "2932": [
      {
        "length": 32,
        "start": 1228
      }
    ],
    "2934": [
      {
        "length": 32,
        "start": 263
      }
    ],
    "2936": [
      {
        "length": 32,
        "start": 1015
      }
    ]
  },
  "source": "// SPDX-License-Identifier: MIT\npragma solidity ^0.8.0;\n\nimport \"@openzeppelin/contracts/proxy/Clones.sol\";\nimport \"./implementations/PodToken.sol\";\nimport \"./implementations/CopyrightToken.sol\";\nimport \"./implementations/ERC721WithRoyalty.sol\";\n\ncontract CreationManager {\n    bytes32 public constant WITHDRAW_MANAGER_ROLE = keccak256(\"WITHDRAW_MANAGER_ROLE\");\n    address private immutable podWithdrawManagerAddress;\n\n    address private immutable podTokenImplementationAddress;\n    address private immutable copyrightTokenImplementationAddress;\n    address private immutable erc721WithRoyaltyAddress;\n\n    /**\n     * @notice assign the default roles\n     * @param _podTokenImplementationAddress the implementation of the token to clone\n     */\n    constructor(\n        address _podTokenImplementationAddress,\n        address _copyrightTokenImplementationAddress,\n        address _erc721WithRoyaltyAddress,\n        address _podWithdrawManagerAddress\n    ) {\n        podTokenImplementationAddress = _podTokenImplementationAddress;\n        copyrightTokenImplementationAddress = _copyrightTokenImplementationAddress;\n        erc721WithRoyaltyAddress = _erc721WithRoyaltyAddress;\n        podWithdrawManagerAddress = _podWithdrawManagerAddress;\n    }\n\n    function createPodToken(string calldata name, string calldata symbol) external returns (address) {\n        address podAddress = Clones.clone(podTokenImplementationAddress);\n        PodToken(podAddress).initialize(name, symbol);\n        PodToken(podAddress).grantRole(WITHDRAW_MANAGER_ROLE, podWithdrawManagerAddress);\n        return (podAddress);\n    }\n\n    function createCopyrightToken(\n        string calldata name,\n        string calldata symbol,\n        address[] calldata owners,\n        uint256[] calldata copyrightAllocation,\n        uint256 copyrightTokenSupply\n    ) external returns (address) {\n        address copyrightToken = Clones.clone(copyrightTokenImplementationAddress);\n        CopyrightToken(copyrightToken).initialize(name, symbol);\n        CopyrightToken(copyrightToken).grantRole(WITHDRAW_MANAGER_ROLE, podWithdrawManagerAddress);\n        for (uint256 i = 0; i < owners.length; i += 1) {\n            CopyrightToken(copyrightToken).mint(\n                owners[i],\n                (copyrightAllocation[i] * copyrightTokenSupply) / 100\n            );\n        }\n        CopyrightToken(copyrightToken).mint(\n            msg.sender,\n            (copyrightAllocation[copyrightAllocation.length - 1] * copyrightTokenSupply) / 100\n        );\n        return (copyrightToken);\n    }\n\n    function createErc721WithRoyalty(\n        string calldata name,\n        string calldata symbol,\n        address podAddress,\n        uint256 royaltyPercentage\n    ) external returns (address) {\n        address erc721WithRoyalty = Clones.clone(erc721WithRoyaltyAddress);\n        ERC721WithRoyalty(erc721WithRoyalty).initialize(name, symbol, podAddress, royaltyPercentage);\n        return (erc721WithRoyalty);\n    }\n}\n",
  "sourcePath": "/Users/angelsatorresalmenara/Desktop/privi-pod/contracts/CreationManager.sol",
  "compiler": {
    "name": "solc",
    "version": "0.8.6+commit.11564f7e.Emscripten.clang"
  },
  "schemaVersion": "3.4.3",
  "updatedAt": "2021-09-15T13:47:31.603Z",
  "devdoc": {
    "kind": "dev",
    "methods": {
      "constructor": {
        "params": {
          "_podTokenImplementationAddress": "the implementation of the token to clone"
        }
      }
    },
    "version": 1
  },
  "userdoc": {
    "kind": "user",
    "methods": {
      "constructor": {
        "notice": "assign the default roles"
      }
    },
    "version": 1
  }
}