{
  "address": "0x99e24cb06C30537Ea658b4550a13C8113BA1CF1D",
  "abi": [
    {
      "inputs": [],
      "stateMutability": "nonpayable",
      "type": "constructor"
    },
    {
      "anonymous": false,
      "inputs": [
        {
          "indexed": true,
          "internalType": "address",
          "name": "owner",
          "type": "address"
        },
        {
          "indexed": true,
          "internalType": "address",
          "name": "spender",
          "type": "address"
        },
        {
          "indexed": false,
          "internalType": "uint256",
          "name": "value",
          "type": "uint256"
        }
      ],
      "name": "Approval",
      "type": "event"
    },
    {
      "anonymous": false,
      "inputs": [
        {
          "indexed": false,
          "internalType": "address",
          "name": "borrower",
          "type": "address"
        },
        {
          "indexed": false,
          "internalType": "uint256",
          "name": "borrowAmount",
          "type": "uint256"
        }
      ],
      "name": "Borrow",
      "type": "event"
    },
    {
      "anonymous": false,
      "inputs": [
        {
          "indexed": false,
          "internalType": "address",
          "name": "liquidator",
          "type": "address"
        },
        {
          "indexed": false,
          "internalType": "address",
          "name": "borrower",
          "type": "address"
        },
        {
          "indexed": false,
          "internalType": "uint256",
          "name": "amountToRepay",
          "type": "uint256"
        },
        {
          "indexed": false,
          "internalType": "uint256",
          "name": "tokensToSeize",
          "type": "uint256"
        }
      ],
      "name": "Liquidate",
      "type": "event"
    },
    {
      "anonymous": false,
      "inputs": [
        {
          "indexed": false,
          "internalType": "address",
          "name": "minter",
          "type": "address"
        },
        {
          "indexed": false,
          "internalType": "uint256",
          "name": "amountUnderlying",
          "type": "uint256"
        },
        {
          "indexed": false,
          "internalType": "uint256",
          "name": "tokensMinted",
          "type": "uint256"
        }
      ],
      "name": "Mint",
      "type": "event"
    },
    {
      "anonymous": false,
      "inputs": [
        {
          "indexed": false,
          "internalType": "address",
          "name": "redeemer",
          "type": "address"
        },
        {
          "indexed": false,
          "internalType": "uint256",
          "name": "amountUnderlying",
          "type": "uint256"
        },
        {
          "indexed": false,
          "internalType": "uint256",
          "name": "tokensRedeemed",
          "type": "uint256"
        }
      ],
      "name": "Redeem",
      "type": "event"
    },
    {
      "anonymous": false,
      "inputs": [
        {
          "indexed": false,
          "internalType": "address",
          "name": "borrower",
          "type": "address"
        },
        {
          "indexed": false,
          "internalType": "address",
          "name": "payer",
          "type": "address"
        },
        {
          "indexed": false,
          "internalType": "uint256",
          "name": "repayAmount",
          "type": "uint256"
        }
      ],
      "name": "Repay",
      "type": "event"
    },
    {
      "anonymous": false,
      "inputs": [
        {
          "indexed": true,
          "internalType": "address",
          "name": "from",
          "type": "address"
        },
        {
          "indexed": true,
          "internalType": "address",
          "name": "to",
          "type": "address"
        },
        {
          "indexed": false,
          "internalType": "uint256",
          "name": "value",
          "type": "uint256"
        }
      ],
      "name": "Transfer",
      "type": "event"
    },
    {
      "inputs": [],
      "name": "accrueInterest",
      "outputs": [],
      "stateMutability": "nonpayable",
      "type": "function"
    },
    {
      "inputs": [
        {
          "internalType": "address",
          "name": "owner",
          "type": "address"
        },
        {
          "internalType": "address",
          "name": "spender",
          "type": "address"
        }
      ],
      "name": "allowance",
      "outputs": [
        {
          "internalType": "uint256",
          "name": "",
          "type": "uint256"
        }
      ],
      "stateMutability": "view",
      "type": "function"
    },
    {
      "inputs": [
        {
          "internalType": "address",
          "name": "spender",
          "type": "address"
        },
        {
          "internalType": "uint256",
          "name": "amount",
          "type": "uint256"
        }
      ],
      "name": "approve",
      "outputs": [
        {
          "internalType": "bool",
          "name": "",
          "type": "bool"
        }
      ],
      "stateMutability": "nonpayable",
      "type": "function"
    },
    {
      "inputs": [
        {
          "internalType": "address",
          "name": "account",
          "type": "address"
        }
      ],
      "name": "balanceOf",
      "outputs": [
        {
          "internalType": "uint256",
          "name": "",
          "type": "uint256"
        }
      ],
      "stateMutability": "view",
      "type": "function"
    },
    {
      "inputs": [
        {
          "internalType": "uint256",
          "name": "borrowAmount",
          "type": "uint256"
        }
      ],
      "name": "borrow",
      "outputs": [],
      "stateMutability": "nonpayable",
      "type": "function"
    },
    {
      "inputs": [],
      "name": "borrowIndex",
      "outputs": [
        {
          "internalType": "uint256",
          "name": "",
          "type": "uint256"
        }
      ],
      "stateMutability": "view",
      "type": "function"
    },
    {
      "inputs": [],
      "name": "decimals",
      "outputs": [
        {
          "internalType": "uint8",
          "name": "",
          "type": "uint8"
        }
      ],
      "stateMutability": "view",
      "type": "function"
    },
    {
      "inputs": [
        {
          "internalType": "address",
          "name": "spender",
          "type": "address"
        },
        {
          "internalType": "uint256",
          "name": "subtractedValue",
          "type": "uint256"
        }
      ],
      "name": "decreaseAllowance",
      "outputs": [
        {
          "internalType": "bool",
          "name": "",
          "type": "bool"
        }
      ],
      "stateMutability": "nonpayable",
      "type": "function"
    },
    {
      "inputs": [
        {
          "internalType": "address",
          "name": "account",
          "type": "address"
        }
      ],
      "name": "getAccount",
      "outputs": [
        {
          "internalType": "uint256",
          "name": "balance",
          "type": "uint256"
        },
        {
          "internalType": "uint256",
          "name": "borrows",
          "type": "uint256"
        },
        {
          "internalType": "uint256",
          "name": "exchangeRate",
          "type": "uint256"
        }
      ],
      "stateMutability": "view",
      "type": "function"
    },
    {
      "inputs": [
        {
          "internalType": "address",
          "name": "borrower",
          "type": "address"
        }
      ],
      "name": "getBorrowBalance",
      "outputs": [
        {
          "internalType": "uint256",
          "name": "",
          "type": "uint256"
        }
      ],
      "stateMutability": "view",
      "type": "function"
    },
    {
      "inputs": [],
      "name": "getCash",
      "outputs": [
        {
          "internalType": "uint256",
          "name": "",
          "type": "uint256"
        }
      ],
      "stateMutability": "view",
      "type": "function"
    },
    {
      "inputs": [],
      "name": "getExchangeRate",
      "outputs": [
        {
          "internalType": "uint256",
          "name": "",
          "type": "uint256"
        }
      ],
      "stateMutability": "view",
      "type": "function"
    },
    {
      "inputs": [
        {
          "internalType": "address",
          "name": "spender",
          "type": "address"
        },
        {
          "internalType": "uint256",
          "name": "addedValue",
          "type": "uint256"
        }
      ],
      "name": "increaseAllowance",
      "outputs": [
        {
          "internalType": "bool",
          "name": "",
          "type": "bool"
        }
      ],
      "stateMutability": "nonpayable",
      "type": "function"
    },
    {
      "inputs": [
        {
          "internalType": "address",
          "name": "underlying_",
          "type": "address"
        },
        {
          "internalType": "address",
          "name": "interestModel",
          "type": "address"
        },
        {
          "internalType": "address",
          "name": "markets",
          "type": "address"
        },
        {
          "internalType": "string",
          "name": "name_",
          "type": "string"
        },
        {
          "internalType": "string",
          "name": "symbol_",
          "type": "string"
        },
        {
          "internalType": "uint8",
          "name": "decimals_",
          "type": "uint8"
        },
        {
          "internalType": "uint256",
          "name": "initialExchangeRate",
          "type": "uint256"
        },
        {
          "internalType": "uint256",
          "name": "initialReserveFactor",
          "type": "uint256"
        }
      ],
      "name": "initialize",
      "outputs": [],
      "stateMutability": "nonpayable",
      "type": "function"
    },
    {
      "inputs": [],
      "name": "lastInterestBlock",
      "outputs": [
        {
          "internalType": "uint256",
          "name": "",
          "type": "uint256"
        }
      ],
      "stateMutability": "view",
      "type": "function"
    },
    {
      "inputs": [],
      "name": "lastInterestTimestamp",
      "outputs": [
        {
          "internalType": "uint256",
          "name": "",
          "type": "uint256"
        }
      ],
      "stateMutability": "view",
      "type": "function"
    },
    {
      "inputs": [
        {
          "internalType": "address",
          "name": "borrower",
          "type": "address"
        },
        {
          "internalType": "contract CToken",
          "name": "collateral",
          "type": "address"
        },
        {
          "internalType": "uint256",
          "name": "amountToRepay",
          "type": "uint256"
        }
      ],
      "name": "liquidate",
      "outputs": [],
      "stateMutability": "nonpayable",
      "type": "function"
    },
    {
      "inputs": [
        {
          "internalType": "uint256",
          "name": "amount",
          "type": "uint256"
        }
      ],
      "name": "mint",
      "outputs": [],
      "stateMutability": "nonpayable",
      "type": "function"
    },
    {
      "inputs": [],
      "name": "name",
      "outputs": [
        {
          "internalType": "string",
          "name": "",
          "type": "string"
        }
      ],
      "stateMutability": "view",
      "type": "function"
    },
    {
      "inputs": [
        {
          "internalType": "uint256",
          "name": "amountToken",
          "type": "uint256"
        }
      ],
      "name": "redeem",
      "outputs": [],
      "stateMutability": "nonpayable",
      "type": "function"
    },
    {
      "inputs": [
        {
          "internalType": "uint256",
          "name": "amountUnderlying",
          "type": "uint256"
        }
      ],
      "name": "redeemUnderlying",
      "outputs": [],
      "stateMutability": "nonpayable",
      "type": "function"
    },
    {
      "inputs": [
        {
          "internalType": "uint256",
          "name": "amount",
          "type": "uint256"
        }
      ],
      "name": "repay",
      "outputs": [],
      "stateMutability": "nonpayable",
      "type": "function"
    },
    {
      "inputs": [],
      "name": "reserveFactor",
      "outputs": [
        {
          "internalType": "uint256",
          "name": "",
          "type": "uint256"
        }
      ],
      "stateMutability": "view",
      "type": "function"
    },
    {
      "inputs": [
        {
          "internalType": "address",
          "name": "liquidator",
          "type": "address"
        },
        {
          "internalType": "address",
          "name": "borrower",
          "type": "address"
        },
        {
          "internalType": "uint256",
          "name": "amount",
          "type": "uint256"
        }
      ],
      "name": "seizeTokens",
      "outputs": [],
      "stateMutability": "nonpayable",
      "type": "function"
    },
    {
      "inputs": [
        {
          "internalType": "address",
          "name": "newInterestModel",
          "type": "address"
        }
      ],
      "name": "setInterestModel",
      "outputs": [],
      "stateMutability": "nonpayable",
      "type": "function"
    },
    {
      "inputs": [
        {
          "internalType": "uint256",
          "name": "newReserveFactor",
          "type": "uint256"
        }
      ],
      "name": "setReserveFactor",
      "outputs": [],
      "stateMutability": "nonpayable",
      "type": "function"
    },
    {
      "inputs": [],
      "name": "symbol",
      "outputs": [
        {
          "internalType": "string",
          "name": "",
          "type": "string"
        }
      ],
      "stateMutability": "view",
      "type": "function"
    },
    {
      "inputs": [],
      "name": "totalBorrows",
      "outputs": [
        {
          "internalType": "uint256",
          "name": "",
          "type": "uint256"
        }
      ],
      "stateMutability": "view",
      "type": "function"
    },
    {
      "inputs": [],
      "name": "totalReserves",
      "outputs": [
        {
          "internalType": "uint256",
          "name": "",
          "type": "uint256"
        }
      ],
      "stateMutability": "view",
      "type": "function"
    },
    {
      "inputs": [],
      "name": "totalSupply",
      "outputs": [
        {
          "internalType": "uint256",
          "name": "",
          "type": "uint256"
        }
      ],
      "stateMutability": "view",
      "type": "function"
    },
    {
      "inputs": [
        {
          "internalType": "address",
          "name": "recipient",
          "type": "address"
        },
        {
          "internalType": "uint256",
          "name": "amount",
          "type": "uint256"
        }
      ],
      "name": "transfer",
      "outputs": [
        {
          "internalType": "bool",
          "name": "",
          "type": "bool"
        }
      ],
      "stateMutability": "nonpayable",
      "type": "function"
    },
    {
      "inputs": [
        {
          "internalType": "address",
          "name": "sender",
          "type": "address"
        },
        {
          "internalType": "address",
          "name": "recipient",
          "type": "address"
        },
        {
          "internalType": "uint256",
          "name": "amount",
          "type": "uint256"
        }
      ],
      "name": "transferFrom",
      "outputs": [
        {
          "internalType": "bool",
          "name": "",
          "type": "bool"
        }
      ],
      "stateMutability": "nonpayable",
      "type": "function"
    },
    {
      "inputs": [],
      "name": "underlying",
      "outputs": [
        {
          "internalType": "address",
          "name": "",
          "type": "address"
        }
      ],
      "stateMutability": "view",
      "type": "function"
    }
  ],
  "transactionHash": "0x6b87d6de27035292596659b172d18d7c61601afbb87e8e5417ce37d38777609b",
  "args": [],
  "solcInputHash": "a90abf5add27a360b1da351c80dc1fcf",
  "bytecode": "0x60806040523480156200001157600080fd5b50604051806020016040528060008152506040518060200160405280600081525081600390805190602001906200004a9291906200006c565b508060049080519060200190620000639291906200006c565b50505062000181565b8280546200007a906200011c565b90600052602060002090601f0160209004810192826200009e5760008555620000ea565b82601f10620000b957805160ff1916838001178555620000ea565b82800160010185558215620000ea579182015b82811115620000e9578251825591602001919060010190620000cc565b5b509050620000f99190620000fd565b5090565b5b8082111562000118576000816000905550600101620000fe565b5090565b600060028204905060018216806200013557607f821691505b602082108114156200014c576200014b62000152565b5b50919050565b7f4e487b7100000000000000000000000000000000000000000000000000000000600052602260045260246000fd5b613d0980620001916000396000f3fe608060405234801561001057600080fd5b50600436106101fb5760003560e01c80637d6af0791161011a578063aa5af0fd116100ad578063dd62ed3e1161007c578063dd62ed3e146105a0578063e29f93fa146105d0578063e6aa216c146105ec578063e767b9e51461060a578063fbcbc0f114610628576101fb565b8063aa5af0fd1461052c578063c5ebeaec1461054a578063d0e5f3f714610566578063db006a7514610584576101fb565b8063a0712d68116100e9578063a0712d68146104a6578063a457c2d7146104c2578063a6afed95146104f2578063a9059cbb146104fc576101fb565b80637d6af0791461041e578063852a12e31461044e5780638f840ddd1461046a57806395d89b4114610488576101fb565b8063371fd8e61161019257806347bd37181161016157806347bd3718146103965780636e3f5d52146103b45780636f307dc3146103d057806370a08231146103ee576101fb565b8063371fd8e61461030e578063395093511461032a5780633b1d21a21461035a5780634322b71414610378576101fb565b806323b872dd116101ce57806323b872dd1461028857806326c01303146102b8578063313ce567146102d4578063322ca4d6146102f2576101fb565b806306fdde0314610200578063095ea7b31461021e57806318160ddd1461024e5780631c4469831461026c575b600080fd5b61020861065a565b604051610215919061324e565b60405180910390f35b61023860048036038101906102339190612cf9565b6106ec565b60405161024591906131a9565b60405180910390f35b61025661070a565b6040516102639190613450565b60405180910390f35b61028660048036038101906102819190612d5e565b610714565b005b6102a2600480360381019061029d9190612c5b565b61071e565b6040516102af91906131a9565b60405180910390f35b6102d260048036038101906102cd9190612caa565b610816565b005b6102dc610bd4565b6040516102e991906134a2565b60405180910390f35b61030c60048036038101906103079190612c5b565b610beb565b005b61032860048036038101906103239190612d5e565b610c86565b005b610344600480360381019061033f9190612cf9565b610c9c565b60405161035191906131a9565b60405180910390f35b610362610d48565b60405161036f9190613450565b60405180910390f35b610380610d57565b60405161038d9190613450565b60405180910390f35b61039e610d5d565b6040516103ab9190613450565b60405180910390f35b6103ce60048036038101906103c99190612b14565b610d63565b005b6103d8610e17565b6040516103e59190613089565b60405180910390f35b61040860048036038101906104039190612b14565b610e3d565b6040516104159190613450565b60405180910390f35b61043860048036038101906104339190612b14565b610e86565b6040516104459190613450565b60405180910390f35b61046860048036038101906104639190612d5e565b610e98565b005b610472610fc3565b60405161047f9190613450565b60405180910390f35b610490610fc9565b60405161049d919061324e565b60405180910390f35b6104c060048036038101906104bb9190612d5e565b61105b565b005b6104dc60048036038101906104d79190612cf9565b611235565b6040516104e991906131a9565b60405180910390f35b6104fa611320565b005b61051660048036038101906105119190612cf9565b6114e3565b60405161052391906131a9565b60405180910390f35b610534611501565b6040516105419190613450565b60405180910390f35b610564600480360381019061055f9190612d5e565b611507565b005b61056e6116ea565b60405161057b9190613450565b60405180910390f35b61059e60048036038101906105999190612d5e565b6116f0565b005b6105ba60048036038101906105b59190612b3d565b6118ce565b6040516105c79190613450565b60405180910390f35b6105ea60048036038101906105e59190612b79565b611955565b005b6105f4611b72565b6040516106019190613450565b60405180910390f35b610612611bd6565b60405161061f9190613450565b60405180910390f35b610642600480360381019061063d9190612b14565b611bdc565b6040516106519392919061346b565b60405180910390f35b60606012805461066990613727565b80601f016020809104026020016040519081016040528092919081815260200182805461069590613727565b80156106e25780601f106106b7576101008083540402835291602001916106e2565b820191906000526020600020905b8154815290600101906020018083116106c557829003601f168201915b5050505050905090565b60006107006106f9611c3f565b8484611c47565b6001905092915050565b6000600654905090565b80600f8190555050565b600061072b848484611e12565b6000600160008673ffffffffffffffffffffffffffffffffffffffff1673ffffffffffffffffffffffffffffffffffffffff1681526020019081526020016000206000610776611c3f565b73ffffffffffffffffffffffffffffffffffffffff1673ffffffffffffffffffffffffffffffffffffffff168152602001908152602001600020549050828110156107f6576040517f08c379a00000000000000000000000000000000000000000000000000000000081526004016107ed90613390565b60405180910390fd5b61080a85610802611c3f565b858403611c47565b60019150509392505050565b60008111610859576040517f08c379a0000000000000000000000000000000000000000000000000000000008152600401610850906132d0565b60405180910390fd5b610861611320565b8173ffffffffffffffffffffffffffffffffffffffff1663a6afed956040518163ffffffff1660e01b8152600401600060405180830381600087803b1580156108a957600080fd5b505af11580156108bd573d6000803e3d6000fd5b50505050601160009054906101000a900473ffffffffffffffffffffffffffffffffffffffff1673ffffffffffffffffffffffffffffffffffffffff1663be05e89730843387866040518663ffffffff1660e01b81526004016109249594939291906131c4565b60006040518083038186803b15801561093c57600080fd5b505afa158015610950573d6000803e3d6000fd5b5050505061095f338483612125565b6000601160009054906101000a900473ffffffffffffffffffffffffffffffffffffffff1673ffffffffffffffffffffffffffffffffffffffff166364381f483085856040518463ffffffff1660e01b81526004016109c093929190613217565b60206040518083038186803b1580156109d857600080fd5b505afa1580156109ec573d6000803e3d6000fd5b505050506040513d601f19601f82011682018060405250810190610a109190612d87565b9050808373ffffffffffffffffffffffffffffffffffffffff166370a08231866040518263ffffffff1660e01b8152600401610a4c9190613089565b60206040518083038186803b158015610a6457600080fd5b505afa158015610a78573d6000803e3d6000fd5b505050506040513d601f19601f82011682018060405250810190610a9c9190612d87565b1015610add576040517f08c379a0000000000000000000000000000000000000000000000000000000008152600401610ad490613370565b60405180910390fd5b3073ffffffffffffffffffffffffffffffffffffffff168373ffffffffffffffffffffffffffffffffffffffff161415610b2157610b1c33858361229f565b610b91565b8273ffffffffffffffffffffffffffffffffffffffff1663322ca4d63386846040518463ffffffff1660e01b8152600401610b5e939291906130cd565b600060405180830381600087803b158015610b7857600080fd5b505af1158015610b8c573d6000803e3d6000fd5b505050505b7ff3fa0eaee8f258c23b013654df25d1527f98a5c7ccd5e951dd77caca400ef97233858484604051610bc69493929190613104565b60405180910390a150505050565b6000601460009054906101000a900460ff16905090565b601160009054906101000a900473ffffffffffffffffffffffffffffffffffffffff1673ffffffffffffffffffffffffffffffffffffffff1663fcb894f7306040518263ffffffff1660e01b8152600401610c469190613089565b60006040518083038186803b158015610c5e57600080fd5b505afa158015610c72573d6000803e3d6000fd5b50505050610c8183838361229f565b505050565b610c8e611320565b610c99333383612125565b50565b6000610d3e610ca9611c3f565b848460016000610cb7611c3f565b73ffffffffffffffffffffffffffffffffffffffff1673ffffffffffffffffffffffffffffffffffffffff16815260200190815260200160002060008873ffffffffffffffffffffffffffffffffffffffff1673ffffffffffffffffffffffffffffffffffffffff16815260200190815260200160002054610d399190613545565b611c47565b6001905092915050565b6000610d526123b5565b905090565b600f5481565b60075481565b600073ffffffffffffffffffffffffffffffffffffffff168173ffffffffffffffffffffffffffffffffffffffff161415610dd3576040517f08c379a0000000000000000000000000000000000000000000000000000000008152600401610dca90613330565b60405180910390fd5b80601060006101000a81548173ffffffffffffffffffffffffffffffffffffffff021916908373ffffffffffffffffffffffffffffffffffffffff16021790555050565b600c60009054906101000a900473ffffffffffffffffffffffffffffffffffffffff1681565b6000600a60008373ffffffffffffffffffffffffffffffffffffffff1673ffffffffffffffffffffffffffffffffffffffff168152602001908152602001600020549050919050565b6000610e9182612467565b9050919050565b610ea0611320565b6000610eaa611b72565b82610eb5919061359b565b9050601160009054906101000a900473ffffffffffffffffffffffffffffffffffffffff1673ffffffffffffffffffffffffffffffffffffffff166307f8573f3033846040518463ffffffff1660e01b8152600401610f16939291906130cd565b60006040518083038186803b158015610f2e57600080fd5b505afa158015610f42573d6000803e3d6000fd5b505050508060066000828254610f589190613626565b9250508190555080600a60003373ffffffffffffffffffffffffffffffffffffffff1673ffffffffffffffffffffffffffffffffffffffff1681526020019081526020016000206000828254610fae9190613626565b92505081905550610fbf3383612561565b5050565b60085481565b606060138054610fd890613727565b80601f016020809104026020016040519081016040528092919081815260200182805461100490613727565b80156110515780601f1061102657610100808354040283529160200191611051565b820191906000526020600020905b81548152906001019060200180831161103457829003601f168201915b5050505050905090565b611063611320565b601160009054906101000a900473ffffffffffffffffffffffffffffffffffffffff1673ffffffffffffffffffffffffffffffffffffffff1663c2ba4744306040518263ffffffff1660e01b81526004016110be9190613089565b60006040518083038186803b1580156110d657600080fd5b505afa1580156110ea573d6000803e3d6000fd5b5050505060006110f8611b72565b670de0b6b3a76400008361110c91906135cc565b611116919061359b565b9050806006600082825461112a9190613545565b9250508190555080600a60003373ffffffffffffffffffffffffffffffffffffffff1673ffffffffffffffffffffffffffffffffffffffff16815260200190815260200160002060008282546111809190613545565b9250508190555061119133836125b2565b7f4c209b5fc8ad50758f13e2e1088ba56a560dff690a1c6fef26394f4c03821c4f3383836040516111c493929190613172565b60405180910390a13373ffffffffffffffffffffffffffffffffffffffff163073ffffffffffffffffffffffffffffffffffffffff167fddf252ad1be2c89b69c2b068fc378daa952ba7f163c4a11628f55a4df523b3ef836040516112299190613450565b60405180910390a35050565b60008060016000611244611c3f565b73ffffffffffffffffffffffffffffffffffffffff1673ffffffffffffffffffffffffffffffffffffffff16815260200190815260200160002060008573ffffffffffffffffffffffffffffffffffffffff1673ffffffffffffffffffffffffffffffffffffffff16815260200190815260200160002054905082811015611301576040517f08c379a00000000000000000000000000000000000000000000000000000000081526004016112f890613430565b60405180910390fd5b61131561130c611c3f565b85858403611c47565b600191505092915050565b43600e54141561132f576114e1565b6000600d544261133f9190613626565b90506000601060009054906101000a900473ffffffffffffffffffffffffffffffffffffffff1673ffffffffffffffffffffffffffffffffffffffff1663c97fcc3e6113896123b5565b6007546008546040518463ffffffff1660e01b81526004016113ad9392919061346b565b60206040518083038186803b1580156113c557600080fd5b505afa1580156113d9573d6000803e3d6000fd5b505050506040513d601f19601f820116820180604052508101906113fd9190612d87565b905060006301e1853e838361141291906135cc565b61141c919061359b565b90506000670de0b6b3a76400008260075461143791906135cc565b611441919061359b565b905043600e8190555042600d8190555080600760008282546114639190613545565b92505081905550670de0b6b3a7640000600f548261148191906135cc565b61148b919061359b565b6008600082825461149c9190613545565b92505081905550670de0b6b3a764000082600b546114ba91906135cc565b6114c4919061359b565b600b60008282546114d59190613545565b92505081905550505050505b565b60006114f76114f0611c3f565b8484611e12565b6001905092915050565b600b5481565b61150f611320565b601160009054906101000a900473ffffffffffffffffffffffffffffffffffffffff1673ffffffffffffffffffffffffffffffffffffffff16639aac2c533033846040518463ffffffff1660e01b815260040161156e939291906130cd565b60006040518083038186803b15801561158657600080fd5b505afa15801561159a573d6000803e3d6000fd5b50505050806115a76123b5565b10156115e8576040517f08c379a00000000000000000000000000000000000000000000000000000000081526004016115df90613290565b60405180910390fd5b806115f233612467565b6115fc9190613545565b600960003373ffffffffffffffffffffffffffffffffffffffff1673ffffffffffffffffffffffffffffffffffffffff16815260200190815260200160002060000181905550600b54600960003373ffffffffffffffffffffffffffffffffffffffff1673ffffffffffffffffffffffffffffffffffffffff16815260200190815260200160002060010181905550806007600082825461169d9190613545565b925050819055506116ae3382612561565b7fcbc04eca7e9da35cb1393a6135a199ca52e450d5e9251cbd99f7847d33a3675033826040516116df929190613149565b60405180910390a150565b600d5481565b6116f8611320565b6000670de0b6b3a764000061170b611b72565b8361171691906135cc565b611720919061359b565b9050601160009054906101000a900473ffffffffffffffffffffffffffffffffffffffff1673ffffffffffffffffffffffffffffffffffffffff166307f8573f3033846040518463ffffffff1660e01b8152600401611781939291906130cd565b60006040518083038186803b15801561179957600080fd5b505afa1580156117ad573d6000803e3d6000fd5b5050505081600660008282546117c39190613626565b9250508190555081600a60003373ffffffffffffffffffffffffffffffffffffffff1673ffffffffffffffffffffffffffffffffffffffff16815260200190815260200160002060008282546118199190613626565b9250508190555061182a3382612561565b3073ffffffffffffffffffffffffffffffffffffffff163373ffffffffffffffffffffffffffffffffffffffff167fddf252ad1be2c89b69c2b068fc378daa952ba7f163c4a11628f55a4df523b3ef846040516118879190613450565b60405180910390a37fe5b754fb1abb7f01b499791d0b820ae3b6af3424ac1c59768edb53f4ec31a9293382846040516118c293929190613172565b60405180910390a15050565b6000600160008473ffffffffffffffffffffffffffffffffffffffff1673ffffffffffffffffffffffffffffffffffffffff16815260200190815260200160002060008373ffffffffffffffffffffffffffffffffffffffff1673ffffffffffffffffffffffffffffffffffffffff16815260200190815260200160002054905092915050565b600560019054906101000a900460ff168061197d5750600560009054906101000a900460ff16155b6119bc576040517f08c379a00000000000000000000000000000000000000000000000000000000081526004016119b390613350565b60405180910390fd5b6000600560019054906101000a900460ff161590508015611a0e576001600560016101000a81548160ff0219169083151502179055506001600560006101000a81548160ff0219169083151502179055505b88600c60006101000a81548173ffffffffffffffffffffffffffffffffffffffff021916908373ffffffffffffffffffffffffffffffffffffffff16021790555087601060006101000a81548173ffffffffffffffffffffffffffffffffffffffff021916908373ffffffffffffffffffffffffffffffffffffffff16021790555086601160006101000a81548173ffffffffffffffffffffffffffffffffffffffff021916908373ffffffffffffffffffffffffffffffffffffffff160217905550670de0b6b3a7640000600b819055508560129080519060200190611af692919061298b565b508460139080519060200190611b0d92919061298b565b5083601460006101000a81548160ff021916908360ff1602179055508260158190555042600d8190555043600e8190555081600f819055508015611b67576000600560016101000a81548160ff0219169083151502179055505b505050505050505050565b6000806006541415611b88576015549050611bd3565b6000611b926123b5565b9050600654670de0b6b3a764000060085460075484611bb19190613545565b611bbb9190613626565b611bc591906135cc565b611bcf919061359b565b9150505b90565b600e5481565b6000806000600a60008573ffffffffffffffffffffffffffffffffffffffff1673ffffffffffffffffffffffffffffffffffffffff168152602001908152602001600020549250611c2c84612467565b9150611c36611b72565b90509193909250565b600033905090565b600073ffffffffffffffffffffffffffffffffffffffff168373ffffffffffffffffffffffffffffffffffffffff161415611cb7576040517f08c379a0000000000000000000000000000000000000000000000000000000008152600401611cae906133d0565b60405180910390fd5b600073ffffffffffffffffffffffffffffffffffffffff168273ffffffffffffffffffffffffffffffffffffffff161415611d27576040517f08c379a0000000000000000000000000000000000000000000000000000000008152600401611d1e906132b0565b60405180910390fd5b80600160008573ffffffffffffffffffffffffffffffffffffffff1673ffffffffffffffffffffffffffffffffffffffff16815260200190815260200160002060008473ffffffffffffffffffffffffffffffffffffffff1673ffffffffffffffffffffffffffffffffffffffff168152602001908152602001600020819055508173ffffffffffffffffffffffffffffffffffffffff168373ffffffffffffffffffffffffffffffffffffffff167f8c5be1e5ebec7d5bd14f71427d1e84f3dd0314c0f7b2291e5b200ac8c7c3b92583604051611e059190613450565b60405180910390a3505050565b600073ffffffffffffffffffffffffffffffffffffffff168373ffffffffffffffffffffffffffffffffffffffff161415611e82576040517f08c379a0000000000000000000000000000000000000000000000000000000008152600401611e79906133b0565b60405180910390fd5b600073ffffffffffffffffffffffffffffffffffffffff168273ffffffffffffffffffffffffffffffffffffffff161415611ef2576040517f08c379a0000000000000000000000000000000000000000000000000000000008152600401611ee990613270565b60405180910390fd5b601160009054906101000a900473ffffffffffffffffffffffffffffffffffffffff1673ffffffffffffffffffffffffffffffffffffffff1663e46638e63085846040518463ffffffff1660e01b8152600401611f51939291906130cd565b60006040518083038186803b158015611f6957600080fd5b505afa158015611f7d573d6000803e3d6000fd5b50505050611f8c838383612605565b6000600a60008573ffffffffffffffffffffffffffffffffffffffff1673ffffffffffffffffffffffffffffffffffffffff16815260200190815260200160002054905081811015612013576040517f08c379a000000000000000000000000000000000000000000000000000000000815260040161200a906132f0565b60405180910390fd5b818103600a60008673ffffffffffffffffffffffffffffffffffffffff1673ffffffffffffffffffffffffffffffffffffffff1681526020019081526020016000208190555081600a60008573ffffffffffffffffffffffffffffffffffffffff1673ffffffffffffffffffffffffffffffffffffffff16815260200190815260200160002060008282546120a89190613545565b925050819055508273ffffffffffffffffffffffffffffffffffffffff168473ffffffffffffffffffffffffffffffffffffffff167fddf252ad1be2c89b69c2b068fc378daa952ba7f163c4a11628f55a4df523b3ef8460405161210c9190613450565b60405180910390a361211f84848461260a565b50505050565b601160009054906101000a900473ffffffffffffffffffffffffffffffffffffffff1673ffffffffffffffffffffffffffffffffffffffff1663bc66d9bb30846040518363ffffffff1660e01b81526004016121829291906130a4565b60006040518083038186803b15801561219a57600080fd5b505afa1580156121ae573d6000803e3d6000fd5b50505050806121bc83612467565b6121c69190613626565b600960008473ffffffffffffffffffffffffffffffffffffffff1673ffffffffffffffffffffffffffffffffffffffff16815260200190815260200160002060000181905550600b54600960008473ffffffffffffffffffffffffffffffffffffffff1673ffffffffffffffffffffffffffffffffffffffff1681526020019081526020016000206001018190555061225f83826125b2565b7f05f2eeda0e08e4b437f487c8d7d29b14537d15e3488170dc3de5dbdf8dac4684828483604051612292939291906130cd565b60405180910390a1505050565b80600a60008473ffffffffffffffffffffffffffffffffffffffff1673ffffffffffffffffffffffffffffffffffffffff16815260200190815260200160002060008282546122ee9190613626565b9250508190555080600a60008573ffffffffffffffffffffffffffffffffffffffff1673ffffffffffffffffffffffffffffffffffffffff16815260200190815260200160002060008282546123449190613545565b925050819055508273ffffffffffffffffffffffffffffffffffffffff168273ffffffffffffffffffffffffffffffffffffffff167fddf252ad1be2c89b69c2b068fc378daa952ba7f163c4a11628f55a4df523b3ef836040516123a89190613450565b60405180910390a3505050565b6000600c60009054906101000a900473ffffffffffffffffffffffffffffffffffffffff1673ffffffffffffffffffffffffffffffffffffffff166370a08231306040518263ffffffff1660e01b81526004016124129190613089565b60206040518083038186803b15801561242a57600080fd5b505afa15801561243e573d6000803e3d6000fd5b505050506040513d601f19601f820116820180604052508101906124629190612d87565b905090565b600080600960008473ffffffffffffffffffffffffffffffffffffffff1673ffffffffffffffffffffffffffffffffffffffff1681526020019081526020016000206000015414156124bc576000905061255c565b600960008373ffffffffffffffffffffffffffffffffffffffff1673ffffffffffffffffffffffffffffffffffffffff16815260200190815260200160002060010154600b54600960008573ffffffffffffffffffffffffffffffffffffffff1673ffffffffffffffffffffffffffffffffffffffff1681526020019081526020016000206000015461254f91906135cc565b612559919061359b565b90505b919050565b6125ae8282600c60009054906101000a900473ffffffffffffffffffffffffffffffffffffffff1673ffffffffffffffffffffffffffffffffffffffff1661260f9092919063ffffffff16565b5050565b612601823083600c60009054906101000a900473ffffffffffffffffffffffffffffffffffffffff1673ffffffffffffffffffffffffffffffffffffffff16612695909392919063ffffffff16565b5050565b505050565b505050565b6126908363a9059cbb60e01b848460405160240161262e929190613149565b604051602081830303815290604052907bffffffffffffffffffffffffffffffffffffffffffffffffffffffff19166020820180517bffffffffffffffffffffffffffffffffffffffffffffffffffffffff838183161783525050505061271e565b505050565b612718846323b872dd60e01b8585856040516024016126b6939291906130cd565b604051602081830303815290604052907bffffffffffffffffffffffffffffffffffffffffffffffffffffffff19166020820180517bffffffffffffffffffffffffffffffffffffffffffffffffffffffff838183161783525050505061271e565b50505050565b6000612780826040518060400160405280602081526020017f5361666545524332303a206c6f772d6c6576656c2063616c6c206661696c65648152508573ffffffffffffffffffffffffffffffffffffffff166127e59092919063ffffffff16565b90506000815111156127e057808060200190518101906127a09190612d35565b6127df576040517f08c379a00000000000000000000000000000000000000000000000000000000081526004016127d690613410565b60405180910390fd5b5b505050565b60606127f484846000856127fd565b90509392505050565b606082471015612842576040517f08c379a000000000000000000000000000000000000000000000000000000000815260040161283990613310565b60405180910390fd5b61284b85612911565b61288a576040517f08c379a0000000000000000000000000000000000000000000000000000000008152600401612881906133f0565b60405180910390fd5b6000808673ffffffffffffffffffffffffffffffffffffffff1685876040516128b39190613072565b60006040518083038185875af1925050503d80600081146128f0576040519150601f19603f3d011682016040523d82523d6000602084013e6128f5565b606091505b5091509150612905828286612924565b92505050949350505050565b600080823b905060008111915050919050565b6060831561293457829050612984565b6000835111156129475782518084602001fd5b816040517f08c379a000000000000000000000000000000000000000000000000000000000815260040161297b919061324e565b60405180910390fd5b9392505050565b82805461299790613727565b90600052602060002090601f0160209004810192826129b95760008555612a00565b82601f106129d257805160ff1916838001178555612a00565b82800160010185558215612a00579182015b828111156129ff5782518255916020019190600101906129e4565b5b509050612a0d9190612a11565b5090565b5b80821115612a2a576000816000905550600101612a12565b5090565b6000612a41612a3c846134e2565b6134bd565b905082815260208101848484011115612a5957600080fd5b612a648482856136e5565b509392505050565b600081359050612a7b81613c60565b92915050565b600081519050612a9081613c77565b92915050565b600081359050612aa581613c8e565b92915050565b600082601f830112612abc57600080fd5b8135612acc848260208601612a2e565b91505092915050565b600081359050612ae481613ca5565b92915050565b600081519050612af981613ca5565b92915050565b600081359050612b0e81613cbc565b92915050565b600060208284031215612b2657600080fd5b6000612b3484828501612a6c565b91505092915050565b60008060408385031215612b5057600080fd5b6000612b5e85828601612a6c565b9250506020612b6f85828601612a6c565b9150509250929050565b600080600080600080600080610100898b031215612b9657600080fd5b6000612ba48b828c01612a6c565b9850506020612bb58b828c01612a6c565b9750506040612bc68b828c01612a6c565b965050606089013567ffffffffffffffff811115612be357600080fd5b612bef8b828c01612aab565b955050608089013567ffffffffffffffff811115612c0c57600080fd5b612c188b828c01612aab565b94505060a0612c298b828c01612aff565b93505060c0612c3a8b828c01612ad5565b92505060e0612c4b8b828c01612ad5565b9150509295985092959890939650565b600080600060608486031215612c7057600080fd5b6000612c7e86828701612a6c565b9350506020612c8f86828701612a6c565b9250506040612ca086828701612ad5565b9150509250925092565b600080600060608486031215612cbf57600080fd5b6000612ccd86828701612a6c565b9350506020612cde86828701612a96565b9250506040612cef86828701612ad5565b9150509250925092565b60008060408385031215612d0c57600080fd5b6000612d1a85828601612a6c565b9250506020612d2b85828601612ad5565b9150509250929050565b600060208284031215612d4757600080fd5b6000612d5584828501612a81565b91505092915050565b600060208284031215612d7057600080fd5b6000612d7e84828501612ad5565b91505092915050565b600060208284031215612d9957600080fd5b6000612da784828501612aea565b91505092915050565b612db98161365a565b82525050565b612dc88161366c565b82525050565b6000612dd982613513565b612de38185613529565b9350612df38185602086016136f4565b80840191505092915050565b612e08816136c1565b82525050565b6000612e198261351e565b612e238185613534565b9350612e338185602086016136f4565b612e3c81613846565b840191505092915050565b6000612e54602383613534565b9150612e5f82613857565b604082019050919050565b6000612e77601b83613534565b9150612e82826138a6565b602082019050919050565b6000612e9a602283613534565b9150612ea5826138cf565b604082019050919050565b6000612ebd601483613534565b9150612ec88261391e565b602082019050919050565b6000612ee0602683613534565b9150612eeb82613947565b604082019050919050565b6000612f03602683613534565b9150612f0e82613996565b604082019050919050565b6000612f26601683613534565b9150612f31826139e5565b602082019050919050565b6000612f49602e83613534565b9150612f5482613a0e565b604082019050919050565b6000612f6c602883613534565b9150612f7782613a5d565b604082019050919050565b6000612f8f602883613534565b9150612f9a82613aac565b604082019050919050565b6000612fb2602583613534565b9150612fbd82613afb565b604082019050919050565b6000612fd5602483613534565b9150612fe082613b4a565b604082019050919050565b6000612ff8601d83613534565b915061300382613b99565b602082019050919050565b600061301b602a83613534565b915061302682613bc2565b604082019050919050565b600061303e602583613534565b915061304982613c11565b604082019050919050565b61305d816136aa565b82525050565b61306c816136b4565b82525050565b600061307e8284612dce565b915081905092915050565b600060208201905061309e6000830184612db0565b92915050565b60006040820190506130b96000830185612db0565b6130c66020830184612db0565b9392505050565b60006060820190506130e26000830186612db0565b6130ef6020830185612db0565b6130fc6040830184613054565b949350505050565b60006080820190506131196000830187612db0565b6131266020830186612db0565b6131336040830185613054565b6131406060830184613054565b95945050505050565b600060408201905061315e6000830185612db0565b61316b6020830184613054565b9392505050565b60006060820190506131876000830186612db0565b6131946020830185613054565b6131a16040830184613054565b949350505050565b60006020820190506131be6000830184612dbf565b92915050565b600060a0820190506131d96000830188612dff565b6131e66020830187612dff565b6131f36040830186612db0565b6132006060830185612db0565b61320d6080830184613054565b9695505050505050565b600060608201905061322c6000830186612dff565b6132396020830185612dff565b6132466040830184613054565b949350505050565b600060208201905081810360008301526132688184612e0e565b905092915050565b6000602082019050818103600083015261328981612e47565b9050919050565b600060208201905081810360008301526132a981612e6a565b9050919050565b600060208201905081810360008301526132c981612e8d565b9050919050565b600060208201905081810360008301526132e981612eb0565b9050919050565b6000602082019050818103600083015261330981612ed3565b9050919050565b6000602082019050818103600083015261332981612ef6565b9050919050565b6000602082019050818103600083015261334981612f19565b9050919050565b6000602082019050818103600083015261336981612f3c565b9050919050565b6000602082019050818103600083015261338981612f5f565b9050919050565b600060208201905081810360008301526133a981612f82565b9050919050565b600060208201905081810360008301526133c981612fa5565b9050919050565b600060208201905081810360008301526133e981612fc8565b9050919050565b6000602082019050818103600083015261340981612feb565b9050919050565b600060208201905081810360008301526134298161300e565b9050919050565b6000602082019050818103600083015261344981613031565b9050919050565b60006020820190506134656000830184613054565b92915050565b60006060820190506134806000830186613054565b61348d6020830185613054565b61349a6040830184613054565b949350505050565b60006020820190506134b76000830184613063565b92915050565b60006134c76134d8565b90506134d38282613759565b919050565b6000604051905090565b600067ffffffffffffffff8211156134fd576134fc613817565b5b61350682613846565b9050602081019050919050565b600081519050919050565b600081519050919050565b600081905092915050565b600082825260208201905092915050565b6000613550826136aa565b915061355b836136aa565b9250827fffffffffffffffffffffffffffffffffffffffffffffffffffffffffffffffff038211156135905761358f61378a565b5b828201905092915050565b60006135a6826136aa565b91506135b1836136aa565b9250826135c1576135c06137b9565b5b828204905092915050565b60006135d7826136aa565b91506135e2836136aa565b9250817fffffffffffffffffffffffffffffffffffffffffffffffffffffffffffffffff048311821515161561361b5761361a61378a565b5b828202905092915050565b6000613631826136aa565b915061363c836136aa565b92508282101561364f5761364e61378a565b5b828203905092915050565b60006136658261368a565b9050919050565b60008115159050919050565b60006136838261365a565b9050919050565b600073ffffffffffffffffffffffffffffffffffffffff82169050919050565b6000819050919050565b600060ff82169050919050565b60006136cc826136d3565b9050919050565b60006136de8261368a565b9050919050565b82818337600083830152505050565b60005b838110156137125780820151818401526020810190506136f7565b83811115613721576000848401525b50505050565b6000600282049050600182168061373f57607f821691505b60208210811415613753576137526137e8565b5b50919050565b61376282613846565b810181811067ffffffffffffffff8211171561378157613780613817565b5b80604052505050565b7f4e487b7100000000000000000000000000000000000000000000000000000000600052601160045260246000fd5b7f4e487b7100000000000000000000000000000000000000000000000000000000600052601260045260246000fd5b7f4e487b7100000000000000000000000000000000000000000000000000000000600052602260045260246000fd5b7f4e487b7100000000000000000000000000000000000000000000000000000000600052604160045260246000fd5b6000601f19601f8301169050919050565b7f45524332303a207472616e7366657220746f20746865207a65726f206164647260008201527f6573730000000000000000000000000000000000000000000000000000000000602082015250565b7f494e53554646494349454e545f50524f544f434f4c5f46554e44530000000000600082015250565b7f45524332303a20617070726f766520746f20746865207a65726f20616464726560008201527f7373000000000000000000000000000000000000000000000000000000000000602082015250565b7f494e56414c49445f52455041595f414d4f554e54000000000000000000000000600082015250565b7f45524332303a207472616e7366657220616d6f756e742065786365656473206260008201527f616c616e63650000000000000000000000000000000000000000000000000000602082015250565b7f416464726573733a20696e73756666696369656e742062616c616e636520666f60008201527f722063616c6c0000000000000000000000000000000000000000000000000000602082015250565b7f494e56414c49445f494e5445524553545f4d4f44454c00000000000000000000600082015250565b7f496e697469616c697a61626c653a20636f6e747261637420697320616c72656160008201527f647920696e697469616c697a6564000000000000000000000000000000000000602082015250565b7f494e53554646494349454e545f434f4c4c41544552414c5f42414c414e43455f60008201527f544f5f5345495a45000000000000000000000000000000000000000000000000602082015250565b7f45524332303a207472616e7366657220616d6f756e742065786365656473206160008201527f6c6c6f77616e6365000000000000000000000000000000000000000000000000602082015250565b7f45524332303a207472616e736665722066726f6d20746865207a65726f20616460008201527f6472657373000000000000000000000000000000000000000000000000000000602082015250565b7f45524332303a20617070726f76652066726f6d20746865207a65726f2061646460008201527f7265737300000000000000000000000000000000000000000000000000000000602082015250565b7f416464726573733a2063616c6c20746f206e6f6e2d636f6e7472616374000000600082015250565b7f5361666545524332303a204552433230206f7065726174696f6e20646964206e60008201527f6f74207375636365656400000000000000000000000000000000000000000000602082015250565b7f45524332303a2064656372656173656420616c6c6f77616e63652062656c6f7760008201527f207a65726f000000000000000000000000000000000000000000000000000000602082015250565b613c698161365a565b8114613c7457600080fd5b50565b613c808161366c565b8114613c8b57600080fd5b50565b613c9781613678565b8114613ca257600080fd5b50565b613cae816136aa565b8114613cb957600080fd5b50565b613cc5816136b4565b8114613cd057600080fd5b5056fea26469706673582212204f4c75877b0220998e964bd621a5c19ff10a9ba4673aeb8031430767d28d86ef64736f6c63430008040033",
  "devdoc": {
    "kind": "dev",
    "methods": {
      "allowance(address,address)": {
        "details": "See {IERC20-allowance}."
      },
      "approve(address,uint256)": {
        "details": "See {IERC20-approve}. Requirements: - `spender` cannot be the zero address."
      },
      "balanceOf(address)": {
        "details": "See {IERC20-balanceOf}."
      },
      "decimals()": {
        "details": "Returns the number of decimals used to get its user representation. For example, if `decimals` equals `2`, a balance of `505` tokens should be displayed to a user as `5.05` (`505 / 10 ** 2`). Tokens usually opt for a value of 18, imitating the relationship between Ether and Wei. This is the value {ERC20} uses, unless this function is overridden; NOTE: This information is only used for _display_ purposes: it in no way affects any of the arithmetic of the contract, including {IERC20-balanceOf} and {IERC20-transfer}."
      },
      "decreaseAllowance(address,uint256)": {
        "details": "Atomically decreases the allowance granted to `spender` by the caller. This is an alternative to {approve} that can be used as a mitigation for problems described in {IERC20-approve}. Emits an {Approval} event indicating the updated allowance. Requirements: - `spender` cannot be the zero address. - `spender` must have allowance for the caller of at least `subtractedValue`."
      },
      "getAccount(address)": {
        "params": {
          "account": "the account for which to retrieve data"
        },
        "returns": {
          "balance": "of the cToken",
          "borrows": "in the underlying asset",
          "exchangeRate": "between the cToken and underlying asset"
        }
      },
      "getExchangeRate()": {
        "returns": {
          "_0": "exchange rate"
        }
      },
      "increaseAllowance(address,uint256)": {
        "details": "Atomically increases the allowance granted to `spender` by the caller. This is an alternative to {approve} that can be used as a mitigation for problems described in {IERC20-approve}. Emits an {Approval} event indicating the updated allowance. Requirements: - `spender` cannot be the zero address."
      },
      "mint(uint256)": {
        "params": {
          "amount": "the amount of underlying asset to exchange for cTokens"
        }
      },
      "name()": {
        "details": "Returns the name of the token."
      },
      "redeem(uint256)": {
        "params": {
          "amountToken": "the amount of cTokens to turn into underlying asset."
        }
      },
      "redeemUnderlying(uint256)": {
        "params": {
          "amountUnderlying": "the amount of underlying asset to receive."
        }
      },
      "symbol()": {
        "details": "Returns the symbol of the token, usually a shorter version of the name."
      },
      "totalSupply()": {
        "details": "See {IERC20-totalSupply}."
      },
      "transfer(address,uint256)": {
        "details": "See {IERC20-transfer}. Requirements: - `recipient` cannot be the zero address. - the caller must have a balance of at least `amount`."
      },
      "transferFrom(address,address,uint256)": {
        "details": "See {IERC20-transferFrom}. Emits an {Approval} event indicating the updated allowance. This is not required by the EIP. See the note at the beginning of {ERC20}. Requirements: - `sender` and `recipient` cannot be the zero address. - `sender` must have a balance of at least `amount`. - the caller must have allowance for ``sender``'s tokens of at least `amount`."
      }
    },
    "version": 1
  },
  "userdoc": {
    "kind": "user",
    "methods": {
      "getAccount(address)": {
        "notice": "returns information about important data belonging to account."
      },
      "getExchangeRate()": {
        "notice": "returns the exchange rate between cToken and underlying asset.to calculate how many underlying can be received just multiply cToken amount by this exchange rateto calculate how many cTokens are needed to retrieve amount of underlying asset just divide that amount by this exchange rate"
      },
      "mint(uint256)": {
        "notice": "User can mint cTokens by providing underlying asset.Received amount of cTokens depends on the exchange rate.Requires asset approval."
      },
      "redeem(uint256)": {
        "notice": "User can redeem underlying asset by providing cTokens.Received amount of underlying asset depends on the exchange rate.Redeeming of tokens cannot undercollateralize user's loans."
      },
      "redeemUnderlying(uint256)": {
        "notice": "User can provide cTokens to redeem underlying asset."
      }
    },
    "version": 1
  },
  "storageLayout": {
    "storage": [
      {
        "astId": 521,
        "contract": "contracts/CToken.sol:CToken",
        "label": "_balances",
        "offset": 0,
        "slot": "0",
        "type": "t_mapping(t_address,t_uint256)"
      },
      {
        "astId": 527,
        "contract": "contracts/CToken.sol:CToken",
        "label": "_allowances",
        "offset": 0,
        "slot": "1",
        "type": "t_mapping(t_address,t_mapping(t_address,t_uint256))"
      },
      {
        "astId": 529,
        "contract": "contracts/CToken.sol:CToken",
        "label": "_totalSupply",
        "offset": 0,
        "slot": "2",
        "type": "t_uint256"
      },
      {
        "astId": 531,
        "contract": "contracts/CToken.sol:CToken",
        "label": "_name",
        "offset": 0,
        "slot": "3",
        "type": "t_string_storage"
      },
      {
        "astId": 533,
        "contract": "contracts/CToken.sol:CToken",
        "label": "_symbol",
        "offset": 0,
        "slot": "4",
        "type": "t_string_storage"
      },
      {
        "astId": 465,
        "contract": "contracts/CToken.sol:CToken",
        "label": "_initialized",
        "offset": 0,
        "slot": "5",
        "type": "t_bool"
      },
      {
        "astId": 468,
        "contract": "contracts/CToken.sol:CToken",
        "label": "_initializing",
        "offset": 1,
        "slot": "5",
        "type": "t_bool"
      },
      {
        "astId": 1962,
        "contract": "contracts/CToken.sol:CToken",
        "label": "_totalSupply",
        "offset": 0,
        "slot": "6",
        "type": "t_uint256"
      },
      {
        "astId": 1964,
        "contract": "contracts/CToken.sol:CToken",
        "label": "totalBorrows",
        "offset": 0,
        "slot": "7",
        "type": "t_uint256"
      },
      {
        "astId": 1966,
        "contract": "contracts/CToken.sol:CToken",
        "label": "totalReserves",
        "offset": 0,
        "slot": "8",
        "type": "t_uint256"
      },
      {
        "astId": 1971,
        "contract": "contracts/CToken.sol:CToken",
        "label": "_borrows",
        "offset": 0,
        "slot": "9",
        "type": "t_mapping(t_address,t_struct(Loan)1957_storage)"
      },
      {
        "astId": 1975,
        "contract": "contracts/CToken.sol:CToken",
        "label": "_balance",
        "offset": 0,
        "slot": "10",
        "type": "t_mapping(t_address,t_uint256)"
      },
      {
        "astId": 1977,
        "contract": "contracts/CToken.sol:CToken",
        "label": "borrowIndex",
        "offset": 0,
        "slot": "11",
        "type": "t_uint256"
      },
      {
        "astId": 1979,
        "contract": "contracts/CToken.sol:CToken",
        "label": "underlying",
        "offset": 0,
        "slot": "12",
        "type": "t_address"
      },
      {
        "astId": 1981,
        "contract": "contracts/CToken.sol:CToken",
        "label": "lastInterestTimestamp",
        "offset": 0,
        "slot": "13",
        "type": "t_uint256"
      },
      {
        "astId": 1983,
        "contract": "contracts/CToken.sol:CToken",
        "label": "lastInterestBlock",
        "offset": 0,
        "slot": "14",
        "type": "t_uint256"
      },
      {
        "astId": 1985,
        "contract": "contracts/CToken.sol:CToken",
        "label": "reserveFactor",
        "offset": 0,
        "slot": "15",
        "type": "t_uint256"
      },
      {
        "astId": 1988,
        "contract": "contracts/CToken.sol:CToken",
        "label": "_interestModel",
        "offset": 0,
        "slot": "16",
        "type": "t_contract(InterestModel)3915"
      },
      {
        "astId": 1991,
        "contract": "contracts/CToken.sol:CToken",
        "label": "_markets",
        "offset": 0,
        "slot": "17",
        "type": "t_contract(Markets)3884"
      },
      {
        "astId": 1993,
        "contract": "contracts/CToken.sol:CToken",
        "label": "_name",
        "offset": 0,
        "slot": "18",
        "type": "t_string_storage"
      },
      {
        "astId": 1995,
        "contract": "contracts/CToken.sol:CToken",
        "label": "_symbol",
        "offset": 0,
        "slot": "19",
        "type": "t_string_storage"
      },
      {
        "astId": 1997,
        "contract": "contracts/CToken.sol:CToken",
        "label": "_decimals",
        "offset": 0,
        "slot": "20",
        "type": "t_uint8"
      },
      {
        "astId": 1999,
        "contract": "contracts/CToken.sol:CToken",
        "label": "_initialExchangeRate",
        "offset": 0,
        "slot": "21",
        "type": "t_uint256"
      }
    ],
    "types": {
      "t_address": {
        "encoding": "inplace",
        "label": "address",
        "numberOfBytes": "20"
      },
      "t_bool": {
        "encoding": "inplace",
        "label": "bool",
        "numberOfBytes": "1"
      },
      "t_contract(InterestModel)3915": {
        "encoding": "inplace",
        "label": "contract InterestModel",
        "numberOfBytes": "20"
      },
      "t_contract(Markets)3884": {
        "encoding": "inplace",
        "label": "contract Markets",
        "numberOfBytes": "20"
      },
      "t_mapping(t_address,t_mapping(t_address,t_uint256))": {
        "encoding": "mapping",
        "key": "t_address",
        "label": "mapping(address => mapping(address => uint256))",
        "numberOfBytes": "32",
        "value": "t_mapping(t_address,t_uint256)"
      },
      "t_mapping(t_address,t_struct(Loan)1957_storage)": {
        "encoding": "mapping",
        "key": "t_address",
        "label": "mapping(address => struct CToken.Loan)",
        "numberOfBytes": "32",
        "value": "t_struct(Loan)1957_storage"
      },
      "t_mapping(t_address,t_uint256)": {
        "encoding": "mapping",
        "key": "t_address",
        "label": "mapping(address => uint256)",
        "numberOfBytes": "32",
        "value": "t_uint256"
      },
      "t_string_storage": {
        "encoding": "bytes",
        "label": "string",
        "numberOfBytes": "32"
      },
      "t_struct(Loan)1957_storage": {
        "encoding": "inplace",
        "label": "struct CToken.Loan",
        "members": [
          {
            "astId": 1954,
            "contract": "contracts/CToken.sol:CToken",
            "label": "principal",
            "offset": 0,
            "slot": "0",
            "type": "t_uint256"
          },
          {
            "astId": 1956,
            "contract": "contracts/CToken.sol:CToken",
            "label": "interestIndex",
            "offset": 0,
            "slot": "1",
            "type": "t_uint256"
          }
        ],
        "numberOfBytes": "64"
      },
      "t_uint256": {
        "encoding": "inplace",
        "label": "uint256",
        "numberOfBytes": "32"
      },
      "t_uint8": {
        "encoding": "inplace",
        "label": "uint8",
        "numberOfBytes": "1"
      }
    }
  }
}