{
  "contractName": "ERC1155TokenExchange",
  "abi": [
    {
      "inputs": [],
      "stateMutability": "nonpayable",
      "type": "constructor"
    },
    {
      "anonymous": false,
      "inputs": [
        {
          "indexed": false,
          "internalType": "uint256",
          "name": "offerId",
          "type": "uint256"
        }
      ],
      "name": "ERC1155TokenBuyingOfferCanceled",
      "type": "event"
    },
    {
      "anonymous": false,
      "inputs": [
        {
          "indexed": false,
          "internalType": "uint256",
          "name": "offerId",
          "type": "uint256"
        }
      ],
      "name": "ERC1155TokenBuyingOfferPlaced",
      "type": "event"
    },
    {
      "anonymous": false,
      "inputs": [
        {
          "indexed": false,
          "internalType": "uint256",
          "name": "exchangeId",
          "type": "uint256"
        },
        {
          "indexed": false,
          "internalType": "uint256",
          "name": "initialOfferId",
          "type": "uint256"
        }
      ],
      "name": "ERC1155TokenExchangeCreated",
      "type": "event"
    },
    {
      "anonymous": false,
      "inputs": [
        {
          "indexed": false,
          "internalType": "uint256",
          "name": "offerId",
          "type": "uint256"
        }
      ],
      "name": "ERC1155TokenFromOfferBought",
      "type": "event"
    },
    {
      "anonymous": false,
      "inputs": [
        {
          "indexed": false,
          "internalType": "uint256",
          "name": "offerId",
          "type": "uint256"
        }
      ],
      "name": "ERC1155TokenFromOfferSold",
      "type": "event"
    },
    {
      "anonymous": false,
      "inputs": [
        {
          "indexed": false,
          "internalType": "uint256",
          "name": "offerId",
          "type": "uint256"
        }
      ],
      "name": "ERC1155TokenSellingOfferCanceled",
      "type": "event"
    },
    {
      "anonymous": false,
      "inputs": [
        {
          "indexed": false,
          "internalType": "uint256",
          "name": "offerId",
          "type": "uint256"
        }
      ],
      "name": "ERC1155TokenSellingOfferPlaced",
      "type": "event"
    },
    {
      "inputs": [
        {
          "internalType": "address",
          "name": "",
          "type": "address"
        },
        {
          "internalType": "address",
          "name": "",
          "type": "address"
        },
        {
          "internalType": "uint256[]",
          "name": "",
          "type": "uint256[]"
        },
        {
          "internalType": "uint256[]",
          "name": "",
          "type": "uint256[]"
        },
        {
          "internalType": "bytes",
          "name": "",
          "type": "bytes"
        }
      ],
      "name": "onERC1155BatchReceived",
      "outputs": [
        {
          "internalType": "bytes4",
          "name": "",
          "type": "bytes4"
        }
      ],
      "stateMutability": "nonpayable",
      "type": "function"
    },
    {
      "inputs": [
        {
          "internalType": "address",
          "name": "",
          "type": "address"
        },
        {
          "internalType": "address",
          "name": "",
          "type": "address"
        },
        {
          "internalType": "uint256",
          "name": "",
          "type": "uint256"
        },
        {
          "internalType": "uint256",
          "name": "",
          "type": "uint256"
        },
        {
          "internalType": "bytes",
          "name": "",
          "type": "bytes"
        }
      ],
      "name": "onERC1155Received",
      "outputs": [
        {
          "internalType": "bytes4",
          "name": "",
          "type": "bytes4"
        }
      ],
      "stateMutability": "nonpayable",
      "type": "function"
    },
    {
      "inputs": [
        {
          "internalType": "bytes4",
          "name": "interfaceId",
          "type": "bytes4"
        }
      ],
      "name": "supportsInterface",
      "outputs": [
        {
          "internalType": "bool",
          "name": "",
          "type": "bool"
        }
      ],
      "stateMutability": "view",
      "type": "function",
      "constant": true
    },
    {
      "inputs": [],
      "name": "getErc1155ExchangeCount",
      "outputs": [
        {
          "internalType": "uint256",
          "name": "",
          "type": "uint256"
        }
      ],
      "stateMutability": "view",
      "type": "function",
      "constant": true
    },
    {
      "inputs": [],
      "name": "getErc1155OfferCount",
      "outputs": [
        {
          "internalType": "uint256",
          "name": "",
          "type": "uint256"
        }
      ],
      "stateMutability": "view",
      "type": "function",
      "constant": true
    },
    {
      "inputs": [],
      "name": "getErc1155ExchangeAll",
      "outputs": [
        {
          "components": [
            {
              "internalType": "string",
              "name": "exchangeName",
              "type": "string"
            },
            {
              "internalType": "address",
              "name": "creatorAddress",
              "type": "address"
            },
            {
              "internalType": "address",
              "name": "exchangeTokenAddress",
              "type": "address"
            },
            {
              "internalType": "address",
              "name": "offerTokenAddress",
              "type": "address"
            },
            {
              "internalType": "uint256",
              "name": "initialAmount",
              "type": "uint256"
            },
            {
              "internalType": "uint256",
              "name": "price",
              "type": "uint256"
            }
          ],
          "internalType": "struct ERC1155TokenExchange.ERC1155Exchange[]",
          "name": "",
          "type": "tuple[]"
        }
      ],
      "stateMutability": "view",
      "type": "function",
      "constant": true
    },
    {
      "inputs": [],
      "name": "getErc1155OfferAll",
      "outputs": [
        {
          "components": [
            {
              "internalType": "uint256",
              "name": "exchangeId",
              "type": "uint256"
            },
            {
              "internalType": "uint256",
              "name": "offerId",
              "type": "uint256"
            },
            {
              "internalType": "string",
              "name": "offerType",
              "type": "string"
            },
            {
              "internalType": "address",
              "name": "creatorAddress",
              "type": "address"
            },
            {
              "internalType": "uint256",
              "name": "tokenId",
              "type": "uint256"
            },
            {
              "internalType": "uint256",
              "name": "amount",
              "type": "uint256"
            },
            {
              "internalType": "uint256",
              "name": "price",
              "type": "uint256"
            }
          ],
          "internalType": "struct ERC1155TokenExchange.ERC1155Offer[]",
          "name": "",
          "type": "tuple[]"
        }
      ],
      "stateMutability": "view",
      "type": "function",
      "constant": true
    },
    {
      "inputs": [
        {
          "internalType": "uint256",
          "name": "_exchangeId",
          "type": "uint256"
        }
      ],
      "name": "getErc1155ExchangeById",
      "outputs": [
        {
          "components": [
            {
              "internalType": "string",
              "name": "exchangeName",
              "type": "string"
            },
            {
              "internalType": "address",
              "name": "creatorAddress",
              "type": "address"
            },
            {
              "internalType": "address",
              "name": "exchangeTokenAddress",
              "type": "address"
            },
            {
              "internalType": "address",
              "name": "offerTokenAddress",
              "type": "address"
            },
            {
              "internalType": "uint256",
              "name": "initialAmount",
              "type": "uint256"
            },
            {
              "internalType": "uint256",
              "name": "price",
              "type": "uint256"
            }
          ],
          "internalType": "struct ERC1155TokenExchange.ERC1155Exchange",
          "name": "",
          "type": "tuple"
        }
      ],
      "stateMutability": "view",
      "type": "function",
      "constant": true
    },
    {
      "inputs": [
        {
          "internalType": "uint256",
          "name": "_offerId",
          "type": "uint256"
        }
      ],
      "name": "getErc1155OfferById",
      "outputs": [
        {
          "components": [
            {
              "internalType": "uint256",
              "name": "exchangeId",
              "type": "uint256"
            },
            {
              "internalType": "uint256",
              "name": "offerId",
              "type": "uint256"
            },
            {
              "internalType": "string",
              "name": "offerType",
              "type": "string"
            },
            {
              "internalType": "address",
              "name": "creatorAddress",
              "type": "address"
            },
            {
              "internalType": "uint256",
              "name": "tokenId",
              "type": "uint256"
            },
            {
              "internalType": "uint256",
              "name": "amount",
              "type": "uint256"
            },
            {
              "internalType": "uint256",
              "name": "price",
              "type": "uint256"
            }
          ],
          "internalType": "struct ERC1155TokenExchange.ERC1155Offer",
          "name": "",
          "type": "tuple"
        }
      ],
      "stateMutability": "view",
      "type": "function",
      "constant": true
    },
    {
      "inputs": [
        {
          "components": [
            {
              "internalType": "string",
              "name": "exchangeName",
              "type": "string"
            },
            {
              "internalType": "address",
              "name": "exchangeTokenAddress",
              "type": "address"
            },
            {
              "internalType": "address",
              "name": "offerTokenAddress",
              "type": "address"
            },
            {
              "internalType": "uint256",
              "name": "tokenId",
              "type": "uint256"
            },
            {
              "internalType": "uint256",
              "name": "amount",
              "type": "uint256"
            },
            {
              "internalType": "uint256",
              "name": "price",
              "type": "uint256"
            }
          ],
          "internalType": "struct ERC1155TokenExchange.CreateERC1155TokenExchangeRequest",
          "name": "input",
          "type": "tuple"
        },
        {
          "internalType": "address",
          "name": "caller",
          "type": "address"
        }
      ],
      "name": "CreateERC1155TokenExchange",
      "outputs": [],
      "stateMutability": "nonpayable",
      "type": "function"
    },
    {
      "inputs": [
        {
          "components": [
            {
              "internalType": "uint256",
              "name": "exchangeId",
              "type": "uint256"
            },
            {
              "internalType": "uint256",
              "name": "tokenId",
              "type": "uint256"
            },
            {
              "internalType": "uint256",
              "name": "amount",
              "type": "uint256"
            },
            {
              "internalType": "uint256",
              "name": "price",
              "type": "uint256"
            }
          ],
          "internalType": "struct ERC1155TokenExchange.PlaceERC1155TokenOfferRequest",
          "name": "input",
          "type": "tuple"
        },
        {
          "internalType": "address",
          "name": "caller",
          "type": "address"
        }
      ],
      "name": "PlaceERC1155TokenBuyingOffer",
      "outputs": [],
      "stateMutability": "nonpayable",
      "type": "function"
    },
    {
      "inputs": [
        {
          "components": [
            {
              "internalType": "uint256",
              "name": "exchangeId",
              "type": "uint256"
            },
            {
              "internalType": "uint256",
              "name": "tokenId",
              "type": "uint256"
            },
            {
              "internalType": "uint256",
              "name": "amount",
              "type": "uint256"
            },
            {
              "internalType": "uint256",
              "name": "price",
              "type": "uint256"
            }
          ],
          "internalType": "struct ERC1155TokenExchange.PlaceERC1155TokenOfferRequest",
          "name": "input",
          "type": "tuple"
        },
        {
          "internalType": "address",
          "name": "caller",
          "type": "address"
        }
      ],
      "name": "PlaceERC1155TokenSellingOffer",
      "outputs": [],
      "stateMutability": "nonpayable",
      "type": "function"
    },
    {
      "inputs": [
        {
          "components": [
            {
              "internalType": "uint256",
              "name": "exchangeId",
              "type": "uint256"
            },
            {
              "internalType": "uint256",
              "name": "offerId",
              "type": "uint256"
            }
          ],
          "internalType": "struct ERC1155TokenExchange.CancelOfferRequest",
          "name": "input",
          "type": "tuple"
        },
        {
          "internalType": "address",
          "name": "caller",
          "type": "address"
        }
      ],
      "name": "CancelERC1155TokenBuyingOffer",
      "outputs": [],
      "stateMutability": "nonpayable",
      "type": "function"
    },
    {
      "inputs": [
        {
          "components": [
            {
              "internalType": "uint256",
              "name": "exchangeId",
              "type": "uint256"
            },
            {
              "internalType": "uint256",
              "name": "offerId",
              "type": "uint256"
            }
          ],
          "internalType": "struct ERC1155TokenExchange.CancelOfferRequest",
          "name": "input",
          "type": "tuple"
        },
        {
          "internalType": "address",
          "name": "caller",
          "type": "address"
        }
      ],
      "name": "CancelERC1155TokenSellingOffer",
      "outputs": [],
      "stateMutability": "nonpayable",
      "type": "function"
    },
    {
      "inputs": [
        {
          "components": [
            {
              "internalType": "uint256",
              "name": "exchangeId",
              "type": "uint256"
            },
            {
              "internalType": "uint256",
              "name": "offerId",
              "type": "uint256"
            }
          ],
          "internalType": "struct ERC1155TokenExchange.OfferRequest",
          "name": "input",
          "type": "tuple"
        },
        {
          "internalType": "address",
          "name": "caller",
          "type": "address"
        }
      ],
      "name": "BuyERC1155TokenFromOffer",
      "outputs": [],
      "stateMutability": "nonpayable",
      "type": "function"
    },
    {
      "inputs": [
        {
          "components": [
            {
              "internalType": "uint256",
              "name": "exchangeId",
              "type": "uint256"
            },
            {
              "internalType": "uint256",
              "name": "offerId",
              "type": "uint256"
            }
          ],
          "internalType": "struct ERC1155TokenExchange.OfferRequest",
          "name": "input",
          "type": "tuple"
        },
        {
          "internalType": "address",
          "name": "caller",
          "type": "address"
        }
      ],
      "name": "SellERC1155TokenFromOffer",
      "outputs": [],
      "stateMutability": "nonpayable",
      "type": "function"
    }
  ],
  "bytecode": "0x608060405234801561001057600080fd5b50600080805560015561359b806100286000396000f3fe608060405234801561001057600080fd5b50600436106101005760003560e01c8063b84304c911610097578063e71c642d11610066578063e71c642d1461022a578063f098c4041461024a578063f23a6e611461025d578063f61af9711461027c57600080fd5b8063b84304c9146101b7578063bc197c81146101cc578063ce64c6f114610204578063dd9c7f1c1461021757600080fd5b8063428d994e116100d3578063428d994e146101775780638b17a3a214610189578063926396d61461019c578063965ff2b0146101af57600080fd5b806301ffc9a7146101055780630b5d8fca1461012d5780630fd4092d1461014d57806332a6a99b14610162575b600080fd5b610118610113366004612fd9565b61028f565b60405190151581526020015b60405180910390f35b61014061013b366004613176565b6102c6565b60405161012491906133b6565b61016061015b366004613001565b6103ca565b005b61016a6109d9565b604051610124919061334f565b6001545b604051908152602001610124565b610160610197366004613001565b610b92565b6101606101aa366004613001565b61125a565b60005461017b565b6101bf611723565b60405161012491906132ee565b6101eb6101da366004612eb0565b63bc197c8160e01b95945050505050565b6040516001600160e01b03199091168152602001610124565b6101606102123660046130fb565b6118cb565b610160610225366004613034565b611d1c565b61023d610238366004613176565b612243565b60405161012491906133a3565b610160610258366004613001565b61233c565b6101eb61026b366004612f56565b63f23a6e6160e01b95945050505050565b61016061028a3660046130fb565b612835565b60006001600160e01b03198216630271189760e51b14806102c057506301ffc9a760e01b6001600160e01b03198316145b92915050565b6102ce612bd8565b600360008381526020019081526020016000206040518060e0016040529081600082015481526020016001820154815260200160028201805461031090613489565b80601f016020809104026020016040519081016040528092919081815260200182805461033c90613489565b80156103895780601f1061035e57610100808354040283529160200191610389565b820191906000526020600020905b81548152906001019060200180831161036c57829003601f168201915b505050918352505060038201546001600160a01b03166020820152600482015460408201526005820154606082015260069091015460809091015292915050565b600060036000846020015181526020019081526020016000206040518060e0016040529081600082015481526020016001820154815260200160028201805461041290613489565b80601f016020809104026020016040519081016040528092919081815260200182805461043e90613489565b801561048b5780601f106104605761010080835404028352916020019161048b565b820191906000526020600020905b81548152906001019060200180831161046e57829003601f168201915b50505091835250506003828101546001600160a01b0390811660208085019190915260048501546040808601919091526005860154606086015260069095015460809094019390935287516000908152600293849052848120909201548851835293909120909101548651845194955092821693911691146105765760405162461bcd60e51b8152602060048201526045602482015260008051602061352683398151915260448201527f6d4f666665723a2073686f756c64206265207468652073616d652065786368616064820152641b99d9525960da1b608482015260a4015b60405180910390fd5b6040516314d1531360e21b60208201526024016040516020818303038152906040528051906020012083604001516040516020016105b4919061329a565b60405160208183030381529060405280519060200120146106375760405162461bcd60e51b8152602060048201526043602482015260008051602061352683398151915260448201527f6d4f666665723a2073686f756c64206265207468652073656c6c696e67206f666064820152623332b960e91b608482015260a40161056d565b8260a001518360c0015161064b9190613423565b6040516370a0823160e01b81526001600160a01b0386811660048301528416906370a082319060240160206040518083038186803b15801561068c57600080fd5b505afa1580156106a0573d6000803e3d6000fd5b505050506040513d601f19601f820116820180604052508101906106c4919061318e565b10156107345760405162461bcd60e51b8152602060048201526045602482015260008051602061352683398151915260448201527f6d4f666665723a20796f7520646f6e2774206861766520656e6f7567682062616064820152646c616e636560d81b608482015260a40161056d565b60a08301516080840151604051627eeac760e11b815230600482015260248101919091526001600160a01b0383169062fdd58e9060440160206040518083038186803b15801561078357600080fd5b505afa158015610797573d6000803e3d6000fd5b505050506040513d601f19601f820116820180604052508101906107bb919061318e565b10156108285760405162461bcd60e51b8152602060048201526042602482015260008051602061352683398151915260448201527f6d4f666665723a20596f75722062616c616e6365206973206e6f7420656e6f756064820152610ced60f31b608482015260a40161056d565b816001600160a01b03166323b872dd8585606001518660a001518760c001516108519190613423565b6040516001600160e01b031960e086901b1681526001600160a01b0393841660048201529290911660248301526044820152606401602060405180830381600087803b1580156108a057600080fd5b505af11580156108b4573d6000803e3d6000fd5b505050506040513d601f19601f820116820180604052508101906108d89190612fb9565b50608083015160a0840151604051637921219560e11b81526001600160a01b0384169263f242432a926109139230928a9290916004016132b6565b600060405180830381600087803b15801561092d57600080fd5b505af1158015610941573d6000803e3d6000fd5b50505060208087015160009081526003909152604081208181556001810182905591506109716002830182612c1e565b506003810180546001600160a01b0319169055600060048201819055600582018190556006909101556020858101516040519081527f50b4164b02602e7111f2a24c6e49b8ba5024a2e7b7f6e2627a0dd7b44c8b589891015b60405180910390a15050505050565b6060600060015467ffffffffffffffff811115610a0657634e487b7160e01b600052604160045260246000fd5b604051908082528060200260200182016040528015610a3f57816020015b610a2c612bd8565b815260200190600190039081610a245790505b50905060015b6001548111610b8c57600360008281526020019081526020016000206040518060e00160405290816000820154815260200160018201548152602001600282018054610a9090613489565b80601f0160208091040260200160405190810160405280929190818152602001828054610abc90613489565b8015610b095780601f10610ade57610100808354040283529160200191610b09565b820191906000526020600020905b815481529060010190602001808311610aec57829003601f168201915b505050918352505060038201546001600160a01b03166020820152600482015460408201526005820154606082015260069091015460809091015282610b50600184613442565b81518110610b6e57634e487b7160e01b600052603260045260246000fd5b60200260200101819052508080610b84906134be565b915050610a45565b50919050565b600060036000846020015181526020019081526020016000206040518060e00160405290816000820154815260200160018201548152602001600282018054610bda90613489565b80601f0160208091040260200160405190810160405280929190818152602001828054610c0690613489565b8015610c535780601f10610c2857610100808354040283529160200191610c53565b820191906000526020600020905b815481529060010190602001808311610c3657829003601f168201915b50505091835250506003828101546001600160a01b039081166020808501919091526004850154604080860191909152600586015460608601526006909501546080909401939093528751600090815260029384905284812090920154885183529390912090910154865184519495509282169391169114610d3a5760405162461bcd60e51b8152602060048201526046602482015260008051602061354683398151915260448201527f6f6d4f666665723a2073686f756c64206265207468652073616d652065786368606482015265185b99d9525960d21b608482015260a40161056d565b6040516242555960e81b6020820152602301604051602081830303815290604052805190602001208360400151604051602001610d77919061329a565b6040516020818303038152906040528051906020012014610dfa5760405162461bcd60e51b8152602060048201526043602482015260008051602061354683398151915260448201527f6f6d4f666665723a2073686f756c642062652074686520627579696e67206f666064820152623332b960e91b608482015260a40161056d565b8260a001518360c00151610e0e9190613423565b6040516370a0823160e01b81523060048201526001600160a01b038416906370a082319060240160206040518083038186803b158015610e4d57600080fd5b505afa158015610e61573d6000803e3d6000fd5b505050506040513d601f19601f82011682018060405250810190610e85919061318e565b1015610ef65760405162461bcd60e51b8152602060048201526046602482015260008051602061354683398151915260448201527f6f6d4f666665723a20796f7520646f6e2774206861766520656e6f7567682062606482015265616c616e636560d01b608482015260a40161056d565b60a08301516080840151604051627eeac760e11b81526001600160a01b03878116600483015260248201929092529083169062fdd58e9060440160206040518083038186803b158015610f4857600080fd5b505afa158015610f5c573d6000803e3d6000fd5b505050506040513d601f19601f82011682018060405250810190610f80919061318e565b1015610fe25760405162461bcd60e51b815260206004820152603e602482015260008051602061354683398151915260448201527f6f6d4f6666653a206e65656420746f206f776e207468697320746f6b656e0000606482015260840161056d565b60405163e985e9c560e01b81526001600160a01b03858116600483015230602483015282169063e985e9c59060440160206040518083038186803b15801561102957600080fd5b505afa15801561103d573d6000803e3d6000fd5b505050506040513d601f19601f820116820180604052508101906110619190612fb9565b6110c15760405162461bcd60e51b815260206004820152603f602482015260008051602061354683398151915260448201527f6f6d4f6666653a204f776e657220686173206e6f7420617070726f7665643200606482015260840161056d565b816001600160a01b031663a9059cbb858560a001518660c001516110e59190613423565b6040516001600160e01b031960e085901b1681526001600160a01b0390921660048301526024820152604401602060405180830381600087803b15801561112b57600080fd5b505af115801561113f573d6000803e3d6000fd5b505050506040513d601f19601f820116820180604052508101906111639190612fb9565b506060830151608084015160a0850151604051637921219560e11b81526001600160a01b0385169363f242432a9361119f938a936004016132b6565b600060405180830381600087803b1580156111b957600080fd5b505af11580156111cd573d6000803e3d6000fd5b50505060208087015160009081526003909152604081208181556001810182905591506111fd6002830182612c1e565b506003810180546001600160a01b0319169055600060048201819055600582018190556006909101556020858101516040519081527ffe20cd978da588cbe56a87fb6687ded2bcba108610a72d54c0788dcd613f4e2b91016109ca565b600060036000846020015181526020019081526020016000206040518060e001604052908160008201548152602001600182015481526020016002820180546112a290613489565b80601f01602080910402602001604051908101604052809291908181526020018280546112ce90613489565b801561131b5780601f106112f05761010080835404028352916020019161131b565b820191906000526020600020905b8154815290600101906020018083116112fe57829003601f168201915b505050918352505060038201546001600160a01b039081166020808401919091526004840154604080850191909152600585015460608086019190915260069095015460809094019390935287516000908152600291829052929092209091015491830151929350908116918116908416146113ed5760405162461bcd60e51b815260206004820152603d602482015260008051602061350683398151915260448201527f53656c6c696e674f666665723a2073686f756c64206265206f776e6572000000606482015260840161056d565b83518251146114665760405162461bcd60e51b815260206004820152604b602482015260008051602061350683398151915260448201527f53656c6c696e674f666665723a2073686f756c64206265207468652073616d6560648201526a08195e18da185b99d9525960aa1b608482015260a40161056d565b6040516314d1531360e21b60208201526024016040516020818303038152906040528051906020012082604001516040516020016114a4919061329a565b604051602081830303815290604052805190602001201461152d5760405162461bcd60e51b8152602060048201526049602482015260008051602061350683398151915260448201527f53656c6c696e674f666665723a2073686f756c64206265207468652073656c6c60648201526834b7339037b33332b960b91b608482015260a40161056d565b60a08201516080830151604051627eeac760e11b815230600482015260248101919091526001600160a01b0383169062fdd58e9060440160206040518083038186803b15801561157c57600080fd5b505afa158015611590573d6000803e3d6000fd5b505050506040513d601f19601f820116820180604052508101906115b4919061318e565b10156116245760405162461bcd60e51b815260206004820152604460248201819052600080516020613506833981519152908201527f53656c6c696e674f666665723a206e65656420746f206f776e2074686973207460648201526337b5b2b760e11b608482015260a40161056d565b608082015160a0830151604051637921219560e11b81526001600160a01b0384169263f242432a9261165e923092899290916004016132b6565b600060405180830381600087803b15801561167857600080fd5b505af115801561168c573d6000803e3d6000fd5b50505060208086015160009081526003909152604081208181556001810182905591506116bc6002830182612c1e565b506003810180546001600160a01b0319169055600060048201819055600582018190556006909101556020848101516040519081527f1327c6623bbeb5d045cf2fbf014223e0c326c7d1c40c22762a7ef4b591b171cb91015b60405180910390a150505050565b60606000805467ffffffffffffffff81111561174f57634e487b7160e01b600052604160045260246000fd5b60405190808252806020026020018201604052801561178857816020015b611775612c5b565b81526020019060019003908161176d5790505b50905060015b6000548111610b8c5760008181526002602052604090819020815160c081019092528054829082906117bf90613489565b80601f01602080910402602001604051908101604052809291908181526020018280546117eb90613489565b80156118385780601f1061180d57610100808354040283529160200191611838565b820191906000526020600020905b81548152906001019060200180831161181b57829003601f168201915b50505091835250506001828101546001600160a01b03908116602084015260028401548116604084015260038401541660608301526004830154608083015260059092015460a090910152839061188f9084613442565b815181106118ad57634e487b7160e01b600052603260045260246000fd5b602002602001018190525080806118c3906134be565b91505061178e565b81516000908152600260208181526040928390209091015482850151918501519251627eeac760e11b81526001600160a01b0385811660048301526024820194909452921691829062fdd58e9060440160206040518083038186803b15801561193357600080fd5b505afa158015611947573d6000803e3d6000fd5b505050506040513d601f19601f8201168201806040525081019061196b919061318e565b10156119ef5760405162461bcd60e51b815260206004820152604760248201527f546f6b656e45786368616e67652e506c61636545524331313535546f6b656e5360448201527f656c6c696e674f666665723a20596f75722062616c616e6365206973206e6f74606482015266040cadcdeeaced60cb1b608482015260a40161056d565b6000836060015111611a845760405162461bcd60e51b815260206004820152605260248201527f546f6b656e45786368616e67652e506c61636545524331313535546f6b656e5360448201527f656c6c696e674f666665723a2070726963652063616e2774206265206c6f776560648201527172206f7220657175616c20746f207a65726f60701b608482015260a40161056d565b60405163e985e9c560e01b81526001600160a01b03838116600483015230602483015282169063e985e9c59060440160206040518083038186803b158015611acb57600080fd5b505afa158015611adf573d6000803e3d6000fd5b505050506040513d601f19601f82011682018060405250810190611b039190612fb9565b611b815760405162461bcd60e51b815260206004820152604360248201527f546f6b656e45786368616e67652e506c61636545524331313535546f6b656e5360448201527f656c6c696e674f666665723a204f776e657220686173206e6f7420617070726f6064820152621d995960ea1b608482015260a40161056d565b60208301516040808501519051637921219560e11b81526001600160a01b0384169263f242432a92611bbb928792309290916004016132b6565b600060405180830381600087803b158015611bd557600080fd5b505af1158015611be9573d6000803e3d6000fd5b50505050611bf5612bd8565b83518152604080518082018252600481526314d1531360e21b602080830191909152828401919091526001600160a01b0385166060808501919091529086015160808401529085015160a083015284015160c082015260018054906000611c5b836134be565b909155505060018054602080840182815260009283526003825260409283902085518155905193810193909355908301518051849392611ca2926002850192910190612cac565b5060608201516003820180546001600160a01b0319166001600160a01b039092169190911790556080820151600482015560a0820151600582015560c0909101516006909101556001546040519081527f67c3640a392c50ccf0b9011992228d3c272efaae1a204fa3284eb189fdfe765390602001611715565b602082015160808301516060840151604051627eeac760e11b81526001600160a01b03858116600483015260248201929092529083169062fdd58e9060440160206040518083038186803b158015611d7357600080fd5b505afa158015611d87573d6000803e3d6000fd5b505050506040513d601f19601f82011682018060405250810190611dab919061318e565b1015611e2d5760405162461bcd60e51b8152602060048201526044602482018190527f546f6b656e45786368616e67652e43726561746545524331313535546f6b656e908201527f45786368616e67653a20596f75722062616c616e6365206973206e6f7420656e6064820152630deeaced60e31b608482015260a40161056d565b60008360a0015111611ebf5760405162461bcd60e51b815260206004820152604f60248201527f546f6b656e45786368616e67652e43726561746545524331313535546f6b656e60448201527f45786368616e67653a2070726963652063616e2774206265206c6f776572206f60648201526e7220657175616c20746f207a65726f60881b608482015260a40161056d565b60405163e985e9c560e01b81526001600160a01b03838116600483015230602483015282169063e985e9c59060440160206040518083038186803b158015611f0657600080fd5b505afa158015611f1a573d6000803e3d6000fd5b505050506040513d601f19601f82011682018060405250810190611f3e9190612fb9565b611fb2576040805162461bcd60e51b81526020600482015260248101919091527f546f6b656e45786368616e67652e43726561746545524331313535546f6b656e60448201527f45786368616e67653a204f776e657220686173206e6f7420617070726f766564606482015260840161056d565b60608301516080840151604051637921219560e11b81526001600160a01b0384169263f242432a92611fec928792309290916004016132b6565b600060405180830381600087803b15801561200657600080fd5b505af115801561201a573d6000803e3d6000fd5b50505050612026612c5b565b835181526001600160a01b0380841660208084019190915285015181166040808401919091528501511660608201526080808501519082015260a08085015190820152600080549080612078836134be565b90915550506000805481526002602090815260409091208251805184936120a3928492910190612cac565b5060208201516001820180546001600160a01b039283166001600160a01b031991821617909155604084015160028401805491841691831691909117905560608401516003840180549190931691161790556080820151600482015560a090910151600590910155612113612bd8565b600080548252604080518082018252600481526314d1531360e21b6020820152908301526001600160a01b03851660608084019190915286015160808084019190915286015160a08084019190915283015160c08301526001805491612178836134be565b9091555050600180546020808401828152600092835260038252604092839020855181559051938101939093559083015180518493926121bf926002850192910190612cac565b5060608201516003820180546001600160a01b0319166001600160a01b039092169190911790556080820151600482015560a0820151600582015560c0909101516006909101556000546001546040805192835260208301919091527fc8836fbc470fd09ba5472ccadef55894187c95b7179721fee872293d3df3666091016109ca565b61224b612c5b565b60008281526002602052604090819020815160c0810190925280548290829061227390613489565b80601f016020809104026020016040519081016040528092919081815260200182805461229f90613489565b80156122ec5780601f106122c1576101008083540402835291602001916122ec565b820191906000526020600020905b8154815290600101906020018083116122cf57829003601f168201915b505050918352505060018201546001600160a01b03908116602083015260028301548116604083015260038301541660608201526004820154608082015260059091015460a09091015292915050565b600060036000846020015181526020019081526020016000206040518060e0016040529081600082015481526020016001820154815260200160028201805461238490613489565b80601f01602080910402602001604051908101604052809291908181526020018280546123b090613489565b80156123fd5780601f106123d2576101008083540402835291602001916123fd565b820191906000526020600020905b8154815290600101906020018083116123e057829003601f168201915b50505091835250506003828101546001600160a01b039081166020808501919091526004850154604080860191909152600586015460608087019190915260069096015460809095019490945288516000908152600290915292909220015491830151929350908116918116908416146124cd5760405162461bcd60e51b815260206004820152603c602482015260008051602061350683398151915260448201527f427579696e674f666665723a2073686f756c64206265206f776e657200000000606482015260840161056d565b83518251146125455760405162461bcd60e51b815260206004820152604a602482015260008051602061350683398151915260448201527f427579696e674f666665723a2073686f756c64206265207468652073616d6520606482015269195e18da185b99d9525960b21b608482015260a40161056d565b6040516242555960e81b6020820152602301604051602081830303815290604052805190602001208260400151604051602001612582919061329a565b60405160208183030381529060405280519060200120146126095760405162461bcd60e51b8152602060048201526047602482015260008051602061350683398151915260448201527f427579696e674f666665723a2073686f756c642062652074686520627579696e606482015266339037b33332b960c91b608482015260a40161056d565b8160a001518260c0015161261d9190613423565b6040516370a0823160e01b81523060048201526001600160a01b038316906370a082319060240160206040518083038186803b15801561265c57600080fd5b505afa158015612670573d6000803e3d6000fd5b505050506040513d601f19601f82011682018060405250810190612694919061318e565b10156127095760405162461bcd60e51b815260206004820152604a602482015260008051602061350683398151915260448201527f427579696e674f666665723a20796f7520646f6e2774206861766520656e6f7560648201526967682062616c616e636560b01b608482015260a40161056d565b806001600160a01b031663a9059cbb848460a001518560c0015161272d9190613423565b6040516001600160e01b031960e085901b1681526001600160a01b0390921660048301526024820152604401602060405180830381600087803b15801561277357600080fd5b505af1158015612787573d6000803e3d6000fd5b505050506040513d601f19601f820116820180604052508101906127ab9190612fb9565b50602080850151600090815260039091526040812081815560018101829055906127d86002830182612c1e565b506003810180546001600160a01b0319169055600060048201819055600582018190556006909101556020848101516040519081527f22e07ff395383cea292730d6f7a4806c49cea77c60fc66e808f526e1fb4365569101611715565b815160009081526002602052604090819020600301549083015160608401516001600160a01b039092169161286a9190613423565b6040516370a0823160e01b81526001600160a01b0384811660048301528316906370a082319060240160206040518083038186803b1580156128ab57600080fd5b505afa1580156128bf573d6000803e3d6000fd5b505050506040513d601f19601f820116820180604052508101906128e3919061318e565b10156129695760405162461bcd60e51b815260206004820152604960248201527f546f6b656e45786368616e67652e506c61636545524331313535546f6b656e4260448201527f7579696e674f666665723a20796f7520646f6e2774206861766520656e6f7567606482015268682062616c616e636560b81b608482015260a40161056d565b60008360600151116129fd5760405162461bcd60e51b815260206004820152605160248201527f546f6b656e45786368616e67652e506c61636545524331313535546f6b656e4260448201527f7579696e674f666665723a2070726963652063616e2774206265206c6f776572606482015270206f7220657175616c20746f207a65726f60781b608482015260a40161056d565b806001600160a01b03166323b872dd833086604001518760600151612a229190613423565b6040516001600160e01b031960e086901b1681526001600160a01b0393841660048201529290911660248301526044820152606401602060405180830381600087803b158015612a7157600080fd5b505af1158015612a85573d6000803e3d6000fd5b505050506040513d601f19601f82011682018060405250810190612aa99190612fb9565b50612ab2612bd8565b83518152604080518082018252600381526242555960e81b602080830191909152828401919091526001600160a01b0385166060808501919091529086015160808401529085015160a083015284015160c082015260018054906000612b17836134be565b909155505060018054602080840182815260009283526003825260409283902085518155905193810193909355908301518051849392612b5e926002850192910190612cac565b5060608201516003820180546001600160a01b0319166001600160a01b039092169190911790556080820151600482015560a0820151600582015560c0909101516006909101556001546040519081527f74086dddea2466dc0b72647c02e04625df621166096006197da8bb7de4b60eeb90602001611715565b6040518060e0016040528060008152602001600081526020016060815260200160006001600160a01b031681526020016000815260200160008152602001600081525090565b508054612c2a90613489565b6000825580601f10612c3a575050565b601f016020900490600052602060002090810190612c589190612d30565b50565b6040518060c001604052806060815260200160006001600160a01b0316815260200160006001600160a01b0316815260200160006001600160a01b0316815260200160008152602001600081525090565b828054612cb890613489565b90600052602060002090601f016020900481019282612cda5760008555612d20565b82601f10612cf357805160ff1916838001178555612d20565b82800160010185558215612d20579182015b82811115612d20578251825591602001919060010190612d05565b50612d2c929150612d30565b5090565b5b80821115612d2c5760008155600101612d31565b600067ffffffffffffffff831115612d5f57612d5f6134ef565b612d72601f8401601f19166020016133f2565b9050828152838383011115612d8657600080fd5b828260208301376000602084830101529392505050565b80356001600160a01b0381168114612db457600080fd5b919050565b600082601f830112612dc9578081fd5b8135602067ffffffffffffffff821115612de557612de56134ef565b8160051b612df48282016133f2565b838152828101908684018388018501891015612e0e578687fd5b8693505b85841015612e30578035835260019390930192918401918401612e12565b50979650505050505050565b600082601f830112612e4c578081fd5b612e5b83833560208501612d45565b9392505050565b600060408284031215612e73578081fd5b6040516040810181811067ffffffffffffffff82111715612e9657612e966134ef565b604052823581526020928301359281019290925250919050565b600080600080600060a08688031215612ec7578081fd5b612ed086612d9d565b9450612ede60208701612d9d565b9350604086013567ffffffffffffffff80821115612efa578283fd5b612f0689838a01612db9565b94506060880135915080821115612f1b578283fd5b612f2789838a01612db9565b93506080880135915080821115612f3c578283fd5b50612f4988828901612e3c565b9150509295509295909350565b600080600080600060a08688031215612f6d578081fd5b612f7686612d9d565b9450612f8460208701612d9d565b93506040860135925060608601359150608086013567ffffffffffffffff811115612fad578182fd5b612f4988828901612e3c565b600060208284031215612fca578081fd5b81518015158114612e5b578182fd5b600060208284031215612fea578081fd5b81356001600160e01b031981168114612e5b578182fd5b60008060608385031215613013578182fd5b61301d8484612e62565b915061302b60408401612d9d565b90509250929050565b60008060408385031215613046578182fd5b823567ffffffffffffffff8082111561305d578384fd5b9084019060c08287031215613070578384fd5b6130786133c9565b823582811115613086578586fd5b83019150601f82018713613098578485fd5b6130a787833560208501612d45565b81526130b560208401612d9d565b60208201526130c660408401612d9d565b6040820152606083013560608201526080830135608082015260a083013560a082015280945050505061302b60208401612d9d565b60008082840360a081121561310e578283fd5b608081121561311b578283fd5b506040516080810181811067ffffffffffffffff8211171561313f5761313f6134ef565b8060405250833581526020840135602082015260408401356040820152606084013560608201528092505061302b60808401612d9d565b600060208284031215613187578081fd5b5035919050565b60006020828403121561319f578081fd5b5051919050565b600081518084526131be816020860160208601613459565b601f01601f19169290920160200192915050565b6000815160c084526131e760c08501826131a6565b9050602083015160018060a01b03808216602087015280604086015116604087015280606086015116606087015250506080830151608085015260a083015160a08501528091505092915050565b80518252602081015160208301526000604082015160e0604085015261325e60e08501826131a6565b6060848101516001600160a01b0316908601526080808501519086015260a0848101519086015260c09384015193909401929092525090919050565b600082516132ac818460208701613459565b9190910192915050565b6001600160a01b0394851681529290931660208301526040820152606081019190915260a06080820181905260009082015260c00190565b6000602080830181845280855180835260408601915060408160051b8701019250838701855b8281101561334257603f198886030184526133308583516131d2565b94509285019290850190600101613314565b5092979650505050505050565b6000602080830181845280855180835260408601915060408160051b8701019250838701855b8281101561334257603f19888603018452613391858351613235565b94509285019290850190600101613375565b602081526000612e5b60208301846131d2565b602081526000612e5b6020830184613235565b60405160c0810167ffffffffffffffff811182821017156133ec576133ec6134ef565b60405290565b604051601f8201601f1916810167ffffffffffffffff8111828210171561341b5761341b6134ef565b604052919050565b600081600019048311821515161561343d5761343d6134d9565b500290565b600082821015613454576134546134d9565b500390565b60005b8381101561347457818101518382015260200161345c565b83811115613483576000848401525b50505050565b600181811c9082168061349d57607f821691505b60208210811415610b8c57634e487b7160e01b600052602260045260246000fd5b60006000198214156134d2576134d26134d9565b5060010190565b634e487b7160e01b600052601160045260246000fd5b634e487b7160e01b600052604160045260246000fdfe546f6b656e45786368616e67652e43616e63656c45524331313535546f6b656e546f6b656e45786368616e67652e42757945524331313535546f6b656e46726f546f6b656e45786368616e67652e53656c6c45524331313535546f6b656e4672a2646970667358221220aef78d8b11c987ba698a41ea0f4e9c892a8ed7e7774b6b3860add2e30f78213964736f6c63430008040033",
  "immutableReferences": {},
  "source": "// SPDX-License-Identifier: UNLICENSED\r\n\r\npragma solidity ^0.8.4;\r\nimport \"@openzeppelin/contracts/token/ERC20/IERC20.sol\";\r\nimport \"@openzeppelin/contracts/token/ERC1155/IERC1155.sol\";\r\nimport \"@openzeppelin/contracts/token/ERC1155/utils/ERC1155Holder.sol\";\r\n\r\n/**\r\n * @dev Exchange Contract for ERC1155 Token\r\n */\r\ncontract ERC1155TokenExchange is ERC1155Holder {\r\n    /**\r\n    * @dev Exchange struct for ERC1155 Token\r\n    */\r\n    struct ERC1155Exchange {\r\n        string exchangeName;\r\n        address creatorAddress;\r\n        address exchangeTokenAddress;\r\n        address offerTokenAddress;\r\n        uint initialAmount;\r\n        uint price;\r\n    }\r\n\r\n    /**\r\n    * @dev Offer struct for ERC1155 Token\r\n    */\r\n    struct ERC1155Offer {\r\n        uint exchangeId;\r\n        uint offerId;\r\n        string offerType;\r\n        address creatorAddress;\r\n        uint tokenId;\r\n        uint amount;\r\n        uint price;\r\n    }\r\n\r\n    /**\r\n    * @dev Request struct for creating ERC1155TokenExchange\r\n    */\r\n    struct CreateERC1155TokenExchangeRequest {\r\n        string exchangeName;\r\n        address exchangeTokenAddress;\r\n        address offerTokenAddress;\r\n        uint tokenId;\r\n        uint amount;\r\n        uint price;\r\n    }\r\n\r\n    /**\r\n    * @dev Request struct for Place ERC1155Token Offer\r\n    */\r\n    struct PlaceERC1155TokenOfferRequest {\r\n        uint exchangeId;\r\n        uint tokenId;\r\n        uint amount;\r\n        uint price;\r\n    }\r\n\r\n    /**\r\n    * @dev Request struct for cancel Exchange\r\n    */\r\n    struct CancelOfferRequest {\r\n        uint exchangeId;\r\n        uint offerId;\r\n    }\r\n\r\n    /**\r\n    * @dev Request struct for deal Exchange\r\n    */\r\n    struct OfferRequest {\r\n        uint exchangeId;\r\n        uint offerId;\r\n    }\r\n\r\n    /**\r\n    * @dev count variables for ERC1155Token exchange and offer mapping\r\n    */\r\n    uint internal _erc1155ExchangeCount;\r\n    uint internal _erc1155OfferCount;\r\n    \r\n    /**\r\n    * @dev variables for storing ERC1155Token Exchange and Offer\r\n    */\r\n    mapping(uint => ERC1155Exchange) internal _erc1155Exchanges;\r\n    mapping(uint => ERC1155Offer) internal _erc1155Offers;\r\n\r\n    // ----- EVENTS ----- //\r\n    event ERC1155TokenExchangeCreated(uint exchangeId, uint initialOfferId);\r\n    event ERC1155TokenBuyingOfferPlaced(uint offerId);\r\n    event ERC1155TokenSellingOfferPlaced(uint offerId);\r\n    event ERC1155TokenBuyingOfferCanceled(uint offerId);\r\n    event ERC1155TokenSellingOfferCanceled(uint offerId);\r\n    event ERC1155TokenFromOfferBought(uint offerId);\r\n    event ERC1155TokenFromOfferSold(uint offerId);\r\n\r\n    /**\r\n    * @dev Constructor Function\r\n    */\r\n    constructor() {\r\n        _erc1155ExchangeCount = 0;\r\n        _erc1155OfferCount = 0;\r\n    }\r\n\r\n    // ----- VIEWS ----- //\r\n    function getErc1155ExchangeCount() external view returns(uint){\r\n        return _erc1155ExchangeCount;\r\n    }\r\n\r\n    function getErc1155OfferCount() external view returns(uint){\r\n        return _erc1155OfferCount;\r\n    }\r\n\r\n    function getErc1155ExchangeAll() external view returns(ERC1155Exchange[] memory){\r\n        ERC1155Exchange[] memory exchanges = new ERC1155Exchange[](_erc1155ExchangeCount);\r\n        for(uint i = 1; i <= _erc1155ExchangeCount; i++)\r\n            exchanges[i-1] = _erc1155Exchanges[i];\r\n        return exchanges;\r\n    }\r\n\r\n    function getErc1155OfferAll() external view returns(ERC1155Offer[] memory){\r\n        ERC1155Offer[] memory offers = new ERC1155Offer[](_erc1155OfferCount);\r\n        for(uint i = 1; i <= _erc1155OfferCount; i++)\r\n            offers[i-1] = _erc1155Offers[i];\r\n        return offers;\r\n    }\r\n\r\n    function getErc1155ExchangeById(uint _exchangeId) external view returns(ERC1155Exchange memory){\r\n        return _erc1155Exchanges[_exchangeId];\r\n    }\r\n\r\n    function getErc1155OfferById(uint _offerId) external view returns(ERC1155Offer memory){\r\n        return _erc1155Offers[_offerId];\r\n    }\r\n\r\n    // ----- PUBLIC METHODS ----- //\r\n    /**\r\n    * @dev Owner of token can create Exchange of ERC1155\r\n    * @dev exchangeTokenAddress address of exchangeToken(ERC1155) \r\n    * @dev offerTokenAddress address of exchangeToken(ERC1155) \r\n    * @dev tokenId ERC1155 token id of Exchange\r\n    * @dev amount amount of exchange\r\n    * @dev price token price of Exchange\r\n    */\r\n    function CreateERC1155TokenExchange(CreateERC1155TokenExchangeRequest memory input, address caller) external {\r\n        IERC1155 token = IERC1155(input.exchangeTokenAddress);\r\n        require(\r\n            token.balanceOf(caller, input.tokenId) >= input.amount, \r\n            \"TokenExchange.CreateERC1155TokenExchange: Your balance is not enough\"\r\n        );\r\n        require(input.price > 0, \"TokenExchange.CreateERC1155TokenExchange: price can't be lower or equal to zero\");\r\n        require(\r\n            token.isApprovedForAll(caller, address(this)),\r\n            \"TokenExchange.CreateERC1155TokenExchange: Owner has not approved\"\r\n        );\r\n        \r\n        token.safeTransferFrom(caller, address(this), input.tokenId, input.amount, \"\");\r\n\r\n        /**\r\n        * @dev store exchange and initial offer\r\n        */\r\n        ERC1155Exchange memory exchange;\r\n        exchange.exchangeName = input.exchangeName;\r\n        exchange.creatorAddress = caller;\r\n        exchange.exchangeTokenAddress = input.exchangeTokenAddress;\r\n        exchange.offerTokenAddress = input.offerTokenAddress;\r\n        exchange.initialAmount = input.amount;\r\n        exchange.price = input.price; \r\n\r\n        _erc1155ExchangeCount++;\r\n        _erc1155Exchanges[_erc1155ExchangeCount] = exchange;\r\n\r\n        ERC1155Offer memory offer;\r\n        offer.exchangeId = _erc1155ExchangeCount;\r\n        offer.offerType = \"SELL\";\r\n        offer.creatorAddress = caller;\r\n        offer.tokenId = input.tokenId;\r\n        offer.amount = input.amount;\r\n        offer.price = exchange.price;\r\n\r\n        _erc1155OfferCount++;\r\n        offer.offerId = _erc1155OfferCount;\r\n        _erc1155Offers[_erc1155OfferCount] = offer;\r\n\r\n        emit ERC1155TokenExchangeCreated(_erc1155ExchangeCount, _erc1155OfferCount);\r\n    }\r\n\r\n    /**\r\n    * @dev someone can create buying offer for ERC1155 token exchange\r\n    * @dev exchangeTokenId id of exchange \r\n    * @dev tokenId ERC1155 token id of Exchange\r\n    * @dev amount amount of exchange\r\n    * @dev price token price of Exchange\r\n    */\r\n    function PlaceERC1155TokenBuyingOffer(PlaceERC1155TokenOfferRequest memory input, address caller) external {\r\n        IERC20 token = IERC20(_erc1155Exchanges[input.exchangeId].offerTokenAddress);\r\n        require(\r\n            token.balanceOf(caller) >= (input.price * input.amount), \r\n            \"TokenExchange.PlaceERC1155TokenBuyingOffer: you don't have enough balance\"\r\n        );\r\n        require(input.price > 0, \"TokenExchange.PlaceERC1155TokenBuyingOffer: price can't be lower or equal to zero\");\r\n\r\n        token.transferFrom(caller, address(this), input.price * input.amount);\r\n\r\n        /**\r\n        * @dev store buying offer\r\n        */\r\n        ERC1155Offer memory offer;\r\n        offer.exchangeId = input.exchangeId;\r\n        offer.offerType = \"BUY\";\r\n        offer.creatorAddress = caller;\r\n        offer.tokenId = input.tokenId;\r\n        offer.amount = input.amount;\r\n        offer.price = input.price;\r\n\r\n        _erc1155OfferCount++;\r\n        offer.offerId = _erc1155OfferCount;\r\n        _erc1155Offers[_erc1155OfferCount] = offer;\r\n\r\n        emit ERC1155TokenBuyingOfferPlaced(_erc1155OfferCount);\r\n    }\r\n\r\n    /**\r\n    * @dev owner of token can create selling offer for ERC1155 token exchange\r\n    * @dev exchangeTokenId id of exchange \r\n    * @dev tokenId ERC1155 token id of Exchange\r\n    * @dev amount amount of exchange\r\n    * @dev price token price of Exchange\r\n    */\r\n    function PlaceERC1155TokenSellingOffer(PlaceERC1155TokenOfferRequest memory input, address caller) external {\r\n        IERC1155 token = IERC1155(_erc1155Exchanges[input.exchangeId].exchangeTokenAddress);\r\n        require(\r\n            token.balanceOf(caller, input.tokenId) >= input.amount, \r\n            \"TokenExchange.PlaceERC1155TokenSellingOffer: Your balance is not enough\"\r\n        );\r\n        require(input.price > 0, \"TokenExchange.PlaceERC1155TokenSellingOffer: price can't be lower or equal to zero\");\r\n        require(\r\n            token.isApprovedForAll(caller, address(this)),\r\n            \"TokenExchange.PlaceERC1155TokenSellingOffer: Owner has not approved\"\r\n        );\r\n\r\n        token.safeTransferFrom(caller, address(this), input.tokenId, input.amount, \"\");\r\n\r\n        /**\r\n        * @dev store selling offer\r\n        */\r\n        ERC1155Offer memory offer;\r\n        offer.exchangeId = input.exchangeId;\r\n        offer.offerType = \"SELL\";\r\n        offer.creatorAddress = caller;\r\n        offer.tokenId = input.tokenId;\r\n        offer.amount = input.amount;\r\n        offer.price = input.price;\r\n\r\n        _erc1155OfferCount++;\r\n        offer.offerId = _erc1155OfferCount;\r\n        _erc1155Offers[_erc1155OfferCount] = offer;\r\n\r\n        emit ERC1155TokenSellingOfferPlaced(_erc1155OfferCount);\r\n    }\r\n\r\n    /**\r\n    * @dev creator of buying offer can cancel his ERC721Token BuyingOffer\r\n    * @dev exchangeTokenId id of exchange \r\n    * @dev offerId id of offer\r\n    */\r\n    function CancelERC1155TokenBuyingOffer(CancelOfferRequest memory input, address caller) external{\r\n        ERC1155Offer memory offer = _erc1155Offers[input.offerId];\r\n        IERC20 token = IERC20(_erc1155Exchanges[input.exchangeId].offerTokenAddress);\r\n        require(offer.creatorAddress == caller, \"TokenExchange.CancelERC1155TokenBuyingOffer: should be owner\");\r\n        require(offer.exchangeId == input.exchangeId, \"TokenExchange.CancelERC1155TokenBuyingOffer: should be the same exchangeId\");\r\n        require(\r\n            keccak256(abi.encodePacked(offer.offerType)) == keccak256(abi.encodePacked(\"BUY\")), \r\n            \"TokenExchange.CancelERC1155TokenBuyingOffer: should be the buying offer\"\r\n        );\r\n\r\n        require(\r\n            token.balanceOf(address(this)) >= (offer.price * offer.amount),\r\n            \"TokenExchange.CancelERC1155TokenBuyingOffer: you don't have enough balance\"\r\n        );\r\n        \r\n        token.transfer(caller, offer.price * offer.amount);            \r\n        delete _erc1155Offers[input.offerId];\r\n\r\n        emit ERC1155TokenBuyingOfferCanceled(input.offerId);\r\n    }\r\n\r\n    /**\r\n    * @dev creator of selling offer can cancel his ERC1155 SellingOffer\r\n    * @dev exchangeTokenId id of exchange \r\n    * @dev offerId id of offer\r\n    */\r\n    function CancelERC1155TokenSellingOffer(CancelOfferRequest memory input, address caller) external{\r\n        ERC1155Offer memory offer = _erc1155Offers[input.offerId];\r\n        IERC1155 token = IERC1155(_erc1155Exchanges[input.exchangeId].exchangeTokenAddress);\r\n        require(offer.creatorAddress == caller, \"TokenExchange.CancelERC1155TokenSellingOffer: should be owner\");\r\n        require(offer.exchangeId == input.exchangeId, \"TokenExchange.CancelERC1155TokenSellingOffer: should be the same exchangeId\");\r\n        require(\r\n            keccak256(abi.encodePacked(offer.offerType)) == keccak256(abi.encodePacked(\"SELL\")), \r\n            \"TokenExchange.CancelERC1155TokenSellingOffer: should be the selling offer\"\r\n        );\r\n        require(\r\n            token.balanceOf(address(this), offer.tokenId) >= offer.amount, \r\n            \"TokenExchange.CancelERC1155TokenSellingOffer: need to own this token\"\r\n        );\r\n        \r\n        token.safeTransferFrom(address(this), caller, offer.tokenId, offer.amount, \"\");\r\n        delete _erc1155Offers[input.offerId];\r\n\r\n        emit ERC1155TokenSellingOfferCanceled(input.offerId);\r\n    }\r\n\r\n    /**\r\n    * @dev someone can buy token(ERC1155) from selling offer\r\n    * @dev exchangeTokenId id of exchange \r\n    * @dev offerId id of offer\r\n    */\r\n    function BuyERC1155TokenFromOffer(OfferRequest memory input, address caller) external{\r\n        ERC1155Offer memory offer = _erc1155Offers[input.offerId];\r\n        IERC20 erc20token = IERC20(_erc1155Exchanges[input.exchangeId].offerTokenAddress);\r\n        IERC1155 erc1155token = IERC1155(_erc1155Exchanges[input.exchangeId].exchangeTokenAddress);\r\n\r\n        require(offer.exchangeId == input.exchangeId, \"TokenExchange.BuyERC1155TokenFromOffer: should be the same exchangeId\");\r\n        require(\r\n            keccak256(abi.encodePacked(offer.offerType)) == keccak256(abi.encodePacked(\"SELL\")), \r\n            \"TokenExchange.BuyERC1155TokenFromOffer: should be the selling offer\"\r\n        );\r\n        require(\r\n            erc20token.balanceOf(caller) >= (offer.price * offer.amount),\r\n            \"TokenExchange.BuyERC1155TokenFromOffer: you don't have enough balance\"\r\n        );\r\n        require(\r\n            erc1155token.balanceOf(address(this), offer.tokenId) >= offer.amount, \r\n            \"TokenExchange.BuyERC1155TokenFromOffer: Your balance is not enough\"\r\n        );\r\n\r\n        erc20token.transferFrom(caller, offer.creatorAddress, offer.price * offer.amount); \r\n        erc1155token.safeTransferFrom(address(this), caller, offer.tokenId, offer.amount, \"\");\r\n        delete _erc1155Offers[input.offerId];\r\n\r\n        emit ERC1155TokenFromOfferBought(input.offerId);\r\n    }\r\n\r\n    /**\r\n    * @dev owner of token can sell token(ERC1155) from buying offer\r\n    * @dev exchangeTokenId id of exchange \r\n    * @dev offerId id of offer\r\n    */\r\n    function SellERC1155TokenFromOffer(OfferRequest memory input, address caller) external{\r\n        ERC1155Offer memory offer = _erc1155Offers[input.offerId];\r\n        IERC20 erc20token = IERC20(_erc1155Exchanges[input.exchangeId].offerTokenAddress);\r\n        IERC1155 erc1155token = IERC1155(_erc1155Exchanges[input.exchangeId].exchangeTokenAddress);\r\n\r\n        require(offer.exchangeId == input.exchangeId, \"TokenExchange.SellERC1155TokenFromOffer: should be the same exchangeId\");\r\n        require(\r\n            keccak256(abi.encodePacked(offer.offerType)) == keccak256(abi.encodePacked(\"BUY\")), \r\n            \"TokenExchange.SellERC1155TokenFromOffer: should be the buying offer\"\r\n        );\r\n        require(\r\n            erc20token.balanceOf(address(this)) >= (offer.price * offer.amount),\r\n            \"TokenExchange.SellERC1155TokenFromOffer: you don't have enough balance\"\r\n        );\r\n\r\n        require(\r\n            erc1155token.balanceOf(caller, offer.tokenId) >= offer.amount, \r\n            \"TokenExchange.SellERC1155TokenFromOffe: need to own this token\"\r\n        );\r\n        require(\r\n            erc1155token.isApprovedForAll(caller, address(this)),\r\n            \"TokenExchange.SellERC1155TokenFromOffe: Owner has not approved2\"\r\n        );\r\n\r\n        erc20token.transfer(caller, offer.price * offer.amount); \r\n        erc1155token.safeTransferFrom(caller, offer.creatorAddress, offer.tokenId, offer.amount, \"\");\r\n        delete _erc1155Offers[input.offerId];\r\n\r\n        emit ERC1155TokenFromOfferSold(input.offerId);\r\n    }\r\n}",
  "sourcePath": "E:/PRIVI/Privi-Polygon/privi-exchange/contracts/ERC1155TokeknExchange.sol",
  "compiler": {
    "name": "solc",
    "version": "0.8.4+commit.c7e474f2.Emscripten.clang"
  },
  "schemaVersion": "3.4.3",
  "updatedAt": "2021-09-16T14:41:52.265Z",
  "networkType": "ethereum",
  "devdoc": {
    "details": "Exchange Contract for ERC1155 Token",
    "kind": "dev",
    "methods": {
      "BuyERC1155TokenFromOffer((uint256,uint256),address)": {
        "details": "someone can buy token(ERC1155) from selling offerexchangeTokenId id of exchange offerId id of offer"
      },
      "CancelERC1155TokenBuyingOffer((uint256,uint256),address)": {
        "details": "creator of buying offer can cancel his ERC721Token BuyingOfferexchangeTokenId id of exchange offerId id of offer"
      },
      "CancelERC1155TokenSellingOffer((uint256,uint256),address)": {
        "details": "creator of selling offer can cancel his ERC1155 SellingOfferexchangeTokenId id of exchange offerId id of offer"
      },
      "CreateERC1155TokenExchange((string,address,address,uint256,uint256,uint256),address)": {
        "details": "Owner of token can create Exchange of ERC1155exchangeTokenAddress address of exchangeToken(ERC1155) offerTokenAddress address of exchangeToken(ERC1155) tokenId ERC1155 token id of Exchangeamount amount of exchangeprice token price of Exchange"
      },
      "PlaceERC1155TokenBuyingOffer((uint256,uint256,uint256,uint256),address)": {
        "details": "someone can create buying offer for ERC1155 token exchangeexchangeTokenId id of exchange tokenId ERC1155 token id of Exchangeamount amount of exchangeprice token price of Exchange"
      },
      "PlaceERC1155TokenSellingOffer((uint256,uint256,uint256,uint256),address)": {
        "details": "owner of token can create selling offer for ERC1155 token exchangeexchangeTokenId id of exchange tokenId ERC1155 token id of Exchangeamount amount of exchangeprice token price of Exchange"
      },
      "SellERC1155TokenFromOffer((uint256,uint256),address)": {
        "details": "owner of token can sell token(ERC1155) from buying offerexchangeTokenId id of exchange offerId id of offer"
      },
      "constructor": {
        "details": "Constructor Function"
      },
      "supportsInterface(bytes4)": {
        "details": "See {IERC165-supportsInterface}."
      }
    },
    "stateVariables": {
      "_erc1155ExchangeCount": {
        "details": "count variables for ERC1155Token exchange and offer mapping"
      },
      "_erc1155Exchanges": {
        "details": "variables for storing ERC1155Token Exchange and Offer"
      }
    },
    "version": 1
  },
  "userdoc": {
    "kind": "user",
    "methods": {},
    "version": 1
  }
}