{
  "contractName": "ERC20TokenExchange",
  "abi": [
    {
      "inputs": [],
      "stateMutability": "nonpayable",
      "type": "constructor"
    },
    {
      "anonymous": false,
      "inputs": [
        {
          "indexed": false,
          "internalType": "uint256",
          "name": "offerId",
          "type": "uint256"
        }
      ],
      "name": "ERC20TokenBuyingOfferCanceled",
      "type": "event"
    },
    {
      "anonymous": false,
      "inputs": [
        {
          "indexed": false,
          "internalType": "uint256",
          "name": "offerId",
          "type": "uint256"
        }
      ],
      "name": "ERC20TokenBuyingOfferPlaced",
      "type": "event"
    },
    {
      "anonymous": false,
      "inputs": [
        {
          "indexed": false,
          "internalType": "uint256",
          "name": "exchangeId",
          "type": "uint256"
        },
        {
          "indexed": false,
          "internalType": "uint256",
          "name": "initialOfferId",
          "type": "uint256"
        }
      ],
      "name": "ERC20TokenExchangeCreated",
      "type": "event"
    },
    {
      "anonymous": false,
      "inputs": [
        {
          "indexed": false,
          "internalType": "uint256",
          "name": "offerId",
          "type": "uint256"
        }
      ],
      "name": "ERC20TokenFromOfferBought",
      "type": "event"
    },
    {
      "anonymous": false,
      "inputs": [
        {
          "indexed": false,
          "internalType": "uint256",
          "name": "offerId",
          "type": "uint256"
        }
      ],
      "name": "ERC20TokenFromOfferSold",
      "type": "event"
    },
    {
      "anonymous": false,
      "inputs": [
        {
          "indexed": false,
          "internalType": "uint256",
          "name": "offerId",
          "type": "uint256"
        }
      ],
      "name": "ERC20TokenSellingOfferCanceled",
      "type": "event"
    },
    {
      "anonymous": false,
      "inputs": [
        {
          "indexed": false,
          "internalType": "uint256",
          "name": "offerId",
          "type": "uint256"
        }
      ],
      "name": "ERC20TokenSellingOfferPlaced",
      "type": "event"
    },
    {
      "inputs": [],
      "name": "getErc20ExchangeCount",
      "outputs": [
        {
          "internalType": "uint256",
          "name": "",
          "type": "uint256"
        }
      ],
      "stateMutability": "view",
      "type": "function",
      "constant": true
    },
    {
      "inputs": [],
      "name": "getErc20OfferCount",
      "outputs": [
        {
          "internalType": "uint256",
          "name": "",
          "type": "uint256"
        }
      ],
      "stateMutability": "view",
      "type": "function",
      "constant": true
    },
    {
      "inputs": [],
      "name": "getErc20ExchangeAll",
      "outputs": [
        {
          "components": [
            {
              "internalType": "string",
              "name": "exchangeName",
              "type": "string"
            },
            {
              "internalType": "address",
              "name": "creatorAddress",
              "type": "address"
            },
            {
              "internalType": "address",
              "name": "exchangeTokenAddress",
              "type": "address"
            },
            {
              "internalType": "address",
              "name": "offerTokenAddress",
              "type": "address"
            },
            {
              "internalType": "uint256",
              "name": "initialAmount",
              "type": "uint256"
            },
            {
              "internalType": "uint256",
              "name": "price",
              "type": "uint256"
            }
          ],
          "internalType": "struct ERC20TokenExchange.ERC20Exchange[]",
          "name": "",
          "type": "tuple[]"
        }
      ],
      "stateMutability": "view",
      "type": "function",
      "constant": true
    },
    {
      "inputs": [],
      "name": "getErc20OfferAll",
      "outputs": [
        {
          "components": [
            {
              "internalType": "uint256",
              "name": "exchangeId",
              "type": "uint256"
            },
            {
              "internalType": "uint256",
              "name": "offerId",
              "type": "uint256"
            },
            {
              "internalType": "string",
              "name": "offerType",
              "type": "string"
            },
            {
              "internalType": "address",
              "name": "creatorAddress",
              "type": "address"
            },
            {
              "internalType": "uint256",
              "name": "amount",
              "type": "uint256"
            },
            {
              "internalType": "uint256",
              "name": "price",
              "type": "uint256"
            }
          ],
          "internalType": "struct ERC20TokenExchange.ERC20Offer[]",
          "name": "",
          "type": "tuple[]"
        }
      ],
      "stateMutability": "view",
      "type": "function",
      "constant": true
    },
    {
      "inputs": [
        {
          "internalType": "uint256",
          "name": "_exchangeId",
          "type": "uint256"
        }
      ],
      "name": "getErc20ExchangeById",
      "outputs": [
        {
          "components": [
            {
              "internalType": "string",
              "name": "exchangeName",
              "type": "string"
            },
            {
              "internalType": "address",
              "name": "creatorAddress",
              "type": "address"
            },
            {
              "internalType": "address",
              "name": "exchangeTokenAddress",
              "type": "address"
            },
            {
              "internalType": "address",
              "name": "offerTokenAddress",
              "type": "address"
            },
            {
              "internalType": "uint256",
              "name": "initialAmount",
              "type": "uint256"
            },
            {
              "internalType": "uint256",
              "name": "price",
              "type": "uint256"
            }
          ],
          "internalType": "struct ERC20TokenExchange.ERC20Exchange",
          "name": "",
          "type": "tuple"
        }
      ],
      "stateMutability": "view",
      "type": "function",
      "constant": true
    },
    {
      "inputs": [
        {
          "internalType": "uint256",
          "name": "_offerId",
          "type": "uint256"
        }
      ],
      "name": "getErc20OfferById",
      "outputs": [
        {
          "components": [
            {
              "internalType": "uint256",
              "name": "exchangeId",
              "type": "uint256"
            },
            {
              "internalType": "uint256",
              "name": "offerId",
              "type": "uint256"
            },
            {
              "internalType": "string",
              "name": "offerType",
              "type": "string"
            },
            {
              "internalType": "address",
              "name": "creatorAddress",
              "type": "address"
            },
            {
              "internalType": "uint256",
              "name": "amount",
              "type": "uint256"
            },
            {
              "internalType": "uint256",
              "name": "price",
              "type": "uint256"
            }
          ],
          "internalType": "struct ERC20TokenExchange.ERC20Offer",
          "name": "",
          "type": "tuple"
        }
      ],
      "stateMutability": "view",
      "type": "function",
      "constant": true
    },
    {
      "inputs": [
        {
          "components": [
            {
              "internalType": "string",
              "name": "exchangeName",
              "type": "string"
            },
            {
              "internalType": "address",
              "name": "exchangeTokenAddress",
              "type": "address"
            },
            {
              "internalType": "address",
              "name": "offerTokenAddress",
              "type": "address"
            },
            {
              "internalType": "uint256",
              "name": "amount",
              "type": "uint256"
            },
            {
              "internalType": "uint256",
              "name": "price",
              "type": "uint256"
            }
          ],
          "internalType": "struct ERC20TokenExchange.CreateERC20TokenExchangeRequest",
          "name": "input",
          "type": "tuple"
        },
        {
          "internalType": "address",
          "name": "caller",
          "type": "address"
        }
      ],
      "name": "CreateERC20TokenExchange",
      "outputs": [],
      "stateMutability": "nonpayable",
      "type": "function"
    },
    {
      "inputs": [
        {
          "components": [
            {
              "internalType": "uint256",
              "name": "exchangeId",
              "type": "uint256"
            },
            {
              "internalType": "uint256",
              "name": "amount",
              "type": "uint256"
            },
            {
              "internalType": "uint256",
              "name": "price",
              "type": "uint256"
            }
          ],
          "internalType": "struct ERC20TokenExchange.PlaceERC20TokenOfferRequest",
          "name": "input",
          "type": "tuple"
        },
        {
          "internalType": "address",
          "name": "caller",
          "type": "address"
        }
      ],
      "name": "PlaceERC20TokenBuyingOffer",
      "outputs": [],
      "stateMutability": "nonpayable",
      "type": "function"
    },
    {
      "inputs": [
        {
          "components": [
            {
              "internalType": "uint256",
              "name": "exchangeId",
              "type": "uint256"
            },
            {
              "internalType": "uint256",
              "name": "amount",
              "type": "uint256"
            },
            {
              "internalType": "uint256",
              "name": "price",
              "type": "uint256"
            }
          ],
          "internalType": "struct ERC20TokenExchange.PlaceERC20TokenOfferRequest",
          "name": "input",
          "type": "tuple"
        },
        {
          "internalType": "address",
          "name": "caller",
          "type": "address"
        }
      ],
      "name": "PlaceERC20TokenSellingOffer",
      "outputs": [],
      "stateMutability": "nonpayable",
      "type": "function"
    },
    {
      "inputs": [
        {
          "components": [
            {
              "internalType": "uint256",
              "name": "exchangeId",
              "type": "uint256"
            },
            {
              "internalType": "uint256",
              "name": "offerId",
              "type": "uint256"
            }
          ],
          "internalType": "struct ERC20TokenExchange.CancelOfferRequest",
          "name": "input",
          "type": "tuple"
        },
        {
          "internalType": "address",
          "name": "caller",
          "type": "address"
        }
      ],
      "name": "CancelERC20TokenBuyingOffer",
      "outputs": [],
      "stateMutability": "nonpayable",
      "type": "function"
    },
    {
      "inputs": [
        {
          "components": [
            {
              "internalType": "uint256",
              "name": "exchangeId",
              "type": "uint256"
            },
            {
              "internalType": "uint256",
              "name": "offerId",
              "type": "uint256"
            }
          ],
          "internalType": "struct ERC20TokenExchange.CancelOfferRequest",
          "name": "input",
          "type": "tuple"
        },
        {
          "internalType": "address",
          "name": "caller",
          "type": "address"
        }
      ],
      "name": "CancelERC20TokenSellingOffer",
      "outputs": [],
      "stateMutability": "nonpayable",
      "type": "function"
    },
    {
      "inputs": [
        {
          "components": [
            {
              "internalType": "uint256",
              "name": "exchangeId",
              "type": "uint256"
            },
            {
              "internalType": "uint256",
              "name": "offerId",
              "type": "uint256"
            }
          ],
          "internalType": "struct ERC20TokenExchange.OfferRequest",
          "name": "input",
          "type": "tuple"
        },
        {
          "internalType": "address",
          "name": "caller",
          "type": "address"
        }
      ],
      "name": "BuyERC20TokenFromOffer",
      "outputs": [],
      "stateMutability": "nonpayable",
      "type": "function"
    },
    {
      "inputs": [
        {
          "components": [
            {
              "internalType": "uint256",
              "name": "exchangeId",
              "type": "uint256"
            },
            {
              "internalType": "uint256",
              "name": "offerId",
              "type": "uint256"
            }
          ],
          "internalType": "struct ERC20TokenExchange.OfferRequest",
          "name": "input",
          "type": "tuple"
        },
        {
          "internalType": "address",
          "name": "caller",
          "type": "address"
        }
      ],
      "name": "SellERC20TokenFromOffer",
      "outputs": [],
      "stateMutability": "nonpayable",
      "type": "function"
    }
  ],
  "bytecode": "0x608060405234801561001057600080fd5b506000808055600155612f0f806100286000396000f3fe608060405234801561001057600080fd5b50600436106100cf5760003560e01c80636f2663d41161008c578063d50853e811610066578063d50853e8146101a7578063d56aa3b4146101ba578063e9851111146101cd578063fd6683aa146101e057600080fd5b80636f2663d414610154578063969de53b14610174578063cddcc5391461018757600080fd5b80631431975b146100d45780631eb582da146100f25780632584fab61461010457806328069dfd146101195780635415b2271461012e5780635f88144114610141575b600080fd5b6100dc6101e8565b6040516100e99190612baf565b60405180910390f35b6001545b6040519081526020016100e9565b6101176101123660046128a4565b610396565b005b61012161087f565b6040516100e99190612c10565b61011761013c3660046128a4565b610a28565b61011761014f3660046129e9565b610ee1565b610167610162366004612a56565b611251565b6040516100e99190612d37565b6101176101823660046129d7565b61134a565b61019a610195366004612a56565b6118be565b6040516100e99190612d4a565b6101176101b53660046129e9565b6119b8565b6101176101c83660046128d7565b611d06565b6101176101db3660046129d7565b612130565b6000546100f6565b60606000805467ffffffffffffffff81111561021457634e487b7160e01b600052604160045260246000fd5b60405190808252806020026020018201604052801561024d57816020015b61023a6126ad565b8152602001906001900390816102325790505b50905060015b60005481116103905760008181526002602052604090819020815160c0810190925280548290829061028490612e1d565b80601f01602080910402602001604051908101604052809291908181526020018280546102b090612e1d565b80156102fd5780601f106102d2576101008083540402835291602001916102fd565b820191906000526020600020905b8154815290600101906020018083116102e057829003601f168201915b50505091835250506001828101546001600160a01b03908116602084015260028401548116604084015260038401541660608301526004830154608083015260059092015460a09091015283906103549084612dd6565b8151811061037257634e487b7160e01b600052603260045260246000fd5b6020026020010181905250808061038890612e52565b915050610253565b50919050565b600060036000846020015181526020019081526020016000206040518060c001604052908160008201548152602001600182015481526020016002820180546103de90612e1d565b80601f016020809104026020016040519081016040528092919081815260200182805461040a90612e1d565b80156104575780601f1061042c57610100808354040283529160200191610457565b820191906000526020600020905b81548152906001019060200180831161043a57829003601f168201915b50505091835250506003828101546001600160a01b0390811660208085019190915260048501546040808601919091526005909501546060948501528851600090815260029091529390932001549083015192935081169181169084161461051a5760405162461bcd60e51b815260206004820152603a6024820152600080516020612eba83398151915260448201527f79696e674f666665723a2073686f756c64206265206f776e657200000000000060648201526084015b60405180910390fd5b83518251146105905760405162461bcd60e51b81526020600482015260486024820152600080516020612eba83398151915260448201527f79696e674f666665723a2073686f756c64206265207468652073616d6520657860648201526718da185b99d9525960c21b608482015260a401610511565b6040516242555960e81b60208201526023016040516020818303038152906040528051906020012082604001516040516020016105cd9190612b6f565b60405160208183030381529060405280519060200120146106525760405162461bcd60e51b81526020600482015260456024820152600080516020612eba83398151915260448201527f79696e674f666665723a2073686f756c642062652074686520627579696e672060648201526437b33332b960d91b608482015260a401610511565b81608001518260a001516106669190612db7565b6040516370a0823160e01b81523060048201526001600160a01b038316906370a082319060240160206040518083038186803b1580156106a557600080fd5b505afa1580156106b9573d6000803e3d6000fd5b505050506040513d601f19601f820116820180604052508101906106dd9190612a6e565b10156107505760405162461bcd60e51b81526020600482015260486024820152600080516020612eba83398151915260448201527f79696e674f666665723a20796f7520646f6e2774206861766520656e6f7567686064820152672062616c616e636560c01b608482015260a401610511565b806001600160a01b031663a9059cbb8484608001518560a001516107749190612db7565b6040516001600160e01b031960e085901b1681526001600160a01b0390921660048301526024820152604401602060405180830381600087803b1580156107ba57600080fd5b505af11580156107ce573d6000803e3d6000fd5b505050506040513d601f19601f820116820180604052508101906107f2919061287d565b506020808501516000908152600390915260408120818155600181018290559061081f60028301826126fe565b506003810180546001600160a01b03191690556000600482018190556005909101556020848101516040519081527f96ed5f54696f3eb2323e78c776ded20e24a0ddbfe707dfc11dd0de974789d6bb91015b60405180910390a150505050565b6060600060015467ffffffffffffffff8111156108ac57634e487b7160e01b600052604160045260246000fd5b6040519080825280602002602001820160405280156108e557816020015b6108d261273b565b8152602001906001900390816108ca5790505b50905060015b600154811161039057600360008281526020019081526020016000206040518060c0016040529081600082015481526020016001820154815260200160028201805461093690612e1d565b80601f016020809104026020016040519081016040528092919081815260200182805461096290612e1d565b80156109af5780601f10610984576101008083540402835291602001916109af565b820191906000526020600020905b81548152906001019060200180831161099257829003601f168201915b505050918352505060038201546001600160a01b0316602082015260048201546040820152600590910154606090910152826109ec600184612dd6565b81518110610a0a57634e487b7160e01b600052603260045260246000fd5b60200260200101819052508080610a2090612e52565b9150506108eb565b600060036000846020015181526020019081526020016000206040518060c00160405290816000820154815260200160018201548152602001600282018054610a7090612e1d565b80601f0160208091040260200160405190810160405280929190818152602001828054610a9c90612e1d565b8015610ae95780601f10610abe57610100808354040283529160200191610ae9565b820191906000526020600020905b815481529060010190602001808311610acc57829003601f168201915b505050918352505060038201546001600160a01b03908116602080840191909152600484015460408085019190915260059094015460609384015287516000908152600291829052939093209092015490830151929350811691811690841614610ba95760405162461bcd60e51b815260206004820152603b6024820152600080516020612e9a83398151915260448201527f6c6c696e674f666665723a2073686f756c64206265206f776e657200000000006064820152608401610511565b8351825114610c205760405162461bcd60e51b81526020600482015260496024820152600080516020612e9a83398151915260448201527f6c6c696e674f666665723a2073686f756c64206265207468652073616d6520656064820152681e18da185b99d9525960ba1b608482015260a401610511565b6040516314d1531360e21b6020820152602401604051602081830303815290604052805190602001208260400151604051602001610c5e9190612b6f565b6040516020818303038152906040528051906020012014610ce55760405162461bcd60e51b81526020600482015260476024820152600080516020612e9a83398151915260448201527f6c6c696e674f666665723a2073686f756c64206265207468652073656c6c696e606482015266339037b33332b960c91b608482015260a401610511565b60808201516040516370a0823160e01b81523060048201526001600160a01b038316906370a082319060240160206040518083038186803b158015610d2957600080fd5b505afa158015610d3d573d6000803e3d6000fd5b505050506040513d601f19601f82011682018060405250810190610d619190612a6e565b1015610dd55760405162461bcd60e51b81526020600482015260496024820152600080516020612e9a83398151915260448201527f6c6c696e674f666665723a20796f7520646f6e2774206861766520656e6f7567606482015268682062616c616e636560b81b608482015260a401610511565b608082015160405163a9059cbb60e01b81526001600160a01b03858116600483015260248201929092529082169063a9059cbb90604401602060405180830381600087803b158015610e2657600080fd5b505af1158015610e3a573d6000803e3d6000fd5b505050506040513d601f19601f82011682018060405250810190610e5e919061287d565b5060208085015160009081526003909152604081208181556001810182905590610e8b60028301826126fe565b506003810180546001600160a01b03191690556000600482018190556005909101556020848101516040519081527f8d0df4f0232f5407a296ed885c296c859d94584a4d45be9aab5286605108e7fa9101610871565b81516000908152600260209081526040918290206003015490840151918401516001600160a01b0390911691610f1691612db7565b6040516370a0823160e01b81526001600160a01b0384811660048301528316906370a082319060240160206040518083038186803b158015610f5757600080fd5b505afa158015610f6b573d6000803e3d6000fd5b505050506040513d601f19601f82011682018060405250810190610f8f9190612a6e565b10156110135760405162461bcd60e51b815260206004820152604760248201527f546f6b656e45786368616e67652e506c6163654552433230546f6b656e42757960448201527f696e674f666665723a20796f7520646f6e2774206861766520656e6f7567682060648201526662616c616e636560c81b608482015260a401610511565b60008360400151116110a55760405162461bcd60e51b815260206004820152604f60248201527f546f6b656e45786368616e67652e506c6163654552433230546f6b656e42757960448201527f696e674f666665723a2070726963652063616e2774206265206c6f776572206f60648201526e7220657175616c20746f207a65726f60881b608482015260a401610511565b806001600160a01b03166323b872dd8330866020015187604001516110ca9190612db7565b6040518463ffffffff1660e01b81526004016110e893929190612b8b565b602060405180830381600087803b15801561110257600080fd5b505af1158015611116573d6000803e3d6000fd5b505050506040513d601f19601f8201168201806040525081019061113a919061287d565b5061114361273b565b83518152604080518082018252600381526242555960e81b602080830191909152828401919091526001600160a01b0385166060840152850151608083015284015160a08201526001805490600061119a83612e52565b9091555050600180546020808401828152600092835260038252604092839020855181559051938101939093559083015180518493926111e192600285019291019061277a565b5060608201516003820180546001600160a01b0319166001600160a01b039092169190911790556080820151600482015560a0909101516005909101556001546040519081527fab9887ec7581399be45c8d57b068532854a80523f0728e10e7d1ec8b211bf2d990602001610871565b6112596126ad565b60008281526002602052604090819020815160c0810190925280548290829061128190612e1d565b80601f01602080910402602001604051908101604052809291908181526020018280546112ad90612e1d565b80156112fa5780601f106112cf576101008083540402835291602001916112fa565b820191906000526020600020905b8154815290600101906020018083116112dd57829003601f168201915b505050918352505060018201546001600160a01b03908116602083015260028301548116604083015260038301541660608201526004820154608082015260059091015460a09091015292915050565b600060036000846020015181526020019081526020016000206040518060c0016040529081600082015481526020016001820154815260200160028201805461139290612e1d565b80601f01602080910402602001604051908101604052809291908181526020018280546113be90612e1d565b801561140b5780601f106113e05761010080835404028352916020019161140b565b820191906000526020600020905b8154815290600101906020018083116113ee57829003601f168201915b50505091835250506003828101546001600160a01b03908116602080850191909152600485015460408086019190915260059095015460609094019390935287516000908152600293849052848120909201548851835293909120909101548651845194955092821693911691146114f75760405162461bcd60e51b815260206004820152604360248201527f546f6b656e45786368616e67652e4275794552433230546f6b656e46726f6d4f60448201527f666665723a2073686f756c64206265207468652073616d652065786368616e6760648201526219525960ea1b608482015260a401610511565b6040516314d1531360e21b60208201526024016040516020818303038152906040528051906020012083604001516040516020016115359190612b6f565b60405160208183030381529060405280519060200120146115c85760405162461bcd60e51b815260206004820152604160248201527f546f6b656e45786368616e67652e4275794552433230546f6b656e46726f6d4f60448201527f666665723a2073686f756c64206265207468652073656c6c696e67206f6666656064820152603960f91b608482015260a401610511565b82608001518360a001516115dc9190612db7565b6040516370a0823160e01b81526001600160a01b0386811660048301528416906370a082319060240160206040518083038186803b15801561161d57600080fd5b505afa158015611631573d6000803e3d6000fd5b505050506040513d601f19601f820116820180604052508101906116559190612a6e565b10156116735760405162461bcd60e51b815260040161051190612cce565b60808301516040516370a0823160e01b81523060048201526001600160a01b038316906370a082319060240160206040518083038186803b1580156116b757600080fd5b505afa1580156116cb573d6000803e3d6000fd5b505050506040513d601f19601f820116820180604052508101906116ef9190612a6e565b101561170d5760405162461bcd60e51b815260040161051190612cce565b816001600160a01b03166323b872dd85856060015186608001518760a001516117369190612db7565b6040518463ffffffff1660e01b815260040161175493929190612b8b565b602060405180830381600087803b15801561176e57600080fd5b505af1158015611782573d6000803e3d6000fd5b505050506040513d601f19601f820116820180604052508101906117a6919061287d565b50608083015160405163a9059cbb60e01b81526001600160a01b03868116600483015260248201929092529082169063a9059cbb90604401602060405180830381600087803b1580156117f857600080fd5b505af115801561180c573d6000803e3d6000fd5b505050506040513d601f19601f82011682018060405250810190611830919061287d565b506020808601516000908152600390915260408120818155600181018290559061185d60028301826126fe565b506003810180546001600160a01b03191690556000600482018190556005909101556020858101516040519081527f86d25bd27e55d1b7c838591f76c447846cd021f68d4df79ccc9c8d267a0c620491015b60405180910390a15050505050565b6118c661273b565b600360008381526020019081526020016000206040518060c0016040529081600082015481526020016001820154815260200160028201805461190890612e1d565b80601f016020809104026020016040519081016040528092919081815260200182805461193490612e1d565b80156119815780601f1061195657610100808354040283529160200191611981565b820191906000526020600020905b81548152906001019060200180831161196457829003601f168201915b505050918352505060038201546001600160a01b031660208201526004820154604082015260059091015460609091015292915050565b8151600090815260026020818152604092839020909101549084015191516370a0823160e01b81526001600160a01b038481166004830152909116919082906370a082319060240160206040518083038186803b158015611a1857600080fd5b505afa158015611a2c573d6000803e3d6000fd5b505050506040513d601f19601f82011682018060405250810190611a509190612a6e565b1015611ad55760405162461bcd60e51b815260206004820152604860248201527f546f6b656e45786368616e67652e506c6163654552433230546f6b656e53656c60448201527f6c696e674f666665723a20796f7520646f6e2774206861766520656e6f7567686064820152672062616c616e636560c01b608482015260a401610511565b6000836040015111611b685760405162461bcd60e51b815260206004820152605060248201527f546f6b656e45786368616e67652e506c6163654552433230546f6b656e53656c60448201527f6c696e674f666665723a2070726963652063616e2774206265206c6f7765722060648201526f6f7220657175616c20746f207a65726f60801b608482015260a401610511565b60208301516040516323b872dd60e01b81526001600160a01b038316916323b872dd91611b9c918691309190600401612b8b565b602060405180830381600087803b158015611bb657600080fd5b505af1158015611bca573d6000803e3d6000fd5b505050506040513d601f19601f82011682018060405250810190611bee919061287d565b50611bf761273b565b83518152604080518082018252600481526314d1531360e21b602080830191909152828401919091526001600160a01b0385166060840152850151608083015284015160a082015260018054906000611c4f83612e52565b909155505060018054602080840182815260009283526003825260409283902085518155905193810193909355908301518051849392611c9692600285019291019061277a565b5060608201516003820180546001600160a01b0319166001600160a01b039092169190911790556080820151600482015560a0909101516005909101556001546040519081527f43f199d36aa09ee55761dfb7de2a3feb37719fb3aee5302d9d41a419ab31923990602001610871565b602082015160608301516040516370a0823160e01b81526001600160a01b0384811660048301528316906370a082319060240160206040518083038186803b158015611d5157600080fd5b505afa158015611d65573d6000803e3d6000fd5b505050506040513d601f19601f82011682018060405250810190611d899190612a6e565b1015611e085760405162461bcd60e51b815260206004820152604260248201527f546f6b656e45786368616e67652e4372656174654552433230546f6b656e457860448201527f6368616e67653a20596f75722062616c616e6365206973206e6f7420656e6f756064820152610ced60f31b608482015260a401610511565b6000836080015111611e985760405162461bcd60e51b815260206004820152604d60248201527f546f6b656e45786368616e67652e4372656174654552433230546f6b656e457860448201527f6368616e67653a2070726963652063616e2774206265206c6f776572206f722060648201526c657175616c20746f207a65726f60981b608482015260a401610511565b60608301516040516323b872dd60e01b81526001600160a01b038316916323b872dd91611ecc918691309190600401612b8b565b602060405180830381600087803b158015611ee657600080fd5b505af1158015611efa573d6000803e3d6000fd5b505050506040513d601f19601f82011682018060405250810190611f1e919061287d565b50611f276126ad565b835181526001600160a01b0380841660208084019190915285015181166040808401919091528501511660608083019190915284015160808083019190915284015160a0820152600080549080611f7d83612e52565b9091555050600080548152600260209081526040909120825180518493611fa892849291019061277a565b5060208201516001820180546001600160a01b039283166001600160a01b031991821617909155604084015160028401805491841691831691909117905560608401516003840180549190931691161790556080820151600482015560a09091015160059091015561201861273b565b600080548252604080518082018252600481526314d1531360e21b6020820152908301526001600160a01b038516606080840191909152860151608083015260a08084015190830152600180549161206f83612e52565b9091555050600180546020808401828152600092835260038252604092839020855181559051938101939093559083015180518493926120b692600285019291019061277a565b5060608201516003820180546001600160a01b0319166001600160a01b039092169190911790556080820151600482015560a0909101516005909101556000546001546040805192835260208301919091527fc9d070d04e9cdf59bbe1f8c1888df22780e9a769051ecae7049fdebd6480571991016118af565b600060036000846020015181526020019081526020016000206040518060c0016040529081600082015481526020016001820154815260200160028201805461217890612e1d565b80601f01602080910402602001604051908101604052809291908181526020018280546121a490612e1d565b80156121f15780601f106121c6576101008083540402835291602001916121f1565b820191906000526020600020905b8154815290600101906020018083116121d457829003601f168201915b50505091835250506003828101546001600160a01b03908116602080850191909152600485015460408086019190915260059095015460609094019390935287516000908152600293849052848120909201548851835293909120909101548651845194955092821693911691146122df5760405162461bcd60e51b8152602060048201526044602482018190527f546f6b656e45786368616e67652e53656c6c4552433230546f6b656e46726f6d908201527f4f666665723a2073686f756c64206265207468652073616d652065786368616e60648201526319d9525960e21b608482015260a401610511565b6040516242555960e81b602082015260230160405160208183030381529060405280519060200120836040015160405160200161231c9190612b6f565b60405160208183030381529060405280519060200120146123af5760405162461bcd60e51b815260206004820152604160248201527f546f6b656e45786368616e67652e53656c6c4552433230546f6b656e46726f6d60448201527f4f666665723a2073686f756c642062652074686520627579696e67206f6666656064820152603960f91b608482015260a401610511565b82608001518360a001516123c39190612db7565b6040516370a0823160e01b81523060048201526001600160a01b038416906370a082319060240160206040518083038186803b15801561240257600080fd5b505afa158015612416573d6000803e3d6000fd5b505050506040513d601f19601f8201168201806040525081019061243a9190612a6e565b10156124585760405162461bcd60e51b815260040161051190612c64565b608083015160608401516040516370a0823160e01b81526001600160a01b039182166004820152908316906370a082319060240160206040518083038186803b1580156124a457600080fd5b505afa1580156124b8573d6000803e3d6000fd5b505050506040513d601f19601f820116820180604052508101906124dc9190612a6e565b10156124fa5760405162461bcd60e51b815260040161051190612c64565b816001600160a01b031663a9059cbb846060015185608001518660a001516125229190612db7565b6040516001600160e01b031960e085901b1681526001600160a01b0390921660048301526024820152604401602060405180830381600087803b15801561256857600080fd5b505af115801561257c573d6000803e3d6000fd5b505050506040513d601f19601f820116820180604052508101906125a0919061287d565b50606083015160808401516040516323b872dd60e01b81526001600160a01b038416926323b872dd926125d892899190600401612b8b565b602060405180830381600087803b1580156125f257600080fd5b505af1158015612606573d6000803e3d6000fd5b505050506040513d601f19601f8201168201806040525081019061262a919061287d565b506020808601516000908152600390915260408120818155600181018290559061265760028301826126fe565b506003810180546001600160a01b03191690556000600482018190556005909101556020858101516040519081527fb546f371a0e2970e03a2a9397a8965f347a3216b70fb3f3da67e8ba0a9c8900c91016118af565b6040518060c001604052806060815260200160006001600160a01b0316815260200160006001600160a01b0316815260200160006001600160a01b0316815260200160008152602001600081525090565b50805461270a90612e1d565b6000825580601f1061271a575050565b601f01602090049060005260206000209081019061273891906127fe565b50565b6040518060c0016040528060008152602001600081526020016060815260200160006001600160a01b0316815260200160008152602001600081525090565b82805461278690612e1d565b90600052602060002090601f0160209004810192826127a857600085556127ee565b82601f106127c157805160ff19168380011785556127ee565b828001600101855582156127ee579182015b828111156127ee5782518255916020019190600101906127d3565b506127fa9291506127fe565b5090565b5b808211156127fa57600081556001016127ff565b80356001600160a01b038116811461282a57600080fd5b919050565b600060408284031215612840578081fd5b6040516040810181811067ffffffffffffffff8211171561286357612863612e83565b604052823581526020928301359281019290925250919050565b60006020828403121561288e578081fd5b8151801515811461289d578182fd5b9392505050565b600080606083850312156128b6578081fd5b6128c0848461282f565b91506128ce60408401612813565b90509250929050565b600080604083850312156128e9578182fd5b823567ffffffffffffffff80821115612900578384fd5b9084019060a08287031215612913578384fd5b61291b612d5d565b823582811115612929578586fd5b8301601f81018813612939578586fd5b803560208482111561294d5761294d612e83565b61295f601f8301601f19168201612d86565b94508185528981838501011115612974578788fd5b818184018287013787818387010152848452612991818701612813565b818501526129a160408701612813565b604085015260608601356060850152608086013560808501528397506129c8818a01612813565b96505050505050509250929050565b600080606083850312156128b6578182fd5b60008082840360808112156129fc578283fd5b6060811215612a09578283fd5b506040516060810181811067ffffffffffffffff82111715612a2d57612a2d612e83565b60409081528435825260208086013590830152848101359082015291506128ce60608401612813565b600060208284031215612a67578081fd5b5035919050565b600060208284031215612a7f578081fd5b5051919050565b60008151808452612a9e816020860160208601612ded565b601f01601f19169290920160200192915050565b6000815160c08452612ac760c0850182612a86565b9050602083015160018060a01b03808216602087015280604086015116604087015280606086015116606087015250506080830151608085015260a083015160a08501528091505092915050565b80518252602081015160208301526000604082015160c06040850152612b3e60c0850182612a86565b6060848101516001600160a01b0316908601526080808501519086015260a093840151949093019390935250919050565b60008251612b81818460208701612ded565b9190910192915050565b6001600160a01b039384168152919092166020820152604081019190915260600190565b6000602080830181845280855180835260408601915060408160051b8701019250838701855b82811015612c0357603f19888603018452612bf1858351612ab2565b94509285019290850190600101612bd5565b5092979650505050505050565b6000602080830181845280855180835260408601915060408160051b8701019250838701855b82811015612c0357603f19888603018452612c52858351612b15565b94509285019290850190600101612c36565b60208082526044908201527f546f6b656e45786368616e67652e53656c6c4552433230546f6b656e46726f6d60408201527f4f666665723a20796f7520646f6e2774206861766520656e6f7567682062616c606082015263616e636560e01b608082015260a00190565b60208082526043908201527f546f6b656e45786368616e67652e4275794552433230546f6b656e46726f6d4f60408201527f666665723a20796f7520646f6e2774206861766520656e6f7567682062616c616060820152626e636560e81b608082015260a00190565b60208152600061289d6020830184612ab2565b60208152600061289d6020830184612b15565b60405160a0810167ffffffffffffffff81118282101715612d8057612d80612e83565b60405290565b604051601f8201601f1916810167ffffffffffffffff81118282101715612daf57612daf612e83565b604052919050565b6000816000190483118215151615612dd157612dd1612e6d565b500290565b600082821015612de857612de8612e6d565b500390565b60005b83811015612e08578181015183820152602001612df0565b83811115612e17576000848401525b50505050565b600181811c90821680612e3157607f821691505b6020821081141561039057634e487b7160e01b600052602260045260246000fd5b6000600019821415612e6657612e66612e6d565b5060010190565b634e487b7160e01b600052601160045260246000fd5b634e487b7160e01b600052604160045260246000fdfe546f6b656e45786368616e67652e43616e63656c4552433230546f6b656e5365546f6b656e45786368616e67652e43616e63656c4552433230546f6b656e4275a264697066735822122045af11c813112172da8dae14387cf06940ecfaf42fbe778261ea39db8dedd83364736f6c63430008040033",
  "immutableReferences": {},
  "source": "// SPDX-License-Identifier: UNLICENSED\r\n\r\npragma solidity ^0.8.4;\r\nimport \"@openzeppelin/contracts/token/ERC20/IERC20.sol\";\r\n\r\n/**\r\n * @dev Exchange Contract for ERC20 Token\r\n */\r\ncontract ERC20TokenExchange{\r\n    /**\r\n    * @dev Exchange struct for ERC20 Token\r\n    */\r\n    struct ERC20Exchange {\r\n        string exchangeName;\r\n        address creatorAddress;\r\n        address exchangeTokenAddress;\r\n        address offerTokenAddress;\r\n        uint initialAmount;\r\n        uint price;\r\n    }\r\n\r\n    /**\r\n    * @dev Offer struct for ERC20 Token\r\n    */\r\n    struct ERC20Offer {\r\n        uint exchangeId;\r\n        uint offerId;\r\n        string offerType;\r\n        address creatorAddress;\r\n        uint amount;\r\n        uint price;\r\n    }\r\n\r\n    /**\r\n    * @dev Request struct for creating ERC20TokenExchange\r\n    */\r\n    struct CreateERC20TokenExchangeRequest {\r\n        string exchangeName;\r\n        address exchangeTokenAddress;\r\n        address offerTokenAddress;\r\n        uint amount;\r\n        uint price;\r\n    }\r\n\r\n    /**\r\n    * @dev Request struct for Place ERC20Token Offer\r\n    */\r\n    struct PlaceERC20TokenOfferRequest {\r\n        uint exchangeId;\r\n        uint amount;\r\n        uint price;\r\n    }\r\n\r\n    /**\r\n    * @dev Request struct for cancel Exchange\r\n    */\r\n    struct CancelOfferRequest {\r\n        uint exchangeId;\r\n        uint offerId;\r\n    }\r\n\r\n    /**\r\n    * @dev Request struct for deal Exchange\r\n    */\r\n    struct OfferRequest {\r\n        uint exchangeId;\r\n        uint offerId;\r\n    }\r\n\r\n    /**\r\n    * @dev count variables for ERC20Token exchange and offer mapping\r\n    */\r\n    uint internal _erc20ExchangeCount;\r\n    uint internal _erc20OfferCount;\r\n\r\n    /**\r\n    * @dev variables for storing ERC20TOken Exchange and Offer\r\n    */\r\n    mapping(uint => ERC20Exchange) internal _erc20Exchanges;\r\n    mapping(uint => ERC20Offer) internal _erc20Offers;\r\n\r\n    // ----- EVENTS ----- //\r\n    event ERC20TokenExchangeCreated(uint exchangeId, uint initialOfferId);\r\n    event ERC20TokenBuyingOfferPlaced(uint offerId);\r\n    event ERC20TokenSellingOfferPlaced(uint offerId);\r\n    event ERC20TokenBuyingOfferCanceled(uint offerId);\r\n    event ERC20TokenSellingOfferCanceled(uint offerId);\r\n    event ERC20TokenFromOfferBought(uint offerId);\r\n    event ERC20TokenFromOfferSold(uint offerId);\r\n\r\n    /**\r\n    * @dev Constructor Function\r\n    */\r\n    constructor() {\r\n        _erc20ExchangeCount = 0;\r\n        _erc20OfferCount = 0;\r\n    }\r\n    \r\n    // ----- VIEWS ----- //\r\n    function getErc20ExchangeCount() external view returns(uint){\r\n        return _erc20ExchangeCount;\r\n    }\r\n\r\n    function getErc20OfferCount() external view returns(uint){\r\n        return _erc20OfferCount;\r\n    }\r\n\r\n    function getErc20ExchangeAll() external view returns(ERC20Exchange[] memory){\r\n        ERC20Exchange[] memory exchanges = new ERC20Exchange[](_erc20ExchangeCount);\r\n        for(uint i = 1; i <= _erc20ExchangeCount; i++)\r\n            exchanges[i-1] = _erc20Exchanges[i];\r\n        return exchanges;\r\n    }\r\n\r\n    function getErc20OfferAll() external view returns(ERC20Offer[] memory){\r\n        ERC20Offer[] memory offers = new ERC20Offer[](_erc20OfferCount);\r\n        for(uint i = 1; i <= _erc20OfferCount; i++)\r\n            offers[i-1] = _erc20Offers[i];\r\n        return offers;\r\n    }\r\n\r\n    function getErc20ExchangeById(uint _exchangeId) external view returns(ERC20Exchange memory){\r\n        return _erc20Exchanges[_exchangeId];\r\n    }\r\n\r\n    function getErc20OfferById(uint _offerId) external view returns(ERC20Offer memory){\r\n        return _erc20Offers[_offerId];\r\n    }\r\n\r\n    // ----- PUBLIC METHODS ----- //\r\n    /**\r\n    * @dev Owner of token can create Exchange of ERC20\r\n    * @dev exchangeTokenAddress address of exchangeToken(ERC20) \r\n    * @dev offerTokenAddress address of exchangeToken(ERC20) \r\n    * @dev amount amount of Exchange\r\n    * @dev price token price of Exchange\r\n    */\r\n    function CreateERC20TokenExchange(CreateERC20TokenExchangeRequest memory input, address caller) external {\r\n        IERC20 token = IERC20(input.exchangeTokenAddress);\r\n        require(token.balanceOf(caller) >= input.amount, \"TokenExchange.CreateERC20TokenExchange: Your balance is not enough\");\r\n        require(input.price > 0, \"TokenExchange.CreateERC20TokenExchange: price can't be lower or equal to zero\");\r\n        \r\n        token.transferFrom(caller, address(this), input.amount);\r\n\r\n        /**\r\n        * @dev store exchange and initial offer\r\n        */\r\n        ERC20Exchange memory exchange;\r\n        exchange.exchangeName = input.exchangeName;\r\n        exchange.creatorAddress = caller;\r\n        exchange.exchangeTokenAddress = input.exchangeTokenAddress;\r\n        exchange.offerTokenAddress = input.offerTokenAddress;\r\n        exchange.initialAmount = input.amount;\r\n        exchange.price = input.price; \r\n\r\n        _erc20ExchangeCount++;\r\n        _erc20Exchanges[_erc20ExchangeCount] = exchange;\r\n\r\n        ERC20Offer memory offer;\r\n        offer.exchangeId = _erc20ExchangeCount;\r\n        offer.offerType = \"SELL\";\r\n        offer.creatorAddress = caller;\r\n        offer.amount = input.amount;\r\n        offer.price = exchange.price;\r\n\r\n        _erc20OfferCount++;\r\n        offer.offerId = _erc20OfferCount;\r\n        _erc20Offers[_erc20OfferCount] = offer;\r\n\r\n        emit ERC20TokenExchangeCreated(_erc20ExchangeCount, _erc20OfferCount);\r\n    }\r\n\r\n    /**\r\n    * @dev someone can create buying offer for ERC20 token exchange\r\n    * @dev exchangeTokenId id of exchange \r\n    * @dev amount amount of Exchange\r\n    * @dev price token price of Exchange\r\n    */\r\n    function PlaceERC20TokenBuyingOffer(PlaceERC20TokenOfferRequest memory input, address caller) external {\r\n        IERC20 token = IERC20(_erc20Exchanges[input.exchangeId].offerTokenAddress);\r\n        require(\r\n            token.balanceOf(caller) >= (input.price * input.amount), \r\n            \"TokenExchange.PlaceERC20TokenBuyingOffer: you don't have enough balance\"\r\n        );\r\n        require(input.price > 0, \"TokenExchange.PlaceERC20TokenBuyingOffer: price can't be lower or equal to zero\");\r\n\r\n        token.transferFrom(caller, address(this), input.price * input.amount);\r\n\r\n        /**\r\n        * @dev store buying offer\r\n        */\r\n        ERC20Offer memory offer;\r\n        offer.exchangeId = input.exchangeId;\r\n        offer.offerType = \"BUY\";\r\n        offer.creatorAddress = caller;\r\n        offer.amount = input.amount;\r\n        offer.price = input.price;\r\n\r\n        _erc20OfferCount++;\r\n        offer.offerId = _erc20OfferCount;\r\n        _erc20Offers[_erc20OfferCount] = offer;\r\n\r\n        emit ERC20TokenBuyingOfferPlaced(_erc20OfferCount);\r\n    }\r\n\r\n    /**\r\n    * @dev owner of token can create selling offer for ERC20 token exchange\r\n    * @dev exchangeTokenId id of exchange \r\n    * @dev amount amount of Exchange\r\n    * @dev price token price of Exchange\r\n    */\r\n    function PlaceERC20TokenSellingOffer(PlaceERC20TokenOfferRequest memory input, address caller) external {\r\n        IERC20 token = IERC20(_erc20Exchanges[input.exchangeId].exchangeTokenAddress);\r\n        require(\r\n            token.balanceOf(caller) >= input.amount, \r\n            \"TokenExchange.PlaceERC20TokenSellingOffer: you don't have enough balance\"\r\n        );\r\n        require(input.price > 0, \"TokenExchange.PlaceERC20TokenSellingOffer: price can't be lower or equal to zero\");\r\n\r\n        token.transferFrom(caller, address(this), input.amount);\r\n\r\n        /**\r\n        * @dev store selling offer\r\n        */\r\n        ERC20Offer memory offer;\r\n        offer.exchangeId = input.exchangeId;\r\n        offer.offerType = \"SELL\";\r\n        offer.creatorAddress = caller;\r\n        offer.amount = input.amount;\r\n        offer.price = input.price;\r\n\r\n        _erc20OfferCount++;\r\n        offer.offerId = _erc20OfferCount;\r\n        _erc20Offers[_erc20OfferCount] = offer;\r\n\r\n        emit ERC20TokenSellingOfferPlaced(_erc20OfferCount);\r\n    }\r\n\r\n    /**\r\n    * @dev creator of buying offer can cancel his ERC20Token BuyingOffer\r\n    * @dev exchangeTokenId id of exchange \r\n    * @dev offerId id of offer\r\n    */\r\n    function CancelERC20TokenBuyingOffer(CancelOfferRequest memory input, address caller) external{\r\n        ERC20Offer memory offer = _erc20Offers[input.offerId];\r\n        IERC20 token = IERC20(_erc20Exchanges[input.exchangeId].offerTokenAddress);\r\n        require(offer.creatorAddress == caller, \"TokenExchange.CancelERC20TokenBuyingOffer: should be owner\");\r\n        require(offer.exchangeId == input.exchangeId, \"TokenExchange.CancelERC20TokenBuyingOffer: should be the same exchangeId\");\r\n        require(\r\n            keccak256(abi.encodePacked(offer.offerType)) == keccak256(abi.encodePacked(\"BUY\")), \r\n            \"TokenExchange.CancelERC20TokenBuyingOffer: should be the buying offer\"\r\n        );\r\n\r\n        require(\r\n            token.balanceOf(address(this)) >= (offer.price * offer.amount),\r\n            \"TokenExchange.CancelERC20TokenBuyingOffer: you don't have enough balance\"\r\n        );\r\n        \r\n        token.transfer(caller, offer.price * offer.amount);            \r\n        delete _erc20Offers[input.offerId];\r\n\r\n        emit ERC20TokenBuyingOfferCanceled(input.offerId);\r\n    }\r\n\r\n    /**\r\n    * @dev creator of selling offer can cancel his ERC20 SellingOffer\r\n    * @dev exchangeTokenId id of exchange \r\n    * @dev offerId id of offer\r\n    */\r\n    function CancelERC20TokenSellingOffer(CancelOfferRequest memory input, address caller) external{\r\n        ERC20Offer memory offer = _erc20Offers[input.offerId];\r\n        IERC20 token = IERC20(_erc20Exchanges[input.exchangeId].exchangeTokenAddress);\r\n        require(offer.creatorAddress == caller, \"TokenExchange.CancelERC20TokenSellingOffer: should be owner\");\r\n        require(offer.exchangeId == input.exchangeId, \"TokenExchange.CancelERC20TokenSellingOffer: should be the same exchangeId\");\r\n        require(\r\n            keccak256(abi.encodePacked(offer.offerType)) == keccak256(abi.encodePacked(\"SELL\")), \r\n            \"TokenExchange.CancelERC20TokenSellingOffer: should be the selling offer\"\r\n        );\r\n        require(\r\n            token.balanceOf(address(this)) >= offer.amount, \r\n            \"TokenExchange.CancelERC20TokenSellingOffer: you don't have enough balance\"\r\n        );\r\n        \r\n        token.transfer(caller, offer.amount);\r\n        delete _erc20Offers[input.offerId];\r\n\r\n        emit ERC20TokenSellingOfferCanceled(input.offerId);\r\n    }\r\n\r\n    /**\r\n    * @dev someone can buy token(ERC20) from selling offer\r\n    * @dev exchangeTokenId id of exchange \r\n    * @dev offerId id of offer\r\n    */\r\n    function BuyERC20TokenFromOffer(OfferRequest memory input, address caller) external{\r\n        ERC20Offer memory offer = _erc20Offers[input.offerId];\r\n        IERC20 offerToken = IERC20(_erc20Exchanges[input.exchangeId].offerTokenAddress);\r\n        IERC20 exchangeToken = IERC20(_erc20Exchanges[input.exchangeId].exchangeTokenAddress);\r\n\r\n        require(offer.exchangeId == input.exchangeId, \"TokenExchange.BuyERC20TokenFromOffer: should be the same exchangeId\");\r\n        require(\r\n            keccak256(abi.encodePacked(offer.offerType)) == keccak256(abi.encodePacked(\"SELL\")), \r\n            \"TokenExchange.BuyERC20TokenFromOffer: should be the selling offer\"\r\n        );\r\n        require(\r\n            offerToken.balanceOf(caller) >= (offer.price * offer.amount),\r\n            \"TokenExchange.BuyERC20TokenFromOffer: you don't have enough balance\"\r\n        );\r\n\r\n        require(\r\n            exchangeToken.balanceOf(address(this)) >= offer.amount,\r\n            \"TokenExchange.BuyERC20TokenFromOffer: you don't have enough balance\"\r\n        );\r\n\r\n        offerToken.transferFrom(caller, offer.creatorAddress, offer.price * offer.amount); \r\n        exchangeToken.transfer(caller, offer.amount);\r\n        delete _erc20Offers[input.offerId];\r\n\r\n        emit ERC20TokenFromOfferBought(input.offerId);\r\n    }\r\n    /**\r\n    * @dev owner of token can sell token(ERC20) from buying offer\r\n    * @dev exchangeTokenId id of exchange \r\n    * @dev offerId id of offer\r\n    */\r\n    function SellERC20TokenFromOffer(OfferRequest memory input, address caller) external{\r\n        ERC20Offer memory offer = _erc20Offers[input.offerId];\r\n        IERC20 offerToken = IERC20(_erc20Exchanges[input.exchangeId].offerTokenAddress);\r\n        IERC20 exchangeToken = IERC20(_erc20Exchanges[input.exchangeId].exchangeTokenAddress);\r\n\r\n        require(offer.exchangeId == input.exchangeId, \"TokenExchange.SellERC20TokenFromOffer: should be the same exchangeId\");\r\n        require(\r\n            keccak256(abi.encodePacked(offer.offerType)) == keccak256(abi.encodePacked(\"BUY\")), \r\n            \"TokenExchange.SellERC20TokenFromOffer: should be the buying offer\"\r\n        );\r\n        require(\r\n            offerToken.balanceOf(address(this)) >= (offer.price * offer.amount),\r\n            \"TokenExchange.SellERC20TokenFromOffer: you don't have enough balance\"\r\n        );\r\n\r\n        require(\r\n            exchangeToken.balanceOf(offer.creatorAddress) >= offer.amount,\r\n            \"TokenExchange.SellERC20TokenFromOffer: you don't have enough balance\"\r\n        );\r\n\r\n        offerToken.transfer(offer.creatorAddress, offer.price * offer.amount); \r\n        exchangeToken.transferFrom(offer.creatorAddress, caller, offer.amount);\r\n        delete _erc20Offers[input.offerId];\r\n\r\n        emit ERC20TokenFromOfferSold(input.offerId);\r\n    }\r\n}",
  "sourcePath": "E:/PRIVI/Privi-Polygon/privi-exchange/contracts/ERC20TokenExchange.sol",
  "compiler": {
    "name": "solc",
    "version": "0.8.4+commit.c7e474f2.Emscripten.clang"
  },
  "schemaVersion": "3.4.3",
  "updatedAt": "2021-09-16T14:40:39.200Z",
  "networkType": "ethereum",
  "devdoc": {
    "details": "Exchange Contract for ERC20 Token",
    "kind": "dev",
    "methods": {
      "BuyERC20TokenFromOffer((uint256,uint256),address)": {
        "details": "someone can buy token(ERC20) from selling offerexchangeTokenId id of exchange offerId id of offer"
      },
      "CancelERC20TokenBuyingOffer((uint256,uint256),address)": {
        "details": "creator of buying offer can cancel his ERC20Token BuyingOfferexchangeTokenId id of exchange offerId id of offer"
      },
      "CancelERC20TokenSellingOffer((uint256,uint256),address)": {
        "details": "creator of selling offer can cancel his ERC20 SellingOfferexchangeTokenId id of exchange offerId id of offer"
      },
      "CreateERC20TokenExchange((string,address,address,uint256,uint256),address)": {
        "details": "Owner of token can create Exchange of ERC20exchangeTokenAddress address of exchangeToken(ERC20) offerTokenAddress address of exchangeToken(ERC20) amount amount of Exchangeprice token price of Exchange"
      },
      "PlaceERC20TokenBuyingOffer((uint256,uint256,uint256),address)": {
        "details": "someone can create buying offer for ERC20 token exchangeexchangeTokenId id of exchange amount amount of Exchangeprice token price of Exchange"
      },
      "PlaceERC20TokenSellingOffer((uint256,uint256,uint256),address)": {
        "details": "owner of token can create selling offer for ERC20 token exchangeexchangeTokenId id of exchange amount amount of Exchangeprice token price of Exchange"
      },
      "SellERC20TokenFromOffer((uint256,uint256),address)": {
        "details": "owner of token can sell token(ERC20) from buying offerexchangeTokenId id of exchange offerId id of offer"
      },
      "constructor": {
        "details": "Constructor Function"
      }
    },
    "stateVariables": {
      "_erc20ExchangeCount": {
        "details": "count variables for ERC20Token exchange and offer mapping"
      },
      "_erc20Exchanges": {
        "details": "variables for storing ERC20TOken Exchange and Offer"
      }
    },
    "version": 1
  },
  "userdoc": {
    "kind": "user",
    "methods": {},
    "version": 1
  }
}