{
  "contractName": "ERC721Auction",
  "abi": [
    {
      "inputs": [
        {
          "internalType": "address",
          "name": "_tokenAddress",
          "type": "address"
        }
      ],
      "stateMutability": "nonpayable",
      "type": "constructor"
    },
    {
      "anonymous": false,
      "inputs": [],
      "name": "AuctionContractDeployed",
      "type": "event"
    },
    {
      "anonymous": false,
      "inputs": [
        {
          "indexed": true,
          "internalType": "uint256",
          "name": "tokenId",
          "type": "uint256"
        }
      ],
      "name": "AuctionCreated",
      "type": "event"
    },
    {
      "anonymous": false,
      "inputs": [
        {
          "indexed": true,
          "internalType": "uint256",
          "name": "tokenId",
          "type": "uint256"
        }
      ],
      "name": "AuctionEnded",
      "type": "event"
    },
    {
      "anonymous": false,
      "inputs": [
        {
          "indexed": true,
          "internalType": "uint256",
          "name": "tokenId",
          "type": "uint256"
        },
        {
          "indexed": true,
          "internalType": "address",
          "name": "bidder",
          "type": "address"
        },
        {
          "indexed": false,
          "internalType": "uint256",
          "name": "bidAmount",
          "type": "uint256"
        }
      ],
      "name": "BidPlaced",
      "type": "event"
    },
    {
      "anonymous": false,
      "inputs": [
        {
          "indexed": true,
          "internalType": "uint256",
          "name": "tokenId",
          "type": "uint256"
        },
        {
          "indexed": true,
          "internalType": "address",
          "name": "owner",
          "type": "address"
        },
        {
          "indexed": false,
          "internalType": "uint256",
          "name": "returnAmount",
          "type": "uint256"
        }
      ],
      "name": "FundReturned",
      "type": "event"
    },
    {
      "anonymous": false,
      "inputs": [
        {
          "indexed": true,
          "internalType": "uint256",
          "name": "tokenId",
          "type": "uint256"
        },
        {
          "indexed": true,
          "internalType": "address",
          "name": "owner",
          "type": "address"
        },
        {
          "indexed": false,
          "internalType": "uint256",
          "name": "withdrawAmount",
          "type": "uint256"
        }
      ],
      "name": "FundWithdrawn",
      "type": "event"
    },
    {
      "inputs": [
        {
          "internalType": "uint256",
          "name": "",
          "type": "uint256"
        }
      ],
      "name": "auctions",
      "outputs": [
        {
          "internalType": "address",
          "name": "owner",
          "type": "address"
        },
        {
          "internalType": "uint256",
          "name": "startPrice",
          "type": "uint256"
        },
        {
          "internalType": "uint256",
          "name": "startTime",
          "type": "uint256"
        },
        {
          "internalType": "uint256",
          "name": "endTime",
          "type": "uint256"
        },
        {
          "internalType": "uint256",
          "name": "fee",
          "type": "uint256"
        },
        {
          "internalType": "address",
          "name": "fundTokenAddress",
          "type": "address"
        },
        {
          "internalType": "bool",
          "name": "created",
          "type": "bool"
        }
      ],
      "stateMutability": "view",
      "type": "function",
      "constant": true
    },
    {
      "inputs": [
        {
          "internalType": "uint256",
          "name": "",
          "type": "uint256"
        }
      ],
      "name": "availableFunds",
      "outputs": [
        {
          "internalType": "uint256",
          "name": "",
          "type": "uint256"
        }
      ],
      "stateMutability": "view",
      "type": "function",
      "constant": true
    },
    {
      "inputs": [
        {
          "internalType": "uint256",
          "name": "",
          "type": "uint256"
        },
        {
          "internalType": "uint256",
          "name": "",
          "type": "uint256"
        }
      ],
      "name": "bids",
      "outputs": [
        {
          "internalType": "address",
          "name": "bidder",
          "type": "address"
        },
        {
          "internalType": "uint256",
          "name": "bidAmount",
          "type": "uint256"
        },
        {
          "internalType": "uint256",
          "name": "actualBidAmount",
          "type": "uint256"
        },
        {
          "internalType": "uint256",
          "name": "bidTime",
          "type": "uint256"
        }
      ],
      "stateMutability": "view",
      "type": "function",
      "constant": true
    },
    {
      "inputs": [],
      "name": "token",
      "outputs": [
        {
          "internalType": "contract IERC721",
          "name": "",
          "type": "address"
        }
      ],
      "stateMutability": "view",
      "type": "function",
      "constant": true
    },
    {
      "inputs": [
        {
          "internalType": "uint256",
          "name": "_tokenId",
          "type": "uint256"
        },
        {
          "internalType": "uint256",
          "name": "_startPrice",
          "type": "uint256"
        },
        {
          "internalType": "uint256",
          "name": "_startTimestamp",
          "type": "uint256"
        },
        {
          "internalType": "uint256",
          "name": "_endTimestamp",
          "type": "uint256"
        },
        {
          "internalType": "uint256",
          "name": "_fee",
          "type": "uint256"
        },
        {
          "internalType": "address",
          "name": "_fundTokenAddress",
          "type": "address"
        }
      ],
      "name": "createAuction",
      "outputs": [],
      "stateMutability": "nonpayable",
      "type": "function"
    },
    {
      "inputs": [
        {
          "internalType": "uint256",
          "name": "_tokenId",
          "type": "uint256"
        },
        {
          "internalType": "uint256",
          "name": "_bidAmount",
          "type": "uint256"
        }
      ],
      "name": "placeBid",
      "outputs": [],
      "stateMutability": "nonpayable",
      "type": "function"
    },
    {
      "inputs": [
        {
          "internalType": "uint256",
          "name": "_tokenId",
          "type": "uint256"
        },
        {
          "internalType": "uint256",
          "name": "_withdrawAmount",
          "type": "uint256"
        }
      ],
      "name": "withdrawFunds",
      "outputs": [],
      "stateMutability": "nonpayable",
      "type": "function"
    },
    {
      "inputs": [
        {
          "internalType": "uint256",
          "name": "_tokenId",
          "type": "uint256"
        },
        {
          "internalType": "uint256",
          "name": "_returnAmount",
          "type": "uint256"
        }
      ],
      "name": "returnFunds",
      "outputs": [],
      "stateMutability": "nonpayable",
      "type": "function"
    },
    {
      "inputs": [
        {
          "internalType": "uint256",
          "name": "_tokenId",
          "type": "uint256"
        }
      ],
      "name": "endAuction",
      "outputs": [],
      "stateMutability": "nonpayable",
      "type": "function"
    },
    {
      "inputs": [
        {
          "internalType": "uint256",
          "name": "_tokenId",
          "type": "uint256"
        }
      ],
      "name": "getAuction",
      "outputs": [
        {
          "components": [
            {
              "internalType": "address",
              "name": "owner",
              "type": "address"
            },
            {
              "internalType": "uint256",
              "name": "startPrice",
              "type": "uint256"
            },
            {
              "internalType": "uint256",
              "name": "startTime",
              "type": "uint256"
            },
            {
              "internalType": "uint256",
              "name": "endTime",
              "type": "uint256"
            },
            {
              "internalType": "uint256",
              "name": "fee",
              "type": "uint256"
            },
            {
              "internalType": "address",
              "name": "fundTokenAddress",
              "type": "address"
            },
            {
              "internalType": "bool",
              "name": "created",
              "type": "bool"
            }
          ],
          "internalType": "struct ERC721Auction.Auction",
          "name": "",
          "type": "tuple"
        }
      ],
      "stateMutability": "view",
      "type": "function",
      "constant": true
    },
    {
      "inputs": [
        {
          "internalType": "uint256",
          "name": "_tokenId",
          "type": "uint256"
        }
      ],
      "name": "getBidList",
      "outputs": [
        {
          "components": [
            {
              "internalType": "address",
              "name": "bidder",
              "type": "address"
            },
            {
              "internalType": "uint256",
              "name": "bidAmount",
              "type": "uint256"
            },
            {
              "internalType": "uint256",
              "name": "actualBidAmount",
              "type": "uint256"
            },
            {
              "internalType": "uint256",
              "name": "bidTime",
              "type": "uint256"
            }
          ],
          "internalType": "struct ERC721Auction.Bid[]",
          "name": "",
          "type": "tuple[]"
        }
      ],
      "stateMutability": "view",
      "type": "function",
      "constant": true
    },
    {
      "inputs": [
        {
          "internalType": "uint256",
          "name": "_tokenId",
          "type": "uint256"
        }
      ],
      "name": "getAvailableFunds",
      "outputs": [
        {
          "internalType": "uint256",
          "name": "",
          "type": "uint256"
        }
      ],
      "stateMutability": "view",
      "type": "function",
      "constant": true
    },
    {
      "inputs": [
        {
          "internalType": "address",
          "name": "",
          "type": "address"
        },
        {
          "internalType": "address",
          "name": "",
          "type": "address"
        },
        {
          "internalType": "uint256",
          "name": "",
          "type": "uint256"
        },
        {
          "internalType": "bytes",
          "name": "",
          "type": "bytes"
        }
      ],
      "name": "onERC721Received",
      "outputs": [
        {
          "internalType": "bytes4",
          "name": "",
          "type": "bytes4"
        }
      ],
      "stateMutability": "nonpayable",
      "type": "function"
    }
  ],
  "bytecode": "0x60806040523480156200001157600080fd5b50604051620041d4380380620041d483398181016040528101906200003791906200013d565b6001600081905550600073ffffffffffffffffffffffffffffffffffffffff168173ffffffffffffffffffffffffffffffffffffffff161415620000b2576040517f08c379a0000000000000000000000000000000000000000000000000000000008152600401620000a99062000196565b60405180910390fd5b80600460006101000a81548173ffffffffffffffffffffffffffffffffffffffff021916908373ffffffffffffffffffffffffffffffffffffffff1602179055507fec1f7776c46108861d2c92a8a677c2958bdd26bf10da9acdfe63146be2fd4e2a60405160405180910390a15062000245565b60008151905062000137816200022b565b92915050565b600060208284031215620001565762000155620001fd565b5b6000620001668482850162000126565b91505092915050565b60006200017e600b83620001b8565b91506200018b8262000202565b602082019050919050565b60006020820190508181036000830152620001b1816200016f565b9050919050565b600082825260208201905092915050565b6000620001d682620001dd565b9050919050565b600073ffffffffffffffffffffffffffffffffffffffff82169050919050565b600080fd5b7f496e76616c6964204e4654000000000000000000000000000000000000000000600082015250565b6200023681620001c9565b81146200024257600080fd5b50565b613f7f80620002556000396000f3fe608060405234801561001057600080fd5b50600436106100cf5760003560e01c806378bd79351161008c578063b9a2de3a11610066578063b9a2de3a14610251578063c14eff971461026d578063e52531051461029d578063fc0c546a146102b9576100cf565b806378bd7935146101be5780637995ea8f146101ee5780637b3c4baa1461021e576100cf565b8063150b7a02146100d457806337cd2f7e14610104578063571a26a01461012057806357c90de5146101565780636de37ba3146101725780636e3630a8146101a2575b600080fd5b6100ee60048036038101906100e99190612b7e565b6102d7565b6040516100fb9190613339565b60405180910390f35b61011e60048036038101906101199190612c88565b6102eb565b005b61013a60048036038101906101359190612c2e565b610711565b60405161014d97969594939291906132a8565b60405180910390f35b610170600480360381019061016b9190612c88565b6107a0565b005b61018c60048036038101906101879190612c2e565b6109bb565b6040516101999190613317565b60405180910390f35b6101bc60048036038101906101b79190612cc8565b610aa1565b005b6101d860048036038101906101d39190612c2e565b610d99565b6040516101e591906135cf565b60405180910390f35b61020860048036038101906102039190612c2e565b610f21565b60405161021591906135ea565b60405180910390f35b61023860048036038101906102339190612c88565b610f39565b6040516102489493929190613263565b60405180910390f35b61026b60048036038101906102669190612c2e565b610fa6565b005b61028760048036038101906102829190612c2e565b611b03565b60405161029491906135ea565b60405180910390f35b6102b760048036038101906102b29190612c88565b611b20565b005b6102c1611e63565b6040516102ce9190613354565b60405180910390f35b600063150b7a0260e01b9050949350505050565b60026000541415610331576040517f08c379a00000000000000000000000000000000000000000000000000000000081526004016103289061354f565b60405180910390fd5b600260008190555081600115156001600083815260200190815260200160002060050160149054906101000a900460ff161515146103a4576040517f08c379a000000000000000000000000000000000000000000000000000000000815260040161039b9061358f565b60405180910390fd5b826103ad611e89565b73ffffffffffffffffffffffffffffffffffffffff166001600083815260200190815260200160002060000160009054906101000a900473ffffffffffffffffffffffffffffffffffffffff1673ffffffffffffffffffffffffffffffffffffffff1614610450576040517f08c379a00000000000000000000000000000000000000000000000000000000081526004016104479061348f565b60405180910390fd5b826001600086815260200190815260200160002060050160009054906101000a900473ffffffffffffffffffffffffffffffffffffffff1673ffffffffffffffffffffffffffffffffffffffff166370a082316001600088815260200190815260200160002060000160009054906101000a900473ffffffffffffffffffffffffffffffffffffffff166040518263ffffffff1660e01b81526004016104f691906131bf565b60206040518083038186803b15801561050e57600080fd5b505afa158015610522573d6000803e3d6000fd5b505050506040513d601f19601f820116820180604052508101906105469190612c5b565b1015610587576040517f08c379a000000000000000000000000000000000000000000000000000000000815260040161057e906134ef565b60405180910390fd5b6001600085815260200190815260200160002060050160009054906101000a900473ffffffffffffffffffffffffffffffffffffffff1673ffffffffffffffffffffffffffffffffffffffff166323b872dd6001600087815260200190815260200160002060000160009054906101000a900473ffffffffffffffffffffffffffffffffffffffff1630866040518463ffffffff1660e01b815260040161063093929190613203565b602060405180830381600087803b15801561064a57600080fd5b505af115801561065e573d6000803e3d6000fd5b505050506040513d601f19601f820116820180604052508101906106829190612c01565b50826002600086815260200190815260200160002060008282546106a691906136a5565b925050819055506106b5611e89565b73ffffffffffffffffffffffffffffffffffffffff16847fdb1ba1adae16701eccb3e292cc6b13ece0ece958942601a10295b84b827ee468856040516106fb91906135ea565b60405180910390a3505060016000819055505050565b60016020528060005260406000206000915090508060000160009054906101000a900473ffffffffffffffffffffffffffffffffffffffff16908060010154908060020154908060030154908060040154908060050160009054906101000a900473ffffffffffffffffffffffffffffffffffffffff16908060050160149054906101000a900460ff16905087565b600260005414156107e6576040517f08c379a00000000000000000000000000000000000000000000000000000000081526004016107dd9061354f565b60405180910390fd5b600260008190555081600115156001600083815260200190815260200160002060050160149054906101000a900460ff16151514610859576040517f08c379a00000000000000000000000000000000000000000000000000000000081526004016108509061358f565b60405180910390fd5b60001515610883610868611e89565b73ffffffffffffffffffffffffffffffffffffffff16611e91565b1515146108c5576040517f08c379a00000000000000000000000000000000000000000000000000000000081526004016108bc9061338f565b60405180910390fd5b60016000848152602001908152602001600020600201546108e4611ea4565b1015801561090f5750600160008481526020019081526020016000206003015461090c611ea4565b11155b61094e576040517f08c379a00000000000000000000000000000000000000000000000000000000081526004016109459061350f565b60405180910390fd5b6109588383611eac565b610960611e89565b73ffffffffffffffffffffffffffffffffffffffff16837f0e54eff26401bf69b81b26f60bd85ef47f5d85275c1d268d84f68d6897431c47846040516109a691906135ea565b60405180910390a35060016000819055505050565b606060036000838152602001908152602001600020805480602002602001604051908101604052809291908181526020016000905b82821015610a9657838290600052602060002090600402016040518060800160405290816000820160009054906101000a900473ffffffffffffffffffffffffffffffffffffffff1673ffffffffffffffffffffffffffffffffffffffff1673ffffffffffffffffffffffffffffffffffffffff1681526020016001820154815260200160028201548152602001600382015481525050815260200190600101906109f0565b505050509050919050565b600460009054906101000a900473ffffffffffffffffffffffffffffffffffffffff1673ffffffffffffffffffffffffffffffffffffffff1663e985e9c5600460009054906101000a900473ffffffffffffffffffffffffffffffffffffffff1673ffffffffffffffffffffffffffffffffffffffff16636352211e896040518263ffffffff1660e01b8152600401610b3a91906135ea565b60206040518083038186803b158015610b5257600080fd5b505afa158015610b66573d6000803e3d6000fd5b505050506040513d601f19601f82011682018060405250810190610b8a9190612b51565b306040518363ffffffff1660e01b8152600401610ba89291906131da565b60206040518083038186803b158015610bc057600080fd5b505afa158015610bd4573d6000803e3d6000fd5b505050506040513d601f19601f82011682018060405250810190610bf89190612c01565b610c37576040517f08c379a0000000000000000000000000000000000000000000000000000000008152600401610c2e906133ef565b60405180910390fd5b610c3f611e89565b73ffffffffffffffffffffffffffffffffffffffff16600460009054906101000a900473ffffffffffffffffffffffffffffffffffffffff1673ffffffffffffffffffffffffffffffffffffffff16636352211e886040518263ffffffff1660e01b8152600401610cb091906135ea565b60206040518083038186803b158015610cc857600080fd5b505afa158015610cdc573d6000803e3d6000fd5b505050506040513d601f19601f82011682018060405250810190610d009190612b51565b73ffffffffffffffffffffffffffffffffffffffff1614610d56576040517f08c379a0000000000000000000000000000000000000000000000000000000008152600401610d4d906133af565b60405180910390fd5b610d64868686868686612629565b857f7e0e356457a92dacd3760ddf327a24dd226c6ca01b2cc41a7fd6f28469c7ab9b60405160405180910390a2505050505050565b610da1612955565b81600115156001600083815260200190815260200160002060050160149054906101000a900460ff16151514610e0c576040517f08c379a0000000000000000000000000000000000000000000000000000000008152600401610e039061358f565b60405180910390fd5b600160008481526020019081526020016000206040518060e00160405290816000820160009054906101000a900473ffffffffffffffffffffffffffffffffffffffff1673ffffffffffffffffffffffffffffffffffffffff1673ffffffffffffffffffffffffffffffffffffffff168152602001600182015481526020016002820154815260200160038201548152602001600482015481526020016005820160009054906101000a900473ffffffffffffffffffffffffffffffffffffffff1673ffffffffffffffffffffffffffffffffffffffff1673ffffffffffffffffffffffffffffffffffffffff1681526020016005820160149054906101000a900460ff161515151581525050915050919050565b60026020528060005260406000206000915090505481565b60036020528160005260406000208181548110610f5557600080fd5b9060005260206000209060040201600091509150508060000160009054906101000a900473ffffffffffffffffffffffffffffffffffffffff16908060010154908060020154908060030154905084565b60026000541415610fec576040517f08c379a0000000000000000000000000000000000000000000000000000000008152600401610fe39061354f565b60405180910390fd5b600260008190555080600115156001600083815260200190815260200160002060050160149054906101000a900460ff1615151461105f576040517f08c379a00000000000000000000000000000000000000000000000000000000081526004016110569061358f565b60405180910390fd5b6000600160008481526020019081526020016000206040518060e00160405290816000820160009054906101000a900473ffffffffffffffffffffffffffffffffffffffff1673ffffffffffffffffffffffffffffffffffffffff1673ffffffffffffffffffffffffffffffffffffffff168152602001600182015481526020016002820154815260200160038201548152602001600482015481526020016005820160009054906101000a900473ffffffffffffffffffffffffffffffffffffffff1673ffffffffffffffffffffffffffffffffffffffff1673ffffffffffffffffffffffffffffffffffffffff1681526020016005820160149054906101000a900460ff161515151581525050905060008160600151116111b7576040517f08c379a00000000000000000000000000000000000000000000000000000000081526004016111ae9061344f565b60405180910390fd5b80606001516111c4611ea4565b11611204576040517f08c379a00000000000000000000000000000000000000000000000000000000081526004016111fb9061352f565b60405180910390fd5b600460009054906101000a900473ffffffffffffffffffffffffffffffffffffffff1673ffffffffffffffffffffffffffffffffffffffff1663e985e9c58260000151306040518363ffffffff1660e01b81526004016112659291906131da565b60206040518083038186803b15801561127d57600080fd5b505afa158015611291573d6000803e3d6000fd5b505050506040513d601f19601f820116820180604052508101906112b59190612c01565b6112f4576040517f08c379a00000000000000000000000000000000000000000000000000000000081526004016112eb9061356f565b60405180910390fd5b60006003600085815260200190815260200160002090506000818054905011611352576040517f08c379a0000000000000000000000000000000000000000000000000000000008152600401611349906134cf565b60405180910390fd5b60006114556113966001600088815260200190815260200160002060020154600160008981526020019081526020016000206003015461291390919063ffffffff16565b6114476113c9600160008a8152602001908152602001600020600201546113bb611ea4565b61291390919063ffffffff16565b611439606461142b600160008d8152602001908152602001600020600401548960018b805490506113fa9190613786565b8154811061140b5761140a6138f0565b5b90600052602060002090600402016002015461292990919063ffffffff16565b61293f90919063ffffffff16565b61292990919063ffffffff16565b61293f90919063ffffffff16565b9050600081836001858054905061146c9190613786565b8154811061147d5761147c6138f0565b5b90600052602060002090600402016002015461149991906136a5565b905080600260008881526020019081526020016000205410156116c657600460009054906101000a900473ffffffffffffffffffffffffffffffffffffffff1673ffffffffffffffffffffffffffffffffffffffff166342842e0e3085600187805490506115079190613786565b81548110611518576115176138f0565b5b906000526020600020906004020160000160009054906101000a900473ffffffffffffffffffffffffffffffffffffffff16896040518463ffffffff1660e01b815260040161156993929190613203565b600060405180830381600087803b15801561158357600080fd5b505af1158015611597573d6000803e3d6000fd5b505050506001600087815260200190815260200160002060050160009054906101000a900473ffffffffffffffffffffffffffffffffffffffff1673ffffffffffffffffffffffffffffffffffffffff1663a9059cbb6001600089815260200190815260200160002060000160009054906101000a900473ffffffffffffffffffffffffffffffffffffffff16600260008a8152602001908152602001600020546040518363ffffffff1660e01b815260040161165592919061323a565b602060405180830381600087803b15801561166f57600080fd5b505af1158015611683573d6000803e3d6000fd5b505050506040513d601f19601f820116820180604052508101906116a79190612c01565b50600060026000888152602001908152602001600020819055506119f8565b6001600087815260200190815260200160002060050160009054906101000a900473ffffffffffffffffffffffffffffffffffffffff1673ffffffffffffffffffffffffffffffffffffffff166323b872dd30856001878054905061172b9190613786565b8154811061173c5761173b6138f0565b5b906000526020600020906004020160000160009054906101000a900473ffffffffffffffffffffffffffffffffffffffff16846040518463ffffffff1660e01b815260040161178d93929190613203565b602060405180830381600087803b1580156117a757600080fd5b505af11580156117bb573d6000803e3d6000fd5b505050506040513d601f19601f820116820180604052508101906117df9190612c01565b50806002600088815260200190815260200160002060008282546118039190613786565b92505081905550600460009054906101000a900473ffffffffffffffffffffffffffffffffffffffff1673ffffffffffffffffffffffffffffffffffffffff166342842e0e30600160008a815260200190815260200160002060000160009054906101000a900473ffffffffffffffffffffffffffffffffffffffff16896040518463ffffffff1660e01b815260040161189f93929190613203565b600060405180830381600087803b1580156118b957600080fd5b505af11580156118cd573d6000803e3d6000fd5b505050506001600087815260200190815260200160002060050160009054906101000a900473ffffffffffffffffffffffffffffffffffffffff1673ffffffffffffffffffffffffffffffffffffffff1663a9059cbb6001600089815260200190815260200160002060000160009054906101000a900473ffffffffffffffffffffffffffffffffffffffff16600260008a8152602001908152602001600020546040518363ffffffff1660e01b815260040161198b92919061323a565b602060405180830381600087803b1580156119a557600080fd5b505af11580156119b9573d6000803e3d6000fd5b505050506040513d601f19601f820116820180604052508101906119dd9190612c01565b50600060026000888152602001908152602001600020819055505b600360008781526020019081526020016000206000611a1791906129c0565b60016000878152602001908152602001600020600080820160006101000a81549073ffffffffffffffffffffffffffffffffffffffff021916905560018201600090556002820160009055600382016000905560048201600090556005820160006101000a81549073ffffffffffffffffffffffffffffffffffffffff02191690556005820160146101000a81549060ff021916905550506002600087815260200190815260200160002060009055857f45806e512b1f4f10e33e8b3cb64d1d11d998d8c554a95e0841fc1c701278bd5d60405160405180910390a25050505050600160008190555050565b600060026000838152602001908152602001600020549050919050565b60026000541415611b66576040517f08c379a0000000000000000000000000000000000000000000000000000000008152600401611b5d9061354f565b60405180910390fd5b600260008190555081600115156001600083815260200190815260200160002060050160149054906101000a900460ff16151514611bd9576040517f08c379a0000000000000000000000000000000000000000000000000000000008152600401611bd09061358f565b60405180910390fd5b82611be2611e89565b73ffffffffffffffffffffffffffffffffffffffff166001600083815260200190815260200160002060000160009054906101000a900473ffffffffffffffffffffffffffffffffffffffff1673ffffffffffffffffffffffffffffffffffffffff1614611c85576040517f08c379a0000000000000000000000000000000000000000000000000000000008152600401611c7c9061348f565b60405180910390fd5b8260026000868152602001908152602001600020541015611cdb576040517f08c379a0000000000000000000000000000000000000000000000000000000008152600401611cd2906135af565b60405180910390fd5b6001600085815260200190815260200160002060050160009054906101000a900473ffffffffffffffffffffffffffffffffffffffff1673ffffffffffffffffffffffffffffffffffffffff1663a9059cbb6001600087815260200190815260200160002060000160009054906101000a900473ffffffffffffffffffffffffffffffffffffffff16856040518363ffffffff1660e01b8152600401611d8292919061323a565b602060405180830381600087803b158015611d9c57600080fd5b505af1158015611db0573d6000803e3d6000fd5b505050506040513d601f19601f82011682018060405250810190611dd49190612c01565b5082600260008681526020019081526020016000206000828254611df89190613786565b92505081905550611e07611e89565b73ffffffffffffffffffffffffffffffffffffffff16847f02906603b74312f6a4dfd85449e11574124d01fdb3407ad2f7f50b808cf3e7ce85604051611e4d91906135ea565b60405180910390a3505060016000819055505050565b600460009054906101000a900473ffffffffffffffffffffffffffffffffffffffff1681565b600033905090565b600080823b905060008111915050919050565b600042905090565b60006003600084815260200190815260200160002090506000829050600080838054905014611fd957611fd6611f176001600088815260200190815260200160002060020154600160008981526020019081526020016000206003015461291390919063ffffffff16565b611fc8611f4a600160008a815260200190815260200160002060020154611f3c611ea4565b61291390919063ffffffff16565b611fba6064611fac600160008d8152602001908152602001600020600401548a60018c80549050611f7b9190613786565b81548110611f8c57611f8b6138f0565b5b90600052602060002090600402016002015461292990919063ffffffff16565b61293f90919063ffffffff16565b61292990919063ffffffff16565b61293f90919063ffffffff16565b90505b60008183611fe791906136a5565b905060008480549050146120fb57600084600186805490506120099190613786565b8154811061201a576120196138f0565b5b90600052602060002090600402016040518060800160405290816000820160009054906101000a900473ffffffffffffffffffffffffffffffffffffffff1673ffffffffffffffffffffffffffffffffffffffff1673ffffffffffffffffffffffffffffffffffffffff168152602001600182015481526020016002820154815260200160038201548152505090506000816040015190508085116120f4576040517f08c379a00000000000000000000000000000000000000000000000000000000081526004016120eb906134af565b60405180910390fd5b5050612155565b6001600087815260200190815260200160002060010154811015612154576040517f08c379a000000000000000000000000000000000000000000000000000000000815260040161214b906133cf565b60405180910390fd5b5b806001600088815260200190815260200160002060050160009054906101000a900473ffffffffffffffffffffffffffffffffffffffff1673ffffffffffffffffffffffffffffffffffffffff166370a082316121b0611e89565b6040518263ffffffff1660e01b81526004016121cc91906131bf565b60206040518083038186803b1580156121e457600080fd5b505afa1580156121f8573d6000803e3d6000fd5b505050506040513d601f19601f8201168201806040525081019061221c9190612c5b565b101561225d576040517f08c379a00000000000000000000000000000000000000000000000000000000081526004016122549061342f565b60405180910390fd5b6122656129e4565b61226d611e89565b816000019073ffffffffffffffffffffffffffffffffffffffff16908173ffffffffffffffffffffffffffffffffffffffff168152505083816020018181525050818160400181815250506122c0611ea4565b8160600181815250508481908060018154018082558091505060019003906000526020600020906004020160009091909190915060008201518160000160006101000a81548173ffffffffffffffffffffffffffffffffffffffff021916908373ffffffffffffffffffffffffffffffffffffffff16021790555060208201518160010155604082015181600201556060820151816003015550506001600088815260200190815260200160002060050160009054906101000a900473ffffffffffffffffffffffffffffffffffffffff1673ffffffffffffffffffffffffffffffffffffffff166323b872dd6123b5611e89565b30856040518463ffffffff1660e01b81526004016123d593929190613203565b602060405180830381600087803b1580156123ef57600080fd5b505af1158015612403573d6000803e3d6000fd5b505050506040513d601f19601f820116820180604052508101906124279190612c01565b508160026000898152602001908152602001600020600082825461244b91906136a5565b92505081905550600185805490501115612620576001600088815260200190815260200160002060050160009054906101000a900473ffffffffffffffffffffffffffffffffffffffff1673ffffffffffffffffffffffffffffffffffffffff1663a9059cbb86600288805490506124c39190613786565b815481106124d4576124d36138f0565b5b906000526020600020906004020160000160009054906101000a900473ffffffffffffffffffffffffffffffffffffffff16858860028a805490506125199190613786565b8154811061252a576125296138f0565b5b90600052602060002090600402016002015461254691906136a5565b6040518363ffffffff1660e01b815260040161256392919061323a565b602060405180830381600087803b15801561257d57600080fd5b505af1158015612591573d6000803e3d6000fd5b505050506040513d601f19601f820116820180604052508101906125b59190612c01565b508285600287805490506125c99190613786565b815481106125da576125d96138f0565b5b9060005260206000209060040201600201546125f691906136a5565b6002600089815260200190815260200160002060008282546126189190613786565b925050819055505b50505050505050565b600015156001600088815260200190815260200160002060050160149054906101000a900460ff16151514612693576040517f08c379a000000000000000000000000000000000000000000000000000000000815260040161268a9061346f565b60405180910390fd5b8383116126d5576040517f08c379a00000000000000000000000000000000000000000000000000000000081526004016126cc9061336f565b60405180910390fd5b6126dd611ea4565b831161271e576040517f08c379a00000000000000000000000000000000000000000000000000000000081526004016127159061340f565b60405180910390fd5b6040518060e00160405280612731611e89565b73ffffffffffffffffffffffffffffffffffffffff1681526020018681526020018581526020018481526020018381526020018273ffffffffffffffffffffffffffffffffffffffff168152602001600115158152506001600088815260200190815260200160002060008201518160000160006101000a81548173ffffffffffffffffffffffffffffffffffffffff021916908373ffffffffffffffffffffffffffffffffffffffff1602179055506020820151816001015560408201518160020155606082015181600301556080820151816004015560a08201518160050160006101000a81548173ffffffffffffffffffffffffffffffffffffffff021916908373ffffffffffffffffffffffffffffffffffffffff16021790555060c08201518160050160146101000a81548160ff021916908315150217905550905050600460009054906101000a900473ffffffffffffffffffffffffffffffffffffffff1673ffffffffffffffffffffffffffffffffffffffff166342842e0e6128b9611e89565b30896040518463ffffffff1660e01b81526004016128d993929190613203565b600060405180830381600087803b1580156128f357600080fd5b505af1158015612907573d6000803e3d6000fd5b50505050505050505050565b600081836129219190613786565b905092915050565b60008183612937919061372c565b905092915050565b6000818361294d91906136fb565b905092915050565b6040518060e00160405280600073ffffffffffffffffffffffffffffffffffffffff16815260200160008152602001600081526020016000815260200160008152602001600073ffffffffffffffffffffffffffffffffffffffff1681526020016000151581525090565b50805460008255600402906000526020600020908101906129e19190612a22565b50565b6040518060800160405280600073ffffffffffffffffffffffffffffffffffffffff1681526020016000815260200160008152602001600081525090565b5b80821115612a7457600080820160006101000a81549073ffffffffffffffffffffffffffffffffffffffff021916905560018201600090556002820160009055600382016000905550600401612a23565b5090565b6000612a8b612a868461362a565b613605565b905082815260208101848484011115612aa757612aa6613953565b5b612ab2848285613852565b509392505050565b600081359050612ac981613f04565b92915050565b600081519050612ade81613f04565b92915050565b600081519050612af381613f1b565b92915050565b600082601f830112612b0e57612b0d61394e565b5b8135612b1e848260208601612a78565b91505092915050565b600081359050612b3681613f32565b92915050565b600081519050612b4b81613f32565b92915050565b600060208284031215612b6757612b6661395d565b5b6000612b7584828501612acf565b91505092915050565b60008060008060808587031215612b9857612b9761395d565b5b6000612ba687828801612aba565b9450506020612bb787828801612aba565b9350506040612bc887828801612b27565b925050606085013567ffffffffffffffff811115612be957612be8613958565b5b612bf587828801612af9565b91505092959194509250565b600060208284031215612c1757612c1661395d565b5b6000612c2584828501612ae4565b91505092915050565b600060208284031215612c4457612c4361395d565b5b6000612c5284828501612b27565b91505092915050565b600060208284031215612c7157612c7061395d565b5b6000612c7f84828501612b3c565b91505092915050565b60008060408385031215612c9f57612c9e61395d565b5b6000612cad85828601612b27565b9250506020612cbe85828601612b27565b9150509250929050565b60008060008060008060c08789031215612ce557612ce461395d565b5b6000612cf389828a01612b27565b9650506020612d0489828a01612b27565b9550506040612d1589828a01612b27565b9450506060612d2689828a01612b27565b9350506080612d3789828a01612b27565b92505060a0612d4889828a01612aba565b9150509295509295509295565b6000612d61838361314c565b60808301905092915050565b612d76816137ba565b82525050565b612d85816137ba565b82525050565b6000612d968261366b565b612da08185613683565b9350612dab8361365b565b8060005b83811015612ddc578151612dc38882612d55565b9750612dce83613676565b925050600181019050612daf565b5085935050505092915050565b612df2816137cc565b82525050565b612e01816137cc565b82525050565b612e10816137d8565b82525050565b612e1f8161382e565b82525050565b6000612e32603a83613694565b9150612e3d82613973565b604082019050919050565b6000612e55602883613694565b9150612e60826139c2565b604082019050919050565b6000612e78602e83613694565b9150612e8382613a11565b604082019050919050565b6000612e9b603e83613694565b9150612ea682613a60565b604082019050919050565b6000612ebe602d83613694565b9150612ec982613aaf565b604082019050919050565b6000612ee1603683613694565b9150612eec82613afe565b604082019050919050565b6000612f04602f83613694565b9150612f0f82613b4d565b604082019050919050565b6000612f27602a83613694565b9150612f3282613b9c565b604082019050919050565b6000612f4a603783613694565b9150612f5582613beb565b604082019050919050565b6000612f6d602b83613694565b9150612f7882613c3a565b604082019050919050565b6000612f90603183613694565b9150612f9b82613c89565b604082019050919050565b6000612fb3602083613694565b9150612fbe82613cd8565b602082019050919050565b6000612fd6603f83613694565b9150612fe182613d01565b604082019050919050565b6000612ff9603783613694565b915061300482613d50565b604082019050919050565b600061301c602d83613694565b915061302782613d9f565b604082019050919050565b600061303f601f83613694565b915061304a82613dee565b602082019050919050565b6000613062602883613694565b915061306d82613e17565b604082019050919050565b6000613085603283613694565b915061309082613e66565b604082019050919050565b60006130a8602783613694565b91506130b382613eb5565b604082019050919050565b60e0820160008201516130d46000850182612d6d565b5060208201516130e760208501826131a1565b5060408201516130fa60408501826131a1565b50606082015161310d60608501826131a1565b50608082015161312060808501826131a1565b5060a082015161313360a0850182612d6d565b5060c082015161314660c0850182612de9565b50505050565b6080820160008201516131626000850182612d6d565b50602082015161317560208501826131a1565b50604082015161318860408501826131a1565b50606082015161319b60608501826131a1565b50505050565b6131aa81613824565b82525050565b6131b981613824565b82525050565b60006020820190506131d46000830184612d7c565b92915050565b60006040820190506131ef6000830185612d7c565b6131fc6020830184612d7c565b9392505050565b60006060820190506132186000830186612d7c565b6132256020830185612d7c565b61323260408301846131b0565b949350505050565b600060408201905061324f6000830185612d7c565b61325c60208301846131b0565b9392505050565b60006080820190506132786000830187612d7c565b61328560208301866131b0565b61329260408301856131b0565b61329f60608301846131b0565b95945050505050565b600060e0820190506132bd600083018a612d7c565b6132ca60208301896131b0565b6132d760408301886131b0565b6132e460608301876131b0565b6132f160808301866131b0565b6132fe60a0830185612d7c565b61330b60c0830184612df8565b98975050505050505050565b600060208201905081810360008301526133318184612d8b565b905092915050565b600060208201905061334e6000830184612e07565b92915050565b60006020820190506133696000830184612e16565b92915050565b6000602082019050818103600083015261338881612e25565b9050919050565b600060208201905081810360008301526133a881612e48565b9050919050565b600060208201905081810360008301526133c881612e6b565b9050919050565b600060208201905081810360008301526133e881612e8e565b9050919050565b6000602082019050818103600083015261340881612eb1565b9050919050565b6000602082019050818103600083015261342881612ed4565b9050919050565b6000602082019050818103600083015261344881612ef7565b9050919050565b6000602082019050818103600083015261346881612f1a565b9050919050565b6000602082019050818103600083015261348881612f3d565b9050919050565b600060208201905081810360008301526134a881612f60565b9050919050565b600060208201905081810360008301526134c881612f83565b9050919050565b600060208201905081810360008301526134e881612fa6565b9050919050565b6000602082019050818103600083015261350881612fc9565b9050919050565b6000602082019050818103600083015261352881612fec565b9050919050565b600060208201905081810360008301526135488161300f565b9050919050565b6000602082019050818103600083015261356881613032565b9050919050565b6000602082019050818103600083015261358881613055565b9050919050565b600060208201905081810360008301526135a881613078565b9050919050565b600060208201905081810360008301526135c88161309b565b9050919050565b600060e0820190506135e460008301846130be565b92915050565b60006020820190506135ff60008301846131b0565b92915050565b600061360f613620565b905061361b8282613861565b919050565b6000604051905090565b600067ffffffffffffffff8211156136455761364461391f565b5b61364e82613962565b9050602081019050919050565b6000819050602082019050919050565b600081519050919050565b6000602082019050919050565b600082825260208201905092915050565b600082825260208201905092915050565b60006136b082613824565b91506136bb83613824565b9250827fffffffffffffffffffffffffffffffffffffffffffffffffffffffffffffffff038211156136f0576136ef613892565b5b828201905092915050565b600061370682613824565b915061371183613824565b925082613721576137206138c1565b5b828204905092915050565b600061373782613824565b915061374283613824565b9250817fffffffffffffffffffffffffffffffffffffffffffffffffffffffffffffffff048311821515161561377b5761377a613892565b5b828202905092915050565b600061379182613824565b915061379c83613824565b9250828210156137af576137ae613892565b5b828203905092915050565b60006137c582613804565b9050919050565b60008115159050919050565b60007fffffffff0000000000000000000000000000000000000000000000000000000082169050919050565b600073ffffffffffffffffffffffffffffffffffffffff82169050919050565b6000819050919050565b600061383982613840565b9050919050565b600061384b82613804565b9050919050565b82818337600083830152505050565b61386a82613962565b810181811067ffffffffffffffff821117156138895761388861391f565b5b80604052505050565b7f4e487b7100000000000000000000000000000000000000000000000000000000600052601160045260246000fd5b7f4e487b7100000000000000000000000000000000000000000000000000000000600052601260045260246000fd5b7f4e487b7100000000000000000000000000000000000000000000000000000000600052603260045260246000fd5b7f4e487b7100000000000000000000000000000000000000000000000000000000600052604160045260246000fd5b600080fd5b600080fd5b600080fd5b600080fd5b6000601f19601f8301169050919050565b7f41756374696f6e2e63726561746541756374696f6e3a20456e642074696d652060008201527f6d7573742062652067726561746572207468616e207374617274000000000000602082015250565b7f41756374696f6e2e706c6163654269643a204e6f20636f6e747261637473207060008201527f65726d6974746564000000000000000000000000000000000000000000000000602082015250565b7f41756374696f6e2e63726561746541756374696f6e3a2043616c6c657220697360008201527f206e6f7420746865206f776e6572000000000000000000000000000000000000602082015250565b7f41756374696f6e2e706c6163654269643a2042696420616d6f756e742073686f60008201527f756c6420626520686967686572207468616e2073746172742070726963650000602082015250565b7f41756374696f6e2e63726561746541756374696f6e3a204f776e65722068617360008201527f206e6f7420617070726f76656400000000000000000000000000000000000000602082015250565b7f41756374696f6e2e63726561746541756374696f6e3a20456e642074696d652060008201527f7061737365642e204e6f626f64792063616e2062696400000000000000000000602082015250565b7f41756374696f6e2e706c6163654269643a2062696464657220686173206e6f7460008201527f20656e6f7567682062616c616e63650000000000000000000000000000000000602082015250565b7f41756374696f6e2e656e6441756374696f6e3a2041756374696f6e20646f657360008201527f206e6f7420657869737400000000000000000000000000000000000000000000602082015250565b7f41756374696f6e2e63726561746541756374696f6e3a2041756374696f6e206860008201527f6173206265656e20616c72656164792063726561746564000000000000000000602082015250565b7f41756374696f6e2e6f6e6c7941756374696f6e4f776e65723a206e6f7420617560008201527f6374696f6e206f776e6572000000000000000000000000000000000000000000602082015250565b7f41756374696f6e2e706c6163654269643a204661696c656420746f206f75746260008201527f6964206869676865737420626964646572000000000000000000000000000000602082015250565b7f41756374696f6e2e656e6441756374696f6e3a206e6f20626964206578697374600082015250565b7f41756374696f6e2e72657475726e46756e64733a2061756374696f6e206f776e60008201527f657220686173206e6f7420656e6f7567682072657475726e20616d6f756e7400602082015250565b7f41756374696f6e2e706c6163654269643a2042696464696e67206f757473696460008201527f65206f66207468652061756374696f6e2077696e646f77000000000000000000602082015250565b7f41756374696f6e2e656e6441756374696f6e3a205468652061756374696f6e2060008201527f686173206e6f7420656e64656400000000000000000000000000000000000000602082015250565b7f5265656e7472616e637947756172643a207265656e7472616e742063616c6c00600082015250565b7f41756374696f6e2e656e6441756374696f6e3a2061756374696f6e206e6f742060008201527f617070726f766564000000000000000000000000000000000000000000000000602082015250565b7f41756374696f6e2e6f6e6c794372656174656441756374696f6e3a204175637460008201527f696f6e20646f6573206e6f742065786973740000000000000000000000000000602082015250565b7f41756374696f6e2e776974686472617746756e64733a206e6f7420656e6f756760008201527f682066756e647300000000000000000000000000000000000000000000000000602082015250565b613f0d816137ba565b8114613f1857600080fd5b50565b613f24816137cc565b8114613f2f57600080fd5b50565b613f3b81613824565b8114613f4657600080fd5b5056fea26469706673582212200386af2f6f1f048922f415f8345744e6033368529a9d27b2d9b827cffc64f6d264736f6c63430008060033",
  "deployedBytecode": "0x608060405234801561001057600080fd5b50600436106100cf5760003560e01c806378bd79351161008c578063b9a2de3a11610066578063b9a2de3a14610251578063c14eff971461026d578063e52531051461029d578063fc0c546a146102b9576100cf565b806378bd7935146101be5780637995ea8f146101ee5780637b3c4baa1461021e576100cf565b8063150b7a02146100d457806337cd2f7e14610104578063571a26a01461012057806357c90de5146101565780636de37ba3146101725780636e3630a8146101a2575b600080fd5b6100ee60048036038101906100e991906127d6565b6102d7565b6040516100fb9190612f91565b60405180910390f35b61011e600480360381019061011991906128e0565b6102eb565b005b61013a60048036038101906101359190612886565b6106e7565b60405161014d9796959493929190612f00565b60405180910390f35b610170600480360381019061016b91906128e0565b610776565b005b61018c60048036038101906101879190612886565b610991565b6040516101999190612f6f565b60405180910390f35b6101bc60048036038101906101b79190612920565b610a77565b005b6101d860048036038101906101d39190612886565b610d6f565b6040516101e59190613227565b60405180910390f35b61020860048036038101906102039190612886565b610ef7565b6040516102159190613242565b60405180910390f35b610238600480360381019061023391906128e0565b610f0f565b6040516102489493929190612ebb565b60405180910390f35b61026b60048036038101906102669190612886565b610f7c565b005b61028760048036038101906102829190612886565b611785565b6040516102949190613242565b60405180910390f35b6102b760048036038101906102b291906128e0565b6117a2565b005b6102c1611abb565b6040516102ce9190612fac565b60405180910390f35b600063150b7a0260e01b9050949350505050565b60026000541415610331576040517f08c379a0000000000000000000000000000000000000000000000000000000008152600401610328906131a7565b60405180910390fd5b600260008190555081600115156001600083815260200190815260200160002060050160149054906101000a900460ff161515146103a4576040517f08c379a000000000000000000000000000000000000000000000000000000000815260040161039b906131e7565b60405180910390fd5b826103ad611ae1565b73ffffffffffffffffffffffffffffffffffffffff166001600083815260200190815260200160002060000160009054906101000a900473ffffffffffffffffffffffffffffffffffffffff1673ffffffffffffffffffffffffffffffffffffffff1614610450576040517f08c379a0000000000000000000000000000000000000000000000000000000008152600401610447906130e7565b60405180910390fd5b826001600086815260200190815260200160002060050160009054906101000a900473ffffffffffffffffffffffffffffffffffffffff1673ffffffffffffffffffffffffffffffffffffffff166370a082316001600088815260200190815260200160002060000160009054906101000a900473ffffffffffffffffffffffffffffffffffffffff166040518263ffffffff1660e01b81526004016104f69190612e17565b60206040518083038186803b15801561050e57600080fd5b505afa158015610522573d6000803e3d6000fd5b505050506040513d601f19601f8201168201806040525081019061054691906128b3565b1015610587576040517f08c379a000000000000000000000000000000000000000000000000000000000815260040161057e90613147565b60405180910390fd5b6001600085815260200190815260200160002060050160009054906101000a900473ffffffffffffffffffffffffffffffffffffffff1673ffffffffffffffffffffffffffffffffffffffff166323b872dd6001600087815260200190815260200160002060000160009054906101000a900473ffffffffffffffffffffffffffffffffffffffff1630866040518463ffffffff1660e01b815260040161063093929190612e5b565b602060405180830381600087803b15801561064a57600080fd5b505af115801561065e573d6000803e3d6000fd5b505050506040513d601f19601f820116820180604052508101906106829190612859565b5061068b611ae1565b73ffffffffffffffffffffffffffffffffffffffff16847fdb1ba1adae16701eccb3e292cc6b13ece0ece958942601a10295b84b827ee468856040516106d19190613242565b60405180910390a3505060016000819055505050565b60016020528060005260406000206000915090508060000160009054906101000a900473ffffffffffffffffffffffffffffffffffffffff16908060010154908060020154908060030154908060040154908060050160009054906101000a900473ffffffffffffffffffffffffffffffffffffffff16908060050160149054906101000a900460ff16905087565b600260005414156107bc576040517f08c379a00000000000000000000000000000000000000000000000000000000081526004016107b3906131a7565b60405180910390fd5b600260008190555081600115156001600083815260200190815260200160002060050160149054906101000a900460ff1615151461082f576040517f08c379a0000000000000000000000000000000000000000000000000000000008152600401610826906131e7565b60405180910390fd5b6000151561085961083e611ae1565b73ffffffffffffffffffffffffffffffffffffffff16611ae9565b15151461089b576040517f08c379a000000000000000000000000000000000000000000000000000000000815260040161089290612fe7565b60405180910390fd5b60016000848152602001908152602001600020600201546108ba611afc565b101580156108e5575060016000848152602001908152602001600020600301546108e2611afc565b11155b610924576040517f08c379a000000000000000000000000000000000000000000000000000000000815260040161091b90613167565b60405180910390fd5b61092e8383611b04565b610936611ae1565b73ffffffffffffffffffffffffffffffffffffffff16837f0e54eff26401bf69b81b26f60bd85ef47f5d85275c1d268d84f68d6897431c478460405161097c9190613242565b60405180910390a35060016000819055505050565b606060036000838152602001908152602001600020805480602002602001604051908101604052809291908181526020016000905b82821015610a6c57838290600052602060002090600402016040518060800160405290816000820160009054906101000a900473ffffffffffffffffffffffffffffffffffffffff1673ffffffffffffffffffffffffffffffffffffffff1673ffffffffffffffffffffffffffffffffffffffff1681526020016001820154815260200160028201548152602001600382015481525050815260200190600101906109c6565b505050509050919050565b600460009054906101000a900473ffffffffffffffffffffffffffffffffffffffff1673ffffffffffffffffffffffffffffffffffffffff1663e985e9c5600460009054906101000a900473ffffffffffffffffffffffffffffffffffffffff1673ffffffffffffffffffffffffffffffffffffffff16636352211e896040518263ffffffff1660e01b8152600401610b109190613242565b60206040518083038186803b158015610b2857600080fd5b505afa158015610b3c573d6000803e3d6000fd5b505050506040513d601f19601f82011682018060405250810190610b6091906127a9565b306040518363ffffffff1660e01b8152600401610b7e929190612e32565b60206040518083038186803b158015610b9657600080fd5b505afa158015610baa573d6000803e3d6000fd5b505050506040513d601f19601f82011682018060405250810190610bce9190612859565b610c0d576040517f08c379a0000000000000000000000000000000000000000000000000000000008152600401610c0490613047565b60405180910390fd5b610c15611ae1565b73ffffffffffffffffffffffffffffffffffffffff16600460009054906101000a900473ffffffffffffffffffffffffffffffffffffffff1673ffffffffffffffffffffffffffffffffffffffff16636352211e886040518263ffffffff1660e01b8152600401610c869190613242565b60206040518083038186803b158015610c9e57600080fd5b505afa158015610cb2573d6000803e3d6000fd5b505050506040513d601f19601f82011682018060405250810190610cd691906127a9565b73ffffffffffffffffffffffffffffffffffffffff1614610d2c576040517f08c379a0000000000000000000000000000000000000000000000000000000008152600401610d2390613007565b60405180910390fd5b610d3a868686868686612281565b857f7e0e356457a92dacd3760ddf327a24dd226c6ca01b2cc41a7fd6f28469c7ab9b60405160405180910390a2505050505050565b610d776125ad565b81600115156001600083815260200190815260200160002060050160149054906101000a900460ff16151514610de2576040517f08c379a0000000000000000000000000000000000000000000000000000000008152600401610dd9906131e7565b60405180910390fd5b600160008481526020019081526020016000206040518060e00160405290816000820160009054906101000a900473ffffffffffffffffffffffffffffffffffffffff1673ffffffffffffffffffffffffffffffffffffffff1673ffffffffffffffffffffffffffffffffffffffff168152602001600182015481526020016002820154815260200160038201548152602001600482015481526020016005820160009054906101000a900473ffffffffffffffffffffffffffffffffffffffff1673ffffffffffffffffffffffffffffffffffffffff1673ffffffffffffffffffffffffffffffffffffffff1681526020016005820160149054906101000a900460ff161515151581525050915050919050565b60026020528060005260406000206000915090505481565b60036020528160005260406000208181548110610f2b57600080fd5b9060005260206000209060040201600091509150508060000160009054906101000a900473ffffffffffffffffffffffffffffffffffffffff16908060010154908060020154908060030154905084565b60026000541415610fc2576040517f08c379a0000000000000000000000000000000000000000000000000000000008152600401610fb9906131a7565b60405180910390fd5b600260008190555080600115156001600083815260200190815260200160002060050160149054906101000a900460ff16151514611035576040517f08c379a000000000000000000000000000000000000000000000000000000000815260040161102c906131e7565b60405180910390fd5b6000600160008481526020019081526020016000206040518060e00160405290816000820160009054906101000a900473ffffffffffffffffffffffffffffffffffffffff1673ffffffffffffffffffffffffffffffffffffffff1673ffffffffffffffffffffffffffffffffffffffff168152602001600182015481526020016002820154815260200160038201548152602001600482015481526020016005820160009054906101000a900473ffffffffffffffffffffffffffffffffffffffff1673ffffffffffffffffffffffffffffffffffffffff1673ffffffffffffffffffffffffffffffffffffffff1681526020016005820160149054906101000a900460ff1615151515815250509050600081606001511161118d576040517f08c379a0000000000000000000000000000000000000000000000000000000008152600401611184906130a7565b60405180910390fd5b806060015161119a611afc565b116111da576040517f08c379a00000000000000000000000000000000000000000000000000000000081526004016111d190613187565b60405180910390fd5b600460009054906101000a900473ffffffffffffffffffffffffffffffffffffffff1673ffffffffffffffffffffffffffffffffffffffff1663e985e9c58260000151306040518363ffffffff1660e01b815260040161123b929190612e32565b60206040518083038186803b15801561125357600080fd5b505afa158015611267573d6000803e3d6000fd5b505050506040513d601f19601f8201168201806040525081019061128b9190612859565b6112ca576040517f08c379a00000000000000000000000000000000000000000000000000000000081526004016112c1906131c7565b60405180910390fd5b60006003600085815260200190815260200160002090506000818054905011611328576040517f08c379a000000000000000000000000000000000000000000000000000000000815260040161131f90613127565b60405180910390fd5b600061142b61136c6001600088815260200190815260200160002060020154600160008981526020019081526020016000206003015461256b90919063ffffffff16565b61141d61139f600160008a815260200190815260200160002060020154611391611afc565b61256b90919063ffffffff16565b61140f6064611401600160008d8152602001908152602001600020600401548960018b805490506113d091906133de565b815481106113e1576113e0613548565b5b90600052602060002090600402016002015461258190919063ffffffff16565b61259790919063ffffffff16565b61258190919063ffffffff16565b61259790919063ffffffff16565b9050600081836001858054905061144291906133de565b8154811061145357611452613548565b5b90600052602060002090600402016002015461146f91906132fd565b9050806002600088815260200190815260200160002054101561157657600460009054906101000a900473ffffffffffffffffffffffffffffffffffffffff1673ffffffffffffffffffffffffffffffffffffffff166342842e0e3085600187805490506114dd91906133de565b815481106114ee576114ed613548565b5b906000526020600020906004020160000160009054906101000a900473ffffffffffffffffffffffffffffffffffffffff16896040518463ffffffff1660e01b815260040161153f93929190612e5b565b600060405180830381600087803b15801561155957600080fd5b505af115801561156d573d6000803e3d6000fd5b50505050611691565b6001600087815260200190815260200160002060050160009054906101000a900473ffffffffffffffffffffffffffffffffffffffff1673ffffffffffffffffffffffffffffffffffffffff166323b872dd3085600187805490506115db91906133de565b815481106115ec576115eb613548565b5b906000526020600020906004020160000160009054906101000a900473ffffffffffffffffffffffffffffffffffffffff16846040518463ffffffff1660e01b815260040161163d93929190612e5b565b602060405180830381600087803b15801561165757600080fd5b505af115801561166b573d6000803e3d6000fd5b505050506040513d601f19601f8201168201806040525081019061168f9190612859565b505b6003600087815260200190815260200160002060006116b09190612618565b60016000878152602001908152602001600020600080820160006101000a81549073ffffffffffffffffffffffffffffffffffffffff021916905560018201600090556002820160009055600382016000905560048201600090556005820160006101000a81549073ffffffffffffffffffffffffffffffffffffffff02191690556005820160146101000a81549060ff02191690555050857f45806e512b1f4f10e33e8b3cb64d1d11d998d8c554a95e0841fc1c701278bd5d60405160405180910390a25050505050600160008190555050565b600060026000838152602001908152602001600020549050919050565b600260005414156117e8576040517f08c379a00000000000000000000000000000000000000000000000000000000081526004016117df906131a7565b60405180910390fd5b600260008190555081600115156001600083815260200190815260200160002060050160149054906101000a900460ff1615151461185b576040517f08c379a0000000000000000000000000000000000000000000000000000000008152600401611852906131e7565b60405180910390fd5b82611864611ae1565b73ffffffffffffffffffffffffffffffffffffffff166001600083815260200190815260200160002060000160009054906101000a900473ffffffffffffffffffffffffffffffffffffffff1673ffffffffffffffffffffffffffffffffffffffff1614611907576040517f08c379a00000000000000000000000000000000000000000000000000000000081526004016118fe906130e7565b60405180910390fd5b826002600086815260200190815260200160002054101561195d576040517f08c379a000000000000000000000000000000000000000000000000000000000815260040161195490613207565b60405180910390fd5b6001600085815260200190815260200160002060050160009054906101000a900473ffffffffffffffffffffffffffffffffffffffff1673ffffffffffffffffffffffffffffffffffffffff1663a9059cbb6001600087815260200190815260200160002060000160009054906101000a900473ffffffffffffffffffffffffffffffffffffffff16856040518363ffffffff1660e01b8152600401611a04929190612e92565b602060405180830381600087803b158015611a1e57600080fd5b505af1158015611a32573d6000803e3d6000fd5b505050506040513d601f19601f82011682018060405250810190611a569190612859565b50611a5f611ae1565b73ffffffffffffffffffffffffffffffffffffffff16847f02906603b74312f6a4dfd85449e11574124d01fdb3407ad2f7f50b808cf3e7ce85604051611aa59190613242565b60405180910390a3505060016000819055505050565b600460009054906101000a900473ffffffffffffffffffffffffffffffffffffffff1681565b600033905090565b600080823b905060008111915050919050565b600042905090565b60006003600084815260200190815260200160002090506000829050600080838054905014611c3157611c2e611b6f6001600088815260200190815260200160002060020154600160008981526020019081526020016000206003015461256b90919063ffffffff16565b611c20611ba2600160008a815260200190815260200160002060020154611b94611afc565b61256b90919063ffffffff16565b611c126064611c04600160008d8152602001908152602001600020600401548a60018c80549050611bd391906133de565b81548110611be457611be3613548565b5b90600052602060002090600402016002015461258190919063ffffffff16565b61259790919063ffffffff16565b61258190919063ffffffff16565b61259790919063ffffffff16565b90505b60008183611c3f91906132fd565b90506000848054905014611d535760008460018680549050611c6191906133de565b81548110611c7257611c71613548565b5b90600052602060002090600402016040518060800160405290816000820160009054906101000a900473ffffffffffffffffffffffffffffffffffffffff1673ffffffffffffffffffffffffffffffffffffffff1673ffffffffffffffffffffffffffffffffffffffff16815260200160018201548152602001600282015481526020016003820154815250509050600081604001519050808511611d4c576040517f08c379a0000000000000000000000000000000000000000000000000000000008152600401611d4390613107565b60405180910390fd5b5050611dad565b6001600087815260200190815260200160002060010154811015611dac576040517f08c379a0000000000000000000000000000000000000000000000000000000008152600401611da390613027565b60405180910390fd5b5b806001600088815260200190815260200160002060050160009054906101000a900473ffffffffffffffffffffffffffffffffffffffff1673ffffffffffffffffffffffffffffffffffffffff166370a08231611e08611ae1565b6040518263ffffffff1660e01b8152600401611e249190612e17565b60206040518083038186803b158015611e3c57600080fd5b505afa158015611e50573d6000803e3d6000fd5b505050506040513d601f19601f82011682018060405250810190611e7491906128b3565b1015611eb5576040517f08c379a0000000000000000000000000000000000000000000000000000000008152600401611eac90613087565b60405180910390fd5b611ebd61263c565b611ec5611ae1565b816000019073ffffffffffffffffffffffffffffffffffffffff16908173ffffffffffffffffffffffffffffffffffffffff16815250508381602001818152505081816040018181525050611f18611afc565b8160600181815250508481908060018154018082558091505060019003906000526020600020906004020160009091909190915060008201518160000160006101000a81548173ffffffffffffffffffffffffffffffffffffffff021916908373ffffffffffffffffffffffffffffffffffffffff16021790555060208201518160010155604082015181600201556060820151816003015550506001600088815260200190815260200160002060050160009054906101000a900473ffffffffffffffffffffffffffffffffffffffff1673ffffffffffffffffffffffffffffffffffffffff166323b872dd61200d611ae1565b30856040518463ffffffff1660e01b815260040161202d93929190612e5b565b602060405180830381600087803b15801561204757600080fd5b505af115801561205b573d6000803e3d6000fd5b505050506040513d601f19601f8201168201806040525081019061207f9190612859565b50816002600089815260200190815260200160002060008282546120a391906132fd565b92505081905550600185805490501115612278576001600088815260200190815260200160002060050160009054906101000a900473ffffffffffffffffffffffffffffffffffffffff1673ffffffffffffffffffffffffffffffffffffffff1663a9059cbb866002888054905061211b91906133de565b8154811061212c5761212b613548565b5b906000526020600020906004020160000160009054906101000a900473ffffffffffffffffffffffffffffffffffffffff16858860028a8054905061217191906133de565b8154811061218257612181613548565b5b90600052602060002090600402016002015461219e91906132fd565b6040518363ffffffff1660e01b81526004016121bb929190612e92565b602060405180830381600087803b1580156121d557600080fd5b505af11580156121e9573d6000803e3d6000fd5b505050506040513d601f19601f8201168201806040525081019061220d9190612859565b5082856002878054905061222191906133de565b8154811061223257612231613548565b5b90600052602060002090600402016002015461224e91906132fd565b60026000898152602001908152602001600020600082825461227091906133de565b925050819055505b50505050505050565b600015156001600088815260200190815260200160002060050160149054906101000a900460ff161515146122eb576040517f08c379a00000000000000000000000000000000000000000000000000000000081526004016122e2906130c7565b60405180910390fd5b83831161232d576040517f08c379a000000000000000000000000000000000000000000000000000000000815260040161232490612fc7565b60405180910390fd5b612335611afc565b8311612376576040517f08c379a000000000000000000000000000000000000000000000000000000000815260040161236d90613067565b60405180910390fd5b6040518060e00160405280612389611ae1565b73ffffffffffffffffffffffffffffffffffffffff1681526020018681526020018581526020018481526020018381526020018273ffffffffffffffffffffffffffffffffffffffff168152602001600115158152506001600088815260200190815260200160002060008201518160000160006101000a81548173ffffffffffffffffffffffffffffffffffffffff021916908373ffffffffffffffffffffffffffffffffffffffff1602179055506020820151816001015560408201518160020155606082015181600301556080820151816004015560a08201518160050160006101000a81548173ffffffffffffffffffffffffffffffffffffffff021916908373ffffffffffffffffffffffffffffffffffffffff16021790555060c08201518160050160146101000a81548160ff021916908315150217905550905050600460009054906101000a900473ffffffffffffffffffffffffffffffffffffffff1673ffffffffffffffffffffffffffffffffffffffff166342842e0e612511611ae1565b30896040518463ffffffff1660e01b815260040161253193929190612e5b565b600060405180830381600087803b15801561254b57600080fd5b505af115801561255f573d6000803e3d6000fd5b50505050505050505050565b6000818361257991906133de565b905092915050565b6000818361258f9190613384565b905092915050565b600081836125a59190613353565b905092915050565b6040518060e00160405280600073ffffffffffffffffffffffffffffffffffffffff16815260200160008152602001600081526020016000815260200160008152602001600073ffffffffffffffffffffffffffffffffffffffff1681526020016000151581525090565b5080546000825560040290600052602060002090810190612639919061267a565b50565b6040518060800160405280600073ffffffffffffffffffffffffffffffffffffffff1681526020016000815260200160008152602001600081525090565b5b808211156126cc57600080820160006101000a81549073ffffffffffffffffffffffffffffffffffffffff02191690556001820160009055600282016000905560038201600090555060040161267b565b5090565b60006126e36126de84613282565b61325d565b9050828152602081018484840111156126ff576126fe6135ab565b5b61270a8482856134aa565b509392505050565b60008135905061272181613b5c565b92915050565b60008151905061273681613b5c565b92915050565b60008151905061274b81613b73565b92915050565b600082601f830112612766576127656135a6565b5b81356127768482602086016126d0565b91505092915050565b60008135905061278e81613b8a565b92915050565b6000815190506127a381613b8a565b92915050565b6000602082840312156127bf576127be6135b5565b5b60006127cd84828501612727565b91505092915050565b600080600080608085870312156127f0576127ef6135b5565b5b60006127fe87828801612712565b945050602061280f87828801612712565b93505060406128208782880161277f565b925050606085013567ffffffffffffffff811115612841576128406135b0565b5b61284d87828801612751565b91505092959194509250565b60006020828403121561286f5761286e6135b5565b5b600061287d8482850161273c565b91505092915050565b60006020828403121561289c5761289b6135b5565b5b60006128aa8482850161277f565b91505092915050565b6000602082840312156128c9576128c86135b5565b5b60006128d784828501612794565b91505092915050565b600080604083850312156128f7576128f66135b5565b5b60006129058582860161277f565b92505060206129168582860161277f565b9150509250929050565b60008060008060008060c0878903121561293d5761293c6135b5565b5b600061294b89828a0161277f565b965050602061295c89828a0161277f565b955050604061296d89828a0161277f565b945050606061297e89828a0161277f565b935050608061298f89828a0161277f565b92505060a06129a089828a01612712565b9150509295509295509295565b60006129b98383612da4565b60808301905092915050565b6129ce81613412565b82525050565b6129dd81613412565b82525050565b60006129ee826132c3565b6129f881856132db565b9350612a03836132b3565b8060005b83811015612a34578151612a1b88826129ad565b9750612a26836132ce565b925050600181019050612a07565b5085935050505092915050565b612a4a81613424565b82525050565b612a5981613424565b82525050565b612a6881613430565b82525050565b612a7781613486565b82525050565b6000612a8a603a836132ec565b9150612a95826135cb565b604082019050919050565b6000612aad6028836132ec565b9150612ab88261361a565b604082019050919050565b6000612ad0602e836132ec565b9150612adb82613669565b604082019050919050565b6000612af3603e836132ec565b9150612afe826136b8565b604082019050919050565b6000612b16602d836132ec565b9150612b2182613707565b604082019050919050565b6000612b396036836132ec565b9150612b4482613756565b604082019050919050565b6000612b5c602f836132ec565b9150612b67826137a5565b604082019050919050565b6000612b7f602a836132ec565b9150612b8a826137f4565b604082019050919050565b6000612ba26037836132ec565b9150612bad82613843565b604082019050919050565b6000612bc5602b836132ec565b9150612bd082613892565b604082019050919050565b6000612be86031836132ec565b9150612bf3826138e1565b604082019050919050565b6000612c0b6020836132ec565b9150612c1682613930565b602082019050919050565b6000612c2e603f836132ec565b9150612c3982613959565b604082019050919050565b6000612c516037836132ec565b9150612c5c826139a8565b604082019050919050565b6000612c74602d836132ec565b9150612c7f826139f7565b604082019050919050565b6000612c97601f836132ec565b9150612ca282613a46565b602082019050919050565b6000612cba6028836132ec565b9150612cc582613a6f565b604082019050919050565b6000612cdd6032836132ec565b9150612ce882613abe565b604082019050919050565b6000612d006027836132ec565b9150612d0b82613b0d565b604082019050919050565b60e082016000820151612d2c60008501826129c5565b506020820151612d3f6020850182612df9565b506040820151612d526040850182612df9565b506060820151612d656060850182612df9565b506080820151612d786080850182612df9565b5060a0820151612d8b60a08501826129c5565b5060c0820151612d9e60c0850182612a41565b50505050565b608082016000820151612dba60008501826129c5565b506020820151612dcd6020850182612df9565b506040820151612de06040850182612df9565b506060820151612df36060850182612df9565b50505050565b612e028161347c565b82525050565b612e118161347c565b82525050565b6000602082019050612e2c60008301846129d4565b92915050565b6000604082019050612e4760008301856129d4565b612e5460208301846129d4565b9392505050565b6000606082019050612e7060008301866129d4565b612e7d60208301856129d4565b612e8a6040830184612e08565b949350505050565b6000604082019050612ea760008301856129d4565b612eb46020830184612e08565b9392505050565b6000608082019050612ed060008301876129d4565b612edd6020830186612e08565b612eea6040830185612e08565b612ef76060830184612e08565b95945050505050565b600060e082019050612f15600083018a6129d4565b612f226020830189612e08565b612f2f6040830188612e08565b612f3c6060830187612e08565b612f496080830186612e08565b612f5660a08301856129d4565b612f6360c0830184612a50565b98975050505050505050565b60006020820190508181036000830152612f8981846129e3565b905092915050565b6000602082019050612fa66000830184612a5f565b92915050565b6000602082019050612fc16000830184612a6e565b92915050565b60006020820190508181036000830152612fe081612a7d565b9050919050565b6000602082019050818103600083015261300081612aa0565b9050919050565b6000602082019050818103600083015261302081612ac3565b9050919050565b6000602082019050818103600083015261304081612ae6565b9050919050565b6000602082019050818103600083015261306081612b09565b9050919050565b6000602082019050818103600083015261308081612b2c565b9050919050565b600060208201905081810360008301526130a081612b4f565b9050919050565b600060208201905081810360008301526130c081612b72565b9050919050565b600060208201905081810360008301526130e081612b95565b9050919050565b6000602082019050818103600083015261310081612bb8565b9050919050565b6000602082019050818103600083015261312081612bdb565b9050919050565b6000602082019050818103600083015261314081612bfe565b9050919050565b6000602082019050818103600083015261316081612c21565b9050919050565b6000602082019050818103600083015261318081612c44565b9050919050565b600060208201905081810360008301526131a081612c67565b9050919050565b600060208201905081810360008301526131c081612c8a565b9050919050565b600060208201905081810360008301526131e081612cad565b9050919050565b6000602082019050818103600083015261320081612cd0565b9050919050565b6000602082019050818103600083015261322081612cf3565b9050919050565b600060e08201905061323c6000830184612d16565b92915050565b60006020820190506132576000830184612e08565b92915050565b6000613267613278565b905061327382826134b9565b919050565b6000604051905090565b600067ffffffffffffffff82111561329d5761329c613577565b5b6132a6826135ba565b9050602081019050919050565b6000819050602082019050919050565b600081519050919050565b6000602082019050919050565b600082825260208201905092915050565b600082825260208201905092915050565b60006133088261347c565b91506133138361347c565b9250827fffffffffffffffffffffffffffffffffffffffffffffffffffffffffffffffff03821115613348576133476134ea565b5b828201905092915050565b600061335e8261347c565b91506133698361347c565b92508261337957613378613519565b5b828204905092915050565b600061338f8261347c565b915061339a8361347c565b9250817fffffffffffffffffffffffffffffffffffffffffffffffffffffffffffffffff04831182151516156133d3576133d26134ea565b5b828202905092915050565b60006133e98261347c565b91506133f48361347c565b925082821015613407576134066134ea565b5b828203905092915050565b600061341d8261345c565b9050919050565b60008115159050919050565b60007fffffffff0000000000000000000000000000000000000000000000000000000082169050919050565b600073ffffffffffffffffffffffffffffffffffffffff82169050919050565b6000819050919050565b600061349182613498565b9050919050565b60006134a38261345c565b9050919050565b82818337600083830152505050565b6134c2826135ba565b810181811067ffffffffffffffff821117156134e1576134e0613577565b5b80604052505050565b7f4e487b7100000000000000000000000000000000000000000000000000000000600052601160045260246000fd5b7f4e487b7100000000000000000000000000000000000000000000000000000000600052601260045260246000fd5b7f4e487b7100000000000000000000000000000000000000000000000000000000600052603260045260246000fd5b7f4e487b7100000000000000000000000000000000000000000000000000000000600052604160045260246000fd5b600080fd5b600080fd5b600080fd5b600080fd5b6000601f19601f8301169050919050565b7f41756374696f6e2e63726561746541756374696f6e3a20456e642074696d652060008201527f6d7573742062652067726561746572207468616e207374617274000000000000602082015250565b7f41756374696f6e2e706c6163654269643a204e6f20636f6e747261637473207060008201527f65726d6974746564000000000000000000000000000000000000000000000000602082015250565b7f41756374696f6e2e63726561746541756374696f6e3a2043616c6c657220697360008201527f206e6f7420746865206f776e6572000000000000000000000000000000000000602082015250565b7f41756374696f6e2e706c6163654269643a2042696420616d6f756e742073686f60008201527f756c6420626520686967686572207468616e2073746172742070726963650000602082015250565b7f41756374696f6e2e63726561746541756374696f6e3a204f776e65722068617360008201527f206e6f7420617070726f76656400000000000000000000000000000000000000602082015250565b7f41756374696f6e2e63726561746541756374696f6e3a20456e642074696d652060008201527f7061737365642e204e6f626f64792063616e2062696400000000000000000000602082015250565b7f41756374696f6e2e706c6163654269643a2062696464657220686173206e6f7460008201527f20656e6f7567682062616c616e63650000000000000000000000000000000000602082015250565b7f41756374696f6e2e656e6441756374696f6e3a2041756374696f6e20646f657360008201527f206e6f7420657869737400000000000000000000000000000000000000000000602082015250565b7f41756374696f6e2e63726561746541756374696f6e3a2041756374696f6e206860008201527f6173206265656e20616c72656164792063726561746564000000000000000000602082015250565b7f41756374696f6e2e6f6e6c7941756374696f6e4f776e65723a206e6f7420617560008201527f6374696f6e206f776e6572000000000000000000000000000000000000000000602082015250565b7f41756374696f6e2e706c6163654269643a204661696c656420746f206f75746260008201527f6964206869676865737420626964646572000000000000000000000000000000602082015250565b7f41756374696f6e2e656e6441756374696f6e3a206e6f20626964206578697374600082015250565b7f41756374696f6e2e72657475726e46756e64733a2061756374696f6e206f776e60008201527f657220686173206e6f7420656e6f7567682072657475726e20616d6f756e7400602082015250565b7f41756374696f6e2e706c6163654269643a2042696464696e67206f757473696460008201527f65206f66207468652061756374696f6e2077696e646f77000000000000000000602082015250565b7f41756374696f6e2e656e6441756374696f6e3a205468652061756374696f6e2060008201527f686173206e6f7420656e64656400000000000000000000000000000000000000602082015250565b7f5265656e7472616e637947756172643a207265656e7472616e742063616c6c00600082015250565b7f41756374696f6e2e656e6441756374696f6e3a2061756374696f6e206e6f742060008201527f617070726f766564000000000000000000000000000000000000000000000000602082015250565b7f41756374696f6e2e6f6e6c794372656174656441756374696f6e3a204175637460008201527f696f6e20646f6573206e6f742065786973740000000000000000000000000000602082015250565b7f41756374696f6e2e776974686472617746756e64733a206e6f7420656e6f756760008201527f682066756e647300000000000000000000000000000000000000000000000000602082015250565b613b6581613412565b8114613b7057600080fd5b50565b613b7c81613424565b8114613b8757600080fd5b50565b613b938161347c565b8114613b9e57600080fd5b5056fea2646970667358221220e15e072ea9af430b35213ea9d995612899fe825dba39f223b1f51abc3a1b15ba64736f6c63430008060033",
  "immutableReferences": {},
  "source": "// SPDX-License-Identifier: UNLICENSED\r\npragma solidity ^0.8.6;\r\n\r\nimport \"@openzeppelin/contracts/utils/Context.sol\";\r\nimport \"@openzeppelin/contracts/security/ReentrancyGuard.sol\";\r\nimport \"@openzeppelin/contracts/utils/math/SafeMath.sol\";\r\nimport \"@openzeppelin/contracts/utils/Address.sol\";\r\nimport \"@openzeppelin/contracts/token/ERC20/IERC20.sol\";\r\nimport \"@openzeppelin/contracts/token/ERC721/IERC721.sol\";\r\nimport \"@openzeppelin/contracts/token/ERC721/IERC721Receiver.sol\";\r\n\r\ncontract ERC721Auction is Context, IERC721Receiver, ReentrancyGuard {\r\n    using SafeMath for uint256;\r\n    using Address for address;\r\n\r\n    /// @notice Event emitted only on construction. To be used by indexers\r\n    event AuctionContractDeployed();\r\n    event AuctionCreated(uint256 indexed tokenId);\r\n    event AuctionEnded(uint256 indexed tokenId);\r\n\r\n    event BidPlaced(\r\n        uint256 indexed tokenId,\r\n        address indexed bidder,\r\n        uint256 bidAmount\r\n    );\r\n\r\n    event FundWithdrawn(\r\n        uint256 indexed tokenId,\r\n        address indexed owner,\r\n        uint256 withdrawAmount\r\n    );\r\n\r\n    event FundReturned(\r\n        uint256 indexed tokenId,\r\n        address indexed owner,\r\n        uint256 returnAmount\r\n    );\r\n\r\n    /// @notice Parameters of an auction\r\n    struct Auction {\r\n        address owner;\r\n        uint256 startPrice;\r\n        uint256 startTime;\r\n        uint256 endTime;\r\n        uint256 fee; // percent\r\n        address fundTokenAddress;\r\n        bool created;\r\n    }\r\n\r\n    /// @notice Information about the sender that placed a bid on an auction\r\n    struct Bid {\r\n        address bidder;\r\n        uint256 bidAmount;\r\n        uint256 actualBidAmount;\r\n        uint256 bidTime;\r\n    }\r\n\r\n    /// @notice ERC721 Token ID -> Auction Parameters\r\n    mapping(uint256 => Auction) public auctions;\r\n    mapping(uint256 => uint256) public availableFunds;\r\n\r\n    /// @notice ERC721 Token ID -> bidder info (if a bid has been received)\r\n    mapping(uint256 => Bid[]) public bids;\r\n\r\n\r\n\r\n    /// @notice ERC721 NFT\r\n    IERC721 public token;\r\n\r\n    /**\r\n     * @notice Auction Constructor\r\n     * @param _tokenAddress erc721 token address\r\n     */\r\n    constructor(\r\n        address _tokenAddress\r\n    ) {\r\n        require(_tokenAddress != address(0), \"Invalid NFT\");\r\n\r\n        token = IERC721(_tokenAddress);\r\n\r\n        emit AuctionContractDeployed();\r\n    }\r\n\r\n    modifier onlyCreatedAuction(uint256 _tokenId) {\r\n        require(\r\n            auctions[_tokenId].created == true,\r\n            \"Auction.onlyCreatedAuction: Auction does not exist\"\r\n        );\r\n        _;\r\n    }\r\n\r\n    modifier onlyAuctionOwner(uint256 _tokenId) {\r\n        require(\r\n            auctions[_tokenId].owner == _msgSender(),\r\n            \"Auction.onlyAuctionOwner: not auction owner\"\r\n        );\r\n        _;\r\n    }\r\n\r\n    /**\r\n     * @notice Creates a new auction for a given token\r\n     * @dev Only the owner of a token can create an auction and must have approved the contract\r\n     * @dev End time for the auction must be in the future.\r\n     * @param _tokenId Token ID of the token being auctioned\r\n     * @param _startTimestamp Unix epoch in seconds for the auction start time\r\n     * @param _endTimestamp Unix epoch in seconds for the auction end time.\r\n     * @param _fee percent which will be paid as a fee to the individual who provides the hightest loan amount\r\n     */\r\n    function createAuction(\r\n        uint256 _tokenId,\r\n        uint256 _startPrice,\r\n        uint256 _startTimestamp,\r\n        uint256 _endTimestamp,\r\n        uint256 _fee,\r\n        address _fundTokenAddress\r\n    ) external {\r\n        // Check owner of the token is the creator and approved\r\n        require(\r\n            token.isApprovedForAll(token.ownerOf(_tokenId), address(this)),\r\n            \"Auction.createAuction: Owner has not approved\"\r\n        );\r\n        require(\r\n            token.ownerOf(_tokenId) == _msgSender(),\r\n            \"Auction.createAuction: Caller is not the owner\"\r\n        );\r\n\r\n        _createAuction(_tokenId, _startPrice,_startTimestamp, _endTimestamp, _fee, _fundTokenAddress);\r\n\r\n        emit AuctionCreated(_tokenId);\r\n    }\r\n\r\n    /**\r\n     * @notice Places a new bid, out bidding the existing bidder if found and criteria is reached\r\n     * @dev Only callable when the auction is open\r\n     * @dev Bids from smart contracts are prohibited to prevent griefing with always reverting receiver\r\n     * @param _tokenId Token ID of the token being auctioned\r\n     */\r\n    function placeBid(uint256 _tokenId, uint256 _bidAmount)\r\n        external\r\n        nonReentrant\r\n        onlyCreatedAuction(_tokenId)\r\n    {\r\n        require(\r\n            _msgSender().isContract() == false,\r\n            \"Auction.placeBid: No contracts permitted\"\r\n        );\r\n\r\n        // Ensure auction is in flight\r\n        require(\r\n            _getNow() >= auctions[_tokenId].startTime && _getNow() <= auctions[_tokenId].endTime,\r\n            \"Auction.placeBid: Bidding outside of the auction window\"\r\n        );\r\n\r\n        _placeBid(_tokenId, _bidAmount);\r\n\r\n        emit BidPlaced(_tokenId, _msgSender(), _bidAmount);\r\n    }\r\n\r\n    /**\r\n     * @notice withdraw funds which deposit by bidders\r\n     * @dev Only callable when the auction is open\r\n     * @dev Only callable by auction owner\r\n     * @param _tokenId Token ID of the token being auctioned\r\n     * @param _withdrawAmount withdraw amount which owner want to withdraw\r\n     */\r\n    function withdrawFunds(uint256 _tokenId, uint256 _withdrawAmount)\r\n        external\r\n        nonReentrant\r\n        onlyCreatedAuction(_tokenId)\r\n        onlyAuctionOwner(_tokenId)\r\n    {\r\n        require(\r\n            availableFunds[_tokenId] >= _withdrawAmount,\r\n            \"Auction.withdrawFunds: not enough funds\"\r\n        );\r\n\r\n        IERC20(auctions[_tokenId].fundTokenAddress).transfer(auctions[_tokenId].owner, _withdrawAmount);\r\n\r\n        emit FundWithdrawn(_tokenId, _msgSender(), _withdrawAmount);\r\n    }\r\n\r\n    /**\r\n     * @notice return funds which deposit by bidders\r\n     * @dev Only callable when the auction is open\r\n     * @dev Only callable by auction owner\r\n     * @param _tokenId Token ID of the token being auctioned\r\n     * @param _returnAmount return amount which owner want to return\r\n     */\r\n    function returnFunds(uint256 _tokenId, uint256 _returnAmount)\r\n        external\r\n        nonReentrant\r\n        onlyCreatedAuction(_tokenId)\r\n        onlyAuctionOwner(_tokenId)\r\n    {\r\n        require(\r\n            IERC20(auctions[_tokenId].fundTokenAddress).balanceOf(auctions[_tokenId].owner) >= _returnAmount,\r\n            \"Auction.returnFunds: auction owner has not enough return amount\"\r\n        );\r\n\r\n        IERC20(auctions[_tokenId].fundTokenAddress).transferFrom(auctions[_tokenId].owner, address(this), _returnAmount);\r\n\r\n        emit FundReturned(_tokenId, _msgSender(), _returnAmount);\r\n    }\r\n\r\n    /**\r\n     * @notice end Auction if time is over\r\n     * @param _tokenId Token ID of the token being auctioned\r\n     */\r\n    function endAuction(uint256 _tokenId) \r\n        external \r\n        nonReentrant\r\n        onlyCreatedAuction(_tokenId)\r\n    {\r\n        Auction memory auction = auctions[_tokenId];\r\n\r\n        // Check the auction real\r\n        require(\r\n            auction.endTime > 0,\r\n            \"Auction.endAuction: Auction does not exist\"\r\n        );\r\n\r\n        // Check the auction has ended\r\n        require(\r\n            _getNow() > auction.endTime,\r\n            \"Auction.endAuction: The auction has not ended\"\r\n        );\r\n\r\n        // Ensure this contract is approved to move the token\r\n        require(\r\n            token.isApprovedForAll(auction.owner, address(this)),\r\n            \"Auction.endAuction: auction not approved\"\r\n        );\r\n\r\n        Bid[] storage bidList = bids[_tokenId];\r\n        require(bidList.length > 0, \"Auction.endAuction: no bid exist\");\r\n\r\n        uint256 benefit;\r\n        benefit = bidList[bidList.length - 1].actualBidAmount.mul(auctions[_tokenId].fee).div(100)\r\n            .mul(_getNow().sub(auctions[_tokenId].startTime))\r\n            .div(auctions[_tokenId].endTime.sub(auctions[_tokenId].startTime));\r\n        uint256 returnFund = bidList[bidList.length - 1].actualBidAmount + benefit;\r\n\r\n        if(availableFunds[_tokenId] < returnFund) {\r\n            token.safeTransferFrom(address(this), bidList[bidList.length - 1].bidder, _tokenId);\r\n        } else {\r\n            IERC20(auctions[_tokenId].fundTokenAddress).transferFrom(address(this), bidList[bidList.length - 1].bidder, \r\n                returnFund);\r\n        }\r\n\r\n        // Clean up the highest bid\r\n        delete bids[_tokenId];\r\n        delete auctions[_tokenId];\r\n        \r\n        emit AuctionEnded(_tokenId);\r\n    }\r\n\r\n    /**\r\n     * @notice Method for getting all info about the auction\r\n     * @param _tokenId Token ID of the token being auctioned\r\n     */\r\n    function getAuction(uint256 _tokenId)\r\n        external\r\n        view\r\n        onlyCreatedAuction(_tokenId)\r\n        returns (Auction memory)\r\n    {\r\n        return auctions[_tokenId];\r\n    }\r\n\r\n    /**\r\n     * @notice Method for getting all info about the bids\r\n     * @param _tokenId Token ID of the token being auctioned\r\n     */\r\n    function getBidList(uint256 _tokenId) public view returns (Bid[] memory) {\r\n        return bids[_tokenId];\r\n    }\r\n\r\n    /**\r\n     * @notice Method for getting available funds by tokenId\r\n     * @param _tokenId Token ID of the token being auctioned\r\n     */\r\n    function getAvailableFunds(uint256 _tokenId) public view returns (uint) {\r\n        return availableFunds[_tokenId];\r\n    }\r\n\r\n    function _getNow() internal view virtual returns (uint256) {\r\n        return block.timestamp;\r\n    }\r\n\r\n    function _createAuction(\r\n        uint256 _tokenId,\r\n        uint256 _startPrice,\r\n        uint256 _startTimestamp,\r\n        uint256 _endTimestamp,\r\n        uint256 _fee,\r\n        address _fundTokenAddress\r\n    ) private {\r\n        // Check the auction alreay created\r\n        require(\r\n            auctions[_tokenId].created == false,\r\n            \"Auction.createAuction: Auction has been already created\"\r\n        );\r\n        // Check end time not before start time and that end is in the future\r\n        require(\r\n            _endTimestamp > _startTimestamp,\r\n            \"Auction.createAuction: End time must be greater than start\"\r\n        );\r\n        require(\r\n            _endTimestamp > _getNow(),\r\n            \"Auction.createAuction: End time passed. Nobody can bid\"\r\n        );\r\n\r\n        // Setup the auction\r\n        auctions[_tokenId] = Auction({\r\n            owner: _msgSender(),\r\n            startPrice: _startPrice,\r\n            startTime: _startTimestamp,\r\n            endTime: _endTimestamp,\r\n            fee: _fee,\r\n            fundTokenAddress: _fundTokenAddress, \r\n            created: true\r\n        });\r\n\r\n        token.safeTransferFrom(_msgSender(), address(this), _tokenId);\r\n    }\r\n\r\n    /**\r\n     * @notice Used for placing bid with token id\r\n     * @param _tokenId id of the token\r\n     */\r\n    function _placeBid(uint256 _tokenId, uint256 _bidAmount) private {\r\n        Bid[] storage bidList = bids[_tokenId];\r\n        uint256 bidAmount = _bidAmount;\r\n        uint256 benefit;\r\n        if (bidList.length != 0) {\r\n            benefit = bidList[bidList.length - 1].actualBidAmount.mul(auctions[_tokenId].fee).div(100)\r\n                .mul(_getNow().sub(auctions[_tokenId].startTime))\r\n                .div(auctions[_tokenId].endTime.sub(auctions[_tokenId].startTime));\r\n        }\r\n        uint256 actualBidAmount = bidAmount + benefit;\r\n\r\n        // Ensure bid adheres to outbid increment and threshold\r\n\r\n        if (bidList.length != 0) {\r\n            Bid memory prevHighestBid = bidList[bidList.length - 1];\r\n            uint256 minBidRequired = prevHighestBid.actualBidAmount;\r\n            require(\r\n                bidAmount > minBidRequired,\r\n                \"Auction.placeBid: Failed to outbid highest bidder\"\r\n            );\r\n        } else {\r\n            require(\r\n                actualBidAmount >= auctions[_tokenId].startPrice,\r\n                \"Auction.placeBid: Bid amount should be higher than start price\"\r\n            );\r\n        }\r\n\r\n        require(\r\n            IERC20(auctions[_tokenId].fundTokenAddress).balanceOf(_msgSender()) >= actualBidAmount,\r\n            \"Auction.placeBid: bidder has not enough balance\"\r\n        );\r\n\r\n        // assign top bidder and bid time\r\n        Bid memory newHighestBid;\r\n        newHighestBid.bidder = _msgSender();\r\n        newHighestBid.bidAmount = bidAmount;\r\n        newHighestBid.actualBidAmount = actualBidAmount;\r\n        newHighestBid.bidTime = _getNow();\r\n        bidList.push(newHighestBid);\r\n\r\n        IERC20(auctions[_tokenId].fundTokenAddress).transferFrom(_msgSender(), address(this), actualBidAmount);\r\n\r\n        availableFunds[_tokenId] += actualBidAmount;\r\n\r\n        if (bidList.length > 1) {\r\n            IERC20(auctions[_tokenId].fundTokenAddress).transfer(bidList[bidList.length - 2].bidder, \r\n                bidList[bidList.length - 2].actualBidAmount + benefit);\r\n            availableFunds[_tokenId] -= (bidList[bidList.length - 2].actualBidAmount + benefit);\r\n        }\r\n    }\r\n\r\n    function onERC721Received(address, address, uint256, bytes memory) public virtual override returns (bytes4) {\r\n        return this.onERC721Received.selector;\r\n    }\r\n}",
  "sourcePath": "E:/PRIVI/My work/privi-nft-auction/contracts/ERC721Auction.sol",
  "compiler": {
    "name": "solc",
    "version": "0.8.6+commit.11564f7e.Emscripten.clang"
  },
  "schemaVersion": "3.4.1",
  "updatedAt": "2021-08-17T14:00:07.967Z",
  "networkType": "ethereum",
  "devdoc": {
    "kind": "dev",
    "methods": {
      "constructor": {
        "params": {
          "_tokenAddress": "erc721 token address"
        }
      },
      "createAuction(uint256,uint256,uint256,uint256,uint256,address)": {
        "details": "Only the owner of a token can create an auction and must have approved the contractEnd time for the auction must be in the future.",
        "params": {
          "_endTimestamp": "Unix epoch in seconds for the auction end time.",
          "_fee": "percent which will be paid as a fee to the individual who provides the hightest loan amount",
          "_startTimestamp": "Unix epoch in seconds for the auction start time",
          "_tokenId": "Token ID of the token being auctioned"
        }
      },
      "endAuction(uint256)": {
        "params": {
          "_tokenId": "Token ID of the token being auctioned"
        }
      },
      "getAuction(uint256)": {
        "params": {
          "_tokenId": "Token ID of the token being auctioned"
        }
      },
      "getAvailableFunds(uint256)": {
        "params": {
          "_tokenId": "Token ID of the token being auctioned"
        }
      },
      "getBidList(uint256)": {
        "params": {
          "_tokenId": "Token ID of the token being auctioned"
        }
      },
      "placeBid(uint256,uint256)": {
        "details": "Only callable when the auction is openBids from smart contracts are prohibited to prevent griefing with always reverting receiver",
        "params": {
          "_tokenId": "Token ID of the token being auctioned"
        }
      },
      "returnFunds(uint256,uint256)": {
        "details": "Only callable when the auction is openOnly callable by auction owner",
        "params": {
          "_returnAmount": "return amount which owner want to return",
          "_tokenId": "Token ID of the token being auctioned"
        }
      },
      "withdrawFunds(uint256,uint256)": {
        "details": "Only callable when the auction is openOnly callable by auction owner",
        "params": {
          "_tokenId": "Token ID of the token being auctioned",
          "_withdrawAmount": "withdraw amount which owner want to withdraw"
        }
      }
    },
    "version": 1
  },
  "userdoc": {
    "events": {
      "AuctionContractDeployed()": {
        "notice": "Event emitted only on construction. To be used by indexers"
      }
    },
    "kind": "user",
    "methods": {
      "auctions(uint256)": {
        "notice": "ERC721 Token ID -> Auction Parameters"
      },
      "bids(uint256,uint256)": {
        "notice": "ERC721 Token ID -> bidder info (if a bid has been received)"
      },
      "constructor": {
        "notice": "Auction Constructor"
      },
      "createAuction(uint256,uint256,uint256,uint256,uint256,address)": {
        "notice": "Creates a new auction for a given token"
      },
      "endAuction(uint256)": {
        "notice": "end Auction if time is over"
      },
      "getAuction(uint256)": {
        "notice": "Method for getting all info about the auction"
      },
      "getAvailableFunds(uint256)": {
        "notice": "Method for getting available funds by tokenId"
      },
      "getBidList(uint256)": {
        "notice": "Method for getting all info about the bids"
      },
      "placeBid(uint256,uint256)": {
        "notice": "Places a new bid, out bidding the existing bidder if found and criteria is reached"
      },
      "returnFunds(uint256,uint256)": {
        "notice": "return funds which deposit by bidders"
      },
      "token()": {
        "notice": "ERC721 NFT"
      },
      "withdrawFunds(uint256,uint256)": {
        "notice": "withdraw funds which deposit by bidders"
      }
    },
    "version": 1
  }
}