{
  "contractName": "ERC721TokenExchange",
  "abi": [
    {
      "inputs": [],
      "stateMutability": "nonpayable",
      "type": "constructor"
    },
    {
      "anonymous": false,
      "inputs": [
        {
          "indexed": false,
          "internalType": "uint256",
          "name": "offerId",
          "type": "uint256"
        }
      ],
      "name": "ERC721TokenBuyingOfferCanceled",
      "type": "event"
    },
    {
      "anonymous": false,
      "inputs": [
        {
          "indexed": false,
          "internalType": "uint256",
          "name": "offerId",
          "type": "uint256"
        }
      ],
      "name": "ERC721TokenBuyingOfferPlaced",
      "type": "event"
    },
    {
      "anonymous": false,
      "inputs": [
        {
          "indexed": false,
          "internalType": "uint256",
          "name": "exchangeId",
          "type": "uint256"
        },
        {
          "indexed": false,
          "internalType": "uint256",
          "name": "initialOfferId",
          "type": "uint256"
        }
      ],
      "name": "ERC721TokenExchangeCreated",
      "type": "event"
    },
    {
      "anonymous": false,
      "inputs": [
        {
          "indexed": false,
          "internalType": "uint256",
          "name": "offerId",
          "type": "uint256"
        }
      ],
      "name": "ERC721TokenFromOfferBought",
      "type": "event"
    },
    {
      "anonymous": false,
      "inputs": [
        {
          "indexed": false,
          "internalType": "uint256",
          "name": "offerId",
          "type": "uint256"
        }
      ],
      "name": "ERC721TokenFromOfferSold",
      "type": "event"
    },
    {
      "anonymous": false,
      "inputs": [
        {
          "indexed": false,
          "internalType": "uint256",
          "name": "offerId",
          "type": "uint256"
        }
      ],
      "name": "ERC721TokenSellingOfferCanceled",
      "type": "event"
    },
    {
      "anonymous": false,
      "inputs": [
        {
          "indexed": false,
          "internalType": "uint256",
          "name": "offerId",
          "type": "uint256"
        }
      ],
      "name": "ERC721TokenSellingOfferPlaced",
      "type": "event"
    },
    {
      "inputs": [],
      "name": "getErc721ExchangeCount",
      "outputs": [
        {
          "internalType": "uint256",
          "name": "",
          "type": "uint256"
        }
      ],
      "stateMutability": "view",
      "type": "function",
      "constant": true
    },
    {
      "inputs": [],
      "name": "getErc721OfferCount",
      "outputs": [
        {
          "internalType": "uint256",
          "name": "",
          "type": "uint256"
        }
      ],
      "stateMutability": "view",
      "type": "function",
      "constant": true
    },
    {
      "inputs": [],
      "name": "getErc721ExchangeAll",
      "outputs": [
        {
          "components": [
            {
              "internalType": "string",
              "name": "exchangeName",
              "type": "string"
            },
            {
              "internalType": "address",
              "name": "creatorAddress",
              "type": "address"
            },
            {
              "internalType": "address",
              "name": "exchangeTokenAddress",
              "type": "address"
            },
            {
              "internalType": "address",
              "name": "offerTokenAddress",
              "type": "address"
            },
            {
              "internalType": "uint256",
              "name": "price",
              "type": "uint256"
            }
          ],
          "internalType": "struct ERC721TokenExchange.ERC721Exchange[]",
          "name": "",
          "type": "tuple[]"
        }
      ],
      "stateMutability": "view",
      "type": "function",
      "constant": true
    },
    {
      "inputs": [],
      "name": "getErc721OfferAll",
      "outputs": [
        {
          "components": [
            {
              "internalType": "uint256",
              "name": "exchangeId",
              "type": "uint256"
            },
            {
              "internalType": "uint256",
              "name": "offerId",
              "type": "uint256"
            },
            {
              "internalType": "string",
              "name": "offerType",
              "type": "string"
            },
            {
              "internalType": "address",
              "name": "creatorAddress",
              "type": "address"
            },
            {
              "internalType": "uint256",
              "name": "tokenId",
              "type": "uint256"
            },
            {
              "internalType": "uint256",
              "name": "price",
              "type": "uint256"
            }
          ],
          "internalType": "struct ERC721TokenExchange.ERC721Offer[]",
          "name": "",
          "type": "tuple[]"
        }
      ],
      "stateMutability": "view",
      "type": "function",
      "constant": true
    },
    {
      "inputs": [
        {
          "internalType": "uint256",
          "name": "_exchangeId",
          "type": "uint256"
        }
      ],
      "name": "getErc721ExchangeById",
      "outputs": [
        {
          "components": [
            {
              "internalType": "string",
              "name": "exchangeName",
              "type": "string"
            },
            {
              "internalType": "address",
              "name": "creatorAddress",
              "type": "address"
            },
            {
              "internalType": "address",
              "name": "exchangeTokenAddress",
              "type": "address"
            },
            {
              "internalType": "address",
              "name": "offerTokenAddress",
              "type": "address"
            },
            {
              "internalType": "uint256",
              "name": "price",
              "type": "uint256"
            }
          ],
          "internalType": "struct ERC721TokenExchange.ERC721Exchange",
          "name": "",
          "type": "tuple"
        }
      ],
      "stateMutability": "view",
      "type": "function",
      "constant": true
    },
    {
      "inputs": [
        {
          "internalType": "uint256",
          "name": "_offerId",
          "type": "uint256"
        }
      ],
      "name": "getErc721OfferById",
      "outputs": [
        {
          "components": [
            {
              "internalType": "uint256",
              "name": "exchangeId",
              "type": "uint256"
            },
            {
              "internalType": "uint256",
              "name": "offerId",
              "type": "uint256"
            },
            {
              "internalType": "string",
              "name": "offerType",
              "type": "string"
            },
            {
              "internalType": "address",
              "name": "creatorAddress",
              "type": "address"
            },
            {
              "internalType": "uint256",
              "name": "tokenId",
              "type": "uint256"
            },
            {
              "internalType": "uint256",
              "name": "price",
              "type": "uint256"
            }
          ],
          "internalType": "struct ERC721TokenExchange.ERC721Offer",
          "name": "",
          "type": "tuple"
        }
      ],
      "stateMutability": "view",
      "type": "function",
      "constant": true
    },
    {
      "inputs": [
        {
          "components": [
            {
              "internalType": "string",
              "name": "exchangeName",
              "type": "string"
            },
            {
              "internalType": "address",
              "name": "exchangeTokenAddress",
              "type": "address"
            },
            {
              "internalType": "address",
              "name": "offerTokenAddress",
              "type": "address"
            },
            {
              "internalType": "uint256",
              "name": "tokenId",
              "type": "uint256"
            },
            {
              "internalType": "uint256",
              "name": "price",
              "type": "uint256"
            }
          ],
          "internalType": "struct ERC721TokenExchange.CreateERC721TokenExchangeRequest",
          "name": "input",
          "type": "tuple"
        },
        {
          "internalType": "address",
          "name": "caller",
          "type": "address"
        }
      ],
      "name": "CreateERC721TokenExchange",
      "outputs": [],
      "stateMutability": "nonpayable",
      "type": "function"
    },
    {
      "inputs": [
        {
          "components": [
            {
              "internalType": "uint256",
              "name": "exchangeId",
              "type": "uint256"
            },
            {
              "internalType": "uint256",
              "name": "tokenId",
              "type": "uint256"
            },
            {
              "internalType": "uint256",
              "name": "price",
              "type": "uint256"
            }
          ],
          "internalType": "struct ERC721TokenExchange.PlaceERC721TokenOfferRequest",
          "name": "input",
          "type": "tuple"
        },
        {
          "internalType": "address",
          "name": "caller",
          "type": "address"
        }
      ],
      "name": "PlaceERC721TokenBuyingOffer",
      "outputs": [],
      "stateMutability": "nonpayable",
      "type": "function"
    },
    {
      "inputs": [
        {
          "components": [
            {
              "internalType": "uint256",
              "name": "exchangeId",
              "type": "uint256"
            },
            {
              "internalType": "uint256",
              "name": "tokenId",
              "type": "uint256"
            },
            {
              "internalType": "uint256",
              "name": "price",
              "type": "uint256"
            }
          ],
          "internalType": "struct ERC721TokenExchange.PlaceERC721TokenOfferRequest",
          "name": "input",
          "type": "tuple"
        },
        {
          "internalType": "address",
          "name": "caller",
          "type": "address"
        }
      ],
      "name": "PlaceERC721TokenSellingOffer",
      "outputs": [],
      "stateMutability": "nonpayable",
      "type": "function"
    },
    {
      "inputs": [
        {
          "components": [
            {
              "internalType": "uint256",
              "name": "exchangeId",
              "type": "uint256"
            },
            {
              "internalType": "uint256",
              "name": "offerId",
              "type": "uint256"
            }
          ],
          "internalType": "struct ERC721TokenExchange.CancelOfferRequest",
          "name": "input",
          "type": "tuple"
        },
        {
          "internalType": "address",
          "name": "caller",
          "type": "address"
        }
      ],
      "name": "CancelERC721TokenBuyingOffer",
      "outputs": [],
      "stateMutability": "nonpayable",
      "type": "function"
    },
    {
      "inputs": [
        {
          "components": [
            {
              "internalType": "uint256",
              "name": "exchangeId",
              "type": "uint256"
            },
            {
              "internalType": "uint256",
              "name": "offerId",
              "type": "uint256"
            }
          ],
          "internalType": "struct ERC721TokenExchange.CancelOfferRequest",
          "name": "input",
          "type": "tuple"
        },
        {
          "internalType": "address",
          "name": "caller",
          "type": "address"
        }
      ],
      "name": "CancelERC721TokenSellingOffer",
      "outputs": [],
      "stateMutability": "nonpayable",
      "type": "function"
    },
    {
      "inputs": [
        {
          "components": [
            {
              "internalType": "uint256",
              "name": "exchangeId",
              "type": "uint256"
            },
            {
              "internalType": "uint256",
              "name": "offerId",
              "type": "uint256"
            }
          ],
          "internalType": "struct ERC721TokenExchange.OfferRequest",
          "name": "input",
          "type": "tuple"
        },
        {
          "internalType": "address",
          "name": "caller",
          "type": "address"
        }
      ],
      "name": "BuyERC721TokenFromOffer",
      "outputs": [],
      "stateMutability": "nonpayable",
      "type": "function"
    },
    {
      "inputs": [
        {
          "components": [
            {
              "internalType": "uint256",
              "name": "exchangeId",
              "type": "uint256"
            },
            {
              "internalType": "uint256",
              "name": "offerId",
              "type": "uint256"
            }
          ],
          "internalType": "struct ERC721TokenExchange.OfferRequest",
          "name": "input",
          "type": "tuple"
        },
        {
          "internalType": "address",
          "name": "caller",
          "type": "address"
        }
      ],
      "name": "SellERC721TokenFromOffer",
      "outputs": [],
      "stateMutability": "nonpayable",
      "type": "function"
    },
    {
      "inputs": [
        {
          "internalType": "address",
          "name": "",
          "type": "address"
        },
        {
          "internalType": "address",
          "name": "",
          "type": "address"
        },
        {
          "internalType": "uint256",
          "name": "",
          "type": "uint256"
        },
        {
          "internalType": "bytes",
          "name": "",
          "type": "bytes"
        }
      ],
      "name": "onERC721Received",
      "outputs": [
        {
          "internalType": "bytes4",
          "name": "",
          "type": "bytes4"
        }
      ],
      "stateMutability": "nonpayable",
      "type": "function"
    }
  ],
  "bytecode": "0x608060405234801561001057600080fd5b506000808055600155613133806100286000396000f3fe608060405234801561001057600080fd5b50600436106100ea5760003560e01c80636a9113cd1161008c578063a33ea33e11610066578063a33ea33e146101e1578063d432c33c146101f4578063e731eccc14610214578063f807a4ea1461022757600080fd5b80636a9113cd146101b3578063847e9b5d146101c657806386a13eed146101ce57600080fd5b806355e45695116100c857806355e456951461015957806356133d4c14610179578063589958821461018b5780636078a336146101a057600080fd5b806305c5fc5f146100ef578063150b7a021461010d5780635391abbc14610144575b600080fd5b6100f761023a565b6040516101049190612f02565b60405180910390f35b61012b61011b366004612b49565b630a85bd0160e11b949350505050565b6040516001600160e01b03199091168152602001610104565b61014c6103e9565b6040516101049190612ea1565b61016c610167366004612d52565b6105a8565b6040516101049190612f69565b6000545b604051908152602001610104565b61019e610199366004612ce3565b6106a2565b005b61019e6101ae366004612be6565b610ae9565b61019e6101c1366004612ce3565b6110a4565b60015461017d565b61019e6101dc366004612c1d565b6113ef565b61019e6101ef366004612be6565b611927565b610207610202366004612d52565b611ddc565b6040516101049190612f56565b61019e610222366004612be6565b611eee565b61019e610235366004612be6565b612390565b6060600060015467ffffffffffffffff81111561026757634e487b7160e01b600052604160045260246000fd5b6040519080825280602002602001820160405280156102a057816020015b61028d61293d565b8152602001906001900390816102855790505b50905060015b60015481116103e357600360008281526020019081526020016000206040518060c001604052908160008201548152602001600182015481526020016002820180546102f190612fec565b80601f016020809104026020016040519081016040528092919081815260200182805461031d90612fec565b801561036a5780601f1061033f5761010080835404028352916020019161036a565b820191906000526020600020905b81548152906001019060200180831161034d57829003601f168201915b505050918352505060038201546001600160a01b0316602082015260048201546040820152600590910154606090910152826103a7600184612fa5565b815181106103c557634e487b7160e01b600052603260045260246000fd5b602002602001018190525080806103db90613021565b9150506102a6565b50919050565b60606000805467ffffffffffffffff81111561041557634e487b7160e01b600052604160045260246000fd5b60405190808252806020026020018201604052801561046f57816020015b6040805160a081018252606080825260006020808401829052938301819052908201819052608082015282526000199092019101816104335790505b50905060015b60005481116103e35760008181526002602052604090819020815160a081019092528054829082906104a690612fec565b80601f01602080910402602001604051908101604052809291908181526020018280546104d290612fec565b801561051f5780601f106104f45761010080835404028352916020019161051f565b820191906000526020600020905b81548152906001019060200180831161050257829003601f168201915b50505091835250506001828101546001600160a01b0390811660208401526002840154811660408401526003840154166060830152600490920154608090910152839061056c9084612fa5565b8151811061058a57634e487b7160e01b600052603260045260246000fd5b602002602001018190525080806105a090613021565b915050610475565b6105b061293d565b600360008381526020019081526020016000206040518060c001604052908160008201548152602001600182015481526020016002820180546105f290612fec565b80601f016020809104026020016040519081016040528092919081815260200182805461061e90612fec565b801561066b5780601f106106405761010080835404028352916020019161066b565b820191906000526020600020905b81548152906001019060200180831161064e57829003601f168201915b505050918352505060038201546001600160a01b031660208201526004820154604082015260059091015460609091015292915050565b8151600090815260026020818152604092839020909101549084015191516331a9108f60e11b81526001600160a01b0391821692918416918391636352211e916106f29160040190815260200190565b60206040518083038186803b15801561070a57600080fd5b505afa15801561071e573d6000803e3d6000fd5b505050506040513d601f19601f820116820180604052508101906107429190612b26565b6001600160a01b0316146107d25760405162461bcd60e51b815260206004820152604660248201527f546f6b656e45786368616e67652e506c616365455243373231546f6b656e536560448201527f6c6c696e674f666665723a20596f75206e65656420746f206f776e2074686973606482015265103a37b5b2b760d11b608482015260a4015b60405180910390fd5b60008360400151116108665760405162461bcd60e51b815260206004820152605160248201527f546f6b656e45786368616e67652e506c616365455243373231546f6b656e536560448201527f6c6c696e674f666665723a2070726963652063616e2774206265206c6f776572606482015270206f7220657175616c20746f207a65726f60781b608482015260a4016107c9565b60405163e985e9c560e01b81526001600160a01b03838116600483015230602483015282169063e985e9c59060440160206040518083038186803b1580156108ad57600080fd5b505afa1580156108c1573d6000803e3d6000fd5b505050506040513d601f19601f820116820180604052508101906108e59190612bc6565b6109625760405162461bcd60e51b815260206004820152604260248201527f546f6b656e45786368616e67652e506c616365455243373231546f6b656e536560448201527f6c6c696e674f666665723a204f776e657220686173206e6f7420617070726f76606482015261195960f21b608482015260a4016107c9565b6020830151604051632142170760e11b81526001600160a01b038316916342842e0e91610996918691309190600401612e7d565b600060405180830381600087803b1580156109b057600080fd5b505af11580156109c4573d6000803e3d6000fd5b505050506109d061293d565b83518152604080518082018252600481526314d1531360e21b602080830191909152828401919091526001600160a01b0385166060840152850151608083015284015160a082015260018054906000610a2883613021565b909155505060018054602080840182815260009283526003825260409283902085518155905193810193909355908301518051849392610a6f92600285019291019061297c565b5060608201516003820180546001600160a01b0319166001600160a01b039092169190911790556080820151600482015560a0909101516005909101556001546040519081527f5426515e73390d9c479108b55a0e414aa11bf016da6ea69bcf4e94d33e904628906020015b60405180910390a150505050565b600060036000846020015181526020019081526020016000206040518060c00160405290816000820154815260200160018201548152602001600282018054610b3190612fec565b80601f0160208091040260200160405190810160405280929190818152602001828054610b5d90612fec565b8015610baa5780601f10610b7f57610100808354040283529160200191610baa565b820191906000526020600020905b815481529060010190602001808311610b8d57829003601f168201915b50505091835250506003828101546001600160a01b0390811660208085019190915260048501546040808601919091526005909501546060909401939093528751600090815260029384905284812090920154885183529390912090910154865184519495509282169391169114610c865760405162461bcd60e51b815260206004820152604560248201526000805160206130de83398151915260448201527f6d4f666665723a2073686f756c64206265207468652073616d652065786368616064820152641b99d9525960da1b608482015260a4016107c9565b6040516242555960e81b6020820152602301604051602081830303815290604052805190602001208360400151604051602001610cc39190612e61565b6040516020818303038152906040528051906020012014610d455760405162461bcd60e51b815260206004820152604260248201526000805160206130de83398151915260448201527f6d4f666665723a2073686f756c642062652074686520627579696e67206f666660648201526132b960f11b608482015260a4016107c9565b60a08301516040516370a0823160e01b81523060048201526001600160a01b038416906370a082319060240160206040518083038186803b158015610d8957600080fd5b505afa158015610d9d573d6000803e3d6000fd5b505050506040513d601f19601f82011682018060405250810190610dc19190612d6a565b1015610e315760405162461bcd60e51b815260206004820152604560248201526000805160206130de83398151915260448201527f6d4f666665723a20796f7520646f6e2774206861766520656e6f7567682062616064820152646c616e636560d81b608482015260a4016107c9565b60808301516040516331a9108f60e11b81526001600160a01b038087169290841691636352211e91610e699160040190815260200190565b60206040518083038186803b158015610e8157600080fd5b505afa158015610e95573d6000803e3d6000fd5b505050506040513d601f19601f82011682018060405250810190610eb99190612b26565b6001600160a01b031614610f235760405162461bcd60e51b815260206004820152603e60248201526000805160206130de83398151915260448201527f6d4f666665723a206e65656420746f206f776e207468697320746f6b656e000060648201526084016107c9565b60a083015160405163a9059cbb60e01b81526001600160a01b03868116600483015260248201929092529083169063a9059cbb90604401602060405180830381600087803b158015610f7457600080fd5b505af1158015610f88573d6000803e3d6000fd5b505050506040513d601f19601f82011682018060405250810190610fac9190612bc6565b5060608301516080840151604051632142170760e11b81526001600160a01b038416926342842e0e92610fe59289929190600401612e7d565b600060405180830381600087803b158015610fff57600080fd5b505af1158015611013573d6000803e3d6000fd5b50505060208087015160009081526003909152604081208181556001810182905591506110436002830182612a00565b506003810180546001600160a01b03191690556000600482018190556005909101556020858101516040519081527f5a0798d73cec07c36f780528930832a7bd33b05ba0aa33d276cc1d549eb091aa91015b60405180910390a15050505050565b815160009081526002602052604090819020600301548184015191516370a0823160e01b81526001600160a01b038481166004830152909116919082906370a082319060240160206040518083038186803b15801561110257600080fd5b505afa158015611116573d6000803e3d6000fd5b505050506040513d601f19601f8201168201806040525081019061113a9190612d6a565b10156111bf5760405162461bcd60e51b815260206004820152604860248201527f546f6b656e45786368616e67652e506c616365455243373231546f6b656e427560448201527f79696e674f666665723a20796f7520646f6e2774206861766520656e6f7567686064820152672062616c616e636560c01b608482015260a4016107c9565b60008360400151116112525760405162461bcd60e51b815260206004820152605060248201527f546f6b656e45786368616e67652e506c616365455243373231546f6b656e427560448201527f79696e674f666665723a2070726963652063616e2774206265206c6f7765722060648201526f6f7220657175616c20746f207a65726f60801b608482015260a4016107c9565b60408084015190516323b872dd60e01b81526001600160a01b038316916323b872dd91611286918691309190600401612e7d565b602060405180830381600087803b1580156112a057600080fd5b505af11580156112b4573d6000803e3d6000fd5b505050506040513d601f19601f820116820180604052508101906112d89190612bc6565b506112e161293d565b83518152604080518082018252600381526242555960e81b602080830191909152828401919091526001600160a01b0385166060840152850151608083015284015160a08201526001805490600061133883613021565b90915550506001805460208084018281526000928352600382526040928390208551815590519381019390935590830151805184939261137f92600285019291019061297c565b5060608201516003820180546001600160a01b0319166001600160a01b039092169190911790556080820151600482015560a0909101516005909101556001546040519081527fe6c290589f766cce83b8752311fa3c81cdea3c71e743b1e9b17e96632fdfa07d90602001610adb565b602082015160608301516040516331a9108f60e11b81526001600160a01b038085169290841691636352211e9161142c9160040190815260200190565b60206040518083038186803b15801561144457600080fd5b505afa158015611458573d6000803e3d6000fd5b505050506040513d601f19601f8201168201806040525081019061147c9190612b26565b6001600160a01b0316146115045760405162461bcd60e51b815260206004820152604360248201527f546f6b656e45786368616e67652e437265617465455243373231546f6b656e4560448201527f786368616e67653a20596f75206e65656420746f206f776e207468697320746f60648201526235b2b760e91b608482015260a4016107c9565b60008360800151116115955760405162461bcd60e51b815260206004820152604e60248201527f546f6b656e45786368616e67652e437265617465455243373231546f6b656e4560448201527f786368616e67653a2070726963652063616e2774206265206c6f776572206f7260648201526d20657175616c20746f207a65726f60901b608482015260a4016107c9565b60405163e985e9c560e01b81526001600160a01b03838116600483015230602483015282169063e985e9c59060440160206040518083038186803b1580156115dc57600080fd5b505afa1580156115f0573d6000803e3d6000fd5b505050506040513d601f19601f820116820180604052508101906116149190612bc6565b6116865760405162461bcd60e51b815260206004820152603f60248201527f546f6b656e45786368616e67652e437265617465455243373231546f6b656e4560448201527f786368616e67653a204f776e657220686173206e6f7420617070726f7665640060648201526084016107c9565b6060830151604051635c46a7ef60e11b81526001600160a01b038481166004830152306024830152604482019290925260806064820152600060848201529082169063b88d4fde9060a401600060405180830381600087803b1580156116eb57600080fd5b505af11580156116ff573d6000803e3d6000fd5b505050506117346040805160a08101825260608082526000602083018190529282018390528101829052608081019190915290565b835181526001600160a01b0380841660208084019190915285015181166040808401919091528501511660608201526080808501519082015260008054908061177c83613021565b90915550506000805481526002602090815260409091208251805184936117a792849291019061297c565b5060208201516001820180546001600160a01b039283166001600160a01b0319918216179091556040840151600284018054918416918316919091179055606084015160038401805491909316911617905560809091015160049091015561180d61293d565b600080548252604080518082018252600481526314d1531360e21b6020820152908301526001600160a01b03851660608084019190915286015160808084019190915283015160a0830152600180549161186683613021565b9091555050600180546020808401828152600092835260038252604092839020855181559051938101939093559083015180518493926118ad92600285019291019061297c565b5060608201516003820180546001600160a01b0319166001600160a01b039092169190911790556080820151600482015560a0909101516005909101556000546001546040805192835260208301919091527ff633dea9c2c2a19fd28f6c8cfadf2d0b637627ed8a380ddb4733259c8eedaad99101611095565b600060036000846020015181526020019081526020016000206040518060c0016040529081600082015481526020016001820154815260200160028201805461196f90612fec565b80601f016020809104026020016040519081016040528092919081815260200182805461199b90612fec565b80156119e85780601f106119bd576101008083540402835291602001916119e8565b820191906000526020600020905b8154815290600101906020018083116119cb57829003601f168201915b50505091835250506003828101546001600160a01b03908116602080850191909152600485015460408086019190915260059095015460609485015288516000908152600290915293909320015490830151929350811691811690841614611aa65760405162461bcd60e51b815260206004820152603b602482015260008051602061307e83398151915260448201527f7579696e674f666665723a2073686f756c64206265206f776e6572000000000060648201526084016107c9565b8351825114611b1d5760405162461bcd60e51b8152602060048201526049602482015260008051602061307e83398151915260448201527f7579696e674f666665723a2073686f756c64206265207468652073616d6520656064820152681e18da185b99d9525960ba1b608482015260a4016107c9565b6040516242555960e81b6020820152602301604051602081830303815290604052805190602001208260400151604051602001611b5a9190612e61565b6040516020818303038152906040528051906020012014611be05760405162461bcd60e51b8152602060048201526046602482015260008051602061307e83398151915260448201527f7579696e674f666665723a2073686f756c642062652074686520627579696e676064820152651037b33332b960d11b608482015260a4016107c9565b60a08201516040516370a0823160e01b81523060048201526001600160a01b038316906370a082319060240160206040518083038186803b158015611c2457600080fd5b505afa158015611c38573d6000803e3d6000fd5b505050506040513d601f19601f82011682018060405250810190611c5c9190612d6a565b1015611cd05760405162461bcd60e51b8152602060048201526049602482015260008051602061307e83398151915260448201527f7579696e674f666665723a20796f7520646f6e2774206861766520656e6f7567606482015268682062616c616e636560b81b608482015260a4016107c9565b60a082015160405163a9059cbb60e01b81526001600160a01b03858116600483015260248201929092529082169063a9059cbb90604401602060405180830381600087803b158015611d2157600080fd5b505af1158015611d35573d6000803e3d6000fd5b505050506040513d601f19601f82011682018060405250810190611d599190612bc6565b5060208085015160009081526003909152604081208181556001810182905590611d866002830182612a00565b506003810180546001600160a01b03191690556000600482018190556005909101556020848101516040519081527f1569186cf7c0c983888beaf11391fd54500aefed1208eb5a1b3b07d01d1bd00e9101610adb565b6040805160a08101825260608082526000602083018190529282018390528101829052608081019190915260008281526002602052604090819020815160a08101909252805482908290611e2f90612fec565b80601f0160208091040260200160405190810160405280929190818152602001828054611e5b90612fec565b8015611ea85780601f10611e7d57610100808354040283529160200191611ea8565b820191906000526020600020905b815481529060010190602001808311611e8b57829003601f168201915b505050918352505060018201546001600160a01b039081166020830152600283015481166040830152600383015416606082015260049091015460809091015292915050565b600060036000846020015181526020019081526020016000206040518060c00160405290816000820154815260200160018201548152602001600282018054611f3690612fec565b80601f0160208091040260200160405190810160405280929190818152602001828054611f6290612fec565b8015611faf5780601f10611f8457610100808354040283529160200191611faf565b820191906000526020600020905b815481529060010190602001808311611f9257829003601f168201915b505050918352505060038201546001600160a01b0390811660208084019190915260048401546040808501919091526005909401546060938401528751600090815260029182905293909320909201549083015192935081169181169084161461206f5760405162461bcd60e51b815260206004820152603c60248201526000805160206130be83398151915260448201527f656c6c696e674f666665723a2073686f756c64206265206f776e65720000000060648201526084016107c9565b83518251146120e75760405162461bcd60e51b815260206004820152604a60248201526000805160206130be83398151915260448201527f656c6c696e674f666665723a2073686f756c64206265207468652073616d6520606482015269195e18da185b99d9525960b21b608482015260a4016107c9565b6040516314d1531360e21b60208201526024016040516020818303038152906040528051906020012082604001516040516020016121259190612e61565b60405160208183030381529060405280519060200120146121ad5760405162461bcd60e51b815260206004820152604860248201526000805160206130be83398151915260448201527f656c6c696e674f666665723a2073686f756c64206265207468652073656c6c6960648201526737339037b33332b960c11b608482015260a4016107c9565b60808201516040516331a9108f60e11b815230916001600160a01b03841691636352211e916121e29160040190815260200190565b60206040518083038186803b1580156121fa57600080fd5b505afa15801561220e573d6000803e3d6000fd5b505050506040513d601f19601f820116820180604052508101906122329190612b26565b6001600160a01b0316146122a85760405162461bcd60e51b815260206004820152604360248201526000805160206130be83398151915260448201527f656c6c696e674f666665723a206e65656420746f206f776e207468697320746f60648201526235b2b760e91b608482015260a4016107c9565b6080820151604051632142170760e11b81526001600160a01b038316916342842e0e916122dc913091889190600401612e7d565b600060405180830381600087803b1580156122f657600080fd5b505af115801561230a573d6000803e3d6000fd5b505050602080860151600090815260039091526040812081815560018101829055915061233a6002830182612a00565b506003810180546001600160a01b03191690556000600482018190556005909101556020848101516040519081527f5fe3fe5f408517b756ab03ab1a67d7f795e34dd4cfae350951fd85fdecaff9389101610adb565b600060036000846020015181526020019081526020016000206040518060c001604052908160008201548152602001600182015481526020016002820180546123d890612fec565b80601f016020809104026020016040519081016040528092919081815260200182805461240490612fec565b80156124515780601f1061242657610100808354040283529160200191612451565b820191906000526020600020905b81548152906001019060200180831161243457829003601f168201915b50505091835250506003828101546001600160a01b039081166020808501919091526004850154604080860191909152600590950154606090940193909352875160009081526002938490528481209092015488518352939091209091015486518451949550928216939116911461252d5760405162461bcd60e51b81526020600482015260446024820181905260008051602061309e833981519152908201527f4f666665723a2073686f756c64206265207468652073616d652065786368616e60648201526319d9525960e21b608482015260a4016107c9565b6040516314d1531360e21b602082015260240160405160208183030381529060405280519060200120836040015160405160200161256b9190612e61565b60405160208183030381529060405280519060200120146125ed5760405162461bcd60e51b8152602060048201526042602482015260008051602061309e83398151915260448201527f4f666665723a2073686f756c64206265207468652073656c6c696e67206f666660648201526132b960f11b608482015260a4016107c9565b60a08301516040516370a0823160e01b81526001600160a01b0386811660048301528416906370a082319060240160206040518083038186803b15801561263357600080fd5b505afa158015612647573d6000803e3d6000fd5b505050506040513d601f19601f8201168201806040525081019061266b9190612d6a565b10156126db5760405162461bcd60e51b81526020600482015260446024820181905260008051602061309e833981519152908201527f4f666665723a20796f7520646f6e2774206861766520656e6f7567682062616c606482015263616e636560e01b608482015260a4016107c9565b60808301516040516331a9108f60e11b815230916001600160a01b03841691636352211e916127109160040190815260200190565b60206040518083038186803b15801561272857600080fd5b505afa15801561273c573d6000803e3d6000fd5b505050506040513d601f19601f820116820180604052508101906127609190612b26565b6001600160a01b0316146127ca5760405162461bcd60e51b815260206004820152603d602482015260008051602061309e83398151915260448201527f4f666665723a206e65656420746f206f776e207468697320746f6b656e00000060648201526084016107c9565b606083015160a08401516040516323b872dd60e01b81526001600160a01b038516926323b872dd926128029289929190600401612e7d565b602060405180830381600087803b15801561281c57600080fd5b505af1158015612830573d6000803e3d6000fd5b505050506040513d601f19601f820116820180604052508101906128549190612bc6565b506080830151604051632142170760e11b81526001600160a01b038316916342842e0e91612889913091899190600401612e7d565b600060405180830381600087803b1580156128a357600080fd5b505af11580156128b7573d6000803e3d6000fd5b50505060208087015160009081526003909152604081208181556001810182905591506128e76002830182612a00565b506003810180546001600160a01b03191690556000600482018190556005909101556020858101516040519081527f739a4cb69bedf9009044b882264d535d88e3f208b968adb3336270761688c2789101611095565b6040518060c0016040528060008152602001600081526020016060815260200160006001600160a01b0316815260200160008152602001600081525090565b82805461298890612fec565b90600052602060002090601f0160209004810192826129aa57600085556129f0565b82601f106129c357805160ff19168380011785556129f0565b828001600101855582156129f0579182015b828111156129f05782518255916020019190600101906129d5565b506129fc929150612a3d565b5090565b508054612a0c90612fec565b6000825580601f10612a1c575050565b601f016020900490600052602060002090810190612a3a9190612a3d565b50565b5b808211156129fc5760008155600101612a3e565b600067ffffffffffffffff80841115612a6d57612a6d613052565b604051601f8501601f19908116603f01168101908282118183101715612a9557612a95613052565b81604052809350858152868686011115612aae57600080fd5b858560208301376000602087830101525050509392505050565b8035612ad381613068565b919050565b600060408284031215612ae9578081fd5b6040516040810181811067ffffffffffffffff82111715612b0c57612b0c613052565b604052823581526020928301359281019290925250919050565b600060208284031215612b37578081fd5b8151612b4281613068565b9392505050565b60008060008060808587031215612b5e578283fd5b8435612b6981613068565b93506020850135612b7981613068565b925060408501359150606085013567ffffffffffffffff811115612b9b578182fd5b8501601f81018713612bab578182fd5b612bba87823560208401612a52565b91505092959194509250565b600060208284031215612bd7578081fd5b81518015158114612b42578182fd5b60008060608385031215612bf8578182fd5b612c028484612ad8565b91506040830135612c1281613068565b809150509250929050565b60008060408385031215612c2f578182fd5b823567ffffffffffffffff80821115612c46578384fd5b9084019060a08287031215612c59578384fd5b612c61612f7c565b823582811115612c6f578586fd5b83019150601f82018713612c81578485fd5b612c9087833560208501612a52565b8152612c9e60208401612ac8565b6020820152612caf60408401612ac8565b60408201526060830135606082015260808301356080820152809450505050612cda60208401612ac8565b90509250929050565b6000808284036080811215612cf6578283fd5b6060811215612d03578283fd5b506040516060810181811067ffffffffffffffff82111715612d2757612d27613052565b60409081528435825260208086013590830152848101359082015291506060830135612c1281613068565b600060208284031215612d63578081fd5b5035919050565b600060208284031215612d7b578081fd5b5051919050565b60008151808452612d9a816020860160208601612fbc565b601f01601f19169290920160200192915050565b6000815160a08452612dc360a0850182612d82565b9050602083015160018060a01b0380821660208701528060408601511660408701528060608601511660608701525050608083015160808501528091505092915050565b80518252602081015160208301526000604082015160c06040850152612e3060c0850182612d82565b6060848101516001600160a01b0316908601526080808501519086015260a093840151949093019390935250919050565b60008251612e73818460208701612fbc565b9190910192915050565b6001600160a01b039384168152919092166020820152604081019190915260600190565b6000602080830181845280855180835260408601915060408160051b8701019250838701855b82811015612ef557603f19888603018452612ee3858351612dae565b94509285019290850190600101612ec7565b5092979650505050505050565b6000602080830181845280855180835260408601915060408160051b8701019250838701855b82811015612ef557603f19888603018452612f44858351612e07565b94509285019290850190600101612f28565b602081526000612b426020830184612dae565b602081526000612b426020830184612e07565b60405160a0810167ffffffffffffffff81118282101715612f9f57612f9f613052565b60405290565b600082821015612fb757612fb761303c565b500390565b60005b83811015612fd7578181015183820152602001612fbf565b83811115612fe6576000848401525b50505050565b600181811c9082168061300057607f821691505b602082108114156103e357634e487b7160e01b600052602260045260246000fd5b60006000198214156130355761303561303c565b5060010190565b634e487b7160e01b600052601160045260246000fd5b634e487b7160e01b600052604160045260246000fd5b6001600160a01b0381168114612a3a57600080fdfe546f6b656e45786368616e67652e43616e63656c455243373231546f6b656e42546f6b656e45786368616e67652e427579455243373231546f6b656e46726f6d546f6b656e45786368616e67652e43616e63656c455243373231546f6b656e53546f6b656e45786368616e67652e53656c6c455243373231546f6b656e46726fa264697066735822122099c07c0fe45e688a9b7ee4f5d334e9ed21a4838ee2f597629008907fee947c5564736f6c63430008040033",
  "immutableReferences": {},
  "source": "// SPDX-License-Identifier: UNLICENSED\r\n\r\npragma solidity ^0.8.4;\r\nimport \"@openzeppelin/contracts/token/ERC20/IERC20.sol\";\r\nimport \"@openzeppelin/contracts/token/ERC721/IERC721.sol\";\r\nimport \"@openzeppelin/contracts/token/ERC721/IERC721Receiver.sol\";\r\n\r\n/**\r\n * @dev Exchange Contract for ERC721 Token\r\n */\r\ncontract ERC721TokenExchange is IERC721Receiver {\r\n    /**\r\n    * @dev Exchange struct for ERC721 Token\r\n    */\r\n    struct ERC721Exchange {\r\n        string exchangeName;\r\n        address creatorAddress;\r\n        address exchangeTokenAddress;\r\n        address offerTokenAddress;\r\n        uint price;\r\n    }\r\n\r\n    /**\r\n    * @dev Offer struct for ERC721 Token\r\n    */\r\n    struct ERC721Offer {\r\n        uint exchangeId;\r\n        uint offerId;\r\n        string offerType;\r\n        address creatorAddress;\r\n        uint tokenId;\r\n        uint price;\r\n    }\r\n\r\n    /**\r\n    * @dev Request struct for creating ERC721TokenExchange\r\n    */\r\n    struct CreateERC721TokenExchangeRequest {\r\n        string exchangeName;\r\n        address exchangeTokenAddress;\r\n        address offerTokenAddress;\r\n        uint tokenId;\r\n        uint price;\r\n    }\r\n\r\n    /**\r\n    * @dev Request struct for Place ERC721Token Offer\r\n    */\r\n    struct PlaceERC721TokenOfferRequest {\r\n        uint exchangeId;\r\n        uint tokenId;\r\n        uint price;\r\n    }\r\n\r\n    /**\r\n    * @dev Request struct for cancel Exchange\r\n    */\r\n    struct CancelOfferRequest {\r\n        uint exchangeId;\r\n        uint offerId;\r\n    }\r\n\r\n    /**\r\n    * @dev Request struct for deal Exchange\r\n    */\r\n    struct OfferRequest {\r\n        uint exchangeId;\r\n        uint offerId;\r\n    }\r\n\r\n    /**\r\n    * @dev count variables for ERC721Token exchange and offer mapping\r\n    */\r\n    uint internal _erc721ExchangeCount;\r\n    uint internal _erc721OfferCount;\r\n\r\n    /**\r\n    * @dev variables for storing ERC721Token Exchange and Offer\r\n    */\r\n    mapping(uint => ERC721Exchange) internal _erc721Exchanges;\r\n    mapping(uint => ERC721Offer) internal _erc721Offers;\r\n\r\n    // ----- EVENTS ----- //\r\n    event ERC721TokenExchangeCreated(uint exchangeId, uint initialOfferId);\r\n    event ERC721TokenBuyingOfferPlaced(uint offerId);\r\n    event ERC721TokenSellingOfferPlaced(uint offerId);\r\n    event ERC721TokenBuyingOfferCanceled(uint offerId);\r\n    event ERC721TokenSellingOfferCanceled(uint offerId);\r\n    event ERC721TokenFromOfferBought(uint offerId);\r\n    event ERC721TokenFromOfferSold(uint offerId);\r\n\r\n    /**\r\n    * @dev Constructor Function\r\n    */\r\n    constructor() {\r\n        _erc721ExchangeCount = 0;\r\n        _erc721OfferCount = 0;\r\n    }\r\n\r\n    // ----- VIEWS ----- //\r\n    function getErc721ExchangeCount() external view returns(uint){\r\n        return _erc721ExchangeCount;\r\n    }\r\n\r\n    function getErc721OfferCount() external view returns(uint){\r\n        return _erc721OfferCount;\r\n    }\r\n\r\n    function getErc721ExchangeAll() external view returns(ERC721Exchange[] memory){\r\n        ERC721Exchange[] memory exchanges = new ERC721Exchange[](_erc721ExchangeCount);\r\n        for(uint i = 1; i <= _erc721ExchangeCount; i++)\r\n            exchanges[i-1] = _erc721Exchanges[i];\r\n        return exchanges;\r\n    }\r\n\r\n    function getErc721OfferAll() external view returns(ERC721Offer[] memory){\r\n        ERC721Offer[] memory offers = new ERC721Offer[](_erc721OfferCount);\r\n        for(uint i = 1; i <= _erc721OfferCount; i++) {\r\n            offers[i-1] = _erc721Offers[i];\r\n        }\r\n        return offers;\r\n    }\r\n\r\n    function getErc721ExchangeById(uint _exchangeId) external view returns(ERC721Exchange memory){\r\n        return _erc721Exchanges[_exchangeId];\r\n    }\r\n\r\n    function getErc721OfferById(uint _offerId) external view returns(ERC721Offer memory){\r\n        return _erc721Offers[_offerId];\r\n    }\r\n\r\n    // ----- PUBLIC METHODS ----- //\r\n    /**\r\n    * @dev Owner of token can create Exchange of ERC721\r\n    * @dev exchangeTokenAddress address of exchangeToken(ERC721) \r\n    * @dev offerTokenAddress address of exchangeToken(ERC721) \r\n    * @dev tokenId ERC721 token id of Exchange\r\n    * @dev price token price of Exchange\r\n    */\r\n    function CreateERC721TokenExchange(CreateERC721TokenExchangeRequest memory input, address caller) external {\r\n        IERC721 token = IERC721(input.exchangeTokenAddress);\r\n        require(token.ownerOf(input.tokenId) == caller, \"TokenExchange.CreateERC721TokenExchange: You need to own this token\");\r\n        require(input.price > 0, \"TokenExchange.CreateERC721TokenExchange: price can't be lower or equal to zero\");\r\n        require(\r\n            token.isApprovedForAll(caller, address(this)),\r\n            \"TokenExchange.CreateERC721TokenExchange: Owner has not approved\"\r\n        );\r\n        \r\n        token.safeTransferFrom(caller, address(this), input.tokenId, \"\");\r\n\r\n        /**\r\n        * @dev store exchange and initial offer\r\n        */\r\n        ERC721Exchange memory exchange;\r\n        exchange.exchangeName = input.exchangeName;\r\n        exchange.creatorAddress = caller;\r\n        exchange.exchangeTokenAddress = input.exchangeTokenAddress;\r\n        exchange.offerTokenAddress = input.offerTokenAddress;\r\n        exchange.price = input.price; \r\n\r\n        _erc721ExchangeCount++;\r\n        _erc721Exchanges[_erc721ExchangeCount] = exchange;\r\n\r\n        ERC721Offer memory offer;\r\n        offer.exchangeId = _erc721ExchangeCount;\r\n        offer.offerType = \"SELL\";\r\n        offer.creatorAddress = caller;\r\n        offer.tokenId = input.tokenId;\r\n        offer.price = exchange.price;\r\n\r\n        _erc721OfferCount++;\r\n        offer.offerId = _erc721OfferCount;\r\n        _erc721Offers[_erc721OfferCount] = offer;\r\n\r\n        emit ERC721TokenExchangeCreated(_erc721ExchangeCount, _erc721OfferCount);\r\n    }\r\n\r\n    /**\r\n    * @dev someone can create buying offer for ERC721 token exchange\r\n    * @dev exchangeTokenId id of exchange \r\n    * @dev tokenId ERC721 token id of Exchange\r\n    * @dev price token price of Exchange\r\n    */\r\n    function PlaceERC721TokenBuyingOffer(PlaceERC721TokenOfferRequest memory input, address caller) external {\r\n        IERC20 token = IERC20(_erc721Exchanges[input.exchangeId].offerTokenAddress);\r\n        require(token.balanceOf(caller) >= input.price, \"TokenExchange.PlaceERC721TokenBuyingOffer: you don't have enough balance\");\r\n        require(input.price > 0, \"TokenExchange.PlaceERC721TokenBuyingOffer: price can't be lower or equal to zero\");\r\n\r\n        token.transferFrom(caller, address(this), input.price);\r\n\r\n        /**\r\n        * @dev store buying offer\r\n        */\r\n        ERC721Offer memory offer;\r\n        offer.exchangeId = input.exchangeId;\r\n        offer.offerType = \"BUY\";\r\n        offer.creatorAddress = caller;\r\n        offer.tokenId = input.tokenId;\r\n        offer.price = input.price;\r\n\r\n        _erc721OfferCount++;\r\n        offer.offerId = _erc721OfferCount;\r\n        _erc721Offers[_erc721OfferCount] = offer;\r\n\r\n        emit ERC721TokenBuyingOfferPlaced(_erc721OfferCount);\r\n    }\r\n\r\n    /**\r\n    * @dev owner of token can create selling offer for ERC721 token exchange\r\n    * @dev exchangeTokenId id of exchange \r\n    * @dev tokenId ERC721 token id of Exchange\r\n    * @dev price token price of Exchange\r\n    */\r\n    function PlaceERC721TokenSellingOffer(PlaceERC721TokenOfferRequest memory input, address caller) external {\r\n        IERC721 token = IERC721(_erc721Exchanges[input.exchangeId].exchangeTokenAddress);\r\n        require(token.ownerOf(input.tokenId) == caller, \"TokenExchange.PlaceERC721TokenSellingOffer: You need to own this token\");\r\n        require(input.price > 0, \"TokenExchange.PlaceERC721TokenSellingOffer: price can't be lower or equal to zero\");\r\n        require(\r\n            token.isApprovedForAll(caller, address(this)),\r\n            \"TokenExchange.PlaceERC721TokenSellingOffer: Owner has not approved\"\r\n        );\r\n\r\n        token.safeTransferFrom(caller, address(this), input.tokenId);\r\n\r\n        /**\r\n        * @dev store selling offer\r\n        */\r\n        ERC721Offer memory offer;\r\n        offer.exchangeId = input.exchangeId;\r\n        offer.offerType = \"SELL\";\r\n        offer.creatorAddress = caller;\r\n        offer.tokenId = input.tokenId;\r\n        offer.price = input.price;\r\n\r\n        _erc721OfferCount++;\r\n        offer.offerId = _erc721OfferCount;\r\n        _erc721Offers[_erc721OfferCount] = offer;\r\n\r\n        emit ERC721TokenSellingOfferPlaced(_erc721OfferCount);\r\n    }\r\n\r\n    /**\r\n    * @dev creator of buying offer can cancel his ERC721Token BuyingOffer\r\n    * @dev exchangeTokenId id of exchange \r\n    * @dev offerId id of offer\r\n    */\r\n    function CancelERC721TokenBuyingOffer(CancelOfferRequest memory input, address caller) external{\r\n        ERC721Offer memory offer = _erc721Offers[input.offerId];\r\n        IERC20 token = IERC20(_erc721Exchanges[input.exchangeId].offerTokenAddress);\r\n        require(offer.creatorAddress == caller, \"TokenExchange.CancelERC721TokenBuyingOffer: should be owner\");\r\n        require(offer.exchangeId == input.exchangeId, \"TokenExchange.CancelERC721TokenBuyingOffer: should be the same exchangeId\");\r\n        require(\r\n            keccak256(abi.encodePacked(offer.offerType)) == keccak256(abi.encodePacked(\"BUY\")), \r\n            \"TokenExchange.CancelERC721TokenBuyingOffer: should be the buying offer\"\r\n        );\r\n\r\n        require(\r\n            token.balanceOf(address(this)) >= offer.price,\r\n            \"TokenExchange.CancelERC721TokenBuyingOffer: you don't have enough balance\"\r\n        );\r\n        \r\n        token.transfer(caller, offer.price);            \r\n        delete _erc721Offers[input.offerId];\r\n\r\n        emit ERC721TokenBuyingOfferCanceled(input.offerId);\r\n    }\r\n\r\n    /**\r\n    * @dev creator of selling offer can cancel his ERC721 SellingOffer\r\n    * @dev exchangeTokenId id of exchange \r\n    * @dev offerId id of offer\r\n    */\r\n    function CancelERC721TokenSellingOffer(CancelOfferRequest memory input, address caller) external{\r\n        ERC721Offer memory offer = _erc721Offers[input.offerId];\r\n        IERC721 token = IERC721(_erc721Exchanges[input.exchangeId].exchangeTokenAddress);\r\n        require(offer.creatorAddress == caller, \"TokenExchange.CancelERC721TokenSellingOffer: should be owner\");\r\n        require(offer.exchangeId == input.exchangeId, \"TokenExchange.CancelERC721TokenSellingOffer: should be the same exchangeId\");\r\n        require(\r\n            keccak256(abi.encodePacked(offer.offerType)) == keccak256(abi.encodePacked(\"SELL\")), \r\n            \"TokenExchange.CancelERC721TokenSellingOffer: should be the selling offer\"\r\n        );\r\n        require(token.ownerOf(offer.tokenId) == address(this), \"TokenExchange.CancelERC721TokenSellingOffer: need to own this token\");\r\n        \r\n        token.safeTransferFrom(address(this), caller, offer.tokenId);\r\n        delete _erc721Offers[input.offerId];\r\n\r\n        emit ERC721TokenSellingOfferCanceled(input.offerId);\r\n    }\r\n\r\n    /**\r\n    * @dev someone can buy token(ERC721) from selling offer\r\n    * @dev exchangeTokenId id of exchange \r\n    * @dev offerId id of offer\r\n    */\r\n    function BuyERC721TokenFromOffer(OfferRequest memory input, address caller) external{\r\n        ERC721Offer memory offer = _erc721Offers[input.offerId];\r\n        IERC20 erc20token = IERC20(_erc721Exchanges[input.exchangeId].offerTokenAddress);\r\n        IERC721 erc721token = IERC721(_erc721Exchanges[input.exchangeId].exchangeTokenAddress);\r\n\r\n        require(offer.exchangeId == input.exchangeId, \"TokenExchange.BuyERC721TokenFromOffer: should be the same exchangeId\");\r\n        require(\r\n            keccak256(abi.encodePacked(offer.offerType)) == keccak256(abi.encodePacked(\"SELL\")), \r\n            \"TokenExchange.BuyERC721TokenFromOffer: should be the selling offer\"\r\n        );\r\n        require(\r\n            erc20token.balanceOf(caller) >= offer.price,\r\n            \"TokenExchange.BuyERC721TokenFromOffer: you don't have enough balance\"\r\n        );\r\n        require(erc721token.ownerOf(offer.tokenId) == address(this), \"TokenExchange.BuyERC721TokenFromOffer: need to own this token\");\r\n\r\n        erc20token.transferFrom(caller, offer.creatorAddress, offer.price); \r\n        erc721token.safeTransferFrom(address(this), caller, offer.tokenId);\r\n        delete _erc721Offers[input.offerId];\r\n\r\n        emit ERC721TokenFromOfferBought(input.offerId);\r\n    }\r\n\r\n    /**\r\n    * @dev owner of token can sell token(ERC721) from buying offer\r\n    * @dev exchangeTokenId id of exchange \r\n    * @dev offerId id of offer\r\n    */\r\n    function SellERC721TokenFromOffer(OfferRequest memory input, address caller) external{\r\n        ERC721Offer memory offer = _erc721Offers[input.offerId];\r\n        IERC20 erc20token = IERC20(_erc721Exchanges[input.exchangeId].offerTokenAddress);\r\n        IERC721 erc721token = IERC721(_erc721Exchanges[input.exchangeId].exchangeTokenAddress);\r\n\r\n        require(offer.exchangeId == input.exchangeId, \"TokenExchange.SellERC721TokenFromOffer: should be the same exchangeId\");\r\n        require(\r\n            keccak256(abi.encodePacked(offer.offerType)) == keccak256(abi.encodePacked(\"BUY\")), \r\n            \"TokenExchange.SellERC721TokenFromOffer: should be the buying offer\"\r\n        );\r\n        require(\r\n            erc20token.balanceOf(address(this)) >= offer.price,\r\n            \"TokenExchange.SellERC721TokenFromOffer: you don't have enough balance\"\r\n        );\r\n        require(erc721token.ownerOf(offer.tokenId) == caller, \"TokenExchange.SellERC721TokenFromOffer: need to own this token\");\r\n\r\n        erc20token.transfer(caller, offer.price); \r\n        erc721token.safeTransferFrom(caller, offer.creatorAddress, offer.tokenId);\r\n        delete _erc721Offers[input.offerId];\r\n\r\n        emit ERC721TokenFromOfferSold(input.offerId);\r\n    }\r\n\r\n    function onERC721Received(address, address, uint256, bytes memory) public virtual override returns (bytes4) {\r\n        return this.onERC721Received.selector;\r\n    }\r\n}",
  "sourcePath": "E:/PRIVI/Privi-Polygon/privi-exchange/contracts/ERC721TokenExchange.sol",
  "compiler": {
    "name": "solc",
    "version": "0.8.4+commit.c7e474f2.Emscripten.clang"
  },
  "schemaVersion": "3.4.3",
  "updatedAt": "2021-09-16T14:41:19.027Z",
  "networkType": "ethereum",
  "devdoc": {
    "details": "Exchange Contract for ERC721 Token",
    "kind": "dev",
    "methods": {
      "BuyERC721TokenFromOffer((uint256,uint256),address)": {
        "details": "someone can buy token(ERC721) from selling offerexchangeTokenId id of exchange offerId id of offer"
      },
      "CancelERC721TokenBuyingOffer((uint256,uint256),address)": {
        "details": "creator of buying offer can cancel his ERC721Token BuyingOfferexchangeTokenId id of exchange offerId id of offer"
      },
      "CancelERC721TokenSellingOffer((uint256,uint256),address)": {
        "details": "creator of selling offer can cancel his ERC721 SellingOfferexchangeTokenId id of exchange offerId id of offer"
      },
      "CreateERC721TokenExchange((string,address,address,uint256,uint256),address)": {
        "details": "Owner of token can create Exchange of ERC721exchangeTokenAddress address of exchangeToken(ERC721) offerTokenAddress address of exchangeToken(ERC721) tokenId ERC721 token id of Exchangeprice token price of Exchange"
      },
      "PlaceERC721TokenBuyingOffer((uint256,uint256,uint256),address)": {
        "details": "someone can create buying offer for ERC721 token exchangeexchangeTokenId id of exchange tokenId ERC721 token id of Exchangeprice token price of Exchange"
      },
      "PlaceERC721TokenSellingOffer((uint256,uint256,uint256),address)": {
        "details": "owner of token can create selling offer for ERC721 token exchangeexchangeTokenId id of exchange tokenId ERC721 token id of Exchangeprice token price of Exchange"
      },
      "SellERC721TokenFromOffer((uint256,uint256),address)": {
        "details": "owner of token can sell token(ERC721) from buying offerexchangeTokenId id of exchange offerId id of offer"
      },
      "constructor": {
        "details": "Constructor Function"
      }
    },
    "stateVariables": {
      "_erc721ExchangeCount": {
        "details": "count variables for ERC721Token exchange and offer mapping"
      },
      "_erc721Exchanges": {
        "details": "variables for storing ERC721Token Exchange and Offer"
      }
    },
    "version": 1
  },
  "userdoc": {
    "kind": "user",
    "methods": {},
    "version": 1
  }
}