{
  "contractName": "ERC721VaultFactory",
  "abi": [
    {
      "inputs": [
        {
          "internalType": "address",
          "name": "_settings",
          "type": "address"
        }
      ],
      "stateMutability": "nonpayable",
      "type": "constructor"
    },
    {
      "anonymous": false,
      "inputs": [
        {
          "indexed": true,
          "internalType": "address",
          "name": "token",
          "type": "address"
        },
        {
          "indexed": false,
          "internalType": "uint256",
          "name": "id",
          "type": "uint256"
        },
        {
          "indexed": false,
          "internalType": "uint256",
          "name": "price",
          "type": "uint256"
        },
        {
          "indexed": false,
          "internalType": "address",
          "name": "vault",
          "type": "address"
        },
        {
          "indexed": false,
          "internalType": "uint256",
          "name": "vaultId",
          "type": "uint256"
        }
      ],
      "name": "Mint",
      "type": "event"
    },
    {
      "anonymous": false,
      "inputs": [
        {
          "indexed": true,
          "internalType": "address",
          "name": "previousOwner",
          "type": "address"
        },
        {
          "indexed": true,
          "internalType": "address",
          "name": "newOwner",
          "type": "address"
        }
      ],
      "name": "OwnershipTransferred",
      "type": "event"
    },
    {
      "anonymous": false,
      "inputs": [
        {
          "indexed": false,
          "internalType": "address",
          "name": "account",
          "type": "address"
        }
      ],
      "name": "Paused",
      "type": "event"
    },
    {
      "anonymous": false,
      "inputs": [
        {
          "indexed": false,
          "internalType": "address",
          "name": "account",
          "type": "address"
        }
      ],
      "name": "Unpaused",
      "type": "event"
    },
    {
      "inputs": [],
      "name": "logic",
      "outputs": [
        {
          "internalType": "address",
          "name": "",
          "type": "address"
        }
      ],
      "stateMutability": "view",
      "type": "function",
      "constant": true
    },
    {
      "inputs": [],
      "name": "owner",
      "outputs": [
        {
          "internalType": "address",
          "name": "",
          "type": "address"
        }
      ],
      "stateMutability": "view",
      "type": "function",
      "constant": true
    },
    {
      "inputs": [],
      "name": "paused",
      "outputs": [
        {
          "internalType": "bool",
          "name": "",
          "type": "bool"
        }
      ],
      "stateMutability": "view",
      "type": "function",
      "constant": true
    },
    {
      "inputs": [],
      "name": "renounceOwnership",
      "outputs": [],
      "stateMutability": "nonpayable",
      "type": "function"
    },
    {
      "inputs": [],
      "name": "settings",
      "outputs": [
        {
          "internalType": "address",
          "name": "",
          "type": "address"
        }
      ],
      "stateMutability": "view",
      "type": "function",
      "constant": true
    },
    {
      "inputs": [
        {
          "internalType": "address",
          "name": "newOwner",
          "type": "address"
        }
      ],
      "name": "transferOwnership",
      "outputs": [],
      "stateMutability": "nonpayable",
      "type": "function"
    },
    {
      "inputs": [],
      "name": "vaultCount",
      "outputs": [
        {
          "internalType": "uint256",
          "name": "",
          "type": "uint256"
        }
      ],
      "stateMutability": "view",
      "type": "function",
      "constant": true
    },
    {
      "inputs": [
        {
          "internalType": "uint256",
          "name": "",
          "type": "uint256"
        }
      ],
      "name": "vaults",
      "outputs": [
        {
          "internalType": "address",
          "name": "",
          "type": "address"
        }
      ],
      "stateMutability": "view",
      "type": "function",
      "constant": true
    },
    {
      "inputs": [
        {
          "internalType": "string",
          "name": "_name",
          "type": "string"
        },
        {
          "internalType": "string",
          "name": "_symbol",
          "type": "string"
        },
        {
          "internalType": "address",
          "name": "_token",
          "type": "address"
        },
        {
          "internalType": "uint256",
          "name": "_id",
          "type": "uint256"
        },
        {
          "internalType": "uint256",
          "name": "_supply",
          "type": "uint256"
        },
        {
          "internalType": "uint256",
          "name": "_listPrice",
          "type": "uint256"
        },
        {
          "internalType": "uint256",
          "name": "_fee",
          "type": "uint256"
        }
      ],
      "name": "mint",
      "outputs": [
        {
          "internalType": "uint256",
          "name": "",
          "type": "uint256"
        }
      ],
      "stateMutability": "nonpayable",
      "type": "function"
    },
    {
      "inputs": [],
      "name": "pause",
      "outputs": [],
      "stateMutability": "nonpayable",
      "type": "function"
    },
    {
      "inputs": [],
      "name": "unpause",
      "outputs": [],
      "stateMutability": "nonpayable",
      "type": "function"
    }
  ],
  "bytecode": "0x60c060405234801561001057600080fd5b50604051620064663803806200646683398101604081905261003191610137565b6100536100456401000000006100d5810204565b6401000000006100d9810204565b6000805460a060020a60ff02191690556c01000000000000000000000000600160a060020a03821602608052604051819061008d90610129565b6100979190610165565b604051809103906000f0801580156100b3573d6000803e3d6000fd5b50600160a060020a03166c010000000000000000000000000260a05250610179565b3390565b60008054600160a060020a03838116600160a060020a0319831681178455604051919092169283917f8be0079c531659141344cd1fd0a4f28419497f9722a3daafe3b4186f6b6457e09190a35050565b6152a080620011c683390190565b600060208284031215610148578081fd5b8151600160a060020a038116811461015e578182fd5b9392505050565b600160a060020a0391909116815260200190565b6080516c01000000000000000000000000900460a0516c010000000000000000000000009004611000620001c6600039600081816103b101526105420152600061056601526110006000f3fe60806040523480156200001157600080fd5b5060043610620000d5576000357c0100000000000000000000000000000000000000000000000000000000900480638da5cb5b11620000985780638da5cb5b1462000142578063a7c6a100146200014c578063bdc011101462000165578063d7dfa0dd146200017c578063e06174e41462000186578063f2fde38b146200019057620000d5565b80633f4ba83a14620000da5780635c975abb14620000e6578063715018a614620001085780638456cb5914620001125780638c64ea4a146200011c575b600080fd5b620000e4620001a7565b005b620000f062000205565b604051620000ff919062000a3b565b60405180910390f35b620000e462000226565b620000e46200027b565b620001336200012d36600462000904565b620002ce565b604051620000ff91906200096b565b62000133620002e9565b62000156620002f8565b604051620000ff919062000b46565b620001566200017636600462000865565b620002fe565b6200013362000540565b6200013362000564565b620000e4620001a136600462000841565b62000588565b620001b16200060b565b600160a060020a0316620001c4620002e9565b600160a060020a031614620001f95760405160e560020a62461bcd028152600401620001f09062000b11565b60405180910390fd5b620002036200060f565b565b60005474010000000000000000000000000000000000000000900460ff1690565b620002306200060b565b600160a060020a031662000243620002e9565b600160a060020a0316146200026f5760405160e560020a62461bcd028152600401620001f09062000b11565b6200020360006200069d565b620002856200060b565b600160a060020a031662000298620002e9565b600160a060020a031614620002c45760405160e560020a62461bcd028152600401620001f09062000b11565b62000203620006fa565b600260205260009081526040902054600160a060020a031681565b600054600160a060020a031690565b60015481565b60006200030a62000205565b156200032d5760405160e560020a62461bcd028152600401620001f09062000ada565b60003387878787878e8e60405160240162000350989796959493929190620009a3565b60408051601f198184030181529181526020820180517bffffffffffffffffffffffffffffffffffffffffffffffffffffffff167f626fb2f000000000000000000000000000000000000000000000000000000000179052519091506000907f0000000000000000000000000000000000000000000000000000000000000000908390620003de9062000787565b620003eb92919062000a0f565b604051809103906000f08015801562000408573d6000803e3d6000fd5b50905087600160a060020a03167ff9c32fbc56ff04f32a233ebc26e388564223745e28abd8d0781dd906537f563e8887846001546040516200044e949392919062000b4f565b60405180910390a26040517f42842e0e000000000000000000000000000000000000000000000000000000008152600160a060020a038916906342842e0e90620004a190339085908c906004016200097f565b600060405180830381600087803b158015620004bc57600080fd5b505af1158015620004d1573d6000803e3d6000fd5b5050600180546000908152600260205260408120805473ffffffffffffffffffffffffffffffffffffffff1916600160a060020a038716179055815493509091506200051d8362000b8d565b91905055506001805462000532919062000b73565b9a9950505050505050505050565b7f000000000000000000000000000000000000000000000000000000000000000081565b7f000000000000000000000000000000000000000000000000000000000000000081565b620005926200060b565b600160a060020a0316620005a5620002e9565b600160a060020a031614620005d15760405160e560020a62461bcd028152600401620001f09062000b11565b600160a060020a038116620005fd5760405160e560020a62461bcd028152600401620001f09062000a7d565b62000608816200069d565b50565b3390565b6200061962000205565b6200063b5760405160e560020a62461bcd028152600401620001f09062000a46565b6000805474ff0000000000000000000000000000000000000000191690557f5db9ee0a495bf2e6ff9c91a7834c1ba4fdd244a5e8aa4e537bd38aeae4b073aa620006846200060b565b6040516200069391906200096b565b60405180910390a1565b60008054600160a060020a0383811673ffffffffffffffffffffffffffffffffffffffff19831681178455604051919092169283917f8be0079c531659141344cd1fd0a4f28419497f9722a3daafe3b4186f6b6457e09190a35050565b6200070462000205565b15620007275760405160e560020a62461bcd028152600401620001f09062000ada565b6000805474ff00000000000000000000000000000000000000001916740100000000000000000000000000000000000000001790557f62e78cea01bee320cd4e420270b5ea74000d11b0c9f74754ebdbfc544b05a258620006846200060b565b6103c18062000c0a83390190565b8035600160a060020a0381168114620007ad57600080fd5b919050565b600082601f830112620007c3578081fd5b813567ffffffffffffffff80821115620007e157620007e162000bda565b604051601f8301601f19908116603f011681019082821181831017156200080c576200080c62000bda565b8160405283815286602085880101111562000825578485fd5b8360208701602083013792830160200193909352509392505050565b60006020828403121562000853578081fd5b6200085e8262000795565b9392505050565b600080600080600080600060e0888a03121562000880578283fd5b873567ffffffffffffffff8082111562000898578485fd5b620008a68b838c01620007b2565b985060208a0135915080821115620008bc578485fd5b50620008cb8a828b01620007b2565b965050620008dc6040890162000795565b969995985095966060810135965060808101359560a0820135955060c0909101359350915050565b60006020828403121562000916578081fd5b5035919050565b60008151808452815b81811015620009445760208185018101518683018201520162000926565b81811115620009565782602083870101525b50601f01601f19169290920160200192915050565b600160a060020a0391909116815260200190565b600160a060020a039384168152919092166020820152604081019190915260600190565b6000610100600160a060020a03808c168452808b166020850152508860408401528760608401528660808401528560a08401528060c0840152620009ea818401866200091d565b905082810360e084015262000a0081856200091d565b9b9a5050505050505050505050565b6000600160a060020a03841682526040602083015262000a3360408301846200091d565b949350505050565b901515815260200190565b60208082526014908201527f5061757361626c653a206e6f7420706175736564000000000000000000000000604082015260600190565b60208082526026908201527f4f776e61626c653a206e6577206f776e657220697320746865207a65726f206160408201527f6464726573730000000000000000000000000000000000000000000000000000606082015260800190565b60208082526010908201527f5061757361626c653a2070617573656400000000000000000000000000000000604082015260600190565b6020808252818101527f4f776e61626c653a2063616c6c6572206973206e6f7420746865206f776e6572604082015260600190565b90815260200190565b9384526020840192909252600160a060020a03166040830152606082015260800190565b60008282101562000b885762000b8862000bab565b500390565b600060001982141562000ba45762000ba462000bab565b5060010190565b7f4e487b7100000000000000000000000000000000000000000000000000000000600052601160045260246000fd5b7f4e487b7100000000000000000000000000000000000000000000000000000000600052604160045260246000fdfe60a060405234801561001057600080fd5b506040516103c13803806103c183398101604081905261002f916100f1565b600160a060020a0382166c010000000000000000000000008102608052604051600091829161005f9085906101bb565b600060405180830381855af49150503d806000811461009a576040519150601f19603f3d011682016040523d82523d6000602084013e61009f565b606091505b50915091508181906100e7576040517f08c379a00000000000000000000000000000000000000000000000000000000081526004016100de91906101d7565b60405180910390fd5b5050505050610269565b60008060408385031215610103578182fd5b8251600160a060020a0381168114610119578283fd5b602084015190925067ffffffffffffffff80821115610136578283fd5b818501915085601f830112610149578283fd5b81518181111561015b5761015b61023a565b604051601f8201601f19908116603f011681019083821181831017156101835761018361023a565b8160405282815288602084870101111561019b578586fd5b6101ac83602083016020880161020a565b80955050505050509250929050565b600082516101cd81846020870161020a565b9190910192915050565b60006020825282518060208401526101f681604085016020870161020a565b601f01601f19169190910160400192915050565b60005b8381101561022557818101518382015260200161020d565b83811115610234576000848401525b50505050565b7f4e487b7100000000000000000000000000000000000000000000000000000000600052604160045260246000fd5b6080516c010000000000000000000000009004610128610299600039600081816046015260af01526101286000f3fe608060405260043610603b577c01000000000000000000000000000000000000000000000000000000006000350463d7dfa0dd81146087576041565b36604157005b6040517f00000000000000000000000000000000000000000000000000000000000000009036600082376000803683855af43d806000843e8180156083578184f35b8184fd5b348015609257600080fd5b50609960ad565b60405160a4919060d1565b60405180910390f35b7f000000000000000000000000000000000000000000000000000000000000000081565b73ffffffffffffffffffffffffffffffffffffffff9190911681526020019056fea2646970667358221220e5770940a5ca6eebd54da85a58d29ca3a31fd121ca350384a1a69fe8b352292c64736f6c63430008010033a2646970667358221220935b8104160e7858a803f23cca5c67b9e04831196fb301a9b7a5c7a41c4abf0664736f6c6343000801003360a06040523480156200001157600080fd5b50604051620052a0380380620052a0833981016040819052620000349162000055565b600160a060020a03166c010000000000000000000000000260805262000085565b60006020828403121562000067578081fd5b8151600160a060020a03811681146200007e578182fd5b9392505050565b6080516c0100000000000000000000000090046151946200010c6000396000818161097a01528181610be701528181610ce501528181610d8a015281816111a2015281816112810152818161142e0152818161150d015281816116a9015281816118de01528181611d5a01528181611f4501528181612767015261280501526151946000f3fe6080604052600436106200029a5760003560e060020a900480637fb450991162000167578063be040fb011620000cb578063dd62ed3e1162000089578063dd62ed3e1462000732578063ddca3f431462000757578063e06174e4146200076f578063e66f53b71462000787578063efbe1c1c146200079f578063fc0c546a14620007b7576200029a565b8063be040fb014620006bb578063be9a655514620006d3578063c91de64914620006dd578063d294f0931462000702578063db2e1eed146200071a576200029a565b8063961be3911162000125578063961be39114620006115780639a4e6d341462000629578063a457c2d71462000641578063a9059cbb1462000666578063adc1b956146200068b578063af640d0f14620006a3576200029a565b80637fb45099146200057057806380436fe01462000597578063853a1b9014620005bc5780639012c4a814620005d457806395d89b4114620005f9576200029a565b8063313ce567116200020f5780635c9920fc11620001cd5780635c9920fc14620004b9578063626fb2f014620004d15780636a77571414620004f65780636da84e6c146200051b57806370a0823114620005335780637b5581ed1462000558576200029a565b8063313ce5671462000416578063325c25a2146200043d5780633950935114620004555780633fc8cef3146200047a57806347ccca0214620004a1576200029a565b80631998aeef116200025d5780631998aeef146200038557806323b872dd146200038f5780632a24f46c14620003b45780632a44f12014620003cc5780632bf33bd914620003f1576200029a565b806306fdde03146200029f578063095ea7b314620002cf5780630c6a62dd1462000303578063150b7a02146200032a57806318160ddd146200035e575b600080fd5b348015620002ac57600080fd5b50620002b7620007cf565b604051620002c6919062003483565b60405180910390f35b348015620002dc57600080fd5b50620002f4620002ee366004620032f5565b62000869565b604051620002c6919062003416565b3480156200031057600080fd5b506200032862000322366004620030f7565b6200088a565b005b3480156200033757600080fd5b506200034f62000349366004620031b7565b620008f2565b604051620002c6919062003421565b3480156200036b57600080fd5b50620003766200091b565b604051620002c691906200347a565b6200032862000921565b3480156200039c57600080fd5b50620002f4620003ae36600462003172565b62000b41565b348015620003c157600080fd5b506200037662000bdf565b348015620003d957600080fd5b5062000328620003eb366004620030f7565b62000be5565b348015620003fe57600080fd5b50620003286200041036600462003345565b62000cb3565b3480156200042357600080fd5b506200042e62000e4d565b604051620002c6919062003d98565b3480156200044a57600080fd5b506200037662000e52565b3480156200046257600080fd5b50620002f462000474366004620032f5565b62000e58565b3480156200048757600080fd5b506200049262000eb4565b604051620002c69190620033c5565b348015620004ae57600080fd5b506200049262000ecc565b348015620004c657600080fd5b50620002f462000edb565b348015620004de57600080fd5b5062000328620004f03660046200323d565b62000ee4565b3480156200050357600080fd5b50620003286200051536600462003345565b6200109c565b3480156200052857600080fd5b506200037662001670565b3480156200054057600080fd5b506200037662000552366004620030f7565b62001676565b3480156200056557600080fd5b506200037662001691565b3480156200057d57600080fd5b506200058862001697565b604051620002c691906200344e565b348015620005a457600080fd5b5062000328620005b6366004620030f7565b620016a7565b348015620005c957600080fd5b50620004926200189d565b348015620005e157600080fd5b5062000328620005f336600462003345565b620018ac565b3480156200060657600080fd5b50620002b7620019aa565b3480156200061e57600080fd5b5062000328620019bb565b3480156200063657600080fd5b506200037662001acb565b3480156200064e57600080fd5b50620002f462000660366004620032f5565b62001ad1565b3480156200067357600080fd5b50620002f462000685366004620032f5565b62001b56565b3480156200069857600080fd5b506200037662001b6e565b348015620006b057600080fd5b506200037662001b74565b348015620006c857600080fd5b506200032862001b7a565b6200032862001cca565b348015620006ea57600080fd5b5062000376620006fc366004620030f7565b62001ec7565b3480156200070f57600080fd5b506200032862001ed9565b3480156200072757600080fd5b506200037662001ee5565b3480156200073f57600080fd5b50620003766200075136600462003135565b62001f12565b3480156200076457600080fd5b506200037662001f3d565b3480156200077c57600080fd5b506200049262001f43565b3480156200079457600080fd5b506200049262001f67565b348015620007ac57600080fd5b506200032862001f76565b348015620007c457600080fd5b5062000492620020fd565b606060368054620007e09062003e21565b80601f01602080910402602001604051908101604052809291908181526020018280546200080e9062003e21565b80156200085f5780601f1062000833576101008083540402835291602001916200085f565b820191906000526020600020905b8154815290600101906020018083116200084157829003601f168201915b5050505050905090565b600062000881620008796200210c565b848462002110565b50600192915050565b609e54600160a060020a03163314620008c35760405160e560020a62461bcd028152600401620008ba906200382d565b60405180910390fd5b609e805473ffffffffffffffffffffffffffffffffffffffff1916600160a060020a0392909216919091179055565b7f150b7a0200000000000000000000000000000000000000000000000000000000949350505050565b60355490565b6001609d5460a060020a900460ff166003811115620009535760e060020a634e487b7102600052602160045260246000fd5b14620009765760405160e560020a62461bcd028152600401620008ba906200364f565b60007f0000000000000000000000000000000000000000000000000000000000000000600160a060020a0316637c513c0f6040518163ffffffff1660e060020a028152600401602060405180830381600087803b158015620009d757600080fd5b505af1158015620009ec573d6000803e3d6000fd5b505050506040513d601f19601f8201168201806040525081019062000a1291906200335e565b62000a20906103e862003da6565b905080609c5462000a32919062003de5565b62000a40346103e862003de5565b101562000a645760405160e560020a62461bcd028152600401620008ba9062003bcb565b609954421062000a8b5760405160e560020a62461bcd028152600401620008ba9062003955565b6103844260995462000a9e919062003e07565b1162000ac0576103846099600082825462000aba919062003da6565b90915550505b609d54609c5462000adb91600160a060020a031690620021d2565b34609c819055609d805473ffffffffffffffffffffffffffffffffffffffff19163390811790915560405190917fe684a55f31b79eca403df938249029212a5925ec6be8012e099b45bc1019e5d29162000b3691906200347a565b60405180910390a250565b600062000b508484846200236c565b600160a060020a03841660009081526034602052604081208162000b736200210c565b600160a060020a0316600160a060020a031681526020019081526020016000205490508281101562000bbc5760405160e560020a62461bcd028152600401620008ba90620038f8565b62000bd48562000bcb6200210c565b85840362002110565b506001949350505050565b60995481565b7f0000000000000000000000000000000000000000000000000000000000000000600160a060020a0316638da5cb5b6040518163ffffffff1660e060020a02815260040160206040518083038186803b15801562000c4257600080fd5b505afa15801562000c57573d6000803e3d6000fd5b505050506040513d601f19601f8201168201806040525081019062000c7d919062003116565b600160a060020a031633600160a060020a031614620008c35760405160e560020a62461bcd028152600401620008ba90620036f4565b609e54600160a060020a0316331462000ce35760405160e560020a62461bcd028152600401620008ba906200382d565b7f0000000000000000000000000000000000000000000000000000000000000000600160a060020a031663a0b335e36040518163ffffffff1660e060020a028152600401602060405180830381600087803b15801562000d4257600080fd5b505af115801562000d57573d6000803e3d6000fd5b505050506040513d601f19601f8201168201806040525081019062000d7d91906200335e565b811015801562000e2657507f0000000000000000000000000000000000000000000000000000000000000000600160a060020a0316630e519ef96040518163ffffffff1660e060020a028152600401602060405180830381600087803b15801562000de757600080fd5b505af115801562000dfc573d6000803e3d6000fd5b505050506040513d601f19601f8201168201806040525081019062000e2291906200335e565b8111155b62000e485760405160e560020a62461bcd028152600401620008ba90620038c1565b609a55565b601290565b609a5481565b60006200088162000e686200210c565b84846034600062000e786200210c565b600160a060020a03908116825260208083019390935260409182016000908120918b168152925290205462000eae919062003da6565b62002110565b73c02aaa39b223fe8d0a0e5c4f27ead9083c756cc281565b60a454600160a060020a031681565b60a15460ff1681565b600054610100900460ff168062000efe575060005460ff16155b62000f205760405160e560020a62461bcd028152600401620008ba9062003864565b600054610100900460ff1615801562000f4c576000805460ff1961ff0019909116610100171660011790555b62000f588383620024b0565b62000f6262002545565b828260405162000f729062002f9d565b62000f7f92919062003498565b604051809103906000f08015801562000f9c573d6000803e3d6000fd5b5060a4805473ffffffffffffffffffffffffffffffffffffffff19908116600160a060020a039384161790915560978054909116918a16919091179055609887905562000fea868662003de5565b609b5562093a80609a55609e805473ffffffffffffffffffffffffffffffffffffffff1916600160a060020a038b16179055609f8490554260a055841562001033578562001036565b60005b60a255609d805474ff000000000000000000000000000000000000000019169055620010638987620025cd565b600160a060020a038916600090815260a360205260409020859055801562001091576000805461ff00191690555b505050505050505050565b6000609d5460a060020a900460ff166003811115620010ce5760e060020a634e487b7102600052602160045260246000fd5b14620010f15760405160e560020a62461bcd028152600401620008ba9062003c39565b33600090815260a3602052604090205481811415620011275760405160e560020a62461bcd028152600401620008ba9062003c96565b6000620011343362001676565b905060a254600014156200115c5760a281905562001153838262003de5565b609b556200161f565b60a254811480156200116d57508115155b156200117f5762001153838262003de5565b81620013a157600060a254609b5462001199919062003dc1565b905060006103e87f0000000000000000000000000000000000000000000000000000000000000000600160a060020a03166309990a966040518163ffffffff1660e060020a028152600401602060405180830381600087803b158015620011ff57600080fd5b505af115801562001214573d6000803e3d6000fd5b505050506040513d601f19601f820116820180604052508101906200123a91906200335e565b62001246908462003de5565b62001252919062003dc1565b9050808510156200127a5760405160e560020a62461bcd028152600401620008ba906200355e565b60006103e87f0000000000000000000000000000000000000000000000000000000000000000600160a060020a0316635410bfc96040518163ffffffff1660e060020a028152600401602060405180830381600087803b158015620012de57600080fd5b505af1158015620012f3573d6000803e3d6000fd5b505050506040513d601f19601f820116820180604052508101906200131991906200335e565b62001325908562003de5565b62001331919062003dc1565b905080861115620013595760405160e560020a62461bcd028152600401620008ba9062003c02565b8360a260008282546200136d919062003da6565b909155506200137f9050868562003de5565b609b600082825462001392919062003da6565b909155506200161f9350505050565b82620013ec578060a26000828254620013bb919062003e07565b90915550620013cd9050828262003de5565b609b6000828254620013e0919062003e07565b909155506200161f9050565b60008160a254620013fe919062003e07565b6200140a838562003de5565b609b5462001419919062003e07565b62001425919062003dc1565b905060006103e87f0000000000000000000000000000000000000000000000000000000000000000600160a060020a03166309990a966040518163ffffffff1660e060020a028152600401602060405180830381600087803b1580156200148b57600080fd5b505af1158015620014a0573d6000803e3d6000fd5b505050506040513d601f19601f82011682018060405250810190620014c691906200335e565b620014d2908462003de5565b620014de919062003dc1565b905080851015620015065760405160e560020a62461bcd028152600401620008ba906200355e565b60006103e87f0000000000000000000000000000000000000000000000000000000000000000600160a060020a0316635410bfc96040518163ffffffff1660e060020a028152600401602060405180830381600087803b1580156200156a57600080fd5b505af11580156200157f573d6000803e3d6000fd5b505050506040513d601f19601f82011682018060405250810190620015a591906200335e565b620015b1908562003de5565b620015bd919062003dc1565b905080861115620015e55760405160e560020a62461bcd028152600401620008ba9062003c02565b620015f1858562003de5565b620015fd878662003de5565b609b546200160c919062003da6565b62001618919062003e07565b609b555050505b33600081815260a3602052604090819020859055517f64e6e7bd72b853c4e62fd6ceaca05a104700c70a4cb567c75c7f2242ba7f037c90620016639086906200347a565b60405180910390a2505050565b609c5481565b600160a060020a031660009081526033602052604090205490565b609b5481565b609d5460a060020a900460ff1681565b7f0000000000000000000000000000000000000000000000000000000000000000600160a060020a0316638da5cb5b6040518163ffffffff1660e060020a02815260040160206040518083038186803b1580156200170457600080fd5b505afa15801562001719573d6000803e3d6000fd5b505050506040513d601f19601f820116820180604052508101906200173f919062003116565b600160a060020a031633600160a060020a031614620017755760405160e560020a62461bcd028152600401620008ba9062003aa3565b6000609d5460a060020a900460ff166003811115620017a75760e060020a634e487b7102600052602160045260246000fd5b14620017ca5760405160e560020a62461bcd028152600401620008ba9062003c39565b600160a060020a038116600090815260a3602052604090205480620018065760405160e560020a62461bcd028152600401620008ba9062003c96565b6000620018138362001676565b90508060a2600082825462001829919062003e07565b909155506200183b9050828262003de5565b609b60008282546200184e919062003e07565b9091555050600160a060020a038316600081815260a36020526040808220829055517f64e6e7bd72b853c4e62fd6ceaca05a104700c70a4cb567c75c7f2242ba7f037c9162001663916200347a565b609d54600160a060020a031681565b609e54600160a060020a03163314620018dc5760405160e560020a62461bcd028152600401620008ba906200382d565b7f0000000000000000000000000000000000000000000000000000000000000000600160a060020a0316638a364bc16040518163ffffffff1660e060020a028152600401602060405180830381600087803b1580156200193b57600080fd5b505af115801562001950573d6000803e3d6000fd5b505050506040513d601f19601f820116820180604052508101906200197691906200335e565b8111156200199b5760405160e560020a62461bcd028152600401620008ba906200398c565b620019a5620026a9565b609f55565b606060378054620007e09062003e21565b6002609d5460a060020a900460ff166003811115620019ed5760e060020a634e487b7102600052602160045260246000fd5b1462001a105760405160e560020a62461bcd028152600401620008ba9062003d61565b600062001a1d3362001676565b90506000811162001a455760405160e560020a62461bcd028152600401620008ba9062003686565b600062001a516200091b565b62001a5e30318462003de5565b62001a6a919062003dc1565b905062001a7833836200291a565b62001a84338262002a1f565b33600160a060020a03167f730831a1e4aa2d187ddd8e03d7beeac760a3927da5f112d645e0f8df7494b3678260405162001abf91906200347a565b60405180910390a25050565b60a25481565b6000806034600062001ae26200210c565b600160a060020a039081168252602080830193909352604091820160009081209188168152925290205490508281101562001b345760405160e560020a62461bcd028152600401620008ba9062003ccd565b62001b4c62001b426200210c565b8585840362002110565b5060019392505050565b60006200088162001b666200210c565b84846200236c565b60a05481565b60985481565b6000609d5460a060020a900460ff16600381111562001bac5760e060020a634e487b7102600052602160045260246000fd5b1462001bcf5760405160e560020a62461bcd028152600401620008ba90620036bd565b62001be43362001bde6200091b565b6200291a565b6097546098546040517f23b872dd000000000000000000000000000000000000000000000000000000008152600160a060020a03909216916323b872dd9162001c349130913391600401620033d9565b600060405180830381600087803b15801562001c4f57600080fd5b505af115801562001c64573d6000803e3d6000fd5b5050609d805474ff0000000000000000000000000000000000000000191674030000000000000000000000000000000000000000179055505060405133907fd1b5ea7fe0f1c2fa09d49c2aa9b2200664ba57a734f1d95481d95b7f99af991c90600090a2565b6000609d5460a060020a900460ff16600381111562001cfc5760e060020a634e487b7102600052602160045260246000fd5b1462001d1f5760405160e560020a62461bcd028152600401620008ba9062003527565b62001d2962001ee5565b34101562001d4e5760405160e560020a62461bcd028152600401620008ba9062003788565b62001d586200091b565b7f0000000000000000000000000000000000000000000000000000000000000000600160a060020a03166332977c736040518163ffffffff1660e060020a028152600401602060405180830381600087803b15801562001db757600080fd5b505af115801562001dcc573d6000803e3d6000fd5b505050506040513d601f19601f8201168201806040525081019062001df291906200335e565b62001dfe919062003de5565b60a25462001e0f906103e862003de5565b101562001e335760405160e560020a62461bcd028152600401620008ba90620037f6565b609a5462001e42904262003da6565b609955609d805434609c81905574ff00000000000000000000000000000000000000001990911660a060020a1773ffffffffffffffffffffffffffffffffffffffff1916339081179092556040517fcfb9c5312b25ec7b809d61e638df25f749eae5d5c25399e1c93d1d319bfd58219162001ebd916200347a565b60405180910390a2565b60a36020526000908152604090205481565b62001ee3620026a9565b565b600060a25460001462001f0a5760a254609b5462001f04919062003dc1565b62001f0d565b60005b905090565b600160a060020a03918216600090815260346020908152604080832093909416825291909152205490565b609f5481565b7f000000000000000000000000000000000000000000000000000000000000000081565b609e54600160a060020a031681565b6001609d5460a060020a900460ff16600381111562001fa85760e060020a634e487b7102600052602160045260246000fd5b1462001fcb5760405160e560020a62461bcd028152600401620008ba9062003b37565b60995442101562001ff35760405160e560020a62461bcd028152600401620008ba90620037bf565b62001ffd620026a9565b609754609d546098546040517f23b872dd000000000000000000000000000000000000000000000000000000008152600160a060020a03938416936323b872dd93620020539330939290911691600401620033d9565b600060405180830381600087803b1580156200206e57600080fd5b505af115801562002083573d6000803e3d6000fd5b5050609d805474ff00000000000000000000000000000000000000001916740200000000000000000000000000000000000000001790819055609c54604051600160a060020a0390921693507f8b01f9dd0400d6a1e84369a5fb8f6033934856ffa8ebadd707dca302ab551695925062001ebd916200347a565b609754600160a060020a031681565b3390565b600160a060020a0383166200213c5760405160e560020a62461bcd028152600401620008ba9062003ada565b600160a060020a038216620021685760405160e560020a62461bcd028152600401620008ba90620035f2565b600160a060020a0380841660008181526034602090815260408083209487168084529490915290819020849055517f8c5be1e5ebec7d5bd14f71427d1e84f3dd0314c0f7b2291e5b200ac8c7c3b92590620021c59085906200347a565b60405180910390a3505050565b73c02aaa39b223fe8d0a0e5c4f27ead9083c756cc2600160a060020a031663d0e30db0826040518263ffffffff1660e060020a0281526004016000604051808303818588803b1580156200222557600080fd5b505af11580156200223a573d6000803e3d6000fd5b50506040517f70a0823100000000000000000000000000000000000000000000000000000000815273c02aaa39b223fe8d0a0e5c4f27ead9083c756cc2935063a9059cbb925085915083906370a08231906200229b903090600401620033c5565b60206040518083038186803b158015620022b457600080fd5b505afa158015620022c9573d6000803e3d6000fd5b505050506040513d601f19601f82011682018060405250810190620022ef91906200335e565b6040518363ffffffff1660e060020a02815260040162002311929190620033fd565b602060405180830381600087803b1580156200232c57600080fd5b505af115801562002341573d6000803e3d6000fd5b505050506040513d601f19601f8201168201806040525081019062002367919062003323565b505050565b600160a060020a038316620023985760405160e560020a62461bcd028152600401620008ba9062003a46565b600160a060020a038216620023c45760405160e560020a62461bcd028152600401620008ba90620034ca565b620023d183838362002c0c565b600160a060020a03831660009081526033602052604090205481811015620024105760405160e560020a62461bcd028152600401620008ba906200372b565b600160a060020a038085166000908152603360205260408082208585039055918516815290812080548492906200244990849062003da6565b9250508190555082600160a060020a031684600160a060020a03167fddf252ad1be2c89b69c2b068fc378daa952ba7f163c4a11628f55a4df523b3ef846040516200249591906200347a565b60405180910390a3620024aa84848462002367565b50505050565b600054610100900460ff1680620024ca575060005460ff16155b620024ec5760405160e560020a62461bcd028152600401620008ba9062003864565b600054610100900460ff1615801562002518576000805460ff1961ff0019909116610100171660011790555b6200252262002e70565b6200252e838362002eec565b801562002367576000805461ff0019169055505050565b600054610100900460ff16806200255f575060005460ff16155b620025815760405160e560020a62461bcd028152600401620008ba9062003864565b600054610100900460ff16158015620025ad576000805460ff1961ff0019909116610100171660011790555b620025b762002e70565b8015620025ca576000805461ff00191690555b50565b600160a060020a038216620025f95760405160e560020a62461bcd028152600401620008ba9062003d2a565b620026076000838362002c0c565b80603560008282546200261b919062003da6565b9091555050600160a060020a038216600090815260336020526040812080548392906200264a90849062003da6565b9091555050604051600160a060020a038316906000907fddf252ad1be2c89b69c2b068fc378daa952ba7f163c4a11628f55a4df523b3ef906200268f9085906200347a565b60405180910390a3620026a56000838362002367565b5050565b6002609d5460a060020a900460ff166003811115620026db5760e060020a634e487b7102600052602160045260246000fd5b1415620026ff5760405160e560020a62461bcd028152600401620008ba9062003b6e565b60006103e86200270e6200091b565b609f546200271d919062003de5565b62002729919062003dc1565b905060006200273d6301e133808362003dc1565b9050600060a0544262002751919062003e07565b9050600062002761838362003de5565b905060007f0000000000000000000000000000000000000000000000000000000000000000600160a060020a031663b3f006746040518163ffffffff1660e060020a028152600401602060405180830381600087803b158015620027c457600080fd5b505af1158015620027d9573d6000803e3d6000fd5b505050506040513d601f19601f82011682018060405250810190620027ff919062003116565b905060007f0000000000000000000000000000000000000000000000000000000000000000600160a060020a0316630ea90a126040518163ffffffff1660e060020a028152600401602060405180830381600087803b1580156200286257600080fd5b505af115801562002877573d6000803e3d6000fd5b505050506040513d601f19601f820116820180604052508101906200289d91906200335e565b90506103e8620028ac6200091b565b620028b8908362003de5565b620028c4919062003dc1565b9550620028d66301e133808762003dc1565b94506000620028e6868662003de5565b4260a055609e549091506200290590600160a060020a031685620025cd565b620029118382620025cd565b50505050505050565b600160a060020a038216620029465760405160e560020a62461bcd028152600401620008ba90620039e9565b620029548260008362002c0c565b600160a060020a03821660009081526033602052604090205481811015620029935760405160e560020a62461bcd028152600401620008ba9062003595565b600160a060020a0383166000908152603360205260408120838303905560358054849290620029c490849062003e07565b9091555050604051600090600160a060020a038516907fddf252ad1be2c89b69c2b068fc378daa952ba7f163c4a11628f55a4df523b3ef9062002a099086906200347a565b60405180910390a3620023678360008462002367565b62002a3382600160a060020a031662002f97565b1562002bd55773c02aaa39b223fe8d0a0e5c4f27ead9083c756cc2600160a060020a031663d0e30db0826040518263ffffffff1660e060020a0281526004016000604051808303818588803b15801562002a8c57600080fd5b505af115801562002aa1573d6000803e3d6000fd5b50506040517f70a0823100000000000000000000000000000000000000000000000000000000815273c02aaa39b223fe8d0a0e5c4f27ead9083c756cc2935063a9059cbb925085915083906370a082319062002b02903090600401620033c5565b60206040518083038186803b15801562002b1b57600080fd5b505afa15801562002b30573d6000803e3d6000fd5b505050506040513d601f19601f8201168201806040525081019062002b5691906200335e565b6040518363ffffffff1660e060020a02815260040162002b78929190620033fd565b602060405180830381600087803b15801562002b9357600080fd5b505af115801562002ba8573d6000803e3d6000fd5b505050506040513d601f19601f8201168201806040525081019062002bce919062003323565b50620026a5565b604051600160a060020a0383169082156108fc029083906000818181858888f1935050505015801562002367573d6000803e3d6000fd5b8062002c188462001676565b141562002c9f5760a4546040517f89afcb44000000000000000000000000000000000000000000000000000000008152600160a060020a03909116906389afcb449062002c6a908690600401620033c5565b600060405180830381600087803b15801562002c8557600080fd5b505af115801562002c9a573d6000803e3d6000fd5b505050505b62002caa8262001676565b62002d2f5760a4546040517f6a627842000000000000000000000000000000000000000000000000000000008152600160a060020a0390911690636a6278429062002cfa908590600401620033c5565b600060405180830381600087803b15801562002d1557600080fd5b505af115801562002d2a573d6000803e3d6000fd5b505050505b600160a060020a0383161580159062002d7757506000609d5460a060020a900460ff16600381111562002d755760e060020a634e487b7102600052602160045260246000fd5b145b156200236757600160a060020a03808416600090815260a3602052604080822054928516825290205480821462002e69578062002df3578260a2600082825462002dc2919062003e07565b9091555062002dd49050828462003de5565b609b600082825462002de7919062003e07565b9091555062002e699050565b8162002e32578260a2600082825462002e0d919062003da6565b9091555062002e1f9050818462003de5565b609b600082825462002de7919062003da6565b62002e3e828462003de5565b62002e4a828562003de5565b609b5462002e59919062003da6565b62002e65919062003e07565b609b555b5050505050565b600054610100900460ff168062002e8a575060005460ff16155b62002eac5760405160e560020a62461bcd028152600401620008ba9062003864565b600054610100900460ff16158015620025b7576000805460ff1961ff0019909116610100171660011790558015620025ca576000805461ff001916905550565b600054610100900460ff168062002f06575060005460ff16155b62002f285760405160e560020a62461bcd028152600401620008ba9062003864565b600054610100900460ff1615801562002f54576000805460ff1961ff0019909116610100171660011790555b825162002f6990603690602086019062002fab565b50815162002f7f90603790602085019062002fab565b50801562002367576000805461ff0019169055505050565b3b151590565b6112b58062003eaa83390190565b82805462002fb99062003e21565b90600052602060002090601f01602090048101928262002fdd576000855562003028565b82601f1062002ff857805160ff191683800117855562003028565b8280016001018555821562003028579182015b82811115620030285782518255916020019190600101906200300b565b50620030369291506200303a565b5090565b5b808211156200303657600081556001016200303b565b600067ffffffffffffffff808411156200306f576200306f62003e7a565b604051601f8501601f19908116603f011681019082821181831017156200309a576200309a62003e7a565b81604052809350858152868686011115620030b457600080fd5b858560208301376000602087830101525050509392505050565b600082601f830112620030df578081fd5b620030f08383356020850162003051565b9392505050565b60006020828403121562003109578081fd5b8135620030f08162003e93565b60006020828403121562003128578081fd5b8151620030f08162003e93565b6000806040838503121562003148578081fd5b8235620031558162003e93565b91506020830135620031678162003e93565b809150509250929050565b60008060006060848603121562003187578081fd5b8335620031948162003e93565b92506020840135620031a68162003e93565b929592945050506040919091013590565b60008060008060808587031215620031cd578081fd5b8435620031da8162003e93565b93506020850135620031ec8162003e93565b925060408501359150606085013567ffffffffffffffff8111156200320f578182fd5b8501601f8101871362003220578182fd5b620032318782356020840162003051565b91505092959194509250565b600080600080600080600080610100898b0312156200325a578384fd5b8835620032678162003e93565b97506020890135620032798162003e93565b965060408901359550606089013594506080890135935060a0890135925060c089013567ffffffffffffffff80821115620032b2578384fd5b620032c08c838d01620030ce565b935060e08b0135915080821115620032d6578283fd5b50620032e58b828c01620030ce565b9150509295985092959890939650565b6000806040838503121562003308578182fd5b8235620033158162003e93565b946020939093013593505050565b60006020828403121562003335578081fd5b81518015158114620030f0578182fd5b60006020828403121562003357578081fd5b5035919050565b60006020828403121562003370578081fd5b5051919050565b60008151808452815b818110156200339e5760208185018101518683018201520162003380565b81811115620033b05782602083870101525b50601f01601f19169290920160200192915050565b600160a060020a0391909116815260200190565b600160a060020a039384168152919092166020820152604081019190915260600190565b600160a060020a03929092168252602082015260400190565b901515815260200190565b7fffffffff0000000000000000000000000000000000000000000000000000000091909116815260200190565b6020810160048310620034745760e060020a634e487b7102600052602160045260246000fd5b91905290565b90815260200190565b600060208252620030f0602083018462003377565b600060408252620034ad604083018562003377565b8281036020840152620034c1818562003377565b95945050505050565b60208082526023908201527f45524332303a207472616e7366657220746f20746865207a65726f206164647260408201527f6573730000000000000000000000000000000000000000000000000000000000606082015260800190565b60208082526017908201527f73746172743a6e6f2061756374696f6e20737461727473000000000000000000604082015260600190565b6020808252601c908201527f7570646174653a7265736572766520707269636520746f6f206c6f7700000000604082015260600190565b60208082526022908201527f45524332303a206275726e20616d6f756e7420657863656564732062616c616e60408201527f6365000000000000000000000000000000000000000000000000000000000000606082015260800190565b60208082526022908201527f45524332303a20617070726f766520746f20746865207a65726f20616464726560408201527f7373000000000000000000000000000000000000000000000000000000000000606082015260800190565b60208082526017908201527f6269643a61756374696f6e206973206e6f74206c697665000000000000000000604082015260600190565b6020808252601a908201527f636173683a6e6f20746f6b656e7320746f2063617368206f7574000000000000604082015260600190565b60208082526013908201527f72656465656d3a6e6f2072656465656d696e6700000000000000000000000000604082015260600190565b6020808252600c908201527f6b69636b3a6e6f7420676f760000000000000000000000000000000000000000604082015260600190565b60208082526026908201527f45524332303a207472616e7366657220616d6f756e742065786365656473206260408201527f616c616e63650000000000000000000000000000000000000000000000000000606082015260800190565b60208082526011908201527f73746172743a746f6f206c6f7720626964000000000000000000000000000000604082015260600190565b60208082526010908201527f656e643a61756374696f6e206c69766500000000000000000000000000000000604082015260600190565b60208082526017908201527f73746172743a6e6f7420656e6f75676820766f74657273000000000000000000604082015260600190565b60208082526012908201527f7570646174653a6e6f742063757261746f720000000000000000000000000000604082015260600190565b6020808252602e908201527f496e697469616c697a61626c653a20636f6e747261637420697320616c72656160408201527f647920696e697469616c697a6564000000000000000000000000000000000000606082015260800190565b6020808252601d908201527f7570646174653a696e76616c69642061756374696f6e206c656e677468000000604082015260600190565b60208082526028908201527f45524332303a207472616e7366657220616d6f756e742065786365656473206160408201527f6c6c6f77616e6365000000000000000000000000000000000000000000000000606082015260800190565b60208082526011908201527f6269643a61756374696f6e20656e646564000000000000000000000000000000604082015260600190565b60208082526024908201527f7570646174653a63616e6e6f7420696e6372656173652066656520746869732060408201527f6869676800000000000000000000000000000000000000000000000000000000606082015260800190565b60208082526021908201527f45524332303a206275726e2066726f6d20746865207a65726f2061646472657360408201527f7300000000000000000000000000000000000000000000000000000000000000606082015260800190565b60208082526025908201527f45524332303a207472616e736665722066726f6d20746865207a65726f20616460408201527f6472657373000000000000000000000000000000000000000000000000000000606082015260800190565b6020808252600e908201527f72656d6f76653a6e6f7420676f76000000000000000000000000000000000000604082015260600190565b60208082526024908201527f45524332303a20617070726f76652066726f6d20746865207a65726f2061646460408201527f7265737300000000000000000000000000000000000000000000000000000000606082015260800190565b6020808252601c908201527f656e643a7661756c742068617320616c726561647920636c6f73656400000000604082015260600190565b60208082526025908201527f636c61696d3a63616e6e6f7420636c61696d2061667465722061756374696f6e60408201527f20656e6473000000000000000000000000000000000000000000000000000000606082015260800190565b6020808252600f908201527f6269643a746f6f206c6f77206269640000000000000000000000000000000000604082015260600190565b6020808252601d908201527f7570646174653a7265736572766520707269636520746f6f2068696768000000604082015260600190565b60208082526027908201527f7570646174653a61756374696f6e206c6976652063616e6e6f7420757064617460408201527f6520707269636500000000000000000000000000000000000000000000000000606082015260800190565b60208082526014908201527f7570646174653a6e6f7420616e20757064617465000000000000000000000000604082015260600190565b60208082526025908201527f45524332303a2064656372656173656420616c6c6f77616e63652062656c6f7760408201527f207a65726f000000000000000000000000000000000000000000000000000000606082015260800190565b6020808252601f908201527f45524332303a206d696e7420746f20746865207a65726f206164647265737300604082015260600190565b60208082526019908201527f636173683a7661756c74206e6f7420636c6f7365642079657400000000000000604082015260600190565b60ff91909116815260200190565b6000821982111562003dbc5762003dbc62003e61565b500190565b60008262003de05760e060020a634e487b710281526012600452602481fd5b500490565b600081600019048311821515161562003e025762003e0262003e61565b500290565b60008282101562003e1c5762003e1c62003e61565b500390565b60028104600182168062003e3657607f821691505b6020821081141562003e5b5760e060020a634e487b7102600052602260045260246000fd5b50919050565b60e060020a634e487b7102600052601160045260246000fd5b60e060020a634e487b7102600052604160045260246000fd5b600160a060020a0381168114620025ca57600080fdfe60e0604052601b60a08190527f68747470733a2f2f7572692e6672616374696f6e616c2e6172742f000000000060c0908152620000409160079190620001c5565b503480156200004e57600080fd5b50604051620012b5380380620012b583398101604081905262000071916200031e565b815162000086906004906020850190620001c5565b5080516200009c906005906020840190620001c5565b506c010000000000000000000000003302608052620000e47f80ac58cd0000000000000000000000000000000000000000000000000000000064010000000062000120810204565b620001187f5b5e139f0000000000000000000000000000000000000000000000000000000064010000000062000120810204565b505062000441565b7fffffffff00000000000000000000000000000000000000000000000000000000808216141562000188576040517f08c379a00000000000000000000000000000000000000000000000000000000081526004016200017f9062000385565b60405180910390fd5b7fffffffff00000000000000000000000000000000000000000000000000000000166000908152602081905260409020805460ff19166001179055565b828054620001d390620003bc565b90600052602060002090601f016020900481019282620001f7576000855562000242565b82601f106200021257805160ff191683800117855562000242565b8280016001018555821562000242579182015b828111156200024257825182559160200191906001019062000225565b506200025092915062000254565b5090565b5b8082111562000250576000815560010162000255565b600082601f8301126200027c578081fd5b81516001604060020a038082111562000299576200029962000412565b604051601f8301601f19908116603f01168101908282118183101715620002c457620002c462000412565b81604052838152602092508683858801011115620002e0578485fd5b8491505b83821015620003035785820183015181830184015290820190620002e4565b838211156200031457848385830101525b9695505050505050565b6000806040838503121562000331578182fd5b82516001604060020a038082111562000348578384fd5b62000356868387016200026b565b935060208501519150808211156200036c578283fd5b506200037b858286016200026b565b9150509250929050565b6020808252601c908201527f4552433136353a20696e76616c696420696e7465726661636520696400000000604082015260600190565b600281046001821680620003d157607f821691505b602082108114156200040c577f4e487b7100000000000000000000000000000000000000000000000000000000600052602260045260246000fd5b50919050565b7f4e487b7100000000000000000000000000000000000000000000000000000000600052604160045260246000fd5b6080516c010000000000000000000000009004610e3a6200047b60003960008181610367015281816104ce015261067b0152610e3a6000f3fe608060405234801561001057600080fd5b5060043610610128576000357c0100000000000000000000000000000000000000000000000000000000900480636c0360eb116100bf578063a22cb4651161008e578063a22cb46514610217578063b88d4fde14610225578063c87b56dd14610233578063e985e9c514610246578063fbfa77cf1461025957610128565b80636c0360eb146101d457806370a08231146101dc57806389afcb44146101fc57806395d89b411461020f57610128565b806323b872dd116100fb57806323b872dd146101a057806342842e0e146101a05780636352211e146101ae5780636a627842146101c157610128565b806301ffc9a71461012d57806306fdde0314610156578063081812fc1461016b578063095ea7b31461018b575b600080fd5b61014061013b366004610b44565b610261565b60405161014d9190610bdc565b60405180910390f35b61015e6102ad565b60405161014d9190610be7565b61017e610179366004610b81565b61033b565b60405161014d9190610bc8565b61019e610199366004610b1b565b610128565b005b61019e6101993660046109d1565b61017e6101bc366004610b81565b610341565b61019e6101cf36600461097e565b61035c565b61015e6103b5565b6101ef6101ea36600461097e565b610447565b60405161014d9190610cd4565b61019e61020a36600461097e565b6104c3565b61015e610501565b61019e610199366004610ae1565b61019e610199366004610a0c565b61015e610241366004610b81565b610514565b61014061025436600461099f565b610671565b61017e610679565b600061026c8261069d565b806102a557507bffffffffffffffffffffffffffffffffffffffffffffffffffffffff19821660009081526020819052604090205460ff165b90505b919050565b600480546102ba90610d4c565b80601f01602080910402602001604051908101604052809291908181526020018280546102e690610d4c565b80156103335780601f1061030857610100808354040283529160200191610333565b820191906000526020600020905b81548152906001019060200180831161031657829003601f168201915b505050505081565b50600090565b600090815260036020526040902054600160a060020a031690565b33600160a060020a037f0000000000000000000000000000000000000000000000000000000000000000161461039157600080fd5b600180549060006103a183610d8a565b91905055506103b2816001546106e4565b50565b6060600780546103c490610d4c565b80601f01602080910402602001604051908101604052809291908181526020018280546103f090610d4c565b801561043d5780601f106104125761010080835404028352916020019161043d565b820191906000526020600020905b81548152906001019060200180831161042057829003601f168201915b5050505050905090565b6000600160a060020a038216610492576040517f08c379a000000000000000000000000000000000000000000000000000000000815260040161048990610c1a565b60405180910390fd5b600160a060020a038216600090815260026020526040902054156104b75760016104ba565b60005b60ff1692915050565b33600160a060020a037f000000000000000000000000000000000000000000000000000000000000000016146104f857600080fd5b6103b281610758565b600580546102ba90610d4c565b50505050565b606061051f826107ce565b610555576040517f08c379a000000000000000000000000000000000000000000000000000000000815260040161048990610c77565b6000828152600660205260408120805461056e90610d4c565b80601f016020809104026020016040519081016040528092919081815260200182805461059a90610d4c565b80156105e75780601f106105bc576101008083540402835291602001916105e7565b820191906000526020600020905b8154815290600101906020018083116105ca57829003601f168201915b5050505050905060006105f86103b5565b905080516000141561060c575090506102a8565b81511561063e578082604051602001610626929190610b99565b604051602081830303815290604052925050506102a8565b80610648856107eb565b604051602001610659929190610b99565b60405160208183030381529060405292505050919050565b600092915050565b7f000000000000000000000000000000000000000000000000000000000000000081565b7bffffffffffffffffffffffffffffffffffffffffffffffffffffffff1981167f01ffc9a70000000000000000000000000000000000000000000000000000000014919050565b600160a060020a03821660008181526002602090815260408083208590558483526003909152808220805473ffffffffffffffffffffffffffffffffffffffff19168417905551839291907fddf252ad1be2c89b69c2b068fc378daa952ba7f163c4a11628f55a4df523b3ef908290a45050565b600160a060020a03811660008181526002602090815260408083208054908490558084526003909252808320805473ffffffffffffffffffffffffffffffffffffffff191690555190928392917fddf252ad1be2c89b69c2b068fc378daa952ba7f163c4a11628f55a4df523b3ef908390a45050565b600090815260036020526040902054600160a060020a0316151590565b60608161082c575060408051808201909152600181527f300000000000000000000000000000000000000000000000000000000000000060208201526102a8565b8160005b8115610856578061084081610d8a565b915061084f9050600a83610cf5565b9150610830565b60008167ffffffffffffffff8111156108825760e060020a634e487b7102600052604160045260246000fd5b6040519080825280601f01601f1916602001820160405280156108ac576020820181803683370190505b5090505b841561095f576108c1600183610d09565b91506108ce600a86610da5565b6108d9906030610cdd565b7f01000000000000000000000000000000000000000000000000000000000000000281838151811061091e5760e060020a634e487b7102600052603260045260246000fd5b60200101907effffffffffffffffffffffffffffffffffffffffffffffffffffffffffffff1916908160001a905350610958600a86610cf5565b94506108b0565b949350505050565b8035600160a060020a03811681146102a857600080fd5b60006020828403121561098f578081fd5b61099882610967565b9392505050565b600080604083850312156109b1578081fd5b6109ba83610967565b91506109c860208401610967565b90509250929050565b6000806000606084860312156109e5578081fd5b6109ee84610967565b92506109fc60208501610967565b9150604084013590509250925092565b60008060008060808587031215610a21578081fd5b610a2a85610967565b9350610a3860208601610967565b925060408501359150606085013567ffffffffffffffff80821115610a5b578283fd5b818701915087601f830112610a6e578283fd5b813581811115610a8057610a80610deb565b604051601f8201601f19908116603f01168101908382118183101715610aa857610aa8610deb565b816040528281528a6020848701011115610ac0578586fd5b82602086016020830137918201602001949094529598949750929550505050565b60008060408385031215610af3578182fd5b610afc83610967565b915060208301358015158114610b10578182fd5b809150509250929050565b60008060408385031215610b2d578182fd5b610b3683610967565b946020939093013593505050565b600060208284031215610b55578081fd5b81357bffffffffffffffffffffffffffffffffffffffffffffffffffffffff1981168114610998578182fd5b600060208284031215610b92578081fd5b5035919050565b60008351610bab818460208801610d20565b835190830190610bbf818360208801610d20565b01949350505050565b600160a060020a0391909116815260200190565b901515815260200190565b6000602082528251806020840152610c06816040850160208701610d20565b601f01601f19169190910160400192915050565b6020808252602a908201527f4552433732313a2062616c616e636520717565727920666f7220746865207a6560408201527f726f206164647265737300000000000000000000000000000000000000000000606082015260800190565b6020808252602f908201527f4552433732314d657461646174613a2055524920717565727920666f72206e6f60408201527f6e6578697374656e7420746f6b656e0000000000000000000000000000000000606082015260800190565b90815260200190565b60008219821115610cf057610cf0610db9565b500190565b600082610d0457610d04610dd2565b500490565b600082821015610d1b57610d1b610db9565b500390565b60005b83811015610d3b578181015183820152602001610d23565b8381111561050e5750506000910152565b600281046001821680610d6057607f821691505b60208210811415610d845760e060020a634e487b7102600052602260045260246000fd5b50919050565b6000600019821415610d9e57610d9e610db9565b5060010190565b600082610db457610db4610dd2565b500690565b60e060020a634e487b7102600052601160045260246000fd5b60e060020a634e487b7102600052601260045260246000fd5b60e060020a634e487b7102600052604160045260246000fdfea2646970667358221220cb9d68c4c3bd228480ba98f4b28c2b98075a1f2d0b38da591910df9ef3894c5964736f6c63430008010033a2646970667358221220c058ca9445c1fca7365d4346ea0222535e578161b05769386380c97d5d4063bc64736f6c63430008010033",
  "immutableReferences": {
    "4718": [
      {
        "length": 32,
        "start": 1382
      }
    ],
    "4721": [
      {
        "length": 32,
        "start": 945
      },
      {
        "length": 32,
        "start": 1346
      }
    ]
  },
  "source": "//SPDX-License-Identifier: MIT\npragma solidity ^0.8.0;\n\nimport \"@openzeppelin/contracts/access/Ownable.sol\";\nimport \"@openzeppelin/contracts/security/Pausable.sol\";\nimport \"@openzeppelin/contracts/token/ERC721/ERC721.sol\";\nimport \"@openzeppelin/contracts/token/ERC721/utils/ERC721Holder.sol\";\n\nimport \"./InitializedProxy.sol\";\nimport \"./Settings.sol\";\nimport \"./ERC721TokenVault.sol\";\n\ncontract ERC721VaultFactory is Ownable, Pausable {\n    /// @notice the number of ERC721 vaults\n    uint256 public vaultCount;\n\n    /// @notice the mapping of vault number to vault contract\n    mapping(uint256 => address) public vaults;\n\n    /// @notice a settings contract controlled by governance\n    address public immutable settings;\n    /// @notice the TokenVault logic contract\n    address public immutable logic;\n\n    event Mint(\n        address indexed token,\n        uint256 id,\n        uint256 price,\n        address vault,\n        uint256 vaultId\n    );\n\n    constructor(address _settings) {\n        settings = _settings;\n        logic = address(new TokenVault(_settings));\n    }\n\n    /// @notice the function to mint a new vault\n    /// @param _name the desired name of the vault\n    /// @param _symbol the desired sumbol of the vault\n    /// @param _token the ERC721 token address fo the NFT\n    /// @param _id the uint256 ID of the token\n    /// @param _listPrice the initial price of the NFT\n    /// @return the ID of the vault\n    function mint(\n        string memory _name,\n        string memory _symbol,\n        address _token,\n        uint256 _id,\n        uint256 _supply,\n        uint256 _listPrice,\n        uint256 _fee\n    ) external whenNotPaused returns (uint256) {\n        bytes memory _initializationCalldata = abi.encodeWithSignature(\n            \"initialize(address,address,uint256,uint256,uint256,uint256,string,string)\",\n            msg.sender,\n            _token,\n            _id,\n            _supply,\n            _listPrice,\n            _fee,\n            _name,\n            _symbol\n        );\n\n        address vault = address(\n            new InitializedProxy(logic, _initializationCalldata)\n        );\n\n        emit Mint(_token, _id, _listPrice, vault, vaultCount);\n\n        IERC721(_token).safeTransferFrom(msg.sender, vault, _id);\n\n        vaults[vaultCount] = vault;\n        vaultCount++;\n\n        return vaultCount - 1;\n    }\n\n    function pause() external onlyOwner {\n        _pause();\n    }\n\n    function unpause() external onlyOwner {\n        _unpause();\n    }\n}\n",
  "sourcePath": "/Users/angelsatorresalmenara/Privi-Polygon/privi-nft-fractionalize/contracts/ERC721VaultFactory.sol",
  "compiler": {
    "name": "solc",
    "version": "0.8.1+commit.df193b15.Emscripten.clang"
  },
  "schemaVersion": "3.4.2",
  "updatedAt": "2021-09-02T09:31:34.264Z",
  "networkType": "ethereum",
  "devdoc": {
    "kind": "dev",
    "methods": {
      "mint(string,string,address,uint256,uint256,uint256,uint256)": {
        "params": {
          "_id": "the uint256 ID of the token",
          "_listPrice": "the initial price of the NFT",
          "_name": "the desired name of the vault",
          "_symbol": "the desired sumbol of the vault",
          "_token": "the ERC721 token address fo the NFT"
        },
        "returns": {
          "_0": "the ID of the vault"
        }
      },
      "owner()": {
        "details": "Returns the address of the current owner."
      },
      "paused()": {
        "details": "Returns true if the contract is paused, and false otherwise."
      },
      "renounceOwnership()": {
        "details": "Leaves the contract without owner. It will not be possible to call `onlyOwner` functions anymore. Can only be called by the current owner. NOTE: Renouncing ownership will leave the contract without an owner, thereby removing any functionality that is only available to the owner."
      },
      "transferOwnership(address)": {
        "details": "Transfers ownership of the contract to a new account (`newOwner`). Can only be called by the current owner."
      }
    },
    "version": 1
  },
  "userdoc": {
    "kind": "user",
    "methods": {
      "logic()": {
        "notice": "the TokenVault logic contract"
      },
      "mint(string,string,address,uint256,uint256,uint256,uint256)": {
        "notice": "the function to mint a new vault"
      },
      "settings()": {
        "notice": "a settings contract controlled by governance"
      },
      "vaultCount()": {
        "notice": "the number of ERC721 vaults"
      },
      "vaults(uint256)": {
        "notice": "the mapping of vault number to vault contract"
      }
    },
    "version": 1
  }
}