{
  "contractName": "ERC721WithRoyalty",
  "abi": [
    {
      "inputs": [],
      "stateMutability": "nonpayable",
      "type": "constructor"
    },
    {
      "anonymous": false,
      "inputs": [
        {
          "indexed": true,
          "internalType": "address",
          "name": "owner",
          "type": "address"
        },
        {
          "indexed": true,
          "internalType": "address",
          "name": "approved",
          "type": "address"
        },
        {
          "indexed": true,
          "internalType": "uint256",
          "name": "tokenId",
          "type": "uint256"
        }
      ],
      "name": "Approval",
      "type": "event"
    },
    {
      "anonymous": false,
      "inputs": [
        {
          "indexed": true,
          "internalType": "address",
          "name": "owner",
          "type": "address"
        },
        {
          "indexed": true,
          "internalType": "address",
          "name": "operator",
          "type": "address"
        },
        {
          "indexed": false,
          "internalType": "bool",
          "name": "approved",
          "type": "bool"
        }
      ],
      "name": "ApprovalForAll",
      "type": "event"
    },
    {
      "anonymous": false,
      "inputs": [
        {
          "indexed": true,
          "internalType": "address",
          "name": "from",
          "type": "address"
        },
        {
          "indexed": true,
          "internalType": "address",
          "name": "to",
          "type": "address"
        },
        {
          "indexed": true,
          "internalType": "uint256",
          "name": "tokenId",
          "type": "uint256"
        }
      ],
      "name": "Transfer",
      "type": "event"
    },
    {
      "inputs": [
        {
          "internalType": "address",
          "name": "to",
          "type": "address"
        },
        {
          "internalType": "uint256",
          "name": "tokenId",
          "type": "uint256"
        }
      ],
      "name": "approve",
      "outputs": [],
      "stateMutability": "nonpayable",
      "type": "function"
    },
    {
      "inputs": [
        {
          "internalType": "address",
          "name": "owner",
          "type": "address"
        }
      ],
      "name": "balanceOf",
      "outputs": [
        {
          "internalType": "uint256",
          "name": "",
          "type": "uint256"
        }
      ],
      "stateMutability": "view",
      "type": "function"
    },
    {
      "inputs": [
        {
          "internalType": "uint256",
          "name": "tokenId",
          "type": "uint256"
        }
      ],
      "name": "getApproved",
      "outputs": [
        {
          "internalType": "address",
          "name": "",
          "type": "address"
        }
      ],
      "stateMutability": "view",
      "type": "function"
    },
    {
      "inputs": [
        {
          "internalType": "address",
          "name": "owner",
          "type": "address"
        },
        {
          "internalType": "address",
          "name": "operator",
          "type": "address"
        }
      ],
      "name": "isApprovedForAll",
      "outputs": [
        {
          "internalType": "bool",
          "name": "",
          "type": "bool"
        }
      ],
      "stateMutability": "view",
      "type": "function"
    },
    {
      "inputs": [
        {
          "internalType": "uint256",
          "name": "tokenId",
          "type": "uint256"
        }
      ],
      "name": "ownerOf",
      "outputs": [
        {
          "internalType": "address",
          "name": "",
          "type": "address"
        }
      ],
      "stateMutability": "view",
      "type": "function"
    },
    {
      "inputs": [],
      "name": "royaltyPercentage",
      "outputs": [
        {
          "internalType": "uint256",
          "name": "",
          "type": "uint256"
        }
      ],
      "stateMutability": "view",
      "type": "function"
    },
    {
      "inputs": [],
      "name": "royaltyReceiver",
      "outputs": [
        {
          "internalType": "address",
          "name": "",
          "type": "address"
        }
      ],
      "stateMutability": "view",
      "type": "function"
    },
    {
      "inputs": [
        {
          "internalType": "address",
          "name": "from",
          "type": "address"
        },
        {
          "internalType": "address",
          "name": "to",
          "type": "address"
        },
        {
          "internalType": "uint256",
          "name": "tokenId",
          "type": "uint256"
        }
      ],
      "name": "safeTransferFrom",
      "outputs": [],
      "stateMutability": "nonpayable",
      "type": "function"
    },
    {
      "inputs": [
        {
          "internalType": "address",
          "name": "from",
          "type": "address"
        },
        {
          "internalType": "address",
          "name": "to",
          "type": "address"
        },
        {
          "internalType": "uint256",
          "name": "tokenId",
          "type": "uint256"
        },
        {
          "internalType": "bytes",
          "name": "_data",
          "type": "bytes"
        }
      ],
      "name": "safeTransferFrom",
      "outputs": [],
      "stateMutability": "nonpayable",
      "type": "function"
    },
    {
      "inputs": [
        {
          "internalType": "address",
          "name": "operator",
          "type": "address"
        },
        {
          "internalType": "bool",
          "name": "approved",
          "type": "bool"
        }
      ],
      "name": "setApprovalForAll",
      "outputs": [],
      "stateMutability": "nonpayable",
      "type": "function"
    },
    {
      "inputs": [
        {
          "internalType": "uint256",
          "name": "tokenId",
          "type": "uint256"
        }
      ],
      "name": "tokenURI",
      "outputs": [
        {
          "internalType": "string",
          "name": "",
          "type": "string"
        }
      ],
      "stateMutability": "view",
      "type": "function"
    },
    {
      "inputs": [
        {
          "internalType": "address",
          "name": "from",
          "type": "address"
        },
        {
          "internalType": "address",
          "name": "to",
          "type": "address"
        },
        {
          "internalType": "uint256",
          "name": "tokenId",
          "type": "uint256"
        }
      ],
      "name": "transferFrom",
      "outputs": [],
      "stateMutability": "nonpayable",
      "type": "function"
    },
    {
      "inputs": [
        {
          "internalType": "string",
          "name": "_name",
          "type": "string"
        },
        {
          "internalType": "string",
          "name": "_symbol",
          "type": "string"
        },
        {
          "internalType": "address",
          "name": "_royaltyReceiver",
          "type": "address"
        },
        {
          "internalType": "uint256",
          "name": "_royaltyPercentage",
          "type": "uint256"
        }
      ],
      "name": "initialize",
      "outputs": [],
      "stateMutability": "nonpayable",
      "type": "function"
    },
    {
      "inputs": [],
      "name": "baseURI",
      "outputs": [
        {
          "internalType": "string",
          "name": "",
          "type": "string"
        }
      ],
      "stateMutability": "view",
      "type": "function"
    },
    {
      "inputs": [
        {
          "internalType": "uint256",
          "name": "tokenId",
          "type": "uint256"
        }
      ],
      "name": "exists",
      "outputs": [
        {
          "internalType": "bool",
          "name": "",
          "type": "bool"
        }
      ],
      "stateMutability": "view",
      "type": "function"
    },
    {
      "inputs": [
        {
          "internalType": "address",
          "name": "to",
          "type": "address"
        },
        {
          "internalType": "uint256",
          "name": "tokenId",
          "type": "uint256"
        }
      ],
      "name": "mint",
      "outputs": [],
      "stateMutability": "nonpayable",
      "type": "function"
    },
    {
      "inputs": [
        {
          "internalType": "address",
          "name": "to",
          "type": "address"
        },
        {
          "internalType": "uint256",
          "name": "tokenId",
          "type": "uint256"
        },
        {
          "internalType": "bytes",
          "name": "_data",
          "type": "bytes"
        }
      ],
      "name": "safeMint",
      "outputs": [],
      "stateMutability": "nonpayable",
      "type": "function"
    },
    {
      "inputs": [
        {
          "internalType": "address",
          "name": "to",
          "type": "address"
        },
        {
          "internalType": "uint256",
          "name": "tokenId",
          "type": "uint256"
        }
      ],
      "name": "safeMint",
      "outputs": [],
      "stateMutability": "nonpayable",
      "type": "function"
    },
    {
      "inputs": [
        {
          "internalType": "uint256",
          "name": "tokenId",
          "type": "uint256"
        }
      ],
      "name": "burn",
      "outputs": [],
      "stateMutability": "nonpayable",
      "type": "function"
    },
    {
      "inputs": [
        {
          "internalType": "bytes4",
          "name": "interfaceId",
          "type": "bytes4"
        }
      ],
      "name": "supportsInterface",
      "outputs": [
        {
          "internalType": "bool",
          "name": "",
          "type": "bool"
        }
      ],
      "stateMutability": "view",
      "type": "function"
    },
    {
      "inputs": [
        {
          "internalType": "uint256",
          "name": "",
          "type": "uint256"
        },
        {
          "internalType": "uint256",
          "name": "salePrice",
          "type": "uint256"
        }
      ],
      "name": "royaltyInfo",
      "outputs": [
        {
          "internalType": "address",
          "name": "",
          "type": "address"
        },
        {
          "internalType": "uint256",
          "name": "",
          "type": "uint256"
        }
      ],
      "stateMutability": "view",
      "type": "function"
    },
    {
      "inputs": [],
      "name": "name",
      "outputs": [
        {
          "internalType": "string",
          "name": "",
          "type": "string"
        }
      ],
      "stateMutability": "view",
      "type": "function"
    },
    {
      "inputs": [],
      "name": "symbol",
      "outputs": [
        {
          "internalType": "string",
          "name": "",
          "type": "string"
        }
      ],
      "stateMutability": "view",
      "type": "function"
    }
  ],
  "bytecode": "0x60806040523480156200001157600080fd5b50604051806020016040528060008152506040518060200160405280600081525081600090805190602001906200004a9291906200006c565b508060019080519060200190620000639291906200006c565b50505062000181565b8280546200007a906200011c565b90600052602060002090601f0160209004810192826200009e5760008555620000ea565b82601f10620000b957805160ff1916838001178555620000ea565b82800160010185558215620000ea579182015b82811115620000e9578251825591602001919060010190620000cc565b5b509050620000f99190620000fd565b5090565b5b8082111562000118576000816000905550600101620000fe565b5090565b600060028204905060018216806200013557607f821691505b602082108114156200014c576200014b62000152565b5b50919050565b7f4e487b7100000000000000000000000000000000000000000000000000000000600052602260045260246000fd5b61300a80620001916000396000f3fe608060405234801561001057600080fd5b506004361061014d5760003560e01c80636c0360eb116100c3578063a14481941161007c578063a1448194146103b1578063a22cb465146103cd578063b88d4fde146103e9578063c87b56dd14610405578063e985e9c514610435578063f542033f146104655761014d565b80636c0360eb146102ed57806370a082311461030b5780638832e6e31461033b5780638a71bb2d1461035757806395d89b41146103755780639fbc8713146103935761014d565b80632a55205a116101155780632a55205a1461020857806340c10f191461023957806342842e0e1461025557806342966c68146102715780634f558e791461028d5780636352211e146102bd5761014d565b806301ffc9a71461015257806306fdde0314610182578063081812fc146101a0578063095ea7b3146101d057806323b872dd146101ec575b600080fd5b61016c60048036038101906101679190611f98565b610481565b604051610179919061248f565b60405180910390f35b61018a6104fb565b60405161019791906124aa565b60405180910390f35b6101ba60048036038101906101b59190612091565b61058d565b6040516101c791906123ff565b60405180910390f35b6101ea60048036038101906101e59190611ee9565b610612565b005b61020660048036038101906102019190611dd3565b61072a565b005b610222600480360381019061021d91906120be565b61078a565b604051610230929190612466565b60405180910390f35b610253600480360381019061024e9190611ee9565b6107d5565b005b61026f600480360381019061026a9190611dd3565b6107e3565b005b61028b60048036038101906102869190612091565b610803565b005b6102a760048036038101906102a29190612091565b61080f565b6040516102b4919061248f565b60405180910390f35b6102d760048036038101906102d29190612091565b610821565b6040516102e491906123ff565b60405180910390f35b6102f56108d3565b60405161030291906124aa565b60405180910390f35b61032560048036038101906103209190611d66565b6108e2565b60405161033291906126ac565b60405180910390f35b61035560048036038101906103509190611f29565b61099a565b005b61035f6109aa565b60405161036c91906126ac565b60405180910390f35b61037d6109b0565b60405161038a91906124aa565b60405180910390f35b61039b610a42565b6040516103a891906123ff565b60405180910390f35b6103cb60048036038101906103c69190611ee9565b610a68565b005b6103e760048036038101906103e29190611ea9565b610a76565b005b61040360048036038101906103fe9190611e26565b610bf7565b005b61041f600480360381019061041a9190612091565b610c59565b60405161042c91906124aa565b60405180910390f35b61044f600480360381019061044a9190611d93565b610d00565b60405161045c919061248f565b60405180910390f35b61047f600480360381019061047a9190611ff2565b610d94565b005b60007f2a55205a000000000000000000000000000000000000000000000000000000007bffffffffffffffffffffffffffffffffffffffffffffffffffffffff1916827bffffffffffffffffffffffffffffffffffffffffffffffffffffffff191614806104f457506104f382610eec565b5b9050919050565b60606008805461050a9061295c565b80601f01602080910402602001604051908101604052809291908181526020018280546105369061295c565b80156105835780601f1061055857610100808354040283529160200191610583565b820191906000526020600020905b81548152906001019060200180831161056657829003601f168201915b5050505050905090565b600061059882610fce565b6105d7576040517f08c379a00000000000000000000000000000000000000000000000000000000081526004016105ce9061260c565b60405180910390fd5b6004600083815260200190815260200160002060009054906101000a900473ffffffffffffffffffffffffffffffffffffffff169050919050565b600061061d82610821565b90508073ffffffffffffffffffffffffffffffffffffffff168373ffffffffffffffffffffffffffffffffffffffff16141561068e576040517f08c379a00000000000000000000000000000000000000000000000000000000081526004016106859061266c565b60405180910390fd5b8073ffffffffffffffffffffffffffffffffffffffff166106ad61103a565b73ffffffffffffffffffffffffffffffffffffffff1614806106dc57506106db816106d661103a565b610d00565b5b61071b576040517f08c379a00000000000000000000000000000000000000000000000000000000081526004016107129061256c565b60405180910390fd5b6107258383611042565b505050565b61073b61073561103a565b826110fb565b61077a576040517f08c379a00000000000000000000000000000000000000000000000000000000081526004016107719061268c565b60405180910390fd5b6107858383836111d9565b505050565b600080600660029054906101000a900473ffffffffffffffffffffffffffffffffffffffff166064600754856107c09190612818565b6107ca91906127e7565b915091509250929050565b6107df8282611435565b5050565b6107fe83838360405180602001604052806000815250610bf7565b505050565b61080c81611603565b50565b600061081a82610fce565b9050919050565b6000806002600084815260200190815260200160002060009054906101000a900473ffffffffffffffffffffffffffffffffffffffff169050600073ffffffffffffffffffffffffffffffffffffffff168173ffffffffffffffffffffffffffffffffffffffff1614156108ca576040517f08c379a00000000000000000000000000000000000000000000000000000000081526004016108c1906125ac565b60405180910390fd5b80915050919050565b60606108dd611714565b905090565b60008073ffffffffffffffffffffffffffffffffffffffff168273ffffffffffffffffffffffffffffffffffffffff161415610953576040517f08c379a000000000000000000000000000000000000000000000000000000000815260040161094a9061258c565b60405180910390fd5b600360008373ffffffffffffffffffffffffffffffffffffffff1673ffffffffffffffffffffffffffffffffffffffff168152602001908152602001600020549050919050565b6109a583838361172b565b505050565b60075481565b6060600980546109bf9061295c565b80601f01602080910402602001604051908101604052809291908181526020018280546109eb9061295c565b8015610a385780601f10610a0d57610100808354040283529160200191610a38565b820191906000526020600020905b815481529060010190602001808311610a1b57829003601f168201915b5050505050905090565b600660029054906101000a900473ffffffffffffffffffffffffffffffffffffffff1681565b610a728282611786565b5050565b610a7e61103a565b73ffffffffffffffffffffffffffffffffffffffff168273ffffffffffffffffffffffffffffffffffffffff161415610aec576040517f08c379a0000000000000000000000000000000000000000000000000000000008152600401610ae39061252c565b60405180910390fd5b8060056000610af961103a565b73ffffffffffffffffffffffffffffffffffffffff1673ffffffffffffffffffffffffffffffffffffffff16815260200190815260200160002060008473ffffffffffffffffffffffffffffffffffffffff1673ffffffffffffffffffffffffffffffffffffffff16815260200190815260200160002060006101000a81548160ff0219169083151502179055508173ffffffffffffffffffffffffffffffffffffffff16610ba661103a565b73ffffffffffffffffffffffffffffffffffffffff167f17307eab39ab6107e8899845ad3d59bd9653f200f220920489ca2b5937696c3183604051610beb919061248f565b60405180910390a35050565b610c08610c0261103a565b836110fb565b610c47576040517f08c379a0000000000000000000000000000000000000000000000000000000008152600401610c3e9061268c565b60405180910390fd5b610c53848484846117a4565b50505050565b6060610c6482610fce565b610ca3576040517f08c379a0000000000000000000000000000000000000000000000000000000008152600401610c9a9061264c565b60405180910390fd5b6000610cad611714565b90506000815111610ccd5760405180602001604052806000815250610cf8565b80610cd784611800565b604051602001610ce89291906123db565b6040516020818303038152906040525b915050919050565b6000600560008473ffffffffffffffffffffffffffffffffffffffff1673ffffffffffffffffffffffffffffffffffffffff16815260200190815260200160002060008373ffffffffffffffffffffffffffffffffffffffff1673ffffffffffffffffffffffffffffffffffffffff16815260200190815260200160002060009054906101000a900460ff16905092915050565b600660019054906101000a900460ff1680610dbc5750600660009054906101000a900460ff16155b610dfb576040517f08c379a0000000000000000000000000000000000000000000000000000000008152600401610df2906125cc565b60405180910390fd5b6000600660019054906101000a900460ff161590508015610e4d576001600660016101000a81548160ff0219169083151502179055506001600660006101000a81548160ff0219169083151502179055505b8460089080519060200190610e63929190611b7a565b508360099080519060200190610e7a929190611b7a565b5082600660026101000a81548173ffffffffffffffffffffffffffffffffffffffff021916908373ffffffffffffffffffffffffffffffffffffffff160217905550816007819055508015610ee5576000600660016101000a81548160ff0219169083151502179055505b5050505050565b60007f80ac58cd000000000000000000000000000000000000000000000000000000007bffffffffffffffffffffffffffffffffffffffffffffffffffffffff1916827bffffffffffffffffffffffffffffffffffffffffffffffffffffffff19161480610fb757507f5b5e139f000000000000000000000000000000000000000000000000000000007bffffffffffffffffffffffffffffffffffffffffffffffffffffffff1916827bffffffffffffffffffffffffffffffffffffffffffffffffffffffff1916145b80610fc75750610fc682611961565b5b9050919050565b60008073ffffffffffffffffffffffffffffffffffffffff166002600084815260200190815260200160002060009054906101000a900473ffffffffffffffffffffffffffffffffffffffff1673ffffffffffffffffffffffffffffffffffffffff1614159050919050565b600033905090565b816004600083815260200190815260200160002060006101000a81548173ffffffffffffffffffffffffffffffffffffffff021916908373ffffffffffffffffffffffffffffffffffffffff160217905550808273ffffffffffffffffffffffffffffffffffffffff166110b583610821565b73ffffffffffffffffffffffffffffffffffffffff167f8c5be1e5ebec7d5bd14f71427d1e84f3dd0314c0f7b2291e5b200ac8c7c3b92560405160405180910390a45050565b600061110682610fce565b611145576040517f08c379a000000000000000000000000000000000000000000000000000000000815260040161113c9061254c565b60405180910390fd5b600061115083610821565b90508073ffffffffffffffffffffffffffffffffffffffff168473ffffffffffffffffffffffffffffffffffffffff1614806111bf57508373ffffffffffffffffffffffffffffffffffffffff166111a78461058d565b73ffffffffffffffffffffffffffffffffffffffff16145b806111d057506111cf8185610d00565b5b91505092915050565b8273ffffffffffffffffffffffffffffffffffffffff166111f982610821565b73ffffffffffffffffffffffffffffffffffffffff161461124f576040517f08c379a00000000000000000000000000000000000000000000000000000000081526004016112469061262c565b60405180910390fd5b600073ffffffffffffffffffffffffffffffffffffffff168273ffffffffffffffffffffffffffffffffffffffff1614156112bf576040517f08c379a00000000000000000000000000000000000000000000000000000000081526004016112b69061250c565b60405180910390fd5b6112ca8383836119cb565b6112d5600082611042565b6001600360008573ffffffffffffffffffffffffffffffffffffffff1673ffffffffffffffffffffffffffffffffffffffff16815260200190815260200160002060008282546113259190612872565b925050819055506001600360008473ffffffffffffffffffffffffffffffffffffffff1673ffffffffffffffffffffffffffffffffffffffff168152602001908152602001600020600082825461137c9190612791565b92505081905550816002600083815260200190815260200160002060006101000a81548173ffffffffffffffffffffffffffffffffffffffff021916908373ffffffffffffffffffffffffffffffffffffffff160217905550808273ffffffffffffffffffffffffffffffffffffffff168473ffffffffffffffffffffffffffffffffffffffff167fddf252ad1be2c89b69c2b068fc378daa952ba7f163c4a11628f55a4df523b3ef60405160405180910390a4505050565b600073ffffffffffffffffffffffffffffffffffffffff168273ffffffffffffffffffffffffffffffffffffffff1614156114a5576040517f08c379a000000000000000000000000000000000000000000000000000000000815260040161149c906125ec565b60405180910390fd5b6114ae81610fce565b156114ee576040517f08c379a00000000000000000000000000000000000000000000000000000000081526004016114e5906124ec565b60405180910390fd5b6114fa600083836119cb565b6001600360008473ffffffffffffffffffffffffffffffffffffffff1673ffffffffffffffffffffffffffffffffffffffff168152602001908152602001600020600082825461154a9190612791565b92505081905550816002600083815260200190815260200160002060006101000a81548173ffffffffffffffffffffffffffffffffffffffff021916908373ffffffffffffffffffffffffffffffffffffffff160217905550808273ffffffffffffffffffffffffffffffffffffffff16600073ffffffffffffffffffffffffffffffffffffffff167fddf252ad1be2c89b69c2b068fc378daa952ba7f163c4a11628f55a4df523b3ef60405160405180910390a45050565b600061160e82610821565b905061161c816000846119cb565b611627600083611042565b6001600360008373ffffffffffffffffffffffffffffffffffffffff1673ffffffffffffffffffffffffffffffffffffffff16815260200190815260200160002060008282546116779190612872565b925050819055506002600083815260200190815260200160002060006101000a81549073ffffffffffffffffffffffffffffffffffffffff021916905581600073ffffffffffffffffffffffffffffffffffffffff168273ffffffffffffffffffffffffffffffffffffffff167fddf252ad1be2c89b69c2b068fc378daa952ba7f163c4a11628f55a4df523b3ef60405160405180910390a45050565b606060405180602001604052806000815250905090565b6117358383611435565b61174260008484846119d0565b611781576040517f08c379a0000000000000000000000000000000000000000000000000000000008152600401611778906124cc565b60405180910390fd5b505050565b6117a082826040518060200160405280600081525061172b565b5050565b6117af8484846111d9565b6117bb848484846119d0565b6117fa576040517f08c379a00000000000000000000000000000000000000000000000000000000081526004016117f1906124cc565b60405180910390fd5b50505050565b60606000821415611848576040518060400160405280600181526020017f3000000000000000000000000000000000000000000000000000000000000000815250905061195c565b600082905060005b6000821461187a578080611863906129bf565b915050600a8261187391906127e7565b9150611850565b60008167ffffffffffffffff81111561189657611895612af5565b5b6040519080825280601f01601f1916602001820160405280156118c85781602001600182028036833780820191505090505b5090505b60008514611955576001826118e19190612872565b9150600a856118f09190612a08565b60306118fc9190612791565b60f81b81838151811061191257611911612ac6565b5b60200101907effffffffffffffffffffffffffffffffffffffffffffffffffffffffffffff1916908160001a905350600a8561194e91906127e7565b94506118cc565b8093505050505b919050565b60007f01ffc9a7000000000000000000000000000000000000000000000000000000007bffffffffffffffffffffffffffffffffffffffffffffffffffffffff1916827bffffffffffffffffffffffffffffffffffffffffffffffffffffffff1916149050919050565b505050565b60006119f18473ffffffffffffffffffffffffffffffffffffffff16611b67565b15611b5a578373ffffffffffffffffffffffffffffffffffffffff1663150b7a02611a1a61103a565b8786866040518563ffffffff1660e01b8152600401611a3c949392919061241a565b602060405180830381600087803b158015611a5657600080fd5b505af1925050508015611a8757506040513d601f19601f82011682018060405250810190611a849190611fc5565b60015b611b0a573d8060008114611ab7576040519150601f19603f3d011682016040523d82523d6000602084013e611abc565b606091505b50600081511415611b02576040517f08c379a0000000000000000000000000000000000000000000000000000000008152600401611af9906124cc565b60405180910390fd5b805181602001fd5b63150b7a0260e01b7bffffffffffffffffffffffffffffffffffffffffffffffffffffffff1916817bffffffffffffffffffffffffffffffffffffffffffffffffffffffff191614915050611b5f565b600190505b949350505050565b600080823b905060008111915050919050565b828054611b869061295c565b90600052602060002090601f016020900481019282611ba85760008555611bef565b82601f10611bc157805160ff1916838001178555611bef565b82800160010185558215611bef579182015b82811115611bee578251825591602001919060010190611bd3565b5b509050611bfc9190611c00565b5090565b5b80821115611c19576000816000905550600101611c01565b5090565b6000611c30611c2b846126ec565b6126c7565b905082815260208101848484011115611c4c57611c4b612b29565b5b611c5784828561291a565b509392505050565b6000611c72611c6d8461271d565b6126c7565b905082815260208101848484011115611c8e57611c8d612b29565b5b611c9984828561291a565b509392505050565b600081359050611cb081612f78565b92915050565b600081359050611cc581612f8f565b92915050565b600081359050611cda81612fa6565b92915050565b600081519050611cef81612fa6565b92915050565b600082601f830112611d0a57611d09612b24565b5b8135611d1a848260208601611c1d565b91505092915050565b600082601f830112611d3857611d37612b24565b5b8135611d48848260208601611c5f565b91505092915050565b600081359050611d6081612fbd565b92915050565b600060208284031215611d7c57611d7b612b33565b5b6000611d8a84828501611ca1565b91505092915050565b60008060408385031215611daa57611da9612b33565b5b6000611db885828601611ca1565b9250506020611dc985828601611ca1565b9150509250929050565b600080600060608486031215611dec57611deb612b33565b5b6000611dfa86828701611ca1565b9350506020611e0b86828701611ca1565b9250506040611e1c86828701611d51565b9150509250925092565b60008060008060808587031215611e4057611e3f612b33565b5b6000611e4e87828801611ca1565b9450506020611e5f87828801611ca1565b9350506040611e7087828801611d51565b925050606085013567ffffffffffffffff811115611e9157611e90612b2e565b5b611e9d87828801611cf5565b91505092959194509250565b60008060408385031215611ec057611ebf612b33565b5b6000611ece85828601611ca1565b9250506020611edf85828601611cb6565b9150509250929050565b60008060408385031215611f0057611eff612b33565b5b6000611f0e85828601611ca1565b9250506020611f1f85828601611d51565b9150509250929050565b600080600060608486031215611f4257611f41612b33565b5b6000611f5086828701611ca1565b9350506020611f6186828701611d51565b925050604084013567ffffffffffffffff811115611f8257611f81612b2e565b5b611f8e86828701611cf5565b9150509250925092565b600060208284031215611fae57611fad612b33565b5b6000611fbc84828501611ccb565b91505092915050565b600060208284031215611fdb57611fda612b33565b5b6000611fe984828501611ce0565b91505092915050565b6000806000806080858703121561200c5761200b612b33565b5b600085013567ffffffffffffffff81111561202a57612029612b2e565b5b61203687828801611d23565b945050602085013567ffffffffffffffff81111561205757612056612b2e565b5b61206387828801611d23565b935050604061207487828801611ca1565b925050606061208587828801611d51565b91505092959194509250565b6000602082840312156120a7576120a6612b33565b5b60006120b584828501611d51565b91505092915050565b600080604083850312156120d5576120d4612b33565b5b60006120e385828601611d51565b92505060206120f485828601611d51565b9150509250929050565b612107816128a6565b82525050565b612116816128b8565b82525050565b60006121278261274e565b6121318185612764565b9350612141818560208601612929565b61214a81612b38565b840191505092915050565b600061216082612759565b61216a8185612775565b935061217a818560208601612929565b61218381612b38565b840191505092915050565b600061219982612759565b6121a38185612786565b93506121b3818560208601612929565b80840191505092915050565b60006121cc603283612775565b91506121d782612b49565b604082019050919050565b60006121ef601c83612775565b91506121fa82612b98565b602082019050919050565b6000612212602483612775565b915061221d82612bc1565b604082019050919050565b6000612235601983612775565b915061224082612c10565b602082019050919050565b6000612258602c83612775565b915061226382612c39565b604082019050919050565b600061227b603883612775565b915061228682612c88565b604082019050919050565b600061229e602a83612775565b91506122a982612cd7565b604082019050919050565b60006122c1602983612775565b91506122cc82612d26565b604082019050919050565b60006122e4602e83612775565b91506122ef82612d75565b604082019050919050565b6000612307602083612775565b915061231282612dc4565b602082019050919050565b600061232a602c83612775565b915061233582612ded565b604082019050919050565b600061234d602983612775565b915061235882612e3c565b604082019050919050565b6000612370602f83612775565b915061237b82612e8b565b604082019050919050565b6000612393602183612775565b915061239e82612eda565b604082019050919050565b60006123b6603183612775565b91506123c182612f29565b604082019050919050565b6123d581612910565b82525050565b60006123e7828561218e565b91506123f3828461218e565b91508190509392505050565b600060208201905061241460008301846120fe565b92915050565b600060808201905061242f60008301876120fe565b61243c60208301866120fe565b61244960408301856123cc565b818103606083015261245b818461211c565b905095945050505050565b600060408201905061247b60008301856120fe565b61248860208301846123cc565b9392505050565b60006020820190506124a4600083018461210d565b92915050565b600060208201905081810360008301526124c48184612155565b905092915050565b600060208201905081810360008301526124e5816121bf565b9050919050565b60006020820190508181036000830152612505816121e2565b9050919050565b6000602082019050818103600083015261252581612205565b9050919050565b6000602082019050818103600083015261254581612228565b9050919050565b600060208201905081810360008301526125658161224b565b9050919050565b600060208201905081810360008301526125858161226e565b9050919050565b600060208201905081810360008301526125a581612291565b9050919050565b600060208201905081810360008301526125c5816122b4565b9050919050565b600060208201905081810360008301526125e5816122d7565b9050919050565b60006020820190508181036000830152612605816122fa565b9050919050565b600060208201905081810360008301526126258161231d565b9050919050565b6000602082019050818103600083015261264581612340565b9050919050565b6000602082019050818103600083015261266581612363565b9050919050565b6000602082019050818103600083015261268581612386565b9050919050565b600060208201905081810360008301526126a5816123a9565b9050919050565b60006020820190506126c160008301846123cc565b92915050565b60006126d16126e2565b90506126dd828261298e565b919050565b6000604051905090565b600067ffffffffffffffff82111561270757612706612af5565b5b61271082612b38565b9050602081019050919050565b600067ffffffffffffffff82111561273857612737612af5565b5b61274182612b38565b9050602081019050919050565b600081519050919050565b600081519050919050565b600082825260208201905092915050565b600082825260208201905092915050565b600081905092915050565b600061279c82612910565b91506127a783612910565b9250827fffffffffffffffffffffffffffffffffffffffffffffffffffffffffffffffff038211156127dc576127db612a39565b5b828201905092915050565b60006127f282612910565b91506127fd83612910565b92508261280d5761280c612a68565b5b828204905092915050565b600061282382612910565b915061282e83612910565b9250817fffffffffffffffffffffffffffffffffffffffffffffffffffffffffffffffff048311821515161561286757612866612a39565b5b828202905092915050565b600061287d82612910565b915061288883612910565b92508282101561289b5761289a612a39565b5b828203905092915050565b60006128b1826128f0565b9050919050565b60008115159050919050565b60007fffffffff0000000000000000000000000000000000000000000000000000000082169050919050565b600073ffffffffffffffffffffffffffffffffffffffff82169050919050565b6000819050919050565b82818337600083830152505050565b60005b8381101561294757808201518184015260208101905061292c565b83811115612956576000848401525b50505050565b6000600282049050600182168061297457607f821691505b6020821081141561298857612987612a97565b5b50919050565b61299782612b38565b810181811067ffffffffffffffff821117156129b6576129b5612af5565b5b80604052505050565b60006129ca82612910565b91507fffffffffffffffffffffffffffffffffffffffffffffffffffffffffffffffff8214156129fd576129fc612a39565b5b600182019050919050565b6000612a1382612910565b9150612a1e83612910565b925082612a2e57612a2d612a68565b5b828206905092915050565b7f4e487b7100000000000000000000000000000000000000000000000000000000600052601160045260246000fd5b7f4e487b7100000000000000000000000000000000000000000000000000000000600052601260045260246000fd5b7f4e487b7100000000000000000000000000000000000000000000000000000000600052602260045260246000fd5b7f4e487b7100000000000000000000000000000000000000000000000000000000600052603260045260246000fd5b7f4e487b7100000000000000000000000000000000000000000000000000000000600052604160045260246000fd5b600080fd5b600080fd5b600080fd5b600080fd5b6000601f19601f8301169050919050565b7f4552433732313a207472616e7366657220746f206e6f6e20455243373231526560008201527f63656976657220696d706c656d656e7465720000000000000000000000000000602082015250565b7f4552433732313a20746f6b656e20616c7265616479206d696e74656400000000600082015250565b7f4552433732313a207472616e7366657220746f20746865207a65726f2061646460008201527f7265737300000000000000000000000000000000000000000000000000000000602082015250565b7f4552433732313a20617070726f766520746f2063616c6c657200000000000000600082015250565b7f4552433732313a206f70657261746f7220717565727920666f72206e6f6e657860008201527f697374656e7420746f6b656e0000000000000000000000000000000000000000602082015250565b7f4552433732313a20617070726f76652063616c6c6572206973206e6f74206f7760008201527f6e6572206e6f7220617070726f76656420666f7220616c6c0000000000000000602082015250565b7f4552433732313a2062616c616e636520717565727920666f7220746865207a6560008201527f726f206164647265737300000000000000000000000000000000000000000000602082015250565b7f4552433732313a206f776e657220717565727920666f72206e6f6e657869737460008201527f656e7420746f6b656e0000000000000000000000000000000000000000000000602082015250565b7f496e697469616c697a61626c653a20636f6e747261637420697320616c72656160008201527f647920696e697469616c697a6564000000000000000000000000000000000000602082015250565b7f4552433732313a206d696e7420746f20746865207a65726f2061646472657373600082015250565b7f4552433732313a20617070726f76656420717565727920666f72206e6f6e657860008201527f697374656e7420746f6b656e0000000000000000000000000000000000000000602082015250565b7f4552433732313a207472616e73666572206f6620746f6b656e2074686174206960008201527f73206e6f74206f776e0000000000000000000000000000000000000000000000602082015250565b7f4552433732314d657461646174613a2055524920717565727920666f72206e6f60008201527f6e6578697374656e7420746f6b656e0000000000000000000000000000000000602082015250565b7f4552433732313a20617070726f76616c20746f2063757272656e74206f776e6560008201527f7200000000000000000000000000000000000000000000000000000000000000602082015250565b7f4552433732313a207472616e736665722063616c6c6572206973206e6f74206f60008201527f776e6572206e6f7220617070726f766564000000000000000000000000000000602082015250565b612f81816128a6565b8114612f8c57600080fd5b50565b612f98816128b8565b8114612fa357600080fd5b50565b612faf816128c4565b8114612fba57600080fd5b50565b612fc681612910565b8114612fd157600080fd5b5056fea264697066735822122093dfe584699c6bb2a4791b0abd922375ec0a668ee9a13d2cf827ddb785dca97d64736f6c63430008060033",
  "immutableReferences": {},
  "source": "// SPDX-License-Identifier: MIT\r\n\r\npragma solidity ^0.8.6;\r\n\r\nimport \"@openzeppelin/contracts/token/ERC721/ERC721.sol\";\r\nimport \"@openzeppelin/contracts/interfaces/IERC2981.sol\";\r\nimport \"@openzeppelin/contracts/proxy/utils/Initializable.sol\";\r\n\r\ncontract ERC721WithRoyalty is ERC721, IERC2981, Initializable {\r\n    address public royaltyReceiver;\r\n    uint256 public royaltyPercentage;\r\n\r\n    string private _proxiedName;\r\n    string private _proxiedSymbol;\r\n\r\n    // solhint-disable-next-line\r\n    constructor() ERC721(\"\", \"\") {}\r\n\r\n    function initialize(\r\n        string memory _name,\r\n        string memory _symbol,\r\n        address _royaltyReceiver,\r\n        uint256 _royaltyPercentage\r\n    ) external initializer {\r\n        _proxiedName = _name;\r\n        _proxiedSymbol = _symbol;\r\n\r\n        royaltyReceiver = _royaltyReceiver;\r\n        royaltyPercentage = _royaltyPercentage;\r\n    }\r\n\r\n    function baseURI() public view returns (string memory) {\r\n        return _baseURI();\r\n    }\r\n\r\n    function exists(uint256 tokenId) public view returns (bool) {\r\n        return _exists(tokenId);\r\n    }\r\n\r\n    function mint(address to, uint256 tokenId) public {\r\n        _mint(to, tokenId);\r\n    }\r\n\r\n    function safeMint(address to, uint256 tokenId) public {\r\n        _safeMint(to, tokenId);\r\n    }\r\n\r\n    function safeMint(\r\n        address to,\r\n        uint256 tokenId,\r\n        bytes memory _data\r\n    ) public {\r\n        _safeMint(to, tokenId, _data);\r\n    }\r\n\r\n    function burn(uint256 tokenId) public {\r\n        _burn(tokenId);\r\n    }\r\n\r\n    function supportsInterface(bytes4 interfaceId) public view override(ERC721, IERC165) returns (bool) {\r\n        return interfaceId == type(IERC2981).interfaceId || super.supportsInterface(interfaceId);\r\n    }\r\n\r\n    function royaltyInfo(uint256, uint256 salePrice) external view override returns (address, uint256) {\r\n        return (royaltyReceiver, (salePrice * royaltyPercentage) / 100);\r\n    }\r\n\r\n    function name() public view virtual override returns (string memory) {\r\n        return _proxiedName;\r\n    }\r\n\r\n    function symbol() public view virtual override returns (string memory) {\r\n        return _proxiedSymbol;\r\n    }\r\n}\r\n",
  "sourcePath": "/Users/angelsatorresalmenara/Desktop/privi-pod/contracts/implementations/ERC721WithRoyalty.sol",
  "compiler": {
    "name": "solc",
    "version": "0.8.6+commit.11564f7e.Emscripten.clang"
  },
  "schemaVersion": "3.4.3",
  "updatedAt": "2021-09-15T13:47:31.861Z",
  "devdoc": {
    "kind": "dev",
    "methods": {
      "approve(address,uint256)": {
        "details": "See {IERC721-approve}."
      },
      "balanceOf(address)": {
        "details": "See {IERC721-balanceOf}."
      },
      "getApproved(uint256)": {
        "details": "See {IERC721-getApproved}."
      },
      "isApprovedForAll(address,address)": {
        "details": "See {IERC721-isApprovedForAll}."
      },
      "name()": {
        "details": "See {IERC721Metadata-name}."
      },
      "ownerOf(uint256)": {
        "details": "See {IERC721-ownerOf}."
      },
      "safeTransferFrom(address,address,uint256)": {
        "details": "See {IERC721-safeTransferFrom}."
      },
      "safeTransferFrom(address,address,uint256,bytes)": {
        "details": "See {IERC721-safeTransferFrom}."
      },
      "setApprovalForAll(address,bool)": {
        "details": "See {IERC721-setApprovalForAll}."
      },
      "symbol()": {
        "details": "See {IERC721Metadata-symbol}."
      },
      "tokenURI(uint256)": {
        "details": "See {IERC721Metadata-tokenURI}."
      },
      "transferFrom(address,address,uint256)": {
        "details": "See {IERC721-transferFrom}."
      }
    },
    "version": 1
  },
  "userdoc": {
    "kind": "user",
    "methods": {},
    "version": 1
  }
}