{
  "contractName": "FundsManager",
  "abi": [
    {
      "inputs": [
        {
          "internalType": "address",
          "name": "_songsManagerAddress",
          "type": "address"
        },
        {
          "internalType": "address",
          "name": "_traxToken",
          "type": "address"
        },
        {
          "internalType": "address[]",
          "name": "_initialWhitelist",
          "type": "address[]"
        }
      ],
      "stateMutability": "nonpayable",
      "type": "constructor"
    },
    {
      "anonymous": false,
      "inputs": [
        {
          "indexed": true,
          "internalType": "address",
          "name": "previousOwner",
          "type": "address"
        },
        {
          "indexed": true,
          "internalType": "address",
          "name": "newOwner",
          "type": "address"
        }
      ],
      "name": "OwnershipTransferred",
      "type": "event"
    },
    {
      "anonymous": false,
      "inputs": [
        {
          "indexed": true,
          "internalType": "bytes32",
          "name": "role",
          "type": "bytes32"
        },
        {
          "indexed": true,
          "internalType": "bytes32",
          "name": "previousAdminRole",
          "type": "bytes32"
        },
        {
          "indexed": true,
          "internalType": "bytes32",
          "name": "newAdminRole",
          "type": "bytes32"
        }
      ],
      "name": "RoleAdminChanged",
      "type": "event"
    },
    {
      "anonymous": false,
      "inputs": [
        {
          "indexed": true,
          "internalType": "bytes32",
          "name": "role",
          "type": "bytes32"
        },
        {
          "indexed": true,
          "internalType": "address",
          "name": "account",
          "type": "address"
        },
        {
          "indexed": true,
          "internalType": "address",
          "name": "sender",
          "type": "address"
        }
      ],
      "name": "RoleGranted",
      "type": "event"
    },
    {
      "anonymous": false,
      "inputs": [
        {
          "indexed": true,
          "internalType": "bytes32",
          "name": "role",
          "type": "bytes32"
        },
        {
          "indexed": true,
          "internalType": "address",
          "name": "account",
          "type": "address"
        },
        {
          "indexed": true,
          "internalType": "address",
          "name": "sender",
          "type": "address"
        }
      ],
      "name": "RoleRevoked",
      "type": "event"
    },
    {
      "inputs": [],
      "name": "DEFAULT_ADMIN_ROLE",
      "outputs": [
        {
          "internalType": "bytes32",
          "name": "",
          "type": "bytes32"
        }
      ],
      "stateMutability": "view",
      "type": "function",
      "constant": true
    },
    {
      "inputs": [],
      "name": "SONGS_MANAGER",
      "outputs": [
        {
          "internalType": "bytes32",
          "name": "",
          "type": "bytes32"
        }
      ],
      "stateMutability": "view",
      "type": "function",
      "constant": true
    },
    {
      "inputs": [],
      "name": "SONG_CONTRACT",
      "outputs": [
        {
          "internalType": "bytes32",
          "name": "",
          "type": "bytes32"
        }
      ],
      "stateMutability": "view",
      "type": "function",
      "constant": true
    },
    {
      "inputs": [],
      "name": "STAKING",
      "outputs": [
        {
          "internalType": "bytes32",
          "name": "",
          "type": "bytes32"
        }
      ],
      "stateMutability": "view",
      "type": "function",
      "constant": true
    },
    {
      "inputs": [],
      "name": "TRANSFER_STABLECOIN",
      "outputs": [
        {
          "internalType": "bytes32",
          "name": "",
          "type": "bytes32"
        }
      ],
      "stateMutability": "view",
      "type": "function",
      "constant": true
    },
    {
      "inputs": [
        {
          "internalType": "bytes32",
          "name": "role",
          "type": "bytes32"
        }
      ],
      "name": "getRoleAdmin",
      "outputs": [
        {
          "internalType": "bytes32",
          "name": "",
          "type": "bytes32"
        }
      ],
      "stateMutability": "view",
      "type": "function",
      "constant": true
    },
    {
      "inputs": [
        {
          "internalType": "bytes32",
          "name": "role",
          "type": "bytes32"
        },
        {
          "internalType": "address",
          "name": "account",
          "type": "address"
        }
      ],
      "name": "grantRole",
      "outputs": [],
      "stateMutability": "nonpayable",
      "type": "function"
    },
    {
      "inputs": [
        {
          "internalType": "bytes32",
          "name": "role",
          "type": "bytes32"
        },
        {
          "internalType": "address",
          "name": "account",
          "type": "address"
        }
      ],
      "name": "hasRole",
      "outputs": [
        {
          "internalType": "bool",
          "name": "",
          "type": "bool"
        }
      ],
      "stateMutability": "view",
      "type": "function",
      "constant": true
    },
    {
      "inputs": [],
      "name": "owner",
      "outputs": [
        {
          "internalType": "address",
          "name": "",
          "type": "address"
        }
      ],
      "stateMutability": "view",
      "type": "function",
      "constant": true
    },
    {
      "inputs": [],
      "name": "renounceOwnership",
      "outputs": [],
      "stateMutability": "nonpayable",
      "type": "function"
    },
    {
      "inputs": [
        {
          "internalType": "bytes32",
          "name": "role",
          "type": "bytes32"
        },
        {
          "internalType": "address",
          "name": "account",
          "type": "address"
        }
      ],
      "name": "renounceRole",
      "outputs": [],
      "stateMutability": "nonpayable",
      "type": "function"
    },
    {
      "inputs": [
        {
          "internalType": "bytes32",
          "name": "role",
          "type": "bytes32"
        },
        {
          "internalType": "address",
          "name": "account",
          "type": "address"
        }
      ],
      "name": "revokeRole",
      "outputs": [],
      "stateMutability": "nonpayable",
      "type": "function"
    },
    {
      "inputs": [
        {
          "internalType": "uint256",
          "name": "",
          "type": "uint256"
        }
      ],
      "name": "stablecoins",
      "outputs": [
        {
          "internalType": "address",
          "name": "",
          "type": "address"
        }
      ],
      "stateMutability": "view",
      "type": "function",
      "constant": true
    },
    {
      "inputs": [
        {
          "internalType": "bytes4",
          "name": "interfaceId",
          "type": "bytes4"
        }
      ],
      "name": "supportsInterface",
      "outputs": [
        {
          "internalType": "bool",
          "name": "",
          "type": "bool"
        }
      ],
      "stateMutability": "view",
      "type": "function",
      "constant": true
    },
    {
      "inputs": [
        {
          "internalType": "address",
          "name": "newOwner",
          "type": "address"
        }
      ],
      "name": "transferOwnership",
      "outputs": [],
      "stateMutability": "nonpayable",
      "type": "function"
    },
    {
      "inputs": [
        {
          "internalType": "address",
          "name": "_stakingAddress",
          "type": "address"
        }
      ],
      "name": "initialize",
      "outputs": [],
      "stateMutability": "nonpayable",
      "type": "function"
    },
    {
      "inputs": [
        {
          "internalType": "uint256",
          "name": "stakedTraxAmount",
          "type": "uint256"
        },
        {
          "internalType": "address",
          "name": "stablecoinAddress",
          "type": "address"
        },
        {
          "internalType": "uint256",
          "name": "stakedStablecoinAmount",
          "type": "uint256"
        }
      ],
      "name": "updateSongStaking",
      "outputs": [],
      "stateMutability": "nonpayable",
      "type": "function"
    },
    {
      "inputs": [
        {
          "internalType": "address",
          "name": "stablecoin",
          "type": "address"
        },
        {
          "internalType": "uint256",
          "name": "amount",
          "type": "uint256"
        }
      ],
      "name": "updateStaking",
      "outputs": [],
      "stateMutability": "nonpayable",
      "type": "function"
    },
    {
      "inputs": [
        {
          "internalType": "address",
          "name": "receiver",
          "type": "address"
        },
        {
          "internalType": "address",
          "name": "beatsToken",
          "type": "address"
        },
        {
          "internalType": "uint256",
          "name": "amount",
          "type": "uint256"
        }
      ],
      "name": "transferBeatsTo",
      "outputs": [],
      "stateMutability": "nonpayable",
      "type": "function"
    },
    {
      "inputs": [
        {
          "internalType": "address",
          "name": "receiver",
          "type": "address"
        },
        {
          "internalType": "uint256",
          "name": "amount",
          "type": "uint256"
        }
      ],
      "name": "transferTraxTo",
      "outputs": [],
      "stateMutability": "nonpayable",
      "type": "function"
    },
    {
      "inputs": [
        {
          "internalType": "address",
          "name": "receiver",
          "type": "address"
        },
        {
          "internalType": "address",
          "name": "stablecoinAddress",
          "type": "address"
        },
        {
          "internalType": "uint256",
          "name": "amount",
          "type": "uint256"
        }
      ],
      "name": "transferStablecoinTo",
      "outputs": [],
      "stateMutability": "nonpayable",
      "type": "function"
    },
    {
      "inputs": [
        {
          "internalType": "address",
          "name": "token",
          "type": "address"
        }
      ],
      "name": "reservesOf",
      "outputs": [
        {
          "internalType": "uint256",
          "name": "",
          "type": "uint256"
        }
      ],
      "stateMutability": "view",
      "type": "function",
      "constant": true
    },
    {
      "inputs": [
        {
          "internalType": "address",
          "name": "stablecoinAddress",
          "type": "address"
        }
      ],
      "name": "whitelistStablecoin",
      "outputs": [],
      "stateMutability": "nonpayable",
      "type": "function"
    },
    {
      "inputs": [
        {
          "internalType": "address",
          "name": "token",
          "type": "address"
        }
      ],
      "name": "isSupported",
      "outputs": [
        {
          "internalType": "bool",
          "name": "",
          "type": "bool"
        }
      ],
      "stateMutability": "view",
      "type": "function",
      "constant": true
    },
    {
      "inputs": [
        {
          "internalType": "address",
          "name": "account",
          "type": "address"
        },
        {
          "internalType": "address",
          "name": "stablecoin",
          "type": "address"
        }
      ],
      "name": "isOnWaitlist",
      "outputs": [
        {
          "internalType": "bool",
          "name": "",
          "type": "bool"
        }
      ],
      "stateMutability": "view",
      "type": "function",
      "constant": true
    }
  ],
  "bytecode": "0x60a06040523480156200001157600080fd5b50604051620040733803806200407383398181016040528101906200003791906200066e565b620000576200004b6200024060201b60201c565b6200024860201b60201c565b600073ffffffffffffffffffffffffffffffffffffffff168273ffffffffffffffffffffffffffffffffffffffff161415620000ca576040517f08c379a0000000000000000000000000000000000000000000000000000000008152600401620000c19062000710565b60405180910390fd5b6200011c7f21d749bccb2cd1ecd43da02f61cbdf715b020c28617853628b041975aa29b9167f7f7bbcda39ae5178d4dfa23b257c451c03decf7b918c030beee122c680d563876200030e60201b60201c565b6200014e7f7f7bbcda39ae5178d4dfa23b257c451c03decf7b918c030beee122c680d56387846200036b60201b60201c565b8173ffffffffffffffffffffffffffffffffffffffff1660808173ffffffffffffffffffffffffffffffffffffffff1660601b8152505060005b81518110156200021d57600160036000848481518110620001ae57620001ad6200088c565b5b602002602001015173ffffffffffffffffffffffffffffffffffffffff1673ffffffffffffffffffffffffffffffffffffffff16815260200190815260200160002060006101000a81548160ff021916908315150217905550808062000214906200080f565b91505062000188565b50806004908051906020019062000236929190620004fb565b5050505062000952565b600033905090565b6000600160009054906101000a900473ffffffffffffffffffffffffffffffffffffffff16905081600160006101000a81548173ffffffffffffffffffffffffffffffffffffffff021916908373ffffffffffffffffffffffffffffffffffffffff1602179055508173ffffffffffffffffffffffffffffffffffffffff168173ffffffffffffffffffffffffffffffffffffffff167f8be0079c531659141344cd1fd0a4f28419497f9722a3daafe3b4186f6b6457e060405160405180910390a35050565b8062000320836200038160201b60201c565b837fbd79b86ffe0ab8e8776151514217cd7cacd52c909f66475c3af44e129f0b00ff60405160405180910390a480600080848152602001908152602001600020600101819055505050565b6200037d8282620003a060201b60201c565b5050565b6000806000838152602001908152602001600020600101549050919050565b620003b282826200049160201b60201c565b6200048d57600160008084815260200190815260200160002060000160008373ffffffffffffffffffffffffffffffffffffffff1673ffffffffffffffffffffffffffffffffffffffff16815260200190815260200160002060006101000a81548160ff021916908315150217905550620004326200024060201b60201c565b73ffffffffffffffffffffffffffffffffffffffff168173ffffffffffffffffffffffffffffffffffffffff16837f2f8788117e7eff1d82e926ec794901d17c78024a50270940304540a733656f0d60405160405180910390a45b5050565b600080600084815260200190815260200160002060000160008373ffffffffffffffffffffffffffffffffffffffff1673ffffffffffffffffffffffffffffffffffffffff16815260200190815260200160002060009054906101000a900460ff16905092915050565b82805482825590600052602060002090810192821562000577579160200282015b82811115620005765782518260006101000a81548173ffffffffffffffffffffffffffffffffffffffff021916908373ffffffffffffffffffffffffffffffffffffffff160217905550916020019190600101906200051c565b5b5090506200058691906200058a565b5090565b5b80821115620005a55760008160009055506001016200058b565b5090565b6000620005c0620005ba846200075b565b62000732565b90508083825260208201905082856020860282011115620005e657620005e5620008ef565b5b60005b858110156200061a5781620005ff888262000624565b845260208401935060208301925050600181019050620005e9565b5050509392505050565b600081519050620006358162000938565b92915050565b600082601f830112620006535762000652620008ea565b5b815162000665848260208601620005a9565b91505092915050565b6000806000606084860312156200068a5762000689620008f9565b5b60006200069a8682870162000624565b9350506020620006ad8682870162000624565b925050604084015167ffffffffffffffff811115620006d157620006d0620008f4565b5b620006df868287016200063b565b9150509250925092565b6000620006f86014836200078a565b915062000705826200090f565b602082019050919050565b600060208201905081810360008301526200072b81620006e9565b9050919050565b60006200073e62000751565b90506200074c8282620007d9565b919050565b6000604051905090565b600067ffffffffffffffff821115620007795762000778620008bb565b5b602082029050602081019050919050565b600082825260208201905092915050565b6000620007a882620007af565b9050919050565b600073ffffffffffffffffffffffffffffffffffffffff82169050919050565b6000819050919050565b620007e482620008fe565b810181811067ffffffffffffffff82111715620008065762000805620008bb565b5b80604052505050565b60006200081c82620007cf565b91507fffffffffffffffffffffffffffffffffffffffffffffffffffffffffffffffff8214156200085257620008516200085d565b5b600182019050919050565b7f4e487b7100000000000000000000000000000000000000000000000000000000600052601160045260246000fd5b7f4e487b7100000000000000000000000000000000000000000000000000000000600052603260045260246000fd5b7f4e487b7100000000000000000000000000000000000000000000000000000000600052604160045260246000fd5b600080fd5b600080fd5b600080fd5b600080fd5b6000601f19601f8301169050919050565b7f496e76616c696420545241582061646472657373000000000000000000000000600082015250565b62000943816200079b565b81146200094f57600080fd5b50565b60805160601c6136ed62000986600039600081816105770152818161137101528181611413015261148901526136ed6000f3fe608060405234801561001057600080fd5b50600436106101735760003560e01c8063715018a6116100de578063a060ebdf11610097578063c4d66de811610071578063c4d66de814610448578063d547741f14610464578063f2fde38b14610480578063f8055ac81461049c57610173565b8063a060ebdf146103f2578063a0f050d31461040e578063a217fddf1461042a57610173565b8063715018a61461032e57806388119ed4146103385780638da5cb5b1461035657806391d148541461037457806393c85a21146103a457806397610f30146103d457610173565b8063312db40911610130578063312db4091461025c578063347121281461028c57806336568abe146102a857806338670f92146102c45780634ba26316146102e05780634f129c53146102fe57610173565b806301ffc9a7146101785780630558a1b2146101a857806321371809146101c4578063237df35e146101f4578063248a9ca3146102105780632f2ff15d14610240575b600080fd5b610192600480360381019061018d9190612709565b6104ba565b60405161019f9190612b7f565b60405180910390f35b6101c260048036038101906101bd9190612763565b610534565b005b6101de60048036038101906101d99190612736565b6105ec565b6040516101eb9190612b3b565b60405180910390f35b61020e6004803603810190610209919061262f565b61062b565b005b61022a6004803603810190610225919061269c565b61066c565b6040516102379190612b9a565b60405180910390f35b61025a600480360381019061025591906126c9565b61068b565b005b6102766004803603810190610271919061259c565b6106b4565b6040516102839190612b7f565b60405180910390f35b6102a660048036038101906102a191906125dc565b61073d565b005b6102c260048036038101906102bd91906126c9565b6107a0565b005b6102de60048036038101906102d991906125dc565b610823565b005b6102e8611111565b6040516102f59190612b9a565b60405180910390f35b6103186004803603810190610313919061256f565b611135565b6040516103259190612b7f565b60405180910390f35b61033661118b565b005b610340611213565b60405161034d9190612b9a565b60405180910390f35b61035e611237565b60405161036b9190612b3b565b60405180910390f35b61038e600480360381019061038991906126c9565b611261565b60405161039b9190612b7f565b60405180910390f35b6103be60048036038101906103b9919061256f565b6112cb565b6040516103cb9190612d97565b60405180910390f35b6103dc611314565b6040516103e99190612b9a565b60405180910390f35b61040c6004803603810190610407919061262f565b611338565b005b6104286004803603810190610423919061256f565b6114d2565b005b610432611709565b60405161043f9190612b9a565b60405180910390f35b610462600480360381019061045d919061256f565b611710565b005b61047e600480360381019061047991906126c9565b611841565b005b61049a6004803603810190610495919061256f565b61186a565b005b6104a4611962565b6040516104b19190612b9a565b60405180910390f35b60007f7965db0b000000000000000000000000000000000000000000000000000000007bffffffffffffffffffffffffffffffffffffffffffffffffffffffff1916827bffffffffffffffffffffffffffffffffffffffffffffffffffffffff1916148061052d575061052c82611986565b5b9050919050565b7f21d749bccb2cd1ecd43da02f61cbdf715b020c28617853628b041975aa29b916610566816105616119f0565b6119f8565b6105708383611a95565b83600260007f000000000000000000000000000000000000000000000000000000000000000073ffffffffffffffffffffffffffffffffffffffff1673ffffffffffffffffffffffffffffffffffffffff16815260200190815260200160002060008282546105df9190612def565b9250508190555050505050565b600481815481106105fc57600080fd5b906000526020600020016000915054906101000a900473ffffffffffffffffffffffffffffffffffffffff1681565b7f080909c18c958ce5a2d36481697824e477319323d03154ceba3b78f28a61887b61065d816106586119f0565b6119f8565b6106678383611a95565b505050565b6000806000838152602001908152602001600020600101549050919050565b6106948261066c565b6106a5816106a06119f0565b6119f8565b6106af8383611b7b565b505050565b600080600560008573ffffffffffffffffffffffffffffffffffffffff1673ffffffffffffffffffffffffffffffffffffffff16815260200190815260200160002060008473ffffffffffffffffffffffffffffffffffffffff1673ffffffffffffffffffffffffffffffffffffffff1681526020019081526020016000205411905092915050565b7f21d749bccb2cd1ecd43da02f61cbdf715b020c28617853628b041975aa29b91661076f8161076a6119f0565b6119f8565b61079a84838573ffffffffffffffffffffffffffffffffffffffff16611c5b9092919063ffffffff16565b50505050565b6107a86119f0565b73ffffffffffffffffffffffffffffffffffffffff168173ffffffffffffffffffffffffffffffffffffffff1614610815576040517f08c379a000000000000000000000000000000000000000000000000000000000815260040161080c90612d77565b60405180910390fd5b61081f8282611ce1565b5050565b61084d7f21d749bccb2cd1ecd43da02f61cbdf715b020c28617853628b041975aa29b91633611261565b8061087e575061087d7f3eeb6b77b62abe18acba13bcaa50220328d2646219a4472eca2ea0e670bc7e0533611261565b5b6108bd576040517f08c379a00000000000000000000000000000000000000000000000000000000081526004016108b490612cb7565b60405180910390fd5b600360008373ffffffffffffffffffffffffffffffffffffffff1673ffffffffffffffffffffffffffffffffffffffff16815260200190815260200160002060009054906101000a900460ff16610949576040517f08c379a000000000000000000000000000000000000000000000000000000000815260040161094090612d57565b60405180910390fd5b600060028373ffffffffffffffffffffffffffffffffffffffff1663313ce5676040518163ffffffff1660e01b815260040160206040518083038186803b15801561099357600080fd5b505afa1580156109a7573d6000803e3d6000fd5b505050506040513d601f19601f820116820180604052508101906109cb91906127b6565b6109d59190613075565b600a6109e19190612ec9565b826109ec9190612e45565b11610a2c576040517f08c379a0000000000000000000000000000000000000000000000000000000008152600401610a2390612bf7565b60405180910390fd5b6000600260008473ffffffffffffffffffffffffffffffffffffffff1673ffffffffffffffffffffffffffffffffffffffff168152602001908152602001600020549050600060048054905067ffffffffffffffff811115610a9157610a90613267565b5b604051908082528060200260200182016040528015610aca57816020015b610ab76124c1565b815260200190600190039081610aaf5790505b5090506000828411610adc5783610ade565b825b90506000838511610af0576000610afd565b8385610afc9190613041565b5b9050600080831115610b615760405180604001604052808873ffffffffffffffffffffffffffffffffffffffff16815260200184815250848281518110610b4757610b46613238565b5b60200260200101819052508080610b5d90613191565b9150505b60005b600480549050811015610f4c57600083118015610beb57508773ffffffffffffffffffffffffffffffffffffffff1660048281548110610ba757610ba6613238565b5b9060005260206000200160009054906101000a900473ffffffffffffffffffffffffffffffffffffffff1673ffffffffffffffffffffffffffffffffffffffff1614155b15610f39576000610c3b60048381548110610c0957610c08613238565b5b9060005260206000200160009054906101000a900473ffffffffffffffffffffffffffffffffffffffff168a86611dc2565b9050806002600060048581548110610c5657610c55613238565b5b9060005260206000200160009054906101000a900473ffffffffffffffffffffffffffffffffffffffff1673ffffffffffffffffffffffffffffffffffffffff1673ffffffffffffffffffffffffffffffffffffffff1681526020019081526020016000205410610d5157604051806040016040528060048481548110610ce057610cdf613238565b5b9060005260206000200160009054906101000a900473ffffffffffffffffffffffffffffffffffffffff1673ffffffffffffffffffffffffffffffffffffffff16815260200182815250868481518110610d3d57610d3c613238565b5b602002602001018190525060009350610f29565b604051806040016040528060048481548110610d7057610d6f613238565b5b9060005260206000200160009054906101000a900473ffffffffffffffffffffffffffffffffffffffff1673ffffffffffffffffffffffffffffffffffffffff1681526020016002600060048681548110610dce57610dcd613238565b5b9060005260206000200160009054906101000a900473ffffffffffffffffffffffffffffffffffffffff1673ffffffffffffffffffffffffffffffffffffffff1673ffffffffffffffffffffffffffffffffffffffff16815260200190815260200160002054815250868481518110610e4a57610e49613238565b5b6020026020010181905250610f1b8960048481548110610e6d57610e6c613238565b5b9060005260206000200160009054906101000a900473ffffffffffffffffffffffffffffffffffffffff166002600060048781548110610eb057610eaf613238565b5b9060005260206000200160009054906101000a900473ffffffffffffffffffffffffffffffffffffffff1673ffffffffffffffffffffffffffffffffffffffff1673ffffffffffffffffffffffffffffffffffffffff16815260200190815260200160002054611dc2565b84610f269190613041565b93505b8280610f3490613191565b935050505b8080610f4490613191565b915050610b64565b506000821115610fee5785600560008a73ffffffffffffffffffffffffffffffffffffffff1673ffffffffffffffffffffffffffffffffffffffff16815260200190815260200160002060008973ffffffffffffffffffffffffffffffffffffffff1673ffffffffffffffffffffffffffffffffffffffff1681526020019081526020016000206000828254610fe29190612def565b92505081905550611107565b60005b818110156111055784818151811061100c5761100b613238565b5b6020026020010151602001516002600087848151811061102f5761102e613238565b5b60200260200101516000015173ffffffffffffffffffffffffffffffffffffffff1673ffffffffffffffffffffffffffffffffffffffff16815260200190815260200160002060008282546110849190613041565b925050819055506110f2898683815181106110a2576110a1613238565b5b6020026020010151602001518784815181106110c1576110c0613238565b5b60200260200101516000015173ffffffffffffffffffffffffffffffffffffffff16611c5b9092919063ffffffff16565b80806110fd90613191565b915050610ff1565b505b5050505050505050565b7f21d749bccb2cd1ecd43da02f61cbdf715b020c28617853628b041975aa29b91681565b6000600360008373ffffffffffffffffffffffffffffffffffffffff1673ffffffffffffffffffffffffffffffffffffffff16815260200190815260200160002060009054906101000a900460ff169050919050565b6111936119f0565b73ffffffffffffffffffffffffffffffffffffffff166111b1611237565b73ffffffffffffffffffffffffffffffffffffffff1614611207576040517f08c379a00000000000000000000000000000000000000000000000000000000081526004016111fe90612cd7565b60405180910390fd5b6112116000611f44565b565b7f3eeb6b77b62abe18acba13bcaa50220328d2646219a4472eca2ea0e670bc7e0581565b6000600160009054906101000a900473ffffffffffffffffffffffffffffffffffffffff16905090565b600080600084815260200190815260200160002060000160008373ffffffffffffffffffffffffffffffffffffffff1673ffffffffffffffffffffffffffffffffffffffff16815260200190815260200160002060009054906101000a900460ff16905092915050565b6000600260008373ffffffffffffffffffffffffffffffffffffffff1673ffffffffffffffffffffffffffffffffffffffff168152602001908152602001600020549050919050565b7f080909c18c958ce5a2d36481697824e477319323d03154ceba3b78f28a61887b81565b7f21d749bccb2cd1ecd43da02f61cbdf715b020c28617853628b041975aa29b91661136a816113656119f0565b6119f8565b81600260007f000000000000000000000000000000000000000000000000000000000000000073ffffffffffffffffffffffffffffffffffffffff1673ffffffffffffffffffffffffffffffffffffffff16815260200190815260200160002054101561140c576040517f08c379a000000000000000000000000000000000000000000000000000000000815260040161140390612c57565b60405180910390fd5b81600260007f000000000000000000000000000000000000000000000000000000000000000073ffffffffffffffffffffffffffffffffffffffff1673ffffffffffffffffffffffffffffffffffffffff168152602001908152602001600020600082825461147b9190613041565b925050819055506114cd83837f000000000000000000000000000000000000000000000000000000000000000073ffffffffffffffffffffffffffffffffffffffff16611c5b9092919063ffffffff16565b505050565b6114da6119f0565b73ffffffffffffffffffffffffffffffffffffffff166114f8611237565b73ffffffffffffffffffffffffffffffffffffffff161461154e576040517f08c379a000000000000000000000000000000000000000000000000000000000815260040161154590612cd7565b60405180910390fd5b600073ffffffffffffffffffffffffffffffffffffffff168173ffffffffffffffffffffffffffffffffffffffff1614156115be576040517f08c379a00000000000000000000000000000000000000000000000000000000081526004016115b590612d37565b60405180910390fd5b600360008273ffffffffffffffffffffffffffffffffffffffff1673ffffffffffffffffffffffffffffffffffffffff16815260200190815260200160002060009054906101000a900460ff161561164b576040517f08c379a000000000000000000000000000000000000000000000000000000000815260040161164290612c17565b60405180910390fd5b6001600360008373ffffffffffffffffffffffffffffffffffffffff1673ffffffffffffffffffffffffffffffffffffffff16815260200190815260200160002060006101000a81548160ff0219169083151502179055506004819080600181540180825580915050600190039060005260206000200160009091909190916101000a81548173ffffffffffffffffffffffffffffffffffffffff021916908373ffffffffffffffffffffffffffffffffffffffff16021790555050565b6000801b81565b600160159054906101000a900460ff16806117385750600160149054906101000a900460ff16155b611777576040517f08c379a000000000000000000000000000000000000000000000000000000000815260040161176e90612c97565b60405180910390fd5b6000600160159054906101000a900460ff1615905080156117c75760018060156101000a81548160ff02191690831515021790555060018060146101000a81548160ff0219169083151502179055505b6117f17f3eeb6b77b62abe18acba13bcaa50220328d2646219a4472eca2ea0e670bc7e058361200a565b61181b7f080909c18c958ce5a2d36481697824e477319323d03154ceba3b78f28a61887b8361200a565b801561183d576000600160156101000a81548160ff0219169083151502179055505b5050565b61184a8261066c565b61185b816118566119f0565b6119f8565b6118658383611ce1565b505050565b6118726119f0565b73ffffffffffffffffffffffffffffffffffffffff16611890611237565b73ffffffffffffffffffffffffffffffffffffffff16146118e6576040517f08c379a00000000000000000000000000000000000000000000000000000000081526004016118dd90612cd7565b60405180910390fd5b600073ffffffffffffffffffffffffffffffffffffffff168173ffffffffffffffffffffffffffffffffffffffff161415611956576040517f08c379a000000000000000000000000000000000000000000000000000000000815260040161194d90612c37565b60405180910390fd5b61195f81611f44565b50565b7f7f7bbcda39ae5178d4dfa23b257c451c03decf7b918c030beee122c680d5638781565b60007f01ffc9a7000000000000000000000000000000000000000000000000000000007bffffffffffffffffffffffffffffffffffffffffffffffffffffffff1916827bffffffffffffffffffffffffffffffffffffffffffffffffffffffff1916149050919050565b600033905090565b611a028282611261565b611a9157611a278173ffffffffffffffffffffffffffffffffffffffff166014612018565b611a358360001c6020612018565b604051602001611a46929190612b01565b6040516020818303038152906040526040517f08c379a0000000000000000000000000000000000000000000000000000000008152600401611a889190612bb5565b60405180910390fd5b5050565b600360008373ffffffffffffffffffffffffffffffffffffffff1673ffffffffffffffffffffffffffffffffffffffff16815260200190815260200160002060009054906101000a900460ff16611b21576040517f08c379a0000000000000000000000000000000000000000000000000000000008152600401611b1890612d57565b60405180910390fd5b80600260008473ffffffffffffffffffffffffffffffffffffffff1673ffffffffffffffffffffffffffffffffffffffff1681526020019081526020016000206000828254611b709190612def565b925050819055505050565b611b858282611261565b611c5757600160008084815260200190815260200160002060000160008373ffffffffffffffffffffffffffffffffffffffff1673ffffffffffffffffffffffffffffffffffffffff16815260200190815260200160002060006101000a81548160ff021916908315150217905550611bfc6119f0565b73ffffffffffffffffffffffffffffffffffffffff168173ffffffffffffffffffffffffffffffffffffffff16837f2f8788117e7eff1d82e926ec794901d17c78024a50270940304540a733656f0d60405160405180910390a45b5050565b611cdc8363a9059cbb60e01b8484604051602401611c7a929190612b56565b604051602081830303815290604052907bffffffffffffffffffffffffffffffffffffffffffffffffffffffff19166020820180517bffffffffffffffffffffffffffffffffffffffffffffffffffffffff8381831617835250505050612254565b505050565b611ceb8282611261565b15611dbe57600080600084815260200190815260200160002060000160008373ffffffffffffffffffffffffffffffffffffffff1673ffffffffffffffffffffffffffffffffffffffff16815260200190815260200160002060006101000a81548160ff021916908315150217905550611d636119f0565b73ffffffffffffffffffffffffffffffffffffffff168173ffffffffffffffffffffffffffffffffffffffff16837ff6391f5c32d9c69d2a47ea670b442974b53935d1edc7fd64eb21e047a839171b60405160405180910390a45b5050565b6000808473ffffffffffffffffffffffffffffffffffffffff1663313ce5676040518163ffffffff1660e01b815260040160206040518083038186803b158015611e0b57600080fd5b505afa158015611e1f573d6000803e3d6000fd5b505050506040513d601f19601f82011682018060405250810190611e4391906127b6565b905060008473ffffffffffffffffffffffffffffffffffffffff1663313ce5676040518163ffffffff1660e01b815260040160206040518083038186803b158015611e8d57600080fd5b505afa158015611ea1573d6000803e3d6000fd5b505050506040513d601f19601f82011682018060405250810190611ec591906127b6565b90508060ff168260ff161415611edf578392505050611f3d565b8060ff168260ff1611611f14578181611ef89190613075565b600a611f049190612ec9565b84611f0f9190612e45565b611f38565b8082611f209190613075565b600a611f2c9190612ec9565b84611f379190612fe7565b5b925050505b9392505050565b6000600160009054906101000a900473ffffffffffffffffffffffffffffffffffffffff16905081600160006101000a81548173ffffffffffffffffffffffffffffffffffffffff021916908373ffffffffffffffffffffffffffffffffffffffff1602179055508173ffffffffffffffffffffffffffffffffffffffff168173ffffffffffffffffffffffffffffffffffffffff167f8be0079c531659141344cd1fd0a4f28419497f9722a3daafe3b4186f6b6457e060405160405180910390a35050565b6120148282611b7b565b5050565b60606000600283600261202b9190612fe7565b6120359190612def565b67ffffffffffffffff81111561204e5761204d613267565b5b6040519080825280601f01601f1916602001820160405280156120805781602001600182028036833780820191505090505b5090507f3000000000000000000000000000000000000000000000000000000000000000816000815181106120b8576120b7613238565b5b60200101907effffffffffffffffffffffffffffffffffffffffffffffffffffffffffffff1916908160001a9053507f78000000000000000000000000000000000000000000000000000000000000008160018151811061211c5761211b613238565b5b60200101907effffffffffffffffffffffffffffffffffffffffffffffffffffffffffffff1916908160001a9053506000600184600261215c9190612fe7565b6121669190612def565b90505b6001811115612206577f3031323334353637383961626364656600000000000000000000000000000000600f8616601081106121a8576121a7613238565b5b1a60f81b8282815181106121bf576121be613238565b5b60200101907effffffffffffffffffffffffffffffffffffffffffffffffffffffffffffff1916908160001a905350600485901c9450806121ff90613167565b9050612169565b506000841461224a576040517f08c379a000000000000000000000000000000000000000000000000000000000815260040161224190612bd7565b60405180910390fd5b8091505092915050565b60006122b6826040518060400160405280602081526020017f5361666545524332303a206c6f772d6c6576656c2063616c6c206661696c65648152508573ffffffffffffffffffffffffffffffffffffffff1661231b9092919063ffffffff16565b905060008151111561231657808060200190518101906122d6919061266f565b612315576040517f08c379a000000000000000000000000000000000000000000000000000000000815260040161230c90612d17565b60405180910390fd5b5b505050565b606061232a8484600085612333565b90509392505050565b606082471015612378576040517f08c379a000000000000000000000000000000000000000000000000000000000815260040161236f90612c77565b60405180910390fd5b61238185612447565b6123c0576040517f08c379a00000000000000000000000000000000000000000000000000000000081526004016123b790612cf7565b60405180910390fd5b6000808673ffffffffffffffffffffffffffffffffffffffff1685876040516123e99190612aea565b60006040518083038185875af1925050503d8060008114612426576040519150601f19603f3d011682016040523d82523d6000602084013e61242b565b606091505b509150915061243b82828661245a565b92505050949350505050565b600080823b905060008111915050919050565b6060831561246a578290506124ba565b60008351111561247d5782518084602001fd5b816040517f08c379a00000000000000000000000000000000000000000000000000000000081526004016124b19190612bb5565b60405180910390fd5b9392505050565b6040518060400160405280600073ffffffffffffffffffffffffffffffffffffffff168152602001600081525090565b6000813590506125008161362d565b92915050565b60008151905061251581613644565b92915050565b60008135905061252a8161365b565b92915050565b60008135905061253f81613672565b92915050565b60008135905061255481613689565b92915050565b600081519050612569816136a0565b92915050565b60006020828403121561258557612584613296565b5b6000612593848285016124f1565b91505092915050565b600080604083850312156125b3576125b2613296565b5b60006125c1858286016124f1565b92505060206125d2858286016124f1565b9150509250929050565b6000806000606084860312156125f5576125f4613296565b5b6000612603868287016124f1565b9350506020612614868287016124f1565b925050604061262586828701612545565b9150509250925092565b6000806040838503121561264657612645613296565b5b6000612654858286016124f1565b925050602061266585828601612545565b9150509250929050565b60006020828403121561268557612684613296565b5b600061269384828501612506565b91505092915050565b6000602082840312156126b2576126b1613296565b5b60006126c08482850161251b565b91505092915050565b600080604083850312156126e0576126df613296565b5b60006126ee8582860161251b565b92505060206126ff858286016124f1565b9150509250929050565b60006020828403121561271f5761271e613296565b5b600061272d84828501612530565b91505092915050565b60006020828403121561274c5761274b613296565b5b600061275a84828501612545565b91505092915050565b60008060006060848603121561277c5761277b613296565b5b600061278a86828701612545565b935050602061279b868287016124f1565b92505060406127ac86828701612545565b9150509250925092565b6000602082840312156127cc576127cb613296565b5b60006127da8482850161255a565b91505092915050565b6127ec816130a9565b82525050565b6127fb816130bb565b82525050565b61280a816130c7565b82525050565b600061281b82612db2565b6128258185612dc8565b9350612835818560208601613134565b80840191505092915050565b600061284c82612dbd565b6128568185612dd3565b9350612866818560208601613134565b61286f8161329b565b840191505092915050565b600061288582612dbd565b61288f8185612de4565b935061289f818560208601613134565b80840191505092915050565b60006128b8602083612dd3565b91506128c3826132b9565b602082019050919050565b60006128db601e83612dd3565b91506128e6826132e2565b602082019050919050565b60006128fe601c83612dd3565b91506129098261330b565b602082019050919050565b6000612921602683612dd3565b915061292c82613334565b604082019050919050565b6000612944601783612dd3565b915061294f82613383565b602082019050919050565b6000612967602683612dd3565b9150612972826133ac565b604082019050919050565b600061298a602e83612dd3565b9150612995826133fb565b604082019050919050565b60006129ad602983612dd3565b91506129b88261344a565b604082019050919050565b60006129d0602083612dd3565b91506129db82613499565b602082019050919050565b60006129f3601d83612dd3565b91506129fe826134c2565b602082019050919050565b6000612a16601783612de4565b9150612a21826134eb565b601782019050919050565b6000612a39602a83612dd3565b9150612a4482613514565b604082019050919050565b6000612a5c601a83612dd3565b9150612a6782613563565b602082019050919050565b6000612a7f601183612de4565b9150612a8a8261358c565b601182019050919050565b6000612aa2601683612dd3565b9150612aad826135b5565b602082019050919050565b6000612ac5602f83612dd3565b9150612ad0826135de565b604082019050919050565b612ae48161311d565b82525050565b6000612af68284612810565b915081905092915050565b6000612b0c82612a09565b9150612b18828561287a565b9150612b2382612a72565b9150612b2f828461287a565b91508190509392505050565b6000602082019050612b5060008301846127e3565b92915050565b6000604082019050612b6b60008301856127e3565b612b786020830184612adb565b9392505050565b6000602082019050612b9460008301846127f2565b92915050565b6000602082019050612baf6000830184612801565b92915050565b60006020820190508181036000830152612bcf8184612841565b905092915050565b60006020820190508181036000830152612bf0816128ab565b9050919050565b60006020820190508181036000830152612c10816128ce565b9050919050565b60006020820190508181036000830152612c30816128f1565b9050919050565b60006020820190508181036000830152612c5081612914565b9050919050565b60006020820190508181036000830152612c7081612937565b9050919050565b60006020820190508181036000830152612c908161295a565b9050919050565b60006020820190508181036000830152612cb08161297d565b9050919050565b60006020820190508181036000830152612cd0816129a0565b9050919050565b60006020820190508181036000830152612cf0816129c3565b9050919050565b60006020820190508181036000830152612d10816129e6565b9050919050565b60006020820190508181036000830152612d3081612a2c565b9050919050565b60006020820190508181036000830152612d5081612a4f565b9050919050565b60006020820190508181036000830152612d7081612a95565b9050919050565b60006020820190508181036000830152612d9081612ab8565b9050919050565b6000602082019050612dac6000830184612adb565b92915050565b600081519050919050565b600081519050919050565b600081905092915050565b600082825260208201905092915050565b600081905092915050565b6000612dfa8261311d565b9150612e058361311d565b9250827fffffffffffffffffffffffffffffffffffffffffffffffffffffffffffffffff03821115612e3a57612e396131da565b5b828201905092915050565b6000612e508261311d565b9150612e5b8361311d565b925082612e6b57612e6a613209565b5b828204905092915050565b6000808291508390505b6001851115612ec057808604811115612e9c57612e9b6131da565b5b6001851615612eab5780820291505b8081029050612eb9856132ac565b9450612e80565b94509492505050565b6000612ed48261311d565b9150612edf83613127565b9250612f0c7fffffffffffffffffffffffffffffffffffffffffffffffffffffffffffffffff8484612f14565b905092915050565b600082612f245760019050612fe0565b81612f325760009050612fe0565b8160018114612f485760028114612f5257612f81565b6001915050612fe0565b60ff841115612f6457612f636131da565b5b8360020a915084821115612f7b57612f7a6131da565b5b50612fe0565b5060208310610133831016604e8410600b8410161715612fb65782820a905083811115612fb157612fb06131da565b5b612fe0565b612fc38484846001612e76565b92509050818404811115612fda57612fd96131da565b5b81810290505b9392505050565b6000612ff28261311d565b9150612ffd8361311d565b9250817fffffffffffffffffffffffffffffffffffffffffffffffffffffffffffffffff0483118215151615613036576130356131da565b5b828202905092915050565b600061304c8261311d565b91506130578361311d565b92508282101561306a576130696131da565b5b828203905092915050565b600061308082613127565b915061308b83613127565b92508282101561309e5761309d6131da565b5b828203905092915050565b60006130b4826130fd565b9050919050565b60008115159050919050565b6000819050919050565b60007fffffffff0000000000000000000000000000000000000000000000000000000082169050919050565b600073ffffffffffffffffffffffffffffffffffffffff82169050919050565b6000819050919050565b600060ff82169050919050565b60005b83811015613152578082015181840152602081019050613137565b83811115613161576000848401525b50505050565b60006131728261311d565b91506000821415613186576131856131da565b5b600182039050919050565b600061319c8261311d565b91507fffffffffffffffffffffffffffffffffffffffffffffffffffffffffffffffff8214156131cf576131ce6131da565b5b600182019050919050565b7f4e487b7100000000000000000000000000000000000000000000000000000000600052601160045260246000fd5b7f4e487b7100000000000000000000000000000000000000000000000000000000600052601260045260246000fd5b7f4e487b7100000000000000000000000000000000000000000000000000000000600052603260045260246000fd5b7f4e487b7100000000000000000000000000000000000000000000000000000000600052604160045260246000fd5b600080fd5b6000601f19601f8301169050919050565b60008160011c9050919050565b7f537472696e67733a20686578206c656e67746820696e73756666696369656e74600082015250565b7f43616e6e6f74207769746864726177206c657373207468616e20302e30310000600082015250565b7f537461626c65636f696e20616c726561647920737570706f7274656400000000600082015250565b7f4f776e61626c653a206e6577206f776e657220697320746865207a65726f206160008201527f6464726573730000000000000000000000000000000000000000000000000000602082015250565b7f4e6f7420656e6f75676820545241582062616c616e6365000000000000000000600082015250565b7f416464726573733a20696e73756666696369656e742062616c616e636520666f60008201527f722063616c6c0000000000000000000000000000000000000000000000000000602082015250565b7f496e697469616c697a61626c653a20636f6e747261637420697320616c72656160008201527f647920696e697469616c697a6564000000000000000000000000000000000000602082015250565b7f556e617574686f72697a656420746f2063616c6c207472616e7366657253746160008201527f626c65636f696e546f0000000000000000000000000000000000000000000000602082015250565b7f4f776e61626c653a2063616c6c6572206973206e6f7420746865206f776e6572600082015250565b7f416464726573733a2063616c6c20746f206e6f6e2d636f6e7472616374000000600082015250565b7f416363657373436f6e74726f6c3a206163636f756e7420000000000000000000600082015250565b7f5361666545524332303a204552433230206f7065726174696f6e20646964206e60008201527f6f74207375636365656400000000000000000000000000000000000000000000602082015250565b7f496e76616c696420737461626c65636f696e2061646472657373000000000000600082015250565b7f206973206d697373696e6720726f6c6520000000000000000000000000000000600082015250565b7f556e737570706f7274656420737461626c65636f696e00000000000000000000600082015250565b7f416363657373436f6e74726f6c3a2063616e206f6e6c792072656e6f756e636560008201527f20726f6c657320666f722073656c660000000000000000000000000000000000602082015250565b613636816130a9565b811461364157600080fd5b50565b61364d816130bb565b811461365857600080fd5b50565b613664816130c7565b811461366f57600080fd5b50565b61367b816130d1565b811461368657600080fd5b50565b6136928161311d565b811461369d57600080fd5b50565b6136a981613127565b81146136b457600080fd5b5056fea2646970667358221220e4637ec6ebdc56933caf1a40853bd877d7b5e889703571d9edd11bc746680bcd64736f6c63430008060033",
  "immutableReferences": {
    "5254": [
      {
        "length": 32,
        "start": 1399
      },
      {
        "length": 32,
        "start": 4977
      },
      {
        "length": 32,
        "start": 5139
      },
      {
        "length": 32,
        "start": 5257
      }
    ]
  },
  "source": "// SPDX-License-Identifier: MIT\npragma solidity ^0.8.5;\n\nimport \"@openzeppelin/contracts/access/AccessControl.sol\";\nimport \"@openzeppelin/contracts/access/Ownable.sol\";\nimport \"@openzeppelin/contracts/token/ERC20/ERC20.sol\";\nimport \"@openzeppelin/contracts/token/ERC20/utils/SafeERC20.sol\";\nimport \"@openzeppelin/contracts/proxy/utils/Initializable.sol\";\n\n/**\n * @title Funds manager\n * @author Piotr Buda\n */\ncontract FundsManager is AccessControl, Ownable, Initializable {\n    using SafeERC20 for ERC20;\n\n    //ROLES\n    bytes32 public constant SONGS_MANAGER = keccak256(\"SONGS_MANAGER\");\n    bytes32 public constant SONG_CONTRACT = keccak256(\"SONG_CONTRACT\");\n    bytes32 public constant TRANSFER_STABLECOIN = keccak256(\"TRANSFER_STABLECOIN\");\n    bytes32 public constant STAKING = keccak256(\"STAKING\");\n\n    struct StablecoinWithdrawal {\n        address stablecoin;\n        uint256 amount;\n    }\n\n    //STATE\n    /**\n     *@dev keeps track of how many tokens of each kind have been staked\n     */\n    mapping(address => uint256) private _reserves;\n\n    /**\n     * @dev whitelist of supported stablecoins\n     */\n    mapping(address => bool) private tokenWhitelist;\n\n    address[] public stablecoins;\n\n    address private immutable traxToken;\n\n    mapping(address => mapping(address => uint256)) private _waitlist;\n\n    //EVENTS\n\n    /**\n     * @param _songsManagerAddress the address of the SongsManager contract\n     * @param _traxToken the address of the TRAX token\n     * @param _initialWhitelist a list of stablecoin addresses to whitelist\n     */\n    constructor(\n        address _songsManagerAddress,\n        address _traxToken,\n        address[] memory _initialWhitelist\n    ) {\n        require(_traxToken != address(0), \"Invalid TRAX address\");\n        _setRoleAdmin(SONG_CONTRACT, SONGS_MANAGER);\n        _setupRole(SONGS_MANAGER, _songsManagerAddress);\n        traxToken = _traxToken;\n        for (uint256 i = 0; i < _initialWhitelist.length; i++) {\n            tokenWhitelist[_initialWhitelist[i]] = true;\n        }\n        stablecoins = _initialWhitelist;\n    }\n\n    /**\n     * @param _stakingAddress the address of the Staking contract\n     */\n    function initialize(address _stakingAddress) external initializer {\n        _setupRole(TRANSFER_STABLECOIN, _stakingAddress);\n        _setupRole(STAKING, _stakingAddress);\n    }\n\n    function updateSongStaking(\n        uint256 stakedTraxAmount,\n        address stablecoinAddress,\n        uint256 stakedStablecoinAmount\n    ) external onlyRole(SONG_CONTRACT) {\n        _update(stablecoinAddress, stakedStablecoinAmount);\n        _reserves[traxToken] += stakedTraxAmount;\n    }\n\n    function updateStaking(address stablecoin, uint256 amount) external onlyRole(STAKING) {\n        _update(stablecoin, amount);\n    }\n\n    function _update(address stablecoin, uint256 amount) internal {\n        require(tokenWhitelist[stablecoin], \"Unsupported stablecoin\");\n        _reserves[stablecoin] += amount;\n    }\n\n    function transferBeatsTo(\n        address receiver,\n        address beatsToken,\n        uint256 amount\n    ) external onlyRole(SONG_CONTRACT) {\n        //TODO: add proper checks and update beats state before transfer\n        ERC20(beatsToken).safeTransfer(receiver, amount);\n    }\n\n    function transferTraxTo(address receiver, uint256 amount) external onlyRole(SONG_CONTRACT) {\n        require(_reserves[traxToken] >= amount, \"Not enough TRAX balance\");\n        _reserves[traxToken] -= amount;\n        ERC20(traxToken).safeTransfer(receiver, amount);\n    }\n\n    function transferStablecoinTo(\n        address receiver,\n        address stablecoinAddress,\n        uint256 amount\n    ) external {\n        require(\n            hasRole(SONG_CONTRACT, msg.sender) || hasRole(TRANSFER_STABLECOIN, msg.sender),\n            \"Unauthorized to call transferStablecoinTo\"\n        );\n        require(tokenWhitelist[stablecoinAddress], \"Unsupported stablecoin\");\n        require(amount / 10**(ERC20(stablecoinAddress).decimals() - 2) > 0, \"Cannot withdraw less than 0.01\");\n        uint256 balanceOfStablecoin = _reserves[stablecoinAddress];\n        StablecoinWithdrawal[] memory withdrawals = new StablecoinWithdrawal[](stablecoins.length);\n        uint256 requestedTokenAmount = amount > balanceOfStablecoin ? balanceOfStablecoin : amount;\n        uint256 missingAmount = amount > balanceOfStablecoin ? amount - balanceOfStablecoin : 0;\n\n        uint256 withdrawalsCounter = 0;\n        if (requestedTokenAmount > 0) {\n            withdrawals[withdrawalsCounter] = StablecoinWithdrawal(stablecoinAddress, requestedTokenAmount);\n            withdrawalsCounter++;\n        }\n\n        for (uint256 i = 0; i < stablecoins.length; i++) {\n            if (missingAmount > 0 && stablecoins[i] != stablecoinAddress) {\n                uint256 normalizedMissingAmount = _normalizeToToken(\n                    stablecoins[i],\n                    stablecoinAddress,\n                    missingAmount\n                );\n                if (_reserves[stablecoins[i]] >= normalizedMissingAmount) {\n                    withdrawals[withdrawalsCounter] = StablecoinWithdrawal(\n                        stablecoins[i],\n                        normalizedMissingAmount\n                    );\n                    missingAmount = 0;\n                } else {\n                    withdrawals[withdrawalsCounter] = StablecoinWithdrawal(\n                        stablecoins[i],\n                        _reserves[stablecoins[i]]\n                    );\n                    missingAmount -= _normalizeToToken(\n                        stablecoinAddress,\n                        stablecoins[i],\n                        _reserves[stablecoins[i]]\n                    );\n                }\n                withdrawalsCounter++;\n            }\n        }\n\n        if (missingAmount > 0) {\n            _waitlist[receiver][stablecoinAddress] += amount;\n        } else {\n            for (uint256 i = 0; i < withdrawalsCounter; i++) {\n                _reserves[withdrawals[i].stablecoin] -= withdrawals[i].amount;\n                ERC20(withdrawals[i].stablecoin).safeTransfer(receiver, withdrawals[i].amount);\n            }\n        }\n    }\n\n    function _normalizeToToken(\n        address destToken,\n        address srcToken,\n        uint256 amount\n    ) private view returns (uint256) {\n        uint8 destDecimals = ERC20(destToken).decimals();\n        uint8 srcDecimals = ERC20(srcToken).decimals();\n        if (destDecimals == srcDecimals) {\n            return amount;\n        }\n\n        return\n            destDecimals > srcDecimals\n                ? amount * 10**(destDecimals - srcDecimals)\n                : amount / 10**(srcDecimals - destDecimals);\n    }\n\n    function reservesOf(address token) external view returns (uint256) {\n        return _reserves[token];\n    }\n\n    function whitelistStablecoin(address stablecoinAddress) external onlyOwner {\n        require(stablecoinAddress != address(0), \"Invalid stablecoin address\");\n        require(!tokenWhitelist[stablecoinAddress], \"Stablecoin already supported\");\n        tokenWhitelist[stablecoinAddress] = true;\n        stablecoins.push(stablecoinAddress);\n    }\n\n    function isSupported(address token) external view returns (bool) {\n        return tokenWhitelist[token];\n    }\n\n    function isOnWaitlist(address account, address stablecoin) external view returns (bool) {\n        return _waitlist[account][stablecoin] > 0;\n    }\n}\n",
  "sourcePath": "/Users/angelsatorresalmenara/Desktop/privi-trax-smart-contracts/contracts/FundsManager.sol",
  "compiler": {
    "name": "solc",
    "version": "0.8.6+commit.11564f7e.Emscripten.clang"
  },
  "schemaVersion": "3.4.2",
  "updatedAt": "2021-09-02T15:30:08.444Z",
  "networkType": "ethereum",
  "devdoc": {
    "author": "Piotr Buda",
    "kind": "dev",
    "methods": {
      "constructor": {
        "params": {
          "_initialWhitelist": "a list of stablecoin addresses to whitelist",
          "_songsManagerAddress": "the address of the SongsManager contract",
          "_traxToken": "the address of the TRAX token"
        }
      },
      "getRoleAdmin(bytes32)": {
        "details": "Returns the admin role that controls `role`. See {grantRole} and {revokeRole}. To change a role's admin, use {_setRoleAdmin}."
      },
      "grantRole(bytes32,address)": {
        "details": "Grants `role` to `account`. If `account` had not been already granted `role`, emits a {RoleGranted} event. Requirements: - the caller must have ``role``'s admin role."
      },
      "hasRole(bytes32,address)": {
        "details": "Returns `true` if `account` has been granted `role`."
      },
      "initialize(address)": {
        "params": {
          "_stakingAddress": "the address of the Staking contract"
        }
      },
      "owner()": {
        "details": "Returns the address of the current owner."
      },
      "renounceOwnership()": {
        "details": "Leaves the contract without owner. It will not be possible to call `onlyOwner` functions anymore. Can only be called by the current owner. NOTE: Renouncing ownership will leave the contract without an owner, thereby removing any functionality that is only available to the owner."
      },
      "renounceRole(bytes32,address)": {
        "details": "Revokes `role` from the calling account. Roles are often managed via {grantRole} and {revokeRole}: this function's purpose is to provide a mechanism for accounts to lose their privileges if they are compromised (such as when a trusted device is misplaced). If the calling account had been granted `role`, emits a {RoleRevoked} event. Requirements: - the caller must be `account`."
      },
      "revokeRole(bytes32,address)": {
        "details": "Revokes `role` from `account`. If `account` had been granted `role`, emits a {RoleRevoked} event. Requirements: - the caller must have ``role``'s admin role."
      },
      "supportsInterface(bytes4)": {
        "details": "See {IERC165-supportsInterface}."
      },
      "transferOwnership(address)": {
        "details": "Transfers ownership of the contract to a new account (`newOwner`). Can only be called by the current owner."
      }
    },
    "stateVariables": {
      "_reserves": {
        "details": "keeps track of how many tokens of each kind have been staked"
      },
      "tokenWhitelist": {
        "details": "whitelist of supported stablecoins"
      }
    },
    "title": "Funds manager",
    "version": 1
  },
  "userdoc": {
    "kind": "user",
    "methods": {},
    "version": 1
  }
}