{
  "contractName": "Governance",
  "abi": [
    {
      "inputs": [
        {
          "internalType": "uint256",
          "name": "traxDecimals",
          "type": "uint256"
        },
        {
          "internalType": "uint256",
          "name": "_minimumSecondsToSubscribe",
          "type": "uint256"
        },
        {
          "internalType": "uint256",
          "name": "_maximumSecondsToApplyDiscount",
          "type": "uint256"
        },
        {
          "internalType": "uint256",
          "name": "_incrementRate",
          "type": "uint256"
        },
        {
          "internalType": "uint256",
          "name": "_maxDiscount",
          "type": "uint256"
        },
        {
          "internalType": "address",
          "name": "_stableCoin",
          "type": "address"
        }
      ],
      "stateMutability": "nonpayable",
      "type": "constructor"
    },
    {
      "anonymous": false,
      "inputs": [
        {
          "indexed": true,
          "internalType": "bytes32",
          "name": "role",
          "type": "bytes32"
        },
        {
          "indexed": true,
          "internalType": "bytes32",
          "name": "previousAdminRole",
          "type": "bytes32"
        },
        {
          "indexed": true,
          "internalType": "bytes32",
          "name": "newAdminRole",
          "type": "bytes32"
        }
      ],
      "name": "RoleAdminChanged",
      "type": "event"
    },
    {
      "anonymous": false,
      "inputs": [
        {
          "indexed": true,
          "internalType": "bytes32",
          "name": "role",
          "type": "bytes32"
        },
        {
          "indexed": true,
          "internalType": "address",
          "name": "account",
          "type": "address"
        },
        {
          "indexed": true,
          "internalType": "address",
          "name": "sender",
          "type": "address"
        }
      ],
      "name": "RoleGranted",
      "type": "event"
    },
    {
      "anonymous": false,
      "inputs": [
        {
          "indexed": true,
          "internalType": "bytes32",
          "name": "role",
          "type": "bytes32"
        },
        {
          "indexed": true,
          "internalType": "address",
          "name": "account",
          "type": "address"
        },
        {
          "indexed": true,
          "internalType": "address",
          "name": "sender",
          "type": "address"
        }
      ],
      "name": "RoleRevoked",
      "type": "event"
    },
    {
      "inputs": [],
      "name": "ADMIN",
      "outputs": [
        {
          "internalType": "bytes32",
          "name": "",
          "type": "bytes32"
        }
      ],
      "stateMutability": "view",
      "type": "function"
    },
    {
      "inputs": [],
      "name": "BEATS_DECIMALS",
      "outputs": [
        {
          "internalType": "uint8",
          "name": "",
          "type": "uint8"
        }
      ],
      "stateMutability": "view",
      "type": "function"
    },
    {
      "inputs": [],
      "name": "DEFAULT_ADMIN_ROLE",
      "outputs": [
        {
          "internalType": "bytes32",
          "name": "",
          "type": "bytes32"
        }
      ],
      "stateMutability": "view",
      "type": "function"
    },
    {
      "inputs": [],
      "name": "FEE_DECIMALS",
      "outputs": [
        {
          "internalType": "uint8",
          "name": "",
          "type": "uint8"
        }
      ],
      "stateMutability": "view",
      "type": "function"
    },
    {
      "inputs": [],
      "name": "breedMinBeats",
      "outputs": [
        {
          "internalType": "uint64",
          "name": "",
          "type": "uint64"
        }
      ],
      "stateMutability": "view",
      "type": "function"
    },
    {
      "inputs": [],
      "name": "breedTraxCost",
      "outputs": [
        {
          "internalType": "uint64",
          "name": "",
          "type": "uint64"
        }
      ],
      "stateMutability": "view",
      "type": "function"
    },
    {
      "inputs": [
        {
          "internalType": "bytes32",
          "name": "role",
          "type": "bytes32"
        }
      ],
      "name": "getRoleAdmin",
      "outputs": [
        {
          "internalType": "bytes32",
          "name": "",
          "type": "bytes32"
        }
      ],
      "stateMutability": "view",
      "type": "function"
    },
    {
      "inputs": [
        {
          "internalType": "bytes32",
          "name": "role",
          "type": "bytes32"
        },
        {
          "internalType": "address",
          "name": "account",
          "type": "address"
        }
      ],
      "name": "grantRole",
      "outputs": [],
      "stateMutability": "nonpayable",
      "type": "function"
    },
    {
      "inputs": [
        {
          "internalType": "bytes32",
          "name": "role",
          "type": "bytes32"
        },
        {
          "internalType": "address",
          "name": "account",
          "type": "address"
        }
      ],
      "name": "hasRole",
      "outputs": [
        {
          "internalType": "bool",
          "name": "",
          "type": "bool"
        }
      ],
      "stateMutability": "view",
      "type": "function"
    },
    {
      "inputs": [],
      "name": "maxBopChilds",
      "outputs": [
        {
          "internalType": "uint64",
          "name": "",
          "type": "uint64"
        }
      ],
      "stateMutability": "view",
      "type": "function"
    },
    {
      "inputs": [
        {
          "internalType": "bytes32",
          "name": "role",
          "type": "bytes32"
        },
        {
          "internalType": "address",
          "name": "account",
          "type": "address"
        }
      ],
      "name": "renounceRole",
      "outputs": [],
      "stateMutability": "nonpayable",
      "type": "function"
    },
    {
      "inputs": [
        {
          "internalType": "bytes32",
          "name": "role",
          "type": "bytes32"
        },
        {
          "internalType": "address",
          "name": "account",
          "type": "address"
        }
      ],
      "name": "revokeRole",
      "outputs": [],
      "stateMutability": "nonpayable",
      "type": "function"
    },
    {
      "inputs": [],
      "name": "stablecoinUnravelFee",
      "outputs": [
        {
          "internalType": "uint32",
          "name": "",
          "type": "uint32"
        }
      ],
      "stateMutability": "view",
      "type": "function"
    },
    {
      "inputs": [
        {
          "internalType": "bytes4",
          "name": "interfaceId",
          "type": "bytes4"
        }
      ],
      "name": "supportsInterface",
      "outputs": [
        {
          "internalType": "bool",
          "name": "",
          "type": "bool"
        }
      ],
      "stateMutability": "view",
      "type": "function"
    },
    {
      "inputs": [],
      "name": "traxUnravelFee",
      "outputs": [
        {
          "internalType": "uint32",
          "name": "",
          "type": "uint32"
        }
      ],
      "stateMutability": "view",
      "type": "function"
    },
    {
      "inputs": [],
      "name": "getMinimumSecondsToSubscribe",
      "outputs": [
        {
          "internalType": "uint256",
          "name": "",
          "type": "uint256"
        }
      ],
      "stateMutability": "view",
      "type": "function"
    },
    {
      "inputs": [],
      "name": "getMaximumSecondsToApplyDiscount",
      "outputs": [
        {
          "internalType": "uint256",
          "name": "",
          "type": "uint256"
        }
      ],
      "stateMutability": "view",
      "type": "function"
    },
    {
      "inputs": [],
      "name": "getIncrementRate",
      "outputs": [
        {
          "internalType": "uint256",
          "name": "",
          "type": "uint256"
        }
      ],
      "stateMutability": "view",
      "type": "function"
    },
    {
      "inputs": [],
      "name": "getMaxDiscount",
      "outputs": [
        {
          "internalType": "uint256",
          "name": "",
          "type": "uint256"
        }
      ],
      "stateMutability": "view",
      "type": "function"
    },
    {
      "inputs": [],
      "name": "getStableCoin",
      "outputs": [
        {
          "internalType": "address",
          "name": "",
          "type": "address"
        }
      ],
      "stateMutability": "view",
      "type": "function"
    },
    {
      "inputs": [],
      "name": "getPodVotingPeriod",
      "outputs": [
        {
          "internalType": "uint256",
          "name": "",
          "type": "uint256"
        }
      ],
      "stateMutability": "view",
      "type": "function"
    },
    {
      "inputs": [
        {
          "internalType": "uint256",
          "name": "_quantity",
          "type": "uint256"
        }
      ],
      "name": "setMaxBopChilds",
      "outputs": [],
      "stateMutability": "nonpayable",
      "type": "function"
    },
    {
      "inputs": [
        {
          "internalType": "uint256",
          "name": "_maximumSecondsToApplyDiscount",
          "type": "uint256"
        }
      ],
      "name": "setMaximumSecondsToApplyDiscount",
      "outputs": [],
      "stateMutability": "nonpayable",
      "type": "function"
    },
    {
      "inputs": [
        {
          "internalType": "uint256",
          "name": "_incrementRate",
          "type": "uint256"
        }
      ],
      "name": "setIncrementRate",
      "outputs": [],
      "stateMutability": "nonpayable",
      "type": "function"
    },
    {
      "inputs": [
        {
          "internalType": "uint256",
          "name": "_maxDiscount",
          "type": "uint256"
        }
      ],
      "name": "setMaxDiscount",
      "outputs": [],
      "stateMutability": "nonpayable",
      "type": "function"
    },
    {
      "inputs": [
        {
          "internalType": "address",
          "name": "_stableCoin",
          "type": "address"
        }
      ],
      "name": "setStableCoin",
      "outputs": [],
      "stateMutability": "nonpayable",
      "type": "function"
    },
    {
      "inputs": [
        {
          "internalType": "uint256",
          "name": "_podVotingPeriod",
          "type": "uint256"
        }
      ],
      "name": "setPodVotingPeriod",
      "outputs": [],
      "stateMutability": "nonpayable",
      "type": "function"
    }
  ],
  "bytecode": "0x60806040526007600160006101000a81548167ffffffffffffffff021916908367ffffffffffffffff1602179055506003600a6200003e9190620004b3565b600160106101000a81548167ffffffffffffffff021916908367ffffffffffffffff1602179055506064600860006101000a81548163ffffffff021916908363ffffffff1602179055506064600860046101000a81548163ffffffff021916908363ffffffff160217905550348015620000b757600080fd5b5060405162001d5738038062001d578339818101604052810190620000dd91906200036b565b620000f26000801b33620001c460201b60201c565b620001247fdf8b4c520ffe197c5343c6f5aec59570151ef9a492f2c624fd45ddde6135ec4233620001c460201b60201c565b85600a62000133919062000462565b600160086101000a81548167ffffffffffffffff021916908367ffffffffffffffff1602179055508460028190555083600381905550826004819055508160058190555080600660006101000a81548173ffffffffffffffffffffffffffffffffffffffff021916908373ffffffffffffffffffffffffffffffffffffffff160217905550505050505050620006b0565b620001d68282620001da60201b60201c565b5050565b620001ec8282620002cb60201b60201c565b620002c757600160008084815260200190815260200160002060000160008373ffffffffffffffffffffffffffffffffffffffff1673ffffffffffffffffffffffffffffffffffffffff16815260200190815260200160002060006101000a81548160ff0219169083151502179055506200026c6200033560201b60201c565b73ffffffffffffffffffffffffffffffffffffffff168173ffffffffffffffffffffffffffffffffffffffff16837f2f8788117e7eff1d82e926ec794901d17c78024a50270940304540a733656f0d60405160405180910390a45b5050565b600080600084815260200190815260200160002060000160008373ffffffffffffffffffffffffffffffffffffffff1673ffffffffffffffffffffffffffffffffffffffff16815260200190815260200160002060009054906101000a900460ff16905092915050565b600033905090565b6000815190506200034e816200067c565b92915050565b600081519050620003658162000696565b92915050565b60008060008060008060c087890312156200038b576200038a6200066a565b5b60006200039b89828a0162000354565b9650506020620003ae89828a0162000354565b9550506040620003c189828a0162000354565b9450506060620003d489828a0162000354565b9350506080620003e789828a0162000354565b92505060a0620003fa89828a016200033d565b9150509295509295509295565b6000808291508390505b600185111562000459578086048111156200043157620004306200063b565b5b6001851615620004415780820291505b808102905062000451856200066f565b945062000411565b94509492505050565b60006200046f8262000624565b91506200047c8362000624565b9250620004ab7fffffffffffffffffffffffffffffffffffffffffffffffffffffffffffffffff848462000504565b905092915050565b6000620004c08262000624565b9150620004cd836200062e565b9250620004fc7fffffffffffffffffffffffffffffffffffffffffffffffffffffffffffffffff848462000504565b905092915050565b600082620005165760019050620005e9565b81620005265760009050620005e9565b81600181146200053f57600281146200054a5762000580565b6001915050620005e9565b60ff8411156200055f576200055e6200063b565b5b8360020a9150848211156200057957620005786200063b565b5b50620005e9565b5060208310610133831016604e8410600b8410161715620005ba5782820a905083811115620005b457620005b36200063b565b5b620005e9565b620005c9848484600162000407565b92509050818404811115620005e357620005e26200063b565b5b81810290505b9392505050565b6000620005fd8262000604565b9050919050565b600073ffffffffffffffffffffffffffffffffffffffff82169050919050565b6000819050919050565b600060ff82169050919050565b7f4e487b7100000000000000000000000000000000000000000000000000000000600052601160045260246000fd5b600080fd5b60008160011c9050919050565b6200068781620005f0565b81146200069357600080fd5b50565b620006a18162000624565b8114620006ad57600080fd5b50565b61169780620006c06000396000f3fe608060405234801561001057600080fd5b50600436106101a95760003560e01c806357fa00fc116100f9578063c656177311610097578063d52b5dee11610071578063d52b5dee14610486578063d547741f146104a4578063eec6a0fa146104c0578063f6c4a4bf146104de576101a9565b8063c65617731461042e578063c71732301461044c578063ccf288c614610468576101a9565b80637d0a7558116100d35780637d0a7558146103a4578063905bc7da146103c257806391d14854146103e0578063a217fddf14610410576101a9565b806357fa00fc1461034c57806363330b2c1461036857806371e7baaf14610386576101a9565b806325f6d890116101665780632dcf2166116101405780632dcf2166146102da5780632e48f175146102f85780632f2ff15d1461031457806336568abe14610330576101a9565b806325f6d890146102825780632a0acc6a146102a05780632d9c7fef146102be576101a9565b806301ffc9a7146101ae57806311fad312146101de57806318622bdc146101fa5780631bd817c91461021857806323af4e1714610236578063248a9ca314610252575b600080fd5b6101c860048036038101906101c39190610fa3565b6104fc565b6040516101d591906111b1565b60405180910390f35b6101f860048036038101906101f39190610fd0565b610576565b005b6102026105b3565b60405161020f9190611264565b60405180910390f35b6102206105c9565b60405161022d9190611196565b60405180910390f35b610250600480360381019061024b9190610f09565b6105f3565b005b61026c60048036038101906102679190610f36565b61066a565b60405161027991906111cc565b60405180910390f35b61028a610689565b6040516102979190611249565b60405180910390f35b6102a8610693565b6040516102b591906111cc565b60405180910390f35b6102d860048036038101906102d39190610fd0565b6106b7565b005b6102e26106f4565b6040516102ef919061127f565b60405180910390f35b610312600480360381019061030d9190610fd0565b61070e565b005b61032e60048036038101906103299190610f63565b61076d565b005b61034a60048036038101906103459190610f63565b610796565b005b61036660048036038101906103619190610fd0565b610819565b005b610370610856565b60405161037d919061127f565b60405180910390f35b61038e610870565b60405161039b9190611249565b60405180910390f35b6103ac61087a565b6040516103b99190611249565b60405180910390f35b6103ca610884565b6040516103d79190611249565b60405180910390f35b6103fa60048036038101906103f59190610f63565b61088e565b60405161040791906111b1565b60405180910390f35b6104186108f8565b60405161042591906111cc565b60405180910390f35b6104366108ff565b6040516104439190611264565b60405180910390f35b61046660048036038101906104619190610fd0565b610915565b005b610470610952565b60405161047d919061129a565b60405180910390f35b61048e610957565b60405161049b9190611249565b60405180910390f35b6104be60048036038101906104b99190610f63565b610961565b005b6104c861098a565b6040516104d5919061127f565b60405180910390f35b6104e66109a4565b6040516104f3919061129a565b60405180910390f35b60007f7965db0b000000000000000000000000000000000000000000000000000000007bffffffffffffffffffffffffffffffffffffffffffffffffffffffff1916827bffffffffffffffffffffffffffffffffffffffffffffffffffffffff1916148061056f575061056e826109a9565b5b9050919050565b7fdf8b4c520ffe197c5343c6f5aec59570151ef9a492f2c624fd45ddde6135ec426105a8816105a3610a13565b610a1b565b816005819055505050565b600860009054906101000a900463ffffffff1681565b6000600660009054906101000a900473ffffffffffffffffffffffffffffffffffffffff16905090565b7fdf8b4c520ffe197c5343c6f5aec59570151ef9a492f2c624fd45ddde6135ec4261062581610620610a13565b610a1b565b81600660006101000a81548173ffffffffffffffffffffffffffffffffffffffff021916908373ffffffffffffffffffffffffffffffffffffffff1602179055505050565b6000806000838152602001908152602001600020600101549050919050565b6000600354905090565b7fdf8b4c520ffe197c5343c6f5aec59570151ef9a492f2c624fd45ddde6135ec4281565b7fdf8b4c520ffe197c5343c6f5aec59570151ef9a492f2c624fd45ddde6135ec426106e9816106e4610a13565b610a1b565b816007819055505050565b600160109054906101000a900467ffffffffffffffff1681565b7fdf8b4c520ffe197c5343c6f5aec59570151ef9a492f2c624fd45ddde6135ec426107408161073b610a13565b610a1b565b81600160006101000a81548167ffffffffffffffff021916908367ffffffffffffffff1602179055505050565b6107768261066a565b61078781610782610a13565b610a1b565b6107918383610ab8565b505050565b61079e610a13565b73ffffffffffffffffffffffffffffffffffffffff168173ffffffffffffffffffffffffffffffffffffffff161461080b576040517f08c379a000000000000000000000000000000000000000000000000000000000815260040161080290611229565b60405180910390fd5b6108158282610b98565b5050565b7fdf8b4c520ffe197c5343c6f5aec59570151ef9a492f2c624fd45ddde6135ec4261084b81610846610a13565b610a1b565b816003819055505050565b600160009054906101000a900467ffffffffffffffff1681565b6000600554905090565b6000600254905090565b6000600754905090565b600080600084815260200190815260200160002060000160008373ffffffffffffffffffffffffffffffffffffffff1673ffffffffffffffffffffffffffffffffffffffff16815260200190815260200160002060009054906101000a900460ff16905092915050565b6000801b81565b600860049054906101000a900463ffffffff1681565b7fdf8b4c520ffe197c5343c6f5aec59570151ef9a492f2c624fd45ddde6135ec4261094781610942610a13565b610a1b565b816004819055505050565b600181565b6000600454905090565b61096a8261066a565b61097b81610976610a13565b610a1b565b6109858383610b98565b505050565b600160089054906101000a900467ffffffffffffffff1681565b600381565b60007f01ffc9a7000000000000000000000000000000000000000000000000000000007bffffffffffffffffffffffffffffffffffffffffffffffffffffffff1916827bffffffffffffffffffffffffffffffffffffffffffffffffffffffff1916149050919050565b600033905090565b610a25828261088e565b610ab457610a4a8173ffffffffffffffffffffffffffffffffffffffff166014610c79565b610a588360001c6020610c79565b604051602001610a6992919061115c565b6040516020818303038152906040526040517f08c379a0000000000000000000000000000000000000000000000000000000008152600401610aab91906111e7565b60405180910390fd5b5050565b610ac2828261088e565b610b9457600160008084815260200190815260200160002060000160008373ffffffffffffffffffffffffffffffffffffffff1673ffffffffffffffffffffffffffffffffffffffff16815260200190815260200160002060006101000a81548160ff021916908315150217905550610b39610a13565b73ffffffffffffffffffffffffffffffffffffffff168173ffffffffffffffffffffffffffffffffffffffff16837f2f8788117e7eff1d82e926ec794901d17c78024a50270940304540a733656f0d60405160405180910390a45b5050565b610ba2828261088e565b15610c7557600080600084815260200190815260200160002060000160008373ffffffffffffffffffffffffffffffffffffffff1673ffffffffffffffffffffffffffffffffffffffff16815260200190815260200160002060006101000a81548160ff021916908315150217905550610c1a610a13565b73ffffffffffffffffffffffffffffffffffffffff168173ffffffffffffffffffffffffffffffffffffffff16837ff6391f5c32d9c69d2a47ea670b442974b53935d1edc7fd64eb21e047a839171b60405160405180910390a45b5050565b606060006002836002610c8c9190611332565b610c9691906112dc565b67ffffffffffffffff811115610caf57610cae6114f6565b5b6040519080825280601f01601f191660200182016040528015610ce15781602001600182028036833780820191505090505b5090507f300000000000000000000000000000000000000000000000000000000000000081600081518110610d1957610d186114c7565b5b60200101907effffffffffffffffffffffffffffffffffffffffffffffffffffffffffffff1916908160001a9053507f780000000000000000000000000000000000000000000000000000000000000081600181518110610d7d57610d7c6114c7565b5b60200101907effffffffffffffffffffffffffffffffffffffffffffffffffffffffffffff1916908160001a90535060006001846002610dbd9190611332565b610dc791906112dc565b90505b6001811115610e67577f3031323334353637383961626364656600000000000000000000000000000000600f861660108110610e0957610e086114c7565b5b1a60f81b828281518110610e2057610e1f6114c7565b5b60200101907effffffffffffffffffffffffffffffffffffffffffffffffffffffffffffff1916908160001a905350600485901c945080610e609061146e565b9050610dca565b5060008414610eab576040517f08c379a0000000000000000000000000000000000000000000000000000000008152600401610ea290611209565b60405180910390fd5b8091505092915050565b600081359050610ec481611605565b92915050565b600081359050610ed98161161c565b92915050565b600081359050610eee81611633565b92915050565b600081359050610f038161164a565b92915050565b600060208284031215610f1f57610f1e611525565b5b6000610f2d84828501610eb5565b91505092915050565b600060208284031215610f4c57610f4b611525565b5b6000610f5a84828501610eca565b91505092915050565b60008060408385031215610f7a57610f79611525565b5b6000610f8885828601610eca565b9250506020610f9985828601610eb5565b9150509250929050565b600060208284031215610fb957610fb8611525565b5b6000610fc784828501610edf565b91505092915050565b600060208284031215610fe657610fe5611525565b5b6000610ff484828501610ef4565b91505092915050565b6110068161138c565b82525050565b6110158161139e565b82525050565b611024816113aa565b82525050565b6000611035826112b5565b61103f81856112c0565b935061104f81856020860161143b565b6110588161152a565b840191505092915050565b600061106e826112b5565b61107881856112d1565b935061108881856020860161143b565b80840191505092915050565b60006110a16020836112c0565b91506110ac8261153b565b602082019050919050565b60006110c46017836112d1565b91506110cf82611564565b601782019050919050565b60006110e76011836112d1565b91506110f28261158d565b601182019050919050565b600061110a602f836112c0565b9150611115826115b6565b604082019050919050565b61112981611400565b82525050565b6111388161140a565b82525050565b6111478161141a565b82525050565b6111568161142e565b82525050565b6000611167826110b7565b91506111738285611063565b915061117e826110da565b915061118a8284611063565b91508190509392505050565b60006020820190506111ab6000830184610ffd565b92915050565b60006020820190506111c6600083018461100c565b92915050565b60006020820190506111e1600083018461101b565b92915050565b60006020820190508181036000830152611201818461102a565b905092915050565b6000602082019050818103600083015261122281611094565b9050919050565b60006020820190508181036000830152611242816110fd565b9050919050565b600060208201905061125e6000830184611120565b92915050565b6000602082019050611279600083018461112f565b92915050565b6000602082019050611294600083018461113e565b92915050565b60006020820190506112af600083018461114d565b92915050565b600081519050919050565b600082825260208201905092915050565b600081905092915050565b60006112e782611400565b91506112f283611400565b9250827fffffffffffffffffffffffffffffffffffffffffffffffffffffffffffffffff0382111561132757611326611498565b5b828201905092915050565b600061133d82611400565b915061134883611400565b9250817fffffffffffffffffffffffffffffffffffffffffffffffffffffffffffffffff048311821515161561138157611380611498565b5b828202905092915050565b6000611397826113e0565b9050919050565b60008115159050919050565b6000819050919050565b60007fffffffff0000000000000000000000000000000000000000000000000000000082169050919050565b600073ffffffffffffffffffffffffffffffffffffffff82169050919050565b6000819050919050565b600063ffffffff82169050919050565b600067ffffffffffffffff82169050919050565b600060ff82169050919050565b60005b8381101561145957808201518184015260208101905061143e565b83811115611468576000848401525b50505050565b600061147982611400565b9150600082141561148d5761148c611498565b5b600182039050919050565b7f4e487b7100000000000000000000000000000000000000000000000000000000600052601160045260246000fd5b7f4e487b7100000000000000000000000000000000000000000000000000000000600052603260045260246000fd5b7f4e487b7100000000000000000000000000000000000000000000000000000000600052604160045260246000fd5b600080fd5b6000601f19601f8301169050919050565b7f537472696e67733a20686578206c656e67746820696e73756666696369656e74600082015250565b7f416363657373436f6e74726f6c3a206163636f756e7420000000000000000000600082015250565b7f206973206d697373696e6720726f6c6520000000000000000000000000000000600082015250565b7f416363657373436f6e74726f6c3a2063616e206f6e6c792072656e6f756e636560008201527f20726f6c657320666f722073656c660000000000000000000000000000000000602082015250565b61160e8161138c565b811461161957600080fd5b50565b611625816113aa565b811461163057600080fd5b50565b61163c816113b4565b811461164757600080fd5b50565b61165381611400565b811461165e57600080fd5b5056fea2646970667358221220c7097fab46caac6ba466654364741c44f799ece93abf2ec6834b28da50ecff5964736f6c63430008060033",
  "immutableReferences": {},
  "source": "// SPDX-License-Identifier: MIT\npragma solidity ^0.8.5;\n\nimport \"@openzeppelin/contracts/access/AccessControl.sol\";\n\n/**\n * @title Governance contract\n */\ncontract Governance is AccessControl {\n    bytes32 public constant ADMIN = keccak256(\"ADMIN\");\n    uint8 public constant FEE_DECIMALS = 1;\n    uint8 public constant BEATS_DECIMALS = 3;\n\n    uint64 public maxBopChilds = 7;\n    uint64 public breedTraxCost;\n    uint64 public breedMinBeats = uint64(10**BEATS_DECIMALS);\n\n    uint256 private minimumSecondsToSubscribe;\n    uint256 private maximumSecondsToApplyDiscount;\n    uint256 private incrementRate;\n    uint256 private maxDiscount;\n    address private stableCoin;\n    uint256 private podVotingPeriod;\n\n    // 10 percent for both fees (1 decimal for this values)\n    uint32 public traxUnravelFee = 100;\n    uint32 public stablecoinUnravelFee = 100;\n\n    constructor(\n        uint256 traxDecimals,\n        uint256 _minimumSecondsToSubscribe,\n        uint256 _maximumSecondsToApplyDiscount,\n        uint256 _incrementRate,\n        uint256 _maxDiscount,\n        address _stableCoin\n    ) {\n        _setupRole(DEFAULT_ADMIN_ROLE, msg.sender);\n        _setupRole(ADMIN, msg.sender);\n\n        breedTraxCost = uint64(10**traxDecimals);\n\n        minimumSecondsToSubscribe = _minimumSecondsToSubscribe;\n        maximumSecondsToApplyDiscount = _maximumSecondsToApplyDiscount;\n        incrementRate = _incrementRate;\n        maxDiscount = _maxDiscount;\n        stableCoin = _stableCoin;\n    }\n\n    function getMinimumSecondsToSubscribe() external view returns (uint256) {\n        return minimumSecondsToSubscribe;\n    }\n\n    function getMaximumSecondsToApplyDiscount() external view returns (uint256) {\n        return maximumSecondsToApplyDiscount;\n    }\n\n    function getIncrementRate() external view returns (uint256) {\n        return incrementRate;\n    }\n\n    function getMaxDiscount() external view returns (uint256) {\n        return maxDiscount;\n    }\n\n    function getStableCoin() external view returns (address) {\n        return stableCoin;\n    }\n\n    function getPodVotingPeriod() external view returns (uint256) {\n        return podVotingPeriod;\n    }\n\n    /**\n     * @param _quantity the new max number\n     */\n    function setMaxBopChilds(uint256 _quantity) external onlyRole(ADMIN) {\n        maxBopChilds = uint64(_quantity);\n    }\n\n    function setMaximumSecondsToApplyDiscount(uint256 _maximumSecondsToApplyDiscount) external onlyRole(ADMIN) {\n        maximumSecondsToApplyDiscount = _maximumSecondsToApplyDiscount;\n    }\n\n    function setIncrementRate(uint256 _incrementRate) external onlyRole(ADMIN) {\n        incrementRate = _incrementRate;\n    }\n\n    function setMaxDiscount(uint256 _maxDiscount) external onlyRole(ADMIN) {\n        maxDiscount = _maxDiscount;\n    }\n\n    function setStableCoin(address _stableCoin) external onlyRole(ADMIN) {\n        stableCoin = _stableCoin;\n    }\n\n    function setPodVotingPeriod(uint256 _podVotingPeriod) external onlyRole(ADMIN) {\n        podVotingPeriod = _podVotingPeriod;\n    }\n}\n",
  "sourcePath": "/Users/angelsatorresalmenara/Desktop/privi-pod/contracts/Governance.sol",
  "compiler": {
    "name": "solc",
    "version": "0.8.6+commit.11564f7e.Emscripten.clang"
  },
  "schemaVersion": "3.4.3",
  "updatedAt": "2021-09-15T13:47:31.609Z",
  "devdoc": {
    "kind": "dev",
    "methods": {
      "getRoleAdmin(bytes32)": {
        "details": "Returns the admin role that controls `role`. See {grantRole} and {revokeRole}. To change a role's admin, use {_setRoleAdmin}."
      },
      "grantRole(bytes32,address)": {
        "details": "Grants `role` to `account`. If `account` had not been already granted `role`, emits a {RoleGranted} event. Requirements: - the caller must have ``role``'s admin role."
      },
      "hasRole(bytes32,address)": {
        "details": "Returns `true` if `account` has been granted `role`."
      },
      "renounceRole(bytes32,address)": {
        "details": "Revokes `role` from the calling account. Roles are often managed via {grantRole} and {revokeRole}: this function's purpose is to provide a mechanism for accounts to lose their privileges if they are compromised (such as when a trusted device is misplaced). If the calling account had been granted `role`, emits a {RoleRevoked} event. Requirements: - the caller must be `account`."
      },
      "revokeRole(bytes32,address)": {
        "details": "Revokes `role` from `account`. If `account` had been granted `role`, emits a {RoleRevoked} event. Requirements: - the caller must have ``role``'s admin role."
      },
      "setMaxBopChilds(uint256)": {
        "params": {
          "_quantity": "the new max number"
        }
      },
      "supportsInterface(bytes4)": {
        "details": "See {IERC165-supportsInterface}."
      }
    },
    "title": "Governance contract",
    "version": 1
  },
  "userdoc": {
    "kind": "user",
    "methods": {},
    "version": 1
  }
}