{
  "contractName": "GovernanceMock",
  "abi": [
    {
      "inputs": [],
      "stateMutability": "nonpayable",
      "type": "constructor"
    },
    {
      "anonymous": false,
      "inputs": [
        {
          "indexed": true,
          "internalType": "bytes32",
          "name": "role",
          "type": "bytes32"
        },
        {
          "indexed": true,
          "internalType": "bytes32",
          "name": "previousAdminRole",
          "type": "bytes32"
        },
        {
          "indexed": true,
          "internalType": "bytes32",
          "name": "newAdminRole",
          "type": "bytes32"
        }
      ],
      "name": "RoleAdminChanged",
      "type": "event"
    },
    {
      "anonymous": false,
      "inputs": [
        {
          "indexed": true,
          "internalType": "bytes32",
          "name": "role",
          "type": "bytes32"
        },
        {
          "indexed": true,
          "internalType": "address",
          "name": "account",
          "type": "address"
        },
        {
          "indexed": true,
          "internalType": "address",
          "name": "sender",
          "type": "address"
        }
      ],
      "name": "RoleGranted",
      "type": "event"
    },
    {
      "anonymous": false,
      "inputs": [
        {
          "indexed": true,
          "internalType": "bytes32",
          "name": "role",
          "type": "bytes32"
        },
        {
          "indexed": true,
          "internalType": "address",
          "name": "account",
          "type": "address"
        },
        {
          "indexed": true,
          "internalType": "address",
          "name": "sender",
          "type": "address"
        }
      ],
      "name": "RoleRevoked",
      "type": "event"
    },
    {
      "inputs": [],
      "name": "ADMIN",
      "outputs": [
        {
          "internalType": "bytes32",
          "name": "",
          "type": "bytes32"
        }
      ],
      "stateMutability": "view",
      "type": "function"
    },
    {
      "inputs": [],
      "name": "BEATS_DECIMALS",
      "outputs": [
        {
          "internalType": "uint8",
          "name": "",
          "type": "uint8"
        }
      ],
      "stateMutability": "view",
      "type": "function"
    },
    {
      "inputs": [],
      "name": "DEFAULT_ADMIN_ROLE",
      "outputs": [
        {
          "internalType": "bytes32",
          "name": "",
          "type": "bytes32"
        }
      ],
      "stateMutability": "view",
      "type": "function"
    },
    {
      "inputs": [],
      "name": "FEE_DECIMALS",
      "outputs": [
        {
          "internalType": "uint8",
          "name": "",
          "type": "uint8"
        }
      ],
      "stateMutability": "view",
      "type": "function"
    },
    {
      "inputs": [],
      "name": "breedMinBeats",
      "outputs": [
        {
          "internalType": "uint64",
          "name": "",
          "type": "uint64"
        }
      ],
      "stateMutability": "view",
      "type": "function"
    },
    {
      "inputs": [],
      "name": "breedTraxCost",
      "outputs": [
        {
          "internalType": "uint64",
          "name": "",
          "type": "uint64"
        }
      ],
      "stateMutability": "view",
      "type": "function"
    },
    {
      "inputs": [
        {
          "internalType": "bytes32",
          "name": "role",
          "type": "bytes32"
        }
      ],
      "name": "getRoleAdmin",
      "outputs": [
        {
          "internalType": "bytes32",
          "name": "",
          "type": "bytes32"
        }
      ],
      "stateMutability": "view",
      "type": "function"
    },
    {
      "inputs": [
        {
          "internalType": "bytes32",
          "name": "role",
          "type": "bytes32"
        },
        {
          "internalType": "address",
          "name": "account",
          "type": "address"
        }
      ],
      "name": "grantRole",
      "outputs": [],
      "stateMutability": "nonpayable",
      "type": "function"
    },
    {
      "inputs": [
        {
          "internalType": "bytes32",
          "name": "role",
          "type": "bytes32"
        },
        {
          "internalType": "address",
          "name": "account",
          "type": "address"
        }
      ],
      "name": "hasRole",
      "outputs": [
        {
          "internalType": "bool",
          "name": "",
          "type": "bool"
        }
      ],
      "stateMutability": "view",
      "type": "function"
    },
    {
      "inputs": [],
      "name": "maxBopChilds",
      "outputs": [
        {
          "internalType": "uint64",
          "name": "",
          "type": "uint64"
        }
      ],
      "stateMutability": "view",
      "type": "function"
    },
    {
      "inputs": [
        {
          "internalType": "bytes32",
          "name": "role",
          "type": "bytes32"
        },
        {
          "internalType": "address",
          "name": "account",
          "type": "address"
        }
      ],
      "name": "renounceRole",
      "outputs": [],
      "stateMutability": "nonpayable",
      "type": "function"
    },
    {
      "inputs": [
        {
          "internalType": "bytes32",
          "name": "role",
          "type": "bytes32"
        },
        {
          "internalType": "address",
          "name": "account",
          "type": "address"
        }
      ],
      "name": "revokeRole",
      "outputs": [],
      "stateMutability": "nonpayable",
      "type": "function"
    },
    {
      "inputs": [
        {
          "internalType": "uint256",
          "name": "_quantity",
          "type": "uint256"
        }
      ],
      "name": "setMaxBopChilds",
      "outputs": [],
      "stateMutability": "nonpayable",
      "type": "function"
    },
    {
      "inputs": [],
      "name": "stablecoinUnravelFee",
      "outputs": [
        {
          "internalType": "uint32",
          "name": "",
          "type": "uint32"
        }
      ],
      "stateMutability": "view",
      "type": "function"
    },
    {
      "inputs": [
        {
          "internalType": "bytes4",
          "name": "interfaceId",
          "type": "bytes4"
        }
      ],
      "name": "supportsInterface",
      "outputs": [
        {
          "internalType": "bool",
          "name": "",
          "type": "bool"
        }
      ],
      "stateMutability": "view",
      "type": "function"
    },
    {
      "inputs": [],
      "name": "traxUnravelFee",
      "outputs": [
        {
          "internalType": "uint32",
          "name": "",
          "type": "uint32"
        }
      ],
      "stateMutability": "view",
      "type": "function"
    }
  ],
  "bytecode": "0x60806040526007600160006101000a81548167ffffffffffffffff021916908367ffffffffffffffff1602179055506003600a6200003e919062000364565b600160106101000a81548167ffffffffffffffff021916908367ffffffffffffffff1602179055506064600160186101000a81548163ffffffff021916908363ffffffff16021790555060646001601c6101000a81548163ffffffff021916908363ffffffff160217905550348015620000b757600080fd5b50601280600a620000c9919062000313565b600160086101000a81548167ffffffffffffffff021916908367ffffffffffffffff160217905550620001066000801b336200013f60201b60201c565b620001387fdf8b4c520ffe197c5343c6f5aec59570151ef9a492f2c624fd45ddde6135ec42336200013f60201b60201c565b50620004f4565b6200015182826200015560201b60201c565b5050565b6200016782826200024660201b60201c565b6200024257600160008084815260200190815260200160002060000160008373ffffffffffffffffffffffffffffffffffffffff1673ffffffffffffffffffffffffffffffffffffffff16815260200190815260200160002060006101000a81548160ff021916908315150217905550620001e7620002b060201b60201c565b73ffffffffffffffffffffffffffffffffffffffff168173ffffffffffffffffffffffffffffffffffffffff16837f2f8788117e7eff1d82e926ec794901d17c78024a50270940304540a733656f0d60405160405180910390a45b5050565b600080600084815260200190815260200160002060000160008373ffffffffffffffffffffffffffffffffffffffff1673ffffffffffffffffffffffffffffffffffffffff16815260200190815260200160002060009054906101000a900460ff16905092915050565b600033905090565b6000808291508390505b60018511156200030a57808604811115620002e257620002e1620004b8565b5b6001851615620002f25780820291505b80810290506200030285620004e7565b9450620002c2565b94509492505050565b60006200032082620004a1565b91506200032d83620004a1565b92506200035c7fffffffffffffffffffffffffffffffffffffffffffffffffffffffffffffffff8484620003b5565b905092915050565b60006200037182620004a1565b91506200037e83620004ab565b9250620003ad7fffffffffffffffffffffffffffffffffffffffffffffffffffffffffffffffff8484620003b5565b905092915050565b600082620003c757600190506200049a565b81620003d757600090506200049a565b8160018114620003f05760028114620003fb5762000431565b60019150506200049a565b60ff84111562000410576200040f620004b8565b5b8360020a9150848211156200042a5762000429620004b8565b5b506200049a565b5060208310610133831016604e8410600b84101617156200046b5782820a905083811115620004655762000464620004b8565b5b6200049a565b6200047a8484846001620002b8565b92509050818404811115620004945762000493620004b8565b5b81810290505b9392505050565b6000819050919050565b600060ff82169050919050565b7f4e487b7100000000000000000000000000000000000000000000000000000000600052601160045260246000fd5b60008160011c9050919050565b61126680620005046000396000f3fe608060405234801561001057600080fd5b50600436106101005760003560e01c806363330b2c11610097578063ccf288c611610066578063ccf288c61461029d578063d547741f146102bb578063eec6a0fa146102d7578063f6c4a4bf146102f557610100565b806363330b2c1461021357806391d1485414610231578063a217fddf14610261578063c65617731461027f57610100565b80632dcf2166116100d35780632dcf2166146101a15780632e48f175146101bf5780632f2ff15d146101db57806336568abe146101f757610100565b806301ffc9a71461010557806318622bdc14610135578063248a9ca3146101535780632a0acc6a14610183575b600080fd5b61011f600480360381019061011a9190610bc6565b610313565b60405161012c9190610d9b565b60405180910390f35b61013d61038d565b60405161014a9190610e33565b60405180910390f35b61016d60048036038101906101689190610b59565b6103a3565b60405161017a9190610db6565b60405180910390f35b61018b6103c2565b6040516101989190610db6565b60405180910390f35b6101a96103e6565b6040516101b69190610e4e565b60405180910390f35b6101d960048036038101906101d49190610bf3565b610400565b005b6101f560048036038101906101f09190610b86565b61045f565b005b610211600480360381019061020c9190610b86565b610488565b005b61021b61050b565b6040516102289190610e4e565b60405180910390f35b61024b60048036038101906102469190610b86565b610525565b6040516102589190610d9b565b60405180910390f35b61026961058f565b6040516102769190610db6565b60405180910390f35b610287610596565b6040516102949190610e33565b60405180910390f35b6102a56105ac565b6040516102b29190610e69565b60405180910390f35b6102d560048036038101906102d09190610b86565b6105b1565b005b6102df6105da565b6040516102ec9190610e4e565b60405180910390f35b6102fd6105f4565b60405161030a9190610e69565b60405180910390f35b60007f7965db0b000000000000000000000000000000000000000000000000000000007bffffffffffffffffffffffffffffffffffffffffffffffffffffffff1916827bffffffffffffffffffffffffffffffffffffffffffffffffffffffff191614806103865750610385826105f9565b5b9050919050565b600160189054906101000a900463ffffffff1681565b6000806000838152602001908152602001600020600101549050919050565b7fdf8b4c520ffe197c5343c6f5aec59570151ef9a492f2c624fd45ddde6135ec4281565b600160109054906101000a900467ffffffffffffffff1681565b7fdf8b4c520ffe197c5343c6f5aec59570151ef9a492f2c624fd45ddde6135ec426104328161042d610663565b61066b565b81600160006101000a81548167ffffffffffffffff021916908367ffffffffffffffff1602179055505050565b610468826103a3565b61047981610474610663565b61066b565b6104838383610708565b505050565b610490610663565b73ffffffffffffffffffffffffffffffffffffffff168173ffffffffffffffffffffffffffffffffffffffff16146104fd576040517f08c379a00000000000000000000000000000000000000000000000000000000081526004016104f490610e13565b60405180910390fd5b61050782826107e8565b5050565b600160009054906101000a900467ffffffffffffffff1681565b600080600084815260200190815260200160002060000160008373ffffffffffffffffffffffffffffffffffffffff1673ffffffffffffffffffffffffffffffffffffffff16815260200190815260200160002060009054906101000a900460ff16905092915050565b6000801b81565b6001601c9054906101000a900463ffffffff1681565b600181565b6105ba826103a3565b6105cb816105c6610663565b61066b565b6105d583836107e8565b505050565b600160089054906101000a900467ffffffffffffffff1681565b600381565b60007f01ffc9a7000000000000000000000000000000000000000000000000000000007bffffffffffffffffffffffffffffffffffffffffffffffffffffffff1916827bffffffffffffffffffffffffffffffffffffffffffffffffffffffff1916149050919050565b600033905090565b6106758282610525565b6107045761069a8173ffffffffffffffffffffffffffffffffffffffff1660146108c9565b6106a88360001c60206108c9565b6040516020016106b9929190610d61565b6040516020818303038152906040526040517f08c379a00000000000000000000000000000000000000000000000000000000081526004016106fb9190610dd1565b60405180910390fd5b5050565b6107128282610525565b6107e457600160008084815260200190815260200160002060000160008373ffffffffffffffffffffffffffffffffffffffff1673ffffffffffffffffffffffffffffffffffffffff16815260200190815260200160002060006101000a81548160ff021916908315150217905550610789610663565b73ffffffffffffffffffffffffffffffffffffffff168173ffffffffffffffffffffffffffffffffffffffff16837f2f8788117e7eff1d82e926ec794901d17c78024a50270940304540a733656f0d60405160405180910390a45b5050565b6107f28282610525565b156108c557600080600084815260200190815260200160002060000160008373ffffffffffffffffffffffffffffffffffffffff1673ffffffffffffffffffffffffffffffffffffffff16815260200190815260200160002060006101000a81548160ff02191690831515021790555061086a610663565b73ffffffffffffffffffffffffffffffffffffffff168173ffffffffffffffffffffffffffffffffffffffff16837ff6391f5c32d9c69d2a47ea670b442974b53935d1edc7fd64eb21e047a839171b60405160405180910390a45b5050565b6060600060028360026108dc9190610f01565b6108e69190610eab565b67ffffffffffffffff8111156108ff576108fe6110c5565b5b6040519080825280601f01601f1916602001820160405280156109315781602001600182028036833780820191505090505b5090507f30000000000000000000000000000000000000000000000000000000000000008160008151811061096957610968611096565b5b60200101907effffffffffffffffffffffffffffffffffffffffffffffffffffffffffffff1916908160001a9053507f7800000000000000000000000000000000000000000000000000000000000000816001815181106109cd576109cc611096565b5b60200101907effffffffffffffffffffffffffffffffffffffffffffffffffffffffffffff1916908160001a90535060006001846002610a0d9190610f01565b610a179190610eab565b90505b6001811115610ab7577f3031323334353637383961626364656600000000000000000000000000000000600f861660108110610a5957610a58611096565b5b1a60f81b828281518110610a7057610a6f611096565b5b60200101907effffffffffffffffffffffffffffffffffffffffffffffffffffffffffffff1916908160001a905350600485901c945080610ab09061103d565b9050610a1a565b5060008414610afb576040517f08c379a0000000000000000000000000000000000000000000000000000000008152600401610af290610df3565b60405180910390fd5b8091505092915050565b600081359050610b14816111d4565b92915050565b600081359050610b29816111eb565b92915050565b600081359050610b3e81611202565b92915050565b600081359050610b5381611219565b92915050565b600060208284031215610b6f57610b6e6110f4565b5b6000610b7d84828501610b1a565b91505092915050565b60008060408385031215610b9d57610b9c6110f4565b5b6000610bab85828601610b1a565b9250506020610bbc85828601610b05565b9150509250929050565b600060208284031215610bdc57610bdb6110f4565b5b6000610bea84828501610b2f565b91505092915050565b600060208284031215610c0957610c086110f4565b5b6000610c1784828501610b44565b91505092915050565b610c2981610f6d565b82525050565b610c3881610f79565b82525050565b6000610c4982610e84565b610c538185610e8f565b9350610c6381856020860161100a565b610c6c816110f9565b840191505092915050565b6000610c8282610e84565b610c8c8185610ea0565b9350610c9c81856020860161100a565b80840191505092915050565b6000610cb5602083610e8f565b9150610cc08261110a565b602082019050919050565b6000610cd8601783610ea0565b9150610ce382611133565b601782019050919050565b6000610cfb601183610ea0565b9150610d068261115c565b601182019050919050565b6000610d1e602f83610e8f565b9150610d2982611185565b604082019050919050565b610d3d81610fd9565b82525050565b610d4c81610fe9565b82525050565b610d5b81610ffd565b82525050565b6000610d6c82610ccb565b9150610d788285610c77565b9150610d8382610cee565b9150610d8f8284610c77565b91508190509392505050565b6000602082019050610db06000830184610c20565b92915050565b6000602082019050610dcb6000830184610c2f565b92915050565b60006020820190508181036000830152610deb8184610c3e565b905092915050565b60006020820190508181036000830152610e0c81610ca8565b9050919050565b60006020820190508181036000830152610e2c81610d11565b9050919050565b6000602082019050610e486000830184610d34565b92915050565b6000602082019050610e636000830184610d43565b92915050565b6000602082019050610e7e6000830184610d52565b92915050565b600081519050919050565b600082825260208201905092915050565b600081905092915050565b6000610eb682610fcf565b9150610ec183610fcf565b9250827fffffffffffffffffffffffffffffffffffffffffffffffffffffffffffffffff03821115610ef657610ef5611067565b5b828201905092915050565b6000610f0c82610fcf565b9150610f1783610fcf565b9250817fffffffffffffffffffffffffffffffffffffffffffffffffffffffffffffffff0483118215151615610f5057610f4f611067565b5b828202905092915050565b6000610f6682610faf565b9050919050565b60008115159050919050565b6000819050919050565b60007fffffffff0000000000000000000000000000000000000000000000000000000082169050919050565b600073ffffffffffffffffffffffffffffffffffffffff82169050919050565b6000819050919050565b600063ffffffff82169050919050565b600067ffffffffffffffff82169050919050565b600060ff82169050919050565b60005b8381101561102857808201518184015260208101905061100d565b83811115611037576000848401525b50505050565b600061104882610fcf565b9150600082141561105c5761105b611067565b5b600182039050919050565b7f4e487b7100000000000000000000000000000000000000000000000000000000600052601160045260246000fd5b7f4e487b7100000000000000000000000000000000000000000000000000000000600052603260045260246000fd5b7f4e487b7100000000000000000000000000000000000000000000000000000000600052604160045260246000fd5b600080fd5b6000601f19601f8301169050919050565b7f537472696e67733a20686578206c656e67746820696e73756666696369656e74600082015250565b7f416363657373436f6e74726f6c3a206163636f756e7420000000000000000000600082015250565b7f206973206d697373696e6720726f6c6520000000000000000000000000000000600082015250565b7f416363657373436f6e74726f6c3a2063616e206f6e6c792072656e6f756e636560008201527f20726f6c657320666f722073656c660000000000000000000000000000000000602082015250565b6111dd81610f5b565b81146111e857600080fd5b50565b6111f481610f79565b81146111ff57600080fd5b50565b61120b81610f83565b811461121657600080fd5b50565b61122281610fcf565b811461122d57600080fd5b5056fea2646970667358221220fa083a6a97a5b68696abad9ccfef5a1c82ea291b53a3be38a210b2c4121baf0964736f6c63430008060033",
  "immutableReferences": {},
  "source": "// SPDX-License-Identifier: MIT\npragma solidity ^0.8.5;\n\nimport \"../Governance.sol\";\n\n/**\n * @title Governance contract\n */\ncontract GovernanceMock is Governance {\n    // solhint-disable-next-line\n    constructor() Governance(18) {}\n}\n",
  "sourcePath": "/Users/angelsatorresalmenara/Desktop/privi-trax-smart-contracts/contracts/mocks/GovernanceMock.sol",
  "compiler": {
    "name": "solc",
    "version": "0.8.6+commit.11564f7e.Emscripten.clang"
  },
  "schemaVersion": "3.4.2",
  "updatedAt": "2021-09-02T15:22:21.221Z",
  "devdoc": {
    "kind": "dev",
    "methods": {
      "getRoleAdmin(bytes32)": {
        "details": "Returns the admin role that controls `role`. See {grantRole} and {revokeRole}. To change a role's admin, use {_setRoleAdmin}."
      },
      "grantRole(bytes32,address)": {
        "details": "Grants `role` to `account`. If `account` had not been already granted `role`, emits a {RoleGranted} event. Requirements: - the caller must have ``role``'s admin role."
      },
      "hasRole(bytes32,address)": {
        "details": "Returns `true` if `account` has been granted `role`."
      },
      "renounceRole(bytes32,address)": {
        "details": "Revokes `role` from the calling account. Roles are often managed via {grantRole} and {revokeRole}: this function's purpose is to provide a mechanism for accounts to lose their privileges if they are compromised (such as when a trusted device is misplaced). If the calling account had been granted `role`, emits a {RoleRevoked} event. Requirements: - the caller must be `account`."
      },
      "revokeRole(bytes32,address)": {
        "details": "Revokes `role` from `account`. If `account` had been granted `role`, emits a {RoleRevoked} event. Requirements: - the caller must have ``role``'s admin role."
      },
      "setMaxBopChilds(uint256)": {
        "params": {
          "_quantity": "the new max number"
        }
      },
      "supportsInterface(bytes4)": {
        "details": "See {IERC165-supportsInterface}."
      }
    },
    "title": "Governance contract",
    "version": 1
  },
  "userdoc": {
    "kind": "user",
    "methods": {},
    "version": 1
  }
}