{
  "contractName": "IncreasingPriceERC721Auction",
  "abi": [
    {
      "anonymous": false,
      "inputs": [
        {
          "indexed": true,
          "internalType": "string",
          "name": "_mediaSymbol",
          "type": "string"
        },
        {
          "indexed": true,
          "internalType": "string",
          "name": "_tokenSymbol",
          "type": "string"
        },
        {
          "indexed": true,
          "internalType": "address",
          "name": "_bidder",
          "type": "address"
        },
        {
          "indexed": false,
          "internalType": "uint256",
          "name": "_amount",
          "type": "uint256"
        }
      ],
      "name": "AuctionAccepted",
      "type": "event"
    },
    {
      "anonymous": false,
      "inputs": [
        {
          "indexed": true,
          "internalType": "string",
          "name": "_mediaSymbol",
          "type": "string"
        },
        {
          "indexed": true,
          "internalType": "string",
          "name": "_tokenSymbol",
          "type": "string"
        },
        {
          "indexed": true,
          "internalType": "address",
          "name": "_bidder",
          "type": "address"
        },
        {
          "indexed": false,
          "internalType": "uint256",
          "name": "_amount",
          "type": "uint256"
        }
      ],
      "name": "AuctionCanceled",
      "type": "event"
    },
    {
      "anonymous": false,
      "inputs": [
        {
          "indexed": true,
          "internalType": "string",
          "name": "_mediaSymbol",
          "type": "string"
        },
        {
          "indexed": true,
          "internalType": "string",
          "name": "_tokenSymbol",
          "type": "string"
        },
        {
          "indexed": true,
          "internalType": "address",
          "name": "_owner",
          "type": "address"
        },
        {
          "indexed": false,
          "internalType": "uint256",
          "name": "_reservePrice",
          "type": "uint256"
        },
        {
          "indexed": false,
          "internalType": "uint256",
          "name": "_bidIncrement",
          "type": "uint256"
        },
        {
          "indexed": false,
          "internalType": "uint256",
          "name": "_startTime",
          "type": "uint256"
        },
        {
          "indexed": false,
          "internalType": "uint256",
          "name": "_endTime",
          "type": "uint256"
        }
      ],
      "name": "AuctionCreated",
      "type": "event"
    },
    {
      "anonymous": false,
      "inputs": [
        {
          "indexed": true,
          "internalType": "string",
          "name": "_mediaSymbol",
          "type": "string"
        },
        {
          "indexed": true,
          "internalType": "string",
          "name": "_tokenSymbol",
          "type": "string"
        },
        {
          "indexed": true,
          "internalType": "address",
          "name": "_oldBidder",
          "type": "address"
        },
        {
          "indexed": false,
          "internalType": "uint256",
          "name": "reservePrice",
          "type": "uint256"
        },
        {
          "indexed": false,
          "internalType": "uint256",
          "name": "newReservePrice",
          "type": "uint256"
        },
        {
          "indexed": false,
          "internalType": "uint256",
          "name": "newBidIncrement",
          "type": "uint256"
        },
        {
          "indexed": false,
          "internalType": "uint256",
          "name": "newEndTime",
          "type": "uint256"
        }
      ],
      "name": "AuctionRestarted",
      "type": "event"
    },
    {
      "anonymous": false,
      "inputs": [
        {
          "indexed": true,
          "internalType": "string",
          "name": "_mediaSymbol",
          "type": "string"
        },
        {
          "indexed": true,
          "internalType": "string",
          "name": "_tokenSymbol",
          "type": "string"
        },
        {
          "indexed": true,
          "internalType": "address",
          "name": "_bidder",
          "type": "address"
        },
        {
          "indexed": false,
          "internalType": "uint256",
          "name": "_amount",
          "type": "uint256"
        }
      ],
      "name": "Bid",
      "type": "event"
    },
    {
      "anonymous": false,
      "inputs": [
        {
          "indexed": true,
          "internalType": "address",
          "name": "previousOwner",
          "type": "address"
        },
        {
          "indexed": true,
          "internalType": "address",
          "name": "newOwner",
          "type": "address"
        }
      ],
      "name": "OwnershipTransferred",
      "type": "event"
    },
    {
      "inputs": [
        {
          "internalType": "string",
          "name": "",
          "type": "string"
        },
        {
          "internalType": "string",
          "name": "",
          "type": "string"
        }
      ],
      "name": "auctions",
      "outputs": [
        {
          "internalType": "address",
          "name": "tokenAddress",
          "type": "address"
        },
        {
          "internalType": "uint256",
          "name": "tokenId",
          "type": "uint256"
        },
        {
          "internalType": "address",
          "name": "owner",
          "type": "address"
        },
        {
          "internalType": "uint256",
          "name": "reservePrice",
          "type": "uint256"
        },
        {
          "internalType": "bytes32",
          "name": "ipfsHash",
          "type": "bytes32"
        },
        {
          "internalType": "uint64",
          "name": "startTime",
          "type": "uint64"
        },
        {
          "internalType": "uint64",
          "name": "endTime",
          "type": "uint64"
        },
        {
          "internalType": "uint256",
          "name": "currentBid",
          "type": "uint256"
        },
        {
          "internalType": "uint64",
          "name": "bidIncrement",
          "type": "uint64"
        },
        {
          "internalType": "address payable",
          "name": "currentBidder",
          "type": "address"
        },
        {
          "internalType": "contract IERC20",
          "name": "bidToken",
          "type": "address"
        }
      ],
      "stateMutability": "view",
      "type": "function"
    },
    {
      "inputs": [
        {
          "internalType": "address",
          "name": "",
          "type": "address"
        },
        {
          "internalType": "address",
          "name": "",
          "type": "address"
        },
        {
          "internalType": "uint256",
          "name": "",
          "type": "uint256"
        },
        {
          "internalType": "bytes",
          "name": "",
          "type": "bytes"
        }
      ],
      "name": "onERC721Received",
      "outputs": [
        {
          "internalType": "bytes4",
          "name": "",
          "type": "bytes4"
        }
      ],
      "stateMutability": "nonpayable",
      "type": "function"
    },
    {
      "inputs": [],
      "name": "owner",
      "outputs": [
        {
          "internalType": "address",
          "name": "",
          "type": "address"
        }
      ],
      "stateMutability": "view",
      "type": "function"
    },
    {
      "inputs": [],
      "name": "renounceOwnership",
      "outputs": [],
      "stateMutability": "nonpayable",
      "type": "function"
    },
    {
      "inputs": [
        {
          "internalType": "address",
          "name": "newOwner",
          "type": "address"
        }
      ],
      "name": "transferOwnership",
      "outputs": [],
      "stateMutability": "nonpayable",
      "type": "function"
    },
    {
      "inputs": [
        {
          "components": [
            {
              "internalType": "address",
              "name": "tokenAddress",
              "type": "address"
            },
            {
              "internalType": "uint256",
              "name": "tokenId",
              "type": "uint256"
            },
            {
              "internalType": "string",
              "name": "mediaSymbol",
              "type": "string"
            },
            {
              "internalType": "string",
              "name": "tokenSymbol",
              "type": "string"
            },
            {
              "internalType": "uint256",
              "name": "reservePrice",
              "type": "uint256"
            },
            {
              "internalType": "bytes32",
              "name": "ipfsHash",
              "type": "bytes32"
            },
            {
              "internalType": "uint256",
              "name": "bidIncrement",
              "type": "uint256"
            },
            {
              "internalType": "uint256",
              "name": "startTime",
              "type": "uint256"
            },
            {
              "internalType": "uint256",
              "name": "endTime",
              "type": "uint256"
            },
            {
              "internalType": "address",
              "name": "bidToken",
              "type": "address"
            }
          ],
          "internalType": "struct IncreasingPriceERC721Auction.CreateAuctionRequest",
          "name": "input",
          "type": "tuple"
        }
      ],
      "name": "createAuction",
      "outputs": [],
      "stateMutability": "nonpayable",
      "type": "function"
    },
    {
      "inputs": [
        {
          "internalType": "string",
          "name": "mediaSymbol",
          "type": "string"
        },
        {
          "internalType": "string",
          "name": "tokenSymbol",
          "type": "string"
        }
      ],
      "name": "getAuctionsByPartialCompositeKey",
      "outputs": [
        {
          "components": [
            {
              "internalType": "address",
              "name": "tokenAddress",
              "type": "address"
            },
            {
              "internalType": "uint256",
              "name": "tokenId",
              "type": "uint256"
            },
            {
              "internalType": "address",
              "name": "owner",
              "type": "address"
            },
            {
              "internalType": "uint256",
              "name": "reservePrice",
              "type": "uint256"
            },
            {
              "internalType": "bytes32",
              "name": "ipfsHash",
              "type": "bytes32"
            },
            {
              "internalType": "uint64",
              "name": "startTime",
              "type": "uint64"
            },
            {
              "internalType": "uint64",
              "name": "endTime",
              "type": "uint64"
            },
            {
              "internalType": "uint256",
              "name": "currentBid",
              "type": "uint256"
            },
            {
              "internalType": "uint64",
              "name": "bidIncrement",
              "type": "uint64"
            },
            {
              "internalType": "address payable",
              "name": "currentBidder",
              "type": "address"
            },
            {
              "internalType": "contract IERC20",
              "name": "bidToken",
              "type": "address"
            }
          ],
          "internalType": "struct IncreasingPriceERC721Auction.Auction",
          "name": "_auction",
          "type": "tuple"
        },
        {
          "internalType": "bool",
          "name": "canBid",
          "type": "bool"
        }
      ],
      "stateMutability": "view",
      "type": "function"
    },
    {
      "inputs": [
        {
          "components": [
            {
              "internalType": "string",
              "name": "mediaSymbol",
              "type": "string"
            },
            {
              "internalType": "string",
              "name": "tokenSymbol",
              "type": "string"
            },
            {
              "internalType": "address",
              "name": "_address",
              "type": "address"
            },
            {
              "internalType": "address",
              "name": "fromAddress",
              "type": "address"
            },
            {
              "internalType": "uint256",
              "name": "amount",
              "type": "uint256"
            }
          ],
          "internalType": "struct IncreasingPriceERC721Auction.PlaceBidRequest",
          "name": "input",
          "type": "tuple"
        }
      ],
      "name": "placeBid",
      "outputs": [],
      "stateMutability": "payable",
      "type": "function"
    },
    {
      "inputs": [
        {
          "components": [
            {
              "internalType": "string",
              "name": "mediaSymbol",
              "type": "string"
            },
            {
              "internalType": "string",
              "name": "tokenSymbol",
              "type": "string"
            }
          ],
          "internalType": "struct IncreasingPriceERC721Auction.WithdrawAuctionRequest",
          "name": "input",
          "type": "tuple"
        }
      ],
      "name": "withdrawAuction",
      "outputs": [],
      "stateMutability": "nonpayable",
      "type": "function"
    },
    {
      "inputs": [
        {
          "components": [
            {
              "internalType": "string",
              "name": "mediaSymbol",
              "type": "string"
            },
            {
              "internalType": "string",
              "name": "tokenSymbol",
              "type": "string"
            },
            {
              "internalType": "uint256",
              "name": "reservePrice",
              "type": "uint256"
            },
            {
              "internalType": "uint256",
              "name": "bidIncrement",
              "type": "uint256"
            },
            {
              "internalType": "uint256",
              "name": "endTime",
              "type": "uint256"
            },
            {
              "internalType": "bytes32",
              "name": "ipfsHash",
              "type": "bytes32"
            }
          ],
          "internalType": "struct IncreasingPriceERC721Auction.ResetAuctionRequest",
          "name": "input",
          "type": "tuple"
        }
      ],
      "name": "resetAuction",
      "outputs": [],
      "stateMutability": "nonpayable",
      "type": "function"
    },
    {
      "inputs": [
        {
          "components": [
            {
              "internalType": "string",
              "name": "mediaSymbol",
              "type": "string"
            },
            {
              "internalType": "string",
              "name": "tokenSymbol",
              "type": "string"
            }
          ],
          "internalType": "struct IncreasingPriceERC721Auction.CancelAuctionRequest",
          "name": "input",
          "type": "tuple"
        }
      ],
      "name": "cancelAuction",
      "outputs": [],
      "stateMutability": "nonpayable",
      "type": "function"
    }
  ],
  "bytecode": "0x60806040523480156200001157600080fd5b50600062000024620000cf60201b60201c565b9050806000806101000a81548173ffffffffffffffffffffffffffffffffffffffff021916908373ffffffffffffffffffffffffffffffffffffffff1602179055508073ffffffffffffffffffffffffffffffffffffffff16600073ffffffffffffffffffffffffffffffffffffffff167f8be0079c531659141344cd1fd0a4f28419497f9722a3daafe3b4186f6b6457e060405160405180910390a35060018081905550620000d7565b600033905090565b6140c380620000e76000396000f3fe60806040526004361061009c5760003560e01c8063715018a611610064578063715018a6146101b557806376b92046146101cc5780638da5cb5b146101e8578063970b2cf814610213578063acb67ca21461023c578063f2fde38b146102655761009c565b80630aee1803146100a1578063150b7a02146100e85780631587aa44146101255780636d4a8bfb1461014e5780636d92fcb314610177575b600080fd5b3480156100ad57600080fd5b506100c860048036038101906100c39190612fae565b61028e565b6040516100df9b9a99989796959493929190613651565b60405180910390f35b3480156100f457600080fd5b5061010f600480360381019061010a9190612f0a565b6103dd565b60405161011c91906136fc565b60405180910390f35b34801561013157600080fd5b5061014c6004803603810190610147919061301a565b6103f1565b005b34801561015a57600080fd5b50610175600480360381019061017091906130dd565b61093f565b005b34801561018357600080fd5b5061019e60048036038101906101999190612fae565b610eb4565b6040516101ac9291906138f7565b60405180910390f35b3480156101c157600080fd5b506101ca611137565b005b6101e660048036038101906101e1919061309c565b611271565b005b3480156101f457600080fd5b506101fd611762565b60405161020a9190613576565b60405180910390f35b34801561021f57600080fd5b5061023a6004803603810190610235919061311e565b61178b565b005b34801561024857600080fd5b50610263600480360381019061025e919061305b565b611cfd565b005b34801561027157600080fd5b5061028c60048036038101906102879190612ee1565b6125ce565b005b60028280516020810182018051848252602083016020850120818352809550505050505081805160208101820180518482526020830160208501208183528095505050505050600091509150508060000160009054906101000a900473ffffffffffffffffffffffffffffffffffffffff16908060010154908060020160009054906101000a900473ffffffffffffffffffffffffffffffffffffffff16908060030154908060040154908060050160009054906101000a900467ffffffffffffffff16908060050160089054906101000a900467ffffffffffffffff16908060060154908060070160009054906101000a900467ffffffffffffffff16908060070160089054906101000a900473ffffffffffffffffffffffffffffffffffffffff16908060080160009054906101000a900473ffffffffffffffffffffffffffffffffffffffff1690508b565b600063150b7a0260e01b9050949350505050565b806000015181602001513373ffffffffffffffffffffffffffffffffffffffff16600283604051610422919061355f565b90815260200160405180910390208260405161043e919061355f565b908152602001604051809103902060020160009054906101000a900473ffffffffffffffffffffffffffffffffffffffff1673ffffffffffffffffffffffffffffffffffffffff16146104c6576040517f08c379a00000000000000000000000000000000000000000000000000000000081526004016104bd906137b7565b60405180910390fd5b6000600284600001516040516104dc919061355f565b908152602001604051809103902084602001516040516104fc919061355f565b9081526020016040518091039020604051806101600160405290816000820160009054906101000a900473ffffffffffffffffffffffffffffffffffffffff1673ffffffffffffffffffffffffffffffffffffffff1673ffffffffffffffffffffffffffffffffffffffff168152602001600182015481526020016002820160009054906101000a900473ffffffffffffffffffffffffffffffffffffffff1673ffffffffffffffffffffffffffffffffffffffff1673ffffffffffffffffffffffffffffffffffffffff16815260200160038201548152602001600482015481526020016005820160009054906101000a900467ffffffffffffffff1667ffffffffffffffff1667ffffffffffffffff1681526020016005820160089054906101000a900467ffffffffffffffff1667ffffffffffffffff1667ffffffffffffffff168152602001600682015481526020016007820160009054906101000a900467ffffffffffffffff1667ffffffffffffffff1667ffffffffffffffff1681526020016007820160089054906101000a900473ffffffffffffffffffffffffffffffffffffffff1673ffffffffffffffffffffffffffffffffffffffff1673ffffffffffffffffffffffffffffffffffffffff1681526020016008820160009054906101000a900473ffffffffffffffffffffffffffffffffffffffff1673ffffffffffffffffffffffffffffffffffffffff1673ffffffffffffffffffffffffffffffffffffffff168152505090506107458160c0015167ffffffffffffffff16612777565b600073ffffffffffffffffffffffffffffffffffffffff1681610120015173ffffffffffffffffffffffffffffffffffffffff161461081b5780610140015173ffffffffffffffffffffffffffffffffffffffff1663a9059cbb8261012001518360e001516040518363ffffffff1660e01b81526004016107c7929190613591565b602060405180830381600087803b1580156107e157600080fd5b505af11580156107f5573d6000803e3d6000fd5b505050506040513d601f19601f820116820180604052508101906108199190612f85565b505b6000816000015190508073ffffffffffffffffffffffffffffffffffffffff166342842e0e30846040015185602001516040518463ffffffff1660e01b8152600401610869939291906135f1565b600060405180830381600087803b15801561088357600080fd5b505af1158015610897573d6000803e3d6000fd5b505050506108ad856000015186602001516127ca565b81610120015173ffffffffffffffffffffffffffffffffffffffff1685602001516040516108db919061355f565b604051809103902086600001516040516108f5919061355f565b60405180910390207fb223c48adf306e57aed2cf2630a6902d7d312f9101e0e467c49e8c61d8263ab88560e001516040516109309190613922565b60405180910390a45050505050565b806000015181602001513373ffffffffffffffffffffffffffffffffffffffff16600283604051610970919061355f565b90815260200160405180910390208260405161098c919061355f565b908152602001604051809103902060020160009054906101000a900473ffffffffffffffffffffffffffffffffffffffff1673ffffffffffffffffffffffffffffffffffffffff1614610a14576040517f08c379a0000000000000000000000000000000000000000000000000000000008152600401610a0b906137b7565b60405180910390fd5b826060015167ffffffffffffffff811115610a64576040517f08c379a0000000000000000000000000000000000000000000000000000000008152600401610a5b90613877565b60405180910390fd5b836080015167ffffffffffffffff811115610ab4576040517f08c379a0000000000000000000000000000000000000000000000000000000008152600401610aab90613877565b60405180910390fd5b600060028660000151604051610aca919061355f565b90815260200160405180910390208660200151604051610aea919061355f565b90815260200160405180910390209050610b258160050160089054906101000a900467ffffffffffffffff1667ffffffffffffffff16612777565b8060060154866040015111610b6f576040517f08c379a0000000000000000000000000000000000000000000000000000000008152600401610b6690613757565b60405180910390fd5b42866080015111610bb5576040517f08c379a0000000000000000000000000000000000000000000000000000000008152600401610bac906137f7565b60405180910390fd5b600073ffffffffffffffffffffffffffffffffffffffff168160070160089054906101000a900473ffffffffffffffffffffffffffffffffffffffff1673ffffffffffffffffffffffffffffffffffffffff1614610ce8578060080160009054906101000a900473ffffffffffffffffffffffffffffffffffffffff1673ffffffffffffffffffffffffffffffffffffffff1663a9059cbb8260070160089054906101000a900473ffffffffffffffffffffffffffffffffffffffff1683600601546040518363ffffffff1660e01b8152600401610c94929190613591565b602060405180830381600087803b158015610cae57600080fd5b505af1158015610cc2573d6000803e3d6000fd5b505050506040513d601f19601f82011682018060405250810190610ce69190612f85565b505b8060070160089054906101000a900473ffffffffffffffffffffffffffffffffffffffff1673ffffffffffffffffffffffffffffffffffffffff168660200151604051610d35919061355f565b60405180910390208760000151604051610d4f919061355f565b60405180910390207f69cdd9411d289ccd9704e6d06638217590a9367768cd55223a1e892f43960c5984600601548a604001518b606001518c60800151604051610d9c949392919061393d565b60405180910390a4428160050160006101000a81548167ffffffffffffffff021916908367ffffffffffffffff16021790555085608001518160050160086101000a81548167ffffffffffffffff021916908367ffffffffffffffff160217905550856040015167ffffffffffffffff1681600301819055508560a00151816004018190555085606001518160070160006101000a81548167ffffffffffffffff021916908367ffffffffffffffff160217905550856040015167ffffffffffffffff16816006018190555060008160070160086101000a81548173ffffffffffffffffffffffffffffffffffffffff021916908373ffffffffffffffffffffffffffffffffffffffff160217905550505050505050565b610ebc61294c565b6000600284604051610ece919061355f565b908152602001604051809103902083604051610eea919061355f565b9081526020016040518091039020604051806101600160405290816000820160009054906101000a900473ffffffffffffffffffffffffffffffffffffffff1673ffffffffffffffffffffffffffffffffffffffff1673ffffffffffffffffffffffffffffffffffffffff168152602001600182015481526020016002820160009054906101000a900473ffffffffffffffffffffffffffffffffffffffff1673ffffffffffffffffffffffffffffffffffffffff1673ffffffffffffffffffffffffffffffffffffffff16815260200160038201548152602001600482015481526020016005820160009054906101000a900467ffffffffffffffff1667ffffffffffffffff1667ffffffffffffffff1681526020016005820160089054906101000a900467ffffffffffffffff1667ffffffffffffffff1667ffffffffffffffff168152602001600682015481526020016007820160009054906101000a900467ffffffffffffffff1667ffffffffffffffff1667ffffffffffffffff1681526020016007820160089054906101000a900473ffffffffffffffffffffffffffffffffffffffff1673ffffffffffffffffffffffffffffffffffffffff1673ffffffffffffffffffffffffffffffffffffffff1681526020016008820160009054906101000a900473ffffffffffffffffffffffffffffffffffffffff1673ffffffffffffffffffffffffffffffffffffffff1673ffffffffffffffffffffffffffffffffffffffff1681525050915061112e8260a001518360c00151612918565b90509250929050565b61113f612944565b73ffffffffffffffffffffffffffffffffffffffff1661115d611762565b73ffffffffffffffffffffffffffffffffffffffff16146111b3576040517f08c379a00000000000000000000000000000000000000000000000000000000081526004016111aa906137d7565b60405180910390fd5b600073ffffffffffffffffffffffffffffffffffffffff1660008054906101000a900473ffffffffffffffffffffffffffffffffffffffff1673ffffffffffffffffffffffffffffffffffffffff167f8be0079c531659141344cd1fd0a4f28419497f9722a3daafe3b4186f6b6457e060405160405180910390a360008060006101000a81548173ffffffffffffffffffffffffffffffffffffffff021916908373ffffffffffffffffffffffffffffffffffffffff160217905550565b600260015414156112b7576040517f08c379a00000000000000000000000000000000000000000000000000000000081526004016112ae90613897565b60405180910390fd5b60026001819055506000600282600001516040516112d5919061355f565b908152602001604051809103902082602001516040516112f5919061355f565b9081526020016040518091039020905061133f8160050160009054906101000a900467ffffffffffffffff168260050160089054906101000a900467ffffffffffffffff16612918565b61137e576040517f08c379a0000000000000000000000000000000000000000000000000000000008152600401611375906138d7565b60405180910390fd5b80600601548260800151116113c8576040517f08c379a00000000000000000000000000000000000000000000000000000000081526004016113bf90613837565b60405180910390fd5b6000826080015111801561141057508060070160009054906101000a900467ffffffffffffffff1667ffffffffffffffff168160060154836080015161140e9190613a86565b115b61144f576040517f08c379a000000000000000000000000000000000000000000000000000000000815260040161144690613817565b60405180910390fd5b600073ffffffffffffffffffffffffffffffffffffffff163373ffffffffffffffffffffffffffffffffffffffff16141580156114dd5750600073ffffffffffffffffffffffffffffffffffffffff168160070160089054906101000a900473ffffffffffffffffffffffffffffffffffffffff1673ffffffffffffffffffffffffffffffffffffffff1614155b156115bd578060080160009054906101000a900473ffffffffffffffffffffffffffffffffffffffff1673ffffffffffffffffffffffffffffffffffffffff1663a9059cbb8260070160089054906101000a900473ffffffffffffffffffffffffffffffffffffffff1683600601546040518363ffffffff1660e01b8152600401611569929190613591565b602060405180830381600087803b15801561158357600080fd5b505af1158015611597573d6000803e3d6000fd5b505050506040513d601f19601f820116820180604052508101906115bb9190612f85565b505b8160800151816006018190555081606001518160070160086101000a81548173ffffffffffffffffffffffffffffffffffffffff021916908373ffffffffffffffffffffffffffffffffffffffff1602179055508060080160009054906101000a900473ffffffffffffffffffffffffffffffffffffffff1673ffffffffffffffffffffffffffffffffffffffff166323b872dd83606001513085608001516040518463ffffffff1660e01b815260040161167a939291906135f1565b602060405180830381600087803b15801561169457600080fd5b505af11580156116a8573d6000803e3d6000fd5b505050506040513d601f19601f820116820180604052508101906116cc9190612f85565b50816060015173ffffffffffffffffffffffffffffffffffffffff1682602001516040516116fa919061355f565b60405180910390208360000151604051611714919061355f565b60405180910390207f809261b95a9b45e97ef7150078266b2dd41d68140ea51a4295cff5889b99f784856080015160405161174f9190613922565b60405180910390a4506001808190555050565b60008060009054906101000a900473ffffffffffffffffffffffffffffffffffffffff16905090565b806000015181602001513373ffffffffffffffffffffffffffffffffffffffff166002836040516117bc919061355f565b9081526020016040518091039020826040516117d8919061355f565b908152602001604051809103902060020160009054906101000a900473ffffffffffffffffffffffffffffffffffffffff1673ffffffffffffffffffffffffffffffffffffffff1614611860576040517f08c379a0000000000000000000000000000000000000000000000000000000008152600401611857906137b7565b60405180910390fd5b600060028460000151604051611876919061355f565b90815260200160405180910390208460200151604051611896919061355f565b9081526020016040518091039020604051806101600160405290816000820160009054906101000a900473ffffffffffffffffffffffffffffffffffffffff1673ffffffffffffffffffffffffffffffffffffffff1673ffffffffffffffffffffffffffffffffffffffff168152602001600182015481526020016002820160009054906101000a900473ffffffffffffffffffffffffffffffffffffffff1673ffffffffffffffffffffffffffffffffffffffff1673ffffffffffffffffffffffffffffffffffffffff16815260200160038201548152602001600482015481526020016005820160009054906101000a900467ffffffffffffffff1667ffffffffffffffff1667ffffffffffffffff1681526020016005820160089054906101000a900467ffffffffffffffff1667ffffffffffffffff1667ffffffffffffffff168152602001600682015481526020016007820160009054906101000a900467ffffffffffffffff1667ffffffffffffffff1667ffffffffffffffff1681526020016007820160089054906101000a900473ffffffffffffffffffffffffffffffffffffffff1673ffffffffffffffffffffffffffffffffffffffff1673ffffffffffffffffffffffffffffffffffffffff1681526020016008820160009054906101000a900473ffffffffffffffffffffffffffffffffffffffff1673ffffffffffffffffffffffffffffffffffffffff1673ffffffffffffffffffffffffffffffffffffffff16815250509050600073ffffffffffffffffffffffffffffffffffffffff1681610120015173ffffffffffffffffffffffffffffffffffffffff161415611b3d576040517f08c379a0000000000000000000000000000000000000000000000000000000008152600401611b3490613797565b60405180910390fd5b6000816000015190508073ffffffffffffffffffffffffffffffffffffffff166342842e0e3084610120015185602001516040518463ffffffff1660e01b8152600401611b8c939291906135ba565b600060405180830381600087803b158015611ba657600080fd5b505af1158015611bba573d6000803e3d6000fd5b5050505081610140015173ffffffffffffffffffffffffffffffffffffffff1663a9059cbb83604001518460e001516040518363ffffffff1660e01b8152600401611c06929190613628565b602060405180830381600087803b158015611c2057600080fd5b505af1158015611c34573d6000803e3d6000fd5b505050506040513d601f19601f82011682018060405250810190611c589190612f85565b50611c6b856000015186602001516127ca565b81610120015173ffffffffffffffffffffffffffffffffffffffff168560200151604051611c99919061355f565b60405180910390208660000151604051611cb3919061355f565b60405180910390207fa80fa55bb42bee6d73dce4785a755f13c1537acce202a04b7b9497ef122cb6868560e00151604051611cee9190613922565b60405180910390a45050505050565b8060e0015167ffffffffffffffff811115611d4d576040517f08c379a0000000000000000000000000000000000000000000000000000000008152600401611d4490613877565b60405180910390fd5b81610100015167ffffffffffffffff811115611d9e576040517f08c379a0000000000000000000000000000000000000000000000000000000008152600401611d9590613877565b60405180910390fd5b8260c0015167ffffffffffffffff811115611dee576040517f08c379a0000000000000000000000000000000000000000000000000000000008152600401611de590613877565b60405180910390fd5b6000846000015190508073ffffffffffffffffffffffffffffffffffffffff166342842e0e333088602001516040518463ffffffff1660e01b8152600401611e38939291906135f1565b600060405180830381600087803b158015611e5257600080fd5b505af1158015611e66573d6000803e3d6000fd5b50505050600060028660400151604051611e80919061355f565b90815260200160405180910390208660600151604051611ea0919061355f565b908152602001604051809103902060050160089054906101000a900467ffffffffffffffff1667ffffffffffffffff1614611f10576040517f08c379a0000000000000000000000000000000000000000000000000000000008152600401611f0790613717565b60405180910390fd5b8460e0015185610100015111611f5b576040517f08c379a0000000000000000000000000000000000000000000000000000000008152600401611f52906138b7565b60405180910390fd5b428560e0015111611fa1576040517f08c379a0000000000000000000000000000000000000000000000000000000008152600401611f9890613857565b60405180910390fd5b604051806101600160405280866000015173ffffffffffffffffffffffffffffffffffffffff168152602001866020015181526020013373ffffffffffffffffffffffffffffffffffffffff168152602001866080015181526020018660a0015181526020018660e0015167ffffffffffffffff16815260200186610100015167ffffffffffffffff168152602001866080015181526020018660c0015167ffffffffffffffff168152602001600073ffffffffffffffffffffffffffffffffffffffff16815260200186610120015173ffffffffffffffffffffffffffffffffffffffff168152506002866040015160405161209e919061355f565b908152602001604051809103902086606001516040516120be919061355f565b908152602001604051809103902060008201518160000160006101000a81548173ffffffffffffffffffffffffffffffffffffffff021916908373ffffffffffffffffffffffffffffffffffffffff1602179055506020820151816001015560408201518160020160006101000a81548173ffffffffffffffffffffffffffffffffffffffff021916908373ffffffffffffffffffffffffffffffffffffffff160217905550606082015181600301556080820151816004015560a08201518160050160006101000a81548167ffffffffffffffff021916908367ffffffffffffffff16021790555060c08201518160050160086101000a81548167ffffffffffffffff021916908367ffffffffffffffff16021790555060e082015181600601556101008201518160070160006101000a81548167ffffffffffffffff021916908367ffffffffffffffff1602179055506101208201518160070160086101000a81548173ffffffffffffffffffffffffffffffffffffffff021916908373ffffffffffffffffffffffffffffffffffffffff1602179055506101408201518160080160006101000a81548173ffffffffffffffffffffffffffffffffffffffff021916908373ffffffffffffffffffffffffffffffffffffffff1602179055509050506000600286604001516040516122b9919061355f565b908152602001604051809103902086606001516040516122d9919061355f565b9081526020016040518091039020604051806101600160405290816000820160009054906101000a900473ffffffffffffffffffffffffffffffffffffffff1673ffffffffffffffffffffffffffffffffffffffff1673ffffffffffffffffffffffffffffffffffffffff168152602001600182015481526020016002820160009054906101000a900473ffffffffffffffffffffffffffffffffffffffff1673ffffffffffffffffffffffffffffffffffffffff1673ffffffffffffffffffffffffffffffffffffffff16815260200160038201548152602001600482015481526020016005820160009054906101000a900467ffffffffffffffff1667ffffffffffffffff1667ffffffffffffffff1681526020016005820160089054906101000a900467ffffffffffffffff1667ffffffffffffffff1667ffffffffffffffff168152602001600682015481526020016007820160009054906101000a900467ffffffffffffffff1667ffffffffffffffff1667ffffffffffffffff1681526020016007820160089054906101000a900473ffffffffffffffffffffffffffffffffffffffff1673ffffffffffffffffffffffffffffffffffffffff1673ffffffffffffffffffffffffffffffffffffffff1681526020016008820160009054906101000a900473ffffffffffffffffffffffffffffffffffffffff1673ffffffffffffffffffffffffffffffffffffffff1673ffffffffffffffffffffffffffffffffffffffff16815250509050806040015173ffffffffffffffffffffffffffffffffffffffff168660600151604051612538919061355f565b60405180910390208760400151604051612552919061355f565b60405180910390207fd27a511762c20a20c8bdd83a0bf1f483d6051366775b17a7abcdcf732a696020846060015185610100015167ffffffffffffffff168660a0015167ffffffffffffffff168760c0015167ffffffffffffffff166040516125be949392919061393d565b60405180910390a4505050505050565b6125d6612944565b73ffffffffffffffffffffffffffffffffffffffff166125f4611762565b73ffffffffffffffffffffffffffffffffffffffff161461264a576040517f08c379a0000000000000000000000000000000000000000000000000000000008152600401612641906137d7565b60405180910390fd5b600073ffffffffffffffffffffffffffffffffffffffff168173ffffffffffffffffffffffffffffffffffffffff1614156126ba576040517f08c379a00000000000000000000000000000000000000000000000000000000081526004016126b190613777565b60405180910390fd5b8073ffffffffffffffffffffffffffffffffffffffff1660008054906101000a900473ffffffffffffffffffffffffffffffffffffffff1673ffffffffffffffffffffffffffffffffffffffff167f8be0079c531659141344cd1fd0a4f28419497f9722a3daafe3b4186f6b6457e060405160405180910390a3806000806101000a81548173ffffffffffffffffffffffffffffffffffffffff021916908373ffffffffffffffffffffffffffffffffffffffff16021790555050565b62015180816127869190613a30565b42106127c7576040517f08c379a00000000000000000000000000000000000000000000000000000000081526004016127be90613737565b60405180910390fd5b50565b6002826040516127da919061355f565b9081526020016040518091039020816040516127f6919061355f565b9081526020016040518091039020600080820160006101000a81549073ffffffffffffffffffffffffffffffffffffffff021916905560018201600090556002820160006101000a81549073ffffffffffffffffffffffffffffffffffffffff0219169055600382016000905560048201600090556005820160006101000a81549067ffffffffffffffff02191690556005820160086101000a81549067ffffffffffffffff021916905560068201600090556007820160006101000a81549067ffffffffffffffff02191690556007820160086101000a81549073ffffffffffffffffffffffffffffffffffffffff02191690556008820160006101000a81549073ffffffffffffffffffffffffffffffffffffffff021916905550505050565b60008267ffffffffffffffff164211801561293c57508167ffffffffffffffff1642105b905092915050565b600033905090565b604051806101600160405280600073ffffffffffffffffffffffffffffffffffffffff16815260200160008152602001600073ffffffffffffffffffffffffffffffffffffffff1681526020016000815260200160008019168152602001600067ffffffffffffffff168152602001600067ffffffffffffffff16815260200160008152602001600067ffffffffffffffff168152602001600073ffffffffffffffffffffffffffffffffffffffff168152602001600073ffffffffffffffffffffffffffffffffffffffff1681525090565b6000612a32612a2d846139a7565b613982565b905082815260208101848484011115612a4a57600080fd5b612a55848285613bb8565b509392505050565b6000612a70612a6b846139d8565b613982565b905082815260208101848484011115612a8857600080fd5b612a93848285613bb8565b509392505050565b600081359050612aaa81614031565b92915050565b600081519050612abf81614048565b92915050565b600081359050612ad48161405f565b92915050565b600082601f830112612aeb57600080fd5b8135612afb848260208601612a1f565b91505092915050565b600082601f830112612b1557600080fd5b8135612b25848260208601612a5d565b91505092915050565b600060408284031215612b4057600080fd5b612b4a6040613982565b9050600082013567ffffffffffffffff811115612b6657600080fd5b612b7284828501612b04565b600083015250602082013567ffffffffffffffff811115612b9257600080fd5b612b9e84828501612b04565b60208301525092915050565b60006101408284031215612bbd57600080fd5b612bc8610140613982565b90506000612bd884828501612a9b565b6000830152506020612bec84828501612ecc565b602083015250604082013567ffffffffffffffff811115612c0c57600080fd5b612c1884828501612b04565b604083015250606082013567ffffffffffffffff811115612c3857600080fd5b612c4484828501612b04565b6060830152506080612c5884828501612ecc565b60808301525060a0612c6c84828501612ac5565b60a08301525060c0612c8084828501612ecc565b60c08301525060e0612c9484828501612ecc565b60e083015250610100612ca984828501612ecc565b61010083015250610120612cbf84828501612a9b565b6101208301525092915050565b600060a08284031215612cde57600080fd5b612ce860a0613982565b9050600082013567ffffffffffffffff811115612d0457600080fd5b612d1084828501612b04565b600083015250602082013567ffffffffffffffff811115612d3057600080fd5b612d3c84828501612b04565b6020830152506040612d5084828501612a9b565b6040830152506060612d6484828501612a9b565b6060830152506080612d7884828501612ecc565b60808301525092915050565b600060c08284031215612d9657600080fd5b612da060c0613982565b9050600082013567ffffffffffffffff811115612dbc57600080fd5b612dc884828501612b04565b600083015250602082013567ffffffffffffffff811115612de857600080fd5b612df484828501612b04565b6020830152506040612e0884828501612ecc565b6040830152506060612e1c84828501612ecc565b6060830152506080612e3084828501612ecc565b60808301525060a0612e4484828501612ac5565b60a08301525092915050565b600060408284031215612e6257600080fd5b612e6c6040613982565b9050600082013567ffffffffffffffff811115612e8857600080fd5b612e9484828501612b04565b600083015250602082013567ffffffffffffffff811115612eb457600080fd5b612ec084828501612b04565b60208301525092915050565b600081359050612edb81614076565b92915050565b600060208284031215612ef357600080fd5b6000612f0184828501612a9b565b91505092915050565b60008060008060808587031215612f2057600080fd5b6000612f2e87828801612a9b565b9450506020612f3f87828801612a9b565b9350506040612f5087828801612ecc565b925050606085013567ffffffffffffffff811115612f6d57600080fd5b612f7987828801612ada565b91505092959194509250565b600060208284031215612f9757600080fd5b6000612fa584828501612ab0565b91505092915050565b60008060408385031215612fc157600080fd5b600083013567ffffffffffffffff811115612fdb57600080fd5b612fe785828601612b04565b925050602083013567ffffffffffffffff81111561300457600080fd5b61301085828601612b04565b9150509250929050565b60006020828403121561302c57600080fd5b600082013567ffffffffffffffff81111561304657600080fd5b61305284828501612b2e565b91505092915050565b60006020828403121561306d57600080fd5b600082013567ffffffffffffffff81111561308757600080fd5b61309384828501612baa565b91505092915050565b6000602082840312156130ae57600080fd5b600082013567ffffffffffffffff8111156130c857600080fd5b6130d484828501612ccc565b91505092915050565b6000602082840312156130ef57600080fd5b600082013567ffffffffffffffff81111561310957600080fd5b61311584828501612d84565b91505092915050565b60006020828403121561313057600080fd5b600082013567ffffffffffffffff81111561314a57600080fd5b61315684828501612e50565b91505092915050565b61316881613b5e565b82525050565b61317781613acc565b82525050565b61318681613acc565b82525050565b61319581613aba565b82525050565b6131a481613aba565b82525050565b6131b381613ade565b82525050565b6131c281613aea565b82525050565b6131d181613aea565b82525050565b6131e081613af4565b82525050565b6131ef81613b70565b82525050565b6131fe81613b70565b82525050565b600061320f82613a09565b6132198185613a25565b9350613229818560208601613bc7565b80840191505092915050565b6000613242601683613a14565b915061324d82613c9a565b602082019050919050565b6000613265601983613a14565b915061327082613cc3565b602082019050919050565b6000613288602f83613a14565b915061329382613cec565b604082019050919050565b60006132ab602683613a14565b91506132b682613d3b565b604082019050919050565b60006132ce603783613a14565b91506132d982613d8a565b604082019050919050565b60006132f1601e83613a14565b91506132fc82613dd9565b602082019050919050565b6000613314602083613a14565b915061331f82613e02565b602082019050919050565b6000613337601f83613a14565b915061334282613e2b565b602082019050919050565b600061335a602883613a14565b915061336582613e54565b604082019050919050565b600061337d602683613a14565b915061338882613ea3565b604082019050919050565b60006133a0602183613a14565b91506133ab82613ef2565b604082019050919050565b60006133c3602283613a14565b91506133ce82613f41565b604082019050919050565b60006133e6601f83613a14565b91506133f182613f90565b602082019050919050565b6000613409602183613a14565b915061341482613fb9565b604082019050919050565b600061342c601883613a14565b915061343782614008565b602082019050919050565b61016082016000820151613459600085018261318c565b50602082015161346c6020850182613523565b50604082015161347f604085018261318c565b5060608201516134926060850182613523565b5060808201516134a560808501826131b9565b5060a08201516134b860a0850182613541565b5060c08201516134cb60c0850182613541565b5060e08201516134de60e0850182613523565b506101008201516134f3610100850182613541565b5061012082015161350861012085018261316e565b5061014082015161351d6101408501826131e6565b50505050565b61352c81613b40565b82525050565b61353b81613b40565b82525050565b61354a81613b4a565b82525050565b61355981613b4a565b82525050565b600061356b8284613204565b915081905092915050565b600060208201905061358b600083018461319b565b92915050565b60006040820190506135a6600083018561315f565b6135b36020830184613532565b9392505050565b60006060820190506135cf600083018661319b565b6135dc602083018561315f565b6135e96040830184613532565b949350505050565b6000606082019050613606600083018661319b565b613613602083018561319b565b6136206040830184613532565b949350505050565b600060408201905061363d600083018561319b565b61364a6020830184613532565b9392505050565b600061016082019050613667600083018e61319b565b613674602083018d613532565b613681604083018c61319b565b61368e606083018b613532565b61369b608083018a6131c8565b6136a860a0830189613550565b6136b560c0830188613550565b6136c260e0830187613532565b6136d0610100830186613550565b6136de61012083018561317d565b6136ec6101408301846131f5565b9c9b505050505050505050505050565b600060208201905061371160008301846131d7565b92915050565b6000602082019050818103600083015261373081613235565b9050919050565b6000602082019050818103600083015261375081613258565b9050919050565b600060208201905081810360008301526137708161327b565b9050919050565b600060208201905081810360008301526137908161329e565b9050919050565b600060208201905081810360008301526137b0816132c1565b9050919050565b600060208201905081810360008301526137d0816132e4565b9050919050565b600060208201905081810360008301526137f081613307565b9050919050565b600060208201905081810360008301526138108161332a565b9050919050565b600060208201905081810360008301526138308161334d565b9050919050565b6000602082019050818103600083015261385081613370565b9050919050565b6000602082019050818103600083015261387081613393565b9050919050565b60006020820190508181036000830152613890816133b6565b9050919050565b600060208201905081810360008301526138b0816133d9565b9050919050565b600060208201905081810360008301526138d0816133fc565b9050919050565b600060208201905081810360008301526138f08161341f565b9050919050565b60006101808201905061390d6000830185613442565b61391b6101608301846131aa565b9392505050565b60006020820190506139376000830184613532565b92915050565b60006080820190506139526000830187613532565b61395f6020830186613532565b61396c6040830185613532565b6139796060830184613532565b95945050505050565b600061398c61399d565b90506139988282613bfa565b919050565b6000604051905090565b600067ffffffffffffffff8211156139c2576139c1613c5a565b5b6139cb82613c89565b9050602081019050919050565b600067ffffffffffffffff8211156139f3576139f2613c5a565b5b6139fc82613c89565b9050602081019050919050565b600081519050919050565b600082825260208201905092915050565b600081905092915050565b6000613a3b82613b40565b9150613a4683613b40565b9250827fffffffffffffffffffffffffffffffffffffffffffffffffffffffffffffffff03821115613a7b57613a7a613c2b565b5b828201905092915050565b6000613a9182613b40565b9150613a9c83613b40565b925082821015613aaf57613aae613c2b565b5b828203905092915050565b6000613ac582613b20565b9050919050565b6000613ad782613b20565b9050919050565b60008115159050919050565b6000819050919050565b60007fffffffff0000000000000000000000000000000000000000000000000000000082169050919050565b600073ffffffffffffffffffffffffffffffffffffffff82169050919050565b6000819050919050565b600067ffffffffffffffff82169050919050565b6000613b6982613b94565b9050919050565b6000613b7b82613b82565b9050919050565b6000613b8d82613b20565b9050919050565b6000613b9f82613ba6565b9050919050565b6000613bb182613b20565b9050919050565b82818337600083830152505050565b60005b83811015613be5578082015181840152602081019050613bca565b83811115613bf4576000848401525b50505050565b613c0382613c89565b810181811067ffffffffffffffff82111715613c2257613c21613c5a565b5b80604052505050565b7f4e487b7100000000000000000000000000000000000000000000000000000000600052601160045260246000fd5b7f4e487b7100000000000000000000000000000000000000000000000000000000600052604160045260246000fd5b6000601f19601f8301169050919050565b7f41756374696f6e20616c72656164792065786973747300000000000000000000600082015250565b7f41756374696f6e2068617320656e64656420616c726561647900000000000000600082015250565b7f546865206e65772070726963652073686f756c6420626520677265617465722060008201527f7468616e2063757272656e744269640000000000000000000000000000000000602082015250565b7f4f776e61626c653a206e6577206f776e657220697320746865207a65726f206160008201527f6464726573730000000000000000000000000000000000000000000000000000602082015250565b7f556e61626c6520746f20776974686472617720616e20656d707479206175637460008201527f696f6e2c20796f75206d7573742063616e63656c206974000000000000000000602082015250565b7f53656e646572206973206e6f74206f776e6572206f662061756374696f6e0000600082015250565b7f4f776e61626c653a2063616c6c6572206973206e6f7420746865206f776e6572600082015250565b7f456e642064617465206d757374206265206f6c646572207468616e206e6f7700600082015250565b7f4269642073686f756c642062652067726561746572207468616e20626964206960008201527f6e6372656d656e74000000000000000000000000000000000000000000000000602082015250565b7f4269642073686f756c642062652067726561746572207468616e20637572726560008201527f6e74206269640000000000000000000000000000000000000000000000000000602082015250565b7f41756374696f6e2063616e206e6f7420737461727420696e207468652070617360008201527f7400000000000000000000000000000000000000000000000000000000000000602082015250565b7f56616c7565206e6565647320746f2062652073746f72656420696e203634426960008201527f7473000000000000000000000000000000000000000000000000000000000000602082015250565b7f5265656e7472616e637947756172643a207265656e7472616e742063616c6c00600082015250565b7f41756374696f6e2063616e206e6f7420656e64206265666f726520737461727460008201527f7300000000000000000000000000000000000000000000000000000000000000602082015250565b7f41756374696f6e2073686f756c64206265206163746976650000000000000000600082015250565b61403a81613aba565b811461404557600080fd5b50565b61405181613ade565b811461405c57600080fd5b50565b61406881613aea565b811461407357600080fd5b50565b61407f81613b40565b811461408a57600080fd5b5056fea26469706673582212205e2b4d21b24ef793abccc117a610bfe280c3f717278fb08054c3aea5aea5f17864736f6c63430008010033",
  "immutableReferences": {},
  "source": "// SPDX-License-Identifier: UNLICENSED\r\n\r\npragma solidity ^0.8.1;\r\n\r\nimport \"@openzeppelin/contracts/security/ReentrancyGuard.sol\";\r\nimport \"@openzeppelin/contracts/access/Ownable.sol\";\r\nimport \"@openzeppelin/contracts/utils/math/SafeMath.sol\";\r\nimport \"@openzeppelin/contracts/token/ERC721/ERC721.sol\";\r\nimport \"@openzeppelin/contracts/token/ERC721/IERC721.sol\";\r\nimport \"@openzeppelin/contracts/token/ERC721/utils/ERC721Holder.sol\";\r\nimport \"@openzeppelin/contracts/token/ERC20/IERC20.sol\";\r\n\r\n/**\r\n * @title IncreasingPriceERC721Auction\r\n * @dev Create, accept, reset and cancel an auction of ERC721 token\r\n */\r\ncontract IncreasingPriceERC721Auction is ERC721Holder, Ownable, ReentrancyGuard {\r\n    mapping(string => mapping(string => Auction)) public auctions;\r\n\r\n    struct Auction {\r\n        address tokenAddress;\r\n        uint256 tokenId;\r\n        address owner;\r\n        uint256 reservePrice;\r\n        bytes32 ipfsHash;\r\n        uint64 startTime;\r\n        uint64 endTime;\r\n        uint256 currentBid;\r\n        uint64 bidIncrement;\r\n        address payable currentBidder;\r\n        IERC20 bidToken;\r\n    }\r\n\r\n    struct CreateAuctionRequest {\r\n        address tokenAddress;\r\n        uint256 tokenId;\r\n        string mediaSymbol;\r\n        string tokenSymbol;\r\n        uint256 reservePrice;\r\n        bytes32 ipfsHash;\r\n        uint256 bidIncrement;\r\n        uint256 startTime;\r\n        uint256 endTime;\r\n        address bidToken;\r\n    }\r\n    struct WithdrawAuctionRequest {\r\n        string mediaSymbol;\r\n        string tokenSymbol;\r\n    }\r\n    struct PlaceBidRequest {\r\n        string mediaSymbol;\r\n        string tokenSymbol;\r\n        address _address;\r\n        address fromAddress;\r\n        uint256 amount;\r\n    }\r\n    struct CancelAuctionRequest {\r\n        string mediaSymbol;\r\n        string tokenSymbol;\r\n    }\r\n    struct ResetAuctionRequest {\r\n        string mediaSymbol;\r\n        string tokenSymbol;\r\n        uint256 reservePrice;\r\n        uint256 bidIncrement;\r\n        uint256 endTime;\r\n        bytes32 ipfsHash;\r\n    }\r\n\r\n    event AuctionCreated(\r\n        string indexed _mediaSymbol,\r\n        string indexed _tokenSymbol,\r\n        address indexed _owner,\r\n        uint256 _reservePrice,\r\n        uint256 _bidIncrement,\r\n        uint256 _startTime,\r\n        uint256 _endTime\r\n    );\r\n    event Bid(\r\n        string indexed _mediaSymbol,\r\n        string indexed _tokenSymbol,\r\n        address indexed _bidder,\r\n        uint256 _amount\r\n    );\r\n    event AuctionAccepted(\r\n        string indexed _mediaSymbol,\r\n        string indexed _tokenSymbol,\r\n        address indexed _bidder,\r\n        uint256 _amount\r\n    );\r\n    event AuctionCanceled(\r\n        string indexed _mediaSymbol,\r\n        string indexed _tokenSymbol,\r\n        address indexed _bidder,\r\n        uint256 _amount\r\n    );\r\n    event AuctionRestarted(\r\n        string indexed _mediaSymbol,\r\n        string indexed _tokenSymbol,\r\n        address indexed _oldBidder,\r\n        uint256 reservePrice,\r\n        uint256 newReservePrice,\r\n        uint256 newBidIncrement,\r\n        uint256 newEndTime\r\n    );\r\n\r\n    modifier onlyAuctionOwner(string memory _mediaSymbol, string memory _tokenSymbol) {\r\n        require(auctions[_mediaSymbol][_tokenSymbol].owner == msg.sender, \"Sender is not owner of auction\");\r\n        _;\r\n    }\r\n\r\n    modifier _requireStoredWith64Bits(uint256 _value) {\r\n        require(_value <= 18446744073709551615, \"Value needs to be stored in 64Bits\");\r\n        _;\r\n    }\r\n\r\n    /**\r\n     * @dev createAuction creates auction on given `MediaSymbol`, under confitions:\r\n     * @dev - owner needs to have some amount of given `MediaSymbol`\r\n     * @dev - `TokenSymbol` exist\r\n     * @dev - `StartTime` is from the future and before `EndTime`\r\n     */\r\n    function createAuction(CreateAuctionRequest memory input)\r\n        external\r\n        _requireStoredWith64Bits(input.startTime)\r\n        _requireStoredWith64Bits(input.endTime)\r\n        _requireStoredWith64Bits(input.bidIncrement)\r\n    {\r\n        IERC721 ierc721 = IERC721(input.tokenAddress);\r\n        ierc721.safeTransferFrom(msg.sender, address(this), input.tokenId);\r\n\r\n        require(auctions[input.mediaSymbol][input.tokenSymbol].endTime == 0, \"Auction already exists\");\r\n        require(input.endTime > input.startTime, \"Auction can not end before starts\");\r\n        require(input.startTime > block.timestamp, \"Auction can not start in the past\");\r\n\r\n        auctions[input.mediaSymbol][input.tokenSymbol] = Auction(\r\n            input.tokenAddress,\r\n            input.tokenId,\r\n            msg.sender,\r\n            input.reservePrice,\r\n            input.ipfsHash,\r\n            uint64(input.startTime),\r\n            uint64(input.endTime),\r\n            input.reservePrice,\r\n            uint64(input.bidIncrement),\r\n            payable(address(0)),\r\n            IERC20(input.bidToken)\r\n        );\r\n        Auction memory _auction = auctions[input.mediaSymbol][input.tokenSymbol];\r\n\r\n        emit AuctionCreated(\r\n            input.mediaSymbol,\r\n            input.tokenSymbol,\r\n            _auction.owner,\r\n            uint256(_auction.reservePrice),\r\n            uint256(_auction.bidIncrement),\r\n            uint256(_auction.startTime),\r\n            uint256(_auction.endTime)\r\n        );\r\n    }\r\n\r\n    /**\r\n     * @dev retrieves the Auction and a bool indicating `canBid`\r\n     * @param mediaSymbol of ERC721 of the auction\r\n     * @param tokenSymbol of ERC721 of the auction\r\n     */\r\n    function getAuctionsByPartialCompositeKey(string memory mediaSymbol, string memory tokenSymbol)\r\n        external\r\n        view\r\n        returns (Auction memory _auction, bool canBid)\r\n    {\r\n        _auction = auctions[mediaSymbol][tokenSymbol];\r\n\r\n        canBid = _isOnAuction(_auction.startTime, _auction.endTime);\r\n    }\r\n\r\n    /**\r\n     * @dev placeBid adds bid to auction if:\r\n     * @dev - auction is open,\r\n     * @dev - amount of the bid is higher than ReservePrive or higher than previous bid incremented by BidIncrement,\r\n     * @dev - funds weren't withdrown yet.\r\n     * @dev funds of bid are transfered to auction address.\r\n     */\r\n    function placeBid(PlaceBidRequest memory input) external payable nonReentrant {\r\n        Auction storage _auction = auctions[input.mediaSymbol][input.tokenSymbol];\r\n\r\n        require(_isOnAuction(_auction.startTime, _auction.endTime), \"Auction should be active\");\r\n        require(input.amount > _auction.currentBid, \"Bid should be greater than current bid\");\r\n        require(\r\n            input.amount > 0 && (input.amount - _auction.currentBid > _auction.bidIncrement),\r\n            \"Bid should be greater than bid increment\"\r\n        );\r\n\r\n        if (msg.sender != address(0) && _auction.currentBidder != address(0)) {\r\n            _auction.bidToken.transfer(_auction.currentBidder, _auction.currentBid);\r\n        }\r\n        _auction.currentBid = input.amount;\r\n        _auction.currentBidder = payable(input.fromAddress);\r\n\r\n        _auction.bidToken.transferFrom(input.fromAddress, address(this), input.amount);\r\n\r\n        emit Bid(input.mediaSymbol, input.tokenSymbol, input.fromAddress, input.amount);\r\n    }\r\n\r\n    /**\r\n     * @dev withdrawAuction an be called when wheren't withdrawn yet and bid was made.\r\n     * @dev Media are transfered to the bidder and funds to the owner of the auction.\r\n     */\r\n    function withdrawAuction(WithdrawAuctionRequest memory input)\r\n        external\r\n        onlyAuctionOwner(input.mediaSymbol, input.tokenSymbol)\r\n    {\r\n        Auction memory _auction = auctions[input.mediaSymbol][input.tokenSymbol];\r\n        require(\r\n            _auction.currentBidder != address(0),\r\n            \"Unable to withdraw an empty auction, you must cancel it\"\r\n        );\r\n\r\n        IERC721 ierc721 = IERC721(_auction.tokenAddress);\r\n        ierc721.safeTransferFrom(address(this), _auction.currentBidder, _auction.tokenId);\r\n\r\n        _auction.bidToken.transfer(_auction.owner, _auction.currentBid);\r\n\r\n        _removeAuction(input.mediaSymbol, input.tokenSymbol);\r\n        emit AuctionAccepted(\r\n            input.mediaSymbol,\r\n            input.tokenSymbol,\r\n            _auction.currentBidder,\r\n            _auction.currentBid\r\n        );\r\n    }\r\n\r\n    /**\r\n     * @dev resetAuction resets auction if:\r\n     * @dev  - is called before `EndTime` plus one day\r\n     * @dev If bid was made, funds are returned to bidder. It's parameters are set from given input.\r\n     */\r\n    function resetAuction(ResetAuctionRequest memory input)\r\n        external\r\n        onlyAuctionOwner(input.mediaSymbol, input.tokenSymbol)\r\n        _requireStoredWith64Bits(input.bidIncrement)\r\n        _requireStoredWith64Bits(input.endTime)\r\n    {\r\n        Auction storage _auction = auctions[input.mediaSymbol][input.tokenSymbol];\r\n        _requireNotEndedDayAuction(_auction.endTime);\r\n        require(input.reservePrice > _auction.currentBid, \"The new price should be greater than currentBid\");\r\n        require(input.endTime > block.timestamp, \"End date must be older than now\");\r\n\r\n        if (_auction.currentBidder != address(0)) {\r\n            _auction.bidToken.transfer(_auction.currentBidder, _auction.currentBid);\r\n        }\r\n        emit AuctionRestarted(\r\n            input.mediaSymbol,\r\n            input.tokenSymbol,\r\n            _auction.currentBidder,\r\n            _auction.currentBid,\r\n            input.reservePrice,\r\n            input.bidIncrement,\r\n            input.endTime\r\n        );\r\n\r\n        _auction.startTime = uint64(block.timestamp);\r\n        _auction.endTime = uint64(input.endTime);\r\n        _auction.reservePrice = uint64(input.reservePrice);\r\n        _auction.ipfsHash = input.ipfsHash;\r\n        _auction.bidIncrement = uint64(input.bidIncrement);\r\n        _auction.currentBid = uint64(input.reservePrice);\r\n        _auction.currentBidder = payable(address(0));\r\n    }\r\n\r\n    /**\r\n     * @dev cancelAuction cancels auction if condition are met:\r\n     * @dev - is called before `EndTime` plus one day\r\n     * @dev If bid was made, funds are returned to bidder. Media are returned to owner.\r\n     */\r\n    function cancelAuction(CancelAuctionRequest memory input)\r\n        external\r\n        onlyAuctionOwner(input.mediaSymbol, input.tokenSymbol)\r\n    {\r\n        Auction memory _auction = auctions[input.mediaSymbol][input.tokenSymbol];\r\n        _requireNotEndedDayAuction(_auction.endTime);\r\n\r\n        if (_auction.currentBidder != address(0)) {\r\n            _auction.bidToken.transfer(_auction.currentBidder, _auction.currentBid);\r\n        }\r\n\r\n        IERC721 ierc721 = IERC721(_auction.tokenAddress);\r\n        ierc721.safeTransferFrom(address(this), _auction.owner, _auction.tokenId);\r\n        _removeAuction(input.mediaSymbol, input.tokenSymbol);\r\n\r\n        emit AuctionCanceled(\r\n            input.mediaSymbol,\r\n            input.tokenSymbol,\r\n            _auction.currentBidder,\r\n            _auction.currentBid\r\n        );\r\n    }\r\n\r\n    function _removeAuction(string memory _mediaSymbol, string memory _tokenSymbol) internal {\r\n        delete (auctions[_mediaSymbol][_tokenSymbol]);\r\n    }\r\n\r\n    function _isOnAuction(uint64 _startTime, uint64 _endTime) internal view returns (bool) {\r\n        return (block.timestamp > _startTime) && (block.timestamp < _endTime);\r\n    }\r\n\r\n    function _requireNotEndedDayAuction(uint256 _endTime) internal view {\r\n        require(block.timestamp < (_endTime + 1 days), \"Auction has ended already\");\r\n    }\r\n}\r\n",
  "sourcePath": "E:/privi-auction-truffle/contracts/IncreasingPriceERC721Auction.sol",
  "compiler": {
    "name": "solc",
    "version": "0.8.1+commit.df193b15.Emscripten.clang"
  },
  "schemaVersion": "3.4.1",
  "updatedAt": "2021-08-09T14:40:34.915Z",
  "devdoc": {
    "details": "Create, accept, reset and cancel an auction of ERC721 token",
    "kind": "dev",
    "methods": {
      "cancelAuction((string,string))": {
        "details": "cancelAuction cancels auction if condition are met:- is called before `EndTime` plus one dayIf bid was made, funds are returned to bidder. Media are returned to owner."
      },
      "createAuction((address,uint256,string,string,uint256,bytes32,uint256,uint256,uint256,address))": {
        "details": "createAuction creates auction on given `MediaSymbol`, under confitions:- owner needs to have some amount of given `MediaSymbol`- `TokenSymbol` exist- `StartTime` is from the future and before `EndTime`"
      },
      "getAuctionsByPartialCompositeKey(string,string)": {
        "details": "retrieves the Auction and a bool indicating `canBid`",
        "params": {
          "mediaSymbol": "of ERC721 of the auction",
          "tokenSymbol": "of ERC721 of the auction"
        }
      },
      "onERC721Received(address,address,uint256,bytes)": {
        "details": "See {IERC721Receiver-onERC721Received}. Always returns `IERC721Receiver.onERC721Received.selector`."
      },
      "owner()": {
        "details": "Returns the address of the current owner."
      },
      "placeBid((string,string,address,address,uint256))": {
        "details": "placeBid adds bid to auction if:- auction is open,- amount of the bid is higher than ReservePrive or higher than previous bid incremented by BidIncrement,- funds weren't withdrown yet.funds of bid are transfered to auction address."
      },
      "renounceOwnership()": {
        "details": "Leaves the contract without owner. It will not be possible to call `onlyOwner` functions anymore. Can only be called by the current owner. NOTE: Renouncing ownership will leave the contract without an owner, thereby removing any functionality that is only available to the owner."
      },
      "resetAuction((string,string,uint256,uint256,uint256,bytes32))": {
        "details": "resetAuction resets auction if:- is called before `EndTime` plus one dayIf bid was made, funds are returned to bidder. It's parameters are set from given input."
      },
      "transferOwnership(address)": {
        "details": "Transfers ownership of the contract to a new account (`newOwner`). Can only be called by the current owner."
      },
      "withdrawAuction((string,string))": {
        "details": "withdrawAuction an be called when wheren't withdrawn yet and bid was made.Media are transfered to the bidder and funds to the owner of the auction."
      }
    },
    "title": "IncreasingPriceERC721Auction",
    "version": 1
  },
  "userdoc": {
    "kind": "user",
    "methods": {},
    "version": 1
  }
}