{
  "address": "0x55dd09f072a85f4F16C0035A2353C8194C64026C",
  "abi": [
    {
      "inputs": [
        {
          "internalType": "address",
          "name": "oracle",
          "type": "address"
        }
      ],
      "stateMutability": "nonpayable",
      "type": "constructor"
    },
    {
      "anonymous": false,
      "inputs": [
        {
          "indexed": false,
          "internalType": "address",
          "name": "token",
          "type": "address"
        }
      ],
      "name": "MarketDisabled",
      "type": "event"
    },
    {
      "anonymous": false,
      "inputs": [
        {
          "indexed": false,
          "internalType": "address",
          "name": "token",
          "type": "address"
        }
      ],
      "name": "MarketEnabled",
      "type": "event"
    },
    {
      "anonymous": false,
      "inputs": [
        {
          "indexed": false,
          "internalType": "address",
          "name": "token",
          "type": "address"
        },
        {
          "indexed": false,
          "internalType": "address",
          "name": "account",
          "type": "address"
        }
      ],
      "name": "MarketEntered",
      "type": "event"
    },
    {
      "anonymous": false,
      "inputs": [
        {
          "indexed": true,
          "internalType": "bytes32",
          "name": "role",
          "type": "bytes32"
        },
        {
          "indexed": true,
          "internalType": "bytes32",
          "name": "previousAdminRole",
          "type": "bytes32"
        },
        {
          "indexed": true,
          "internalType": "bytes32",
          "name": "newAdminRole",
          "type": "bytes32"
        }
      ],
      "name": "RoleAdminChanged",
      "type": "event"
    },
    {
      "anonymous": false,
      "inputs": [
        {
          "indexed": true,
          "internalType": "bytes32",
          "name": "role",
          "type": "bytes32"
        },
        {
          "indexed": true,
          "internalType": "address",
          "name": "account",
          "type": "address"
        },
        {
          "indexed": true,
          "internalType": "address",
          "name": "sender",
          "type": "address"
        }
      ],
      "name": "RoleGranted",
      "type": "event"
    },
    {
      "anonymous": false,
      "inputs": [
        {
          "indexed": true,
          "internalType": "bytes32",
          "name": "role",
          "type": "bytes32"
        },
        {
          "indexed": true,
          "internalType": "address",
          "name": "account",
          "type": "address"
        },
        {
          "indexed": true,
          "internalType": "address",
          "name": "sender",
          "type": "address"
        }
      ],
      "name": "RoleRevoked",
      "type": "event"
    },
    {
      "inputs": [],
      "name": "DEFAULT_ADMIN_ROLE",
      "outputs": [
        {
          "internalType": "bytes32",
          "name": "",
          "type": "bytes32"
        }
      ],
      "stateMutability": "view",
      "type": "function"
    },
    {
      "inputs": [],
      "name": "GOVERNOR",
      "outputs": [
        {
          "internalType": "bytes32",
          "name": "",
          "type": "bytes32"
        }
      ],
      "stateMutability": "view",
      "type": "function"
    },
    {
      "inputs": [
        {
          "internalType": "address",
          "name": "",
          "type": "address"
        },
        {
          "internalType": "uint256",
          "name": "",
          "type": "uint256"
        }
      ],
      "name": "accountAssets",
      "outputs": [
        {
          "internalType": "contract CToken",
          "name": "",
          "type": "address"
        }
      ],
      "stateMutability": "view",
      "type": "function"
    },
    {
      "inputs": [
        {
          "internalType": "uint256",
          "name": "",
          "type": "uint256"
        }
      ],
      "name": "allMarkets",
      "outputs": [
        {
          "internalType": "address",
          "name": "",
          "type": "address"
        }
      ],
      "stateMutability": "view",
      "type": "function"
    },
    {
      "inputs": [
        {
          "internalType": "contract CToken",
          "name": "borrowed",
          "type": "address"
        },
        {
          "internalType": "contract CToken",
          "name": "collateral",
          "type": "address"
        },
        {
          "internalType": "uint256",
          "name": "amountToRepay",
          "type": "uint256"
        }
      ],
      "name": "calculateAmountTokensToSeize",
      "outputs": [
        {
          "internalType": "uint256",
          "name": "",
          "type": "uint256"
        }
      ],
      "stateMutability": "view",
      "type": "function"
    },
    {
      "inputs": [
        {
          "internalType": "address",
          "name": "asset",
          "type": "address"
        },
        {
          "internalType": "address",
          "name": "borrower",
          "type": "address"
        },
        {
          "internalType": "uint256",
          "name": "borrowAmount",
          "type": "uint256"
        }
      ],
      "name": "canBorrow",
      "outputs": [],
      "stateMutability": "view",
      "type": "function"
    },
    {
      "inputs": [
        {
          "internalType": "contract CToken",
          "name": "assetBorrowed",
          "type": "address"
        },
        {
          "internalType": "contract CToken",
          "name": "assetCollateral",
          "type": "address"
        },
        {
          "internalType": "address",
          "name": "liquidator",
          "type": "address"
        },
        {
          "internalType": "address",
          "name": "borrower",
          "type": "address"
        },
        {
          "internalType": "uint256",
          "name": "amountToRepay",
          "type": "uint256"
        }
      ],
      "name": "canLiquidate",
      "outputs": [],
      "stateMutability": "view",
      "type": "function"
    },
    {
      "inputs": [
        {
          "internalType": "address",
          "name": "asset",
          "type": "address"
        }
      ],
      "name": "canMint",
      "outputs": [],
      "stateMutability": "view",
      "type": "function"
    },
    {
      "inputs": [
        {
          "internalType": "address",
          "name": "asset",
          "type": "address"
        },
        {
          "internalType": "address",
          "name": "account",
          "type": "address"
        },
        {
          "internalType": "uint256",
          "name": "amountToRedeem",
          "type": "uint256"
        }
      ],
      "name": "canRedeem",
      "outputs": [],
      "stateMutability": "view",
      "type": "function"
    },
    {
      "inputs": [
        {
          "internalType": "address",
          "name": "asset",
          "type": "address"
        },
        {
          "internalType": "address",
          "name": "borrower",
          "type": "address"
        }
      ],
      "name": "canRepay",
      "outputs": [],
      "stateMutability": "view",
      "type": "function"
    },
    {
      "inputs": [
        {
          "internalType": "address",
          "name": "asset",
          "type": "address"
        }
      ],
      "name": "canSeize",
      "outputs": [],
      "stateMutability": "view",
      "type": "function"
    },
    {
      "inputs": [
        {
          "internalType": "address",
          "name": "asset",
          "type": "address"
        },
        {
          "internalType": "address",
          "name": "from",
          "type": "address"
        },
        {
          "internalType": "uint256",
          "name": "amount",
          "type": "uint256"
        }
      ],
      "name": "canTransfer",
      "outputs": [],
      "stateMutability": "view",
      "type": "function"
    },
    {
      "inputs": [
        {
          "internalType": "address",
          "name": "collateralToken",
          "type": "address"
        }
      ],
      "name": "disableMArket",
      "outputs": [],
      "stateMutability": "nonpayable",
      "type": "function"
    },
    {
      "inputs": [
        {
          "internalType": "address",
          "name": "collateralToken",
          "type": "address"
        },
        {
          "internalType": "uint256",
          "name": "collateralFactor",
          "type": "uint256"
        }
      ],
      "name": "enableMarket",
      "outputs": [],
      "stateMutability": "nonpayable",
      "type": "function"
    },
    {
      "inputs": [
        {
          "internalType": "address",
          "name": "asset",
          "type": "address"
        }
      ],
      "name": "enterMarket",
      "outputs": [],
      "stateMutability": "nonpayable",
      "type": "function"
    },
    {
      "inputs": [
        {
          "internalType": "address",
          "name": "borrower",
          "type": "address"
        }
      ],
      "name": "getAccountLiquidity",
      "outputs": [
        {
          "internalType": "uint256",
          "name": "",
          "type": "uint256"
        },
        {
          "internalType": "uint256",
          "name": "",
          "type": "uint256"
        }
      ],
      "stateMutability": "view",
      "type": "function"
    },
    {
      "inputs": [],
      "name": "getAllMarkets",
      "outputs": [
        {
          "internalType": "address[]",
          "name": "",
          "type": "address[]"
        }
      ],
      "stateMutability": "view",
      "type": "function"
    },
    {
      "inputs": [
        {
          "internalType": "address",
          "name": "borrower",
          "type": "address"
        }
      ],
      "name": "getBorrowingLimitUsed",
      "outputs": [
        {
          "internalType": "uint256",
          "name": "",
          "type": "uint256"
        }
      ],
      "stateMutability": "view",
      "type": "function"
    },
    {
      "inputs": [
        {
          "internalType": "bytes32",
          "name": "role",
          "type": "bytes32"
        }
      ],
      "name": "getRoleAdmin",
      "outputs": [
        {
          "internalType": "bytes32",
          "name": "",
          "type": "bytes32"
        }
      ],
      "stateMutability": "view",
      "type": "function"
    },
    {
      "inputs": [
        {
          "internalType": "bytes32",
          "name": "role",
          "type": "bytes32"
        },
        {
          "internalType": "address",
          "name": "account",
          "type": "address"
        }
      ],
      "name": "grantRole",
      "outputs": [],
      "stateMutability": "nonpayable",
      "type": "function"
    },
    {
      "inputs": [
        {
          "internalType": "bytes32",
          "name": "role",
          "type": "bytes32"
        },
        {
          "internalType": "address",
          "name": "account",
          "type": "address"
        }
      ],
      "name": "hasRole",
      "outputs": [
        {
          "internalType": "bool",
          "name": "",
          "type": "bool"
        }
      ],
      "stateMutability": "view",
      "type": "function"
    },
    {
      "inputs": [
        {
          "internalType": "address",
          "name": "collateralToken",
          "type": "address"
        },
        {
          "internalType": "address",
          "name": "borrower",
          "type": "address"
        }
      ],
      "name": "isEntered",
      "outputs": [
        {
          "internalType": "bool",
          "name": "",
          "type": "bool"
        }
      ],
      "stateMutability": "view",
      "type": "function"
    },
    {
      "inputs": [],
      "name": "liquidationIncentive",
      "outputs": [
        {
          "internalType": "uint256",
          "name": "",
          "type": "uint256"
        }
      ],
      "stateMutability": "view",
      "type": "function"
    },
    {
      "inputs": [
        {
          "internalType": "address",
          "name": "",
          "type": "address"
        }
      ],
      "name": "markets",
      "outputs": [
        {
          "internalType": "bool",
          "name": "isListed",
          "type": "bool"
        },
        {
          "internalType": "uint256",
          "name": "collateralFactor",
          "type": "uint256"
        }
      ],
      "stateMutability": "view",
      "type": "function"
    },
    {
      "inputs": [
        {
          "internalType": "bytes32",
          "name": "role",
          "type": "bytes32"
        },
        {
          "internalType": "address",
          "name": "account",
          "type": "address"
        }
      ],
      "name": "renounceRole",
      "outputs": [],
      "stateMutability": "nonpayable",
      "type": "function"
    },
    {
      "inputs": [
        {
          "internalType": "bytes32",
          "name": "role",
          "type": "bytes32"
        },
        {
          "internalType": "address",
          "name": "account",
          "type": "address"
        }
      ],
      "name": "revokeRole",
      "outputs": [],
      "stateMutability": "nonpayable",
      "type": "function"
    },
    {
      "inputs": [
        {
          "internalType": "uint256",
          "name": "newLiquidationIncentive",
          "type": "uint256"
        }
      ],
      "name": "setLiquidationIncentive",
      "outputs": [],
      "stateMutability": "nonpayable",
      "type": "function"
    },
    {
      "inputs": [
        {
          "internalType": "bytes4",
          "name": "interfaceId",
          "type": "bytes4"
        }
      ],
      "name": "supportsInterface",
      "outputs": [
        {
          "internalType": "bool",
          "name": "",
          "type": "bool"
        }
      ],
      "stateMutability": "view",
      "type": "function"
    }
  ],
  "transactionHash": "0x3e091910b0bd1992128e89524e95395a5e2a1c8532384436641769828eff6ef3",
  "args": [
    "0x226E2f4D51DA572e6780f7f31c268aD4425303Ab"
  ],
  "solcInputHash": "a4359d0b51cd152e736e7c5174537a02",
  "bytecode": "0x60806040523480156200001157600080fd5b5060405162003d2e38038062003d2e833981810160405281019062000037919062000250565b80600460006101000a81548173ffffffffffffffffffffffffffffffffffffffff021916908373ffffffffffffffffffffffffffffffffffffffff160217905550670de0b6b3a7640000600581905550620000b97f1a6838efa4183e08fe3607359d1259272af9d4716f65e1a7b5921f78fd5a3c6a33620000c060201b60201c565b50620002ca565b620000d28282620000d660201b60201c565b5050565b620000e88282620001c760201b60201c565b620001c357600160008084815260200190815260200160002060000160008373ffffffffffffffffffffffffffffffffffffffff1673ffffffffffffffffffffffffffffffffffffffff16815260200190815260200160002060006101000a81548160ff021916908315150217905550620001686200023160201b60201c565b73ffffffffffffffffffffffffffffffffffffffff168173ffffffffffffffffffffffffffffffffffffffff16837f2f8788117e7eff1d82e926ec794901d17c78024a50270940304540a733656f0d60405160405180910390a45b5050565b600080600084815260200190815260200160002060000160008373ffffffffffffffffffffffffffffffffffffffff1673ffffffffffffffffffffffffffffffffffffffff16815260200190815260200160002060009054906101000a900460ff16905092915050565b600033905090565b6000815190506200024a81620002b0565b92915050565b6000602082840312156200026357600080fd5b6000620002738482850162000239565b91505092915050565b6000620002898262000290565b9050919050565b600073ffffffffffffffffffffffffffffffffffffffff82169050919050565b620002bb816200027c565b8114620002c757600080fd5b50565b613a5480620002da6000396000f3fe608060405234801561001057600080fd5b50600436106101c45760003560e01c80638e8f294b116100f9578063be05e89711610097578063dafc009211610071578063dafc009214610513578063dce1544914610543578063e46638e614610573578063fcb894f71461058f576101c4565b8063be05e897146104bf578063c2ba4744146104db578063d547741f146104f7576101c4565b8063a217fddf116100d3578063a217fddf1461044b578063a843108114610469578063b0772d0b14610485578063bc66d9bb146104a3576101c4565b80638e8f294b146103ce57806391d14854146103ff5780639aac2c531461042f576101c4565b80633fe5d425116101665780635ec88c79116101405780635ec88c791461033157806364381f48146103625780636dc0ae22146103925780638c765e94146103b0576101c4565b80633fe5d425146102b5578063438d360e146102d157806352d84d1e14610301576101c4565b806307f8573f116101a257806307f8573f14610231578063248a9ca31461024d5780632f2ff15d1461027d57806336568abe14610299576101c4565b806301823bb1146101c957806301ffc9a7146101e55780630440056614610215575b600080fd5b6101e360048036038101906101de9190612a4a565b6105ab565b005b6101ff60048036038101906101fa9190612aeb565b610753565b60405161020c91906130a8565b60405180910390f35b61022f600480360381019061022a9190612996565b6107cd565b005b61024b600480360381019061024691906129fb565b610924565b005b61026760048036038101906102629190612a86565b610934565b60405161027491906130ec565b60405180910390f35b61029760048036038101906102929190612aaf565b610953565b005b6102b360048036038101906102ae9190612aaf565b61097c565b005b6102cf60048036038101906102ca9190612996565b6109ff565b005b6102eb60048036038101906102e69190612996565b610c93565b6040516102f89190613324565b60405180910390f35b61031b60048036038101906103169190612bda565b610f41565b6040516103289190613042565b60405180910390f35b61034b60048036038101906103469190612996565b610f80565b60405161035992919061333f565b60405180910390f35b61037c60048036038101906103779190612b8b565b610f95565b6040516103899190613324565b60405180910390f35b61039a6111bd565b6040516103a791906130ec565b60405180910390f35b6103b86111e1565b6040516103c59190613324565b60405180910390f35b6103e860048036038101906103e39190612996565b6111e7565b6040516103f69291906130c3565b60405180910390f35b61041960048036038101906104149190612aaf565b611218565b60405161042691906130a8565b60405180910390f35b610449600480360381019061044491906129fb565b611282565b005b610453611438565b60405161046091906130ec565b60405180910390f35b610483600480360381019061047e9190612bda565b61143f565b005b61048d6114c7565b60405161049a9190613086565b60405180910390f35b6104bd60048036038101906104b891906129bf565b611555565b005b6104d960048036038101906104d49190612b14565b6116b4565b005b6104f560048036038101906104f09190612996565b61196b565b005b610511600480360381019061050c9190612aaf565b6119fd565b005b61052d600480360381019061052891906129bf565b611a26565b60405161053a91906130a8565b60405180910390f35b61055d60048036038101906105589190612a4a565b611abd565b60405161056a9190613107565b60405180910390f35b61058d600480360381019061058891906129fb565b611b0b565b005b6105a960048036038101906105a49190612996565b611b1b565b005b7f1a6838efa4183e08fe3607359d1259272af9d4716f65e1a7b5921f78fd5a3c6a6105dd816105d8611bad565b611bb5565b600160008473ffffffffffffffffffffffffffffffffffffffff1673ffffffffffffffffffffffffffffffffffffffff16815260200190815260200160002060000160009054906101000a900460ff161561066d576040517f08c379a0000000000000000000000000000000000000000000000000000000008152600401610664906132a4565b60405180910390fd5b60018060008573ffffffffffffffffffffffffffffffffffffffff1673ffffffffffffffffffffffffffffffffffffffff16815260200190815260200160002060000160006101000a81548160ff02191690831515021790555081600160008573ffffffffffffffffffffffffffffffffffffffff1673ffffffffffffffffffffffffffffffffffffffff1681526020019081526020016000206001018190555061071783611c52565b7fc96f811979d6f17f0ebec7bdf5f7243e4e1d7817f45c8b2671324e00c1ee4de6836040516107469190613042565b60405180910390a1505050565b60007f7965db0b000000000000000000000000000000000000000000000000000000007bffffffffffffffffffffffffffffffffffffffffffffffffffffffff1916827bffffffffffffffffffffffffffffffffffffffffffffffffffffffff191614806107c657506107c582611daf565b5b9050919050565b7f1a6838efa4183e08fe3607359d1259272af9d4716f65e1a7b5921f78fd5a3c6a6107ff816107fa611bad565b611bb5565b600160008373ffffffffffffffffffffffffffffffffffffffff1673ffffffffffffffffffffffffffffffffffffffff16815260200190815260200160002060000160009054906101000a900460ff1661088e576040517f08c379a0000000000000000000000000000000000000000000000000000000008152600401610885906131c4565b60405180910390fd5b6000600160008473ffffffffffffffffffffffffffffffffffffffff1673ffffffffffffffffffffffffffffffffffffffff16815260200190815260200160002060000160006101000a81548160ff0219169083151502179055507f9c1363ce70f8d30d60d716d9bd0e157f43bde960817a7658d24199abb28eff8a826040516109189190613042565b60405180910390a15050565b61092f838383611e19565b505050565b6000806000838152602001908152602001600020600101549050919050565b61095c82610934565b61096d81610968611bad565b611bb5565b6109778383611f9a565b505050565b610984611bad565b73ffffffffffffffffffffffffffffffffffffffff168173ffffffffffffffffffffffffffffffffffffffff16146109f1576040517f08c379a00000000000000000000000000000000000000000000000000000000081526004016109e890613304565b60405180910390fd5b6109fb828261207a565b5050565b600160008273ffffffffffffffffffffffffffffffffffffffff1673ffffffffffffffffffffffffffffffffffffffff16815260200190815260200160002060000160009054906101000a900460ff16610a8e576040517f08c379a0000000000000000000000000000000000000000000000000000000008152600401610a8590613184565b60405180910390fd5b600160008273ffffffffffffffffffffffffffffffffffffffff1673ffffffffffffffffffffffffffffffffffffffff16815260200190815260200160002060020160003373ffffffffffffffffffffffffffffffffffffffff1673ffffffffffffffffffffffffffffffffffffffff16815260200190815260200160002060009054906101000a900460ff16610c905760018060008373ffffffffffffffffffffffffffffffffffffffff1673ffffffffffffffffffffffffffffffffffffffff16815260200190815260200160002060020160003373ffffffffffffffffffffffffffffffffffffffff1673ffffffffffffffffffffffffffffffffffffffff16815260200190815260200160002060006101000a81548160ff021916908315150217905550600360003373ffffffffffffffffffffffffffffffffffffffff1673ffffffffffffffffffffffffffffffffffffffff168152602001908152602001600020819080600181540180825580915050600190039060005260206000200160009091909190916101000a81548173ffffffffffffffffffffffffffffffffffffffff021916908373ffffffffffffffffffffffffffffffffffffffff1602179055507f3ab23ab0d51cccc0c3085aec51f99228625aa1a922b3a8ca89a26b0f2027a1a58133604051610c8792919061305d565b60405180910390a15b50565b600080600360008473ffffffffffffffffffffffffffffffffffffffff1673ffffffffffffffffffffffffffffffffffffffff168152602001908152602001600020805480602002602001604051908101604052809291908181526020018280548015610d5557602002820191906000526020600020905b8160009054906101000a900473ffffffffffffffffffffffffffffffffffffffff1673ffffffffffffffffffffffffffffffffffffffff1681526020019060010190808311610d0b575b505050505090506000805b8251811015610f36576000838281518110610da4577f4e487b7100000000000000000000000000000000000000000000000000000000600052603260045260246000fd5b60200260200101519050610db66128e9565b600460009054906101000a900473ffffffffffffffffffffffffffffffffffffffff1673ffffffffffffffffffffffffffffffffffffffff166341976e09836040518263ffffffff1660e01b8152600401610e119190613107565b60206040518083038186803b158015610e2957600080fd5b505afa158015610e3d573d6000803e3d6000fd5b505050506040513d601f19601f82011682018060405250810190610e619190612c03565b8160000181815250508173ffffffffffffffffffffffffffffffffffffffff1663fbcbc0f1886040518263ffffffff1660e01b8152600401610ea39190613042565b60606040518083038186803b158015610ebb57600080fd5b505afa158015610ecf573d6000803e3d6000fd5b505050506040513d601f19601f82011682018060405250810190610ef39190612c2c565b9091505081604001818152505080600001518160400151610f14919061344f565b84610f1f91906133c8565b935050508080610f2e906135ee565b915050610d60565b508092505050919050565b60028181548110610f5157600080fd5b906000526020600020016000915054906101000a900473ffffffffffffffffffffffffffffffffffffffff1681565b600080610f8c8361215b565b91509150915091565b600080600460009054906101000a900473ffffffffffffffffffffffffffffffffffffffff1673ffffffffffffffffffffffffffffffffffffffff166341976e09866040518263ffffffff1660e01b8152600401610ff39190613107565b60206040518083038186803b15801561100b57600080fd5b505afa15801561101f573d6000803e3d6000fd5b505050506040513d601f19601f820116820180604052508101906110439190612c03565b90506000600460009054906101000a900473ffffffffffffffffffffffffffffffffffffffff1673ffffffffffffffffffffffffffffffffffffffff166341976e09866040518263ffffffff1660e01b81526004016110a29190613107565b60206040518083038186803b1580156110ba57600080fd5b505afa1580156110ce573d6000803e3d6000fd5b505050506040513d601f19601f820116820180604052508101906110f29190612c03565b905060008573ffffffffffffffffffffffffffffffffffffffff1663e6aa216c6040518163ffffffff1660e01b815260040160206040518083038186803b15801561113c57600080fd5b505afa158015611150573d6000803e3d6000fd5b505050506040513d601f19601f820116820180604052508101906111749190612c03565b90506000826005548588611188919061344f565b611192919061344f565b61119c919061341e565b9050600082826111ac919061341e565b905080955050505050509392505050565b7f1a6838efa4183e08fe3607359d1259272af9d4716f65e1a7b5921f78fd5a3c6a81565b60055481565b60016020528060005260406000206000915090508060000160009054906101000a900460ff16908060010154905082565b600080600084815260200190815260200160002060000160008373ffffffffffffffffffffffffffffffffffffffff1673ffffffffffffffffffffffffffffffffffffffff16815260200190815260200160002060009054906101000a900460ff16905092915050565b600160008473ffffffffffffffffffffffffffffffffffffffff1673ffffffffffffffffffffffffffffffffffffffff16815260200190815260200160002060000160009054906101000a900460ff16611311576040517f08c379a000000000000000000000000000000000000000000000000000000000815260040161130890613184565b60405180910390fd5b600160008473ffffffffffffffffffffffffffffffffffffffff1673ffffffffffffffffffffffffffffffffffffffff16815260200190815260200160002060020160008373ffffffffffffffffffffffffffffffffffffffff1673ffffffffffffffffffffffffffffffffffffffff16815260200190815260200160002060009054906101000a900460ff166113dd576040517f08c379a00000000000000000000000000000000000000000000000000000000081526004016113d4906131e4565b60405180910390fd5b60006113ec8484846000612175565b50905060008111611432576040517f08c379a0000000000000000000000000000000000000000000000000000000008152600401611429906132c4565b60405180910390fd5b50505050565b6000801b81565b7f1a6838efa4183e08fe3607359d1259272af9d4716f65e1a7b5921f78fd5a3c6a6114718161146c611bad565b611bb5565b670de0b6b3a76400008210156114bc576040517f08c379a00000000000000000000000000000000000000000000000000000000081526004016114b390613244565b60405180910390fd5b816005819055505050565b6060600280548060200260200160405190810160405280929190818152602001828054801561154b57602002820191906000526020600020905b8160009054906101000a900473ffffffffffffffffffffffffffffffffffffffff1673ffffffffffffffffffffffffffffffffffffffff1681526020019060010190808311611501575b5050505050905090565b600160008373ffffffffffffffffffffffffffffffffffffffff1673ffffffffffffffffffffffffffffffffffffffff16815260200190815260200160002060000160009054906101000a900460ff166115e4576040517f08c379a00000000000000000000000000000000000000000000000000000000081526004016115db90613184565b60405180910390fd5b600160008373ffffffffffffffffffffffffffffffffffffffff1673ffffffffffffffffffffffffffffffffffffffff16815260200190815260200160002060020160008273ffffffffffffffffffffffffffffffffffffffff1673ffffffffffffffffffffffffffffffffffffffff16815260200190815260200160002060009054906101000a900460ff166116b0576040517f08c379a00000000000000000000000000000000000000000000000000000000081526004016116a7906131e4565b60405180910390fd5b5050565b600160008673ffffffffffffffffffffffffffffffffffffffff1673ffffffffffffffffffffffffffffffffffffffff16815260200190815260200160002060000160009054906101000a900460ff16611743576040517f08c379a000000000000000000000000000000000000000000000000000000000815260040161173a90613224565b60405180910390fd5b600160008573ffffffffffffffffffffffffffffffffffffffff1673ffffffffffffffffffffffffffffffffffffffff16815260200190815260200160002060000160009054906101000a900460ff166117d2576040517f08c379a00000000000000000000000000000000000000000000000000000000081526004016117c990613164565b60405180910390fd5b8173ffffffffffffffffffffffffffffffffffffffff168373ffffffffffffffffffffffffffffffffffffffff161415611841576040517f08c379a000000000000000000000000000000000000000000000000000000000815260040161183890613284565b60405180910390fd5b600061184c8361215b565b91505060008111611892576040517f08c379a000000000000000000000000000000000000000000000000000000000815260040161188990613204565b60405180910390fd5b60008673ffffffffffffffffffffffffffffffffffffffff16637d6af079856040518263ffffffff1660e01b81526004016118cd9190613042565b60206040518083038186803b1580156118e557600080fd5b505afa1580156118f9573d6000803e3d6000fd5b505050506040513d601f19601f8201168201806040525081019061191d9190612c03565b905080831115611962576040517f08c379a0000000000000000000000000000000000000000000000000000000008152600401611959906131a4565b60405180910390fd5b50505050505050565b600160008273ffffffffffffffffffffffffffffffffffffffff1673ffffffffffffffffffffffffffffffffffffffff16815260200190815260200160002060000160009054906101000a900460ff166119fa576040517f08c379a00000000000000000000000000000000000000000000000000000000081526004016119f190613184565b60405180910390fd5b50565b611a0682610934565b611a1781611a12611bad565b611bb5565b611a21838361207a565b505050565b6000600160008473ffffffffffffffffffffffffffffffffffffffff1673ffffffffffffffffffffffffffffffffffffffff16815260200190815260200160002060020160008373ffffffffffffffffffffffffffffffffffffffff1673ffffffffffffffffffffffffffffffffffffffff16815260200190815260200160002060009054906101000a900460ff16905092915050565b60036020528160005260406000208181548110611ad957600080fd5b906000526020600020016000915091509054906101000a900473ffffffffffffffffffffffffffffffffffffffff1681565b611b16838383611e19565b505050565b600160008273ffffffffffffffffffffffffffffffffffffffff1673ffffffffffffffffffffffffffffffffffffffff16815260200190815260200160002060000160009054906101000a900460ff16611baa576040517f08c379a0000000000000000000000000000000000000000000000000000000008152600401611ba190613184565b60405180910390fd5b50565b600033905090565b611bbf8282611218565b611c4e57611be48173ffffffffffffffffffffffffffffffffffffffff1660146125ef565b611bf28360001c60206125ef565b604051602001611c03929190613008565b6040516020818303038152906040526040517f08c379a0000000000000000000000000000000000000000000000000000000008152600401611c459190613122565b60405180910390fd5b5050565b60005b600280549050811015611d48578173ffffffffffffffffffffffffffffffffffffffff1660028281548110611cb3577f4e487b7100000000000000000000000000000000000000000000000000000000600052603260045260246000fd5b9060005260206000200160009054906101000a900473ffffffffffffffffffffffffffffffffffffffff1673ffffffffffffffffffffffffffffffffffffffff161415611d35576040517f08c379a0000000000000000000000000000000000000000000000000000000008152600401611d2c906132e4565b60405180910390fd5b8080611d40906135ee565b915050611c55565b506002819080600181540180825580915050600190039060005260206000200160009091909190916101000a81548173ffffffffffffffffffffffffffffffffffffffff021916908373ffffffffffffffffffffffffffffffffffffffff16021790555050565b60007f01ffc9a7000000000000000000000000000000000000000000000000000000007bffffffffffffffffffffffffffffffffffffffffffffffffffffffff1916827bffffffffffffffffffffffffffffffffffffffffffffffffffffffff1916149050919050565b600160008473ffffffffffffffffffffffffffffffffffffffff1673ffffffffffffffffffffffffffffffffffffffff16815260200190815260200160002060000160009054906101000a900460ff16611ea8576040517f08c379a0000000000000000000000000000000000000000000000000000000008152600401611e9f90613184565b60405180910390fd5b600160008473ffffffffffffffffffffffffffffffffffffffff1673ffffffffffffffffffffffffffffffffffffffff16815260200190815260200160002060020160008373ffffffffffffffffffffffffffffffffffffffff1673ffffffffffffffffffffffffffffffffffffffff16815260200190815260200160002060009054906101000a900460ff16611f3e57611f95565b6000611f4d8484600085612175565b91505060008114611f93576040517f08c379a0000000000000000000000000000000000000000000000000000000008152600401611f8a906132c4565b60405180910390fd5b505b505050565b611fa48282611218565b61207657600160008084815260200190815260200160002060000160008373ffffffffffffffffffffffffffffffffffffffff1673ffffffffffffffffffffffffffffffffffffffff16815260200190815260200160002060006101000a81548160ff02191690831515021790555061201b611bad565b73ffffffffffffffffffffffffffffffffffffffff168173ffffffffffffffffffffffffffffffffffffffff16837f2f8788117e7eff1d82e926ec794901d17c78024a50270940304540a733656f0d60405160405180910390a45b5050565b6120848282611218565b1561215757600080600084815260200190815260200160002060000160008373ffffffffffffffffffffffffffffffffffffffff1673ffffffffffffffffffffffffffffffffffffffff16815260200190815260200160002060006101000a81548160ff0219169083151502179055506120fc611bad565b73ffffffffffffffffffffffffffffffffffffffff168173ffffffffffffffffffffffffffffffffffffffff16837ff6391f5c32d9c69d2a47ea670b442974b53935d1edc7fd64eb21e047a839171b60405160405180910390a45b5050565b60008061216c600084600080612175565b91509150915091565b60008060008414806121875750600083145b6121c6576040517f08c379a00000000000000000000000000000000000000000000000000000000081526004016121bd90613264565b60405180910390fd5b6000600360008773ffffffffffffffffffffffffffffffffffffffff1673ffffffffffffffffffffffffffffffffffffffff16815260200190815260200160002080548060200260200160405190810160405280929190818152602001828054801561228757602002820191906000526020600020905b8160009054906101000a900473ffffffffffffffffffffffffffffffffffffffff1673ffffffffffffffffffffffffffffffffffffffff168152602001906001019080831161223d575b5050505050905060008060005b83518110156125ad5760008482815181106122d8577f4e487b7100000000000000000000000000000000000000000000000000000000600052603260045260246000fd5b602002602001015190506122ea6128e9565b600460009054906101000a900473ffffffffffffffffffffffffffffffffffffffff1673ffffffffffffffffffffffffffffffffffffffff166341976e09836040518263ffffffff1660e01b81526004016123459190613107565b60206040518083038186803b15801561235d57600080fd5b505afa158015612371573d6000803e3d6000fd5b505050506040513d601f19601f820116820180604052508101906123959190612c03565b8160000181815250508173ffffffffffffffffffffffffffffffffffffffff1663fbcbc0f18c6040518263ffffffff1660e01b81526004016123d79190613042565b60606040518083038186803b1580156123ef57600080fd5b505afa158015612403573d6000803e3d6000fd5b505050506040513d601f19601f820116820180604052508101906124279190612c2c565b836020018460400185606001838152508381525083815250505050600160008373ffffffffffffffffffffffffffffffffffffffff1673ffffffffffffffffffffffffffffffffffffffff1681526020019081526020016000206001015481608001818152505060008160000151670de0b6b3a7640000836060015184608001516124b2919061344f565b6124bc919061341e565b6124c6919061344f565b9050670de0b6b3a76400008183602001516124e1919061344f565b6124eb919061341e565b866124f691906133c8565b95508160000151826040015161250c919061344f565b8561251791906133c8565b94508273ffffffffffffffffffffffffffffffffffffffff168d73ffffffffffffffffffffffffffffffffffffffff1614156125975781600001518b61255d919061344f565b8561256891906133c8565b9450670de0b6b3a7640000818b61257f919061344f565b612589919061341e565b8561259491906133c8565b94505b50505080806125a5906135ee565b915050612294565b50808211156125d05780826125c291906134a9565b6000945094505050506125e6565b600082826125de91906134a9565b945094505050505b94509492505050565b606060006002836002612602919061344f565b61260c91906133c8565b67ffffffffffffffff81111561264b577f4e487b7100000000000000000000000000000000000000000000000000000000600052604160045260246000fd5b6040519080825280601f01601f19166020018201604052801561267d5781602001600182028036833780820191505090505b5090507f3000000000000000000000000000000000000000000000000000000000000000816000815181106126db577f4e487b7100000000000000000000000000000000000000000000000000000000600052603260045260246000fd5b60200101907effffffffffffffffffffffffffffffffffffffffffffffffffffffffffffff1916908160001a9053507f780000000000000000000000000000000000000000000000000000000000000081600181518110612765577f4e487b7100000000000000000000000000000000000000000000000000000000600052603260045260246000fd5b60200101907effffffffffffffffffffffffffffffffffffffffffffffffffffffffffffff1916908160001a905350600060018460026127a5919061344f565b6127af91906133c8565b90505b600181111561289b577f3031323334353637383961626364656600000000000000000000000000000000600f861660108110612817577f4e487b7100000000000000000000000000000000000000000000000000000000600052603260045260246000fd5b1a60f81b828281518110612854577f4e487b7100000000000000000000000000000000000000000000000000000000600052603260045260246000fd5b60200101907effffffffffffffffffffffffffffffffffffffffffffffffffffffffffffff1916908160001a905350600485901c945080612894906135c4565b90506127b2565b50600084146128df576040517f08c379a00000000000000000000000000000000000000000000000000000000081526004016128d690613144565b60405180910390fd5b8091505092915050565b6040518060a0016040528060008152602001600081526020016000815260200160008152602001600081525090565b600081359050612927816139ab565b92915050565b60008135905061293c816139c2565b92915050565b600081359050612951816139d9565b92915050565b600081359050612966816139f0565b92915050565b60008135905061297b81613a07565b92915050565b60008151905061299081613a07565b92915050565b6000602082840312156129a857600080fd5b60006129b684828501612918565b91505092915050565b600080604083850312156129d257600080fd5b60006129e085828601612918565b92505060206129f185828601612918565b9150509250929050565b600080600060608486031215612a1057600080fd5b6000612a1e86828701612918565b9350506020612a2f86828701612918565b9250506040612a408682870161296c565b9150509250925092565b60008060408385031215612a5d57600080fd5b6000612a6b85828601612918565b9250506020612a7c8582860161296c565b9150509250929050565b600060208284031215612a9857600080fd5b6000612aa68482850161292d565b91505092915050565b60008060408385031215612ac257600080fd5b6000612ad08582860161292d565b9250506020612ae185828601612918565b9150509250929050565b600060208284031215612afd57600080fd5b6000612b0b84828501612942565b91505092915050565b600080600080600060a08688031215612b2c57600080fd5b6000612b3a88828901612957565b9550506020612b4b88828901612957565b9450506040612b5c88828901612918565b9350506060612b6d88828901612918565b9250506080612b7e8882890161296c565b9150509295509295909350565b600080600060608486031215612ba057600080fd5b6000612bae86828701612957565b9350506020612bbf86828701612957565b9250506040612bd08682870161296c565b9150509250925092565b600060208284031215612bec57600080fd5b6000612bfa8482850161296c565b91505092915050565b600060208284031215612c1557600080fd5b6000612c2384828501612981565b91505092915050565b600080600060608486031215612c4157600080fd5b6000612c4f86828701612981565b9350506020612c6086828701612981565b9250506040612c7186828701612981565b9150509250925092565b6000612c878383612c93565b60208301905092915050565b612c9c816134dd565b82525050565b612cab816134dd565b82525050565b6000612cbc82613378565b612cc6818561339b565b9350612cd183613368565b8060005b83811015612d02578151612ce98882612c7b565b9750612cf48361338e565b925050600181019050612cd5565b5085935050505092915050565b612d18816134ef565b82525050565b612d27816134fb565b82525050565b612d368161356d565b82525050565b6000612d4782613383565b612d5181856133ac565b9350612d61818560208601613591565b612d6a81613695565b840191505092915050565b6000612d8082613383565b612d8a81856133bd565b9350612d9a818560208601613591565b80840191505092915050565b6000612db36020836133ac565b9150612dbe826136a6565b602082019050919050565b6000612dd6601a836133ac565b9150612de1826136cf565b602082019050919050565b6000612df9600f836133ac565b9150612e04826136f8565b602082019050919050565b6000612e1c6011836133ac565b9150612e2782613721565b602082019050919050565b6000612e3f6017836133ac565b9150612e4a8261374a565b602082019050919050565b6000612e626012836133ac565b9150612e6d82613773565b602082019050919050565b6000612e856016836133ac565b9150612e908261379c565b602082019050919050565b6000612ea86018836133ac565b9150612eb3826137c5565b602082019050919050565b6000612ecb602c836133ac565b9150612ed6826137ee565b604082019050919050565b6000612eee601d836133ac565b9150612ef98261383d565b602082019050919050565b6000612f11601d836133ac565b9150612f1c82613866565b602082019050919050565b6000612f346015836133ac565b9150612f3f8261388f565b602082019050919050565b6000612f576017836133bd565b9150612f62826138b8565b601782019050919050565b6000612f7a6016836133ac565b9150612f85826138e1565b602082019050919050565b6000612f9d6014836133ac565b9150612fa88261390a565b602082019050919050565b6000612fc06011836133bd565b9150612fcb82613933565b601182019050919050565b6000612fe3602f836133ac565b9150612fee8261395c565b604082019050919050565b61300281613563565b82525050565b600061301382612f4a565b915061301f8285612d75565b915061302a82612fb3565b91506130368284612d75565b91508190509392505050565b60006020820190506130576000830184612ca2565b92915050565b60006040820190506130726000830185612ca2565b61307f6020830184612ca2565b9392505050565b600060208201905081810360008301526130a08184612cb1565b905092915050565b60006020820190506130bd6000830184612d0f565b92915050565b60006040820190506130d86000830185612d0f565b6130e56020830184612ff9565b9392505050565b60006020820190506131016000830184612d1e565b92915050565b600060208201905061311c6000830184612d2d565b92915050565b6000602082019050818103600083015261313c8184612d3c565b905092915050565b6000602082019050818103600083015261315d81612da6565b9050919050565b6000602082019050818103600083015261317d81612dc9565b9050919050565b6000602082019050818103600083015261319d81612dec565b9050919050565b600060208201905081810360008301526131bd81612e0f565b9050919050565b600060208201905081810360008301526131dd81612e32565b9050919050565b600060208201905081810360008301526131fd81612e55565b9050919050565b6000602082019050818103600083015261321d81612e78565b9050919050565b6000602082019050818103600083015261323d81612e9b565b9050919050565b6000602082019050818103600083015261325d81612ebe565b9050919050565b6000602082019050818103600083015261327d81612ee1565b9050919050565b6000602082019050818103600083015261329d81612f04565b9050919050565b600060208201905081810360008301526132bd81612f27565b9050919050565b600060208201905081810360008301526132dd81612f6d565b9050919050565b600060208201905081810360008301526132fd81612f90565b9050919050565b6000602082019050818103600083015261331d81612fd6565b9050919050565b60006020820190506133396000830184612ff9565b92915050565b60006040820190506133546000830185612ff9565b6133616020830184612ff9565b9392505050565b6000819050602082019050919050565b600081519050919050565b600081519050919050565b6000602082019050919050565b600082825260208201905092915050565b600082825260208201905092915050565b600081905092915050565b60006133d382613563565b91506133de83613563565b9250827fffffffffffffffffffffffffffffffffffffffffffffffffffffffffffffffff0382111561341357613412613637565b5b828201905092915050565b600061342982613563565b915061343483613563565b92508261344457613443613666565b5b828204905092915050565b600061345a82613563565b915061346583613563565b9250817fffffffffffffffffffffffffffffffffffffffffffffffffffffffffffffffff048311821515161561349e5761349d613637565b5b828202905092915050565b60006134b482613563565b91506134bf83613563565b9250828210156134d2576134d1613637565b5b828203905092915050565b60006134e882613543565b9050919050565b60008115159050919050565b6000819050919050565b60007fffffffff0000000000000000000000000000000000000000000000000000000082169050919050565b600061353c826134dd565b9050919050565b600073ffffffffffffffffffffffffffffffffffffffff82169050919050565b6000819050919050565b60006135788261357f565b9050919050565b600061358a82613543565b9050919050565b60005b838110156135af578082015181840152602081019050613594565b838111156135be576000848401525b50505050565b60006135cf82613563565b915060008214156135e3576135e2613637565b5b600182039050919050565b60006135f982613563565b91507fffffffffffffffffffffffffffffffffffffffffffffffffffffffffffffffff82141561362c5761362b613637565b5b600182019050919050565b7f4e487b7100000000000000000000000000000000000000000000000000000000600052601160045260246000fd5b7f4e487b7100000000000000000000000000000000000000000000000000000000600052601260045260246000fd5b6000601f19601f8301169050919050565b7f537472696e67733a20686578206c656e67746820696e73756666696369656e74600082015250565b7f554e4c49535445445f4d41524b45545f434f4c4c41544552414c000000000000600082015250565b7f554e4c49535445445f4d41524b45540000000000000000000000000000000000600082015250565b7f544f4f5f4d5543485f544f5f5245504159000000000000000000000000000000600082015250565b7f4d41524b45545f414c52454144595f44454c4953544544000000000000000000600082015250565b7f4d41524b45545f4e4f545f454e54455245440000000000000000000000000000600082015250565b7f494e53554646494349454e545f53484f525446414c4c00000000000000000000600082015250565b7f554e4c49535445445f4d41524b45545f424f52524f5745440000000000000000600082015250565b7f4c49515549444154494f4e5f494e43454e544956455f4d5553545f42455f475260008201527f45415445525f5448414e5f310000000000000000000000000000000000000000602082015250565b7f424f52524f575f4f525f52454445454d5f4d5553545f42455f5a45524f000000600082015250565b7f4c495155494441544f525f43414e4e4f545f42455f424f52524f574552000000600082015250565b7f4d41524b45545f414c52454144595f4c49535445440000000000000000000000600082015250565b7f416363657373436f6e74726f6c3a206163636f756e7420000000000000000000600082015250565b7f494e53554646494349454e545f4c495155494449545900000000000000000000600082015250565b7f4d41524b45545f414c52454144595f4144444544000000000000000000000000600082015250565b7f206973206d697373696e6720726f6c6520000000000000000000000000000000600082015250565b7f416363657373436f6e74726f6c3a2063616e206f6e6c792072656e6f756e636560008201527f20726f6c657320666f722073656c660000000000000000000000000000000000602082015250565b6139b4816134dd565b81146139bf57600080fd5b50565b6139cb816134fb565b81146139d657600080fd5b50565b6139e281613505565b81146139ed57600080fd5b50565b6139f981613531565b8114613a0457600080fd5b50565b613a1081613563565b8114613a1b57600080fd5b5056fea264697066735822122075d69d308155cec3ea4e53b21b09935f202c59552ee87858595c2ec2132100f764736f6c63430008040033",
  "devdoc": {
    "kind": "dev",
    "methods": {
      "calculateAmountTokensToSeize(address,address,uint256)": {
        "params": {
          "amountToRepay": "the amount of borrowed underlying to convert to collateral cToken"
        }
      },
      "getRoleAdmin(bytes32)": {
        "details": "Returns the admin role that controls `role`. See {grantRole} and {revokeRole}. To change a role's admin, use {_setRoleAdmin}."
      },
      "grantRole(bytes32,address)": {
        "details": "Grants `role` to `account`. If `account` had not been already granted `role`, emits a {RoleGranted} event. Requirements: - the caller must have ``role``'s admin role."
      },
      "hasRole(bytes32,address)": {
        "details": "Returns `true` if `account` has been granted `role`."
      },
      "renounceRole(bytes32,address)": {
        "details": "Revokes `role` from the calling account. Roles are often managed via {grantRole} and {revokeRole}: this function's purpose is to provide a mechanism for accounts to lose their privileges if they are compromised (such as when a trusted device is misplaced). If the calling account had been granted `role`, emits a {RoleRevoked} event. Requirements: - the caller must be `account`."
      },
      "revokeRole(bytes32,address)": {
        "details": "Revokes `role` from `account`. If `account` had been granted `role`, emits a {RoleRevoked} event. Requirements: - the caller must have ``role``'s admin role."
      },
      "supportsInterface(bytes4)": {
        "details": "See {IERC165-supportsInterface}."
      }
    },
    "version": 1
  },
  "userdoc": {
    "kind": "user",
    "methods": {},
    "version": 1
  },
  "storageLayout": {
    "storage": [
      {
        "astId": 24,
        "contract": "contracts/Markets.sol:Markets",
        "label": "_roles",
        "offset": 0,
        "slot": "0",
        "type": "t_mapping(t_bytes32,t_struct(RoleData)19_storage)"
      },
      {
        "astId": 3127,
        "contract": "contracts/Markets.sol:Markets",
        "label": "markets",
        "offset": 0,
        "slot": "1",
        "type": "t_mapping(t_address,t_struct(Market)3122_storage)"
      },
      {
        "astId": 3130,
        "contract": "contracts/Markets.sol:Markets",
        "label": "allMarkets",
        "offset": 0,
        "slot": "2",
        "type": "t_array(t_address)dyn_storage"
      },
      {
        "astId": 3136,
        "contract": "contracts/Markets.sol:Markets",
        "label": "accountAssets",
        "offset": 0,
        "slot": "3",
        "type": "t_mapping(t_address,t_array(t_contract(CToken)2985)dyn_storage)"
      },
      {
        "astId": 3139,
        "contract": "contracts/Markets.sol:Markets",
        "label": "_oracle",
        "offset": 0,
        "slot": "4",
        "type": "t_contract(PriceFeed)3992"
      },
      {
        "astId": 3141,
        "contract": "contracts/Markets.sol:Markets",
        "label": "liquidationIncentive",
        "offset": 0,
        "slot": "5",
        "type": "t_uint256"
      }
    ],
    "types": {
      "t_address": {
        "encoding": "inplace",
        "label": "address",
        "numberOfBytes": "20"
      },
      "t_array(t_address)dyn_storage": {
        "base": "t_address",
        "encoding": "dynamic_array",
        "label": "address[]",
        "numberOfBytes": "32"
      },
      "t_array(t_contract(CToken)2985)dyn_storage": {
        "base": "t_contract(CToken)2985",
        "encoding": "dynamic_array",
        "label": "contract CToken[]",
        "numberOfBytes": "32"
      },
      "t_bool": {
        "encoding": "inplace",
        "label": "bool",
        "numberOfBytes": "1"
      },
      "t_bytes32": {
        "encoding": "inplace",
        "label": "bytes32",
        "numberOfBytes": "32"
      },
      "t_contract(CToken)2985": {
        "encoding": "inplace",
        "label": "contract CToken",
        "numberOfBytes": "20"
      },
      "t_contract(PriceFeed)3992": {
        "encoding": "inplace",
        "label": "contract PriceFeed",
        "numberOfBytes": "20"
      },
      "t_mapping(t_address,t_array(t_contract(CToken)2985)dyn_storage)": {
        "encoding": "mapping",
        "key": "t_address",
        "label": "mapping(address => contract CToken[])",
        "numberOfBytes": "32",
        "value": "t_array(t_contract(CToken)2985)dyn_storage"
      },
      "t_mapping(t_address,t_bool)": {
        "encoding": "mapping",
        "key": "t_address",
        "label": "mapping(address => bool)",
        "numberOfBytes": "32",
        "value": "t_bool"
      },
      "t_mapping(t_address,t_struct(Market)3122_storage)": {
        "encoding": "mapping",
        "key": "t_address",
        "label": "mapping(address => struct Markets.Market)",
        "numberOfBytes": "32",
        "value": "t_struct(Market)3122_storage"
      },
      "t_mapping(t_bytes32,t_struct(RoleData)19_storage)": {
        "encoding": "mapping",
        "key": "t_bytes32",
        "label": "mapping(bytes32 => struct AccessControl.RoleData)",
        "numberOfBytes": "32",
        "value": "t_struct(RoleData)19_storage"
      },
      "t_struct(Market)3122_storage": {
        "encoding": "inplace",
        "label": "struct Markets.Market",
        "members": [
          {
            "astId": 3115,
            "contract": "contracts/Markets.sol:Markets",
            "label": "isListed",
            "offset": 0,
            "slot": "0",
            "type": "t_bool"
          },
          {
            "astId": 3117,
            "contract": "contracts/Markets.sol:Markets",
            "label": "collateralFactor",
            "offset": 0,
            "slot": "1",
            "type": "t_uint256"
          },
          {
            "astId": 3121,
            "contract": "contracts/Markets.sol:Markets",
            "label": "membership",
            "offset": 0,
            "slot": "2",
            "type": "t_mapping(t_address,t_bool)"
          }
        ],
        "numberOfBytes": "96"
      },
      "t_struct(RoleData)19_storage": {
        "encoding": "inplace",
        "label": "struct AccessControl.RoleData",
        "members": [
          {
            "astId": 16,
            "contract": "contracts/Markets.sol:Markets",
            "label": "members",
            "offset": 0,
            "slot": "0",
            "type": "t_mapping(t_address,t_bool)"
          },
          {
            "astId": 18,
            "contract": "contracts/Markets.sol:Markets",
            "label": "adminRole",
            "offset": 0,
            "slot": "1",
            "type": "t_bytes32"
          }
        ],
        "numberOfBytes": "64"
      },
      "t_uint256": {
        "encoding": "inplace",
        "label": "uint256",
        "numberOfBytes": "32"
      }
    }
  }
}