{
  "contractName": "MediaLibrary",
  "abi": [
    {
      "inputs": [],
      "name": "SHARES_DENOMINATOR",
      "outputs": [
        {
          "internalType": "uint256",
          "name": "",
          "type": "uint256"
        }
      ],
      "stateMutability": "view",
      "type": "function"
    }
  ],
  "bytecode": "0x611692610053600b82828239805160001a607314610046577f4e487b7100000000000000000000000000000000000000000000000000000000600052600060045260246000fd5b30600052607381538281f3fe730000000000000000000000000000000000000000301460806040526004361061009d5760003560e01c8063679d5a3e11610070578063679d5a3e146101505780636cb4f06c1461018157806370ca1e93146101b1578063d19db309146101e1578063e1730a0f146102115761009d565b806302aa9a08146100a257806304f9d0c1146100d2578063226d88c0146101025780635a7633cf14610120575b600080fd5b6100bc60048036038101906100b79190610f55565b610241565b6040516100c9919061121b565b60405180910390f35b6100ec60048036038101906100e79190610fa9565b6103a8565b6040516100f9919061123d565b60405180910390f35b61010a6105eb565b604051610117919061129c565b60405180910390f35b61013a60048036038101906101359190610f55565b6105f1565b604051610147919061125f565b60405180910390f35b61016a60048036038101906101659190610fa9565b6107c7565b6040516101789291906112b7565b60405180910390f35b61019b60048036038101906101969190610eee565b610811565b6040516101a89190611281565b60405180910390f35b6101cb60048036038101906101c69190610f55565b6108e2565b6040516101d8919061121b565b60405180910390f35b6101fb60048036038101906101f69190610eee565b610a49565b6040516102089190611281565b60405180910390f35b61022b60048036038101906102269190610f55565b610b1a565b604051610238919061125f565b60405180910390f35b606060008360a0015169ffffffffffffffffffff1667ffffffffffffffff811115610295577f4e487b7100000000000000000000000000000000000000000000000000000000600052604160045260246000fd5b6040519080825280602002602001820160405280156102c35781602001602082028036833780820191505090505b50905060005b8460a0015169ffffffffffffffffffff1681101561039d5783600082815260200190815260200160002060000160009054906101000a900473ffffffffffffffffffffffffffffffffffffffff16828281518110610350577f4e487b7100000000000000000000000000000000000000000000000000000000600052603260045260246000fd5b602002602001019073ffffffffffffffffffffffffffffffffffffffff16908173ffffffffffffffffffffffffffffffffffffffff1681525050808061039590611519565b9150506102c9565b508091505092915050565b60606000846080015169ffffffffffffffffffff1667ffffffffffffffff8111156103fc577f4e487b7100000000000000000000000000000000000000000000000000000000600052604160045260246000fd5b60405190808252806020026020018201604052801561043557816020015b610422610cf0565b81526020019060019003908161041a5790505b50905060005b856080015169ffffffffffffffffffff168110156105df5760008460008381526020019081526020016000206040518060400160405290816000820160009054906101000a900473ffffffffffffffffffffffffffffffffffffffff1673ffffffffffffffffffffffffffffffffffffffff1673ffffffffffffffffffffffffffffffffffffffff1681526020016001820160009054906101000a900473ffffffffffffffffffffffffffffffffffffffff1673ffffffffffffffffffffffffffffffffffffffff1673ffffffffffffffffffffffffffffffffffffffff168152505090506000612710826020015173ffffffffffffffffffffffffffffffffffffffff168861054b9190611419565b61055591906113e8565b90506040518060400160405280836000015173ffffffffffffffffffffffffffffffffffffffff168152602001828152508484815181106105bf577f4e487b7100000000000000000000000000000000000000000000000000000000600052603260045260246000fd5b6020026020010181905250505080806105d790611519565b91505061043b565b50809150509392505050565b61271081565b606060008360a0015169ffffffffffffffffffff1667ffffffffffffffff811115610645577f4e487b7100000000000000000000000000000000000000000000000000000000600052604160045260246000fd5b60405190808252806020026020018201604052801561067e57816020015b61066b610d20565b8152602001906001900390816106635790505b50905060005b8460a0015169ffffffffffffffffffff168110156107bc578360008281526020019081526020016000206040518060400160405290816000820160009054906101000a900473ffffffffffffffffffffffffffffffffffffffff1673ffffffffffffffffffffffffffffffffffffffff1673ffffffffffffffffffffffffffffffffffffffff1681526020016001820160009054906101000a900473ffffffffffffffffffffffffffffffffffffffff1673ffffffffffffffffffffffffffffffffffffffff1673ffffffffffffffffffffffffffffffffffffffff168152505082828151811061079e577f4e487b7100000000000000000000000000000000000000000000000000000000600052603260045260246000fd5b602002602001018190525080806107b490611519565b915050610684565b508091505092915050565b600060606000612710866060015169ffffffffffffffffffff16866107ec9190611419565b6107f691906113e8565b9050806108048783876103a8565b9250925050935093915050565b600080600090505b846080015169ffffffffffffffffffff168110156108b6578373ffffffffffffffffffffffffffffffffffffffff1683600083815260200190815260200160002060000160009054906101000a900473ffffffffffffffffffffffffffffffffffffffff1673ffffffffffffffffffffffffffffffffffffffff1614156108a357809150506108db565b80806108ae90611519565b915050610819565b507fffffffffffffffffffffffffffffffffffffffffffffffffffffffffffffffff90505b9392505050565b60606000836080015169ffffffffffffffffffff1667ffffffffffffffff811115610936577f4e487b7100000000000000000000000000000000000000000000000000000000600052604160045260246000fd5b6040519080825280602002602001820160405280156109645781602001602082028036833780820191505090505b50905060005b846080015169ffffffffffffffffffff16811015610a3e5783600082815260200190815260200160002060000160009054906101000a900473ffffffffffffffffffffffffffffffffffffffff168282815181106109f1577f4e487b7100000000000000000000000000000000000000000000000000000000600052603260045260246000fd5b602002602001019073ffffffffffffffffffffffffffffffffffffffff16908173ffffffffffffffffffffffffffffffffffffffff16815250508080610a3690611519565b91505061096a565b508091505092915050565b600080600090505b8460a0015169ffffffffffffffffffff16811015610aee578373ffffffffffffffffffffffffffffffffffffffff1683600083815260200190815260200160002060000160009054906101000a900473ffffffffffffffffffffffffffffffffffffffff1673ffffffffffffffffffffffffffffffffffffffff161415610adb5780915050610b13565b8080610ae690611519565b915050610a51565b507fffffffffffffffffffffffffffffffffffffffffffffffffffffffffffffffff90505b9392505050565b60606000836080015169ffffffffffffffffffff1667ffffffffffffffff811115610b6e577f4e487b7100000000000000000000000000000000000000000000000000000000600052604160045260246000fd5b604051908082528060200260200182016040528015610ba757816020015b610b94610d20565b815260200190600190039081610b8c5790505b50905060005b846080015169ffffffffffffffffffff16811015610ce5578360008281526020019081526020016000206040518060400160405290816000820160009054906101000a900473ffffffffffffffffffffffffffffffffffffffff1673ffffffffffffffffffffffffffffffffffffffff1673ffffffffffffffffffffffffffffffffffffffff1681526020016001820160009054906101000a900473ffffffffffffffffffffffffffffffffffffffff1673ffffffffffffffffffffffffffffffffffffffff1673ffffffffffffffffffffffffffffffffffffffff1681525050828281518110610cc7577f4e487b7100000000000000000000000000000000000000000000000000000000600052603260045260246000fd5b60200260200101819052508080610cdd90611519565b915050610bad565b508091505092915050565b6040518060400160405280600073ffffffffffffffffffffffffffffffffffffffff168152602001600081525090565b6040518060400160405280600073ffffffffffffffffffffffffffffffffffffffff168152602001600073ffffffffffffffffffffffffffffffffffffffff1681525090565b6000610d79610d748461130c565b6112e7565b905082815260208101848484011115610d9157600080fd5b610d9c8482856114d9565b509392505050565b600081359050610db381611600565b92915050565b600081359050610dc881611617565b92915050565b600082601f830112610ddf57600080fd5b8135610def848260208601610d66565b91505092915050565b600060c08284031215610e0a57600080fd5b610e1460c06112e7565b90506000610e2484828501610da4565b600083015250602082013567ffffffffffffffff811115610e4457600080fd5b610e5084828501610dce565b602083015250604082013567ffffffffffffffff811115610e7057600080fd5b610e7c84828501610dce565b6040830152506060610e9084828501610ed9565b6060830152506080610ea484828501610ed9565b60808301525060a0610eb884828501610ed9565b60a08301525092915050565b600081359050610ed38161162e565b92915050565b600081359050610ee881611645565b92915050565b600080600060608486031215610f0357600080fd5b600084013567ffffffffffffffff811115610f1d57600080fd5b610f2986828701610df8565b9350506020610f3a86828701610da4565b9250506040610f4b86828701610db9565b9150509250925092565b60008060408385031215610f6857600080fd5b600083013567ffffffffffffffff811115610f8257600080fd5b610f8e85828601610df8565b9250506020610f9f85828601610db9565b9150509250929050565b600080600060608486031215610fbe57600080fd5b600084013567ffffffffffffffff811115610fd857600080fd5b610fe486828701610df8565b9350506020610ff586828701610ec4565b925050604061100686828701610db9565b9150509250925092565b600061101c8383611058565b60208301905092915050565b60006110348383611190565b60408301905092915050565b600061104c83836111bf565b60408301905092915050565b61106181611473565b82525050565b60006110728261136d565b61107c81856113b5565b93506110878361133d565b8060005b838110156110b857815161109f8882611010565b97506110aa8361138e565b92505060018101905061108b565b5085935050505092915050565b60006110d082611378565b6110da81856113c6565b93506110e58361134d565b8060005b838110156111165781516110fd8882611028565b97506111088361139b565b9250506001810190506110e9565b5085935050505092915050565b600061112e82611383565b61113881856113d7565b93506111438361135d565b8060005b8381101561117457815161115b8882611040565b9750611166836113a8565b925050600181019050611147565b5085935050505092915050565b61118a81611485565b82525050565b6040820160008201516111a66000850182611058565b5060208201516111b9602085018261120c565b50505050565b6040820160008201516111d56000850182611058565b5060208201516111e860208501826111ee565b50505050565b6111f781611499565b82525050565b611206816114b9565b82525050565b611215816114b9565b82525050565b600060208201905081810360008301526112358184611067565b905092915050565b6000602082019050818103600083015261125781846110c5565b905092915050565b600060208201905081810360008301526112798184611123565b905092915050565b60006020820190506112966000830184611181565b92915050565b60006020820190506112b160008301846111fd565b92915050565b60006040820190506112cc60008301856111fd565b81810360208301526112de81846110c5565b90509392505050565b60006112f1611302565b90506112fd82826114e8565b919050565b6000604051905090565b600067ffffffffffffffff821115611327576113266115c0565b5b611330826115ef565b9050602081019050919050565b6000819050602082019050919050565b6000819050602082019050919050565b6000819050602082019050919050565b600081519050919050565b600081519050919050565b600081519050919050565b6000602082019050919050565b6000602082019050919050565b6000602082019050919050565b600082825260208201905092915050565b600082825260208201905092915050565b600082825260208201905092915050565b60006113f3826114b9565b91506113fe836114b9565b92508261140e5761140d611591565b5b828204905092915050565b6000611424826114b9565b915061142f836114b9565b9250817fffffffffffffffffffffffffffffffffffffffffffffffffffffffffffffffff048311821515161561146857611467611562565b5b828202905092915050565b600061147e82611499565b9050919050565b6000819050919050565b6000819050919050565b600073ffffffffffffffffffffffffffffffffffffffff82169050919050565b6000819050919050565b600069ffffffffffffffffffff82169050919050565b82818337600083830152505050565b6114f1826115ef565b810181811067ffffffffffffffff821117156115105761150f6115c0565b5b80604052505050565b6000611524826114b9565b91507fffffffffffffffffffffffffffffffffffffffffffffffffffffffffffffffff82141561155757611556611562565b5b600182019050919050565b7f4e487b7100000000000000000000000000000000000000000000000000000000600052601160045260246000fd5b7f4e487b7100000000000000000000000000000000000000000000000000000000600052601260045260246000fd5b7f4e487b7100000000000000000000000000000000000000000000000000000000600052604160045260246000fd5b6000601f19601f8301169050919050565b61160981611473565b811461161457600080fd5b50565b6116208161148f565b811461162b57600080fd5b50565b611637816114b9565b811461164257600080fd5b50565b61164e816114c3565b811461165957600080fd5b5056fea2646970667358221220eaafcffccf91d9d06e8745b7d88f3b69904ead2c2d7d56902876f1d1c8a48e0664736f6c63430008010033",
  "immutableReferences": {},
  "source": "// SPDX-License-Identifier: MIT\npragma solidity ^0.8.0;\n\nimport \"./Structs.sol\";\n\nlibrary MediaLibrary {\n    // sets the precision of the royalties and shares\n    uint256 public constant SHARES_DENOMINATOR = 10000;\n\n    function getRoyalties(\n        Media memory _media,\n        uint256 _amount,\n        mapping(uint256 => ShareHolder) storage _collabs\n    ) external view returns (uint256, Distribution[] memory) {\n        uint256 fee = (_amount * _media.royalty) / SHARES_DENOMINATOR;\n\n        return (fee, distributeAmountAmongCollabs(_media, fee, _collabs));\n    }\n\n    function distributeAmountAmongCollabs(\n        Media memory _media,\n        uint256 _amount,\n        mapping(uint256 => ShareHolder) storage _collabs\n    ) public view returns (Distribution[] memory) {\n        Distribution[] memory distribution = new Distribution[](_media.collabsSize);\n        for (uint256 i = 0; i < _media.collabsSize; i++) {\n            ShareHolder memory current = _collabs[i];\n            uint256 amount = (_amount * current.share) / SHARES_DENOMINATOR;\n            distribution[i] = (Distribution({holderAddress: current.holderAddress, amount: amount}));\n        }\n        return distribution;\n    }\n\n    function getCollabIndex(\n        Media memory _media,\n        address _collabAddress,\n        mapping(uint256 => ShareHolder) storage _collabs\n    ) external view returns (int256) {\n        for (uint256 i = 0; i < _media.collabsSize; i++) {\n            if (_collabs[i].holderAddress == _collabAddress) {\n                return int256(i);\n            }\n        }\n        return -1;\n    }\n\n    function getOwnerIndex(\n        Media memory _media,\n        address _ownerAddress,\n        mapping(uint256 => ShareHolder) storage _owners\n    ) external view returns (int256) {\n        for (uint256 i = 0; i < _media.ownersSize; i++) {\n            if (_owners[i].holderAddress == _ownerAddress) {\n                return int256(i);\n            }\n        }\n        return -1;\n    }\n\n    function getCollabs(Media memory _media, mapping(uint256 => ShareHolder) storage _collabs)\n        external\n        view\n        returns (ShareHolder[] memory)\n    {\n        ShareHolder[] memory collabsArray = new ShareHolder[](_media.collabsSize);\n        for (uint256 i; i < _media.collabsSize; i++) {\n            collabsArray[i] = _collabs[i];\n        }\n        return collabsArray;\n    }\n\n    function getOwners(Media memory _media, mapping(uint256 => ShareHolder) storage _owners)\n        external\n        view\n        returns (ShareHolder[] memory)\n    {\n        ShareHolder[] memory ownersArray = new ShareHolder[](_media.ownersSize);\n        for (uint256 i; i < _media.ownersSize; i++) {\n            ownersArray[i] = _owners[i];\n        }\n        return ownersArray;\n    }\n\n    function getCollabsAddresses(Media memory _media, mapping(uint256 => ShareHolder) storage _collabs)\n        external\n        view\n        returns (address[] memory)\n    {\n        address[] memory collabsAddressesArray = new address[](_media.collabsSize);\n        for (uint256 i = 0; i < _media.collabsSize; i++) {\n            collabsAddressesArray[i] = _collabs[i].holderAddress;\n        }\n        return collabsAddressesArray;\n    }\n\n    function getOwnersAddresses(Media memory _media, mapping(uint256 => ShareHolder) storage _owner)\n        external\n        view\n        returns (address[] memory)\n    {\n        address[] memory ownersAddressesArray = new address[](_media.ownersSize);\n        for (uint256 i = 0; i < _media.ownersSize; i++) {\n            ownersAddressesArray[i] = _owner[i].holderAddress;\n        }\n        return ownersAddressesArray;\n    }\n}\n",
  "sourcePath": "/home/ericng/Documents/PRIVI/Privi-Polygon/privi-media-nft/contracts/MediaLibrary.sol",
  "compiler": {
    "name": "solc",
    "version": "0.8.1+commit.df193b15.Emscripten.clang"
  },
  "schemaVersion": "3.4.1",
  "updatedAt": "2021-06-24T19:39:06.886Z",
  "networkType": "ethereum",
  "devdoc": {
    "kind": "dev",
    "methods": {},
    "version": 1
  },
  "userdoc": {
    "kind": "user",
    "methods": {},
    "version": 1
  }
}