{
  "contractName": "Media",
  "abi": [
    {
      "inputs": [
        {
          "internalType": "address",
          "name": "_priviNFTContractAddress",
          "type": "address"
        },
        {
          "internalType": "address",
          "name": "_priviSocialTokenAddress",
          "type": "address"
        }
      ],
      "stateMutability": "nonpayable",
      "type": "constructor"
    },
    {
      "anonymous": false,
      "inputs": [
        {
          "indexed": true,
          "internalType": "bytes32",
          "name": "role",
          "type": "bytes32"
        },
        {
          "indexed": true,
          "internalType": "bytes32",
          "name": "previousAdminRole",
          "type": "bytes32"
        },
        {
          "indexed": true,
          "internalType": "bytes32",
          "name": "newAdminRole",
          "type": "bytes32"
        }
      ],
      "name": "RoleAdminChanged",
      "type": "event"
    },
    {
      "anonymous": false,
      "inputs": [
        {
          "indexed": true,
          "internalType": "bytes32",
          "name": "role",
          "type": "bytes32"
        },
        {
          "indexed": true,
          "internalType": "address",
          "name": "account",
          "type": "address"
        },
        {
          "indexed": true,
          "internalType": "address",
          "name": "sender",
          "type": "address"
        }
      ],
      "name": "RoleGranted",
      "type": "event"
    },
    {
      "anonymous": false,
      "inputs": [
        {
          "indexed": true,
          "internalType": "bytes32",
          "name": "role",
          "type": "bytes32"
        },
        {
          "indexed": true,
          "internalType": "address",
          "name": "account",
          "type": "address"
        },
        {
          "indexed": true,
          "internalType": "address",
          "name": "sender",
          "type": "address"
        }
      ],
      "name": "RoleRevoked",
      "type": "event"
    },
    {
      "inputs": [],
      "name": "ADMIN",
      "outputs": [
        {
          "internalType": "bytes32",
          "name": "",
          "type": "bytes32"
        }
      ],
      "stateMutability": "view",
      "type": "function",
      "constant": true
    },
    {
      "inputs": [],
      "name": "DEFAULT_ADMIN_ROLE",
      "outputs": [
        {
          "internalType": "bytes32",
          "name": "",
          "type": "bytes32"
        }
      ],
      "stateMutability": "view",
      "type": "function",
      "constant": true
    },
    {
      "inputs": [
        {
          "internalType": "bytes32",
          "name": "role",
          "type": "bytes32"
        }
      ],
      "name": "getRoleAdmin",
      "outputs": [
        {
          "internalType": "bytes32",
          "name": "",
          "type": "bytes32"
        }
      ],
      "stateMutability": "view",
      "type": "function",
      "constant": true
    },
    {
      "inputs": [
        {
          "internalType": "bytes32",
          "name": "role",
          "type": "bytes32"
        },
        {
          "internalType": "address",
          "name": "account",
          "type": "address"
        }
      ],
      "name": "grantRole",
      "outputs": [],
      "stateMutability": "nonpayable",
      "type": "function"
    },
    {
      "inputs": [
        {
          "internalType": "bytes32",
          "name": "role",
          "type": "bytes32"
        },
        {
          "internalType": "address",
          "name": "account",
          "type": "address"
        }
      ],
      "name": "hasRole",
      "outputs": [
        {
          "internalType": "bool",
          "name": "",
          "type": "bool"
        }
      ],
      "stateMutability": "view",
      "type": "function",
      "constant": true
    },
    {
      "inputs": [],
      "name": "priviNFTContractAddress",
      "outputs": [
        {
          "internalType": "address",
          "name": "",
          "type": "address"
        }
      ],
      "stateMutability": "view",
      "type": "function",
      "constant": true
    },
    {
      "inputs": [],
      "name": "priviSocialTokenAddress",
      "outputs": [
        {
          "internalType": "address",
          "name": "",
          "type": "address"
        }
      ],
      "stateMutability": "view",
      "type": "function",
      "constant": true
    },
    {
      "inputs": [
        {
          "internalType": "bytes32",
          "name": "role",
          "type": "bytes32"
        },
        {
          "internalType": "address",
          "name": "account",
          "type": "address"
        }
      ],
      "name": "renounceRole",
      "outputs": [],
      "stateMutability": "nonpayable",
      "type": "function"
    },
    {
      "inputs": [
        {
          "internalType": "bytes32",
          "name": "role",
          "type": "bytes32"
        },
        {
          "internalType": "address",
          "name": "account",
          "type": "address"
        }
      ],
      "name": "revokeRole",
      "outputs": [],
      "stateMutability": "nonpayable",
      "type": "function"
    },
    {
      "inputs": [
        {
          "internalType": "bytes4",
          "name": "interfaceId",
          "type": "bytes4"
        }
      ],
      "name": "supportsInterface",
      "outputs": [
        {
          "internalType": "bool",
          "name": "",
          "type": "bool"
        }
      ],
      "stateMutability": "view",
      "type": "function",
      "constant": true
    }
  ],
  "bytecode": "0x60806040523480156200001157600080fd5b506040516200136338038062001363833981810160405281019062000037919062000298565b6200004c6000801b336200010860201b60201c565b6200007e7ff23ec0bb4210edd5cba85afd05127efcd2fc6a781bfed49188da1081670b22d8336200010860201b60201c565b81600160006101000a81548173ffffffffffffffffffffffffffffffffffffffff021916908373ffffffffffffffffffffffffffffffffffffffff16021790555080600260006101000a81548173ffffffffffffffffffffffffffffffffffffffff021916908373ffffffffffffffffffffffffffffffffffffffff160217905550505062000327565b6200011a82826200011e60201b60201c565b5050565b6200013082826200020f60201b60201c565b6200020b57600160008084815260200190815260200160002060000160008373ffffffffffffffffffffffffffffffffffffffff1673ffffffffffffffffffffffffffffffffffffffff16815260200190815260200160002060006101000a81548160ff021916908315150217905550620001b06200027960201b60201c565b73ffffffffffffffffffffffffffffffffffffffff168173ffffffffffffffffffffffffffffffffffffffff16837f2f8788117e7eff1d82e926ec794901d17c78024a50270940304540a733656f0d60405160405180910390a45b5050565b600080600084815260200190815260200160002060000160008373ffffffffffffffffffffffffffffffffffffffff1673ffffffffffffffffffffffffffffffffffffffff16815260200190815260200160002060009054906101000a900460ff16905092915050565b600033905090565b60008151905062000292816200030d565b92915050565b60008060408385031215620002ac57600080fd5b6000620002bc8582860162000281565b9250506020620002cf8582860162000281565b9150509250929050565b6000620002e682620002ed565b9050919050565b600073ffffffffffffffffffffffffffffffffffffffff82169050919050565b6200031881620002d9565b81146200032457600080fd5b50565b61102c80620003376000396000f3fe608060405234801561001057600080fd5b506004361061009e5760003560e01c80638c9d62c5116100665780638c9d62c51461015957806391d1485414610177578063a217fddf146101a7578063d547741f146101c5578063fa51fa3c146101e15761009e565b806301ffc9a7146100a3578063248a9ca3146100d35780632a0acc6a146101035780632f2ff15d1461012157806336568abe1461013d575b600080fd5b6100bd60048036038101906100b89190610abc565b6101ff565b6040516100ca9190610c5d565b60405180910390f35b6100ed60048036038101906100e89190610a57565b610279565b6040516100fa9190610c78565b60405180910390f35b61010b610298565b6040516101189190610c78565b60405180910390f35b61013b60048036038101906101369190610a80565b6102bc565b005b61015760048036038101906101529190610a80565b6102e5565b005b610161610368565b60405161016e9190610c42565b60405180910390f35b610191600480360381019061018c9190610a80565b61038e565b60405161019e9190610c5d565b60405180910390f35b6101af6103f8565b6040516101bc9190610c78565b60405180910390f35b6101df60048036038101906101da9190610a80565b6103ff565b005b6101e9610428565b6040516101f69190610c42565b60405180910390f35b60007f7965db0b000000000000000000000000000000000000000000000000000000007bffffffffffffffffffffffffffffffffffffffffffffffffffffffff1916827bffffffffffffffffffffffffffffffffffffffffffffffffffffffff1916148061027257506102718261044e565b5b9050919050565b6000806000838152602001908152602001600020600101549050919050565b7ff23ec0bb4210edd5cba85afd05127efcd2fc6a781bfed49188da1081670b22d881565b6102c582610279565b6102d6816102d16104b8565b6104c0565b6102e0838361055d565b505050565b6102ed6104b8565b73ffffffffffffffffffffffffffffffffffffffff168173ffffffffffffffffffffffffffffffffffffffff161461035a576040517f08c379a000000000000000000000000000000000000000000000000000000000815260040161035190610cd5565b60405180910390fd5b610364828261063d565b5050565b600260009054906101000a900473ffffffffffffffffffffffffffffffffffffffff1681565b600080600084815260200190815260200160002060000160008373ffffffffffffffffffffffffffffffffffffffff1673ffffffffffffffffffffffffffffffffffffffff16815260200190815260200160002060009054906101000a900460ff16905092915050565b6000801b81565b61040882610279565b610419816104146104b8565b6104c0565b610423838361063d565b505050565b600160009054906101000a900473ffffffffffffffffffffffffffffffffffffffff1681565b60007f01ffc9a7000000000000000000000000000000000000000000000000000000007bffffffffffffffffffffffffffffffffffffffffffffffffffffffff1916827bffffffffffffffffffffffffffffffffffffffffffffffffffffffff1916149050919050565b600033905090565b6104ca828261038e565b610559576104ef8173ffffffffffffffffffffffffffffffffffffffff16601461071e565b6104fd8360001c602061071e565b60405160200161050e929190610c08565b6040516020818303038152906040526040517f08c379a00000000000000000000000000000000000000000000000000000000081526004016105509190610c93565b60405180910390fd5b5050565b610567828261038e565b61063957600160008084815260200190815260200160002060000160008373ffffffffffffffffffffffffffffffffffffffff1673ffffffffffffffffffffffffffffffffffffffff16815260200190815260200160002060006101000a81548160ff0219169083151502179055506105de6104b8565b73ffffffffffffffffffffffffffffffffffffffff168173ffffffffffffffffffffffffffffffffffffffff16837f2f8788117e7eff1d82e926ec794901d17c78024a50270940304540a733656f0d60405160405180910390a45b5050565b610647828261038e565b1561071a57600080600084815260200190815260200160002060000160008373ffffffffffffffffffffffffffffffffffffffff1673ffffffffffffffffffffffffffffffffffffffff16815260200190815260200160002060006101000a81548160ff0219169083151502179055506106bf6104b8565b73ffffffffffffffffffffffffffffffffffffffff168173ffffffffffffffffffffffffffffffffffffffff16837ff6391f5c32d9c69d2a47ea670b442974b53935d1edc7fd64eb21e047a839171b60405160405180910390a45b5050565b6060600060028360026107319190610d72565b61073b9190610d1c565b67ffffffffffffffff81111561077a577f4e487b7100000000000000000000000000000000000000000000000000000000600052604160045260246000fd5b6040519080825280601f01601f1916602001820160405280156107ac5781602001600182028036833780820191505090505b5090507f30000000000000000000000000000000000000000000000000000000000000008160008151811061080a577f4e487b7100000000000000000000000000000000000000000000000000000000600052603260045260246000fd5b60200101907effffffffffffffffffffffffffffffffffffffffffffffffffffffffffffff1916908160001a9053507f780000000000000000000000000000000000000000000000000000000000000081600181518110610894577f4e487b7100000000000000000000000000000000000000000000000000000000600052603260045260246000fd5b60200101907effffffffffffffffffffffffffffffffffffffffffffffffffffffffffffff1916908160001a905350600060018460026108d49190610d72565b6108de9190610d1c565b90505b60018111156109ca577f3031323334353637383961626364656600000000000000000000000000000000600f861660108110610946577f4e487b7100000000000000000000000000000000000000000000000000000000600052603260045260246000fd5b1a60f81b828281518110610983577f4e487b7100000000000000000000000000000000000000000000000000000000600052603260045260246000fd5b60200101907effffffffffffffffffffffffffffffffffffffffffffffffffffffffffffff1916908160001a905350600485901c9450806109c390610e7d565b90506108e1565b5060008414610a0e576040517f08c379a0000000000000000000000000000000000000000000000000000000008152600401610a0590610cb5565b60405180910390fd5b8091505092915050565b600081359050610a2781610fb1565b92915050565b600081359050610a3c81610fc8565b92915050565b600081359050610a5181610fdf565b92915050565b600060208284031215610a6957600080fd5b6000610a7784828501610a2d565b91505092915050565b60008060408385031215610a9357600080fd5b6000610aa185828601610a2d565b9250506020610ab285828601610a18565b9150509250929050565b600060208284031215610ace57600080fd5b6000610adc84828501610a42565b91505092915050565b610aee81610dcc565b82525050565b610afd81610dde565b82525050565b610b0c81610dea565b82525050565b6000610b1d82610cf5565b610b278185610d00565b9350610b37818560208601610e4a565b610b4081610ed6565b840191505092915050565b6000610b5682610cf5565b610b608185610d11565b9350610b70818560208601610e4a565b80840191505092915050565b6000610b89602083610d00565b9150610b9482610ee7565b602082019050919050565b6000610bac601783610d11565b9150610bb782610f10565b601782019050919050565b6000610bcf601183610d11565b9150610bda82610f39565b601182019050919050565b6000610bf2602f83610d00565b9150610bfd82610f62565b604082019050919050565b6000610c1382610b9f565b9150610c1f8285610b4b565b9150610c2a82610bc2565b9150610c368284610b4b565b91508190509392505050565b6000602082019050610c576000830184610ae5565b92915050565b6000602082019050610c726000830184610af4565b92915050565b6000602082019050610c8d6000830184610b03565b92915050565b60006020820190508181036000830152610cad8184610b12565b905092915050565b60006020820190508181036000830152610cce81610b7c565b9050919050565b60006020820190508181036000830152610cee81610be5565b9050919050565b600081519050919050565b600082825260208201905092915050565b600081905092915050565b6000610d2782610e40565b9150610d3283610e40565b9250827fffffffffffffffffffffffffffffffffffffffffffffffffffffffffffffffff03821115610d6757610d66610ea7565b5b828201905092915050565b6000610d7d82610e40565b9150610d8883610e40565b9250817fffffffffffffffffffffffffffffffffffffffffffffffffffffffffffffffff0483118215151615610dc157610dc0610ea7565b5b828202905092915050565b6000610dd782610e20565b9050919050565b60008115159050919050565b6000819050919050565b60007fffffffff0000000000000000000000000000000000000000000000000000000082169050919050565b600073ffffffffffffffffffffffffffffffffffffffff82169050919050565b6000819050919050565b60005b83811015610e68578082015181840152602081019050610e4d565b83811115610e77576000848401525b50505050565b6000610e8882610e40565b91506000821415610e9c57610e9b610ea7565b5b600182039050919050565b7f4e487b7100000000000000000000000000000000000000000000000000000000600052601160045260246000fd5b6000601f19601f8301169050919050565b7f537472696e67733a20686578206c656e67746820696e73756666696369656e74600082015250565b7f416363657373436f6e74726f6c3a206163636f756e7420000000000000000000600082015250565b7f206973206d697373696e6720726f6c6520000000000000000000000000000000600082015250565b7f416363657373436f6e74726f6c3a2063616e206f6e6c792072656e6f756e636560008201527f20726f6c657320666f722073656c660000000000000000000000000000000000602082015250565b610fba81610dcc565b8114610fc557600080fd5b50565b610fd181610dea565b8114610fdc57600080fd5b50565b610fe881610df4565b8114610ff357600080fd5b5056fea264697066735822122005df4961072dbafec43a03690773bc662a306f2bf0f1ba9dc67e740880374a2064736f6c63430008010033",
  "immutableReferences": {},
  "source": "// SPDX-License-Identifier: MIT\npragma solidity ^0.8.0;\n\nimport \"@openzeppelin/contracts/access/AccessControl.sol\";\n\ncontract Media is AccessControl {\n    bytes32 public constant ADMIN = keccak256(\"admin\");\n\n    address public priviNFTContractAddress;\n    address public priviSocialTokenAddress;\n\n    constructor(address _priviNFTContractAddress, address _priviSocialTokenAddress) {\n        _setupRole(DEFAULT_ADMIN_ROLE, msg.sender);\n        _setupRole(ADMIN, msg.sender);\n        priviNFTContractAddress = _priviNFTContractAddress;\n        priviSocialTokenAddress = _priviSocialTokenAddress;\n    }\n}\n",
  "sourcePath": "/home/ericng/Documents/PRIVI/Privi-Polygon/privi-media-nft/contracts/Media.sol",
  "compiler": {
    "name": "solc",
    "version": "0.8.1+commit.df193b15.Emscripten.clang"
  },
  "schemaVersion": "3.4.1",
  "updatedAt": "2021-06-19T03:47:52.399Z",
  "networkType": "ethereum",
  "devdoc": {
    "kind": "dev",
    "methods": {
      "getRoleAdmin(bytes32)": {
        "details": "Returns the admin role that controls `role`. See {grantRole} and {revokeRole}. To change a role's admin, use {_setRoleAdmin}."
      },
      "grantRole(bytes32,address)": {
        "details": "Grants `role` to `account`. If `account` had not been already granted `role`, emits a {RoleGranted} event. Requirements: - the caller must have ``role``'s admin role."
      },
      "hasRole(bytes32,address)": {
        "details": "Returns `true` if `account` has been granted `role`."
      },
      "renounceRole(bytes32,address)": {
        "details": "Revokes `role` from the calling account. Roles are often managed via {grantRole} and {revokeRole}: this function's purpose is to provide a mechanism for accounts to lose their privileges if they are compromised (such as when a trusted device is misplaced). If the calling account had been granted `role`, emits a {RoleRevoked} event. Requirements: - the caller must be `account`."
      },
      "revokeRole(bytes32,address)": {
        "details": "Revokes `role` from `account`. If `account` had been granted `role`, emits a {RoleRevoked} event. Requirements: - the caller must have ``role``'s admin role."
      },
      "supportsInterface(bytes4)": {
        "details": "See {IERC165-supportsInterface}."
      }
    },
    "version": 1
  },
  "userdoc": {
    "kind": "user",
    "methods": {},
    "version": 1
  }
}