{
  "contractName": "MediaUpdateManager",
  "abi": [
    {
      "inputs": [
        {
          "internalType": "address",
          "name": "_priviNFTContractAddress",
          "type": "address"
        },
        {
          "internalType": "address",
          "name": "_mediaFractionalizeManagerAddress",
          "type": "address"
        }
      ],
      "stateMutability": "nonpayable",
      "type": "constructor"
    },
    {
      "anonymous": false,
      "inputs": [
        {
          "indexed": true,
          "internalType": "uint256",
          "name": "mediaId",
          "type": "uint256"
        },
        {
          "indexed": false,
          "internalType": "uint256",
          "name": "proposalId",
          "type": "uint256"
        }
      ],
      "name": "AcceptUpdateMediaProposal",
      "type": "event"
    },
    {
      "anonymous": false,
      "inputs": [
        {
          "indexed": true,
          "internalType": "address",
          "name": "from",
          "type": "address"
        },
        {
          "indexed": true,
          "internalType": "uint256",
          "name": "mediaId",
          "type": "uint256"
        },
        {
          "indexed": false,
          "internalType": "uint256",
          "name": "proposalId",
          "type": "uint256"
        }
      ],
      "name": "CreateUpdateMediaProposal",
      "type": "event"
    },
    {
      "anonymous": false,
      "inputs": [
        {
          "indexed": true,
          "internalType": "uint256",
          "name": "mediaId",
          "type": "uint256"
        },
        {
          "indexed": false,
          "internalType": "uint256",
          "name": "proposalId",
          "type": "uint256"
        }
      ],
      "name": "DenyUpdateMediaProposal",
      "type": "event"
    },
    {
      "anonymous": false,
      "inputs": [
        {
          "indexed": true,
          "internalType": "uint256",
          "name": "mediaId",
          "type": "uint256"
        },
        {
          "indexed": false,
          "internalType": "uint256",
          "name": "proposalId",
          "type": "uint256"
        }
      ],
      "name": "ExpireUpdateMediaProposal",
      "type": "event"
    },
    {
      "anonymous": false,
      "inputs": [
        {
          "indexed": true,
          "internalType": "bytes32",
          "name": "role",
          "type": "bytes32"
        },
        {
          "indexed": true,
          "internalType": "bytes32",
          "name": "previousAdminRole",
          "type": "bytes32"
        },
        {
          "indexed": true,
          "internalType": "bytes32",
          "name": "newAdminRole",
          "type": "bytes32"
        }
      ],
      "name": "RoleAdminChanged",
      "type": "event"
    },
    {
      "anonymous": false,
      "inputs": [
        {
          "indexed": true,
          "internalType": "bytes32",
          "name": "role",
          "type": "bytes32"
        },
        {
          "indexed": true,
          "internalType": "address",
          "name": "account",
          "type": "address"
        },
        {
          "indexed": true,
          "internalType": "address",
          "name": "sender",
          "type": "address"
        }
      ],
      "name": "RoleGranted",
      "type": "event"
    },
    {
      "anonymous": false,
      "inputs": [
        {
          "indexed": true,
          "internalType": "bytes32",
          "name": "role",
          "type": "bytes32"
        },
        {
          "indexed": true,
          "internalType": "address",
          "name": "account",
          "type": "address"
        },
        {
          "indexed": true,
          "internalType": "address",
          "name": "sender",
          "type": "address"
        }
      ],
      "name": "RoleRevoked",
      "type": "event"
    },
    {
      "anonymous": false,
      "inputs": [
        {
          "indexed": true,
          "internalType": "address",
          "name": "from",
          "type": "address"
        },
        {
          "indexed": true,
          "internalType": "uint256",
          "name": "mediaId",
          "type": "uint256"
        },
        {
          "indexed": false,
          "internalType": "uint256",
          "name": "proposalId",
          "type": "uint256"
        }
      ],
      "name": "VoteUpdateMediaProposal",
      "type": "event"
    },
    {
      "inputs": [],
      "name": "ADMIN",
      "outputs": [
        {
          "internalType": "bytes32",
          "name": "",
          "type": "bytes32"
        }
      ],
      "stateMutability": "view",
      "type": "function",
      "constant": true
    },
    {
      "inputs": [],
      "name": "DEFAULT_ADMIN_ROLE",
      "outputs": [
        {
          "internalType": "bytes32",
          "name": "",
          "type": "bytes32"
        }
      ],
      "stateMutability": "view",
      "type": "function",
      "constant": true
    },
    {
      "inputs": [],
      "name": "MEDIA_ADMIN",
      "outputs": [
        {
          "internalType": "bytes32",
          "name": "",
          "type": "bytes32"
        }
      ],
      "stateMutability": "view",
      "type": "function",
      "constant": true
    },
    {
      "inputs": [],
      "name": "UPDATE_MEDIA_PROPOSAL_DURATION",
      "outputs": [
        {
          "internalType": "uint64",
          "name": "",
          "type": "uint64"
        }
      ],
      "stateMutability": "view",
      "type": "function",
      "constant": true
    },
    {
      "inputs": [
        {
          "internalType": "bytes32",
          "name": "role",
          "type": "bytes32"
        }
      ],
      "name": "getRoleAdmin",
      "outputs": [
        {
          "internalType": "bytes32",
          "name": "",
          "type": "bytes32"
        }
      ],
      "stateMutability": "view",
      "type": "function",
      "constant": true
    },
    {
      "inputs": [
        {
          "internalType": "bytes32",
          "name": "role",
          "type": "bytes32"
        },
        {
          "internalType": "address",
          "name": "account",
          "type": "address"
        }
      ],
      "name": "grantRole",
      "outputs": [],
      "stateMutability": "nonpayable",
      "type": "function"
    },
    {
      "inputs": [
        {
          "internalType": "bytes32",
          "name": "role",
          "type": "bytes32"
        },
        {
          "internalType": "address",
          "name": "account",
          "type": "address"
        }
      ],
      "name": "hasRole",
      "outputs": [
        {
          "internalType": "bool",
          "name": "",
          "type": "bool"
        }
      ],
      "stateMutability": "view",
      "type": "function",
      "constant": true
    },
    {
      "inputs": [],
      "name": "mediaFractionalizeManagerAddress",
      "outputs": [
        {
          "internalType": "address",
          "name": "",
          "type": "address"
        }
      ],
      "stateMutability": "view",
      "type": "function",
      "constant": true
    },
    {
      "inputs": [],
      "name": "priviNFTContractAddress",
      "outputs": [
        {
          "internalType": "address",
          "name": "",
          "type": "address"
        }
      ],
      "stateMutability": "view",
      "type": "function",
      "constant": true
    },
    {
      "inputs": [
        {
          "internalType": "bytes32",
          "name": "role",
          "type": "bytes32"
        },
        {
          "internalType": "address",
          "name": "account",
          "type": "address"
        }
      ],
      "name": "renounceRole",
      "outputs": [],
      "stateMutability": "nonpayable",
      "type": "function"
    },
    {
      "inputs": [
        {
          "internalType": "bytes32",
          "name": "role",
          "type": "bytes32"
        },
        {
          "internalType": "address",
          "name": "account",
          "type": "address"
        }
      ],
      "name": "revokeRole",
      "outputs": [],
      "stateMutability": "nonpayable",
      "type": "function"
    },
    {
      "inputs": [
        {
          "internalType": "bytes4",
          "name": "interfaceId",
          "type": "bytes4"
        }
      ],
      "name": "supportsInterface",
      "outputs": [
        {
          "internalType": "bool",
          "name": "",
          "type": "bool"
        }
      ],
      "stateMutability": "view",
      "type": "function",
      "constant": true
    },
    {
      "inputs": [
        {
          "components": [
            {
              "internalType": "uint128",
              "name": "mediaId",
              "type": "uint128"
            },
            {
              "internalType": "uint128",
              "name": "royalty",
              "type": "uint128"
            },
            {
              "internalType": "address",
              "name": "requesterAddress",
              "type": "address"
            },
            {
              "internalType": "string",
              "name": "mediaName",
              "type": "string"
            },
            {
              "internalType": "string",
              "name": "mediaType",
              "type": "string"
            }
          ],
          "internalType": "struct UpdateMediaRequest",
          "name": "_updateMediaRequest",
          "type": "tuple"
        }
      ],
      "name": "createUpdateMediaProposal",
      "outputs": [],
      "stateMutability": "nonpayable",
      "type": "function"
    },
    {
      "inputs": [
        {
          "internalType": "uint256",
          "name": "_proposalId",
          "type": "uint256"
        }
      ],
      "name": "getUpdateMediaProposal",
      "outputs": [
        {
          "components": [
            {
              "internalType": "uint64",
              "name": "minApprovals",
              "type": "uint64"
            },
            {
              "internalType": "uint64",
              "name": "maxDenials",
              "type": "uint64"
            },
            {
              "internalType": "uint64",
              "name": "duration",
              "type": "uint64"
            },
            {
              "internalType": "uint64",
              "name": "date",
              "type": "uint64"
            },
            {
              "internalType": "uint128",
              "name": "positiveVotesCount",
              "type": "uint128"
            },
            {
              "internalType": "uint128",
              "name": "negativeVotesCount",
              "type": "uint128"
            },
            {
              "components": [
                {
                  "internalType": "uint128",
                  "name": "mediaId",
                  "type": "uint128"
                },
                {
                  "internalType": "uint128",
                  "name": "royalty",
                  "type": "uint128"
                },
                {
                  "internalType": "address",
                  "name": "requesterAddress",
                  "type": "address"
                },
                {
                  "internalType": "string",
                  "name": "mediaName",
                  "type": "string"
                },
                {
                  "internalType": "string",
                  "name": "mediaType",
                  "type": "string"
                }
              ],
              "internalType": "struct UpdateMediaRequest",
              "name": "request",
              "type": "tuple"
            },
            {
              "internalType": "address[]",
              "name": "community",
              "type": "address[]"
            }
          ],
          "internalType": "struct UpdateMediaProposal",
          "name": "",
          "type": "tuple"
        }
      ],
      "stateMutability": "view",
      "type": "function",
      "constant": true
    },
    {
      "inputs": [
        {
          "internalType": "uint256",
          "name": "_proposalId",
          "type": "uint256"
        },
        {
          "internalType": "bool",
          "name": "_vote",
          "type": "bool"
        }
      ],
      "name": "voteMediaUpdateProposal",
      "outputs": [],
      "stateMutability": "nonpayable",
      "type": "function"
    }
  ],
  "bytecode": "0x6101006040523480156200001257600080fd5b50604051620040a3380380620040a38339818101604052810190620000389190620002f3565b6200004d6000801b336200016360201b60201c565b6200007f7ff23ec0bb4210edd5cba85afd05127efcd2fc6a781bfed49188da1081670b22d8336200016360201b60201c565b8173ffffffffffffffffffffffffffffffffffffffff1660808173ffffffffffffffffffffffffffffffffffffffff1660601b815250508073ffffffffffffffffffffffffffffffffffffffff1660a08173ffffffffffffffffffffffffffffffffffffffff1660601b815250508073ffffffffffffffffffffffffffffffffffffffff1660e08173ffffffffffffffffffffffffffffffffffffffff1660601b815250508173ffffffffffffffffffffffffffffffffffffffff1660c08173ffffffffffffffffffffffffffffffffffffffff1660601b81525050505062000382565b6200017582826200017960201b60201c565b5050565b6200018b82826200026a60201b60201c565b6200026657600160008084815260200190815260200160002060000160008373ffffffffffffffffffffffffffffffffffffffff1673ffffffffffffffffffffffffffffffffffffffff16815260200190815260200160002060006101000a81548160ff0219169083151502179055506200020b620002d460201b60201c565b73ffffffffffffffffffffffffffffffffffffffff168173ffffffffffffffffffffffffffffffffffffffff16837f2f8788117e7eff1d82e926ec794901d17c78024a50270940304540a733656f0d60405160405180910390a45b5050565b600080600084815260200190815260200160002060000160008373ffffffffffffffffffffffffffffffffffffffff1673ffffffffffffffffffffffffffffffffffffffff16815260200190815260200160002060009054906101000a900460ff16905092915050565b600033905090565b600081519050620002ed8162000368565b92915050565b600080604083850312156200030757600080fd5b60006200031785828601620002dc565b92505060206200032a85828601620002dc565b9150509250929050565b6000620003418262000348565b9050919050565b600073ffffffffffffffffffffffffffffffffffffffff82169050919050565b620003738162000334565b81146200037f57600080fd5b50565b60805160601c60a05160601c60c05160601c60e05160601c613ccd620003d660003960008181610a6c0152610b630152600081816109b6015261190f01526000610ffa01526000611f2f0152613ccd6000f3fe608060405234801561001057600080fd5b50600436106100f55760003560e01c806391d1485411610097578063d547741f11610066578063d547741f14610286578063e52a8b9c146102a2578063fa51fa3c146102be578063fb43c7e8146102dc576100f5565b806391d14854146101fc57806395c0cc7b1461022c578063a217fddf1461024a578063ae8e522e14610268576100f5565b80632aeef099116100d35780632aeef099146101785780632f2ff15d146101a857806336568abe146101c45780636a1e2884146101e0576100f5565b806301ffc9a7146100fa578063248a9ca31461012a5780632a0acc6a1461015a575b600080fd5b610114600480360381019061010f9190612c3e565b6102fa565b60405161012191906132a4565b60405180910390f35b610144600480360381019061013f9190612bd9565b610374565b60405161015191906132bf565b60405180910390f35b610162610393565b60405161016f91906132bf565b60405180910390f35b610192600480360381019061018d9190612d12565b6103b7565b60405161019f91906133fc565b60405180910390f35b6101c260048036038101906101bd9190612c02565b61087c565b005b6101de60048036038101906101d99190612c02565b6108a5565b005b6101fa60048036038101906101f59190612cd1565b610928565b005b61021660048036038101906102119190612c02565b610f8e565b60405161022391906132a4565b60405180910390f35b610234610ff8565b6040516102419190613260565b60405180910390f35b61025261101c565b60405161025f91906132bf565b60405180910390f35b610270611023565b60405161027d9190613476565b60405180910390f35b6102a0600480360381019061029b9190612c02565b61102a565b005b6102bc60048036038101906102b79190612d3b565b611053565b005b6102c6611f2d565b6040516102d39190613260565b60405180910390f35b6102e4611f51565b6040516102f191906132bf565b60405180910390f35b60007f7965db0b000000000000000000000000000000000000000000000000000000007bffffffffffffffffffffffffffffffffffffffffffffffffffffffff1916827bffffffffffffffffffffffffffffffffffffffffffffffffffffffff1916148061036d575061036c82611f75565b5b9050919050565b6000806000838152602001908152602001600020600101549050919050565b7ff23ec0bb4210edd5cba85afd05127efcd2fc6a781bfed49188da1081670b22d881565b6103bf612563565b7ff23ec0bb4210edd5cba85afd05127efcd2fc6a781bfed49188da1081670b22d86103f1816103ec611fdf565b611fe7565b600060026000858152602001908152602001600020604051806101000160405290816000820160009054906101000a900467ffffffffffffffff1667ffffffffffffffff1667ffffffffffffffff1681526020016000820160089054906101000a900467ffffffffffffffff1667ffffffffffffffff1667ffffffffffffffff1681526020016000820160109054906101000a900467ffffffffffffffff1667ffffffffffffffff1667ffffffffffffffff1681526020016000820160189054906101000a900467ffffffffffffffff1667ffffffffffffffff1667ffffffffffffffff1681526020016001820160009054906101000a90046fffffffffffffffffffffffffffffffff166fffffffffffffffffffffffffffffffff166fffffffffffffffffffffffffffffffff1681526020016001820160109054906101000a90046fffffffffffffffffffffffffffffffff166fffffffffffffffffffffffffffffffff166fffffffffffffffffffffffffffffffff168152602001600282016040518060a00160405290816000820160009054906101000a90046fffffffffffffffffffffffffffffffff166fffffffffffffffffffffffffffffffff166fffffffffffffffffffffffffffffffff1681526020016000820160109054906101000a90046fffffffffffffffffffffffffffffffff166fffffffffffffffffffffffffffffffff166fffffffffffffffffffffffffffffffff1681526020016001820160009054906101000a900473ffffffffffffffffffffffffffffffffffffffff1673ffffffffffffffffffffffffffffffffffffffff1673ffffffffffffffffffffffffffffffffffffffff16815260200160028201805461067890613804565b80601f01602080910402602001604051908101604052809291908181526020018280546106a490613804565b80156106f15780601f106106c6576101008083540402835291602001916106f1565b820191906000526020600020905b8154815290600101906020018083116106d457829003601f168201915b5050505050815260200160038201805461070a90613804565b80601f016020809104026020016040519081016040528092919081815260200182805461073690613804565b80156107835780601f1061075857610100808354040283529160200191610783565b820191906000526020600020905b81548152906001019060200180831161076657829003601f168201915b50505050508152505081526020016006820180548060200260200160405190810160405280929190818152602001828054801561081557602002820191906000526020600020905b8160009054906101000a900473ffffffffffffffffffffffffffffffffffffffff1673ffffffffffffffffffffffffffffffffffffffff16815260200190600101908083116107cb575b50505050508152505090506000816000015167ffffffffffffffff161415610872576040517f08c379a00000000000000000000000000000000000000000000000000000000081526004016108699061335c565b60405180910390fd5b8092505050919050565b61088582610374565b61089681610891611fdf565b611fe7565b6108a08383612084565b505050565b6108ad611fdf565b73ffffffffffffffffffffffffffffffffffffffff168173ffffffffffffffffffffffffffffffffffffffff161461091a576040517f08c379a0000000000000000000000000000000000000000000000000000000008152600401610911906133dc565b60405180910390fd5b6109248282612164565b5050565b3373ffffffffffffffffffffffffffffffffffffffff16816040015173ffffffffffffffffffffffffffffffffffffffff161461099a576040517f08c379a0000000000000000000000000000000000000000000000000000000008152600401610991906132fc565b60405180910390fd5b6109a46001612245565b60006109b0600161225b565b905060007f000000000000000000000000000000000000000000000000000000000000000073ffffffffffffffffffffffffffffffffffffffff1663dfa2ed6a84600001516040518263ffffffff1660e01b8152600401610a119190613440565b60006040518083038186803b158015610a2957600080fd5b505afa158015610a3d573d6000803e3d6000fd5b505050506040513d6000823e3d601f19601f82011682018060405250810190610a669190612c90565b905060007f000000000000000000000000000000000000000000000000000000000000000073ffffffffffffffffffffffffffffffffffffffff1663986cad133386600001516040518363ffffffff1660e01b8152600401610ac992919061327b565b60206040518083038186803b158015610ae157600080fd5b505afa158015610af5573d6000803e3d6000fd5b505050506040513d601f19601f82011682018060405250810190610b199190612c67565b90506000811215610b5f576040517f08c379a0000000000000000000000000000000000000000000000000000000008152600401610b569061337c565b60405180910390fd5b60007f000000000000000000000000000000000000000000000000000000000000000073ffffffffffffffffffffffffffffffffffffffff1663c45b56ca86600001516040518263ffffffff1660e01b8152600401610bbe9190613440565b60006040518083038186803b158015610bd657600080fd5b505afa158015610bea573d6000803e3d6000fd5b505050506040513d6000823e3d601f19601f82011682018060405250810190610c139190612b98565b905060006040518061010001604052808560a0015167ffffffffffffffff168152602001600167ffffffffffffffff16815260200162093a8067ffffffffffffffff1681526020014267ffffffffffffffff16815260200160006fffffffffffffffffffffffffffffffff16815260200160006fffffffffffffffffffffffffffffffff168152602001878152602001838152509050806002600087815260200190815260200160002060008201518160000160006101000a81548167ffffffffffffffff021916908367ffffffffffffffff16021790555060208201518160000160086101000a81548167ffffffffffffffff021916908367ffffffffffffffff16021790555060408201518160000160106101000a81548167ffffffffffffffff021916908367ffffffffffffffff16021790555060608201518160000160186101000a81548167ffffffffffffffff021916908367ffffffffffffffff16021790555060808201518160010160006101000a8154816fffffffffffffffffffffffffffffffff02191690836fffffffffffffffffffffffffffffffff16021790555060a08201518160010160106101000a8154816fffffffffffffffffffffffffffffffff02191690836fffffffffffffffffffffffffffffffff16021790555060c08201518160020160008201518160000160006101000a8154816fffffffffffffffffffffffffffffffff02191690836fffffffffffffffffffffffffffffffff16021790555060208201518160000160106101000a8154816fffffffffffffffffffffffffffffffff02191690836fffffffffffffffffffffffffffffffff16021790555060408201518160010160006101000a81548173ffffffffffffffffffffffffffffffffffffffff021916908373ffffffffffffffffffffffffffffffffffffffff1602179055506060820151816002019080519060200190610ee19291906125fa565b506080820151816003019080519060200190610efe9291906125fa565b50505060e0820151816006019080519060200190610f1d929190612680565b5090505085600001516fffffffffffffffffffffffffffffffff163373ffffffffffffffffffffffffffffffffffffffff167f01a2f9378b709204465fbc9b73c149575b00834720c125d114a80502fb89828987604051610f7e919061345b565b60405180910390a3505050505050565b600080600084815260200190815260200160002060000160008373ffffffffffffffffffffffffffffffffffffffff1673ffffffffffffffffffffffffffffffffffffffff16815260200190815260200160002060009054906101000a900460ff16905092915050565b7f000000000000000000000000000000000000000000000000000000000000000081565b6000801b81565b62093a8081565b61103382610374565b6110448161103f611fdf565b611fe7565b61104e8383612164565b505050565b60006002600084815260200190815260200160002060000160009054906101000a900467ffffffffffffffff1667ffffffffffffffff1614156110cb576040517f08c379a00000000000000000000000000000000000000000000000000000000081526004016110c29061333c565b60405180910390fd5b600060026000848152602001908152602001600020604051806101000160405290816000820160009054906101000a900467ffffffffffffffff1667ffffffffffffffff1667ffffffffffffffff1681526020016000820160089054906101000a900467ffffffffffffffff1667ffffffffffffffff1667ffffffffffffffff1681526020016000820160109054906101000a900467ffffffffffffffff1667ffffffffffffffff1667ffffffffffffffff1681526020016000820160189054906101000a900467ffffffffffffffff1667ffffffffffffffff1667ffffffffffffffff1681526020016001820160009054906101000a90046fffffffffffffffffffffffffffffffff166fffffffffffffffffffffffffffffffff166fffffffffffffffffffffffffffffffff1681526020016001820160109054906101000a90046fffffffffffffffffffffffffffffffff166fffffffffffffffffffffffffffffffff166fffffffffffffffffffffffffffffffff168152602001600282016040518060a00160405290816000820160009054906101000a90046fffffffffffffffffffffffffffffffff166fffffffffffffffffffffffffffffffff166fffffffffffffffffffffffffffffffff1681526020016000820160109054906101000a90046fffffffffffffffffffffffffffffffff166fffffffffffffffffffffffffffffffff166fffffffffffffffffffffffffffffffff1681526020016001820160009054906101000a900473ffffffffffffffffffffffffffffffffffffffff1673ffffffffffffffffffffffffffffffffffffffff1673ffffffffffffffffffffffffffffffffffffffff16815260200160028201805461135290613804565b80601f016020809104026020016040519081016040528092919081815260200182805461137e90613804565b80156113cb5780601f106113a0576101008083540402835291602001916113cb565b820191906000526020600020905b8154815290600101906020018083116113ae57829003601f168201915b505050505081526020016003820180546113e490613804565b80601f016020809104026020016040519081016040528092919081815260200182805461141090613804565b801561145d5780601f106114325761010080835404028352916020019161145d565b820191906000526020600020905b81548152906001019060200180831161144057829003601f168201915b5050505050815250508152602001600682018054806020026020016040519081016040528092919081815260200182805480156114ef57602002820191906000526020600020905b8160009054906101000a900473ffffffffffffffffffffffffffffffffffffffff1673ffffffffffffffffffffffffffffffffffffffff16815260200190600101908083116114a5575b50505050508152505090506000805b8260e001515181101561159f573373ffffffffffffffffffffffffffffffffffffffff168360e00151828151811061155f577f4e487b7100000000000000000000000000000000000000000000000000000000600052603260045260246000fd5b602002602001015173ffffffffffffffffffffffffffffffffffffffff16141561158c576001915061159f565b8080611597906138a0565b9150506114fe565b50806115e0576040517f08c379a00000000000000000000000000000000000000000000000000000000081526004016115d79061339c565b60405180910390fd5b6003600085815260200190815260200160002060003373ffffffffffffffffffffffffffffffffffffffff1673ffffffffffffffffffffffffffffffffffffffff16815260200190815260200160002060009054906101000a900460ff161561167e576040517f08c379a0000000000000000000000000000000000000000000000000000000008152600401611675906133bc565b60405180910390fd5b60016003600086815260200190815260200160002060003373ffffffffffffffffffffffffffffffffffffffff1673ffffffffffffffffffffffffffffffffffffffff16815260200190815260200160002060006101000a81548160ff02191690831515021790555042826040015183606001516116fc9190613620565b67ffffffffffffffff1610156118cf5760026000858152602001908152602001600020600080820160006101000a81549067ffffffffffffffff02191690556000820160086101000a81549067ffffffffffffffff02191690556000820160106101000a81549067ffffffffffffffff02191690556000820160186101000a81549067ffffffffffffffff02191690556001820160006101000a8154906fffffffffffffffffffffffffffffffff02191690556001820160106101000a8154906fffffffffffffffffffffffffffffffff021916905560028201600080820160006101000a8154906fffffffffffffffffffffffffffffffff02191690556000820160106101000a8154906fffffffffffffffffffffffffffffffff02191690556001820160006101000a81549073ffffffffffffffffffffffffffffffffffffffff0219169055600282016000611854919061270a565b600382016000611864919061270a565b5050600682016000611876919061274a565b50508160c00151600001516fffffffffffffffffffffffffffffffff167f703a119562d22da36a3f41beb5fe74fe0c4b7b10529e52532b0eaf2ac71c6d3b856040516118c2919061345b565b60405180910390a2611f27565b8215611c4757816000015167ffffffffffffffff16600183608001516118f59190613584565b6fffffffffffffffffffffffffffffffff161415611b5f577f000000000000000000000000000000000000000000000000000000000000000073ffffffffffffffffffffffffffffffffffffffff1663a26f56de8360c001516040518263ffffffff1660e01b815260040161196a919061341e565b600060405180830381600087803b15801561198457600080fd5b505af1158015611998573d6000803e3d6000fd5b5050505060026000858152602001908152602001600020600080820160006101000a81549067ffffffffffffffff02191690556000820160086101000a81549067ffffffffffffffff02191690556000820160106101000a81549067ffffffffffffffff02191690556000820160186101000a81549067ffffffffffffffff02191690556001820160006101000a8154906fffffffffffffffffffffffffffffffff02191690556001820160106101000a8154906fffffffffffffffffffffffffffffffff021916905560028201600080820160006101000a8154906fffffffffffffffffffffffffffffffff02191690556000820160106101000a8154906fffffffffffffffffffffffffffffffff02191690556001820160006101000a81549073ffffffffffffffffffffffffffffffffffffffff0219169055600282016000611ae4919061270a565b600382016000611af4919061270a565b5050600682016000611b06919061274a565b50508160c00151600001516fffffffffffffffffffffffffffffffff167f70b5bbbecb08ab8a593fc73c7741cca247413f312bf3ead6479e9a4c7e81bfaf85604051611b52919061345b565b60405180910390a2611c42565b60026000858152602001908152602001600020600101600081819054906101000a90046fffffffffffffffffffffffffffffffff1680929190611ba190613867565b91906101000a8154816fffffffffffffffffffffffffffffffff02191690836fffffffffffffffffffffffffffffffff160217905550508160c00151600001516fffffffffffffffffffffffffffffffff163373ffffffffffffffffffffffffffffffffffffffff167f4fd7c05b24cf29645b8f798d29cb526b4c91782e55cd5282948fda60efce7f5886604051611c39919061345b565b60405180910390a35b611f26565b816020015167ffffffffffffffff1660018360a00151611c679190613584565b6fffffffffffffffffffffffffffffffff161415611e425760026000858152602001908152602001600020600080820160006101000a81549067ffffffffffffffff02191690556000820160086101000a81549067ffffffffffffffff02191690556000820160106101000a81549067ffffffffffffffff02191690556000820160186101000a81549067ffffffffffffffff02191690556001820160006101000a8154906fffffffffffffffffffffffffffffffff02191690556001820160106101000a8154906fffffffffffffffffffffffffffffffff021916905560028201600080820160006101000a8154906fffffffffffffffffffffffffffffffff02191690556000820160106101000a8154906fffffffffffffffffffffffffffffffff02191690556001820160006101000a81549073ffffffffffffffffffffffffffffffffffffffff0219169055600282016000611dc7919061270a565b600382016000611dd7919061270a565b5050600682016000611de9919061274a565b50508160c00151600001516fffffffffffffffffffffffffffffffff167f9a9805e3b56adcb7f81742598578e1f68694132d86002e6bde2a23741781e0bd85604051611e35919061345b565b60405180910390a2611f25565b60026000858152602001908152602001600020600101601081819054906101000a90046fffffffffffffffffffffffffffffffff1680929190611e8490613867565b91906101000a8154816fffffffffffffffffffffffffffffffff02191690836fffffffffffffffffffffffffffffffff160217905550508160c00151600001516fffffffffffffffffffffffffffffffff163373ffffffffffffffffffffffffffffffffffffffff167f4fd7c05b24cf29645b8f798d29cb526b4c91782e55cd5282948fda60efce7f5886604051611f1c919061345b565b60405180910390a35b5b5b50505050565b7f000000000000000000000000000000000000000000000000000000000000000081565b7f03e0cf15af010161bcddc9619da1d1d93c81bb9d182401e6efbf761cff2761d481565b60007f01ffc9a7000000000000000000000000000000000000000000000000000000007bffffffffffffffffffffffffffffffffffffffffffffffffffffffff1916827bffffffffffffffffffffffffffffffffffffffffffffffffffffffff1916149050919050565b600033905090565b611ff18282610f8e565b612080576120168173ffffffffffffffffffffffffffffffffffffffff166014612269565b6120248360001c6020612269565b604051602001612035929190613226565b6040516020818303038152906040526040517f08c379a000000000000000000000000000000000000000000000000000000000815260040161207791906132da565b60405180910390fd5b5050565b61208e8282610f8e565b61216057600160008084815260200190815260200160002060000160008373ffffffffffffffffffffffffffffffffffffffff1673ffffffffffffffffffffffffffffffffffffffff16815260200190815260200160002060006101000a81548160ff021916908315150217905550612105611fdf565b73ffffffffffffffffffffffffffffffffffffffff168173ffffffffffffffffffffffffffffffffffffffff16837f2f8788117e7eff1d82e926ec794901d17c78024a50270940304540a733656f0d60405160405180910390a45b5050565b61216e8282610f8e565b1561224157600080600084815260200190815260200160002060000160008373ffffffffffffffffffffffffffffffffffffffff1673ffffffffffffffffffffffffffffffffffffffff16815260200190815260200160002060006101000a81548160ff0219169083151502179055506121e6611fdf565b73ffffffffffffffffffffffffffffffffffffffff168173ffffffffffffffffffffffffffffffffffffffff16837ff6391f5c32d9c69d2a47ea670b442974b53935d1edc7fd64eb21e047a839171b60405160405180910390a45b5050565b6001816000016000828254019250508190555050565b600081600001549050919050565b60606000600283600261227c919061365e565b61228691906135ca565b67ffffffffffffffff8111156122c5577f4e487b7100000000000000000000000000000000000000000000000000000000600052604160045260246000fd5b6040519080825280601f01601f1916602001820160405280156122f75781602001600182028036833780820191505090505b5090507f300000000000000000000000000000000000000000000000000000000000000081600081518110612355577f4e487b7100000000000000000000000000000000000000000000000000000000600052603260045260246000fd5b60200101907effffffffffffffffffffffffffffffffffffffffffffffffffffffffffffff1916908160001a9053507f7800000000000000000000000000000000000000000000000000000000000000816001815181106123df577f4e487b7100000000000000000000000000000000000000000000000000000000600052603260045260246000fd5b60200101907effffffffffffffffffffffffffffffffffffffffffffffffffffffffffffff1916908160001a9053506000600184600261241f919061365e565b61242991906135ca565b90505b6001811115612515577f3031323334353637383961626364656600000000000000000000000000000000600f861660108110612491577f4e487b7100000000000000000000000000000000000000000000000000000000600052603260045260246000fd5b1a60f81b8282815181106124ce577f4e487b7100000000000000000000000000000000000000000000000000000000600052603260045260246000fd5b60200101907effffffffffffffffffffffffffffffffffffffffffffffffffffffffffffff1916908160001a905350600485901c94508061250e906137da565b905061242c565b5060008414612559576040517f08c379a00000000000000000000000000000000000000000000000000000000081526004016125509061331c565b60405180910390fd5b8091505092915050565b604051806101000160405280600067ffffffffffffffff168152602001600067ffffffffffffffff168152602001600067ffffffffffffffff168152602001600067ffffffffffffffff16815260200160006fffffffffffffffffffffffffffffffff16815260200160006fffffffffffffffffffffffffffffffff1681526020016125ed61276b565b8152602001606081525090565b82805461260690613804565b90600052602060002090601f016020900481019282612628576000855561266f565b82601f1061264157805160ff191683800117855561266f565b8280016001018555821561266f579182015b8281111561266e578251825591602001919060010190612653565b5b50905061267c91906127d4565b5090565b8280548282559060005260206000209081019282156126f9579160200282015b828111156126f85782518260006101000a81548173ffffffffffffffffffffffffffffffffffffffff021916908373ffffffffffffffffffffffffffffffffffffffff160217905550916020019190600101906126a0565b5b50905061270691906127d4565b5090565b50805461271690613804565b6000825580601f106127285750612747565b601f01602090049060005260206000209081019061274691906127d4565b5b50565b508054600082559060005260206000209081019061276891906127d4565b50565b6040518060a0016040528060006fffffffffffffffffffffffffffffffff16815260200160006fffffffffffffffffffffffffffffffff168152602001600073ffffffffffffffffffffffffffffffffffffffff16815260200160608152602001606081525090565b5b808211156127ed5760008160009055506001016127d5565b5090565b60006128046127ff846134b6565b613491565b9050808382526020820190508285602086028201111561282357600080fd5b60005b85811015612853578161283988826128ee565b845260208401935060208301925050600181019050612826565b5050509392505050565b600061287061286b846134e2565b613491565b90508281526020810184848401111561288857600080fd5b612893848285613798565b509392505050565b60006128ae6128a9846134e2565b613491565b9050828152602081018484840111156128c657600080fd5b6128d18482856137a7565b509392505050565b6000813590506128e881613bdf565b92915050565b6000815190506128fd81613bdf565b92915050565b600082601f83011261291457600080fd5b81516129248482602086016127f1565b91505092915050565b60008135905061293c81613bf6565b92915050565b60008135905061295181613c0d565b92915050565b60008135905061296681613c24565b92915050565b60008151905061297b81613c3b565b92915050565b600082601f83011261299257600080fd5b81356129a284826020860161285d565b91505092915050565b600082601f8301126129bc57600080fd5b81516129cc84826020860161289b565b91505092915050565b600060c082840312156129e757600080fd5b6129f160c0613491565b90506000612a01848285016128ee565b600083015250602082015167ffffffffffffffff811115612a2157600080fd5b612a2d848285016129ab565b602083015250604082015167ffffffffffffffff811115612a4d57600080fd5b612a59848285016129ab565b6040830152506060612a6d84828501612b83565b6060830152506080612a8184828501612b83565b60808301525060a0612a9584828501612b83565b60a08301525092915050565b600060a08284031215612ab357600080fd5b612abd60a0613491565b90506000612acd84828501612b59565b6000830152506020612ae184828501612b59565b6020830152506040612af5848285016128d9565b604083015250606082013567ffffffffffffffff811115612b1557600080fd5b612b2184828501612981565b606083015250608082013567ffffffffffffffff811115612b4157600080fd5b612b4d84828501612981565b60808301525092915050565b600081359050612b6881613c52565b92915050565b600081359050612b7d81613c69565b92915050565b600081519050612b9281613c80565b92915050565b600060208284031215612baa57600080fd5b600082015167ffffffffffffffff811115612bc457600080fd5b612bd084828501612903565b91505092915050565b600060208284031215612beb57600080fd5b6000612bf984828501612942565b91505092915050565b60008060408385031215612c1557600080fd5b6000612c2385828601612942565b9250506020612c34858286016128d9565b9150509250929050565b600060208284031215612c5057600080fd5b6000612c5e84828501612957565b91505092915050565b600060208284031215612c7957600080fd5b6000612c878482850161296c565b91505092915050565b600060208284031215612ca257600080fd5b600082015167ffffffffffffffff811115612cbc57600080fd5b612cc8848285016129d5565b91505092915050565b600060208284031215612ce357600080fd5b600082013567ffffffffffffffff811115612cfd57600080fd5b612d0984828501612aa1565b91505092915050565b600060208284031215612d2457600080fd5b6000612d3284828501612b6e565b91505092915050565b60008060408385031215612d4e57600080fd5b6000612d5c85828601612b6e565b9250506020612d6d8582860161292d565b9150509250929050565b6000612d838383612d8f565b60208301905092915050565b612d98816136b8565b82525050565b612da7816136b8565b82525050565b6000612db882613523565b612dc28185613546565b9350612dcd83613513565b8060005b83811015612dfe578151612de58882612d77565b9750612df083613539565b925050600181019050612dd1565b5085935050505092915050565b612e14816136ca565b82525050565b612e23816136d6565b82525050565b6000612e348261352e565b612e3e8185613557565b9350612e4e8185602086016137a7565b612e5781613976565b840191505092915050565b6000612e6d8261352e565b612e778185613568565b9350612e878185602086016137a7565b612e9081613976565b840191505092915050565b6000612ea68261352e565b612eb08185613579565b9350612ec08185602086016137a7565b80840191505092915050565b6000612ed9601e83613568565b9150612ee482613987565b602082019050919050565b6000612efc602083613568565b9150612f07826139b0565b602082019050919050565b6000612f1f602183613568565b9150612f2a826139d9565b604082019050919050565b6000612f42602483613568565b9150612f4d82613a28565b604082019050919050565b6000612f65601783613579565b9150612f7082613a77565b601782019050919050565b6000612f88602783613568565b9150612f9382613aa0565b604082019050919050565b6000612fab602183613568565b9150612fb682613aef565b604082019050919050565b6000612fce601983613568565b9150612fd982613b3e565b602082019050919050565b6000612ff1601183613579565b9150612ffc82613b67565b601182019050919050565b6000613014602f83613568565b915061301f82613b90565b604082019050919050565b6000610100830160008301516130436000860182613208565b5060208301516130566020860182613208565b5060408301516130696040860182613208565b50606083015161307c6060860182613208565b50608083015161308f60808601826131db565b5060a08301516130a260a08601826131db565b5060c083015184820360c08601526130ba82826130e1565b91505060e083015184820360e08601526130d48282612dad565b9150508091505092915050565b600060a0830160008301516130f960008601826131db565b50602083015161310c60208601826131db565b50604083015161311f6040860182612d8f565b50606083015184820360608601526131378282612e29565b915050608083015184820360808601526131518282612e29565b9150508091505092915050565b600060a08301600083015161317660008601826131db565b50602083015161318960208601826131db565b50604083015161319c6040860182612d8f565b50606083015184820360608601526131b48282612e29565b915050608083015184820360808601526131ce8282612e29565b9150508091505092915050565b6131e481613716565b82525050565b6131f381613786565b82525050565b61320281613752565b82525050565b6132118161375c565b82525050565b6132208161375c565b82525050565b600061323182612f58565b915061323d8285612e9b565b915061324882612fe4565b91506132548284612e9b565b91508190509392505050565b60006020820190506132756000830184612d9e565b92915050565b60006040820190506132906000830185612d9e565b61329d60208301846131ea565b9392505050565b60006020820190506132b96000830184612e0b565b92915050565b60006020820190506132d46000830184612e1a565b92915050565b600060208201905081810360008301526132f48184612e62565b905092915050565b6000602082019050818103600083015261331581612ecc565b9050919050565b6000602082019050818103600083015261333581612eef565b9050919050565b6000602082019050818103600083015261335581612f12565b9050919050565b6000602082019050818103600083015261337581612f35565b9050919050565b6000602082019050818103600083015261339581612f7b565b9050919050565b600060208201905081810360008301526133b581612f9e565b9050919050565b600060208201905081810360008301526133d581612fc1565b9050919050565b600060208201905081810360008301526133f581613007565b9050919050565b60006020820190508181036000830152613416818461302a565b905092915050565b60006020820190508181036000830152613438818461315e565b905092915050565b600060208201905061345560008301846131ea565b92915050565b600060208201905061347060008301846131f9565b92915050565b600060208201905061348b6000830184613217565b92915050565b600061349b6134ac565b90506134a78282613836565b919050565b6000604051905090565b600067ffffffffffffffff8211156134d1576134d0613947565b5b602082029050602081019050919050565b600067ffffffffffffffff8211156134fd576134fc613947565b5b61350682613976565b9050602081019050919050565b6000819050602082019050919050565b600081519050919050565b600081519050919050565b6000602082019050919050565b600082825260208201905092915050565b600082825260208201905092915050565b600082825260208201905092915050565b600081905092915050565b600061358f82613716565b915061359a83613716565b9250826fffffffffffffffffffffffffffffffff038211156135bf576135be6138e9565b5b828201905092915050565b60006135d582613752565b91506135e083613752565b9250827fffffffffffffffffffffffffffffffffffffffffffffffffffffffffffffffff03821115613615576136146138e9565b5b828201905092915050565b600061362b8261375c565b91506136368361375c565b92508267ffffffffffffffff03821115613653576136526138e9565b5b828201905092915050565b600061366982613752565b915061367483613752565b9250817fffffffffffffffffffffffffffffffffffffffffffffffffffffffffffffffff04831182151516156136ad576136ac6138e9565b5b828202905092915050565b60006136c382613732565b9050919050565b60008115159050919050565b6000819050919050565b60007fffffffff0000000000000000000000000000000000000000000000000000000082169050919050565b6000819050919050565b60006fffffffffffffffffffffffffffffffff82169050919050565b600073ffffffffffffffffffffffffffffffffffffffff82169050919050565b6000819050919050565b600067ffffffffffffffff82169050919050565b600069ffffffffffffffffffff82169050919050565b600061379182613716565b9050919050565b82818337600083830152505050565b60005b838110156137c55780820151818401526020810190506137aa565b838111156137d4576000848401525b50505050565b60006137e582613752565b915060008214156137f9576137f86138e9565b5b600182039050919050565b6000600282049050600182168061381c57607f821691505b602082108114156138305761382f613918565b5b50919050565b61383f82613976565b810181811067ffffffffffffffff8211171561385e5761385d613947565b5b80604052505050565b600061387282613716565b91506fffffffffffffffffffffffffffffffff821415613895576138946138e9565b5b600182019050919050565b60006138ab82613752565b91507fffffffffffffffffffffffffffffffffffffffffffffffffffffffffffffffff8214156138de576138dd6138e9565b5b600182019050919050565b7f4e487b7100000000000000000000000000000000000000000000000000000000600052601160045260246000fd5b7f4e487b7100000000000000000000000000000000000000000000000000000000600052602260045260246000fd5b7f4e487b7100000000000000000000000000000000000000000000000000000000600052604160045260246000fd5b6000601f19601f8301169050919050565b7f41646472657373207369676e6174757265206973206e6f742076616c69640000600082015250565b7f537472696e67733a20686578206c656e67746820696e73756666696369656e74600082015250565b7f566f74696e6720756e6578697374656e74207570646174652070726f706f736160008201527f6c00000000000000000000000000000000000000000000000000000000000000602082015250565b7f517565727920666f7220756e6578697374656e74207570646174652070726f7060008201527f6f73616c00000000000000000000000000000000000000000000000000000000602082015250565b7f416363657373436f6e74726f6c3a206163636f756e7420000000000000000000600082015250565b7f526571756573746572206973206e6f7420616e206f776e6572206f662074686960008201527f73206d6564696100000000000000000000000000000000000000000000000000602082015250565b7f54686520766f746572206973206e6f7420696e2074686520636f6d6d756e697460008201527f7900000000000000000000000000000000000000000000000000000000000000602082015250565b7f5368617265486f6c64657220616c726561647920766f74656400000000000000600082015250565b7f206973206d697373696e6720726f6c6520000000000000000000000000000000600082015250565b7f416363657373436f6e74726f6c3a2063616e206f6e6c792072656e6f756e636560008201527f20726f6c657320666f722073656c660000000000000000000000000000000000602082015250565b613be8816136b8565b8114613bf357600080fd5b50565b613bff816136ca565b8114613c0a57600080fd5b50565b613c16816136d6565b8114613c2157600080fd5b50565b613c2d816136e0565b8114613c3857600080fd5b50565b613c448161370c565b8114613c4f57600080fd5b50565b613c5b81613716565b8114613c6657600080fd5b50565b613c7281613752565b8114613c7d57600080fd5b50565b613c8981613770565b8114613c9457600080fd5b5056fea26469706673582212204784fe7e567f4f801291e8f467c9099eb476b6e8af8b71448c39becefd5eb90c64736f6c63430008010033",
  "immutableReferences": {
    "1478": [
      {
        "length": 32,
        "start": 7983
      }
    ],
    "1480": [
      {
        "length": 32,
        "start": 4090
      }
    ],
    "1483": [
      {
        "length": 32,
        "start": 2486
      },
      {
        "length": 32,
        "start": 6415
      }
    ],
    "1486": [
      {
        "length": 32,
        "start": 2668
      },
      {
        "length": 32,
        "start": 2915
      }
    ]
  },
  "source": "// SPDX-License-Identifier: MIT\npragma solidity ^0.8.0;\n\nimport \"@openzeppelin/contracts/access/AccessControl.sol\";\nimport \"@openzeppelin/contracts/utils/Counters.sol\";\nimport \"./MediaLibrary.sol\";\nimport \"./MediaFractionalizeManager.sol\";\nimport \"./PriviNFT.sol\";\n\ncontract MediaUpdateManager is AccessControl {\n    using Counters for Counters.Counter;\n    using MediaLibrary for Media;\n\n    Counters.Counter private _updateProposalIds;\n\n    uint64 public constant UPDATE_MEDIA_PROPOSAL_DURATION = 1 weeks;\n\n    bytes32 public constant ADMIN = keccak256(\"admin\");\n    // this is the role for the media manager contract\n    bytes32 public constant MEDIA_ADMIN = keccak256(\"media_admin\");\n\n    address public immutable priviNFTContractAddress;\n    address public immutable mediaFractionalizeManagerAddress;\n\n    PriviNFT private immutable _priviNFT;\n    MediaFractionalizeManager private immutable _mediaFractionalizeManager;\n\n    // map from id to updateProposals\n    mapping(uint256 => UpdateMediaProposal) private _updateMediaProposals;\n    // stores a mapping of collabs and if already voted by proposalId\n    mapping(uint256 => mapping(address => bool)) private _updateMediaProposalsVoted;\n\n    event CreateUpdateMediaProposal(address indexed from, uint256 indexed mediaId, uint256 proposalId);\n    event AcceptUpdateMediaProposal(uint256 indexed mediaId, uint256 proposalId);\n    event DenyUpdateMediaProposal(uint256 indexed mediaId, uint256 proposalId);\n    event VoteUpdateMediaProposal(address indexed from, uint256 indexed mediaId, uint256 proposalId);\n    event ExpireUpdateMediaProposal(uint256 indexed mediaId, uint256 proposalId);\n\n    constructor(address _priviNFTContractAddress, address _mediaFractionalizeManagerAddress) {\n        _setupRole(DEFAULT_ADMIN_ROLE, msg.sender);\n        _setupRole(ADMIN, msg.sender);\n        priviNFTContractAddress = _priviNFTContractAddress;\n        mediaFractionalizeManagerAddress = _mediaFractionalizeManagerAddress;\n        _mediaFractionalizeManager = MediaFractionalizeManager(_mediaFractionalizeManagerAddress);\n        _priviNFT = PriviNFT(_priviNFTContractAddress);\n    }\n\n    // allow collabs to propose updates for medias\n    function createUpdateMediaProposal(UpdateMediaRequest memory _updateMediaRequest) external {\n        require(_updateMediaRequest.requesterAddress == msg.sender, \"Address signature is not valid\");\n\n        _updateProposalIds.increment();\n\n        uint256 proposalId = _updateProposalIds.current();\n\n        Media memory media = _priviNFT.getMedia(_updateMediaRequest.mediaId);\n\n        int256 index = _mediaFractionalizeManager.getOwnerIndex(msg.sender, _updateMediaRequest.mediaId);\n        require(index >= 0, \"Requester is not an owner of this media\");\n\n        address[] memory ownersAddresses = _mediaFractionalizeManager.getOwnersAddresses(\n            _updateMediaRequest.mediaId\n        );\n\n        UpdateMediaProposal memory _updateMediaProposal = UpdateMediaProposal({\n            minApprovals: uint64(media.ownersSize),\n            maxDenials: 1,\n            duration: UPDATE_MEDIA_PROPOSAL_DURATION,\n            date: uint64(block.timestamp), // solhint-disable-line\n            positiveVotesCount: 0,\n            negativeVotesCount: 0,\n            community: ownersAddresses,\n            request: _updateMediaRequest\n        });\n\n        // save the proposal for voting\n        _updateMediaProposals[proposalId] = _updateMediaProposal;\n\n        emit CreateUpdateMediaProposal(msg.sender, _updateMediaRequest.mediaId, proposalId);\n    }\n\n    // proposal struct getter by id\n    function getUpdateMediaProposal(uint256 _proposalId)\n        external\n        view\n        onlyRole(ADMIN)\n        returns (UpdateMediaProposal memory)\n    {\n        UpdateMediaProposal memory updateMediaProposal = _updateMediaProposals[_proposalId];\n        require(updateMediaProposal.minApprovals != 0, \"Query for unexistent update proposal\");\n        return updateMediaProposal;\n    }\n\n    // allow collabs to vote updates proposals for medias\n    function voteMediaUpdateProposal(uint256 _proposalId, bool _vote) external {\n        require(_updateMediaProposals[_proposalId].minApprovals != 0, \"Voting unexistent update proposal\");\n\n        UpdateMediaProposal memory updateMediaProposal = _updateMediaProposals[_proposalId];\n\n        bool isInCommunity;\n        for (uint256 i; i < updateMediaProposal.community.length; i++) {\n            if (updateMediaProposal.community[i] == msg.sender) {\n                isInCommunity = true;\n                break;\n            }\n        }\n\n        require(isInCommunity, \"The voter is not in the community\");\n        require(!_updateMediaProposalsVoted[_proposalId][msg.sender], \"ShareHolder already voted\");\n\n        _updateMediaProposalsVoted[_proposalId][msg.sender] = true;\n\n        // check if expired\n        // solhint-disable-next-line\n        if (updateMediaProposal.date + updateMediaProposal.duration < block.timestamp) {\n            // delete the recover gas\n            delete _updateMediaProposals[_proposalId];\n            emit ExpireUpdateMediaProposal(updateMediaProposal.request.mediaId, _proposalId);\n        } else {\n            // if the vote is positive\n            if (_vote) {\n                // if is the last vote to approve\n                if (updateMediaProposal.positiveVotesCount + 1 == updateMediaProposal.minApprovals) {\n                    // update the media and delete the proposal\n                    _priviNFT.updateMedia(updateMediaProposal.request);\n                    delete _updateMediaProposals[_proposalId];\n\n                    emit AcceptUpdateMediaProposal(updateMediaProposal.request.mediaId, _proposalId);\n                } else {\n                    // update the proposal and emit the event\n                    _updateMediaProposals[_proposalId].positiveVotesCount++;\n                    emit VoteUpdateMediaProposal(\n                        msg.sender,\n                        updateMediaProposal.request.mediaId,\n                        _proposalId\n                    );\n                }\n            }\n            // if the vote is negative\n            else {\n                // if is the last vote to deny\n                if (updateMediaProposal.negativeVotesCount + 1 == updateMediaProposal.maxDenials) {\n                    // delete the proposal and emit the event\n                    delete _updateMediaProposals[_proposalId];\n\n                    emit DenyUpdateMediaProposal(updateMediaProposal.request.mediaId, _proposalId);\n                } else {\n                    // update the proposal and emit the event\n                    _updateMediaProposals[_proposalId].negativeVotesCount++;\n                    emit VoteUpdateMediaProposal(\n                        msg.sender,\n                        updateMediaProposal.request.mediaId,\n                        _proposalId\n                    );\n                }\n            }\n        }\n    }\n}\n",
  "sourcePath": "/home/ericng/Documents/PRIVI/Privi-Polygon/privi-media-nft/contracts/MediaUpdateManager.sol",
  "compiler": {
    "name": "solc",
    "version": "0.8.1+commit.df193b15.Emscripten.clang"
  },
  "schemaVersion": "3.4.1",
  "updatedAt": "2021-06-24T19:39:07.002Z",
  "networkType": "ethereum",
  "devdoc": {
    "kind": "dev",
    "methods": {
      "getRoleAdmin(bytes32)": {
        "details": "Returns the admin role that controls `role`. See {grantRole} and {revokeRole}. To change a role's admin, use {_setRoleAdmin}."
      },
      "grantRole(bytes32,address)": {
        "details": "Grants `role` to `account`. If `account` had not been already granted `role`, emits a {RoleGranted} event. Requirements: - the caller must have ``role``'s admin role."
      },
      "hasRole(bytes32,address)": {
        "details": "Returns `true` if `account` has been granted `role`."
      },
      "renounceRole(bytes32,address)": {
        "details": "Revokes `role` from the calling account. Roles are often managed via {grantRole} and {revokeRole}: this function's purpose is to provide a mechanism for accounts to lose their privileges if they are compromised (such as when a trusted device is misplaced). If the calling account had been granted `role`, emits a {RoleRevoked} event. Requirements: - the caller must be `account`."
      },
      "revokeRole(bytes32,address)": {
        "details": "Revokes `role` from `account`. If `account` had been granted `role`, emits a {RoleRevoked} event. Requirements: - the caller must have ``role``'s admin role."
      },
      "supportsInterface(bytes4)": {
        "details": "See {IERC165-supportsInterface}."
      }
    },
    "version": 1
  },
  "userdoc": {
    "kind": "user",
    "methods": {},
    "version": 1
  }
}