{
  "contractName": "MediaFractionalizeManager",
  "abi": [
    {
      "inputs": [
        {
          "internalType": "address",
          "name": "_priviNFTContractAddress",
          "type": "address"
        }
      ],
      "stateMutability": "nonpayable",
      "type": "constructor"
    },
    {
      "anonymous": false,
      "inputs": [
        {
          "indexed": true,
          "internalType": "address",
          "name": "from",
          "type": "address"
        },
        {
          "indexed": true,
          "internalType": "uint256",
          "name": "mediaId",
          "type": "uint256"
        }
      ],
      "name": "Fractionalize",
      "type": "event"
    },
    {
      "anonymous": false,
      "inputs": [
        {
          "indexed": true,
          "internalType": "bytes32",
          "name": "role",
          "type": "bytes32"
        },
        {
          "indexed": true,
          "internalType": "bytes32",
          "name": "previousAdminRole",
          "type": "bytes32"
        },
        {
          "indexed": true,
          "internalType": "bytes32",
          "name": "newAdminRole",
          "type": "bytes32"
        }
      ],
      "name": "RoleAdminChanged",
      "type": "event"
    },
    {
      "anonymous": false,
      "inputs": [
        {
          "indexed": true,
          "internalType": "bytes32",
          "name": "role",
          "type": "bytes32"
        },
        {
          "indexed": true,
          "internalType": "address",
          "name": "account",
          "type": "address"
        },
        {
          "indexed": true,
          "internalType": "address",
          "name": "sender",
          "type": "address"
        }
      ],
      "name": "RoleGranted",
      "type": "event"
    },
    {
      "anonymous": false,
      "inputs": [
        {
          "indexed": true,
          "internalType": "bytes32",
          "name": "role",
          "type": "bytes32"
        },
        {
          "indexed": true,
          "internalType": "address",
          "name": "account",
          "type": "address"
        },
        {
          "indexed": true,
          "internalType": "address",
          "name": "sender",
          "type": "address"
        }
      ],
      "name": "RoleRevoked",
      "type": "event"
    },
    {
      "inputs": [],
      "name": "ADMIN",
      "outputs": [
        {
          "internalType": "bytes32",
          "name": "",
          "type": "bytes32"
        }
      ],
      "stateMutability": "view",
      "type": "function",
      "constant": true
    },
    {
      "inputs": [],
      "name": "DEFAULT_ADMIN_ROLE",
      "outputs": [
        {
          "internalType": "bytes32",
          "name": "",
          "type": "bytes32"
        }
      ],
      "stateMutability": "view",
      "type": "function",
      "constant": true
    },
    {
      "inputs": [],
      "name": "MEDIA_ADMIN",
      "outputs": [
        {
          "internalType": "bytes32",
          "name": "",
          "type": "bytes32"
        }
      ],
      "stateMutability": "view",
      "type": "function",
      "constant": true
    },
    {
      "inputs": [
        {
          "internalType": "bytes32",
          "name": "role",
          "type": "bytes32"
        }
      ],
      "name": "getRoleAdmin",
      "outputs": [
        {
          "internalType": "bytes32",
          "name": "",
          "type": "bytes32"
        }
      ],
      "stateMutability": "view",
      "type": "function",
      "constant": true
    },
    {
      "inputs": [
        {
          "internalType": "bytes32",
          "name": "role",
          "type": "bytes32"
        },
        {
          "internalType": "address",
          "name": "account",
          "type": "address"
        }
      ],
      "name": "grantRole",
      "outputs": [],
      "stateMutability": "nonpayable",
      "type": "function"
    },
    {
      "inputs": [
        {
          "internalType": "bytes32",
          "name": "role",
          "type": "bytes32"
        },
        {
          "internalType": "address",
          "name": "account",
          "type": "address"
        }
      ],
      "name": "hasRole",
      "outputs": [
        {
          "internalType": "bool",
          "name": "",
          "type": "bool"
        }
      ],
      "stateMutability": "view",
      "type": "function",
      "constant": true
    },
    {
      "inputs": [],
      "name": "priviNFTContractAddress",
      "outputs": [
        {
          "internalType": "address",
          "name": "",
          "type": "address"
        }
      ],
      "stateMutability": "view",
      "type": "function",
      "constant": true
    },
    {
      "inputs": [
        {
          "internalType": "bytes32",
          "name": "role",
          "type": "bytes32"
        },
        {
          "internalType": "address",
          "name": "account",
          "type": "address"
        }
      ],
      "name": "renounceRole",
      "outputs": [],
      "stateMutability": "nonpayable",
      "type": "function"
    },
    {
      "inputs": [
        {
          "internalType": "bytes32",
          "name": "role",
          "type": "bytes32"
        },
        {
          "internalType": "address",
          "name": "account",
          "type": "address"
        }
      ],
      "name": "revokeRole",
      "outputs": [],
      "stateMutability": "nonpayable",
      "type": "function"
    },
    {
      "inputs": [
        {
          "internalType": "bytes4",
          "name": "interfaceId",
          "type": "bytes4"
        }
      ],
      "name": "supportsInterface",
      "outputs": [
        {
          "internalType": "bool",
          "name": "",
          "type": "bool"
        }
      ],
      "stateMutability": "view",
      "type": "function",
      "constant": true
    },
    {
      "inputs": [
        {
          "internalType": "uint256",
          "name": "_mediaId",
          "type": "uint256"
        },
        {
          "components": [
            {
              "internalType": "address",
              "name": "holderAddress",
              "type": "address"
            },
            {
              "internalType": "uint160",
              "name": "share",
              "type": "uint160"
            }
          ],
          "internalType": "struct ShareHolder[]",
          "name": "_sharings",
          "type": "tuple[]"
        }
      ],
      "name": "fractionalizeMediaOwners",
      "outputs": [],
      "stateMutability": "nonpayable",
      "type": "function"
    },
    {
      "inputs": [
        {
          "internalType": "uint256",
          "name": "_mediaId",
          "type": "uint256"
        },
        {
          "components": [
            {
              "internalType": "address",
              "name": "holderAddress",
              "type": "address"
            },
            {
              "internalType": "uint160",
              "name": "share",
              "type": "uint160"
            }
          ],
          "internalType": "struct ShareHolder[]",
          "name": "_initialOwners",
          "type": "tuple[]"
        }
      ],
      "name": "setInitialOwners",
      "outputs": [],
      "stateMutability": "nonpayable",
      "type": "function"
    },
    {
      "inputs": [
        {
          "internalType": "uint256",
          "name": "_mediaId",
          "type": "uint256"
        }
      ],
      "name": "getMediaOwners",
      "outputs": [
        {
          "components": [
            {
              "internalType": "address",
              "name": "holderAddress",
              "type": "address"
            },
            {
              "internalType": "uint160",
              "name": "share",
              "type": "uint160"
            }
          ],
          "internalType": "struct ShareHolder[]",
          "name": "",
          "type": "tuple[]"
        }
      ],
      "stateMutability": "view",
      "type": "function",
      "constant": true
    },
    {
      "inputs": [
        {
          "internalType": "address",
          "name": "_owner",
          "type": "address"
        },
        {
          "internalType": "uint256",
          "name": "_mediaId",
          "type": "uint256"
        }
      ],
      "name": "getOwnerIndex",
      "outputs": [
        {
          "internalType": "int256",
          "name": "",
          "type": "int256"
        }
      ],
      "stateMutability": "view",
      "type": "function",
      "constant": true
    },
    {
      "inputs": [
        {
          "internalType": "uint256",
          "name": "_mediaId",
          "type": "uint256"
        }
      ],
      "name": "getOwnersAddresses",
      "outputs": [
        {
          "internalType": "address[]",
          "name": "",
          "type": "address[]"
        }
      ],
      "stateMutability": "view",
      "type": "function",
      "constant": true
    },
    {
      "inputs": [
        {
          "internalType": "address",
          "name": "_holder",
          "type": "address"
        },
        {
          "internalType": "uint256",
          "name": "_mediaId",
          "type": "uint256"
        }
      ],
      "name": "balanceOf",
      "outputs": [
        {
          "internalType": "uint256",
          "name": "",
          "type": "uint256"
        }
      ],
      "stateMutability": "view",
      "type": "function",
      "constant": true
    }
  ],
  "bytecode": "0x60c06040523480156200001157600080fd5b50604051620033ef380380620033ef833981810160405281019062000037919062000283565b6200004c6000801b33620000f360201b60201c565b6200007e7ff23ec0bb4210edd5cba85afd05127efcd2fc6a781bfed49188da1081670b22d833620000f360201b60201c565b8073ffffffffffffffffffffffffffffffffffffffff1660808173ffffffffffffffffffffffffffffffffffffffff1660601b815250508073ffffffffffffffffffffffffffffffffffffffff1660a08173ffffffffffffffffffffffffffffffffffffffff1660601b8152505050620002fd565b6200010582826200010960201b60201c565b5050565b6200011b8282620001fa60201b60201c565b620001f657600160008084815260200190815260200160002060000160008373ffffffffffffffffffffffffffffffffffffffff1673ffffffffffffffffffffffffffffffffffffffff16815260200190815260200160002060006101000a81548160ff0219169083151502179055506200019b6200026460201b60201c565b73ffffffffffffffffffffffffffffffffffffffff168173ffffffffffffffffffffffffffffffffffffffff16837f2f8788117e7eff1d82e926ec794901d17c78024a50270940304540a733656f0d60405160405180910390a45b5050565b600080600084815260200190815260200160002060000160008373ffffffffffffffffffffffffffffffffffffffff1673ffffffffffffffffffffffffffffffffffffffff16815260200190815260200160002060009054906101000a900460ff16905092915050565b600033905090565b6000815190506200027d81620002e3565b92915050565b6000602082840312156200029657600080fd5b6000620002a6848285016200026c565b91505092915050565b6000620002bc82620002c3565b9050919050565b600073ffffffffffffffffffffffffffffffffffffffff82169050919050565b620002ee81620002af565b8114620002fa57600080fd5b50565b60805160601c60a05160601c6130aa62000345600039600081816104c301528181610e22015281816110220152818161121d01526115000152600061168401526130aa6000f3fe608060405234801561001057600080fd5b50600436106100ff5760003560e01c806391d1485411610097578063c45b56ca11610066578063c45b56ca146102d0578063d547741f14610300578063fa51fa3c1461031c578063fb43c7e81461033a576100ff565b806391d1485414610236578063986cad1314610266578063a217fddf14610296578063a3aace9c146102b4576100ff565b80632a0acc6a116100d35780632a0acc6a146101b05780632f2ff15d146101ce57806336568abe146101ea578063879013e314610206576100ff565b8062fdd58e1461010457806301ffc9a71461013457806304db811414610164578063248a9ca314610180575b600080fd5b61011e600480360381019061011991906120df565b610358565b60405161012b919061290c565b60405180910390f35b61014e60048036038101906101499190612202565b610401565b60405161015b919061278b565b60405180910390f35b61017e600480360381019061017991906122be565b61047b565b005b61019a6004803603810190610195919061219d565b610efb565b6040516101a791906127a6565b60405180910390f35b6101b8610f1a565b6040516101c591906127a6565b60405180910390f35b6101e860048036038101906101e391906121c6565b610f3e565b005b61020460048036038101906101ff91906121c6565b610f67565b005b610220600480360381019061021b9190612295565b610fea565b60405161022d9190612769565b60405180910390f35b610250600480360381019061024b91906121c6565b61117b565b60405161025d919061278b565b60405180910390f35b610280600480360381019061027b91906120df565b6111e5565b60405161028d91906127c1565b60405180910390f35b61029e611374565b6040516102ab91906127a6565b60405180910390f35b6102ce60048036038101906102c991906122be565b61137b565b005b6102ea60048036038101906102e59190612295565b6114c8565b6040516102f79190612747565b60405180910390f35b61031a600480360381019061031591906121c6565b611659565b005b610324611682565b604051610331919061272c565b60405180910390f35b6103426116a6565b60405161034f91906127a6565b60405180910390f35b60008061036584846111e5565b90507fffffffffffffffffffffffffffffffffffffffffffffffffffffffffffffffff8114156103995760009150506103fb565b60016000848152602001908152602001600020600082815260200190815260200160002060010160009054906101000a900473ffffffffffffffffffffffffffffffffffffffff1673ffffffffffffffffffffffffffffffffffffffff169150505b92915050565b60007f7965db0b000000000000000000000000000000000000000000000000000000007bffffffffffffffffffffffffffffffffffffffffffffffffffffffff1916827bffffffffffffffffffffffffffffffffffffffffffffffffffffffff191614806104745750610473826116ca565b5b9050919050565b60008151116104bf576040517f08c379a00000000000000000000000000000000000000000000000000000000081526004016104b69061285e565b60405180910390fd5b60007f000000000000000000000000000000000000000000000000000000000000000073ffffffffffffffffffffffffffffffffffffffff1663dfa2ed6a846040518263ffffffff1660e01b815260040161051a919061290c565b60006040518083038186803b15801561053257600080fd5b505afa158015610546573d6000803e3d6000fd5b505050506040513d6000823e3d601f19601f8201168201806040525081019061056f9190612254565b905060008173__MediaLibrary__________________________63d19db309909133600160008981526020019081526020016000206040518463ffffffff1660e01b81526004016105c29392919061289e565b60206040518083038186803b1580156105da57600080fd5b505af41580156105ee573d6000803e3d6000fd5b505050506040513d601f19601f82011682018060405250810190610612919061222b565b90506000811215610658576040517f08c379a000000000000000000000000000000000000000000000000000000000815260040161064f9061281e565b60405180910390fd5b60008060018460a0015161066c9190612c21565b69ffffffffffffffffffff1690506000805b8651811015610bb9576000915060005b8660a0015169ffffffffffffffffffff168110156108dc57600160008a8152602001908152602001600020600082815260200190815260200160002060000160009054906101000a900473ffffffffffffffffffffffffffffffffffffffff1673ffffffffffffffffffffffffffffffffffffffff1688838151811061073d577f4e487b7100000000000000000000000000000000000000000000000000000000600052603260045260246000fd5b60200260200101516000015173ffffffffffffffffffffffffffffffffffffffff1614156108c85785811415610772576108c9565b612710600160008b8152602001908152602001600020600088815260200190815260200160002060010160009054906101000a900473ffffffffffffffffffffffffffffffffffffffff168984815181106107f6577f4e487b7100000000000000000000000000000000000000000000000000000000600052603260045260246000fd5b60200260200101516020015161080c9190612b79565b73ffffffffffffffffffffffffffffffffffffffff1661082c9190612b48565b600160008b8152602001908152602001600020600083815260200190815260200160002060010160008282829054906101000a900473ffffffffffffffffffffffffffffffffffffffff166108819190612aa8565b92506101000a81548173ffffffffffffffffffffffffffffffffffffffff021916908373ffffffffffffffffffffffffffffffffffffffff160217905550600192506108dc565b5b80806108d490612d81565b91505061068e565b50868181518110610916577f4e487b7100000000000000000000000000000000000000000000000000000000600052603260045260246000fd5b60200260200101516020015173ffffffffffffffffffffffffffffffffffffffff16846109439190612af2565b935081156109545760009150610ba6565b6001836109619190612af2565b9250612710600160008a8152602001908152602001600020600087815260200190815260200160002060010160009054906101000a900473ffffffffffffffffffffffffffffffffffffffff168883815181106109e7577f4e487b7100000000000000000000000000000000000000000000000000000000600052603260045260246000fd5b6020026020010151602001516109fd9190612b79565b73ffffffffffffffffffffffffffffffffffffffff16610a1d9190612b48565b878281518110610a56577f4e487b7100000000000000000000000000000000000000000000000000000000600052603260045260246000fd5b60200260200101516020019073ffffffffffffffffffffffffffffffffffffffff16908173ffffffffffffffffffffffffffffffffffffffff1681525050868181518110610acd577f4e487b7100000000000000000000000000000000000000000000000000000000600052603260045260246000fd5b6020026020010151600160008a81526020019081526020016000206000838960a0015169ffffffffffffffffffff16610b069190612af2565b815260200190815260200160002060008201518160000160006101000a81548173ffffffffffffffffffffffffffffffffffffffff021916908373ffffffffffffffffffffffffffffffffffffffff16021790555060208201518160010160006101000a81548173ffffffffffffffffffffffffffffffffffffffff021916908373ffffffffffffffffffffffffffffffffffffffff1602179055509050505b8080610bb190612d81565b91505061067e565b506127108314610bfe576040517f08c379a0000000000000000000000000000000000000000000000000000000008152600401610bf59061283e565b60405180910390fd5b600160008881526020019081526020016000206000858152602001908152602001600020600080820160006101000a81549073ffffffffffffffffffffffffffffffffffffffff02191690556001820160006101000a81549073ffffffffffffffffffffffffffffffffffffffff02191690555050838214610e09576001600088815260200190815260200160002060008381526020019081526020016000206001600089815260200190815260200160002060008681526020019081526020016000206000820160009054906101000a900473ffffffffffffffffffffffffffffffffffffffff168160000160006101000a81548173ffffffffffffffffffffffffffffffffffffffff021916908373ffffffffffffffffffffffffffffffffffffffff1602179055506001820160009054906101000a900473ffffffffffffffffffffffffffffffffffffffff168160010160006101000a81548173ffffffffffffffffffffffffffffffffffffffff021916908373ffffffffffffffffffffffffffffffffffffffff160217905550905050600160008881526020019081526020016000206000838152602001908152602001600020600080820160006101000a81549073ffffffffffffffffffffffffffffffffffffffff02191690556001820160006101000a81549073ffffffffffffffffffffffffffffffffffffffff021916905550505b818560a0015169ffffffffffffffffffff1614610eae577f000000000000000000000000000000000000000000000000000000000000000073ffffffffffffffffffffffffffffffffffffffff166341f112f088846040518363ffffffff1660e01b8152600401610e7b929190612927565b600060405180830381600087803b158015610e9557600080fd5b505af1158015610ea9573d6000803e3d6000fd5b505050505b863373ffffffffffffffffffffffffffffffffffffffff167f9ea0c7da59fdccd8cd9d67d3595cdc99f0b886e5d44f54675919aa007025a35e60405160405180910390a350505050505050565b6000806000838152602001908152602001600020600101549050919050565b7ff23ec0bb4210edd5cba85afd05127efcd2fc6a781bfed49188da1081670b22d881565b610f4782610efb565b610f5881610f53611734565b61173c565b610f6283836117d9565b505050565b610f6f611734565b73ffffffffffffffffffffffffffffffffffffffff168173ffffffffffffffffffffffffffffffffffffffff1614610fdc576040517f08c379a0000000000000000000000000000000000000000000000000000000008152600401610fd39061287e565b60405180910390fd5b610fe682826118b9565b5050565b60607ff23ec0bb4210edd5cba85afd05127efcd2fc6a781bfed49188da1081670b22d861101e81611019611734565b61173c565b60007f000000000000000000000000000000000000000000000000000000000000000073ffffffffffffffffffffffffffffffffffffffff1663dfa2ed6a856040518263ffffffff1660e01b8152600401611079919061290c565b60006040518083038186803b15801561109157600080fd5b505afa1580156110a5573d6000803e3d6000fd5b505050506040513d6000823e3d601f19601f820116820180604052508101906110ce9190612254565b90508073__MediaLibrary__________________________635a7633cf9091600160008881526020019081526020016000206040518363ffffffff1660e01b815260040161111d9291906128dc565b60006040518083038186803b15801561113557600080fd5b505af4158015611149573d6000803e3d6000fd5b505050506040513d6000823e3d601f19601f82011682018060405250810190611172919061215c565b92505050919050565b600080600084815260200190815260200160002060000160008373ffffffffffffffffffffffffffffffffffffffff1673ffffffffffffffffffffffffffffffffffffffff16815260200190815260200160002060009054906101000a900460ff16905092915050565b60007ff23ec0bb4210edd5cba85afd05127efcd2fc6a781bfed49188da1081670b22d861121981611214611734565b61173c565b60007f000000000000000000000000000000000000000000000000000000000000000073ffffffffffffffffffffffffffffffffffffffff1663dfa2ed6a856040518263ffffffff1660e01b8152600401611274919061290c565b60006040518083038186803b15801561128c57600080fd5b505afa1580156112a0573d6000803e3d6000fd5b505050506040513d6000823e3d601f19601f820116820180604052508101906112c99190612254565b90508073__MediaLibrary__________________________63d19db309909187600160008981526020019081526020016000206040518463ffffffff1660e01b815260040161131a9392919061289e565b60206040518083038186803b15801561133257600080fd5b505af4158015611346573d6000803e3d6000fd5b505050506040513d601f19601f8201168201806040525081019061136a919061222b565b9250505092915050565b6000801b81565b7f03e0cf15af010161bcddc9619da1d1d93c81bb9d182401e6efbf761cff2761d46113ad816113a8611734565b61173c565b60005b82518110156114c2578281815181106113f2577f4e487b7100000000000000000000000000000000000000000000000000000000600052603260045260246000fd5b602002602001015160016000868152602001908152602001600020600083815260200190815260200160002060008201518160000160006101000a81548173ffffffffffffffffffffffffffffffffffffffff021916908373ffffffffffffffffffffffffffffffffffffffff16021790555060208201518160010160006101000a81548173ffffffffffffffffffffffffffffffffffffffff021916908373ffffffffffffffffffffffffffffffffffffffff16021790555090505080806114ba90612d81565b9150506113b0565b50505050565b60607ff23ec0bb4210edd5cba85afd05127efcd2fc6a781bfed49188da1081670b22d86114fc816114f7611734565b61173c565b60007f000000000000000000000000000000000000000000000000000000000000000073ffffffffffffffffffffffffffffffffffffffff1663dfa2ed6a856040518263ffffffff1660e01b8152600401611557919061290c565b60006040518083038186803b15801561156f57600080fd5b505afa158015611583573d6000803e3d6000fd5b505050506040513d6000823e3d601f19601f820116820180604052508101906115ac9190612254565b90508073__MediaLibrary__________________________6302aa9a089091600160008881526020019081526020016000206040518363ffffffff1660e01b81526004016115fb9291906128dc565b60006040518083038186803b15801561161357600080fd5b505af4158015611627573d6000803e3d6000fd5b505050506040513d6000823e3d601f19601f82011682018060405250810190611650919061211b565b92505050919050565b61166282610efb565b6116738161166e611734565b61173c565b61167d83836118b9565b505050565b7f000000000000000000000000000000000000000000000000000000000000000081565b7f03e0cf15af010161bcddc9619da1d1d93c81bb9d182401e6efbf761cff2761d481565b60007f01ffc9a7000000000000000000000000000000000000000000000000000000007bffffffffffffffffffffffffffffffffffffffffffffffffffffffff1916827bffffffffffffffffffffffffffffffffffffffffffffffffffffffff1916149050919050565b600033905090565b611746828261117b565b6117d55761176b8173ffffffffffffffffffffffffffffffffffffffff16601461199a565b6117798360001c602061199a565b60405160200161178a9291906126f2565b6040516020818303038152906040526040517f08c379a00000000000000000000000000000000000000000000000000000000081526004016117cc91906127dc565b60405180910390fd5b5050565b6117e3828261117b565b6118b557600160008084815260200190815260200160002060000160008373ffffffffffffffffffffffffffffffffffffffff1673ffffffffffffffffffffffffffffffffffffffff16815260200190815260200160002060006101000a81548160ff02191690831515021790555061185a611734565b73ffffffffffffffffffffffffffffffffffffffff168173ffffffffffffffffffffffffffffffffffffffff16837f2f8788117e7eff1d82e926ec794901d17c78024a50270940304540a733656f0d60405160405180910390a45b5050565b6118c3828261117b565b1561199657600080600084815260200190815260200160002060000160008373ffffffffffffffffffffffffffffffffffffffff1673ffffffffffffffffffffffffffffffffffffffff16815260200190815260200160002060006101000a81548160ff02191690831515021790555061193b611734565b73ffffffffffffffffffffffffffffffffffffffff168173ffffffffffffffffffffffffffffffffffffffff16837ff6391f5c32d9c69d2a47ea670b442974b53935d1edc7fd64eb21e047a839171b60405160405180910390a45b5050565b6060600060028360026119ad9190612bc7565b6119b79190612af2565b67ffffffffffffffff8111156119f6577f4e487b7100000000000000000000000000000000000000000000000000000000600052604160045260246000fd5b6040519080825280601f01601f191660200182016040528015611a285781602001600182028036833780820191505090505b5090507f300000000000000000000000000000000000000000000000000000000000000081600081518110611a86577f4e487b7100000000000000000000000000000000000000000000000000000000600052603260045260246000fd5b60200101907effffffffffffffffffffffffffffffffffffffffffffffffffffffffffffff1916908160001a9053507f780000000000000000000000000000000000000000000000000000000000000081600181518110611b10577f4e487b7100000000000000000000000000000000000000000000000000000000600052603260045260246000fd5b60200101907effffffffffffffffffffffffffffffffffffffffffffffffffffffffffffff1916908160001a90535060006001846002611b509190612bc7565b611b5a9190612af2565b90505b6001811115611c46577f3031323334353637383961626364656600000000000000000000000000000000600f861660108110611bc2577f4e487b7100000000000000000000000000000000000000000000000000000000600052603260045260246000fd5b1a60f81b828281518110611bff577f4e487b7100000000000000000000000000000000000000000000000000000000600052603260045260246000fd5b60200101907effffffffffffffffffffffffffffffffffffffffffffffffffffffffffffff1916908160001a905350600485901c945080611c3f90612d26565b9050611b5d565b5060008414611c8a576040517f08c379a0000000000000000000000000000000000000000000000000000000008152600401611c81906127fe565b60405180910390fd5b8091505092915050565b6000611ca7611ca284612975565b612950565b90508083825260208201905082856020860282011115611cc657600080fd5b60005b85811015611cf65781611cdc8882611e2b565b845260208401935060208301925050600181019050611cc9565b5050509392505050565b6000611d13611d0e846129a1565b612950565b90508083825260208201905082856040860282011115611d3257600080fd5b60005b85811015611d625781611d488882611ff3565b845260208401935060408301925050600181019050611d35565b5050509392505050565b6000611d7f611d7a846129a1565b612950565b90508083825260208201905082856040860282011115611d9e57600080fd5b60005b85811015611dce5781611db4888261203f565b845260208401935060408301925050600181019050611da1565b5050509392505050565b6000611deb611de6846129cd565b612950565b905082815260208101848484011115611e0357600080fd5b611e0e848285612cf3565b509392505050565b600081359050611e2581612fd3565b92915050565b600081519050611e3a81612fd3565b92915050565b600082601f830112611e5157600080fd5b8151611e61848260208601611c94565b91505092915050565b600082601f830112611e7b57600080fd5b8135611e8b848260208601611d00565b91505092915050565b600082601f830112611ea557600080fd5b8151611eb5848260208601611d6c565b91505092915050565b600081359050611ecd81612fea565b92915050565b600081359050611ee281613001565b92915050565b600081519050611ef781613018565b92915050565b600082601f830112611f0e57600080fd5b8151611f1e848260208601611dd8565b91505092915050565b600060c08284031215611f3957600080fd5b611f4360c0612950565b90506000611f5384828501611e2b565b600083015250602082015167ffffffffffffffff811115611f7357600080fd5b611f7f84828501611efd565b602083015250604082015167ffffffffffffffff811115611f9f57600080fd5b611fab84828501611efd565b6040830152506060611fbf848285016120ca565b6060830152506080611fd3848285016120ca565b60808301525060a0611fe7848285016120ca565b60a08301525092915050565b60006040828403121561200557600080fd5b61200f6040612950565b9050600061201f84828501611e16565b60008301525060206120338482850161208b565b60208301525092915050565b60006040828403121561205157600080fd5b61205b6040612950565b9050600061206b84828501611e2b565b600083015250602061207f848285016120a0565b60208301525092915050565b60008135905061209a8161302f565b92915050565b6000815190506120af8161302f565b92915050565b6000813590506120c481613046565b92915050565b6000815190506120d98161305d565b92915050565b600080604083850312156120f257600080fd5b600061210085828601611e16565b9250506020612111858286016120b5565b9150509250929050565b60006020828403121561212d57600080fd5b600082015167ffffffffffffffff81111561214757600080fd5b61215384828501611e40565b91505092915050565b60006020828403121561216e57600080fd5b600082015167ffffffffffffffff81111561218857600080fd5b61219484828501611e94565b91505092915050565b6000602082840312156121af57600080fd5b60006121bd84828501611ebe565b91505092915050565b600080604083850312156121d957600080fd5b60006121e785828601611ebe565b92505060206121f885828601611e16565b9150509250929050565b60006020828403121561221457600080fd5b600061222284828501611ed3565b91505092915050565b60006020828403121561223d57600080fd5b600061224b84828501611ee8565b91505092915050565b60006020828403121561226657600080fd5b600082015167ffffffffffffffff81111561228057600080fd5b61228c84828501611f27565b91505092915050565b6000602082840312156122a757600080fd5b60006122b5848285016120b5565b91505092915050565b600080604083850312156122d157600080fd5b60006122df858286016120b5565b925050602083013567ffffffffffffffff8111156122fc57600080fd5b61230885828601611e6a565b9150509250929050565b600061231e8383612342565b60208301905092915050565b60006123368383612696565b60408301905092915050565b61234b81612c55565b82525050565b61235a81612c55565b82525050565b61236981612c55565b82525050565b61237881612c55565b82525050565b600061238982612a1e565b6123938185612a59565b935061239e836129fe565b8060005b838110156123cf5781516123b68882612312565b97506123c183612a3f565b9250506001810190506123a2565b5085935050505092915050565b60006123e782612a29565b6123f18185612a6a565b93506123fc83612a0e565b8060005b8381101561242d578151612414888261232a565b975061241f83612a4c565b925050600181019050612400565b5085935050505092915050565b61244381612c67565b82525050565b61245281612c73565b82525050565b61246181612ca9565b82525050565b8082525050565b600061247982612a34565b6124838185612a7b565b9350612493818560208601612cf3565b61249c81612e57565b840191505092915050565b60006124b282612a34565b6124bc8185612a8c565b93506124cc818560208601612cf3565b6124d581612e57565b840191505092915050565b60006124eb82612a34565b6124f58185612a9d565b9350612505818560208601612cf3565b80840191505092915050565b600061251e602083612a7b565b915061252982612e68565b602082019050919050565b6000612541602d83612a7b565b915061254c82612e91565b604082019050919050565b6000612564602083612a7b565b915061256f82612ee0565b602082019050919050565b6000612587601783612a9d565b915061259282612f09565b601782019050919050565b60006125aa601f83612a7b565b91506125b582612f32565b602082019050919050565b60006125cd601183612a9d565b91506125d882612f5b565b601182019050919050565b60006125f0602f83612a7b565b91506125fb82612f84565b604082019050919050565b600060c08301600083015161261e600086018261236f565b506020830151848203602086015261263682826124a7565b9150506040830151848203604086015261265082826124a7565b915050606083015161266560608601826126e3565b50608083015161267860808601826126e3565b5060a083015161268b60a08601826126e3565b508091505092915050565b6040820160008201516126ac6000850182612342565b5060208201516126bf60208501826126c5565b50505050565b6126ce81612cb3565b82525050565b6126dd81612cd3565b82525050565b6126ec81612cdd565b82525050565b60006126fd8261257a565b915061270982856124e0565b9150612714826125c0565b915061272082846124e0565b91508190509392505050565b60006020820190506127416000830184612351565b92915050565b60006020820190508181036000830152612761818461237e565b905092915050565b6000602082019050818103600083015261278381846123dc565b905092915050565b60006020820190506127a0600083018461243a565b92915050565b60006020820190506127bb6000830184612449565b92915050565b60006020820190506127d66000830184612458565b92915050565b600060208201905081810360008301526127f6818461246e565b905092915050565b6000602082019050818103600083015261281781612511565b9050919050565b6000602082019050818103600083015261283781612534565b9050919050565b6000602082019050818103600083015261285781612557565b9050919050565b600060208201905081810360008301526128778161259d565b9050919050565b60006020820190508181036000830152612897816125e3565b9050919050565b600060608201905081810360008301526128b88186612606565b90506128c76020830185612360565b6128d46040830184612467565b949350505050565b600060408201905081810360008301526128f68185612606565b90506129056020830184612467565b9392505050565b600060208201905061292160008301846126d4565b92915050565b600060408201905061293c60008301856126d4565b61294960208301846126d4565b9392505050565b600061295a61296b565b90506129668282612d50565b919050565b6000604051905090565b600067ffffffffffffffff8211156129905761298f612e28565b5b602082029050602081019050919050565b600067ffffffffffffffff8211156129bc576129bb612e28565b5b602082029050602081019050919050565b600067ffffffffffffffff8211156129e8576129e7612e28565b5b6129f182612e57565b9050602081019050919050565b6000819050602082019050919050565b6000819050602082019050919050565b600081519050919050565b600081519050919050565b600081519050919050565b6000602082019050919050565b6000602082019050919050565b600082825260208201905092915050565b600082825260208201905092915050565b600082825260208201905092915050565b600082825260208201905092915050565b600081905092915050565b6000612ab382612cb3565b9150612abe83612cb3565b92508273ffffffffffffffffffffffffffffffffffffffff03821115612ae757612ae6612dca565b5b828201905092915050565b6000612afd82612cd3565b9150612b0883612cd3565b9250827fffffffffffffffffffffffffffffffffffffffffffffffffffffffffffffffff03821115612b3d57612b3c612dca565b5b828201905092915050565b6000612b5382612cd3565b9150612b5e83612cd3565b925082612b6e57612b6d612df9565b5b828204905092915050565b6000612b8482612cb3565b9150612b8f83612cb3565b92508173ffffffffffffffffffffffffffffffffffffffff0483118215151615612bbc57612bbb612dca565b5b828202905092915050565b6000612bd282612cd3565b9150612bdd83612cd3565b9250817fffffffffffffffffffffffffffffffffffffffffffffffffffffffffffffffff0483118215151615612c1657612c15612dca565b5b828202905092915050565b6000612c2c82612cdd565b9150612c3783612cdd565b925082821015612c4a57612c49612dca565b5b828203905092915050565b6000612c6082612cb3565b9050919050565b60008115159050919050565b6000819050919050565b60007fffffffff0000000000000000000000000000000000000000000000000000000082169050919050565b6000819050919050565b600073ffffffffffffffffffffffffffffffffffffffff82169050919050565b6000819050919050565b600069ffffffffffffffffffff82169050919050565b60005b83811015612d11578082015181840152602081019050612cf6565b83811115612d20576000848401525b50505050565b6000612d3182612cd3565b91506000821415612d4557612d44612dca565b5b600182039050919050565b612d5982612e57565b810181811067ffffffffffffffff82111715612d7857612d77612e28565b5b80604052505050565b6000612d8c82612cd3565b91507fffffffffffffffffffffffffffffffffffffffffffffffffffffffffffffffff821415612dbf57612dbe612dca565b5b600182019050919050565b7f4e487b7100000000000000000000000000000000000000000000000000000000600052601160045260246000fd5b7f4e487b7100000000000000000000000000000000000000000000000000000000600052601260045260246000fd5b7f4e487b7100000000000000000000000000000000000000000000000000000000600052604160045260246000fd5b6000601f19601f8301169050919050565b7f537472696e67733a20686578206c656e67746820696e73756666696369656e74600082015250565b7f526571756573746572206973206e6f74206120636f6c6c61626f7261746f722060008201527f6f662074686973206d6564696100000000000000000000000000000000000000602082015250565b7f496e76616c696420746f74616c20646973747269627574656420736861726573600082015250565b7f416363657373436f6e74726f6c3a206163636f756e7420000000000000000000600082015250565b7f43616e2774206672616374696f6e616c697a6520746f20302073686172657300600082015250565b7f206973206d697373696e6720726f6c6520000000000000000000000000000000600082015250565b7f416363657373436f6e74726f6c3a2063616e206f6e6c792072656e6f756e636560008201527f20726f6c657320666f722073656c660000000000000000000000000000000000602082015250565b612fdc81612c55565b8114612fe757600080fd5b50565b612ff381612c73565b8114612ffe57600080fd5b50565b61300a81612c7d565b811461301557600080fd5b50565b61302181612ca9565b811461302c57600080fd5b50565b61303881612cb3565b811461304357600080fd5b50565b61304f81612cd3565b811461305a57600080fd5b50565b61306681612cdd565b811461307157600080fd5b5056fea2646970667358221220d5793364c25d15599c6ec6319fc68958276a79baa8d4c308dbc3a2f74197342864736f6c63430008010033",
  "immutableReferences": {
    "84": [
      {
        "length": 32,
        "start": 5764
      }
    ],
    "87": [
      {
        "length": 32,
        "start": 1219
      },
      {
        "length": 32,
        "start": 3618
      },
      {
        "length": 32,
        "start": 4130
      },
      {
        "length": 32,
        "start": 4637
      },
      {
        "length": 32,
        "start": 5376
      }
    ]
  },
  "source": "// SPDX-License-Identifier: MIT\npragma solidity ^0.8.0;\n\nimport \"@openzeppelin/contracts/access/AccessControl.sol\";\nimport \"./MediaLibrary.sol\";\nimport \"./PriviNFT.sol\";\n\ncontract MediaFractionalizeManager is AccessControl {\n    using MediaLibrary for Media;\n\n    bytes32 public constant ADMIN = keccak256(\"admin\");\n    // this is the role for the media manager contract\n    bytes32 public constant MEDIA_ADMIN = keccak256(\"media_admin\");\n\n    address public immutable priviNFTContractAddress;\n\n    PriviNFT private immutable _priviNFT;\n\n    // map from media to collabs\n    mapping(uint256 => mapping(uint256 => ShareHolder)) private _owners;\n\n    event Fractionalize(address indexed from, uint256 indexed mediaId);\n\n    constructor(address _priviNFTContractAddress) {\n        _setupRole(DEFAULT_ADMIN_ROLE, msg.sender);\n        _setupRole(ADMIN, msg.sender);\n        priviNFTContractAddress = _priviNFTContractAddress;\n        _priviNFT = PriviNFT(_priviNFTContractAddress);\n    }\n\n    // allows an owner to fractionalize its sharing into one or more addresses\n    // ! renamed from fractionalizeMediaCollab to fractionalizeMediaOwners\n    function fractionalizeMediaOwners(uint256 _mediaId, ShareHolder[] memory _sharings) external {\n        require(_sharings.length > 0, \"Can't fractionalize to 0 shares\");\n\n        Media memory media = _priviNFT.getMedia(_mediaId);\n\n        int256 index = media.getOwnerIndex(msg.sender, _owners[_mediaId]);\n        require(index >= 0, \"Requester is not a collaborator of this media\");\n\n        // add new owners, and delete the previous one\n        uint256 totalShares = 0;\n        uint256 ownersNewSize = media.ownersSize - 1;\n        bool found;\n        for (uint256 i; i < _sharings.length; i++) {\n            // search if already exists\n            found = false;\n            for (uint256 j; j < media.ownersSize; j++) {\n                if (_sharings[i].holderAddress == _owners[_mediaId][j].holderAddress) {\n                    if (j == uint256(index)) {\n                        continue;\n                    }\n                    _owners[_mediaId][j].share += uint160(\n                        (_sharings[i].share * _owners[_mediaId][uint256(index)].share) /\n                            MediaLibrary.SHARES_DENOMINATOR\n                    );\n                    found = true;\n                    break;\n                }\n            }\n\n            totalShares += _sharings[i].share;\n\n            if (found) {\n                found = false;\n                continue;\n            } else {\n                ownersNewSize += 1;\n                _sharings[i].share = uint160(\n                    (_sharings[i].share * _owners[_mediaId][uint256(index)].share) /\n                        MediaLibrary.SHARES_DENOMINATOR\n                );\n                _owners[_mediaId][media.ownersSize + i] = _sharings[i];\n            }\n        }\n\n        // check total shares being equal to SHARES_DENOMINATOR, cannot be missing shares\n        require(totalShares == MediaLibrary.SHARES_DENOMINATOR, \"Invalid total distributed shares\");\n\n        // delete current collab to recover gas\n        delete _owners[_mediaId][uint256(index)];\n\n        if (ownersNewSize != uint256(index)) {\n            _owners[_mediaId][uint256(index)] = _owners[_mediaId][ownersNewSize];\n            delete _owners[_mediaId][ownersNewSize];\n        }\n\n        // update the ownersSize to the new value\n        if (media.ownersSize != ownersNewSize) {\n            _priviNFT.updateMediaOwnersSize(_mediaId, ownersNewSize);\n        }\n\n        emit Fractionalize(msg.sender, _mediaId);\n    }\n\n    // allow admins to set the initial owners of a media\n    function setInitialOwners(uint256 _mediaId, ShareHolder[] memory _initialOwners)\n        external\n        onlyRole(MEDIA_ADMIN)\n    {\n        for (uint256 i; i < _initialOwners.length; i++) {\n            _owners[_mediaId][i] = _initialOwners[i];\n        }\n    }\n\n    // allow admins to see the owners of a media\n    function getMediaOwners(uint256 _mediaId) external view onlyRole(ADMIN) returns (ShareHolder[] memory) {\n        Media memory media = _priviNFT.getMedia(_mediaId);\n        return media.getOwners(_owners[_mediaId]);\n    }\n\n    function getOwnerIndex(address _owner, uint256 _mediaId) public view onlyRole(ADMIN) returns (int256) {\n        Media memory media = _priviNFT.getMedia(_mediaId);\n        return media.getOwnerIndex(_owner, _owners[_mediaId]);\n    }\n\n    function getOwnersAddresses(uint256 _mediaId) external view onlyRole(ADMIN) returns (address[] memory) {\n        Media memory media = _priviNFT.getMedia(_mediaId);\n        return media.getOwnersAddresses(_owners[_mediaId]);\n    }\n\n    function balanceOf(address _holder, uint256 _mediaId) external view returns (uint256) {\n        int256 ownerIndex = getOwnerIndex(_holder, _mediaId);\n        if (ownerIndex == -1) {\n            return 0;\n        }\n        return _owners[_mediaId][uint256(ownerIndex)].share;\n    }\n}\n",
  "sourcePath": "/home/ericng/Documents/PRIVI/Privi-Polygon/privi-media-nft/contracts/MediaFractionalizeManager.sol",
  "compiler": {
    "name": "solc",
    "version": "0.8.1+commit.df193b15.Emscripten.clang"
  },
  "schemaVersion": "3.4.1",
  "updatedAt": "2021-06-24T19:39:06.975Z",
  "networkType": "ethereum",
  "devdoc": {
    "kind": "dev",
    "methods": {
      "getRoleAdmin(bytes32)": {
        "details": "Returns the admin role that controls `role`. See {grantRole} and {revokeRole}. To change a role's admin, use {_setRoleAdmin}."
      },
      "grantRole(bytes32,address)": {
        "details": "Grants `role` to `account`. If `account` had not been already granted `role`, emits a {RoleGranted} event. Requirements: - the caller must have ``role``'s admin role."
      },
      "hasRole(bytes32,address)": {
        "details": "Returns `true` if `account` has been granted `role`."
      },
      "renounceRole(bytes32,address)": {
        "details": "Revokes `role` from the calling account. Roles are often managed via {grantRole} and {revokeRole}: this function's purpose is to provide a mechanism for accounts to lose their privileges if they are compromised (such as when a trusted device is misplaced). If the calling account had been granted `role`, emits a {RoleRevoked} event. Requirements: - the caller must be `account`."
      },
      "revokeRole(bytes32,address)": {
        "details": "Revokes `role` from `account`. If `account` had been granted `role`, emits a {RoleRevoked} event. Requirements: - the caller must have ``role``'s admin role."
      },
      "supportsInterface(bytes4)": {
        "details": "See {IERC165-supportsInterface}."
      }
    },
    "version": 1
  },
  "userdoc": {
    "kind": "user",
    "methods": {},
    "version": 1
  }
}