{
  "contractName": "MediaManager",
  "abi": [
    {
      "inputs": [
        {
          "internalType": "address",
          "name": "_priviNFTContractAddress",
          "type": "address"
        },
        {
          "internalType": "address",
          "name": "_priviSocialTokenAddress",
          "type": "address"
        },
        {
          "internalType": "address",
          "name": "_mediaFractionalizeManagerAddress",
          "type": "address"
        }
      ],
      "stateMutability": "nonpayable",
      "type": "constructor"
    },
    {
      "anonymous": false,
      "inputs": [
        {
          "indexed": true,
          "internalType": "address",
          "name": "creator",
          "type": "address"
        },
        {
          "indexed": true,
          "internalType": "uint256",
          "name": "mediaId",
          "type": "uint256"
        }
      ],
      "name": "CreateMedia",
      "type": "event"
    },
    {
      "anonymous": false,
      "inputs": [
        {
          "indexed": true,
          "internalType": "bytes32",
          "name": "role",
          "type": "bytes32"
        },
        {
          "indexed": true,
          "internalType": "bytes32",
          "name": "previousAdminRole",
          "type": "bytes32"
        },
        {
          "indexed": true,
          "internalType": "bytes32",
          "name": "newAdminRole",
          "type": "bytes32"
        }
      ],
      "name": "RoleAdminChanged",
      "type": "event"
    },
    {
      "anonymous": false,
      "inputs": [
        {
          "indexed": true,
          "internalType": "bytes32",
          "name": "role",
          "type": "bytes32"
        },
        {
          "indexed": true,
          "internalType": "address",
          "name": "account",
          "type": "address"
        },
        {
          "indexed": true,
          "internalType": "address",
          "name": "sender",
          "type": "address"
        }
      ],
      "name": "RoleGranted",
      "type": "event"
    },
    {
      "anonymous": false,
      "inputs": [
        {
          "indexed": true,
          "internalType": "bytes32",
          "name": "role",
          "type": "bytes32"
        },
        {
          "indexed": true,
          "internalType": "address",
          "name": "account",
          "type": "address"
        },
        {
          "indexed": true,
          "internalType": "address",
          "name": "sender",
          "type": "address"
        }
      ],
      "name": "RoleRevoked",
      "type": "event"
    },
    {
      "anonymous": false,
      "inputs": [
        {
          "indexed": true,
          "internalType": "address",
          "name": "from",
          "type": "address"
        },
        {
          "indexed": true,
          "internalType": "uint256",
          "name": "mediaId",
          "type": "uint256"
        }
      ],
      "name": "Tip",
      "type": "event"
    },
    {
      "inputs": [],
      "name": "ADMIN",
      "outputs": [
        {
          "internalType": "bytes32",
          "name": "",
          "type": "bytes32"
        }
      ],
      "stateMutability": "view",
      "type": "function",
      "constant": true
    },
    {
      "inputs": [],
      "name": "DEFAULT_ADMIN_ROLE",
      "outputs": [
        {
          "internalType": "bytes32",
          "name": "",
          "type": "bytes32"
        }
      ],
      "stateMutability": "view",
      "type": "function",
      "constant": true
    },
    {
      "inputs": [
        {
          "internalType": "bytes32",
          "name": "role",
          "type": "bytes32"
        }
      ],
      "name": "getRoleAdmin",
      "outputs": [
        {
          "internalType": "bytes32",
          "name": "",
          "type": "bytes32"
        }
      ],
      "stateMutability": "view",
      "type": "function",
      "constant": true
    },
    {
      "inputs": [
        {
          "internalType": "bytes32",
          "name": "role",
          "type": "bytes32"
        },
        {
          "internalType": "address",
          "name": "account",
          "type": "address"
        }
      ],
      "name": "grantRole",
      "outputs": [],
      "stateMutability": "nonpayable",
      "type": "function"
    },
    {
      "inputs": [
        {
          "internalType": "bytes32",
          "name": "role",
          "type": "bytes32"
        },
        {
          "internalType": "address",
          "name": "account",
          "type": "address"
        }
      ],
      "name": "hasRole",
      "outputs": [
        {
          "internalType": "bool",
          "name": "",
          "type": "bool"
        }
      ],
      "stateMutability": "view",
      "type": "function",
      "constant": true
    },
    {
      "inputs": [],
      "name": "mediaFractionalizeManagerAddress",
      "outputs": [
        {
          "internalType": "address",
          "name": "",
          "type": "address"
        }
      ],
      "stateMutability": "view",
      "type": "function",
      "constant": true
    },
    {
      "inputs": [],
      "name": "priviNFTContractAddress",
      "outputs": [
        {
          "internalType": "address",
          "name": "",
          "type": "address"
        }
      ],
      "stateMutability": "view",
      "type": "function",
      "constant": true
    },
    {
      "inputs": [],
      "name": "priviSocialTokenAddress",
      "outputs": [
        {
          "internalType": "address",
          "name": "",
          "type": "address"
        }
      ],
      "stateMutability": "view",
      "type": "function",
      "constant": true
    },
    {
      "inputs": [
        {
          "internalType": "bytes32",
          "name": "role",
          "type": "bytes32"
        },
        {
          "internalType": "address",
          "name": "account",
          "type": "address"
        }
      ],
      "name": "renounceRole",
      "outputs": [],
      "stateMutability": "nonpayable",
      "type": "function"
    },
    {
      "inputs": [
        {
          "internalType": "bytes32",
          "name": "role",
          "type": "bytes32"
        },
        {
          "internalType": "address",
          "name": "account",
          "type": "address"
        }
      ],
      "name": "revokeRole",
      "outputs": [],
      "stateMutability": "nonpayable",
      "type": "function"
    },
    {
      "inputs": [
        {
          "internalType": "bytes4",
          "name": "interfaceId",
          "type": "bytes4"
        }
      ],
      "name": "supportsInterface",
      "outputs": [
        {
          "internalType": "bool",
          "name": "",
          "type": "bool"
        }
      ],
      "stateMutability": "view",
      "type": "function",
      "constant": true
    },
    {
      "inputs": [
        {
          "components": [
            {
              "internalType": "address",
              "name": "creatorAddress",
              "type": "address"
            },
            {
              "internalType": "string",
              "name": "mediaName",
              "type": "string"
            },
            {
              "internalType": "string",
              "name": "mediaType",
              "type": "string"
            },
            {
              "internalType": "uint80",
              "name": "royalty",
              "type": "uint80"
            },
            {
              "internalType": "uint80",
              "name": "collabsSize",
              "type": "uint80"
            },
            {
              "internalType": "uint80",
              "name": "ownersSize",
              "type": "uint80"
            }
          ],
          "internalType": "struct Media",
          "name": "_media",
          "type": "tuple"
        },
        {
          "internalType": "string",
          "name": "_tokenURI",
          "type": "string"
        },
        {
          "components": [
            {
              "internalType": "address",
              "name": "holderAddress",
              "type": "address"
            },
            {
              "internalType": "uint160",
              "name": "share",
              "type": "uint160"
            }
          ],
          "internalType": "struct ShareHolder[]",
          "name": "_initialCollabs",
          "type": "tuple[]"
        }
      ],
      "name": "createMedia",
      "outputs": [],
      "stateMutability": "nonpayable",
      "type": "function"
    },
    {
      "inputs": [
        {
          "internalType": "address",
          "name": "_from",
          "type": "address"
        },
        {
          "internalType": "uint256",
          "name": "_mediaId",
          "type": "uint256"
        },
        {
          "internalType": "uint256",
          "name": "_amount",
          "type": "uint256"
        }
      ],
      "name": "tipMedia",
      "outputs": [],
      "stateMutability": "nonpayable",
      "type": "function"
    },
    {
      "inputs": [
        {
          "internalType": "uint256",
          "name": "_mediaId",
          "type": "uint256"
        }
      ],
      "name": "getMediaCollabs",
      "outputs": [
        {
          "components": [
            {
              "internalType": "address",
              "name": "holderAddress",
              "type": "address"
            },
            {
              "internalType": "uint160",
              "name": "share",
              "type": "uint160"
            }
          ],
          "internalType": "struct ShareHolder[]",
          "name": "",
          "type": "tuple[]"
        }
      ],
      "stateMutability": "view",
      "type": "function",
      "constant": true
    },
    {
      "inputs": [],
      "name": "withdraw",
      "outputs": [],
      "stateMutability": "nonpayable",
      "type": "function"
    }
  ],
  "bytecode": "0x6101406040523480156200001257600080fd5b506040516200379638038062003796833981810160405281019062000038919062000364565b6200004d6000801b33620001d460201b60201c565b6200007f7ff23ec0bb4210edd5cba85afd05127efcd2fc6a781bfed49188da1081670b22d833620001d460201b60201c565b8273ffffffffffffffffffffffffffffffffffffffff1660808173ffffffffffffffffffffffffffffffffffffffff1660601b815250508173ffffffffffffffffffffffffffffffffffffffff1660a08173ffffffffffffffffffffffffffffffffffffffff1660601b815250508073ffffffffffffffffffffffffffffffffffffffff1660c08173ffffffffffffffffffffffffffffffffffffffff1660601b815250508273ffffffffffffffffffffffffffffffffffffffff1660e08173ffffffffffffffffffffffffffffffffffffffff1660601b815250508173ffffffffffffffffffffffffffffffffffffffff166101008173ffffffffffffffffffffffffffffffffffffffff1660601b815250508073ffffffffffffffffffffffffffffffffffffffff166101208173ffffffffffffffffffffffffffffffffffffffff1660601b8152505050505062000408565b620001e68282620001ea60201b60201c565b5050565b620001fc8282620002db60201b60201c565b620002d757600160008084815260200190815260200160002060000160008373ffffffffffffffffffffffffffffffffffffffff1673ffffffffffffffffffffffffffffffffffffffff16815260200190815260200160002060006101000a81548160ff0219169083151502179055506200027c6200034560201b60201c565b73ffffffffffffffffffffffffffffffffffffffff168173ffffffffffffffffffffffffffffffffffffffff16837f2f8788117e7eff1d82e926ec794901d17c78024a50270940304540a733656f0d60405160405180910390a45b5050565b600080600084815260200190815260200160002060000160008373ffffffffffffffffffffffffffffffffffffffff1673ffffffffffffffffffffffffffffffffffffffff16815260200190815260200160002060009054906101000a900460ff16905092915050565b600033905090565b6000815190506200035e81620003ee565b92915050565b6000806000606084860312156200037a57600080fd5b60006200038a868287016200034d565b93505060206200039d868287016200034d565b9250506040620003b0868287016200034d565b9150509250925092565b6000620003c782620003ce565b9050919050565b600073ffffffffffffffffffffffffffffffffffffffff82169050919050565b620003f981620003ba565b81146200040557600080fd5b50565b60805160601c60a05160601c60c05160601c60e05160601c6101005160601c6101205160601c6133096200048d600039600081816108940152610fa8015260008181610b2d0152610d1e01526000818161041a01528181610c6e0152611207015260006113f0015260008181610bde01526113620152600061144401526133096000f3fe608060405234801561001057600080fd5b50600436106100f55760003560e01c806346fc6b101161009757806395c0cc7b1161006657806395c0cc7b14610270578063a217fddf1461028e578063d547741f146102ac578063fa51fa3c146102c8576100f5565b806346fc6b10146101d65780638734726b146101f25780638c9d62c51461022257806391d1485414610240576100f5565b80632a0acc6a116100d35780632a0acc6a146101765780632f2ff15d1461019457806336568abe146101b05780633ccfd60b146101cc576100f5565b806301ffc9a7146100fa578063172609951461012a578063248a9ca314610146575b600080fd5b610114600480360381019061010f9190612187565b6102e6565b60405161012191906128e4565b60405180910390f35b610144600480360381019061013f91906121f1565b610360565b005b610160600480360381019061015b9190612122565b610970565b60405161016d91906128ff565b60405180910390f35b61017e61098f565b60405161018b91906128ff565b60405180910390f35b6101ae60048036038101906101a9919061214b565b6109b3565b005b6101ca60048036038101906101c5919061214b565b6109dc565b005b6101d4610a5f565b005b6101f060048036038101906101eb9190612069565b610bdc565b005b61020c600480360381019061020791906122e4565b6111cf565b60405161021991906128c2565b60405180910390f35b61022a611360565b6040516102379190612847565b60405180910390f35b61025a6004803603810190610255919061214b565b611384565b60405161026791906128e4565b60405180910390f35b6102786113ee565b6040516102859190612847565b60405180910390f35b610296611412565b6040516102a391906128ff565b60405180910390f35b6102c660048036038101906102c1919061214b565b611419565b005b6102d0611442565b6040516102dd9190612847565b60405180910390f35b60007f7965db0b000000000000000000000000000000000000000000000000000000007bffffffffffffffffffffffffffffffffffffffffffffffffffffffff1916827bffffffffffffffffffffffffffffffffffffffffffffffffffffffff19161480610359575061035882611466565b5b9050919050565b612710856060015169ffffffffffffffffffff16106103b4576040517f08c379a00000000000000000000000000000000000000000000000000000000081526004016103ab9061299c565b60405180910390fd5b600082829050116103c65760016103cb565b818190505b856080019069ffffffffffffffffffff16908169ffffffffffffffffffff168152505084608001518560a0019069ffffffffffffffffffff16908169ffffffffffffffffffff168152505060007f000000000000000000000000000000000000000000000000000000000000000073ffffffffffffffffffffffffffffffffffffffff16633ce53dfc8787876040518463ffffffff1660e01b815260040161047593929190612a2c565b602060405180830381600087803b15801561048f57600080fd5b505af11580156104a3573d6000803e3d6000fd5b505050506040513d601f19601f820116820180604052508101906104c7919061230d565b90506000866080015169ffffffffffffffffffff1667ffffffffffffffff81111561051b577f4e487b7100000000000000000000000000000000000000000000000000000000600052604160045260246000fd5b60405190808252806020026020018201604052801561055457816020015b610541611a30565b8152602001906001900390816105395790505b5090506000848490501115610749576000805b858590508110156106fe578585828181106105ab577f4e487b7100000000000000000000000000000000000000000000000000000000600052603260045260246000fd5b90506040020160026000868152602001908152602001600020600083815260200190815260200160002081816105e19190613201565b90505085858281811061061d577f4e487b7100000000000000000000000000000000000000000000000000000000600052603260045260246000fd5b905060400201602001602081019061063591906122bb565b73ffffffffffffffffffffffffffffffffffffffff16826106569190612c1e565b9150858582818110610691577f4e487b7100000000000000000000000000000000000000000000000000000000600052603260045260246000fd5b9050604002018036038101906106a79190612292565b8382815181106106e0577f4e487b7100000000000000000000000000000000000000000000000000000000600052603260045260246000fd5b602002602001018190525080806106f690612ee0565b915050610567565b506127108114610743576040517f08c379a000000000000000000000000000000000000000000000000000000000815260040161073a9061295c565b60405180910390fd5b50610892565b60006040518060400160405280896000015173ffffffffffffffffffffffffffffffffffffffff16815260200161271073ffffffffffffffffffffffffffffffffffffffff1681525090508060026000858152602001908152602001600020600080815260200190815260200160002060008201518160000160006101000a81548173ffffffffffffffffffffffffffffffffffffffff021916908373ffffffffffffffffffffffffffffffffffffffff16021790555060208201518160010160006101000a81548173ffffffffffffffffffffffffffffffffffffffff021916908373ffffffffffffffffffffffffffffffffffffffff1602179055509050508082600081518110610885577f4e487b7100000000000000000000000000000000000000000000000000000000600052603260045260246000fd5b6020026020010181905250505b7f000000000000000000000000000000000000000000000000000000000000000073ffffffffffffffffffffffffffffffffffffffff1663a3aace9c83836040518363ffffffff1660e01b81526004016108ed929190612abe565b600060405180830381600087803b15801561090757600080fd5b505af115801561091b573d6000803e3d6000fd5b5050505081876000015173ffffffffffffffffffffffffffffffffffffffff167fbfd1fd7694acf28c7286ebe5ee44692c621b530aba1eac62479a30360fbb4da760405160405180910390a350505050505050565b6000806000838152602001908152602001600020600101549050919050565b7ff23ec0bb4210edd5cba85afd05127efcd2fc6a781bfed49188da1081670b22d881565b6109bc82610970565b6109cd816109c86114d0565b6114d8565b6109d78383611575565b505050565b6109e46114d0565b73ffffffffffffffffffffffffffffffffffffffff168173ffffffffffffffffffffffffffffffffffffffff1614610a51576040517f08c379a0000000000000000000000000000000000000000000000000000000008152600401610a48906129dc565b60405180910390fd5b610a5b8282611655565b5050565b6000600360003373ffffffffffffffffffffffffffffffffffffffff1673ffffffffffffffffffffffffffffffffffffffff16815260200190815260200160002054905060008111610ae6576040517f08c379a0000000000000000000000000000000000000000000000000000000008152600401610add906129bc565b60405180910390fd5b6000600360003373ffffffffffffffffffffffffffffffffffffffff1673ffffffffffffffffffffffffffffffffffffffff168152602001908152602001600020819055507f000000000000000000000000000000000000000000000000000000000000000073ffffffffffffffffffffffffffffffffffffffff1663a9059cbb33836040518363ffffffff1660e01b8152600401610b86929190612899565b602060405180830381600087803b158015610ba057600080fd5b505af1158015610bb4573d6000803e3d6000fd5b505050506040513d601f19601f82011682018060405250810190610bd891906120f9565b5050565b7f000000000000000000000000000000000000000000000000000000000000000073ffffffffffffffffffffffffffffffffffffffff163373ffffffffffffffffffffffffffffffffffffffff1614610c6a576040517f08c379a0000000000000000000000000000000000000000000000000000000008152600401610c619061297c565b60405180910390fd5b60007f000000000000000000000000000000000000000000000000000000000000000073ffffffffffffffffffffffffffffffffffffffff1663dfa2ed6a846040518263ffffffff1660e01b8152600401610cc59190612aa3565b60006040518083038186803b158015610cdd57600080fd5b505afa158015610cf1573d6000803e3d6000fd5b505050506040513d6000823e3d601f19601f82011682018060405250810190610d1a91906121b0565b90507f000000000000000000000000000000000000000000000000000000000000000073ffffffffffffffffffffffffffffffffffffffff166323b872dd8530856040518463ffffffff1660e01b8152600401610d7993929190612862565b602060405180830381600087803b158015610d9357600080fd5b505af1158015610da7573d6000803e3d6000fd5b505050506040513d601f19601f82011682018060405250810190610dcb91906120f9565b50600080826060015169ffffffffffffffffffff161115610f945760608273__MediaLibrary__________________________63679d5a3e909186600260008a81526020019081526020016000206040518463ffffffff1660e01b8152600401610e3793929190612a65565b60006040518083038186803b158015610e4f57600080fd5b505af4158015610e63573d6000803e3d6000fd5b505050506040513d6000823e3d601f19601f82011682018060405250810190610e8c9190612336565b809250819350505060005b8151811015610f9157818181518110610ed9577f4e487b7100000000000000000000000000000000000000000000000000000000600052603260045260246000fd5b60200260200101516020015160036000848481518110610f22577f4e487b7100000000000000000000000000000000000000000000000000000000600052603260045260246000fd5b60200260200101516000015173ffffffffffffffffffffffffffffffffffffffff1673ffffffffffffffffffffffffffffffffffffffff1681526020019081526020016000206000828254610f779190612c1e565b925050819055508080610f8990612ee0565b915050610e97565b50505b60008184610fa29190612cff565b905060007f000000000000000000000000000000000000000000000000000000000000000073ffffffffffffffffffffffffffffffffffffffff1663879013e3876040518263ffffffff1660e01b8152600401610fff9190612aa3565b60006040518083038186803b15801561101757600080fd5b505afa15801561102b573d6000803e3d6000fd5b505050506040513d6000823e3d601f19601f8201168201806040525081019061105491906120b8565b905060005b8151811015611181576127108383838151811061109f577f4e487b7100000000000000000000000000000000000000000000000000000000600052603260045260246000fd5b60200260200101516020015173ffffffffffffffffffffffffffffffffffffffff166110cb9190612ca5565b6110d59190612c74565b60036000848481518110611112577f4e487b7100000000000000000000000000000000000000000000000000000000600052603260045260246000fd5b60200260200101516000015173ffffffffffffffffffffffffffffffffffffffff1673ffffffffffffffffffffffffffffffffffffffff16815260200190815260200160002060008282546111679190612c1e565b92505081905550808061117990612ee0565b915050611059565b50858773ffffffffffffffffffffffffffffffffffffffff167f1af16f7c72ca21f49bc9d9aa30cca41db8727f5d70816fe8914d9ac828a1026660405160405180910390a350505050505050565b60607ff23ec0bb4210edd5cba85afd05127efcd2fc6a781bfed49188da1081670b22d8611203816111fe6114d0565b6114d8565b60007f000000000000000000000000000000000000000000000000000000000000000073ffffffffffffffffffffffffffffffffffffffff1663dfa2ed6a856040518263ffffffff1660e01b815260040161125e9190612aa3565b60006040518083038186803b15801561127657600080fd5b505afa15801561128a573d6000803e3d6000fd5b505050506040513d6000823e3d601f19601f820116820180604052508101906112b391906121b0565b90508073__MediaLibrary__________________________63e1730a0f9091600260008881526020019081526020016000206040518363ffffffff1660e01b81526004016113029291906129fc565b60006040518083038186803b15801561131a57600080fd5b505af415801561132e573d6000803e3d6000fd5b505050506040513d6000823e3d601f19601f8201168201806040525081019061135791906120b8565b92505050919050565b7f000000000000000000000000000000000000000000000000000000000000000081565b600080600084815260200190815260200160002060000160008373ffffffffffffffffffffffffffffffffffffffff1673ffffffffffffffffffffffffffffffffffffffff16815260200190815260200160002060009054906101000a900460ff16905092915050565b7f000000000000000000000000000000000000000000000000000000000000000081565b6000801b81565b61142282610970565b6114338161142e6114d0565b6114d8565b61143d8383611655565b505050565b7f000000000000000000000000000000000000000000000000000000000000000081565b60007f01ffc9a7000000000000000000000000000000000000000000000000000000007bffffffffffffffffffffffffffffffffffffffffffffffffffffffff1916827bffffffffffffffffffffffffffffffffffffffffffffffffffffffff1916149050919050565b600033905090565b6114e28282611384565b611571576115078173ffffffffffffffffffffffffffffffffffffffff166014611736565b6115158360001c6020611736565b60405160200161152692919061280d565b6040516020818303038152906040526040517f08c379a0000000000000000000000000000000000000000000000000000000008152600401611568919061291a565b60405180910390fd5b5050565b61157f8282611384565b61165157600160008084815260200190815260200160002060000160008373ffffffffffffffffffffffffffffffffffffffff1673ffffffffffffffffffffffffffffffffffffffff16815260200190815260200160002060006101000a81548160ff0219169083151502179055506115f66114d0565b73ffffffffffffffffffffffffffffffffffffffff168173ffffffffffffffffffffffffffffffffffffffff16837f2f8788117e7eff1d82e926ec794901d17c78024a50270940304540a733656f0d60405160405180910390a45b5050565b61165f8282611384565b1561173257600080600084815260200190815260200160002060000160008373ffffffffffffffffffffffffffffffffffffffff1673ffffffffffffffffffffffffffffffffffffffff16815260200190815260200160002060006101000a81548160ff0219169083151502179055506116d76114d0565b73ffffffffffffffffffffffffffffffffffffffff168173ffffffffffffffffffffffffffffffffffffffff16837ff6391f5c32d9c69d2a47ea670b442974b53935d1edc7fd64eb21e047a839171b60405160405180910390a45b5050565b6060600060028360026117499190612ca5565b6117539190612c1e565b67ffffffffffffffff811115611792577f4e487b7100000000000000000000000000000000000000000000000000000000600052604160045260246000fd5b6040519080825280601f01601f1916602001820160405280156117c45781602001600182028036833780820191505090505b5090507f300000000000000000000000000000000000000000000000000000000000000081600081518110611822577f4e487b7100000000000000000000000000000000000000000000000000000000600052603260045260246000fd5b60200101907effffffffffffffffffffffffffffffffffffffffffffffffffffffffffffff1916908160001a9053507f7800000000000000000000000000000000000000000000000000000000000000816001815181106118ac577f4e487b7100000000000000000000000000000000000000000000000000000000600052603260045260246000fd5b60200101907effffffffffffffffffffffffffffffffffffffffffffffffffffffffffffff1916908160001a905350600060018460026118ec9190612ca5565b6118f69190612c1e565b90505b60018111156119e2577f3031323334353637383961626364656600000000000000000000000000000000600f86166010811061195e577f4e487b7100000000000000000000000000000000000000000000000000000000600052603260045260246000fd5b1a60f81b82828151811061199b577f4e487b7100000000000000000000000000000000000000000000000000000000600052603260045260246000fd5b60200101907effffffffffffffffffffffffffffffffffffffffffffffffffffffffffffff1916908160001a905350600485901c9450806119db90612e85565b90506118f9565b5060008414611a26576040517f08c379a0000000000000000000000000000000000000000000000000000000008152600401611a1d9061293c565b60405180910390fd5b8091505092915050565b6040518060400160405280600073ffffffffffffffffffffffffffffffffffffffff168152602001600073ffffffffffffffffffffffffffffffffffffffff1681525090565b6000611a89611a8484612b13565b612aee565b90508083825260208201905082856040860282011115611aa857600080fd5b60005b85811015611ad85781611abe8882611d6f565b845260208401935060408301925050600181019050611aab565b5050509392505050565b6000611af5611af084612b3f565b612aee565b90508083825260208201905082856040860282011115611b1457600080fd5b60005b85811015611b445781611b2a8882611f9f565b845260208401935060408301925050600181019050611b17565b5050509392505050565b6000611b61611b5c84612b6b565b612aee565b905082815260208101848484011115611b7957600080fd5b611b84848285612dfd565b509392505050565b6000611b9f611b9a84612b6b565b612aee565b905082815260208101848484011115611bb757600080fd5b611bc2848285612e0c565b509392505050565b600081359050611bd981613232565b92915050565b600081519050611bee81613232565b92915050565b600082601f830112611c0557600080fd5b8151611c15848260208601611a76565b91505092915050565b60008083601f840112611c3057600080fd5b8235905067ffffffffffffffff811115611c4957600080fd5b602083019150836040820283011115611c6157600080fd5b9250929050565b600082601f830112611c7957600080fd5b8151611c89848260208601611ae2565b91505092915050565b600081519050611ca181613249565b92915050565b600081359050611cb681613260565b92915050565b600081359050611ccb81613277565b92915050565b60008083601f840112611ce357600080fd5b8235905067ffffffffffffffff811115611cfc57600080fd5b602083019150836001820283011115611d1457600080fd5b9250929050565b600082601f830112611d2c57600080fd5b8135611d3c848260208601611b4e565b91505092915050565b600082601f830112611d5657600080fd5b8151611d66848260208601611b8c565b91505092915050565b600060408284031215611d8157600080fd5b611d8b6040612aee565b90506000611d9b84828501611bdf565b6000830152506020611daf8482850161202a565b60208301525092915050565b600060c08284031215611dcd57600080fd5b611dd760c0612aee565b90506000611de784828501611bca565b600083015250602082013567ffffffffffffffff811115611e0757600080fd5b611e1384828501611d1b565b602083015250604082013567ffffffffffffffff811115611e3357600080fd5b611e3f84828501611d1b565b6040830152506060611e538482850161203f565b6060830152506080611e678482850161203f565b60808301525060a0611e7b8482850161203f565b60a08301525092915050565b600060c08284031215611e9957600080fd5b611ea360c0612aee565b90506000611eb384828501611bdf565b600083015250602082015167ffffffffffffffff811115611ed357600080fd5b611edf84828501611d45565b602083015250604082015167ffffffffffffffff811115611eff57600080fd5b611f0b84828501611d45565b6040830152506060611f1f84828501612054565b6060830152506080611f3384828501612054565b60808301525060a0611f4784828501612054565b60a08301525092915050565b600060408284031215611f6557600080fd5b611f6f6040612aee565b90506000611f7f84828501611bca565b6000830152506020611f9384828501611feb565b60208301525092915050565b600060408284031215611fb157600080fd5b611fbb6040612aee565b90506000611fcb84828501611bdf565b6000830152506020611fdf84828501612000565b60208301525092915050565b600081359050611ffa8161328e565b92915050565b60008151905061200f8161328e565b92915050565b600081359050612024816132a5565b92915050565b600081519050612039816132a5565b92915050565b60008135905061204e816132bc565b92915050565b600081519050612063816132bc565b92915050565b60008060006060848603121561207e57600080fd5b600061208c86828701611bca565b935050602061209d86828701612015565b92505060406120ae86828701612015565b9150509250925092565b6000602082840312156120ca57600080fd5b600082015167ffffffffffffffff8111156120e457600080fd5b6120f084828501611c68565b91505092915050565b60006020828403121561210b57600080fd5b600061211984828501611c92565b91505092915050565b60006020828403121561213457600080fd5b600061214284828501611ca7565b91505092915050565b6000806040838503121561215e57600080fd5b600061216c85828601611ca7565b925050602061217d85828601611bca565b9150509250929050565b60006020828403121561219957600080fd5b60006121a784828501611cbc565b91505092915050565b6000602082840312156121c257600080fd5b600082015167ffffffffffffffff8111156121dc57600080fd5b6121e884828501611e87565b91505092915050565b60008060008060006060868803121561220957600080fd5b600086013567ffffffffffffffff81111561222357600080fd5b61222f88828901611dbb565b955050602086013567ffffffffffffffff81111561224c57600080fd5b61225888828901611cd1565b9450945050604086013567ffffffffffffffff81111561227757600080fd5b61228388828901611c1e565b92509250509295509295909350565b6000604082840312156122a457600080fd5b60006122b284828501611f53565b91505092915050565b6000602082840312156122cd57600080fd5b60006122db84828501611feb565b91505092915050565b6000602082840312156122f657600080fd5b600061230484828501612015565b91505092915050565b60006020828403121561231f57600080fd5b600061232d8482850161202a565b91505092915050565b6000806040838503121561234957600080fd5b60006123578582860161202a565b925050602083015167ffffffffffffffff81111561237457600080fd5b61238085828601611bf4565b9150509250929050565b60006123968383612793565b60408301905092915050565b6123ab81612d33565b82525050565b6123ba81612d33565b82525050565b6123c981612d33565b82525050565b60006123da82612bac565b6123e48185612bcf565b93506123ef83612b9c565b8060005b83811015612420578151612407888261238a565b975061241283612bc2565b9250506001810190506123f3565b5085935050505092915050565b61243681612d45565b82525050565b61244581612d51565b82525050565b8082525050565b600061245e8385612bf1565b935061246b838584612dfd565b61247483612ff6565b840190509392505050565b600061248a82612bb7565b6124948185612be0565b93506124a4818560208601612e0c565b6124ad81612ff6565b840191505092915050565b60006124c382612bb7565b6124cd8185612bf1565b93506124dd818560208601612e0c565b6124e681612ff6565b840191505092915050565b60006124fc82612bb7565b6125068185612c02565b9350612516818560208601612e0c565b61251f81612ff6565b840191505092915050565b600061253582612bb7565b61253f8185612c13565b935061254f818560208601612e0c565b80840191505092915050565b6000612568602083612bf1565b915061257382613014565b602082019050919050565b600061258b602083612bf1565b91506125968261303d565b602082019050919050565b60006125ae602883612bf1565b91506125b982613066565b604082019050919050565b60006125d1601783612c13565b91506125dc826130b5565b601782019050919050565b60006125f4600f83612bf1565b91506125ff826130de565b602082019050919050565b6000612617601183612c13565b915061262282613107565b601182019050919050565b600061263a601683612bf1565b915061264582613130565b602082019050919050565b600061265d602f83612bf1565b915061266882613159565b604082019050919050565b600060c08301600083015161268b60008601826123a2565b50602083015184820360208601526126a3828261247f565b915050604083015184820360408601526126bd828261247f565b91505060608301516126d260608601826127ef565b5060808301516126e560808601826127ef565b5060a08301516126f860a08601826127ef565b508091505092915050565b600060c08301600083015161271b60008601826123c0565b506020830151848203602086015261273382826124f1565b9150506040830151848203604086015261274d82826124f1565b915050606083015161276260608601826127fe565b50608083015161277560808601826127fe565b5060a083015161278860a08601826127fe565b508091505092915050565b6040820160008201516127a960008501826123a2565b5060208201516127bc60208501826127c2565b50505050565b6127cb81612d87565b82525050565b6127da81612da7565b82525050565b6127e981612da7565b82525050565b6127f881612db1565b82525050565b61280781612db1565b82525050565b6000612818826125c4565b9150612824828561252a565b915061282f8261260a565b915061283b828461252a565b91508190509392505050565b600060208201905061285c60008301846123b1565b92915050565b600060608201905061287760008301866123b1565b61288460208301856123b1565b61289160408301846127d1565b949350505050565b60006040820190506128ae60008301856123b1565b6128bb60208301846127d1565b9392505050565b600060208201905081810360008301526128dc81846123cf565b905092915050565b60006020820190506128f9600083018461242d565b92915050565b6000602082019050612914600083018461243c565b92915050565b6000602082019050818103600083015261293481846124b8565b905092915050565b600060208201905081810360008301526129558161255b565b9050919050565b600060208201905081810360008301526129758161257e565b9050919050565b60006020820190508181036000830152612995816125a1565b9050919050565b600060208201905081810360008301526129b5816125e7565b9050919050565b600060208201905081810360008301526129d58161262d565b9050919050565b600060208201905081810360008301526129f581612650565b9050919050565b60006040820190508181036000830152612a168185612703565b9050612a25602083018461244b565b9392505050565b60006040820190508181036000830152612a468186612673565b90508181036020830152612a5b818486612452565b9050949350505050565b60006060820190508181036000830152612a7f8186612703565b9050612a8e60208301856127e0565b612a9b604083018461244b565b949350505050565b6000602082019050612ab860008301846127d1565b92915050565b6000604082019050612ad360008301856127d1565b8181036020830152612ae581846123cf565b90509392505050565b6000612af8612b09565b9050612b048282612eaf565b919050565b6000604051905090565b600067ffffffffffffffff821115612b2e57612b2d612f87565b5b602082029050602081019050919050565b600067ffffffffffffffff821115612b5a57612b59612f87565b5b602082029050602081019050919050565b600067ffffffffffffffff821115612b8657612b85612f87565b5b612b8f82612ff6565b9050602081019050919050565b6000819050602082019050919050565b600081519050919050565b600081519050919050565b6000602082019050919050565b600082825260208201905092915050565b600082825260208201905092915050565b600082825260208201905092915050565b600082825260208201905092915050565b600081905092915050565b6000612c2982612da7565b9150612c3483612da7565b9250827fffffffffffffffffffffffffffffffffffffffffffffffffffffffffffffffff03821115612c6957612c68612f29565b5b828201905092915050565b6000612c7f82612da7565b9150612c8a83612da7565b925082612c9a57612c99612f58565b5b828204905092915050565b6000612cb082612da7565b9150612cbb83612da7565b9250817fffffffffffffffffffffffffffffffffffffffffffffffffffffffffffffffff0483118215151615612cf457612cf3612f29565b5b828202905092915050565b6000612d0a82612da7565b9150612d1583612da7565b925082821015612d2857612d27612f29565b5b828203905092915050565b6000612d3e82612d87565b9050919050565b60008115159050919050565b6000819050919050565b60007fffffffff0000000000000000000000000000000000000000000000000000000082169050919050565b600073ffffffffffffffffffffffffffffffffffffffff82169050919050565b6000819050919050565b600069ffffffffffffffffffff82169050919050565b6000612dd282612dd9565b9050919050565b6000612de482612deb565b9050919050565b6000612df682612d87565b9050919050565b82818337600083830152505050565b60005b83811015612e2a578082015181840152602081019050612e0f565b83811115612e39576000848401525b50505050565b600081016000830180612e5181612fca565b9050612e5d81846131de565b505050600181016020830180612e7281612fe0565b9050612e7e818461320f565b5050505050565b6000612e9082612da7565b91506000821415612ea457612ea3612f29565b5b600182039050919050565b612eb882612ff6565b810181811067ffffffffffffffff82111715612ed757612ed6612f87565b5b80604052505050565b6000612eeb82612da7565b91507fffffffffffffffffffffffffffffffffffffffffffffffffffffffffffffffff821415612f1e57612f1d612f29565b5b600182019050919050565b7f4e487b7100000000000000000000000000000000000000000000000000000000600052601160045260246000fd5b7f4e487b7100000000000000000000000000000000000000000000000000000000600052601260045260246000fd5b7f4e487b7100000000000000000000000000000000000000000000000000000000600052604160045260246000fd5b6000819050919050565b6000819050919050565b60008135612fd781613232565b80915050919050565b60008135612fed8161328e565b80915050919050565b6000601f19601f8301169050919050565b60008160001b9050919050565b7f537472696e67733a20686578206c656e67746820696e73756666696369656e74600082015250565b7f496e76616c696420746f74616c20646973747269627574656420736861726573600082015250565b7f546865207469702073686f756c6420636f6d652066726f6d207468652045524360008201527f323020746f6b656e000000000000000000000000000000000000000000000000602082015250565b7f416363657373436f6e74726f6c3a206163636f756e7420000000000000000000600082015250565b7f496e76616c696420726f79616c74790000000000000000000000000000000000600082015250565b7f206973206d697373696e6720726f6c6520000000000000000000000000000000600082015250565b7f4e6f2070656e64696e67207769746864726177616c7300000000000000000000600082015250565b7f416363657373436f6e74726f6c3a2063616e206f6e6c792072656e6f756e636560008201527f20726f6c657320666f722073656c660000000000000000000000000000000000602082015250565b600073ffffffffffffffffffffffffffffffffffffffff6131c884613007565b9350801983169250808416831791505092915050565b6131e782612dc7565b6131fa6131f382612fb6565b83546131a8565b8255505050565b61320b8282612e3f565b5050565b61321882612deb565b61322b61322482612fc0565b83546131a8565b8255505050565b61323b81612d33565b811461324657600080fd5b50565b61325281612d45565b811461325d57600080fd5b50565b61326981612d51565b811461327457600080fd5b50565b61328081612d5b565b811461328b57600080fd5b50565b61329781612d87565b81146132a257600080fd5b50565b6132ae81612da7565b81146132b957600080fd5b50565b6132c581612db1565b81146132d057600080fd5b5056fea26469706673582212209e5d9c1241fcd30589cc290e48a40bb0035f78bfbb356f0547d94b95a7df6c3f64736f6c63430008010033",
  "immutableReferences": {
    "993": [
      {
        "length": 32,
        "start": 5188
      }
    ],
    "995": [
      {
        "length": 32,
        "start": 3038
      },
      {
        "length": 32,
        "start": 4962
      }
    ],
    "997": [
      {
        "length": 32,
        "start": 5104
      }
    ],
    "1000": [
      {
        "length": 32,
        "start": 1050
      },
      {
        "length": 32,
        "start": 3182
      },
      {
        "length": 32,
        "start": 4615
      }
    ],
    "1003": [
      {
        "length": 32,
        "start": 2861
      },
      {
        "length": 32,
        "start": 3358
      }
    ],
    "1006": [
      {
        "length": 32,
        "start": 2196
      },
      {
        "length": 32,
        "start": 4008
      }
    ]
  },
  "source": "// SPDX-License-Identifier: MIT\npragma solidity ^0.8.0;\n\nimport \"@openzeppelin/contracts/token/ERC20/ERC20.sol\";\nimport \"@openzeppelin/contracts/access/AccessControl.sol\";\nimport \"@openzeppelin/contracts/utils/Counters.sol\";\nimport \"./MediaLibrary.sol\";\nimport \"./PriviNFT.sol\";\nimport \"./MediaFractionalizeManager.sol\";\n\ncontract MediaManager is AccessControl {\n    using Counters for Counters.Counter;\n    using MediaLibrary for Media;\n\n    Counters.Counter private _updateProposalIds;\n\n    bytes32 public constant ADMIN = keccak256(\"admin\");\n\n    address public immutable priviNFTContractAddress;\n    address public immutable priviSocialTokenAddress;\n    address public immutable mediaFractionalizeManagerAddress;\n\n    PriviNFT private immutable _priviNFT;\n    ERC20 private immutable _priviSocialToken;\n    MediaFractionalizeManager private immutable _mediaFractionalizeManager;\n\n    // map from media to collabs\n    mapping(uint256 => mapping(uint256 => ShareHolder)) private _collabs;\n    // implement withdrawal pattern\n    mapping(address => uint256) private pendingWithdrawals;\n\n    event CreateMedia(address indexed creator, uint256 indexed mediaId);\n    event Tip(address indexed from, uint256 indexed mediaId);\n\n    constructor(\n        address _priviNFTContractAddress,\n        address _priviSocialTokenAddress,\n        address _mediaFractionalizeManagerAddress\n    ) {\n        _setupRole(DEFAULT_ADMIN_ROLE, msg.sender);\n        _setupRole(ADMIN, msg.sender);\n\n        priviNFTContractAddress = _priviNFTContractAddress;\n        priviSocialTokenAddress = _priviSocialTokenAddress;\n        mediaFractionalizeManagerAddress = _mediaFractionalizeManagerAddress;\n\n        _priviNFT = PriviNFT(_priviNFTContractAddress);\n        _priviSocialToken = ERC20(_priviSocialTokenAddress);\n        _mediaFractionalizeManager = MediaFractionalizeManager(_mediaFractionalizeManagerAddress);\n    }\n\n    function createMedia(\n        Media memory _media,\n        string calldata _tokenURI,\n        ShareHolder[] calldata _initialCollabs\n    ) external {\n        require(_media.royalty < MediaLibrary.SHARES_DENOMINATOR, \"Invalid royalty\");\n\n        // the creators are the collabs\n        // the owners are the collabs at the beginning\n        _media.collabsSize = _initialCollabs.length > 0 ? uint80(_initialCollabs.length) : 1;\n        _media.ownersSize = _media.collabsSize;\n\n        uint256 mediaId = _priviNFT.createMedia(_media, _tokenURI);\n\n        ShareHolder[] memory owners = new ShareHolder[](_media.collabsSize);\n\n        // set the collaborators and owners in the creation\n        if (_initialCollabs.length > 0) {\n            uint256 totalShares;\n            for (uint256 i; i < _initialCollabs.length; i++) {\n                _collabs[mediaId][i] = _initialCollabs[i];\n                totalShares += _initialCollabs[i].share;\n\n                // set the owners as the collabs initially\n                owners[i] = _initialCollabs[i];\n            }\n            require(totalShares == MediaLibrary.SHARES_DENOMINATOR, \"Invalid total distributed shares\");\n        } else {\n            // add the creator as collab with full shares and as the owner\n            ShareHolder memory holder = ShareHolder({\n                holderAddress: _media.creatorAddress,\n                share: uint160(MediaLibrary.SHARES_DENOMINATOR)\n            });\n            _collabs[mediaId][0] = holder;\n            owners[0] = holder;\n        }\n\n        _mediaFractionalizeManager.setInitialOwners(mediaId, owners);\n\n        // emit the event if the creation was successful\n        emit CreateMedia(_media.creatorAddress, mediaId);\n    }\n\n    // allows the viewer to tip to the owner\n    function tipMedia(\n        address _from,\n        uint256 _mediaId,\n        uint256 _amount\n    ) external {\n        // because the tip needs an approval proccess, the request should come from the ERC20 token\n        require(msg.sender == priviSocialTokenAddress, \"The tip should come from the ERC20 token\");\n\n        Media memory media = _priviNFT.getMedia(_mediaId);\n\n        // get the amount through the allowance, the balance is already checked in the ERC20 contract\n        _priviSocialToken.transferFrom(_from, address(this), _amount);\n\n        uint256 fee;\n\n        // check if has royalties and collaborator to distribute royalties for\n        if (media.royalty > 0) {\n            // get royalties\n            Distribution[] memory royalties;\n            (fee, royalties) = media.getRoyalties(_amount, _collabs[_mediaId]);\n\n            // add to pending withdrawals\n            for (uint256 i; i < royalties.length; i++) {\n                pendingWithdrawals[royalties[i].holderAddress] += royalties[i].amount;\n            }\n        }\n\n        // get owners and owners profit\n        uint256 ownersProfit = _amount - fee;\n\n        ShareHolder[] memory ownersWithShare = _mediaFractionalizeManager.getMediaOwners(_mediaId);\n\n        // add to pending withdrawals\n        for (uint256 i; i < ownersWithShare.length; i++) {\n            pendingWithdrawals[ownersWithShare[i].holderAddress] +=\n                (ownersWithShare[i].share * ownersProfit) /\n                MediaLibrary.SHARES_DENOMINATOR;\n        }\n\n        // emit the event if the tip was successful\n        emit Tip(_from, _mediaId);\n    }\n\n    // allow admins to see the collabs of a media\n    function getMediaCollabs(uint256 _mediaId) external view onlyRole(ADMIN) returns (ShareHolder[] memory) {\n        Media memory media = _priviNFT.getMedia(_mediaId);\n        return media.getCollabs(_collabs[_mediaId]);\n    }\n\n    function withdraw() public {\n        uint256 amount = pendingWithdrawals[msg.sender];\n        require(amount > 0, \"No pending withdrawals\");\n\n        pendingWithdrawals[msg.sender] = 0;\n        _priviSocialToken.transfer(msg.sender, amount);\n    }\n\n    /**\n     *   @TODO: methods to implement\n     *   - openNFT\n     *   - closeNFT\n     *   - shareMedia\n     */\n}\n",
  "sourcePath": "/home/ericng/Documents/PRIVI/Privi-Polygon/privi-media-nft/contracts/MediaManager.sol",
  "compiler": {
    "name": "solc",
    "version": "0.8.1+commit.df193b15.Emscripten.clang"
  },
  "schemaVersion": "3.4.1",
  "updatedAt": "2021-06-24T19:39:06.948Z",
  "networkType": "ethereum",
  "devdoc": {
    "kind": "dev",
    "methods": {
      "getRoleAdmin(bytes32)": {
        "details": "Returns the admin role that controls `role`. See {grantRole} and {revokeRole}. To change a role's admin, use {_setRoleAdmin}."
      },
      "grantRole(bytes32,address)": {
        "details": "Grants `role` to `account`. If `account` had not been already granted `role`, emits a {RoleGranted} event. Requirements: - the caller must have ``role``'s admin role."
      },
      "hasRole(bytes32,address)": {
        "details": "Returns `true` if `account` has been granted `role`."
      },
      "renounceRole(bytes32,address)": {
        "details": "Revokes `role` from the calling account. Roles are often managed via {grantRole} and {revokeRole}: this function's purpose is to provide a mechanism for accounts to lose their privileges if they are compromised (such as when a trusted device is misplaced). If the calling account had been granted `role`, emits a {RoleRevoked} event. Requirements: - the caller must be `account`."
      },
      "revokeRole(bytes32,address)": {
        "details": "Revokes `role` from `account`. If `account` had been granted `role`, emits a {RoleRevoked} event. Requirements: - the caller must have ``role``'s admin role."
      },
      "supportsInterface(bytes4)": {
        "details": "See {IERC165-supportsInterface}."
      }
    },
    "version": 1
  },
  "userdoc": {
    "kind": "user",
    "methods": {},
    "version": 1
  }
}