{
  "contractName": "MockSong",
  "abi": [
    {
      "inputs": [
        {
          "internalType": "address",
          "name": "_fundsManager",
          "type": "address"
        }
      ],
      "name": "initialize",
      "outputs": [],
      "stateMutability": "nonpayable",
      "type": "function"
    },
    {
      "inputs": [
        {
          "internalType": "uint256",
          "name": "stakedTraxAmount",
          "type": "uint256"
        },
        {
          "internalType": "address",
          "name": "stablecoinAddress",
          "type": "address"
        },
        {
          "internalType": "uint256",
          "name": "stakedStablecoinAmount",
          "type": "uint256"
        }
      ],
      "name": "callUpdateSongStaking",
      "outputs": [],
      "stateMutability": "nonpayable",
      "type": "function"
    },
    {
      "inputs": [
        {
          "internalType": "address",
          "name": "receiver",
          "type": "address"
        },
        {
          "internalType": "address",
          "name": "stablecoinAddress",
          "type": "address"
        },
        {
          "internalType": "uint256",
          "name": "amount",
          "type": "uint256"
        }
      ],
      "name": "callTransferStablecoinTo",
      "outputs": [],
      "stateMutability": "nonpayable",
      "type": "function"
    }
  ],
  "bytecode": "0x608060405234801561001057600080fd5b50610432806100206000396000f3fe608060405234801561001057600080fd5b50600436106100405760003560e01c8062cdd4de14610045578063518f727c14610061578063c4d66de81461007d575b600080fd5b61005f600480360381019061005a919061025b565b610099565b005b61007b600480360381019061007691906102ae565b61012d565b005b6100976004803603810190610092919061022e565b6101c1565b005b60008054906101000a900473ffffffffffffffffffffffffffffffffffffffff1673ffffffffffffffffffffffffffffffffffffffff166338670f928484846040518463ffffffff1660e01b81526004016100f69392919061031f565b600060405180830381600087803b15801561011057600080fd5b505af1158015610124573d6000803e3d6000fd5b50505050505050565b60008054906101000a900473ffffffffffffffffffffffffffffffffffffffff1673ffffffffffffffffffffffffffffffffffffffff16630558a1b28484846040518463ffffffff1660e01b815260040161018a93929190610356565b600060405180830381600087803b1580156101a457600080fd5b505af11580156101b8573d6000803e3d6000fd5b50505050505050565b806000806101000a81548173ffffffffffffffffffffffffffffffffffffffff021916908373ffffffffffffffffffffffffffffffffffffffff16021790555050565b600081359050610213816103ce565b92915050565b600081359050610228816103e5565b92915050565b600060208284031215610244576102436103c9565b5b600061025284828501610204565b91505092915050565b600080600060608486031215610274576102736103c9565b5b600061028286828701610204565b935050602061029386828701610204565b92505060406102a486828701610219565b9150509250925092565b6000806000606084860312156102c7576102c66103c9565b5b60006102d586828701610219565b93505060206102e686828701610204565b92505060406102f786828701610219565b9150509250925092565b61030a8161038d565b82525050565b610319816103bf565b82525050565b60006060820190506103346000830186610301565b6103416020830185610301565b61034e6040830184610310565b949350505050565b600060608201905061036b6000830186610310565b6103786020830185610301565b6103856040830184610310565b949350505050565b60006103988261039f565b9050919050565b600073ffffffffffffffffffffffffffffffffffffffff82169050919050565b6000819050919050565b600080fd5b6103d78161038d565b81146103e257600080fd5b50565b6103ee816103bf565b81146103f957600080fd5b5056fea2646970667358221220d3d72033f5c118167640d186224f0c4eae3672c1028841ddf5ce3bd23054cd8c64736f6c63430008060033",
  "immutableReferences": {},
  "source": "// SPDX-License-Identifier: MIT\npragma solidity ^0.8.0;\n\nimport \"../FundsManager.sol\";\n\ncontract MockSong {\n    FundsManager private fundsManager;\n\n    function initialize(address _fundsManager) external {\n        fundsManager = FundsManager(_fundsManager);\n    }\n\n    function callUpdateSongStaking(\n        uint256 stakedTraxAmount,\n        address stablecoinAddress,\n        uint256 stakedStablecoinAmount\n    ) external {\n        fundsManager.updateSongStaking(stakedTraxAmount, stablecoinAddress, stakedStablecoinAmount);\n    }\n\n    function callTransferStablecoinTo(\n        address receiver,\n        address stablecoinAddress,\n        uint256 amount\n    ) external {\n        fundsManager.transferStablecoinTo(receiver, stablecoinAddress, amount);\n    }\n}\n",
  "sourcePath": "/Users/angelsatorresalmenara/Desktop/privi-trax-smart-contracts/contracts/mocks/MockSong.sol",
  "compiler": {
    "name": "solc",
    "version": "0.8.6+commit.11564f7e.Emscripten.clang"
  },
  "schemaVersion": "3.4.2",
  "updatedAt": "2021-09-02T15:22:21.276Z",
  "devdoc": {
    "kind": "dev",
    "methods": {},
    "version": 1
  },
  "userdoc": {
    "kind": "user",
    "methods": {},
    "version": 1
  }
}