{
  "contractName": "MockSongsManager",
  "abi": [
    {
      "inputs": [],
      "name": "SONG_CONTRACT",
      "outputs": [
        {
          "internalType": "bytes32",
          "name": "",
          "type": "bytes32"
        }
      ],
      "stateMutability": "view",
      "type": "function"
    },
    {
      "inputs": [],
      "name": "registeredSong",
      "outputs": [
        {
          "internalType": "address",
          "name": "",
          "type": "address"
        }
      ],
      "stateMutability": "view",
      "type": "function"
    },
    {
      "inputs": [
        {
          "internalType": "address",
          "name": "fundsManager",
          "type": "address"
        },
        {
          "internalType": "address",
          "name": "song",
          "type": "address"
        }
      ],
      "name": "initialize",
      "outputs": [],
      "stateMutability": "nonpayable",
      "type": "function"
    },
    {
      "inputs": [],
      "name": "registerSong",
      "outputs": [],
      "stateMutability": "nonpayable",
      "type": "function"
    }
  ],
  "bytecode": "0x608060405234801561001057600080fd5b5061061d806100206000396000f3fe608060405234801561001057600080fd5b506004361061004c5760003560e01c8063485cc955146100515780634ba263161461006d578063ce32adb61461008b578063f529fca0146100a9575b600080fd5b61006b60048036038101906100669190610455565b6100b3565b005b610075610138565b60405161008291906104f1565b60405180910390f35b61009361015c565b6040516100a091906104d6565b60405180910390f35b6100b1610182565b005b816000806101000a81548173ffffffffffffffffffffffffffffffffffffffff021916908373ffffffffffffffffffffffffffffffffffffffff16021790555080600160006101000a81548173ffffffffffffffffffffffffffffffffffffffff021916908373ffffffffffffffffffffffffffffffffffffffff1602179055505050565b7f21d749bccb2cd1ecd43da02f61cbdf715b020c28617853628b041975aa29b91681565b600260009054906101000a900473ffffffffffffffffffffffffffffffffffffffff1681565b6101ad600160009054906101000a900473ffffffffffffffffffffffffffffffffffffffff1661036b565b600260006101000a81548173ffffffffffffffffffffffffffffffffffffffff021916908373ffffffffffffffffffffffffffffffffffffffff160217905550600260009054906101000a900473ffffffffffffffffffffffffffffffffffffffff1673ffffffffffffffffffffffffffffffffffffffff1663c4d66de860008054906101000a900473ffffffffffffffffffffffffffffffffffffffff166040518263ffffffff1660e01b815260040161026891906104d6565b600060405180830381600087803b15801561028257600080fd5b505af1158015610296573d6000803e3d6000fd5b5050505060008054906101000a900473ffffffffffffffffffffffffffffffffffffffff1673ffffffffffffffffffffffffffffffffffffffff16632f2ff15d7f21d749bccb2cd1ecd43da02f61cbdf715b020c28617853628b041975aa29b916600260009054906101000a900473ffffffffffffffffffffffffffffffffffffffff166040518363ffffffff1660e01b815260040161033792919061050c565b600060405180830381600087803b15801561035157600080fd5b505af1158015610365573d6000803e3d6000fd5b50505050565b60006040517f3d602d80600a3d3981f3363d3d373d3d3d363d7300000000000000000000000081528260601b60148201527f5af43d82803e903d91602b57fd5bf3000000000000000000000000000000000060288201526037816000f0915050600073ffffffffffffffffffffffffffffffffffffffff168173ffffffffffffffffffffffffffffffffffffffff16141561043b576040517f08c379a000000000000000000000000000000000000000000000000000000000815260040161043290610535565b60405180910390fd5b919050565b60008135905061044f816105d0565b92915050565b6000806040838503121561046c5761046b6105a2565b5b600061047a85828601610440565b925050602061048b85828601610440565b9150509250929050565b61049e81610566565b82525050565b6104ad81610578565b82525050565b60006104c0601683610555565b91506104cb826105a7565b602082019050919050565b60006020820190506104eb6000830184610495565b92915050565b600060208201905061050660008301846104a4565b92915050565b600060408201905061052160008301856104a4565b61052e6020830184610495565b9392505050565b6000602082019050818103600083015261054e816104b3565b9050919050565b600082825260208201905092915050565b600061057182610582565b9050919050565b6000819050919050565b600073ffffffffffffffffffffffffffffffffffffffff82169050919050565b600080fd5b7f455243313136373a20637265617465206661696c656400000000000000000000600082015250565b6105d981610566565b81146105e457600080fd5b5056fea2646970667358221220ac989269c6746ea410d994a9f26b808b9a74807286b106af49e10c523e1e02cc64736f6c63430008060033",
  "immutableReferences": {},
  "source": "// SPDX-License-Identifier: MIT\npragma solidity ^0.8.0;\n\nimport \"@openzeppelin/contracts/proxy/Clones.sol\";\nimport \"@openzeppelin/contracts/access/AccessControl.sol\";\nimport \"./MockSong.sol\";\n\ncontract MockSongsManager {\n    bytes32 public constant SONG_CONTRACT = keccak256(\"SONG_CONTRACT\");\n\n    address private _fundsManager;\n    address private _song;\n    address public registeredSong;\n\n    function initialize(address fundsManager, address song) external {\n        _fundsManager = fundsManager;\n        _song = song;\n    }\n\n    function registerSong() external {\n        registeredSong = Clones.clone(_song);\n        MockSong(registeredSong).initialize(_fundsManager);\n        AccessControl(_fundsManager).grantRole(SONG_CONTRACT, registeredSong);\n    }\n}\n",
  "sourcePath": "/Users/angelsatorresalmenara/Desktop/privi-trax-smart-contracts/contracts/mocks/MockSongsManager.sol",
  "compiler": {
    "name": "solc",
    "version": "0.8.6+commit.11564f7e.Emscripten.clang"
  },
  "schemaVersion": "3.4.2",
  "updatedAt": "2021-09-02T15:22:21.278Z",
  "devdoc": {
    "kind": "dev",
    "methods": {},
    "version": 1
  },
  "userdoc": {
    "kind": "user",
    "methods": {},
    "version": 1
  }
}