{
  "contractName": "MockAggregator",
  "abi": [
    {
      "inputs": [],
      "name": "mock_answer",
      "outputs": [
        {
          "internalType": "int256",
          "name": "",
          "type": "int256"
        }
      ],
      "stateMutability": "view",
      "type": "function"
    },
    {
      "inputs": [],
      "name": "mock_decimals",
      "outputs": [
        {
          "internalType": "uint8",
          "name": "",
          "type": "uint8"
        }
      ],
      "stateMutability": "view",
      "type": "function"
    },
    {
      "inputs": [
        {
          "internalType": "int256",
          "name": "answer",
          "type": "int256"
        }
      ],
      "name": "setLatestRoundData",
      "outputs": [],
      "stateMutability": "nonpayable",
      "type": "function"
    },
    {
      "inputs": [],
      "name": "latestRoundData",
      "outputs": [
        {
          "internalType": "uint80",
          "name": "",
          "type": "uint80"
        },
        {
          "internalType": "int256",
          "name": "",
          "type": "int256"
        },
        {
          "internalType": "uint256",
          "name": "",
          "type": "uint256"
        },
        {
          "internalType": "uint256",
          "name": "",
          "type": "uint256"
        },
        {
          "internalType": "uint80",
          "name": "",
          "type": "uint80"
        }
      ],
      "stateMutability": "view",
      "type": "function"
    },
    {
      "inputs": [
        {
          "internalType": "uint8",
          "name": "_decimals",
          "type": "uint8"
        }
      ],
      "name": "setDecimals",
      "outputs": [],
      "stateMutability": "nonpayable",
      "type": "function"
    },
    {
      "inputs": [],
      "name": "decimals",
      "outputs": [
        {
          "internalType": "uint8",
          "name": "",
          "type": "uint8"
        }
      ],
      "stateMutability": "view",
      "type": "function"
    }
  ],
  "bytecode": "0x608060405234801561001057600080fd5b50610372806100206000396000f3fe608060405234801561001057600080fd5b50600436106100625760003560e01c8063313ce567146100675780637a1395aa146100855780637c9fffac146100a15780638d4e06b4146100bf578063c3a995f9146100db578063feaf968c146100f9575b600080fd5b61006f61011b565b60405161007c91906102bc565b60405180910390f35b61009f600480360381019061009a91906101e9565b610132565b005b6100a9610150565b6040516100b6919061024e565b60405180910390f35b6100d960048036038101906100d491906101c0565b610156565b005b6100e3610160565b6040516100f091906102bc565b60405180910390f35b610101610173565b604051610112959493929190610269565b60405180910390f35b6000600160009054906101000a900460ff16905090565b80600160006101000a81548160ff021916908360ff16021790555050565b60005481565b8060008190555050565b600160009054906101000a900460ff1681565b600080600080600060016000546001806001945094509450945094509091929394565b6000813590506101a58161030e565b92915050565b6000813590506101ba81610325565b92915050565b6000602082840312156101d257600080fd5b60006101e084828501610196565b91505092915050565b6000602082840312156101fb57600080fd5b6000610209848285016101ab565b91505092915050565b61021b816102d7565b82525050565b61022a816102e1565b82525050565b610239816102f8565b82525050565b610248816102eb565b82525050565b60006020820190506102636000830184610212565b92915050565b600060a08201905061027e6000830188610230565b61028b6020830187610212565b6102986040830186610221565b6102a56060830185610221565b6102b26080830184610230565b9695505050505050565b60006020820190506102d1600083018461023f565b92915050565b6000819050919050565b6000819050919050565b600060ff82169050919050565b600069ffffffffffffffffffff82169050919050565b610317816102d7565b811461032257600080fd5b50565b61032e816102eb565b811461033957600080fd5b5056fea26469706673582212209be92d94b83939cda6978b9d2d889c9577fe61c0a78c5bb6c55a9713599e574864736f6c63430008040033",
  "immutableReferences": {},
  "source": "// SPDX-License-Identifier: MIT\npragma solidity >=0.4.22 <0.9.0;\n\ncontract MockAggregator {\n    int256 public mock_answer;\n    uint8 public mock_decimals;\n\n    function setLatestRoundData(\n        int256 answer\n    ) public {\n        mock_answer = answer;\n    }\n\n    function latestRoundData()\n        public\n        view\n        returns (\n            uint80,\n            int256,\n            uint256,\n            uint256,\n            uint80\n        )\n    {\n        return (1, mock_answer, 1, 1, 1);\n    }\n\n    function setDecimals(uint8 _decimals) public {\n      mock_decimals = _decimals;\n    }\n\n    function decimals() external view returns (uint8) {\n      return mock_decimals;\n    }\n}\n",
  "sourcePath": "/Users/angelsatorresalmenara/betting-smart-contract/contracts/mocks/MockAggregator.sol",
  "compiler": {
    "name": "solc",
    "version": "0.8.4+commit.c7e474f2.Emscripten.clang"
  },
  "schemaVersion": "3.4.2",
  "updatedAt": "2021-08-23T22:54:24.414Z",
  "devdoc": {
    "kind": "dev",
    "methods": {},
    "version": 1
  },
  "userdoc": {
    "kind": "user",
    "methods": {},
    "version": 1
  }
}