{
  "contractName": "PodAMMManager",
  "abi": [
    {
      "inputs": [
        {
          "internalType": "address",
          "name": "_podManagerContractAddress",
          "type": "address"
        }
      ],
      "stateMutability": "nonpayable",
      "type": "constructor"
    },
    {
      "anonymous": false,
      "inputs": [
        {
          "indexed": true,
          "internalType": "bytes32",
          "name": "role",
          "type": "bytes32"
        },
        {
          "indexed": true,
          "internalType": "bytes32",
          "name": "previousAdminRole",
          "type": "bytes32"
        },
        {
          "indexed": true,
          "internalType": "bytes32",
          "name": "newAdminRole",
          "type": "bytes32"
        }
      ],
      "name": "RoleAdminChanged",
      "type": "event"
    },
    {
      "anonymous": false,
      "inputs": [
        {
          "indexed": true,
          "internalType": "bytes32",
          "name": "role",
          "type": "bytes32"
        },
        {
          "indexed": true,
          "internalType": "address",
          "name": "account",
          "type": "address"
        },
        {
          "indexed": true,
          "internalType": "address",
          "name": "sender",
          "type": "address"
        }
      ],
      "name": "RoleGranted",
      "type": "event"
    },
    {
      "anonymous": false,
      "inputs": [
        {
          "indexed": true,
          "internalType": "bytes32",
          "name": "role",
          "type": "bytes32"
        },
        {
          "indexed": true,
          "internalType": "address",
          "name": "account",
          "type": "address"
        },
        {
          "indexed": true,
          "internalType": "address",
          "name": "sender",
          "type": "address"
        }
      ],
      "name": "RoleRevoked",
      "type": "event"
    },
    {
      "inputs": [],
      "name": "DEFAULT_ADMIN_ROLE",
      "outputs": [
        {
          "internalType": "bytes32",
          "name": "",
          "type": "bytes32"
        }
      ],
      "stateMutability": "view",
      "type": "function",
      "constant": true
    },
    {
      "inputs": [],
      "name": "TRADING_STATE",
      "outputs": [
        {
          "internalType": "bytes32",
          "name": "",
          "type": "bytes32"
        }
      ],
      "stateMutability": "view",
      "type": "function",
      "constant": true
    },
    {
      "inputs": [
        {
          "internalType": "bytes32",
          "name": "role",
          "type": "bytes32"
        }
      ],
      "name": "getRoleAdmin",
      "outputs": [
        {
          "internalType": "bytes32",
          "name": "",
          "type": "bytes32"
        }
      ],
      "stateMutability": "view",
      "type": "function",
      "constant": true
    },
    {
      "inputs": [
        {
          "internalType": "bytes32",
          "name": "role",
          "type": "bytes32"
        },
        {
          "internalType": "address",
          "name": "account",
          "type": "address"
        }
      ],
      "name": "grantRole",
      "outputs": [],
      "stateMutability": "nonpayable",
      "type": "function"
    },
    {
      "inputs": [
        {
          "internalType": "bytes32",
          "name": "role",
          "type": "bytes32"
        },
        {
          "internalType": "address",
          "name": "account",
          "type": "address"
        }
      ],
      "name": "hasRole",
      "outputs": [
        {
          "internalType": "bool",
          "name": "",
          "type": "bool"
        }
      ],
      "stateMutability": "view",
      "type": "function",
      "constant": true
    },
    {
      "inputs": [
        {
          "internalType": "bytes32",
          "name": "role",
          "type": "bytes32"
        },
        {
          "internalType": "address",
          "name": "account",
          "type": "address"
        }
      ],
      "name": "renounceRole",
      "outputs": [],
      "stateMutability": "nonpayable",
      "type": "function"
    },
    {
      "inputs": [
        {
          "internalType": "bytes32",
          "name": "role",
          "type": "bytes32"
        },
        {
          "internalType": "address",
          "name": "account",
          "type": "address"
        }
      ],
      "name": "revokeRole",
      "outputs": [],
      "stateMutability": "nonpayable",
      "type": "function"
    },
    {
      "inputs": [
        {
          "internalType": "bytes4",
          "name": "interfaceId",
          "type": "bytes4"
        }
      ],
      "name": "supportsInterface",
      "outputs": [
        {
          "internalType": "bool",
          "name": "",
          "type": "bool"
        }
      ],
      "stateMutability": "view",
      "type": "function",
      "constant": true
    },
    {
      "inputs": [
        {
          "internalType": "address",
          "name": "_podAddress",
          "type": "address"
        },
        {
          "internalType": "uint256",
          "name": "_amount",
          "type": "uint256"
        }
      ],
      "name": "buyPodTokens",
      "outputs": [],
      "stateMutability": "nonpayable",
      "type": "function"
    },
    {
      "inputs": [
        {
          "internalType": "address",
          "name": "_podAddress",
          "type": "address"
        },
        {
          "internalType": "uint256",
          "name": "_amount",
          "type": "uint256"
        }
      ],
      "name": "sellPodTokens",
      "outputs": [],
      "stateMutability": "nonpayable",
      "type": "function"
    }
  ],
  "bytecode": "0x60a06040523480156200001157600080fd5b5060405162001aee38038062001aee83398181016040528101906200003791906200021a565b6200004c6000801b336200008a60201b60201c565b8073ffffffffffffffffffffffffffffffffffffffff1660808173ffffffffffffffffffffffffffffffffffffffff1660601b815250505062000294565b6200009c8282620000a060201b60201c565b5050565b620000b282826200019160201b60201c565b6200018d57600160008084815260200190815260200160002060000160008373ffffffffffffffffffffffffffffffffffffffff1673ffffffffffffffffffffffffffffffffffffffff16815260200190815260200160002060006101000a81548160ff02191690831515021790555062000132620001fb60201b60201c565b73ffffffffffffffffffffffffffffffffffffffff168173ffffffffffffffffffffffffffffffffffffffff16837f2f8788117e7eff1d82e926ec794901d17c78024a50270940304540a733656f0d60405160405180910390a45b5050565b600080600084815260200190815260200160002060000160008373ffffffffffffffffffffffffffffffffffffffff1673ffffffffffffffffffffffffffffffffffffffff16815260200190815260200160002060009054906101000a900460ff16905092915050565b600033905090565b60008151905062000214816200027a565b92915050565b6000602082840312156200022d57600080fd5b60006200023d8482850162000203565b91505092915050565b600062000253826200025a565b9050919050565b600073ffffffffffffffffffffffffffffffffffffffff82169050919050565b620002858162000246565b81146200029157600080fd5b50565b60805160601c611834620002ba600039600081816103de015261059001526118346000f3fe608060405234801561001057600080fd5b506004361061009e5760003560e01c8063a217fddf11610066578063a217fddf1461016b578063d547741f14610189578063eb9c080c146101a5578063f2b62191146101c1578063ff63e55a146101df5761009e565b806301ffc9a7146100a3578063248a9ca3146100d35780632f2ff15d1461010357806336568abe1461011f57806391d148541461013b575b600080fd5b6100bd60048036038101906100b8919061107d565b6101fb565b6040516100ca91906112ba565b60405180910390f35b6100ed60048036038101906100e89190611018565b610275565b6040516100fa91906112d5565b60405180910390f35b61011d60048036038101906101189190611041565b610294565b005b61013960048036038101906101349190611041565b6102bd565b005b61015560048036038101906101509190611041565b610340565b60405161016291906112ba565b60405180910390f35b6101736103aa565b60405161018091906112d5565b60405180910390f35b6101a3600480360381019061019e9190611041565b6103b1565b005b6101bf60048036038101906101ba9190610fdc565b6103da565b005b6101c9610568565b6040516101d691906112d5565b60405180910390f35b6101f960048036038101906101f49190610fdc565b61058c565b005b60007f7965db0b000000000000000000000000000000000000000000000000000000007bffffffffffffffffffffffffffffffffffffffffffffffffffffffff1916827bffffffffffffffffffffffffffffffffffffffffffffffffffffffff1916148061026e575061026d8261071a565b5b9050919050565b6000806000838152602001908152602001600020600101549050919050565b61029d82610275565b6102ae816102a9610784565b61078c565b6102b88383610829565b505050565b6102c5610784565b73ffffffffffffffffffffffffffffffffffffffff168173ffffffffffffffffffffffffffffffffffffffff1614610332576040517f08c379a000000000000000000000000000000000000000000000000000000000815260040161032990611352565b60405180910390fd5b61033c8282610909565b5050565b600080600084815260200190815260200160002060000160008373ffffffffffffffffffffffffffffffffffffffff1673ffffffffffffffffffffffffffffffffffffffff16815260200190815260200160002060009054906101000a900460ff16905092915050565b6000801b81565b6103ba82610275565b6103cb816103c6610784565b61078c565b6103d58383610909565b505050565b60007f000000000000000000000000000000000000000000000000000000000000000073ffffffffffffffffffffffffffffffffffffffff166301d8b562846040518263ffffffff1660e01b81526004016104359190611276565b60006040518083038186803b15801561044d57600080fd5b505afa158015610461573d6000803e3d6000fd5b505050506040513d6000823e3d601f19601f8201168201806040525081019061048a91906110a6565b90507f49feb0371fc9661748a3d1bc01dbf9f5cdeb4102767351e1c6dd1f5d331acd6d8160000151146104f2576040517f08c379a00000000000000000000000000000000000000000000000000000000081526004016104e990611332565b60405180910390fd5b806080015173ffffffffffffffffffffffffffffffffffffffff1663c464fe6533846040518363ffffffff1660e01b8152600401610531929190611291565b600060405180830381600087803b15801561054b57600080fd5b505af115801561055f573d6000803e3d6000fd5b50505050505050565b7f49feb0371fc9661748a3d1bc01dbf9f5cdeb4102767351e1c6dd1f5d331acd6d81565b60007f000000000000000000000000000000000000000000000000000000000000000073ffffffffffffffffffffffffffffffffffffffff166301d8b562846040518263ffffffff1660e01b81526004016105e79190611276565b60006040518083038186803b1580156105ff57600080fd5b505afa158015610613573d6000803e3d6000fd5b505050506040513d6000823e3d601f19601f8201168201806040525081019061063c91906110a6565b90507f49feb0371fc9661748a3d1bc01dbf9f5cdeb4102767351e1c6dd1f5d331acd6d8160000151146106a4576040517f08c379a000000000000000000000000000000000000000000000000000000000815260040161069b90611332565b60405180910390fd5b806080015173ffffffffffffffffffffffffffffffffffffffff16630752881a33846040518363ffffffff1660e01b81526004016106e3929190611291565b600060405180830381600087803b1580156106fd57600080fd5b505af1158015610711573d6000803e3d6000fd5b50505050505050565b60007f01ffc9a7000000000000000000000000000000000000000000000000000000007bffffffffffffffffffffffffffffffffffffffffffffffffffffffff1916827bffffffffffffffffffffffffffffffffffffffffffffffffffffffff1916149050919050565b600033905090565b6107968282610340565b610825576107bb8173ffffffffffffffffffffffffffffffffffffffff1660146109ea565b6107c98360001c60206109ea565b6040516020016107da92919061123c565b6040516020818303038152906040526040517f08c379a000000000000000000000000000000000000000000000000000000000815260040161081c91906112f0565b60405180910390fd5b5050565b6108338282610340565b61090557600160008084815260200190815260200160002060000160008373ffffffffffffffffffffffffffffffffffffffff1673ffffffffffffffffffffffffffffffffffffffff16815260200190815260200160002060006101000a81548160ff0219169083151502179055506108aa610784565b73ffffffffffffffffffffffffffffffffffffffff168173ffffffffffffffffffffffffffffffffffffffff16837f2f8788117e7eff1d82e926ec794901d17c78024a50270940304540a733656f0d60405160405180910390a45b5050565b6109138282610340565b156109e657600080600084815260200190815260200160002060000160008373ffffffffffffffffffffffffffffffffffffffff1673ffffffffffffffffffffffffffffffffffffffff16815260200190815260200160002060006101000a81548160ff02191690831515021790555061098b610784565b73ffffffffffffffffffffffffffffffffffffffff168173ffffffffffffffffffffffffffffffffffffffff16837ff6391f5c32d9c69d2a47ea670b442974b53935d1edc7fd64eb21e047a839171b60405160405180910390a45b5050565b6060600060028360026109fd9190611440565b610a0791906113ea565b67ffffffffffffffff811115610a46577f4e487b7100000000000000000000000000000000000000000000000000000000600052604160045260246000fd5b6040519080825280601f01601f191660200182016040528015610a785781602001600182028036833780820191505090505b5090507f300000000000000000000000000000000000000000000000000000000000000081600081518110610ad6577f4e487b7100000000000000000000000000000000000000000000000000000000600052603260045260246000fd5b60200101907effffffffffffffffffffffffffffffffffffffffffffffffffffffffffffff1916908160001a9053507f780000000000000000000000000000000000000000000000000000000000000081600181518110610b60577f4e487b7100000000000000000000000000000000000000000000000000000000600052603260045260246000fd5b60200101907effffffffffffffffffffffffffffffffffffffffffffffffffffffffffffff1916908160001a90535060006001846002610ba09190611440565b610baa91906113ea565b90505b6001811115610c96577f3031323334353637383961626364656600000000000000000000000000000000600f861660108110610c12577f4e487b7100000000000000000000000000000000000000000000000000000000600052603260045260246000fd5b1a60f81b828281518110610c4f577f4e487b7100000000000000000000000000000000000000000000000000000000600052603260045260246000fd5b60200101907effffffffffffffffffffffffffffffffffffffffffffffffffffffffffffff1916908160001a905350600485901c945080610c8f90611589565b9050610bad565b5060008414610cda576040517f08c379a0000000000000000000000000000000000000000000000000000000008152600401610cd190611312565b60405180910390fd5b8091505092915050565b6000610cf7610cf284611397565b611372565b90508083825260208201905082856020860282011115610d1657600080fd5b60005b85811015610d465781610d2c8882610fb2565b845260208401935060208301925050600181019050610d19565b5050509392505050565b600081359050610d5f81611746565b92915050565b600081519050610d7481611746565b92915050565b600082601f830112610d8b57600080fd5b8151610d9b848260208601610ce4565b91505092915050565b600081519050610db38161175d565b92915050565b600081359050610dc881611774565b92915050565b600081519050610ddd81611774565b92915050565b600081359050610df28161178b565b92915050565b60006101a08284031215610e0b57600080fd5b610e1560c0611372565b90506000610e2584828501610dce565b6000830152506020610e3984828501610f73565b6020830152506040610e4d84828501610fb2565b604083015250606082015167ffffffffffffffff811115610e6d57600080fd5b610e7984828501610d7a565b6060830152506080610e8d84828501610d65565b60808301525060a0610ea184828501610ead565b60a08301525092915050565b60006101008284031215610ec057600080fd5b610ecb610100611372565b90506000610edb84828501610d65565b6000830152506020610eef84828501610d65565b6020830152506040610f0384828501610fc7565b6040830152506060610f1784828501610da4565b6060830152506080610f2b84828501610f88565b60808301525060a0610f3f84828501610d65565b60a08301525060c0610f5384828501610fc7565b60c08301525060e0610f6784828501610fb2565b60e08301525092915050565b600081519050610f82816117a2565b92915050565b600081519050610f97816117b9565b92915050565b600081359050610fac816117d0565b92915050565b600081519050610fc1816117d0565b92915050565b600081519050610fd6816117e7565b92915050565b60008060408385031215610fef57600080fd5b6000610ffd85828601610d50565b925050602061100e85828601610f9d565b9150509250929050565b60006020828403121561102a57600080fd5b600061103884828501610db9565b91505092915050565b6000806040838503121561105457600080fd5b600061106285828601610db9565b925050602061107385828601610d50565b9150509250929050565b60006020828403121561108f57600080fd5b600061109d84828501610de3565b91505092915050565b6000602082840312156110b857600080fd5b600082015167ffffffffffffffff8111156110d257600080fd5b6110de84828501610df8565b91505092915050565b6110f08161149a565b82525050565b6110ff816114ac565b82525050565b61110e816114b8565b82525050565b600061111f826113c3565b61112981856113ce565b9350611139818560208601611556565b61114281611642565b840191505092915050565b6000611158826113c3565b61116281856113df565b9350611172818560208601611556565b80840191505092915050565b600061118b6020836113ce565b915061119682611653565b602082019050919050565b60006111ae601f836113ce565b91506111b98261167c565b602082019050919050565b60006111d16017836113df565b91506111dc826116a5565b601782019050919050565b60006111f46011836113df565b91506111ff826116ce565b601182019050919050565b6000611217602f836113ce565b9150611222826116f7565b604082019050919050565b61123681611538565b82525050565b6000611247826111c4565b9150611253828561114d565b915061125e826111e7565b915061126a828461114d565b91508190509392505050565b600060208201905061128b60008301846110e7565b92915050565b60006040820190506112a660008301856110e7565b6112b3602083018461122d565b9392505050565b60006020820190506112cf60008301846110f6565b92915050565b60006020820190506112ea6000830184611105565b92915050565b6000602082019050818103600083015261130a8184611114565b905092915050565b6000602082019050818103600083015261132b8161117e565b9050919050565b6000602082019050818103600083015261134b816111a1565b9050919050565b6000602082019050818103600083015261136b8161120a565b9050919050565b600061137c61138d565b905061138882826115b3565b919050565b6000604051905090565b600067ffffffffffffffff8211156113b2576113b1611613565b5b602082029050602081019050919050565b600081519050919050565b600082825260208201905092915050565b600081905092915050565b60006113f582611538565b915061140083611538565b9250827fffffffffffffffffffffffffffffffffffffffffffffffffffffffffffffffff03821115611435576114346115e4565b5b828201905092915050565b600061144b82611538565b915061145683611538565b9250817fffffffffffffffffffffffffffffffffffffffffffffffffffffffffffffffff048311821515161561148f5761148e6115e4565b5b828202905092915050565b60006114a582611518565b9050919050565b60008115159050919050565b6000819050919050565b60007fffffffff0000000000000000000000000000000000000000000000000000000082169050919050565b60006fffffffffffffffffffffffffffffffff82169050919050565b600061ffff82169050919050565b600073ffffffffffffffffffffffffffffffffffffffff82169050919050565b6000819050919050565b600067ffffffffffffffff82169050919050565b60005b83811015611574578082015181840152602081019050611559565b83811115611583576000848401525b50505050565b600061159482611538565b915060008214156115a8576115a76115e4565b5b600182039050919050565b6115bc82611642565b810181811067ffffffffffffffff821117156115db576115da611613565b5b80604052505050565b7f4e487b7100000000000000000000000000000000000000000000000000000000600052601160045260246000fd5b7f4e487b7100000000000000000000000000000000000000000000000000000000600052604160045260246000fd5b6000601f19601f8301169050919050565b7f537472696e67733a20686578206c656e67746820696e73756666696369656e74600082015250565b7f496e76616c696420706f6420737461746520286e6f742074726164696e672900600082015250565b7f416363657373436f6e74726f6c3a206163636f756e7420000000000000000000600082015250565b7f206973206d697373696e6720726f6c6520000000000000000000000000000000600082015250565b7f416363657373436f6e74726f6c3a2063616e206f6e6c792072656e6f756e636560008201527f20726f6c657320666f722073656c660000000000000000000000000000000000602082015250565b61174f8161149a565b811461175a57600080fd5b50565b611766816114ac565b811461177157600080fd5b50565b61177d816114b8565b811461178857600080fd5b50565b611794816114c2565b811461179f57600080fd5b50565b6117ab816114ee565b81146117b657600080fd5b50565b6117c28161150a565b81146117cd57600080fd5b50565b6117d981611538565b81146117e457600080fd5b50565b6117f081611542565b81146117fb57600080fd5b5056fea2646970667358221220152267d517010ef610e199e87c43b7bcbfa835679a9129554921ac90f395d28b64736f6c63430008010033",
  "immutableReferences": {
    "1584": [
      {
        "length": 32,
        "start": 990
      },
      {
        "length": 32,
        "start": 1424
      }
    ]
  },
  "source": "// SPDX-License-Identifier: MIT\npragma solidity ^0.8.0;\n\nimport \"@openzeppelin/contracts/access/AccessControl.sol\";\nimport \"./interfaces/IPriviAMM.sol\";\nimport \"./PodManager.sol\";\nimport \"./Structs.sol\";\n\n/**\n * @title manager for pod amms\n * @author Eric Nordelo\n * @notice manages the buying and selling of the pod amm tokens\n */\ncontract PodAMMManager is AccessControl {\n    bytes32 public constant TRADING_STATE = keccak256(\"TRADING\");\n\n    address private immutable podManagerContractAddress;\n\n    constructor(address _podManagerContractAddress) {\n        _setupRole(DEFAULT_ADMIN_ROLE, msg.sender);\n        podManagerContractAddress = _podManagerContractAddress;\n    }\n\n    /**\n     * @notice buy amm tokens\n     * @param _podAddress the address of the pod\n     * @param _amount the amount of pod tokens to buy\n     */\n    function buyPodTokens(address _podAddress, uint256 _amount) external {\n        PodInfo memory podInfo = PodManager(podManagerContractAddress).getPodInfo(_podAddress);\n        require(podInfo.status == TRADING_STATE, \"Invalid pod state (not trading)\");\n        IPriviAMM(podInfo.ammAddress).buyTokens(msg.sender, _amount);\n    }\n\n    /**\n     * @notice sell amm tokens\n     * @param _podAddress the address of the pod\n     * @param _amount the amount of pod tokens to sell\n     */\n    function sellPodTokens(address _podAddress, uint256 _amount) external {\n        PodInfo memory podInfo = PodManager(podManagerContractAddress).getPodInfo(_podAddress);\n        require(podInfo.status == TRADING_STATE, \"Invalid pod state (not trading)\");\n        IPriviAMM(podInfo.ammAddress).sellTokens(msg.sender, _amount);\n    }\n}\n",
  "sourcePath": "/home/ericng/Documents/PRIVI/Privi-Polygon/privi-media-pod/contracts/PodAMMManager.sol",
  "compiler": {
    "name": "solc",
    "version": "0.8.1+commit.df193b15.Emscripten.clang"
  },
  "schemaVersion": "3.4.2",
  "updatedAt": "2021-08-16T18:09:29.604Z",
  "networkType": "ethereum",
  "devdoc": {
    "author": "Eric Nordelo",
    "kind": "dev",
    "methods": {
      "buyPodTokens(address,uint256)": {
        "params": {
          "_amount": "the amount of pod tokens to buy",
          "_podAddress": "the address of the pod"
        }
      },
      "getRoleAdmin(bytes32)": {
        "details": "Returns the admin role that controls `role`. See {grantRole} and {revokeRole}. To change a role's admin, use {_setRoleAdmin}."
      },
      "grantRole(bytes32,address)": {
        "details": "Grants `role` to `account`. If `account` had not been already granted `role`, emits a {RoleGranted} event. Requirements: - the caller must have ``role``'s admin role."
      },
      "hasRole(bytes32,address)": {
        "details": "Returns `true` if `account` has been granted `role`."
      },
      "renounceRole(bytes32,address)": {
        "details": "Revokes `role` from the calling account. Roles are often managed via {grantRole} and {revokeRole}: this function's purpose is to provide a mechanism for accounts to lose their privileges if they are compromised (such as when a trusted device is misplaced). If the calling account had been granted `role`, emits a {RoleRevoked} event. Requirements: - the caller must be `account`."
      },
      "revokeRole(bytes32,address)": {
        "details": "Revokes `role` from `account`. If `account` had been granted `role`, emits a {RoleRevoked} event. Requirements: - the caller must have ``role``'s admin role."
      },
      "sellPodTokens(address,uint256)": {
        "params": {
          "_amount": "the amount of pod tokens to sell",
          "_podAddress": "the address of the pod"
        }
      },
      "supportsInterface(bytes4)": {
        "details": "See {IERC165-supportsInterface}."
      }
    },
    "title": "manager for pod amms",
    "version": 1
  },
  "userdoc": {
    "kind": "user",
    "methods": {
      "buyPodTokens(address,uint256)": {
        "notice": "buy amm tokens"
      },
      "sellPodTokens(address,uint256)": {
        "notice": "sell amm tokens"
      }
    },
    "notice": "manages the buying and selling of the pod amm tokens",
    "version": 1
  }
}