{
  "contractName": "PodManager",
  "abi": [
    {
      "inputs": [
        {
          "internalType": "address",
          "name": "_podWithdrawManagerAddress",
          "type": "address"
        },
        {
          "internalType": "address",
          "name": "_governanceAddress",
          "type": "address"
        },
        {
          "internalType": "address",
          "name": "_creationManager",
          "type": "address"
        }
      ],
      "stateMutability": "nonpayable",
      "type": "constructor"
    },
    {
      "anonymous": false,
      "inputs": [
        {
          "indexed": true,
          "internalType": "address",
          "name": "podAddress",
          "type": "address"
        }
      ],
      "name": "CreatePod",
      "type": "event"
    },
    {
      "anonymous": false,
      "inputs": [
        {
          "indexed": true,
          "internalType": "address",
          "name": "podAddress",
          "type": "address"
        }
      ],
      "name": "DisposePod",
      "type": "event"
    },
    {
      "anonymous": false,
      "inputs": [
        {
          "indexed": true,
          "internalType": "address",
          "name": "investor",
          "type": "address"
        },
        {
          "indexed": true,
          "internalType": "address",
          "name": "podAddress",
          "type": "address"
        },
        {
          "indexed": false,
          "internalType": "uint256",
          "name": "amount",
          "type": "uint256"
        }
      ],
      "name": "InvestPod",
      "type": "event"
    },
    {
      "anonymous": false,
      "inputs": [
        {
          "indexed": false,
          "internalType": "address",
          "name": "account",
          "type": "address"
        }
      ],
      "name": "Paused",
      "type": "event"
    },
    {
      "anonymous": false,
      "inputs": [
        {
          "indexed": false,
          "internalType": "uint256",
          "name": "id",
          "type": "uint256"
        }
      ],
      "name": "PodProposalCreated",
      "type": "event"
    },
    {
      "anonymous": false,
      "inputs": [
        {
          "indexed": false,
          "internalType": "uint256",
          "name": "id",
          "type": "uint256"
        },
        {
          "indexed": false,
          "internalType": "address",
          "name": "voter",
          "type": "address"
        }
      ],
      "name": "ProposalVoted",
      "type": "event"
    },
    {
      "anonymous": false,
      "inputs": [
        {
          "indexed": true,
          "internalType": "bytes32",
          "name": "role",
          "type": "bytes32"
        },
        {
          "indexed": true,
          "internalType": "bytes32",
          "name": "previousAdminRole",
          "type": "bytes32"
        },
        {
          "indexed": true,
          "internalType": "bytes32",
          "name": "newAdminRole",
          "type": "bytes32"
        }
      ],
      "name": "RoleAdminChanged",
      "type": "event"
    },
    {
      "anonymous": false,
      "inputs": [
        {
          "indexed": true,
          "internalType": "bytes32",
          "name": "role",
          "type": "bytes32"
        },
        {
          "indexed": true,
          "internalType": "address",
          "name": "account",
          "type": "address"
        },
        {
          "indexed": true,
          "internalType": "address",
          "name": "sender",
          "type": "address"
        }
      ],
      "name": "RoleGranted",
      "type": "event"
    },
    {
      "anonymous": false,
      "inputs": [
        {
          "indexed": true,
          "internalType": "bytes32",
          "name": "role",
          "type": "bytes32"
        },
        {
          "indexed": true,
          "internalType": "address",
          "name": "account",
          "type": "address"
        },
        {
          "indexed": true,
          "internalType": "address",
          "name": "sender",
          "type": "address"
        }
      ],
      "name": "RoleRevoked",
      "type": "event"
    },
    {
      "anonymous": false,
      "inputs": [
        {
          "indexed": false,
          "internalType": "address",
          "name": "account",
          "type": "address"
        }
      ],
      "name": "Unpaused",
      "type": "event"
    },
    {
      "anonymous": false,
      "inputs": [
        {
          "indexed": true,
          "internalType": "address",
          "name": "podAddress",
          "type": "address"
        },
        {
          "indexed": false,
          "internalType": "uint256",
          "name": "nftId",
          "type": "uint256"
        },
        {
          "indexed": false,
          "internalType": "uint256",
          "name": "_mediaId",
          "type": "uint256"
        }
      ],
      "name": "UploadMedia",
      "type": "event"
    },
    {
      "inputs": [],
      "name": "ADMIN",
      "outputs": [
        {
          "internalType": "bytes32",
          "name": "",
          "type": "bytes32"
        }
      ],
      "stateMutability": "view",
      "type": "function"
    },
    {
      "inputs": [],
      "name": "DEFAULT_ADMIN_ROLE",
      "outputs": [
        {
          "internalType": "bytes32",
          "name": "",
          "type": "bytes32"
        }
      ],
      "stateMutability": "view",
      "type": "function"
    },
    {
      "inputs": [],
      "name": "DISPOSED_STATE",
      "outputs": [
        {
          "internalType": "bytes32",
          "name": "",
          "type": "bytes32"
        }
      ],
      "stateMutability": "view",
      "type": "function"
    },
    {
      "inputs": [],
      "name": "FUNDED_STATE",
      "outputs": [
        {
          "internalType": "bytes32",
          "name": "",
          "type": "bytes32"
        }
      ],
      "stateMutability": "view",
      "type": "function"
    },
    {
      "inputs": [],
      "name": "FUNDING_STATE",
      "outputs": [
        {
          "internalType": "bytes32",
          "name": "",
          "type": "bytes32"
        }
      ],
      "stateMutability": "view",
      "type": "function"
    },
    {
      "inputs": [],
      "name": "PRECISION",
      "outputs": [
        {
          "internalType": "uint256",
          "name": "",
          "type": "uint256"
        }
      ],
      "stateMutability": "view",
      "type": "function"
    },
    {
      "inputs": [
        {
          "internalType": "bytes32",
          "name": "role",
          "type": "bytes32"
        }
      ],
      "name": "getRoleAdmin",
      "outputs": [
        {
          "internalType": "bytes32",
          "name": "",
          "type": "bytes32"
        }
      ],
      "stateMutability": "view",
      "type": "function"
    },
    {
      "inputs": [
        {
          "internalType": "bytes32",
          "name": "role",
          "type": "bytes32"
        },
        {
          "internalType": "address",
          "name": "account",
          "type": "address"
        }
      ],
      "name": "grantRole",
      "outputs": [],
      "stateMutability": "nonpayable",
      "type": "function"
    },
    {
      "inputs": [
        {
          "internalType": "bytes32",
          "name": "role",
          "type": "bytes32"
        },
        {
          "internalType": "address",
          "name": "account",
          "type": "address"
        }
      ],
      "name": "hasRole",
      "outputs": [
        {
          "internalType": "bool",
          "name": "",
          "type": "bool"
        }
      ],
      "stateMutability": "view",
      "type": "function"
    },
    {
      "inputs": [],
      "name": "paused",
      "outputs": [
        {
          "internalType": "bool",
          "name": "",
          "type": "bool"
        }
      ],
      "stateMutability": "view",
      "type": "function"
    },
    {
      "inputs": [
        {
          "internalType": "uint256",
          "name": "",
          "type": "uint256"
        }
      ],
      "name": "podProposals",
      "outputs": [
        {
          "components": [
            {
              "internalType": "address[]",
              "name": "owners",
              "type": "address[]"
            },
            {
              "internalType": "address",
              "name": "podAddress",
              "type": "address"
            },
            {
              "internalType": "uint64",
              "name": "fundingDate",
              "type": "uint64"
            },
            {
              "internalType": "uint16",
              "name": "spread",
              "type": "uint16"
            },
            {
              "internalType": "address",
              "name": "fundingToken",
              "type": "address"
            },
            {
              "internalType": "uint64",
              "name": "fundingTokenPrice",
              "type": "uint64"
            },
            {
              "internalType": "uint256",
              "name": "fundingTarget",
              "type": "uint256"
            }
          ],
          "internalType": "struct Pod",
          "name": "pod",
          "type": "tuple"
        },
        {
          "internalType": "uint256",
          "name": "start",
          "type": "uint256"
        },
        {
          "internalType": "uint256",
          "name": "votes",
          "type": "uint256"
        },
        {
          "internalType": "uint256",
          "name": "royaltyPercentage",
          "type": "uint256"
        },
        {
          "components": [
            {
              "internalType": "string",
              "name": "podTokenName",
              "type": "string"
            },
            {
              "internalType": "string",
              "name": "podTokenSymbol",
              "type": "string"
            }
          ],
          "internalType": "struct PodDescription",
          "name": "podDescription",
          "type": "tuple"
        },
        {
          "internalType": "uint256",
          "name": "copyrightTokenSupply",
          "type": "uint256"
        }
      ],
      "stateMutability": "view",
      "type": "function"
    },
    {
      "inputs": [
        {
          "internalType": "bytes32",
          "name": "role",
          "type": "bytes32"
        },
        {
          "internalType": "address",
          "name": "account",
          "type": "address"
        }
      ],
      "name": "renounceRole",
      "outputs": [],
      "stateMutability": "nonpayable",
      "type": "function"
    },
    {
      "inputs": [
        {
          "internalType": "bytes32",
          "name": "role",
          "type": "bytes32"
        },
        {
          "internalType": "address",
          "name": "account",
          "type": "address"
        }
      ],
      "name": "revokeRole",
      "outputs": [],
      "stateMutability": "nonpayable",
      "type": "function"
    },
    {
      "inputs": [
        {
          "internalType": "bytes4",
          "name": "interfaceId",
          "type": "bytes4"
        }
      ],
      "name": "supportsInterface",
      "outputs": [
        {
          "internalType": "bool",
          "name": "",
          "type": "bool"
        }
      ],
      "stateMutability": "view",
      "type": "function"
    },
    {
      "inputs": [],
      "name": "pause",
      "outputs": [],
      "stateMutability": "nonpayable",
      "type": "function"
    },
    {
      "inputs": [
        {
          "components": [
            {
              "internalType": "address[]",
              "name": "owners",
              "type": "address[]"
            },
            {
              "internalType": "address",
              "name": "podAddress",
              "type": "address"
            },
            {
              "internalType": "uint64",
              "name": "fundingDate",
              "type": "uint64"
            },
            {
              "internalType": "uint16",
              "name": "spread",
              "type": "uint16"
            },
            {
              "internalType": "address",
              "name": "fundingToken",
              "type": "address"
            },
            {
              "internalType": "uint64",
              "name": "fundingTokenPrice",
              "type": "uint64"
            },
            {
              "internalType": "uint256",
              "name": "fundingTarget",
              "type": "uint256"
            }
          ],
          "internalType": "struct Pod",
          "name": "_pod",
          "type": "tuple"
        },
        {
          "internalType": "uint256[]",
          "name": "_mediaIds",
          "type": "uint256[]"
        },
        {
          "internalType": "uint256",
          "name": "_royaltyPercentage",
          "type": "uint256"
        },
        {
          "components": [
            {
              "internalType": "string",
              "name": "podTokenName",
              "type": "string"
            },
            {
              "internalType": "string",
              "name": "podTokenSymbol",
              "type": "string"
            }
          ],
          "internalType": "struct PodDescription",
          "name": "_podDescription",
          "type": "tuple"
        },
        {
          "internalType": "uint256",
          "name": "_copyrightTokenSupply",
          "type": "uint256"
        },
        {
          "internalType": "uint256[]",
          "name": "_copyrightAllocation",
          "type": "uint256[]"
        }
      ],
      "name": "registerPodProposal",
      "outputs": [],
      "stateMutability": "nonpayable",
      "type": "function"
    },
    {
      "inputs": [
        {
          "internalType": "uint256",
          "name": "id",
          "type": "uint256"
        }
      ],
      "name": "voteForPodProposal",
      "outputs": [],
      "stateMutability": "nonpayable",
      "type": "function"
    },
    {
      "inputs": [
        {
          "internalType": "uint256",
          "name": "id",
          "type": "uint256"
        }
      ],
      "name": "executePodProposal",
      "outputs": [],
      "stateMutability": "nonpayable",
      "type": "function"
    },
    {
      "inputs": [
        {
          "internalType": "address",
          "name": "_podAddress",
          "type": "address"
        },
        {
          "internalType": "uint256",
          "name": "_amount",
          "type": "uint256"
        }
      ],
      "name": "investPod",
      "outputs": [],
      "stateMutability": "nonpayable",
      "type": "function"
    },
    {
      "inputs": [
        {
          "internalType": "address",
          "name": "_podAddress",
          "type": "address"
        }
      ],
      "name": "claimPodTokens",
      "outputs": [],
      "stateMutability": "nonpayable",
      "type": "function"
    },
    {
      "inputs": [
        {
          "internalType": "address",
          "name": "_podAddress",
          "type": "address"
        },
        {
          "internalType": "uint256",
          "name": "amount",
          "type": "uint256"
        }
      ],
      "name": "stakePodTokens",
      "outputs": [],
      "stateMutability": "nonpayable",
      "type": "function"
    },
    {
      "inputs": [
        {
          "internalType": "address",
          "name": "_podAddress",
          "type": "address"
        },
        {
          "internalType": "uint256",
          "name": "_mediaId",
          "type": "uint256"
        }
      ],
      "name": "uploadMedia",
      "outputs": [],
      "stateMutability": "nonpayable",
      "type": "function"
    },
    {
      "inputs": [
        {
          "internalType": "address",
          "name": "_podAddress",
          "type": "address"
        }
      ],
      "name": "disposePod",
      "outputs": [],
      "stateMutability": "nonpayable",
      "type": "function"
    },
    {
      "inputs": [
        {
          "internalType": "address",
          "name": "_podAddress",
          "type": "address"
        }
      ],
      "name": "getPodInfo",
      "outputs": [
        {
          "components": [
            {
              "internalType": "bytes32",
              "name": "status",
              "type": "bytes32"
            },
            {
              "internalType": "uint256",
              "name": "raisedFunds",
              "type": "uint256"
            },
            {
              "internalType": "uint256[]",
              "name": "mediaIds",
              "type": "uint256[]"
            },
            {
              "internalType": "uint256[]",
              "name": "registeredMediaIds",
              "type": "uint256[]"
            },
            {
              "internalType": "address",
              "name": "nftContract",
              "type": "address"
            },
            {
              "components": [
                {
                  "internalType": "address[]",
                  "name": "owners",
                  "type": "address[]"
                },
                {
                  "internalType": "address",
                  "name": "podAddress",
                  "type": "address"
                },
                {
                  "internalType": "uint64",
                  "name": "fundingDate",
                  "type": "uint64"
                },
                {
                  "internalType": "uint16",
                  "name": "spread",
                  "type": "uint16"
                },
                {
                  "internalType": "address",
                  "name": "fundingToken",
                  "type": "address"
                },
                {
                  "internalType": "uint64",
                  "name": "fundingTokenPrice",
                  "type": "uint64"
                },
                {
                  "internalType": "uint256",
                  "name": "fundingTarget",
                  "type": "uint256"
                }
              ],
              "internalType": "struct Pod",
              "name": "pod",
              "type": "tuple"
            },
            {
              "internalType": "address",
              "name": "copyrightToken",
              "type": "address"
            },
            {
              "internalType": "uint256",
              "name": "copyrightSupplyInvestors",
              "type": "uint256"
            }
          ],
          "internalType": "struct PodInfo",
          "name": "podInfo",
          "type": "tuple"
        }
      ],
      "stateMutability": "view",
      "type": "function"
    },
    {
      "inputs": [
        {
          "internalType": "address",
          "name": "podAddress",
          "type": "address"
        },
        {
          "internalType": "address",
          "name": "account",
          "type": "address"
        }
      ],
      "name": "isOwner",
      "outputs": [
        {
          "internalType": "bool",
          "name": "",
          "type": "bool"
        }
      ],
      "stateMutability": "view",
      "type": "function"
    },
    {
      "inputs": [
        {
          "internalType": "address",
          "name": "podAddress",
          "type": "address"
        },
        {
          "internalType": "uint256",
          "name": "mediaId",
          "type": "uint256"
        }
      ],
      "name": "isUploadedMedia",
      "outputs": [
        {
          "internalType": "bool",
          "name": "",
          "type": "bool"
        }
      ],
      "stateMutability": "view",
      "type": "function"
    }
  ],
  "bytecode": "0x60e060405260006006553480156200001657600080fd5b50604051620062cd380380620062cd83398181016040528101906200003c9190620002e4565b6000600160006101000a81548160ff0219169083151502179055506001600281905550620000746000801b336200015460201b60201c565b620000a67fdf8b4c520ffe197c5343c6f5aec59570151ef9a492f2c624fd45ddde6135ec42336200015460201b60201c565b8273ffffffffffffffffffffffffffffffffffffffff1660808173ffffffffffffffffffffffffffffffffffffffff1660601b815250508173ffffffffffffffffffffffffffffffffffffffff1660a08173ffffffffffffffffffffffffffffffffffffffff1660601b815250508073ffffffffffffffffffffffffffffffffffffffff1660c08173ffffffffffffffffffffffffffffffffffffffff1660601b8152505050505062000393565b6200016682826200016a60201b60201c565b5050565b6200017c82826200025b60201b60201c565b6200025757600160008084815260200190815260200160002060000160008373ffffffffffffffffffffffffffffffffffffffff1673ffffffffffffffffffffffffffffffffffffffff16815260200190815260200160002060006101000a81548160ff021916908315150217905550620001fc620002c560201b60201c565b73ffffffffffffffffffffffffffffffffffffffff168173ffffffffffffffffffffffffffffffffffffffff16837f2f8788117e7eff1d82e926ec794901d17c78024a50270940304540a733656f0d60405160405180910390a45b5050565b600080600084815260200190815260200160002060000160008373ffffffffffffffffffffffffffffffffffffffff1673ffffffffffffffffffffffffffffffffffffffff16815260200190815260200160002060009054906101000a900460ff16905092915050565b600033905090565b600081519050620002de8162000379565b92915050565b6000806000606084860312156200030057620002ff62000374565b5b60006200031086828701620002cd565b93505060206200032386828701620002cd565b92505060406200033686828701620002cd565b9150509250925092565b60006200034d8262000354565b9050919050565b600073ffffffffffffffffffffffffffffffffffffffff82169050919050565b600080fd5b620003848162000340565b81146200039057600080fd5b50565b60805160601c60a05160601c60c05160601c615ef3620003da600039600081816115860152818161167f015261179001526000612f2901526000611bc30152615ef36000f3fe608060405234801561001057600080fd5b506004361061018e5760003560e01c80637ddc02d4116100de578063affb3eb511610097578063c356d37c11610071578063c356d37c14610486578063ca7d793b146104a4578063cd15abd0146104c0578063d547741f146104dc5761018e565b8063affb3eb51461041e578063b8dbc1b61461043a578063b9e067ba1461046a5761018e565b80637ddc02d41461035c5780638456cb591461038c57806391d148541461039657806399d3d801146103c6578063a217fddf146103e2578063aaf5eb68146104005761018e565b80632f2ff15d1161014b5780634248d4db116101255780634248d4db146102d15780634b4fdc5f146102ed5780635c975abb146103225780637b409fb9146103405761018e565b80632f2ff15d1461027d5780632ff6c7291461029957806336568abe146102b55761018e565b806301d8b5621461019357806301ffc9a7146101c35780630827f77d146101f35780631010a08b14610211578063248a9ca31461022f5780632a0acc6a1461025f575b600080fd5b6101ad60048036038101906101a89190614082565b6104f8565b6040516101ba91906152cd565b60405180910390f35b6101dd60048036038101906101d891906141f6565b610930565b6040516101ea9190614db2565b60405180910390f35b6101fb6109aa565b6040516102089190614dcd565b60405180910390f35b6102196109ce565b6040516102269190614dcd565b60405180910390f35b61024960048036038101906102449190614189565b6109f2565b6040516102569190614dcd565b60405180910390f35b610267610a11565b6040516102749190614dcd565b60405180910390f35b610297600480360381019061029291906141b6565b610a35565b005b6102b360048036038101906102ae9190614223565b610a5e565b005b6102cf60048036038101906102ca91906141b6565b610ff1565b005b6102eb60048036038101906102e6919061432a565b611074565b005b6103076004803603810190610302919061432a565b611c9d565b604051610319969594939291906152ef565b60405180910390f35b61032a611fd9565b6040516103379190614db2565b60405180910390f35b61035a60048036038101906103559190614082565b611ff0565b005b610376600480360381019061037191906140dc565b612117565b6040516103839190614db2565b60405180910390f35b61039461224e565b005b6103b060048036038101906103ab91906141b6565b61228b565b6040516103bd9190614db2565b60405180910390f35b6103e060048036038101906103db919061411c565b6122f5565b005b6103ea612759565b6040516103f79190614dcd565b60405180910390f35b610408612760565b604051610415919061535e565b60405180910390f35b6104386004803603810190610433919061411c565b612766565b005b610454600480360381019061044f919061411c565b612a7b565b6040516104619190614db2565b60405180910390f35b610484600480360381019061047f9190614082565b612b60565b005b61048e612ebb565b60405161049b9190614dcd565b60405180910390f35b6104be60048036038101906104b9919061432a565b612edf565b005b6104da60048036038101906104d5919061411c565b6132a5565b005b6104f660048036038101906104f191906141b6565b61349e565b005b610500613a75565b6000600360008473ffffffffffffffffffffffffffffffffffffffff1673ffffffffffffffffffffffffffffffffffffffff1681526020019081526020016000206002018054905011610588576040517f08c379a000000000000000000000000000000000000000000000000000000000815260040161057f9061506d565b60405180910390fd5b600360008373ffffffffffffffffffffffffffffffffffffffff1673ffffffffffffffffffffffffffffffffffffffff1681526020019081526020016000206040518061010001604052908160008201548152602001600182015481526020016002820180548060200260200160405190810160405280929190818152602001828054801561063657602002820191906000526020600020905b815481526020019060010190808311610622575b505050505081526020016003820180548060200260200160405190810160405280929190818152602001828054801561068e57602002820191906000526020600020905b81548152602001906001019080831161067a575b505050505081526020016004820160009054906101000a900473ffffffffffffffffffffffffffffffffffffffff1673ffffffffffffffffffffffffffffffffffffffff1673ffffffffffffffffffffffffffffffffffffffff168152602001600582016040518060e00160405290816000820180548060200260200160405190810160405280929190818152602001828054801561078257602002820191906000526020600020905b8160009054906101000a900473ffffffffffffffffffffffffffffffffffffffff1673ffffffffffffffffffffffffffffffffffffffff1681526020019060010190808311610738575b505050505081526020016001820160009054906101000a900473ffffffffffffffffffffffffffffffffffffffff1673ffffffffffffffffffffffffffffffffffffffff1673ffffffffffffffffffffffffffffffffffffffff1681526020016001820160149054906101000a900467ffffffffffffffff1667ffffffffffffffff1667ffffffffffffffff16815260200160018201601c9054906101000a900461ffff1661ffff1661ffff1681526020016002820160009054906101000a900473ffffffffffffffffffffffffffffffffffffffff1673ffffffffffffffffffffffffffffffffffffffff1673ffffffffffffffffffffffffffffffffffffffff1681526020016002820160149054906101000a900467ffffffffffffffff1667ffffffffffffffff1667ffffffffffffffff16815260200160038201548152505081526020016009820160009054906101000a900473ffffffffffffffffffffffffffffffffffffffff1673ffffffffffffffffffffffffffffffffffffffff1673ffffffffffffffffffffffffffffffffffffffff168152602001600a820154815250509050919050565b60007f7965db0b000000000000000000000000000000000000000000000000000000007bffffffffffffffffffffffffffffffffffffffffffffffffffffffff1916827bffffffffffffffffffffffffffffffffffffffffffffffffffffffff191614806109a357506109a2826134c7565b5b9050919050565b7f1b051eabb191097272b9187f0c5c3152a0c5088405d4a327a4e5e5242f29cfca81565b7f2097e2e0f370945c0a82a75d599dd83e8cd76a11910f1819fdadc112dd2e811581565b6000806000838152602001908152602001600020600101549050919050565b7fdf8b4c520ffe197c5343c6f5aec59570151ef9a492f2c624fd45ddde6135ec4281565b610a3e826109f2565b610a4f81610a4a613531565b613539565b610a5983836135d6565b505050565b610a66611fd9565b15610aa6576040517f08c379a0000000000000000000000000000000000000000000000000000000008152600401610a9d906150ed565b60405180910390fd5b6000886060015161ffff16118015610ac75750612710886060015161ffff16105b610b06576040517f08c379a0000000000000000000000000000000000000000000000000000000008152600401610afd9061524d565b60405180910390fd5b60008860a0015167ffffffffffffffff1611610b57576040517f08c379a0000000000000000000000000000000000000000000000000000000008152600401610b4e9061508d565b60405180910390fd5b600088600001515111610b9f576040517f08c379a0000000000000000000000000000000000000000000000000000000008152600401610b9690614fad565b60405180910390fd5b60008787905011610be5576040517f08c379a0000000000000000000000000000000000000000000000000000000008152600401610bdc90614fcd565b60405180910390fd5b6001886000015151610bf79190615519565b8282905014610c3b576040517f08c379a0000000000000000000000000000000000000000000000000000000008152600401610c329061514d565b60405180910390fd5b600080600090505b83839050811015610c8957838382818110610c6157610c6061583d565b5b9050602002013582610c739190615519565b9150600181610c829190615519565b9050610c43565b5060648114610ccd576040517f08c379a0000000000000000000000000000000000000000000000000000000008152600401610cc49061516d565b60405180910390fd5b6040518061010001604052808a815260200142815260200160008152602001898980806020026020016040519081016040528093929190818152602001838360200280828437600081840152601f19601f82011690508083019250505050505050815260200187815260200186610d43906156ce565b8152602001858152602001848480806020026020016040519081016040528093929190818152602001838360200280828437600081840152601f19601f820116905080830192505050505050508152506007600060065481526020019081526020016000206000820151816000016000820151816000019080519060200190610dcd929190613aef565b5060208201518160010160006101000a81548173ffffffffffffffffffffffffffffffffffffffff021916908373ffffffffffffffffffffffffffffffffffffffff16021790555060408201518160010160146101000a81548167ffffffffffffffff021916908367ffffffffffffffff160217905550606082015181600101601c6101000a81548161ffff021916908361ffff16021790555060808201518160020160006101000a81548173ffffffffffffffffffffffffffffffffffffffff021916908373ffffffffffffffffffffffffffffffffffffffff16021790555060a08201518160020160146101000a81548167ffffffffffffffff021916908367ffffffffffffffff16021790555060c08201518160030155505060208201518160040155604082015181600501556060820151816006019080519060200190610f19929190613b79565b506080820151816007015560a0820151816008016000820151816000019080519060200190610f49929190613bc6565b506020820151816001019080519060200190610f66929190613bc6565b50505060c082015181600a015560e082015181600b019080519060200190610f8f929190613b79565b509050507fff0ab45f3bc6a366a0cee506a8b1c6b2412e66c65d35a210ce760d9de8a53e91600654604051610fc4919061535e565b60405180910390a1600160066000828254610fdf9190615519565b92505081905550505050505050505050565b610ff9613531565b73ffffffffffffffffffffffffffffffffffffffff168173ffffffffffffffffffffffffffffffffffffffff1614611066576040517f08c379a000000000000000000000000000000000000000000000000000000000815260040161105d906152ad565b60405180910390fd5b61107082826136b6565b5050565b61107c611fd9565b156110bc576040517f08c379a00000000000000000000000000000000000000000000000000000000081526004016110b3906150ed565b60405180910390fd5b60006007600083815260200190815260200160002060405180610100016040529081600082016040518060e00160405290816000820180548060200260200160405190810160405280929190818152602001828054801561117257602002820191906000526020600020905b8160009054906101000a900473ffffffffffffffffffffffffffffffffffffffff1673ffffffffffffffffffffffffffffffffffffffff1681526020019060010190808311611128575b505050505081526020016001820160009054906101000a900473ffffffffffffffffffffffffffffffffffffffff1673ffffffffffffffffffffffffffffffffffffffff1673ffffffffffffffffffffffffffffffffffffffff1681526020016001820160149054906101000a900467ffffffffffffffff1667ffffffffffffffff1667ffffffffffffffff16815260200160018201601c9054906101000a900461ffff1661ffff1661ffff1681526020016002820160009054906101000a900473ffffffffffffffffffffffffffffffffffffffff1673ffffffffffffffffffffffffffffffffffffffff1673ffffffffffffffffffffffffffffffffffffffff1681526020016002820160149054906101000a900467ffffffffffffffff1667ffffffffffffffff1667ffffffffffffffff168152602001600382015481525050815260200160048201548152602001600582015481526020016006820180548060200260200160405190810160405280929190818152602001828054801561131c57602002820191906000526020600020905b815481526020019060010190808311611308575b50505050508152602001600782015481526020016008820160405180604001604052908160008201805461134f9061574d565b80601f016020809104026020016040519081016040528092919081815260200182805461137b9061574d565b80156113c85780601f1061139d576101008083540402835291602001916113c8565b820191906000526020600020905b8154815290600101906020018083116113ab57829003601f168201915b505050505081526020016001820180546113e19061574d565b80601f016020809104026020016040519081016040528092919081815260200182805461140d9061574d565b801561145a5780601f1061142f5761010080835404028352916020019161145a565b820191906000526020600020905b81548152906001019060200180831161143d57829003601f168201915b5050505050815250508152602001600a8201548152602001600b82018054806020026020016040519081016040528092919081815260200182805480156114c057602002820191906000526020600020905b8154815260200190600101908083116114ac575b5050505050815250509050600081600001519050806000015151600760008581526020019081526020016000206005015414611531576040517f08c379a00000000000000000000000000000000000000000000000000000000081526004016115289061510d565b60405180910390fd5b42816040015167ffffffffffffffff161015611582576040517f08c379a00000000000000000000000000000000000000000000000000000000081526004016115799061518d565b60405180910390fd5b60007f000000000000000000000000000000000000000000000000000000000000000073ffffffffffffffffffffffffffffffffffffffff1663fd4eb0d78460a00151600001518560a00151602001516040518363ffffffff1660e01b81526004016115ef929190614e0a565b602060405180830381600087803b15801561160957600080fd5b505af115801561161d573d6000803e3d6000fd5b505050506040513d601f19601f8201168201806040525081019061164191906140af565b905080826020019073ffffffffffffffffffffffffffffffffffffffff16908173ffffffffffffffffffffffffffffffffffffffff168152505060007f000000000000000000000000000000000000000000000000000000000000000073ffffffffffffffffffffffffffffffffffffffff1663258d79e98560a00151600001516040516020016116d29190614f38565b6040516020818303038152906040528660a00151602001516040516020016116fa9190614f03565b60405160208183030381529060405286600001518860e001518960c001516040518663ffffffff1660e01b8152600401611738959493929190614e94565b602060405180830381600087803b15801561175257600080fd5b505af1158015611766573d6000803e3d6000fd5b505050506040513d601f19601f8201168201806040525081019061178a91906140af565b905060007f000000000000000000000000000000000000000000000000000000000000000073ffffffffffffffffffffffffffffffffffffffff166353fe2d918660a00151600001518760a00151602001518689608001516040518563ffffffff1660e01b81526004016118019493929190614e41565b602060405180830381600087803b15801561181b57600080fd5b505af115801561182f573d6000803e3d6000fd5b505050506040513d601f19601f8201168201806040525081019061185391906140af565b90506040518061010001604052807f1b051eabb191097272b9187f0c5c3152a0c5088405d4a327a4e5e5242f29cfca81526020016000815260200186606001518152602001600067ffffffffffffffff8111156118b3576118b261586c565b5b6040519080825280602002602001820160405280156118e15781602001602082028036833780820191505090505b5081526020018273ffffffffffffffffffffffffffffffffffffffff1681526020018581526020018373ffffffffffffffffffffffffffffffffffffffff1681526020018660e0015160018860e001515161193c91906155fa565b8151811061194d5761194c61583d565b5b6020026020010151815250600360008573ffffffffffffffffffffffffffffffffffffffff1673ffffffffffffffffffffffffffffffffffffffff168152602001908152602001600020600082015181600001556020820151816001015560408201518160020190805190602001906119c7929190613b79565b5060608201518160030190805190602001906119e4929190613b79565b5060808201518160040160006101000a81548173ffffffffffffffffffffffffffffffffffffffff021916908373ffffffffffffffffffffffffffffffffffffffff16021790555060a0820151816005016000820151816000019080519060200190611a51929190613aef565b5060208201518160010160006101000a81548173ffffffffffffffffffffffffffffffffffffffff021916908373ffffffffffffffffffffffffffffffffffffffff16021790555060408201518160010160146101000a81548167ffffffffffffffff021916908367ffffffffffffffff160217905550606082015181600101601c6101000a81548161ffff021916908361ffff16021790555060808201518160020160006101000a81548173ffffffffffffffffffffffffffffffffffffffff021916908373ffffffffffffffffffffffffffffffffffffffff16021790555060a08201518160020160146101000a81548167ffffffffffffffff021916908367ffffffffffffffff16021790555060c08201518160030155505060c08201518160090160006101000a81548173ffffffffffffffffffffffffffffffffffffffff021916908373ffffffffffffffffffffffffffffffffffffffff16021790555060e082015181600a01559050507f000000000000000000000000000000000000000000000000000000000000000073ffffffffffffffffffffffffffffffffffffffff1663ecfcb72a8486600001516040518363ffffffff1660e01b8152600401611c20929190614d59565b600060405180830381600087803b158015611c3a57600080fd5b505af1158015611c4e573d6000803e3d6000fd5b505050508273ffffffffffffffffffffffffffffffffffffffff167f41bc6022ac8da2e453cffc5ba42349a2880637ef8d0d5944339a022a6739f36060405160405180910390a2505050505050565b6007602052806000526040600020600091509050806000016040518060e001604052908160008201805480602002602001604051908101604052809291908181526020018280548015611d4557602002820191906000526020600020905b8160009054906101000a900473ffffffffffffffffffffffffffffffffffffffff1673ffffffffffffffffffffffffffffffffffffffff1681526020019060010190808311611cfb575b505050505081526020016001820160009054906101000a900473ffffffffffffffffffffffffffffffffffffffff1673ffffffffffffffffffffffffffffffffffffffff1673ffffffffffffffffffffffffffffffffffffffff1681526020016001820160149054906101000a900467ffffffffffffffff1667ffffffffffffffff1667ffffffffffffffff16815260200160018201601c9054906101000a900461ffff1661ffff1661ffff1681526020016002820160009054906101000a900473ffffffffffffffffffffffffffffffffffffffff1673ffffffffffffffffffffffffffffffffffffffff1673ffffffffffffffffffffffffffffffffffffffff1681526020016002820160149054906101000a900467ffffffffffffffff1667ffffffffffffffff1667ffffffffffffffff1681526020016003820154815250509080600401549080600501549080600701549080600801604051806040016040529081600082018054611eba9061574d565b80601f0160208091040260200160405190810160405280929190818152602001828054611ee69061574d565b8015611f335780601f10611f0857610100808354040283529160200191611f33565b820191906000526020600020905b815481529060010190602001808311611f1657829003601f168201915b50505050508152602001600182018054611f4c9061574d565b80601f0160208091040260200160405190810160405280929190818152602001828054611f789061574d565b8015611fc55780601f10611f9a57610100808354040283529160200191611fc5565b820191906000526020600020905b815481529060010190602001808311611fa857829003601f168201915b5050505050815250509080600a0154905086565b6000600160009054906101000a900460ff16905090565b6000611ffb826104f8565b90508060a0015160c0015181602001511080156120295750428160a001516040015167ffffffffffffffff16115b15612069576040517f08c379a00000000000000000000000000000000000000000000000000000000081526004016120609061522d565b60405180910390fd5b7f192eeb9228e010bc296a3485b9a2f358ca83ebae22f90419552aa6a137524b53600360008473ffffffffffffffffffffffffffffffffffffffff1673ffffffffffffffffffffffffffffffffffffffff168152602001908152602001600020600001819055508173ffffffffffffffffffffffffffffffffffffffff167ff3fed802a1214b6e54d516b78c0809c478d0d9f01ce30899ffcb432cf9a072c160405160405180910390a25050565b600080600090505b600360008573ffffffffffffffffffffffffffffffffffffffff1673ffffffffffffffffffffffffffffffffffffffff16815260200190815260200160002060050160000180549050811015612242578273ffffffffffffffffffffffffffffffffffffffff16600360008673ffffffffffffffffffffffffffffffffffffffff1673ffffffffffffffffffffffffffffffffffffffff16815260200190815260200160002060050160000182815481106121dd576121dc61583d565b5b9060005260206000200160009054906101000a900473ffffffffffffffffffffffffffffffffffffffff1673ffffffffffffffffffffffffffffffffffffffff16141561222e576001915050612248565b60018161223b9190615519565b905061211f565b50600090505b92915050565b7fdf8b4c520ffe197c5343c6f5aec59570151ef9a492f2c624fd45ddde6135ec426122808161227b613531565b613539565b612288613797565b50565b600080600084815260200190815260200160002060000160008373ffffffffffffffffffffffffffffffffffffffff1673ffffffffffffffffffffffffffffffffffffffff16815260200190815260200160002060009054906101000a900460ff16905092915050565b6122fd611fd9565b1561233d576040517f08c379a0000000000000000000000000000000000000000000000000000000008152600401612334906150ed565b60405180910390fd5b60008111612380576040517f08c379a00000000000000000000000000000000000000000000000000000000081526004016123779061502d565b60405180910390fd5b600061238b836104f8565b9050428160a001516040015167ffffffffffffffff1610156123e2576040517f08c379a00000000000000000000000000000000000000000000000000000000081526004016123d99061518d565b60405180910390fd5b7f1b051eabb191097272b9187f0c5c3152a0c5088405d4a327a4e5e5242f29cfca816000015114612448576040517f08c379a000000000000000000000000000000000000000000000000000000000815260040161243f906150cd565b60405180910390fd5b600081602001518260a0015160c0015161246291906155fa565b905080831015612470578290505b60008260a0015160a0015167ffffffffffffffff166127108361249391906155a0565b61249d919061556f565b9050600081116124e2576040517f08c379a00000000000000000000000000000000000000000000000000000000081526004016124d9906151ad565b60405180910390fd5b8260a0015160c001518284602001516124fb9190615519565b10612568577f2097e2e0f370945c0a82a75d599dd83e8cd76a11910f1819fdadc112dd2e8115600360008773ffffffffffffffffffffffffffffffffffffffff1673ffffffffffffffffffffffffffffffffffffffff168152602001908152602001600020600001819055505b81600360008773ffffffffffffffffffffffffffffffffffffffff1673ffffffffffffffffffffffffffffffffffffffff16815260200190815260200160002060010160008282546125ba9190615519565b925050819055508260a001516080015173ffffffffffffffffffffffffffffffffffffffff166323b872dd3387856040518463ffffffff1660e01b815260040161260693929190614d22565b602060405180830381600087803b15801561262057600080fd5b505af1158015612634573d6000803e3d6000fd5b505050506040513d601f19601f82011682018060405250810190612658919061415c565b612697576040517f08c379a000000000000000000000000000000000000000000000000000000000815260040161268e9061520d565b60405180910390fd5b80600460003373ffffffffffffffffffffffffffffffffffffffff1673ffffffffffffffffffffffffffffffffffffffff16815260200190815260200160002060008282546126e69190615519565b925050819055508473ffffffffffffffffffffffffffffffffffffffff163373ffffffffffffffffffffffffffffffffffffffff167fe86f7ab5646f63a78eb2a6d0c3a4db0e00b37efbdf9c10dfc356cf3cfc7e15408460405161274a919061535e565b60405180910390a35050505050565b6000801b81565b61271081565b7f192eeb9228e010bc296a3485b9a2f358ca83ebae22f90419552aa6a137524b53600360008473ffffffffffffffffffffffffffffffffffffffff1673ffffffffffffffffffffffffffffffffffffffff16815260200190815260200160002060000154141561280b576040517f08c379a00000000000000000000000000000000000000000000000000000000081526004016128029061512d565b60405180910390fd5b6128158233612117565b612854576040517f08c379a000000000000000000000000000000000000000000000000000000000815260040161284b906151cd565b60405180910390fd5b61285e8282612a7b565b61289d576040517f08c379a0000000000000000000000000000000000000000000000000000000008152600401612894906151ed565b60405180910390fd5b60006128a8836104f8565b9050806080015173ffffffffffffffffffffffffffffffffffffffff166340c10f19846001600360008873ffffffffffffffffffffffffffffffffffffffff1673ffffffffffffffffffffffffffffffffffffffff1681526020019081526020016000206003018054905061291d9190615519565b6040518363ffffffff1660e01b815260040161293a929190614d89565b600060405180830381600087803b15801561295457600080fd5b505af1158015612968573d6000803e3d6000fd5b50505050600360008473ffffffffffffffffffffffffffffffffffffffff1673ffffffffffffffffffffffffffffffffffffffff1681526020019081526020016000206003018290806001815401808255809150506001900390600052602060002001600090919091909150558273ffffffffffffffffffffffffffffffffffffffff167ff0123728833f1849e274a7c3fce8821a238c3a6dd312813810723684aab2e46f6001600360008773ffffffffffffffffffffffffffffffffffffffff1673ffffffffffffffffffffffffffffffffffffffff16815260200190815260200160002060030180549050612a5f9190615519565b84604051612a6e9291906153a2565b60405180910390a2505050565b600080600090505b600360008573ffffffffffffffffffffffffffffffffffffffff1673ffffffffffffffffffffffffffffffffffffffff16815260200190815260200160002060030180549050811015612b545782600360008673ffffffffffffffffffffffffffffffffffffffff1673ffffffffffffffffffffffffffffffffffffffff1681526020019081526020016000206003018281548110612b2557612b2461583d565b5b90600052602060002001541415612b40576001915050612b5a565b600181612b4d9190615519565b9050612a83565b50600090505b92915050565b600280541415612ba5576040517f08c379a0000000000000000000000000000000000000000000000000000000008152600401612b9c9061528d565b60405180910390fd5b600280819055506000612bb7826104f8565b9050428160a001516040015167ffffffffffffffff161015612c0e576040517f08c379a0000000000000000000000000000000000000000000000000000000008152600401612c059061518d565b60405180910390fd5b8060a0015160c0015181602001511015612c5d576040517f08c379a0000000000000000000000000000000000000000000000000000000008152600401612c54906150ad565b60405180910390fd5b8060a001516020015173ffffffffffffffffffffffffffffffffffffffff166340c10f1933600460003373ffffffffffffffffffffffffffffffffffffffff1673ffffffffffffffffffffffffffffffffffffffff168152602001908152602001600020546040518363ffffffff1660e01b8152600401612cdf929190614d89565b600060405180830381600087803b158015612cf957600080fd5b505af1158015612d0d573d6000803e3d6000fd5b5050505060008160a001516020015173ffffffffffffffffffffffffffffffffffffffff166318160ddd6040518163ffffffff1660e01b815260040160206040518083038186803b158015612d6157600080fd5b505afa158015612d75573d6000803e3d6000fd5b505050506040513d601f19601f82011682018060405250810190612d999190614357565b9050600081600460003373ffffffffffffffffffffffffffffffffffffffff1673ffffffffffffffffffffffffffffffffffffffff168152602001908152602001600020548460e00151612ded91906155a0565b612df7919061556f565b90508260c0015173ffffffffffffffffffffffffffffffffffffffff166340c10f1930836040518363ffffffff1660e01b8152600401612e38929190614d89565b600060405180830381600087803b158015612e5257600080fd5b505af1158015612e66573d6000803e3d6000fd5b50505050600460003373ffffffffffffffffffffffffffffffffffffffff1673ffffffffffffffffffffffffffffffffffffffff16815260200190815260200160002060009055505050600160028190555050565b7f192eeb9228e010bc296a3485b9a2f358ca83ebae22f90419552aa6a137524b5381565b612ee7611fd9565b15612f27576040517f08c379a0000000000000000000000000000000000000000000000000000000008152600401612f1e906150ed565b60405180910390fd5b7f000000000000000000000000000000000000000000000000000000000000000073ffffffffffffffffffffffffffffffffffffffff1663905bc7da6040518163ffffffff1660e01b815260040160206040518083038186803b158015612f8d57600080fd5b505afa158015612fa1573d6000803e3d6000fd5b505050506040513d601f19601f82011682018060405250810190612fc59190614357565b600760008381526020019081526020016000206004015442612fe791906155fa565b1115613028576040517f08c379a000000000000000000000000000000000000000000000000000000000815260040161301f9061504d565b60405180910390fd5b6008600082815260200190815260200160002060003373ffffffffffffffffffffffffffffffffffffffff1673ffffffffffffffffffffffffffffffffffffffff16815260200190815260200160002060009054906101000a900460ff16156130c6576040517f08c379a00000000000000000000000000000000000000000000000000000000081526004016130bd90614f8d565b60405180910390fd5b6000805b6007600084815260200190815260200160002060000160000180549050811015613190573373ffffffffffffffffffffffffffffffffffffffff166007600085815260200190815260200160002060000160000182815481106131305761312f61583d565b5b9060005260206000200160009054906101000a900473ffffffffffffffffffffffffffffffffffffffff1673ffffffffffffffffffffffffffffffffffffffff16141561317c57600191505b6001816131899190615519565b90506130ca565b50806131d1576040517f08c379a00000000000000000000000000000000000000000000000000000000081526004016131c890614fed565b60405180910390fd5b60016007600084815260200190815260200160002060050160008282546131f89190615519565b9250508190555060016008600084815260200190815260200160002060003373ffffffffffffffffffffffffffffffffffffffff1673ffffffffffffffffffffffffffffffffffffffff16815260200190815260200160002060006101000a81548160ff0219169083151502179055507f34647120636ce03d739347e28e9d1bdd34fd03d066ae60439fb1be2721ad16cd8233604051613299929190615379565b60405180910390a15050565b60006132b0836104f8565b9050428160a001516040015167ffffffffffffffff161015613307576040517f08c379a00000000000000000000000000000000000000000000000000000000081526004016132fe9061518d565b60405180910390fd5b7f2097e2e0f370945c0a82a75d599dd83e8cd76a11910f1819fdadc112dd2e811581600001511461336d576040517f08c379a00000000000000000000000000000000000000000000000000000000081526004016133649061526d565b60405180910390fd5b81600560003373ffffffffffffffffffffffffffffffffffffffff1673ffffffffffffffffffffffffffffffffffffffff16815260200190815260200160002060008282546133bc9190615519565b925050819055508060a001516020015173ffffffffffffffffffffffffffffffffffffffff166323b872dd3330856040518463ffffffff1660e01b815260040161340893929190614d22565b602060405180830381600087803b15801561342257600080fd5b505af1158015613436573d6000803e3d6000fd5b505050506040513d601f19601f8201168201806040525081019061345a919061415c565b613499576040517f08c379a00000000000000000000000000000000000000000000000000000000081526004016134909061500d565b60405180910390fd5b505050565b6134a7826109f2565b6134b8816134b3613531565b613539565b6134c283836136b6565b505050565b60007f01ffc9a7000000000000000000000000000000000000000000000000000000007bffffffffffffffffffffffffffffffffffffffffffffffffffffffff1916827bffffffffffffffffffffffffffffffffffffffffffffffffffffffff1916149050919050565b600033905090565b613543828261228b565b6135d2576135688173ffffffffffffffffffffffffffffffffffffffff166014613839565b6135768360001c6020613839565b604051602001613587929190614ccd565b6040516020818303038152906040526040517f08c379a00000000000000000000000000000000000000000000000000000000081526004016135c99190614de8565b60405180910390fd5b5050565b6135e0828261228b565b6136b257600160008084815260200190815260200160002060000160008373ffffffffffffffffffffffffffffffffffffffff1673ffffffffffffffffffffffffffffffffffffffff16815260200190815260200160002060006101000a81548160ff021916908315150217905550613657613531565b73ffffffffffffffffffffffffffffffffffffffff168173ffffffffffffffffffffffffffffffffffffffff16837f2f8788117e7eff1d82e926ec794901d17c78024a50270940304540a733656f0d60405160405180910390a45b5050565b6136c0828261228b565b1561379357600080600084815260200190815260200160002060000160008373ffffffffffffffffffffffffffffffffffffffff1673ffffffffffffffffffffffffffffffffffffffff16815260200190815260200160002060006101000a81548160ff021916908315150217905550613738613531565b73ffffffffffffffffffffffffffffffffffffffff168173ffffffffffffffffffffffffffffffffffffffff16837ff6391f5c32d9c69d2a47ea670b442974b53935d1edc7fd64eb21e047a839171b60405160405180910390a45b5050565b61379f611fd9565b156137df576040517f08c379a00000000000000000000000000000000000000000000000000000000081526004016137d6906150ed565b60405180910390fd5b60018060006101000a81548160ff0219169083151502179055507f62e78cea01bee320cd4e420270b5ea74000d11b0c9f74754ebdbfc544b05a258613822613531565b60405161382f9190614d07565b60405180910390a1565b60606000600283600261384c91906155a0565b6138569190615519565b67ffffffffffffffff81111561386f5761386e61586c565b5b6040519080825280601f01601f1916602001820160405280156138a15781602001600182028036833780820191505090505b5090507f3000000000000000000000000000000000000000000000000000000000000000816000815181106138d9576138d861583d565b5b60200101907effffffffffffffffffffffffffffffffffffffffffffffffffffffffffffff1916908160001a9053507f78000000000000000000000000000000000000000000000000000000000000008160018151811061393d5761393c61583d565b5b60200101907effffffffffffffffffffffffffffffffffffffffffffffffffffffffffffff1916908160001a9053506000600184600261397d91906155a0565b6139879190615519565b90505b6001811115613a27577f3031323334353637383961626364656600000000000000000000000000000000600f8616601081106139c9576139c861583d565b5b1a60f81b8282815181106139e0576139df61583d565b5b60200101907effffffffffffffffffffffffffffffffffffffffffffffffffffffffffffff1916908160001a905350600485901c945080613a2090615723565b905061398a565b5060008414613a6b576040517f08c379a0000000000000000000000000000000000000000000000000000000008152600401613a6290614f6d565b60405180910390fd5b8091505092915050565b60405180610100016040528060008019168152602001600081526020016060815260200160608152602001600073ffffffffffffffffffffffffffffffffffffffff168152602001613ac5613c4c565b8152602001600073ffffffffffffffffffffffffffffffffffffffff168152602001600081525090565b828054828255906000526020600020908101928215613b68579160200282015b82811115613b675782518260006101000a81548173ffffffffffffffffffffffffffffffffffffffff021916908373ffffffffffffffffffffffffffffffffffffffff16021790555091602001919060010190613b0f565b5b509050613b759190613ccd565b5090565b828054828255906000526020600020908101928215613bb5579160200282015b82811115613bb4578251825591602001919060010190613b99565b5b509050613bc29190613ccd565b5090565b828054613bd29061574d565b90600052602060002090601f016020900481019282613bf45760008555613c3b565b82601f10613c0d57805160ff1916838001178555613c3b565b82800160010185558215613c3b579182015b82811115613c3a578251825591602001919060010190613c1f565b5b509050613c489190613ccd565b5090565b6040518060e0016040528060608152602001600073ffffffffffffffffffffffffffffffffffffffff168152602001600067ffffffffffffffff168152602001600061ffff168152602001600073ffffffffffffffffffffffffffffffffffffffff168152602001600067ffffffffffffffff168152602001600081525090565b5b80821115613ce6576000816000905550600101613cce565b5090565b6000613cfd613cf8846153f0565b6153cb565b90508083825260208201905082856020860282011115613d2057613d1f6158b4565b5b60005b85811015613d505781613d368882613d9c565b845260208401935060208301925050600181019050613d23565b5050509392505050565b6000613d6d613d688461541c565b6153cb565b905082815260208101848484011115613d8957613d886158b9565b5b613d948482856156e1565b509392505050565b600081359050613dab81615e1c565b92915050565b600081519050613dc081615e1c565b92915050565b600082601f830112613ddb57613dda6158a0565b5b8135613deb848260208601613cea565b91505092915050565b60008083601f840112613e0a57613e096158a0565b5b8235905067ffffffffffffffff811115613e2757613e2661589b565b5b602083019150836020820283011115613e4357613e426158b4565b5b9250929050565b600081519050613e5981615e33565b92915050565b600081359050613e6e81615e4a565b92915050565b600081359050613e8381615e61565b92915050565b600082601f830112613e9e57613e9d6158a0565b5b8135613eae848260208601613d5a565b91505092915050565b600060408284031215613ecd57613ecc6158a5565b5b81905092915050565b600060408284031215613eec57613eeb6158aa565b5b613ef660406153cb565b9050600082013567ffffffffffffffff811115613f1657613f156158af565b5b613f2284828501613e89565b600083015250602082013567ffffffffffffffff811115613f4657613f456158af565b5b613f5284828501613e89565b60208301525092915050565b600060e08284031215613f7457613f736158aa565b5b613f7e60e06153cb565b9050600082013567ffffffffffffffff811115613f9e57613f9d6158af565b5b613faa84828501613dc6565b6000830152506020613fbe84828501613d9c565b6020830152506040613fd28482850161406d565b6040830152506060613fe68482850161402e565b6060830152506080613ffa84828501613d9c565b60808301525060a061400e8482850161406d565b60a08301525060c061402284828501614043565b60c08301525092915050565b60008135905061403d81615e78565b92915050565b60008135905061405281615e8f565b92915050565b60008151905061406781615e8f565b92915050565b60008135905061407c81615ea6565b92915050565b600060208284031215614098576140976158c3565b5b60006140a684828501613d9c565b91505092915050565b6000602082840312156140c5576140c46158c3565b5b60006140d384828501613db1565b91505092915050565b600080604083850312156140f3576140f26158c3565b5b600061410185828601613d9c565b925050602061411285828601613d9c565b9150509250929050565b60008060408385031215614133576141326158c3565b5b600061414185828601613d9c565b925050602061415285828601614043565b9150509250929050565b600060208284031215614172576141716158c3565b5b600061418084828501613e4a565b91505092915050565b60006020828403121561419f5761419e6158c3565b5b60006141ad84828501613e5f565b91505092915050565b600080604083850312156141cd576141cc6158c3565b5b60006141db85828601613e5f565b92505060206141ec85828601613d9c565b9150509250929050565b60006020828403121561420c5761420b6158c3565b5b600061421a84828501613e74565b91505092915050565b60008060008060008060008060c0898b031215614243576142426158c3565b5b600089013567ffffffffffffffff811115614261576142606158be565b5b61426d8b828c01613f5e565b985050602089013567ffffffffffffffff81111561428e5761428d6158be565b5b61429a8b828c01613df4565b975097505060406142ad8b828c01614043565b955050606089013567ffffffffffffffff8111156142ce576142cd6158be565b5b6142da8b828c01613eb7565b94505060806142eb8b828c01614043565b93505060a089013567ffffffffffffffff81111561430c5761430b6158be565b5b6143188b828c01613df4565b92509250509295985092959890939650565b6000602082840312156143405761433f6158c3565b5b600061434e84828501614043565b91505092915050565b60006020828403121561436d5761436c6158c3565b5b600061437b84828501614058565b91505092915050565b600061439083836143b4565b60208301905092915050565b60006143a88383614ca0565b60208301905092915050565b6143bd8161562e565b82525050565b6143cc8161562e565b82525050565b60006143dd8261546d565b6143e781856154a8565b93506143f28361544d565b8060005b8381101561442357815161440a8882614384565b97506144158361548e565b9250506001810190506143f6565b5085935050505092915050565b600061443b8261546d565b61444581856154b9565b93506144508361544d565b8060005b838110156144815781516144688882614384565b97506144738361548e565b925050600181019050614454565b5085935050505092915050565b600061449982615478565b6144a381856154ca565b93506144ae8361545d565b8060005b838110156144df5781516144c6888261439c565b97506144d18361549b565b9250506001810190506144b2565b5085935050505092915050565b60006144f782615478565b61450181856154db565b935061450c8361545d565b8060005b8381101561453d578151614524888261439c565b975061452f8361549b565b925050600181019050614510565b5085935050505092915050565b61455381615640565b82525050565b6145628161564c565b82525050565b6145718161564c565b82525050565b600061458282615483565b61458c81856154ec565b935061459c8185602086016156f0565b6145a5816158c8565b840191505092915050565b60006145bb82615483565b6145c581856154fd565b93506145d58185602086016156f0565b6145de816158c8565b840191505092915050565b60006145f482615483565b6145fe818561550e565b935061460e8185602086016156f0565b80840191505092915050565b60006146276001836154fd565b9150614632826158d9565b602082019050919050565b600061464a6020836154fd565b915061465582615902565b602082019050919050565b600061466d6015836154fd565b91506146788261592b565b602082019050919050565b6000614690600a836154fd565b915061469b82615954565b602082019050919050565b60006146b36009836154fd565b91506146be8261597d565b602082019050919050565b60006146d66009836154fd565b91506146e1826159a6565b602082019050919050565b60006146f96014836154fd565b9150614704826159cf565b602082019050919050565b600061471c600f836154fd565b9150614727826159f8565b602082019050919050565b600061473f600e836154fd565b915061474a82615a21565b602082019050919050565b60006147626013836154fd565b915061476d82615a4a565b602082019050919050565b6000614785600e836154fd565b915061479082615a73565b602082019050919050565b60006147a86013836154fd565b91506147b382615a9c565b602082019050919050565b60006147cb601a836154fd565b91506147d682615ac5565b602082019050919050565b60006147ee600e836154fd565b91506147f982615aee565b602082019050919050565b60006148116010836154fd565b915061481c82615b17565b602082019050919050565b60006148346015836154fd565b915061483f82615b40565b602082019050919050565b60006148576018836154fd565b915061486282615b69565b602082019050919050565b600061487a601c836154fd565b915061488582615b92565b602082019050919050565b600061489d601a836154fd565b91506148a882615bbb565b602082019050919050565b60006148c06018836154fd565b91506148cb82615be4565b602082019050919050565b60006148e36012836154fd565b91506148ee82615c0d565b602082019050919050565b60006149066020836154fd565b915061491182615c36565b602082019050919050565b60006149296025836154fd565b915061493482615c5f565b604082019050919050565b600061494c6016836154fd565b915061495782615cae565b602082019050919050565b600061496f6010836154fd565b915061497a82615cd7565b602082019050919050565b600061499260178361550e565b915061499d82615d00565b601782019050919050565b60006149b5600e836154fd565b91506149c082615d29565b602082019050919050565b60006149d86017836154fd565b91506149e382615d52565b602082019050919050565b60006149fb601f836154fd565b9150614a0682615d7b565b602082019050919050565b6000614a1e60118361550e565b9150614a2982615da4565b601182019050919050565b6000614a41602f836154fd565b9150614a4c82615dcd565b604082019050919050565b60006040830160008301518482036000860152614a748282614577565b91505060208301518482036020860152614a8e8282614577565b9150508091505092915050565b600061010083016000830151614ab46000860182614559565b506020830151614ac76020860182614ca0565b5060408301518482036040860152614adf828261448e565b91505060608301518482036060860152614af9828261448e565b9150506080830151614b0e60808601826143b4565b5060a083015184820360a0860152614b268282614b59565b91505060c0830151614b3b60c08601826143b4565b5060e0830151614b4e60e0860182614ca0565b508091505092915050565b600060e0830160008301518482036000860152614b7682826143d2565b9150506020830151614b8b60208601826143b4565b506040830151614b9e6040860182614cbe565b506060830151614bb16060860182614c91565b506080830151614bc460808601826143b4565b5060a0830151614bd760a0860182614cbe565b5060c0830151614bea60c0860182614ca0565b508091505092915050565b600060e0830160008301518482036000860152614c1282826143d2565b9150506020830151614c2760208601826143b4565b506040830151614c3a6040860182614cbe565b506060830151614c4d6060860182614c91565b506080830151614c6060808601826143b4565b5060a0830151614c7360a0860182614cbe565b5060c0830151614c8660c0860182614ca0565b508091505092915050565b614c9a81615682565b82525050565b614ca9816156b0565b82525050565b614cb8816156b0565b82525050565b614cc7816156ba565b82525050565b6000614cd882614985565b9150614ce482856145e9565b9150614cef82614a11565b9150614cfb82846145e9565b91508190509392505050565b6000602082019050614d1c60008301846143c3565b92915050565b6000606082019050614d3760008301866143c3565b614d4460208301856143c3565b614d516040830184614caf565b949350505050565b6000604082019050614d6e60008301856143c3565b8181036020830152614d808184614430565b90509392505050565b6000604082019050614d9e60008301856143c3565b614dab6020830184614caf565b9392505050565b6000602082019050614dc7600083018461454a565b92915050565b6000602082019050614de26000830184614568565b92915050565b60006020820190508181036000830152614e0281846145b0565b905092915050565b60006040820190508181036000830152614e2481856145b0565b90508181036020830152614e3881846145b0565b90509392505050565b60006080820190508181036000830152614e5b81876145b0565b90508181036020830152614e6f81866145b0565b9050614e7e60408301856143c3565b614e8b6060830184614caf565b95945050505050565b600060a0820190508181036000830152614eae81886145b0565b90508181036020830152614ec281876145b0565b90508181036040830152614ed68186614430565b90508181036060830152614eea81856144ec565b9050614ef96080830184614caf565b9695505050505050565b60006040820190508181036000830152614f1d81846145b0565b90508181036020830152614f308161461a565b905092915050565b60006040820190508181036000830152614f5281846145b0565b90508181036020830152614f6581614683565b905092915050565b60006020820190508181036000830152614f868161463d565b9050919050565b60006020820190508181036000830152614fa681614660565b9050919050565b60006020820190508181036000830152614fc6816146a6565b9050919050565b60006020820190508181036000830152614fe6816146c9565b9050919050565b60006020820190508181036000830152615006816146ec565b9050919050565b600060208201905081810360008301526150268161470f565b9050919050565b6000602082019050818103600083015261504681614732565b9050919050565b6000602082019050818103600083015261506681614755565b9050919050565b6000602082019050818103600083015261508681614778565b9050919050565b600060208201905081810360008301526150a68161479b565b9050919050565b600060208201905081810360008301526150c6816147be565b9050919050565b600060208201905081810360008301526150e6816147e1565b9050919050565b6000602082019050818103600083015261510681614804565b9050919050565b6000602082019050818103600083015261512681614827565b9050919050565b600060208201905081810360008301526151468161484a565b9050919050565b600060208201905081810360008301526151668161486d565b9050919050565b6000602082019050818103600083015261518681614890565b9050919050565b600060208201905081810360008301526151a6816148b3565b9050919050565b600060208201905081810360008301526151c6816148d6565b9050919050565b600060208201905081810360008301526151e6816148f9565b9050919050565b600060208201905081810360008301526152068161491c565b9050919050565b600060208201905081810360008301526152268161493f565b9050919050565b6000602082019050818103600083015261524681614962565b9050919050565b60006020820190508181036000830152615266816149a8565b9050919050565b60006020820190508181036000830152615286816149cb565b9050919050565b600060208201905081810360008301526152a6816149ee565b9050919050565b600060208201905081810360008301526152c681614a34565b9050919050565b600060208201905081810360008301526152e78184614a9b565b905092915050565b600060c08201905081810360008301526153098189614bf5565b90506153186020830188614caf565b6153256040830187614caf565b6153326060830186614caf565b81810360808301526153448185614a57565b905061535360a0830184614caf565b979650505050505050565b60006020820190506153736000830184614caf565b92915050565b600060408201905061538e6000830185614caf565b61539b60208301846143c3565b9392505050565b60006040820190506153b76000830185614caf565b6153c46020830184614caf565b9392505050565b60006153d56153e6565b90506153e1828261577f565b919050565b6000604051905090565b600067ffffffffffffffff82111561540b5761540a61586c565b5b602082029050602081019050919050565b600067ffffffffffffffff8211156154375761543661586c565b5b615440826158c8565b9050602081019050919050565b6000819050602082019050919050565b6000819050602082019050919050565b600081519050919050565b600081519050919050565b600081519050919050565b6000602082019050919050565b6000602082019050919050565b600082825260208201905092915050565b600082825260208201905092915050565b600082825260208201905092915050565b600082825260208201905092915050565b600082825260208201905092915050565b600082825260208201905092915050565b600081905092915050565b6000615524826156b0565b915061552f836156b0565b9250827fffffffffffffffffffffffffffffffffffffffffffffffffffffffffffffffff03821115615564576155636157b0565b5b828201905092915050565b600061557a826156b0565b9150615585836156b0565b925082615595576155946157df565b5b828204905092915050565b60006155ab826156b0565b91506155b6836156b0565b9250817fffffffffffffffffffffffffffffffffffffffffffffffffffffffffffffffff04831182151516156155ef576155ee6157b0565b5b828202905092915050565b6000615605826156b0565b9150615610836156b0565b925082821015615623576156226157b0565b5b828203905092915050565b600061563982615690565b9050919050565b60008115159050919050565b6000819050919050565b60007fffffffff0000000000000000000000000000000000000000000000000000000082169050919050565b600061ffff82169050919050565b600073ffffffffffffffffffffffffffffffffffffffff82169050919050565b6000819050919050565b600067ffffffffffffffff82169050919050565b60006156da3683613ed6565b9050919050565b82818337600083830152505050565b60005b8381101561570e5780820151818401526020810190506156f3565b8381111561571d576000848401525b50505050565b600061572e826156b0565b91506000821415615742576157416157b0565b5b600182039050919050565b6000600282049050600182168061576557607f821691505b602082108114156157795761577861580e565b5b50919050565b615788826158c8565b810181811067ffffffffffffffff821117156157a7576157a661586c565b5b80604052505050565b7f4e487b7100000000000000000000000000000000000000000000000000000000600052601160045260246000fd5b7f4e487b7100000000000000000000000000000000000000000000000000000000600052601260045260246000fd5b7f4e487b7100000000000000000000000000000000000000000000000000000000600052602260045260246000fd5b7f4e487b7100000000000000000000000000000000000000000000000000000000600052603260045260246000fd5b7f4e487b7100000000000000000000000000000000000000000000000000000000600052604160045260246000fd5b600080fd5b600080fd5b600080fd5b600080fd5b600080fd5b600080fd5b600080fd5b600080fd5b600080fd5b6000601f19601f8301169050919050565b7f4300000000000000000000000000000000000000000000000000000000000000600082015250565b7f537472696e67733a20686578206c656e67746820696e73756666696369656e74600082015250565b7f4163636f756e7420616c726561647920766f7465640000000000000000000000600082015250565b7f20436f7079726967687400000000000000000000000000000000000000000000600082015250565b7f4e6f206f776e6572730000000000000000000000000000000000000000000000600082015250565b7f4e6f206d65646961730000000000000000000000000000000000000000000000600082015250565b7f4f6e6c79206f776e6572732063616e20766f7465000000000000000000000000600082015250565b7f5472616e73666572206661696c65640000000000000000000000000000000000600082015250565b7f496e76616c696420616d6f756e74000000000000000000000000000000000000600082015250565b7f566f74696e6720706572696f6420656e64656400000000000000000000000000600082015250565b7f556e6578697374656e7420706f64000000000000000000000000000000000000600082015250565b7f496e76616c696420546f6b656e20507269636500000000000000000000000000600082015250565b7f46756e64696e6720746172676574206e6f742072656163686564000000000000600082015250565b7f496e76616c696420737461747573000000000000000000000000000000000000600082015250565b7f5061757361626c653a2070617573656400000000000000000000000000000000600082015250565b7f50726f706f73616c206e6f742061636365707465640000000000000000000000600082015250565b7f556e6578697374656e206f7220696e76616c696420706f640000000000000000600082015250565b7f496e76616c696420636f7079726967687420616c6c6f636174696f6e00000000600082015250565b7f57726f6e6720636f7079726967687420616c6c6f636174696f6e000000000000600082015250565b7f46756e64696e67206461746520696e2074686520706173740000000000000000600082015250565b7f3020746f6b656e7320746f2072657475726e0000000000000000000000000000600082015250565b7f4f6e6c79206f776e6572732063616e2075706c6f616420746865204d65646961600082015250565b7f4d656469612069642069732077726f6e67206f7220616c72656164792075706c60008201527f6f61646564000000000000000000000000000000000000000000000000000000602082015250565b7f4661696c20746f207472616e736665722066756e647300000000000000000000600082015250565b7f556e646973706f7361626c6520706f6400000000000000000000000000000000600082015250565b7f416363657373436f6e74726f6c3a206163636f756e7420000000000000000000600082015250565b7f496e76616c696420737072656164000000000000000000000000000000000000600082015250565b7f506f64206e6f7420696e2066756e646564207374617465000000000000000000600082015250565b7f5265656e7472616e637947756172643a207265656e7472616e742063616c6c00600082015250565b7f206973206d697373696e6720726f6c6520000000000000000000000000000000600082015250565b7f416363657373436f6e74726f6c3a2063616e206f6e6c792072656e6f756e636560008201527f20726f6c657320666f722073656c660000000000000000000000000000000000602082015250565b615e258161562e565b8114615e3057600080fd5b50565b615e3c81615640565b8114615e4757600080fd5b50565b615e538161564c565b8114615e5e57600080fd5b50565b615e6a81615656565b8114615e7557600080fd5b50565b615e8181615682565b8114615e8c57600080fd5b50565b615e98816156b0565b8114615ea357600080fd5b50565b615eaf816156ba565b8114615eba57600080fd5b5056fea2646970667358221220b5e7dab67eaccb5f2d29ff05d1a96864533f9dd08fa34c6c4f4fc30b723086bb64736f6c63430008060033",
  "immutableReferences": {
    "3417": [
      {
        "length": 32,
        "start": 7107
      }
    ],
    "3419": [
      {
        "length": 32,
        "start": 12073
      }
    ],
    "3421": [
      {
        "length": 32,
        "start": 5510
      },
      {
        "length": 32,
        "start": 5759
      },
      {
        "length": 32,
        "start": 6032
      }
    ]
  },
  "source": "// SPDX-License-Identifier: MIT\npragma solidity ^0.8.0;\n\nimport \"@openzeppelin/contracts/token/ERC20/ERC20.sol\";\nimport \"@openzeppelin/contracts/access/AccessControl.sol\";\nimport \"@openzeppelin/contracts/security/Pausable.sol\";\nimport \"@openzeppelin/contracts/utils/Counters.sol\";\nimport \"@openzeppelin/contracts/security/ReentrancyGuard.sol\";\nimport \"./implementations/PodToken.sol\";\nimport \"./implementations/CopyrightToken.sol\";\nimport \"./implementations/ERC721WithRoyalty.sol\";\nimport \"./PodWithdrawManager.sol\";\nimport \"./Governance.sol\";\nimport \"./CreationManager.sol\";\nimport \"./Structs.sol\";\n\n/**\n * @title pod contracts deployer and manager\n * @author Eric Nordelo\n */\ncontract PodManager is AccessControl, Pausable, ReentrancyGuard {\n    using Counters for Counters.Counter;\n\n    uint256 public constant PRECISION = 10000;\n    bytes32 public constant FUNDING_STATE = keccak256(\"FUNDING_STATE\");\n    bytes32 public constant FUNDED_STATE = keccak256(\"FUDED\");\n    bytes32 public constant DISPOSED_STATE = keccak256(\"DISPOSED\");\n    bytes32 public constant ADMIN = keccak256(\"ADMIN\");\n    // bytes32 public constant WITHDRAW_MANAGER_ROLE = keccak256(\"WITHDRAW_MANAGER_ROLE\");\n\n    address private immutable podWithdrawManagerAddress;\n    address private immutable governanceAddress;\n    address private immutable creationManager;\n\n    mapping(address => PodInfo) private _pods;\n    mapping(address => uint256) private _podTokensClaimable;\n    mapping(address => uint256) private _podTokensStaked;\n\n    uint256 private nextProposalId = 0;\n    mapping(uint256 => PodProposal) public podProposals;\n    mapping(uint256 => mapping(address => bool)) private podProposalToAccountToVoted;\n\n    event PodProposalCreated(uint256 id);\n    event ProposalVoted(uint256 id, address voter);\n    event CreatePod(address indexed podAddress);\n    event InvestPod(address indexed investor, address indexed podAddress, uint256 amount);\n    event UploadMedia(address indexed podAddress, uint256 nftId, uint256 _mediaId);\n    event DisposePod(address indexed podAddress);\n\n    constructor(\n        address _podWithdrawManagerAddress,\n        address _governanceAddress,\n        address _creationManager\n    ) {\n        _setupRole(DEFAULT_ADMIN_ROLE, msg.sender);\n        _setupRole(ADMIN, msg.sender);\n\n        podWithdrawManagerAddress = _podWithdrawManagerAddress;\n        governanceAddress = _governanceAddress;\n        creationManager = _creationManager;\n    }\n\n    /**\n     * @notice allows admins to pause the contract\n     */\n    function pause() external onlyRole(ADMIN) {\n        _pause();\n    }\n\n    /**\n     * @param _copyrightAllocation order must match _pod.owners + last position for investors\n     */\n    function registerPodProposal(\n        Pod memory _pod,\n        uint256[] calldata _mediaIds,\n        uint256 _royaltyPercentage,\n        PodDescription calldata _podDescription,\n        uint256 _copyrightTokenSupply,\n        uint256[] calldata _copyrightAllocation\n    ) external whenNotPaused {\n        require(_pod.spread > 0 && _pod.spread < PRECISION, \"Invalid spread\");\n        require(_pod.fundingTokenPrice > 0, \"Invalid Token Price\");\n        require(_pod.owners.length > 0, \"No owners\");\n        require(_mediaIds.length > 0, \"No medias\");\n        require(_copyrightAllocation.length == _pod.owners.length + 1, \"Invalid copyright allocation\");\n        uint256 copyrightAllocationSum;\n        for (uint256 i = 0; i < _copyrightAllocation.length; i += 1) {\n            copyrightAllocationSum += _copyrightAllocation[i];\n        }\n        require(copyrightAllocationSum == 100, \"Wrong copyright allocation\");\n\n        podProposals[nextProposalId] = PodProposal({\n            pod: _pod,\n            start: block.timestamp,\n            votes: 0,\n            mediaIds: _mediaIds,\n            royaltyPercentage: _royaltyPercentage,\n            podDescription: _podDescription,\n            copyrightTokenSupply: _copyrightTokenSupply,\n            copyrightAllocation: _copyrightAllocation\n        });\n\n        emit PodProposalCreated(nextProposalId);\n\n        nextProposalId += 1;\n    }\n\n    function voteForPodProposal(uint256 id) external whenNotPaused {\n        require(\n            block.timestamp - podProposals[id].start <= Governance(governanceAddress).getPodVotingPeriod(),\n            \"Voting period ended\"\n        );\n        require(!podProposalToAccountToVoted[id][msg.sender], \"Account already voted\");\n        bool senderFoundInOwners = false;\n        for (uint256 i = 0; i < podProposals[id].pod.owners.length; i += 1) {\n            if (podProposals[id].pod.owners[i] == msg.sender) {\n                senderFoundInOwners = true;\n            }\n        }\n        require(senderFoundInOwners, \"Only owners can vote\");\n\n        podProposals[id].votes += 1;\n        podProposalToAccountToVoted[id][msg.sender] = true;\n\n        emit ProposalVoted(id, msg.sender);\n    }\n\n    function executePodProposal(uint256 id) external whenNotPaused {\n        PodProposal memory _podProposal = podProposals[id];\n        Pod memory _pod = _podProposal.pod;\n        require(podProposals[id].votes == _pod.owners.length, \"Proposal not accepted\");\n        require(_pod.fundingDate >= block.timestamp, \"Funding date in the past\");\n\n        address podAddress = CreationManager(creationManager).createPodToken(\n            _podProposal.podDescription.podTokenName,\n            _podProposal.podDescription.podTokenSymbol\n        );\n        _pod.podAddress = podAddress;\n\n        address copyrightToken = CreationManager(creationManager).createCopyrightToken(\n            string(abi.encode(_podProposal.podDescription.podTokenName, \" Copyright\")),\n            string(abi.encode(_podProposal.podDescription.podTokenSymbol, \"C\")),\n            _pod.owners,\n            _podProposal.copyrightAllocation,\n            _podProposal.copyrightTokenSupply\n        );\n\n        address erc721WithRoyalty = CreationManager(creationManager).createErc721WithRoyalty(\n            _podProposal.podDescription.podTokenName,\n            _podProposal.podDescription.podTokenSymbol,\n            podAddress,\n            _podProposal.royaltyPercentage\n        );\n\n        _pods[podAddress] = PodInfo({\n            status: FUNDING_STATE,\n            mediaIds: _podProposal.mediaIds,\n            registeredMediaIds: new uint256[](0),\n            raisedFunds: 0,\n            nftContract: erc721WithRoyalty,\n            pod: _pod,\n            copyrightToken: copyrightToken,\n            copyrightSupplyInvestors: _podProposal.copyrightAllocation[\n                _podProposal.copyrightAllocation.length - 1\n            ]\n        });\n\n        // save the pod owners\n        PodWithdrawManager(podWithdrawManagerAddress).savePodOwners(podAddress, _pod.owners);\n\n        emit CreatePod(podAddress);\n    }\n\n    /**\n     * @notice allows investors to invest on a pod\n     * @dev using check-effect-interaction pattern to avoid reentrancy\n     * @param _podAddress the address of pod\n     * @param _amount the amount to invest\n     */\n    function investPod(address _podAddress, uint256 _amount) external whenNotPaused {\n        require(_amount > 0, \"Invalid amount\");\n\n        // get pod info\n        PodInfo memory podInfo = getPodInfo(_podAddress);\n\n        // solhint-disable-next-line\n        require(podInfo.pod.fundingDate >= block.timestamp, \"Funding date in the past\");\n        require(podInfo.status == FUNDING_STATE, \"Invalid status\");\n\n        uint256 amountToInvest = podInfo.pod.fundingTarget - podInfo.raisedFunds;\n        if (_amount < amountToInvest) {\n            amountToInvest = _amount;\n        }\n\n        uint256 tokensToReturn = (amountToInvest * PRECISION) / podInfo.pod.fundingTokenPrice;\n        require(tokensToReturn > 0, \"0 tokens to return\");\n\n        // update pod status\n        if (podInfo.raisedFunds + amountToInvest >= podInfo.pod.fundingTarget) {\n            _pods[_podAddress].status = FUNDED_STATE;\n        }\n        _pods[_podAddress].raisedFunds += amountToInvest;\n\n        // make the transfers (should have the allowance)\n        require(\n            ERC20(podInfo.pod.fundingToken).transferFrom(msg.sender, _podAddress, amountToInvest),\n            \"Fail to transfer funds\"\n        );\n\n        _podTokensClaimable[msg.sender] += tokensToReturn;\n\n        emit InvestPod(msg.sender, _podAddress, amountToInvest);\n    }\n\n    function claimPodTokens(address _podAddress) external nonReentrant {\n        PodInfo memory podInfo = getPodInfo(_podAddress);\n        require(podInfo.pod.fundingDate >= block.timestamp, \"Funding date in the past\");\n        require(podInfo.raisedFunds >= podInfo.pod.fundingTarget, \"Funding target not reached\");\n\n        PodToken(podInfo.pod.podAddress).mint(msg.sender, _podTokensClaimable[msg.sender]);\n\n        uint256 totalSupplyPodTokens = PodToken(podInfo.pod.podAddress).totalSupply();\n        uint256 copyrightTokensToSend = (podInfo.copyrightSupplyInvestors * _podTokensClaimable[msg.sender]) /\n            totalSupplyPodTokens;\n        CopyrightToken(podInfo.copyrightToken).mint(address(this), copyrightTokensToSend);\n\n        delete _podTokensClaimable[msg.sender];\n    }\n\n    function stakePodTokens(address _podAddress, uint256 amount) external {\n        PodInfo memory podInfo = getPodInfo(_podAddress);\n        require(podInfo.pod.fundingDate >= block.timestamp, \"Funding date in the past\");\n        require(podInfo.status == FUNDED_STATE, \"Pod not in funded state\");\n\n        _podTokensStaked[msg.sender] += amount;\n        require(\n            PodToken(podInfo.pod.podAddress).transferFrom(msg.sender, address(this), amount),\n            \"Transfer failed\"\n        );\n    }\n\n    /**\n     * @notice allows media creators to upload a new media to a given pod\n     */\n    function uploadMedia(address _podAddress, uint256 _mediaId) external {\n        require(_pods[_podAddress].status != DISPOSED_STATE, \"Unexisten or invalid pod\");\n        require(isOwner(_podAddress, msg.sender), \"Only owners can upload the Media\");\n        require(isUploadedMedia(_podAddress, _mediaId), \"Media id is wrong or already uploaded\");\n\n        // get pod info\n        PodInfo memory podInfo = getPodInfo(_podAddress);\n\n        ERC721WithRoyalty(podInfo.nftContract).mint(\n            _podAddress,\n            _pods[_podAddress].registeredMediaIds.length + 1\n        );\n        _pods[_podAddress].registeredMediaIds.push(_mediaId);\n\n        // emit the event if the creation was successful\n        emit UploadMedia(_podAddress, _pods[_podAddress].registeredMediaIds.length + 1, _mediaId);\n    }\n\n    /**\n     * @notice allows the disposing of a pod when funding target is not reached\n     */\n    function disposePod(address _podAddress) external {\n        PodInfo memory podInfo = getPodInfo(_podAddress);\n\n        if (podInfo.raisedFunds < podInfo.pod.fundingTarget && podInfo.pod.fundingDate > block.timestamp) {\n            revert(\"Undisposable pod\");\n        }\n\n        // set the status to disposed\n        _pods[_podAddress].status = DISPOSED_STATE;\n\n        // emit the event if the dispose was successful\n        emit DisposePod(_podAddress);\n    }\n\n    /**\n     * @dev helper to get a pod checking if exists\n     */\n    function getPodInfo(address _podAddress) public view returns (PodInfo memory podInfo) {\n        require(_pods[_podAddress].mediaIds.length > 0, \"Unexistent pod\");\n        podInfo = _pods[_podAddress];\n    }\n\n    function isOwner(address podAddress, address account) public view returns (bool) {\n        for (uint256 i = 0; i < _pods[podAddress].pod.owners.length; i += 1) {\n            if (_pods[podAddress].pod.owners[i] == account) {\n                return true;\n            }\n        }\n        return false;\n    }\n\n    function isUploadedMedia(address podAddress, uint256 mediaId) public view returns (bool) {\n        for (uint256 i = 0; i < _pods[podAddress].registeredMediaIds.length; i += 1) {\n            if (_pods[podAddress].registeredMediaIds[i] == mediaId) {\n                return true;\n            }\n        }\n        return false;\n    }\n}\n",
  "sourcePath": "/Users/angelsatorresalmenara/Desktop/privi-pod/contracts/PodManager.sol",
  "compiler": {
    "name": "solc",
    "version": "0.8.6+commit.11564f7e.Emscripten.clang"
  },
  "schemaVersion": "3.4.3",
  "updatedAt": "2021-09-15T13:57:56.504Z",
  "devdoc": {
    "author": "Eric Nordelo",
    "kind": "dev",
    "methods": {
      "getPodInfo(address)": {
        "details": "helper to get a pod checking if exists"
      },
      "getRoleAdmin(bytes32)": {
        "details": "Returns the admin role that controls `role`. See {grantRole} and {revokeRole}. To change a role's admin, use {_setRoleAdmin}."
      },
      "grantRole(bytes32,address)": {
        "details": "Grants `role` to `account`. If `account` had not been already granted `role`, emits a {RoleGranted} event. Requirements: - the caller must have ``role``'s admin role."
      },
      "hasRole(bytes32,address)": {
        "details": "Returns `true` if `account` has been granted `role`."
      },
      "investPod(address,uint256)": {
        "details": "using check-effect-interaction pattern to avoid reentrancy",
        "params": {
          "_amount": "the amount to invest",
          "_podAddress": "the address of pod"
        }
      },
      "paused()": {
        "details": "Returns true if the contract is paused, and false otherwise."
      },
      "registerPodProposal((address[],address,uint64,uint16,address,uint64,uint256),uint256[],uint256,(string,string),uint256,uint256[])": {
        "params": {
          "_copyrightAllocation": "order must match _pod.owners + last position for investors"
        }
      },
      "renounceRole(bytes32,address)": {
        "details": "Revokes `role` from the calling account. Roles are often managed via {grantRole} and {revokeRole}: this function's purpose is to provide a mechanism for accounts to lose their privileges if they are compromised (such as when a trusted device is misplaced). If the calling account had been granted `role`, emits a {RoleRevoked} event. Requirements: - the caller must be `account`."
      },
      "revokeRole(bytes32,address)": {
        "details": "Revokes `role` from `account`. If `account` had been granted `role`, emits a {RoleRevoked} event. Requirements: - the caller must have ``role``'s admin role."
      },
      "supportsInterface(bytes4)": {
        "details": "See {IERC165-supportsInterface}."
      }
    },
    "title": "pod contracts deployer and manager",
    "version": 1
  },
  "userdoc": {
    "kind": "user",
    "methods": {
      "disposePod(address)": {
        "notice": "allows the disposing of a pod when funding target is not reached"
      },
      "investPod(address,uint256)": {
        "notice": "allows investors to invest on a pod"
      },
      "pause()": {
        "notice": "allows admins to pause the contract"
      },
      "uploadMedia(address,uint256)": {
        "notice": "allows media creators to upload a new media to a given pod"
      }
    },
    "version": 1
  }
}