{
  "contractName": "PodToken",
  "abi": [
    {
      "inputs": [],
      "stateMutability": "nonpayable",
      "type": "constructor"
    },
    {
      "anonymous": false,
      "inputs": [
        {
          "indexed": true,
          "internalType": "address",
          "name": "owner",
          "type": "address"
        },
        {
          "indexed": true,
          "internalType": "address",
          "name": "spender",
          "type": "address"
        },
        {
          "indexed": false,
          "internalType": "uint256",
          "name": "value",
          "type": "uint256"
        }
      ],
      "name": "Approval",
      "type": "event"
    },
    {
      "anonymous": false,
      "inputs": [
        {
          "indexed": false,
          "internalType": "address",
          "name": "account",
          "type": "address"
        }
      ],
      "name": "Paused",
      "type": "event"
    },
    {
      "anonymous": false,
      "inputs": [
        {
          "indexed": true,
          "internalType": "bytes32",
          "name": "role",
          "type": "bytes32"
        },
        {
          "indexed": true,
          "internalType": "bytes32",
          "name": "previousAdminRole",
          "type": "bytes32"
        },
        {
          "indexed": true,
          "internalType": "bytes32",
          "name": "newAdminRole",
          "type": "bytes32"
        }
      ],
      "name": "RoleAdminChanged",
      "type": "event"
    },
    {
      "anonymous": false,
      "inputs": [
        {
          "indexed": true,
          "internalType": "bytes32",
          "name": "role",
          "type": "bytes32"
        },
        {
          "indexed": true,
          "internalType": "address",
          "name": "account",
          "type": "address"
        },
        {
          "indexed": true,
          "internalType": "address",
          "name": "sender",
          "type": "address"
        }
      ],
      "name": "RoleGranted",
      "type": "event"
    },
    {
      "anonymous": false,
      "inputs": [
        {
          "indexed": true,
          "internalType": "bytes32",
          "name": "role",
          "type": "bytes32"
        },
        {
          "indexed": true,
          "internalType": "address",
          "name": "account",
          "type": "address"
        },
        {
          "indexed": true,
          "internalType": "address",
          "name": "sender",
          "type": "address"
        }
      ],
      "name": "RoleRevoked",
      "type": "event"
    },
    {
      "anonymous": false,
      "inputs": [
        {
          "indexed": true,
          "internalType": "address",
          "name": "from",
          "type": "address"
        },
        {
          "indexed": true,
          "internalType": "address",
          "name": "to",
          "type": "address"
        },
        {
          "indexed": false,
          "internalType": "uint256",
          "name": "value",
          "type": "uint256"
        }
      ],
      "name": "Transfer",
      "type": "event"
    },
    {
      "anonymous": false,
      "inputs": [
        {
          "indexed": false,
          "internalType": "address",
          "name": "account",
          "type": "address"
        }
      ],
      "name": "Unpaused",
      "type": "event"
    },
    {
      "inputs": [],
      "name": "DEFAULT_ADMIN_ROLE",
      "outputs": [
        {
          "internalType": "bytes32",
          "name": "",
          "type": "bytes32"
        }
      ],
      "stateMutability": "view",
      "type": "function"
    },
    {
      "inputs": [],
      "name": "WITHDRAW_MANAGER_ROLE",
      "outputs": [
        {
          "internalType": "bytes32",
          "name": "",
          "type": "bytes32"
        }
      ],
      "stateMutability": "view",
      "type": "function"
    },
    {
      "inputs": [
        {
          "internalType": "address",
          "name": "owner",
          "type": "address"
        },
        {
          "internalType": "address",
          "name": "spender",
          "type": "address"
        }
      ],
      "name": "allowance",
      "outputs": [
        {
          "internalType": "uint256",
          "name": "",
          "type": "uint256"
        }
      ],
      "stateMutability": "view",
      "type": "function"
    },
    {
      "inputs": [
        {
          "internalType": "address",
          "name": "spender",
          "type": "address"
        },
        {
          "internalType": "uint256",
          "name": "amount",
          "type": "uint256"
        }
      ],
      "name": "approve",
      "outputs": [
        {
          "internalType": "bool",
          "name": "",
          "type": "bool"
        }
      ],
      "stateMutability": "nonpayable",
      "type": "function"
    },
    {
      "inputs": [
        {
          "internalType": "address",
          "name": "account",
          "type": "address"
        }
      ],
      "name": "balanceOf",
      "outputs": [
        {
          "internalType": "uint256",
          "name": "",
          "type": "uint256"
        }
      ],
      "stateMutability": "view",
      "type": "function"
    },
    {
      "inputs": [],
      "name": "decimals",
      "outputs": [
        {
          "internalType": "uint8",
          "name": "",
          "type": "uint8"
        }
      ],
      "stateMutability": "view",
      "type": "function"
    },
    {
      "inputs": [
        {
          "internalType": "address",
          "name": "spender",
          "type": "address"
        },
        {
          "internalType": "uint256",
          "name": "subtractedValue",
          "type": "uint256"
        }
      ],
      "name": "decreaseAllowance",
      "outputs": [
        {
          "internalType": "bool",
          "name": "",
          "type": "bool"
        }
      ],
      "stateMutability": "nonpayable",
      "type": "function"
    },
    {
      "inputs": [
        {
          "internalType": "bytes32",
          "name": "role",
          "type": "bytes32"
        }
      ],
      "name": "getRoleAdmin",
      "outputs": [
        {
          "internalType": "bytes32",
          "name": "",
          "type": "bytes32"
        }
      ],
      "stateMutability": "view",
      "type": "function"
    },
    {
      "inputs": [
        {
          "internalType": "bytes32",
          "name": "role",
          "type": "bytes32"
        },
        {
          "internalType": "address",
          "name": "account",
          "type": "address"
        }
      ],
      "name": "grantRole",
      "outputs": [],
      "stateMutability": "nonpayable",
      "type": "function"
    },
    {
      "inputs": [
        {
          "internalType": "bytes32",
          "name": "role",
          "type": "bytes32"
        },
        {
          "internalType": "address",
          "name": "account",
          "type": "address"
        }
      ],
      "name": "hasRole",
      "outputs": [
        {
          "internalType": "bool",
          "name": "",
          "type": "bool"
        }
      ],
      "stateMutability": "view",
      "type": "function"
    },
    {
      "inputs": [
        {
          "internalType": "address",
          "name": "spender",
          "type": "address"
        },
        {
          "internalType": "uint256",
          "name": "addedValue",
          "type": "uint256"
        }
      ],
      "name": "increaseAllowance",
      "outputs": [
        {
          "internalType": "bool",
          "name": "",
          "type": "bool"
        }
      ],
      "stateMutability": "nonpayable",
      "type": "function"
    },
    {
      "inputs": [],
      "name": "paused",
      "outputs": [
        {
          "internalType": "bool",
          "name": "",
          "type": "bool"
        }
      ],
      "stateMutability": "view",
      "type": "function"
    },
    {
      "inputs": [
        {
          "internalType": "bytes32",
          "name": "role",
          "type": "bytes32"
        },
        {
          "internalType": "address",
          "name": "account",
          "type": "address"
        }
      ],
      "name": "renounceRole",
      "outputs": [],
      "stateMutability": "nonpayable",
      "type": "function"
    },
    {
      "inputs": [
        {
          "internalType": "bytes32",
          "name": "role",
          "type": "bytes32"
        },
        {
          "internalType": "address",
          "name": "account",
          "type": "address"
        }
      ],
      "name": "revokeRole",
      "outputs": [],
      "stateMutability": "nonpayable",
      "type": "function"
    },
    {
      "inputs": [
        {
          "internalType": "bytes4",
          "name": "interfaceId",
          "type": "bytes4"
        }
      ],
      "name": "supportsInterface",
      "outputs": [
        {
          "internalType": "bool",
          "name": "",
          "type": "bool"
        }
      ],
      "stateMutability": "view",
      "type": "function"
    },
    {
      "inputs": [],
      "name": "totalSupply",
      "outputs": [
        {
          "internalType": "uint256",
          "name": "",
          "type": "uint256"
        }
      ],
      "stateMutability": "view",
      "type": "function"
    },
    {
      "inputs": [
        {
          "internalType": "string",
          "name": "_name",
          "type": "string"
        },
        {
          "internalType": "string",
          "name": "_symbol",
          "type": "string"
        }
      ],
      "name": "initialize",
      "outputs": [],
      "stateMutability": "nonpayable",
      "type": "function"
    },
    {
      "inputs": [],
      "name": "pause",
      "outputs": [],
      "stateMutability": "nonpayable",
      "type": "function"
    },
    {
      "inputs": [],
      "name": "unpause",
      "outputs": [],
      "stateMutability": "nonpayable",
      "type": "function"
    },
    {
      "inputs": [
        {
          "internalType": "address",
          "name": "to",
          "type": "address"
        },
        {
          "internalType": "uint256",
          "name": "amount",
          "type": "uint256"
        }
      ],
      "name": "mint",
      "outputs": [],
      "stateMutability": "nonpayable",
      "type": "function"
    },
    {
      "inputs": [
        {
          "internalType": "address",
          "name": "to",
          "type": "address"
        },
        {
          "internalType": "uint256",
          "name": "amount",
          "type": "uint256"
        }
      ],
      "name": "burn",
      "outputs": [],
      "stateMutability": "nonpayable",
      "type": "function"
    },
    {
      "inputs": [
        {
          "internalType": "address",
          "name": "to",
          "type": "address"
        },
        {
          "internalType": "uint256",
          "name": "amount",
          "type": "uint256"
        },
        {
          "internalType": "address",
          "name": "tokenAddress",
          "type": "address"
        }
      ],
      "name": "transferContractBalance",
      "outputs": [],
      "stateMutability": "nonpayable",
      "type": "function"
    },
    {
      "inputs": [
        {
          "internalType": "address",
          "name": "recipient",
          "type": "address"
        },
        {
          "internalType": "uint256",
          "name": "amount",
          "type": "uint256"
        }
      ],
      "name": "transfer",
      "outputs": [
        {
          "internalType": "bool",
          "name": "",
          "type": "bool"
        }
      ],
      "stateMutability": "nonpayable",
      "type": "function"
    },
    {
      "inputs": [
        {
          "internalType": "address",
          "name": "sender",
          "type": "address"
        },
        {
          "internalType": "address",
          "name": "recipient",
          "type": "address"
        },
        {
          "internalType": "uint256",
          "name": "amount",
          "type": "uint256"
        }
      ],
      "name": "transferFrom",
      "outputs": [
        {
          "internalType": "bool",
          "name": "",
          "type": "bool"
        }
      ],
      "stateMutability": "nonpayable",
      "type": "function"
    },
    {
      "inputs": [
        {
          "internalType": "address",
          "name": "_investor",
          "type": "address"
        },
        {
          "internalType": "address",
          "name": "_tokenAddress",
          "type": "address"
        },
        {
          "internalType": "uint256",
          "name": "_tokenPrice",
          "type": "uint256"
        }
      ],
      "name": "returnPodTokens",
      "outputs": [],
      "stateMutability": "nonpayable",
      "type": "function"
    },
    {
      "inputs": [],
      "name": "name",
      "outputs": [
        {
          "internalType": "string",
          "name": "",
          "type": "string"
        }
      ],
      "stateMutability": "view",
      "type": "function"
    },
    {
      "inputs": [],
      "name": "symbol",
      "outputs": [
        {
          "internalType": "string",
          "name": "",
          "type": "string"
        }
      ],
      "stateMutability": "view",
      "type": "function"
    }
  ],
  "bytecode": "0x60806040523480156200001157600080fd5b506040518060400160405280601e81526020017f507269766920506f6420546f6b656e20496d706c656d656e746174696f6e00008152506040518060400160405280600581526020017f70504f4454000000000000000000000000000000000000000000000000000000815250816003908051906020019062000096929190620000d3565b508060049080519060200190620000af929190620000d3565b5050506000600560006101000a81548160ff021916908315150217905550620001e8565b828054620000e19062000183565b90600052602060002090601f01602090048101928262000105576000855562000151565b82601f106200012057805160ff191683800117855562000151565b8280016001018555821562000151579182015b828111156200015057825182559160200191906001019062000133565b5b50905062000160919062000164565b5090565b5b808211156200017f57600081600090555060010162000165565b5090565b600060028204905060018216806200019c57607f821691505b60208210811415620001b357620001b2620001b9565b5b50919050565b7f4e487b7100000000000000000000000000000000000000000000000000000000600052602260045260246000fd5b61331580620001f86000396000f3fe608060405234801561001057600080fd5b50600436106101a95760003560e01c80634cd88b76116100f9578063a217fddf11610097578063cfc82dab11610071578063cfc82dab146104ce578063d547741f146104ea578063dd62ed3e14610506578063e1b0861914610536576101a9565b8063a217fddf14610450578063a457c2d71461046e578063a9059cbb1461049e576101a9565b80638456cb59116100d35780638456cb59146103dc57806391d14854146103e657806395d89b41146104165780639dc29fac14610434576101a9565b80634cd88b76146103725780635c975abb1461038e57806370a08231146103ac576101a9565b8063248a9ca31161016657806336568abe1161014057806336568abe14610300578063395093511461031c5780633f4ba83a1461034c57806340c10f1914610356576101a9565b8063248a9ca3146102965780632f2ff15d146102c6578063313ce567146102e2576101a9565b806301ffc9a7146101ae57806306fdde03146101de578063095ea7b3146101fc57806318160ddd1461022c57806319da80621461024a57806323b872dd14610266575b600080fd5b6101c860048036038101906101c391906122ff565b610554565b6040516101d591906127a6565b60405180910390f35b6101e66105ce565b6040516101f391906127dc565b60405180910390f35b610216600480360381019061021191906121d2565b610660565b60405161022391906127a6565b60405180910390f35b61023461067e565b6040516102419190612a1e565b60405180910390f35b610264600480360381019061025f919061217f565b610688565b005b610280600480360381019061027b919061217f565b6107c2565b60405161028d91906127a6565b60405180910390f35b6102b060048036038101906102ab9190612292565b610820565b6040516102bd91906127c1565b60405180910390f35b6102e060048036038101906102db91906122bf565b610840565b005b6102ea610869565b6040516102f79190612a39565b60405180910390f35b61031a600480360381019061031591906122bf565b610872565b005b610336600480360381019061033191906121d2565b6108f5565b60405161034391906127a6565b60405180910390f35b6103546109a1565b005b610370600480360381019061036b91906121d2565b6109c1565b005b61038c6004803603810190610387919061232c565b6109e5565b005b610396610b00565b6040516103a391906127a6565b60405180910390f35b6103c660048036038101906103c19190612112565b610b17565b6040516103d39190612a1e565b60405180910390f35b6103e4610b5f565b005b61040060048036038101906103fb91906122bf565b610b7f565b60405161040d91906127a6565b60405180910390f35b61041e610bea565b60405161042b91906127dc565b60405180910390f35b61044e600480360381019061044991906121d2565b610c7c565b005b610458610ca0565b60405161046591906127c1565b60405180910390f35b610488600480360381019061048391906121d2565b610ca7565b60405161049591906127a6565b60405180910390f35b6104b860048036038101906104b391906121d2565b610d92565b6040516104c591906127a6565b60405180910390f35b6104e860048036038101906104e39190612212565b610dee565b005b61050460048036038101906104ff91906122bf565b610fc3565b005b610520600480360381019061051b919061213f565b610fec565b60405161052d9190612a1e565b60405180910390f35b61053e611073565b60405161054b91906127c1565b60405180910390f35b60007f7965db0b000000000000000000000000000000000000000000000000000000007bffffffffffffffffffffffffffffffffffffffffffffffffffffffff1916827bffffffffffffffffffffffffffffffffffffffffffffffffffffffff191614806105c757506105c682611097565b5b9050919050565b6060600880546105dd90612c78565b80601f016020809104026020016040519081016040528092919081815260200182805461060990612c78565b80156106565780601f1061062b57610100808354040283529160200191610656565b820191906000526020600020905b81548152906001019060200180831161063957829003601f168201915b5050505050905090565b600061067461066d611101565b8484611109565b6001905092915050565b6000600254905090565b7fbe4b8ff2378fafab5b779323935cef89cecb6bffd2e15c86526a218902195a356106ba816106b5611101565b6112d4565b60006106c585610b17565b9050600061271084836106d89190612b02565b6106e29190612ad1565b90506106ee8683611371565b8473ffffffffffffffffffffffffffffffffffffffff1663a9059cbb87836040518363ffffffff1660e01b815260040161072992919061277d565b602060405180830381600087803b15801561074357600080fd5b505af1158015610757573d6000803e3d6000fd5b505050506040513d601f19601f8201168201806040525081019061077b9190612265565b6107ba576040517f08c379a00000000000000000000000000000000000000000000000000000000081526004016107b1906128be565b60405180910390fd5b505050505050565b60006107cc610b00565b1561080c576040517f08c379a0000000000000000000000000000000000000000000000000000000008152600401610803906128de565b60405180910390fd5b610817848484611548565b90509392505050565b600060066000838152602001908152602001600020600101549050919050565b61084982610820565b61085a81610855611101565b6112d4565b6108648383611640565b505050565b60006012905090565b61087a611101565b73ffffffffffffffffffffffffffffffffffffffff168173ffffffffffffffffffffffffffffffffffffffff16146108e7576040517f08c379a00000000000000000000000000000000000000000000000000000000081526004016108de906129de565b60405180910390fd5b6108f18282611721565b5050565b6000610997610902611101565b848460016000610910611101565b73ffffffffffffffffffffffffffffffffffffffff1673ffffffffffffffffffffffffffffffffffffffff16815260200190815260200160002060008873ffffffffffffffffffffffffffffffffffffffff1673ffffffffffffffffffffffffffffffffffffffff168152602001908152602001600020546109929190612a7b565b611109565b6001905092915050565b6000801b6109b6816109b1611101565b6112d4565b6109be611803565b50565b6000801b6109d6816109d1611101565b6112d4565b6109e083836118a5565b505050565b600760019054906101000a900460ff1680610a0d5750600760009054906101000a900460ff16155b610a4c576040517f08c379a0000000000000000000000000000000000000000000000000000000008152600401610a43906128fe565b60405180910390fd5b6000600760019054906101000a900460ff161590508015610a9e576001600760016101000a81548160ff0219169083151502179055506001600760006101000a81548160ff0219169083151502179055505b848460089190610aaf929190611f9b565b50828260099190610ac1929190611f9b565b50610aca611a05565b610ad76000801b33611aa8565b8015610af9576000600760016101000a81548160ff0219169083151502179055505b5050505050565b6000600560009054906101000a900460ff16905090565b60008060008373ffffffffffffffffffffffffffffffffffffffff1673ffffffffffffffffffffffffffffffffffffffff168152602001908152602001600020549050919050565b6000801b610b7481610b6f611101565b6112d4565b610b7c611a05565b50565b60006006600084815260200190815260200160002060000160008373ffffffffffffffffffffffffffffffffffffffff1673ffffffffffffffffffffffffffffffffffffffff16815260200190815260200160002060009054906101000a900460ff16905092915050565b606060098054610bf990612c78565b80601f0160208091040260200160405190810160405280929190818152602001828054610c2590612c78565b8015610c725780601f10610c4757610100808354040283529160200191610c72565b820191906000526020600020905b815481529060010190602001808311610c5557829003601f168201915b5050505050905090565b6000801b610c9181610c8c611101565b6112d4565b610c9b8383611371565b505050565b6000801b81565b60008060016000610cb6611101565b73ffffffffffffffffffffffffffffffffffffffff1673ffffffffffffffffffffffffffffffffffffffff16815260200190815260200160002060008573ffffffffffffffffffffffffffffffffffffffff1673ffffffffffffffffffffffffffffffffffffffff16815260200190815260200160002054905082811015610d73576040517f08c379a0000000000000000000000000000000000000000000000000000000008152600401610d6a906129be565b60405180910390fd5b610d87610d7e611101565b85858403611109565b600191505092915050565b6000610d9c610b00565b15610ddc576040517f08c379a0000000000000000000000000000000000000000000000000000000008152600401610dd3906128de565b60405180910390fd5b610de68383611ab6565b905092915050565b7fbe4b8ff2378fafab5b779323935cef89cecb6bffd2e15c86526a218902195a35610e2081610e1b611101565b6112d4565b60008273ffffffffffffffffffffffffffffffffffffffff166370a08231306040518263ffffffff1660e01b8152600401610e5b9190612762565b60206040518083038186803b158015610e7357600080fd5b505afa158015610e87573d6000803e3d6000fd5b505050506040513d601f19601f82011682018060405250810190610eab91906123ad565b905083811015610ef0576040517f08c379a0000000000000000000000000000000000000000000000000000000008152600401610ee79061299e565b60405180910390fd5b8273ffffffffffffffffffffffffffffffffffffffff1663a9059cbb86866040518363ffffffff1660e01b8152600401610f2b92919061277d565b602060405180830381600087803b158015610f4557600080fd5b505af1158015610f59573d6000803e3d6000fd5b505050506040513d601f19601f82011682018060405250810190610f7d9190612265565b610fbc576040517f08c379a0000000000000000000000000000000000000000000000000000000008152600401610fb3906128be565b60405180910390fd5b5050505050565b610fcc82610820565b610fdd81610fd8611101565b6112d4565b610fe78383611721565b505050565b6000600160008473ffffffffffffffffffffffffffffffffffffffff1673ffffffffffffffffffffffffffffffffffffffff16815260200190815260200160002060008373ffffffffffffffffffffffffffffffffffffffff1673ffffffffffffffffffffffffffffffffffffffff16815260200190815260200160002054905092915050565b7fbe4b8ff2378fafab5b779323935cef89cecb6bffd2e15c86526a218902195a3581565b60007f01ffc9a7000000000000000000000000000000000000000000000000000000007bffffffffffffffffffffffffffffffffffffffffffffffffffffffff1916827bffffffffffffffffffffffffffffffffffffffffffffffffffffffff1916149050919050565b600033905090565b600073ffffffffffffffffffffffffffffffffffffffff168373ffffffffffffffffffffffffffffffffffffffff161415611179576040517f08c379a00000000000000000000000000000000000000000000000000000000081526004016111709061297e565b60405180910390fd5b600073ffffffffffffffffffffffffffffffffffffffff168273ffffffffffffffffffffffffffffffffffffffff1614156111e9576040517f08c379a00000000000000000000000000000000000000000000000000000000081526004016111e09061287e565b60405180910390fd5b80600160008573ffffffffffffffffffffffffffffffffffffffff1673ffffffffffffffffffffffffffffffffffffffff16815260200190815260200160002060008473ffffffffffffffffffffffffffffffffffffffff1673ffffffffffffffffffffffffffffffffffffffff168152602001908152602001600020819055508173ffffffffffffffffffffffffffffffffffffffff168373ffffffffffffffffffffffffffffffffffffffff167f8c5be1e5ebec7d5bd14f71427d1e84f3dd0314c0f7b2291e5b200ac8c7c3b925836040516112c79190612a1e565b60405180910390a3505050565b6112de8282610b7f565b61136d576113038173ffffffffffffffffffffffffffffffffffffffff166014611ad4565b6113118360001c6020611ad4565b604051602001611322929190612728565b6040516020818303038152906040526040517f08c379a000000000000000000000000000000000000000000000000000000000815260040161136491906127dc565b60405180910390fd5b5050565b600073ffffffffffffffffffffffffffffffffffffffff168273ffffffffffffffffffffffffffffffffffffffff1614156113e1576040517f08c379a00000000000000000000000000000000000000000000000000000000081526004016113d89061293e565b60405180910390fd5b6113ed82600083611d10565b60008060008473ffffffffffffffffffffffffffffffffffffffff1673ffffffffffffffffffffffffffffffffffffffff16815260200190815260200160002054905081811015611473576040517f08c379a000000000000000000000000000000000000000000000000000000000815260040161146a9061285e565b60405180910390fd5b8181036000808573ffffffffffffffffffffffffffffffffffffffff1673ffffffffffffffffffffffffffffffffffffffff1681526020019081526020016000208190555081600260008282546114ca9190612b5c565b92505081905550600073ffffffffffffffffffffffffffffffffffffffff168373ffffffffffffffffffffffffffffffffffffffff167fddf252ad1be2c89b69c2b068fc378daa952ba7f163c4a11628f55a4df523b3ef8460405161152f9190612a1e565b60405180910390a361154383600084611d15565b505050565b6000611555848484611d1a565b6000600160008673ffffffffffffffffffffffffffffffffffffffff1673ffffffffffffffffffffffffffffffffffffffff16815260200190815260200160002060006115a0611101565b73ffffffffffffffffffffffffffffffffffffffff1673ffffffffffffffffffffffffffffffffffffffff16815260200190815260200160002054905082811015611620576040517f08c379a00000000000000000000000000000000000000000000000000000000081526004016116179061291e565b60405180910390fd5b6116348561162c611101565b858403611109565b60019150509392505050565b61164a8282610b7f565b61171d5760016006600084815260200190815260200160002060000160008373ffffffffffffffffffffffffffffffffffffffff1673ffffffffffffffffffffffffffffffffffffffff16815260200190815260200160002060006101000a81548160ff0219169083151502179055506116c2611101565b73ffffffffffffffffffffffffffffffffffffffff168173ffffffffffffffffffffffffffffffffffffffff16837f2f8788117e7eff1d82e926ec794901d17c78024a50270940304540a733656f0d60405160405180910390a45b5050565b61172b8282610b7f565b156117ff5760006006600084815260200190815260200160002060000160008373ffffffffffffffffffffffffffffffffffffffff1673ffffffffffffffffffffffffffffffffffffffff16815260200190815260200160002060006101000a81548160ff0219169083151502179055506117a4611101565b73ffffffffffffffffffffffffffffffffffffffff168173ffffffffffffffffffffffffffffffffffffffff16837ff6391f5c32d9c69d2a47ea670b442974b53935d1edc7fd64eb21e047a839171b60405160405180910390a45b5050565b61180b610b00565b61184a576040517f08c379a00000000000000000000000000000000000000000000000000000000081526004016118419061283e565b60405180910390fd5b6000600560006101000a81548160ff0219169083151502179055507f5db9ee0a495bf2e6ff9c91a7834c1ba4fdd244a5e8aa4e537bd38aeae4b073aa61188e611101565b60405161189b9190612762565b60405180910390a1565b600073ffffffffffffffffffffffffffffffffffffffff168273ffffffffffffffffffffffffffffffffffffffff161415611915576040517f08c379a000000000000000000000000000000000000000000000000000000000815260040161190c906129fe565b60405180910390fd5b61192160008383611d10565b80600260008282546119339190612a7b565b92505081905550806000808473ffffffffffffffffffffffffffffffffffffffff1673ffffffffffffffffffffffffffffffffffffffff16815260200190815260200160002060008282546119889190612a7b565b925050819055508173ffffffffffffffffffffffffffffffffffffffff16600073ffffffffffffffffffffffffffffffffffffffff167fddf252ad1be2c89b69c2b068fc378daa952ba7f163c4a11628f55a4df523b3ef836040516119ed9190612a1e565b60405180910390a3611a0160008383611d15565b5050565b611a0d610b00565b15611a4d576040517f08c379a0000000000000000000000000000000000000000000000000000000008152600401611a44906128de565b60405180910390fd5b6001600560006101000a81548160ff0219169083151502179055507f62e78cea01bee320cd4e420270b5ea74000d11b0c9f74754ebdbfc544b05a258611a91611101565b604051611a9e9190612762565b60405180910390a1565b611ab28282611640565b5050565b6000611aca611ac3611101565b8484611d1a565b6001905092915050565b606060006002836002611ae79190612b02565b611af19190612a7b565b67ffffffffffffffff811115611b0a57611b09612d66565b5b6040519080825280601f01601f191660200182016040528015611b3c5781602001600182028036833780820191505090505b5090507f300000000000000000000000000000000000000000000000000000000000000081600081518110611b7457611b73612d37565b5b60200101907effffffffffffffffffffffffffffffffffffffffffffffffffffffffffffff1916908160001a9053507f780000000000000000000000000000000000000000000000000000000000000081600181518110611bd857611bd7612d37565b5b60200101907effffffffffffffffffffffffffffffffffffffffffffffffffffffffffffff1916908160001a90535060006001846002611c189190612b02565b611c229190612a7b565b90505b6001811115611cc2577f3031323334353637383961626364656600000000000000000000000000000000600f861660108110611c6457611c63612d37565b5b1a60f81b828281518110611c7b57611c7a612d37565b5b60200101907effffffffffffffffffffffffffffffffffffffffffffffffffffffffffffff1916908160001a905350600485901c945080611cbb90612c4e565b9050611c25565b5060008414611d06576040517f08c379a0000000000000000000000000000000000000000000000000000000008152600401611cfd906127fe565b60405180910390fd5b8091505092915050565b505050565b505050565b600073ffffffffffffffffffffffffffffffffffffffff168373ffffffffffffffffffffffffffffffffffffffff161415611d8a576040517f08c379a0000000000000000000000000000000000000000000000000000000008152600401611d819061295e565b60405180910390fd5b600073ffffffffffffffffffffffffffffffffffffffff168273ffffffffffffffffffffffffffffffffffffffff161415611dfa576040517f08c379a0000000000000000000000000000000000000000000000000000000008152600401611df19061281e565b60405180910390fd5b611e05838383611d10565b60008060008573ffffffffffffffffffffffffffffffffffffffff1673ffffffffffffffffffffffffffffffffffffffff16815260200190815260200160002054905081811015611e8b576040517f08c379a0000000000000000000000000000000000000000000000000000000008152600401611e829061289e565b60405180910390fd5b8181036000808673ffffffffffffffffffffffffffffffffffffffff1673ffffffffffffffffffffffffffffffffffffffff16815260200190815260200160002081905550816000808573ffffffffffffffffffffffffffffffffffffffff1673ffffffffffffffffffffffffffffffffffffffff1681526020019081526020016000206000828254611f1e9190612a7b565b925050819055508273ffffffffffffffffffffffffffffffffffffffff168473ffffffffffffffffffffffffffffffffffffffff167fddf252ad1be2c89b69c2b068fc378daa952ba7f163c4a11628f55a4df523b3ef84604051611f829190612a1e565b60405180910390a3611f95848484611d15565b50505050565b828054611fa790612c78565b90600052602060002090601f016020900481019282611fc95760008555612010565b82601f10611fe257803560ff1916838001178555612010565b82800160010185558215612010579182015b8281111561200f578235825591602001919060010190611ff4565b5b50905061201d9190612021565b5090565b5b8082111561203a576000816000905550600101612022565b5090565b60008135905061204d8161326c565b92915050565b60008151905061206281613283565b92915050565b6000813590506120778161329a565b92915050565b60008135905061208c816132b1565b92915050565b60008083601f8401126120a8576120a7612d9a565b5b8235905067ffffffffffffffff8111156120c5576120c4612d95565b5b6020830191508360018202830111156120e1576120e0612d9f565b5b9250929050565b6000813590506120f7816132c8565b92915050565b60008151905061210c816132c8565b92915050565b60006020828403121561212857612127612da9565b5b60006121368482850161203e565b91505092915050565b6000806040838503121561215657612155612da9565b5b60006121648582860161203e565b92505060206121758582860161203e565b9150509250929050565b60008060006060848603121561219857612197612da9565b5b60006121a68682870161203e565b93505060206121b78682870161203e565b92505060406121c8868287016120e8565b9150509250925092565b600080604083850312156121e9576121e8612da9565b5b60006121f78582860161203e565b9250506020612208858286016120e8565b9150509250929050565b60008060006060848603121561222b5761222a612da9565b5b60006122398682870161203e565b935050602061224a868287016120e8565b925050604061225b8682870161203e565b9150509250925092565b60006020828403121561227b5761227a612da9565b5b600061228984828501612053565b91505092915050565b6000602082840312156122a8576122a7612da9565b5b60006122b684828501612068565b91505092915050565b600080604083850312156122d6576122d5612da9565b5b60006122e485828601612068565b92505060206122f58582860161203e565b9150509250929050565b60006020828403121561231557612314612da9565b5b60006123238482850161207d565b91505092915050565b6000806000806040858703121561234657612345612da9565b5b600085013567ffffffffffffffff81111561236457612363612da4565b5b61237087828801612092565b9450945050602085013567ffffffffffffffff81111561239357612392612da4565b5b61239f87828801612092565b925092505092959194509250565b6000602082840312156123c3576123c2612da9565b5b60006123d1848285016120fd565b91505092915050565b6123e381612b90565b82525050565b6123f281612ba2565b82525050565b61240181612bae565b82525050565b600061241282612a54565b61241c8185612a5f565b935061242c818560208601612c1b565b61243581612dae565b840191505092915050565b600061244b82612a54565b6124558185612a70565b9350612465818560208601612c1b565b80840191505092915050565b600061247e602083612a5f565b915061248982612dbf565b602082019050919050565b60006124a1602383612a5f565b91506124ac82612de8565b604082019050919050565b60006124c4601483612a5f565b91506124cf82612e37565b602082019050919050565b60006124e7602283612a5f565b91506124f282612e60565b604082019050919050565b600061250a602283612a5f565b915061251582612eaf565b604082019050919050565b600061252d602683612a5f565b915061253882612efe565b604082019050919050565b6000612550601083612a5f565b915061255b82612f4d565b602082019050919050565b6000612573601083612a5f565b915061257e82612f76565b602082019050919050565b6000612596602e83612a5f565b91506125a182612f9f565b604082019050919050565b60006125b9602883612a5f565b91506125c482612fee565b604082019050919050565b60006125dc602183612a5f565b91506125e78261303d565b604082019050919050565b60006125ff602583612a5f565b915061260a8261308c565b604082019050919050565b6000612622602483612a5f565b915061262d826130db565b604082019050919050565b6000612645601183612a5f565b91506126508261312a565b602082019050919050565b6000612668601783612a70565b915061267382613153565b601782019050919050565b600061268b602583612a5f565b91506126968261317c565b604082019050919050565b60006126ae601183612a70565b91506126b9826131cb565b601182019050919050565b60006126d1602f83612a5f565b91506126dc826131f4565b604082019050919050565b60006126f4601f83612a5f565b91506126ff82613243565b602082019050919050565b61271381612c04565b82525050565b61272281612c0e565b82525050565b60006127338261265b565b915061273f8285612440565b915061274a826126a1565b91506127568284612440565b91508190509392505050565b600060208201905061277760008301846123da565b92915050565b600060408201905061279260008301856123da565b61279f602083018461270a565b9392505050565b60006020820190506127bb60008301846123e9565b92915050565b60006020820190506127d660008301846123f8565b92915050565b600060208201905081810360008301526127f68184612407565b905092915050565b6000602082019050818103600083015261281781612471565b9050919050565b6000602082019050818103600083015261283781612494565b9050919050565b60006020820190508181036000830152612857816124b7565b9050919050565b60006020820190508181036000830152612877816124da565b9050919050565b60006020820190508181036000830152612897816124fd565b9050919050565b600060208201905081810360008301526128b781612520565b9050919050565b600060208201905081810360008301526128d781612543565b9050919050565b600060208201905081810360008301526128f781612566565b9050919050565b6000602082019050818103600083015261291781612589565b9050919050565b60006020820190508181036000830152612937816125ac565b9050919050565b60006020820190508181036000830152612957816125cf565b9050919050565b60006020820190508181036000830152612977816125f2565b9050919050565b6000602082019050818103600083015261299781612615565b9050919050565b600060208201905081810360008301526129b781612638565b9050919050565b600060208201905081810360008301526129d78161267e565b9050919050565b600060208201905081810360008301526129f7816126c4565b9050919050565b60006020820190508181036000830152612a17816126e7565b9050919050565b6000602082019050612a33600083018461270a565b92915050565b6000602082019050612a4e6000830184612719565b92915050565b600081519050919050565b600082825260208201905092915050565b600081905092915050565b6000612a8682612c04565b9150612a9183612c04565b9250827fffffffffffffffffffffffffffffffffffffffffffffffffffffffffffffffff03821115612ac657612ac5612caa565b5b828201905092915050565b6000612adc82612c04565b9150612ae783612c04565b925082612af757612af6612cd9565b5b828204905092915050565b6000612b0d82612c04565b9150612b1883612c04565b9250817fffffffffffffffffffffffffffffffffffffffffffffffffffffffffffffffff0483118215151615612b5157612b50612caa565b5b828202905092915050565b6000612b6782612c04565b9150612b7283612c04565b925082821015612b8557612b84612caa565b5b828203905092915050565b6000612b9b82612be4565b9050919050565b60008115159050919050565b6000819050919050565b60007fffffffff0000000000000000000000000000000000000000000000000000000082169050919050565b600073ffffffffffffffffffffffffffffffffffffffff82169050919050565b6000819050919050565b600060ff82169050919050565b60005b83811015612c39578082015181840152602081019050612c1e565b83811115612c48576000848401525b50505050565b6000612c5982612c04565b91506000821415612c6d57612c6c612caa565b5b600182039050919050565b60006002820490506001821680612c9057607f821691505b60208210811415612ca457612ca3612d08565b5b50919050565b7f4e487b7100000000000000000000000000000000000000000000000000000000600052601160045260246000fd5b7f4e487b7100000000000000000000000000000000000000000000000000000000600052601260045260246000fd5b7f4e487b7100000000000000000000000000000000000000000000000000000000600052602260045260246000fd5b7f4e487b7100000000000000000000000000000000000000000000000000000000600052603260045260246000fd5b7f4e487b7100000000000000000000000000000000000000000000000000000000600052604160045260246000fd5b600080fd5b600080fd5b600080fd5b600080fd5b600080fd5b6000601f19601f8301169050919050565b7f537472696e67733a20686578206c656e67746820696e73756666696369656e74600082015250565b7f45524332303a207472616e7366657220746f20746865207a65726f206164647260008201527f6573730000000000000000000000000000000000000000000000000000000000602082015250565b7f5061757361626c653a206e6f7420706175736564000000000000000000000000600082015250565b7f45524332303a206275726e20616d6f756e7420657863656564732062616c616e60008201527f6365000000000000000000000000000000000000000000000000000000000000602082015250565b7f45524332303a20617070726f766520746f20746865207a65726f20616464726560008201527f7373000000000000000000000000000000000000000000000000000000000000602082015250565b7f45524332303a207472616e7366657220616d6f756e742065786365656473206260008201527f616c616e63650000000000000000000000000000000000000000000000000000602082015250565b7f4661696c20746f207472616e7366657200000000000000000000000000000000600082015250565b7f5061757361626c653a2070617573656400000000000000000000000000000000600082015250565b7f496e697469616c697a61626c653a20636f6e747261637420697320616c72656160008201527f647920696e697469616c697a6564000000000000000000000000000000000000602082015250565b7f45524332303a207472616e7366657220616d6f756e742065786365656473206160008201527f6c6c6f77616e6365000000000000000000000000000000000000000000000000602082015250565b7f45524332303a206275726e2066726f6d20746865207a65726f2061646472657360008201527f7300000000000000000000000000000000000000000000000000000000000000602082015250565b7f45524332303a207472616e736665722066726f6d20746865207a65726f20616460008201527f6472657373000000000000000000000000000000000000000000000000000000602082015250565b7f45524332303a20617070726f76652066726f6d20746865207a65726f2061646460008201527f7265737300000000000000000000000000000000000000000000000000000000602082015250565b7f496e737566696369656e742066756e6473000000000000000000000000000000600082015250565b7f416363657373436f6e74726f6c3a206163636f756e7420000000000000000000600082015250565b7f45524332303a2064656372656173656420616c6c6f77616e63652062656c6f7760008201527f207a65726f000000000000000000000000000000000000000000000000000000602082015250565b7f206973206d697373696e6720726f6c6520000000000000000000000000000000600082015250565b7f416363657373436f6e74726f6c3a2063616e206f6e6c792072656e6f756e636560008201527f20726f6c657320666f722073656c660000000000000000000000000000000000602082015250565b7f45524332303a206d696e7420746f20746865207a65726f206164647265737300600082015250565b61327581612b90565b811461328057600080fd5b50565b61328c81612ba2565b811461329757600080fd5b50565b6132a381612bae565b81146132ae57600080fd5b50565b6132ba81612bb8565b81146132c557600080fd5b50565b6132d181612c04565b81146132dc57600080fd5b5056fea2646970667358221220f42337ab0bb16661969faca706489921793615accae3a638c916356102bdf06764736f6c63430008060033",
  "immutableReferences": {},
  "source": "// SPDX-License-Identifier: MIT\npragma solidity ^0.8.0;\n\nimport \"@openzeppelin/contracts/token/ERC20/ERC20.sol\";\nimport \"@openzeppelin/contracts/security/Pausable.sol\";\nimport \"@openzeppelin/contracts/access/AccessControl.sol\";\nimport \"@openzeppelin/contracts/proxy/utils/Initializable.sol\";\n\n/**\n * @title the implementation to clone on each pod creation\n * @author Eric Nordelo\n */\ncontract PodToken is ERC20, Pausable, AccessControl, Initializable {\n    bytes32 public constant WITHDRAW_MANAGER_ROLE = keccak256(\"WITHDRAW_MANAGER_ROLE\");\n    uint256 private constant PRICE_PRECISION = 10000;\n\n    string private _proxiedName;\n    string private _proxiedSymbol;\n\n    // solhint-disable-next-line\n    constructor() ERC20(\"Privi Pod Token Implementation\", \"pPODT\") {}\n\n    /**\n     * @notice ensures that the pod token contract begins paused and with the default admin\n     */\n    function initialize(string calldata _name, string calldata _symbol) external initializer {\n        _proxiedName = _name;\n        _proxiedSymbol = _symbol;\n\n        _pause();\n        _setupRole(DEFAULT_ADMIN_ROLE, msg.sender);\n    }\n\n    function pause() public onlyRole(DEFAULT_ADMIN_ROLE) {\n        _pause();\n    }\n\n    function unpause() public onlyRole(DEFAULT_ADMIN_ROLE) {\n        _unpause();\n    }\n\n    function mint(address to, uint256 amount) public onlyRole(DEFAULT_ADMIN_ROLE) {\n        _mint(to, amount);\n    }\n\n    function burn(address to, uint256 amount) public onlyRole(DEFAULT_ADMIN_ROLE) {\n        _burn(to, amount);\n    }\n\n    function transferContractBalance(\n        address to,\n        uint256 amount,\n        address tokenAddress\n    ) external onlyRole(WITHDRAW_MANAGER_ROLE) {\n        uint256 balance = ERC20(tokenAddress).balanceOf(address(this));\n        require(balance >= amount, \"Insuficient funds\");\n\n        require(ERC20(tokenAddress).transfer(to, amount), \"Fail to transfer\");\n    }\n\n    /**\n     * @dev ensures that only minting is allowed when paused\n     */\n    function transfer(address recipient, uint256 amount) public override whenNotPaused returns (bool) {\n        return super.transfer(recipient, amount);\n    }\n\n    /**\n     * @dev ensures that only minting is allowed when paused\n     */\n    function transferFrom(\n        address sender,\n        address recipient,\n        uint256 amount\n    ) public override whenNotPaused returns (bool) {\n        return super.transferFrom(sender, recipient, amount);\n    }\n\n    /**\n     * @notice allows the return of funds after a pod disposal\n     */\n    function returnPodTokens(\n        address _investor,\n        address _tokenAddress,\n        uint256 _tokenPrice\n    ) external onlyRole(WITHDRAW_MANAGER_ROLE) {\n        uint256 balance = balanceOf(_investor);\n        uint256 amount = (balance * _tokenPrice) / PRICE_PRECISION;\n        _burn(_investor, balance);\n\n        require(ERC20(_tokenAddress).transfer(_investor, amount), \"Fail to transfer\");\n    }\n\n    function name() public view virtual override returns (string memory) {\n        return _proxiedName;\n    }\n\n    function symbol() public view virtual override returns (string memory) {\n        return _proxiedSymbol;\n    }\n}\n",
  "sourcePath": "/Users/angelsatorresalmenara/Desktop/privi-pod/contracts/implementations/PodToken.sol",
  "compiler": {
    "name": "solc",
    "version": "0.8.6+commit.11564f7e.Emscripten.clang"
  },
  "schemaVersion": "3.4.3",
  "updatedAt": "2021-09-15T13:47:31.896Z",
  "devdoc": {
    "author": "Eric Nordelo",
    "kind": "dev",
    "methods": {
      "allowance(address,address)": {
        "details": "See {IERC20-allowance}."
      },
      "approve(address,uint256)": {
        "details": "See {IERC20-approve}. Requirements: - `spender` cannot be the zero address."
      },
      "balanceOf(address)": {
        "details": "See {IERC20-balanceOf}."
      },
      "decimals()": {
        "details": "Returns the number of decimals used to get its user representation. For example, if `decimals` equals `2`, a balance of `505` tokens should be displayed to a user as `5.05` (`505 / 10 ** 2`). Tokens usually opt for a value of 18, imitating the relationship between Ether and Wei. This is the value {ERC20} uses, unless this function is overridden; NOTE: This information is only used for _display_ purposes: it in no way affects any of the arithmetic of the contract, including {IERC20-balanceOf} and {IERC20-transfer}."
      },
      "decreaseAllowance(address,uint256)": {
        "details": "Atomically decreases the allowance granted to `spender` by the caller. This is an alternative to {approve} that can be used as a mitigation for problems described in {IERC20-approve}. Emits an {Approval} event indicating the updated allowance. Requirements: - `spender` cannot be the zero address. - `spender` must have allowance for the caller of at least `subtractedValue`."
      },
      "getRoleAdmin(bytes32)": {
        "details": "Returns the admin role that controls `role`. See {grantRole} and {revokeRole}. To change a role's admin, use {_setRoleAdmin}."
      },
      "grantRole(bytes32,address)": {
        "details": "Grants `role` to `account`. If `account` had not been already granted `role`, emits a {RoleGranted} event. Requirements: - the caller must have ``role``'s admin role."
      },
      "hasRole(bytes32,address)": {
        "details": "Returns `true` if `account` has been granted `role`."
      },
      "increaseAllowance(address,uint256)": {
        "details": "Atomically increases the allowance granted to `spender` by the caller. This is an alternative to {approve} that can be used as a mitigation for problems described in {IERC20-approve}. Emits an {Approval} event indicating the updated allowance. Requirements: - `spender` cannot be the zero address."
      },
      "name()": {
        "details": "Returns the name of the token."
      },
      "paused()": {
        "details": "Returns true if the contract is paused, and false otherwise."
      },
      "renounceRole(bytes32,address)": {
        "details": "Revokes `role` from the calling account. Roles are often managed via {grantRole} and {revokeRole}: this function's purpose is to provide a mechanism for accounts to lose their privileges if they are compromised (such as when a trusted device is misplaced). If the calling account had been granted `role`, emits a {RoleRevoked} event. Requirements: - the caller must be `account`."
      },
      "revokeRole(bytes32,address)": {
        "details": "Revokes `role` from `account`. If `account` had been granted `role`, emits a {RoleRevoked} event. Requirements: - the caller must have ``role``'s admin role."
      },
      "supportsInterface(bytes4)": {
        "details": "See {IERC165-supportsInterface}."
      },
      "symbol()": {
        "details": "Returns the symbol of the token, usually a shorter version of the name."
      },
      "totalSupply()": {
        "details": "See {IERC20-totalSupply}."
      },
      "transfer(address,uint256)": {
        "details": "ensures that only minting is allowed when paused"
      },
      "transferFrom(address,address,uint256)": {
        "details": "ensures that only minting is allowed when paused"
      }
    },
    "title": "the implementation to clone on each pod creation",
    "version": 1
  },
  "userdoc": {
    "kind": "user",
    "methods": {
      "initialize(string,string)": {
        "notice": "ensures that the pod token contract begins paused and with the default admin"
      },
      "returnPodTokens(address,address,uint256)": {
        "notice": "allows the return of funds after a pod disposal"
      }
    },
    "version": 1
  }
}