{
  "contractName": "PodWithdrawManager",
  "abi": [
    {
      "inputs": [],
      "stateMutability": "nonpayable",
      "type": "constructor"
    },
    {
      "anonymous": false,
      "inputs": [
        {
          "indexed": true,
          "internalType": "address",
          "name": "podAddress",
          "type": "address"
        },
        {
          "indexed": true,
          "internalType": "address",
          "name": "recipient",
          "type": "address"
        },
        {
          "indexed": false,
          "internalType": "uint256",
          "name": "amount",
          "type": "uint256"
        },
        {
          "indexed": true,
          "internalType": "uint256",
          "name": "proposalId",
          "type": "uint256"
        }
      ],
      "name": "ApproveWithdrawProposal",
      "type": "event"
    },
    {
      "anonymous": false,
      "inputs": [
        {
          "indexed": true,
          "internalType": "address",
          "name": "podAddress",
          "type": "address"
        },
        {
          "indexed": true,
          "internalType": "address",
          "name": "recipient",
          "type": "address"
        },
        {
          "indexed": false,
          "internalType": "uint256",
          "name": "amount",
          "type": "uint256"
        },
        {
          "indexed": true,
          "internalType": "uint256",
          "name": "proposalId",
          "type": "uint256"
        }
      ],
      "name": "CreateWithdrawProposal",
      "type": "event"
    },
    {
      "anonymous": false,
      "inputs": [
        {
          "indexed": true,
          "internalType": "address",
          "name": "podAddress",
          "type": "address"
        },
        {
          "indexed": true,
          "internalType": "address",
          "name": "recipient",
          "type": "address"
        },
        {
          "indexed": false,
          "internalType": "uint256",
          "name": "amount",
          "type": "uint256"
        },
        {
          "indexed": true,
          "internalType": "uint256",
          "name": "proposalId",
          "type": "uint256"
        }
      ],
      "name": "DenyWithdrawProposal",
      "type": "event"
    },
    {
      "anonymous": false,
      "inputs": [
        {
          "indexed": true,
          "internalType": "address",
          "name": "podAddress",
          "type": "address"
        },
        {
          "indexed": true,
          "internalType": "address",
          "name": "recipient",
          "type": "address"
        },
        {
          "indexed": false,
          "internalType": "uint256",
          "name": "amount",
          "type": "uint256"
        },
        {
          "indexed": true,
          "internalType": "uint256",
          "name": "proposalId",
          "type": "uint256"
        }
      ],
      "name": "ExpireWithdrawProposal",
      "type": "event"
    },
    {
      "anonymous": false,
      "inputs": [
        {
          "indexed": true,
          "internalType": "bytes32",
          "name": "role",
          "type": "bytes32"
        },
        {
          "indexed": true,
          "internalType": "bytes32",
          "name": "previousAdminRole",
          "type": "bytes32"
        },
        {
          "indexed": true,
          "internalType": "bytes32",
          "name": "newAdminRole",
          "type": "bytes32"
        }
      ],
      "name": "RoleAdminChanged",
      "type": "event"
    },
    {
      "anonymous": false,
      "inputs": [
        {
          "indexed": true,
          "internalType": "bytes32",
          "name": "role",
          "type": "bytes32"
        },
        {
          "indexed": true,
          "internalType": "address",
          "name": "account",
          "type": "address"
        },
        {
          "indexed": true,
          "internalType": "address",
          "name": "sender",
          "type": "address"
        }
      ],
      "name": "RoleGranted",
      "type": "event"
    },
    {
      "anonymous": false,
      "inputs": [
        {
          "indexed": true,
          "internalType": "bytes32",
          "name": "role",
          "type": "bytes32"
        },
        {
          "indexed": true,
          "internalType": "address",
          "name": "account",
          "type": "address"
        },
        {
          "indexed": true,
          "internalType": "address",
          "name": "sender",
          "type": "address"
        }
      ],
      "name": "RoleRevoked",
      "type": "event"
    },
    {
      "anonymous": false,
      "inputs": [
        {
          "indexed": true,
          "internalType": "address",
          "name": "voter",
          "type": "address"
        },
        {
          "indexed": true,
          "internalType": "address",
          "name": "podAddress",
          "type": "address"
        },
        {
          "indexed": true,
          "internalType": "uint256",
          "name": "proposalId",
          "type": "uint256"
        }
      ],
      "name": "VoteWithdrawProposal",
      "type": "event"
    },
    {
      "inputs": [],
      "name": "ADMIN",
      "outputs": [
        {
          "internalType": "bytes32",
          "name": "",
          "type": "bytes32"
        }
      ],
      "stateMutability": "view",
      "type": "function"
    },
    {
      "inputs": [],
      "name": "DEFAULT_ADMIN_ROLE",
      "outputs": [
        {
          "internalType": "bytes32",
          "name": "",
          "type": "bytes32"
        }
      ],
      "stateMutability": "view",
      "type": "function"
    },
    {
      "inputs": [],
      "name": "DISPOSED_STATE",
      "outputs": [
        {
          "internalType": "bytes32",
          "name": "",
          "type": "bytes32"
        }
      ],
      "stateMutability": "view",
      "type": "function"
    },
    {
      "inputs": [
        {
          "internalType": "bytes32",
          "name": "role",
          "type": "bytes32"
        }
      ],
      "name": "getRoleAdmin",
      "outputs": [
        {
          "internalType": "bytes32",
          "name": "",
          "type": "bytes32"
        }
      ],
      "stateMutability": "view",
      "type": "function"
    },
    {
      "inputs": [
        {
          "internalType": "bytes32",
          "name": "role",
          "type": "bytes32"
        },
        {
          "internalType": "address",
          "name": "account",
          "type": "address"
        }
      ],
      "name": "grantRole",
      "outputs": [],
      "stateMutability": "nonpayable",
      "type": "function"
    },
    {
      "inputs": [
        {
          "internalType": "bytes32",
          "name": "role",
          "type": "bytes32"
        },
        {
          "internalType": "address",
          "name": "account",
          "type": "address"
        }
      ],
      "name": "hasRole",
      "outputs": [
        {
          "internalType": "bool",
          "name": "",
          "type": "bool"
        }
      ],
      "stateMutability": "view",
      "type": "function"
    },
    {
      "inputs": [],
      "name": "podManagerContractAddress",
      "outputs": [
        {
          "internalType": "address",
          "name": "",
          "type": "address"
        }
      ],
      "stateMutability": "view",
      "type": "function"
    },
    {
      "inputs": [
        {
          "internalType": "bytes32",
          "name": "role",
          "type": "bytes32"
        },
        {
          "internalType": "address",
          "name": "account",
          "type": "address"
        }
      ],
      "name": "renounceRole",
      "outputs": [],
      "stateMutability": "nonpayable",
      "type": "function"
    },
    {
      "inputs": [
        {
          "internalType": "bytes32",
          "name": "role",
          "type": "bytes32"
        },
        {
          "internalType": "address",
          "name": "account",
          "type": "address"
        }
      ],
      "name": "revokeRole",
      "outputs": [],
      "stateMutability": "nonpayable",
      "type": "function"
    },
    {
      "inputs": [
        {
          "internalType": "bytes4",
          "name": "interfaceId",
          "type": "bytes4"
        }
      ],
      "name": "supportsInterface",
      "outputs": [
        {
          "internalType": "bool",
          "name": "",
          "type": "bool"
        }
      ],
      "stateMutability": "view",
      "type": "function"
    },
    {
      "inputs": [
        {
          "internalType": "address",
          "name": "_podManagerContractAddress",
          "type": "address"
        }
      ],
      "name": "setPodManagerContractAddress",
      "outputs": [],
      "stateMutability": "nonpayable",
      "type": "function"
    },
    {
      "inputs": [
        {
          "internalType": "address",
          "name": "_podAddress",
          "type": "address"
        },
        {
          "internalType": "address[]",
          "name": "_owners",
          "type": "address[]"
        }
      ],
      "name": "savePodOwners",
      "outputs": [],
      "stateMutability": "nonpayable",
      "type": "function"
    },
    {
      "inputs": [
        {
          "internalType": "address",
          "name": "_recipient",
          "type": "address"
        },
        {
          "internalType": "address",
          "name": "_podAddress",
          "type": "address"
        },
        {
          "internalType": "uint256",
          "name": "_amount",
          "type": "uint256"
        }
      ],
      "name": "createWithdrawProposal",
      "outputs": [],
      "stateMutability": "nonpayable",
      "type": "function"
    },
    {
      "inputs": [
        {
          "internalType": "uint256",
          "name": "_proposalId",
          "type": "uint256"
        },
        {
          "internalType": "bool",
          "name": "_vote",
          "type": "bool"
        }
      ],
      "name": "voteWithdrawProposal",
      "outputs": [],
      "stateMutability": "nonpayable",
      "type": "function"
    },
    {
      "inputs": [
        {
          "internalType": "address",
          "name": "_podAddress",
          "type": "address"
        }
      ],
      "name": "returnPodTokens",
      "outputs": [],
      "stateMutability": "nonpayable",
      "type": "function"
    },
    {
      "inputs": [
        {
          "internalType": "uint256",
          "name": "_proposalId",
          "type": "uint256"
        }
      ],
      "name": "getUpdateMediaProposal",
      "outputs": [
        {
          "components": [
            {
              "internalType": "uint128",
              "name": "positiveVotesCount",
              "type": "uint128"
            },
            {
              "internalType": "uint128",
              "name": "negativeVotesCount",
              "type": "uint128"
            },
            {
              "internalType": "address",
              "name": "podAddress",
              "type": "address"
            },
            {
              "internalType": "address",
              "name": "recipient",
              "type": "address"
            },
            {
              "internalType": "uint64",
              "name": "minApprovals",
              "type": "uint64"
            },
            {
              "internalType": "uint64",
              "name": "maxDenials",
              "type": "uint64"
            },
            {
              "internalType": "uint64",
              "name": "date",
              "type": "uint64"
            },
            {
              "internalType": "uint64",
              "name": "duration",
              "type": "uint64"
            },
            {
              "internalType": "uint256",
              "name": "amount",
              "type": "uint256"
            }
          ],
          "internalType": "struct WithdrawProposal",
          "name": "",
          "type": "tuple"
        }
      ],
      "stateMutability": "view",
      "type": "function"
    }
  ],
  "bytecode": "0x60806040523480156200001157600080fd5b50620000276000801b336200005f60201b60201c565b620000597fdf8b4c520ffe197c5343c6f5aec59570151ef9a492f2c624fd45ddde6135ec42336200005f60201b60201c565b620001d8565b6200007182826200007560201b60201c565b5050565b6200008782826200016660201b60201c565b6200016257600160008084815260200190815260200160002060000160008373ffffffffffffffffffffffffffffffffffffffff1673ffffffffffffffffffffffffffffffffffffffff16815260200190815260200160002060006101000a81548160ff02191690831515021790555062000107620001d060201b60201c565b73ffffffffffffffffffffffffffffffffffffffff168173ffffffffffffffffffffffffffffffffffffffff16837f2f8788117e7eff1d82e926ec794901d17c78024a50270940304540a733656f0d60405160405180910390a45b5050565b600080600084815260200190815260200160002060000160008373ffffffffffffffffffffffffffffffffffffffff1673ffffffffffffffffffffffffffffffffffffffff16815260200190815260200160002060009054906101000a900460ff16905092915050565b600033905090565b61356b80620001e86000396000f3fe608060405234801561001057600080fd5b50600436106101005760003560e01c806391d1485411610097578063b4401e5f11610066578063b4401e5f146102ab578063c356d37c146102c7578063d547741f146102e5578063ecfcb72a1461030157610100565b806391d14854146102255780639c24e58e14610255578063a217fddf14610271578063b3310f4f1461028f57610100565b80632f2ff15d116100d35780632f2ff15d146101b357806336568abe146101cf57806360e019d2146101eb578063664c04d61461020757610100565b806301ffc9a714610105578063248a9ca3146101355780632a0acc6a146101655780632aeef09914610183575b600080fd5b61011f600480360381019061011a9190612893565b61031d565b60405161012c9190612d1c565b60405180910390f35b61014f600480360381019061014a9190612826565b610397565b60405161015c9190612d37565b60405180910390f35b61016d6103b6565b60405161017a9190612d37565b60405180910390f35b61019d60048036038101906101989190612909565b6103da565b6040516101aa9190612e54565b60405180910390f35b6101cd60048036038101906101c89190612853565b610672565b005b6101e960048036038101906101e49190612853565b61069b565b005b61020560048036038101906102009190612777565b61071e565b005b61020f610ae4565b60405161021c9190612c93565b60405180910390f35b61023f600480360381019061023a9190612853565b610b0a565b60405161024c9190612d1c565b60405180910390f35b61026f600480360381019061026a919061274a565b610b74565b005b610279610d11565b6040516102869190612d37565b60405180910390f35b6102a960048036038101906102a49190612936565b610d18565b005b6102c560048036038101906102c0919061274a565b61197b565b005b6102cf6119f2565b6040516102dc9190612d37565b60405180910390f35b6102ff60048036038101906102fa9190612853565b611a16565b005b61031b600480360381019061031691906127ca565b611a3f565b005b60007f7965db0b000000000000000000000000000000000000000000000000000000007bffffffffffffffffffffffffffffffffffffffffffffffffffffffff1916827bffffffffffffffffffffffffffffffffffffffffffffffffffffffff19161480610390575061038f82611aca565b5b9050919050565b6000806000838152602001908152602001600020600101549050919050565b7fdf8b4c520ffe197c5343c6f5aec59570151ef9a492f2c624fd45ddde6135ec4281565b6103e2612145565b600060036000848152602001908152602001600020604051806101200160405290816000820160009054906101000a90046fffffffffffffffffffffffffffffffff166fffffffffffffffffffffffffffffffff166fffffffffffffffffffffffffffffffff1681526020016000820160109054906101000a90046fffffffffffffffffffffffffffffffff166fffffffffffffffffffffffffffffffff166fffffffffffffffffffffffffffffffff1681526020016001820160009054906101000a900473ffffffffffffffffffffffffffffffffffffffff1673ffffffffffffffffffffffffffffffffffffffff1673ffffffffffffffffffffffffffffffffffffffff1681526020016002820160009054906101000a900473ffffffffffffffffffffffffffffffffffffffff1673ffffffffffffffffffffffffffffffffffffffff1673ffffffffffffffffffffffffffffffffffffffff1681526020016002820160149054906101000a900467ffffffffffffffff1667ffffffffffffffff1667ffffffffffffffff1681526020016003820160009054906101000a900467ffffffffffffffff1667ffffffffffffffff1667ffffffffffffffff1681526020016003820160089054906101000a900467ffffffffffffffff1667ffffffffffffffff1667ffffffffffffffff1681526020016003820160109054906101000a900467ffffffffffffffff1667ffffffffffffffff1667ffffffffffffffff16815260200160048201548152505090506000816080015167ffffffffffffffff161415610669576040517f08c379a000000000000000000000000000000000000000000000000000000000815260040161066090612e14565b60405180910390fd5b80915050919050565b61067b82610397565b61068c81610687611b34565b611b3c565b6106968383611bd9565b505050565b6106a3611b34565b73ffffffffffffffffffffffffffffffffffffffff168173ffffffffffffffffffffffffffffffffffffffff1614610710576040517f08c379a000000000000000000000000000000000000000000000000000000000815260040161070790612e34565b60405180910390fd5b61071a8282611cb9565b5050565b6107286001611d9a565b60006107346001611db0565b905060006107423385611dbe565b90506000811215610788576040517f08c379a000000000000000000000000000000000000000000000000000000000815260040161077f90612d74565b60405180910390fd5b600060405180610120016040528060006fffffffffffffffffffffffffffffffff16815260200160006fffffffffffffffffffffffffffffffff1681526020018673ffffffffffffffffffffffffffffffffffffffff1681526020018773ffffffffffffffffffffffffffffffffffffffff168152602001600560008873ffffffffffffffffffffffffffffffffffffffff1673ffffffffffffffffffffffffffffffffffffffff1681526020019081526020016000208054905067ffffffffffffffff168152602001600167ffffffffffffffff1681526020014267ffffffffffffffff16815260200162093a8067ffffffffffffffff168152602001858152509050806003600085815260200190815260200160002060008201518160000160006101000a8154816fffffffffffffffffffffffffffffffff02191690836fffffffffffffffffffffffffffffffff16021790555060208201518160000160106101000a8154816fffffffffffffffffffffffffffffffff02191690836fffffffffffffffffffffffffffffffff16021790555060408201518160010160006101000a81548173ffffffffffffffffffffffffffffffffffffffff021916908373ffffffffffffffffffffffffffffffffffffffff16021790555060608201518160020160006101000a81548173ffffffffffffffffffffffffffffffffffffffff021916908373ffffffffffffffffffffffffffffffffffffffff16021790555060808201518160020160146101000a81548167ffffffffffffffff021916908367ffffffffffffffff16021790555060a08201518160030160006101000a81548167ffffffffffffffff021916908367ffffffffffffffff16021790555060c08201518160030160086101000a81548167ffffffffffffffff021916908367ffffffffffffffff16021790555060e08201518160030160106101000a81548167ffffffffffffffff021916908367ffffffffffffffff1602179055506101008201518160040155905050828673ffffffffffffffffffffffffffffffffffffffff168673ffffffffffffffffffffffffffffffffffffffff167fa32fc483f3fde5d15cd935b2f3500cdbac9a04280cf6e1c360f457ed0557d05b87604051610ad49190612e70565b60405180910390a4505050505050565b600260009054906101000a900473ffffffffffffffffffffffffffffffffffffffff1681565b600080600084815260200190815260200160002060000160008373ffffffffffffffffffffffffffffffffffffffff1673ffffffffffffffffffffffffffffffffffffffff16815260200190815260200160002060009054906101000a900460ff16905092915050565b6000600260009054906101000a900473ffffffffffffffffffffffffffffffffffffffff1673ffffffffffffffffffffffffffffffffffffffff166301d8b562836040518263ffffffff1660e01b8152600401610bd19190612c93565b60006040518083038186803b158015610be957600080fd5b505afa158015610bfd573d6000803e3d6000fd5b505050506040513d6000823e3d601f19601f82011682018060405250810190610c2691906128c0565b90507f192eeb9228e010bc296a3485b9a2f358ca83ebae22f90419552aa6a137524b53816000015114610c8e576040517f08c379a0000000000000000000000000000000000000000000000000000000008152600401610c8590612df4565b60405180910390fd5b8173ffffffffffffffffffffffffffffffffffffffff166319da8062338360a00151608001518460a0015160a001516040518463ffffffff1660e01b8152600401610cdb93929190612cae565b600060405180830381600087803b158015610cf557600080fd5b505af1158015610d09573d6000803e3d6000fd5b505050505050565b6000801b81565b60006003600084815260200190815260200160002060020160149054906101000a900467ffffffffffffffff1667ffffffffffffffff161415610d90576040517f08c379a0000000000000000000000000000000000000000000000000000000008152600401610d8790612e14565b60405180910390fd5b600060036000848152602001908152602001600020604051806101200160405290816000820160009054906101000a90046fffffffffffffffffffffffffffffffff166fffffffffffffffffffffffffffffffff166fffffffffffffffffffffffffffffffff1681526020016000820160109054906101000a90046fffffffffffffffffffffffffffffffff166fffffffffffffffffffffffffffffffff166fffffffffffffffffffffffffffffffff1681526020016001820160009054906101000a900473ffffffffffffffffffffffffffffffffffffffff1673ffffffffffffffffffffffffffffffffffffffff1673ffffffffffffffffffffffffffffffffffffffff1681526020016002820160009054906101000a900473ffffffffffffffffffffffffffffffffffffffff1673ffffffffffffffffffffffffffffffffffffffff1673ffffffffffffffffffffffffffffffffffffffff1681526020016002820160149054906101000a900467ffffffffffffffff1667ffffffffffffffff1667ffffffffffffffff1681526020016003820160009054906101000a900467ffffffffffffffff1667ffffffffffffffff1667ffffffffffffffff1681526020016003820160089054906101000a900467ffffffffffffffff1667ffffffffffffffff1667ffffffffffffffff1681526020016003820160109054906101000a900467ffffffffffffffff1667ffffffffffffffff1667ffffffffffffffff16815260200160048201548152505090506000610fd5338360400151611dbe565b9050600081121561101b576040517f08c379a000000000000000000000000000000000000000000000000000000000815260040161101290612db4565b60405180910390fd5b6004600085815260200190815260200160002060003373ffffffffffffffffffffffffffffffffffffffff1673ffffffffffffffffffffffffffffffffffffffff16815260200190815260200160002060009054906101000a900460ff16156110b9576040517f08c379a00000000000000000000000000000000000000000000000000000000081526004016110b090612dd4565b60405180910390fd5b60016004600086815260200190815260200160002060003373ffffffffffffffffffffffffffffffffffffffff1673ffffffffffffffffffffffffffffffffffffffff16815260200190815260200160002060006101000a81548160ff021916908315150217905550428260e001518360c001516111379190612fcb565b67ffffffffffffffff1610156112dd5760036000858152602001908152602001600020600080820160006101000a8154906fffffffffffffffffffffffffffffffff02191690556000820160106101000a8154906fffffffffffffffffffffffffffffffff02191690556001820160006101000a81549073ffffffffffffffffffffffffffffffffffffffff02191690556002820160006101000a81549073ffffffffffffffffffffffffffffffffffffffff02191690556002820160146101000a81549067ffffffffffffffff02191690556003820160006101000a81549067ffffffffffffffff02191690556003820160086101000a81549067ffffffffffffffff02191690556003820160106101000a81549067ffffffffffffffff02191690556004820160009055505083826060015173ffffffffffffffffffffffffffffffffffffffff16836040015173ffffffffffffffffffffffffffffffffffffffff167f14f7a931e15e38da47fbd312052d122b2468fbd4eda9db0bda482cf9c8e0e3f88561010001516040516112d09190612e70565b60405180910390a4611975565b82156116cc57816080015167ffffffffffffffff16600183600001516113039190612f2f565b6fffffffffffffffffffffffffffffffff1614156115ee5760036000858152602001908152602001600020600080820160006101000a8154906fffffffffffffffffffffffffffffffff02191690556000820160106101000a8154906fffffffffffffffffffffffffffffffff02191690556001820160006101000a81549073ffffffffffffffffffffffffffffffffffffffff02191690556002820160006101000a81549073ffffffffffffffffffffffffffffffffffffffff02191690556002820160146101000a81549067ffffffffffffffff02191690556003820160006101000a81549067ffffffffffffffff02191690556003820160086101000a81549067ffffffffffffffff02191690556003820160106101000a81549067ffffffffffffffff0219169055600482016000905550506000600260009054906101000a900473ffffffffffffffffffffffffffffffffffffffff1673ffffffffffffffffffffffffffffffffffffffff166301d8b56284604001516040518263ffffffff1660e01b815260040161149a9190612c93565b60006040518083038186803b1580156114b257600080fd5b505afa1580156114c6573d6000803e3d6000fd5b505050506040513d6000823e3d601f19601f820116820180604052508101906114ef91906128c0565b9050826040015173ffffffffffffffffffffffffffffffffffffffff1663cfc82dab84606001518561010001518460a00151608001516040518463ffffffff1660e01b815260040161154393929190612ce5565b600060405180830381600087803b15801561155d57600080fd5b505af1158015611571573d6000803e3d6000fd5b5050505084836060015173ffffffffffffffffffffffffffffffffffffffff16846040015173ffffffffffffffffffffffffffffffffffffffff167f0136f246c5141769cccada45c79897b16323d4eeaaa00602977cad10fcbfbaf48661010001516040516115e09190612e70565b60405180910390a4506116c7565b60036000858152602001908152602001600020600001600081819054906101000a90046fffffffffffffffffffffffffffffffff1680929190611630906131bf565b91906101000a8154816fffffffffffffffffffffffffffffffff02191690836fffffffffffffffffffffffffffffffff1602179055505083826040015173ffffffffffffffffffffffffffffffffffffffff163373ffffffffffffffffffffffffffffffffffffffff167f070f5734fbf17e22389e6227c8d6b3c83f038a95acbc51a1465b9fca6b99b25f60405160405180910390a45b611974565b8160a0015167ffffffffffffffff16600183602001516116ec9190612f2f565b6fffffffffffffffffffffffffffffffff16141561189a5760036000858152602001908152602001600020600080820160006101000a8154906fffffffffffffffffffffffffffffffff02191690556000820160106101000a8154906fffffffffffffffffffffffffffffffff02191690556001820160006101000a81549073ffffffffffffffffffffffffffffffffffffffff02191690556002820160006101000a81549073ffffffffffffffffffffffffffffffffffffffff02191690556002820160146101000a81549067ffffffffffffffff02191690556003820160006101000a81549067ffffffffffffffff02191690556003820160086101000a81549067ffffffffffffffff02191690556003820160106101000a81549067ffffffffffffffff02191690556004820160009055505083826060015173ffffffffffffffffffffffffffffffffffffffff16836040015173ffffffffffffffffffffffffffffffffffffffff167fb6596f064b5e4cd43777d11153839a8b7c162a6e641ef1143f8eb36442c9afa385610100015160405161188d9190612e70565b60405180910390a4611973565b60036000858152602001908152602001600020600001601081819054906101000a90046fffffffffffffffffffffffffffffffff16809291906118dc906131bf565b91906101000a8154816fffffffffffffffffffffffffffffffff02191690836fffffffffffffffffffffffffffffffff1602179055505083826040015173ffffffffffffffffffffffffffffffffffffffff163373ffffffffffffffffffffffffffffffffffffffff167f070f5734fbf17e22389e6227c8d6b3c83f038a95acbc51a1465b9fca6b99b25f60405160405180910390a45b5b5b50505050565b7fdf8b4c520ffe197c5343c6f5aec59570151ef9a492f2c624fd45ddde6135ec426119ad816119a8611b34565b611b3c565b81600260006101000a81548173ffffffffffffffffffffffffffffffffffffffff021916908373ffffffffffffffffffffffffffffffffffffffff1602179055505050565b7f192eeb9228e010bc296a3485b9a2f358ca83ebae22f90419552aa6a137524b5381565b611a1f82610397565b611a3081611a2b611b34565b611b3c565b611a3a8383611cb9565b505050565b7fdf8b4c520ffe197c5343c6f5aec59570151ef9a492f2c624fd45ddde6135ec42611a7181611a6c611b34565b611b3c565b81600560008573ffffffffffffffffffffffffffffffffffffffff1673ffffffffffffffffffffffffffffffffffffffff1681526020019081526020016000209080519060200190611ac4929190612209565b50505050565b60007f01ffc9a7000000000000000000000000000000000000000000000000000000007bffffffffffffffffffffffffffffffffffffffffffffffffffffffff1916827bffffffffffffffffffffffffffffffffffffffffffffffffffffffff1916149050919050565b600033905090565b611b468282610b0a565b611bd557611b6b8173ffffffffffffffffffffffffffffffffffffffff166014611f09565b611b798360001c6020611f09565b604051602001611b8a929190612c59565b6040516020818303038152906040526040517f08c379a0000000000000000000000000000000000000000000000000000000008152600401611bcc9190612d52565b60405180910390fd5b5050565b611be38282610b0a565b611cb557600160008084815260200190815260200160002060000160008373ffffffffffffffffffffffffffffffffffffffff1673ffffffffffffffffffffffffffffffffffffffff16815260200190815260200160002060006101000a81548160ff021916908315150217905550611c5a611b34565b73ffffffffffffffffffffffffffffffffffffffff168173ffffffffffffffffffffffffffffffffffffffff16837f2f8788117e7eff1d82e926ec794901d17c78024a50270940304540a733656f0d60405160405180910390a45b5050565b611cc38282610b0a565b15611d9657600080600084815260200190815260200160002060000160008373ffffffffffffffffffffffffffffffffffffffff1673ffffffffffffffffffffffffffffffffffffffff16815260200190815260200160002060006101000a81548160ff021916908315150217905550611d3b611b34565b73ffffffffffffffffffffffffffffffffffffffff168173ffffffffffffffffffffffffffffffffffffffff16837ff6391f5c32d9c69d2a47ea670b442974b53935d1edc7fd64eb21e047a839171b60405160405180910390a45b5050565b6001816000016000828254019250508190555050565b600081600001549050919050565b600080600560008473ffffffffffffffffffffffffffffffffffffffff1673ffffffffffffffffffffffffffffffffffffffff16815260200190815260200160002080549050905060005b81811015611edd578473ffffffffffffffffffffffffffffffffffffffff16600560008673ffffffffffffffffffffffffffffffffffffffff1673ffffffffffffffffffffffffffffffffffffffff1681526020019081526020016000208281548110611e7957611e78613270565b5b9060005260206000200160009054906101000a900473ffffffffffffffffffffffffffffffffffffffff1673ffffffffffffffffffffffffffffffffffffffff161415611eca578092505050611f03565b8080611ed5906131f8565b915050611e09565b507fffffffffffffffffffffffffffffffffffffffffffffffffffffffffffffffff9150505b92915050565b606060006002836002611f1c9190613009565b611f269190612f75565b67ffffffffffffffff811115611f3f57611f3e61329f565b5b6040519080825280601f01601f191660200182016040528015611f715781602001600182028036833780820191505090505b5090507f300000000000000000000000000000000000000000000000000000000000000081600081518110611fa957611fa8613270565b5b60200101907effffffffffffffffffffffffffffffffffffffffffffffffffffffffffffff1916908160001a9053507f78000000000000000000000000000000000000000000000000000000000000008160018151811061200d5761200c613270565b5b60200101907effffffffffffffffffffffffffffffffffffffffffffffffffffffffffffff1916908160001a9053506000600184600261204d9190613009565b6120579190612f75565b90505b60018111156120f7577f3031323334353637383961626364656600000000000000000000000000000000600f86166010811061209957612098613270565b5b1a60f81b8282815181106120b0576120af613270565b5b60200101907effffffffffffffffffffffffffffffffffffffffffffffffffffffffffffff1916908160001a905350600485901c9450806120f090613164565b905061205a565b506000841461213b576040517f08c379a000000000000000000000000000000000000000000000000000000000815260040161213290612d94565b60405180910390fd5b8091505092915050565b60405180610120016040528060006fffffffffffffffffffffffffffffffff16815260200160006fffffffffffffffffffffffffffffffff168152602001600073ffffffffffffffffffffffffffffffffffffffff168152602001600073ffffffffffffffffffffffffffffffffffffffff168152602001600067ffffffffffffffff168152602001600067ffffffffffffffff168152602001600067ffffffffffffffff168152602001600067ffffffffffffffff168152602001600081525090565b828054828255906000526020600020908101928215612282579160200282015b828111156122815782518260006101000a81548173ffffffffffffffffffffffffffffffffffffffff021916908373ffffffffffffffffffffffffffffffffffffffff16021790555091602001919060010190612229565b5b50905061228f9190612293565b5090565b5b808211156122ac576000816000905550600101612294565b5090565b60006122c36122be84612eb0565b612e8b565b905080838252602082019050828560208602820111156122e6576122e56132dd565b5b60005b8581101561231657816122fc8882612400565b8452602084019350602083019250506001810190506122e9565b5050509392505050565b600061233361232e84612eb0565b612e8b565b90508083825260208201905082856020860282011115612356576123556132dd565b5b60005b85811015612386578161236c8882612415565b845260208401935060208301925050600181019050612359565b5050509392505050565b60006123a361239e84612edc565b612e8b565b905080838252602082019050828560208602820111156123c6576123c56132dd565b5b60005b858110156123f657816123dc8882612720565b8452602084019350602083019250506001810190506123c9565b5050509392505050565b60008135905061240f81613494565b92915050565b60008151905061242481613494565b92915050565b600082601f83011261243f5761243e6132ce565b5b813561244f8482602086016122b0565b91505092915050565b600082601f83011261246d5761246c6132ce565b5b815161247d848260208601612320565b91505092915050565b600082601f83011261249b5761249a6132ce565b5b81516124ab848260208601612390565b91505092915050565b6000813590506124c3816134ab565b92915050565b6000813590506124d8816134c2565b92915050565b6000815190506124ed816134c2565b92915050565b600081359050612502816134d9565b92915050565b6000610100828403121561251f5761251e6132d3565b5b61252a610100612e8b565b9050600061253a848285016124de565b600083015250602061254e84828501612720565b602083015250604082015167ffffffffffffffff811115612572576125716132d8565b5b61257e84828501612486565b604083015250606082015167ffffffffffffffff8111156125a2576125a16132d8565b5b6125ae84828501612486565b60608301525060806125c284828501612415565b60808301525060a082015167ffffffffffffffff8111156125e6576125e56132d8565b5b6125f284828501612626565b60a08301525060c061260684828501612415565b60c08301525060e061261a84828501612720565b60e08301525092915050565b600060e0828403121561263c5761263b6132d3565b5b61264660e0612e8b565b9050600082015167ffffffffffffffff811115612666576126656132d8565b5b61267284828501612458565b600083015250602061268684828501612415565b602083015250604061269a84828501612735565b60408301525060606126ae848285016126f6565b60608301525060806126c284828501612415565b60808301525060a06126d684828501612735565b60a08301525060c06126ea84828501612720565b60c08301525092915050565b600081519050612705816134f0565b92915050565b60008135905061271a81613507565b92915050565b60008151905061272f81613507565b92915050565b6000815190506127448161351e565b92915050565b6000602082840312156127605761275f6132e7565b5b600061276e84828501612400565b91505092915050565b6000806000606084860312156127905761278f6132e7565b5b600061279e86828701612400565b93505060206127af86828701612400565b92505060406127c08682870161270b565b9150509250925092565b600080604083850312156127e1576127e06132e7565b5b60006127ef85828601612400565b925050602083013567ffffffffffffffff8111156128105761280f6132e2565b5b61281c8582860161242a565b9150509250929050565b60006020828403121561283c5761283b6132e7565b5b600061284a848285016124c9565b91505092915050565b6000806040838503121561286a576128696132e7565b5b6000612878858286016124c9565b925050602061288985828601612400565b9150509250929050565b6000602082840312156128a9576128a86132e7565b5b60006128b7848285016124f3565b91505092915050565b6000602082840312156128d6576128d56132e7565b5b600082015167ffffffffffffffff8111156128f4576128f36132e2565b5b61290084828501612508565b91505092915050565b60006020828403121561291f5761291e6132e7565b5b600061292d8482850161270b565b91505092915050565b6000806040838503121561294d5761294c6132e7565b5b600061295b8582860161270b565b925050602061296c858286016124b4565b9150509250929050565b61297f81613063565b82525050565b61298e81613063565b82525050565b61299d81613075565b82525050565b6129ac81613081565b82525050565b60006129bd82612f08565b6129c78185612f13565b93506129d7818560208601613131565b6129e0816132ec565b840191505092915050565b60006129f682612f08565b612a008185612f24565b9350612a10818560208601613131565b80840191505092915050565b6000612a29601183612f13565b9150612a34826132fd565b602082019050919050565b6000612a4c602083612f13565b9150612a5782613326565b602082019050919050565b6000612a6f600d83612f13565b9150612a7a8261334f565b602082019050919050565b6000612a92601383612f13565b9150612a9d82613378565b602082019050919050565b6000612ab5601183612f13565b9150612ac0826133a1565b602082019050919050565b6000612ad8601383612f13565b9150612ae3826133ca565b602082019050919050565b6000612afb601783612f24565b9150612b06826133f3565b601782019050919050565b6000612b1e601183612f24565b9150612b298261341c565b601182019050919050565b6000612b41602f83612f13565b9150612b4c82613445565b604082019050919050565b61012082016000820151612b6e6000850182612c0e565b506020820151612b816020850182612c0e565b506040820151612b946040850182612976565b506060820151612ba76060850182612976565b506080820151612bba6080850182612c4a565b5060a0820151612bcd60a0850182612c4a565b5060c0820151612be060c0850182612c4a565b5060e0820151612bf360e0850182612c4a565b50610100820151612c08610100850182612c1d565b50505050565b612c17816130b7565b82525050565b612c2681613101565b82525050565b612c3581613101565b82525050565b612c448161311f565b82525050565b612c538161310b565b82525050565b6000612c6482612aee565b9150612c7082856129eb565b9150612c7b82612b11565b9150612c8782846129eb565b91508190509392505050565b6000602082019050612ca86000830184612985565b92915050565b6000606082019050612cc36000830186612985565b612cd06020830185612985565b612cdd6040830184612c3b565b949350505050565b6000606082019050612cfa6000830186612985565b612d076020830185612c2c565b612d146040830184612985565b949350505050565b6000602082019050612d316000830184612994565b92915050565b6000602082019050612d4c60008301846129a3565b92915050565b60006020820190508181036000830152612d6c81846129b2565b905092915050565b60006020820190508181036000830152612d8d81612a1c565b9050919050565b60006020820190508181036000830152612dad81612a3f565b9050919050565b60006020820190508181036000830152612dcd81612a62565b9050919050565b60006020820190508181036000830152612ded81612a85565b9050919050565b60006020820190508181036000830152612e0d81612aa8565b9050919050565b60006020820190508181036000830152612e2d81612acb565b9050919050565b60006020820190508181036000830152612e4d81612b34565b9050919050565b600061012082019050612e6a6000830184612b57565b92915050565b6000602082019050612e856000830184612c2c565b92915050565b6000612e95612ea6565b9050612ea1828261318e565b919050565b6000604051905090565b600067ffffffffffffffff821115612ecb57612eca61329f565b5b602082029050602081019050919050565b600067ffffffffffffffff821115612ef757612ef661329f565b5b602082029050602081019050919050565b600081519050919050565b600082825260208201905092915050565b600081905092915050565b6000612f3a826130b7565b9150612f45836130b7565b9250826fffffffffffffffffffffffffffffffff03821115612f6a57612f69613241565b5b828201905092915050565b6000612f8082613101565b9150612f8b83613101565b9250827fffffffffffffffffffffffffffffffffffffffffffffffffffffffffffffffff03821115612fc057612fbf613241565b5b828201905092915050565b6000612fd68261310b565b9150612fe18361310b565b92508267ffffffffffffffff03821115612ffe57612ffd613241565b5b828201905092915050565b600061301482613101565b915061301f83613101565b9250817fffffffffffffffffffffffffffffffffffffffffffffffffffffffffffffffff048311821515161561305857613057613241565b5b828202905092915050565b600061306e826130e1565b9050919050565b60008115159050919050565b6000819050919050565b60007fffffffff0000000000000000000000000000000000000000000000000000000082169050919050565b60006fffffffffffffffffffffffffffffffff82169050919050565b600061ffff82169050919050565b600073ffffffffffffffffffffffffffffffffffffffff82169050919050565b6000819050919050565b600067ffffffffffffffff82169050919050565b600061312a8261310b565b9050919050565b60005b8381101561314f578082015181840152602081019050613134565b8381111561315e576000848401525b50505050565b600061316f82613101565b9150600082141561318357613182613241565b5b600182039050919050565b613197826132ec565b810181811067ffffffffffffffff821117156131b6576131b561329f565b5b80604052505050565b60006131ca826130b7565b91506fffffffffffffffffffffffffffffffff8214156131ed576131ec613241565b5b600182019050919050565b600061320382613101565b91507fffffffffffffffffffffffffffffffffffffffffffffffffffffffffffffffff82141561323657613235613241565b5b600182019050919050565b7f4e487b7100000000000000000000000000000000000000000000000000000000600052601160045260246000fd5b7f4e487b7100000000000000000000000000000000000000000000000000000000600052603260045260246000fd5b7f4e487b7100000000000000000000000000000000000000000000000000000000600052604160045260246000fd5b600080fd5b600080fd5b600080fd5b600080fd5b600080fd5b600080fd5b6000601f19601f8301169050919050565b7f496e76616c696420726571756573746572000000000000000000000000000000600082015250565b7f537472696e67733a20686578206c656e67746820696e73756666696369656e74600082015250565b7f496e76616c6964206f776e657200000000000000000000000000000000000000600082015250565b7f4f776e657220616c726561647920766f74656400000000000000000000000000600082015250565b7f496e76616c696420706f64207374617465000000000000000000000000000000600082015250565b7f556e6578697374656e742070726f706f73616c00000000000000000000000000600082015250565b7f416363657373436f6e74726f6c3a206163636f756e7420000000000000000000600082015250565b7f206973206d697373696e6720726f6c6520000000000000000000000000000000600082015250565b7f416363657373436f6e74726f6c3a2063616e206f6e6c792072656e6f756e636560008201527f20726f6c657320666f722073656c660000000000000000000000000000000000602082015250565b61349d81613063565b81146134a857600080fd5b50565b6134b481613075565b81146134bf57600080fd5b50565b6134cb81613081565b81146134d657600080fd5b50565b6134e28161308b565b81146134ed57600080fd5b50565b6134f9816130d3565b811461350457600080fd5b50565b61351081613101565b811461351b57600080fd5b50565b6135278161310b565b811461353257600080fd5b5056fea2646970667358221220ec22a16e84a22b895c6304832f045cbfb41d133957404d93975ab0e8e2f47fa664736f6c63430008060033",
  "immutableReferences": {},
  "source": "// SPDX-License-Identifier: MIT\npragma solidity ^0.8.0;\n\nimport \"@openzeppelin/contracts/access/AccessControl.sol\";\nimport \"@openzeppelin/contracts/utils/Counters.sol\";\nimport \"./PodManager.sol\";\nimport \"./Structs.sol\";\nimport \"./implementations/PodToken.sol\";\n\n/**\n * @title manager for pod withdrawals\n * @author Eric Nordelo\n * @notice manages the withdrawals proposals and the multisign logic\n */\ncontract PodWithdrawManager is AccessControl {\n    using Counters for Counters.Counter;\n\n    Counters.Counter private _withdrawProposalIds;\n\n    bytes32 public constant ADMIN = keccak256(\"ADMIN\");\n    bytes32 public constant DISPOSED_STATE = keccak256(\"DISPOSED\");\n    uint64 private constant PROPOSAL_DURATION = 1 weeks;\n\n    address public podManagerContractAddress;\n\n    // map from Id to WithdrawProposal\n    mapping(uint256 => WithdrawProposal) private _withdrawProposals;\n    // stores a mapping of owners and if already voted by proposalId\n    mapping(uint256 => mapping(address => bool)) private _withdrawProposalsVoted;\n    mapping(address => address[]) private _podsOwners;\n\n    event CreateWithdrawProposal(\n        address indexed podAddress,\n        address indexed recipient,\n        uint256 amount,\n        uint256 indexed proposalId\n    );\n    event ApproveWithdrawProposal(\n        address indexed podAddress,\n        address indexed recipient,\n        uint256 amount,\n        uint256 indexed proposalId\n    );\n    event DenyWithdrawProposal(\n        address indexed podAddress,\n        address indexed recipient,\n        uint256 amount,\n        uint256 indexed proposalId\n    );\n    event VoteWithdrawProposal(address indexed voter, address indexed podAddress, uint256 indexed proposalId);\n    event ExpireWithdrawProposal(\n        address indexed podAddress,\n        address indexed recipient,\n        uint256 amount,\n        uint256 indexed proposalId\n    );\n\n    constructor() {\n        _setupRole(DEFAULT_ADMIN_ROLE, msg.sender);\n        _setupRole(ADMIN, msg.sender);\n    }\n\n    /**\n     * @notice sets the addresses to support integration\n     * @param _podManagerContractAddress the address of the Privi NFT contract\n     */\n    function setPodManagerContractAddress(address _podManagerContractAddress) external onlyRole(ADMIN) {\n        podManagerContractAddress = _podManagerContractAddress;\n    }\n\n    /**\n     * @notice save the owners for multisig feature\n     * @param _podAddress the address of the pod\n     * @param _owners the array of the owners\n     */\n    function savePodOwners(address _podAddress, address[] memory _owners) external onlyRole(ADMIN) {\n        _podsOwners[_podAddress] = _owners;\n    }\n\n    /**\n     * @notice create a proposal for withdraw funds\n     * @param _recipient the recipient of the transfer\n     * @param _podAddress the address of the pod\n     * @param _amount the amount of the funding token to withdraw\n     */\n    function createWithdrawProposal(\n        address _recipient,\n        address _podAddress,\n        uint256 _amount\n    ) external {\n        _withdrawProposalIds.increment();\n\n        uint256 proposalId = _withdrawProposalIds.current();\n\n        int256 index = getOwnerIndex(msg.sender, _podAddress);\n        require(index >= 0, \"Invalid requester\");\n\n        WithdrawProposal memory _withdrawProposal = WithdrawProposal({\n            minApprovals: uint64(_podsOwners[_podAddress].length),\n            maxDenials: 1,\n            positiveVotesCount: 0,\n            negativeVotesCount: 0,\n            podAddress: _podAddress,\n            recipient: _recipient,\n            amount: _amount,\n            date: uint64(block.timestamp),\n            duration: PROPOSAL_DURATION\n        });\n\n        // save the proposal for voting\n        _withdrawProposals[proposalId] = _withdrawProposal;\n\n        emit CreateWithdrawProposal(_podAddress, _recipient, _amount, proposalId);\n    }\n\n    /**\n     * @notice allows owners to vote withdraw proposals for pods\n     * @param _proposalId the id of the withdraw proposal\n     * @param _vote the actual vote: true or false\n     */\n    function voteWithdrawProposal(uint256 _proposalId, bool _vote) external {\n        require(_withdrawProposals[_proposalId].minApprovals != 0, \"Unexistent proposal\");\n\n        WithdrawProposal memory withdrawProposal = _withdrawProposals[_proposalId];\n\n        int256 index = getOwnerIndex(msg.sender, withdrawProposal.podAddress);\n        require(index >= 0, \"Invalid owner\");\n\n        require(!_withdrawProposalsVoted[_proposalId][msg.sender], \"Owner already voted\");\n\n        _withdrawProposalsVoted[_proposalId][msg.sender] = true;\n\n        // check if expired\n        // solhint-disable-next-line\n        if (withdrawProposal.date + withdrawProposal.duration < block.timestamp) {\n            // delete the recover gas\n            delete _withdrawProposals[_proposalId];\n            emit ExpireWithdrawProposal(\n                withdrawProposal.podAddress,\n                withdrawProposal.recipient,\n                withdrawProposal.amount,\n                _proposalId\n            );\n        } else {\n            // if the vote is positive\n            if (_vote) {\n                // if is the last vote to approve\n                if (withdrawProposal.positiveVotesCount + 1 == withdrawProposal.minApprovals) {\n                    delete _withdrawProposals[_proposalId];\n\n                    PodInfo memory podInfo = PodManager(podManagerContractAddress).getPodInfo(\n                        withdrawProposal.podAddress\n                    );\n                    // make the transfer\n                    PodToken(withdrawProposal.podAddress).transferContractBalance(\n                        withdrawProposal.recipient,\n                        withdrawProposal.amount,\n                        podInfo.pod.fundingToken\n                    );\n\n                    emit ApproveWithdrawProposal(\n                        withdrawProposal.podAddress,\n                        withdrawProposal.recipient,\n                        withdrawProposal.amount,\n                        _proposalId\n                    );\n                } else {\n                    // update the proposal and emit the event\n                    _withdrawProposals[_proposalId].positiveVotesCount++;\n                    emit VoteWithdrawProposal(msg.sender, withdrawProposal.podAddress, _proposalId);\n                }\n            }\n            // if the vote is negative\n            else {\n                // if is the last vote to deny\n                if (withdrawProposal.negativeVotesCount + 1 == withdrawProposal.maxDenials) {\n                    // delete the proposal and emit the event\n                    delete _withdrawProposals[_proposalId];\n                    emit DenyWithdrawProposal(\n                        withdrawProposal.podAddress,\n                        withdrawProposal.recipient,\n                        withdrawProposal.amount,\n                        _proposalId\n                    );\n                } else {\n                    // update the proposal and emit the event\n                    _withdrawProposals[_proposalId].negativeVotesCount++;\n                    emit VoteWithdrawProposal(msg.sender, withdrawProposal.podAddress, _proposalId);\n                }\n            }\n        }\n    }\n\n    /**\n     * @notice allows the return of funds after a pod disposal\n     */\n    function returnPodTokens(address _podAddress) external {\n        PodInfo memory podInfo = PodManager(podManagerContractAddress).getPodInfo(_podAddress);\n        require(podInfo.status == DISPOSED_STATE, \"Invalid pod state\");\n\n        // make the transfer\n        PodToken(_podAddress).returnPodTokens(\n            msg.sender,\n            podInfo.pod.fundingToken,\n            podInfo.pod.fundingTokenPrice\n        );\n    }\n\n    /**\n     * @notice proposal struct getter\n     * @param _proposalId The id of the withdraw proposal\n     * @return the WithdrawProposal object\n     */\n    function getUpdateMediaProposal(uint256 _proposalId) external view returns (WithdrawProposal memory) {\n        WithdrawProposal memory withdrawProposal = _withdrawProposals[_proposalId];\n        require(withdrawProposal.minApprovals != 0, \"Unexistent proposal\");\n        return withdrawProposal;\n    }\n\n    /**\n     * @param _owner The address of the owner to look for\n     * @param _podAddress The address of the pod\n     * @return The index\n     */\n    function getOwnerIndex(address _owner, address _podAddress) internal view returns (int256) {\n        uint256 count = _podsOwners[_podAddress].length;\n        for (uint256 i = 0; i < count; i++) {\n            if (_podsOwners[_podAddress][i] == _owner) {\n                return int256(i);\n            }\n        }\n        return -1;\n    }\n}\n",
  "sourcePath": "/Users/angelsatorresalmenara/Desktop/privi-pod/contracts/PodWithdrawManager.sol",
  "compiler": {
    "name": "solc",
    "version": "0.8.6+commit.11564f7e.Emscripten.clang"
  },
  "schemaVersion": "3.4.3",
  "updatedAt": "2021-09-15T13:57:56.576Z",
  "devdoc": {
    "author": "Eric Nordelo",
    "kind": "dev",
    "methods": {
      "createWithdrawProposal(address,address,uint256)": {
        "params": {
          "_amount": "the amount of the funding token to withdraw",
          "_podAddress": "the address of the pod",
          "_recipient": "the recipient of the transfer"
        }
      },
      "getRoleAdmin(bytes32)": {
        "details": "Returns the admin role that controls `role`. See {grantRole} and {revokeRole}. To change a role's admin, use {_setRoleAdmin}."
      },
      "getUpdateMediaProposal(uint256)": {
        "params": {
          "_proposalId": "The id of the withdraw proposal"
        },
        "returns": {
          "_0": "the WithdrawProposal object"
        }
      },
      "grantRole(bytes32,address)": {
        "details": "Grants `role` to `account`. If `account` had not been already granted `role`, emits a {RoleGranted} event. Requirements: - the caller must have ``role``'s admin role."
      },
      "hasRole(bytes32,address)": {
        "details": "Returns `true` if `account` has been granted `role`."
      },
      "renounceRole(bytes32,address)": {
        "details": "Revokes `role` from the calling account. Roles are often managed via {grantRole} and {revokeRole}: this function's purpose is to provide a mechanism for accounts to lose their privileges if they are compromised (such as when a trusted device is misplaced). If the calling account had been granted `role`, emits a {RoleRevoked} event. Requirements: - the caller must be `account`."
      },
      "revokeRole(bytes32,address)": {
        "details": "Revokes `role` from `account`. If `account` had been granted `role`, emits a {RoleRevoked} event. Requirements: - the caller must have ``role``'s admin role."
      },
      "savePodOwners(address,address[])": {
        "params": {
          "_owners": "the array of the owners",
          "_podAddress": "the address of the pod"
        }
      },
      "setPodManagerContractAddress(address)": {
        "params": {
          "_podManagerContractAddress": "the address of the Privi NFT contract"
        }
      },
      "supportsInterface(bytes4)": {
        "details": "See {IERC165-supportsInterface}."
      },
      "voteWithdrawProposal(uint256,bool)": {
        "params": {
          "_proposalId": "the id of the withdraw proposal",
          "_vote": "the actual vote: true or false"
        }
      }
    },
    "title": "manager for pod withdrawals",
    "version": 1
  },
  "userdoc": {
    "kind": "user",
    "methods": {
      "createWithdrawProposal(address,address,uint256)": {
        "notice": "create a proposal for withdraw funds"
      },
      "getUpdateMediaProposal(uint256)": {
        "notice": "proposal struct getter"
      },
      "returnPodTokens(address)": {
        "notice": "allows the return of funds after a pod disposal"
      },
      "savePodOwners(address,address[])": {
        "notice": "save the owners for multisig feature"
      },
      "setPodManagerContractAddress(address)": {
        "notice": "sets the addresses to support integration"
      },
      "voteWithdrawProposal(uint256,bool)": {
        "notice": "allows owners to vote withdraw proposals for pods"
      }
    },
    "notice": "manages the withdrawals proposals and the multisign logic",
    "version": 1
  }
}