{
  "contractName": "PositionsHandler",
  "abi": [
    {
      "inputs": [
        {
          "components": [
            {
              "internalType": "uint256",
              "name": "requiredTRAX",
              "type": "uint256"
            },
            {
              "internalType": "uint256",
              "name": "rewardPercent",
              "type": "uint256"
            }
          ],
          "internalType": "struct StakePosition[]",
          "name": "positions",
          "type": "tuple[]"
        }
      ],
      "stateMutability": "nonpayable",
      "type": "constructor"
    },
    {
      "anonymous": false,
      "inputs": [
        {
          "indexed": true,
          "internalType": "address",
          "name": "previousOwner",
          "type": "address"
        },
        {
          "indexed": true,
          "internalType": "address",
          "name": "newOwner",
          "type": "address"
        }
      ],
      "name": "OwnershipTransferred",
      "type": "event"
    },
    {
      "inputs": [],
      "name": "owner",
      "outputs": [
        {
          "internalType": "address",
          "name": "",
          "type": "address"
        }
      ],
      "stateMutability": "view",
      "type": "function"
    },
    {
      "inputs": [],
      "name": "renounceOwnership",
      "outputs": [],
      "stateMutability": "nonpayable",
      "type": "function"
    },
    {
      "inputs": [
        {
          "internalType": "address",
          "name": "newOwner",
          "type": "address"
        }
      ],
      "name": "transferOwnership",
      "outputs": [],
      "stateMutability": "nonpayable",
      "type": "function"
    },
    {
      "inputs": [],
      "name": "getPositions",
      "outputs": [
        {
          "components": [
            {
              "internalType": "uint256",
              "name": "requiredTRAX",
              "type": "uint256"
            },
            {
              "internalType": "uint256",
              "name": "rewardPercent",
              "type": "uint256"
            }
          ],
          "internalType": "struct StakePosition[]",
          "name": "positions",
          "type": "tuple[]"
        }
      ],
      "stateMutability": "view",
      "type": "function"
    },
    {
      "inputs": [
        {
          "internalType": "uint256",
          "name": "_index",
          "type": "uint256"
        }
      ],
      "name": "getPositionByIndex",
      "outputs": [
        {
          "components": [
            {
              "internalType": "uint256",
              "name": "requiredTRAX",
              "type": "uint256"
            },
            {
              "internalType": "uint256",
              "name": "rewardPercent",
              "type": "uint256"
            }
          ],
          "internalType": "struct StakePosition",
          "name": "position",
          "type": "tuple"
        }
      ],
      "stateMutability": "view",
      "type": "function"
    }
  ],
  "bytecode": "0x60806040523480156200001157600080fd5b506040516200111f3803806200111f833981810160405281019062000037919062000423565b620000576200004b6200023960201b60201c565b6200024160201b60201c565b60008151116200009e576040517f08c379a00000000000000000000000000000000000000000000000000000000081526004016200009590620004c2565b60405180910390fd5b60005b60018251620000b19190620005cc565b811015620001c35781600182620000c991906200056f565b81518110620000dd57620000dc620006c4565b5b602002602001015160000151828281518110620000ff57620000fe620006c4565b5b602002602001015160000151106200014e576040517f08c379a00000000000000000000000000000000000000000000000000000000081526004016200014590620004e4565b60405180910390fd5b6001828281518110620001665762000165620006c4565b5b60200260200101519080600181540180825580915050600190039060005260206000209060020201600090919091909150600082015181600001556020820151816001015550508080620001ba9062000647565b915050620000a1565b5060018160018351620001d79190620005cc565b81518110620001eb57620001ea620006c4565b5b602002602001015190806001815401808255809150506001900390600052602060002090600202016000909190919091506000820151816000015560208201518160010155505050620007b8565b600033905090565b60008060009054906101000a900473ffffffffffffffffffffffffffffffffffffffff169050816000806101000a81548173ffffffffffffffffffffffffffffffffffffffff021916908373ffffffffffffffffffffffffffffffffffffffff1602179055508173ffffffffffffffffffffffffffffffffffffffff168173ffffffffffffffffffffffffffffffffffffffff167f8be0079c531659141344cd1fd0a4f28419497f9722a3daafe3b4186f6b6457e060405160405180910390a35050565b60006200031c62000316846200052f565b62000506565b905080838252602082019050828560408602820111156200034257620003416200072c565b5b60005b858110156200037657816200035b8882620003b3565b84526020840193506040830192505060018101905062000345565b5050509392505050565b600082601f83011262000398576200039762000722565b5b8151620003aa84826020860162000305565b91505092915050565b600060408284031215620003cc57620003cb62000727565b5b620003d8604062000506565b90506000620003ea848285016200040c565b600083015250602062000400848285016200040c565b60208301525092915050565b6000815190506200041d816200079e565b92915050565b6000602082840312156200043c576200043b62000736565b5b600082015167ffffffffffffffff8111156200045d576200045c62000731565b5b6200046b8482850162000380565b91505092915050565b6000620004836012836200055e565b915062000490826200074c565b602082019050919050565b6000620004aa6011836200055e565b9150620004b78262000775565b602082019050919050565b60006020820190508181036000830152620004dd8162000474565b9050919050565b60006020820190508181036000830152620004ff816200049b565b9050919050565b60006200051262000525565b905062000520828262000611565b919050565b6000604051905090565b600067ffffffffffffffff8211156200054d576200054c620006f3565b5b602082029050602081019050919050565b600082825260208201905092915050565b60006200057c8262000607565b9150620005898362000607565b9250827fffffffffffffffffffffffffffffffffffffffffffffffffffffffffffffffff03821115620005c157620005c062000695565b5b828201905092915050565b6000620005d98262000607565b9150620005e68362000607565b925082821015620005fc57620005fb62000695565b5b828203905092915050565b6000819050919050565b6200061c826200073b565b810181811067ffffffffffffffff821117156200063e576200063d620006f3565b5b80604052505050565b6000620006548262000607565b91507fffffffffffffffffffffffffffffffffffffffffffffffffffffffffffffffff8214156200068a576200068962000695565b5b600182019050919050565b7f4e487b7100000000000000000000000000000000000000000000000000000000600052601160045260246000fd5b7f4e487b7100000000000000000000000000000000000000000000000000000000600052603260045260246000fd5b7f4e487b7100000000000000000000000000000000000000000000000000000000600052604160045260246000fd5b600080fd5b600080fd5b600080fd5b600080fd5b600080fd5b6000601f19601f8301169050919050565b7f506f736974696f6e732072657175697265640000000000000000000000000000600082015250565b7f496e76616c696420706f736974696f6e73000000000000000000000000000000600082015250565b620007a98162000607565b8114620007b557600080fd5b50565b61095780620007c86000396000f3fe608060405234801561001057600080fd5b50600436106100575760003560e01c806344ff7dc31461005c578063715018a61461008c57806380275860146100965780638da5cb5b146100b4578063f2fde38b146100d2575b600080fd5b610076600480360381019061007191906104f5565b6100ee565b604051610083919061071a565b60405180910390f35b61009461019c565b005b61009e610224565b6040516100ab9190610698565b60405180910390f35b6100bc610297565b6040516100c9919061067d565b60405180910390f35b6100ec60048036038101906100e791906104c8565b6102c0565b005b6100f6610484565b6000821480610109575060018054905082115b15610149576040517f08c379a0000000000000000000000000000000000000000000000000000000008152600401610140906106da565b60405180910390fd5b60018083610157919061077f565b815481106101685761016761081e565b5b9060005260206000209060020201604051806040016040529081600082015481526020016001820154815250509050919050565b6101a46103b8565b73ffffffffffffffffffffffffffffffffffffffff166101c2610297565b73ffffffffffffffffffffffffffffffffffffffff1614610218576040517f08c379a000000000000000000000000000000000000000000000000000000000815260040161020f906106fa565b60405180910390fd5b61022260006103c0565b565b60606001805480602002602001604051908101604052809291908181526020016000905b8282101561028e57838290600052602060002090600202016040518060400160405290816000820154815260200160018201548152505081526020019060010190610248565b50505050905090565b60008060009054906101000a900473ffffffffffffffffffffffffffffffffffffffff16905090565b6102c86103b8565b73ffffffffffffffffffffffffffffffffffffffff166102e6610297565b73ffffffffffffffffffffffffffffffffffffffff161461033c576040517f08c379a0000000000000000000000000000000000000000000000000000000008152600401610333906106fa565b60405180910390fd5b600073ffffffffffffffffffffffffffffffffffffffff168173ffffffffffffffffffffffffffffffffffffffff1614156103ac576040517f08c379a00000000000000000000000000000000000000000000000000000000081526004016103a3906106ba565b60405180910390fd5b6103b5816103c0565b50565b600033905090565b60008060009054906101000a900473ffffffffffffffffffffffffffffffffffffffff169050816000806101000a81548173ffffffffffffffffffffffffffffffffffffffff021916908373ffffffffffffffffffffffffffffffffffffffff1602179055508173ffffffffffffffffffffffffffffffffffffffff168173ffffffffffffffffffffffffffffffffffffffff167f8be0079c531659141344cd1fd0a4f28419497f9722a3daafe3b4186f6b6457e060405160405180910390a35050565b604051806040016040528060008152602001600081525090565b6000813590506104ad816108f3565b92915050565b6000813590506104c28161090a565b92915050565b6000602082840312156104de576104dd61084d565b5b60006104ec8482850161049e565b91505092915050565b60006020828403121561050b5761050a61084d565b5b6000610519848285016104b3565b91505092915050565b600061052e8383610610565b60408301905092915050565b610543816107b3565b82525050565b600061055482610745565b61055e818561075d565b935061056983610735565b8060005b8381101561059a5781516105818882610522565b975061058c83610750565b92505060018101905061056d565b5085935050505092915050565b60006105b460268361076e565b91506105bf82610852565b604082019050919050565b60006105d7600d8361076e565b91506105e2826108a1565b602082019050919050565b60006105fa60208361076e565b9150610605826108ca565b602082019050919050565b604082016000820151610626600085018261066e565b506020820151610639602085018261066e565b50505050565b604082016000820151610655600085018261066e565b506020820151610668602085018261066e565b50505050565b610677816107e5565b82525050565b6000602082019050610692600083018461053a565b92915050565b600060208201905081810360008301526106b28184610549565b905092915050565b600060208201905081810360008301526106d3816105a7565b9050919050565b600060208201905081810360008301526106f3816105ca565b9050919050565b60006020820190508181036000830152610713816105ed565b9050919050565b600060408201905061072f600083018461063f565b92915050565b6000819050602082019050919050565b600081519050919050565b6000602082019050919050565b600082825260208201905092915050565b600082825260208201905092915050565b600061078a826107e5565b9150610795836107e5565b9250828210156107a8576107a76107ef565b5b828203905092915050565b60006107be826107c5565b9050919050565b600073ffffffffffffffffffffffffffffffffffffffff82169050919050565b6000819050919050565b7f4e487b7100000000000000000000000000000000000000000000000000000000600052601160045260246000fd5b7f4e487b7100000000000000000000000000000000000000000000000000000000600052603260045260246000fd5b600080fd5b7f4f776e61626c653a206e6577206f776e657220697320746865207a65726f206160008201527f6464726573730000000000000000000000000000000000000000000000000000602082015250565b7f496e76616c696420696e64657800000000000000000000000000000000000000600082015250565b7f4f776e61626c653a2063616c6c6572206973206e6f7420746865206f776e6572600082015250565b6108fc816107b3565b811461090757600080fd5b50565b610913816107e5565b811461091e57600080fd5b5056fea2646970667358221220949efc80eaeaaae6d46449c7ebb7f08eee0c178699ede08c360f99b92d76e42a64736f6c63430008060033",
  "immutableReferences": {},
  "source": "// SPDX-License-Identifier: MIT\npragma solidity ^0.8.0;\n\nimport \"@openzeppelin/contracts/access/Ownable.sol\";\nimport \"./Structs.sol\";\n\n/**\n * @title Positions handling for song staking\n * @author Eric Nordelo\n */\ncontract PositionsHandler is Ownable {\n    StakePosition[] private _positions;\n\n    constructor(StakePosition[] memory positions) {\n        require(positions.length > 0, \"Positions required\");\n\n        for (uint256 i; i < positions.length - 1; i++) {\n            require(positions[i].requiredTRAX < positions[i + 1].requiredTRAX, \"Invalid positions\");\n            _positions.push(positions[i]);\n        }\n        _positions.push(positions[positions.length - 1]);\n    }\n\n    function getPositions() external view returns (StakePosition[] memory positions) {\n        return _positions;\n    }\n\n    function getPositionByIndex(uint256 _index) external view returns (StakePosition memory position) {\n        if (_index == 0 || _index > _positions.length) {\n            revert(\"Invalid index\");\n        }\n        return _positions[_index - 1];\n    }\n\n    /**\n     * @dev TODO add update positions functionality (only owner)\n     */\n}\n",
  "sourcePath": "/home/ericng/Documents/PRIVI/privi-trax-app/contracts/PositionsHandler.sol",
  "compiler": {
    "name": "solc",
    "version": "0.8.6+commit.11564f7e.Emscripten.clang"
  },
  "schemaVersion": "3.4.2",
  "updatedAt": "2021-08-24T13:44:30.229Z",
  "devdoc": {
    "author": "Eric Nordelo",
    "kind": "dev",
    "methods": {
      "owner()": {
        "details": "Returns the address of the current owner."
      },
      "renounceOwnership()": {
        "details": "Leaves the contract without owner. It will not be possible to call `onlyOwner` functions anymore. Can only be called by the current owner. NOTE: Renouncing ownership will leave the contract without an owner, thereby removing any functionality that is only available to the owner."
      },
      "transferOwnership(address)": {
        "details": "Transfers ownership of the contract to a new account (`newOwner`). Can only be called by the current owner."
      }
    },
    "title": "Positions handling for song staking",
    "version": 1
  },
  "userdoc": {
    "kind": "user",
    "methods": {},
    "version": 1
  }
}