{
  "contractName": "PriviNFT",
  "abi": [
    {
      "inputs": [
        {
          "internalType": "string",
          "name": "name_",
          "type": "string"
        },
        {
          "internalType": "string",
          "name": "symbol_",
          "type": "string"
        }
      ],
      "stateMutability": "nonpayable",
      "type": "constructor"
    },
    {
      "anonymous": false,
      "inputs": [
        {
          "indexed": true,
          "internalType": "address",
          "name": "owner",
          "type": "address"
        },
        {
          "indexed": true,
          "internalType": "address",
          "name": "approved",
          "type": "address"
        },
        {
          "indexed": true,
          "internalType": "uint256",
          "name": "tokenId",
          "type": "uint256"
        }
      ],
      "name": "Approval",
      "type": "event"
    },
    {
      "anonymous": false,
      "inputs": [
        {
          "indexed": true,
          "internalType": "address",
          "name": "owner",
          "type": "address"
        },
        {
          "indexed": true,
          "internalType": "address",
          "name": "operator",
          "type": "address"
        },
        {
          "indexed": false,
          "internalType": "bool",
          "name": "approved",
          "type": "bool"
        }
      ],
      "name": "ApprovalForAll",
      "type": "event"
    },
    {
      "anonymous": false,
      "inputs": [
        {
          "indexed": false,
          "internalType": "address",
          "name": "account",
          "type": "address"
        }
      ],
      "name": "Paused",
      "type": "event"
    },
    {
      "anonymous": false,
      "inputs": [
        {
          "indexed": true,
          "internalType": "bytes32",
          "name": "role",
          "type": "bytes32"
        },
        {
          "indexed": true,
          "internalType": "bytes32",
          "name": "previousAdminRole",
          "type": "bytes32"
        },
        {
          "indexed": true,
          "internalType": "bytes32",
          "name": "newAdminRole",
          "type": "bytes32"
        }
      ],
      "name": "RoleAdminChanged",
      "type": "event"
    },
    {
      "anonymous": false,
      "inputs": [
        {
          "indexed": true,
          "internalType": "bytes32",
          "name": "role",
          "type": "bytes32"
        },
        {
          "indexed": true,
          "internalType": "address",
          "name": "account",
          "type": "address"
        },
        {
          "indexed": true,
          "internalType": "address",
          "name": "sender",
          "type": "address"
        }
      ],
      "name": "RoleGranted",
      "type": "event"
    },
    {
      "anonymous": false,
      "inputs": [
        {
          "indexed": true,
          "internalType": "bytes32",
          "name": "role",
          "type": "bytes32"
        },
        {
          "indexed": true,
          "internalType": "address",
          "name": "account",
          "type": "address"
        },
        {
          "indexed": true,
          "internalType": "address",
          "name": "sender",
          "type": "address"
        }
      ],
      "name": "RoleRevoked",
      "type": "event"
    },
    {
      "anonymous": false,
      "inputs": [
        {
          "indexed": true,
          "internalType": "address",
          "name": "from",
          "type": "address"
        },
        {
          "indexed": true,
          "internalType": "address",
          "name": "to",
          "type": "address"
        },
        {
          "indexed": true,
          "internalType": "uint256",
          "name": "tokenId",
          "type": "uint256"
        }
      ],
      "name": "Transfer",
      "type": "event"
    },
    {
      "anonymous": false,
      "inputs": [
        {
          "indexed": false,
          "internalType": "address",
          "name": "account",
          "type": "address"
        }
      ],
      "name": "Unpaused",
      "type": "event"
    },
    {
      "inputs": [],
      "name": "ADMIN",
      "outputs": [
        {
          "internalType": "bytes32",
          "name": "",
          "type": "bytes32"
        }
      ],
      "stateMutability": "view",
      "type": "function",
      "constant": true
    },
    {
      "inputs": [],
      "name": "DEFAULT_ADMIN_ROLE",
      "outputs": [
        {
          "internalType": "bytes32",
          "name": "",
          "type": "bytes32"
        }
      ],
      "stateMutability": "view",
      "type": "function",
      "constant": true
    },
    {
      "inputs": [],
      "name": "MEDIA_ADMIN",
      "outputs": [
        {
          "internalType": "bytes32",
          "name": "",
          "type": "bytes32"
        }
      ],
      "stateMutability": "view",
      "type": "function",
      "constant": true
    },
    {
      "inputs": [],
      "name": "MEDIA_FRACTIONALIZE_ADMIN",
      "outputs": [
        {
          "internalType": "bytes32",
          "name": "",
          "type": "bytes32"
        }
      ],
      "stateMutability": "view",
      "type": "function",
      "constant": true
    },
    {
      "inputs": [],
      "name": "MEDIA_UPDATE_ADMIN",
      "outputs": [
        {
          "internalType": "bytes32",
          "name": "",
          "type": "bytes32"
        }
      ],
      "stateMutability": "view",
      "type": "function",
      "constant": true
    },
    {
      "inputs": [
        {
          "internalType": "address",
          "name": "to",
          "type": "address"
        },
        {
          "internalType": "uint256",
          "name": "tokenId",
          "type": "uint256"
        }
      ],
      "name": "approve",
      "outputs": [],
      "stateMutability": "nonpayable",
      "type": "function"
    },
    {
      "inputs": [
        {
          "internalType": "address",
          "name": "owner",
          "type": "address"
        }
      ],
      "name": "balanceOf",
      "outputs": [
        {
          "internalType": "uint256",
          "name": "",
          "type": "uint256"
        }
      ],
      "stateMutability": "view",
      "type": "function",
      "constant": true
    },
    {
      "inputs": [
        {
          "internalType": "uint256",
          "name": "tokenId",
          "type": "uint256"
        }
      ],
      "name": "getApproved",
      "outputs": [
        {
          "internalType": "address",
          "name": "",
          "type": "address"
        }
      ],
      "stateMutability": "view",
      "type": "function",
      "constant": true
    },
    {
      "inputs": [
        {
          "internalType": "bytes32",
          "name": "role",
          "type": "bytes32"
        }
      ],
      "name": "getRoleAdmin",
      "outputs": [
        {
          "internalType": "bytes32",
          "name": "",
          "type": "bytes32"
        }
      ],
      "stateMutability": "view",
      "type": "function",
      "constant": true
    },
    {
      "inputs": [
        {
          "internalType": "bytes32",
          "name": "role",
          "type": "bytes32"
        },
        {
          "internalType": "address",
          "name": "account",
          "type": "address"
        }
      ],
      "name": "grantRole",
      "outputs": [],
      "stateMutability": "nonpayable",
      "type": "function"
    },
    {
      "inputs": [
        {
          "internalType": "bytes32",
          "name": "role",
          "type": "bytes32"
        },
        {
          "internalType": "address",
          "name": "account",
          "type": "address"
        }
      ],
      "name": "hasRole",
      "outputs": [
        {
          "internalType": "bool",
          "name": "",
          "type": "bool"
        }
      ],
      "stateMutability": "view",
      "type": "function",
      "constant": true
    },
    {
      "inputs": [
        {
          "internalType": "address",
          "name": "owner",
          "type": "address"
        },
        {
          "internalType": "address",
          "name": "operator",
          "type": "address"
        }
      ],
      "name": "isApprovedForAll",
      "outputs": [
        {
          "internalType": "bool",
          "name": "",
          "type": "bool"
        }
      ],
      "stateMutability": "view",
      "type": "function",
      "constant": true
    },
    {
      "inputs": [],
      "name": "name",
      "outputs": [
        {
          "internalType": "string",
          "name": "",
          "type": "string"
        }
      ],
      "stateMutability": "view",
      "type": "function",
      "constant": true
    },
    {
      "inputs": [
        {
          "internalType": "uint256",
          "name": "tokenId",
          "type": "uint256"
        }
      ],
      "name": "ownerOf",
      "outputs": [
        {
          "internalType": "address",
          "name": "",
          "type": "address"
        }
      ],
      "stateMutability": "view",
      "type": "function",
      "constant": true
    },
    {
      "inputs": [],
      "name": "paused",
      "outputs": [
        {
          "internalType": "bool",
          "name": "",
          "type": "bool"
        }
      ],
      "stateMutability": "view",
      "type": "function",
      "constant": true
    },
    {
      "inputs": [
        {
          "internalType": "bytes32",
          "name": "role",
          "type": "bytes32"
        },
        {
          "internalType": "address",
          "name": "account",
          "type": "address"
        }
      ],
      "name": "renounceRole",
      "outputs": [],
      "stateMutability": "nonpayable",
      "type": "function"
    },
    {
      "inputs": [
        {
          "internalType": "bytes32",
          "name": "role",
          "type": "bytes32"
        },
        {
          "internalType": "address",
          "name": "account",
          "type": "address"
        }
      ],
      "name": "revokeRole",
      "outputs": [],
      "stateMutability": "nonpayable",
      "type": "function"
    },
    {
      "inputs": [
        {
          "internalType": "address",
          "name": "from",
          "type": "address"
        },
        {
          "internalType": "address",
          "name": "to",
          "type": "address"
        },
        {
          "internalType": "uint256",
          "name": "tokenId",
          "type": "uint256"
        }
      ],
      "name": "safeTransferFrom",
      "outputs": [],
      "stateMutability": "nonpayable",
      "type": "function"
    },
    {
      "inputs": [
        {
          "internalType": "address",
          "name": "from",
          "type": "address"
        },
        {
          "internalType": "address",
          "name": "to",
          "type": "address"
        },
        {
          "internalType": "uint256",
          "name": "tokenId",
          "type": "uint256"
        },
        {
          "internalType": "bytes",
          "name": "_data",
          "type": "bytes"
        }
      ],
      "name": "safeTransferFrom",
      "outputs": [],
      "stateMutability": "nonpayable",
      "type": "function"
    },
    {
      "inputs": [
        {
          "internalType": "address",
          "name": "operator",
          "type": "address"
        },
        {
          "internalType": "bool",
          "name": "approved",
          "type": "bool"
        }
      ],
      "name": "setApprovalForAll",
      "outputs": [],
      "stateMutability": "nonpayable",
      "type": "function"
    },
    {
      "inputs": [],
      "name": "symbol",
      "outputs": [
        {
          "internalType": "string",
          "name": "",
          "type": "string"
        }
      ],
      "stateMutability": "view",
      "type": "function",
      "constant": true
    },
    {
      "inputs": [
        {
          "internalType": "address",
          "name": "from",
          "type": "address"
        },
        {
          "internalType": "address",
          "name": "to",
          "type": "address"
        },
        {
          "internalType": "uint256",
          "name": "tokenId",
          "type": "uint256"
        }
      ],
      "name": "transferFrom",
      "outputs": [],
      "stateMutability": "nonpayable",
      "type": "function"
    },
    {
      "inputs": [
        {
          "components": [
            {
              "internalType": "address",
              "name": "creatorAddress",
              "type": "address"
            },
            {
              "internalType": "string",
              "name": "mediaName",
              "type": "string"
            },
            {
              "internalType": "string",
              "name": "mediaType",
              "type": "string"
            },
            {
              "internalType": "uint80",
              "name": "royalty",
              "type": "uint80"
            },
            {
              "internalType": "uint80",
              "name": "collabsSize",
              "type": "uint80"
            },
            {
              "internalType": "uint80",
              "name": "ownersSize",
              "type": "uint80"
            }
          ],
          "internalType": "struct Media",
          "name": "_media",
          "type": "tuple"
        },
        {
          "internalType": "string",
          "name": "_tokenURI",
          "type": "string"
        }
      ],
      "name": "createMedia",
      "outputs": [
        {
          "internalType": "uint256",
          "name": "",
          "type": "uint256"
        }
      ],
      "stateMutability": "nonpayable",
      "type": "function"
    },
    {
      "inputs": [
        {
          "internalType": "uint256",
          "name": "_tokenId",
          "type": "uint256"
        }
      ],
      "name": "getMedia",
      "outputs": [
        {
          "components": [
            {
              "internalType": "address",
              "name": "creatorAddress",
              "type": "address"
            },
            {
              "internalType": "string",
              "name": "mediaName",
              "type": "string"
            },
            {
              "internalType": "string",
              "name": "mediaType",
              "type": "string"
            },
            {
              "internalType": "uint80",
              "name": "royalty",
              "type": "uint80"
            },
            {
              "internalType": "uint80",
              "name": "collabsSize",
              "type": "uint80"
            },
            {
              "internalType": "uint80",
              "name": "ownersSize",
              "type": "uint80"
            }
          ],
          "internalType": "struct Media",
          "name": "",
          "type": "tuple"
        }
      ],
      "stateMutability": "view",
      "type": "function",
      "constant": true
    },
    {
      "inputs": [
        {
          "internalType": "uint256",
          "name": "_tokenId",
          "type": "uint256"
        },
        {
          "internalType": "uint256",
          "name": "_collabsSize",
          "type": "uint256"
        }
      ],
      "name": "updateMediaCollabsSize",
      "outputs": [],
      "stateMutability": "nonpayable",
      "type": "function"
    },
    {
      "inputs": [
        {
          "internalType": "uint256",
          "name": "_tokenId",
          "type": "uint256"
        },
        {
          "internalType": "uint256",
          "name": "_ownersSize",
          "type": "uint256"
        }
      ],
      "name": "updateMediaOwnersSize",
      "outputs": [],
      "stateMutability": "nonpayable",
      "type": "function"
    },
    {
      "inputs": [
        {
          "components": [
            {
              "internalType": "uint128",
              "name": "mediaId",
              "type": "uint128"
            },
            {
              "internalType": "uint128",
              "name": "royalty",
              "type": "uint128"
            },
            {
              "internalType": "address",
              "name": "requesterAddress",
              "type": "address"
            },
            {
              "internalType": "string",
              "name": "mediaName",
              "type": "string"
            },
            {
              "internalType": "string",
              "name": "mediaType",
              "type": "string"
            }
          ],
          "internalType": "struct UpdateMediaRequest",
          "name": "_updateMediaRequest",
          "type": "tuple"
        }
      ],
      "name": "updateMedia",
      "outputs": [],
      "stateMutability": "nonpayable",
      "type": "function"
    },
    {
      "inputs": [
        {
          "internalType": "uint256",
          "name": "_tokenId",
          "type": "uint256"
        }
      ],
      "name": "creatorOf",
      "outputs": [
        {
          "internalType": "address",
          "name": "",
          "type": "address"
        }
      ],
      "stateMutability": "view",
      "type": "function",
      "constant": true
    },
    {
      "inputs": [
        {
          "internalType": "uint256",
          "name": "_tokenId",
          "type": "uint256"
        }
      ],
      "name": "tokenURI",
      "outputs": [
        {
          "internalType": "string",
          "name": "",
          "type": "string"
        }
      ],
      "stateMutability": "view",
      "type": "function",
      "constant": true
    },
    {
      "inputs": [],
      "name": "pause",
      "outputs": [],
      "stateMutability": "nonpayable",
      "type": "function"
    },
    {
      "inputs": [],
      "name": "unpause",
      "outputs": [],
      "stateMutability": "nonpayable",
      "type": "function"
    },
    {
      "inputs": [
        {
          "internalType": "bytes4",
          "name": "interfaceId",
          "type": "bytes4"
        }
      ],
      "name": "supportsInterface",
      "outputs": [
        {
          "internalType": "bool",
          "name": "",
          "type": "bool"
        }
      ],
      "stateMutability": "view",
      "type": "function",
      "constant": true
    }
  ],
  "bytecode": "0x60806040523480156200001157600080fd5b50604051620053c5380380620053c5833981810160405281019062000037919062000374565b818181600090805190602001906200005192919062000252565b5080600190805190602001906200006a92919062000252565b5050506000600760006101000a81548160ff0219169083151502179055506200009d6000801b33620000d760201b60201c565b620000cf7ff23ec0bb4210edd5cba85afd05127efcd2fc6a781bfed49188da1081670b22d833620000d760201b60201c565b505062000557565b620000e98282620000ed60201b60201c565b5050565b620000ff8282620001df60201b60201c565b620001db5760016008600084815260200190815260200160002060000160008373ffffffffffffffffffffffffffffffffffffffff1673ffffffffffffffffffffffffffffffffffffffff16815260200190815260200160002060006101000a81548160ff021916908315150217905550620001806200024a60201b60201c565b73ffffffffffffffffffffffffffffffffffffffff168173ffffffffffffffffffffffffffffffffffffffff16837f2f8788117e7eff1d82e926ec794901d17c78024a50270940304540a733656f0d60405160405180910390a45b5050565b60006008600084815260200190815260200160002060000160008373ffffffffffffffffffffffffffffffffffffffff1673ffffffffffffffffffffffffffffffffffffffff16815260200190815260200160002060009054906101000a900460ff16905092915050565b600033905090565b82805462000260906200047c565b90600052602060002090601f016020900481019282620002845760008555620002d0565b82601f106200029f57805160ff1916838001178555620002d0565b82800160010185558215620002d0579182015b82811115620002cf578251825591602001919060010190620002b2565b5b509050620002df9190620002e3565b5090565b5b80821115620002fe576000816000905550600101620002e4565b5090565b600062000319620003138462000410565b620003e7565b9050828152602081018484840111156200033257600080fd5b6200033f84828562000446565b509392505050565b600082601f8301126200035957600080fd5b81516200036b84826020860162000302565b91505092915050565b600080604083850312156200038857600080fd5b600083015167ffffffffffffffff811115620003a357600080fd5b620003b18582860162000347565b925050602083015167ffffffffffffffff811115620003cf57600080fd5b620003dd8582860162000347565b9150509250929050565b6000620003f362000406565b9050620004018282620004b2565b919050565b6000604051905090565b600067ffffffffffffffff8211156200042e576200042d62000517565b5b620004398262000546565b9050602081019050919050565b60005b838110156200046657808201518184015260208101905062000449565b8381111562000476576000848401525b50505050565b600060028204905060018216806200049557607f821691505b60208210811415620004ac57620004ab620004e8565b5b50919050565b620004bd8262000546565b810181811067ffffffffffffffff82111715620004df57620004de62000517565b5b80604052505050565b7f4e487b7100000000000000000000000000000000000000000000000000000000600052602260045260246000fd5b7f4e487b7100000000000000000000000000000000000000000000000000000000600052604160045260246000fd5b6000601f19601f8301169050919050565b614e5e80620005676000396000f3fe608060405234801561001057600080fd5b50600436106101f05760003560e01c806370a082311161010f578063b88d4fde116100a2578063e3ec305d11610071578063e3ec305d146105b5578063e985e9c5146105d3578063fadb2be214610603578063fb43c7e81461061f576101f0565b8063b88d4fde1461051d578063c87b56dd14610539578063d547741f14610569578063dfa2ed6a14610585576101f0565b80639dde23b1116100de5780639dde23b1146104a9578063a217fddf146104c7578063a22cb465146104e5578063a26f56de14610501576101f0565b806370a08231146104215780638456cb591461045157806391d148541461045b57806395d89b411461048b576101f0565b806336568abe1161018757806342842e0e1161015657806342842e0e14610387578063589a1743146103a35780635c975abb146103d35780636352211e146103f1576101f0565b806336568abe146103155780633ce53dfc146103315780633f4ba83a1461036157806341f112f01461036b576101f0565b806323b872dd116101c357806323b872dd1461028f578063248a9ca3146102ab5780632a0acc6a146102db5780632f2ff15d146102f9576101f0565b806301ffc9a7146101f557806306fdde0314610225578063081812fc14610243578063095ea7b314610273575b600080fd5b61020f600480360381019061020a91906136c9565b61063d565b60405161021c9190613e69565b60405180910390f35b61022d61065f565b60405161023a9190613e9f565b60405180910390f35b61025d600480360381019061025891906137c8565b6106f1565b60405161026a9190613e02565b60405180910390f35b61028d60048036038101906102889190613628565b610776565b005b6102a960048036038101906102a49190613522565b61088e565b005b6102c560048036038101906102c09190613664565b6108ee565b6040516102d29190613e84565b60405180910390f35b6102e361090e565b6040516102f09190613e84565b60405180910390f35b610313600480360381019061030e919061368d565b610932565b005b61032f600480360381019061032a919061368d565b61095b565b005b61034b6004803603810190610346919061371b565b6109de565b6040516103589190614203565b60405180910390f35b610369610a9d565b005b610385600480360381019061038091906137f1565b610ada565b005b6103a1600480360381019061039c9190613522565b610b52565b005b6103bd60048036038101906103b891906137c8565b610b72565b6040516103ca9190613e02565b60405180910390f35b6103db610c27565b6040516103e89190613e69565b60405180910390f35b61040b600480360381019061040691906137c8565b610c3e565b6040516104189190613e02565b60405180910390f35b61043b600480360381019061043691906134bd565b610cf0565b6040516104489190614203565b60405180910390f35b610459610da8565b005b6104756004803603810190610470919061368d565b610de5565b6040516104829190613e69565b60405180910390f35b610493610e50565b6040516104a09190613e9f565b60405180910390f35b6104b1610ee2565b6040516104be9190613e84565b60405180910390f35b6104cf610f06565b6040516104dc9190613e84565b60405180910390f35b6104ff60048036038101906104fa91906135ec565b610f0d565b005b61051b60048036038101906105169190613787565b61108e565b005b61053760048036038101906105329190613571565b61151c565b005b610553600480360381019061054e91906137c8565b61157e565b6040516105609190613e9f565b60405180910390f35b610583600480360381019061057e919061368d565b611590565b005b61059f600480360381019061059a91906137c8565b6115b9565b6040516105ac91906141e1565b60405180910390f35b6105bd6118b5565b6040516105ca9190613e84565b60405180910390f35b6105ed60048036038101906105e891906134e6565b6118d9565b6040516105fa9190613e69565b60405180910390f35b61061d600480360381019061061891906137f1565b61196d565b005b6106276119e5565b6040516106349190613e84565b60405180910390f35b600061064882611a09565b80610658575061065782611a83565b5b9050919050565b60606000805461066e9061452a565b80601f016020809104026020016040519081016040528092919081815260200182805461069a9061452a565b80156106e75780601f106106bc576101008083540402835291602001916106e7565b820191906000526020600020905b8154815290600101906020018083116106ca57829003601f168201915b5050505050905090565b60006106fc82611b65565b61073b576040517f08c379a0000000000000000000000000000000000000000000000000000000008152600401610732906140e1565b60405180910390fd5b6004600083815260200190815260200160002060009054906101000a900473ffffffffffffffffffffffffffffffffffffffff169050919050565b600061078182610c3e565b90508073ffffffffffffffffffffffffffffffffffffffff168373ffffffffffffffffffffffffffffffffffffffff1614156107f2576040517f08c379a00000000000000000000000000000000000000000000000000000000081526004016107e990614161565b60405180910390fd5b8073ffffffffffffffffffffffffffffffffffffffff16610811611bd1565b73ffffffffffffffffffffffffffffffffffffffff161480610840575061083f8161083a611bd1565b6118d9565b5b61087f576040517f08c379a000000000000000000000000000000000000000000000000000000000815260040161087690614021565b60405180910390fd5b6108898383611bd9565b505050565b61089f610899611bd1565b82611c92565b6108de576040517f08c379a00000000000000000000000000000000000000000000000000000000081526004016108d590614181565b60405180910390fd5b6108e9838383611d70565b505050565b600060086000838152602001908152602001600020600101549050919050565b7ff23ec0bb4210edd5cba85afd05127efcd2fc6a781bfed49188da1081670b22d881565b61093b826108ee565b61094c81610947611bd1565b611fcc565b6109568383612069565b505050565b610963611bd1565b73ffffffffffffffffffffffffffffffffffffffff168173ffffffffffffffffffffffffffffffffffffffff16146109d0576040517f08c379a00000000000000000000000000000000000000000000000000000000081526004016109c7906141c1565b60405180910390fd5b6109da828261214a565b5050565b60007f03e0cf15af010161bcddc9619da1d1d93c81bb9d182401e6efbf761cff2761d4610a1281610a0d611bd1565b611fcc565b612710846060015169ffffffffffffffffffff1610610a66576040517f08c379a0000000000000000000000000000000000000000000000000000000008152600401610a5d906141a1565b60405180910390fd5b610a70600961222c565b6000610a7c6009612242565b9050610a888582612250565b610a928185612393565b809250505092915050565b7ff23ec0bb4210edd5cba85afd05127efcd2fc6a781bfed49188da1081670b22d8610acf81610aca611bd1565b611fcc565b610ad7612407565b50565b7fa0c36361a8f1a75668ca75b6f895e32ed3565b60eb5767bd43f3d934f793059d610b0c81610b07611bd1565b611fcc565b81600a600085815260200190815260200160002060030160146101000a81548169ffffffffffffffffffff021916908369ffffffffffffffffffff160217905550505050565b610b6d8383836040518060200160405280600081525061151c565b505050565b600080600a600084815260200190815260200160002060000160009054906101000a900473ffffffffffffffffffffffffffffffffffffffff169050600073ffffffffffffffffffffffffffffffffffffffff168173ffffffffffffffffffffffffffffffffffffffff161415610c1e576040517f08c379a0000000000000000000000000000000000000000000000000000000008152600401610c1590613f81565b60405180910390fd5b80915050919050565b6000600760009054906101000a900460ff16905090565b6000806002600084815260200190815260200160002060009054906101000a900473ffffffffffffffffffffffffffffffffffffffff169050600073ffffffffffffffffffffffffffffffffffffffff168173ffffffffffffffffffffffffffffffffffffffff161415610ce7576040517f08c379a0000000000000000000000000000000000000000000000000000000008152600401610cde90614061565b60405180910390fd5b80915050919050565b60008073ffffffffffffffffffffffffffffffffffffffff168273ffffffffffffffffffffffffffffffffffffffff161415610d61576040517f08c379a0000000000000000000000000000000000000000000000000000000008152600401610d5890614041565b60405180910390fd5b600360008373ffffffffffffffffffffffffffffffffffffffff1673ffffffffffffffffffffffffffffffffffffffff168152602001908152602001600020549050919050565b7ff23ec0bb4210edd5cba85afd05127efcd2fc6a781bfed49188da1081670b22d8610dda81610dd5611bd1565b611fcc565b610de26124a9565b50565b60006008600084815260200190815260200160002060000160008373ffffffffffffffffffffffffffffffffffffffff1673ffffffffffffffffffffffffffffffffffffffff16815260200190815260200160002060009054906101000a900460ff16905092915050565b606060018054610e5f9061452a565b80601f0160208091040260200160405190810160405280929190818152602001828054610e8b9061452a565b8015610ed85780601f10610ead57610100808354040283529160200191610ed8565b820191906000526020600020905b815481529060010190602001808311610ebb57829003601f168201915b5050505050905090565b7fa0c36361a8f1a75668ca75b6f895e32ed3565b60eb5767bd43f3d934f793059d81565b6000801b81565b610f15611bd1565b73ffffffffffffffffffffffffffffffffffffffff168273ffffffffffffffffffffffffffffffffffffffff161415610f83576040517f08c379a0000000000000000000000000000000000000000000000000000000008152600401610f7a90613fc1565b60405180910390fd5b8060056000610f90611bd1565b73ffffffffffffffffffffffffffffffffffffffff1673ffffffffffffffffffffffffffffffffffffffff16815260200190815260200160002060008473ffffffffffffffffffffffffffffffffffffffff1673ffffffffffffffffffffffffffffffffffffffff16815260200190815260200160002060006101000a81548160ff0219169083151502179055508173ffffffffffffffffffffffffffffffffffffffff1661103d611bd1565b73ffffffffffffffffffffffffffffffffffffffff167f17307eab39ab6107e8899845ad3d59bd9653f200f220920489ca2b5937696c31836040516110829190613e69565b60405180910390a35050565b7fbbaf11a63c36555bb3c7c79992bda58f3f23e7fefa2de68ee7f5e014c817342a6110c0816110bb611bd1565b611fcc565b6000600a600084600001516fffffffffffffffffffffffffffffffff1681526020019081526020016000206040518060c00160405290816000820160009054906101000a900473ffffffffffffffffffffffffffffffffffffffff1673ffffffffffffffffffffffffffffffffffffffff1673ffffffffffffffffffffffffffffffffffffffff16815260200160018201805461115c9061452a565b80601f01602080910402602001604051908101604052809291908181526020018280546111889061452a565b80156111d55780601f106111aa576101008083540402835291602001916111d5565b820191906000526020600020905b8154815290600101906020018083116111b857829003601f168201915b505050505081526020016002820180546111ee9061452a565b80601f016020809104026020016040519081016040528092919081815260200182805461121a9061452a565b80156112675780601f1061123c57610100808354040283529160200191611267565b820191906000526020600020905b81548152906001019060200180831161124a57829003601f168201915b505050505081526020016003820160009054906101000a900469ffffffffffffffffffff1669ffffffffffffffffffff1669ffffffffffffffffffff16815260200160038201600a9054906101000a900469ffffffffffffffffffff1669ffffffffffffffffffff1669ffffffffffffffffffff1681526020016003820160149054906101000a900469ffffffffffffffffffff1669ffffffffffffffffffff1669ffffffffffffffffffff16815250509050600073ffffffffffffffffffffffffffffffffffffffff16816000015173ffffffffffffffffffffffffffffffffffffffff16141561138e576040517f08c379a000000000000000000000000000000000000000000000000000000000815260040161138590614141565b60405180910390fd5b8260200151816060019069ffffffffffffffffffff16908169ffffffffffffffffffff1681525050826060015181602001819052508260800151816040018190525080600a600085600001516fffffffffffffffffffffffffffffffff16815260200190815260200160002060008201518160000160006101000a81548173ffffffffffffffffffffffffffffffffffffffff021916908373ffffffffffffffffffffffffffffffffffffffff160217905550602082015181600101908051906020019061145d9291906130ae565b50604082015181600201908051906020019061147a9291906130ae565b5060608201518160030160006101000a81548169ffffffffffffffffffff021916908369ffffffffffffffffffff160217905550608082015181600301600a6101000a81548169ffffffffffffffffffff021916908369ffffffffffffffffffff16021790555060a08201518160030160146101000a81548169ffffffffffffffffffff021916908369ffffffffffffffffffff160217905550905050505050565b61152d611527611bd1565b83611c92565b61156c576040517f08c379a000000000000000000000000000000000000000000000000000000000815260040161156390614181565b60405180910390fd5b6115788484848461254c565b50505050565b6060611589826125a8565b9050919050565b611599826108ee565b6115aa816115a5611bd1565b611fcc565b6115b4838361214a565b505050565b6115c1613134565b7ff23ec0bb4210edd5cba85afd05127efcd2fc6a781bfed49188da1081670b22d86115f3816115ee611bd1565b611fcc565b6000600a60008581526020019081526020016000206040518060c00160405290816000820160009054906101000a900473ffffffffffffffffffffffffffffffffffffffff1673ffffffffffffffffffffffffffffffffffffffff1673ffffffffffffffffffffffffffffffffffffffff1681526020016001820180546116799061452a565b80601f01602080910402602001604051908101604052809291908181526020018280546116a59061452a565b80156116f25780601f106116c7576101008083540402835291602001916116f2565b820191906000526020600020905b8154815290600101906020018083116116d557829003601f168201915b5050505050815260200160028201805461170b9061452a565b80601f01602080910402602001604051908101604052809291908181526020018280546117379061452a565b80156117845780601f1061175957610100808354040283529160200191611784565b820191906000526020600020905b81548152906001019060200180831161176757829003601f168201915b505050505081526020016003820160009054906101000a900469ffffffffffffffffffff1669ffffffffffffffffffff1669ffffffffffffffffffff16815260200160038201600a9054906101000a900469ffffffffffffffffffff1669ffffffffffffffffffff1669ffffffffffffffffffff1681526020016003820160149054906101000a900469ffffffffffffffffffff1669ffffffffffffffffffff1669ffffffffffffffffffff16815250509050600073ffffffffffffffffffffffffffffffffffffffff16816000015173ffffffffffffffffffffffffffffffffffffffff1614156118ab576040517f08c379a00000000000000000000000000000000000000000000000000000000081526004016118a290613f21565b60405180910390fd5b8092505050919050565b7fbbaf11a63c36555bb3c7c79992bda58f3f23e7fefa2de68ee7f5e014c817342a81565b6000600560008473ffffffffffffffffffffffffffffffffffffffff1673ffffffffffffffffffffffffffffffffffffffff16815260200190815260200160002060008373ffffffffffffffffffffffffffffffffffffffff1673ffffffffffffffffffffffffffffffffffffffff16815260200190815260200160002060009054906101000a900460ff16905092915050565b7f03e0cf15af010161bcddc9619da1d1d93c81bb9d182401e6efbf761cff2761d461199f8161199a611bd1565b611fcc565b81600a6000858152602001908152602001600020600301600a6101000a81548169ffffffffffffffffffff021916908369ffffffffffffffffffff160217905550505050565b7f03e0cf15af010161bcddc9619da1d1d93c81bb9d182401e6efbf761cff2761d481565b60007f7965db0b000000000000000000000000000000000000000000000000000000007bffffffffffffffffffffffffffffffffffffffffffffffffffffffff1916827bffffffffffffffffffffffffffffffffffffffffffffffffffffffff19161480611a7c5750611a7b82611a83565b5b9050919050565b60007f80ac58cd000000000000000000000000000000000000000000000000000000007bffffffffffffffffffffffffffffffffffffffffffffffffffffffff1916827bffffffffffffffffffffffffffffffffffffffffffffffffffffffff19161480611b4e57507f5b5e139f000000000000000000000000000000000000000000000000000000007bffffffffffffffffffffffffffffffffffffffffffffffffffffffff1916827bffffffffffffffffffffffffffffffffffffffffffffffffffffffff1916145b80611b5e5750611b5d826126fa565b5b9050919050565b60008073ffffffffffffffffffffffffffffffffffffffff166002600084815260200190815260200160002060009054906101000a900473ffffffffffffffffffffffffffffffffffffffff1673ffffffffffffffffffffffffffffffffffffffff1614159050919050565b600033905090565b816004600083815260200190815260200160002060006101000a81548173ffffffffffffffffffffffffffffffffffffffff021916908373ffffffffffffffffffffffffffffffffffffffff160217905550808273ffffffffffffffffffffffffffffffffffffffff16611c4c83610c3e565b73ffffffffffffffffffffffffffffffffffffffff167f8c5be1e5ebec7d5bd14f71427d1e84f3dd0314c0f7b2291e5b200ac8c7c3b92560405160405180910390a45050565b6000611c9d82611b65565b611cdc576040517f08c379a0000000000000000000000000000000000000000000000000000000008152600401611cd390613fe1565b60405180910390fd5b6000611ce783610c3e565b90508073ffffffffffffffffffffffffffffffffffffffff168473ffffffffffffffffffffffffffffffffffffffff161480611d5657508373ffffffffffffffffffffffffffffffffffffffff16611d3e846106f1565b73ffffffffffffffffffffffffffffffffffffffff16145b80611d675750611d6681856118d9565b5b91505092915050565b8273ffffffffffffffffffffffffffffffffffffffff16611d9082610c3e565b73ffffffffffffffffffffffffffffffffffffffff1614611de6576040517f08c379a0000000000000000000000000000000000000000000000000000000008152600401611ddd90614101565b60405180910390fd5b600073ffffffffffffffffffffffffffffffffffffffff168273ffffffffffffffffffffffffffffffffffffffff161415611e56576040517f08c379a0000000000000000000000000000000000000000000000000000000008152600401611e4d90613fa1565b60405180910390fd5b611e61838383612764565b611e6c600082611bd9565b6001600360008573ffffffffffffffffffffffffffffffffffffffff1673ffffffffffffffffffffffffffffffffffffffff1681526020019081526020016000206000828254611ebc91906143da565b925050819055506001600360008473ffffffffffffffffffffffffffffffffffffffff1673ffffffffffffffffffffffffffffffffffffffff1681526020019081526020016000206000828254611f1391906142f9565b92505081905550816002600083815260200190815260200160002060006101000a81548173ffffffffffffffffffffffffffffffffffffffff021916908373ffffffffffffffffffffffffffffffffffffffff160217905550808273ffffffffffffffffffffffffffffffffffffffff168473ffffffffffffffffffffffffffffffffffffffff167fddf252ad1be2c89b69c2b068fc378daa952ba7f163c4a11628f55a4df523b3ef60405160405180910390a4505050565b611fd68282610de5565b61206557611ffb8173ffffffffffffffffffffffffffffffffffffffff166014612774565b6120098360001c6020612774565b60405160200161201a929190613dc8565b6040516020818303038152906040526040517f08c379a000000000000000000000000000000000000000000000000000000000815260040161205c9190613e9f565b60405180910390fd5b5050565b6120738282610de5565b6121465760016008600084815260200190815260200160002060000160008373ffffffffffffffffffffffffffffffffffffffff1673ffffffffffffffffffffffffffffffffffffffff16815260200190815260200160002060006101000a81548160ff0219169083151502179055506120eb611bd1565b73ffffffffffffffffffffffffffffffffffffffff168173ffffffffffffffffffffffffffffffffffffffff16837f2f8788117e7eff1d82e926ec794901d17c78024a50270940304540a733656f0d60405160405180910390a45b5050565b6121548282610de5565b156122285760006008600084815260200190815260200160002060000160008373ffffffffffffffffffffffffffffffffffffffff1673ffffffffffffffffffffffffffffffffffffffff16815260200190815260200160002060006101000a81548160ff0219169083151502179055506121cd611bd1565b73ffffffffffffffffffffffffffffffffffffffff168173ffffffffffffffffffffffffffffffffffffffff16837ff6391f5c32d9c69d2a47ea670b442974b53935d1edc7fd64eb21e047a839171b60405160405180910390a45b5050565b6001816000016000828254019250508190555050565b600081600001549050919050565b61225e826000015182612a6e565b81600a600083815260200190815260200160002060008201518160000160006101000a81548173ffffffffffffffffffffffffffffffffffffffff021916908373ffffffffffffffffffffffffffffffffffffffff16021790555060208201518160010190805190602001906122d59291906130ae565b5060408201518160020190805190602001906122f29291906130ae565b5060608201518160030160006101000a81548169ffffffffffffffffffff021916908369ffffffffffffffffffff160217905550608082015181600301600a6101000a81548169ffffffffffffffffffff021916908369ffffffffffffffffffff16021790555060a08201518160030160146101000a81548169ffffffffffffffffffff021916908369ffffffffffffffffffff1602179055509050505050565b61239c82611b65565b6123db576040517f08c379a00000000000000000000000000000000000000000000000000000000081526004016123d290614081565b60405180910390fd5b806006600084815260200190815260200160002090805190602001906124029291906130ae565b505050565b61240f610c27565b61244e576040517f08c379a000000000000000000000000000000000000000000000000000000000815260040161244590613f01565b60405180910390fd5b6000600760006101000a81548160ff0219169083151502179055507f5db9ee0a495bf2e6ff9c91a7834c1ba4fdd244a5e8aa4e537bd38aeae4b073aa612492611bd1565b60405161249f9190613e02565b60405180910390a1565b6124b1610c27565b156124f1576040517f08c379a00000000000000000000000000000000000000000000000000000000081526004016124e890614001565b60405180910390fd5b6001600760006101000a81548160ff0219169083151502179055507f62e78cea01bee320cd4e420270b5ea74000d11b0c9f74754ebdbfc544b05a258612535611bd1565b6040516125429190613e02565b60405180910390a1565b612557848484611d70565b61256384848484612c3c565b6125a2576040517f08c379a000000000000000000000000000000000000000000000000000000000815260040161259990613f41565b60405180910390fd5b50505050565b60606125b382611b65565b6125f2576040517f08c379a00000000000000000000000000000000000000000000000000000000081526004016125e9906140c1565b60405180910390fd5b60006006600084815260200190815260200160002080546126129061452a565b80601f016020809104026020016040519081016040528092919081815260200182805461263e9061452a565b801561268b5780601f106126605761010080835404028352916020019161268b565b820191906000526020600020905b81548152906001019060200180831161266e57829003601f168201915b50505050509050600061269c612dd3565b90506000815114156126b25781925050506126f5565b6000825111156126e75780826040516020016126cf929190613da4565b604051602081830303815290604052925050506126f5565b6126f084612dea565b925050505b919050565b60007f01ffc9a7000000000000000000000000000000000000000000000000000000007bffffffffffffffffffffffffffffffffffffffffffffffffffffffff1916827bffffffffffffffffffffffffffffffffffffffffffffffffffffffff1916149050919050565b61276f838383612e91565b505050565b6060600060028360026127879190614380565b61279191906142f9565b67ffffffffffffffff8111156127d0577f4e487b7100000000000000000000000000000000000000000000000000000000600052604160045260246000fd5b6040519080825280601f01601f1916602001820160405280156128025781602001600182028036833780820191505090505b5090507f300000000000000000000000000000000000000000000000000000000000000081600081518110612860577f4e487b7100000000000000000000000000000000000000000000000000000000600052603260045260246000fd5b60200101907effffffffffffffffffffffffffffffffffffffffffffffffffffffffffffff1916908160001a9053507f7800000000000000000000000000000000000000000000000000000000000000816001815181106128ea577f4e487b7100000000000000000000000000000000000000000000000000000000600052603260045260246000fd5b60200101907effffffffffffffffffffffffffffffffffffffffffffffffffffffffffffff1916908160001a9053506000600184600261292a9190614380565b61293491906142f9565b90505b6001811115612a20577f3031323334353637383961626364656600000000000000000000000000000000600f86166010811061299c577f4e487b7100000000000000000000000000000000000000000000000000000000600052603260045260246000fd5b1a60f81b8282815181106129d9577f4e487b7100000000000000000000000000000000000000000000000000000000600052603260045260246000fd5b60200101907effffffffffffffffffffffffffffffffffffffffffffffffffffffffffffff1916908160001a905350600485901c945080612a1990614500565b9050612937565b5060008414612a64576040517f08c379a0000000000000000000000000000000000000000000000000000000008152600401612a5b90613ec1565b60405180910390fd5b8091505092915050565b600073ffffffffffffffffffffffffffffffffffffffff168273ffffffffffffffffffffffffffffffffffffffff161415612ade576040517f08c379a0000000000000000000000000000000000000000000000000000000008152600401612ad5906140a1565b60405180910390fd5b612ae781611b65565b15612b27576040517f08c379a0000000000000000000000000000000000000000000000000000000008152600401612b1e90613f61565b60405180910390fd5b612b3360008383612764565b6001600360008473ffffffffffffffffffffffffffffffffffffffff1673ffffffffffffffffffffffffffffffffffffffff1681526020019081526020016000206000828254612b8391906142f9565b92505081905550816002600083815260200190815260200160002060006101000a81548173ffffffffffffffffffffffffffffffffffffffff021916908373ffffffffffffffffffffffffffffffffffffffff160217905550808273ffffffffffffffffffffffffffffffffffffffff16600073ffffffffffffffffffffffffffffffffffffffff167fddf252ad1be2c89b69c2b068fc378daa952ba7f163c4a11628f55a4df523b3ef60405160405180910390a45050565b6000612c5d8473ffffffffffffffffffffffffffffffffffffffff16612ee9565b15612dc6578373ffffffffffffffffffffffffffffffffffffffff1663150b7a02612c86611bd1565b8786866040518563ffffffff1660e01b8152600401612ca89493929190613e1d565b602060405180830381600087803b158015612cc257600080fd5b505af1925050508015612cf357506040513d601f19601f82011682018060405250810190612cf091906136f2565b60015b612d76573d8060008114612d23576040519150601f19603f3d011682016040523d82523d6000602084013e612d28565b606091505b50600081511415612d6e576040517f08c379a0000000000000000000000000000000000000000000000000000000008152600401612d6590613f41565b60405180910390fd5b805181602001fd5b63150b7a0260e01b7bffffffffffffffffffffffffffffffffffffffffffffffffffffffff1916817bffffffffffffffffffffffffffffffffffffffffffffffffffffffff191614915050612dcb565b600190505b949350505050565b606060405180602001604052806000815250905090565b6060612df582611b65565b612e34576040517f08c379a0000000000000000000000000000000000000000000000000000000008152600401612e2b90614121565b60405180910390fd5b6000612e3e612dd3565b90506000815111612e5e5760405180602001604052806000815250612e89565b80612e6884612efc565b604051602001612e79929190613da4565b6040516020818303038152906040525b915050919050565b612e9c8383836130a9565b612ea4610c27565b15612ee4576040517f08c379a0000000000000000000000000000000000000000000000000000000008152600401612edb90613ee1565b60405180910390fd5b505050565b600080823b905060008111915050919050565b60606000821415612f44576040518060400160405280600181526020017f300000000000000000000000000000000000000000000000000000000000000081525090506130a4565b600082905060005b60008214612f76578080612f5f9061458d565b915050600a82612f6f919061434f565b9150612f4c565b60008167ffffffffffffffff811115612fb8577f4e487b7100000000000000000000000000000000000000000000000000000000600052604160045260246000fd5b6040519080825280601f01601f191660200182016040528015612fea5781602001600182028036833780820191505090505b5090505b6000851461309d5760018261300391906143da565b9150600a8561301291906145d6565b603061301e91906142f9565b60f81b81838151811061305a577f4e487b7100000000000000000000000000000000000000000000000000000000600052603260045260246000fd5b60200101907effffffffffffffffffffffffffffffffffffffffffffffffffffffffffffff1916908160001a905350600a85613096919061434f565b9450612fee565b8093505050505b919050565b505050565b8280546130ba9061452a565b90600052602060002090601f0160209004810192826130dc5760008555613123565b82601f106130f557805160ff1916838001178555613123565b82800160010185558215613123579182015b82811115613122578251825591602001919060010190613107565b5b50905061313091906131a4565b5090565b6040518060c00160405280600073ffffffffffffffffffffffffffffffffffffffff1681526020016060815260200160608152602001600069ffffffffffffffffffff168152602001600069ffffffffffffffffffff168152602001600069ffffffffffffffffffff1681525090565b5b808211156131bd5760008160009055506001016131a5565b5090565b60006131d46131cf84614243565b61421e565b9050828152602081018484840111156131ec57600080fd5b6131f78482856144be565b509392505050565b600061321261320d84614274565b61421e565b90508281526020810184848401111561322a57600080fd5b6132358482856144be565b509392505050565b60008135905061324c81614d87565b92915050565b60008135905061326181614d9e565b92915050565b60008135905061327681614db5565b92915050565b60008135905061328b81614dcc565b92915050565b6000815190506132a081614dcc565b92915050565b600082601f8301126132b757600080fd5b81356132c78482602086016131c1565b91505092915050565b600082601f8301126132e157600080fd5b81356132f18482602086016131ff565b91505092915050565b600060c0828403121561330c57600080fd5b61331660c061421e565b905060006133268482850161323d565b600083015250602082013567ffffffffffffffff81111561334657600080fd5b613352848285016132d0565b602083015250604082013567ffffffffffffffff81111561337257600080fd5b61337e848285016132d0565b6040830152506060613392848285016134a8565b60608301525060806133a6848285016134a8565b60808301525060a06133ba848285016134a8565b60a08301525092915050565b600060a082840312156133d857600080fd5b6133e260a061421e565b905060006133f28482850161347e565b60008301525060206134068482850161347e565b602083015250604061341a8482850161323d565b604083015250606082013567ffffffffffffffff81111561343a57600080fd5b613446848285016132d0565b606083015250608082013567ffffffffffffffff81111561346657600080fd5b613472848285016132d0565b60808301525092915050565b60008135905061348d81614de3565b92915050565b6000813590506134a281614dfa565b92915050565b6000813590506134b781614e11565b92915050565b6000602082840312156134cf57600080fd5b60006134dd8482850161323d565b91505092915050565b600080604083850312156134f957600080fd5b60006135078582860161323d565b92505060206135188582860161323d565b9150509250929050565b60008060006060848603121561353757600080fd5b60006135458682870161323d565b93505060206135568682870161323d565b925050604061356786828701613493565b9150509250925092565b6000806000806080858703121561358757600080fd5b60006135958782880161323d565b94505060206135a68782880161323d565b93505060406135b787828801613493565b925050606085013567ffffffffffffffff8111156135d457600080fd5b6135e0878288016132a6565b91505092959194509250565b600080604083850312156135ff57600080fd5b600061360d8582860161323d565b925050602061361e85828601613252565b9150509250929050565b6000806040838503121561363b57600080fd5b60006136498582860161323d565b925050602061365a85828601613493565b9150509250929050565b60006020828403121561367657600080fd5b600061368484828501613267565b91505092915050565b600080604083850312156136a057600080fd5b60006136ae85828601613267565b92505060206136bf8582860161323d565b9150509250929050565b6000602082840312156136db57600080fd5b60006136e98482850161327c565b91505092915050565b60006020828403121561370457600080fd5b600061371284828501613291565b91505092915050565b6000806040838503121561372e57600080fd5b600083013567ffffffffffffffff81111561374857600080fd5b613754858286016132fa565b925050602083013567ffffffffffffffff81111561377157600080fd5b61377d858286016132d0565b9150509250929050565b60006020828403121561379957600080fd5b600082013567ffffffffffffffff8111156137b357600080fd5b6137bf848285016133c6565b91505092915050565b6000602082840312156137da57600080fd5b60006137e884828501613493565b91505092915050565b6000806040838503121561380457600080fd5b600061381285828601613493565b925050602061382385828601613493565b9150509250929050565b6138368161440e565b82525050565b6138458161440e565b82525050565b61385481614420565b82525050565b6138638161442c565b82525050565b6000613874826142a5565b61387e81856142bb565b935061388e8185602086016144cd565b613897816146c3565b840191505092915050565b60006138ad826142b0565b6138b781856142cc565b93506138c78185602086016144cd565b6138d0816146c3565b840191505092915050565b60006138e6826142b0565b6138f081856142dd565b93506139008185602086016144cd565b613909816146c3565b840191505092915050565b600061391f826142b0565b61392981856142ee565b93506139398185602086016144cd565b80840191505092915050565b60006139526020836142dd565b915061395d826146d4565b602082019050919050565b6000613975602b836142dd565b9150613980826146fd565b604082019050919050565b60006139986014836142dd565b91506139a38261474c565b602082019050919050565b60006139bb601b836142dd565b91506139c682614775565b602082019050919050565b60006139de6032836142dd565b91506139e98261479e565b604082019050919050565b6000613a01601c836142dd565b9150613a0c826147ed565b602082019050919050565b6000613a246023836142dd565b9150613a2f82614816565b604082019050919050565b6000613a476024836142dd565b9150613a5282614865565b604082019050919050565b6000613a6a6019836142dd565b9150613a75826148b4565b602082019050919050565b6000613a8d602c836142dd565b9150613a98826148dd565b604082019050919050565b6000613ab06010836142dd565b9150613abb8261492c565b602082019050919050565b6000613ad36038836142dd565b9150613ade82614955565b604082019050919050565b6000613af6602a836142dd565b9150613b01826149a4565b604082019050919050565b6000613b196029836142dd565b9150613b24826149f3565b604082019050919050565b6000613b3c602e836142dd565b9150613b4782614a42565b604082019050919050565b6000613b5f6020836142dd565b9150613b6a82614a91565b602082019050919050565b6000613b826031836142dd565b9150613b8d82614aba565b604082019050919050565b6000613ba5602c836142dd565b9150613bb082614b09565b604082019050919050565b6000613bc86029836142dd565b9150613bd382614b58565b604082019050919050565b6000613beb602f836142dd565b9150613bf682614ba7565b604082019050919050565b6000613c0e601c836142dd565b9150613c1982614bf6565b602082019050919050565b6000613c316021836142dd565b9150613c3c82614c1f565b604082019050919050565b6000613c546031836142dd565b9150613c5f82614c6e565b604082019050919050565b6000613c776017836142ee565b9150613c8282614cbd565b601782019050919050565b6000613c9a600f836142dd565b9150613ca582614ce6565b602082019050919050565b6000613cbd6011836142ee565b9150613cc882614d0f565b601182019050919050565b6000613ce0602f836142dd565b9150613ceb82614d38565b604082019050919050565b600060c083016000830151613d0e600086018261382d565b5060208301518482036020860152613d2682826138a2565b91505060408301518482036040860152613d4082826138a2565b9150506060830151613d556060860182613d95565b506080830151613d686080860182613d95565b5060a0830151613d7b60a0860182613d95565b508091505092915050565b613d8f8161449e565b82525050565b613d9e816144a8565b82525050565b6000613db08285613914565b9150613dbc8284613914565b91508190509392505050565b6000613dd382613c6a565b9150613ddf8285613914565b9150613dea82613cb0565b9150613df68284613914565b91508190509392505050565b6000602082019050613e17600083018461383c565b92915050565b6000608082019050613e32600083018761383c565b613e3f602083018661383c565b613e4c6040830185613d86565b8181036060830152613e5e8184613869565b905095945050505050565b6000602082019050613e7e600083018461384b565b92915050565b6000602082019050613e99600083018461385a565b92915050565b60006020820190508181036000830152613eb981846138db565b905092915050565b60006020820190508181036000830152613eda81613945565b9050919050565b60006020820190508181036000830152613efa81613968565b9050919050565b60006020820190508181036000830152613f1a8161398b565b9050919050565b60006020820190508181036000830152613f3a816139ae565b9050919050565b60006020820190508181036000830152613f5a816139d1565b9050919050565b60006020820190508181036000830152613f7a816139f4565b9050919050565b60006020820190508181036000830152613f9a81613a17565b9050919050565b60006020820190508181036000830152613fba81613a3a565b9050919050565b60006020820190508181036000830152613fda81613a5d565b9050919050565b60006020820190508181036000830152613ffa81613a80565b9050919050565b6000602082019050818103600083015261401a81613aa3565b9050919050565b6000602082019050818103600083015261403a81613ac6565b9050919050565b6000602082019050818103600083015261405a81613ae9565b9050919050565b6000602082019050818103600083015261407a81613b0c565b9050919050565b6000602082019050818103600083015261409a81613b2f565b9050919050565b600060208201905081810360008301526140ba81613b52565b9050919050565b600060208201905081810360008301526140da81613b75565b9050919050565b600060208201905081810360008301526140fa81613b98565b9050919050565b6000602082019050818103600083015261411a81613bbb565b9050919050565b6000602082019050818103600083015261413a81613bde565b9050919050565b6000602082019050818103600083015261415a81613c01565b9050919050565b6000602082019050818103600083015261417a81613c24565b9050919050565b6000602082019050818103600083015261419a81613c47565b9050919050565b600060208201905081810360008301526141ba81613c8d565b9050919050565b600060208201905081810360008301526141da81613cd3565b9050919050565b600060208201905081810360008301526141fb8184613cf6565b905092915050565b60006020820190506142186000830184613d86565b92915050565b6000614228614239565b9050614234828261455c565b919050565b6000604051905090565b600067ffffffffffffffff82111561425e5761425d614694565b5b614267826146c3565b9050602081019050919050565b600067ffffffffffffffff82111561428f5761428e614694565b5b614298826146c3565b9050602081019050919050565b600081519050919050565b600081519050919050565b600082825260208201905092915050565b600082825260208201905092915050565b600082825260208201905092915050565b600081905092915050565b60006143048261449e565b915061430f8361449e565b9250827fffffffffffffffffffffffffffffffffffffffffffffffffffffffffffffffff0382111561434457614343614607565b5b828201905092915050565b600061435a8261449e565b91506143658361449e565b92508261437557614374614636565b5b828204905092915050565b600061438b8261449e565b91506143968361449e565b9250817fffffffffffffffffffffffffffffffffffffffffffffffffffffffffffffffff04831182151516156143cf576143ce614607565b5b828202905092915050565b60006143e58261449e565b91506143f08361449e565b92508282101561440357614402614607565b5b828203905092915050565b60006144198261447e565b9050919050565b60008115159050919050565b6000819050919050565b60007fffffffff0000000000000000000000000000000000000000000000000000000082169050919050565b60006fffffffffffffffffffffffffffffffff82169050919050565b600073ffffffffffffffffffffffffffffffffffffffff82169050919050565b6000819050919050565b600069ffffffffffffffffffff82169050919050565b82818337600083830152505050565b60005b838110156144eb5780820151818401526020810190506144d0565b838111156144fa576000848401525b50505050565b600061450b8261449e565b9150600082141561451f5761451e614607565b5b600182039050919050565b6000600282049050600182168061454257607f821691505b6020821081141561455657614555614665565b5b50919050565b614565826146c3565b810181811067ffffffffffffffff8211171561458457614583614694565b5b80604052505050565b60006145988261449e565b91507fffffffffffffffffffffffffffffffffffffffffffffffffffffffffffffffff8214156145cb576145ca614607565b5b600182019050919050565b60006145e18261449e565b91506145ec8361449e565b9250826145fc576145fb614636565b5b828206905092915050565b7f4e487b7100000000000000000000000000000000000000000000000000000000600052601160045260246000fd5b7f4e487b7100000000000000000000000000000000000000000000000000000000600052601260045260246000fd5b7f4e487b7100000000000000000000000000000000000000000000000000000000600052602260045260246000fd5b7f4e487b7100000000000000000000000000000000000000000000000000000000600052604160045260246000fd5b6000601f19601f8301169050919050565b7f537472696e67733a20686578206c656e67746820696e73756666696369656e74600082015250565b7f4552433732315061757361626c653a20746f6b656e207472616e73666572207760008201527f68696c6520706175736564000000000000000000000000000000000000000000602082015250565b7f5061757361626c653a206e6f7420706175736564000000000000000000000000600082015250565b7f517565727920666f72206e6f6e6578697374656e7420746f6b656e0000000000600082015250565b7f4552433732313a207472616e7366657220746f206e6f6e20455243373231526560008201527f63656976657220696d706c656d656e7465720000000000000000000000000000602082015250565b7f4552433732313a20746f6b656e20616c7265616479206d696e74656400000000600082015250565b7f43726561746f7220717565727920666f72206e6f6e6578697374656e7420746f60008201527f6b656e0000000000000000000000000000000000000000000000000000000000602082015250565b7f4552433732313a207472616e7366657220746f20746865207a65726f2061646460008201527f7265737300000000000000000000000000000000000000000000000000000000602082015250565b7f4552433732313a20617070726f766520746f2063616c6c657200000000000000600082015250565b7f4552433732313a206f70657261746f7220717565727920666f72206e6f6e657860008201527f697374656e7420746f6b656e0000000000000000000000000000000000000000602082015250565b7f5061757361626c653a2070617573656400000000000000000000000000000000600082015250565b7f4552433732313a20617070726f76652063616c6c6572206973206e6f74206f7760008201527f6e6572206e6f7220617070726f76656420666f7220616c6c0000000000000000602082015250565b7f4552433732313a2062616c616e636520717565727920666f7220746865207a6560008201527f726f206164647265737300000000000000000000000000000000000000000000602082015250565b7f4552433732313a206f776e657220717565727920666f72206e6f6e657869737460008201527f656e7420746f6b656e0000000000000000000000000000000000000000000000602082015250565b7f45524337323155524953746f726167653a2055524920736574206f66206e6f6e60008201527f6578697374656e7420746f6b656e000000000000000000000000000000000000602082015250565b7f4552433732313a206d696e7420746f20746865207a65726f2061646472657373600082015250565b7f45524337323155524953746f726167653a2055524920717565727920666f722060008201527f6e6f6e6578697374656e7420746f6b656e000000000000000000000000000000602082015250565b7f4552433732313a20617070726f76656420717565727920666f72206e6f6e657860008201527f697374656e7420746f6b656e0000000000000000000000000000000000000000602082015250565b7f4552433732313a207472616e73666572206f6620746f6b656e2074686174206960008201527f73206e6f74206f776e0000000000000000000000000000000000000000000000602082015250565b7f4552433732314d657461646174613a2055524920717565727920666f72206e6f60008201527f6e6578697374656e7420746f6b656e0000000000000000000000000000000000602082015250565b7f55706461746520666f72206e6f6e6578697374656e7420746f6b656e00000000600082015250565b7f4552433732313a20617070726f76616c20746f2063757272656e74206f776e6560008201527f7200000000000000000000000000000000000000000000000000000000000000602082015250565b7f4552433732313a207472616e736665722063616c6c6572206973206e6f74206f60008201527f776e6572206e6f7220617070726f766564000000000000000000000000000000602082015250565b7f416363657373436f6e74726f6c3a206163636f756e7420000000000000000000600082015250565b7f496e76616c696420726f79616c74790000000000000000000000000000000000600082015250565b7f206973206d697373696e6720726f6c6520000000000000000000000000000000600082015250565b7f416363657373436f6e74726f6c3a2063616e206f6e6c792072656e6f756e636560008201527f20726f6c657320666f722073656c660000000000000000000000000000000000602082015250565b614d908161440e565b8114614d9b57600080fd5b50565b614da781614420565b8114614db257600080fd5b50565b614dbe8161442c565b8114614dc957600080fd5b50565b614dd581614436565b8114614de057600080fd5b50565b614dec81614462565b8114614df757600080fd5b50565b614e038161449e565b8114614e0e57600080fd5b50565b614e1a816144a8565b8114614e2557600080fd5b5056fea2646970667358221220bbc120c0df01e4204853b5b3132a9ea71f221df25b8bdc555edbf1be0487058b64736f6c63430008010033",
  "immutableReferences": {},
  "source": "// SPDX-License-Identifier: MIT\npragma solidity ^0.8.0;\n\nimport \"@openzeppelin/contracts/token/ERC721/ERC721.sol\";\nimport \"@openzeppelin/contracts/token/ERC721/extensions/ERC721URIStorage.sol\";\nimport \"@openzeppelin/contracts/token/ERC721/extensions/ERC721Pausable.sol\";\nimport \"@openzeppelin/contracts/access/AccessControl.sol\";\nimport \"@openzeppelin/contracts/utils/Counters.sol\";\nimport \"./MediaLibrary.sol\";\n\ncontract PriviNFT is ERC721, ERC721URIStorage, ERC721Pausable, AccessControl {\n    using Counters for Counters.Counter;\n    using MediaLibrary for Media;\n\n    Counters.Counter private _tokenIds;\n\n    mapping(uint256 => Media) private _medias;\n\n    // admins can pause the contract and mint tokens\n    bytes32 public constant ADMIN = keccak256(\"admin\");\n    // media admin can create media\n    // (this is to ensure only media manager can create to set correct collabs)\n    bytes32 public constant MEDIA_ADMIN = keccak256(\"media_admin\");\n    bytes32 public constant MEDIA_FRACTIONALIZE_ADMIN = keccak256(\"media_fractionalize_admin\");\n    bytes32 public constant MEDIA_UPDATE_ADMIN = keccak256(\"media_update_admin\");\n\n    constructor(string memory name_, string memory symbol_) ERC721(name_, symbol_) {\n        // The super admin is the deployer\n        _setupRole(DEFAULT_ADMIN_ROLE, msg.sender);\n        _setupRole(ADMIN, msg.sender);\n    }\n\n    // this function emits a transfer event\n    function createMedia(Media memory _media, string memory _tokenURI)\n        public\n        onlyRole(MEDIA_ADMIN)\n        returns (uint256)\n    {\n        require(_media.royalty < MediaLibrary.SHARES_DENOMINATOR, \"Invalid royalty\");\n        _tokenIds.increment();\n\n        uint256 newItemId = _tokenIds.current();\n        _mint(_media, newItemId);\n        _setTokenURI(newItemId, _tokenURI);\n\n        // only for contract calls\n        return newItemId;\n    }\n\n    // media struct getter by id\n    function getMedia(uint256 _tokenId) external view onlyRole(ADMIN) returns (Media memory) {\n        Media memory media = _medias[_tokenId];\n        require(media.creatorAddress != address(0), \"Query for nonexistent token\");\n        return media;\n    }\n\n    // only the media manager can update the media\n    function updateMediaCollabsSize(uint256 _tokenId, uint256 _collabsSize) external onlyRole(MEDIA_ADMIN) {\n        _medias[_tokenId].collabsSize = uint80(_collabsSize);\n    }\n\n    // only the media manager can update the media\n    function updateMediaOwnersSize(uint256 _tokenId, uint256 _ownersSize)\n        external\n        onlyRole(MEDIA_FRACTIONALIZE_ADMIN)\n    {\n        _medias[_tokenId].ownersSize = uint80(_ownersSize);\n    }\n\n    // only the manager can update the media\n    function updateMedia(UpdateMediaRequest memory _updateMediaRequest)\n        external\n        onlyRole(MEDIA_UPDATE_ADMIN)\n    {\n        Media memory media = _medias[_updateMediaRequest.mediaId];\n        require(media.creatorAddress != address(0), \"Update for nonexistent token\");\n\n        media.royalty = uint80(_updateMediaRequest.royalty);\n        media.mediaName = _updateMediaRequest.mediaName;\n        media.mediaType = _updateMediaRequest.mediaType;\n\n        _medias[_updateMediaRequest.mediaId] = media;\n    }\n\n    function creatorOf(uint256 _tokenId) public view virtual returns (address) {\n        address creator = _medias[_tokenId].creatorAddress;\n        require(creator != address(0), \"Creator query for nonexistent token\");\n        return creator;\n    }\n\n    function tokenURI(uint256 _tokenId)\n        public\n        view\n        virtual\n        override(ERC721, ERC721URIStorage)\n        returns (string memory)\n    {\n        return ERC721URIStorage.tokenURI(_tokenId);\n    }\n\n    function pause() external onlyRole(ADMIN) {\n        _pause();\n    }\n\n    function unpause() external onlyRole(ADMIN) {\n        _unpause();\n    }\n\n    function supportsInterface(bytes4 interfaceId)\n        public\n        view\n        virtual\n        override(AccessControl, ERC721)\n        returns (bool)\n    {\n        return AccessControl.supportsInterface(interfaceId) || ERC721.supportsInterface(interfaceId);\n    }\n\n    function _mint(Media memory _media, uint256 _tokenId) internal virtual {\n        _mint(_media.creatorAddress, _tokenId);\n        _medias[_tokenId] = _media;\n    }\n\n    function _burn(uint256) internal virtual override(ERC721, ERC721URIStorage) {\n        revert(\"Can't burn tokens\");\n    }\n\n    function _beforeTokenTransfer(\n        address _from,\n        address _to,\n        uint256 _tokenId\n    ) internal virtual override(ERC721, ERC721Pausable) {\n        ERC721Pausable._beforeTokenTransfer(_from, _to, _tokenId);\n    }\n}\n",
  "sourcePath": "/home/ericng/Documents/PRIVI/Privi-Polygon/privi-media-nft/contracts/PriviNFT.sol",
  "compiler": {
    "name": "solc",
    "version": "0.8.1+commit.df193b15.Emscripten.clang"
  },
  "schemaVersion": "3.4.1",
  "updatedAt": "2021-06-24T19:39:06.912Z",
  "networkType": "ethereum",
  "devdoc": {
    "kind": "dev",
    "methods": {
      "approve(address,uint256)": {
        "details": "See {IERC721-approve}."
      },
      "balanceOf(address)": {
        "details": "See {IERC721-balanceOf}."
      },
      "getApproved(uint256)": {
        "details": "See {IERC721-getApproved}."
      },
      "getRoleAdmin(bytes32)": {
        "details": "Returns the admin role that controls `role`. See {grantRole} and {revokeRole}. To change a role's admin, use {_setRoleAdmin}."
      },
      "grantRole(bytes32,address)": {
        "details": "Grants `role` to `account`. If `account` had not been already granted `role`, emits a {RoleGranted} event. Requirements: - the caller must have ``role``'s admin role."
      },
      "hasRole(bytes32,address)": {
        "details": "Returns `true` if `account` has been granted `role`."
      },
      "isApprovedForAll(address,address)": {
        "details": "See {IERC721-isApprovedForAll}."
      },
      "name()": {
        "details": "See {IERC721Metadata-name}."
      },
      "ownerOf(uint256)": {
        "details": "See {IERC721-ownerOf}."
      },
      "paused()": {
        "details": "Returns true if the contract is paused, and false otherwise."
      },
      "renounceRole(bytes32,address)": {
        "details": "Revokes `role` from the calling account. Roles are often managed via {grantRole} and {revokeRole}: this function's purpose is to provide a mechanism for accounts to lose their privileges if they are compromised (such as when a trusted device is misplaced). If the calling account had been granted `role`, emits a {RoleRevoked} event. Requirements: - the caller must be `account`."
      },
      "revokeRole(bytes32,address)": {
        "details": "Revokes `role` from `account`. If `account` had been granted `role`, emits a {RoleRevoked} event. Requirements: - the caller must have ``role``'s admin role."
      },
      "safeTransferFrom(address,address,uint256)": {
        "details": "See {IERC721-safeTransferFrom}."
      },
      "safeTransferFrom(address,address,uint256,bytes)": {
        "details": "See {IERC721-safeTransferFrom}."
      },
      "setApprovalForAll(address,bool)": {
        "details": "See {IERC721-setApprovalForAll}."
      },
      "symbol()": {
        "details": "See {IERC721Metadata-symbol}."
      },
      "transferFrom(address,address,uint256)": {
        "details": "See {IERC721-transferFrom}."
      }
    },
    "version": 1
  },
  "userdoc": {
    "kind": "user",
    "methods": {},
    "version": 1
  }
}