{
  "contractName": "PriviAMM",
  "abi": [
    {
      "inputs": [],
      "stateMutability": "nonpayable",
      "type": "constructor"
    },
    {
      "anonymous": false,
      "inputs": [
        {
          "indexed": true,
          "internalType": "address",
          "name": "owner",
          "type": "address"
        },
        {
          "indexed": true,
          "internalType": "address",
          "name": "spender",
          "type": "address"
        },
        {
          "indexed": false,
          "internalType": "uint256",
          "name": "value",
          "type": "uint256"
        }
      ],
      "name": "Approval",
      "type": "event"
    },
    {
      "anonymous": false,
      "inputs": [
        {
          "indexed": false,
          "internalType": "address",
          "name": "account",
          "type": "address"
        }
      ],
      "name": "Paused",
      "type": "event"
    },
    {
      "anonymous": false,
      "inputs": [
        {
          "indexed": true,
          "internalType": "bytes32",
          "name": "role",
          "type": "bytes32"
        },
        {
          "indexed": true,
          "internalType": "bytes32",
          "name": "previousAdminRole",
          "type": "bytes32"
        },
        {
          "indexed": true,
          "internalType": "bytes32",
          "name": "newAdminRole",
          "type": "bytes32"
        }
      ],
      "name": "RoleAdminChanged",
      "type": "event"
    },
    {
      "anonymous": false,
      "inputs": [
        {
          "indexed": true,
          "internalType": "bytes32",
          "name": "role",
          "type": "bytes32"
        },
        {
          "indexed": true,
          "internalType": "address",
          "name": "account",
          "type": "address"
        },
        {
          "indexed": true,
          "internalType": "address",
          "name": "sender",
          "type": "address"
        }
      ],
      "name": "RoleGranted",
      "type": "event"
    },
    {
      "anonymous": false,
      "inputs": [
        {
          "indexed": true,
          "internalType": "bytes32",
          "name": "role",
          "type": "bytes32"
        },
        {
          "indexed": true,
          "internalType": "address",
          "name": "account",
          "type": "address"
        },
        {
          "indexed": true,
          "internalType": "address",
          "name": "sender",
          "type": "address"
        }
      ],
      "name": "RoleRevoked",
      "type": "event"
    },
    {
      "anonymous": false,
      "inputs": [
        {
          "indexed": true,
          "internalType": "address",
          "name": "from",
          "type": "address"
        },
        {
          "indexed": true,
          "internalType": "address",
          "name": "to",
          "type": "address"
        },
        {
          "indexed": false,
          "internalType": "uint256",
          "name": "value",
          "type": "uint256"
        }
      ],
      "name": "Transfer",
      "type": "event"
    },
    {
      "anonymous": false,
      "inputs": [
        {
          "indexed": false,
          "internalType": "address",
          "name": "account",
          "type": "address"
        }
      ],
      "name": "Unpaused",
      "type": "event"
    },
    {
      "inputs": [],
      "name": "DEFAULT_ADMIN_ROLE",
      "outputs": [
        {
          "internalType": "bytes32",
          "name": "",
          "type": "bytes32"
        }
      ],
      "stateMutability": "view",
      "type": "function"
    },
    {
      "inputs": [],
      "name": "LINEAR_AMM",
      "outputs": [
        {
          "internalType": "bytes32",
          "name": "",
          "type": "bytes32"
        }
      ],
      "stateMutability": "view",
      "type": "function"
    },
    {
      "inputs": [],
      "name": "QUADRATIC_AMM",
      "outputs": [
        {
          "internalType": "bytes32",
          "name": "",
          "type": "bytes32"
        }
      ],
      "stateMutability": "view",
      "type": "function"
    },
    {
      "inputs": [
        {
          "internalType": "address",
          "name": "owner",
          "type": "address"
        },
        {
          "internalType": "address",
          "name": "spender",
          "type": "address"
        }
      ],
      "name": "allowance",
      "outputs": [
        {
          "internalType": "uint256",
          "name": "",
          "type": "uint256"
        }
      ],
      "stateMutability": "view",
      "type": "function"
    },
    {
      "inputs": [],
      "name": "ammType",
      "outputs": [
        {
          "internalType": "bytes32",
          "name": "",
          "type": "bytes32"
        }
      ],
      "stateMutability": "view",
      "type": "function"
    },
    {
      "inputs": [
        {
          "internalType": "address",
          "name": "spender",
          "type": "address"
        },
        {
          "internalType": "uint256",
          "name": "amount",
          "type": "uint256"
        }
      ],
      "name": "approve",
      "outputs": [
        {
          "internalType": "bool",
          "name": "",
          "type": "bool"
        }
      ],
      "stateMutability": "nonpayable",
      "type": "function"
    },
    {
      "inputs": [
        {
          "internalType": "address",
          "name": "account",
          "type": "address"
        }
      ],
      "name": "balanceOf",
      "outputs": [
        {
          "internalType": "uint256",
          "name": "",
          "type": "uint256"
        }
      ],
      "stateMutability": "view",
      "type": "function"
    },
    {
      "inputs": [],
      "name": "decimals",
      "outputs": [
        {
          "internalType": "uint8",
          "name": "",
          "type": "uint8"
        }
      ],
      "stateMutability": "view",
      "type": "function"
    },
    {
      "inputs": [
        {
          "internalType": "address",
          "name": "spender",
          "type": "address"
        },
        {
          "internalType": "uint256",
          "name": "subtractedValue",
          "type": "uint256"
        }
      ],
      "name": "decreaseAllowance",
      "outputs": [
        {
          "internalType": "bool",
          "name": "",
          "type": "bool"
        }
      ],
      "stateMutability": "nonpayable",
      "type": "function"
    },
    {
      "inputs": [],
      "name": "fundingTokenPrice",
      "outputs": [
        {
          "internalType": "uint256",
          "name": "",
          "type": "uint256"
        }
      ],
      "stateMutability": "view",
      "type": "function"
    },
    {
      "inputs": [
        {
          "internalType": "bytes32",
          "name": "role",
          "type": "bytes32"
        }
      ],
      "name": "getRoleAdmin",
      "outputs": [
        {
          "internalType": "bytes32",
          "name": "",
          "type": "bytes32"
        }
      ],
      "stateMutability": "view",
      "type": "function"
    },
    {
      "inputs": [
        {
          "internalType": "bytes32",
          "name": "role",
          "type": "bytes32"
        },
        {
          "internalType": "address",
          "name": "account",
          "type": "address"
        }
      ],
      "name": "grantRole",
      "outputs": [],
      "stateMutability": "nonpayable",
      "type": "function"
    },
    {
      "inputs": [
        {
          "internalType": "bytes32",
          "name": "role",
          "type": "bytes32"
        },
        {
          "internalType": "address",
          "name": "account",
          "type": "address"
        }
      ],
      "name": "hasRole",
      "outputs": [
        {
          "internalType": "bool",
          "name": "",
          "type": "bool"
        }
      ],
      "stateMutability": "view",
      "type": "function"
    },
    {
      "inputs": [
        {
          "internalType": "address",
          "name": "spender",
          "type": "address"
        },
        {
          "internalType": "uint256",
          "name": "addedValue",
          "type": "uint256"
        }
      ],
      "name": "increaseAllowance",
      "outputs": [
        {
          "internalType": "bool",
          "name": "",
          "type": "bool"
        }
      ],
      "stateMutability": "nonpayable",
      "type": "function"
    },
    {
      "inputs": [],
      "name": "maxPrice",
      "outputs": [
        {
          "internalType": "uint256",
          "name": "",
          "type": "uint256"
        }
      ],
      "stateMutability": "view",
      "type": "function"
    },
    {
      "inputs": [],
      "name": "maxSupply",
      "outputs": [
        {
          "internalType": "uint256",
          "name": "",
          "type": "uint256"
        }
      ],
      "stateMutability": "view",
      "type": "function"
    },
    {
      "inputs": [],
      "name": "name",
      "outputs": [
        {
          "internalType": "string",
          "name": "",
          "type": "string"
        }
      ],
      "stateMutability": "view",
      "type": "function"
    },
    {
      "inputs": [],
      "name": "paused",
      "outputs": [
        {
          "internalType": "bool",
          "name": "",
          "type": "bool"
        }
      ],
      "stateMutability": "view",
      "type": "function"
    },
    {
      "inputs": [],
      "name": "precision",
      "outputs": [
        {
          "internalType": "uint256",
          "name": "",
          "type": "uint256"
        }
      ],
      "stateMutability": "view",
      "type": "function"
    },
    {
      "inputs": [
        {
          "internalType": "bytes32",
          "name": "role",
          "type": "bytes32"
        },
        {
          "internalType": "address",
          "name": "account",
          "type": "address"
        }
      ],
      "name": "renounceRole",
      "outputs": [],
      "stateMutability": "nonpayable",
      "type": "function"
    },
    {
      "inputs": [
        {
          "internalType": "bytes32",
          "name": "role",
          "type": "bytes32"
        },
        {
          "internalType": "address",
          "name": "account",
          "type": "address"
        }
      ],
      "name": "revokeRole",
      "outputs": [],
      "stateMutability": "nonpayable",
      "type": "function"
    },
    {
      "inputs": [],
      "name": "scale",
      "outputs": [
        {
          "internalType": "uint256",
          "name": "",
          "type": "uint256"
        }
      ],
      "stateMutability": "view",
      "type": "function"
    },
    {
      "inputs": [],
      "name": "supplyReleased",
      "outputs": [
        {
          "internalType": "uint256",
          "name": "",
          "type": "uint256"
        }
      ],
      "stateMutability": "view",
      "type": "function"
    },
    {
      "inputs": [
        {
          "internalType": "bytes4",
          "name": "interfaceId",
          "type": "bytes4"
        }
      ],
      "name": "supportsInterface",
      "outputs": [
        {
          "internalType": "bool",
          "name": "",
          "type": "bool"
        }
      ],
      "stateMutability": "view",
      "type": "function"
    },
    {
      "inputs": [],
      "name": "symbol",
      "outputs": [
        {
          "internalType": "string",
          "name": "",
          "type": "string"
        }
      ],
      "stateMutability": "view",
      "type": "function"
    },
    {
      "inputs": [],
      "name": "totalSupply",
      "outputs": [
        {
          "internalType": "uint256",
          "name": "",
          "type": "uint256"
        }
      ],
      "stateMutability": "view",
      "type": "function"
    },
    {
      "inputs": [
        {
          "internalType": "address",
          "name": "recipient",
          "type": "address"
        },
        {
          "internalType": "uint256",
          "name": "amount",
          "type": "uint256"
        }
      ],
      "name": "transfer",
      "outputs": [
        {
          "internalType": "bool",
          "name": "",
          "type": "bool"
        }
      ],
      "stateMutability": "nonpayable",
      "type": "function"
    },
    {
      "inputs": [
        {
          "internalType": "address",
          "name": "sender",
          "type": "address"
        },
        {
          "internalType": "address",
          "name": "recipient",
          "type": "address"
        },
        {
          "internalType": "uint256",
          "name": "amount",
          "type": "uint256"
        }
      ],
      "name": "transferFrom",
      "outputs": [
        {
          "internalType": "bool",
          "name": "",
          "type": "bool"
        }
      ],
      "stateMutability": "nonpayable",
      "type": "function"
    },
    {
      "inputs": [
        {
          "internalType": "address",
          "name": "_fundingToken",
          "type": "address"
        },
        {
          "internalType": "uint256",
          "name": "_fundingTokenPrice",
          "type": "uint256"
        },
        {
          "internalType": "uint256",
          "name": "_maxPrice",
          "type": "uint256"
        },
        {
          "internalType": "uint256",
          "name": "_maxSupply",
          "type": "uint256"
        },
        {
          "internalType": "bytes32",
          "name": "_ammType",
          "type": "bytes32"
        },
        {
          "internalType": "uint256",
          "name": "_precision",
          "type": "uint256"
        }
      ],
      "name": "initialize",
      "outputs": [],
      "stateMutability": "nonpayable",
      "type": "function"
    },
    {
      "inputs": [],
      "name": "pause",
      "outputs": [],
      "stateMutability": "nonpayable",
      "type": "function"
    },
    {
      "inputs": [],
      "name": "unpause",
      "outputs": [],
      "stateMutability": "nonpayable",
      "type": "function"
    },
    {
      "inputs": [
        {
          "internalType": "address",
          "name": "_buyer",
          "type": "address"
        },
        {
          "internalType": "uint256",
          "name": "_ammTokenAmount",
          "type": "uint256"
        }
      ],
      "name": "buyTokens",
      "outputs": [],
      "stateMutability": "nonpayable",
      "type": "function"
    },
    {
      "inputs": [
        {
          "internalType": "address",
          "name": "_seller",
          "type": "address"
        },
        {
          "internalType": "uint256",
          "name": "_ammTokenAmount",
          "type": "uint256"
        }
      ],
      "name": "sellTokens",
      "outputs": [],
      "stateMutability": "nonpayable",
      "type": "function"
    },
    {
      "inputs": [
        {
          "internalType": "uint256",
          "name": "_ammTokenAmount",
          "type": "uint256"
        },
        {
          "internalType": "bool",
          "name": "_buying",
          "type": "bool"
        }
      ],
      "name": "getPriceForAmountOfTokens",
      "outputs": [
        {
          "internalType": "uint256",
          "name": "amountToPay",
          "type": "uint256"
        }
      ],
      "stateMutability": "view",
      "type": "function"
    }
  ],
  "bytecode": "0x60806040523480156200001157600080fd5b506040518060400160405280600f81526020017f507269766920414d4d20546f6b656e00000000000000000000000000000000008152506040518060400160405280600581526020017f70414d4d54000000000000000000000000000000000000000000000000000000815250816003908051906020019062000096929190620000d3565b508060049080519060200190620000af929190620000d3565b5050506000600560006101000a81548160ff021916908315150217905550620001e8565b828054620000e19062000183565b90600052602060002090601f01602090048101928262000105576000855562000151565b82601f106200012057805160ff191683800117855562000151565b8280016001018555821562000151579182015b828111156200015057825182559160200191906001019062000133565b5b50905062000160919062000164565b5090565b5b808211156200017f57600081600090555060010162000165565b5090565b600060028204905060018216806200019c57607f821691505b60208210811415620001b357620001b2620001b9565b5b50919050565b7f4e487b7100000000000000000000000000000000000000000000000000000000600052602260045260246000fd5b613c7080620001f86000396000f3fe608060405234801561001057600080fd5b50600436106102065760003560e01c80638456cb591161011a578063ce8453bf116100ad578063d89031d01161007c578063d89031d0146105f3578063dafd56d514610611578063dd62ed3e1461062d578063e38d6b5c1461065d578063f51e181a1461067b57610206565b8063ce8453bf1461056b578063d3b5dc3b1461059b578063d547741f146105b9578063d5abeb01146105d557610206565b8063a457c2d7116100e9578063a457c2d7146104d1578063a7356a0114610501578063a9059cbb1461051f578063c464fe651461054f57610206565b80638456cb591461045b57806391d148541461046557806395d89b4114610495578063a217fddf146104b357610206565b806323b872dd1161019d57806336568abe1161016c57806336568abe146103b757806339509351146103d35780633f4ba83a146104035780635c975abb1461040d57806370a082311461042b57610206565b806323b872dd1461031d578063248a9ca31461034d5780632f2ff15d1461037d578063313ce5671461039957610206565b80630752881a116101d95780630752881a14610295578063095ea7b3146102b157806317af5642146102e157806318160ddd146102ff57610206565b806301ffc9a71461020b578063032c6c291461023b5780630472b1851461025957806306fdde0314610277575b600080fd5b6102256004803603810190610220919061289e565b610699565b6040516102329190612dfb565b60405180910390f35b610243610713565b6040516102509190612e16565b60405180910390f35b610261610737565b60405161026e9190612e16565b60405180910390f35b61027f61075b565b60405161028c9190612e31565b60405180910390f35b6102af60048036038101906102aa919061274b565b6107ed565b005b6102cb60048036038101906102c6919061274b565b61096b565b6040516102d89190612dfb565b60405180910390f35b6102e9610989565b6040516102f69190612e16565b60405180910390f35b61030761098f565b6040516103149190613153565b60405180910390f35b610337600480360381019061033291906126fc565b610999565b6040516103449190612dfb565b60405180910390f35b61036760048036038101906103629190612839565b610a91565b6040516103749190612e16565b60405180910390f35b61039760048036038101906103929190612862565b610ab1565b005b6103a1610ada565b6040516103ae919061316e565b60405180910390f35b6103d160048036038101906103cc9190612862565b610ae3565b005b6103ed60048036038101906103e8919061274b565b610b66565b6040516103fa9190612dfb565b60405180910390f35b61040b610c12565b005b610415610c32565b6040516104229190612dfb565b60405180910390f35b61044560048036038101906104409190612697565b610c49565b6040516104529190613153565b60405180910390f35b610463610c91565b005b61047f600480360381019061047a9190612862565b610cb1565b60405161048c9190612dfb565b60405180910390f35b61049d610d1c565b6040516104aa9190612e31565b60405180910390f35b6104bb610dae565b6040516104c89190612e16565b60405180910390f35b6104eb60048036038101906104e6919061274b565b610db5565b6040516104f89190612dfb565b60405180910390f35b610509610ea0565b6040516105169190613153565b60405180910390f35b6105396004803603810190610534919061274b565b610ea6565b6040516105469190612dfb565b60405180910390f35b6105696004803603810190610564919061274b565b610ec4565b005b610585600480360381019061058091906128c7565b611033565b6040516105929190613153565b60405180910390f35b6105a36110db565b6040516105b09190613153565b60405180910390f35b6105d360048036038101906105ce9190612862565b6110e1565b005b6105dd61110a565b6040516105ea9190613153565b60405180910390f35b6105fb611110565b6040516106089190613153565b60405180910390f35b61062b60048036038101906106269190612787565b611116565b005b610647600480360381019061064291906126c0565b611437565b6040516106549190613153565b60405180910390f35b6106656114be565b6040516106729190613153565b60405180910390f35b6106836114c4565b6040516106909190613153565b60405180910390f35b60007f7965db0b000000000000000000000000000000000000000000000000000000007bffffffffffffffffffffffffffffffffffffffffffffffffffffffff1916827bffffffffffffffffffffffffffffffffffffffffffffffffffffffff1916148061070c575061070b826114ca565b5b9050919050565b7fe54b9c725c6e3bf9124f023bf012ef4ffd5d4fff38993612d5e648f1434849be81565b7f1a21fb8b1d022d4555cd5839054fb47a704dd314d512cd9ebff65e297de3ade981565b60606003805461076a9061351e565b80601f01602080910402602001604051908101604052809291908181526020018280546107969061351e565b80156107e35780601f106107b8576101008083540402835291602001916107e3565b820191906000526020600020905b8154815290600101906020018083116107c657829003601f168201915b5050505050905090565b60008111610830576040517f08c379a000000000000000000000000000000000000000000000000000000000815260040161082790612ef3565b60405180910390fd5b600a5481600c5461084191906131b0565b1115610882576040517f08c379a000000000000000000000000000000000000000000000000000000000815260040161087990612fb3565b60405180910390fd5b600061088f826001611534565b905081600c60008282546108a391906131b0565b92505081905550600760029054906101000a900473ffffffffffffffffffffffffffffffffffffffff1673ffffffffffffffffffffffffffffffffffffffff166323b872dd8430846040518463ffffffff1660e01b815260040161090993929190612d9b565b602060405180830381600087803b15801561092357600080fd5b505af1158015610937573d6000803e3d6000fd5b505050506040513d601f19601f8201168201806040525081019061095b9190612810565b506109668383611726565b505050565b600061097f610978611886565b848461188e565b6001905092915050565b600b5481565b6000600254905090565b60006109a6848484611a59565b6000600160008673ffffffffffffffffffffffffffffffffffffffff1673ffffffffffffffffffffffffffffffffffffffff16815260200190815260200160002060006109f1611886565b73ffffffffffffffffffffffffffffffffffffffff1673ffffffffffffffffffffffffffffffffffffffff16815260200190815260200160002054905082811015610a71576040517f08c379a0000000000000000000000000000000000000000000000000000000008152600401610a6890612ff3565b60405180910390fd5b610a8585610a7d611886565b85840361188e565b60019150509392505050565b600060066000838152602001908152602001600020600101549050919050565b610aba82610a91565b610acb81610ac6611886565b611cda565b610ad58383611d77565b505050565b60006012905090565b610aeb611886565b73ffffffffffffffffffffffffffffffffffffffff168173ffffffffffffffffffffffffffffffffffffffff1614610b58576040517f08c379a0000000000000000000000000000000000000000000000000000000008152600401610b4f90613113565b60405180910390fd5b610b628282611e58565b5050565b6000610c08610b73611886565b848460016000610b81611886565b73ffffffffffffffffffffffffffffffffffffffff1673ffffffffffffffffffffffffffffffffffffffff16815260200190815260200160002060008873ffffffffffffffffffffffffffffffffffffffff1673ffffffffffffffffffffffffffffffffffffffff16815260200190815260200160002054610c0391906131b0565b61188e565b6001905092915050565b6000801b610c2781610c22611886565b611cda565b610c2f611f3a565b50565b6000600560009054906101000a900460ff16905090565b60008060008373ffffffffffffffffffffffffffffffffffffffff1673ffffffffffffffffffffffffffffffffffffffff168152602001908152602001600020549050919050565b6000801b610ca681610ca1611886565b611cda565b610cae611fdc565b50565b60006006600084815260200190815260200160002060000160008373ffffffffffffffffffffffffffffffffffffffff1673ffffffffffffffffffffffffffffffffffffffff16815260200190815260200160002060009054906101000a900460ff16905092915050565b606060048054610d2b9061351e565b80601f0160208091040260200160405190810160405280929190818152602001828054610d579061351e565b8015610da45780601f10610d7957610100808354040283529160200191610da4565b820191906000526020600020905b815481529060010190602001808311610d8757829003601f168201915b5050505050905090565b6000801b81565b60008060016000610dc4611886565b73ffffffffffffffffffffffffffffffffffffffff1673ffffffffffffffffffffffffffffffffffffffff16815260200190815260200160002060008573ffffffffffffffffffffffffffffffffffffffff1673ffffffffffffffffffffffffffffffffffffffff16815260200190815260200160002054905082811015610e81576040517f08c379a0000000000000000000000000000000000000000000000000000000008152600401610e78906130f3565b60405180910390fd5b610e95610e8c611886565b8585840361188e565b600191505092915050565b600c5481565b6000610eba610eb3611886565b8484611a59565b6001905092915050565b60008111610f07576040517f08c379a0000000000000000000000000000000000000000000000000000000008152600401610efe90612ef3565b60405180910390fd5b80600c541015610f4c576040517f08c379a0000000000000000000000000000000000000000000000000000000008152600401610f43906130b3565b60405180910390fd5b6000610f59826000611534565b905081600c6000828254610f6d9190613402565b92505081905550610f7e838361207f565b600760029054906101000a900473ffffffffffffffffffffffffffffffffffffffff1673ffffffffffffffffffffffffffffffffffffffff1663a9059cbb84836040518363ffffffff1660e01b8152600401610fdb929190612dd2565b602060405180830381600087803b158015610ff557600080fd5b505af1158015611009573d6000803e3d6000fd5b505050506040513d601f19601f8201168201806040525081019061102d9190612810565b50505050565b6000808311611077576040517f08c379a000000000000000000000000000000000000000000000000000000000815260040161106e90612ef3565b60405180910390fd5b600a5483600c5461108891906131b0565b11156110c9576040517f08c379a00000000000000000000000000000000000000000000000000000000081526004016110c090612fb3565b60405180910390fd5b6110d38383611534565b905092915050565b600d5481565b6110ea82610a91565b6110fb816110f6611886565b611cda565b6111058383611e58565b505050565b600a5481565b60085481565b600760019054906101000a900460ff168061113e5750600760009054906101000a900460ff16155b61117d576040517f08c379a000000000000000000000000000000000000000000000000000000000815260040161117490612f93565b60405180910390fd5b6000600760019054906101000a900460ff1615905080156111cf576001600760016101000a81548160ff0219169083151502179055506001600760006101000a81548160ff0219169083151502179055505b85851015611212576040517f08c379a0000000000000000000000000000000000000000000000000000000008152600401611209906130d3565b60405180910390fd5b6127108211611256576040517f08c379a000000000000000000000000000000000000000000000000000000000815260040161124d90613093565b60405180910390fd5b60008411611299576040517f08c379a000000000000000000000000000000000000000000000000000000000815260040161129090612fd3565b60405180910390fd5b6112a66000801b33612256565b86600760026101000a81548173ffffffffffffffffffffffffffffffffffffffff021916908373ffffffffffffffffffffffffffffffffffffffff160217905550856008819055508460098190555083600a8190555082600b8190555081600d819055507f1a21fb8b1d022d4555cd5839054fb47a704dd314d512cd9ebff65e297de3ade9600b54141561136757600a54826008546009546113489190613402565b61135291906133a8565b61135c9190613206565b600e8190555061140c565b7fe54b9c725c6e3bf9124f023bf012ef4ffd5d4fff38993612d5e648f1434849be600b5414156113d0576002600a546113a0919061328a565b826008546009546113b19190613402565b6113bb91906133a8565b6113c59190613206565b600e8190555061140b565b6040517f08c379a000000000000000000000000000000000000000000000000000000000815260040161140290612f13565b60405180910390fd5b5b801561142e576000600760016101000a81548160ff0219169083151502179055505b50505050505050565b6000600160008473ffffffffffffffffffffffffffffffffffffffff1673ffffffffffffffffffffffffffffffffffffffff16815260200190815260200160002060008373ffffffffffffffffffffffffffffffffffffffff1673ffffffffffffffffffffffffffffffffffffffff16815260200190815260200160002054905092915050565b60095481565b600e5481565b60007f01ffc9a7000000000000000000000000000000000000000000000000000000007bffffffffffffffffffffffffffffffffffffffffffffffffffffffff1916827bffffffffffffffffffffffffffffffffffffffffffffffffffffffff1916149050919050565b6000806000806008549050841561155f5785600c5461155391906131b0565b9250600c549150611575565b600c54925085600c546115729190613402565b91505b7f1a21fb8b1d022d4555cd5839054fb47a704dd314d512cd9ebff65e297de3ade9600b54141561162b5760006115c36002856115b1919061328a565b6002856115be919061328a565b612264565b905060006115d18585612264565b90506000816002846115e39190613206565b6115ed91906131b0565b905083600d546002836116009190613206565b600e5461160d91906133a8565b6116179190613206565b61162191906131b0565b965050505061171d565b7fe54b9c725c6e3bf9124f023bf012ef4ffd5d4fff38993612d5e648f1434849be600b5414156116e1576000611679600385611667919061328a565b600385611674919061328a565b612264565b905060006116878585612264565b90506000816003846116999190613206565b6116a391906131b0565b905083600d546003836116b69190613206565b600e546116c391906133a8565b6116cd9190613206565b6116d791906131b0565b965050505061171c565b6040517f08c379a000000000000000000000000000000000000000000000000000000000815260040161171390613053565b60405180910390fd5b5b50505092915050565b600073ffffffffffffffffffffffffffffffffffffffff168273ffffffffffffffffffffffffffffffffffffffff161415611796576040517f08c379a000000000000000000000000000000000000000000000000000000000815260040161178d90613133565b60405180910390fd5b6117a2600083836122bd565b80600260008282546117b491906131b0565b92505081905550806000808473ffffffffffffffffffffffffffffffffffffffff1673ffffffffffffffffffffffffffffffffffffffff168152602001908152602001600020600082825461180991906131b0565b925050819055508173ffffffffffffffffffffffffffffffffffffffff16600073ffffffffffffffffffffffffffffffffffffffff167fddf252ad1be2c89b69c2b068fc378daa952ba7f163c4a11628f55a4df523b3ef8360405161186e9190613153565b60405180910390a361188260008383612315565b5050565b600033905090565b600073ffffffffffffffffffffffffffffffffffffffff168373ffffffffffffffffffffffffffffffffffffffff1614156118fe576040517f08c379a00000000000000000000000000000000000000000000000000000000081526004016118f590613073565b60405180910390fd5b600073ffffffffffffffffffffffffffffffffffffffff168273ffffffffffffffffffffffffffffffffffffffff16141561196e576040517f08c379a000000000000000000000000000000000000000000000000000000000815260040161196590612ed3565b60405180910390fd5b80600160008573ffffffffffffffffffffffffffffffffffffffff1673ffffffffffffffffffffffffffffffffffffffff16815260200190815260200160002060008473ffffffffffffffffffffffffffffffffffffffff1673ffffffffffffffffffffffffffffffffffffffff168152602001908152602001600020819055508173ffffffffffffffffffffffffffffffffffffffff168373ffffffffffffffffffffffffffffffffffffffff167f8c5be1e5ebec7d5bd14f71427d1e84f3dd0314c0f7b2291e5b200ac8c7c3b92583604051611a4c9190613153565b60405180910390a3505050565b600073ffffffffffffffffffffffffffffffffffffffff168373ffffffffffffffffffffffffffffffffffffffff161415611ac9576040517f08c379a0000000000000000000000000000000000000000000000000000000008152600401611ac090613033565b60405180910390fd5b600073ffffffffffffffffffffffffffffffffffffffff168273ffffffffffffffffffffffffffffffffffffffff161415611b39576040517f08c379a0000000000000000000000000000000000000000000000000000000008152600401611b3090612e73565b60405180910390fd5b611b448383836122bd565b60008060008573ffffffffffffffffffffffffffffffffffffffff1673ffffffffffffffffffffffffffffffffffffffff16815260200190815260200160002054905081811015611bca576040517f08c379a0000000000000000000000000000000000000000000000000000000008152600401611bc190612f33565b60405180910390fd5b8181036000808673ffffffffffffffffffffffffffffffffffffffff1673ffffffffffffffffffffffffffffffffffffffff16815260200190815260200160002081905550816000808573ffffffffffffffffffffffffffffffffffffffff1673ffffffffffffffffffffffffffffffffffffffff1681526020019081526020016000206000828254611c5d91906131b0565b925050819055508273ffffffffffffffffffffffffffffffffffffffff168473ffffffffffffffffffffffffffffffffffffffff167fddf252ad1be2c89b69c2b068fc378daa952ba7f163c4a11628f55a4df523b3ef84604051611cc19190613153565b60405180910390a3611cd4848484612315565b50505050565b611ce48282610cb1565b611d7357611d098173ffffffffffffffffffffffffffffffffffffffff16601461231a565b611d178360001c602061231a565b604051602001611d28929190612d46565b6040516020818303038152906040526040517f08c379a0000000000000000000000000000000000000000000000000000000008152600401611d6a9190612e31565b60405180910390fd5b5050565b611d818282610cb1565b611e545760016006600084815260200190815260200160002060000160008373ffffffffffffffffffffffffffffffffffffffff1673ffffffffffffffffffffffffffffffffffffffff16815260200190815260200160002060006101000a81548160ff021916908315150217905550611df9611886565b73ffffffffffffffffffffffffffffffffffffffff168173ffffffffffffffffffffffffffffffffffffffff16837f2f8788117e7eff1d82e926ec794901d17c78024a50270940304540a733656f0d60405160405180910390a45b5050565b611e628282610cb1565b15611f365760006006600084815260200190815260200160002060000160008373ffffffffffffffffffffffffffffffffffffffff1673ffffffffffffffffffffffffffffffffffffffff16815260200190815260200160002060006101000a81548160ff021916908315150217905550611edb611886565b73ffffffffffffffffffffffffffffffffffffffff168173ffffffffffffffffffffffffffffffffffffffff16837ff6391f5c32d9c69d2a47ea670b442974b53935d1edc7fd64eb21e047a839171b60405160405180910390a45b5050565b611f42610c32565b611f81576040517f08c379a0000000000000000000000000000000000000000000000000000000008152600401611f7890612e93565b60405180910390fd5b6000600560006101000a81548160ff0219169083151502179055507f5db9ee0a495bf2e6ff9c91a7834c1ba4fdd244a5e8aa4e537bd38aeae4b073aa611fc5611886565b604051611fd29190612d80565b60405180910390a1565b611fe4610c32565b15612024576040517f08c379a000000000000000000000000000000000000000000000000000000000815260040161201b90612f73565b60405180910390fd5b6001600560006101000a81548160ff0219169083151502179055507f62e78cea01bee320cd4e420270b5ea74000d11b0c9f74754ebdbfc544b05a258612068611886565b6040516120759190612d80565b60405180910390a1565b600073ffffffffffffffffffffffffffffffffffffffff168273ffffffffffffffffffffffffffffffffffffffff1614156120ef576040517f08c379a00000000000000000000000000000000000000000000000000000000081526004016120e690613013565b60405180910390fd5b6120fb826000836122bd565b60008060008473ffffffffffffffffffffffffffffffffffffffff1673ffffffffffffffffffffffffffffffffffffffff16815260200190815260200160002054905081811015612181576040517f08c379a000000000000000000000000000000000000000000000000000000000815260040161217890612eb3565b60405180910390fd5b8181036000808573ffffffffffffffffffffffffffffffffffffffff1673ffffffffffffffffffffffffffffffffffffffff1681526020019081526020016000208190555081600260008282546121d89190613402565b92505081905550600073ffffffffffffffffffffffffffffffffffffffff168373ffffffffffffffffffffffffffffffffffffffff167fddf252ad1be2c89b69c2b068fc378daa952ba7f163c4a11628f55a4df523b3ef8460405161223d9190613153565b60405180910390a361225183600084612315565b505050565b6122608282611d77565b5050565b6000818310156122a9576040517f08c379a00000000000000000000000000000000000000000000000000000000081526004016122a090612f53565b60405180910390fd5b81836122b59190613402565b905092915050565b6122c5610c32565b15612305576040517f08c379a00000000000000000000000000000000000000000000000000000000081526004016122fc90612f73565b60405180910390fd5b612310838383612614565b505050565b505050565b60606000600283600261232d91906133a8565b61233791906131b0565b67ffffffffffffffff811115612376577f4e487b7100000000000000000000000000000000000000000000000000000000600052604160045260246000fd5b6040519080825280601f01601f1916602001820160405280156123a85781602001600182028036833780820191505090505b5090507f300000000000000000000000000000000000000000000000000000000000000081600081518110612406577f4e487b7100000000000000000000000000000000000000000000000000000000600052603260045260246000fd5b60200101907effffffffffffffffffffffffffffffffffffffffffffffffffffffffffffff1916908160001a9053507f780000000000000000000000000000000000000000000000000000000000000081600181518110612490577f4e487b7100000000000000000000000000000000000000000000000000000000600052603260045260246000fd5b60200101907effffffffffffffffffffffffffffffffffffffffffffffffffffffffffffff1916908160001a905350600060018460026124d091906133a8565b6124da91906131b0565b90505b60018111156125c6577f3031323334353637383961626364656600000000000000000000000000000000600f861660108110612542577f4e487b7100000000000000000000000000000000000000000000000000000000600052603260045260246000fd5b1a60f81b82828151811061257f577f4e487b7100000000000000000000000000000000000000000000000000000000600052603260045260246000fd5b60200101907effffffffffffffffffffffffffffffffffffffffffffffffffffffffffffff1916908160001a905350600485901c9450806125bf906134f4565b90506124dd565b506000841461260a576040517f08c379a000000000000000000000000000000000000000000000000000000000815260040161260190612e53565b60405180910390fd5b8091505092915050565b505050565b60008135905061262881613bc7565b92915050565b60008135905061263d81613bde565b92915050565b60008151905061265281613bde565b92915050565b60008135905061266781613bf5565b92915050565b60008135905061267c81613c0c565b92915050565b60008135905061269181613c23565b92915050565b6000602082840312156126a957600080fd5b60006126b784828501612619565b91505092915050565b600080604083850312156126d357600080fd5b60006126e185828601612619565b92505060206126f285828601612619565b9150509250929050565b60008060006060848603121561271157600080fd5b600061271f86828701612619565b935050602061273086828701612619565b925050604061274186828701612682565b9150509250925092565b6000806040838503121561275e57600080fd5b600061276c85828601612619565b925050602061277d85828601612682565b9150509250929050565b60008060008060008060c087890312156127a057600080fd5b60006127ae89828a01612619565b96505060206127bf89828a01612682565b95505060406127d089828a01612682565b94505060606127e189828a01612682565b93505060806127f289828a01612658565b92505060a061280389828a01612682565b9150509295509295509295565b60006020828403121561282257600080fd5b600061283084828501612643565b91505092915050565b60006020828403121561284b57600080fd5b600061285984828501612658565b91505092915050565b6000806040838503121561287557600080fd5b600061288385828601612658565b925050602061289485828601612619565b9150509250929050565b6000602082840312156128b057600080fd5b60006128be8482850161266d565b91505092915050565b600080604083850312156128da57600080fd5b60006128e885828601612682565b92505060206128f98582860161262e565b9150509250929050565b61290c81613436565b82525050565b61291b81613448565b82525050565b61292a81613454565b82525050565b600061293b82613189565b6129458185613194565b93506129558185602086016134c1565b61295e816135dd565b840191505092915050565b600061297482613189565b61297e81856131a5565b935061298e8185602086016134c1565b80840191505092915050565b60006129a7602083613194565b91506129b2826135fb565b602082019050919050565b60006129ca602383613194565b91506129d582613624565b604082019050919050565b60006129ed601483613194565b91506129f882613673565b602082019050919050565b6000612a10602283613194565b9150612a1b8261369c565b604082019050919050565b6000612a33602283613194565b9150612a3e826136eb565b604082019050919050565b6000612a56600e83613194565b9150612a618261373a565b602082019050919050565b6000612a79601083613194565b9150612a8482613763565b602082019050919050565b6000612a9c602683613194565b9150612aa78261378c565b604082019050919050565b6000612abf601283613194565b9150612aca826137db565b602082019050919050565b6000612ae2601083613194565b9150612aed82613804565b602082019050919050565b6000612b05602e83613194565b9150612b108261382d565b604082019050919050565b6000612b28601583613194565b9150612b338261387c565b602082019050919050565b6000612b4b601283613194565b9150612b56826138a5565b602082019050919050565b6000612b6e602883613194565b9150612b79826138ce565b604082019050919050565b6000612b91602183613194565b9150612b9c8261391d565b604082019050919050565b6000612bb4602583613194565b9150612bbf8261396c565b604082019050919050565b6000612bd7601083613194565b9150612be2826139bb565b602082019050919050565b6000612bfa602483613194565b9150612c05826139e4565b604082019050919050565b6000612c1d601183613194565b9150612c2882613a33565b602082019050919050565b6000612c40601483613194565b9150612c4b82613a5c565b602082019050919050565b6000612c636017836131a5565b9150612c6e82613a85565b601782019050919050565b6000612c86600e83613194565b9150612c9182613aae565b602082019050919050565b6000612ca9602583613194565b9150612cb482613ad7565b604082019050919050565b6000612ccc6011836131a5565b9150612cd782613b26565b601182019050919050565b6000612cef602f83613194565b9150612cfa82613b4f565b604082019050919050565b6000612d12601f83613194565b9150612d1d82613b9e565b602082019050919050565b612d31816134aa565b82525050565b612d40816134b4565b82525050565b6000612d5182612c56565b9150612d5d8285612969565b9150612d6882612cbf565b9150612d748284612969565b91508190509392505050565b6000602082019050612d956000830184612903565b92915050565b6000606082019050612db06000830186612903565b612dbd6020830185612903565b612dca6040830184612d28565b949350505050565b6000604082019050612de76000830185612903565b612df46020830184612d28565b9392505050565b6000602082019050612e106000830184612912565b92915050565b6000602082019050612e2b6000830184612921565b92915050565b60006020820190508181036000830152612e4b8184612930565b905092915050565b60006020820190508181036000830152612e6c8161299a565b9050919050565b60006020820190508181036000830152612e8c816129bd565b9050919050565b60006020820190508181036000830152612eac816129e0565b9050919050565b60006020820190508181036000830152612ecc81612a03565b9050919050565b60006020820190508181036000830152612eec81612a26565b9050919050565b60006020820190508181036000830152612f0c81612a49565b9050919050565b60006020820190508181036000830152612f2c81612a6c565b9050919050565b60006020820190508181036000830152612f4c81612a8f565b9050919050565b60006020820190508181036000830152612f6c81612ab2565b9050919050565b60006020820190508181036000830152612f8c81612ad5565b9050919050565b60006020820190508181036000830152612fac81612af8565b9050919050565b60006020820190508181036000830152612fcc81612b1b565b9050919050565b60006020820190508181036000830152612fec81612b3e565b9050919050565b6000602082019050818103600083015261300c81612b61565b9050919050565b6000602082019050818103600083015261302c81612b84565b9050919050565b6000602082019050818103600083015261304c81612ba7565b9050919050565b6000602082019050818103600083015261306c81612bca565b9050919050565b6000602082019050818103600083015261308c81612bed565b9050919050565b600060208201905081810360008301526130ac81612c10565b9050919050565b600060208201905081810360008301526130cc81612c33565b9050919050565b600060208201905081810360008301526130ec81612c79565b9050919050565b6000602082019050818103600083015261310c81612c9c565b9050919050565b6000602082019050818103600083015261312c81612ce2565b9050919050565b6000602082019050818103600083015261314c81612d05565b9050919050565b60006020820190506131686000830184612d28565b92915050565b60006020820190506131836000830184612d37565b92915050565b600081519050919050565b600082825260208201905092915050565b600081905092915050565b60006131bb826134aa565b91506131c6836134aa565b9250827fffffffffffffffffffffffffffffffffffffffffffffffffffffffffffffffff038211156131fb576131fa613550565b5b828201905092915050565b6000613211826134aa565b915061321c836134aa565b92508261322c5761322b61357f565b5b828204905092915050565b6000808291508390505b60018511156132815780860481111561325d5761325c613550565b5b600185161561326c5780820291505b808102905061327a856135ee565b9450613241565b94509492505050565b6000613295826134aa565b91506132a0836134b4565b92506132cd7fffffffffffffffffffffffffffffffffffffffffffffffffffffffffffffffff84846132d5565b905092915050565b6000826132e557600190506133a1565b816132f357600090506133a1565b8160018114613309576002811461331357613342565b60019150506133a1565b60ff84111561332557613324613550565b5b8360020a91508482111561333c5761333b613550565b5b506133a1565b5060208310610133831016604e8410600b84101617156133775782820a90508381111561337257613371613550565b5b6133a1565b6133848484846001613237565b9250905081840481111561339b5761339a613550565b5b81810290505b9392505050565b60006133b3826134aa565b91506133be836134aa565b9250817fffffffffffffffffffffffffffffffffffffffffffffffffffffffffffffffff04831182151516156133f7576133f6613550565b5b828202905092915050565b600061340d826134aa565b9150613418836134aa565b92508282101561342b5761342a613550565b5b828203905092915050565b60006134418261348a565b9050919050565b60008115159050919050565b6000819050919050565b60007fffffffff0000000000000000000000000000000000000000000000000000000082169050919050565b600073ffffffffffffffffffffffffffffffffffffffff82169050919050565b6000819050919050565b600060ff82169050919050565b60005b838110156134df5780820151818401526020810190506134c4565b838111156134ee576000848401525b50505050565b60006134ff826134aa565b9150600082141561351357613512613550565b5b600182039050919050565b6000600282049050600182168061353657607f821691505b6020821081141561354a576135496135ae565b5b50919050565b7f4e487b7100000000000000000000000000000000000000000000000000000000600052601160045260246000fd5b7f4e487b7100000000000000000000000000000000000000000000000000000000600052601260045260246000fd5b7f4e487b7100000000000000000000000000000000000000000000000000000000600052602260045260246000fd5b6000601f19601f8301169050919050565b60008160011c9050919050565b7f537472696e67733a20686578206c656e67746820696e73756666696369656e74600082015250565b7f45524332303a207472616e7366657220746f20746865207a65726f206164647260008201527f6573730000000000000000000000000000000000000000000000000000000000602082015250565b7f5061757361626c653a206e6f7420706175736564000000000000000000000000600082015250565b7f45524332303a206275726e20616d6f756e7420657863656564732062616c616e60008201527f6365000000000000000000000000000000000000000000000000000000000000602082015250565b7f45524332303a20617070726f766520746f20746865207a65726f20616464726560008201527f7373000000000000000000000000000000000000000000000000000000000000602082015250565b7f496e76616c696420616d6f756e74000000000000000000000000000000000000600082015250565b7f496e76616c696420616d6d207479706500000000000000000000000000000000600082015250565b7f45524332303a207472616e7366657220616d6f756e742065786365656473206260008201527f616c616e63650000000000000000000000000000000000000000000000000000602082015250565b7f4e6f7420656e6f7567682062616c616e63650000000000000000000000000000600082015250565b7f5061757361626c653a2070617573656400000000000000000000000000000000600082015250565b7f496e697469616c697a61626c653a20636f6e747261637420697320616c72656160008201527f647920696e697469616c697a6564000000000000000000000000000000000000602082015250565b7f4e6f7420656e6f756768206d617820737570706c790000000000000000000000600082015250565b7f496e76616c6964206d617820737570706c790000000000000000000000000000600082015250565b7f45524332303a207472616e7366657220616d6f756e742065786365656473206160008201527f6c6c6f77616e6365000000000000000000000000000000000000000000000000602082015250565b7f45524332303a206275726e2066726f6d20746865207a65726f2061646472657360008201527f7300000000000000000000000000000000000000000000000000000000000000602082015250565b7f45524332303a207472616e736665722066726f6d20746865207a65726f20616460008201527f6472657373000000000000000000000000000000000000000000000000000000602082015250565b7f496e76616c696420414d4d205479706500000000000000000000000000000000600082015250565b7f45524332303a20617070726f76652066726f6d20746865207a65726f2061646460008201527f7265737300000000000000000000000000000000000000000000000000000000602082015250565b7f496e76616c696420707265636973696f6e000000000000000000000000000000600082015250565b7f4e6f7420656e6f756768206c6971756964697479000000000000000000000000600082015250565b7f416363657373436f6e74726f6c3a206163636f756e7420000000000000000000600082015250565b7f496e76616c696420707269636573000000000000000000000000000000000000600082015250565b7f45524332303a2064656372656173656420616c6c6f77616e63652062656c6f7760008201527f207a65726f000000000000000000000000000000000000000000000000000000602082015250565b7f206973206d697373696e6720726f6c6520000000000000000000000000000000600082015250565b7f416363657373436f6e74726f6c3a2063616e206f6e6c792072656e6f756e636560008201527f20726f6c657320666f722073656c660000000000000000000000000000000000602082015250565b7f45524332303a206d696e7420746f20746865207a65726f206164647265737300600082015250565b613bd081613436565b8114613bdb57600080fd5b50565b613be781613448565b8114613bf257600080fd5b50565b613bfe81613454565b8114613c0957600080fd5b50565b613c158161345e565b8114613c2057600080fd5b50565b613c2c816134aa565b8114613c3757600080fd5b5056fea26469706673582212201dde3487bd352470c4c8ebfafb2cb658fe6d26e5487b7c9b9fcd9640243594b664736f6c63430008010033",
  "immutableReferences": {},
  "source": "// SPDX-License-Identifier: MIT\npragma solidity ^0.8.0;\n\nimport \"@openzeppelin/contracts/token/ERC20/ERC20.sol\";\nimport \"@openzeppelin/contracts/security/Pausable.sol\";\nimport \"@openzeppelin/contracts/access/AccessControl.sol\";\nimport \"@openzeppelin/contracts/proxy/utils/Initializable.sol\";\n\n/**\n * @title the implementation of the AMM\n * @author Eric Nordelo\n */\ncontract PriviAMM is ERC20, Pausable, AccessControl, Initializable {\n    // amm types\n    bytes32 public constant QUADRATIC_AMM = keccak256(\"quadratic\");\n    bytes32 public constant LINEAR_AMM = keccak256(\"linear\");\n\n    address private _fundingTokenAddress;\n    uint256 public fundingTokenPrice;\n    uint256 public maxPrice;\n    uint256 public maxSupply;\n    bytes32 public ammType;\n    uint256 public supplyReleased;\n    uint256 public precision;\n\n    uint256 public scale;\n\n    // solhint-disable-next-line\n    constructor() ERC20(\"Privi AMM Token\", \"pAMMT\") {}\n\n    /**\n     * @notice set the default admin (can't be on construction time for minimal proxy clones functionality)\n     * @param _fundingToken the address of the ERC20 token used for funding\n     * @param _fundingTokenPrice the price of the ERC20 token used for funding\n     * @param _maxPrice the max price used in formulas\n     * @param _maxSupply the max supply used in formulas\n     * @param _ammType the amm type\n     * @param _precision precision value (loog for the README.md)\n     */\n    function initialize(\n        address _fundingToken,\n        uint256 _fundingTokenPrice,\n        uint256 _maxPrice,\n        uint256 _maxSupply,\n        bytes32 _ammType,\n        uint256 _precision\n    ) external initializer {\n        require(_maxPrice >= _fundingTokenPrice, \"Invalid prices\");\n        require(_precision > 10000, \"Invalid precision\");\n        require(_maxSupply > 0, \"Invalid max supply\");\n\n        _setupRole(DEFAULT_ADMIN_ROLE, msg.sender);\n\n        _fundingTokenAddress = _fundingToken;\n        fundingTokenPrice = _fundingTokenPrice;\n        maxPrice = _maxPrice;\n        maxSupply = _maxSupply;\n        ammType = _ammType;\n        precision = _precision;\n\n        if (ammType == LINEAR_AMM) {\n            scale = ((maxPrice - fundingTokenPrice) * _precision) / maxSupply;\n        } else if (ammType == QUADRATIC_AMM) {\n            scale = ((maxPrice - fundingTokenPrice) * _precision) / (maxSupply**2);\n        } else {\n            revert(\"Invalid amm type\");\n        }\n    }\n\n    function pause() public onlyRole(DEFAULT_ADMIN_ROLE) {\n        _pause();\n    }\n\n    function unpause() public onlyRole(DEFAULT_ADMIN_ROLE) {\n        _unpause();\n    }\n\n    /**\n     * @notice allows the buying (minting) of amm tokens\n     * @param _ammTokenAmount the amount of funding token to exchange\n     * @param _buyer address of the buyer\n     */\n    function buyTokens(address _buyer, uint256 _ammTokenAmount) external {\n        require(_ammTokenAmount > 0, \"Invalid amount\");\n        require(supplyReleased + _ammTokenAmount <= maxSupply, \"Not enough max supply\");\n        uint256 amountToPay = integral(_ammTokenAmount, true);\n\n        supplyReleased += _ammTokenAmount;\n\n        // make the transfers (should have the allowance)\n        ERC20(_fundingTokenAddress).transferFrom(_buyer, address(this), amountToPay);\n        _mint(_buyer, _ammTokenAmount);\n    }\n\n    /**\n     * @notice allows the selling (burning) of amm tokens\n     * @param _ammTokenAmount the amount of funding token to exchange\n     * @param _seller address of the seller\n     */\n    function sellTokens(address _seller, uint256 _ammTokenAmount) external {\n        require(_ammTokenAmount > 0, \"Invalid amount\");\n        require(supplyReleased >= _ammTokenAmount, \"Not enough liquidity\");\n\n        uint256 amountToPay = integral(_ammTokenAmount, false);\n\n        supplyReleased -= _ammTokenAmount;\n\n        // make the transfers\n        _burn(_seller, _ammTokenAmount);\n        ERC20(_fundingTokenAddress).transfer(_seller, amountToPay);\n    }\n\n    /**\n     * @notice allows the buyer to check how much he has to approve\n     * @param _ammTokenAmount the amount of funding token to exchange\n     * @param _buying indicates the amount for buying or for selling\n     */\n    function getPriceForAmountOfTokens(uint256 _ammTokenAmount, bool _buying)\n        external\n        view\n        returns (uint256 amountToPay)\n    {\n        require(_ammTokenAmount > 0, \"Invalid amount\");\n        require(supplyReleased + _ammTokenAmount <= maxSupply, \"Not enough max supply\");\n        amountToPay = integral(_ammTokenAmount, _buying);\n    }\n\n    function integral(uint256 _ammTokenAmount, bool buying) internal view returns (uint256 integralValue) {\n        uint256 upperBound;\n        uint256 lowerBound;\n        uint256 shift = fundingTokenPrice;\n\n        if (buying) {\n            upperBound = supplyReleased + _ammTokenAmount;\n            lowerBound = supplyReleased;\n        } else {\n            upperBound = supplyReleased;\n            lowerBound = supplyReleased - _ammTokenAmount;\n        }\n\n        if (ammType == LINEAR_AMM) {\n            uint256 term1 = saveSubstraction((upperBound)**2, lowerBound**2);\n            uint256 term2 = saveSubstraction((upperBound), lowerBound);\n            uint256 term3 = (term1 / 2) + term2;\n\n            integralValue = (scale * (term3 / 2)) / precision + shift;\n        } else if (ammType == QUADRATIC_AMM) {\n            uint256 term1 = saveSubstraction((upperBound)**3, lowerBound**3);\n            uint256 term2 = saveSubstraction((upperBound), lowerBound);\n            uint256 term3 = (term1 / 3) + term2;\n\n            integralValue = (scale * (term3 / 3)) / precision + shift;\n        } else {\n            revert(\"Invalid AMM Type\");\n        }\n    }\n\n    function saveSubstraction(uint256 _a, uint256 _b) internal pure returns (uint256) {\n        require(_a >= _b, \"Not enough balance\");\n        return _a - _b;\n    }\n\n    function _beforeTokenTransfer(\n        address from,\n        address to,\n        uint256 amount\n    ) internal override whenNotPaused {\n        super._beforeTokenTransfer(from, to, amount);\n    }\n}\n",
  "sourcePath": "/home/ericng/Documents/PRIVI/Privi-Polygon/privi-amm/contracts/PriviAMM.sol",
  "compiler": {
    "name": "solc",
    "version": "0.8.1+commit.df193b15.Emscripten.clang"
  },
  "schemaVersion": "3.4.2",
  "updatedAt": "2021-08-16T18:06:42.034Z",
  "devdoc": {
    "author": "Eric Nordelo",
    "kind": "dev",
    "methods": {
      "allowance(address,address)": {
        "details": "See {IERC20-allowance}."
      },
      "approve(address,uint256)": {
        "details": "See {IERC20-approve}. Requirements: - `spender` cannot be the zero address."
      },
      "balanceOf(address)": {
        "details": "See {IERC20-balanceOf}."
      },
      "buyTokens(address,uint256)": {
        "params": {
          "_ammTokenAmount": "the amount of funding token to exchange",
          "_buyer": "address of the buyer"
        }
      },
      "decimals()": {
        "details": "Returns the number of decimals used to get its user representation. For example, if `decimals` equals `2`, a balance of `505` tokens should be displayed to a user as `5,05` (`505 / 10 ** 2`). Tokens usually opt for a value of 18, imitating the relationship between Ether and Wei. This is the value {ERC20} uses, unless this function is overridden; NOTE: This information is only used for _display_ purposes: it in no way affects any of the arithmetic of the contract, including {IERC20-balanceOf} and {IERC20-transfer}."
      },
      "decreaseAllowance(address,uint256)": {
        "details": "Atomically decreases the allowance granted to `spender` by the caller. This is an alternative to {approve} that can be used as a mitigation for problems described in {IERC20-approve}. Emits an {Approval} event indicating the updated allowance. Requirements: - `spender` cannot be the zero address. - `spender` must have allowance for the caller of at least `subtractedValue`."
      },
      "getPriceForAmountOfTokens(uint256,bool)": {
        "params": {
          "_ammTokenAmount": "the amount of funding token to exchange",
          "_buying": "indicates the amount for buying or for selling"
        }
      },
      "getRoleAdmin(bytes32)": {
        "details": "Returns the admin role that controls `role`. See {grantRole} and {revokeRole}. To change a role's admin, use {_setRoleAdmin}."
      },
      "grantRole(bytes32,address)": {
        "details": "Grants `role` to `account`. If `account` had not been already granted `role`, emits a {RoleGranted} event. Requirements: - the caller must have ``role``'s admin role."
      },
      "hasRole(bytes32,address)": {
        "details": "Returns `true` if `account` has been granted `role`."
      },
      "increaseAllowance(address,uint256)": {
        "details": "Atomically increases the allowance granted to `spender` by the caller. This is an alternative to {approve} that can be used as a mitigation for problems described in {IERC20-approve}. Emits an {Approval} event indicating the updated allowance. Requirements: - `spender` cannot be the zero address."
      },
      "initialize(address,uint256,uint256,uint256,bytes32,uint256)": {
        "params": {
          "_ammType": "the amm type",
          "_fundingToken": "the address of the ERC20 token used for funding",
          "_fundingTokenPrice": "the price of the ERC20 token used for funding",
          "_maxPrice": "the max price used in formulas",
          "_maxSupply": "the max supply used in formulas",
          "_precision": "precision value (loog for the README.md)"
        }
      },
      "name()": {
        "details": "Returns the name of the token."
      },
      "paused()": {
        "details": "Returns true if the contract is paused, and false otherwise."
      },
      "renounceRole(bytes32,address)": {
        "details": "Revokes `role` from the calling account. Roles are often managed via {grantRole} and {revokeRole}: this function's purpose is to provide a mechanism for accounts to lose their privileges if they are compromised (such as when a trusted device is misplaced). If the calling account had been granted `role`, emits a {RoleRevoked} event. Requirements: - the caller must be `account`."
      },
      "revokeRole(bytes32,address)": {
        "details": "Revokes `role` from `account`. If `account` had been granted `role`, emits a {RoleRevoked} event. Requirements: - the caller must have ``role``'s admin role."
      },
      "sellTokens(address,uint256)": {
        "params": {
          "_ammTokenAmount": "the amount of funding token to exchange",
          "_seller": "address of the seller"
        }
      },
      "supportsInterface(bytes4)": {
        "details": "See {IERC165-supportsInterface}."
      },
      "symbol()": {
        "details": "Returns the symbol of the token, usually a shorter version of the name."
      },
      "totalSupply()": {
        "details": "See {IERC20-totalSupply}."
      },
      "transfer(address,uint256)": {
        "details": "See {IERC20-transfer}. Requirements: - `recipient` cannot be the zero address. - the caller must have a balance of at least `amount`."
      },
      "transferFrom(address,address,uint256)": {
        "details": "See {IERC20-transferFrom}. Emits an {Approval} event indicating the updated allowance. This is not required by the EIP. See the note at the beginning of {ERC20}. Requirements: - `sender` and `recipient` cannot be the zero address. - `sender` must have a balance of at least `amount`. - the caller must have allowance for ``sender``'s tokens of at least `amount`."
      }
    },
    "title": "the implementation of the AMM",
    "version": 1
  },
  "userdoc": {
    "kind": "user",
    "methods": {
      "buyTokens(address,uint256)": {
        "notice": "allows the buying (minting) of amm tokens"
      },
      "getPriceForAmountOfTokens(uint256,bool)": {
        "notice": "allows the buyer to check how much he has to approve"
      },
      "initialize(address,uint256,uint256,uint256,bytes32,uint256)": {
        "notice": "set the default admin (can't be on construction time for minimal proxy clones functionality)"
      },
      "sellTokens(address,uint256)": {
        "notice": "allows the selling (burning) of amm tokens"
      }
    },
    "version": 1
  }
}