{
  "contractName": "SocialTokenMock",
  "abi": [
    {
      "inputs": [
        {
          "internalType": "string",
          "name": "name",
          "type": "string"
        },
        {
          "internalType": "string",
          "name": "symbol",
          "type": "string"
        },
        {
          "internalType": "uint256",
          "name": "initialSupply",
          "type": "uint256"
        }
      ],
      "stateMutability": "nonpayable",
      "type": "constructor"
    },
    {
      "anonymous": false,
      "inputs": [
        {
          "indexed": true,
          "internalType": "address",
          "name": "owner",
          "type": "address"
        },
        {
          "indexed": true,
          "internalType": "address",
          "name": "spender",
          "type": "address"
        },
        {
          "indexed": false,
          "internalType": "uint256",
          "name": "value",
          "type": "uint256"
        }
      ],
      "name": "Approval",
      "type": "event"
    },
    {
      "anonymous": false,
      "inputs": [
        {
          "indexed": true,
          "internalType": "address",
          "name": "from",
          "type": "address"
        },
        {
          "indexed": true,
          "internalType": "address",
          "name": "to",
          "type": "address"
        },
        {
          "indexed": false,
          "internalType": "uint256",
          "name": "value",
          "type": "uint256"
        }
      ],
      "name": "Transfer",
      "type": "event"
    },
    {
      "inputs": [
        {
          "internalType": "address",
          "name": "owner",
          "type": "address"
        },
        {
          "internalType": "address",
          "name": "spender",
          "type": "address"
        }
      ],
      "name": "allowance",
      "outputs": [
        {
          "internalType": "uint256",
          "name": "",
          "type": "uint256"
        }
      ],
      "stateMutability": "view",
      "type": "function",
      "constant": true
    },
    {
      "inputs": [
        {
          "internalType": "address",
          "name": "spender",
          "type": "address"
        },
        {
          "internalType": "uint256",
          "name": "amount",
          "type": "uint256"
        }
      ],
      "name": "approve",
      "outputs": [
        {
          "internalType": "bool",
          "name": "",
          "type": "bool"
        }
      ],
      "stateMutability": "nonpayable",
      "type": "function"
    },
    {
      "inputs": [
        {
          "internalType": "address",
          "name": "account",
          "type": "address"
        }
      ],
      "name": "balanceOf",
      "outputs": [
        {
          "internalType": "uint256",
          "name": "",
          "type": "uint256"
        }
      ],
      "stateMutability": "view",
      "type": "function",
      "constant": true
    },
    {
      "inputs": [],
      "name": "decimals",
      "outputs": [
        {
          "internalType": "uint8",
          "name": "",
          "type": "uint8"
        }
      ],
      "stateMutability": "view",
      "type": "function",
      "constant": true
    },
    {
      "inputs": [
        {
          "internalType": "address",
          "name": "spender",
          "type": "address"
        },
        {
          "internalType": "uint256",
          "name": "subtractedValue",
          "type": "uint256"
        }
      ],
      "name": "decreaseAllowance",
      "outputs": [
        {
          "internalType": "bool",
          "name": "",
          "type": "bool"
        }
      ],
      "stateMutability": "nonpayable",
      "type": "function"
    },
    {
      "inputs": [
        {
          "internalType": "address",
          "name": "spender",
          "type": "address"
        },
        {
          "internalType": "uint256",
          "name": "addedValue",
          "type": "uint256"
        }
      ],
      "name": "increaseAllowance",
      "outputs": [
        {
          "internalType": "bool",
          "name": "",
          "type": "bool"
        }
      ],
      "stateMutability": "nonpayable",
      "type": "function"
    },
    {
      "inputs": [],
      "name": "name",
      "outputs": [
        {
          "internalType": "string",
          "name": "",
          "type": "string"
        }
      ],
      "stateMutability": "view",
      "type": "function",
      "constant": true
    },
    {
      "inputs": [
        {
          "internalType": "address",
          "name": "_contractAddress",
          "type": "address"
        }
      ],
      "name": "setMediaManagerContractAddress",
      "outputs": [],
      "stateMutability": "nonpayable",
      "type": "function"
    },
    {
      "inputs": [],
      "name": "symbol",
      "outputs": [
        {
          "internalType": "string",
          "name": "",
          "type": "string"
        }
      ],
      "stateMutability": "view",
      "type": "function",
      "constant": true
    },
    {
      "inputs": [
        {
          "internalType": "uint256",
          "name": "_mediaId",
          "type": "uint256"
        },
        {
          "internalType": "uint256",
          "name": "_amount",
          "type": "uint256"
        }
      ],
      "name": "tipMedia",
      "outputs": [],
      "stateMutability": "nonpayable",
      "type": "function"
    },
    {
      "inputs": [],
      "name": "totalSupply",
      "outputs": [
        {
          "internalType": "uint256",
          "name": "",
          "type": "uint256"
        }
      ],
      "stateMutability": "view",
      "type": "function",
      "constant": true
    },
    {
      "inputs": [
        {
          "internalType": "address",
          "name": "recipient",
          "type": "address"
        },
        {
          "internalType": "uint256",
          "name": "amount",
          "type": "uint256"
        }
      ],
      "name": "transfer",
      "outputs": [
        {
          "internalType": "bool",
          "name": "",
          "type": "bool"
        }
      ],
      "stateMutability": "nonpayable",
      "type": "function"
    },
    {
      "inputs": [
        {
          "internalType": "address",
          "name": "sender",
          "type": "address"
        },
        {
          "internalType": "address",
          "name": "recipient",
          "type": "address"
        },
        {
          "internalType": "uint256",
          "name": "amount",
          "type": "uint256"
        }
      ],
      "name": "transferFrom",
      "outputs": [
        {
          "internalType": "bool",
          "name": "",
          "type": "bool"
        }
      ],
      "stateMutability": "nonpayable",
      "type": "function"
    }
  ],
  "bytecode": "0x60806040523480156200001157600080fd5b5060405162001d3738038062001d3783398181016040528101906200003791906200032b565b8282816003908051906020019062000051929190620001f2565b5080600490805190602001906200006a929190620001f2565b5050506200007f33826200008860201b60201c565b50505062000684565b600073ffffffffffffffffffffffffffffffffffffffff168273ffffffffffffffffffffffffffffffffffffffff161415620000fb576040517f08c379a0000000000000000000000000000000000000000000000000000000008152600401620000f290620003eb565b60405180910390fd5b6200010f60008383620001ed60201b60201c565b80600260008282546200012391906200049a565b92505081905550806000808473ffffffffffffffffffffffffffffffffffffffff1673ffffffffffffffffffffffffffffffffffffffff16815260200190815260200160002060008282546200017a91906200049a565b925050819055508173ffffffffffffffffffffffffffffffffffffffff16600073ffffffffffffffffffffffffffffffffffffffff167fddf252ad1be2c89b69c2b068fc378daa952ba7f163c4a11628f55a4df523b3ef83604051620001e191906200040d565b60405180910390a35050565b505050565b828054620002009062000537565b90600052602060002090601f01602090048101928262000224576000855562000270565b82601f106200023f57805160ff191683800117855562000270565b8280016001018555821562000270579182015b828111156200026f57825182559160200191906001019062000252565b5b5090506200027f919062000283565b5090565b5b808211156200029e57600081600090555060010162000284565b5090565b6000620002b9620002b38462000453565b6200042a565b905082815260208101848484011115620002d257600080fd5b620002df84828562000501565b509392505050565b600082601f830112620002f957600080fd5b81516200030b848260208601620002a2565b91505092915050565b60008151905062000325816200066a565b92915050565b6000806000606084860312156200034157600080fd5b600084015167ffffffffffffffff8111156200035c57600080fd5b6200036a86828701620002e7565b935050602084015167ffffffffffffffff8111156200038857600080fd5b6200039686828701620002e7565b9250506040620003a98682870162000314565b9150509250925092565b6000620003c2601f8362000489565b9150620003cf8262000641565b602082019050919050565b620003e581620004f7565b82525050565b600060208201905081810360008301526200040681620003b3565b9050919050565b6000602082019050620004246000830184620003da565b92915050565b60006200043662000449565b90506200044482826200056d565b919050565b6000604051905090565b600067ffffffffffffffff82111562000471576200047062000601565b5b6200047c8262000630565b9050602081019050919050565b600082825260208201905092915050565b6000620004a782620004f7565b9150620004b483620004f7565b9250827fffffffffffffffffffffffffffffffffffffffffffffffffffffffffffffffff03821115620004ec57620004eb620005a3565b5b828201905092915050565b6000819050919050565b60005b838110156200052157808201518184015260208101905062000504565b8381111562000531576000848401525b50505050565b600060028204905060018216806200055057607f821691505b60208210811415620005675762000566620005d2565b5b50919050565b620005788262000630565b810181811067ffffffffffffffff821117156200059a576200059962000601565b5b80604052505050565b7f4e487b7100000000000000000000000000000000000000000000000000000000600052601160045260246000fd5b7f4e487b7100000000000000000000000000000000000000000000000000000000600052602260045260246000fd5b7f4e487b7100000000000000000000000000000000000000000000000000000000600052604160045260246000fd5b6000601f19601f8301169050919050565b7f45524332303a206d696e7420746f20746865207a65726f206164647265737300600082015250565b6200067581620004f7565b81146200068157600080fd5b50565b6116a380620006946000396000f3fe608060405234801561001057600080fd5b50600436106100cf5760003560e01c806370a082311161008c578063a9059cbb11610066578063a9059cbb1461023c578063dd62ed3e1461026c578063e1cec2f61461029c578063f773fc99146102b8576100cf565b806370a08231146101be57806395d89b41146101ee578063a457c2d71461020c576100cf565b806306fdde03146100d4578063095ea7b3146100f257806318160ddd1461012257806323b872dd14610140578063313ce56714610170578063395093511461018e575b600080fd5b6100dc6102d4565b6040516100e991906110a0565b60405180910390f35b61010c60048036038101906101079190610e49565b610366565b6040516101199190611085565b60405180910390f35b61012a610384565b60405161013791906111c2565b60405180910390f35b61015a60048036038101906101559190610dfa565b61038e565b6040516101679190611085565b60405180910390f35b61017861048f565b60405161018591906111dd565b60405180910390f35b6101a860048036038101906101a39190610e49565b610498565b6040516101b59190611085565b60405180910390f35b6101d860048036038101906101d39190610d95565b610544565b6040516101e591906111c2565b60405180910390f35b6101f661058c565b60405161020391906110a0565b60405180910390f35b61022660048036038101906102219190610e49565b61061e565b6040516102339190611085565b60405180910390f35b61025660048036038101906102519190610e49565b610712565b6040516102639190611085565b60405180910390f35b61028660048036038101906102819190610dbe565b610730565b60405161029391906111c2565b60405180910390f35b6102b660048036038101906102b19190610e85565b6107b7565b005b6102d260048036038101906102cd9190610d95565b6108d0565b005b6060600380546102e390611326565b80601f016020809104026020016040519081016040528092919081815260200182805461030f90611326565b801561035c5780601f106103315761010080835404028352916020019161035c565b820191906000526020600020905b81548152906001019060200180831161033f57829003601f168201915b5050505050905090565b600061037a610373610914565b848461091c565b6001905092915050565b6000600254905090565b600061039b848484610ae7565b6000600160008673ffffffffffffffffffffffffffffffffffffffff1673ffffffffffffffffffffffffffffffffffffffff16815260200190815260200160002060006103e6610914565b73ffffffffffffffffffffffffffffffffffffffff1673ffffffffffffffffffffffffffffffffffffffff16815260200190815260200160002054905082811015610466576040517f08c379a000000000000000000000000000000000000000000000000000000000815260040161045d90611142565b60405180910390fd5b61048385610472610914565b858461047e919061126a565b61091c565b60019150509392505050565b60006012905090565b600061053a6104a5610914565b8484600160006104b3610914565b73ffffffffffffffffffffffffffffffffffffffff1673ffffffffffffffffffffffffffffffffffffffff16815260200190815260200160002060008873ffffffffffffffffffffffffffffffffffffffff1673ffffffffffffffffffffffffffffffffffffffff168152602001908152602001600020546105359190611214565b61091c565b6001905092915050565b60008060008373ffffffffffffffffffffffffffffffffffffffff1673ffffffffffffffffffffffffffffffffffffffff168152602001908152602001600020549050919050565b60606004805461059b90611326565b80601f01602080910402602001604051908101604052809291908181526020018280546105c790611326565b80156106145780601f106105e957610100808354040283529160200191610614565b820191906000526020600020905b8154815290600101906020018083116105f757829003601f168201915b5050505050905090565b6000806001600061062d610914565b73ffffffffffffffffffffffffffffffffffffffff1673ffffffffffffffffffffffffffffffffffffffff16815260200190815260200160002060008573ffffffffffffffffffffffffffffffffffffffff1673ffffffffffffffffffffffffffffffffffffffff168152602001908152602001600020549050828110156106ea576040517f08c379a00000000000000000000000000000000000000000000000000000000081526004016106e1906111a2565b60405180910390fd5b6107076106f5610914565b858584610702919061126a565b61091c565b600191505092915050565b600061072661071f610914565b8484610ae7565b6001905092915050565b6000600160008473ffffffffffffffffffffffffffffffffffffffff1673ffffffffffffffffffffffffffffffffffffffff16815260200190815260200160002060008373ffffffffffffffffffffffffffffffffffffffff1673ffffffffffffffffffffffffffffffffffffffff16815260200190815260200160002054905092915050565b60006107c233610544565b905081811015610807576040517f08c379a00000000000000000000000000000000000000000000000000000000081526004016107fe90611122565b60405180910390fd5b610833600560009054906101000a900473ffffffffffffffffffffffffffffffffffffffff1683610366565b506000600560009054906101000a900473ffffffffffffffffffffffffffffffffffffffff1690508073ffffffffffffffffffffffffffffffffffffffff166346fc6b103386866040518463ffffffff1660e01b81526004016108989392919061104e565b600060405180830381600087803b1580156108b257600080fd5b505af11580156108c6573d6000803e3d6000fd5b5050505050505050565b80600560006101000a81548173ffffffffffffffffffffffffffffffffffffffff021916908373ffffffffffffffffffffffffffffffffffffffff16021790555050565b600033905090565b600073ffffffffffffffffffffffffffffffffffffffff168373ffffffffffffffffffffffffffffffffffffffff16141561098c576040517f08c379a000000000000000000000000000000000000000000000000000000000815260040161098390611182565b60405180910390fd5b600073ffffffffffffffffffffffffffffffffffffffff168273ffffffffffffffffffffffffffffffffffffffff1614156109fc576040517f08c379a00000000000000000000000000000000000000000000000000000000081526004016109f3906110e2565b60405180910390fd5b80600160008573ffffffffffffffffffffffffffffffffffffffff1673ffffffffffffffffffffffffffffffffffffffff16815260200190815260200160002060008473ffffffffffffffffffffffffffffffffffffffff1673ffffffffffffffffffffffffffffffffffffffff168152602001908152602001600020819055508173ffffffffffffffffffffffffffffffffffffffff168373ffffffffffffffffffffffffffffffffffffffff167f8c5be1e5ebec7d5bd14f71427d1e84f3dd0314c0f7b2291e5b200ac8c7c3b92583604051610ada91906111c2565b60405180910390a3505050565b600073ffffffffffffffffffffffffffffffffffffffff168373ffffffffffffffffffffffffffffffffffffffff161415610b57576040517f08c379a0000000000000000000000000000000000000000000000000000000008152600401610b4e90611162565b60405180910390fd5b600073ffffffffffffffffffffffffffffffffffffffff168273ffffffffffffffffffffffffffffffffffffffff161415610bc7576040517f08c379a0000000000000000000000000000000000000000000000000000000008152600401610bbe906110c2565b60405180910390fd5b610bd2838383610d66565b60008060008573ffffffffffffffffffffffffffffffffffffffff1673ffffffffffffffffffffffffffffffffffffffff16815260200190815260200160002054905081811015610c58576040517f08c379a0000000000000000000000000000000000000000000000000000000008152600401610c4f90611102565b60405180910390fd5b8181610c64919061126a565b6000808673ffffffffffffffffffffffffffffffffffffffff1673ffffffffffffffffffffffffffffffffffffffff16815260200190815260200160002081905550816000808573ffffffffffffffffffffffffffffffffffffffff1673ffffffffffffffffffffffffffffffffffffffff1681526020019081526020016000206000828254610cf49190611214565b925050819055508273ffffffffffffffffffffffffffffffffffffffff168473ffffffffffffffffffffffffffffffffffffffff167fddf252ad1be2c89b69c2b068fc378daa952ba7f163c4a11628f55a4df523b3ef84604051610d5891906111c2565b60405180910390a350505050565b505050565b600081359050610d7a8161163f565b92915050565b600081359050610d8f81611656565b92915050565b600060208284031215610da757600080fd5b6000610db584828501610d6b565b91505092915050565b60008060408385031215610dd157600080fd5b6000610ddf85828601610d6b565b9250506020610df085828601610d6b565b9150509250929050565b600080600060608486031215610e0f57600080fd5b6000610e1d86828701610d6b565b9350506020610e2e86828701610d6b565b9250506040610e3f86828701610d80565b9150509250925092565b60008060408385031215610e5c57600080fd5b6000610e6a85828601610d6b565b9250506020610e7b85828601610d80565b9150509250929050565b60008060408385031215610e9857600080fd5b6000610ea685828601610d80565b9250506020610eb785828601610d80565b9150509250929050565b610eca8161129e565b82525050565b610ed9816112b0565b82525050565b6000610eea826111f8565b610ef48185611203565b9350610f048185602086016112f3565b610f0d816113b6565b840191505092915050565b6000610f25602383611203565b9150610f30826113c7565b604082019050919050565b6000610f48602283611203565b9150610f5382611416565b604082019050919050565b6000610f6b602683611203565b9150610f7682611465565b604082019050919050565b6000610f8e602283611203565b9150610f99826114b4565b604082019050919050565b6000610fb1602883611203565b9150610fbc82611503565b604082019050919050565b6000610fd4602583611203565b9150610fdf82611552565b604082019050919050565b6000610ff7602483611203565b9150611002826115a1565b604082019050919050565b600061101a602583611203565b9150611025826115f0565b604082019050919050565b611039816112dc565b82525050565b611048816112e6565b82525050565b60006060820190506110636000830186610ec1565b6110706020830185611030565b61107d6040830184611030565b949350505050565b600060208201905061109a6000830184610ed0565b92915050565b600060208201905081810360008301526110ba8184610edf565b905092915050565b600060208201905081810360008301526110db81610f18565b9050919050565b600060208201905081810360008301526110fb81610f3b565b9050919050565b6000602082019050818103600083015261111b81610f5e565b9050919050565b6000602082019050818103600083015261113b81610f81565b9050919050565b6000602082019050818103600083015261115b81610fa4565b9050919050565b6000602082019050818103600083015261117b81610fc7565b9050919050565b6000602082019050818103600083015261119b81610fea565b9050919050565b600060208201905081810360008301526111bb8161100d565b9050919050565b60006020820190506111d76000830184611030565b92915050565b60006020820190506111f2600083018461103f565b92915050565b600081519050919050565b600082825260208201905092915050565b600061121f826112dc565b915061122a836112dc565b9250827fffffffffffffffffffffffffffffffffffffffffffffffffffffffffffffffff0382111561125f5761125e611358565b5b828201905092915050565b6000611275826112dc565b9150611280836112dc565b92508282101561129357611292611358565b5b828203905092915050565b60006112a9826112bc565b9050919050565b60008115159050919050565b600073ffffffffffffffffffffffffffffffffffffffff82169050919050565b6000819050919050565b600060ff82169050919050565b60005b838110156113115780820151818401526020810190506112f6565b83811115611320576000848401525b50505050565b6000600282049050600182168061133e57607f821691505b6020821081141561135257611351611387565b5b50919050565b7f4e487b7100000000000000000000000000000000000000000000000000000000600052601160045260246000fd5b7f4e487b7100000000000000000000000000000000000000000000000000000000600052602260045260246000fd5b6000601f19601f8301169050919050565b7f45524332303a207472616e7366657220746f20746865207a65726f206164647260008201527f6573730000000000000000000000000000000000000000000000000000000000602082015250565b7f45524332303a20617070726f766520746f20746865207a65726f20616464726560008201527f7373000000000000000000000000000000000000000000000000000000000000602082015250565b7f45524332303a207472616e7366657220616d6f756e742065786365656473206260008201527f616c616e63650000000000000000000000000000000000000000000000000000602082015250565b7f4e6f7420656e6f7567682066756e647320666f722074697020746865206d656460008201527f6961000000000000000000000000000000000000000000000000000000000000602082015250565b7f45524332303a207472616e7366657220616d6f756e742065786365656473206160008201527f6c6c6f77616e6365000000000000000000000000000000000000000000000000602082015250565b7f45524332303a207472616e736665722066726f6d20746865207a65726f20616460008201527f6472657373000000000000000000000000000000000000000000000000000000602082015250565b7f45524332303a20617070726f76652066726f6d20746865207a65726f2061646460008201527f7265737300000000000000000000000000000000000000000000000000000000602082015250565b7f45524332303a2064656372656173656420616c6c6f77616e63652062656c6f7760008201527f207a65726f000000000000000000000000000000000000000000000000000000602082015250565b6116488161129e565b811461165357600080fd5b50565b61165f816112dc565b811461166a57600080fd5b5056fea264697066735822122024aca1a9fa587d1d3a0fe9782571bc92095f73882256548ea203c1cb94c2422164736f6c63430008010033",
  "immutableReferences": {},
  "source": "// SPDX-License-Identifier: MIT\npragma solidity ^0.8.0;\n\nimport \"@openzeppelin/contracts/token/ERC20/ERC20.sol\";\nimport \"../ERC20MediaMethods.sol\";\n\ncontract SocialTokenMock is ERC20, ERC20MediaMethods {\n    constructor(\n        string memory name,\n        string memory symbol,\n        uint256 initialSupply\n    ) ERC20(name, symbol) {\n        _mint(msg.sender, initialSupply);\n    }\n}\n",
  "sourcePath": "/home/ericng/Documents/PRIVI/Privi-Polygon/privi-media-nft/contracts/Mocks/SocialTokenMock.sol",
  "compiler": {
    "name": "solc",
    "version": "0.8.1+commit.df193b15.Emscripten.clang"
  },
  "schemaVersion": "3.4.1",
  "updatedAt": "2021-06-24T19:39:07.018Z",
  "networkType": "ethereum",
  "devdoc": {
    "kind": "dev",
    "methods": {
      "allowance(address,address)": {
        "details": "See {IERC20-allowance}."
      },
      "approve(address,uint256)": {
        "details": "See {IERC20-approve}. Requirements: - `spender` cannot be the zero address."
      },
      "balanceOf(address)": {
        "details": "See {IERC20-balanceOf}."
      },
      "decimals()": {
        "details": "Returns the number of decimals used to get its user representation. For example, if `decimals` equals `2`, a balance of `505` tokens should be displayed to a user as `5,05` (`505 / 10 ** 2`). Tokens usually opt for a value of 18, imitating the relationship between Ether and Wei. This is the value {ERC20} uses, unless this function is overridden; NOTE: This information is only used for _display_ purposes: it in no way affects any of the arithmetic of the contract, including {IERC20-balanceOf} and {IERC20-transfer}."
      },
      "decreaseAllowance(address,uint256)": {
        "details": "Atomically decreases the allowance granted to `spender` by the caller. This is an alternative to {approve} that can be used as a mitigation for problems described in {IERC20-approve}. Emits an {Approval} event indicating the updated allowance. Requirements: - `spender` cannot be the zero address. - `spender` must have allowance for the caller of at least `subtractedValue`."
      },
      "increaseAllowance(address,uint256)": {
        "details": "Atomically increases the allowance granted to `spender` by the caller. This is an alternative to {approve} that can be used as a mitigation for problems described in {IERC20-approve}. Emits an {Approval} event indicating the updated allowance. Requirements: - `spender` cannot be the zero address."
      },
      "name()": {
        "details": "Returns the name of the token."
      },
      "symbol()": {
        "details": "Returns the symbol of the token, usually a shorter version of the name."
      },
      "totalSupply()": {
        "details": "See {IERC20-totalSupply}."
      },
      "transfer(address,uint256)": {
        "details": "See {IERC20-transfer}. Requirements: - `recipient` cannot be the zero address. - the caller must have a balance of at least `amount`."
      },
      "transferFrom(address,address,uint256)": {
        "details": "See {IERC20-transferFrom}. Emits an {Approval} event indicating the updated allowance. This is not required by the EIP. See the note at the beginning of {ERC20}. Requirements: - `sender` and `recipient` cannot be the zero address. - `sender` must have a balance of at least `amount`. - the caller must have allowance for ``sender``'s tokens of at least `amount`."
      }
    },
    "version": 1
  },
  "userdoc": {
    "kind": "user",
    "methods": {},
    "version": 1
  }
}