{
  "contractName": "Song",
  "abi": [
    {
      "inputs": [
        {
          "internalType": "address",
          "name": "fundsManagerAddress",
          "type": "address"
        },
        {
          "internalType": "address",
          "name": "governanceAddress",
          "type": "address"
        },
        {
          "internalType": "address",
          "name": "bopTokenAddress",
          "type": "address"
        },
        {
          "internalType": "address",
          "name": "traxTokenAddress",
          "type": "address"
        }
      ],
      "stateMutability": "nonpayable",
      "type": "constructor"
    },
    {
      "anonymous": false,
      "inputs": [
        {
          "indexed": true,
          "internalType": "uint64",
          "name": "parentId1",
          "type": "uint64"
        },
        {
          "indexed": true,
          "internalType": "uint64",
          "name": "parentId2",
          "type": "uint64"
        }
      ],
      "name": "SpawnedChildBop",
      "type": "event"
    },
    {
      "inputs": [],
      "name": "genre",
      "outputs": [
        {
          "internalType": "string",
          "name": "",
          "type": "string"
        }
      ],
      "stateMutability": "view",
      "type": "function",
      "constant": true
    },
    {
      "inputs": [],
      "name": "id",
      "outputs": [
        {
          "internalType": "uint256",
          "name": "",
          "type": "uint256"
        }
      ],
      "stateMutability": "view",
      "type": "function",
      "constant": true
    },
    {
      "inputs": [
        {
          "internalType": "uint256",
          "name": "_songId",
          "type": "uint256"
        },
        {
          "internalType": "string",
          "name": "_genre",
          "type": "string"
        },
        {
          "internalType": "address",
          "name": "songsManagerAddress",
          "type": "address"
        }
      ],
      "name": "initialize",
      "outputs": [],
      "stateMutability": "nonpayable",
      "type": "function"
    },
    {
      "inputs": [
        {
          "internalType": "address",
          "name": "_token",
          "type": "address"
        },
        {
          "internalType": "uint256",
          "name": "_stablecoinAmount",
          "type": "uint256"
        },
        {
          "internalType": "uint256",
          "name": "_beatsBurnt",
          "type": "uint256"
        }
      ],
      "name": "spawnBop",
      "outputs": [],
      "stateMutability": "nonpayable",
      "type": "function"
    },
    {
      "inputs": [
        {
          "internalType": "address",
          "name": "_token",
          "type": "address"
        },
        {
          "internalType": "uint64",
          "name": "_parentId1",
          "type": "uint64"
        },
        {
          "internalType": "uint64",
          "name": "_parentId2",
          "type": "uint64"
        },
        {
          "internalType": "uint256",
          "name": "_stablecoinAmount",
          "type": "uint256"
        },
        {
          "internalType": "uint256",
          "name": "_beatsBurnt",
          "type": "uint256"
        }
      ],
      "name": "spawnChildBop",
      "outputs": [],
      "stateMutability": "nonpayable",
      "type": "function"
    },
    {
      "inputs": [
        {
          "internalType": "uint256",
          "name": "_bopId",
          "type": "uint256"
        }
      ],
      "name": "unravelBop",
      "outputs": [],
      "stateMutability": "nonpayable",
      "type": "function"
    },
    {
      "inputs": [
        {
          "internalType": "uint256",
          "name": "_bopId",
          "type": "uint256"
        },
        {
          "internalType": "uint256",
          "name": "_amountOfBeats",
          "type": "uint256"
        }
      ],
      "name": "breedBop",
      "outputs": [],
      "stateMutability": "nonpayable",
      "type": "function"
    },
    {
      "inputs": [
        {
          "internalType": "uint256",
          "name": "_bopId",
          "type": "uint256"
        }
      ],
      "name": "withdrawBeatsFrom",
      "outputs": [],
      "stateMutability": "nonpayable",
      "type": "function"
    },
    {
      "inputs": [
        {
          "internalType": "uint256",
          "name": "_bopId",
          "type": "uint256"
        }
      ],
      "name": "updateLevel",
      "outputs": [],
      "stateMutability": "nonpayable",
      "type": "function"
    },
    {
      "inputs": [
        {
          "internalType": "uint256",
          "name": "_bopId",
          "type": "uint256"
        }
      ],
      "name": "getBopYield",
      "outputs": [],
      "stateMutability": "nonpayable",
      "type": "function"
    }
  ],
  "bytecode": "0x6101006040523480156200001257600080fd5b5060405162002b8d38038062002b8d833981810160405281019062000038919062000135565b8373ffffffffffffffffffffffffffffffffffffffff1660808173ffffffffffffffffffffffffffffffffffffffff1660601b815250508273ffffffffffffffffffffffffffffffffffffffff1660a08173ffffffffffffffffffffffffffffffffffffffff1660601b815250508173ffffffffffffffffffffffffffffffffffffffff1660c08173ffffffffffffffffffffffffffffffffffffffff1660601b815250508073ffffffffffffffffffffffffffffffffffffffff1660e08173ffffffffffffffffffffffffffffffffffffffff1660601b8152505050505050620001fa565b6000815190506200012f81620001e0565b92915050565b60008060008060808587031215620001525762000151620001db565b5b600062000162878288016200011e565b945050602062000175878288016200011e565b935050604062000188878288016200011e565b92505060606200019b878288016200011e565b91505092959194509250565b6000620001b482620001bb565b9050919050565b600073ffffffffffffffffffffffffffffffffffffffff82169050919050565b600080fd5b620001eb81620001a7565b8114620001f757600080fd5b50565b60805160601c60a05160601c60c05160601c60e05160601c6128e4620002a960003960008181610ae4015261127001526000818161038c015281816104a7015281816107a101528181610d4c01528181610dfe0152818161100a01526114d80152600081816105590152610f1901526000818161082c015281816108b901528181610b2101528181610bd401528181610cb3015281816112ad01528181611360015261143f01526128e46000f3fe608060405234801561001057600080fd5b506004361061009e5760003560e01c80638e70001e116100665780638e70001e1461013157806392e0150b1461014d578063972ec97a14610169578063af640d0f14610185578063de03472b146101a35761009e565b806317de3a41146100a35780631d9a9ea2146100c15780633dc3790c146100dd57806371ea57ef146100f9578063721df74614610115575b600080fd5b6100ab6101bf565b6040516100b891906120a5565b60405180910390f35b6100db60048036038101906100d69190611bd0565b61024d565b005b6100f760048036038101906100f29190611b76565b610384565b005b610113600480360381019061010e9190611b76565b610387565b005b61012f600480360381019061012a9190611a32565b610957565b005b61014b60048036038101906101469190611c44565b610df9565b005b61016760048036038101906101629190611b76565b61109d565b005b610183600480360381019061017e9190611a85565b6110a0565b005b61018d6115c8565b60405161019a9190612187565b60405180910390f35b6101bd60048036038101906101b89190611b76565b6115ce565b005b600280546101cc906125a3565b80601f01602080910402602001604051908101604052809291908181526020018280546101f8906125a3565b80156102455780601f1061021a57610100808354040283529160200191610245565b820191906000526020600020905b81548152906001019060200180831161022857829003601f168201915b505050505081565b600060019054906101000a900460ff1680610273575060008054906101000a900460ff16155b6102b2576040517f08c379a00000000000000000000000000000000000000000000000000000000081526004016102a990612127565b60405180910390fd5b60008060019054906101000a900460ff161590508015610302576001600060016101000a81548160ff02191690831515021790555060016000806101000a81548160ff0219169083151502179055505b8460018190555083836002919061031a9291906115d1565b5081600060026101000a81548173ffffffffffffffffffffffffffffffffffffffff021916908373ffffffffffffffffffffffffffffffffffffffff160217905550801561037d5760008060016101000a81548160ff0219169083151502179055505b5050505050565b50565b8060007f000000000000000000000000000000000000000000000000000000000000000073ffffffffffffffffffffffffffffffffffffffff16636352211e836040518263ffffffff1660e01b81526004016103e39190612187565b60206040518083038186803b1580156103fb57600080fd5b505afa15801561040f573d6000803e3d6000fd5b505050506040513d601f19601f820116820180604052508101906104339190611a05565b90503373ffffffffffffffffffffffffffffffffffffffff168173ffffffffffffffffffffffffffffffffffffffff16146104a3576040517f08c379a000000000000000000000000000000000000000000000000000000000815260040161049a906120c7565b60405180910390fd5b60007f000000000000000000000000000000000000000000000000000000000000000073ffffffffffffffffffffffffffffffffffffffff16631bf474b7856040518263ffffffff1660e01b81526004016104fe9190612187565b60006040518083038186803b15801561051657600080fd5b505afa15801561052a573d6000803e3d6000fd5b505050506040513d6000823e3d601f19601f820116820180604052508101906105539190611b2d565b905060007f0000000000000000000000000000000000000000000000000000000000000000905060008173ffffffffffffffffffffffffffffffffffffffff1663ccf288c66040518163ffffffff1660e01b815260040160206040518083038186803b1580156105c257600080fd5b505afa1580156105d6573d6000803e3d6000fd5b505050506040513d601f19601f820116820180604052508101906105fa9190611cde565b60ff16905060008273ffffffffffffffffffffffffffffffffffffffff166318622bdc6040518163ffffffff1660e01b815260040160206040518083038186803b15801561064757600080fd5b505afa15801561065b573d6000803e3d6000fd5b505050506040513d601f19601f8201168201806040525081019061067f9190611c84565b63ffffffff16905060008373ffffffffffffffffffffffffffffffffffffffff1663c65617736040518163ffffffff1660e01b815260040160206040518083038186803b1580156106cf57600080fd5b505afa1580156106e3573d6000803e3d6000fd5b505050506040513d601f19601f820116820180604052508101906107079190611c84565b63ffffffff169050600083600a61071e9190612339565b606461072a9190612457565b8387610160015161073b9190612457565b61074591906122b5565b86610160015161075591906124b1565b9050600084600a6107669190612339565b60646107729190612457565b838861018001516107839190612457565b61078d91906122b5565b87610180015161079d91906124b1565b90507f000000000000000000000000000000000000000000000000000000000000000073ffffffffffffffffffffffffffffffffffffffff166342966c688b6040518263ffffffff1660e01b81526004016107f89190612187565b600060405180830381600087803b15801561081257600080fd5b505af1158015610826573d6000803e3d6000fd5b505050507f000000000000000000000000000000000000000000000000000000000000000073ffffffffffffffffffffffffffffffffffffffff1663a060ebdf33846040518363ffffffff1660e01b8152600401610885929190611f18565b600060405180830381600087803b15801561089f57600080fd5b505af11580156108b3573d6000803e3d6000fd5b505050507f000000000000000000000000000000000000000000000000000000000000000073ffffffffffffffffffffffffffffffffffffffff166338670f9233896101000151846040518463ffffffff1660e01b815260040161091993929190611ee1565b600060405180830381600087803b15801561093357600080fd5b505af1158015610947573d6000803e3d6000fd5b5050505050505050505050505050565b6000821161099a576040517f08c379a0000000000000000000000000000000000000000000000000000000008152600401610991906120e7565b60405180910390fd5b60008060029054906101000a900473ffffffffffffffffffffffffffffffffffffffff1673ffffffffffffffffffffffffffffffffffffffff1663f64276f26040518163ffffffff1660e01b815260040160206040518083038186803b158015610a0357600080fd5b505afa158015610a17573d6000803e3d6000fd5b505050506040513d601f19601f82011682018060405250810190610a3b9190611ba3565b905060008060029054906101000a900473ffffffffffffffffffffffffffffffffffffffff1673ffffffffffffffffffffffffffffffffffffffff166349366d266040518163ffffffff1660e01b815260040160206040518083038186803b158015610aa657600080fd5b505afa158015610aba573d6000803e3d6000fd5b505050506040513d601f19601f82011682018060405250810190610ade9190611ba3565b905060007f000000000000000000000000000000000000000000000000000000000000000073ffffffffffffffffffffffffffffffffffffffff166323b872dd337f0000000000000000000000000000000000000000000000000000000000000000866040518463ffffffff1660e01b8152600401610b5f93929190611ee1565b602060405180830381600087803b158015610b7957600080fd5b505af1158015610b8d573d6000803e3d6000fd5b505050506040513d601f19601f82011682018060405250810190610bb19190611b00565b905060008673ffffffffffffffffffffffffffffffffffffffff166323b872dd337f0000000000000000000000000000000000000000000000000000000000000000896040518463ffffffff1660e01b8152600401610c1293929190611ee1565b602060405180830381600087803b158015610c2c57600080fd5b505af1158015610c40573d6000803e3d6000fd5b505050506040513d601f19601f82011682018060405250810190610c649190611b00565b9050811580610c71575080155b15610cb1576040517f08c379a0000000000000000000000000000000000000000000000000000000008152600401610ca890612107565b60405180910390fd5b7f000000000000000000000000000000000000000000000000000000000000000073ffffffffffffffffffffffffffffffffffffffff16630558a1b28589896040518463ffffffff1660e01b8152600401610d0e939291906121a2565b600060405180830381600087803b158015610d2857600080fd5b505af1158015610d3c573d6000803e3d6000fd5b50505050600087905060008790507f000000000000000000000000000000000000000000000000000000000000000073ffffffffffffffffffffffffffffffffffffffff1663a15e7b3c3360015460008060028b8e8e8a60018d6040518c63ffffffff1660e01b8152600401610dbc9b9a99989796959493929190611f41565b600060405180830381600087803b158015610dd657600080fd5b505af1158015610dea573d6000803e3d6000fd5b50505050505050505050505050565b8160007f000000000000000000000000000000000000000000000000000000000000000073ffffffffffffffffffffffffffffffffffffffff16636352211e836040518263ffffffff1660e01b8152600401610e559190612187565b60206040518083038186803b158015610e6d57600080fd5b505afa158015610e81573d6000803e3d6000fd5b505050506040513d601f19601f82011682018060405250810190610ea59190611a05565b90503373ffffffffffffffffffffffffffffffffffffffff168173ffffffffffffffffffffffffffffffffffffffff1614610f15576040517f08c379a0000000000000000000000000000000000000000000000000000000008152600401610f0c906120c7565b60405180910390fd5b60007f0000000000000000000000000000000000000000000000000000000000000000905060008173ffffffffffffffffffffffffffffffffffffffff16632dcf21666040518163ffffffff1660e01b815260040160206040518083038186803b158015610f8257600080fd5b505afa158015610f96573d6000803e3d6000fd5b505050506040513d601f19601f82011682018060405250810190610fba9190611cb1565b67ffffffffffffffff169050808511611008576040517f08c379a0000000000000000000000000000000000000000000000000000000008152600401610fff90612147565b60405180910390fd5b7f000000000000000000000000000000000000000000000000000000000000000073ffffffffffffffffffffffffffffffffffffffff16638e70001e87876040518363ffffffff1660e01b81526004016110639291906121d9565b600060405180830381600087803b15801561107d57600080fd5b505af1158015611091573d6000803e3d6000fd5b50505050505050505050565b50565b600082116110e3576040517f08c379a00000000000000000000000000000000000000000000000000000000081526004016110da906120e7565b60405180910390fd5b60008111611126576040517f08c379a000000000000000000000000000000000000000000000000000000000815260040161111d90612167565b60405180910390fd5b60008060029054906101000a900473ffffffffffffffffffffffffffffffffffffffff1673ffffffffffffffffffffffffffffffffffffffff1663f64276f26040518163ffffffff1660e01b815260040160206040518083038186803b15801561118f57600080fd5b505afa1580156111a3573d6000803e3d6000fd5b505050506040513d601f19601f820116820180604052508101906111c79190611ba3565b905060008060029054906101000a900473ffffffffffffffffffffffffffffffffffffffff1673ffffffffffffffffffffffffffffffffffffffff166349366d266040518163ffffffff1660e01b815260040160206040518083038186803b15801561123257600080fd5b505afa158015611246573d6000803e3d6000fd5b505050506040513d601f19601f8201168201806040525081019061126a9190611ba3565b905060007f000000000000000000000000000000000000000000000000000000000000000073ffffffffffffffffffffffffffffffffffffffff166323b872dd337f0000000000000000000000000000000000000000000000000000000000000000866040518463ffffffff1660e01b81526004016112eb93929190611ee1565b602060405180830381600087803b15801561130557600080fd5b505af1158015611319573d6000803e3d6000fd5b505050506040513d601f19601f8201168201806040525081019061133d9190611b00565b905060008873ffffffffffffffffffffffffffffffffffffffff166323b872dd337f0000000000000000000000000000000000000000000000000000000000000000896040518463ffffffff1660e01b815260040161139e93929190611ee1565b602060405180830381600087803b1580156113b857600080fd5b505af11580156113cc573d6000803e3d6000fd5b505050506040513d601f19601f820116820180604052508101906113f09190611b00565b90508115806113fd575080155b1561143d576040517f08c379a000000000000000000000000000000000000000000000000000000000815260040161143490612107565b60405180910390fd5b7f000000000000000000000000000000000000000000000000000000000000000073ffffffffffffffffffffffffffffffffffffffff16630558a1b2858b896040518463ffffffff1660e01b815260040161149a939291906121a2565b600060405180830381600087803b1580156114b457600080fd5b505af11580156114c8573d6000803e3d6000fd5b50505050600089905060008790507f000000000000000000000000000000000000000000000000000000000000000073ffffffffffffffffffffffffffffffffffffffff1663a15e7b3c336001548d8d60028b8e8e8a60018d6040518c63ffffffff1660e01b81526004016115479b9a99989796959493929190611ff3565b600060405180830381600087803b15801561156157600080fd5b505af1158015611575573d6000803e3d6000fd5b505050508867ffffffffffffffff168a67ffffffffffffffff167fc7af5d5d30a368cad88f3791c1ed854cc152c9d8a7b817380ace80a8b132d0f160405160405180910390a35050505050505050505050565b60015481565b50565b8280546115dd906125a3565b90600052602060002090601f0160209004810192826115ff5760008555611646565b82601f1061161857803560ff1916838001178555611646565b82800160010185558215611646579182015b8281111561164557823582559160200191906001019061162a565b5b5090506116539190611657565b5090565b5b80821115611670576000816000905550600101611658565b5090565b600061168761168284612227565b612202565b905080838252602082019050828560208602820111156116aa576116a96126d6565b5b60005b858110156116da57816116c088826119db565b8452602084019350602083019250506001810190506116ad565b5050509392505050565b60006116f76116f284612253565b612202565b905082815260208101848484011115611713576117126126db565b5b61171e848285612570565b509392505050565b60008135905061173581612824565b92915050565b60008151905061174a81612824565b92915050565b600082601f830112611765576117646126c7565b5b8151611775848260208601611674565b91505092915050565b60008151905061178d8161283b565b92915050565b60008083601f8401126117a9576117a86126c7565b5b8235905067ffffffffffffffff8111156117c6576117c56126c2565b5b6020830191508360018202830111156117e2576117e16126d6565b5b9250929050565b600082601f8301126117fe576117fd6126c7565b5b815161180e8482602086016116e4565b91505092915050565b60006101a0828403121561182e5761182d6126cc565b5b6118396101a0612202565b905060006118498482850161199c565b600083015250602061185d8482850161199c565b60208301525060406118718482850161199c565b60408301525060606118858482850161199c565b606083015250608082015167ffffffffffffffff8111156118a9576118a86126d1565b5b6118b584828501611750565b60808301525060a06118c9848285016119db565b60a08301525060c06118dd848285016119db565b60c08301525060e06118f18482850161177e565b60e0830152506101006119068482850161173b565b6101008301525061012082015167ffffffffffffffff81111561192c5761192b6126d1565b5b611938848285016117e9565b6101208301525061014061194e8482850161199c565b610140830152506101606119648482850161199c565b6101608301525061018061197a8482850161199c565b6101808301525092915050565b60008135905061199681612852565b92915050565b6000815190506119ab81612852565b92915050565b6000815190506119c081612869565b92915050565b6000813590506119d581612880565b92915050565b6000815190506119ea81612880565b92915050565b6000815190506119ff81612897565b92915050565b600060208284031215611a1b57611a1a6126e5565b5b6000611a298482850161173b565b91505092915050565b600080600060608486031215611a4b57611a4a6126e5565b5b6000611a5986828701611726565b9350506020611a6a86828701611987565b9250506040611a7b86828701611987565b9150509250925092565b600080600080600060a08688031215611aa157611aa06126e5565b5b6000611aaf88828901611726565b9550506020611ac0888289016119c6565b9450506040611ad1888289016119c6565b9350506060611ae288828901611987565b9250506080611af388828901611987565b9150509295509295909350565b600060208284031215611b1657611b156126e5565b5b6000611b248482850161177e565b91505092915050565b600060208284031215611b4357611b426126e5565b5b600082015167ffffffffffffffff811115611b6157611b606126e0565b5b611b6d84828501611817565b91505092915050565b600060208284031215611b8c57611b8b6126e5565b5b6000611b9a84828501611987565b91505092915050565b600060208284031215611bb957611bb86126e5565b5b6000611bc78482850161199c565b91505092915050565b60008060008060608587031215611bea57611be96126e5565b5b6000611bf887828801611987565b945050602085013567ffffffffffffffff811115611c1957611c186126e0565b5b611c2587828801611793565b93509350506040611c3887828801611726565b91505092959194509250565b60008060408385031215611c5b57611c5a6126e5565b5b6000611c6985828601611987565b9250506020611c7a85828601611987565b9150509250929050565b600060208284031215611c9a57611c996126e5565b5b6000611ca8848285016119b1565b91505092915050565b600060208284031215611cc757611cc66126e5565b5b6000611cd5848285016119db565b91505092915050565b600060208284031215611cf457611cf36126e5565b5b6000611d02848285016119f0565b91505092915050565b611d14816124e5565b82525050565b611d23816124f7565b82525050565b611d328161255e565b82525050565b6000611d4382612299565b611d4d81856122a4565b9350611d5d818560208601612570565b611d66816126ea565b840191505092915050565b60008154611d7e816125a3565b611d8881866122a4565b94506001821660008114611da35760018114611db557611de8565b60ff1983168652602086019350611de8565b611dbe85612284565b60005b83811015611de057815481890152600182019150602081019050611dc1565b808801955050505b50505092915050565b6000611dfe600d836122a4565b9150611e0982612708565b602082019050919050565b6000611e21600e836122a4565b9150611e2c82612731565b602082019050919050565b6000611e446010836122a4565b9150611e4f8261275a565b602082019050919050565b6000611e67602e836122a4565b9150611e7282612783565b604082019050919050565b6000611e8a601c836122a4565b9150611e95826127d2565b602082019050919050565b6000611ead600d836122a4565b9150611eb8826127fb565b602082019050919050565b611ecc81612523565b82525050565b611edb8161253d565b82525050565b6000606082019050611ef66000830186611d0b565b611f036020830185611d0b565b611f106040830184611ec3565b949350505050565b6000604082019050611f2d6000830185611d0b565b611f3a6020830184611ec3565b9392505050565b600061016082019050611f57600083018e611d0b565b611f64602083018d611ec3565b611f71604083018c611d29565b611f7e606083018b611d29565b8181036080830152611f90818a611d71565b9050611f9f60a0830189611ec3565b611fac60c0830188611ec3565b611fb960e0830187611ec3565b611fc7610100830186611ec3565b611fd5610120830185611d1a565b611fe3610140830184611d0b565b9c9b505050505050505050505050565b600061016082019050612009600083018e611d0b565b612016602083018d611ec3565b612023604083018c611ed2565b612030606083018b611ed2565b8181036080830152612042818a611d71565b905061205160a0830189611ec3565b61205e60c0830188611ec3565b61206b60e0830187611ec3565b612079610100830186611ec3565b612087610120830185611d1a565b612095610140830184611d0b565b9c9b505050505050505050505050565b600060208201905081810360008301526120bf8184611d38565b905092915050565b600060208201905081810360008301526120e081611df1565b9050919050565b6000602082019050818103600083015261210081611e14565b9050919050565b6000602082019050818103600083015261212081611e37565b9050919050565b6000602082019050818103600083015261214081611e5a565b9050919050565b6000602082019050818103600083015261216081611e7d565b9050919050565b6000602082019050818103600083015261218081611ea0565b9050919050565b600060208201905061219c6000830184611ec3565b92915050565b60006060820190506121b76000830186611ec3565b6121c46020830185611d0b565b6121d16040830184611ec3565b949350505050565b60006040820190506121ee6000830185611ec3565b6121fb6020830184611ec3565b9392505050565b600061220c61221d565b905061221882826125d5565b919050565b6000604051905090565b600067ffffffffffffffff82111561224257612241612693565b5b602082029050602081019050919050565b600067ffffffffffffffff82111561226e5761226d612693565b5b612277826126ea565b9050602081019050919050565b60008190508160005260206000209050919050565b600081519050919050565b600082825260208201905092915050565b60006122c082612523565b91506122cb83612523565b9250826122db576122da612635565b5b828204905092915050565b6000808291508390505b60018511156123305780860481111561230c5761230b612606565b5b600185161561231b5780820291505b8081029050612329856126fb565b94506122f0565b94509492505050565b600061234482612523565b915061234f83612523565b925061237c7fffffffffffffffffffffffffffffffffffffffffffffffffffffffffffffffff8484612384565b905092915050565b6000826123945760019050612450565b816123a25760009050612450565b81600181146123b857600281146123c2576123f1565b6001915050612450565b60ff8411156123d4576123d3612606565b5b8360020a9150848211156123eb576123ea612606565b5b50612450565b5060208310610133831016604e8410600b84101617156124265782820a90508381111561242157612420612606565b5b612450565b61243384848460016122e6565b9250905081840481111561244a57612449612606565b5b81810290505b9392505050565b600061246282612523565b915061246d83612523565b9250817fffffffffffffffffffffffffffffffffffffffffffffffffffffffffffffffff04831182151516156124a6576124a5612606565b5b828202905092915050565b60006124bc82612523565b91506124c783612523565b9250828210156124da576124d9612606565b5b828203905092915050565b60006124f082612503565b9050919050565b60008115159050919050565b600073ffffffffffffffffffffffffffffffffffffffff82169050919050565b6000819050919050565b600063ffffffff82169050919050565b600067ffffffffffffffff82169050919050565b600060ff82169050919050565b60006125698261253d565b9050919050565b60005b8381101561258e578082015181840152602081019050612573565b8381111561259d576000848401525b50505050565b600060028204905060018216806125bb57607f821691505b602082108114156125cf576125ce612664565b5b50919050565b6125de826126ea565b810181811067ffffffffffffffff821117156125fd576125fc612693565b5b80604052505050565b7f4e487b7100000000000000000000000000000000000000000000000000000000600052601160045260246000fd5b7f4e487b7100000000000000000000000000000000000000000000000000000000600052601260045260246000fd5b7f4e487b7100000000000000000000000000000000000000000000000000000000600052602260045260246000fd5b7f4e487b7100000000000000000000000000000000000000000000000000000000600052604160045260246000fd5b600080fd5b600080fd5b600080fd5b600080fd5b600080fd5b600080fd5b600080fd5b600080fd5b6000601f19601f8301169050919050565b60008160011c9050919050565b7f496e76616c6964206f776e657200000000000000000000000000000000000000600082015250565b7f496e76616c696420616d6f756e74000000000000000000000000000000000000600082015250565b7f4661696c20746f207472616e7366657200000000000000000000000000000000600082015250565b7f496e697469616c697a61626c653a20636f6e747261637420697320616c72656160008201527f647920696e697469616c697a6564000000000000000000000000000000000000602082015250565b7f4e6f20656e6f75676820626561747320666f72206272656564696e6700000000600082015250565b7f496e76616c696420626561747300000000000000000000000000000000000000600082015250565b61282d816124e5565b811461283857600080fd5b50565b612844816124f7565b811461284f57600080fd5b50565b61285b81612523565b811461286657600080fd5b50565b6128728161252d565b811461287d57600080fd5b50565b6128898161253d565b811461289457600080fd5b50565b6128a081612551565b81146128ab57600080fd5b5056fea26469706673582212205c0a26a7a9265b43dc0be8d92914ac8a98cfe26a086fe46bb8e3f111c4b2262e64736f6c63430008060033",
  "immutableReferences": {
    "7334": [
      {
        "length": 32,
        "start": 2092
      },
      {
        "length": 32,
        "start": 2233
      },
      {
        "length": 32,
        "start": 2849
      },
      {
        "length": 32,
        "start": 3028
      },
      {
        "length": 32,
        "start": 3251
      },
      {
        "length": 32,
        "start": 4781
      },
      {
        "length": 32,
        "start": 4960
      },
      {
        "length": 32,
        "start": 5183
      }
    ],
    "7336": [
      {
        "length": 32,
        "start": 1369
      },
      {
        "length": 32,
        "start": 3865
      }
    ],
    "7338": [
      {
        "length": 32,
        "start": 908
      },
      {
        "length": 32,
        "start": 1191
      },
      {
        "length": 32,
        "start": 1953
      },
      {
        "length": 32,
        "start": 3404
      },
      {
        "length": 32,
        "start": 3582
      },
      {
        "length": 32,
        "start": 4106
      },
      {
        "length": 32,
        "start": 5336
      }
    ],
    "7340": [
      {
        "length": 32,
        "start": 2788
      },
      {
        "length": 32,
        "start": 4720
      }
    ]
  },
  "source": "// SPDX-License-Identifier: MIT\npragma solidity ^0.8.0;\n\nimport \"@openzeppelin/contracts/proxy/utils/Initializable.sol\";\nimport \"@openzeppelin/contracts/token/ERC20/IERC20.sol\";\nimport \"../FundsManager.sol\";\nimport \"../bops/BopLevelsHandler.sol\";\nimport \"../bops/BopToken.sol\";\nimport \"../Governance.sol\";\n\n/**\n * @title song contract implementation for minimal proxy multiple deployments\n * @author Eric Nordelo\n */\ncontract Song is Initializable {\n    address private immutable _fundsManagerAddress;\n    address private immutable _governanceAddress;\n    address private immutable _bopTokenAddress;\n    address private immutable _traxTokenAddress;\n\n    address private _songsManagerAddress;\n\n    uint256 public id;\n    string public genre;\n\n    event SpawnedChildBop(uint64 indexed parentId1, uint64 indexed parentId2);\n    modifier onlyBopOwner(uint256 _bopId) {\n        address owner = BopToken(_bopTokenAddress).ownerOf(_bopId);\n        require(owner == msg.sender, \"Invalid owner\");\n        _;\n    }\n\n    constructor(\n        address fundsManagerAddress,\n        address governanceAddress,\n        address bopTokenAddress,\n        address traxTokenAddress\n    ) {\n        _fundsManagerAddress = fundsManagerAddress;\n        _governanceAddress = governanceAddress;\n        _bopTokenAddress = bopTokenAddress;\n        _traxTokenAddress = traxTokenAddress;\n    }\n\n    /**\n     * @notice initializes the minimal proxy clone\n     */\n    function initialize(\n        uint256 _songId,\n        string calldata _genre,\n        address songsManagerAddress\n    ) external initializer {\n        id = _songId;\n        genre = _genre;\n        _songsManagerAddress = songsManagerAddress;\n    }\n\n    /**\n     * @notice allows stake coins to receive a bop (trax and stablecoin staking)\n     * @param _token the stablecoin token id\n     * @param _stablecoinAmount the amount of stablecoin token to stake\n     */\n    function spawnBop(\n        address _token,\n        uint256 _stablecoinAmount,\n        uint256 _beatsBurnt\n    ) external {\n        require(_stablecoinAmount > 0, \"Invalid amount\");\n\n        // configured params in levels handler\n        uint256 amountInTrax = BopLevelsHandler(_songsManagerAddress).traxToCreateBop();\n        uint256 level = BopLevelsHandler(_songsManagerAddress).startingLevel();\n\n        bool successTraxTransfer = IERC20(_traxTokenAddress).transferFrom(\n            msg.sender,\n            _fundsManagerAddress,\n            amountInTrax\n        );\n        bool successTokenTransfer = IERC20(_token).transferFrom(\n            msg.sender,\n            _fundsManagerAddress,\n            _stablecoinAmount\n        );\n\n        if (!successTraxTransfer || !successTokenTransfer) {\n            revert(\"Fail to transfer\");\n        }\n\n        // check for the token whitelisting and update the balances in the funds manager\n        FundsManager(_fundsManagerAddress).updateSongStaking(amountInTrax, _token, _stablecoinAmount);\n\n       address token = _token;\n       uint256 stablecoinAmount = _stablecoinAmount;\n\n        //  mint the Bop\n        BopToken(_bopTokenAddress).mint(\n            msg.sender,\n            id,\n            0,\n            0,\n            genre,\n            level,\n            _beatsBurnt,\n            amountInTrax,\n            stablecoinAmount,\n            true,\n            token\n        );\n    }\n\n    /**\n     * @notice allows stake coins to receive a bop (trax and stablecoin staking)\n     * @param _token the stablecoin token id\n     * @param _stablecoinAmount the amount of stablecoin token to stake\n     */\n    function spawnChildBop(\n        address _token,\n        uint64 _parentId1,\n        uint64 _parentId2,\n        uint256 _stablecoinAmount,\n        uint256 _beatsBurnt\n    ) external {\n        require(_stablecoinAmount > 0, \"Invalid amount\");\n        require(_beatsBurnt > 0, \"Invalid beats\");\n\n        // configured params in levels handler\n        uint256 amountInTrax = BopLevelsHandler(_songsManagerAddress).traxToCreateBop();\n        uint256 level = BopLevelsHandler(_songsManagerAddress).startingLevel();\n\n        bool successTraxTransfer = IERC20(_traxTokenAddress).transferFrom(\n            msg.sender,\n            _fundsManagerAddress,\n            amountInTrax\n        );\n        bool successTokenTransfer = IERC20(_token).transferFrom(msg.sender, _fundsManagerAddress, _stablecoinAmount);\n\n        if (!successTraxTransfer || !successTokenTransfer) {\n            revert(\"Fail to transfer\");\n        }\n\n        // check for the token whitelisting and update the balances in the funds manager\n        FundsManager(_fundsManagerAddress).updateSongStaking(amountInTrax, _token, _stablecoinAmount);\n\n        address token = _token;\n        uint256 stablecoinAmount = _stablecoinAmount;\n\n        // mint the Bop\n        BopToken(_bopTokenAddress).mint(\n            msg.sender,\n            id,\n            _parentId1,\n            _parentId2,\n            genre,\n            level,\n            _beatsBurnt,\n            amountInTrax,\n            stablecoinAmount,\n            true,\n            token\n        );\n\n        emit SpawnedChildBop(_parentId1, _parentId2);\n    }\n\n    /**\n     * @notice allows the unraveling of a bop NFT\n     * @param _bopId the token id\n     */\n    function unravelBop(uint256 _bopId) external onlyBopOwner(_bopId) {\n        // get the bop staked quantities from the BopToken contract\n        Bop memory bop = BopToken(_bopTokenAddress).getBop(_bopId);\n\n        // get fees from governance and calculate amounts to return\n        Governance governance = Governance(_governanceAddress);\n        uint256 feeDecimals = governance.FEE_DECIMALS();\n        uint256 traxFee = governance.traxUnravelFee();\n        uint256 stablecoinFee = governance.stablecoinUnravelFee();\n\n        uint256 traxToReturn = bop.traxStaked - (bop.traxStaked * traxFee) / (100 * 10**feeDecimals);\n        uint256 stablecoinToReturn = bop.stablecoinStaked -\n            (bop.stablecoinStaked * stablecoinFee) /\n            (100 * 10**feeDecimals);\n\n        // burn Bop token (first to avoid posible reentrancy)\n        BopToken(_bopTokenAddress).burn(_bopId);\n\n        // call the method to transfer values from the FundsManager contract\n        FundsManager(_fundsManagerAddress).transferTraxTo(msg.sender, traxToReturn);\n        FundsManager(_fundsManagerAddress).transferStablecoinTo(\n            msg.sender,\n            bop.stablecoinToken,\n            stablecoinToReturn\n        );\n    }\n\n    /**\n     * @notice allows breeding a bop with beats\n     * @param _bopId the token id\n     * @param _amountOfBeats the token id\n     */\n    function breedBop(uint256 _bopId, uint256 _amountOfBeats) external onlyBopOwner(_bopId) {\n        Governance governance = Governance(_governanceAddress);\n        uint256 beatsRequired = governance.breedMinBeats();\n\n        require(_amountOfBeats > beatsRequired, \"No enough beats for breeding\");\n\n        BopToken(_bopTokenAddress).breedBop(_bopId, _amountOfBeats);\n    }\n\n    /**\n     * @notice allows withdraw beats generated by a bop\n     * @param _bopId the token id\n     */\n    function withdrawBeatsFrom(uint256 _bopId) external {}\n\n    /**\n     * @notice allows to increase the level of a bop with enough beats\n     * @param _bopId the bop token id\n     */\n    function updateLevel(uint256 _bopId) external {}\n\n    /**\n     * @notice allows to withdraw the yield from a bop\n     * @param _bopId the bop token id\n     */\n    function getBopYield(uint256 _bopId) external {}\n}\n",
  "sourcePath": "/Users/angelsatorresalmenara/Desktop/privi-trax-smart-contracts/contracts/implementations/Song.sol",
  "compiler": {
    "name": "solc",
    "version": "0.8.6+commit.11564f7e.Emscripten.clang"
  },
  "schemaVersion": "3.4.2",
  "updatedAt": "2021-09-02T15:30:08.524Z",
  "networkType": "ethereum",
  "devdoc": {
    "author": "Eric Nordelo",
    "kind": "dev",
    "methods": {
      "breedBop(uint256,uint256)": {
        "params": {
          "_amountOfBeats": "the token id",
          "_bopId": "the token id"
        }
      },
      "getBopYield(uint256)": {
        "params": {
          "_bopId": "the bop token id"
        }
      },
      "spawnBop(address,uint256,uint256)": {
        "params": {
          "_stablecoinAmount": "the amount of stablecoin token to stake",
          "_token": "the stablecoin token id"
        }
      },
      "spawnChildBop(address,uint64,uint64,uint256,uint256)": {
        "params": {
          "_stablecoinAmount": "the amount of stablecoin token to stake",
          "_token": "the stablecoin token id"
        }
      },
      "unravelBop(uint256)": {
        "params": {
          "_bopId": "the token id"
        }
      },
      "updateLevel(uint256)": {
        "params": {
          "_bopId": "the bop token id"
        }
      },
      "withdrawBeatsFrom(uint256)": {
        "params": {
          "_bopId": "the token id"
        }
      }
    },
    "title": "song contract implementation for minimal proxy multiple deployments",
    "version": 1
  },
  "userdoc": {
    "kind": "user",
    "methods": {
      "breedBop(uint256,uint256)": {
        "notice": "allows breeding a bop with beats"
      },
      "getBopYield(uint256)": {
        "notice": "allows to withdraw the yield from a bop"
      },
      "initialize(uint256,string,address)": {
        "notice": "initializes the minimal proxy clone"
      },
      "spawnBop(address,uint256,uint256)": {
        "notice": "allows stake coins to receive a bop (trax and stablecoin staking)"
      },
      "spawnChildBop(address,uint64,uint64,uint256,uint256)": {
        "notice": "allows stake coins to receive a bop (trax and stablecoin staking)"
      },
      "unravelBop(uint256)": {
        "notice": "allows the unraveling of a bop NFT"
      },
      "updateLevel(uint256)": {
        "notice": "allows to increase the level of a bop with enough beats"
      },
      "withdrawBeatsFrom(uint256)": {
        "notice": "allows withdraw beats generated by a bop"
      }
    },
    "version": 1
  }
}