{
  "contractName": "SongsManager",
  "abi": [
    {
      "inputs": [
        {
          "components": [
            {
              "internalType": "uint256",
              "name": "beatsForNextLevel",
              "type": "uint256"
            }
          ],
          "internalType": "struct BopLevel[]",
          "name": "_levels",
          "type": "tuple[]"
        }
      ],
      "stateMutability": "nonpayable",
      "type": "constructor"
    },
    {
      "anonymous": false,
      "inputs": [
        {
          "indexed": true,
          "internalType": "uint256",
          "name": "songId",
          "type": "uint256"
        },
        {
          "indexed": false,
          "internalType": "address",
          "name": "song",
          "type": "address"
        },
        {
          "indexed": false,
          "internalType": "address",
          "name": "stakePool",
          "type": "address"
        },
        {
          "indexed": false,
          "internalType": "address",
          "name": "artistsPool",
          "type": "address"
        }
      ],
      "name": "RegisterSong",
      "type": "event"
    },
    {
      "anonymous": false,
      "inputs": [
        {
          "indexed": true,
          "internalType": "bytes32",
          "name": "role",
          "type": "bytes32"
        },
        {
          "indexed": true,
          "internalType": "bytes32",
          "name": "previousAdminRole",
          "type": "bytes32"
        },
        {
          "indexed": true,
          "internalType": "bytes32",
          "name": "newAdminRole",
          "type": "bytes32"
        }
      ],
      "name": "RoleAdminChanged",
      "type": "event"
    },
    {
      "anonymous": false,
      "inputs": [
        {
          "indexed": true,
          "internalType": "bytes32",
          "name": "role",
          "type": "bytes32"
        },
        {
          "indexed": true,
          "internalType": "address",
          "name": "account",
          "type": "address"
        },
        {
          "indexed": true,
          "internalType": "address",
          "name": "sender",
          "type": "address"
        }
      ],
      "name": "RoleGranted",
      "type": "event"
    },
    {
      "anonymous": false,
      "inputs": [
        {
          "indexed": true,
          "internalType": "bytes32",
          "name": "role",
          "type": "bytes32"
        },
        {
          "indexed": true,
          "internalType": "address",
          "name": "account",
          "type": "address"
        },
        {
          "indexed": true,
          "internalType": "address",
          "name": "sender",
          "type": "address"
        }
      ],
      "name": "RoleRevoked",
      "type": "event"
    },
    {
      "inputs": [],
      "name": "DEFAULT_ADMIN_ROLE",
      "outputs": [
        {
          "internalType": "bytes32",
          "name": "",
          "type": "bytes32"
        }
      ],
      "stateMutability": "view",
      "type": "function",
      "constant": true
    },
    {
      "inputs": [],
      "name": "OWNER",
      "outputs": [
        {
          "internalType": "bytes32",
          "name": "",
          "type": "bytes32"
        }
      ],
      "stateMutability": "view",
      "type": "function",
      "constant": true
    },
    {
      "inputs": [],
      "name": "SONG_CONTRACT",
      "outputs": [
        {
          "internalType": "bytes32",
          "name": "",
          "type": "bytes32"
        }
      ],
      "stateMutability": "view",
      "type": "function",
      "constant": true
    },
    {
      "inputs": [],
      "name": "VERIFIER",
      "outputs": [
        {
          "internalType": "bytes32",
          "name": "",
          "type": "bytes32"
        }
      ],
      "stateMutability": "view",
      "type": "function",
      "constant": true
    },
    {
      "inputs": [
        {
          "internalType": "uint256",
          "name": "_level",
          "type": "uint256"
        }
      ],
      "name": "getLevelInfo",
      "outputs": [
        {
          "components": [
            {
              "internalType": "uint256",
              "name": "beatsForNextLevel",
              "type": "uint256"
            }
          ],
          "internalType": "struct BopLevel",
          "name": "level",
          "type": "tuple"
        }
      ],
      "stateMutability": "view",
      "type": "function",
      "constant": true
    },
    {
      "inputs": [],
      "name": "getLevels",
      "outputs": [
        {
          "components": [
            {
              "internalType": "uint256",
              "name": "beatsForNextLevel",
              "type": "uint256"
            }
          ],
          "internalType": "struct BopLevel[]",
          "name": "levels",
          "type": "tuple[]"
        }
      ],
      "stateMutability": "view",
      "type": "function",
      "constant": true
    },
    {
      "inputs": [
        {
          "internalType": "bytes32",
          "name": "role",
          "type": "bytes32"
        }
      ],
      "name": "getRoleAdmin",
      "outputs": [
        {
          "internalType": "bytes32",
          "name": "",
          "type": "bytes32"
        }
      ],
      "stateMutability": "view",
      "type": "function",
      "constant": true
    },
    {
      "inputs": [
        {
          "internalType": "bytes32",
          "name": "role",
          "type": "bytes32"
        },
        {
          "internalType": "address",
          "name": "account",
          "type": "address"
        }
      ],
      "name": "grantRole",
      "outputs": [],
      "stateMutability": "nonpayable",
      "type": "function"
    },
    {
      "inputs": [
        {
          "internalType": "bytes32",
          "name": "role",
          "type": "bytes32"
        },
        {
          "internalType": "address",
          "name": "account",
          "type": "address"
        }
      ],
      "name": "hasRole",
      "outputs": [
        {
          "internalType": "bool",
          "name": "",
          "type": "bool"
        }
      ],
      "stateMutability": "view",
      "type": "function",
      "constant": true
    },
    {
      "inputs": [
        {
          "internalType": "uint256",
          "name": "",
          "type": "uint256"
        }
      ],
      "name": "registeredSongs",
      "outputs": [
        {
          "internalType": "address",
          "name": "addr",
          "type": "address"
        },
        {
          "internalType": "bool",
          "name": "verified",
          "type": "bool"
        },
        {
          "internalType": "string",
          "name": "cid",
          "type": "string"
        },
        {
          "components": [
            {
              "internalType": "address",
              "name": "stakePool",
              "type": "address"
            },
            {
              "internalType": "address",
              "name": "artistsPool",
              "type": "address"
            }
          ],
          "internalType": "struct SongContractAddresses",
          "name": "addresses",
          "type": "tuple"
        }
      ],
      "stateMutability": "view",
      "type": "function",
      "constant": true
    },
    {
      "inputs": [
        {
          "internalType": "bytes32",
          "name": "role",
          "type": "bytes32"
        },
        {
          "internalType": "address",
          "name": "account",
          "type": "address"
        }
      ],
      "name": "renounceRole",
      "outputs": [],
      "stateMutability": "nonpayable",
      "type": "function"
    },
    {
      "inputs": [
        {
          "internalType": "bytes32",
          "name": "role",
          "type": "bytes32"
        },
        {
          "internalType": "address",
          "name": "account",
          "type": "address"
        }
      ],
      "name": "revokeRole",
      "outputs": [],
      "stateMutability": "nonpayable",
      "type": "function"
    },
    {
      "inputs": [
        {
          "internalType": "uint256",
          "name": "_number",
          "type": "uint256"
        }
      ],
      "name": "setStartingLevel",
      "outputs": [],
      "stateMutability": "nonpayable",
      "type": "function"
    },
    {
      "inputs": [
        {
          "internalType": "uint256",
          "name": "_amount",
          "type": "uint256"
        }
      ],
      "name": "setTraxToCreateBop",
      "outputs": [],
      "stateMutability": "nonpayable",
      "type": "function"
    },
    {
      "inputs": [
        {
          "internalType": "bytes32",
          "name": "",
          "type": "bytes32"
        }
      ],
      "name": "songCIDtoId",
      "outputs": [
        {
          "internalType": "uint256",
          "name": "",
          "type": "uint256"
        }
      ],
      "stateMutability": "view",
      "type": "function",
      "constant": true
    },
    {
      "inputs": [],
      "name": "startingLevel",
      "outputs": [
        {
          "internalType": "uint256",
          "name": "",
          "type": "uint256"
        }
      ],
      "stateMutability": "view",
      "type": "function",
      "constant": true
    },
    {
      "inputs": [
        {
          "internalType": "bytes4",
          "name": "interfaceId",
          "type": "bytes4"
        }
      ],
      "name": "supportsInterface",
      "outputs": [
        {
          "internalType": "bool",
          "name": "",
          "type": "bool"
        }
      ],
      "stateMutability": "view",
      "type": "function",
      "constant": true
    },
    {
      "inputs": [],
      "name": "traxToCreateBop",
      "outputs": [
        {
          "internalType": "uint256",
          "name": "",
          "type": "uint256"
        }
      ],
      "stateMutability": "view",
      "type": "function",
      "constant": true
    },
    {
      "inputs": [
        {
          "internalType": "address",
          "name": "fundsManagerAddress",
          "type": "address"
        },
        {
          "internalType": "address",
          "name": "bopTokenAddress",
          "type": "address"
        },
        {
          "internalType": "address",
          "name": "songAddr",
          "type": "address"
        },
        {
          "internalType": "address",
          "name": "stakePoolAddr",
          "type": "address"
        },
        {
          "internalType": "address",
          "name": "artistsPoolAddr",
          "type": "address"
        }
      ],
      "name": "initialize",
      "outputs": [],
      "stateMutability": "nonpayable",
      "type": "function"
    },
    {
      "inputs": [
        {
          "internalType": "string",
          "name": "_cid",
          "type": "string"
        },
        {
          "internalType": "string",
          "name": "_genre",
          "type": "string"
        },
        {
          "internalType": "bytes32[]",
          "name": "_artists",
          "type": "bytes32[]"
        }
      ],
      "name": "registerSong",
      "outputs": [],
      "stateMutability": "nonpayable",
      "type": "function"
    },
    {
      "inputs": [
        {
          "internalType": "uint256",
          "name": "_songId",
          "type": "uint256"
        }
      ],
      "name": "verifySong",
      "outputs": [],
      "stateMutability": "nonpayable",
      "type": "function"
    },
    {
      "inputs": [
        {
          "internalType": "string",
          "name": "_cid",
          "type": "string"
        }
      ],
      "name": "isRegistered",
      "outputs": [
        {
          "internalType": "uint256",
          "name": "songId",
          "type": "uint256"
        }
      ],
      "stateMutability": "view",
      "type": "function",
      "constant": true
    },
    {
      "inputs": [
        {
          "internalType": "uint256",
          "name": "_songId",
          "type": "uint256"
        }
      ],
      "name": "isVerified",
      "outputs": [
        {
          "internalType": "bool",
          "name": "verified",
          "type": "bool"
        }
      ],
      "stateMutability": "view",
      "type": "function",
      "constant": true
    }
  ],
  "bytecode": "0x60806040526012600a620000149190620005f8565b600162000022919062000735565b60025560016003553480156200003757600080fd5b506040516200348b3803806200348b83398181016040528101906200005d919062000451565b806000815111620000a5576040517f08c379a00000000000000000000000000000000000000000000000000000000081526004016200009c90620004f0565b60405180910390fd5b60005b815181101562000180576000828281518110620000ca57620000c962000853565b5b6020026020010151600001511162000119576040517f08c379a0000000000000000000000000000000000000000000000000000000008152600401620001109062000512565b60405180910390fd5b600182828151811062000131576200013062000853565b5b60200260200101519080600181540180825580915050600190039060005260206000200160009091909190915060008201518160000155505080806200017790620007d6565b915050620000a8565b50620001966000801b33620001d060201b60201c565b620001c87f6270edb7c868f86fda4adedba75108201087268ea345934db8bad688e1feb91b33620001d060201b60201c565b505062000954565b620001e28282620001e660201b60201c565b5050565b620001f88282620002d760201b60201c565b620002d357600160008084815260200190815260200160002060000160008373ffffffffffffffffffffffffffffffffffffffff1673ffffffffffffffffffffffffffffffffffffffff16815260200190815260200160002060006101000a81548160ff021916908315150217905550620002786200034160201b60201c565b73ffffffffffffffffffffffffffffffffffffffff168173ffffffffffffffffffffffffffffffffffffffff16837f2f8788117e7eff1d82e926ec794901d17c78024a50270940304540a733656f0d60405160405180910390a45b5050565b600080600084815260200190815260200160002060000160008373ffffffffffffffffffffffffffffffffffffffff1673ffffffffffffffffffffffffffffffffffffffff16815260200190815260200160002060009054906101000a900460ff16905092915050565b600033905090565b6000620003606200035a846200055d565b62000534565b90508083825260208201905082856020860282011115620003865762000385620008bb565b5b60005b85811015620003ba57816200039f8882620003f7565b84526020840193506020830192505060018101905062000389565b5050509392505050565b600082601f830112620003dc57620003db620008b1565b5b8151620003ee84826020860162000349565b91505092915050565b60006020828403121562000410576200040f620008b6565b5b6200041c602062000534565b905060006200042e848285016200043a565b60008301525092915050565b6000815190506200044b816200093a565b92915050565b6000602082840312156200046a5762000469620008c5565b5b600082015167ffffffffffffffff8111156200048b576200048a620008c0565b5b6200049984828501620003c4565b91505092915050565b6000620004b1600f836200058c565b9150620004be82620008e8565b602082019050919050565b6000620004d8600e836200058c565b9150620004e58262000911565b602082019050919050565b600060208201905081810360008301526200050b81620004a2565b9050919050565b600060208201905081810360008301526200052d81620004c9565b9050919050565b60006200054062000553565b90506200054e8282620007a0565b919050565b6000604051905090565b600067ffffffffffffffff8211156200057b576200057a62000882565b5b602082029050602081019050919050565b600082825260208201905092915050565b6000808291508390505b6001851115620005ef57808604811115620005c757620005c662000824565b5b6001851615620005d75780820291505b8081029050620005e785620008db565b9450620005a7565b94509492505050565b6000620006058262000796565b9150620006128362000796565b9250620006417fffffffffffffffffffffffffffffffffffffffffffffffffffffffffffffffff848462000649565b905092915050565b6000826200065b57600190506200072e565b816200066b57600090506200072e565b81600181146200068457600281146200068f57620006c5565b60019150506200072e565b60ff841115620006a457620006a362000824565b5b8360020a915084821115620006be57620006bd62000824565b5b506200072e565b5060208310610133831016604e8410600b8410161715620006ff5782820a905083811115620006f957620006f862000824565b5b6200072e565b6200070e84848460016200059d565b9250905081840481111562000728576200072762000824565b5b81810290505b9392505050565b6000620007428262000796565b91506200074f8362000796565b9250817fffffffffffffffffffffffffffffffffffffffffffffffffffffffffffffffff04831182151516156200078b576200078a62000824565b5b828202905092915050565b6000819050919050565b620007ab82620008ca565b810181811067ffffffffffffffff82111715620007cd57620007cc62000882565b5b80604052505050565b6000620007e38262000796565b91507fffffffffffffffffffffffffffffffffffffffffffffffffffffffffffffffff82141562000819576200081862000824565b5b600182019050919050565b7f4e487b7100000000000000000000000000000000000000000000000000000000600052601160045260246000fd5b7f4e487b7100000000000000000000000000000000000000000000000000000000600052603260045260246000fd5b7f4e487b7100000000000000000000000000000000000000000000000000000000600052604160045260246000fd5b600080fd5b600080fd5b600080fd5b600080fd5b600080fd5b6000601f19601f8301169050919050565b60008160011c9050919050565b7f4e6f206c6576656c7320666f756e640000000000000000000000000000000000600082015250565b7f496e76616c6964206c6576656c73000000000000000000000000000000000000600082015250565b620009458162000796565b81146200095157600080fd5b50565b612b2780620009646000396000f3fe608060405234801561001057600080fd5b506004361061014d5760003560e01c806349366d26116100c357806399700bbd1161007c57806399700bbd146103c7578063a217fddf146103e3578063c822d7f014610401578063d547741f14610431578063e1aa9d0a1461044d578063f64276f2146104695761014d565b806349366d26146102f05780634ba263161461030e5780634fccda1c1461032c57806388c7ba33146103485780638e38cfc41461037b57806391d14854146103975761014d565b80631459457a116101155780631459457a1461020c578063248a9ca31461022857806325e3f648146102585780632f2ff15d1461028857806336568abe146102a457806337b6d96b146102c05761014d565b806301ffc9a714610152578063030101db1461018257806308c84e70146101b25780630c394a60146101d0578063117803e3146101ee575b600080fd5b61016c60048036038101906101679190611dce565b610487565b6040516101799190612372565b60405180910390f35b61019c60048036038101906101979190611efc565b610501565b6040516101a991906124f3565b60405180910390f35b6101ba6105a1565b6040516101c7919061238d565b60405180910390f35b6101d86105c5565b6040516101e59190612350565b60405180910390f35b6101f661062a565b604051610203919061238d565b60405180910390f35b61022660048036038101906102219190611ce6565b61064e565b005b610242600480360381019061023d9190611d61565b610876565b60405161024f919061238d565b60405180910390f35b610272600480360381019061026d9190611d61565b610895565b60405161027f919061250e565b60405180910390f35b6102a2600480360381019061029d9190611d8e565b6108ad565b005b6102be60048036038101906102b99190611d8e565b6108d6565b005b6102da60048036038101906102d59190611efc565b610959565b6040516102e79190612372565b60405180910390f35b6102f8610a2b565b604051610305919061250e565b60405180910390f35b610316610a31565b604051610323919061238d565b60405180910390f35b61034660048036038101906103419190611efc565b610a55565b005b610362600480360381019061035d9190611efc565b610b60565b6040516103729493929190612304565b60405180910390f35b61039560048036038101906103909190611e48565b610cfb565b005b6103b160048036038101906103ac9190611d8e565b6112cb565b6040516103be9190612372565b60405180910390f35b6103e160048036038101906103dc9190611efc565b611335565b005b6103eb6113c5565b6040516103f8919061238d565b60405180910390f35b61041b60048036038101906104169190611dfb565b6113cc565b604051610428919061250e565b60405180910390f35b61044b60048036038101906104469190611d8e565b611412565b005b61046760048036038101906104629190611efc565b61143b565b005b6104716114bb565b60405161047e919061250e565b60405180910390f35b60007f7965db0b000000000000000000000000000000000000000000000000000000007bffffffffffffffffffffffffffffffffffffffffffffffffffffffff1916827bffffffffffffffffffffffffffffffffffffffffffffffffffffffff191614806104fa57506104f9826114c1565b5b9050919050565b610509611ac6565b600082148061051c575060018054905082115b1561055c576040517f08c379a0000000000000000000000000000000000000000000000000000000008152600401610553906124b3565b60405180910390fd5b6001808361056a9190612679565b8154811061057b5761057a612827565b5b906000526020600020016040518060200160405290816000820154815250509050919050565b7fa48c898f5241be426b79d4b5a3c206f9c9a06576e1b72c338c3ec849771d568681565b60606001805480602002602001604051908101604052809291908181526020016000905b8282101561062157838290600052602060002001604051806020016040529081600082015481525050815260200190600101906105e9565b50505050905090565b7f6270edb7c868f86fda4adedba75108201087268ea345934db8bad688e1feb91b81565b600460019054906101000a900460ff16806106765750600460009054906101000a900460ff16155b6106b5576040517f08c379a00000000000000000000000000000000000000000000000000000000081526004016106ac90612493565b60405180910390fd5b6000600460019054906101000a900460ff161590508015610707576001600460016101000a81548160ff0219169083151502179055506001600460006101000a81548160ff0219169083151502179055505b85600c60006101000a81548173ffffffffffffffffffffffffffffffffffffffff021916908373ffffffffffffffffffffffffffffffffffffffff16021790555084600d60006101000a81548173ffffffffffffffffffffffffffffffffffffffff021916908373ffffffffffffffffffffffffffffffffffffffff16021790555083600960006101000a81548173ffffffffffffffffffffffffffffffffffffffff021916908373ffffffffffffffffffffffffffffffffffffffff16021790555082600a60006101000a81548173ffffffffffffffffffffffffffffffffffffffff021916908373ffffffffffffffffffffffffffffffffffffffff16021790555081600b60006101000a81548173ffffffffffffffffffffffffffffffffffffffff021916908373ffffffffffffffffffffffffffffffffffffffff160217905550801561086e576000600460016101000a81548160ff0219169083151502179055505b505050505050565b6000806000838152602001908152602001600020600101549050919050565b60086020528060005260406000206000915090505481565b6108b682610876565b6108c7816108c261152b565b611533565b6108d183836115d0565b505050565b6108de61152b565b73ffffffffffffffffffffffffffffffffffffffff168173ffffffffffffffffffffffffffffffffffffffff161461094b576040517f08c379a0000000000000000000000000000000000000000000000000000000008152600401610942906124d3565b60405180910390fd5b61095582826116b0565b5050565b60008073ffffffffffffffffffffffffffffffffffffffff166007600084815260200190815260200160002060000160009054906101000a900473ffffffffffffffffffffffffffffffffffffffff1673ffffffffffffffffffffffffffffffffffffffff161415610a00576040517f08c379a00000000000000000000000000000000000000000000000000000000081526004016109f790612473565b60405180910390fd5b6007600083815260200190815260200160002060000160149054906101000a900460ff169050919050565b60035481565b7f21d749bccb2cd1ecd43da02f61cbdf715b020c28617853628b041975aa29b91681565b7fa48c898f5241be426b79d4b5a3c206f9c9a06576e1b72c338c3ec849771d5686610a8781610a8261152b565b611533565b600073ffffffffffffffffffffffffffffffffffffffff166007600084815260200190815260200160002060000160009054906101000a900473ffffffffffffffffffffffffffffffffffffffff1673ffffffffffffffffffffffffffffffffffffffff161415610b2d576040517f08c379a0000000000000000000000000000000000000000000000000000000008152600401610b2490612473565b60405180910390fd5b60016007600084815260200190815260200160002060000160146101000a81548160ff0219169083151502179055505050565b60076020528060005260406000206000915090508060000160009054906101000a900473ffffffffffffffffffffffffffffffffffffffff16908060000160149054906101000a900460ff1690806001018054610bbc90612797565b80601f0160208091040260200160405190810160405280929190818152602001828054610be890612797565b8015610c355780601f10610c0a57610100808354040283529160200191610c35565b820191906000526020600020905b815481529060010190602001808311610c1857829003601f168201915b505050505090806002016040518060400160405290816000820160009054906101000a900473ffffffffffffffffffffffffffffffffffffffff1673ffffffffffffffffffffffffffffffffffffffff1673ffffffffffffffffffffffffffffffffffffffff1681526020016001820160009054906101000a900473ffffffffffffffffffffffffffffffffffffffff1673ffffffffffffffffffffffffffffffffffffffff1673ffffffffffffffffffffffffffffffffffffffff1681525050905084565b610d056005611791565b6000610d1160056117a7565b90506000610d40600960009054906101000a900473ffffffffffffffffffffffffffffffffffffffff166117b5565b90508073ffffffffffffffffffffffffffffffffffffffff16631d9a9ea2838888306040518563ffffffff1660e01b8152600401610d819493929190612529565b600060405180830381600087803b158015610d9b57600080fd5b505af1158015610daf573d6000803e3d6000fd5b505050506000610de0600a60009054906101000a900473ffffffffffffffffffffffffffffffffffffffff166117b5565b90508073ffffffffffffffffffffffffffffffffffffffff16638129fc1c6040518163ffffffff1660e01b8152600401600060405180830381600087803b158015610e2a57600080fd5b505af1158015610e3e573d6000803e3d6000fd5b505050506000610e6f600b60009054906101000a900473ffffffffffffffffffffffffffffffffffffffff166117b5565b90508073ffffffffffffffffffffffffffffffffffffffff16638129fc1c6040518163ffffffff1660e01b8152600401600060405180830381600087803b158015610eb957600080fd5b505af1158015610ecd573d6000803e3d6000fd5b505050508585600660008781526020019081526020016000209190610ef3929190611ad9565b5083600860008c8c604051602001610f0c92919061227a565b6040516020818303038152906040528051906020012081526020019081526020016000208190555060405180608001604052808473ffffffffffffffffffffffffffffffffffffffff1681526020016000151581526020018b8b8080601f016020809104026020016040519081016040528093929190818152602001838380828437600081840152601f19601f82011690508083019250505050505050815260200160405180604001604052808573ffffffffffffffffffffffffffffffffffffffff1681526020018473ffffffffffffffffffffffffffffffffffffffff168152508152506007600086815260200190815260200160002060008201518160000160006101000a81548173ffffffffffffffffffffffffffffffffffffffff021916908373ffffffffffffffffffffffffffffffffffffffff16021790555060208201518160000160146101000a81548160ff0219169083151502179055506040820151816001019080519060200190611088929190611b26565b5060608201518160020160008201518160000160006101000a81548173ffffffffffffffffffffffffffffffffffffffff021916908373ffffffffffffffffffffffffffffffffffffffff16021790555060208201518160010160006101000a81548173ffffffffffffffffffffffffffffffffffffffff021916908373ffffffffffffffffffffffffffffffffffffffff1602179055505050905050600c60009054906101000a900473ffffffffffffffffffffffffffffffffffffffff1673ffffffffffffffffffffffffffffffffffffffff16632f2ff15d7f21d749bccb2cd1ecd43da02f61cbdf715b020c28617853628b041975aa29b916856040518363ffffffff1660e01b81526004016111a29291906123a8565b600060405180830381600087803b1580156111bc57600080fd5b505af11580156111d0573d6000803e3d6000fd5b50505050600d60009054906101000a900473ffffffffffffffffffffffffffffffffffffffff1673ffffffffffffffffffffffffffffffffffffffff16632f2ff15d7f21d749bccb2cd1ecd43da02f61cbdf715b020c28617853628b041975aa29b916856040518363ffffffff1660e01b81526004016112519291906123a8565b600060405180830381600087803b15801561126b57600080fd5b505af115801561127f573d6000803e3d6000fd5b50505050837f560aac31ce82e2ff2171ef8a86705c75d9cf1e5ad314fa40355540819203911d8484846040516112b7939291906122cd565b60405180910390a250505050505050505050565b600080600084815260200190815260200160002060000160008373ffffffffffffffffffffffffffffffffffffffff1673ffffffffffffffffffffffffffffffffffffffff16815260200190815260200160002060009054906101000a900460ff16905092915050565b7f6270edb7c868f86fda4adedba75108201087268ea345934db8bad688e1feb91b6113678161136261152b565b611533565b600082148061137a575060018054905082115b156113ba576040517f08c379a00000000000000000000000000000000000000000000000000000000081526004016113b190612413565b60405180910390fd5b816003819055505050565b6000801b81565b60006008600084846040516020016113e592919061227a565b60405160208183030381529060405280519060200120815260200190815260200160002054905092915050565b61141b82610876565b61142c8161142761152b565b611533565b61143683836116b0565b505050565b7f6270edb7c868f86fda4adedba75108201087268ea345934db8bad688e1feb91b61146d8161146861152b565b611533565b600082116114b0576040517f08c379a00000000000000000000000000000000000000000000000000000000081526004016114a790612433565b60405180910390fd5b816002819055505050565b60025481565b60007f01ffc9a7000000000000000000000000000000000000000000000000000000007bffffffffffffffffffffffffffffffffffffffffffffffffffffffff1916827bffffffffffffffffffffffffffffffffffffffffffffffffffffffff1916149050919050565b600033905090565b61153d82826112cb565b6115cc576115628173ffffffffffffffffffffffffffffffffffffffff16601461188a565b6115708360001c602061188a565b604051602001611581929190612293565b6040516020818303038152906040526040517f08c379a00000000000000000000000000000000000000000000000000000000081526004016115c391906123d1565b60405180910390fd5b5050565b6115da82826112cb565b6116ac57600160008084815260200190815260200160002060000160008373ffffffffffffffffffffffffffffffffffffffff1673ffffffffffffffffffffffffffffffffffffffff16815260200190815260200160002060006101000a81548160ff02191690831515021790555061165161152b565b73ffffffffffffffffffffffffffffffffffffffff168173ffffffffffffffffffffffffffffffffffffffff16837f2f8788117e7eff1d82e926ec794901d17c78024a50270940304540a733656f0d60405160405180910390a45b5050565b6116ba82826112cb565b1561178d57600080600084815260200190815260200160002060000160008373ffffffffffffffffffffffffffffffffffffffff1673ffffffffffffffffffffffffffffffffffffffff16815260200190815260200160002060006101000a81548160ff02191690831515021790555061173261152b565b73ffffffffffffffffffffffffffffffffffffffff168173ffffffffffffffffffffffffffffffffffffffff16837ff6391f5c32d9c69d2a47ea670b442974b53935d1edc7fd64eb21e047a839171b60405160405180910390a45b5050565b6001816000016000828254019250508190555050565b600081600001549050919050565b60006040517f3d602d80600a3d3981f3363d3d373d3d3d363d7300000000000000000000000081528260601b60148201527f5af43d82803e903d91602b57fd5bf3000000000000000000000000000000000060288201526037816000f0915050600073ffffffffffffffffffffffffffffffffffffffff168173ffffffffffffffffffffffffffffffffffffffff161415611885576040517f08c379a000000000000000000000000000000000000000000000000000000000815260040161187c90612453565b60405180910390fd5b919050565b60606000600283600261189d919061261f565b6118a791906125c9565b67ffffffffffffffff8111156118c0576118bf612856565b5b6040519080825280601f01601f1916602001820160405280156118f25781602001600182028036833780820191505090505b5090507f30000000000000000000000000000000000000000000000000000000000000008160008151811061192a57611929612827565b5b60200101907effffffffffffffffffffffffffffffffffffffffffffffffffffffffffffff1916908160001a9053507f78000000000000000000000000000000000000000000000000000000000000008160018151811061198e5761198d612827565b5b60200101907effffffffffffffffffffffffffffffffffffffffffffffffffffffffffffff1916908160001a905350600060018460026119ce919061261f565b6119d891906125c9565b90505b6001811115611a78577f3031323334353637383961626364656600000000000000000000000000000000600f861660108110611a1a57611a19612827565b5b1a60f81b828281518110611a3157611a30612827565b5b60200101907effffffffffffffffffffffffffffffffffffffffffffffffffffffffffffff1916908160001a905350600485901c945080611a719061276d565b90506119db565b5060008414611abc576040517f08c379a0000000000000000000000000000000000000000000000000000000008152600401611ab3906123f3565b60405180910390fd5b8091505092915050565b6040518060200160405280600081525090565b828054828255906000526020600020908101928215611b15579160200282015b82811115611b14578235825591602001919060010190611af9565b5b509050611b229190611bac565b5090565b828054611b3290612797565b90600052602060002090601f016020900481019282611b545760008555611b9b565b82601f10611b6d57805160ff1916838001178555611b9b565b82800160010185558215611b9b579182015b82811115611b9a578251825591602001919060010190611b7f565b5b509050611ba89190611bc9565b5090565b5b80821115611bc5576000816000905550600101611bad565b5090565b5b80821115611be2576000816000905550600101611bca565b5090565b600081359050611bf581612a95565b92915050565b60008083601f840112611c1157611c1061288a565b5b8235905067ffffffffffffffff811115611c2e57611c2d612885565b5b602083019150836020820283011115611c4a57611c4961288f565b5b9250929050565b600081359050611c6081612aac565b92915050565b600081359050611c7581612ac3565b92915050565b60008083601f840112611c9157611c9061288a565b5b8235905067ffffffffffffffff811115611cae57611cad612885565b5b602083019150836001820283011115611cca57611cc961288f565b5b9250929050565b600081359050611ce081612ada565b92915050565b600080600080600060a08688031215611d0257611d01612899565b5b6000611d1088828901611be6565b9550506020611d2188828901611be6565b9450506040611d3288828901611be6565b9350506060611d4388828901611be6565b9250506080611d5488828901611be6565b9150509295509295909350565b600060208284031215611d7757611d76612899565b5b6000611d8584828501611c51565b91505092915050565b60008060408385031215611da557611da4612899565b5b6000611db385828601611c51565b9250506020611dc485828601611be6565b9150509250929050565b600060208284031215611de457611de3612899565b5b6000611df284828501611c66565b91505092915050565b60008060208385031215611e1257611e11612899565b5b600083013567ffffffffffffffff811115611e3057611e2f612894565b5b611e3c85828601611c7b565b92509250509250929050565b60008060008060008060608789031215611e6557611e64612899565b5b600087013567ffffffffffffffff811115611e8357611e82612894565b5b611e8f89828a01611c7b565b9650965050602087013567ffffffffffffffff811115611eb257611eb1612894565b5b611ebe89828a01611c7b565b9450945050604087013567ffffffffffffffff811115611ee157611ee0612894565b5b611eed89828a01611bfb565b92509250509295509295509295565b600060208284031215611f1257611f11612899565b5b6000611f2084828501611cd1565b91505092915050565b6000611f3583836121f5565b60208301905092915050565b611f4a816126ad565b82525050565b611f59816126ad565b82525050565b6000611f6a82612579565b611f74818561259c565b9350611f7f83612569565b8060005b83811015611fb0578151611f978882611f29565b9750611fa28361258f565b925050600181019050611f83565b5085935050505092915050565b611fc6816126bf565b82525050565b611fd5816126cb565b82525050565b6000611fe783856125ad565b9350611ff483858461272b565b611ffd8361289e565b840190509392505050565b600061201483856125be565b935061202183858461272b565b82840190509392505050565b600061203882612584565b61204281856125ad565b935061205281856020860161273a565b61205b8161289e565b840191505092915050565b600061207182612584565b61207b81856125be565b935061208b81856020860161273a565b80840191505092915050565b60006120a46020836125ad565b91506120af826128af565b602082019050919050565b60006120c76016836125ad565b91506120d2826128d8565b602082019050919050565b60006120ea600e836125ad565b91506120f582612901565b602082019050919050565b600061210d6016836125ad565b91506121188261292a565b602082019050919050565b60006121306010836125ad565b915061213b82612953565b602082019050919050565b6000612153602e836125ad565b915061215e8261297c565b604082019050919050565b6000612176600d836125ad565b9150612181826129cb565b602082019050919050565b60006121996017836125be565b91506121a4826129f4565b601782019050919050565b60006121bc6011836125be565b91506121c782612a1d565b601182019050919050565b60006121df602f836125ad565b91506121ea82612a46565b604082019050919050565b60208201600082015161220b600085018261225c565b50505050565b602082016000820151612227600085018261225c565b50505050565b6040820160008201516122436000850182611f41565b5060208201516122566020850182611f41565b50505050565b61226581612721565b82525050565b61227481612721565b82525050565b6000612287828486612008565b91508190509392505050565b600061229e8261218c565b91506122aa8285612066565b91506122b5826121af565b91506122c18284612066565b91508190509392505050565b60006060820190506122e26000830186611f50565b6122ef6020830185611f50565b6122fc6040830184611f50565b949350505050565b600060a0820190506123196000830187611f50565b6123266020830186611fbd565b8181036040830152612338818561202d565b9050612347606083018461222d565b95945050505050565b6000602082019050818103600083015261236a8184611f5f565b905092915050565b60006020820190506123876000830184611fbd565b92915050565b60006020820190506123a26000830184611fcc565b92915050565b60006040820190506123bd6000830185611fcc565b6123ca6020830184611f50565b9392505050565b600060208201905081810360008301526123eb818461202d565b905092915050565b6000602082019050818103600083015261240c81612097565b9050919050565b6000602082019050818103600083015261242c816120ba565b9050919050565b6000602082019050818103600083015261244c816120dd565b9050919050565b6000602082019050818103600083015261246c81612100565b9050919050565b6000602082019050818103600083015261248c81612123565b9050919050565b600060208201905081810360008301526124ac81612146565b9050919050565b600060208201905081810360008301526124cc81612169565b9050919050565b600060208201905081810360008301526124ec816121d2565b9050919050565b60006020820190506125086000830184612211565b92915050565b6000602082019050612523600083018461226b565b92915050565b600060608201905061253e600083018761226b565b8181036020830152612551818587611fdb565b90506125606040830184611f50565b95945050505050565b6000819050602082019050919050565b600081519050919050565b600081519050919050565b6000602082019050919050565b600082825260208201905092915050565b600082825260208201905092915050565b600081905092915050565b60006125d482612721565b91506125df83612721565b9250827fffffffffffffffffffffffffffffffffffffffffffffffffffffffffffffffff03821115612614576126136127c9565b5b828201905092915050565b600061262a82612721565b915061263583612721565b9250817fffffffffffffffffffffffffffffffffffffffffffffffffffffffffffffffff048311821515161561266e5761266d6127c9565b5b828202905092915050565b600061268482612721565b915061268f83612721565b9250828210156126a2576126a16127c9565b5b828203905092915050565b60006126b882612701565b9050919050565b60008115159050919050565b6000819050919050565b60007fffffffff0000000000000000000000000000000000000000000000000000000082169050919050565b600073ffffffffffffffffffffffffffffffffffffffff82169050919050565b6000819050919050565b82818337600083830152505050565b60005b8381101561275857808201518184015260208101905061273d565b83811115612767576000848401525b50505050565b600061277882612721565b9150600082141561278c5761278b6127c9565b5b600182039050919050565b600060028204905060018216806127af57607f821691505b602082108114156127c3576127c26127f8565b5b50919050565b7f4e487b7100000000000000000000000000000000000000000000000000000000600052601160045260246000fd5b7f4e487b7100000000000000000000000000000000000000000000000000000000600052602260045260246000fd5b7f4e487b7100000000000000000000000000000000000000000000000000000000600052603260045260246000fd5b7f4e487b7100000000000000000000000000000000000000000000000000000000600052604160045260246000fd5b600080fd5b600080fd5b600080fd5b600080fd5b600080fd5b6000601f19601f8301169050919050565b7f537472696e67733a20686578206c656e67746820696e73756666696369656e74600082015250565b7f496e76616c6964207374617274696e67206c6576656c00000000000000000000600082015250565b7f496e76616c696420616d6f756e74000000000000000000000000000000000000600082015250565b7f455243313136373a20637265617465206661696c656400000000000000000000600082015250565b7f4e6f6e6578697374656e7420736f6e6700000000000000000000000000000000600082015250565b7f496e697469616c697a61626c653a20636f6e747261637420697320616c72656160008201527f647920696e697469616c697a6564000000000000000000000000000000000000602082015250565b7f496e76616c6964206c6576656c00000000000000000000000000000000000000600082015250565b7f416363657373436f6e74726f6c3a206163636f756e7420000000000000000000600082015250565b7f206973206d697373696e6720726f6c6520000000000000000000000000000000600082015250565b7f416363657373436f6e74726f6c3a2063616e206f6e6c792072656e6f756e636560008201527f20726f6c657320666f722073656c660000000000000000000000000000000000602082015250565b612a9e816126ad565b8114612aa957600080fd5b50565b612ab5816126cb565b8114612ac057600080fd5b50565b612acc816126d5565b8114612ad757600080fd5b50565b612ae381612721565b8114612aee57600080fd5b5056fea26469706673582212205582460246c7271c8f2c782d7351069b309e6b7fec4aee3c992f4be187c73c6d64736f6c63430008060033",
  "immutableReferences": {},
  "source": "// SPDX-License-Identifier: MIT\npragma solidity ^0.8.0;\n\nimport \"@openzeppelin/contracts/proxy/Clones.sol\";\nimport \"@openzeppelin/contracts/utils/Counters.sol\";\nimport \"@openzeppelin/contracts/proxy/utils/Initializable.sol\";\nimport \"@openzeppelin/contracts/access/AccessControl.sol\";\n\nimport \"./implementations/Song.sol\";\nimport \"./implementations/StakePool.sol\";\nimport \"./implementations/ArtistsPool.sol\";\nimport \"./bops/BopLevelsHandler.sol\";\nimport \"./Structs.sol\";\n\n/**\n * @title Songs Manager Contract\n * @author Eric Nordelo\n */\ncontract SongsManager is BopLevelsHandler, Initializable {\n    bytes32 public constant SONG_CONTRACT = keccak256(\"SONG_CONTRACT\");\n    bytes32 public constant VERIFIER = keccak256(\"VERIFIER\");\n\n    using Counters for Counters.Counter;\n\n    Counters.Counter private _songIds;\n\n    mapping(uint256 => bytes32[]) private _songArtistsIds;\n\n    mapping(uint256 => RegisteredSong) public registeredSongs;\n    mapping(bytes32 => uint256) public songCIDtoId;\n\n    address private _songAddr;\n    address private _stakePoolAddr;\n    address private _artistsPoolAddr;\n    address private _fundsManagerAddress;\n    address private _bopTokenAddress;\n\n    /**\n     * @dev event emitted after song registration with the id and proxy addresses\n     */\n    event RegisterSong(uint256 indexed songId, address song, address stakePool, address artistsPool);\n\n    /**\n     * @notice Initialize the positions for staking and the addresses of implementations and tokens\n     */\n    //  solhint-disable-next-line\n    constructor(BopLevel[] memory _levels) BopLevelsHandler(_levels) {}\n\n    /**\n     * @dev sets the contracts where SONG_CONTRACT role should be given\n     * @param fundsManagerAddress the FundsManager contract\n     * @param bopTokenAddress the BopToken contract\n     */\n    function initialize(\n        address fundsManagerAddress,\n        address bopTokenAddress,\n        address songAddr,\n        address stakePoolAddr,\n        address artistsPoolAddr\n    ) external initializer {\n        _fundsManagerAddress = fundsManagerAddress;\n        _bopTokenAddress = bopTokenAddress;\n        _songAddr = songAddr;\n        _stakePoolAddr = stakePoolAddr;\n        _artistsPoolAddr = artistsPoolAddr;\n    }\n\n    /**\n     * @notice register a song on the contract (unverified)\n     * @param _cid the IPFS hash identifying the song file\n     * @param _genre the genre of the song\n     * @param _artists the list of artist ids (keccak256 of the identificators like Country + DNI)\n     */\n    function registerSong(\n        string calldata _cid,\n        string calldata _genre,\n        bytes32[] calldata _artists\n    ) external {\n        _songIds.increment();\n        uint256 songId = _songIds.current();\n\n        // deploy the song contracts and initialize them\n        // deploys minimal proxy contracts from implementation\n        address newSong = Clones.clone(_songAddr);\n        Song(newSong).initialize(songId, _genre, address(this));\n\n        address newStakePool = Clones.clone(_stakePoolAddr);\n        StakePool(newStakePool).initialize();\n\n        address newArtistsPool = Clones.clone(_artistsPoolAddr);\n        ArtistsPool(newArtistsPool).initialize();\n\n        // save the artists\n        _songArtistsIds[songId] = _artists;\n\n        // save the song id from cid\n        songCIDtoId[keccak256(abi.encodePacked(_cid))] = songId;\n\n        // save the song information\n        registeredSongs[songId] = RegisteredSong({\n            addr: newSong,\n            cid: _cid,\n            verified: false,\n            addresses: SongContractAddresses({stakePool: newStakePool, artistsPool: newArtistsPool})\n        });\n\n        // give the corresponding SONG_CONTRACT roles\n        AccessControl(_fundsManagerAddress).grantRole(SONG_CONTRACT, newSong);\n        AccessControl(_bopTokenAddress).grantRole(SONG_CONTRACT, newSong);\n\n        emit RegisterSong(songId, newSong, newStakePool, newArtistsPool);\n    }\n\n    /**\n     * @notice allows verifying a song\n     * @param _songId the id of the song\n     */\n    function verifySong(uint256 _songId) external onlyRole(VERIFIER) {\n        require(registeredSongs[_songId].addr != address(0), \"Nonexistent song\");\n        registeredSongs[_songId].verified = true;\n    }\n\n    function isRegistered(string calldata _cid) external view returns (uint256 songId) {\n        return songCIDtoId[keccak256(abi.encodePacked(_cid))];\n    }\n\n    function isVerified(uint256 _songId) external view returns (bool verified) {\n        require(registeredSongs[_songId].addr != address(0), \"Nonexistent song\");\n        return registeredSongs[_songId].verified;\n    }\n}\n",
  "sourcePath": "/Users/angelsatorresalmenara/Desktop/privi-trax-smart-contracts/contracts/SongsManager.sol",
  "compiler": {
    "name": "solc",
    "version": "0.8.6+commit.11564f7e.Emscripten.clang"
  },
  "schemaVersion": "3.4.2",
  "updatedAt": "2021-09-02T15:30:08.477Z",
  "networkType": "ethereum",
  "devdoc": {
    "author": "Eric Nordelo",
    "events": {
      "RegisterSong(uint256,address,address,address)": {
        "details": "event emitted after song registration with the id and proxy addresses"
      }
    },
    "kind": "dev",
    "methods": {
      "getRoleAdmin(bytes32)": {
        "details": "Returns the admin role that controls `role`. See {grantRole} and {revokeRole}. To change a role's admin, use {_setRoleAdmin}."
      },
      "grantRole(bytes32,address)": {
        "details": "Grants `role` to `account`. If `account` had not been already granted `role`, emits a {RoleGranted} event. Requirements: - the caller must have ``role``'s admin role."
      },
      "hasRole(bytes32,address)": {
        "details": "Returns `true` if `account` has been granted `role`."
      },
      "initialize(address,address,address,address,address)": {
        "details": "sets the contracts where SONG_CONTRACT role should be given",
        "params": {
          "bopTokenAddress": "the BopToken contract",
          "fundsManagerAddress": "the FundsManager contract"
        }
      },
      "registerSong(string,string,bytes32[])": {
        "params": {
          "_artists": "the list of artist ids (keccak256 of the identificators like Country + DNI)",
          "_cid": "the IPFS hash identifying the song file",
          "_genre": "the genre of the song"
        }
      },
      "renounceRole(bytes32,address)": {
        "details": "Revokes `role` from the calling account. Roles are often managed via {grantRole} and {revokeRole}: this function's purpose is to provide a mechanism for accounts to lose their privileges if they are compromised (such as when a trusted device is misplaced). If the calling account had been granted `role`, emits a {RoleRevoked} event. Requirements: - the caller must be `account`."
      },
      "revokeRole(bytes32,address)": {
        "details": "Revokes `role` from `account`. If `account` had been granted `role`, emits a {RoleRevoked} event. Requirements: - the caller must have ``role``'s admin role."
      },
      "supportsInterface(bytes4)": {
        "details": "See {IERC165-supportsInterface}."
      },
      "verifySong(uint256)": {
        "params": {
          "_songId": "the id of the song"
        }
      }
    },
    "title": "Songs Manager Contract",
    "version": 1
  },
  "userdoc": {
    "kind": "user",
    "methods": {
      "constructor": {
        "notice": "Initialize the positions for staking and the addresses of implementations and tokens"
      },
      "registerSong(string,string,bytes32[])": {
        "notice": "register a song on the contract (unverified)"
      },
      "verifySong(uint256)": {
        "notice": "allows verifying a song"
      }
    },
    "version": 1
  }
}