{
  "contractName": "SongOracleMock",
  "abi": [
    {
      "inputs": [],
      "stateMutability": "nonpayable",
      "type": "constructor"
    },
    {
      "anonymous": false,
      "inputs": [
        {
          "indexed": true,
          "internalType": "bytes32",
          "name": "id",
          "type": "bytes32"
        }
      ],
      "name": "ChainlinkCancelled",
      "type": "event"
    },
    {
      "anonymous": false,
      "inputs": [
        {
          "indexed": true,
          "internalType": "bytes32",
          "name": "id",
          "type": "bytes32"
        }
      ],
      "name": "ChainlinkFulfilled",
      "type": "event"
    },
    {
      "anonymous": false,
      "inputs": [
        {
          "indexed": true,
          "internalType": "bytes32",
          "name": "id",
          "type": "bytes32"
        }
      ],
      "name": "ChainlinkRequested",
      "type": "event"
    },
    {
      "anonymous": false,
      "inputs": [
        {
          "indexed": true,
          "internalType": "bytes32",
          "name": "role",
          "type": "bytes32"
        },
        {
          "indexed": true,
          "internalType": "bytes32",
          "name": "previousAdminRole",
          "type": "bytes32"
        },
        {
          "indexed": true,
          "internalType": "bytes32",
          "name": "newAdminRole",
          "type": "bytes32"
        }
      ],
      "name": "RoleAdminChanged",
      "type": "event"
    },
    {
      "anonymous": false,
      "inputs": [
        {
          "indexed": true,
          "internalType": "bytes32",
          "name": "role",
          "type": "bytes32"
        },
        {
          "indexed": true,
          "internalType": "address",
          "name": "account",
          "type": "address"
        },
        {
          "indexed": true,
          "internalType": "address",
          "name": "sender",
          "type": "address"
        }
      ],
      "name": "RoleGranted",
      "type": "event"
    },
    {
      "anonymous": false,
      "inputs": [
        {
          "indexed": true,
          "internalType": "bytes32",
          "name": "role",
          "type": "bytes32"
        },
        {
          "indexed": true,
          "internalType": "address",
          "name": "account",
          "type": "address"
        },
        {
          "indexed": true,
          "internalType": "address",
          "name": "sender",
          "type": "address"
        }
      ],
      "name": "RoleRevoked",
      "type": "event"
    },
    {
      "inputs": [],
      "name": "DEFAULT_ADMIN_ROLE",
      "outputs": [
        {
          "internalType": "bytes32",
          "name": "",
          "type": "bytes32"
        }
      ],
      "stateMutability": "view",
      "type": "function",
      "constant": true
    },
    {
      "inputs": [],
      "name": "apiURL",
      "outputs": [
        {
          "internalType": "string",
          "name": "",
          "type": "string"
        }
      ],
      "stateMutability": "view",
      "type": "function",
      "constant": true
    },
    {
      "inputs": [],
      "name": "chainlinkNode",
      "outputs": [
        {
          "internalType": "address",
          "name": "",
          "type": "address"
        }
      ],
      "stateMutability": "view",
      "type": "function",
      "constant": true
    },
    {
      "inputs": [
        {
          "internalType": "bytes32",
          "name": "role",
          "type": "bytes32"
        }
      ],
      "name": "getRoleAdmin",
      "outputs": [
        {
          "internalType": "bytes32",
          "name": "",
          "type": "bytes32"
        }
      ],
      "stateMutability": "view",
      "type": "function",
      "constant": true
    },
    {
      "inputs": [
        {
          "internalType": "bytes32",
          "name": "role",
          "type": "bytes32"
        },
        {
          "internalType": "address",
          "name": "account",
          "type": "address"
        }
      ],
      "name": "grantRole",
      "outputs": [],
      "stateMutability": "nonpayable",
      "type": "function"
    },
    {
      "inputs": [
        {
          "internalType": "bytes32",
          "name": "role",
          "type": "bytes32"
        },
        {
          "internalType": "address",
          "name": "account",
          "type": "address"
        }
      ],
      "name": "hasRole",
      "outputs": [
        {
          "internalType": "bool",
          "name": "",
          "type": "bool"
        }
      ],
      "stateMutability": "view",
      "type": "function",
      "constant": true
    },
    {
      "inputs": [],
      "name": "jobId",
      "outputs": [
        {
          "internalType": "bytes32",
          "name": "",
          "type": "bytes32"
        }
      ],
      "stateMutability": "view",
      "type": "function",
      "constant": true
    },
    {
      "inputs": [],
      "name": "linkToken",
      "outputs": [
        {
          "internalType": "address",
          "name": "",
          "type": "address"
        }
      ],
      "stateMutability": "view",
      "type": "function",
      "constant": true
    },
    {
      "inputs": [],
      "name": "nodeFee",
      "outputs": [
        {
          "internalType": "uint256",
          "name": "",
          "type": "uint256"
        }
      ],
      "stateMutability": "view",
      "type": "function",
      "constant": true
    },
    {
      "inputs": [
        {
          "internalType": "bytes32",
          "name": "role",
          "type": "bytes32"
        },
        {
          "internalType": "address",
          "name": "account",
          "type": "address"
        }
      ],
      "name": "renounceRole",
      "outputs": [],
      "stateMutability": "nonpayable",
      "type": "function"
    },
    {
      "inputs": [
        {
          "internalType": "bytes32",
          "name": "role",
          "type": "bytes32"
        },
        {
          "internalType": "address",
          "name": "account",
          "type": "address"
        }
      ],
      "name": "revokeRole",
      "outputs": [],
      "stateMutability": "nonpayable",
      "type": "function"
    },
    {
      "inputs": [
        {
          "internalType": "bytes4",
          "name": "interfaceId",
          "type": "bytes4"
        }
      ],
      "name": "supportsInterface",
      "outputs": [
        {
          "internalType": "bool",
          "name": "",
          "type": "bool"
        }
      ],
      "stateMutability": "view",
      "type": "function",
      "constant": true
    },
    {
      "inputs": [
        {
          "components": [
            {
              "internalType": "address",
              "name": "linkToken",
              "type": "address"
            },
            {
              "internalType": "address",
              "name": "chainlinkNode",
              "type": "address"
            },
            {
              "internalType": "string",
              "name": "jobId",
              "type": "string"
            },
            {
              "internalType": "uint256",
              "name": "nodeFee",
              "type": "uint256"
            }
          ],
          "internalType": "struct SongOracleInfo",
          "name": "_oracleInfo",
          "type": "tuple"
        }
      ],
      "name": "initialize",
      "outputs": [],
      "stateMutability": "nonpayable",
      "type": "function"
    },
    {
      "inputs": [
        {
          "components": [
            {
              "internalType": "address",
              "name": "linkToken",
              "type": "address"
            },
            {
              "internalType": "address",
              "name": "chainlinkNode",
              "type": "address"
            },
            {
              "internalType": "string",
              "name": "jobId",
              "type": "string"
            },
            {
              "internalType": "uint256",
              "name": "nodeFee",
              "type": "uint256"
            }
          ],
          "internalType": "struct SongOracleInfo",
          "name": "_oracleInfo",
          "type": "tuple"
        }
      ],
      "name": "setOracleInfo",
      "outputs": [],
      "stateMutability": "nonpayable",
      "type": "function"
    },
    {
      "inputs": [
        {
          "internalType": "string",
          "name": "_url",
          "type": "string"
        }
      ],
      "name": "setAPIURL",
      "outputs": [],
      "stateMutability": "nonpayable",
      "type": "function"
    },
    {
      "inputs": [
        {
          "internalType": "uint64",
          "name": "parentId1",
          "type": "uint64"
        },
        {
          "internalType": "uint64",
          "name": "parentId2",
          "type": "uint64"
        }
      ],
      "name": "findSong",
      "outputs": [
        {
          "internalType": "bytes32",
          "name": "_requestId",
          "type": "bytes32"
        }
      ],
      "stateMutability": "nonpayable",
      "type": "function"
    },
    {
      "inputs": [
        {
          "internalType": "bytes32",
          "name": "_requestId",
          "type": "bytes32"
        },
        {
          "internalType": "uint256",
          "name": "songId",
          "type": "uint256"
        }
      ],
      "name": "fulfillSong",
      "outputs": [],
      "stateMutability": "nonpayable",
      "type": "function"
    },
    {
      "inputs": [
        {
          "internalType": "bytes32",
          "name": "_requestId",
          "type": "bytes32"
        }
      ],
      "name": "getSongId",
      "outputs": [
        {
          "internalType": "uint256",
          "name": "",
          "type": "uint256"
        }
      ],
      "stateMutability": "view",
      "type": "function",
      "constant": true
    }
  ],
  "bytecode": "0x6080604052600160045534801561001557600080fd5b506120c3806100256000396000f3fe608060405234801561001057600080fd5b50600436106101165760003560e01c8063a217fddf116100a2578063c2939d9711610071578063c2939d97146102f1578063d547741f1461030f578063f07029b91461032b578063f416253014610349578063fa19fee81461036757610116565b8063a217fddf14610269578063aa58e8ec14610287578063b2c2e0c5146102b7578063bce66e0a146102d357610116565b806357970e93116100e957806357970e93146101b35780636ee290a1146101d15780637365a43e146101ed5780637cab4cee1461020957806391d148541461023957610116565b806301ffc9a71461011b578063248a9ca31461014b5780632f2ff15d1461017b57806336568abe14610197575b600080fd5b610135600480360381019061013091906115aa565b610383565b60405161014291906118e6565b60405180910390f35b610165600480360381019061016091906114fd565b6103fd565b6040516101729190611901565b60405180910390f35b6101956004803603810190610190919061152a565b61041d565b005b6101b160048036038101906101ac919061152a565b610446565b005b6101bb6104c9565b6040516101c891906118cb565b60405180910390f35b6101eb60048036038101906101e6919061166d565b6104ef565b005b6102076004803603810190610202919061156a565b61074a565b005b610223600480360381019061021e91906116b6565b61086c565b6040516102309190611901565b60405180910390f35b610253600480360381019061024e919061152a565b61089c565b60405161026091906118e6565b60405180910390f35b610271610907565b60405161027e9190611901565b60405180910390f35b6102a1600480360381019061029c91906114fd565b61090e565b6040516102ae91906119de565b60405180910390f35b6102d160048036038101906102cc9190611624565b610976565b005b6102db610b09565b6040516102e8919061191c565b60405180910390f35b6102f9610b97565b6040516103069190611901565b60405180910390f35b6103296004803603810190610324919061152a565b610b9d565b005b610333610bc6565b60405161034091906118cb565b60405180910390f35b610351610bec565b60405161035e91906119de565b60405180910390f35b610381600480360381019061037c91906115d7565b610bf2565b005b60007f7965db0b000000000000000000000000000000000000000000000000000000007bffffffffffffffffffffffffffffffffffffffffffffffffffffffff1916827bffffffffffffffffffffffffffffffffffffffffffffffffffffffff191614806103f657506103f582610c3b565b5b9050919050565b600060066000838152602001908152602001600020600101549050919050565b610426826103fd565b61043781610432610ca5565b610cad565b6104418383610d4a565b505050565b61044e610ca5565b73ffffffffffffffffffffffffffffffffffffffff168173ffffffffffffffffffffffffffffffffffffffff16146104bb576040517f08c379a00000000000000000000000000000000000000000000000000000000081526004016104b2906119be565b60405180910390fd5b6104c58282610e2b565b5050565b600d60009054906101000a900473ffffffffffffffffffffffffffffffffffffffff1681565b600760019054906101000a900460ff16806105175750600760009054906101000a900460ff16155b610556576040517f08c379a000000000000000000000000000000000000000000000000000000000815260040161054d9061195e565b60405180910390fd5b6000600760019054906101000a900460ff1615905080156105a8576001600760016101000a81548160ff0219169083151502179055506001600760006101000a81548160ff0219169083151502179055505b8160000151600d60006101000a81548173ffffffffffffffffffffffffffffffffffffffff021916908373ffffffffffffffffffffffffffffffffffffffff1602179055508160200151600a60006101000a81548173ffffffffffffffffffffffffffffffffffffffff021916908373ffffffffffffffffffffffffffffffffffffffff16021790555061063f8260400151610f0d565b600b819055506103e8670de0b6b3a764000083606001516106609190611b60565b61066a9190611b2f565b600c81905550604051806060016040528060368152602001612058603691396009908051906020019061069e9291906111c5565b506106ac6000801b33610f37565b6106d67f6270edb7c868f86fda4adedba75108201087268ea345934db8bad688e1feb91b33610f37565b610701600d60009054906101000a900473ffffffffffffffffffffffffffffffffffffffff16610f45565b6000600190506001600860008360001b815260200190815260200160002081905550508015610746576000600760016101000a81548160ff0219169083151502179055505b5050565b816005600082815260200190815260200160002060009054906101000a900473ffffffffffffffffffffffffffffffffffffffff1673ffffffffffffffffffffffffffffffffffffffff163373ffffffffffffffffffffffffffffffffffffffff16146107ec576040517f08c379a00000000000000000000000000000000000000000000000000000000081526004016107e39061197e565b60405180910390fd5b6005600082815260200190815260200160002060006101000a81549073ffffffffffffffffffffffffffffffffffffffff0219169055807f7cc135e0cebb02c3480ae5d74d377283180a2601f8f644edf7987b009316c63a60405160405180910390a2816008600085815260200190815260200160002081905550505050565b600080600190506001600860008360001b8152602001908152602001600020819055508060001b91505092915050565b60006006600084815260200190815260200160002060000160008373ffffffffffffffffffffffffffffffffffffffff1673ffffffffffffffffffffffffffffffffffffffff16815260200190815260200160002060009054906101000a900460ff16905092915050565b6000801b81565b60008060001b8211610955576040517f08c379a000000000000000000000000000000000000000000000000000000000815260040161094c9061199e565b60405180910390fd5b60006008600084815260200190815260200160002054905080915050919050565b7f6270edb7c868f86fda4adedba75108201087268ea345934db8bad688e1feb91b6109a8816109a3610ca5565b610cad565b8160000160208101906109bb91906114d0565b600d60006101000a81548173ffffffffffffffffffffffffffffffffffffffff021916908373ffffffffffffffffffffffffffffffffffffffff160217905550816020016020810190610a0e91906114d0565b600a60006101000a81548173ffffffffffffffffffffffffffffffffffffffff021916908373ffffffffffffffffffffffffffffffffffffffff160217905550610aa9828060400190610a6191906119f9565b8080601f016020809104026020016040519081016040528093929190818152602001838380828437600081840152601f19601f82011690508083019250505050505050610f0d565b600b819055506103e8670de0b6b3a76400008360600135610aca9190611b60565b610ad49190611b2f565b600c81905550610b05600d60009054906101000a900473ffffffffffffffffffffffffffffffffffffffff16610f45565b5050565b60098054610b1690611cb8565b80601f0160208091040260200160405190810160405280929190818152602001828054610b4290611cb8565b8015610b8f5780601f10610b6457610100808354040283529160200191610b8f565b820191906000526020600020905b815481529060010190602001808311610b7257829003601f168201915b505050505081565b600b5481565b610ba6826103fd565b610bb781610bb2610ca5565b610cad565b610bc18383610e2b565b505050565b600a60009054906101000a900473ffffffffffffffffffffffffffffffffffffffff1681565b600c5481565b7f6270edb7c868f86fda4adedba75108201087268ea345934db8bad688e1feb91b610c2481610c1f610ca5565b610cad565b828260099190610c3592919061124b565b50505050565b60007f01ffc9a7000000000000000000000000000000000000000000000000000000007bffffffffffffffffffffffffffffffffffffffffffffffffffffffff1916827bffffffffffffffffffffffffffffffffffffffffffffffffffffffff1916149050919050565b600033905090565b610cb7828261089c565b610d4657610cdc8173ffffffffffffffffffffffffffffffffffffffff166014610f89565b610cea8360001c6020610f89565b604051602001610cfb929190611891565b6040516020818303038152906040526040517f08c379a0000000000000000000000000000000000000000000000000000000008152600401610d3d919061191c565b60405180910390fd5b5050565b610d54828261089c565b610e275760016006600084815260200190815260200160002060000160008373ffffffffffffffffffffffffffffffffffffffff1673ffffffffffffffffffffffffffffffffffffffff16815260200190815260200160002060006101000a81548160ff021916908315150217905550610dcc610ca5565b73ffffffffffffffffffffffffffffffffffffffff168173ffffffffffffffffffffffffffffffffffffffff16837f2f8788117e7eff1d82e926ec794901d17c78024a50270940304540a733656f0d60405160405180910390a45b5050565b610e35828261089c565b15610f095760006006600084815260200190815260200160002060000160008373ffffffffffffffffffffffffffffffffffffffff1673ffffffffffffffffffffffffffffffffffffffff16815260200190815260200160002060006101000a81548160ff021916908315150217905550610eae610ca5565b73ffffffffffffffffffffffffffffffffffffffff168173ffffffffffffffffffffffffffffffffffffffff16837ff6391f5c32d9c69d2a47ea670b442974b53935d1edc7fd64eb21e047a839171b60405160405180910390a45b5050565b600080829050600081511415610f29576000801b915050610f32565b60208301519150505b919050565b610f418282610d4a565b5050565b80600260006101000a81548173ffffffffffffffffffffffffffffffffffffffff021916908373ffffffffffffffffffffffffffffffffffffffff16021790555050565b606060006002836002610f9c9190611b60565b610fa69190611ad9565b67ffffffffffffffff811115610fbf57610fbe611dd7565b5b6040519080825280601f01601f191660200182016040528015610ff15781602001600182028036833780820191505090505b5090507f30000000000000000000000000000000000000000000000000000000000000008160008151811061102957611028611da8565b5b60200101907effffffffffffffffffffffffffffffffffffffffffffffffffffffffffffff1916908160001a9053507f78000000000000000000000000000000000000000000000000000000000000008160018151811061108d5761108c611da8565b5b60200101907effffffffffffffffffffffffffffffffffffffffffffffffffffffffffffff1916908160001a905350600060018460026110cd9190611b60565b6110d79190611ad9565b90505b6001811115611177577f3031323334353637383961626364656600000000000000000000000000000000600f86166010811061111957611118611da8565b5b1a60f81b8282815181106111305761112f611da8565b5b60200101907effffffffffffffffffffffffffffffffffffffffffffffffffffffffffffff1916908160001a905350600485901c94508061117090611c8e565b90506110da565b50600084146111bb576040517f08c379a00000000000000000000000000000000000000000000000000000000081526004016111b29061193e565b60405180910390fd5b8091505092915050565b8280546111d190611cb8565b90600052602060002090601f0160209004810192826111f3576000855561123a565b82601f1061120c57805160ff191683800117855561123a565b8280016001018555821561123a579182015b8281111561123957825182559160200191906001019061121e565b5b50905061124791906112d1565b5090565b82805461125790611cb8565b90600052602060002090601f01602090048101928261127957600085556112c0565b82601f1061129257803560ff19168380011785556112c0565b828001600101855582156112c0579182015b828111156112bf5782358255916020019190600101906112a4565b5b5090506112cd91906112d1565b5090565b5b808211156112ea5760008160009055506001016112d2565b5090565b60006113016112fc84611a81565b611a5c565b90508281526020810184848401111561131d5761131c611e33565b5b611328848285611c4c565b509392505050565b60008135905061133f81611fe4565b92915050565b60008135905061135481611ffb565b92915050565b60008135905061136981612012565b92915050565b60008083601f84011261138557611384611e0b565b5b8235905067ffffffffffffffff8111156113a2576113a1611e06565b5b6020830191508360018202830111156113be576113bd611e29565b5b9250929050565b600082601f8301126113da576113d9611e0b565b5b81356113ea8482602086016112ee565b91505092915050565b60006080828403121561140957611408611e15565b5b81905092915050565b60006080828403121561142857611427611e1a565b5b6114326080611a5c565b9050600061144284828501611330565b600083015250602061145684828501611330565b602083015250604082013567ffffffffffffffff81111561147a57611479611e24565b5b611486848285016113c5565b604083015250606061149a848285016114a6565b60608301525092915050565b6000813590506114b581612029565b92915050565b6000813590506114ca81612040565b92915050565b6000602082840312156114e6576114e5611e3d565b5b60006114f484828501611330565b91505092915050565b60006020828403121561151357611512611e3d565b5b600061152184828501611345565b91505092915050565b6000806040838503121561154157611540611e3d565b5b600061154f85828601611345565b925050602061156085828601611330565b9150509250929050565b6000806040838503121561158157611580611e3d565b5b600061158f85828601611345565b92505060206115a0858286016114a6565b9150509250929050565b6000602082840312156115c0576115bf611e3d565b5b60006115ce8482850161135a565b91505092915050565b600080602083850312156115ee576115ed611e3d565b5b600083013567ffffffffffffffff81111561160c5761160b611e38565b5b6116188582860161136f565b92509250509250929050565b60006020828403121561163a57611639611e3d565b5b600082013567ffffffffffffffff81111561165857611657611e38565b5b611664848285016113f3565b91505092915050565b60006020828403121561168357611682611e3d565b5b600082013567ffffffffffffffff8111156116a1576116a0611e38565b5b6116ad84828501611412565b91505092915050565b600080604083850312156116cd576116cc611e3d565b5b60006116db858286016114bb565b92505060206116ec858286016114bb565b9150509250929050565b6116ff81611bba565b82525050565b61170e81611bcc565b82525050565b61171d81611bd8565b82525050565b600061172e82611ab2565b6117388185611abd565b9350611748818560208601611c5b565b61175181611e42565b840191505092915050565b600061176782611ab2565b6117718185611ace565b9350611781818560208601611c5b565b80840191505092915050565b600061179a602083611abd565b91506117a582611e53565b602082019050919050565b60006117bd602e83611abd565b91506117c882611e7c565b604082019050919050565b60006117e0602883611abd565b91506117eb82611ecb565b604082019050919050565b6000611803601783611ace565b915061180e82611f1a565b601782019050919050565b6000611826601283611abd565b915061183182611f43565b602082019050919050565b6000611849601183611ace565b915061185482611f6c565b601182019050919050565b600061186c602f83611abd565b915061187782611f95565b604082019050919050565b61188b81611c2e565b82525050565b600061189c826117f6565b91506118a8828561175c565b91506118b38261183c565b91506118bf828461175c565b91508190509392505050565b60006020820190506118e060008301846116f6565b92915050565b60006020820190506118fb6000830184611705565b92915050565b60006020820190506119166000830184611714565b92915050565b600060208201905081810360008301526119368184611723565b905092915050565b600060208201905081810360008301526119578161178d565b9050919050565b60006020820190508181036000830152611977816117b0565b9050919050565b60006020820190508181036000830152611997816117d3565b9050919050565b600060208201905081810360008301526119b781611819565b9050919050565b600060208201905081810360008301526119d78161185f565b9050919050565b60006020820190506119f36000830184611882565b92915050565b60008083356001602003843603038112611a1657611a15611e1f565b5b80840192508235915067ffffffffffffffff821115611a3857611a37611e10565b5b602083019250600182023603831315611a5457611a53611e2e565b5b509250929050565b6000611a66611a77565b9050611a728282611cea565b919050565b6000604051905090565b600067ffffffffffffffff821115611a9c57611a9b611dd7565b5b611aa582611e42565b9050602081019050919050565b600081519050919050565b600082825260208201905092915050565b600081905092915050565b6000611ae482611c2e565b9150611aef83611c2e565b9250827fffffffffffffffffffffffffffffffffffffffffffffffffffffffffffffffff03821115611b2457611b23611d1b565b5b828201905092915050565b6000611b3a82611c2e565b9150611b4583611c2e565b925082611b5557611b54611d4a565b5b828204905092915050565b6000611b6b82611c2e565b9150611b7683611c2e565b9250817fffffffffffffffffffffffffffffffffffffffffffffffffffffffffffffffff0483118215151615611baf57611bae611d1b565b5b828202905092915050565b6000611bc582611c0e565b9050919050565b60008115159050919050565b6000819050919050565b60007fffffffff0000000000000000000000000000000000000000000000000000000082169050919050565b600073ffffffffffffffffffffffffffffffffffffffff82169050919050565b6000819050919050565b600067ffffffffffffffff82169050919050565b82818337600083830152505050565b60005b83811015611c79578082015181840152602081019050611c5e565b83811115611c88576000848401525b50505050565b6000611c9982611c2e565b91506000821415611cad57611cac611d1b565b5b600182039050919050565b60006002820490506001821680611cd057607f821691505b60208210811415611ce457611ce3611d79565b5b50919050565b611cf382611e42565b810181811067ffffffffffffffff82111715611d1257611d11611dd7565b5b80604052505050565b7f4e487b7100000000000000000000000000000000000000000000000000000000600052601160045260246000fd5b7f4e487b7100000000000000000000000000000000000000000000000000000000600052601260045260246000fd5b7f4e487b7100000000000000000000000000000000000000000000000000000000600052602260045260246000fd5b7f4e487b7100000000000000000000000000000000000000000000000000000000600052603260045260246000fd5b7f4e487b7100000000000000000000000000000000000000000000000000000000600052604160045260246000fd5b600080fd5b600080fd5b600080fd5b600080fd5b600080fd5b600080fd5b600080fd5b600080fd5b600080fd5b600080fd5b600080fd5b600080fd5b6000601f19601f8301169050919050565b7f537472696e67733a20686578206c656e67746820696e73756666696369656e74600082015250565b7f496e697469616c697a61626c653a20636f6e747261637420697320616c72656160008201527f647920696e697469616c697a6564000000000000000000000000000000000000602082015250565b7f536f75726365206d75737420626520746865206f7261636c65206f662074686560008201527f2072657175657374000000000000000000000000000000000000000000000000602082015250565b7f416363657373436f6e74726f6c3a206163636f756e7420000000000000000000600082015250565b7f496e76616c696420726571756573742049640000000000000000000000000000600082015250565b7f206973206d697373696e6720726f6c6520000000000000000000000000000000600082015250565b7f416363657373436f6e74726f6c3a2063616e206f6e6c792072656e6f756e636560008201527f20726f6c657320666f722073656c660000000000000000000000000000000000602082015250565b611fed81611bba565b8114611ff857600080fd5b50565b61200481611bd8565b811461200f57600080fd5b50565b61201b81611be2565b811461202657600080fd5b50565b61203281611c2e565b811461203d57600080fd5b50565b61204981611c38565b811461205457600080fd5b5056fe68747470733a2f2f6261636b656e642d65786368616e67652d6f7261636c652d70726f642e70726976692e73746f72652f736f6e673fa2646970667358221220630a24224e21bb81ec149b7fef75b38be39f1029f9847b3400bbef2a7b55c0cb64736f6c63430008060033",
  "immutableReferences": {},
  "source": "// SPDX-License-Identifier: MIT\npragma solidity ^0.8.0;\n\nimport \"@chainlink/contracts/src/v0.8/ChainlinkClient.sol\";\nimport \"@openzeppelin/contracts/access/AccessControl.sol\";\nimport \"@openzeppelin/contracts/proxy/utils/Initializable.sol\";\nimport \"../oracles/SongOracleStructs.sol\";\nimport \"../oracles/ISongOracle.sol\";\n\n/**\n * @title oracle to get the matching song\n * @author Vijay Dhanasekaran\n */\ncontract SongOracleMock is ChainlinkClient, AccessControl, Initializable, ISongOracle {\n\n    bytes32 private constant OWNER = keccak256(\"OWNER\");\n\n    mapping(bytes32 => uint256) private _songs;\n\n    /// @notice the url to get the song\n    string public apiURL;\n\n    /// @notice the chainlink node\n    address public chainlinkNode;\n\n    /// @notice the node job id\n    bytes32 public jobId;\n\n    /// @notice the fee in LINK\n    uint256 public nodeFee;\n\n    /// @notice the address of the LINK token\n    address public linkToken;\n\n\n    // solhint-disable-next-line\n    constructor() {}\n\n    // solhint-disable-next-line\n    function initialize(SongOracleInfo memory _oracleInfo) external initializer {\n        linkToken = _oracleInfo.linkToken;\n        chainlinkNode = _oracleInfo.chainlinkNode;\n        jobId = stringToBytes32(_oracleInfo.jobId);\n        nodeFee = (_oracleInfo.nodeFee * LINK_DIVISIBILITY) / 1000;\n\n        apiURL = \"https://backend-exchange-oracle-prod.privi.store/song?\";\n\n        _setupRole(DEFAULT_ADMIN_ROLE, msg.sender);\n        _setupRole(OWNER, msg.sender);\n\n        setChainlinkToken(linkToken);\n\n        // mocked data\n        uint256 requestId = 1;\n        _songs[bytes32(requestId)] = 1;\n    }\n\n    function setOracleInfo(SongOracleInfo calldata _oracleInfo) external onlyRole(OWNER) {\n        linkToken = _oracleInfo.linkToken;\n        chainlinkNode = _oracleInfo.chainlinkNode;\n        jobId = stringToBytes32(_oracleInfo.jobId);\n        nodeFee = (_oracleInfo.nodeFee * LINK_DIVISIBILITY) / 1000; // 0.01 LINK\n\n        setChainlinkToken(linkToken);\n    }\n\n    function setAPIURL(string calldata _url) external onlyRole(OWNER) {\n        apiURL = _url;\n    }\n\n    function findSong(uint64 parentId1, uint64 parentId2) external returns (bytes32 _requestId) {\n        // Chainlink.Request memory request = buildChainlinkRequest(\n        //     jobId,\n        //     address(this),\n        //     this.fulfillSong.selector\n        // );\n        //\n        // // set the request params\n        // Chainlink.add(\n        //     request,\n        //     \"get\",\n        //     string(\n        //         abi.encodePacked(\n        //             apiURL,\n        //             \"parentId1=\",\n        //             uint2str(parentId1),\n        //             \"&parentId2=\",\n        //             uint2str(parentId2)\n        //         )\n        //     )\n        // );\n        // Chainlink.add(request, \"path\", \"songId\");\n        //\n        // // Send the request\n        // sendChainlinkRequestTo(chainlinkNode, request, nodeFee);\n\n        // mocked data\n        uint256 requestId = 1;\n        _songs[bytes32(requestId)] = 1;\n        return bytes32(requestId);\n    }\n\n\n    /**\n     * @dev Receive the response in the form of uint256\n     */\n    // solhint-disable-next-line\n    function fulfillSong(bytes32 _requestId, uint256 songId) public recordChainlinkFulfillment(_requestId) {\n      _songs[_requestId] = songId;\n    }\n\n    /**\n     * @dev returns the matching Song Id from the oracle\n     */\n    // solhint-disable-next-line\n    function getSongId(bytes32 _requestId) external view override returns (uint256) {\n        require( _requestId > 0, \"Invalid request Id\");\n        uint256 _songId = _songs[_requestId];\n        return _songId;\n    }\n\n    function stringToBytes32(string memory source) private pure returns (bytes32 result) {\n        bytes memory tempEmptyStringTest = bytes(source);\n        if (tempEmptyStringTest.length == 0) {\n            return 0x0;\n        }\n\n        // solhint-disable-next-line no-inline-assembly\n        assembly {\n            result := mload(add(source, 32))\n        }\n    }\n\n    function uint2str(uint256 _i) private pure returns (string memory _uintAsString) {\n        if (_i == 0) {\n            return \"0\";\n        }\n        uint256 j = _i;\n        uint256 len;\n        while (j != 0) {\n            len++;\n            j /= 10;\n        }\n        bytes memory bstr = new bytes(len);\n        uint256 k = len;\n        while (_i != 0) {\n            k = k - 1;\n            uint8 temp = (48 + uint8(_i - (_i / 10) * 10));\n            bytes1 b1 = bytes1(temp);\n            bstr[k] = b1;\n            _i /= 10;\n        }\n        return string(bstr);\n    }\n}\n",
  "sourcePath": "/Users/angelsatorresalmenara/Desktop/privi-trax-smart-contracts/contracts/mocks/SongOracleMock.sol",
  "compiler": {
    "name": "solc",
    "version": "0.8.6+commit.11564f7e.Emscripten.clang"
  },
  "schemaVersion": "3.4.2",
  "updatedAt": "2021-09-02T15:29:10.611Z",
  "networkType": "ethereum",
  "devdoc": {
    "author": "Vijay Dhanasekaran",
    "kind": "dev",
    "methods": {
      "fulfillSong(bytes32,uint256)": {
        "details": "Receive the response in the form of uint256"
      },
      "getRoleAdmin(bytes32)": {
        "details": "Returns the admin role that controls `role`. See {grantRole} and {revokeRole}. To change a role's admin, use {_setRoleAdmin}."
      },
      "getSongId(bytes32)": {
        "details": "returns the matching Song Id from the oracle"
      },
      "grantRole(bytes32,address)": {
        "details": "Grants `role` to `account`. If `account` had not been already granted `role`, emits a {RoleGranted} event. Requirements: - the caller must have ``role``'s admin role."
      },
      "hasRole(bytes32,address)": {
        "details": "Returns `true` if `account` has been granted `role`."
      },
      "renounceRole(bytes32,address)": {
        "details": "Revokes `role` from the calling account. Roles are often managed via {grantRole} and {revokeRole}: this function's purpose is to provide a mechanism for accounts to lose their privileges if they are compromised (such as when a trusted device is misplaced). If the calling account had been granted `role`, emits a {RoleRevoked} event. Requirements: - the caller must be `account`."
      },
      "revokeRole(bytes32,address)": {
        "details": "Revokes `role` from `account`. If `account` had been granted `role`, emits a {RoleRevoked} event. Requirements: - the caller must have ``role``'s admin role."
      },
      "supportsInterface(bytes4)": {
        "details": "See {IERC165-supportsInterface}."
      }
    },
    "title": "oracle to get the matching song",
    "version": 1
  },
  "userdoc": {
    "kind": "user",
    "methods": {
      "apiURL()": {
        "notice": "the url to get the song"
      },
      "chainlinkNode()": {
        "notice": "the chainlink node"
      },
      "jobId()": {
        "notice": "the node job id"
      },
      "linkToken()": {
        "notice": "the address of the LINK token"
      },
      "nodeFee()": {
        "notice": "the fee in LINK"
      }
    },
    "version": 1
  }
}