{
  "contractName": "SongOracle",
  "abi": [
    {
      "inputs": [],
      "stateMutability": "nonpayable",
      "type": "constructor"
    },
    {
      "anonymous": false,
      "inputs": [
        {
          "indexed": true,
          "internalType": "bytes32",
          "name": "id",
          "type": "bytes32"
        }
      ],
      "name": "ChainlinkCancelled",
      "type": "event"
    },
    {
      "anonymous": false,
      "inputs": [
        {
          "indexed": true,
          "internalType": "bytes32",
          "name": "id",
          "type": "bytes32"
        }
      ],
      "name": "ChainlinkFulfilled",
      "type": "event"
    },
    {
      "anonymous": false,
      "inputs": [
        {
          "indexed": true,
          "internalType": "bytes32",
          "name": "id",
          "type": "bytes32"
        }
      ],
      "name": "ChainlinkRequested",
      "type": "event"
    },
    {
      "anonymous": false,
      "inputs": [
        {
          "indexed": true,
          "internalType": "bytes32",
          "name": "role",
          "type": "bytes32"
        },
        {
          "indexed": true,
          "internalType": "bytes32",
          "name": "previousAdminRole",
          "type": "bytes32"
        },
        {
          "indexed": true,
          "internalType": "bytes32",
          "name": "newAdminRole",
          "type": "bytes32"
        }
      ],
      "name": "RoleAdminChanged",
      "type": "event"
    },
    {
      "anonymous": false,
      "inputs": [
        {
          "indexed": true,
          "internalType": "bytes32",
          "name": "role",
          "type": "bytes32"
        },
        {
          "indexed": true,
          "internalType": "address",
          "name": "account",
          "type": "address"
        },
        {
          "indexed": true,
          "internalType": "address",
          "name": "sender",
          "type": "address"
        }
      ],
      "name": "RoleGranted",
      "type": "event"
    },
    {
      "anonymous": false,
      "inputs": [
        {
          "indexed": true,
          "internalType": "bytes32",
          "name": "role",
          "type": "bytes32"
        },
        {
          "indexed": true,
          "internalType": "address",
          "name": "account",
          "type": "address"
        },
        {
          "indexed": true,
          "internalType": "address",
          "name": "sender",
          "type": "address"
        }
      ],
      "name": "RoleRevoked",
      "type": "event"
    },
    {
      "inputs": [],
      "name": "DEFAULT_ADMIN_ROLE",
      "outputs": [
        {
          "internalType": "bytes32",
          "name": "",
          "type": "bytes32"
        }
      ],
      "stateMutability": "view",
      "type": "function"
    },
    {
      "inputs": [],
      "name": "apiURL",
      "outputs": [
        {
          "internalType": "string",
          "name": "",
          "type": "string"
        }
      ],
      "stateMutability": "view",
      "type": "function"
    },
    {
      "inputs": [],
      "name": "chainlinkNode",
      "outputs": [
        {
          "internalType": "address",
          "name": "",
          "type": "address"
        }
      ],
      "stateMutability": "view",
      "type": "function"
    },
    {
      "inputs": [
        {
          "internalType": "bytes32",
          "name": "role",
          "type": "bytes32"
        }
      ],
      "name": "getRoleAdmin",
      "outputs": [
        {
          "internalType": "bytes32",
          "name": "",
          "type": "bytes32"
        }
      ],
      "stateMutability": "view",
      "type": "function"
    },
    {
      "inputs": [
        {
          "internalType": "bytes32",
          "name": "role",
          "type": "bytes32"
        },
        {
          "internalType": "address",
          "name": "account",
          "type": "address"
        }
      ],
      "name": "grantRole",
      "outputs": [],
      "stateMutability": "nonpayable",
      "type": "function"
    },
    {
      "inputs": [
        {
          "internalType": "bytes32",
          "name": "role",
          "type": "bytes32"
        },
        {
          "internalType": "address",
          "name": "account",
          "type": "address"
        }
      ],
      "name": "hasRole",
      "outputs": [
        {
          "internalType": "bool",
          "name": "",
          "type": "bool"
        }
      ],
      "stateMutability": "view",
      "type": "function"
    },
    {
      "inputs": [],
      "name": "jobId",
      "outputs": [
        {
          "internalType": "bytes32",
          "name": "",
          "type": "bytes32"
        }
      ],
      "stateMutability": "view",
      "type": "function"
    },
    {
      "inputs": [],
      "name": "linkToken",
      "outputs": [
        {
          "internalType": "address",
          "name": "",
          "type": "address"
        }
      ],
      "stateMutability": "view",
      "type": "function"
    },
    {
      "inputs": [],
      "name": "nodeFee",
      "outputs": [
        {
          "internalType": "uint256",
          "name": "",
          "type": "uint256"
        }
      ],
      "stateMutability": "view",
      "type": "function"
    },
    {
      "inputs": [
        {
          "internalType": "bytes32",
          "name": "role",
          "type": "bytes32"
        },
        {
          "internalType": "address",
          "name": "account",
          "type": "address"
        }
      ],
      "name": "renounceRole",
      "outputs": [],
      "stateMutability": "nonpayable",
      "type": "function"
    },
    {
      "inputs": [
        {
          "internalType": "bytes32",
          "name": "role",
          "type": "bytes32"
        },
        {
          "internalType": "address",
          "name": "account",
          "type": "address"
        }
      ],
      "name": "revokeRole",
      "outputs": [],
      "stateMutability": "nonpayable",
      "type": "function"
    },
    {
      "inputs": [
        {
          "internalType": "bytes4",
          "name": "interfaceId",
          "type": "bytes4"
        }
      ],
      "name": "supportsInterface",
      "outputs": [
        {
          "internalType": "bool",
          "name": "",
          "type": "bool"
        }
      ],
      "stateMutability": "view",
      "type": "function"
    },
    {
      "inputs": [
        {
          "components": [
            {
              "internalType": "address",
              "name": "linkToken",
              "type": "address"
            },
            {
              "internalType": "address",
              "name": "chainlinkNode",
              "type": "address"
            },
            {
              "internalType": "string",
              "name": "jobId",
              "type": "string"
            },
            {
              "internalType": "uint256",
              "name": "nodeFee",
              "type": "uint256"
            }
          ],
          "internalType": "struct SongOracleInfo",
          "name": "_oracleInfo",
          "type": "tuple"
        }
      ],
      "name": "initialize",
      "outputs": [],
      "stateMutability": "nonpayable",
      "type": "function"
    },
    {
      "inputs": [
        {
          "components": [
            {
              "internalType": "address",
              "name": "linkToken",
              "type": "address"
            },
            {
              "internalType": "address",
              "name": "chainlinkNode",
              "type": "address"
            },
            {
              "internalType": "string",
              "name": "jobId",
              "type": "string"
            },
            {
              "internalType": "uint256",
              "name": "nodeFee",
              "type": "uint256"
            }
          ],
          "internalType": "struct SongOracleInfo",
          "name": "_oracleInfo",
          "type": "tuple"
        }
      ],
      "name": "setOracleInfo",
      "outputs": [],
      "stateMutability": "nonpayable",
      "type": "function"
    },
    {
      "inputs": [
        {
          "internalType": "string",
          "name": "_url",
          "type": "string"
        }
      ],
      "name": "setAPIURL",
      "outputs": [],
      "stateMutability": "nonpayable",
      "type": "function"
    },
    {
      "inputs": [
        {
          "internalType": "uint64",
          "name": "parentId1",
          "type": "uint64"
        },
        {
          "internalType": "uint64",
          "name": "parentId2",
          "type": "uint64"
        }
      ],
      "name": "findSong",
      "outputs": [
        {
          "internalType": "bytes32",
          "name": "requestId",
          "type": "bytes32"
        }
      ],
      "stateMutability": "nonpayable",
      "type": "function"
    },
    {
      "inputs": [
        {
          "internalType": "bytes32",
          "name": "_requestId",
          "type": "bytes32"
        },
        {
          "internalType": "uint256",
          "name": "songId",
          "type": "uint256"
        }
      ],
      "name": "fulfillSong",
      "outputs": [],
      "stateMutability": "nonpayable",
      "type": "function"
    },
    {
      "inputs": [
        {
          "internalType": "bytes32",
          "name": "_requestId",
          "type": "bytes32"
        }
      ],
      "name": "getSongId",
      "outputs": [
        {
          "internalType": "uint256",
          "name": "",
          "type": "uint256"
        }
      ],
      "stateMutability": "view",
      "type": "function"
    }
  ],
  "bytecode": "0x6080604052600160045534801561001557600080fd5b5061327f806100256000396000f3fe608060405234801561001057600080fd5b50600436106101165760003560e01c8063a217fddf116100a2578063c2939d9711610071578063c2939d97146102f1578063d547741f1461030f578063f07029b91461032b578063f416253014610349578063fa19fee81461036757610116565b8063a217fddf14610269578063aa58e8ec14610287578063b2c2e0c5146102b7578063bce66e0a146102d357610116565b806357970e93116100e957806357970e93146101b35780636ee290a1146101d15780637365a43e146101ed5780637cab4cee1461020957806391d148541461023957610116565b806301ffc9a71461011b578063248a9ca31461014b5780632f2ff15d1461017b57806336568abe14610197575b600080fd5b610135600480360381019061013091906120fa565b610383565b60405161014291906126ca565b60405180910390f35b6101656004803603810190610160919061204d565b6103fd565b60405161017291906126e5565b60405180910390f35b6101956004803603810190610190919061207a565b61041d565b005b6101b160048036038101906101ac919061207a565b610446565b005b6101bb6104c9565b6040516101c891906125ec565b60405180910390f35b6101eb60048036038101906101e691906121bd565b6104ef565b005b610207600480360381019061020291906120ba565b610727565b005b610223600480360381019061021e9190612206565b610849565b60405161023091906126e5565b60405180910390f35b610253600480360381019061024e919061207a565b610997565b60405161026091906126ca565b60405180910390f35b610271610a02565b60405161027e91906126e5565b60405180910390f35b6102a1600480360381019061029c919061204d565b610a09565b6040516102ae91906127e2565b60405180910390f35b6102d160048036038101906102cc9190612174565b610a71565b005b6102db610c04565b6040516102e89190612700565b60405180910390f35b6102f9610c92565b60405161030691906126e5565b60405180910390f35b6103296004803603810190610324919061207a565b610c98565b005b610333610cc1565b60405161034091906125ec565b60405180910390f35b610351610ce7565b60405161035e91906127e2565b60405180910390f35b610381600480360381019061037c9190612127565b610ced565b005b60007f7965db0b000000000000000000000000000000000000000000000000000000007bffffffffffffffffffffffffffffffffffffffffffffffffffffffff1916827bffffffffffffffffffffffffffffffffffffffffffffffffffffffff191614806103f657506103f582610d36565b5b9050919050565b600060066000838152602001908152602001600020600101549050919050565b610426826103fd565b61043781610432610da0565b610da8565b6104418383610e45565b505050565b61044e610da0565b73ffffffffffffffffffffffffffffffffffffffff168173ffffffffffffffffffffffffffffffffffffffff16146104bb576040517f08c379a00000000000000000000000000000000000000000000000000000000081526004016104b2906127c2565b60405180910390fd5b6104c58282610f26565b5050565b600d60009054906101000a900473ffffffffffffffffffffffffffffffffffffffff1681565b600760019054906101000a900460ff16806105175750600760009054906101000a900460ff16155b610556576040517f08c379a000000000000000000000000000000000000000000000000000000000815260040161054d90612762565b60405180910390fd5b6000600760019054906101000a900460ff1615905080156105a8576001600760016101000a81548160ff0219169083151502179055506001600760006101000a81548160ff0219169083151502179055505b8160000151600d60006101000a81548173ffffffffffffffffffffffffffffffffffffffff021916908373ffffffffffffffffffffffffffffffffffffffff1602179055508160200151600a60006101000a81548173ffffffffffffffffffffffffffffffffffffffff021916908373ffffffffffffffffffffffffffffffffffffffff16021790555061063f8260400151611008565b600b819055506103e8670de0b6b3a764000083606001516106609190612b3d565b61066a919061299b565b600c81905550604051806060016040528060368152602001613214603691396009908051906020019061069e929190611c4c565b506106ac6000801b33611032565b6106d67f6270edb7c868f86fda4adedba75108201087268ea345934db8bad688e1feb91b33611032565b610701600d60009054906101000a900473ffffffffffffffffffffffffffffffffffffffff16611040565b8015610723576000600760016101000a81548160ff0219169083151502179055505b5050565b816005600082815260200190815260200160002060009054906101000a900473ffffffffffffffffffffffffffffffffffffffff1673ffffffffffffffffffffffffffffffffffffffff163373ffffffffffffffffffffffffffffffffffffffff16146107c9576040517f08c379a00000000000000000000000000000000000000000000000000000000081526004016107c090612782565b60405180910390fd5b6005600082815260200190815260200160002060006101000a81549073ffffffffffffffffffffffffffffffffffffffff0219169055807f7cc135e0cebb02c3480ae5d74d377283180a2601f8f644edf7987b009316c63a60405160405180910390a2816008600085815260200190815260200160002081905550505050565b600080610860600b5430637365a43e60e01b611084565b90506108ea816040518060400160405280600381526020017f676574000000000000000000000000000000000000000000000000000000000081525060096108b18867ffffffffffffffff166110b5565b6108c48867ffffffffffffffff166110b5565b6040516020016108d69392919061256b565b60405160208183030381529060405261123e565b61095f816040518060400160405280600481526020017f70617468000000000000000000000000000000000000000000000000000000008152506040518060400160405280600681526020017f736f6e674964000000000000000000000000000000000000000000000000000081525061123e565b61098e600a60009054906101000a900473ffffffffffffffffffffffffffffffffffffffff1682600c54611271565b91505092915050565b60006006600084815260200190815260200160002060000160008373ffffffffffffffffffffffffffffffffffffffff1673ffffffffffffffffffffffffffffffffffffffff16815260200190815260200160002060009054906101000a900460ff16905092915050565b6000801b81565b60008060001b8211610a50576040517f08c379a0000000000000000000000000000000000000000000000000000000008152600401610a47906127a2565b60405180910390fd5b60006008600084815260200190815260200160002054905080915050919050565b7f6270edb7c868f86fda4adedba75108201087268ea345934db8bad688e1feb91b610aa381610a9e610da0565b610da8565b816000016020810190610ab69190611ff3565b600d60006101000a81548173ffffffffffffffffffffffffffffffffffffffff021916908373ffffffffffffffffffffffffffffffffffffffff160217905550816020016020810190610b099190611ff3565b600a60006101000a81548173ffffffffffffffffffffffffffffffffffffffff021916908373ffffffffffffffffffffffffffffffffffffffff160217905550610ba4828060400190610b5c91906127fd565b8080601f016020809104026020016040519081016040528093929190818152602001838380828437600081840152601f19601f82011690508083019250505050505050611008565b600b819055506103e8670de0b6b3a76400008360600135610bc59190612b3d565b610bcf919061299b565b600c81905550610c00600d60009054906101000a900473ffffffffffffffffffffffffffffffffffffffff16611040565b5050565b60098054610c1190612cfa565b80601f0160208091040260200160405190810160405280929190818152602001828054610c3d90612cfa565b8015610c8a5780601f10610c5f57610100808354040283529160200191610c8a565b820191906000526020600020905b815481529060010190602001808311610c6d57829003601f168201915b505050505081565b600b5481565b610ca1826103fd565b610cb281610cad610da0565b610da8565b610cbc8383610f26565b505050565b600a60009054906101000a900473ffffffffffffffffffffffffffffffffffffffff1681565b600c5481565b7f6270edb7c868f86fda4adedba75108201087268ea345934db8bad688e1feb91b610d1f81610d1a610da0565b610da8565b828260099190610d30929190611cd2565b50505050565b60007f01ffc9a7000000000000000000000000000000000000000000000000000000007bffffffffffffffffffffffffffffffffffffffffffffffffffffffff1916827bffffffffffffffffffffffffffffffffffffffffffffffffffffffff1916149050919050565b600033905090565b610db28282610997565b610e4157610dd78173ffffffffffffffffffffffffffffffffffffffff166014611291565b610de58360001c6020611291565b604051602001610df69291906125b2565b6040516020818303038152906040526040517f08c379a0000000000000000000000000000000000000000000000000000000008152600401610e389190612700565b60405180910390fd5b5050565b610e4f8282610997565b610f225760016006600084815260200190815260200160002060000160008373ffffffffffffffffffffffffffffffffffffffff1673ffffffffffffffffffffffffffffffffffffffff16815260200190815260200160002060006101000a81548160ff021916908315150217905550610ec7610da0565b73ffffffffffffffffffffffffffffffffffffffff168173ffffffffffffffffffffffffffffffffffffffff16837f2f8788117e7eff1d82e926ec794901d17c78024a50270940304540a733656f0d60405160405180910390a45b5050565b610f308282610997565b156110045760006006600084815260200190815260200160002060000160008373ffffffffffffffffffffffffffffffffffffffff1673ffffffffffffffffffffffffffffffffffffffff16815260200190815260200160002060006101000a81548160ff021916908315150217905550610fa9610da0565b73ffffffffffffffffffffffffffffffffffffffff168173ffffffffffffffffffffffffffffffffffffffff16837ff6391f5c32d9c69d2a47ea670b442974b53935d1edc7fd64eb21e047a839171b60405160405180910390a45b5050565b600080829050600081511415611024576000801b91505061102d565b60208301519150505b919050565b61103c8282610e45565b5050565b80600260006101000a81548173ffffffffffffffffffffffffffffffffffffffff021916908373ffffffffffffffffffffffffffffffffffffffff16021790555050565b61108c611d58565b611094611d58565b6110ab858585846114cd909392919063ffffffff16565b9150509392505050565b606060008214156110fd576040518060400160405280600181526020017f30000000000000000000000000000000000000000000000000000000000000008152509050611239565b600082905060005b6000821461112f57808061111890612d5d565b915050600a82611128919061299b565b9150611105565b60008167ffffffffffffffff81111561114b5761114a612ec1565b5b6040519080825280601f01601f19166020018201604052801561117d5781602001600182028036833780820191505090505b50905060008290505b600086146112315760018161119b9190612b97565b90506000600a80886111ad919061299b565b6111b79190612b3d565b876111c29190612b97565b60306111ce9190612964565b905060008160f81b9050808484815181106111ec576111eb612e92565b5b60200101907effffffffffffffffffffffffffffffffffffffffffffffffffffffffffffff1916908160001a905350600a88611228919061299b565b97505050611186565b819450505050505b919050565b61125582846080015161157d90919063ffffffff16565b61126c81846080015161157d90919063ffffffff16565b505050565b60006112888484846001634042994660e01b6115a2565b90509392505050565b6060600060028360026112a49190612b3d565b6112ae919061290e565b67ffffffffffffffff8111156112c7576112c6612ec1565b5b6040519080825280601f01601f1916602001820160405280156112f95781602001600182028036833780820191505090505b5090507f30000000000000000000000000000000000000000000000000000000000000008160008151811061133157611330612e92565b5b60200101907effffffffffffffffffffffffffffffffffffffffffffffffffffffffffffff1916908160001a9053507f78000000000000000000000000000000000000000000000000000000000000008160018151811061139557611394612e92565b5b60200101907effffffffffffffffffffffffffffffffffffffffffffffffffffffffffffff1916908160001a905350600060018460026113d59190612b3d565b6113df919061290e565b90505b600181111561147f577f3031323334353637383961626364656600000000000000000000000000000000600f86166010811061142157611420612e92565b5b1a60f81b82828151811061143857611437612e92565b5b60200101907effffffffffffffffffffffffffffffffffffffffffffffffffffffffffffff1916908160001a905350600485901c94508061147890612cd0565b90506113e2565b50600084146114c3576040517f08c379a00000000000000000000000000000000000000000000000000000000081526004016114ba90612722565b60405180910390fd5b8091505092915050565b6114d5611d58565b6114e5856080015161010061180a565b508385600001818152505082856020019073ffffffffffffffffffffffffffffffffffffffff16908173ffffffffffffffffffffffffffffffffffffffff16815250508185604001907bffffffffffffffffffffffffffffffffffffffffffffffffffffffff191690817bffffffffffffffffffffffffffffffffffffffffffffffffffffffff191681525050849050949350505050565b61158a8260038351611874565b61159d81836119b990919063ffffffff16565b505050565b6000306004546040516020016115b992919061253f565b604051602081830303815290604052805190602001209050600454856060018181525050856005600083815260200190815260200160002060006101000a81548173ffffffffffffffffffffffffffffffffffffffff021916908373ffffffffffffffffffffffffffffffffffffffff160217905550807fb5e6e01e79f91267dc17b4e6314d5d4d03593d2ceee0fbb452b750bd70ea5af960405160405180910390a2600082600080886000015189602001518a604001518b606001518a8d6080015160000151604051602401611697989796959493929190612607565b604051602081830303815290604052907bffffffffffffffffffffffffffffffffffffffffffffffffffffffff19166020820180517bffffffffffffffffffffffffffffffffffffffffffffffffffffffff83818316178352505050509050600260009054906101000a900473ffffffffffffffffffffffffffffffffffffffff1673ffffffffffffffffffffffffffffffffffffffff16634000aea08887846040518463ffffffff1660e01b81526004016117559392919061268c565b602060405180830381600087803b15801561176f57600080fd5b505af1158015611783573d6000803e3d6000fd5b505050506040513d601f19601f820116820180604052508101906117a79190612020565b6117e6576040517f08c379a00000000000000000000000000000000000000000000000000000000081526004016117dd90612742565b60405180910390fd5b6001600460008282546117f9919061290e565b925050819055505095945050505050565b611812611dc5565b60006020836118219190612dd4565b1461184d576020826118339190612dd4565b602061183f9190612b97565b8261184a919061290e565b91505b81836020018181525050604051808452600081528281016020016040525082905092915050565b601781116118a15761189b8160058460ff16901b60ff1617846119db90919063ffffffff16565b506119b4565b60ff81116118e3576118c6601860058460ff16901b17846119db90919063ffffffff16565b506118dd816001856119fb9092919063ffffffff16565b506119b3565b61ffff811161192657611909601960058460ff16901b17846119db90919063ffffffff16565b50611920816002856119fb9092919063ffffffff16565b506119b2565b63ffffffff811161196b5761194e601a60058460ff16901b17846119db90919063ffffffff16565b50611965816004856119fb9092919063ffffffff16565b506119b1565b67ffffffffffffffff81116119b057611997601b60058460ff16901b17846119db90919063ffffffff16565b506119ae816008856119fb9092919063ffffffff16565b505b5b5b5b5b505050565b6119c1611dc5565b6119d383846000015151848551611a1d565b905092915050565b6119e3611dc5565b6119f38384600001515184611b27565b905092915050565b611a03611dc5565b611a14848560000151518585611b7e565b90509392505050565b611a25611dc5565b8251821115611a3357600080fd5b84602001518285611a44919061290e565b1115611a7957611a78856002611a6988602001518887611a64919061290e565b611c0c565b611a739190612b3d565b611c28565b5b600080865180518760208301019350808887011115611a985787860182525b60208701925050505b60208410611adf5780518252602082611aba919061290e565b9150602081611ac9919061290e565b9050602084611ad89190612b97565b9350611aa1565b60006001856020611af09190612b97565b610100611afd9190612a1f565b611b079190612b97565b905080198251168184511681811785525050879350505050949350505050565b611b2f611dc5565b83602001518310611b5557611b548460028660200151611b4f9190612b3d565b611c28565b5b8351805160208583010184815381861415611b71576001820183525b5050508390509392505050565b611b86611dc5565b84602001518483611b97919061290e565b1115611bbf57611bbe8560028685611baf919061290e565b611bb99190612b3d565b611c28565b5b6000600183610100611bd19190612a1f565b611bdb9190612b97565b90508551838682010185831982511617815281518588011115611bfe5784870182525b505085915050949350505050565b600081831115611c1e57829050611c22565b8190505b92915050565b600082600001519050611c3b838361180a565b50611c4683826119b9565b50505050565b828054611c5890612cfa565b90600052602060002090601f016020900481019282611c7a5760008555611cc1565b82601f10611c9357805160ff1916838001178555611cc1565b82800160010185558215611cc1579182015b82811115611cc0578251825591602001919060010190611ca5565b5b509050611cce9190611ddf565b5090565b828054611cde90612cfa565b90600052602060002090601f016020900481019282611d005760008555611d47565b82601f10611d1957803560ff1916838001178555611d47565b82800160010185558215611d47579182015b82811115611d46578235825591602001919060010190611d2b565b5b509050611d549190611ddf565b5090565b6040518060a0016040528060008019168152602001600073ffffffffffffffffffffffffffffffffffffffff16815260200160007bffffffffffffffffffffffffffffffffffffffffffffffffffffffff1916815260200160008152602001611dbf611dc5565b81525090565b604051806040016040528060608152602001600081525090565b5b80821115611df8576000816000905550600101611de0565b5090565b6000611e0f611e0a84612885565b612860565b905082815260208101848484011115611e2b57611e2a612f1d565b5b611e36848285612c8e565b509392505050565b600081359050611e4d81613189565b92915050565b600081519050611e62816131a0565b92915050565b600081359050611e77816131b7565b92915050565b600081359050611e8c816131ce565b92915050565b60008083601f840112611ea857611ea7612ef5565b5b8235905067ffffffffffffffff811115611ec557611ec4612ef0565b5b602083019150836001820283011115611ee157611ee0612f13565b5b9250929050565b600082601f830112611efd57611efc612ef5565b5b8135611f0d848260208601611dfc565b91505092915050565b600060808284031215611f2c57611f2b612eff565b5b81905092915050565b600060808284031215611f4b57611f4a612f04565b5b611f556080612860565b90506000611f6584828501611e3e565b6000830152506020611f7984828501611e3e565b602083015250604082013567ffffffffffffffff811115611f9d57611f9c612f0e565b5b611fa984828501611ee8565b6040830152506060611fbd84828501611fc9565b60608301525092915050565b600081359050611fd8816131e5565b92915050565b600081359050611fed816131fc565b92915050565b60006020828403121561200957612008612f27565b5b600061201784828501611e3e565b91505092915050565b60006020828403121561203657612035612f27565b5b600061204484828501611e53565b91505092915050565b60006020828403121561206357612062612f27565b5b600061207184828501611e68565b91505092915050565b6000806040838503121561209157612090612f27565b5b600061209f85828601611e68565b92505060206120b085828601611e3e565b9150509250929050565b600080604083850312156120d1576120d0612f27565b5b60006120df85828601611e68565b92505060206120f085828601611fc9565b9150509250929050565b6000602082840312156121105761210f612f27565b5b600061211e84828501611e7d565b91505092915050565b6000806020838503121561213e5761213d612f27565b5b600083013567ffffffffffffffff81111561215c5761215b612f22565b5b61216885828601611e92565b92509250509250929050565b60006020828403121561218a57612189612f27565b5b600082013567ffffffffffffffff8111156121a8576121a7612f22565b5b6121b484828501611f16565b91505092915050565b6000602082840312156121d3576121d2612f27565b5b600082013567ffffffffffffffff8111156121f1576121f0612f22565b5b6121fd84828501611f35565b91505092915050565b6000806040838503121561221d5761221c612f27565b5b600061222b85828601611fde565b925050602061223c85828601611fde565b9150509250929050565b61224f81612bcb565b82525050565b61225e81612bdd565b82525050565b61226d81612be9565b82525050565b61227c81612bf3565b82525050565b600061228d826128cb565b61229781856128e1565b93506122a7818560208601612c9d565b6122b081612f2c565b840191505092915050565b6122cc6122c782612c6a565b612da6565b82525050565b60006122dd826128d6565b6122e781856128f2565b93506122f7818560208601612c9d565b61230081612f2c565b840191505092915050565b6000612316826128d6565b6123208185612903565b9350612330818560208601612c9d565b80840191505092915050565b6000815461234981612cfa565b6123538186612903565b9450600182166000811461236e576001811461237f576123b2565b60ff198316865281860193506123b2565b612388856128b6565b60005b838110156123aa5781548189015260018201915060208101905061238b565b838801955050505b50505092915050565b60006123c86020836128f2565b91506123d382612f57565b602082019050919050565b60006123eb6023836128f2565b91506123f682612f80565b604082019050919050565b600061240e600b83612903565b915061241982612fcf565b600b82019050919050565b6000612431602e836128f2565b915061243c82612ff8565b604082019050919050565b60006124546028836128f2565b915061245f82613047565b604082019050919050565b6000612477601783612903565b915061248282613096565b601782019050919050565b600061249a600a83612903565b91506124a5826130bf565b600a82019050919050565b60006124bd6012836128f2565b91506124c8826130e8565b602082019050919050565b60006124e0601183612903565b91506124eb82613111565b601182019050919050565b6000612503602f836128f2565b915061250e8261313a565b604082019050919050565b61252281612c3f565b82525050565b61253961253482612c3f565b612dca565b82525050565b600061254b82856122bb565b60148201915061255b8284612528565b6020820191508190509392505050565b6000612577828661233c565b91506125828261248d565b915061258e828561230b565b915061259982612401565b91506125a5828461230b565b9150819050949350505050565b60006125bd8261246a565b91506125c9828561230b565b91506125d4826124d3565b91506125e0828461230b565b91508190509392505050565b60006020820190506126016000830184612246565b92915050565b60006101008201905061261d600083018b612246565b61262a602083018a612519565b6126376040830189612264565b6126446060830188612246565b6126516080830187612273565b61265e60a0830186612519565b61266b60c0830185612519565b81810360e083015261267d8184612282565b90509998505050505050505050565b60006060820190506126a16000830186612246565b6126ae6020830185612519565b81810360408301526126c08184612282565b9050949350505050565b60006020820190506126df6000830184612255565b92915050565b60006020820190506126fa6000830184612264565b92915050565b6000602082019050818103600083015261271a81846122d2565b905092915050565b6000602082019050818103600083015261273b816123bb565b9050919050565b6000602082019050818103600083015261275b816123de565b9050919050565b6000602082019050818103600083015261277b81612424565b9050919050565b6000602082019050818103600083015261279b81612447565b9050919050565b600060208201905081810360008301526127bb816124b0565b9050919050565b600060208201905081810360008301526127db816124f6565b9050919050565b60006020820190506127f76000830184612519565b92915050565b6000808335600160200384360303811261281a57612819612f09565b5b80840192508235915067ffffffffffffffff82111561283c5761283b612efa565b5b60208301925060018202360383131561285857612857612f18565b5b509250929050565b600061286a61287b565b90506128768282612d2c565b919050565b6000604051905090565b600067ffffffffffffffff8211156128a05761289f612ec1565b5b6128a982612f2c565b9050602081019050919050565b60008190508160005260206000209050919050565b600081519050919050565b600081519050919050565b600082825260208201905092915050565b600082825260208201905092915050565b600081905092915050565b600061291982612c3f565b915061292483612c3f565b9250827fffffffffffffffffffffffffffffffffffffffffffffffffffffffffffffffff0382111561295957612958612e05565b5b828201905092915050565b600061296f82612c5d565b915061297a83612c5d565b92508260ff038211156129905761298f612e05565b5b828201905092915050565b60006129a682612c3f565b91506129b183612c3f565b9250826129c1576129c0612e34565b5b828204905092915050565b6000808291508390505b6001851115612a16578086048111156129f2576129f1612e05565b5b6001851615612a015780820291505b8081029050612a0f85612f4a565b94506129d6565b94509492505050565b6000612a2a82612c3f565b9150612a3583612c3f565b9250612a627fffffffffffffffffffffffffffffffffffffffffffffffffffffffffffffffff8484612a6a565b905092915050565b600082612a7a5760019050612b36565b81612a885760009050612b36565b8160018114612a9e5760028114612aa857612ad7565b6001915050612b36565b60ff841115612aba57612ab9612e05565b5b8360020a915084821115612ad157612ad0612e05565b5b50612b36565b5060208310610133831016604e8410600b8410161715612b0c5782820a905083811115612b0757612b06612e05565b5b612b36565b612b1984848460016129cc565b92509050818404811115612b3057612b2f612e05565b5b81810290505b9392505050565b6000612b4882612c3f565b9150612b5383612c3f565b9250817fffffffffffffffffffffffffffffffffffffffffffffffffffffffffffffffff0483118215151615612b8c57612b8b612e05565b5b828202905092915050565b6000612ba282612c3f565b9150612bad83612c3f565b925082821015612bc057612bbf612e05565b5b828203905092915050565b6000612bd682612c1f565b9050919050565b60008115159050919050565b6000819050919050565b60007fffffffff0000000000000000000000000000000000000000000000000000000082169050919050565b600073ffffffffffffffffffffffffffffffffffffffff82169050919050565b6000819050919050565b600067ffffffffffffffff82169050919050565b600060ff82169050919050565b6000612c7582612c7c565b9050919050565b6000612c8782612c1f565b9050919050565b82818337600083830152505050565b60005b83811015612cbb578082015181840152602081019050612ca0565b83811115612cca576000848401525b50505050565b6000612cdb82612c3f565b91506000821415612cef57612cee612e05565b5b600182039050919050565b60006002820490506001821680612d1257607f821691505b60208210811415612d2657612d25612e63565b5b50919050565b612d3582612f2c565b810181811067ffffffffffffffff82111715612d5457612d53612ec1565b5b80604052505050565b6000612d6882612c3f565b91507fffffffffffffffffffffffffffffffffffffffffffffffffffffffffffffffff821415612d9b57612d9a612e05565b5b600182019050919050565b6000612db182612db8565b9050919050565b6000612dc382612f3d565b9050919050565b6000819050919050565b6000612ddf82612c3f565b9150612dea83612c3f565b925082612dfa57612df9612e34565b5b828206905092915050565b7f4e487b7100000000000000000000000000000000000000000000000000000000600052601160045260246000fd5b7f4e487b7100000000000000000000000000000000000000000000000000000000600052601260045260246000fd5b7f4e487b7100000000000000000000000000000000000000000000000000000000600052602260045260246000fd5b7f4e487b7100000000000000000000000000000000000000000000000000000000600052603260045260246000fd5b7f4e487b7100000000000000000000000000000000000000000000000000000000600052604160045260246000fd5b600080fd5b600080fd5b600080fd5b600080fd5b600080fd5b600080fd5b600080fd5b600080fd5b600080fd5b600080fd5b600080fd5b600080fd5b6000601f19601f8301169050919050565b60008160601b9050919050565b60008160011c9050919050565b7f537472696e67733a20686578206c656e67746820696e73756666696369656e74600082015250565b7f756e61626c6520746f207472616e73666572416e6443616c6c20746f206f726160008201527f636c650000000000000000000000000000000000000000000000000000000000602082015250565b7f26706172656e744964323d000000000000000000000000000000000000000000600082015250565b7f496e697469616c697a61626c653a20636f6e747261637420697320616c72656160008201527f647920696e697469616c697a6564000000000000000000000000000000000000602082015250565b7f536f75726365206d75737420626520746865206f7261636c65206f662074686560008201527f2072657175657374000000000000000000000000000000000000000000000000602082015250565b7f416363657373436f6e74726f6c3a206163636f756e7420000000000000000000600082015250565b7f706172656e744964313d00000000000000000000000000000000000000000000600082015250565b7f496e76616c696420726571756573742049640000000000000000000000000000600082015250565b7f206973206d697373696e6720726f6c6520000000000000000000000000000000600082015250565b7f416363657373436f6e74726f6c3a2063616e206f6e6c792072656e6f756e636560008201527f20726f6c657320666f722073656c660000000000000000000000000000000000602082015250565b61319281612bcb565b811461319d57600080fd5b50565b6131a981612bdd565b81146131b457600080fd5b50565b6131c081612be9565b81146131cb57600080fd5b50565b6131d781612bf3565b81146131e257600080fd5b50565b6131ee81612c3f565b81146131f957600080fd5b50565b61320581612c49565b811461321057600080fd5b5056fe68747470733a2f2f6261636b656e642d65786368616e67652d6f7261636c652d70726f642e70726976692e73746f72652f736f6e673fa2646970667358221220d427d0207af25193f4cebe4a328634b3145f2ebb561bd04ebe8693c041fd869164736f6c63430008060033",
  "immutableReferences": {},
  "source": "// SPDX-License-Identifier: MIT\npragma solidity ^0.8.0;\n\nimport \"@chainlink/contracts/src/v0.8/ChainlinkClient.sol\";\nimport \"@openzeppelin/contracts/access/AccessControl.sol\";\nimport \"@openzeppelin/contracts/proxy/utils/Initializable.sol\";\nimport \"./SongOracleStructs.sol\";\nimport \"./ISongOracle.sol\";\n\n/**\n * @title oracle to get the matching song\n * @author Vijay Dhanasekaran\n */\ncontract SongOracle is ChainlinkClient, AccessControl, Initializable, ISongOracle {\n\n    bytes32 private constant OWNER = keccak256(\"OWNER\");\n\n    mapping(bytes32 => uint256) private _songs;\n\n    /// @notice the url to get the song\n    string public apiURL;\n\n    /// @notice the chainlink node\n    address public chainlinkNode;\n\n    /// @notice the node job id\n    bytes32 public jobId;\n\n    /// @notice the fee in LINK\n    uint256 public nodeFee;\n\n    /// @notice the address of the LINK token\n    address public linkToken;\n\n    // solhint-disable-next-line\n    constructor() {}\n\n    // solhint-disable-next-line\n    function initialize( SongOracleInfo memory _oracleInfo ) external initializer {\n        linkToken = _oracleInfo.linkToken;\n        chainlinkNode = _oracleInfo.chainlinkNode;\n        jobId = stringToBytes32(_oracleInfo.jobId);\n        nodeFee = (_oracleInfo.nodeFee * LINK_DIVISIBILITY) / 1000;\n\n        apiURL = \"https://backend-exchange-oracle-prod.privi.store/song?\";\n\n        _setupRole(DEFAULT_ADMIN_ROLE, msg.sender);\n        _setupRole(OWNER, msg.sender);\n\n        setChainlinkToken(linkToken);\n    }\n\n    function setOracleInfo(SongOracleInfo calldata _oracleInfo) external onlyRole(OWNER) {\n        linkToken = _oracleInfo.linkToken;\n        chainlinkNode = _oracleInfo.chainlinkNode;\n        jobId = stringToBytes32(_oracleInfo.jobId);\n        nodeFee = (_oracleInfo.nodeFee * LINK_DIVISIBILITY) / 1000; // 0.01 LINK\n\n        setChainlinkToken(linkToken);\n    }\n\n    function setAPIURL(string calldata _url) external onlyRole(OWNER) {\n        apiURL = _url;\n    }\n\n    function findSong(uint64 parentId1, uint64 parentId2) external returns (bytes32 requestId) {\n\n        Chainlink.Request memory request = buildChainlinkRequest(\n            jobId,\n            address(this),\n            this.fulfillSong.selector\n        );\n\n        // set the request params\n        Chainlink.add(\n            request,\n            \"get\",\n            string(\n                abi.encodePacked(\n                    apiURL,\n                    \"parentId1=\",\n                    uint2str(parentId1),\n                    \"&parentId2=\",\n                    uint2str(parentId2)\n                )\n            )\n        );\n        Chainlink.add(request, \"path\", \"songId\");\n\n        // Send the request\n        return sendChainlinkRequestTo(chainlinkNode, request, nodeFee);\n    }\n\n\n    /**\n     * @dev Receive the response in the form of uint256\n     */\n    // solhint-disable-next-line\n    function fulfillSong(bytes32 _requestId, uint256 songId) public recordChainlinkFulfillment(_requestId) {\n      _songs[_requestId] = songId;\n    }\n\n    /**\n     * @dev returns the matching Song Id from the oracle\n     */\n    // solhint-disable-next-line\n    function getSongId(bytes32 _requestId) external view override returns (uint256) {\n        require( _requestId > 0, \"Invalid request Id\");\n        uint256 _songId = _songs[_requestId];\n        return _songId;\n    }\n\n    function stringToBytes32(string memory source) private pure returns (bytes32 result) {\n        bytes memory tempEmptyStringTest = bytes(source);\n        if (tempEmptyStringTest.length == 0) {\n            return 0x0;\n        }\n\n        // solhint-disable-next-line no-inline-assembly\n        assembly {\n            result := mload(add(source, 32))\n        }\n    }\n\n    function uint2str(uint256 _i) private pure returns (string memory _uintAsString) {\n        if (_i == 0) {\n            return \"0\";\n        }\n        uint256 j = _i;\n        uint256 len;\n        while (j != 0) {\n            len++;\n            j /= 10;\n        }\n        bytes memory bstr = new bytes(len);\n        uint256 k = len;\n        while (_i != 0) {\n            k = k - 1;\n            uint8 temp = (48 + uint8(_i - (_i / 10) * 10));\n            bytes1 b1 = bytes1(temp);\n            bstr[k] = b1;\n            _i /= 10;\n        }\n        return string(bstr);\n    }\n}\n",
  "sourcePath": "/Users/angelsatorresalmenara/Desktop/privi-trax-smart-contracts/contracts/oracles/SongOracle.sol",
  "compiler": {
    "name": "solc",
    "version": "0.8.6+commit.11564f7e.Emscripten.clang"
  },
  "schemaVersion": "3.4.2",
  "updatedAt": "2021-09-02T15:29:10.589Z",
  "networkType": "ethereum",
  "devdoc": {
    "author": "Vijay Dhanasekaran",
    "kind": "dev",
    "methods": {
      "fulfillSong(bytes32,uint256)": {
        "details": "Receive the response in the form of uint256"
      },
      "getRoleAdmin(bytes32)": {
        "details": "Returns the admin role that controls `role`. See {grantRole} and {revokeRole}. To change a role's admin, use {_setRoleAdmin}."
      },
      "getSongId(bytes32)": {
        "details": "returns the matching Song Id from the oracle"
      },
      "grantRole(bytes32,address)": {
        "details": "Grants `role` to `account`. If `account` had not been already granted `role`, emits a {RoleGranted} event. Requirements: - the caller must have ``role``'s admin role."
      },
      "hasRole(bytes32,address)": {
        "details": "Returns `true` if `account` has been granted `role`."
      },
      "renounceRole(bytes32,address)": {
        "details": "Revokes `role` from the calling account. Roles are often managed via {grantRole} and {revokeRole}: this function's purpose is to provide a mechanism for accounts to lose their privileges if they are compromised (such as when a trusted device is misplaced). If the calling account had been granted `role`, emits a {RoleRevoked} event. Requirements: - the caller must be `account`."
      },
      "revokeRole(bytes32,address)": {
        "details": "Revokes `role` from `account`. If `account` had been granted `role`, emits a {RoleRevoked} event. Requirements: - the caller must have ``role``'s admin role."
      },
      "supportsInterface(bytes4)": {
        "details": "See {IERC165-supportsInterface}."
      }
    },
    "title": "oracle to get the matching song",
    "version": 1
  },
  "userdoc": {
    "kind": "user",
    "methods": {
      "apiURL()": {
        "notice": "the url to get the song"
      },
      "chainlinkNode()": {
        "notice": "the chainlink node"
      },
      "jobId()": {
        "notice": "the node job id"
      },
      "linkToken()": {
        "notice": "the address of the LINK token"
      },
      "nodeFee()": {
        "notice": "the fee in LINK"
      }
    },
    "version": 1
  }
}