{
  "contractName": "StablecoinStakeToken",
  "abi": [
    {
      "inputs": [
        {
          "internalType": "address",
          "name": "stablecoinTokenAddress",
          "type": "address"
        },
        {
          "internalType": "address",
          "name": "automatedInvestorAddress",
          "type": "address"
        }
      ],
      "stateMutability": "nonpayable",
      "type": "constructor"
    },
    {
      "anonymous": false,
      "inputs": [
        {
          "indexed": true,
          "internalType": "address",
          "name": "owner",
          "type": "address"
        },
        {
          "indexed": true,
          "internalType": "address",
          "name": "approved",
          "type": "address"
        },
        {
          "indexed": true,
          "internalType": "uint256",
          "name": "tokenId",
          "type": "uint256"
        }
      ],
      "name": "Approval",
      "type": "event"
    },
    {
      "anonymous": false,
      "inputs": [
        {
          "indexed": true,
          "internalType": "address",
          "name": "owner",
          "type": "address"
        },
        {
          "indexed": true,
          "internalType": "address",
          "name": "operator",
          "type": "address"
        },
        {
          "indexed": false,
          "internalType": "bool",
          "name": "approved",
          "type": "bool"
        }
      ],
      "name": "ApprovalForAll",
      "type": "event"
    },
    {
      "anonymous": false,
      "inputs": [
        {
          "indexed": true,
          "internalType": "address",
          "name": "holder",
          "type": "address"
        },
        {
          "indexed": false,
          "internalType": "uint256",
          "name": "nftId",
          "type": "uint256"
        },
        {
          "indexed": false,
          "internalType": "uint256",
          "name": "position",
          "type": "uint256"
        },
        {
          "indexed": false,
          "internalType": "uint256",
          "name": "amount",
          "type": "uint256"
        }
      ],
      "name": "StakeTokens",
      "type": "event"
    },
    {
      "anonymous": false,
      "inputs": [
        {
          "indexed": true,
          "internalType": "address",
          "name": "from",
          "type": "address"
        },
        {
          "indexed": true,
          "internalType": "address",
          "name": "to",
          "type": "address"
        },
        {
          "indexed": true,
          "internalType": "uint256",
          "name": "tokenId",
          "type": "uint256"
        }
      ],
      "name": "Transfer",
      "type": "event"
    },
    {
      "inputs": [
        {
          "internalType": "address",
          "name": "to",
          "type": "address"
        },
        {
          "internalType": "uint256",
          "name": "tokenId",
          "type": "uint256"
        }
      ],
      "name": "approve",
      "outputs": [],
      "stateMutability": "nonpayable",
      "type": "function"
    },
    {
      "inputs": [
        {
          "internalType": "address",
          "name": "owner",
          "type": "address"
        }
      ],
      "name": "balanceOf",
      "outputs": [
        {
          "internalType": "uint256",
          "name": "",
          "type": "uint256"
        }
      ],
      "stateMutability": "view",
      "type": "function"
    },
    {
      "inputs": [
        {
          "internalType": "uint256",
          "name": "tokenId",
          "type": "uint256"
        }
      ],
      "name": "getApproved",
      "outputs": [
        {
          "internalType": "address",
          "name": "",
          "type": "address"
        }
      ],
      "stateMutability": "view",
      "type": "function"
    },
    {
      "inputs": [
        {
          "internalType": "address",
          "name": "owner",
          "type": "address"
        },
        {
          "internalType": "address",
          "name": "operator",
          "type": "address"
        }
      ],
      "name": "isApprovedForAll",
      "outputs": [
        {
          "internalType": "bool",
          "name": "",
          "type": "bool"
        }
      ],
      "stateMutability": "view",
      "type": "function"
    },
    {
      "inputs": [
        {
          "internalType": "uint256",
          "name": "tokenId",
          "type": "uint256"
        }
      ],
      "name": "ownerOf",
      "outputs": [
        {
          "internalType": "address",
          "name": "",
          "type": "address"
        }
      ],
      "stateMutability": "view",
      "type": "function"
    },
    {
      "inputs": [
        {
          "internalType": "address",
          "name": "from",
          "type": "address"
        },
        {
          "internalType": "address",
          "name": "to",
          "type": "address"
        },
        {
          "internalType": "uint256",
          "name": "tokenId",
          "type": "uint256"
        }
      ],
      "name": "safeTransferFrom",
      "outputs": [],
      "stateMutability": "nonpayable",
      "type": "function"
    },
    {
      "inputs": [
        {
          "internalType": "address",
          "name": "from",
          "type": "address"
        },
        {
          "internalType": "address",
          "name": "to",
          "type": "address"
        },
        {
          "internalType": "uint256",
          "name": "tokenId",
          "type": "uint256"
        },
        {
          "internalType": "bytes",
          "name": "_data",
          "type": "bytes"
        }
      ],
      "name": "safeTransferFrom",
      "outputs": [],
      "stateMutability": "nonpayable",
      "type": "function"
    },
    {
      "inputs": [
        {
          "internalType": "address",
          "name": "operator",
          "type": "address"
        },
        {
          "internalType": "bool",
          "name": "approved",
          "type": "bool"
        }
      ],
      "name": "setApprovalForAll",
      "outputs": [],
      "stateMutability": "nonpayable",
      "type": "function"
    },
    {
      "inputs": [
        {
          "internalType": "bytes4",
          "name": "interfaceId",
          "type": "bytes4"
        }
      ],
      "name": "supportsInterface",
      "outputs": [
        {
          "internalType": "bool",
          "name": "",
          "type": "bool"
        }
      ],
      "stateMutability": "view",
      "type": "function"
    },
    {
      "inputs": [
        {
          "internalType": "uint256",
          "name": "",
          "type": "uint256"
        }
      ],
      "name": "tokenParentNFTId",
      "outputs": [
        {
          "internalType": "uint256",
          "name": "",
          "type": "uint256"
        }
      ],
      "stateMutability": "view",
      "type": "function"
    },
    {
      "inputs": [
        {
          "internalType": "uint256",
          "name": "",
          "type": "uint256"
        }
      ],
      "name": "tokenStakedAmount",
      "outputs": [
        {
          "internalType": "uint256",
          "name": "",
          "type": "uint256"
        }
      ],
      "stateMutability": "view",
      "type": "function"
    },
    {
      "inputs": [
        {
          "internalType": "uint256",
          "name": "tokenId",
          "type": "uint256"
        }
      ],
      "name": "tokenURI",
      "outputs": [
        {
          "internalType": "string",
          "name": "",
          "type": "string"
        }
      ],
      "stateMutability": "view",
      "type": "function"
    },
    {
      "inputs": [
        {
          "internalType": "address",
          "name": "from",
          "type": "address"
        },
        {
          "internalType": "address",
          "name": "to",
          "type": "address"
        },
        {
          "internalType": "uint256",
          "name": "tokenId",
          "type": "uint256"
        }
      ],
      "name": "transferFrom",
      "outputs": [],
      "stateMutability": "nonpayable",
      "type": "function"
    },
    {
      "inputs": [
        {
          "internalType": "string",
          "name": "_name",
          "type": "string"
        },
        {
          "internalType": "string",
          "name": "_symbol",
          "type": "string"
        },
        {
          "internalType": "address",
          "name": "__traxStakeTokenAddr",
          "type": "address"
        }
      ],
      "name": "initialize",
      "outputs": [],
      "stateMutability": "nonpayable",
      "type": "function"
    },
    {
      "inputs": [],
      "name": "name",
      "outputs": [
        {
          "internalType": "string",
          "name": "",
          "type": "string"
        }
      ],
      "stateMutability": "view",
      "type": "function"
    },
    {
      "inputs": [],
      "name": "symbol",
      "outputs": [
        {
          "internalType": "string",
          "name": "",
          "type": "string"
        }
      ],
      "stateMutability": "view",
      "type": "function"
    },
    {
      "inputs": [
        {
          "internalType": "uint256",
          "name": "_nftId",
          "type": "uint256"
        },
        {
          "internalType": "uint256",
          "name": "_amount",
          "type": "uint256"
        }
      ],
      "name": "stake",
      "outputs": [],
      "stateMutability": "nonpayable",
      "type": "function"
    }
  ],
  "bytecode": "0x60c06040523480156200001157600080fd5b506040516200345738038062003457833981810160405281019062000037919062000214565b6040518060400160405280601c81526020017f507269766920537461626c65636f696e205374616b6520546f6b656e000000008152506040518060400160405280600481526020017f70535354000000000000000000000000000000000000000000000000000000008152508160009080519060200190620000bb9291906200014d565b508060019080519060200190620000d49291906200014d565b5050508173ffffffffffffffffffffffffffffffffffffffff1660808173ffffffffffffffffffffffffffffffffffffffff1660601b815250508073ffffffffffffffffffffffffffffffffffffffff1660a08173ffffffffffffffffffffffffffffffffffffffff1660601b81525050505062000313565b8280546200015b906200028f565b90600052602060002090601f0160209004810192826200017f5760008555620001cb565b82601f106200019a57805160ff1916838001178555620001cb565b82800160010185558215620001cb579182015b82811115620001ca578251825591602001919060010190620001ad565b5b509050620001da9190620001de565b5090565b5b80821115620001f9576000816000905550600101620001df565b5090565b6000815190506200020e81620002f9565b92915050565b600080604083850312156200022e576200022d620002f4565b5b60006200023e85828601620001fd565b92505060206200025185828601620001fd565b9150509250929050565b600062000268826200026f565b9050919050565b600073ffffffffffffffffffffffffffffffffffffffff82169050919050565b60006002820490506001821680620002a857607f821691505b60208210811415620002bf57620002be620002c5565b5b50919050565b7f4e487b7100000000000000000000000000000000000000000000000000000000600052602260045260246000fd5b600080fd5b62000304816200025b565b81146200031057600080fd5b50565b60805160601c60a05160601c6131186200033f6000396000610c3201526000610bf501526131186000f3fe608060405234801561001057600080fd5b506004361061010b5760003560e01c8063640ba1a3116100a257806395d89b411161007157806395d89b41146102da578063a22cb465146102f8578063b88d4fde14610314578063c87b56dd14610330578063e985e9c5146103605761010b565b8063640ba1a31461022e57806370a082311461025e5780637b0472f01461028e578063820b3114146102aa5761010b565b8063095ea7b3116100de578063095ea7b3146101aa57806323b872dd146101c657806342842e0e146101e25780636352211e146101fe5761010b565b806301ffc9a71461011057806306fdde0314610140578063077f224a1461015e578063081812fc1461017a575b600080fd5b61012a60048036038101906101259190611fe7565b610390565b6040516101379190612555565b60405180910390f35b610148610472565b6040516101559190612570565b60405180910390f35b61017860048036038101906101739190612041565b610504565b005b610194600480360381019061018f91906120d6565b61068d565b6040516101a191906124b7565b60405180910390f35b6101c460048036038101906101bf9190611f7a565b610712565b005b6101e060048036038101906101db9190611e64565b61082a565b005b6101fc60048036038101906101f79190611e64565b61088a565b005b610218600480360381019061021391906120d6565b6108aa565b60405161022591906124b7565b60405180910390f35b610248600480360381019061024391906120d6565b61095c565b60405161025591906127b2565b60405180910390f35b61027860048036038101906102739190611dca565b610974565b60405161028591906127b2565b60405180910390f35b6102a860048036038101906102a39190612130565b610a2c565b005b6102c460048036038101906102bf91906120d6565b610dab565b6040516102d191906127b2565b60405180910390f35b6102e2610dc3565b6040516102ef9190612570565b60405180910390f35b610312600480360381019061030d9190611f3a565b610e55565b005b61032e60048036038101906103299190611eb7565b610fd6565b005b61034a600480360381019061034591906120d6565b611038565b6040516103579190612570565b60405180910390f35b61037a60048036038101906103759190611e24565b6110df565b6040516103879190612555565b60405180910390f35b60007f80ac58cd000000000000000000000000000000000000000000000000000000007bffffffffffffffffffffffffffffffffffffffffffffffffffffffff1916827bffffffffffffffffffffffffffffffffffffffffffffffffffffffff1916148061045b57507f5b5e139f000000000000000000000000000000000000000000000000000000007bffffffffffffffffffffffffffffffffffffffffffffffffffffffff1916827bffffffffffffffffffffffffffffffffffffffffffffffffffffffff1916145b8061046b575061046a82611173565b5b9050919050565b6060600a805461048190612a0e565b80601f01602080910402602001604051908101604052809291908181526020018280546104ad90612a0e565b80156104fa5780601f106104cf576101008083540402835291602001916104fa565b820191906000526020600020905b8154815290600101906020018083116104dd57829003601f168201915b5050505050905090565b600660019054906101000a900460ff168061052c5750600660009054906101000a900460ff16155b61056b576040517f08c379a0000000000000000000000000000000000000000000000000000000008152600401610562906126d2565b60405180910390fd5b6000600660019054906101000a900460ff1615905080156105bd576001600660016101000a81548160ff0219169083151502179055506001600660006101000a81548160ff0219169083151502179055505b8585600a91906105ce929190611bb9565b508383600b91906105e0929190611bb9565b5033600860006101000a81548173ffffffffffffffffffffffffffffffffffffffff021916908373ffffffffffffffffffffffffffffffffffffffff16021790555081600960006101000a81548173ffffffffffffffffffffffffffffffffffffffff021916908373ffffffffffffffffffffffffffffffffffffffff1602179055508015610685576000600660016101000a81548160ff0219169083151502179055505b505050505050565b6000610698826111dd565b6106d7576040517f08c379a00000000000000000000000000000000000000000000000000000000081526004016106ce90612712565b60405180910390fd5b6004600083815260200190815260200160002060009054906101000a900473ffffffffffffffffffffffffffffffffffffffff169050919050565b600061071d826108aa565b90508073ffffffffffffffffffffffffffffffffffffffff168373ffffffffffffffffffffffffffffffffffffffff16141561078e576040517f08c379a000000000000000000000000000000000000000000000000000000000815260040161078590612772565b60405180910390fd5b8073ffffffffffffffffffffffffffffffffffffffff166107ad611249565b73ffffffffffffffffffffffffffffffffffffffff1614806107dc57506107db816107d6611249565b6110df565b5b61081b576040517f08c379a000000000000000000000000000000000000000000000000000000000815260040161081290612632565b60405180910390fd5b6108258383611251565b505050565b61083b610835611249565b8261130a565b61087a576040517f08c379a000000000000000000000000000000000000000000000000000000000815260040161087190612792565b60405180910390fd5b6108858383836113e8565b505050565b6108a583838360405180602001604052806000815250610fd6565b505050565b6000806002600084815260200190815260200160002060009054906101000a900473ffffffffffffffffffffffffffffffffffffffff169050600073ffffffffffffffffffffffffffffffffffffffff168173ffffffffffffffffffffffffffffffffffffffff161415610953576040517f08c379a000000000000000000000000000000000000000000000000000000000815260040161094a90612692565b60405180910390fd5b80915050919050565b600d6020528060005260406000206000915090505481565b60008073ffffffffffffffffffffffffffffffffffffffff168273ffffffffffffffffffffffffffffffffffffffff1614156109e5576040517f08c379a00000000000000000000000000000000000000000000000000000000081526004016109dc90612672565b60405180910390fd5b600360008373ffffffffffffffffffffffffffffffffffffffff1673ffffffffffffffffffffffffffffffffffffffff168152602001908152602001600020549050919050565b3373ffffffffffffffffffffffffffffffffffffffff16600960009054906101000a900473ffffffffffffffffffffffffffffffffffffffff1673ffffffffffffffffffffffffffffffffffffffff16636352211e846040518263ffffffff1660e01b8152600401610a9e91906127b2565b60206040518083038186803b158015610ab657600080fd5b505afa158015610aca573d6000803e3d6000fd5b505050506040513d601f19601f82011682018060405250810190610aee9190611df7565b73ffffffffffffffffffffffffffffffffffffffff1614610b44576040517f08c379a0000000000000000000000000000000000000000000000000000000008152600401610b3b906126b2565b60405180910390fd5b6000600960009054906101000a900473ffffffffffffffffffffffffffffffffffffffff1673ffffffffffffffffffffffffffffffffffffffff166301030629846040518263ffffffff1660e01b8152600401610ba191906127b2565b60206040518083038186803b158015610bb957600080fd5b505afa158015610bcd573d6000803e3d6000fd5b505050506040513d601f19601f82011682018060405250810190610bf19190612103565b90507f000000000000000000000000000000000000000000000000000000000000000073ffffffffffffffffffffffffffffffffffffffff166323b872dd337f0000000000000000000000000000000000000000000000000000000000000000856040518463ffffffff1660e01b8152600401610c70939291906124d2565b602060405180830381600087803b158015610c8a57600080fd5b505af1158015610c9e573d6000803e3d6000fd5b505050506040513d601f19601f82011682018060405250810190610cc29190611fba565b610d01576040517f08c379a0000000000000000000000000000000000000000000000000000000008152600401610cf890612652565b60405180910390fd5b610d0b6007611644565b6000610d17600761165a565b9050610d233382611668565b82600c60008381526020019081526020016000208190555083600d6000838152602001908152602001600020819055503373ffffffffffffffffffffffffffffffffffffffff167f5fe79871cd2431c06447cbcf2557091da5d2ed5bc640f1028f42665913786e42828486604051610d9d939291906127cd565b60405180910390a250505050565b600c6020528060005260406000206000915090505481565b6060600b8054610dd290612a0e565b80601f0160208091040260200160405190810160405280929190818152602001828054610dfe90612a0e565b8015610e4b5780601f10610e2057610100808354040283529160200191610e4b565b820191906000526020600020905b815481529060010190602001808311610e2e57829003601f168201915b5050505050905090565b610e5d611249565b73ffffffffffffffffffffffffffffffffffffffff168273ffffffffffffffffffffffffffffffffffffffff161415610ecb576040517f08c379a0000000000000000000000000000000000000000000000000000000008152600401610ec2906125f2565b60405180910390fd5b8060056000610ed8611249565b73ffffffffffffffffffffffffffffffffffffffff1673ffffffffffffffffffffffffffffffffffffffff16815260200190815260200160002060008473ffffffffffffffffffffffffffffffffffffffff1673ffffffffffffffffffffffffffffffffffffffff16815260200190815260200160002060006101000a81548160ff0219169083151502179055508173ffffffffffffffffffffffffffffffffffffffff16610f85611249565b73ffffffffffffffffffffffffffffffffffffffff167f17307eab39ab6107e8899845ad3d59bd9653f200f220920489ca2b5937696c3183604051610fca9190612555565b60405180910390a35050565b610fe7610fe1611249565b8361130a565b611026576040517f08c379a000000000000000000000000000000000000000000000000000000000815260040161101d90612792565b60405180910390fd5b61103284848484611836565b50505050565b6060611043826111dd565b611082576040517f08c379a000000000000000000000000000000000000000000000000000000000815260040161107990612752565b60405180910390fd5b600061108c611892565b905060008151116110ac57604051806020016040528060008152506110d7565b806110b6846118a9565b6040516020016110c7929190612493565b6040516020818303038152906040525b915050919050565b6000600560008473ffffffffffffffffffffffffffffffffffffffff1673ffffffffffffffffffffffffffffffffffffffff16815260200190815260200160002060008373ffffffffffffffffffffffffffffffffffffffff1673ffffffffffffffffffffffffffffffffffffffff16815260200190815260200160002060009054906101000a900460ff16905092915050565b60007f01ffc9a7000000000000000000000000000000000000000000000000000000007bffffffffffffffffffffffffffffffffffffffffffffffffffffffff1916827bffffffffffffffffffffffffffffffffffffffffffffffffffffffff1916149050919050565b60008073ffffffffffffffffffffffffffffffffffffffff166002600084815260200190815260200160002060009054906101000a900473ffffffffffffffffffffffffffffffffffffffff1673ffffffffffffffffffffffffffffffffffffffff1614159050919050565b600033905090565b816004600083815260200190815260200160002060006101000a81548173ffffffffffffffffffffffffffffffffffffffff021916908373ffffffffffffffffffffffffffffffffffffffff160217905550808273ffffffffffffffffffffffffffffffffffffffff166112c4836108aa565b73ffffffffffffffffffffffffffffffffffffffff167f8c5be1e5ebec7d5bd14f71427d1e84f3dd0314c0f7b2291e5b200ac8c7c3b92560405160405180910390a45050565b6000611315826111dd565b611354576040517f08c379a000000000000000000000000000000000000000000000000000000000815260040161134b90612612565b60405180910390fd5b600061135f836108aa565b90508073ffffffffffffffffffffffffffffffffffffffff168473ffffffffffffffffffffffffffffffffffffffff1614806113ce57508373ffffffffffffffffffffffffffffffffffffffff166113b68461068d565b73ffffffffffffffffffffffffffffffffffffffff16145b806113df57506113de81856110df565b5b91505092915050565b8273ffffffffffffffffffffffffffffffffffffffff16611408826108aa565b73ffffffffffffffffffffffffffffffffffffffff161461145e576040517f08c379a000000000000000000000000000000000000000000000000000000000815260040161145590612732565b60405180910390fd5b600073ffffffffffffffffffffffffffffffffffffffff168273ffffffffffffffffffffffffffffffffffffffff1614156114ce576040517f08c379a00000000000000000000000000000000000000000000000000000000081526004016114c5906125d2565b60405180910390fd5b6114d9838383611a0a565b6114e4600082611251565b6001600360008573ffffffffffffffffffffffffffffffffffffffff1673ffffffffffffffffffffffffffffffffffffffff16815260200190815260200160002060008282546115349190612924565b925050819055506001600360008473ffffffffffffffffffffffffffffffffffffffff1673ffffffffffffffffffffffffffffffffffffffff168152602001908152602001600020600082825461158b919061289d565b92505081905550816002600083815260200190815260200160002060006101000a81548173ffffffffffffffffffffffffffffffffffffffff021916908373ffffffffffffffffffffffffffffffffffffffff160217905550808273ffffffffffffffffffffffffffffffffffffffff168473ffffffffffffffffffffffffffffffffffffffff167fddf252ad1be2c89b69c2b068fc378daa952ba7f163c4a11628f55a4df523b3ef60405160405180910390a4505050565b6001816000016000828254019250508190555050565b600081600001549050919050565b600073ffffffffffffffffffffffffffffffffffffffff168273ffffffffffffffffffffffffffffffffffffffff1614156116d8576040517f08c379a00000000000000000000000000000000000000000000000000000000081526004016116cf906126f2565b60405180910390fd5b6116e1816111dd565b15611721576040517f08c379a0000000000000000000000000000000000000000000000000000000008152600401611718906125b2565b60405180910390fd5b61172d60008383611a0a565b6001600360008473ffffffffffffffffffffffffffffffffffffffff1673ffffffffffffffffffffffffffffffffffffffff168152602001908152602001600020600082825461177d919061289d565b92505081905550816002600083815260200190815260200160002060006101000a81548173ffffffffffffffffffffffffffffffffffffffff021916908373ffffffffffffffffffffffffffffffffffffffff160217905550808273ffffffffffffffffffffffffffffffffffffffff16600073ffffffffffffffffffffffffffffffffffffffff167fddf252ad1be2c89b69c2b068fc378daa952ba7f163c4a11628f55a4df523b3ef60405160405180910390a45050565b6118418484846113e8565b61184d84848484611a0f565b61188c576040517f08c379a000000000000000000000000000000000000000000000000000000000815260040161188390612592565b60405180910390fd5b50505050565b606060405180602001604052806000815250905090565b606060008214156118f1576040518060400160405280600181526020017f30000000000000000000000000000000000000000000000000000000000000008152509050611a05565b600082905060005b6000821461192357808061190c90612a71565b915050600a8261191c91906128f3565b91506118f9565b60008167ffffffffffffffff81111561193f5761193e612ba7565b5b6040519080825280601f01601f1916602001820160405280156119715781602001600182028036833780820191505090505b5090505b600085146119fe5760018261198a9190612924565b9150600a856119999190612aba565b60306119a5919061289d565b60f81b8183815181106119bb576119ba612b78565b5b60200101907effffffffffffffffffffffffffffffffffffffffffffffffffffffffffffff1916908160001a905350600a856119f791906128f3565b9450611975565b8093505050505b919050565b505050565b6000611a308473ffffffffffffffffffffffffffffffffffffffff16611ba6565b15611b99578373ffffffffffffffffffffffffffffffffffffffff1663150b7a02611a59611249565b8786866040518563ffffffff1660e01b8152600401611a7b9493929190612509565b602060405180830381600087803b158015611a9557600080fd5b505af1925050508015611ac657506040513d601f19601f82011682018060405250810190611ac39190612014565b60015b611b49573d8060008114611af6576040519150601f19603f3d011682016040523d82523d6000602084013e611afb565b606091505b50600081511415611b41576040517f08c379a0000000000000000000000000000000000000000000000000000000008152600401611b3890612592565b60405180910390fd5b805181602001fd5b63150b7a0260e01b7bffffffffffffffffffffffffffffffffffffffffffffffffffffffff1916817bffffffffffffffffffffffffffffffffffffffffffffffffffffffff191614915050611b9e565b600190505b949350505050565b600080823b905060008111915050919050565b828054611bc590612a0e565b90600052602060002090601f016020900481019282611be75760008555611c2e565b82601f10611c0057803560ff1916838001178555611c2e565b82800160010185558215611c2e579182015b82811115611c2d578235825591602001919060010190611c12565b5b509050611c3b9190611c3f565b5090565b5b80821115611c58576000816000905550600101611c40565b5090565b6000611c6f611c6a84612829565b612804565b905082815260208101848484011115611c8b57611c8a612be5565b5b611c968482856129cc565b509392505050565b600081359050611cad81613086565b92915050565b600081519050611cc281613086565b92915050565b600081359050611cd78161309d565b92915050565b600081519050611cec8161309d565b92915050565b600081359050611d01816130b4565b92915050565b600081519050611d16816130b4565b92915050565b600082601f830112611d3157611d30612bdb565b5b8135611d41848260208601611c5c565b91505092915050565b60008083601f840112611d6057611d5f612bdb565b5b8235905067ffffffffffffffff811115611d7d57611d7c612bd6565b5b602083019150836001820283011115611d9957611d98612be0565b5b9250929050565b600081359050611daf816130cb565b92915050565b600081519050611dc4816130cb565b92915050565b600060208284031215611de057611ddf612bef565b5b6000611dee84828501611c9e565b91505092915050565b600060208284031215611e0d57611e0c612bef565b5b6000611e1b84828501611cb3565b91505092915050565b60008060408385031215611e3b57611e3a612bef565b5b6000611e4985828601611c9e565b9250506020611e5a85828601611c9e565b9150509250929050565b600080600060608486031215611e7d57611e7c612bef565b5b6000611e8b86828701611c9e565b9350506020611e9c86828701611c9e565b9250506040611ead86828701611da0565b9150509250925092565b60008060008060808587031215611ed157611ed0612bef565b5b6000611edf87828801611c9e565b9450506020611ef087828801611c9e565b9350506040611f0187828801611da0565b925050606085013567ffffffffffffffff811115611f2257611f21612bea565b5b611f2e87828801611d1c565b91505092959194509250565b60008060408385031215611f5157611f50612bef565b5b6000611f5f85828601611c9e565b9250506020611f7085828601611cc8565b9150509250929050565b60008060408385031215611f9157611f90612bef565b5b6000611f9f85828601611c9e565b9250506020611fb085828601611da0565b9150509250929050565b600060208284031215611fd057611fcf612bef565b5b6000611fde84828501611cdd565b91505092915050565b600060208284031215611ffd57611ffc612bef565b5b600061200b84828501611cf2565b91505092915050565b60006020828403121561202a57612029612bef565b5b600061203884828501611d07565b91505092915050565b60008060008060006060868803121561205d5761205c612bef565b5b600086013567ffffffffffffffff81111561207b5761207a612bea565b5b61208788828901611d4a565b9550955050602086013567ffffffffffffffff8111156120aa576120a9612bea565b5b6120b688828901611d4a565b935093505060406120c988828901611c9e565b9150509295509295909350565b6000602082840312156120ec576120eb612bef565b5b60006120fa84828501611da0565b91505092915050565b60006020828403121561211957612118612bef565b5b600061212784828501611db5565b91505092915050565b6000806040838503121561214757612146612bef565b5b600061215585828601611da0565b925050602061216685828601611da0565b9150509250929050565b61217981612958565b82525050565b6121888161296a565b82525050565b60006121998261285a565b6121a38185612870565b93506121b38185602086016129db565b6121bc81612bf4565b840191505092915050565b60006121d282612865565b6121dc8185612881565b93506121ec8185602086016129db565b6121f581612bf4565b840191505092915050565b600061220b82612865565b6122158185612892565b93506122258185602086016129db565b80840191505092915050565b600061223e603283612881565b915061224982612c05565b604082019050919050565b6000612261601c83612881565b915061226c82612c54565b602082019050919050565b6000612284602483612881565b915061228f82612c7d565b604082019050919050565b60006122a7601983612881565b91506122b282612ccc565b602082019050919050565b60006122ca602c83612881565b91506122d582612cf5565b604082019050919050565b60006122ed603883612881565b91506122f882612d44565b604082019050919050565b6000612310601283612881565b915061231b82612d93565b602082019050919050565b6000612333602a83612881565b915061233e82612dbc565b604082019050919050565b6000612356602983612881565b915061236182612e0b565b604082019050919050565b6000612379601283612881565b915061238482612e5a565b602082019050919050565b600061239c602e83612881565b91506123a782612e83565b604082019050919050565b60006123bf602083612881565b91506123ca82612ed2565b602082019050919050565b60006123e2602c83612881565b91506123ed82612efb565b604082019050919050565b6000612405602983612881565b915061241082612f4a565b604082019050919050565b6000612428602f83612881565b915061243382612f99565b604082019050919050565b600061244b602183612881565b915061245682612fe8565b604082019050919050565b600061246e603183612881565b915061247982613037565b604082019050919050565b61248d816129c2565b82525050565b600061249f8285612200565b91506124ab8284612200565b91508190509392505050565b60006020820190506124cc6000830184612170565b92915050565b60006060820190506124e76000830186612170565b6124f46020830185612170565b6125016040830184612484565b949350505050565b600060808201905061251e6000830187612170565b61252b6020830186612170565b6125386040830185612484565b818103606083015261254a818461218e565b905095945050505050565b600060208201905061256a600083018461217f565b92915050565b6000602082019050818103600083015261258a81846121c7565b905092915050565b600060208201905081810360008301526125ab81612231565b9050919050565b600060208201905081810360008301526125cb81612254565b9050919050565b600060208201905081810360008301526125eb81612277565b9050919050565b6000602082019050818103600083015261260b8161229a565b9050919050565b6000602082019050818103600083015261262b816122bd565b9050919050565b6000602082019050818103600083015261264b816122e0565b9050919050565b6000602082019050818103600083015261266b81612303565b9050919050565b6000602082019050818103600083015261268b81612326565b9050919050565b600060208201905081810360008301526126ab81612349565b9050919050565b600060208201905081810360008301526126cb8161236c565b9050919050565b600060208201905081810360008301526126eb8161238f565b9050919050565b6000602082019050818103600083015261270b816123b2565b9050919050565b6000602082019050818103600083015261272b816123d5565b9050919050565b6000602082019050818103600083015261274b816123f8565b9050919050565b6000602082019050818103600083015261276b8161241b565b9050919050565b6000602082019050818103600083015261278b8161243e565b9050919050565b600060208201905081810360008301526127ab81612461565b9050919050565b60006020820190506127c76000830184612484565b92915050565b60006060820190506127e26000830186612484565b6127ef6020830185612484565b6127fc6040830184612484565b949350505050565b600061280e61281f565b905061281a8282612a40565b919050565b6000604051905090565b600067ffffffffffffffff82111561284457612843612ba7565b5b61284d82612bf4565b9050602081019050919050565b600081519050919050565b600081519050919050565b600082825260208201905092915050565b600082825260208201905092915050565b600081905092915050565b60006128a8826129c2565b91506128b3836129c2565b9250827fffffffffffffffffffffffffffffffffffffffffffffffffffffffffffffffff038211156128e8576128e7612aeb565b5b828201905092915050565b60006128fe826129c2565b9150612909836129c2565b92508261291957612918612b1a565b5b828204905092915050565b600061292f826129c2565b915061293a836129c2565b92508282101561294d5761294c612aeb565b5b828203905092915050565b6000612963826129a2565b9050919050565b60008115159050919050565b60007fffffffff0000000000000000000000000000000000000000000000000000000082169050919050565b600073ffffffffffffffffffffffffffffffffffffffff82169050919050565b6000819050919050565b82818337600083830152505050565b60005b838110156129f95780820151818401526020810190506129de565b83811115612a08576000848401525b50505050565b60006002820490506001821680612a2657607f821691505b60208210811415612a3a57612a39612b49565b5b50919050565b612a4982612bf4565b810181811067ffffffffffffffff82111715612a6857612a67612ba7565b5b80604052505050565b6000612a7c826129c2565b91507fffffffffffffffffffffffffffffffffffffffffffffffffffffffffffffffff821415612aaf57612aae612aeb565b5b600182019050919050565b6000612ac5826129c2565b9150612ad0836129c2565b925082612ae057612adf612b1a565b5b828206905092915050565b7f4e487b7100000000000000000000000000000000000000000000000000000000600052601160045260246000fd5b7f4e487b7100000000000000000000000000000000000000000000000000000000600052601260045260246000fd5b7f4e487b7100000000000000000000000000000000000000000000000000000000600052602260045260246000fd5b7f4e487b7100000000000000000000000000000000000000000000000000000000600052603260045260246000fd5b7f4e487b7100000000000000000000000000000000000000000000000000000000600052604160045260246000fd5b600080fd5b600080fd5b600080fd5b600080fd5b600080fd5b600080fd5b6000601f19601f8301169050919050565b7f4552433732313a207472616e7366657220746f206e6f6e20455243373231526560008201527f63656976657220696d706c656d656e7465720000000000000000000000000000602082015250565b7f4552433732313a20746f6b656e20616c7265616479206d696e74656400000000600082015250565b7f4552433732313a207472616e7366657220746f20746865207a65726f2061646460008201527f7265737300000000000000000000000000000000000000000000000000000000602082015250565b7f4552433732313a20617070726f766520746f2063616c6c657200000000000000600082015250565b7f4552433732313a206f70657261746f7220717565727920666f72206e6f6e657860008201527f697374656e7420746f6b656e0000000000000000000000000000000000000000602082015250565b7f4552433732313a20617070726f76652063616c6c6572206973206e6f74206f7760008201527f6e6572206e6f7220617070726f76656420666f7220616c6c0000000000000000602082015250565b7f4661696c656420746f207472616e736665720000000000000000000000000000600082015250565b7f4552433732313a2062616c616e636520717565727920666f7220746865207a6560008201527f726f206164647265737300000000000000000000000000000000000000000000602082015250565b7f4552433732313a206f776e657220717565727920666f72206e6f6e657869737460008201527f656e7420746f6b656e0000000000000000000000000000000000000000000000602082015250565b7f53686f756c64206f776e20746865206e66740000000000000000000000000000600082015250565b7f496e697469616c697a61626c653a20636f6e747261637420697320616c72656160008201527f647920696e697469616c697a6564000000000000000000000000000000000000602082015250565b7f4552433732313a206d696e7420746f20746865207a65726f2061646472657373600082015250565b7f4552433732313a20617070726f76656420717565727920666f72206e6f6e657860008201527f697374656e7420746f6b656e0000000000000000000000000000000000000000602082015250565b7f4552433732313a207472616e73666572206f6620746f6b656e2074686174206960008201527f73206e6f74206f776e0000000000000000000000000000000000000000000000602082015250565b7f4552433732314d657461646174613a2055524920717565727920666f72206e6f60008201527f6e6578697374656e7420746f6b656e0000000000000000000000000000000000602082015250565b7f4552433732313a20617070726f76616c20746f2063757272656e74206f776e6560008201527f7200000000000000000000000000000000000000000000000000000000000000602082015250565b7f4552433732313a207472616e736665722063616c6c6572206973206e6f74206f60008201527f776e6572206e6f7220617070726f766564000000000000000000000000000000602082015250565b61308f81612958565b811461309a57600080fd5b50565b6130a68161296a565b81146130b157600080fd5b50565b6130bd81612976565b81146130c857600080fd5b50565b6130d4816129c2565b81146130df57600080fd5b5056fea26469706673582212207c79d7590cc906e5b36fb8b5cb1f84bc5f1a1e9972758adbcf32d93d7c5bc6f864736f6c63430008060033",
  "immutableReferences": {
    "3442": [
      {
        "length": 32,
        "start": 3061
      }
    ],
    "3444": [
      {
        "length": 32,
        "start": 3122
      }
    ]
  },
  "source": "// SPDX-License-Identifier: MIT\npragma solidity ^0.8.2;\n\nimport \"@openzeppelin/contracts/utils/Counters.sol\";\nimport \"@openzeppelin/contracts/token/ERC721/ERC721.sol\";\nimport \"@openzeppelin/contracts/token/ERC20/IERC20.sol\";\nimport \"@openzeppelin/contracts/proxy/utils/Initializable.sol\";\nimport \"@openzeppelin/contracts/access/AccessControl.sol\";\nimport \"./TraxStakeToken.sol\";\nimport \"../SongsManager.sol\";\nimport \"../Structs.sol\";\n\n/**\n * @title the NFT contract for stakes\n * @author Eric Nordelo\n */\ncontract StablecoinStakeToken is ERC721, Initializable {\n    using Counters for Counters.Counter;\n    Counters.Counter private _tokenIds;\n\n    address private immutable _stablecoinTokenAddress;\n    address private immutable _automatedInvestorAddress;\n\n    address private _songManagerAddress;\n    address private _traxStakeTokenAddr;\n\n    // token name\n    string private _proxyName;\n\n    // token symbol\n    string private _proxySymbol;\n\n    mapping(uint256 => uint256) public tokenStakedAmount;\n    mapping(uint256 => uint256) public tokenParentNFTId;\n\n    event StakeTokens(address indexed holder, uint256 nftId, uint256 position, uint256 amount);\n\n    /**\n     * @dev in construction time we can only save the immutable members\n     *      because of the use of proxies\n     */\n    constructor(address stablecoinTokenAddress, address automatedInvestorAddress)\n        ERC721(\"Privi Stablecoin Stake Token\", \"pSST\")\n    {\n        _stablecoinTokenAddress = stablecoinTokenAddress;\n        _automatedInvestorAddress = automatedInvestorAddress;\n    }\n\n    /**\n     * @dev set the name and symbol of the token in the proxy\n     */\n    function initialize(\n        string calldata _name,\n        string calldata _symbol,\n        address __traxStakeTokenAddr\n    ) external initializer {\n        _proxyName = _name;\n        _proxySymbol = _symbol;\n\n        // the song manager created the proxies\n        _songManagerAddress = msg.sender;\n        _traxStakeTokenAddr = __traxStakeTokenAddr;\n    }\n\n    /**\n     * @dev See {IERC721Metadata-name}.\n     */\n    function name() public view override returns (string memory) {\n        return _proxyName;\n    }\n\n    /**\n     * @dev See {IERC721Metadata-symbol}.\n     */\n    function symbol() public view override returns (string memory) {\n        return _proxySymbol;\n    }\n\n    /**\n     * @notice allows an account to stake stablecoin tokens for a position\n     * @param _nftId the id of the nft unlocking the position\n     */\n    function stake(uint256 _nftId, uint256 _amount) external {\n        require(IERC721(_traxStakeTokenAddr).ownerOf(_nftId) == msg.sender, \"Should own the nft\");\n\n        uint256 positionIndex = TraxStakeToken(_traxStakeTokenAddr).tokenPositionIndex(_nftId);\n\n        require(\n            IERC20(_stablecoinTokenAddress).transferFrom(msg.sender, _automatedInvestorAddress, _amount),\n            \"Failed to transfer\"\n        );\n\n        _tokenIds.increment();\n        uint256 newTokenId = _tokenIds.current();\n\n        _mint(msg.sender, newTokenId);\n        tokenStakedAmount[newTokenId] = _amount;\n        tokenParentNFTId[newTokenId] = _nftId;\n\n        emit StakeTokens(msg.sender, newTokenId, positionIndex, _amount);\n    }\n}\n",
  "sourcePath": "/home/ericng/Documents/PRIVI/privi-trax-app/contracts/implementations/StablecoinStakeToken.sol",
  "compiler": {
    "name": "solc",
    "version": "0.8.6+commit.11564f7e.Emscripten.clang"
  },
  "schemaVersion": "3.4.2",
  "updatedAt": "2021-08-24T13:47:41.937Z",
  "devdoc": {
    "author": "Eric Nordelo",
    "kind": "dev",
    "methods": {
      "approve(address,uint256)": {
        "details": "See {IERC721-approve}."
      },
      "balanceOf(address)": {
        "details": "See {IERC721-balanceOf}."
      },
      "constructor": {
        "details": "in construction time we can only save the immutable members      because of the use of proxies"
      },
      "getApproved(uint256)": {
        "details": "See {IERC721-getApproved}."
      },
      "initialize(string,string,address)": {
        "details": "set the name and symbol of the token in the proxy"
      },
      "isApprovedForAll(address,address)": {
        "details": "See {IERC721-isApprovedForAll}."
      },
      "name()": {
        "details": "See {IERC721Metadata-name}."
      },
      "ownerOf(uint256)": {
        "details": "See {IERC721-ownerOf}."
      },
      "safeTransferFrom(address,address,uint256)": {
        "details": "See {IERC721-safeTransferFrom}."
      },
      "safeTransferFrom(address,address,uint256,bytes)": {
        "details": "See {IERC721-safeTransferFrom}."
      },
      "setApprovalForAll(address,bool)": {
        "details": "See {IERC721-setApprovalForAll}."
      },
      "stake(uint256,uint256)": {
        "params": {
          "_nftId": "the id of the nft unlocking the position"
        }
      },
      "supportsInterface(bytes4)": {
        "details": "See {IERC165-supportsInterface}."
      },
      "symbol()": {
        "details": "See {IERC721Metadata-symbol}."
      },
      "tokenURI(uint256)": {
        "details": "See {IERC721Metadata-tokenURI}."
      },
      "transferFrom(address,address,uint256)": {
        "details": "See {IERC721-transferFrom}."
      }
    },
    "title": "the NFT contract for stakes",
    "version": 1
  },
  "userdoc": {
    "kind": "user",
    "methods": {
      "stake(uint256,uint256)": {
        "notice": "allows an account to stake stablecoin tokens for a position"
      }
    },
    "version": 1
  }
}