{
  "contractName": "Staking",
  "abi": [
    {
      "inputs": [
        {
          "internalType": "string",
          "name": "_tokenName",
          "type": "string"
        },
        {
          "internalType": "string",
          "name": "_tokenSymbol",
          "type": "string"
        },
        {
          "internalType": "address",
          "name": "fundsManager",
          "type": "address"
        }
      ],
      "stateMutability": "nonpayable",
      "type": "constructor"
    },
    {
      "anonymous": false,
      "inputs": [
        {
          "indexed": true,
          "internalType": "address",
          "name": "owner",
          "type": "address"
        },
        {
          "indexed": true,
          "internalType": "address",
          "name": "approved",
          "type": "address"
        },
        {
          "indexed": true,
          "internalType": "uint256",
          "name": "tokenId",
          "type": "uint256"
        }
      ],
      "name": "Approval",
      "type": "event"
    },
    {
      "anonymous": false,
      "inputs": [
        {
          "indexed": true,
          "internalType": "address",
          "name": "owner",
          "type": "address"
        },
        {
          "indexed": true,
          "internalType": "address",
          "name": "operator",
          "type": "address"
        },
        {
          "indexed": false,
          "internalType": "bool",
          "name": "approved",
          "type": "bool"
        }
      ],
      "name": "ApprovalForAll",
      "type": "event"
    },
    {
      "anonymous": false,
      "inputs": [
        {
          "indexed": true,
          "internalType": "uint256",
          "name": "positionId",
          "type": "uint256"
        },
        {
          "indexed": true,
          "internalType": "address",
          "name": "staker",
          "type": "address"
        }
      ],
      "name": "Closed",
      "type": "event"
    },
    {
      "anonymous": false,
      "inputs": [
        {
          "indexed": true,
          "internalType": "address",
          "name": "staker",
          "type": "address"
        },
        {
          "indexed": false,
          "internalType": "address",
          "name": "stablecoin",
          "type": "address"
        },
        {
          "indexed": false,
          "internalType": "uint256",
          "name": "amountToken",
          "type": "uint256"
        },
        {
          "indexed": false,
          "internalType": "uint256",
          "name": "amountShares",
          "type": "uint256"
        },
        {
          "indexed": true,
          "internalType": "uint256",
          "name": "positionId",
          "type": "uint256"
        }
      ],
      "name": "Staked",
      "type": "event"
    },
    {
      "anonymous": false,
      "inputs": [
        {
          "indexed": true,
          "internalType": "address",
          "name": "from",
          "type": "address"
        },
        {
          "indexed": true,
          "internalType": "address",
          "name": "to",
          "type": "address"
        },
        {
          "indexed": true,
          "internalType": "uint256",
          "name": "tokenId",
          "type": "uint256"
        }
      ],
      "name": "Transfer",
      "type": "event"
    },
    {
      "anonymous": false,
      "inputs": [
        {
          "indexed": true,
          "internalType": "uint256",
          "name": "positionId",
          "type": "uint256"
        },
        {
          "indexed": true,
          "internalType": "address",
          "name": "staker",
          "type": "address"
        },
        {
          "indexed": false,
          "internalType": "uint256",
          "name": "amountToken",
          "type": "uint256"
        },
        {
          "indexed": false,
          "internalType": "address",
          "name": "stablecoin",
          "type": "address"
        }
      ],
      "name": "Unstaked",
      "type": "event"
    },
    {
      "inputs": [],
      "name": "STORAGE_DECIMALS",
      "outputs": [
        {
          "internalType": "uint8",
          "name": "",
          "type": "uint8"
        }
      ],
      "stateMutability": "view",
      "type": "function",
      "constant": true
    },
    {
      "inputs": [],
      "name": "accumulatedRewards",
      "outputs": [
        {
          "internalType": "uint256",
          "name": "",
          "type": "uint256"
        }
      ],
      "stateMutability": "view",
      "type": "function",
      "constant": true
    },
    {
      "inputs": [
        {
          "internalType": "address",
          "name": "to",
          "type": "address"
        },
        {
          "internalType": "uint256",
          "name": "tokenId",
          "type": "uint256"
        }
      ],
      "name": "approve",
      "outputs": [],
      "stateMutability": "nonpayable",
      "type": "function"
    },
    {
      "inputs": [
        {
          "internalType": "address",
          "name": "owner",
          "type": "address"
        }
      ],
      "name": "balanceOf",
      "outputs": [
        {
          "internalType": "uint256",
          "name": "",
          "type": "uint256"
        }
      ],
      "stateMutability": "view",
      "type": "function",
      "constant": true
    },
    {
      "inputs": [
        {
          "internalType": "uint256",
          "name": "tokenId",
          "type": "uint256"
        }
      ],
      "name": "getApproved",
      "outputs": [
        {
          "internalType": "address",
          "name": "",
          "type": "address"
        }
      ],
      "stateMutability": "view",
      "type": "function",
      "constant": true
    },
    {
      "inputs": [
        {
          "internalType": "address",
          "name": "owner",
          "type": "address"
        },
        {
          "internalType": "address",
          "name": "operator",
          "type": "address"
        }
      ],
      "name": "isApprovedForAll",
      "outputs": [
        {
          "internalType": "bool",
          "name": "",
          "type": "bool"
        }
      ],
      "stateMutability": "view",
      "type": "function",
      "constant": true
    },
    {
      "inputs": [],
      "name": "name",
      "outputs": [
        {
          "internalType": "string",
          "name": "",
          "type": "string"
        }
      ],
      "stateMutability": "view",
      "type": "function",
      "constant": true
    },
    {
      "inputs": [
        {
          "internalType": "uint256",
          "name": "tokenId",
          "type": "uint256"
        }
      ],
      "name": "ownerOf",
      "outputs": [
        {
          "internalType": "address",
          "name": "",
          "type": "address"
        }
      ],
      "stateMutability": "view",
      "type": "function",
      "constant": true
    },
    {
      "inputs": [
        {
          "internalType": "address",
          "name": "from",
          "type": "address"
        },
        {
          "internalType": "address",
          "name": "to",
          "type": "address"
        },
        {
          "internalType": "uint256",
          "name": "tokenId",
          "type": "uint256"
        }
      ],
      "name": "safeTransferFrom",
      "outputs": [],
      "stateMutability": "nonpayable",
      "type": "function"
    },
    {
      "inputs": [
        {
          "internalType": "address",
          "name": "from",
          "type": "address"
        },
        {
          "internalType": "address",
          "name": "to",
          "type": "address"
        },
        {
          "internalType": "uint256",
          "name": "tokenId",
          "type": "uint256"
        },
        {
          "internalType": "bytes",
          "name": "_data",
          "type": "bytes"
        }
      ],
      "name": "safeTransferFrom",
      "outputs": [],
      "stateMutability": "nonpayable",
      "type": "function"
    },
    {
      "inputs": [
        {
          "internalType": "address",
          "name": "operator",
          "type": "address"
        },
        {
          "internalType": "bool",
          "name": "approved",
          "type": "bool"
        }
      ],
      "name": "setApprovalForAll",
      "outputs": [],
      "stateMutability": "nonpayable",
      "type": "function"
    },
    {
      "inputs": [
        {
          "internalType": "bytes4",
          "name": "interfaceId",
          "type": "bytes4"
        }
      ],
      "name": "supportsInterface",
      "outputs": [
        {
          "internalType": "bool",
          "name": "",
          "type": "bool"
        }
      ],
      "stateMutability": "view",
      "type": "function",
      "constant": true
    },
    {
      "inputs": [],
      "name": "symbol",
      "outputs": [
        {
          "internalType": "string",
          "name": "",
          "type": "string"
        }
      ],
      "stateMutability": "view",
      "type": "function",
      "constant": true
    },
    {
      "inputs": [
        {
          "internalType": "uint256",
          "name": "tokenId",
          "type": "uint256"
        }
      ],
      "name": "tokenURI",
      "outputs": [
        {
          "internalType": "string",
          "name": "",
          "type": "string"
        }
      ],
      "stateMutability": "view",
      "type": "function",
      "constant": true
    },
    {
      "inputs": [],
      "name": "totalShares",
      "outputs": [
        {
          "internalType": "uint256",
          "name": "",
          "type": "uint256"
        }
      ],
      "stateMutability": "view",
      "type": "function",
      "constant": true
    },
    {
      "inputs": [],
      "name": "totalStakes",
      "outputs": [
        {
          "internalType": "uint256",
          "name": "",
          "type": "uint256"
        }
      ],
      "stateMutability": "view",
      "type": "function",
      "constant": true
    },
    {
      "inputs": [
        {
          "internalType": "address",
          "name": "from",
          "type": "address"
        },
        {
          "internalType": "address",
          "name": "to",
          "type": "address"
        },
        {
          "internalType": "uint256",
          "name": "tokenId",
          "type": "uint256"
        }
      ],
      "name": "transferFrom",
      "outputs": [],
      "stateMutability": "nonpayable",
      "type": "function"
    },
    {
      "inputs": [
        {
          "internalType": "address",
          "name": "staker",
          "type": "address"
        },
        {
          "internalType": "address",
          "name": "stablecoin",
          "type": "address"
        },
        {
          "internalType": "uint256",
          "name": "amountToken",
          "type": "uint256"
        }
      ],
      "name": "stakeStablecoin",
      "outputs": [],
      "stateMutability": "nonpayable",
      "type": "function"
    },
    {
      "inputs": [
        {
          "internalType": "uint256",
          "name": "amountToken",
          "type": "uint256"
        },
        {
          "internalType": "address",
          "name": "stablecoin",
          "type": "address"
        }
      ],
      "name": "getSharesAmountOut",
      "outputs": [
        {
          "internalType": "uint256",
          "name": "",
          "type": "uint256"
        }
      ],
      "stateMutability": "view",
      "type": "function",
      "constant": true
    },
    {
      "inputs": [
        {
          "internalType": "uint256",
          "name": "positionId",
          "type": "uint256"
        },
        {
          "internalType": "address",
          "name": "staker",
          "type": "address"
        },
        {
          "internalType": "address",
          "name": "stablecoin",
          "type": "address"
        },
        {
          "internalType": "uint256",
          "name": "amountToken",
          "type": "uint256"
        }
      ],
      "name": "unstakeStablecoin",
      "outputs": [],
      "stateMutability": "nonpayable",
      "type": "function"
    },
    {
      "inputs": [
        {
          "internalType": "uint256",
          "name": "positionId",
          "type": "uint256"
        }
      ],
      "name": "getPosition",
      "outputs": [
        {
          "components": [
            {
              "internalType": "address",
              "name": "stakeToken",
              "type": "address"
            },
            {
              "internalType": "uint256",
              "name": "stakeAmount",
              "type": "uint256"
            },
            {
              "internalType": "uint256",
              "name": "shares",
              "type": "uint256"
            },
            {
              "internalType": "uint256",
              "name": "timestamp",
              "type": "uint256"
            },
            {
              "internalType": "uint256",
              "name": "totalRewards",
              "type": "uint256"
            }
          ],
          "internalType": "struct Staking.Position",
          "name": "",
          "type": "tuple"
        }
      ],
      "stateMutability": "view",
      "type": "function",
      "constant": true
    },
    {
      "inputs": [
        {
          "internalType": "uint256",
          "name": "amount",
          "type": "uint256"
        },
        {
          "internalType": "address",
          "name": "stablecoin",
          "type": "address"
        }
      ],
      "name": "depositRewards",
      "outputs": [],
      "stateMutability": "nonpayable",
      "type": "function"
    },
    {
      "inputs": [
        {
          "internalType": "uint256",
          "name": "positionId",
          "type": "uint256"
        }
      ],
      "name": "getClaimableRewards",
      "outputs": [
        {
          "internalType": "uint256",
          "name": "",
          "type": "uint256"
        }
      ],
      "stateMutability": "view",
      "type": "function",
      "constant": true
    },
    {
      "inputs": [
        {
          "internalType": "uint256",
          "name": "positionId",
          "type": "uint256"
        },
        {
          "internalType": "uint256",
          "name": "amount",
          "type": "uint256"
        }
      ],
      "name": "getSharesAfterUnstaking",
      "outputs": [
        {
          "internalType": "uint256",
          "name": "",
          "type": "uint256"
        }
      ],
      "stateMutability": "view",
      "type": "function",
      "constant": true
    }
  ],
  "bytecode": "0x60806040523480156200001157600080fd5b506040516200437d3803806200437d8339818101604052810190620000379190620001fc565b8282816000908051906020019062000051929190620000b7565b5080600190805190602001906200006a929190620000b7565b50505080600760006101000a81548173ffffffffffffffffffffffffffffffffffffffff021916908373ffffffffffffffffffffffffffffffffffffffff16021790555050505062000468565b828054620000c5906200035f565b90600052602060002090601f016020900481019282620000e9576000855562000135565b82601f106200010457805160ff191683800117855562000135565b8280016001018555821562000135579182015b828111156200013457825182559160200191906001019062000117565b5b50905062000144919062000148565b5090565b5b808211156200016357600081600090555060010162000149565b5090565b60006200017e6200017884620002bf565b62000296565b9050828152602081018484840111156200019d576200019c6200042e565b5b620001aa84828562000329565b509392505050565b600081519050620001c3816200044e565b92915050565b600082601f830112620001e157620001e062000429565b5b8151620001f384826020860162000167565b91505092915050565b60008060006060848603121562000218576200021762000438565b5b600084015167ffffffffffffffff81111562000239576200023862000433565b5b6200024786828701620001c9565b935050602084015167ffffffffffffffff8111156200026b576200026a62000433565b5b6200027986828701620001c9565b92505060406200028c86828701620001b2565b9150509250925092565b6000620002a2620002b5565b9050620002b0828262000395565b919050565b6000604051905090565b600067ffffffffffffffff821115620002dd57620002dc620003fa565b5b620002e8826200043d565b9050602081019050919050565b6000620003028262000309565b9050919050565b600073ffffffffffffffffffffffffffffffffffffffff82169050919050565b60005b83811015620003495780820151818401526020810190506200032c565b8381111562000359576000848401525b50505050565b600060028204905060018216806200037857607f821691505b602082108114156200038f576200038e620003cb565b5b50919050565b620003a0826200043d565b810181811067ffffffffffffffff82111715620003c257620003c1620003fa565b5b80604052505050565b7f4e487b7100000000000000000000000000000000000000000000000000000000600052602260045260246000fd5b7f4e487b7100000000000000000000000000000000000000000000000000000000600052604160045260246000fd5b600080fd5b600080fd5b600080fd5b600080fd5b6000601f19601f8301169050919050565b6200045981620002f5565b81146200046557600080fd5b50565b613f0580620004786000396000f3fe608060405234801561001057600080fd5b50600436106101585760003560e01c80637b167dfa116100c3578063b88d4fde1161007c578063b88d4fde146103e9578063bf9befb114610405578063c87b56dd14610423578063e985e9c514610453578063eb02c30114610483578063f7163a4f146104b357610158565b80637b167dfa146103155780637c5fa0b8146103455780637f5359341461036157806395d89b41146103915780639c81ff6b146103af578063a22cb465146103cd57610158565b80633a98ef39116101155780633a98ef391461024357806342842e0e146102615780636352211e1461027d57806364d03613146102ad57806370a08231146102c9578063799abc58146102f957610158565b806301ffc9a71461015d57806306fdde031461018d578063081812fc146101ab578063095ea7b3146101db5780631d68d5c7146101f757806323b872dd14610227575b600080fd5b61017760048036038101906101729190612a5a565b6104d1565b60405161018491906130cf565b60405180910390f35b6101956105b3565b6040516101a291906130ea565b60405180910390f35b6101c560048036038101906101c09190612ab4565b610645565b6040516101d29190612fd1565b60405180910390f35b6101f560048036038101906101f091906129ed565b6106ca565b005b610211600480360381019061020c9190612b88565b6107e2565b60405161021e9190613347565b60405180910390f35b610241600480360381019061023c91906128d7565b61088b565b005b61024b6108eb565b6040516102589190613347565b60405180910390f35b61027b600480360381019061027691906128d7565b6108f1565b005b61029760048036038101906102929190612ab4565b610911565b6040516102a49190612fd1565b60405180910390f35b6102c760048036038101906102c29190612b21565b6109c3565b005b6102e360048036038101906102de919061286a565b610cfc565b6040516102f09190613347565b60405180910390f35b610313600480360381019061030e9190612ae1565b610db4565b005b61032f600480360381019061032a9190612ab4565b610f8b565b60405161033c9190613347565b60405180910390f35b61035f600480360381019061035a91906128d7565b610faf565b005b61037b60048036038101906103769190612ae1565b611299565b6040516103889190613347565b60405180910390f35b6103996112ba565b6040516103a691906130ea565b60405180910390f35b6103b761134c565b6040516103c49190613347565b60405180910390f35b6103e760048036038101906103e291906129ad565b611352565b005b61040360048036038101906103fe919061292a565b6114d3565b005b61040d611535565b60405161041a9190613347565b60405180910390f35b61043d60048036038101906104389190612ab4565b61153b565b60405161044a91906130ea565b60405180910390f35b61046d60048036038101906104689190612897565b6115e2565b60405161047a91906130cf565b60405180910390f35b61049d60048036038101906104989190612ab4565b611676565b6040516104aa919061332c565b60405180910390f35b6104bb611721565b6040516104c8919061338b565b60405180910390f35b60007f80ac58cd000000000000000000000000000000000000000000000000000000007bffffffffffffffffffffffffffffffffffffffffffffffffffffffff1916827bffffffffffffffffffffffffffffffffffffffffffffffffffffffff1916148061059c57507f5b5e139f000000000000000000000000000000000000000000000000000000007bffffffffffffffffffffffffffffffffffffffffffffffffffffffff1916827bffffffffffffffffffffffffffffffffffffffffffffffffffffffff1916145b806105ac57506105ab82611726565b5b9050919050565b6060600080546105c290613807565b80601f01602080910402602001604051908101604052809291908181526020018280546105ee90613807565b801561063b5780601f106106105761010080835404028352916020019161063b565b820191906000526020600020905b81548152906001019060200180831161061e57829003601f168201915b5050505050905090565b600061065082611790565b61068f576040517f08c379a00000000000000000000000000000000000000000000000000000000081526004016106869061324c565b60405180910390fd5b6004600083815260200190815260200160002060009054906101000a900473ffffffffffffffffffffffffffffffffffffffff169050919050565b60006106d582610911565b90508073ffffffffffffffffffffffffffffffffffffffff168373ffffffffffffffffffffffffffffffffffffffff161415610746576040517f08c379a000000000000000000000000000000000000000000000000000000000815260040161073d906132cc565b60405180910390fd5b8073ffffffffffffffffffffffffffffffffffffffff166107656117fc565b73ffffffffffffffffffffffffffffffffffffffff16148061079457506107938161078e6117fc565b6115e2565b5b6107d3576040517f08c379a00000000000000000000000000000000000000000000000000000000081526004016107ca906131cc565b60405180910390fd5b6107dd8383611804565b505050565b600080600b60008581526020019081526020016000209050600061082e82600101548360000160009054906101000a900473ffffffffffffffffffffffffffffffffffffffff166118bd565b90506000610860858460000160009054906101000a900473ffffffffffffffffffffffffffffffffffffffff166118bd565b9050600061086d846119af565b905061087f83838660020154846119e6565b94505050505092915050565b61089c6108966117fc565b82611a5f565b6108db576040517f08c379a00000000000000000000000000000000000000000000000000000000081526004016108d2906132ec565b60405180910390fd5b6108e6838383611b3d565b505050565b600a5481565b61090c838383604051806020016040528060008152506114d3565b505050565b6000806002600084815260200190815260200160002060009054906101000a900473ffffffffffffffffffffffffffffffffffffffff169050600073ffffffffffffffffffffffffffffffffffffffff168173ffffffffffffffffffffffffffffffffffffffff1614156109ba576040517f08c379a00000000000000000000000000000000000000000000000000000000081526004016109b19061320c565b60405180910390fd5b80915050919050565b600760009054906101000a900473ffffffffffffffffffffffffffffffffffffffff1673ffffffffffffffffffffffffffffffffffffffff16634f129c53836040518263ffffffff1660e01b8152600401610a1e9190612fd1565b60206040518083038186803b158015610a3657600080fd5b505afa158015610a4a573d6000803e3d6000fd5b505050506040513d601f19601f82011682018060405250810190610a6e9190612a2d565b610aad576040517f08c379a0000000000000000000000000000000000000000000000000000000008152600401610aa49061330c565b60405180910390fd5b80600b6000868152602001908152602001600020600101541015610b06576040517f08c379a0000000000000000000000000000000000000000000000000000000008152600401610afd9061326c565b60405180910390fd5b6000600b600086815260200190815260200160002090506000828260010154610b2f91906136dc565b1415610be457610b3e85611d99565b600b6000868152602001908152602001600020600080820160006101000a81549073ffffffffffffffffffffffffffffffffffffffff0219169055600182016000905560028201600090556003820160009055600482016000905550508373ffffffffffffffffffffffffffffffffffffffff16857fc3b744b0ebdbd13b13fb44c794a77b6d5dd52e121e2640b35db2b7265ddcdcba60405160405180910390a3610cf5565b6000610bef826119af565b9050610bfd82858584611eaa565b8473ffffffffffffffffffffffffffffffffffffffff16867ff7e11bcfa7fea31caa7e8206cfe60a6e8aaaa4b204c6f20ffd3c55efb74ac1648587604051610c46929190613362565b60405180910390a3600760009054906101000a900473ffffffffffffffffffffffffffffffffffffffff1673ffffffffffffffffffffffffffffffffffffffff166338670f928686610c988589611f75565b87610ca3919061343f565b6040518463ffffffff1660e01b8152600401610cc193929190612fec565b600060405180830381600087803b158015610cdb57600080fd5b505af1158015610cef573d6000803e3d6000fd5b50505050505b5050505050565b60008073ffffffffffffffffffffffffffffffffffffffff168273ffffffffffffffffffffffffffffffffffffffff161415610d6d576040517f08c379a0000000000000000000000000000000000000000000000000000000008152600401610d64906131ec565b60405180910390fd5b600360008373ffffffffffffffffffffffffffffffffffffffff1673ffffffffffffffffffffffffffffffffffffffff168152602001908152602001600020549050919050565b600073ffffffffffffffffffffffffffffffffffffffff168173ffffffffffffffffffffffffffffffffffffffff161415610e24576040517f08c379a0000000000000000000000000000000000000000000000000000000008152600401610e1b906131ac565b60405180910390fd5b8073ffffffffffffffffffffffffffffffffffffffff166323b872dd33600760009054906101000a900473ffffffffffffffffffffffffffffffffffffffff16856040518463ffffffff1660e01b8152600401610e8393929190612fec565b602060405180830381600087803b158015610e9d57600080fd5b505af1158015610eb1573d6000803e3d6000fd5b505050506040513d601f19601f82011682018060405250810190610ed59190612a2d565b50600760009054906101000a900473ffffffffffffffffffffffffffffffffffffffff1673ffffffffffffffffffffffffffffffffffffffff1663237df35e82846040518363ffffffff1660e01b8152600401610f3392919061306f565b600060405180830381600087803b158015610f4d57600080fd5b505af1158015610f61573d6000803e3d6000fd5b50505050610f6f82826118bd565b60096000828254610f80919061343f565b925050819055505050565b6000610fa8600b60008481526020019081526020016000206119af565b9050919050565b600760009054906101000a900473ffffffffffffffffffffffffffffffffffffffff1673ffffffffffffffffffffffffffffffffffffffff16634f129c53836040518263ffffffff1660e01b815260040161100a9190612fd1565b60206040518083038186803b15801561102257600080fd5b505afa158015611036573d6000803e3d6000fd5b505050506040513d601f19601f8201168201806040525081019061105a9190612a2d565b611099576040517f08c379a00000000000000000000000000000000000000000000000000000000081526004016110909061330c565b60405180910390fd5b8173ffffffffffffffffffffffffffffffffffffffff166323b872dd33600760009054906101000a900473ffffffffffffffffffffffffffffffffffffffff16846040518463ffffffff1660e01b81526004016110f893929190612fec565b602060405180830381600087803b15801561111257600080fd5b505af1158015611126573d6000803e3d6000fd5b505050506040513d601f19601f8201168201806040525081019061114a9190612a2d565b50600061115782846118bd565b9050600061116482612076565b9050611175858585846009546120bb565b80600a6000828254611187919061343f565b9250508190555081600860008282546111a0919061343f565b925050819055506111b160066121ad565b8573ffffffffffffffffffffffffffffffffffffffff167fad3fa07f4195b47e64892eb944ecbfc253384053c119852bb2bcae484c2fcb698686856040516111fb93929190613098565b60405180910390a3600760009054906101000a900473ffffffffffffffffffffffffffffffffffffffff1673ffffffffffffffffffffffffffffffffffffffff1663237df35e85856040518363ffffffff1660e01b815260040161126092919061306f565b600060405180830381600087803b15801561127a57600080fd5b505af115801561128e573d6000803e3d6000fd5b505050505050505050565b6000806112a684846118bd565b90506112b181612076565b91505092915050565b6060600180546112c990613807565b80601f01602080910402602001604051908101604052809291908181526020018280546112f590613807565b80156113425780601f1061131757610100808354040283529160200191611342565b820191906000526020600020905b81548152906001019060200180831161132557829003601f168201915b5050505050905090565b60095481565b61135a6117fc565b73ffffffffffffffffffffffffffffffffffffffff168273ffffffffffffffffffffffffffffffffffffffff1614156113c8576040517f08c379a00000000000000000000000000000000000000000000000000000000081526004016113bf9061316c565b60405180910390fd5b80600560006113d56117fc565b73ffffffffffffffffffffffffffffffffffffffff1673ffffffffffffffffffffffffffffffffffffffff16815260200190815260200160002060008473ffffffffffffffffffffffffffffffffffffffff1673ffffffffffffffffffffffffffffffffffffffff16815260200190815260200160002060006101000a81548160ff0219169083151502179055508173ffffffffffffffffffffffffffffffffffffffff166114826117fc565b73ffffffffffffffffffffffffffffffffffffffff167f17307eab39ab6107e8899845ad3d59bd9653f200f220920489ca2b5937696c31836040516114c791906130cf565b60405180910390a35050565b6114e46114de6117fc565b83611a5f565b611523576040517f08c379a000000000000000000000000000000000000000000000000000000000815260040161151a906132ec565b60405180910390fd5b61152f848484846121bb565b50505050565b60085481565b606061154682611790565b611585576040517f08c379a000000000000000000000000000000000000000000000000000000000815260040161157c906132ac565b60405180910390fd5b600061158f612217565b905060008151116115af57604051806020016040528060008152506115da565b806115b98461222e565b6040516020016115ca929190612fad565b6040516020818303038152906040525b915050919050565b6000600560008473ffffffffffffffffffffffffffffffffffffffff1673ffffffffffffffffffffffffffffffffffffffff16815260200190815260200160002060008373ffffffffffffffffffffffffffffffffffffffff1673ffffffffffffffffffffffffffffffffffffffff16815260200190815260200160002060009054906101000a900460ff16905092915050565b61167e612722565b600b60008381526020019081526020016000206040518060a00160405290816000820160009054906101000a900473ffffffffffffffffffffffffffffffffffffffff1673ffffffffffffffffffffffffffffffffffffffff1673ffffffffffffffffffffffffffffffffffffffff1681526020016001820154815260200160028201548152602001600382015481526020016004820154815250509050919050565b601281565b60007f01ffc9a7000000000000000000000000000000000000000000000000000000007bffffffffffffffffffffffffffffffffffffffffffffffffffffffff1916827bffffffffffffffffffffffffffffffffffffffffffffffffffffffff1916149050919050565b60008073ffffffffffffffffffffffffffffffffffffffff166002600084815260200190815260200160002060009054906101000a900473ffffffffffffffffffffffffffffffffffffffff1673ffffffffffffffffffffffffffffffffffffffff1614159050919050565b600033905090565b816004600083815260200190815260200160002060006101000a81548173ffffffffffffffffffffffffffffffffffffffff021916908373ffffffffffffffffffffffffffffffffffffffff160217905550808273ffffffffffffffffffffffffffffffffffffffff1661187783610911565b73ffffffffffffffffffffffffffffffffffffffff167f8c5be1e5ebec7d5bd14f71427d1e84f3dd0314c0f7b2291e5b200ac8c7c3b92560405160405180910390a45050565b6000808273ffffffffffffffffffffffffffffffffffffffff1663313ce5676040518163ffffffff1660e01b815260040160206040518083038186803b15801561190657600080fd5b505afa15801561191a573d6000803e3d6000fd5b505050506040513d601f19601f8201168201806040525081019061193e9190612bc8565b60ff169050601260ff1681111561197e57601260ff168161195f91906136dc565b600a61196b9190613519565b846119769190613495565b9150506119a9565b80601260ff1661198e91906136dc565b600a61199a9190613519565b846119a59190613682565b9150505b92915050565b6000600a54826002015483600401546009546119cb91906136dc565b6119d59190613682565b6119df9190613495565b9050919050565b60008082856009546008546119fb919061343f565b611a0591906136dc565b611a0f91906136dc565b90506000811415611a24576000915050611a57565b808587611a3191906136dc565b85600a54611a3f91906136dc565b611a499190613682565b611a539190613495565b9150505b949350505050565b6000611a6a82611790565b611aa9576040517f08c379a0000000000000000000000000000000000000000000000000000000008152600401611aa09061318c565b60405180910390fd5b6000611ab483610911565b90508073ffffffffffffffffffffffffffffffffffffffff168473ffffffffffffffffffffffffffffffffffffffff161480611b2357508373ffffffffffffffffffffffffffffffffffffffff16611b0b84610645565b73ffffffffffffffffffffffffffffffffffffffff16145b80611b345750611b3381856115e2565b5b91505092915050565b8273ffffffffffffffffffffffffffffffffffffffff16611b5d82610911565b73ffffffffffffffffffffffffffffffffffffffff1614611bb3576040517f08c379a0000000000000000000000000000000000000000000000000000000008152600401611baa9061328c565b60405180910390fd5b600073ffffffffffffffffffffffffffffffffffffffff168273ffffffffffffffffffffffffffffffffffffffff161415611c23576040517f08c379a0000000000000000000000000000000000000000000000000000000008152600401611c1a9061314c565b60405180910390fd5b611c2e83838361238f565b611c39600082611804565b6001600360008573ffffffffffffffffffffffffffffffffffffffff1673ffffffffffffffffffffffffffffffffffffffff1681526020019081526020016000206000828254611c8991906136dc565b925050819055506001600360008473ffffffffffffffffffffffffffffffffffffffff1673ffffffffffffffffffffffffffffffffffffffff1681526020019081526020016000206000828254611ce0919061343f565b92505081905550816002600083815260200190815260200160002060006101000a81548173ffffffffffffffffffffffffffffffffffffffff021916908373ffffffffffffffffffffffffffffffffffffffff160217905550808273ffffffffffffffffffffffffffffffffffffffff168473ffffffffffffffffffffffffffffffffffffffff167fddf252ad1be2c89b69c2b068fc378daa952ba7f163c4a11628f55a4df523b3ef60405160405180910390a4505050565b6000611da482610911565b9050611db28160008461238f565b611dbd600083611804565b6001600360008373ffffffffffffffffffffffffffffffffffffffff1673ffffffffffffffffffffffffffffffffffffffff1681526020019081526020016000206000828254611e0d91906136dc565b925050819055506002600083815260200190815260200160002060006101000a81549073ffffffffffffffffffffffffffffffffffffffff021916905581600073ffffffffffffffffffffffffffffffffffffffff168273ffffffffffffffffffffffffffffffffffffffff167fddf252ad1be2c89b69c2b068fc378daa952ba7f163c4a11628f55a4df523b3ef60405160405180910390a45050565b6000611eba8560010154856118bd565b90506000611ec884866118bd565b90506000611edc83838960020154876119e6565b90508160086000828254611ef091906136dc565b9250508190555084876001016000828254611f0b91906136dc565b92505081905550866002015481600a54611f25919061343f565b611f2f91906136dc565b600a819055506000600a541415611f57576064600a8190555060648760020181905550611f61565b8087600201819055505b600954876004018190555050505050505050565b6000808273ffffffffffffffffffffffffffffffffffffffff1663313ce5676040518163ffffffff1660e01b815260040160206040518083038186803b158015611fbe57600080fd5b505afa158015611fd2573d6000803e3d6000fd5b505050506040513d601f19601f82011682018060405250810190611ff69190612bc8565b9050601260ff168160ff1614156120105783915050612070565b601260ff168160ff16116120475780601261202b9190613710565b600a6120379190613564565b846120429190613495565b61206c565b6012816120549190613710565b600a6120609190613564565b8461206b9190613682565b5b9150505b92915050565b600080600854141561208b57606490506120b6565b60095460085461209b919061343f565b82600a546120a99190613682565b6120b39190613495565b90505b919050565b6120c56006612394565b60006120d160066121ad565b905060006040518060a001604052808773ffffffffffffffffffffffffffffffffffffffff16815260200186815260200185815260200142815260200184815250905061211e87836123aa565b80600b600084815260200190815260200160002060008201518160000160006101000a81548173ffffffffffffffffffffffffffffffffffffffff021916908373ffffffffffffffffffffffffffffffffffffffff1602179055506020820151816001015560408201518160020155606082015181600301556080820151816004015590505050505050505050565b600081600001549050919050565b6121c6848484611b3d565b6121d284848484612578565b612211576040517f08c379a00000000000000000000000000000000000000000000000000000000081526004016122089061310c565b60405180910390fd5b50505050565b606060405180602001604052806000815250905090565b60606000821415612276576040518060400160405280600181526020017f3000000000000000000000000000000000000000000000000000000000000000815250905061238a565b600082905060005b600082146122a85780806122919061386a565b915050600a826122a19190613495565b915061227e565b60008167ffffffffffffffff8111156122c4576122c36139a0565b5b6040519080825280601f01601f1916602001820160405280156122f65781602001600182028036833780820191505090505b5090505b600085146123835760018261230f91906136dc565b9150600a8561231e91906138b3565b603061232a919061343f565b60f81b8183815181106123405761233f613971565b5b60200101907effffffffffffffffffffffffffffffffffffffffffffffffffffffffffffff1916908160001a905350600a8561237c9190613495565b94506122fa565b8093505050505b919050565b505050565b6001816000016000828254019250508190555050565b600073ffffffffffffffffffffffffffffffffffffffff168273ffffffffffffffffffffffffffffffffffffffff16141561241a576040517f08c379a00000000000000000000000000000000000000000000000000000000081526004016124119061322c565b60405180910390fd5b61242381611790565b15612463576040517f08c379a000000000000000000000000000000000000000000000000000000000815260040161245a9061312c565b60405180910390fd5b61246f6000838361238f565b6001600360008473ffffffffffffffffffffffffffffffffffffffff1673ffffffffffffffffffffffffffffffffffffffff16815260200190815260200160002060008282546124bf919061343f565b92505081905550816002600083815260200190815260200160002060006101000a81548173ffffffffffffffffffffffffffffffffffffffff021916908373ffffffffffffffffffffffffffffffffffffffff160217905550808273ffffffffffffffffffffffffffffffffffffffff16600073ffffffffffffffffffffffffffffffffffffffff167fddf252ad1be2c89b69c2b068fc378daa952ba7f163c4a11628f55a4df523b3ef60405160405180910390a45050565b60006125998473ffffffffffffffffffffffffffffffffffffffff1661270f565b15612702578373ffffffffffffffffffffffffffffffffffffffff1663150b7a026125c26117fc565b8786866040518563ffffffff1660e01b81526004016125e49493929190613023565b602060405180830381600087803b1580156125fe57600080fd5b505af192505050801561262f57506040513d601f19601f8201168201806040525081019061262c9190612a87565b60015b6126b2573d806000811461265f576040519150601f19603f3d011682016040523d82523d6000602084013e612664565b606091505b506000815114156126aa576040517f08c379a00000000000000000000000000000000000000000000000000000000081526004016126a19061310c565b60405180910390fd5b805181602001fd5b63150b7a0260e01b7bffffffffffffffffffffffffffffffffffffffffffffffffffffffff1916817bffffffffffffffffffffffffffffffffffffffffffffffffffffffff191614915050612707565b600190505b949350505050565b600080823b905060008111915050919050565b6040518060a00160405280600073ffffffffffffffffffffffffffffffffffffffff168152602001600081526020016000815260200160008152602001600081525090565b600061277a612775846133cb565b6133a6565b905082815260208101848484011115612796576127956139d4565b5b6127a18482856137c5565b509392505050565b6000813590506127b881613e5c565b92915050565b6000813590506127cd81613e73565b92915050565b6000815190506127e281613e73565b92915050565b6000813590506127f781613e8a565b92915050565b60008151905061280c81613e8a565b92915050565b600082601f830112612827576128266139cf565b5b8135612837848260208601612767565b91505092915050565b60008135905061284f81613ea1565b92915050565b60008151905061286481613eb8565b92915050565b6000602082840312156128805761287f6139de565b5b600061288e848285016127a9565b91505092915050565b600080604083850312156128ae576128ad6139de565b5b60006128bc858286016127a9565b92505060206128cd858286016127a9565b9150509250929050565b6000806000606084860312156128f0576128ef6139de565b5b60006128fe868287016127a9565b935050602061290f868287016127a9565b925050604061292086828701612840565b9150509250925092565b60008060008060808587031215612944576129436139de565b5b6000612952878288016127a9565b9450506020612963878288016127a9565b935050604061297487828801612840565b925050606085013567ffffffffffffffff811115612995576129946139d9565b5b6129a187828801612812565b91505092959194509250565b600080604083850312156129c4576129c36139de565b5b60006129d2858286016127a9565b92505060206129e3858286016127be565b9150509250929050565b60008060408385031215612a0457612a036139de565b5b6000612a12858286016127a9565b9250506020612a2385828601612840565b9150509250929050565b600060208284031215612a4357612a426139de565b5b6000612a51848285016127d3565b91505092915050565b600060208284031215612a7057612a6f6139de565b5b6000612a7e848285016127e8565b91505092915050565b600060208284031215612a9d57612a9c6139de565b5b6000612aab848285016127fd565b91505092915050565b600060208284031215612aca57612ac96139de565b5b6000612ad884828501612840565b91505092915050565b60008060408385031215612af857612af76139de565b5b6000612b0685828601612840565b9250506020612b17858286016127a9565b9150509250929050565b60008060008060808587031215612b3b57612b3a6139de565b5b6000612b4987828801612840565b9450506020612b5a878288016127a9565b9350506040612b6b878288016127a9565b9250506060612b7c87828801612840565b91505092959194509250565b60008060408385031215612b9f57612b9e6139de565b5b6000612bad85828601612840565b9250506020612bbe85828601612840565b9150509250929050565b600060208284031215612bde57612bdd6139de565b5b6000612bec84828501612855565b91505092915050565b612bfe81613744565b82525050565b612c0d81613744565b82525050565b612c1c81613756565b82525050565b6000612c2d826133fc565b612c378185613412565b9350612c478185602086016137d4565b612c50816139e3565b840191505092915050565b6000612c6682613407565b612c708185613423565b9350612c808185602086016137d4565b612c89816139e3565b840191505092915050565b6000612c9f82613407565b612ca98185613434565b9350612cb98185602086016137d4565b80840191505092915050565b6000612cd2603283613423565b9150612cdd82613a01565b604082019050919050565b6000612cf5601c83613423565b9150612d0082613a50565b602082019050919050565b6000612d18602483613423565b9150612d2382613a79565b604082019050919050565b6000612d3b601983613423565b9150612d4682613ac8565b602082019050919050565b6000612d5e602c83613423565b9150612d6982613af1565b604082019050919050565b6000612d81600d83613423565b9150612d8c82613b40565b602082019050919050565b6000612da4603883613423565b9150612daf82613b69565b604082019050919050565b6000612dc7602a83613423565b9150612dd282613bb8565b604082019050919050565b6000612dea602983613423565b9150612df582613c07565b604082019050919050565b6000612e0d602083613423565b9150612e1882613c56565b602082019050919050565b6000612e30602c83613423565b9150612e3b82613c7f565b604082019050919050565b6000612e53601c83613423565b9150612e5e82613cce565b602082019050919050565b6000612e76602983613423565b9150612e8182613cf7565b604082019050919050565b6000612e99602f83613423565b9150612ea482613d46565b604082019050919050565b6000612ebc602183613423565b9150612ec782613d95565b604082019050919050565b6000612edf603183613423565b9150612eea82613de4565b604082019050919050565b6000612f02601683613423565b9150612f0d82613e33565b602082019050919050565b60a082016000820151612f2e6000850182612bf5565b506020820151612f416020850182612f80565b506040820151612f546040850182612f80565b506060820151612f676060850182612f80565b506080820151612f7a6080850182612f80565b50505050565b612f89816137ae565b82525050565b612f98816137ae565b82525050565b612fa7816137b8565b82525050565b6000612fb98285612c94565b9150612fc58284612c94565b91508190509392505050565b6000602082019050612fe66000830184612c04565b92915050565b60006060820190506130016000830186612c04565b61300e6020830185612c04565b61301b6040830184612f8f565b949350505050565b60006080820190506130386000830187612c04565b6130456020830186612c04565b6130526040830185612f8f565b81810360608301526130648184612c22565b905095945050505050565b60006040820190506130846000830185612c04565b6130916020830184612f8f565b9392505050565b60006060820190506130ad6000830186612c04565b6130ba6020830185612f8f565b6130c76040830184612f8f565b949350505050565b60006020820190506130e46000830184612c13565b92915050565b600060208201905081810360008301526131048184612c5b565b905092915050565b6000602082019050818103600083015261312581612cc5565b9050919050565b6000602082019050818103600083015261314581612ce8565b9050919050565b6000602082019050818103600083015261316581612d0b565b9050919050565b6000602082019050818103600083015261318581612d2e565b9050919050565b600060208201905081810360008301526131a581612d51565b9050919050565b600060208201905081810360008301526131c581612d74565b9050919050565b600060208201905081810360008301526131e581612d97565b9050919050565b6000602082019050818103600083015261320581612dba565b9050919050565b6000602082019050818103600083015261322581612ddd565b9050919050565b6000602082019050818103600083015261324581612e00565b9050919050565b6000602082019050818103600083015261326581612e23565b9050919050565b6000602082019050818103600083015261328581612e46565b9050919050565b600060208201905081810360008301526132a581612e69565b9050919050565b600060208201905081810360008301526132c581612e8c565b9050919050565b600060208201905081810360008301526132e581612eaf565b9050919050565b6000602082019050818103600083015261330581612ed2565b9050919050565b6000602082019050818103600083015261332581612ef5565b9050919050565b600060a0820190506133416000830184612f18565b92915050565b600060208201905061335c6000830184612f8f565b92915050565b60006040820190506133776000830185612f8f565b6133846020830184612c04565b9392505050565b60006020820190506133a06000830184612f9e565b92915050565b60006133b06133c1565b90506133bc8282613839565b919050565b6000604051905090565b600067ffffffffffffffff8211156133e6576133e56139a0565b5b6133ef826139e3565b9050602081019050919050565b600081519050919050565b600081519050919050565b600082825260208201905092915050565b600082825260208201905092915050565b600081905092915050565b600061344a826137ae565b9150613455836137ae565b9250827fffffffffffffffffffffffffffffffffffffffffffffffffffffffffffffffff0382111561348a576134896138e4565b5b828201905092915050565b60006134a0826137ae565b91506134ab836137ae565b9250826134bb576134ba613913565b5b828204905092915050565b6000808291508390505b6001851115613510578086048111156134ec576134eb6138e4565b5b60018516156134fb5780820291505b8081029050613509856139f4565b94506134d0565b94509492505050565b6000613524826137ae565b915061352f836137ae565b925061355c7fffffffffffffffffffffffffffffffffffffffffffffffffffffffffffffffff84846135af565b905092915050565b600061356f826137ae565b915061357a836137b8565b92506135a77fffffffffffffffffffffffffffffffffffffffffffffffffffffffffffffffff84846135af565b905092915050565b6000826135bf576001905061367b565b816135cd576000905061367b565b81600181146135e357600281146135ed5761361c565b600191505061367b565b60ff8411156135ff576135fe6138e4565b5b8360020a915084821115613616576136156138e4565b5b5061367b565b5060208310610133831016604e8410600b84101617156136515782820a90508381111561364c5761364b6138e4565b5b61367b565b61365e84848460016134c6565b92509050818404811115613675576136746138e4565b5b81810290505b9392505050565b600061368d826137ae565b9150613698836137ae565b9250817fffffffffffffffffffffffffffffffffffffffffffffffffffffffffffffffff04831182151516156136d1576136d06138e4565b5b828202905092915050565b60006136e7826137ae565b91506136f2836137ae565b925082821015613705576137046138e4565b5b828203905092915050565b600061371b826137b8565b9150613726836137b8565b925082821015613739576137386138e4565b5b828203905092915050565b600061374f8261378e565b9050919050565b60008115159050919050565b60007fffffffff0000000000000000000000000000000000000000000000000000000082169050919050565b600073ffffffffffffffffffffffffffffffffffffffff82169050919050565b6000819050919050565b600060ff82169050919050565b82818337600083830152505050565b60005b838110156137f25780820151818401526020810190506137d7565b83811115613801576000848401525b50505050565b6000600282049050600182168061381f57607f821691505b6020821081141561383357613832613942565b5b50919050565b613842826139e3565b810181811067ffffffffffffffff82111715613861576138606139a0565b5b80604052505050565b6000613875826137ae565b91507fffffffffffffffffffffffffffffffffffffffffffffffffffffffffffffffff8214156138a8576138a76138e4565b5b600182019050919050565b60006138be826137ae565b91506138c9836137ae565b9250826138d9576138d8613913565b5b828206905092915050565b7f4e487b7100000000000000000000000000000000000000000000000000000000600052601160045260246000fd5b7f4e487b7100000000000000000000000000000000000000000000000000000000600052601260045260246000fd5b7f4e487b7100000000000000000000000000000000000000000000000000000000600052602260045260246000fd5b7f4e487b7100000000000000000000000000000000000000000000000000000000600052603260045260246000fd5b7f4e487b7100000000000000000000000000000000000000000000000000000000600052604160045260246000fd5b600080fd5b600080fd5b600080fd5b600080fd5b6000601f19601f8301169050919050565b60008160011c9050919050565b7f4552433732313a207472616e7366657220746f206e6f6e20455243373231526560008201527f63656976657220696d706c656d656e7465720000000000000000000000000000602082015250565b7f4552433732313a20746f6b656e20616c7265616479206d696e74656400000000600082015250565b7f4552433732313a207472616e7366657220746f20746865207a65726f2061646460008201527f7265737300000000000000000000000000000000000000000000000000000000602082015250565b7f4552433732313a20617070726f766520746f2063616c6c657200000000000000600082015250565b7f4552433732313a206f70657261746f7220717565727920666f72206e6f6e657860008201527f697374656e7420746f6b656e0000000000000000000000000000000000000000602082015250565b7f496e76616c696420746f6b656e00000000000000000000000000000000000000600082015250565b7f4552433732313a20617070726f76652063616c6c6572206973206e6f74206f7760008201527f6e6572206e6f7220617070726f76656420666f7220616c6c0000000000000000602082015250565b7f4552433732313a2062616c616e636520717565727920666f7220746865207a6560008201527f726f206164647265737300000000000000000000000000000000000000000000602082015250565b7f4552433732313a206f776e657220717565727920666f72206e6f6e657869737460008201527f656e7420746f6b656e0000000000000000000000000000000000000000000000602082015250565b7f4552433732313a206d696e7420746f20746865207a65726f2061646472657373600082015250565b7f4552433732313a20617070726f76656420717565727920666f72206e6f6e657860008201527f697374656e7420746f6b656e0000000000000000000000000000000000000000602082015250565b7f4e6f7420656e6f7567682073686172657320746f20756e7374616b6500000000600082015250565b7f4552433732313a207472616e73666572206f6620746f6b656e2074686174206960008201527f73206e6f74206f776e0000000000000000000000000000000000000000000000602082015250565b7f4552433732314d657461646174613a2055524920717565727920666f72206e6f60008201527f6e6578697374656e7420746f6b656e0000000000000000000000000000000000602082015250565b7f4552433732313a20617070726f76616c20746f2063757272656e74206f776e6560008201527f7200000000000000000000000000000000000000000000000000000000000000602082015250565b7f4552433732313a207472616e736665722063616c6c6572206973206e6f74206f60008201527f776e6572206e6f7220617070726f766564000000000000000000000000000000602082015250565b7f556e737570706f7274656420737461626c65636f696e00000000000000000000600082015250565b613e6581613744565b8114613e7057600080fd5b50565b613e7c81613756565b8114613e8757600080fd5b50565b613e9381613762565b8114613e9e57600080fd5b50565b613eaa816137ae565b8114613eb557600080fd5b50565b613ec1816137b8565b8114613ecc57600080fd5b5056fea264697066735822122029df497a126237a768081e85b6f8043643948c322e9fbe48bff2d66d76b4e75c64736f6c63430008060033",
  "immutableReferences": {},
  "source": "// SPDX-License-Identifier: MIT\npragma solidity ^0.8.5;\n\nimport \"@openzeppelin/contracts/token/ERC721/ERC721.sol\";\nimport \"@openzeppelin/contracts/utils/Counters.sol\";\nimport \"./FundsManager.sol\";\n\ncontract Staking is ERC721 {\n    using Counters for Counters.Counter;\n\n    uint8 public constant STORAGE_DECIMALS = 18;\n\n    struct Position {\n        address stakeToken;\n        uint256 stakeAmount;\n        uint256 shares;\n        uint256 timestamp;\n        uint256 totalRewards;\n    }\n\n    Counters.Counter private _positionId;\n\n    FundsManager private _fundsManager;\n\n    uint256 public totalStakes;\n\n    //where do tokens for accumulatedRewards come from?\n    uint256 public accumulatedRewards;\n\n    uint256 public totalShares;\n\n    mapping(uint256 => Position) private _positions;\n\n    event Staked(\n        address indexed staker,\n        address stablecoin,\n        uint256 amountToken,\n        uint256 amountShares,\n        uint256 indexed positionId\n    );\n\n    event Unstaked(\n        uint256 indexed positionId,\n        address indexed staker,\n        uint256 amountToken,\n        address stablecoin\n    );\n\n    event Closed(uint256 indexed positionId, address indexed staker);\n\n    //solhint-disable-next-line\n    constructor(\n        string memory _tokenName,\n        string memory _tokenSymbol,\n        address fundsManager\n    ) ERC721(_tokenName, _tokenSymbol) {\n        _fundsManager = FundsManager(fundsManager);\n    }\n\n    //TODO: change order of parameters, so that method reads `stakeStablecoin by staker amountToken of stablecoin`\n    function stakeStablecoin(\n        address staker,\n        address stablecoin,\n        uint256 amountToken\n    ) external {\n        require(_fundsManager.isSupported(stablecoin), \"Unsupported stablecoin\");\n\n        IERC20(stablecoin).transferFrom(msg.sender, address(_fundsManager), amountToken);\n        uint256 normalizedAmountToken = _normalizedToStorage(amountToken, stablecoin);\n        uint256 shares = _getSharesAmountOut(normalizedAmountToken);\n\n        _mint(staker, stablecoin, amountToken, shares, accumulatedRewards);\n\n        totalShares += shares;\n        totalStakes += normalizedAmountToken;\n\n        emit Staked(staker, stablecoin, amountToken, shares, _positionId.current());\n\n        _fundsManager.updateStaking(stablecoin, amountToken);\n    }\n\n    function _mint(\n        address to,\n        address stablecoin,\n        uint256 amountToken,\n        uint256 amountShares,\n        uint256 rewards\n    ) internal {\n        _positionId.increment();\n        uint256 newPositionId = _positionId.current();\n\n        Position memory position = Position({\n            stakeToken: stablecoin,\n            stakeAmount: amountToken,\n            shares: amountShares,\n            timestamp: block.timestamp,\n            totalRewards: rewards\n        });\n\n        _mint(to, newPositionId);\n\n        _positions[newPositionId] = position;\n    }\n\n    function getSharesAmountOut(uint256 amountToken, address stablecoin) external view returns (uint256) {\n        uint256 normalizedAmountToken = _normalizedToStorage(amountToken, stablecoin);\n        return _getSharesAmountOut(normalizedAmountToken);\n    }\n\n    /**\n     * @dev this method assumes that amountToken is normalized to storage precision using _normalizedToStorage method\n     */\n    function _getSharesAmountOut(uint256 amountToken) private view returns (uint256) {\n        if (totalStakes == 0) {\n            return 100;\n        }\n        return (totalShares * amountToken) / (totalStakes + accumulatedRewards);\n    }\n\n    /**\n     * @dev normalizes amount of token to storage size. The storage by default stores values with 6 decimals\n     *      so when a token with different amount of decimals is used the value is either multiplied\n     *      or divided by proper power of 10.\n     */\n    function _normalizedToStorage(uint256 amount, address token) private view returns (uint256) {\n        uint256 decimals = ERC20(token).decimals();\n        if (decimals > STORAGE_DECIMALS) {\n            return amount / 10**(decimals - STORAGE_DECIMALS);\n        } else {\n            return amount * 10**(STORAGE_DECIMALS - decimals);\n        }\n    }\n\n    function unstakeStablecoin(\n        uint256 positionId,\n        address staker,\n        address stablecoin,\n        uint256 amountToken\n    ) external {\n        require(_fundsManager.isSupported(stablecoin), \"Unsupported stablecoin\");\n        require(_positions[positionId].stakeAmount >= amountToken, \"Not enough shares to unstake\");\n        Position storage position = _positions[positionId];\n\n        if (position.stakeAmount - amountToken == 0) {\n            _burn(positionId);\n            delete _positions[positionId];\n            emit Closed(positionId, staker);\n        } else {\n            uint256 reward = _calculateReward(position);\n            _unstake(position, stablecoin, amountToken, reward);\n            emit Unstaked(positionId, staker, amountToken, stablecoin);\n            _fundsManager.transferStablecoinTo(\n                staker,\n                stablecoin,\n                amountToken + _normalizeRewardToStablecoin(reward, stablecoin)\n            );\n        }\n    }\n\n    function _unstake(\n        Position storage position,\n        address stablecoin,\n        uint256 amountToken,\n        uint256 reward\n    ) internal {\n        uint256 positionStakeNormalized = _normalizedToStorage(position.stakeAmount, stablecoin);\n        uint256 amountNormalized = _normalizedToStorage(amountToken, stablecoin);\n\n        uint256 updatedShares = _calculateShares(\n            positionStakeNormalized,\n            amountNormalized,\n            position.shares,\n            reward\n        );\n\n        totalStakes -= amountNormalized;\n        position.stakeAmount -= amountToken;\n        totalShares = totalShares + updatedShares - position.shares;\n        if (totalShares == 0) {\n            totalShares = 100;\n            position.shares = 100;\n        } else {\n            position.shares = updatedShares;\n        }\n        position.totalRewards = accumulatedRewards;\n    }\n\n    function _normalizeRewardToStablecoin(uint256 reward, address stablecoin)\n        internal\n        view\n        returns (uint256)\n    {\n        uint8 decimals = ERC20(stablecoin).decimals();\n        if (decimals == STORAGE_DECIMALS) {\n            return reward;\n        }\n\n        return\n            decimals > STORAGE_DECIMALS\n                ? reward * 10**(decimals - STORAGE_DECIMALS)\n                : reward / 10**(STORAGE_DECIMALS - decimals);\n    }\n\n    /**\n     * @dev this method assumes that positionStakeNormalized and amountTokenNormalized are values already normalized to storage precision\n     * using _normalizedToStorage method\n     */\n    function _calculateShares(\n        uint256 positionStakeNormalized,\n        uint256 amountTokenNormalized,\n        uint256 positionShares,\n        uint256 reward\n    ) private view returns (uint256) {\n        uint256 denominator = totalStakes + accumulatedRewards - amountTokenNormalized - reward;\n        if (denominator == 0) {\n            return 0;\n        } else {\n            return\n                ((totalShares - positionShares) * (positionStakeNormalized - amountTokenNormalized)) /\n                denominator;\n        }\n    }\n\n    function _calculateReward(Position storage position) private view returns (uint256) {\n        return ((accumulatedRewards - position.totalRewards) * position.shares) / totalShares;\n    }\n\n    function getPosition(uint256 positionId) external view returns (Position memory) {\n        return _positions[positionId];\n    }\n\n    function depositRewards(uint256 amount, address stablecoin) external {\n        require(stablecoin != address(0), \"Invalid token\");\n        IERC20(stablecoin).transferFrom(msg.sender, address(_fundsManager), amount);\n        _fundsManager.updateStaking(stablecoin, amount);\n        accumulatedRewards += _normalizedToStorage(amount, stablecoin);\n    }\n\n    function getClaimableRewards(uint256 positionId) external view returns (uint256) {\n        return _calculateReward(_positions[positionId]);\n    }\n\n    function getSharesAfterUnstaking(uint256 positionId, uint256 amount) external view returns (uint256) {\n        Position storage position = _positions[positionId];\n        uint256 positionStakeNormalized = _normalizedToStorage(position.stakeAmount, position.stakeToken);\n        uint256 amountNormalized = _normalizedToStorage(amount, position.stakeToken);\n        uint256 reward = _calculateReward(position);\n        return _calculateShares(positionStakeNormalized, amountNormalized, position.shares, reward);\n    }\n}\n",
  "sourcePath": "/Users/angelsatorresalmenara/Desktop/privi-trax-smart-contracts/contracts/Staking.sol",
  "compiler": {
    "name": "solc",
    "version": "0.8.6+commit.11564f7e.Emscripten.clang"
  },
  "schemaVersion": "3.4.2",
  "updatedAt": "2021-09-02T15:28:46.722Z",
  "networkType": "ethereum",
  "devdoc": {
    "kind": "dev",
    "methods": {
      "approve(address,uint256)": {
        "details": "See {IERC721-approve}."
      },
      "balanceOf(address)": {
        "details": "See {IERC721-balanceOf}."
      },
      "getApproved(uint256)": {
        "details": "See {IERC721-getApproved}."
      },
      "isApprovedForAll(address,address)": {
        "details": "See {IERC721-isApprovedForAll}."
      },
      "name()": {
        "details": "See {IERC721Metadata-name}."
      },
      "ownerOf(uint256)": {
        "details": "See {IERC721-ownerOf}."
      },
      "safeTransferFrom(address,address,uint256)": {
        "details": "See {IERC721-safeTransferFrom}."
      },
      "safeTransferFrom(address,address,uint256,bytes)": {
        "details": "See {IERC721-safeTransferFrom}."
      },
      "setApprovalForAll(address,bool)": {
        "details": "See {IERC721-setApprovalForAll}."
      },
      "supportsInterface(bytes4)": {
        "details": "See {IERC165-supportsInterface}."
      },
      "symbol()": {
        "details": "See {IERC721Metadata-symbol}."
      },
      "tokenURI(uint256)": {
        "details": "See {IERC721Metadata-tokenURI}."
      },
      "transferFrom(address,address,uint256)": {
        "details": "See {IERC721-transferFrom}."
      }
    },
    "version": 1
  },
  "userdoc": {
    "kind": "user",
    "methods": {},
    "version": 1
  }
}