{
  "contractName": "TraxStakeToken",
  "abi": [
    {
      "inputs": [
        {
          "internalType": "address",
          "name": "traxTokenAddress",
          "type": "address"
        },
        {
          "internalType": "address",
          "name": "automatedInvestorAddress",
          "type": "address"
        }
      ],
      "stateMutability": "nonpayable",
      "type": "constructor"
    },
    {
      "anonymous": false,
      "inputs": [
        {
          "indexed": true,
          "internalType": "address",
          "name": "owner",
          "type": "address"
        },
        {
          "indexed": true,
          "internalType": "address",
          "name": "approved",
          "type": "address"
        },
        {
          "indexed": true,
          "internalType": "uint256",
          "name": "tokenId",
          "type": "uint256"
        }
      ],
      "name": "Approval",
      "type": "event"
    },
    {
      "anonymous": false,
      "inputs": [
        {
          "indexed": true,
          "internalType": "address",
          "name": "owner",
          "type": "address"
        },
        {
          "indexed": true,
          "internalType": "address",
          "name": "operator",
          "type": "address"
        },
        {
          "indexed": false,
          "internalType": "bool",
          "name": "approved",
          "type": "bool"
        }
      ],
      "name": "ApprovalForAll",
      "type": "event"
    },
    {
      "anonymous": false,
      "inputs": [
        {
          "indexed": true,
          "internalType": "address",
          "name": "holder",
          "type": "address"
        },
        {
          "indexed": false,
          "internalType": "uint256",
          "name": "nftId",
          "type": "uint256"
        },
        {
          "indexed": false,
          "internalType": "uint256",
          "name": "position",
          "type": "uint256"
        }
      ],
      "name": "StakeTokens",
      "type": "event"
    },
    {
      "anonymous": false,
      "inputs": [
        {
          "indexed": true,
          "internalType": "address",
          "name": "from",
          "type": "address"
        },
        {
          "indexed": true,
          "internalType": "address",
          "name": "to",
          "type": "address"
        },
        {
          "indexed": true,
          "internalType": "uint256",
          "name": "tokenId",
          "type": "uint256"
        }
      ],
      "name": "Transfer",
      "type": "event"
    },
    {
      "inputs": [
        {
          "internalType": "address",
          "name": "to",
          "type": "address"
        },
        {
          "internalType": "uint256",
          "name": "tokenId",
          "type": "uint256"
        }
      ],
      "name": "approve",
      "outputs": [],
      "stateMutability": "nonpayable",
      "type": "function"
    },
    {
      "inputs": [
        {
          "internalType": "address",
          "name": "owner",
          "type": "address"
        }
      ],
      "name": "balanceOf",
      "outputs": [
        {
          "internalType": "uint256",
          "name": "",
          "type": "uint256"
        }
      ],
      "stateMutability": "view",
      "type": "function"
    },
    {
      "inputs": [
        {
          "internalType": "uint256",
          "name": "tokenId",
          "type": "uint256"
        }
      ],
      "name": "getApproved",
      "outputs": [
        {
          "internalType": "address",
          "name": "",
          "type": "address"
        }
      ],
      "stateMutability": "view",
      "type": "function"
    },
    {
      "inputs": [
        {
          "internalType": "address",
          "name": "owner",
          "type": "address"
        },
        {
          "internalType": "address",
          "name": "operator",
          "type": "address"
        }
      ],
      "name": "isApprovedForAll",
      "outputs": [
        {
          "internalType": "bool",
          "name": "",
          "type": "bool"
        }
      ],
      "stateMutability": "view",
      "type": "function"
    },
    {
      "inputs": [
        {
          "internalType": "uint256",
          "name": "tokenId",
          "type": "uint256"
        }
      ],
      "name": "ownerOf",
      "outputs": [
        {
          "internalType": "address",
          "name": "",
          "type": "address"
        }
      ],
      "stateMutability": "view",
      "type": "function"
    },
    {
      "inputs": [
        {
          "internalType": "address",
          "name": "from",
          "type": "address"
        },
        {
          "internalType": "address",
          "name": "to",
          "type": "address"
        },
        {
          "internalType": "uint256",
          "name": "tokenId",
          "type": "uint256"
        }
      ],
      "name": "safeTransferFrom",
      "outputs": [],
      "stateMutability": "nonpayable",
      "type": "function"
    },
    {
      "inputs": [
        {
          "internalType": "address",
          "name": "from",
          "type": "address"
        },
        {
          "internalType": "address",
          "name": "to",
          "type": "address"
        },
        {
          "internalType": "uint256",
          "name": "tokenId",
          "type": "uint256"
        },
        {
          "internalType": "bytes",
          "name": "_data",
          "type": "bytes"
        }
      ],
      "name": "safeTransferFrom",
      "outputs": [],
      "stateMutability": "nonpayable",
      "type": "function"
    },
    {
      "inputs": [
        {
          "internalType": "address",
          "name": "operator",
          "type": "address"
        },
        {
          "internalType": "bool",
          "name": "approved",
          "type": "bool"
        }
      ],
      "name": "setApprovalForAll",
      "outputs": [],
      "stateMutability": "nonpayable",
      "type": "function"
    },
    {
      "inputs": [
        {
          "internalType": "bytes4",
          "name": "interfaceId",
          "type": "bytes4"
        }
      ],
      "name": "supportsInterface",
      "outputs": [
        {
          "internalType": "bool",
          "name": "",
          "type": "bool"
        }
      ],
      "stateMutability": "view",
      "type": "function"
    },
    {
      "inputs": [
        {
          "internalType": "uint256",
          "name": "",
          "type": "uint256"
        }
      ],
      "name": "tokenPositionIndex",
      "outputs": [
        {
          "internalType": "uint256",
          "name": "",
          "type": "uint256"
        }
      ],
      "stateMutability": "view",
      "type": "function"
    },
    {
      "inputs": [
        {
          "internalType": "uint256",
          "name": "tokenId",
          "type": "uint256"
        }
      ],
      "name": "tokenURI",
      "outputs": [
        {
          "internalType": "string",
          "name": "",
          "type": "string"
        }
      ],
      "stateMutability": "view",
      "type": "function"
    },
    {
      "inputs": [
        {
          "internalType": "address",
          "name": "from",
          "type": "address"
        },
        {
          "internalType": "address",
          "name": "to",
          "type": "address"
        },
        {
          "internalType": "uint256",
          "name": "tokenId",
          "type": "uint256"
        }
      ],
      "name": "transferFrom",
      "outputs": [],
      "stateMutability": "nonpayable",
      "type": "function"
    },
    {
      "inputs": [
        {
          "internalType": "string",
          "name": "_name",
          "type": "string"
        },
        {
          "internalType": "string",
          "name": "_symbol",
          "type": "string"
        }
      ],
      "name": "initialize",
      "outputs": [],
      "stateMutability": "nonpayable",
      "type": "function"
    },
    {
      "inputs": [],
      "name": "name",
      "outputs": [
        {
          "internalType": "string",
          "name": "",
          "type": "string"
        }
      ],
      "stateMutability": "view",
      "type": "function"
    },
    {
      "inputs": [],
      "name": "symbol",
      "outputs": [
        {
          "internalType": "string",
          "name": "",
          "type": "string"
        }
      ],
      "stateMutability": "view",
      "type": "function"
    },
    {
      "inputs": [
        {
          "internalType": "uint256",
          "name": "_positionIndex",
          "type": "uint256"
        }
      ],
      "name": "stake",
      "outputs": [],
      "stateMutability": "nonpayable",
      "type": "function"
    }
  ],
  "bytecode": "0x60c06040523480156200001157600080fd5b5060405162002b1638038062002b16833981810160405281019062000037919062000214565b6040518060400160405280601681526020017f50726976692054524158205374616b6520546f6b656e000000000000000000008152506040518060400160405280600481526020017f70545354000000000000000000000000000000000000000000000000000000008152508160009080519060200190620000bb9291906200014d565b508060019080519060200190620000d49291906200014d565b5050508173ffffffffffffffffffffffffffffffffffffffff1660808173ffffffffffffffffffffffffffffffffffffffff1660601b815250508073ffffffffffffffffffffffffffffffffffffffff1660a08173ffffffffffffffffffffffffffffffffffffffff1660601b81525050505062000313565b8280546200015b906200028f565b90600052602060002090601f0160209004810192826200017f5760008555620001cb565b82601f106200019a57805160ff1916838001178555620001cb565b82800160010185558215620001cb579182015b82811115620001ca578251825591602001919060010190620001ad565b5b509050620001da9190620001de565b5090565b5b80821115620001f9576000816000905550600101620001df565b5090565b6000815190506200020e81620002f9565b92915050565b600080604083850312156200022e576200022d620002f4565b5b60006200023e85828601620001fd565b92505060206200025185828601620001fd565b9150509250929050565b600062000268826200026f565b9050919050565b600073ffffffffffffffffffffffffffffffffffffffff82169050919050565b60006002820490506001821680620002a857607f821691505b60208210811415620002bf57620002be620002c5565b5b50919050565b7f4e487b7100000000000000000000000000000000000000000000000000000000600052602260045260246000fd5b600080fd5b62000304816200025b565b81146200031057600080fd5b50565b60805160601c60a05160601c6127dd6200033960003960005050600050506127dd6000f3fe608060405234801561001057600080fd5b50600436106101005760003560e01c80636352211e11610097578063a694fc3a11610066578063a694fc3a146102bd578063b88d4fde146102d9578063c87b56dd146102f5578063e985e9c51461032557610100565b80636352211e1461022357806370a082311461025357806395d89b4114610283578063a22cb465146102a157610100565b8063095ea7b3116100d3578063095ea7b3146101b357806323b872dd146101cf57806342842e0e146101eb5780634cd88b761461020757610100565b8063010306291461010557806301ffc9a71461013557806306fdde0314610165578063081812fc14610183575b600080fd5b61011f600480360381019061011a9190611a26565b610355565b60405161012c9190611f52565b60405180910390f35b61014f600480360381019061014a919061194b565b61036d565b60405161015c9190611d75565b60405180910390f35b61016d61044f565b60405161017a9190611d90565b60405180910390f35b61019d60048036038101906101989190611a26565b6104e1565b6040516101aa9190611d0e565b60405180910390f35b6101cd60048036038101906101c8919061190b565b610566565b005b6101e960048036038101906101e491906117f5565b61067e565b005b610205600480360381019061020091906117f5565b6106de565b005b610221600480360381019061021c91906119a5565b6106fe565b005b61023d60048036038101906102389190611a26565b610845565b60405161024a9190611d0e565b60405180910390f35b61026d60048036038101906102689190611788565b6108f7565b60405161027a9190611f52565b60405180910390f35b61028b6109af565b6040516102989190611d90565b60405180910390f35b6102bb60048036038101906102b691906118cb565b610a41565b005b6102d760048036038101906102d29190611a26565b610bc2565b005b6102f360048036038101906102ee9190611848565b610bc5565b005b61030f600480360381019061030a9190611a26565b610c27565b60405161031c9190611d90565b60405180910390f35b61033f600480360381019061033a91906117b5565b610cce565b60405161034c9190611d75565b60405180910390f35b600b6020528060005260406000206000915090505481565b60007f80ac58cd000000000000000000000000000000000000000000000000000000007bffffffffffffffffffffffffffffffffffffffffffffffffffffffff1916827bffffffffffffffffffffffffffffffffffffffffffffffffffffffff1916148061043857507f5b5e139f000000000000000000000000000000000000000000000000000000007bffffffffffffffffffffffffffffffffffffffffffffffffffffffff1916827bffffffffffffffffffffffffffffffffffffffffffffffffffffffff1916145b80610448575061044782610d62565b5b9050919050565b60606009805461045e90612177565b80601f016020809104026020016040519081016040528092919081815260200182805461048a90612177565b80156104d75780601f106104ac576101008083540402835291602001916104d7565b820191906000526020600020905b8154815290600101906020018083116104ba57829003601f168201915b5050505050905090565b60006104ec82610dcc565b61052b576040517f08c379a000000000000000000000000000000000000000000000000000000000815260040161052290611eb2565b60405180910390fd5b6004600083815260200190815260200160002060009054906101000a900473ffffffffffffffffffffffffffffffffffffffff169050919050565b600061057182610845565b90508073ffffffffffffffffffffffffffffffffffffffff168373ffffffffffffffffffffffffffffffffffffffff1614156105e2576040517f08c379a00000000000000000000000000000000000000000000000000000000081526004016105d990611f12565b60405180910390fd5b8073ffffffffffffffffffffffffffffffffffffffff16610601610e38565b73ffffffffffffffffffffffffffffffffffffffff161480610630575061062f8161062a610e38565b610cce565b5b61066f576040517f08c379a000000000000000000000000000000000000000000000000000000000815260040161066690611e32565b60405180910390fd5b6106798383610e40565b505050565b61068f610689610e38565b82610ef9565b6106ce576040517f08c379a00000000000000000000000000000000000000000000000000000000081526004016106c590611f32565b60405180910390fd5b6106d9838383610fd7565b505050565b6106f983838360405180602001604052806000815250610bc5565b505050565b600660019054906101000a900460ff16806107265750600660009054906101000a900460ff16155b610765576040517f08c379a000000000000000000000000000000000000000000000000000000000815260040161075c90611e92565b60405180910390fd5b6000600660019054906101000a900460ff1615905080156107b7576001600660016101000a81548160ff0219169083151502179055506001600660006101000a81548160ff0219169083151502179055505b8484600991906107c89291906115b6565b508282600a91906107da9291906115b6565b5033600860006101000a81548173ffffffffffffffffffffffffffffffffffffffff021916908373ffffffffffffffffffffffffffffffffffffffff160217905550801561083e576000600660016101000a81548160ff0219169083151502179055505b5050505050565b6000806002600084815260200190815260200160002060009054906101000a900473ffffffffffffffffffffffffffffffffffffffff169050600073ffffffffffffffffffffffffffffffffffffffff168173ffffffffffffffffffffffffffffffffffffffff1614156108ee576040517f08c379a00000000000000000000000000000000000000000000000000000000081526004016108e590611e72565b60405180910390fd5b80915050919050565b60008073ffffffffffffffffffffffffffffffffffffffff168273ffffffffffffffffffffffffffffffffffffffff161415610968576040517f08c379a000000000000000000000000000000000000000000000000000000000815260040161095f90611e52565b60405180910390fd5b600360008373ffffffffffffffffffffffffffffffffffffffff1673ffffffffffffffffffffffffffffffffffffffff168152602001908152602001600020549050919050565b6060600a80546109be90612177565b80601f01602080910402602001604051908101604052809291908181526020018280546109ea90612177565b8015610a375780601f10610a0c57610100808354040283529160200191610a37565b820191906000526020600020905b815481529060010190602001808311610a1a57829003601f168201915b5050505050905090565b610a49610e38565b73ffffffffffffffffffffffffffffffffffffffff168273ffffffffffffffffffffffffffffffffffffffff161415610ab7576040517f08c379a0000000000000000000000000000000000000000000000000000000008152600401610aae90611df2565b60405180910390fd5b8060056000610ac4610e38565b73ffffffffffffffffffffffffffffffffffffffff1673ffffffffffffffffffffffffffffffffffffffff16815260200190815260200160002060008473ffffffffffffffffffffffffffffffffffffffff1673ffffffffffffffffffffffffffffffffffffffff16815260200190815260200160002060006101000a81548160ff0219169083151502179055508173ffffffffffffffffffffffffffffffffffffffff16610b71610e38565b73ffffffffffffffffffffffffffffffffffffffff167f17307eab39ab6107e8899845ad3d59bd9653f200f220920489ca2b5937696c3183604051610bb69190611d75565b60405180910390a35050565b50565b610bd6610bd0610e38565b83610ef9565b610c15576040517f08c379a0000000000000000000000000000000000000000000000000000000008152600401610c0c90611f32565b60405180910390fd5b610c2184848484611233565b50505050565b6060610c3282610dcc565b610c71576040517f08c379a0000000000000000000000000000000000000000000000000000000008152600401610c6890611ef2565b60405180910390fd5b6000610c7b61128f565b90506000815111610c9b5760405180602001604052806000815250610cc6565b80610ca5846112a6565b604051602001610cb6929190611cea565b6040516020818303038152906040525b915050919050565b6000600560008473ffffffffffffffffffffffffffffffffffffffff1673ffffffffffffffffffffffffffffffffffffffff16815260200190815260200160002060008373ffffffffffffffffffffffffffffffffffffffff1673ffffffffffffffffffffffffffffffffffffffff16815260200190815260200160002060009054906101000a900460ff16905092915050565b60007f01ffc9a7000000000000000000000000000000000000000000000000000000007bffffffffffffffffffffffffffffffffffffffffffffffffffffffff1916827bffffffffffffffffffffffffffffffffffffffffffffffffffffffff1916149050919050565b60008073ffffffffffffffffffffffffffffffffffffffff166002600084815260200190815260200160002060009054906101000a900473ffffffffffffffffffffffffffffffffffffffff1673ffffffffffffffffffffffffffffffffffffffff1614159050919050565b600033905090565b816004600083815260200190815260200160002060006101000a81548173ffffffffffffffffffffffffffffffffffffffff021916908373ffffffffffffffffffffffffffffffffffffffff160217905550808273ffffffffffffffffffffffffffffffffffffffff16610eb383610845565b73ffffffffffffffffffffffffffffffffffffffff167f8c5be1e5ebec7d5bd14f71427d1e84f3dd0314c0f7b2291e5b200ac8c7c3b92560405160405180910390a45050565b6000610f0482610dcc565b610f43576040517f08c379a0000000000000000000000000000000000000000000000000000000008152600401610f3a90611e12565b60405180910390fd5b6000610f4e83610845565b90508073ffffffffffffffffffffffffffffffffffffffff168473ffffffffffffffffffffffffffffffffffffffff161480610fbd57508373ffffffffffffffffffffffffffffffffffffffff16610fa5846104e1565b73ffffffffffffffffffffffffffffffffffffffff16145b80610fce5750610fcd8185610cce565b5b91505092915050565b8273ffffffffffffffffffffffffffffffffffffffff16610ff782610845565b73ffffffffffffffffffffffffffffffffffffffff161461104d576040517f08c379a000000000000000000000000000000000000000000000000000000000815260040161104490611ed2565b60405180910390fd5b600073ffffffffffffffffffffffffffffffffffffffff168273ffffffffffffffffffffffffffffffffffffffff1614156110bd576040517f08c379a00000000000000000000000000000000000000000000000000000000081526004016110b490611dd2565b60405180910390fd5b6110c8838383611407565b6110d3600082610e40565b6001600360008573ffffffffffffffffffffffffffffffffffffffff1673ffffffffffffffffffffffffffffffffffffffff1681526020019081526020016000206000828254611123919061208d565b925050819055506001600360008473ffffffffffffffffffffffffffffffffffffffff1673ffffffffffffffffffffffffffffffffffffffff168152602001908152602001600020600082825461117a9190612006565b92505081905550816002600083815260200190815260200160002060006101000a81548173ffffffffffffffffffffffffffffffffffffffff021916908373ffffffffffffffffffffffffffffffffffffffff160217905550808273ffffffffffffffffffffffffffffffffffffffff168473ffffffffffffffffffffffffffffffffffffffff167fddf252ad1be2c89b69c2b068fc378daa952ba7f163c4a11628f55a4df523b3ef60405160405180910390a4505050565b61123e848484610fd7565b61124a8484848461140c565b611289576040517f08c379a000000000000000000000000000000000000000000000000000000000815260040161128090611db2565b60405180910390fd5b50505050565b606060405180602001604052806000815250905090565b606060008214156112ee576040518060400160405280600181526020017f30000000000000000000000000000000000000000000000000000000000000008152509050611402565b600082905060005b60008214611320578080611309906121da565b915050600a82611319919061205c565b91506112f6565b60008167ffffffffffffffff81111561133c5761133b612310565b5b6040519080825280601f01601f19166020018201604052801561136e5781602001600182028036833780820191505090505b5090505b600085146113fb57600182611387919061208d565b9150600a856113969190612223565b60306113a29190612006565b60f81b8183815181106113b8576113b76122e1565b5b60200101907effffffffffffffffffffffffffffffffffffffffffffffffffffffffffffff1916908160001a905350600a856113f4919061205c565b9450611372565b8093505050505b919050565b505050565b600061142d8473ffffffffffffffffffffffffffffffffffffffff166115a3565b15611596578373ffffffffffffffffffffffffffffffffffffffff1663150b7a02611456610e38565b8786866040518563ffffffff1660e01b81526004016114789493929190611d29565b602060405180830381600087803b15801561149257600080fd5b505af19250505080156114c357506040513d601f19601f820116820180604052508101906114c09190611978565b60015b611546573d80600081146114f3576040519150601f19603f3d011682016040523d82523d6000602084013e6114f8565b606091505b5060008151141561153e576040517f08c379a000000000000000000000000000000000000000000000000000000000815260040161153590611db2565b60405180910390fd5b805181602001fd5b63150b7a0260e01b7bffffffffffffffffffffffffffffffffffffffffffffffffffffffff1916817bffffffffffffffffffffffffffffffffffffffffffffffffffffffff19161491505061159b565b600190505b949350505050565b600080823b905060008111915050919050565b8280546115c290612177565b90600052602060002090601f0160209004810192826115e4576000855561162b565b82601f106115fd57803560ff191683800117855561162b565b8280016001018555821561162b579182015b8281111561162a57823582559160200191906001019061160f565b5b509050611638919061163c565b5090565b5b8082111561165557600081600090555060010161163d565b5090565b600061166c61166784611f92565b611f6d565b9050828152602081018484840111156116885761168761234e565b5b611693848285612135565b509392505050565b6000813590506116aa8161274b565b92915050565b6000813590506116bf81612762565b92915050565b6000813590506116d481612779565b92915050565b6000815190506116e981612779565b92915050565b600082601f83011261170457611703612344565b5b8135611714848260208601611659565b91505092915050565b60008083601f84011261173357611732612344565b5b8235905067ffffffffffffffff8111156117505761174f61233f565b5b60208301915083600182028301111561176c5761176b612349565b5b9250929050565b60008135905061178281612790565b92915050565b60006020828403121561179e5761179d612358565b5b60006117ac8482850161169b565b91505092915050565b600080604083850312156117cc576117cb612358565b5b60006117da8582860161169b565b92505060206117eb8582860161169b565b9150509250929050565b60008060006060848603121561180e5761180d612358565b5b600061181c8682870161169b565b935050602061182d8682870161169b565b925050604061183e86828701611773565b9150509250925092565b6000806000806080858703121561186257611861612358565b5b60006118708782880161169b565b94505060206118818782880161169b565b935050604061189287828801611773565b925050606085013567ffffffffffffffff8111156118b3576118b2612353565b5b6118bf878288016116ef565b91505092959194509250565b600080604083850312156118e2576118e1612358565b5b60006118f08582860161169b565b9250506020611901858286016116b0565b9150509250929050565b6000806040838503121561192257611921612358565b5b60006119308582860161169b565b925050602061194185828601611773565b9150509250929050565b60006020828403121561196157611960612358565b5b600061196f848285016116c5565b91505092915050565b60006020828403121561198e5761198d612358565b5b600061199c848285016116da565b91505092915050565b600080600080604085870312156119bf576119be612358565b5b600085013567ffffffffffffffff8111156119dd576119dc612353565b5b6119e98782880161171d565b9450945050602085013567ffffffffffffffff811115611a0c57611a0b612353565b5b611a188782880161171d565b925092505092959194509250565b600060208284031215611a3c57611a3b612358565b5b6000611a4a84828501611773565b91505092915050565b611a5c816120c1565b82525050565b611a6b816120d3565b82525050565b6000611a7c82611fc3565b611a868185611fd9565b9350611a96818560208601612144565b611a9f8161235d565b840191505092915050565b6000611ab582611fce565b611abf8185611fea565b9350611acf818560208601612144565b611ad88161235d565b840191505092915050565b6000611aee82611fce565b611af88185611ffb565b9350611b08818560208601612144565b80840191505092915050565b6000611b21603283611fea565b9150611b2c8261236e565b604082019050919050565b6000611b44602483611fea565b9150611b4f826123bd565b604082019050919050565b6000611b67601983611fea565b9150611b728261240c565b602082019050919050565b6000611b8a602c83611fea565b9150611b9582612435565b604082019050919050565b6000611bad603883611fea565b9150611bb882612484565b604082019050919050565b6000611bd0602a83611fea565b9150611bdb826124d3565b604082019050919050565b6000611bf3602983611fea565b9150611bfe82612522565b604082019050919050565b6000611c16602e83611fea565b9150611c2182612571565b604082019050919050565b6000611c39602c83611fea565b9150611c44826125c0565b604082019050919050565b6000611c5c602983611fea565b9150611c678261260f565b604082019050919050565b6000611c7f602f83611fea565b9150611c8a8261265e565b604082019050919050565b6000611ca2602183611fea565b9150611cad826126ad565b604082019050919050565b6000611cc5603183611fea565b9150611cd0826126fc565b604082019050919050565b611ce48161212b565b82525050565b6000611cf68285611ae3565b9150611d028284611ae3565b91508190509392505050565b6000602082019050611d236000830184611a53565b92915050565b6000608082019050611d3e6000830187611a53565b611d4b6020830186611a53565b611d586040830185611cdb565b8181036060830152611d6a8184611a71565b905095945050505050565b6000602082019050611d8a6000830184611a62565b92915050565b60006020820190508181036000830152611daa8184611aaa565b905092915050565b60006020820190508181036000830152611dcb81611b14565b9050919050565b60006020820190508181036000830152611deb81611b37565b9050919050565b60006020820190508181036000830152611e0b81611b5a565b9050919050565b60006020820190508181036000830152611e2b81611b7d565b9050919050565b60006020820190508181036000830152611e4b81611ba0565b9050919050565b60006020820190508181036000830152611e6b81611bc3565b9050919050565b60006020820190508181036000830152611e8b81611be6565b9050919050565b60006020820190508181036000830152611eab81611c09565b9050919050565b60006020820190508181036000830152611ecb81611c2c565b9050919050565b60006020820190508181036000830152611eeb81611c4f565b9050919050565b60006020820190508181036000830152611f0b81611c72565b9050919050565b60006020820190508181036000830152611f2b81611c95565b9050919050565b60006020820190508181036000830152611f4b81611cb8565b9050919050565b6000602082019050611f676000830184611cdb565b92915050565b6000611f77611f88565b9050611f8382826121a9565b919050565b6000604051905090565b600067ffffffffffffffff821115611fad57611fac612310565b5b611fb68261235d565b9050602081019050919050565b600081519050919050565b600081519050919050565b600082825260208201905092915050565b600082825260208201905092915050565b600081905092915050565b60006120118261212b565b915061201c8361212b565b9250827fffffffffffffffffffffffffffffffffffffffffffffffffffffffffffffffff0382111561205157612050612254565b5b828201905092915050565b60006120678261212b565b91506120728361212b565b92508261208257612081612283565b5b828204905092915050565b60006120988261212b565b91506120a38361212b565b9250828210156120b6576120b5612254565b5b828203905092915050565b60006120cc8261210b565b9050919050565b60008115159050919050565b60007fffffffff0000000000000000000000000000000000000000000000000000000082169050919050565b600073ffffffffffffffffffffffffffffffffffffffff82169050919050565b6000819050919050565b82818337600083830152505050565b60005b83811015612162578082015181840152602081019050612147565b83811115612171576000848401525b50505050565b6000600282049050600182168061218f57607f821691505b602082108114156121a3576121a26122b2565b5b50919050565b6121b28261235d565b810181811067ffffffffffffffff821117156121d1576121d0612310565b5b80604052505050565b60006121e58261212b565b91507fffffffffffffffffffffffffffffffffffffffffffffffffffffffffffffffff82141561221857612217612254565b5b600182019050919050565b600061222e8261212b565b91506122398361212b565b92508261224957612248612283565b5b828206905092915050565b7f4e487b7100000000000000000000000000000000000000000000000000000000600052601160045260246000fd5b7f4e487b7100000000000000000000000000000000000000000000000000000000600052601260045260246000fd5b7f4e487b7100000000000000000000000000000000000000000000000000000000600052602260045260246000fd5b7f4e487b7100000000000000000000000000000000000000000000000000000000600052603260045260246000fd5b7f4e487b7100000000000000000000000000000000000000000000000000000000600052604160045260246000fd5b600080fd5b600080fd5b600080fd5b600080fd5b600080fd5b600080fd5b6000601f19601f8301169050919050565b7f4552433732313a207472616e7366657220746f206e6f6e20455243373231526560008201527f63656976657220696d706c656d656e7465720000000000000000000000000000602082015250565b7f4552433732313a207472616e7366657220746f20746865207a65726f2061646460008201527f7265737300000000000000000000000000000000000000000000000000000000602082015250565b7f4552433732313a20617070726f766520746f2063616c6c657200000000000000600082015250565b7f4552433732313a206f70657261746f7220717565727920666f72206e6f6e657860008201527f697374656e7420746f6b656e0000000000000000000000000000000000000000602082015250565b7f4552433732313a20617070726f76652063616c6c6572206973206e6f74206f7760008201527f6e6572206e6f7220617070726f76656420666f7220616c6c0000000000000000602082015250565b7f4552433732313a2062616c616e636520717565727920666f7220746865207a6560008201527f726f206164647265737300000000000000000000000000000000000000000000602082015250565b7f4552433732313a206f776e657220717565727920666f72206e6f6e657869737460008201527f656e7420746f6b656e0000000000000000000000000000000000000000000000602082015250565b7f496e697469616c697a61626c653a20636f6e747261637420697320616c72656160008201527f647920696e697469616c697a6564000000000000000000000000000000000000602082015250565b7f4552433732313a20617070726f76656420717565727920666f72206e6f6e657860008201527f697374656e7420746f6b656e0000000000000000000000000000000000000000602082015250565b7f4552433732313a207472616e73666572206f6620746f6b656e2074686174206960008201527f73206e6f74206f776e0000000000000000000000000000000000000000000000602082015250565b7f4552433732314d657461646174613a2055524920717565727920666f72206e6f60008201527f6e6578697374656e7420746f6b656e0000000000000000000000000000000000602082015250565b7f4552433732313a20617070726f76616c20746f2063757272656e74206f776e6560008201527f7200000000000000000000000000000000000000000000000000000000000000602082015250565b7f4552433732313a207472616e736665722063616c6c6572206973206e6f74206f60008201527f776e6572206e6f7220617070726f766564000000000000000000000000000000602082015250565b612754816120c1565b811461275f57600080fd5b50565b61276b816120d3565b811461277657600080fd5b50565b612782816120df565b811461278d57600080fd5b50565b6127998161212b565b81146127a457600080fd5b5056fea2646970667358221220ebbdcabe883d7babc5c38d6797c620ecf29247d99720bb1eb1da5f4f52c2643d64736f6c63430008060033",
  "immutableReferences": {},
  "source": "// SPDX-License-Identifier: MIT\npragma solidity ^0.8.2;\n\nimport \"@openzeppelin/contracts/utils/Counters.sol\";\nimport \"@openzeppelin/contracts/token/ERC721/ERC721.sol\";\nimport \"@openzeppelin/contracts/token/ERC20/IERC20.sol\";\nimport \"@openzeppelin/contracts/proxy/utils/Initializable.sol\";\nimport \"@openzeppelin/contracts/access/AccessControl.sol\";\nimport \"../SongsManager.sol\";\nimport \"../Structs.sol\";\n\n/**\n * @title the NFT contract for stakes\n * @author Eric Nordelo\n */\ncontract TraxStakeToken is ERC721, Initializable {\n    using Counters for Counters.Counter;\n    Counters.Counter private _tokenIds;\n\n    address private immutable _traxTokenAddress;\n    address private immutable _automatedInvestorAddress;\n\n    address private _songManagerAddress;\n\n    // token name\n    string private _proxyName;\n\n    // token symbol\n    string private _proxySymbol;\n\n    mapping(uint256 => uint256) public tokenPositionIndex;\n\n    event StakeTokens(address indexed holder, uint256 nftId, uint256 position);\n\n    /**\n     * @dev in construction time we can only save the immutable members\n     *      because of the use of proxies\n     */\n    constructor(address traxTokenAddress, address automatedInvestorAddress)\n        ERC721(\"Privi TRAX Stake Token\", \"pTST\")\n    {\n        _traxTokenAddress = traxTokenAddress;\n        _automatedInvestorAddress = automatedInvestorAddress;\n    }\n\n    /**\n     * @dev set the name and symbol of the token in the proxy\n     */\n    function initialize(string calldata _name, string calldata _symbol) external initializer {\n        _proxyName = _name;\n        _proxySymbol = _symbol;\n\n        // the song manager created the proxies\n        _songManagerAddress = msg.sender;\n    }\n\n    /**\n     * @dev See {IERC721Metadata-name}.\n     */\n    function name() public view override returns (string memory) {\n        return _proxyName;\n    }\n\n    /**\n     * @dev See {IERC721Metadata-symbol}.\n     */\n    function symbol() public view override returns (string memory) {\n        return _proxySymbol;\n    }\n\n    /**\n     * @notice allows an account to stake trax tokens for a position\n     * @param _positionIndex the index of the position to unlock\n     */\n    function stake(uint256 _positionIndex) external {\n        // StakePosition memory position = SongsManager(_songManagerAddress).getPositionByIndex(_positionIndex);\n        // require(\n        //     IERC20(_traxTokenAddress).transferFrom(\n        //         msg.sender,\n        //         _automatedInvestorAddress,\n        //         position.requiredTRAX\n        //     ),\n        //     \"Failed to transfer\"\n        // );\n        // _tokenIds.increment();\n        // uint256 newTokenId = _tokenIds.current();\n        // _mint(msg.sender, newTokenId);\n        // tokenPositionIndex[newTokenId] = _positionIndex;\n        // emit StakeTokens(msg.sender, newTokenId, _positionIndex);\n    }\n}\n",
  "sourcePath": "/home/ericng/Documents/PRIVI/privi-trax-app/contracts/implementations/TraxStakeToken.sol",
  "compiler": {
    "name": "solc",
    "version": "0.8.6+commit.11564f7e.Emscripten.clang"
  },
  "schemaVersion": "3.4.2",
  "updatedAt": "2021-08-24T13:47:41.969Z",
  "devdoc": {
    "author": "Eric Nordelo",
    "kind": "dev",
    "methods": {
      "approve(address,uint256)": {
        "details": "See {IERC721-approve}."
      },
      "balanceOf(address)": {
        "details": "See {IERC721-balanceOf}."
      },
      "constructor": {
        "details": "in construction time we can only save the immutable members      because of the use of proxies"
      },
      "getApproved(uint256)": {
        "details": "See {IERC721-getApproved}."
      },
      "initialize(string,string)": {
        "details": "set the name and symbol of the token in the proxy"
      },
      "isApprovedForAll(address,address)": {
        "details": "See {IERC721-isApprovedForAll}."
      },
      "name()": {
        "details": "See {IERC721Metadata-name}."
      },
      "ownerOf(uint256)": {
        "details": "See {IERC721-ownerOf}."
      },
      "safeTransferFrom(address,address,uint256)": {
        "details": "See {IERC721-safeTransferFrom}."
      },
      "safeTransferFrom(address,address,uint256,bytes)": {
        "details": "See {IERC721-safeTransferFrom}."
      },
      "setApprovalForAll(address,bool)": {
        "details": "See {IERC721-setApprovalForAll}."
      },
      "stake(uint256)": {
        "params": {
          "_positionIndex": "the index of the position to unlock"
        }
      },
      "supportsInterface(bytes4)": {
        "details": "See {IERC165-supportsInterface}."
      },
      "symbol()": {
        "details": "See {IERC721Metadata-symbol}."
      },
      "tokenURI(uint256)": {
        "details": "See {IERC721Metadata-tokenURI}."
      },
      "transferFrom(address,address,uint256)": {
        "details": "See {IERC721-transferFrom}."
      }
    },
    "title": "the NFT contract for stakes",
    "version": 1
  },
  "userdoc": {
    "kind": "user",
    "methods": {
      "stake(uint256)": {
        "notice": "allows an account to stake trax tokens for a position"
      }
    },
    "version": 1
  }
}