{
  "contractName": "TraxieLevels",
  "abi": [
    {
      "inputs": [
        {
          "components": [
            {
              "internalType": "uint256",
              "name": "requiredTRAX",
              "type": "uint256"
            },
            {
              "internalType": "uint256",
              "name": "rewardPercent",
              "type": "uint256"
            }
          ],
          "internalType": "struct TraxieLevel[]",
          "name": "levels",
          "type": "tuple[]"
        }
      ],
      "stateMutability": "nonpayable",
      "type": "constructor"
    },
    {
      "anonymous": false,
      "inputs": [
        {
          "indexed": true,
          "internalType": "address",
          "name": "previousOwner",
          "type": "address"
        },
        {
          "indexed": true,
          "internalType": "address",
          "name": "newOwner",
          "type": "address"
        }
      ],
      "name": "OwnershipTransferred",
      "type": "event"
    },
    {
      "inputs": [],
      "name": "owner",
      "outputs": [
        {
          "internalType": "address",
          "name": "",
          "type": "address"
        }
      ],
      "stateMutability": "view",
      "type": "function"
    },
    {
      "inputs": [],
      "name": "renounceOwnership",
      "outputs": [],
      "stateMutability": "nonpayable",
      "type": "function"
    },
    {
      "inputs": [],
      "name": "startingLevel",
      "outputs": [
        {
          "internalType": "uint256",
          "name": "",
          "type": "uint256"
        }
      ],
      "stateMutability": "view",
      "type": "function"
    },
    {
      "inputs": [
        {
          "internalType": "address",
          "name": "newOwner",
          "type": "address"
        }
      ],
      "name": "transferOwnership",
      "outputs": [],
      "stateMutability": "nonpayable",
      "type": "function"
    },
    {
      "inputs": [],
      "name": "traxToCreateTraxie",
      "outputs": [
        {
          "internalType": "uint256",
          "name": "",
          "type": "uint256"
        }
      ],
      "stateMutability": "view",
      "type": "function"
    },
    {
      "inputs": [
        {
          "internalType": "uint256",
          "name": "_amount",
          "type": "uint256"
        }
      ],
      "name": "setTraxToCreateTraxie",
      "outputs": [],
      "stateMutability": "nonpayable",
      "type": "function"
    },
    {
      "inputs": [
        {
          "internalType": "uint256",
          "name": "_number",
          "type": "uint256"
        }
      ],
      "name": "setStartingLevel",
      "outputs": [],
      "stateMutability": "nonpayable",
      "type": "function"
    },
    {
      "inputs": [],
      "name": "getLevels",
      "outputs": [
        {
          "components": [
            {
              "internalType": "uint256",
              "name": "requiredTRAX",
              "type": "uint256"
            },
            {
              "internalType": "uint256",
              "name": "rewardPercent",
              "type": "uint256"
            }
          ],
          "internalType": "struct TraxieLevel[]",
          "name": "levels",
          "type": "tuple[]"
        }
      ],
      "stateMutability": "view",
      "type": "function"
    },
    {
      "inputs": [
        {
          "internalType": "uint256",
          "name": "_level",
          "type": "uint256"
        }
      ],
      "name": "getLevelInfo",
      "outputs": [
        {
          "components": [
            {
              "internalType": "uint256",
              "name": "requiredTRAX",
              "type": "uint256"
            },
            {
              "internalType": "uint256",
              "name": "rewardPercent",
              "type": "uint256"
            }
          ],
          "internalType": "struct TraxieLevel",
          "name": "level",
          "type": "tuple"
        }
      ],
      "stateMutability": "view",
      "type": "function"
    }
  ],
  "bytecode": "0x60806040526012600a6200001491906200064d565b60016200002291906200078a565b60025560016003553480156200003757600080fd5b50604051620016ab380380620016ab83398181016040528101906200005d919062000449565b6200007d620000716200025f60201b60201c565b6200026760201b60201c565b6000815111620000c4576040517f08c379a0000000000000000000000000000000000000000000000000000000008152600401620000bb90620004e8565b60405180910390fd5b60005b60018251620000d79190620007eb565b811015620001e95781600182620000ef919062000595565b81518110620001035762000102620008e3565b5b602002602001015160000151828281518110620001255762000124620008e3565b5b6020026020010151600001511062000174576040517f08c379a00000000000000000000000000000000000000000000000000000000081526004016200016b906200050a565b60405180910390fd5b60018282815181106200018c576200018b620008e3565b5b60200260200101519080600181540180825580915050600190039060005260206000209060020201600090919091909150600082015181600001556020820151816001015550508080620001e09062000866565b915050620000c7565b5060018160018351620001fd9190620007eb565b81518110620002115762000210620008e3565b5b602002602001015190806001815401808255809150506001900390600052602060002090600202016000909190919091506000820151816000015560208201518160010155505050620009e4565b600033905090565b60008060009054906101000a900473ffffffffffffffffffffffffffffffffffffffff169050816000806101000a81548173ffffffffffffffffffffffffffffffffffffffff021916908373ffffffffffffffffffffffffffffffffffffffff1602179055508173ffffffffffffffffffffffffffffffffffffffff168173ffffffffffffffffffffffffffffffffffffffff167f8be0079c531659141344cd1fd0a4f28419497f9722a3daafe3b4186f6b6457e060405160405180910390a35050565b6000620003426200033c8462000555565b6200052c565b905080838252602082019050828560408602820111156200036857620003676200094b565b5b60005b858110156200039c5781620003818882620003d9565b8452602084019350604083019250506001810190506200036b565b5050509392505050565b600082601f830112620003be57620003bd62000941565b5b8151620003d08482602086016200032b565b91505092915050565b600060408284031215620003f257620003f162000946565b5b620003fe60406200052c565b90506000620004108482850162000432565b6000830152506020620004268482850162000432565b60208301525092915050565b6000815190506200044381620009ca565b92915050565b60006020828403121562000462576200046162000955565b5b600082015167ffffffffffffffff81111562000483576200048262000950565b5b6200049184828501620003a6565b91505092915050565b6000620004a9600f8362000584565b9150620004b68262000978565b602082019050919050565b6000620004d0600e8362000584565b9150620004dd82620009a1565b602082019050919050565b6000602082019050818103600083015262000503816200049a565b9050919050565b600060208201905081810360008301526200052581620004c1565b9050919050565b6000620005386200054b565b905062000546828262000830565b919050565b6000604051905090565b600067ffffffffffffffff82111562000573576200057262000912565b5b602082029050602081019050919050565b600082825260208201905092915050565b6000620005a28262000826565b9150620005af8362000826565b9250827fffffffffffffffffffffffffffffffffffffffffffffffffffffffffffffffff03821115620005e757620005e6620008b4565b5b828201905092915050565b6000808291508390505b600185111562000644578086048111156200061c576200061b620008b4565b5b60018516156200062c5780820291505b80810290506200063c856200096b565b9450620005fc565b94509492505050565b60006200065a8262000826565b9150620006678362000826565b9250620006967fffffffffffffffffffffffffffffffffffffffffffffffffffffffffffffffff84846200069e565b905092915050565b600082620006b0576001905062000783565b81620006c0576000905062000783565b8160018114620006d95760028114620006e4576200071a565b600191505062000783565b60ff841115620006f957620006f8620008b4565b5b8360020a915084821115620007135762000712620008b4565b5b5062000783565b5060208310610133831016604e8410600b8410161715620007545782820a9050838111156200074e576200074d620008b4565b5b62000783565b620007638484846001620005f2565b925090508184048111156200077d576200077c620008b4565b5b81810290505b9392505050565b6000620007978262000826565b9150620007a48362000826565b9250817fffffffffffffffffffffffffffffffffffffffffffffffffffffffffffffffff0483118215151615620007e057620007df620008b4565b5b828202905092915050565b6000620007f88262000826565b9150620008058362000826565b9250828210156200081b576200081a620008b4565b5b828203905092915050565b6000819050919050565b6200083b826200095a565b810181811067ffffffffffffffff821117156200085d576200085c62000912565b5b80604052505050565b6000620008738262000826565b91507fffffffffffffffffffffffffffffffffffffffffffffffffffffffffffffffff821415620008a957620008a8620008b4565b5b600182019050919050565b7f4e487b7100000000000000000000000000000000000000000000000000000000600052601160045260246000fd5b7f4e487b7100000000000000000000000000000000000000000000000000000000600052603260045260246000fd5b7f4e487b7100000000000000000000000000000000000000000000000000000000600052604160045260246000fd5b600080fd5b600080fd5b600080fd5b600080fd5b600080fd5b6000601f19601f8301169050919050565b60008160011c9050919050565b7f4e6f206c6576656c7320666f756e640000000000000000000000000000000000600082015250565b7f496e76616c6964206c6576656c73000000000000000000000000000000000000600082015250565b620009d58162000826565b8114620009e157600080fd5b50565b610cb780620009f46000396000f3fe608060405234801561001057600080fd5b50600436106100935760003560e01c80635fb908d0116100665780635fb908d014610122578063715018a61461013e5780638da5cb5b1461014857806399700bbd14610166578063f2fde38b1461018257610093565b8063030101db146100985780630c394a60146100c85780630f168f4a146100e657806349366d2614610104575b600080fd5b6100b260048036038101906100ad9190610753565b61019e565b6040516100bf9190610a0d565b60405180910390f35b6100d061024c565b6040516100dd919061094b565b60405180910390f35b6100ee6102bf565b6040516100fb9190610a28565b60405180910390f35b61010c6102c5565b6040516101199190610a28565b60405180910390f35b61013c60048036038101906101379190610753565b6102cb565b005b610146610394565b005b61015061041c565b60405161015d9190610930565b60405180910390f35b610180600480360381019061017b9190610753565b610445565b005b61019c60048036038101906101979190610726565b61051e565b005b6101a66106e2565b60008214806101b9575060018054905082115b156101f9576040517f08c379a00000000000000000000000000000000000000000000000000000000081526004016101f0906109cd565b60405180910390fd5b600180836102079190610a8d565b8154811061021857610217610b2c565b5b9060005260206000209060020201604051806040016040529081600082015481526020016001820154815250509050919050565b60606001805480602002602001604051908101604052809291908181526020016000905b828210156102b657838290600052602060002090600202016040518060400160405290816000820154815260200160018201548152505081526020019060010190610270565b50505050905090565b60025481565b60035481565b6102d3610616565b73ffffffffffffffffffffffffffffffffffffffff166102f161041c565b73ffffffffffffffffffffffffffffffffffffffff1614610347576040517f08c379a000000000000000000000000000000000000000000000000000000000815260040161033e906109ed565b60405180910390fd5b6000811161038a576040517f08c379a0000000000000000000000000000000000000000000000000000000008152600401610381906109ad565b60405180910390fd5b8060028190555050565b61039c610616565b73ffffffffffffffffffffffffffffffffffffffff166103ba61041c565b73ffffffffffffffffffffffffffffffffffffffff1614610410576040517f08c379a0000000000000000000000000000000000000000000000000000000008152600401610407906109ed565b60405180910390fd5b61041a600061061e565b565b60008060009054906101000a900473ffffffffffffffffffffffffffffffffffffffff16905090565b61044d610616565b73ffffffffffffffffffffffffffffffffffffffff1661046b61041c565b73ffffffffffffffffffffffffffffffffffffffff16146104c1576040517f08c379a00000000000000000000000000000000000000000000000000000000081526004016104b8906109ed565b60405180910390fd5b60008114806104d4575060018054905081115b15610514576040517f08c379a000000000000000000000000000000000000000000000000000000000815260040161050b9061096d565b60405180910390fd5b8060038190555050565b610526610616565b73ffffffffffffffffffffffffffffffffffffffff1661054461041c565b73ffffffffffffffffffffffffffffffffffffffff161461059a576040517f08c379a0000000000000000000000000000000000000000000000000000000008152600401610591906109ed565b60405180910390fd5b600073ffffffffffffffffffffffffffffffffffffffff168173ffffffffffffffffffffffffffffffffffffffff16141561060a576040517f08c379a00000000000000000000000000000000000000000000000000000000081526004016106019061098d565b60405180910390fd5b6106138161061e565b50565b600033905090565b60008060009054906101000a900473ffffffffffffffffffffffffffffffffffffffff169050816000806101000a81548173ffffffffffffffffffffffffffffffffffffffff021916908373ffffffffffffffffffffffffffffffffffffffff1602179055508173ffffffffffffffffffffffffffffffffffffffff168173ffffffffffffffffffffffffffffffffffffffff167f8be0079c531659141344cd1fd0a4f28419497f9722a3daafe3b4186f6b6457e060405160405180910390a35050565b604051806040016040528060008152602001600081525090565b60008135905061070b81610c53565b92915050565b60008135905061072081610c6a565b92915050565b60006020828403121561073c5761073b610b5b565b5b600061074a848285016106fc565b91505092915050565b60006020828403121561076957610768610b5b565b5b600061077784828501610711565b91505092915050565b600061078c83836108b4565b60408301905092915050565b6107a181610ac1565b82525050565b60006107b282610a53565b6107bc8185610a6b565b93506107c783610a43565b8060005b838110156107f85781516107df8882610780565b97506107ea83610a5e565b9250506001810190506107cb565b5085935050505092915050565b6000610812601683610a7c565b915061081d82610b60565b602082019050919050565b6000610835602683610a7c565b915061084082610b89565b604082019050919050565b6000610858600e83610a7c565b915061086382610bd8565b602082019050919050565b600061087b600d83610a7c565b915061088682610c01565b602082019050919050565b600061089e602083610a7c565b91506108a982610c2a565b602082019050919050565b6040820160008201516108ca6000850182610912565b5060208201516108dd6020850182610912565b50505050565b6040820160008201516108f96000850182610912565b50602082015161090c6020850182610912565b50505050565b61091b81610af3565b82525050565b61092a81610af3565b82525050565b60006020820190506109456000830184610798565b92915050565b6000602082019050818103600083015261096581846107a7565b905092915050565b6000602082019050818103600083015261098681610805565b9050919050565b600060208201905081810360008301526109a681610828565b9050919050565b600060208201905081810360008301526109c68161084b565b9050919050565b600060208201905081810360008301526109e68161086e565b9050919050565b60006020820190508181036000830152610a0681610891565b9050919050565b6000604082019050610a2260008301846108e3565b92915050565b6000602082019050610a3d6000830184610921565b92915050565b6000819050602082019050919050565b600081519050919050565b6000602082019050919050565b600082825260208201905092915050565b600082825260208201905092915050565b6000610a9882610af3565b9150610aa383610af3565b925082821015610ab657610ab5610afd565b5b828203905092915050565b6000610acc82610ad3565b9050919050565b600073ffffffffffffffffffffffffffffffffffffffff82169050919050565b6000819050919050565b7f4e487b7100000000000000000000000000000000000000000000000000000000600052601160045260246000fd5b7f4e487b7100000000000000000000000000000000000000000000000000000000600052603260045260246000fd5b600080fd5b7f496e76616c6964207374617274696e67206c6576656c00000000000000000000600082015250565b7f4f776e61626c653a206e6577206f776e657220697320746865207a65726f206160008201527f6464726573730000000000000000000000000000000000000000000000000000602082015250565b7f496e76616c696420616d6f756e74000000000000000000000000000000000000600082015250565b7f496e76616c6964206c6576656c00000000000000000000000000000000000000600082015250565b7f4f776e61626c653a2063616c6c6572206973206e6f7420746865206f776e6572600082015250565b610c5c81610ac1565b8114610c6757600080fd5b50565b610c7381610af3565b8114610c7e57600080fd5b5056fea2646970667358221220f0c5e5a22013c8a56b0ec9876404d80c7a50cac74a88fd773efc40960b0234be64736f6c63430008060033",
  "immutableReferences": {},
  "source": "// SPDX-License-Identifier: MIT\npragma solidity ^0.8.0;\n\nimport \"@openzeppelin/contracts/access/Ownable.sol\";\nimport \"./Structs.sol\";\n\n/**\n * @title Traxie Levels\n * @notice definition and management of traxie levels info\n * @author Eric Nordelo\n */\ncontract TraxieLevels is Ownable {\n    uint256 private constant TRAX_DECIMALS = 18;\n\n    TraxieLevel[] private _levels;\n\n    // 1 TRAX needed for Traxie creation (could be changed by owner)\n    uint256 public traxToCreateTraxie = 1 * 10**TRAX_DECIMALS;\n\n    uint256 public startingLevel = 1;\n\n    constructor(TraxieLevel[] memory levels) {\n        require(levels.length > 0, \"No levels found\");\n\n        for (uint256 i; i < levels.length - 1; i++) {\n            require(levels[i].requiredTRAX < levels[i + 1].requiredTRAX, \"Invalid levels\");\n            _levels.push(levels[i]);\n        }\n        _levels.push(levels[levels.length - 1]);\n    }\n\n    function setTraxToCreateTraxie(uint256 _amount) external onlyOwner {\n        require(_amount > 0, \"Invalid amount\");\n        traxToCreateTraxie = _amount;\n    }\n\n    function setStartingLevel(uint256 _number) external onlyOwner {\n        if (_number == 0 || _number > _levels.length) {\n            revert(\"Invalid starting level\");\n        }\n        startingLevel = _number;\n    }\n\n    function getLevels() external view returns (TraxieLevel[] memory levels) {\n        return _levels;\n    }\n\n    function getLevelInfo(uint256 _level) external view returns (TraxieLevel memory level) {\n        if (_level == 0 || _level > _levels.length) {\n            revert(\"Invalid level\");\n        }\n        return _levels[_level - 1];\n    }\n\n    /**\n     * @dev TODO add update levels functionality (only owner)\n     */\n}\n",
  "sourcePath": "/home/ericng/Documents/PRIVI/privi-trax-app/contracts/TraxieLevels.sol",
  "compiler": {
    "name": "solc",
    "version": "0.8.6+commit.11564f7e.Emscripten.clang"
  },
  "schemaVersion": "3.4.2",
  "updatedAt": "2021-08-23T21:17:42.775Z",
  "devdoc": {
    "author": "Eric Nordelo",
    "kind": "dev",
    "methods": {
      "owner()": {
        "details": "Returns the address of the current owner."
      },
      "renounceOwnership()": {
        "details": "Leaves the contract without owner. It will not be possible to call `onlyOwner` functions anymore. Can only be called by the current owner. NOTE: Renouncing ownership will leave the contract without an owner, thereby removing any functionality that is only available to the owner."
      },
      "transferOwnership(address)": {
        "details": "Transfers ownership of the contract to a new account (`newOwner`). Can only be called by the current owner."
      }
    },
    "title": "Traxie Levels",
    "version": 1
  },
  "userdoc": {
    "kind": "user",
    "methods": {},
    "notice": "definition and management of traxie levels info",
    "version": 1
  }
}