{
  "contractName": "VerifiedArtists",
  "abi": [
    {
      "inputs": [],
      "stateMutability": "nonpayable",
      "type": "constructor"
    },
    {
      "anonymous": false,
      "inputs": [
        {
          "indexed": true,
          "internalType": "bytes32",
          "name": "role",
          "type": "bytes32"
        },
        {
          "indexed": true,
          "internalType": "bytes32",
          "name": "previousAdminRole",
          "type": "bytes32"
        },
        {
          "indexed": true,
          "internalType": "bytes32",
          "name": "newAdminRole",
          "type": "bytes32"
        }
      ],
      "name": "RoleAdminChanged",
      "type": "event"
    },
    {
      "anonymous": false,
      "inputs": [
        {
          "indexed": true,
          "internalType": "bytes32",
          "name": "role",
          "type": "bytes32"
        },
        {
          "indexed": true,
          "internalType": "address",
          "name": "account",
          "type": "address"
        },
        {
          "indexed": true,
          "internalType": "address",
          "name": "sender",
          "type": "address"
        }
      ],
      "name": "RoleGranted",
      "type": "event"
    },
    {
      "anonymous": false,
      "inputs": [
        {
          "indexed": true,
          "internalType": "bytes32",
          "name": "role",
          "type": "bytes32"
        },
        {
          "indexed": true,
          "internalType": "address",
          "name": "account",
          "type": "address"
        },
        {
          "indexed": true,
          "internalType": "address",
          "name": "sender",
          "type": "address"
        }
      ],
      "name": "RoleRevoked",
      "type": "event"
    },
    {
      "anonymous": false,
      "inputs": [
        {
          "indexed": true,
          "internalType": "address",
          "name": "account",
          "type": "address"
        },
        {
          "indexed": false,
          "internalType": "bytes32",
          "name": "id",
          "type": "bytes32"
        }
      ],
      "name": "VerifyArtist",
      "type": "event"
    },
    {
      "inputs": [],
      "name": "DEFAULT_ADMIN_ROLE",
      "outputs": [
        {
          "internalType": "bytes32",
          "name": "",
          "type": "bytes32"
        }
      ],
      "stateMutability": "view",
      "type": "function"
    },
    {
      "inputs": [],
      "name": "VERIFIER_ROLE",
      "outputs": [
        {
          "internalType": "bytes32",
          "name": "",
          "type": "bytes32"
        }
      ],
      "stateMutability": "view",
      "type": "function"
    },
    {
      "inputs": [
        {
          "internalType": "bytes32",
          "name": "role",
          "type": "bytes32"
        }
      ],
      "name": "getRoleAdmin",
      "outputs": [
        {
          "internalType": "bytes32",
          "name": "",
          "type": "bytes32"
        }
      ],
      "stateMutability": "view",
      "type": "function"
    },
    {
      "inputs": [
        {
          "internalType": "bytes32",
          "name": "role",
          "type": "bytes32"
        },
        {
          "internalType": "address",
          "name": "account",
          "type": "address"
        }
      ],
      "name": "grantRole",
      "outputs": [],
      "stateMutability": "nonpayable",
      "type": "function"
    },
    {
      "inputs": [
        {
          "internalType": "bytes32",
          "name": "role",
          "type": "bytes32"
        },
        {
          "internalType": "address",
          "name": "account",
          "type": "address"
        }
      ],
      "name": "hasRole",
      "outputs": [
        {
          "internalType": "bool",
          "name": "",
          "type": "bool"
        }
      ],
      "stateMutability": "view",
      "type": "function"
    },
    {
      "inputs": [
        {
          "internalType": "bytes32",
          "name": "role",
          "type": "bytes32"
        },
        {
          "internalType": "address",
          "name": "account",
          "type": "address"
        }
      ],
      "name": "renounceRole",
      "outputs": [],
      "stateMutability": "nonpayable",
      "type": "function"
    },
    {
      "inputs": [
        {
          "internalType": "bytes32",
          "name": "role",
          "type": "bytes32"
        },
        {
          "internalType": "address",
          "name": "account",
          "type": "address"
        }
      ],
      "name": "revokeRole",
      "outputs": [],
      "stateMutability": "nonpayable",
      "type": "function"
    },
    {
      "inputs": [
        {
          "internalType": "bytes4",
          "name": "interfaceId",
          "type": "bytes4"
        }
      ],
      "name": "supportsInterface",
      "outputs": [
        {
          "internalType": "bool",
          "name": "",
          "type": "bool"
        }
      ],
      "stateMutability": "view",
      "type": "function"
    },
    {
      "inputs": [
        {
          "internalType": "bytes32",
          "name": "",
          "type": "bytes32"
        }
      ],
      "name": "verifiedArtists",
      "outputs": [
        {
          "internalType": "address",
          "name": "account",
          "type": "address"
        },
        {
          "internalType": "uint256",
          "name": "registeredSongs",
          "type": "uint256"
        }
      ],
      "stateMutability": "view",
      "type": "function"
    },
    {
      "inputs": [
        {
          "internalType": "string",
          "name": "_identifier",
          "type": "string"
        },
        {
          "internalType": "address",
          "name": "_account",
          "type": "address"
        }
      ],
      "name": "verify",
      "outputs": [],
      "stateMutability": "nonpayable",
      "type": "function"
    },
    {
      "inputs": [
        {
          "internalType": "bytes32",
          "name": "_artistId",
          "type": "bytes32"
        },
        {
          "internalType": "address",
          "name": "_newAccount",
          "type": "address"
        }
      ],
      "name": "changeAccount",
      "outputs": [],
      "stateMutability": "nonpayable",
      "type": "function"
    }
  ],
  "bytecode": "0x60806040523480156200001157600080fd5b50620000276000801b336200006260201b60201c565b6200005c7f0ce23c3e399818cfee81a7ab0880f714e53d7672b08df0fa62f2843416e1ea096000801b6200007860201b60201c565b62000257565b620000748282620000d560201b60201c565b5050565b806200008a83620001c660201b60201c565b837fbd79b86ffe0ab8e8776151514217cd7cacd52c909f66475c3af44e129f0b00ff60405160405180910390a480600080848152602001908152602001600020600101819055505050565b620000e78282620001e560201b60201c565b620001c257600160008084815260200190815260200160002060000160008373ffffffffffffffffffffffffffffffffffffffff1673ffffffffffffffffffffffffffffffffffffffff16815260200190815260200160002060006101000a81548160ff021916908315150217905550620001676200024f60201b60201c565b73ffffffffffffffffffffffffffffffffffffffff168173ffffffffffffffffffffffffffffffffffffffff16837f2f8788117e7eff1d82e926ec794901d17c78024a50270940304540a733656f0d60405160405180910390a45b5050565b6000806000838152602001908152602001600020600101549050919050565b600080600084815260200190815260200160002060000160008373ffffffffffffffffffffffffffffffffffffffff1673ffffffffffffffffffffffffffffffffffffffff16815260200190815260200160002060009054906101000a900460ff16905092915050565b600033905090565b61150280620002676000396000f3fe608060405234801561001057600080fd5b50600436106100a95760003560e01c806336568abe1161007157806336568abe14610177578063684024fb1461019357806391d14854146101af578063a217fddf146101df578063d547741f146101fd578063e7705db614610219576100a9565b806301ffc9a7146100ae578063143ba595146100de578063248a9ca31461010f57806327a27b711461013f5780632f2ff15d1461015b575b600080fd5b6100c860048036038101906100c39190610d75565b610237565b6040516100d5919061101b565b60405180910390f35b6100f860048036038101906100f39190610d08565b6102b1565b604051610106929190610ff2565b60405180910390f35b61012960048036038101906101249190610d08565b6102f5565b6040516101369190611036565b60405180910390f35b61015960048036038101906101549190610d35565b610314565b005b61017560048036038101906101709190610d35565b610411565b005b610191600480360381019061018c9190610d35565b61043a565b005b6101ad60048036038101906101a89190610da2565b6104bd565b005b6101c960048036038101906101c49190610d35565b6106a9565b6040516101d6919061101b565b60405180910390f35b6101e7610713565b6040516101f49190611036565b60405180910390f35b61021760048036038101906102129190610d35565b61071a565b005b610221610743565b60405161022e9190611036565b60405180910390f35b60007f7965db0b000000000000000000000000000000000000000000000000000000007bffffffffffffffffffffffffffffffffffffffffffffffffffffffff1916827bffffffffffffffffffffffffffffffffffffffffffffffffffffffff191614806102aa57506102a982610767565b5b9050919050565b60016020528060005260406000206000915090508060000160009054906101000a900473ffffffffffffffffffffffffffffffffffffffff16908060010154905082565b6000806000838152602001908152602001600020600101549050919050565b3373ffffffffffffffffffffffffffffffffffffffff166001600084815260200190815260200160002060000160009054906101000a900473ffffffffffffffffffffffffffffffffffffffff1673ffffffffffffffffffffffffffffffffffffffff16146103b8576040517f08c379a00000000000000000000000000000000000000000000000000000000081526004016103af90611093565b60405180910390fd5b806001600084815260200190815260200160002060000160006101000a81548173ffffffffffffffffffffffffffffffffffffffff021916908373ffffffffffffffffffffffffffffffffffffffff1602179055505050565b61041a826102f5565b61042b816104266107d1565b6107d9565b6104358383610876565b505050565b6104426107d1565b73ffffffffffffffffffffffffffffffffffffffff168173ffffffffffffffffffffffffffffffffffffffff16146104af576040517f08c379a00000000000000000000000000000000000000000000000000000000081526004016104a6906110d3565b60405180910390fd5b6104b98282610956565b5050565b7f0ce23c3e399818cfee81a7ab0880f714e53d7672b08df0fa62f2843416e1ea096104ef816104ea6107d1565b6107d9565b60008484604051602001610504929190610f9f565b604051602081830303815290604052805190602001209050600073ffffffffffffffffffffffffffffffffffffffff166001600083815260200190815260200160002060000160009054906101000a900473ffffffffffffffffffffffffffffffffffffffff1673ffffffffffffffffffffffffffffffffffffffff16146105c1576040517f08c379a00000000000000000000000000000000000000000000000000000000081526004016105b8906110b3565b60405180910390fd5b60405180604001604052808473ffffffffffffffffffffffffffffffffffffffff16815260200160008152506001600083815260200190815260200160002060008201518160000160006101000a81548173ffffffffffffffffffffffffffffffffffffffff021916908373ffffffffffffffffffffffffffffffffffffffff160217905550602082015181600101559050508273ffffffffffffffffffffffffffffffffffffffff167f7d7236b006a70183ef0a7d3dec95e7fc3458beb6b6c2be831df1eb9224c79e678260405161069a9190611036565b60405180910390a25050505050565b600080600084815260200190815260200160002060000160008373ffffffffffffffffffffffffffffffffffffffff1673ffffffffffffffffffffffffffffffffffffffff16815260200190815260200160002060009054906101000a900460ff16905092915050565b6000801b81565b610723826102f5565b6107348161072f6107d1565b6107d9565b61073e8383610956565b505050565b7f0ce23c3e399818cfee81a7ab0880f714e53d7672b08df0fa62f2843416e1ea0981565b60007f01ffc9a7000000000000000000000000000000000000000000000000000000007bffffffffffffffffffffffffffffffffffffffffffffffffffffffff1916827bffffffffffffffffffffffffffffffffffffffffffffffffffffffff1916149050919050565b600033905090565b6107e382826106a9565b610872576108088173ffffffffffffffffffffffffffffffffffffffff166014610a37565b6108168360001c6020610a37565b604051602001610827929190610fb8565b6040516020818303038152906040526040517f08c379a00000000000000000000000000000000000000000000000000000000081526004016108699190611051565b60405180910390fd5b5050565b61088082826106a9565b61095257600160008084815260200190815260200160002060000160008373ffffffffffffffffffffffffffffffffffffffff1673ffffffffffffffffffffffffffffffffffffffff16815260200190815260200160002060006101000a81548160ff0219169083151502179055506108f76107d1565b73ffffffffffffffffffffffffffffffffffffffff168173ffffffffffffffffffffffffffffffffffffffff16837f2f8788117e7eff1d82e926ec794901d17c78024a50270940304540a733656f0d60405160405180910390a45b5050565b61096082826106a9565b15610a3357600080600084815260200190815260200160002060000160008373ffffffffffffffffffffffffffffffffffffffff1673ffffffffffffffffffffffffffffffffffffffff16815260200190815260200160002060006101000a81548160ff0219169083151502179055506109d86107d1565b73ffffffffffffffffffffffffffffffffffffffff168173ffffffffffffffffffffffffffffffffffffffff16837ff6391f5c32d9c69d2a47ea670b442974b53935d1edc7fd64eb21e047a839171b60405160405180910390a45b5050565b606060006002836002610a4a9190611170565b610a54919061111a565b67ffffffffffffffff811115610a6d57610a6c611312565b5b6040519080825280601f01601f191660200182016040528015610a9f5781602001600182028036833780820191505090505b5090507f300000000000000000000000000000000000000000000000000000000000000081600081518110610ad757610ad66112e3565b5b60200101907effffffffffffffffffffffffffffffffffffffffffffffffffffffffffffff1916908160001a9053507f780000000000000000000000000000000000000000000000000000000000000081600181518110610b3b57610b3a6112e3565b5b60200101907effffffffffffffffffffffffffffffffffffffffffffffffffffffffffffff1916908160001a90535060006001846002610b7b9190611170565b610b85919061111a565b90505b6001811115610c25577f3031323334353637383961626364656600000000000000000000000000000000600f861660108110610bc757610bc66112e3565b5b1a60f81b828281518110610bde57610bdd6112e3565b5b60200101907effffffffffffffffffffffffffffffffffffffffffffffffffffffffffffff1916908160001a905350600485901c945080610c1e9061128a565b9050610b88565b5060008414610c69576040517f08c379a0000000000000000000000000000000000000000000000000000000008152600401610c6090611073565b60405180910390fd5b8091505092915050565b600081359050610c8281611487565b92915050565b600081359050610c978161149e565b92915050565b600081359050610cac816114b5565b92915050565b60008083601f840112610cc857610cc7611346565b5b8235905067ffffffffffffffff811115610ce557610ce4611341565b5b602083019150836001820283011115610d0157610d0061134b565b5b9250929050565b600060208284031215610d1e57610d1d611355565b5b6000610d2c84828501610c88565b91505092915050565b60008060408385031215610d4c57610d4b611355565b5b6000610d5a85828601610c88565b9250506020610d6b85828601610c73565b9150509250929050565b600060208284031215610d8b57610d8a611355565b5b6000610d9984828501610c9d565b91505092915050565b600080600060408486031215610dbb57610dba611355565b5b600084013567ffffffffffffffff811115610dd957610dd8611350565b5b610de586828701610cb2565b93509350506020610df886828701610c73565b9150509250925092565b610e0b816111ca565b82525050565b610e1a816111dc565b82525050565b610e29816111e8565b82525050565b6000610e3b838561110f565b9350610e48838584611248565b82840190509392505050565b6000610e5f826110f3565b610e6981856110fe565b9350610e79818560208601611257565b610e828161135a565b840191505092915050565b6000610e98826110f3565b610ea2818561110f565b9350610eb2818560208601611257565b80840191505092915050565b6000610ecb6020836110fe565b9150610ed68261136b565b602082019050919050565b6000610eee6018836110fe565b9150610ef982611394565b602082019050919050565b6000610f1160178361110f565b9150610f1c826113bd565b601782019050919050565b6000610f346017836110fe565b9150610f3f826113e6565b602082019050919050565b6000610f5760118361110f565b9150610f628261140f565b601182019050919050565b6000610f7a602f836110fe565b9150610f8582611438565b604082019050919050565b610f998161123e565b82525050565b6000610fac828486610e2f565b91508190509392505050565b6000610fc382610f04565b9150610fcf8285610e8d565b9150610fda82610f4a565b9150610fe68284610e8d565b91508190509392505050565b60006040820190506110076000830185610e02565b6110146020830184610f90565b9392505050565b60006020820190506110306000830184610e11565b92915050565b600060208201905061104b6000830184610e20565b92915050565b6000602082019050818103600083015261106b8184610e54565b905092915050565b6000602082019050818103600083015261108c81610ebe565b9050919050565b600060208201905081810360008301526110ac81610ee1565b9050919050565b600060208201905081810360008301526110cc81610f27565b9050919050565b600060208201905081810360008301526110ec81610f6d565b9050919050565b600081519050919050565b600082825260208201905092915050565b600081905092915050565b60006111258261123e565b91506111308361123e565b9250827fffffffffffffffffffffffffffffffffffffffffffffffffffffffffffffffff03821115611165576111646112b4565b5b828201905092915050565b600061117b8261123e565b91506111868361123e565b9250817fffffffffffffffffffffffffffffffffffffffffffffffffffffffffffffffff04831182151516156111bf576111be6112b4565b5b828202905092915050565b60006111d58261121e565b9050919050565b60008115159050919050565b6000819050919050565b60007fffffffff0000000000000000000000000000000000000000000000000000000082169050919050565b600073ffffffffffffffffffffffffffffffffffffffff82169050919050565b6000819050919050565b82818337600083830152505050565b60005b8381101561127557808201518184015260208101905061125a565b83811115611284576000848401525b50505050565b60006112958261123e565b915060008214156112a9576112a86112b4565b5b600182039050919050565b7f4e487b7100000000000000000000000000000000000000000000000000000000600052601160045260246000fd5b7f4e487b7100000000000000000000000000000000000000000000000000000000600052603260045260246000fd5b7f4e487b7100000000000000000000000000000000000000000000000000000000600052604160045260246000fd5b600080fd5b600080fd5b600080fd5b600080fd5b600080fd5b6000601f19601f8301169050919050565b7f537472696e67733a20686578206c656e67746820696e73756666696369656e74600082015250565b7f43616e27742075706461746520746865206163636f756e740000000000000000600082015250565b7f416363657373436f6e74726f6c3a206163636f756e7420000000000000000000600082015250565b7f41727469737420616c7265616479207665726966696564000000000000000000600082015250565b7f206973206d697373696e6720726f6c6520000000000000000000000000000000600082015250565b7f416363657373436f6e74726f6c3a2063616e206f6e6c792072656e6f756e636560008201527f20726f6c657320666f722073656c660000000000000000000000000000000000602082015250565b611490816111ca565b811461149b57600080fd5b50565b6114a7816111e8565b81146114b257600080fd5b50565b6114be816111f2565b81146114c957600080fd5b5056fea26469706673582212207cc53115ec69fb098f98a759f74d52ceea05dc62879eb3e368650572df1f88e364736f6c63430008060033",
  "immutableReferences": {},
  "source": "// SPDX-License-Identifier: MIT\npragma solidity ^0.8.0;\n\nimport \"@openzeppelin/contracts/access/AccessControl.sol\";\nimport \"./Structs.sol\";\n\n/**\n * @title verified artists addresses contract\n * @author Eric Nordelo\n */\ncontract VerifiedArtists is AccessControl {\n    bytes32 public constant VERIFIER_ROLE = keccak256(\"VERIFIER_ROLE\");\n\n    mapping(bytes32 => Artist) public verifiedArtists;\n\n    event VerifyArtist(address indexed account, bytes32 id);\n\n    constructor() {\n        _setupRole(DEFAULT_ADMIN_ROLE, msg.sender);\n\n        // Default admin can add verifiers\n        _setRoleAdmin(VERIFIER_ROLE, DEFAULT_ADMIN_ROLE);\n    }\n\n    /**\n     * @dev allows admins to verify an artist\n     * @param _identifier the string identifying the artist (name and dni, or something like that)\n     * @param _account the verified artist account address\n     */\n    function verify(string calldata _identifier, address _account) external onlyRole(VERIFIER_ROLE) {\n        bytes32 id = keccak256(abi.encodePacked(_identifier));\n\n        require(verifiedArtists[id].account == address(0), \"Artist already verified\");\n\n        verifiedArtists[id] = Artist({account: _account, registeredSongs: 0});\n\n        emit VerifyArtist(_account, id);\n    }\n\n    /**\n     * @notice allows an artist to update her/his account address\n     * @param _artistId the bytes32 id of the artist (keccak256 of the identifier string)\n     * @param _newAccount the new account address\n     */\n    function changeAccount(bytes32 _artistId, address _newAccount) external {\n        require(verifiedArtists[_artistId].account == msg.sender, \"Can't update the account\");\n        verifiedArtists[_artistId].account = _newAccount;\n    }\n}\n",
  "sourcePath": "/Users/angelsatorresalmenara/Desktop/privi-trax-smart-contracts/contracts/VerifiedArtists.sol",
  "compiler": {
    "name": "solc",
    "version": "0.8.6+commit.11564f7e.Emscripten.clang"
  },
  "schemaVersion": "3.4.2",
  "updatedAt": "2021-09-02T15:27:49.996Z",
  "devdoc": {
    "author": "Eric Nordelo",
    "kind": "dev",
    "methods": {
      "changeAccount(bytes32,address)": {
        "params": {
          "_artistId": "the bytes32 id of the artist (keccak256 of the identifier string)",
          "_newAccount": "the new account address"
        }
      },
      "getRoleAdmin(bytes32)": {
        "details": "Returns the admin role that controls `role`. See {grantRole} and {revokeRole}. To change a role's admin, use {_setRoleAdmin}."
      },
      "grantRole(bytes32,address)": {
        "details": "Grants `role` to `account`. If `account` had not been already granted `role`, emits a {RoleGranted} event. Requirements: - the caller must have ``role``'s admin role."
      },
      "hasRole(bytes32,address)": {
        "details": "Returns `true` if `account` has been granted `role`."
      },
      "renounceRole(bytes32,address)": {
        "details": "Revokes `role` from the calling account. Roles are often managed via {grantRole} and {revokeRole}: this function's purpose is to provide a mechanism for accounts to lose their privileges if they are compromised (such as when a trusted device is misplaced). If the calling account had been granted `role`, emits a {RoleRevoked} event. Requirements: - the caller must be `account`."
      },
      "revokeRole(bytes32,address)": {
        "details": "Revokes `role` from `account`. If `account` had been granted `role`, emits a {RoleRevoked} event. Requirements: - the caller must have ``role``'s admin role."
      },
      "supportsInterface(bytes4)": {
        "details": "See {IERC165-supportsInterface}."
      },
      "verify(string,address)": {
        "details": "allows admins to verify an artist",
        "params": {
          "_account": "the verified artist account address",
          "_identifier": "the string identifying the artist (name and dni, or something like that)"
        }
      }
    },
    "title": "verified artists addresses contract",
    "version": 1
  },
  "userdoc": {
    "kind": "user",
    "methods": {
      "changeAccount(bytes32,address)": {
        "notice": "allows an artist to update her/his account address"
      }
    },
    "version": 1
  }
}