{
  "contractName": "Yield",
  "abi": [
    {
      "inputs": [
        {
          "internalType": "uint256",
          "name": "_startingValue",
          "type": "uint256"
        },
        {
          "internalType": "uint256",
          "name": "_increment",
          "type": "uint256"
        },
        {
          "internalType": "uint256",
          "name": "_initialMinPrice",
          "type": "uint256"
        },
        {
          "internalType": "address",
          "name": "_baseToken",
          "type": "address"
        },
        {
          "internalType": "address",
          "name": "_oracle",
          "type": "address"
        }
      ],
      "stateMutability": "nonpayable",
      "type": "constructor"
    },
    {
      "anonymous": false,
      "inputs": [
        {
          "indexed": false,
          "internalType": "address",
          "name": "from",
          "type": "address"
        },
        {
          "indexed": false,
          "internalType": "uint256",
          "name": "bucket",
          "type": "uint256"
        },
        {
          "indexed": false,
          "internalType": "uint256",
          "name": "amountShares",
          "type": "uint256"
        },
        {
          "indexed": false,
          "internalType": "uint256",
          "name": "amountToken",
          "type": "uint256"
        }
      ],
      "name": "Burn",
      "type": "event"
    },
    {
      "anonymous": false,
      "inputs": [
        {
          "indexed": false,
          "internalType": "uint256",
          "name": "winningBucketId",
          "type": "uint256"
        },
        {
          "indexed": false,
          "internalType": "int256",
          "name": "offset",
          "type": "int256"
        },
        {
          "indexed": false,
          "internalType": "int256",
          "name": "price",
          "type": "int256"
        },
        {
          "indexed": false,
          "internalType": "uint256",
          "name": "winnings",
          "type": "uint256"
        }
      ],
      "name": "FinishRound",
      "type": "event"
    },
    {
      "anonymous": false,
      "inputs": [
        {
          "indexed": false,
          "internalType": "address",
          "name": "to",
          "type": "address"
        },
        {
          "indexed": false,
          "internalType": "uint256",
          "name": "bucket",
          "type": "uint256"
        },
        {
          "indexed": false,
          "internalType": "uint256",
          "name": "amountShares",
          "type": "uint256"
        },
        {
          "indexed": false,
          "internalType": "uint256",
          "name": "amountToken",
          "type": "uint256"
        }
      ],
      "name": "Mint",
      "type": "event"
    },
    {
      "anonymous": false,
      "inputs": [
        {
          "indexed": true,
          "internalType": "address",
          "name": "previousOwner",
          "type": "address"
        },
        {
          "indexed": true,
          "internalType": "address",
          "name": "newOwner",
          "type": "address"
        }
      ],
      "name": "OwnershipTransferred",
      "type": "event"
    },
    {
      "anonymous": false,
      "inputs": [
        {
          "indexed": false,
          "internalType": "address",
          "name": "swapper",
          "type": "address"
        },
        {
          "indexed": false,
          "internalType": "uint256",
          "name": "bucketFrom",
          "type": "uint256"
        },
        {
          "indexed": false,
          "internalType": "uint256",
          "name": "bucketTo",
          "type": "uint256"
        }
      ],
      "name": "Swap",
      "type": "event"
    },
    {
      "anonymous": false,
      "inputs": [
        {
          "indexed": false,
          "internalType": "address",
          "name": "token",
          "type": "address"
        },
        {
          "indexed": false,
          "internalType": "address",
          "name": "to",
          "type": "address"
        },
        {
          "indexed": false,
          "internalType": "uint256",
          "name": "amount",
          "type": "uint256"
        }
      ],
      "name": "Withdraw",
      "type": "event"
    },
    {
      "inputs": [],
      "name": "feeDenominator",
      "outputs": [
        {
          "internalType": "uint16",
          "name": "",
          "type": "uint16"
        }
      ],
      "stateMutability": "view",
      "type": "function",
      "constant": true
    },
    {
      "inputs": [],
      "name": "feeNumerator",
      "outputs": [
        {
          "internalType": "uint16",
          "name": "",
          "type": "uint16"
        }
      ],
      "stateMutability": "view",
      "type": "function",
      "constant": true
    },
    {
      "inputs": [],
      "name": "increment",
      "outputs": [
        {
          "internalType": "uint256",
          "name": "",
          "type": "uint256"
        }
      ],
      "stateMutability": "view",
      "type": "function",
      "constant": true
    },
    {
      "inputs": [],
      "name": "initialMinPrice",
      "outputs": [
        {
          "internalType": "uint256",
          "name": "",
          "type": "uint256"
        }
      ],
      "stateMutability": "view",
      "type": "function",
      "constant": true
    },
    {
      "inputs": [],
      "name": "maxDistance",
      "outputs": [
        {
          "internalType": "uint16",
          "name": "",
          "type": "uint16"
        }
      ],
      "stateMutability": "view",
      "type": "function",
      "constant": true
    },
    {
      "inputs": [],
      "name": "owner",
      "outputs": [
        {
          "internalType": "address",
          "name": "",
          "type": "address"
        }
      ],
      "stateMutability": "view",
      "type": "function",
      "constant": true
    },
    {
      "inputs": [],
      "name": "renounceOwnership",
      "outputs": [],
      "stateMutability": "nonpayable",
      "type": "function"
    },
    {
      "inputs": [],
      "name": "roundDuration",
      "outputs": [
        {
          "internalType": "uint256",
          "name": "",
          "type": "uint256"
        }
      ],
      "stateMutability": "view",
      "type": "function",
      "constant": true
    },
    {
      "inputs": [],
      "name": "startingValue",
      "outputs": [
        {
          "internalType": "uint256",
          "name": "",
          "type": "uint256"
        }
      ],
      "stateMutability": "view",
      "type": "function",
      "constant": true
    },
    {
      "inputs": [],
      "name": "tollDenominator",
      "outputs": [
        {
          "internalType": "uint16",
          "name": "",
          "type": "uint16"
        }
      ],
      "stateMutability": "view",
      "type": "function",
      "constant": true
    },
    {
      "inputs": [],
      "name": "tollNumerator",
      "outputs": [
        {
          "internalType": "uint16",
          "name": "",
          "type": "uint16"
        }
      ],
      "stateMutability": "view",
      "type": "function",
      "constant": true
    },
    {
      "inputs": [
        {
          "internalType": "address",
          "name": "newOwner",
          "type": "address"
        }
      ],
      "name": "transferOwnership",
      "outputs": [],
      "stateMutability": "nonpayable",
      "type": "function"
    },
    {
      "inputs": [
        {
          "internalType": "uint256",
          "name": "value",
          "type": "uint256"
        }
      ],
      "name": "getBucketId",
      "outputs": [
        {
          "internalType": "uint256",
          "name": "bucketId",
          "type": "uint256"
        }
      ],
      "stateMutability": "view",
      "type": "function",
      "constant": true
    },
    {
      "inputs": [
        {
          "internalType": "address",
          "name": "to",
          "type": "address"
        },
        {
          "internalType": "uint256",
          "name": "bucket",
          "type": "uint256"
        },
        {
          "internalType": "uint256",
          "name": "amountOutShares",
          "type": "uint256"
        }
      ],
      "name": "mintShares",
      "outputs": [],
      "stateMutability": "nonpayable",
      "type": "function"
    },
    {
      "inputs": [
        {
          "internalType": "address",
          "name": "to",
          "type": "address"
        },
        {
          "internalType": "uint256",
          "name": "bucket",
          "type": "uint256"
        },
        {
          "internalType": "uint256",
          "name": "amountInShares",
          "type": "uint256"
        }
      ],
      "name": "burnShares",
      "outputs": [],
      "stateMutability": "nonpayable",
      "type": "function"
    },
    {
      "inputs": [
        {
          "internalType": "uint256",
          "name": "bucket",
          "type": "uint256"
        },
        {
          "internalType": "uint256",
          "name": "amountOut",
          "type": "uint256"
        }
      ],
      "name": "getSharesAmountIn",
      "outputs": [
        {
          "internalType": "uint256",
          "name": "amountIn",
          "type": "uint256"
        }
      ],
      "stateMutability": "view",
      "type": "function",
      "constant": true
    },
    {
      "inputs": [
        {
          "internalType": "uint256",
          "name": "bucket",
          "type": "uint256"
        },
        {
          "internalType": "uint256",
          "name": "amountIn",
          "type": "uint256"
        }
      ],
      "name": "getSharesAmountOut",
      "outputs": [
        {
          "internalType": "uint256",
          "name": "",
          "type": "uint256"
        }
      ],
      "stateMutability": "view",
      "type": "function",
      "constant": true
    },
    {
      "inputs": [],
      "name": "finishRound",
      "outputs": [],
      "stateMutability": "nonpayable",
      "type": "function"
    },
    {
      "inputs": [
        {
          "internalType": "address",
          "name": "swapper",
          "type": "address"
        },
        {
          "internalType": "uint256",
          "name": "bucketFrom",
          "type": "uint256"
        },
        {
          "internalType": "uint256",
          "name": "bucketTo",
          "type": "uint256"
        }
      ],
      "name": "swap",
      "outputs": [],
      "stateMutability": "nonpayable",
      "type": "function"
    },
    {
      "inputs": [
        {
          "internalType": "uint256",
          "name": "bucket",
          "type": "uint256"
        },
        {
          "internalType": "address",
          "name": "account",
          "type": "address"
        }
      ],
      "name": "balanceOf",
      "outputs": [
        {
          "internalType": "uint256",
          "name": "",
          "type": "uint256"
        }
      ],
      "stateMutability": "view",
      "type": "function",
      "constant": true
    },
    {
      "inputs": [
        {
          "internalType": "uint256",
          "name": "bucket",
          "type": "uint256"
        }
      ],
      "name": "totalShares",
      "outputs": [
        {
          "internalType": "uint256",
          "name": "",
          "type": "uint256"
        }
      ],
      "stateMutability": "view",
      "type": "function",
      "constant": true
    },
    {
      "inputs": [
        {
          "internalType": "uint256",
          "name": "bucket",
          "type": "uint256"
        }
      ],
      "name": "reserves",
      "outputs": [
        {
          "internalType": "uint256",
          "name": "",
          "type": "uint256"
        }
      ],
      "stateMutability": "view",
      "type": "function",
      "constant": true
    },
    {
      "inputs": [
        {
          "internalType": "address",
          "name": "to",
          "type": "address"
        }
      ],
      "name": "withdrawFees",
      "outputs": [],
      "stateMutability": "nonpayable",
      "type": "function"
    },
    {
      "inputs": [
        {
          "internalType": "uint16",
          "name": "numerator",
          "type": "uint16"
        },
        {
          "internalType": "uint16",
          "name": "denominator",
          "type": "uint16"
        }
      ],
      "name": "setFee",
      "outputs": [],
      "stateMutability": "nonpayable",
      "type": "function"
    },
    {
      "inputs": [
        {
          "internalType": "uint256",
          "name": "_roundDuration",
          "type": "uint256"
        }
      ],
      "name": "setRoundDuration",
      "outputs": [],
      "stateMutability": "nonpayable",
      "type": "function"
    },
    {
      "inputs": [
        {
          "internalType": "uint16",
          "name": "_maxDistance",
          "type": "uint16"
        }
      ],
      "name": "setMaxDistance",
      "outputs": [],
      "stateMutability": "nonpayable",
      "type": "function"
    },
    {
      "inputs": [
        {
          "internalType": "uint16",
          "name": "numerator",
          "type": "uint16"
        },
        {
          "internalType": "uint16",
          "name": "denominator",
          "type": "uint16"
        }
      ],
      "name": "setToll",
      "outputs": [],
      "stateMutability": "nonpayable",
      "type": "function"
    }
  ],
  "bytecode": "0x61010060405261012c6006556005600860006101000a81548161ffff021916908361ffff1602179055506103e8600860026101000a81548161ffff021916908361ffff1602179055506064600860046101000a81548161ffff021916908361ffff1602179055506001600860066101000a81548161ffff021916908361ffff16021790555060646008806101000a81548161ffff021916908361ffff160217905550348015620000ae57600080fd5b5060405162003963380380620039638339818101604052810190620000d4919062000290565b620000f4620000e86200019660201b60201c565b6200019e60201b60201c565b8460c081815250508360a081815250508260808181525050426005819055508173ffffffffffffffffffffffffffffffffffffffff1660e08173ffffffffffffffffffffffffffffffffffffffff1660601b8152505080600460006101000a81548173ffffffffffffffffffffffffffffffffffffffff021916908373ffffffffffffffffffffffffffffffffffffffff160217905550505050505062000384565b600033905090565b60008060009054906101000a900473ffffffffffffffffffffffffffffffffffffffff169050816000806101000a81548173ffffffffffffffffffffffffffffffffffffffff021916908373ffffffffffffffffffffffffffffffffffffffff1602179055508173ffffffffffffffffffffffffffffffffffffffff168173ffffffffffffffffffffffffffffffffffffffff167f8be0079c531659141344cd1fd0a4f28419497f9722a3daafe3b4186f6b6457e060405160405180910390a35050565b600081519050620002738162000350565b92915050565b6000815190506200028a816200036a565b92915050565b600080600080600060a08688031215620002a957600080fd5b6000620002b98882890162000279565b9550506020620002cc8882890162000279565b9450506040620002df8882890162000279565b9350506060620002f28882890162000262565b9250506080620003058882890162000262565b9150509295509295909350565b60006200031f8262000326565b9050919050565b600073ffffffffffffffffffffffffffffffffffffffff82169050919050565b6000819050919050565b6200035b8162000312565b81146200036757600080fd5b50565b620003758162000346565b81146200038157600080fd5b50565b60805160a05160c05160e05160601c61354062000423600039600081816105ba015281816107e20152818161143101526118730152600081816109f901528181611c3601528181611c8601528181611d1c0152611d7001526000818161163101528181611bd201528181611bf601528181611c6101528181611cf80152611d9101526000818161178b01528181611acb0152611f2c01526135406000f3fe608060405234801561001057600080fd5b50600436106101a95760003560e01c80638334278d116100f9578063d53bc6ba11610097578063f3b0a9c111610071578063f3b0a9c114610482578063f443bb00146104b2578063f74e5e0b146104d0578063f7cb789a146104ec576101a9565b8063d53bc6ba14610418578063e86dea4a14610448578063f2fde38b14610466576101a9565b806399b64de1116100d357806399b64de1146103a65780639f1d0f59146103c2578063b28d84f5146103de578063d09de08a146103fa576101a9565b80638334278d146103285780638834f4ed146103585780638da5cb5b14610388576101a9565b806336c92c3f1161016657806353b416951161014057806353b41695146102da578063547916ea146102f65780636e3dc99214610300578063715018a61461031e576101a9565b806336c92c3f146102825780633872b2821461029e5780633ef085a0146102bc576101a9565b806308571944146101ae57806313f2dad0146101cc578063164e68de146101fc578063180b0d7e146102185780631c857a02146102365780633656eec214610252575b600080fd5b6101b661050a565b6040516101c39190612a9a565b60405180910390f35b6101e660048036038101906101e191906123f6565b61051c565b6040516101f39190612ab5565b60405180910390f35b610216600480360381019061021191906122f0565b610539565b005b6102206105ed565b60405161022d9190612a9a565b60405180910390f35b610250600480360381019061024b9190612319565b610601565b005b61026c6004803603810190610267919061241f565b6108d3565b6040516102799190612ab5565b60405180910390f35b61029c600480360381019061029791906123f6565b61092e565b005b6102a66109f7565b6040516102b39190612ab5565b60405180910390f35b6102c4610a1b565b6040516102d19190612a9a565b60405180910390f35b6102f460048036038101906102ef9190612391565b610a2f565b005b6102fe610b12565b005b610308610f25565b6040516103159190612a9a565b60405180910390f35b610326610f39565b005b610342600480360381019061033d91906123f6565b610fc1565b60405161034f9190612ab5565b60405180910390f35b610372600480360381019061036d919061245b565b610fde565b60405161037f9190612ab5565b60405180910390f35b610390610ff5565b60405161039d91906127a3565b60405180910390f35b6103c060048036038101906103bb91906123ba565b61101e565b005b6103dc60048036038101906103d79190612319565b61111f565b005b6103f860048036038101906103f391906123ba565b61152f565b005b61040261162f565b60405161040f9190612ab5565b60405180910390f35b610432600480360381019061042d919061245b565b611653565b60405161043f9190612ab5565b60405180910390f35b610450611667565b60405161045d9190612a9a565b60405180910390f35b610480600480360381019061047b91906122f0565b61167b565b005b61049c600480360381019061049791906123f6565b611773565b6040516104a99190612ab5565b60405180910390f35b6104ba611789565b6040516104c79190612ab5565b60405180910390f35b6104ea60048036038101906104e59190612319565b6117ad565b005b6104f4611a44565b6040516105019190612ab5565b60405180910390f35b60088054906101000a900461ffff1681565b600060036000838152602001908152602001600020549050919050565b610541611a4a565b73ffffffffffffffffffffffffffffffffffffffff1661055f610ff5565b73ffffffffffffffffffffffffffffffffffffffff16146105b5576040517f08c379a00000000000000000000000000000000000000000000000000000000081526004016105ac90612a1a565b60405180910390fd5b6105e27f000000000000000000000000000000000000000000000000000000000000000082600754611a52565b600060078190555050565b600860029054906101000a900461ffff1681565b600073ffffffffffffffffffffffffffffffffffffffff168373ffffffffffffffffffffffffffffffffffffffff161415610671576040517f08c379a00000000000000000000000000000000000000000000000000000000081526004016106689061289a565b60405180910390fd5b806001600084815260200190815260200160002060008573ffffffffffffffffffffffffffffffffffffffff1673ffffffffffffffffffffffffffffffffffffffff168152602001908152602001600020541015610704576040517f08c379a00000000000000000000000000000000000000000000000000000000081526004016106fb906129fa565b60405180910390fd5b6000806107118484611a62565b91509150600081836107239190613022565b9050806002600087815260200190815260200160002060008282546107489190613022565b92505081905550836003600087815260200190815260200160002060008282546107729190613022565b92505081905550836001600087815260200190815260200160002060008873ffffffffffffffffffffffffffffffffffffffff1673ffffffffffffffffffffffffffffffffffffffff16815260200190815260200160002060008282546107d99190613022565b925050819055507f000000000000000000000000000000000000000000000000000000000000000073ffffffffffffffffffffffffffffffffffffffff1663a9059cbb87836040518363ffffffff1660e01b815260040161083b9291906127f5565b602060405180830381600087803b15801561085557600080fd5b505af1158015610869573d6000803e3d6000fd5b505050506040513d601f19601f8201168201806040525081019061088d9190612368565b507f743033787f4738ff4d6a7225ce2bd0977ee5f86b91a902a58f5e4d0b297b4644868686846040516108c39493929190612855565b60405180910390a1505050505050565b60006001600084815260200190815260200160002060008373ffffffffffffffffffffffffffffffffffffffff1673ffffffffffffffffffffffffffffffffffffffff16815260200190815260200160002054905092915050565b610936611a4a565b73ffffffffffffffffffffffffffffffffffffffff16610954610ff5565b73ffffffffffffffffffffffffffffffffffffffff16146109aa576040517f08c379a00000000000000000000000000000000000000000000000000000000081526004016109a190612a1a565b60405180910390fd5b600081116109ed576040517f08c379a00000000000000000000000000000000000000000000000000000000081526004016109e49061295a565b60405180910390fd5b8060068190555050565b7f000000000000000000000000000000000000000000000000000000000000000081565b600860069054906101000a900461ffff1681565b610a37611a4a565b73ffffffffffffffffffffffffffffffffffffffff16610a55610ff5565b73ffffffffffffffffffffffffffffffffffffffff1614610aab576040517f08c379a0000000000000000000000000000000000000000000000000000000008152600401610aa290612a1a565b60405180910390fd5b60008161ffff1611610af2576040517f08c379a0000000000000000000000000000000000000000000000000000000008152600401610ae990612a3a565b60405180910390fd5b80600860046101000a81548161ffff021916908361ffff16021790555050565b610b1a611a4a565b73ffffffffffffffffffffffffffffffffffffffff16610b38610ff5565b73ffffffffffffffffffffffffffffffffffffffff1614610b8e576040517f08c379a0000000000000000000000000000000000000000000000000000000008152600401610b8590612a1a565b60405180910390fd5b42600654600554610b9f9190612bf1565b1115610be0576040517f08c379a0000000000000000000000000000000000000000000000000000000008152600401610bd79061291a565b60405180910390fd5b6000600460009054906101000a900473ffffffffffffffffffffffffffffffffffffffff1673ffffffffffffffffffffffffffffffffffffffff1663feaf968c6040518163ffffffff1660e01b815260040160a06040518083038186803b158015610c4a57600080fd5b505afa158015610c5e573d6000803e3d6000fd5b505050506040513d601f19601f82011682018060405250810190610c829190612497565b5050509150506000600460009054906101000a900473ffffffffffffffffffffffffffffffffffffffff1673ffffffffffffffffffffffffffffffffffffffff1663313ce5676040518163ffffffff1660e01b815260040160206040518083038186803b158015610cf257600080fd5b505afa158015610d06573d6000803e3d6000fd5b505050506040513d601f19601f82011682018060405250810190610d2a919061250e565b9050600080610d56610d5184600a610d429190612ccb565b86611bb290919063ffffffff16565b611bc8565b91509150600080600860049054906101000a900461ffff16905060008160010b85610d819190612f5a565b90505b8160010b85610d939190612b5d565b8113610eae5780851415610da657610e9b565b6000808287610db59190612f5a565b12610dcb578186610dc69190612f5a565b610dd8565b8582610dd79190612f5a565b5b90506000610df08388610deb9190612b5d565b611d6c565b90506000610e5d60088054906101000a900461ffff1661ffff16610e4f600860069054906101000a900461ffff1661ffff1686610e2d9190612f00565b6002600087815260200190815260200160002054611bb290919063ffffffff16565b611de390919063ffffffff16565b905080600260008481526020019081526020016000206000828254610e829190613022565b925050819055508086610e959190612bf1565b95505050505b8080610ea6906130d9565b915050610d84565b5081600260008581526020019081526020016000206000828254610ed29190612bf1565b92505081905550426005819055507f994e5b3bceb7ccaf79afb48020b3d84e7f0124a8ad157138fcc410274725debc83858885604051610f159493929190612ad0565b60405180910390a1505050505050565b600860049054906101000a900461ffff1681565b610f41611a4a565b73ffffffffffffffffffffffffffffffffffffffff16610f5f610ff5565b73ffffffffffffffffffffffffffffffffffffffff1614610fb5576040517f08c379a0000000000000000000000000000000000000000000000000000000008152600401610fac90612a1a565b60405180910390fd5b610fbf6000611df9565b565b600060026000838152602001908152602001600020549050919050565b6000610fea8383611a62565b508091505092915050565b60008060009054906101000a900473ffffffffffffffffffffffffffffffffffffffff16905090565b611026611a4a565b73ffffffffffffffffffffffffffffffffffffffff16611044610ff5565b73ffffffffffffffffffffffffffffffffffffffff161461109a576040517f08c379a000000000000000000000000000000000000000000000000000000000815260040161109190612a1a565b60405180910390fd5b60008161ffff16116110e1576040517f08c379a00000000000000000000000000000000000000000000000000000000081526004016110d89061297a565b60405180910390fd5b81600860006101000a81548161ffff021916908361ffff16021790555080600860026101000a81548161ffff021916908361ffff1602179055505050565b60006001600084815260200190815260200160002060008573ffffffffffffffffffffffffffffffffffffffff1673ffffffffffffffffffffffffffffffffffffffff16815260200190815260200160002054116111b2576040517f08c379a00000000000000000000000000000000000000000000000000000000081526004016111a990612a7a565b60405180910390fd5b60008061120f846001600087815260200190815260200160002060008873ffffffffffffffffffffffffffffffffffffffff1673ffffffffffffffffffffffffffffffffffffffff16815260200190815260200160002054611a62565b91509150600081836112219190613022565b9050600061122f8583611ebd565b905060008061123e8784611a62565b9150915083600260008a815260200190815260200160002060008282546112659190613022565b925050819055506001600089815260200190815260200160002060008a73ffffffffffffffffffffffffffffffffffffffff1673ffffffffffffffffffffffffffffffffffffffff16815260200190815260200160002054600360008a815260200190815260200160002060008282546112df9190613022565b925050819055506000600160008a815260200190815260200160002060008b73ffffffffffffffffffffffffffffffffffffffff1673ffffffffffffffffffffffffffffffffffffffff1681526020019081526020016000208190555080826113489190613022565b60026000898152602001908152602001600020600082825461136a9190612bf1565b92505081905550826003600089815260200190815260200160002060008282546113949190612bf1565b92505081905550826001600089815260200190815260200160002060008b73ffffffffffffffffffffffffffffffffffffffff1673ffffffffffffffffffffffffffffffffffffffff16815260200190815260200160002060008282546113fb9190612bf1565b9250508190555080600760008282546114149190612bf1565b92505081905550600082856114299190613022565b11156114e9577f000000000000000000000000000000000000000000000000000000000000000073ffffffffffffffffffffffffffffffffffffffff1663a9059cbb8a84876114789190613022565b6040518363ffffffff1660e01b81526004016114959291906127f5565b602060405180830381600087803b1580156114af57600080fd5b505af11580156114c3573d6000803e3d6000fd5b505050506040513d601f19601f820116820180604052508101906114e79190612368565b505b7f77f92a1b6a1a11de8ca49515ad4c1fad45632dd3442167d74b90b304a3c7a75889898960405161151c9392919061281e565b60405180910390a1505050505050505050565b611537611a4a565b73ffffffffffffffffffffffffffffffffffffffff16611555610ff5565b73ffffffffffffffffffffffffffffffffffffffff16146115ab576040517f08c379a00000000000000000000000000000000000000000000000000000000081526004016115a290612a1a565b60405180910390fd5b60008161ffff16116115f2576040517f08c379a00000000000000000000000000000000000000000000000000000000081526004016115e990612a5a565b60405180910390fd5b81600860066101000a81548161ffff021916908361ffff160217905550806008806101000a81548161ffff021916908361ffff1602179055505050565b7f000000000000000000000000000000000000000000000000000000000000000081565b600061165f8383611ebd565b905092915050565b600860009054906101000a900461ffff1681565b611683611a4a565b73ffffffffffffffffffffffffffffffffffffffff166116a1610ff5565b73ffffffffffffffffffffffffffffffffffffffff16146116f7576040517f08c379a00000000000000000000000000000000000000000000000000000000081526004016116ee90612a1a565b60405180910390fd5b600073ffffffffffffffffffffffffffffffffffffffff168173ffffffffffffffffffffffffffffffffffffffff161415611767576040517f08c379a000000000000000000000000000000000000000000000000000000000815260040161175e906128fa565b60405180910390fd5b61177081611df9565b50565b600061177e82611bc8565b905080915050919050565b7f000000000000000000000000000000000000000000000000000000000000000081565b600073ffffffffffffffffffffffffffffffffffffffff168373ffffffffffffffffffffffffffffffffffffffff16141561181d576040517f08c379a00000000000000000000000000000000000000000000000000000000081526004016118149061289a565b60405180910390fd5b60008111611860576040517f08c379a0000000000000000000000000000000000000000000000000000000008152600401611857906129da565b60405180910390fd5b60008061186d8484611a62565b915091507f000000000000000000000000000000000000000000000000000000000000000073ffffffffffffffffffffffffffffffffffffffff166323b872dd8630856040518463ffffffff1660e01b81526004016118ce939291906127be565b602060405180830381600087803b1580156118e857600080fd5b505af11580156118fc573d6000803e3d6000fd5b505050506040513d601f19601f820116820180604052508101906119209190612368565b50808261192d9190613022565b60026000868152602001908152602001600020600082825461194f9190612bf1565b92505081905550826003600086815260200190815260200160002060008282546119799190612bf1565b92505081905550826001600086815260200190815260200160002060008773ffffffffffffffffffffffffffffffffffffffff1673ffffffffffffffffffffffffffffffffffffffff16815260200190815260200160002060008282546119e09190612bf1565b9250508190555080600760008282546119f99190612bf1565b925050819055507fb4c03061fb5b7fed76389d5af8f2e0ddb09f8c70d1333abbb62582835e10accb85858585604051611a359493929190612855565b60405180910390a15050505050565b60065481565b600033905090565b611a5d838383611fd2565b505050565b60008060008311611aa8576040517f08c379a0000000000000000000000000000000000000000000000000000000008152600401611a9f906129ba565b60405180910390fd5b60008060036000878152602001908152602001600020541415611aff57611af8847f0000000000000000000000000000000000000000000000000000000000000000611bb290919063ffffffff16565b9050611b4d565b611b4a84611b3c6003600089815260200190815260200160002054600260008a815260200190815260200160002054611de390919063ffffffff16565b611bb290919063ffffffff16565b90505b611b9a600860029054906101000a900461ffff1661ffff16611b8c600860009054906101000a900461ffff1661ffff1684611bb290919063ffffffff16565b611de390919063ffffffff16565b91508181611ba89190612bf1565b9250509250929050565b60008183611bc09190612f00565b905092915050565b6000806000611c327f0000000000000000000000000000000000000000000000000000000000000000611c247f000000000000000000000000000000000000000000000000000000000000000087611de390919063ffffffff16565b611bb290919063ffffffff16565b90507f0000000000000000000000000000000000000000000000000000000000000000841015611cf357611cc17f0000000000000000000000000000000000000000000000000000000000000000611cb3837f000000000000000000000000000000000000000000000000000000000000000061223290919063ffffffff16565b611de390919063ffffffff16565b7fffffffffffffffffffffffffffffffffffffffffffffffffffffffffffffffff611cec9190612de9565b9250611d5b565b611d587f0000000000000000000000000000000000000000000000000000000000000000611d4a7f00000000000000000000000000000000000000000000000000000000000000008461223290919063ffffffff16565b611de390919063ffffffff16565b92505b611d6483611d6c565b915050915091565b60007f00000000000000000000000000000000000000000000000000000000000000007f000000000000000000000000000000000000000000000000000000000000000083604051602001611dc393929190612b15565b6040516020818303038152906040528051906020012060001c9050919050565b60008183611df19190612c47565b905092915050565b60008060009054906101000a900473ffffffffffffffffffffffffffffffffffffffff169050816000806101000a81548173ffffffffffffffffffffffffffffffffffffffff021916908373ffffffffffffffffffffffffffffffffffffffff1602179055508173ffffffffffffffffffffffffffffffffffffffff168173ffffffffffffffffffffffffffffffffffffffff167f8be0079c531659141344cd1fd0a4f28419497f9722a3daafe3b4186f6b6457e060405160405180910390a35050565b600080821415611ed05760009050611fcc565b600080600360008681526020019081526020016000205414611f2a57611f2560036000868152602001908152602001600020546002600087815260200190815260200160002054611de390919063ffffffff16565b611f4c565b7f00000000000000000000000000000000000000000000000000000000000000005b9050611fc881611fba600860029054906101000a900461ffff1661ffff16611fac600860009054906101000a900461ffff16600860029054906101000a900461ffff16611f999190612fee565b61ffff1688611bb290919063ffffffff16565b611de390919063ffffffff16565b611de390919063ffffffff16565b9150505b92915050565b600073ffffffffffffffffffffffffffffffffffffffff168373ffffffffffffffffffffffffffffffffffffffff161415612042576040517f08c379a00000000000000000000000000000000000000000000000000000000081526004016120399061299a565b60405180910390fd5b600073ffffffffffffffffffffffffffffffffffffffff168273ffffffffffffffffffffffffffffffffffffffff1614156120b2576040517f08c379a00000000000000000000000000000000000000000000000000000000081526004016120a9906128ba565b60405180910390fd5b8173ffffffffffffffffffffffffffffffffffffffff168373ffffffffffffffffffffffffffffffffffffffff161415612121576040517f08c379a0000000000000000000000000000000000000000000000000000000008152600401612118906128da565b60405180910390fd5b60008111612164576040517f08c379a000000000000000000000000000000000000000000000000000000000815260040161215b9061293a565b60405180910390fd5b8273ffffffffffffffffffffffffffffffffffffffff1663a9059cbb83836040518363ffffffff1660e01b815260040161219f9291906127f5565b602060405180830381600087803b1580156121b957600080fd5b505af11580156121cd573d6000803e3d6000fd5b505050506040513d601f19601f820116820180604052508101906121f19190612368565b507f9b1bfa7fa9ee420a16e124f794c35ac9f90472acc99140eb2f6447c714cad8eb838383604051612225939291906127be565b60405180910390a1505050565b600081836122409190613022565b905092915050565b60008135905061225781613469565b92915050565b60008151905061226c81613480565b92915050565b60008151905061228181613497565b92915050565b600081359050612296816134ae565b92915050565b6000813590506122ab816134c5565b92915050565b6000815190506122c0816134c5565b92915050565b6000815190506122d5816134f3565b92915050565b6000815190506122ea816134dc565b92915050565b60006020828403121561230257600080fd5b600061231084828501612248565b91505092915050565b60008060006060848603121561232e57600080fd5b600061233c86828701612248565b935050602061234d8682870161229c565b925050604061235e8682870161229c565b9150509250925092565b60006020828403121561237a57600080fd5b60006123888482850161225d565b91505092915050565b6000602082840312156123a357600080fd5b60006123b184828501612287565b91505092915050565b600080604083850312156123cd57600080fd5b60006123db85828601612287565b92505060206123ec85828601612287565b9150509250929050565b60006020828403121561240857600080fd5b60006124168482850161229c565b91505092915050565b6000806040838503121561243257600080fd5b60006124408582860161229c565b925050602061245185828601612248565b9150509250929050565b6000806040838503121561246e57600080fd5b600061247c8582860161229c565b925050602061248d8582860161229c565b9150509250929050565b600080600080600060a086880312156124af57600080fd5b60006124bd888289016122c6565b95505060206124ce88828901612272565b94505060406124df888289016122b1565b93505060606124f0888289016122b1565b9250506080612501888289016122c6565b9150509295509295909350565b60006020828403121561252057600080fd5b600061252e848285016122db565b91505092915050565b61254081613056565b82525050565b61254f81613074565b82525050565b6000612562601c83612b4c565b915061256d8261318d565b602082019050919050565b6000612585600a83612b4c565b9150612590826131b6565b602082019050919050565b60006125a8601883612b4c565b91506125b3826131df565b602082019050919050565b60006125cb602683612b4c565b91506125d682613208565b604082019050919050565b60006125ee601a83612b4c565b91506125f982613257565b602082019050919050565b6000612611600e83612b4c565b915061261c82613280565b602082019050919050565b6000612634601f83612b4c565b915061263f826132a9565b602082019050919050565b6000612657602083612b4c565b9150612662826132d2565b602082019050919050565b600061267a600d83612b4c565b9150612685826132fb565b602082019050919050565b600061269d601a83612b4c565b91506126a882613324565b602082019050919050565b60006126c0602083612b4c565b91506126cb8261334d565b602082019050919050565b60006126e3601183612b4c565b91506126ee82613376565b602082019050919050565b6000612706602083612b4c565b91506127118261339f565b602082019050919050565b6000612729601d83612b4c565b9150612734826133c8565b602082019050919050565b600061274c602183612b4c565b9150612757826133f1565b604082019050919050565b600061276f602083612b4c565b915061277a82613440565b602082019050919050565b61278e8161307e565b82525050565b61279d816130ac565b82525050565b60006020820190506127b86000830184612537565b92915050565b60006060820190506127d36000830186612537565b6127e06020830185612537565b6127ed6040830184612794565b949350505050565b600060408201905061280a6000830185612537565b6128176020830184612794565b9392505050565b60006060820190506128336000830186612537565b6128406020830185612794565b61284d6040830184612794565b949350505050565b600060808201905061286a6000830187612537565b6128776020830186612794565b6128846040830185612794565b6128916060830184612794565b95945050505050565b600060208201905081810360008301526128b381612555565b9050919050565b600060208201905081810360008301526128d381612578565b9050919050565b600060208201905081810360008301526128f38161259b565b9050919050565b60006020820190508181036000830152612913816125be565b9050919050565b60006020820190508181036000830152612933816125e1565b9050919050565b6000602082019050818103600083015261295381612604565b9050919050565b6000602082019050818103600083015261297381612627565b9050919050565b600060208201905081810360008301526129938161264a565b9050919050565b600060208201905081810360008301526129b38161266d565b9050919050565b600060208201905081810360008301526129d381612690565b9050919050565b600060208201905081810360008301526129f3816126b3565b9050919050565b60006020820190508181036000830152612a13816126d6565b9050919050565b60006020820190508181036000830152612a33816126f9565b9050919050565b60006020820190508181036000830152612a538161271c565b9050919050565b60006020820190508181036000830152612a738161273f565b9050919050565b60006020820190508181036000830152612a9381612762565b9050919050565b6000602082019050612aaf6000830184612785565b92915050565b6000602082019050612aca6000830184612794565b92915050565b6000608082019050612ae56000830187612794565b612af26020830186612546565b612aff6040830185612546565b612b0c6060830184612794565b95945050505050565b6000606082019050612b2a6000830186612794565b612b376020830185612794565b612b446040830184612546565b949350505050565b600082825260208201905092915050565b6000612b6882613074565b9150612b7383613074565b9250817f7fffffffffffffffffffffffffffffffffffffffffffffffffffffffffffffff03831360008312151615612bae57612bad613122565b5b817f8000000000000000000000000000000000000000000000000000000000000000038312600083121615612be657612be5613122565b5b828201905092915050565b6000612bfc826130ac565b9150612c07836130ac565b9250827fffffffffffffffffffffffffffffffffffffffffffffffffffffffffffffffff03821115612c3c57612c3b613122565b5b828201905092915050565b6000612c52826130ac565b9150612c5d836130ac565b925082612c6d57612c6c613151565b5b828204905092915050565b6000808291508390505b6001851115612cc257808604811115612c9e57612c9d613122565b5b6001851615612cad5780820291505b8081029050612cbb85613180565b9450612c82565b94509492505050565b6000612cd6826130ac565b9150612ce1836130b6565b9250612d0e7fffffffffffffffffffffffffffffffffffffffffffffffffffffffffffffffff8484612d16565b905092915050565b600082612d265760019050612de2565b81612d345760009050612de2565b8160018114612d4a5760028114612d5457612d83565b6001915050612de2565b60ff841115612d6657612d65613122565b5b8360020a915084821115612d7d57612d7c613122565b5b50612de2565b5060208310610133831016604e8410600b8410161715612db85782820a905083811115612db357612db2613122565b5b612de2565b612dc58484846001612c78565b92509050818404811115612ddc57612ddb613122565b5b81810290505b9392505050565b6000612df482613074565b9150612dff83613074565b9250827f7fffffffffffffffffffffffffffffffffffffffffffffffffffffffffffffff0482116000841360008413161615612e3e57612e3d613122565b5b817f80000000000000000000000000000000000000000000000000000000000000000583126000841260008413161615612e7b57612e7a613122565b5b827f80000000000000000000000000000000000000000000000000000000000000000582126000841360008412161615612eb857612eb7613122565b5b827f7fffffffffffffffffffffffffffffffffffffffffffffffffffffffffffffff0582126000841260008412161615612ef557612ef4613122565b5b828202905092915050565b6000612f0b826130ac565b9150612f16836130ac565b9250817fffffffffffffffffffffffffffffffffffffffffffffffffffffffffffffffff0483118215151615612f4f57612f4e613122565b5b828202905092915050565b6000612f6582613074565b9150612f7083613074565b9250827f800000000000000000000000000000000000000000000000000000000000000001821260008412151615612fab57612faa613122565b5b827f7fffffffffffffffffffffffffffffffffffffffffffffffffffffffffffffff018213600084121615612fe357612fe2613122565b5b828203905092915050565b6000612ff98261307e565b91506130048361307e565b92508282101561301757613016613122565b5b828203905092915050565b600061302d826130ac565b9150613038836130ac565b92508282101561304b5761304a613122565b5b828203905092915050565b60006130618261308c565b9050919050565b60008115159050919050565b6000819050919050565b600061ffff82169050919050565b600073ffffffffffffffffffffffffffffffffffffffff82169050919050565b6000819050919050565b600060ff82169050919050565b600069ffffffffffffffffffff82169050919050565b60006130e482613074565b91507f7fffffffffffffffffffffffffffffffffffffffffffffffffffffffffffffff82141561311757613116613122565b5b600182019050919050565b7f4e487b7100000000000000000000000000000000000000000000000000000000600052601160045260246000fd5b7f4e487b7100000000000000000000000000000000000000000000000000000000600052601260045260246000fd5b60008160011c9050919050565b7f43616e6e6f74206d696e7420746f20656d707479206164647265737300000000600082015250565b7f496e76616c696420746f00000000000000000000000000000000000000000000600082015250565b7f43616e6e6f7420776974686472617720746f20746f6b656e0000000000000000600082015250565b7f4f776e61626c653a206e6577206f776e657220697320746865207a65726f206160008201527f6464726573730000000000000000000000000000000000000000000000000000602082015250565b7f526f756e64206973207374696c6c20696e2070726f6772657373000000000000600082015250565b7f496e76616c696420616d6f756e74000000000000000000000000000000000000600082015250565b7f526f756e64206475726174696f6e206d757374206e6f74206265207a65726f00600082015250565b7f4665652064656e6f6d696e61746f72206d757374206e6f74206265207a65726f600082015250565b7f496e76616c696420746f6b656e00000000000000000000000000000000000000600082015250565b7f496e73756666696369656e74206f757470757420616d6f756e74000000000000600082015250565b7f616d6f756e744f7574536861726573206d757374206e6f74206265207a65726f600082015250565b7f4e6f7420656e6f75676820736861726573000000000000000000000000000000600082015250565b7f4f776e61626c653a2063616c6c6572206973206e6f7420746865206f776e6572600082015250565b7f4d61782064697374616e6365206d757374206e6f74206265207a65726f000000600082015250565b7f546f6c6c2064656e6f6d696e61746f72206d757374206e6f74206265207a657260008201527f6f00000000000000000000000000000000000000000000000000000000000000602082015250565b7f4e6f206f776e65642073686172657320696e20736f75726365206275636b6574600082015250565b61347281613056565b811461347d57600080fd5b50565b61348981613068565b811461349457600080fd5b50565b6134a081613074565b81146134ab57600080fd5b50565b6134b78161307e565b81146134c257600080fd5b50565b6134ce816130ac565b81146134d957600080fd5b50565b6134e5816130b6565b81146134f057600080fd5b50565b6134fc816130c3565b811461350757600080fd5b5056fea264697066735822122046c94fce6f4037595a73361745bfdb1ef454bca6958e7714281ac8e747292d1864736f6c63430008040033",
  "immutableReferences": {
    "1383": [
      {
        "length": 32,
        "start": 6027
      },
      {
        "length": 32,
        "start": 6859
      },
      {
        "length": 32,
        "start": 7980
      }
    ],
    "1385": [
      {
        "length": 32,
        "start": 5681
      },
      {
        "length": 32,
        "start": 7122
      },
      {
        "length": 32,
        "start": 7158
      },
      {
        "length": 32,
        "start": 7265
      },
      {
        "length": 32,
        "start": 7416
      },
      {
        "length": 32,
        "start": 7569
      }
    ],
    "1387": [
      {
        "length": 32,
        "start": 2553
      },
      {
        "length": 32,
        "start": 7222
      },
      {
        "length": 32,
        "start": 7302
      },
      {
        "length": 32,
        "start": 7452
      },
      {
        "length": 32,
        "start": 7536
      }
    ],
    "1390": [
      {
        "length": 32,
        "start": 1466
      },
      {
        "length": 32,
        "start": 2018
      },
      {
        "length": 32,
        "start": 5169
      },
      {
        "length": 32,
        "start": 6259
      }
    ]
  },
  "source": "// SPDX-License-Identifier: MIT\npragma solidity >=0.4.22 <0.9.0;\n\nimport \"@openzeppelin/contracts/token/ERC20/IERC20.sol\";\nimport \"@openzeppelin/contracts/utils/math/SafeMath.sol\";\nimport \"./Withdrawable.sol\";\nimport \"@chainlink/contracts/src/v0.8/interfaces/AggregatorV3Interface.sol\";\nimport \"@openzeppelin/contracts/access/Ownable.sol\";\n\ncontract Yield is Withdrawable, Ownable {\n    using SafeMath for uint256;\n\n    /*\n    @notice Balances of shares of each bucket for each address\n    */\n    mapping(uint256 => mapping(address => uint256)) private _shares;\n\n    /*\n    @notice Total reserves stored in a bucket\n    */\n    mapping(uint256 => uint256) private _reserves;\n\n    /*\n    @notice Total shares minted in a bucket\n    */\n    mapping(uint256 => uint256) private _totalShares;\n\n    /*\n    @notice Oracle for determining price of the asset and hence the winning bucket\n    */\n    AggregatorV3Interface private oracle;\n\n    /*\n    @notice Keeps track of when the last round occured.\n    */\n    uint256 private lastRoundTimestamp;\n\n    /*\n    @notice The duration for each round before selecting a winning bucket.\n    */\n    uint256 public roundDuration = 5 minutes;\n\n    /*\n    @notice Initial minimum price at which shares can be bought.\n    */\n    uint256 public immutable initialMinPrice;\n\n    /*\n    @notice Incremental of the value for buckets\n    */\n    uint256 public immutable increment;\n\n    /*\n    @notice Starting value of initial bucket\n    */\n    uint256 public immutable startingValue;\n\n    /*\n    @dev Token used for payments\n    */\n    IERC20 private immutable baseToken;\n\n    /*\n    @dev stores the amount of fees accumulated. Resets on fees withdrawal.\n    */\n    uint256 private accumulatedFees;\n\n    /*\n    @notice The numerator used for fee calculation.\n\n    @dev default value set together with denominator to represent 0.5% fee.\n    */\n    uint16 public feeNumerator = 5;\n\n    /*\n    @notice The denominator used for fee calculation.\n\n    @dev default value set together with numerator to represent 0.5% fee.\n    */\n    uint16 public feeDenominator = 1000;\n\n    /*\n    @notice the distance from winning buckets that game considers when redistributing funds\n    */\n    uint16 public maxDistance = 100;\n\n    /*\n    @notice the numerator used for toll calculation upon selecting a winning bucket\n\n    @dev default value set together with denominator to represet 1% toll step\n    */\n    uint16 public tollNumerator = 1;\n\n    /*\n    @notice the denominator used for toll calculation upon selecting a winning bucket\n\n    @dev default value set together with numerator to represet 1% toll step\n    */\n    uint16 public tollDenominator = 100;\n\n    event Mint(address to, uint256 bucket, uint256 amountShares, uint256 amountToken);\n    event Burn(address from, uint256 bucket, uint256 amountShares, uint256 amountToken);\n    event Swap(address swapper, uint256 bucketFrom, uint256 bucketTo);\n    event FinishRound(uint256 winningBucketId, int256 offset, int256 price, uint256 winnings);\n\n    /*\n    @param _startingValue starting value of the asset\n    @param _increment the increment used for each bucket\n    @param _initialMinPrice initial minimum share price for empty buckets\n    @param _baseToken the token that will be used for minting and burning shares\n    @param _oracle oracle used for price feeds\n    */\n    constructor(\n        uint256 _startingValue,\n        uint256 _increment,\n        uint256 _initialMinPrice,\n        address _baseToken,\n        address _oracle\n    ) {\n        startingValue = _startingValue;\n        increment = _increment;\n        initialMinPrice = _initialMinPrice;\n        lastRoundTimestamp = block.timestamp;\n        baseToken = IERC20(_baseToken);\n        oracle = AggregatorV3Interface(_oracle);\n    }\n\n    /*\n    @notice Calculates the deterministic id of a bucket based on starting parameters and a given value.\n    The id is calculated by finding the offset from the starting value and calculating hash of\n    initialValue, valueIncrement and found offset.\n\n    @dev The algorithm is rather simple.\n    Let's assume that\n    - S is the initialValue\n    - I is the valueIncrement\n    - V is value\n\n    First we need to round the value, so we divide and multiply by I\n    Rounded = (V / I) * I (I used brackets to note ethat V / I will return an int and that then this will be multiplied by I again)\n\n    Once we have this rounded value we have to calculate the offset:\n    - if V < S then the offset will be negative, so we cannot use uint256 but because we need to enforce parameters as uint256 then we change the order\n      of the parameters. In this case we do (-1 * (S - Rounded)) / I\n    - if V >= S then the offset will be positive, so we can just do (Rounded - S) / I\n\n    Having all those values we can now calculate the id by hashing the three parameters: S, I and found offset\n\n    @param value value for which bucket id has to be found\n\n    @return bucket id based on parameters\n    */\n    function getBucketId(uint256 value) external view returns (uint256 bucketId) {\n        (, bucketId) = _getBucketIdAndOffset(value);\n    }\n\n    function _getBucketIdAndOffset(uint256 value) internal view returns (int256 offset, uint256 bucketId) {\n        uint256 rounded = value.div(increment).mul(increment);\n        if (value < startingValue) {\n            offset = -1 * int256(startingValue.sub(rounded).div(increment));\n        } else {\n            offset = int256(rounded.sub(startingValue).div(increment));\n        }\n        bucketId = _determineBucketIdForOffset(offset);\n    }\n\n    function _determineBucketIdForOffset(int256 offset) internal view returns (uint256) {\n        return uint256(keccak256(abi.encode(startingValue, increment, offset)));\n    }\n\n    /*\n    @notice Allows to mint new shares in exchange for tokens.\n\n    @param to address to which minted shares should be assigned\n    @param bucket bucket in which to mint shares\n    @param amountOutShares amount of shares to mint\n    */\n    function mintShares(\n        address to,\n        uint256 bucket,\n        uint256 amountOutShares\n    ) external {\n        require(to != address(0), \"Cannot mint to empty address\");\n        require(amountOutShares > 0, \"amountOutShares must not be zero\");\n\n        (uint256 total, uint256 fee) = _getSharesAmountIn(bucket, amountOutShares);\n        \n        baseToken.transferFrom(to, address(this), total);\n\n        _reserves[bucket] += (total - fee);\n        _totalShares[bucket] += amountOutShares;\n        _shares[bucket][to] += amountOutShares;\n        accumulatedFees += fee;\n\n        emit Mint(to, bucket, amountOutShares, total);\n    }\n\n    /*\n    @notice Allows to burn shares and receive their token value back.\n\n    @param to address to which funds from burning shares should be transferred\n    @param bucket bucket in which to burn shares\n    @param amountInShares amount of shares to burn\n    */\n    function burnShares(\n        address to,\n        uint256 bucket,\n        uint256 amountInShares\n    ) external {\n        require(to != address(0), \"Cannot mint to empty address\");\n        require(_shares[bucket][to] >= amountInShares, \"Not enough shares\");\n\n        (uint256 total, uint256 fee) = _getSharesAmountIn(bucket, amountInShares);\n        uint256 value = total - fee;\n\n        _reserves[bucket] -= value;\n        _totalShares[bucket] -= amountInShares;\n        _shares[bucket][to] -= amountInShares;\n        baseToken.transfer(to, value);\n\n        emit Burn(to, bucket, amountInShares, value);\n    }\n\n    /*\n    @notice Calculates how many tokens have to be spent to obtain amountOut shares.\n\n    @param bucket the bucket to use for calculations\n    @param amountOut expected amount of shares to buy\n\n    @return the amount of tokens needed to obtain amountOut shares\n    */\n    function getSharesAmountIn(uint256 bucket, uint256 amountOut) external view returns (uint256 amountIn) {\n        (amountIn, ) = _getSharesAmountIn(bucket, amountOut);\n    }\n\n    function _getSharesAmountIn(uint256 bucket, uint256 amountOut) internal view returns (uint256 amountIn, uint256 fee) {\n        require(amountOut > 0, \"Insufficient output amount\");\n        uint256 basePrice;\n        if (_totalShares[bucket] == 0) {\n            basePrice = initialMinPrice.mul(amountOut);\n        } else {\n            basePrice = _reserves[bucket].div(_totalShares[bucket]).mul(amountOut);\n        }\n        fee = basePrice.mul(feeNumerator).div(feeDenominator);\n        amountIn = basePrice + fee;\n    }\n\n    /*\n    @notice returns the amount of shares one can buy with specified amount of tokens\n    \n    @param bucket the bucket to use for calculation\n    @param amountIn desired amount to spend\n\n    @return the amount of shares that can be obtained for amountIn tokens\n    */\n    function getSharesAmountOut(uint256 bucket, uint256 amountIn) external view returns (uint256) {\n        return _getSharesAmountOut(bucket, amountIn);\n    }\n\n    function _getSharesAmountOut(uint256 bucket, uint256 amountIn) internal view returns (uint256) {\n        if (amountIn == 0) {\n            return 0;\n        }\n\n        uint256 price = (_totalShares[bucket] == 0) ? initialMinPrice : _reserves[bucket].div(_totalShares[bucket]);\n        return amountIn.mul(feeDenominator - feeNumerator).div(feeDenominator).div(price);\n    }\n\n    /*\n    @notice Finishes a round by selecting a winning bucket using an external oracle. After selecting\n    the winning bucket funds from losing buckets are redistributed so that losing buckets lose token reserves\n    which are then added to the token reserves in the winning bucket.\n\n    Problems:\n    - Should we use only block.timestamp or maybe verify with oracle's timestamps too?\n    */\n    function finishRound() external onlyOwner {\n        require(lastRoundTimestamp + roundDuration <= block.timestamp, \"Round is still in progress\");\n        (, int256 price, , , ) = oracle.latestRoundData();\n        uint8 decimals = oracle.decimals();\n        (int256 offset, uint256 winningBucketId) = _getBucketIdAndOffset(uint256(price).mul(10**decimals));\n        uint256 winnings = 0;\n        int16 _maxDistance = int16(maxDistance);\n        for (int256 i = offset - _maxDistance; i <= offset + _maxDistance; i++) {\n            if (offset == i) {\n                continue;\n            } else {\n                uint256 distance = uint256(offset - i < 0 ? i - offset : offset - i);\n                uint256 losingBucketId = _determineBucketIdForOffset(offset + i);\n                uint256 bucketToll = _reserves[losingBucketId].mul(distance * tollNumerator).div(tollDenominator);\n                _reserves[losingBucketId] -= bucketToll;\n                winnings += bucketToll;\n            }\n        }\n        _reserves[winningBucketId] += winnings;\n        lastRoundTimestamp = block.timestamp;\n\n        emit FinishRound(winningBucketId, offset, price, winnings);\n    }\n\n    /*\n    @notice Swaps all shares from one bucket to shares in another bucket.\n    Shares in first bucket are burnt virtually so that the received token amount can then be used to virtually mint\n    shares in the second bucket. Minting includes regular fee.\n    If there are leftover tokens they are transferred to the swapper account.\n\n    @param swapper the account which wants to swap shares\n    @param bucketFrom bucket that should burn shares\n    @param bucketTo bucket where shares should be minted\n    */\n    function swap(\n        address swapper,\n        uint256 bucketFrom,\n        uint256 bucketTo\n    ) external {\n        require(_shares[bucketFrom][swapper] > 0, \"No owned shares in source bucket\");\n\n        //calculate the value of all shares of the swapper in the source bucket\n        (uint256 sourceTotal, uint256 sourceFee) = _getSharesAmountIn(bucketFrom, _shares[bucketFrom][swapper]);\n        uint256 sourceValue = sourceTotal - sourceFee;\n\n        //calculate the amount of shares swapper is able to buy in the dest bucket with the funds available from \"burning\" shares in source bucket\n        uint256 amountOut = _getSharesAmountOut(bucketTo, sourceValue);\n        (uint256 amountIn, uint256 destFee) = _getSharesAmountIn(bucketTo, amountOut);\n\n        //updates states of the buckets\n        _reserves[bucketFrom] -= sourceValue;\n        _totalShares[bucketFrom] -= _shares[bucketFrom][swapper];\n        _shares[bucketFrom][swapper] = 0;\n\n        _reserves[bucketTo] += amountIn - destFee;\n        _totalShares[bucketTo] += amountOut;\n        _shares[bucketTo][swapper] += amountOut;\n        accumulatedFees += destFee;\n\n        if (sourceValue - amountIn > 0) {\n            baseToken.transfer(swapper, sourceValue - amountIn);\n        }\n\n        emit Swap(swapper, bucketFrom, bucketTo);\n    }\n\n    /*\n    @notice Returns the number of shares owned by the account in a bucket.\n\n    @param bucket the bucket id\n    @param account the account \n    \n    @return balance of shares held in a bucket by the account\n    */\n    function balanceOf(uint256 bucket, address account) external view returns (uint256) {\n        return _shares[bucket][account];\n    }\n\n    /*\n    @notice Returns the total amount of shares in a bucket.\n\n    @param bucket the bucket id\n\n    @return total shares in a bucket\n    */\n    function totalShares(uint256 bucket) external view returns (uint256) {\n        return _totalShares[bucket];\n    }\n\n    /*\n    @notice Returns the total token reserves in a bucket.\n\n    @param bucket the bucket id\n\n    @return total token reserves in a bucket\n    */\n    function reserves(uint256 bucket) external view returns (uint256) {\n        return _reserves[bucket];\n    }\n\n    /*\n    @notice Allows withdrawal of accumulated fees.\n\n    @param to address to withdraw accumulated fees to\n    */\n    function withdrawFees(address to) external onlyOwner {\n        withdraw(baseToken, to, accumulatedFees);\n        accumulatedFees = 0;\n    }\n\n    function setFee(uint16 numerator, uint16 denominator) external onlyOwner {\n        require(denominator > 0, \"Fee denominator must not be zero\");\n        feeNumerator = numerator;\n        feeDenominator = denominator;\n    }\n\n    function setRoundDuration(uint256 _roundDuration) external onlyOwner {\n        require(_roundDuration > 0, \"Round duration must not be zero\");\n        roundDuration = _roundDuration;\n    }\n\n    function setMaxDistance(uint16 _maxDistance) external onlyOwner {\n        require(_maxDistance > 0, \"Max distance must not be zero\");\n        maxDistance = _maxDistance;\n    }\n\n    function setToll(uint16 numerator, uint16 denominator) external onlyOwner {\n        require(denominator > 0, \"Toll denominator must not be zero\");\n        tollNumerator = numerator;\n        tollDenominator = denominator;\n    }\n}\n",
  "sourcePath": "/Users/angelsatorresalmenara/betting-smart-contract/contracts/Yield.sol",
  "compiler": {
    "name": "solc",
    "version": "0.8.4+commit.c7e474f2.Emscripten.clang"
  },
  "schemaVersion": "3.4.2",
  "updatedAt": "2021-08-23T22:58:12.999Z",
  "networkType": "ethereum",
  "devdoc": {
    "kind": "dev",
    "methods": {
      "owner()": {
        "details": "Returns the address of the current owner."
      },
      "renounceOwnership()": {
        "details": "Leaves the contract without owner. It will not be possible to call `onlyOwner` functions anymore. Can only be called by the current owner. NOTE: Renouncing ownership will leave the contract without an owner, thereby removing any functionality that is only available to the owner."
      },
      "transferOwnership(address)": {
        "details": "Transfers ownership of the contract to a new account (`newOwner`). Can only be called by the current owner."
      }
    },
    "version": 1
  },
  "userdoc": {
    "kind": "user",
    "methods": {},
    "version": 1
  }
}