{
  "address": "0xc0D020f1ce936A46DBfDA40a3A2982e2566B7736",
  "abi": [
    {
      "inputs": [
        {
          "internalType": "address",
          "name": "nftAuction_",
          "type": "address"
        }
      ],
      "stateMutability": "nonpayable",
      "type": "constructor"
    },
    {
      "anonymous": false,
      "inputs": [
        {
          "indexed": true,
          "internalType": "address",
          "name": "collection",
          "type": "address"
        },
        {
          "indexed": true,
          "internalType": "uint256",
          "name": "nftId",
          "type": "uint256"
        },
        {
          "indexed": false,
          "internalType": "address",
          "name": "auctionContract",
          "type": "address"
        },
        {
          "indexed": false,
          "internalType": "uint256",
          "name": "openingBid",
          "type": "uint256"
        }
      ],
      "name": "AuctionStarted",
      "type": "event"
    },
    {
      "anonymous": false,
      "inputs": [
        {
          "indexed": true,
          "internalType": "bytes32",
          "name": "role",
          "type": "bytes32"
        },
        {
          "indexed": true,
          "internalType": "bytes32",
          "name": "previousAdminRole",
          "type": "bytes32"
        },
        {
          "indexed": true,
          "internalType": "bytes32",
          "name": "newAdminRole",
          "type": "bytes32"
        }
      ],
      "name": "RoleAdminChanged",
      "type": "event"
    },
    {
      "anonymous": false,
      "inputs": [
        {
          "indexed": true,
          "internalType": "bytes32",
          "name": "role",
          "type": "bytes32"
        },
        {
          "indexed": true,
          "internalType": "address",
          "name": "account",
          "type": "address"
        },
        {
          "indexed": true,
          "internalType": "address",
          "name": "sender",
          "type": "address"
        }
      ],
      "name": "RoleGranted",
      "type": "event"
    },
    {
      "anonymous": false,
      "inputs": [
        {
          "indexed": true,
          "internalType": "bytes32",
          "name": "role",
          "type": "bytes32"
        },
        {
          "indexed": true,
          "internalType": "address",
          "name": "account",
          "type": "address"
        },
        {
          "indexed": true,
          "internalType": "address",
          "name": "sender",
          "type": "address"
        }
      ],
      "name": "RoleRevoked",
      "type": "event"
    },
    {
      "inputs": [],
      "name": "AUCTION",
      "outputs": [
        {
          "internalType": "bytes32",
          "name": "",
          "type": "bytes32"
        }
      ],
      "stateMutability": "view",
      "type": "function"
    },
    {
      "inputs": [],
      "name": "COLLECTION_MANAGER",
      "outputs": [
        {
          "internalType": "bytes32",
          "name": "",
          "type": "bytes32"
        }
      ],
      "stateMutability": "view",
      "type": "function"
    },
    {
      "inputs": [],
      "name": "DEFAULT_ADMIN_ROLE",
      "outputs": [
        {
          "internalType": "bytes32",
          "name": "",
          "type": "bytes32"
        }
      ],
      "stateMutability": "view",
      "type": "function"
    },
    {
      "inputs": [],
      "name": "DEPLOYER",
      "outputs": [
        {
          "internalType": "bytes32",
          "name": "",
          "type": "bytes32"
        }
      ],
      "stateMutability": "view",
      "type": "function"
    },
    {
      "inputs": [
        {
          "internalType": "bytes32",
          "name": "role",
          "type": "bytes32"
        }
      ],
      "name": "getRoleAdmin",
      "outputs": [
        {
          "internalType": "bytes32",
          "name": "",
          "type": "bytes32"
        }
      ],
      "stateMutability": "view",
      "type": "function"
    },
    {
      "inputs": [
        {
          "internalType": "bytes32",
          "name": "role",
          "type": "bytes32"
        },
        {
          "internalType": "address",
          "name": "account",
          "type": "address"
        }
      ],
      "name": "grantRole",
      "outputs": [],
      "stateMutability": "nonpayable",
      "type": "function"
    },
    {
      "inputs": [
        {
          "internalType": "bytes32",
          "name": "role",
          "type": "bytes32"
        },
        {
          "internalType": "address",
          "name": "account",
          "type": "address"
        }
      ],
      "name": "hasRole",
      "outputs": [
        {
          "internalType": "bool",
          "name": "",
          "type": "bool"
        }
      ],
      "stateMutability": "view",
      "type": "function"
    },
    {
      "inputs": [
        {
          "internalType": "address",
          "name": "protocol_",
          "type": "address"
        },
        {
          "internalType": "address",
          "name": "router_",
          "type": "address"
        }
      ],
      "name": "initialize",
      "outputs": [],
      "stateMutability": "nonpayable",
      "type": "function"
    },
    {
      "inputs": [],
      "name": "protocol",
      "outputs": [
        {
          "internalType": "contract ProtocolParameters",
          "name": "",
          "type": "address"
        }
      ],
      "stateMutability": "view",
      "type": "function"
    },
    {
      "inputs": [
        {
          "internalType": "address",
          "name": "collection_",
          "type": "address"
        },
        {
          "internalType": "uint256",
          "name": "nftId_",
          "type": "uint256"
        },
        {
          "internalType": "address",
          "name": "newOwner_",
          "type": "address"
        }
      ],
      "name": "reassignNFT",
      "outputs": [],
      "stateMutability": "nonpayable",
      "type": "function"
    },
    {
      "inputs": [
        {
          "internalType": "bytes32",
          "name": "role",
          "type": "bytes32"
        },
        {
          "internalType": "address",
          "name": "account",
          "type": "address"
        }
      ],
      "name": "renounceRole",
      "outputs": [],
      "stateMutability": "nonpayable",
      "type": "function"
    },
    {
      "inputs": [
        {
          "internalType": "bytes32",
          "name": "role",
          "type": "bytes32"
        },
        {
          "internalType": "address",
          "name": "account",
          "type": "address"
        }
      ],
      "name": "revokeRole",
      "outputs": [],
      "stateMutability": "nonpayable",
      "type": "function"
    },
    {
      "inputs": [],
      "name": "router",
      "outputs": [
        {
          "internalType": "contract SyntheticProtocolRouter",
          "name": "",
          "type": "address"
        }
      ],
      "stateMutability": "view",
      "type": "function"
    },
    {
      "inputs": [
        {
          "internalType": "address",
          "name": "collection_",
          "type": "address"
        },
        {
          "internalType": "uint256",
          "name": "nftId_",
          "type": "uint256"
        },
        {
          "internalType": "uint256",
          "name": "openingBid_",
          "type": "uint256"
        }
      ],
      "name": "startAuction",
      "outputs": [],
      "stateMutability": "nonpayable",
      "type": "function"
    },
    {
      "inputs": [
        {
          "internalType": "bytes4",
          "name": "interfaceId",
          "type": "bytes4"
        }
      ],
      "name": "supportsInterface",
      "outputs": [
        {
          "internalType": "bool",
          "name": "",
          "type": "bool"
        }
      ],
      "stateMutability": "view",
      "type": "function"
    },
    {
      "inputs": [
        {
          "internalType": "uint256",
          "name": "nftId_",
          "type": "uint256"
        }
      ],
      "name": "whitelistNFT",
      "outputs": [],
      "stateMutability": "nonpayable",
      "type": "function"
    }
  ],
  "transactionHash": "0xb32702f53809554074c4fb15d046403d8a35a7f0dda8474f6889023e8fcddc7f",
  "args": [
    "0xC57c47E9F5432574f1B93e4c0EED88E87a7B619a"
  ],
  "solcInputHash": "dbbc68a2ad62d52c90add900817d9432",
  "bytecode": "0x60a060405234801561001057600080fd5b50604051620013f1380380620013f18339810160408190526100319161011f565b6001600160601b0319606082901b1660805261006d7f503cf060389b91af8851125bd70ce66d16d12330718b103fc7674ef6d27e70c933610073565b5061014d565b61007d8282610081565b5050565b6000828152602081815260408083206001600160a01b038516845290915290205460ff1661007d576000828152602081815260408083206001600160a01b03851684529091529020805460ff191660011790556100db3390565b6001600160a01b0316816001600160a01b0316837f2f8788117e7eff1d82e926ec794901d17c78024a50270940304540a733656f0d60405160405180910390a45050565b600060208284031215610130578081fd5b81516001600160a01b0381168114610146578182fd5b9392505050565b60805160601c6112856200016c600039600061075001526112856000f3fe608060405234801561001057600080fd5b50600436106101005760003560e01c806363779c7411610097578063a217fddf11610066578063a217fddf14610264578063c1b8411a1461026c578063d547741f14610293578063f887ea40146102a657600080fd5b806363779c74146101e65780638ce744261461020d5780638e1af0f41461023e57806391d148541461025157600080fd5b80632f2ff15d116100d35780632f2ff15d1461019a57806336568abe146101ad578063485cc955146101c057806356dd4755146101d357600080fd5b806301ffc9a7146101055780630e61f93f1461012d578063248a9ca3146101625780632d7f68ae14610185575b600080fd5b6101186101133660046110bb565b6102b9565b60405190151581526020015b60405180910390f35b6101547f37f0a33db78f4b8b1fc9993513f501082a3b9277a40f61dd84f51f2dd2bd7eaf81565b604051908152602001610124565b61015461017036600461107f565b60009081526020819052604090206001015490565b61019861019336600461107f565b6102f0565b005b6101986101a8366004611097565b610342565b6101986101bb366004611097565b61036d565b6101986101ce366004610fb2565b6103f0565b6101986101e136600461102b565b61051c565b6101547f2a86bfecab7c1dc1a00b694d14a5a3c91a3ce748c12f853f875c4c7b4b254eb781565b600154610226906201000090046001600160a01b031681565b6040516001600160a01b039091168152602001610124565b61019861024c366004610fea565b610ad7565b61011861025f366004611097565b610b6a565b610154600081565b6101547f503cf060389b91af8851125bd70ce66d16d12330718b103fc7674ef6d27e70c981565b6101986102a1366004611097565b610b93565b600254610226906001600160a01b031681565b60006001600160e01b03198216637965db0b60e01b14806102ea57506301ffc9a760e01b6001600160e01b03198316145b92915050565b7f37f0a33db78f4b8b1fc9993513f501082a3b9277a40f61dd84f51f2dd2bd7eaf61031b8133610bb9565b5033600090815260036020908152604080832093835292905220805460ff19166001179055565b60008281526020819052604090206001015461035e8133610bb9565b6103688383610c1d565b505050565b6001600160a01b03811633146103e25760405162461bcd60e51b815260206004820152602f60248201527f416363657373436f6e74726f6c3a2063616e206f6e6c792072656e6f756e636560448201526e103937b632b9903337b91039b2b63360891b60648201526084015b60405180910390fd5b6103ec8282610ca1565b5050565b600154610100900460ff1680610409575060015460ff16155b61046c5760405162461bcd60e51b815260206004820152602e60248201527f496e697469616c697a61626c653a20636f6e747261637420697320616c72656160448201526d191e481a5b9a5d1a585b1a5e995960921b60648201526084016103d9565b600154610100900460ff1615801561048e576001805461ffff19166101011790555b7f503cf060389b91af8851125bd70ce66d16d12330718b103fc7674ef6d27e70c96104b98133610bb9565b6001805462010000600160b01b031916620100006001600160a01b038781169190910291909117909155600280546001600160a01b031916918516919091179055610505600084610d06565b508015610368576001805461ff0019169055505050565b6001600160a01b038316600090815260036020908152604080832085845290915290205460ff1661058f5760405162461bcd60e51b815260206004820152601860248201527f546f6b656e2063616e27742062652061756374696f6e6564000000000000000060448201526064016103d9565b69152d02c7e14af68000008110156105df5760405162461bcd60e51b81526020600482015260136024820152724f70656e696e672062696420746f6f206c6f7760681b60448201526064016103d9565b60025460405163c3e7e12d60e01b81526001600160a01b038581166004830152602482018590529091169063c3e7e12d9060440160206040518083038186803b15801561062b57600080fd5b505afa15801561063f573d6000803e3d6000fd5b505050506040513d601f19601f82011682018060405250810190610663919061105f565b6106a65760405162461bcd60e51b81526020600482015260146024820152732737b7103932b3b4b9ba32b932b2103a37b5b2b760611b60448201526064016103d9565b6001600160a01b038381166000818152600360209081526040808320878452909152808220805460ff191690556002549051637546d98560e01b8152600481019390935290921690637546d9859060240160206040518083038186803b15801561070f57600080fd5b505afa158015610723573d6000803e3d6000fd5b505050506040513d601f19601f820116820180604052508101906107479190610f96565b905060006107747f0000000000000000000000000000000000000000000000000000000000000000610d10565b600254604051630509f64560e41b81526001600160a01b0388811660048301529293508284169263d85b9fb892889287929091169063509f64509060240160206040518083038186803b1580156107ca57600080fd5b505afa1580156107de573d6000803e3d6000fd5b505050506040513d601f19601f820116820180604052508101906108029190610f96565b60025460405163056f4f1f60e41b81526001600160a01b038c81166004830152909116906356f4f1f09060240160206040518083038186803b15801561084757600080fd5b505afa15801561085b573d6000803e3d6000fd5b505050506040513d601f19601f8201168201806040525081019061087f9190610f96565b88600160029054906101000a90046001600160a01b03166001600160a01b0316630cbf54c86040518163ffffffff1660e01b815260040160206040518083038186803b1580156108ce57600080fd5b505afa1580156108e2573d6000803e3d6000fd5b505050506040513d601f19601f8201168201806040525081019061090691906110e3565b6040516001600160e01b031960e089901b16815260048101969096526001600160a01b039485166024870152928416604486015292166064840152608483019190915260a48201523360c482015260e401600060405180830381600087803b15801561097157600080fd5b505af1158015610985573d6000803e3d6000fd5b505050506109b37f2a86bfecab7c1dc1a00b694d14a5a3c91a3ce748c12f853f875c4c7b4b254eb782610d06565b6040516323b872dd60e01b81523360048201526001600160a01b038281166024830152604482018590528316906323b872dd90606401602060405180830381600087803b158015610a0357600080fd5b505af1158015610a17573d6000803e3d6000fd5b505050506040513d601f19601f82011682018060405250810190610a3b919061105f565b610a875760405162461bcd60e51b815260206004820152601760248201527f556e61626c6520746f207472616e73666572206a6f747300000000000000000060448201526064016103d9565b604080516001600160a01b038381168252602082018690528692908816917f3f56989faf73e0fa48db704c98688b152de2669b2c98b59b7e6c22a7998fe5f9910160405180910390a35050505050565b7f2a86bfecab7c1dc1a00b694d14a5a3c91a3ce748c12f853f875c4c7b4b254eb7610b028133610bb9565b60405163016bcb2960e11b8152600481018490526001600160a01b0383811660248301528516906302d7965290604401600060405180830381600087803b158015610b4c57600080fd5b505af1158015610b60573d6000803e3d6000fd5b5050505050505050565b6000918252602082815260408084206001600160a01b0393909316845291905290205460ff1690565b600082815260208190526040902060010154610baf8133610bb9565b6103688383610ca1565b610bc38282610b6a565b6103ec57610bdb816001600160a01b03166014610dad565b610be6836020610dad565b604051602001610bf79291906110fb565b60408051601f198184030181529082905262461bcd60e51b82526103d991600401611170565b610c278282610b6a565b6103ec576000828152602081815260408083206001600160a01b03851684529091529020805460ff19166001179055610c5d3390565b6001600160a01b0316816001600160a01b0316837f2f8788117e7eff1d82e926ec794901d17c78024a50270940304540a733656f0d60405160405180910390a45050565b610cab8282610b6a565b156103ec576000828152602081815260408083206001600160a01b0385168085529252808320805460ff1916905551339285917ff6391f5c32d9c69d2a47ea670b442974b53935d1edc7fd64eb21e047a839171b9190a45050565b6103ec8282610c1d565b6000604051733d602d80600a3d3981f3363d3d373d3d3d363d7360601b81528260601b60148201526e5af43d82803e903d91602b57fd5bf360881b60288201526037816000f09150506001600160a01b038116610da85760405162461bcd60e51b8152602060048201526016602482015275115490cc4c4d8dce8818dc99585d194819985a5b195960521b60448201526064016103d9565b919050565b60606000610dbc8360026111bb565b610dc79060026111a3565b67ffffffffffffffff811115610ded57634e487b7160e01b600052604160045260246000fd5b6040519080825280601f01601f191660200182016040528015610e17576020820181803683370190505b509050600360fc1b81600081518110610e4057634e487b7160e01b600052603260045260246000fd5b60200101906001600160f81b031916908160001a905350600f60fb1b81600181518110610e7d57634e487b7160e01b600052603260045260246000fd5b60200101906001600160f81b031916908160001a9053506000610ea18460026111bb565b610eac9060016111a3565b90505b6001811115610f40576f181899199a1a9b1b9c1cb0b131b232b360811b85600f1660108110610eee57634e487b7160e01b600052603260045260246000fd5b1a60f81b828281518110610f1257634e487b7160e01b600052603260045260246000fd5b60200101906001600160f81b031916908160001a90535060049490941c93610f398161120a565b9050610eaf565b508315610f8f5760405162461bcd60e51b815260206004820181905260248201527f537472696e67733a20686578206c656e67746820696e73756666696369656e7460448201526064016103d9565b9392505050565b600060208284031215610fa7578081fd5b8151610f8f81611237565b60008060408385031215610fc4578081fd5b8235610fcf81611237565b91506020830135610fdf81611237565b809150509250929050565b600080600060608486031215610ffe578081fd5b833561100981611237565b925060208401359150604084013561102081611237565b809150509250925092565b60008060006060848603121561103f578283fd5b833561104a81611237565b95602085013595506040909401359392505050565b600060208284031215611070578081fd5b81518015158114610f8f578182fd5b600060208284031215611090578081fd5b5035919050565b600080604083850312156110a9578182fd5b823591506020830135610fdf81611237565b6000602082840312156110cc578081fd5b81356001600160e01b031981168114610f8f578182fd5b6000602082840312156110f4578081fd5b5051919050565b7f416363657373436f6e74726f6c3a206163636f756e74200000000000000000008152600083516111338160178501602088016111da565b7001034b99036b4b9b9b4b733903937b6329607d1b60179184019182015283516111648160288401602088016111da565b01602801949350505050565b602081526000825180602084015261118f8160408501602087016111da565b601f01601f19169190910160400192915050565b600082198211156111b6576111b6611221565b500190565b60008160001904831182151516156111d5576111d5611221565b500290565b60005b838110156111f55781810151838201526020016111dd565b83811115611204576000848401525b50505050565b60008161121957611219611221565b506000190190565b634e487b7160e01b600052601160045260246000fd5b6001600160a01b038116811461124c57600080fd5b5056fea26469706673582212208b07d3c115be20a1cf93800fe52b38476a4f7c0364d2fc5e03f959b7c43fe3c364736f6c63430008040033",
  "devdoc": {
    "kind": "dev",
    "methods": {
      "getRoleAdmin(bytes32)": {
        "details": "Returns the admin role that controls `role`. See {grantRole} and {revokeRole}. To change a role's admin, use {_setRoleAdmin}."
      },
      "grantRole(bytes32,address)": {
        "details": "Grants `role` to `account`. If `account` had not been already granted `role`, emits a {RoleGranted} event. Requirements: - the caller must have ``role``'s admin role."
      },
      "hasRole(bytes32,address)": {
        "details": "Returns `true` if `account` has been granted `role`."
      },
      "reassignNFT(address,uint256,address)": {
        "details": "we need to pass the jobSupply here to work well even when the governance      changes this protocol parameter in the middle of the auction"
      },
      "renounceRole(bytes32,address)": {
        "details": "Revokes `role` from the calling account. Roles are often managed via {grantRole} and {revokeRole}: this function's purpose is to provide a mechanism for accounts to lose their privileges if they are compromised (such as when a trusted device is misplaced). If the calling account had been granted `role`, emits a {RoleRevoked} event. Requirements: - the caller must be `account`."
      },
      "revokeRole(bytes32,address)": {
        "details": "Revokes `role` from `account`. If `account` had been granted `role`, emits a {RoleRevoked} event. Requirements: - the caller must have ``role``'s admin role."
      },
      "supportsInterface(bytes4)": {
        "details": "See {IERC165-supportsInterface}."
      }
    },
    "stateVariables": {
      "_nftAuctionImplementation": {
        "details": "the implementation to deploy through minimal proxies"
      }
    },
    "version": 1
  },
  "userdoc": {
    "kind": "user",
    "methods": {},
    "version": 1
  },
  "storageLayout": {
    "storage": [
      {
        "astId": 2284,
        "contract": "contracts/polygon/auctions/AuctionsManager.sol:AuctionsManager",
        "label": "_roles",
        "offset": 0,
        "slot": "0",
        "type": "t_mapping(t_bytes32,t_struct(RoleData)2279_storage)"
      },
      {
        "astId": 5456,
        "contract": "contracts/polygon/auctions/AuctionsManager.sol:AuctionsManager",
        "label": "_initialized",
        "offset": 0,
        "slot": "1",
        "type": "t_bool"
      },
      {
        "astId": 5459,
        "contract": "contracts/polygon/auctions/AuctionsManager.sol:AuctionsManager",
        "label": "_initializing",
        "offset": 1,
        "slot": "1",
        "type": "t_bool"
      },
      {
        "astId": 17418,
        "contract": "contracts/polygon/auctions/AuctionsManager.sol:AuctionsManager",
        "label": "protocol",
        "offset": 2,
        "slot": "1",
        "type": "t_contract(ProtocolParameters)19319"
      },
      {
        "astId": 17421,
        "contract": "contracts/polygon/auctions/AuctionsManager.sol:AuctionsManager",
        "label": "router",
        "offset": 0,
        "slot": "2",
        "type": "t_contract(SyntheticProtocolRouter)17382"
      },
      {
        "astId": 17427,
        "contract": "contracts/polygon/auctions/AuctionsManager.sol:AuctionsManager",
        "label": "_whitelistedTokens",
        "offset": 0,
        "slot": "3",
        "type": "t_mapping(t_address,t_mapping(t_uint256,t_bool))"
      }
    ],
    "types": {
      "t_address": {
        "encoding": "inplace",
        "label": "address",
        "numberOfBytes": "20"
      },
      "t_bool": {
        "encoding": "inplace",
        "label": "bool",
        "numberOfBytes": "1"
      },
      "t_bytes32": {
        "encoding": "inplace",
        "label": "bytes32",
        "numberOfBytes": "32"
      },
      "t_contract(ProtocolParameters)19319": {
        "encoding": "inplace",
        "label": "contract ProtocolParameters",
        "numberOfBytes": "20"
      },
      "t_contract(SyntheticProtocolRouter)17382": {
        "encoding": "inplace",
        "label": "contract SyntheticProtocolRouter",
        "numberOfBytes": "20"
      },
      "t_mapping(t_address,t_bool)": {
        "encoding": "mapping",
        "key": "t_address",
        "label": "mapping(address => bool)",
        "numberOfBytes": "32",
        "value": "t_bool"
      },
      "t_mapping(t_address,t_mapping(t_uint256,t_bool))": {
        "encoding": "mapping",
        "key": "t_address",
        "label": "mapping(address => mapping(uint256 => bool))",
        "numberOfBytes": "32",
        "value": "t_mapping(t_uint256,t_bool)"
      },
      "t_mapping(t_bytes32,t_struct(RoleData)2279_storage)": {
        "encoding": "mapping",
        "key": "t_bytes32",
        "label": "mapping(bytes32 => struct AccessControl.RoleData)",
        "numberOfBytes": "32",
        "value": "t_struct(RoleData)2279_storage"
      },
      "t_mapping(t_uint256,t_bool)": {
        "encoding": "mapping",
        "key": "t_uint256",
        "label": "mapping(uint256 => bool)",
        "numberOfBytes": "32",
        "value": "t_bool"
      },
      "t_struct(RoleData)2279_storage": {
        "encoding": "inplace",
        "label": "struct AccessControl.RoleData",
        "members": [
          {
            "astId": 2276,
            "contract": "contracts/polygon/auctions/AuctionsManager.sol:AuctionsManager",
            "label": "members",
            "offset": 0,
            "slot": "0",
            "type": "t_mapping(t_address,t_bool)"
          },
          {
            "astId": 2278,
            "contract": "contracts/polygon/auctions/AuctionsManager.sol:AuctionsManager",
            "label": "adminRole",
            "offset": 0,
            "slot": "1",
            "type": "t_bytes32"
          }
        ],
        "numberOfBytes": "64"
      },
      "t_uint256": {
        "encoding": "inplace",
        "label": "uint256",
        "numberOfBytes": "32"
      }
    }
  }
}