{
  "contractName": "CopyrightToken",
  "abi": [
    {
      "inputs": [],
      "stateMutability": "nonpayable",
      "type": "constructor"
    },
    {
      "anonymous": false,
      "inputs": [
        {
          "indexed": true,
          "internalType": "address",
          "name": "owner",
          "type": "address"
        },
        {
          "indexed": true,
          "internalType": "address",
          "name": "spender",
          "type": "address"
        },
        {
          "indexed": false,
          "internalType": "uint256",
          "name": "value",
          "type": "uint256"
        }
      ],
      "name": "Approval",
      "type": "event"
    },
    {
      "anonymous": false,
      "inputs": [
        {
          "indexed": false,
          "internalType": "address",
          "name": "account",
          "type": "address"
        }
      ],
      "name": "Paused",
      "type": "event"
    },
    {
      "anonymous": false,
      "inputs": [
        {
          "indexed": true,
          "internalType": "bytes32",
          "name": "role",
          "type": "bytes32"
        },
        {
          "indexed": true,
          "internalType": "bytes32",
          "name": "previousAdminRole",
          "type": "bytes32"
        },
        {
          "indexed": true,
          "internalType": "bytes32",
          "name": "newAdminRole",
          "type": "bytes32"
        }
      ],
      "name": "RoleAdminChanged",
      "type": "event"
    },
    {
      "anonymous": false,
      "inputs": [
        {
          "indexed": true,
          "internalType": "bytes32",
          "name": "role",
          "type": "bytes32"
        },
        {
          "indexed": true,
          "internalType": "address",
          "name": "account",
          "type": "address"
        },
        {
          "indexed": true,
          "internalType": "address",
          "name": "sender",
          "type": "address"
        }
      ],
      "name": "RoleGranted",
      "type": "event"
    },
    {
      "anonymous": false,
      "inputs": [
        {
          "indexed": true,
          "internalType": "bytes32",
          "name": "role",
          "type": "bytes32"
        },
        {
          "indexed": true,
          "internalType": "address",
          "name": "account",
          "type": "address"
        },
        {
          "indexed": true,
          "internalType": "address",
          "name": "sender",
          "type": "address"
        }
      ],
      "name": "RoleRevoked",
      "type": "event"
    },
    {
      "anonymous": false,
      "inputs": [
        {
          "indexed": true,
          "internalType": "address",
          "name": "from",
          "type": "address"
        },
        {
          "indexed": true,
          "internalType": "address",
          "name": "to",
          "type": "address"
        },
        {
          "indexed": false,
          "internalType": "uint256",
          "name": "value",
          "type": "uint256"
        }
      ],
      "name": "Transfer",
      "type": "event"
    },
    {
      "anonymous": false,
      "inputs": [
        {
          "indexed": false,
          "internalType": "address",
          "name": "account",
          "type": "address"
        }
      ],
      "name": "Unpaused",
      "type": "event"
    },
    {
      "inputs": [],
      "name": "DEFAULT_ADMIN_ROLE",
      "outputs": [
        {
          "internalType": "bytes32",
          "name": "",
          "type": "bytes32"
        }
      ],
      "stateMutability": "view",
      "type": "function",
      "constant": true
    },
    {
      "inputs": [],
      "name": "WITHDRAW_MANAGER_ROLE",
      "outputs": [
        {
          "internalType": "bytes32",
          "name": "",
          "type": "bytes32"
        }
      ],
      "stateMutability": "view",
      "type": "function",
      "constant": true
    },
    {
      "inputs": [
        {
          "internalType": "address",
          "name": "owner",
          "type": "address"
        },
        {
          "internalType": "address",
          "name": "spender",
          "type": "address"
        }
      ],
      "name": "allowance",
      "outputs": [
        {
          "internalType": "uint256",
          "name": "",
          "type": "uint256"
        }
      ],
      "stateMutability": "view",
      "type": "function",
      "constant": true
    },
    {
      "inputs": [
        {
          "internalType": "address",
          "name": "spender",
          "type": "address"
        },
        {
          "internalType": "uint256",
          "name": "amount",
          "type": "uint256"
        }
      ],
      "name": "approve",
      "outputs": [
        {
          "internalType": "bool",
          "name": "",
          "type": "bool"
        }
      ],
      "stateMutability": "nonpayable",
      "type": "function"
    },
    {
      "inputs": [
        {
          "internalType": "address",
          "name": "account",
          "type": "address"
        }
      ],
      "name": "balanceOf",
      "outputs": [
        {
          "internalType": "uint256",
          "name": "",
          "type": "uint256"
        }
      ],
      "stateMutability": "view",
      "type": "function",
      "constant": true
    },
    {
      "inputs": [],
      "name": "decimals",
      "outputs": [
        {
          "internalType": "uint8",
          "name": "",
          "type": "uint8"
        }
      ],
      "stateMutability": "view",
      "type": "function",
      "constant": true
    },
    {
      "inputs": [
        {
          "internalType": "address",
          "name": "spender",
          "type": "address"
        },
        {
          "internalType": "uint256",
          "name": "subtractedValue",
          "type": "uint256"
        }
      ],
      "name": "decreaseAllowance",
      "outputs": [
        {
          "internalType": "bool",
          "name": "",
          "type": "bool"
        }
      ],
      "stateMutability": "nonpayable",
      "type": "function"
    },
    {
      "inputs": [
        {
          "internalType": "bytes32",
          "name": "role",
          "type": "bytes32"
        }
      ],
      "name": "getRoleAdmin",
      "outputs": [
        {
          "internalType": "bytes32",
          "name": "",
          "type": "bytes32"
        }
      ],
      "stateMutability": "view",
      "type": "function",
      "constant": true
    },
    {
      "inputs": [
        {
          "internalType": "bytes32",
          "name": "role",
          "type": "bytes32"
        },
        {
          "internalType": "address",
          "name": "account",
          "type": "address"
        }
      ],
      "name": "grantRole",
      "outputs": [],
      "stateMutability": "nonpayable",
      "type": "function"
    },
    {
      "inputs": [
        {
          "internalType": "bytes32",
          "name": "role",
          "type": "bytes32"
        },
        {
          "internalType": "address",
          "name": "account",
          "type": "address"
        }
      ],
      "name": "hasRole",
      "outputs": [
        {
          "internalType": "bool",
          "name": "",
          "type": "bool"
        }
      ],
      "stateMutability": "view",
      "type": "function",
      "constant": true
    },
    {
      "inputs": [
        {
          "internalType": "address",
          "name": "spender",
          "type": "address"
        },
        {
          "internalType": "uint256",
          "name": "addedValue",
          "type": "uint256"
        }
      ],
      "name": "increaseAllowance",
      "outputs": [
        {
          "internalType": "bool",
          "name": "",
          "type": "bool"
        }
      ],
      "stateMutability": "nonpayable",
      "type": "function"
    },
    {
      "inputs": [],
      "name": "paused",
      "outputs": [
        {
          "internalType": "bool",
          "name": "",
          "type": "bool"
        }
      ],
      "stateMutability": "view",
      "type": "function",
      "constant": true
    },
    {
      "inputs": [
        {
          "internalType": "bytes32",
          "name": "role",
          "type": "bytes32"
        },
        {
          "internalType": "address",
          "name": "account",
          "type": "address"
        }
      ],
      "name": "renounceRole",
      "outputs": [],
      "stateMutability": "nonpayable",
      "type": "function"
    },
    {
      "inputs": [
        {
          "internalType": "bytes32",
          "name": "role",
          "type": "bytes32"
        },
        {
          "internalType": "address",
          "name": "account",
          "type": "address"
        }
      ],
      "name": "revokeRole",
      "outputs": [],
      "stateMutability": "nonpayable",
      "type": "function"
    },
    {
      "inputs": [
        {
          "internalType": "bytes4",
          "name": "interfaceId",
          "type": "bytes4"
        }
      ],
      "name": "supportsInterface",
      "outputs": [
        {
          "internalType": "bool",
          "name": "",
          "type": "bool"
        }
      ],
      "stateMutability": "view",
      "type": "function",
      "constant": true
    },
    {
      "inputs": [],
      "name": "totalSupply",
      "outputs": [
        {
          "internalType": "uint256",
          "name": "",
          "type": "uint256"
        }
      ],
      "stateMutability": "view",
      "type": "function",
      "constant": true
    },
    {
      "inputs": [
        {
          "internalType": "string",
          "name": "_name",
          "type": "string"
        },
        {
          "internalType": "string",
          "name": "_symbol",
          "type": "string"
        },
        {
          "internalType": "address",
          "name": "manager",
          "type": "address"
        }
      ],
      "name": "initialize",
      "outputs": [],
      "stateMutability": "nonpayable",
      "type": "function"
    },
    {
      "inputs": [],
      "name": "pause",
      "outputs": [],
      "stateMutability": "nonpayable",
      "type": "function"
    },
    {
      "inputs": [],
      "name": "unpause",
      "outputs": [],
      "stateMutability": "nonpayable",
      "type": "function"
    },
    {
      "inputs": [
        {
          "internalType": "address",
          "name": "to",
          "type": "address"
        },
        {
          "internalType": "uint256",
          "name": "amount",
          "type": "uint256"
        }
      ],
      "name": "mint",
      "outputs": [],
      "stateMutability": "nonpayable",
      "type": "function"
    },
    {
      "inputs": [
        {
          "internalType": "address",
          "name": "to",
          "type": "address"
        },
        {
          "internalType": "uint256",
          "name": "amount",
          "type": "uint256"
        }
      ],
      "name": "burn",
      "outputs": [],
      "stateMutability": "nonpayable",
      "type": "function"
    },
    {
      "inputs": [
        {
          "internalType": "address",
          "name": "recipient",
          "type": "address"
        },
        {
          "internalType": "uint256",
          "name": "amount",
          "type": "uint256"
        }
      ],
      "name": "transfer",
      "outputs": [
        {
          "internalType": "bool",
          "name": "",
          "type": "bool"
        }
      ],
      "stateMutability": "nonpayable",
      "type": "function"
    },
    {
      "inputs": [
        {
          "internalType": "address",
          "name": "sender",
          "type": "address"
        },
        {
          "internalType": "address",
          "name": "recipient",
          "type": "address"
        },
        {
          "internalType": "uint256",
          "name": "amount",
          "type": "uint256"
        }
      ],
      "name": "transferFrom",
      "outputs": [
        {
          "internalType": "bool",
          "name": "",
          "type": "bool"
        }
      ],
      "stateMutability": "nonpayable",
      "type": "function"
    },
    {
      "inputs": [],
      "name": "name",
      "outputs": [
        {
          "internalType": "string",
          "name": "",
          "type": "string"
        }
      ],
      "stateMutability": "view",
      "type": "function",
      "constant": true
    },
    {
      "inputs": [],
      "name": "symbol",
      "outputs": [
        {
          "internalType": "string",
          "name": "",
          "type": "string"
        }
      ],
      "stateMutability": "view",
      "type": "function",
      "constant": true
    }
  ],
  "bytecode": "0x60806040523480156200001157600080fd5b5060405180606001604052806024815260200162002f3f602491396040518060400160405280600581526020017f70434f505200000000000000000000000000000000000000000000000000000081525081600390805190602001906200007a929190620000b7565b50806004908051906020019062000093929190620000b7565b5050506000600560006101000a81548160ff021916908315150217905550620001cc565b828054620000c59062000167565b90600052602060002090601f016020900481019282620000e9576000855562000135565b82601f106200010457805160ff191683800117855562000135565b8280016001018555821562000135579182015b828111156200013457825182559160200191906001019062000117565b5b50905062000144919062000148565b5090565b5b808211156200016357600081600090555060010162000149565b5090565b600060028204905060018216806200018057607f821691505b602082108114156200019757620001966200019d565b5b50919050565b7f4e487b7100000000000000000000000000000000000000000000000000000000600052602260045260246000fd5b612d6380620001dc6000396000f3fe608060405234801561001057600080fd5b50600436106101735760003560e01c806340c10f19116100de5780639dc29fac11610097578063a9059cbb11610071578063a9059cbb1461044c578063d547741f1461047c578063dd62ed3e14610498578063e1b08619146104c857610173565b80639dc29fac146103e2578063a217fddf146103fe578063a457c2d71461041c57610173565b806340c10f19146103205780635c975abb1461033c57806370a082311461035a5780638456cb591461038a57806391d148541461039457806395d89b41146103c457610173565b8063248a9ca311610130578063248a9ca3146102605780632f2ff15d14610290578063313ce567146102ac57806336568abe146102ca57806339509351146102e65780633f4ba83a1461031657610173565b806301ffc9a71461017857806306fdde03146101a8578063077f224a146101c6578063095ea7b3146101e257806318160ddd1461021257806323b872dd14610230575b600080fd5b610192600480360381019061018d9190611ede565b6104e6565b60405161019f91906122fd565b60405180910390f35b6101b0610560565b6040516101bd9190612333565b60405180910390f35b6101e060048036038101906101db9190611f0b565b6105f2565b005b6101fc60048036038101906101f79190611e31565b610713565b60405161020991906122fd565b60405180910390f35b61021a610731565b6040516102279190612535565b60405180910390f35b61024a60048036038101906102459190611dde565b61073b565b60405161025791906122fd565b60405180910390f35b61027a60048036038101906102759190611e71565b610799565b6040516102879190612318565b60405180910390f35b6102aa60048036038101906102a59190611e9e565b6107b9565b005b6102b46107e2565b6040516102c19190612550565b60405180910390f35b6102e460048036038101906102df9190611e9e565b6107eb565b005b61030060048036038101906102fb9190611e31565b61086e565b60405161030d91906122fd565b60405180910390f35b61031e61091a565b005b61033a60048036038101906103359190611e31565b61093a565b005b61034461095e565b60405161035191906122fd565b60405180910390f35b610374600480360381019061036f9190611d71565b610975565b6040516103819190612535565b60405180910390f35b6103926109bd565b005b6103ae60048036038101906103a99190611e9e565b6109dd565b6040516103bb91906122fd565b60405180910390f35b6103cc610a48565b6040516103d99190612333565b60405180910390f35b6103fc60048036038101906103f79190611e31565b610ada565b005b610406610afe565b6040516104139190612318565b60405180910390f35b61043660048036038101906104319190611e31565b610b05565b60405161044391906122fd565b60405180910390f35b61046660048036038101906104619190611e31565b610bf0565b60405161047391906122fd565b60405180910390f35b61049660048036038101906104919190611e9e565b610c4c565b005b6104b260048036038101906104ad9190611d9e565b610c75565b6040516104bf9190612535565b60405180910390f35b6104d0610cfc565b6040516104dd9190612318565b60405180910390f35b60007f7965db0b000000000000000000000000000000000000000000000000000000007bffffffffffffffffffffffffffffffffffffffffffffffffffffffff1916827bffffffffffffffffffffffffffffffffffffffffffffffffffffffff19161480610559575061055882610d20565b5b9050919050565b60606008805461056f9061275e565b80601f016020809104026020016040519081016040528092919081815260200182805461059b9061275e565b80156105e85780601f106105bd576101008083540402835291602001916105e8565b820191906000526020600020905b8154815290600101906020018083116105cb57829003601f168201915b5050505050905090565b600760019054906101000a900460ff168061061a5750600760009054906101000a900460ff16155b610659576040517f08c379a000000000000000000000000000000000000000000000000000000000815260040161065090612435565b60405180910390fd5b6000600760019054906101000a900460ff1615905080156106ab576001600760016101000a81548160ff0219169083151502179055506001600760006101000a81548160ff0219169083151502179055505b8585600891906106bc929190611c24565b508383600991906106ce929190611c24565b506106dc6000801b33610d8a565b6106e96000801b83610d8a565b801561070b576000600760016101000a81548160ff0219169083151502179055505b505050505050565b6000610727610720610d98565b8484610da0565b6001905092915050565b6000600254905090565b600061074561095e565b15610785576040517f08c379a000000000000000000000000000000000000000000000000000000000815260040161077c90612415565b60405180910390fd5b610790848484610f6b565b90509392505050565b600060066000838152602001908152602001600020600101549050919050565b6107c282610799565b6107d3816107ce610d98565b611063565b6107dd8383611100565b505050565b60006012905090565b6107f3610d98565b73ffffffffffffffffffffffffffffffffffffffff168173ffffffffffffffffffffffffffffffffffffffff1614610860576040517f08c379a0000000000000000000000000000000000000000000000000000000008152600401610857906124f5565b60405180910390fd5b61086a82826111e1565b5050565b600061091061087b610d98565b848460016000610889610d98565b73ffffffffffffffffffffffffffffffffffffffff1673ffffffffffffffffffffffffffffffffffffffff16815260200190815260200160002060008873ffffffffffffffffffffffffffffffffffffffff1673ffffffffffffffffffffffffffffffffffffffff1681526020019081526020016000205461090b9190612592565b610da0565b6001905092915050565b6000801b61092f8161092a610d98565b611063565b6109376112c3565b50565b6000801b61094f8161094a610d98565b611063565b6109598383611365565b505050565b6000600560009054906101000a900460ff16905090565b60008060008373ffffffffffffffffffffffffffffffffffffffff1673ffffffffffffffffffffffffffffffffffffffff168152602001908152602001600020549050919050565b6000801b6109d2816109cd610d98565b611063565b6109da6114c5565b50565b60006006600084815260200190815260200160002060000160008373ffffffffffffffffffffffffffffffffffffffff1673ffffffffffffffffffffffffffffffffffffffff16815260200190815260200160002060009054906101000a900460ff16905092915050565b606060098054610a579061275e565b80601f0160208091040260200160405190810160405280929190818152602001828054610a839061275e565b8015610ad05780601f10610aa557610100808354040283529160200191610ad0565b820191906000526020600020905b815481529060010190602001808311610ab357829003601f168201915b5050505050905090565b6000801b610aef81610aea610d98565b611063565b610af98383611568565b505050565b6000801b81565b60008060016000610b14610d98565b73ffffffffffffffffffffffffffffffffffffffff1673ffffffffffffffffffffffffffffffffffffffff16815260200190815260200160002060008573ffffffffffffffffffffffffffffffffffffffff1673ffffffffffffffffffffffffffffffffffffffff16815260200190815260200160002054905082811015610bd1576040517f08c379a0000000000000000000000000000000000000000000000000000000008152600401610bc8906124d5565b60405180910390fd5b610be5610bdc610d98565b85858403610da0565b600191505092915050565b6000610bfa61095e565b15610c3a576040517f08c379a0000000000000000000000000000000000000000000000000000000008152600401610c3190612415565b60405180910390fd5b610c44838361173f565b905092915050565b610c5582610799565b610c6681610c61610d98565b611063565b610c7083836111e1565b505050565b6000600160008473ffffffffffffffffffffffffffffffffffffffff1673ffffffffffffffffffffffffffffffffffffffff16815260200190815260200160002060008373ffffffffffffffffffffffffffffffffffffffff1673ffffffffffffffffffffffffffffffffffffffff16815260200190815260200160002054905092915050565b7fbe4b8ff2378fafab5b779323935cef89cecb6bffd2e15c86526a218902195a3581565b60007f01ffc9a7000000000000000000000000000000000000000000000000000000007bffffffffffffffffffffffffffffffffffffffffffffffffffffffff1916827bffffffffffffffffffffffffffffffffffffffffffffffffffffffff1916149050919050565b610d948282611100565b5050565b600033905090565b600073ffffffffffffffffffffffffffffffffffffffff168373ffffffffffffffffffffffffffffffffffffffff161415610e10576040517f08c379a0000000000000000000000000000000000000000000000000000000008152600401610e07906124b5565b60405180910390fd5b600073ffffffffffffffffffffffffffffffffffffffff168273ffffffffffffffffffffffffffffffffffffffff161415610e80576040517f08c379a0000000000000000000000000000000000000000000000000000000008152600401610e77906123d5565b60405180910390fd5b80600160008573ffffffffffffffffffffffffffffffffffffffff1673ffffffffffffffffffffffffffffffffffffffff16815260200190815260200160002060008473ffffffffffffffffffffffffffffffffffffffff1673ffffffffffffffffffffffffffffffffffffffff168152602001908152602001600020819055508173ffffffffffffffffffffffffffffffffffffffff168373ffffffffffffffffffffffffffffffffffffffff167f8c5be1e5ebec7d5bd14f71427d1e84f3dd0314c0f7b2291e5b200ac8c7c3b92583604051610f5e9190612535565b60405180910390a3505050565b6000610f7884848461175d565b6000600160008673ffffffffffffffffffffffffffffffffffffffff1673ffffffffffffffffffffffffffffffffffffffff1681526020019081526020016000206000610fc3610d98565b73ffffffffffffffffffffffffffffffffffffffff1673ffffffffffffffffffffffffffffffffffffffff16815260200190815260200160002054905082811015611043576040517f08c379a000000000000000000000000000000000000000000000000000000000815260040161103a90612455565b60405180910390fd5b6110578561104f610d98565b858403610da0565b60019150509392505050565b61106d82826109dd565b6110fc576110928173ffffffffffffffffffffffffffffffffffffffff1660146119de565b6110a08360001c60206119de565b6040516020016110b19291906122a8565b6040516020818303038152906040526040517f08c379a00000000000000000000000000000000000000000000000000000000081526004016110f39190612333565b60405180910390fd5b5050565b61110a82826109dd565b6111dd5760016006600084815260200190815260200160002060000160008373ffffffffffffffffffffffffffffffffffffffff1673ffffffffffffffffffffffffffffffffffffffff16815260200190815260200160002060006101000a81548160ff021916908315150217905550611182610d98565b73ffffffffffffffffffffffffffffffffffffffff168173ffffffffffffffffffffffffffffffffffffffff16837f2f8788117e7eff1d82e926ec794901d17c78024a50270940304540a733656f0d60405160405180910390a45b5050565b6111eb82826109dd565b156112bf5760006006600084815260200190815260200160002060000160008373ffffffffffffffffffffffffffffffffffffffff1673ffffffffffffffffffffffffffffffffffffffff16815260200190815260200160002060006101000a81548160ff021916908315150217905550611264610d98565b73ffffffffffffffffffffffffffffffffffffffff168173ffffffffffffffffffffffffffffffffffffffff16837ff6391f5c32d9c69d2a47ea670b442974b53935d1edc7fd64eb21e047a839171b60405160405180910390a45b5050565b6112cb61095e565b61130a576040517f08c379a000000000000000000000000000000000000000000000000000000000815260040161130190612395565b60405180910390fd5b6000600560006101000a81548160ff0219169083151502179055507f5db9ee0a495bf2e6ff9c91a7834c1ba4fdd244a5e8aa4e537bd38aeae4b073aa61134e610d98565b60405161135b91906122e2565b60405180910390a1565b600073ffffffffffffffffffffffffffffffffffffffff168273ffffffffffffffffffffffffffffffffffffffff1614156113d5576040517f08c379a00000000000000000000000000000000000000000000000000000000081526004016113cc90612515565b60405180910390fd5b6113e160008383611c1a565b80600260008282546113f39190612592565b92505081905550806000808473ffffffffffffffffffffffffffffffffffffffff1673ffffffffffffffffffffffffffffffffffffffff16815260200190815260200160002060008282546114489190612592565b925050819055508173ffffffffffffffffffffffffffffffffffffffff16600073ffffffffffffffffffffffffffffffffffffffff167fddf252ad1be2c89b69c2b068fc378daa952ba7f163c4a11628f55a4df523b3ef836040516114ad9190612535565b60405180910390a36114c160008383611c1f565b5050565b6114cd61095e565b1561150d576040517f08c379a000000000000000000000000000000000000000000000000000000000815260040161150490612415565b60405180910390fd5b6001600560006101000a81548160ff0219169083151502179055507f62e78cea01bee320cd4e420270b5ea74000d11b0c9f74754ebdbfc544b05a258611551610d98565b60405161155e91906122e2565b60405180910390a1565b600073ffffffffffffffffffffffffffffffffffffffff168273ffffffffffffffffffffffffffffffffffffffff1614156115d8576040517f08c379a00000000000000000000000000000000000000000000000000000000081526004016115cf90612475565b60405180910390fd5b6115e482600083611c1a565b60008060008473ffffffffffffffffffffffffffffffffffffffff1673ffffffffffffffffffffffffffffffffffffffff1681526020019081526020016000205490508181101561166a576040517f08c379a0000000000000000000000000000000000000000000000000000000008152600401611661906123b5565b60405180910390fd5b8181036000808573ffffffffffffffffffffffffffffffffffffffff1673ffffffffffffffffffffffffffffffffffffffff1681526020019081526020016000208190555081600260008282546116c19190612642565b92505081905550600073ffffffffffffffffffffffffffffffffffffffff168373ffffffffffffffffffffffffffffffffffffffff167fddf252ad1be2c89b69c2b068fc378daa952ba7f163c4a11628f55a4df523b3ef846040516117269190612535565b60405180910390a361173a83600084611c1f565b505050565b600061175361174c610d98565b848461175d565b6001905092915050565b600073ffffffffffffffffffffffffffffffffffffffff168373ffffffffffffffffffffffffffffffffffffffff1614156117cd576040517f08c379a00000000000000000000000000000000000000000000000000000000081526004016117c490612495565b60405180910390fd5b600073ffffffffffffffffffffffffffffffffffffffff168273ffffffffffffffffffffffffffffffffffffffff16141561183d576040517f08c379a000000000000000000000000000000000000000000000000000000000815260040161183490612375565b60405180910390fd5b611848838383611c1a565b60008060008573ffffffffffffffffffffffffffffffffffffffff1673ffffffffffffffffffffffffffffffffffffffff168152602001908152602001600020549050818110156118ce576040517f08c379a00000000000000000000000000000000000000000000000000000000081526004016118c5906123f5565b60405180910390fd5b8181036000808673ffffffffffffffffffffffffffffffffffffffff1673ffffffffffffffffffffffffffffffffffffffff16815260200190815260200160002081905550816000808573ffffffffffffffffffffffffffffffffffffffff1673ffffffffffffffffffffffffffffffffffffffff16815260200190815260200160002060008282546119619190612592565b925050819055508273ffffffffffffffffffffffffffffffffffffffff168473ffffffffffffffffffffffffffffffffffffffff167fddf252ad1be2c89b69c2b068fc378daa952ba7f163c4a11628f55a4df523b3ef846040516119c59190612535565b60405180910390a36119d8848484611c1f565b50505050565b6060600060028360026119f191906125e8565b6119fb9190612592565b67ffffffffffffffff811115611a1457611a1361281d565b5b6040519080825280601f01601f191660200182016040528015611a465781602001600182028036833780820191505090505b5090507f300000000000000000000000000000000000000000000000000000000000000081600081518110611a7e57611a7d6127ee565b5b60200101907effffffffffffffffffffffffffffffffffffffffffffffffffffffffffffff1916908160001a9053507f780000000000000000000000000000000000000000000000000000000000000081600181518110611ae257611ae16127ee565b5b60200101907effffffffffffffffffffffffffffffffffffffffffffffffffffffffffffff1916908160001a90535060006001846002611b2291906125e8565b611b2c9190612592565b90505b6001811115611bcc577f3031323334353637383961626364656600000000000000000000000000000000600f861660108110611b6e57611b6d6127ee565b5b1a60f81b828281518110611b8557611b846127ee565b5b60200101907effffffffffffffffffffffffffffffffffffffffffffffffffffffffffffff1916908160001a905350600485901c945080611bc590612734565b9050611b2f565b5060008414611c10576040517f08c379a0000000000000000000000000000000000000000000000000000000008152600401611c0790612355565b60405180910390fd5b8091505092915050565b505050565b505050565b828054611c309061275e565b90600052602060002090601f016020900481019282611c525760008555611c99565b82601f10611c6b57803560ff1916838001178555611c99565b82800160010185558215611c99579182015b82811115611c98578235825591602001919060010190611c7d565b5b509050611ca69190611caa565b5090565b5b80821115611cc3576000816000905550600101611cab565b5090565b600081359050611cd681612cd1565b92915050565b600081359050611ceb81612ce8565b92915050565b600081359050611d0081612cff565b92915050565b60008083601f840112611d1c57611d1b612851565b5b8235905067ffffffffffffffff811115611d3957611d3861284c565b5b602083019150836001820283011115611d5557611d54612856565b5b9250929050565b600081359050611d6b81612d16565b92915050565b600060208284031215611d8757611d86612860565b5b6000611d9584828501611cc7565b91505092915050565b60008060408385031215611db557611db4612860565b5b6000611dc385828601611cc7565b9250506020611dd485828601611cc7565b9150509250929050565b600080600060608486031215611df757611df6612860565b5b6000611e0586828701611cc7565b9350506020611e1686828701611cc7565b9250506040611e2786828701611d5c565b9150509250925092565b60008060408385031215611e4857611e47612860565b5b6000611e5685828601611cc7565b9250506020611e6785828601611d5c565b9150509250929050565b600060208284031215611e8757611e86612860565b5b6000611e9584828501611cdc565b91505092915050565b60008060408385031215611eb557611eb4612860565b5b6000611ec385828601611cdc565b9250506020611ed485828601611cc7565b9150509250929050565b600060208284031215611ef457611ef3612860565b5b6000611f0284828501611cf1565b91505092915050565b600080600080600060608688031215611f2757611f26612860565b5b600086013567ffffffffffffffff811115611f4557611f4461285b565b5b611f5188828901611d06565b9550955050602086013567ffffffffffffffff811115611f7457611f7361285b565b5b611f8088828901611d06565b93509350506040611f9388828901611cc7565b9150509295509295909350565b611fa981612676565b82525050565b611fb881612688565b82525050565b611fc781612694565b82525050565b6000611fd88261256b565b611fe28185612576565b9350611ff2818560208601612701565b611ffb81612865565b840191505092915050565b60006120118261256b565b61201b8185612587565b935061202b818560208601612701565b80840191505092915050565b6000612044602083612576565b915061204f82612876565b602082019050919050565b6000612067602383612576565b91506120728261289f565b604082019050919050565b600061208a601483612576565b9150612095826128ee565b602082019050919050565b60006120ad602283612576565b91506120b882612917565b604082019050919050565b60006120d0602283612576565b91506120db82612966565b604082019050919050565b60006120f3602683612576565b91506120fe826129b5565b604082019050919050565b6000612116601083612576565b915061212182612a04565b602082019050919050565b6000612139602e83612576565b915061214482612a2d565b604082019050919050565b600061215c602883612576565b915061216782612a7c565b604082019050919050565b600061217f602183612576565b915061218a82612acb565b604082019050919050565b60006121a2602583612576565b91506121ad82612b1a565b604082019050919050565b60006121c5602483612576565b91506121d082612b69565b604082019050919050565b60006121e8601783612587565b91506121f382612bb8565b601782019050919050565b600061220b602583612576565b915061221682612be1565b604082019050919050565b600061222e601183612587565b915061223982612c30565b601182019050919050565b6000612251602f83612576565b915061225c82612c59565b604082019050919050565b6000612274601f83612576565b915061227f82612ca8565b602082019050919050565b612293816126ea565b82525050565b6122a2816126f4565b82525050565b60006122b3826121db565b91506122bf8285612006565b91506122ca82612221565b91506122d68284612006565b91508190509392505050565b60006020820190506122f76000830184611fa0565b92915050565b60006020820190506123126000830184611faf565b92915050565b600060208201905061232d6000830184611fbe565b92915050565b6000602082019050818103600083015261234d8184611fcd565b905092915050565b6000602082019050818103600083015261236e81612037565b9050919050565b6000602082019050818103600083015261238e8161205a565b9050919050565b600060208201905081810360008301526123ae8161207d565b9050919050565b600060208201905081810360008301526123ce816120a0565b9050919050565b600060208201905081810360008301526123ee816120c3565b9050919050565b6000602082019050818103600083015261240e816120e6565b9050919050565b6000602082019050818103600083015261242e81612109565b9050919050565b6000602082019050818103600083015261244e8161212c565b9050919050565b6000602082019050818103600083015261246e8161214f565b9050919050565b6000602082019050818103600083015261248e81612172565b9050919050565b600060208201905081810360008301526124ae81612195565b9050919050565b600060208201905081810360008301526124ce816121b8565b9050919050565b600060208201905081810360008301526124ee816121fe565b9050919050565b6000602082019050818103600083015261250e81612244565b9050919050565b6000602082019050818103600083015261252e81612267565b9050919050565b600060208201905061254a600083018461228a565b92915050565b60006020820190506125656000830184612299565b92915050565b600081519050919050565b600082825260208201905092915050565b600081905092915050565b600061259d826126ea565b91506125a8836126ea565b9250827fffffffffffffffffffffffffffffffffffffffffffffffffffffffffffffffff038211156125dd576125dc612790565b5b828201905092915050565b60006125f3826126ea565b91506125fe836126ea565b9250817fffffffffffffffffffffffffffffffffffffffffffffffffffffffffffffffff048311821515161561263757612636612790565b5b828202905092915050565b600061264d826126ea565b9150612658836126ea565b92508282101561266b5761266a612790565b5b828203905092915050565b6000612681826126ca565b9050919050565b60008115159050919050565b6000819050919050565b60007fffffffff0000000000000000000000000000000000000000000000000000000082169050919050565b600073ffffffffffffffffffffffffffffffffffffffff82169050919050565b6000819050919050565b600060ff82169050919050565b60005b8381101561271f578082015181840152602081019050612704565b8381111561272e576000848401525b50505050565b600061273f826126ea565b9150600082141561275357612752612790565b5b600182039050919050565b6000600282049050600182168061277657607f821691505b6020821081141561278a576127896127bf565b5b50919050565b7f4e487b7100000000000000000000000000000000000000000000000000000000600052601160045260246000fd5b7f4e487b7100000000000000000000000000000000000000000000000000000000600052602260045260246000fd5b7f4e487b7100000000000000000000000000000000000000000000000000000000600052603260045260246000fd5b7f4e487b7100000000000000000000000000000000000000000000000000000000600052604160045260246000fd5b600080fd5b600080fd5b600080fd5b600080fd5b600080fd5b6000601f19601f8301169050919050565b7f537472696e67733a20686578206c656e67746820696e73756666696369656e74600082015250565b7f45524332303a207472616e7366657220746f20746865207a65726f206164647260008201527f6573730000000000000000000000000000000000000000000000000000000000602082015250565b7f5061757361626c653a206e6f7420706175736564000000000000000000000000600082015250565b7f45524332303a206275726e20616d6f756e7420657863656564732062616c616e60008201527f6365000000000000000000000000000000000000000000000000000000000000602082015250565b7f45524332303a20617070726f766520746f20746865207a65726f20616464726560008201527f7373000000000000000000000000000000000000000000000000000000000000602082015250565b7f45524332303a207472616e7366657220616d6f756e742065786365656473206260008201527f616c616e63650000000000000000000000000000000000000000000000000000602082015250565b7f5061757361626c653a2070617573656400000000000000000000000000000000600082015250565b7f496e697469616c697a61626c653a20636f6e747261637420697320616c72656160008201527f647920696e697469616c697a6564000000000000000000000000000000000000602082015250565b7f45524332303a207472616e7366657220616d6f756e742065786365656473206160008201527f6c6c6f77616e6365000000000000000000000000000000000000000000000000602082015250565b7f45524332303a206275726e2066726f6d20746865207a65726f2061646472657360008201527f7300000000000000000000000000000000000000000000000000000000000000602082015250565b7f45524332303a207472616e736665722066726f6d20746865207a65726f20616460008201527f6472657373000000000000000000000000000000000000000000000000000000602082015250565b7f45524332303a20617070726f76652066726f6d20746865207a65726f2061646460008201527f7265737300000000000000000000000000000000000000000000000000000000602082015250565b7f416363657373436f6e74726f6c3a206163636f756e7420000000000000000000600082015250565b7f45524332303a2064656372656173656420616c6c6f77616e63652062656c6f7760008201527f207a65726f000000000000000000000000000000000000000000000000000000602082015250565b7f206973206d697373696e6720726f6c6520000000000000000000000000000000600082015250565b7f416363657373436f6e74726f6c3a2063616e206f6e6c792072656e6f756e636560008201527f20726f6c657320666f722073656c660000000000000000000000000000000000602082015250565b7f45524332303a206d696e7420746f20746865207a65726f206164647265737300600082015250565b612cda81612676565b8114612ce557600080fd5b50565b612cf181612694565b8114612cfc57600080fd5b50565b612d088161269e565b8114612d1357600080fd5b50565b612d1f816126ea565b8114612d2a57600080fd5b5056fea26469706673582212209e10a47945740a0a341a76fa0987a76fa876ac5cab7ce6895eca5e3c0d8c61b064736f6c63430008060033507269766920636f7079726967687420546f6b656e20496d706c656d656e746174696f6e",
  "immutableReferences": {},
  "source": "// SPDX-License-Identifier: MIT\npragma solidity ^0.8.0;\n\nimport \"@openzeppelin/contracts/token/ERC20/ERC20.sol\";\nimport \"@openzeppelin/contracts/security/Pausable.sol\";\nimport \"@openzeppelin/contracts/access/AccessControl.sol\";\nimport \"@openzeppelin/contracts/proxy/utils/Initializable.sol\";\n\n/**\n * @title the implementation to clone on each pod creation\n * @author Eric Nordelo\n */\ncontract CopyrightToken is ERC20, Pausable, AccessControl, Initializable {\n    bytes32 public constant WITHDRAW_MANAGER_ROLE = keccak256(\"WITHDRAW_MANAGER_ROLE\");\n    uint256 private constant PRICE_PRECISION = 10**18;\n\n    string private _proxiedName;\n    string private _proxiedSymbol;\n\n    // solhint-disable-next-line\n    constructor() ERC20(\"Privi copyright Token Implementation\", \"pCOPR\") {}\n\n    /**\n     * @notice ensures that the pod token contract begins paused and with the default admin\n     */\n    function initialize(\n        string calldata _name,\n        string calldata _symbol,\n        address manager\n    ) external initializer {\n        _proxiedName = _name;\n        _proxiedSymbol = _symbol;\n\n        _setupRole(DEFAULT_ADMIN_ROLE, msg.sender);\n        _setupRole(DEFAULT_ADMIN_ROLE, manager);\n    }\n\n    function pause() public onlyRole(DEFAULT_ADMIN_ROLE) {\n        _pause();\n    }\n\n    function unpause() public onlyRole(DEFAULT_ADMIN_ROLE) {\n        _unpause();\n    }\n\n    function mint(address to, uint256 amount) public onlyRole(DEFAULT_ADMIN_ROLE) {\n        _mint(to, amount);\n    }\n\n    function burn(address to, uint256 amount) public onlyRole(DEFAULT_ADMIN_ROLE) {\n        _burn(to, amount);\n    }\n\n    /**\n     * @dev ensures that only minting is allowed when paused\n     */\n    function transfer(address recipient, uint256 amount) public override whenNotPaused returns (bool) {\n        return super.transfer(recipient, amount);\n    }\n\n    /**\n     * @dev ensures that only minting is allowed when paused\n     */\n    function transferFrom(\n        address sender,\n        address recipient,\n        uint256 amount\n    ) public override whenNotPaused returns (bool) {\n        return super.transferFrom(sender, recipient, amount);\n    }\n\n    function name() public view virtual override returns (string memory) {\n        return _proxiedName;\n    }\n\n    function symbol() public view virtual override returns (string memory) {\n        return _proxiedSymbol;\n    }\n}\n",
  "sourcePath": "/Users/angelsatorresalmenara/Desktop/privi-pods-smart-contract/contracts/implementations/CopyrightToken.sol",
  "compiler": {
    "name": "solc",
    "version": "0.8.6+commit.11564f7e.Emscripten.clang"
  },
  "schemaVersion": "3.4.3",
  "updatedAt": "2021-10-08T21:06:05.008Z",
  "networkType": "ethereum",
  "devdoc": {
    "author": "Eric Nordelo",
    "kind": "dev",
    "methods": {
      "allowance(address,address)": {
        "details": "See {IERC20-allowance}."
      },
      "approve(address,uint256)": {
        "details": "See {IERC20-approve}. Requirements: - `spender` cannot be the zero address."
      },
      "balanceOf(address)": {
        "details": "See {IERC20-balanceOf}."
      },
      "decimals()": {
        "details": "Returns the number of decimals used to get its user representation. For example, if `decimals` equals `2`, a balance of `505` tokens should be displayed to a user as `5.05` (`505 / 10 ** 2`). Tokens usually opt for a value of 18, imitating the relationship between Ether and Wei. This is the value {ERC20} uses, unless this function is overridden; NOTE: This information is only used for _display_ purposes: it in no way affects any of the arithmetic of the contract, including {IERC20-balanceOf} and {IERC20-transfer}."
      },
      "decreaseAllowance(address,uint256)": {
        "details": "Atomically decreases the allowance granted to `spender` by the caller. This is an alternative to {approve} that can be used as a mitigation for problems described in {IERC20-approve}. Emits an {Approval} event indicating the updated allowance. Requirements: - `spender` cannot be the zero address. - `spender` must have allowance for the caller of at least `subtractedValue`."
      },
      "getRoleAdmin(bytes32)": {
        "details": "Returns the admin role that controls `role`. See {grantRole} and {revokeRole}. To change a role's admin, use {_setRoleAdmin}."
      },
      "grantRole(bytes32,address)": {
        "details": "Grants `role` to `account`. If `account` had not been already granted `role`, emits a {RoleGranted} event. Requirements: - the caller must have ``role``'s admin role."
      },
      "hasRole(bytes32,address)": {
        "details": "Returns `true` if `account` has been granted `role`."
      },
      "increaseAllowance(address,uint256)": {
        "details": "Atomically increases the allowance granted to `spender` by the caller. This is an alternative to {approve} that can be used as a mitigation for problems described in {IERC20-approve}. Emits an {Approval} event indicating the updated allowance. Requirements: - `spender` cannot be the zero address."
      },
      "name()": {
        "details": "Returns the name of the token."
      },
      "paused()": {
        "details": "Returns true if the contract is paused, and false otherwise."
      },
      "renounceRole(bytes32,address)": {
        "details": "Revokes `role` from the calling account. Roles are often managed via {grantRole} and {revokeRole}: this function's purpose is to provide a mechanism for accounts to lose their privileges if they are compromised (such as when a trusted device is misplaced). If the calling account had been granted `role`, emits a {RoleRevoked} event. Requirements: - the caller must be `account`."
      },
      "revokeRole(bytes32,address)": {
        "details": "Revokes `role` from `account`. If `account` had been granted `role`, emits a {RoleRevoked} event. Requirements: - the caller must have ``role``'s admin role."
      },
      "supportsInterface(bytes4)": {
        "details": "See {IERC165-supportsInterface}."
      },
      "symbol()": {
        "details": "Returns the symbol of the token, usually a shorter version of the name."
      },
      "totalSupply()": {
        "details": "See {IERC20-totalSupply}."
      },
      "transfer(address,uint256)": {
        "details": "ensures that only minting is allowed when paused"
      },
      "transferFrom(address,address,uint256)": {
        "details": "ensures that only minting is allowed when paused"
      }
    },
    "title": "the implementation to clone on each pod creation",
    "version": 1
  },
  "userdoc": {
    "kind": "user",
    "methods": {
      "initialize(string,string,address)": {
        "notice": "ensures that the pod token contract begins paused and with the default admin"
      }
    },
    "version": 1
  }
}