{
  "contractName": "CopyrightNFT",
  "abi": [
    {
      "inputs": [],
      "stateMutability": "nonpayable",
      "type": "constructor"
    },
    {
      "anonymous": false,
      "inputs": [
        {
          "indexed": true,
          "internalType": "address",
          "name": "owner",
          "type": "address"
        },
        {
          "indexed": true,
          "internalType": "address",
          "name": "approved",
          "type": "address"
        },
        {
          "indexed": true,
          "internalType": "uint256",
          "name": "tokenId",
          "type": "uint256"
        }
      ],
      "name": "Approval",
      "type": "event"
    },
    {
      "anonymous": false,
      "inputs": [
        {
          "indexed": true,
          "internalType": "address",
          "name": "owner",
          "type": "address"
        },
        {
          "indexed": true,
          "internalType": "address",
          "name": "operator",
          "type": "address"
        },
        {
          "indexed": false,
          "internalType": "bool",
          "name": "approved",
          "type": "bool"
        }
      ],
      "name": "ApprovalForAll",
      "type": "event"
    },
    {
      "anonymous": false,
      "inputs": [
        {
          "indexed": true,
          "internalType": "bytes32",
          "name": "role",
          "type": "bytes32"
        },
        {
          "indexed": true,
          "internalType": "bytes32",
          "name": "previousAdminRole",
          "type": "bytes32"
        },
        {
          "indexed": true,
          "internalType": "bytes32",
          "name": "newAdminRole",
          "type": "bytes32"
        }
      ],
      "name": "RoleAdminChanged",
      "type": "event"
    },
    {
      "anonymous": false,
      "inputs": [
        {
          "indexed": true,
          "internalType": "bytes32",
          "name": "role",
          "type": "bytes32"
        },
        {
          "indexed": true,
          "internalType": "address",
          "name": "account",
          "type": "address"
        },
        {
          "indexed": true,
          "internalType": "address",
          "name": "sender",
          "type": "address"
        }
      ],
      "name": "RoleGranted",
      "type": "event"
    },
    {
      "anonymous": false,
      "inputs": [
        {
          "indexed": true,
          "internalType": "bytes32",
          "name": "role",
          "type": "bytes32"
        },
        {
          "indexed": true,
          "internalType": "address",
          "name": "account",
          "type": "address"
        },
        {
          "indexed": true,
          "internalType": "address",
          "name": "sender",
          "type": "address"
        }
      ],
      "name": "RoleRevoked",
      "type": "event"
    },
    {
      "anonymous": false,
      "inputs": [
        {
          "indexed": true,
          "internalType": "address",
          "name": "from",
          "type": "address"
        },
        {
          "indexed": true,
          "internalType": "address",
          "name": "to",
          "type": "address"
        },
        {
          "indexed": true,
          "internalType": "uint256",
          "name": "tokenId",
          "type": "uint256"
        }
      ],
      "name": "Transfer",
      "type": "event"
    },
    {
      "inputs": [],
      "name": "DEFAULT_ADMIN_ROLE",
      "outputs": [
        {
          "internalType": "bytes32",
          "name": "",
          "type": "bytes32"
        }
      ],
      "stateMutability": "view",
      "type": "function",
      "constant": true
    },
    {
      "inputs": [],
      "name": "MINTER",
      "outputs": [
        {
          "internalType": "bytes32",
          "name": "",
          "type": "bytes32"
        }
      ],
      "stateMutability": "view",
      "type": "function",
      "constant": true
    },
    {
      "inputs": [
        {
          "internalType": "address",
          "name": "to",
          "type": "address"
        },
        {
          "internalType": "uint256",
          "name": "tokenId",
          "type": "uint256"
        }
      ],
      "name": "approve",
      "outputs": [],
      "stateMutability": "nonpayable",
      "type": "function"
    },
    {
      "inputs": [
        {
          "internalType": "address",
          "name": "owner",
          "type": "address"
        }
      ],
      "name": "balanceOf",
      "outputs": [
        {
          "internalType": "uint256",
          "name": "",
          "type": "uint256"
        }
      ],
      "stateMutability": "view",
      "type": "function",
      "constant": true
    },
    {
      "inputs": [
        {
          "internalType": "uint256",
          "name": "tokenId",
          "type": "uint256"
        }
      ],
      "name": "getApproved",
      "outputs": [
        {
          "internalType": "address",
          "name": "",
          "type": "address"
        }
      ],
      "stateMutability": "view",
      "type": "function",
      "constant": true
    },
    {
      "inputs": [
        {
          "internalType": "bytes32",
          "name": "role",
          "type": "bytes32"
        }
      ],
      "name": "getRoleAdmin",
      "outputs": [
        {
          "internalType": "bytes32",
          "name": "",
          "type": "bytes32"
        }
      ],
      "stateMutability": "view",
      "type": "function",
      "constant": true
    },
    {
      "inputs": [
        {
          "internalType": "bytes32",
          "name": "role",
          "type": "bytes32"
        },
        {
          "internalType": "address",
          "name": "account",
          "type": "address"
        }
      ],
      "name": "grantRole",
      "outputs": [],
      "stateMutability": "nonpayable",
      "type": "function"
    },
    {
      "inputs": [
        {
          "internalType": "bytes32",
          "name": "role",
          "type": "bytes32"
        },
        {
          "internalType": "address",
          "name": "account",
          "type": "address"
        }
      ],
      "name": "hasRole",
      "outputs": [
        {
          "internalType": "bool",
          "name": "",
          "type": "bool"
        }
      ],
      "stateMutability": "view",
      "type": "function",
      "constant": true
    },
    {
      "inputs": [
        {
          "internalType": "address",
          "name": "owner",
          "type": "address"
        },
        {
          "internalType": "address",
          "name": "operator",
          "type": "address"
        }
      ],
      "name": "isApprovedForAll",
      "outputs": [
        {
          "internalType": "bool",
          "name": "",
          "type": "bool"
        }
      ],
      "stateMutability": "view",
      "type": "function",
      "constant": true
    },
    {
      "inputs": [
        {
          "internalType": "uint256",
          "name": "tokenId",
          "type": "uint256"
        }
      ],
      "name": "ownerOf",
      "outputs": [
        {
          "internalType": "address",
          "name": "",
          "type": "address"
        }
      ],
      "stateMutability": "view",
      "type": "function",
      "constant": true
    },
    {
      "inputs": [
        {
          "internalType": "bytes32",
          "name": "role",
          "type": "bytes32"
        },
        {
          "internalType": "address",
          "name": "account",
          "type": "address"
        }
      ],
      "name": "renounceRole",
      "outputs": [],
      "stateMutability": "nonpayable",
      "type": "function"
    },
    {
      "inputs": [
        {
          "internalType": "bytes32",
          "name": "role",
          "type": "bytes32"
        },
        {
          "internalType": "address",
          "name": "account",
          "type": "address"
        }
      ],
      "name": "revokeRole",
      "outputs": [],
      "stateMutability": "nonpayable",
      "type": "function"
    },
    {
      "inputs": [
        {
          "internalType": "address",
          "name": "from",
          "type": "address"
        },
        {
          "internalType": "address",
          "name": "to",
          "type": "address"
        },
        {
          "internalType": "uint256",
          "name": "tokenId",
          "type": "uint256"
        }
      ],
      "name": "safeTransferFrom",
      "outputs": [],
      "stateMutability": "nonpayable",
      "type": "function"
    },
    {
      "inputs": [
        {
          "internalType": "address",
          "name": "from",
          "type": "address"
        },
        {
          "internalType": "address",
          "name": "to",
          "type": "address"
        },
        {
          "internalType": "uint256",
          "name": "tokenId",
          "type": "uint256"
        },
        {
          "internalType": "bytes",
          "name": "_data",
          "type": "bytes"
        }
      ],
      "name": "safeTransferFrom",
      "outputs": [],
      "stateMutability": "nonpayable",
      "type": "function"
    },
    {
      "inputs": [
        {
          "internalType": "address",
          "name": "operator",
          "type": "address"
        },
        {
          "internalType": "bool",
          "name": "approved",
          "type": "bool"
        }
      ],
      "name": "setApprovalForAll",
      "outputs": [],
      "stateMutability": "nonpayable",
      "type": "function"
    },
    {
      "inputs": [
        {
          "internalType": "address",
          "name": "from",
          "type": "address"
        },
        {
          "internalType": "address",
          "name": "to",
          "type": "address"
        },
        {
          "internalType": "uint256",
          "name": "tokenId",
          "type": "uint256"
        }
      ],
      "name": "transferFrom",
      "outputs": [],
      "stateMutability": "nonpayable",
      "type": "function"
    },
    {
      "inputs": [
        {
          "internalType": "string",
          "name": "name_",
          "type": "string"
        },
        {
          "internalType": "string",
          "name": "symbol_",
          "type": "string"
        },
        {
          "internalType": "address",
          "name": "copyrightToken",
          "type": "address"
        }
      ],
      "name": "initialize",
      "outputs": [],
      "stateMutability": "nonpayable",
      "type": "function"
    },
    {
      "inputs": [
        {
          "internalType": "address",
          "name": "to",
          "type": "address"
        },
        {
          "internalType": "uint256",
          "name": "amountTokens",
          "type": "uint256"
        },
        {
          "internalType": "string",
          "name": "uri",
          "type": "string"
        }
      ],
      "name": "mint",
      "outputs": [
        {
          "internalType": "uint256",
          "name": "",
          "type": "uint256"
        }
      ],
      "stateMutability": "nonpayable",
      "type": "function"
    },
    {
      "inputs": [
        {
          "internalType": "uint256",
          "name": "id",
          "type": "uint256"
        }
      ],
      "name": "freeze",
      "outputs": [],
      "stateMutability": "nonpayable",
      "type": "function"
    },
    {
      "inputs": [
        {
          "internalType": "uint256",
          "name": "id",
          "type": "uint256"
        }
      ],
      "name": "unfreeze",
      "outputs": [],
      "stateMutability": "nonpayable",
      "type": "function"
    },
    {
      "inputs": [
        {
          "internalType": "uint256",
          "name": "id",
          "type": "uint256"
        }
      ],
      "name": "balanceLocked",
      "outputs": [
        {
          "internalType": "uint256",
          "name": "",
          "type": "uint256"
        }
      ],
      "stateMutability": "view",
      "type": "function",
      "constant": true
    },
    {
      "inputs": [],
      "name": "name",
      "outputs": [
        {
          "internalType": "string",
          "name": "",
          "type": "string"
        }
      ],
      "stateMutability": "view",
      "type": "function",
      "constant": true
    },
    {
      "inputs": [],
      "name": "symbol",
      "outputs": [
        {
          "internalType": "string",
          "name": "",
          "type": "string"
        }
      ],
      "stateMutability": "view",
      "type": "function",
      "constant": true
    },
    {
      "inputs": [
        {
          "internalType": "uint256",
          "name": "tokenId",
          "type": "uint256"
        }
      ],
      "name": "tokenURI",
      "outputs": [
        {
          "internalType": "string",
          "name": "",
          "type": "string"
        }
      ],
      "stateMutability": "view",
      "type": "function",
      "constant": true
    },
    {
      "inputs": [
        {
          "internalType": "bytes4",
          "name": "interfaceId",
          "type": "bytes4"
        }
      ],
      "name": "supportsInterface",
      "outputs": [
        {
          "internalType": "bool",
          "name": "",
          "type": "bool"
        }
      ],
      "stateMutability": "view",
      "type": "function",
      "constant": true
    }
  ],
  "bytecode": "0x60806040523480156200001157600080fd5b50604051806020016040528060008152506040518060200160405280600081525081600090805190602001906200004a9291906200006c565b508060019080519060200190620000639291906200006c565b50505062000181565b8280546200007a906200011c565b90600052602060002090601f0160209004810192826200009e5760008555620000ea565b82601f10620000b957805160ff1916838001178555620000ea565b82800160010185558215620000ea579182015b82811115620000e9578251825591602001919060010190620000cc565b5b509050620000f99190620000fd565b5090565b5b8082111562000118576000816000905550600101620000fe565b5090565b600060028204905060018216806200013557607f821691505b602082108114156200014c576200014b62000152565b5b50919050565b7f4e487b7100000000000000000000000000000000000000000000000000000000600052602260045260246000fd5b61438180620001916000396000f3fe608060405234801561001057600080fd5b50600436106101735760003560e01c80636623fc46116100de578063b88d4fde11610097578063d547741f11610071578063d547741f1461047e578063d7a78db81461049a578063e985e9c5146104b6578063fe6d8124146104e657610173565b8063b88d4fde14610402578063c87b56dd1461041e578063d3fc98641461044e57610173565b80636623fc461461032e57806370a082311461034a57806391d148541461037a57806395d89b41146103aa578063a217fddf146103c8578063a22cb465146103e657610173565b806323b872dd1161013057806323b872dd1461025e578063248a9ca31461027a5780632f2ff15d146102aa57806336568abe146102c657806342842e0e146102e25780636352211e146102fe57610173565b806301ffc9a71461017857806306fdde03146101a8578063077f224a146101c6578063081812fc146101e2578063095ea7b3146102125780630becbabb1461022e575b600080fd5b610192600480360381019061018d9190612cea565b610504565b60405161019f91906133f8565b60405180910390f35b6101b0610516565b6040516101bd919061342e565b60405180910390f35b6101e060048036038101906101db9190612d44565b6105a8565b005b6101fc60048036038101906101f79190612dcf565b610744565b6040516102099190613331565b60405180910390f35b61022c60048036038101906102279190612b9c565b6107c9565b005b61024860048036038101906102439190612dcf565b6108e1565b6040516102559190613790565b60405180910390f35b61027860048036038101906102739190612a86565b6108fe565b005b610294600480360381019061028f9190612c7d565b61095e565b6040516102a19190613413565b60405180910390f35b6102c460048036038101906102bf9190612caa565b61097e565b005b6102e060048036038101906102db9190612caa565b6109a7565b005b6102fc60048036038101906102f79190612a86565b610a2a565b005b61031860048036038101906103139190612dcf565b610a4a565b6040516103259190613331565b60405180910390f35b61034860048036038101906103439190612dcf565b610afc565b005b610364600480360381019061035f9190612a19565b610c63565b6040516103719190613790565b60405180910390f35b610394600480360381019061038f9190612caa565b610d1b565b6040516103a191906133f8565b60405180910390f35b6103b2610d86565b6040516103bf919061342e565b60405180910390f35b6103d0610e18565b6040516103dd9190613413565b60405180910390f35b61040060048036038101906103fb9190612b5c565b610e1f565b005b61041c60048036038101906104179190612ad9565b610fa0565b005b61043860048036038101906104339190612dcf565b611002565b604051610445919061342e565b60405180910390f35b61046860048036038101906104639190612bdc565b6110ef565b6040516104759190613790565b60405180910390f35b61049860048036038101906104939190612caa565b611232565b005b6104b460048036038101906104af9190612dcf565b61125b565b005b6104d060048036038101906104cb9190612a46565b6113c1565b6040516104dd91906133f8565b60405180910390f35b6104ee611455565b6040516104fb9190613413565b60405180910390f35b600061050f82611479565b9050919050565b60606008805461052590613a4e565b80601f016020809104026020016040519081016040528092919081815260200182805461055190613a4e565b801561059e5780601f106105735761010080835404028352916020019161059e565b820191906000526020600020905b81548152906001019060200180831161058157829003601f168201915b5050505050905090565b600760019054906101000a900460ff16806105d05750600760009054906101000a900460ff16155b61060f576040517f08c379a0000000000000000000000000000000000000000000000000000000008152600401610606906135f0565b60405180910390fd5b6000600760019054906101000a900460ff161590508015610661576001600760016101000a81548160ff0219169083151502179055506001600760006101000a81548160ff0219169083151502179055505b8360089080519060200190610677929190612727565b50826009908051906020019061068e929190612727565b5081600a60006101000a81548173ffffffffffffffffffffffffffffffffffffffff021916908373ffffffffffffffffffffffffffffffffffffffff16021790555061071c7ff0887ba65ee2024ea881d91b74c2450ef19e1557f03bed3ea9f16b037cbe2dc9600a60009054906101000a900473ffffffffffffffffffffffffffffffffffffffff166114f3565b801561073e576000600760016101000a81548160ff0219169083151502179055505b50505050565b600061074f82611501565b61078e576040517f08c379a000000000000000000000000000000000000000000000000000000000815260040161078590613650565b60405180910390fd5b6004600083815260200190815260200160002060009054906101000a900473ffffffffffffffffffffffffffffffffffffffff169050919050565b60006107d482610a4a565b90508073ffffffffffffffffffffffffffffffffffffffff168373ffffffffffffffffffffffffffffffffffffffff161415610845576040517f08c379a000000000000000000000000000000000000000000000000000000000815260040161083c906136b0565b60405180910390fd5b8073ffffffffffffffffffffffffffffffffffffffff1661086461156d565b73ffffffffffffffffffffffffffffffffffffffff16148061089357506108928161088d61156d565b6113c1565b5b6108d2576040517f08c379a00000000000000000000000000000000000000000000000000000000081526004016108c990613590565b60405180910390fd5b6108dc8383611575565b505050565b6000600d6000838152602001908152602001600020549050919050565b61090f61090961156d565b8261162e565b61094e576040517f08c379a0000000000000000000000000000000000000000000000000000000008152600401610945906136d0565b60405180910390fd5b61095983838361170c565b505050565b600060066000838152602001908152602001600020600101549050919050565b6109878261095e565b6109988161099361156d565b61177d565b6109a2838361181a565b505050565b6109af61156d565b73ffffffffffffffffffffffffffffffffffffffff168173ffffffffffffffffffffffffffffffffffffffff1614610a1c576040517f08c379a0000000000000000000000000000000000000000000000000000000008152600401610a1390613770565b60405180910390fd5b610a2682826118fb565b5050565b610a4583838360405180602001604052806000815250610fa0565b505050565b6000806002600084815260200190815260200160002060009054906101000a900473ffffffffffffffffffffffffffffffffffffffff169050600073ffffffffffffffffffffffffffffffffffffffff168173ffffffffffffffffffffffffffffffffffffffff161415610af3576040517f08c379a0000000000000000000000000000000000000000000000000000000008152600401610aea906135d0565b60405180910390fd5b80915050919050565b3373ffffffffffffffffffffffffffffffffffffffff16610b1c82610a4a565b73ffffffffffffffffffffffffffffffffffffffff1614610b72576040517f08c379a0000000000000000000000000000000000000000000000000000000008152600401610b6990613470565b60405180910390fd5b600e600082815260200190815260200160002060009054906101000a900460ff16610bd2576040517f08c379a0000000000000000000000000000000000000000000000000000000008152600401610bc990613710565b60405180910390fd5b6000600e600083815260200190815260200160002060006101000a81548160ff021916908315150217905550610c603330600d600085815260200190815260200160002054600a60009054906101000a900473ffffffffffffffffffffffffffffffffffffffff1673ffffffffffffffffffffffffffffffffffffffff166119dd909392919063ffffffff16565b50565b60008073ffffffffffffffffffffffffffffffffffffffff168273ffffffffffffffffffffffffffffffffffffffff161415610cd4576040517f08c379a0000000000000000000000000000000000000000000000000000000008152600401610ccb906135b0565b60405180910390fd5b600360008373ffffffffffffffffffffffffffffffffffffffff1673ffffffffffffffffffffffffffffffffffffffff168152602001908152602001600020549050919050565b60006006600084815260200190815260200160002060000160008373ffffffffffffffffffffffffffffffffffffffff1673ffffffffffffffffffffffffffffffffffffffff16815260200190815260200160002060009054906101000a900460ff16905092915050565b606060098054610d9590613a4e565b80601f0160208091040260200160405190810160405280929190818152602001828054610dc190613a4e565b8015610e0e5780601f10610de357610100808354040283529160200191610e0e565b820191906000526020600020905b815481529060010190602001808311610df157829003601f168201915b5050505050905090565b6000801b81565b610e2761156d565b73ffffffffffffffffffffffffffffffffffffffff168273ffffffffffffffffffffffffffffffffffffffff161415610e95576040517f08c379a0000000000000000000000000000000000000000000000000000000008152600401610e8c906134f0565b60405180910390fd5b8060056000610ea261156d565b73ffffffffffffffffffffffffffffffffffffffff1673ffffffffffffffffffffffffffffffffffffffff16815260200190815260200160002060008473ffffffffffffffffffffffffffffffffffffffff1673ffffffffffffffffffffffffffffffffffffffff16815260200190815260200160002060006101000a81548160ff0219169083151502179055508173ffffffffffffffffffffffffffffffffffffffff16610f4f61156d565b73ffffffffffffffffffffffffffffffffffffffff167f17307eab39ab6107e8899845ad3d59bd9653f200f220920489ca2b5937696c3183604051610f9491906133f8565b60405180910390a35050565b610fb1610fab61156d565b8361162e565b610ff0576040517f08c379a0000000000000000000000000000000000000000000000000000000008152600401610fe7906136d0565b60405180910390fd5b610ffc84848484611a66565b50505050565b606061100d82611501565b61104c576040517f08c379a000000000000000000000000000000000000000000000000000000000815260040161104390613690565b60405180910390fd5b600c6000838152602001908152602001600020805461106a90613a4e565b80601f016020809104026020016040519081016040528092919081815260200182805461109690613a4e565b80156110e35780601f106110b8576101008083540402835291602001916110e3565b820191906000526020600020905b8154815290600101906020018083116110c657829003601f168201915b50505050509050919050565b60007ff0887ba65ee2024ea881d91b74c2450ef19e1557f03bed3ea9f16b037cbe2dc96111238161111e61156d565b61177d565b6000670de0b6b3a7640000866111399190613ab1565b14611179576040517f08c379a000000000000000000000000000000000000000000000000000000000815260040161117090613750565b60405180910390fd5b611183600b611ac2565b600061118f600b611ad8565b90508484600c600084815260200190815260200160002091906111b39291906127ad565b506111be8782611ae6565b85600d600083815260200190815260200160002081905550611225873088600a60009054906101000a900473ffffffffffffffffffffffffffffffffffffffff1673ffffffffffffffffffffffffffffffffffffffff166119dd909392919063ffffffff16565b8092505050949350505050565b61123b8261095e565b61124c8161124761156d565b61177d565b61125683836118fb565b505050565b3373ffffffffffffffffffffffffffffffffffffffff1661127b82610a4a565b73ffffffffffffffffffffffffffffffffffffffff16146112d1576040517f08c379a00000000000000000000000000000000000000000000000000000000081526004016112c890613610565b60405180910390fd5b600e600082815260200190815260200160002060009054906101000a900460ff1615611332576040517f08c379a000000000000000000000000000000000000000000000000000000000815260040161132990613550565b60405180910390fd5b6001600e600083815260200190815260200160002060006101000a81548160ff0219169083151502179055506113be33600d600084815260200190815260200160002054600a60009054906101000a900473ffffffffffffffffffffffffffffffffffffffff1673ffffffffffffffffffffffffffffffffffffffff16611cb49092919063ffffffff16565b50565b6000600560008473ffffffffffffffffffffffffffffffffffffffff1673ffffffffffffffffffffffffffffffffffffffff16815260200190815260200160002060008373ffffffffffffffffffffffffffffffffffffffff1673ffffffffffffffffffffffffffffffffffffffff16815260200190815260200160002060009054906101000a900460ff16905092915050565b7ff0887ba65ee2024ea881d91b74c2450ef19e1557f03bed3ea9f16b037cbe2dc981565b60007f7965db0b000000000000000000000000000000000000000000000000000000007bffffffffffffffffffffffffffffffffffffffffffffffffffffffff1916827bffffffffffffffffffffffffffffffffffffffffffffffffffffffff191614806114ec57506114eb82611d3a565b5b9050919050565b6114fd828261181a565b5050565b60008073ffffffffffffffffffffffffffffffffffffffff166002600084815260200190815260200160002060009054906101000a900473ffffffffffffffffffffffffffffffffffffffff1673ffffffffffffffffffffffffffffffffffffffff1614159050919050565b600033905090565b816004600083815260200190815260200160002060006101000a81548173ffffffffffffffffffffffffffffffffffffffff021916908373ffffffffffffffffffffffffffffffffffffffff160217905550808273ffffffffffffffffffffffffffffffffffffffff166115e883610a4a565b73ffffffffffffffffffffffffffffffffffffffff167f8c5be1e5ebec7d5bd14f71427d1e84f3dd0314c0f7b2291e5b200ac8c7c3b92560405160405180910390a45050565b600061163982611501565b611678576040517f08c379a000000000000000000000000000000000000000000000000000000000815260040161166f90613530565b60405180910390fd5b600061168383610a4a565b90508073ffffffffffffffffffffffffffffffffffffffff168473ffffffffffffffffffffffffffffffffffffffff1614806116f257508373ffffffffffffffffffffffffffffffffffffffff166116da84610744565b73ffffffffffffffffffffffffffffffffffffffff16145b80611703575061170281856113c1565b5b91505092915050565b600e600082815260200190815260200160002060009054906101000a900460ff161561176d576040517f08c379a000000000000000000000000000000000000000000000000000000000815260040161176490613570565b60405180910390fd5b611778838383611e1c565b505050565b6117878282610d1b565b611816576117ac8173ffffffffffffffffffffffffffffffffffffffff166014612078565b6117ba8360001c6020612078565b6040516020016117cb9291906132f7565b6040516020818303038152906040526040517f08c379a000000000000000000000000000000000000000000000000000000000815260040161180d919061342e565b60405180910390fd5b5050565b6118248282610d1b565b6118f75760016006600084815260200190815260200160002060000160008373ffffffffffffffffffffffffffffffffffffffff1673ffffffffffffffffffffffffffffffffffffffff16815260200190815260200160002060006101000a81548160ff02191690831515021790555061189c61156d565b73ffffffffffffffffffffffffffffffffffffffff168173ffffffffffffffffffffffffffffffffffffffff16837f2f8788117e7eff1d82e926ec794901d17c78024a50270940304540a733656f0d60405160405180910390a45b5050565b6119058282610d1b565b156119d95760006006600084815260200190815260200160002060000160008373ffffffffffffffffffffffffffffffffffffffff1673ffffffffffffffffffffffffffffffffffffffff16815260200190815260200160002060006101000a81548160ff02191690831515021790555061197e61156d565b73ffffffffffffffffffffffffffffffffffffffff168173ffffffffffffffffffffffffffffffffffffffff16837ff6391f5c32d9c69d2a47ea670b442974b53935d1edc7fd64eb21e047a839171b60405160405180910390a45b5050565b611a60846323b872dd60e01b8585856040516024016119fe9392919061334c565b604051602081830303815290604052907bffffffffffffffffffffffffffffffffffffffffffffffffffffffff19166020820180517bffffffffffffffffffffffffffffffffffffffffffffffffffffffff83818316178352505050506122b4565b50505050565b611a7184848461170c565b611a7d8484848461237b565b611abc576040517f08c379a0000000000000000000000000000000000000000000000000000000008152600401611ab390613490565b60405180910390fd5b50505050565b6001816000016000828254019250508190555050565b600081600001549050919050565b600073ffffffffffffffffffffffffffffffffffffffff168273ffffffffffffffffffffffffffffffffffffffff161415611b56576040517f08c379a0000000000000000000000000000000000000000000000000000000008152600401611b4d90613630565b60405180910390fd5b611b5f81611501565b15611b9f576040517f08c379a0000000000000000000000000000000000000000000000000000000008152600401611b96906134b0565b60405180910390fd5b611bab60008383612512565b6001600360008473ffffffffffffffffffffffffffffffffffffffff1673ffffffffffffffffffffffffffffffffffffffff1681526020019081526020016000206000828254611bfb9190613880565b92505081905550816002600083815260200190815260200160002060006101000a81548173ffffffffffffffffffffffffffffffffffffffff021916908373ffffffffffffffffffffffffffffffffffffffff160217905550808273ffffffffffffffffffffffffffffffffffffffff16600073ffffffffffffffffffffffffffffffffffffffff167fddf252ad1be2c89b69c2b068fc378daa952ba7f163c4a11628f55a4df523b3ef60405160405180910390a45050565b611d358363a9059cbb60e01b8484604051602401611cd39291906133cf565b604051602081830303815290604052907bffffffffffffffffffffffffffffffffffffffffffffffffffffffff19166020820180517bffffffffffffffffffffffffffffffffffffffffffffffffffffffff83818316178352505050506122b4565b505050565b60007f80ac58cd000000000000000000000000000000000000000000000000000000007bffffffffffffffffffffffffffffffffffffffffffffffffffffffff1916827bffffffffffffffffffffffffffffffffffffffffffffffffffffffff19161480611e0557507f5b5e139f000000000000000000000000000000000000000000000000000000007bffffffffffffffffffffffffffffffffffffffffffffffffffffffff1916827bffffffffffffffffffffffffffffffffffffffffffffffffffffffff1916145b80611e155750611e1482612517565b5b9050919050565b8273ffffffffffffffffffffffffffffffffffffffff16611e3c82610a4a565b73ffffffffffffffffffffffffffffffffffffffff1614611e92576040517f08c379a0000000000000000000000000000000000000000000000000000000008152600401611e8990613670565b60405180910390fd5b600073ffffffffffffffffffffffffffffffffffffffff168273ffffffffffffffffffffffffffffffffffffffff161415611f02576040517f08c379a0000000000000000000000000000000000000000000000000000000008152600401611ef9906134d0565b60405180910390fd5b611f0d838383612512565b611f18600082611575565b6001600360008573ffffffffffffffffffffffffffffffffffffffff1673ffffffffffffffffffffffffffffffffffffffff1681526020019081526020016000206000828254611f689190613930565b925050819055506001600360008473ffffffffffffffffffffffffffffffffffffffff1673ffffffffffffffffffffffffffffffffffffffff1681526020019081526020016000206000828254611fbf9190613880565b92505081905550816002600083815260200190815260200160002060006101000a81548173ffffffffffffffffffffffffffffffffffffffff021916908373ffffffffffffffffffffffffffffffffffffffff160217905550808273ffffffffffffffffffffffffffffffffffffffff168473ffffffffffffffffffffffffffffffffffffffff167fddf252ad1be2c89b69c2b068fc378daa952ba7f163c4a11628f55a4df523b3ef60405160405180910390a4505050565b60606000600283600261208b91906138d6565b6120959190613880565b67ffffffffffffffff8111156120ae576120ad613b9e565b5b6040519080825280601f01601f1916602001820160405280156120e05781602001600182028036833780820191505090505b5090507f30000000000000000000000000000000000000000000000000000000000000008160008151811061211857612117613b6f565b5b60200101907effffffffffffffffffffffffffffffffffffffffffffffffffffffffffffff1916908160001a9053507f78000000000000000000000000000000000000000000000000000000000000008160018151811061217c5761217b613b6f565b5b60200101907effffffffffffffffffffffffffffffffffffffffffffffffffffffffffffff1916908160001a905350600060018460026121bc91906138d6565b6121c69190613880565b90505b6001811115612266577f3031323334353637383961626364656600000000000000000000000000000000600f86166010811061220857612207613b6f565b5b1a60f81b82828151811061221f5761221e613b6f565b5b60200101907effffffffffffffffffffffffffffffffffffffffffffffffffffffffffffff1916908160001a905350600485901c94508061225f90613a24565b90506121c9565b50600084146122aa576040517f08c379a00000000000000000000000000000000000000000000000000000000081526004016122a190613450565b60405180910390fd5b8091505092915050565b6000612316826040518060400160405280602081526020017f5361666545524332303a206c6f772d6c6576656c2063616c6c206661696c65648152508573ffffffffffffffffffffffffffffffffffffffff166125819092919063ffffffff16565b905060008151111561237657808060200190518101906123369190612c50565b612375576040517f08c379a000000000000000000000000000000000000000000000000000000000815260040161236c90613730565b60405180910390fd5b5b505050565b600061239c8473ffffffffffffffffffffffffffffffffffffffff16612599565b15612505578373ffffffffffffffffffffffffffffffffffffffff1663150b7a026123c561156d565b8786866040518563ffffffff1660e01b81526004016123e79493929190613383565b602060405180830381600087803b15801561240157600080fd5b505af192505050801561243257506040513d601f19601f8201168201806040525081019061242f9190612d17565b60015b6124b5573d8060008114612462576040519150601f19603f3d011682016040523d82523d6000602084013e612467565b606091505b506000815114156124ad576040517f08c379a00000000000000000000000000000000000000000000000000000000081526004016124a490613490565b60405180910390fd5b805181602001fd5b63150b7a0260e01b7bffffffffffffffffffffffffffffffffffffffffffffffffffffffff1916817bffffffffffffffffffffffffffffffffffffffffffffffffffffffff19161491505061250a565b600190505b949350505050565b505050565b60007f01ffc9a7000000000000000000000000000000000000000000000000000000007bffffffffffffffffffffffffffffffffffffffffffffffffffffffff1916827bffffffffffffffffffffffffffffffffffffffffffffffffffffffff1916149050919050565b606061259084846000856125ac565b90509392505050565b600080823b905060008111915050919050565b6060824710156125f1576040517f08c379a00000000000000000000000000000000000000000000000000000000081526004016125e890613510565b60405180910390fd5b6125fa85612599565b612639576040517f08c379a0000000000000000000000000000000000000000000000000000000008152600401612630906136f0565b60405180910390fd5b6000808673ffffffffffffffffffffffffffffffffffffffff16858760405161266291906132e0565b60006040518083038185875af1925050503d806000811461269f576040519150601f19603f3d011682016040523d82523d6000602084013e6126a4565b606091505b50915091506126b48282866126c0565b92505050949350505050565b606083156126d057829050612720565b6000835111156126e35782518084602001fd5b816040517f08c379a0000000000000000000000000000000000000000000000000000000008152600401612717919061342e565b60405180910390fd5b9392505050565b82805461273390613a4e565b90600052602060002090601f016020900481019282612755576000855561279c565b82601f1061276e57805160ff191683800117855561279c565b8280016001018555821561279c579182015b8281111561279b578251825591602001919060010190612780565b5b5090506127a99190612833565b5090565b8280546127b990613a4e565b90600052602060002090601f0160209004810192826127db5760008555612822565b82601f106127f457803560ff1916838001178555612822565b82800160010185558215612822579182015b82811115612821578235825591602001919060010190612806565b5b50905061282f9190612833565b5090565b5b8082111561284c576000816000905550600101612834565b5090565b600061286361285e846137d0565b6137ab565b90508281526020810184848401111561287f5761287e613bdc565b5b61288a8482856139e2565b509392505050565b60006128a56128a084613801565b6137ab565b9050828152602081018484840111156128c1576128c0613bdc565b5b6128cc8482856139e2565b509392505050565b6000813590506128e3816142d8565b92915050565b6000813590506128f8816142ef565b92915050565b60008151905061290d816142ef565b92915050565b60008135905061292281614306565b92915050565b6000813590506129378161431d565b92915050565b60008151905061294c8161431d565b92915050565b600082601f83011261296757612966613bd2565b5b8135612977848260208601612850565b91505092915050565b60008083601f84011261299657612995613bd2565b5b8235905067ffffffffffffffff8111156129b3576129b2613bcd565b5b6020830191508360018202830111156129cf576129ce613bd7565b5b9250929050565b600082601f8301126129eb576129ea613bd2565b5b81356129fb848260208601612892565b91505092915050565b600081359050612a1381614334565b92915050565b600060208284031215612a2f57612a2e613be6565b5b6000612a3d848285016128d4565b91505092915050565b60008060408385031215612a5d57612a5c613be6565b5b6000612a6b858286016128d4565b9250506020612a7c858286016128d4565b9150509250929050565b600080600060608486031215612a9f57612a9e613be6565b5b6000612aad868287016128d4565b9350506020612abe868287016128d4565b9250506040612acf86828701612a04565b9150509250925092565b60008060008060808587031215612af357612af2613be6565b5b6000612b01878288016128d4565b9450506020612b12878288016128d4565b9350506040612b2387828801612a04565b925050606085013567ffffffffffffffff811115612b4457612b43613be1565b5b612b5087828801612952565b91505092959194509250565b60008060408385031215612b7357612b72613be6565b5b6000612b81858286016128d4565b9250506020612b92858286016128e9565b9150509250929050565b60008060408385031215612bb357612bb2613be6565b5b6000612bc1858286016128d4565b9250506020612bd285828601612a04565b9150509250929050565b60008060008060608587031215612bf657612bf5613be6565b5b6000612c04878288016128d4565b9450506020612c1587828801612a04565b935050604085013567ffffffffffffffff811115612c3657612c35613be1565b5b612c4287828801612980565b925092505092959194509250565b600060208284031215612c6657612c65613be6565b5b6000612c74848285016128fe565b91505092915050565b600060208284031215612c9357612c92613be6565b5b6000612ca184828501612913565b91505092915050565b60008060408385031215612cc157612cc0613be6565b5b6000612ccf85828601612913565b9250506020612ce0858286016128d4565b9150509250929050565b600060208284031215612d0057612cff613be6565b5b6000612d0e84828501612928565b91505092915050565b600060208284031215612d2d57612d2c613be6565b5b6000612d3b8482850161293d565b91505092915050565b600080600060608486031215612d5d57612d5c613be6565b5b600084013567ffffffffffffffff811115612d7b57612d7a613be1565b5b612d87868287016129d6565b935050602084013567ffffffffffffffff811115612da857612da7613be1565b5b612db4868287016129d6565b9250506040612dc5868287016128d4565b9150509250925092565b600060208284031215612de557612de4613be6565b5b6000612df384828501612a04565b91505092915050565b612e0581613964565b82525050565b612e1481613976565b82525050565b612e2381613982565b82525050565b6000612e3482613832565b612e3e8185613848565b9350612e4e8185602086016139f1565b612e5781613beb565b840191505092915050565b6000612e6d82613832565b612e778185613859565b9350612e878185602086016139f1565b80840191505092915050565b6000612e9e8261383d565b612ea88185613864565b9350612eb88185602086016139f1565b612ec181613beb565b840191505092915050565b6000612ed78261383d565b612ee18185613875565b9350612ef18185602086016139f1565b80840191505092915050565b6000612f0a602083613864565b9150612f1582613bfc565b602082019050919050565b6000612f2d601c83613864565b9150612f3882613c25565b602082019050919050565b6000612f50603283613864565b9150612f5b82613c4e565b604082019050919050565b6000612f73601c83613864565b9150612f7e82613c9d565b602082019050919050565b6000612f96602483613864565b9150612fa182613cc6565b604082019050919050565b6000612fb9601983613864565b9150612fc482613d15565b602082019050919050565b6000612fdc602683613864565b9150612fe782613d3e565b604082019050919050565b6000612fff602c83613864565b915061300a82613d8d565b604082019050919050565b6000613022600e83613864565b915061302d82613ddc565b602082019050919050565b6000613045600683613864565b915061305082613e05565b602082019050919050565b6000613068603883613864565b915061307382613e2e565b604082019050919050565b600061308b602a83613864565b915061309682613e7d565b604082019050919050565b60006130ae602983613864565b91506130b982613ecc565b604082019050919050565b60006130d1602e83613864565b91506130dc82613f1b565b604082019050919050565b60006130f4601a83613864565b91506130ff82613f6a565b602082019050919050565b6000613117602083613864565b915061312282613f93565b602082019050919050565b600061313a602c83613864565b915061314582613fbc565b604082019050919050565b600061315d602983613864565b91506131688261400b565b604082019050919050565b6000613180602f83613864565b915061318b8261405a565b604082019050919050565b60006131a3602183613864565b91506131ae826140a9565b604082019050919050565b60006131c6603183613864565b91506131d1826140f8565b604082019050919050565b60006131e9601d83613864565b91506131f482614147565b602082019050919050565b600061320c601783613875565b915061321782614170565b601782019050919050565b600061322f600a83613864565b915061323a82614199565b602082019050919050565b6000613252602a83613864565b915061325d826141c2565b604082019050919050565b6000613275602683613864565b915061328082614211565b604082019050919050565b6000613298601183613875565b91506132a382614260565b601182019050919050565b60006132bb602f83613864565b91506132c682614289565b604082019050919050565b6132da816139d8565b82525050565b60006132ec8284612e62565b915081905092915050565b6000613302826131ff565b915061330e8285612ecc565b91506133198261328b565b91506133258284612ecc565b91508190509392505050565b60006020820190506133466000830184612dfc565b92915050565b60006060820190506133616000830186612dfc565b61336e6020830185612dfc565b61337b60408301846132d1565b949350505050565b60006080820190506133986000830187612dfc565b6133a56020830186612dfc565b6133b260408301856132d1565b81810360608301526133c48184612e29565b905095945050505050565b60006040820190506133e46000830185612dfc565b6133f160208301846132d1565b9392505050565b600060208201905061340d6000830184612e0b565b92915050565b60006020820190506134286000830184612e1a565b92915050565b600060208201905081810360008301526134488184612e93565b905092915050565b6000602082019050818103600083015261346981612efd565b9050919050565b6000602082019050818103600083015261348981612f20565b9050919050565b600060208201905081810360008301526134a981612f43565b9050919050565b600060208201905081810360008301526134c981612f66565b9050919050565b600060208201905081810360008301526134e981612f89565b9050919050565b6000602082019050818103600083015261350981612fac565b9050919050565b6000602082019050818103600083015261352981612fcf565b9050919050565b6000602082019050818103600083015261354981612ff2565b9050919050565b6000602082019050818103600083015261356981613015565b9050919050565b6000602082019050818103600083015261358981613038565b9050919050565b600060208201905081810360008301526135a98161305b565b9050919050565b600060208201905081810360008301526135c98161307e565b9050919050565b600060208201905081810360008301526135e9816130a1565b9050919050565b60006020820190508181036000830152613609816130c4565b9050919050565b60006020820190508181036000830152613629816130e7565b9050919050565b600060208201905081810360008301526136498161310a565b9050919050565b600060208201905081810360008301526136698161312d565b9050919050565b6000602082019050818103600083015261368981613150565b9050919050565b600060208201905081810360008301526136a981613173565b9050919050565b600060208201905081810360008301526136c981613196565b9050919050565b600060208201905081810360008301526136e9816131b9565b9050919050565b60006020820190508181036000830152613709816131dc565b9050919050565b6000602082019050818103600083015261372981613222565b9050919050565b6000602082019050818103600083015261374981613245565b9050919050565b6000602082019050818103600083015261376981613268565b9050919050565b60006020820190508181036000830152613789816132ae565b9050919050565b60006020820190506137a560008301846132d1565b92915050565b60006137b56137c6565b90506137c18282613a80565b919050565b6000604051905090565b600067ffffffffffffffff8211156137eb576137ea613b9e565b5b6137f482613beb565b9050602081019050919050565b600067ffffffffffffffff82111561381c5761381b613b9e565b5b61382582613beb565b9050602081019050919050565b600081519050919050565b600081519050919050565b600082825260208201905092915050565b600081905092915050565b600082825260208201905092915050565b600081905092915050565b600061388b826139d8565b9150613896836139d8565b9250827fffffffffffffffffffffffffffffffffffffffffffffffffffffffffffffffff038211156138cb576138ca613ae2565b5b828201905092915050565b60006138e1826139d8565b91506138ec836139d8565b9250817fffffffffffffffffffffffffffffffffffffffffffffffffffffffffffffffff048311821515161561392557613924613ae2565b5b828202905092915050565b600061393b826139d8565b9150613946836139d8565b92508282101561395957613958613ae2565b5b828203905092915050565b600061396f826139b8565b9050919050565b60008115159050919050565b6000819050919050565b60007fffffffff0000000000000000000000000000000000000000000000000000000082169050919050565b600073ffffffffffffffffffffffffffffffffffffffff82169050919050565b6000819050919050565b82818337600083830152505050565b60005b83811015613a0f5780820151818401526020810190506139f4565b83811115613a1e576000848401525b50505050565b6000613a2f826139d8565b91506000821415613a4357613a42613ae2565b5b600182039050919050565b60006002820490506001821680613a6657607f821691505b60208210811415613a7a57613a79613b40565b5b50919050565b613a8982613beb565b810181811067ffffffffffffffff82111715613aa857613aa7613b9e565b5b80604052505050565b6000613abc826139d8565b9150613ac7836139d8565b925082613ad757613ad6613b11565b5b828206905092915050565b7f4e487b7100000000000000000000000000000000000000000000000000000000600052601160045260246000fd5b7f4e487b7100000000000000000000000000000000000000000000000000000000600052601260045260246000fd5b7f4e487b7100000000000000000000000000000000000000000000000000000000600052602260045260246000fd5b7f4e487b7100000000000000000000000000000000000000000000000000000000600052603260045260246000fd5b7f4e487b7100000000000000000000000000000000000000000000000000000000600052604160045260246000fd5b600080fd5b600080fd5b600080fd5b600080fd5b600080fd5b600080fd5b6000601f19601f8301169050919050565b7f537472696e67733a20686578206c656e67746820696e73756666696369656e74600082015250565b7f43616e206f6e6c7920756e667265657a65207768656e206f776e657200000000600082015250565b7f4552433732313a207472616e7366657220746f206e6f6e20455243373231526560008201527f63656976657220696d706c656d656e7465720000000000000000000000000000602082015250565b7f4552433732313a20746f6b656e20616c7265616479206d696e74656400000000600082015250565b7f4552433732313a207472616e7366657220746f20746865207a65726f2061646460008201527f7265737300000000000000000000000000000000000000000000000000000000602082015250565b7f4552433732313a20617070726f766520746f2063616c6c657200000000000000600082015250565b7f416464726573733a20696e73756666696369656e742062616c616e636520666f60008201527f722063616c6c0000000000000000000000000000000000000000000000000000602082015250565b7f4552433732313a206f70657261746f7220717565727920666f72206e6f6e657860008201527f697374656e7420746f6b656e0000000000000000000000000000000000000000602082015250565b7f416c72656164792066726f7a656e000000000000000000000000000000000000600082015250565b7f46726f7a656e0000000000000000000000000000000000000000000000000000600082015250565b7f4552433732313a20617070726f76652063616c6c6572206973206e6f74206f7760008201527f6e6572206e6f7220617070726f76656420666f7220616c6c0000000000000000602082015250565b7f4552433732313a2062616c616e636520717565727920666f7220746865207a6560008201527f726f206164647265737300000000000000000000000000000000000000000000602082015250565b7f4552433732313a206f776e657220717565727920666f72206e6f6e657869737460008201527f656e7420746f6b656e0000000000000000000000000000000000000000000000602082015250565b7f496e697469616c697a61626c653a20636f6e747261637420697320616c72656160008201527f647920696e697469616c697a6564000000000000000000000000000000000000602082015250565b7f43616e206f6e6c7920667265657a65207768656e206f776e6572000000000000600082015250565b7f4552433732313a206d696e7420746f20746865207a65726f2061646472657373600082015250565b7f4552433732313a20617070726f76656420717565727920666f72206e6f6e657860008201527f697374656e7420746f6b656e0000000000000000000000000000000000000000602082015250565b7f4552433732313a207472616e73666572206f6620746f6b656e2074686174206960008201527f73206e6f74206f776e0000000000000000000000000000000000000000000000602082015250565b7f4552433732314d657461646174613a2055524920717565727920666f72206e6f60008201527f6e6578697374656e7420746f6b656e0000000000000000000000000000000000602082015250565b7f4552433732313a20617070726f76616c20746f2063757272656e74206f776e6560008201527f7200000000000000000000000000000000000000000000000000000000000000602082015250565b7f4552433732313a207472616e736665722063616c6c6572206973206e6f74206f60008201527f776e6572206e6f7220617070726f766564000000000000000000000000000000602082015250565b7f416464726573733a2063616c6c20746f206e6f6e2d636f6e7472616374000000600082015250565b7f416363657373436f6e74726f6c3a206163636f756e7420000000000000000000600082015250565b7f4e6f742066726f7a656e00000000000000000000000000000000000000000000600082015250565b7f5361666545524332303a204552433230206f7065726174696f6e20646964206e60008201527f6f74207375636365656400000000000000000000000000000000000000000000602082015250565b7f43616e206f6e6c7920686f6c6420696e746567657220616d6f756e74206f662060008201527f746f6b656e730000000000000000000000000000000000000000000000000000602082015250565b7f206973206d697373696e6720726f6c6520000000000000000000000000000000600082015250565b7f416363657373436f6e74726f6c3a2063616e206f6e6c792072656e6f756e636560008201527f20726f6c657320666f722073656c660000000000000000000000000000000000602082015250565b6142e181613964565b81146142ec57600080fd5b50565b6142f881613976565b811461430357600080fd5b50565b61430f81613982565b811461431a57600080fd5b50565b6143268161398c565b811461433157600080fd5b50565b61433d816139d8565b811461434857600080fd5b5056fea264697066735822122081df48e3f186342ec7e64259d7b9175f9c7836bc225a19f7a25b9f79c0690ca964736f6c63430008060033",
  "immutableReferences": {},
  "source": "// SPDX-License-Identifier: MIT\n\npragma solidity ^0.8.6;\n\nimport \"@openzeppelin/contracts/token/ERC721/ERC721.sol\";\nimport \"@openzeppelin/contracts/token/ERC20/IERC20.sol\";\nimport \"@openzeppelin/contracts/token/ERC20/utils/SafeERC20.sol\";\nimport \"@openzeppelin/contracts/proxy/utils/Initializable.sol\";\nimport \"@openzeppelin/contracts/utils/Counters.sol\";\nimport \"@openzeppelin/contracts/access/AccessControl.sol\";\n\ncontract CopyrightNFT is ERC721, AccessControl, Initializable {\n    bytes32 public constant MINTER = keccak256(\"MINTER\");\n    using Counters for Counters.Counter;\n    using SafeERC20 for IERC20;\n\n    string private _proxyName;\n    string private _proxySymbol;\n    address private _copyrightToken;\n\n    Counters.Counter private idGen;\n\n    mapping(uint256 => string) private tokenToUri;\n\n    mapping(uint256 => uint256) private _holdings;\n    mapping(uint256 => bool) private _frozen;\n\n    // solhint-disable-next-line\n    constructor() ERC721(\"\", \"\") {}\n\n    function initialize(\n        string memory name_,\n        string memory symbol_,\n        address copyrightToken\n    ) external initializer {\n        _proxyName = name_;\n        _proxySymbol = symbol_;\n        _copyrightToken = copyrightToken;\n        _setupRole(MINTER, _copyrightToken);\n    }\n\n    /**\n     * @notice creates a new NFT with amountTokens copyright tokens in holdings\n     */\n    function mint(address to, uint256 amountTokens, string calldata uri) external onlyRole(MINTER) returns (uint256) {\n        require(amountTokens % 1 ether == 0, \"Can only hold integer amount of tokens\");\n        idGen.increment();\n        uint256 id = idGen.current();\n        tokenToUri[id] = uri;\n        _mint(to, id);\n        _holdings[id] = amountTokens;\n        IERC20(_copyrightToken).safeTransferFrom(to, address(this), amountTokens);\n        return id;\n    }\n\n    /**\n     * @notice freezes the NFT, transferring all copyright tokens out of it to the owner, disabling ability to transfer it.\n     */\n    function freeze(uint256 id) external {\n        require(ownerOf(id) == msg.sender, \"Can only freeze when owner\");\n        require(!_frozen[id], \"Already frozen\");\n        _frozen[id] = true;\n        IERC20(_copyrightToken).safeTransfer(msg.sender, _holdings[id]);\n    }\n\n    /**\n     * @notice unfreezes the NFT by transferring proper amount of copyright tokens from the owner, enabling ability to transfer it.\n     */\n    function unfreeze(uint256 id) external {\n        require(ownerOf(id) == msg.sender, \"Can only unfreeze when owner\");\n        require(_frozen[id], \"Not frozen\");\n        _frozen[id] = false;\n        IERC20(_copyrightToken).safeTransferFrom(msg.sender, address(this), _holdings[id]);\n    }\n\n    function balanceLocked(uint256 id) external view returns (uint256) {\n        return _holdings[id];\n    }\n\n    function name() public view virtual override returns (string memory) {\n        return _proxyName;\n    }\n\n    function symbol() public view virtual override returns (string memory) {\n        return _proxySymbol;\n    }\n\n    function tokenURI(uint256 tokenId) public view override returns (string memory) {\n        require(_exists(tokenId), \"ERC721Metadata: URI query for nonexistent token\");\n\n        return tokenToUri[tokenId];\n    }\n\n    function _transfer(\n        address from,\n        address to,\n        uint256 tokenId\n    ) internal virtual override {\n        require(!_frozen[tokenId], \"Frozen\");\n        super._transfer(from, to, tokenId);\n    }\n\n    function _burn(uint256 tokenId) internal virtual override {\n        require(!_frozen[tokenId], \"Frozen\");\n        super._burn(tokenId);\n    }\n\n    function supportsInterface(bytes4 interfaceId)\n        public\n        view\n        virtual\n        override(ERC721, AccessControl)\n        returns (bool)\n    {\n        return super.supportsInterface(interfaceId);\n    }\n}\n",
  "sourcePath": "/Users/angelsatorresalmenara/Desktop/privi-pods-smart-contract/contracts/implementations/CopyrightNFT.sol",
  "compiler": {
    "name": "solc",
    "version": "0.8.6+commit.11564f7e.Emscripten.clang"
  },
  "schemaVersion": "3.4.3",
  "updatedAt": "2021-11-16T21:43:00.310Z",
  "networkType": "ethereum",
  "devdoc": {
    "kind": "dev",
    "methods": {
      "approve(address,uint256)": {
        "details": "See {IERC721-approve}."
      },
      "balanceOf(address)": {
        "details": "See {IERC721-balanceOf}."
      },
      "getApproved(uint256)": {
        "details": "See {IERC721-getApproved}."
      },
      "getRoleAdmin(bytes32)": {
        "details": "Returns the admin role that controls `role`. See {grantRole} and {revokeRole}. To change a role's admin, use {_setRoleAdmin}."
      },
      "grantRole(bytes32,address)": {
        "details": "Grants `role` to `account`. If `account` had not been already granted `role`, emits a {RoleGranted} event. Requirements: - the caller must have ``role``'s admin role."
      },
      "hasRole(bytes32,address)": {
        "details": "Returns `true` if `account` has been granted `role`."
      },
      "isApprovedForAll(address,address)": {
        "details": "See {IERC721-isApprovedForAll}."
      },
      "name()": {
        "details": "See {IERC721Metadata-name}."
      },
      "ownerOf(uint256)": {
        "details": "See {IERC721-ownerOf}."
      },
      "renounceRole(bytes32,address)": {
        "details": "Revokes `role` from the calling account. Roles are often managed via {grantRole} and {revokeRole}: this function's purpose is to provide a mechanism for accounts to lose their privileges if they are compromised (such as when a trusted device is misplaced). If the calling account had been granted `role`, emits a {RoleRevoked} event. Requirements: - the caller must be `account`."
      },
      "revokeRole(bytes32,address)": {
        "details": "Revokes `role` from `account`. If `account` had been granted `role`, emits a {RoleRevoked} event. Requirements: - the caller must have ``role``'s admin role."
      },
      "safeTransferFrom(address,address,uint256)": {
        "details": "See {IERC721-safeTransferFrom}."
      },
      "safeTransferFrom(address,address,uint256,bytes)": {
        "details": "See {IERC721-safeTransferFrom}."
      },
      "setApprovalForAll(address,bool)": {
        "details": "See {IERC721-setApprovalForAll}."
      },
      "symbol()": {
        "details": "See {IERC721Metadata-symbol}."
      },
      "tokenURI(uint256)": {
        "details": "See {IERC721Metadata-tokenURI}."
      },
      "transferFrom(address,address,uint256)": {
        "details": "See {IERC721-transferFrom}."
      }
    },
    "version": 1
  },
  "userdoc": {
    "kind": "user",
    "methods": {
      "freeze(uint256)": {
        "notice": "freezes the NFT, transferring all copyright tokens out of it to the owner, disabling ability to transfer it."
      },
      "mint(address,uint256,string)": {
        "notice": "creates a new NFT with amountTokens copyright tokens in holdings"
      },
      "unfreeze(uint256)": {
        "notice": "unfreezes the NFT by transferring proper amount of copyright tokens from the owner, enabling ability to transfer it."
      }
    },
    "version": 1
  }
}