{
  "contractName": "CopyrightToken",
  "abi": [
    {
      "inputs": [],
      "stateMutability": "nonpayable",
      "type": "constructor"
    },
    {
      "anonymous": false,
      "inputs": [
        {
          "indexed": true,
          "internalType": "address",
          "name": "owner",
          "type": "address"
        },
        {
          "indexed": true,
          "internalType": "address",
          "name": "spender",
          "type": "address"
        },
        {
          "indexed": false,
          "internalType": "uint256",
          "name": "value",
          "type": "uint256"
        }
      ],
      "name": "Approval",
      "type": "event"
    },
    {
      "anonymous": false,
      "inputs": [
        {
          "indexed": true,
          "internalType": "address",
          "name": "owner",
          "type": "address"
        },
        {
          "indexed": false,
          "internalType": "address",
          "name": "nft",
          "type": "address"
        },
        {
          "indexed": true,
          "internalType": "uint256",
          "name": "nftId",
          "type": "uint256"
        },
        {
          "indexed": false,
          "internalType": "uint256",
          "name": "amount",
          "type": "uint256"
        }
      ],
      "name": "Combined",
      "type": "event"
    },
    {
      "anonymous": false,
      "inputs": [
        {
          "indexed": false,
          "internalType": "address",
          "name": "account",
          "type": "address"
        }
      ],
      "name": "Paused",
      "type": "event"
    },
    {
      "anonymous": false,
      "inputs": [
        {
          "indexed": true,
          "internalType": "bytes32",
          "name": "role",
          "type": "bytes32"
        },
        {
          "indexed": true,
          "internalType": "bytes32",
          "name": "previousAdminRole",
          "type": "bytes32"
        },
        {
          "indexed": true,
          "internalType": "bytes32",
          "name": "newAdminRole",
          "type": "bytes32"
        }
      ],
      "name": "RoleAdminChanged",
      "type": "event"
    },
    {
      "anonymous": false,
      "inputs": [
        {
          "indexed": true,
          "internalType": "bytes32",
          "name": "role",
          "type": "bytes32"
        },
        {
          "indexed": true,
          "internalType": "address",
          "name": "account",
          "type": "address"
        },
        {
          "indexed": true,
          "internalType": "address",
          "name": "sender",
          "type": "address"
        }
      ],
      "name": "RoleGranted",
      "type": "event"
    },
    {
      "anonymous": false,
      "inputs": [
        {
          "indexed": true,
          "internalType": "bytes32",
          "name": "role",
          "type": "bytes32"
        },
        {
          "indexed": true,
          "internalType": "address",
          "name": "account",
          "type": "address"
        },
        {
          "indexed": true,
          "internalType": "address",
          "name": "sender",
          "type": "address"
        }
      ],
      "name": "RoleRevoked",
      "type": "event"
    },
    {
      "anonymous": false,
      "inputs": [
        {
          "indexed": true,
          "internalType": "address",
          "name": "from",
          "type": "address"
        },
        {
          "indexed": true,
          "internalType": "address",
          "name": "to",
          "type": "address"
        },
        {
          "indexed": false,
          "internalType": "uint256",
          "name": "value",
          "type": "uint256"
        }
      ],
      "name": "Transfer",
      "type": "event"
    },
    {
      "anonymous": false,
      "inputs": [
        {
          "indexed": false,
          "internalType": "address",
          "name": "account",
          "type": "address"
        }
      ],
      "name": "Unpaused",
      "type": "event"
    },
    {
      "inputs": [],
      "name": "DEFAULT_ADMIN_ROLE",
      "outputs": [
        {
          "internalType": "bytes32",
          "name": "",
          "type": "bytes32"
        }
      ],
      "stateMutability": "view",
      "type": "function",
      "constant": true
    },
    {
      "inputs": [],
      "name": "WITHDRAW_MANAGER_ROLE",
      "outputs": [
        {
          "internalType": "bytes32",
          "name": "",
          "type": "bytes32"
        }
      ],
      "stateMutability": "view",
      "type": "function",
      "constant": true
    },
    {
      "inputs": [
        {
          "internalType": "address",
          "name": "owner",
          "type": "address"
        },
        {
          "internalType": "address",
          "name": "spender",
          "type": "address"
        }
      ],
      "name": "allowance",
      "outputs": [
        {
          "internalType": "uint256",
          "name": "",
          "type": "uint256"
        }
      ],
      "stateMutability": "view",
      "type": "function",
      "constant": true
    },
    {
      "inputs": [
        {
          "internalType": "address",
          "name": "spender",
          "type": "address"
        },
        {
          "internalType": "uint256",
          "name": "amount",
          "type": "uint256"
        }
      ],
      "name": "approve",
      "outputs": [
        {
          "internalType": "bool",
          "name": "",
          "type": "bool"
        }
      ],
      "stateMutability": "nonpayable",
      "type": "function"
    },
    {
      "inputs": [
        {
          "internalType": "address",
          "name": "account",
          "type": "address"
        }
      ],
      "name": "balanceOf",
      "outputs": [
        {
          "internalType": "uint256",
          "name": "",
          "type": "uint256"
        }
      ],
      "stateMutability": "view",
      "type": "function",
      "constant": true
    },
    {
      "inputs": [],
      "name": "decimals",
      "outputs": [
        {
          "internalType": "uint8",
          "name": "",
          "type": "uint8"
        }
      ],
      "stateMutability": "view",
      "type": "function",
      "constant": true
    },
    {
      "inputs": [
        {
          "internalType": "address",
          "name": "spender",
          "type": "address"
        },
        {
          "internalType": "uint256",
          "name": "subtractedValue",
          "type": "uint256"
        }
      ],
      "name": "decreaseAllowance",
      "outputs": [
        {
          "internalType": "bool",
          "name": "",
          "type": "bool"
        }
      ],
      "stateMutability": "nonpayable",
      "type": "function"
    },
    {
      "inputs": [
        {
          "internalType": "bytes32",
          "name": "role",
          "type": "bytes32"
        }
      ],
      "name": "getRoleAdmin",
      "outputs": [
        {
          "internalType": "bytes32",
          "name": "",
          "type": "bytes32"
        }
      ],
      "stateMutability": "view",
      "type": "function",
      "constant": true
    },
    {
      "inputs": [
        {
          "internalType": "bytes32",
          "name": "role",
          "type": "bytes32"
        },
        {
          "internalType": "address",
          "name": "account",
          "type": "address"
        }
      ],
      "name": "grantRole",
      "outputs": [],
      "stateMutability": "nonpayable",
      "type": "function"
    },
    {
      "inputs": [
        {
          "internalType": "bytes32",
          "name": "role",
          "type": "bytes32"
        },
        {
          "internalType": "address",
          "name": "account",
          "type": "address"
        }
      ],
      "name": "hasRole",
      "outputs": [
        {
          "internalType": "bool",
          "name": "",
          "type": "bool"
        }
      ],
      "stateMutability": "view",
      "type": "function",
      "constant": true
    },
    {
      "inputs": [
        {
          "internalType": "address",
          "name": "spender",
          "type": "address"
        },
        {
          "internalType": "uint256",
          "name": "addedValue",
          "type": "uint256"
        }
      ],
      "name": "increaseAllowance",
      "outputs": [
        {
          "internalType": "bool",
          "name": "",
          "type": "bool"
        }
      ],
      "stateMutability": "nonpayable",
      "type": "function"
    },
    {
      "inputs": [],
      "name": "paused",
      "outputs": [
        {
          "internalType": "bool",
          "name": "",
          "type": "bool"
        }
      ],
      "stateMutability": "view",
      "type": "function",
      "constant": true
    },
    {
      "inputs": [
        {
          "internalType": "bytes32",
          "name": "role",
          "type": "bytes32"
        },
        {
          "internalType": "address",
          "name": "account",
          "type": "address"
        }
      ],
      "name": "renounceRole",
      "outputs": [],
      "stateMutability": "nonpayable",
      "type": "function"
    },
    {
      "inputs": [
        {
          "internalType": "bytes32",
          "name": "role",
          "type": "bytes32"
        },
        {
          "internalType": "address",
          "name": "account",
          "type": "address"
        }
      ],
      "name": "revokeRole",
      "outputs": [],
      "stateMutability": "nonpayable",
      "type": "function"
    },
    {
      "inputs": [
        {
          "internalType": "bytes4",
          "name": "interfaceId",
          "type": "bytes4"
        }
      ],
      "name": "supportsInterface",
      "outputs": [
        {
          "internalType": "bool",
          "name": "",
          "type": "bool"
        }
      ],
      "stateMutability": "view",
      "type": "function",
      "constant": true
    },
    {
      "inputs": [],
      "name": "totalSupply",
      "outputs": [
        {
          "internalType": "uint256",
          "name": "",
          "type": "uint256"
        }
      ],
      "stateMutability": "view",
      "type": "function",
      "constant": true
    },
    {
      "inputs": [
        {
          "internalType": "string",
          "name": "_name",
          "type": "string"
        },
        {
          "internalType": "string",
          "name": "_symbol",
          "type": "string"
        },
        {
          "internalType": "address",
          "name": "copyrightNFT",
          "type": "address"
        },
        {
          "internalType": "address",
          "name": "stakingNFT",
          "type": "address"
        },
        {
          "internalType": "address",
          "name": "manager",
          "type": "address"
        }
      ],
      "name": "initialize",
      "outputs": [],
      "stateMutability": "nonpayable",
      "type": "function"
    },
    {
      "inputs": [
        {
          "internalType": "uint256",
          "name": "amount",
          "type": "uint256"
        },
        {
          "internalType": "string",
          "name": "uri",
          "type": "string"
        }
      ],
      "name": "combine",
      "outputs": [],
      "stateMutability": "nonpayable",
      "type": "function"
    },
    {
      "inputs": [],
      "name": "pause",
      "outputs": [],
      "stateMutability": "nonpayable",
      "type": "function"
    },
    {
      "inputs": [],
      "name": "unpause",
      "outputs": [],
      "stateMutability": "nonpayable",
      "type": "function"
    },
    {
      "inputs": [
        {
          "internalType": "address",
          "name": "to",
          "type": "address"
        },
        {
          "internalType": "uint256",
          "name": "amount",
          "type": "uint256"
        }
      ],
      "name": "mint",
      "outputs": [],
      "stateMutability": "nonpayable",
      "type": "function"
    },
    {
      "inputs": [
        {
          "internalType": "address",
          "name": "to",
          "type": "address"
        },
        {
          "internalType": "uint256",
          "name": "amount",
          "type": "uint256"
        }
      ],
      "name": "burn",
      "outputs": [],
      "stateMutability": "nonpayable",
      "type": "function"
    },
    {
      "inputs": [
        {
          "internalType": "address",
          "name": "recipient",
          "type": "address"
        },
        {
          "internalType": "uint256",
          "name": "amount",
          "type": "uint256"
        }
      ],
      "name": "transfer",
      "outputs": [
        {
          "internalType": "bool",
          "name": "",
          "type": "bool"
        }
      ],
      "stateMutability": "nonpayable",
      "type": "function"
    },
    {
      "inputs": [
        {
          "internalType": "address",
          "name": "sender",
          "type": "address"
        },
        {
          "internalType": "address",
          "name": "recipient",
          "type": "address"
        },
        {
          "internalType": "uint256",
          "name": "amount",
          "type": "uint256"
        }
      ],
      "name": "transferFrom",
      "outputs": [
        {
          "internalType": "bool",
          "name": "",
          "type": "bool"
        }
      ],
      "stateMutability": "nonpayable",
      "type": "function"
    },
    {
      "inputs": [],
      "name": "name",
      "outputs": [
        {
          "internalType": "string",
          "name": "",
          "type": "string"
        }
      ],
      "stateMutability": "view",
      "type": "function",
      "constant": true
    },
    {
      "inputs": [],
      "name": "symbol",
      "outputs": [
        {
          "internalType": "string",
          "name": "",
          "type": "string"
        }
      ],
      "stateMutability": "view",
      "type": "function",
      "constant": true
    },
    {
      "inputs": [
        {
          "internalType": "address",
          "name": "to",
          "type": "address"
        },
        {
          "internalType": "uint256",
          "name": "amount",
          "type": "uint256"
        },
        {
          "internalType": "address",
          "name": "tokenAddress",
          "type": "address"
        }
      ],
      "name": "transferContractBalance",
      "outputs": [],
      "stateMutability": "nonpayable",
      "type": "function"
    },
    {
      "inputs": [
        {
          "internalType": "address",
          "name": "investor",
          "type": "address"
        },
        {
          "internalType": "address",
          "name": "fundingToken",
          "type": "address"
        },
        {
          "internalType": "uint256",
          "name": "amount",
          "type": "uint256"
        }
      ],
      "name": "returnFunds",
      "outputs": [],
      "stateMutability": "nonpayable",
      "type": "function"
    }
  ],
  "bytecode": "0x60806040523480156200001157600080fd5b5060405180606001604052806024815260200162003ac3602491396040518060400160405280600581526020017f70434f505200000000000000000000000000000000000000000000000000000081525081600390805190602001906200007a929190620000b7565b50806004908051906020019062000093929190620000b7565b5050506000600560006101000a81548160ff021916908315150217905550620001cc565b828054620000c59062000167565b90600052602060002090601f016020900481019282620000e9576000855562000135565b82601f106200010457805160ff191683800117855562000135565b8280016001018555821562000135579182015b828111156200013457825182559160200191906001019062000117565b5b50905062000144919062000148565b5090565b5b808211156200016357600081600090555060010162000149565b5090565b600060028204905060018216806200018057607f821691505b602082108114156200019757620001966200019d565b5b50919050565b7f4e487b7100000000000000000000000000000000000000000000000000000000600052602260045260246000fd5b6138e780620001dc6000396000f3fe608060405234801561001057600080fd5b50600436106101c45760003560e01c80638456cb59116100f9578063c575bfa511610097578063db0ed6a011610071578063db0ed6a014610505578063dd62ed3e14610521578063e1b0861914610551578063f71165ad1461056f576101c4565b8063c575bfa5146104b1578063cfc82dab146104cd578063d547741f146104e9576101c4565b80639dc29fac116100d35780639dc29fac14610417578063a217fddf14610433578063a457c2d714610451578063a9059cbb14610481576101c4565b80638456cb59146103bf57806391d14854146103c957806395d89b41146103f9576101c4565b8063313ce567116101665780633f4ba83a116101405780633f4ba83a1461034b57806340c10f19146103555780635c975abb1461037157806370a082311461038f576101c4565b8063313ce567146102e157806336568abe146102ff578063395093511461031b576101c4565b806318160ddd116101a257806318160ddd1461024757806323b872dd14610265578063248a9ca3146102955780632f2ff15d146102c5576101c4565b806301ffc9a7146101c957806306fdde03146101f9578063095ea7b314610217575b600080fd5b6101e360048036038101906101de91906126b9565b61058b565b6040516101f09190612cae565b60405180910390f35b610201610605565b60405161020e9190612d0d565b60405180910390f35b610231600480360381019061022c919061258c565b610697565b60405161023e9190612cae565b60405180910390f35b61024f6106b5565b60405161025c9190612f8f565b60405180910390f35b61027f600480360381019061027a9190612539565b6106bf565b60405161028c9190612cae565b60405180910390f35b6102af60048036038101906102aa919061264c565b61071d565b6040516102bc9190612cf2565b60405180910390f35b6102df60048036038101906102da9190612679565b61073d565b005b6102e9610766565b6040516102f69190612faa565b60405180910390f35b61031960048036038101906103149190612679565b61076f565b005b6103356004803603810190610330919061258c565b6107f2565b6040516103429190612cae565b60405180910390f35b61035361089e565b005b61036f600480360381019061036a919061258c565b6108be565b005b610379610972565b6040516103869190612cae565b60405180910390f35b6103a960048036038101906103a491906124cc565b610989565b6040516103b69190612f8f565b60405180910390f35b6103c76109d1565b005b6103e360048036038101906103de9190612679565b6109f1565b6040516103f09190612cae565b60405180910390f35b610401610a5c565b60405161040e9190612d0d565b60405180910390f35b610431600480360381019061042c919061258c565b610aee565b005b61043b610ba2565b6040516104489190612cf2565b60405180910390f35b61046b6004803603810190610466919061258c565b610ba9565b6040516104789190612cae565b60405180910390f35b61049b6004803603810190610496919061258c565b610c94565b6040516104a89190612cae565b60405180910390f35b6104cb60048036038101906104c69190612539565b610cf0565b005b6104e760048036038101906104e291906125cc565b610df4565b005b61050360048036038101906104fe9190612679565b610fc9565b005b61051f600480360381019061051a91906126e6565b610ff2565b005b61053b600480360381019061053691906124f9565b611197565b6040516105489190612f8f565b60405180910390f35b61055961121e565b6040516105669190612cf2565b60405180910390f35b610589600480360381019061058491906127cf565b611242565b005b60007f7965db0b000000000000000000000000000000000000000000000000000000007bffffffffffffffffffffffffffffffffffffffffffffffffffffffff1916827bffffffffffffffffffffffffffffffffffffffffffffffffffffffff191614806105fe57506105fd82611451565b5b9050919050565b606060088054610614906131f8565b80601f0160208091040260200160405190810160405280929190818152602001828054610640906131f8565b801561068d5780601f106106625761010080835404028352916020019161068d565b820191906000526020600020905b81548152906001019060200180831161067057829003601f168201915b5050505050905090565b60006106ab6106a46114bb565b84846114c3565b6001905092915050565b6000600254905090565b60006106c9610972565b15610709576040517f08c379a000000000000000000000000000000000000000000000000000000000815260040161070090612e4f565b60405180910390fd5b61071484848461168e565b90509392505050565b600060066000838152602001908152602001600020600101549050919050565b6107468261071d565b610757816107526114bb565b611786565b6107618383611823565b505050565b60006012905090565b6107776114bb565b73ffffffffffffffffffffffffffffffffffffffff168173ffffffffffffffffffffffffffffffffffffffff16146107e4576040517f08c379a00000000000000000000000000000000000000000000000000000000081526004016107db90612f4f565b60405180910390fd5b6107ee8282611904565b5050565b60006108946107ff6114bb565b84846001600061080d6114bb565b73ffffffffffffffffffffffffffffffffffffffff1673ffffffffffffffffffffffffffffffffffffffff16815260200190815260200160002060008873ffffffffffffffffffffffffffffffffffffffff1673ffffffffffffffffffffffffffffffffffffffff1681526020019081526020016000205461088f9190612fec565b6114c3565b6001905092915050565b6000801b6108b3816108ae6114bb565b611786565b6108bb6119e6565b50565b6000801b6108d3816108ce6114bb565b611786565b6108dd8383611a88565b600b60009054906101000a900473ffffffffffffffffffffffffffffffffffffffff1673ffffffffffffffffffffffffffffffffffffffff16634fe0b6336001846040518363ffffffff1660e01b815260040161093b929190612cc9565b600060405180830381600087803b15801561095557600080fd5b505af1158015610969573d6000803e3d6000fd5b50505050505050565b6000600560009054906101000a900460ff16905090565b60008060008373ffffffffffffffffffffffffffffffffffffffff1673ffffffffffffffffffffffffffffffffffffffff168152602001908152602001600020549050919050565b6000801b6109e6816109e16114bb565b611786565b6109ee611be8565b50565b60006006600084815260200190815260200160002060000160008373ffffffffffffffffffffffffffffffffffffffff1673ffffffffffffffffffffffffffffffffffffffff16815260200190815260200160002060009054906101000a900460ff16905092915050565b606060098054610a6b906131f8565b80601f0160208091040260200160405190810160405280929190818152602001828054610a97906131f8565b8015610ae45780601f10610ab957610100808354040283529160200191610ae4565b820191906000526020600020905b815481529060010190602001808311610ac757829003601f168201915b5050505050905090565b6000801b610b0381610afe6114bb565b611786565b610b0d8383611c8b565b600b60009054906101000a900473ffffffffffffffffffffffffffffffffffffffff1673ffffffffffffffffffffffffffffffffffffffff16634fe0b6336000846040518363ffffffff1660e01b8152600401610b6b929190612cc9565b600060405180830381600087803b158015610b8557600080fd5b505af1158015610b99573d6000803e3d6000fd5b50505050505050565b6000801b81565b60008060016000610bb86114bb565b73ffffffffffffffffffffffffffffffffffffffff1673ffffffffffffffffffffffffffffffffffffffff16815260200190815260200160002060008573ffffffffffffffffffffffffffffffffffffffff1673ffffffffffffffffffffffffffffffffffffffff16815260200190815260200160002054905082811015610c75576040517f08c379a0000000000000000000000000000000000000000000000000000000008152600401610c6c90612f2f565b60405180910390fd5b610c89610c806114bb565b858584036114c3565b600191505092915050565b6000610c9e610972565b15610cde576040517f08c379a0000000000000000000000000000000000000000000000000000000008152600401610cd590612e4f565b60405180910390fd5b610ce88383611e62565b905092915050565b7fbe4b8ff2378fafab5b779323935cef89cecb6bffd2e15c86526a218902195a35610d2281610d1d6114bb565b611786565b8273ffffffffffffffffffffffffffffffffffffffff1663a9059cbb85846040518363ffffffff1660e01b8152600401610d5d929190612c45565b602060405180830381600087803b158015610d7757600080fd5b505af1158015610d8b573d6000803e3d6000fd5b505050506040513d601f19601f82011682018060405250810190610daf919061261f565b610dee576040517f08c379a0000000000000000000000000000000000000000000000000000000008152600401610de590612e0f565b60405180910390fd5b50505050565b7fbe4b8ff2378fafab5b779323935cef89cecb6bffd2e15c86526a218902195a35610e2681610e216114bb565b611786565b60008273ffffffffffffffffffffffffffffffffffffffff166370a08231306040518263ffffffff1660e01b8152600401610e619190612c2a565b60206040518083038186803b158015610e7957600080fd5b505afa158015610e8d573d6000803e3d6000fd5b505050506040513d601f19601f82011682018060405250810190610eb191906127a2565b905083811015610ef6576040517f08c379a0000000000000000000000000000000000000000000000000000000008152600401610eed90612f0f565b60405180910390fd5b8273ffffffffffffffffffffffffffffffffffffffff1663a9059cbb86866040518363ffffffff1660e01b8152600401610f31929190612c45565b602060405180830381600087803b158015610f4b57600080fd5b505af1158015610f5f573d6000803e3d6000fd5b505050506040513d601f19601f82011682018060405250810190610f83919061261f565b610fc2576040517f08c379a0000000000000000000000000000000000000000000000000000000008152600401610fb990612e0f565b60405180910390fd5b5050505050565b610fd28261071d565b610fe381610fde6114bb565b611786565b610fed8383611904565b505050565b600760019054906101000a900460ff168061101a5750600760009054906101000a900460ff16155b611059576040517f08c379a000000000000000000000000000000000000000000000000000000000815260040161105090612e6f565b60405180910390fd5b6000600760019054906101000a900460ff1615905080156110ab576001600760016101000a81548160ff0219169083151502179055506001600760006101000a81548160ff0219169083151502179055505b8787600891906110bc929190612355565b508585600991906110ce929190612355565b5083600a60006101000a81548173ffffffffffffffffffffffffffffffffffffffff021916908373ffffffffffffffffffffffffffffffffffffffff16021790555082600b60006101000a81548173ffffffffffffffffffffffffffffffffffffffff021916908373ffffffffffffffffffffffffffffffffffffffff16021790555061115e6000801b33611e80565b61116b6000801b83611e80565b801561118d576000600760016101000a81548160ff0219169083151502179055505b5050505050505050565b6000600160008473ffffffffffffffffffffffffffffffffffffffff1673ffffffffffffffffffffffffffffffffffffffff16815260200190815260200160002060008373ffffffffffffffffffffffffffffffffffffffff1673ffffffffffffffffffffffffffffffffffffffff16815260200190815260200160002054905092915050565b7fbe4b8ff2378fafab5b779323935cef89cecb6bffd2e15c86526a218902195a3581565b8261124c33610989565b101561128d576040517f08c379a000000000000000000000000000000000000000000000000000000000815260040161128490612def565b60405180910390fd5b6000670de0b6b3a764000080856112a49190613042565b6112ae9190613073565b9050600081116112f3576040517f08c379a00000000000000000000000000000000000000000000000000000000081526004016112ea90612e2f565b60405180910390fd5b61131f600a60009054906101000a900473ffffffffffffffffffffffffffffffffffffffff1682610697565b506000600a60009054906101000a900473ffffffffffffffffffffffffffffffffffffffff1673ffffffffffffffffffffffffffffffffffffffff1663d3fc9864338487876040518563ffffffff1660e01b81526004016113839493929190612c6e565b602060405180830381600087803b15801561139d57600080fd5b505af11580156113b1573d6000803e3d6000fd5b505050506040513d601f19601f820116820180604052508101906113d591906127a2565b9050803373ffffffffffffffffffffffffffffffffffffffff167f4acdca0e1280767c5941bcb11ebcad7b152eec862beea1220f4b769f3bf00c97600a60009054906101000a900473ffffffffffffffffffffffffffffffffffffffff1688604051611442929190612c45565b60405180910390a35050505050565b60007f01ffc9a7000000000000000000000000000000000000000000000000000000007bffffffffffffffffffffffffffffffffffffffffffffffffffffffff1916827bffffffffffffffffffffffffffffffffffffffffffffffffffffffff1916149050919050565b600033905090565b600073ffffffffffffffffffffffffffffffffffffffff168373ffffffffffffffffffffffffffffffffffffffff161415611533576040517f08c379a000000000000000000000000000000000000000000000000000000000815260040161152a90612eef565b60405180910390fd5b600073ffffffffffffffffffffffffffffffffffffffff168273ffffffffffffffffffffffffffffffffffffffff1614156115a3576040517f08c379a000000000000000000000000000000000000000000000000000000000815260040161159a90612daf565b60405180910390fd5b80600160008573ffffffffffffffffffffffffffffffffffffffff1673ffffffffffffffffffffffffffffffffffffffff16815260200190815260200160002060008473ffffffffffffffffffffffffffffffffffffffff1673ffffffffffffffffffffffffffffffffffffffff168152602001908152602001600020819055508173ffffffffffffffffffffffffffffffffffffffff168373ffffffffffffffffffffffffffffffffffffffff167f8c5be1e5ebec7d5bd14f71427d1e84f3dd0314c0f7b2291e5b200ac8c7c3b925836040516116819190612f8f565b60405180910390a3505050565b600061169b848484611e8e565b6000600160008673ffffffffffffffffffffffffffffffffffffffff1673ffffffffffffffffffffffffffffffffffffffff16815260200190815260200160002060006116e66114bb565b73ffffffffffffffffffffffffffffffffffffffff1673ffffffffffffffffffffffffffffffffffffffff16815260200190815260200160002054905082811015611766576040517f08c379a000000000000000000000000000000000000000000000000000000000815260040161175d90612e8f565b60405180910390fd5b61177a856117726114bb565b8584036114c3565b60019150509392505050565b61179082826109f1565b61181f576117b58173ffffffffffffffffffffffffffffffffffffffff16601461210f565b6117c38360001c602061210f565b6040516020016117d4929190612bf0565b6040516020818303038152906040526040517f08c379a00000000000000000000000000000000000000000000000000000000081526004016118169190612d0d565b60405180910390fd5b5050565b61182d82826109f1565b6119005760016006600084815260200190815260200160002060000160008373ffffffffffffffffffffffffffffffffffffffff1673ffffffffffffffffffffffffffffffffffffffff16815260200190815260200160002060006101000a81548160ff0219169083151502179055506118a56114bb565b73ffffffffffffffffffffffffffffffffffffffff168173ffffffffffffffffffffffffffffffffffffffff16837f2f8788117e7eff1d82e926ec794901d17c78024a50270940304540a733656f0d60405160405180910390a45b5050565b61190e82826109f1565b156119e25760006006600084815260200190815260200160002060000160008373ffffffffffffffffffffffffffffffffffffffff1673ffffffffffffffffffffffffffffffffffffffff16815260200190815260200160002060006101000a81548160ff0219169083151502179055506119876114bb565b73ffffffffffffffffffffffffffffffffffffffff168173ffffffffffffffffffffffffffffffffffffffff16837ff6391f5c32d9c69d2a47ea670b442974b53935d1edc7fd64eb21e047a839171b60405160405180910390a45b5050565b6119ee610972565b611a2d576040517f08c379a0000000000000000000000000000000000000000000000000000000008152600401611a2490612d6f565b60405180910390fd5b6000600560006101000a81548160ff0219169083151502179055507f5db9ee0a495bf2e6ff9c91a7834c1ba4fdd244a5e8aa4e537bd38aeae4b073aa611a716114bb565b604051611a7e9190612c2a565b60405180910390a1565b600073ffffffffffffffffffffffffffffffffffffffff168273ffffffffffffffffffffffffffffffffffffffff161415611af8576040517f08c379a0000000000000000000000000000000000000000000000000000000008152600401611aef90612f6f565b60405180910390fd5b611b046000838361234b565b8060026000828254611b169190612fec565b92505081905550806000808473ffffffffffffffffffffffffffffffffffffffff1673ffffffffffffffffffffffffffffffffffffffff1681526020019081526020016000206000828254611b6b9190612fec565b925050819055508173ffffffffffffffffffffffffffffffffffffffff16600073ffffffffffffffffffffffffffffffffffffffff167fddf252ad1be2c89b69c2b068fc378daa952ba7f163c4a11628f55a4df523b3ef83604051611bd09190612f8f565b60405180910390a3611be460008383612350565b5050565b611bf0610972565b15611c30576040517f08c379a0000000000000000000000000000000000000000000000000000000008152600401611c2790612e4f565b60405180910390fd5b6001600560006101000a81548160ff0219169083151502179055507f62e78cea01bee320cd4e420270b5ea74000d11b0c9f74754ebdbfc544b05a258611c746114bb565b604051611c819190612c2a565b60405180910390a1565b600073ffffffffffffffffffffffffffffffffffffffff168273ffffffffffffffffffffffffffffffffffffffff161415611cfb576040517f08c379a0000000000000000000000000000000000000000000000000000000008152600401611cf290612eaf565b60405180910390fd5b611d078260008361234b565b60008060008473ffffffffffffffffffffffffffffffffffffffff1673ffffffffffffffffffffffffffffffffffffffff16815260200190815260200160002054905081811015611d8d576040517f08c379a0000000000000000000000000000000000000000000000000000000008152600401611d8490612d8f565b60405180910390fd5b8181036000808573ffffffffffffffffffffffffffffffffffffffff1673ffffffffffffffffffffffffffffffffffffffff168152602001908152602001600020819055508160026000828254611de491906130cd565b92505081905550600073ffffffffffffffffffffffffffffffffffffffff168373ffffffffffffffffffffffffffffffffffffffff167fddf252ad1be2c89b69c2b068fc378daa952ba7f163c4a11628f55a4df523b3ef84604051611e499190612f8f565b60405180910390a3611e5d83600084612350565b505050565b6000611e76611e6f6114bb565b8484611e8e565b6001905092915050565b611e8a8282611823565b5050565b600073ffffffffffffffffffffffffffffffffffffffff168373ffffffffffffffffffffffffffffffffffffffff161415611efe576040517f08c379a0000000000000000000000000000000000000000000000000000000008152600401611ef590612ecf565b60405180910390fd5b600073ffffffffffffffffffffffffffffffffffffffff168273ffffffffffffffffffffffffffffffffffffffff161415611f6e576040517f08c379a0000000000000000000000000000000000000000000000000000000008152600401611f6590612d4f565b60405180910390fd5b611f7983838361234b565b60008060008573ffffffffffffffffffffffffffffffffffffffff1673ffffffffffffffffffffffffffffffffffffffff16815260200190815260200160002054905081811015611fff576040517f08c379a0000000000000000000000000000000000000000000000000000000008152600401611ff690612dcf565b60405180910390fd5b8181036000808673ffffffffffffffffffffffffffffffffffffffff1673ffffffffffffffffffffffffffffffffffffffff16815260200190815260200160002081905550816000808573ffffffffffffffffffffffffffffffffffffffff1673ffffffffffffffffffffffffffffffffffffffff16815260200190815260200160002060008282546120929190612fec565b925050819055508273ffffffffffffffffffffffffffffffffffffffff168473ffffffffffffffffffffffffffffffffffffffff167fddf252ad1be2c89b69c2b068fc378daa952ba7f163c4a11628f55a4df523b3ef846040516120f69190612f8f565b60405180910390a3612109848484612350565b50505050565b6060600060028360026121229190613073565b61212c9190612fec565b67ffffffffffffffff811115612145576121446132e6565b5b6040519080825280601f01601f1916602001820160405280156121775781602001600182028036833780820191505090505b5090507f3000000000000000000000000000000000000000000000000000000000000000816000815181106121af576121ae6132b7565b5b60200101907effffffffffffffffffffffffffffffffffffffffffffffffffffffffffffff1916908160001a9053507f780000000000000000000000000000000000000000000000000000000000000081600181518110612213576122126132b7565b5b60200101907effffffffffffffffffffffffffffffffffffffffffffffffffffffffffffff1916908160001a905350600060018460026122539190613073565b61225d9190612fec565b90505b60018111156122fd577f3031323334353637383961626364656600000000000000000000000000000000600f86166010811061229f5761229e6132b7565b5b1a60f81b8282815181106122b6576122b56132b7565b5b60200101907effffffffffffffffffffffffffffffffffffffffffffffffffffffffffffff1916908160001a905350600485901c9450806122f6906131ce565b9050612260565b5060008414612341576040517f08c379a000000000000000000000000000000000000000000000000000000000815260040161233890612d2f565b60405180910390fd5b8091505092915050565b505050565b505050565b828054612361906131f8565b90600052602060002090601f01602090048101928261238357600085556123ca565b82601f1061239c57803560ff19168380011785556123ca565b828001600101855582156123ca579182015b828111156123c95782358255916020019190600101906123ae565b5b5090506123d791906123db565b5090565b5b808211156123f45760008160009055506001016123dc565b5090565b6000813590506124078161383e565b92915050565b60008151905061241c81613855565b92915050565b6000813590506124318161386c565b92915050565b60008135905061244681613883565b92915050565b60008083601f8401126124625761246161331a565b5b8235905067ffffffffffffffff81111561247f5761247e613315565b5b60208301915083600182028301111561249b5761249a61331f565b5b9250929050565b6000813590506124b18161389a565b92915050565b6000815190506124c68161389a565b92915050565b6000602082840312156124e2576124e1613329565b5b60006124f0848285016123f8565b91505092915050565b600080604083850312156125105761250f613329565b5b600061251e858286016123f8565b925050602061252f858286016123f8565b9150509250929050565b60008060006060848603121561255257612551613329565b5b6000612560868287016123f8565b9350506020612571868287016123f8565b9250506040612582868287016124a2565b9150509250925092565b600080604083850312156125a3576125a2613329565b5b60006125b1858286016123f8565b92505060206125c2858286016124a2565b9150509250929050565b6000806000606084860312156125e5576125e4613329565b5b60006125f3868287016123f8565b9350506020612604868287016124a2565b9250506040612615868287016123f8565b9150509250925092565b60006020828403121561263557612634613329565b5b60006126438482850161240d565b91505092915050565b60006020828403121561266257612661613329565b5b600061267084828501612422565b91505092915050565b600080604083850312156126905761268f613329565b5b600061269e85828601612422565b92505060206126af858286016123f8565b9150509250929050565b6000602082840312156126cf576126ce613329565b5b60006126dd84828501612437565b91505092915050565b600080600080600080600060a0888a03121561270557612704613329565b5b600088013567ffffffffffffffff81111561272357612722613324565b5b61272f8a828b0161244c565b9750975050602088013567ffffffffffffffff81111561275257612751613324565b5b61275e8a828b0161244c565b955095505060406127718a828b016123f8565b93505060606127828a828b016123f8565b92505060806127938a828b016123f8565b91505092959891949750929550565b6000602082840312156127b8576127b7613329565b5b60006127c6848285016124b7565b91505092915050565b6000806000604084860312156127e8576127e7613329565b5b60006127f6868287016124a2565b935050602084013567ffffffffffffffff81111561281757612816613324565b5b6128238682870161244c565b92509250509250925092565b61283881613101565b82525050565b61284781613113565b82525050565b6128568161311f565b82525050565b60006128688385612fd0565b935061287583858461318c565b61287e8361332e565b840190509392505050565b600061289482612fc5565b61289e8185612fd0565b93506128ae81856020860161319b565b6128b78161332e565b840191505092915050565b60006128cd82612fc5565b6128d78185612fe1565b93506128e781856020860161319b565b80840191505092915050565b6000612900602083612fd0565b915061290b8261333f565b602082019050919050565b6000612923602383612fd0565b915061292e82613368565b604082019050919050565b6000612946601483612fd0565b9150612951826133b7565b602082019050919050565b6000612969602283612fd0565b9150612974826133e0565b604082019050919050565b600061298c602283612fd0565b91506129978261342f565b604082019050919050565b60006129af602683612fd0565b91506129ba8261347e565b604082019050919050565b60006129d2601483612fd0565b91506129dd826134cd565b602082019050919050565b60006129f5601083612fd0565b9150612a00826134f6565b602082019050919050565b6000612a18601e83612fd0565b9150612a238261351f565b602082019050919050565b6000612a3b601083612fd0565b9150612a4682613548565b602082019050919050565b6000612a5e602e83612fd0565b9150612a6982613571565b604082019050919050565b6000612a81602883612fd0565b9150612a8c826135c0565b604082019050919050565b6000612aa4602183612fd0565b9150612aaf8261360f565b604082019050919050565b6000612ac7602583612fd0565b9150612ad28261365e565b604082019050919050565b6000612aea602483612fd0565b9150612af5826136ad565b604082019050919050565b6000612b0d601183612fd0565b9150612b18826136fc565b602082019050919050565b6000612b30601783612fe1565b9150612b3b82613725565b601782019050919050565b6000612b53602583612fd0565b9150612b5e8261374e565b604082019050919050565b6000612b76601183612fe1565b9150612b818261379d565b601182019050919050565b6000612b99602f83612fd0565b9150612ba4826137c6565b604082019050919050565b6000612bbc601f83612fd0565b9150612bc782613815565b602082019050919050565b612bdb81613175565b82525050565b612bea8161317f565b82525050565b6000612bfb82612b23565b9150612c0782856128c2565b9150612c1282612b69565b9150612c1e82846128c2565b91508190509392505050565b6000602082019050612c3f600083018461282f565b92915050565b6000604082019050612c5a600083018561282f565b612c676020830184612bd2565b9392505050565b6000606082019050612c83600083018761282f565b612c906020830186612bd2565b8181036040830152612ca381848661285c565b905095945050505050565b6000602082019050612cc3600083018461283e565b92915050565b6000604082019050612cde600083018561283e565b612ceb6020830184612bd2565b9392505050565b6000602082019050612d07600083018461284d565b92915050565b60006020820190508181036000830152612d278184612889565b905092915050565b60006020820190508181036000830152612d48816128f3565b9050919050565b60006020820190508181036000830152612d6881612916565b9050919050565b60006020820190508181036000830152612d8881612939565b9050919050565b60006020820190508181036000830152612da88161295c565b9050919050565b60006020820190508181036000830152612dc88161297f565b9050919050565b60006020820190508181036000830152612de8816129a2565b9050919050565b60006020820190508181036000830152612e08816129c5565b9050919050565b60006020820190508181036000830152612e28816129e8565b9050919050565b60006020820190508181036000830152612e4881612a0b565b9050919050565b60006020820190508181036000830152612e6881612a2e565b9050919050565b60006020820190508181036000830152612e8881612a51565b9050919050565b60006020820190508181036000830152612ea881612a74565b9050919050565b60006020820190508181036000830152612ec881612a97565b9050919050565b60006020820190508181036000830152612ee881612aba565b9050919050565b60006020820190508181036000830152612f0881612add565b9050919050565b60006020820190508181036000830152612f2881612b00565b9050919050565b60006020820190508181036000830152612f4881612b46565b9050919050565b60006020820190508181036000830152612f6881612b8c565b9050919050565b60006020820190508181036000830152612f8881612baf565b9050919050565b6000602082019050612fa46000830184612bd2565b92915050565b6000602082019050612fbf6000830184612be1565b92915050565b600081519050919050565b600082825260208201905092915050565b600081905092915050565b6000612ff782613175565b915061300283613175565b9250827fffffffffffffffffffffffffffffffffffffffffffffffffffffffffffffffff038211156130375761303661322a565b5b828201905092915050565b600061304d82613175565b915061305883613175565b92508261306857613067613259565b5b828204905092915050565b600061307e82613175565b915061308983613175565b9250817fffffffffffffffffffffffffffffffffffffffffffffffffffffffffffffffff04831182151516156130c2576130c161322a565b5b828202905092915050565b60006130d882613175565b91506130e383613175565b9250828210156130f6576130f561322a565b5b828203905092915050565b600061310c82613155565b9050919050565b60008115159050919050565b6000819050919050565b60007fffffffff0000000000000000000000000000000000000000000000000000000082169050919050565b600073ffffffffffffffffffffffffffffffffffffffff82169050919050565b6000819050919050565b600060ff82169050919050565b82818337600083830152505050565b60005b838110156131b957808201518184015260208101905061319e565b838111156131c8576000848401525b50505050565b60006131d982613175565b915060008214156131ed576131ec61322a565b5b600182039050919050565b6000600282049050600182168061321057607f821691505b6020821081141561322457613223613288565b5b50919050565b7f4e487b7100000000000000000000000000000000000000000000000000000000600052601160045260246000fd5b7f4e487b7100000000000000000000000000000000000000000000000000000000600052601260045260246000fd5b7f4e487b7100000000000000000000000000000000000000000000000000000000600052602260045260246000fd5b7f4e487b7100000000000000000000000000000000000000000000000000000000600052603260045260246000fd5b7f4e487b7100000000000000000000000000000000000000000000000000000000600052604160045260246000fd5b600080fd5b600080fd5b600080fd5b600080fd5b600080fd5b6000601f19601f8301169050919050565b7f537472696e67733a20686578206c656e67746820696e73756666696369656e74600082015250565b7f45524332303a207472616e7366657220746f20746865207a65726f206164647260008201527f6573730000000000000000000000000000000000000000000000000000000000602082015250565b7f5061757361626c653a206e6f7420706175736564000000000000000000000000600082015250565b7f45524332303a206275726e20616d6f756e7420657863656564732062616c616e60008201527f6365000000000000000000000000000000000000000000000000000000000000602082015250565b7f45524332303a20617070726f766520746f20746865207a65726f20616464726560008201527f7373000000000000000000000000000000000000000000000000000000000000602082015250565b7f45524332303a207472616e7366657220616d6f756e742065786365656473206260008201527f616c616e63650000000000000000000000000000000000000000000000000000602082015250565b7f496e73756666696369656e742062616c616e6365000000000000000000000000600082015250565b7f4661696c20746f207472616e7366657200000000000000000000000000000000600082015250565b7f496e73756666696369656e7420746f6b656e7320746f20636f6d62696e650000600082015250565b7f5061757361626c653a2070617573656400000000000000000000000000000000600082015250565b7f496e697469616c697a61626c653a20636f6e747261637420697320616c72656160008201527f647920696e697469616c697a6564000000000000000000000000000000000000602082015250565b7f45524332303a207472616e7366657220616d6f756e742065786365656473206160008201527f6c6c6f77616e6365000000000000000000000000000000000000000000000000602082015250565b7f45524332303a206275726e2066726f6d20746865207a65726f2061646472657360008201527f7300000000000000000000000000000000000000000000000000000000000000602082015250565b7f45524332303a207472616e736665722066726f6d20746865207a65726f20616460008201527f6472657373000000000000000000000000000000000000000000000000000000602082015250565b7f45524332303a20617070726f76652066726f6d20746865207a65726f2061646460008201527f7265737300000000000000000000000000000000000000000000000000000000602082015250565b7f496e737566696369656e742066756e6473000000000000000000000000000000600082015250565b7f416363657373436f6e74726f6c3a206163636f756e7420000000000000000000600082015250565b7f45524332303a2064656372656173656420616c6c6f77616e63652062656c6f7760008201527f207a65726f000000000000000000000000000000000000000000000000000000602082015250565b7f206973206d697373696e6720726f6c6520000000000000000000000000000000600082015250565b7f416363657373436f6e74726f6c3a2063616e206f6e6c792072656e6f756e636560008201527f20726f6c657320666f722073656c660000000000000000000000000000000000602082015250565b7f45524332303a206d696e7420746f20746865207a65726f206164647265737300600082015250565b61384781613101565b811461385257600080fd5b50565b61385e81613113565b811461386957600080fd5b50565b6138758161311f565b811461388057600080fd5b50565b61388c81613129565b811461389757600080fd5b50565b6138a381613175565b81146138ae57600080fd5b5056fea2646970667358221220c8f2b20b0c43facbaa6f7d024abd6457691b022d0490e8cd218217719d90865364736f6c63430008060033507269766920636f7079726967687420546f6b656e20496d706c656d656e746174696f6e",
  "immutableReferences": {},
  "source": "// SPDX-License-Identifier: MIT\npragma solidity ^0.8.0;\n\nimport \"@openzeppelin/contracts/token/ERC20/ERC20.sol\";\nimport \"@openzeppelin/contracts/security/Pausable.sol\";\nimport \"@openzeppelin/contracts/access/AccessControl.sol\";\nimport \"@openzeppelin/contracts/proxy/utils/Initializable.sol\";\nimport \"./CopyrightNFT.sol\";\nimport \"./StakingERC721.sol\";\n\n/**\n * @title the implementation to clone on each pod creation\n * @author Eric Nordelo\n */\ncontract CopyrightToken is ERC20, Pausable, AccessControl, Initializable {\n    bytes32 public constant WITHDRAW_MANAGER_ROLE = keccak256(\"WITHDRAW_MANAGER_ROLE\");\n    uint256 private constant PRICE_PRECISION = 10**18;\n\n    string private _proxiedName;\n    string private _proxiedSymbol;\n\n    address private _copyrightNFT;\n    StakingERC721 private _stakingNFT;\n\n    event Combined(address indexed owner, address nft, uint256 indexed nftId, uint256 amount);\n\n    // solhint-disable-next-line\n    constructor() ERC20(\"Privi copyright Token Implementation\", \"pCOPR\") {}\n\n    /**\n     * @notice ensures that the pod token contract begins paused and with the default admin\n     */\n    function initialize(\n        string calldata _name,\n        string calldata _symbol,\n        address copyrightNFT,\n        address stakingNFT,\n        address manager\n    ) external initializer {\n        _proxiedName = _name;\n        _proxiedSymbol = _symbol;\n        _copyrightNFT = copyrightNFT;\n        _stakingNFT = StakingERC721(stakingNFT);\n\n        _setupRole(DEFAULT_ADMIN_ROLE, msg.sender);\n        _setupRole(DEFAULT_ADMIN_ROLE, manager);\n    }\n\n    function combine(uint256 amount, string calldata uri) external {\n        require(balanceOf(msg.sender) >= amount, \"Insufficient balance\");\n        uint256 amountToCombine = (amount / 1e18) * 1e18;\n        require(amountToCombine > 0, \"Insufficient tokens to combine\");\n        approve(_copyrightNFT, amountToCombine);\n        uint256 nftId = CopyrightNFT(_copyrightNFT).mint(msg.sender, amountToCombine, uri);\n        emit Combined(msg.sender, _copyrightNFT, nftId, amount);\n    }\n\n    function pause() public onlyRole(DEFAULT_ADMIN_ROLE) {\n        _pause();\n    }\n\n    function unpause() public onlyRole(DEFAULT_ADMIN_ROLE) {\n        _unpause();\n    }\n\n    function mint(address to, uint256 amount) public onlyRole(DEFAULT_ADMIN_ROLE) {\n        _mint(to, amount);\n\n        _stakingNFT.writeSupplyCheckpoint(true, amount);\n    }\n\n    function burn(address to, uint256 amount) public onlyRole(DEFAULT_ADMIN_ROLE) {\n        _burn(to, amount);\n\n        _stakingNFT.writeSupplyCheckpoint(false, amount);\n    }\n\n    /**\n     * @dev ensures that only minting is allowed when paused\n     */\n    function transfer(address recipient, uint256 amount) public override whenNotPaused returns (bool) {\n        return super.transfer(recipient, amount);\n    }\n\n    /**\n     * @dev ensures that only minting is allowed when paused\n     */\n    function transferFrom(\n        address sender,\n        address recipient,\n        uint256 amount\n    ) public override whenNotPaused returns (bool) {\n        return super.transferFrom(sender, recipient, amount);\n    }\n\n    function name() public view virtual override returns (string memory) {\n        return _proxiedName;\n    }\n\n    function symbol() public view virtual override returns (string memory) {\n        return _proxiedSymbol;\n    }\n\n    function transferContractBalance(\n        address to,\n        uint256 amount,\n        address tokenAddress\n    ) external onlyRole(WITHDRAW_MANAGER_ROLE) {\n        uint256 balance = ERC20(tokenAddress).balanceOf(address(this));\n        require(balance >= amount, \"Insuficient funds\");\n\n        require(ERC20(tokenAddress).transfer(to, amount), \"Fail to transfer\");\n    }\n\n    /**\n     * @notice allows the return of funds after a pod disposal\n     */\n    function returnFunds(\n        address investor,\n        address fundingToken,\n        uint256 amount\n    ) external onlyRole(WITHDRAW_MANAGER_ROLE) {\n        require(ERC20(fundingToken).transfer(investor, amount), \"Fail to transfer\");\n    }\n}\n",
  "sourcePath": "/Users/angelsatorresalmenara/Desktop/privi-pods-smart-contract/contracts/implementations/CopyrightToken.sol",
  "compiler": {
    "name": "solc",
    "version": "0.8.6+commit.11564f7e.Emscripten.clang"
  },
  "schemaVersion": "3.4.3",
  "updatedAt": "2021-11-16T21:42:25.765Z",
  "networkType": "ethereum",
  "devdoc": {
    "author": "Eric Nordelo",
    "kind": "dev",
    "methods": {
      "allowance(address,address)": {
        "details": "See {IERC20-allowance}."
      },
      "approve(address,uint256)": {
        "details": "See {IERC20-approve}. Requirements: - `spender` cannot be the zero address."
      },
      "balanceOf(address)": {
        "details": "See {IERC20-balanceOf}."
      },
      "decimals()": {
        "details": "Returns the number of decimals used to get its user representation. For example, if `decimals` equals `2`, a balance of `505` tokens should be displayed to a user as `5.05` (`505 / 10 ** 2`). Tokens usually opt for a value of 18, imitating the relationship between Ether and Wei. This is the value {ERC20} uses, unless this function is overridden; NOTE: This information is only used for _display_ purposes: it in no way affects any of the arithmetic of the contract, including {IERC20-balanceOf} and {IERC20-transfer}."
      },
      "decreaseAllowance(address,uint256)": {
        "details": "Atomically decreases the allowance granted to `spender` by the caller. This is an alternative to {approve} that can be used as a mitigation for problems described in {IERC20-approve}. Emits an {Approval} event indicating the updated allowance. Requirements: - `spender` cannot be the zero address. - `spender` must have allowance for the caller of at least `subtractedValue`."
      },
      "getRoleAdmin(bytes32)": {
        "details": "Returns the admin role that controls `role`. See {grantRole} and {revokeRole}. To change a role's admin, use {_setRoleAdmin}."
      },
      "grantRole(bytes32,address)": {
        "details": "Grants `role` to `account`. If `account` had not been already granted `role`, emits a {RoleGranted} event. Requirements: - the caller must have ``role``'s admin role."
      },
      "hasRole(bytes32,address)": {
        "details": "Returns `true` if `account` has been granted `role`."
      },
      "increaseAllowance(address,uint256)": {
        "details": "Atomically increases the allowance granted to `spender` by the caller. This is an alternative to {approve} that can be used as a mitigation for problems described in {IERC20-approve}. Emits an {Approval} event indicating the updated allowance. Requirements: - `spender` cannot be the zero address."
      },
      "name()": {
        "details": "Returns the name of the token."
      },
      "paused()": {
        "details": "Returns true if the contract is paused, and false otherwise."
      },
      "renounceRole(bytes32,address)": {
        "details": "Revokes `role` from the calling account. Roles are often managed via {grantRole} and {revokeRole}: this function's purpose is to provide a mechanism for accounts to lose their privileges if they are compromised (such as when a trusted device is misplaced). If the calling account had been granted `role`, emits a {RoleRevoked} event. Requirements: - the caller must be `account`."
      },
      "revokeRole(bytes32,address)": {
        "details": "Revokes `role` from `account`. If `account` had been granted `role`, emits a {RoleRevoked} event. Requirements: - the caller must have ``role``'s admin role."
      },
      "supportsInterface(bytes4)": {
        "details": "See {IERC165-supportsInterface}."
      },
      "symbol()": {
        "details": "Returns the symbol of the token, usually a shorter version of the name."
      },
      "totalSupply()": {
        "details": "See {IERC20-totalSupply}."
      },
      "transfer(address,uint256)": {
        "details": "ensures that only minting is allowed when paused"
      },
      "transferFrom(address,address,uint256)": {
        "details": "ensures that only minting is allowed when paused"
      }
    },
    "title": "the implementation to clone on each pod creation",
    "version": 1
  },
  "userdoc": {
    "kind": "user",
    "methods": {
      "initialize(string,string,address,address,address)": {
        "notice": "ensures that the pod token contract begins paused and with the default admin"
      },
      "returnFunds(address,address,uint256)": {
        "notice": "allows the return of funds after a pod disposal"
      }
    },
    "version": 1
  }
}