{
  "contractName": "CreationManager",
  "abi": [
    {
      "inputs": [
        {
          "internalType": "address",
          "name": "_copyrightTokenImplementationAddress",
          "type": "address"
        },
        {
          "internalType": "address",
          "name": "_erc721WithRoyaltyAddress",
          "type": "address"
        },
        {
          "internalType": "address",
          "name": "_podWithdrawManagerAddress",
          "type": "address"
        }
      ],
      "stateMutability": "nonpayable",
      "type": "constructor"
    },
    {
      "anonymous": false,
      "inputs": [
        {
          "indexed": false,
          "internalType": "address",
          "name": "contractAddress",
          "type": "address"
        },
        {
          "indexed": false,
          "internalType": "string",
          "name": "name",
          "type": "string"
        },
        {
          "indexed": false,
          "internalType": "string",
          "name": "symbol",
          "type": "string"
        },
        {
          "indexed": false,
          "internalType": "address",
          "name": "copyrightNFT",
          "type": "address"
        }
      ],
      "name": "CopyrightTokenCreated",
      "type": "event"
    },
    {
      "anonymous": false,
      "inputs": [
        {
          "indexed": false,
          "internalType": "address",
          "name": "contractAddress",
          "type": "address"
        },
        {
          "indexed": false,
          "internalType": "string",
          "name": "name",
          "type": "string"
        },
        {
          "indexed": false,
          "internalType": "string",
          "name": "symbol",
          "type": "string"
        },
        {
          "indexed": false,
          "internalType": "address",
          "name": "copyrightAddress",
          "type": "address"
        },
        {
          "indexed": false,
          "internalType": "uint16",
          "name": "royaltyPercentage",
          "type": "uint16"
        }
      ],
      "name": "Erc721WithRoyaltyCreated",
      "type": "event"
    },
    {
      "inputs": [],
      "name": "DEFAULT_ADMIN_ROLE",
      "outputs": [
        {
          "internalType": "bytes32",
          "name": "",
          "type": "bytes32"
        }
      ],
      "stateMutability": "view",
      "type": "function",
      "constant": true
    },
    {
      "inputs": [],
      "name": "WITHDRAW_MANAGER_ROLE",
      "outputs": [
        {
          "internalType": "bytes32",
          "name": "",
          "type": "bytes32"
        }
      ],
      "stateMutability": "view",
      "type": "function",
      "constant": true
    },
    {
      "inputs": [],
      "name": "setPodManagerAddress",
      "outputs": [],
      "stateMutability": "nonpayable",
      "type": "function"
    },
    {
      "inputs": [
        {
          "internalType": "string",
          "name": "name",
          "type": "string"
        },
        {
          "internalType": "string",
          "name": "symbol",
          "type": "string"
        },
        {
          "internalType": "address",
          "name": "copyrightNFT",
          "type": "address"
        }
      ],
      "name": "createCopyrightToken",
      "outputs": [
        {
          "internalType": "address",
          "name": "",
          "type": "address"
        }
      ],
      "stateMutability": "nonpayable",
      "type": "function"
    },
    {
      "inputs": [
        {
          "internalType": "string",
          "name": "name",
          "type": "string"
        },
        {
          "internalType": "string",
          "name": "symbol",
          "type": "string"
        },
        {
          "internalType": "address",
          "name": "copyrightAddress",
          "type": "address"
        },
        {
          "internalType": "uint16",
          "name": "royaltyPercentage",
          "type": "uint16"
        }
      ],
      "name": "createErc721WithRoyalty",
      "outputs": [
        {
          "internalType": "address",
          "name": "",
          "type": "address"
        }
      ],
      "stateMutability": "nonpayable",
      "type": "function"
    }
  ],
  "bytecode": "0x60e060405234801561001057600080fd5b50604051610cd7380380610cd7833981810160405281019061003291906100f4565b8273ffffffffffffffffffffffffffffffffffffffff1660a08173ffffffffffffffffffffffffffffffffffffffff1660601b815250508173ffffffffffffffffffffffffffffffffffffffff1660c08173ffffffffffffffffffffffffffffffffffffffff1660601b815250508073ffffffffffffffffffffffffffffffffffffffff1660808173ffffffffffffffffffffffffffffffffffffffff1660601b81525050505050610195565b6000815190506100ee8161017e565b92915050565b60008060006060848603121561010d5761010c610179565b5b600061011b868287016100df565b935050602061012c868287016100df565b925050604061013d868287016100df565b9150509250925092565b600061015282610159565b9050919050565b600073ffffffffffffffffffffffffffffffffffffffff82169050919050565b600080fd5b61018781610147565b811461019257600080fd5b50565b60805160601c60a05160601c60c05160601c610b0d6101ca600039600061026a015260006103f7015260005050610b0d6000f3fe608060405234801561001057600080fd5b50600436106100565760003560e01c80622181b41461005b57806367e8daa714610065578063a217fddf14610095578063d0d6b107146100b3578063e1b08619146100e3575b600080fd5b610063610101565b005b61007f600480360381019061007a9190610679565b6101d2565b60405161008c91906107e3565b60405180910390f35b61009d610358565b6040516100aa91906108ba565b60405180910390f35b6100cd60048036038101906100c891906105e4565b61035f565b6040516100da91906107e3565b60405180910390f35b6100eb61046b565b6040516100f891906108ba565b60405180910390f35b600073ffffffffffffffffffffffffffffffffffffffff1660008054906101000a900473ffffffffffffffffffffffffffffffffffffffff1673ffffffffffffffffffffffffffffffffffffffff1614610190576040517f08c379a00000000000000000000000000000000000000000000000000000000081526004016101879061095a565b60405180910390fd5b336000806101000a81548173ffffffffffffffffffffffffffffffffffffffff021916908373ffffffffffffffffffffffffffffffffffffffff160217905550565b60008060009054906101000a900473ffffffffffffffffffffffffffffffffffffffff1673ffffffffffffffffffffffffffffffffffffffff163373ffffffffffffffffffffffffffffffffffffffff1614610263576040517f08c379a000000000000000000000000000000000000000000000000000000000815260040161025a9061093a565b60405180910390fd5b600061028e7f000000000000000000000000000000000000000000000000000000000000000061048f565b90508073ffffffffffffffffffffffffffffffffffffffff166355ba7f97898989898989336040518863ffffffff1660e01b81526004016102d597969594939291906108d5565b600060405180830381600087803b1580156102ef57600080fd5b505af1158015610303573d6000803e3d6000fd5b505050507ffc9fc9b80f7dfdf49c4edf2904ef94cd155edeee3980d3e615373ec5daca2bcd818989898989896040516103429796959493929190610855565b60405180910390a1809150509695505050505050565b6000801b81565b60008060009054906101000a900473ffffffffffffffffffffffffffffffffffffffff1673ffffffffffffffffffffffffffffffffffffffff163373ffffffffffffffffffffffffffffffffffffffff16146103f0576040517f08c379a00000000000000000000000000000000000000000000000000000000081526004016103e79061093a565b60405180910390fd5b600061041b7f000000000000000000000000000000000000000000000000000000000000000061048f565b90507fe2eb764d0ae61cba25ed19211fd8b70bc3f804c477b9551d4630b63897c41e82818888888888604051610456969594939291906107fe565b60405180910390a18091505095945050505050565b7fbe4b8ff2378fafab5b779323935cef89cecb6bffd2e15c86526a218902195a3581565b60006040517f3d602d80600a3d3981f3363d3d373d3d3d363d7300000000000000000000000081528260601b60148201527f5af43d82803e903d91602b57fd5bf3000000000000000000000000000000000060288201526037816000f0915050600073ffffffffffffffffffffffffffffffffffffffff168173ffffffffffffffffffffffffffffffffffffffff16141561055f576040517f08c379a00000000000000000000000000000000000000000000000000000000081526004016105569061097a565b60405180910390fd5b919050565b60008135905061057381610aa9565b92915050565b60008083601f84011261058f5761058e610a09565b5b8235905067ffffffffffffffff8111156105ac576105ab610a04565b5b6020830191508360018202830111156105c8576105c7610a0e565b5b9250929050565b6000813590506105de81610ac0565b92915050565b600080600080600060608688031215610600576105ff610a18565b5b600086013567ffffffffffffffff81111561061e5761061d610a13565b5b61062a88828901610579565b9550955050602086013567ffffffffffffffff81111561064d5761064c610a13565b5b61065988828901610579565b9350935050604061066c88828901610564565b9150509295509295909350565b6000806000806000806080878903121561069657610695610a18565b5b600087013567ffffffffffffffff8111156106b4576106b3610a13565b5b6106c089828a01610579565b9650965050602087013567ffffffffffffffff8111156106e3576106e2610a13565b5b6106ef89828a01610579565b9450945050604061070289828a01610564565b925050606061071389828a016105cf565b9150509295509295509295565b610729816109ab565b82525050565b610738816109bd565b82525050565b600061074a838561099a565b93506107578385846109f5565b61076083610a1d565b840190509392505050565b600061077860108361099a565b915061078382610a2e565b602082019050919050565b600061079b601f8361099a565b91506107a682610a57565b602082019050919050565b60006107be60168361099a565b91506107c982610a80565b602082019050919050565b6107dd816109c7565b82525050565b60006020820190506107f86000830184610720565b92915050565b60006080820190506108136000830189610720565b818103602083015261082681878961073e565b9050818103604083015261083b81858761073e565b905061084a6060830184610720565b979650505050505050565b600060a08201905061086a600083018a610720565b818103602083015261087d81888a61073e565b9050818103604083015261089281868861073e565b90506108a16060830185610720565b6108ae60808301846107d4565b98975050505050505050565b60006020820190506108cf600083018461072f565b92915050565b600060a08201905081810360008301526108f081898b61073e565b9050818103602083015261090581878961073e565b90506109146040830186610720565b61092160608301856107d4565b61092e6080830184610720565b98975050505050505050565b600060208201905081810360008301526109538161076b565b9050919050565b600060208201905081810360008301526109738161078e565b9050919050565b60006020820190508181036000830152610993816107b1565b9050919050565b600082825260208201905092915050565b60006109b6826109d5565b9050919050565b6000819050919050565b600061ffff82169050919050565b600073ffffffffffffffffffffffffffffffffffffffff82169050919050565b82818337600083830152505050565b600080fd5b600080fd5b600080fd5b600080fd5b600080fd5b6000601f19601f8301169050919050565b7f4f6e6c7920706f64206d616e6167657200000000000000000000000000000000600082015250565b7f506f64206d616e61676572206164647265737320616c72656164792073657400600082015250565b7f455243313136373a20637265617465206661696c656400000000000000000000600082015250565b610ab2816109ab565b8114610abd57600080fd5b50565b610ac9816109c7565b8114610ad457600080fd5b5056fea2646970667358221220ffa5375c991718d3c3a44fb8f68f0acc9fb9580e26d6aaf5056b5a619319c95e64736f6c63430008060033",
  "immutableReferences": {
    "9060": [
      {
        "length": 32,
        "start": 1015
      }
    ],
    "9062": [
      {
        "length": 32,
        "start": 618
      }
    ]
  },
  "source": "// SPDX-License-Identifier: MIT\npragma solidity ^0.8.0;\n\nimport \"@openzeppelin/contracts/proxy/Clones.sol\";\nimport \"./implementations/PodToken.sol\";\nimport \"./implementations/CopyrightToken.sol\";\nimport \"./implementations/ERC721Royalty/ERC721WithRoyalty.sol\";\n\ncontract CreationManager {\n    bytes32 public constant WITHDRAW_MANAGER_ROLE = keccak256(\"WITHDRAW_MANAGER_ROLE\");\n    bytes32 public constant DEFAULT_ADMIN_ROLE = 0x00;\n    address private immutable podWithdrawManagerAddress;\n\n    address private immutable copyrightTokenImplementationAddress;\n    address private immutable erc721WithRoyaltyAddress;\n    address private podManagerAddress;\n\n    /**\n     * @dev emitted when a CopyrightToken is deployed\n     * @param contractAddress the address of the deployed proxy contract\n     * @param name the name of the token\n     * @param symbol the symbol of the token\n     * @param copyrightNFT the address of the CopyrightNFT contract associated\n     */\n    event CopyrightTokenCreated(address contractAddress, string name, string symbol, address copyrightNFT);\n\n    /**\n     * @dev emitted when a Erc721WithRoyalty is deployed\n     * @param contractAddress the address of the deployed proxy contract\n     * @param name the name of the token\n     * @param symbol the symbol of the token\n     * @param copyrightAddress the address of the CopyrightToken contract associated\n     * @param royaltyPercentage the percentage defining the royalties\n     */\n    event Erc721WithRoyaltyCreated(\n        address contractAddress,\n        string name,\n        string symbol,\n        address copyrightAddress,\n        uint16 royaltyPercentage\n    );\n\n    modifier onlyPodManager() {\n        require(msg.sender == podManagerAddress, \"Only pod manager\");\n        _;\n    }\n\n    /**\n     * @notice assign the default roles\n     */\n    constructor(\n        address _copyrightTokenImplementationAddress,\n        address _erc721WithRoyaltyAddress,\n        address _podWithdrawManagerAddress\n    ) {\n        copyrightTokenImplementationAddress = _copyrightTokenImplementationAddress;\n        erc721WithRoyaltyAddress = _erc721WithRoyaltyAddress;\n        podWithdrawManagerAddress = _podWithdrawManagerAddress;\n    }\n\n    function setPodManagerAddress() external {\n        require(podManagerAddress == address(0), \"Pod manager address already set\");\n        podManagerAddress = msg.sender;\n    }\n\n    function createCopyrightToken(\n        string calldata name,\n        string calldata symbol,\n        address copyrightNFT\n    ) external onlyPodManager returns (address) {\n        address copyrightToken = Clones.clone(copyrightTokenImplementationAddress);\n\n        emit CopyrightTokenCreated(copyrightToken, name, symbol, copyrightNFT);\n\n        return (copyrightToken);\n    }\n\n    function createErc721WithRoyalty(\n        string calldata name,\n        string calldata symbol,\n        address copyrightAddress,\n        uint16 royaltyPercentage\n    ) external onlyPodManager returns (address) {\n        address erc721WithRoyalty = Clones.clone(erc721WithRoyaltyAddress);\n        ERC721WithRoyalty(erc721WithRoyalty).initialize(\n            name,\n            symbol,\n            copyrightAddress,\n            royaltyPercentage,\n            msg.sender\n        );\n\n        emit Erc721WithRoyaltyCreated(erc721WithRoyalty, name, symbol, copyrightAddress, royaltyPercentage);\n\n        return (erc721WithRoyalty);\n    }\n}\n",
  "sourcePath": "/Users/angelsatorresalmenara/Desktop/privi-pods-smart-contract/contracts/CreationManager.sol",
  "compiler": {
    "name": "solc",
    "version": "0.8.6+commit.11564f7e.Emscripten.clang"
  },
  "schemaVersion": "3.4.3",
  "updatedAt": "2021-11-16T21:43:00.267Z",
  "networkType": "ethereum",
  "devdoc": {
    "events": {
      "CopyrightTokenCreated(address,string,string,address)": {
        "details": "emitted when a CopyrightToken is deployed",
        "params": {
          "contractAddress": "the address of the deployed proxy contract",
          "copyrightNFT": "the address of the CopyrightNFT contract associated",
          "name": "the name of the token",
          "symbol": "the symbol of the token"
        }
      },
      "Erc721WithRoyaltyCreated(address,string,string,address,uint16)": {
        "details": "emitted when a Erc721WithRoyalty is deployed",
        "params": {
          "contractAddress": "the address of the deployed proxy contract",
          "copyrightAddress": "the address of the CopyrightToken contract associated",
          "name": "the name of the token",
          "royaltyPercentage": "the percentage defining the royalties",
          "symbol": "the symbol of the token"
        }
      }
    },
    "kind": "dev",
    "methods": {},
    "version": 1
  },
  "userdoc": {
    "kind": "user",
    "methods": {
      "constructor": {
        "notice": "assign the default roles"
      }
    },
    "version": 1
  }
}