{
  "contractName": "DistributionManager",
  "abi": [
    {
      "inputs": [
        {
          "internalType": "address",
          "name": "_nftBlueprint",
          "type": "address"
        }
      ],
      "stateMutability": "nonpayable",
      "type": "constructor"
    },
    {
      "anonymous": false,
      "inputs": [
        {
          "indexed": false,
          "internalType": "address",
          "name": "staker",
          "type": "address"
        },
        {
          "indexed": false,
          "internalType": "uint256",
          "name": "amount",
          "type": "uint256"
        },
        {
          "indexed": false,
          "internalType": "uint256",
          "name": "tokenId",
          "type": "uint256"
        }
      ],
      "name": "CopyrightStaked",
      "type": "event"
    },
    {
      "anonymous": false,
      "inputs": [
        {
          "indexed": false,
          "internalType": "address",
          "name": "destination",
          "type": "address"
        },
        {
          "indexed": false,
          "internalType": "uint256",
          "name": "amount",
          "type": "uint256"
        },
        {
          "indexed": false,
          "internalType": "uint256",
          "name": "tokenId",
          "type": "uint256"
        }
      ],
      "name": "CopyrightUnstaked",
      "type": "event"
    },
    {
      "anonymous": false,
      "inputs": [
        {
          "indexed": false,
          "internalType": "address",
          "name": "staker",
          "type": "address"
        },
        {
          "indexed": false,
          "internalType": "uint256",
          "name": "amount",
          "type": "uint256"
        },
        {
          "indexed": false,
          "internalType": "uint256",
          "name": "tokenId",
          "type": "uint256"
        }
      ],
      "name": "PodStaked",
      "type": "event"
    },
    {
      "anonymous": false,
      "inputs": [
        {
          "indexed": false,
          "internalType": "address",
          "name": "destination",
          "type": "address"
        },
        {
          "indexed": false,
          "internalType": "uint256",
          "name": "amount",
          "type": "uint256"
        },
        {
          "indexed": false,
          "internalType": "uint256",
          "name": "tokenId",
          "type": "uint256"
        }
      ],
      "name": "PodUnstaked",
      "type": "event"
    },
    {
      "anonymous": false,
      "inputs": [
        {
          "indexed": false,
          "internalType": "address",
          "name": "claimTo",
          "type": "address"
        },
        {
          "indexed": false,
          "internalType": "uint256",
          "name": "reward",
          "type": "uint256"
        },
        {
          "indexed": false,
          "internalType": "uint256",
          "name": "tokenId",
          "type": "uint256"
        }
      ],
      "name": "RewardsClaimed",
      "type": "event"
    },
    {
      "inputs": [],
      "name": "DECIMALS",
      "outputs": [
        {
          "internalType": "uint256",
          "name": "",
          "type": "uint256"
        }
      ],
      "stateMutability": "view",
      "type": "function",
      "constant": true
    },
    {
      "inputs": [],
      "name": "copyrightFractionStakingNFT",
      "outputs": [
        {
          "internalType": "address",
          "name": "",
          "type": "address"
        }
      ],
      "stateMutability": "view",
      "type": "function",
      "constant": true
    },
    {
      "inputs": [],
      "name": "copyrightFractionToken",
      "outputs": [
        {
          "internalType": "address",
          "name": "",
          "type": "address"
        }
      ],
      "stateMutability": "view",
      "type": "function",
      "constant": true
    },
    {
      "inputs": [],
      "name": "cumulativeRevenue",
      "outputs": [
        {
          "internalType": "uint256",
          "name": "",
          "type": "uint256"
        }
      ],
      "stateMutability": "view",
      "type": "function",
      "constant": true
    },
    {
      "inputs": [],
      "name": "investorShare",
      "outputs": [
        {
          "internalType": "uint256",
          "name": "",
          "type": "uint256"
        }
      ],
      "stateMutability": "view",
      "type": "function",
      "constant": true
    },
    {
      "inputs": [],
      "name": "lastRoyalty",
      "outputs": [
        {
          "internalType": "uint256",
          "name": "",
          "type": "uint256"
        }
      ],
      "stateMutability": "view",
      "type": "function",
      "constant": true
    },
    {
      "inputs": [],
      "name": "podFundingToken",
      "outputs": [
        {
          "internalType": "address",
          "name": "",
          "type": "address"
        }
      ],
      "stateMutability": "view",
      "type": "function",
      "constant": true
    },
    {
      "inputs": [],
      "name": "podToken",
      "outputs": [
        {
          "internalType": "address",
          "name": "",
          "type": "address"
        }
      ],
      "stateMutability": "view",
      "type": "function",
      "constant": true
    },
    {
      "inputs": [],
      "name": "podTokenStakingNFT",
      "outputs": [
        {
          "internalType": "address",
          "name": "",
          "type": "address"
        }
      ],
      "stateMutability": "view",
      "type": "function",
      "constant": true
    },
    {
      "inputs": [],
      "name": "totalCFStaked",
      "outputs": [
        {
          "internalType": "uint256",
          "name": "",
          "type": "uint256"
        }
      ],
      "stateMutability": "view",
      "type": "function",
      "constant": true
    },
    {
      "inputs": [],
      "name": "totalPTStaked",
      "outputs": [
        {
          "internalType": "uint256",
          "name": "",
          "type": "uint256"
        }
      ],
      "stateMutability": "view",
      "type": "function",
      "constant": true
    },
    {
      "inputs": [],
      "name": "totalSharesCopyright",
      "outputs": [
        {
          "internalType": "uint256",
          "name": "",
          "type": "uint256"
        }
      ],
      "stateMutability": "view",
      "type": "function",
      "constant": true
    },
    {
      "inputs": [],
      "name": "totalSharesInvestor",
      "outputs": [
        {
          "internalType": "uint256",
          "name": "",
          "type": "uint256"
        }
      ],
      "stateMutability": "view",
      "type": "function",
      "constant": true
    },
    {
      "inputs": [
        {
          "internalType": "address",
          "name": "_podToken",
          "type": "address"
        },
        {
          "internalType": "address",
          "name": "_podFundingToken",
          "type": "address"
        },
        {
          "internalType": "address",
          "name": "_copyrightFractionToken",
          "type": "address"
        },
        {
          "internalType": "string",
          "name": "podName",
          "type": "string"
        },
        {
          "internalType": "string",
          "name": "podSymbol",
          "type": "string"
        },
        {
          "internalType": "uint256",
          "name": "_investorShare",
          "type": "uint256"
        }
      ],
      "name": "initialize",
      "outputs": [],
      "stateMutability": "nonpayable",
      "type": "function"
    },
    {
      "inputs": [
        {
          "internalType": "uint256",
          "name": "amount",
          "type": "uint256"
        }
      ],
      "name": "stakeCopyrightFractions",
      "outputs": [],
      "stateMutability": "nonpayable",
      "type": "function"
    },
    {
      "inputs": [
        {
          "internalType": "uint256",
          "name": "amount",
          "type": "uint256"
        }
      ],
      "name": "stakePodTokens",
      "outputs": [],
      "stateMutability": "nonpayable",
      "type": "function"
    },
    {
      "inputs": [
        {
          "internalType": "uint256",
          "name": "id",
          "type": "uint256"
        },
        {
          "internalType": "uint256",
          "name": "amount",
          "type": "uint256"
        }
      ],
      "name": "unstakeCopyrightFractions",
      "outputs": [],
      "stateMutability": "nonpayable",
      "type": "function"
    },
    {
      "inputs": [
        {
          "internalType": "uint256",
          "name": "id",
          "type": "uint256"
        },
        {
          "internalType": "uint256",
          "name": "amount",
          "type": "uint256"
        }
      ],
      "name": "unstakePodTokens",
      "outputs": [],
      "stateMutability": "nonpayable",
      "type": "function"
    },
    {
      "inputs": [
        {
          "internalType": "uint256",
          "name": "id",
          "type": "uint256"
        }
      ],
      "name": "claimCopyrightFractionRewards",
      "outputs": [],
      "stateMutability": "nonpayable",
      "type": "function"
    },
    {
      "inputs": [
        {
          "internalType": "uint256",
          "name": "id",
          "type": "uint256"
        }
      ],
      "name": "claimPodTokenRewards",
      "outputs": [],
      "stateMutability": "nonpayable",
      "type": "function"
    },
    {
      "inputs": [
        {
          "internalType": "uint256",
          "name": "id",
          "type": "uint256"
        }
      ],
      "name": "getCopyrightRewards",
      "outputs": [
        {
          "internalType": "uint256",
          "name": "reward",
          "type": "uint256"
        }
      ],
      "stateMutability": "view",
      "type": "function",
      "constant": true
    },
    {
      "inputs": [
        {
          "internalType": "uint256",
          "name": "id",
          "type": "uint256"
        }
      ],
      "name": "getPodRewards",
      "outputs": [
        {
          "internalType": "uint256",
          "name": "reward",
          "type": "uint256"
        }
      ],
      "stateMutability": "view",
      "type": "function",
      "constant": true
    },
    {
      "inputs": [
        {
          "internalType": "address",
          "name": "owner",
          "type": "address"
        }
      ],
      "name": "getCopyrightStakingPositions",
      "outputs": [
        {
          "internalType": "uint256[]",
          "name": "",
          "type": "uint256[]"
        }
      ],
      "stateMutability": "view",
      "type": "function",
      "constant": true
    },
    {
      "inputs": [
        {
          "internalType": "address",
          "name": "owner",
          "type": "address"
        }
      ],
      "name": "getPodStakingPositions",
      "outputs": [
        {
          "internalType": "uint256[]",
          "name": "",
          "type": "uint256[]"
        }
      ],
      "stateMutability": "view",
      "type": "function",
      "constant": true
    }
  ],
  "bytecode": "0x60a06040523480156200001157600080fd5b5060405162003af138038062003af183398181016040528101906200003791906200008c565b8073ffffffffffffffffffffffffffffffffffffffff1660808173ffffffffffffffffffffffffffffffffffffffff1660601b815250505062000111565b6000815190506200008681620000f7565b92915050565b600060208284031215620000a557620000a4620000f2565b5b6000620000b58482850162000075565b91505092915050565b6000620000cb82620000d2565b9050919050565b600073ffffffffffffffffffffffffffffffffffffffff82169050919050565b600080fd5b6200010281620000be565b81146200010e57600080fd5b50565b60805160601c6139ba6200013760003960008181611021015261108a01526139ba6000f3fe608060405234801561001057600080fd5b50600436106101585760003560e01c8063acbe4484116100c3578063cfd405eb1161007c578063cfd405eb146103a5578063d7df4413146103c1578063ee8b64cc146103f1578063f053eac21461040f578063f60b7bce1461042d578063ffd4b8f11461044957610158565b8063acbe4484146102e3578063b21132bb146102ff578063b24721af1461031b578063b95d1f8914610339578063c83b8d3a14610357578063ca7444fd1461038757610158565b80633f0e91b1116101155780633f0e91b114610221578063418e92151461023d578063513345471461025b5780636f3c94ea14610277578063724fcd0114610295578063a95084de146102b357610158565b80630ad9c0f81461015d5780630fe5c2361461017b578063212f3c251461019957806322333958146101c9578063251ab92a146101e55780632e0f262514610203575b600080fd5b610165610467565b6040516101729190612dcd565b60405180910390f35b61018361048d565b604051610190919061316e565b60405180910390f35b6101b360048036038101906101ae91906129bc565b610493565b6040516101c0919061316e565b60405180910390f35b6101e360048036038101906101de91906129bc565b61054b565b005b6101ed610755565b6040516101fa9190612dcd565b60405180910390f35b61020b61077b565b604051610218919061316e565b60405180910390f35b61023b600480360381019061023691906129bc565b610787565b005b610245610991565b604051610252919061316e565b60405180910390f35b61027560048036038101906102709190612a16565b610997565b005b61027f610c44565b60405161028c919061316e565b60405180910390f35b61029d610c4a565b6040516102aa919061316e565b60405180910390f35b6102cd60048036038101906102c89190612827565b610c50565b6040516102da9190612e7f565b60405180910390f35b6102fd60048036038101906102f89190612881565b610d09565b005b61031960048036038101906103149190612a16565b6112b9565b005b610323611566565b604051610330919061316e565b60405180910390f35b61034161156c565b60405161034e919061316e565b60405180910390f35b610371600480360381019061036c9190612827565b611572565b60405161037e9190612e7f565b60405180910390f35b61038f61162b565b60405161039c9190612dcd565b60405180910390f35b6103bf60048036038101906103ba91906129bc565b611651565b005b6103db60048036038101906103d691906129bc565b6118a4565b6040516103e8919061316e565b60405180910390f35b6103f961195c565b604051610406919061316e565b60405180910390f35b610417611962565b6040516104249190612dcd565b60405180910390f35b610447600480360381019061044291906129bc565b611988565b005b610451611bdb565b60405161045e9190612dcd565b60405180910390f35b600160009054906101000a900473ffffffffffffffffffffffffffffffffffffffff1681565b60035481565b6000600a60009054906101000a900473ffffffffffffffffffffffffffffffffffffffff1673ffffffffffffffffffffffffffffffffffffffff166313ed0846836008546040518363ffffffff1660e01b81526004016104f4929190613205565b60206040518083038186803b15801561050c57600080fd5b505afa158015610520573d6000803e3d6000fd5b505050506040513d601f19601f8201168201806040525081019061054491906129e9565b9050919050565b3373ffffffffffffffffffffffffffffffffffffffff16600a60009054906101000a900473ffffffffffffffffffffffffffffffffffffffff1673ffffffffffffffffffffffffffffffffffffffff16636352211e836040518263ffffffff1660e01b81526004016105bd919061316e565b60206040518083038186803b1580156105d557600080fd5b505afa1580156105e9573d6000803e3d6000fd5b505050506040513d601f19601f8201168201806040525081019061060d9190612854565b73ffffffffffffffffffffffffffffffffffffffff1614610663576040517f08c379a000000000000000000000000000000000000000000000000000000000815260040161065a90612efa565b60405180910390fd5b610723600454600060029054906101000a900473ffffffffffffffffffffffffffffffffffffffff1673ffffffffffffffffffffffffffffffffffffffff166370a08231306040518263ffffffff1660e01b81526004016106c49190612dcd565b60206040518083038186803b1580156106dc57600080fd5b505afa1580156106f0573d6000803e3d6000fd5b505050506040513d601f19601f8201168201806040525081019061071491906129e9565b61071e91906133fc565b611c01565b61075281600a60009054906101000a900473ffffffffffffffffffffffffffffffffffffffff16600854611cdf565b50565b600b60009054906101000a900473ffffffffffffffffffffffffffffffffffffffff1681565b670de0b6b3a764000081565b3373ffffffffffffffffffffffffffffffffffffffff16600b60009054906101000a900473ffffffffffffffffffffffffffffffffffffffff1673ffffffffffffffffffffffffffffffffffffffff16636352211e836040518263ffffffff1660e01b81526004016107f9919061316e565b60206040518083038186803b15801561081157600080fd5b505afa158015610825573d6000803e3d6000fd5b505050506040513d601f19601f820116820180604052508101906108499190612854565b73ffffffffffffffffffffffffffffffffffffffff161461089f576040517f08c379a000000000000000000000000000000000000000000000000000000000815260040161089690612efa565b60405180910390fd5b61095f600454600060029054906101000a900473ffffffffffffffffffffffffffffffffffffffff1673ffffffffffffffffffffffffffffffffffffffff166370a08231306040518263ffffffff1660e01b81526004016109009190612dcd565b60206040518083038186803b15801561091857600080fd5b505afa15801561092c573d6000803e3d6000fd5b505050506040513d601f19601f8201168201806040525081019061095091906129e9565b61095a91906133fc565b611c01565b61098e81600b60009054906101000a900473ffffffffffffffffffffffffffffffffffffffff16600954611cdf565b50565b60065481565b3373ffffffffffffffffffffffffffffffffffffffff16600a60009054906101000a900473ffffffffffffffffffffffffffffffffffffffff1673ffffffffffffffffffffffffffffffffffffffff16636352211e846040518263ffffffff1660e01b8152600401610a09919061316e565b60206040518083038186803b158015610a2157600080fd5b505afa158015610a35573d6000803e3d6000fd5b505050506040513d601f19601f82011682018060405250810190610a599190612854565b73ffffffffffffffffffffffffffffffffffffffff1614610aaf576040517f08c379a0000000000000000000000000000000000000000000000000000000008152600401610aa690612f4f565b60405180910390fd5b610b6f600454600060029054906101000a900473ffffffffffffffffffffffffffffffffffffffff1673ffffffffffffffffffffffffffffffffffffffff166370a08231306040518263ffffffff1660e01b8152600401610b109190612dcd565b60206040518083038186803b158015610b2857600080fd5b505afa158015610b3c573d6000803e3d6000fd5b505050506040513d601f19601f82011682018060405250810190610b6091906129e9565b610b6a91906133fc565b611c01565b610b9f82600a60009054906101000a900473ffffffffffffffffffffffffffffffffffffffff1683600854611f27565b8060066000828254610bb191906133fc565b925050819055507ffdf9a3654680dc9368e434118e2f3e965f49622e51340fe10541b984963c76cc338284604051610beb93929190612e48565b60405180910390a1610c403382600260009054906101000a900473ffffffffffffffffffffffffffffffffffffffff1673ffffffffffffffffffffffffffffffffffffffff166121729092919063ffffffff16565b5050565b60045481565b60055481565b6060600b60009054906101000a900473ffffffffffffffffffffffffffffffffffffffff1673ffffffffffffffffffffffffffffffffffffffff16633eeb530e836040518263ffffffff1660e01b8152600401610cad9190612dcd565b60006040518083038186803b158015610cc557600080fd5b505afa158015610cd9573d6000803e3d6000fd5b505050506040513d6000823e3d601f19601f82011682018060405250810190610d029190612946565b9050919050565b600060019054906101000a900460ff1680610d2f575060008054906101000a900460ff16155b610d6e576040517f08c379a0000000000000000000000000000000000000000000000000000000008152600401610d6590613004565b60405180910390fd5b60008060019054906101000a900460ff161590508015610dbe576001600060016101000a81548160ff02191690831515021790555060016000806101000a81548160ff0219169083151502179055505b600073ffffffffffffffffffffffffffffffffffffffff168773ffffffffffffffffffffffffffffffffffffffff161415610e2e576040517f08c379a0000000000000000000000000000000000000000000000000000000008152600401610e2590613024565b60405180910390fd5b600073ffffffffffffffffffffffffffffffffffffffff168673ffffffffffffffffffffffffffffffffffffffff161415610e9e576040517f08c379a0000000000000000000000000000000000000000000000000000000008152600401610e9590613044565b60405180910390fd5b600073ffffffffffffffffffffffffffffffffffffffff168573ffffffffffffffffffffffffffffffffffffffff161415610f0e576040517f08c379a0000000000000000000000000000000000000000000000000000000008152600401610f05906130ee565b60405180910390fd5b670de0b6b3a7640000821115610f59576040517f08c379a0000000000000000000000000000000000000000000000000000000008152600401610f50906130ce565b60405180910390fd5b86600160006101000a81548173ffffffffffffffffffffffffffffffffffffffff021916908373ffffffffffffffffffffffffffffffffffffffff16021790555085600060026101000a81548173ffffffffffffffffffffffffffffffffffffffff021916908373ffffffffffffffffffffffffffffffffffffffff16021790555084600260006101000a81548173ffffffffffffffffffffffffffffffffffffffff021916908373ffffffffffffffffffffffffffffffffffffffff1602179055506110457f00000000000000000000000000000000000000000000000000000000000000006121f8565b600a60006101000a81548173ffffffffffffffffffffffffffffffffffffffff021916908373ffffffffffffffffffffffffffffffffffffffff1602179055506110ae7f00000000000000000000000000000000000000000000000000000000000000006121f8565b600b60006101000a81548173ffffffffffffffffffffffffffffffffffffffff021916908373ffffffffffffffffffffffffffffffffffffffff16021790555081600381905550600a60009054906101000a900473ffffffffffffffffffffffffffffffffffffffff1673ffffffffffffffffffffffffffffffffffffffff16634cd88b76856040516020016111449190612f1a565b604051602081830303815290604052856040516020016111649190612f6f565b6040516020818303038152906040526040518363ffffffff1660e01b8152600401611190929190612ec3565b600060405180830381600087803b1580156111aa57600080fd5b505af11580156111be573d6000803e3d6000fd5b50505050600b60009054906101000a900473ffffffffffffffffffffffffffffffffffffffff1673ffffffffffffffffffffffffffffffffffffffff16634cd88b76856040516020016112119190613064565b604051602081830303815290604052856040516020016112319190613099565b6040516020818303038152906040526040518363ffffffff1660e01b815260040161125d929190612ec3565b600060405180830381600087803b15801561127757600080fd5b505af115801561128b573d6000803e3d6000fd5b5050505080156112b05760008060016101000a81548160ff0219169083151502179055505b50505050505050565b3373ffffffffffffffffffffffffffffffffffffffff16600b60009054906101000a900473ffffffffffffffffffffffffffffffffffffffff1673ffffffffffffffffffffffffffffffffffffffff16636352211e846040518263ffffffff1660e01b815260040161132b919061316e565b60206040518083038186803b15801561134357600080fd5b505afa158015611357573d6000803e3d6000fd5b505050506040513d601f19601f8201168201806040525081019061137b9190612854565b73ffffffffffffffffffffffffffffffffffffffff16146113d1576040517f08c379a00000000000000000000000000000000000000000000000000000000081526004016113c890612f4f565b60405180910390fd5b611491600454600060029054906101000a900473ffffffffffffffffffffffffffffffffffffffff1673ffffffffffffffffffffffffffffffffffffffff166370a08231306040518263ffffffff1660e01b81526004016114329190612dcd565b60206040518083038186803b15801561144a57600080fd5b505afa15801561145e573d6000803e3d6000fd5b505050506040513d601f19601f8201168201806040525081019061148291906129e9565b61148c91906133fc565b611c01565b6114c182600b60009054906101000a900473ffffffffffffffffffffffffffffffffffffffff1683600954611f27565b80600760008282546114d391906133fc565b925050819055507f17e4f83228c3af7ef7804d6672fb4934d4ad6fad772fa00e6f31b7876c897d2033828460405161150d93929190612e48565b60405180910390a16115623382600160009054906101000a900473ffffffffffffffffffffffffffffffffffffffff1673ffffffffffffffffffffffffffffffffffffffff166121729092919063ffffffff16565b5050565b60075481565b60095481565b6060600a60009054906101000a900473ffffffffffffffffffffffffffffffffffffffff1673ffffffffffffffffffffffffffffffffffffffff16633eeb530e836040518263ffffffff1660e01b81526004016115cf9190612dcd565b60006040518083038186803b1580156115e757600080fd5b505afa1580156115fb573d6000803e3d6000fd5b505050506040513d6000823e3d601f19601f820116820180604052508101906116249190612946565b9050919050565b600a60009054906101000a900473ffffffffffffffffffffffffffffffffffffffff1681565b80600260009054906101000a900473ffffffffffffffffffffffffffffffffffffffff1673ffffffffffffffffffffffffffffffffffffffff166370a08231336040518263ffffffff1660e01b81526004016116ad9190612dcd565b60206040518083038186803b1580156116c557600080fd5b505afa1580156116d9573d6000803e3d6000fd5b505050506040513d601f19601f820116820180604052508101906116fd91906129e9565b101561173e576040517f08c379a000000000000000000000000000000000000000000000000000000000815260040161173590612fc4565b60405180910390fd5b6117466122cd565b8060066000828254611758919061331b565b925050819055506000600a60009054906101000a900473ffffffffffffffffffffffffffffffffffffffff1673ffffffffffffffffffffffffffffffffffffffff166375a08cce33846008546040518463ffffffff1660e01b81526004016117c293929190612e48565b602060405180830381600087803b1580156117dc57600080fd5b505af11580156117f0573d6000803e3d6000fd5b505050506040513d601f19601f8201168201806040525081019061181491906129e9565b90507fff861ee41e267a74f6e2f232254749b0ea2ee7b71691af87348b651f5beccd0e33838360405161184993929190612e48565b60405180910390a16118a0333084600260009054906101000a900473ffffffffffffffffffffffffffffffffffffffff1673ffffffffffffffffffffffffffffffffffffffff166123ba909392919063ffffffff16565b5050565b6000600b60009054906101000a900473ffffffffffffffffffffffffffffffffffffffff1673ffffffffffffffffffffffffffffffffffffffff166313ed0846836009546040518363ffffffff1660e01b8152600401611905929190613205565b60206040518083038186803b15801561191d57600080fd5b505afa158015611931573d6000803e3d6000fd5b505050506040513d601f19601f8201168201806040525081019061195591906129e9565b9050919050565b60085481565b600260009054906101000a900473ffffffffffffffffffffffffffffffffffffffff1681565b80600160009054906101000a900473ffffffffffffffffffffffffffffffffffffffff1673ffffffffffffffffffffffffffffffffffffffff166370a08231336040518263ffffffff1660e01b81526004016119e49190612dcd565b60206040518083038186803b1580156119fc57600080fd5b505afa158015611a10573d6000803e3d6000fd5b505050506040513d601f19601f82011682018060405250810190611a3491906129e9565b1015611a75576040517f08c379a0000000000000000000000000000000000000000000000000000000008152600401611a6c9061312e565b60405180910390fd5b611a7d6122cd565b8060076000828254611a8f919061331b565b925050819055506000600b60009054906101000a900473ffffffffffffffffffffffffffffffffffffffff1673ffffffffffffffffffffffffffffffffffffffff166375a08cce33846009546040518463ffffffff1660e01b8152600401611af993929190612e48565b602060405180830381600087803b158015611b1357600080fd5b505af1158015611b27573d6000803e3d6000fd5b505050506040513d601f19601f82011682018060405250810190611b4b91906129e9565b90507f3cab5531fb85e2830549051c21bf92340f746aaa98ae60fa809241a2c52d4eda338383604051611b8093929190612e48565b60405180910390a1611bd7333084600160009054906101000a900473ffffffffffffffffffffffffffffffffffffffff1673ffffffffffffffffffffffffffffffffffffffff166123ba909392919063ffffffff16565b5050565b600060029054906101000a900473ffffffffffffffffffffffffffffffffffffffff1681565b600060065414611c6557670de0b6b3a7640000600654611c2191906133a2565b670de0b6b3a764000060035483611c3891906133a2565b611c4291906133a2565b611c4c9190613371565b60086000828254611c5d919061331b565b925050819055505b600060075414611cdc57670de0b6b3a7640000600754611c8591906133a2565b670de0b6b3a7640000600354670de0b6b3a7640000611ca491906133fc565b83611caf91906133a2565b611cb991906133a2565b611cc39190613371565b60096000828254611cd4919061331b565b925050819055505b50565b60008273ffffffffffffffffffffffffffffffffffffffff166313ed084685846040518363ffffffff1660e01b8152600401611d1c929190613205565b60206040518083038186803b158015611d3457600080fd5b505afa158015611d48573d6000803e3d6000fd5b505050506040513d601f19601f82011682018060405250810190611d6c91906129e9565b905080600060029054906101000a900473ffffffffffffffffffffffffffffffffffffffff1673ffffffffffffffffffffffffffffffffffffffff166370a08231306040518263ffffffff1660e01b8152600401611dca9190612dcd565b60206040518083038186803b158015611de257600080fd5b505afa158015611df6573d6000803e3d6000fd5b505050506040513d601f19601f82011682018060405250810190611e1a91906129e9565b611e2491906133fc565b6004819055508273ffffffffffffffffffffffffffffffffffffffff1663a0d964358533856040518463ffffffff1660e01b8152600401611e6793929190613189565b600060405180830381600087803b158015611e8157600080fd5b505af1158015611e95573d6000803e3d6000fd5b505050507fdacbdde355ba930696a362ea6738feb9f8bd52dfb3d81947558fd3217e23e325338286604051611ecc93929190612e48565b60405180910390a1611f213382600060029054906101000a900473ffffffffffffffffffffffffffffffffffffffff1673ffffffffffffffffffffffffffffffffffffffff166121729092919063ffffffff16565b50505050565b60008373ffffffffffffffffffffffffffffffffffffffff166313ed084686846040518363ffffffff1660e01b8152600401611f64929190613205565b60206040518083038186803b158015611f7c57600080fd5b505afa158015611f90573d6000803e3d6000fd5b505050506040513d601f19601f82011682018060405250810190611fb491906129e9565b905080600060029054906101000a900473ffffffffffffffffffffffffffffffffffffffff1673ffffffffffffffffffffffffffffffffffffffff166370a08231306040518263ffffffff1660e01b81526004016120129190612dcd565b60206040518083038186803b15801561202a57600080fd5b505afa15801561203e573d6000803e3d6000fd5b505050506040513d601f19601f8201168201806040525081019061206291906129e9565b61206c91906133fc565b6004819055508373ffffffffffffffffffffffffffffffffffffffff166336043462863386866040518563ffffffff1660e01b81526004016120b194939291906131c0565b600060405180830381600087803b1580156120cb57600080fd5b505af11580156120df573d6000803e3d6000fd5b505050507fdacbdde355ba930696a362ea6738feb9f8bd52dfb3d81947558fd3217e23e32533828760405161211693929190612e48565b60405180910390a161216b3382600060029054906101000a900473ffffffffffffffffffffffffffffffffffffffff1673ffffffffffffffffffffffffffffffffffffffff166121729092919063ffffffff16565b5050505050565b6121f38363a9059cbb60e01b8484604051602401612191929190612e1f565b604051602081830303815290604052907bffffffffffffffffffffffffffffffffffffffffffffffffffffffff19166020820180517bffffffffffffffffffffffffffffffffffffffffffffffffffffffff8381831617835250505050612443565b505050565b60006040517f3d602d80600a3d3981f3363d3d373d3d3d363d7300000000000000000000000081528260601b60148201527f5af43d82803e903d91602b57fd5bf3000000000000000000000000000000000060288201526037816000f0915050600073ffffffffffffffffffffffffffffffffffffffff168173ffffffffffffffffffffffffffffffffffffffff1614156122c8576040517f08c379a00000000000000000000000000000000000000000000000000000000081526004016122bf90612fe4565b60405180910390fd5b919050565b60008060029054906101000a900473ffffffffffffffffffffffffffffffffffffffff1673ffffffffffffffffffffffffffffffffffffffff166370a08231306040518263ffffffff1660e01b81526004016123299190612dcd565b60206040518083038186803b15801561234157600080fd5b505afa158015612355573d6000803e3d6000fd5b505050506040513d601f19601f8201168201806040525081019061237991906129e9565b905060006004548261238b91906133fc565b905061239681611c01565b80600560008282546123a8919061331b565b92505081905550816004819055505050565b61243d846323b872dd60e01b8585856040516024016123db93929190612de8565b604051602081830303815290604052907bffffffffffffffffffffffffffffffffffffffffffffffffffffffff19166020820180517bffffffffffffffffffffffffffffffffffffffffffffffffffffffff8381831617835250505050612443565b50505050565b60006124a5826040518060400160405280602081526020017f5361666545524332303a206c6f772d6c6576656c2063616c6c206661696c65648152508573ffffffffffffffffffffffffffffffffffffffff1661250a9092919063ffffffff16565b905060008151111561250557808060200190518101906124c5919061298f565b612504576040517f08c379a00000000000000000000000000000000000000000000000000000000081526004016124fb9061314e565b60405180910390fd5b5b505050565b60606125198484600085612522565b90509392505050565b606082471015612567576040517f08c379a000000000000000000000000000000000000000000000000000000000815260040161255e90612fa4565b60405180910390fd5b61257085612636565b6125af576040517f08c379a00000000000000000000000000000000000000000000000000000000081526004016125a69061310e565b60405180910390fd5b6000808673ffffffffffffffffffffffffffffffffffffffff1685876040516125d89190612db6565b60006040518083038185875af1925050503d8060008114612615576040519150601f19603f3d011682016040523d82523d6000602084013e61261a565b606091505b509150915061262a828286612649565b92505050949350505050565b600080823b905060008111915050919050565b60608315612659578290506126a9565b60008351111561266c5782518084602001fd5b816040517f08c379a00000000000000000000000000000000000000000000000000000000081526004016126a09190612ea1565b60405180910390fd5b9392505050565b60006126c36126be84613253565b61322e565b905080838252602082019050828560208602820111156126e6576126e561357d565b5b60005b8581101561271657816126fc8882612812565b8452602084019350602083019250506001810190506126e9565b5050509392505050565b600061273361272e8461327f565b61322e565b90508281526020810184848401111561274f5761274e613582565b5b61275a848285613478565b509392505050565b6000813590506127718161393f565b92915050565b6000815190506127868161393f565b92915050565b600082601f8301126127a1576127a0613578565b5b81516127b18482602086016126b0565b91505092915050565b6000815190506127c981613956565b92915050565b600082601f8301126127e4576127e3613578565b5b81356127f4848260208601612720565b91505092915050565b60008135905061280c8161396d565b92915050565b6000815190506128218161396d565b92915050565b60006020828403121561283d5761283c61358c565b5b600061284b84828501612762565b91505092915050565b60006020828403121561286a5761286961358c565b5b600061287884828501612777565b91505092915050565b60008060008060008060c0878903121561289e5761289d61358c565b5b60006128ac89828a01612762565b96505060206128bd89828a01612762565b95505060406128ce89828a01612762565b945050606087013567ffffffffffffffff8111156128ef576128ee613587565b5b6128fb89828a016127cf565b935050608087013567ffffffffffffffff81111561291c5761291b613587565b5b61292889828a016127cf565b92505060a061293989828a016127fd565b9150509295509295509295565b60006020828403121561295c5761295b61358c565b5b600082015167ffffffffffffffff81111561297a57612979613587565b5b6129868482850161278c565b91505092915050565b6000602082840312156129a5576129a461358c565b5b60006129b3848285016127ba565b91505092915050565b6000602082840312156129d2576129d161358c565b5b60006129e0848285016127fd565b91505092915050565b6000602082840312156129ff576129fe61358c565b5b6000612a0d84828501612812565b91505092915050565b60008060408385031215612a2d57612a2c61358c565b5b6000612a3b858286016127fd565b9250506020612a4c858286016127fd565b9150509250929050565b6000612a628383612d98565b60208301905092915050565b612a7781613430565b82525050565b6000612a88826132c0565b612a9281856132ee565b9350612a9d836132b0565b8060005b83811015612ace578151612ab58882612a56565b9750612ac0836132e1565b925050600181019050612aa1565b5085935050505092915050565b6000612ae6826132cb565b612af081856132ff565b9350612b00818560208601613487565b80840191505092915050565b6000612b17826132d6565b612b21818561330a565b9350612b31818560208601613487565b612b3a81613591565b840191505092915050565b6000612b52602a8361330a565b9150612b5d826135a2565b604082019050919050565b6000612b7560098361330a565b9150612b80826135f1565b602082019050919050565b6000612b9860248361330a565b9150612ba38261361a565b604082019050919050565b6000612bbb60038361330a565b9150612bc682613669565b602082019050919050565b6000612bde60268361330a565b9150612be982613692565b604082019050919050565b6000612c0160278361330a565b9150612c0c826136e1565b604082019050919050565b6000612c2460168361330a565b9150612c2f82613730565b602082019050919050565b6000612c47602e8361330a565b9150612c5282613759565b604082019050919050565b6000612c6a60118361330a565b9150612c75826137a8565b602082019050919050565b6000612c8d60198361330a565b9150612c98826137d1565b602082019050919050565b6000612cb060098361330a565b9150612cbb826137fa565b602082019050919050565b6000612cd360038361330a565b9150612cde82613823565b602082019050919050565b6000612cf6601b8361330a565b9150612d018261384c565b602082019050919050565b6000612d1960208361330a565b9150612d2482613875565b602082019050919050565b6000612d3c601d8361330a565b9150612d478261389e565b602082019050919050565b6000612d5f601e8361330a565b9150612d6a826138c7565b602082019050919050565b6000612d82602a8361330a565b9150612d8d826138f0565b604082019050919050565b612da18161346e565b82525050565b612db08161346e565b82525050565b6000612dc28284612adb565b915081905092915050565b6000602082019050612de26000830184612a6e565b92915050565b6000606082019050612dfd6000830186612a6e565b612e0a6020830185612a6e565b612e176040830184612da7565b949350505050565b6000604082019050612e346000830185612a6e565b612e416020830184612da7565b9392505050565b6000606082019050612e5d6000830186612a6e565b612e6a6020830185612da7565b612e776040830184612da7565b949350505050565b60006020820190508181036000830152612e998184612a7d565b905092915050565b60006020820190508181036000830152612ebb8184612b0c565b905092915050565b60006040820190508181036000830152612edd8185612b0c565b90508181036020830152612ef18184612b0c565b90509392505050565b60006020820190508181036000830152612f1381612b45565b9050919050565b60006040820190508181036000830152612f3381612b68565b90508181036020830152612f478184612b0c565b905092915050565b60006020820190508181036000830152612f6881612b8b565b9050919050565b60006040820190508181036000830152612f8881612bae565b90508181036020830152612f9c8184612b0c565b905092915050565b60006020820190508181036000830152612fbd81612bd1565b9050919050565b60006020820190508181036000830152612fdd81612bf4565b9050919050565b60006020820190508181036000830152612ffd81612c17565b9050919050565b6000602082019050818103600083015261301d81612c3a565b9050919050565b6000602082019050818103600083015261303d81612c5d565b9050919050565b6000602082019050818103600083015261305d81612c80565b9050919050565b6000604082019050818103600083015261307d81612ca3565b905081810360208301526130918184612b0c565b905092915050565b600060408201905081810360008301526130b281612cc6565b905081810360208301526130c68184612b0c565b905092915050565b600060208201905081810360008301526130e781612ce9565b9050919050565b6000602082019050818103600083015261310781612d0c565b9050919050565b6000602082019050818103600083015261312781612d2f565b9050919050565b6000602082019050818103600083015261314781612d52565b9050919050565b6000602082019050818103600083015261316781612d75565b9050919050565b60006020820190506131836000830184612da7565b92915050565b600060608201905061319e6000830186612da7565b6131ab6020830185612a6e565b6131b86040830184612da7565b949350505050565b60006080820190506131d56000830187612da7565b6131e26020830186612a6e565b6131ef6040830185612da7565b6131fc6060830184612da7565b95945050505050565b600060408201905061321a6000830185612da7565b6132276020830184612da7565b9392505050565b6000613238613249565b905061324482826134ba565b919050565b6000604051905090565b600067ffffffffffffffff82111561326e5761326d613549565b5b602082029050602081019050919050565b600067ffffffffffffffff82111561329a57613299613549565b5b6132a382613591565b9050602081019050919050565b6000819050602082019050919050565b600081519050919050565b600081519050919050565b600081519050919050565b6000602082019050919050565b600082825260208201905092915050565b600081905092915050565b600082825260208201905092915050565b60006133268261346e565b91506133318361346e565b9250827fffffffffffffffffffffffffffffffffffffffffffffffffffffffffffffffff03821115613366576133656134eb565b5b828201905092915050565b600061337c8261346e565b91506133878361346e565b9250826133975761339661351a565b5b828204905092915050565b60006133ad8261346e565b91506133b88361346e565b9250817fffffffffffffffffffffffffffffffffffffffffffffffffffffffffffffffff04831182151516156133f1576133f06134eb565b5b828202905092915050565b60006134078261346e565b91506134128361346e565b925082821015613425576134246134eb565b5b828203905092915050565b600061343b8261344e565b9050919050565b60008115159050919050565b600073ffffffffffffffffffffffffffffffffffffffff82169050919050565b6000819050919050565b82818337600083830152505050565b60005b838110156134a557808201518184015260208101905061348a565b838111156134b4576000848401525b50505050565b6134c382613591565b810181811067ffffffffffffffff821117156134e2576134e1613549565b5b80604052505050565b7f4e487b7100000000000000000000000000000000000000000000000000000000600052601160045260246000fd5b7f4e487b7100000000000000000000000000000000000000000000000000000000600052601260045260246000fd5b7f4e487b7100000000000000000000000000000000000000000000000000000000600052604160045260246000fd5b600080fd5b600080fd5b600080fd5b600080fd5b600080fd5b6000601f19601f8301169050919050565b7f43616e6e6f7420636c61696d2072657761726473206f6e206e6f74206f776e6560008201527f6420706f736974696f6e00000000000000000000000000000000000000000000602082015250565b7f635374616b696e67200000000000000000000000000000000000000000000000600082015250565b7f43616e6e6f7420756e7374616b65206f6e206e6f74206f776e656420706f736960008201527f74696f6e00000000000000000000000000000000000000000000000000000000602082015250565b7f63535f0000000000000000000000000000000000000000000000000000000000600082015250565b7f416464726573733a20696e73756666696369656e742062616c616e636520666f60008201527f722063616c6c0000000000000000000000000000000000000000000000000000602082015250565b7f496e73756666696369656e7420636f70797269676874206672616374696f6e2060008201527f62616c616e636500000000000000000000000000000000000000000000000000602082015250565b7f455243313136373a20637265617465206661696c656400000000000000000000600082015250565b7f496e697469616c697a61626c653a20636f6e747261637420697320616c72656160008201527f647920696e697469616c697a6564000000000000000000000000000000000000602082015250565b7f496e76616c696420706f6420746f6b656e000000000000000000000000000000600082015250565b7f496e76616c696420706f642066756e64696e6720746f6b656e00000000000000600082015250565b7f705374616b696e67200000000000000000000000000000000000000000000000600082015250565b7f70535f0000000000000000000000000000000000000000000000000000000000600082015250565b7f496e766573746f72207368617265206578636565647320313030250000000000600082015250565b7f496e76616c696420636f70797269676874206672616374696f6e20746f6b656e600082015250565b7f416464726573733a2063616c6c20746f206e6f6e2d636f6e7472616374000000600082015250565b7f496e73756666696369656e7420706f6420746f6b656e2062616c616e63650000600082015250565b7f5361666545524332303a204552433230206f7065726174696f6e20646964206e60008201527f6f74207375636365656400000000000000000000000000000000000000000000602082015250565b61394881613430565b811461395357600080fd5b50565b61395f81613442565b811461396a57600080fd5b50565b6139768161346e565b811461398157600080fd5b5056fea26469706673582212201586e4c0a3805e56d03510f722ac41682a1f31bc6dffe18b9b3a0678fcc006cb64736f6c63430008060033",
  "immutableReferences": {
    "5336": [
      {
        "length": 32,
        "start": 4129
      },
      {
        "length": 32,
        "start": 4234
      }
    ]
  },
  "source": "// SPDX-License-Identifier: MIT\npragma solidity ^0.8.0;\n\nimport \"@openzeppelin/contracts/token/ERC20/IERC20.sol\";\nimport \"@openzeppelin/contracts/token/ERC20/utils/SafeERC20.sol\";\nimport \"@openzeppelin/contracts/proxy/utils/Initializable.sol\";\nimport \"@openzeppelin/contracts/proxy/Clones.sol\";\nimport \"./StakingERC721.sol\";\n\n//TODO: add AccessControl\n//TODO: add events\ncontract DistributionManager is Initializable {\n    using SafeERC20 for IERC20;\n\n    uint256 public constant DECIMALS = 10**18;\n\n    address public podFundingToken;\n    address public podToken;\n    address public copyrightFractionToken;\n    uint256 public investorShare;\n\n    uint256 public lastRoyalty;\n    uint256 public cumulativeRevenue;\n    uint256 public totalCFStaked;\n    uint256 public totalPTStaked;\n    uint256 public totalSharesCopyright;\n    uint256 public totalSharesInvestor;\n\n    address public copyrightFractionStakingNFT;\n    address public podTokenStakingNFT;\n\n    address private immutable nftBlueprint;\n\n    mapping(address => uint256) private _positions;\n\n    event CopyrightStaked(address staker, uint256 amount, uint256 tokenId);\n    event PodStaked(address staker, uint256 amount, uint256 tokenId);\n    event CopyrightUnstaked(address destination, uint256 amount, uint256 tokenId);\n    event PodUnstaked(address destination, uint256 amount, uint256 tokenId);\n    event RewardsClaimed(address claimTo, uint256 reward, uint256 tokenId);\n\n    constructor(address _nftBlueprint) {\n        nftBlueprint = _nftBlueprint;\n    }\n\n    function initialize(\n        address _podToken,\n        address _podFundingToken,\n        address _copyrightFractionToken,\n        string memory podName,\n        string memory podSymbol,\n        uint256 _investorShare\n    ) external initializer {\n        require(_podToken != address(0), \"Invalid pod token\");\n        require(_podFundingToken != address(0), \"Invalid pod funding token\");\n        require(_copyrightFractionToken != address(0), \"Invalid copyright fraction token\");\n        require(_investorShare <= DECIMALS, \"Investor share exceeds 100%\");\n\n        podToken = _podToken;\n        podFundingToken = _podFundingToken;\n        copyrightFractionToken = _copyrightFractionToken;\n        copyrightFractionStakingNFT = Clones.clone(nftBlueprint);\n        podTokenStakingNFT = Clones.clone(nftBlueprint);\n        investorShare = _investorShare;\n\n        StakingERC721(copyrightFractionStakingNFT).initialize(\n            string(abi.encode(\"cStaking \", podName)),\n            string(abi.encode(\"cS_\", podSymbol))\n        );\n        StakingERC721(podTokenStakingNFT).initialize(\n            string(abi.encode(\"pStaking \", podName)),\n            string(abi.encode(\"pS_\", podSymbol))\n        );\n    }\n\n    function stakeCopyrightFractions(uint256 amount) external {\n        require(\n            IERC20(copyrightFractionToken).balanceOf(msg.sender) >= amount,\n            \"Insufficient copyright fraction balance\"\n        );\n        _syncStaking();\n        totalCFStaked += amount;\n        uint256 id = StakingERC721(copyrightFractionStakingNFT).createPosition(\n            msg.sender,\n            amount,\n            totalSharesCopyright\n        );\n        emit CopyrightStaked(msg.sender, amount, id);\n        IERC20(copyrightFractionToken).safeTransferFrom(msg.sender, address(this), amount);\n    }\n\n    function stakePodTokens(uint256 amount) external {\n        require(IERC20(podToken).balanceOf(msg.sender) >= amount, \"Insufficient pod token balance\");\n        _syncStaking();\n        totalPTStaked += amount;\n        uint256 id = StakingERC721(podTokenStakingNFT).createPosition(\n            msg.sender,\n            amount,\n            totalSharesInvestor\n        );\n        emit PodStaked(msg.sender, amount, id);\n        IERC20(podToken).safeTransferFrom(msg.sender, address(this), amount);\n    }\n\n    function _syncStaking() internal {\n        uint256 balance = IERC20(podFundingToken).balanceOf(address(this));\n        uint256 x = balance - lastRoyalty;\n        _syncShares(x);\n        cumulativeRevenue += x;\n        lastRoyalty = balance;\n    }\n\n    function _syncShares(uint256 x) private {\n        if (totalCFStaked != 0) {\n            totalSharesCopyright += ((x * investorShare) * 10**18) / (totalCFStaked * DECIMALS);\n        }\n        if (totalPTStaked != 0) {\n            totalSharesInvestor += (x * (DECIMALS - investorShare) * 10**18) / (totalPTStaked * DECIMALS);\n        }\n    }\n\n    function unstakeCopyrightFractions(uint256 id, uint256 amount) external {\n        require(\n            StakingERC721(copyrightFractionStakingNFT).ownerOf(id) == msg.sender,\n            \"Cannot unstake on not owned position\"\n        );\n        _syncShares(IERC20(podFundingToken).balanceOf(address(this)) - lastRoyalty);\n        _unstakeRewards(id, copyrightFractionStakingNFT, amount, totalSharesCopyright);\n        totalCFStaked -= amount;\n        emit CopyrightUnstaked(msg.sender, amount, id);\n        IERC20(copyrightFractionToken).safeTransfer(msg.sender, amount);\n    }\n\n    function unstakePodTokens(uint256 id, uint256 amount) external {\n        require(\n            StakingERC721(podTokenStakingNFT).ownerOf(id) == msg.sender,\n            \"Cannot unstake on not owned position\"\n        );\n        _syncShares(IERC20(podFundingToken).balanceOf(address(this)) - lastRoyalty);\n        _unstakeRewards(id, podTokenStakingNFT, amount, totalSharesInvestor);\n        totalPTStaked -= amount;\n        emit PodUnstaked(msg.sender, amount, id);\n        IERC20(podToken).safeTransfer(msg.sender, amount);\n    }\n\n    function _unstakeRewards(\n        uint256 id,\n        address nft,\n        uint256 amount,\n        uint256 totalShares\n    ) internal {\n        uint256 reward = StakingERC721(nft).calculateReward(id, totalShares);\n        lastRoyalty = IERC20(podFundingToken).balanceOf(address(this)) - reward;\n        StakingERC721(nft).decreasePosition(id, msg.sender, amount, totalShares);\n        emit RewardsClaimed(msg.sender, reward, id);\n        IERC20(podFundingToken).safeTransfer(msg.sender, reward);\n    }\n\n    function claimCopyrightFractionRewards(uint256 id) external {\n        require(\n            StakingERC721(copyrightFractionStakingNFT).ownerOf(id) == msg.sender,\n            \"Cannot claim rewards on not owned position\"\n        );\n        _syncShares(IERC20(podFundingToken).balanceOf(address(this)) - lastRoyalty);\n        _claimRewards(id, copyrightFractionStakingNFT, totalSharesCopyright);\n    }\n\n    function claimPodTokenRewards(uint256 id) external {\n        require(\n            StakingERC721(podTokenStakingNFT).ownerOf(id) == msg.sender,\n            \"Cannot claim rewards on not owned position\"\n        );\n        _syncShares(IERC20(podFundingToken).balanceOf(address(this)) - lastRoyalty);\n        _claimRewards(id, podTokenStakingNFT, totalSharesInvestor);\n    }\n\n    function _claimRewards(\n        uint256 id,\n        address nft,\n        uint256 totalShares\n    ) internal {\n        uint256 reward = StakingERC721(nft).calculateReward(id, totalShares);\n        lastRoyalty = IERC20(podFundingToken).balanceOf(address(this)) - reward;\n        StakingERC721(nft).setPositionTotalShares(id, msg.sender, totalShares);\n        emit RewardsClaimed(msg.sender, reward, id);\n        IERC20(podFundingToken).safeTransfer(msg.sender, reward);\n    }\n\n    function getCopyrightRewards(uint256 id) external view returns (uint256 reward) {\n        reward = StakingERC721(copyrightFractionStakingNFT).calculateReward(id, totalSharesCopyright);\n    }\n\n    function getPodRewards(uint256 id) external view returns (uint256 reward) {\n        reward = StakingERC721(podTokenStakingNFT).calculateReward(id, totalSharesInvestor);\n    }\n\n    function getCopyrightStakingPositions(address owner) external view returns (uint256[] memory) {\n        return StakingERC721(copyrightFractionStakingNFT).getPositions(owner);\n    }\n\n    function getPodStakingPositions(address owner) external view returns (uint256[] memory) {\n        return StakingERC721(podTokenStakingNFT).getPositions(owner);\n    }\n}\n",
  "sourcePath": "/Users/angelsatorresalmenara/Desktop/privi-pods-smart-contract/contracts/implementations/DistributionManager.sol",
  "compiler": {
    "name": "solc",
    "version": "0.8.6+commit.11564f7e.Emscripten.clang"
  },
  "schemaVersion": "3.4.3",
  "updatedAt": "2021-10-08T21:06:54.830Z",
  "networkType": "ethereum",
  "devdoc": {
    "kind": "dev",
    "methods": {},
    "version": 1
  },
  "userdoc": {
    "kind": "user",
    "methods": {},
    "version": 1
  }
}