{
  "contractName": "DistributionManager",
  "abi": [
    {
      "inputs": [
        {
          "internalType": "address",
          "name": "_nftBlueprint",
          "type": "address"
        },
        {
          "internalType": "address",
          "name": "_stakingGovernance",
          "type": "address"
        },
        {
          "internalType": "address",
          "name": "_openSale",
          "type": "address"
        }
      ],
      "stateMutability": "nonpayable",
      "type": "constructor"
    },
    {
      "anonymous": false,
      "inputs": [
        {
          "indexed": false,
          "internalType": "address",
          "name": "staker",
          "type": "address"
        },
        {
          "indexed": false,
          "internalType": "uint256",
          "name": "amount",
          "type": "uint256"
        },
        {
          "indexed": false,
          "internalType": "uint256",
          "name": "tokenId",
          "type": "uint256"
        }
      ],
      "name": "CopyrightStaked",
      "type": "event"
    },
    {
      "anonymous": false,
      "inputs": [
        {
          "indexed": false,
          "internalType": "address",
          "name": "destination",
          "type": "address"
        },
        {
          "indexed": false,
          "internalType": "uint256",
          "name": "amount",
          "type": "uint256"
        },
        {
          "indexed": false,
          "internalType": "uint256",
          "name": "tokenId",
          "type": "uint256"
        }
      ],
      "name": "CopyrightUnstaked",
      "type": "event"
    },
    {
      "anonymous": false,
      "inputs": [
        {
          "indexed": false,
          "internalType": "address",
          "name": "claimTo",
          "type": "address"
        },
        {
          "indexed": false,
          "internalType": "uint256",
          "name": "reward",
          "type": "uint256"
        },
        {
          "indexed": false,
          "internalType": "uint256",
          "name": "tokenId",
          "type": "uint256"
        }
      ],
      "name": "RewardsClaimed",
      "type": "event"
    },
    {
      "anonymous": false,
      "inputs": [
        {
          "indexed": true,
          "internalType": "bytes32",
          "name": "role",
          "type": "bytes32"
        },
        {
          "indexed": true,
          "internalType": "bytes32",
          "name": "previousAdminRole",
          "type": "bytes32"
        },
        {
          "indexed": true,
          "internalType": "bytes32",
          "name": "newAdminRole",
          "type": "bytes32"
        }
      ],
      "name": "RoleAdminChanged",
      "type": "event"
    },
    {
      "anonymous": false,
      "inputs": [
        {
          "indexed": true,
          "internalType": "bytes32",
          "name": "role",
          "type": "bytes32"
        },
        {
          "indexed": true,
          "internalType": "address",
          "name": "account",
          "type": "address"
        },
        {
          "indexed": true,
          "internalType": "address",
          "name": "sender",
          "type": "address"
        }
      ],
      "name": "RoleGranted",
      "type": "event"
    },
    {
      "anonymous": false,
      "inputs": [
        {
          "indexed": true,
          "internalType": "bytes32",
          "name": "role",
          "type": "bytes32"
        },
        {
          "indexed": true,
          "internalType": "address",
          "name": "account",
          "type": "address"
        },
        {
          "indexed": true,
          "internalType": "address",
          "name": "sender",
          "type": "address"
        }
      ],
      "name": "RoleRevoked",
      "type": "event"
    },
    {
      "inputs": [],
      "name": "DECIMALS",
      "outputs": [
        {
          "internalType": "uint256",
          "name": "",
          "type": "uint256"
        }
      ],
      "stateMutability": "view",
      "type": "function",
      "constant": true
    },
    {
      "inputs": [],
      "name": "DEFAULT_ADMIN_ROLE",
      "outputs": [
        {
          "internalType": "bytes32",
          "name": "",
          "type": "bytes32"
        }
      ],
      "stateMutability": "view",
      "type": "function",
      "constant": true
    },
    {
      "inputs": [],
      "name": "GOVERNANCE",
      "outputs": [
        {
          "internalType": "bytes32",
          "name": "",
          "type": "bytes32"
        }
      ],
      "stateMutability": "view",
      "type": "function",
      "constant": true
    },
    {
      "inputs": [],
      "name": "copyrightFractionStakingNFT",
      "outputs": [
        {
          "internalType": "address",
          "name": "",
          "type": "address"
        }
      ],
      "stateMutability": "view",
      "type": "function",
      "constant": true
    },
    {
      "inputs": [],
      "name": "copyrightFractionToken",
      "outputs": [
        {
          "internalType": "address",
          "name": "",
          "type": "address"
        }
      ],
      "stateMutability": "view",
      "type": "function",
      "constant": true
    },
    {
      "inputs": [],
      "name": "cumulativeRevenue",
      "outputs": [
        {
          "internalType": "uint256",
          "name": "",
          "type": "uint256"
        }
      ],
      "stateMutability": "view",
      "type": "function",
      "constant": true
    },
    {
      "inputs": [
        {
          "internalType": "bytes32",
          "name": "role",
          "type": "bytes32"
        }
      ],
      "name": "getRoleAdmin",
      "outputs": [
        {
          "internalType": "bytes32",
          "name": "",
          "type": "bytes32"
        }
      ],
      "stateMutability": "view",
      "type": "function",
      "constant": true
    },
    {
      "inputs": [
        {
          "internalType": "bytes32",
          "name": "role",
          "type": "bytes32"
        },
        {
          "internalType": "address",
          "name": "account",
          "type": "address"
        }
      ],
      "name": "grantRole",
      "outputs": [],
      "stateMutability": "nonpayable",
      "type": "function"
    },
    {
      "inputs": [
        {
          "internalType": "bytes32",
          "name": "role",
          "type": "bytes32"
        },
        {
          "internalType": "address",
          "name": "account",
          "type": "address"
        }
      ],
      "name": "hasRole",
      "outputs": [
        {
          "internalType": "bool",
          "name": "",
          "type": "bool"
        }
      ],
      "stateMutability": "view",
      "type": "function",
      "constant": true
    },
    {
      "inputs": [],
      "name": "investorShare",
      "outputs": [
        {
          "internalType": "uint256",
          "name": "",
          "type": "uint256"
        }
      ],
      "stateMutability": "view",
      "type": "function",
      "constant": true
    },
    {
      "inputs": [],
      "name": "lastRoyalty",
      "outputs": [
        {
          "internalType": "uint256",
          "name": "",
          "type": "uint256"
        }
      ],
      "stateMutability": "view",
      "type": "function",
      "constant": true
    },
    {
      "inputs": [],
      "name": "openSale",
      "outputs": [
        {
          "internalType": "address",
          "name": "",
          "type": "address"
        }
      ],
      "stateMutability": "view",
      "type": "function",
      "constant": true
    },
    {
      "inputs": [],
      "name": "podFundingToken",
      "outputs": [
        {
          "internalType": "address",
          "name": "",
          "type": "address"
        }
      ],
      "stateMutability": "view",
      "type": "function",
      "constant": true
    },
    {
      "inputs": [
        {
          "internalType": "bytes32",
          "name": "role",
          "type": "bytes32"
        },
        {
          "internalType": "address",
          "name": "account",
          "type": "address"
        }
      ],
      "name": "renounceRole",
      "outputs": [],
      "stateMutability": "nonpayable",
      "type": "function"
    },
    {
      "inputs": [
        {
          "internalType": "bytes32",
          "name": "role",
          "type": "bytes32"
        },
        {
          "internalType": "address",
          "name": "account",
          "type": "address"
        }
      ],
      "name": "revokeRole",
      "outputs": [],
      "stateMutability": "nonpayable",
      "type": "function"
    },
    {
      "inputs": [],
      "name": "stakingGovernance",
      "outputs": [
        {
          "internalType": "address",
          "name": "",
          "type": "address"
        }
      ],
      "stateMutability": "view",
      "type": "function",
      "constant": true
    },
    {
      "inputs": [
        {
          "internalType": "bytes4",
          "name": "interfaceId",
          "type": "bytes4"
        }
      ],
      "name": "supportsInterface",
      "outputs": [
        {
          "internalType": "bool",
          "name": "",
          "type": "bool"
        }
      ],
      "stateMutability": "view",
      "type": "function",
      "constant": true
    },
    {
      "inputs": [],
      "name": "totalCFStaked",
      "outputs": [
        {
          "internalType": "uint256",
          "name": "",
          "type": "uint256"
        }
      ],
      "stateMutability": "view",
      "type": "function",
      "constant": true
    },
    {
      "inputs": [],
      "name": "totalPTStaked",
      "outputs": [
        {
          "internalType": "uint256",
          "name": "",
          "type": "uint256"
        }
      ],
      "stateMutability": "view",
      "type": "function",
      "constant": true
    },
    {
      "inputs": [],
      "name": "totalSharesCopyright",
      "outputs": [
        {
          "internalType": "uint256",
          "name": "",
          "type": "uint256"
        }
      ],
      "stateMutability": "view",
      "type": "function",
      "constant": true
    },
    {
      "inputs": [],
      "name": "totalSharesInvestor",
      "outputs": [
        {
          "internalType": "uint256",
          "name": "",
          "type": "uint256"
        }
      ],
      "stateMutability": "view",
      "type": "function",
      "constant": true
    },
    {
      "inputs": [
        {
          "internalType": "address",
          "name": "_podFundingToken",
          "type": "address"
        },
        {
          "internalType": "address",
          "name": "_copyrightFractionToken",
          "type": "address"
        },
        {
          "internalType": "string",
          "name": "podName",
          "type": "string"
        },
        {
          "internalType": "string",
          "name": "podSymbol",
          "type": "string"
        },
        {
          "internalType": "uint256",
          "name": "_investorShare",
          "type": "uint256"
        },
        {
          "internalType": "address",
          "name": "copyrightNFT",
          "type": "address"
        },
        {
          "internalType": "address",
          "name": "erc721WithRoyalty",
          "type": "address"
        }
      ],
      "name": "initialize",
      "outputs": [
        {
          "internalType": "address",
          "name": "stakingNFT",
          "type": "address"
        }
      ],
      "stateMutability": "nonpayable",
      "type": "function"
    },
    {
      "inputs": [
        {
          "internalType": "uint256",
          "name": "nftId",
          "type": "uint256"
        }
      ],
      "name": "stakeCopyrightNFT",
      "outputs": [],
      "stateMutability": "nonpayable",
      "type": "function"
    },
    {
      "inputs": [
        {
          "internalType": "uint256",
          "name": "amount",
          "type": "uint256"
        }
      ],
      "name": "stakeCopyrightFractions",
      "outputs": [],
      "stateMutability": "nonpayable",
      "type": "function"
    },
    {
      "inputs": [
        {
          "internalType": "uint256",
          "name": "stakingId",
          "type": "uint256"
        }
      ],
      "name": "unstakeCopyrightNFT",
      "outputs": [],
      "stateMutability": "nonpayable",
      "type": "function"
    },
    {
      "inputs": [
        {
          "internalType": "uint256",
          "name": "id",
          "type": "uint256"
        },
        {
          "internalType": "uint256",
          "name": "amount",
          "type": "uint256"
        }
      ],
      "name": "unstakeCopyrightFractions",
      "outputs": [],
      "stateMutability": "nonpayable",
      "type": "function"
    },
    {
      "inputs": [
        {
          "internalType": "uint256",
          "name": "id",
          "type": "uint256"
        }
      ],
      "name": "claimCopyrightFractionRewards",
      "outputs": [],
      "stateMutability": "nonpayable",
      "type": "function"
    },
    {
      "inputs": [
        {
          "internalType": "uint256",
          "name": "id",
          "type": "uint256"
        }
      ],
      "name": "getCopyrightRewards",
      "outputs": [
        {
          "internalType": "uint256",
          "name": "reward",
          "type": "uint256"
        }
      ],
      "stateMutability": "view",
      "type": "function",
      "constant": true
    },
    {
      "inputs": [
        {
          "internalType": "address",
          "name": "owner",
          "type": "address"
        }
      ],
      "name": "getCopyrightStakingPositions",
      "outputs": [
        {
          "internalType": "uint256[]",
          "name": "",
          "type": "uint256[]"
        }
      ],
      "stateMutability": "view",
      "type": "function",
      "constant": true
    },
    {
      "inputs": [
        {
          "internalType": "uint256",
          "name": "tokenId",
          "type": "uint256"
        },
        {
          "internalType": "uint256",
          "name": "price",
          "type": "uint256"
        },
        {
          "internalType": "address",
          "name": "paymentToken",
          "type": "address"
        }
      ],
      "name": "approveSale",
      "outputs": [],
      "stateMutability": "nonpayable",
      "type": "function"
    },
    {
      "inputs": [
        {
          "internalType": "address",
          "name": "",
          "type": "address"
        },
        {
          "internalType": "address",
          "name": "",
          "type": "address"
        },
        {
          "internalType": "uint256",
          "name": "",
          "type": "uint256"
        },
        {
          "internalType": "bytes",
          "name": "",
          "type": "bytes"
        }
      ],
      "name": "onERC721Received",
      "outputs": [
        {
          "internalType": "bytes4",
          "name": "",
          "type": "bytes4"
        }
      ],
      "stateMutability": "nonpayable",
      "type": "function"
    }
  ],
  "bytecode": "0x60e06040523480156200001157600080fd5b5060405162004623380380620046238339818101604052810190620000379190620000fc565b8273ffffffffffffffffffffffffffffffffffffffff1660808173ffffffffffffffffffffffffffffffffffffffff1660601b815250508173ffffffffffffffffffffffffffffffffffffffff1660a08173ffffffffffffffffffffffffffffffffffffffff1660601b815250508073ffffffffffffffffffffffffffffffffffffffff1660c08173ffffffffffffffffffffffffffffffffffffffff1660601b81525050505050620001ab565b600081519050620000f68162000191565b92915050565b6000806000606084860312156200011857620001176200018c565b5b60006200012886828701620000e5565b93505060206200013b86828701620000e5565b92505060406200014e86828701620000e5565b9150509250925092565b600062000165826200016c565b9050919050565b600073ffffffffffffffffffffffffffffffffffffffff82169050919050565b600080fd5b6200019c8162000158565b8114620001a857600080fd5b50565b60805160601c60a05160601c60c05160601c614431620001f2600039600081816106b2015281816113c301526114340152600061103601526000610f8301526144316000f3fe608060405234801561001057600080fd5b50600436106101e55760003560e01c8063513345471161010f578063bc423c45116100a2578063d547741f11610071578063d547741f14610582578063ee8b64cc1461059e578063f053eac2146105bc578063ffd4b8f1146105da576101e5565b8063bc423c45146104fc578063c83b8d3a14610518578063ca7444fd14610548578063cfd405eb14610566576101e5565b8063a217fddf116100de578063a217fddf14610486578063af506dbd146104a4578063b24721af146104c0578063b95d1f89146104de576101e5565b806351334547146103fe5780636f3c94ea1461041a578063724fcd011461043857806391d1485414610456576101e5565b80632233395811610187578063323a271411610156578063323a27141461037857806336568abe14610394578063418e9215146103b0578063483b4f11146103ce576101e5565b806322333958146102f2578063248a9ca31461030e5780632e0f26251461033e5780632f2ff15d1461035c576101e5565b8063150b7a02116101c3578063150b7a0214610256578063167ff46f14610286578063176492ac146102a4578063212f3c25146102c2576101e5565b806301ffc9a7146101ea5780630fe5c2361461021a5780631462783414610238575b600080fd5b61020460048036038101906101ff91906131be565b6105f8565b6040516102119190613860565b60405180910390f35b610222610672565b60405161022f9190613ac6565b60405180910390f35b610240610678565b60405161024d919061387b565b60405180910390f35b610270600480360381019061026b9190613058565b61069c565b60405161027d9190613896565b60405180910390f35b61028e6106b0565b60405161029b919061372b565b60405180910390f35b6102ac6106d4565b6040516102b9919061372b565b60405180910390f35b6102dc60048036038101906102d791906131eb565b6106fa565b6040516102e99190613ac6565b60405180910390f35b61030c600480360381019061030791906131eb565b6107b2565b005b61032860048036038101906103239190613151565b6109bc565b604051610335919061387b565b60405180910390f35b6103466109dc565b6040516103539190613ac6565b60405180910390f35b6103766004803603810190610371919061317e565b6109e8565b005b610392600480360381019061038d91906131eb565b610a11565b005b6103ae60048036038101906103a9919061317e565b610cc1565b005b6103b8610d44565b6040516103c59190613ac6565b60405180910390f35b6103e860048036038101906103e39190612f7e565b610d4a565b6040516103f5919061372b565b60405180910390f35b61041860048036038101906104139190613245565b611278565b005b6104226112d3565b60405161042f9190613ac6565b60405180910390f35b6104406112d9565b60405161044d9190613ac6565b60405180910390f35b610470600480360381019061046b919061317e565b6112df565b60405161047d9190613860565b60405180910390f35b61048e61134a565b60405161049b919061387b565b60405180910390f35b6104be60048036038101906104b99190613285565b611351565b005b6104c86114f0565b6040516104d59190613ac6565b60405180910390f35b6104e66114f6565b6040516104f39190613ac6565b60405180910390f35b610516600480360381019061051191906131eb565b6114fc565b005b610532600480360381019061052d9190612f24565b611784565b60405161053f919061383e565b60405180910390f35b61055061183d565b60405161055d919061372b565b60405180910390f35b610580600480360381019061057b91906131eb565b611863565b005b61059c6004803603810190610597919061317e565b6119ad565b005b6105a66119d6565b6040516105b39190613ac6565b60405180910390f35b6105c46119dc565b6040516105d1919061372b565b60405180910390f35b6105e2611a02565b6040516105ef919061372b565b60405180910390f35b60007f7965db0b000000000000000000000000000000000000000000000000000000007bffffffffffffffffffffffffffffffffffffffffffffffffffffffff1916827bffffffffffffffffffffffffffffffffffffffffffffffffffffffff1916148061066b575061066a82611a28565b5b9050919050565b60045481565b7f35a7846a2a701fff6f9d61a46ebff5da578c5dcee8bdf361c569f9ea4ee6477181565b600063150b7a0260e01b9050949350505050565b7f000000000000000000000000000000000000000000000000000000000000000081565b600c60009054906101000a900473ffffffffffffffffffffffffffffffffffffffff1681565b6000600b60009054906101000a900473ffffffffffffffffffffffffffffffffffffffff1673ffffffffffffffffffffffffffffffffffffffff166313ed0846836009546040518363ffffffff1660e01b815260040161075b929190613b5d565b60206040518083038186803b15801561077357600080fd5b505afa158015610787573d6000803e3d6000fd5b505050506040513d601f19601f820116820180604052508101906107ab9190613218565b9050919050565b3373ffffffffffffffffffffffffffffffffffffffff16600b60009054906101000a900473ffffffffffffffffffffffffffffffffffffffff1673ffffffffffffffffffffffffffffffffffffffff16636352211e836040518263ffffffff1660e01b81526004016108249190613ac6565b60206040518083038186803b15801561083c57600080fd5b505afa158015610850573d6000803e3d6000fd5b505050506040513d601f19601f820116820180604052508101906108749190612f51565b73ffffffffffffffffffffffffffffffffffffffff16146108ca576040517f08c379a00000000000000000000000000000000000000000000000000000000081526004016108c190613946565b60405180910390fd5b61098a600554600260009054906101000a900473ffffffffffffffffffffffffffffffffffffffff1673ffffffffffffffffffffffffffffffffffffffff166370a08231306040518263ffffffff1660e01b815260040161092b919061372b565b60206040518083038186803b15801561094357600080fd5b505afa158015610957573d6000803e3d6000fd5b505050506040513d601f19601f8201168201806040525081019061097b9190613218565b6109859190613d90565b611a92565b6109b981600b60009054906101000a900473ffffffffffffffffffffffffffffffffffffffff16600954611af9565b50565b600060016000838152602001908152602001600020600101549050919050565b670de0b6b3a764000081565b6109f1826109bc565b610a02816109fd611d41565b611d49565b610a0c8383611de6565b505050565b6000600d60009054906101000a900473ffffffffffffffffffffffffffffffffffffffff1690503373ffffffffffffffffffffffffffffffffffffffff168173ffffffffffffffffffffffffffffffffffffffff16636352211e846040518263ffffffff1660e01b8152600401610a889190613ac6565b60206040518083038186803b158015610aa057600080fd5b505afa158015610ab4573d6000803e3d6000fd5b505050506040513d601f19601f82011682018060405250810190610ad89190612f51565b73ffffffffffffffffffffffffffffffffffffffff1614610b2e576040517f08c379a0000000000000000000000000000000000000000000000000000000008152600401610b2590613a86565b60405180910390fd5b60008173ffffffffffffffffffffffffffffffffffffffff16630becbabb846040518263ffffffff1660e01b8152600401610b699190613ac6565b60206040518083038186803b158015610b8157600080fd5b505afa158015610b95573d6000803e3d6000fd5b505050506040513d601f19601f82011682018060405250810190610bb99190613218565b90506000610bc73383611ec6565b90508360106000838152602001908152602001600020819055508273ffffffffffffffffffffffffffffffffffffffff166342842e0e3330876040518463ffffffff1660e01b8152600401610c1e93929190613746565b600060405180830381600087803b158015610c3857600080fd5b505af1158015610c4c573d6000803e3d6000fd5b505050508273ffffffffffffffffffffffffffffffffffffffff1663d7a78db8856040518263ffffffff1660e01b8152600401610c899190613ac6565b600060405180830381600087803b158015610ca357600080fd5b505af1158015610cb7573d6000803e3d6000fd5b5050505050505050565b610cc9611d41565b73ffffffffffffffffffffffffffffffffffffffff168173ffffffffffffffffffffffffffffffffffffffff1614610d36576040517f08c379a0000000000000000000000000000000000000000000000000000000008152600401610d2d90613aa6565b60405180910390fd5b610d408282611fe5565b5050565b60075481565b60008060019054906101000a900460ff1680610d71575060008054906101000a900460ff16155b610db0576040517f08c379a0000000000000000000000000000000000000000000000000000000008152600401610da7906139e6565b60405180910390fd5b60008060019054906101000a900460ff161590508015610e00576001600060016101000a81548160ff02191690831515021790555060016000806101000a81548160ff0219169083151502179055505b600073ffffffffffffffffffffffffffffffffffffffff168873ffffffffffffffffffffffffffffffffffffffff161415610e70576040517f08c379a0000000000000000000000000000000000000000000000000000000008152600401610e6790613a26565b60405180910390fd5b670de0b6b3a7640000851115610ebb576040517f08c379a0000000000000000000000000000000000000000000000000000000008152600401610eb290613a06565b60405180910390fd5b88600260006101000a81548173ffffffffffffffffffffffffffffffffffffffff021916908373ffffffffffffffffffffffffffffffffffffffff16021790555087600360006101000a81548173ffffffffffffffffffffffffffffffffffffffff021916908373ffffffffffffffffffffffffffffffffffffffff16021790555082600e60006101000a81548173ffffffffffffffffffffffffffffffffffffffff021916908373ffffffffffffffffffffffffffffffffffffffff160217905550610fa77f00000000000000000000000000000000000000000000000000000000000000006120c7565b600b60006101000a81548173ffffffffffffffffffffffffffffffffffffffff021916908373ffffffffffffffffffffffffffffffffffffffff1602179055508460048190555083600d60006101000a81548173ffffffffffffffffffffffffffffffffffffffff021916908373ffffffffffffffffffffffffffffffffffffffff160217905550600061105a7f00000000000000000000000000000000000000000000000000000000000000006120c7565b905080600c60006101000a81548173ffffffffffffffffffffffffffffffffffffffff021916908373ffffffffffffffffffffffffffffffffffffffff1602179055508073ffffffffffffffffffffffffffffffffffffffff1663c4d66de8600b60009054906101000a900473ffffffffffffffffffffffffffffffffffffffff166040518263ffffffff1660e01b81526004016110f8919061372b565b600060405180830381600087803b15801561111257600080fd5b505af1158015611126573d6000803e3d6000fd5b50505050600b60009054906101000a900473ffffffffffffffffffffffffffffffffffffffff1673ffffffffffffffffffffffffffffffffffffffff16638f15b4148960405160200161117991906136ad565b6040516020818303038152906040528960405160200161119991906136cf565b6040516020818303038152906040528c856040518563ffffffff1660e01b81526004016111c994939291906138d3565b600060405180830381600087803b1580156111e357600080fd5b505af11580156111f7573d6000803e3d6000fd5b505050506112257f35a7846a2a701fff6f9d61a46ebff5da578c5dcee8bdf361c569f9ea4ee647718261219c565b600b60009054906101000a900473ffffffffffffffffffffffffffffffffffffffff16925050801561126c5760008060016101000a81548160ff0219169083151502179055505b50979650505050505050565b61128282826121aa565b6112cf3382600360009054906101000a900473ffffffffffffffffffffffffffffffffffffffff1673ffffffffffffffffffffffffffffffffffffffff1661266d9092919063ffffffff16565b5050565b60055481565b60065481565b60006001600084815260200190815260200160002060000160008373ffffffffffffffffffffffffffffffffffffffff1673ffffffffffffffffffffffffffffffffffffffff16815260200190815260200160002060009054906101000a900460ff16905092915050565b6000801b81565b7f35a7846a2a701fff6f9d61a46ebff5da578c5dcee8bdf361c569f9ea4ee647716113838161137e611d41565b611d49565b600e60009054906101000a900473ffffffffffffffffffffffffffffffffffffffff1673ffffffffffffffffffffffffffffffffffffffff1663095ea7b37f0000000000000000000000000000000000000000000000000000000000000000866040518363ffffffff1660e01b815260040161140092919061377d565b600060405180830381600087803b15801561141a57600080fd5b505af115801561142e573d6000803e3d6000fd5b505050507f000000000000000000000000000000000000000000000000000000000000000073ffffffffffffffffffffffffffffffffffffffff1663740bd957600e60009054906101000a900473ffffffffffffffffffffffffffffffffffffffff168685873060006040518763ffffffff1660e01b81526004016114b8969594939291906137a6565b600060405180830381600087803b1580156114d257600080fd5b505af11580156114e6573d6000803e3d6000fd5b5050505050505050565b60085481565b600a5481565b6000600d60009054906101000a900473ffffffffffffffffffffffffffffffffffffffff16905060006010600084815260200190815260200160002054905060008273ffffffffffffffffffffffffffffffffffffffff16630becbabb836040518263ffffffff1660e01b81526004016115769190613ac6565b60206040518083038186803b15801561158e57600080fd5b505afa1580156115a2573d6000803e3d6000fd5b505050506040513d601f19601f820116820180604052508101906115c69190613218565b90506115d284826121aa565b600360009054906101000a900473ffffffffffffffffffffffffffffffffffffffff1673ffffffffffffffffffffffffffffffffffffffff1663095ea7b3600d60009054906101000a900473ffffffffffffffffffffffffffffffffffffffff16836040518363ffffffff1660e01b815260040161165192919061377d565b602060405180830381600087803b15801561166b57600080fd5b505af115801561167f573d6000803e3d6000fd5b505050506040513d601f19601f820116820180604052508101906116a39190613124565b508273ffffffffffffffffffffffffffffffffffffffff16636623fc46836040518263ffffffff1660e01b81526004016116dd9190613ac6565b600060405180830381600087803b1580156116f757600080fd5b505af115801561170b573d6000803e3d6000fd5b505050508273ffffffffffffffffffffffffffffffffffffffff166342842e0e3033856040518463ffffffff1660e01b815260040161174c93929190613746565b600060405180830381600087803b15801561176657600080fd5b505af115801561177a573d6000803e3d6000fd5b5050505050505050565b6060600b60009054906101000a900473ffffffffffffffffffffffffffffffffffffffff1673ffffffffffffffffffffffffffffffffffffffff16633eeb530e836040518263ffffffff1660e01b81526004016117e1919061372b565b60006040518083038186803b1580156117f957600080fd5b505afa15801561180d573d6000803e3d6000fd5b505050506040513d6000823e3d601f19601f8201168201806040525081019061183691906130db565b9050919050565b600b60009054906101000a900473ffffffffffffffffffffffffffffffffffffffff1681565b80600360009054906101000a900473ffffffffffffffffffffffffffffffffffffffff1673ffffffffffffffffffffffffffffffffffffffff166370a08231336040518263ffffffff1660e01b81526004016118bf919061372b565b60206040518083038186803b1580156118d757600080fd5b505afa1580156118eb573d6000803e3d6000fd5b505050506040513d601f19601f8201168201806040525081019061190f9190613218565b1015611950576040517f08c379a0000000000000000000000000000000000000000000000000000000008152600401611947906139a6565b60405180910390fd5b61195a3382611ec6565b506119aa333083600360009054906101000a900473ffffffffffffffffffffffffffffffffffffffff1673ffffffffffffffffffffffffffffffffffffffff166126f3909392919063ffffffff16565b50565b6119b6826109bc565b6119c7816119c2611d41565b611d49565b6119d18383611fe5565b505050565b60095481565b600360009054906101000a900473ffffffffffffffffffffffffffffffffffffffff1681565b600260009054906101000a900473ffffffffffffffffffffffffffffffffffffffff1681565b60007f01ffc9a7000000000000000000000000000000000000000000000000000000007bffffffffffffffffffffffffffffffffffffffffffffffffffffffff1916827bffffffffffffffffffffffffffffffffffffffffffffffffffffffff1916149050919050565b600060075414611af657670de0b6b3a7640000600754611ab29190613d36565b670de0b6b3a764000060045483611ac99190613d36565b611ad39190613d36565b611add9190613d05565b60096000828254611aee9190613caf565b925050819055505b50565b60008273ffffffffffffffffffffffffffffffffffffffff166313ed084685846040518363ffffffff1660e01b8152600401611b36929190613b5d565b60206040518083038186803b158015611b4e57600080fd5b505afa158015611b62573d6000803e3d6000fd5b505050506040513d601f19601f82011682018060405250810190611b869190613218565b905080600260009054906101000a900473ffffffffffffffffffffffffffffffffffffffff1673ffffffffffffffffffffffffffffffffffffffff166370a08231306040518263ffffffff1660e01b8152600401611be4919061372b565b60206040518083038186803b158015611bfc57600080fd5b505afa158015611c10573d6000803e3d6000fd5b505050506040513d601f19601f82011682018060405250810190611c349190613218565b611c3e9190613d90565b6005819055508273ffffffffffffffffffffffffffffffffffffffff1663a0d964358533856040518463ffffffff1660e01b8152600401611c8193929190613ae1565b600060405180830381600087803b158015611c9b57600080fd5b505af1158015611caf573d6000803e3d6000fd5b505050507fdacbdde355ba930696a362ea6738feb9f8bd52dfb3d81947558fd3217e23e325338286604051611ce693929190613807565b60405180910390a1611d3b3382600260009054906101000a900473ffffffffffffffffffffffffffffffffffffffff1673ffffffffffffffffffffffffffffffffffffffff1661266d9092919063ffffffff16565b50505050565b600033905090565b611d5382826112df565b611de257611d788173ffffffffffffffffffffffffffffffffffffffff16601461277c565b611d868360001c602061277c565b604051602001611d979291906136f1565b6040516020818303038152906040526040517f08c379a0000000000000000000000000000000000000000000000000000000008152600401611dd991906138b1565b60405180910390fd5b5050565b611df082826112df565b611ec257600180600084815260200190815260200160002060000160008373ffffffffffffffffffffffffffffffffffffffff1673ffffffffffffffffffffffffffffffffffffffff16815260200190815260200160002060006101000a81548160ff021916908315150217905550611e67611d41565b73ffffffffffffffffffffffffffffffffffffffff168173ffffffffffffffffffffffffffffffffffffffff16837f2f8788117e7eff1d82e926ec794901d17c78024a50270940304540a733656f0d60405160405180910390a45b5050565b6000611ed06129b8565b8160076000828254611ee29190613caf565b925050819055506000600b60009054906101000a900473ffffffffffffffffffffffffffffffffffffffff1673ffffffffffffffffffffffffffffffffffffffff166375a08cce85856009546040518463ffffffff1660e01b8152600401611f4c93929190613807565b602060405180830381600087803b158015611f6657600080fd5b505af1158015611f7a573d6000803e3d6000fd5b505050506040513d601f19601f82011682018060405250810190611f9e9190613218565b90507fff861ee41e267a74f6e2f232254749b0ea2ee7b71691af87348b651f5beccd0e848483604051611fd393929190613807565b60405180910390a18091505092915050565b611fef82826112df565b156120c35760006001600084815260200190815260200160002060000160008373ffffffffffffffffffffffffffffffffffffffff1673ffffffffffffffffffffffffffffffffffffffff16815260200190815260200160002060006101000a81548160ff021916908315150217905550612068611d41565b73ffffffffffffffffffffffffffffffffffffffff168173ffffffffffffffffffffffffffffffffffffffff16837ff6391f5c32d9c69d2a47ea670b442974b53935d1edc7fd64eb21e047a839171b60405160405180910390a45b5050565b60006040517f3d602d80600a3d3981f3363d3d373d3d3d363d7300000000000000000000000081528260601b60148201527f5af43d82803e903d91602b57fd5bf3000000000000000000000000000000000060288201526037816000f0915050600073ffffffffffffffffffffffffffffffffffffffff168173ffffffffffffffffffffffffffffffffffffffff161415612197576040517f08c379a000000000000000000000000000000000000000000000000000000000815260040161218e906139c6565b60405180910390fd5b919050565b6121a68282611de6565b5050565b3373ffffffffffffffffffffffffffffffffffffffff16600b60009054906101000a900473ffffffffffffffffffffffffffffffffffffffff1673ffffffffffffffffffffffffffffffffffffffff16636352211e846040518263ffffffff1660e01b815260040161221c9190613ac6565b60206040518083038186803b15801561223457600080fd5b505afa158015612248573d6000803e3d6000fd5b505050506040513d601f19601f8201168201806040525081019061226c9190612f51565b73ffffffffffffffffffffffffffffffffffffffff16146122c2576040517f08c379a00000000000000000000000000000000000000000000000000000000081526004016122b990613966565b60405180910390fd5b612382600554600260009054906101000a900473ffffffffffffffffffffffffffffffffffffffff1673ffffffffffffffffffffffffffffffffffffffff166370a08231306040518263ffffffff1660e01b8152600401612323919061372b565b60206040518083038186803b15801561233b57600080fd5b505afa15801561234f573d6000803e3d6000fd5b505050506040513d601f19601f820116820180604052508101906123739190613218565b61237d9190613d90565b611a92565b6000600b60009054906101000a900473ffffffffffffffffffffffffffffffffffffffff1673ffffffffffffffffffffffffffffffffffffffff166313ed0846846009546040518363ffffffff1660e01b81526004016123e3929190613b5d565b60206040518083038186803b1580156123fb57600080fd5b505afa15801561240f573d6000803e3d6000fd5b505050506040513d601f19601f820116820180604052508101906124339190613218565b90506000600260009054906101000a900473ffffffffffffffffffffffffffffffffffffffff1673ffffffffffffffffffffffffffffffffffffffff166370a08231306040518263ffffffff1660e01b8152600401612492919061372b565b60206040518083038186803b1580156124aa57600080fd5b505afa1580156124be573d6000803e3d6000fd5b505050506040513d601f19601f820116820180604052508101906124e29190613218565b905081816124f09190613d90565b600581905550600b60009054906101000a900473ffffffffffffffffffffffffffffffffffffffff1673ffffffffffffffffffffffffffffffffffffffff1663360434628533866009546040518563ffffffff1660e01b81526004016125599493929190613b18565b600060405180830381600087803b15801561257357600080fd5b505af1158015612587573d6000803e3d6000fd5b50505050826007600082825461259d9190613d90565b925050819055507fdacbdde355ba930696a362ea6738feb9f8bd52dfb3d81947558fd3217e23e3253383866040516125d793929190613807565b60405180910390a17ffdf9a3654680dc9368e434118e2f3e965f49622e51340fe10541b984963c76cc33848660405161261293929190613807565b60405180910390a16126673383600260009054906101000a900473ffffffffffffffffffffffffffffffffffffffff1673ffffffffffffffffffffffffffffffffffffffff1661266d9092919063ffffffff16565b50505050565b6126ee8363a9059cbb60e01b848460405160240161268c92919061377d565b604051602081830303815290604052907bffffffffffffffffffffffffffffffffffffffffffffffffffffffff19166020820180517bffffffffffffffffffffffffffffffffffffffffffffffffffffffff8381831617835250505050612aa6565b505050565b612776846323b872dd60e01b85858560405160240161271493929190613746565b604051602081830303815290604052907bffffffffffffffffffffffffffffffffffffffffffffffffffffffff19166020820180517bffffffffffffffffffffffffffffffffffffffffffffffffffffffff8381831617835250505050612aa6565b50505050565b60606000600283600261278f9190613d36565b6127999190613caf565b67ffffffffffffffff8111156127b2576127b1613f6c565b5b6040519080825280601f01601f1916602001820160405280156127e45781602001600182028036833780820191505090505b5090507f30000000000000000000000000000000000000000000000000000000000000008160008151811061281c5761281b613f3d565b5b60200101907effffffffffffffffffffffffffffffffffffffffffffffffffffffffffffff1916908160001a9053507f7800000000000000000000000000000000000000000000000000000000000000816001815181106128805761287f613f3d565b5b60200101907effffffffffffffffffffffffffffffffffffffffffffffffffffffffffffff1916908160001a905350600060018460026128c09190613d36565b6128ca9190613caf565b90505b600181111561296a577f3031323334353637383961626364656600000000000000000000000000000000600f86166010811061290c5761290b613f3d565b5b1a60f81b82828151811061292357612922613f3d565b5b60200101907effffffffffffffffffffffffffffffffffffffffffffffffffffffffffffff1916908160001a905350600485901c94508061296390613e84565b90506128cd565b50600084146129ae576040517f08c379a00000000000000000000000000000000000000000000000000000000081526004016129a590613926565b60405180910390fd5b8091505092915050565b6000600260009054906101000a900473ffffffffffffffffffffffffffffffffffffffff1673ffffffffffffffffffffffffffffffffffffffff166370a08231306040518263ffffffff1660e01b8152600401612a15919061372b565b60206040518083038186803b158015612a2d57600080fd5b505afa158015612a41573d6000803e3d6000fd5b505050506040513d601f19601f82011682018060405250810190612a659190613218565b9050600060055482612a779190613d90565b9050612a8281611a92565b8060066000828254612a949190613caf565b92505081905550816005819055505050565b6000612b08826040518060400160405280602081526020017f5361666545524332303a206c6f772d6c6576656c2063616c6c206661696c65648152508573ffffffffffffffffffffffffffffffffffffffff16612b6d9092919063ffffffff16565b9050600081511115612b685780806020019051810190612b289190613124565b612b67576040517f08c379a0000000000000000000000000000000000000000000000000000000008152600401612b5e90613a66565b60405180910390fd5b5b505050565b6060612b7c8484600085612b85565b90509392505050565b606082471015612bca576040517f08c379a0000000000000000000000000000000000000000000000000000000008152600401612bc190613986565b60405180910390fd5b612bd385612c99565b612c12576040517f08c379a0000000000000000000000000000000000000000000000000000000008152600401612c0990613a46565b60405180910390fd5b6000808673ffffffffffffffffffffffffffffffffffffffff168587604051612c3b9190613696565b60006040518083038185875af1925050503d8060008114612c78576040519150601f19603f3d011682016040523d82523d6000602084013e612c7d565b606091505b5091509150612c8d828286612cac565b92505050949350505050565b600080823b905060008111915050919050565b60608315612cbc57829050612d0c565b600083511115612ccf5782518084602001fd5b816040517f08c379a0000000000000000000000000000000000000000000000000000000008152600401612d0391906138b1565b60405180910390fd5b9392505050565b6000612d26612d2184613bab565b613b86565b90508083825260208201905082856020860282011115612d4957612d48613fa0565b5b60005b85811015612d795781612d5f8882612f0f565b845260208401935060208301925050600181019050612d4c565b5050509392505050565b6000612d96612d9184613bd7565b613b86565b905082815260208101848484011115612db257612db1613fa5565b5b612dbd848285613e42565b509392505050565b6000612dd8612dd384613c08565b613b86565b905082815260208101848484011115612df457612df3613fa5565b5b612dff848285613e42565b509392505050565b600081359050612e1681614388565b92915050565b600081519050612e2b81614388565b92915050565b600082601f830112612e4657612e45613f9b565b5b8151612e56848260208601612d13565b91505092915050565b600081519050612e6e8161439f565b92915050565b600081359050612e83816143b6565b92915050565b600081359050612e98816143cd565b92915050565b600082601f830112612eb357612eb2613f9b565b5b8135612ec3848260208601612d83565b91505092915050565b600082601f830112612ee157612ee0613f9b565b5b8135612ef1848260208601612dc5565b91505092915050565b600081359050612f09816143e4565b92915050565b600081519050612f1e816143e4565b92915050565b600060208284031215612f3a57612f39613faf565b5b6000612f4884828501612e07565b91505092915050565b600060208284031215612f6757612f66613faf565b5b6000612f7584828501612e1c565b91505092915050565b600080600080600080600060e0888a031215612f9d57612f9c613faf565b5b6000612fab8a828b01612e07565b9750506020612fbc8a828b01612e07565b965050604088013567ffffffffffffffff811115612fdd57612fdc613faa565b5b612fe98a828b01612ecc565b955050606088013567ffffffffffffffff81111561300a57613009613faa565b5b6130168a828b01612ecc565b94505060806130278a828b01612efa565b93505060a06130388a828b01612e07565b92505060c06130498a828b01612e07565b91505092959891949750929550565b6000806000806080858703121561307257613071613faf565b5b600061308087828801612e07565b945050602061309187828801612e07565b93505060406130a287828801612efa565b925050606085013567ffffffffffffffff8111156130c3576130c2613faa565b5b6130cf87828801612e9e565b91505092959194509250565b6000602082840312156130f1576130f0613faf565b5b600082015167ffffffffffffffff81111561310f5761310e613faa565b5b61311b84828501612e31565b91505092915050565b60006020828403121561313a57613139613faf565b5b600061314884828501612e5f565b91505092915050565b60006020828403121561316757613166613faf565b5b600061317584828501612e74565b91505092915050565b6000806040838503121561319557613194613faf565b5b60006131a385828601612e74565b92505060206131b485828601612e07565b9150509250929050565b6000602082840312156131d4576131d3613faf565b5b60006131e284828501612e89565b91505092915050565b60006020828403121561320157613200613faf565b5b600061320f84828501612efa565b91505092915050565b60006020828403121561322e5761322d613faf565b5b600061323c84828501612f0f565b91505092915050565b6000806040838503121561325c5761325b613faf565b5b600061326a85828601612efa565b925050602061327b85828601612efa565b9150509250929050565b60008060006060848603121561329e5761329d613faf565b5b60006132ac86828701612efa565b93505060206132bd86828701612efa565b92505060406132ce86828701612e07565b9150509250925092565b60006132e48383613678565b60208301905092915050565b6132f981613dc4565b82525050565b600061330a82613c49565b6133148185613c77565b935061331f83613c39565b8060005b8381101561335057815161333788826132d8565b975061334283613c6a565b925050600181019050613323565b5085935050505092915050565b61336681613dd6565b82525050565b61337581613de2565b82525050565b61338481613dec565b82525050565b600061339582613c54565b61339f8185613c88565b93506133af818560208601613e51565b80840191505092915050565b60006133c682613c5f565b6133d08185613c93565b93506133e0818560208601613e51565b6133e981613fb4565b840191505092915050565b60006133ff82613c5f565b6134098185613ca4565b9350613419818560208601613e51565b80840191505092915050565b6000613432602083613c93565b915061343d82613fc5565b602082019050919050565b6000613455602a83613c93565b915061346082613fee565b604082019050919050565b6000613478600983613ca4565b91506134838261403d565b600982019050919050565b600061349b602483613c93565b91506134a682614066565b604082019050919050565b60006134be600383613ca4565b91506134c9826140b5565b600382019050919050565b60006134e1602683613c93565b91506134ec826140de565b604082019050919050565b6000613504602783613c93565b915061350f8261412d565b604082019050919050565b6000613527601683613c93565b91506135328261417c565b602082019050919050565b600061354a602e83613c93565b9150613555826141a5565b604082019050919050565b600061356d601b83613c93565b9150613578826141f4565b602082019050919050565b6000613590602083613c93565b915061359b8261421d565b602082019050919050565b60006135b3601d83613c93565b91506135be82614246565b602082019050919050565b60006135d6601783613ca4565b91506135e18261426f565b601782019050919050565b60006135f9602a83613c93565b915061360482614298565b604082019050919050565b600061361c601b83613c93565b9150613627826142e7565b602082019050919050565b600061363f601183613ca4565b915061364a82614310565b601182019050919050565b6000613662602f83613c93565b915061366d82614339565b604082019050919050565b61368181613e38565b82525050565b61369081613e38565b82525050565b60006136a2828461338a565b915081905092915050565b60006136b88261346b565b91506136c482846133f4565b915081905092915050565b60006136da826134b1565b91506136e682846133f4565b915081905092915050565b60006136fc826135c9565b915061370882856133f4565b915061371382613632565b915061371f82846133f4565b91508190509392505050565b600060208201905061374060008301846132f0565b92915050565b600060608201905061375b60008301866132f0565b61376860208301856132f0565b6137756040830184613687565b949350505050565b600060408201905061379260008301856132f0565b61379f6020830184613687565b9392505050565b600060c0820190506137bb60008301896132f0565b6137c86020830188613687565b6137d560408301876132f0565b6137e26060830186613687565b6137ef60808301856132f0565b6137fc60a08301846132f0565b979650505050505050565b600060608201905061381c60008301866132f0565b6138296020830185613687565b6138366040830184613687565b949350505050565b6000602082019050818103600083015261385881846132ff565b905092915050565b6000602082019050613875600083018461335d565b92915050565b6000602082019050613890600083018461336c565b92915050565b60006020820190506138ab600083018461337b565b92915050565b600060208201905081810360008301526138cb81846133bb565b905092915050565b600060808201905081810360008301526138ed81876133bb565b9050818103602083015261390181866133bb565b905061391060408301856132f0565b61391d60608301846132f0565b95945050505050565b6000602082019050818103600083015261393f81613425565b9050919050565b6000602082019050818103600083015261395f81613448565b9050919050565b6000602082019050818103600083015261397f8161348e565b9050919050565b6000602082019050818103600083015261399f816134d4565b9050919050565b600060208201905081810360008301526139bf816134f7565b9050919050565b600060208201905081810360008301526139df8161351a565b9050919050565b600060208201905081810360008301526139ff8161353d565b9050919050565b60006020820190508181036000830152613a1f81613560565b9050919050565b60006020820190508181036000830152613a3f81613583565b9050919050565b60006020820190508181036000830152613a5f816135a6565b9050919050565b60006020820190508181036000830152613a7f816135ec565b9050919050565b60006020820190508181036000830152613a9f8161360f565b9050919050565b60006020820190508181036000830152613abf81613655565b9050919050565b6000602082019050613adb6000830184613687565b92915050565b6000606082019050613af66000830186613687565b613b0360208301856132f0565b613b106040830184613687565b949350505050565b6000608082019050613b2d6000830187613687565b613b3a60208301866132f0565b613b476040830185613687565b613b546060830184613687565b95945050505050565b6000604082019050613b726000830185613687565b613b7f6020830184613687565b9392505050565b6000613b90613ba1565b9050613b9c8282613eae565b919050565b6000604051905090565b600067ffffffffffffffff821115613bc657613bc5613f6c565b5b602082029050602081019050919050565b600067ffffffffffffffff821115613bf257613bf1613f6c565b5b613bfb82613fb4565b9050602081019050919050565b600067ffffffffffffffff821115613c2357613c22613f6c565b5b613c2c82613fb4565b9050602081019050919050565b6000819050602082019050919050565b600081519050919050565b600081519050919050565b600081519050919050565b6000602082019050919050565b600082825260208201905092915050565b600081905092915050565b600082825260208201905092915050565b600081905092915050565b6000613cba82613e38565b9150613cc583613e38565b9250827fffffffffffffffffffffffffffffffffffffffffffffffffffffffffffffffff03821115613cfa57613cf9613edf565b5b828201905092915050565b6000613d1082613e38565b9150613d1b83613e38565b925082613d2b57613d2a613f0e565b5b828204905092915050565b6000613d4182613e38565b9150613d4c83613e38565b9250817fffffffffffffffffffffffffffffffffffffffffffffffffffffffffffffffff0483118215151615613d8557613d84613edf565b5b828202905092915050565b6000613d9b82613e38565b9150613da683613e38565b925082821015613db957613db8613edf565b5b828203905092915050565b6000613dcf82613e18565b9050919050565b60008115159050919050565b6000819050919050565b60007fffffffff0000000000000000000000000000000000000000000000000000000082169050919050565b600073ffffffffffffffffffffffffffffffffffffffff82169050919050565b6000819050919050565b82818337600083830152505050565b60005b83811015613e6f578082015181840152602081019050613e54565b83811115613e7e576000848401525b50505050565b6000613e8f82613e38565b91506000821415613ea357613ea2613edf565b5b600182039050919050565b613eb782613fb4565b810181811067ffffffffffffffff82111715613ed657613ed5613f6c565b5b80604052505050565b7f4e487b7100000000000000000000000000000000000000000000000000000000600052601160045260246000fd5b7f4e487b7100000000000000000000000000000000000000000000000000000000600052601260045260246000fd5b7f4e487b7100000000000000000000000000000000000000000000000000000000600052603260045260246000fd5b7f4e487b7100000000000000000000000000000000000000000000000000000000600052604160045260246000fd5b600080fd5b600080fd5b600080fd5b600080fd5b600080fd5b6000601f19601f8301169050919050565b7f537472696e67733a20686578206c656e67746820696e73756666696369656e74600082015250565b7f43616e6e6f7420636c61696d2072657761726473206f6e206e6f74206f776e6560008201527f6420706f736974696f6e00000000000000000000000000000000000000000000602082015250565b7f635374616b696e67200000000000000000000000000000000000000000000000600082015250565b7f43616e6e6f7420756e7374616b65206f6e206e6f74206f776e656420706f736960008201527f74696f6e00000000000000000000000000000000000000000000000000000000602082015250565b7f63535f0000000000000000000000000000000000000000000000000000000000600082015250565b7f416464726573733a20696e73756666696369656e742062616c616e636520666f60008201527f722063616c6c0000000000000000000000000000000000000000000000000000602082015250565b7f496e73756666696369656e7420636f70797269676874206672616374696f6e2060008201527f62616c616e636500000000000000000000000000000000000000000000000000602082015250565b7f455243313136373a20637265617465206661696c656400000000000000000000600082015250565b7f496e697469616c697a61626c653a20636f6e747261637420697320616c72656160008201527f647920696e697469616c697a6564000000000000000000000000000000000000602082015250565b7f496e766573746f72207368617265206578636565647320313030250000000000600082015250565b7f496e76616c696420636f70797269676874206672616374696f6e20746f6b656e600082015250565b7f416464726573733a2063616c6c20746f206e6f6e2d636f6e7472616374000000600082015250565b7f416363657373436f6e74726f6c3a206163636f756e7420000000000000000000600082015250565b7f5361666545524332303a204552433230206f7065726174696f6e20646964206e60008201527f6f74207375636365656400000000000000000000000000000000000000000000602082015250565b7f43616e206f6e6c79207374616b65206f776e656420746f6b656e730000000000600082015250565b7f206973206d697373696e6720726f6c6520000000000000000000000000000000600082015250565b7f416363657373436f6e74726f6c3a2063616e206f6e6c792072656e6f756e636560008201527f20726f6c657320666f722073656c660000000000000000000000000000000000602082015250565b61439181613dc4565b811461439c57600080fd5b50565b6143a881613dd6565b81146143b357600080fd5b50565b6143bf81613de2565b81146143ca57600080fd5b50565b6143d681613dec565b81146143e157600080fd5b50565b6143ed81613e38565b81146143f857600080fd5b5056fea2646970667358221220805f0d736c647eae6db3e5cebe3fceb3a2e9279c13fdeb698a5d82630d97f24264736f6c63430008060033",
  "immutableReferences": {
    "12370": [
      {
        "length": 32,
        "start": 3971
      }
    ],
    "12372": [
      {
        "length": 32,
        "start": 4150
      }
    ],
    "12374": [
      {
        "length": 32,
        "start": 1714
      },
      {
        "length": 32,
        "start": 5059
      },
      {
        "length": 32,
        "start": 5172
      }
    ]
  },
  "source": "// SPDX-License-Identifier: MIT\npragma solidity ^0.8.0;\n\nimport \"@openzeppelin/contracts/access/AccessControl.sol\";\nimport \"@openzeppelin/contracts/token/ERC20/IERC20.sol\";\nimport \"@openzeppelin/contracts/token/ERC20/utils/SafeERC20.sol\";\nimport \"@openzeppelin/contracts/proxy/utils/Initializable.sol\";\nimport \"@openzeppelin/contracts/proxy/Clones.sol\";\nimport \"@openzeppelin/contracts/token/ERC721/IERC721Receiver.sol\";\nimport \"../interfaces/IOpenSalesManager.sol\";\nimport \"./StakingERC721.sol\";\nimport \"./CopyrightNFT.sol\";\n\nimport {StakingGovernance} from \"./StakingGovernance.sol\";\n\n//TODO: add events\ncontract DistributionManager is Initializable, IERC721Receiver, AccessControl {\n    using SafeERC20 for IERC20;\n\n    bytes32 public constant GOVERNANCE = keccak256(\"GOVERNANCE\");\n\n    uint256 public constant DECIMALS = 10**18;\n\n    address public podFundingToken;\n    address public copyrightFractionToken;\n    uint256 public investorShare;\n\n    uint256 public lastRoyalty;\n    uint256 public cumulativeRevenue;\n    uint256 public totalCFStaked;\n    uint256 public totalPTStaked;\n    uint256 public totalSharesCopyright;\n    uint256 public totalSharesInvestor;\n\n    address public copyrightFractionStakingNFT;\n    address public stakingGovernance;\n\n    address private _copyrightNFT;\n    address private _erc721WithRoyalty;\n\n    address private immutable nftBlueprint;\n    address private immutable stakingGovernanceImp;\n    address public immutable openSale;\n\n    mapping(address => uint256) private _positions;\n    mapping(uint256 => uint256) private _nftPositions;\n\n    event CopyrightStaked(address staker, uint256 amount, uint256 tokenId);\n    event CopyrightUnstaked(address destination, uint256 amount, uint256 tokenId);\n    event RewardsClaimed(address claimTo, uint256 reward, uint256 tokenId);\n\n    constructor(\n        address _nftBlueprint,\n        address _stakingGovernance,\n        address _openSale\n    ) {\n        nftBlueprint = _nftBlueprint;\n        stakingGovernanceImp = _stakingGovernance;\n        openSale = _openSale;\n    }\n\n    function initialize(\n        address _podFundingToken,\n        address _copyrightFractionToken,\n        string memory podName,\n        string memory podSymbol,\n        uint256 _investorShare,\n        address copyrightNFT,\n        address erc721WithRoyalty\n    ) external initializer returns (address stakingNFT) {\n        require(_copyrightFractionToken != address(0), \"Invalid copyright fraction token\");\n        require(_investorShare <= DECIMALS, \"Investor share exceeds 100%\");\n\n        podFundingToken = _podFundingToken;\n        copyrightFractionToken = _copyrightFractionToken;\n        _erc721WithRoyalty = erc721WithRoyalty;\n        copyrightFractionStakingNFT = Clones.clone(nftBlueprint);\n        investorShare = _investorShare;\n        _copyrightNFT = copyrightNFT;\n\n        address stakingGovernanceAddress = Clones.clone(stakingGovernanceImp);\n        stakingGovernance = stakingGovernanceAddress;\n\n        StakingGovernance(stakingGovernanceAddress).initialize(copyrightFractionStakingNFT);\n\n        StakingERC721(copyrightFractionStakingNFT).initialize(\n            string(abi.encodePacked(\"cStaking \", podName)),\n            string(abi.encodePacked(\"cS_\", podSymbol)),\n            _copyrightFractionToken,\n            stakingGovernanceAddress\n        );\n\n        _setupRole(GOVERNANCE, stakingGovernanceAddress);\n\n        return copyrightFractionStakingNFT;\n    }\n\n    function stakeCopyrightNFT(uint256 nftId) external {\n        CopyrightNFT nft = CopyrightNFT(_copyrightNFT);\n        require(nft.ownerOf(nftId) == msg.sender, \"Can only stake owned tokens\");\n        uint256 tokens = nft.balanceLocked(nftId);\n        uint256 stakingId = _stakeCopyrightFractions(msg.sender, tokens);\n        _nftPositions[stakingId] = nftId;\n        nft.safeTransferFrom(msg.sender, address(this), nftId);\n        nft.freeze(nftId);\n    }\n\n    function stakeCopyrightFractions(uint256 amount) external {\n        require(\n            IERC20(copyrightFractionToken).balanceOf(msg.sender) >= amount,\n            \"Insufficient copyright fraction balance\"\n        );\n        _stakeCopyrightFractions(msg.sender, amount);\n        IERC20(copyrightFractionToken).safeTransferFrom(msg.sender, address(this), amount);\n    }\n\n    function _stakeCopyrightFractions(address to, uint256 amount) internal returns (uint256) {\n        _syncStaking();\n        totalCFStaked += amount;\n        uint256 id = StakingERC721(copyrightFractionStakingNFT).createPosition(\n            to,\n            amount,\n            totalSharesCopyright\n        );\n        emit CopyrightStaked(to, amount, id);\n        return id;\n    }\n\n    function _syncStaking() internal {\n        uint256 balance = IERC20(podFundingToken).balanceOf(address(this));\n        uint256 x = balance - lastRoyalty;\n        _syncShares(x);\n        cumulativeRevenue += x;\n        lastRoyalty = balance;\n    }\n\n    function _syncShares(uint256 x) private {\n        if (totalCFStaked != 0) {\n            totalSharesCopyright += ((x * investorShare) * 10**18) / (totalCFStaked * DECIMALS);\n        }\n    }\n\n    function unstakeCopyrightNFT(uint256 stakingId) external {\n        CopyrightNFT nft = CopyrightNFT(_copyrightNFT);\n        uint256 nftId = _nftPositions[stakingId];\n        uint256 tokensToUnstake = nft.balanceLocked(nftId);\n        _unstakeCopyrightFractions(stakingId, tokensToUnstake);\n        IERC20(copyrightFractionToken).approve(_copyrightNFT, tokensToUnstake);\n        nft.unfreeze(nftId);\n        nft.safeTransferFrom(address(this), msg.sender, nftId);\n    }\n\n    function unstakeCopyrightFractions(uint256 id, uint256 amount) external {\n        _unstakeCopyrightFractions(id, amount);\n        IERC20(copyrightFractionToken).safeTransfer(msg.sender, amount);\n    }\n\n    function _unstakeCopyrightFractions(uint256 id, uint256 amount) internal {\n        require(\n            StakingERC721(copyrightFractionStakingNFT).ownerOf(id) == msg.sender,\n            \"Cannot unstake on not owned position\"\n        );\n        _syncShares(IERC20(podFundingToken).balanceOf(address(this)) - lastRoyalty);\n        uint256 reward = StakingERC721(copyrightFractionStakingNFT).calculateReward(id, totalSharesCopyright);\n        uint256 balance = IERC20(podFundingToken).balanceOf(address(this));\n        lastRoyalty = balance - reward;\n        StakingERC721(copyrightFractionStakingNFT).decreasePosition(\n            id,\n            msg.sender,\n            amount,\n            totalSharesCopyright\n        );\n\n        totalCFStaked -= amount;\n        emit RewardsClaimed(msg.sender, reward, id);\n        emit CopyrightUnstaked(msg.sender, amount, id);\n        IERC20(podFundingToken).safeTransfer(msg.sender, reward);\n    }\n\n    function claimCopyrightFractionRewards(uint256 id) external {\n        require(\n            StakingERC721(copyrightFractionStakingNFT).ownerOf(id) == msg.sender,\n            \"Cannot claim rewards on not owned position\"\n        );\n        _syncShares(IERC20(podFundingToken).balanceOf(address(this)) - lastRoyalty);\n        _claimRewards(id, copyrightFractionStakingNFT, totalSharesCopyright);\n    }\n\n    function _claimRewards(\n        uint256 id,\n        address nft,\n        uint256 totalShares\n    ) internal {\n        uint256 reward = StakingERC721(nft).calculateReward(id, totalShares);\n        lastRoyalty = IERC20(podFundingToken).balanceOf(address(this)) - reward;\n        StakingERC721(nft).setPositionTotalShares(id, msg.sender, totalShares);\n        emit RewardsClaimed(msg.sender, reward, id);\n        IERC20(podFundingToken).safeTransfer(msg.sender, reward);\n    }\n\n    function getCopyrightRewards(uint256 id) external view returns (uint256 reward) {\n        reward = StakingERC721(copyrightFractionStakingNFT).calculateReward(id, totalSharesCopyright);\n    }\n\n    function getCopyrightStakingPositions(address owner) external view returns (uint256[] memory) {\n        return StakingERC721(copyrightFractionStakingNFT).getPositions(owner);\n    }\n\n    function approveSale(\n        uint256 tokenId,\n        uint256 price,\n        address paymentToken\n    ) external onlyRole(GOVERNANCE) {\n        IERC721(_erc721WithRoyalty).approve(openSale, tokenId);\n        IOpenSalesManager(openSale).approveSale(\n            _erc721WithRoyalty,\n            tokenId,\n            paymentToken,\n            price,\n            address(this),\n            address(0)\n        );\n    }\n\n    function onERC721Received(\n        address,\n        address,\n        uint256,\n        bytes memory\n    ) public virtual override returns (bytes4) {\n        return this.onERC721Received.selector;\n    }\n}\n",
  "sourcePath": "/Users/angelsatorresalmenara/Desktop/privi-pods-smart-contract/contracts/implementations/DistributionManager.sol",
  "compiler": {
    "name": "solc",
    "version": "0.8.6+commit.11564f7e.Emscripten.clang"
  },
  "schemaVersion": "3.4.3",
  "updatedAt": "2021-11-16T21:43:00.285Z",
  "networkType": "ethereum",
  "devdoc": {
    "kind": "dev",
    "methods": {
      "getRoleAdmin(bytes32)": {
        "details": "Returns the admin role that controls `role`. See {grantRole} and {revokeRole}. To change a role's admin, use {_setRoleAdmin}."
      },
      "grantRole(bytes32,address)": {
        "details": "Grants `role` to `account`. If `account` had not been already granted `role`, emits a {RoleGranted} event. Requirements: - the caller must have ``role``'s admin role."
      },
      "hasRole(bytes32,address)": {
        "details": "Returns `true` if `account` has been granted `role`."
      },
      "renounceRole(bytes32,address)": {
        "details": "Revokes `role` from the calling account. Roles are often managed via {grantRole} and {revokeRole}: this function's purpose is to provide a mechanism for accounts to lose their privileges if they are compromised (such as when a trusted device is misplaced). If the calling account had been granted `role`, emits a {RoleRevoked} event. Requirements: - the caller must be `account`."
      },
      "revokeRole(bytes32,address)": {
        "details": "Revokes `role` from `account`. If `account` had been granted `role`, emits a {RoleRevoked} event. Requirements: - the caller must have ``role``'s admin role."
      },
      "supportsInterface(bytes4)": {
        "details": "See {IERC165-supportsInterface}."
      }
    },
    "version": 1
  },
  "userdoc": {
    "kind": "user",
    "methods": {},
    "version": 1
  }
}