{
  "contractName": "ERC1155TokenExchange",
  "abi": [
    {
      "inputs": [],
      "stateMutability": "nonpayable",
      "type": "constructor"
    },
    {
      "anonymous": false,
      "inputs": [
        {
          "indexed": false,
          "internalType": "uint256",
          "name": "offerId",
          "type": "uint256"
        }
      ],
      "name": "ERC1155TokenBuyingOfferCanceled",
      "type": "event"
    },
    {
      "anonymous": false,
      "inputs": [
        {
          "indexed": false,
          "internalType": "uint256",
          "name": "offerId",
          "type": "uint256"
        }
      ],
      "name": "ERC1155TokenBuyingOfferPlaced",
      "type": "event"
    },
    {
      "anonymous": false,
      "inputs": [
        {
          "indexed": false,
          "internalType": "uint256",
          "name": "exchangeId",
          "type": "uint256"
        },
        {
          "indexed": false,
          "internalType": "uint256",
          "name": "initialOfferId",
          "type": "uint256"
        }
      ],
      "name": "ERC1155TokenExchangeCreated",
      "type": "event"
    },
    {
      "anonymous": false,
      "inputs": [
        {
          "indexed": false,
          "internalType": "uint256",
          "name": "offerId",
          "type": "uint256"
        }
      ],
      "name": "ERC1155TokenFromOfferBought",
      "type": "event"
    },
    {
      "anonymous": false,
      "inputs": [
        {
          "indexed": false,
          "internalType": "uint256",
          "name": "offerId",
          "type": "uint256"
        }
      ],
      "name": "ERC1155TokenFromOfferSold",
      "type": "event"
    },
    {
      "anonymous": false,
      "inputs": [
        {
          "indexed": false,
          "internalType": "uint256",
          "name": "offerId",
          "type": "uint256"
        }
      ],
      "name": "ERC1155TokenSellingOfferCanceled",
      "type": "event"
    },
    {
      "anonymous": false,
      "inputs": [
        {
          "indexed": false,
          "internalType": "uint256",
          "name": "offerId",
          "type": "uint256"
        }
      ],
      "name": "ERC1155TokenSellingOfferPlaced",
      "type": "event"
    },
    {
      "inputs": [
        {
          "internalType": "address",
          "name": "",
          "type": "address"
        },
        {
          "internalType": "address",
          "name": "",
          "type": "address"
        },
        {
          "internalType": "uint256[]",
          "name": "",
          "type": "uint256[]"
        },
        {
          "internalType": "uint256[]",
          "name": "",
          "type": "uint256[]"
        },
        {
          "internalType": "bytes",
          "name": "",
          "type": "bytes"
        }
      ],
      "name": "onERC1155BatchReceived",
      "outputs": [
        {
          "internalType": "bytes4",
          "name": "",
          "type": "bytes4"
        }
      ],
      "stateMutability": "nonpayable",
      "type": "function"
    },
    {
      "inputs": [
        {
          "internalType": "address",
          "name": "",
          "type": "address"
        },
        {
          "internalType": "address",
          "name": "",
          "type": "address"
        },
        {
          "internalType": "uint256",
          "name": "",
          "type": "uint256"
        },
        {
          "internalType": "uint256",
          "name": "",
          "type": "uint256"
        },
        {
          "internalType": "bytes",
          "name": "",
          "type": "bytes"
        }
      ],
      "name": "onERC1155Received",
      "outputs": [
        {
          "internalType": "bytes4",
          "name": "",
          "type": "bytes4"
        }
      ],
      "stateMutability": "nonpayable",
      "type": "function"
    },
    {
      "inputs": [
        {
          "internalType": "bytes4",
          "name": "interfaceId",
          "type": "bytes4"
        }
      ],
      "name": "supportsInterface",
      "outputs": [
        {
          "internalType": "bool",
          "name": "",
          "type": "bool"
        }
      ],
      "stateMutability": "view",
      "type": "function",
      "constant": true
    },
    {
      "inputs": [],
      "name": "getErc1155ExchangeCount",
      "outputs": [
        {
          "internalType": "uint256",
          "name": "",
          "type": "uint256"
        }
      ],
      "stateMutability": "view",
      "type": "function",
      "constant": true
    },
    {
      "inputs": [],
      "name": "getErc1155OfferCount",
      "outputs": [
        {
          "internalType": "uint256",
          "name": "",
          "type": "uint256"
        }
      ],
      "stateMutability": "view",
      "type": "function",
      "constant": true
    },
    {
      "inputs": [],
      "name": "getErc1155ExchangeAll",
      "outputs": [
        {
          "components": [
            {
              "internalType": "string",
              "name": "exchangeName",
              "type": "string"
            },
            {
              "internalType": "address",
              "name": "creatorAddress",
              "type": "address"
            },
            {
              "internalType": "address",
              "name": "exchangeTokenAddress",
              "type": "address"
            },
            {
              "internalType": "address",
              "name": "offerTokenAddress",
              "type": "address"
            },
            {
              "internalType": "uint256",
              "name": "initialAmount",
              "type": "uint256"
            },
            {
              "internalType": "uint256",
              "name": "price",
              "type": "uint256"
            }
          ],
          "internalType": "struct ERC1155TokenExchange.ERC1155Exchange[]",
          "name": "",
          "type": "tuple[]"
        }
      ],
      "stateMutability": "view",
      "type": "function",
      "constant": true
    },
    {
      "inputs": [],
      "name": "getErc1155OfferAll",
      "outputs": [
        {
          "components": [
            {
              "internalType": "uint256",
              "name": "exchangeId",
              "type": "uint256"
            },
            {
              "internalType": "uint256",
              "name": "offerId",
              "type": "uint256"
            },
            {
              "internalType": "string",
              "name": "offerType",
              "type": "string"
            },
            {
              "internalType": "address",
              "name": "creatorAddress",
              "type": "address"
            },
            {
              "internalType": "uint256",
              "name": "tokenId",
              "type": "uint256"
            },
            {
              "internalType": "uint256",
              "name": "amount",
              "type": "uint256"
            },
            {
              "internalType": "uint256",
              "name": "price",
              "type": "uint256"
            }
          ],
          "internalType": "struct ERC1155TokenExchange.ERC1155Offer[]",
          "name": "",
          "type": "tuple[]"
        }
      ],
      "stateMutability": "view",
      "type": "function",
      "constant": true
    },
    {
      "inputs": [
        {
          "internalType": "uint256",
          "name": "_exchangeId",
          "type": "uint256"
        }
      ],
      "name": "getErc1155ExchangeById",
      "outputs": [
        {
          "components": [
            {
              "internalType": "string",
              "name": "exchangeName",
              "type": "string"
            },
            {
              "internalType": "address",
              "name": "creatorAddress",
              "type": "address"
            },
            {
              "internalType": "address",
              "name": "exchangeTokenAddress",
              "type": "address"
            },
            {
              "internalType": "address",
              "name": "offerTokenAddress",
              "type": "address"
            },
            {
              "internalType": "uint256",
              "name": "initialAmount",
              "type": "uint256"
            },
            {
              "internalType": "uint256",
              "name": "price",
              "type": "uint256"
            }
          ],
          "internalType": "struct ERC1155TokenExchange.ERC1155Exchange",
          "name": "",
          "type": "tuple"
        }
      ],
      "stateMutability": "view",
      "type": "function",
      "constant": true
    },
    {
      "inputs": [
        {
          "internalType": "uint256",
          "name": "_offerId",
          "type": "uint256"
        }
      ],
      "name": "getErc1155OfferById",
      "outputs": [
        {
          "components": [
            {
              "internalType": "uint256",
              "name": "exchangeId",
              "type": "uint256"
            },
            {
              "internalType": "uint256",
              "name": "offerId",
              "type": "uint256"
            },
            {
              "internalType": "string",
              "name": "offerType",
              "type": "string"
            },
            {
              "internalType": "address",
              "name": "creatorAddress",
              "type": "address"
            },
            {
              "internalType": "uint256",
              "name": "tokenId",
              "type": "uint256"
            },
            {
              "internalType": "uint256",
              "name": "amount",
              "type": "uint256"
            },
            {
              "internalType": "uint256",
              "name": "price",
              "type": "uint256"
            }
          ],
          "internalType": "struct ERC1155TokenExchange.ERC1155Offer",
          "name": "",
          "type": "tuple"
        }
      ],
      "stateMutability": "view",
      "type": "function",
      "constant": true
    },
    {
      "inputs": [
        {
          "components": [
            {
              "internalType": "string",
              "name": "exchangeName",
              "type": "string"
            },
            {
              "internalType": "address",
              "name": "exchangeTokenAddress",
              "type": "address"
            },
            {
              "internalType": "address",
              "name": "offerTokenAddress",
              "type": "address"
            },
            {
              "internalType": "uint256",
              "name": "tokenId",
              "type": "uint256"
            },
            {
              "internalType": "uint256",
              "name": "amount",
              "type": "uint256"
            },
            {
              "internalType": "uint256",
              "name": "price",
              "type": "uint256"
            }
          ],
          "internalType": "struct ERC1155TokenExchange.CreateERC1155TokenExchangeRequest",
          "name": "input",
          "type": "tuple"
        },
        {
          "internalType": "address",
          "name": "caller",
          "type": "address"
        }
      ],
      "name": "CreateERC1155TokenExchange",
      "outputs": [],
      "stateMutability": "nonpayable",
      "type": "function"
    },
    {
      "inputs": [
        {
          "components": [
            {
              "internalType": "uint256",
              "name": "exchangeId",
              "type": "uint256"
            },
            {
              "internalType": "uint256",
              "name": "tokenId",
              "type": "uint256"
            },
            {
              "internalType": "uint256",
              "name": "amount",
              "type": "uint256"
            },
            {
              "internalType": "uint256",
              "name": "price",
              "type": "uint256"
            }
          ],
          "internalType": "struct ERC1155TokenExchange.PlaceERC1155TokenOfferRequest",
          "name": "input",
          "type": "tuple"
        },
        {
          "internalType": "address",
          "name": "caller",
          "type": "address"
        }
      ],
      "name": "PlaceERC1155TokenBuyingOffer",
      "outputs": [],
      "stateMutability": "nonpayable",
      "type": "function"
    },
    {
      "inputs": [
        {
          "components": [
            {
              "internalType": "uint256",
              "name": "exchangeId",
              "type": "uint256"
            },
            {
              "internalType": "uint256",
              "name": "tokenId",
              "type": "uint256"
            },
            {
              "internalType": "uint256",
              "name": "amount",
              "type": "uint256"
            },
            {
              "internalType": "uint256",
              "name": "price",
              "type": "uint256"
            }
          ],
          "internalType": "struct ERC1155TokenExchange.PlaceERC1155TokenOfferRequest",
          "name": "input",
          "type": "tuple"
        },
        {
          "internalType": "address",
          "name": "caller",
          "type": "address"
        }
      ],
      "name": "PlaceERC1155TokenSellingOffer",
      "outputs": [],
      "stateMutability": "nonpayable",
      "type": "function"
    },
    {
      "inputs": [
        {
          "components": [
            {
              "internalType": "uint256",
              "name": "exchangeId",
              "type": "uint256"
            },
            {
              "internalType": "uint256",
              "name": "offerId",
              "type": "uint256"
            }
          ],
          "internalType": "struct ERC1155TokenExchange.CancelOfferRequest",
          "name": "input",
          "type": "tuple"
        },
        {
          "internalType": "address",
          "name": "caller",
          "type": "address"
        }
      ],
      "name": "CancelERC1155TokenBuyingOffer",
      "outputs": [],
      "stateMutability": "nonpayable",
      "type": "function"
    },
    {
      "inputs": [
        {
          "components": [
            {
              "internalType": "uint256",
              "name": "exchangeId",
              "type": "uint256"
            },
            {
              "internalType": "uint256",
              "name": "offerId",
              "type": "uint256"
            }
          ],
          "internalType": "struct ERC1155TokenExchange.CancelOfferRequest",
          "name": "input",
          "type": "tuple"
        },
        {
          "internalType": "address",
          "name": "caller",
          "type": "address"
        }
      ],
      "name": "CancelERC1155TokenSellingOffer",
      "outputs": [],
      "stateMutability": "nonpayable",
      "type": "function"
    },
    {
      "inputs": [
        {
          "components": [
            {
              "internalType": "uint256",
              "name": "exchangeId",
              "type": "uint256"
            },
            {
              "internalType": "uint256",
              "name": "offerId",
              "type": "uint256"
            }
          ],
          "internalType": "struct ERC1155TokenExchange.OfferRequest",
          "name": "input",
          "type": "tuple"
        },
        {
          "internalType": "address",
          "name": "caller",
          "type": "address"
        }
      ],
      "name": "BuyERC1155TokenFromOffer",
      "outputs": [],
      "stateMutability": "nonpayable",
      "type": "function"
    },
    {
      "inputs": [
        {
          "components": [
            {
              "internalType": "uint256",
              "name": "exchangeId",
              "type": "uint256"
            },
            {
              "internalType": "uint256",
              "name": "offerId",
              "type": "uint256"
            }
          ],
          "internalType": "struct ERC1155TokenExchange.OfferRequest",
          "name": "input",
          "type": "tuple"
        },
        {
          "internalType": "address",
          "name": "caller",
          "type": "address"
        }
      ],
      "name": "SellERC1155TokenFromOffer",
      "outputs": [],
      "stateMutability": "nonpayable",
      "type": "function"
    }
  ],
  "bytecode": "0x608060405234801561001057600080fd5b5060008080556001556138d3806100286000396000f3fe608060405234801561001057600080fd5b50600436106101045760003560e060020a90048063b84304c91161009b578063e71c642d1161006a578063e71c642d14610247578063f098c40414610267578063f23a6e611461027a578063f61af971146102b257600080fd5b8063b84304c9146101bb578063bc197c81146101d0578063ce64c6f114610221578063dd9c7f1c1461023457600080fd5b8063428d994e116100d7578063428d994e1461017b5780638b17a3a21461018d578063926396d6146101a0578063965ff2b0146101b357600080fd5b806301ffc9a7146101095780630b5d8fca146101315780630fd4092d1461015157806332a6a99b14610166575b600080fd5b61011c610117366004613308565b6102c5565b60405190151581526020015b60405180910390f35b61014461013f3660046134a5565b61032e565b60405161012891906136e5565b61016461015f366004613330565b610432565b005b61016e610abc565b604051610128919061367f565b6001545b604051908152602001610128565b61016461019b366004613330565b610c7b565b6101646101ae366004613330565b6113d4565b60005461017f565b6101c36118f1565b604051610128919061361f565b6102086101de3660046131df565b7fbc197c810000000000000000000000000000000000000000000000000000000095945050505050565b604051600160e060020a03199091168152602001610128565b61016461022f36600461342a565b611a9f565b610164610242366004613363565b611f56565b61025a6102553660046134a5565b6124cf565b60405161012891906136d2565b610164610275366004613330565b6125c8565b610208610288366004613285565b7ff23a6e610000000000000000000000000000000000000000000000000000000095945050505050565b6101646102c036600461342a565b612b24565b6000600160e060020a031982167f4e2312e000000000000000000000000000000000000000000000000000000000148061032857507f01ffc9a700000000000000000000000000000000000000000000000000000000600160e060020a03198316145b92915050565b610336612f08565b600360008381526020019081526020016000206040518060e00160405290816000820154815260200160018201548152602001600282018054610378906137b8565b80601f01602080910402602001604051908101604052809291908181526020018280546103a4906137b8565b80156103f15780601f106103c6576101008083540402835291602001916103f1565b820191906000526020600020905b8154815290600101906020018083116103d457829003601f168201915b50505091835250506003820154600160a060020a03166020820152600482015460408201526005820154606082015260069091015460809091015292915050565b600060036000846020015181526020019081526020016000206040518060e0016040529081600082015481526020016001820154815260200160028201805461047a906137b8565b80601f01602080910402602001604051908101604052809291908181526020018280546104a6906137b8565b80156104f35780601f106104c8576101008083540402835291602001916104f3565b820191906000526020600020905b8154815290600101906020018083116104d657829003601f168201915b5050509183525050600382810154600160a060020a0390811660208085019190915260048501546040808601919091526005860154606086015260069095015460809094019390935287516000908152600293849052848120909201548851835293909120909101548651845194955092821693911691146105f95760405160e560020a62461bcd028152602060048201526045602482015260008051602061385e83398151915260448201527f6d4f666665723a2073686f756c64206265207468652073616d6520657863686160648201527f6e67654964000000000000000000000000000000000000000000000000000000608482015260a4015b60405180910390fd5b60405160e260020a6314d1531302602082015260240160405160208183030381529060405280519060200120836040015160405160200161063a91906135cb565b60405160208183030381529060405280519060200120146106da5760405160e560020a62461bcd028152602060048201526043602482015260008051602061385e83398151915260448201527f6d4f666665723a2073686f756c64206265207468652073656c6c696e67206f6660648201527f6665720000000000000000000000000000000000000000000000000000000000608482015260a4016105f0565b8260a001518360c001516106ee9190613752565b60405160e060020a6370a08231028152600160a060020a0386811660048301528416906370a082319060240160206040518083038186803b15801561073257600080fd5b505afa158015610746573d6000803e3d6000fd5b505050506040513d601f19601f8201168201806040525081019061076a91906134bd565b10156107f55760405160e560020a62461bcd028152602060048201526045602482015260008051602061385e83398151915260448201527f6d4f666665723a20796f7520646f6e2774206861766520656e6f75676820626160648201527f6c616e6365000000000000000000000000000000000000000000000000000000608482015260a4016105f0565b60a0830151608084015160405160e160020a627eeac70281523060048201526024810191909152600160a060020a0383169062fdd58e9060440160206040518083038186803b15801561084757600080fd5b505afa15801561085b573d6000803e3d6000fd5b505050506040513d601f19601f8201168201806040525081019061087f91906134bd565b101561090a5760405160e560020a62461bcd028152602060048201526042602482015260008051602061385e83398151915260448201527f6d4f666665723a20596f75722062616c616e6365206973206e6f7420656e6f7560648201527f6768000000000000000000000000000000000000000000000000000000000000608482015260a4016105f0565b81600160a060020a03166323b872dd8585606001518660a001518760c001516109339190613752565b60405160e060020a63ffffffff8616028152600160a060020a0393841660048201529290911660248301526044820152606401602060405180830381600087803b15801561098057600080fd5b505af1158015610994573d6000803e3d6000fd5b505050506040513d601f19601f820116820180604052508101906109b891906132e8565b50608083015160a084015160405160e160020a6379212195028152600160a060020a0384169263f242432a926109f69230928a9290916004016135e7565b600060405180830381600087803b158015610a1057600080fd5b505af1158015610a24573d6000803e3d6000fd5b5050506020808701516000908152600390915260408120818155600181018290559150610a546002830182612f4e565b50600381018054600160a060020a0319169055600060048201819055600582018190556006909101556020858101516040519081527f50b4164b02602e7111f2a24c6e49b8ba5024a2e7b7f6e2627a0dd7b44c8b589891015b60405180910390a15050505050565b6060600060015467ffffffffffffffff811115610aec5760e060020a634e487b7102600052604160045260246000fd5b604051908082528060200260200182016040528015610b2557816020015b610b12612f08565b815260200190600190039081610b0a5790505b50905060015b6001548111610c7557600360008281526020019081526020016000206040518060e00160405290816000820154815260200160018201548152602001600282018054610b76906137b8565b80601f0160208091040260200160405190810160405280929190818152602001828054610ba2906137b8565b8015610bef5780601f10610bc457610100808354040283529160200191610bef565b820191906000526020600020905b815481529060010190602001808311610bd257829003601f168201915b50505091835250506003820154600160a060020a03166020820152600482015460408201526005820154606082015260069091015460809091015282610c36600184613771565b81518110610c575760e060020a634e487b7102600052603260045260246000fd5b60200260200101819052508080610c6d906137f0565b915050610b2b565b50919050565b600060036000846020015181526020019081526020016000206040518060e00160405290816000820154815260200160018201548152602001600282018054610cc3906137b8565b80601f0160208091040260200160405190810160405280929190818152602001828054610cef906137b8565b8015610d3c5780601f10610d1157610100808354040283529160200191610d3c565b820191906000526020600020905b815481529060010190602001808311610d1f57829003601f168201915b5050509183525050600382810154600160a060020a039081166020808501919091526004850154604080860191909152600586015460608601526006909501546080909401939093528751600090815260029384905284812090920154885183529390912090910154865184519495509282169391169114610e3d5760405160e560020a62461bcd028152602060048201526046602482015260008051602061387e83398151915260448201527f6f6d4f666665723a2073686f756c64206265207468652073616d65206578636860648201527f616e676549640000000000000000000000000000000000000000000000000000608482015260a4016105f0565b6040517f42555900000000000000000000000000000000000000000000000000000000006020820152602301604051602081830303815290604052805190602001208360400151604051602001610e9491906135cb565b6040516020818303038152906040528051906020012014610f345760405160e560020a62461bcd028152602060048201526043602482015260008051602061387e83398151915260448201527f6f6d4f666665723a2073686f756c642062652074686520627579696e67206f6660648201527f6665720000000000000000000000000000000000000000000000000000000000608482015260a4016105f0565b8260a001518360c00151610f489190613752565b60405160e060020a6370a08231028152306004820152600160a060020a038416906370a082319060240160206040518083038186803b158015610f8a57600080fd5b505afa158015610f9e573d6000803e3d6000fd5b505050506040513d601f19601f82011682018060405250810190610fc291906134bd565b101561104d5760405160e560020a62461bcd028152602060048201526046602482015260008051602061387e83398151915260448201527f6f6d4f666665723a20796f7520646f6e2774206861766520656e6f756768206260648201527f616c616e63650000000000000000000000000000000000000000000000000000608482015260a4016105f0565b60a0830151608084015160405160e160020a627eeac7028152600160a060020a03878116600483015260248201929092529083169062fdd58e9060440160206040518083038186803b1580156110a257600080fd5b505afa1580156110b6573d6000803e3d6000fd5b505050506040513d601f19601f820116820180604052508101906110da91906134bd565b101561113f5760405160e560020a62461bcd02815260206004820152603e602482015260008051602061387e83398151915260448201527f6f6d4f6666653a206e65656420746f206f776e207468697320746f6b656e000060648201526084016105f0565b6040517fe985e9c5000000000000000000000000000000000000000000000000000000008152600160a060020a03858116600483015230602483015282169063e985e9c59060440160206040518083038186803b15801561119f57600080fd5b505afa1580156111b3573d6000803e3d6000fd5b505050506040513d601f19601f820116820180604052508101906111d791906132e8565b61123a5760405160e560020a62461bcd02815260206004820152603f602482015260008051602061387e83398151915260448201527f6f6d4f6666653a204f776e657220686173206e6f7420617070726f766564320060648201526084016105f0565b81600160a060020a031663a9059cbb858560a001518660c0015161125e9190613752565b60405160e060020a63ffffffff8516028152600160a060020a0390921660048301526024820152604401602060405180830381600087803b1580156112a257600080fd5b505af11580156112b6573d6000803e3d6000fd5b505050506040513d601f19601f820116820180604052508101906112da91906132e8565b506060830151608084015160a085015160405160e160020a6379212195028152600160a060020a0385169363f242432a93611319938a936004016135e7565b600060405180830381600087803b15801561133357600080fd5b505af1158015611347573d6000803e3d6000fd5b50505060208087015160009081526003909152604081208181556001810182905591506113776002830182612f4e565b50600381018054600160a060020a0319169055600060048201819055600582018190556006909101556020858101516040519081527ffe20cd978da588cbe56a87fb6687ded2bcba108610a72d54c0788dcd613f4e2b9101610aad565b600060036000846020015181526020019081526020016000206040518060e0016040529081600082015481526020016001820154815260200160028201805461141c906137b8565b80601f0160208091040260200160405190810160405280929190818152602001828054611448906137b8565b80156114955780601f1061146a57610100808354040283529160200191611495565b820191906000526020600020905b81548152906001019060200180831161147857829003601f168201915b50505091835250506003820154600160a060020a0390811660208084019190915260048401546040808501919091526005850154606080860191909152600690950154608090940193909352875160009081526002918290529290922090910154918301519293509081169181169084161461156a5760405160e560020a62461bcd02815260206004820152603d602482015260008051602061383e83398151915260448201527f53656c6c696e674f666665723a2073686f756c64206265206f776e657200000060648201526084016105f0565b83518251146115f85760405160e560020a62461bcd02815260206004820152604b602482015260008051602061383e83398151915260448201527f53656c6c696e674f666665723a2073686f756c64206265207468652073616d6560648201527f2065786368616e67654964000000000000000000000000000000000000000000608482015260a4016105f0565b60405160e260020a6314d1531302602082015260240160405160208183030381529060405280519060200120826040015160405160200161163991906135cb565b60405160208183030381529060405280519060200120146116d95760405160e560020a62461bcd028152602060048201526049602482015260008051602061383e83398151915260448201527f53656c6c696e674f666665723a2073686f756c64206265207468652073656c6c60648201527f696e67206f666665720000000000000000000000000000000000000000000000608482015260a4016105f0565b60a0820151608083015160405160e160020a627eeac70281523060048201526024810191909152600160a060020a0383169062fdd58e9060440160206040518083038186803b15801561172b57600080fd5b505afa15801561173f573d6000803e3d6000fd5b505050506040513d601f19601f8201168201806040525081019061176391906134bd565b10156117ef5760405160e560020a62461bcd0281526020600482015260446024820181905260008051602061383e833981519152908201527f53656c6c696e674f666665723a206e65656420746f206f776e2074686973207460648201527f6f6b656e00000000000000000000000000000000000000000000000000000000608482015260a4016105f0565b608082015160a083015160405160e160020a6379212195028152600160a060020a0384169263f242432a9261182c923092899290916004016135e7565b600060405180830381600087803b15801561184657600080fd5b505af115801561185a573d6000803e3d6000fd5b505050602080860151600090815260039091526040812081815560018101829055915061188a6002830182612f4e565b50600381018054600160a060020a0319169055600060048201819055600582018190556006909101556020848101516040519081527f1327c6623bbeb5d045cf2fbf014223e0c326c7d1c40c22762a7ef4b591b171cb91015b60405180910390a150505050565b60606000805467ffffffffffffffff8111156119205760e060020a634e487b7102600052604160045260246000fd5b60405190808252806020026020018201604052801561195957816020015b611946612f8b565b81526020019060019003908161193e5790505b50905060015b6000548111610c755760008181526002602052604090819020815160c08101909252805482908290611990906137b8565b80601f01602080910402602001604051908101604052809291908181526020018280546119bc906137b8565b8015611a095780601f106119de57610100808354040283529160200191611a09565b820191906000526020600020905b8154815290600101906020018083116119ec57829003601f168201915b5050509183525050600182810154600160a060020a03908116602084015260028401548116604084015260038401541660608301526004830154608083015260059092015460a0909101528390611a609084613771565b81518110611a815760e060020a634e487b7102600052603260045260246000fd5b60200260200101819052508080611a97906137f0565b91505061195f565b8151600090815260026020818152604092839020909101548285015191850151925160e160020a627eeac7028152600160a060020a0385811660048301526024820194909452921691829062fdd58e9060440160206040518083038186803b158015611b0a57600080fd5b505afa158015611b1e573d6000803e3d6000fd5b505050506040513d601f19601f82011682018060405250810190611b4291906134bd565b1015611bdf5760405160e560020a62461bcd02815260206004820152604760248201527f546f6b656e45786368616e67652e506c61636545524331313535546f6b656e5360448201527f656c6c696e674f666665723a20596f75722062616c616e6365206973206e6f7460648201527f20656e6f75676800000000000000000000000000000000000000000000000000608482015260a4016105f0565b6000836060015111611c825760405160e560020a62461bcd02815260206004820152605260248201527f546f6b656e45786368616e67652e506c61636545524331313535546f6b656e5360448201527f656c6c696e674f666665723a2070726963652063616e2774206265206c6f776560648201527f72206f7220657175616c20746f207a65726f0000000000000000000000000000608482015260a4016105f0565b6040517fe985e9c5000000000000000000000000000000000000000000000000000000008152600160a060020a03838116600483015230602483015282169063e985e9c59060440160206040518083038186803b158015611ce257600080fd5b505afa158015611cf6573d6000803e3d6000fd5b505050506040513d601f19601f82011682018060405250810190611d1a91906132e8565b611db55760405160e560020a62461bcd02815260206004820152604360248201527f546f6b656e45786368616e67652e506c61636545524331313535546f6b656e5360448201527f656c6c696e674f666665723a204f776e657220686173206e6f7420617070726f60648201527f7665640000000000000000000000000000000000000000000000000000000000608482015260a4016105f0565b6020830151604080850151905160e160020a6379212195028152600160a060020a0384169263f242432a92611df2928792309290916004016135e7565b600060405180830381600087803b158015611e0c57600080fd5b505af1158015611e20573d6000803e3d6000fd5b50505050611e2c612f08565b835181526040805180820182526004815260e260020a6314d153130260208083019190915282840191909152600160a060020a0385166060808501919091529086015160808401529085015160a083015284015160c082015260018054906000611e95836137f0565b909155505060018054602080840182815260009283526003825260409283902085518155905193810193909355908301518051849392611edc926002850192910190612fdc565b506060820151600382018054600160a060020a031916600160a060020a039092169190911790556080820151600482015560a0820151600582015560c0909101516006909101556001546040519081527f67c3640a392c50ccf0b9011992228d3c272efaae1a204fa3284eb189fdfe7653906020016118e3565b60208201516080830151606084015160405160e160020a627eeac7028152600160a060020a03858116600483015260248201929092529083169062fdd58e9060440160206040518083038186803b158015611fb057600080fd5b505afa158015611fc4573d6000803e3d6000fd5b505050506040513d601f19601f82011682018060405250810190611fe891906134bd565b10156120865760405160e560020a62461bcd028152602060048201526044602482018190527f546f6b656e45786368616e67652e43726561746545524331313535546f6b656e908201527f45786368616e67653a20596f75722062616c616e6365206973206e6f7420656e60648201527f6f75676800000000000000000000000000000000000000000000000000000000608482015260a4016105f0565b60008360a00151116121295760405160e560020a62461bcd02815260206004820152604f60248201527f546f6b656e45786368616e67652e43726561746545524331313535546f6b656e60448201527f45786368616e67653a2070726963652063616e2774206265206c6f776572206f60648201527f7220657175616c20746f207a65726f0000000000000000000000000000000000608482015260a4016105f0565b6040517fe985e9c5000000000000000000000000000000000000000000000000000000008152600160a060020a03838116600483015230602483015282169063e985e9c59060440160206040518083038186803b15801561218957600080fd5b505afa15801561219d573d6000803e3d6000fd5b505050506040513d601f19601f820116820180604052508101906121c191906132e8565b612238576040805160e560020a62461bcd0281526020600482015260248101919091527f546f6b656e45786368616e67652e43726561746545524331313535546f6b656e60448201527f45786368616e67653a204f776e657220686173206e6f7420617070726f76656460648201526084016105f0565b6060830151608084015160405160e160020a6379212195028152600160a060020a0384169263f242432a92612275928792309290916004016135e7565b600060405180830381600087803b15801561228f57600080fd5b505af11580156122a3573d6000803e3d6000fd5b505050506122af612f8b565b83518152600160a060020a0380841660208084019190915285015181166040808401919091528501511660608201526080808501519082015260a08085015190820152600080549080612301836137f0565b909155505060008054815260026020908152604090912082518051849361232c928492910190612fdc565b506020820151600182018054600160a060020a03928316600160a060020a031991821617909155604084015160028401805491841691831691909117905560608401516003840180549190931691161790556080820151600482015560a09091015160059091015561239c612f08565b6000805482526040805180820182526004815260e260020a6314d1531302602082015290830152600160a060020a03851660608084019190915286015160808084019190915286015160a08084019190915283015160c08301526001805491612404836137f0565b90915550506001805460208084018281526000928352600382526040928390208551815590519381019390935590830151805184939261244b926002850192910190612fdc565b506060820151600382018054600160a060020a031916600160a060020a039092169190911790556080820151600482015560a0820151600582015560c0909101516006909101556000546001546040805192835260208301919091527fc8836fbc470fd09ba5472ccadef55894187c95b7179721fee872293d3df366609101610aad565b6124d7612f8b565b60008281526002602052604090819020815160c081019092528054829082906124ff906137b8565b80601f016020809104026020016040519081016040528092919081815260200182805461252b906137b8565b80156125785780601f1061254d57610100808354040283529160200191612578565b820191906000526020600020905b81548152906001019060200180831161255b57829003601f168201915b50505091835250506001820154600160a060020a03908116602083015260028301548116604083015260038301541660608201526004820154608082015260059091015460a09091015292915050565b600060036000846020015181526020019081526020016000206040518060e00160405290816000820154815260200160018201548152602001600282018054612610906137b8565b80601f016020809104026020016040519081016040528092919081815260200182805461263c906137b8565b80156126895780601f1061265e57610100808354040283529160200191612689565b820191906000526020600020905b81548152906001019060200180831161266c57829003601f168201915b5050509183525050600382810154600160a060020a0390811660208085019190915260048501546040808601919091526005860154606080870191909152600690960154608090950194909452885160009081526002909152929092200154918301519293509081169181169084161461275c5760405160e560020a62461bcd02815260206004820152603c602482015260008051602061383e83398151915260448201527f427579696e674f666665723a2073686f756c64206265206f776e65720000000060648201526084016105f0565b83518251146127ea5760405160e560020a62461bcd02815260206004820152604a602482015260008051602061383e83398151915260448201527f427579696e674f666665723a2073686f756c64206265207468652073616d652060648201527f65786368616e6765496400000000000000000000000000000000000000000000608482015260a4016105f0565b6040517f4255590000000000000000000000000000000000000000000000000000000000602082015260230160405160208183030381529060405280519060200120826040015160405160200161284191906135cb565b60405160208183030381529060405280519060200120146128e15760405160e560020a62461bcd028152602060048201526047602482015260008051602061383e83398151915260448201527f427579696e674f666665723a2073686f756c642062652074686520627579696e60648201527f67206f6666657200000000000000000000000000000000000000000000000000608482015260a4016105f0565b8160a001518260c001516128f59190613752565b60405160e060020a6370a08231028152306004820152600160a060020a038316906370a082319060240160206040518083038186803b15801561293757600080fd5b505afa15801561294b573d6000803e3d6000fd5b505050506040513d601f19601f8201168201806040525081019061296f91906134bd565b10156129fa5760405160e560020a62461bcd02815260206004820152604a602482015260008051602061383e83398151915260448201527f427579696e674f666665723a20796f7520646f6e2774206861766520656e6f7560648201527f67682062616c616e636500000000000000000000000000000000000000000000608482015260a4016105f0565b80600160a060020a031663a9059cbb848460a001518560c00151612a1e9190613752565b60405160e060020a63ffffffff8516028152600160a060020a0390921660048301526024820152604401602060405180830381600087803b158015612a6257600080fd5b505af1158015612a76573d6000803e3d6000fd5b505050506040513d601f19601f82011682018060405250810190612a9a91906132e8565b5060208085015160009081526003909152604081208181556001810182905590612ac76002830182612f4e565b50600381018054600160a060020a0319169055600060048201819055600582018190556006909101556020848101516040519081527f22e07ff395383cea292730d6f7a4806c49cea77c60fc66e808f526e1fb43655691016118e3565b81516000908152600260205260409081902060030154908301516060840151600160a060020a0390921691612b599190613752565b60405160e060020a6370a08231028152600160a060020a0384811660048301528316906370a082319060240160206040518083038186803b158015612b9d57600080fd5b505afa158015612bb1573d6000803e3d6000fd5b505050506040513d601f19601f82011682018060405250810190612bd591906134bd565b1015612c725760405160e560020a62461bcd02815260206004820152604960248201527f546f6b656e45786368616e67652e506c61636545524331313535546f6b656e4260448201527f7579696e674f666665723a20796f7520646f6e2774206861766520656e6f756760648201527f682062616c616e63650000000000000000000000000000000000000000000000608482015260a4016105f0565b6000836060015111612d155760405160e560020a62461bcd02815260206004820152605160248201527f546f6b656e45786368616e67652e506c61636545524331313535546f6b656e4260448201527f7579696e674f666665723a2070726963652063616e2774206265206c6f77657260648201527f206f7220657175616c20746f207a65726f000000000000000000000000000000608482015260a4016105f0565b80600160a060020a03166323b872dd833086604001518760600151612d3a9190613752565b60405160e060020a63ffffffff8616028152600160a060020a0393841660048201529290911660248301526044820152606401602060405180830381600087803b158015612d8757600080fd5b505af1158015612d9b573d6000803e3d6000fd5b505050506040513d601f19601f82011682018060405250810190612dbf91906132e8565b50612dc8612f08565b83518152604080518082018252600381527f425559000000000000000000000000000000000000000000000000000000000060208083019190915282840191909152600160a060020a0385166060808501919091529086015160808401529085015160a083015284015160c082015260018054906000612e47836137f0565b909155505060018054602080840182815260009283526003825260409283902085518155905193810193909355908301518051849392612e8e926002850192910190612fdc565b506060820151600382018054600160a060020a031916600160a060020a039092169190911790556080820151600482015560a0820151600582015560c0909101516006909101556001546040519081527f74086dddea2466dc0b72647c02e04625df621166096006197da8bb7de4b60eeb906020016118e3565b6040518060e001604052806000815260200160008152602001606081526020016000600160a060020a031681526020016000815260200160008152602001600081525090565b508054612f5a906137b8565b6000825580601f10612f6a575050565b601f016020900490600052602060002090810190612f889190613060565b50565b6040518060c00160405280606081526020016000600160a060020a031681526020016000600160a060020a031681526020016000600160a060020a0316815260200160008152602001600081525090565b828054612fe8906137b8565b90600052602060002090601f01602090048101928261300a5760008555613050565b82601f1061302357805160ff1916838001178555613050565b82800160010185558215613050579182015b82811115613050578251825591602001919060010190613035565b5061305c929150613060565b5090565b5b8082111561305c5760008155600101613061565b600067ffffffffffffffff83111561308f5761308f613824565b6130a2601f8401601f1916602001613721565b90508281528383830111156130b657600080fd5b828260208301376000602084830101529392505050565b8035600160a060020a03811681146130e457600080fd5b919050565b600082601f8301126130f9578081fd5b8135602067ffffffffffffffff82111561311557613115613824565b808202613123828201613721565b83815282810190868401838801850189101561313d578687fd5b8693505b8584101561315f578035835260019390930192918401918401613141565b50979650505050505050565b600082601f83011261317b578081fd5b61318a83833560208501613075565b9392505050565b6000604082840312156131a2578081fd5b6040516040810181811067ffffffffffffffff821117156131c5576131c5613824565b604052823581526020928301359281019290925250919050565b600080600080600060a086880312156131f6578081fd5b6131ff866130cd565b945061320d602087016130cd565b9350604086013567ffffffffffffffff80821115613229578283fd5b61323589838a016130e9565b9450606088013591508082111561324a578283fd5b61325689838a016130e9565b9350608088013591508082111561326b578283fd5b506132788882890161316b565b9150509295509295909350565b600080600080600060a0868803121561329c578081fd5b6132a5866130cd565b94506132b3602087016130cd565b93506040860135925060608601359150608086013567ffffffffffffffff8111156132dc578182fd5b6132788882890161316b565b6000602082840312156132f9578081fd5b8151801515811461318a578182fd5b600060208284031215613319578081fd5b8135600160e060020a03198116811461318a578182fd5b60008060608385031215613342578182fd5b61334c8484613191565b915061335a604084016130cd565b90509250929050565b60008060408385031215613375578182fd5b823567ffffffffffffffff8082111561338c578384fd5b9084019060c0828703121561339f578384fd5b6133a76136f8565b8235828111156133b5578586fd5b83019150601f820187136133c7578485fd5b6133d687833560208501613075565b81526133e4602084016130cd565b60208201526133f5604084016130cd565b6040820152606083013560608201526080830135608082015260a083013560a082015280945050505061335a602084016130cd565b60008082840360a081121561343d578283fd5b608081121561344a578283fd5b506040516080810181811067ffffffffffffffff8211171561346e5761346e613824565b8060405250833581526020840135602082015260408401356040820152606084013560608201528092505061335a608084016130cd565b6000602082840312156134b6578081fd5b5035919050565b6000602082840312156134ce578081fd5b5051919050565b600081518084526134ed816020860160208601613788565b601f01601f19169290920160200192915050565b6000815160c0845261351660c08501826134d5565b90506020830151600160a060020a03808216602087015280604086015116604087015280606086015116606087015250506080830151608085015260a083015160a08501528091505092915050565b80518252602081015160208301526000604082015160e0604085015261358e60e08501826134d5565b9050600160a060020a0360608401511660608501526080830151608085015260a083015160a085015260c083015160c08501528091505092915050565b600082516135dd818460208701613788565b9190910192915050565b600160a060020a0394851681529290931660208301526040820152606081019190915260a06080820181905260009082015260c00190565b6000602080830181845280855180835260408601915060408482028701019250838701855b8281101561367257603f19888603018452613660858351613501565b94509285019290850190600101613644565b5092979650505050505050565b6000602080830181845280855180835260408601915060408482028701019250838701855b8281101561367257603f198886030184526136c0858351613565565b945092850192908501906001016136a4565b60208152600061318a6020830184613501565b60208152600061318a6020830184613565565b60405160c0810167ffffffffffffffff8111828210171561371b5761371b613824565b60405290565b604051601f8201601f1916810167ffffffffffffffff8111828210171561374a5761374a613824565b604052919050565b600081600019048311821515161561376c5761376c61380b565b500290565b6000828210156137835761378361380b565b500390565b60005b838110156137a357818101518382015260200161378b565b838111156137b2576000848401525b50505050565b6002810460018216806137cc57607f821691505b60208210811415610c755760e060020a634e487b7102600052602260045260246000fd5b60006000198214156138045761380461380b565b5060010190565b60e060020a634e487b7102600052601160045260246000fd5b60e060020a634e487b7102600052604160045260246000fdfe546f6b656e45786368616e67652e43616e63656c45524331313535546f6b656e546f6b656e45786368616e67652e42757945524331313535546f6b656e46726f546f6b656e45786368616e67652e53656c6c45524331313535546f6b656e4672a26469706673582212203612084fdb2ea6d906d6c8d21765c0c32d05e0a84b59b1322f7f58d2040c86d864736f6c63430008040033",
  "immutableReferences": {},
  "source": "// SPDX-License-Identifier: UNLICENSED\r\n\r\npragma solidity ^0.8.4;\r\nimport \"@openzeppelin/contracts/token/ERC20/IERC20.sol\";\r\nimport \"@openzeppelin/contracts/token/ERC1155/IERC1155.sol\";\r\nimport \"@openzeppelin/contracts/token/ERC1155/utils/ERC1155Holder.sol\";\r\n\r\n/**\r\n * @dev Exchange Contract for ERC1155 Token\r\n */\r\ncontract ERC1155TokenExchange is ERC1155Holder {\r\n    /**\r\n    * @dev Exchange struct for ERC1155 Token\r\n    */\r\n    struct ERC1155Exchange {\r\n        string exchangeName;\r\n        address creatorAddress;\r\n        address exchangeTokenAddress;\r\n        address offerTokenAddress;\r\n        uint initialAmount;\r\n        uint price;\r\n    }\r\n\r\n    /**\r\n    * @dev Offer struct for ERC1155 Token\r\n    */\r\n    struct ERC1155Offer {\r\n        uint exchangeId;\r\n        uint offerId;\r\n        string offerType;\r\n        address creatorAddress;\r\n        uint tokenId;\r\n        uint amount;\r\n        uint price;\r\n    }\r\n\r\n    /**\r\n    * @dev Request struct for creating ERC1155TokenExchange\r\n    */\r\n    struct CreateERC1155TokenExchangeRequest {\r\n        string exchangeName;\r\n        address exchangeTokenAddress;\r\n        address offerTokenAddress;\r\n        uint tokenId;\r\n        uint amount;\r\n        uint price;\r\n    }\r\n\r\n    /**\r\n    * @dev Request struct for Place ERC1155Token Offer\r\n    */\r\n    struct PlaceERC1155TokenOfferRequest {\r\n        uint exchangeId;\r\n        uint tokenId;\r\n        uint amount;\r\n        uint price;\r\n    }\r\n\r\n    /**\r\n    * @dev Request struct for cancel Exchange\r\n    */\r\n    struct CancelOfferRequest {\r\n        uint exchangeId;\r\n        uint offerId;\r\n    }\r\n\r\n    /**\r\n    * @dev Request struct for deal Exchange\r\n    */\r\n    struct OfferRequest {\r\n        uint exchangeId;\r\n        uint offerId;\r\n    }\r\n\r\n    /**\r\n    * @dev count variables for ERC1155Token exchange and offer mapping\r\n    */\r\n    uint internal _erc1155ExchangeCount;\r\n    uint internal _erc1155OfferCount;\r\n    \r\n    /**\r\n    * @dev variables for storing ERC1155Token Exchange and Offer\r\n    */\r\n    mapping(uint => ERC1155Exchange) internal _erc1155Exchanges;\r\n    mapping(uint => ERC1155Offer) internal _erc1155Offers;\r\n\r\n    // ----- EVENTS ----- //\r\n    event ERC1155TokenExchangeCreated(uint exchangeId, uint initialOfferId);\r\n    event ERC1155TokenBuyingOfferPlaced(uint offerId);\r\n    event ERC1155TokenSellingOfferPlaced(uint offerId);\r\n    event ERC1155TokenBuyingOfferCanceled(uint offerId);\r\n    event ERC1155TokenSellingOfferCanceled(uint offerId);\r\n    event ERC1155TokenFromOfferBought(uint offerId);\r\n    event ERC1155TokenFromOfferSold(uint offerId);\r\n\r\n    /**\r\n    * @dev Constructor Function\r\n    */\r\n    constructor() {\r\n        _erc1155ExchangeCount = 0;\r\n        _erc1155OfferCount = 0;\r\n    }\r\n\r\n    // ----- VIEWS ----- //\r\n    function getErc1155ExchangeCount() external view returns(uint){\r\n        return _erc1155ExchangeCount;\r\n    }\r\n\r\n    function getErc1155OfferCount() external view returns(uint){\r\n        return _erc1155OfferCount;\r\n    }\r\n\r\n    function getErc1155ExchangeAll() external view returns(ERC1155Exchange[] memory){\r\n        ERC1155Exchange[] memory exchanges = new ERC1155Exchange[](_erc1155ExchangeCount);\r\n        for(uint i = 1; i <= _erc1155ExchangeCount; i++)\r\n            exchanges[i-1] = _erc1155Exchanges[i];\r\n        return exchanges;\r\n    }\r\n\r\n    function getErc1155OfferAll() external view returns(ERC1155Offer[] memory){\r\n        ERC1155Offer[] memory offers = new ERC1155Offer[](_erc1155OfferCount);\r\n        for(uint i = 1; i <= _erc1155OfferCount; i++)\r\n            offers[i-1] = _erc1155Offers[i];\r\n        return offers;\r\n    }\r\n\r\n    function getErc1155ExchangeById(uint _exchangeId) external view returns(ERC1155Exchange memory){\r\n        return _erc1155Exchanges[_exchangeId];\r\n    }\r\n\r\n    function getErc1155OfferById(uint _offerId) external view returns(ERC1155Offer memory){\r\n        return _erc1155Offers[_offerId];\r\n    }\r\n\r\n    // ----- PUBLIC METHODS ----- //\r\n    /**\r\n    * @dev Owner of token can create Exchange of ERC1155\r\n    * @dev exchangeTokenAddress address of exchangeToken(ERC1155) \r\n    * @dev offerTokenAddress address of exchangeToken(ERC1155) \r\n    * @dev tokenId ERC1155 token id of Exchange\r\n    * @dev amount amount of exchange\r\n    * @dev price token price of Exchange\r\n    */\r\n    function CreateERC1155TokenExchange(CreateERC1155TokenExchangeRequest memory input, address caller) external {\r\n        IERC1155 token = IERC1155(input.exchangeTokenAddress);\r\n        require(\r\n            token.balanceOf(caller, input.tokenId) >= input.amount, \r\n            \"TokenExchange.CreateERC1155TokenExchange: Your balance is not enough\"\r\n        );\r\n        require(input.price > 0, \"TokenExchange.CreateERC1155TokenExchange: price can't be lower or equal to zero\");\r\n        require(\r\n            token.isApprovedForAll(caller, address(this)),\r\n            \"TokenExchange.CreateERC1155TokenExchange: Owner has not approved\"\r\n        );\r\n        \r\n        token.safeTransferFrom(caller, address(this), input.tokenId, input.amount, \"\");\r\n\r\n        /**\r\n        * @dev store exchange and initial offer\r\n        */\r\n        ERC1155Exchange memory exchange;\r\n        exchange.exchangeName = input.exchangeName;\r\n        exchange.creatorAddress = caller;\r\n        exchange.exchangeTokenAddress = input.exchangeTokenAddress;\r\n        exchange.offerTokenAddress = input.offerTokenAddress;\r\n        exchange.initialAmount = input.amount;\r\n        exchange.price = input.price; \r\n\r\n        _erc1155ExchangeCount++;\r\n        _erc1155Exchanges[_erc1155ExchangeCount] = exchange;\r\n\r\n        ERC1155Offer memory offer;\r\n        offer.exchangeId = _erc1155ExchangeCount;\r\n        offer.offerType = \"SELL\";\r\n        offer.creatorAddress = caller;\r\n        offer.tokenId = input.tokenId;\r\n        offer.amount = input.amount;\r\n        offer.price = exchange.price;\r\n\r\n        _erc1155OfferCount++;\r\n        offer.offerId = _erc1155OfferCount;\r\n        _erc1155Offers[_erc1155OfferCount] = offer;\r\n\r\n        emit ERC1155TokenExchangeCreated(_erc1155ExchangeCount, _erc1155OfferCount);\r\n    }\r\n\r\n    /**\r\n    * @dev someone can create buying offer for ERC1155 token exchange\r\n    * @dev exchangeTokenId id of exchange \r\n    * @dev tokenId ERC1155 token id of Exchange\r\n    * @dev amount amount of exchange\r\n    * @dev price token price of Exchange\r\n    */\r\n    function PlaceERC1155TokenBuyingOffer(PlaceERC1155TokenOfferRequest memory input, address caller) external {\r\n        IERC20 token = IERC20(_erc1155Exchanges[input.exchangeId].offerTokenAddress);\r\n        require(\r\n            token.balanceOf(caller) >= (input.price * input.amount), \r\n            \"TokenExchange.PlaceERC1155TokenBuyingOffer: you don't have enough balance\"\r\n        );\r\n        require(input.price > 0, \"TokenExchange.PlaceERC1155TokenBuyingOffer: price can't be lower or equal to zero\");\r\n\r\n        token.transferFrom(caller, address(this), input.price * input.amount);\r\n\r\n        /**\r\n        * @dev store buying offer\r\n        */\r\n        ERC1155Offer memory offer;\r\n        offer.exchangeId = input.exchangeId;\r\n        offer.offerType = \"BUY\";\r\n        offer.creatorAddress = caller;\r\n        offer.tokenId = input.tokenId;\r\n        offer.amount = input.amount;\r\n        offer.price = input.price;\r\n\r\n        _erc1155OfferCount++;\r\n        offer.offerId = _erc1155OfferCount;\r\n        _erc1155Offers[_erc1155OfferCount] = offer;\r\n\r\n        emit ERC1155TokenBuyingOfferPlaced(_erc1155OfferCount);\r\n    }\r\n\r\n    /**\r\n    * @dev owner of token can create selling offer for ERC1155 token exchange\r\n    * @dev exchangeTokenId id of exchange \r\n    * @dev tokenId ERC1155 token id of Exchange\r\n    * @dev amount amount of exchange\r\n    * @dev price token price of Exchange\r\n    */\r\n    function PlaceERC1155TokenSellingOffer(PlaceERC1155TokenOfferRequest memory input, address caller) external {\r\n        IERC1155 token = IERC1155(_erc1155Exchanges[input.exchangeId].exchangeTokenAddress);\r\n        require(\r\n            token.balanceOf(caller, input.tokenId) >= input.amount, \r\n            \"TokenExchange.PlaceERC1155TokenSellingOffer: Your balance is not enough\"\r\n        );\r\n        require(input.price > 0, \"TokenExchange.PlaceERC1155TokenSellingOffer: price can't be lower or equal to zero\");\r\n        require(\r\n            token.isApprovedForAll(caller, address(this)),\r\n            \"TokenExchange.PlaceERC1155TokenSellingOffer: Owner has not approved\"\r\n        );\r\n\r\n        token.safeTransferFrom(caller, address(this), input.tokenId, input.amount, \"\");\r\n\r\n        /**\r\n        * @dev store selling offer\r\n        */\r\n        ERC1155Offer memory offer;\r\n        offer.exchangeId = input.exchangeId;\r\n        offer.offerType = \"SELL\";\r\n        offer.creatorAddress = caller;\r\n        offer.tokenId = input.tokenId;\r\n        offer.amount = input.amount;\r\n        offer.price = input.price;\r\n\r\n        _erc1155OfferCount++;\r\n        offer.offerId = _erc1155OfferCount;\r\n        _erc1155Offers[_erc1155OfferCount] = offer;\r\n\r\n        emit ERC1155TokenSellingOfferPlaced(_erc1155OfferCount);\r\n    }\r\n\r\n    /**\r\n    * @dev creator of buying offer can cancel his ERC721Token BuyingOffer\r\n    * @dev exchangeTokenId id of exchange \r\n    * @dev offerId id of offer\r\n    */\r\n    function CancelERC1155TokenBuyingOffer(CancelOfferRequest memory input, address caller) external{\r\n        ERC1155Offer memory offer = _erc1155Offers[input.offerId];\r\n        IERC20 token = IERC20(_erc1155Exchanges[input.exchangeId].offerTokenAddress);\r\n        require(offer.creatorAddress == caller, \"TokenExchange.CancelERC1155TokenBuyingOffer: should be owner\");\r\n        require(offer.exchangeId == input.exchangeId, \"TokenExchange.CancelERC1155TokenBuyingOffer: should be the same exchangeId\");\r\n        require(\r\n            keccak256(abi.encodePacked(offer.offerType)) == keccak256(abi.encodePacked(\"BUY\")), \r\n            \"TokenExchange.CancelERC1155TokenBuyingOffer: should be the buying offer\"\r\n        );\r\n\r\n        require(\r\n            token.balanceOf(address(this)) >= (offer.price * offer.amount),\r\n            \"TokenExchange.CancelERC1155TokenBuyingOffer: you don't have enough balance\"\r\n        );\r\n        \r\n        token.transfer(caller, offer.price * offer.amount);            \r\n        delete _erc1155Offers[input.offerId];\r\n\r\n        emit ERC1155TokenBuyingOfferCanceled(input.offerId);\r\n    }\r\n\r\n    /**\r\n    * @dev creator of selling offer can cancel his ERC1155 SellingOffer\r\n    * @dev exchangeTokenId id of exchange \r\n    * @dev offerId id of offer\r\n    */\r\n    function CancelERC1155TokenSellingOffer(CancelOfferRequest memory input, address caller) external{\r\n        ERC1155Offer memory offer = _erc1155Offers[input.offerId];\r\n        IERC1155 token = IERC1155(_erc1155Exchanges[input.exchangeId].exchangeTokenAddress);\r\n        require(offer.creatorAddress == caller, \"TokenExchange.CancelERC1155TokenSellingOffer: should be owner\");\r\n        require(offer.exchangeId == input.exchangeId, \"TokenExchange.CancelERC1155TokenSellingOffer: should be the same exchangeId\");\r\n        require(\r\n            keccak256(abi.encodePacked(offer.offerType)) == keccak256(abi.encodePacked(\"SELL\")), \r\n            \"TokenExchange.CancelERC1155TokenSellingOffer: should be the selling offer\"\r\n        );\r\n        require(\r\n            token.balanceOf(address(this), offer.tokenId) >= offer.amount, \r\n            \"TokenExchange.CancelERC1155TokenSellingOffer: need to own this token\"\r\n        );\r\n        \r\n        token.safeTransferFrom(address(this), caller, offer.tokenId, offer.amount, \"\");\r\n        delete _erc1155Offers[input.offerId];\r\n\r\n        emit ERC1155TokenSellingOfferCanceled(input.offerId);\r\n    }\r\n\r\n    /**\r\n    * @dev someone can buy token(ERC1155) from selling offer\r\n    * @dev exchangeTokenId id of exchange \r\n    * @dev offerId id of offer\r\n    */\r\n    function BuyERC1155TokenFromOffer(OfferRequest memory input, address caller) external{\r\n        ERC1155Offer memory offer = _erc1155Offers[input.offerId];\r\n        IERC20 erc20token = IERC20(_erc1155Exchanges[input.exchangeId].offerTokenAddress);\r\n        IERC1155 erc1155token = IERC1155(_erc1155Exchanges[input.exchangeId].exchangeTokenAddress);\r\n\r\n        require(offer.exchangeId == input.exchangeId, \"TokenExchange.BuyERC1155TokenFromOffer: should be the same exchangeId\");\r\n        require(\r\n            keccak256(abi.encodePacked(offer.offerType)) == keccak256(abi.encodePacked(\"SELL\")), \r\n            \"TokenExchange.BuyERC1155TokenFromOffer: should be the selling offer\"\r\n        );\r\n        require(\r\n            erc20token.balanceOf(caller) >= (offer.price * offer.amount),\r\n            \"TokenExchange.BuyERC1155TokenFromOffer: you don't have enough balance\"\r\n        );\r\n        require(\r\n            erc1155token.balanceOf(address(this), offer.tokenId) >= offer.amount, \r\n            \"TokenExchange.BuyERC1155TokenFromOffer: Your balance is not enough\"\r\n        );\r\n\r\n        erc20token.transferFrom(caller, offer.creatorAddress, offer.price * offer.amount); \r\n        erc1155token.safeTransferFrom(address(this), caller, offer.tokenId, offer.amount, \"\");\r\n        delete _erc1155Offers[input.offerId];\r\n\r\n        emit ERC1155TokenFromOfferBought(input.offerId);\r\n    }\r\n\r\n    /**\r\n    * @dev owner of token can sell token(ERC1155) from buying offer\r\n    * @dev exchangeTokenId id of exchange \r\n    * @dev offerId id of offer\r\n    */\r\n    function SellERC1155TokenFromOffer(OfferRequest memory input, address caller) external{\r\n        ERC1155Offer memory offer = _erc1155Offers[input.offerId];\r\n        IERC20 erc20token = IERC20(_erc1155Exchanges[input.exchangeId].offerTokenAddress);\r\n        IERC1155 erc1155token = IERC1155(_erc1155Exchanges[input.exchangeId].exchangeTokenAddress);\r\n\r\n        require(offer.exchangeId == input.exchangeId, \"TokenExchange.SellERC1155TokenFromOffer: should be the same exchangeId\");\r\n        require(\r\n            keccak256(abi.encodePacked(offer.offerType)) == keccak256(abi.encodePacked(\"BUY\")), \r\n            \"TokenExchange.SellERC1155TokenFromOffer: should be the buying offer\"\r\n        );\r\n        require(\r\n            erc20token.balanceOf(address(this)) >= (offer.price * offer.amount),\r\n            \"TokenExchange.SellERC1155TokenFromOffer: you don't have enough balance\"\r\n        );\r\n\r\n        require(\r\n            erc1155token.balanceOf(caller, offer.tokenId) >= offer.amount, \r\n            \"TokenExchange.SellERC1155TokenFromOffe: need to own this token\"\r\n        );\r\n        require(\r\n            erc1155token.isApprovedForAll(caller, address(this)),\r\n            \"TokenExchange.SellERC1155TokenFromOffe: Owner has not approved2\"\r\n        );\r\n\r\n        erc20token.transfer(caller, offer.price * offer.amount); \r\n        erc1155token.safeTransferFrom(caller, offer.creatorAddress, offer.tokenId, offer.amount, \"\");\r\n        delete _erc1155Offers[input.offerId];\r\n\r\n        emit ERC1155TokenFromOfferSold(input.offerId);\r\n    }\r\n}",
  "sourcePath": "/Users/angelsatorresalmenara/Privi-Polygon/privi-exchange/contracts/ERC1155TokeknExchange.sol",
  "compiler": {
    "name": "solc",
    "version": "0.8.4+commit.c7e474f2.Emscripten.clang"
  },
  "schemaVersion": "3.4.2",
  "updatedAt": "2021-09-02T16:15:08.596Z",
  "networkType": "ethereum",
  "devdoc": {
    "details": "Exchange Contract for ERC1155 Token",
    "kind": "dev",
    "methods": {
      "BuyERC1155TokenFromOffer((uint256,uint256),address)": {
        "details": "someone can buy token(ERC1155) from selling offerexchangeTokenId id of exchange offerId id of offer"
      },
      "CancelERC1155TokenBuyingOffer((uint256,uint256),address)": {
        "details": "creator of buying offer can cancel his ERC721Token BuyingOfferexchangeTokenId id of exchange offerId id of offer"
      },
      "CancelERC1155TokenSellingOffer((uint256,uint256),address)": {
        "details": "creator of selling offer can cancel his ERC1155 SellingOfferexchangeTokenId id of exchange offerId id of offer"
      },
      "CreateERC1155TokenExchange((string,address,address,uint256,uint256,uint256),address)": {
        "details": "Owner of token can create Exchange of ERC1155exchangeTokenAddress address of exchangeToken(ERC1155) offerTokenAddress address of exchangeToken(ERC1155) tokenId ERC1155 token id of Exchangeamount amount of exchangeprice token price of Exchange"
      },
      "PlaceERC1155TokenBuyingOffer((uint256,uint256,uint256,uint256),address)": {
        "details": "someone can create buying offer for ERC1155 token exchangeexchangeTokenId id of exchange tokenId ERC1155 token id of Exchangeamount amount of exchangeprice token price of Exchange"
      },
      "PlaceERC1155TokenSellingOffer((uint256,uint256,uint256,uint256),address)": {
        "details": "owner of token can create selling offer for ERC1155 token exchangeexchangeTokenId id of exchange tokenId ERC1155 token id of Exchangeamount amount of exchangeprice token price of Exchange"
      },
      "SellERC1155TokenFromOffer((uint256,uint256),address)": {
        "details": "owner of token can sell token(ERC1155) from buying offerexchangeTokenId id of exchange offerId id of offer"
      },
      "constructor": {
        "details": "Constructor Function"
      },
      "supportsInterface(bytes4)": {
        "details": "See {IERC165-supportsInterface}."
      }
    },
    "stateVariables": {
      "_erc1155ExchangeCount": {
        "details": "count variables for ERC1155Token exchange and offer mapping"
      },
      "_erc1155Exchanges": {
        "details": "variables for storing ERC1155Token Exchange and Offer"
      }
    },
    "version": 1
  },
  "userdoc": {
    "kind": "user",
    "methods": {},
    "version": 1
  }
}