{
  "contractName": "ERC20TokenExchange",
  "abi": [
    {
      "inputs": [],
      "stateMutability": "nonpayable",
      "type": "constructor"
    },
    {
      "anonymous": false,
      "inputs": [
        {
          "indexed": false,
          "internalType": "uint256",
          "name": "offerId",
          "type": "uint256"
        }
      ],
      "name": "ERC20TokenBuyingOfferCanceled",
      "type": "event"
    },
    {
      "anonymous": false,
      "inputs": [
        {
          "indexed": false,
          "internalType": "uint256",
          "name": "offerId",
          "type": "uint256"
        }
      ],
      "name": "ERC20TokenBuyingOfferPlaced",
      "type": "event"
    },
    {
      "anonymous": false,
      "inputs": [
        {
          "indexed": false,
          "internalType": "uint256",
          "name": "exchangeId",
          "type": "uint256"
        },
        {
          "indexed": false,
          "internalType": "uint256",
          "name": "initialOfferId",
          "type": "uint256"
        }
      ],
      "name": "ERC20TokenExchangeCreated",
      "type": "event"
    },
    {
      "anonymous": false,
      "inputs": [
        {
          "indexed": false,
          "internalType": "uint256",
          "name": "offerId",
          "type": "uint256"
        }
      ],
      "name": "ERC20TokenFromOfferBought",
      "type": "event"
    },
    {
      "anonymous": false,
      "inputs": [
        {
          "indexed": false,
          "internalType": "uint256",
          "name": "offerId",
          "type": "uint256"
        }
      ],
      "name": "ERC20TokenFromOfferSold",
      "type": "event"
    },
    {
      "anonymous": false,
      "inputs": [
        {
          "indexed": false,
          "internalType": "uint256",
          "name": "offerId",
          "type": "uint256"
        }
      ],
      "name": "ERC20TokenSellingOfferCanceled",
      "type": "event"
    },
    {
      "anonymous": false,
      "inputs": [
        {
          "indexed": false,
          "internalType": "uint256",
          "name": "offerId",
          "type": "uint256"
        }
      ],
      "name": "ERC20TokenSellingOfferPlaced",
      "type": "event"
    },
    {
      "inputs": [],
      "name": "getErc20ExchangeCount",
      "outputs": [
        {
          "internalType": "uint256",
          "name": "",
          "type": "uint256"
        }
      ],
      "stateMutability": "view",
      "type": "function",
      "constant": true
    },
    {
      "inputs": [],
      "name": "getErc20OfferCount",
      "outputs": [
        {
          "internalType": "uint256",
          "name": "",
          "type": "uint256"
        }
      ],
      "stateMutability": "view",
      "type": "function",
      "constant": true
    },
    {
      "inputs": [],
      "name": "getErc20ExchangeAll",
      "outputs": [
        {
          "components": [
            {
              "internalType": "string",
              "name": "exchangeName",
              "type": "string"
            },
            {
              "internalType": "address",
              "name": "creatorAddress",
              "type": "address"
            },
            {
              "internalType": "address",
              "name": "exchangeTokenAddress",
              "type": "address"
            },
            {
              "internalType": "address",
              "name": "offerTokenAddress",
              "type": "address"
            },
            {
              "internalType": "uint256",
              "name": "initialAmount",
              "type": "uint256"
            },
            {
              "internalType": "uint256",
              "name": "price",
              "type": "uint256"
            }
          ],
          "internalType": "struct ERC20TokenExchange.ERC20Exchange[]",
          "name": "",
          "type": "tuple[]"
        }
      ],
      "stateMutability": "view",
      "type": "function",
      "constant": true
    },
    {
      "inputs": [],
      "name": "getErc20OfferAll",
      "outputs": [
        {
          "components": [
            {
              "internalType": "uint256",
              "name": "exchangeId",
              "type": "uint256"
            },
            {
              "internalType": "uint256",
              "name": "offerId",
              "type": "uint256"
            },
            {
              "internalType": "string",
              "name": "offerType",
              "type": "string"
            },
            {
              "internalType": "address",
              "name": "creatorAddress",
              "type": "address"
            },
            {
              "internalType": "uint256",
              "name": "amount",
              "type": "uint256"
            },
            {
              "internalType": "uint256",
              "name": "price",
              "type": "uint256"
            }
          ],
          "internalType": "struct ERC20TokenExchange.ERC20Offer[]",
          "name": "",
          "type": "tuple[]"
        }
      ],
      "stateMutability": "view",
      "type": "function",
      "constant": true
    },
    {
      "inputs": [
        {
          "internalType": "uint256",
          "name": "_exchangeId",
          "type": "uint256"
        }
      ],
      "name": "getErc20ExchangeById",
      "outputs": [
        {
          "components": [
            {
              "internalType": "string",
              "name": "exchangeName",
              "type": "string"
            },
            {
              "internalType": "address",
              "name": "creatorAddress",
              "type": "address"
            },
            {
              "internalType": "address",
              "name": "exchangeTokenAddress",
              "type": "address"
            },
            {
              "internalType": "address",
              "name": "offerTokenAddress",
              "type": "address"
            },
            {
              "internalType": "uint256",
              "name": "initialAmount",
              "type": "uint256"
            },
            {
              "internalType": "uint256",
              "name": "price",
              "type": "uint256"
            }
          ],
          "internalType": "struct ERC20TokenExchange.ERC20Exchange",
          "name": "",
          "type": "tuple"
        }
      ],
      "stateMutability": "view",
      "type": "function",
      "constant": true
    },
    {
      "inputs": [
        {
          "internalType": "uint256",
          "name": "_offerId",
          "type": "uint256"
        }
      ],
      "name": "getErc20OfferById",
      "outputs": [
        {
          "components": [
            {
              "internalType": "uint256",
              "name": "exchangeId",
              "type": "uint256"
            },
            {
              "internalType": "uint256",
              "name": "offerId",
              "type": "uint256"
            },
            {
              "internalType": "string",
              "name": "offerType",
              "type": "string"
            },
            {
              "internalType": "address",
              "name": "creatorAddress",
              "type": "address"
            },
            {
              "internalType": "uint256",
              "name": "amount",
              "type": "uint256"
            },
            {
              "internalType": "uint256",
              "name": "price",
              "type": "uint256"
            }
          ],
          "internalType": "struct ERC20TokenExchange.ERC20Offer",
          "name": "",
          "type": "tuple"
        }
      ],
      "stateMutability": "view",
      "type": "function",
      "constant": true
    },
    {
      "inputs": [
        {
          "components": [
            {
              "internalType": "string",
              "name": "exchangeName",
              "type": "string"
            },
            {
              "internalType": "address",
              "name": "exchangeTokenAddress",
              "type": "address"
            },
            {
              "internalType": "address",
              "name": "offerTokenAddress",
              "type": "address"
            },
            {
              "internalType": "uint256",
              "name": "amount",
              "type": "uint256"
            },
            {
              "internalType": "uint256",
              "name": "price",
              "type": "uint256"
            }
          ],
          "internalType": "struct ERC20TokenExchange.CreateERC20TokenExchangeRequest",
          "name": "input",
          "type": "tuple"
        },
        {
          "internalType": "address",
          "name": "caller",
          "type": "address"
        }
      ],
      "name": "CreateERC20TokenExchange",
      "outputs": [],
      "stateMutability": "nonpayable",
      "type": "function"
    },
    {
      "inputs": [
        {
          "components": [
            {
              "internalType": "uint256",
              "name": "exchangeId",
              "type": "uint256"
            },
            {
              "internalType": "uint256",
              "name": "amount",
              "type": "uint256"
            },
            {
              "internalType": "uint256",
              "name": "price",
              "type": "uint256"
            }
          ],
          "internalType": "struct ERC20TokenExchange.PlaceERC20TokenOfferRequest",
          "name": "input",
          "type": "tuple"
        },
        {
          "internalType": "address",
          "name": "caller",
          "type": "address"
        }
      ],
      "name": "PlaceERC20TokenBuyingOffer",
      "outputs": [],
      "stateMutability": "nonpayable",
      "type": "function"
    },
    {
      "inputs": [
        {
          "components": [
            {
              "internalType": "uint256",
              "name": "exchangeId",
              "type": "uint256"
            },
            {
              "internalType": "uint256",
              "name": "amount",
              "type": "uint256"
            },
            {
              "internalType": "uint256",
              "name": "price",
              "type": "uint256"
            }
          ],
          "internalType": "struct ERC20TokenExchange.PlaceERC20TokenOfferRequest",
          "name": "input",
          "type": "tuple"
        },
        {
          "internalType": "address",
          "name": "caller",
          "type": "address"
        }
      ],
      "name": "PlaceERC20TokenSellingOffer",
      "outputs": [],
      "stateMutability": "nonpayable",
      "type": "function"
    },
    {
      "inputs": [
        {
          "components": [
            {
              "internalType": "uint256",
              "name": "exchangeId",
              "type": "uint256"
            },
            {
              "internalType": "uint256",
              "name": "offerId",
              "type": "uint256"
            }
          ],
          "internalType": "struct ERC20TokenExchange.CancelOfferRequest",
          "name": "input",
          "type": "tuple"
        },
        {
          "internalType": "address",
          "name": "caller",
          "type": "address"
        }
      ],
      "name": "CancelERC20TokenBuyingOffer",
      "outputs": [],
      "stateMutability": "nonpayable",
      "type": "function"
    },
    {
      "inputs": [
        {
          "components": [
            {
              "internalType": "uint256",
              "name": "exchangeId",
              "type": "uint256"
            },
            {
              "internalType": "uint256",
              "name": "offerId",
              "type": "uint256"
            }
          ],
          "internalType": "struct ERC20TokenExchange.CancelOfferRequest",
          "name": "input",
          "type": "tuple"
        },
        {
          "internalType": "address",
          "name": "caller",
          "type": "address"
        }
      ],
      "name": "CancelERC20TokenSellingOffer",
      "outputs": [],
      "stateMutability": "nonpayable",
      "type": "function"
    },
    {
      "inputs": [
        {
          "components": [
            {
              "internalType": "uint256",
              "name": "exchangeId",
              "type": "uint256"
            },
            {
              "internalType": "uint256",
              "name": "offerId",
              "type": "uint256"
            }
          ],
          "internalType": "struct ERC20TokenExchange.OfferRequest",
          "name": "input",
          "type": "tuple"
        },
        {
          "internalType": "address",
          "name": "caller",
          "type": "address"
        }
      ],
      "name": "BuyERC20TokenFromOffer",
      "outputs": [],
      "stateMutability": "nonpayable",
      "type": "function"
    },
    {
      "inputs": [
        {
          "components": [
            {
              "internalType": "uint256",
              "name": "exchangeId",
              "type": "uint256"
            },
            {
              "internalType": "uint256",
              "name": "offerId",
              "type": "uint256"
            }
          ],
          "internalType": "struct ERC20TokenExchange.OfferRequest",
          "name": "input",
          "type": "tuple"
        },
        {
          "internalType": "address",
          "name": "caller",
          "type": "address"
        }
      ],
      "name": "SellERC20TokenFromOffer",
      "outputs": [],
      "stateMutability": "nonpayable",
      "type": "function"
    }
  ],
  "bytecode": "0x608060405234801561001057600080fd5b5060008080556001556131ee806100286000396000f3fe608060405234801561001057600080fd5b50600436106100d35760003560e060020a900480636f2663d411610090578063d50853e81161006a578063d50853e8146101ab578063d56aa3b4146101be578063e9851111146101d1578063fd6683aa146101e457600080fd5b80636f2663d414610158578063969de53b14610178578063cddcc5391461018b57600080fd5b80631431975b146100d85780631eb582da146100f65780632584fab61461010857806328069dfd1461011d5780635415b227146101325780635f88144114610145575b600080fd5b6100e06101ec565b6040516100ed9190612e54565b60405180910390f35b6001545b6040519081526020016100ed565b61011b610116366004612b46565b6103a0565b005b6101256108f2565b6040516100ed9190612eb4565b61011b610140366004612b46565b610aa1565b61011b610153366004612c8b565b610fc3565b61016b610166366004612cf8565b61137d565b6040516100ed919061300d565b61011b610186366004612c79565b611476565b61019e610199366004612cf8565b611a51565b6040516100ed9190613020565b61011b6101b9366004612c8b565b611b4b565b61011b6101cc366004612b79565b611ee0565b61011b6101df366004612c79565b61235a565b6000546100fa565b60606000805467ffffffffffffffff81111561021b5760e060020a634e487b7102600052604160045260246000fd5b60405190808252806020026020018201604052801561025457816020015b61024161294f565b8152602001906001900390816102395790505b50905060015b600054811161039a5760008181526002602052604090819020815160c0810190925280548290829061028b906130f3565b80601f01602080910402602001604051908101604052809291908181526020018280546102b7906130f3565b80156103045780601f106102d957610100808354040283529160200191610304565b820191906000526020600020905b8154815290600101906020018083116102e757829003601f168201915b5050509183525050600182810154600160a060020a03908116602084015260028401548116604084015260038401541660608301526004830154608083015260059092015460a090910152839061035b90846130ac565b8151811061037c5760e060020a634e487b7102600052603260045260246000fd5b602002602001018190525080806103929061312b565b91505061025a565b50919050565b600060036000846020015181526020019081526020016000206040518060c001604052908160008201548152602001600182015481526020016002820180546103e8906130f3565b80601f0160208091040260200160405190810160405280929190818152602001828054610414906130f3565b80156104615780601f1061043657610100808354040283529160200191610461565b820191906000526020600020905b81548152906001019060200180831161044457829003601f168201915b5050509183525050600382810154600160a060020a039081166020808501919091526004850154604080860191909152600590950154606094850152885160009081526002909152939093200154908301519293508116918116908416146105275760405160e560020a62461bcd02815260206004820152603a602482015260008051602061319983398151915260448201527f79696e674f666665723a2073686f756c64206265206f776e657200000000000060648201526084015b60405180910390fd5b83518251146105b55760405160e560020a62461bcd028152602060048201526048602482015260008051602061319983398151915260448201527f79696e674f666665723a2073686f756c64206265207468652073616d6520657860648201527f6368616e67654964000000000000000000000000000000000000000000000000608482015260a40161051e565b6040517f4255590000000000000000000000000000000000000000000000000000000000602082015260230160405160208183030381529060405280519060200120826040015160405160200161060c9190612e14565b60405160208183030381529060405280519060200120146106ac5760405160e560020a62461bcd028152602060048201526045602482015260008051602061319983398151915260448201527f79696e674f666665723a2073686f756c642062652074686520627579696e672060648201527f6f66666572000000000000000000000000000000000000000000000000000000608482015260a40161051e565b81608001518260a001516106c0919061308d565b60405160e060020a6370a08231028152306004820152600160a060020a038316906370a082319060240160206040518083038186803b15801561070257600080fd5b505afa158015610716573d6000803e3d6000fd5b505050506040513d601f19601f8201168201806040525081019061073a9190612d10565b10156107c55760405160e560020a62461bcd028152602060048201526048602482015260008051602061319983398151915260448201527f79696e674f666665723a20796f7520646f6e2774206861766520656e6f75676860648201527f2062616c616e6365000000000000000000000000000000000000000000000000608482015260a40161051e565b80600160a060020a031663a9059cbb8484608001518560a001516107e9919061308d565b60405160e060020a63ffffffff8516028152600160a060020a0390921660048301526024820152604401602060405180830381600087803b15801561082d57600080fd5b505af1158015610841573d6000803e3d6000fd5b505050506040513d601f19601f820116820180604052508101906108659190612b1f565b506020808501516000908152600390915260408120818155600181018290559061089260028301826129a0565b50600381018054600160a060020a03191690556000600482018190556005909101556020848101516040519081527f96ed5f54696f3eb2323e78c776ded20e24a0ddbfe707dfc11dd0de974789d6bb91015b60405180910390a150505050565b6060600060015467ffffffffffffffff8111156109225760e060020a634e487b7102600052604160045260246000fd5b60405190808252806020026020018201604052801561095b57816020015b6109486129dd565b8152602001906001900390816109405790505b50905060015b600154811161039a57600360008281526020019081526020016000206040518060c001604052908160008201548152602001600182015481526020016002820180546109ac906130f3565b80601f01602080910402602001604051908101604052809291908181526020018280546109d8906130f3565b8015610a255780601f106109fa57610100808354040283529160200191610a25565b820191906000526020600020905b815481529060010190602001808311610a0857829003601f168201915b50505091835250506003820154600160a060020a031660208201526004820154604082015260059091015460609091015282610a626001846130ac565b81518110610a835760e060020a634e487b7102600052603260045260246000fd5b60200260200101819052508080610a999061312b565b915050610961565b600060036000846020015181526020019081526020016000206040518060c00160405290816000820154815260200160018201548152602001600282018054610ae9906130f3565b80601f0160208091040260200160405190810160405280929190818152602001828054610b15906130f3565b8015610b625780601f10610b3757610100808354040283529160200191610b62565b820191906000526020600020905b815481529060010190602001808311610b4557829003601f168201915b50505091835250506003820154600160a060020a03908116602080840191909152600484015460408085019190915260059094015460609384015287516000908152600291829052939093209092015490830151929350811691811690841614610c255760405160e560020a62461bcd02815260206004820152603b602482015260008051602061317983398151915260448201527f6c6c696e674f666665723a2073686f756c64206265206f776e65720000000000606482015260840161051e565b8351825114610cb35760405160e560020a62461bcd028152602060048201526049602482015260008051602061317983398151915260448201527f6c6c696e674f666665723a2073686f756c64206265207468652073616d65206560648201527f786368616e676549640000000000000000000000000000000000000000000000608482015260a40161051e565b60405160e260020a6314d15313026020820152602401604051602081830303815290604052805190602001208260400151604051602001610cf49190612e14565b6040516020818303038152906040528051906020012014610d945760405160e560020a62461bcd028152602060048201526047602482015260008051602061317983398151915260448201527f6c6c696e674f666665723a2073686f756c64206265207468652073656c6c696e60648201527f67206f6666657200000000000000000000000000000000000000000000000000608482015260a40161051e565b608082015160405160e060020a6370a08231028152306004820152600160a060020a038316906370a082319060240160206040518083038186803b158015610ddb57600080fd5b505afa158015610def573d6000803e3d6000fd5b505050506040513d601f19601f82011682018060405250810190610e139190612d10565b1015610e9e5760405160e560020a62461bcd028152602060048201526049602482015260008051602061317983398151915260448201527f6c6c696e674f666665723a20796f7520646f6e2774206861766520656e6f756760648201527f682062616c616e63650000000000000000000000000000000000000000000000608482015260a40161051e565b60808201516040517fa9059cbb000000000000000000000000000000000000000000000000000000008152600160a060020a03858116600483015260248201929092529082169063a9059cbb90604401602060405180830381600087803b158015610f0857600080fd5b505af1158015610f1c573d6000803e3d6000fd5b505050506040513d601f19601f82011682018060405250810190610f409190612b1f565b5060208085015160009081526003909152604081208181556001810182905590610f6d60028301826129a0565b50600381018054600160a060020a03191690556000600482018190556005909101556020848101516040519081527f8d0df4f0232f5407a296ed885c296c859d94584a4d45be9aab5286605108e7fa91016108e4565b8151600090815260026020908152604091829020600301549084015191840151600160a060020a0390911691610ff89161308d565b60405160e060020a6370a08231028152600160a060020a0384811660048301528316906370a082319060240160206040518083038186803b15801561103c57600080fd5b505afa158015611050573d6000803e3d6000fd5b505050506040513d601f19601f820116820180604052508101906110749190612d10565b10156111115760405160e560020a62461bcd02815260206004820152604760248201527f546f6b656e45786368616e67652e506c6163654552433230546f6b656e42757960448201527f696e674f666665723a20796f7520646f6e2774206861766520656e6f7567682060648201527f62616c616e636500000000000000000000000000000000000000000000000000608482015260a40161051e565b60008360400151116111b45760405160e560020a62461bcd02815260206004820152604f60248201527f546f6b656e45786368616e67652e506c6163654552433230546f6b656e42757960448201527f696e674f666665723a2070726963652063616e2774206265206c6f776572206f60648201527f7220657175616c20746f207a65726f0000000000000000000000000000000000608482015260a40161051e565b80600160a060020a03166323b872dd8330866020015187604001516111d9919061308d565b6040518463ffffffff1660e060020a0281526004016111fa93929190612e30565b602060405180830381600087803b15801561121457600080fd5b505af1158015611228573d6000803e3d6000fd5b505050506040513d601f19601f8201168201806040525081019061124c9190612b1f565b506112556129dd565b83518152604080518082018252600381527f425559000000000000000000000000000000000000000000000000000000000060208083019190915282840191909152600160a060020a0385166060840152850151608083015284015160a0820152600180549060006112c68361312b565b90915550506001805460208084018281526000928352600382526040928390208551815590519381019390935590830151805184939261130d926002850192910190612a1c565b506060820151600382018054600160a060020a031916600160a060020a039092169190911790556080820151600482015560a0909101516005909101556001546040519081527fab9887ec7581399be45c8d57b068532854a80523f0728e10e7d1ec8b211bf2d9906020016108e4565b61138561294f565b60008281526002602052604090819020815160c081019092528054829082906113ad906130f3565b80601f01602080910402602001604051908101604052809291908181526020018280546113d9906130f3565b80156114265780601f106113fb57610100808354040283529160200191611426565b820191906000526020600020905b81548152906001019060200180831161140957829003601f168201915b50505091835250506001820154600160a060020a03908116602083015260028301548116604083015260038301541660608201526004820154608082015260059091015460a09091015292915050565b600060036000846020015181526020019081526020016000206040518060c001604052908160008201548152602001600182015481526020016002820180546114be906130f3565b80601f01602080910402602001604051908101604052809291908181526020018280546114ea906130f3565b80156115375780601f1061150c57610100808354040283529160200191611537565b820191906000526020600020905b81548152906001019060200180831161151a57829003601f168201915b5050509183525050600382810154600160a060020a03908116602080850191909152600485015460408086019190915260059095015460609094019390935287516000908152600293849052848120909201548851835293909120909101548651845194955092821693911691146116405760405160e560020a62461bcd02815260206004820152604360248201527f546f6b656e45786368616e67652e4275794552433230546f6b656e46726f6d4f60448201527f666665723a2073686f756c64206265207468652073616d652065786368616e6760648201527f6549640000000000000000000000000000000000000000000000000000000000608482015260a40161051e565b60405160e260020a6314d153130260208201526024016040516020818303038152906040528051906020012083604001516040516020016116819190612e14565b60405160208183030381529060405280519060200120146117335760405160e560020a62461bcd02815260206004820152604160248201527f546f6b656e45786368616e67652e4275794552433230546f6b656e46726f6d4f60448201527f666665723a2073686f756c64206265207468652073656c6c696e67206f66666560648201527f7200000000000000000000000000000000000000000000000000000000000000608482015260a40161051e565b82608001518360a00151611747919061308d565b60405160e060020a6370a08231028152600160a060020a0386811660048301528416906370a082319060240160206040518083038186803b15801561178b57600080fd5b505afa15801561179f573d6000803e3d6000fd5b505050506040513d601f19601f820116820180604052508101906117c39190612d10565b10156117e45760405160e560020a62461bcd02815260040161051e90612f8a565b608083015160405160e060020a6370a08231028152306004820152600160a060020a038316906370a082319060240160206040518083038186803b15801561182b57600080fd5b505afa15801561183f573d6000803e3d6000fd5b505050506040513d601f19601f820116820180604052508101906118639190612d10565b10156118845760405160e560020a62461bcd02815260040161051e90612f8a565b81600160a060020a03166323b872dd85856060015186608001518760a001516118ad919061308d565b6040518463ffffffff1660e060020a0281526004016118ce93929190612e30565b602060405180830381600087803b1580156118e857600080fd5b505af11580156118fc573d6000803e3d6000fd5b505050506040513d601f19601f820116820180604052508101906119209190612b1f565b5060808301516040517fa9059cbb000000000000000000000000000000000000000000000000000000008152600160a060020a03868116600483015260248201929092529082169063a9059cbb90604401602060405180830381600087803b15801561198b57600080fd5b505af115801561199f573d6000803e3d6000fd5b505050506040513d601f19601f820116820180604052508101906119c39190612b1f565b50602080860151600090815260039091526040812081815560018101829055906119f060028301826129a0565b50600381018054600160a060020a03191690556000600482018190556005909101556020858101516040519081527f86d25bd27e55d1b7c838591f76c447846cd021f68d4df79ccc9c8d267a0c620491015b60405180910390a15050505050565b611a596129dd565b600360008381526020019081526020016000206040518060c00160405290816000820154815260200160018201548152602001600282018054611a9b906130f3565b80601f0160208091040260200160405190810160405280929190818152602001828054611ac7906130f3565b8015611b145780601f10611ae957610100808354040283529160200191611b14565b820191906000526020600020905b815481529060010190602001808311611af757829003601f168201915b50505091835250506003820154600160a060020a031660208201526004820154604082015260059091015460609091015292915050565b81516000908152600260208181526040928390209091015490840151915160e060020a6370a08231028152600160a060020a038481166004830152909116919082906370a082319060240160206040518083038186803b158015611bae57600080fd5b505afa158015611bc2573d6000803e3d6000fd5b505050506040513d601f19601f82011682018060405250810190611be69190612d10565b1015611c835760405160e560020a62461bcd02815260206004820152604860248201527f546f6b656e45786368616e67652e506c6163654552433230546f6b656e53656c60448201527f6c696e674f666665723a20796f7520646f6e2774206861766520656e6f75676860648201527f2062616c616e6365000000000000000000000000000000000000000000000000608482015260a40161051e565b6000836040015111611d265760405160e560020a62461bcd02815260206004820152605060248201527f546f6b656e45786368616e67652e506c6163654552433230546f6b656e53656c60448201527f6c696e674f666665723a2070726963652063616e2774206265206c6f7765722060648201527f6f7220657175616c20746f207a65726f00000000000000000000000000000000608482015260a40161051e565b60208301516040517f23b872dd000000000000000000000000000000000000000000000000000000008152600160a060020a038316916323b872dd91611d73918691309190600401612e30565b602060405180830381600087803b158015611d8d57600080fd5b505af1158015611da1573d6000803e3d6000fd5b505050506040513d601f19601f82011682018060405250810190611dc59190612b1f565b50611dce6129dd565b835181526040805180820182526004815260e260020a6314d153130260208083019190915282840191909152600160a060020a0385166060840152850151608083015284015160a082015260018054906000611e298361312b565b909155505060018054602080840182815260009283526003825260409283902085518155905193810193909355908301518051849392611e70926002850192910190612a1c565b506060820151600382018054600160a060020a031916600160a060020a039092169190911790556080820151600482015560a0909101516005909101556001546040519081527f43f199d36aa09ee55761dfb7de2a3feb37719fb3aee5302d9d41a419ab319239906020016108e4565b6020820151606083015160405160e060020a6370a08231028152600160a060020a0384811660048301528316906370a082319060240160206040518083038186803b158015611f2e57600080fd5b505afa158015611f42573d6000803e3d6000fd5b505050506040513d601f19601f82011682018060405250810190611f669190612d10565b10156120035760405160e560020a62461bcd02815260206004820152604260248201527f546f6b656e45786368616e67652e4372656174654552433230546f6b656e457860448201527f6368616e67653a20596f75722062616c616e6365206973206e6f7420656e6f7560648201527f6768000000000000000000000000000000000000000000000000000000000000608482015260a40161051e565b60008360800151116120a65760405160e560020a62461bcd02815260206004820152604d60248201527f546f6b656e45786368616e67652e4372656174654552433230546f6b656e457860448201527f6368616e67653a2070726963652063616e2774206265206c6f776572206f722060648201527f657175616c20746f207a65726f00000000000000000000000000000000000000608482015260a40161051e565b60608301516040517f23b872dd000000000000000000000000000000000000000000000000000000008152600160a060020a038316916323b872dd916120f3918691309190600401612e30565b602060405180830381600087803b15801561210d57600080fd5b505af1158015612121573d6000803e3d6000fd5b505050506040513d601f19601f820116820180604052508101906121459190612b1f565b5061214e61294f565b83518152600160a060020a0380841660208084019190915285015181166040808401919091528501511660608083019190915284015160808083019190915284015160a08201526000805490806121a48361312b565b90915550506000805481526002602090815260409091208251805184936121cf928492910190612a1c565b506020820151600182018054600160a060020a03928316600160a060020a031991821617909155604084015160028401805491841691831691909117905560608401516003840180549190931691161790556080820151600482015560a09091015160059091015561223f6129dd565b6000805482526040805180820182526004815260e260020a6314d1531302602082015290830152600160a060020a038516606080840191909152860151608083015260a0808401519083015260018054916122998361312b565b9091555050600180546020808401828152600092835260038252604092839020855181559051938101939093559083015180518493926122e0926002850192910190612a1c565b506060820151600382018054600160a060020a031916600160a060020a039092169190911790556080820151600482015560a0909101516005909101556000546001546040805192835260208301919091527fc9d070d04e9cdf59bbe1f8c1888df22780e9a769051ecae7049fdebd648057199101611a42565b600060036000846020015181526020019081526020016000206040518060c001604052908160008201548152602001600182015481526020016002820180546123a2906130f3565b80601f01602080910402602001604051908101604052809291908181526020018280546123ce906130f3565b801561241b5780601f106123f05761010080835404028352916020019161241b565b820191906000526020600020905b8154815290600101906020018083116123fe57829003601f168201915b5050509183525050600382810154600160a060020a03908116602080850191909152600485015460408086019190915260059095015460609094019390935287516000908152600293849052848120909201548851835293909120909101548651845194955092821693911691146125255760405160e560020a62461bcd028152602060048201526044602482018190527f546f6b656e45786368616e67652e53656c6c4552433230546f6b656e46726f6d908201527f4f666665723a2073686f756c64206265207468652073616d652065786368616e60648201527f6765496400000000000000000000000000000000000000000000000000000000608482015260a40161051e565b6040517f4255590000000000000000000000000000000000000000000000000000000000602082015260230160405160208183030381529060405280519060200120836040015160405160200161257c9190612e14565b604051602081830303815290604052805190602001201461262e5760405160e560020a62461bcd02815260206004820152604160248201527f546f6b656e45786368616e67652e53656c6c4552433230546f6b656e46726f6d60448201527f4f666665723a2073686f756c642062652074686520627579696e67206f66666560648201527f7200000000000000000000000000000000000000000000000000000000000000608482015260a40161051e565b82608001518360a00151612642919061308d565b60405160e060020a6370a08231028152306004820152600160a060020a038416906370a082319060240160206040518083038186803b15801561268457600080fd5b505afa158015612698573d6000803e3d6000fd5b505050506040513d601f19601f820116820180604052508101906126bc9190612d10565b10156126dd5760405160e560020a62461bcd02815260040161051e90612f07565b6080830151606084015160405160e060020a6370a08231028152600160a060020a039182166004820152908316906370a082319060240160206040518083038186803b15801561272c57600080fd5b505afa158015612740573d6000803e3d6000fd5b505050506040513d601f19601f820116820180604052508101906127649190612d10565b10156127855760405160e560020a62461bcd02815260040161051e90612f07565b81600160a060020a031663a9059cbb846060015185608001518660a001516127ad919061308d565b60405160e060020a63ffffffff8516028152600160a060020a0390921660048301526024820152604401602060405180830381600087803b1580156127f157600080fd5b505af1158015612805573d6000803e3d6000fd5b505050506040513d601f19601f820116820180604052508101906128299190612b1f565b50606083015160808401516040517f23b872dd000000000000000000000000000000000000000000000000000000008152600160a060020a038416926323b872dd9261287a92899190600401612e30565b602060405180830381600087803b15801561289457600080fd5b505af11580156128a8573d6000803e3d6000fd5b505050506040513d601f19601f820116820180604052508101906128cc9190612b1f565b50602080860151600090815260039091526040812081815560018101829055906128f960028301826129a0565b50600381018054600160a060020a03191690556000600482018190556005909101556020858101516040519081527fb546f371a0e2970e03a2a9397a8965f347a3216b70fb3f3da67e8ba0a9c8900c9101611a42565b6040518060c00160405280606081526020016000600160a060020a031681526020016000600160a060020a031681526020016000600160a060020a0316815260200160008152602001600081525090565b5080546129ac906130f3565b6000825580601f106129bc575050565b601f0160209004906000526020600020908101906129da9190612aa0565b50565b6040518060c001604052806000815260200160008152602001606081526020016000600160a060020a0316815260200160008152602001600081525090565b828054612a28906130f3565b90600052602060002090601f016020900481019282612a4a5760008555612a90565b82601f10612a6357805160ff1916838001178555612a90565b82800160010185558215612a90579182015b82811115612a90578251825591602001919060010190612a75565b50612a9c929150612aa0565b5090565b5b80821115612a9c5760008155600101612aa1565b8035600160a060020a0381168114612acc57600080fd5b919050565b600060408284031215612ae2578081fd5b6040516040810181811067ffffffffffffffff82111715612b0557612b0561315f565b604052823581526020928301359281019290925250919050565b600060208284031215612b30578081fd5b81518015158114612b3f578182fd5b9392505050565b60008060608385031215612b58578081fd5b612b628484612ad1565b9150612b7060408401612ab5565b90509250929050565b60008060408385031215612b8b578182fd5b823567ffffffffffffffff80821115612ba2578384fd5b9084019060a08287031215612bb5578384fd5b612bbd613033565b823582811115612bcb578586fd5b8301601f81018813612bdb578586fd5b8035602084821115612bef57612bef61315f565b612c01601f8301601f1916820161305c565b94508185528981838501011115612c16578788fd5b818184018287013787818387010152848452612c33818701612ab5565b81850152612c4360408701612ab5565b60408501526060860135606085015260808601356080850152839750612c6a818a01612ab5565b96505050505050509250929050565b60008060608385031215612b58578182fd5b6000808284036080811215612c9e578283fd5b6060811215612cab578283fd5b506040516060810181811067ffffffffffffffff82111715612ccf57612ccf61315f565b6040908152843582526020808601359083015284810135908201529150612b7060608401612ab5565b600060208284031215612d09578081fd5b5035919050565b600060208284031215612d21578081fd5b5051919050565b60008151808452612d408160208601602086016130c3565b601f01601f19169290920160200192915050565b6000815160c08452612d6960c0850182612d28565b90506020830151600160a060020a03808216602087015280604086015116604087015280606086015116606087015250506080830151608085015260a083015160a08501528091505092915050565b80518252602081015160208301526000604082015160c06040850152612de160c0850182612d28565b9050600160a060020a0360608401511660608501526080830151608085015260a083015160a08501528091505092915050565b60008251612e268184602087016130c3565b9190910192915050565b600160a060020a039384168152919092166020820152604081019190915260600190565b6000602080830181845280855180835260408601915060408482028701019250838701855b82811015612ea757603f19888603018452612e95858351612d54565b94509285019290850190600101612e79565b5092979650505050505050565b6000602080830181845280855180835260408601915060408482028701019250838701855b82811015612ea757603f19888603018452612ef5858351612db8565b94509285019290850190600101612ed9565b60208082526044908201527f546f6b656e45786368616e67652e53656c6c4552433230546f6b656e46726f6d60408201527f4f666665723a20796f7520646f6e2774206861766520656e6f7567682062616c60608201527f616e636500000000000000000000000000000000000000000000000000000000608082015260a00190565b60208082526043908201527f546f6b656e45786368616e67652e4275794552433230546f6b656e46726f6d4f60408201527f666665723a20796f7520646f6e2774206861766520656e6f7567682062616c6160608201527f6e63650000000000000000000000000000000000000000000000000000000000608082015260a00190565b602081526000612b3f6020830184612d54565b602081526000612b3f6020830184612db8565b60405160a0810167ffffffffffffffff811182821017156130565761305661315f565b60405290565b604051601f8201601f1916810167ffffffffffffffff811182821017156130855761308561315f565b604052919050565b60008160001904831182151516156130a7576130a7613146565b500290565b6000828210156130be576130be613146565b500390565b60005b838110156130de5781810151838201526020016130c6565b838111156130ed576000848401525b50505050565b60028104600182168061310757607f821691505b6020821081141561039a5760e060020a634e487b7102600052602260045260246000fd5b600060001982141561313f5761313f613146565b5060010190565b60e060020a634e487b7102600052601160045260246000fd5b60e060020a634e487b7102600052604160045260246000fdfe546f6b656e45786368616e67652e43616e63656c4552433230546f6b656e5365546f6b656e45786368616e67652e43616e63656c4552433230546f6b656e4275a264697066735822122033461cf0024a07a93072e45f89cac779162eded0c4a65b7afa687cfa298d8f0564736f6c63430008040033",
  "immutableReferences": {},
  "source": "// SPDX-License-Identifier: UNLICENSED\r\n\r\npragma solidity ^0.8.4;\r\nimport \"@openzeppelin/contracts/token/ERC20/IERC20.sol\";\r\n\r\n/**\r\n * @dev Exchange Contract for ERC20 Token\r\n */\r\ncontract ERC20TokenExchange{\r\n    /**\r\n    * @dev Exchange struct for ERC20 Token\r\n    */\r\n    struct ERC20Exchange {\r\n        string exchangeName;\r\n        address creatorAddress;\r\n        address exchangeTokenAddress;\r\n        address offerTokenAddress;\r\n        uint initialAmount;\r\n        uint price;\r\n    }\r\n\r\n    /**\r\n    * @dev Offer struct for ERC20 Token\r\n    */\r\n    struct ERC20Offer {\r\n        uint exchangeId;\r\n        uint offerId;\r\n        string offerType;\r\n        address creatorAddress;\r\n        uint amount;\r\n        uint price;\r\n    }\r\n\r\n    /**\r\n    * @dev Request struct for creating ERC20TokenExchange\r\n    */\r\n    struct CreateERC20TokenExchangeRequest {\r\n        string exchangeName;\r\n        address exchangeTokenAddress;\r\n        address offerTokenAddress;\r\n        uint amount;\r\n        uint price;\r\n    }\r\n\r\n    /**\r\n    * @dev Request struct for Place ERC20Token Offer\r\n    */\r\n    struct PlaceERC20TokenOfferRequest {\r\n        uint exchangeId;\r\n        uint amount;\r\n        uint price;\r\n    }\r\n\r\n    /**\r\n    * @dev Request struct for cancel Exchange\r\n    */\r\n    struct CancelOfferRequest {\r\n        uint exchangeId;\r\n        uint offerId;\r\n    }\r\n\r\n    /**\r\n    * @dev Request struct for deal Exchange\r\n    */\r\n    struct OfferRequest {\r\n        uint exchangeId;\r\n        uint offerId;\r\n    }\r\n\r\n    /**\r\n    * @dev count variables for ERC20Token exchange and offer mapping\r\n    */\r\n    uint internal _erc20ExchangeCount;\r\n    uint internal _erc20OfferCount;\r\n\r\n    /**\r\n    * @dev variables for storing ERC20TOken Exchange and Offer\r\n    */\r\n    mapping(uint => ERC20Exchange) internal _erc20Exchanges;\r\n    mapping(uint => ERC20Offer) internal _erc20Offers;\r\n\r\n    // ----- EVENTS ----- //\r\n    event ERC20TokenExchangeCreated(uint exchangeId, uint initialOfferId);\r\n    event ERC20TokenBuyingOfferPlaced(uint offerId);\r\n    event ERC20TokenSellingOfferPlaced(uint offerId);\r\n    event ERC20TokenBuyingOfferCanceled(uint offerId);\r\n    event ERC20TokenSellingOfferCanceled(uint offerId);\r\n    event ERC20TokenFromOfferBought(uint offerId);\r\n    event ERC20TokenFromOfferSold(uint offerId);\r\n\r\n    /**\r\n    * @dev Constructor Function\r\n    */\r\n    constructor() {\r\n        _erc20ExchangeCount = 0;\r\n        _erc20OfferCount = 0;\r\n    }\r\n    \r\n    // ----- VIEWS ----- //\r\n    function getErc20ExchangeCount() external view returns(uint){\r\n        return _erc20ExchangeCount;\r\n    }\r\n\r\n    function getErc20OfferCount() external view returns(uint){\r\n        return _erc20OfferCount;\r\n    }\r\n\r\n    function getErc20ExchangeAll() external view returns(ERC20Exchange[] memory){\r\n        ERC20Exchange[] memory exchanges = new ERC20Exchange[](_erc20ExchangeCount);\r\n        for(uint i = 1; i <= _erc20ExchangeCount; i++)\r\n            exchanges[i-1] = _erc20Exchanges[i];\r\n        return exchanges;\r\n    }\r\n\r\n    function getErc20OfferAll() external view returns(ERC20Offer[] memory){\r\n        ERC20Offer[] memory offers = new ERC20Offer[](_erc20OfferCount);\r\n        for(uint i = 1; i <= _erc20OfferCount; i++)\r\n            offers[i-1] = _erc20Offers[i];\r\n        return offers;\r\n    }\r\n\r\n    function getErc20ExchangeById(uint _exchangeId) external view returns(ERC20Exchange memory){\r\n        return _erc20Exchanges[_exchangeId];\r\n    }\r\n\r\n    function getErc20OfferById(uint _offerId) external view returns(ERC20Offer memory){\r\n        return _erc20Offers[_offerId];\r\n    }\r\n\r\n    // ----- PUBLIC METHODS ----- //\r\n    /**\r\n    * @dev Owner of token can create Exchange of ERC20\r\n    * @dev exchangeTokenAddress address of exchangeToken(ERC20) \r\n    * @dev offerTokenAddress address of exchangeToken(ERC20) \r\n    * @dev amount amount of Exchange\r\n    * @dev price token price of Exchange\r\n    */\r\n    function CreateERC20TokenExchange(CreateERC20TokenExchangeRequest memory input, address caller) external {\r\n        IERC20 token = IERC20(input.exchangeTokenAddress);\r\n        require(token.balanceOf(caller) >= input.amount, \"TokenExchange.CreateERC20TokenExchange: Your balance is not enough\");\r\n        require(input.price > 0, \"TokenExchange.CreateERC20TokenExchange: price can't be lower or equal to zero\");\r\n        \r\n        token.transferFrom(caller, address(this), input.amount);\r\n\r\n        /**\r\n        * @dev store exchange and initial offer\r\n        */\r\n        ERC20Exchange memory exchange;\r\n        exchange.exchangeName = input.exchangeName;\r\n        exchange.creatorAddress = caller;\r\n        exchange.exchangeTokenAddress = input.exchangeTokenAddress;\r\n        exchange.offerTokenAddress = input.offerTokenAddress;\r\n        exchange.initialAmount = input.amount;\r\n        exchange.price = input.price; \r\n\r\n        _erc20ExchangeCount++;\r\n        _erc20Exchanges[_erc20ExchangeCount] = exchange;\r\n\r\n        ERC20Offer memory offer;\r\n        offer.exchangeId = _erc20ExchangeCount;\r\n        offer.offerType = \"SELL\";\r\n        offer.creatorAddress = caller;\r\n        offer.amount = input.amount;\r\n        offer.price = exchange.price;\r\n\r\n        _erc20OfferCount++;\r\n        offer.offerId = _erc20OfferCount;\r\n        _erc20Offers[_erc20OfferCount] = offer;\r\n\r\n        emit ERC20TokenExchangeCreated(_erc20ExchangeCount, _erc20OfferCount);\r\n    }\r\n\r\n    /**\r\n    * @dev someone can create buying offer for ERC20 token exchange\r\n    * @dev exchangeTokenId id of exchange \r\n    * @dev amount amount of Exchange\r\n    * @dev price token price of Exchange\r\n    */\r\n    function PlaceERC20TokenBuyingOffer(PlaceERC20TokenOfferRequest memory input, address caller) external {\r\n        IERC20 token = IERC20(_erc20Exchanges[input.exchangeId].offerTokenAddress);\r\n        require(\r\n            token.balanceOf(caller) >= (input.price * input.amount), \r\n            \"TokenExchange.PlaceERC20TokenBuyingOffer: you don't have enough balance\"\r\n        );\r\n        require(input.price > 0, \"TokenExchange.PlaceERC20TokenBuyingOffer: price can't be lower or equal to zero\");\r\n\r\n        token.transferFrom(caller, address(this), input.price * input.amount);\r\n\r\n        /**\r\n        * @dev store buying offer\r\n        */\r\n        ERC20Offer memory offer;\r\n        offer.exchangeId = input.exchangeId;\r\n        offer.offerType = \"BUY\";\r\n        offer.creatorAddress = caller;\r\n        offer.amount = input.amount;\r\n        offer.price = input.price;\r\n\r\n        _erc20OfferCount++;\r\n        offer.offerId = _erc20OfferCount;\r\n        _erc20Offers[_erc20OfferCount] = offer;\r\n\r\n        emit ERC20TokenBuyingOfferPlaced(_erc20OfferCount);\r\n    }\r\n\r\n    /**\r\n    * @dev owner of token can create selling offer for ERC20 token exchange\r\n    * @dev exchangeTokenId id of exchange \r\n    * @dev amount amount of Exchange\r\n    * @dev price token price of Exchange\r\n    */\r\n    function PlaceERC20TokenSellingOffer(PlaceERC20TokenOfferRequest memory input, address caller) external {\r\n        IERC20 token = IERC20(_erc20Exchanges[input.exchangeId].exchangeTokenAddress);\r\n        require(\r\n            token.balanceOf(caller) >= input.amount, \r\n            \"TokenExchange.PlaceERC20TokenSellingOffer: you don't have enough balance\"\r\n        );\r\n        require(input.price > 0, \"TokenExchange.PlaceERC20TokenSellingOffer: price can't be lower or equal to zero\");\r\n\r\n        token.transferFrom(caller, address(this), input.amount);\r\n\r\n        /**\r\n        * @dev store selling offer\r\n        */\r\n        ERC20Offer memory offer;\r\n        offer.exchangeId = input.exchangeId;\r\n        offer.offerType = \"SELL\";\r\n        offer.creatorAddress = caller;\r\n        offer.amount = input.amount;\r\n        offer.price = input.price;\r\n\r\n        _erc20OfferCount++;\r\n        offer.offerId = _erc20OfferCount;\r\n        _erc20Offers[_erc20OfferCount] = offer;\r\n\r\n        emit ERC20TokenSellingOfferPlaced(_erc20OfferCount);\r\n    }\r\n\r\n    /**\r\n    * @dev creator of buying offer can cancel his ERC20Token BuyingOffer\r\n    * @dev exchangeTokenId id of exchange \r\n    * @dev offerId id of offer\r\n    */\r\n    function CancelERC20TokenBuyingOffer(CancelOfferRequest memory input, address caller) external{\r\n        ERC20Offer memory offer = _erc20Offers[input.offerId];\r\n        IERC20 token = IERC20(_erc20Exchanges[input.exchangeId].offerTokenAddress);\r\n        require(offer.creatorAddress == caller, \"TokenExchange.CancelERC20TokenBuyingOffer: should be owner\");\r\n        require(offer.exchangeId == input.exchangeId, \"TokenExchange.CancelERC20TokenBuyingOffer: should be the same exchangeId\");\r\n        require(\r\n            keccak256(abi.encodePacked(offer.offerType)) == keccak256(abi.encodePacked(\"BUY\")), \r\n            \"TokenExchange.CancelERC20TokenBuyingOffer: should be the buying offer\"\r\n        );\r\n\r\n        require(\r\n            token.balanceOf(address(this)) >= (offer.price * offer.amount),\r\n            \"TokenExchange.CancelERC20TokenBuyingOffer: you don't have enough balance\"\r\n        );\r\n        \r\n        token.transfer(caller, offer.price * offer.amount);            \r\n        delete _erc20Offers[input.offerId];\r\n\r\n        emit ERC20TokenBuyingOfferCanceled(input.offerId);\r\n    }\r\n\r\n    /**\r\n    * @dev creator of selling offer can cancel his ERC20 SellingOffer\r\n    * @dev exchangeTokenId id of exchange \r\n    * @dev offerId id of offer\r\n    */\r\n    function CancelERC20TokenSellingOffer(CancelOfferRequest memory input, address caller) external{\r\n        ERC20Offer memory offer = _erc20Offers[input.offerId];\r\n        IERC20 token = IERC20(_erc20Exchanges[input.exchangeId].exchangeTokenAddress);\r\n        require(offer.creatorAddress == caller, \"TokenExchange.CancelERC20TokenSellingOffer: should be owner\");\r\n        require(offer.exchangeId == input.exchangeId, \"TokenExchange.CancelERC20TokenSellingOffer: should be the same exchangeId\");\r\n        require(\r\n            keccak256(abi.encodePacked(offer.offerType)) == keccak256(abi.encodePacked(\"SELL\")), \r\n            \"TokenExchange.CancelERC20TokenSellingOffer: should be the selling offer\"\r\n        );\r\n        require(\r\n            token.balanceOf(address(this)) >= offer.amount, \r\n            \"TokenExchange.CancelERC20TokenSellingOffer: you don't have enough balance\"\r\n        );\r\n        \r\n        token.transfer(caller, offer.amount);\r\n        delete _erc20Offers[input.offerId];\r\n\r\n        emit ERC20TokenSellingOfferCanceled(input.offerId);\r\n    }\r\n\r\n    /**\r\n    * @dev someone can buy token(ERC20) from selling offer\r\n    * @dev exchangeTokenId id of exchange \r\n    * @dev offerId id of offer\r\n    */\r\n    function BuyERC20TokenFromOffer(OfferRequest memory input, address caller) external{\r\n        ERC20Offer memory offer = _erc20Offers[input.offerId];\r\n        IERC20 offerToken = IERC20(_erc20Exchanges[input.exchangeId].offerTokenAddress);\r\n        IERC20 exchangeToken = IERC20(_erc20Exchanges[input.exchangeId].exchangeTokenAddress);\r\n\r\n        require(offer.exchangeId == input.exchangeId, \"TokenExchange.BuyERC20TokenFromOffer: should be the same exchangeId\");\r\n        require(\r\n            keccak256(abi.encodePacked(offer.offerType)) == keccak256(abi.encodePacked(\"SELL\")), \r\n            \"TokenExchange.BuyERC20TokenFromOffer: should be the selling offer\"\r\n        );\r\n        require(\r\n            offerToken.balanceOf(caller) >= (offer.price * offer.amount),\r\n            \"TokenExchange.BuyERC20TokenFromOffer: you don't have enough balance\"\r\n        );\r\n\r\n        require(\r\n            exchangeToken.balanceOf(address(this)) >= offer.amount,\r\n            \"TokenExchange.BuyERC20TokenFromOffer: you don't have enough balance\"\r\n        );\r\n\r\n        offerToken.transferFrom(caller, offer.creatorAddress, offer.price * offer.amount); \r\n        exchangeToken.transfer(caller, offer.amount);\r\n        delete _erc20Offers[input.offerId];\r\n\r\n        emit ERC20TokenFromOfferBought(input.offerId);\r\n    }\r\n    /**\r\n    * @dev owner of token can sell token(ERC20) from buying offer\r\n    * @dev exchangeTokenId id of exchange \r\n    * @dev offerId id of offer\r\n    */\r\n    function SellERC20TokenFromOffer(OfferRequest memory input, address caller) external{\r\n        ERC20Offer memory offer = _erc20Offers[input.offerId];\r\n        IERC20 offerToken = IERC20(_erc20Exchanges[input.exchangeId].offerTokenAddress);\r\n        IERC20 exchangeToken = IERC20(_erc20Exchanges[input.exchangeId].exchangeTokenAddress);\r\n\r\n        require(offer.exchangeId == input.exchangeId, \"TokenExchange.SellERC20TokenFromOffer: should be the same exchangeId\");\r\n        require(\r\n            keccak256(abi.encodePacked(offer.offerType)) == keccak256(abi.encodePacked(\"BUY\")), \r\n            \"TokenExchange.SellERC20TokenFromOffer: should be the buying offer\"\r\n        );\r\n        require(\r\n            offerToken.balanceOf(address(this)) >= (offer.price * offer.amount),\r\n            \"TokenExchange.SellERC20TokenFromOffer: you don't have enough balance\"\r\n        );\r\n\r\n        require(\r\n            exchangeToken.balanceOf(offer.creatorAddress) >= offer.amount,\r\n            \"TokenExchange.SellERC20TokenFromOffer: you don't have enough balance\"\r\n        );\r\n\r\n        offerToken.transfer(offer.creatorAddress, offer.price * offer.amount); \r\n        exchangeToken.transferFrom(offer.creatorAddress, caller, offer.amount);\r\n        delete _erc20Offers[input.offerId];\r\n\r\n        emit ERC20TokenFromOfferSold(input.offerId);\r\n    }\r\n}",
  "sourcePath": "/Users/angelsatorresalmenara/Privi-Polygon/privi-exchange/contracts/ERC20TokenExchange.sol",
  "compiler": {
    "name": "solc",
    "version": "0.8.4+commit.c7e474f2.Emscripten.clang"
  },
  "schemaVersion": "3.4.2",
  "updatedAt": "2021-09-02T16:13:36.890Z",
  "networkType": "ethereum",
  "devdoc": {
    "details": "Exchange Contract for ERC20 Token",
    "kind": "dev",
    "methods": {
      "BuyERC20TokenFromOffer((uint256,uint256),address)": {
        "details": "someone can buy token(ERC20) from selling offerexchangeTokenId id of exchange offerId id of offer"
      },
      "CancelERC20TokenBuyingOffer((uint256,uint256),address)": {
        "details": "creator of buying offer can cancel his ERC20Token BuyingOfferexchangeTokenId id of exchange offerId id of offer"
      },
      "CancelERC20TokenSellingOffer((uint256,uint256),address)": {
        "details": "creator of selling offer can cancel his ERC20 SellingOfferexchangeTokenId id of exchange offerId id of offer"
      },
      "CreateERC20TokenExchange((string,address,address,uint256,uint256),address)": {
        "details": "Owner of token can create Exchange of ERC20exchangeTokenAddress address of exchangeToken(ERC20) offerTokenAddress address of exchangeToken(ERC20) amount amount of Exchangeprice token price of Exchange"
      },
      "PlaceERC20TokenBuyingOffer((uint256,uint256,uint256),address)": {
        "details": "someone can create buying offer for ERC20 token exchangeexchangeTokenId id of exchange amount amount of Exchangeprice token price of Exchange"
      },
      "PlaceERC20TokenSellingOffer((uint256,uint256,uint256),address)": {
        "details": "owner of token can create selling offer for ERC20 token exchangeexchangeTokenId id of exchange amount amount of Exchangeprice token price of Exchange"
      },
      "SellERC20TokenFromOffer((uint256,uint256),address)": {
        "details": "owner of token can sell token(ERC20) from buying offerexchangeTokenId id of exchange offerId id of offer"
      },
      "constructor": {
        "details": "Constructor Function"
      }
    },
    "stateVariables": {
      "_erc20ExchangeCount": {
        "details": "count variables for ERC20Token exchange and offer mapping"
      },
      "_erc20Exchanges": {
        "details": "variables for storing ERC20TOken Exchange and Offer"
      }
    },
    "version": 1
  },
  "userdoc": {
    "kind": "user",
    "methods": {},
    "version": 1
  }
}