{
  "contractName": "ERC721TokenExchange",
  "abi": [
    {
      "inputs": [],
      "stateMutability": "nonpayable",
      "type": "constructor"
    },
    {
      "anonymous": false,
      "inputs": [
        {
          "indexed": false,
          "internalType": "uint256",
          "name": "offerId",
          "type": "uint256"
        }
      ],
      "name": "ERC721TokenBuyingOfferCanceled",
      "type": "event"
    },
    {
      "anonymous": false,
      "inputs": [
        {
          "indexed": false,
          "internalType": "uint256",
          "name": "offerId",
          "type": "uint256"
        }
      ],
      "name": "ERC721TokenBuyingOfferPlaced",
      "type": "event"
    },
    {
      "anonymous": false,
      "inputs": [
        {
          "indexed": false,
          "internalType": "uint256",
          "name": "exchangeId",
          "type": "uint256"
        },
        {
          "indexed": false,
          "internalType": "uint256",
          "name": "initialOfferId",
          "type": "uint256"
        }
      ],
      "name": "ERC721TokenExchangeCreated",
      "type": "event"
    },
    {
      "anonymous": false,
      "inputs": [
        {
          "indexed": false,
          "internalType": "uint256",
          "name": "offerId",
          "type": "uint256"
        }
      ],
      "name": "ERC721TokenFromOfferBought",
      "type": "event"
    },
    {
      "anonymous": false,
      "inputs": [
        {
          "indexed": false,
          "internalType": "uint256",
          "name": "offerId",
          "type": "uint256"
        }
      ],
      "name": "ERC721TokenFromOfferSold",
      "type": "event"
    },
    {
      "anonymous": false,
      "inputs": [
        {
          "indexed": false,
          "internalType": "uint256",
          "name": "offerId",
          "type": "uint256"
        }
      ],
      "name": "ERC721TokenSellingOfferCanceled",
      "type": "event"
    },
    {
      "anonymous": false,
      "inputs": [
        {
          "indexed": false,
          "internalType": "uint256",
          "name": "offerId",
          "type": "uint256"
        }
      ],
      "name": "ERC721TokenSellingOfferPlaced",
      "type": "event"
    },
    {
      "inputs": [],
      "name": "getErc721ExchangeCount",
      "outputs": [
        {
          "internalType": "uint256",
          "name": "",
          "type": "uint256"
        }
      ],
      "stateMutability": "view",
      "type": "function",
      "constant": true
    },
    {
      "inputs": [],
      "name": "getErc721OfferCount",
      "outputs": [
        {
          "internalType": "uint256",
          "name": "",
          "type": "uint256"
        }
      ],
      "stateMutability": "view",
      "type": "function",
      "constant": true
    },
    {
      "inputs": [],
      "name": "getErc721ExchangeAll",
      "outputs": [
        {
          "components": [
            {
              "internalType": "string",
              "name": "exchangeName",
              "type": "string"
            },
            {
              "internalType": "address",
              "name": "creatorAddress",
              "type": "address"
            },
            {
              "internalType": "address",
              "name": "exchangeTokenAddress",
              "type": "address"
            },
            {
              "internalType": "address",
              "name": "offerTokenAddress",
              "type": "address"
            },
            {
              "internalType": "uint256",
              "name": "price",
              "type": "uint256"
            }
          ],
          "internalType": "struct ERC721TokenExchange.ERC721Exchange[]",
          "name": "",
          "type": "tuple[]"
        }
      ],
      "stateMutability": "view",
      "type": "function",
      "constant": true
    },
    {
      "inputs": [],
      "name": "getErc721OfferAll",
      "outputs": [
        {
          "components": [
            {
              "internalType": "uint256",
              "name": "exchangeId",
              "type": "uint256"
            },
            {
              "internalType": "uint256",
              "name": "offerId",
              "type": "uint256"
            },
            {
              "internalType": "string",
              "name": "offerType",
              "type": "string"
            },
            {
              "internalType": "address",
              "name": "creatorAddress",
              "type": "address"
            },
            {
              "internalType": "uint256",
              "name": "tokenId",
              "type": "uint256"
            },
            {
              "internalType": "uint256",
              "name": "price",
              "type": "uint256"
            }
          ],
          "internalType": "struct ERC721TokenExchange.ERC721Offer[]",
          "name": "",
          "type": "tuple[]"
        }
      ],
      "stateMutability": "view",
      "type": "function",
      "constant": true
    },
    {
      "inputs": [
        {
          "internalType": "uint256",
          "name": "_exchangeId",
          "type": "uint256"
        }
      ],
      "name": "getErc721ExchangeById",
      "outputs": [
        {
          "components": [
            {
              "internalType": "string",
              "name": "exchangeName",
              "type": "string"
            },
            {
              "internalType": "address",
              "name": "creatorAddress",
              "type": "address"
            },
            {
              "internalType": "address",
              "name": "exchangeTokenAddress",
              "type": "address"
            },
            {
              "internalType": "address",
              "name": "offerTokenAddress",
              "type": "address"
            },
            {
              "internalType": "uint256",
              "name": "price",
              "type": "uint256"
            }
          ],
          "internalType": "struct ERC721TokenExchange.ERC721Exchange",
          "name": "",
          "type": "tuple"
        }
      ],
      "stateMutability": "view",
      "type": "function",
      "constant": true
    },
    {
      "inputs": [
        {
          "internalType": "uint256",
          "name": "_offerId",
          "type": "uint256"
        }
      ],
      "name": "getErc721OfferById",
      "outputs": [
        {
          "components": [
            {
              "internalType": "uint256",
              "name": "exchangeId",
              "type": "uint256"
            },
            {
              "internalType": "uint256",
              "name": "offerId",
              "type": "uint256"
            },
            {
              "internalType": "string",
              "name": "offerType",
              "type": "string"
            },
            {
              "internalType": "address",
              "name": "creatorAddress",
              "type": "address"
            },
            {
              "internalType": "uint256",
              "name": "tokenId",
              "type": "uint256"
            },
            {
              "internalType": "uint256",
              "name": "price",
              "type": "uint256"
            }
          ],
          "internalType": "struct ERC721TokenExchange.ERC721Offer",
          "name": "",
          "type": "tuple"
        }
      ],
      "stateMutability": "view",
      "type": "function",
      "constant": true
    },
    {
      "inputs": [
        {
          "components": [
            {
              "internalType": "string",
              "name": "exchangeName",
              "type": "string"
            },
            {
              "internalType": "address",
              "name": "exchangeTokenAddress",
              "type": "address"
            },
            {
              "internalType": "address",
              "name": "offerTokenAddress",
              "type": "address"
            },
            {
              "internalType": "uint256",
              "name": "tokenId",
              "type": "uint256"
            },
            {
              "internalType": "uint256",
              "name": "price",
              "type": "uint256"
            }
          ],
          "internalType": "struct ERC721TokenExchange.CreateERC721TokenExchangeRequest",
          "name": "input",
          "type": "tuple"
        },
        {
          "internalType": "address",
          "name": "caller",
          "type": "address"
        }
      ],
      "name": "CreateERC721TokenExchange",
      "outputs": [],
      "stateMutability": "nonpayable",
      "type": "function"
    },
    {
      "inputs": [
        {
          "components": [
            {
              "internalType": "uint256",
              "name": "exchangeId",
              "type": "uint256"
            },
            {
              "internalType": "uint256",
              "name": "tokenId",
              "type": "uint256"
            },
            {
              "internalType": "uint256",
              "name": "price",
              "type": "uint256"
            }
          ],
          "internalType": "struct ERC721TokenExchange.PlaceERC721TokenOfferRequest",
          "name": "input",
          "type": "tuple"
        },
        {
          "internalType": "address",
          "name": "caller",
          "type": "address"
        }
      ],
      "name": "PlaceERC721TokenBuyingOffer",
      "outputs": [],
      "stateMutability": "nonpayable",
      "type": "function"
    },
    {
      "inputs": [
        {
          "components": [
            {
              "internalType": "uint256",
              "name": "exchangeId",
              "type": "uint256"
            },
            {
              "internalType": "uint256",
              "name": "tokenId",
              "type": "uint256"
            },
            {
              "internalType": "uint256",
              "name": "price",
              "type": "uint256"
            }
          ],
          "internalType": "struct ERC721TokenExchange.PlaceERC721TokenOfferRequest",
          "name": "input",
          "type": "tuple"
        },
        {
          "internalType": "address",
          "name": "caller",
          "type": "address"
        }
      ],
      "name": "PlaceERC721TokenSellingOffer",
      "outputs": [],
      "stateMutability": "nonpayable",
      "type": "function"
    },
    {
      "inputs": [
        {
          "components": [
            {
              "internalType": "uint256",
              "name": "exchangeId",
              "type": "uint256"
            },
            {
              "internalType": "uint256",
              "name": "offerId",
              "type": "uint256"
            }
          ],
          "internalType": "struct ERC721TokenExchange.CancelOfferRequest",
          "name": "input",
          "type": "tuple"
        },
        {
          "internalType": "address",
          "name": "caller",
          "type": "address"
        }
      ],
      "name": "CancelERC721TokenBuyingOffer",
      "outputs": [],
      "stateMutability": "nonpayable",
      "type": "function"
    },
    {
      "inputs": [
        {
          "components": [
            {
              "internalType": "uint256",
              "name": "exchangeId",
              "type": "uint256"
            },
            {
              "internalType": "uint256",
              "name": "offerId",
              "type": "uint256"
            }
          ],
          "internalType": "struct ERC721TokenExchange.CancelOfferRequest",
          "name": "input",
          "type": "tuple"
        },
        {
          "internalType": "address",
          "name": "caller",
          "type": "address"
        }
      ],
      "name": "CancelERC721TokenSellingOffer",
      "outputs": [],
      "stateMutability": "nonpayable",
      "type": "function"
    },
    {
      "inputs": [
        {
          "components": [
            {
              "internalType": "uint256",
              "name": "exchangeId",
              "type": "uint256"
            },
            {
              "internalType": "uint256",
              "name": "offerId",
              "type": "uint256"
            }
          ],
          "internalType": "struct ERC721TokenExchange.OfferRequest",
          "name": "input",
          "type": "tuple"
        },
        {
          "internalType": "address",
          "name": "caller",
          "type": "address"
        }
      ],
      "name": "BuyERC721TokenFromOffer",
      "outputs": [],
      "stateMutability": "nonpayable",
      "type": "function"
    },
    {
      "inputs": [
        {
          "components": [
            {
              "internalType": "uint256",
              "name": "exchangeId",
              "type": "uint256"
            },
            {
              "internalType": "uint256",
              "name": "offerId",
              "type": "uint256"
            }
          ],
          "internalType": "struct ERC721TokenExchange.OfferRequest",
          "name": "input",
          "type": "tuple"
        },
        {
          "internalType": "address",
          "name": "caller",
          "type": "address"
        }
      ],
      "name": "SellERC721TokenFromOffer",
      "outputs": [],
      "stateMutability": "nonpayable",
      "type": "function"
    },
    {
      "inputs": [
        {
          "internalType": "address",
          "name": "",
          "type": "address"
        },
        {
          "internalType": "address",
          "name": "",
          "type": "address"
        },
        {
          "internalType": "uint256",
          "name": "",
          "type": "uint256"
        },
        {
          "internalType": "bytes",
          "name": "",
          "type": "bytes"
        }
      ],
      "name": "onERC721Received",
      "outputs": [
        {
          "internalType": "bytes4",
          "name": "",
          "type": "bytes4"
        }
      ],
      "stateMutability": "nonpayable",
      "type": "function"
    }
  ],
  "bytecode": "0x608060405234801561001057600080fd5b5060008080556001556134b1806100286000396000f3fe608060405234801561001057600080fd5b5060043610610107576000357c0100000000000000000000000000000000000000000000000000000000900480636a9113cd116100a9578063a33ea33e11610083578063a33ea33e1461022f578063d432c33c14610242578063e731eccc14610262578063f807a4ea1461027557600080fd5b80636a9113cd14610201578063847e9b5d1461021457806386a13eed1461021c57600080fd5b806355e45695116100e557806355e45695146101a757806356133d4c146101c757806358995882146101d95780636078a336146101ee57600080fd5b806305c5fc5f1461010c578063150b7a021461012a5780635391abbc14610192575b600080fd5b610114610288565b6040516101219190613278565b60405180910390f35b610161610138366004612ebd565b7f150b7a0200000000000000000000000000000000000000000000000000000000949350505050565b6040517fffffffff000000000000000000000000000000000000000000000000000000009091168152602001610121565b61019a61043d565b6040516101219190613218565b6101ba6101b53660046130c6565b610602565b60405161012191906132de565b6000545b604051908152602001610121565b6101ec6101e7366004613057565b6106fc565b005b6101ec6101fc366004612f5a565b610bac565b6101ec61020f366004613057565b6111fa565b6001546101cb565b6101ec61022a366004612f91565b6115a3565b6101ec61023d366004612f5a565b611b45565b6102556102503660046130c6565b61207b565b60405161012191906132cb565b6101ec610270366004612f5a565b61218d565b6101ec610283366004612f5a565b612686565b6060600060015467ffffffffffffffff8111156102b85760e060020a634e487b7102600052604160045260246000fd5b6040519080825280602002602001820160405280156102f157816020015b6102de612cb1565b8152602001906001900390816102d65790505b50905060015b600154811161043757600360008281526020019081526020016000206040518060c0016040529081600082015481526020016001820154815260200160028201805461034290613361565b80601f016020809104026020016040519081016040528092919081815260200182805461036e90613361565b80156103bb5780601f10610390576101008083540402835291602001916103bb565b820191906000526020600020905b81548152906001019060200180831161039e57829003601f168201915b50505091835250506003820154600160a060020a0316602082015260048201546040820152600590910154606090910152826103f860018461331a565b815181106104195760e060020a634e487b7102600052603260045260246000fd5b6020026020010181905250808061042f90613399565b9150506102f7565b50919050565b60606000805467ffffffffffffffff81111561046c5760e060020a634e487b7102600052604160045260246000fd5b6040519080825280602002602001820160405280156104c657816020015b6040805160a0810182526060808252600060208084018290529383018190529082018190526080820152825260001990920191018161048a5790505b50905060015b60005481116104375760008181526002602052604090819020815160a081019092528054829082906104fd90613361565b80601f016020809104026020016040519081016040528092919081815260200182805461052990613361565b80156105765780601f1061054b57610100808354040283529160200191610576565b820191906000526020600020905b81548152906001019060200180831161055957829003601f168201915b5050509183525050600182810154600160a060020a039081166020840152600284015481166040840152600384015416606083015260049092015460809091015283906105c3908461331a565b815181106105e45760e060020a634e487b7102600052603260045260246000fd5b602002602001018190525080806105fa90613399565b9150506104cc565b61060a612cb1565b600360008381526020019081526020016000206040518060c0016040529081600082015481526020016001820154815260200160028201805461064c90613361565b80601f016020809104026020016040519081016040528092919081815260200182805461067890613361565b80156106c55780601f1061069a576101008083540402835291602001916106c5565b820191906000526020600020905b8154815290600101906020018083116106a857829003601f168201915b50505091835250506003820154600160a060020a031660208201526004820154604082015260059091015460609091015292915050565b81516000908152600260208181526040928390209091015490840151915160e160020a6331a9108f028152600160a060020a0391821692918416918391636352211e9161074f9160040190815260200190565b60206040518083038186803b15801561076757600080fd5b505afa15801561077b573d6000803e3d6000fd5b505050506040513d601f19601f8201168201806040525081019061079f9190612e9a565b600160a060020a0316146108495760405160e560020a62461bcd02815260206004820152604660248201527f546f6b656e45786368616e67652e506c616365455243373231546f6b656e536560448201527f6c6c696e674f666665723a20596f75206e65656420746f206f776e207468697360648201527f20746f6b656e0000000000000000000000000000000000000000000000000000608482015260a4015b60405180910390fd5b60008360400151116108ec5760405160e560020a62461bcd02815260206004820152605160248201527f546f6b656e45786368616e67652e506c616365455243373231546f6b656e536560448201527f6c6c696e674f666665723a2070726963652063616e2774206265206c6f77657260648201527f206f7220657175616c20746f207a65726f000000000000000000000000000000608482015260a401610840565b6040517fe985e9c5000000000000000000000000000000000000000000000000000000008152600160a060020a03838116600483015230602483015282169063e985e9c59060440160206040518083038186803b15801561094c57600080fd5b505afa158015610960573d6000803e3d6000fd5b505050506040513d601f19601f820116820180604052508101906109849190612f3a565b610a1f5760405160e560020a62461bcd02815260206004820152604260248201527f546f6b656e45786368616e67652e506c616365455243373231546f6b656e536560448201527f6c6c696e674f666665723a204f776e657220686173206e6f7420617070726f7660648201527f6564000000000000000000000000000000000000000000000000000000000000608482015260a401610840565b602083015160405160e160020a6321421707028152600160a060020a038316916342842e0e91610a569186913091906004016131f4565b600060405180830381600087803b158015610a7057600080fd5b505af1158015610a84573d6000803e3d6000fd5b50505050610a90612cb1565b835181526040805180820182526004815260e260020a6314d153130260208083019190915282840191909152600160a060020a0385166060840152850151608083015284015160a082015260018054906000610aeb83613399565b909155505060018054602080840182815260009283526003825260409283902085518155905193810193909355908301518051849392610b32926002850192910190612cf0565b506060820151600382018054600160a060020a031916600160a060020a039092169190911790556080820151600482015560a0909101516005909101556001546040519081527f5426515e73390d9c479108b55a0e414aa11bf016da6ea69bcf4e94d33e904628906020015b60405180910390a150505050565b600060036000846020015181526020019081526020016000206040518060c00160405290816000820154815260200160018201548152602001600282018054610bf490613361565b80601f0160208091040260200160405190810160405280929190818152602001828054610c2090613361565b8015610c6d5780601f10610c4257610100808354040283529160200191610c6d565b820191906000526020600020905b815481529060010190602001808311610c5057829003601f168201915b5050509183525050600382810154600160a060020a0390811660208085019190915260048501546040808601919091526005909501546060909401939093528751600090815260029384905284812090920154885183529390912090910154865184519495509282169391169114610d645760405160e560020a62461bcd028152602060048201526045602482015260008051602061345c83398151915260448201527f6d4f666665723a2073686f756c64206265207468652073616d6520657863686160648201527f6e67654964000000000000000000000000000000000000000000000000000000608482015260a401610840565b6040517f42555900000000000000000000000000000000000000000000000000000000006020820152602301604051602081830303815290604052805190602001208360400151604051602001610dbb91906131d8565b6040516020818303038152906040528051906020012014610e5b5760405160e560020a62461bcd028152602060048201526042602482015260008051602061345c83398151915260448201527f6d4f666665723a2073686f756c642062652074686520627579696e67206f666660648201527f6572000000000000000000000000000000000000000000000000000000000000608482015260a401610840565b60a083015160405160e060020a6370a08231028152306004820152600160a060020a038416906370a082319060240160206040518083038186803b158015610ea257600080fd5b505afa158015610eb6573d6000803e3d6000fd5b505050506040513d601f19601f82011682018060405250810190610eda91906130de565b1015610f655760405160e560020a62461bcd028152602060048201526045602482015260008051602061345c83398151915260448201527f6d4f666665723a20796f7520646f6e2774206861766520656e6f75676820626160648201527f6c616e6365000000000000000000000000000000000000000000000000000000608482015260a401610840565b608083015160405160e160020a6331a9108f028152600160a060020a038087169290841691636352211e91610fa09160040190815260200190565b60206040518083038186803b158015610fb857600080fd5b505afa158015610fcc573d6000803e3d6000fd5b505050506040513d601f19601f82011682018060405250810190610ff09190612e9a565b600160a060020a03161461105d5760405160e560020a62461bcd02815260206004820152603e602482015260008051602061345c83398151915260448201527f6d4f666665723a206e65656420746f206f776e207468697320746f6b656e00006064820152608401610840565b60a08301516040517fa9059cbb000000000000000000000000000000000000000000000000000000008152600160a060020a03868116600483015260248201929092529083169063a9059cbb90604401602060405180830381600087803b1580156110c757600080fd5b505af11580156110db573d6000803e3d6000fd5b505050506040513d601f19601f820116820180604052508101906110ff9190612f3a565b506060830151608084015160405160e160020a6321421707028152600160a060020a038416926342842e0e9261113b92899291906004016131f4565b600060405180830381600087803b15801561115557600080fd5b505af1158015611169573d6000803e3d6000fd5b50505060208087015160009081526003909152604081208181556001810182905591506111996002830182612d74565b50600381018054600160a060020a03191690556000600482018190556005909101556020858101516040519081527f5a0798d73cec07c36f780528930832a7bd33b05ba0aa33d276cc1d549eb091aa91015b60405180910390a15050505050565b8151600090815260026020526040908190206003015481840151915160e060020a6370a08231028152600160a060020a038481166004830152909116919082906370a082319060240160206040518083038186803b15801561125b57600080fd5b505afa15801561126f573d6000803e3d6000fd5b505050506040513d601f19601f8201168201806040525081019061129391906130de565b10156113305760405160e560020a62461bcd02815260206004820152604860248201527f546f6b656e45786368616e67652e506c616365455243373231546f6b656e427560448201527f79696e674f666665723a20796f7520646f6e2774206861766520656e6f75676860648201527f2062616c616e6365000000000000000000000000000000000000000000000000608482015260a401610840565b60008360400151116113d35760405160e560020a62461bcd02815260206004820152605060248201527f546f6b656e45786368616e67652e506c616365455243373231546f6b656e427560448201527f79696e674f666665723a2070726963652063616e2774206265206c6f7765722060648201527f6f7220657175616c20746f207a65726f00000000000000000000000000000000608482015260a401610840565b60408084015190517f23b872dd000000000000000000000000000000000000000000000000000000008152600160a060020a038316916323b872dd916114209186913091906004016131f4565b602060405180830381600087803b15801561143a57600080fd5b505af115801561144e573d6000803e3d6000fd5b505050506040513d601f19601f820116820180604052508101906114729190612f3a565b5061147b612cb1565b83518152604080518082018252600381527f425559000000000000000000000000000000000000000000000000000000000060208083019190915282840191909152600160a060020a0385166060840152850151608083015284015160a0820152600180549060006114ec83613399565b909155505060018054602080840182815260009283526003825260409283902085518155905193810193909355908301518051849392611533926002850192910190612cf0565b506060820151600382018054600160a060020a031916600160a060020a039092169190911790556080820151600482015560a0909101516005909101556001546040519081527fe6c290589f766cce83b8752311fa3c81cdea3c71e743b1e9b17e96632fdfa07d90602001610b9e565b6020820151606083015160405160e160020a6331a9108f028152600160a060020a038085169290841691636352211e916115e39160040190815260200190565b60206040518083038186803b1580156115fb57600080fd5b505afa15801561160f573d6000803e3d6000fd5b505050506040513d601f19601f820116820180604052508101906116339190612e9a565b600160a060020a0316146116d85760405160e560020a62461bcd02815260206004820152604360248201527f546f6b656e45786368616e67652e437265617465455243373231546f6b656e4560448201527f786368616e67653a20596f75206e65656420746f206f776e207468697320746f60648201527f6b656e0000000000000000000000000000000000000000000000000000000000608482015260a401610840565b600083608001511161177b5760405160e560020a62461bcd02815260206004820152604e60248201527f546f6b656e45786368616e67652e437265617465455243373231546f6b656e4560448201527f786368616e67653a2070726963652063616e2774206265206c6f776572206f7260648201527f20657175616c20746f207a65726f000000000000000000000000000000000000608482015260a401610840565b6040517fe985e9c5000000000000000000000000000000000000000000000000000000008152600160a060020a03838116600483015230602483015282169063e985e9c59060440160206040518083038186803b1580156117db57600080fd5b505afa1580156117ef573d6000803e3d6000fd5b505050506040513d601f19601f820116820180604052508101906118139190612f3a565b6118885760405160e560020a62461bcd02815260206004820152603f60248201527f546f6b656e45786368616e67652e437265617465455243373231546f6b656e4560448201527f786368616e67653a204f776e657220686173206e6f7420617070726f766564006064820152608401610840565b60608301516040517fb88d4fde000000000000000000000000000000000000000000000000000000008152600160a060020a038481166004830152306024830152604482019290925260806064820152600060848201529082169063b88d4fde9060a401600060405180830381600087803b15801561190657600080fd5b505af115801561191a573d6000803e3d6000fd5b5050505061194f6040805160a08101825260608082526000602083018190529282018390528101829052608081019190915290565b83518152600160a060020a0380841660208084019190915285015181166040808401919091528501511660608201526080808501519082015260008054908061199783613399565b90915550506000805481526002602090815260409091208251805184936119c2928492910190612cf0565b506020820151600182018054600160a060020a03928316600160a060020a03199182161790915560408401516002840180549184169183169190911790556060840151600384018054919093169116179055608090910151600490910155611a28612cb1565b6000805482526040805180820182526004815260e260020a6314d1531302602082015290830152600160a060020a03851660608084019190915286015160808084019190915283015160a08301526001805491611a8483613399565b909155505060018054602080840182815260009283526003825260409283902085518155905193810193909355908301518051849392611acb926002850192910190612cf0565b506060820151600382018054600160a060020a031916600160a060020a039092169190911790556080820151600482015560a0909101516005909101556000546001546040805192835260208301919091527ff633dea9c2c2a19fd28f6c8cfadf2d0b637627ed8a380ddb4733259c8eedaad991016111eb565b600060036000846020015181526020019081526020016000206040518060c00160405290816000820154815260200160018201548152602001600282018054611b8d90613361565b80601f0160208091040260200160405190810160405280929190818152602001828054611bb990613361565b8015611c065780601f10611bdb57610100808354040283529160200191611c06565b820191906000526020600020905b815481529060010190602001808311611be957829003601f168201915b5050509183525050600382810154600160a060020a03908116602080850191909152600485015460408086019190915260059095015460609485015288516000908152600290915293909320015490830151929350811691811690841614611cc75760405160e560020a62461bcd02815260206004820152603b60248201526000805160206133fc83398151915260448201527f7579696e674f666665723a2073686f756c64206265206f776e657200000000006064820152608401610840565b8351825114611d555760405160e560020a62461bcd02815260206004820152604960248201526000805160206133fc83398151915260448201527f7579696e674f666665723a2073686f756c64206265207468652073616d65206560648201527f786368616e676549640000000000000000000000000000000000000000000000608482015260a401610840565b6040517f42555900000000000000000000000000000000000000000000000000000000006020820152602301604051602081830303815290604052805190602001208260400151604051602001611dac91906131d8565b6040516020818303038152906040528051906020012014611e4c5760405160e560020a62461bcd02815260206004820152604660248201526000805160206133fc83398151915260448201527f7579696e674f666665723a2073686f756c642062652074686520627579696e6760648201527f206f666665720000000000000000000000000000000000000000000000000000608482015260a401610840565b60a082015160405160e060020a6370a08231028152306004820152600160a060020a038316906370a082319060240160206040518083038186803b158015611e9357600080fd5b505afa158015611ea7573d6000803e3d6000fd5b505050506040513d601f19601f82011682018060405250810190611ecb91906130de565b1015611f565760405160e560020a62461bcd02815260206004820152604960248201526000805160206133fc83398151915260448201527f7579696e674f666665723a20796f7520646f6e2774206861766520656e6f756760648201527f682062616c616e63650000000000000000000000000000000000000000000000608482015260a401610840565b60a08201516040517fa9059cbb000000000000000000000000000000000000000000000000000000008152600160a060020a03858116600483015260248201929092529082169063a9059cbb90604401602060405180830381600087803b158015611fc057600080fd5b505af1158015611fd4573d6000803e3d6000fd5b505050506040513d601f19601f82011682018060405250810190611ff89190612f3a565b50602080850151600090815260039091526040812081815560018101829055906120256002830182612d74565b50600381018054600160a060020a03191690556000600482018190556005909101556020848101516040519081527f1569186cf7c0c983888beaf11391fd54500aefed1208eb5a1b3b07d01d1bd00e9101610b9e565b6040805160a08101825260608082526000602083018190529282018390528101829052608081019190915260008281526002602052604090819020815160a081019092528054829082906120ce90613361565b80601f01602080910402602001604051908101604052809291908181526020018280546120fa90613361565b80156121475780601f1061211c57610100808354040283529160200191612147565b820191906000526020600020905b81548152906001019060200180831161212a57829003601f168201915b50505091835250506001820154600160a060020a039081166020830152600283015481166040830152600383015416606082015260049091015460809091015292915050565b600060036000846020015181526020019081526020016000206040518060c001604052908160008201548152602001600182015481526020016002820180546121d590613361565b80601f016020809104026020016040519081016040528092919081815260200182805461220190613361565b801561224e5780601f106122235761010080835404028352916020019161224e565b820191906000526020600020905b81548152906001019060200180831161223157829003601f168201915b50505091835250506003820154600160a060020a039081166020808401919091526004840154604080850191909152600590940154606093840152875160009081526002918290529390932090920154908301519293508116918116908416146123115760405160e560020a62461bcd02815260206004820152603c602482015260008051602061343c83398151915260448201527f656c6c696e674f666665723a2073686f756c64206265206f776e6572000000006064820152608401610840565b835182511461239f5760405160e560020a62461bcd02815260206004820152604a602482015260008051602061343c83398151915260448201527f656c6c696e674f666665723a2073686f756c64206265207468652073616d652060648201527f65786368616e6765496400000000000000000000000000000000000000000000608482015260a401610840565b60405160e260020a6314d153130260208201526024016040516020818303038152906040528051906020012082604001516040516020016123e091906131d8565b60405160208183030381529060405280519060200120146124805760405160e560020a62461bcd028152602060048201526048602482015260008051602061343c83398151915260448201527f656c6c696e674f666665723a2073686f756c64206265207468652073656c6c6960648201527f6e67206f66666572000000000000000000000000000000000000000000000000608482015260a401610840565b608082015160405160e160020a6331a9108f0281523091600160a060020a03841691636352211e916124b89160040190815260200190565b60206040518083038186803b1580156124d057600080fd5b505afa1580156124e4573d6000803e3d6000fd5b505050506040513d601f19601f820116820180604052508101906125089190612e9a565b600160a060020a03161461259b5760405160e560020a62461bcd028152602060048201526043602482015260008051602061343c83398151915260448201527f656c6c696e674f666665723a206e65656420746f206f776e207468697320746f60648201527f6b656e0000000000000000000000000000000000000000000000000000000000608482015260a401610840565b608082015160405160e160020a6321421707028152600160a060020a038316916342842e0e916125d29130918891906004016131f4565b600060405180830381600087803b1580156125ec57600080fd5b505af1158015612600573d6000803e3d6000fd5b50505060208086015160009081526003909152604081208181556001810182905591506126306002830182612d74565b50600381018054600160a060020a03191690556000600482018190556005909101556020848101516040519081527f5fe3fe5f408517b756ab03ab1a67d7f795e34dd4cfae350951fd85fdecaff9389101610b9e565b600060036000846020015181526020019081526020016000206040518060c001604052908160008201548152602001600182015481526020016002820180546126ce90613361565b80601f01602080910402602001604051908101604052809291908181526020018280546126fa90613361565b80156127475780601f1061271c57610100808354040283529160200191612747565b820191906000526020600020905b81548152906001019060200180831161272a57829003601f168201915b5050509183525050600382810154600160a060020a039081166020808501919091526004850154604080860191909152600590950154606090940193909352875160009081526002938490528481209092015488518352939091209091015486518451949550928216939116911461283f5760405160e560020a62461bcd0281526020600482015260446024820181905260008051602061341c833981519152908201527f4f666665723a2073686f756c64206265207468652073616d652065786368616e60648201527f6765496400000000000000000000000000000000000000000000000000000000608482015260a401610840565b60405160e260020a6314d1531302602082015260240160405160208183030381529060405280519060200120836040015160405160200161288091906131d8565b60405160208183030381529060405280519060200120146129205760405160e560020a62461bcd028152602060048201526042602482015260008051602061341c83398151915260448201527f4f666665723a2073686f756c64206265207468652073656c6c696e67206f666660648201527f6572000000000000000000000000000000000000000000000000000000000000608482015260a401610840565b60a083015160405160e060020a6370a08231028152600160a060020a0386811660048301528416906370a082319060240160206040518083038186803b15801561296957600080fd5b505afa15801561297d573d6000803e3d6000fd5b505050506040513d601f19601f820116820180604052508101906129a191906130de565b1015612a2d5760405160e560020a62461bcd0281526020600482015260446024820181905260008051602061341c833981519152908201527f4f666665723a20796f7520646f6e2774206861766520656e6f7567682062616c60648201527f616e636500000000000000000000000000000000000000000000000000000000608482015260a401610840565b608083015160405160e160020a6331a9108f0281523091600160a060020a03841691636352211e91612a659160040190815260200190565b60206040518083038186803b158015612a7d57600080fd5b505afa158015612a91573d6000803e3d6000fd5b505050506040513d601f19601f82011682018060405250810190612ab59190612e9a565b600160a060020a031614612b225760405160e560020a62461bcd02815260206004820152603d602482015260008051602061341c83398151915260448201527f4f666665723a206e65656420746f206f776e207468697320746f6b656e0000006064820152608401610840565b606083015160a08401516040517f23b872dd000000000000000000000000000000000000000000000000000000008152600160a060020a038516926323b872dd92612b7392899291906004016131f4565b602060405180830381600087803b158015612b8d57600080fd5b505af1158015612ba1573d6000803e3d6000fd5b505050506040513d601f19601f82011682018060405250810190612bc59190612f3a565b50608083015160405160e160020a6321421707028152600160a060020a038316916342842e0e91612bfd9130918991906004016131f4565b600060405180830381600087803b158015612c1757600080fd5b505af1158015612c2b573d6000803e3d6000fd5b5050506020808701516000908152600390915260408120818155600181018290559150612c5b6002830182612d74565b50600381018054600160a060020a03191690556000600482018190556005909101556020858101516040519081527f739a4cb69bedf9009044b882264d535d88e3f208b968adb3336270761688c27891016111eb565b6040518060c001604052806000815260200160008152602001606081526020016000600160a060020a0316815260200160008152602001600081525090565b828054612cfc90613361565b90600052602060002090601f016020900481019282612d1e5760008555612d64565b82601f10612d3757805160ff1916838001178555612d64565b82800160010185558215612d64579182015b82811115612d64578251825591602001919060010190612d49565b50612d70929150612db1565b5090565b508054612d8090613361565b6000825580601f10612d90575050565b601f016020900490600052602060002090810190612dae9190612db1565b50565b5b80821115612d705760008155600101612db2565b600067ffffffffffffffff80841115612de157612de16133cd565b604051601f8501601f19908116603f01168101908282118183101715612e0957612e096133cd565b81604052809350858152868686011115612e2257600080fd5b858560208301376000602087830101525050509392505050565b8035612e47816133e6565b919050565b600060408284031215612e5d578081fd5b6040516040810181811067ffffffffffffffff82111715612e8057612e806133cd565b604052823581526020928301359281019290925250919050565b600060208284031215612eab578081fd5b8151612eb6816133e6565b9392505050565b60008060008060808587031215612ed2578283fd5b8435612edd816133e6565b93506020850135612eed816133e6565b925060408501359150606085013567ffffffffffffffff811115612f0f578182fd5b8501601f81018713612f1f578182fd5b612f2e87823560208401612dc6565b91505092959194509250565b600060208284031215612f4b578081fd5b81518015158114612eb6578182fd5b60008060608385031215612f6c578182fd5b612f768484612e4c565b91506040830135612f86816133e6565b809150509250929050565b60008060408385031215612fa3578182fd5b823567ffffffffffffffff80821115612fba578384fd5b9084019060a08287031215612fcd578384fd5b612fd56132f1565b823582811115612fe3578586fd5b83019150601f82018713612ff5578485fd5b61300487833560208501612dc6565b815261301260208401612e3c565b602082015261302360408401612e3c565b6040820152606083013560608201526080830135608082015280945050505061304e60208401612e3c565b90509250929050565b600080828403608081121561306a578283fd5b6060811215613077578283fd5b506040516060810181811067ffffffffffffffff8211171561309b5761309b6133cd565b60409081528435825260208086013590830152848101359082015291506060830135612f86816133e6565b6000602082840312156130d7578081fd5b5035919050565b6000602082840312156130ef578081fd5b5051919050565b6000815180845261310e816020860160208601613331565b601f01601f19169290920160200192915050565b6000815160a0845261313760a08501826130f6565b90506020830151600160a060020a0380821660208701528060408601511660408701528060608601511660608701525050608083015160808501528091505092915050565b80518252602081015160208301526000604082015160c060408501526131a560c08501826130f6565b9050600160a060020a0360608401511660608501526080830151608085015260a083015160a08501528091505092915050565b600082516131ea818460208701613331565b9190910192915050565b600160a060020a039384168152919092166020820152604081019190915260600190565b6000602080830181845280855180835260408601915060408482028701019250838701855b8281101561326b57603f19888603018452613259858351613122565b9450928501929085019060010161323d565b5092979650505050505050565b6000602080830181845280855180835260408601915060408482028701019250838701855b8281101561326b57603f198886030184526132b985835161317c565b9450928501929085019060010161329d565b602081526000612eb66020830184613122565b602081526000612eb6602083018461317c565b60405160a0810167ffffffffffffffff81118282101715613314576133146133cd565b60405290565b60008282101561332c5761332c6133b4565b500390565b60005b8381101561334c578181015183820152602001613334565b8381111561335b576000848401525b50505050565b60028104600182168061337557607f821691505b602082108114156104375760e060020a634e487b7102600052602260045260246000fd5b60006000198214156133ad576133ad6133b4565b5060010190565b60e060020a634e487b7102600052601160045260246000fd5b60e060020a634e487b7102600052604160045260246000fd5b600160a060020a0381168114612dae57600080fdfe546f6b656e45786368616e67652e43616e63656c455243373231546f6b656e42546f6b656e45786368616e67652e427579455243373231546f6b656e46726f6d546f6b656e45786368616e67652e43616e63656c455243373231546f6b656e53546f6b656e45786368616e67652e53656c6c455243373231546f6b656e46726fa26469706673582212202b285fe39d803d022cda12626696918d70803d1fb8159495cd7138dad5310e0464736f6c63430008040033",
  "immutableReferences": {},
  "source": "// SPDX-License-Identifier: UNLICENSED\r\n\r\npragma solidity ^0.8.4;\r\nimport \"@openzeppelin/contracts/token/ERC20/IERC20.sol\";\r\nimport \"@openzeppelin/contracts/token/ERC721/IERC721.sol\";\r\nimport \"@openzeppelin/contracts/token/ERC721/IERC721Receiver.sol\";\r\n\r\n/**\r\n * @dev Exchange Contract for ERC721 Token\r\n */\r\ncontract ERC721TokenExchange is IERC721Receiver {\r\n    /**\r\n    * @dev Exchange struct for ERC721 Token\r\n    */\r\n    struct ERC721Exchange {\r\n        string exchangeName;\r\n        address creatorAddress;\r\n        address exchangeTokenAddress;\r\n        address offerTokenAddress;\r\n        uint price;\r\n    }\r\n\r\n    /**\r\n    * @dev Offer struct for ERC721 Token\r\n    */\r\n    struct ERC721Offer {\r\n        uint exchangeId;\r\n        uint offerId;\r\n        string offerType;\r\n        address creatorAddress;\r\n        uint tokenId;\r\n        uint price;\r\n    }\r\n\r\n    /**\r\n    * @dev Request struct for creating ERC721TokenExchange\r\n    */\r\n    struct CreateERC721TokenExchangeRequest {\r\n        string exchangeName;\r\n        address exchangeTokenAddress;\r\n        address offerTokenAddress;\r\n        uint tokenId;\r\n        uint price;\r\n    }\r\n\r\n    /**\r\n    * @dev Request struct for Place ERC721Token Offer\r\n    */\r\n    struct PlaceERC721TokenOfferRequest {\r\n        uint exchangeId;\r\n        uint tokenId;\r\n        uint price;\r\n    }\r\n\r\n    /**\r\n    * @dev Request struct for cancel Exchange\r\n    */\r\n    struct CancelOfferRequest {\r\n        uint exchangeId;\r\n        uint offerId;\r\n    }\r\n\r\n    /**\r\n    * @dev Request struct for deal Exchange\r\n    */\r\n    struct OfferRequest {\r\n        uint exchangeId;\r\n        uint offerId;\r\n    }\r\n\r\n    /**\r\n    * @dev count variables for ERC721Token exchange and offer mapping\r\n    */\r\n    uint internal _erc721ExchangeCount;\r\n    uint internal _erc721OfferCount;\r\n\r\n    /**\r\n    * @dev variables for storing ERC721Token Exchange and Offer\r\n    */\r\n    mapping(uint => ERC721Exchange) internal _erc721Exchanges;\r\n    mapping(uint => ERC721Offer) internal _erc721Offers;\r\n\r\n    // ----- EVENTS ----- //\r\n    event ERC721TokenExchangeCreated(uint exchangeId, uint initialOfferId);\r\n    event ERC721TokenBuyingOfferPlaced(uint offerId);\r\n    event ERC721TokenSellingOfferPlaced(uint offerId);\r\n    event ERC721TokenBuyingOfferCanceled(uint offerId);\r\n    event ERC721TokenSellingOfferCanceled(uint offerId);\r\n    event ERC721TokenFromOfferBought(uint offerId);\r\n    event ERC721TokenFromOfferSold(uint offerId);\r\n\r\n    /**\r\n    * @dev Constructor Function\r\n    */\r\n    constructor() {\r\n        _erc721ExchangeCount = 0;\r\n        _erc721OfferCount = 0;\r\n    }\r\n\r\n    // ----- VIEWS ----- //\r\n    function getErc721ExchangeCount() external view returns(uint){\r\n        return _erc721ExchangeCount;\r\n    }\r\n\r\n    function getErc721OfferCount() external view returns(uint){\r\n        return _erc721OfferCount;\r\n    }\r\n\r\n    function getErc721ExchangeAll() external view returns(ERC721Exchange[] memory){\r\n        ERC721Exchange[] memory exchanges = new ERC721Exchange[](_erc721ExchangeCount);\r\n        for(uint i = 1; i <= _erc721ExchangeCount; i++)\r\n            exchanges[i-1] = _erc721Exchanges[i];\r\n        return exchanges;\r\n    }\r\n\r\n    function getErc721OfferAll() external view returns(ERC721Offer[] memory){\r\n        ERC721Offer[] memory offers = new ERC721Offer[](_erc721OfferCount);\r\n        for(uint i = 1; i <= _erc721OfferCount; i++) {\r\n            offers[i-1] = _erc721Offers[i];\r\n        }\r\n        return offers;\r\n    }\r\n\r\n    function getErc721ExchangeById(uint _exchangeId) external view returns(ERC721Exchange memory){\r\n        return _erc721Exchanges[_exchangeId];\r\n    }\r\n\r\n    function getErc721OfferById(uint _offerId) external view returns(ERC721Offer memory){\r\n        return _erc721Offers[_offerId];\r\n    }\r\n\r\n    // ----- PUBLIC METHODS ----- //\r\n    /**\r\n    * @dev Owner of token can create Exchange of ERC721\r\n    * @dev exchangeTokenAddress address of exchangeToken(ERC721) \r\n    * @dev offerTokenAddress address of exchangeToken(ERC721) \r\n    * @dev tokenId ERC721 token id of Exchange\r\n    * @dev price token price of Exchange\r\n    */\r\n    function CreateERC721TokenExchange(CreateERC721TokenExchangeRequest memory input, address caller) external {\r\n        IERC721 token = IERC721(input.exchangeTokenAddress);\r\n        require(token.ownerOf(input.tokenId) == caller, \"TokenExchange.CreateERC721TokenExchange: You need to own this token\");\r\n        require(input.price > 0, \"TokenExchange.CreateERC721TokenExchange: price can't be lower or equal to zero\");\r\n        require(\r\n            token.isApprovedForAll(caller, address(this)),\r\n            \"TokenExchange.CreateERC721TokenExchange: Owner has not approved\"\r\n        );\r\n        \r\n        token.safeTransferFrom(caller, address(this), input.tokenId, \"\");\r\n\r\n        /**\r\n        * @dev store exchange and initial offer\r\n        */\r\n        ERC721Exchange memory exchange;\r\n        exchange.exchangeName = input.exchangeName;\r\n        exchange.creatorAddress = caller;\r\n        exchange.exchangeTokenAddress = input.exchangeTokenAddress;\r\n        exchange.offerTokenAddress = input.offerTokenAddress;\r\n        exchange.price = input.price; \r\n\r\n        _erc721ExchangeCount++;\r\n        _erc721Exchanges[_erc721ExchangeCount] = exchange;\r\n\r\n        ERC721Offer memory offer;\r\n        offer.exchangeId = _erc721ExchangeCount;\r\n        offer.offerType = \"SELL\";\r\n        offer.creatorAddress = caller;\r\n        offer.tokenId = input.tokenId;\r\n        offer.price = exchange.price;\r\n\r\n        _erc721OfferCount++;\r\n        offer.offerId = _erc721OfferCount;\r\n        _erc721Offers[_erc721OfferCount] = offer;\r\n\r\n        emit ERC721TokenExchangeCreated(_erc721ExchangeCount, _erc721OfferCount);\r\n    }\r\n\r\n    /**\r\n    * @dev someone can create buying offer for ERC721 token exchange\r\n    * @dev exchangeTokenId id of exchange \r\n    * @dev tokenId ERC721 token id of Exchange\r\n    * @dev price token price of Exchange\r\n    */\r\n    function PlaceERC721TokenBuyingOffer(PlaceERC721TokenOfferRequest memory input, address caller) external {\r\n        IERC20 token = IERC20(_erc721Exchanges[input.exchangeId].offerTokenAddress);\r\n        require(token.balanceOf(caller) >= input.price, \"TokenExchange.PlaceERC721TokenBuyingOffer: you don't have enough balance\");\r\n        require(input.price > 0, \"TokenExchange.PlaceERC721TokenBuyingOffer: price can't be lower or equal to zero\");\r\n\r\n        token.transferFrom(caller, address(this), input.price);\r\n\r\n        /**\r\n        * @dev store buying offer\r\n        */\r\n        ERC721Offer memory offer;\r\n        offer.exchangeId = input.exchangeId;\r\n        offer.offerType = \"BUY\";\r\n        offer.creatorAddress = caller;\r\n        offer.tokenId = input.tokenId;\r\n        offer.price = input.price;\r\n\r\n        _erc721OfferCount++;\r\n        offer.offerId = _erc721OfferCount;\r\n        _erc721Offers[_erc721OfferCount] = offer;\r\n\r\n        emit ERC721TokenBuyingOfferPlaced(_erc721OfferCount);\r\n    }\r\n\r\n    /**\r\n    * @dev owner of token can create selling offer for ERC721 token exchange\r\n    * @dev exchangeTokenId id of exchange \r\n    * @dev tokenId ERC721 token id of Exchange\r\n    * @dev price token price of Exchange\r\n    */\r\n    function PlaceERC721TokenSellingOffer(PlaceERC721TokenOfferRequest memory input, address caller) external {\r\n        IERC721 token = IERC721(_erc721Exchanges[input.exchangeId].exchangeTokenAddress);\r\n        require(token.ownerOf(input.tokenId) == caller, \"TokenExchange.PlaceERC721TokenSellingOffer: You need to own this token\");\r\n        require(input.price > 0, \"TokenExchange.PlaceERC721TokenSellingOffer: price can't be lower or equal to zero\");\r\n        require(\r\n            token.isApprovedForAll(caller, address(this)),\r\n            \"TokenExchange.PlaceERC721TokenSellingOffer: Owner has not approved\"\r\n        );\r\n\r\n        token.safeTransferFrom(caller, address(this), input.tokenId);\r\n\r\n        /**\r\n        * @dev store selling offer\r\n        */\r\n        ERC721Offer memory offer;\r\n        offer.exchangeId = input.exchangeId;\r\n        offer.offerType = \"SELL\";\r\n        offer.creatorAddress = caller;\r\n        offer.tokenId = input.tokenId;\r\n        offer.price = input.price;\r\n\r\n        _erc721OfferCount++;\r\n        offer.offerId = _erc721OfferCount;\r\n        _erc721Offers[_erc721OfferCount] = offer;\r\n\r\n        emit ERC721TokenSellingOfferPlaced(_erc721OfferCount);\r\n    }\r\n\r\n    /**\r\n    * @dev creator of buying offer can cancel his ERC721Token BuyingOffer\r\n    * @dev exchangeTokenId id of exchange \r\n    * @dev offerId id of offer\r\n    */\r\n    function CancelERC721TokenBuyingOffer(CancelOfferRequest memory input, address caller) external{\r\n        ERC721Offer memory offer = _erc721Offers[input.offerId];\r\n        IERC20 token = IERC20(_erc721Exchanges[input.exchangeId].offerTokenAddress);\r\n        require(offer.creatorAddress == caller, \"TokenExchange.CancelERC721TokenBuyingOffer: should be owner\");\r\n        require(offer.exchangeId == input.exchangeId, \"TokenExchange.CancelERC721TokenBuyingOffer: should be the same exchangeId\");\r\n        require(\r\n            keccak256(abi.encodePacked(offer.offerType)) == keccak256(abi.encodePacked(\"BUY\")), \r\n            \"TokenExchange.CancelERC721TokenBuyingOffer: should be the buying offer\"\r\n        );\r\n\r\n        require(\r\n            token.balanceOf(address(this)) >= offer.price,\r\n            \"TokenExchange.CancelERC721TokenBuyingOffer: you don't have enough balance\"\r\n        );\r\n        \r\n        token.transfer(caller, offer.price);            \r\n        delete _erc721Offers[input.offerId];\r\n\r\n        emit ERC721TokenBuyingOfferCanceled(input.offerId);\r\n    }\r\n\r\n    /**\r\n    * @dev creator of selling offer can cancel his ERC721 SellingOffer\r\n    * @dev exchangeTokenId id of exchange \r\n    * @dev offerId id of offer\r\n    */\r\n    function CancelERC721TokenSellingOffer(CancelOfferRequest memory input, address caller) external{\r\n        ERC721Offer memory offer = _erc721Offers[input.offerId];\r\n        IERC721 token = IERC721(_erc721Exchanges[input.exchangeId].exchangeTokenAddress);\r\n        require(offer.creatorAddress == caller, \"TokenExchange.CancelERC721TokenSellingOffer: should be owner\");\r\n        require(offer.exchangeId == input.exchangeId, \"TokenExchange.CancelERC721TokenSellingOffer: should be the same exchangeId\");\r\n        require(\r\n            keccak256(abi.encodePacked(offer.offerType)) == keccak256(abi.encodePacked(\"SELL\")), \r\n            \"TokenExchange.CancelERC721TokenSellingOffer: should be the selling offer\"\r\n        );\r\n        require(token.ownerOf(offer.tokenId) == address(this), \"TokenExchange.CancelERC721TokenSellingOffer: need to own this token\");\r\n        \r\n        token.safeTransferFrom(address(this), caller, offer.tokenId);\r\n        delete _erc721Offers[input.offerId];\r\n\r\n        emit ERC721TokenSellingOfferCanceled(input.offerId);\r\n    }\r\n\r\n    /**\r\n    * @dev someone can buy token(ERC721) from selling offer\r\n    * @dev exchangeTokenId id of exchange \r\n    * @dev offerId id of offer\r\n    */\r\n    function BuyERC721TokenFromOffer(OfferRequest memory input, address caller) external{\r\n        ERC721Offer memory offer = _erc721Offers[input.offerId];\r\n        IERC20 erc20token = IERC20(_erc721Exchanges[input.exchangeId].offerTokenAddress);\r\n        IERC721 erc721token = IERC721(_erc721Exchanges[input.exchangeId].exchangeTokenAddress);\r\n\r\n        require(offer.exchangeId == input.exchangeId, \"TokenExchange.BuyERC721TokenFromOffer: should be the same exchangeId\");\r\n        require(\r\n            keccak256(abi.encodePacked(offer.offerType)) == keccak256(abi.encodePacked(\"SELL\")), \r\n            \"TokenExchange.BuyERC721TokenFromOffer: should be the selling offer\"\r\n        );\r\n        require(\r\n            erc20token.balanceOf(caller) >= offer.price,\r\n            \"TokenExchange.BuyERC721TokenFromOffer: you don't have enough balance\"\r\n        );\r\n        require(erc721token.ownerOf(offer.tokenId) == address(this), \"TokenExchange.BuyERC721TokenFromOffer: need to own this token\");\r\n\r\n        erc20token.transferFrom(caller, offer.creatorAddress, offer.price); \r\n        erc721token.safeTransferFrom(address(this), caller, offer.tokenId);\r\n        delete _erc721Offers[input.offerId];\r\n\r\n        emit ERC721TokenFromOfferBought(input.offerId);\r\n    }\r\n\r\n    /**\r\n    * @dev owner of token can sell token(ERC721) from buying offer\r\n    * @dev exchangeTokenId id of exchange \r\n    * @dev offerId id of offer\r\n    */\r\n    function SellERC721TokenFromOffer(OfferRequest memory input, address caller) external{\r\n        ERC721Offer memory offer = _erc721Offers[input.offerId];\r\n        IERC20 erc20token = IERC20(_erc721Exchanges[input.exchangeId].offerTokenAddress);\r\n        IERC721 erc721token = IERC721(_erc721Exchanges[input.exchangeId].exchangeTokenAddress);\r\n\r\n        require(offer.exchangeId == input.exchangeId, \"TokenExchange.SellERC721TokenFromOffer: should be the same exchangeId\");\r\n        require(\r\n            keccak256(abi.encodePacked(offer.offerType)) == keccak256(abi.encodePacked(\"BUY\")), \r\n            \"TokenExchange.SellERC721TokenFromOffer: should be the buying offer\"\r\n        );\r\n        require(\r\n            erc20token.balanceOf(address(this)) >= offer.price,\r\n            \"TokenExchange.SellERC721TokenFromOffer: you don't have enough balance\"\r\n        );\r\n        require(erc721token.ownerOf(offer.tokenId) == caller, \"TokenExchange.SellERC721TokenFromOffer: need to own this token\");\r\n\r\n        erc20token.transfer(caller, offer.price); \r\n        erc721token.safeTransferFrom(caller, offer.creatorAddress, offer.tokenId);\r\n        delete _erc721Offers[input.offerId];\r\n\r\n        emit ERC721TokenFromOfferSold(input.offerId);\r\n    }\r\n\r\n    function onERC721Received(address, address, uint256, bytes memory) public virtual override returns (bytes4) {\r\n        return this.onERC721Received.selector;\r\n    }\r\n}",
  "sourcePath": "/Users/angelsatorresalmenara/Privi-Polygon/privi-exchange/contracts/ERC721TokenExchange.sol",
  "compiler": {
    "name": "solc",
    "version": "0.8.4+commit.c7e474f2.Emscripten.clang"
  },
  "schemaVersion": "3.4.2",
  "updatedAt": "2021-09-02T16:14:07.582Z",
  "networkType": "ethereum",
  "devdoc": {
    "details": "Exchange Contract for ERC721 Token",
    "kind": "dev",
    "methods": {
      "BuyERC721TokenFromOffer((uint256,uint256),address)": {
        "details": "someone can buy token(ERC721) from selling offerexchangeTokenId id of exchange offerId id of offer"
      },
      "CancelERC721TokenBuyingOffer((uint256,uint256),address)": {
        "details": "creator of buying offer can cancel his ERC721Token BuyingOfferexchangeTokenId id of exchange offerId id of offer"
      },
      "CancelERC721TokenSellingOffer((uint256,uint256),address)": {
        "details": "creator of selling offer can cancel his ERC721 SellingOfferexchangeTokenId id of exchange offerId id of offer"
      },
      "CreateERC721TokenExchange((string,address,address,uint256,uint256),address)": {
        "details": "Owner of token can create Exchange of ERC721exchangeTokenAddress address of exchangeToken(ERC721) offerTokenAddress address of exchangeToken(ERC721) tokenId ERC721 token id of Exchangeprice token price of Exchange"
      },
      "PlaceERC721TokenBuyingOffer((uint256,uint256,uint256),address)": {
        "details": "someone can create buying offer for ERC721 token exchangeexchangeTokenId id of exchange tokenId ERC721 token id of Exchangeprice token price of Exchange"
      },
      "PlaceERC721TokenSellingOffer((uint256,uint256,uint256),address)": {
        "details": "owner of token can create selling offer for ERC721 token exchangeexchangeTokenId id of exchange tokenId ERC721 token id of Exchangeprice token price of Exchange"
      },
      "SellERC721TokenFromOffer((uint256,uint256),address)": {
        "details": "owner of token can sell token(ERC721) from buying offerexchangeTokenId id of exchange offerId id of offer"
      },
      "constructor": {
        "details": "Constructor Function"
      }
    },
    "stateVariables": {
      "_erc721ExchangeCount": {
        "details": "count variables for ERC721Token exchange and offer mapping"
      },
      "_erc721Exchanges": {
        "details": "variables for storing ERC721Token Exchange and Offer"
      }
    },
    "version": 1
  },
  "userdoc": {
    "kind": "user",
    "methods": {},
    "version": 1
  }
}