{
  "contractName": "ERC721WithRoyalty",
  "abi": [
    {
      "inputs": [],
      "stateMutability": "nonpayable",
      "type": "constructor"
    },
    {
      "anonymous": false,
      "inputs": [
        {
          "indexed": true,
          "internalType": "address",
          "name": "owner",
          "type": "address"
        },
        {
          "indexed": true,
          "internalType": "address",
          "name": "approved",
          "type": "address"
        },
        {
          "indexed": true,
          "internalType": "uint256",
          "name": "tokenId",
          "type": "uint256"
        }
      ],
      "name": "Approval",
      "type": "event"
    },
    {
      "anonymous": false,
      "inputs": [
        {
          "indexed": true,
          "internalType": "address",
          "name": "owner",
          "type": "address"
        },
        {
          "indexed": true,
          "internalType": "address",
          "name": "operator",
          "type": "address"
        },
        {
          "indexed": false,
          "internalType": "bool",
          "name": "approved",
          "type": "bool"
        }
      ],
      "name": "ApprovalForAll",
      "type": "event"
    },
    {
      "anonymous": false,
      "inputs": [
        {
          "indexed": false,
          "internalType": "address",
          "name": "recipient",
          "type": "address"
        },
        {
          "indexed": false,
          "internalType": "uint16",
          "name": "bps",
          "type": "uint16"
        }
      ],
      "name": "DefaultRoyaltySet",
      "type": "event"
    },
    {
      "anonymous": false,
      "inputs": [
        {
          "indexed": true,
          "internalType": "bytes32",
          "name": "role",
          "type": "bytes32"
        },
        {
          "indexed": true,
          "internalType": "bytes32",
          "name": "previousAdminRole",
          "type": "bytes32"
        },
        {
          "indexed": true,
          "internalType": "bytes32",
          "name": "newAdminRole",
          "type": "bytes32"
        }
      ],
      "name": "RoleAdminChanged",
      "type": "event"
    },
    {
      "anonymous": false,
      "inputs": [
        {
          "indexed": true,
          "internalType": "bytes32",
          "name": "role",
          "type": "bytes32"
        },
        {
          "indexed": true,
          "internalType": "address",
          "name": "account",
          "type": "address"
        },
        {
          "indexed": true,
          "internalType": "address",
          "name": "sender",
          "type": "address"
        }
      ],
      "name": "RoleGranted",
      "type": "event"
    },
    {
      "anonymous": false,
      "inputs": [
        {
          "indexed": true,
          "internalType": "bytes32",
          "name": "role",
          "type": "bytes32"
        },
        {
          "indexed": true,
          "internalType": "address",
          "name": "account",
          "type": "address"
        },
        {
          "indexed": true,
          "internalType": "address",
          "name": "sender",
          "type": "address"
        }
      ],
      "name": "RoleRevoked",
      "type": "event"
    },
    {
      "anonymous": false,
      "inputs": [
        {
          "indexed": false,
          "internalType": "uint256",
          "name": "tokenId",
          "type": "uint256"
        }
      ],
      "name": "TokenRoyaltyRemoved",
      "type": "event"
    },
    {
      "anonymous": false,
      "inputs": [
        {
          "indexed": false,
          "internalType": "uint256",
          "name": "tokenId",
          "type": "uint256"
        },
        {
          "indexed": false,
          "internalType": "address",
          "name": "recipient",
          "type": "address"
        },
        {
          "indexed": false,
          "internalType": "uint16",
          "name": "bps",
          "type": "uint16"
        }
      ],
      "name": "TokenRoyaltySet",
      "type": "event"
    },
    {
      "anonymous": false,
      "inputs": [
        {
          "indexed": true,
          "internalType": "address",
          "name": "from",
          "type": "address"
        },
        {
          "indexed": true,
          "internalType": "address",
          "name": "to",
          "type": "address"
        },
        {
          "indexed": true,
          "internalType": "uint256",
          "name": "tokenId",
          "type": "uint256"
        }
      ],
      "name": "Transfer",
      "type": "event"
    },
    {
      "inputs": [],
      "name": "ADMIN",
      "outputs": [
        {
          "internalType": "bytes32",
          "name": "",
          "type": "bytes32"
        }
      ],
      "stateMutability": "view",
      "type": "function",
      "constant": true
    },
    {
      "inputs": [],
      "name": "DEFAULT_ADMIN_ROLE",
      "outputs": [
        {
          "internalType": "bytes32",
          "name": "",
          "type": "bytes32"
        }
      ],
      "stateMutability": "view",
      "type": "function",
      "constant": true
    },
    {
      "inputs": [
        {
          "internalType": "address",
          "name": "to",
          "type": "address"
        },
        {
          "internalType": "uint256",
          "name": "tokenId",
          "type": "uint256"
        }
      ],
      "name": "approve",
      "outputs": [],
      "stateMutability": "nonpayable",
      "type": "function"
    },
    {
      "inputs": [
        {
          "internalType": "address",
          "name": "owner",
          "type": "address"
        }
      ],
      "name": "balanceOf",
      "outputs": [
        {
          "internalType": "uint256",
          "name": "",
          "type": "uint256"
        }
      ],
      "stateMutability": "view",
      "type": "function",
      "constant": true
    },
    {
      "inputs": [],
      "name": "defaultRoyalty",
      "outputs": [
        {
          "internalType": "address",
          "name": "recipient",
          "type": "address"
        },
        {
          "internalType": "uint16",
          "name": "bps",
          "type": "uint16"
        }
      ],
      "stateMutability": "view",
      "type": "function",
      "constant": true
    },
    {
      "inputs": [
        {
          "internalType": "uint256",
          "name": "tokenId",
          "type": "uint256"
        }
      ],
      "name": "getApproved",
      "outputs": [
        {
          "internalType": "address",
          "name": "",
          "type": "address"
        }
      ],
      "stateMutability": "view",
      "type": "function",
      "constant": true
    },
    {
      "inputs": [
        {
          "internalType": "bytes32",
          "name": "role",
          "type": "bytes32"
        }
      ],
      "name": "getRoleAdmin",
      "outputs": [
        {
          "internalType": "bytes32",
          "name": "",
          "type": "bytes32"
        }
      ],
      "stateMutability": "view",
      "type": "function",
      "constant": true
    },
    {
      "inputs": [],
      "name": "getTokenRoyaltiesCount",
      "outputs": [
        {
          "internalType": "uint256",
          "name": "",
          "type": "uint256"
        }
      ],
      "stateMutability": "view",
      "type": "function",
      "constant": true
    },
    {
      "inputs": [
        {
          "internalType": "uint256",
          "name": "index",
          "type": "uint256"
        }
      ],
      "name": "getTokenRoyaltyByIndex",
      "outputs": [
        {
          "components": [
            {
              "internalType": "uint256",
              "name": "tokenId",
              "type": "uint256"
            },
            {
              "internalType": "address",
              "name": "recipient",
              "type": "address"
            },
            {
              "internalType": "uint16",
              "name": "bps",
              "type": "uint16"
            }
          ],
          "internalType": "struct IERC721WithRoyalty.TokenRoyaltyConfig",
          "name": "",
          "type": "tuple"
        }
      ],
      "stateMutability": "view",
      "type": "function",
      "constant": true
    },
    {
      "inputs": [
        {
          "internalType": "bytes32",
          "name": "role",
          "type": "bytes32"
        },
        {
          "internalType": "address",
          "name": "account",
          "type": "address"
        }
      ],
      "name": "grantRole",
      "outputs": [],
      "stateMutability": "nonpayable",
      "type": "function"
    },
    {
      "inputs": [
        {
          "internalType": "bytes32",
          "name": "role",
          "type": "bytes32"
        },
        {
          "internalType": "address",
          "name": "account",
          "type": "address"
        }
      ],
      "name": "hasRole",
      "outputs": [
        {
          "internalType": "bool",
          "name": "",
          "type": "bool"
        }
      ],
      "stateMutability": "view",
      "type": "function",
      "constant": true
    },
    {
      "inputs": [
        {
          "internalType": "address",
          "name": "owner",
          "type": "address"
        },
        {
          "internalType": "address",
          "name": "operator",
          "type": "address"
        }
      ],
      "name": "isApprovedForAll",
      "outputs": [
        {
          "internalType": "bool",
          "name": "",
          "type": "bool"
        }
      ],
      "stateMutability": "view",
      "type": "function",
      "constant": true
    },
    {
      "inputs": [
        {
          "internalType": "uint256",
          "name": "tokenId",
          "type": "uint256"
        }
      ],
      "name": "ownerOf",
      "outputs": [
        {
          "internalType": "address",
          "name": "",
          "type": "address"
        }
      ],
      "stateMutability": "view",
      "type": "function",
      "constant": true
    },
    {
      "inputs": [
        {
          "internalType": "bytes32",
          "name": "role",
          "type": "bytes32"
        },
        {
          "internalType": "address",
          "name": "account",
          "type": "address"
        }
      ],
      "name": "renounceRole",
      "outputs": [],
      "stateMutability": "nonpayable",
      "type": "function"
    },
    {
      "inputs": [
        {
          "internalType": "bytes32",
          "name": "role",
          "type": "bytes32"
        },
        {
          "internalType": "address",
          "name": "account",
          "type": "address"
        }
      ],
      "name": "revokeRole",
      "outputs": [],
      "stateMutability": "nonpayable",
      "type": "function"
    },
    {
      "inputs": [
        {
          "internalType": "uint256",
          "name": "tokenId",
          "type": "uint256"
        },
        {
          "internalType": "uint256",
          "name": "value",
          "type": "uint256"
        }
      ],
      "name": "royaltyInfo",
      "outputs": [
        {
          "internalType": "address",
          "name": "",
          "type": "address"
        },
        {
          "internalType": "uint256",
          "name": "",
          "type": "uint256"
        }
      ],
      "stateMutability": "view",
      "type": "function",
      "constant": true
    },
    {
      "inputs": [
        {
          "internalType": "address",
          "name": "from",
          "type": "address"
        },
        {
          "internalType": "address",
          "name": "to",
          "type": "address"
        },
        {
          "internalType": "uint256",
          "name": "tokenId",
          "type": "uint256"
        }
      ],
      "name": "safeTransferFrom",
      "outputs": [],
      "stateMutability": "nonpayable",
      "type": "function"
    },
    {
      "inputs": [
        {
          "internalType": "address",
          "name": "from",
          "type": "address"
        },
        {
          "internalType": "address",
          "name": "to",
          "type": "address"
        },
        {
          "internalType": "uint256",
          "name": "tokenId",
          "type": "uint256"
        },
        {
          "internalType": "bytes",
          "name": "_data",
          "type": "bytes"
        }
      ],
      "name": "safeTransferFrom",
      "outputs": [],
      "stateMutability": "nonpayable",
      "type": "function"
    },
    {
      "inputs": [
        {
          "internalType": "address",
          "name": "operator",
          "type": "address"
        },
        {
          "internalType": "bool",
          "name": "approved",
          "type": "bool"
        }
      ],
      "name": "setApprovalForAll",
      "outputs": [],
      "stateMutability": "nonpayable",
      "type": "function"
    },
    {
      "inputs": [
        {
          "internalType": "address",
          "name": "from",
          "type": "address"
        },
        {
          "internalType": "address",
          "name": "to",
          "type": "address"
        },
        {
          "internalType": "uint256",
          "name": "tokenId",
          "type": "uint256"
        }
      ],
      "name": "transferFrom",
      "outputs": [],
      "stateMutability": "nonpayable",
      "type": "function"
    },
    {
      "inputs": [
        {
          "internalType": "string",
          "name": "_name",
          "type": "string"
        },
        {
          "internalType": "string",
          "name": "_symbol",
          "type": "string"
        },
        {
          "internalType": "address",
          "name": "_royaltyReceiver",
          "type": "address"
        },
        {
          "internalType": "uint16",
          "name": "_royaltyPercentage",
          "type": "uint16"
        },
        {
          "internalType": "address",
          "name": "admin",
          "type": "address"
        }
      ],
      "name": "initialize",
      "outputs": [],
      "stateMutability": "nonpayable",
      "type": "function"
    },
    {
      "inputs": [
        {
          "components": [
            {
              "internalType": "uint256",
              "name": "tokenId",
              "type": "uint256"
            },
            {
              "internalType": "address",
              "name": "recipient",
              "type": "address"
            },
            {
              "internalType": "uint16",
              "name": "bps",
              "type": "uint16"
            }
          ],
          "internalType": "struct IERC721WithRoyalty.TokenRoyaltyConfig[]",
          "name": "royaltyConfigs",
          "type": "tuple[]"
        }
      ],
      "name": "setTokenRoyalties",
      "outputs": [],
      "stateMutability": "nonpayable",
      "type": "function"
    },
    {
      "inputs": [
        {
          "components": [
            {
              "internalType": "address",
              "name": "recipient",
              "type": "address"
            },
            {
              "internalType": "uint16",
              "name": "bps",
              "type": "uint16"
            }
          ],
          "internalType": "struct IERC721WithRoyalty.TokenRoyalty",
          "name": "royalty",
          "type": "tuple"
        }
      ],
      "name": "setDefaultRoyalty",
      "outputs": [],
      "stateMutability": "nonpayable",
      "type": "function"
    },
    {
      "inputs": [
        {
          "internalType": "uint256",
          "name": "tokenId",
          "type": "uint256"
        }
      ],
      "name": "exists",
      "outputs": [
        {
          "internalType": "bool",
          "name": "",
          "type": "bool"
        }
      ],
      "stateMutability": "view",
      "type": "function",
      "constant": true
    },
    {
      "inputs": [
        {
          "internalType": "address",
          "name": "to",
          "type": "address"
        },
        {
          "internalType": "uint256",
          "name": "tokenId",
          "type": "uint256"
        },
        {
          "internalType": "string",
          "name": "uri",
          "type": "string"
        }
      ],
      "name": "mintWithId",
      "outputs": [],
      "stateMutability": "nonpayable",
      "type": "function"
    },
    {
      "inputs": [
        {
          "internalType": "uint256",
          "name": "tokenId",
          "type": "uint256"
        }
      ],
      "name": "burn",
      "outputs": [],
      "stateMutability": "nonpayable",
      "type": "function"
    },
    {
      "inputs": [
        {
          "internalType": "uint256",
          "name": "tokenId",
          "type": "uint256"
        }
      ],
      "name": "tokenURI",
      "outputs": [
        {
          "internalType": "string",
          "name": "",
          "type": "string"
        }
      ],
      "stateMutability": "view",
      "type": "function",
      "constant": true
    },
    {
      "inputs": [
        {
          "internalType": "bytes4",
          "name": "interfaceId",
          "type": "bytes4"
        }
      ],
      "name": "supportsInterface",
      "outputs": [
        {
          "internalType": "bool",
          "name": "",
          "type": "bool"
        }
      ],
      "stateMutability": "view",
      "type": "function",
      "constant": true
    },
    {
      "inputs": [],
      "name": "name",
      "outputs": [
        {
          "internalType": "string",
          "name": "",
          "type": "string"
        }
      ],
      "stateMutability": "view",
      "type": "function",
      "constant": true
    },
    {
      "inputs": [],
      "name": "symbol",
      "outputs": [
        {
          "internalType": "string",
          "name": "",
          "type": "string"
        }
      ],
      "stateMutability": "view",
      "type": "function",
      "constant": true
    }
  ],
  "bytecode": "0x60806040523480156200001157600080fd5b50604051806020016040528060008152506040518060200160405280600081525081600490805190602001906200004a9291906200006c565b508060059080519060200190620000639291906200006c565b50505062000181565b8280546200007a906200011c565b90600052602060002090601f0160209004810192826200009e5760008555620000ea565b82601f10620000b957805160ff1916838001178555620000ea565b82800160010185558215620000ea579182015b82811115620000e9578251825591602001919060010190620000cc565b5b509050620000f99190620000fd565b5090565b5b8082111562000118576000816000905550600101620000fe565b5090565b600060028204905060018216806200013557607f821691505b602082108114156200014c576200014b62000152565b5b50919050565b7f4e487b7100000000000000000000000000000000000000000000000000000000600052602260045260246000fd5b61489280620001916000396000f3fe608060405234801561001057600080fd5b50600436106101da5760003560e01c806355ba7f971161010457806395d89b41116100a2578063c87b56dd11610071578063c87b56dd14610579578063d547741f146105a9578063e985e9c5146105c5578063ef60ceaf146105f5576101da565b806395d89b4114610505578063a217fddf14610523578063a22cb46514610541578063b88d4fde1461055d576101da565b806370a08231116100de57806370a08231146104685780637885fdc7146104985780637e980342146104b757806391d14854146104d5576101da565b806355ba7f971461040057806356d30bf81461041c5780636352211e14610438576101da565b80632a0acc6a1161017c57806342842e0e1161014b57806342842e0e1461037c57806342966c68146103985780634f558e79146103b45780635136dcc7146103e4576101da565b80632a0acc6a146102f55780632a55205a146103135780632f2ff15d1461034457806336568abe14610360576101da565b8063081812fc116101b8578063081812fc1461025d578063095ea7b31461028d57806323b872dd146102a9578063248a9ca3146102c5576101da565b806301ffc9a7146101df5780630653aca51461020f57806306fdde031461023f575b600080fd5b6101f960048036038101906101f491906133c8565b610611565b6040516102069190613ad5565b60405180910390f35b6102296004803603810190610224919061355c565b610623565b6040516102369190613d6d565b60405180910390f35b610247610721565b6040516102549190613b0b565b60405180910390f35b6102776004803603810190610272919061355c565b6107b3565b6040516102849190613a1c565b60405180910390f35b6102a760048036038101906102a2919061325a565b610838565b005b6102c360048036038101906102be9190613144565b610950565b005b6102df60048036038101906102da919061335b565b6109b0565b6040516102ec9190613af0565b60405180910390f35b6102fd6109d0565b60405161030a9190613af0565b60405180910390f35b61032d60048036038101906103289190613589565b6109f4565b60405161033b929190613aac565b60405180910390f35b61035e60048036038101906103599190613388565b610bcb565b005b61037a60048036038101906103759190613388565b610bf4565b005b61039660048036038101906103919190613144565b610c77565b005b6103b260048036038101906103ad919061355c565b610c97565b005b6103ce60048036038101906103c9919061355c565b610ca3565b6040516103db9190613ad5565b60405180910390f35b6103fe60048036038101906103f9919061330e565b610cb5565b005b61041a60048036038101906104159190613422565b610d4b565b005b6104366004803603810190610431919061329a565b610ebd565b005b610452600480360381019061044d919061355c565b610f02565b60405161045f9190613a1c565b60405180910390f35b610482600480360381019061047d91906130d7565b610fb4565b60405161048f9190613d88565b60405180910390f35b6104a061106c565b6040516104ae929190613a83565b60405180910390f35b6104bf6110ac565b6040516104cc9190613d88565b60405180910390f35b6104ef60048036038101906104ea9190613388565b6110bd565b6040516104fc9190613ad5565b60405180910390f35b61050d611128565b60405161051a9190613b0b565b60405180910390f35b61052b6111ba565b6040516105389190613af0565b60405180910390f35b61055b6004803603810190610556919061321a565b6111c1565b005b61057760048036038101906105729190613197565b611342565b005b610593600480360381019061058e919061355c565b6113a4565b6040516105a09190613b0b565b60405180910390f35b6105c360048036038101906105be9190613388565b611491565b005b6105df60048036038101906105da9190613104565b6114ba565b6040516105ec9190613ad5565b60405180910390f35b61060f600480360381019061060a9190613502565b61154e565b005b600061061c8261159d565b9050919050565b61062b612c81565b600061064183600261161790919063ffffffff16565b90506000600160008381526020019081526020016000206040518060400160405290816000820160009054906101000a900473ffffffffffffffffffffffffffffffffffffffff1673ffffffffffffffffffffffffffffffffffffffff1673ffffffffffffffffffffffffffffffffffffffff1681526020016000820160149054906101000a900461ffff1661ffff1661ffff168152505090506040518060600160405280838152602001826000015173ffffffffffffffffffffffffffffffffffffffff168152602001826020015161ffff1681525092505050919050565b6060600d8054610730906140b1565b80601f016020809104026020016040519081016040528092919081815260200182805461075c906140b1565b80156107a95780601f1061077e576101008083540402835291602001916107a9565b820191906000526020600020905b81548152906001019060200180831161078c57829003601f168201915b5050505050905090565b60006107be82611631565b6107fd576040517f08c379a00000000000000000000000000000000000000000000000000000000081526004016107f490613c8d565b60405180910390fd5b6008600083815260200190815260200160002060009054906101000a900473ffffffffffffffffffffffffffffffffffffffff169050919050565b600061084382610f02565b90508073ffffffffffffffffffffffffffffffffffffffff168373ffffffffffffffffffffffffffffffffffffffff1614156108b4576040517f08c379a00000000000000000000000000000000000000000000000000000000081526004016108ab90613d0d565b60405180910390fd5b8073ffffffffffffffffffffffffffffffffffffffff166108d361169d565b73ffffffffffffffffffffffffffffffffffffffff1614806109025750610901816108fc61169d565b6114ba565b5b610941576040517f08c379a000000000000000000000000000000000000000000000000000000000815260040161093890613bed565b60405180910390fd5b61094b83836116a5565b505050565b61096161095b61169d565b8261175e565b6109a0576040517f08c379a000000000000000000000000000000000000000000000000000000000815260040161099790613d2d565b60405180910390fd5b6109ab83838361183c565b505050565b6000600a6000838152602001908152602001600020600101549050919050565b7fdf8b4c520ffe197c5343c6f5aec59570151ef9a492f2c624fd45ddde6135ec4281565b600080600073ffffffffffffffffffffffffffffffffffffffff166001600086815260200190815260200160002060000160009054906101000a900473ffffffffffffffffffffffffffffffffffffffff1673ffffffffffffffffffffffffffffffffffffffff1614610ae2576001600085815260200190815260200160002060000160009054906101000a900473ffffffffffffffffffffffffffffffffffffffff166127106001600087815260200190815260200160002060000160149054906101000a900461ffff1661ffff1685610acf9190613f2b565b610ad99190613efa565b91509150610bc4565b600073ffffffffffffffffffffffffffffffffffffffff166000800160009054906101000a900473ffffffffffffffffffffffffffffffffffffffff1673ffffffffffffffffffffffffffffffffffffffff1614158015610b5a575060008060000160149054906101000a900461ffff1661ffff1614155b15610bbc576000800160009054906101000a900473ffffffffffffffffffffffffffffffffffffffff166127106000800160149054906101000a900461ffff1661ffff1685610ba99190613f2b565b610bb39190613efa565b91509150610bc4565b600080915091505b9250929050565b610bd4826109b0565b610be581610be061169d565b611a98565b610bef8383611b35565b505050565b610bfc61169d565b73ffffffffffffffffffffffffffffffffffffffff168173ffffffffffffffffffffffffffffffffffffffff1614610c69576040517f08c379a0000000000000000000000000000000000000000000000000000000008152600401610c6090613d4d565b60405180910390fd5b610c738282611c16565b5050565b610c9283838360405180602001604052806000815250611342565b505050565b610ca081611cf8565b50565b6000610cae82611631565b9050919050565b7fdf8b4c520ffe197c5343c6f5aec59570151ef9a492f2c624fd45ddde6135ec42610ce781610ce261169d565b611a98565b610d468383808060200260200160405190810160405280939291908181526020016000905b82821015610d3c57848483905060600201803603810190610d2d91906134d5565b81526020019060010190610d0c565b5050505050611e09565b505050565b600b60019054906101000a900460ff1680610d735750600b60009054906101000a900460ff16155b610db2576040517f08c379a0000000000000000000000000000000000000000000000000000000008152600401610da990613c4d565b60405180910390fd5b6000600b60019054906101000a900460ff161590508015610e04576001600b60016101000a81548160ff0219169083151502179055506001600b60006101000a81548160ff0219169083151502179055505b85600d9080519060200190610e1a929190612cbc565b5084600e9080519060200190610e31929190612cbc565b50610e6960405180604001604052808673ffffffffffffffffffffffffffffffffffffffff1681526020018561ffff1681525061209c565b610e937fdf8b4c520ffe197c5343c6f5aec59570151ef9a492f2c624fd45ddde6135ec42836121d1565b8015610eb5576000600b60016101000a81548160ff0219169083151502179055505b505050505050565b7fdf8b4c520ffe197c5343c6f5aec59570151ef9a492f2c624fd45ddde6135ec42610eef81610eea61169d565b611a98565b610efb858585856121df565b5050505050565b6000806006600084815260200190815260200160002060009054906101000a900473ffffffffffffffffffffffffffffffffffffffff169050600073ffffffffffffffffffffffffffffffffffffffff168173ffffffffffffffffffffffffffffffffffffffff161415610fab576040517f08c379a0000000000000000000000000000000000000000000000000000000008152600401610fa290613c2d565b60405180910390fd5b80915050919050565b60008073ffffffffffffffffffffffffffffffffffffffff168273ffffffffffffffffffffffffffffffffffffffff161415611025576040517f08c379a000000000000000000000000000000000000000000000000000000000815260040161101c90613c0d565b60405180910390fd5b600760008373ffffffffffffffffffffffffffffffffffffffff1673ffffffffffffffffffffffffffffffffffffffff168152602001908152602001600020549050919050565b60008060000160009054906101000a900473ffffffffffffffffffffffffffffffffffffffff16908060000160149054906101000a900461ffff16905082565b60006110b86002612212565b905090565b6000600a600084815260200190815260200160002060000160008373ffffffffffffffffffffffffffffffffffffffff1673ffffffffffffffffffffffffffffffffffffffff16815260200190815260200160002060009054906101000a900460ff16905092915050565b6060600e8054611137906140b1565b80601f0160208091040260200160405190810160405280929190818152602001828054611163906140b1565b80156111b05780601f10611185576101008083540402835291602001916111b0565b820191906000526020600020905b81548152906001019060200180831161119357829003601f168201915b5050505050905090565b6000801b81565b6111c961169d565b73ffffffffffffffffffffffffffffffffffffffff168273ffffffffffffffffffffffffffffffffffffffff161415611237576040517f08c379a000000000000000000000000000000000000000000000000000000000815260040161122e90613bad565b60405180910390fd5b806009600061124461169d565b73ffffffffffffffffffffffffffffffffffffffff1673ffffffffffffffffffffffffffffffffffffffff16815260200190815260200160002060008473ffffffffffffffffffffffffffffffffffffffff1673ffffffffffffffffffffffffffffffffffffffff16815260200190815260200160002060006101000a81548160ff0219169083151502179055508173ffffffffffffffffffffffffffffffffffffffff166112f161169d565b73ffffffffffffffffffffffffffffffffffffffff167f17307eab39ab6107e8899845ad3d59bd9653f200f220920489ca2b5937696c31836040516113369190613ad5565b60405180910390a35050565b61135361134d61169d565b8361175e565b611392576040517f08c379a000000000000000000000000000000000000000000000000000000000815260040161138990613d2d565b60405180910390fd5b61139e84848484612227565b50505050565b60606113af82611631565b6113ee576040517f08c379a00000000000000000000000000000000000000000000000000000000081526004016113e590613ccd565b60405180910390fd5b600c6000838152602001908152602001600020805461140c906140b1565b80601f0160208091040260200160405190810160405280929190818152602001828054611438906140b1565b80156114855780601f1061145a57610100808354040283529160200191611485565b820191906000526020600020905b81548152906001019060200180831161146857829003601f168201915b50505050509050919050565b61149a826109b0565b6114ab816114a661169d565b611a98565b6114b58383611c16565b505050565b6000600960008473ffffffffffffffffffffffffffffffffffffffff1673ffffffffffffffffffffffffffffffffffffffff16815260200190815260200160002060008373ffffffffffffffffffffffffffffffffffffffff1673ffffffffffffffffffffffffffffffffffffffff16815260200190815260200160002060009054906101000a900460ff16905092915050565b7fdf8b4c520ffe197c5343c6f5aec59570151ef9a492f2c624fd45ddde6135ec426115808161157b61169d565b611a98565b61159982803603810190611594919061352f565b61209c565b5050565b60007f7965db0b000000000000000000000000000000000000000000000000000000007bffffffffffffffffffffffffffffffffffffffffffffffffffffffff1916827bffffffffffffffffffffffffffffffffffffffffffffffffffffffff19161480611610575061160f82612283565b5b9050919050565b60006116268360000183612365565b60001c905092915050565b60008073ffffffffffffffffffffffffffffffffffffffff166006600084815260200190815260200160002060009054906101000a900473ffffffffffffffffffffffffffffffffffffffff1673ffffffffffffffffffffffffffffffffffffffff1614159050919050565b600033905090565b816008600083815260200190815260200160002060006101000a81548173ffffffffffffffffffffffffffffffffffffffff021916908373ffffffffffffffffffffffffffffffffffffffff160217905550808273ffffffffffffffffffffffffffffffffffffffff1661171883610f02565b73ffffffffffffffffffffffffffffffffffffffff167f8c5be1e5ebec7d5bd14f71427d1e84f3dd0314c0f7b2291e5b200ac8c7c3b92560405160405180910390a45050565b600061176982611631565b6117a8576040517f08c379a000000000000000000000000000000000000000000000000000000000815260040161179f90613bcd565b60405180910390fd5b60006117b383610f02565b90508073ffffffffffffffffffffffffffffffffffffffff168473ffffffffffffffffffffffffffffffffffffffff16148061182257508373ffffffffffffffffffffffffffffffffffffffff1661180a846107b3565b73ffffffffffffffffffffffffffffffffffffffff16145b80611833575061183281856114ba565b5b91505092915050565b8273ffffffffffffffffffffffffffffffffffffffff1661185c82610f02565b73ffffffffffffffffffffffffffffffffffffffff16146118b2576040517f08c379a00000000000000000000000000000000000000000000000000000000081526004016118a990613cad565b60405180910390fd5b600073ffffffffffffffffffffffffffffffffffffffff168273ffffffffffffffffffffffffffffffffffffffff161415611922576040517f08c379a000000000000000000000000000000000000000000000000000000000815260040161191990613b8d565b60405180910390fd5b61192d838383612390565b6119386000826116a5565b6001600760008573ffffffffffffffffffffffffffffffffffffffff1673ffffffffffffffffffffffffffffffffffffffff16815260200190815260200160002060008282546119889190613f85565b925050819055506001600760008473ffffffffffffffffffffffffffffffffffffffff1673ffffffffffffffffffffffffffffffffffffffff16815260200190815260200160002060008282546119df9190613ea4565b92505081905550816006600083815260200190815260200160002060006101000a81548173ffffffffffffffffffffffffffffffffffffffff021916908373ffffffffffffffffffffffffffffffffffffffff160217905550808273ffffffffffffffffffffffffffffffffffffffff168473ffffffffffffffffffffffffffffffffffffffff167fddf252ad1be2c89b69c2b068fc378daa952ba7f163c4a11628f55a4df523b3ef60405160405180910390a4505050565b611aa282826110bd565b611b3157611ac78173ffffffffffffffffffffffffffffffffffffffff166014612395565b611ad58360001c6020612395565b604051602001611ae69291906139e2565b6040516020818303038152906040526040517f08c379a0000000000000000000000000000000000000000000000000000000008152600401611b289190613b0b565b60405180910390fd5b5050565b611b3f82826110bd565b611c12576001600a600084815260200190815260200160002060000160008373ffffffffffffffffffffffffffffffffffffffff1673ffffffffffffffffffffffffffffffffffffffff16815260200190815260200160002060006101000a81548160ff021916908315150217905550611bb761169d565b73ffffffffffffffffffffffffffffffffffffffff168173ffffffffffffffffffffffffffffffffffffffff16837f2f8788117e7eff1d82e926ec794901d17c78024a50270940304540a733656f0d60405160405180910390a45b5050565b611c2082826110bd565b15611cf4576000600a600084815260200190815260200160002060000160008373ffffffffffffffffffffffffffffffffffffffff1673ffffffffffffffffffffffffffffffffffffffff16815260200190815260200160002060006101000a81548160ff021916908315150217905550611c9961169d565b73ffffffffffffffffffffffffffffffffffffffff168173ffffffffffffffffffffffffffffffffffffffff16837ff6391f5c32d9c69d2a47ea670b442974b53935d1edc7fd64eb21e047a839171b60405160405180910390a45b5050565b6000611d0382610f02565b9050611d1181600084612390565b611d1c6000836116a5565b6001600760008373ffffffffffffffffffffffffffffffffffffffff1673ffffffffffffffffffffffffffffffffffffffff1681526020019081526020016000206000828254611d6c9190613f85565b925050819055506006600083815260200190815260200160002060006101000a81549073ffffffffffffffffffffffffffffffffffffffff021916905581600073ffffffffffffffffffffffffffffffffffffffff168273ffffffffffffffffffffffffffffffffffffffff167fddf252ad1be2c89b69c2b068fc378daa952ba7f163c4a11628f55a4df523b3ef60405160405180910390a45050565b60005b8151811015612098576000828281518110611e2a57611e29614219565b5b60200260200101519050612710816040015161ffff1610611e80576040517f08c379a0000000000000000000000000000000000000000000000000000000008152600401611e7790613ced565b60405180910390fd5b600073ffffffffffffffffffffffffffffffffffffffff16816020015173ffffffffffffffffffffffffffffffffffffffff161415611f68576001600082600001518152602001908152602001600020600080820160006101000a81549073ffffffffffffffffffffffffffffffffffffffff02191690556000820160146101000a81549061ffff02191690555050611f27816000015160026125d190919063ffffffff16565b507fa2870857763bd9ae76c957f869f16b31c18dd3bb4c7b4d3a4496dc5c57c657f98160000151604051611f5b9190613d88565b60405180910390a1612084565b6040518060400160405280826020015173ffffffffffffffffffffffffffffffffffffffff168152602001826040015161ffff16815250600160008360000151815260200190815260200160002060008201518160000160006101000a81548173ffffffffffffffffffffffffffffffffffffffff021916908373ffffffffffffffffffffffffffffffffffffffff16021790555060208201518160000160146101000a81548161ffff021916908361ffff16021790555090505061203b816000015160026125eb90919063ffffffff16565b507f389b70fb0887f01e83784eb1c4c589f740eca53b00ed0f45e41db5d079719abb81600001518260200151836040015160405161207b93929190613da3565b60405180910390a15b50808061209090614114565b915050611e0c565b5050565b612710816020015161ffff16106120e8576040517f08c379a00000000000000000000000000000000000000000000000000000000081526004016120df90613ced565b60405180910390fd5b6040518060400160405280826000015173ffffffffffffffffffffffffffffffffffffffff168152602001826020015161ffff168152506000808201518160000160006101000a81548173ffffffffffffffffffffffffffffffffffffffff021916908373ffffffffffffffffffffffffffffffffffffffff16021790555060208201518160000160146101000a81548161ffff021916908361ffff1602179055509050507f2c5ea6e4103e78cb101e796fb2dace540362fc542cbff5145eaa24af7dd8fe41816000015182602001516040516121c6929190613a83565b60405180910390a150565b6121db8282611b35565b5050565b6121e98484612605565b8181600c6000868152602001908152602001600020919061220b929190612d42565b5050505050565b6000612220826000016127d3565b9050919050565b61223284848461183c565b61223e848484846127e4565b61227d576040517f08c379a000000000000000000000000000000000000000000000000000000000815260040161227490613b4d565b60405180910390fd5b50505050565b60007f80ac58cd000000000000000000000000000000000000000000000000000000007bffffffffffffffffffffffffffffffffffffffffffffffffffffffff1916827bffffffffffffffffffffffffffffffffffffffffffffffffffffffff1916148061234e57507f5b5e139f000000000000000000000000000000000000000000000000000000007bffffffffffffffffffffffffffffffffffffffffffffffffffffffff1916827bffffffffffffffffffffffffffffffffffffffffffffffffffffffff1916145b8061235e575061235d8261297b565b5b9050919050565b600082600001828154811061237d5761237c614219565b5b9060005260206000200154905092915050565b505050565b6060600060028360026123a89190613f2b565b6123b29190613ea4565b67ffffffffffffffff8111156123cb576123ca614248565b5b6040519080825280601f01601f1916602001820160405280156123fd5781602001600182028036833780820191505090505b5090507f30000000000000000000000000000000000000000000000000000000000000008160008151811061243557612434614219565b5b60200101907effffffffffffffffffffffffffffffffffffffffffffffffffffffffffffff1916908160001a9053507f78000000000000000000000000000000000000000000000000000000000000008160018151811061249957612498614219565b5b60200101907effffffffffffffffffffffffffffffffffffffffffffffffffffffffffffff1916908160001a905350600060018460026124d99190613f2b565b6124e39190613ea4565b90505b6001811115612583577f3031323334353637383961626364656600000000000000000000000000000000600f86166010811061252557612524614219565b5b1a60f81b82828151811061253c5761253b614219565b5b60200101907effffffffffffffffffffffffffffffffffffffffffffffffffffffffffffff1916908160001a905350600485901c94508061257c90614087565b90506124e6565b50600084146125c7576040517f08c379a00000000000000000000000000000000000000000000000000000000081526004016125be90613b2d565b60405180910390fd5b8091505092915050565b60006125e3836000018360001b612a5d565b905092915050565b60006125fd836000018360001b612b71565b905092915050565b600073ffffffffffffffffffffffffffffffffffffffff168273ffffffffffffffffffffffffffffffffffffffff161415612675576040517f08c379a000000000000000000000000000000000000000000000000000000000815260040161266c90613c6d565b60405180910390fd5b61267e81611631565b156126be576040517f08c379a00000000000000000000000000000000000000000000000000000000081526004016126b590613b6d565b60405180910390fd5b6126ca60008383612390565b6001600760008473ffffffffffffffffffffffffffffffffffffffff1673ffffffffffffffffffffffffffffffffffffffff168152602001908152602001600020600082825461271a9190613ea4565b92505081905550816006600083815260200190815260200160002060006101000a81548173ffffffffffffffffffffffffffffffffffffffff021916908373ffffffffffffffffffffffffffffffffffffffff160217905550808273ffffffffffffffffffffffffffffffffffffffff16600073ffffffffffffffffffffffffffffffffffffffff167fddf252ad1be2c89b69c2b068fc378daa952ba7f163c4a11628f55a4df523b3ef60405160405180910390a45050565b600081600001805490509050919050565b60006128058473ffffffffffffffffffffffffffffffffffffffff16612be1565b1561296e578373ffffffffffffffffffffffffffffffffffffffff1663150b7a0261282e61169d565b8786866040518563ffffffff1660e01b81526004016128509493929190613a37565b602060405180830381600087803b15801561286a57600080fd5b505af192505050801561289b57506040513d601f19601f8201168201806040525081019061289891906133f5565b60015b61291e573d80600081146128cb576040519150601f19603f3d011682016040523d82523d6000602084013e6128d0565b606091505b50600081511415612916576040517f08c379a000000000000000000000000000000000000000000000000000000000815260040161290d90613b4d565b60405180910390fd5b805181602001fd5b63150b7a0260e01b7bffffffffffffffffffffffffffffffffffffffffffffffffffffffff1916817bffffffffffffffffffffffffffffffffffffffffffffffffffffffff191614915050612973565b600190505b949350505050565b60007f2a55205a000000000000000000000000000000000000000000000000000000007bffffffffffffffffffffffffffffffffffffffffffffffffffffffff1916827bffffffffffffffffffffffffffffffffffffffffffffffffffffffff19161480612a4657507fc69dbd8f000000000000000000000000000000000000000000000000000000007bffffffffffffffffffffffffffffffffffffffffffffffffffffffff1916827bffffffffffffffffffffffffffffffffffffffffffffffffffffffff1916145b80612a565750612a5582612bf4565b5b9050919050565b60008083600101600084815260200190815260200160002054905060008114612b65576000600182612a8f9190613f85565b9050600060018660000180549050612aa79190613f85565b9050818114612b16576000866000018281548110612ac857612ac7614219565b5b9060005260206000200154905080876000018481548110612aec57612aeb614219565b5b90600052602060002001819055508387600101600083815260200190815260200160002081905550505b85600001805480612b2a57612b296141ea565b5b600190038181906000526020600020016000905590558560010160008681526020019081526020016000206000905560019350505050612b6b565b60009150505b92915050565b6000612b7d8383612c5e565b612bd6578260000182908060018154018082558091505060019003906000526020600020016000909190919091505582600001805490508360010160008481526020019081526020016000208190555060019050612bdb565b600090505b92915050565b600080823b905060008111915050919050565b60007f01ffc9a7000000000000000000000000000000000000000000000000000000007bffffffffffffffffffffffffffffffffffffffffffffffffffffffff1916827bffffffffffffffffffffffffffffffffffffffffffffffffffffffff1916149050919050565b600080836001016000848152602001908152602001600020541415905092915050565b604051806060016040528060008152602001600073ffffffffffffffffffffffffffffffffffffffff168152602001600061ffff1681525090565b828054612cc8906140b1565b90600052602060002090601f016020900481019282612cea5760008555612d31565b82601f10612d0357805160ff1916838001178555612d31565b82800160010185558215612d31579182015b82811115612d30578251825591602001919060010190612d15565b5b509050612d3e9190612dc8565b5090565b828054612d4e906140b1565b90600052602060002090601f016020900481019282612d705760008555612db7565b82601f10612d8957803560ff1916838001178555612db7565b82800160010185558215612db7579182015b82811115612db6578235825591602001919060010190612d9b565b5b509050612dc49190612dc8565b5090565b5b80821115612de1576000816000905550600101612dc9565b5090565b6000612df8612df384613dff565b613dda565b905082815260208101848484011115612e1457612e13614290565b5b612e1f848285614045565b509392505050565b6000612e3a612e3584613e30565b613dda565b905082815260208101848484011115612e5657612e55614290565b5b612e61848285614045565b509392505050565b600081359050612e78816147d2565b92915050565b60008083601f840112612e9457612e9361427c565b5b8235905067ffffffffffffffff811115612eb157612eb0614277565b5b602083019150836060820283011115612ecd57612ecc61428b565b5b9250929050565b600081359050612ee3816147e9565b92915050565b600081359050612ef881614800565b92915050565b600081359050612f0d81614817565b92915050565b600081519050612f2281614817565b92915050565b600082601f830112612f3d57612f3c61427c565b5b8135612f4d848260208601612de5565b91505092915050565b60008083601f840112612f6c57612f6b61427c565b5b8235905067ffffffffffffffff811115612f8957612f88614277565b5b602083019150836001820283011115612fa557612fa461428b565b5b9250929050565b600082601f830112612fc157612fc061427c565b5b8135612fd1848260208601612e27565b91505092915050565b600060608284031215612ff057612fef614286565b5b612ffa6060613dda565b9050600061300a848285016130c2565b600083015250602061301e84828501612e69565b6020830152506040613032848285016130ad565b60408301525092915050565b60006040828403121561305457613053614281565b5b81905092915050565b60006040828403121561307357613072614286565b5b61307d6040613dda565b9050600061308d84828501612e69565b60008301525060206130a1848285016130ad565b60208301525092915050565b6000813590506130bc8161482e565b92915050565b6000813590506130d181614845565b92915050565b6000602082840312156130ed576130ec61429a565b5b60006130fb84828501612e69565b91505092915050565b6000806040838503121561311b5761311a61429a565b5b600061312985828601612e69565b925050602061313a85828601612e69565b9150509250929050565b60008060006060848603121561315d5761315c61429a565b5b600061316b86828701612e69565b935050602061317c86828701612e69565b925050604061318d868287016130c2565b9150509250925092565b600080600080608085870312156131b1576131b061429a565b5b60006131bf87828801612e69565b94505060206131d087828801612e69565b93505060406131e1878288016130c2565b925050606085013567ffffffffffffffff81111561320257613201614295565b5b61320e87828801612f28565b91505092959194509250565b600080604083850312156132315761323061429a565b5b600061323f85828601612e69565b925050602061325085828601612ed4565b9150509250929050565b600080604083850312156132715761327061429a565b5b600061327f85828601612e69565b9250506020613290858286016130c2565b9150509250929050565b600080600080606085870312156132b4576132b361429a565b5b60006132c287828801612e69565b94505060206132d3878288016130c2565b935050604085013567ffffffffffffffff8111156132f4576132f3614295565b5b61330087828801612f56565b925092505092959194509250565b600080602083850312156133255761332461429a565b5b600083013567ffffffffffffffff81111561334357613342614295565b5b61334f85828601612e7e565b92509250509250929050565b6000602082840312156133715761337061429a565b5b600061337f84828501612ee9565b91505092915050565b6000806040838503121561339f5761339e61429a565b5b60006133ad85828601612ee9565b92505060206133be85828601612e69565b9150509250929050565b6000602082840312156133de576133dd61429a565b5b60006133ec84828501612efe565b91505092915050565b60006020828403121561340b5761340a61429a565b5b600061341984828501612f13565b91505092915050565b600080600080600060a0868803121561343e5761343d61429a565b5b600086013567ffffffffffffffff81111561345c5761345b614295565b5b61346888828901612fac565b955050602086013567ffffffffffffffff81111561348957613488614295565b5b61349588828901612fac565b94505060406134a688828901612e69565b93505060606134b7888289016130ad565b92505060806134c888828901612e69565b9150509295509295909350565b6000606082840312156134eb576134ea61429a565b5b60006134f984828501612fda565b91505092915050565b6000604082840312156135185761351761429a565b5b60006135268482850161303e565b91505092915050565b6000604082840312156135455761354461429a565b5b60006135538482850161305d565b91505092915050565b6000602082840312156135725761357161429a565b5b6000613580848285016130c2565b91505092915050565b600080604083850312156135a05761359f61429a565b5b60006135ae858286016130c2565b92505060206135bf858286016130c2565b9150509250929050565b6135d281613fb9565b82525050565b6135e181613fb9565b82525050565b6135f081613fcb565b82525050565b6135ff81613fd7565b82525050565b600061361082613e61565b61361a8185613e77565b935061362a818560208601614054565b6136338161429f565b840191505092915050565b600061364982613e6c565b6136538185613e88565b9350613663818560208601614054565b61366c8161429f565b840191505092915050565b600061368282613e6c565b61368c8185613e99565b935061369c818560208601614054565b80840191505092915050565b60006136b5602083613e88565b91506136c0826142b0565b602082019050919050565b60006136d8603283613e88565b91506136e3826142d9565b604082019050919050565b60006136fb601c83613e88565b915061370682614328565b602082019050919050565b600061371e602483613e88565b915061372982614351565b604082019050919050565b6000613741601983613e88565b915061374c826143a0565b602082019050919050565b6000613764602c83613e88565b915061376f826143c9565b604082019050919050565b6000613787603883613e88565b915061379282614418565b604082019050919050565b60006137aa602a83613e88565b91506137b582614467565b604082019050919050565b60006137cd602983613e88565b91506137d8826144b6565b604082019050919050565b60006137f0602e83613e88565b91506137fb82614505565b604082019050919050565b6000613813602083613e88565b915061381e82614554565b602082019050919050565b6000613836602c83613e88565b91506138418261457d565b604082019050919050565b6000613859602983613e88565b9150613864826145cc565b604082019050919050565b600061387c602f83613e88565b91506138878261461b565b604082019050919050565b600061389f600b83613e88565b91506138aa8261466a565b602082019050919050565b60006138c2602183613e88565b91506138cd82614693565b604082019050919050565b60006138e5603183613e88565b91506138f0826146e2565b604082019050919050565b6000613908601783613e99565b915061391382614731565b601782019050919050565b600061392b601183613e99565b91506139368261475a565b601182019050919050565b600061394e602f83613e88565b915061395982614783565b604082019050919050565b60608201600082015161397a60008501826139c4565b50602082015161398d60208501826135c9565b5060408201516139a060408501826139a6565b50505050565b6139af8161400d565b82525050565b6139be8161400d565b82525050565b6139cd8161403b565b82525050565b6139dc8161403b565b82525050565b60006139ed826138fb565b91506139f98285613677565b9150613a048261391e565b9150613a108284613677565b91508190509392505050565b6000602082019050613a3160008301846135d8565b92915050565b6000608082019050613a4c60008301876135d8565b613a5960208301866135d8565b613a6660408301856139d3565b8181036060830152613a788184613605565b905095945050505050565b6000604082019050613a9860008301856135d8565b613aa560208301846139b5565b9392505050565b6000604082019050613ac160008301856135d8565b613ace60208301846139d3565b9392505050565b6000602082019050613aea60008301846135e7565b92915050565b6000602082019050613b0560008301846135f6565b92915050565b60006020820190508181036000830152613b25818461363e565b905092915050565b60006020820190508181036000830152613b46816136a8565b9050919050565b60006020820190508181036000830152613b66816136cb565b9050919050565b60006020820190508181036000830152613b86816136ee565b9050919050565b60006020820190508181036000830152613ba681613711565b9050919050565b60006020820190508181036000830152613bc681613734565b9050919050565b60006020820190508181036000830152613be681613757565b9050919050565b60006020820190508181036000830152613c068161377a565b9050919050565b60006020820190508181036000830152613c268161379d565b9050919050565b60006020820190508181036000830152613c46816137c0565b9050919050565b60006020820190508181036000830152613c66816137e3565b9050919050565b60006020820190508181036000830152613c8681613806565b9050919050565b60006020820190508181036000830152613ca681613829565b9050919050565b60006020820190508181036000830152613cc68161384c565b9050919050565b60006020820190508181036000830152613ce68161386f565b9050919050565b60006020820190508181036000830152613d0681613892565b9050919050565b60006020820190508181036000830152613d26816138b5565b9050919050565b60006020820190508181036000830152613d46816138d8565b9050919050565b60006020820190508181036000830152613d6681613941565b9050919050565b6000606082019050613d826000830184613964565b92915050565b6000602082019050613d9d60008301846139d3565b92915050565b6000606082019050613db860008301866139d3565b613dc560208301856135d8565b613dd260408301846139b5565b949350505050565b6000613de4613df5565b9050613df082826140e3565b919050565b6000604051905090565b600067ffffffffffffffff821115613e1a57613e19614248565b5b613e238261429f565b9050602081019050919050565b600067ffffffffffffffff821115613e4b57613e4a614248565b5b613e548261429f565b9050602081019050919050565b600081519050919050565b600081519050919050565b600082825260208201905092915050565b600082825260208201905092915050565b600081905092915050565b6000613eaf8261403b565b9150613eba8361403b565b9250827fffffffffffffffffffffffffffffffffffffffffffffffffffffffffffffffff03821115613eef57613eee61415d565b5b828201905092915050565b6000613f058261403b565b9150613f108361403b565b925082613f2057613f1f61418c565b5b828204905092915050565b6000613f368261403b565b9150613f418361403b565b9250817fffffffffffffffffffffffffffffffffffffffffffffffffffffffffffffffff0483118215151615613f7a57613f7961415d565b5b828202905092915050565b6000613f908261403b565b9150613f9b8361403b565b925082821015613fae57613fad61415d565b5b828203905092915050565b6000613fc48261401b565b9050919050565b60008115159050919050565b6000819050919050565b60007fffffffff0000000000000000000000000000000000000000000000000000000082169050919050565b600061ffff82169050919050565b600073ffffffffffffffffffffffffffffffffffffffff82169050919050565b6000819050919050565b82818337600083830152505050565b60005b83811015614072578082015181840152602081019050614057565b83811115614081576000848401525b50505050565b60006140928261403b565b915060008214156140a6576140a561415d565b5b600182039050919050565b600060028204905060018216806140c957607f821691505b602082108114156140dd576140dc6141bb565b5b50919050565b6140ec8261429f565b810181811067ffffffffffffffff8211171561410b5761410a614248565b5b80604052505050565b600061411f8261403b565b91507fffffffffffffffffffffffffffffffffffffffffffffffffffffffffffffffff8214156141525761415161415d565b5b600182019050919050565b7f4e487b7100000000000000000000000000000000000000000000000000000000600052601160045260246000fd5b7f4e487b7100000000000000000000000000000000000000000000000000000000600052601260045260246000fd5b7f4e487b7100000000000000000000000000000000000000000000000000000000600052602260045260246000fd5b7f4e487b7100000000000000000000000000000000000000000000000000000000600052603160045260246000fd5b7f4e487b7100000000000000000000000000000000000000000000000000000000600052603260045260246000fd5b7f4e487b7100000000000000000000000000000000000000000000000000000000600052604160045260246000fd5b600080fd5b600080fd5b600080fd5b600080fd5b600080fd5b600080fd5b600080fd5b600080fd5b6000601f19601f8301169050919050565b7f537472696e67733a20686578206c656e67746820696e73756666696369656e74600082015250565b7f4552433732313a207472616e7366657220746f206e6f6e20455243373231526560008201527f63656976657220696d706c656d656e7465720000000000000000000000000000602082015250565b7f4552433732313a20746f6b656e20616c7265616479206d696e74656400000000600082015250565b7f4552433732313a207472616e7366657220746f20746865207a65726f2061646460008201527f7265737300000000000000000000000000000000000000000000000000000000602082015250565b7f4552433732313a20617070726f766520746f2063616c6c657200000000000000600082015250565b7f4552433732313a206f70657261746f7220717565727920666f72206e6f6e657860008201527f697374656e7420746f6b656e0000000000000000000000000000000000000000602082015250565b7f4552433732313a20617070726f76652063616c6c6572206973206e6f74206f7760008201527f6e6572206e6f7220617070726f76656420666f7220616c6c0000000000000000602082015250565b7f4552433732313a2062616c616e636520717565727920666f7220746865207a6560008201527f726f206164647265737300000000000000000000000000000000000000000000602082015250565b7f4552433732313a206f776e657220717565727920666f72206e6f6e657869737460008201527f656e7420746f6b656e0000000000000000000000000000000000000000000000602082015250565b7f496e697469616c697a61626c653a20636f6e747261637420697320616c72656160008201527f647920696e697469616c697a6564000000000000000000000000000000000000602082015250565b7f4552433732313a206d696e7420746f20746865207a65726f2061646472657373600082015250565b7f4552433732313a20617070726f76656420717565727920666f72206e6f6e657860008201527f697374656e7420746f6b656e0000000000000000000000000000000000000000602082015250565b7f4552433732313a207472616e73666572206f6620746f6b656e2074686174206960008201527f73206e6f74206f776e0000000000000000000000000000000000000000000000602082015250565b7f4552433732314d657461646174613a2055524920717565727920666f72206e6f60008201527f6e6578697374656e7420746f6b656e0000000000000000000000000000000000602082015250565b7f496e76616c696420627073000000000000000000000000000000000000000000600082015250565b7f4552433732313a20617070726f76616c20746f2063757272656e74206f776e6560008201527f7200000000000000000000000000000000000000000000000000000000000000602082015250565b7f4552433732313a207472616e736665722063616c6c6572206973206e6f74206f60008201527f776e6572206e6f7220617070726f766564000000000000000000000000000000602082015250565b7f416363657373436f6e74726f6c3a206163636f756e7420000000000000000000600082015250565b7f206973206d697373696e6720726f6c6520000000000000000000000000000000600082015250565b7f416363657373436f6e74726f6c3a2063616e206f6e6c792072656e6f756e636560008201527f20726f6c657320666f722073656c660000000000000000000000000000000000602082015250565b6147db81613fb9565b81146147e657600080fd5b50565b6147f281613fcb565b81146147fd57600080fd5b50565b61480981613fd7565b811461481457600080fd5b50565b61482081613fe1565b811461482b57600080fd5b50565b6148378161400d565b811461484257600080fd5b50565b61484e8161403b565b811461485957600080fd5b5056fea264697066735822122002661c00b313cd1c14923e23c86f6f43e2e05eaaf983bea9c1c47d29d3418af564736f6c63430008060033",
  "immutableReferences": {},
  "source": "// SPDX-License-Identifier: MIT\r\n\r\npragma solidity ^0.8.0;\r\n\r\nimport \"@openzeppelin/contracts/access/AccessControl.sol\";\r\nimport \"@openzeppelin/contracts/token/ERC721/ERC721.sol\";\r\nimport \"@openzeppelin/contracts/proxy/utils/Initializable.sol\";\r\n\r\nimport \"./ERC721WithRoyaltyCore.sol\";\r\n\r\ncontract ERC721WithRoyalty is ERC721WithRoyaltyCore, ERC721, AccessControl, Initializable {\r\n    bytes32 public constant ADMIN = keccak256(\"ADMIN\");\r\n\r\n    mapping(uint256 => string) private tokenToUri;\r\n\r\n    string private _proxiedName;\r\n    string private _proxiedSymbol;\r\n\r\n    constructor() ERC721(\"\", \"\") {}\r\n\r\n    function initialize(\r\n        string memory _name,\r\n        string memory _symbol,\r\n        address _royaltyReceiver,\r\n        uint16 _royaltyPercentage,\r\n        address admin\r\n    ) external initializer {\r\n        _proxiedName = _name;\r\n        _proxiedSymbol = _symbol;\r\n        _setDefaultRoyalty(TokenRoyalty({recipient: _royaltyReceiver, bps: _royaltyPercentage}));\r\n        _setupRole(ADMIN, admin);\r\n    }\r\n\r\n    function setTokenRoyalties(TokenRoyaltyConfig[] calldata royaltyConfigs)\r\n        external\r\n        override\r\n        onlyRole(ADMIN)\r\n    {\r\n        _setTokenRoyalties(royaltyConfigs);\r\n    }\r\n\r\n    function setDefaultRoyalty(TokenRoyalty calldata royalty) external override onlyRole(ADMIN) {\r\n        _setDefaultRoyalty(royalty);\r\n    }\r\n\r\n    function exists(uint256 tokenId) public view returns (bool) {\r\n        return _exists(tokenId);\r\n    }\r\n\r\n    function mintWithId(\r\n        address to,\r\n        uint256 tokenId,\r\n        string calldata uri\r\n    ) public onlyRole(ADMIN) {\r\n        _mint(to, tokenId, uri);\r\n    }\r\n\r\n    function burn(uint256 tokenId) public {\r\n        _burn(tokenId);\r\n    }\r\n\r\n    function tokenURI(uint256 tokenId) public view override returns (string memory) {\r\n        require(_exists(tokenId), \"ERC721Metadata: URI query for nonexistent token\");\r\n\r\n        return tokenToUri[tokenId];\r\n    }\r\n\r\n    function supportsInterface(bytes4 interfaceId)\r\n        public\r\n        view\r\n        virtual\r\n        override(ERC721, ERC721WithRoyaltyCore, AccessControl)\r\n        returns (bool)\r\n    {\r\n        return super.supportsInterface(interfaceId);\r\n    }\r\n\r\n    function _mint(\r\n        address to,\r\n        uint256 tokenId,\r\n        string calldata uri\r\n    ) private {\r\n        super._mint(to, tokenId);\r\n        tokenToUri[tokenId] = uri;\r\n    }\r\n\r\n    function _safeMint(\r\n        address to,\r\n        uint256 tokenId,\r\n        string calldata uri // bytes memory _data\r\n    ) private {\r\n        super._safeMint(to, tokenId);\r\n        tokenToUri[tokenId] = uri;\r\n    }\r\n\r\n    function _safeMint(\r\n        address to,\r\n        uint256 tokenId,\r\n        string calldata uri,\r\n        bytes memory _data\r\n    ) private {\r\n        super._safeMint(to, tokenId, _data);\r\n        tokenToUri[tokenId] = uri;\r\n    }\r\n\r\n    function name() public view virtual override returns (string memory) {\r\n        return _proxiedName;\r\n    }\r\n\r\n    function symbol() public view virtual override returns (string memory) {\r\n        return _proxiedSymbol;\r\n    }\r\n}\r\n",
  "sourcePath": "/Users/angelsatorresalmenara/Desktop/privi-pods-smart-contract/contracts/implementations/ERC721Royalty/ERC721WithRoyalty.sol",
  "compiler": {
    "name": "solc",
    "version": "0.8.6+commit.11564f7e.Emscripten.clang"
  },
  "schemaVersion": "3.4.3",
  "updatedAt": "2021-11-16T21:42:25.749Z",
  "networkType": "ethereum",
  "devdoc": {
    "kind": "dev",
    "methods": {
      "approve(address,uint256)": {
        "details": "See {IERC721-approve}."
      },
      "balanceOf(address)": {
        "details": "See {IERC721-balanceOf}."
      },
      "getApproved(uint256)": {
        "details": "See {IERC721-getApproved}."
      },
      "getRoleAdmin(bytes32)": {
        "details": "Returns the admin role that controls `role`. See {grantRole} and {revokeRole}. To change a role's admin, use {_setRoleAdmin}."
      },
      "getTokenRoyaltiesCount()": {
        "details": "See {IEIP2981RoyaltyOverride-getTokenRoyaltiesCount}."
      },
      "getTokenRoyaltyByIndex(uint256)": {
        "details": "See {IEIP2981RoyaltyOverride-getTokenRoyaltyByIndex}."
      },
      "grantRole(bytes32,address)": {
        "details": "Grants `role` to `account`. If `account` had not been already granted `role`, emits a {RoleGranted} event. Requirements: - the caller must have ``role``'s admin role."
      },
      "hasRole(bytes32,address)": {
        "details": "Returns `true` if `account` has been granted `role`."
      },
      "isApprovedForAll(address,address)": {
        "details": "See {IERC721-isApprovedForAll}."
      },
      "name()": {
        "details": "See {IERC721Metadata-name}."
      },
      "ownerOf(uint256)": {
        "details": "See {IERC721-ownerOf}."
      },
      "renounceRole(bytes32,address)": {
        "details": "Revokes `role` from the calling account. Roles are often managed via {grantRole} and {revokeRole}: this function's purpose is to provide a mechanism for accounts to lose their privileges if they are compromised (such as when a trusted device is misplaced). If the calling account had been granted `role`, emits a {RoleRevoked} event. Requirements: - the caller must be `account`."
      },
      "revokeRole(bytes32,address)": {
        "details": "Revokes `role` from `account`. If `account` had been granted `role`, emits a {RoleRevoked} event. Requirements: - the caller must have ``role``'s admin role."
      },
      "royaltyInfo(uint256,uint256)": {
        "details": "See {IEIP2981RoyaltyOverride-royaltyInfo}."
      },
      "safeTransferFrom(address,address,uint256)": {
        "details": "See {IERC721-safeTransferFrom}."
      },
      "safeTransferFrom(address,address,uint256,bytes)": {
        "details": "See {IERC721-safeTransferFrom}."
      },
      "setApprovalForAll(address,bool)": {
        "details": "See {IERC721-setApprovalForAll}."
      },
      "setDefaultRoyalty((address,uint16))": {
        "details": "Set a default royalty configuration.  Will be used if no token specific configuration is set"
      },
      "symbol()": {
        "details": "See {IERC721Metadata-symbol}."
      },
      "tokenURI(uint256)": {
        "details": "See {IERC721Metadata-tokenURI}."
      },
      "transferFrom(address,address,uint256)": {
        "details": "See {IERC721-transferFrom}."
      }
    },
    "version": 1
  },
  "userdoc": {
    "kind": "user",
    "methods": {},
    "version": 1
  }
}