{
  "contractName": "ERC721Auction",
  "abi": [
    {
      "anonymous": false,
      "inputs": [
        {
          "indexed": true,
          "internalType": "address",
          "name": "tokenContractAddress",
          "type": "address"
        },
        {
          "indexed": true,
          "internalType": "uint256",
          "name": "tokenId",
          "type": "uint256"
        }
      ],
      "name": "AuctionCreated",
      "type": "event"
    },
    {
      "anonymous": false,
      "inputs": [
        {
          "indexed": true,
          "internalType": "address",
          "name": "tokenContractAddress",
          "type": "address"
        },
        {
          "indexed": true,
          "internalType": "uint256",
          "name": "tokenId",
          "type": "uint256"
        }
      ],
      "name": "AuctionEnded",
      "type": "event"
    },
    {
      "anonymous": false,
      "inputs": [
        {
          "indexed": true,
          "internalType": "address",
          "name": "tokenContractAddress",
          "type": "address"
        },
        {
          "indexed": true,
          "internalType": "uint256",
          "name": "tokenId",
          "type": "uint256"
        },
        {
          "indexed": true,
          "internalType": "address",
          "name": "bidder",
          "type": "address"
        },
        {
          "indexed": false,
          "internalType": "uint256",
          "name": "bidAmount",
          "type": "uint256"
        }
      ],
      "name": "BidPlaced",
      "type": "event"
    },
    {
      "anonymous": false,
      "inputs": [
        {
          "indexed": true,
          "internalType": "address",
          "name": "tokenContractAddress",
          "type": "address"
        },
        {
          "indexed": true,
          "internalType": "uint256",
          "name": "tokenId",
          "type": "uint256"
        },
        {
          "indexed": true,
          "internalType": "address",
          "name": "owner",
          "type": "address"
        },
        {
          "indexed": false,
          "internalType": "uint256",
          "name": "returnAmount",
          "type": "uint256"
        }
      ],
      "name": "FundReturned",
      "type": "event"
    },
    {
      "anonymous": false,
      "inputs": [
        {
          "indexed": true,
          "internalType": "address",
          "name": "tokenContractAddress",
          "type": "address"
        },
        {
          "indexed": true,
          "internalType": "uint256",
          "name": "tokenId",
          "type": "uint256"
        },
        {
          "indexed": true,
          "internalType": "address",
          "name": "owner",
          "type": "address"
        },
        {
          "indexed": false,
          "internalType": "uint256",
          "name": "withdrawAmount",
          "type": "uint256"
        }
      ],
      "name": "FundWithdrawn",
      "type": "event"
    },
    {
      "inputs": [
        {
          "internalType": "address",
          "name": "",
          "type": "address"
        },
        {
          "internalType": "uint256",
          "name": "",
          "type": "uint256"
        }
      ],
      "name": "auctions",
      "outputs": [
        {
          "internalType": "address",
          "name": "owner",
          "type": "address"
        },
        {
          "internalType": "uint256",
          "name": "startPrice",
          "type": "uint256"
        },
        {
          "internalType": "uint256",
          "name": "startTime",
          "type": "uint256"
        },
        {
          "internalType": "uint256",
          "name": "endTime",
          "type": "uint256"
        },
        {
          "internalType": "uint256",
          "name": "fee",
          "type": "uint256"
        },
        {
          "internalType": "address",
          "name": "fundTokenAddress",
          "type": "address"
        },
        {
          "internalType": "bool",
          "name": "created",
          "type": "bool"
        }
      ],
      "stateMutability": "view",
      "type": "function",
      "constant": true
    },
    {
      "inputs": [
        {
          "internalType": "address",
          "name": "",
          "type": "address"
        },
        {
          "internalType": "uint256",
          "name": "",
          "type": "uint256"
        }
      ],
      "name": "availableFunds",
      "outputs": [
        {
          "internalType": "uint256",
          "name": "",
          "type": "uint256"
        }
      ],
      "stateMutability": "view",
      "type": "function",
      "constant": true
    },
    {
      "inputs": [
        {
          "internalType": "address",
          "name": "",
          "type": "address"
        },
        {
          "internalType": "uint256",
          "name": "",
          "type": "uint256"
        },
        {
          "internalType": "uint256",
          "name": "",
          "type": "uint256"
        }
      ],
      "name": "bids",
      "outputs": [
        {
          "internalType": "address",
          "name": "bidder",
          "type": "address"
        },
        {
          "internalType": "uint256",
          "name": "bidAmount",
          "type": "uint256"
        },
        {
          "internalType": "uint256",
          "name": "actualBidAmount",
          "type": "uint256"
        },
        {
          "internalType": "uint256",
          "name": "bidTime",
          "type": "uint256"
        }
      ],
      "stateMutability": "view",
      "type": "function",
      "constant": true
    },
    {
      "inputs": [
        {
          "internalType": "address",
          "name": "_tokenContractAddress",
          "type": "address"
        },
        {
          "internalType": "uint256",
          "name": "_tokenId",
          "type": "uint256"
        },
        {
          "internalType": "uint256",
          "name": "_startPrice",
          "type": "uint256"
        },
        {
          "internalType": "uint256",
          "name": "_startTimestamp",
          "type": "uint256"
        },
        {
          "internalType": "uint256",
          "name": "_endTimestamp",
          "type": "uint256"
        },
        {
          "internalType": "uint256",
          "name": "_fee",
          "type": "uint256"
        },
        {
          "internalType": "address",
          "name": "_fundTokenAddress",
          "type": "address"
        }
      ],
      "name": "createAuction",
      "outputs": [],
      "stateMutability": "nonpayable",
      "type": "function"
    },
    {
      "inputs": [
        {
          "internalType": "address",
          "name": "_tokenContractAddress",
          "type": "address"
        },
        {
          "internalType": "uint256",
          "name": "_tokenId",
          "type": "uint256"
        },
        {
          "internalType": "uint256",
          "name": "_bidAmount",
          "type": "uint256"
        }
      ],
      "name": "placeBid",
      "outputs": [],
      "stateMutability": "nonpayable",
      "type": "function"
    },
    {
      "inputs": [
        {
          "internalType": "address",
          "name": "_tokenContractAddress",
          "type": "address"
        },
        {
          "internalType": "uint256",
          "name": "_tokenId",
          "type": "uint256"
        },
        {
          "internalType": "uint256",
          "name": "_withdrawAmount",
          "type": "uint256"
        }
      ],
      "name": "withdrawFunds",
      "outputs": [],
      "stateMutability": "nonpayable",
      "type": "function"
    },
    {
      "inputs": [
        {
          "internalType": "address",
          "name": "_tokenContractAddress",
          "type": "address"
        },
        {
          "internalType": "uint256",
          "name": "_tokenId",
          "type": "uint256"
        },
        {
          "internalType": "uint256",
          "name": "_returnAmount",
          "type": "uint256"
        }
      ],
      "name": "returnFunds",
      "outputs": [],
      "stateMutability": "nonpayable",
      "type": "function"
    },
    {
      "inputs": [
        {
          "internalType": "address",
          "name": "_tokenContractAddress",
          "type": "address"
        },
        {
          "internalType": "uint256",
          "name": "_tokenId",
          "type": "uint256"
        }
      ],
      "name": "endAuction",
      "outputs": [],
      "stateMutability": "nonpayable",
      "type": "function"
    },
    {
      "inputs": [
        {
          "internalType": "address",
          "name": "_tokenContractAddress",
          "type": "address"
        },
        {
          "internalType": "uint256",
          "name": "_tokenId",
          "type": "uint256"
        }
      ],
      "name": "getAuction",
      "outputs": [
        {
          "components": [
            {
              "internalType": "address",
              "name": "owner",
              "type": "address"
            },
            {
              "internalType": "uint256",
              "name": "startPrice",
              "type": "uint256"
            },
            {
              "internalType": "uint256",
              "name": "startTime",
              "type": "uint256"
            },
            {
              "internalType": "uint256",
              "name": "endTime",
              "type": "uint256"
            },
            {
              "internalType": "uint256",
              "name": "fee",
              "type": "uint256"
            },
            {
              "internalType": "address",
              "name": "fundTokenAddress",
              "type": "address"
            },
            {
              "internalType": "bool",
              "name": "created",
              "type": "bool"
            }
          ],
          "internalType": "struct ERC721Auction.Auction",
          "name": "",
          "type": "tuple"
        }
      ],
      "stateMutability": "view",
      "type": "function",
      "constant": true
    },
    {
      "inputs": [
        {
          "internalType": "address",
          "name": "_tokenContractAddress",
          "type": "address"
        },
        {
          "internalType": "uint256",
          "name": "_tokenId",
          "type": "uint256"
        }
      ],
      "name": "getBidList",
      "outputs": [
        {
          "components": [
            {
              "internalType": "address",
              "name": "bidder",
              "type": "address"
            },
            {
              "internalType": "uint256",
              "name": "bidAmount",
              "type": "uint256"
            },
            {
              "internalType": "uint256",
              "name": "actualBidAmount",
              "type": "uint256"
            },
            {
              "internalType": "uint256",
              "name": "bidTime",
              "type": "uint256"
            }
          ],
          "internalType": "struct ERC721Auction.Bid[]",
          "name": "",
          "type": "tuple[]"
        }
      ],
      "stateMutability": "view",
      "type": "function",
      "constant": true
    },
    {
      "inputs": [
        {
          "internalType": "address",
          "name": "_tokenContractAddress",
          "type": "address"
        },
        {
          "internalType": "uint256",
          "name": "_tokenId",
          "type": "uint256"
        }
      ],
      "name": "getAvailableFunds",
      "outputs": [
        {
          "internalType": "uint256",
          "name": "",
          "type": "uint256"
        }
      ],
      "stateMutability": "view",
      "type": "function",
      "constant": true
    },
    {
      "inputs": [
        {
          "internalType": "address",
          "name": "",
          "type": "address"
        },
        {
          "internalType": "address",
          "name": "",
          "type": "address"
        },
        {
          "internalType": "uint256",
          "name": "",
          "type": "uint256"
        },
        {
          "internalType": "bytes",
          "name": "",
          "type": "bytes"
        }
      ],
      "name": "onERC721Received",
      "outputs": [
        {
          "internalType": "bytes4",
          "name": "",
          "type": "bytes4"
        }
      ],
      "stateMutability": "nonpayable",
      "type": "function"
    }
  ],
  "bytecode": "0x608060405234801561001057600080fd5b5060016000556129ff806100256000396000f3fe608060405234801561001057600080fd5b50600436106100b85760003560e060020a9004806370e635be1161007557806370e635be14610258578063762a66a2146102915780638237016b1461030957806388cedbc41461031c578063efb0ebf91461032f578063f54c02461461036557600080fd5b806304717aca146100bd5780630ded499b146100d2578063150b7a02146100e557806344f91c1e1461015257806346d02934146101fb57806354bbcb8614610238575b600080fd5b6100d06100cb36600461269b565b610378565b005b6100d06100e036600461269b565b6105b1565b61011c6100f336600461258f565b7f150b7a0200000000000000000000000000000000000000000000000000000000949350505050565b6040517fffffffff0000000000000000000000000000000000000000000000000000000090911681526020015b60405180910390f35b6101b761016036600461266f565b60016020818152600093845260408085209091529183529120805491810154600282015460038301546004840154600590940154600160a060020a03958616959394929391929181169060a060020a900460ff1687565b60408051600160a060020a03988916815260208101979097528601949094526060850192909252608084015290921660a082015290151560c082015260e001610149565b61020e61020936600461269b565b6108f7565b60408051600160a060020a0390951685526020850193909352918301526060820152608001610149565b61024b61024636600461266f565b610956565b6040516101499190612798565b61028361026636600461266f565b600260209081526000928352604080842090915290825290205481565b604051908152602001610149565b6102a461029f36600461266f565b6109ff565b6040516101499190600060e082019050600160a060020a03808451168352602084015160208401526040840151604084015260608401516060840152608084015160808401528060a08501511660a08401525060c0830151151560c083015292915050565b6100d06103173660046126d0565b610b2e565b6100d061032a36600461266f565b610e1a565b61028361033d36600461266f565b600160a060020a03919091166000908152600260209081526040808320938352929052205490565b6100d061037336600461269b565b611825565b600260005414156103a75760405160e560020a62461bcd02815260040161039e90612862565b60405180910390fd5b60026000908155600160a060020a0384168152600160208181526040808420868552909152909120600501548491849160a060020a900460ff161515146104035760405160e560020a62461bcd02815260040161039e90612899565b333b1561047b5760405160e560020a62461bcd02815260206004820152602860248201527f41756374696f6e2e706c6163654269643a204e6f20636f6e747261637473207060448201527f65726d6974746564000000000000000000000000000000000000000000000000606482015260840161039e565b600160a060020a038516600090815260016020908152604080832087845290915290206002015442101580156104d75750600160a060020a03851660009081526001602090815260408083208784529091529020600301544211155b61054c5760405160e560020a62461bcd02815260206004820152603760248201527f41756374696f6e2e706c6163654269643a2042696464696e67206f757473696460448201527f65206f66207468652061756374696f6e2077696e646f77000000000000000000606482015260840161039e565b610557858585611ac6565b33600160a060020a03168486600160a060020a03167f0158f5674dc243762459b88cfc91b10d2d1ef9d40821cca978c2b680aa4446828660405161059d91815260200190565b60405180910390a450506001600055505050565b600260005414156105d75760405160e560020a62461bcd02815260040161039e90612862565b60026000908155600160a060020a0384168152600160208181526040808420868552909152909120600501548491849160a060020a900460ff161515146106335760405160e560020a62461bcd02815260040161039e90612899565b600160a060020a0380861660009081526001602090815260408083208884529091529020548691869116331461067e5760405160e560020a62461bcd02815260040161039e90612805565b600160a060020a0387811660009081526001602090815260408083208a8452909152908190206005810154905491517f70a082310000000000000000000000000000000000000000000000000000000081529183166004830152879216906370a082319060240160206040518083038186803b1580156106fd57600080fd5b505afa158015610711573d6000803e3d6000fd5b505050506040513d601f19601f82011682018060405250810190610735919061275b565b10156107ac5760405160e560020a62461bcd02815260206004820152603f60248201527f41756374696f6e2e72657475726e46756e64733a2061756374696f6e206f776e60448201527f657220686173206e6f7420656e6f7567682072657475726e20616d6f756e7400606482015260840161039e565b600160a060020a0387811660009081526001602090815260408083208a8452909152908190206005810154905491517f23b872dd000000000000000000000000000000000000000000000000000000008152908316926323b872dd9261081b9291169030908a90600401612774565b602060405180830381600087803b15801561083557600080fd5b505af1158015610849573d6000803e3d6000fd5b505050506040513d601f19601f8201168201806040525081019061086d9190612739565b50600160a060020a0387166000908152600260209081526040808320898452909152812080548792906108a19084906128f6565b909155505060405185815233908790600160a060020a038a16907fd688ab91378039d94d309f920dce3fe9dcde2d15eeb6b92647185fc5ab262887906020015b60405180910390a4505060016000555050505050565b6003602052826000526040600020602052816000526040600020818154811061091f57600080fd5b60009182526020909120600490910201805460018201546002830154600390930154600160a060020a039092169550935090915084565b600160a060020a03821660009081526003602090815260408083208484528252808320805482518185028101850190935280835260609492939192909184015b828210156109f357600084815260209081902060408051608081018252600486029092018054600160a060020a03168352600180820154848601526002820154928401929092526003015460608301529083529092019101610996565b50505050905092915050565b610a536040518060e001604052806000600160a060020a03168152602001600081526020016000815260200160008152602001600081526020016000600160a060020a031681526020016000151581525090565b600160a060020a0383166000908152600160208181526040808420868552909152909120600501548491849160a060020a900460ff16151514610aab5760405160e560020a62461bcd02815260040161039e90612899565b505050600160a060020a03918216600090815260016020818152604080842094845293815291839020835160e081018552815486168152918101549282019290925260028201549281019290925260038101546060830152600481015460808301526005015491821660a082015260a060020a90910460ff16151560c082015290565b6040517f6352211e00000000000000000000000000000000000000000000000000000000815260048101879052600160a060020a0388169063e985e9c5908290636352211e9060240160206040518083038186803b158015610b8f57600080fd5b505afa158015610ba3573d6000803e3d6000fd5b505050506040513d601f19601f82011682018060405250810190610bc79190612572565b60405160e060020a63ffffffff8416028152600160a060020a03909116600482015230602482015260440160206040518083038186803b158015610c0a57600080fd5b505afa158015610c1e573d6000803e3d6000fd5b505050506040513d601f19601f82011682018060405250810190610c429190612739565b610cb75760405160e560020a62461bcd02815260206004820152602d60248201527f41756374696f6e2e63726561746541756374696f6e3a204f776e65722068617360448201527f206e6f7420617070726f76656400000000000000000000000000000000000000606482015260840161039e565b336040517f6352211e00000000000000000000000000000000000000000000000000000000815260048101889052600160a060020a0391821691891690636352211e9060240160206040518083038186803b158015610d1557600080fd5b505afa158015610d29573d6000803e3d6000fd5b505050506040513d601f19601f82011682018060405250810190610d4d9190612572565b600160a060020a031614610dcc5760405160e560020a62461bcd02815260206004820152602e60248201527f41756374696f6e2e63726561746541756374696f6e3a2043616c6c657220697360448201527f206e6f7420746865206f776e6572000000000000000000000000000000000000606482015260840161039e565b610ddb878787878787876121aa565b6040518690600160a060020a038916907f3249a06bd478adf780bb7930214ad005e9cfa517d63221c0b77f27199d1a58b390600090a350505050505050565b60026000541415610e405760405160e560020a62461bcd02815260040161039e90612862565b60026000908155600160a060020a0383168152600160208181526040808420858552909152909120600501548391839160a060020a900460ff16151514610e9c5760405160e560020a62461bcd02815260040161039e90612899565b600160a060020a038481166000908152600160208181526040808420888552825292839020835160e08101855281548616815292810154918301919091526002810154928201929092526003820154606082018190526004830154608083015260059092015492831660a082015260a060020a90920460ff16151560c0830152610f915760405160e560020a62461bcd02815260206004820152602a60248201527f41756374696f6e2e656e6441756374696f6e3a2041756374696f6e20646f657360448201527f206e6f7420657869737400000000000000000000000000000000000000000000606482015260840161039e565b6060810151421161100d5760405160e560020a62461bcd02815260206004820152602d60248201527f41756374696f6e2e656e6441756374696f6e3a205468652061756374696f6e2060448201527f686173206e6f7420656e64656400000000000000000000000000000000000000606482015260840161039e565b80516040517fe985e9c5000000000000000000000000000000000000000000000000000000008152600160a060020a0391821660048201523060248201529086169063e985e9c59060440160206040518083038186803b15801561107057600080fd5b505afa158015611084573d6000803e3d6000fd5b505050506040513d601f19601f820116820180604052508101906110a89190612739565b61111d5760405160e560020a62461bcd02815260206004820152602860248201527f41756374696f6e2e656e6441756374696f6e3a2061756374696f6e206e6f742060448201527f617070726f766564000000000000000000000000000000000000000000000000606482015260840161039e565b600160a060020a0385166000908152600360209081526040808320878452909152902080546111915760405160e560020a62461bcd02815260206004820181905260248201527f41756374696f6e2e656e6441756374696f6e3a206e6f20626964206578697374604482015260640161039e565b600160a060020a038616600090815260016020908152604080832088845290915281206002810154600390910154611283916111cd91906124de565b600160a060020a03891660009081526001602090815260408083208b84529091529020600201546112779061120490425b906124de565b600160a060020a038b1660009081526001602081815260408084208e855290915290912060040154875461127d926064926112779290918b916112479190612952565b8154811061125757611257612982565b9060005260206000209060040201600201546124f190919063ffffffff16565b906124fd565b906124f1565b9050600081836001858054905061129a9190612952565b815481106112aa576112aa612982565b9060005260206000209060040201600201546112c691906128f6565b600160a060020a03891660009081526002602090815260408083208b845290915290205490915081111561148e5787600160a060020a03166342842e0e3085600187805490506113169190612952565b8154811061132657611326612982565b600091825260209091206004918202015460405160e060020a63ffffffff86160281526113629392600160a060020a03909216918d9101612774565b600060405180830381600087803b15801561137c57600080fd5b505af1158015611390573d6000803e3d6000fd5b50505050600160a060020a0388811660008181526001602090815260408083208c8452825280832060058101549054948452600283528184208d855283528184205482517fa9059cbb00000000000000000000000000000000000000000000000000000000815295871660048701526024860152905194169363a9059cbb93604480820194918390030190829087803b15801561142c57600080fd5b505af1158015611440573d6000803e3d6000fd5b505050506040513d601f19601f820116820180604052508101906114649190612739565b50600160a060020a03881660009081526002602090815260408083208a8452909152812055611734565b600160a060020a0380891660009081526001602081815260408084208c85529091529091206005015485549216916323b872dd91309187916114cf91612952565b815481106114df576114df612982565b600091825260209091206004918202015460405160e060020a63ffffffff861602815261151b9392600160a060020a0390921691879101612774565b602060405180830381600087803b15801561153557600080fd5b505af1158015611549573d6000803e3d6000fd5b505050506040513d601f19601f8201168201806040525081019061156d9190612739565b50600160a060020a03881660009081526002602090815260408083208a8452909152812080548392906115a1908490612952565b9091555050600160a060020a0380891660008181526001602090815260408083208c8452909152908190205490517f42842e0e00000000000000000000000000000000000000000000000000000000815291926342842e0e9261160c92309216908c90600401612774565b600060405180830381600087803b15801561162657600080fd5b505af115801561163a573d6000803e3d6000fd5b50505050600160a060020a0388811660008181526001602090815260408083208c8452825280832060058101549054948452600283528184208d855283528184205482517fa9059cbb00000000000000000000000000000000000000000000000000000000815295871660048701526024860152905194169363a9059cbb93604480820194918390030190829087803b1580156116d657600080fd5b505af11580156116ea573d6000803e3d6000fd5b505050506040513d601f19601f8201168201806040525081019061170e9190612739565b50600160a060020a03881660009081526002602090815260408083208a84529091528120555b600160a060020a03881660009081526003602090815260408083208a8452909152812061176091612509565b600160a060020a03881660008181526001602081815260408084208c85528252808420805473ffffffffffffffffffffffffffffffffffffffff19168155928301849055600280840185905560038401859055600484018590556005909301805474ffffffffffffffffffffffffffffffffffffffffff191690558484529181528183208b84529052808220829055518992917fdaec4582d5d9595688c8c98545fdd1c696d41c6aeaeb636737e84ed2f5c00eda91a350506001600055505050505050565b6002600054141561184b5760405160e560020a62461bcd02815260040161039e90612862565b60026000908155600160a060020a0384168152600160208181526040808420868552909152909120600501548491849160a060020a900460ff161515146118a75760405160e560020a62461bcd02815260040161039e90612899565b600160a060020a038086166000908152600160209081526040808320888452909152902054869186911633146118f25760405160e560020a62461bcd02815260040161039e90612805565b600160a060020a038716600090815260026020908152604080832089845290915290205485111561198e5760405160e560020a62461bcd02815260206004820152602760248201527f41756374696f6e2e776974686472617746756e64733a206e6f7420656e6f756760448201527f682066756e647300000000000000000000000000000000000000000000000000606482015260840161039e565b600160a060020a0387811660009081526001602090815260408083208a8452909152908190206005810154905491517fa9059cbb0000000000000000000000000000000000000000000000000000000081529183166004830152602482018890529091169063a9059cbb90604401602060405180830381600087803b158015611a1657600080fd5b505af1158015611a2a573d6000803e3d6000fd5b505050506040513d601f19601f82011682018060405250810190611a4e9190612739565b50600160a060020a038716600090815260026020908152604080832089845290915281208054879290611a82908490612952565b909155505060405185815233908790600160a060020a038a16907fd3dffdabf4b992d93ac8e6ce516bb7ad251d1a04b5f1154b2b48e0a19841caed906020016108e1565b600160a060020a0383166000908152600360209081526040808320858452909152812080549091839115611bab57600160a060020a038616600090815260016020908152604080832088845290915290206002810154600390910154611ba891611b3091906124de565b600160a060020a03881660009081526001602090815260408083208a845290915290206002015461127790611b6590426111fe565b600160a060020a038a1660009081526001602081815260408084208d855290915290912060040154885461127d926064926112779290918c916112479190612952565b90505b6000611bb782846128f6565b845490915015611cb15783546000908590611bd490600190612952565b81548110611be457611be4612982565b60009182526020918290206040805160808101825260049093029091018054600160a060020a03168352600181015493830193909352600283015490820181905260039092015460608201529150808511611caa5760405160e560020a62461bcd02815260206004820152603160248201527f41756374696f6e2e706c6163654269643a204661696c656420746f206f75746260448201527f6964206869676865737420626964646572000000000000000000000000000000606482015260840161039e565b5050611d4f565b600160a060020a03871660009081526001602081815260408084208a85529091529091200154811015611d4f5760405160e560020a62461bcd02815260206004820152603e60248201527f41756374696f6e2e706c6163654269643a2042696420616d6f756e742073686f60448201527f756c6420626520686967686572207468616e2073746172742070726963650000606482015260840161039e565b600160a060020a0387811660009081526001602090815260408083208a84529091529020600501548291166370a082313360405160e060020a63ffffffff8416028152600160a060020a03909116600482015260240160206040518083038186803b158015611dbd57600080fd5b505afa158015611dd1573d6000803e3d6000fd5b505050506040513d601f19601f82011682018060405250810190611df5919061275b565b1015611e6c5760405160e560020a62461bcd02815260206004820152602f60248201527f41756374696f6e2e706c6163654269643a2062696464657220686173206e6f7460448201527f20656e6f7567682062616c616e63650000000000000000000000000000000000606482015260840161039e565b611ea060405180608001604052806000600160a060020a031681526020016000815260200160008152602001600081525090565b338082526020808301868152604080850186815242606087019081528a5460018082018d5560008d81528781208a516004948502909101805473ffffffffffffffffffffffffffffffffffffffff1916600160a060020a039283161781559751888401559451600288015592516003909601959095558e831682529385528281208d8252909452928190206005015490517f23b872dd0000000000000000000000000000000000000000000000000000000081529216926323b872dd92611f6b923091889101612774565b602060405180830381600087803b158015611f8557600080fd5b505af1158015611f99573d6000803e3d6000fd5b505050506040513d601f19601f82011682018060405250810190611fbd9190612739565b50600160a060020a03881660009081526002602090815260408083208a845290915281208054849290611ff19084906128f6565b90915550508454600110156121a057600160a060020a0380891660009081526001602090815260408083208b8452909152902060050154865491169063a9059cbb90879061204190600290612952565b8154811061205157612051612982565b60009182526020909120600490910201548754600160a060020a03909116908690899061208090600290612952565b8154811061209057612090612982565b9060005260206000209060040201600201546120ac91906128f6565b60405160e060020a63ffffffff8516028152600160a060020a0390921660048301526024820152604401602060405180830381600087803b1580156120f057600080fd5b505af1158015612104573d6000803e3d6000fd5b505050506040513d601f19601f820116820180604052508101906121289190612739565b5084548390869061213b90600290612952565b8154811061214b5761214b612982565b90600052602060002090600402016002015461216791906128f6565b600160a060020a03891660009081526002602090815260408083208b84529091528120805490919061219a908490612952565b90915550505b5050505050505050565b600160a060020a038716600090815260016020908152604080832089845290915290206005015460a060020a900460ff16156122515760405160e560020a62461bcd02815260206004820152603760248201527f41756374696f6e2e63726561746541756374696f6e3a2041756374696f6e206860448201527f6173206265656e20616c72656164792063726561746564000000000000000000606482015260840161039e565b8383116122c95760405160e560020a62461bcd02815260206004820152603a60248201527f41756374696f6e2e63726561746541756374696f6e3a20456e642074696d652060448201527f6d7573742062652067726561746572207468616e207374617274000000000000606482015260840161039e565b4283116123415760405160e560020a62461bcd02815260206004820152603660248201527f41756374696f6e2e63726561746541756374696f6e3a20456e642074696d652060448201527f7061737365642e204e6f626f64792063616e2062696400000000000000000000606482015260840161039e565b6040518060e001604052806123533390565b600160a060020a0316815260200186815260200185815260200184815260200183815260200182600160a060020a03168152602001600115158152506001600089600160a060020a0316600160a060020a03168152602001908152602001600020600088815260200190815260200160002060008201518160000160006101000a815481600160a060020a030219169083600160a060020a031602179055506020820151816001015560408201518160020155606082015181600301556080820151816004015560a08201518160050160006101000a815481600160a060020a030219169083600160a060020a0316021790555060c08201518160050160146101000a81548160ff02191690831515021790555090505086600160a060020a03166342842e0e6124803390565b30896040518463ffffffff1660e060020a0281526004016124a393929190612774565b600060405180830381600087803b1580156124bd57600080fd5b505af11580156124d1573d6000803e3d6000fd5b5050505050505050505050565b60006124ea8284612952565b9392505050565b60006124ea8284612933565b60006124ea828461290e565b508054600082556004029060005260206000209081019061252a919061252d565b50565b5b8082111561256e57805473ffffffffffffffffffffffffffffffffffffffff1916815560006001820181905560028201819055600382015560040161252e565b5090565b60006020828403121561258457600080fd5b81516124ea816129b4565b600080600080608085870312156125a557600080fd5b84356125b0816129b4565b935060208501356125c0816129b4565b925060408501359150606085013567ffffffffffffffff808211156125e457600080fd5b818701915087601f8301126125f857600080fd5b81358181111561260a5761260a61299b565b604051601f8201601f19908116603f011681019083821181831017156126325761263261299b565b816040528281528a602084870101111561264b57600080fd5b82602086016020830137600060208483010152809550505050505092959194509250565b6000806040838503121561268257600080fd5b823561268d816129b4565b946020939093013593505050565b6000806000606084860312156126b057600080fd5b83356126bb816129b4565b95602085013595506040909401359392505050565b600080600080600080600060e0888a0312156126eb57600080fd5b87356126f6816129b4565b96506020880135955060408801359450606088013593506080880135925060a0880135915060c0880135612729816129b4565b8091505092959891949750929550565b60006020828403121561274b57600080fd5b815180151581146124ea57600080fd5b60006020828403121561276d57600080fd5b5051919050565b600160a060020a039384168152919092166020820152604081019190915260600190565b602080825282518282018190526000919060409081850190868401855b828110156127f85781518051600160a060020a031685528681015187860152858101518686015260609081015190850152608090930192908501906001016127b5565b5091979650505050505050565b6020808252602b908201527f41756374696f6e2e6f6e6c7941756374696f6e4f776e65723a206e6f7420617560408201527f6374696f6e206f776e6572000000000000000000000000000000000000000000606082015260800190565b6020808252601f908201527f5265656e7472616e637947756172643a207265656e7472616e742063616c6c00604082015260600190565b60208082526032908201527f41756374696f6e2e6f6e6c794372656174656441756374696f6e3a204175637460408201527f696f6e20646f6573206e6f742065786973740000000000000000000000000000606082015260800190565b6000821982111561290957612909612969565b500190565b60008261292e5760e060020a634e487b7102600052601260045260246000fd5b500490565b600081600019048311821515161561294d5761294d612969565b500290565b60008282101561296457612964612969565b500390565b60e060020a634e487b7102600052601160045260246000fd5b60e060020a634e487b7102600052603260045260246000fd5b60e060020a634e487b7102600052604160045260246000fd5b600160a060020a038116811461252a57600080fdfea26469706673582212206a9f3fb2e458b077943ea4c0ee44dc62b095ad1c303c74ff73e1ba630c6f613a64736f6c63430008060033",
  "immutableReferences": {},
  "source": "// SPDX-License-Identifier: UNLICENSED\r\npragma solidity ^0.8.6;\r\n\r\nimport \"@openzeppelin/contracts/utils/Context.sol\";\r\nimport \"@openzeppelin/contracts/security/ReentrancyGuard.sol\";\r\nimport \"@openzeppelin/contracts/utils/math/SafeMath.sol\";\r\nimport \"@openzeppelin/contracts/utils/Address.sol\";\r\nimport \"@openzeppelin/contracts/token/ERC20/IERC20.sol\";\r\nimport \"@openzeppelin/contracts/token/ERC721/IERC721.sol\";\r\nimport \"@openzeppelin/contracts/token/ERC721/IERC721Receiver.sol\";\r\n\r\ncontract ERC721Auction is Context, IERC721Receiver, ReentrancyGuard {\r\n    using SafeMath for uint256;\r\n    using Address for address;\r\n\r\n    /// @notice Event emitted only on construction. To be used by indexers\r\n    event AuctionCreated(address indexed tokenContractAddress, uint256 indexed tokenId);\r\n    event AuctionEnded(address indexed tokenContractAddress, uint256 indexed tokenId);\r\n\r\n    event BidPlaced(\r\n        address indexed tokenContractAddress,\r\n        uint256 indexed tokenId,\r\n        address indexed bidder,\r\n        uint256 bidAmount\r\n    );\r\n\r\n    event FundWithdrawn(\r\n        address indexed tokenContractAddress,\r\n        uint256 indexed tokenId,\r\n        address indexed owner,\r\n        uint256 withdrawAmount\r\n    );\r\n\r\n    event FundReturned(\r\n        address indexed tokenContractAddress,\r\n        uint256 indexed tokenId,\r\n        address indexed owner,\r\n        uint256 returnAmount\r\n    );\r\n\r\n    /// @notice Parameters of an auction\r\n    struct Auction {\r\n        address owner;\r\n        uint256 startPrice;\r\n        uint256 startTime;\r\n        uint256 endTime;\r\n        uint256 fee; // percent\r\n        address fundTokenAddress;\r\n        bool created;\r\n    }\r\n\r\n    /// @notice Information about the sender that placed a bid on an auction\r\n    struct Bid {\r\n        address bidder;\r\n        uint256 bidAmount;\r\n        uint256 actualBidAmount;\r\n        uint256 bidTime;\r\n    }\r\n\r\n    /// @notice ERC721 Token Contract Address => Token ID -> Auction Parameters\r\n    mapping(address => mapping(uint256 => Auction)) public auctions;\r\n    mapping(address => mapping(uint256 => uint256)) public availableFunds;\r\n\r\n    /// @notice ERC721 Token ID -> bidder info (if a bid has been received)\r\n    mapping(address => mapping(uint256 => Bid[])) public bids;\r\n\r\n    modifier onlyCreatedAuction(address _tokenContractAddress, uint256 _tokenId) {\r\n        require(\r\n            auctions[_tokenContractAddress][_tokenId].created == true,\r\n            \"Auction.onlyCreatedAuction: Auction does not exist\"\r\n        );\r\n        _;\r\n    }\r\n\r\n    modifier onlyAuctionOwner(address _tokenContractAddress, uint256 _tokenId) {\r\n        require(\r\n            auctions[_tokenContractAddress][_tokenId].owner == _msgSender(),\r\n            \"Auction.onlyAuctionOwner: not auction owner\"\r\n        );\r\n        _;\r\n    }\r\n\r\n    /**\r\n     * @notice Creates a new auction for a given token\r\n     * @dev Only the owner of a token can create an auction and must have approved the contract\r\n     * @dev End time for the auction must be in the future.\r\n     * @param _tokenId Token ID of the token being auctioned\r\n     * @param _startTimestamp Unix epoch in seconds for the auction start time\r\n     * @param _endTimestamp Unix epoch in seconds for the auction end time.\r\n     * @param _fee percent which will be paid as a fee to the individual who provides the hightest loan amount\r\n     */\r\n    function createAuction(\r\n        address _tokenContractAddress,\r\n        uint256 _tokenId,\r\n        uint256 _startPrice,\r\n        uint256 _startTimestamp,\r\n        uint256 _endTimestamp,\r\n        uint256 _fee,\r\n        address _fundTokenAddress\r\n    ) external {\r\n        // Check owner of the token is the creator and approved\r\n        require(\r\n            IERC721(_tokenContractAddress).isApprovedForAll(IERC721(_tokenContractAddress).ownerOf(_tokenId), address(this)),\r\n            \"Auction.createAuction: Owner has not approved\"\r\n        );\r\n        require(\r\n            IERC721(_tokenContractAddress).ownerOf(_tokenId) == _msgSender(),\r\n            \"Auction.createAuction: Caller is not the owner\"\r\n        );\r\n\r\n        _createAuction(_tokenContractAddress ,_tokenId, _startPrice,_startTimestamp, _endTimestamp, _fee, _fundTokenAddress);\r\n\r\n        emit AuctionCreated(_tokenContractAddress, _tokenId);\r\n    }\r\n\r\n    /**\r\n     * @notice Places a new bid, out bidding the existing bidder if found and criteria is reached\r\n     * @dev Only callable when the auction is open\r\n     * @dev Bids from smart contracts are prohibited to prevent griefing with always reverting receiver\r\n     * @param _tokenId Token ID of the token being auctioned\r\n     */\r\n    function placeBid(address _tokenContractAddress, uint256 _tokenId, uint256 _bidAmount)\r\n        external\r\n        nonReentrant\r\n        onlyCreatedAuction(_tokenContractAddress, _tokenId)\r\n    {\r\n        require(\r\n            _msgSender().isContract() == false,\r\n            \"Auction.placeBid: No contracts permitted\"\r\n        );\r\n\r\n        // Ensure auction is in flight\r\n        require(\r\n            _getNow() >= auctions[_tokenContractAddress][_tokenId].startTime \r\n                && _getNow() <= auctions[_tokenContractAddress][_tokenId].endTime,\r\n            \"Auction.placeBid: Bidding outside of the auction window\"\r\n        );\r\n\r\n        _placeBid(_tokenContractAddress, _tokenId, _bidAmount);\r\n\r\n        emit BidPlaced(_tokenContractAddress, _tokenId, _msgSender(), _bidAmount);\r\n    }\r\n\r\n    /**\r\n     * @notice withdraw funds which deposit by bidders\r\n     * @dev Only callable when the auction is open\r\n     * @dev Only callable by auction owner\r\n     * @param _tokenId Token ID of the token being auctioned\r\n     * @param _withdrawAmount withdraw amount which owner want to withdraw\r\n     */\r\n    function withdrawFunds(address _tokenContractAddress, uint256 _tokenId, uint256 _withdrawAmount)\r\n        external\r\n        nonReentrant\r\n        onlyCreatedAuction(_tokenContractAddress, _tokenId)\r\n        onlyAuctionOwner(_tokenContractAddress, _tokenId)\r\n    {\r\n        require(\r\n            availableFunds[_tokenContractAddress][_tokenId] >= _withdrawAmount,\r\n            \"Auction.withdrawFunds: not enough funds\"\r\n        );\r\n\r\n        IERC20(auctions[_tokenContractAddress][_tokenId].fundTokenAddress)\r\n            .transfer(auctions[_tokenContractAddress][_tokenId].owner, _withdrawAmount);\r\n\r\n        availableFunds[_tokenContractAddress][_tokenId] -= _withdrawAmount;\r\n\r\n        emit FundWithdrawn(_tokenContractAddress, _tokenId, _msgSender(), _withdrawAmount);\r\n    }\r\n\r\n    /**\r\n     * @notice return funds which deposit by bidders\r\n     * @dev Only callable when the auction is open\r\n     * @dev Only callable by auction owner\r\n     * @param _tokenId Token ID of the token being auctioned\r\n     * @param _returnAmount return amount which owner want to return\r\n     */\r\n    function returnFunds(address _tokenContractAddress, uint256 _tokenId, uint256 _returnAmount)\r\n        external\r\n        nonReentrant\r\n        onlyCreatedAuction(_tokenContractAddress, _tokenId)\r\n        onlyAuctionOwner(_tokenContractAddress, _tokenId)\r\n    {\r\n        require(\r\n            IERC20(auctions[_tokenContractAddress][_tokenId].fundTokenAddress)\r\n                .balanceOf(auctions[_tokenContractAddress][_tokenId].owner) >= _returnAmount,\r\n            \"Auction.returnFunds: auction owner has not enough return amount\"\r\n        );\r\n\r\n        IERC20(auctions[_tokenContractAddress][_tokenId].fundTokenAddress)\r\n            .transferFrom(auctions[_tokenContractAddress][_tokenId].owner, address(this), _returnAmount);\r\n\r\n        availableFunds[_tokenContractAddress][_tokenId] += _returnAmount;\r\n\r\n        emit FundReturned(_tokenContractAddress, _tokenId, _msgSender(), _returnAmount);\r\n    }\r\n\r\n    /**\r\n     * @notice end Auction if time is over\r\n     * @param _tokenId Token ID of the token being auctioned\r\n     */\r\n    function endAuction(address _tokenContractAddress, uint256 _tokenId) \r\n        external \r\n        nonReentrant\r\n        onlyCreatedAuction(_tokenContractAddress, _tokenId)\r\n    {\r\n        Auction memory auction = auctions[_tokenContractAddress][_tokenId];\r\n\r\n        // Check the auction real\r\n        require(\r\n            auction.endTime > 0,\r\n            \"Auction.endAuction: Auction does not exist\"\r\n        );\r\n\r\n        // Check the auction has ended\r\n        require(\r\n            _getNow() > auction.endTime,\r\n            \"Auction.endAuction: The auction has not ended\"\r\n        );\r\n\r\n        // Ensure this contract is approved to move the token\r\n        require(\r\n            IERC721(_tokenContractAddress).isApprovedForAll(auction.owner, address(this)),\r\n            \"Auction.endAuction: auction not approved\"\r\n        );\r\n\r\n        Bid[] storage bidList = bids[_tokenContractAddress][_tokenId];\r\n        require(bidList.length > 0, \"Auction.endAuction: no bid exist\");\r\n\r\n        uint256 benefit;\r\n        benefit = bidList[bidList.length - 1].actualBidAmount.mul(auctions[_tokenContractAddress][_tokenId].fee).div(100)\r\n            .mul(_getNow().sub(auctions[_tokenContractAddress][_tokenId].startTime))\r\n            .div(auctions[_tokenContractAddress][_tokenId].endTime.sub(auctions[_tokenContractAddress][_tokenId].startTime));\r\n        uint256 returnFund = bidList[bidList.length - 1].actualBidAmount + benefit;\r\n\r\n        if(availableFunds[_tokenContractAddress][_tokenId] < returnFund) {\r\n            IERC721(_tokenContractAddress).safeTransferFrom(address(this), bidList[bidList.length - 1].bidder, _tokenId);\r\n            IERC20(auctions[_tokenContractAddress][_tokenId].fundTokenAddress)\r\n                .transfer(auctions[_tokenContractAddress][_tokenId].owner, availableFunds[_tokenContractAddress][_tokenId]);\r\n            availableFunds[_tokenContractAddress][_tokenId] = 0;\r\n        } else {\r\n            IERC20(auctions[_tokenContractAddress][_tokenId].fundTokenAddress)\r\n                .transferFrom(address(this), bidList[bidList.length - 1].bidder, returnFund);\r\n            availableFunds[_tokenContractAddress][_tokenId] -= returnFund;\r\n\r\n            IERC721(_tokenContractAddress).safeTransferFrom(address(this), auctions[_tokenContractAddress][_tokenId].owner, _tokenId);\r\n            IERC20(auctions[_tokenContractAddress][_tokenId].fundTokenAddress)\r\n                .transfer(auctions[_tokenContractAddress][_tokenId].owner, availableFunds[_tokenContractAddress][_tokenId]);\r\n            availableFunds[_tokenContractAddress][_tokenId] = 0;\r\n        }\r\n\r\n        // Clean up the highest bid\r\n        delete bids[_tokenContractAddress][_tokenId];\r\n        delete auctions[_tokenContractAddress][_tokenId];\r\n        delete availableFunds[_tokenContractAddress][_tokenId];\r\n        \r\n        emit AuctionEnded(_tokenContractAddress, _tokenId);\r\n    }\r\n\r\n    /**\r\n     * @notice Method for getting all info about the auction\r\n     * @param _tokenId Token ID of the token being auctioned\r\n     */\r\n    function getAuction(address _tokenContractAddress, uint256 _tokenId)\r\n        external\r\n        view\r\n        onlyCreatedAuction(_tokenContractAddress, _tokenId)\r\n        returns (Auction memory)\r\n    {\r\n        return auctions[_tokenContractAddress][_tokenId];\r\n    }\r\n\r\n    /**\r\n     * @notice Method for getting all info about the bids\r\n     * @param _tokenId Token ID of the token being auctioned\r\n     */\r\n    function getBidList(address _tokenContractAddress, uint256 _tokenId) public view returns (Bid[] memory) {\r\n        return bids[_tokenContractAddress][_tokenId];\r\n    }\r\n\r\n    /**\r\n     * @notice Method for getting available funds by tokenId\r\n     * @param _tokenId Token ID of the token being auctioned\r\n     */\r\n    function getAvailableFunds(address _tokenContractAddress, uint256 _tokenId) public view returns (uint) {\r\n        return availableFunds[_tokenContractAddress][_tokenId];\r\n    }\r\n\r\n    function _getNow() internal view virtual returns (uint256) {\r\n        return block.timestamp;\r\n    }\r\n\r\n    function _createAuction(\r\n        address _tokenContractAddress,\r\n        uint256 _tokenId,\r\n        uint256 _startPrice,\r\n        uint256 _startTimestamp,\r\n        uint256 _endTimestamp,\r\n        uint256 _fee,\r\n        address _fundTokenAddress\r\n    ) private {\r\n        // Check the auction alreay created\r\n        require(\r\n            auctions[_tokenContractAddress][_tokenId].created == false,\r\n            \"Auction.createAuction: Auction has been already created\"\r\n        );\r\n        // Check end time not before start time and that end is in the future\r\n        require(\r\n            _endTimestamp > _startTimestamp,\r\n            \"Auction.createAuction: End time must be greater than start\"\r\n        );\r\n        require(\r\n            _endTimestamp > _getNow(),\r\n            \"Auction.createAuction: End time passed. Nobody can bid\"\r\n        );\r\n\r\n        // Setup the auction\r\n        auctions[_tokenContractAddress][_tokenId] = Auction({\r\n            owner: _msgSender(),\r\n            startPrice: _startPrice,\r\n            startTime: _startTimestamp,\r\n            endTime: _endTimestamp,\r\n            fee: _fee,\r\n            fundTokenAddress: _fundTokenAddress, \r\n            created: true\r\n        });\r\n\r\n        IERC721(_tokenContractAddress).safeTransferFrom(_msgSender(), address(this), _tokenId);\r\n    }\r\n\r\n    /**\r\n     * @notice Used for placing bid with token id\r\n     * @param _tokenId id of the token\r\n     */\r\n    function _placeBid(address _tokenContractAddress, uint256 _tokenId, uint256 _bidAmount) private {\r\n        Bid[] storage bidList = bids[_tokenContractAddress][_tokenId];\r\n        uint256 bidAmount = _bidAmount;\r\n        uint256 benefit;\r\n        if (bidList.length != 0) {\r\n            benefit = bidList[bidList.length - 1].actualBidAmount.mul(auctions[_tokenContractAddress][_tokenId].fee).div(100)\r\n                .mul(_getNow().sub(auctions[_tokenContractAddress][_tokenId].startTime))\r\n                .div(auctions[_tokenContractAddress][_tokenId].endTime.sub(auctions[_tokenContractAddress][_tokenId].startTime));\r\n        }\r\n        uint256 actualBidAmount = bidAmount + benefit;\r\n\r\n        // Ensure bid adheres to outbid increment and threshold\r\n\r\n        if (bidList.length != 0) {\r\n            Bid memory prevHighestBid = bidList[bidList.length - 1];\r\n            uint256 minBidRequired = prevHighestBid.actualBidAmount;\r\n            require(\r\n                bidAmount > minBidRequired,\r\n                \"Auction.placeBid: Failed to outbid highest bidder\"\r\n            );\r\n        } else {\r\n            require(\r\n                actualBidAmount >= auctions[_tokenContractAddress][_tokenId].startPrice,\r\n                \"Auction.placeBid: Bid amount should be higher than start price\"\r\n            );\r\n        }\r\n\r\n        require(\r\n            IERC20(auctions[_tokenContractAddress][_tokenId].fundTokenAddress).balanceOf(_msgSender()) >= actualBidAmount,\r\n            \"Auction.placeBid: bidder has not enough balance\"\r\n        );\r\n\r\n        // assign top bidder and bid time\r\n        Bid memory newHighestBid;\r\n        newHighestBid.bidder = _msgSender();\r\n        newHighestBid.bidAmount = bidAmount;\r\n        newHighestBid.actualBidAmount = actualBidAmount;\r\n        newHighestBid.bidTime = _getNow();\r\n        bidList.push(newHighestBid);\r\n\r\n        IERC20(auctions[_tokenContractAddress][_tokenId].fundTokenAddress).transferFrom(_msgSender(), address(this), actualBidAmount);\r\n\r\n        availableFunds[_tokenContractAddress][_tokenId] += actualBidAmount;\r\n\r\n        if (bidList.length > 1) {\r\n            IERC20(auctions[_tokenContractAddress][_tokenId].fundTokenAddress).transfer(bidList[bidList.length - 2].bidder, \r\n                bidList[bidList.length - 2].actualBidAmount + benefit);\r\n            availableFunds[_tokenContractAddress][_tokenId] -= (bidList[bidList.length - 2].actualBidAmount + benefit);\r\n        }\r\n    }\r\n\r\n    function onERC721Received(address, address, uint256, bytes memory) public virtual override returns (bytes4) {\r\n        return this.onERC721Received.selector;\r\n    }\r\n}",
  "sourcePath": "/Users/angelsatorresalmenara/Privi-Polygon/privi-nft-auction/contracts/ERC721Auction.sol",
  "compiler": {
    "name": "solc",
    "version": "0.8.6+commit.11564f7e.Emscripten.clang"
  },
  "schemaVersion": "3.4.3",
  "updatedAt": "2021-09-04T15:18:40.920Z",
  "networkType": "ethereum",
  "devdoc": {
    "kind": "dev",
    "methods": {
      "createAuction(address,uint256,uint256,uint256,uint256,uint256,address)": {
        "details": "Only the owner of a token can create an auction and must have approved the contractEnd time for the auction must be in the future.",
        "params": {
          "_endTimestamp": "Unix epoch in seconds for the auction end time.",
          "_fee": "percent which will be paid as a fee to the individual who provides the hightest loan amount",
          "_startTimestamp": "Unix epoch in seconds for the auction start time",
          "_tokenId": "Token ID of the token being auctioned"
        }
      },
      "endAuction(address,uint256)": {
        "params": {
          "_tokenId": "Token ID of the token being auctioned"
        }
      },
      "getAuction(address,uint256)": {
        "params": {
          "_tokenId": "Token ID of the token being auctioned"
        }
      },
      "getAvailableFunds(address,uint256)": {
        "params": {
          "_tokenId": "Token ID of the token being auctioned"
        }
      },
      "getBidList(address,uint256)": {
        "params": {
          "_tokenId": "Token ID of the token being auctioned"
        }
      },
      "placeBid(address,uint256,uint256)": {
        "details": "Only callable when the auction is openBids from smart contracts are prohibited to prevent griefing with always reverting receiver",
        "params": {
          "_tokenId": "Token ID of the token being auctioned"
        }
      },
      "returnFunds(address,uint256,uint256)": {
        "details": "Only callable when the auction is openOnly callable by auction owner",
        "params": {
          "_returnAmount": "return amount which owner want to return",
          "_tokenId": "Token ID of the token being auctioned"
        }
      },
      "withdrawFunds(address,uint256,uint256)": {
        "details": "Only callable when the auction is openOnly callable by auction owner",
        "params": {
          "_tokenId": "Token ID of the token being auctioned",
          "_withdrawAmount": "withdraw amount which owner want to withdraw"
        }
      }
    },
    "version": 1
  },
  "userdoc": {
    "events": {
      "AuctionCreated(address,uint256)": {
        "notice": "Event emitted only on construction. To be used by indexers"
      }
    },
    "kind": "user",
    "methods": {
      "auctions(address,uint256)": {
        "notice": "ERC721 Token Contract Address => Token ID -> Auction Parameters"
      },
      "bids(address,uint256,uint256)": {
        "notice": "ERC721 Token ID -> bidder info (if a bid has been received)"
      },
      "createAuction(address,uint256,uint256,uint256,uint256,uint256,address)": {
        "notice": "Creates a new auction for a given token"
      },
      "endAuction(address,uint256)": {
        "notice": "end Auction if time is over"
      },
      "getAuction(address,uint256)": {
        "notice": "Method for getting all info about the auction"
      },
      "getAvailableFunds(address,uint256)": {
        "notice": "Method for getting available funds by tokenId"
      },
      "getBidList(address,uint256)": {
        "notice": "Method for getting all info about the bids"
      },
      "placeBid(address,uint256,uint256)": {
        "notice": "Places a new bid, out bidding the existing bidder if found and criteria is reached"
      },
      "returnFunds(address,uint256,uint256)": {
        "notice": "return funds which deposit by bidders"
      },
      "withdrawFunds(address,uint256,uint256)": {
        "notice": "withdraw funds which deposit by bidders"
      }
    },
    "version": 1
  }
}