{
  "address": "0xd2eF1D66CFffA4eF57362b69926281cE56dF74e2",
  "abi": [
    {
      "inputs": [
        {
          "components": [
            {
              "internalType": "int256",
              "name": "minPoolMarginRatio",
              "type": "int256"
            },
            {
              "internalType": "int256",
              "name": "minInitialMarginRatio",
              "type": "int256"
            },
            {
              "internalType": "int256",
              "name": "minMaintenanceMarginRatio",
              "type": "int256"
            },
            {
              "internalType": "int256",
              "name": "minLiquidationReward",
              "type": "int256"
            },
            {
              "internalType": "int256",
              "name": "maxLiquidationReward",
              "type": "int256"
            },
            {
              "internalType": "int256",
              "name": "liquidationCutRatio",
              "type": "int256"
            },
            {
              "internalType": "int256",
              "name": "protocolFeeCollectRatio",
              "type": "int256"
            }
          ],
          "internalType": "struct MainParams",
          "name": "mainParams",
          "type": "tuple"
        },
        {
          "internalType": "address",
          "name": "_futuresOracleAddress",
          "type": "address"
        },
        {
          "internalType": "int256",
          "name": "_futuresMultiplier",
          "type": "int256"
        },
        {
          "internalType": "int256",
          "name": "_futuresFeeRatio",
          "type": "int256"
        },
        {
          "internalType": "int256",
          "name": "_futuresFundingRateCoefficient",
          "type": "int256"
        },
        {
          "internalType": "uint256",
          "name": "_oracleDelay",
          "type": "uint256"
        },
        {
          "internalType": "address",
          "name": "_governanceContractAddress",
          "type": "address"
        }
      ],
      "stateMutability": "nonpayable",
      "type": "constructor"
    },
    {
      "anonymous": false,
      "inputs": [
        {
          "indexed": false,
          "internalType": "int256",
          "name": "from",
          "type": "int256"
        },
        {
          "indexed": false,
          "internalType": "int256",
          "name": "to",
          "type": "int256"
        }
      ],
      "name": "FuturesFeeRatioUpdated",
      "type": "event"
    },
    {
      "anonymous": false,
      "inputs": [
        {
          "indexed": false,
          "internalType": "int256",
          "name": "from",
          "type": "int256"
        },
        {
          "indexed": false,
          "internalType": "int256",
          "name": "to",
          "type": "int256"
        }
      ],
      "name": "FuturesFundingRateCoefficientUpdated",
      "type": "event"
    },
    {
      "anonymous": false,
      "inputs": [
        {
          "indexed": false,
          "internalType": "int256",
          "name": "from",
          "type": "int256"
        },
        {
          "indexed": false,
          "internalType": "int256",
          "name": "to",
          "type": "int256"
        }
      ],
      "name": "FuturesMultiplierUpdated",
      "type": "event"
    },
    {
      "anonymous": false,
      "inputs": [
        {
          "indexed": false,
          "internalType": "address",
          "name": "from",
          "type": "address"
        },
        {
          "indexed": false,
          "internalType": "address",
          "name": "to",
          "type": "address"
        }
      ],
      "name": "FuturesOracleAddressUpdated",
      "type": "event"
    },
    {
      "anonymous": false,
      "inputs": [
        {
          "indexed": false,
          "internalType": "int256",
          "name": "from",
          "type": "int256"
        },
        {
          "indexed": false,
          "internalType": "int256",
          "name": "to",
          "type": "int256"
        }
      ],
      "name": "LiquidationCutRatioUpdated",
      "type": "event"
    },
    {
      "anonymous": false,
      "inputs": [
        {
          "indexed": false,
          "internalType": "int256",
          "name": "from",
          "type": "int256"
        },
        {
          "indexed": false,
          "internalType": "int256",
          "name": "to",
          "type": "int256"
        }
      ],
      "name": "MaxLiquidationRewardUpdated",
      "type": "event"
    },
    {
      "anonymous": false,
      "inputs": [
        {
          "indexed": false,
          "internalType": "int256",
          "name": "from",
          "type": "int256"
        },
        {
          "indexed": false,
          "internalType": "int256",
          "name": "to",
          "type": "int256"
        }
      ],
      "name": "MinInitialMarginRatioUpdated",
      "type": "event"
    },
    {
      "anonymous": false,
      "inputs": [
        {
          "indexed": false,
          "internalType": "int256",
          "name": "from",
          "type": "int256"
        },
        {
          "indexed": false,
          "internalType": "int256",
          "name": "to",
          "type": "int256"
        }
      ],
      "name": "MinLiquidationRewardUpdated",
      "type": "event"
    },
    {
      "anonymous": false,
      "inputs": [
        {
          "indexed": false,
          "internalType": "int256",
          "name": "from",
          "type": "int256"
        },
        {
          "indexed": false,
          "internalType": "int256",
          "name": "to",
          "type": "int256"
        }
      ],
      "name": "MinMaintenanceMarginRatioUpdated",
      "type": "event"
    },
    {
      "anonymous": false,
      "inputs": [
        {
          "indexed": false,
          "internalType": "int256",
          "name": "from",
          "type": "int256"
        },
        {
          "indexed": false,
          "internalType": "int256",
          "name": "to",
          "type": "int256"
        }
      ],
      "name": "MinPoolMarginRatioUpdated",
      "type": "event"
    },
    {
      "anonymous": false,
      "inputs": [
        {
          "indexed": false,
          "internalType": "uint256",
          "name": "from",
          "type": "uint256"
        },
        {
          "indexed": false,
          "internalType": "uint256",
          "name": "to",
          "type": "uint256"
        }
      ],
      "name": "OracleDelayUpdated",
      "type": "event"
    },
    {
      "anonymous": false,
      "inputs": [
        {
          "indexed": true,
          "internalType": "address",
          "name": "previousOwner",
          "type": "address"
        },
        {
          "indexed": true,
          "internalType": "address",
          "name": "newOwner",
          "type": "address"
        }
      ],
      "name": "OwnershipTransferred",
      "type": "event"
    },
    {
      "anonymous": false,
      "inputs": [
        {
          "indexed": false,
          "internalType": "int256",
          "name": "from",
          "type": "int256"
        },
        {
          "indexed": false,
          "internalType": "int256",
          "name": "to",
          "type": "int256"
        }
      ],
      "name": "ProtocolFeeCollectRatioUpdated",
      "type": "event"
    },
    {
      "inputs": [],
      "name": "futuresFeeRatio",
      "outputs": [
        {
          "internalType": "int256",
          "name": "",
          "type": "int256"
        }
      ],
      "stateMutability": "view",
      "type": "function"
    },
    {
      "inputs": [],
      "name": "futuresFundingRateCoefficient",
      "outputs": [
        {
          "internalType": "int256",
          "name": "",
          "type": "int256"
        }
      ],
      "stateMutability": "view",
      "type": "function"
    },
    {
      "inputs": [],
      "name": "futuresMultiplier",
      "outputs": [
        {
          "internalType": "int256",
          "name": "",
          "type": "int256"
        }
      ],
      "stateMutability": "view",
      "type": "function"
    },
    {
      "inputs": [],
      "name": "futuresOracleAddress",
      "outputs": [
        {
          "internalType": "address",
          "name": "",
          "type": "address"
        }
      ],
      "stateMutability": "view",
      "type": "function"
    },
    {
      "inputs": [],
      "name": "liquidationCutRatio",
      "outputs": [
        {
          "internalType": "int256",
          "name": "",
          "type": "int256"
        }
      ],
      "stateMutability": "view",
      "type": "function"
    },
    {
      "inputs": [],
      "name": "maxLiquidationReward",
      "outputs": [
        {
          "internalType": "int256",
          "name": "",
          "type": "int256"
        }
      ],
      "stateMutability": "view",
      "type": "function"
    },
    {
      "inputs": [],
      "name": "minInitialMarginRatio",
      "outputs": [
        {
          "internalType": "int256",
          "name": "",
          "type": "int256"
        }
      ],
      "stateMutability": "view",
      "type": "function"
    },
    {
      "inputs": [],
      "name": "minLiquidationReward",
      "outputs": [
        {
          "internalType": "int256",
          "name": "",
          "type": "int256"
        }
      ],
      "stateMutability": "view",
      "type": "function"
    },
    {
      "inputs": [],
      "name": "minMaintenanceMarginRatio",
      "outputs": [
        {
          "internalType": "int256",
          "name": "",
          "type": "int256"
        }
      ],
      "stateMutability": "view",
      "type": "function"
    },
    {
      "inputs": [],
      "name": "minPoolMarginRatio",
      "outputs": [
        {
          "internalType": "int256",
          "name": "",
          "type": "int256"
        }
      ],
      "stateMutability": "view",
      "type": "function"
    },
    {
      "inputs": [],
      "name": "oracleDelay",
      "outputs": [
        {
          "internalType": "uint256",
          "name": "",
          "type": "uint256"
        }
      ],
      "stateMutability": "view",
      "type": "function"
    },
    {
      "inputs": [],
      "name": "owner",
      "outputs": [
        {
          "internalType": "address",
          "name": "",
          "type": "address"
        }
      ],
      "stateMutability": "view",
      "type": "function"
    },
    {
      "inputs": [],
      "name": "protocolFeeCollectRatio",
      "outputs": [
        {
          "internalType": "int256",
          "name": "",
          "type": "int256"
        }
      ],
      "stateMutability": "view",
      "type": "function"
    },
    {
      "inputs": [],
      "name": "renounceOwnership",
      "outputs": [],
      "stateMutability": "nonpayable",
      "type": "function"
    },
    {
      "inputs": [
        {
          "internalType": "int256",
          "name": "futuresFeeRatio_",
          "type": "int256"
        }
      ],
      "name": "setFuturesFeeRatio",
      "outputs": [],
      "stateMutability": "nonpayable",
      "type": "function"
    },
    {
      "inputs": [
        {
          "internalType": "int256",
          "name": "futuresFundingRateCoefficient_",
          "type": "int256"
        }
      ],
      "name": "setFuturesFundingRateCoefficient",
      "outputs": [],
      "stateMutability": "nonpayable",
      "type": "function"
    },
    {
      "inputs": [
        {
          "internalType": "int256",
          "name": "futuresMultiplier_",
          "type": "int256"
        }
      ],
      "name": "setFuturesMultiplier",
      "outputs": [],
      "stateMutability": "nonpayable",
      "type": "function"
    },
    {
      "inputs": [
        {
          "internalType": "address",
          "name": "futuresOracleAddress_",
          "type": "address"
        }
      ],
      "name": "setFuturesOracleAddress",
      "outputs": [],
      "stateMutability": "nonpayable",
      "type": "function"
    },
    {
      "inputs": [
        {
          "internalType": "int256",
          "name": "_liquidationCutRatio",
          "type": "int256"
        }
      ],
      "name": "setLiquidationCutRatio",
      "outputs": [],
      "stateMutability": "nonpayable",
      "type": "function"
    },
    {
      "inputs": [
        {
          "internalType": "int256",
          "name": "_maxLiquidationReward",
          "type": "int256"
        }
      ],
      "name": "setMaxLiquidationReward",
      "outputs": [],
      "stateMutability": "nonpayable",
      "type": "function"
    },
    {
      "inputs": [
        {
          "internalType": "int256",
          "name": "_minInitialMarginRatio",
          "type": "int256"
        }
      ],
      "name": "setMinInitialMarginRatio",
      "outputs": [],
      "stateMutability": "nonpayable",
      "type": "function"
    },
    {
      "inputs": [
        {
          "internalType": "int256",
          "name": "_minLiquidationReward",
          "type": "int256"
        }
      ],
      "name": "setMinLiquidationReward",
      "outputs": [],
      "stateMutability": "nonpayable",
      "type": "function"
    },
    {
      "inputs": [
        {
          "internalType": "int256",
          "name": "_minMaintenanceMarginRatio",
          "type": "int256"
        }
      ],
      "name": "setMinMaintenanceMarginRatio",
      "outputs": [],
      "stateMutability": "nonpayable",
      "type": "function"
    },
    {
      "inputs": [
        {
          "internalType": "int256",
          "name": "_minPoolMarginRatio",
          "type": "int256"
        }
      ],
      "name": "setMinPoolMarginRatio",
      "outputs": [],
      "stateMutability": "nonpayable",
      "type": "function"
    },
    {
      "inputs": [
        {
          "internalType": "uint256",
          "name": "_oracleDelay",
          "type": "uint256"
        }
      ],
      "name": "setOracleDelay",
      "outputs": [],
      "stateMutability": "nonpayable",
      "type": "function"
    },
    {
      "inputs": [
        {
          "internalType": "int256",
          "name": "_protocolFeeCollectRatio",
          "type": "int256"
        }
      ],
      "name": "setProtocolFeeCollectRatio",
      "outputs": [],
      "stateMutability": "nonpayable",
      "type": "function"
    },
    {
      "inputs": [
        {
          "internalType": "address",
          "name": "newOwner",
          "type": "address"
        }
      ],
      "name": "transferOwnership",
      "outputs": [],
      "stateMutability": "nonpayable",
      "type": "function"
    }
  ],
  "transactionHash": "0xa679ff0f673675b4808e825f2d80a5607122554cef8e562e54fbe909a16d794a",
  "args": [
    {
      "minPoolMarginRatio": "1000000000000000000",
      "minInitialMarginRatio": "100000000000000000",
      "minMaintenanceMarginRatio": "50000000000000000",
      "minLiquidationReward": "10000000000000000000",
      "maxLiquidationReward": "1000000000000000000000",
      "liquidationCutRatio": "500000000000000000",
      "protocolFeeCollectRatio": "200000000000000000"
    },
    "0x261Cd34ED028B5dbe7E1d9dA8dA83Bf092174B13",
    "1000000000000000",
    "1000000000000000",
    "50000000000000",
    6000,
    "0x7d994063E2C98b2F49b13418Fc3FE58c45DdcC0D"
  ],
  "solcInputHash": "0cc6fa82c0eeb27ece16b294b847bb89",
  "bytecode": "0x60806040523480156200001157600080fd5b506040516200101c3803806200101c83398101604081905262000034916200035c565b6200003f336200021e565b6001600160a01b0386166200009b5760405162461bcd60e51b815260206004820152601c60248201527f4f7261636c6520616464726573732063616e2774206265207a65726f0000000060448201526064015b60405180910390fd5b60008513620000ed5760405162461bcd60e51b815260206004820152601a60248201527f496e76616c69642066757475726573206d756c7469706c696572000000000000604482015260640162000092565b600084136200013f5760405162461bcd60e51b815260206004820152601960248201527f496e76616c696420667574757265732066656520726174696f00000000000000604482015260640162000092565b60008313620001a25760405162461bcd60e51b815260206004820152602860248201527f496e76616c696420667574757265732066756e64696e67207261746520636f6560448201526719999a58da595b9d60c21b606482015260840162000092565b8651600155602087015160025560408701516003556060870151600455608087015160055560a087015160065560c0870151600755600880546001600160a01b0319166001600160a01b0388161790556009859055600a849055600b839055600c82905562000211816200026e565b505050505050506200044d565b600080546001600160a01b038381166001600160a01b0319831681178455604051919092169283917f8be0079c531659141344cd1fd0a4f28419497f9722a3daafe3b4186f6b6457e09190a35050565b6000546001600160a01b03163314620002ca5760405162461bcd60e51b815260206004820181905260248201527f4f776e61626c653a2063616c6c6572206973206e6f7420746865206f776e6572604482015260640162000092565b6001600160a01b038116620003315760405162461bcd60e51b815260206004820152602660248201527f4f776e61626c653a206e6577206f776e657220697320746865207a65726f206160448201526564647265737360d01b606482015260840162000092565b6200033c816200021e565b50565b80516001600160a01b03811681146200035757600080fd5b919050565b60008060008060008060008789036101a081121562000379578384fd5b60e081121562000387578384fd5b5060405160e081016001600160401b0381118282101715620003b757634e487b7160e01b85526041600452602485fd5b8060405250885181526020890151602082015260408901516040820152606089015160608201526080890151608082015260a089015160a082015260c089015160c0820152809750506200040e60e089016200033f565b955061010088015194506101208801519350610140880151925061016088015191506200043f61018089016200033f565b905092959891949750929550565b610bbf806200045d6000396000f3fe608060405234801561001057600080fd5b50600436106101a95760003560e01c80638b3415b9116100f9578063c42243c111610097578063ddd18d3011610071578063ddd18d3014610333578063e7a06ffe1461033c578063f2fde38b14610345578063f94835641461035857600080fd5b8063c42243c11461030e578063c48edf8e14610317578063cfcd67441461032a57600080fd5b8063a15373b6116100d3578063a15373b6146102d6578063aa8f881f146102e9578063ab78ace4146102f2578063bcce87e0146102fb57600080fd5b80638b3415b9146102a95780638da5cb5b146102b25780639c85877c146102c357600080fd5b80634644448b11610166578063622dcd7911610140578063622dcd791461025a5780636bb9e4cb1461026d578063715018a6146102985780638ac848ca146102a057600080fd5b80634644448b1461022b57806346d2d2d81461023e5780635921cf0b1461024757600080fd5b806305986e82146101ae5780630adf8e92146101c35780630ebf1624146101df5780632773e34c146101f257806338012a3f146102055780634135881d14610218575b600080fd5b6101c16101bc366004610b3c565b610361565b005b6101cc60035481565b6040519081526020015b60405180910390f35b6101c16101ed366004610b3c565b6103d5565b6101c1610200366004610b3c565b610440565b6101c1610213366004610b3c565b61050d565b6101c1610226366004610b3c565b610578565b6101c1610239366004610b3c565b6105e3565b6101cc60065481565b6101c1610255366004610b3c565b61069c565b6101c1610268366004610b3c565b610707565b600854610280906001600160a01b031681565b6040516001600160a01b0390911681526020016101d6565b6101c1610772565b6101cc60025481565b6101cc600a5481565b6000546001600160a01b0316610280565b6101c16102d1366004610b3c565b6107a8565b6101c16102e4366004610b3c565b610864565b6101cc600c5481565b6101cc60055481565b6101c1610309366004610b0e565b6108cf565b6101cc60015481565b6101c1610325366004610b3c565b6109b8565b6101cc60095481565b6101cc60045481565b6101cc600b5481565b6101c1610353366004610b0e565b610a23565b6101cc60075481565b6000546001600160a01b031633146103945760405162461bcd60e51b815260040161038b90610b54565b60405180910390fd5b60055460408051918252602082018390527fba8bd1d78111625ecbf060cb8a9a5363247a54d22c6f886769d4ca8f16cd401a910160405180910390a1600555565b6000546001600160a01b031633146103ff5760405162461bcd60e51b815260040161038b90610b54565b60075460408051918252602082018390527fdb88f75e8608d3fb5775962cf26e1507f1ddbd5cd06457a39241cf35e23971a6910160405180910390a1600755565b6000546001600160a01b0316331461046a5760405162461bcd60e51b815260040161038b90610b54565b610e1081136104cc5760405162461bcd60e51b815260206004820152602860248201527f496e76616c696420667574757265732066756e64696e67207261746520636f6560448201526719999a58da595b9d60c21b606482015260840161038b565b600b5460408051918252602082018390527fe3aa2b7ba03f7da18186fa8cff3dd82cd785a9102ab2245fedb6e9ab3d2a5352910160405180910390a1600b55565b6000546001600160a01b031633146105375760405162461bcd60e51b815260040161038b90610b54565b60045460408051918252602082018390527f33c728e336667e1bb1e08837fc8cfa475b2fbee0bbb510c42344656ebf720a8c910160405180910390a1600455565b6000546001600160a01b031633146105a25760405162461bcd60e51b815260040161038b90610b54565b60025460408051918252602082018390527f054057f106e585962763cea3dd1d60c732b3628a80a8c76ef4a9969430ccf79a910160405180910390a1600255565b6000546001600160a01b0316331461060d5760405162461bcd60e51b815260040161038b90610b54565b610e10811361065e5760405162461bcd60e51b815260206004820152601960248201527f496e76616c696420667574757265732066656520726174696f00000000000000604482015260640161038b565b60408051828152602081018390527f9d2973ed9b0fccaf950a87b328ac70faef10f87a6dac7a70a49620dc47d3ee54910160405180910390a1600a55565b6000546001600160a01b031633146106c65760405162461bcd60e51b815260040161038b90610b54565b60035460408051918252602082018390527ffc1b70ec19c4f00e7041a09ae94ea50eb422e256f1ae49c69595116eeb3beed8910160405180910390a1600355565b6000546001600160a01b031633146107315760405162461bcd60e51b815260040161038b90610b54565b60065460408051918252602082018390527fa2aa43404e12bb3e81e0bf6a9b526c79a2d99ae1e7d2cb62a14e53c7e7f8348d910160405180910390a1600655565b6000546001600160a01b0316331461079c5760405162461bcd60e51b815260040161038b90610b54565b6107a66000610abe565b565b6000546001600160a01b031633146107d25760405162461bcd60e51b815260040161038b90610b54565b610e1081136108235760405162461bcd60e51b815260206004820152601a60248201527f496e76616c69642066757475726573206d756c7469706c696572000000000000604482015260640161038b565b60095460408051918252602082018390527f89099cf04ae850fba568b8ae2a8f5d21ae5f3c959ea6abb42b19f70fea7200f1910160405180910390a1600955565b6000546001600160a01b0316331461088e5760405162461bcd60e51b815260040161038b90610b54565b60015460408051918252602082018390527f92525addb942347cc79ec97f744f7f9714967957eb5267da346c00f95bc11b79910160405180910390a1600155565b6000546001600160a01b031633146108f95760405162461bcd60e51b815260040161038b90610b54565b6001600160a01b03811661094f5760405162461bcd60e51b815260206004820152601c60248201527f4f7261636c6520616464726573732063616e2774206265207a65726f00000000604482015260640161038b565b600854604080516001600160a01b03928316815291831660208301527f9197b5b96cabaf275bf3eb01a00f41b94b575b742732cee0217aaae76707be17910160405180910390a1600880546001600160a01b0319166001600160a01b0392909216919091179055565b6000546001600160a01b031633146109e25760405162461bcd60e51b815260040161038b90610b54565b600c5460408051918252602082018390527f0e29803e5e304b8aa9420bcc6d09d63cf1159250017d2700100b45bf146f5b79910160405180910390a1600c55565b6000546001600160a01b03163314610a4d5760405162461bcd60e51b815260040161038b90610b54565b6001600160a01b038116610ab25760405162461bcd60e51b815260206004820152602660248201527f4f776e61626c653a206e6577206f776e657220697320746865207a65726f206160448201526564647265737360d01b606482015260840161038b565b610abb81610abe565b50565b600080546001600160a01b038381166001600160a01b0319831681178455604051919092169283917f8be0079c531659141344cd1fd0a4f28419497f9722a3daafe3b4186f6b6457e09190a35050565b600060208284031215610b1f578081fd5b81356001600160a01b0381168114610b35578182fd5b9392505050565b600060208284031215610b4d578081fd5b5035919050565b6020808252818101527f4f776e61626c653a2063616c6c6572206973206e6f7420746865206f776e657260408201526060019056fea2646970667358221220655c4c5d401b5f413ec853a4dffee2152b6338da17cb089a5ad2645047dd337c64736f6c63430008040033",
  "devdoc": {
    "kind": "dev",
    "methods": {
      "constructor": {
        "details": "sets the default (initial) values of the parameters      also transfers the ownership to the governance"
      },
      "owner()": {
        "details": "Returns the address of the current owner."
      },
      "renounceOwnership()": {
        "details": "Leaves the contract without owner. It will not be possible to call `onlyOwner` functions anymore. Can only be called by the current owner. NOTE: Renouncing ownership will leave the contract without an owner, thereby removing any functionality that is only available to the owner."
      },
      "transferOwnership(address)": {
        "details": "Transfers ownership of the contract to a new account (`newOwner`). Can only be called by the current owner."
      }
    },
    "title": "future parameters controlled by governance",
    "version": 1
  },
  "userdoc": {
    "kind": "user",
    "methods": {},
    "notice": "the owner of this contract is the timelock controller of the governance feature",
    "version": 1
  },
  "storageLayout": {
    "storage": [
      {
        "astId": 4235,
        "contract": "contracts/polygon/governance/FuturesProtocolParameters.sol:FuturesProtocolParameters",
        "label": "_owner",
        "offset": 0,
        "slot": "0",
        "type": "t_address"
      },
      {
        "astId": 22165,
        "contract": "contracts/polygon/governance/FuturesProtocolParameters.sol:FuturesProtocolParameters",
        "label": "minPoolMarginRatio",
        "offset": 0,
        "slot": "1",
        "type": "t_int256"
      },
      {
        "astId": 22167,
        "contract": "contracts/polygon/governance/FuturesProtocolParameters.sol:FuturesProtocolParameters",
        "label": "minInitialMarginRatio",
        "offset": 0,
        "slot": "2",
        "type": "t_int256"
      },
      {
        "astId": 22169,
        "contract": "contracts/polygon/governance/FuturesProtocolParameters.sol:FuturesProtocolParameters",
        "label": "minMaintenanceMarginRatio",
        "offset": 0,
        "slot": "3",
        "type": "t_int256"
      },
      {
        "astId": 22171,
        "contract": "contracts/polygon/governance/FuturesProtocolParameters.sol:FuturesProtocolParameters",
        "label": "minLiquidationReward",
        "offset": 0,
        "slot": "4",
        "type": "t_int256"
      },
      {
        "astId": 22173,
        "contract": "contracts/polygon/governance/FuturesProtocolParameters.sol:FuturesProtocolParameters",
        "label": "maxLiquidationReward",
        "offset": 0,
        "slot": "5",
        "type": "t_int256"
      },
      {
        "astId": 22175,
        "contract": "contracts/polygon/governance/FuturesProtocolParameters.sol:FuturesProtocolParameters",
        "label": "liquidationCutRatio",
        "offset": 0,
        "slot": "6",
        "type": "t_int256"
      },
      {
        "astId": 22177,
        "contract": "contracts/polygon/governance/FuturesProtocolParameters.sol:FuturesProtocolParameters",
        "label": "protocolFeeCollectRatio",
        "offset": 0,
        "slot": "7",
        "type": "t_int256"
      },
      {
        "astId": 22179,
        "contract": "contracts/polygon/governance/FuturesProtocolParameters.sol:FuturesProtocolParameters",
        "label": "futuresOracleAddress",
        "offset": 0,
        "slot": "8",
        "type": "t_address"
      },
      {
        "astId": 22181,
        "contract": "contracts/polygon/governance/FuturesProtocolParameters.sol:FuturesProtocolParameters",
        "label": "futuresMultiplier",
        "offset": 0,
        "slot": "9",
        "type": "t_int256"
      },
      {
        "astId": 22183,
        "contract": "contracts/polygon/governance/FuturesProtocolParameters.sol:FuturesProtocolParameters",
        "label": "futuresFeeRatio",
        "offset": 0,
        "slot": "10",
        "type": "t_int256"
      },
      {
        "astId": 22185,
        "contract": "contracts/polygon/governance/FuturesProtocolParameters.sol:FuturesProtocolParameters",
        "label": "futuresFundingRateCoefficient",
        "offset": 0,
        "slot": "11",
        "type": "t_int256"
      },
      {
        "astId": 22187,
        "contract": "contracts/polygon/governance/FuturesProtocolParameters.sol:FuturesProtocolParameters",
        "label": "oracleDelay",
        "offset": 0,
        "slot": "12",
        "type": "t_uint256"
      }
    ],
    "types": {
      "t_address": {
        "encoding": "inplace",
        "label": "address",
        "numberOfBytes": "20"
      },
      "t_int256": {
        "encoding": "inplace",
        "label": "int256",
        "numberOfBytes": "32"
      },
      "t_uint256": {
        "encoding": "inplace",
        "label": "uint256",
        "numberOfBytes": "32"
      }
    }
  }
}