{
  "contractName": "Governance",
  "abi": [
    {
      "inputs": [
        {
          "internalType": "uint256",
          "name": "_podVotingPeriod",
          "type": "uint256"
        }
      ],
      "stateMutability": "nonpayable",
      "type": "constructor"
    },
    {
      "anonymous": false,
      "inputs": [
        {
          "indexed": false,
          "internalType": "address",
          "name": "_asset",
          "type": "address"
        },
        {
          "indexed": false,
          "internalType": "bool",
          "name": "_whitelisted",
          "type": "bool"
        }
      ],
      "name": "AssetWhitelisted",
      "type": "event"
    },
    {
      "anonymous": false,
      "inputs": [
        {
          "indexed": true,
          "internalType": "bytes32",
          "name": "role",
          "type": "bytes32"
        },
        {
          "indexed": true,
          "internalType": "bytes32",
          "name": "previousAdminRole",
          "type": "bytes32"
        },
        {
          "indexed": true,
          "internalType": "bytes32",
          "name": "newAdminRole",
          "type": "bytes32"
        }
      ],
      "name": "RoleAdminChanged",
      "type": "event"
    },
    {
      "anonymous": false,
      "inputs": [
        {
          "indexed": true,
          "internalType": "bytes32",
          "name": "role",
          "type": "bytes32"
        },
        {
          "indexed": true,
          "internalType": "address",
          "name": "account",
          "type": "address"
        },
        {
          "indexed": true,
          "internalType": "address",
          "name": "sender",
          "type": "address"
        }
      ],
      "name": "RoleGranted",
      "type": "event"
    },
    {
      "anonymous": false,
      "inputs": [
        {
          "indexed": true,
          "internalType": "bytes32",
          "name": "role",
          "type": "bytes32"
        },
        {
          "indexed": true,
          "internalType": "address",
          "name": "account",
          "type": "address"
        },
        {
          "indexed": true,
          "internalType": "address",
          "name": "sender",
          "type": "address"
        }
      ],
      "name": "RoleRevoked",
      "type": "event"
    },
    {
      "inputs": [],
      "name": "ADMIN",
      "outputs": [
        {
          "internalType": "bytes32",
          "name": "",
          "type": "bytes32"
        }
      ],
      "stateMutability": "view",
      "type": "function",
      "constant": true
    },
    {
      "inputs": [],
      "name": "DEFAULT_ADMIN_ROLE",
      "outputs": [
        {
          "internalType": "bytes32",
          "name": "",
          "type": "bytes32"
        }
      ],
      "stateMutability": "view",
      "type": "function",
      "constant": true
    },
    {
      "inputs": [
        {
          "internalType": "address",
          "name": "",
          "type": "address"
        }
      ],
      "name": "assetWhitelisted",
      "outputs": [
        {
          "internalType": "bool",
          "name": "",
          "type": "bool"
        }
      ],
      "stateMutability": "view",
      "type": "function",
      "constant": true
    },
    {
      "inputs": [
        {
          "internalType": "bytes32",
          "name": "role",
          "type": "bytes32"
        }
      ],
      "name": "getRoleAdmin",
      "outputs": [
        {
          "internalType": "bytes32",
          "name": "",
          "type": "bytes32"
        }
      ],
      "stateMutability": "view",
      "type": "function",
      "constant": true
    },
    {
      "inputs": [
        {
          "internalType": "bytes32",
          "name": "role",
          "type": "bytes32"
        },
        {
          "internalType": "address",
          "name": "account",
          "type": "address"
        }
      ],
      "name": "grantRole",
      "outputs": [],
      "stateMutability": "nonpayable",
      "type": "function"
    },
    {
      "inputs": [
        {
          "internalType": "bytes32",
          "name": "role",
          "type": "bytes32"
        },
        {
          "internalType": "address",
          "name": "account",
          "type": "address"
        }
      ],
      "name": "hasRole",
      "outputs": [
        {
          "internalType": "bool",
          "name": "",
          "type": "bool"
        }
      ],
      "stateMutability": "view",
      "type": "function",
      "constant": true
    },
    {
      "inputs": [
        {
          "internalType": "bytes32",
          "name": "role",
          "type": "bytes32"
        },
        {
          "internalType": "address",
          "name": "account",
          "type": "address"
        }
      ],
      "name": "renounceRole",
      "outputs": [],
      "stateMutability": "nonpayable",
      "type": "function"
    },
    {
      "inputs": [
        {
          "internalType": "bytes32",
          "name": "role",
          "type": "bytes32"
        },
        {
          "internalType": "address",
          "name": "account",
          "type": "address"
        }
      ],
      "name": "revokeRole",
      "outputs": [],
      "stateMutability": "nonpayable",
      "type": "function"
    },
    {
      "inputs": [
        {
          "internalType": "bytes4",
          "name": "interfaceId",
          "type": "bytes4"
        }
      ],
      "name": "supportsInterface",
      "outputs": [
        {
          "internalType": "bool",
          "name": "",
          "type": "bool"
        }
      ],
      "stateMutability": "view",
      "type": "function",
      "constant": true
    },
    {
      "inputs": [],
      "name": "getPodVotingPeriod",
      "outputs": [
        {
          "internalType": "uint256",
          "name": "",
          "type": "uint256"
        }
      ],
      "stateMutability": "view",
      "type": "function",
      "constant": true
    },
    {
      "inputs": [
        {
          "internalType": "uint256",
          "name": "_podVotingPeriod",
          "type": "uint256"
        }
      ],
      "name": "setPodVotingPeriod",
      "outputs": [],
      "stateMutability": "nonpayable",
      "type": "function"
    },
    {
      "inputs": [
        {
          "internalType": "address",
          "name": "asset",
          "type": "address"
        }
      ],
      "name": "whitelistAsset",
      "outputs": [],
      "stateMutability": "nonpayable",
      "type": "function"
    }
  ],
  "bytecode": "0x60806040523480156200001157600080fd5b506040516200163a3803806200163a83398181016040528101906200003791906200021c565b6200004c6000801b336200008c60201b60201c565b6200007e7fdf8b4c520ffe197c5343c6f5aec59570151ef9a492f2c624fd45ddde6135ec42336200008c60201b60201c565b806001819055505062000277565b6200009e8282620000a260201b60201c565b5050565b620000b482826200019360201b60201c565b6200018f57600160008084815260200190815260200160002060000160008373ffffffffffffffffffffffffffffffffffffffff1673ffffffffffffffffffffffffffffffffffffffff16815260200190815260200160002060006101000a81548160ff02191690831515021790555062000134620001fd60201b60201c565b73ffffffffffffffffffffffffffffffffffffffff168173ffffffffffffffffffffffffffffffffffffffff16837f2f8788117e7eff1d82e926ec794901d17c78024a50270940304540a733656f0d60405160405180910390a45b5050565b600080600084815260200190815260200160002060000160008373ffffffffffffffffffffffffffffffffffffffff1673ffffffffffffffffffffffffffffffffffffffff16815260200190815260200160002060009054906101000a900460ff16905092915050565b600033905090565b60008151905062000216816200025d565b92915050565b60006020828403121562000235576200023462000258565b5b6000620002458482850162000205565b91505092915050565b6000819050919050565b600080fd5b62000268816200024e565b81146200027457600080fd5b50565b6113b380620002876000396000f3fe608060405234801561001057600080fd5b50600436106100b45760003560e01c80632f2ff15d116100715780632f2ff15d1461019f57806336568abe146101bb578063905bc7da146101d757806391d14854146101f5578063a217fddf14610225578063d547741f14610243576100b4565b806301ffc9a7146100b957806319cdff59146100e9578063248a9ca3146101195780632a0acc6a146101495780632d9c7fef146101675780632dafbe3c14610183575b600080fd5b6100d360048036038101906100ce9190610c88565b61025f565b6040516100e09190610ebd565b60405180910390f35b61010360048036038101906100fe9190610bee565b6102d9565b6040516101109190610ebd565b60405180910390f35b610133600480360381019061012e9190610c1b565b6102f9565b6040516101409190610ed8565b60405180910390f35b610151610318565b60405161015e9190610ed8565b60405180910390f35b610181600480360381019061017c9190610cb5565b61033c565b005b61019d60048036038101906101989190610bee565b610379565b005b6101b960048036038101906101b49190610c48565b61053e565b005b6101d560048036038101906101d09190610c48565b610567565b005b6101df6105ea565b6040516101ec9190610f95565b60405180910390f35b61020f600480360381019061020a9190610c48565b6105f4565b60405161021c9190610ebd565b60405180910390f35b61022d61065e565b60405161023a9190610ed8565b60405180910390f35b61025d60048036038101906102589190610c48565b610665565b005b60007f7965db0b000000000000000000000000000000000000000000000000000000007bffffffffffffffffffffffffffffffffffffffffffffffffffffffff1916827bffffffffffffffffffffffffffffffffffffffffffffffffffffffff191614806102d257506102d18261068e565b5b9050919050565b60026020528060005260406000206000915054906101000a900460ff1681565b6000806000838152602001908152602001600020600101549050919050565b7fdf8b4c520ffe197c5343c6f5aec59570151ef9a492f2c624fd45ddde6135ec4281565b7fdf8b4c520ffe197c5343c6f5aec59570151ef9a492f2c624fd45ddde6135ec4261036e816103696106f8565b610700565b816001819055505050565b7fdf8b4c520ffe197c5343c6f5aec59570151ef9a492f2c624fd45ddde6135ec426103ab816103a66106f8565b610700565b600073ffffffffffffffffffffffffffffffffffffffff168273ffffffffffffffffffffffffffffffffffffffff16141561041b576040517f08c379a000000000000000000000000000000000000000000000000000000000815260040161041290610f35565b60405180910390fd5b600260008373ffffffffffffffffffffffffffffffffffffffff1673ffffffffffffffffffffffffffffffffffffffff16815260200190815260200160002060009054906101000a900460ff16156104a8576040517f08c379a000000000000000000000000000000000000000000000000000000000815260040161049f90610f55565b60405180910390fd5b7ff58fb4d7d0d5f94847cb4a01d76409805828abe1c32cd54d578e5aa54dbedb6e8260016040516104da929190610e94565b60405180910390a16001600260008473ffffffffffffffffffffffffffffffffffffffff1673ffffffffffffffffffffffffffffffffffffffff16815260200190815260200160002060006101000a81548160ff0219169083151502179055505050565b610547826102f9565b610558816105536106f8565b610700565b610562838361079d565b505050565b61056f6106f8565b73ffffffffffffffffffffffffffffffffffffffff168173ffffffffffffffffffffffffffffffffffffffff16146105dc576040517f08c379a00000000000000000000000000000000000000000000000000000000081526004016105d390610f75565b60405180910390fd5b6105e6828261087d565b5050565b6000600154905090565b600080600084815260200190815260200160002060000160008373ffffffffffffffffffffffffffffffffffffffff1673ffffffffffffffffffffffffffffffffffffffff16815260200190815260200160002060009054906101000a900460ff16905092915050565b6000801b81565b61066e826102f9565b61067f8161067a6106f8565b610700565b610689838361087d565b505050565b60007f01ffc9a7000000000000000000000000000000000000000000000000000000007bffffffffffffffffffffffffffffffffffffffffffffffffffffffff1916827bffffffffffffffffffffffffffffffffffffffffffffffffffffffff1916149050919050565b600033905090565b61070a82826105f4565b6107995761072f8173ffffffffffffffffffffffffffffffffffffffff16601461095e565b61073d8360001c602061095e565b60405160200161074e929190610e5a565b6040516020818303038152906040526040517f08c379a00000000000000000000000000000000000000000000000000000000081526004016107909190610ef3565b60405180910390fd5b5050565b6107a782826105f4565b61087957600160008084815260200190815260200160002060000160008373ffffffffffffffffffffffffffffffffffffffff1673ffffffffffffffffffffffffffffffffffffffff16815260200190815260200160002060006101000a81548160ff02191690831515021790555061081e6106f8565b73ffffffffffffffffffffffffffffffffffffffff168173ffffffffffffffffffffffffffffffffffffffff16837f2f8788117e7eff1d82e926ec794901d17c78024a50270940304540a733656f0d60405160405180910390a45b5050565b61088782826105f4565b1561095a57600080600084815260200190815260200160002060000160008373ffffffffffffffffffffffffffffffffffffffff1673ffffffffffffffffffffffffffffffffffffffff16815260200190815260200160002060006101000a81548160ff0219169083151502179055506108ff6106f8565b73ffffffffffffffffffffffffffffffffffffffff168173ffffffffffffffffffffffffffffffffffffffff16837ff6391f5c32d9c69d2a47ea670b442974b53935d1edc7fd64eb21e047a839171b60405160405180910390a45b5050565b606060006002836002610971919061102d565b61097b9190610fd7565b67ffffffffffffffff811115610994576109936111c0565b5b6040519080825280601f01601f1916602001820160405280156109c65781602001600182028036833780820191505090505b5090507f3000000000000000000000000000000000000000000000000000000000000000816000815181106109fe576109fd611191565b5b60200101907effffffffffffffffffffffffffffffffffffffffffffffffffffffffffffff1916908160001a9053507f780000000000000000000000000000000000000000000000000000000000000081600181518110610a6257610a61611191565b5b60200101907effffffffffffffffffffffffffffffffffffffffffffffffffffffffffffff1916908160001a90535060006001846002610aa2919061102d565b610aac9190610fd7565b90505b6001811115610b4c577f3031323334353637383961626364656600000000000000000000000000000000600f861660108110610aee57610aed611191565b5b1a60f81b828281518110610b0557610b04611191565b5b60200101907effffffffffffffffffffffffffffffffffffffffffffffffffffffffffffff1916908160001a905350600485901c945080610b4590611138565b9050610aaf565b5060008414610b90576040517f08c379a0000000000000000000000000000000000000000000000000000000008152600401610b8790610f15565b60405180910390fd5b8091505092915050565b600081359050610ba981611321565b92915050565b600081359050610bbe81611338565b92915050565b600081359050610bd38161134f565b92915050565b600081359050610be881611366565b92915050565b600060208284031215610c0457610c036111ef565b5b6000610c1284828501610b9a565b91505092915050565b600060208284031215610c3157610c306111ef565b5b6000610c3f84828501610baf565b91505092915050565b60008060408385031215610c5f57610c5e6111ef565b5b6000610c6d85828601610baf565b9250506020610c7e85828601610b9a565b9150509250929050565b600060208284031215610c9e57610c9d6111ef565b5b6000610cac84828501610bc4565b91505092915050565b600060208284031215610ccb57610cca6111ef565b5b6000610cd984828501610bd9565b91505092915050565b610ceb81611087565b82525050565b610cfa81611099565b82525050565b610d09816110a5565b82525050565b6000610d1a82610fb0565b610d248185610fbb565b9350610d34818560208601611105565b610d3d816111f4565b840191505092915050565b6000610d5382610fb0565b610d5d8185610fcc565b9350610d6d818560208601611105565b80840191505092915050565b6000610d86602083610fbb565b9150610d9182611205565b602082019050919050565b6000610da9601f83610fbb565b9150610db48261122e565b602082019050919050565b6000610dcc601383610fbb565b9150610dd782611257565b602082019050919050565b6000610def601783610fcc565b9150610dfa82611280565b601782019050919050565b6000610e12601183610fcc565b9150610e1d826112a9565b601182019050919050565b6000610e35602f83610fbb565b9150610e40826112d2565b604082019050919050565b610e54816110fb565b82525050565b6000610e6582610de2565b9150610e718285610d48565b9150610e7c82610e05565b9150610e888284610d48565b91508190509392505050565b6000604082019050610ea96000830185610ce2565b610eb66020830184610cf1565b9392505050565b6000602082019050610ed26000830184610cf1565b92915050565b6000602082019050610eed6000830184610d00565b92915050565b60006020820190508181036000830152610f0d8184610d0f565b905092915050565b60006020820190508181036000830152610f2e81610d79565b9050919050565b60006020820190508181036000830152610f4e81610d9c565b9050919050565b60006020820190508181036000830152610f6e81610dbf565b9050919050565b60006020820190508181036000830152610f8e81610e28565b9050919050565b6000602082019050610faa6000830184610e4b565b92915050565b600081519050919050565b600082825260208201905092915050565b600081905092915050565b6000610fe2826110fb565b9150610fed836110fb565b9250827fffffffffffffffffffffffffffffffffffffffffffffffffffffffffffffffff0382111561102257611021611162565b5b828201905092915050565b6000611038826110fb565b9150611043836110fb565b9250817fffffffffffffffffffffffffffffffffffffffffffffffffffffffffffffffff048311821515161561107c5761107b611162565b5b828202905092915050565b6000611092826110db565b9050919050565b60008115159050919050565b6000819050919050565b60007fffffffff0000000000000000000000000000000000000000000000000000000082169050919050565b600073ffffffffffffffffffffffffffffffffffffffff82169050919050565b6000819050919050565b60005b83811015611123578082015181840152602081019050611108565b83811115611132576000848401525b50505050565b6000611143826110fb565b9150600082141561115757611156611162565b5b600182039050919050565b7f4e487b7100000000000000000000000000000000000000000000000000000000600052601160045260246000fd5b7f4e487b7100000000000000000000000000000000000000000000000000000000600052603260045260246000fd5b7f4e487b7100000000000000000000000000000000000000000000000000000000600052604160045260246000fd5b600080fd5b6000601f19601f8301169050919050565b7f537472696e67733a20686578206c656e67746820696e73756666696369656e74600082015250565b7f617373657420746f6b656e20616464726573732063616e6e6f74206265203000600082015250565b7f616c72656164792077686974656c697374656400000000000000000000000000600082015250565b7f416363657373436f6e74726f6c3a206163636f756e7420000000000000000000600082015250565b7f206973206d697373696e6720726f6c6520000000000000000000000000000000600082015250565b7f416363657373436f6e74726f6c3a2063616e206f6e6c792072656e6f756e636560008201527f20726f6c657320666f722073656c660000000000000000000000000000000000602082015250565b61132a81611087565b811461133557600080fd5b50565b611341816110a5565b811461134c57600080fd5b50565b611358816110af565b811461136357600080fd5b50565b61136f816110fb565b811461137a57600080fd5b5056fea2646970667358221220bab78ea5746853ef99d6be3892705553c0add57ae8056f6bf792d3561233be6b64736f6c63430008060033",
  "immutableReferences": {},
  "source": "// SPDX-License-Identifier: MIT\npragma solidity ^0.8.5;\n\nimport \"@openzeppelin/contracts/access/AccessControl.sol\";\n\n/**\n * @title Governance contract\n */\ncontract Governance is AccessControl {\n    bytes32 public constant ADMIN = keccak256(\"ADMIN\");\n    uint256 private podVotingPeriod;\n\n    mapping(address => bool) public assetWhitelisted;\n\n    event AssetWhitelisted(address _asset, bool _whitelisted);\n\n    constructor(uint256 _podVotingPeriod) {\n        _setupRole(DEFAULT_ADMIN_ROLE, msg.sender);\n        _setupRole(ADMIN, msg.sender);\n\n        podVotingPeriod = _podVotingPeriod;\n    }\n\n    function getPodVotingPeriod() external view returns (uint256) {\n        return podVotingPeriod;\n    }\n\n    function setPodVotingPeriod(uint256 _podVotingPeriod) external onlyRole(ADMIN) {\n        podVotingPeriod = _podVotingPeriod;\n    }\n\n    function whitelistAsset(address asset) external onlyRole(ADMIN) {\n        require(asset != address(0), \"asset token address cannot be 0\");\n        require(!assetWhitelisted[asset], \"already whitelisted\");\n\n        emit AssetWhitelisted(asset, true);\n\n        assetWhitelisted[asset] = true;\n    }\n}\n",
  "sourcePath": "/Users/angelsatorresalmenara/Desktop/privi-pods-smart-contract/contracts/Governance.sol",
  "compiler": {
    "name": "solc",
    "version": "0.8.6+commit.11564f7e.Emscripten.clang"
  },
  "schemaVersion": "3.4.3",
  "updatedAt": "2021-11-16T21:43:19.800Z",
  "networkType": "ethereum",
  "devdoc": {
    "kind": "dev",
    "methods": {
      "getRoleAdmin(bytes32)": {
        "details": "Returns the admin role that controls `role`. See {grantRole} and {revokeRole}. To change a role's admin, use {_setRoleAdmin}."
      },
      "grantRole(bytes32,address)": {
        "details": "Grants `role` to `account`. If `account` had not been already granted `role`, emits a {RoleGranted} event. Requirements: - the caller must have ``role``'s admin role."
      },
      "hasRole(bytes32,address)": {
        "details": "Returns `true` if `account` has been granted `role`."
      },
      "renounceRole(bytes32,address)": {
        "details": "Revokes `role` from the calling account. Roles are often managed via {grantRole} and {revokeRole}: this function's purpose is to provide a mechanism for accounts to lose their privileges if they are compromised (such as when a trusted device is misplaced). If the calling account had been granted `role`, emits a {RoleRevoked} event. Requirements: - the caller must be `account`."
      },
      "revokeRole(bytes32,address)": {
        "details": "Revokes `role` from `account`. If `account` had been granted `role`, emits a {RoleRevoked} event. Requirements: - the caller must have ``role``'s admin role."
      },
      "supportsInterface(bytes4)": {
        "details": "See {IERC165-supportsInterface}."
      }
    },
    "title": "Governance contract",
    "version": 1
  },
  "userdoc": {
    "kind": "user",
    "methods": {},
    "version": 1
  }
}