{
  "contractName": "IncreasingPriceERC721Auction",
  "abi": [
    {
      "anonymous": false,
      "inputs": [
        {
          "indexed": true,
          "internalType": "string",
          "name": "_mediaSymbol",
          "type": "string"
        },
        {
          "indexed": true,
          "internalType": "string",
          "name": "_tokenSymbol",
          "type": "string"
        },
        {
          "indexed": true,
          "internalType": "address",
          "name": "_bidder",
          "type": "address"
        },
        {
          "indexed": false,
          "internalType": "uint256",
          "name": "_amount",
          "type": "uint256"
        }
      ],
      "name": "AuctionAccepted",
      "type": "event"
    },
    {
      "anonymous": false,
      "inputs": [
        {
          "indexed": true,
          "internalType": "string",
          "name": "_mediaSymbol",
          "type": "string"
        },
        {
          "indexed": true,
          "internalType": "string",
          "name": "_tokenSymbol",
          "type": "string"
        },
        {
          "indexed": true,
          "internalType": "address",
          "name": "_bidder",
          "type": "address"
        },
        {
          "indexed": false,
          "internalType": "uint256",
          "name": "_amount",
          "type": "uint256"
        }
      ],
      "name": "AuctionCanceled",
      "type": "event"
    },
    {
      "anonymous": false,
      "inputs": [
        {
          "indexed": true,
          "internalType": "string",
          "name": "_mediaSymbol",
          "type": "string"
        },
        {
          "indexed": true,
          "internalType": "string",
          "name": "_tokenSymbol",
          "type": "string"
        },
        {
          "indexed": true,
          "internalType": "address",
          "name": "_owner",
          "type": "address"
        },
        {
          "indexed": false,
          "internalType": "uint256",
          "name": "_reservePrice",
          "type": "uint256"
        },
        {
          "indexed": false,
          "internalType": "uint256",
          "name": "_bidIncrement",
          "type": "uint256"
        },
        {
          "indexed": false,
          "internalType": "uint256",
          "name": "_startTime",
          "type": "uint256"
        },
        {
          "indexed": false,
          "internalType": "uint256",
          "name": "_endTime",
          "type": "uint256"
        }
      ],
      "name": "AuctionCreated",
      "type": "event"
    },
    {
      "anonymous": false,
      "inputs": [
        {
          "indexed": true,
          "internalType": "string",
          "name": "_mediaSymbol",
          "type": "string"
        },
        {
          "indexed": true,
          "internalType": "string",
          "name": "_tokenSymbol",
          "type": "string"
        },
        {
          "indexed": true,
          "internalType": "address",
          "name": "_oldBidder",
          "type": "address"
        },
        {
          "indexed": false,
          "internalType": "uint256",
          "name": "reservePrice",
          "type": "uint256"
        },
        {
          "indexed": false,
          "internalType": "uint256",
          "name": "newReservePrice",
          "type": "uint256"
        },
        {
          "indexed": false,
          "internalType": "uint256",
          "name": "newBidIncrement",
          "type": "uint256"
        },
        {
          "indexed": false,
          "internalType": "uint256",
          "name": "newEndTime",
          "type": "uint256"
        }
      ],
      "name": "AuctionRestarted",
      "type": "event"
    },
    {
      "anonymous": false,
      "inputs": [
        {
          "indexed": true,
          "internalType": "string",
          "name": "_mediaSymbol",
          "type": "string"
        },
        {
          "indexed": true,
          "internalType": "string",
          "name": "_tokenSymbol",
          "type": "string"
        },
        {
          "indexed": true,
          "internalType": "address",
          "name": "_bidder",
          "type": "address"
        },
        {
          "indexed": false,
          "internalType": "uint256",
          "name": "_amount",
          "type": "uint256"
        }
      ],
      "name": "Bid",
      "type": "event"
    },
    {
      "anonymous": false,
      "inputs": [
        {
          "indexed": true,
          "internalType": "address",
          "name": "previousOwner",
          "type": "address"
        },
        {
          "indexed": true,
          "internalType": "address",
          "name": "newOwner",
          "type": "address"
        }
      ],
      "name": "OwnershipTransferred",
      "type": "event"
    },
    {
      "inputs": [
        {
          "internalType": "string",
          "name": "",
          "type": "string"
        },
        {
          "internalType": "string",
          "name": "",
          "type": "string"
        }
      ],
      "name": "auctions",
      "outputs": [
        {
          "internalType": "address",
          "name": "tokenAddress",
          "type": "address"
        },
        {
          "internalType": "uint256",
          "name": "tokenId",
          "type": "uint256"
        },
        {
          "internalType": "address",
          "name": "owner",
          "type": "address"
        },
        {
          "internalType": "uint256",
          "name": "reservePrice",
          "type": "uint256"
        },
        {
          "internalType": "bytes32",
          "name": "ipfsHash",
          "type": "bytes32"
        },
        {
          "internalType": "uint64",
          "name": "startTime",
          "type": "uint64"
        },
        {
          "internalType": "uint64",
          "name": "endTime",
          "type": "uint64"
        },
        {
          "internalType": "uint256",
          "name": "currentBid",
          "type": "uint256"
        },
        {
          "internalType": "uint64",
          "name": "bidIncrement",
          "type": "uint64"
        },
        {
          "internalType": "address payable",
          "name": "currentBidder",
          "type": "address"
        },
        {
          "internalType": "contract IERC20",
          "name": "bidToken",
          "type": "address"
        }
      ],
      "stateMutability": "view",
      "type": "function",
      "constant": true
    },
    {
      "inputs": [
        {
          "internalType": "address",
          "name": "",
          "type": "address"
        },
        {
          "internalType": "address",
          "name": "",
          "type": "address"
        },
        {
          "internalType": "uint256",
          "name": "",
          "type": "uint256"
        },
        {
          "internalType": "bytes",
          "name": "",
          "type": "bytes"
        }
      ],
      "name": "onERC721Received",
      "outputs": [
        {
          "internalType": "bytes4",
          "name": "",
          "type": "bytes4"
        }
      ],
      "stateMutability": "nonpayable",
      "type": "function"
    },
    {
      "inputs": [],
      "name": "owner",
      "outputs": [
        {
          "internalType": "address",
          "name": "",
          "type": "address"
        }
      ],
      "stateMutability": "view",
      "type": "function",
      "constant": true
    },
    {
      "inputs": [],
      "name": "renounceOwnership",
      "outputs": [],
      "stateMutability": "nonpayable",
      "type": "function"
    },
    {
      "inputs": [
        {
          "internalType": "address",
          "name": "newOwner",
          "type": "address"
        }
      ],
      "name": "transferOwnership",
      "outputs": [],
      "stateMutability": "nonpayable",
      "type": "function"
    },
    {
      "inputs": [
        {
          "components": [
            {
              "internalType": "address",
              "name": "tokenAddress",
              "type": "address"
            },
            {
              "internalType": "uint256",
              "name": "tokenId",
              "type": "uint256"
            },
            {
              "internalType": "string",
              "name": "mediaSymbol",
              "type": "string"
            },
            {
              "internalType": "string",
              "name": "tokenSymbol",
              "type": "string"
            },
            {
              "internalType": "uint256",
              "name": "reservePrice",
              "type": "uint256"
            },
            {
              "internalType": "bytes32",
              "name": "ipfsHash",
              "type": "bytes32"
            },
            {
              "internalType": "uint256",
              "name": "bidIncrement",
              "type": "uint256"
            },
            {
              "internalType": "uint256",
              "name": "startTime",
              "type": "uint256"
            },
            {
              "internalType": "uint256",
              "name": "endTime",
              "type": "uint256"
            },
            {
              "internalType": "address",
              "name": "bidToken",
              "type": "address"
            }
          ],
          "internalType": "struct IncreasingPriceERC721Auction.CreateAuctionRequest",
          "name": "input",
          "type": "tuple"
        }
      ],
      "name": "createAuction",
      "outputs": [],
      "stateMutability": "nonpayable",
      "type": "function"
    },
    {
      "inputs": [
        {
          "internalType": "string",
          "name": "mediaSymbol",
          "type": "string"
        },
        {
          "internalType": "string",
          "name": "tokenSymbol",
          "type": "string"
        }
      ],
      "name": "getAuctionsByPartialCompositeKey",
      "outputs": [
        {
          "components": [
            {
              "internalType": "address",
              "name": "tokenAddress",
              "type": "address"
            },
            {
              "internalType": "uint256",
              "name": "tokenId",
              "type": "uint256"
            },
            {
              "internalType": "address",
              "name": "owner",
              "type": "address"
            },
            {
              "internalType": "uint256",
              "name": "reservePrice",
              "type": "uint256"
            },
            {
              "internalType": "bytes32",
              "name": "ipfsHash",
              "type": "bytes32"
            },
            {
              "internalType": "uint64",
              "name": "startTime",
              "type": "uint64"
            },
            {
              "internalType": "uint64",
              "name": "endTime",
              "type": "uint64"
            },
            {
              "internalType": "uint256",
              "name": "currentBid",
              "type": "uint256"
            },
            {
              "internalType": "uint64",
              "name": "bidIncrement",
              "type": "uint64"
            },
            {
              "internalType": "address payable",
              "name": "currentBidder",
              "type": "address"
            },
            {
              "internalType": "contract IERC20",
              "name": "bidToken",
              "type": "address"
            }
          ],
          "internalType": "struct IncreasingPriceERC721Auction.Auction",
          "name": "_auction",
          "type": "tuple"
        },
        {
          "internalType": "bool",
          "name": "canBid",
          "type": "bool"
        }
      ],
      "stateMutability": "view",
      "type": "function",
      "constant": true
    },
    {
      "inputs": [
        {
          "components": [
            {
              "internalType": "string",
              "name": "mediaSymbol",
              "type": "string"
            },
            {
              "internalType": "string",
              "name": "tokenSymbol",
              "type": "string"
            },
            {
              "internalType": "address",
              "name": "_address",
              "type": "address"
            },
            {
              "internalType": "address",
              "name": "fromAddress",
              "type": "address"
            },
            {
              "internalType": "uint256",
              "name": "amount",
              "type": "uint256"
            }
          ],
          "internalType": "struct IncreasingPriceERC721Auction.PlaceBidRequest",
          "name": "input",
          "type": "tuple"
        }
      ],
      "name": "placeBid",
      "outputs": [],
      "stateMutability": "payable",
      "type": "function",
      "payable": true
    },
    {
      "inputs": [
        {
          "components": [
            {
              "internalType": "string",
              "name": "mediaSymbol",
              "type": "string"
            },
            {
              "internalType": "string",
              "name": "tokenSymbol",
              "type": "string"
            }
          ],
          "internalType": "struct IncreasingPriceERC721Auction.WithdrawAuctionRequest",
          "name": "input",
          "type": "tuple"
        }
      ],
      "name": "withdrawAuction",
      "outputs": [],
      "stateMutability": "nonpayable",
      "type": "function"
    },
    {
      "inputs": [
        {
          "components": [
            {
              "internalType": "string",
              "name": "mediaSymbol",
              "type": "string"
            },
            {
              "internalType": "string",
              "name": "tokenSymbol",
              "type": "string"
            },
            {
              "internalType": "uint256",
              "name": "reservePrice",
              "type": "uint256"
            },
            {
              "internalType": "uint256",
              "name": "bidIncrement",
              "type": "uint256"
            },
            {
              "internalType": "uint256",
              "name": "endTime",
              "type": "uint256"
            },
            {
              "internalType": "bytes32",
              "name": "ipfsHash",
              "type": "bytes32"
            }
          ],
          "internalType": "struct IncreasingPriceERC721Auction.ResetAuctionRequest",
          "name": "input",
          "type": "tuple"
        }
      ],
      "name": "resetAuction",
      "outputs": [],
      "stateMutability": "nonpayable",
      "type": "function"
    },
    {
      "inputs": [
        {
          "components": [
            {
              "internalType": "string",
              "name": "mediaSymbol",
              "type": "string"
            },
            {
              "internalType": "string",
              "name": "tokenSymbol",
              "type": "string"
            }
          ],
          "internalType": "struct IncreasingPriceERC721Auction.CancelAuctionRequest",
          "name": "input",
          "type": "tuple"
        }
      ],
      "name": "cancelAuction",
      "outputs": [],
      "stateMutability": "nonpayable",
      "type": "function"
    }
  ],
  "bytecode": "0x608060405234801561001057600080fd5b506000610024640100000000610077810204565b60008054600160a060020a031916600160a060020a0383169081178255604051929350917f8be0079c531659141344cd1fd0a4f28419497f9722a3daafe3b4186f6b6457e0908290a3506001805561007b565b3390565b6125de8061008a6000396000f3fe6080604052600436106100a05760003560e060020a90048063715018a611610068578063715018a61461018257806376b92046146101975780638da5cb5b146101aa578063970b2cf8146101cc578063acb67ca2146101ec578063f2fde38b1461020c576100a0565b80630aee1803146100a5578063150b7a02146100e55780631587aa44146101125780636d4a8bfb146101345780636d92fcb314610154575b600080fd5b3480156100b157600080fd5b506100c56100c0366004611b54565b61022c565b6040516100dc9b9a99989796959493929190611f09565b60405180910390f35b3480156100f157600080fd5b50610105610100366004611abb565b6102c9565b6040516100dc9190611f73565b34801561011e57600080fd5b5061013261012d366004611bb5565b6102f2565b005b34801561014057600080fd5b5061013261014f366004611da5565b61061c565b34801561016057600080fd5b5061017461016f366004611b54565b6109aa565b6040516100dc929190612404565b34801561018e57600080fd5b50610132610aa6565b6101326101a5366004611ce8565b610b3f565b3480156101b657600080fd5b506101bf610eb5565b6040516100dc9190611eb8565b3480156101d857600080fd5b506101326101e7366004611bb5565b610ec4565b3480156101f857600080fd5b50610132610207366004611bf0565b6111d6565b34801561021857600080fd5b50610132610227366004611aa1565b61173f565b8151602081840181018051600280835293830195830195909520949052825180840182018051958152908201939091019290922092909152815460018301549183015460038401546004850154600586015460068701546007880154600890980154600160a060020a0396871698958716969495939467ffffffffffffffff80851695604060020a9586900482169591811693919004821691168b565b7f150b7a0200000000000000000000000000000000000000000000000000000000949350505050565b80516020820151604051339060029061030c908590611e7f565b9081526020016040518091039020826040516103289190611e7f565b90815260405190819003602001902060020154600160a060020a03161461036d5760405160e560020a62461bcd02815260040161036490612122565b60405180910390fd5b6000600284600001516040516103839190611e7f565b908152602001604051809103902084602001516040516103a39190611e7f565b908152604080519182900360209081018320610160840183528054600160a060020a03908116855260018201549285019290925260028101548216928401929092526003820154606084015260048201546080840152600582015467ffffffffffffffff80821660a0860152604060020a91829004811660c08601819052600685015460e0870152600785015491821661010087015291900482166101208501526008909201541661014083015290915061045d90611812565b610120810151600160a060020a03161561050457806101400151600160a060020a031663a9059cbb8261012001518360e001516040518363ffffffff1660e060020a0281526004016104b0929190611ecc565b602060405180830381600087803b1580156104ca57600080fd5b505af11580156104de573d6000803e3d6000fd5b505050506040513d601f19601f820116820180604052508101906105029190611b34565b505b8051604080830151602084015191517f42842e0e000000000000000000000000000000000000000000000000000000008152600160a060020a038416926342842e0e9261055692309290600401611ee5565b600060405180830381600087803b15801561057057600080fd5b505af1158015610584573d6000803e3d6000fd5b5050505061059a85600001518660200151611843565b816101200151600160a060020a031685602001516040516105bb9190611e7f565b604051908190038120875190916105d29190611e7f565b60405180910390207fb223c48adf306e57aed2cf2630a6902d7d312f9101e0e467c49e8c61d8263ab88560e0015160405161060d91906124c6565b60405180910390a45050505050565b805160208201516040513390600290610636908590611e7f565b9081526020016040518091039020826040516106529190611e7f565b90815260405190819003602001902060020154600160a060020a03161461068e5760405160e560020a62461bcd02815260040161036490612122565b826060015167ffffffffffffffff8111156106be5760405160e560020a62461bcd028152600401610364906122dc565b836080015167ffffffffffffffff8111156106ee5760405160e560020a62461bcd028152600401610364906122dc565b6000600286600001516040516107049190611e7f565b908152602001604051809103902086602001516040516107249190611e7f565b90815260405190819003602001902060058101549091506107569067ffffffffffffffff604060020a90910416611812565b80600601548660400151116107805760405160e560020a62461bcd0281526004016103649061200b565b428660800151116107a65760405160e560020a62461bcd0281526004016103649061218e565b6007810154604060020a9004600160a060020a031615610873576008810154600782015460068301546040517fa9059cbb000000000000000000000000000000000000000000000000000000008152600160a060020a039384169363a9059cbb9361081f93604060020a90910490911691600401611ecc565b602060405180830381600087803b15801561083957600080fd5b505af115801561084d573d6000803e3d6000fd5b505050506040513d601f19601f820116820180604052508101906108719190611b34565b505b60078101546020870151604051604060020a909204600160a060020a03169161089c9190611e7f565b604051908190038120885190916108b39190611e7f565b60405180910390207f69cdd9411d289ccd9704e6d06638217590a9367768cd55223a1e892f43960c5984600601548a604001518b606001518c6080015160405161090094939291906124cf565b60405180910390a4600581018054608088015167ffffffffffffffff908116604060020a026fffffffffffffffff00000000000000001942831667ffffffffffffffff19948516171617909255604088015182166003840181905560a089015160048501556060909801516007840180546006909501999099557bffffffffffffffffffffffffffffffffffffffff00000000000000001992169216919091171690945550505050565b6109b2611942565b60006002846040516109c49190611e7f565b9081526020016040518091039020836040516109e09190611e7f565b9081526040805160209281900383018120610160820183528054600160a060020a03908116835260018201549483019490945260028101548416928201929092526003820154606082015260048201546080820152600582015467ffffffffffffffff80821660a08401819052604060020a92839004821660c08501819052600686015460e086015260078601549283166101008601529290910485166101208401526008909301549093166101408201529350610a9d91611913565b90509250929050565b610aae61193e565b600160a060020a0316610abf610eb5565b600160a060020a031614610ae85760405160e560020a62461bcd02815260040161036490612159565b60008054604051600160a060020a03909116907f8be0079c531659141344cd1fd0a4f28419497f9722a3daafe3b4186f6b6457e0908390a36000805473ffffffffffffffffffffffffffffffffffffffff19169055565b60026001541415610b655760405160e560020a62461bcd02815260040161036490612339565b60026001819055815160405160009291610b7e91611e7f565b90815260200160405180910390208260200151604051610b9e9190611e7f565b9081526040519081900360200190206005810154909150610bd39067ffffffffffffffff80821691604060020a900416611913565b610bf25760405160e560020a62461bcd028152600401610364906123cd565b8060060154826080015111610c1c5760405160e560020a62461bcd02815260040161036490612222565b60008260800151118015610c53575060078101546006820154608084015167ffffffffffffffff90921691610c519190612533565b115b610c725760405160e560020a62461bcd028152600401610364906121c5565b3315801590610c9457506007810154604060020a9004600160a060020a031615155b15610d4c576008810154600782015460068301546040517fa9059cbb000000000000000000000000000000000000000000000000000000008152600160a060020a039384169363a9059cbb93610cf893604060020a90910490911691600401611ecc565b602060405180830381600087803b158015610d1257600080fd5b505af1158015610d26573d6000803e3d6000fd5b505050506040513d601f19601f82011682018060405250810190610d4a9190611b34565b505b6080820151600682018190556060830151600783018054600160a060020a03808416604060020a027bffffffffffffffffffffffffffffffffffffffff0000000000000000199092169190911790915560088401546040517f23b872dd0000000000000000000000000000000000000000000000000000000081529116926323b872dd92610de09290913091600401611ee5565b602060405180830381600087803b158015610dfa57600080fd5b505af1158015610e0e573d6000803e3d6000fd5b505050506040513d601f19601f82011682018060405250810190610e329190611b34565b508160600151600160a060020a03168260200151604051610e539190611e7f565b60405190819003812084519091610e6a9190611e7f565b60405180910390207f809261b95a9b45e97ef7150078266b2dd41d68140ea51a4295cff5889b99f7848560800151604051610ea591906124c6565b60405180910390a4505060018055565b600054600160a060020a031690565b805160208201516040513390600290610ede908590611e7f565b908152602001604051809103902082604051610efa9190611e7f565b90815260405190819003602001902060020154600160a060020a031614610f365760405160e560020a62461bcd02815260040161036490612122565b600060028460000151604051610f4c9190611e7f565b90815260200160405180910390208460200151604051610f6c9190611e7f565b908152604080519182900360209081018320610160840183528054600160a060020a03908116855260018201549285019290925260028101548216928401929092526003820154606084015260048201546080840152600582015467ffffffffffffffff80821660a0860152604060020a91829004811660c0860152600684015460e0860152600784015490811661010086015204811661012084018190526008909201541661014083015290915061103a5760405160e560020a62461bcd028152600401610364906120c5565b805161012082015160208301516040517f42842e0e000000000000000000000000000000000000000000000000000000008152600160a060020a038416926342842e0e9261108e9230929190600401611ee5565b600060405180830381600087803b1580156110a857600080fd5b505af11580156110bc573d6000803e3d6000fd5b50505050816101400151600160a060020a031663a9059cbb83604001518460e001516040518363ffffffff1660e060020a0281526004016110fe929190611ecc565b602060405180830381600087803b15801561111857600080fd5b505af115801561112c573d6000803e3d6000fd5b505050506040513d601f19601f820116820180604052508101906111509190611b34565b5061116385600001518660200151611843565b816101200151600160a060020a031685602001516040516111849190611e7f565b6040519081900381208751909161119b9190611e7f565b60405180910390207fa80fa55bb42bee6d73dce4785a755f13c1537acce202a04b7b9497ef122cb6868560e0015160405161060d91906124c6565b8060e0015167ffffffffffffffff8111156112065760405160e560020a62461bcd028152600401610364906122dc565b81610100015167ffffffffffffffff8111156112375760405160e560020a62461bcd028152600401610364906122dc565b8260c0015167ffffffffffffffff8111156112675760405160e560020a62461bcd028152600401610364906122dc565b835160208501516040517f42842e0e000000000000000000000000000000000000000000000000000000008152600160a060020a038316916342842e0e916112b6913391309190600401611ee5565b600060405180830381600087803b1580156112d057600080fd5b505af11580156112e4573d6000803e3d6000fd5b50505050600285604001516040516112fc9190611e7f565b9081526020016040518091039020856060015160405161131c9190611e7f565b9081526040519081900360200190206005015467ffffffffffffffff604060020a90910416156113615760405160e560020a62461bcd02815260040161036490611f9d565b8460e001518561010001511161138c5760405160e560020a62461bcd02815260040161036490612370565b428560e00151116113b25760405160e560020a62461bcd0281526004016103649061227f565b6040518061016001604052808660000151600160a060020a031681526020018660200151815260200133600160a060020a03168152602001866080015181526020018660a0015181526020018660e0015167ffffffffffffffff16815260200186610100015167ffffffffffffffff168152602001866080015181526020018660c0015167ffffffffffffffff1681526020016000600160a060020a03168152602001866101200151600160a060020a03168152506002866040015160405161147b9190611e7f565b9081526020016040518091039020866060015160405161149b9190611e7f565b90815260408051602092819003830181208451815473ffffffffffffffffffffffffffffffffffffffff19908116600160a060020a039283161783559486015160018301558584015160028084018054881692841692909217909155606087015160038401556080870151600484015560a087015160058401805460c08a015167ffffffffffffffff1991821667ffffffffffffffff948516176fffffffffffffffff00000000000000001916604060020a91851682021790925560e08a015160068701556101008a01516007870180546101208d0151931691909416177bffffffffffffffffffffffffffffffffffffffff000000000000000019169085169091021790556101409096015160089092018054909516911617909255870151600092916115c99190611e7f565b908152602001604051809103902086606001516040516115e99190611e7f565b9081526040805160209281900383018120610160820183528054600160a060020a03908116835260018201549483019490945260028101548416828401819052600382015460608085019190915260048301546080850152600583015467ffffffffffffffff80821660a0870152604060020a91829004811660c0870152600685015460e0870152600785015490811661010087015204861661012085015260089092015490941661014083015289015191519093506116a99190611e7f565b604051809103902087604001516040516116c39190611e7f565b60405180910390207fd27a511762c20a20c8bdd83a0bf1f483d6051366775b17a7abcdcf732a696020846060015185610100015167ffffffffffffffff168660a0015167ffffffffffffffff168760c0015167ffffffffffffffff1660405161172f94939291906124cf565b60405180910390a4505050505050565b61174761193e565b600160a060020a0316611758610eb5565b600160a060020a0316146117815760405160e560020a62461bcd02815260040161036490612159565b600160a060020a0381166117aa5760405160e560020a62461bcd02815260040161036490612068565b60008054604051600160a060020a03808516939216917f8be0079c531659141344cd1fd0a4f28419497f9722a3daafe3b4186f6b6457e091a36000805473ffffffffffffffffffffffffffffffffffffffff1916600160a060020a0392909216919091179055565b61181f816201518061251b565b42106118405760405160e560020a62461bcd02815260040161036490611fd4565b50565b6002826040516118539190611e7f565b90815260200160405180910390208160405161186f9190611e7f565b908152604051908190036020019020805473ffffffffffffffffffffffffffffffffffffffff1990811682556000600183018190556002830180548316905560038301819055600483018190556005830180546fffffffffffffffffffffffffffffffff1916905560068301556007820180547bffffffffffffffffffffffffffffffffffffffffffffffffffffffff191690556008909101805490911690555050565b60008267ffffffffffffffff164211801561193757508167ffffffffffffffff1642105b9392505050565b3390565b6040805161016081018252600080825260208201819052918101829052606081018290526080810182905260a0810182905260c0810182905260e081018290526101008101829052610120810182905261014081019190915290565b600067ffffffffffffffff8311156119b8576119b8612579565b6119cb601f8401601f19166020016124ea565b90508281528383830111156119df57600080fd5b828260208301376000602084830101529392505050565b8035600160a060020a0381168114611a0d57600080fd5b919050565b600082601f830112611a22578081fd5b6119378383356020850161199e565b600060408284031215611a42578081fd5b611a4c60406124ea565b9050813567ffffffffffffffff80821115611a6657600080fd5b611a7285838601611a12565b83526020840135915080821115611a8857600080fd5b50611a9584828501611a12565b60208301525092915050565b600060208284031215611ab2578081fd5b611937826119f6565b60008060008060808587031215611ad0578283fd5b611ad9856119f6565b9350611ae7602086016119f6565b925060408501359150606085013567ffffffffffffffff811115611b09578182fd5b8501601f81018713611b19578182fd5b611b288782356020840161199e565b91505092959194509250565b600060208284031215611b45578081fd5b81518015158114611937578182fd5b60008060408385031215611b66578182fd5b823567ffffffffffffffff80821115611b7d578384fd5b611b8986838701611a12565b93506020850135915080821115611b9e578283fd5b50611bab85828601611a12565b9150509250929050565b600060208284031215611bc6578081fd5b813567ffffffffffffffff811115611bdc578182fd5b611be884828501611a31565b949350505050565b600060208284031215611c01578081fd5b813567ffffffffffffffff80821115611c18578283fd5b8184019150610140808387031215611c2e578384fd5b611c37816124ea565b9050611c42836119f6565b815260208301356020820152604083013582811115611c5f578485fd5b611c6b87828601611a12565b604083015250606083013582811115611c82578485fd5b611c8e87828601611a12565b6060830152506080830135608082015260a083013560a082015260c083013560c082015260e083013560e0820152610100915081830135828201526101209150611cd98284016119f6565b91810191909152949350505050565b600060208284031215611cf9578081fd5b813567ffffffffffffffff80821115611d10578283fd5b9083019060a08286031215611d23578283fd5b611d2d60a06124ea565b823582811115611d3b578485fd5b611d4787828601611a12565b825250602083013582811115611d5b578485fd5b611d6787828601611a12565b602083015250611d79604084016119f6565b6040820152611d8a606084016119f6565b60608201526080830135608082015280935050505092915050565b600060208284031215611db6578081fd5b813567ffffffffffffffff80821115611dcd578283fd5b9083019060c08286031215611de0578283fd5b611dea60c06124ea565b823582811115611df8578485fd5b611e0487828601611a12565b825250602083013582811115611e18578485fd5b611e2487828601611a12565b60208301525060408301356040820152606083013560608201526080830135608082015260a083013560a082015280935050505092915050565b600160a060020a03169052565b15159052565b67ffffffffffffffff169052565b60008251815b81811015611e9f5760208186018101518583015201611e85565b81811115611ead5782828501525b509190910192915050565b600160a060020a0391909116815260200190565b600160a060020a03929092168252602082015260400190565b600160a060020a039384168152919092166020820152604081019190915260600190565b600160a060020a039b8c168152602081019a909a52978a1660408a01526060890196909652608088019490945267ffffffffffffffff92831660a088015290821660c087015260e08601521661010084015283166101208301529091166101408201526101600190565b7bffffffffffffffffffffffffffffffffffffffffffffffffffffffff1991909116815260200190565b60208082526016908201527f41756374696f6e20616c72656164792065786973747300000000000000000000604082015260600190565b60208082526019908201527f41756374696f6e2068617320656e64656420616c726561647900000000000000604082015260600190565b6020808252602f908201527f546865206e65772070726963652073686f756c6420626520677265617465722060408201527f7468616e2063757272656e744269640000000000000000000000000000000000606082015260800190565b60208082526026908201527f4f776e61626c653a206e6577206f776e657220697320746865207a65726f206160408201527f6464726573730000000000000000000000000000000000000000000000000000606082015260800190565b60208082526037908201527f556e61626c6520746f20776974686472617720616e20656d707479206175637460408201527f696f6e2c20796f75206d7573742063616e63656c206974000000000000000000606082015260800190565b6020808252601e908201527f53656e646572206973206e6f74206f776e6572206f662061756374696f6e0000604082015260600190565b6020808252818101527f4f776e61626c653a2063616c6c6572206973206e6f7420746865206f776e6572604082015260600190565b6020808252601f908201527f456e642064617465206d757374206265206f6c646572207468616e206e6f7700604082015260600190565b60208082526028908201527f4269642073686f756c642062652067726561746572207468616e20626964206960408201527f6e6372656d656e74000000000000000000000000000000000000000000000000606082015260800190565b60208082526026908201527f4269642073686f756c642062652067726561746572207468616e20637572726560408201527f6e74206269640000000000000000000000000000000000000000000000000000606082015260800190565b60208082526021908201527f41756374696f6e2063616e206e6f7420737461727420696e207468652070617360408201527f7400000000000000000000000000000000000000000000000000000000000000606082015260800190565b60208082526022908201527f56616c7565206e6565647320746f2062652073746f72656420696e203634426960408201527f7473000000000000000000000000000000000000000000000000000000000000606082015260800190565b6020808252601f908201527f5265656e7472616e637947756172643a207265656e7472616e742063616c6c00604082015260600190565b60208082526021908201527f41756374696f6e2063616e206e6f7420656e64206265666f726520737461727460408201527f7300000000000000000000000000000000000000000000000000000000000000606082015260800190565b60208082526018908201527f41756374696f6e2073686f756c64206265206163746976650000000000000000604082015260600190565b600061018082019050612418828551611e5e565b6020840151602083015260408401516124346040840182611e5e565b50606084015160608301526080840151608083015260a084015161245b60a0840182611e71565b5060c084015161246e60c0840182611e71565b5060e084015160e08301526101008085015161248c82850182611e71565b5050610120808501516124a182850182611e5e565b5050610140808501516124b682850182611e5e565b5050611937610160830184611e6b565b90815260200190565b93845260208401929092526040830152606082015260800190565b604051601f8201601f1916810167ffffffffffffffff8111828210171561251357612513612579565b604052919050565b6000821982111561252e5761252e61254a565b500190565b6000828210156125455761254561254a565b500390565b7f4e487b7100000000000000000000000000000000000000000000000000000000600052601160045260246000fd5b7f4e487b7100000000000000000000000000000000000000000000000000000000600052604160045260246000fdfea2646970667358221220c5975f3d5d9e063b55d14d06aedeb369dae1e51dde71f716e38fdab187b8686664736f6c63430008010033",
  "immutableReferences": {},
  "source": "// SPDX-License-Identifier: UNLICENSED\n\npragma solidity ^0.8.1;\n\nimport \"@openzeppelin/contracts/security/ReentrancyGuard.sol\";\nimport \"@openzeppelin/contracts/access/Ownable.sol\";\nimport \"@openzeppelin/contracts/utils/math/SafeMath.sol\";\nimport \"@openzeppelin/contracts/token/ERC721/ERC721.sol\";\nimport \"@openzeppelin/contracts/token/ERC721/IERC721.sol\";\nimport \"@openzeppelin/contracts/token/ERC721/utils/ERC721Holder.sol\";\nimport \"@openzeppelin/contracts/token/ERC20/IERC20.sol\";\n\n/**\n * @title IncreasingPriceERC721Auction\n * @dev Create, accept, reset and cancel an auction of ERC721 token\n */\ncontract IncreasingPriceERC721Auction is ERC721Holder, Ownable, ReentrancyGuard {\n    mapping(string => mapping(string => Auction)) public auctions;\n\n    struct Auction {\n        address tokenAddress;\n        uint256 tokenId;\n        address owner;\n        uint256 reservePrice;\n        bytes32 ipfsHash;\n        uint64 startTime;\n        uint64 endTime;\n        uint256 currentBid;\n        uint64 bidIncrement;\n        address payable currentBidder;\n        IERC20 bidToken;\n    }\n\n    struct CreateAuctionRequest {\n        address tokenAddress;\n        uint256 tokenId;\n        string mediaSymbol;\n        string tokenSymbol;\n        uint256 reservePrice;\n        bytes32 ipfsHash;\n        uint256 bidIncrement;\n        uint256 startTime;\n        uint256 endTime;\n        address bidToken;\n    }\n    struct WithdrawAuctionRequest {\n        string mediaSymbol;\n        string tokenSymbol;\n    }\n    struct PlaceBidRequest {\n        string mediaSymbol;\n        string tokenSymbol;\n        address _address;\n        address fromAddress;\n        uint256 amount;\n    }\n    struct CancelAuctionRequest {\n        string mediaSymbol;\n        string tokenSymbol;\n    }\n    struct ResetAuctionRequest {\n        string mediaSymbol;\n        string tokenSymbol;\n        uint256 reservePrice;\n        uint256 bidIncrement;\n        uint256 endTime;\n        bytes32 ipfsHash;\n    }\n\n    event AuctionCreated(\n        string indexed _mediaSymbol,\n        string indexed _tokenSymbol,\n        address indexed _owner,\n        uint256 _reservePrice,\n        uint256 _bidIncrement,\n        uint256 _startTime,\n        uint256 _endTime\n    );\n    event Bid(\n        string indexed _mediaSymbol,\n        string indexed _tokenSymbol,\n        address indexed _bidder,\n        uint256 _amount\n    );\n    event AuctionAccepted(\n        string indexed _mediaSymbol,\n        string indexed _tokenSymbol,\n        address indexed _bidder,\n        uint256 _amount\n    );\n    event AuctionCanceled(\n        string indexed _mediaSymbol,\n        string indexed _tokenSymbol,\n        address indexed _bidder,\n        uint256 _amount\n    );\n    event AuctionRestarted(\n        string indexed _mediaSymbol,\n        string indexed _tokenSymbol,\n        address indexed _oldBidder,\n        uint256 reservePrice,\n        uint256 newReservePrice,\n        uint256 newBidIncrement,\n        uint256 newEndTime\n    );\n\n    modifier onlyAuctionOwner(string memory _mediaSymbol, string memory _tokenSymbol) {\n        require(auctions[_mediaSymbol][_tokenSymbol].owner == msg.sender, \"Sender is not owner of auction\");\n        _;\n    }\n\n    modifier _requireStoredWith64Bits(uint256 _value) {\n        require(_value <= 18446744073709551615, \"Value needs to be stored in 64Bits\");\n        _;\n    }\n\n    /**\n     * @dev createAuction creates auction on given `MediaSymbol`, under confitions:\n     * @dev - owner needs to have some amount of given `MediaSymbol`\n     * @dev - `TokenSymbol` exist\n     * @dev - `StartTime` is from the future and before `EndTime`\n     */\n    function createAuction(CreateAuctionRequest memory input)\n        external\n        _requireStoredWith64Bits(input.startTime)\n        _requireStoredWith64Bits(input.endTime)\n        _requireStoredWith64Bits(input.bidIncrement)\n    {\n        IERC721 ierc721 = IERC721(input.tokenAddress);\n        ierc721.safeTransferFrom(msg.sender, address(this), input.tokenId);\n\n        require(auctions[input.mediaSymbol][input.tokenSymbol].endTime == 0, \"Auction already exists\");\n        require(input.endTime > input.startTime, \"Auction can not end before starts\");\n        require(input.startTime > block.timestamp, \"Auction can not start in the past\");\n\n        auctions[input.mediaSymbol][input.tokenSymbol] = Auction(\n            input.tokenAddress,\n            input.tokenId,\n            msg.sender,\n            input.reservePrice,\n            input.ipfsHash,\n            uint64(input.startTime),\n            uint64(input.endTime),\n            input.reservePrice,\n            uint64(input.bidIncrement),\n            payable(address(0)),\n            IERC20(input.bidToken)\n        );\n        Auction memory _auction = auctions[input.mediaSymbol][input.tokenSymbol];\n\n        emit AuctionCreated(\n            input.mediaSymbol,\n            input.tokenSymbol,\n            _auction.owner,\n            uint256(_auction.reservePrice),\n            uint256(_auction.bidIncrement),\n            uint256(_auction.startTime),\n            uint256(_auction.endTime)\n        );\n    }\n\n    /**\n     * @dev retrieves the Auction and a bool indicating `canBid`\n     * @param mediaSymbol of ERC721 of the auction\n     * @param tokenSymbol of ERC721 of the auction\n     */\n    function getAuctionsByPartialCompositeKey(string memory mediaSymbol, string memory tokenSymbol)\n        external\n        view\n        returns (Auction memory _auction, bool canBid)\n    {\n        _auction = auctions[mediaSymbol][tokenSymbol];\n\n        canBid = _isOnAuction(_auction.startTime, _auction.endTime);\n    }\n\n    /**\n     * @dev placeBid adds bid to auction if:\n     * @dev - auction is open,\n     * @dev - amount of the bid is higher than ReservePrive or higher than previous bid incremented by BidIncrement,\n     * @dev - funds weren't withdrown yet.\n     * @dev funds of bid are transfered to auction address.\n     */\n    function placeBid(PlaceBidRequest memory input) external payable nonReentrant {\n        Auction storage _auction = auctions[input.mediaSymbol][input.tokenSymbol];\n\n        require(_isOnAuction(_auction.startTime, _auction.endTime), \"Auction should be active\");\n        require(input.amount > _auction.currentBid, \"Bid should be greater than current bid\");\n        require(\n            input.amount > 0 && (input.amount - _auction.currentBid > _auction.bidIncrement),\n            \"Bid should be greater than bid increment\"\n        );\n\n        if (msg.sender != address(0) && _auction.currentBidder != address(0)) {\n            _auction.bidToken.transfer(_auction.currentBidder, _auction.currentBid);\n        }\n        _auction.currentBid = input.amount;\n        _auction.currentBidder = payable(input.fromAddress);\n\n        _auction.bidToken.transferFrom(input.fromAddress, address(this), input.amount);\n\n        emit Bid(input.mediaSymbol, input.tokenSymbol, input.fromAddress, input.amount);\n    }\n\n    /**\n     * @dev withdrawAuction an be called when wheren't withdrawn yet and bid was made.\n     * @dev Media are transfered to the bidder and funds to the owner of the auction.\n     */\n    function withdrawAuction(WithdrawAuctionRequest memory input)\n        external\n        onlyAuctionOwner(input.mediaSymbol, input.tokenSymbol)\n    {\n        Auction memory _auction = auctions[input.mediaSymbol][input.tokenSymbol];\n        require(\n            _auction.currentBidder != address(0),\n            \"Unable to withdraw an empty auction, you must cancel it\"\n        );\n\n        IERC721 ierc721 = IERC721(_auction.tokenAddress);\n        ierc721.safeTransferFrom(address(this), _auction.currentBidder, _auction.tokenId);\n\n        _auction.bidToken.transfer(_auction.owner, _auction.currentBid);\n\n        _removeAuction(input.mediaSymbol, input.tokenSymbol);\n        emit AuctionAccepted(\n            input.mediaSymbol,\n            input.tokenSymbol,\n            _auction.currentBidder,\n            _auction.currentBid\n        );\n    }\n\n    /**\n     * @dev resetAuction resets auction if:\n     * @dev  - is called before `EndTime` plus one day\n     * @dev If bid was made, funds are returned to bidder. It's parameters are set from given input.\n     */\n    function resetAuction(ResetAuctionRequest memory input)\n        external\n        onlyAuctionOwner(input.mediaSymbol, input.tokenSymbol)\n        _requireStoredWith64Bits(input.bidIncrement)\n        _requireStoredWith64Bits(input.endTime)\n    {\n        Auction storage _auction = auctions[input.mediaSymbol][input.tokenSymbol];\n        _requireNotEndedDayAuction(_auction.endTime);\n        require(input.reservePrice > _auction.currentBid, \"The new price should be greater than currentBid\");\n        require(input.endTime > block.timestamp, \"End date must be older than now\");\n\n        if (_auction.currentBidder != address(0)) {\n            _auction.bidToken.transfer(_auction.currentBidder, _auction.currentBid);\n        }\n        emit AuctionRestarted(\n            input.mediaSymbol,\n            input.tokenSymbol,\n            _auction.currentBidder,\n            _auction.currentBid,\n            input.reservePrice,\n            input.bidIncrement,\n            input.endTime\n        );\n\n        _auction.startTime = uint64(block.timestamp);\n        _auction.endTime = uint64(input.endTime);\n        _auction.reservePrice = uint64(input.reservePrice);\n        _auction.ipfsHash = input.ipfsHash;\n        _auction.bidIncrement = uint64(input.bidIncrement);\n        _auction.currentBid = uint64(input.reservePrice);\n        _auction.currentBidder = payable(address(0));\n    }\n\n    /**\n     * @dev cancelAuction cancels auction if condition are met:\n     * @dev - is called before `EndTime` plus one day\n     * @dev If bid was made, funds are returned to bidder. Media are returned to owner.\n     */\n    function cancelAuction(CancelAuctionRequest memory input)\n        external\n        onlyAuctionOwner(input.mediaSymbol, input.tokenSymbol)\n    {\n        Auction memory _auction = auctions[input.mediaSymbol][input.tokenSymbol];\n        _requireNotEndedDayAuction(_auction.endTime);\n\n        if (_auction.currentBidder != address(0)) {\n            _auction.bidToken.transfer(_auction.currentBidder, _auction.currentBid);\n        }\n\n        IERC721 ierc721 = IERC721(_auction.tokenAddress);\n        ierc721.safeTransferFrom(address(this), _auction.owner, _auction.tokenId);\n        _removeAuction(input.mediaSymbol, input.tokenSymbol);\n\n        emit AuctionCanceled(\n            input.mediaSymbol,\n            input.tokenSymbol,\n            _auction.currentBidder,\n            _auction.currentBid\n        );\n    }\n\n    function _removeAuction(string memory _mediaSymbol, string memory _tokenSymbol) internal {\n        delete (auctions[_mediaSymbol][_tokenSymbol]);\n    }\n\n    function _isOnAuction(uint64 _startTime, uint64 _endTime) internal view returns (bool) {\n        return (block.timestamp > _startTime) && (block.timestamp < _endTime);\n    }\n\n    function _requireNotEndedDayAuction(uint256 _endTime) internal view {\n        require(block.timestamp < (_endTime + 1 days), \"Auction has ended already\");\n    }\n}\n",
  "sourcePath": "/Users/angelsatorresalmenara/Privi-Polygon/privi-auction-truffle/contracts/IncreasingPriceERC721Auction.sol",
  "compiler": {
    "name": "solc",
    "version": "0.8.1+commit.df193b15.Emscripten.clang"
  },
  "schemaVersion": "3.4.2",
  "updatedAt": "2021-09-02T16:29:40.547Z",
  "networkType": "ethereum",
  "devdoc": {
    "details": "Create, accept, reset and cancel an auction of ERC721 token",
    "kind": "dev",
    "methods": {
      "cancelAuction((string,string))": {
        "details": "cancelAuction cancels auction if condition are met:- is called before `EndTime` plus one dayIf bid was made, funds are returned to bidder. Media are returned to owner."
      },
      "createAuction((address,uint256,string,string,uint256,bytes32,uint256,uint256,uint256,address))": {
        "details": "createAuction creates auction on given `MediaSymbol`, under confitions:- owner needs to have some amount of given `MediaSymbol`- `TokenSymbol` exist- `StartTime` is from the future and before `EndTime`"
      },
      "getAuctionsByPartialCompositeKey(string,string)": {
        "details": "retrieves the Auction and a bool indicating `canBid`",
        "params": {
          "mediaSymbol": "of ERC721 of the auction",
          "tokenSymbol": "of ERC721 of the auction"
        }
      },
      "onERC721Received(address,address,uint256,bytes)": {
        "details": "See {IERC721Receiver-onERC721Received}. Always returns `IERC721Receiver.onERC721Received.selector`."
      },
      "owner()": {
        "details": "Returns the address of the current owner."
      },
      "placeBid((string,string,address,address,uint256))": {
        "details": "placeBid adds bid to auction if:- auction is open,- amount of the bid is higher than ReservePrive or higher than previous bid incremented by BidIncrement,- funds weren't withdrown yet.funds of bid are transfered to auction address."
      },
      "renounceOwnership()": {
        "details": "Leaves the contract without owner. It will not be possible to call `onlyOwner` functions anymore. Can only be called by the current owner. NOTE: Renouncing ownership will leave the contract without an owner, thereby removing any functionality that is only available to the owner."
      },
      "resetAuction((string,string,uint256,uint256,uint256,bytes32))": {
        "details": "resetAuction resets auction if:- is called before `EndTime` plus one dayIf bid was made, funds are returned to bidder. It's parameters are set from given input."
      },
      "transferOwnership(address)": {
        "details": "Transfers ownership of the contract to a new account (`newOwner`). Can only be called by the current owner."
      },
      "withdrawAuction((string,string))": {
        "details": "withdrawAuction an be called when wheren't withdrawn yet and bid was made.Media are transfered to the bidder and funds to the owner of the auction."
      }
    },
    "title": "IncreasingPriceERC721Auction",
    "version": 1
  },
  "userdoc": {
    "kind": "user",
    "methods": {},
    "version": 1
  }
}