{
  "contractName": "IncreasingPriceERC721Auction",
  "abi": [
    {
      "anonymous": false,
      "inputs": [
        {
          "indexed": true,
          "internalType": "address",
          "name": "tokenAddress",
          "type": "address"
        },
        {
          "indexed": false,
          "internalType": "uint256",
          "name": "tokenId",
          "type": "uint256"
        },
        {
          "indexed": true,
          "internalType": "address",
          "name": "_bidder",
          "type": "address"
        },
        {
          "indexed": false,
          "internalType": "uint256",
          "name": "_amount",
          "type": "uint256"
        }
      ],
      "name": "AuctionAccepted",
      "type": "event"
    },
    {
      "anonymous": false,
      "inputs": [
        {
          "indexed": true,
          "internalType": "address",
          "name": "tokenAddress",
          "type": "address"
        },
        {
          "indexed": false,
          "internalType": "uint256",
          "name": "tokenId",
          "type": "uint256"
        },
        {
          "indexed": true,
          "internalType": "address",
          "name": "_bidder",
          "type": "address"
        },
        {
          "indexed": false,
          "internalType": "uint256",
          "name": "_amount",
          "type": "uint256"
        }
      ],
      "name": "AuctionCanceled",
      "type": "event"
    },
    {
      "anonymous": false,
      "inputs": [
        {
          "indexed": true,
          "internalType": "address",
          "name": "tokenAddress",
          "type": "address"
        },
        {
          "indexed": false,
          "internalType": "uint256",
          "name": "tokenId",
          "type": "uint256"
        },
        {
          "indexed": true,
          "internalType": "address",
          "name": "_owner",
          "type": "address"
        },
        {
          "indexed": false,
          "internalType": "uint256",
          "name": "_reservePrice",
          "type": "uint256"
        },
        {
          "indexed": false,
          "internalType": "uint256",
          "name": "_bidIncrement",
          "type": "uint256"
        },
        {
          "indexed": false,
          "internalType": "uint256",
          "name": "_startTime",
          "type": "uint256"
        },
        {
          "indexed": false,
          "internalType": "uint256",
          "name": "_endTime",
          "type": "uint256"
        }
      ],
      "name": "AuctionCreated",
      "type": "event"
    },
    {
      "anonymous": false,
      "inputs": [
        {
          "indexed": true,
          "internalType": "address",
          "name": "tokenAddress",
          "type": "address"
        },
        {
          "indexed": false,
          "internalType": "uint256",
          "name": "tokenId",
          "type": "uint256"
        },
        {
          "indexed": true,
          "internalType": "address",
          "name": "_oldBidder",
          "type": "address"
        },
        {
          "indexed": false,
          "internalType": "uint256",
          "name": "reservePrice",
          "type": "uint256"
        },
        {
          "indexed": false,
          "internalType": "uint256",
          "name": "newReservePrice",
          "type": "uint256"
        },
        {
          "indexed": false,
          "internalType": "uint256",
          "name": "newBidIncrement",
          "type": "uint256"
        },
        {
          "indexed": false,
          "internalType": "uint256",
          "name": "newEndTime",
          "type": "uint256"
        }
      ],
      "name": "AuctionRestarted",
      "type": "event"
    },
    {
      "anonymous": false,
      "inputs": [
        {
          "indexed": true,
          "internalType": "address",
          "name": "tokenAddress",
          "type": "address"
        },
        {
          "indexed": false,
          "internalType": "uint256",
          "name": "tokenId",
          "type": "uint256"
        },
        {
          "indexed": true,
          "internalType": "address",
          "name": "_bidder",
          "type": "address"
        },
        {
          "indexed": false,
          "internalType": "uint256",
          "name": "_amount",
          "type": "uint256"
        }
      ],
      "name": "Bid",
      "type": "event"
    },
    {
      "anonymous": false,
      "inputs": [
        {
          "indexed": true,
          "internalType": "address",
          "name": "previousOwner",
          "type": "address"
        },
        {
          "indexed": true,
          "internalType": "address",
          "name": "newOwner",
          "type": "address"
        }
      ],
      "name": "OwnershipTransferred",
      "type": "event"
    },
    {
      "inputs": [
        {
          "internalType": "address",
          "name": "",
          "type": "address"
        },
        {
          "internalType": "uint256",
          "name": "",
          "type": "uint256"
        }
      ],
      "name": "auctions",
      "outputs": [
        {
          "internalType": "address",
          "name": "tokenAddress",
          "type": "address"
        },
        {
          "internalType": "uint256",
          "name": "tokenId",
          "type": "uint256"
        },
        {
          "internalType": "address",
          "name": "owner",
          "type": "address"
        },
        {
          "internalType": "uint256",
          "name": "reservePrice",
          "type": "uint256"
        },
        {
          "internalType": "uint64",
          "name": "startTime",
          "type": "uint64"
        },
        {
          "internalType": "uint64",
          "name": "endTime",
          "type": "uint64"
        },
        {
          "internalType": "uint256",
          "name": "currentBid",
          "type": "uint256"
        },
        {
          "internalType": "uint64",
          "name": "bidIncrement",
          "type": "uint64"
        },
        {
          "internalType": "address payable",
          "name": "currentBidder",
          "type": "address"
        },
        {
          "internalType": "contract IERC20",
          "name": "bidToken",
          "type": "address"
        }
      ],
      "stateMutability": "view",
      "type": "function"
    },
    {
      "inputs": [],
      "name": "auctionsCount",
      "outputs": [
        {
          "internalType": "uint256",
          "name": "",
          "type": "uint256"
        }
      ],
      "stateMutability": "view",
      "type": "function"
    },
    {
      "inputs": [
        {
          "internalType": "address",
          "name": "",
          "type": "address"
        },
        {
          "internalType": "address",
          "name": "",
          "type": "address"
        },
        {
          "internalType": "uint256",
          "name": "",
          "type": "uint256"
        },
        {
          "internalType": "bytes",
          "name": "",
          "type": "bytes"
        }
      ],
      "name": "onERC721Received",
      "outputs": [
        {
          "internalType": "bytes4",
          "name": "",
          "type": "bytes4"
        }
      ],
      "stateMutability": "nonpayable",
      "type": "function"
    },
    {
      "inputs": [],
      "name": "owner",
      "outputs": [
        {
          "internalType": "address",
          "name": "",
          "type": "address"
        }
      ],
      "stateMutability": "view",
      "type": "function"
    },
    {
      "inputs": [],
      "name": "renounceOwnership",
      "outputs": [],
      "stateMutability": "nonpayable",
      "type": "function"
    },
    {
      "inputs": [
        {
          "internalType": "address",
          "name": "newOwner",
          "type": "address"
        }
      ],
      "name": "transferOwnership",
      "outputs": [],
      "stateMutability": "nonpayable",
      "type": "function"
    },
    {
      "inputs": [
        {
          "components": [
            {
              "internalType": "address",
              "name": "tokenAddress",
              "type": "address"
            },
            {
              "internalType": "uint256",
              "name": "tokenId",
              "type": "uint256"
            },
            {
              "internalType": "uint256",
              "name": "reservePrice",
              "type": "uint256"
            },
            {
              "internalType": "uint256",
              "name": "startTime",
              "type": "uint256"
            },
            {
              "internalType": "uint256",
              "name": "endTime",
              "type": "uint256"
            },
            {
              "internalType": "address",
              "name": "bidToken",
              "type": "address"
            }
          ],
          "internalType": "struct IncreasingPriceERC721Auction.CreateAuctionRequest",
          "name": "input",
          "type": "tuple"
        }
      ],
      "name": "createAuction",
      "outputs": [],
      "stateMutability": "nonpayable",
      "type": "function"
    },
    {
      "inputs": [
        {
          "internalType": "address",
          "name": "tokenAddress",
          "type": "address"
        },
        {
          "internalType": "uint256",
          "name": "tokenId",
          "type": "uint256"
        }
      ],
      "name": "getAuctionsByPartialCompositeKey",
      "outputs": [
        {
          "components": [
            {
              "internalType": "address",
              "name": "tokenAddress",
              "type": "address"
            },
            {
              "internalType": "uint256",
              "name": "tokenId",
              "type": "uint256"
            },
            {
              "internalType": "address",
              "name": "owner",
              "type": "address"
            },
            {
              "internalType": "uint256",
              "name": "reservePrice",
              "type": "uint256"
            },
            {
              "internalType": "uint64",
              "name": "startTime",
              "type": "uint64"
            },
            {
              "internalType": "uint64",
              "name": "endTime",
              "type": "uint64"
            },
            {
              "internalType": "uint256",
              "name": "currentBid",
              "type": "uint256"
            },
            {
              "internalType": "uint64",
              "name": "bidIncrement",
              "type": "uint64"
            },
            {
              "internalType": "address payable",
              "name": "currentBidder",
              "type": "address"
            },
            {
              "internalType": "contract IERC20",
              "name": "bidToken",
              "type": "address"
            }
          ],
          "internalType": "struct IncreasingPriceERC721Auction.Auction",
          "name": "_auction",
          "type": "tuple"
        },
        {
          "internalType": "bool",
          "name": "canBid",
          "type": "bool"
        }
      ],
      "stateMutability": "view",
      "type": "function"
    },
    {
      "inputs": [
        {
          "components": [
            {
              "internalType": "address",
              "name": "tokenAddress",
              "type": "address"
            },
            {
              "internalType": "uint256",
              "name": "tokenId",
              "type": "uint256"
            },
            {
              "internalType": "address",
              "name": "_address",
              "type": "address"
            },
            {
              "internalType": "address",
              "name": "fromAddress",
              "type": "address"
            },
            {
              "internalType": "uint256",
              "name": "amount",
              "type": "uint256"
            }
          ],
          "internalType": "struct IncreasingPriceERC721Auction.PlaceBidRequest",
          "name": "input",
          "type": "tuple"
        }
      ],
      "name": "placeBid",
      "outputs": [],
      "stateMutability": "payable",
      "type": "function"
    },
    {
      "inputs": [
        {
          "components": [
            {
              "internalType": "address",
              "name": "tokenAddress",
              "type": "address"
            },
            {
              "internalType": "uint256",
              "name": "tokenId",
              "type": "uint256"
            }
          ],
          "internalType": "struct IncreasingPriceERC721Auction.WithdrawAuctionRequest",
          "name": "input",
          "type": "tuple"
        }
      ],
      "name": "withdrawAuction",
      "outputs": [],
      "stateMutability": "nonpayable",
      "type": "function"
    },
    {
      "inputs": [
        {
          "components": [
            {
              "internalType": "address",
              "name": "tokenAddress",
              "type": "address"
            },
            {
              "internalType": "uint256",
              "name": "tokenId",
              "type": "uint256"
            },
            {
              "internalType": "uint256",
              "name": "reservePrice",
              "type": "uint256"
            },
            {
              "internalType": "uint256",
              "name": "bidIncrement",
              "type": "uint256"
            },
            {
              "internalType": "uint256",
              "name": "endTime",
              "type": "uint256"
            },
            {
              "internalType": "bytes32",
              "name": "ipfsHash",
              "type": "bytes32"
            }
          ],
          "internalType": "struct IncreasingPriceERC721Auction.ResetAuctionRequest",
          "name": "input",
          "type": "tuple"
        }
      ],
      "name": "resetAuction",
      "outputs": [],
      "stateMutability": "nonpayable",
      "type": "function"
    },
    {
      "inputs": [
        {
          "components": [
            {
              "internalType": "address",
              "name": "tokenAddress",
              "type": "address"
            },
            {
              "internalType": "uint256",
              "name": "tokenId",
              "type": "uint256"
            }
          ],
          "internalType": "struct IncreasingPriceERC721Auction.CancelAuctionRequest",
          "name": "input",
          "type": "tuple"
        }
      ],
      "name": "cancelAuction",
      "outputs": [],
      "stateMutability": "nonpayable",
      "type": "function"
    }
  ],
  "bytecode": "0x60806040523480156200001157600080fd5b50600062000024620000cf60201b60201c565b9050806000806101000a81548173ffffffffffffffffffffffffffffffffffffffff021916908373ffffffffffffffffffffffffffffffffffffffff1602179055508073ffffffffffffffffffffffffffffffffffffffff16600073ffffffffffffffffffffffffffffffffffffffff167f8be0079c531659141344cd1fd0a4f28419497f9722a3daafe3b4186f6b6457e060405160405180910390a35060018081905550620000d7565b600033905090565b613d9d80620000e76000396000f3fe6080604052600436106100a75760003560e01c80638da5cb5b116100645780638da5cb5b146101c1578063953c9221146101ec578063b830620a14610215578063f1c3a4b314610240578063f2fde38b1461027e578063f94cdebd146102a7576100a7565b8063150b7a02146100ac578063399f9ed2146100e95780634314a9171461011257806344f91c1e1461013b578063715018a6146101815780638bceec1b14610198575b600080fd5b3480156100b857600080fd5b506100d360048036038101906100ce9190612d59565b6102c3565b6040516100e09190613419565b60405180910390f35b3480156100f557600080fd5b50610110600480360381019061010b9190612edd565b6102d7565b005b34801561011e57600080fd5b5061013960048036038101906101349190612e39565b610858565b005b34801561014757600080fd5b50610162600480360381019061015d9190612dd4565b610db5565b6040516101789a9998979695949392919061337d565b60405180910390f35b34801561018d57600080fd5b50610196610ed2565b005b3480156101a457600080fd5b506101bf60048036038101906101ba9190612e62565b61100c565b005b3480156101cd57600080fd5b506101d6611894565b6040516101e391906132a2565b60405180910390f35b3480156101f857600080fd5b50610213600480360381019061020e9190612eb4565b6118bd565b005b34801561022157600080fd5b5061022a611e3e565b604051610237919061363f565b60405180910390f35b34801561024c57600080fd5b5061026760048036038101906102629190612dd4565b611e44565b604051610275929190613614565b60405180910390f35b34801561028a57600080fd5b506102a560048036038101906102a09190612d30565b6120d3565b005b6102c160048036038101906102bc9190612e8b565b61227c565b005b600063150b7a0260e01b9050949350505050565b806000015181602001513373ffffffffffffffffffffffffffffffffffffffff16600360008473ffffffffffffffffffffffffffffffffffffffff1673ffffffffffffffffffffffffffffffffffffffff168152602001908152602001600020600083815260200190815260200160002060020160009054906101000a900473ffffffffffffffffffffffffffffffffffffffff1673ffffffffffffffffffffffffffffffffffffffff16146103c2576040517f08c379a00000000000000000000000000000000000000000000000000000000081526004016103b9906134d4565b60405180910390fd5b600060036000856000015173ffffffffffffffffffffffffffffffffffffffff1673ffffffffffffffffffffffffffffffffffffffff168152602001908152602001600020600085602001518152602001908152602001600020604051806101400160405290816000820160009054906101000a900473ffffffffffffffffffffffffffffffffffffffff1673ffffffffffffffffffffffffffffffffffffffff1673ffffffffffffffffffffffffffffffffffffffff168152602001600182015481526020016002820160009054906101000a900473ffffffffffffffffffffffffffffffffffffffff1673ffffffffffffffffffffffffffffffffffffffff1673ffffffffffffffffffffffffffffffffffffffff168152602001600382015481526020016004820160009054906101000a900467ffffffffffffffff1667ffffffffffffffff1667ffffffffffffffff1681526020016004820160089054906101000a900467ffffffffffffffff1667ffffffffffffffff1667ffffffffffffffff168152602001600582015481526020016006820160009054906101000a900467ffffffffffffffff1667ffffffffffffffff1667ffffffffffffffff1681526020016006820160089054906101000a900473ffffffffffffffffffffffffffffffffffffffff1673ffffffffffffffffffffffffffffffffffffffff1673ffffffffffffffffffffffffffffffffffffffff1681526020016007820160009054906101000a900473ffffffffffffffffffffffffffffffffffffffff1673ffffffffffffffffffffffffffffffffffffffff1673ffffffffffffffffffffffffffffffffffffffff16815250509050600073ffffffffffffffffffffffffffffffffffffffff1681610100015173ffffffffffffffffffffffffffffffffffffffff1614156106ab576040517f08c379a00000000000000000000000000000000000000000000000000000000081526004016106a2906134b4565b60405180910390fd5b6000816000015190508073ffffffffffffffffffffffffffffffffffffffff166342842e0e3084610100015185602001516040518463ffffffff1660e01b81526004016106fa939291906132e6565b600060405180830381600087803b15801561071457600080fd5b505af1158015610728573d6000803e3d6000fd5b5050505081610120015173ffffffffffffffffffffffffffffffffffffffff1663a9059cbb83604001518460c001516040518363ffffffff1660e01b8152600401610774929190613354565b602060405180830381600087803b15801561078e57600080fd5b505af11580156107a2573d6000803e3d6000fd5b505050506040513d601f19601f820116820180604052508101906107c69190612e10565b506107d985600001518660200151612770565b81610100015173ffffffffffffffffffffffffffffffffffffffff16856000015173ffffffffffffffffffffffffffffffffffffffff167fc006a1c4d26d8f0afef7e88f39ac9e52421b07f8aa42c7389fb175e3ef27352487602001518560c0015160405161084992919061365a565b60405180910390a35050505050565b806000015181602001513373ffffffffffffffffffffffffffffffffffffffff16600360008473ffffffffffffffffffffffffffffffffffffffff1673ffffffffffffffffffffffffffffffffffffffff168152602001908152602001600020600083815260200190815260200160002060020160009054906101000a900473ffffffffffffffffffffffffffffffffffffffff1673ffffffffffffffffffffffffffffffffffffffff1614610943576040517f08c379a000000000000000000000000000000000000000000000000000000000815260040161093a906134d4565b60405180910390fd5b600060036000856000015173ffffffffffffffffffffffffffffffffffffffff1673ffffffffffffffffffffffffffffffffffffffff168152602001908152602001600020600085602001518152602001908152602001600020604051806101400160405290816000820160009054906101000a900473ffffffffffffffffffffffffffffffffffffffff1673ffffffffffffffffffffffffffffffffffffffff1673ffffffffffffffffffffffffffffffffffffffff168152602001600182015481526020016002820160009054906101000a900473ffffffffffffffffffffffffffffffffffffffff1673ffffffffffffffffffffffffffffffffffffffff1673ffffffffffffffffffffffffffffffffffffffff168152602001600382015481526020016004820160009054906101000a900467ffffffffffffffff1667ffffffffffffffff1667ffffffffffffffff1681526020016004820160089054906101000a900467ffffffffffffffff1667ffffffffffffffff1667ffffffffffffffff168152602001600582015481526020016006820160009054906101000a900467ffffffffffffffff1667ffffffffffffffff1667ffffffffffffffff1681526020016006820160089054906101000a900473ffffffffffffffffffffffffffffffffffffffff1673ffffffffffffffffffffffffffffffffffffffff1673ffffffffffffffffffffffffffffffffffffffff1681526020016007820160009054906101000a900473ffffffffffffffffffffffffffffffffffffffff1673ffffffffffffffffffffffffffffffffffffffff1673ffffffffffffffffffffffffffffffffffffffff16815250509050610bce8160a0015167ffffffffffffffff166128cc565b600073ffffffffffffffffffffffffffffffffffffffff1681610100015173ffffffffffffffffffffffffffffffffffffffff1614610ca45780610120015173ffffffffffffffffffffffffffffffffffffffff1663a9059cbb8261010001518360c001516040518363ffffffff1660e01b8152600401610c509291906132bd565b602060405180830381600087803b158015610c6a57600080fd5b505af1158015610c7e573d6000803e3d6000fd5b505050506040513d601f19601f82011682018060405250810190610ca29190612e10565b505b6000816000015190508073ffffffffffffffffffffffffffffffffffffffff166342842e0e30846040015185602001516040518463ffffffff1660e01b8152600401610cf29392919061331d565b600060405180830381600087803b158015610d0c57600080fd5b505af1158015610d20573d6000803e3d6000fd5b50505050610d3685600001518660200151612770565b81610100015173ffffffffffffffffffffffffffffffffffffffff16856000015173ffffffffffffffffffffffffffffffffffffffff167ffbe00424bd079b23810fb65852d4dae88b42ba65f6c05d3af213b30cd57ccaad87602001518560c00151604051610da692919061365a565b60405180910390a35050505050565b6003602052816000526040600020602052806000526040600020600091509150508060000160009054906101000a900473ffffffffffffffffffffffffffffffffffffffff16908060010154908060020160009054906101000a900473ffffffffffffffffffffffffffffffffffffffff16908060030154908060040160009054906101000a900467ffffffffffffffff16908060040160089054906101000a900467ffffffffffffffff16908060050154908060060160009054906101000a900467ffffffffffffffff16908060060160089054906101000a900473ffffffffffffffffffffffffffffffffffffffff16908060070160009054906101000a900473ffffffffffffffffffffffffffffffffffffffff1690508a565b610eda61291f565b73ffffffffffffffffffffffffffffffffffffffff16610ef8611894565b73ffffffffffffffffffffffffffffffffffffffff1614610f4e576040517f08c379a0000000000000000000000000000000000000000000000000000000008152600401610f45906134f4565b60405180910390fd5b600073ffffffffffffffffffffffffffffffffffffffff1660008054906101000a900473ffffffffffffffffffffffffffffffffffffffff1673ffffffffffffffffffffffffffffffffffffffff167f8be0079c531659141344cd1fd0a4f28419497f9722a3daafe3b4186f6b6457e060405160405180910390a360008060006101000a81548173ffffffffffffffffffffffffffffffffffffffff021916908373ffffffffffffffffffffffffffffffffffffffff160217905550565b806060015167ffffffffffffffff81111561105c576040517f08c379a000000000000000000000000000000000000000000000000000000000815260040161105390613594565b60405180910390fd5b816080015167ffffffffffffffff8111156110ac576040517f08c379a00000000000000000000000000000000000000000000000000000000081526004016110a390613594565b60405180910390fd5b6000836000015190508073ffffffffffffffffffffffffffffffffffffffff166342842e0e333087602001516040518463ffffffff1660e01b81526004016110f69392919061331d565b600060405180830381600087803b15801561111057600080fd5b505af1158015611124573d6000803e3d6000fd5b50505050600060036000866000015173ffffffffffffffffffffffffffffffffffffffff1673ffffffffffffffffffffffffffffffffffffffff16815260200190815260200160002060008660200151815260200190815260200160002060040160089054906101000a900467ffffffffffffffff1667ffffffffffffffff16146111e4576040517f08c379a00000000000000000000000000000000000000000000000000000000081526004016111db90613434565b60405180910390fd5b836060015184608001511161122e576040517f08c379a0000000000000000000000000000000000000000000000000000000008152600401611225906135d4565b60405180910390fd5b42846060015111611274576040517f08c379a000000000000000000000000000000000000000000000000000000000815260040161126b90613574565b60405180910390fd5b604051806101400160405280856000015173ffffffffffffffffffffffffffffffffffffffff168152602001856020015181526020013373ffffffffffffffffffffffffffffffffffffffff16815260200185604001518152602001856060015167ffffffffffffffff168152602001856080015167ffffffffffffffff16815260200185604001518152602001600067ffffffffffffffff168152602001600073ffffffffffffffffffffffffffffffffffffffff1681526020018560a0015173ffffffffffffffffffffffffffffffffffffffff1681525060036000866000015173ffffffffffffffffffffffffffffffffffffffff1673ffffffffffffffffffffffffffffffffffffffff16815260200190815260200160002060008660200151815260200190815260200160002060008201518160000160006101000a81548173ffffffffffffffffffffffffffffffffffffffff021916908373ffffffffffffffffffffffffffffffffffffffff1602179055506020820151816001015560408201518160020160006101000a81548173ffffffffffffffffffffffffffffffffffffffff021916908373ffffffffffffffffffffffffffffffffffffffff1602179055506060820151816003015560808201518160040160006101000a81548167ffffffffffffffff021916908367ffffffffffffffff16021790555060a08201518160040160086101000a81548167ffffffffffffffff021916908367ffffffffffffffff16021790555060c0820151816005015560e08201518160060160006101000a81548167ffffffffffffffff021916908367ffffffffffffffff1602179055506101008201518160060160086101000a81548173ffffffffffffffffffffffffffffffffffffffff021916908373ffffffffffffffffffffffffffffffffffffffff1602179055506101208201518160070160006101000a81548173ffffffffffffffffffffffffffffffffffffffff021916908373ffffffffffffffffffffffffffffffffffffffff160217905550905050600060036000866000015173ffffffffffffffffffffffffffffffffffffffff1673ffffffffffffffffffffffffffffffffffffffff168152602001908152602001600020600086602001518152602001908152602001600020604051806101400160405290816000820160009054906101000a900473ffffffffffffffffffffffffffffffffffffffff1673ffffffffffffffffffffffffffffffffffffffff1673ffffffffffffffffffffffffffffffffffffffff168152602001600182015481526020016002820160009054906101000a900473ffffffffffffffffffffffffffffffffffffffff1673ffffffffffffffffffffffffffffffffffffffff1673ffffffffffffffffffffffffffffffffffffffff168152602001600382015481526020016004820160009054906101000a900467ffffffffffffffff1667ffffffffffffffff1667ffffffffffffffff1681526020016004820160089054906101000a900467ffffffffffffffff1667ffffffffffffffff1667ffffffffffffffff168152602001600582015481526020016006820160009054906101000a900467ffffffffffffffff1667ffffffffffffffff1667ffffffffffffffff1681526020016006820160089054906101000a900473ffffffffffffffffffffffffffffffffffffffff1673ffffffffffffffffffffffffffffffffffffffff1673ffffffffffffffffffffffffffffffffffffffff1681526020016007820160009054906101000a900473ffffffffffffffffffffffffffffffffffffffff1673ffffffffffffffffffffffffffffffffffffffff1673ffffffffffffffffffffffffffffffffffffffff16815250509050806040015173ffffffffffffffffffffffffffffffffffffffff16856000015173ffffffffffffffffffffffffffffffffffffffff167faad3ca328e4b762aed949db2ae4cf74d5fa0e3bc7148b580c233a0f4ea267e5c876020015184606001518560e0015167ffffffffffffffff16866080015167ffffffffffffffff168760a0015167ffffffffffffffff16604051611885959493929190613683565b60405180910390a35050505050565b60008060009054906101000a900473ffffffffffffffffffffffffffffffffffffffff16905090565b806000015181602001513373ffffffffffffffffffffffffffffffffffffffff16600360008473ffffffffffffffffffffffffffffffffffffffff1673ffffffffffffffffffffffffffffffffffffffff168152602001908152602001600020600083815260200190815260200160002060020160009054906101000a900473ffffffffffffffffffffffffffffffffffffffff1673ffffffffffffffffffffffffffffffffffffffff16146119a8576040517f08c379a000000000000000000000000000000000000000000000000000000000815260040161199f906134d4565b60405180910390fd5b826060015167ffffffffffffffff8111156119f8576040517f08c379a00000000000000000000000000000000000000000000000000000000081526004016119ef90613594565b60405180910390fd5b836080015167ffffffffffffffff811115611a48576040517f08c379a0000000000000000000000000000000000000000000000000000000008152600401611a3f90613594565b60405180910390fd5b600060036000876000015173ffffffffffffffffffffffffffffffffffffffff1673ffffffffffffffffffffffffffffffffffffffff1681526020019081526020016000206000876020015181526020019081526020016000209050611acf8160040160089054906101000a900467ffffffffffffffff1667ffffffffffffffff166128cc565b8060050154866040015111611b19576040517f08c379a0000000000000000000000000000000000000000000000000000000008152600401611b1090613474565b60405180910390fd5b42866080015111611b5f576040517f08c379a0000000000000000000000000000000000000000000000000000000008152600401611b5690613514565b60405180910390fd5b600073ffffffffffffffffffffffffffffffffffffffff168160060160089054906101000a900473ffffffffffffffffffffffffffffffffffffffff1673ffffffffffffffffffffffffffffffffffffffff1614611c92578060070160009054906101000a900473ffffffffffffffffffffffffffffffffffffffff1673ffffffffffffffffffffffffffffffffffffffff1663a9059cbb8260060160089054906101000a900473ffffffffffffffffffffffffffffffffffffffff1683600501546040518363ffffffff1660e01b8152600401611c3e9291906132bd565b602060405180830381600087803b158015611c5857600080fd5b505af1158015611c6c573d6000803e3d6000fd5b505050506040513d601f19601f82011682018060405250810190611c909190612e10565b505b8060060160089054906101000a900473ffffffffffffffffffffffffffffffffffffffff1673ffffffffffffffffffffffffffffffffffffffff16866000015173ffffffffffffffffffffffffffffffffffffffff167f8e9be59854ba3cd6640d39d28fc435f879cb40a021048b627ca82cda6ce98e86886020015184600501548a604001518b606001518c60800151604051611d33959493929190613683565b60405180910390a3428160040160006101000a81548167ffffffffffffffff021916908367ffffffffffffffff16021790555085608001518160040160086101000a81548167ffffffffffffffff021916908367ffffffffffffffff160217905550856040015167ffffffffffffffff16816003018190555085606001518160060160006101000a81548167ffffffffffffffff021916908367ffffffffffffffff160217905550856040015167ffffffffffffffff16816005018190555060008160060160086101000a81548173ffffffffffffffffffffffffffffffffffffffff021916908373ffffffffffffffffffffffffffffffffffffffff160217905550505050505050565b60025481565b611e4c612953565b6000600360008573ffffffffffffffffffffffffffffffffffffffff1673ffffffffffffffffffffffffffffffffffffffff1681526020019081526020016000206000848152602001908152602001600020604051806101400160405290816000820160009054906101000a900473ffffffffffffffffffffffffffffffffffffffff1673ffffffffffffffffffffffffffffffffffffffff1673ffffffffffffffffffffffffffffffffffffffff168152602001600182015481526020016002820160009054906101000a900473ffffffffffffffffffffffffffffffffffffffff1673ffffffffffffffffffffffffffffffffffffffff1673ffffffffffffffffffffffffffffffffffffffff168152602001600382015481526020016004820160009054906101000a900467ffffffffffffffff1667ffffffffffffffff1667ffffffffffffffff1681526020016004820160089054906101000a900467ffffffffffffffff1667ffffffffffffffff1667ffffffffffffffff168152602001600582015481526020016006820160009054906101000a900467ffffffffffffffff1667ffffffffffffffff1667ffffffffffffffff1681526020016006820160089054906101000a900473ffffffffffffffffffffffffffffffffffffffff1673ffffffffffffffffffffffffffffffffffffffff1673ffffffffffffffffffffffffffffffffffffffff1681526020016007820160009054906101000a900473ffffffffffffffffffffffffffffffffffffffff1673ffffffffffffffffffffffffffffffffffffffff1673ffffffffffffffffffffffffffffffffffffffff168152505091506120ca82608001518360a00151612927565b90509250929050565b6120db61291f565b73ffffffffffffffffffffffffffffffffffffffff166120f9611894565b73ffffffffffffffffffffffffffffffffffffffff161461214f576040517f08c379a0000000000000000000000000000000000000000000000000000000008152600401612146906134f4565b60405180910390fd5b600073ffffffffffffffffffffffffffffffffffffffff168173ffffffffffffffffffffffffffffffffffffffff1614156121bf576040517f08c379a00000000000000000000000000000000000000000000000000000000081526004016121b690613494565b60405180910390fd5b8073ffffffffffffffffffffffffffffffffffffffff1660008054906101000a900473ffffffffffffffffffffffffffffffffffffffff1673ffffffffffffffffffffffffffffffffffffffff167f8be0079c531659141344cd1fd0a4f28419497f9722a3daafe3b4186f6b6457e060405160405180910390a3806000806101000a81548173ffffffffffffffffffffffffffffffffffffffff021916908373ffffffffffffffffffffffffffffffffffffffff16021790555050565b600260015414156122c2576040517f08c379a00000000000000000000000000000000000000000000000000000000081526004016122b9906135b4565b60405180910390fd5b6002600181905550600060036000836000015173ffffffffffffffffffffffffffffffffffffffff1673ffffffffffffffffffffffffffffffffffffffff16815260200190815260200160002060008360200151815260200190815260200160002090506123608160040160009054906101000a900467ffffffffffffffff168260040160089054906101000a900467ffffffffffffffff16612927565b61239f576040517f08c379a0000000000000000000000000000000000000000000000000000000008152600401612396906135f4565b60405180910390fd5b80600501548260800151116123e9576040517f08c379a00000000000000000000000000000000000000000000000000000000081526004016123e090613554565b60405180910390fd5b6000826080015111801561243157508060060160009054906101000a900467ffffffffffffffff1667ffffffffffffffff168160050154836080015161242f9190613793565b115b612470576040517f08c379a000000000000000000000000000000000000000000000000000000000815260040161246790613534565b60405180910390fd5b600073ffffffffffffffffffffffffffffffffffffffff163373ffffffffffffffffffffffffffffffffffffffff16141580156124fe5750600073ffffffffffffffffffffffffffffffffffffffff168160060160089054906101000a900473ffffffffffffffffffffffffffffffffffffffff1673ffffffffffffffffffffffffffffffffffffffff1614155b156125de578060070160009054906101000a900473ffffffffffffffffffffffffffffffffffffffff1673ffffffffffffffffffffffffffffffffffffffff1663a9059cbb8260060160089054906101000a900473ffffffffffffffffffffffffffffffffffffffff1683600501546040518363ffffffff1660e01b815260040161258a9291906132bd565b602060405180830381600087803b1580156125a457600080fd5b505af11580156125b8573d6000803e3d6000fd5b505050506040513d601f19601f820116820180604052508101906125dc9190612e10565b505b8160800151816005018190555081606001518160060160086101000a81548173ffffffffffffffffffffffffffffffffffffffff021916908373ffffffffffffffffffffffffffffffffffffffff1602179055508060070160009054906101000a900473ffffffffffffffffffffffffffffffffffffffff1673ffffffffffffffffffffffffffffffffffffffff166323b872dd83606001513085608001516040518463ffffffff1660e01b815260040161269b9392919061331d565b602060405180830381600087803b1580156126b557600080fd5b505af11580156126c9573d6000803e3d6000fd5b505050506040513d601f19601f820116820180604052508101906126ed9190612e10565b50816060015173ffffffffffffffffffffffffffffffffffffffff16826000015173ffffffffffffffffffffffffffffffffffffffff167f7f863cab1b412077be133ef69af7df0e6aca4c67ff7d89db843d601f124a025d8460200151856080015160405161275d92919061365a565b60405180910390a3506001808190555050565b600360008373ffffffffffffffffffffffffffffffffffffffff1673ffffffffffffffffffffffffffffffffffffffff1681526020019081526020016000206000828152602001908152602001600020600080820160006101000a81549073ffffffffffffffffffffffffffffffffffffffff021916905560018201600090556002820160006101000a81549073ffffffffffffffffffffffffffffffffffffffff021916905560038201600090556004820160006101000a81549067ffffffffffffffff02191690556004820160086101000a81549067ffffffffffffffff021916905560058201600090556006820160006101000a81549067ffffffffffffffff02191690556006820160086101000a81549073ffffffffffffffffffffffffffffffffffffffff02191690556007820160006101000a81549073ffffffffffffffffffffffffffffffffffffffff021916905550505050565b62015180816128db919061373d565b421061291c576040517f08c379a000000000000000000000000000000000000000000000000000000000815260040161291390613454565b60405180910390fd5b50565b600033905090565b60008267ffffffffffffffff164211801561294b57508167ffffffffffffffff1642105b905092915050565b604051806101400160405280600073ffffffffffffffffffffffffffffffffffffffff16815260200160008152602001600073ffffffffffffffffffffffffffffffffffffffff16815260200160008152602001600067ffffffffffffffff168152602001600067ffffffffffffffff16815260200160008152602001600067ffffffffffffffff168152602001600073ffffffffffffffffffffffffffffffffffffffff168152602001600073ffffffffffffffffffffffffffffffffffffffff1681525090565b6000612a2f612a2a846136fb565b6136d6565b905082815260208101848484011115612a4757600080fd5b612a528482856138c5565b509392505050565b600081359050612a6981613d0b565b92915050565b600081519050612a7e81613d22565b92915050565b600081359050612a9381613d39565b92915050565b600082601f830112612aaa57600080fd5b8135612aba848260208601612a1c565b91505092915050565b600060408284031215612ad557600080fd5b612adf60406136d6565b90506000612aef84828501612a5a565b6000830152506020612b0384828501612d1b565b60208301525092915050565b600060c08284031215612b2157600080fd5b612b2b60c06136d6565b90506000612b3b84828501612a5a565b6000830152506020612b4f84828501612d1b565b6020830152506040612b6384828501612d1b565b6040830152506060612b7784828501612d1b565b6060830152506080612b8b84828501612d1b565b60808301525060a0612b9f84828501612a5a565b60a08301525092915050565b600060a08284031215612bbd57600080fd5b612bc760a06136d6565b90506000612bd784828501612a5a565b6000830152506020612beb84828501612d1b565b6020830152506040612bff84828501612a5a565b6040830152506060612c1384828501612a5a565b6060830152506080612c2784828501612d1b565b60808301525092915050565b600060c08284031215612c4557600080fd5b612c4f60c06136d6565b90506000612c5f84828501612a5a565b6000830152506020612c7384828501612d1b565b6020830152506040612c8784828501612d1b565b6040830152506060612c9b84828501612d1b565b6060830152506080612caf84828501612d1b565b60808301525060a0612cc384828501612a84565b60a08301525092915050565b600060408284031215612ce157600080fd5b612ceb60406136d6565b90506000612cfb84828501612a5a565b6000830152506020612d0f84828501612d1b565b60208301525092915050565b600081359050612d2a81613d50565b92915050565b600060208284031215612d4257600080fd5b6000612d5084828501612a5a565b91505092915050565b60008060008060808587031215612d6f57600080fd5b6000612d7d87828801612a5a565b9450506020612d8e87828801612a5a565b9350506040612d9f87828801612d1b565b925050606085013567ffffffffffffffff811115612dbc57600080fd5b612dc887828801612a99565b91505092959194509250565b60008060408385031215612de757600080fd5b6000612df585828601612a5a565b9250506020612e0685828601612d1b565b9150509250929050565b600060208284031215612e2257600080fd5b6000612e3084828501612a6f565b91505092915050565b600060408284031215612e4b57600080fd5b6000612e5984828501612ac3565b91505092915050565b600060c08284031215612e7457600080fd5b6000612e8284828501612b0f565b91505092915050565b600060a08284031215612e9d57600080fd5b6000612eab84828501612bab565b91505092915050565b600060c08284031215612ec657600080fd5b6000612ed484828501612c33565b91505092915050565b600060408284031215612eef57600080fd5b6000612efd84828501612ccf565b91505092915050565b612f0f8161386b565b82525050565b612f1e816137d9565b82525050565b612f2d816137d9565b82525050565b612f3c816137c7565b82525050565b612f4b816137c7565b82525050565b612f5a816137eb565b82525050565b612f6981613801565b82525050565b612f788161387d565b82525050565b612f878161387d565b82525050565b6000612f9a60168361372c565b9150612fa582613974565b602082019050919050565b6000612fbd60198361372c565b9150612fc88261399d565b602082019050919050565b6000612fe0602f8361372c565b9150612feb826139c6565b604082019050919050565b600061300360268361372c565b915061300e82613a15565b604082019050919050565b600061302660378361372c565b915061303182613a64565b604082019050919050565b6000613049601e8361372c565b915061305482613ab3565b602082019050919050565b600061306c60208361372c565b915061307782613adc565b602082019050919050565b600061308f601f8361372c565b915061309a82613b05565b602082019050919050565b60006130b260288361372c565b91506130bd82613b2e565b604082019050919050565b60006130d560268361372c565b91506130e082613b7d565b604082019050919050565b60006130f860218361372c565b915061310382613bcc565b604082019050919050565b600061311b60228361372c565b915061312682613c1b565b604082019050919050565b600061313e601f8361372c565b915061314982613c6a565b602082019050919050565b600061316160218361372c565b915061316c82613c93565b604082019050919050565b600061318460188361372c565b915061318f82613ce2565b602082019050919050565b610140820160008201516131b16000850182612f33565b5060208201516131c46020850182613266565b5060408201516131d76040850182612f33565b5060608201516131ea6060850182613266565b5060808201516131fd6080850182613284565b5060a082015161321060a0850182613284565b5060c082015161322360c0850182613266565b5060e082015161323660e0850182613284565b5061010082015161324b610100850182612f15565b50610120820151613260610120850182612f6f565b50505050565b61326f8161384d565b82525050565b61327e8161384d565b82525050565b61328d81613857565b82525050565b61329c81613857565b82525050565b60006020820190506132b76000830184612f42565b92915050565b60006040820190506132d26000830185612f06565b6132df6020830184613275565b9392505050565b60006060820190506132fb6000830186612f42565b6133086020830185612f06565b6133156040830184613275565b949350505050565b60006060820190506133326000830186612f42565b61333f6020830185612f42565b61334c6040830184613275565b949350505050565b60006040820190506133696000830185612f42565b6133766020830184613275565b9392505050565b600061014082019050613393600083018d612f42565b6133a0602083018c613275565b6133ad604083018b612f42565b6133ba606083018a613275565b6133c76080830189613293565b6133d460a0830188613293565b6133e160c0830187613275565b6133ee60e0830186613293565b6133fc610100830185612f24565b61340a610120830184612f7e565b9b9a5050505050505050505050565b600060208201905061342e6000830184612f60565b92915050565b6000602082019050818103600083015261344d81612f8d565b9050919050565b6000602082019050818103600083015261346d81612fb0565b9050919050565b6000602082019050818103600083015261348d81612fd3565b9050919050565b600060208201905081810360008301526134ad81612ff6565b9050919050565b600060208201905081810360008301526134cd81613019565b9050919050565b600060208201905081810360008301526134ed8161303c565b9050919050565b6000602082019050818103600083015261350d8161305f565b9050919050565b6000602082019050818103600083015261352d81613082565b9050919050565b6000602082019050818103600083015261354d816130a5565b9050919050565b6000602082019050818103600083015261356d816130c8565b9050919050565b6000602082019050818103600083015261358d816130eb565b9050919050565b600060208201905081810360008301526135ad8161310e565b9050919050565b600060208201905081810360008301526135cd81613131565b9050919050565b600060208201905081810360008301526135ed81613154565b9050919050565b6000602082019050818103600083015261360d81613177565b9050919050565b60006101608201905061362a600083018561319a565b613638610140830184612f51565b9392505050565b60006020820190506136546000830184613275565b92915050565b600060408201905061366f6000830185613275565b61367c6020830184613275565b9392505050565b600060a0820190506136986000830188613275565b6136a56020830187613275565b6136b26040830186613275565b6136bf6060830185613275565b6136cc6080830184613275565b9695505050505050565b60006136e06136f1565b90506136ec82826138d4565b919050565b6000604051905090565b600067ffffffffffffffff82111561371657613715613934565b5b61371f82613963565b9050602081019050919050565b600082825260208201905092915050565b60006137488261384d565b91506137538361384d565b9250827fffffffffffffffffffffffffffffffffffffffffffffffffffffffffffffffff0382111561378857613787613905565b5b828201905092915050565b600061379e8261384d565b91506137a98361384d565b9250828210156137bc576137bb613905565b5b828203905092915050565b60006137d28261382d565b9050919050565b60006137e48261382d565b9050919050565b60008115159050919050565b6000819050919050565b60007fffffffff0000000000000000000000000000000000000000000000000000000082169050919050565b600073ffffffffffffffffffffffffffffffffffffffff82169050919050565b6000819050919050565b600067ffffffffffffffff82169050919050565b6000613876826138a1565b9050919050565b60006138888261388f565b9050919050565b600061389a8261382d565b9050919050565b60006138ac826138b3565b9050919050565b60006138be8261382d565b9050919050565b82818337600083830152505050565b6138dd82613963565b810181811067ffffffffffffffff821117156138fc576138fb613934565b5b80604052505050565b7f4e487b7100000000000000000000000000000000000000000000000000000000600052601160045260246000fd5b7f4e487b7100000000000000000000000000000000000000000000000000000000600052604160045260246000fd5b6000601f19601f8301169050919050565b7f41756374696f6e20616c72656164792065786973747300000000000000000000600082015250565b7f41756374696f6e2068617320656e64656420616c726561647900000000000000600082015250565b7f546865206e65772070726963652073686f756c6420626520677265617465722060008201527f7468616e2063757272656e744269640000000000000000000000000000000000602082015250565b7f4f776e61626c653a206e6577206f776e657220697320746865207a65726f206160008201527f6464726573730000000000000000000000000000000000000000000000000000602082015250565b7f556e61626c6520746f20776974686472617720616e20656d707479206175637460008201527f696f6e2c20796f75206d7573742063616e63656c206974000000000000000000602082015250565b7f53656e646572206973206e6f74206f776e6572206f662061756374696f6e0000600082015250565b7f4f776e61626c653a2063616c6c6572206973206e6f7420746865206f776e6572600082015250565b7f456e642064617465206d757374206265206f6c646572207468616e206e6f7700600082015250565b7f4269642073686f756c642062652067726561746572207468616e20626964206960008201527f6e6372656d656e74000000000000000000000000000000000000000000000000602082015250565b7f4269642073686f756c642062652067726561746572207468616e20637572726560008201527f6e74206269640000000000000000000000000000000000000000000000000000602082015250565b7f41756374696f6e2063616e206e6f7420737461727420696e207468652070617360008201527f7400000000000000000000000000000000000000000000000000000000000000602082015250565b7f56616c7565206e6565647320746f2062652073746f72656420696e203634426960008201527f7473000000000000000000000000000000000000000000000000000000000000602082015250565b7f5265656e7472616e637947756172643a207265656e7472616e742063616c6c00600082015250565b7f41756374696f6e2063616e206e6f7420656e64206265666f726520737461727460008201527f7300000000000000000000000000000000000000000000000000000000000000602082015250565b7f41756374696f6e2073686f756c64206265206163746976650000000000000000600082015250565b613d14816137c7565b8114613d1f57600080fd5b50565b613d2b816137eb565b8114613d3657600080fd5b50565b613d42816137f7565b8114613d4d57600080fd5b50565b613d598161384d565b8114613d6457600080fd5b5056fea2646970667358221220ffc39d49fd70a25bdb32b92786b4cd91ab0e2863d8af97e869f7af97f132eadf64736f6c63430008010033",
  "immutableReferences": {},
  "source": "// SPDX-License-Identifier: UNLICENSED\n\npragma solidity ^0.8.1;\n\nimport \"@openzeppelin/contracts/security/ReentrancyGuard.sol\";\nimport \"@openzeppelin/contracts/access/Ownable.sol\";\nimport \"@openzeppelin/contracts/utils/math/SafeMath.sol\";\nimport \"@openzeppelin/contracts/token/ERC721/ERC721.sol\";\nimport \"@openzeppelin/contracts/token/ERC721/IERC721.sol\";\nimport \"@openzeppelin/contracts/token/ERC721/utils/ERC721Holder.sol\";\nimport \"@openzeppelin/contracts/token/ERC20/IERC20.sol\";\n\n/**\n * @title IncreasingPriceERC721Auction\n * @dev Create, accept, reset and cancel an auction of ERC721 token\n */\ncontract IncreasingPriceERC721Auction is ERC721Holder, Ownable, ReentrancyGuard {\n    /********************** Structs ***********************/\n\n    struct Auction {\n        address tokenAddress;\n        uint256 tokenId;\n        address owner;\n        uint256 reservePrice;\n        uint64 startTime;\n        uint64 endTime;\n        uint256 currentBid;\n        uint64 bidIncrement;\n        address payable currentBidder;\n        IERC20 bidToken;\n    }\n\n\n    struct CreateAuctionRequest {\n        address tokenAddress;\n        uint256 tokenId;\n        uint256 reservePrice;\n        uint256 startTime;\n        uint256 endTime;\n        address bidToken;\n    }\n    struct WithdrawAuctionRequest {\n        address tokenAddress;\n        uint256 tokenId;\n    }\n    struct PlaceBidRequest {\n        address tokenAddress;\n        uint256 tokenId;\n        address _address;\n        address fromAddress;\n        uint256 amount;\n    }\n    struct CancelAuctionRequest {\n        address tokenAddress;\n        uint256 tokenId;\n    }\n    struct ResetAuctionRequest {\n        address tokenAddress;\n        uint256 tokenId;\n        uint256 reservePrice;\n        uint256 bidIncrement;\n        uint256 endTime;\n        bytes32 ipfsHash;\n    }\n\n    /********************** State Variables ***********************/\n\n    /// @notice total auctions count\n    uint256 public auctionsCount;\n\n    /// @notice auctions list (tokenAddress => (tokenId => Auction))\n    mapping(address => mapping(uint256 => Auction)) public auctions;\n\n    /********************** Events ***********************/\n\n    event AuctionCreated(\n        address indexed tokenAddress,\n        uint256 tokenId,\n        address indexed _owner,\n        uint256 _reservePrice,\n        uint256 _bidIncrement,\n        uint256 _startTime,\n        uint256 _endTime\n    );\n    event Bid(\n        address indexed tokenAddress,\n        uint256 tokenId,\n        address indexed _bidder,\n        uint256 _amount\n    );\n    event AuctionAccepted(\n        address indexed tokenAddress,\n        uint256 tokenId,\n        address indexed _bidder,\n        uint256 _amount\n    );\n    event AuctionCanceled(\n        address indexed tokenAddress,\n        uint256 tokenId,\n        address indexed _bidder,\n        uint256 _amount\n    );\n    event AuctionRestarted(\n        address indexed tokenAddress,\n        uint256 tokenId,\n        address indexed _oldBidder,\n        uint256 reservePrice,\n        uint256 newReservePrice,\n        uint256 newBidIncrement,\n        uint256 newEndTime\n    );\n\n    /********************** Modifiers ***********************/\n\n    modifier onlyAuctionOwner(address tokenAddress, uint256 tokenId) {\n        require(auctions[tokenAddress][tokenId].owner == msg.sender, \"Sender is not owner of auction\");\n        _;\n    }\n\n    modifier _requireStoredWith64Bits(uint256 _value) {\n        require(_value <= 18446744073709551615, \"Value needs to be stored in 64Bits\");\n        _;\n    }\n\n    /**\n     * @dev createAuction creates auction on given `MediaSymbol`, under confitions:\n     * @dev - owner needs to have some amount of given `MediaSymbol`\n     * @dev - `TokenSymbol` exist\n     * @dev - `StartTime` is from the future and before `EndTime`\n     */\n    function createAuction(CreateAuctionRequest memory input)\n        external\n        _requireStoredWith64Bits(input.startTime)\n        _requireStoredWith64Bits(input.endTime)\n    {\n        IERC721 ierc721 = IERC721(input.tokenAddress);\n        ierc721.safeTransferFrom(msg.sender, address(this), input.tokenId);\n\n        // TODO: check again\n        require(auctions[input.tokenAddress][input.tokenId].endTime == 0, \"Auction already exists\");\n        require(input.endTime > input.startTime, \"Auction can not end before starts\");\n        require(input.startTime > block.timestamp, \"Auction can not start in the past\");\n\n        auctions[input.tokenAddress][input.tokenId] = Auction(\n            input.tokenAddress,\n            input.tokenId,\n            msg.sender,\n            input.reservePrice,\n            uint64(input.startTime),\n            uint64(input.endTime),\n            input.reservePrice,\n            uint64(0),\n            payable(address(0)),\n            IERC20(input.bidToken)\n        );\n        Auction memory _auction = auctions[input.tokenAddress][input.tokenId];\n\n        emit AuctionCreated(\n            input.tokenAddress,\n            input.tokenId,\n            _auction.owner,\n            uint256(_auction.reservePrice),\n            uint256(_auction.bidIncrement),\n            uint256(_auction.startTime),\n            uint256(_auction.endTime)\n        );\n    }\n\n    /**\n     * @dev retrieves the Auction and a bool indicating `canBid`\n     * @param tokenAddress of ERC721 of the auction\n     * @param tokenId of ERC721 of the auction\n     */\n    function getAuctionsByPartialCompositeKey(address tokenAddress, uint256 tokenId)\n        external\n        view\n        returns (Auction memory _auction, bool canBid)\n    {\n        _auction = auctions[tokenAddress][tokenId];\n\n        canBid = _isOnAuction(_auction.startTime, _auction.endTime);\n    }\n\n    /**\n     * @dev placeBid adds bid to auction if:\n     * @dev - auction is open,\n     * @dev - amount of the bid is higher than ReservePrive or higher than previous bid incremented by BidIncrement,\n     * @dev - funds weren't withdrown yet.\n     * @dev funds of bid are transfered to auction address.\n     */\n    function placeBid(PlaceBidRequest memory input) external payable nonReentrant {\n        Auction storage _auction = auctions[input.tokenAddress][input.tokenId];\n\n        require(_isOnAuction(_auction.startTime, _auction.endTime), \"Auction should be active\");\n        require(input.amount > _auction.currentBid, \"Bid should be greater than current bid\");\n        require(\n            input.amount > 0 && (input.amount - _auction.currentBid > _auction.bidIncrement),\n            \"Bid should be greater than bid increment\"\n        );\n\n        if (msg.sender != address(0) && _auction.currentBidder != address(0)) {\n            _auction.bidToken.transfer(_auction.currentBidder, _auction.currentBid);\n        }\n        _auction.currentBid = input.amount;\n        _auction.currentBidder = payable(input.fromAddress);\n\n        _auction.bidToken.transferFrom(input.fromAddress, address(this), input.amount);\n\n        emit Bid(input.tokenAddress, input.tokenId, input.fromAddress, input.amount);\n    }\n\n    /**\n     * @dev withdrawAuction an be called when wheren't withdrawn yet and bid was made.\n     * @dev Media are transfered to the bidder and funds to the owner of the auction.\n     */\n    function withdrawAuction(WithdrawAuctionRequest memory input)\n        external\n        onlyAuctionOwner(input.tokenAddress, input.tokenId)\n    {\n        Auction memory _auction = auctions[input.tokenAddress][input.tokenId];\n        require(\n            _auction.currentBidder != address(0),\n            \"Unable to withdraw an empty auction, you must cancel it\"\n        );\n\n        IERC721 ierc721 = IERC721(_auction.tokenAddress);\n        ierc721.safeTransferFrom(address(this), _auction.currentBidder, _auction.tokenId);\n\n        _auction.bidToken.transfer(_auction.owner, _auction.currentBid);\n\n        _removeAuction(input.tokenAddress, input.tokenId);\n        emit AuctionAccepted(\n            input.tokenAddress,\n            input.tokenId,\n            _auction.currentBidder,\n            _auction.currentBid\n        );\n    }\n\n    /**\n     * @dev resetAuction resets auction if:\n     * @dev  - is called before `EndTime` plus one day\n     * @dev If bid was made, funds are returned to bidder. It's parameters are set from given input.\n     */\n    function resetAuction(ResetAuctionRequest memory input)\n        external\n        onlyAuctionOwner(input.tokenAddress, input.tokenId)\n        _requireStoredWith64Bits(input.bidIncrement)\n        _requireStoredWith64Bits(input.endTime)\n    {\n        Auction storage _auction = auctions[input.tokenAddress][input.tokenId];\n        _requireNotEndedDayAuction(_auction.endTime);\n        require(input.reservePrice > _auction.currentBid, \"The new price should be greater than currentBid\");\n        require(input.endTime > block.timestamp, \"End date must be older than now\");\n\n        if (_auction.currentBidder != address(0)) {\n            _auction.bidToken.transfer(_auction.currentBidder, _auction.currentBid);\n        }\n        emit AuctionRestarted(\n            input.tokenAddress,\n            input.tokenId,\n            _auction.currentBidder,\n            _auction.currentBid,\n            input.reservePrice,\n            input.bidIncrement,\n            input.endTime\n        );\n\n        _auction.startTime = uint64(block.timestamp);\n        _auction.endTime = uint64(input.endTime);\n        _auction.reservePrice = uint64(input.reservePrice);\n        _auction.bidIncrement = uint64(input.bidIncrement);\n        _auction.currentBid = uint64(input.reservePrice);\n        _auction.currentBidder = payable(address(0));\n    }\n\n    /**\n     * @dev cancelAuction cancels auction if condition are met:\n     * @dev - is called before `EndTime` plus one day\n     * @dev If bid was made, funds are returned to bidder. Media are returned to owner.\n     */\n    function cancelAuction(CancelAuctionRequest memory input)\n        external\n        onlyAuctionOwner(input.tokenAddress, input.tokenId)\n    {\n        Auction memory _auction = auctions[input.tokenAddress][input.tokenId];\n        _requireNotEndedDayAuction(_auction.endTime);\n\n        if (_auction.currentBidder != address(0)) {\n            _auction.bidToken.transfer(_auction.currentBidder, _auction.currentBid);\n        }\n\n        IERC721 ierc721 = IERC721(_auction.tokenAddress);\n        ierc721.safeTransferFrom(address(this), _auction.owner, _auction.tokenId);\n        _removeAuction(input.tokenAddress, input.tokenId);\n\n        emit AuctionCanceled(\n            input.tokenAddress,\n            input.tokenId,\n            _auction.currentBidder,\n            _auction.currentBid\n        );\n    }\n\n    function _removeAuction(address _tokenAddress, uint256 _tokenId) internal {\n        delete (auctions[_tokenAddress][_tokenId]);\n    }\n\n    function _isOnAuction(uint64 _startTime, uint64 _endTime) internal view returns (bool) {\n        return (block.timestamp > _startTime) && (block.timestamp < _endTime);\n    }\n\n    function _requireNotEndedDayAuction(uint256 _endTime) internal view {\n        require(block.timestamp < (_endTime + 1 days), \"Auction has ended already\");\n    }\n}\n",
  "sourcePath": "/Users/angelsatorresalmenara/Desktop/privi-auctions/contracts/IncreasingPriceERC721Auction.sol",
  "compiler": {
    "name": "solc",
    "version": "0.8.1+commit.df193b15.Emscripten.clang"
  },
  "schemaVersion": "3.4.3",
  "updatedAt": "2021-10-19T20:15:09.455Z",
  "devdoc": {
    "details": "Create, accept, reset and cancel an auction of ERC721 token",
    "kind": "dev",
    "methods": {
      "cancelAuction((address,uint256))": {
        "details": "cancelAuction cancels auction if condition are met:- is called before `EndTime` plus one dayIf bid was made, funds are returned to bidder. Media are returned to owner."
      },
      "createAuction((address,uint256,uint256,uint256,uint256,address))": {
        "details": "createAuction creates auction on given `MediaSymbol`, under confitions:- owner needs to have some amount of given `MediaSymbol`- `TokenSymbol` exist- `StartTime` is from the future and before `EndTime`"
      },
      "getAuctionsByPartialCompositeKey(address,uint256)": {
        "details": "retrieves the Auction and a bool indicating `canBid`",
        "params": {
          "tokenAddress": "of ERC721 of the auction",
          "tokenId": "of ERC721 of the auction"
        }
      },
      "onERC721Received(address,address,uint256,bytes)": {
        "details": "See {IERC721Receiver-onERC721Received}. Always returns `IERC721Receiver.onERC721Received.selector`."
      },
      "owner()": {
        "details": "Returns the address of the current owner."
      },
      "placeBid((address,uint256,address,address,uint256))": {
        "details": "placeBid adds bid to auction if:- auction is open,- amount of the bid is higher than ReservePrive or higher than previous bid incremented by BidIncrement,- funds weren't withdrown yet.funds of bid are transfered to auction address."
      },
      "renounceOwnership()": {
        "details": "Leaves the contract without owner. It will not be possible to call `onlyOwner` functions anymore. Can only be called by the current owner. NOTE: Renouncing ownership will leave the contract without an owner, thereby removing any functionality that is only available to the owner."
      },
      "resetAuction((address,uint256,uint256,uint256,uint256,bytes32))": {
        "details": "resetAuction resets auction if:- is called before `EndTime` plus one dayIf bid was made, funds are returned to bidder. It's parameters are set from given input."
      },
      "transferOwnership(address)": {
        "details": "Transfers ownership of the contract to a new account (`newOwner`). Can only be called by the current owner."
      },
      "withdrawAuction((address,uint256))": {
        "details": "withdrawAuction an be called when wheren't withdrawn yet and bid was made.Media are transfered to the bidder and funds to the owner of the auction."
      }
    },
    "title": "IncreasingPriceERC721Auction",
    "version": 1
  },
  "userdoc": {
    "kind": "user",
    "methods": {
      "auctions(address,uint256)": {
        "notice": "auctions list (tokenAddress => (tokenId => Auction))"
      },
      "auctionsCount()": {
        "notice": "total auctions count"
      }
    },
    "version": 1
  }
}