{
  "address": "0x53217A4A10f186beA95D7e56f5a024A60352F348",
  "abi": [
    {
      "inputs": [
        {
          "internalType": "address",
          "name": "_protocol",
          "type": "address"
        }
      ],
      "stateMutability": "nonpayable",
      "type": "constructor"
    },
    {
      "anonymous": false,
      "inputs": [
        {
          "indexed": false,
          "internalType": "address",
          "name": "provider",
          "type": "address"
        },
        {
          "indexed": false,
          "internalType": "uint256",
          "name": "amount",
          "type": "uint256"
        },
        {
          "indexed": false,
          "internalType": "uint256",
          "name": "mintedLiquidity",
          "type": "uint256"
        }
      ],
      "name": "LiquidityAdded",
      "type": "event"
    },
    {
      "anonymous": false,
      "inputs": [
        {
          "indexed": false,
          "internalType": "address",
          "name": "provider",
          "type": "address"
        },
        {
          "indexed": false,
          "internalType": "uint256",
          "name": "amount",
          "type": "uint256"
        },
        {
          "indexed": false,
          "internalType": "uint256",
          "name": "liquidityBurnt",
          "type": "uint256"
        }
      ],
      "name": "LiquidityRemoved",
      "type": "event"
    },
    {
      "inputs": [
        {
          "internalType": "uint256",
          "name": "amount",
          "type": "uint256"
        }
      ],
      "name": "addLiquidity",
      "outputs": [],
      "stateMutability": "nonpayable",
      "type": "function"
    },
    {
      "inputs": [],
      "name": "balance",
      "outputs": [
        {
          "internalType": "uint256",
          "name": "",
          "type": "uint256"
        }
      ],
      "stateMutability": "view",
      "type": "function"
    },
    {
      "inputs": [
        {
          "internalType": "address",
          "name": "_jot",
          "type": "address"
        }
      ],
      "name": "initialize",
      "outputs": [],
      "stateMutability": "nonpayable",
      "type": "function"
    },
    {
      "inputs": [],
      "name": "jot",
      "outputs": [
        {
          "internalType": "address",
          "name": "",
          "type": "address"
        }
      ],
      "stateMutability": "view",
      "type": "function"
    },
    {
      "inputs": [
        {
          "internalType": "uint256",
          "name": "amount",
          "type": "uint256"
        }
      ],
      "name": "removeLiquidity",
      "outputs": [],
      "stateMutability": "nonpayable",
      "type": "function"
    },
    {
      "inputs": [],
      "name": "totalLiquidity",
      "outputs": [
        {
          "internalType": "uint256",
          "name": "",
          "type": "uint256"
        }
      ],
      "stateMutability": "view",
      "type": "function"
    }
  ],
  "transactionHash": "0x92afad6e1dde6f98caab4791016d65ce7d4b31a91f22d78950a405e55f4ba16f",
  "args": [
    "0x57FeFEFbb010e9CFa9d5D754bCd38aD322f131Ea"
  ],
  "solcInputHash": "132443149dfad9bd20f829ec0662bcff",
  "bytecode": "0x60a060405234801561001057600080fd5b50604051610b7c380380610b7c83398101604081905261002f9161009e565b6001600160a01b0381166100895760405162461bcd60e51b815260206004820152601860248201527f496e76616c69642070726f746f636f6c20616464726573730000000000000000604482015260640160405180910390fd5b60601b6001600160601b0319166080526100cc565b6000602082840312156100af578081fd5b81516001600160a01b03811681146100c5578182fd5b9392505050565b60805160601c610a926100ea60003960006103de0152610a926000f3fe608060405234801561001057600080fd5b50600436106100625760003560e01c806315770f921461006757806351c6590a14610083578063808cfb5d146100985780639c8f9f23146100c3578063b69ef8a8146100d6578063c4d66de8146100eb575b600080fd5b61007060015481565b6040519081526020015b60405180910390f35b61009661009136600461092d565b6100fe565b005b6003546100ab906001600160a01b031681565b6040516001600160a01b03909116815260200161007a565b6100966100d136600461092d565b610288565b33600090815260026020526040902054610070565b6100966100f93660046108e6565b6104dc565b600081116101445760405162461bcd60e51b815260206004820152600e60248201526d125b9d985b1a5908185b5bdd5b9d60921b60448201526064015b60405180910390fd5b600080600154116101565760646101e9565b6003546040516370a0823160e01b81523060048201526001600160a01b03909116906370a082319060240160206040518083038186803b15801561019957600080fd5b505afa1580156101ad573d6000803e3d6000fd5b505050506040513d601f19601f820116820180604052508101906101d19190610945565b826001546101df91906109e4565b6101e991906109c4565b3360009081526002602052604081208054929350839290919061020d9084906109ac565b92505081905550806001600082825461022691906109ac565b909155505060408051338152602081018490529081018290527fac1d76749e5447b7b16f5ab61447e1bd502f3bb4807af3b28e620d1700a6ee459060600160405180910390a1600354610284906001600160a01b03163330856105f4565b5050565b336000908152600260205260409020548111156102e75760405162461bcd60e51b815260206004820152601d60248201527f52656d6f766520616d6f756e7420657863656564732062616c616e6365000000604482015260640161013b565b6001546003546040516370a0823160e01b81523060048201526000929184916001600160a01b03909116906370a082319060240160206040518083038186803b15801561033357600080fd5b505afa158015610347573d6000803e3d6000fd5b505050506040513d601f19601f8201168201806040525081019061036b9190610945565b61037591906109e4565b61037f91906109c4565b90506000826001546103919190610a03565b11156103da5733600090815260026020526040812080548492906103b6908490610a03565b9250508190555081600160008282546103cf9190610a03565b909155506104849050565b60007f00000000000000000000000000000000000000000000000000000000000000006001600160a01b03166341e559e66040518163ffffffff1660e01b815260040160206040518083038186803b15801561043557600080fd5b505afa158015610449573d6000803e3d6000fd5b505050506040513d601f19601f8201168201806040525081019061046d9190610945565b336000908152600260205260409020819055600155505b60408051338152602081018490529081018290527f96cd817c6329656790ef8fba7675405193677d39619571282f5e21f3a98cd0599060600160405180910390a1600354610284906001600160a01b03163383610665565b600054610100900460ff16806104f5575060005460ff16155b6105585760405162461bcd60e51b815260206004820152602e60248201527f496e697469616c697a61626c653a20636f6e747261637420697320616c72656160448201526d191e481a5b9a5d1a585b1a5e995960921b606482015260840161013b565b600054610100900460ff1615801561057a576000805461ffff19166101011790555b6001600160a01b0382166105c45760405162461bcd60e51b815260206004820152601160248201527024b73b30b634b2102537ba103a37b5b2b760791b604482015260640161013b565b600380546001600160a01b0319166001600160a01b0384161790558015610284576000805461ff00191690555050565b6040516001600160a01b038085166024830152831660448201526064810182905261065f9085906323b872dd60e01b906084015b60408051601f198184030181529190526020810180516001600160e01b03166001600160e01b03199093169290921790915261069a565b50505050565b6040516001600160a01b03831660248201526044810182905261069590849063a9059cbb60e01b90606401610628565b505050565b60006106ef826040518060400160405280602081526020017f5361666545524332303a206c6f772d6c6576656c2063616c6c206661696c6564815250856001600160a01b031661076c9092919063ffffffff16565b805190915015610695578080602001905181019061070d919061090d565b6106955760405162461bcd60e51b815260206004820152602a60248201527f5361666545524332303a204552433230206f7065726174696f6e20646964206e6044820152691bdd081cdd58d8d9595960b21b606482015260840161013b565b606061077b8484600085610785565b90505b9392505050565b6060824710156107e65760405162461bcd60e51b815260206004820152602660248201527f416464726573733a20696e73756666696369656e742062616c616e636520666f6044820152651c8818d85b1b60d21b606482015260840161013b565b843b6108345760405162461bcd60e51b815260206004820152601d60248201527f416464726573733a2063616c6c20746f206e6f6e2d636f6e7472616374000000604482015260640161013b565b600080866001600160a01b03168587604051610850919061095d565b60006040518083038185875af1925050503d806000811461088d576040519150601f19603f3d011682016040523d82523d6000602084013e610892565b606091505b50915091506108a28282866108ad565b979650505050505050565b606083156108bc57508161077e565b8251156108cc5782518084602001fd5b8160405162461bcd60e51b815260040161013b9190610979565b6000602082840312156108f7578081fd5b81356001600160a01b038116811461077e578182fd5b60006020828403121561091e578081fd5b8151801515811461077e578182fd5b60006020828403121561093e578081fd5b5035919050565b600060208284031215610956578081fd5b5051919050565b6000825161096f818460208701610a1a565b9190910192915050565b6020815260008251806020840152610998816040850160208701610a1a565b601f01601f19169190910160400192915050565b600082198211156109bf576109bf610a46565b500190565b6000826109df57634e487b7160e01b81526012600452602481fd5b500490565b60008160001904831182151516156109fe576109fe610a46565b500290565b600082821015610a1557610a15610a46565b500390565b60005b83811015610a35578181015183820152602001610a1d565b8381111561065f5750506000910152565b634e487b7160e01b600052601160045260246000fdfea2646970667358221220968df820eba8a05d285eefcaa5bff8b96744b185b99072a2619f87cc3818cb9d64736f6c63430008040033",
  "devdoc": {
    "kind": "dev",
    "methods": {},
    "version": 1
  },
  "userdoc": {
    "kind": "user",
    "methods": {},
    "version": 1
  },
  "storageLayout": {
    "storage": [
      {
        "astId": 5456,
        "contract": "contracts/polygon/implementations/JotPool.sol:JotPool",
        "label": "_initialized",
        "offset": 0,
        "slot": "0",
        "type": "t_bool"
      },
      {
        "astId": 5459,
        "contract": "contracts/polygon/implementations/JotPool.sol:JotPool",
        "label": "_initializing",
        "offset": 1,
        "slot": "0",
        "type": "t_bool"
      },
      {
        "astId": 14493,
        "contract": "contracts/polygon/implementations/JotPool.sol:JotPool",
        "label": "totalLiquidity",
        "offset": 0,
        "slot": "1",
        "type": "t_uint256"
      },
      {
        "astId": 14497,
        "contract": "contracts/polygon/implementations/JotPool.sol:JotPool",
        "label": "liquidity",
        "offset": 0,
        "slot": "2",
        "type": "t_mapping(t_address,t_uint256)"
      },
      {
        "astId": 14499,
        "contract": "contracts/polygon/implementations/JotPool.sol:JotPool",
        "label": "jot",
        "offset": 0,
        "slot": "3",
        "type": "t_address"
      }
    ],
    "types": {
      "t_address": {
        "encoding": "inplace",
        "label": "address",
        "numberOfBytes": "20"
      },
      "t_bool": {
        "encoding": "inplace",
        "label": "bool",
        "numberOfBytes": "1"
      },
      "t_mapping(t_address,t_uint256)": {
        "encoding": "mapping",
        "key": "t_address",
        "label": "mapping(address => uint256)",
        "numberOfBytes": "32",
        "value": "t_uint256"
      },
      "t_uint256": {
        "encoding": "inplace",
        "label": "uint256",
        "numberOfBytes": "32"
      }
    }
  }
}