{
  "address": "0xf494E73950Da3365B530F71aA9C6D0e9d312c7Bc",
  "abi": [
    {
      "inputs": [
        {
          "internalType": "address",
          "name": "_protocol",
          "type": "address"
        }
      ],
      "stateMutability": "nonpayable",
      "type": "constructor"
    },
    {
      "anonymous": false,
      "inputs": [
        {
          "indexed": true,
          "internalType": "address",
          "name": "owner",
          "type": "address"
        },
        {
          "indexed": true,
          "internalType": "address",
          "name": "approved",
          "type": "address"
        },
        {
          "indexed": true,
          "internalType": "uint256",
          "name": "tokenId",
          "type": "uint256"
        }
      ],
      "name": "Approval",
      "type": "event"
    },
    {
      "anonymous": false,
      "inputs": [
        {
          "indexed": true,
          "internalType": "address",
          "name": "owner",
          "type": "address"
        },
        {
          "indexed": true,
          "internalType": "address",
          "name": "operator",
          "type": "address"
        },
        {
          "indexed": false,
          "internalType": "bool",
          "name": "approved",
          "type": "bool"
        }
      ],
      "name": "ApprovalForAll",
      "type": "event"
    },
    {
      "anonymous": false,
      "inputs": [
        {
          "indexed": false,
          "internalType": "address",
          "name": "provider",
          "type": "address"
        },
        {
          "indexed": false,
          "internalType": "uint256",
          "name": "amount",
          "type": "uint256"
        },
        {
          "indexed": false,
          "internalType": "uint256",
          "name": "mintedLiquidity",
          "type": "uint256"
        }
      ],
      "name": "LiquidityAdded",
      "type": "event"
    },
    {
      "anonymous": false,
      "inputs": [
        {
          "indexed": false,
          "internalType": "address",
          "name": "provider",
          "type": "address"
        },
        {
          "indexed": false,
          "internalType": "uint256",
          "name": "amount",
          "type": "uint256"
        },
        {
          "indexed": false,
          "internalType": "uint256",
          "name": "liquidityBurnt",
          "type": "uint256"
        }
      ],
      "name": "LiquidityRemoved",
      "type": "event"
    },
    {
      "anonymous": false,
      "inputs": [
        {
          "indexed": false,
          "internalType": "address",
          "name": "recipient",
          "type": "address"
        },
        {
          "indexed": false,
          "internalType": "uint256",
          "name": "reward",
          "type": "uint256"
        }
      ],
      "name": "RewardsClaimed",
      "type": "event"
    },
    {
      "anonymous": false,
      "inputs": [
        {
          "indexed": false,
          "internalType": "address",
          "name": "staker",
          "type": "address"
        },
        {
          "indexed": false,
          "internalType": "uint256",
          "name": "amount",
          "type": "uint256"
        },
        {
          "indexed": false,
          "internalType": "uint256",
          "name": "positionId",
          "type": "uint256"
        }
      ],
      "name": "Staked",
      "type": "event"
    },
    {
      "anonymous": false,
      "inputs": [
        {
          "indexed": true,
          "internalType": "address",
          "name": "from",
          "type": "address"
        },
        {
          "indexed": true,
          "internalType": "address",
          "name": "to",
          "type": "address"
        },
        {
          "indexed": true,
          "internalType": "uint256",
          "name": "tokenId",
          "type": "uint256"
        }
      ],
      "name": "Transfer",
      "type": "event"
    },
    {
      "anonymous": false,
      "inputs": [
        {
          "indexed": false,
          "internalType": "address",
          "name": "recipient",
          "type": "address"
        },
        {
          "indexed": false,
          "internalType": "uint256",
          "name": "amount",
          "type": "uint256"
        },
        {
          "indexed": false,
          "internalType": "uint256",
          "name": "reward",
          "type": "uint256"
        }
      ],
      "name": "Unstaked",
      "type": "event"
    },
    {
      "inputs": [
        {
          "internalType": "uint256",
          "name": "amount",
          "type": "uint256"
        }
      ],
      "name": "addLiquidity",
      "outputs": [],
      "stateMutability": "nonpayable",
      "type": "function"
    },
    {
      "inputs": [
        {
          "internalType": "address",
          "name": "to",
          "type": "address"
        },
        {
          "internalType": "uint256",
          "name": "tokenId",
          "type": "uint256"
        }
      ],
      "name": "approve",
      "outputs": [],
      "stateMutability": "nonpayable",
      "type": "function"
    },
    {
      "inputs": [
        {
          "internalType": "address",
          "name": "owner",
          "type": "address"
        }
      ],
      "name": "balanceOf",
      "outputs": [
        {
          "internalType": "uint256",
          "name": "",
          "type": "uint256"
        }
      ],
      "stateMutability": "view",
      "type": "function"
    },
    {
      "inputs": [],
      "name": "claimRewards",
      "outputs": [],
      "stateMutability": "nonpayable",
      "type": "function"
    },
    {
      "inputs": [],
      "name": "cumulativeRevenue",
      "outputs": [
        {
          "internalType": "uint256",
          "name": "",
          "type": "uint256"
        }
      ],
      "stateMutability": "view",
      "type": "function"
    },
    {
      "inputs": [],
      "name": "fundingToken",
      "outputs": [
        {
          "internalType": "address",
          "name": "",
          "type": "address"
        }
      ],
      "stateMutability": "view",
      "type": "function"
    },
    {
      "inputs": [
        {
          "internalType": "uint256",
          "name": "tokenId",
          "type": "uint256"
        }
      ],
      "name": "getApproved",
      "outputs": [
        {
          "internalType": "address",
          "name": "",
          "type": "address"
        }
      ],
      "stateMutability": "view",
      "type": "function"
    },
    {
      "inputs": [
        {
          "internalType": "uint256",
          "name": "amount",
          "type": "uint256"
        }
      ],
      "name": "getLiquidityValue",
      "outputs": [
        {
          "internalType": "uint256",
          "name": "",
          "type": "uint256"
        }
      ],
      "stateMutability": "view",
      "type": "function"
    },
    {
      "inputs": [],
      "name": "getPosition",
      "outputs": [
        {
          "components": [
            {
              "internalType": "uint256",
              "name": "id",
              "type": "uint256"
            },
            {
              "internalType": "uint256",
              "name": "liquidity",
              "type": "uint256"
            },
            {
              "internalType": "uint256",
              "name": "stake",
              "type": "uint256"
            },
            {
              "internalType": "uint256",
              "name": "totalShares",
              "type": "uint256"
            }
          ],
          "internalType": "struct JotPool.Position",
          "name": "",
          "type": "tuple"
        }
      ],
      "stateMutability": "view",
      "type": "function"
    },
    {
      "inputs": [],
      "name": "getReward",
      "outputs": [
        {
          "internalType": "uint256",
          "name": "reward",
          "type": "uint256"
        }
      ],
      "stateMutability": "view",
      "type": "function"
    },
    {
      "inputs": [
        {
          "internalType": "address",
          "name": "owner",
          "type": "address"
        }
      ],
      "name": "getTotalLiquidityValue",
      "outputs": [
        {
          "internalType": "uint256",
          "name": "",
          "type": "uint256"
        }
      ],
      "stateMutability": "view",
      "type": "function"
    },
    {
      "inputs": [
        {
          "internalType": "address",
          "name": "_jot",
          "type": "address"
        },
        {
          "internalType": "address",
          "name": "_fundingToken",
          "type": "address"
        },
        {
          "internalType": "string",
          "name": "_name",
          "type": "string"
        },
        {
          "internalType": "string",
          "name": "_symbol",
          "type": "string"
        }
      ],
      "name": "initialize",
      "outputs": [],
      "stateMutability": "nonpayable",
      "type": "function"
    },
    {
      "inputs": [
        {
          "internalType": "address",
          "name": "owner",
          "type": "address"
        },
        {
          "internalType": "address",
          "name": "operator",
          "type": "address"
        }
      ],
      "name": "isApprovedForAll",
      "outputs": [
        {
          "internalType": "bool",
          "name": "",
          "type": "bool"
        }
      ],
      "stateMutability": "view",
      "type": "function"
    },
    {
      "inputs": [],
      "name": "jot",
      "outputs": [
        {
          "internalType": "address",
          "name": "",
          "type": "address"
        }
      ],
      "stateMutability": "view",
      "type": "function"
    },
    {
      "inputs": [],
      "name": "lastReward",
      "outputs": [
        {
          "internalType": "uint256",
          "name": "",
          "type": "uint256"
        }
      ],
      "stateMutability": "view",
      "type": "function"
    },
    {
      "inputs": [],
      "name": "name",
      "outputs": [
        {
          "internalType": "string",
          "name": "",
          "type": "string"
        }
      ],
      "stateMutability": "view",
      "type": "function"
    },
    {
      "inputs": [
        {
          "internalType": "uint256",
          "name": "tokenId",
          "type": "uint256"
        }
      ],
      "name": "ownerOf",
      "outputs": [
        {
          "internalType": "address",
          "name": "",
          "type": "address"
        }
      ],
      "stateMutability": "view",
      "type": "function"
    },
    {
      "inputs": [
        {
          "internalType": "uint256",
          "name": "amount",
          "type": "uint256"
        }
      ],
      "name": "removeLiquidity",
      "outputs": [],
      "stateMutability": "nonpayable",
      "type": "function"
    },
    {
      "inputs": [
        {
          "internalType": "address",
          "name": "from",
          "type": "address"
        },
        {
          "internalType": "address",
          "name": "to",
          "type": "address"
        },
        {
          "internalType": "uint256",
          "name": "tokenId",
          "type": "uint256"
        }
      ],
      "name": "safeTransferFrom",
      "outputs": [],
      "stateMutability": "nonpayable",
      "type": "function"
    },
    {
      "inputs": [
        {
          "internalType": "address",
          "name": "from",
          "type": "address"
        },
        {
          "internalType": "address",
          "name": "to",
          "type": "address"
        },
        {
          "internalType": "uint256",
          "name": "tokenId",
          "type": "uint256"
        },
        {
          "internalType": "bytes",
          "name": "_data",
          "type": "bytes"
        }
      ],
      "name": "safeTransferFrom",
      "outputs": [],
      "stateMutability": "nonpayable",
      "type": "function"
    },
    {
      "inputs": [
        {
          "internalType": "address",
          "name": "operator",
          "type": "address"
        },
        {
          "internalType": "bool",
          "name": "approved",
          "type": "bool"
        }
      ],
      "name": "setApprovalForAll",
      "outputs": [],
      "stateMutability": "nonpayable",
      "type": "function"
    },
    {
      "inputs": [
        {
          "internalType": "uint256",
          "name": "amount",
          "type": "uint256"
        }
      ],
      "name": "stakeShares",
      "outputs": [],
      "stateMutability": "nonpayable",
      "type": "function"
    },
    {
      "inputs": [
        {
          "internalType": "bytes4",
          "name": "interfaceId",
          "type": "bytes4"
        }
      ],
      "name": "supportsInterface",
      "outputs": [
        {
          "internalType": "bool",
          "name": "",
          "type": "bool"
        }
      ],
      "stateMutability": "view",
      "type": "function"
    },
    {
      "inputs": [],
      "name": "symbol",
      "outputs": [
        {
          "internalType": "string",
          "name": "",
          "type": "string"
        }
      ],
      "stateMutability": "view",
      "type": "function"
    },
    {
      "inputs": [
        {
          "internalType": "uint256",
          "name": "tokenId",
          "type": "uint256"
        }
      ],
      "name": "tokenURI",
      "outputs": [
        {
          "internalType": "string",
          "name": "",
          "type": "string"
        }
      ],
      "stateMutability": "view",
      "type": "function"
    },
    {
      "inputs": [],
      "name": "totalLiquidity",
      "outputs": [
        {
          "internalType": "uint256",
          "name": "",
          "type": "uint256"
        }
      ],
      "stateMutability": "view",
      "type": "function"
    },
    {
      "inputs": [],
      "name": "totalShares",
      "outputs": [
        {
          "internalType": "uint256",
          "name": "",
          "type": "uint256"
        }
      ],
      "stateMutability": "view",
      "type": "function"
    },
    {
      "inputs": [],
      "name": "totalStaked",
      "outputs": [
        {
          "internalType": "uint256",
          "name": "",
          "type": "uint256"
        }
      ],
      "stateMutability": "view",
      "type": "function"
    },
    {
      "inputs": [
        {
          "internalType": "address",
          "name": "from",
          "type": "address"
        },
        {
          "internalType": "address",
          "name": "to",
          "type": "address"
        },
        {
          "internalType": "uint256",
          "name": "tokenId",
          "type": "uint256"
        }
      ],
      "name": "transferFrom",
      "outputs": [],
      "stateMutability": "nonpayable",
      "type": "function"
    },
    {
      "inputs": [
        {
          "internalType": "uint256",
          "name": "amount",
          "type": "uint256"
        }
      ],
      "name": "unstakeShares",
      "outputs": [],
      "stateMutability": "nonpayable",
      "type": "function"
    }
  ],
  "transactionHash": "0x5b99be88ba461a6d8fb860ba60d5376373187d147c548b5e3c7473cc56d44a3d",
  "args": [
    "0xC8dCEeB660a09FA3E31ae78ffFb9Db7c6B6Dac75"
  ],
  "solcInputHash": "62fa3db1af936ce698f4042bab38006a",
  "bytecode": "0x60a06040523480156200001157600080fd5b5060405162002b4338038062002b43833981016040819052620000349162000193565b6040805160208082018084526000808452845192830190945283825282519293919262000063929190620000ed565b50805162000079906001906020840190620000ed565b5050506001600160a01b038116620000d75760405162461bcd60e51b815260206004820152601860248201527f496e76616c69642070726f746f636f6c20616464726573730000000000000000604482015260640160405180910390fd5b60601b6001600160601b03191660805262000200565b828054620000fb90620001c3565b90600052602060002090601f0160209004810192826200011f57600085556200016a565b82601f106200013a57805160ff19168380011785556200016a565b828001600101855582156200016a579182015b828111156200016a5782518255916020019190600101906200014d565b50620001789291506200017c565b5090565b5b808211156200017857600081556001016200017d565b600060208284031215620001a5578081fd5b81516001600160a01b0381168114620001bc578182fd5b9392505050565b600181811c90821680620001d857607f821691505b60208210811415620001fa57634e487b7160e01b600052602260045260246000fd5b50919050565b60805160601c6129246200021f60003960006118cc01526129246000f3fe608060405234801561001057600080fd5b50600436106101da5760003560e01c80636352211e11610104578063817b1cd2116100a2578063b88d4fde11610071578063b88d4fde146103f1578063c87b56dd14610404578063c9b1714914610417578063e985e9c51461042057600080fd5b8063817b1cd2146103ba57806395d89b41146103c35780639c8f9f23146103cb578063a22cb465146103de57600080fd5b80637398ab18116100de5780637398ab18146103405780637640482f1461037b57806378065f271461038e578063808cfb5d146103a157600080fd5b80636352211e1461031157806370a0823114610324578063724fcd011461033757600080fd5b806323b872dd1161017c57806342842e0e1161014b57806342842e0e146102c5578063460ea58a146102d857806351c6590a146102eb578063569c426b146102fe57600080fd5b806323b872dd14610299578063372500ab146102ac5780633a98ef39146102b45780633d18b912146102bd57600080fd5b8063081812fc116101b8578063081812fc14610231578063095ea7b31461025c57806315770f921461026f5780632016a0d21461028657600080fd5b806301ffc9a7146101df57806306fdde03146102075780630775ffe51461021c575b600080fd5b6101f26101ed36600461259a565b61045c565b60405190151581526020015b60405180910390f35b61020f6104ae565b6040516101fe91906126d7565b61022f61022a3660046125d2565b610540565b005b61024461023f3660046125d2565b6105d7565b6040516001600160a01b0390911681526020016101fe565b61022f61026a366004612555565b610671565b61027860085481565b6040519081526020016101fe565b61022f6102943660046123f5565b610787565b61022f6102a7366004612477565b61093f565b61022f610970565b610278600b5481565b610278610a7e565b61022f6102d3366004612477565b610a8e565b6102786102e63660046123a9565b610aa9565b61022f6102f93660046125d2565b610ace565b61022f61030c3660046125d2565b610ced565b61024461031f3660046125d2565b610de5565b6102786103323660046123a9565b610e5c565b610278600a5481565b610348610ee3565b6040516101fe91908151815260208083015190820152604080830151908201526060918201519181019190915260800190565b6102786103893660046125d2565b610f54565b600754610244906001600160a01b031681565b600654610244906201000090046001600160a01b031681565b610278600c5481565b61020f610f5f565b61022f6103d93660046125d2565b610f6e565b61022f6103ec36600461251f565b611115565b61022f6103ff3660046124b2565b6111da565b61020f6104123660046125d2565b61120c565b61027860095481565b6101f261042e3660046123c3565b6001600160a01b03918216600090815260056020908152604080832093909416825291909152205460ff1690565b60006001600160e01b031982166380ac58cd60e01b148061048d57506001600160e01b03198216635b5e139f60e01b145b806104a857506301ffc9a760e01b6001600160e01b03198316145b92915050565b6060600d80546104bd9061281b565b80601f01602080910402602001604051908101604052809291908181526020018280546104e99061281b565b80156105365780601f1061050b57610100808354040283529160200191610536565b820191906000526020600020905b81548152906001019060200180831161051957829003601f168201915b5050505050905090565b61054a33826112f4565b60065460405163a9059cbb60e01b815233600482015260248101839052620100009091046001600160a01b03169063a9059cbb90604401602060405180830381600087803b15801561059b57600080fd5b505af11580156105af573d6000803e3d6000fd5b505050506040513d601f19601f820116820180604052508101906105d3919061257e565b5050565b6000818152600260205260408120546001600160a01b03166106555760405162461bcd60e51b815260206004820152602c60248201527f4552433732313a20617070726f76656420717565727920666f72206e6f6e657860448201526b34b9ba32b73a103a37b5b2b760a11b60648201526084015b60405180910390fd5b506000908152600460205260409020546001600160a01b031690565b600061067c82610de5565b9050806001600160a01b0316836001600160a01b031614156106ea5760405162461bcd60e51b815260206004820152602160248201527f4552433732313a20617070726f76616c20746f2063757272656e74206f776e656044820152603960f91b606482015260840161064c565b336001600160a01b03821614806107065750610706813361042e565b6107785760405162461bcd60e51b815260206004820152603860248201527f4552433732313a20617070726f76652063616c6c6572206973206e6f74206f7760448201527f6e6572206e6f7220617070726f76656420666f7220616c6c0000000000000000606482015260840161064c565b6107828383611524565b505050565b600654610100900460ff16806107a0575060065460ff16155b6108035760405162461bcd60e51b815260206004820152602e60248201527f496e697469616c697a61626c653a20636f6e747261637420697320616c72656160448201526d191e481a5b9a5d1a585b1a5e995960921b606482015260840161064c565b600654610100900460ff16158015610825576006805461ffff19166101011790555b6001600160a01b03851661086f5760405162461bcd60e51b815260206004820152601160248201527024b73b30b634b2102537ba103a37b5b2b760791b604482015260640161064c565b6001600160a01b0384166108bd5760405162461bcd60e51b815260206004820152601560248201527424b73b30b634b210333ab73234b733903a37b5b2b760591b604482015260640161064c565b6006805462010000600160b01b031916620100006001600160a01b038881169190910291909117909155600780546001600160a01b031916918616919091179055825161091190600d90602086019061225f565b50815161092590600e90602085019061225f565b508015610938576006805461ff00191690555b5050505050565b6109493382611592565b6109655760405162461bcd60e51b815260040161064c9061273c565b610782838383611689565b600061097a611829565b5090503360006109898261198f565b905061099581846127d8565b600955600b546001600160a01b0383166000908152601060209081526040918290206003019290925580513381529182018390527ffc30cddea38e2bf4d6ea7d3f9ed3b6ad7f176419f4963bd81318067a4aee73fe910160405180910390a160075460405163a9059cbb60e01b8152336004820152602481018390526001600160a01b039091169063a9059cbb90604401602060405180830381600087803b158015610a4057600080fd5b505af1158015610a54573d6000803e3d6000fd5b505050506040513d601f19601f82011682018060405250810190610a78919061257e565b50505050565b6000610a893361198f565b905090565b610782838383604051806020016040528060008152506111da565b6001600160a01b0381166000908152601060205260408120600101546104a8906119dd565b60008111610b0f5760405162461bcd60e51b815260206004820152600e60248201526d125b9d985b1a5908185b5bdd5b9d60921b604482015260640161064c565b600080600854118015610ba157506006546040516370a0823160e01b81523060048201526000916201000090046001600160a01b0316906370a082319060240160206040518083038186803b158015610b6757600080fd5b505afa158015610b7b573d6000803e3d6000fd5b505050506040513d601f19601f82011682018060405250810190610b9f91906125ea565b115b610bac576064610c44565b6006546040516370a0823160e01b8152306004820152620100009091046001600160a01b0316906370a082319060240160206040518083038186803b158015610bf457600080fd5b505afa158015610c08573d6000803e3d6000fd5b505050506040513d601f19601f82011682018060405250810190610c2c91906125ea565b82600854610c3a91906127b9565b610c4491906127a5565b33600090815260106020526040812060010180549293508392909190610c6b90849061278d565b925050819055508060086000828254610c84919061278d565b90915550506040517fac1d76749e5447b7b16f5ab61447e1bd502f3bb4807af3b28e620d1700a6ee4590610cbd903390859085906126b6565b60405180910390a1610ccf3383611a81565b6006546105d3906201000090046001600160a01b0316333085611bb0565b6006546040516370a0823160e01b815233600482015282916201000090046001600160a01b0316906370a082319060240160206040518083038186803b158015610d3657600080fd5b505afa158015610d4a573d6000803e3d6000fd5b505050506040513d601f19601f82011682018060405250810190610d6e91906125ea565b1015610dbc5760405162461bcd60e51b815260206004820152601860248201527f496e73756666696369656e74204a6f742062616c616e63650000000000000000604482015260640161064c565b33610dc78183611a81565b6006546105d3906201000090046001600160a01b0316823085611bb0565b6000818152600260205260408120546001600160a01b0316806104a85760405162461bcd60e51b815260206004820152602960248201527f4552433732313a206f776e657220717565727920666f72206e6f6e657869737460448201526832b73a103a37b5b2b760b91b606482015260840161064c565b60006001600160a01b038216610ec75760405162461bcd60e51b815260206004820152602a60248201527f4552433732313a2062616c616e636520717565727920666f7220746865207a65604482015269726f206164647265737360b01b606482015260840161064c565b506001600160a01b031660009081526003602052604090205490565b610f0e6040518060800160405280600081526020016000815260200160008152602001600081525090565b5033600090815260106020908152604091829020825160808101845281548152600182015492810192909252600281015492820192909252600390910154606082015290565b60006104a8826119dd565b6060600e80546104bd9061281b565b33600090815260106020526040902060010154811115610fd05760405162461bcd60e51b815260206004820152601d60248201527f52656d6f766520616d6f756e7420657863656564732062616c616e6365000000604482015260640161064c565b6008546006546040516370a0823160e01b8152306004820152600092918491620100009091046001600160a01b0316906370a082319060240160206040518083038186803b15801561102157600080fd5b505afa158015611035573d6000803e3d6000fd5b505050506040513d601f19601f8201168201806040525081019061105991906125ea565b61106391906127b9565b61106d91906127a5565b336000908152601060205260408120600101805492935084929091906110949084906127d8565b9250508190555081600860008282546110ad91906127d8565b90915550506040517f96cd817c6329656790ef8fba7675405193677d39619571282f5e21f3a98cd059906110e6903390859085906126b6565b60405180910390a16110f833826112f4565b6006546105d3906201000090046001600160a01b03163383611c1b565b6001600160a01b03821633141561116e5760405162461bcd60e51b815260206004820152601960248201527f4552433732313a20617070726f766520746f2063616c6c657200000000000000604482015260640161064c565b3360008181526005602090815260408083206001600160a01b03871680855290835292819020805460ff191686151590811790915590519081529192917f17307eab39ab6107e8899845ad3d59bd9653f200f220920489ca2b5937696c31910160405180910390a35050565b6111e43383611592565b6112005760405162461bcd60e51b815260040161064c9061273c565b610a7884848484611c4b565b6000818152600260205260409020546060906001600160a01b031661128b5760405162461bcd60e51b815260206004820152602f60248201527f4552433732314d657461646174613a2055524920717565727920666f72206e6f60448201526e3732bc34b9ba32b73a103a37b5b2b760891b606482015260840161064c565b60006112a260408051602081019091526000815290565b905060008151116112c257604051806020016040528060008152506112ed565b806112cc84611c7e565b6040516020016112dd92919061264a565b6040516020818303038152906040525b9392505050565b6001600160a01b03821660009081526010602052604090206002015481111561135f5760405162461bcd60e51b815260206004820152601a60248201527f496e73756666696369656e74207374616b652062616c616e6365000000000000604482015260640161064c565b6000611369611829565b50905060006113778461198f565b905061138381836127d8565b6009556001600160a01b0384166000908152601060205260409020600201548314156113fd576001600160a01b0384166000908152601060205260409020546113cb90611d98565b6001600160a01b038416600090815260106020526040812081815560018101829055600281018290556003015561144d565b6001600160a01b038416600090815260106020526040812060020180548592906114289084906127d8565b9091555050600b546001600160a01b0385166000908152601060205260409020600301555b82600c600082825461145f91906127d8565b90915550506040517f7fc4727e062e336010f2c282598ef5f14facb3de68cf8195c2f23e1454b2b74e90611498903390869085906126b6565b60405180910390a160075460405163a9059cbb60e01b8152336004820152602481018390526001600160a01b039091169063a9059cbb90604401602060405180830381600087803b1580156114ec57600080fd5b505af1158015611500573d6000803e3d6000fd5b505050506040513d601f19601f82011682018060405250810190610938919061257e565b600081815260046020526040902080546001600160a01b0319166001600160a01b038416908117909155819061155982610de5565b6001600160a01b03167f8c5be1e5ebec7d5bd14f71427d1e84f3dd0314c0f7b2291e5b200ac8c7c3b92560405160405180910390a45050565b6000818152600260205260408120546001600160a01b031661160b5760405162461bcd60e51b815260206004820152602c60248201527f4552433732313a206f70657261746f7220717565727920666f72206e6f6e657860448201526b34b9ba32b73a103a37b5b2b760a11b606482015260840161064c565b600061161683610de5565b9050806001600160a01b0316846001600160a01b031614806116515750836001600160a01b0316611646846105d7565b6001600160a01b0316145b8061168157506001600160a01b0380821660009081526005602090815260408083209388168352929052205460ff165b949350505050565b826001600160a01b031661169c82610de5565b6001600160a01b0316146117045760405162461bcd60e51b815260206004820152602960248201527f4552433732313a207472616e73666572206f6620746f6b656e2074686174206960448201526839903737ba1037bbb760b91b606482015260840161064c565b6001600160a01b0382166117665760405162461bcd60e51b8152602060048201526024808201527f4552433732313a207472616e7366657220746f20746865207a65726f206164646044820152637265737360e01b606482015260840161064c565b611771600082611524565b6001600160a01b038316600090815260036020526040812080546001929061179a9084906127d8565b90915550506001600160a01b03821660009081526003602052604081208054600192906117c890849061278d565b909155505060008181526002602052604080822080546001600160a01b0319166001600160a01b0386811691821790925591518493918716917fddf252ad1be2c89b69c2b068fc378daa952ba7f163c4a11628f55a4df523b3ef91a4505050565b6007546040516370a0823160e01b8152306004820152600091829182916001600160a01b0316906370a082319060240160206040518083038186803b15801561187157600080fd5b505afa158015611885573d6000803e3d6000fd5b505050506040513d601f19601f820116820180604052508101906118a991906125ea565b90506000600954826118bb91906127d8565b9050600c5460001461198657600c547f00000000000000000000000000000000000000000000000000000000000000006001600160a01b0316635af720796040518163ffffffff1660e01b815260040160206040518083038186803b15801561192357600080fd5b505afa158015611937573d6000803e3d6000fd5b505050506040513d601f19601f8201168201806040525081019061195b91906125ea565b61196590836127b9565b61196f91906127a5565b600b6000828254611980919061278d565b90915550505b90939092509050565b6001600160a01b03811660009081526010602052604081206002810154600390910154600b54670de0b6b3a764000092916119c9916127d8565b6119d391906127b9565b6104a891906127a5565b600080821180156119f057506000600854115b15611a79576008546006546040516370a0823160e01b815230600482015284916201000090046001600160a01b0316906370a082319060240160206040518083038186803b158015611a4157600080fd5b505afa158015611a55573d6000803e3d6000fd5b505050506040513d601f19601f820116820180604052508101906119c991906125ea565b506000919050565b600080611a8c611829565b9150915080600a6000828254611aa2919061278d565b90915550506009829055600c8054849190600090611ac190849061278d565b90915550506001600160a01b03841660009081526010602052604090205480611b1b57611af2600f80546001019055565b50600f546001600160a01b0385166000908152601060205260409020819055611b1b8582611e33565b6001600160a01b03851660009081526010602052604081206002018054869290611b4690849061278d565b9091555050600b546001600160a01b0386166000908152601060205260409081902060030191909155517f1449c6dd7851abc30abf37f57715f492010519147cc2652fbc38202c18a6ee9090611ba1903390879085906126b6565b60405180910390a15050505050565b6040516001600160a01b0380851660248301528316604482015260648101829052610a789085906323b872dd60e01b906084015b60408051601f198184030181529190526020810180516001600160e01b03166001600160e01b031990931692909217909152611f75565b6040516001600160a01b03831660248201526044810182905261078290849063a9059cbb60e01b90606401611be4565b611c56848484611689565b611c6284848484612047565b610a785760405162461bcd60e51b815260040161064c906126ea565b606081611ca25750506040805180820190915260018152600360fc1b602082015290565b8160005b8115611ccc5780611cb681612856565b9150611cc59050600a836127a5565b9150611ca6565b60008167ffffffffffffffff811115611cf557634e487b7160e01b600052604160045260246000fd5b6040519080825280601f01601f191660200182016040528015611d1f576020820181803683370190505b5090505b841561168157611d346001836127d8565b9150611d41600a86612871565b611d4c90603061278d565b60f81b818381518110611d6f57634e487b7160e01b600052603260045260246000fd5b60200101906001600160f81b031916908160001a905350611d91600a866127a5565b9450611d23565b6000611da382610de5565b9050611db0600083611524565b6001600160a01b0381166000908152600360205260408120805460019290611dd99084906127d8565b909155505060008281526002602052604080822080546001600160a01b0319169055518391906001600160a01b038416907fddf252ad1be2c89b69c2b068fc378daa952ba7f163c4a11628f55a4df523b3ef908390a45050565b6001600160a01b038216611e895760405162461bcd60e51b815260206004820181905260248201527f4552433732313a206d696e7420746f20746865207a65726f2061646472657373604482015260640161064c565b6000818152600260205260409020546001600160a01b031615611eee5760405162461bcd60e51b815260206004820152601c60248201527f4552433732313a20746f6b656e20616c7265616479206d696e74656400000000604482015260640161064c565b6001600160a01b0382166000908152600360205260408120805460019290611f1790849061278d565b909155505060008181526002602052604080822080546001600160a01b0319166001600160a01b03861690811790915590518392907fddf252ad1be2c89b69c2b068fc378daa952ba7f163c4a11628f55a4df523b3ef908290a45050565b6000611fca826040518060400160405280602081526020017f5361666545524332303a206c6f772d6c6576656c2063616c6c206661696c6564815250856001600160a01b03166121549092919063ffffffff16565b8051909150156107825780806020019051810190611fe8919061257e565b6107825760405162461bcd60e51b815260206004820152602a60248201527f5361666545524332303a204552433230206f7065726174696f6e20646964206e6044820152691bdd081cdd58d8d9595960b21b606482015260840161064c565b60006001600160a01b0384163b1561214957604051630a85bd0160e11b81526001600160a01b0385169063150b7a029061208b903390899088908890600401612679565b602060405180830381600087803b1580156120a557600080fd5b505af19250505080156120d5575060408051601f3d908101601f191682019092526120d2918101906125b6565b60015b61212f573d808015612103576040519150601f19603f3d011682016040523d82523d6000602084013e612108565b606091505b5080516121275760405162461bcd60e51b815260040161064c906126ea565b805181602001fd5b6001600160e01b031916630a85bd0160e11b149050611681565b506001949350505050565b6060611681848460008585843b6121ad5760405162461bcd60e51b815260206004820152601d60248201527f416464726573733a2063616c6c20746f206e6f6e2d636f6e7472616374000000604482015260640161064c565b600080866001600160a01b031685876040516121c9919061262e565b60006040518083038185875af1925050503d8060008114612206576040519150601f19603f3d011682016040523d82523d6000602084013e61220b565b606091505b509150915061221b828286612226565b979650505050505050565b606083156122355750816112ed565b8251156122455782518084602001fd5b8160405162461bcd60e51b815260040161064c91906126d7565b82805461226b9061281b565b90600052602060002090601f01602090048101928261228d57600085556122d3565b82601f106122a657805160ff19168380011785556122d3565b828001600101855582156122d3579182015b828111156122d35782518255916020019190600101906122b8565b506122df9291506122e3565b5090565b5b808211156122df57600081556001016122e4565b600067ffffffffffffffff80841115612313576123136128b1565b604051601f8501601f19908116603f0116810190828211818310171561233b5761233b6128b1565b8160405280935085815286868601111561235457600080fd5b858560208301376000602087830101525050509392505050565b80356001600160a01b038116811461238557600080fd5b919050565b600082601f83011261239a578081fd5b6112ed838335602085016122f8565b6000602082840312156123ba578081fd5b6112ed8261236e565b600080604083850312156123d5578081fd5b6123de8361236e565b91506123ec6020840161236e565b90509250929050565b6000806000806080858703121561240a578182fd5b6124138561236e565b93506124216020860161236e565b9250604085013567ffffffffffffffff8082111561243d578384fd5b6124498883890161238a565b9350606087013591508082111561245e578283fd5b5061246b8782880161238a565b91505092959194509250565b60008060006060848603121561248b578283fd5b6124948461236e565b92506124a26020850161236e565b9150604084013590509250925092565b600080600080608085870312156124c7578384fd5b6124d08561236e565b93506124de6020860161236e565b925060408501359150606085013567ffffffffffffffff811115612500578182fd5b8501601f81018713612510578182fd5b61246b878235602084016122f8565b60008060408385031215612531578182fd5b61253a8361236e565b9150602083013561254a816128c7565b809150509250929050565b60008060408385031215612567578182fd5b6125708361236e565b946020939093013593505050565b60006020828403121561258f578081fd5b81516112ed816128c7565b6000602082840312156125ab578081fd5b81356112ed816128d8565b6000602082840312156125c7578081fd5b81516112ed816128d8565b6000602082840312156125e3578081fd5b5035919050565b6000602082840312156125fb578081fd5b5051919050565b6000815180845261261a8160208601602086016127ef565b601f01601f19169290920160200192915050565b600082516126408184602087016127ef565b9190910192915050565b6000835161265c8184602088016127ef565b8351908301906126708183602088016127ef565b01949350505050565b6001600160a01b03858116825284166020820152604081018390526080606082018190526000906126ac90830184612602565b9695505050505050565b6001600160a01b039390931683526020830191909152604082015260600190565b6020815260006112ed6020830184612602565b60208082526032908201527f4552433732313a207472616e7366657220746f206e6f6e20455243373231526560408201527131b2b4bb32b91034b6b83632b6b2b73a32b960711b606082015260800190565b60208082526031908201527f4552433732313a207472616e736665722063616c6c6572206973206e6f74206f6040820152701ddb995c881b9bdc88185c1c1c9bdd9959607a1b606082015260800190565b600082198211156127a0576127a0612885565b500190565b6000826127b4576127b461289b565b500490565b60008160001904831182151516156127d3576127d3612885565b500290565b6000828210156127ea576127ea612885565b500390565b60005b8381101561280a5781810151838201526020016127f2565b83811115610a785750506000910152565b600181811c9082168061282f57607f821691505b6020821081141561285057634e487b7160e01b600052602260045260246000fd5b50919050565b600060001982141561286a5761286a612885565b5060010190565b6000826128805761288061289b565b500690565b634e487b7160e01b600052601160045260246000fd5b634e487b7160e01b600052601260045260246000fd5b634e487b7160e01b600052604160045260246000fd5b80151581146128d557600080fd5b50565b6001600160e01b0319811681146128d557600080fdfea2646970667358221220e65df6ee228a14baef9a87dd41ae304c8d521c3eda25d2e6ce893e43d07355d064736f6c63430008040033",
  "devdoc": {
    "kind": "dev",
    "methods": {
      "approve(address,uint256)": {
        "details": "See {IERC721-approve}."
      },
      "balanceOf(address)": {
        "details": "See {IERC721-balanceOf}."
      },
      "getApproved(uint256)": {
        "details": "See {IERC721-getApproved}."
      },
      "isApprovedForAll(address,address)": {
        "details": "See {IERC721-isApprovedForAll}."
      },
      "name()": {
        "details": "See {IERC721Metadata-name}."
      },
      "ownerOf(uint256)": {
        "details": "See {IERC721-ownerOf}."
      },
      "safeTransferFrom(address,address,uint256)": {
        "details": "See {IERC721-safeTransferFrom}."
      },
      "safeTransferFrom(address,address,uint256,bytes)": {
        "details": "See {IERC721-safeTransferFrom}."
      },
      "setApprovalForAll(address,bool)": {
        "details": "See {IERC721-setApprovalForAll}."
      },
      "supportsInterface(bytes4)": {
        "details": "See {IERC165-supportsInterface}."
      },
      "symbol()": {
        "details": "See {IERC721Metadata-symbol}."
      },
      "tokenURI(uint256)": {
        "details": "See {IERC721Metadata-tokenURI}."
      },
      "transferFrom(address,address,uint256)": {
        "details": "See {IERC721-transferFrom}."
      }
    },
    "version": 1
  },
  "userdoc": {
    "kind": "user",
    "methods": {},
    "version": 1
  },
  "storageLayout": {
    "storage": [
      {
        "astId": 9517,
        "contract": "contracts/polygon/implementations/JotPool.sol:JotPool",
        "label": "_name",
        "offset": 0,
        "slot": "0",
        "type": "t_string_storage"
      },
      {
        "astId": 9519,
        "contract": "contracts/polygon/implementations/JotPool.sol:JotPool",
        "label": "_symbol",
        "offset": 0,
        "slot": "1",
        "type": "t_string_storage"
      },
      {
        "astId": 9523,
        "contract": "contracts/polygon/implementations/JotPool.sol:JotPool",
        "label": "_owners",
        "offset": 0,
        "slot": "2",
        "type": "t_mapping(t_uint256,t_address)"
      },
      {
        "astId": 9527,
        "contract": "contracts/polygon/implementations/JotPool.sol:JotPool",
        "label": "_balances",
        "offset": 0,
        "slot": "3",
        "type": "t_mapping(t_address,t_uint256)"
      },
      {
        "astId": 9531,
        "contract": "contracts/polygon/implementations/JotPool.sol:JotPool",
        "label": "_tokenApprovals",
        "offset": 0,
        "slot": "4",
        "type": "t_mapping(t_uint256,t_address)"
      },
      {
        "astId": 9537,
        "contract": "contracts/polygon/implementations/JotPool.sol:JotPool",
        "label": "_operatorApprovals",
        "offset": 0,
        "slot": "5",
        "type": "t_mapping(t_address,t_mapping(t_address,t_bool))"
      },
      {
        "astId": 7665,
        "contract": "contracts/polygon/implementations/JotPool.sol:JotPool",
        "label": "_initialized",
        "offset": 0,
        "slot": "6",
        "type": "t_bool"
      },
      {
        "astId": 7668,
        "contract": "contracts/polygon/implementations/JotPool.sol:JotPool",
        "label": "_initializing",
        "offset": 1,
        "slot": "6",
        "type": "t_bool"
      },
      {
        "astId": 23623,
        "contract": "contracts/polygon/implementations/JotPool.sol:JotPool",
        "label": "jot",
        "offset": 2,
        "slot": "6",
        "type": "t_address"
      },
      {
        "astId": 23625,
        "contract": "contracts/polygon/implementations/JotPool.sol:JotPool",
        "label": "fundingToken",
        "offset": 0,
        "slot": "7",
        "type": "t_address"
      },
      {
        "astId": 23627,
        "contract": "contracts/polygon/implementations/JotPool.sol:JotPool",
        "label": "totalLiquidity",
        "offset": 0,
        "slot": "8",
        "type": "t_uint256"
      },
      {
        "astId": 23629,
        "contract": "contracts/polygon/implementations/JotPool.sol:JotPool",
        "label": "lastReward",
        "offset": 0,
        "slot": "9",
        "type": "t_uint256"
      },
      {
        "astId": 23631,
        "contract": "contracts/polygon/implementations/JotPool.sol:JotPool",
        "label": "cumulativeRevenue",
        "offset": 0,
        "slot": "10",
        "type": "t_uint256"
      },
      {
        "astId": 23633,
        "contract": "contracts/polygon/implementations/JotPool.sol:JotPool",
        "label": "totalShares",
        "offset": 0,
        "slot": "11",
        "type": "t_uint256"
      },
      {
        "astId": 23635,
        "contract": "contracts/polygon/implementations/JotPool.sol:JotPool",
        "label": "totalStaked",
        "offset": 0,
        "slot": "12",
        "type": "t_uint256"
      },
      {
        "astId": 23637,
        "contract": "contracts/polygon/implementations/JotPool.sol:JotPool",
        "label": "_proxyName",
        "offset": 0,
        "slot": "13",
        "type": "t_string_storage"
      },
      {
        "astId": 23639,
        "contract": "contracts/polygon/implementations/JotPool.sol:JotPool",
        "label": "_proxySymbol",
        "offset": 0,
        "slot": "14",
        "type": "t_string_storage"
      },
      {
        "astId": 23642,
        "contract": "contracts/polygon/implementations/JotPool.sol:JotPool",
        "label": "idGen",
        "offset": 0,
        "slot": "15",
        "type": "t_struct(Counter)10793_storage"
      },
      {
        "astId": 23647,
        "contract": "contracts/polygon/implementations/JotPool.sol:JotPool",
        "label": "positions",
        "offset": 0,
        "slot": "16",
        "type": "t_mapping(t_address,t_struct(Position)23621_storage)"
      }
    ],
    "types": {
      "t_address": {
        "encoding": "inplace",
        "label": "address",
        "numberOfBytes": "20"
      },
      "t_bool": {
        "encoding": "inplace",
        "label": "bool",
        "numberOfBytes": "1"
      },
      "t_mapping(t_address,t_bool)": {
        "encoding": "mapping",
        "key": "t_address",
        "label": "mapping(address => bool)",
        "numberOfBytes": "32",
        "value": "t_bool"
      },
      "t_mapping(t_address,t_mapping(t_address,t_bool))": {
        "encoding": "mapping",
        "key": "t_address",
        "label": "mapping(address => mapping(address => bool))",
        "numberOfBytes": "32",
        "value": "t_mapping(t_address,t_bool)"
      },
      "t_mapping(t_address,t_struct(Position)23621_storage)": {
        "encoding": "mapping",
        "key": "t_address",
        "label": "mapping(address => struct JotPool.Position)",
        "numberOfBytes": "32",
        "value": "t_struct(Position)23621_storage"
      },
      "t_mapping(t_address,t_uint256)": {
        "encoding": "mapping",
        "key": "t_address",
        "label": "mapping(address => uint256)",
        "numberOfBytes": "32",
        "value": "t_uint256"
      },
      "t_mapping(t_uint256,t_address)": {
        "encoding": "mapping",
        "key": "t_uint256",
        "label": "mapping(uint256 => address)",
        "numberOfBytes": "32",
        "value": "t_address"
      },
      "t_string_storage": {
        "encoding": "bytes",
        "label": "string",
        "numberOfBytes": "32"
      },
      "t_struct(Counter)10793_storage": {
        "encoding": "inplace",
        "label": "struct Counters.Counter",
        "members": [
          {
            "astId": 10792,
            "contract": "contracts/polygon/implementations/JotPool.sol:JotPool",
            "label": "_value",
            "offset": 0,
            "slot": "0",
            "type": "t_uint256"
          }
        ],
        "numberOfBytes": "32"
      },
      "t_struct(Position)23621_storage": {
        "encoding": "inplace",
        "label": "struct JotPool.Position",
        "members": [
          {
            "astId": 23614,
            "contract": "contracts/polygon/implementations/JotPool.sol:JotPool",
            "label": "id",
            "offset": 0,
            "slot": "0",
            "type": "t_uint256"
          },
          {
            "astId": 23616,
            "contract": "contracts/polygon/implementations/JotPool.sol:JotPool",
            "label": "liquidity",
            "offset": 0,
            "slot": "1",
            "type": "t_uint256"
          },
          {
            "astId": 23618,
            "contract": "contracts/polygon/implementations/JotPool.sol:JotPool",
            "label": "stake",
            "offset": 0,
            "slot": "2",
            "type": "t_uint256"
          },
          {
            "astId": 23620,
            "contract": "contracts/polygon/implementations/JotPool.sol:JotPool",
            "label": "totalShares",
            "offset": 0,
            "slot": "3",
            "type": "t_uint256"
          }
        ],
        "numberOfBytes": "128"
      },
      "t_uint256": {
        "encoding": "inplace",
        "label": "uint256",
        "numberOfBytes": "32"
      }
    }
  }
}