{
  "address": "0xe87365aB02a6E58E1908366694858A41547F62E4",
  "abi": [
    {
      "inputs": [
        {
          "internalType": "address",
          "name": "_protocol",
          "type": "address"
        }
      ],
      "stateMutability": "nonpayable",
      "type": "constructor"
    },
    {
      "anonymous": false,
      "inputs": [
        {
          "indexed": false,
          "internalType": "address",
          "name": "provider",
          "type": "address"
        },
        {
          "indexed": false,
          "internalType": "uint256",
          "name": "amount",
          "type": "uint256"
        },
        {
          "indexed": false,
          "internalType": "uint256",
          "name": "mintedLiquidity",
          "type": "uint256"
        }
      ],
      "name": "LiquidityAdded",
      "type": "event"
    },
    {
      "anonymous": false,
      "inputs": [
        {
          "indexed": false,
          "internalType": "address",
          "name": "provider",
          "type": "address"
        },
        {
          "indexed": false,
          "internalType": "uint256",
          "name": "amount",
          "type": "uint256"
        },
        {
          "indexed": false,
          "internalType": "uint256",
          "name": "liquidityBurnt",
          "type": "uint256"
        }
      ],
      "name": "LiquidityRemoved",
      "type": "event"
    },
    {
      "inputs": [
        {
          "internalType": "uint256",
          "name": "amount",
          "type": "uint256"
        }
      ],
      "name": "addLiquidity",
      "outputs": [],
      "stateMutability": "nonpayable",
      "type": "function"
    },
    {
      "inputs": [],
      "name": "balance",
      "outputs": [
        {
          "internalType": "uint256",
          "name": "",
          "type": "uint256"
        }
      ],
      "stateMutability": "view",
      "type": "function"
    },
    {
      "inputs": [
        {
          "internalType": "address",
          "name": "_jot",
          "type": "address"
        }
      ],
      "name": "initialize",
      "outputs": [],
      "stateMutability": "nonpayable",
      "type": "function"
    },
    {
      "inputs": [],
      "name": "jot",
      "outputs": [
        {
          "internalType": "address",
          "name": "",
          "type": "address"
        }
      ],
      "stateMutability": "view",
      "type": "function"
    },
    {
      "inputs": [
        {
          "internalType": "uint256",
          "name": "amount",
          "type": "uint256"
        }
      ],
      "name": "removeLiquidity",
      "outputs": [],
      "stateMutability": "nonpayable",
      "type": "function"
    },
    {
      "inputs": [],
      "name": "totalLiquidity",
      "outputs": [
        {
          "internalType": "uint256",
          "name": "",
          "type": "uint256"
        }
      ],
      "stateMutability": "view",
      "type": "function"
    }
  ],
  "transactionHash": "0xae152806da794ce12e0946424140f7ce9ec732c876144e47b061ebb4a7ae5e1e",
  "args": [
    "0x6Dc5eD3e4Ffe122e1F6d1dE4c885632F5243D6D4"
  ],
  "solcInputHash": "9631ee2e88a0c516d11e20450e96dfe6",
  "bytecode": "0x60a060405234801561001057600080fd5b50604051610af1380380610af183398101604081905261002f9161009e565b6001600160a01b0381166100895760405162461bcd60e51b815260206004820152601860248201527f496e76616c69642070726f746f636f6c20616464726573730000000000000000604482015260640160405180910390fd5b60601b6001600160601b0319166080526100cc565b6000602082840312156100af578081fd5b81516001600160a01b03811681146100c5578182fd5b9392505050565b60805160601c610a0a6100e760003960005050610a0a6000f3fe608060405234801561001057600080fd5b50600436106100625760003560e01c806315770f921461006757806351c6590a14610083578063808cfb5d146100985780639c8f9f23146100c3578063b69ef8a8146100d6578063c4d66de8146100eb575b600080fd5b61007060015481565b6040519081526020015b60405180910390f35b6100966100913660046108a5565b6100fe565b005b6003546100ab906001600160a01b031681565b6040516001600160a01b03909116815260200161007a565b6100966100d13660046108a5565b610288565b33600090815260026020526040902054610070565b6100966100f936600461085e565b610454565b600081116101445760405162461bcd60e51b815260206004820152600e60248201526d125b9d985b1a5908185b5bdd5b9d60921b60448201526064015b60405180910390fd5b600080600154116101565760646101e9565b6003546040516370a0823160e01b81523060048201526001600160a01b03909116906370a082319060240160206040518083038186803b15801561019957600080fd5b505afa1580156101ad573d6000803e3d6000fd5b505050506040513d601f19601f820116820180604052508101906101d191906108bd565b826001546101df919061095c565b6101e9919061093c565b3360009081526002602052604081208054929350839290919061020d908490610924565b9250508190555080600160008282546102269190610924565b909155505060408051338152602081018490529081018290527fac1d76749e5447b7b16f5ab61447e1bd502f3bb4807af3b28e620d1700a6ee459060600160405180910390a1600354610284906001600160a01b031633308561056c565b5050565b336000908152600260205260409020548111156102e75760405162461bcd60e51b815260206004820152601d60248201527f52656d6f766520616d6f756e7420657863656564732062616c616e6365000000604482015260640161013b565b6001546003546040516370a0823160e01b81523060048201526000929184916001600160a01b03909116906370a082319060240160206040518083038186803b15801561033357600080fd5b505afa158015610347573d6000803e3d6000fd5b505050506040513d601f19601f8201168201806040525081019061036b91906108bd565b610375919061095c565b61037f919061093c565b9050600082600154610391919061097b565b11156103da5733600090815260026020526040812080548492906103b690849061097b565b9250508190555081600160008282546103cf919061097b565b909155506103fc9050565b33600090815260026020526040902069152d02c7e14af6800000908190556001555b60408051338152602081018490529081018290527f96cd817c6329656790ef8fba7675405193677d39619571282f5e21f3a98cd0599060600160405180910390a1600354610284906001600160a01b031633836105dd565b600054610100900460ff168061046d575060005460ff16155b6104d05760405162461bcd60e51b815260206004820152602e60248201527f496e697469616c697a61626c653a20636f6e747261637420697320616c72656160448201526d191e481a5b9a5d1a585b1a5e995960921b606482015260840161013b565b600054610100900460ff161580156104f2576000805461ffff19166101011790555b6001600160a01b03821661053c5760405162461bcd60e51b815260206004820152601160248201527024b73b30b634b2102537ba103a37b5b2b760791b604482015260640161013b565b600380546001600160a01b0319166001600160a01b0384161790558015610284576000805461ff00191690555050565b6040516001600160a01b03808516602483015283166044820152606481018290526105d79085906323b872dd60e01b906084015b60408051601f198184030181529190526020810180516001600160e01b03166001600160e01b031990931692909217909152610612565b50505050565b6040516001600160a01b03831660248201526044810182905261060d90849063a9059cbb60e01b906064016105a0565b505050565b6000610667826040518060400160405280602081526020017f5361666545524332303a206c6f772d6c6576656c2063616c6c206661696c6564815250856001600160a01b03166106e49092919063ffffffff16565b80519091501561060d57808060200190518101906106859190610885565b61060d5760405162461bcd60e51b815260206004820152602a60248201527f5361666545524332303a204552433230206f7065726174696f6e20646964206e6044820152691bdd081cdd58d8d9595960b21b606482015260840161013b565b60606106f384846000856106fd565b90505b9392505050565b60608247101561075e5760405162461bcd60e51b815260206004820152602660248201527f416464726573733a20696e73756666696369656e742062616c616e636520666f6044820152651c8818d85b1b60d21b606482015260840161013b565b843b6107ac5760405162461bcd60e51b815260206004820152601d60248201527f416464726573733a2063616c6c20746f206e6f6e2d636f6e7472616374000000604482015260640161013b565b600080866001600160a01b031685876040516107c891906108d5565b60006040518083038185875af1925050503d8060008114610805576040519150601f19603f3d011682016040523d82523d6000602084013e61080a565b606091505b509150915061081a828286610825565b979650505050505050565b606083156108345750816106f6565b8251156108445782518084602001fd5b8160405162461bcd60e51b815260040161013b91906108f1565b60006020828403121561086f578081fd5b81356001600160a01b03811681146106f6578182fd5b600060208284031215610896578081fd5b815180151581146106f6578182fd5b6000602082840312156108b6578081fd5b5035919050565b6000602082840312156108ce578081fd5b5051919050565b600082516108e7818460208701610992565b9190910192915050565b6020815260008251806020840152610910816040850160208701610992565b601f01601f19169190910160400192915050565b60008219821115610937576109376109be565b500190565b60008261095757634e487b7160e01b81526012600452602481fd5b500490565b6000816000190483118215151615610976576109766109be565b500290565b60008282101561098d5761098d6109be565b500390565b60005b838110156109ad578181015183820152602001610995565b838111156105d75750506000910152565b634e487b7160e01b600052601160045260246000fdfea264697066735822122017b9372dd0f2e9fcfe3688b129344cb6310a9999753d14e50c93c1c4334a53c464736f6c63430008040033",
  "devdoc": {
    "kind": "dev",
    "methods": {},
    "version": 1
  },
  "userdoc": {
    "kind": "user",
    "methods": {},
    "version": 1
  },
  "storageLayout": {
    "storage": [
      {
        "astId": 5456,
        "contract": "contracts/polygon/implementations/JotPool.sol:JotPool",
        "label": "_initialized",
        "offset": 0,
        "slot": "0",
        "type": "t_bool"
      },
      {
        "astId": 5459,
        "contract": "contracts/polygon/implementations/JotPool.sol:JotPool",
        "label": "_initializing",
        "offset": 1,
        "slot": "0",
        "type": "t_bool"
      },
      {
        "astId": 14460,
        "contract": "contracts/polygon/implementations/JotPool.sol:JotPool",
        "label": "totalLiquidity",
        "offset": 0,
        "slot": "1",
        "type": "t_uint256"
      },
      {
        "astId": 14464,
        "contract": "contracts/polygon/implementations/JotPool.sol:JotPool",
        "label": "liquidity",
        "offset": 0,
        "slot": "2",
        "type": "t_mapping(t_address,t_uint256)"
      },
      {
        "astId": 14466,
        "contract": "contracts/polygon/implementations/JotPool.sol:JotPool",
        "label": "jot",
        "offset": 0,
        "slot": "3",
        "type": "t_address"
      }
    ],
    "types": {
      "t_address": {
        "encoding": "inplace",
        "label": "address",
        "numberOfBytes": "20"
      },
      "t_bool": {
        "encoding": "inplace",
        "label": "bool",
        "numberOfBytes": "1"
      },
      "t_mapping(t_address,t_uint256)": {
        "encoding": "mapping",
        "key": "t_address",
        "label": "mapping(address => uint256)",
        "numberOfBytes": "32",
        "value": "t_uint256"
      },
      "t_uint256": {
        "encoding": "inplace",
        "label": "uint256",
        "numberOfBytes": "32"
      }
    }
  }
}