{
  "address": "0x10bb8c8dfdE16C330b82D82FD275244D0356a0Bd",
  "abi": [
    {
      "inputs": [
        {
          "internalType": "address",
          "name": "_protocol",
          "type": "address"
        }
      ],
      "stateMutability": "nonpayable",
      "type": "constructor"
    },
    {
      "anonymous": false,
      "inputs": [
        {
          "indexed": true,
          "internalType": "address",
          "name": "owner",
          "type": "address"
        },
        {
          "indexed": true,
          "internalType": "address",
          "name": "approved",
          "type": "address"
        },
        {
          "indexed": true,
          "internalType": "uint256",
          "name": "tokenId",
          "type": "uint256"
        }
      ],
      "name": "Approval",
      "type": "event"
    },
    {
      "anonymous": false,
      "inputs": [
        {
          "indexed": true,
          "internalType": "address",
          "name": "owner",
          "type": "address"
        },
        {
          "indexed": true,
          "internalType": "address",
          "name": "operator",
          "type": "address"
        },
        {
          "indexed": false,
          "internalType": "bool",
          "name": "approved",
          "type": "bool"
        }
      ],
      "name": "ApprovalForAll",
      "type": "event"
    },
    {
      "anonymous": false,
      "inputs": [
        {
          "indexed": false,
          "internalType": "address",
          "name": "provider",
          "type": "address"
        },
        {
          "indexed": false,
          "internalType": "uint256",
          "name": "amount",
          "type": "uint256"
        },
        {
          "indexed": false,
          "internalType": "uint256",
          "name": "mintedLiquidity",
          "type": "uint256"
        }
      ],
      "name": "LiquidityAdded",
      "type": "event"
    },
    {
      "anonymous": false,
      "inputs": [
        {
          "indexed": false,
          "internalType": "address",
          "name": "provider",
          "type": "address"
        },
        {
          "indexed": false,
          "internalType": "uint256",
          "name": "amount",
          "type": "uint256"
        },
        {
          "indexed": false,
          "internalType": "uint256",
          "name": "liquidityBurnt",
          "type": "uint256"
        }
      ],
      "name": "LiquidityRemoved",
      "type": "event"
    },
    {
      "anonymous": false,
      "inputs": [
        {
          "indexed": false,
          "internalType": "address",
          "name": "recipient",
          "type": "address"
        },
        {
          "indexed": false,
          "internalType": "uint256",
          "name": "reward",
          "type": "uint256"
        }
      ],
      "name": "RewardsClaimed",
      "type": "event"
    },
    {
      "anonymous": false,
      "inputs": [
        {
          "indexed": false,
          "internalType": "address",
          "name": "staker",
          "type": "address"
        },
        {
          "indexed": false,
          "internalType": "uint256",
          "name": "amount",
          "type": "uint256"
        },
        {
          "indexed": false,
          "internalType": "uint256",
          "name": "positionId",
          "type": "uint256"
        }
      ],
      "name": "Staked",
      "type": "event"
    },
    {
      "anonymous": false,
      "inputs": [
        {
          "indexed": true,
          "internalType": "address",
          "name": "from",
          "type": "address"
        },
        {
          "indexed": true,
          "internalType": "address",
          "name": "to",
          "type": "address"
        },
        {
          "indexed": true,
          "internalType": "uint256",
          "name": "tokenId",
          "type": "uint256"
        }
      ],
      "name": "Transfer",
      "type": "event"
    },
    {
      "anonymous": false,
      "inputs": [
        {
          "indexed": false,
          "internalType": "address",
          "name": "recipient",
          "type": "address"
        },
        {
          "indexed": false,
          "internalType": "uint256",
          "name": "amount",
          "type": "uint256"
        },
        {
          "indexed": false,
          "internalType": "uint256",
          "name": "reward",
          "type": "uint256"
        }
      ],
      "name": "Unstaked",
      "type": "event"
    },
    {
      "inputs": [
        {
          "internalType": "uint256",
          "name": "amount",
          "type": "uint256"
        }
      ],
      "name": "addLiquidity",
      "outputs": [],
      "stateMutability": "nonpayable",
      "type": "function"
    },
    {
      "inputs": [
        {
          "internalType": "address",
          "name": "to",
          "type": "address"
        },
        {
          "internalType": "uint256",
          "name": "tokenId",
          "type": "uint256"
        }
      ],
      "name": "approve",
      "outputs": [],
      "stateMutability": "nonpayable",
      "type": "function"
    },
    {
      "inputs": [
        {
          "internalType": "address",
          "name": "owner",
          "type": "address"
        }
      ],
      "name": "balanceOf",
      "outputs": [
        {
          "internalType": "uint256",
          "name": "",
          "type": "uint256"
        }
      ],
      "stateMutability": "view",
      "type": "function"
    },
    {
      "inputs": [],
      "name": "claimRewards",
      "outputs": [],
      "stateMutability": "nonpayable",
      "type": "function"
    },
    {
      "inputs": [],
      "name": "cumulativeRevenue",
      "outputs": [
        {
          "internalType": "uint256",
          "name": "",
          "type": "uint256"
        }
      ],
      "stateMutability": "view",
      "type": "function"
    },
    {
      "inputs": [],
      "name": "fundingToken",
      "outputs": [
        {
          "internalType": "address",
          "name": "",
          "type": "address"
        }
      ],
      "stateMutability": "view",
      "type": "function"
    },
    {
      "inputs": [
        {
          "internalType": "uint256",
          "name": "tokenId",
          "type": "uint256"
        }
      ],
      "name": "getApproved",
      "outputs": [
        {
          "internalType": "address",
          "name": "",
          "type": "address"
        }
      ],
      "stateMutability": "view",
      "type": "function"
    },
    {
      "inputs": [
        {
          "internalType": "uint256",
          "name": "amount",
          "type": "uint256"
        }
      ],
      "name": "getLiquidityValue",
      "outputs": [
        {
          "internalType": "uint256",
          "name": "",
          "type": "uint256"
        }
      ],
      "stateMutability": "view",
      "type": "function"
    },
    {
      "inputs": [],
      "name": "getPosition",
      "outputs": [
        {
          "components": [
            {
              "internalType": "uint256",
              "name": "id",
              "type": "uint256"
            },
            {
              "internalType": "uint256",
              "name": "liquidity",
              "type": "uint256"
            },
            {
              "internalType": "uint256",
              "name": "stake",
              "type": "uint256"
            },
            {
              "internalType": "uint256",
              "name": "totalShares",
              "type": "uint256"
            }
          ],
          "internalType": "struct JotPool.Position",
          "name": "",
          "type": "tuple"
        }
      ],
      "stateMutability": "view",
      "type": "function"
    },
    {
      "inputs": [],
      "name": "getReward",
      "outputs": [
        {
          "internalType": "uint256",
          "name": "reward",
          "type": "uint256"
        }
      ],
      "stateMutability": "view",
      "type": "function"
    },
    {
      "inputs": [
        {
          "internalType": "address",
          "name": "owner",
          "type": "address"
        }
      ],
      "name": "getTotalLiquidityValue",
      "outputs": [
        {
          "internalType": "uint256",
          "name": "",
          "type": "uint256"
        }
      ],
      "stateMutability": "view",
      "type": "function"
    },
    {
      "inputs": [
        {
          "internalType": "address",
          "name": "_jot",
          "type": "address"
        },
        {
          "internalType": "address",
          "name": "_fundingToken",
          "type": "address"
        },
        {
          "internalType": "string",
          "name": "_name",
          "type": "string"
        },
        {
          "internalType": "string",
          "name": "_symbol",
          "type": "string"
        }
      ],
      "name": "initialize",
      "outputs": [],
      "stateMutability": "nonpayable",
      "type": "function"
    },
    {
      "inputs": [
        {
          "internalType": "address",
          "name": "owner",
          "type": "address"
        },
        {
          "internalType": "address",
          "name": "operator",
          "type": "address"
        }
      ],
      "name": "isApprovedForAll",
      "outputs": [
        {
          "internalType": "bool",
          "name": "",
          "type": "bool"
        }
      ],
      "stateMutability": "view",
      "type": "function"
    },
    {
      "inputs": [],
      "name": "jot",
      "outputs": [
        {
          "internalType": "address",
          "name": "",
          "type": "address"
        }
      ],
      "stateMutability": "view",
      "type": "function"
    },
    {
      "inputs": [],
      "name": "lastReward",
      "outputs": [
        {
          "internalType": "uint256",
          "name": "",
          "type": "uint256"
        }
      ],
      "stateMutability": "view",
      "type": "function"
    },
    {
      "inputs": [],
      "name": "name",
      "outputs": [
        {
          "internalType": "string",
          "name": "",
          "type": "string"
        }
      ],
      "stateMutability": "view",
      "type": "function"
    },
    {
      "inputs": [
        {
          "internalType": "uint256",
          "name": "tokenId",
          "type": "uint256"
        }
      ],
      "name": "ownerOf",
      "outputs": [
        {
          "internalType": "address",
          "name": "",
          "type": "address"
        }
      ],
      "stateMutability": "view",
      "type": "function"
    },
    {
      "inputs": [
        {
          "internalType": "uint256",
          "name": "amount",
          "type": "uint256"
        }
      ],
      "name": "removeLiquidity",
      "outputs": [],
      "stateMutability": "nonpayable",
      "type": "function"
    },
    {
      "inputs": [
        {
          "internalType": "address",
          "name": "from",
          "type": "address"
        },
        {
          "internalType": "address",
          "name": "to",
          "type": "address"
        },
        {
          "internalType": "uint256",
          "name": "tokenId",
          "type": "uint256"
        }
      ],
      "name": "safeTransferFrom",
      "outputs": [],
      "stateMutability": "nonpayable",
      "type": "function"
    },
    {
      "inputs": [
        {
          "internalType": "address",
          "name": "from",
          "type": "address"
        },
        {
          "internalType": "address",
          "name": "to",
          "type": "address"
        },
        {
          "internalType": "uint256",
          "name": "tokenId",
          "type": "uint256"
        },
        {
          "internalType": "bytes",
          "name": "_data",
          "type": "bytes"
        }
      ],
      "name": "safeTransferFrom",
      "outputs": [],
      "stateMutability": "nonpayable",
      "type": "function"
    },
    {
      "inputs": [
        {
          "internalType": "address",
          "name": "operator",
          "type": "address"
        },
        {
          "internalType": "bool",
          "name": "approved",
          "type": "bool"
        }
      ],
      "name": "setApprovalForAll",
      "outputs": [],
      "stateMutability": "nonpayable",
      "type": "function"
    },
    {
      "inputs": [
        {
          "internalType": "uint256",
          "name": "amount",
          "type": "uint256"
        }
      ],
      "name": "stakeShares",
      "outputs": [],
      "stateMutability": "nonpayable",
      "type": "function"
    },
    {
      "inputs": [],
      "name": "stakerShare",
      "outputs": [
        {
          "internalType": "uint256",
          "name": "",
          "type": "uint256"
        }
      ],
      "stateMutability": "view",
      "type": "function"
    },
    {
      "inputs": [],
      "name": "stakerShareDenominator",
      "outputs": [
        {
          "internalType": "uint256",
          "name": "",
          "type": "uint256"
        }
      ],
      "stateMutability": "view",
      "type": "function"
    },
    {
      "inputs": [
        {
          "internalType": "bytes4",
          "name": "interfaceId",
          "type": "bytes4"
        }
      ],
      "name": "supportsInterface",
      "outputs": [
        {
          "internalType": "bool",
          "name": "",
          "type": "bool"
        }
      ],
      "stateMutability": "view",
      "type": "function"
    },
    {
      "inputs": [],
      "name": "symbol",
      "outputs": [
        {
          "internalType": "string",
          "name": "",
          "type": "string"
        }
      ],
      "stateMutability": "view",
      "type": "function"
    },
    {
      "inputs": [
        {
          "internalType": "uint256",
          "name": "tokenId",
          "type": "uint256"
        }
      ],
      "name": "tokenURI",
      "outputs": [
        {
          "internalType": "string",
          "name": "",
          "type": "string"
        }
      ],
      "stateMutability": "view",
      "type": "function"
    },
    {
      "inputs": [],
      "name": "totalLiquidity",
      "outputs": [
        {
          "internalType": "uint256",
          "name": "",
          "type": "uint256"
        }
      ],
      "stateMutability": "view",
      "type": "function"
    },
    {
      "inputs": [],
      "name": "totalShares",
      "outputs": [
        {
          "internalType": "uint256",
          "name": "",
          "type": "uint256"
        }
      ],
      "stateMutability": "view",
      "type": "function"
    },
    {
      "inputs": [],
      "name": "totalStaked",
      "outputs": [
        {
          "internalType": "uint256",
          "name": "",
          "type": "uint256"
        }
      ],
      "stateMutability": "view",
      "type": "function"
    },
    {
      "inputs": [
        {
          "internalType": "address",
          "name": "from",
          "type": "address"
        },
        {
          "internalType": "address",
          "name": "to",
          "type": "address"
        },
        {
          "internalType": "uint256",
          "name": "tokenId",
          "type": "uint256"
        }
      ],
      "name": "transferFrom",
      "outputs": [],
      "stateMutability": "nonpayable",
      "type": "function"
    },
    {
      "inputs": [
        {
          "internalType": "uint256",
          "name": "amount",
          "type": "uint256"
        }
      ],
      "name": "unstakeShares",
      "outputs": [],
      "stateMutability": "nonpayable",
      "type": "function"
    }
  ],
  "transactionHash": "0xbeced2633f1b56b1d354725faeb30660e8fae7ab25eb509199398e9876d3e8e5",
  "args": [
    "0xabd730aA0633d482B9B5e0145f6663e89F1B72B5"
  ],
  "solcInputHash": "1a893c192b01679bf42d803ae7063f27",
  "bytecode": "0x60a0604052600a600f556103e86010553480156200001c57600080fd5b5060405162002a9c38038062002a9c8339810160408190526200003f916200019e565b604080516020808201808452600080845284519283019094528382528251929391926200006e929190620000f8565b50805162000084906001906020840190620000f8565b5050506001600160a01b038116620000e25760405162461bcd60e51b815260206004820152601860248201527f496e76616c69642070726f746f636f6c20616464726573730000000000000000604482015260640160405180910390fd5b60601b6001600160601b0319166080526200020b565b8280546200010690620001ce565b90600052602060002090601f0160209004810192826200012a576000855562000175565b82601f106200014557805160ff191683800117855562000175565b8280016001018555821562000175579182015b828111156200017557825182559160200191906001019062000158565b506200018392915062000187565b5090565b5b8082111562000183576000815560010162000188565b600060208284031215620001b0578081fd5b81516001600160a01b0381168114620001c7578182fd5b9392505050565b600181811c90821680620001e357607f821691505b602082108114156200020557634e487b7160e01b600052602260045260246000fd5b50919050565b60805160601c61287562000227600039600050506128756000f3fe608060405234801561001057600080fd5b50600436106101f05760003560e01c80636352211e1161010f57806395d89b41116100a2578063b88d4fde11610071578063b88d4fde14610419578063c87b56dd1461042c578063c9b171491461043f578063e985e9c51461044857600080fd5b806395d89b41146103e25780639c8f9f23146103ea578063a22cb465146103fd578063a91986701461041057600080fd5b80637640482f116100de5780637640482f1461039a57806378065f27146103ad578063808cfb5d146103c0578063817b1cd2146103d957600080fd5b80636352211e1461033057806370a0823114610343578063724fcd01146103565780637398ab181461035f57600080fd5b8063372500ab11610187578063460ea58a11610156578063460ea58a146102ee57806351c6590a14610301578063569c426b146103145780635af720791461032757600080fd5b8063372500ab146102c25780633a98ef39146102ca5780633d18b912146102d357806342842e0e146102db57600080fd5b8063095ea7b3116101c3578063095ea7b31461027257806315770f92146102855780632016a0d21461029c57806323b872dd146102af57600080fd5b806301ffc9a7146101f557806306fdde031461021d5780630775ffe514610232578063081812fc14610247575b600080fd5b6102086102033660046124eb565b610484565b60405190151581526020015b60405180910390f35b6102256104d6565b6040516102149190612628565b610245610240366004612523565b610568565b005b61025a610255366004612523565b6105ff565b6040516001600160a01b039091168152602001610214565b6102456102803660046124a6565b610699565b61028e60085481565b604051908152602001610214565b6102456102aa366004612346565b6107af565b6102456102bd3660046123c8565b610967565b610245610998565b61028e600d5481565b61028e610aa6565b6102456102e93660046123c8565b610ab6565b61028e6102fc3660046122fa565b610ad1565b61024561030f366004612523565b610af6565b610245610322366004612523565b610c8a565b61028e600f5481565b61025a61033e366004612523565b610d82565b61028e6103513660046122fa565b610df9565b61028e600c5481565b610367610e80565b60405161021491908151815260208083015190820152604080830151908201526060918201519181019190915260800190565b61028e6103a8366004612523565b610ef1565b60075461025a906001600160a01b031681565b60065461025a906201000090046001600160a01b031681565b61028e600e5481565b610225610efc565b6102456103f8366004612523565b610f0b565b61024561040b366004612470565b6110f0565b61028e60105481565b610245610427366004612403565b6111b5565b61022561043a366004612523565b6111e7565b61028e600b5481565b610208610456366004612314565b6001600160a01b03918216600090815260056020908152604080832093909416825291909152205460ff1690565b60006001600160e01b031982166380ac58cd60e01b14806104b557506001600160e01b03198216635b5e139f60e01b145b806104d057506301ffc9a760e01b6001600160e01b03198316145b92915050565b6060600980546104e59061276c565b80601f01602080910402602001604051908101604052809291908181526020018280546105119061276c565b801561055e5780601f106105335761010080835404028352916020019161055e565b820191906000526020600020905b81548152906001019060200180831161054157829003601f168201915b5050505050905090565b61057233826112cf565b60065460405163a9059cbb60e01b815233600482015260248101839052620100009091046001600160a01b03169063a9059cbb90604401602060405180830381600087803b1580156105c357600080fd5b505af11580156105d7573d6000803e3d6000fd5b505050506040513d601f19601f820116820180604052508101906105fb91906124cf565b5050565b6000818152600260205260408120546001600160a01b031661067d5760405162461bcd60e51b815260206004820152602c60248201527f4552433732313a20617070726f76656420717565727920666f72206e6f6e657860448201526b34b9ba32b73a103a37b5b2b760a11b60648201526084015b60405180910390fd5b506000908152600460205260409020546001600160a01b031690565b60006106a482610d82565b9050806001600160a01b0316836001600160a01b031614156107125760405162461bcd60e51b815260206004820152602160248201527f4552433732313a20617070726f76616c20746f2063757272656e74206f776e656044820152603960f91b6064820152608401610674565b336001600160a01b038216148061072e575061072e8133610456565b6107a05760405162461bcd60e51b815260206004820152603860248201527f4552433732313a20617070726f76652063616c6c6572206973206e6f74206f7760448201527f6e6572206e6f7220617070726f76656420666f7220616c6c00000000000000006064820152608401610674565b6107aa83836114ff565b505050565b600654610100900460ff16806107c8575060065460ff16155b61082b5760405162461bcd60e51b815260206004820152602e60248201527f496e697469616c697a61626c653a20636f6e747261637420697320616c72656160448201526d191e481a5b9a5d1a585b1a5e995960921b6064820152608401610674565b600654610100900460ff1615801561084d576006805461ffff19166101011790555b6001600160a01b0385166108975760405162461bcd60e51b815260206004820152601160248201527024b73b30b634b2102537ba103a37b5b2b760791b6044820152606401610674565b6001600160a01b0384166108e55760405162461bcd60e51b815260206004820152601560248201527424b73b30b634b210333ab73234b733903a37b5b2b760591b6044820152606401610674565b6006805462010000600160b01b031916620100006001600160a01b038881169190910291909117909155600780546001600160a01b03191691861691909117905582516109399060099060208601906121b0565b50815161094d90600a9060208501906121b0565b508015610960576006805461ff00191690555b5050505050565b610971338261156d565b61098d5760405162461bcd60e51b81526004016106749061268d565b6107aa838383611664565b60006109a2611804565b5090503360006109b1826118fb565b90506109bd8184612729565b600b55600d546001600160a01b0383166000908152601260209081526040918290206003019290925580513381529182018390527ffc30cddea38e2bf4d6ea7d3f9ed3b6ad7f176419f4963bd81318067a4aee73fe910160405180910390a160075460405163a9059cbb60e01b8152336004820152602481018390526001600160a01b039091169063a9059cbb90604401602060405180830381600087803b158015610a6857600080fd5b505af1158015610a7c573d6000803e3d6000fd5b505050506040513d601f19601f82011682018060405250810190610aa091906124cf565b50505050565b6000610ab1336118fb565b905090565b6107aa838383604051806020016040528060008152506111b5565b6001600160a01b0381166000908152601260205260408120600101546104d090611949565b60008111610b375760405162461bcd60e51b815260206004820152600e60248201526d125b9d985b1a5908185b5bdd5b9d60921b6044820152606401610674565b60008060085411610b49576064610be1565b6006546040516370a0823160e01b8152306004820152620100009091046001600160a01b0316906370a082319060240160206040518083038186803b158015610b9157600080fd5b505afa158015610ba5573d6000803e3d6000fd5b505050506040513d601f19601f82011682018060405250810190610bc9919061253b565b82600854610bd7919061270a565b610be191906126f6565b33600090815260126020526040812060010180549293508392909190610c089084906126de565b925050819055508060086000828254610c2191906126de565b90915550506040517fac1d76749e5447b7b16f5ab61447e1bd502f3bb4807af3b28e620d1700a6ee4590610c5a90339085908590612607565b60405180910390a1610c6c33836119d2565b6006546105fb906201000090046001600160a01b0316333085611b01565b6006546040516370a0823160e01b815233600482015282916201000090046001600160a01b0316906370a082319060240160206040518083038186803b158015610cd357600080fd5b505afa158015610ce7573d6000803e3d6000fd5b505050506040513d601f19601f82011682018060405250810190610d0b919061253b565b1015610d595760405162461bcd60e51b815260206004820152601860248201527f496e73756666696369656e74204a6f742062616c616e636500000000000000006044820152606401610674565b33610d6481836119d2565b6006546105fb906201000090046001600160a01b0316823085611b01565b6000818152600260205260408120546001600160a01b0316806104d05760405162461bcd60e51b815260206004820152602960248201527f4552433732313a206f776e657220717565727920666f72206e6f6e657869737460448201526832b73a103a37b5b2b760b91b6064820152608401610674565b60006001600160a01b038216610e645760405162461bcd60e51b815260206004820152602a60248201527f4552433732313a2062616c616e636520717565727920666f7220746865207a65604482015269726f206164647265737360b01b6064820152608401610674565b506001600160a01b031660009081526003602052604090205490565b610eab6040518060800160405280600081526020016000815260200160008152602001600081525090565b5033600090815260126020908152604091829020825160808101845281548152600182015492810192909252600281015492820192909252600390910154606082015290565b60006104d082611949565b6060600a80546104e59061276c565b33600090815260126020526040902060010154811115610f6d5760405162461bcd60e51b815260206004820152601d60248201527f52656d6f766520616d6f756e7420657863656564732062616c616e63650000006044820152606401610674565b6008546006546040516370a0823160e01b8152306004820152600092918491620100009091046001600160a01b0316906370a082319060240160206040518083038186803b158015610fbe57600080fd5b505afa158015610fd2573d6000803e3d6000fd5b505050506040513d601f19601f82011682018060405250810190610ff6919061253b565b611000919061270a565b61100a91906126f6565b905060008260085461101c9190612729565b1115611068573360009081526012602052604081206001018054849290611044908490612729565b92505081905550816008600082825461105d9190612729565b9091555061108e9050565b33600090815260126020526040902069152d02c7e14af680000060019091018190556008555b7f96cd817c6329656790ef8fba7675405193677d39619571282f5e21f3a98cd0593383836040516110c193929190612607565b60405180910390a16110d333826112cf565b6006546105fb906201000090046001600160a01b03163383611b6c565b6001600160a01b0382163314156111495760405162461bcd60e51b815260206004820152601960248201527f4552433732313a20617070726f766520746f2063616c6c6572000000000000006044820152606401610674565b3360008181526005602090815260408083206001600160a01b03871680855290835292819020805460ff191686151590811790915590519081529192917f17307eab39ab6107e8899845ad3d59bd9653f200f220920489ca2b5937696c31910160405180910390a35050565b6111bf338361156d565b6111db5760405162461bcd60e51b81526004016106749061268d565b610aa084848484611b9c565b6000818152600260205260409020546060906001600160a01b03166112665760405162461bcd60e51b815260206004820152602f60248201527f4552433732314d657461646174613a2055524920717565727920666f72206e6f60448201526e3732bc34b9ba32b73a103a37b5b2b760891b6064820152608401610674565b600061127d60408051602081019091526000815290565b9050600081511161129d57604051806020016040528060008152506112c8565b806112a784611bcf565b6040516020016112b892919061259b565b6040516020818303038152906040525b9392505050565b6001600160a01b03821660009081526012602052604090206002015481111561133a5760405162461bcd60e51b815260206004820152601a60248201527f496e73756666696369656e74207374616b652062616c616e63650000000000006044820152606401610674565b6000611344611804565b5090506000611352846118fb565b905061135e8183612729565b600b556001600160a01b0384166000908152601260205260409020600201548314156113d8576001600160a01b0384166000908152601260205260409020546113a690611ce9565b6001600160a01b0384166000908152601260205260408120818155600181018290556002810182905560030155611428565b6001600160a01b03841660009081526012602052604081206002018054859290611403908490612729565b9091555050600d546001600160a01b0385166000908152601260205260409020600301555b82600e600082825461143a9190612729565b90915550506040517f7fc4727e062e336010f2c282598ef5f14facb3de68cf8195c2f23e1454b2b74e9061147390339086908590612607565b60405180910390a160075460405163a9059cbb60e01b8152336004820152602481018390526001600160a01b039091169063a9059cbb90604401602060405180830381600087803b1580156114c757600080fd5b505af11580156114db573d6000803e3d6000fd5b505050506040513d601f19601f8201168201806040525081019061096091906124cf565b600081815260046020526040902080546001600160a01b0319166001600160a01b038416908117909155819061153482610d82565b6001600160a01b03167f8c5be1e5ebec7d5bd14f71427d1e84f3dd0314c0f7b2291e5b200ac8c7c3b92560405160405180910390a45050565b6000818152600260205260408120546001600160a01b03166115e65760405162461bcd60e51b815260206004820152602c60248201527f4552433732313a206f70657261746f7220717565727920666f72206e6f6e657860448201526b34b9ba32b73a103a37b5b2b760a11b6064820152608401610674565b60006115f183610d82565b9050806001600160a01b0316846001600160a01b0316148061162c5750836001600160a01b0316611621846105ff565b6001600160a01b0316145b8061165c57506001600160a01b0380821660009081526005602090815260408083209388168352929052205460ff165b949350505050565b826001600160a01b031661167782610d82565b6001600160a01b0316146116df5760405162461bcd60e51b815260206004820152602960248201527f4552433732313a207472616e73666572206f6620746f6b656e2074686174206960448201526839903737ba1037bbb760b91b6064820152608401610674565b6001600160a01b0382166117415760405162461bcd60e51b8152602060048201526024808201527f4552433732313a207472616e7366657220746f20746865207a65726f206164646044820152637265737360e01b6064820152608401610674565b61174c6000826114ff565b6001600160a01b0383166000908152600360205260408120805460019290611775908490612729565b90915550506001600160a01b03821660009081526003602052604081208054600192906117a39084906126de565b909155505060008181526002602052604080822080546001600160a01b0319166001600160a01b0386811691821790925591518493918716917fddf252ad1be2c89b69c2b068fc378daa952ba7f163c4a11628f55a4df523b3ef91a4505050565b6007546040516370a0823160e01b8152306004820152600091829182916001600160a01b0316906370a082319060240160206040518083038186803b15801561184c57600080fd5b505afa158015611860573d6000803e3d6000fd5b505050506040513d601f19601f82011682018060405250810190611884919061253b565b90506000600b54826118969190612729565b9050600e546000146118f257601054600e546118b2919061270a565b600f546118bf908361270a565b6118d190670de0b6b3a764000061270a565b6118db91906126f6565b600d60008282546118ec91906126de565b90915550505b90939092509050565b6001600160a01b03811660009081526012602052604081206002810154600390910154600d54670de0b6b3a7640000929161193591612729565b61193f919061270a565b6104d091906126f6565b6008546006546040516370a0823160e01b8152306004820152600092918491620100009091046001600160a01b0316906370a082319060240160206040518083038186803b15801561199a57600080fd5b505afa1580156119ae573d6000803e3d6000fd5b505050506040513d601f19601f82011682018060405250810190611935919061253b565b6000806119dd611804565b9150915080600c60008282546119f391906126de565b9091555050600b829055600e8054849190600090611a129084906126de565b90915550506001600160a01b03841660009081526012602052604090205480611a6c57611a43601180546001019055565b506011546001600160a01b0385166000908152601260205260409020819055611a6c8582611d84565b6001600160a01b03851660009081526012602052604081206002018054869290611a979084906126de565b9091555050600d546001600160a01b0386166000908152601260205260409081902060030191909155517f1449c6dd7851abc30abf37f57715f492010519147cc2652fbc38202c18a6ee9090611af290339087908590612607565b60405180910390a15050505050565b6040516001600160a01b0380851660248301528316604482015260648101829052610aa09085906323b872dd60e01b906084015b60408051601f198184030181529190526020810180516001600160e01b03166001600160e01b031990931692909217909152611ec6565b6040516001600160a01b0383166024820152604481018290526107aa90849063a9059cbb60e01b90606401611b35565b611ba7848484611664565b611bb384848484611f98565b610aa05760405162461bcd60e51b81526004016106749061263b565b606081611bf35750506040805180820190915260018152600360fc1b602082015290565b8160005b8115611c1d5780611c07816127a7565b9150611c169050600a836126f6565b9150611bf7565b60008167ffffffffffffffff811115611c4657634e487b7160e01b600052604160045260246000fd5b6040519080825280601f01601f191660200182016040528015611c70576020820181803683370190505b5090505b841561165c57611c85600183612729565b9150611c92600a866127c2565b611c9d9060306126de565b60f81b818381518110611cc057634e487b7160e01b600052603260045260246000fd5b60200101906001600160f81b031916908160001a905350611ce2600a866126f6565b9450611c74565b6000611cf482610d82565b9050611d016000836114ff565b6001600160a01b0381166000908152600360205260408120805460019290611d2a908490612729565b909155505060008281526002602052604080822080546001600160a01b0319169055518391906001600160a01b038416907fddf252ad1be2c89b69c2b068fc378daa952ba7f163c4a11628f55a4df523b3ef908390a45050565b6001600160a01b038216611dda5760405162461bcd60e51b815260206004820181905260248201527f4552433732313a206d696e7420746f20746865207a65726f20616464726573736044820152606401610674565b6000818152600260205260409020546001600160a01b031615611e3f5760405162461bcd60e51b815260206004820152601c60248201527f4552433732313a20746f6b656e20616c7265616479206d696e746564000000006044820152606401610674565b6001600160a01b0382166000908152600360205260408120805460019290611e689084906126de565b909155505060008181526002602052604080822080546001600160a01b0319166001600160a01b03861690811790915590518392907fddf252ad1be2c89b69c2b068fc378daa952ba7f163c4a11628f55a4df523b3ef908290a45050565b6000611f1b826040518060400160405280602081526020017f5361666545524332303a206c6f772d6c6576656c2063616c6c206661696c6564815250856001600160a01b03166120a59092919063ffffffff16565b8051909150156107aa5780806020019051810190611f3991906124cf565b6107aa5760405162461bcd60e51b815260206004820152602a60248201527f5361666545524332303a204552433230206f7065726174696f6e20646964206e6044820152691bdd081cdd58d8d9595960b21b6064820152608401610674565b60006001600160a01b0384163b1561209a57604051630a85bd0160e11b81526001600160a01b0385169063150b7a0290611fdc9033908990889088906004016125ca565b602060405180830381600087803b158015611ff657600080fd5b505af1925050508015612026575060408051601f3d908101601f1916820190925261202391810190612507565b60015b612080573d808015612054576040519150601f19603f3d011682016040523d82523d6000602084013e612059565b606091505b5080516120785760405162461bcd60e51b81526004016106749061263b565b805181602001fd5b6001600160e01b031916630a85bd0160e11b14905061165c565b506001949350505050565b606061165c848460008585843b6120fe5760405162461bcd60e51b815260206004820152601d60248201527f416464726573733a2063616c6c20746f206e6f6e2d636f6e74726163740000006044820152606401610674565b600080866001600160a01b0316858760405161211a919061257f565b60006040518083038185875af1925050503d8060008114612157576040519150601f19603f3d011682016040523d82523d6000602084013e61215c565b606091505b509150915061216c828286612177565b979650505050505050565b606083156121865750816112c8565b8251156121965782518084602001fd5b8160405162461bcd60e51b81526004016106749190612628565b8280546121bc9061276c565b90600052602060002090601f0160209004810192826121de5760008555612224565b82601f106121f757805160ff1916838001178555612224565b82800160010185558215612224579182015b82811115612224578251825591602001919060010190612209565b50612230929150612234565b5090565b5b808211156122305760008155600101612235565b600067ffffffffffffffff8084111561226457612264612802565b604051601f8501601f19908116603f0116810190828211818310171561228c5761228c612802565b816040528093508581528686860111156122a557600080fd5b858560208301376000602087830101525050509392505050565b80356001600160a01b03811681146122d657600080fd5b919050565b600082601f8301126122eb578081fd5b6112c883833560208501612249565b60006020828403121561230b578081fd5b6112c8826122bf565b60008060408385031215612326578081fd5b61232f836122bf565b915061233d602084016122bf565b90509250929050565b6000806000806080858703121561235b578182fd5b612364856122bf565b9350612372602086016122bf565b9250604085013567ffffffffffffffff8082111561238e578384fd5b61239a888389016122db565b935060608701359150808211156123af578283fd5b506123bc878288016122db565b91505092959194509250565b6000806000606084860312156123dc578283fd5b6123e5846122bf565b92506123f3602085016122bf565b9150604084013590509250925092565b60008060008060808587031215612418578384fd5b612421856122bf565b935061242f602086016122bf565b925060408501359150606085013567ffffffffffffffff811115612451578182fd5b8501601f81018713612461578182fd5b6123bc87823560208401612249565b60008060408385031215612482578182fd5b61248b836122bf565b9150602083013561249b81612818565b809150509250929050565b600080604083850312156124b8578182fd5b6124c1836122bf565b946020939093013593505050565b6000602082840312156124e0578081fd5b81516112c881612818565b6000602082840312156124fc578081fd5b81356112c881612829565b600060208284031215612518578081fd5b81516112c881612829565b600060208284031215612534578081fd5b5035919050565b60006020828403121561254c578081fd5b5051919050565b6000815180845261256b816020860160208601612740565b601f01601f19169290920160200192915050565b60008251612591818460208701612740565b9190910192915050565b600083516125ad818460208801612740565b8351908301906125c1818360208801612740565b01949350505050565b6001600160a01b03858116825284166020820152604081018390526080606082018190526000906125fd90830184612553565b9695505050505050565b6001600160a01b039390931683526020830191909152604082015260600190565b6020815260006112c86020830184612553565b60208082526032908201527f4552433732313a207472616e7366657220746f206e6f6e20455243373231526560408201527131b2b4bb32b91034b6b83632b6b2b73a32b960711b606082015260800190565b60208082526031908201527f4552433732313a207472616e736665722063616c6c6572206973206e6f74206f6040820152701ddb995c881b9bdc88185c1c1c9bdd9959607a1b606082015260800190565b600082198211156126f1576126f16127d6565b500190565b600082612705576127056127ec565b500490565b6000816000190483118215151615612724576127246127d6565b500290565b60008282101561273b5761273b6127d6565b500390565b60005b8381101561275b578181015183820152602001612743565b83811115610aa05750506000910152565b600181811c9082168061278057607f821691505b602082108114156127a157634e487b7160e01b600052602260045260246000fd5b50919050565b60006000198214156127bb576127bb6127d6565b5060010190565b6000826127d1576127d16127ec565b500690565b634e487b7160e01b600052601160045260246000fd5b634e487b7160e01b600052601260045260246000fd5b634e487b7160e01b600052604160045260246000fd5b801515811461282657600080fd5b50565b6001600160e01b03198116811461282657600080fdfea2646970667358221220a9462f91b893522fac34f80a17ec2f25f40b3a89a474a66d2a2c2dfcb39dbb5164736f6c63430008040033",
  "devdoc": {
    "kind": "dev",
    "methods": {
      "approve(address,uint256)": {
        "details": "See {IERC721-approve}."
      },
      "balanceOf(address)": {
        "details": "See {IERC721-balanceOf}."
      },
      "getApproved(uint256)": {
        "details": "See {IERC721-getApproved}."
      },
      "isApprovedForAll(address,address)": {
        "details": "See {IERC721-isApprovedForAll}."
      },
      "name()": {
        "details": "See {IERC721Metadata-name}."
      },
      "ownerOf(uint256)": {
        "details": "See {IERC721-ownerOf}."
      },
      "safeTransferFrom(address,address,uint256)": {
        "details": "See {IERC721-safeTransferFrom}."
      },
      "safeTransferFrom(address,address,uint256,bytes)": {
        "details": "See {IERC721-safeTransferFrom}."
      },
      "setApprovalForAll(address,bool)": {
        "details": "See {IERC721-setApprovalForAll}."
      },
      "supportsInterface(bytes4)": {
        "details": "See {IERC165-supportsInterface}."
      },
      "symbol()": {
        "details": "See {IERC721Metadata-symbol}."
      },
      "tokenURI(uint256)": {
        "details": "See {IERC721Metadata-tokenURI}."
      },
      "transferFrom(address,address,uint256)": {
        "details": "See {IERC721-transferFrom}."
      }
    },
    "version": 1
  },
  "userdoc": {
    "kind": "user",
    "methods": {},
    "version": 1
  },
  "storageLayout": {
    "storage": [
      {
        "astId": 7308,
        "contract": "contracts/polygon/implementations/JotPool.sol:JotPool",
        "label": "_name",
        "offset": 0,
        "slot": "0",
        "type": "t_string_storage"
      },
      {
        "astId": 7310,
        "contract": "contracts/polygon/implementations/JotPool.sol:JotPool",
        "label": "_symbol",
        "offset": 0,
        "slot": "1",
        "type": "t_string_storage"
      },
      {
        "astId": 7314,
        "contract": "contracts/polygon/implementations/JotPool.sol:JotPool",
        "label": "_owners",
        "offset": 0,
        "slot": "2",
        "type": "t_mapping(t_uint256,t_address)"
      },
      {
        "astId": 7318,
        "contract": "contracts/polygon/implementations/JotPool.sol:JotPool",
        "label": "_balances",
        "offset": 0,
        "slot": "3",
        "type": "t_mapping(t_address,t_uint256)"
      },
      {
        "astId": 7322,
        "contract": "contracts/polygon/implementations/JotPool.sol:JotPool",
        "label": "_tokenApprovals",
        "offset": 0,
        "slot": "4",
        "type": "t_mapping(t_uint256,t_address)"
      },
      {
        "astId": 7328,
        "contract": "contracts/polygon/implementations/JotPool.sol:JotPool",
        "label": "_operatorApprovals",
        "offset": 0,
        "slot": "5",
        "type": "t_mapping(t_address,t_mapping(t_address,t_bool))"
      },
      {
        "astId": 5456,
        "contract": "contracts/polygon/implementations/JotPool.sol:JotPool",
        "label": "_initialized",
        "offset": 0,
        "slot": "6",
        "type": "t_bool"
      },
      {
        "astId": 5459,
        "contract": "contracts/polygon/implementations/JotPool.sol:JotPool",
        "label": "_initializing",
        "offset": 1,
        "slot": "6",
        "type": "t_bool"
      },
      {
        "astId": 19648,
        "contract": "contracts/polygon/implementations/JotPool.sol:JotPool",
        "label": "jot",
        "offset": 2,
        "slot": "6",
        "type": "t_address"
      },
      {
        "astId": 19650,
        "contract": "contracts/polygon/implementations/JotPool.sol:JotPool",
        "label": "fundingToken",
        "offset": 0,
        "slot": "7",
        "type": "t_address"
      },
      {
        "astId": 19655,
        "contract": "contracts/polygon/implementations/JotPool.sol:JotPool",
        "label": "totalLiquidity",
        "offset": 0,
        "slot": "8",
        "type": "t_uint256"
      },
      {
        "astId": 19657,
        "contract": "contracts/polygon/implementations/JotPool.sol:JotPool",
        "label": "_proxyName",
        "offset": 0,
        "slot": "9",
        "type": "t_string_storage"
      },
      {
        "astId": 19659,
        "contract": "contracts/polygon/implementations/JotPool.sol:JotPool",
        "label": "_proxySymbol",
        "offset": 0,
        "slot": "10",
        "type": "t_string_storage"
      },
      {
        "astId": 19661,
        "contract": "contracts/polygon/implementations/JotPool.sol:JotPool",
        "label": "lastReward",
        "offset": 0,
        "slot": "11",
        "type": "t_uint256"
      },
      {
        "astId": 19663,
        "contract": "contracts/polygon/implementations/JotPool.sol:JotPool",
        "label": "cumulativeRevenue",
        "offset": 0,
        "slot": "12",
        "type": "t_uint256"
      },
      {
        "astId": 19665,
        "contract": "contracts/polygon/implementations/JotPool.sol:JotPool",
        "label": "totalShares",
        "offset": 0,
        "slot": "13",
        "type": "t_uint256"
      },
      {
        "astId": 19667,
        "contract": "contracts/polygon/implementations/JotPool.sol:JotPool",
        "label": "totalStaked",
        "offset": 0,
        "slot": "14",
        "type": "t_uint256"
      },
      {
        "astId": 19670,
        "contract": "contracts/polygon/implementations/JotPool.sol:JotPool",
        "label": "stakerShare",
        "offset": 0,
        "slot": "15",
        "type": "t_uint256"
      },
      {
        "astId": 19673,
        "contract": "contracts/polygon/implementations/JotPool.sol:JotPool",
        "label": "stakerShareDenominator",
        "offset": 0,
        "slot": "16",
        "type": "t_uint256"
      },
      {
        "astId": 19676,
        "contract": "contracts/polygon/implementations/JotPool.sol:JotPool",
        "label": "idGen",
        "offset": 0,
        "slot": "17",
        "type": "t_struct(Counter)8584_storage"
      },
      {
        "astId": 19681,
        "contract": "contracts/polygon/implementations/JotPool.sol:JotPool",
        "label": "positions",
        "offset": 0,
        "slot": "18",
        "type": "t_mapping(t_address,t_struct(Position)19646_storage)"
      }
    ],
    "types": {
      "t_address": {
        "encoding": "inplace",
        "label": "address",
        "numberOfBytes": "20"
      },
      "t_bool": {
        "encoding": "inplace",
        "label": "bool",
        "numberOfBytes": "1"
      },
      "t_mapping(t_address,t_bool)": {
        "encoding": "mapping",
        "key": "t_address",
        "label": "mapping(address => bool)",
        "numberOfBytes": "32",
        "value": "t_bool"
      },
      "t_mapping(t_address,t_mapping(t_address,t_bool))": {
        "encoding": "mapping",
        "key": "t_address",
        "label": "mapping(address => mapping(address => bool))",
        "numberOfBytes": "32",
        "value": "t_mapping(t_address,t_bool)"
      },
      "t_mapping(t_address,t_struct(Position)19646_storage)": {
        "encoding": "mapping",
        "key": "t_address",
        "label": "mapping(address => struct JotPool.Position)",
        "numberOfBytes": "32",
        "value": "t_struct(Position)19646_storage"
      },
      "t_mapping(t_address,t_uint256)": {
        "encoding": "mapping",
        "key": "t_address",
        "label": "mapping(address => uint256)",
        "numberOfBytes": "32",
        "value": "t_uint256"
      },
      "t_mapping(t_uint256,t_address)": {
        "encoding": "mapping",
        "key": "t_uint256",
        "label": "mapping(uint256 => address)",
        "numberOfBytes": "32",
        "value": "t_address"
      },
      "t_string_storage": {
        "encoding": "bytes",
        "label": "string",
        "numberOfBytes": "32"
      },
      "t_struct(Counter)8584_storage": {
        "encoding": "inplace",
        "label": "struct Counters.Counter",
        "members": [
          {
            "astId": 8583,
            "contract": "contracts/polygon/implementations/JotPool.sol:JotPool",
            "label": "_value",
            "offset": 0,
            "slot": "0",
            "type": "t_uint256"
          }
        ],
        "numberOfBytes": "32"
      },
      "t_struct(Position)19646_storage": {
        "encoding": "inplace",
        "label": "struct JotPool.Position",
        "members": [
          {
            "astId": 19639,
            "contract": "contracts/polygon/implementations/JotPool.sol:JotPool",
            "label": "id",
            "offset": 0,
            "slot": "0",
            "type": "t_uint256"
          },
          {
            "astId": 19641,
            "contract": "contracts/polygon/implementations/JotPool.sol:JotPool",
            "label": "liquidity",
            "offset": 0,
            "slot": "1",
            "type": "t_uint256"
          },
          {
            "astId": 19643,
            "contract": "contracts/polygon/implementations/JotPool.sol:JotPool",
            "label": "stake",
            "offset": 0,
            "slot": "2",
            "type": "t_uint256"
          },
          {
            "astId": 19645,
            "contract": "contracts/polygon/implementations/JotPool.sol:JotPool",
            "label": "totalShares",
            "offset": 0,
            "slot": "3",
            "type": "t_uint256"
          }
        ],
        "numberOfBytes": "128"
      },
      "t_uint256": {
        "encoding": "inplace",
        "label": "uint256",
        "numberOfBytes": "32"
      }
    }
  }
}