{
  "address": "0x1Bc4bffdAaEe267ba7EaD780BF8293aA0759Dd60",
  "abi": [
    {
      "inputs": [
        {
          "internalType": "address",
          "name": "_protocol",
          "type": "address"
        }
      ],
      "stateMutability": "nonpayable",
      "type": "constructor"
    },
    {
      "anonymous": false,
      "inputs": [
        {
          "indexed": true,
          "internalType": "address",
          "name": "owner",
          "type": "address"
        },
        {
          "indexed": true,
          "internalType": "address",
          "name": "approved",
          "type": "address"
        },
        {
          "indexed": true,
          "internalType": "uint256",
          "name": "tokenId",
          "type": "uint256"
        }
      ],
      "name": "Approval",
      "type": "event"
    },
    {
      "anonymous": false,
      "inputs": [
        {
          "indexed": true,
          "internalType": "address",
          "name": "owner",
          "type": "address"
        },
        {
          "indexed": true,
          "internalType": "address",
          "name": "operator",
          "type": "address"
        },
        {
          "indexed": false,
          "internalType": "bool",
          "name": "approved",
          "type": "bool"
        }
      ],
      "name": "ApprovalForAll",
      "type": "event"
    },
    {
      "anonymous": false,
      "inputs": [
        {
          "indexed": false,
          "internalType": "address",
          "name": "provider",
          "type": "address"
        },
        {
          "indexed": false,
          "internalType": "uint256",
          "name": "amount",
          "type": "uint256"
        },
        {
          "indexed": false,
          "internalType": "uint256",
          "name": "mintedLiquidity",
          "type": "uint256"
        }
      ],
      "name": "LiquidityAdded",
      "type": "event"
    },
    {
      "anonymous": false,
      "inputs": [
        {
          "indexed": false,
          "internalType": "address",
          "name": "provider",
          "type": "address"
        },
        {
          "indexed": false,
          "internalType": "uint256",
          "name": "amount",
          "type": "uint256"
        },
        {
          "indexed": false,
          "internalType": "uint256",
          "name": "liquidityBurnt",
          "type": "uint256"
        }
      ],
      "name": "LiquidityRemoved",
      "type": "event"
    },
    {
      "anonymous": false,
      "inputs": [
        {
          "indexed": false,
          "internalType": "address",
          "name": "recipient",
          "type": "address"
        },
        {
          "indexed": false,
          "internalType": "uint256",
          "name": "reward",
          "type": "uint256"
        }
      ],
      "name": "RewardsClaimed",
      "type": "event"
    },
    {
      "anonymous": false,
      "inputs": [
        {
          "indexed": false,
          "internalType": "address",
          "name": "staker",
          "type": "address"
        },
        {
          "indexed": false,
          "internalType": "uint256",
          "name": "amount",
          "type": "uint256"
        },
        {
          "indexed": false,
          "internalType": "uint256",
          "name": "positionId",
          "type": "uint256"
        }
      ],
      "name": "Staked",
      "type": "event"
    },
    {
      "anonymous": false,
      "inputs": [
        {
          "indexed": true,
          "internalType": "address",
          "name": "from",
          "type": "address"
        },
        {
          "indexed": true,
          "internalType": "address",
          "name": "to",
          "type": "address"
        },
        {
          "indexed": true,
          "internalType": "uint256",
          "name": "tokenId",
          "type": "uint256"
        }
      ],
      "name": "Transfer",
      "type": "event"
    },
    {
      "anonymous": false,
      "inputs": [
        {
          "indexed": false,
          "internalType": "address",
          "name": "recipient",
          "type": "address"
        },
        {
          "indexed": false,
          "internalType": "uint256",
          "name": "amount",
          "type": "uint256"
        },
        {
          "indexed": false,
          "internalType": "uint256",
          "name": "reward",
          "type": "uint256"
        }
      ],
      "name": "Unstaked",
      "type": "event"
    },
    {
      "inputs": [
        {
          "internalType": "uint256",
          "name": "amount",
          "type": "uint256"
        }
      ],
      "name": "addLiquidity",
      "outputs": [],
      "stateMutability": "nonpayable",
      "type": "function"
    },
    {
      "inputs": [
        {
          "internalType": "address",
          "name": "to",
          "type": "address"
        },
        {
          "internalType": "uint256",
          "name": "tokenId",
          "type": "uint256"
        }
      ],
      "name": "approve",
      "outputs": [],
      "stateMutability": "nonpayable",
      "type": "function"
    },
    {
      "inputs": [
        {
          "internalType": "address",
          "name": "owner",
          "type": "address"
        }
      ],
      "name": "balanceOf",
      "outputs": [
        {
          "internalType": "uint256",
          "name": "",
          "type": "uint256"
        }
      ],
      "stateMutability": "view",
      "type": "function"
    },
    {
      "inputs": [],
      "name": "claimRewards",
      "outputs": [],
      "stateMutability": "nonpayable",
      "type": "function"
    },
    {
      "inputs": [],
      "name": "cumulativeRevenue",
      "outputs": [
        {
          "internalType": "uint256",
          "name": "",
          "type": "uint256"
        }
      ],
      "stateMutability": "view",
      "type": "function"
    },
    {
      "inputs": [],
      "name": "fundingToken",
      "outputs": [
        {
          "internalType": "address",
          "name": "",
          "type": "address"
        }
      ],
      "stateMutability": "view",
      "type": "function"
    },
    {
      "inputs": [
        {
          "internalType": "uint256",
          "name": "tokenId",
          "type": "uint256"
        }
      ],
      "name": "getApproved",
      "outputs": [
        {
          "internalType": "address",
          "name": "",
          "type": "address"
        }
      ],
      "stateMutability": "view",
      "type": "function"
    },
    {
      "inputs": [
        {
          "internalType": "uint256",
          "name": "amount",
          "type": "uint256"
        }
      ],
      "name": "getLiquidityValue",
      "outputs": [
        {
          "internalType": "uint256",
          "name": "",
          "type": "uint256"
        }
      ],
      "stateMutability": "view",
      "type": "function"
    },
    {
      "inputs": [],
      "name": "getPosition",
      "outputs": [
        {
          "components": [
            {
              "internalType": "uint256",
              "name": "id",
              "type": "uint256"
            },
            {
              "internalType": "uint256",
              "name": "liquidity",
              "type": "uint256"
            },
            {
              "internalType": "uint256",
              "name": "stake",
              "type": "uint256"
            },
            {
              "internalType": "uint256",
              "name": "totalShares",
              "type": "uint256"
            }
          ],
          "internalType": "struct JotPool.Position",
          "name": "",
          "type": "tuple"
        }
      ],
      "stateMutability": "view",
      "type": "function"
    },
    {
      "inputs": [],
      "name": "getReward",
      "outputs": [
        {
          "internalType": "uint256",
          "name": "reward",
          "type": "uint256"
        }
      ],
      "stateMutability": "view",
      "type": "function"
    },
    {
      "inputs": [
        {
          "internalType": "address",
          "name": "owner",
          "type": "address"
        }
      ],
      "name": "getTotalLiquidityValue",
      "outputs": [
        {
          "internalType": "uint256",
          "name": "",
          "type": "uint256"
        }
      ],
      "stateMutability": "view",
      "type": "function"
    },
    {
      "inputs": [
        {
          "internalType": "address",
          "name": "_jot",
          "type": "address"
        },
        {
          "internalType": "address",
          "name": "_fundingToken",
          "type": "address"
        },
        {
          "internalType": "string",
          "name": "_name",
          "type": "string"
        },
        {
          "internalType": "string",
          "name": "_symbol",
          "type": "string"
        }
      ],
      "name": "initialize",
      "outputs": [],
      "stateMutability": "nonpayable",
      "type": "function"
    },
    {
      "inputs": [
        {
          "internalType": "address",
          "name": "owner",
          "type": "address"
        },
        {
          "internalType": "address",
          "name": "operator",
          "type": "address"
        }
      ],
      "name": "isApprovedForAll",
      "outputs": [
        {
          "internalType": "bool",
          "name": "",
          "type": "bool"
        }
      ],
      "stateMutability": "view",
      "type": "function"
    },
    {
      "inputs": [],
      "name": "jot",
      "outputs": [
        {
          "internalType": "address",
          "name": "",
          "type": "address"
        }
      ],
      "stateMutability": "view",
      "type": "function"
    },
    {
      "inputs": [],
      "name": "lastReward",
      "outputs": [
        {
          "internalType": "uint256",
          "name": "",
          "type": "uint256"
        }
      ],
      "stateMutability": "view",
      "type": "function"
    },
    {
      "inputs": [],
      "name": "name",
      "outputs": [
        {
          "internalType": "string",
          "name": "",
          "type": "string"
        }
      ],
      "stateMutability": "view",
      "type": "function"
    },
    {
      "inputs": [
        {
          "internalType": "uint256",
          "name": "tokenId",
          "type": "uint256"
        }
      ],
      "name": "ownerOf",
      "outputs": [
        {
          "internalType": "address",
          "name": "",
          "type": "address"
        }
      ],
      "stateMutability": "view",
      "type": "function"
    },
    {
      "inputs": [
        {
          "internalType": "uint256",
          "name": "amount",
          "type": "uint256"
        }
      ],
      "name": "removeLiquidity",
      "outputs": [],
      "stateMutability": "nonpayable",
      "type": "function"
    },
    {
      "inputs": [
        {
          "internalType": "address",
          "name": "from",
          "type": "address"
        },
        {
          "internalType": "address",
          "name": "to",
          "type": "address"
        },
        {
          "internalType": "uint256",
          "name": "tokenId",
          "type": "uint256"
        }
      ],
      "name": "safeTransferFrom",
      "outputs": [],
      "stateMutability": "nonpayable",
      "type": "function"
    },
    {
      "inputs": [
        {
          "internalType": "address",
          "name": "from",
          "type": "address"
        },
        {
          "internalType": "address",
          "name": "to",
          "type": "address"
        },
        {
          "internalType": "uint256",
          "name": "tokenId",
          "type": "uint256"
        },
        {
          "internalType": "bytes",
          "name": "_data",
          "type": "bytes"
        }
      ],
      "name": "safeTransferFrom",
      "outputs": [],
      "stateMutability": "nonpayable",
      "type": "function"
    },
    {
      "inputs": [
        {
          "internalType": "address",
          "name": "operator",
          "type": "address"
        },
        {
          "internalType": "bool",
          "name": "approved",
          "type": "bool"
        }
      ],
      "name": "setApprovalForAll",
      "outputs": [],
      "stateMutability": "nonpayable",
      "type": "function"
    },
    {
      "inputs": [
        {
          "internalType": "uint256",
          "name": "amount",
          "type": "uint256"
        }
      ],
      "name": "stakeShares",
      "outputs": [],
      "stateMutability": "nonpayable",
      "type": "function"
    },
    {
      "inputs": [
        {
          "internalType": "bytes4",
          "name": "interfaceId",
          "type": "bytes4"
        }
      ],
      "name": "supportsInterface",
      "outputs": [
        {
          "internalType": "bool",
          "name": "",
          "type": "bool"
        }
      ],
      "stateMutability": "view",
      "type": "function"
    },
    {
      "inputs": [],
      "name": "symbol",
      "outputs": [
        {
          "internalType": "string",
          "name": "",
          "type": "string"
        }
      ],
      "stateMutability": "view",
      "type": "function"
    },
    {
      "inputs": [
        {
          "internalType": "uint256",
          "name": "tokenId",
          "type": "uint256"
        }
      ],
      "name": "tokenURI",
      "outputs": [
        {
          "internalType": "string",
          "name": "",
          "type": "string"
        }
      ],
      "stateMutability": "view",
      "type": "function"
    },
    {
      "inputs": [],
      "name": "totalLiquidity",
      "outputs": [
        {
          "internalType": "uint256",
          "name": "",
          "type": "uint256"
        }
      ],
      "stateMutability": "view",
      "type": "function"
    },
    {
      "inputs": [],
      "name": "totalShares",
      "outputs": [
        {
          "internalType": "uint256",
          "name": "",
          "type": "uint256"
        }
      ],
      "stateMutability": "view",
      "type": "function"
    },
    {
      "inputs": [],
      "name": "totalStaked",
      "outputs": [
        {
          "internalType": "uint256",
          "name": "",
          "type": "uint256"
        }
      ],
      "stateMutability": "view",
      "type": "function"
    },
    {
      "inputs": [
        {
          "internalType": "address",
          "name": "from",
          "type": "address"
        },
        {
          "internalType": "address",
          "name": "to",
          "type": "address"
        },
        {
          "internalType": "uint256",
          "name": "tokenId",
          "type": "uint256"
        }
      ],
      "name": "transferFrom",
      "outputs": [],
      "stateMutability": "nonpayable",
      "type": "function"
    },
    {
      "inputs": [
        {
          "internalType": "uint256",
          "name": "amount",
          "type": "uint256"
        }
      ],
      "name": "unstakeShares",
      "outputs": [],
      "stateMutability": "nonpayable",
      "type": "function"
    }
  ],
  "transactionHash": "0x3567cd1d472231fc8eb93047f4e4a599c9211f26597ee636297c1939cd2a56c9",
  "args": [
    "0x80DF795d858d91D1783E80C1bcBB580B87DEa2A6"
  ],
  "solcInputHash": "0cc6fa82c0eeb27ece16b294b847bb89",
  "bytecode": "0x60a06040523480156200001157600080fd5b5060405162002ab838038062002ab8833981016040819052620000349162000193565b6040805160208082018084526000808452845192830190945283825282519293919262000063929190620000ed565b50805162000079906001906020840190620000ed565b5050506001600160a01b038116620000d75760405162461bcd60e51b815260206004820152601860248201527f496e76616c69642070726f746f636f6c20616464726573730000000000000000604482015260640160405180910390fd5b60601b6001600160601b03191660805262000200565b828054620000fb90620001c3565b90600052602060002090601f0160209004810192826200011f57600085556200016a565b82601f106200013a57805160ff19168380011785556200016a565b828001600101855582156200016a579182015b828111156200016a5782518255916020019190600101906200014d565b50620001789291506200017c565b5090565b5b808211156200017857600081556001016200017d565b600060208284031215620001a5578081fd5b81516001600160a01b0381168114620001bc578182fd5b9392505050565b600181811c90821680620001d857607f821691505b60208210811415620001fa57634e487b7160e01b600052602260045260246000fd5b50919050565b60805160601c6128996200021f600039600061184101526128996000f3fe608060405234801561001057600080fd5b50600436106101da5760003560e01c80636352211e11610104578063817b1cd2116100a2578063b88d4fde11610071578063b88d4fde146103f1578063c87b56dd14610404578063c9b1714914610417578063e985e9c51461042057600080fd5b8063817b1cd2146103ba57806395d89b41146103c35780639c8f9f23146103cb578063a22cb465146103de57600080fd5b80637398ab18116100de5780637398ab18146103405780637640482f1461037b57806378065f271461038e578063808cfb5d146103a157600080fd5b80636352211e1461031157806370a0823114610324578063724fcd011461033757600080fd5b806323b872dd1161017c57806342842e0e1161014b57806342842e0e146102c5578063460ea58a146102d857806351c6590a146102eb578063569c426b146102fe57600080fd5b806323b872dd14610299578063372500ab146102ac5780633a98ef39146102b45780633d18b912146102bd57600080fd5b8063081812fc116101b8578063081812fc14610231578063095ea7b31461025c57806315770f921461026f5780632016a0d21461028657600080fd5b806301ffc9a7146101df57806306fdde03146102075780630775ffe51461021c575b600080fd5b6101f26101ed36600461250f565b61045c565b60405190151581526020015b60405180910390f35b61020f6104ae565b6040516101fe919061264c565b61022f61022a366004612547565b610540565b005b61024461023f366004612547565b6105d7565b6040516001600160a01b0390911681526020016101fe565b61022f61026a3660046124ca565b610671565b61027860085481565b6040519081526020016101fe565b61022f61029436600461236a565b610787565b61022f6102a73660046123ec565b61093f565b61022f610970565b610278600b5481565b610278610a7e565b61022f6102d33660046123ec565b610a8e565b6102786102e636600461231e565b610aa9565b61022f6102f9366004612547565b610ace565b61022f61030c366004612547565b610c62565b61024461031f366004612547565b610d5a565b61027861033236600461231e565b610dd1565b610278600a5481565b610348610e58565b6040516101fe91908151815260208083015190820152604080830151908201526060918201519181019190915260800190565b610278610389366004612547565b610ec9565b600754610244906001600160a01b031681565b600654610244906201000090046001600160a01b031681565b610278600c5481565b61020f610ed4565b61022f6103d9366004612547565b610ee3565b61022f6103ec366004612494565b61108a565b61022f6103ff366004612427565b61114f565b61020f610412366004612547565b611181565b61027860095481565b6101f261042e366004612338565b6001600160a01b03918216600090815260056020908152604080832093909416825291909152205460ff1690565b60006001600160e01b031982166380ac58cd60e01b148061048d57506001600160e01b03198216635b5e139f60e01b145b806104a857506301ffc9a760e01b6001600160e01b03198316145b92915050565b6060600d80546104bd90612790565b80601f01602080910402602001604051908101604052809291908181526020018280546104e990612790565b80156105365780601f1061050b57610100808354040283529160200191610536565b820191906000526020600020905b81548152906001019060200180831161051957829003601f168201915b5050505050905090565b61054a3382611269565b60065460405163a9059cbb60e01b815233600482015260248101839052620100009091046001600160a01b03169063a9059cbb90604401602060405180830381600087803b15801561059b57600080fd5b505af11580156105af573d6000803e3d6000fd5b505050506040513d601f19601f820116820180604052508101906105d391906124f3565b5050565b6000818152600260205260408120546001600160a01b03166106555760405162461bcd60e51b815260206004820152602c60248201527f4552433732313a20617070726f76656420717565727920666f72206e6f6e657860448201526b34b9ba32b73a103a37b5b2b760a11b60648201526084015b60405180910390fd5b506000908152600460205260409020546001600160a01b031690565b600061067c82610d5a565b9050806001600160a01b0316836001600160a01b031614156106ea5760405162461bcd60e51b815260206004820152602160248201527f4552433732313a20617070726f76616c20746f2063757272656e74206f776e656044820152603960f91b606482015260840161064c565b336001600160a01b03821614806107065750610706813361042e565b6107785760405162461bcd60e51b815260206004820152603860248201527f4552433732313a20617070726f76652063616c6c6572206973206e6f74206f7760448201527f6e6572206e6f7220617070726f76656420666f7220616c6c0000000000000000606482015260840161064c565b6107828383611499565b505050565b600654610100900460ff16806107a0575060065460ff16155b6108035760405162461bcd60e51b815260206004820152602e60248201527f496e697469616c697a61626c653a20636f6e747261637420697320616c72656160448201526d191e481a5b9a5d1a585b1a5e995960921b606482015260840161064c565b600654610100900460ff16158015610825576006805461ffff19166101011790555b6001600160a01b03851661086f5760405162461bcd60e51b815260206004820152601160248201527024b73b30b634b2102537ba103a37b5b2b760791b604482015260640161064c565b6001600160a01b0384166108bd5760405162461bcd60e51b815260206004820152601560248201527424b73b30b634b210333ab73234b733903a37b5b2b760591b604482015260640161064c565b6006805462010000600160b01b031916620100006001600160a01b038881169190910291909117909155600780546001600160a01b031916918616919091179055825161091190600d9060208601906121d4565b50815161092590600e9060208501906121d4565b508015610938576006805461ff00191690555b5050505050565b6109493382611507565b6109655760405162461bcd60e51b815260040161064c906126b1565b6107828383836115fe565b600061097a61179e565b50905033600061098982611904565b9050610995818461274d565b600955600b546001600160a01b0383166000908152601060209081526040918290206003019290925580513381529182018390527ffc30cddea38e2bf4d6ea7d3f9ed3b6ad7f176419f4963bd81318067a4aee73fe910160405180910390a160075460405163a9059cbb60e01b8152336004820152602481018390526001600160a01b039091169063a9059cbb90604401602060405180830381600087803b158015610a4057600080fd5b505af1158015610a54573d6000803e3d6000fd5b505050506040513d601f19601f82011682018060405250810190610a7891906124f3565b50505050565b6000610a8933611904565b905090565b6107828383836040518060200160405280600081525061114f565b6001600160a01b0381166000908152601060205260408120600101546104a890611952565b60008111610b0f5760405162461bcd60e51b815260206004820152600e60248201526d125b9d985b1a5908185b5bdd5b9d60921b604482015260640161064c565b60008060085411610b21576064610bb9565b6006546040516370a0823160e01b8152306004820152620100009091046001600160a01b0316906370a082319060240160206040518083038186803b158015610b6957600080fd5b505afa158015610b7d573d6000803e3d6000fd5b505050506040513d601f19601f82011682018060405250810190610ba1919061255f565b82600854610baf919061272e565b610bb9919061271a565b33600090815260106020526040812060010180549293508392909190610be0908490612702565b925050819055508060086000828254610bf99190612702565b90915550506040517fac1d76749e5447b7b16f5ab61447e1bd502f3bb4807af3b28e620d1700a6ee4590610c329033908590859061262b565b60405180910390a1610c4433836119f6565b6006546105d3906201000090046001600160a01b0316333085611b25565b6006546040516370a0823160e01b815233600482015282916201000090046001600160a01b0316906370a082319060240160206040518083038186803b158015610cab57600080fd5b505afa158015610cbf573d6000803e3d6000fd5b505050506040513d601f19601f82011682018060405250810190610ce3919061255f565b1015610d315760405162461bcd60e51b815260206004820152601860248201527f496e73756666696369656e74204a6f742062616c616e63650000000000000000604482015260640161064c565b33610d3c81836119f6565b6006546105d3906201000090046001600160a01b0316823085611b25565b6000818152600260205260408120546001600160a01b0316806104a85760405162461bcd60e51b815260206004820152602960248201527f4552433732313a206f776e657220717565727920666f72206e6f6e657869737460448201526832b73a103a37b5b2b760b91b606482015260840161064c565b60006001600160a01b038216610e3c5760405162461bcd60e51b815260206004820152602a60248201527f4552433732313a2062616c616e636520717565727920666f7220746865207a65604482015269726f206164647265737360b01b606482015260840161064c565b506001600160a01b031660009081526003602052604090205490565b610e836040518060800160405280600081526020016000815260200160008152602001600081525090565b5033600090815260106020908152604091829020825160808101845281548152600182015492810192909252600281015492820192909252600390910154606082015290565b60006104a882611952565b6060600e80546104bd90612790565b33600090815260106020526040902060010154811115610f455760405162461bcd60e51b815260206004820152601d60248201527f52656d6f766520616d6f756e7420657863656564732062616c616e6365000000604482015260640161064c565b6008546006546040516370a0823160e01b8152306004820152600092918491620100009091046001600160a01b0316906370a082319060240160206040518083038186803b158015610f9657600080fd5b505afa158015610faa573d6000803e3d6000fd5b505050506040513d601f19601f82011682018060405250810190610fce919061255f565b610fd8919061272e565b610fe2919061271a565b3360009081526010602052604081206001018054929350849290919061100990849061274d565b925050819055508160086000828254611022919061274d565b90915550506040517f96cd817c6329656790ef8fba7675405193677d39619571282f5e21f3a98cd0599061105b9033908590859061262b565b60405180910390a161106d3382611269565b6006546105d3906201000090046001600160a01b03163383611b90565b6001600160a01b0382163314156110e35760405162461bcd60e51b815260206004820152601960248201527f4552433732313a20617070726f766520746f2063616c6c657200000000000000604482015260640161064c565b3360008181526005602090815260408083206001600160a01b03871680855290835292819020805460ff191686151590811790915590519081529192917f17307eab39ab6107e8899845ad3d59bd9653f200f220920489ca2b5937696c31910160405180910390a35050565b6111593383611507565b6111755760405162461bcd60e51b815260040161064c906126b1565b610a7884848484611bc0565b6000818152600260205260409020546060906001600160a01b03166112005760405162461bcd60e51b815260206004820152602f60248201527f4552433732314d657461646174613a2055524920717565727920666f72206e6f60448201526e3732bc34b9ba32b73a103a37b5b2b760891b606482015260840161064c565b600061121760408051602081019091526000815290565b905060008151116112375760405180602001604052806000815250611262565b8061124184611bf3565b6040516020016112529291906125bf565b6040516020818303038152906040525b9392505050565b6001600160a01b0382166000908152601060205260409020600201548111156112d45760405162461bcd60e51b815260206004820152601a60248201527f496e73756666696369656e74207374616b652062616c616e6365000000000000604482015260640161064c565b60006112de61179e565b50905060006112ec84611904565b90506112f8818361274d565b6009556001600160a01b038416600090815260106020526040902060020154831415611372576001600160a01b03841660009081526010602052604090205461134090611d0d565b6001600160a01b03841660009081526010602052604081208181556001810182905560028101829055600301556113c2565b6001600160a01b0384166000908152601060205260408120600201805485929061139d90849061274d565b9091555050600b546001600160a01b0385166000908152601060205260409020600301555b82600c60008282546113d4919061274d565b90915550506040517f7fc4727e062e336010f2c282598ef5f14facb3de68cf8195c2f23e1454b2b74e9061140d9033908690859061262b565b60405180910390a160075460405163a9059cbb60e01b8152336004820152602481018390526001600160a01b039091169063a9059cbb90604401602060405180830381600087803b15801561146157600080fd5b505af1158015611475573d6000803e3d6000fd5b505050506040513d601f19601f8201168201806040525081019061093891906124f3565b600081815260046020526040902080546001600160a01b0319166001600160a01b03841690811790915581906114ce82610d5a565b6001600160a01b03167f8c5be1e5ebec7d5bd14f71427d1e84f3dd0314c0f7b2291e5b200ac8c7c3b92560405160405180910390a45050565b6000818152600260205260408120546001600160a01b03166115805760405162461bcd60e51b815260206004820152602c60248201527f4552433732313a206f70657261746f7220717565727920666f72206e6f6e657860448201526b34b9ba32b73a103a37b5b2b760a11b606482015260840161064c565b600061158b83610d5a565b9050806001600160a01b0316846001600160a01b031614806115c65750836001600160a01b03166115bb846105d7565b6001600160a01b0316145b806115f657506001600160a01b0380821660009081526005602090815260408083209388168352929052205460ff165b949350505050565b826001600160a01b031661161182610d5a565b6001600160a01b0316146116795760405162461bcd60e51b815260206004820152602960248201527f4552433732313a207472616e73666572206f6620746f6b656e2074686174206960448201526839903737ba1037bbb760b91b606482015260840161064c565b6001600160a01b0382166116db5760405162461bcd60e51b8152602060048201526024808201527f4552433732313a207472616e7366657220746f20746865207a65726f206164646044820152637265737360e01b606482015260840161064c565b6116e6600082611499565b6001600160a01b038316600090815260036020526040812080546001929061170f90849061274d565b90915550506001600160a01b038216600090815260036020526040812080546001929061173d908490612702565b909155505060008181526002602052604080822080546001600160a01b0319166001600160a01b0386811691821790925591518493918716917fddf252ad1be2c89b69c2b068fc378daa952ba7f163c4a11628f55a4df523b3ef91a4505050565b6007546040516370a0823160e01b8152306004820152600091829182916001600160a01b0316906370a082319060240160206040518083038186803b1580156117e657600080fd5b505afa1580156117fa573d6000803e3d6000fd5b505050506040513d601f19601f8201168201806040525081019061181e919061255f565b9050600060095482611830919061274d565b9050600c546000146118fb57600c547f00000000000000000000000000000000000000000000000000000000000000006001600160a01b0316635af720796040518163ffffffff1660e01b815260040160206040518083038186803b15801561189857600080fd5b505afa1580156118ac573d6000803e3d6000fd5b505050506040513d601f19601f820116820180604052508101906118d0919061255f565b6118da908361272e565b6118e4919061271a565b600b60008282546118f59190612702565b90915550505b90939092509050565b6001600160a01b03811660009081526010602052604081206002810154600390910154600b54670de0b6b3a7640000929161193e9161274d565b611948919061272e565b6104a8919061271a565b6000808211801561196557506000600854115b156119ee576008546006546040516370a0823160e01b815230600482015284916201000090046001600160a01b0316906370a082319060240160206040518083038186803b1580156119b657600080fd5b505afa1580156119ca573d6000803e3d6000fd5b505050506040513d601f19601f8201168201806040525081019061193e919061255f565b506000919050565b600080611a0161179e565b9150915080600a6000828254611a179190612702565b90915550506009829055600c8054849190600090611a36908490612702565b90915550506001600160a01b03841660009081526010602052604090205480611a9057611a67600f80546001019055565b50600f546001600160a01b0385166000908152601060205260409020819055611a908582611da8565b6001600160a01b03851660009081526010602052604081206002018054869290611abb908490612702565b9091555050600b546001600160a01b0386166000908152601060205260409081902060030191909155517f1449c6dd7851abc30abf37f57715f492010519147cc2652fbc38202c18a6ee9090611b169033908790859061262b565b60405180910390a15050505050565b6040516001600160a01b0380851660248301528316604482015260648101829052610a789085906323b872dd60e01b906084015b60408051601f198184030181529190526020810180516001600160e01b03166001600160e01b031990931692909217909152611eea565b6040516001600160a01b03831660248201526044810182905261078290849063a9059cbb60e01b90606401611b59565b611bcb8484846115fe565b611bd784848484611fbc565b610a785760405162461bcd60e51b815260040161064c9061265f565b606081611c175750506040805180820190915260018152600360fc1b602082015290565b8160005b8115611c415780611c2b816127cb565b9150611c3a9050600a8361271a565b9150611c1b565b60008167ffffffffffffffff811115611c6a57634e487b7160e01b600052604160045260246000fd5b6040519080825280601f01601f191660200182016040528015611c94576020820181803683370190505b5090505b84156115f657611ca960018361274d565b9150611cb6600a866127e6565b611cc1906030612702565b60f81b818381518110611ce457634e487b7160e01b600052603260045260246000fd5b60200101906001600160f81b031916908160001a905350611d06600a8661271a565b9450611c98565b6000611d1882610d5a565b9050611d25600083611499565b6001600160a01b0381166000908152600360205260408120805460019290611d4e90849061274d565b909155505060008281526002602052604080822080546001600160a01b0319169055518391906001600160a01b038416907fddf252ad1be2c89b69c2b068fc378daa952ba7f163c4a11628f55a4df523b3ef908390a45050565b6001600160a01b038216611dfe5760405162461bcd60e51b815260206004820181905260248201527f4552433732313a206d696e7420746f20746865207a65726f2061646472657373604482015260640161064c565b6000818152600260205260409020546001600160a01b031615611e635760405162461bcd60e51b815260206004820152601c60248201527f4552433732313a20746f6b656e20616c7265616479206d696e74656400000000604482015260640161064c565b6001600160a01b0382166000908152600360205260408120805460019290611e8c908490612702565b909155505060008181526002602052604080822080546001600160a01b0319166001600160a01b03861690811790915590518392907fddf252ad1be2c89b69c2b068fc378daa952ba7f163c4a11628f55a4df523b3ef908290a45050565b6000611f3f826040518060400160405280602081526020017f5361666545524332303a206c6f772d6c6576656c2063616c6c206661696c6564815250856001600160a01b03166120c99092919063ffffffff16565b8051909150156107825780806020019051810190611f5d91906124f3565b6107825760405162461bcd60e51b815260206004820152602a60248201527f5361666545524332303a204552433230206f7065726174696f6e20646964206e6044820152691bdd081cdd58d8d9595960b21b606482015260840161064c565b60006001600160a01b0384163b156120be57604051630a85bd0160e11b81526001600160a01b0385169063150b7a02906120009033908990889088906004016125ee565b602060405180830381600087803b15801561201a57600080fd5b505af192505050801561204a575060408051601f3d908101601f191682019092526120479181019061252b565b60015b6120a4573d808015612078576040519150601f19603f3d011682016040523d82523d6000602084013e61207d565b606091505b50805161209c5760405162461bcd60e51b815260040161064c9061265f565b805181602001fd5b6001600160e01b031916630a85bd0160e11b1490506115f6565b506001949350505050565b60606115f6848460008585843b6121225760405162461bcd60e51b815260206004820152601d60248201527f416464726573733a2063616c6c20746f206e6f6e2d636f6e7472616374000000604482015260640161064c565b600080866001600160a01b0316858760405161213e91906125a3565b60006040518083038185875af1925050503d806000811461217b576040519150601f19603f3d011682016040523d82523d6000602084013e612180565b606091505b509150915061219082828661219b565b979650505050505050565b606083156121aa575081611262565b8251156121ba5782518084602001fd5b8160405162461bcd60e51b815260040161064c919061264c565b8280546121e090612790565b90600052602060002090601f0160209004810192826122025760008555612248565b82601f1061221b57805160ff1916838001178555612248565b82800160010185558215612248579182015b8281111561224857825182559160200191906001019061222d565b50612254929150612258565b5090565b5b808211156122545760008155600101612259565b600067ffffffffffffffff8084111561228857612288612826565b604051601f8501601f19908116603f011681019082821181831017156122b0576122b0612826565b816040528093508581528686860111156122c957600080fd5b858560208301376000602087830101525050509392505050565b80356001600160a01b03811681146122fa57600080fd5b919050565b600082601f83011261230f578081fd5b6112628383356020850161226d565b60006020828403121561232f578081fd5b611262826122e3565b6000806040838503121561234a578081fd5b612353836122e3565b9150612361602084016122e3565b90509250929050565b6000806000806080858703121561237f578182fd5b612388856122e3565b9350612396602086016122e3565b9250604085013567ffffffffffffffff808211156123b2578384fd5b6123be888389016122ff565b935060608701359150808211156123d3578283fd5b506123e0878288016122ff565b91505092959194509250565b600080600060608486031215612400578283fd5b612409846122e3565b9250612417602085016122e3565b9150604084013590509250925092565b6000806000806080858703121561243c578384fd5b612445856122e3565b9350612453602086016122e3565b925060408501359150606085013567ffffffffffffffff811115612475578182fd5b8501601f81018713612485578182fd5b6123e08782356020840161226d565b600080604083850312156124a6578182fd5b6124af836122e3565b915060208301356124bf8161283c565b809150509250929050565b600080604083850312156124dc578182fd5b6124e5836122e3565b946020939093013593505050565b600060208284031215612504578081fd5b81516112628161283c565b600060208284031215612520578081fd5b81356112628161284d565b60006020828403121561253c578081fd5b81516112628161284d565b600060208284031215612558578081fd5b5035919050565b600060208284031215612570578081fd5b5051919050565b6000815180845261258f816020860160208601612764565b601f01601f19169290920160200192915050565b600082516125b5818460208701612764565b9190910192915050565b600083516125d1818460208801612764565b8351908301906125e5818360208801612764565b01949350505050565b6001600160a01b038581168252841660208201526040810183905260806060820181905260009061262190830184612577565b9695505050505050565b6001600160a01b039390931683526020830191909152604082015260600190565b6020815260006112626020830184612577565b60208082526032908201527f4552433732313a207472616e7366657220746f206e6f6e20455243373231526560408201527131b2b4bb32b91034b6b83632b6b2b73a32b960711b606082015260800190565b60208082526031908201527f4552433732313a207472616e736665722063616c6c6572206973206e6f74206f6040820152701ddb995c881b9bdc88185c1c1c9bdd9959607a1b606082015260800190565b60008219821115612715576127156127fa565b500190565b60008261272957612729612810565b500490565b6000816000190483118215151615612748576127486127fa565b500290565b60008282101561275f5761275f6127fa565b500390565b60005b8381101561277f578181015183820152602001612767565b83811115610a785750506000910152565b600181811c908216806127a457607f821691505b602082108114156127c557634e487b7160e01b600052602260045260246000fd5b50919050565b60006000198214156127df576127df6127fa565b5060010190565b6000826127f5576127f5612810565b500690565b634e487b7160e01b600052601160045260246000fd5b634e487b7160e01b600052601260045260246000fd5b634e487b7160e01b600052604160045260246000fd5b801515811461284a57600080fd5b50565b6001600160e01b03198116811461284a57600080fdfea2646970667358221220c54c5819866f0fc39fc56d574b90eacfb7117c014b6d5937b5eebb8b6e38b78364736f6c63430008040033",
  "devdoc": {
    "kind": "dev",
    "methods": {
      "approve(address,uint256)": {
        "details": "See {IERC721-approve}."
      },
      "balanceOf(address)": {
        "details": "See {IERC721-balanceOf}."
      },
      "getApproved(uint256)": {
        "details": "See {IERC721-getApproved}."
      },
      "isApprovedForAll(address,address)": {
        "details": "See {IERC721-isApprovedForAll}."
      },
      "name()": {
        "details": "See {IERC721Metadata-name}."
      },
      "ownerOf(uint256)": {
        "details": "See {IERC721-ownerOf}."
      },
      "safeTransferFrom(address,address,uint256)": {
        "details": "See {IERC721-safeTransferFrom}."
      },
      "safeTransferFrom(address,address,uint256,bytes)": {
        "details": "See {IERC721-safeTransferFrom}."
      },
      "setApprovalForAll(address,bool)": {
        "details": "See {IERC721-setApprovalForAll}."
      },
      "supportsInterface(bytes4)": {
        "details": "See {IERC165-supportsInterface}."
      },
      "symbol()": {
        "details": "See {IERC721Metadata-symbol}."
      },
      "tokenURI(uint256)": {
        "details": "See {IERC721Metadata-tokenURI}."
      },
      "transferFrom(address,address,uint256)": {
        "details": "See {IERC721-transferFrom}."
      }
    },
    "version": 1
  },
  "userdoc": {
    "kind": "user",
    "methods": {},
    "version": 1
  },
  "storageLayout": {
    "storage": [
      {
        "astId": 9517,
        "contract": "contracts/polygon/implementations/JotPool.sol:JotPool",
        "label": "_name",
        "offset": 0,
        "slot": "0",
        "type": "t_string_storage"
      },
      {
        "astId": 9519,
        "contract": "contracts/polygon/implementations/JotPool.sol:JotPool",
        "label": "_symbol",
        "offset": 0,
        "slot": "1",
        "type": "t_string_storage"
      },
      {
        "astId": 9523,
        "contract": "contracts/polygon/implementations/JotPool.sol:JotPool",
        "label": "_owners",
        "offset": 0,
        "slot": "2",
        "type": "t_mapping(t_uint256,t_address)"
      },
      {
        "astId": 9527,
        "contract": "contracts/polygon/implementations/JotPool.sol:JotPool",
        "label": "_balances",
        "offset": 0,
        "slot": "3",
        "type": "t_mapping(t_address,t_uint256)"
      },
      {
        "astId": 9531,
        "contract": "contracts/polygon/implementations/JotPool.sol:JotPool",
        "label": "_tokenApprovals",
        "offset": 0,
        "slot": "4",
        "type": "t_mapping(t_uint256,t_address)"
      },
      {
        "astId": 9537,
        "contract": "contracts/polygon/implementations/JotPool.sol:JotPool",
        "label": "_operatorApprovals",
        "offset": 0,
        "slot": "5",
        "type": "t_mapping(t_address,t_mapping(t_address,t_bool))"
      },
      {
        "astId": 7665,
        "contract": "contracts/polygon/implementations/JotPool.sol:JotPool",
        "label": "_initialized",
        "offset": 0,
        "slot": "6",
        "type": "t_bool"
      },
      {
        "astId": 7668,
        "contract": "contracts/polygon/implementations/JotPool.sol:JotPool",
        "label": "_initializing",
        "offset": 1,
        "slot": "6",
        "type": "t_bool"
      },
      {
        "astId": 23623,
        "contract": "contracts/polygon/implementations/JotPool.sol:JotPool",
        "label": "jot",
        "offset": 2,
        "slot": "6",
        "type": "t_address"
      },
      {
        "astId": 23625,
        "contract": "contracts/polygon/implementations/JotPool.sol:JotPool",
        "label": "fundingToken",
        "offset": 0,
        "slot": "7",
        "type": "t_address"
      },
      {
        "astId": 23627,
        "contract": "contracts/polygon/implementations/JotPool.sol:JotPool",
        "label": "totalLiquidity",
        "offset": 0,
        "slot": "8",
        "type": "t_uint256"
      },
      {
        "astId": 23629,
        "contract": "contracts/polygon/implementations/JotPool.sol:JotPool",
        "label": "lastReward",
        "offset": 0,
        "slot": "9",
        "type": "t_uint256"
      },
      {
        "astId": 23631,
        "contract": "contracts/polygon/implementations/JotPool.sol:JotPool",
        "label": "cumulativeRevenue",
        "offset": 0,
        "slot": "10",
        "type": "t_uint256"
      },
      {
        "astId": 23633,
        "contract": "contracts/polygon/implementations/JotPool.sol:JotPool",
        "label": "totalShares",
        "offset": 0,
        "slot": "11",
        "type": "t_uint256"
      },
      {
        "astId": 23635,
        "contract": "contracts/polygon/implementations/JotPool.sol:JotPool",
        "label": "totalStaked",
        "offset": 0,
        "slot": "12",
        "type": "t_uint256"
      },
      {
        "astId": 23637,
        "contract": "contracts/polygon/implementations/JotPool.sol:JotPool",
        "label": "_proxyName",
        "offset": 0,
        "slot": "13",
        "type": "t_string_storage"
      },
      {
        "astId": 23639,
        "contract": "contracts/polygon/implementations/JotPool.sol:JotPool",
        "label": "_proxySymbol",
        "offset": 0,
        "slot": "14",
        "type": "t_string_storage"
      },
      {
        "astId": 23642,
        "contract": "contracts/polygon/implementations/JotPool.sol:JotPool",
        "label": "idGen",
        "offset": 0,
        "slot": "15",
        "type": "t_struct(Counter)10793_storage"
      },
      {
        "astId": 23647,
        "contract": "contracts/polygon/implementations/JotPool.sol:JotPool",
        "label": "positions",
        "offset": 0,
        "slot": "16",
        "type": "t_mapping(t_address,t_struct(Position)23621_storage)"
      }
    ],
    "types": {
      "t_address": {
        "encoding": "inplace",
        "label": "address",
        "numberOfBytes": "20"
      },
      "t_bool": {
        "encoding": "inplace",
        "label": "bool",
        "numberOfBytes": "1"
      },
      "t_mapping(t_address,t_bool)": {
        "encoding": "mapping",
        "key": "t_address",
        "label": "mapping(address => bool)",
        "numberOfBytes": "32",
        "value": "t_bool"
      },
      "t_mapping(t_address,t_mapping(t_address,t_bool))": {
        "encoding": "mapping",
        "key": "t_address",
        "label": "mapping(address => mapping(address => bool))",
        "numberOfBytes": "32",
        "value": "t_mapping(t_address,t_bool)"
      },
      "t_mapping(t_address,t_struct(Position)23621_storage)": {
        "encoding": "mapping",
        "key": "t_address",
        "label": "mapping(address => struct JotPool.Position)",
        "numberOfBytes": "32",
        "value": "t_struct(Position)23621_storage"
      },
      "t_mapping(t_address,t_uint256)": {
        "encoding": "mapping",
        "key": "t_address",
        "label": "mapping(address => uint256)",
        "numberOfBytes": "32",
        "value": "t_uint256"
      },
      "t_mapping(t_uint256,t_address)": {
        "encoding": "mapping",
        "key": "t_uint256",
        "label": "mapping(uint256 => address)",
        "numberOfBytes": "32",
        "value": "t_address"
      },
      "t_string_storage": {
        "encoding": "bytes",
        "label": "string",
        "numberOfBytes": "32"
      },
      "t_struct(Counter)10793_storage": {
        "encoding": "inplace",
        "label": "struct Counters.Counter",
        "members": [
          {
            "astId": 10792,
            "contract": "contracts/polygon/implementations/JotPool.sol:JotPool",
            "label": "_value",
            "offset": 0,
            "slot": "0",
            "type": "t_uint256"
          }
        ],
        "numberOfBytes": "32"
      },
      "t_struct(Position)23621_storage": {
        "encoding": "inplace",
        "label": "struct JotPool.Position",
        "members": [
          {
            "astId": 23614,
            "contract": "contracts/polygon/implementations/JotPool.sol:JotPool",
            "label": "id",
            "offset": 0,
            "slot": "0",
            "type": "t_uint256"
          },
          {
            "astId": 23616,
            "contract": "contracts/polygon/implementations/JotPool.sol:JotPool",
            "label": "liquidity",
            "offset": 0,
            "slot": "1",
            "type": "t_uint256"
          },
          {
            "astId": 23618,
            "contract": "contracts/polygon/implementations/JotPool.sol:JotPool",
            "label": "stake",
            "offset": 0,
            "slot": "2",
            "type": "t_uint256"
          },
          {
            "astId": 23620,
            "contract": "contracts/polygon/implementations/JotPool.sol:JotPool",
            "label": "totalShares",
            "offset": 0,
            "slot": "3",
            "type": "t_uint256"
          }
        ],
        "numberOfBytes": "128"
      },
      "t_uint256": {
        "encoding": "inplace",
        "label": "uint256",
        "numberOfBytes": "32"
      }
    }
  }
}