{
  "address": "0x7F5c7a1F36cd00614115aC6Ef3f9269403Ff3071",
  "abi": [
    {
      "inputs": [
        {
          "internalType": "address",
          "name": "quickswapRouter",
          "type": "address"
        },
        {
          "internalType": "address",
          "name": "_matic",
          "type": "address"
        },
        {
          "internalType": "address",
          "name": "_link",
          "type": "address"
        },
        {
          "internalType": "address",
          "name": "_receiver",
          "type": "address"
        }
      ],
      "stateMutability": "nonpayable",
      "type": "constructor"
    },
    {
      "anonymous": false,
      "inputs": [
        {
          "indexed": false,
          "internalType": "uint256[]",
          "name": "amounts",
          "type": "uint256[]"
        },
        {
          "indexed": false,
          "internalType": "address",
          "name": "receiver",
          "type": "address"
        }
      ],
      "name": "Swapped",
      "type": "event"
    },
    {
      "inputs": [],
      "name": "getBalance",
      "outputs": [
        {
          "internalType": "uint256",
          "name": "",
          "type": "uint256"
        }
      ],
      "stateMutability": "view",
      "type": "function"
    },
    {
      "inputs": [],
      "name": "link",
      "outputs": [
        {
          "internalType": "address",
          "name": "",
          "type": "address"
        }
      ],
      "stateMutability": "view",
      "type": "function"
    },
    {
      "inputs": [],
      "name": "matic",
      "outputs": [
        {
          "internalType": "address",
          "name": "",
          "type": "address"
        }
      ],
      "stateMutability": "view",
      "type": "function"
    },
    {
      "inputs": [],
      "name": "maticLinkPair",
      "outputs": [
        {
          "internalType": "contract IUniswapV2Pair",
          "name": "",
          "type": "address"
        }
      ],
      "stateMutability": "view",
      "type": "function"
    },
    {
      "inputs": [],
      "name": "receiver",
      "outputs": [
        {
          "internalType": "address",
          "name": "",
          "type": "address"
        }
      ],
      "stateMutability": "view",
      "type": "function"
    },
    {
      "inputs": [],
      "name": "router",
      "outputs": [
        {
          "internalType": "contract IUniswapV2Router02",
          "name": "",
          "type": "address"
        }
      ],
      "stateMutability": "view",
      "type": "function"
    },
    {
      "inputs": [],
      "name": "swapToLink",
      "outputs": [],
      "stateMutability": "nonpayable",
      "type": "function"
    },
    {
      "stateMutability": "payable",
      "type": "receive"
    }
  ],
  "transactionHash": "0x457d15a7decc0cc29c94c579529717afc48872734b7cd94c29ab2a9c7721eb7f",
  "args": [
    "0x4CeBfcDA07A08B1C7169E5eb77AC117FF87EEae9",
    "0x101f4779090843bb394902a973D9bf1e37F00635",
    "0x326C977E6efc84E512bB9C30f76E30c160eD06FB",
    "0xA8c0ceC9C6ba4f24565caFd827C7fE00f9b4467E"
  ],
  "solcInputHash": "0cc6fa82c0eeb27ece16b294b847bb89",
  "bytecode": "0x61012060405234801561001157600080fd5b5060405161097d38038061097d8339810160408190526100309161031b565b6001600160a01b0384166100955760405162461bcd60e51b815260206004820152602160248201527f496e76616c696420517569636b5377617020666163746f7279206164647265736044820152607360f81b60648201526084015b60405180910390fd5b6001600160a01b0383166100eb5760405162461bcd60e51b815260206004820152601b60248201527f496e76616c6964204d6174696320746f6b656e20616464726573730000000000604482015260640161008c565b6001600160a01b0382166101415760405162461bcd60e51b815260206004820152601a60248201527f496e76616c6964204c494e4b20746f6b656e2061646472657373000000000000604482015260640161008c565b6001600160a01b0381166101975760405162461bcd60e51b815260206004820152601860248201527f496e76616c696420726563656976657220616464726573730000000000000000604482015260640161008c565b6001600160601b0319606085811b821660805284811b821660a05283811b821660c05282901b1660e0526040805163c45a015560e01b815290516000916001600160a01b0387169163c45a015591600480820192602092909190829003018186803b15801561020557600080fd5b505afa158015610219573d6000803e3d6000fd5b505050506040513d601f19601f8201168201806040525081019061023d91906102fa565b60405163e6a4390560e01b81526001600160a01b03858116600483015286811660248301529192509082169063e6a439059060440160206040518083038186803b15801561028a57600080fd5b505afa15801561029e573d6000803e3d6000fd5b505050506040513d601f19601f820116820180604052508101906102c291906102fa565b60601b6001600160601b031916610100525061036e9350505050565b80516001600160a01b03811681146102f557600080fd5b919050565b60006020828403121561030b578081fd5b610314826102de565b9392505050565b60008060008060808587031215610330578283fd5b610339856102de565b9350610347602086016102de565b9250610355604086016102de565b9150610363606086016102de565b905092959194509250565b60805160601c60a05160601c60c05160601c60e05160601c6101005160601c61059b6103e2600039600061014901526000818161017d015281816102f3015261039901526000818160b2015261025801526000818160fe01526101f60152600081816101b101526102c0015261059b6000f3fe6080604052600436106100745760003560e01c8063e26c27de1161004e578063e26c27de14610120578063f194a7ef14610137578063f7260d3e1461016b578063f887ea401461019f57600080fd5b806312065fe0146100805780631c4695f4146100a0578063b6b0b097146100ec57600080fd5b3661007b57005b600080fd5b34801561008c57600080fd5b506040514781526020015b60405180910390f35b3480156100ac57600080fd5b506100d47f000000000000000000000000000000000000000000000000000000000000000081565b6040516001600160a01b039091168152602001610097565b3480156100f857600080fd5b506100d47f000000000000000000000000000000000000000000000000000000000000000081565b34801561012c57600080fd5b506101356101d3565b005b34801561014357600080fd5b506100d47f000000000000000000000000000000000000000000000000000000000000000081565b34801561017757600080fd5b506100d47f000000000000000000000000000000000000000000000000000000000000000081565b3480156101ab57600080fd5b506100d47f000000000000000000000000000000000000000000000000000000000000000081565b6040805160028082526060820183526000926020830190803683370190505090507f00000000000000000000000000000000000000000000000000000000000000008160008151811061023657634e487b7160e01b600052603260045260246000fd5b60200260200101906001600160a01b031690816001600160a01b0316815250507f00000000000000000000000000000000000000000000000000000000000000008160018151811061029857634e487b7160e01b600052603260045260246000fd5b6001600160a01b039283166020918202929092010152604051637ff36ab560e01b81526000917f00000000000000000000000000000000000000000000000000000000000000001690637ff36ab590479061031d90859087907f00000000000000000000000000000000000000000000000000000000000000009042906004016104e6565b6000604051808303818588803b15801561033657600080fd5b505af115801561034a573d6000803e3d6000fd5b50505050506040513d6000823e601f3d908101601f1916820160405261037391908101906103d2565b90507f672b505d2ca6125d2a6906e20b158d8185c226c65c54b8136b98d19a95813ba4817f00000000000000000000000000000000000000000000000000000000000000006040516103c6929190610492565b60405180910390a15050565b600060208083850312156103e4578182fd5b825167ffffffffffffffff808211156103fb578384fd5b818501915085601f83011261040e578384fd5b8151818111156104205761042061054f565b8060051b604051601f19603f830116810181811085821117156104455761044561054f565b604052828152858101935084860182860187018a1015610463578788fd5b8795505b83861015610485578051855260019590950194938601938601610467565b5098975050505050505050565b604080825283519082018190526000906020906060840190828701845b828110156104cb578151845292840192908401906001016104af565b5050506001600160a01b039490941692019190915250919050565b600060808201868352602060808185015281875180845260a0860191508289019350845b8181101561052f5784516001600160a01b03168352938301939183019160010161050a565b50506001600160a01b039690961660408501525050506060015292915050565b634e487b7160e01b600052604160045260246000fdfea2646970667358221220ead3326b8b52251e3100cf7c55741d4de6f4f8de6cc7de7eb94d045eb4f30e2464736f6c63430008040033",
  "devdoc": {
    "kind": "dev",
    "methods": {},
    "version": 1
  },
  "userdoc": {
    "kind": "user",
    "methods": {},
    "version": 1
  },
  "storageLayout": {
    "storage": [],
    "types": null
  }
}