{
  "address": "0xB4861938D5A28c48eDA0F8Bf2b1c04ed1Ea6669e",
  "abi": [
    {
      "inputs": [],
      "stateMutability": "nonpayable",
      "type": "constructor"
    },
    {
      "anonymous": false,
      "inputs": [
        {
          "indexed": true,
          "internalType": "bytes32",
          "name": "role",
          "type": "bytes32"
        },
        {
          "indexed": true,
          "internalType": "bytes32",
          "name": "previousAdminRole",
          "type": "bytes32"
        },
        {
          "indexed": true,
          "internalType": "bytes32",
          "name": "newAdminRole",
          "type": "bytes32"
        }
      ],
      "name": "RoleAdminChanged",
      "type": "event"
    },
    {
      "anonymous": false,
      "inputs": [
        {
          "indexed": true,
          "internalType": "bytes32",
          "name": "role",
          "type": "bytes32"
        },
        {
          "indexed": true,
          "internalType": "address",
          "name": "account",
          "type": "address"
        },
        {
          "indexed": true,
          "internalType": "address",
          "name": "sender",
          "type": "address"
        }
      ],
      "name": "RoleGranted",
      "type": "event"
    },
    {
      "anonymous": false,
      "inputs": [
        {
          "indexed": true,
          "internalType": "bytes32",
          "name": "role",
          "type": "bytes32"
        },
        {
          "indexed": true,
          "internalType": "address",
          "name": "account",
          "type": "address"
        },
        {
          "indexed": true,
          "internalType": "address",
          "name": "sender",
          "type": "address"
        }
      ],
      "name": "RoleRevoked",
      "type": "event"
    },
    {
      "inputs": [],
      "name": "DEFAULT_ADMIN_ROLE",
      "outputs": [
        {
          "internalType": "bytes32",
          "name": "",
          "type": "bytes32"
        }
      ],
      "stateMutability": "view",
      "type": "function"
    },
    {
      "inputs": [],
      "name": "MANAGER",
      "outputs": [
        {
          "internalType": "bytes32",
          "name": "",
          "type": "bytes32"
        }
      ],
      "stateMutability": "view",
      "type": "function"
    },
    {
      "inputs": [
        {
          "internalType": "address",
          "name": "pairAddress",
          "type": "address"
        },
        {
          "internalType": "uint256",
          "name": "liquidityTokenBalance",
          "type": "uint256"
        }
      ],
      "name": "getAccruedReward",
      "outputs": [
        {
          "internalType": "uint256",
          "name": "token0Reward",
          "type": "uint256"
        },
        {
          "internalType": "uint256",
          "name": "token1Reward",
          "type": "uint256"
        }
      ],
      "stateMutability": "view",
      "type": "function"
    },
    {
      "inputs": [
        {
          "components": [
            {
              "internalType": "uint256",
              "name": "originalTokenID",
              "type": "uint256"
            },
            {
              "internalType": "uint256",
              "name": "ownerSupply",
              "type": "uint256"
            },
            {
              "internalType": "uint256",
              "name": "sellingSupply",
              "type": "uint256"
            },
            {
              "internalType": "uint256",
              "name": "soldSupply",
              "type": "uint256"
            },
            {
              "internalType": "uint256",
              "name": "liquiditySupply",
              "type": "uint256"
            },
            {
              "internalType": "uint256",
              "name": "liquiditySold",
              "type": "uint256"
            },
            {
              "internalType": "uint256",
              "name": "fractionPrices",
              "type": "uint256"
            },
            {
              "internalType": "uint256",
              "name": "lastFlipTime",
              "type": "uint256"
            },
            {
              "internalType": "uint256",
              "name": "liquidityTokenBalance",
              "type": "uint256"
            },
            {
              "internalType": "uint256",
              "name": "uniswapJotLiquidity",
              "type": "uint256"
            },
            {
              "internalType": "uint256",
              "name": "uniswapFundingLiquidity",
              "type": "uint256"
            },
            {
              "internalType": "uint256",
              "name": "perpetualFuturesLShares",
              "type": "uint256"
            },
            {
              "internalType": "enum State",
              "name": "state",
              "type": "uint8"
            }
          ],
          "internalType": "struct TokenData",
          "name": "token",
          "type": "tuple"
        }
      ],
      "name": "getAvailableFundingPerpetual",
      "outputs": [
        {
          "internalType": "uint256",
          "name": "",
          "type": "uint256"
        }
      ],
      "stateMutability": "view",
      "type": "function"
    },
    {
      "inputs": [
        {
          "components": [
            {
              "internalType": "uint256",
              "name": "originalTokenID",
              "type": "uint256"
            },
            {
              "internalType": "uint256",
              "name": "ownerSupply",
              "type": "uint256"
            },
            {
              "internalType": "uint256",
              "name": "sellingSupply",
              "type": "uint256"
            },
            {
              "internalType": "uint256",
              "name": "soldSupply",
              "type": "uint256"
            },
            {
              "internalType": "uint256",
              "name": "liquiditySupply",
              "type": "uint256"
            },
            {
              "internalType": "uint256",
              "name": "liquiditySold",
              "type": "uint256"
            },
            {
              "internalType": "uint256",
              "name": "fractionPrices",
              "type": "uint256"
            },
            {
              "internalType": "uint256",
              "name": "lastFlipTime",
              "type": "uint256"
            },
            {
              "internalType": "uint256",
              "name": "liquidityTokenBalance",
              "type": "uint256"
            },
            {
              "internalType": "uint256",
              "name": "uniswapJotLiquidity",
              "type": "uint256"
            },
            {
              "internalType": "uint256",
              "name": "uniswapFundingLiquidity",
              "type": "uint256"
            },
            {
              "internalType": "uint256",
              "name": "perpetualFuturesLShares",
              "type": "uint256"
            },
            {
              "internalType": "enum State",
              "name": "state",
              "type": "uint8"
            }
          ],
          "internalType": "struct TokenData",
          "name": "token",
          "type": "tuple"
        }
      ],
      "name": "getAvailableFundingUniswap",
      "outputs": [
        {
          "internalType": "uint256",
          "name": "jotsValue",
          "type": "uint256"
        },
        {
          "internalType": "uint256",
          "name": "fundingValue",
          "type": "uint256"
        },
        {
          "internalType": "uint256",
          "name": "remainingJots",
          "type": "uint256"
        }
      ],
      "stateMutability": "view",
      "type": "function"
    },
    {
      "inputs": [
        {
          "internalType": "bytes32",
          "name": "role",
          "type": "bytes32"
        }
      ],
      "name": "getRoleAdmin",
      "outputs": [
        {
          "internalType": "bytes32",
          "name": "",
          "type": "bytes32"
        }
      ],
      "stateMutability": "view",
      "type": "function"
    },
    {
      "inputs": [
        {
          "internalType": "bytes32",
          "name": "role",
          "type": "bytes32"
        },
        {
          "internalType": "address",
          "name": "account",
          "type": "address"
        }
      ],
      "name": "grantRole",
      "outputs": [],
      "stateMutability": "nonpayable",
      "type": "function"
    },
    {
      "inputs": [
        {
          "internalType": "bytes32",
          "name": "role",
          "type": "bytes32"
        },
        {
          "internalType": "address",
          "name": "account",
          "type": "address"
        }
      ],
      "name": "hasRole",
      "outputs": [
        {
          "internalType": "bool",
          "name": "",
          "type": "bool"
        }
      ],
      "stateMutability": "view",
      "type": "function"
    },
    {
      "inputs": [
        {
          "internalType": "address",
          "name": "managerAddress_",
          "type": "address"
        },
        {
          "internalType": "address",
          "name": "swapAddress_",
          "type": "address"
        },
        {
          "internalType": "address",
          "name": "protocol_",
          "type": "address"
        },
        {
          "internalType": "address",
          "name": "perpetualPoolLiteAddress_",
          "type": "address"
        },
        {
          "internalType": "address",
          "name": "fundingTokenAddress_",
          "type": "address"
        },
        {
          "internalType": "address",
          "name": "jotAddress_",
          "type": "address"
        }
      ],
      "name": "initialize",
      "outputs": [],
      "stateMutability": "nonpayable",
      "type": "function"
    },
    {
      "inputs": [],
      "name": "protocol",
      "outputs": [
        {
          "internalType": "contract ProtocolParameters",
          "name": "",
          "type": "address"
        }
      ],
      "stateMutability": "view",
      "type": "function"
    },
    {
      "inputs": [
        {
          "internalType": "bytes32",
          "name": "role",
          "type": "bytes32"
        },
        {
          "internalType": "address",
          "name": "account",
          "type": "address"
        }
      ],
      "name": "renounceRole",
      "outputs": [],
      "stateMutability": "nonpayable",
      "type": "function"
    },
    {
      "inputs": [
        {
          "internalType": "bytes32",
          "name": "role",
          "type": "bytes32"
        },
        {
          "internalType": "address",
          "name": "account",
          "type": "address"
        }
      ],
      "name": "revokeRole",
      "outputs": [],
      "stateMutability": "nonpayable",
      "type": "function"
    },
    {
      "inputs": [
        {
          "internalType": "bytes4",
          "name": "interfaceId",
          "type": "bytes4"
        }
      ],
      "name": "supportsInterface",
      "outputs": [
        {
          "internalType": "bool",
          "name": "",
          "type": "bool"
        }
      ],
      "stateMutability": "view",
      "type": "function"
    }
  ],
  "transactionHash": "0x617c88a1e8bcd4cc7a54e14c0fe2b34404b0acface991c5555cd4e693f2977ac",
  "args": [],
  "solcInputHash": "07ffe27adea0d2a812eeb9c1248703cf",
  "bytecode": "0x608060405234801561001057600080fd5b50610fbe806100206000396000f3fe608060405234801561001057600080fd5b50600436106100cf5760003560e01c80638ce744261161008c578063cc2a9a5b11610066578063cc2a9a5b146101f0578063d547741f14610203578063f4e5ff0d14610216578063f8e82c6a1461023e57600080fd5b80638ce74426146101aa57806391d14854146101d5578063a217fddf146101e857600080fd5b806301ffc9a7146100d45780631b2df850146100fc578063248a9ca3146101315780632f2ff15d1461015457806336568abe14610169578063442372c61461017c575b600080fd5b6100e76100e2366004610cb9565b610251565b60405190151581526020015b60405180910390f35b6101237faf290d8680820aad922855f39b306097b20e28774d6c1ad35a20325630c3a02c81565b6040519081526020016100f3565b61012361013f366004610c76565b60009081526020819052604090206001015490565b610167610162366004610c8e565b610288565b005b610167610177366004610c8e565b6102b3565b61018f61018a366004610ce1565b610336565b604080519384526020840192909252908201526060016100f3565b6006546101bd906001600160a01b031681565b6040516001600160a01b0390911681526020016100f3565b6100e76101e3366004610c8e565b6104ac565b610123600081565b6101676101fe366004610bda565b6104d5565b610167610211366004610c8e565b610603565b610229610224366004610c4d565b610629565b604080519283526020830191909152016100f3565b61012361024c366004610ce1565b6107b0565b60006001600160e01b03198216637965db0b60e01b148061028257506301ffc9a760e01b6001600160e01b03198316145b92915050565b6000828152602081905260409020600101546102a48133610862565b6102ae83836108c6565b505050565b6001600160a01b03811633146103285760405162461bcd60e51b815260206004820152602f60248201527f416363657373436f6e74726f6c3a2063616e206f6e6c792072656e6f756e636560448201526e103937b632b9903337b91039b2b63360891b60648201526084015b60405180910390fd5b610332828261094a565b5050565b600080600080600660009054906101000a90046001600160a01b03166001600160a01b0316638792ed8a6040518163ffffffff1660e01b815260040160206040518083038186803b15801561038a57600080fd5b505afa15801561039e573d6000803e3d6000fd5b505050506040513d601f19601f820116820180604052508101906103c29190610ddc565b90506000600660009054906101000a90046001600160a01b03166001600160a01b031663c956cd636040518163ffffffff1660e01b815260040160206040518083038186803b15801561041457600080fd5b505afa158015610428573d6000803e3d6000fd5b505050506040513d601f19601f8201168201806040525081019061044c9190610ddc565b608087015160a08801519192509082610466606484610eec565b6104709190610f0c565b96508261047e606483610eec565b6104889190610f0c565b955083610496606484610eec565b6104a09190610f0c565b96989597505050505050565b6000918252602082815260408084206001600160a01b0393909316845291905290205460ff1690565b600154610100900460ff16806104ee575060015460ff16155b6105515760405162461bcd60e51b815260206004820152602e60248201527f496e697469616c697a61626c653a20636f6e747261637420697320616c72656160448201526d191e481a5b9a5d1a585b1a5e995960921b606482015260840161031f565b600154610100900460ff16158015610573576001805461ffff19166101011790555b6001805462010000600160b01b031916620100006001600160a01b038a81169190910291909117909155600280546001600160a01b0319908116898416179091556003805482168784161790556004805482168684161790556005805482168584161790556006805490911691871691909117905580156105fa576001805461ff00191690555b50505050505050565b60008281526020819052604090206001015461061f8133610862565b6102ae838361094a565b6000806000849050600080826001600160a01b0316630902f1ac6040518163ffffffff1660e01b815260040160606040518083038186803b15801561066d57600080fd5b505afa158015610681573d6000803e3d6000fd5b505050506040513d601f19601f820116820180604052508101906106a59190610d8e565b50915091506000836001600160a01b03166318160ddd6040518163ffffffff1660e01b815260040160206040518083038186803b1580156106e557600080fd5b505afa1580156106f9573d6000803e3d6000fd5b505050506040513d601f19601f8201168201806040525081019061071d9190610ddc565b9050806107345760008095509550505050506107a9565b6001600160701b03831661074b576000955061076c565b8661075f826001600160701b038616610eec565b6107699190610f0c565b95505b6001600160701b03821661078357600094506107a4565b86610797826001600160701b038516610eec565b6107a19190610f0c565b94505b505050505b9250929050565b600080600660009054906101000a90046001600160a01b03166001600160a01b0316638792ed8a6040518163ffffffff1660e01b815260040160206040518083038186803b15801561080157600080fd5b505afa158015610815573d6000803e3d6000fd5b505050506040513d601f19601f820116820180604052508101906108399190610ddc565b60a084015190915060008261084f606484610eec565b6108599190610f0c565b95945050505050565b61086c82826104ac565b61033257610884816001600160a01b031660146109af565b61088f8360206109af565b6040516020016108a0929190610df4565b60408051601f198184030181529082905262461bcd60e51b825261031f91600401610e69565b6108d082826104ac565b610332576000828152602081815260408083206001600160a01b03851684529091529020805460ff191660011790556109063390565b6001600160a01b0316816001600160a01b0316837f2f8788117e7eff1d82e926ec794901d17c78024a50270940304540a733656f0d60405160405180910390a45050565b61095482826104ac565b15610332576000828152602081815260408083206001600160a01b0385168085529252808320805460ff1916905551339285917ff6391f5c32d9c69d2a47ea670b442974b53935d1edc7fd64eb21e047a839171b9190a45050565b606060006109be836002610f0c565b6109c9906002610ed4565b67ffffffffffffffff8111156109ef57634e487b7160e01b600052604160045260246000fd5b6040519080825280601f01601f191660200182016040528015610a19576020820181803683370190505b509050600360fc1b81600081518110610a4257634e487b7160e01b600052603260045260246000fd5b60200101906001600160f81b031916908160001a905350600f60fb1b81600181518110610a7f57634e487b7160e01b600052603260045260246000fd5b60200101906001600160f81b031916908160001a9053506000610aa3846002610f0c565b610aae906001610ed4565b90505b6001811115610b42576f181899199a1a9b1b9c1cb0b131b232b360811b85600f1660108110610af057634e487b7160e01b600052603260045260246000fd5b1a60f81b828281518110610b1457634e487b7160e01b600052603260045260246000fd5b60200101906001600160f81b031916908160001a90535060049490941c93610b3b81610f5b565b9050610ab1565b508315610b915760405162461bcd60e51b815260206004820181905260248201527f537472696e67733a20686578206c656e67746820696e73756666696369656e74604482015260640161031f565b9392505050565b80356001600160a01b0381168114610baf57600080fd5b919050565b803560048110610baf57600080fd5b80516001600160701b0381168114610baf57600080fd5b60008060008060008060c08789031215610bf2578182fd5b610bfb87610b98565b9550610c0960208801610b98565b9450610c1760408801610b98565b9350610c2560608801610b98565b9250610c3360808801610b98565b9150610c4160a08801610b98565b90509295509295509295565b60008060408385031215610c5f578182fd5b610c6883610b98565b946020939093013593505050565b600060208284031215610c87578081fd5b5035919050565b60008060408385031215610ca0578182fd5b82359150610cb060208401610b98565b90509250929050565b600060208284031215610cca578081fd5b81356001600160e01b031981168114610b91578182fd5b60006101a08284031215610cf3578081fd5b610cfb610e9c565b823581526020830135602082015260408301356040820152606083013560608201526080830135608082015260a083013560a082015260c083013560c082015260e083013560e0820152610100808401358183015250610120808401358183015250610140808401358183015250610160808401358183015250610180610d83818501610bb4565b908201529392505050565b600080600060608486031215610da2578283fd5b610dab84610bc3565b9250610db960208501610bc3565b9150604084015163ffffffff81168114610dd1578182fd5b809150509250925092565b600060208284031215610ded578081fd5b5051919050565b7f416363657373436f6e74726f6c3a206163636f756e7420000000000000000000815260008351610e2c816017850160208801610f2b565b7001034b99036b4b9b9b4b733903937b6329607d1b6017918401918201528351610e5d816028840160208801610f2b565b01602801949350505050565b6020815260008251806020840152610e88816040850160208701610f2b565b601f01601f19169190910160400192915050565b6040516101a0810167ffffffffffffffff81118282101715610ece57634e487b7160e01b600052604160045260246000fd5b60405290565b60008219821115610ee757610ee7610f72565b500190565b600082610f0757634e487b7160e01b81526012600452602481fd5b500490565b6000816000190483118215151615610f2657610f26610f72565b500290565b60005b83811015610f46578181015183820152602001610f2e565b83811115610f55576000848401525b50505050565b600081610f6a57610f6a610f72565b506000190190565b634e487b7160e01b600052601160045260246000fdfea26469706673582212208fdce279ff3fb26d0e129504e51fc8646579c03b678addd607ec5377b251708564736f6c63430008040033",
  "devdoc": {
    "kind": "dev",
    "methods": {
      "getRoleAdmin(bytes32)": {
        "details": "Returns the admin role that controls `role`. See {grantRole} and {revokeRole}. To change a role's admin, use {_setRoleAdmin}."
      },
      "grantRole(bytes32,address)": {
        "details": "Grants `role` to `account`. If `account` had not been already granted `role`, emits a {RoleGranted} event. Requirements: - the caller must have ``role``'s admin role."
      },
      "hasRole(bytes32,address)": {
        "details": "Returns `true` if `account` has been granted `role`."
      },
      "renounceRole(bytes32,address)": {
        "details": "Revokes `role` from the calling account. Roles are often managed via {grantRole} and {revokeRole}: this function's purpose is to provide a mechanism for accounts to lose their privileges if they are compromised (such as when a trusted device is misplaced). If the calling account had been granted `role`, emits a {RoleRevoked} event. Requirements: - the caller must be `account`."
      },
      "revokeRole(bytes32,address)": {
        "details": "Revokes `role` from `account`. If `account` had been granted `role`, emits a {RoleRevoked} event. Requirements: - the caller must have ``role``'s admin role."
      },
      "supportsInterface(bytes4)": {
        "details": "See {IERC165-supportsInterface}."
      }
    },
    "version": 1
  },
  "userdoc": {
    "kind": "user",
    "methods": {
      "MANAGER()": {
        "notice": "role of the manager contract"
      }
    },
    "version": 1
  },
  "storageLayout": {
    "storage": [
      {
        "astId": 3872,
        "contract": "contracts/polygon/implementations/LiquidityCalculator.sol:LiquidityCalculator",
        "label": "_roles",
        "offset": 0,
        "slot": "0",
        "type": "t_mapping(t_bytes32,t_struct(RoleData)3867_storage)"
      },
      {
        "astId": 7665,
        "contract": "contracts/polygon/implementations/LiquidityCalculator.sol:LiquidityCalculator",
        "label": "_initialized",
        "offset": 0,
        "slot": "1",
        "type": "t_bool"
      },
      {
        "astId": 7668,
        "contract": "contracts/polygon/implementations/LiquidityCalculator.sol:LiquidityCalculator",
        "label": "_initializing",
        "offset": 1,
        "slot": "1",
        "type": "t_bool"
      },
      {
        "astId": 24261,
        "contract": "contracts/polygon/implementations/LiquidityCalculator.sol:LiquidityCalculator",
        "label": "_managerAddress",
        "offset": 2,
        "slot": "1",
        "type": "t_address"
      },
      {
        "astId": 24263,
        "contract": "contracts/polygon/implementations/LiquidityCalculator.sol:LiquidityCalculator",
        "label": "_swapAddress",
        "offset": 0,
        "slot": "2",
        "type": "t_address"
      },
      {
        "astId": 24265,
        "contract": "contracts/polygon/implementations/LiquidityCalculator.sol:LiquidityCalculator",
        "label": "_perpetualPoolLiteAddress",
        "offset": 0,
        "slot": "3",
        "type": "t_address"
      },
      {
        "astId": 24267,
        "contract": "contracts/polygon/implementations/LiquidityCalculator.sol:LiquidityCalculator",
        "label": "_fundingTokenAddress",
        "offset": 0,
        "slot": "4",
        "type": "t_address"
      },
      {
        "astId": 24269,
        "contract": "contracts/polygon/implementations/LiquidityCalculator.sol:LiquidityCalculator",
        "label": "_jotAddress",
        "offset": 0,
        "slot": "5",
        "type": "t_address"
      },
      {
        "astId": 24272,
        "contract": "contracts/polygon/implementations/LiquidityCalculator.sol:LiquidityCalculator",
        "label": "protocol",
        "offset": 0,
        "slot": "6",
        "type": "t_contract(ProtocolParameters)23180"
      }
    ],
    "types": {
      "t_address": {
        "encoding": "inplace",
        "label": "address",
        "numberOfBytes": "20"
      },
      "t_bool": {
        "encoding": "inplace",
        "label": "bool",
        "numberOfBytes": "1"
      },
      "t_bytes32": {
        "encoding": "inplace",
        "label": "bytes32",
        "numberOfBytes": "32"
      },
      "t_contract(ProtocolParameters)23180": {
        "encoding": "inplace",
        "label": "contract ProtocolParameters",
        "numberOfBytes": "20"
      },
      "t_mapping(t_address,t_bool)": {
        "encoding": "mapping",
        "key": "t_address",
        "label": "mapping(address => bool)",
        "numberOfBytes": "32",
        "value": "t_bool"
      },
      "t_mapping(t_bytes32,t_struct(RoleData)3867_storage)": {
        "encoding": "mapping",
        "key": "t_bytes32",
        "label": "mapping(bytes32 => struct AccessControl.RoleData)",
        "numberOfBytes": "32",
        "value": "t_struct(RoleData)3867_storage"
      },
      "t_struct(RoleData)3867_storage": {
        "encoding": "inplace",
        "label": "struct AccessControl.RoleData",
        "members": [
          {
            "astId": 3864,
            "contract": "contracts/polygon/implementations/LiquidityCalculator.sol:LiquidityCalculator",
            "label": "members",
            "offset": 0,
            "slot": "0",
            "type": "t_mapping(t_address,t_bool)"
          },
          {
            "astId": 3866,
            "contract": "contracts/polygon/implementations/LiquidityCalculator.sol:LiquidityCalculator",
            "label": "adminRole",
            "offset": 0,
            "slot": "1",
            "type": "t_bytes32"
          }
        ],
        "numberOfBytes": "64"
      }
    }
  }
}