{
  "address": "0x664b88C5a49a65913d4247af2AAe7DcDb991eF75",
  "abi": [
    {
      "inputs": [],
      "stateMutability": "nonpayable",
      "type": "constructor"
    },
    {
      "anonymous": false,
      "inputs": [
        {
          "indexed": true,
          "internalType": "bytes32",
          "name": "role",
          "type": "bytes32"
        },
        {
          "indexed": true,
          "internalType": "bytes32",
          "name": "previousAdminRole",
          "type": "bytes32"
        },
        {
          "indexed": true,
          "internalType": "bytes32",
          "name": "newAdminRole",
          "type": "bytes32"
        }
      ],
      "name": "RoleAdminChanged",
      "type": "event"
    },
    {
      "anonymous": false,
      "inputs": [
        {
          "indexed": true,
          "internalType": "bytes32",
          "name": "role",
          "type": "bytes32"
        },
        {
          "indexed": true,
          "internalType": "address",
          "name": "account",
          "type": "address"
        },
        {
          "indexed": true,
          "internalType": "address",
          "name": "sender",
          "type": "address"
        }
      ],
      "name": "RoleGranted",
      "type": "event"
    },
    {
      "anonymous": false,
      "inputs": [
        {
          "indexed": true,
          "internalType": "bytes32",
          "name": "role",
          "type": "bytes32"
        },
        {
          "indexed": true,
          "internalType": "address",
          "name": "account",
          "type": "address"
        },
        {
          "indexed": true,
          "internalType": "address",
          "name": "sender",
          "type": "address"
        }
      ],
      "name": "RoleRevoked",
      "type": "event"
    },
    {
      "inputs": [],
      "name": "DEFAULT_ADMIN_ROLE",
      "outputs": [
        {
          "internalType": "bytes32",
          "name": "",
          "type": "bytes32"
        }
      ],
      "stateMutability": "view",
      "type": "function"
    },
    {
      "inputs": [],
      "name": "MANAGER",
      "outputs": [
        {
          "internalType": "bytes32",
          "name": "",
          "type": "bytes32"
        }
      ],
      "stateMutability": "view",
      "type": "function"
    },
    {
      "inputs": [
        {
          "internalType": "address",
          "name": "pairAddress",
          "type": "address"
        },
        {
          "internalType": "uint256",
          "name": "liquidityTokenBalance",
          "type": "uint256"
        }
      ],
      "name": "getAccruedReward",
      "outputs": [
        {
          "internalType": "uint256",
          "name": "token0Reward",
          "type": "uint256"
        },
        {
          "internalType": "uint256",
          "name": "token1Reward",
          "type": "uint256"
        }
      ],
      "stateMutability": "view",
      "type": "function"
    },
    {
      "inputs": [
        {
          "components": [
            {
              "internalType": "uint256",
              "name": "originalTokenID",
              "type": "uint256"
            },
            {
              "internalType": "uint256",
              "name": "ownerSupply",
              "type": "uint256"
            },
            {
              "internalType": "uint256",
              "name": "sellingSupply",
              "type": "uint256"
            },
            {
              "internalType": "uint256",
              "name": "soldSupply",
              "type": "uint256"
            },
            {
              "internalType": "uint256",
              "name": "liquiditySold",
              "type": "uint256"
            },
            {
              "internalType": "uint256",
              "name": "fractionPrices",
              "type": "uint256"
            },
            {
              "internalType": "uint256",
              "name": "lastFlipTime",
              "type": "uint256"
            },
            {
              "internalType": "uint256",
              "name": "liquidityTokenBalance",
              "type": "uint256"
            },
            {
              "internalType": "uint256",
              "name": "perpetualFuturesLShares",
              "type": "uint256"
            },
            {
              "internalType": "enum State",
              "name": "state",
              "type": "uint8"
            }
          ],
          "internalType": "struct TokenData",
          "name": "token",
          "type": "tuple"
        }
      ],
      "name": "getAvailableFundingPerpetual",
      "outputs": [
        {
          "internalType": "uint256",
          "name": "",
          "type": "uint256"
        }
      ],
      "stateMutability": "view",
      "type": "function"
    },
    {
      "inputs": [
        {
          "internalType": "bytes32",
          "name": "role",
          "type": "bytes32"
        }
      ],
      "name": "getRoleAdmin",
      "outputs": [
        {
          "internalType": "bytes32",
          "name": "",
          "type": "bytes32"
        }
      ],
      "stateMutability": "view",
      "type": "function"
    },
    {
      "inputs": [
        {
          "internalType": "bytes32",
          "name": "role",
          "type": "bytes32"
        },
        {
          "internalType": "address",
          "name": "account",
          "type": "address"
        }
      ],
      "name": "grantRole",
      "outputs": [],
      "stateMutability": "nonpayable",
      "type": "function"
    },
    {
      "inputs": [
        {
          "internalType": "bytes32",
          "name": "role",
          "type": "bytes32"
        },
        {
          "internalType": "address",
          "name": "account",
          "type": "address"
        }
      ],
      "name": "hasRole",
      "outputs": [
        {
          "internalType": "bool",
          "name": "",
          "type": "bool"
        }
      ],
      "stateMutability": "view",
      "type": "function"
    },
    {
      "inputs": [
        {
          "internalType": "address",
          "name": "managerAddress_",
          "type": "address"
        },
        {
          "internalType": "address",
          "name": "swapAddress_",
          "type": "address"
        },
        {
          "internalType": "address",
          "name": "protocol_",
          "type": "address"
        },
        {
          "internalType": "address",
          "name": "perpetualPoolLiteAddress_",
          "type": "address"
        },
        {
          "internalType": "address",
          "name": "fundingTokenAddress_",
          "type": "address"
        },
        {
          "internalType": "address",
          "name": "jotAddress_",
          "type": "address"
        }
      ],
      "name": "initialize",
      "outputs": [],
      "stateMutability": "nonpayable",
      "type": "function"
    },
    {
      "inputs": [],
      "name": "protocol",
      "outputs": [
        {
          "internalType": "contract ProtocolParameters",
          "name": "",
          "type": "address"
        }
      ],
      "stateMutability": "view",
      "type": "function"
    },
    {
      "inputs": [
        {
          "internalType": "bytes32",
          "name": "role",
          "type": "bytes32"
        },
        {
          "internalType": "address",
          "name": "account",
          "type": "address"
        }
      ],
      "name": "renounceRole",
      "outputs": [],
      "stateMutability": "nonpayable",
      "type": "function"
    },
    {
      "inputs": [
        {
          "internalType": "bytes32",
          "name": "role",
          "type": "bytes32"
        },
        {
          "internalType": "address",
          "name": "account",
          "type": "address"
        }
      ],
      "name": "revokeRole",
      "outputs": [],
      "stateMutability": "nonpayable",
      "type": "function"
    },
    {
      "inputs": [
        {
          "internalType": "bytes4",
          "name": "interfaceId",
          "type": "bytes4"
        }
      ],
      "name": "supportsInterface",
      "outputs": [
        {
          "internalType": "bool",
          "name": "",
          "type": "bool"
        }
      ],
      "stateMutability": "view",
      "type": "function"
    }
  ],
  "transactionHash": "0xd817cf5de0a96f5accd39d0103c8dcd78d7352ccbb77cfc0e56870ecc4816d86",
  "args": [],
  "solcInputHash": "0cc6fa82c0eeb27ece16b294b847bb89",
  "bytecode": "0x608060405234801561001057600080fd5b50610ddb806100206000396000f3fe608060405234801561001057600080fd5b50600436106100b45760003560e01c806391d148541161007157806391d148541461018c578063a217fddf1461019f578063cc2a9a5b146101a7578063d03aa60c146101ba578063d547741f146101cd578063f4e5ff0d146101e057600080fd5b806301ffc9a7146100b95780631b2df850146100e1578063248a9ca3146101165780632f2ff15d1461013957806336568abe1461014e5780638ce7442614610161575b600080fd5b6100cc6100c7366004610afa565b610208565b60405190151581526020015b60405180910390f35b6101087faf290d8680820aad922855f39b306097b20e28774d6c1ad35a20325630c3a02c81565b6040519081526020016100d8565b610108610124366004610ab7565b60009081526020819052604090206001015490565b61014c610147366004610acf565b61023f565b005b61014c61015c366004610acf565b61026a565b600654610174906001600160a01b031681565b6040516001600160a01b0390911681526020016100d8565b6100cc61019a366004610acf565b6102ed565b610108600081565b61014c6101b5366004610a1b565b610316565b6101086101c8366004610b22565b610444565b61014c6101db366004610acf565b6104f6565b6101f36101ee366004610a8e565b61051c565b604080519283526020830191909152016100d8565b60006001600160e01b03198216637965db0b60e01b148061023957506301ffc9a760e01b6001600160e01b03198316145b92915050565b60008281526020819052604090206001015461025b81336106a3565b6102658383610707565b505050565b6001600160a01b03811633146102df5760405162461bcd60e51b815260206004820152602f60248201527f416363657373436f6e74726f6c3a2063616e206f6e6c792072656e6f756e636560448201526e103937b632b9903337b91039b2b63360891b60648201526084015b60405180910390fd5b6102e9828261078b565b5050565b6000918252602082815260408084206001600160a01b0393909316845291905290205460ff1690565b600154610100900460ff168061032f575060015460ff16155b6103925760405162461bcd60e51b815260206004820152602e60248201527f496e697469616c697a61626c653a20636f6e747261637420697320616c72656160448201526d191e481a5b9a5d1a585b1a5e995960921b60648201526084016102d6565b600154610100900460ff161580156103b4576001805461ffff19166101011790555b6001805462010000600160b01b031916620100006001600160a01b038a81169190910291909117909155600280546001600160a01b03199081168984161790915560038054821687841617905560048054821686841617905560058054821685841617905560068054909116918716919091179055801561043b576001805461ff00191690555b50505050505050565b600080600660009054906101000a90046001600160a01b03166001600160a01b0316638792ed8a6040518163ffffffff1660e01b815260040160206040518083038186803b15801561049557600080fd5b505afa1580156104a9573d6000803e3d6000fd5b505050506040513d601f19601f820116820180604052508101906104cd9190610bf9565b60808401519091506000826104e3606484610d09565b6104ed9190610d29565b95945050505050565b60008281526020819052604090206001015461051281336106a3565b610265838361078b565b6000806000849050600080826001600160a01b0316630902f1ac6040518163ffffffff1660e01b815260040160606040518083038186803b15801561056057600080fd5b505afa158015610574573d6000803e3d6000fd5b505050506040513d601f19601f820116820180604052508101906105989190610bab565b50915091506000836001600160a01b03166318160ddd6040518163ffffffff1660e01b815260040160206040518083038186803b1580156105d857600080fd5b505afa1580156105ec573d6000803e3d6000fd5b505050506040513d601f19601f820116820180604052508101906106109190610bf9565b90508061062757600080955095505050505061069c565b6001600160701b03831661063e576000955061065f565b86610652826001600160701b038616610d09565b61065c9190610d29565b95505b6001600160701b0382166106765760009450610697565b8661068a826001600160701b038516610d09565b6106949190610d29565b94505b505050505b9250929050565b6106ad82826102ed565b6102e9576106c5816001600160a01b031660146107f0565b6106d08360206107f0565b6040516020016106e1929190610c11565b60408051601f198184030181529082905262461bcd60e51b82526102d691600401610c86565b61071182826102ed565b6102e9576000828152602081815260408083206001600160a01b03851684529091529020805460ff191660011790556107473390565b6001600160a01b0316816001600160a01b0316837f2f8788117e7eff1d82e926ec794901d17c78024a50270940304540a733656f0d60405160405180910390a45050565b61079582826102ed565b156102e9576000828152602081815260408083206001600160a01b0385168085529252808320805460ff1916905551339285917ff6391f5c32d9c69d2a47ea670b442974b53935d1edc7fd64eb21e047a839171b9190a45050565b606060006107ff836002610d29565b61080a906002610cf1565b67ffffffffffffffff81111561083057634e487b7160e01b600052604160045260246000fd5b6040519080825280601f01601f19166020018201604052801561085a576020820181803683370190505b509050600360fc1b8160008151811061088357634e487b7160e01b600052603260045260246000fd5b60200101906001600160f81b031916908160001a905350600f60fb1b816001815181106108c057634e487b7160e01b600052603260045260246000fd5b60200101906001600160f81b031916908160001a90535060006108e4846002610d29565b6108ef906001610cf1565b90505b6001811115610983576f181899199a1a9b1b9c1cb0b131b232b360811b85600f166010811061093157634e487b7160e01b600052603260045260246000fd5b1a60f81b82828151811061095557634e487b7160e01b600052603260045260246000fd5b60200101906001600160f81b031916908160001a90535060049490941c9361097c81610d78565b90506108f2565b5083156109d25760405162461bcd60e51b815260206004820181905260248201527f537472696e67733a20686578206c656e67746820696e73756666696369656e7460448201526064016102d6565b9392505050565b80356001600160a01b03811681146109f057600080fd5b919050565b8035600481106109f057600080fd5b80516001600160701b03811681146109f057600080fd5b60008060008060008060c08789031215610a33578182fd5b610a3c876109d9565b9550610a4a602088016109d9565b9450610a58604088016109d9565b9350610a66606088016109d9565b9250610a74608088016109d9565b9150610a8260a088016109d9565b90509295509295509295565b60008060408385031215610aa0578182fd5b610aa9836109d9565b946020939093013593505050565b600060208284031215610ac8578081fd5b5035919050565b60008060408385031215610ae1578182fd5b82359150610af1602084016109d9565b90509250929050565b600060208284031215610b0b578081fd5b81356001600160e01b0319811681146109d2578182fd5b60006101408284031215610b34578081fd5b610b3c610cb9565b823581526020830135602082015260408301356040820152606083013560608201526080830135608082015260a083013560a082015260c083013560c082015260e083013560e0820152610100808401358183015250610120610ba08185016109f5565b908201529392505050565b600080600060608486031215610bbf578283fd5b610bc884610a04565b9250610bd660208501610a04565b9150604084015163ffffffff81168114610bee578182fd5b809150509250925092565b600060208284031215610c0a578081fd5b5051919050565b7f416363657373436f6e74726f6c3a206163636f756e7420000000000000000000815260008351610c49816017850160208801610d48565b7001034b99036b4b9b9b4b733903937b6329607d1b6017918401918201528351610c7a816028840160208801610d48565b01602801949350505050565b6020815260008251806020840152610ca5816040850160208701610d48565b601f01601f19169190910160400192915050565b604051610140810167ffffffffffffffff81118282101715610ceb57634e487b7160e01b600052604160045260246000fd5b60405290565b60008219821115610d0457610d04610d8f565b500190565b600082610d2457634e487b7160e01b81526012600452602481fd5b500490565b6000816000190483118215151615610d4357610d43610d8f565b500290565b60005b83811015610d63578181015183820152602001610d4b565b83811115610d72576000848401525b50505050565b600081610d8757610d87610d8f565b506000190190565b634e487b7160e01b600052601160045260246000fdfea2646970667358221220cf5f26481bf694e15b65df241310cc78c2551e5378a30f0c1379481fbaa718c564736f6c63430008040033",
  "devdoc": {
    "kind": "dev",
    "methods": {
      "getRoleAdmin(bytes32)": {
        "details": "Returns the admin role that controls `role`. See {grantRole} and {revokeRole}. To change a role's admin, use {_setRoleAdmin}."
      },
      "grantRole(bytes32,address)": {
        "details": "Grants `role` to `account`. If `account` had not been already granted `role`, emits a {RoleGranted} event. Requirements: - the caller must have ``role``'s admin role."
      },
      "hasRole(bytes32,address)": {
        "details": "Returns `true` if `account` has been granted `role`."
      },
      "renounceRole(bytes32,address)": {
        "details": "Revokes `role` from the calling account. Roles are often managed via {grantRole} and {revokeRole}: this function's purpose is to provide a mechanism for accounts to lose their privileges if they are compromised (such as when a trusted device is misplaced). If the calling account had been granted `role`, emits a {RoleRevoked} event. Requirements: - the caller must be `account`."
      },
      "revokeRole(bytes32,address)": {
        "details": "Revokes `role` from `account`. If `account` had been granted `role`, emits a {RoleRevoked} event. Requirements: - the caller must have ``role``'s admin role."
      },
      "supportsInterface(bytes4)": {
        "details": "See {IERC165-supportsInterface}."
      }
    },
    "version": 1
  },
  "userdoc": {
    "kind": "user",
    "methods": {
      "MANAGER()": {
        "notice": "role of the manager contract"
      }
    },
    "version": 1
  },
  "storageLayout": {
    "storage": [
      {
        "astId": 3872,
        "contract": "contracts/polygon/implementations/LiquidityCalculator.sol:LiquidityCalculator",
        "label": "_roles",
        "offset": 0,
        "slot": "0",
        "type": "t_mapping(t_bytes32,t_struct(RoleData)3867_storage)"
      },
      {
        "astId": 7665,
        "contract": "contracts/polygon/implementations/LiquidityCalculator.sol:LiquidityCalculator",
        "label": "_initialized",
        "offset": 0,
        "slot": "1",
        "type": "t_bool"
      },
      {
        "astId": 7668,
        "contract": "contracts/polygon/implementations/LiquidityCalculator.sol:LiquidityCalculator",
        "label": "_initializing",
        "offset": 1,
        "slot": "1",
        "type": "t_bool"
      },
      {
        "astId": 24383,
        "contract": "contracts/polygon/implementations/LiquidityCalculator.sol:LiquidityCalculator",
        "label": "_managerAddress",
        "offset": 2,
        "slot": "1",
        "type": "t_address"
      },
      {
        "astId": 24385,
        "contract": "contracts/polygon/implementations/LiquidityCalculator.sol:LiquidityCalculator",
        "label": "_swapAddress",
        "offset": 0,
        "slot": "2",
        "type": "t_address"
      },
      {
        "astId": 24387,
        "contract": "contracts/polygon/implementations/LiquidityCalculator.sol:LiquidityCalculator",
        "label": "_perpetualPoolLiteAddress",
        "offset": 0,
        "slot": "3",
        "type": "t_address"
      },
      {
        "astId": 24389,
        "contract": "contracts/polygon/implementations/LiquidityCalculator.sol:LiquidityCalculator",
        "label": "_fundingTokenAddress",
        "offset": 0,
        "slot": "4",
        "type": "t_address"
      },
      {
        "astId": 24391,
        "contract": "contracts/polygon/implementations/LiquidityCalculator.sol:LiquidityCalculator",
        "label": "_jotAddress",
        "offset": 0,
        "slot": "5",
        "type": "t_address"
      },
      {
        "astId": 24394,
        "contract": "contracts/polygon/implementations/LiquidityCalculator.sol:LiquidityCalculator",
        "label": "protocol",
        "offset": 0,
        "slot": "6",
        "type": "t_contract(ProtocolParameters)23339"
      }
    ],
    "types": {
      "t_address": {
        "encoding": "inplace",
        "label": "address",
        "numberOfBytes": "20"
      },
      "t_bool": {
        "encoding": "inplace",
        "label": "bool",
        "numberOfBytes": "1"
      },
      "t_bytes32": {
        "encoding": "inplace",
        "label": "bytes32",
        "numberOfBytes": "32"
      },
      "t_contract(ProtocolParameters)23339": {
        "encoding": "inplace",
        "label": "contract ProtocolParameters",
        "numberOfBytes": "20"
      },
      "t_mapping(t_address,t_bool)": {
        "encoding": "mapping",
        "key": "t_address",
        "label": "mapping(address => bool)",
        "numberOfBytes": "32",
        "value": "t_bool"
      },
      "t_mapping(t_bytes32,t_struct(RoleData)3867_storage)": {
        "encoding": "mapping",
        "key": "t_bytes32",
        "label": "mapping(bytes32 => struct AccessControl.RoleData)",
        "numberOfBytes": "32",
        "value": "t_struct(RoleData)3867_storage"
      },
      "t_struct(RoleData)3867_storage": {
        "encoding": "inplace",
        "label": "struct AccessControl.RoleData",
        "members": [
          {
            "astId": 3864,
            "contract": "contracts/polygon/implementations/LiquidityCalculator.sol:LiquidityCalculator",
            "label": "members",
            "offset": 0,
            "slot": "0",
            "type": "t_mapping(t_address,t_bool)"
          },
          {
            "astId": 3866,
            "contract": "contracts/polygon/implementations/LiquidityCalculator.sol:LiquidityCalculator",
            "label": "adminRole",
            "offset": 0,
            "slot": "1",
            "type": "t_bytes32"
          }
        ],
        "numberOfBytes": "64"
      }
    }
  }
}