{
  "address": "0x3EF53c14cbA7E27d1a39418f25c5e0EA1B9a6447",
  "abi": [
    {
      "inputs": [],
      "stateMutability": "nonpayable",
      "type": "constructor"
    },
    {
      "anonymous": false,
      "inputs": [
        {
          "indexed": true,
          "internalType": "address",
          "name": "owner",
          "type": "address"
        },
        {
          "indexed": true,
          "internalType": "address",
          "name": "spender",
          "type": "address"
        },
        {
          "indexed": false,
          "internalType": "uint256",
          "name": "amount",
          "type": "uint256"
        }
      ],
      "name": "Approval",
      "type": "event"
    },
    {
      "anonymous": false,
      "inputs": [
        {
          "indexed": true,
          "internalType": "bytes32",
          "name": "role",
          "type": "bytes32"
        },
        {
          "indexed": true,
          "internalType": "bytes32",
          "name": "previousAdminRole",
          "type": "bytes32"
        },
        {
          "indexed": true,
          "internalType": "bytes32",
          "name": "newAdminRole",
          "type": "bytes32"
        }
      ],
      "name": "RoleAdminChanged",
      "type": "event"
    },
    {
      "anonymous": false,
      "inputs": [
        {
          "indexed": true,
          "internalType": "bytes32",
          "name": "role",
          "type": "bytes32"
        },
        {
          "indexed": true,
          "internalType": "address",
          "name": "account",
          "type": "address"
        },
        {
          "indexed": true,
          "internalType": "address",
          "name": "sender",
          "type": "address"
        }
      ],
      "name": "RoleGranted",
      "type": "event"
    },
    {
      "anonymous": false,
      "inputs": [
        {
          "indexed": true,
          "internalType": "bytes32",
          "name": "role",
          "type": "bytes32"
        },
        {
          "indexed": true,
          "internalType": "address",
          "name": "account",
          "type": "address"
        },
        {
          "indexed": true,
          "internalType": "address",
          "name": "sender",
          "type": "address"
        }
      ],
      "name": "RoleRevoked",
      "type": "event"
    },
    {
      "anonymous": false,
      "inputs": [
        {
          "indexed": true,
          "internalType": "address",
          "name": "from",
          "type": "address"
        },
        {
          "indexed": true,
          "internalType": "address",
          "name": "to",
          "type": "address"
        },
        {
          "indexed": false,
          "internalType": "uint256",
          "name": "amount",
          "type": "uint256"
        }
      ],
      "name": "Transfer",
      "type": "event"
    },
    {
      "inputs": [],
      "name": "DEFAULT_ADMIN_ROLE",
      "outputs": [
        {
          "internalType": "bytes32",
          "name": "",
          "type": "bytes32"
        }
      ],
      "stateMutability": "view",
      "type": "function"
    },
    {
      "inputs": [],
      "name": "ROUTER",
      "outputs": [
        {
          "internalType": "bytes32",
          "name": "",
          "type": "bytes32"
        }
      ],
      "stateMutability": "view",
      "type": "function"
    },
    {
      "inputs": [
        {
          "internalType": "address",
          "name": "owner",
          "type": "address"
        },
        {
          "internalType": "address",
          "name": "spender",
          "type": "address"
        }
      ],
      "name": "allowance",
      "outputs": [
        {
          "internalType": "uint256",
          "name": "",
          "type": "uint256"
        }
      ],
      "stateMutability": "view",
      "type": "function"
    },
    {
      "inputs": [
        {
          "internalType": "address",
          "name": "spender",
          "type": "address"
        },
        {
          "internalType": "uint256",
          "name": "amount",
          "type": "uint256"
        }
      ],
      "name": "approve",
      "outputs": [
        {
          "internalType": "bool",
          "name": "",
          "type": "bool"
        }
      ],
      "stateMutability": "nonpayable",
      "type": "function"
    },
    {
      "inputs": [
        {
          "internalType": "address",
          "name": "account",
          "type": "address"
        }
      ],
      "name": "balanceOf",
      "outputs": [
        {
          "internalType": "uint256",
          "name": "",
          "type": "uint256"
        }
      ],
      "stateMutability": "view",
      "type": "function"
    },
    {
      "inputs": [
        {
          "internalType": "address",
          "name": "account",
          "type": "address"
        },
        {
          "internalType": "uint256",
          "name": "amount",
          "type": "uint256"
        }
      ],
      "name": "burn",
      "outputs": [],
      "stateMutability": "nonpayable",
      "type": "function"
    },
    {
      "inputs": [],
      "name": "decimals",
      "outputs": [
        {
          "internalType": "uint8",
          "name": "",
          "type": "uint8"
        }
      ],
      "stateMutability": "pure",
      "type": "function"
    },
    {
      "inputs": [
        {
          "internalType": "bytes32",
          "name": "role",
          "type": "bytes32"
        }
      ],
      "name": "getRoleAdmin",
      "outputs": [
        {
          "internalType": "bytes32",
          "name": "",
          "type": "bytes32"
        }
      ],
      "stateMutability": "view",
      "type": "function"
    },
    {
      "inputs": [
        {
          "internalType": "bytes32",
          "name": "role",
          "type": "bytes32"
        },
        {
          "internalType": "address",
          "name": "account",
          "type": "address"
        }
      ],
      "name": "grantRole",
      "outputs": [],
      "stateMutability": "nonpayable",
      "type": "function"
    },
    {
      "inputs": [
        {
          "internalType": "bytes32",
          "name": "role",
          "type": "bytes32"
        },
        {
          "internalType": "address",
          "name": "account",
          "type": "address"
        }
      ],
      "name": "hasRole",
      "outputs": [
        {
          "internalType": "bool",
          "name": "",
          "type": "bool"
        }
      ],
      "stateMutability": "view",
      "type": "function"
    },
    {
      "inputs": [
        {
          "internalType": "string",
          "name": "name_",
          "type": "string"
        },
        {
          "internalType": "string",
          "name": "symbol_",
          "type": "string"
        }
      ],
      "name": "initialize",
      "outputs": [],
      "stateMutability": "nonpayable",
      "type": "function"
    },
    {
      "inputs": [
        {
          "internalType": "address",
          "name": "account",
          "type": "address"
        },
        {
          "internalType": "uint256",
          "name": "amount",
          "type": "uint256"
        }
      ],
      "name": "mint",
      "outputs": [],
      "stateMutability": "nonpayable",
      "type": "function"
    },
    {
      "inputs": [],
      "name": "name",
      "outputs": [
        {
          "internalType": "string",
          "name": "",
          "type": "string"
        }
      ],
      "stateMutability": "view",
      "type": "function"
    },
    {
      "inputs": [],
      "name": "pool",
      "outputs": [
        {
          "internalType": "address",
          "name": "",
          "type": "address"
        }
      ],
      "stateMutability": "view",
      "type": "function"
    },
    {
      "inputs": [
        {
          "internalType": "bytes32",
          "name": "role",
          "type": "bytes32"
        },
        {
          "internalType": "address",
          "name": "account",
          "type": "address"
        }
      ],
      "name": "renounceRole",
      "outputs": [],
      "stateMutability": "nonpayable",
      "type": "function"
    },
    {
      "inputs": [
        {
          "internalType": "bytes32",
          "name": "role",
          "type": "bytes32"
        },
        {
          "internalType": "address",
          "name": "account",
          "type": "address"
        }
      ],
      "name": "revokeRole",
      "outputs": [],
      "stateMutability": "nonpayable",
      "type": "function"
    },
    {
      "inputs": [
        {
          "internalType": "address",
          "name": "newPool",
          "type": "address"
        }
      ],
      "name": "setPool",
      "outputs": [],
      "stateMutability": "nonpayable",
      "type": "function"
    },
    {
      "inputs": [
        {
          "internalType": "bytes4",
          "name": "interfaceId",
          "type": "bytes4"
        }
      ],
      "name": "supportsInterface",
      "outputs": [
        {
          "internalType": "bool",
          "name": "",
          "type": "bool"
        }
      ],
      "stateMutability": "view",
      "type": "function"
    },
    {
      "inputs": [],
      "name": "symbol",
      "outputs": [
        {
          "internalType": "string",
          "name": "",
          "type": "string"
        }
      ],
      "stateMutability": "view",
      "type": "function"
    },
    {
      "inputs": [],
      "name": "totalSupply",
      "outputs": [
        {
          "internalType": "uint256",
          "name": "",
          "type": "uint256"
        }
      ],
      "stateMutability": "view",
      "type": "function"
    },
    {
      "inputs": [
        {
          "internalType": "address",
          "name": "to",
          "type": "address"
        },
        {
          "internalType": "uint256",
          "name": "amount",
          "type": "uint256"
        }
      ],
      "name": "transfer",
      "outputs": [
        {
          "internalType": "bool",
          "name": "",
          "type": "bool"
        }
      ],
      "stateMutability": "nonpayable",
      "type": "function"
    },
    {
      "inputs": [
        {
          "internalType": "address",
          "name": "from",
          "type": "address"
        },
        {
          "internalType": "address",
          "name": "to",
          "type": "address"
        },
        {
          "internalType": "uint256",
          "name": "amount",
          "type": "uint256"
        }
      ],
      "name": "transferFrom",
      "outputs": [
        {
          "internalType": "bool",
          "name": "",
          "type": "bool"
        }
      ],
      "stateMutability": "nonpayable",
      "type": "function"
    }
  ],
  "transactionHash": "0xbef5f3a58b05bb8c7004d276132c42131331f006a7b8c9cc5bd5815da3464403",
  "args": [],
  "solcInputHash": "9631ee2e88a0c516d11e20450e96dfe6",
  "bytecode": "0x60806040523480156200001157600080fd5b50604080518082018252601681527f467574757265204c697175696469747920546f6b656e0000000000000000000060208083019182528351808501909452600384526211931560ea1b908401528151919291620000729160029162000091565b5080516200008890600390602084019062000091565b50505062000174565b8280546200009f9062000137565b90600052602060002090601f016020900481019282620000c357600085556200010e565b82601f10620000de57805160ff19168380011785556200010e565b828001600101855582156200010e579182015b828111156200010e578251825591602001919060010190620000f1565b506200011c92915062000120565b5090565b5b808211156200011c576000815560010162000121565b600181811c908216806200014c57607f821691505b602082108114156200016e57634e487b7160e01b600052602260045260246000fd5b50919050565b61152f80620001846000396000f3fe608060405234801561001057600080fd5b50600436106101425760003560e01c806340c10f19116100b857806395d89b411161007c57806395d89b41146102ce5780639dc29fac146102d6578063a217fddf146102e9578063a9059cbb146102f1578063d547741f14610304578063dd62ed3e1461031757600080fd5b806340c10f19146102595780634437152a1461026c5780634cd88b761461027f57806370a082311461029257806391d14854146102bb57600080fd5b806323b872dd1161010a57806323b872dd146101c4578063248a9ca3146101d75780632f2ff15d146101fb578063313ce5671461021057806332fe7b261461021f57806336568abe1461024657600080fd5b806301ffc9a71461014757806306fdde031461016f578063095ea7b31461018457806316f0115b1461019757806318160ddd146101b2575b600080fd5b61015a6101553660046112cc565b610350565b60405190151581526020015b60405180910390f35b610177610387565b60405161016691906113ca565b61015a610192366004611269565b610419565b6009546040516001600160a01b039091168152602001610166565b6004545b604051908152602001610166565b61015a6101d236600461122e565b61048a565b6101b66101e5366004611292565b6000908152600160208190526040909120015490565b61020e6102093660046112aa565b61067b565b005b60405160128152602001610166565b6101b67feb4fd9f47c063b511700e1c8e94e2fa4088ffca1fdcef1e60edf1beecd1b2e6481565b61020e6102543660046112aa565b6106a7565b61020e610267366004611269565b610725565b61020e61027a3660046111e2565b610855565b61020e61028d3660046112f4565b6108fc565b6101b66102a03660046111e2565b6001600160a01b031660009081526005602052604090205490565b61015a6102c93660046112aa565b610a02565b610177610a2d565b61020e6102e4366004611269565b610a3c565b6101b6600081565b61015a6102ff366004611269565b610b82565b61020e6103123660046112aa565b610c53565b6101b66103253660046111fc565b6001600160a01b03918216600090815260066020908152604080832093909416825291909152205490565b60006001600160e01b03198216637965db0b60e01b148061038157506301ffc9a760e01b6001600160e01b03198316145b92915050565b60606002805461039690611492565b80601f01602080910402602001604051908101604052809291908181526020018280546103c290611492565b801561040f5780601f106103e45761010080835404028352916020019161040f565b820191906000526020600020905b8154815290600101906020018083116103f257829003601f168201915b5050505050905090565b60006001600160a01b0383166104765760405162461bcd60e51b815260206004820152601b60248201527f45524332302e617070726f76653a20746f20302061646472657373000000000060448201526064015b60405180910390fd5b610481338484610c7a565b50600192915050565b60006001600160a01b0383166104e25760405162461bcd60e51b815260206004820181905260248201527f45524332302e7472616e7366657246726f6d3a20746f20302061646472657373604482015260640161046d565b6001600160a01b03841660009081526005602052604090205482111561055d5760405162461bcd60e51b815260206004820152602a60248201527f45524332302e7472616e7366657246726f6d3a20616d6f756e7420657863656560448201526964732062616c616e636560b01b606482015260840161046d565b336001600160a01b0385161480159061059b57506001600160a01b038416600090815260066020908152604080832033845290915290205460001914155b15610666576001600160a01b03841660009081526006602090815260408083203384529091529020548211156106285760405162461bcd60e51b815260206004820152602c60248201527f45524332302e7472616e7366657246726f6d3a20616d6f756e7420657863656560448201526b647320616c6c6f77616e636560a01b606482015260840161046d565b6001600160a01b0384166000908152600660209081526040808320338452909152812054610657908490611434565b9050610664853383610c7a565b505b610671848484610cdc565b5060019392505050565b600082815260016020819052604090912001546106988133610d7d565b6106a28383610de1565b505050565b6001600160a01b03811633146107175760405162461bcd60e51b815260206004820152602f60248201527f416363657373436f6e74726f6c3a2063616e206f6e6c792072656e6f756e636560448201526e103937b632b9903337b91039b2b63360891b606482015260840161046d565b6107218282610e4c565b5050565b6009546001600160a01b031633146107735760405162461bcd60e51b815260206004820152601160248201527013151bdad95b8e881bdb9b1e481c1bdbdb607a1b604482015260640161046d565b6001600160a01b0382166107c95760405162461bcd60e51b815260206004820152601960248201527f4c546f6b656e3a206d696e7420746f2030206164647265737300000000000000604482015260640161046d565b6001600160a01b038216600090815260056020526040812080548392906107f19084906113fd565b92505081905550806004600082825461080a91906113fd565b90915550506040518181526001600160a01b038316906000907fddf252ad1be2c89b69c2b068fc378daa952ba7f163c4a11628f55a4df523b3ef906020015b60405180910390a35050565b7feb4fd9f47c063b511700e1c8e94e2fa4088ffca1fdcef1e60edf1beecd1b2e646108808133610d7d565b6009546001600160a01b0316156108d95760405162461bcd60e51b815260206004820152601b60248201527f4c546f6b656e2e736574506f6f6c3a206e6f7420616c6c6f7765640000000000604482015260640161046d565b50600980546001600160a01b0319166001600160a01b0392909216919091179055565b600054610100900460ff1680610915575060005460ff16155b6109785760405162461bcd60e51b815260206004820152602e60248201527f496e697469616c697a61626c653a20636f6e747261637420697320616c72656160448201526d191e481a5b9a5d1a585b1a5e995960921b606482015260840161046d565b600054610100900460ff1615801561099a576000805461ffff19166101011790555b82516109ad9060079060208601906110a6565b5081516109c19060089060208501906110a6565b506109ec7feb4fd9f47c063b511700e1c8e94e2fa4088ffca1fdcef1e60edf1beecd1b2e6433610eb3565b80156106a2576000805461ff0019169055505050565b60009182526001602090815260408084206001600160a01b0393909316845291905290205460ff1690565b60606003805461039690611492565b6009546001600160a01b03163314610a8a5760405162461bcd60e51b815260206004820152601160248201527013151bdad95b8e881bdb9b1e481c1bdbdb607a1b604482015260640161046d565b6001600160a01b038216600090815260056020526040902054811115610afe5760405162461bcd60e51b815260206004820152602360248201527f4c546f6b656e3a206275726e20616d6f756e7420657863656564732062616c616044820152626e636560e81b606482015260840161046d565b6001600160a01b03821660009081526005602052604081208054839290610b26908490611434565b925050819055508060046000828254610b3f9190611434565b90915550506040518181526000906001600160a01b038416907fddf252ad1be2c89b69c2b068fc378daa952ba7f163c4a11628f55a4df523b3ef90602001610849565b60006001600160a01b038316610bda5760405162461bcd60e51b815260206004820152601c60248201527f45524332302e7472616e736665723a20746f2030206164647265737300000000604482015260640161046d565b33600090815260056020526040902054821115610c485760405162461bcd60e51b815260206004820152602660248201527f45524332302e7472616e736665723a20616d6f756e7420657863656564732062604482015265616c616e636560d01b606482015260840161046d565b610481338484610cdc565b60008281526001602081905260409091200154610c708133610d7d565b6106a28383610e4c565b6001600160a01b0383811660008181526006602090815260408083209487168084529482529182902085905590518481527f8c5be1e5ebec7d5bd14f71427d1e84f3dd0314c0f7b2291e5b200ac8c7c3b92591015b60405180910390a3505050565b6001600160a01b03831660009081526005602052604081208054839290610d04908490611434565b90915550506001600160a01b03821660009081526005602052604081208054839290610d319084906113fd565b92505081905550816001600160a01b0316836001600160a01b03167fddf252ad1be2c89b69c2b068fc378daa952ba7f163c4a11628f55a4df523b3ef83604051610ccf91815260200190565b610d878282610a02565b61072157610d9f816001600160a01b03166014610ebd565b610daa836020610ebd565b604051602001610dbb929190611355565b60408051601f198184030181529082905262461bcd60e51b825261046d916004016113ca565b610deb8282610a02565b6107215760008281526001602081815260408084206001600160a01b0386168086529252808420805460ff19169093179092559051339285917f2f8788117e7eff1d82e926ec794901d17c78024a50270940304540a733656f0d9190a45050565b610e568282610a02565b156107215760008281526001602090815260408083206001600160a01b0385168085529252808320805460ff1916905551339285917ff6391f5c32d9c69d2a47ea670b442974b53935d1edc7fd64eb21e047a839171b9190a45050565b6107218282610de1565b60606000610ecc836002611415565b610ed79060026113fd565b67ffffffffffffffff811115610efd57634e487b7160e01b600052604160045260246000fd5b6040519080825280601f01601f191660200182016040528015610f27576020820181803683370190505b509050600360fc1b81600081518110610f5057634e487b7160e01b600052603260045260246000fd5b60200101906001600160f81b031916908160001a905350600f60fb1b81600181518110610f8d57634e487b7160e01b600052603260045260246000fd5b60200101906001600160f81b031916908160001a9053506000610fb1846002611415565b610fbc9060016113fd565b90505b6001811115611050576f181899199a1a9b1b9c1cb0b131b232b360811b85600f1660108110610ffe57634e487b7160e01b600052603260045260246000fd5b1a60f81b82828151811061102257634e487b7160e01b600052603260045260246000fd5b60200101906001600160f81b031916908160001a90535060049490941c936110498161147b565b9050610fbf565b50831561109f5760405162461bcd60e51b815260206004820181905260248201527f537472696e67733a20686578206c656e67746820696e73756666696369656e74604482015260640161046d565b9392505050565b8280546110b290611492565b90600052602060002090601f0160209004810192826110d4576000855561111a565b82601f106110ed57805160ff191683800117855561111a565b8280016001018555821561111a579182015b8281111561111a5782518255916020019190600101906110ff565b5061112692915061112a565b5090565b5b80821115611126576000815560010161112b565b80356001600160a01b038116811461115657600080fd5b919050565b600082601f83011261116b578081fd5b813567ffffffffffffffff80821115611186576111866114e3565b604051601f8301601f19908116603f011681019082821181831017156111ae576111ae6114e3565b816040528381528660208588010111156111c6578485fd5b8360208701602083013792830160200193909352509392505050565b6000602082840312156111f3578081fd5b61109f8261113f565b6000806040838503121561120e578081fd5b6112178361113f565b91506112256020840161113f565b90509250929050565b600080600060608486031215611242578081fd5b61124b8461113f565b92506112596020850161113f565b9150604084013590509250925092565b6000806040838503121561127b578182fd5b6112848361113f565b946020939093013593505050565b6000602082840312156112a3578081fd5b5035919050565b600080604083850312156112bc578182fd5b823591506112256020840161113f565b6000602082840312156112dd578081fd5b81356001600160e01b03198116811461109f578182fd5b60008060408385031215611306578182fd5b823567ffffffffffffffff8082111561131d578384fd5b6113298683870161115b565b9350602085013591508082111561133e578283fd5b5061134b8582860161115b565b9150509250929050565b7f416363657373436f6e74726f6c3a206163636f756e742000000000000000000081526000835161138d81601785016020880161144b565b7001034b99036b4b9b9b4b733903937b6329607d1b60179184019182015283516113be81602884016020880161144b565b01602801949350505050565b60208152600082518060208401526113e981604085016020870161144b565b601f01601f19169190910160400192915050565b60008219821115611410576114106114cd565b500190565b600081600019048311821515161561142f5761142f6114cd565b500290565b600082821015611446576114466114cd565b500390565b60005b8381101561146657818101518382015260200161144e565b83811115611475576000848401525b50505050565b60008161148a5761148a6114cd565b506000190190565b600181811c908216806114a657607f821691505b602082108114156114c757634e487b7160e01b600052602260045260246000fd5b50919050565b634e487b7160e01b600052601160045260246000fd5b634e487b7160e01b600052604160045260246000fdfea26469706673582212206217748181ef7b27abed0f49c827bfb1d87f75c5330468fbfeccfccbe01bdc7464736f6c63430008040033",
  "devdoc": {
    "kind": "dev",
    "methods": {
      "getRoleAdmin(bytes32)": {
        "details": "Returns the admin role that controls `role`. See {grantRole} and {revokeRole}. To change a role's admin, use {_setRoleAdmin}."
      },
      "grantRole(bytes32,address)": {
        "details": "Grants `role` to `account`. If `account` had not been already granted `role`, emits a {RoleGranted} event. Requirements: - the caller must have ``role``'s admin role."
      },
      "hasRole(bytes32,address)": {
        "details": "Returns `true` if `account` has been granted `role`."
      },
      "renounceRole(bytes32,address)": {
        "details": "Revokes `role` from the calling account. Roles are often managed via {grantRole} and {revokeRole}: this function's purpose is to provide a mechanism for accounts to lose their privileges if they are compromised (such as when a trusted device is misplaced). If the calling account had been granted `role`, emits a {RoleRevoked} event. Requirements: - the caller must be `account`."
      },
      "revokeRole(bytes32,address)": {
        "details": "Revokes `role` from `account`. If `account` had been granted `role`, emits a {RoleRevoked} event. Requirements: - the caller must have ``role``'s admin role."
      },
      "supportsInterface(bytes4)": {
        "details": "See {IERC165-supportsInterface}."
      }
    },
    "version": 1
  },
  "userdoc": {
    "kind": "user",
    "methods": {},
    "version": 1
  },
  "storageLayout": {
    "storage": [
      {
        "astId": 5456,
        "contract": "contracts/polygon/perpetual_futures/tokens/LTokenLite.sol:LTokenLite",
        "label": "_initialized",
        "offset": 0,
        "slot": "0",
        "type": "t_bool"
      },
      {
        "astId": 5459,
        "contract": "contracts/polygon/perpetual_futures/tokens/LTokenLite.sol:LTokenLite",
        "label": "_initializing",
        "offset": 1,
        "slot": "0",
        "type": "t_bool"
      },
      {
        "astId": 2284,
        "contract": "contracts/polygon/perpetual_futures/tokens/LTokenLite.sol:LTokenLite",
        "label": "_roles",
        "offset": 0,
        "slot": "1",
        "type": "t_mapping(t_bytes32,t_struct(RoleData)2279_storage)"
      },
      {
        "astId": 21319,
        "contract": "contracts/polygon/perpetual_futures/tokens/LTokenLite.sol:LTokenLite",
        "label": "_name",
        "offset": 0,
        "slot": "2",
        "type": "t_string_storage"
      },
      {
        "astId": 21321,
        "contract": "contracts/polygon/perpetual_futures/tokens/LTokenLite.sol:LTokenLite",
        "label": "_symbol",
        "offset": 0,
        "slot": "3",
        "type": "t_string_storage"
      },
      {
        "astId": 21323,
        "contract": "contracts/polygon/perpetual_futures/tokens/LTokenLite.sol:LTokenLite",
        "label": "_totalSupply",
        "offset": 0,
        "slot": "4",
        "type": "t_uint256"
      },
      {
        "astId": 21327,
        "contract": "contracts/polygon/perpetual_futures/tokens/LTokenLite.sol:LTokenLite",
        "label": "_balances",
        "offset": 0,
        "slot": "5",
        "type": "t_mapping(t_address,t_uint256)"
      },
      {
        "astId": 21333,
        "contract": "contracts/polygon/perpetual_futures/tokens/LTokenLite.sol:LTokenLite",
        "label": "_allowances",
        "offset": 0,
        "slot": "6",
        "type": "t_mapping(t_address,t_mapping(t_address,t_uint256))"
      },
      {
        "astId": 22152,
        "contract": "contracts/polygon/perpetual_futures/tokens/LTokenLite.sol:LTokenLite",
        "label": "_proxiedName",
        "offset": 0,
        "slot": "7",
        "type": "t_string_storage"
      },
      {
        "astId": 22154,
        "contract": "contracts/polygon/perpetual_futures/tokens/LTokenLite.sol:LTokenLite",
        "label": "_proxiedSymbol",
        "offset": 0,
        "slot": "8",
        "type": "t_string_storage"
      },
      {
        "astId": 22156,
        "contract": "contracts/polygon/perpetual_futures/tokens/LTokenLite.sol:LTokenLite",
        "label": "_pool",
        "offset": 0,
        "slot": "9",
        "type": "t_address"
      }
    ],
    "types": {
      "t_address": {
        "encoding": "inplace",
        "label": "address",
        "numberOfBytes": "20"
      },
      "t_bool": {
        "encoding": "inplace",
        "label": "bool",
        "numberOfBytes": "1"
      },
      "t_bytes32": {
        "encoding": "inplace",
        "label": "bytes32",
        "numberOfBytes": "32"
      },
      "t_mapping(t_address,t_bool)": {
        "encoding": "mapping",
        "key": "t_address",
        "label": "mapping(address => bool)",
        "numberOfBytes": "32",
        "value": "t_bool"
      },
      "t_mapping(t_address,t_mapping(t_address,t_uint256))": {
        "encoding": "mapping",
        "key": "t_address",
        "label": "mapping(address => mapping(address => uint256))",
        "numberOfBytes": "32",
        "value": "t_mapping(t_address,t_uint256)"
      },
      "t_mapping(t_address,t_uint256)": {
        "encoding": "mapping",
        "key": "t_address",
        "label": "mapping(address => uint256)",
        "numberOfBytes": "32",
        "value": "t_uint256"
      },
      "t_mapping(t_bytes32,t_struct(RoleData)2279_storage)": {
        "encoding": "mapping",
        "key": "t_bytes32",
        "label": "mapping(bytes32 => struct AccessControl.RoleData)",
        "numberOfBytes": "32",
        "value": "t_struct(RoleData)2279_storage"
      },
      "t_string_storage": {
        "encoding": "bytes",
        "label": "string",
        "numberOfBytes": "32"
      },
      "t_struct(RoleData)2279_storage": {
        "encoding": "inplace",
        "label": "struct AccessControl.RoleData",
        "members": [
          {
            "astId": 2276,
            "contract": "contracts/polygon/perpetual_futures/tokens/LTokenLite.sol:LTokenLite",
            "label": "members",
            "offset": 0,
            "slot": "0",
            "type": "t_mapping(t_address,t_bool)"
          },
          {
            "astId": 2278,
            "contract": "contracts/polygon/perpetual_futures/tokens/LTokenLite.sol:LTokenLite",
            "label": "adminRole",
            "offset": 0,
            "slot": "1",
            "type": "t_bytes32"
          }
        ],
        "numberOfBytes": "64"
      },
      "t_uint256": {
        "encoding": "inplace",
        "label": "uint256",
        "numberOfBytes": "32"
      }
    }
  }
}