{
  "address": "0x9984Ea1055eEb242BbEd8C08040e659a6d6Eea26",
  "abi": [
    {
      "inputs": [
        {
          "internalType": "string",
          "name": "name_",
          "type": "string"
        },
        {
          "internalType": "string",
          "name": "symbol_",
          "type": "string"
        }
      ],
      "stateMutability": "nonpayable",
      "type": "constructor"
    },
    {
      "anonymous": false,
      "inputs": [
        {
          "indexed": true,
          "internalType": "address",
          "name": "owner",
          "type": "address"
        },
        {
          "indexed": true,
          "internalType": "address",
          "name": "spender",
          "type": "address"
        },
        {
          "indexed": false,
          "internalType": "uint256",
          "name": "amount",
          "type": "uint256"
        }
      ],
      "name": "Approval",
      "type": "event"
    },
    {
      "anonymous": false,
      "inputs": [
        {
          "indexed": true,
          "internalType": "address",
          "name": "from",
          "type": "address"
        },
        {
          "indexed": true,
          "internalType": "address",
          "name": "to",
          "type": "address"
        },
        {
          "indexed": false,
          "internalType": "uint256",
          "name": "amount",
          "type": "uint256"
        }
      ],
      "name": "Transfer",
      "type": "event"
    },
    {
      "inputs": [
        {
          "internalType": "address",
          "name": "owner",
          "type": "address"
        },
        {
          "internalType": "address",
          "name": "spender",
          "type": "address"
        }
      ],
      "name": "allowance",
      "outputs": [
        {
          "internalType": "uint256",
          "name": "",
          "type": "uint256"
        }
      ],
      "stateMutability": "view",
      "type": "function"
    },
    {
      "inputs": [
        {
          "internalType": "address",
          "name": "spender",
          "type": "address"
        },
        {
          "internalType": "uint256",
          "name": "amount",
          "type": "uint256"
        }
      ],
      "name": "approve",
      "outputs": [
        {
          "internalType": "bool",
          "name": "",
          "type": "bool"
        }
      ],
      "stateMutability": "nonpayable",
      "type": "function"
    },
    {
      "inputs": [
        {
          "internalType": "address",
          "name": "account",
          "type": "address"
        }
      ],
      "name": "balanceOf",
      "outputs": [
        {
          "internalType": "uint256",
          "name": "",
          "type": "uint256"
        }
      ],
      "stateMutability": "view",
      "type": "function"
    },
    {
      "inputs": [
        {
          "internalType": "address",
          "name": "account",
          "type": "address"
        },
        {
          "internalType": "uint256",
          "name": "amount",
          "type": "uint256"
        }
      ],
      "name": "burn",
      "outputs": [],
      "stateMutability": "nonpayable",
      "type": "function"
    },
    {
      "inputs": [],
      "name": "decimals",
      "outputs": [
        {
          "internalType": "uint8",
          "name": "",
          "type": "uint8"
        }
      ],
      "stateMutability": "pure",
      "type": "function"
    },
    {
      "inputs": [
        {
          "internalType": "address",
          "name": "account",
          "type": "address"
        },
        {
          "internalType": "uint256",
          "name": "amount",
          "type": "uint256"
        }
      ],
      "name": "mint",
      "outputs": [],
      "stateMutability": "nonpayable",
      "type": "function"
    },
    {
      "inputs": [],
      "name": "name",
      "outputs": [
        {
          "internalType": "string",
          "name": "",
          "type": "string"
        }
      ],
      "stateMutability": "view",
      "type": "function"
    },
    {
      "inputs": [],
      "name": "pool",
      "outputs": [
        {
          "internalType": "address",
          "name": "",
          "type": "address"
        }
      ],
      "stateMutability": "view",
      "type": "function"
    },
    {
      "inputs": [
        {
          "internalType": "address",
          "name": "newPool",
          "type": "address"
        }
      ],
      "name": "setPool",
      "outputs": [],
      "stateMutability": "nonpayable",
      "type": "function"
    },
    {
      "inputs": [],
      "name": "symbol",
      "outputs": [
        {
          "internalType": "string",
          "name": "",
          "type": "string"
        }
      ],
      "stateMutability": "view",
      "type": "function"
    },
    {
      "inputs": [],
      "name": "totalSupply",
      "outputs": [
        {
          "internalType": "uint256",
          "name": "",
          "type": "uint256"
        }
      ],
      "stateMutability": "view",
      "type": "function"
    },
    {
      "inputs": [
        {
          "internalType": "address",
          "name": "to",
          "type": "address"
        },
        {
          "internalType": "uint256",
          "name": "amount",
          "type": "uint256"
        }
      ],
      "name": "transfer",
      "outputs": [
        {
          "internalType": "bool",
          "name": "",
          "type": "bool"
        }
      ],
      "stateMutability": "nonpayable",
      "type": "function"
    },
    {
      "inputs": [
        {
          "internalType": "address",
          "name": "from",
          "type": "address"
        },
        {
          "internalType": "address",
          "name": "to",
          "type": "address"
        },
        {
          "internalType": "uint256",
          "name": "amount",
          "type": "uint256"
        }
      ],
      "name": "transferFrom",
      "outputs": [
        {
          "internalType": "bool",
          "name": "",
          "type": "bool"
        }
      ],
      "stateMutability": "nonpayable",
      "type": "function"
    }
  ],
  "transactionHash": "0x74693365c79720d21b996324d77dde2e9c630dc53dd443687a01043ca03a4be8",
  "args": [
    "Privi Exchange Liquidity Token",
    "pLT"
  ],
  "solcInputHash": "607a69e31484798c31354cc363f2d7ae",
  "bytecode": "0x60806040523480156200001157600080fd5b5060405162000e6638038062000e668339810160408190526200003491620001c7565b8151829082906200004d9060009060208501906200006e565b508051620000639060019060208401906200006e565b505050505062000281565b8280546200007c906200022e565b90600052602060002090601f016020900481019282620000a05760008555620000eb565b82601f10620000bb57805160ff1916838001178555620000eb565b82800160010185558215620000eb579182015b82811115620000eb578251825591602001919060010190620000ce565b50620000f9929150620000fd565b5090565b5b80821115620000f95760008155600101620000fe565b600082601f83011262000125578081fd5b81516001600160401b03808211156200014257620001426200026b565b604051601f8301601f19908116603f011681019082821181831017156200016d576200016d6200026b565b8160405283815260209250868385880101111562000189578485fd5b8491505b83821015620001ac57858201830151818301840152908201906200018d565b83821115620001bd57848385830101525b9695505050505050565b60008060408385031215620001da578182fd5b82516001600160401b0380821115620001f1578384fd5b620001ff8683870162000114565b9350602085015191508082111562000215578283fd5b50620002248582860162000114565b9150509250929050565b600181811c908216806200024357607f821691505b602082108114156200026557634e487b7160e01b600052602260045260246000fd5b50919050565b634e487b7160e01b600052604160045260246000fd5b610bd580620002916000396000f3fe608060405234801561001057600080fd5b50600436106100cf5760003560e01c806340c10f191161008c57806395d89b411161006657806395d89b41146101b55780639dc29fac146101bd578063a9059cbb146101d0578063dd62ed3e146101e357600080fd5b806340c10f19146101645780634437152a1461017957806370a082311461018c57600080fd5b806306fdde03146100d4578063095ea7b3146100f257806316f0115b1461011557806318160ddd1461013057806323b872dd14610142578063313ce56714610155575b600080fd5b6100dc61021c565b6040516100e99190610acc565b60405180910390f35b610105610100366004610aa3565b6102ae565b60405190151581526020016100e9565b6005546040516001600160a01b0390911681526020016100e9565b6002545b6040519081526020016100e9565b610105610150366004610a68565b61031f565b604051601281526020016100e9565b610177610172366004610aa3565b610510565b005b610177610187366004610a15565b610640565b61013461019a366004610a15565b6001600160a01b031660009081526003602052604090205490565b6100dc6106d0565b6101776101cb366004610aa3565b6106df565b6101056101de366004610aa3565b610825565b6101346101f1366004610a36565b6001600160a01b03918216600090815260046020908152604080832093909416825291909152205490565b60606000805461022b90610b4e565b80601f016020809104026020016040519081016040528092919081815260200182805461025790610b4e565b80156102a45780601f10610279576101008083540402835291602001916102a4565b820191906000526020600020905b81548152906001019060200180831161028757829003601f168201915b5050505050905090565b60006001600160a01b03831661030b5760405162461bcd60e51b815260206004820152601b60248201527f45524332302e617070726f76653a20746f20302061646472657373000000000060448201526064015b60405180910390fd5b6103163384846108f6565b50600192915050565b60006001600160a01b0383166103775760405162461bcd60e51b815260206004820181905260248201527f45524332302e7472616e7366657246726f6d3a20746f203020616464726573736044820152606401610302565b6001600160a01b0384166000908152600360205260409020548211156103f25760405162461bcd60e51b815260206004820152602a60248201527f45524332302e7472616e7366657246726f6d3a20616d6f756e7420657863656560448201526964732062616c616e636560b01b6064820152608401610302565b336001600160a01b0385161480159061043057506001600160a01b038416600090815260046020908152604080832033845290915290205460001914155b156104fb576001600160a01b03841660009081526004602090815260408083203384529091529020548211156104bd5760405162461bcd60e51b815260206004820152602c60248201527f45524332302e7472616e7366657246726f6d3a20616d6f756e7420657863656560448201526b647320616c6c6f77616e636560a01b6064820152608401610302565b6001600160a01b03841660009081526004602090815260408083203384529091528120546104ec908490610b37565b90506104f98533836108f6565b505b610506848484610958565b5060019392505050565b6005546001600160a01b0316331461055e5760405162461bcd60e51b815260206004820152601160248201527013151bdad95b8e881bdb9b1e481c1bdbdb607a1b6044820152606401610302565b6001600160a01b0382166105b45760405162461bcd60e51b815260206004820152601960248201527f4c546f6b656e3a206d696e7420746f20302061646472657373000000000000006044820152606401610302565b6001600160a01b038216600090815260036020526040812080548392906105dc908490610b1f565b9250508190555080600260008282546105f59190610b1f565b90915550506040518181526001600160a01b038316906000907fddf252ad1be2c89b69c2b068fc378daa952ba7f163c4a11628f55a4df523b3ef906020015b60405180910390a35050565b6005546001600160a01b0316158061066257506005546001600160a01b031633145b6106ae5760405162461bcd60e51b815260206004820152601b60248201527f4c546f6b656e2e736574506f6f6c3a206e6f7420616c6c6f77656400000000006044820152606401610302565b600580546001600160a01b0319166001600160a01b0392909216919091179055565b60606001805461022b90610b4e565b6005546001600160a01b0316331461072d5760405162461bcd60e51b815260206004820152601160248201527013151bdad95b8e881bdb9b1e481c1bdbdb607a1b6044820152606401610302565b6001600160a01b0382166000908152600360205260409020548111156107a15760405162461bcd60e51b815260206004820152602360248201527f4c546f6b656e3a206275726e20616d6f756e7420657863656564732062616c616044820152626e636560e81b6064820152608401610302565b6001600160a01b038216600090815260036020526040812080548392906107c9908490610b37565b9250508190555080600260008282546107e29190610b37565b90915550506040518181526000906001600160a01b038416907fddf252ad1be2c89b69c2b068fc378daa952ba7f163c4a11628f55a4df523b3ef90602001610634565b60006001600160a01b03831661087d5760405162461bcd60e51b815260206004820152601c60248201527f45524332302e7472616e736665723a20746f20302061646472657373000000006044820152606401610302565b336000908152600360205260409020548211156108eb5760405162461bcd60e51b815260206004820152602660248201527f45524332302e7472616e736665723a20616d6f756e7420657863656564732062604482015265616c616e636560d01b6064820152608401610302565b610316338484610958565b6001600160a01b0383811660008181526004602090815260408083209487168084529482529182902085905590518481527f8c5be1e5ebec7d5bd14f71427d1e84f3dd0314c0f7b2291e5b200ac8c7c3b92591015b60405180910390a3505050565b6001600160a01b03831660009081526003602052604081208054839290610980908490610b37565b90915550506001600160a01b038216600090815260036020526040812080548392906109ad908490610b1f565b92505081905550816001600160a01b0316836001600160a01b03167fddf252ad1be2c89b69c2b068fc378daa952ba7f163c4a11628f55a4df523b3ef8360405161094b91815260200190565b80356001600160a01b0381168114610a1057600080fd5b919050565b600060208284031215610a26578081fd5b610a2f826109f9565b9392505050565b60008060408385031215610a48578081fd5b610a51836109f9565b9150610a5f602084016109f9565b90509250929050565b600080600060608486031215610a7c578081fd5b610a85846109f9565b9250610a93602085016109f9565b9150604084013590509250925092565b60008060408385031215610ab5578182fd5b610abe836109f9565b946020939093013593505050565b6000602080835283518082850152825b81811015610af857858101830151858201604001528201610adc565b81811115610b095783604083870101525b50601f01601f1916929092016040019392505050565b60008219821115610b3257610b32610b89565b500190565b600082821015610b4957610b49610b89565b500390565b600181811c90821680610b6257607f821691505b60208210811415610b8357634e487b7160e01b600052602260045260246000fd5b50919050565b634e487b7160e01b600052601160045260246000fdfea2646970667358221220a1544446696c742f064c199761942a2252f0c6d72b1a5f1b3ecd4debdbf93a3d64736f6c63430008040033",
  "devdoc": {
    "kind": "dev",
    "methods": {},
    "version": 1
  },
  "userdoc": {
    "kind": "user",
    "methods": {},
    "version": 1
  },
  "storageLayout": {
    "storage": [
      {
        "astId": 21034,
        "contract": "contracts/polygon/perpetual_futures/tokens/LTokenLite.sol:LTokenLite",
        "label": "_name",
        "offset": 0,
        "slot": "0",
        "type": "t_string_storage"
      },
      {
        "astId": 21036,
        "contract": "contracts/polygon/perpetual_futures/tokens/LTokenLite.sol:LTokenLite",
        "label": "_symbol",
        "offset": 0,
        "slot": "1",
        "type": "t_string_storage"
      },
      {
        "astId": 21038,
        "contract": "contracts/polygon/perpetual_futures/tokens/LTokenLite.sol:LTokenLite",
        "label": "_totalSupply",
        "offset": 0,
        "slot": "2",
        "type": "t_uint256"
      },
      {
        "astId": 21042,
        "contract": "contracts/polygon/perpetual_futures/tokens/LTokenLite.sol:LTokenLite",
        "label": "_balances",
        "offset": 0,
        "slot": "3",
        "type": "t_mapping(t_address,t_uint256)"
      },
      {
        "astId": 21048,
        "contract": "contracts/polygon/perpetual_futures/tokens/LTokenLite.sol:LTokenLite",
        "label": "_allowances",
        "offset": 0,
        "slot": "4",
        "type": "t_mapping(t_address,t_mapping(t_address,t_uint256))"
      },
      {
        "astId": 21856,
        "contract": "contracts/polygon/perpetual_futures/tokens/LTokenLite.sol:LTokenLite",
        "label": "_pool",
        "offset": 0,
        "slot": "5",
        "type": "t_address"
      }
    ],
    "types": {
      "t_address": {
        "encoding": "inplace",
        "label": "address",
        "numberOfBytes": "20"
      },
      "t_mapping(t_address,t_mapping(t_address,t_uint256))": {
        "encoding": "mapping",
        "key": "t_address",
        "label": "mapping(address => mapping(address => uint256))",
        "numberOfBytes": "32",
        "value": "t_mapping(t_address,t_uint256)"
      },
      "t_mapping(t_address,t_uint256)": {
        "encoding": "mapping",
        "key": "t_address",
        "label": "mapping(address => uint256)",
        "numberOfBytes": "32",
        "value": "t_uint256"
      },
      "t_string_storage": {
        "encoding": "bytes",
        "label": "string",
        "numberOfBytes": "32"
      },
      "t_uint256": {
        "encoding": "inplace",
        "label": "uint256",
        "numberOfBytes": "32"
      }
    }
  }
}