{
  "address": "0xdc1efDb3760633bb717c038BabD14490135A2016",
  "abi": [
    {
      "inputs": [],
      "stateMutability": "nonpayable",
      "type": "constructor"
    },
    {
      "anonymous": false,
      "inputs": [
        {
          "indexed": false,
          "internalType": "address",
          "name": "previousAdmin",
          "type": "address"
        },
        {
          "indexed": false,
          "internalType": "address",
          "name": "newAdmin",
          "type": "address"
        }
      ],
      "name": "AdminChanged",
      "type": "event"
    },
    {
      "anonymous": false,
      "inputs": [
        {
          "indexed": false,
          "internalType": "address",
          "name": "winner",
          "type": "address"
        },
        {
          "indexed": false,
          "internalType": "uint256",
          "name": "amount",
          "type": "uint256"
        }
      ],
      "name": "AuctionEnded",
      "type": "event"
    },
    {
      "anonymous": false,
      "inputs": [
        {
          "indexed": true,
          "internalType": "address",
          "name": "beacon",
          "type": "address"
        }
      ],
      "name": "BeaconUpgraded",
      "type": "event"
    },
    {
      "anonymous": false,
      "inputs": [
        {
          "indexed": false,
          "internalType": "address",
          "name": "bidder",
          "type": "address"
        },
        {
          "indexed": false,
          "internalType": "uint256",
          "name": "amount",
          "type": "uint256"
        }
      ],
      "name": "HighestBidIncreased",
      "type": "event"
    },
    {
      "anonymous": false,
      "inputs": [
        {
          "indexed": true,
          "internalType": "address",
          "name": "implementation",
          "type": "address"
        }
      ],
      "name": "Upgraded",
      "type": "event"
    },
    {
      "inputs": [],
      "name": "auctionEndTime",
      "outputs": [
        {
          "internalType": "uint256",
          "name": "",
          "type": "uint256"
        }
      ],
      "stateMutability": "view",
      "type": "function"
    },
    {
      "inputs": [],
      "name": "auctionsManager",
      "outputs": [
        {
          "internalType": "address",
          "name": "",
          "type": "address"
        }
      ],
      "stateMutability": "view",
      "type": "function"
    },
    {
      "inputs": [
        {
          "internalType": "uint256",
          "name": "amount_",
          "type": "uint256"
        }
      ],
      "name": "bid",
      "outputs": [],
      "stateMutability": "payable",
      "type": "function"
    },
    {
      "inputs": [],
      "name": "endAuction",
      "outputs": [],
      "stateMutability": "nonpayable",
      "type": "function"
    },
    {
      "inputs": [],
      "name": "highestBid",
      "outputs": [
        {
          "internalType": "uint256",
          "name": "",
          "type": "uint256"
        }
      ],
      "stateMutability": "view",
      "type": "function"
    },
    {
      "inputs": [],
      "name": "highestBidder",
      "outputs": [
        {
          "internalType": "address",
          "name": "",
          "type": "address"
        }
      ],
      "stateMutability": "view",
      "type": "function"
    },
    {
      "inputs": [
        {
          "internalType": "uint256",
          "name": "nftId_",
          "type": "uint256"
        },
        {
          "internalType": "address",
          "name": "jot_",
          "type": "address"
        },
        {
          "internalType": "address",
          "name": "jotPool_",
          "type": "address"
        },
        {
          "internalType": "address",
          "name": "syntheticCollection_",
          "type": "address"
        },
        {
          "internalType": "uint256",
          "name": "initialBid_",
          "type": "uint256"
        },
        {
          "internalType": "uint256",
          "name": "auctionDuration_",
          "type": "uint256"
        },
        {
          "internalType": "address",
          "name": "initialBidder_",
          "type": "address"
        }
      ],
      "name": "initialize",
      "outputs": [],
      "stateMutability": "nonpayable",
      "type": "function"
    },
    {
      "inputs": [],
      "name": "jot",
      "outputs": [
        {
          "internalType": "address",
          "name": "",
          "type": "address"
        }
      ],
      "stateMutability": "view",
      "type": "function"
    },
    {
      "inputs": [],
      "name": "jotPool",
      "outputs": [
        {
          "internalType": "address",
          "name": "",
          "type": "address"
        }
      ],
      "stateMutability": "view",
      "type": "function"
    },
    {
      "inputs": [],
      "name": "nftId",
      "outputs": [
        {
          "internalType": "uint256",
          "name": "",
          "type": "uint256"
        }
      ],
      "stateMutability": "view",
      "type": "function"
    },
    {
      "inputs": [],
      "name": "syntheticCollection",
      "outputs": [
        {
          "internalType": "address",
          "name": "",
          "type": "address"
        }
      ],
      "stateMutability": "view",
      "type": "function"
    },
    {
      "inputs": [
        {
          "internalType": "address",
          "name": "newImplementation",
          "type": "address"
        }
      ],
      "name": "upgradeTo",
      "outputs": [],
      "stateMutability": "nonpayable",
      "type": "function"
    },
    {
      "inputs": [
        {
          "internalType": "address",
          "name": "newImplementation",
          "type": "address"
        },
        {
          "internalType": "bytes",
          "name": "data",
          "type": "bytes"
        }
      ],
      "name": "upgradeToAndCall",
      "outputs": [],
      "stateMutability": "payable",
      "type": "function"
    },
    {
      "inputs": [],
      "name": "withdraw",
      "outputs": [],
      "stateMutability": "nonpayable",
      "type": "function"
    }
  ],
  "transactionHash": "0x663644b7bb7be46f873101624b3a4fcfc4089303af8a7a9d280bc8ed7b8f976c",
  "args": [],
  "solcInputHash": "1d41a24dc515d2d8b72dc854cd17742a",
  "bytecode": "0x60a06040523060601b60805234801561001757600080fd5b50600054610100900460ff1680610031575060005460ff16155b6100985760405162461bcd60e51b815260206004820152602e60248201527f496e697469616c697a61626c653a20636f6e747261637420697320616c72656160448201526d191e481a5b9a5d1a585b1a5e995960921b606482015260840160405180910390fd5b600054610100900460ff161580156100ba576000805461ffff19166101011790555b80156100cc576000805461ff00191690555b5060805160601c6111ec6101006000396000818161028c015281816102d5015281816105f0015261063001526111ec6000f3fe6080604052600436106100dd5760003560e01c8063818fbbdf1161007f578063c6bc518211610059578063c6bc518214610220578063d57bde7914610236578063d85b9fb81461024c578063fe67a54b1461026c57600080fd5b8063818fbbdf146101c057806391f90157146101e0578063b1da4db71461020057600080fd5b8063454a2ab3116100bb578063454a2ab3146101565780634b449cba146101695780634f1ef2861461018d578063808cfb5d146101a057600080fd5b80633659cfe6146100e25780633ccfd60b1461010457806341913cbd14610119575b600080fd5b3480156100ee57600080fd5b506101026100fd366004610e67565b610281565b005b34801561011057600080fd5b5061010261034a565b34801561012557600080fd5b50606954610139906001600160a01b031681565b6040516001600160a01b0390911681526020015b60405180910390f35b610102610164366004610f5e565b610413565b34801561017557600080fd5b5061017f60655481565b60405190815260200161014d565b61010261019b366004610e81565b6105e5565b3480156101ac57600080fd5b50606a54610139906001600160a01b031681565b3480156101cc57600080fd5b50606c54610139906001600160a01b031681565b3480156101ec57600080fd5b50606654610139906001600160a01b031681565b34801561020c57600080fd5b50606b54610139906001600160a01b031681565b34801561022c57600080fd5b5061017f60685481565b34801561024257600080fd5b5061017f60675481565b34801561025857600080fd5b50610102610267366004610f76565b610696565b34801561027857600080fd5b506101026107bc565b306001600160a01b037f00000000000000000000000000000000000000000000000000000000000000001614156102d35760405162461bcd60e51b81526004016102ca90611035565b60405180910390fd5b7f00000000000000000000000000000000000000000000000000000000000000006001600160a01b0316610305610ac2565b6001600160a01b03161461032b5760405162461bcd60e51b81526004016102ca90611081565b6040805160008082526020820190925261034791839190610af0565b50565b336000908152606d6020526040902054801561034757336000818152606d602052604080822091909155606a54905163a9059cbb60e01b81526004810192909252602482018390526001600160a01b03169063a9059cbb90604401602060405180830381600087803b1580156103bf57600080fd5b505af11580156103d3573d6000803e3d6000fd5b505050506040513d601f19601f820116820180604052508101906103f79190610f3e565b6103475760405162461bcd60e51b81526004016102ca906110cd565b60655442111561045d5760405162461bcd60e51b8152602060048201526015602482015274105d58dd1a5bdb88185b1c9958591e48195b991959605a1b60448201526064016102ca565b60675481116104ae5760405162461bcd60e51b815260206004820152601d60248201527f546865726520616c72656164792069732061206869676865722062696400000060448201526064016102ca565b606a546040516323b872dd60e01b8152336004820152306024820152604481018390526001600160a01b03909116906323b872dd90606401602060405180830381600087803b15801561050057600080fd5b505af1158015610514573d6000803e3d6000fd5b505050506040513d601f19601f820116820180604052508101906105389190610f3e565b6105545760405162461bcd60e51b81526004016102ca906110cd565b6067541561058f576067546066546001600160a01b03166000908152606d602052604081208054909190610589908490611104565b90915550505b606680546001600160a01b03191633908117909155606782905560408051918252602082018390527ff4757a49b326036464bec6fe419a4ae38c8a02ce3e68bf0809674f6aab8ad300910160405180910390a150565b306001600160a01b037f000000000000000000000000000000000000000000000000000000000000000016141561062e5760405162461bcd60e51b81526004016102ca90611035565b7f00000000000000000000000000000000000000000000000000000000000000006001600160a01b0316610660610ac2565b6001600160a01b0316146106865760405162461bcd60e51b81526004016102ca90611081565b61069282826001610af0565b5050565b600054610100900460ff16806106af575060005460ff16155b6107125760405162461bcd60e51b815260206004820152602e60248201527f496e697469616c697a61626c653a20636f6e747261637420697320616c72656160448201526d191e481a5b9a5d1a585b1a5e995960921b60648201526084016102ca565b600054610100900460ff16158015610734576000805461ffff19166101011790555b60688890556107438342611104565b6065556067849055606a80546001600160a01b03808a166001600160a01b031992831617909255606b8054898416908316179055606980548884169083161790556066805492851692821692909217909155606c80549091163317905580156107b2576000805461ff00191690555b5050505050505050565b6065544210156108065760405162461bcd60e51b8152602060048201526015602482015274105d58dd1a5bdb881b9bdd081e595d08195b991959605a1b60448201526064016102ca565b606e5460ff16156108595760405162461bcd60e51b815260206004820152601e60248201527f546f6b656e2068617320616c7265616479206265656e20636c61696d6564000060448201526064016102ca565b606e805460ff19166001179055606a5460695460405163a9059cbb60e01b81526001600160a01b03918216600482015269021e19e0c9bab2400000602482015291169063a9059cbb90604401602060405180830381600087803b1580156108bf57600080fd5b505af11580156108d3573d6000803e3d6000fd5b505050506040513d601f19601f820116820180604052508101906108f79190610f3e565b6109135760405162461bcd60e51b81526004016102ca906110cd565b600069021e19e0c9bab240000060675461092d919061111c565b11156109ff57606a54606b546067546001600160a01b039283169263a9059cbb9216906109659069021e19e0c9bab24000009061111c565b6040516001600160e01b031960e085901b1681526001600160a01b0390921660048301526024820152604401602060405180830381600087803b1580156109ab57600080fd5b505af11580156109bf573d6000803e3d6000fd5b505050506040513d601f19601f820116820180604052508101906109e39190610f3e565b6109ff5760405162461bcd60e51b81526004016102ca906110cd565b606c54606954606854606654604051632386bc3d60e21b81526001600160a01b039384166004820152602481019290925282166044820152911690638e1af0f490606401600060405180830381600087803b158015610a5d57600080fd5b505af1158015610a71573d6000803e3d6000fd5b5050606654606754604080516001600160a01b03909316835260208301919091527fdaec4582d5d9595688c8c98545fdd1c696d41c6aeaeb636737e84ed2f5c00eda935001905060405180910390a1565b7f360894a13ba1a3210667c828492db98dca3e2076cc3735a920a3ca505d382bbc546001600160a01b031690565b6000610afa610ac2565b9050610b0584610c3b565b600083511180610b125750815b15610b2357610b218484610ce0565b505b7f4910fdfa16fed3260ed0e7147f7cc6da11a60208b5b9406d12a635614ffd9143805460ff16610c3457805460ff191660011781556040516001600160a01b0383166024820152610ba290869060440160408051601f198184030181529190526020810180516001600160e01b0316631b2ce7f360e11b179052610ce0565b50805460ff19168155610bb3610ac2565b6001600160a01b0316826001600160a01b031614610c2b5760405162461bcd60e51b815260206004820152602f60248201527f45524331393637557067726164653a207570677261646520627265616b73206660448201526e75727468657220757067726164657360881b60648201526084016102ca565b610c3485610dcb565b5050505050565b803b610c9f5760405162461bcd60e51b815260206004820152602d60248201527f455243313936373a206e657720696d706c656d656e746174696f6e206973206e60448201526c1bdd08184818dbdb9d1c9858dd609a1b60648201526084016102ca565b7f360894a13ba1a3210667c828492db98dca3e2076cc3735a920a3ca505d382bbc80546001600160a01b0319166001600160a01b0392909216919091179055565b6060823b610d3f5760405162461bcd60e51b815260206004820152602660248201527f416464726573733a2064656c65676174652063616c6c20746f206e6f6e2d636f6044820152651b9d1c9858dd60d21b60648201526084016102ca565b600080846001600160a01b031684604051610d5a9190610fe6565b600060405180830381855af49150503d8060008114610d95576040519150601f19603f3d011682016040523d82523d6000602084013e610d9a565b606091505b5091509150610dc2828260405180606001604052806027815260200161119060279139610e0b565b95945050505050565b610dd481610c3b565b6040516001600160a01b038216907fbc7cd75a20ee27fd9adebab32041f755214dbc6bffa90cc0225b39da2e5c2d3b90600090a250565b60608315610e1a575081610e44565b825115610e2a5782518084602001fd5b8160405162461bcd60e51b81526004016102ca9190611002565b9392505050565b80356001600160a01b0381168114610e6257600080fd5b919050565b600060208284031215610e78578081fd5b610e4482610e4b565b60008060408385031215610e93578081fd5b610e9c83610e4b565b9150602083013567ffffffffffffffff80821115610eb8578283fd5b818501915085601f830112610ecb578283fd5b813581811115610edd57610edd611179565b604051601f8201601f19908116603f01168101908382118183101715610f0557610f05611179565b81604052828152886020848701011115610f1d578586fd5b82602086016020830137856020848301015280955050505050509250929050565b600060208284031215610f4f578081fd5b81518015158114610e44578182fd5b600060208284031215610f6f578081fd5b5035919050565b600080600080600080600060e0888a031215610f90578283fd5b87359650610fa060208901610e4b565b9550610fae60408901610e4b565b9450610fbc60608901610e4b565b93506080880135925060a08801359150610fd860c08901610e4b565b905092959891949750929550565b60008251610ff8818460208701611133565b9190910192915050565b6020815260008251806020840152611021816040850160208701611133565b601f01601f19169190910160400192915050565b6020808252602c908201527f46756e6374696f6e206d7573742062652063616c6c6564207468726f7567682060408201526b19195b1959d85d1958d85b1b60a21b606082015260800190565b6020808252602c908201527f46756e6374696f6e206d7573742062652063616c6c6564207468726f7567682060408201526b6163746976652070726f787960a01b606082015260800190565b60208082526017908201527f556e61626c6520746f207472616e73666572206a6f7473000000000000000000604082015260600190565b6000821982111561111757611117611163565b500190565b60008282101561112e5761112e611163565b500390565b60005b8381101561114e578181015183820152602001611136565b8381111561115d576000848401525b50505050565b634e487b7160e01b600052601160045260246000fd5b634e487b7160e01b600052604160045260246000fdfe416464726573733a206c6f772d6c6576656c2064656c65676174652063616c6c206661696c6564a2646970667358221220b087548fb78d59714b7db7fae12fa6157f338e98295dd2968b91c35cc407b6e764736f6c63430008040033",
  "devdoc": {
    "author": "priviprotocol",
    "events": {
      "AuctionEnded(address,uint256)": {
        "details": "emitted when the auction ends and the auction ends method is called",
        "params": {
          "amount": "the highest bid at the end",
          "winner": "the highest bidder at the end"
        }
      },
      "HighestBidIncreased(address,uint256)": {
        "details": "emitted when the highest bid gets increased",
        "params": {
          "amount": "the new highest bid",
          "bidder": "the new highest bidder"
        }
      }
    },
    "kind": "dev",
    "methods": {
      "bid(uint256)": {
        "params": {
          "amount_": "the bid amount"
        }
      },
      "constructor": {
        "details": "the initializer modifier is to avoid someone initializing      the implementation contract after deployment"
      },
      "initialize(uint256,address,address,address,uint256,uint256,address)": {
        "details": "initializes the auction (called by auctions manager after deploy)",
        "params": {
          "auctionDuration_": "the duration of the auction (protocol parameter set by governance)",
          "initialBid_": "the opening bid",
          "initialBidder_": "the initial bidder",
          "jotPool_": "the address of the jot contract",
          "jot_": "the address of the jot contract",
          "nftId_": "the id of the nft being auctioned",
          "syntheticCollection_": "the address of the synthetic collection contract"
        }
      },
      "upgradeTo(address)": {
        "details": "Upgrade the implementation of the proxy to `newImplementation`. Calls {_authorizeUpgrade}. Emits an {Upgraded} event."
      },
      "upgradeToAndCall(address,bytes)": {
        "details": "Upgrade the implementation of the proxy to `newImplementation`, and subsequently execute the function call encoded in `data`. Calls {_authorizeUpgrade}. Emits an {Upgraded} event."
      }
    },
    "stateVariables": {
      "_claimed": {
        "details": "set to true at the end, disallows any change."
      },
      "_pendingReturns": {
        "details": "allowed withdrawals of previous bids"
      }
    },
    "title": "upgradeable auction contract",
    "version": 1
  },
  "userdoc": {
    "kind": "user",
    "methods": {
      "auctionEndTime()": {
        "notice": "the date when the auction will finish"
      },
      "auctionsManager()": {
        "notice": "the address of auctions manager (auctions fabric)"
      },
      "bid(uint256)": {
        "notice": "bid on the auction.         the value will only be refunded if the         auction is not won."
      },
      "endAuction()": {
        "notice": "winner can claim the token after auction end time"
      },
      "highestBid()": {
        "notice": "the current highest bid of the auction"
      },
      "highestBidder()": {
        "notice": "the current highest bidder of the auction"
      },
      "jot()": {
        "notice": "the address of the jot contract for the synthetic collection"
      },
      "jotPool()": {
        "notice": "the address of the jot pool contract for the synthetic collection"
      },
      "nftId()": {
        "notice": "the id of the synthetic nft token being auctioned"
      },
      "syntheticCollection()": {
        "notice": "the address of the synthetic collection contract for this token"
      },
      "withdraw()": {
        "notice": "withdraw a bid that was overbid"
      }
    },
    "version": 1
  },
  "storageLayout": {
    "storage": [
      {
        "astId": 3086,
        "contract": "contracts/polygon/auctions/NFTAuction.sol:NFTAuction",
        "label": "_initialized",
        "offset": 0,
        "slot": "0",
        "type": "t_bool"
      },
      {
        "astId": 3089,
        "contract": "contracts/polygon/auctions/NFTAuction.sol:NFTAuction",
        "label": "_initializing",
        "offset": 1,
        "slot": "0",
        "type": "t_bool"
      },
      {
        "astId": 3069,
        "contract": "contracts/polygon/auctions/NFTAuction.sol:NFTAuction",
        "label": "__gap",
        "offset": 0,
        "slot": "1",
        "type": "t_array(t_uint256)50_storage"
      },
      {
        "astId": 3236,
        "contract": "contracts/polygon/auctions/NFTAuction.sol:NFTAuction",
        "label": "__gap",
        "offset": 0,
        "slot": "51",
        "type": "t_array(t_uint256)50_storage"
      },
      {
        "astId": 20899,
        "contract": "contracts/polygon/auctions/NFTAuction.sol:NFTAuction",
        "label": "auctionEndTime",
        "offset": 0,
        "slot": "101",
        "type": "t_uint256"
      },
      {
        "astId": 20902,
        "contract": "contracts/polygon/auctions/NFTAuction.sol:NFTAuction",
        "label": "highestBidder",
        "offset": 0,
        "slot": "102",
        "type": "t_address"
      },
      {
        "astId": 20905,
        "contract": "contracts/polygon/auctions/NFTAuction.sol:NFTAuction",
        "label": "highestBid",
        "offset": 0,
        "slot": "103",
        "type": "t_uint256"
      },
      {
        "astId": 20908,
        "contract": "contracts/polygon/auctions/NFTAuction.sol:NFTAuction",
        "label": "nftId",
        "offset": 0,
        "slot": "104",
        "type": "t_uint256"
      },
      {
        "astId": 20911,
        "contract": "contracts/polygon/auctions/NFTAuction.sol:NFTAuction",
        "label": "syntheticCollection",
        "offset": 0,
        "slot": "105",
        "type": "t_address"
      },
      {
        "astId": 20914,
        "contract": "contracts/polygon/auctions/NFTAuction.sol:NFTAuction",
        "label": "jot",
        "offset": 0,
        "slot": "106",
        "type": "t_address"
      },
      {
        "astId": 20917,
        "contract": "contracts/polygon/auctions/NFTAuction.sol:NFTAuction",
        "label": "jotPool",
        "offset": 0,
        "slot": "107",
        "type": "t_address"
      },
      {
        "astId": 20920,
        "contract": "contracts/polygon/auctions/NFTAuction.sol:NFTAuction",
        "label": "auctionsManager",
        "offset": 0,
        "slot": "108",
        "type": "t_address"
      },
      {
        "astId": 20925,
        "contract": "contracts/polygon/auctions/NFTAuction.sol:NFTAuction",
        "label": "_pendingReturns",
        "offset": 0,
        "slot": "109",
        "type": "t_mapping(t_address,t_uint256)"
      },
      {
        "astId": 20928,
        "contract": "contracts/polygon/auctions/NFTAuction.sol:NFTAuction",
        "label": "_claimed",
        "offset": 0,
        "slot": "110",
        "type": "t_bool"
      }
    ],
    "types": {
      "t_address": {
        "encoding": "inplace",
        "label": "address",
        "numberOfBytes": "20"
      },
      "t_array(t_uint256)50_storage": {
        "base": "t_uint256",
        "encoding": "inplace",
        "label": "uint256[50]",
        "numberOfBytes": "1600"
      },
      "t_bool": {
        "encoding": "inplace",
        "label": "bool",
        "numberOfBytes": "1"
      },
      "t_mapping(t_address,t_uint256)": {
        "encoding": "mapping",
        "key": "t_address",
        "label": "mapping(address => uint256)",
        "numberOfBytes": "32",
        "value": "t_uint256"
      },
      "t_uint256": {
        "encoding": "inplace",
        "label": "uint256",
        "numberOfBytes": "32"
      }
    }
  }
}