{
  "address": "0xAd2Ea5D9E99EE3F3E7C50f7AE3E64CF72fECDBe2",
  "abi": [
    {
      "inputs": [],
      "stateMutability": "nonpayable",
      "type": "constructor"
    },
    {
      "anonymous": false,
      "inputs": [
        {
          "indexed": false,
          "internalType": "address",
          "name": "winner",
          "type": "address"
        },
        {
          "indexed": false,
          "internalType": "uint256",
          "name": "amount",
          "type": "uint256"
        }
      ],
      "name": "AuctionEnded",
      "type": "event"
    },
    {
      "anonymous": false,
      "inputs": [
        {
          "indexed": false,
          "internalType": "address",
          "name": "bidder",
          "type": "address"
        },
        {
          "indexed": false,
          "internalType": "uint256",
          "name": "amount",
          "type": "uint256"
        }
      ],
      "name": "HighestBidIncreased",
      "type": "event"
    },
    {
      "inputs": [],
      "name": "auctionEndTime",
      "outputs": [
        {
          "internalType": "uint256",
          "name": "",
          "type": "uint256"
        }
      ],
      "stateMutability": "view",
      "type": "function"
    },
    {
      "inputs": [],
      "name": "auctionsManager",
      "outputs": [
        {
          "internalType": "address",
          "name": "",
          "type": "address"
        }
      ],
      "stateMutability": "view",
      "type": "function"
    },
    {
      "inputs": [
        {
          "internalType": "uint256",
          "name": "amount_",
          "type": "uint256"
        }
      ],
      "name": "bid",
      "outputs": [],
      "stateMutability": "payable",
      "type": "function"
    },
    {
      "inputs": [],
      "name": "endAuction",
      "outputs": [],
      "stateMutability": "nonpayable",
      "type": "function"
    },
    {
      "inputs": [],
      "name": "highestBid",
      "outputs": [
        {
          "internalType": "uint256",
          "name": "",
          "type": "uint256"
        }
      ],
      "stateMutability": "view",
      "type": "function"
    },
    {
      "inputs": [],
      "name": "highestBidder",
      "outputs": [
        {
          "internalType": "address",
          "name": "",
          "type": "address"
        }
      ],
      "stateMutability": "view",
      "type": "function"
    },
    {
      "inputs": [
        {
          "internalType": "uint256",
          "name": "nftId_",
          "type": "uint256"
        },
        {
          "internalType": "address",
          "name": "jot_",
          "type": "address"
        },
        {
          "internalType": "address",
          "name": "jotPool_",
          "type": "address"
        },
        {
          "internalType": "address",
          "name": "syntheticCollection_",
          "type": "address"
        },
        {
          "internalType": "uint256",
          "name": "initialBid_",
          "type": "uint256"
        },
        {
          "internalType": "uint256",
          "name": "auctionDuration_",
          "type": "uint256"
        },
        {
          "internalType": "address",
          "name": "initialBidder_",
          "type": "address"
        }
      ],
      "name": "initialize",
      "outputs": [],
      "stateMutability": "nonpayable",
      "type": "function"
    },
    {
      "inputs": [],
      "name": "jot",
      "outputs": [
        {
          "internalType": "address",
          "name": "",
          "type": "address"
        }
      ],
      "stateMutability": "view",
      "type": "function"
    },
    {
      "inputs": [],
      "name": "jotPool",
      "outputs": [
        {
          "internalType": "address",
          "name": "",
          "type": "address"
        }
      ],
      "stateMutability": "view",
      "type": "function"
    },
    {
      "inputs": [],
      "name": "nftId",
      "outputs": [
        {
          "internalType": "uint256",
          "name": "",
          "type": "uint256"
        }
      ],
      "stateMutability": "view",
      "type": "function"
    },
    {
      "inputs": [],
      "name": "syntheticCollection",
      "outputs": [
        {
          "internalType": "address",
          "name": "",
          "type": "address"
        }
      ],
      "stateMutability": "view",
      "type": "function"
    },
    {
      "inputs": [],
      "name": "withdraw",
      "outputs": [],
      "stateMutability": "nonpayable",
      "type": "function"
    }
  ],
  "transactionHash": "0x3f58dbd01ed49e34b0d0491f51af7855355f105ece26868ee239980171546afb",
  "args": [],
  "solcInputHash": "0cc6fa82c0eeb27ece16b294b847bb89",
  "bytecode": "0x608060405234801561001057600080fd5b50600054610100900460ff168061002a575060005460ff16155b6100915760405162461bcd60e51b815260206004820152602e60248201527f496e697469616c697a61626c653a20636f6e747261637420697320616c72656160448201526d191e481a5b9a5d1a585b1a5e995960921b606482015260840160405180910390fd5b600054610100900460ff161580156100b3576000805461ffff19166101011790555b80156100c5576000805461ff00191690555b50610a6b806100d56000396000f3fe6080604052600436106100a75760003560e01c806391f901571161006457806391f9015714610177578063b1da4db714610197578063c6bc5182146101b7578063d57bde79146101cd578063d85b9fb8146101e3578063fe67a54b1461020357600080fd5b80633ccfd60b146100ac57806341913cbd146100c3578063454a2ab3146101005780634b449cba14610113578063808cfb5d14610137578063818fbbdf14610157575b600080fd5b3480156100b857600080fd5b506100c1610218565b005b3480156100cf57600080fd5b506005546100e3906001600160a01b031681565b6040516001600160a01b0390911681526020015b60405180910390f35b6100c161010e366004610931565b6102ed565b34801561011f57600080fd5b5061012960015481565b6040519081526020016100f7565b34801561014357600080fd5b506006546100e3906001600160a01b031681565b34801561016357600080fd5b506008546100e3906001600160a01b031681565b34801561018357600080fd5b506002546100e3906001600160a01b031681565b3480156101a357600080fd5b506007546100e3906001600160a01b031681565b3480156101c357600080fd5b5061012960045481565b3480156101d957600080fd5b5061012960035481565b3480156101ef57600080fd5b506100c16101fe366004610949565b6104bf565b34801561020f57600080fd5b506100c16105e5565b3360009081526009602052604090205480156102ea573360008181526009602052604080822091909155600654905163a9059cbb60e01b81526004810192909252602482018390526001600160a01b03169063a9059cbb90604401602060405180830381600087803b15801561028d57600080fd5b505af11580156102a1573d6000803e3d6000fd5b505050506040513d601f19601f820116820180604052508101906102c5919061090a565b6102ea5760405162461bcd60e51b81526004016102e1906109b9565b60405180910390fd5b50565b6001544211156103375760405162461bcd60e51b8152602060048201526015602482015274105d58dd1a5bdb88185b1c9958591e48195b991959605a1b60448201526064016102e1565b60035481116103885760405162461bcd60e51b815260206004820152601d60248201527f546865726520616c72656164792069732061206869676865722062696400000060448201526064016102e1565b6006546040516323b872dd60e01b8152336004820152306024820152604481018390526001600160a01b03909116906323b872dd90606401602060405180830381600087803b1580156103da57600080fd5b505af11580156103ee573d6000803e3d6000fd5b505050506040513d601f19601f82011682018060405250810190610412919061090a565b61042e5760405162461bcd60e51b81526004016102e1906109b9565b60035415610469576003546002546001600160a01b0316600090815260096020526040812080549091906104639084906109f0565b90915550505b600280546001600160a01b03191633908117909155600382905560408051918252602082018390527ff4757a49b326036464bec6fe419a4ae38c8a02ce3e68bf0809674f6aab8ad300910160405180910390a150565b600054610100900460ff16806104d8575060005460ff16155b61053b5760405162461bcd60e51b815260206004820152602e60248201527f496e697469616c697a61626c653a20636f6e747261637420697320616c72656160448201526d191e481a5b9a5d1a585b1a5e995960921b60648201526084016102e1565b600054610100900460ff1615801561055d576000805461ffff19166101011790555b600488905561056c83426109f0565b6001556003849055600680546001600160a01b03808a166001600160a01b03199283161790925560078054898416908316179055600580548884169083161790556002805492851692821692909217909155600880549091163317905580156105db576000805461ff00191690555b5050505050505050565b60015442101561062f5760405162461bcd60e51b8152602060048201526015602482015274105d58dd1a5bdb881b9bdd081e595d08195b991959605a1b60448201526064016102e1565b600a5460ff16156106825760405162461bcd60e51b815260206004820152601e60248201527f546f6b656e2068617320616c7265616479206265656e20636c61696d6564000060448201526064016102e1565b600a805460ff1916600117905560065460055460405163a9059cbb60e01b81526001600160a01b03918216600482015269021e19e0c9bab2400000602482015291169063a9059cbb90604401602060405180830381600087803b1580156106e857600080fd5b505af11580156106fc573d6000803e3d6000fd5b505050506040513d601f19601f82011682018060405250810190610720919061090a565b61073c5760405162461bcd60e51b81526004016102e1906109b9565b600069021e19e0c9bab24000006003546107569190610a08565b1115610828576006546007546003546001600160a01b039283169263a9059cbb92169061078e9069021e19e0c9bab240000090610a08565b6040516001600160e01b031960e085901b1681526001600160a01b0390921660048301526024820152604401602060405180830381600087803b1580156107d457600080fd5b505af11580156107e8573d6000803e3d6000fd5b505050506040513d601f19601f8201168201806040525081019061080c919061090a565b6108285760405162461bcd60e51b81526004016102e1906109b9565b60085460055460048054600254604051632386bc3d60e21b81526001600160a01b0394851693810193909352602483019190915282166044820152911690638e1af0f490606401600060405180830381600087803b15801561088957600080fd5b505af115801561089d573d6000803e3d6000fd5b5050600254600354604080516001600160a01b03909316835260208301919091527fdaec4582d5d9595688c8c98545fdd1c696d41c6aeaeb636737e84ed2f5c00eda935001905060405180910390a1565b80356001600160a01b038116811461090557600080fd5b919050565b60006020828403121561091b578081fd5b8151801515811461092a578182fd5b9392505050565b600060208284031215610942578081fd5b5035919050565b600080600080600080600060e0888a031215610963578283fd5b87359650610973602089016108ee565b9550610981604089016108ee565b945061098f606089016108ee565b93506080880135925060a088013591506109ab60c089016108ee565b905092959891949750929550565b60208082526017908201527f556e61626c6520746f207472616e73666572206a6f7473000000000000000000604082015260600190565b60008219821115610a0357610a03610a1f565b500190565b600082821015610a1a57610a1a610a1f565b500390565b634e487b7160e01b600052601160045260246000fdfea2646970667358221220675eca1fd72ff508d8b608208a59bfed08248da1936b8e57988fd40845dcec8564736f6c63430008040033",
  "devdoc": {
    "author": "priviprotocol",
    "events": {
      "AuctionEnded(address,uint256)": {
        "details": "emitted when the auction ends and the auction ends method is called",
        "params": {
          "amount": "the highest bid at the end",
          "winner": "the highest bidder at the end"
        }
      },
      "HighestBidIncreased(address,uint256)": {
        "details": "emitted when the highest bid gets increased",
        "params": {
          "amount": "the new highest bid",
          "bidder": "the new highest bidder"
        }
      }
    },
    "kind": "dev",
    "methods": {
      "bid(uint256)": {
        "params": {
          "amount_": "the bid amount"
        }
      },
      "constructor": {
        "details": "the initializer modifier is to avoid someone initializing      the implementation contract after deployment"
      },
      "initialize(uint256,address,address,address,uint256,uint256,address)": {
        "details": "initializes the auction (called by auctions manager after deploy)",
        "params": {
          "auctionDuration_": "the duration of the auction (protocol parameter set by governance)",
          "initialBid_": "the opening bid",
          "initialBidder_": "the initial bidder",
          "jotPool_": "the address of the jot contract",
          "jot_": "the address of the jot contract",
          "nftId_": "the id of the nft being auctioned",
          "syntheticCollection_": "the address of the synthetic collection contract"
        }
      }
    },
    "stateVariables": {
      "_claimed": {
        "details": "set to true at the end, disallows any change."
      },
      "_pendingReturns": {
        "details": "allowed withdrawals of previous bids"
      }
    },
    "title": "upgradeable auction contract",
    "version": 1
  },
  "userdoc": {
    "kind": "user",
    "methods": {
      "auctionEndTime()": {
        "notice": "the date when the auction will finish"
      },
      "auctionsManager()": {
        "notice": "the address of auctions manager (auctions fabric)"
      },
      "bid(uint256)": {
        "notice": "bid on the auction.         the value will only be refunded if the         auction is not won."
      },
      "endAuction()": {
        "notice": "winner can claim the token after auction end time"
      },
      "highestBid()": {
        "notice": "the current highest bid of the auction"
      },
      "highestBidder()": {
        "notice": "the current highest bidder of the auction"
      },
      "jot()": {
        "notice": "the address of the jot contract for the synthetic collection"
      },
      "jotPool()": {
        "notice": "the address of the jot pool contract for the synthetic collection"
      },
      "nftId()": {
        "notice": "the id of the synthetic nft token being auctioned"
      },
      "syntheticCollection()": {
        "notice": "the address of the synthetic collection contract for this token"
      },
      "withdraw()": {
        "notice": "withdraw a bid that was overbid"
      }
    },
    "version": 1
  },
  "storageLayout": {
    "storage": [
      {
        "astId": 7665,
        "contract": "contracts/polygon/auctions/NFTAuction.sol:NFTAuction",
        "label": "_initialized",
        "offset": 0,
        "slot": "0",
        "type": "t_bool"
      },
      {
        "astId": 7668,
        "contract": "contracts/polygon/auctions/NFTAuction.sol:NFTAuction",
        "label": "_initializing",
        "offset": 1,
        "slot": "0",
        "type": "t_bool"
      },
      {
        "astId": 21341,
        "contract": "contracts/polygon/auctions/NFTAuction.sol:NFTAuction",
        "label": "auctionEndTime",
        "offset": 0,
        "slot": "1",
        "type": "t_uint256"
      },
      {
        "astId": 21344,
        "contract": "contracts/polygon/auctions/NFTAuction.sol:NFTAuction",
        "label": "highestBidder",
        "offset": 0,
        "slot": "2",
        "type": "t_address"
      },
      {
        "astId": 21347,
        "contract": "contracts/polygon/auctions/NFTAuction.sol:NFTAuction",
        "label": "highestBid",
        "offset": 0,
        "slot": "3",
        "type": "t_uint256"
      },
      {
        "astId": 21350,
        "contract": "contracts/polygon/auctions/NFTAuction.sol:NFTAuction",
        "label": "nftId",
        "offset": 0,
        "slot": "4",
        "type": "t_uint256"
      },
      {
        "astId": 21353,
        "contract": "contracts/polygon/auctions/NFTAuction.sol:NFTAuction",
        "label": "syntheticCollection",
        "offset": 0,
        "slot": "5",
        "type": "t_address"
      },
      {
        "astId": 21356,
        "contract": "contracts/polygon/auctions/NFTAuction.sol:NFTAuction",
        "label": "jot",
        "offset": 0,
        "slot": "6",
        "type": "t_address"
      },
      {
        "astId": 21359,
        "contract": "contracts/polygon/auctions/NFTAuction.sol:NFTAuction",
        "label": "jotPool",
        "offset": 0,
        "slot": "7",
        "type": "t_address"
      },
      {
        "astId": 21362,
        "contract": "contracts/polygon/auctions/NFTAuction.sol:NFTAuction",
        "label": "auctionsManager",
        "offset": 0,
        "slot": "8",
        "type": "t_address"
      },
      {
        "astId": 21367,
        "contract": "contracts/polygon/auctions/NFTAuction.sol:NFTAuction",
        "label": "_pendingReturns",
        "offset": 0,
        "slot": "9",
        "type": "t_mapping(t_address,t_uint256)"
      },
      {
        "astId": 21370,
        "contract": "contracts/polygon/auctions/NFTAuction.sol:NFTAuction",
        "label": "_claimed",
        "offset": 0,
        "slot": "10",
        "type": "t_bool"
      }
    ],
    "types": {
      "t_address": {
        "encoding": "inplace",
        "label": "address",
        "numberOfBytes": "20"
      },
      "t_bool": {
        "encoding": "inplace",
        "label": "bool",
        "numberOfBytes": "1"
      },
      "t_mapping(t_address,t_uint256)": {
        "encoding": "mapping",
        "key": "t_address",
        "label": "mapping(address => uint256)",
        "numberOfBytes": "32",
        "value": "t_uint256"
      },
      "t_uint256": {
        "encoding": "inplace",
        "label": "uint256",
        "numberOfBytes": "32"
      }
    }
  }
}