{
  "contractName": "NFTReservalManager",
  "abi": [
    {
      "inputs": [
        {
          "internalType": "address[]",
          "name": "_tokens",
          "type": "address[]"
        },
        {
          "internalType": "address",
          "name": "_nftVault",
          "type": "address"
        },
        {
          "internalType": "address",
          "name": "_priceOracle",
          "type": "address"
        }
      ],
      "stateMutability": "nonpayable",
      "type": "constructor"
    },
    {
      "anonymous": false,
      "inputs": [
        {
          "indexed": false,
          "internalType": "bool",
          "name": "assigned",
          "type": "bool"
        },
        {
          "indexed": false,
          "internalType": "uint256",
          "name": "reservalID",
          "type": "uint256"
        },
        {
          "indexed": false,
          "internalType": "uint256",
          "name": "offerID",
          "type": "uint256"
        }
      ],
      "name": "Assigned",
      "type": "event"
    },
    {
      "anonymous": false,
      "inputs": [
        {
          "indexed": false,
          "internalType": "address",
          "name": "buyer",
          "type": "address"
        },
        {
          "indexed": false,
          "internalType": "uint256",
          "name": "reservalID",
          "type": "uint256"
        },
        {
          "indexed": false,
          "internalType": "address",
          "name": "nft",
          "type": "address"
        },
        {
          "indexed": false,
          "internalType": "uint256",
          "name": "expiry",
          "type": "uint256"
        },
        {
          "indexed": false,
          "internalType": "address",
          "name": "token",
          "type": "address"
        },
        {
          "indexed": false,
          "internalType": "uint256",
          "name": "price",
          "type": "uint256"
        },
        {
          "indexed": false,
          "internalType": "uint256",
          "name": "pct",
          "type": "uint256"
        },
        {
          "indexed": false,
          "internalType": "uint256",
          "name": "offerID",
          "type": "uint256"
        }
      ],
      "name": "BOfferCreated",
      "type": "event"
    },
    {
      "anonymous": false,
      "inputs": [
        {
          "indexed": false,
          "internalType": "uint256",
          "name": "offerID",
          "type": "uint256"
        },
        {
          "indexed": false,
          "internalType": "address",
          "name": "token",
          "type": "address"
        },
        {
          "indexed": false,
          "internalType": "uint256",
          "name": "amount",
          "type": "uint256"
        },
        {
          "indexed": false,
          "internalType": "bool",
          "name": "isDeposit",
          "type": "bool"
        }
      ],
      "name": "CollateralDeposit",
      "type": "event"
    },
    {
      "anonymous": false,
      "inputs": [
        {
          "indexed": false,
          "internalType": "uint256",
          "name": "offerID",
          "type": "uint256"
        }
      ],
      "name": "OOfferAccepted",
      "type": "event"
    },
    {
      "anonymous": false,
      "inputs": [
        {
          "indexed": false,
          "internalType": "address",
          "name": "owner",
          "type": "address"
        },
        {
          "indexed": false,
          "internalType": "uint256",
          "name": "reservalID",
          "type": "uint256"
        }
      ],
      "name": "OReservalCanceled",
      "type": "event"
    },
    {
      "anonymous": false,
      "inputs": [
        {
          "indexed": false,
          "internalType": "address",
          "name": "owner",
          "type": "address"
        },
        {
          "indexed": false,
          "internalType": "address",
          "name": "nft",
          "type": "address"
        },
        {
          "indexed": false,
          "internalType": "uint256",
          "name": "expiry",
          "type": "uint256"
        },
        {
          "indexed": false,
          "internalType": "address",
          "name": "token",
          "type": "address"
        },
        {
          "indexed": false,
          "internalType": "uint256",
          "name": "price",
          "type": "uint256"
        },
        {
          "indexed": false,
          "internalType": "uint256",
          "name": "pct",
          "type": "uint256"
        },
        {
          "indexed": false,
          "internalType": "uint256",
          "name": "reservalID",
          "type": "uint256"
        }
      ],
      "name": "OReservalCreated",
      "type": "event"
    },
    {
      "anonymous": false,
      "inputs": [
        {
          "indexed": false,
          "internalType": "uint256",
          "name": "offerID",
          "type": "uint256"
        }
      ],
      "name": "ReservePayed",
      "type": "event"
    },
    {
      "inputs": [
        {
          "internalType": "address",
          "name": "nft",
          "type": "address"
        },
        {
          "internalType": "uint256",
          "name": "expiry",
          "type": "uint256"
        },
        {
          "internalType": "address",
          "name": "token",
          "type": "address"
        },
        {
          "internalType": "uint256",
          "name": "price",
          "type": "uint256"
        },
        {
          "internalType": "uint256",
          "name": "pct",
          "type": "uint256"
        }
      ],
      "name": "createReserval",
      "outputs": [
        {
          "internalType": "uint256",
          "name": "reservalID",
          "type": "uint256"
        }
      ],
      "stateMutability": "nonpayable",
      "type": "function"
    },
    {
      "inputs": [
        {
          "internalType": "uint256",
          "name": "reservalID",
          "type": "uint256"
        }
      ],
      "name": "cancelReserval",
      "outputs": [],
      "stateMutability": "nonpayable",
      "type": "function"
    },
    {
      "inputs": [
        {
          "internalType": "uint256",
          "name": "reservalID",
          "type": "uint256"
        },
        {
          "internalType": "address",
          "name": "nft",
          "type": "address"
        },
        {
          "internalType": "uint256",
          "name": "expiry",
          "type": "uint256"
        },
        {
          "internalType": "address",
          "name": "token",
          "type": "address"
        },
        {
          "internalType": "uint256",
          "name": "price",
          "type": "uint256"
        },
        {
          "internalType": "uint256",
          "name": "pct",
          "type": "uint256"
        }
      ],
      "name": "createOffer",
      "outputs": [
        {
          "internalType": "uint256",
          "name": "offerID",
          "type": "uint256"
        }
      ],
      "stateMutability": "nonpayable",
      "type": "function"
    },
    {
      "inputs": [
        {
          "internalType": "uint256",
          "name": "offerID",
          "type": "uint256"
        }
      ],
      "name": "acceptOffer",
      "outputs": [],
      "stateMutability": "nonpayable",
      "type": "function"
    },
    {
      "inputs": [
        {
          "internalType": "uint256",
          "name": "offerID",
          "type": "uint256"
        }
      ],
      "name": "assignOffer",
      "outputs": [],
      "stateMutability": "nonpayable",
      "type": "function"
    },
    {
      "inputs": [
        {
          "internalType": "uint256",
          "name": "offerID",
          "type": "uint256"
        }
      ],
      "name": "payReserve",
      "outputs": [],
      "stateMutability": "nonpayable",
      "type": "function"
    },
    {
      "inputs": [
        {
          "internalType": "uint256",
          "name": "offerID",
          "type": "uint256"
        },
        {
          "internalType": "address",
          "name": "token",
          "type": "address"
        },
        {
          "internalType": "uint256",
          "name": "amount",
          "type": "uint256"
        }
      ],
      "name": "depositCollateral",
      "outputs": [],
      "stateMutability": "nonpayable",
      "type": "function"
    },
    {
      "inputs": [
        {
          "internalType": "uint256",
          "name": "offerID",
          "type": "uint256"
        },
        {
          "internalType": "address",
          "name": "token",
          "type": "address"
        },
        {
          "internalType": "uint256",
          "name": "amount",
          "type": "uint256"
        }
      ],
      "name": "withdrawCollateral",
      "outputs": [],
      "stateMutability": "nonpayable",
      "type": "function"
    },
    {
      "inputs": [
        {
          "internalType": "address",
          "name": "owner",
          "type": "address"
        }
      ],
      "name": "getNFTReservals",
      "outputs": [
        {
          "internalType": "uint256[]",
          "name": "",
          "type": "uint256[]"
        }
      ],
      "stateMutability": "nonpayable",
      "type": "function"
    },
    {
      "inputs": [
        {
          "internalType": "address",
          "name": "buyer",
          "type": "address"
        }
      ],
      "name": "getOffers",
      "outputs": [
        {
          "internalType": "uint256[]",
          "name": "",
          "type": "uint256[]"
        }
      ],
      "stateMutability": "nonpayable",
      "type": "function"
    },
    {
      "inputs": [
        {
          "internalType": "uint256",
          "name": "reservalID",
          "type": "uint256"
        }
      ],
      "name": "getOfferReqs",
      "outputs": [
        {
          "internalType": "uint256[]",
          "name": "",
          "type": "uint256[]"
        }
      ],
      "stateMutability": "nonpayable",
      "type": "function"
    },
    {
      "inputs": [
        {
          "internalType": "uint256",
          "name": "reservalID",
          "type": "uint256"
        }
      ],
      "name": "getReserval",
      "outputs": [
        {
          "components": [
            {
              "internalType": "address",
              "name": "owner",
              "type": "address"
            },
            {
              "internalType": "address",
              "name": "nft",
              "type": "address"
            },
            {
              "internalType": "uint256",
              "name": "expiry",
              "type": "uint256"
            },
            {
              "internalType": "address",
              "name": "token",
              "type": "address"
            },
            {
              "internalType": "uint256",
              "name": "price",
              "type": "uint256"
            },
            {
              "internalType": "uint256",
              "name": "pct",
              "type": "uint256"
            },
            {
              "internalType": "uint256",
              "name": "reservalID",
              "type": "uint256"
            },
            {
              "internalType": "uint256",
              "name": "acceptedOfferID",
              "type": "uint256"
            }
          ],
          "internalType": "struct NFTReservalManager.NFTReserval",
          "name": "reserval",
          "type": "tuple"
        }
      ],
      "stateMutability": "nonpayable",
      "type": "function"
    },
    {
      "inputs": [
        {
          "internalType": "uint256",
          "name": "offerID",
          "type": "uint256"
        }
      ],
      "name": "getOffer",
      "outputs": [
        {
          "components": [
            {
              "internalType": "address",
              "name": "buyer",
              "type": "address"
            },
            {
              "internalType": "uint256",
              "name": "reservalID",
              "type": "uint256"
            },
            {
              "internalType": "address",
              "name": "nft",
              "type": "address"
            },
            {
              "internalType": "uint256",
              "name": "expiry",
              "type": "uint256"
            },
            {
              "internalType": "address",
              "name": "token",
              "type": "address"
            },
            {
              "internalType": "uint256",
              "name": "price",
              "type": "uint256"
            },
            {
              "internalType": "uint256",
              "name": "pct",
              "type": "uint256"
            },
            {
              "internalType": "address[]",
              "name": "colTokens",
              "type": "address[]"
            },
            {
              "internalType": "uint256[]",
              "name": "colAmounts",
              "type": "uint256[]"
            },
            {
              "internalType": "uint256",
              "name": "offerID",
              "type": "uint256"
            },
            {
              "internalType": "bool",
              "name": "accepted",
              "type": "bool"
            },
            {
              "internalType": "bool",
              "name": "reservePayed",
              "type": "bool"
            }
          ],
          "internalType": "struct NFTReservalManager.Offer",
          "name": "offer",
          "type": "tuple"
        }
      ],
      "stateMutability": "nonpayable",
      "type": "function"
    }
  ],
  "bytecode": "0x60806040523480156200001157600080fd5b5060405162002c9538038062002c958339810160408190526200003491620001c1565b8251620000499060029060208601906200010d565b50600480546001600160a01b038085166001600160a01b03199283161790925560058054928416928216929092179091556006805490911630179055825160035560005b600354811015620000fa57600160096000868481518110620000b357620000b3620002b9565b6020908102919091018101516001600160a01b03168252810191909152604001600020805460ff191691151591909117905580620000f181620002cf565b9150506200008d565b5050600080805560015550620002f99050565b82805482825590600052602060002090810192821562000165579160200282015b828111156200016557825182546001600160a01b0319166001600160a01b039091161782556020909201916001909101906200012e565b506200017392915062000177565b5090565b5b8082111562000173576000815560010162000178565b634e487b7160e01b600052604160045260246000fd5b80516001600160a01b0381168114620001bc57600080fd5b919050565b600080600060608486031215620001d757600080fd5b83516001600160401b0380821115620001ef57600080fd5b818601915086601f8301126200020457600080fd5b81516020828211156200021b576200021b6200018e565b8160051b604051601f19603f830116810181811086821117156200024357620002436200018e565b60405292835281830193508481018201928a8411156200026257600080fd5b948201945b838610156200028b576200027b86620001a4565b8552948201949382019362000267565b97506200029c9050888201620001a4565b955050505050620002b060408501620001a4565b90509250925092565b634e487b7160e01b600052603260045260246000fd5b6000600019821415620002f257634e487b7160e01b600052601160045260246000fd5b5060010190565b61298c80620003096000396000f3fe608060405234801561001057600080fd5b50600436106100cf5760003560e01c8063b0364b671161008c578063ca75964111610066578063ca75964114610221578063cbd3221814610234578063de9d62de14610247578063ebea51b41461025a57600080fd5b8063b0364b67146101da578063c6f3ed8b146101ed578063c815729d1461020e57600080fd5b806306a7ad64146100d457806319752d25146100e957806324af54b6146101745780632d86c000146101875780634579268a146101a757806399ea56b0146101c7575b600080fd5b6100e76100e236600461245d565b61026d565b005b6100fc6100f736600461245d565b610388565b60405161016b919060006101008201905060018060a01b0380845116835280602085015116602084015260408401516040840152806060850151166060840152506080830151608083015260a083015160a083015260c083015160c083015260e083015160e083015292915050565b60405180910390f35b6100e761018236600461245d565b61048e565b61019a61019536600461248b565b6108d7565b60405161016b91906124a8565b6101ba6101b536600461245d565b610901565b60405161016b9190612560565b6100e76101d5366004612650565b610b03565b61019a6101e836600461245d565b610dd2565b6102006101fb366004612688565b610dec565b60405190815260200161016b565b6100e761021c36600461245d565b610fc2565b61020061022f3660046126da565b611264565b6100e761024236600461245d565b6115e0565b61019a61025536600461248b565b611789565b6100e7610268366004612650565b6117ad565b600081815260076020526040902080546001600160a01b03166102ab5760405162461bcd60e51b81526004016102a290612736565b60405180910390fd5b80546001600160a01b031633146102d45760405162461bcd60e51b81526004016102a29061276d565b80546102e9906001600160a01b031683611a50565b600082815260076020818152604080842080546001600160a01b031990811682556001820180548216905560028201869055600382018054909116905560048101859055600581018590556006810185905590920192909255825481516001600160a01b0390911681529182018490527fc54196fb89f0de06064e8350a77850230e5fc554d1d593a76d12c352deadcdde910160405180910390a15050565b6103eb60405180610100016040528060006001600160a01b0316815260200160006001600160a01b031681526020016000815260200160006001600160a01b03168152602001600081526020016000815260200160008152602001600081525090565b600082815260076020526040902080546001600160a01b03166104205760405162461bcd60e51b81526004016102a290612736565b604080516101008101825282546001600160a01b0390811682526001840154811660208301526002840154928201929092526003830154909116606082015260048201546080820152600582015460a0820152600682015460c082015260079091015460e082015292915050565b600081815260086020526040902080546001600160a01b03166104c35760405162461bcd60e51b81526004016102a29061279c565b600a81015460ff166104e75760405162461bcd60e51b81526004016102a2906127ca565b6001810154600090815260076020526040902080546001600160a01b031633146105235760405162461bcd60e51b81526004016102a29061276d565b600a820154610100900460ff161561057a57805460048301546005840154610558926001600160a01b03908116921690611a77565b60028201548254610575916001600160a01b039081169116611bb9565b610766565b600682015460058301546004840154600092620186a09290916105a5906001600160a01b0316611c24565b6105af919061280c565b6105b9919061280c565b6105c3919061282b565b905060005b60078401548110156107635760006106088560070183815481106105ee576105ee61284d565b6000918252602090912001546001600160a01b0316611c24565b610612908461282b565b90508460080182815481106106295761062961284d565b906000526020600020015481111561065e578460080182815481106106505761065061284d565b906000526020600020015490505b6000818660080184815481106106765761067661284d565b906000526020600020015461068b9190612863565b9050811561070657816106ac8760070185815481106105ee576105ee61284d565b6106b6919061280c565b6106c09085612863565b8554600788018054929650610706926001600160a01b0390921691869081106106eb576106eb61284d565b6000918252602090912001546001600160a01b031684611a77565b801561074e57855460078701805461074e926001600160a01b03169190869081106107335761073361284d565b6000918252602090912001546001600160a01b031683611a77565b5050808061075b9061287a565b9150506105c8565b50505b80546006820154610780916001600160a01b031690611a50565b8154610795906001600160a01b031684611ca2565b6107a3826001015484611cc4565b600a82015460018301546040805161010090930460ff1615158352602083019190915281018490527f7c9e91160ddf7baf7154c690eb878e3db5767822c1109de4b4fca9c864e479869060600160405180910390a1600083815260086020526040812080546001600160a01b0319908116825560018201839055600282018054821690556003820183905560048201805490911690556005810182905560068101829055906108556007830182612387565b610863600883016000612387565b50600060098201819055600a909101805461ffff191690556006918201548152600760208190526040822080546001600160a01b0319908116825560018201805482169055600282018490556003820180549091169055600481018390556005810183905592830182905591909101555050565b6001600160a01b0381166000908152600b602052604090206060906108fb90611cdc565b92915050565b61098460405180610180016040528060006001600160a01b031681526020016000815260200160006001600160a01b031681526020016000815260200160006001600160a01b0316815260200160008152602001600081526020016060815260200160608152602001600081526020016000151581526020016000151581525090565b600082815260086020526040902080546001600160a01b03166109b95760405162461bcd60e51b81526004016102a29061279c565b604080516101808101825282546001600160a01b039081168252600184015460208084019190915260028501548216838501526003850154606084015260048501549091166080830152600584015460a0830152600684015460c08301526007840180548451818402810184019095528085529293859360e0860193919291830182828015610a7157602002820191906000526020600020905b81546001600160a01b03168152600190910190602001808311610a53575b5050505050815260200160088201805480602002602001604051908101604052809291908181526020018280548015610ac957602002820191906000526020600020905b815481526020019060010190808311610ab5575b505050918352505060098201546020820152600a9091015460ff808216151560408401526101009091041615156060909101529392505050565b6001600160a01b03821660009081526009602052604090205460ff16610b5d5760405162461bcd60e51b815260206004820152600f60248201526e2737ba103b30b4b632103a37b5b2b760891b60448201526064016102a2565b600083815260086020526040902080546001600160a01b0316610b925760405162461bcd60e51b81526004016102a29061279c565b80546001600160a01b03163314610be05760405162461bcd60e51b81526020600482015260126024820152712737ba10313abcb2b91037b31037b33332b960711b60448201526064016102a2565b600a81015460ff16610c045760405162461bcd60e51b81526004016102a2906127ca565b60008211610c505760405162461bcd60e51b8152602060048201526019602482015278125394d551919250d251539517d25394155517d05353d55395603a1b60448201526064016102a2565b60005b6007820154811015610cb057836001600160a01b0316826007018281548110610c7e57610c7e61284d565b6000918252602090912001546001600160a01b03161415610c9e57610cb0565b80610ca88161287a565b915050610c53565b600782015481108015610ce2575082826008018281548110610cd457610cd461284d565b906000526020600020015410155b610d2e5760405162461bcd60e51b815260206004820152601b60248201527f4e6f7420656e6f75676820616d6f756e74206465706f7369746564000000000060448201526064016102a2565b600a82015460ff1615610d4657610d46338585611a77565b82826008018281548110610d5c57610d5c61284d565b906000526020600020016000828254610d759190612863565b9091555050604080518681526001600160a01b0386166020820152908101849052600060608201527f1dfdcce523ed63eed2c7395d37868b4f7a225655e2e6e7fcd0eb7133034adad5906080015b60405180910390a15050505050565b6000818152600c602052604090206060906108fb90611cdc565b6000610df786611d88565b6001600160a01b0316336001600160a01b031614610e4a5760405162461bcd60e51b815260206004820152601060248201526f139bdd0813dddb995c881bd98813919560821b60448201526064016102a2565b600080549080610e598361287a565b919050555060005490506000604051806101000160405280336001600160a01b03168152602001886001600160a01b03168152602001878152602001866001600160a01b0316815260200185815260200184815260200183815260200160008152509050610ecb816000015183611e0b565b600082815260076020818152604092839020845181546001600160a01b03199081166001600160a01b03928316908117845587850151600185018054841691851691909117905587870151600285015560608089015160038601805490941690851617909255608080890151600486015560a0808a0151600587015560c0808b0151600688015560e0808c0151979099019690965588519283528f8516968301969096529681018d9052918b169082015293840188905290830186905282018490527fc05e5aabf413dd21ad2fc2ddf043c7cf8b15fac2b9377e04eb257b24a2af3c12910160405180910390a15095945050505050565b600081815260086020526040902080546001600160a01b0316610ff75760405162461bcd60e51b81526004016102a29061279c565b6001810154600090815260076020526040902080546001600160a01b031633146110335760405162461bcd60e51b81526004016102a29061276d565b600a82015460ff16156110885760405162461bcd60e51b815260206004820152601d60248201527f546865206f6666657220697320616c726561647920616363657074656400000060448201526064016102a2565b6007810154156110da5760405162461bcd60e51b815260206004820152601f60248201527f54686520726573657276616c20697320616c7265616479206d6174636865640060448201526064016102a2565b6110e382611e2d565b6111275760405162461bcd60e51b8152602060048201526015602482015274139bdd08195b9bdd59da0818dbdb1b185d195c985b605a1b60448201526064016102a2565b61113082611eea565b6111715760405162461bcd60e51b815260206004820152601260248201527109cdee840c2d8d8deeecac840cadcdeeaced60731b60448201526064016102a2565b60005b60078301548110156111f75782546007840180546111e5926001600160a01b03169190849081106111a7576111a761284d565b6000918252602090912001546008860180546001600160a01b0390921691859081106111d5576111d561284d565b9060005260206000200154611ff5565b806111ef8161287a565b915050611174565b50600282015461120f906001600160a01b0316612089565b60078101839055600a8201805460ff191660011790556040517f849b9c9365baf4ef2403308ee92d15dd1da4de6add8ca2ffeacf4358cbe0a757906112579085815260200190565b60405180910390a1505050565b600086815260076020526040812080546001600160a01b03166112995760405162461bcd60e51b81526004016102a290612736565b60018101546001600160a01b038881169116146112ed5760405162461bcd60e51b8152602060048201526012602482015271139195081a5cc81b9bdd081b585d18da195960721b60448201526064016102a2565b600180549060006112fd8361287a565b91905055506001549150600060035467ffffffffffffffff81111561132457611324612895565b60405190808252806020026020018201604052801561134d578160200160208202803683370190505b509050600060035467ffffffffffffffff81111561136d5761136d612895565b604051908082528060200260200182016040528015611396578160200160208202803683370190505b5090506000604051806101800160405280336001600160a01b031681526020018c81526020018b6001600160a01b031681526020018a8152602001896001600160a01b03168152602001888152602001878152602001848152602001838152602001868152602001600015158152602001600015158152509050806008600087815260200190815260200160002060008201518160000160006101000a8154816001600160a01b0302191690836001600160a01b031602179055506020820151816001015560408201518160020160006101000a8154816001600160a01b0302191690836001600160a01b031602179055506060820151816003015560808201518160040160006101000a8154816001600160a01b0302191690836001600160a01b0316021790555060a0820151816005015560c0820151816006015560e08201518160070190805190602001906114ef9291906123a8565b50610100820151805161150c91600884019160209091019061240d565b506101208201516009820155610140820151600a90910180546101609093015115156101000261ff00199215159290921661ffff19909316929092171790556115558b866120e4565b805161156190866120fc565b8051604080516001600160a01b039283168152602081018e90528c831681830152606081018c9052918a16608083015260a0820189905260c0820188905260e08201879052517fda307974aa86f27035cd8c81073664a91b815a537e36377f0f15965e277bfc36918190036101000190a1505050509695505050505050565b600081815260086020526040902080546001600160a01b03166116155760405162461bcd60e51b81526004016102a29061279c565b600a81015460ff166116395760405162461bcd60e51b81526004016102a2906127ca565b600a810154610100900460ff16156116895760405162461bcd60e51b8152602060048201526013602482015272105b1c9958591e481c185e54995cd95c9d9959606a1b60448201526064016102a2565b600181015460009081526007602052604090208154600483015460058401546116bf926001600160a01b03908116921690611ff5565b60005b6007830154811015611745578254600784018054611733926001600160a01b03169190849081106116f5576116f561284d565b6000918252602090912001546008860180546001600160a01b0390921691859081106117235761172361284d565b9060005260206000200154611a77565b8061173d8161287a565b9150506116c2565b50600a8201805461ff0019166101001790556040517f3ad5ff1b4352fbcb9c7e0967bf0cf2387cdd444e6c531f94ac7e411f7404625d906112579085815260200190565b6001600160a01b0381166000908152600a602052604090206060906108fb90611cdc565b6001600160a01b03821660009081526009602052604090205460ff166118075760405162461bcd60e51b815260206004820152600f60248201526e2737ba103b30b4b632103a37b5b2b760891b60448201526064016102a2565b600083815260086020526040902080546001600160a01b031661183c5760405162461bcd60e51b81526004016102a29061279c565b80546001600160a01b0316331461188a5760405162461bcd60e51b81526020600482015260126024820152712737ba10313abcb2b91037b31037b33332b960711b60448201526064016102a2565b600a81015460ff166118ae5760405162461bcd60e51b81526004016102a2906127ca565b600082116118fa5760405162461bcd60e51b8152602060048201526019602482015278125394d551919250d251539517d25394155517d05353d55395603a1b60448201526064016102a2565b60005b600782015481101561195a57836001600160a01b03168260070182815481106119285761192861284d565b6000918252602090912001546001600160a01b031614156119485761195a565b806119528161287a565b9150506118fd565b60078201548114156119ac57600782018054600180820183556000928352602080842090920180546001600160a01b0319166001600160a01b0389161790556008850180549182018155835290822001555b600a82015460ff16156119cf5781546119cf906001600160a01b03168585611ff5565b828260080182815481106119e5576119e561284d565b9060005260206000200160008282546119fe91906128ab565b9091555050604080518681526001600160a01b0386166020820152908101849052600160608201527f1dfdcce523ed63eed2c7395d37868b4f7a225655e2e6e7fcd0eb7133034adad590608001610dc3565b6001600160a01b0382166000908152600a60205260409020611a72908261211e565b505050565b604080518082018252601981527f7472616e7366657228616464726573732c75696e74323536290000000000000060209182015281516001600160a01b0386811660248301526044808301869052845180840390910181526064909201845291810180516001600160e01b031663a9059cbb60e01b17905291516000928392861691611b0391906128c3565b6000604051808303816000865af19150503d8060008114611b40576040519150601f19603f3d011682016040523d82523d6000602084013e611b45565b606091505b5091509150818015611b6f575080511580611b6f575080806020019051810190611b6f91906128fe565b611bb25760405162461bcd60e51b81526020600482015260146024820152731053534e881514905394d1915497d1905253115160621b60448201526064016102a2565b5050505050565b6004805460405163e1268d6f60e01b81526001600160a01b0385811693820193909352838316602482015291169063e1268d6f9060440160006040518083038186803b158015611c0857600080fd5b505afa158015611c1c573d6000803e3d6000fd5b505050505050565b6005546040516315d5220f60e31b81526001600160a01b038381166004830152600092169063aea910789060240160206040518083038186803b158015611c6a57600080fd5b505afa158015611c7e573d6000803e3d6000fd5b505050506040513d601f19601f820116820180604052508101906108fb9190612920565b6001600160a01b0382166000908152600b60205260409020611a72908261211e565b6000828152600c60205260409020611a72908261211e565b60606000826000015467ffffffffffffffff811115611cfd57611cfd612895565b604051908082528060200260200182016040528015611d26578160200160208202803683370190505b5090506000805b6001611d3986836121b8565b925090508015611d735781848481518110611d5657611d5661284d565b602090810291909101015282611d6b8161287a565b935050611d79565b50611d7f565b50611d2d565b50909392505050565b6004805460405163666e1b3960e01b81526001600160a01b03848116938201939093526000929091169063666e1b399060240160206040518083038186803b158015611dd357600080fd5b505afa158015611de7573d6000803e3d6000fd5b505050506040513d601f19601f820116820180604052508101906108fb9190612939565b6001600160a01b0382166000908152600a60205260409020611a7290826121d2565b600080805b6007840154811015611e9457836008018181548110611e5357611e5361284d565b9060005260206000200154611e768560070183815481106105ee576105ee61284d565b611e80919061280c565b915080611e8c8161287a565b915050611e32565b50600683015460058401546004850154600092620186a0929091611ec0906001600160a01b0316611c24565b611eca919061280c565b611ed4919061280c565b611ede919061282b565b91909111159392505050565b600080805b6007840154811015611feb576000846007018281548110611f1257611f1261284d565b6000918252602090912001548554600654604051636eb1769f60e11b81526001600160a01b039283166004820152908216602482015291169063dd62ed3e9060440160206040518083038186803b158015611f6c57600080fd5b505afa158015611f80573d6000803e3d6000fd5b505050506040513d601f19601f82011682018060405250810190611fa49190612920565b9050846008018281548110611fbb57611fbb61284d565b9060005260206000200154811015611fd857506000949350505050565b5080611fe38161287a565b915050611eef565b5060019392505050565b6006546040516323b872dd60e01b81526001600160a01b038581166004830152918216602482015260448101839052908316906323b872dd90606401602060405180830381600087803b15801561204b57600080fd5b505af115801561205f573d6000803e3d6000fd5b505050506040513d601f19601f8201168201806040525081019061208391906128fe565b50505050565b6004805460405163206d827760e11b81526001600160a01b03848116938201939093529116906340db04ee9060240160006040518083038186803b1580156120d057600080fd5b505afa158015611bb2573d6000803e3d6000fd5b6000828152600c60205260409020611a7290826121d2565b6001600160a01b0382166000908152600b60205260409020611a7290826121d2565b6000811580612134575061213283836121e7565b155b15612141575060006108fb565b60008281526001848101602090815260408084208480529091528083205482845292205461217392869290919061226b565b600082815260018481016020908152604080842084805290915280832083905581835282208290558454909185916121ac908490612863565b90915550919392505050565b6000806121c7848460016122a0565b915091509250929050565b60006121e0838360006122e7565b9392505050565b6000818152600183016020908152604080832083805290915281205415801561222a57506000828152600180850160209081526040808420928452919052902054155b1561226357600080805260018085016020908152604080842092845291905290205482141561225b575060016108fb565b5060006108fb565b5060016108fb565b600082815260019094016020818152604080872093158088529382528087208690559486529081528385209115855252912055565b6000806122ad85856121e7565b6122bc575060009050806122df565b505060008281526001848101602090815260408084208515158552909152909120545b935093915050565b60006122f684600085856122fe565b949350505050565b600061230a85846121e7565b15801561231c575061231c85856121e7565b1561237c5760008481526001860160209081526040808320851515845290915290205461234b8686868661226b565b6123578685838661226b565b600186600001600082825461236c91906128ab565b90915550600192506122f6915050565b506000949350505050565b50805460008255906000526020600020908101906123a59190612448565b50565b8280548282559060005260206000209081019282156123fd579160200282015b828111156123fd57825182546001600160a01b0319166001600160a01b039091161782556020909201916001909101906123c8565b50612409929150612448565b5090565b8280548282559060005260206000209081019282156123fd579160200282015b828111156123fd57825182559160200191906001019061242d565b5b808211156124095760008155600101612449565b60006020828403121561246f57600080fd5b5035919050565b6001600160a01b03811681146123a557600080fd5b60006020828403121561249d57600080fd5b81356121e081612476565b6020808252825182820181905260009190848201906040850190845b818110156124e0578351835292840192918401916001016124c4565b50909695505050505050565b600081518084526020808501945080840160005b838110156125255781516001600160a01b031687529582019590820190600101612500565b509495945050505050565b600081518084526020808501945080840160005b8381101561252557815187529582019590820190600101612544565b6020815261257a6020820183516001600160a01b03169052565b60208201516040820152600060408301516125a060608401826001600160a01b03169052565b506060830151608083015260808301516125c560a08401826001600160a01b03169052565b5060a083015160c083015260c083015160e083015260e083015161018061010081818601526125f86101a08601846124ec565b9250808601519050610120601f1986850301818701526126188483612530565b9087015161014087810191909152870151909350905061016061263e8187018315159052565b90950151151593019290925250919050565b60008060006060848603121561266557600080fd5b83359250602084013561267781612476565b929592945050506040919091013590565b600080600080600060a086880312156126a057600080fd5b85356126ab81612476565b94506020860135935060408601356126c281612476565b94979396509394606081013594506080013592915050565b60008060008060008060c087890312156126f357600080fd5b86359550602087013561270581612476565b945060408701359350606087013561271c81612476565b9598949750929560808101359460a0909101359350915050565b60208082526017908201527f4e6f207375636820726573657276616c20657869737473000000000000000000604082015260600190565b602080825260159082015274139bdd081bdddb995c881bd9881c995cd95c9d985b605a1b604082015260600190565b6020808252601490820152734e6f2073756368206f666665722065786973747360601b604082015260600190565b6020808252601290820152712737ba1030b1b1b2b83a32b21037b33332b960711b604082015260600190565b634e487b7160e01b600052601160045260246000fd5b6000816000190483118215151615612826576128266127f6565b500290565b60008261284857634e487b7160e01b600052601260045260246000fd5b500490565b634e487b7160e01b600052603260045260246000fd5b600082821015612875576128756127f6565b500390565b600060001982141561288e5761288e6127f6565b5060010190565b634e487b7160e01b600052604160045260246000fd5b600082198211156128be576128be6127f6565b500190565b6000825160005b818110156128e457602081860181015185830152016128ca565b818111156128f3576000828501525b509190910192915050565b60006020828403121561291057600080fd5b815180151581146121e057600080fd5b60006020828403121561293257600080fd5b5051919050565b60006020828403121561294b57600080fd5b81516121e08161247656fea2646970667358221220d183edd8b246cd8dc86f0f2e05becebcbf4838d7d66fae46e8c14bca97da131464736f6c63430008090033",
  "immutableReferences": {},
  "source": "// SPDX-License-Identifier: MIT\r\npragma solidity >=0.8.0 <0.9.0;\r\n\r\nimport {IERC721} from \"@openzeppelin/contracts/token/ERC721/IERC721.sol\";\r\nimport {IERC20} from \"@openzeppelin/contracts/token/ERC20/IERC20.sol\";\r\nimport {IERC721Metadata} from \"@openzeppelin/contracts/token/ERC721/extensions/IERC721Metadata.sol\";\r\nimport {IERC20Metadata} from \"@openzeppelin/contracts/token/ERC20/extensions/IERC20Metadata.sol\";\r\nimport \"@openzeppelin/contracts/token/ERC20/ERC20.sol\";\r\nimport \"solidity-linked-list/contracts/StructuredLinkedList.sol\";\r\nimport {IPriceOracle} from \"./interface/IPriceOracle.sol\";\r\nimport {INFTVault} from \"./interface/INFTVault.sol\";\r\n\r\n\r\ncontract NFTReservalManager {\r\n  using StructuredLinkedList for StructuredLinkedList.List;\r\n  uint256 private constant PCT_DIVIDER = 100000;\r\n  bytes4 private constant SELECTOR = bytes4(keccak256(bytes('transfer(address,uint256)')));\r\n\r\n  event OReservalCreated(\r\n    address owner,\r\n    address nft,\r\n    uint256 expiry,\r\n    address token,\r\n    uint256 price,\r\n    uint256 pct,\r\n    uint256 reservalID\r\n  );\r\n\r\n  event OReservalCanceled(\r\n    address owner,\r\n    uint256 reservalID\r\n  );\r\n\r\n  event BOfferCreated(\r\n    address buyer,\r\n    uint256 reservalID,\r\n    address nft,\r\n    uint256 expiry,\r\n    address token,\r\n    uint256 price,\r\n    uint256 pct,\r\n    uint256 offerID\r\n  );\r\n\r\n  event OOfferAccepted(\r\n    uint256 offerID\r\n  );\r\n\r\n  event Assigned(\r\n    bool assigned,\r\n    uint256 reservalID,\r\n    uint256 offerID\r\n  );\r\n  \r\n  event CollateralDeposit(\r\n    uint256 offerID,\r\n    address token,\r\n    uint256 amount,\r\n    bool isDeposit\r\n  );\r\n\r\n  event ReservePayed(\r\n    uint256 offerID\r\n  );\r\n  \r\n  struct NFTReserval {\r\n    address owner;\r\n    address nft;\r\n    uint256 expiry;\r\n    address token;\r\n    uint256 price;\r\n    uint256 pct;\r\n    uint256 reservalID;\r\n    uint256 acceptedOfferID;\r\n  }\r\n\r\n  struct Offer {\r\n    address buyer;\r\n    uint256 reservalID;\r\n    address nft;\r\n    uint256 expiry;\r\n    address token;\r\n    uint256 price;\r\n    uint256 pct;\r\n    address[] colTokens;\r\n    uint256[] colAmounts;\r\n    uint256 offerID;\r\n    bool accepted;\r\n    bool reservePayed;\r\n  }\r\n\r\n  uint256 cntReserval;\r\n  uint256 cntOffer;\r\n  address[] tokens;\r\n  uint256 TOKEN_CNT;\r\n  address nftVault;\r\n  address priceOracle;\r\n  address admin;\r\n\r\n  mapping(uint256 => NFTReserval) reservals;\r\n  mapping(uint256 => Offer) offers;\r\n\r\n  mapping(address => bool) validToken;\r\n\r\n  mapping(address => StructuredLinkedList.List) listReserval;\r\n  mapping(address => StructuredLinkedList.List) listOffer;\r\n  mapping(uint256 => StructuredLinkedList.List) listOfferReq;\r\n\r\n  constructor(\r\n    address[] memory _tokens,\r\n    address _nftVault,\r\n    address _priceOracle\r\n  ) public {\r\n    tokens = _tokens;\r\n    nftVault = _nftVault;\r\n    priceOracle = _priceOracle;\r\n    admin = address(this);\r\n    TOKEN_CNT = _tokens.length;\r\n    for (uint i = 0; i < TOKEN_CNT; i++) {\r\n        validToken[_tokens[i]] = true;\r\n    }\r\n    cntReserval = 0;\r\n    cntOffer = 0;\r\n  }\r\n  \r\n  function createReserval(\r\n    address nft,\r\n    uint256 expiry,\r\n    address token,\r\n    uint256 price,\r\n    uint256 pct\r\n  ) external returns (uint256 reservalID) {\r\n    require(msg.sender == _nftOwner(nft), \"Not Owner of NFT\");\r\n    cntReserval++;\r\n    reservalID = cntReserval;\r\n    NFTReserval memory reserval = NFTReserval(msg.sender, nft, expiry, token, price, pct, reservalID, 0);\r\n\r\n    _reserval_add(reserval.owner, reservalID);\r\n    reservals[reservalID] = reserval;\r\n    \r\n    emit OReservalCreated(reserval.owner, nft, expiry, token, price, pct, reservalID);\r\n  }\r\n  \r\n  function cancelReserval(\r\n    uint256 reservalID\r\n  ) external {\r\n    NFTReserval storage reserval = _getReserval(reservalID);\r\n    require(reserval.owner != address(0), \"No such reserval exists\");\r\n    require(reserval.owner == msg.sender, \"Not owner of reserval\");\r\n\r\n    _reserval_remove(reserval.owner, reservalID);\r\n    delete reservals[reservalID];\r\n    \r\n    emit OReservalCanceled(reserval.owner, reservalID);\r\n  }\r\n  \r\n  function createOffer(\r\n    uint256 reservalID,\r\n    address nft,\r\n    uint256 expiry,\r\n    address token,\r\n    uint256 price,\r\n    uint256 pct\r\n  ) external returns (uint256 offerID) {\r\n    NFTReserval storage reserval = _getReserval(reservalID);\r\n    require(reserval.owner != address(0), \"No such reserval exists\");\r\n    require(reserval.nft == nft, \"NFT is not matched\");\r\n\r\n    cntOffer++;\r\n    offerID = cntOffer;\r\n    address[] memory colTokens = new address[](TOKEN_CNT);\r\n    uint256[] memory colAmounts = new uint256[](TOKEN_CNT);\r\n\r\n    Offer memory offer = Offer(\r\n      msg.sender,\r\n      reservalID,\r\n      nft,\r\n      expiry,\r\n      token,\r\n      price,\r\n      pct,\r\n      colTokens,\r\n      colAmounts,\r\n      offerID,\r\n      false,\r\n      false\r\n      );\r\n\r\n    offers[offerID] = offer;\r\n    _offerReq_add(reservalID, offerID);\r\n    _offer_add(offer.buyer, offerID);\r\n\r\n    emit BOfferCreated(\r\n      offer.buyer,\r\n      reservalID,\r\n      nft,\r\n      expiry,\r\n      token,\r\n      price,\r\n      pct,\r\n      offerID\r\n      );\r\n  }\r\n\r\n  function acceptOffer(\r\n    uint256 offerID\r\n  ) external {\r\n    Offer storage offer = _getOffer(offerID);\r\n    require(offer.buyer != address(0), \"No such offer exists\");\r\n    \r\n    NFTReserval storage reserval = _getReserval(offer.reservalID);\r\n    require(msg.sender == reserval.owner, \"Not owner of reserval\");\r\n    \r\n    require(!offer.accepted, \"The offer is already accepted\");\r\n    require(reserval.acceptedOfferID == 0, \"The reserval is already matched\");\r\n\r\n    require(_checkCollateral(offer), \"Not enough collateral\");\r\n    require(_checkAllowance(offer), \"Not allowed enough\");\r\n    for (uint i = 0; i < offer.colTokens.length; i++) {\r\n      _putIn(offer.buyer, offer.colTokens[i], offer.colAmounts[i]);\r\n    }\r\n    _lockNFT(offer.nft);\r\n\r\n    reserval.acceptedOfferID = offerID;\r\n    offer.accepted = true;\r\n\r\n    emit OOfferAccepted(offerID);\r\n  }\r\n\r\n  function assignOffer(\r\n    uint256 offerID\r\n  ) external {\r\n    Offer storage offer = _getOffer(offerID);\r\n    require(offer.buyer != address(0), \"No such offer exists\");\r\n    require(offer.accepted, \"Not accepted offer\");\r\n    \r\n    NFTReserval storage reserval = _getReserval(offer.reservalID);\r\n    require(msg.sender == reserval.owner, \"Not owner of reserval\");\r\n\r\n    if (offer.reservePayed) {\r\n      _putOut(reserval.owner, offer.token, offer.price);\r\n      _transferNFT(offer.nft, offer.buyer);\r\n    }\r\n    else {\r\n      uint256 unpayed = _tokenToUSD(offer.token) * offer.price * offer.pct / PCT_DIVIDER;\r\n      for (uint i = 0; i < offer.colTokens.length; i++) {\r\n        uint256 amountToOwner = unpayed / _tokenToUSD(offer.colTokens[i]);\r\n        if (amountToOwner > offer.colAmounts[i]) amountToOwner = offer.colAmounts[i];\r\n        uint256 amountToBuyer = offer.colAmounts[i] - amountToOwner;\r\n        if (amountToOwner > 0) {\r\n          unpayed = unpayed - _tokenToUSD(offer.colTokens[i]) * amountToOwner;\r\n          _putOut(reserval.owner, offer.colTokens[i], amountToOwner);\r\n        }\r\n        if (amountToBuyer > 0) {\r\n          _putOut(offer.buyer, offer.colTokens[i], amountToBuyer);\r\n        }\r\n      }\r\n    }\r\n\r\n    _reserval_remove(reserval.owner, reserval.reservalID);\r\n    _offer_remove(offer.buyer, offerID);\r\n    _offerReq_remove(offer.reservalID, offerID);\r\n    emit Assigned(offer.reservePayed, offer.reservalID, offerID);\r\n\r\n    delete offers[offerID];\r\n    delete reservals[reserval.reservalID];\r\n  }\r\n\r\n  function payReserve(\r\n    uint256 offerID\r\n  ) external {\r\n    Offer storage offer = _getOffer(offerID);\r\n    require(offer.buyer != address(0), \"No such offer exists\");\r\n    require(offer.accepted, \"Not accepted offer\");\r\n    require(!offer.reservePayed, \"Already payReserved\");\r\n    \r\n    NFTReserval storage reserval = _getReserval(offer.reservalID);\r\n\r\n    _putIn(offer.buyer, offer.token, offer.price);\r\n    for (uint i = 0; i < offer.colTokens.length; i++) {\r\n      _putOut(offer.buyer, offer.colTokens[i], offer.colAmounts[i]);\r\n    }\r\n\r\n    offer.reservePayed = true;\r\n\r\n    emit ReservePayed(offerID);\r\n  }\r\n\r\n  function depositCollateral(\r\n    uint256 offerID,\r\n    address token,\r\n    uint256 amount\r\n  ) external {\r\n    require(validToken[token], \"Not vaild token\");\r\n    Offer storage offer = _getOffer(offerID);\r\n    require(offer.buyer != address(0), \"No such offer exists\");\r\n    require(msg.sender == offer.buyer, \"Not buyer of offer\");\r\n    require(offer.accepted, \"Not accepted offer\");\r\n\r\n    require(amount > 0, \"INSUFFICIENT_INPUT_AMOUNT\");\r\n\r\n    uint id = 0;\r\n    for (id = 0; id < offer.colTokens.length; id++) {\r\n      if (offer.colTokens[id] == token) break;\r\n    }\r\n    if (offer.colTokens.length == id) {\r\n      offer.colTokens.push(token);\r\n      offer.colAmounts.push(0);\r\n    }\r\n    if (offer.accepted) {\r\n      _putIn(offer.buyer, token, amount);\r\n    }\r\n    offer.colAmounts[id] += amount;\r\n\r\n    emit CollateralDeposit(offerID, token, amount, true);\r\n  }\r\n\r\n  function withdrawCollateral(\r\n    uint256 offerID,\r\n    address token,\r\n    uint256 amount\r\n  ) external {\r\n    require(validToken[token], \"Not vaild token\");\r\n    Offer storage offer = _getOffer(offerID);\r\n    require(offer.buyer != address(0), \"No such offer exists\");\r\n    require(msg.sender == offer.buyer, \"Not buyer of offer\");\r\n    require(offer.accepted, \"Not accepted offer\");\r\n\r\n    require(amount > 0, \"INSUFFICIENT_INPUT_AMOUNT\");\r\n    \r\n    uint id = 0;\r\n    for (id = 0; id < offer.colTokens.length; id++) {\r\n      if (offer.colTokens[id] == token) break;\r\n    }\r\n    require((offer.colTokens.length > id) && (offer.colAmounts[id] >= amount), \"Not enough amount deposited\");\r\n\r\n    if (offer.accepted) {\r\n      _putOut(msg.sender, token, amount);\r\n    }\r\n    offer.colAmounts[id] -= amount;\r\n\r\n    emit CollateralDeposit(offerID, token, amount, false);\r\n  }\r\n\r\n  function getNFTReservals(address owner) external returns (uint256[] memory) {\r\n    return _getFullList(listReserval[owner]);\r\n  }\r\n\r\n  function getOffers(address buyer) external returns (uint256[] memory) {\r\n    return _getFullList(listOffer[buyer]);\r\n  }\r\n\r\n  function getOfferReqs(uint256 reservalID) external returns (uint256[] memory) {\r\n    return _getFullList(listOfferReq[reservalID]);\r\n  }\r\n\r\n  function getReserval(uint256 reservalID) external returns (NFTReserval memory reserval) {\r\n    NFTReserval storage _reserval = _getReserval(reservalID);\r\n    require(_reserval.owner != address(0), \"No such reserval exists\");\r\n    reserval = _reserval;\r\n  }\r\n\r\n  function getOffer(uint256 offerID) external returns (Offer memory offer) {\r\n    Offer storage _offer = _getOffer(offerID);\r\n    require(_offer.buyer != address(0), \"No such offer exists\");\r\n    offer = _offer;\r\n  }\r\n\r\n  //-------------------------------------------------------------------------------//\r\n  //----------------------------- private functions -------------------------------//\r\n  //-------------------------------------------------------------------------------//\r\n  function _getReserval(uint256 reservalID) private returns (NFTReserval storage) {\r\n    return reservals[reservalID];\r\n  }\r\n\r\n  function _getOffer(uint256 offerID) private returns (Offer storage) {\r\n    return offers[offerID];\r\n  }\r\n\r\n  function _checkCollateral(Offer storage offer) private returns (bool) {\r\n    uint256 totalUSD = 0;\r\n    for (uint i = 0; i < offer.colTokens.length; i++) {\r\n      totalUSD = _tokenToUSD(offer.colTokens[i]) * offer.colAmounts[i];\r\n    }\r\n    uint256 requiredUSD = _tokenToUSD(offer.token) * offer.price * offer.pct / PCT_DIVIDER;\r\n    return requiredUSD <= totalUSD;\r\n  }\r\n\r\n  function _checkAllowance(Offer storage offer) private returns (bool) {\r\n    uint256 totalUSD = 0;\r\n    for (uint i = 0; i < offer.colTokens.length; i++) {\r\n      uint256 allownce = IERC20(offer.colTokens[i]).allowance(offer.buyer, admin);\r\n      if (allownce < offer.colAmounts[i]) return false;\r\n    }\r\n    return true;\r\n  }\r\n\r\n  function _putIn(address account, address token, uint256 amount) private {\r\n    IERC20(token).transferFrom(account, admin, amount);\r\n  }\r\n\r\n  function _putOut(address account, address token, uint256 amount) private {\r\n    (bool success, bytes memory data) = token.call(\r\n        abi.encodeWithSelector(SELECTOR, account, amount)\r\n    );\r\n    require(\r\n        success && (data.length == 0 || abi.decode(data, (bool))),\r\n        \"AMM: TRANSFER_FAILED\"\r\n    );\r\n  }\r\n  //-------------------------------------------------------------------------------//\r\n\r\n\r\n  //-------------------------------------------------------------------------------//\r\n  //---------------------------- Interface functions ------------------------------//\r\n  //-------------------------------------------------------------------------------//\r\n  function _nftOwner(address nft) private returns (address) {\r\n    return INFTVault(nftVault).owner(nft);\r\n  }\r\n\r\n  function _lockNFT(address nft) private {\r\n    INFTVault(nftVault).lockNFT(nft);\r\n  }\r\n\r\n  function _unlockNFT(address nft) private {\r\n    INFTVault(nftVault).unlockNFT(nft);\r\n  }\r\n\r\n  function _transferNFT(address nft, address to) private {\r\n    INFTVault(nftVault).transferNFT(nft, to);\r\n  }\r\n\r\n  function _tokenToUSD(address token) private returns (uint256) {\r\n    return IPriceOracle(priceOracle).price(token);\r\n  }\r\n  //-------------------------------------------------------------------------------//\r\n\r\n\r\n  //-------------------------------------------------------------------------------//\r\n  //--------------------------- Linked List functions -----------------------------//\r\n  //-------------------------------------------------------------------------------//\r\n  function _reserval_add(address owner, uint256 reservalID) private {\r\n    StructuredLinkedList.pushBack(listReserval[owner], reservalID);\r\n  }\r\n\r\n  function _reserval_remove(address owner, uint256 reservalID) private {\r\n    StructuredLinkedList.remove(listReserval[owner], reservalID);\r\n  }\r\n\r\n  function _offer_add(address buyer, uint256 offerID) private {\r\n    StructuredLinkedList.pushBack(listOffer[buyer], offerID);\r\n  }\r\n\r\n  function _offer_remove(address buyer, uint256 offerID) private {\r\n    StructuredLinkedList.remove(listOffer[buyer], offerID);\r\n  }\r\n\r\n  function _offerReq_add(uint256 reservalID, uint256 offerID) private {\r\n    StructuredLinkedList.pushBack(listOfferReq[reservalID], offerID);\r\n  }\r\n\r\n  function _offerReq_remove(uint256 reservalID, uint256 offerID) private {\r\n    StructuredLinkedList.remove(listOfferReq[reservalID], offerID);\r\n  }\r\n\r\n  function _getFullList(StructuredLinkedList.List storage list) private returns (uint256[] memory) {\r\n    uint256[] memory ids = new uint256[](list.size);\r\n    uint cnt = 0;\r\n    for (uint256 cur = 0; ; ) {\r\n      bool exists = true;\r\n      (exists, cur) = StructuredLinkedList.getNextNode(list, cur);\r\n      if (exists) {\r\n        ids[cnt] = cur;\r\n        cnt++;\r\n      }\r\n      else {\r\n        break;\r\n      }\r\n    }\r\n    return ids;\r\n  }\r\n  //-------------------------------------------------------------------------------//\r\n}\r\n",
  "sourcePath": "E:\\Projects\\Privi2\\PriviNFTOptions\\privi-NFT-buying\\contracts\\NFTReservalManager.sol",
  "compiler": {
    "name": "solc",
    "version": "0.8.9+commit.e5eed63a.Emscripten.clang"
  },
  "schemaVersion": "3.4.3",
  "updatedAt": "2021-11-09T19:28:46.186Z",
  "networkType": "ethereum",
  "devdoc": {
    "kind": "dev",
    "methods": {},
    "version": 1
  },
  "userdoc": {
    "kind": "user",
    "methods": {},
    "version": 1
  }
}