{
  "contractName": "NFTReservalManager",
  "abi": [
    {
      "inputs": [
        {
          "internalType": "address",
          "name": "_nftVault",
          "type": "address"
        },
        {
          "internalType": "address",
          "name": "_priceOracle",
          "type": "address"
        }
      ],
      "stateMutability": "nonpayable",
      "type": "constructor"
    },
    {
      "anonymous": false,
      "inputs": [
        {
          "indexed": false,
          "internalType": "bool",
          "name": "assigned",
          "type": "bool"
        },
        {
          "indexed": false,
          "internalType": "uint256",
          "name": "reservalID",
          "type": "uint256"
        },
        {
          "indexed": false,
          "internalType": "uint256",
          "name": "offerID",
          "type": "uint256"
        }
      ],
      "name": "EAssigned",
      "type": "event"
    },
    {
      "anonymous": false,
      "inputs": [
        {
          "indexed": false,
          "internalType": "uint256",
          "name": "offerID",
          "type": "uint256"
        },
        {
          "indexed": false,
          "internalType": "address",
          "name": "token",
          "type": "address"
        },
        {
          "indexed": false,
          "internalType": "uint256",
          "name": "amount",
          "type": "uint256"
        },
        {
          "indexed": false,
          "internalType": "bool",
          "name": "isDeposit",
          "type": "bool"
        }
      ],
      "name": "ECollateralDeposit",
      "type": "event"
    },
    {
      "anonymous": false,
      "inputs": [
        {
          "indexed": false,
          "internalType": "uint256",
          "name": "offerID",
          "type": "uint256"
        }
      ],
      "name": "EOfferAccepted",
      "type": "event"
    },
    {
      "anonymous": false,
      "inputs": [
        {
          "indexed": false,
          "internalType": "address",
          "name": "buyer",
          "type": "address"
        },
        {
          "indexed": false,
          "internalType": "uint256",
          "name": "offerID",
          "type": "uint256"
        }
      ],
      "name": "EOfferCanceled",
      "type": "event"
    },
    {
      "anonymous": false,
      "inputs": [
        {
          "indexed": false,
          "internalType": "address",
          "name": "buyer",
          "type": "address"
        },
        {
          "indexed": false,
          "internalType": "uint256",
          "name": "reservalID",
          "type": "uint256"
        },
        {
          "indexed": false,
          "internalType": "address",
          "name": "nft",
          "type": "address"
        },
        {
          "indexed": false,
          "internalType": "uint256",
          "name": "expiry",
          "type": "uint256"
        },
        {
          "indexed": false,
          "internalType": "address",
          "name": "token",
          "type": "address"
        },
        {
          "indexed": false,
          "internalType": "uint256",
          "name": "price",
          "type": "uint256"
        },
        {
          "indexed": false,
          "internalType": "uint256",
          "name": "pct",
          "type": "uint256"
        },
        {
          "indexed": false,
          "internalType": "uint256",
          "name": "offerID",
          "type": "uint256"
        }
      ],
      "name": "EOfferUpdated",
      "type": "event"
    },
    {
      "anonymous": false,
      "inputs": [
        {
          "indexed": false,
          "internalType": "address",
          "name": "owner",
          "type": "address"
        },
        {
          "indexed": false,
          "internalType": "uint256",
          "name": "reservalID",
          "type": "uint256"
        }
      ],
      "name": "EReservalCanceled",
      "type": "event"
    },
    {
      "anonymous": false,
      "inputs": [
        {
          "indexed": false,
          "internalType": "address",
          "name": "owner",
          "type": "address"
        },
        {
          "indexed": false,
          "internalType": "address",
          "name": "nft",
          "type": "address"
        },
        {
          "indexed": false,
          "internalType": "uint256",
          "name": "expiry",
          "type": "uint256"
        },
        {
          "indexed": false,
          "internalType": "address",
          "name": "token",
          "type": "address"
        },
        {
          "indexed": false,
          "internalType": "uint256",
          "name": "price",
          "type": "uint256"
        },
        {
          "indexed": false,
          "internalType": "uint256",
          "name": "pct",
          "type": "uint256"
        },
        {
          "indexed": false,
          "internalType": "uint256",
          "name": "reservalID",
          "type": "uint256"
        }
      ],
      "name": "EReservalUpdated",
      "type": "event"
    },
    {
      "anonymous": false,
      "inputs": [
        {
          "indexed": false,
          "internalType": "uint256",
          "name": "offerID",
          "type": "uint256"
        }
      ],
      "name": "EReservePayed",
      "type": "event"
    },
    {
      "inputs": [
        {
          "internalType": "address[]",
          "name": "_tokens",
          "type": "address[]"
        }
      ],
      "name": "registerValidToken",
      "outputs": [],
      "stateMutability": "nonpayable",
      "type": "function"
    },
    {
      "inputs": [
        {
          "internalType": "address",
          "name": "nft",
          "type": "address"
        },
        {
          "internalType": "uint256",
          "name": "expiry",
          "type": "uint256"
        },
        {
          "internalType": "address",
          "name": "token",
          "type": "address"
        },
        {
          "internalType": "uint256",
          "name": "price",
          "type": "uint256"
        },
        {
          "internalType": "uint256",
          "name": "pct",
          "type": "uint256"
        },
        {
          "internalType": "uint256",
          "name": "id",
          "type": "uint256"
        }
      ],
      "name": "updateReserval",
      "outputs": [
        {
          "internalType": "uint256",
          "name": "reservalID",
          "type": "uint256"
        }
      ],
      "stateMutability": "nonpayable",
      "type": "function"
    },
    {
      "inputs": [
        {
          "internalType": "uint256",
          "name": "reservalID",
          "type": "uint256"
        }
      ],
      "name": "cancelReserval",
      "outputs": [],
      "stateMutability": "nonpayable",
      "type": "function"
    },
    {
      "inputs": [
        {
          "internalType": "uint256",
          "name": "reservalID",
          "type": "uint256"
        },
        {
          "internalType": "address",
          "name": "nft",
          "type": "address"
        },
        {
          "internalType": "uint256",
          "name": "expiry",
          "type": "uint256"
        },
        {
          "internalType": "address",
          "name": "token",
          "type": "address"
        },
        {
          "internalType": "uint256",
          "name": "price",
          "type": "uint256"
        },
        {
          "internalType": "uint256",
          "name": "pct",
          "type": "uint256"
        },
        {
          "internalType": "uint256",
          "name": "id",
          "type": "uint256"
        }
      ],
      "name": "updateOffer",
      "outputs": [
        {
          "internalType": "uint256",
          "name": "offerID",
          "type": "uint256"
        }
      ],
      "stateMutability": "nonpayable",
      "type": "function"
    },
    {
      "inputs": [
        {
          "internalType": "uint256",
          "name": "offerID",
          "type": "uint256"
        }
      ],
      "name": "cancelOffer",
      "outputs": [],
      "stateMutability": "nonpayable",
      "type": "function"
    },
    {
      "inputs": [
        {
          "internalType": "uint256",
          "name": "offerID",
          "type": "uint256"
        }
      ],
      "name": "acceptOffer",
      "outputs": [],
      "stateMutability": "nonpayable",
      "type": "function"
    },
    {
      "inputs": [
        {
          "internalType": "uint256",
          "name": "offerID",
          "type": "uint256"
        }
      ],
      "name": "assignOffer",
      "outputs": [],
      "stateMutability": "nonpayable",
      "type": "function"
    },
    {
      "inputs": [
        {
          "internalType": "uint256",
          "name": "offerID",
          "type": "uint256"
        }
      ],
      "name": "payReserve",
      "outputs": [],
      "stateMutability": "nonpayable",
      "type": "function"
    },
    {
      "inputs": [
        {
          "internalType": "uint256",
          "name": "offerID",
          "type": "uint256"
        },
        {
          "internalType": "address",
          "name": "token",
          "type": "address"
        },
        {
          "internalType": "uint256",
          "name": "amount",
          "type": "uint256"
        }
      ],
      "name": "depositCollateral",
      "outputs": [],
      "stateMutability": "nonpayable",
      "type": "function"
    },
    {
      "inputs": [
        {
          "internalType": "uint256",
          "name": "offerID",
          "type": "uint256"
        },
        {
          "internalType": "address",
          "name": "token",
          "type": "address"
        },
        {
          "internalType": "uint256",
          "name": "amount",
          "type": "uint256"
        }
      ],
      "name": "withdrawCollateral",
      "outputs": [],
      "stateMutability": "nonpayable",
      "type": "function"
    },
    {
      "inputs": [
        {
          "internalType": "address",
          "name": "owner",
          "type": "address"
        }
      ],
      "name": "getNFTReservals",
      "outputs": [
        {
          "internalType": "uint256[]",
          "name": "",
          "type": "uint256[]"
        }
      ],
      "stateMutability": "nonpayable",
      "type": "function"
    },
    {
      "inputs": [
        {
          "internalType": "address",
          "name": "buyer",
          "type": "address"
        }
      ],
      "name": "getOffers",
      "outputs": [
        {
          "internalType": "uint256[]",
          "name": "",
          "type": "uint256[]"
        }
      ],
      "stateMutability": "nonpayable",
      "type": "function"
    },
    {
      "inputs": [
        {
          "internalType": "uint256",
          "name": "reservalID",
          "type": "uint256"
        }
      ],
      "name": "getOfferReqs",
      "outputs": [
        {
          "internalType": "uint256[]",
          "name": "",
          "type": "uint256[]"
        }
      ],
      "stateMutability": "nonpayable",
      "type": "function"
    },
    {
      "inputs": [
        {
          "internalType": "uint256",
          "name": "reservalID",
          "type": "uint256"
        }
      ],
      "name": "getReserval",
      "outputs": [
        {
          "components": [
            {
              "internalType": "address",
              "name": "owner",
              "type": "address"
            },
            {
              "internalType": "address",
              "name": "nft",
              "type": "address"
            },
            {
              "internalType": "uint256",
              "name": "expiry",
              "type": "uint256"
            },
            {
              "internalType": "address",
              "name": "token",
              "type": "address"
            },
            {
              "internalType": "uint256",
              "name": "price",
              "type": "uint256"
            },
            {
              "internalType": "uint256",
              "name": "pct",
              "type": "uint256"
            },
            {
              "internalType": "uint256",
              "name": "reservalID",
              "type": "uint256"
            },
            {
              "internalType": "uint256",
              "name": "acceptedOfferID",
              "type": "uint256"
            }
          ],
          "internalType": "struct NFTReservalManager.NFTReserval",
          "name": "reserval",
          "type": "tuple"
        }
      ],
      "stateMutability": "nonpayable",
      "type": "function"
    },
    {
      "inputs": [
        {
          "internalType": "uint256",
          "name": "offerID",
          "type": "uint256"
        }
      ],
      "name": "getOffer",
      "outputs": [
        {
          "components": [
            {
              "internalType": "address",
              "name": "buyer",
              "type": "address"
            },
            {
              "internalType": "uint256",
              "name": "reservalID",
              "type": "uint256"
            },
            {
              "internalType": "address",
              "name": "nft",
              "type": "address"
            },
            {
              "internalType": "uint256",
              "name": "expiry",
              "type": "uint256"
            },
            {
              "internalType": "address",
              "name": "token",
              "type": "address"
            },
            {
              "internalType": "uint256",
              "name": "price",
              "type": "uint256"
            },
            {
              "internalType": "uint256",
              "name": "pct",
              "type": "uint256"
            },
            {
              "internalType": "address[]",
              "name": "colTokens",
              "type": "address[]"
            },
            {
              "internalType": "uint256[]",
              "name": "colAmounts",
              "type": "uint256[]"
            },
            {
              "internalType": "uint256",
              "name": "offerID",
              "type": "uint256"
            },
            {
              "internalType": "bool",
              "name": "accepted",
              "type": "bool"
            },
            {
              "internalType": "bool",
              "name": "reservePayed",
              "type": "bool"
            }
          ],
          "internalType": "struct NFTReservalManager.Offer",
          "name": "offer",
          "type": "tuple"
        }
      ],
      "stateMutability": "nonpayable",
      "type": "function"
    }
  ],
  "bytecode": "0x60806040523480156200001157600080fd5b5060405162002fcf38038062002fcf83398101604081905262000034916200013c565b604080516000815260208101918290525162000053916002916200009e565b50600480546001600160a01b039384166001600160a01b0319918216179091556005805492909316918116919091179091556006805490911630179055600080805560015562000174565b828054828255906000526020600020908101928215620000f6579160200282015b82811115620000f657825182546001600160a01b0319166001600160a01b03909116178255602090920191600190910190620000bf565b506200010492915062000108565b5090565b5b8082111562000104576000815560010162000109565b80516001600160a01b03811681146200013757600080fd5b919050565b600080604083850312156200015057600080fd5b6200015b836200011f565b91506200016b602084016200011f565b90509250929050565b612e4b80620001846000396000f3fe608060405234801561001057600080fd5b50600436106100f55760003560e01c806399ea56b011610097578063d2ac6c4411610066578063d2ac6c441461026d578063de9d62de14610280578063ebea51b414610293578063ef706adf146102a657600080fd5b806399ea56b014610221578063b0364b6714610234578063c815729d14610247578063cbd322181461025a57600080fd5b80632d86c000116100d35780632d86c000146101ad5780634579268a146101cd5780636092de2a146101ed578063980d4d5d1461020e57600080fd5b806306a7ad64146100fa57806319752d251461010f57806324af54b61461019a575b600080fd5b61010d610108366004612808565b6102b9565b005b61012261011d366004612808565b6103c9565b604051610191919060006101008201905060018060a01b0380845116835280602085015116602084015260408401516040840152806060850151166060840152506080830151608083015260a083015160a083015260c083015160c083015260e083015160e083015292915050565b60405180910390f35b61010d6101a8366004612808565b6104cf565b6101c06101bb366004612846565b610918565b6040516101919190612863565b6101e06101db366004612808565b610942565b604051610191919061291b565b6102006101fb366004612a0b565b610b44565b604051908152602001610191565b61020061021c366004612a70565b610fd4565b61010d61022f366004612acc565b61128e565b6101c0610242366004612808565b611538565b61010d610255366004612808565b611552565b61010d610268366004612808565b6117f4565b61010d61027b366004612b1a565b61199d565b6101c061028e366004612846565b611a23565b61010d6102a1366004612acc565b611a47565b61010d6102b4366004612808565b611cc5565b600081815260076020526040902080546001600160a01b03166102f75760405162461bcd60e51b81526004016102ee90612bdf565b60405180910390fd5b80546001600160a01b031633146103205760405162461bcd60e51b81526004016102ee90612c16565b8054610335906001600160a01b031683611dfb565b600082815260076020818152604080842080546001600160a01b03199081168255600182018054821690556002820186905560038201805490911690556004810185905560058101859055600681018590559092019290925580513381529182018490527f9217e92f1b3644099e21b80e65d8f8287f3e6bb0cbf70fd7db40abc2e308254291015b60405180910390a15050565b61042c60405180610100016040528060006001600160a01b0316815260200160006001600160a01b031681526020016000815260200160006001600160a01b03168152602001600081526020016000815260200160008152602001600081525090565b600082815260076020526040902080546001600160a01b03166104615760405162461bcd60e51b81526004016102ee90612bdf565b604080516101008101825282546001600160a01b0390811682526001840154811660208301526002840154928201929092526003830154909116606082015260048201546080820152600582015460a0820152600682015460c082015260079091015460e082015292915050565b600081815260086020526040902080546001600160a01b03166105045760405162461bcd60e51b81526004016102ee90612c45565b600a81015460ff166105285760405162461bcd60e51b81526004016102ee90612c73565b6001810154600090815260076020526040902080546001600160a01b031633146105645760405162461bcd60e51b81526004016102ee90612c16565b600a820154610100900460ff16156105bb57805460048301546005840154610599926001600160a01b03908116921690611e22565b600282015482546105b6916001600160a01b039081169116611f64565b6107a7565b600682015460058301546004840154600092620186a09290916105e6906001600160a01b0316611fcf565b6105f09190612cb5565b6105fa9190612cb5565b6106049190612cd4565b905060005b60078401548110156107a457600061064985600701838154811061062f5761062f612cf6565b6000918252602090912001546001600160a01b0316611fcf565b6106539084612cd4565b905084600801828154811061066a5761066a612cf6565b906000526020600020015481111561069f5784600801828154811061069157610691612cf6565b906000526020600020015490505b6000818660080184815481106106b7576106b7612cf6565b90600052602060002001546106cc9190612d0c565b9050811561074757816106ed87600701858154811061062f5761062f612cf6565b6106f79190612cb5565b6107019085612d0c565b8554600788018054929650610747926001600160a01b03909216918690811061072c5761072c612cf6565b6000918252602090912001546001600160a01b031684611e22565b801561078f57855460078701805461078f926001600160a01b031691908690811061077457610774612cf6565b6000918252602090912001546001600160a01b031683611e22565b5050808061079c90612d23565b915050610609565b50505b805460068201546107c1916001600160a01b031690611dfb565b81546107d6906001600160a01b03168461204d565b6107e482600101548461206f565b600a82015460018301546040805161010090930460ff1615158352602083019190915281018490527fe73d115bebeed704ea17fe3828b1ba9467a8b3e93f71fb62ade207db831569249060600160405180910390a1600083815260086020526040812080546001600160a01b0319908116825560018201839055600282018054821690556003820183905560048201805490911690556005810182905560068101829055906108966007830182612732565b6108a4600883016000612732565b50600060098201819055600a909101805461ffff191690556006918201548152600760208190526040822080546001600160a01b0319908116825560018201805482169055600282018490556003820180549091169055600481018390556005810183905592830182905591909101555050565b6001600160a01b0381166000908152600b6020526040902060609061093c90612087565b92915050565b6109c560405180610180016040528060006001600160a01b031681526020016000815260200160006001600160a01b031681526020016000815260200160006001600160a01b0316815260200160008152602001600081526020016060815260200160608152602001600081526020016000151581526020016000151581525090565b600082815260086020526040902080546001600160a01b03166109fa5760405162461bcd60e51b81526004016102ee90612c45565b604080516101808101825282546001600160a01b039081168252600184015460208084019190915260028501548216838501526003850154606084015260048501549091166080830152600584015460a0830152600684015460c08301526007840180548451818402810184019095528085529293859360e0860193919291830182828015610ab257602002820191906000526020600020905b81546001600160a01b03168152600190910190602001808311610a94575b5050505050815260200160088201805480602002602001604051908101604052809291908181526020018280548015610b0a57602002820191906000526020600020905b815481526020019060010190808311610af6575b505050918352505060098201546020820152600a9091015460ff808216151560408401526101009091041615156060909101529392505050565b60008115610c565750600081815260086020526040902080548291906001600160a01b0316610b855760405162461bcd60e51b81526004016102ee90612c45565b80546001600160a01b03163314610bae5760405162461bcd60e51b81526004016102ee90612d3e565b8054610bc3906001600160a01b03168361204d565b610bd181600101548361206f565b600082815260086020526040812080546001600160a01b031990811682556001820183905560028201805482169055600382018390556004820180549091169055600581018290556006810182905590610c2e6007830182612732565b610c3c600883016000612732565b5060006009820155600a01805461ffff1916905550610c71565b60018054906000610c6683612d23565b919050555060015490505b600088815260076020526040902080546001600160a01b0316610ca65760405162461bcd60e51b81526004016102ee90612bdf565b60018101546001600160a01b03898116911614610cfa5760405162461bcd60e51b8152602060048201526012602482015271139195081a5cc81b9bdd081b585d18da195960721b60448201526064016102ee565b600060035467ffffffffffffffff811115610d1757610d17612b04565b604051908082528060200260200182016040528015610d40578160200160208202803683370190505b509050600060035467ffffffffffffffff811115610d6057610d60612b04565b604051908082528060200260200182016040528015610d89578160200160208202803683370190505b5090506000604051806101800160405280336001600160a01b031681526020018d81526020018c6001600160a01b031681526020018b81526020018a6001600160a01b03168152602001898152602001888152602001848152602001838152602001868152602001600015158152602001600015158152509050806008600087815260200190815260200160002060008201518160000160006101000a8154816001600160a01b0302191690836001600160a01b031602179055506020820151816001015560408201518160020160006101000a8154816001600160a01b0302191690836001600160a01b031602179055506060820151816003015560808201518160040160006101000a8154816001600160a01b0302191690836001600160a01b0316021790555060a0820151816005015560c0820151816006015560e0820151816007019080519060200190610ee2929190612753565b506101008201518051610eff9160088401916020909101906127b8565b506101208201516009820155610140820151600a90910180546101609093015115156101000261ff00199215159290921661ffff1990931692909217179055610f488c86612133565b8051610f54908661214b565b8051604080516001600160a01b039283168152602081018f90528d831681830152606081018d9052918b16608083015260a082018a905260c0820189905260e08201879052517f4e94422b4eca88a08bfaa0166f2203e786e706a72396fafe66d56a51a040f558918190036101000190a150505050979650505050505050565b6000610fdf8761216d565b6001600160a01b0316336001600160a01b0316146110325760405162461bcd60e51b815260206004820152601060248201526f139bdd0813dddb995c881bd98813919560821b60448201526064016102ee565b81156111085750600081815260076020526040902080548291906001600160a01b03166110715760405162461bcd60e51b81526004016102ee90612bdf565b80546001600160a01b0316331461109a5760405162461bcd60e51b81526004016102ee90612c16565b80546110af906001600160a01b031683611dfb565b506000818152600760208190526040822080546001600160a01b03199081168255600182018054821690556002820184905560038201805490911690556004810183905560058101839055600681018390550155611122565b60008054908061111783612d23565b919050555060005490505b6040805161010081018252338082526001600160a01b038a8116602084015292820189905291871660608201526080810186905260a0810185905260c08101839052600060e08201529061117690836121f0565b600082815260076020818152604092839020845181546001600160a01b038083166001600160a01b0319928316178455938701516001840180549186169183169190911790558587015160028401556060870151600384018054919095169116179092556080850151600482015560a0850151600582015560c0850151600682015560e085015192019190915590517fb008aea72b86702d351c35472e3ba1df9305b3a305dfb02158328d67c9c8ca7e9161127b918b908b908b908b908b908a906001600160a01b03978816815295871660208701526040860194909452919094166060840152608083019390935260a082019290925260c081019190915260e00190565b60405180910390a1509695505050505050565b6001600160a01b03821660009081526009602052604090205460ff166112e85760405162461bcd60e51b815260206004820152600f60248201526e2737ba103b30b4b632103a37b5b2b760891b60448201526064016102ee565b600083815260086020526040902080546001600160a01b031661131d5760405162461bcd60e51b81526004016102ee90612c45565b80546001600160a01b031633146113465760405162461bcd60e51b81526004016102ee90612d3e565b600a81015460ff1661136a5760405162461bcd60e51b81526004016102ee90612c73565b600082116113b65760405162461bcd60e51b8152602060048201526019602482015278125394d551919250d251539517d25394155517d05353d55395603a1b60448201526064016102ee565b60005b600782015481101561141657836001600160a01b03168260070182815481106113e4576113e4612cf6565b6000918252602090912001546001600160a01b0316141561140457611416565b8061140e81612d23565b9150506113b9565b60078201548110801561144857508282600801828154811061143a5761143a612cf6565b906000526020600020015410155b6114945760405162461bcd60e51b815260206004820152601b60248201527f4e6f7420656e6f75676820616d6f756e74206465706f7369746564000000000060448201526064016102ee565b600a82015460ff16156114ac576114ac338585611e22565b828260080182815481106114c2576114c2612cf6565b9060005260206000200160008282546114db9190612d0c565b9091555050604080518681526001600160a01b0386166020820152908101849052600060608201527f2a88be962965895c4b957ab19d9efe6f6b3acc2a5de11dea4b8bb06e0dd718a1906080015b60405180910390a15050505050565b6000818152600c6020526040902060609061093c90612087565b600081815260086020526040902080546001600160a01b03166115875760405162461bcd60e51b81526004016102ee90612c45565b6001810154600090815260076020526040902080546001600160a01b031633146115c35760405162461bcd60e51b81526004016102ee90612c16565b600a82015460ff16156116185760405162461bcd60e51b815260206004820152601d60248201527f546865206f6666657220697320616c726561647920616363657074656400000060448201526064016102ee565b60078101541561166a5760405162461bcd60e51b815260206004820152601f60248201527f54686520726573657276616c20697320616c7265616479206d6174636865640060448201526064016102ee565b61167382612212565b6116b75760405162461bcd60e51b8152602060048201526015602482015274139bdd08195b9bdd59da0818dbdb1b185d195c985b605a1b60448201526064016102ee565b6116c0826122cf565b6117015760405162461bcd60e51b815260206004820152601260248201527109cdee840c2d8d8deeecac840cadcdeeaced60731b60448201526064016102ee565b60005b6007830154811015611787578254600784018054611775926001600160a01b031691908490811061173757611737612cf6565b6000918252602090912001546008860180546001600160a01b03909216918590811061176557611765612cf6565b90600052602060002001546123da565b8061177f81612d23565b915050611704565b50600282015461179f906001600160a01b031661246e565b60078101839055600a8201805460ff191660011790556040517f4fa8395a7e1538f35ebecd3098e8984254465fad50ba7199ccac2cf34e6fcd73906117e79085815260200190565b60405180910390a1505050565b600081815260086020526040902080546001600160a01b03166118295760405162461bcd60e51b81526004016102ee90612c45565b600a81015460ff1661184d5760405162461bcd60e51b81526004016102ee90612c73565b600a810154610100900460ff161561189d5760405162461bcd60e51b8152602060048201526013602482015272105b1c9958591e481c185e54995cd95c9d9959606a1b60448201526064016102ee565b600181015460009081526007602052604090208154600483015460058401546118d3926001600160a01b039081169216906123da565b60005b6007830154811015611959578254600784018054611947926001600160a01b031691908490811061190957611909612cf6565b6000918252602090912001546008860180546001600160a01b03909216918590811061193757611937612cf6565b9060005260206000200154611e22565b8061195181612d23565b9150506118d6565b50600a8201805461ff0019166101001790556040517faf4469f7787856d3557cfe70c4d8db147d70f22e6be9964f40b7df8df3d67ce1906117e79085815260200190565b80516119b0906002906020840190612753565b50805160035560005b600354811015611a1f576001600960008484815181106119db576119db612cf6565b6020908102919091018101516001600160a01b03168252810191909152604001600020805460ff191691151591909117905580611a1781612d23565b9150506119b9565b5050565b6001600160a01b0381166000908152600a6020526040902060609061093c90612087565b6001600160a01b03821660009081526009602052604090205460ff16611aa15760405162461bcd60e51b815260206004820152600f60248201526e2737ba103b30b4b632103a37b5b2b760891b60448201526064016102ee565b600083815260086020526040902080546001600160a01b0316611ad65760405162461bcd60e51b81526004016102ee90612c45565b80546001600160a01b03163314611aff5760405162461bcd60e51b81526004016102ee90612d3e565b600a81015460ff16611b235760405162461bcd60e51b81526004016102ee90612c73565b60008211611b6f5760405162461bcd60e51b8152602060048201526019602482015278125394d551919250d251539517d25394155517d05353d55395603a1b60448201526064016102ee565b60005b6007820154811015611bcf57836001600160a01b0316826007018281548110611b9d57611b9d612cf6565b6000918252602090912001546001600160a01b03161415611bbd57611bcf565b80611bc781612d23565b915050611b72565b6007820154811415611c2157600782018054600180820183556000928352602080842090920180546001600160a01b0319166001600160a01b0389161790556008850180549182018155835290822001555b600a82015460ff1615611c44578154611c44906001600160a01b031685856123da565b82826008018281548110611c5a57611c5a612cf6565b906000526020600020016000828254611c739190612d6a565b9091555050604080518681526001600160a01b0386166020820152908101849052600160608201527f2a88be962965895c4b957ab19d9efe6f6b3acc2a5de11dea4b8bb06e0dd718a190608001611529565b600081815260086020526040902080546001600160a01b0316611cfa5760405162461bcd60e51b81526004016102ee90612c45565b80546001600160a01b03163314611d235760405162461bcd60e51b81526004016102ee90612d3e565b8054611d38906001600160a01b03168361204d565b611d4681600101548361206f565b600082815260086020526040812080546001600160a01b031990811682556001820183905560028201805482169055600382018390556004820180549091169055600581018290556006810182905590611da36007830182612732565b611db1600883016000612732565b5060006009820155600a01805461ffff1916905560408051338152602081018490527f24db3de7842f0b57478cb97bd44f7eb02df8b05c1ff03366bd7645220b7a578891016103bd565b6001600160a01b0382166000908152600a60205260409020611e1d90826124c9565b505050565b604080518082018252601981527f7472616e7366657228616464726573732c75696e74323536290000000000000060209182015281516001600160a01b0386811660248301526044808301869052845180840390910181526064909201845291810180516001600160e01b031663a9059cbb60e01b17905291516000928392861691611eae9190612d82565b6000604051808303816000865af19150503d8060008114611eeb576040519150601f19603f3d011682016040523d82523d6000602084013e611ef0565b606091505b5091509150818015611f1a575080511580611f1a575080806020019051810190611f1a9190612dbd565b611f5d5760405162461bcd60e51b81526020600482015260146024820152731053534e881514905394d1915497d1905253115160621b60448201526064016102ee565b5050505050565b6004805460405163e1268d6f60e01b81526001600160a01b0385811693820193909352838316602482015291169063e1268d6f9060440160006040518083038186803b158015611fb357600080fd5b505afa158015611fc7573d6000803e3d6000fd5b505050505050565b6005546040516315d5220f60e31b81526001600160a01b038381166004830152600092169063aea910789060240160206040518083038186803b15801561201557600080fd5b505afa158015612029573d6000803e3d6000fd5b505050506040513d601f19601f8201168201806040525081019061093c9190612ddf565b6001600160a01b0382166000908152600b60205260409020611e1d90826124c9565b6000828152600c60205260409020611e1d90826124c9565b60606000826000015467ffffffffffffffff8111156120a8576120a8612b04565b6040519080825280602002602001820160405280156120d1578160200160208202803683370190505b5090506000805b60016120e48683612563565b92509050801561211e578184848151811061210157612101612cf6565b60209081029190910101528261211681612d23565b935050612124565b5061212a565b506120d8565b50909392505050565b6000828152600c60205260409020611e1d908261257d565b6001600160a01b0382166000908152600b60205260409020611e1d908261257d565b6004805460405163666e1b3960e01b81526001600160a01b03848116938201939093526000929091169063666e1b399060240160206040518083038186803b1580156121b857600080fd5b505afa1580156121cc573d6000803e3d6000fd5b505050506040513d601f19601f8201168201806040525081019061093c9190612df8565b6001600160a01b0382166000908152600a60205260409020611e1d908261257d565b600080805b60078401548110156122795783600801818154811061223857612238612cf6565b906000526020600020015461225b85600701838154811061062f5761062f612cf6565b6122659190612cb5565b91508061227181612d23565b915050612217565b50600683015460058401546004850154600092620186a09290916122a5906001600160a01b0316611fcf565b6122af9190612cb5565b6122b99190612cb5565b6122c39190612cd4565b91909111159392505050565b600080805b60078401548110156123d05760008460070182815481106122f7576122f7612cf6565b6000918252602090912001548554600654604051636eb1769f60e11b81526001600160a01b039283166004820152908216602482015291169063dd62ed3e9060440160206040518083038186803b15801561235157600080fd5b505afa158015612365573d6000803e3d6000fd5b505050506040513d601f19601f820116820180604052508101906123899190612ddf565b90508460080182815481106123a0576123a0612cf6565b90600052602060002001548110156123bd57506000949350505050565b50806123c881612d23565b9150506122d4565b5060019392505050565b6006546040516323b872dd60e01b81526001600160a01b038581166004830152918216602482015260448101839052908316906323b872dd90606401602060405180830381600087803b15801561243057600080fd5b505af1158015612444573d6000803e3d6000fd5b505050506040513d601f19601f820116820180604052508101906124689190612dbd565b50505050565b6004805460405163206d827760e11b81526001600160a01b03848116938201939093529116906340db04ee9060240160006040518083038186803b1580156124b557600080fd5b505afa158015611f5d573d6000803e3d6000fd5b60008115806124df57506124dd8383612592565b155b156124ec5750600061093c565b60008281526001848101602090815260408084208480529091528083205482845292205461251e928692909190612616565b60008281526001848101602090815260408084208480529091528083208390558183528220829055845490918591612557908490612d0c565b90915550919392505050565b6000806125728484600161264b565b915091509250929050565b600061258b83836000612692565b9392505050565b600081815260018301602090815260408083208380529091528120541580156125d557506000828152600180850160209081526040808420928452919052902054155b1561260e5760008080526001808501602090815260408084209284529190529020548214156126065750600161093c565b50600061093c565b50600161093c565b600082815260019094016020818152604080872093158088529382528087208690559486529081528385209115855252912055565b6000806126588585612592565b6126675750600090508061268a565b505060008281526001848101602090815260408084208515158552909152909120545b935093915050565b60006126a184600085856126a9565b949350505050565b60006126b58584612592565b1580156126c757506126c78585612592565b15612727576000848152600186016020908152604080832085151584529091529020546126f686868686612616565b61270286858386612616565b60018660000160008282546127179190612d6a565b90915550600192506126a1915050565b506000949350505050565b508054600082559060005260206000209081019061275091906127f3565b50565b8280548282559060005260206000209081019282156127a8579160200282015b828111156127a857825182546001600160a01b0319166001600160a01b03909116178255602090920191600190910190612773565b506127b49291506127f3565b5090565b8280548282559060005260206000209081019282156127a8579160200282015b828111156127a85782518255916020019190600101906127d8565b5b808211156127b457600081556001016127f4565b60006020828403121561281a57600080fd5b5035919050565b6001600160a01b038116811461275057600080fd5b803561284181612821565b919050565b60006020828403121561285857600080fd5b813561258b81612821565b6020808252825182820181905260009190848201906040850190845b8181101561289b5783518352928401929184019160010161287f565b50909695505050505050565b600081518084526020808501945080840160005b838110156128e05781516001600160a01b0316875295820195908201906001016128bb565b509495945050505050565b600081518084526020808501945080840160005b838110156128e0578151875295820195908201906001016128ff565b602081526129356020820183516001600160a01b03169052565b602082015160408201526000604083015161295b60608401826001600160a01b03169052565b5060608301516080830152608083015161298060a08401826001600160a01b03169052565b5060a083015160c083015260c083015160e083015260e083015161018061010081818601526129b36101a08601846128a7565b9250808601519050610120601f1986850301818701526129d384836128eb565b908701516101408781019190915287015190935090506101606129f98187018315159052565b90950151151593019290925250919050565b600080600080600080600060e0888a031215612a2657600080fd5b873596506020880135612a3881612821565b9550604088013594506060880135612a4f81612821565b9699959850939660808101359560a0820135955060c0909101359350915050565b60008060008060008060c08789031215612a8957600080fd5b8635612a9481612821565b9550602087013594506040870135612aab81612821565b959894975094956060810135955060808101359460a0909101359350915050565b600080600060608486031215612ae157600080fd5b833592506020840135612af381612821565b929592945050506040919091013590565b634e487b7160e01b600052604160045260246000fd5b60006020808385031215612b2d57600080fd5b823567ffffffffffffffff80821115612b4557600080fd5b818501915085601f830112612b5957600080fd5b813581811115612b6b57612b6b612b04565b8060051b604051601f19603f83011681018181108582111715612b9057612b90612b04565b604052918252848201925083810185019188831115612bae57600080fd5b938501935b82851015612bd357612bc485612836565b84529385019392850192612bb3565b98975050505050505050565b60208082526017908201527f4e6f207375636820726573657276616c20657869737473000000000000000000604082015260600190565b602080825260159082015274139bdd081bdddb995c881bd9881c995cd95c9d985b605a1b604082015260600190565b6020808252601490820152734e6f2073756368206f666665722065786973747360601b604082015260600190565b6020808252601290820152712737ba1030b1b1b2b83a32b21037b33332b960711b604082015260600190565b634e487b7160e01b600052601160045260246000fd5b6000816000190483118215151615612ccf57612ccf612c9f565b500290565b600082612cf157634e487b7160e01b600052601260045260246000fd5b500490565b634e487b7160e01b600052603260045260246000fd5b600082821015612d1e57612d1e612c9f565b500390565b6000600019821415612d3757612d37612c9f565b5060010190565b6020808252601290820152712737ba10313abcb2b91037b31037b33332b960711b604082015260600190565b60008219821115612d7d57612d7d612c9f565b500190565b6000825160005b81811015612da35760208186018101518583015201612d89565b81811115612db2576000828501525b509190910192915050565b600060208284031215612dcf57600080fd5b8151801515811461258b57600080fd5b600060208284031215612df157600080fd5b5051919050565b600060208284031215612e0a57600080fd5b815161258b8161282156fea26469706673582212204226b8e2119f001c36221b0a4abd2d755ef3e223ae3eabff51899df6cefbd28464736f6c63430008090033",
  "immutableReferences": {},
  "source": "// SPDX-License-Identifier: MIT\r\npragma solidity >=0.8.0 <0.9.0;\r\n\r\nimport {IERC721} from \"@openzeppelin/contracts/token/ERC721/IERC721.sol\";\r\nimport {IERC20} from \"@openzeppelin/contracts/token/ERC20/IERC20.sol\";\r\nimport {IERC721Metadata} from \"@openzeppelin/contracts/token/ERC721/extensions/IERC721Metadata.sol\";\r\nimport {IERC20Metadata} from \"@openzeppelin/contracts/token/ERC20/extensions/IERC20Metadata.sol\";\r\nimport \"@openzeppelin/contracts/token/ERC20/ERC20.sol\";\r\nimport \"solidity-linked-list/contracts/StructuredLinkedList.sol\";\r\nimport {IPriceOracle} from \"./interface/IPriceOracle.sol\";\r\nimport {INFTVault} from \"./interface/INFTVault.sol\";\r\n\r\n\r\ncontract NFTReservalManager {\r\n  using StructuredLinkedList for StructuredLinkedList.List;\r\n  uint256 private constant PCT_DIVIDER = 100000;\r\n  bytes4 private constant SELECTOR = bytes4(keccak256(bytes('transfer(address,uint256)')));\r\n\r\n  event EReservalUpdated(\r\n    address owner,\r\n    address nft,\r\n    uint256 expiry,\r\n    address token,\r\n    uint256 price,\r\n    uint256 pct,\r\n    uint256 reservalID\r\n  );\r\n\r\n  event EReservalCanceled(\r\n    address owner,\r\n    uint256 reservalID\r\n  );\r\n\r\n  event EOfferUpdated(\r\n    address buyer,\r\n    uint256 reservalID,\r\n    address nft,\r\n    uint256 expiry,\r\n    address token,\r\n    uint256 price,\r\n    uint256 pct,\r\n    uint256 offerID\r\n  );\r\n\r\n  event EOfferCanceled(\r\n    address buyer,\r\n    uint256 offerID\r\n  );\r\n\r\n  event EOfferAccepted(\r\n    uint256 offerID\r\n  );\r\n\r\n  event EAssigned(\r\n    bool assigned,\r\n    uint256 reservalID,\r\n    uint256 offerID\r\n  );\r\n  \r\n  event ECollateralDeposit(\r\n    uint256 offerID,\r\n    address token,\r\n    uint256 amount,\r\n    bool isDeposit\r\n  );\r\n\r\n  event EReservePayed(\r\n    uint256 offerID\r\n  );\r\n  \r\n  struct NFTReserval {\r\n    address owner;\r\n    address nft;\r\n    uint256 expiry;\r\n    address token;\r\n    uint256 price;\r\n    uint256 pct;\r\n    uint256 reservalID;\r\n    uint256 acceptedOfferID;\r\n  }\r\n\r\n  struct Offer {\r\n    address buyer;\r\n    uint256 reservalID;\r\n    address nft;\r\n    uint256 expiry;\r\n    address token;\r\n    uint256 price;\r\n    uint256 pct;\r\n    address[] colTokens;\r\n    uint256[] colAmounts;\r\n    uint256 offerID;\r\n    bool accepted;\r\n    bool reservePayed;\r\n  }\r\n\r\n  uint256 cntReserval;\r\n  uint256 cntOffer;\r\n  address[] tokens;\r\n  uint256 TOKEN_CNT;\r\n  address nftVault;\r\n  address priceOracle;\r\n  address admin;\r\n\r\n  mapping(uint256 => NFTReserval) reservals;\r\n  mapping(uint256 => Offer) offers;\r\n\r\n  mapping(address => bool) validToken;\r\n\r\n  mapping(address => StructuredLinkedList.List) listReserval;\r\n  mapping(address => StructuredLinkedList.List) listOffer;\r\n  mapping(uint256 => StructuredLinkedList.List) listOfferReq;\r\n\r\n  constructor(\r\n    address _nftVault,\r\n    address _priceOracle\r\n  ) public {\r\n    tokens = new address[](0);\r\n    nftVault = _nftVault;\r\n    priceOracle = _priceOracle;\r\n    admin = address(this);\r\n    cntReserval = 0;\r\n    cntOffer = 0;\r\n  }\r\n\r\n  function registerValidToken(\r\n    address[] memory _tokens\r\n  ) external {\r\n    tokens = _tokens;\r\n    TOKEN_CNT = _tokens.length;\r\n    for (uint i = 0; i < TOKEN_CNT; i++) {\r\n        validToken[_tokens[i]] = true;\r\n    }\r\n  }\r\n  \r\n  function updateReserval(\r\n    address nft,\r\n    uint256 expiry,\r\n    address token,\r\n    uint256 price,\r\n    uint256 pct,\r\n    uint256 id\r\n  ) external returns (uint256 reservalID) {\r\n    require(msg.sender == _nftOwner(nft), \"Not Owner of NFT\");\r\n    if (id != 0) {\r\n      reservalID = id;\r\n      NFTReserval storage reserval = _getReserval(reservalID);\r\n      require(reserval.owner != address(0), \"No such reserval exists\");\r\n      require(reserval.owner == msg.sender, \"Not owner of reserval\");\r\n\r\n      _reserval_remove(reserval.owner, reservalID);\r\n      delete reservals[reservalID];\r\n    }\r\n    else {\r\n      cntReserval++;\r\n      reservalID = cntReserval;\r\n    }\r\n    NFTReserval memory _reserval = NFTReserval(msg.sender, nft, expiry, token, price, pct, reservalID, 0);\r\n    _reserval_add(_reserval.owner, reservalID);\r\n    reservals[reservalID] = _reserval;\r\n    \r\n    emit EReservalUpdated(_reserval.owner, nft, expiry, token, price, pct, reservalID);\r\n  }\r\n  \r\n  function cancelReserval(\r\n    uint256 reservalID\r\n  ) external {\r\n    NFTReserval storage reserval = _getReserval(reservalID);\r\n    require(reserval.owner != address(0), \"No such reserval exists\");\r\n    require(reserval.owner == msg.sender, \"Not owner of reserval\");\r\n\r\n    _reserval_remove(reserval.owner, reservalID);\r\n    delete reservals[reservalID];\r\n    \r\n    emit EReservalCanceled(msg.sender, reservalID);\r\n  }\r\n  \r\n  function updateOffer(\r\n    uint256 reservalID,\r\n    address nft,\r\n    uint256 expiry,\r\n    address token,\r\n    uint256 price,\r\n    uint256 pct,\r\n    uint256 id\r\n  ) external returns (uint256 offerID) {\r\n    if (id != 0) {\r\n      offerID = id;\r\n      Offer storage offer = _getOffer(offerID);\r\n      require(offer.buyer != address(0), \"No such offer exists\");\r\n      require(offer.buyer == msg.sender, \"Not buyer of offer\");\r\n\r\n      _offer_remove(offer.buyer, offerID);\r\n      _offerReq_remove(offer.reservalID, offerID);\r\n      delete offers[offerID];\r\n    }\r\n    else {\r\n      cntOffer++;\r\n      offerID = cntOffer;\r\n    }\r\n\r\n    NFTReserval storage reserval = _getReserval(reservalID);\r\n    require(reserval.owner != address(0), \"No such reserval exists\");\r\n    require(reserval.nft == nft, \"NFT is not matched\");\r\n\r\n    address[] memory colTokens = new address[](TOKEN_CNT);\r\n    uint256[] memory colAmounts = new uint256[](TOKEN_CNT);\r\n\r\n    Offer memory _offer = Offer(\r\n      msg.sender,\r\n      reservalID,\r\n      nft,\r\n      expiry,\r\n      token,\r\n      price,\r\n      pct,\r\n      colTokens,\r\n      colAmounts,\r\n      offerID,\r\n      false,\r\n      false\r\n      );\r\n\r\n    offers[offerID] = _offer;\r\n    _offerReq_add(reservalID, offerID);\r\n    _offer_add(_offer.buyer, offerID);\r\n\r\n    emit EOfferUpdated(\r\n      _offer.buyer,\r\n      reservalID,\r\n      nft,\r\n      expiry,\r\n      token,\r\n      price,\r\n      pct,\r\n      offerID\r\n      );\r\n  }\r\n\r\n  function cancelOffer(\r\n    uint256 offerID\r\n  ) external {\r\n    Offer storage offer = _getOffer(offerID);\r\n    require(offer.buyer != address(0), \"No such offer exists\");\r\n    require(offer.buyer == msg.sender, \"Not buyer of offer\");\r\n\r\n    _offer_remove(offer.buyer, offerID);\r\n    _offerReq_remove(offer.reservalID, offerID);\r\n    delete offers[offerID];\r\n\r\n    emit EOfferCanceled(msg.sender, offerID);\r\n  }\r\n\r\n  function acceptOffer(\r\n    uint256 offerID\r\n  ) external {\r\n    Offer storage offer = _getOffer(offerID);\r\n    require(offer.buyer != address(0), \"No such offer exists\");\r\n    \r\n    NFTReserval storage reserval = _getReserval(offer.reservalID);\r\n    require(msg.sender == reserval.owner, \"Not owner of reserval\");\r\n    \r\n    require(!offer.accepted, \"The offer is already accepted\");\r\n    require(reserval.acceptedOfferID == 0, \"The reserval is already matched\");\r\n\r\n    require(_checkCollateral(offer), \"Not enough collateral\");\r\n    require(_checkAllowance(offer), \"Not allowed enough\");\r\n    for (uint i = 0; i < offer.colTokens.length; i++) {\r\n      _putIn(offer.buyer, offer.colTokens[i], offer.colAmounts[i]);\r\n    }\r\n    _lockNFT(offer.nft);\r\n\r\n    reserval.acceptedOfferID = offerID;\r\n    offer.accepted = true;\r\n\r\n    emit EOfferAccepted(offerID);\r\n  }\r\n\r\n  function assignOffer(\r\n    uint256 offerID\r\n  ) external {\r\n    Offer storage offer = _getOffer(offerID);\r\n    require(offer.buyer != address(0), \"No such offer exists\");\r\n    require(offer.accepted, \"Not accepted offer\");\r\n    \r\n    NFTReserval storage reserval = _getReserval(offer.reservalID);\r\n    require(msg.sender == reserval.owner, \"Not owner of reserval\");\r\n\r\n    if (offer.reservePayed) {\r\n      _putOut(reserval.owner, offer.token, offer.price);\r\n      _transferNFT(offer.nft, offer.buyer);\r\n    }\r\n    else {\r\n      uint256 unpayed = _tokenToUSD(offer.token) * offer.price * offer.pct / PCT_DIVIDER;\r\n      for (uint i = 0; i < offer.colTokens.length; i++) {\r\n        uint256 amountToOwner = unpayed / _tokenToUSD(offer.colTokens[i]);\r\n        if (amountToOwner > offer.colAmounts[i]) amountToOwner = offer.colAmounts[i];\r\n        uint256 amountToBuyer = offer.colAmounts[i] - amountToOwner;\r\n        if (amountToOwner > 0) {\r\n          unpayed = unpayed - _tokenToUSD(offer.colTokens[i]) * amountToOwner;\r\n          _putOut(reserval.owner, offer.colTokens[i], amountToOwner);\r\n        }\r\n        if (amountToBuyer > 0) {\r\n          _putOut(offer.buyer, offer.colTokens[i], amountToBuyer);\r\n        }\r\n      }\r\n    }\r\n\r\n    _reserval_remove(reserval.owner, reserval.reservalID);\r\n    _offer_remove(offer.buyer, offerID);\r\n    _offerReq_remove(offer.reservalID, offerID);\r\n    emit EAssigned(offer.reservePayed, offer.reservalID, offerID);\r\n\r\n    delete offers[offerID];\r\n    delete reservals[reserval.reservalID];\r\n  }\r\n\r\n  function payReserve(\r\n    uint256 offerID\r\n  ) external {\r\n    Offer storage offer = _getOffer(offerID);\r\n    require(offer.buyer != address(0), \"No such offer exists\");\r\n    require(offer.accepted, \"Not accepted offer\");\r\n    require(!offer.reservePayed, \"Already payReserved\");\r\n    \r\n    NFTReserval storage reserval = _getReserval(offer.reservalID);\r\n\r\n    _putIn(offer.buyer, offer.token, offer.price);\r\n    for (uint i = 0; i < offer.colTokens.length; i++) {\r\n      _putOut(offer.buyer, offer.colTokens[i], offer.colAmounts[i]);\r\n    }\r\n\r\n    offer.reservePayed = true;\r\n\r\n    emit EReservePayed(offerID);\r\n  }\r\n\r\n  function depositCollateral(\r\n    uint256 offerID,\r\n    address token,\r\n    uint256 amount\r\n  ) external {\r\n    require(validToken[token], \"Not vaild token\");\r\n    Offer storage offer = _getOffer(offerID);\r\n    require(offer.buyer != address(0), \"No such offer exists\");\r\n    require(msg.sender == offer.buyer, \"Not buyer of offer\");\r\n    require(offer.accepted, \"Not accepted offer\");\r\n\r\n    require(amount > 0, \"INSUFFICIENT_INPUT_AMOUNT\");\r\n\r\n    uint id = 0;\r\n    for (id = 0; id < offer.colTokens.length; id++) {\r\n      if (offer.colTokens[id] == token) break;\r\n    }\r\n    if (offer.colTokens.length == id) {\r\n      offer.colTokens.push(token);\r\n      offer.colAmounts.push(0);\r\n    }\r\n    if (offer.accepted) {\r\n      _putIn(offer.buyer, token, amount);\r\n    }\r\n    offer.colAmounts[id] += amount;\r\n\r\n    emit ECollateralDeposit(offerID, token, amount, true);\r\n  }\r\n\r\n  function withdrawCollateral(\r\n    uint256 offerID,\r\n    address token,\r\n    uint256 amount\r\n  ) external {\r\n    require(validToken[token], \"Not vaild token\");\r\n    Offer storage offer = _getOffer(offerID);\r\n    require(offer.buyer != address(0), \"No such offer exists\");\r\n    require(msg.sender == offer.buyer, \"Not buyer of offer\");\r\n    require(offer.accepted, \"Not accepted offer\");\r\n\r\n    require(amount > 0, \"INSUFFICIENT_INPUT_AMOUNT\");\r\n    \r\n    uint id = 0;\r\n    for (id = 0; id < offer.colTokens.length; id++) {\r\n      if (offer.colTokens[id] == token) break;\r\n    }\r\n    require((offer.colTokens.length > id) && (offer.colAmounts[id] >= amount), \"Not enough amount deposited\");\r\n\r\n    if (offer.accepted) {\r\n      _putOut(msg.sender, token, amount);\r\n    }\r\n    offer.colAmounts[id] -= amount;\r\n\r\n    emit ECollateralDeposit(offerID, token, amount, false);\r\n  }\r\n\r\n  function getNFTReservals(address owner) external returns (uint256[] memory) {\r\n    return _getFullList(listReserval[owner]);\r\n  }\r\n\r\n  function getOffers(address buyer) external returns (uint256[] memory) {\r\n    return _getFullList(listOffer[buyer]);\r\n  }\r\n\r\n  function getOfferReqs(uint256 reservalID) external returns (uint256[] memory) {\r\n    return _getFullList(listOfferReq[reservalID]);\r\n  }\r\n\r\n  function getReserval(uint256 reservalID) external returns (NFTReserval memory reserval) {\r\n    NFTReserval storage _reserval = _getReserval(reservalID);\r\n    require(_reserval.owner != address(0), \"No such reserval exists\");\r\n    reserval = _reserval;\r\n  }\r\n\r\n  function getOffer(uint256 offerID) external returns (Offer memory offer) {\r\n    Offer storage _offer = _getOffer(offerID);\r\n    require(_offer.buyer != address(0), \"No such offer exists\");\r\n    offer = _offer;\r\n  }\r\n\r\n  //-------------------------------------------------------------------------------//\r\n  //----------------------------- private functions -------------------------------//\r\n  //-------------------------------------------------------------------------------//\r\n  function _getReserval(uint256 reservalID) private returns (NFTReserval storage) {\r\n    return reservals[reservalID];\r\n  }\r\n\r\n  function _getOffer(uint256 offerID) private returns (Offer storage) {\r\n    return offers[offerID];\r\n  }\r\n\r\n  function _checkCollateral(Offer storage offer) private returns (bool) {\r\n    uint256 totalUSD = 0;\r\n    for (uint i = 0; i < offer.colTokens.length; i++) {\r\n      totalUSD = _tokenToUSD(offer.colTokens[i]) * offer.colAmounts[i];\r\n    }\r\n    uint256 requiredUSD = _tokenToUSD(offer.token) * offer.price * offer.pct / PCT_DIVIDER;\r\n    return requiredUSD <= totalUSD;\r\n  }\r\n\r\n  function _checkAllowance(Offer storage offer) private returns (bool) {\r\n    uint256 totalUSD = 0;\r\n    for (uint i = 0; i < offer.colTokens.length; i++) {\r\n      uint256 allownce = IERC20(offer.colTokens[i]).allowance(offer.buyer, admin);\r\n      if (allownce < offer.colAmounts[i]) return false;\r\n    }\r\n    return true;\r\n  }\r\n\r\n  function _putIn(address account, address token, uint256 amount) private {\r\n    IERC20(token).transferFrom(account, admin, amount);\r\n  }\r\n\r\n  function _putOut(address account, address token, uint256 amount) private {\r\n    (bool success, bytes memory data) = token.call(\r\n        abi.encodeWithSelector(SELECTOR, account, amount)\r\n    );\r\n    require(\r\n        success && (data.length == 0 || abi.decode(data, (bool))),\r\n        \"AMM: TRANSFER_FAILED\"\r\n    );\r\n  }\r\n  //-------------------------------------------------------------------------------//\r\n\r\n\r\n  //-------------------------------------------------------------------------------//\r\n  //---------------------------- Interface functions ------------------------------//\r\n  //-------------------------------------------------------------------------------//\r\n  function _nftOwner(address nft) private returns (address) {\r\n    return INFTVault(nftVault).owner(nft);\r\n  }\r\n\r\n  function _lockNFT(address nft) private {\r\n    INFTVault(nftVault).lockNFT(nft);\r\n  }\r\n\r\n  function _unlockNFT(address nft) private {\r\n    INFTVault(nftVault).unlockNFT(nft);\r\n  }\r\n\r\n  function _transferNFT(address nft, address to) private {\r\n    INFTVault(nftVault).transferNFT(nft, to);\r\n  }\r\n\r\n  function _tokenToUSD(address token) private returns (uint256) {\r\n    return IPriceOracle(priceOracle).price(token);\r\n  }\r\n  //-------------------------------------------------------------------------------//\r\n\r\n\r\n  //-------------------------------------------------------------------------------//\r\n  //--------------------------- Linked List functions -----------------------------//\r\n  //-------------------------------------------------------------------------------//\r\n  function _reserval_add(address owner, uint256 reservalID) private {\r\n    StructuredLinkedList.pushBack(listReserval[owner], reservalID);\r\n  }\r\n\r\n  function _reserval_remove(address owner, uint256 reservalID) private {\r\n    StructuredLinkedList.remove(listReserval[owner], reservalID);\r\n  }\r\n\r\n  function _offer_add(address buyer, uint256 offerID) private {\r\n    StructuredLinkedList.pushBack(listOffer[buyer], offerID);\r\n  }\r\n\r\n  function _offer_remove(address buyer, uint256 offerID) private {\r\n    StructuredLinkedList.remove(listOffer[buyer], offerID);\r\n  }\r\n\r\n  function _offerReq_add(uint256 reservalID, uint256 offerID) private {\r\n    StructuredLinkedList.pushBack(listOfferReq[reservalID], offerID);\r\n  }\r\n\r\n  function _offerReq_remove(uint256 reservalID, uint256 offerID) private {\r\n    StructuredLinkedList.remove(listOfferReq[reservalID], offerID);\r\n  }\r\n\r\n  function _getFullList(StructuredLinkedList.List storage list) private returns (uint256[] memory) {\r\n    uint256[] memory ids = new uint256[](list.size);\r\n    uint cnt = 0;\r\n    for (uint256 cur = 0; ; ) {\r\n      bool exists = true;\r\n      (exists, cur) = StructuredLinkedList.getNextNode(list, cur);\r\n      if (exists) {\r\n        ids[cnt] = cur;\r\n        cnt++;\r\n      }\r\n      else {\r\n        break;\r\n      }\r\n    }\r\n    return ids;\r\n  }\r\n  //-------------------------------------------------------------------------------//\r\n}\r\n",
  "sourcePath": "E:\\Projects\\Privi2\\PriviNFTOptions\\privi-NFT-buying\\contracts\\NFTReservalManager.sol",
  "compiler": {
    "name": "solc",
    "version": "0.8.9+commit.e5eed63a.Emscripten.clang"
  },
  "schemaVersion": "3.4.3",
  "updatedAt": "2021-11-12T14:00:20.439Z",
  "networkType": "ethereum",
  "devdoc": {
    "kind": "dev",
    "methods": {},
    "version": 1
  },
  "userdoc": {
    "kind": "user",
    "methods": {},
    "version": 1
  }
}