{
  "contractName": "OpenSalesManagerMock",
  "abi": [
    {
      "inputs": [
        {
          "internalType": "address",
          "name": "collection_",
          "type": "address"
        },
        {
          "internalType": "uint256",
          "name": "tokenId_",
          "type": "uint256"
        },
        {
          "internalType": "address",
          "name": "paymentToken_",
          "type": "address"
        },
        {
          "internalType": "uint256",
          "name": "price_",
          "type": "uint256"
        },
        {
          "internalType": "address",
          "name": "beneficiary_",
          "type": "address"
        },
        {
          "internalType": "address",
          "name": "buyerToMatch_",
          "type": "address"
        }
      ],
      "name": "approveSale",
      "outputs": [],
      "stateMutability": "nonpayable",
      "type": "function"
    }
  ],
  "bytecode": "0x608060405234801561001057600080fd5b506101b0806100206000396000f3fe608060405234801561001057600080fd5b506004361061002b5760003560e01c8063740bd95714610030575b600080fd5b61004a6004803603810190610045919061007e565b61004c565b005b505050505050565b6000813590506100638161014c565b92915050565b60008135905061007881610163565b92915050565b60008060008060008060c0878903121561009b5761009a610147565b5b60006100a989828a01610054565b96505060206100ba89828a01610069565b95505060406100cb89828a01610054565b94505060606100dc89828a01610069565b93505060806100ed89828a01610054565b92505060a06100fe89828a01610054565b9150509295509295509295565b60006101168261011d565b9050919050565b600073ffffffffffffffffffffffffffffffffffffffff82169050919050565b6000819050919050565b600080fd5b6101558161010b565b811461016057600080fd5b50565b61016c8161013d565b811461017757600080fd5b5056fea264697066735822122036e65e8e9455ea532c03d189c3ecaadc62f72e151fd5c273fadcd8ad1dc6c25264736f6c63430008060033",
  "immutableReferences": {},
  "source": "// SPDX-License-Identifier: MIT\npragma solidity ^0.8.4;\n\ncontract OpenSalesManagerMock {\n    function approveSale(\n        address collection_,\n        uint256 tokenId_,\n        address paymentToken_,\n        uint256 price_,\n        address beneficiary_,\n        address buyerToMatch_\n    ) external {} // solhint-disable-line\n}\n",
  "sourcePath": "/Users/angelsatorresalmenara/Desktop/privi-pods-smart-contract/contracts/mocks/OpenSalesManagerMock.sol",
  "compiler": {
    "name": "solc",
    "version": "0.8.6+commit.11564f7e.Emscripten.clang"
  },
  "schemaVersion": "3.4.3",
  "updatedAt": "2021-11-16T21:41:36.225Z",
  "networkType": "ethereum",
  "devdoc": {
    "kind": "dev",
    "methods": {},
    "version": 1
  },
  "userdoc": {
    "kind": "user",
    "methods": {},
    "version": 1
  }
}