{
  "address": "0xF1BF9c790Fd5a7BFf5CB01B8Ba118ADAAfDF98F1",
  "abi": [
    {
      "inputs": [
        {
          "internalType": "address[2]",
          "name": "addresses",
          "type": "address[2]"
        }
      ],
      "stateMutability": "nonpayable",
      "type": "constructor"
    },
    {
      "anonymous": false,
      "inputs": [
        {
          "indexed": true,
          "internalType": "address",
          "name": "account",
          "type": "address"
        },
        {
          "indexed": false,
          "internalType": "uint256",
          "name": "lShares",
          "type": "uint256"
        },
        {
          "indexed": false,
          "internalType": "uint256",
          "name": "bAmount",
          "type": "uint256"
        }
      ],
      "name": "AddLiquidity",
      "type": "event"
    },
    {
      "anonymous": false,
      "inputs": [
        {
          "indexed": true,
          "internalType": "address",
          "name": "account",
          "type": "address"
        },
        {
          "indexed": false,
          "internalType": "uint256",
          "name": "bAmount",
          "type": "uint256"
        }
      ],
      "name": "AddMargin",
      "type": "event"
    },
    {
      "anonymous": false,
      "inputs": [
        {
          "indexed": true,
          "internalType": "address",
          "name": "account",
          "type": "address"
        },
        {
          "indexed": true,
          "internalType": "address",
          "name": "liquidator",
          "type": "address"
        },
        {
          "indexed": false,
          "internalType": "uint256",
          "name": "reward",
          "type": "uint256"
        }
      ],
      "name": "Liquidate",
      "type": "event"
    },
    {
      "anonymous": false,
      "inputs": [
        {
          "indexed": true,
          "internalType": "address",
          "name": "collector",
          "type": "address"
        },
        {
          "indexed": false,
          "internalType": "uint256",
          "name": "amount",
          "type": "uint256"
        }
      ],
      "name": "ProtocolFeeCollection",
      "type": "event"
    },
    {
      "anonymous": false,
      "inputs": [
        {
          "indexed": true,
          "internalType": "address",
          "name": "account",
          "type": "address"
        },
        {
          "indexed": false,
          "internalType": "uint256",
          "name": "lShares",
          "type": "uint256"
        },
        {
          "indexed": false,
          "internalType": "uint256",
          "name": "bAmount",
          "type": "uint256"
        }
      ],
      "name": "RemoveLiquidity",
      "type": "event"
    },
    {
      "anonymous": false,
      "inputs": [
        {
          "indexed": true,
          "internalType": "address",
          "name": "account",
          "type": "address"
        },
        {
          "indexed": false,
          "internalType": "uint256",
          "name": "bAmount",
          "type": "uint256"
        }
      ],
      "name": "RemoveMargin",
      "type": "event"
    },
    {
      "anonymous": false,
      "inputs": [
        {
          "indexed": true,
          "internalType": "address",
          "name": "account",
          "type": "address"
        },
        {
          "indexed": false,
          "internalType": "int256",
          "name": "tradeVolume",
          "type": "int256"
        },
        {
          "indexed": false,
          "internalType": "uint256",
          "name": "price",
          "type": "uint256"
        }
      ],
      "name": "Trade",
      "type": "event"
    },
    {
      "inputs": [
        {
          "internalType": "uint256",
          "name": "bAmount",
          "type": "uint256"
        }
      ],
      "name": "addLiquidity",
      "outputs": [],
      "stateMutability": "nonpayable",
      "type": "function"
    },
    {
      "inputs": [
        {
          "internalType": "uint256",
          "name": "bAmount",
          "type": "uint256"
        },
        {
          "components": [
            {
              "internalType": "uint256",
              "name": "timestamp",
              "type": "uint256"
            },
            {
              "internalType": "uint256",
              "name": "price",
              "type": "uint256"
            },
            {
              "internalType": "uint8",
              "name": "v",
              "type": "uint8"
            },
            {
              "internalType": "bytes32",
              "name": "r",
              "type": "bytes32"
            },
            {
              "internalType": "bytes32",
              "name": "s",
              "type": "bytes32"
            }
          ],
          "internalType": "struct IPerpetualPoolLite.SignedPrice",
          "name": "price",
          "type": "tuple"
        }
      ],
      "name": "addLiquidity",
      "outputs": [],
      "stateMutability": "nonpayable",
      "type": "function"
    },
    {
      "inputs": [
        {
          "internalType": "uint256",
          "name": "bAmount",
          "type": "uint256"
        },
        {
          "components": [
            {
              "internalType": "uint256",
              "name": "timestamp",
              "type": "uint256"
            },
            {
              "internalType": "uint256",
              "name": "price",
              "type": "uint256"
            },
            {
              "internalType": "uint8",
              "name": "v",
              "type": "uint8"
            },
            {
              "internalType": "bytes32",
              "name": "r",
              "type": "bytes32"
            },
            {
              "internalType": "bytes32",
              "name": "s",
              "type": "bytes32"
            }
          ],
          "internalType": "struct IPerpetualPoolLite.SignedPrice",
          "name": "price",
          "type": "tuple"
        }
      ],
      "name": "addMargin",
      "outputs": [],
      "stateMutability": "nonpayable",
      "type": "function"
    },
    {
      "inputs": [
        {
          "internalType": "uint256",
          "name": "bAmount",
          "type": "uint256"
        }
      ],
      "name": "addMargin",
      "outputs": [],
      "stateMutability": "nonpayable",
      "type": "function"
    },
    {
      "inputs": [],
      "name": "collectProtocolFee",
      "outputs": [],
      "stateMutability": "nonpayable",
      "type": "function"
    },
    {
      "inputs": [],
      "name": "getAddresses",
      "outputs": [
        {
          "internalType": "address",
          "name": "bTokenAddress",
          "type": "address"
        },
        {
          "internalType": "address",
          "name": "lTokenAddress",
          "type": "address"
        },
        {
          "internalType": "address",
          "name": "pTokenAddress",
          "type": "address"
        },
        {
          "internalType": "address",
          "name": "liquidatorQualifierAddress",
          "type": "address"
        },
        {
          "internalType": "address",
          "name": "protocolFeeCollector",
          "type": "address"
        },
        {
          "internalType": "address",
          "name": "underlyingAddress",
          "type": "address"
        },
        {
          "internalType": "address",
          "name": "protocolAddress",
          "type": "address"
        }
      ],
      "stateMutability": "view",
      "type": "function"
    },
    {
      "inputs": [],
      "name": "getLastUpdateBlock",
      "outputs": [
        {
          "internalType": "uint256",
          "name": "",
          "type": "uint256"
        }
      ],
      "stateMutability": "view",
      "type": "function"
    },
    {
      "inputs": [],
      "name": "getLiquidity",
      "outputs": [
        {
          "internalType": "int256",
          "name": "",
          "type": "int256"
        }
      ],
      "stateMutability": "view",
      "type": "function"
    },
    {
      "inputs": [],
      "name": "getParameters",
      "outputs": [
        {
          "internalType": "int256",
          "name": "minPoolMarginRatio",
          "type": "int256"
        },
        {
          "internalType": "int256",
          "name": "minInitialMarginRatio",
          "type": "int256"
        },
        {
          "internalType": "int256",
          "name": "minMaintenanceMarginRatio",
          "type": "int256"
        },
        {
          "internalType": "int256",
          "name": "minLiquidationReward",
          "type": "int256"
        },
        {
          "internalType": "int256",
          "name": "maxLiquidationReward",
          "type": "int256"
        },
        {
          "internalType": "int256",
          "name": "liquidationCutRatio",
          "type": "int256"
        },
        {
          "internalType": "int256",
          "name": "protocolFeeCollectRatio",
          "type": "int256"
        }
      ],
      "stateMutability": "view",
      "type": "function"
    },
    {
      "inputs": [],
      "name": "getProtocolFeeAccrued",
      "outputs": [
        {
          "internalType": "int256",
          "name": "",
          "type": "int256"
        }
      ],
      "stateMutability": "view",
      "type": "function"
    },
    {
      "inputs": [],
      "name": "getSymbol",
      "outputs": [
        {
          "components": [
            {
              "internalType": "string",
              "name": "symbol",
              "type": "string"
            },
            {
              "internalType": "int256",
              "name": "price",
              "type": "int256"
            },
            {
              "internalType": "int256",
              "name": "cumulativeFundingRate",
              "type": "int256"
            },
            {
              "internalType": "int256",
              "name": "tradersNetVolume",
              "type": "int256"
            },
            {
              "internalType": "int256",
              "name": "tradersNetCost",
              "type": "int256"
            }
          ],
          "internalType": "struct IPerpetualPoolLite.SymbolInfo",
          "name": "",
          "type": "tuple"
        }
      ],
      "stateMutability": "view",
      "type": "function"
    },
    {
      "inputs": [],
      "name": "getSymbolPriceAndMultiplier",
      "outputs": [
        {
          "internalType": "int256",
          "name": "price",
          "type": "int256"
        },
        {
          "internalType": "int256",
          "name": "multiplier",
          "type": "int256"
        }
      ],
      "stateMutability": "view",
      "type": "function"
    },
    {
      "inputs": [
        {
          "internalType": "address",
          "name": "account",
          "type": "address"
        }
      ],
      "name": "getTraderPortfolio",
      "outputs": [
        {
          "components": [
            {
              "internalType": "int256",
              "name": "volume",
              "type": "int256"
            },
            {
              "internalType": "int256",
              "name": "cost",
              "type": "int256"
            },
            {
              "internalType": "int256",
              "name": "lastCumulativeFundingRate",
              "type": "int256"
            }
          ],
          "internalType": "struct IPTokenLite.Position",
          "name": "position",
          "type": "tuple"
        },
        {
          "internalType": "int256",
          "name": "margin",
          "type": "int256"
        }
      ],
      "stateMutability": "view",
      "type": "function"
    },
    {
      "inputs": [
        {
          "internalType": "address[6]",
          "name": "addresses",
          "type": "address[6]"
        }
      ],
      "name": "initialize",
      "outputs": [],
      "stateMutability": "nonpayable",
      "type": "function"
    },
    {
      "inputs": [
        {
          "internalType": "address",
          "name": "account",
          "type": "address"
        }
      ],
      "name": "liquidate",
      "outputs": [],
      "stateMutability": "nonpayable",
      "type": "function"
    },
    {
      "inputs": [
        {
          "internalType": "address",
          "name": "account",
          "type": "address"
        },
        {
          "components": [
            {
              "internalType": "uint256",
              "name": "timestamp",
              "type": "uint256"
            },
            {
              "internalType": "uint256",
              "name": "price",
              "type": "uint256"
            },
            {
              "internalType": "uint8",
              "name": "v",
              "type": "uint8"
            },
            {
              "internalType": "bytes32",
              "name": "r",
              "type": "bytes32"
            },
            {
              "internalType": "bytes32",
              "name": "s",
              "type": "bytes32"
            }
          ],
          "internalType": "struct IPerpetualPoolLite.SignedPrice",
          "name": "price",
          "type": "tuple"
        }
      ],
      "name": "liquidate",
      "outputs": [],
      "stateMutability": "nonpayable",
      "type": "function"
    },
    {
      "inputs": [
        {
          "internalType": "uint256",
          "name": "lShares",
          "type": "uint256"
        }
      ],
      "name": "removeLiquidity",
      "outputs": [],
      "stateMutability": "nonpayable",
      "type": "function"
    },
    {
      "inputs": [
        {
          "internalType": "uint256",
          "name": "lShares",
          "type": "uint256"
        },
        {
          "components": [
            {
              "internalType": "uint256",
              "name": "timestamp",
              "type": "uint256"
            },
            {
              "internalType": "uint256",
              "name": "price",
              "type": "uint256"
            },
            {
              "internalType": "uint8",
              "name": "v",
              "type": "uint8"
            },
            {
              "internalType": "bytes32",
              "name": "r",
              "type": "bytes32"
            },
            {
              "internalType": "bytes32",
              "name": "s",
              "type": "bytes32"
            }
          ],
          "internalType": "struct IPerpetualPoolLite.SignedPrice",
          "name": "price",
          "type": "tuple"
        }
      ],
      "name": "removeLiquidity",
      "outputs": [],
      "stateMutability": "nonpayable",
      "type": "function"
    },
    {
      "inputs": [
        {
          "internalType": "uint256",
          "name": "bAmount",
          "type": "uint256"
        },
        {
          "components": [
            {
              "internalType": "uint256",
              "name": "timestamp",
              "type": "uint256"
            },
            {
              "internalType": "uint256",
              "name": "price",
              "type": "uint256"
            },
            {
              "internalType": "uint8",
              "name": "v",
              "type": "uint8"
            },
            {
              "internalType": "bytes32",
              "name": "r",
              "type": "bytes32"
            },
            {
              "internalType": "bytes32",
              "name": "s",
              "type": "bytes32"
            }
          ],
          "internalType": "struct IPerpetualPoolLite.SignedPrice",
          "name": "price",
          "type": "tuple"
        }
      ],
      "name": "removeMargin",
      "outputs": [],
      "stateMutability": "nonpayable",
      "type": "function"
    },
    {
      "inputs": [
        {
          "internalType": "uint256",
          "name": "bAmount",
          "type": "uint256"
        }
      ],
      "name": "removeMargin",
      "outputs": [],
      "stateMutability": "nonpayable",
      "type": "function"
    },
    {
      "inputs": [
        {
          "internalType": "int256",
          "name": "tradeVolume",
          "type": "int256"
        }
      ],
      "name": "trade",
      "outputs": [],
      "stateMutability": "nonpayable",
      "type": "function"
    },
    {
      "inputs": [
        {
          "internalType": "int256",
          "name": "tradeVolume",
          "type": "int256"
        },
        {
          "components": [
            {
              "internalType": "uint256",
              "name": "timestamp",
              "type": "uint256"
            },
            {
              "internalType": "uint256",
              "name": "price",
              "type": "uint256"
            },
            {
              "internalType": "uint8",
              "name": "v",
              "type": "uint8"
            },
            {
              "internalType": "bytes32",
              "name": "r",
              "type": "bytes32"
            },
            {
              "internalType": "bytes32",
              "name": "s",
              "type": "bytes32"
            }
          ],
          "internalType": "struct IPerpetualPoolLite.SignedPrice",
          "name": "price",
          "type": "tuple"
        }
      ],
      "name": "trade",
      "outputs": [],
      "stateMutability": "nonpayable",
      "type": "function"
    }
  ],
  "transactionHash": "0xbe326de682f3b4b34029ce166ccee6f01646555cfd4ec984f588f591b4de2522",
  "args": [
    [
      "0xb3C07C631a5be9Adbd18F2bE1505ee9c6f0E4BB3",
      "0x18F4D92Bc206e8c9E08a2C76302CC4D26FA06CBA"
    ]
  ],
  "solcInputHash": "9a3343e5f3c1422936e903d2b828ff21",
  "bytecode": "0x60806040523480156200001157600080fd5b5060405162003b4c38038062003b4c833981016040819052620000349162000087565b51600880546001600160a01b039092166001600160a01b0319928316811790915560098054909216179055601260015562000132565b80516001600160a01b03811681146200008257600080fd5b919050565b60006040828403121562000099578081fd5b82601f830112620000a8578081fd5b604080519081016001600160401b0381118282101715620000cd57620000cd6200011c565b8060405250808385604086011115620000e4578384fd5b835b60028110156200011157620000fb826200006a565b83526020928301929190910190600101620000e6565b509195945050505050565b634e487b7160e01b600052604160045260246000fd5b613a0a80620001426000396000f3fe608060405234801561001057600080fd5b50600436106101425760003560e01c8063a39fac12116100b8578063d608c07d1161007c578063d608c07d146102df578063de61838c146102e7578063dfd19898146102fa578063f11f854f14610317578063f12c9f0e1461032a578063fcd33b511461036457600080fd5b8063a39fac1214610215578063a43be94814610274578063a5ea11da14610287578063b5d40345146102c4578063caa4b46a146102d757600080fd5b80633dc07fda1161010a5780633dc07fda146101a357806351c6590a146101b65780635756e84c146101c957806375fe9c7f146101dc5780637a2e87aa146101ef5780639c8f9f231461020257600080fd5b806307e2ee0f146101475780630910a5101461015e57806314e841b914610166578063150704011461017b5780632f86556814610190575b600080fd5b600b545b6040519081526020015b60405180910390f35b600a5461014b565b610179610174366004613419565b610377565b005b6101836103b7565b6040516101559190613646565b61017961019e3660046132d0565b6104b5565b6101796101b13660046133e9565b61056d565b6101796101c43660046133e9565b6105c0565b6101796101d7366004613419565b6105ea565b6101796101ea366004613419565b61061d565b6101796101fd36600461333d565b610650565b6101796102103660046133e9565b610788565b600254600354600454600554600654600754600854604080516001600160a01b039889168152968816602088015294871694860194909452918516606085015284166080840152831660a08301529190911660c082015260e001610155565b6101796102823660046133e9565b6107dd565b61028f610807565b604080519788526020880196909652948601939093526060850191909152608084015260a083015260c082015260e001610155565b6101796102d2366004613419565b610bd2565b610179610c30565b600c5461014b565b6101796102f5366004613308565b610d56565b610302610e1c565b60408051928352602083019190915201610155565b6101796103253660046133e9565b610eb3565b61033d6103383660046132d0565b610edd565b60408051835181526020808501519082015292810151908301526060820152608001610155565b610179610372366004613419565b61100b565b600082116103a05760405162461bcd60e51b815260040161039790613565565b60405180910390fd5b6103a981611064565b6103b33383611185565b5050565b6103e96040518060a0016040528060608152602001600081526020016000815260200160008152602001600081525090565b600d6040518060a001604052908160008201805461040690613928565b80601f016020809104026020016040519081016040528092919081815260200182805461043290613928565b801561047f5780601f106104545761010080835404028352916020019161047f565b820191906000526020600020905b81548152906001019060200180831161046257829003601f168201915b50505050508152602001600182015481526020016002820154815260200160038201548152602001600482015481525050905090565b60055433906001600160a01b0316158061054757506005546040516337c203bd60e21b81526001600160a01b0383811660048301529091169063df080ef49060240160206040518083038186803b15801561050f57600080fd5b505afa158015610523573d6000803e3d6000fd5b505050506040513d601f19601f8201168201806040525081019061054791906133c9565b6105635760405162461bcd60e51b81526004016103979061359c565b6103b3818361131d565b8015801590610597575080670de0b6b3a764000061058b81836136d7565b6105959190613804565b145b6105b35760405162461bcd60e51b815260040161039790613523565b6105bd338261183e565b50565b600081116105e05760405162461bcd60e51b815260040161039790613565565b6105bd3382611f47565b6000821161060a5760405162461bcd60e51b815260040161039790613565565b61061381611064565b6103b33383612124565b6000821161063d5760405162461bcd60e51b815260040161039790613565565b61064681611064565b6103b33383611f47565b600054610100900460ff1680610669575060005460ff16155b6106cc5760405162461bcd60e51b815260206004820152602e60248201527f496e697469616c697a61626c653a20636f6e747261637420697320616c72656160448201526d191e481a5b9a5d1a585b1a5e995960921b6064820152608401610397565b600054610100900460ff161580156106ee576000805461ffff19166101011790555b8151600280546001600160a01b03199081166001600160a01b0393841617909155602084015160038054831691841691909117905560408401516004805483169184169190911790556060840151600580548316918416919091179055608084015160068054831691841691909117905560a084015160078054909216921691909117905580156103b3576000805461ff00191690555050565b600081116107d35760405162461bcd60e51b815260206004820152601860248201527750657270657475616c506f6f6c3a2030206c53686172657360401b6044820152606401610397565b6105bd338261230a565b600081116107fd5760405162461bcd60e51b815260040161039790613565565b6105bd3382612124565b6000806000806000806000600960009054906101000a90046001600160a01b03166001600160a01b031663c42243c16040518163ffffffff1660e01b815260040160206040518083038186803b15801561086057600080fd5b505afa158015610874573d6000803e3d6000fd5b505050506040513d601f19601f820116820180604052508101906108989190613401565b600960009054906101000a90046001600160a01b03166001600160a01b0316638ac848ca6040518163ffffffff1660e01b815260040160206040518083038186803b1580156108e657600080fd5b505afa1580156108fa573d6000803e3d6000fd5b505050506040513d601f19601f8201168201806040525081019061091e9190613401565b600960009054906101000a90046001600160a01b03166001600160a01b0316630adf8e926040518163ffffffff1660e01b815260040160206040518083038186803b15801561096c57600080fd5b505afa158015610980573d6000803e3d6000fd5b505050506040513d601f19601f820116820180604052508101906109a49190613401565b600960009054906101000a90046001600160a01b03166001600160a01b031663ddd18d306040518163ffffffff1660e01b815260040160206040518083038186803b1580156109f257600080fd5b505afa158015610a06573d6000803e3d6000fd5b505050506040513d601f19601f82011682018060405250810190610a2a9190613401565b600960009054906101000a90046001600160a01b03166001600160a01b031663ab78ace46040518163ffffffff1660e01b815260040160206040518083038186803b158015610a7857600080fd5b505afa158015610a8c573d6000803e3d6000fd5b505050506040513d601f19601f82011682018060405250810190610ab09190613401565b600960009054906101000a90046001600160a01b03166001600160a01b03166346d2d2d86040518163ffffffff1660e01b815260040160206040518083038186803b158015610afe57600080fd5b505afa158015610b12573d6000803e3d6000fd5b505050506040513d601f19601f82011682018060405250810190610b369190613401565b600960009054906101000a90046001600160a01b03166001600160a01b031663f94835646040518163ffffffff1660e01b815260040160206040518083038186803b158015610b8457600080fd5b505afa158015610b98573d6000803e3d6000fd5b505050506040513d601f19601f82011682018060405250810190610bbc9190613401565b959d949c50929a50909850965094509092509050565b60008211610c1d5760405162461bcd60e51b815260206004820152601860248201527750657270657475616c506f6f6c3a2030206c53686172657360401b6044820152606401610397565b610c2681611064565b6103b3338361230a565b6001546002546040516370a0823160e01b8152306004820152600092610cbf9290916012916001600160a01b0316906370a082319060240160206040518083038186803b158015610c8057600080fd5b505afa158015610c94573d6000803e3d6000fd5b505050506040513d601f19601f82011682018060405250810190610cb89190613401565b91906125d9565b90506000610cce600c5461261d565b905081811115610cdb5750805b610ce481612659565b600c6000828254610cf591906138a6565b9091555050600654610d10906001600160a01b031682612698565b6006546040518281526001600160a01b03909116907fdc9b9c7c232fac9d635ce55b58e41cca2c16aa6ad39a73973ce276d479ad6f2d9060200160405180910390a25050565b60055433906001600160a01b03161580610de857506005546040516337c203bd60e21b81526001600160a01b0383811660048301529091169063df080ef49060240160206040518083038186803b158015610db057600080fd5b505afa158015610dc4573d6000803e3d6000fd5b505050506040513d601f19601f82011682018060405250810190610de891906133c9565b610e045760405162461bcd60e51b81526004016103979061359c565b610e0d82611064565b610e17818461131d565b505050565b600080600d60010154600960009054906101000a90046001600160a01b03166001600160a01b031663cfcd67446040518163ffffffff1660e01b815260040160206040518083038186803b158015610e7357600080fd5b505afa158015610e87573d6000803e3d6000fd5b505050506040513d601f19601f82011682018060405250810190610eab9190613401565b915091509091565b60008111610ed35760405162461bcd60e51b815260040161039790613565565b6105bd3382611185565b610f0160405180606001604052806000815260200160008152602001600081525090565b600480546040516316c1973960e01b81526001600160a01b03858116938201939093526000929091169081906316c197399060240160606040518083038186803b158015610f4e57600080fd5b505afa158015610f62573d6000803e3d6000fd5b505050506040513d601f19601f82011682018060405250810190610f86919061343c565b604051637c27c4d160e11b81526001600160a01b0386811660048301529194509082169063f84f89a29060240160206040518083038186803b158015610fcb57600080fd5b505afa158015610fdf573d6000803e3d6000fd5b505050506040513d601f19601f820116820180604052508101906110039190613401565b915050915091565b8115801590611035575081670de0b6b3a764000061102981836136d7565b6110339190613804565b145b6110515760405162461bcd60e51b815260040161039790613523565b61105a81611064565b6103b3338361183e565b600960009054906101000a90046001600160a01b03166001600160a01b0316636bb9e4cb6040518163ffffffff1660e01b815260040160206040518083038186803b1580156110b257600080fd5b505afa1580156110c6573d6000803e3d6000fd5b505050506040513d601f19601f820116820180604052508101906110ea91906132ec565b6007548251602084015160408086015160608701516080880151925162da15e960e71b81526001600160a01b0396871660048201526024810195909552604485019390935260ff166064840152608483019190915260a4820152911690636d0af4809060c401600060405180830381600087803b15801561116a57600080fd5b505af115801561117e573d6000803e3d6000fd5b5050505050565b60125460ff16156111a85760405162461bcd60e51b815260040161039790613625565b6012805460ff191660011790556111bd612716565b50506000806111cb84612b6a565b9150915060006111da84612659565b90508181126111f95750806111ee8161261d565b935060009150611206565b61120381836138a6565b91505b600960009054906101000a90046001600160a01b03166001600160a01b0316638ac848ca6040518163ffffffff1660e01b815260040160206040518083038186803b15801561125457600080fd5b505afa158015611268573d6000803e3d6000fd5b505050506040513d601f19601f8201168201806040525081019061128c9190613401565b6112968484612c1b565b12156112b45760405162461bcd60e51b8152600401610397906135e3565b6112bf858484612d61565b6112c98585612698565b846001600160a01b03167f318a9cd646c737e6331915189b674d6d06ae71b28df0f50e7a6dfe101a1293878560405161130491815260200190565b60405180910390a250506012805460ff19169055505050565b60125460ff16156113405760405162461bcd60e51b815260040161039790613625565b6012805460ff19166001179055611355612716565b505060008061136383612b6a565b91509150600960009054906101000a90046001600160a01b03166001600160a01b0316630adf8e926040518163ffffffff1660e01b815260040160206040518083038186803b1580156113b557600080fd5b505afa1580156113c9573d6000803e3d6000fd5b505050506040513d601f19601f820116820180604052508101906113ed9190613401565b6113f78383612c1b565b126114445760405162461bcd60e51b815260206004820152601f60248201527f50657270657475616c506f6f6c3a2063616e6e6f74206c6971756964617465006044820152606401610397565b815181901561155a578251601080546000906114619084906138a6565b909155505060208301516011805460009061147d9084906138a6565b9091555050602080840151600954604080516333f359d160e21b815290519293670de0b6b3a7640000936001600160a01b039093169263cfcd6744926004808201939291829003018186803b1580156114d557600080fd5b505afa1580156114e9573d6000803e3d6000fd5b505050506040513d601f19601f8201168201806040525081019061150d9190613401565b600e548651670de0b6b3a76400009161152591613804565b61152f91906136d7565b6115399190613804565b61154391906136d7565b61154d91906138a6565b6115579082613696565b90505b600080600960009054906101000a90046001600160a01b03166001600160a01b031663ddd18d306040518163ffffffff1660e01b815260040160206040518083038186803b1580156115ab57600080fd5b505afa1580156115bf573d6000803e3d6000fd5b505050506040513d601f19601f820116820180604052508101906115e39190613401565b90506000600960009054906101000a90046001600160a01b03166001600160a01b031663ab78ace46040518163ffffffff1660e01b815260040160206040518083038186803b15801561163557600080fd5b505afa158015611649573d6000803e3d6000fd5b505050506040513d601f19601f8201168201806040525081019061166d9190613401565b905081841361167e57819250611748565b80841261168d57809250611748565b81670de0b6b3a7640000600960009054906101000a90046001600160a01b03166001600160a01b03166346d2d2d86040518163ffffffff1660e01b815260040160206040518083038186803b1580156116e557600080fd5b505afa1580156116f9573d6000803e3d6000fd5b505050506040513d601f19601f8201168201806040525081019061171d9190613401565b61172785886138a6565b6117319190613804565b61173b91906136d7565b6117459190613696565b92505b61175283866138a6565b600a60008282546117639190613696565b90915550506004805460405163226bf2d160e21b81526001600160a01b038a8116938201939093529116906389afcb4490602401600060405180830381600087803b1580156117b157600080fd5b505af11580156117c5573d6000803e3d6000fd5b505050506117db886117d68561261d565b612698565b876001600160a01b0316876001600160a01b03167faef3faf684172084346f7dc2cc3bb1328d1cc23caec12dd9a82d4a4e56c00b176118198661261d565b60405190815260200160405180910390a350506012805460ff19169055505050505050565b60125460ff16156118615760405162461bcd60e51b815260040161039790613625565b6012805460ff19166001179055600080611879612716565b9150915060008061188986612b6a565b915091506118cd6040518060e00160405280600081526020016000815260200160008152602001600081526020016000815260200160008152602001600081525090565b6010548152600e54602080830191909152600954604080516333f359d160e21b815290516001600160a01b039092169263cfcd674492600480840193829003018186803b15801561191d57600080fd5b505afa158015611931573d6000803e3d6000fd5b505050506040513d601f19601f820116820180604052508101906119559190613401565b604082018190526020820151670de0b6b3a764000091908290611978908a613804565b61198291906136d7565b61198c9190613804565b61199691906136d7565b606082015260095460408051638b3415b960e01b81529051670de0b6b3a7640000926001600160a01b031691638b3415b9916004808301926020929190829003018186803b1580156119e757600080fd5b505afa1580156119fb573d6000803e3d6000fd5b505050506040513d601f19601f82011682018060405250810190611a1f9190613401565b611a2c8360600151612e2e565b611a369190613804565b611a4091906136d7565b60808201528251600013801590611a58575060008612155b158015611a7557508251600012801590611a73575060008613155b155b15611b06576000611a898460000151612e2e565b90506000611a9688612e2e565b9050808213611ad357846020015181838560600151611ab59190613804565b611abf91906136d7565b611ac99190613696565b60a0840152611b03565b826060015182828760200151611ae99190613804565b611af391906136d7565b611afd9190613696565b60a08401525b50505b670de0b6b3a76400008160400151670de0b6b3a76400008360200151611b2f8560000151612e2e565b8551611b4590611b40908d90613696565b612e2e565b611b4f91906138a6565b611b599190613804565b611b6391906136d7565b611b6d9190613804565b611b7791906136d7565b611b819085613696565b93508583600001818151611b959190613696565b90525060a08101516060820151611bac91906138a6565b83602001818151611bbd9190613696565b905250600f54604084015260a08101516080820151611bdc9190613696565b611be690836138a6565b915085600d6003016000828254611bfd9190613696565b909155505060a08101516060820151611c1691906138a6565b60118054600090611c28908490613696565b909155505060095460408051633e520d5960e21b81529051670de0b6b3a7640000926001600160a01b03169163f9483564916004808301926020929190829003018186803b158015611c7957600080fd5b505afa158015611c8d573d6000803e3d6000fd5b505050506040513d601f19601f82011682018060405250810190611cb19190613401565b8260800151611cc09190613804565b611cca91906136d7565b60c08201819052600c8054600090611ce3908490613696565b909155505060a081015160c08201516080830151611d0191906138a6565b611d0b9190613696565b600a6000828254611d1c9190613696565b9091555050831580611dcf5750600960009054906101000a90046001600160a01b03166001600160a01b031663c42243c16040518163ffffffff1660e01b815260040160206040518083038186803b158015611d7757600080fd5b505afa158015611d8b573d6000803e3d6000fd5b505050506040513d601f19601f82011682018060405250810190611daf9190613401565b84611dc2670de0b6b3a764000088613804565b611dcc91906136d7565b12155b611e295760405162461bcd60e51b815260206004820152602560248201527f50657270657475616c506f6f6c3a20696e73756666696369656e74206c697175604482015264696469747960d81b6064820152608401610397565b600960009054906101000a90046001600160a01b03166001600160a01b0316638ac848ca6040518163ffffffff1660e01b815260040160206040518083038186803b158015611e7757600080fd5b505afa158015611e8b573d6000803e3d6000fd5b505050506040513d601f19601f82011682018060405250810190611eaf9190613401565b611eb98484612c1b565b1215611ed75760405162461bcd60e51b8152600401610397906135e3565b611ee2878484612d61565b866001600160a01b03167fe9b9a6b9b3b7df275a3b89328628d89ee68f326bff47da3b67e7e56a5eeead9f87611f1b846020015161261d565b604080519283526020830191909152015b60405180910390a250506012805460ff191690555050505050565b60125460ff1615611f6a5760405162461bcd60e51b815260040161039790613625565b6012805460ff191660011790556000611f81612716565b509050611f8e8383612e7b565b91506000600360009054906101000a90046001600160a01b031690506000816001600160a01b03166318160ddd6040518163ffffffff1660e01b815260040160206040518083038186803b158015611fe557600080fd5b505afa158015611ff9573d6000803e3d6000fd5b505050506040513d601f19601f8201168201806040525081019061201d9190613401565b905060008161202d57508361204d565b6120368461261d565b6120408387613887565b61204a9190613705565b90505b6040516340c10f1960e01b81526001600160a01b038781166004830152602482018390528416906340c10f1990604401600060405180830381600087803b15801561209757600080fd5b505af11580156120ab573d6000803e3d6000fd5b505050506120b885612659565b600a60008282546120c99190613696565b909155505060408051828152602081018790526001600160a01b038816917f06239653922ac7bea6aa2b19dc486b9361821d37712eb796adfd38d81de278ca910160405180910390a250506012805460ff1916905550505050565b60125460ff16156121475760405162461bcd60e51b815260040161039790613625565b6012805460ff1916600117905561215e8282612e7b565b60048054604051637b51e92760e11b81526001600160a01b03868116938201939093529293501690819063f6a3d24e9060240160206040518083038186803b1580156121a957600080fd5b505afa1580156121bd573d6000803e3d6000fd5b505050506040513d601f19601f820116820180604052508101906121e191906133c9565b612241576040516335313c2160e11b81526001600160a01b038481166004830152821690636a62784290602401600060405180830381600087803b15801561222857600080fd5b505af115801561223c573d6000803e3d6000fd5b505050505b806001600160a01b031663ac2681c68461225a85612659565b6040516001600160e01b031960e085901b1681526001600160a01b0390921660048301526024820152604401600060405180830381600087803b1580156122a057600080fd5b505af11580156122b4573d6000803e3d6000fd5b50505050826001600160a01b03167f278e696bd0cd4a7d1260ced26c40cd01c2b088f441889e4148240ac81069b348836040516122f391815260200190565b60405180910390a250506012805460ff1916905550565b60125460ff161561232d5760405162461bcd60e51b815260040161039790613625565b6012805460ff19166001179055600080612345612716565b600354604080516318160ddd60e01b815290519395509193506001600160a01b03169160009183916318160ddd91600480820192602092909190829003018186803b15801561239357600080fd5b505afa1580156123a7573d6000803e3d6000fd5b505050506040513d601f19601f820116820180604052508101906123cb9190613401565b90506000816123d98661261d565b6123e39088613887565b6123ed9190613705565b90506123f881612659565b600a600082825461240991906138a6565b90915550508315806124d05750600960009054906101000a90046001600160a01b03166001600160a01b031663c42243c16040518163ffffffff1660e01b815260040160206040518083038186803b15801561246457600080fd5b505afa158015612478573d6000803e3d6000fd5b505050506040513d601f19601f8201168201806040525081019061249c9190613401565b84670de0b6b3a76400006124af84612659565b6124b990896138a6565b6124c39190613804565b6124cd91906136d7565b12155b61252c5760405162461bcd60e51b815260206004820152602760248201527f50657270657475616c506f6f6c3a20706f6f6c20696e73756666696369656e746044820152661036b0b933b4b760c91b6064820152608401610397565b604051632770a7eb60e21b81526001600160a01b03888116600483015260248201889052841690639dc29fac90604401600060405180830381600087803b15801561257657600080fd5b505af115801561258a573d6000803e3d6000fd5b505050506125988782612698565b60408051878152602081018390526001600160a01b038916917f0fbf06c058b90cb038a618f8c2acbf6145f8b3570fd1fa56abb8f0f3f05b36e89101611f2c565b6000818314612611576125ed83600a61375c565b6125f883600a61375c565b6126029086613887565b61260c9190613705565b612613565b835b90505b9392505050565b6000808212156126555760405162461bcd60e51b815260206004820152600360248201526249554f60e81b6044820152606401610397565b5090565b60006001600160ff1b038211156126555760405162461bcd60e51b815260206004820152600360248201526255494f60e81b6044820152606401610397565b60006126b26012600154846125d99092919063ffffffff16565b905060006126ce6001546012846125d99092919063ffffffff16565b6126d890846138e5565b90506126e381612659565b600c60008282546126f49190613696565b9091555050600254612710906001600160a01b03168584612ebb565b50505050565b600b54600a549060009043818111156128225760095460408051636bb9e4cb60e01b8152905161281e926001600160a01b031691636bb9e4cb916004808301926020929190829003018186803b15801561276f57600080fd5b505afa158015612783573d6000803e3d6000fd5b505050506040513d601f19601f820116820180604052508101906127a791906132ec565b6001600160a01b03166398d5fdca6040518163ffffffff1660e01b8152600401602060405180830381600087803b1580156127e157600080fd5b505af11580156127f5573d6000803e3d6000fd5b505050506040513d601f19601f820116820180604052508101906128199190613401565b612659565b600e555b60105415612925576000670de0b6b3a7640000600960009054906101000a90046001600160a01b03166001600160a01b031663cfcd67446040518163ffffffff1660e01b815260040160206040518083038186803b15801561288357600080fd5b505afa158015612897573d6000803e3d6000fd5b505050506040513d601f19601f820116820180604052508101906128bb9190613401565b600e54601054670de0b6b3a7640000916128d491613804565b6128de91906136d7565b6128e89190613804565b6128f291906136d7565b60115490915061290290826138a6565b61290c90866138a6565b945061291781612e2e565b6129219085613696565b9350505b81811115612b625760105415612b6257600084600960009054906101000a90046001600160a01b03166001600160a01b031663e7a06ffe6040518163ffffffff1660e01b815260040160206040518083038186803b15801561298657600080fd5b505afa15801561299a573d6000803e3d6000fd5b505050506040513d601f19601f820116820180604052508101906129be9190613401565b600954604080516333f359d160e21b81529051670de0b6b3a7640000926001600160a01b03169163cfcd6744916004808301926020929190829003018186803b158015612a0a57600080fd5b505afa158015612a1e573d6000803e3d6000fd5b505050506040513d601f19601f82011682018060405250810190612a429190613401565b600954604080516333f359d160e21b81529051670de0b6b3a7640000926001600160a01b03169163cfcd6744916004808301926020929190829003018186803b158015612a8e57600080fd5b505afa158015612aa2573d6000803e3d6000fd5b505050506040513d601f19601f82011682018060405250810190612ac69190613401565b600e54601054670de0b6b3a764000091908290612ae4908390613804565b612aee91906136d7565b612af89190613804565b612b0291906136d7565b612b0c9190613804565b612b1691906136d7565b612b209190613804565b612b2a91906136d7565b612b349190613804565b612b3e91906136d7565b90506000612b4c84846138e5565b612b569083613804565b600f8054909101905550505b600b55509091565b612b8e60405180606001604052806000815260200160008152602001600081525090565b6000612b9983610edd565b8151919350915060009015612beb57600f546040840151845190820390670de0b6b3a764000090612bcb908390613804565b612bd591906136d7565b612bdf9084613696565b60408601929092525090505b8015612c1557612bfb81836138a6565b915080600a6000828254612c0f9190613696565b90915550505b50915091565b81516000908290829015612d25576000670de0b6b3a7640000600960009054906101000a90046001600160a01b03166001600160a01b031663cfcd67446040518163ffffffff1660e01b815260040160206040518083038186803b158015612c8257600080fd5b505afa158015612c96573d6000803e3d6000fd5b505050506040513d601f19601f82011682018060405250810190612cba9190613401565b600e548851670de0b6b3a764000091612cd291613804565b612cdc91906136d7565b612ce69190613804565b612cf091906136d7565b9050856020015181612d0291906138a6565b612d0c9084613696565b9250612d1781612e2e565b612d219083613696565b9150505b8015612d4d5780612d3e670de0b6b3a764000084613804565b612d4891906136d7565b612d56565b6001600160ff1b035b925050505b92915050565b600480546040516388f74d0960e01b81526001600160a01b039091169182916388f74d0991612d949188918891016134df565b600060405180830381600087803b158015612dae57600080fd5b505af1158015612dc2573d6000803e3d6000fd5b5050604051631a9c941f60e01b81526001600160a01b0387811660048301526024820186905284169250631a9c941f9150604401600060405180830381600087803b158015612e1057600080fd5b505af1158015612e24573d6000803e3d6000fd5b5050505050505050565b6000600160ff1b821415612e695760405162461bcd60e51b8152602060048201526002602482015261414f60f01b6044820152606401610397565b600082121561265557612d5b82613963565b600080612ea08430612e9b6012600154886125d99092919063ffffffff16565b612f1e565b600154909150612eb390829060126125d9565b949350505050565b6040516001600160a01b038316602482015260448101829052610e1790849063a9059cbb60e01b906064015b60408051601f198184030181529190526020810180516001600160e01b03166001600160e01b03199093169290921790915261304b565b6002546040516370a0823160e01b81526001600160a01b0384811660048301526000921690829082906370a082319060240160206040518083038186803b158015612f6857600080fd5b505afa158015612f7c573d6000803e3d6000fd5b505050506040513d601f19601f82011682018060405250810190612fa09190613401565b9050612fb76001600160a01b03831687878761311d565b6040516370a0823160e01b81526001600160a01b038681166004830152600091908416906370a082319060240160206040518083038186803b158015612ffc57600080fd5b505afa158015613010573d6000803e3d6000fd5b505050506040513d601f19601f820116820180604052508101906130349190613401565b905061304082826138e5565b979650505050505050565b60006130a0826040518060400160405280602081526020017f5361666545524332303a206c6f772d6c6576656c2063616c6c206661696c6564815250856001600160a01b03166131559092919063ffffffff16565b805190915015610e1757808060200190518101906130be91906133c9565b610e175760405162461bcd60e51b815260206004820152602a60248201527f5361666545524332303a204552433230206f7065726174696f6e20646964206e6044820152691bdd081cdd58d8d9595960b21b6064820152608401610397565b6040516001600160a01b03808516602483015283166044820152606481018290526127109085906323b872dd60e01b90608401612ee7565b6060612613848460008585843b6131ae5760405162461bcd60e51b815260206004820152601d60248201527f416464726573733a2063616c6c20746f206e6f6e2d636f6e74726163740000006044820152606401610397565b600080866001600160a01b031685876040516131ca91906134c3565b60006040518083038185875af1925050503d8060008114613207576040519150601f19603f3d011682016040523d82523d6000602084013e61320c565b606091505b509150915061304082828660608315613226575081612616565b8251156132365782518084602001fd5b8160405162461bcd60e51b81526004016103979190613510565b600060a08284031215613261578081fd5b60405160a0810181811067ffffffffffffffff82111715613284576132846139a9565b80604052508091508235815260208301356020820152604083013560ff811681146132ae57600080fd5b8060408301525060608301356060820152608083013560808201525092915050565b6000602082840312156132e1578081fd5b8135612616816139bf565b6000602082840312156132fd578081fd5b8151612616816139bf565b60008060c0838503121561331a578081fd5b8235613325816139bf565b91506133348460208501613250565b90509250929050565b600060c0828403121561334e578081fd5b82601f83011261335c578081fd5b60405160c0810181811067ffffffffffffffff8211171561337f5761337f6139a9565b604052808360c08101861015613393578384fd5b835b60068110156133be5781356133a9816139bf565b83526020928301929190910190600101613395565b509195945050505050565b6000602082840312156133da578081fd5b81518015158114612616578182fd5b6000602082840312156133fa578081fd5b5035919050565b600060208284031215613412578081fd5b5051919050565b60008060c0838503121561342b578182fd5b823591506133348460208501613250565b60006060828403121561344d578081fd5b6040516060810181811067ffffffffffffffff82111715613470576134706139a9565b80604052508251815260208301516020820152604083015160408201528091505092915050565b600081518084526134af8160208601602086016138fc565b601f01601f19169290920160200192915050565b600082516134d58184602087016138fc565b9190910192915050565b6001600160a01b03831681526080810161261660208301848051825260208082015190830152604090810151910152565b6020815260006126166020830184613497565b60208082526022908201527f50657270657475616c506f6f6c3a20696e76616c6964207472616465566f6c756040820152616d6560f01b606082015260800190565b60208082526018908201527f50657270657475616c506f6f6c3a20302062416d6f756e740000000000000000604082015260600190565b60208082526027908201527f50657270657475616c506f6f6c3a206e6f74207175616c6966696564206c69716040820152663ab4b230ba37b960c91b606082015260800190565b60208082526022908201527f50657270657475616c506f6f6c3a20696e73756666696369656e74206d61726760408201526134b760f11b606082015260800190565b6020808252600790820152667265656e74727960c81b604082015260600190565b602081526000825160a0602084015261366260c0840182613497565b9050602084015160408401526040840151606084015260608401516080840152608084015160a08401528091505092915050565b600080821280156001600160ff1b03849003851316156136b8576136b861397d565b600160ff1b83900384128116156136d1576136d161397d565b50500190565b6000826136e6576136e6613993565b600160ff1b8214600019841416156137005761370061397d565b500590565b60008261371457613714613993565b500490565b600181815b8085111561375457816000190482111561373a5761373a61397d565b8085161561374757918102915b93841c939080029061371e565b509250929050565b6000612616838360008261377257506001612d5b565b8161377f57506000612d5b565b8160018114613795576002811461379f576137bb565b6001915050612d5b565b60ff8411156137b0576137b061397d565b50506001821b612d5b565b5060208310610133831016604e8410600b84101617156137de575081810a612d5b565b6137e88383613719565b80600019048211156137fc576137fc61397d565b029392505050565b60006001600160ff1b038184138284138082168684048611161561382a5761382a61397d565b600160ff1b848712828116878305891216156138485761384861397d565b8587129250878205871284841616156138635761386361397d565b878505871281841616156138795761387961397d565b505050929093029392505050565b60008160001904831182151516156138a1576138a161397d565b500290565b60008083128015600160ff1b8501841216156138c4576138c461397d565b6001600160ff1b03840183138116156138df576138df61397d565b50500390565b6000828210156138f7576138f761397d565b500390565b60005b838110156139175781810151838201526020016138ff565b838111156127105750506000910152565b600181811c9082168061393c57607f821691505b6020821081141561395d57634e487b7160e01b600052602260045260246000fd5b50919050565b6000600160ff1b8214156139795761397961397d565b0390565b634e487b7160e01b600052601160045260246000fd5b634e487b7160e01b600052601260045260246000fd5b634e487b7160e01b600052604160045260246000fd5b6001600160a01b03811681146105bd57600080fdfea2646970667358221220fc915c44be9e7a7a374509e69dfdb04cc7b3d19bbdf69f545c1bcd8448172fa364736f6c63430008040033",
  "devdoc": {
    "kind": "dev",
    "methods": {},
    "version": 1
  },
  "userdoc": {
    "kind": "user",
    "methods": {},
    "version": 1
  },
  "storageLayout": {
    "storage": [
      {
        "astId": 5456,
        "contract": "contracts/perpetual_futures/PerpetualPoolLite.sol:PerpetualPoolLite",
        "label": "_initialized",
        "offset": 0,
        "slot": "0",
        "type": "t_bool"
      },
      {
        "astId": 5459,
        "contract": "contracts/perpetual_futures/PerpetualPoolLite.sol:PerpetualPoolLite",
        "label": "_initializing",
        "offset": 1,
        "slot": "0",
        "type": "t_bool"
      },
      {
        "astId": 10263,
        "contract": "contracts/perpetual_futures/PerpetualPoolLite.sol:PerpetualPoolLite",
        "label": "_decimals",
        "offset": 0,
        "slot": "1",
        "type": "t_uint256"
      },
      {
        "astId": 10265,
        "contract": "contracts/perpetual_futures/PerpetualPoolLite.sol:PerpetualPoolLite",
        "label": "_bTokenAddress",
        "offset": 0,
        "slot": "2",
        "type": "t_address"
      },
      {
        "astId": 10267,
        "contract": "contracts/perpetual_futures/PerpetualPoolLite.sol:PerpetualPoolLite",
        "label": "_lTokenAddress",
        "offset": 0,
        "slot": "3",
        "type": "t_address"
      },
      {
        "astId": 10269,
        "contract": "contracts/perpetual_futures/PerpetualPoolLite.sol:PerpetualPoolLite",
        "label": "_pTokenAddress",
        "offset": 0,
        "slot": "4",
        "type": "t_address"
      },
      {
        "astId": 10271,
        "contract": "contracts/perpetual_futures/PerpetualPoolLite.sol:PerpetualPoolLite",
        "label": "_liquidatorQualifierAddress",
        "offset": 0,
        "slot": "5",
        "type": "t_address"
      },
      {
        "astId": 10273,
        "contract": "contracts/perpetual_futures/PerpetualPoolLite.sol:PerpetualPoolLite",
        "label": "_protocolFeeCollector",
        "offset": 0,
        "slot": "6",
        "type": "t_address"
      },
      {
        "astId": 10275,
        "contract": "contracts/perpetual_futures/PerpetualPoolLite.sol:PerpetualPoolLite",
        "label": "_underlyingAddress",
        "offset": 0,
        "slot": "7",
        "type": "t_address"
      },
      {
        "astId": 10277,
        "contract": "contracts/perpetual_futures/PerpetualPoolLite.sol:PerpetualPoolLite",
        "label": "_protocolAddress",
        "offset": 0,
        "slot": "8",
        "type": "t_address"
      },
      {
        "astId": 10280,
        "contract": "contracts/perpetual_futures/PerpetualPoolLite.sol:PerpetualPoolLite",
        "label": "_protocolParameters",
        "offset": 0,
        "slot": "9",
        "type": "t_contract(FuturesProtocolParameters)17935"
      },
      {
        "astId": 10282,
        "contract": "contracts/perpetual_futures/PerpetualPoolLite.sol:PerpetualPoolLite",
        "label": "_liquidity",
        "offset": 0,
        "slot": "10",
        "type": "t_int256"
      },
      {
        "astId": 10284,
        "contract": "contracts/perpetual_futures/PerpetualPoolLite.sol:PerpetualPoolLite",
        "label": "_lastUpdateBlock",
        "offset": 0,
        "slot": "11",
        "type": "t_uint256"
      },
      {
        "astId": 10286,
        "contract": "contracts/perpetual_futures/PerpetualPoolLite.sol:PerpetualPoolLite",
        "label": "_protocolFeeAccrued",
        "offset": 0,
        "slot": "12",
        "type": "t_int256"
      },
      {
        "astId": 10289,
        "contract": "contracts/perpetual_futures/PerpetualPoolLite.sol:PerpetualPoolLite",
        "label": "_symbol",
        "offset": 0,
        "slot": "13",
        "type": "t_struct(SymbolInfo)15022_storage"
      },
      {
        "astId": 10291,
        "contract": "contracts/perpetual_futures/PerpetualPoolLite.sol:PerpetualPoolLite",
        "label": "_mutex",
        "offset": 0,
        "slot": "18",
        "type": "t_bool"
      }
    ],
    "types": {
      "t_address": {
        "encoding": "inplace",
        "label": "address",
        "numberOfBytes": "20"
      },
      "t_bool": {
        "encoding": "inplace",
        "label": "bool",
        "numberOfBytes": "1"
      },
      "t_contract(FuturesProtocolParameters)17935": {
        "encoding": "inplace",
        "label": "contract FuturesProtocolParameters",
        "numberOfBytes": "20"
      },
      "t_int256": {
        "encoding": "inplace",
        "label": "int256",
        "numberOfBytes": "32"
      },
      "t_string_storage": {
        "encoding": "bytes",
        "label": "string",
        "numberOfBytes": "32"
      },
      "t_struct(SymbolInfo)15022_storage": {
        "encoding": "inplace",
        "label": "struct IPerpetualPoolLite.SymbolInfo",
        "members": [
          {
            "astId": 15013,
            "contract": "contracts/perpetual_futures/PerpetualPoolLite.sol:PerpetualPoolLite",
            "label": "symbol",
            "offset": 0,
            "slot": "0",
            "type": "t_string_storage"
          },
          {
            "astId": 15015,
            "contract": "contracts/perpetual_futures/PerpetualPoolLite.sol:PerpetualPoolLite",
            "label": "price",
            "offset": 0,
            "slot": "1",
            "type": "t_int256"
          },
          {
            "astId": 15017,
            "contract": "contracts/perpetual_futures/PerpetualPoolLite.sol:PerpetualPoolLite",
            "label": "cumulativeFundingRate",
            "offset": 0,
            "slot": "2",
            "type": "t_int256"
          },
          {
            "astId": 15019,
            "contract": "contracts/perpetual_futures/PerpetualPoolLite.sol:PerpetualPoolLite",
            "label": "tradersNetVolume",
            "offset": 0,
            "slot": "3",
            "type": "t_int256"
          },
          {
            "astId": 15021,
            "contract": "contracts/perpetual_futures/PerpetualPoolLite.sol:PerpetualPoolLite",
            "label": "tradersNetCost",
            "offset": 0,
            "slot": "4",
            "type": "t_int256"
          }
        ],
        "numberOfBytes": "160"
      },
      "t_uint256": {
        "encoding": "inplace",
        "label": "uint256",
        "numberOfBytes": "32"
      }
    }
  }
}