{
  "address": "0x8bDb35bB87EAe5278790BE4BA5f9a6CCC00347a9",
  "abi": [
    {
      "inputs": [
        {
          "internalType": "address[7]",
          "name": "addresses",
          "type": "address[7]"
        }
      ],
      "stateMutability": "nonpayable",
      "type": "constructor"
    },
    {
      "anonymous": false,
      "inputs": [
        {
          "indexed": true,
          "internalType": "address",
          "name": "account",
          "type": "address"
        },
        {
          "indexed": false,
          "internalType": "uint256",
          "name": "lShares",
          "type": "uint256"
        },
        {
          "indexed": false,
          "internalType": "uint256",
          "name": "bAmount",
          "type": "uint256"
        }
      ],
      "name": "AddLiquidity",
      "type": "event"
    },
    {
      "anonymous": false,
      "inputs": [
        {
          "indexed": true,
          "internalType": "address",
          "name": "account",
          "type": "address"
        },
        {
          "indexed": false,
          "internalType": "uint256",
          "name": "bAmount",
          "type": "uint256"
        }
      ],
      "name": "AddMargin",
      "type": "event"
    },
    {
      "anonymous": false,
      "inputs": [
        {
          "indexed": true,
          "internalType": "address",
          "name": "account",
          "type": "address"
        },
        {
          "indexed": true,
          "internalType": "address",
          "name": "liquidator",
          "type": "address"
        },
        {
          "indexed": false,
          "internalType": "uint256",
          "name": "reward",
          "type": "uint256"
        }
      ],
      "name": "Liquidate",
      "type": "event"
    },
    {
      "anonymous": false,
      "inputs": [
        {
          "indexed": true,
          "internalType": "address",
          "name": "collector",
          "type": "address"
        },
        {
          "indexed": false,
          "internalType": "uint256",
          "name": "amount",
          "type": "uint256"
        }
      ],
      "name": "ProtocolFeeCollection",
      "type": "event"
    },
    {
      "anonymous": false,
      "inputs": [
        {
          "indexed": true,
          "internalType": "address",
          "name": "account",
          "type": "address"
        },
        {
          "indexed": false,
          "internalType": "uint256",
          "name": "lShares",
          "type": "uint256"
        },
        {
          "indexed": false,
          "internalType": "uint256",
          "name": "bAmount",
          "type": "uint256"
        }
      ],
      "name": "RemoveLiquidity",
      "type": "event"
    },
    {
      "anonymous": false,
      "inputs": [
        {
          "indexed": true,
          "internalType": "address",
          "name": "account",
          "type": "address"
        },
        {
          "indexed": false,
          "internalType": "uint256",
          "name": "bAmount",
          "type": "uint256"
        }
      ],
      "name": "RemoveMargin",
      "type": "event"
    },
    {
      "anonymous": false,
      "inputs": [
        {
          "indexed": true,
          "internalType": "address",
          "name": "account",
          "type": "address"
        },
        {
          "indexed": false,
          "internalType": "int256",
          "name": "tradeVolume",
          "type": "int256"
        },
        {
          "indexed": false,
          "internalType": "uint256",
          "name": "price",
          "type": "uint256"
        }
      ],
      "name": "Trade",
      "type": "event"
    },
    {
      "inputs": [
        {
          "internalType": "uint256",
          "name": "bAmount",
          "type": "uint256"
        }
      ],
      "name": "addLiquidity",
      "outputs": [],
      "stateMutability": "nonpayable",
      "type": "function"
    },
    {
      "inputs": [
        {
          "internalType": "uint256",
          "name": "bAmount",
          "type": "uint256"
        },
        {
          "components": [
            {
              "internalType": "uint256",
              "name": "timestamp",
              "type": "uint256"
            },
            {
              "internalType": "uint256",
              "name": "price",
              "type": "uint256"
            },
            {
              "internalType": "uint8",
              "name": "v",
              "type": "uint8"
            },
            {
              "internalType": "bytes32",
              "name": "r",
              "type": "bytes32"
            },
            {
              "internalType": "bytes32",
              "name": "s",
              "type": "bytes32"
            }
          ],
          "internalType": "struct IPerpetualPoolLite.SignedPrice",
          "name": "price",
          "type": "tuple"
        }
      ],
      "name": "addLiquidity",
      "outputs": [],
      "stateMutability": "nonpayable",
      "type": "function"
    },
    {
      "inputs": [
        {
          "internalType": "uint256",
          "name": "bAmount",
          "type": "uint256"
        },
        {
          "components": [
            {
              "internalType": "uint256",
              "name": "timestamp",
              "type": "uint256"
            },
            {
              "internalType": "uint256",
              "name": "price",
              "type": "uint256"
            },
            {
              "internalType": "uint8",
              "name": "v",
              "type": "uint8"
            },
            {
              "internalType": "bytes32",
              "name": "r",
              "type": "bytes32"
            },
            {
              "internalType": "bytes32",
              "name": "s",
              "type": "bytes32"
            }
          ],
          "internalType": "struct IPerpetualPoolLite.SignedPrice",
          "name": "price",
          "type": "tuple"
        }
      ],
      "name": "addMargin",
      "outputs": [],
      "stateMutability": "nonpayable",
      "type": "function"
    },
    {
      "inputs": [
        {
          "internalType": "uint256",
          "name": "bAmount",
          "type": "uint256"
        }
      ],
      "name": "addMargin",
      "outputs": [],
      "stateMutability": "nonpayable",
      "type": "function"
    },
    {
      "inputs": [],
      "name": "collectProtocolFee",
      "outputs": [],
      "stateMutability": "nonpayable",
      "type": "function"
    },
    {
      "inputs": [],
      "name": "getAddresses",
      "outputs": [
        {
          "internalType": "address",
          "name": "bTokenAddress",
          "type": "address"
        },
        {
          "internalType": "address",
          "name": "lTokenAddress",
          "type": "address"
        },
        {
          "internalType": "address",
          "name": "pTokenAddress",
          "type": "address"
        },
        {
          "internalType": "address",
          "name": "liquidatorQualifierAddress",
          "type": "address"
        },
        {
          "internalType": "address",
          "name": "protocolFeeCollector",
          "type": "address"
        },
        {
          "internalType": "address",
          "name": "underlyingAddress",
          "type": "address"
        },
        {
          "internalType": "address",
          "name": "protocolAddress",
          "type": "address"
        }
      ],
      "stateMutability": "view",
      "type": "function"
    },
    {
      "inputs": [],
      "name": "getLastUpdateBlock",
      "outputs": [
        {
          "internalType": "uint256",
          "name": "",
          "type": "uint256"
        }
      ],
      "stateMutability": "view",
      "type": "function"
    },
    {
      "inputs": [],
      "name": "getLiquidity",
      "outputs": [
        {
          "internalType": "int256",
          "name": "",
          "type": "int256"
        }
      ],
      "stateMutability": "view",
      "type": "function"
    },
    {
      "inputs": [],
      "name": "getParameters",
      "outputs": [
        {
          "internalType": "int256",
          "name": "minPoolMarginRatio",
          "type": "int256"
        },
        {
          "internalType": "int256",
          "name": "minInitialMarginRatio",
          "type": "int256"
        },
        {
          "internalType": "int256",
          "name": "minMaintenanceMarginRatio",
          "type": "int256"
        },
        {
          "internalType": "int256",
          "name": "minLiquidationReward",
          "type": "int256"
        },
        {
          "internalType": "int256",
          "name": "maxLiquidationReward",
          "type": "int256"
        },
        {
          "internalType": "int256",
          "name": "liquidationCutRatio",
          "type": "int256"
        },
        {
          "internalType": "int256",
          "name": "protocolFeeCollectRatio",
          "type": "int256"
        }
      ],
      "stateMutability": "view",
      "type": "function"
    },
    {
      "inputs": [],
      "name": "getProtocolFeeAccrued",
      "outputs": [
        {
          "internalType": "int256",
          "name": "",
          "type": "int256"
        }
      ],
      "stateMutability": "view",
      "type": "function"
    },
    {
      "inputs": [],
      "name": "getSymbol",
      "outputs": [
        {
          "components": [
            {
              "internalType": "string",
              "name": "symbol",
              "type": "string"
            },
            {
              "internalType": "int256",
              "name": "price",
              "type": "int256"
            },
            {
              "internalType": "int256",
              "name": "cumulativeFundingRate",
              "type": "int256"
            },
            {
              "internalType": "int256",
              "name": "tradersNetVolume",
              "type": "int256"
            },
            {
              "internalType": "int256",
              "name": "tradersNetCost",
              "type": "int256"
            }
          ],
          "internalType": "struct IPerpetualPoolLite.SymbolInfo",
          "name": "",
          "type": "tuple"
        }
      ],
      "stateMutability": "view",
      "type": "function"
    },
    {
      "inputs": [],
      "name": "getSymbolPriceAndMultiplier",
      "outputs": [
        {
          "internalType": "int256",
          "name": "price",
          "type": "int256"
        },
        {
          "internalType": "int256",
          "name": "multiplier",
          "type": "int256"
        }
      ],
      "stateMutability": "view",
      "type": "function"
    },
    {
      "inputs": [
        {
          "internalType": "address",
          "name": "account",
          "type": "address"
        }
      ],
      "name": "getTraderPortfolio",
      "outputs": [
        {
          "components": [
            {
              "internalType": "int256",
              "name": "volume",
              "type": "int256"
            },
            {
              "internalType": "int256",
              "name": "cost",
              "type": "int256"
            },
            {
              "internalType": "int256",
              "name": "lastCumulativeFundingRate",
              "type": "int256"
            }
          ],
          "internalType": "struct IPTokenLite.Position",
          "name": "position",
          "type": "tuple"
        },
        {
          "internalType": "int256",
          "name": "margin",
          "type": "int256"
        }
      ],
      "stateMutability": "view",
      "type": "function"
    },
    {
      "inputs": [
        {
          "internalType": "address",
          "name": "account",
          "type": "address"
        }
      ],
      "name": "liquidate",
      "outputs": [],
      "stateMutability": "nonpayable",
      "type": "function"
    },
    {
      "inputs": [
        {
          "internalType": "address",
          "name": "account",
          "type": "address"
        },
        {
          "components": [
            {
              "internalType": "uint256",
              "name": "timestamp",
              "type": "uint256"
            },
            {
              "internalType": "uint256",
              "name": "price",
              "type": "uint256"
            },
            {
              "internalType": "uint8",
              "name": "v",
              "type": "uint8"
            },
            {
              "internalType": "bytes32",
              "name": "r",
              "type": "bytes32"
            },
            {
              "internalType": "bytes32",
              "name": "s",
              "type": "bytes32"
            }
          ],
          "internalType": "struct IPerpetualPoolLite.SignedPrice",
          "name": "price",
          "type": "tuple"
        }
      ],
      "name": "liquidate",
      "outputs": [],
      "stateMutability": "nonpayable",
      "type": "function"
    },
    {
      "inputs": [
        {
          "internalType": "uint256",
          "name": "lShares",
          "type": "uint256"
        }
      ],
      "name": "removeLiquidity",
      "outputs": [],
      "stateMutability": "nonpayable",
      "type": "function"
    },
    {
      "inputs": [
        {
          "internalType": "uint256",
          "name": "lShares",
          "type": "uint256"
        },
        {
          "components": [
            {
              "internalType": "uint256",
              "name": "timestamp",
              "type": "uint256"
            },
            {
              "internalType": "uint256",
              "name": "price",
              "type": "uint256"
            },
            {
              "internalType": "uint8",
              "name": "v",
              "type": "uint8"
            },
            {
              "internalType": "bytes32",
              "name": "r",
              "type": "bytes32"
            },
            {
              "internalType": "bytes32",
              "name": "s",
              "type": "bytes32"
            }
          ],
          "internalType": "struct IPerpetualPoolLite.SignedPrice",
          "name": "price",
          "type": "tuple"
        }
      ],
      "name": "removeLiquidity",
      "outputs": [],
      "stateMutability": "nonpayable",
      "type": "function"
    },
    {
      "inputs": [
        {
          "internalType": "uint256",
          "name": "bAmount",
          "type": "uint256"
        },
        {
          "components": [
            {
              "internalType": "uint256",
              "name": "timestamp",
              "type": "uint256"
            },
            {
              "internalType": "uint256",
              "name": "price",
              "type": "uint256"
            },
            {
              "internalType": "uint8",
              "name": "v",
              "type": "uint8"
            },
            {
              "internalType": "bytes32",
              "name": "r",
              "type": "bytes32"
            },
            {
              "internalType": "bytes32",
              "name": "s",
              "type": "bytes32"
            }
          ],
          "internalType": "struct IPerpetualPoolLite.SignedPrice",
          "name": "price",
          "type": "tuple"
        }
      ],
      "name": "removeMargin",
      "outputs": [],
      "stateMutability": "nonpayable",
      "type": "function"
    },
    {
      "inputs": [
        {
          "internalType": "uint256",
          "name": "bAmount",
          "type": "uint256"
        }
      ],
      "name": "removeMargin",
      "outputs": [],
      "stateMutability": "nonpayable",
      "type": "function"
    },
    {
      "inputs": [
        {
          "internalType": "int256",
          "name": "tradeVolume",
          "type": "int256"
        }
      ],
      "name": "trade",
      "outputs": [],
      "stateMutability": "nonpayable",
      "type": "function"
    },
    {
      "inputs": [
        {
          "internalType": "int256",
          "name": "tradeVolume",
          "type": "int256"
        },
        {
          "components": [
            {
              "internalType": "uint256",
              "name": "timestamp",
              "type": "uint256"
            },
            {
              "internalType": "uint256",
              "name": "price",
              "type": "uint256"
            },
            {
              "internalType": "uint8",
              "name": "v",
              "type": "uint8"
            },
            {
              "internalType": "bytes32",
              "name": "r",
              "type": "bytes32"
            },
            {
              "internalType": "bytes32",
              "name": "s",
              "type": "bytes32"
            }
          ],
          "internalType": "struct IPerpetualPoolLite.SignedPrice",
          "name": "price",
          "type": "tuple"
        }
      ],
      "name": "trade",
      "outputs": [],
      "stateMutability": "nonpayable",
      "type": "function"
    }
  ],
  "transactionHash": "0x2868be14faed0c4ac0d39962e0d37e989753419084651a570fb0f83970f6219d",
  "args": [
    [
      "0x2EA2874aD0B92a3d929C585d718a7b90b8EC8CCE",
      "0x9984Ea1055eEb242BbEd8C08040e659a6d6Eea26",
      "0xB3A1aDbf2aA87611A7A94C5b1081654381D5db7c",
      "0x0000000000000000000000000000000000000000",
      "0x7d994063E2C98b2F49b13418Fc3FE58c45DdcC0D",
      "0x580d6ebC53BB4239f52C5E28a9c2bD037faB0089",
      "0x20991f4c1956B2CB19835a1fD8935141dA275094"
    ]
  ],
  "solcInputHash": "607a69e31484798c31354cc363f2d7ae",
  "bytecode": "0x6101806040523480156200001257600080fd5b5060405162003e0138038062003e01833981016040819052620000359162000155565b8051606090811b6001600160601b031990811660a0908152602080850151841b831660c0908152604080870151861b851660e05285870151861b8516610100526080870151861b85166101205292860151851b8416610140528501805190941b909216610160529151600080546001600160a01b0319166001600160a01b039283161790558351835163313ce56760e01b8152935191169263313ce567926004808301939192829003018186803b158015620000f057600080fd5b505afa15801562000105573d6000803e3d6000fd5b505050506040513d601f19601f820116820180604052508101906200012b9190620001e8565b60ff166080525062000228565b80516001600160a01b03811681146200015057600080fd5b919050565b600060e0828403121562000167578081fd5b82601f83011262000176578081fd5b60405160e081016001600160401b03811182821017156200019b576200019b62000212565b604052808360e08101861015620001b0578384fd5b835b6007811015620001dd57620001c78262000138565b83526020928301929190910190600101620001b2565b509195945050505050565b600060208284031215620001fa578081fd5b815160ff811681146200020b578182fd5b9392505050565b634e487b7160e01b600052604160045260246000fd5b60805160a05160601c60c05160601c60e05160601c6101005160601c6101205160601c6101405160601c6101605160601c613ad26200032f60003960006102f40152600081816102cc01526111790152600081816102a401528181610cdf0152610d0601526000818161027c01528181610568015281816105b601528181610d6e0152610dbc01526000818161025201528181610f6f015281816117fc015281816122160152612e5701526000818161022a0152818161201f01526123fe01526000818161020501528181610c1d015281816127f40152613073015260008181610bf0015281816127670152818161279501528181612f8f0152612fc00152613ad26000f3fe608060405234801561001057600080fd5b50600436106101375760003560e01c8063a39fac12116100b8578063d608c07d1161007c578063d608c07d1461038f578063de61838c14610397578063dfd19898146103aa578063f11f854f146103c7578063f12c9f0e146103da578063fcd33b511461041457600080fd5b8063a39fac12146101f7578063a43be94814610324578063a5ea11da14610337578063b5d4034514610374578063caa4b46a1461038757600080fd5b80633dc07fda116100ff5780633dc07fda1461019857806351c6590a146101ab5780635756e84c146101be57806375fe9c7f146101d15780639c8f9f23146101e457600080fd5b806307e2ee0f1461013c5780630910a5101461015357806314e841b91461015b57806315070401146101705780632f86556814610185575b600080fd5b6002545b6040519081526020015b60405180910390f35b600154610140565b61016e6101693660046134eb565b610427565b005b610178610467565b60405161014a9190613724565b61016e61019336600461342e565b610565565b61016e6101a63660046134bb565b610656565b61016e6101b93660046134bb565b6106a9565b61016e6101cc3660046134eb565b6106d3565b61016e6101df3660046134eb565b610706565b61016e6101f23660046134bb565b610739565b604080516001600160a01b037f0000000000000000000000000000000000000000000000000000000000000000811682527f0000000000000000000000000000000000000000000000000000000000000000811660208301527f00000000000000000000000000000000000000000000000000000000000000008116928201929092527f0000000000000000000000000000000000000000000000000000000000000000821660608201527f0000000000000000000000000000000000000000000000000000000000000000821660808201527f0000000000000000000000000000000000000000000000000000000000000000821660a08201527f00000000000000000000000000000000000000000000000000000000000000009190911660c082015260e00161014a565b61016e6103323660046134bb565b61078e565b61033f6107b8565b604080519788526020880196909652948601939093526060850191909152608084015260a083015260c082015260e00161014a565b61016e6103823660046134eb565b610b76565b61016e610bd4565b600354610140565b61016e6103a5366004613466565b610d6b565b6103b2610e6a565b6040805192835260208301919091520161014a565b61016e6103d53660046134bb565b610eff565b6103ed6103e836600461342e565b610f29565b6040805183518152602080850151908201529281015190830152606082015260800161014a565b61016e6104223660046134eb565b611070565b600082116104505760405162461bcd60e51b815260040161044790613643565b60405180910390fd5b610459816110c9565b6104633383611204565b5050565b6104996040518060a0016040528060608152602001600081526020016000815260200160008152602001600081525090565b60046040518060a00160405290816000820180546104b690613a06565b80601f01602080910402602001604051908101604052809291908181526020018280546104e290613a06565b801561052f5780601f106105045761010080835404028352916020019161052f565b820191906000526020600020905b81548152906001019060200180831161051257829003601f168201915b50505050508152602001600182015481526020016002820154815260200160038201548152602001600482015481525050905090565b337f00000000000000000000000000000000000000000000000000000000000000006001600160a01b0316158061063057506040516337c203bd60e21b81526001600160a01b0382811660048301527f0000000000000000000000000000000000000000000000000000000000000000169063df080ef49060240160206040518083038186803b1580156105f857600080fd5b505afa15801561060c573d6000803e3d6000fd5b505050506040513d601f19601f82011682018060405250810190610630919061349b565b61064c5760405162461bcd60e51b81526004016104479061367a565b610463818361139a565b8015801590610680575080670de0b6b3a764000061067481836137b5565b61067e91906138e2565b145b61069c5760405162461bcd60e51b815260040161044790613601565b6106a633826118cd565b50565b600081116106c95760405162461bcd60e51b815260040161044790613643565b6106a63382611fd2565b600082116106f35760405162461bcd60e51b815260040161044790613643565b6106fc816110c9565b61046333836121ba565b600082116107265760405162461bcd60e51b815260040161044790613643565b61072f816110c9565b6104633383611fd2565b600081116107845760405162461bcd60e51b815260206004820152601860248201527750657270657475616c506f6f6c3a2030206c53686172657360401b6044820152606401610447565b6106a633826123bb565b600081116107ae5760405162461bcd60e51b815260040161044790613643565b6106a633826121ba565b60008060008060008060008060009054906101000a90046001600160a01b03166001600160a01b031663c42243c16040518163ffffffff1660e01b815260040160206040518083038186803b15801561081057600080fd5b505afa158015610824573d6000803e3d6000fd5b505050506040513d601f19601f8201168201806040525081019061084891906134d3565b60008054906101000a90046001600160a01b03166001600160a01b0316638ac848ca6040518163ffffffff1660e01b815260040160206040518083038186803b15801561089457600080fd5b505afa1580156108a8573d6000803e3d6000fd5b505050506040513d601f19601f820116820180604052508101906108cc91906134d3565b60008054906101000a90046001600160a01b03166001600160a01b0316630adf8e926040518163ffffffff1660e01b815260040160206040518083038186803b15801561091857600080fd5b505afa15801561092c573d6000803e3d6000fd5b505050506040513d601f19601f8201168201806040525081019061095091906134d3565b60008054906101000a90046001600160a01b03166001600160a01b031663ddd18d306040518163ffffffff1660e01b815260040160206040518083038186803b15801561099c57600080fd5b505afa1580156109b0573d6000803e3d6000fd5b505050506040513d601f19601f820116820180604052508101906109d491906134d3565b60008054906101000a90046001600160a01b03166001600160a01b031663ab78ace46040518163ffffffff1660e01b815260040160206040518083038186803b158015610a2057600080fd5b505afa158015610a34573d6000803e3d6000fd5b505050506040513d601f19601f82011682018060405250810190610a5891906134d3565b60008054906101000a90046001600160a01b03166001600160a01b03166346d2d2d86040518163ffffffff1660e01b815260040160206040518083038186803b158015610aa457600080fd5b505afa158015610ab8573d6000803e3d6000fd5b505050506040513d601f19601f82011682018060405250810190610adc91906134d3565b60008054906101000a90046001600160a01b03166001600160a01b031663f94835646040518163ffffffff1660e01b815260040160206040518083038186803b158015610b2857600080fd5b505afa158015610b3c573d6000803e3d6000fd5b505050506040513d601f19601f82011682018060405250810190610b6091906134d3565b959d949c50929a50909850965094509092509050565b60008211610bc15760405162461bcd60e51b815260206004820152601860248201527750657270657475616c506f6f6c3a2030206c53686172657360401b6044820152606401610447565b610bca816110c9565b61046333836123bb565b6040516370a0823160e01b8152306004820152600090610c9e907f0000000000000000000000000000000000000000000000000000000000000000906012906001600160a01b037f000000000000000000000000000000000000000000000000000000000000000016906370a082319060240160206040518083038186803b158015610c5f57600080fd5b505afa158015610c73573d6000803e3d6000fd5b505050506040513d601f19601f82011682018060405250810190610c9791906134d3565b919061269e565b90506000610cad6003546126e2565b905081811115610cba5750805b610cc38161271e565b60036000828254610cd49190613984565b90915550610d0490507f00000000000000000000000000000000000000000000000000000000000000008261275d565b7f00000000000000000000000000000000000000000000000000000000000000006001600160a01b03167fdc9b9c7c232fac9d635ce55b58e41cca2c16aa6ad39a73973ce276d479ad6f2d82604051610d5f91815260200190565b60405180910390a25050565b337f00000000000000000000000000000000000000000000000000000000000000006001600160a01b03161580610e3657506040516337c203bd60e21b81526001600160a01b0382811660048301527f0000000000000000000000000000000000000000000000000000000000000000169063df080ef49060240160206040518083038186803b158015610dfe57600080fd5b505afa158015610e12573d6000803e3d6000fd5b505050506040513d601f19601f82011682018060405250810190610e36919061349b565b610e525760405162461bcd60e51b81526004016104479061367a565b610e5b826110c9565b610e65818461139a565b505050565b60008060046001015460008054906101000a90046001600160a01b03166001600160a01b031663cfcd67446040518163ffffffff1660e01b815260040160206040518083038186803b158015610ebf57600080fd5b505afa158015610ed3573d6000803e3d6000fd5b505050506040513d601f19601f82011682018060405250810190610ef791906134d3565b915091509091565b60008111610f1f5760405162461bcd60e51b815260040161044790613643565b6106a63382611204565b610f4d60405180606001604052806000815260200160008152602001600081525090565b6040516316c1973960e01b81526001600160a01b0383811660048301526000917f0000000000000000000000000000000000000000000000000000000000000000918216906316c197399060240160606040518083038186803b158015610fb357600080fd5b505afa158015610fc7573d6000803e3d6000fd5b505050506040513d601f19601f82011682018060405250810190610feb919061350e565b604051637c27c4d160e11b81526001600160a01b0386811660048301529194509082169063f84f89a29060240160206040518083038186803b15801561103057600080fd5b505afa158015611044573d6000803e3d6000fd5b505050506040513d601f19601f8201168201806040525081019061106891906134d3565b915050915091565b811580159061109a575081670de0b6b3a764000061108e81836137b5565b61109891906138e2565b145b6110b65760405162461bcd60e51b815260040161044790613601565b6110bf816110c9565b61046333836118cd565b60008054906101000a90046001600160a01b03166001600160a01b0316636bb9e4cb6040518163ffffffff1660e01b815260040160206040518083038186803b15801561111557600080fd5b505afa158015611129573d6000803e3d6000fd5b505050506040513d601f19601f8201168201806040525081019061114d919061344a565b8151602083015160408085015160608601516080870151925162da15e960e71b81526001600160a01b037f0000000000000000000000000000000000000000000000000000000000000000811660048301526024820196909652604481019490945260ff9091166064840152608483015260a4820152911690636d0af4809060c401600060405180830381600087803b1580156111e957600080fd5b505af11580156111fd573d6000803e3d6000fd5b5050505050565b60095460ff16156112275760405162461bcd60e51b815260040161044790613703565b6009805460ff1916600117905561123c612821565b505060008061124a84612c5d565b9150915060006112598461271e565b905081811261127857508061126d816126e2565b935060009150611285565b6112828183613984565b91505b60008054906101000a90046001600160a01b03166001600160a01b0316638ac848ca6040518163ffffffff1660e01b815260040160206040518083038186803b1580156112d157600080fd5b505afa1580156112e5573d6000803e3d6000fd5b505050506040513d601f19601f8201168201806040525081019061130991906134d3565b6113138484612d0e565b12156113315760405162461bcd60e51b8152600401610447906136c1565b61133c858484612e48565b611346858561275d565b846001600160a01b03167f318a9cd646c737e6331915189b674d6d06ae71b28df0f50e7a6dfe101a1293878560405161138191815260200190565b60405180910390a250506009805460ff19169055505050565b60095460ff16156113bd5760405162461bcd60e51b815260040161044790613703565b6009805460ff191660011790556113d2612821565b50506000806113e083612c5d565b9150915060008054906101000a90046001600160a01b03166001600160a01b0316630adf8e926040518163ffffffff1660e01b815260040160206040518083038186803b15801561143057600080fd5b505afa158015611444573d6000803e3d6000fd5b505050506040513d601f19601f8201168201806040525081019061146891906134d3565b6114728383612d0e565b126114bf5760405162461bcd60e51b815260206004820152601f60248201527f50657270657475616c506f6f6c3a2063616e6e6f74206c6971756964617465006044820152606401610447565b81518190156115de578251600780546000906114dc908490613984565b90915550506020830151600880546000906114f8908490613984565b925050819055508260200151670de0b6b3a764000060008054906101000a90046001600160a01b03166001600160a01b031663cfcd67446040518163ffffffff1660e01b815260040160206040518083038186803b15801561155957600080fd5b505afa15801561156d573d6000803e3d6000fd5b505050506040513d601f19601f8201168201806040525081019061159191906134d3565b6005548651670de0b6b3a7640000916115a9916138e2565b6115b391906137b5565b6115bd91906138e2565b6115c791906137b5565b6115d19190613984565b6115db9082613774565b90505b6000805460408051630ddd18d360e41b8152905183926001600160a01b03169163ddd18d30916004808301926020929190829003018186803b15801561162357600080fd5b505afa158015611637573d6000803e3d6000fd5b505050506040513d601f19601f8201168201806040525081019061165b91906134d3565b905060008060009054906101000a90046001600160a01b03166001600160a01b031663ab78ace46040518163ffffffff1660e01b815260040160206040518083038186803b1580156116ac57600080fd5b505afa1580156116c0573d6000803e3d6000fd5b505050506040513d601f19601f820116820180604052508101906116e491906134d3565b90508184136116f5578192506117bd565b808412611704578092506117bd565b81670de0b6b3a764000060008054906101000a90046001600160a01b03166001600160a01b03166346d2d2d86040518163ffffffff1660e01b815260040160206040518083038186803b15801561175a57600080fd5b505afa15801561176e573d6000803e3d6000fd5b505050506040513d601f19601f8201168201806040525081019061179291906134d3565b61179c8588613984565b6117a691906138e2565b6117b091906137b5565b6117ba9190613774565b92505b6117c78386613984565b600160008282546117d89190613774565b909155505060405163226bf2d160e21b81526001600160a01b0388811660048301527f000000000000000000000000000000000000000000000000000000000000000016906389afcb4490602401600060405180830381600087803b15801561184057600080fd5b505af1158015611854573d6000803e3d6000fd5b5050505061186a88611865856126e2565b61275d565b876001600160a01b0316876001600160a01b03167faef3faf684172084346f7dc2cc3bb1328d1cc23caec12dd9a82d4a4e56c00b176118a8866126e2565b60405190815260200160405180910390a350506009805460ff19169055505050505050565b60095460ff16156118f05760405162461bcd60e51b815260040161044790613703565b6009805460ff19166001179055600080611908612821565b9150915060008061191886612c5d565b9150915061195c6040518060e00160405280600081526020016000815260200160008152602001600081526020016000815260200160008152602001600081525090565b6007548152600554602080830191909152600054604080516333f359d160e21b815290516001600160a01b039092169263cfcd674492600483810193829003018186803b1580156119ac57600080fd5b505afa1580156119c0573d6000803e3d6000fd5b505050506040513d601f19601f820116820180604052508101906119e491906134d3565b604082018190526020820151670de0b6b3a764000091908290611a07908a6138e2565b611a1191906137b5565b611a1b91906138e2565b611a2591906137b5565b606082015260005460408051638b3415b960e01b81529051670de0b6b3a7640000926001600160a01b031691638b3415b9916004808301926020929190829003018186803b158015611a7657600080fd5b505afa158015611a8a573d6000803e3d6000fd5b505050506040513d601f19601f82011682018060405250810190611aae91906134d3565b611abb8360600151612f32565b611ac591906138e2565b611acf91906137b5565b60808201528251600013801590611ae7575060008612155b158015611b0457508251600012801590611b02575060008613155b155b15611b95576000611b188460000151612f32565b90506000611b2588612f32565b9050808213611b6257846020015181838560600151611b4491906138e2565b611b4e91906137b5565b611b589190613774565b60a0840152611b92565b826060015182828760200151611b7891906138e2565b611b8291906137b5565b611b8c9190613774565b60a08401525b50505b670de0b6b3a76400008160400151670de0b6b3a76400008360200151611bbe8560000151612f32565b8551611bd490611bcf908d90613774565b612f32565b611bde9190613984565b611be891906138e2565b611bf291906137b5565b611bfc91906138e2565b611c0691906137b5565b611c109085613774565b93508583600001818151611c249190613774565b90525060a08101516060820151611c3b9190613984565b83602001818151611c4c9190613774565b905250600654604084015260a08101516080820151611c6b9190613774565b611c759083613984565b91508560046003016000828254611c8c9190613774565b909155505060a08101516060820151611ca59190613984565b60088054600090611cb7908490613774565b909155505060005460408051633e520d5960e21b81529051670de0b6b3a7640000926001600160a01b03169163f9483564916004808301926020929190829003018186803b158015611d0857600080fd5b505afa158015611d1c573d6000803e3d6000fd5b505050506040513d601f19601f82011682018060405250810190611d4091906134d3565b8260800151611d4f91906138e2565b611d5991906137b5565b60c0820181905260038054600090611d72908490613774565b909155505060a081015160c08201516080830151611d909190613984565b611d9a9190613774565b60016000828254611dab9190613774565b9091555050831580611e5c575060008054906101000a90046001600160a01b03166001600160a01b031663c42243c16040518163ffffffff1660e01b815260040160206040518083038186803b158015611e0457600080fd5b505afa158015611e18573d6000803e3d6000fd5b505050506040513d601f19601f82011682018060405250810190611e3c91906134d3565b84611e4f670de0b6b3a7640000886138e2565b611e5991906137b5565b12155b611eb65760405162461bcd60e51b815260206004820152602560248201527f50657270657475616c506f6f6c3a20696e73756666696369656e74206c697175604482015264696469747960d81b6064820152608401610447565b60008054906101000a90046001600160a01b03166001600160a01b0316638ac848ca6040518163ffffffff1660e01b815260040160206040518083038186803b158015611f0257600080fd5b505afa158015611f16573d6000803e3d6000fd5b505050506040513d601f19601f82011682018060405250810190611f3a91906134d3565b611f448484612d0e565b1215611f625760405162461bcd60e51b8152600401610447906136c1565b611f6d878484612e48565b866001600160a01b03167fe9b9a6b9b3b7df275a3b89328628d89ee68f326bff47da3b67e7e56a5eeead9f87611fa684602001516126e2565b604080519283526020830191909152015b60405180910390a250506009805460ff191690555050505050565b60095460ff1615611ff55760405162461bcd60e51b815260040161044790613703565b6009805460ff19166001179055600061200c612821565b5090506120198383612f7f565b915060007f000000000000000000000000000000000000000000000000000000000000000090506000816001600160a01b03166318160ddd6040518163ffffffff1660e01b815260040160206040518083038186803b15801561207b57600080fd5b505afa15801561208f573d6000803e3d6000fd5b505050506040513d601f19601f820116820180604052508101906120b391906134d3565b90506000816120c35750836120e3565b6120cc846126e2565b6120d68387613965565b6120e091906137e3565b90505b6040516340c10f1960e01b81526001600160a01b038781166004830152602482018390528416906340c10f1990604401600060405180830381600087803b15801561212d57600080fd5b505af1158015612141573d6000803e3d6000fd5b5050505061214e8561271e565b6001600082825461215f9190613774565b909155505060408051828152602081018790526001600160a01b038816917f06239653922ac7bea6aa2b19dc486b9361821d37712eb796adfd38d81de278ca910160405180910390a250506009805460ff1916905550505050565b60095460ff16156121dd5760405162461bcd60e51b815260040161044790613703565b6009805460ff191660011790556121f48282612f7f565b604051637b51e92760e11b81526001600160a01b0384811660048301529192507f00000000000000000000000000000000000000000000000000000000000000009182169063f6a3d24e9060240160206040518083038186803b15801561225a57600080fd5b505afa15801561226e573d6000803e3d6000fd5b505050506040513d601f19601f82011682018060405250810190612292919061349b565b6122f2576040516335313c2160e11b81526001600160a01b038481166004830152821690636a62784290602401600060405180830381600087803b1580156122d957600080fd5b505af11580156122ed573d6000803e3d6000fd5b505050505b806001600160a01b031663ac2681c68461230b8561271e565b6040516001600160e01b031960e085901b1681526001600160a01b0390921660048301526024820152604401600060405180830381600087803b15801561235157600080fd5b505af1158015612365573d6000803e3d6000fd5b50505050826001600160a01b03167f278e696bd0cd4a7d1260ced26c40cd01c2b088f441889e4148240ac81069b348836040516123a491815260200190565b60405180910390a250506009805460ff1916905550565b60095460ff16156123de5760405162461bcd60e51b815260040161044790613703565b6009805460ff191660011790556000806123f6612821565b9150915060007f000000000000000000000000000000000000000000000000000000000000000090506000816001600160a01b03166318160ddd6040518163ffffffff1660e01b815260040160206040518083038186803b15801561245a57600080fd5b505afa15801561246e573d6000803e3d6000fd5b505050506040513d601f19601f8201168201806040525081019061249291906134d3565b90506000816124a0866126e2565b6124aa9088613965565b6124b491906137e3565b90506124bf8161271e565b600160008282546124d09190613984565b9091555050831580612595575060008054906101000a90046001600160a01b03166001600160a01b031663c42243c16040518163ffffffff1660e01b815260040160206040518083038186803b15801561252957600080fd5b505afa15801561253d573d6000803e3d6000fd5b505050506040513d601f19601f8201168201806040525081019061256191906134d3565b84670de0b6b3a76400006125748461271e565b61257e9089613984565b61258891906138e2565b61259291906137b5565b12155b6125f15760405162461bcd60e51b815260206004820152602760248201527f50657270657475616c506f6f6c3a20706f6f6c20696e73756666696369656e746044820152661036b0b933b4b760c91b6064820152608401610447565b604051632770a7eb60e21b81526001600160a01b03888116600483015260248201889052841690639dc29fac90604401600060405180830381600087803b15801561263b57600080fd5b505af115801561264f573d6000803e3d6000fd5b5050505061265d878261275d565b60408051878152602081018390526001600160a01b038916917f0fbf06c058b90cb038a618f8c2acbf6145f8b3570fd1fa56abb8f0f3f05b36e89101611fb7565b60008183146126d6576126b283600a61383a565b6126bd83600a61383a565b6126c79086613965565b6126d191906137e3565b6126d8565b835b90505b9392505050565b60008082121561271a5760405162461bcd60e51b815260206004820152600360248201526249554f60e81b6044820152606401610447565b5090565b60006001600160ff1b0382111561271a5760405162461bcd60e51b815260206004820152600360248201526255494f60e81b6044820152606401610447565b600061278b8260127f000000000000000000000000000000000000000000000000000000000000000061269e565b905060006127bb827f0000000000000000000000000000000000000000000000000000000000000000601261269e565b6127c590846139c3565b90506127d08161271e565b600360008282546127e19190613774565b9091555061281b90506001600160a01b037f0000000000000000000000000000000000000000000000000000000000000000168584612fee565b50505050565b60025460015490600090438181111561292d5760005460408051636bb9e4cb60e01b81529051612929926001600160a01b031691636bb9e4cb916004808301926020929190829003018186803b15801561287a57600080fd5b505afa15801561288e573d6000803e3d6000fd5b505050506040513d601f19601f820116820180604052508101906128b2919061344a565b6001600160a01b03166398d5fdca6040518163ffffffff1660e01b8152600401602060405180830381600087803b1580156128ec57600080fd5b505af1158015612900573d6000803e3d6000fd5b505050506040513d601f19601f8201168201806040525081019061292491906134d3565b61271e565b6005555b60075415612a245760008054604080516333f359d160e21b81529051670de0b6b3a7640000926001600160a01b03169163cfcd6744916004808301926020929190829003018186803b15801561298257600080fd5b505afa158015612996573d6000803e3d6000fd5b505050506040513d601f19601f820116820180604052508101906129ba91906134d3565b600554600754670de0b6b3a7640000916129d3916138e2565b6129dd91906137b5565b6129e791906138e2565b6129f191906137b5565b600854909150612a019082613984565b612a0b9086613984565b9450612a1681612f32565b612a209085613774565b9350505b81811115612c555760075415612c555760008054604080516373d037ff60e11b8152905187926001600160a01b03169163e7a06ffe916004808301926020929190829003018186803b158015612a7957600080fd5b505afa158015612a8d573d6000803e3d6000fd5b505050506040513d601f19601f82011682018060405250810190612ab191906134d3565b600054604080516333f359d160e21b81529051670de0b6b3a7640000926001600160a01b03169163cfcd6744916004808301926020929190829003018186803b158015612afd57600080fd5b505afa158015612b11573d6000803e3d6000fd5b505050506040513d601f19601f82011682018060405250810190612b3591906134d3565b600054604080516333f359d160e21b81529051670de0b6b3a7640000926001600160a01b03169163cfcd6744916004808301926020929190829003018186803b158015612b8157600080fd5b505afa158015612b95573d6000803e3d6000fd5b505050506040513d601f19601f82011682018060405250810190612bb991906134d3565b600554600754670de0b6b3a764000091908290612bd79083906138e2565b612be191906137b5565b612beb91906138e2565b612bf591906137b5565b612bff91906138e2565b612c0991906137b5565b612c1391906138e2565b612c1d91906137b5565b612c2791906138e2565b612c3191906137b5565b90506000612c3f84846139c3565b612c4990836138e2565b60068054909101905550505b600255509091565b612c8160405180606001604052806000815260200160008152602001600081525090565b6000612c8c83610f29565b8151919350915060009015612cde576006546040840151845190820390670de0b6b3a764000090612cbe9083906138e2565b612cc891906137b5565b612cd29084613774565b60408601929092525090505b8015612d0857612cee8183613984565b91508060016000828254612d029190613774565b90915550505b50915091565b81516000908290829015612e0c5760008054604080516333f359d160e21b81529051670de0b6b3a7640000926001600160a01b03169163cfcd6744916004808301926020929190829003018186803b158015612d6957600080fd5b505afa158015612d7d573d6000803e3d6000fd5b505050506040513d601f19601f82011682018060405250810190612da191906134d3565b6005548851670de0b6b3a764000091612db9916138e2565b612dc391906137b5565b612dcd91906138e2565b612dd791906137b5565b9050856020015181612de99190613984565b612df39084613774565b9250612dfe81612f32565b612e089083613774565b9150505b8015612e345780612e25670de0b6b3a7640000846138e2565b612e2f91906137b5565b612e3d565b6001600160ff1b035b925050505b92915050565b6040516388f74d0960e01b81527f0000000000000000000000000000000000000000000000000000000000000000906001600160a01b038216906388f74d0990612e9890879087906004016135bd565b600060405180830381600087803b158015612eb257600080fd5b505af1158015612ec6573d6000803e3d6000fd5b5050604051631a9c941f60e01b81526001600160a01b0387811660048301526024820186905284169250631a9c941f9150604401600060405180830381600087803b158015612f1457600080fd5b505af1158015612f28573d6000803e3d6000fd5b5050505050505050565b6000600160ff1b821415612f6d5760405162461bcd60e51b8152602060048201526002602482015261414f60f01b6044820152606401610447565b600082121561271a57612e4282613a41565b600080612fb88430612fb38660127f000000000000000000000000000000000000000000000000000000000000000061269e565b613051565b9050612fe6817f0000000000000000000000000000000000000000000000000000000000000000601261269e565b949350505050565b6040516001600160a01b038316602482015260448101829052610e6590849063a9059cbb60e01b906064015b60408051601f198184030181529190526020810180516001600160e01b03166001600160e01b03199093169290921790915261319d565b6040516370a0823160e01b81526001600160a01b0383811660048301526000917f0000000000000000000000000000000000000000000000000000000000000000918391908316906370a082319060240160206040518083038186803b1580156130ba57600080fd5b505afa1580156130ce573d6000803e3d6000fd5b505050506040513d601f19601f820116820180604052508101906130f291906134d3565b90506131096001600160a01b03831687878761326f565b6040516370a0823160e01b81526001600160a01b038681166004830152600091908416906370a082319060240160206040518083038186803b15801561314e57600080fd5b505afa158015613162573d6000803e3d6000fd5b505050506040513d601f19601f8201168201806040525081019061318691906134d3565b905061319282826139c3565b979650505050505050565b60006131f2826040518060400160405280602081526020017f5361666545524332303a206c6f772d6c6576656c2063616c6c206661696c6564815250856001600160a01b03166132a79092919063ffffffff16565b805190915015610e655780806020019051810190613210919061349b565b610e655760405162461bcd60e51b815260206004820152602a60248201527f5361666545524332303a204552433230206f7065726174696f6e20646964206e6044820152691bdd081cdd58d8d9595960b21b6064820152608401610447565b6040516001600160a01b038085166024830152831660448201526064810182905261281b9085906323b872dd60e01b9060840161301a565b60606126d8848460008585843b6133005760405162461bcd60e51b815260206004820152601d60248201527f416464726573733a2063616c6c20746f206e6f6e2d636f6e74726163740000006044820152606401610447565b600080866001600160a01b0316858760405161331c91906135a1565b60006040518083038185875af1925050503d8060008114613359576040519150601f19603f3d011682016040523d82523d6000602084013e61335e565b606091505b5091509150613192828286606083156133785750816126db565b8251156133885782518084602001fd5b8160405162461bcd60e51b815260040161044791906135ee565b600060a082840312156133b3578081fd5b60405160a0810181811067ffffffffffffffff821117156133e257634e487b7160e01b83526041600452602483fd5b80604052508091508235815260208301356020820152604083013560ff8116811461340c57600080fd5b8060408301525060608301356060820152608083013560808201525092915050565b60006020828403121561343f578081fd5b81356126db81613a87565b60006020828403121561345b578081fd5b81516126db81613a87565b60008060c08385031215613478578081fd5b823561348381613a87565b915061349284602085016133a2565b90509250929050565b6000602082840312156134ac578081fd5b815180151581146126db578182fd5b6000602082840312156134cc578081fd5b5035919050565b6000602082840312156134e4578081fd5b5051919050565b60008060c083850312156134fd578182fd5b8235915061349284602085016133a2565b60006060828403121561351f578081fd5b6040516060810181811067ffffffffffffffff8211171561354e57634e487b7160e01b83526041600452602483fd5b80604052508251815260208301516020820152604083015160408201528091505092915050565b6000815180845261358d8160208601602086016139da565b601f01601f19169290920160200192915050565b600082516135b38184602087016139da565b9190910192915050565b6001600160a01b0383168152608081016126db60208301848051825260208082015190830152604090810151910152565b6020815260006126db6020830184613575565b60208082526022908201527f50657270657475616c506f6f6c3a20696e76616c6964207472616465566f6c756040820152616d6560f01b606082015260800190565b60208082526018908201527f50657270657475616c506f6f6c3a20302062416d6f756e740000000000000000604082015260600190565b60208082526027908201527f50657270657475616c506f6f6c3a206e6f74207175616c6966696564206c69716040820152663ab4b230ba37b960c91b606082015260800190565b60208082526022908201527f50657270657475616c506f6f6c3a20696e73756666696369656e74206d61726760408201526134b760f11b606082015260800190565b6020808252600790820152667265656e74727960c81b604082015260600190565b602081526000825160a0602084015261374060c0840182613575565b9050602084015160408401526040840151606084015260608401516080840152608084015160a08401528091505092915050565b600080821280156001600160ff1b038490038513161561379657613796613a5b565b600160ff1b83900384128116156137af576137af613a5b565b50500190565b6000826137c4576137c4613a71565b600160ff1b8214600019841416156137de576137de613a5b565b500590565b6000826137f2576137f2613a71565b500490565b600181815b8085111561383257816000190482111561381857613818613a5b565b8085161561382557918102915b93841c93908002906137fc565b509250929050565b60006126db838360008261385057506001612e42565b8161385d57506000612e42565b8160018114613873576002811461387d57613899565b6001915050612e42565b60ff84111561388e5761388e613a5b565b50506001821b612e42565b5060208310610133831016604e8410600b84101617156138bc575081810a612e42565b6138c683836137f7565b80600019048211156138da576138da613a5b565b029392505050565b60006001600160ff1b038184138284138082168684048611161561390857613908613a5b565b600160ff1b8487128281168783058912161561392657613926613a5b565b85871292508782058712848416161561394157613941613a5b565b8785058712818416161561395757613957613a5b565b505050929093029392505050565b600081600019048311821515161561397f5761397f613a5b565b500290565b60008083128015600160ff1b8501841216156139a2576139a2613a5b565b6001600160ff1b03840183138116156139bd576139bd613a5b565b50500390565b6000828210156139d5576139d5613a5b565b500390565b60005b838110156139f55781810151838201526020016139dd565b8381111561281b5750506000910152565b600181811c90821680613a1a57607f821691505b60208210811415613a3b57634e487b7160e01b600052602260045260246000fd5b50919050565b6000600160ff1b821415613a5757613a57613a5b565b0390565b634e487b7160e01b600052601160045260246000fd5b634e487b7160e01b600052601260045260246000fd5b6001600160a01b03811681146106a657600080fdfea264697066735822122000b258287535bc1492944c6d1a57502de57f65b6fa86e750222cff3dbc12af9e64736f6c63430008040033",
  "devdoc": {
    "kind": "dev",
    "methods": {},
    "version": 1
  },
  "userdoc": {
    "kind": "user",
    "methods": {},
    "version": 1
  },
  "storageLayout": {
    "storage": [
      {
        "astId": 17134,
        "contract": "contracts/polygon/perpetual_futures/PerpetualPoolLite.sol:PerpetualPoolLite",
        "label": "_protocolParameters",
        "offset": 0,
        "slot": "0",
        "type": "t_contract(FuturesProtocolParameters)13717"
      },
      {
        "astId": 17136,
        "contract": "contracts/polygon/perpetual_futures/PerpetualPoolLite.sol:PerpetualPoolLite",
        "label": "_liquidity",
        "offset": 0,
        "slot": "1",
        "type": "t_int256"
      },
      {
        "astId": 17138,
        "contract": "contracts/polygon/perpetual_futures/PerpetualPoolLite.sol:PerpetualPoolLite",
        "label": "_lastUpdateBlock",
        "offset": 0,
        "slot": "2",
        "type": "t_uint256"
      },
      {
        "astId": 17140,
        "contract": "contracts/polygon/perpetual_futures/PerpetualPoolLite.sol:PerpetualPoolLite",
        "label": "_protocolFeeAccrued",
        "offset": 0,
        "slot": "3",
        "type": "t_int256"
      },
      {
        "astId": 17143,
        "contract": "contracts/polygon/perpetual_futures/PerpetualPoolLite.sol:PerpetualPoolLite",
        "label": "_symbol",
        "offset": 0,
        "slot": "4",
        "type": "t_struct(SymbolInfo)19810_storage"
      },
      {
        "astId": 17145,
        "contract": "contracts/polygon/perpetual_futures/PerpetualPoolLite.sol:PerpetualPoolLite",
        "label": "_mutex",
        "offset": 0,
        "slot": "9",
        "type": "t_bool"
      }
    ],
    "types": {
      "t_bool": {
        "encoding": "inplace",
        "label": "bool",
        "numberOfBytes": "1"
      },
      "t_contract(FuturesProtocolParameters)13717": {
        "encoding": "inplace",
        "label": "contract FuturesProtocolParameters",
        "numberOfBytes": "20"
      },
      "t_int256": {
        "encoding": "inplace",
        "label": "int256",
        "numberOfBytes": "32"
      },
      "t_string_storage": {
        "encoding": "bytes",
        "label": "string",
        "numberOfBytes": "32"
      },
      "t_struct(SymbolInfo)19810_storage": {
        "encoding": "inplace",
        "label": "struct IPerpetualPoolLite.SymbolInfo",
        "members": [
          {
            "astId": 19801,
            "contract": "contracts/polygon/perpetual_futures/PerpetualPoolLite.sol:PerpetualPoolLite",
            "label": "symbol",
            "offset": 0,
            "slot": "0",
            "type": "t_string_storage"
          },
          {
            "astId": 19803,
            "contract": "contracts/polygon/perpetual_futures/PerpetualPoolLite.sol:PerpetualPoolLite",
            "label": "price",
            "offset": 0,
            "slot": "1",
            "type": "t_int256"
          },
          {
            "astId": 19805,
            "contract": "contracts/polygon/perpetual_futures/PerpetualPoolLite.sol:PerpetualPoolLite",
            "label": "cumulativeFundingRate",
            "offset": 0,
            "slot": "2",
            "type": "t_int256"
          },
          {
            "astId": 19807,
            "contract": "contracts/polygon/perpetual_futures/PerpetualPoolLite.sol:PerpetualPoolLite",
            "label": "tradersNetVolume",
            "offset": 0,
            "slot": "3",
            "type": "t_int256"
          },
          {
            "astId": 19809,
            "contract": "contracts/polygon/perpetual_futures/PerpetualPoolLite.sol:PerpetualPoolLite",
            "label": "tradersNetCost",
            "offset": 0,
            "slot": "4",
            "type": "t_int256"
          }
        ],
        "numberOfBytes": "160"
      },
      "t_uint256": {
        "encoding": "inplace",
        "label": "uint256",
        "numberOfBytes": "32"
      }
    }
  }
}