{
  "address": "0xf54b33438D65aae5A6c619FF30498d329fC2D955",
  "abi": [
    {
      "inputs": [
        {
          "internalType": "address[2]",
          "name": "addresses",
          "type": "address[2]"
        }
      ],
      "stateMutability": "nonpayable",
      "type": "constructor"
    },
    {
      "anonymous": false,
      "inputs": [
        {
          "indexed": true,
          "internalType": "address",
          "name": "account",
          "type": "address"
        },
        {
          "indexed": false,
          "internalType": "uint256",
          "name": "lShares",
          "type": "uint256"
        },
        {
          "indexed": false,
          "internalType": "uint256",
          "name": "bAmount",
          "type": "uint256"
        }
      ],
      "name": "AddLiquidity",
      "type": "event"
    },
    {
      "anonymous": false,
      "inputs": [
        {
          "indexed": true,
          "internalType": "address",
          "name": "account",
          "type": "address"
        },
        {
          "indexed": false,
          "internalType": "uint256",
          "name": "bAmount",
          "type": "uint256"
        }
      ],
      "name": "AddMargin",
      "type": "event"
    },
    {
      "anonymous": false,
      "inputs": [
        {
          "indexed": true,
          "internalType": "address",
          "name": "account",
          "type": "address"
        },
        {
          "indexed": true,
          "internalType": "address",
          "name": "liquidator",
          "type": "address"
        },
        {
          "indexed": false,
          "internalType": "uint256",
          "name": "reward",
          "type": "uint256"
        }
      ],
      "name": "Liquidate",
      "type": "event"
    },
    {
      "anonymous": false,
      "inputs": [
        {
          "indexed": true,
          "internalType": "address",
          "name": "collector",
          "type": "address"
        },
        {
          "indexed": false,
          "internalType": "uint256",
          "name": "amount",
          "type": "uint256"
        }
      ],
      "name": "ProtocolFeeCollection",
      "type": "event"
    },
    {
      "anonymous": false,
      "inputs": [
        {
          "indexed": true,
          "internalType": "address",
          "name": "account",
          "type": "address"
        },
        {
          "indexed": false,
          "internalType": "uint256",
          "name": "lShares",
          "type": "uint256"
        },
        {
          "indexed": false,
          "internalType": "uint256",
          "name": "bAmount",
          "type": "uint256"
        }
      ],
      "name": "RemoveLiquidity",
      "type": "event"
    },
    {
      "anonymous": false,
      "inputs": [
        {
          "indexed": true,
          "internalType": "address",
          "name": "account",
          "type": "address"
        },
        {
          "indexed": false,
          "internalType": "uint256",
          "name": "bAmount",
          "type": "uint256"
        }
      ],
      "name": "RemoveMargin",
      "type": "event"
    },
    {
      "anonymous": false,
      "inputs": [
        {
          "indexed": true,
          "internalType": "address",
          "name": "account",
          "type": "address"
        },
        {
          "indexed": false,
          "internalType": "int256",
          "name": "tradeVolume",
          "type": "int256"
        },
        {
          "indexed": false,
          "internalType": "uint256",
          "name": "price",
          "type": "uint256"
        }
      ],
      "name": "Trade",
      "type": "event"
    },
    {
      "inputs": [
        {
          "internalType": "uint256",
          "name": "bAmount",
          "type": "uint256"
        }
      ],
      "name": "addLiquidity",
      "outputs": [],
      "stateMutability": "nonpayable",
      "type": "function"
    },
    {
      "inputs": [
        {
          "internalType": "uint256",
          "name": "bAmount",
          "type": "uint256"
        },
        {
          "components": [
            {
              "internalType": "uint256",
              "name": "timestamp",
              "type": "uint256"
            },
            {
              "internalType": "uint256",
              "name": "price",
              "type": "uint256"
            },
            {
              "internalType": "uint8",
              "name": "v",
              "type": "uint8"
            },
            {
              "internalType": "bytes32",
              "name": "r",
              "type": "bytes32"
            },
            {
              "internalType": "bytes32",
              "name": "s",
              "type": "bytes32"
            }
          ],
          "internalType": "struct IPerpetualPoolLite.SignedPrice",
          "name": "price",
          "type": "tuple"
        }
      ],
      "name": "addLiquidity",
      "outputs": [],
      "stateMutability": "nonpayable",
      "type": "function"
    },
    {
      "inputs": [
        {
          "internalType": "uint256",
          "name": "bAmount",
          "type": "uint256"
        }
      ],
      "name": "addLiquidityGetlShares",
      "outputs": [
        {
          "internalType": "uint256",
          "name": "",
          "type": "uint256"
        }
      ],
      "stateMutability": "nonpayable",
      "type": "function"
    },
    {
      "inputs": [
        {
          "internalType": "uint256",
          "name": "bAmount",
          "type": "uint256"
        },
        {
          "components": [
            {
              "internalType": "uint256",
              "name": "timestamp",
              "type": "uint256"
            },
            {
              "internalType": "uint256",
              "name": "price",
              "type": "uint256"
            },
            {
              "internalType": "uint8",
              "name": "v",
              "type": "uint8"
            },
            {
              "internalType": "bytes32",
              "name": "r",
              "type": "bytes32"
            },
            {
              "internalType": "bytes32",
              "name": "s",
              "type": "bytes32"
            }
          ],
          "internalType": "struct IPerpetualPoolLite.SignedPrice",
          "name": "price",
          "type": "tuple"
        }
      ],
      "name": "addMargin",
      "outputs": [],
      "stateMutability": "nonpayable",
      "type": "function"
    },
    {
      "inputs": [
        {
          "internalType": "uint256",
          "name": "bAmount",
          "type": "uint256"
        }
      ],
      "name": "addMargin",
      "outputs": [],
      "stateMutability": "nonpayable",
      "type": "function"
    },
    {
      "inputs": [],
      "name": "collectProtocolFee",
      "outputs": [],
      "stateMutability": "nonpayable",
      "type": "function"
    },
    {
      "inputs": [],
      "name": "getAddresses",
      "outputs": [
        {
          "internalType": "address",
          "name": "bTokenAddress",
          "type": "address"
        },
        {
          "internalType": "address",
          "name": "lTokenAddress",
          "type": "address"
        },
        {
          "internalType": "address",
          "name": "pTokenAddress",
          "type": "address"
        },
        {
          "internalType": "address",
          "name": "liquidatorQualifierAddress",
          "type": "address"
        },
        {
          "internalType": "address",
          "name": "protocolFeeCollector",
          "type": "address"
        },
        {
          "internalType": "address",
          "name": "underlyingAddress",
          "type": "address"
        },
        {
          "internalType": "address",
          "name": "protocolAddress",
          "type": "address"
        }
      ],
      "stateMutability": "view",
      "type": "function"
    },
    {
      "inputs": [],
      "name": "getFundingRates",
      "outputs": [
        {
          "internalType": "int256",
          "name": "totalDynamicEquity",
          "type": "int256"
        },
        {
          "internalType": "int256",
          "name": "totalAbsCost",
          "type": "int256"
        },
        {
          "internalType": "int256",
          "name": "cumulativeFundingRate",
          "type": "int256"
        }
      ],
      "stateMutability": "view",
      "type": "function"
    },
    {
      "inputs": [],
      "name": "getLastUpdateBlock",
      "outputs": [
        {
          "internalType": "uint256",
          "name": "",
          "type": "uint256"
        }
      ],
      "stateMutability": "view",
      "type": "function"
    },
    {
      "inputs": [],
      "name": "getLiquidity",
      "outputs": [
        {
          "internalType": "int256",
          "name": "",
          "type": "int256"
        }
      ],
      "stateMutability": "view",
      "type": "function"
    },
    {
      "inputs": [],
      "name": "getParameters",
      "outputs": [
        {
          "internalType": "int256",
          "name": "minPoolMarginRatio",
          "type": "int256"
        },
        {
          "internalType": "int256",
          "name": "minInitialMarginRatio",
          "type": "int256"
        },
        {
          "internalType": "int256",
          "name": "minMaintenanceMarginRatio",
          "type": "int256"
        },
        {
          "internalType": "int256",
          "name": "minLiquidationReward",
          "type": "int256"
        },
        {
          "internalType": "int256",
          "name": "maxLiquidationReward",
          "type": "int256"
        },
        {
          "internalType": "int256",
          "name": "liquidationCutRatio",
          "type": "int256"
        },
        {
          "internalType": "int256",
          "name": "protocolFeeCollectRatio",
          "type": "int256"
        }
      ],
      "stateMutability": "view",
      "type": "function"
    },
    {
      "inputs": [],
      "name": "getProtocolFeeAccrued",
      "outputs": [
        {
          "internalType": "int256",
          "name": "",
          "type": "int256"
        }
      ],
      "stateMutability": "view",
      "type": "function"
    },
    {
      "inputs": [],
      "name": "getSymbol",
      "outputs": [
        {
          "components": [
            {
              "internalType": "int256",
              "name": "price",
              "type": "int256"
            },
            {
              "internalType": "int256",
              "name": "cumulativeFundingRate",
              "type": "int256"
            },
            {
              "internalType": "int256",
              "name": "tradersNetVolume",
              "type": "int256"
            },
            {
              "internalType": "int256",
              "name": "tradersNetCost",
              "type": "int256"
            }
          ],
          "internalType": "struct IPerpetualPoolLite.SymbolInfo",
          "name": "",
          "type": "tuple"
        }
      ],
      "stateMutability": "view",
      "type": "function"
    },
    {
      "inputs": [],
      "name": "getSymbolPriceAndMultiplier",
      "outputs": [
        {
          "internalType": "int256",
          "name": "price",
          "type": "int256"
        },
        {
          "internalType": "int256",
          "name": "multiplier",
          "type": "int256"
        }
      ],
      "stateMutability": "view",
      "type": "function"
    },
    {
      "inputs": [
        {
          "internalType": "address",
          "name": "account",
          "type": "address"
        }
      ],
      "name": "getTraderPortfolio",
      "outputs": [
        {
          "components": [
            {
              "internalType": "int256",
              "name": "volume",
              "type": "int256"
            },
            {
              "internalType": "int256",
              "name": "cost",
              "type": "int256"
            },
            {
              "internalType": "int256",
              "name": "lastCumulativeFundingRate",
              "type": "int256"
            }
          ],
          "internalType": "struct IPTokenLite.Position",
          "name": "position",
          "type": "tuple"
        },
        {
          "internalType": "int256",
          "name": "margin",
          "type": "int256"
        }
      ],
      "stateMutability": "view",
      "type": "function"
    },
    {
      "inputs": [
        {
          "internalType": "address[6]",
          "name": "addresses",
          "type": "address[6]"
        }
      ],
      "name": "initialize",
      "outputs": [],
      "stateMutability": "nonpayable",
      "type": "function"
    },
    {
      "inputs": [
        {
          "internalType": "address",
          "name": "account",
          "type": "address"
        }
      ],
      "name": "liquidate",
      "outputs": [],
      "stateMutability": "nonpayable",
      "type": "function"
    },
    {
      "inputs": [
        {
          "internalType": "address",
          "name": "account",
          "type": "address"
        },
        {
          "components": [
            {
              "internalType": "uint256",
              "name": "timestamp",
              "type": "uint256"
            },
            {
              "internalType": "uint256",
              "name": "price",
              "type": "uint256"
            },
            {
              "internalType": "uint8",
              "name": "v",
              "type": "uint8"
            },
            {
              "internalType": "bytes32",
              "name": "r",
              "type": "bytes32"
            },
            {
              "internalType": "bytes32",
              "name": "s",
              "type": "bytes32"
            }
          ],
          "internalType": "struct IPerpetualPoolLite.SignedPrice",
          "name": "price",
          "type": "tuple"
        }
      ],
      "name": "liquidate",
      "outputs": [],
      "stateMutability": "nonpayable",
      "type": "function"
    },
    {
      "inputs": [
        {
          "internalType": "uint256",
          "name": "lShares",
          "type": "uint256"
        }
      ],
      "name": "removeLiquidity",
      "outputs": [],
      "stateMutability": "nonpayable",
      "type": "function"
    },
    {
      "inputs": [
        {
          "internalType": "uint256",
          "name": "lShares",
          "type": "uint256"
        },
        {
          "components": [
            {
              "internalType": "uint256",
              "name": "timestamp",
              "type": "uint256"
            },
            {
              "internalType": "uint256",
              "name": "price",
              "type": "uint256"
            },
            {
              "internalType": "uint8",
              "name": "v",
              "type": "uint8"
            },
            {
              "internalType": "bytes32",
              "name": "r",
              "type": "bytes32"
            },
            {
              "internalType": "bytes32",
              "name": "s",
              "type": "bytes32"
            }
          ],
          "internalType": "struct IPerpetualPoolLite.SignedPrice",
          "name": "price",
          "type": "tuple"
        }
      ],
      "name": "removeLiquidity",
      "outputs": [],
      "stateMutability": "nonpayable",
      "type": "function"
    },
    {
      "inputs": [
        {
          "internalType": "uint256",
          "name": "bAmount",
          "type": "uint256"
        },
        {
          "components": [
            {
              "internalType": "uint256",
              "name": "timestamp",
              "type": "uint256"
            },
            {
              "internalType": "uint256",
              "name": "price",
              "type": "uint256"
            },
            {
              "internalType": "uint8",
              "name": "v",
              "type": "uint8"
            },
            {
              "internalType": "bytes32",
              "name": "r",
              "type": "bytes32"
            },
            {
              "internalType": "bytes32",
              "name": "s",
              "type": "bytes32"
            }
          ],
          "internalType": "struct IPerpetualPoolLite.SignedPrice",
          "name": "price",
          "type": "tuple"
        }
      ],
      "name": "removeMargin",
      "outputs": [],
      "stateMutability": "nonpayable",
      "type": "function"
    },
    {
      "inputs": [
        {
          "internalType": "uint256",
          "name": "bAmount",
          "type": "uint256"
        }
      ],
      "name": "removeMargin",
      "outputs": [],
      "stateMutability": "nonpayable",
      "type": "function"
    },
    {
      "inputs": [
        {
          "internalType": "int256",
          "name": "tradeVolume",
          "type": "int256"
        }
      ],
      "name": "trade",
      "outputs": [],
      "stateMutability": "nonpayable",
      "type": "function"
    },
    {
      "inputs": [
        {
          "internalType": "int256",
          "name": "tradeVolume",
          "type": "int256"
        },
        {
          "components": [
            {
              "internalType": "uint256",
              "name": "timestamp",
              "type": "uint256"
            },
            {
              "internalType": "uint256",
              "name": "price",
              "type": "uint256"
            },
            {
              "internalType": "uint8",
              "name": "v",
              "type": "uint8"
            },
            {
              "internalType": "bytes32",
              "name": "r",
              "type": "bytes32"
            },
            {
              "internalType": "bytes32",
              "name": "s",
              "type": "bytes32"
            }
          ],
          "internalType": "struct IPerpetualPoolLite.SignedPrice",
          "name": "price",
          "type": "tuple"
        }
      ],
      "name": "trade",
      "outputs": [],
      "stateMutability": "nonpayable",
      "type": "function"
    }
  ],
  "transactionHash": "0x56b938c14e7515ee524a1db39663605e34a2864c137a7a1d9673a1d5a184f310",
  "args": [
    [
      "0xd2eF1D66CFffA4eF57362b69926281cE56dF74e2",
      "0x261Cd34ED028B5dbe7E1d9dA8dA83Bf092174B13"
    ]
  ],
  "solcInputHash": "0cc6fa82c0eeb27ece16b294b847bb89",
  "bytecode": "0x60c06040523480156200001157600080fd5b506040516200413338038062004133833981016040819052620000349162000074565b80516001600160601b0319606091821b81166080529151901b1660a0526200011f565b80516001600160a01b03811681146200006f57600080fd5b919050565b60006040828403121562000086578081fd5b82601f83011262000095578081fd5b604080519081016001600160401b0381118282101715620000ba57620000ba62000109565b8060405250808385604086011115620000d1578384fd5b835b6002811015620000fe57620000e88262000057565b83526020928301929190910190600101620000d3565b509195945050505050565b634e487b7160e01b600052604160045260246000fd5b60805160601c60a05160601c613f166200021d600039600081816106690152818161077601528181610810015281816108aa01528181610be701528181610c7801528181610d0901528181610d9a01528181610e2b01528181610ebc01528181610f4d015281816112420152818161148c01528181611639015281816117a5015281816118db015281816119bc01528181611a5101528181611b0c01528181611d7601528181611e45015281816120ef015281816121f801528181612303015281816129aa01528181612cc501528181612de401528181612ef201528181612f8c015281816130260152613225015260006102d40152613f166000f3fe608060405234801561001057600080fd5b50600436106101585760003560e01c80639c8f9f23116100c3578063d608c07d1161007c578063d608c07d1461036e578063de61838c14610376578063dfd1989814610389578063f11f854f146103a6578063f12c9f0e146103b9578063fcd33b51146103f357600080fd5b80639c8f9f2314610274578063a39fac1214610287578063a43be94814610303578063a5ea11da14610316578063b5d4034514610353578063caa4b46a1461036657600080fd5b806351c6590a1161011557806351c6590a146101f25780635756e84c146102055780636cd32dbe1461021857806371ffb8cb1461022b57806375fe9c7f1461024e5780637a2e87aa1461026157600080fd5b806307e2ee0f1461015d5780630910a5101461017457806314e841b91461017c57806315070401146101915780632f865568146101cc5780633dc07fda146101df575b600080fd5b6009545b6040519081526020015b60405180910390f35b600854610161565b61018f61018a3660046139bc565b610406565b005b610199610446565b60405161016b91908151815260208083015190820152604080830151908201526060918201519181019190915260800190565b61018f6101da366004613873565b61049e565b61018f6101ed36600461398c565b610556565b61018f61020036600461398c565b6105a9565b61018f6102133660046139bc565b6105da565b61016161022636600461398c565b61060d565b610233610641565b6040805193845260208401929092529082015260600161016b565b61018f61025c3660046139bc565b6109ed565b61018f61026f3660046138e0565b610a20565b61018f61028236600461398c565b610b5b565b600254600354600454600554600654600754604080516001600160a01b039788168152958716602087015293861693850193909352908416606084015283166080830152821660a08201527f000000000000000000000000000000000000000000000000000000000000000090911660c082015260e00161016b565b61018f61031136600461398c565b610bb0565b61031e610bda565b604080519788526020880196909652948601939093526060850191909152608084015260a083015260c082015260e00161016b565b61018f6103613660046139bc565b610ff2565b61018f611050565b600a54610161565b61018f6103843660046138ab565b611176565b610391611237565b6040805192835260208301919091520161016b565b61018f6103b436600461398c565b6112d9565b6103cc6103c7366004613873565b611303565b6040805183518152602080850151908201529281015190830152606082015260800161016b565b61018f6104013660046139bc565b611431565b6000821161042f5760405162461bcd60e51b815260040161042690613afc565b60405180910390fd5b6104388161148a565b61044233836115b6565b5050565b6104716040518060800160405280600081526020016000815260200160008152602001600081525090565b5060408051608081018252600b548152600c546020820152600d5491810191909152600e54606082015290565b60055433906001600160a01b0316158061053057506005546040516337c203bd60e21b81526001600160a01b0383811660048301529091169063df080ef49060240160206040518083038186803b1580156104f857600080fd5b505afa15801561050c573d6000803e3d6000fd5b505050506040513d601f19601f82011682018060405250810190610530919061396c565b61054c5760405162461bcd60e51b815260040161042690613b33565b6104428183611759565b8015801590610580575080670de0b6b3a76400006105748183613c1e565b61057e9190613d4b565b145b61059c5760405162461bcd60e51b815260040161042690613aba565b6105a63382611cbc565b50565b600081116105c95760405162461bcd60e51b815260040161042690613afc565b60006105d5338361242a565b505050565b600082116105fa5760405162461bcd60e51b815260040161042690613afc565b6106038161148a565b610442338361260c565b600080821161062e5760405162461bcd60e51b815260040161042690613afc565b600061063a338461242a565b9392505050565b600954600b54600854600d549092600092839243919015610761576000670de0b6b3a76400007f00000000000000000000000000000000000000000000000000000000000000006001600160a01b031663cfcd67446040518163ffffffff1660e01b815260040160206040518083038186803b1580156106c057600080fd5b505afa1580156106d4573d6000803e3d6000fd5b505050506040513d601f19601f820116820180604052508101906106f891906139a4565b600d54670de0b6b3a764000090610710908690613d4b565b61071a9190613c1e565b6107249190613d4b565b61072e9190613c1e565b600e5490915061073e9082613ded565b6107489088613ded565b9650610753816127f2565b61075d9087613bdd565b9550505b828211156109e557600d54156109e5576000867f00000000000000000000000000000000000000000000000000000000000000006001600160a01b031663e7a06ffe6040518163ffffffff1660e01b815260040160206040518083038186803b1580156107cd57600080fd5b505afa1580156107e1573d6000803e3d6000fd5b505050506040513d601f19601f8201168201806040525081019061080591906139a4565b670de0b6b3a76400007f00000000000000000000000000000000000000000000000000000000000000006001600160a01b031663cfcd67446040518163ffffffff1660e01b815260040160206040518083038186803b15801561086757600080fd5b505afa15801561087b573d6000803e3d6000fd5b505050506040513d601f19601f8201168201806040525081019061089f91906139a4565b670de0b6b3a76400007f00000000000000000000000000000000000000000000000000000000000000006001600160a01b031663cfcd67446040518163ffffffff1660e01b815260040160206040518083038186803b15801561090157600080fd5b505afa158015610915573d6000803e3d6000fd5b505050506040513d601f19601f8201168201806040525081019061093991906139a4565b670de0b6b3a764000088670de0b6b3a76400008a600b6002015461095d9190613d4b565b6109679190613c1e565b6109719190613d4b565b61097b9190613c1e565b6109859190613d4b565b61098f9190613c1e565b6109999190613d4b565b6109a39190613c1e565b6109ad9190613d4b565b6109b79190613c1e565b905060006109c58585613e2c565b6109cf9083613d4b565b600c549091506109e0908290613bdd565b955050505b505050909192565b60008211610a0d5760405162461bcd60e51b815260040161042690613afc565b610a168161148a565b6105d5338361242a565b600054610100900460ff1680610a39575060005460ff16155b610a9c5760405162461bcd60e51b815260206004820152602e60248201527f496e697469616c697a61626c653a20636f6e747261637420697320616c72656160448201526d191e481a5b9a5d1a585b1a5e995960921b6064820152608401610426565b600054610100900460ff16158015610abe576000805461ffff19166101011790555b8151600280546001600160a01b03199081166001600160a01b0393841617909155602084015160038054831691841691909117905560408401516004805483169184169190911790556060840151600580548316918416919091179055608084015160068054831691841691909117815560a08501516007805490931693169290921790556001558015610442576000805461ff00191690555050565b60008111610ba65760405162461bcd60e51b815260206004820152601860248201527750657270657475616c506f6f6c3a2030206c53686172657360401b6044820152606401610426565b6105a6338261284c565b60008111610bd05760405162461bcd60e51b815260040161042690613afc565b6105a6338261260c565b60008060008060008060007f00000000000000000000000000000000000000000000000000000000000000006001600160a01b031663c42243c16040518163ffffffff1660e01b815260040160206040518083038186803b158015610c3e57600080fd5b505afa158015610c52573d6000803e3d6000fd5b505050506040513d601f19601f82011682018060405250810190610c7691906139a4565b7f00000000000000000000000000000000000000000000000000000000000000006001600160a01b0316638ac848ca6040518163ffffffff1660e01b815260040160206040518083038186803b158015610ccf57600080fd5b505afa158015610ce3573d6000803e3d6000fd5b505050506040513d601f19601f82011682018060405250810190610d0791906139a4565b7f00000000000000000000000000000000000000000000000000000000000000006001600160a01b0316630adf8e926040518163ffffffff1660e01b815260040160206040518083038186803b158015610d6057600080fd5b505afa158015610d74573d6000803e3d6000fd5b505050506040513d601f19601f82011682018060405250810190610d9891906139a4565b7f00000000000000000000000000000000000000000000000000000000000000006001600160a01b031663ddd18d306040518163ffffffff1660e01b815260040160206040518083038186803b158015610df157600080fd5b505afa158015610e05573d6000803e3d6000fd5b505050506040513d601f19601f82011682018060405250810190610e2991906139a4565b7f00000000000000000000000000000000000000000000000000000000000000006001600160a01b031663ab78ace46040518163ffffffff1660e01b815260040160206040518083038186803b158015610e8257600080fd5b505afa158015610e96573d6000803e3d6000fd5b505050506040513d601f19601f82011682018060405250810190610eba91906139a4565b7f00000000000000000000000000000000000000000000000000000000000000006001600160a01b03166346d2d2d86040518163ffffffff1660e01b815260040160206040518083038186803b158015610f1357600080fd5b505afa158015610f27573d6000803e3d6000fd5b505050506040513d601f19601f82011682018060405250810190610f4b91906139a4565b7f00000000000000000000000000000000000000000000000000000000000000006001600160a01b031663f94835646040518163ffffffff1660e01b815260040160206040518083038186803b158015610fa457600080fd5b505afa158015610fb8573d6000803e3d6000fd5b505050506040513d601f19601f82011682018060405250810190610fdc91906139a4565b959d949c50929a50909850965094509092509050565b6000821161103d5760405162461bcd60e51b815260206004820152601860248201527750657270657475616c506f6f6c3a2030206c53686172657360401b6044820152606401610426565b6110468161148a565b610442338361284c565b6001546002546040516370a0823160e01b81523060048201526000926110df9290916012916001600160a01b0316906370a082319060240160206040518083038186803b1580156110a057600080fd5b505afa1580156110b4573d6000803e3d6000fd5b505050506040513d601f19601f820116820180604052508101906110d891906139a4565b9190612b76565b905060006110ee600a54612bb8565b9050818111156110fb5750805b61110481612bf0565b600a60008282546111159190613ded565b9091555050600654611130906001600160a01b031682612c2f565b6006546040518281526001600160a01b03909116907fdc9b9c7c232fac9d635ce55b58e41cca2c16aa6ad39a73973ce276d479ad6f2d9060200160405180910390a25050565b60055433906001600160a01b0316158061120857506005546040516337c203bd60e21b81526001600160a01b0383811660048301529091169063df080ef49060240160206040518083038186803b1580156111d057600080fd5b505afa1580156111e4573d6000803e3d6000fd5b505050506040513d601f19601f82011682018060405250810190611208919061396c565b6112245760405162461bcd60e51b815260040161042690613b33565b61122d8261148a565b6105d58184611759565b600080600b600001547f00000000000000000000000000000000000000000000000000000000000000006001600160a01b031663cfcd67446040518163ffffffff1660e01b815260040160206040518083038186803b15801561129957600080fd5b505afa1580156112ad573d6000803e3d6000fd5b505050506040513d601f19601f820116820180604052508101906112d191906139a4565b915091509091565b600081116112f95760405162461bcd60e51b815260040161042690613afc565b6105a633826115b6565b61132760405180606001604052806000815260200160008152602001600081525090565b600480546040516316c1973960e01b81526001600160a01b03858116938201939093526000929091169081906316c197399060240160606040518083038186803b15801561137457600080fd5b505afa158015611388573d6000803e3d6000fd5b505050506040513d601f19601f820116820180604052508101906113ac91906139df565b604051637c27c4d160e11b81526001600160a01b0386811660048301529194509082169063f84f89a29060240160206040518083038186803b1580156113f157600080fd5b505afa158015611405573d6000803e3d6000fd5b505050506040513d601f19601f8201168201806040525081019061142991906139a4565b915050915091565b811580159061145b575081670de0b6b3a764000061144f8183613c1e565b6114599190613d4b565b145b6114775760405162461bcd60e51b815260040161042690613aba565b6114808161148a565b6104423383611cbc565b7f00000000000000000000000000000000000000000000000000000000000000006001600160a01b0316636bb9e4cb6040518163ffffffff1660e01b815260040160206040518083038186803b1580156114e357600080fd5b505afa1580156114f7573d6000803e3d6000fd5b505050506040513d601f19601f8201168201806040525081019061151b919061388f565b6007548251602084015160408086015160608701516080880151925162da15e960e71b81526001600160a01b0396871660048201526024810195909552604485019390935260ff166064840152608483019190915260a4820152911690636d0af4809060c401600060405180830381600087803b15801561159b57600080fd5b505af11580156115af573d6000803e3d6000fd5b5050505050565b600f5460ff16156115d95760405162461bcd60e51b815260040161042690613bbc565b600f805460ff191660011790556115ee612cad565b50506000806115fc84613159565b91509150600061160b84612bf0565b905081811261162a57508061161f81612bb8565b935060009150611637565b6116348183613ded565b91505b7f00000000000000000000000000000000000000000000000000000000000000006001600160a01b0316638ac848ca6040518163ffffffff1660e01b815260040160206040518083038186803b15801561169057600080fd5b505afa1580156116a4573d6000803e3d6000fd5b505050506040513d601f19601f820116820180604052508101906116c891906139a4565b6116d2848461320a565b12156116f05760405162461bcd60e51b815260040161042690613b7a565b6116fb858484613359565b6117058585612c2f565b846001600160a01b03167f318a9cd646c737e6331915189b674d6d06ae71b28df0f50e7a6dfe101a1293878560405161174091815260200190565b60405180910390a25050600f805460ff19169055505050565b600f5460ff161561177c5760405162461bcd60e51b815260040161042690613bbc565b600f805460ff19166001179055611791612cad565b505060008061179f83613159565b915091507f00000000000000000000000000000000000000000000000000000000000000006001600160a01b0316630adf8e926040518163ffffffff1660e01b815260040160206040518083038186803b1580156117fc57600080fd5b505afa158015611810573d6000803e3d6000fd5b505050506040513d601f19601f8201168201806040525081019061183491906139a4565b61183e838361320a565b1261188b5760405162461bcd60e51b815260206004820152601f60248201527f50657270657475616c506f6f6c3a2063616e6e6f74206c6971756964617465006044820152606401610426565b81518190156119b7578251600d80546000906118a8908490613ded565b90915550506020830151600e80546000906118c4908490613ded565b925050819055508260200151670de0b6b3a76400007f00000000000000000000000000000000000000000000000000000000000000006001600160a01b031663cfcd67446040518163ffffffff1660e01b815260040160206040518083038186803b15801561193257600080fd5b505afa158015611946573d6000803e3d6000fd5b505050506040513d601f19601f8201168201806040525081019061196a91906139a4565b600b548651670de0b6b3a76400009161198291613d4b565b61198c9190613c1e565b6119969190613d4b565b6119a09190613c1e565b6119aa9190613ded565b6119b49082613bdd565b90505b6000807f00000000000000000000000000000000000000000000000000000000000000006001600160a01b031663ddd18d306040518163ffffffff1660e01b815260040160206040518083038186803b158015611a1357600080fd5b505afa158015611a27573d6000803e3d6000fd5b505050506040513d601f19601f82011682018060405250810190611a4b91906139a4565b905060007f00000000000000000000000000000000000000000000000000000000000000006001600160a01b031663ab78ace46040518163ffffffff1660e01b815260040160206040518083038186803b158015611aa857600080fd5b505afa158015611abc573d6000803e3d6000fd5b505050506040513d601f19601f82011682018060405250810190611ae091906139a4565b9050818413611af157819250611bc6565b808412611b0057809250611bc6565b81670de0b6b3a76400007f00000000000000000000000000000000000000000000000000000000000000006001600160a01b03166346d2d2d86040518163ffffffff1660e01b815260040160206040518083038186803b158015611b6357600080fd5b505afa158015611b77573d6000803e3d6000fd5b505050506040513d601f19601f82011682018060405250810190611b9b91906139a4565b611ba58588613ded565b611baf9190613d4b565b611bb99190613c1e565b611bc39190613bdd565b92505b611bd08386613ded565b60086000828254611be19190613bdd565b90915550506004805460405163226bf2d160e21b81526001600160a01b038a8116938201939093529116906389afcb4490602401600060405180830381600087803b158015611c2f57600080fd5b505af1158015611c43573d6000803e3d6000fd5b50505050611c5988611c5485612bb8565b612c2f565b876001600160a01b0316876001600160a01b03167faef3faf684172084346f7dc2cc3bb1328d1cc23caec12dd9a82d4a4e56c00b17611c9786612bb8565b60405190815260200160405180910390a35050600f805460ff19169055505050505050565b600f5460ff1615611cdf5760405162461bcd60e51b815260040161042690613bbc565b600f805460ff19166001179055600080611cf7612cad565b91509150600080611d0786613159565b91509150611d4b6040518060e00160405280600081526020016000815260200160008152602001600081526020016000815260200160008152602001600081525090565b600d548152600b54602080830191909152604080516333f359d160e21b815290516001600160a01b037f0000000000000000000000000000000000000000000000000000000000000000169263cfcd67449260048082019391829003018186803b158015611db857600080fd5b505afa158015611dcc573d6000803e3d6000fd5b505050506040513d601f19601f82011682018060405250810190611df091906139a4565b604082018190526020820151670de0b6b3a764000091908290611e13908a613d4b565b611e1d9190613c1e565b611e279190613d4b565b611e319190613c1e565b816060018181525050670de0b6b3a76400007f00000000000000000000000000000000000000000000000000000000000000006001600160a01b0316638b3415b96040518163ffffffff1660e01b815260040160206040518083038186803b158015611e9c57600080fd5b505afa158015611eb0573d6000803e3d6000fd5b505050506040513d601f19601f82011682018060405250810190611ed491906139a4565b611ee183606001516127f2565b611eeb9190613d4b565b611ef59190613c1e565b60808201528251600013801590611f0d575060008612155b158015611f2a57508251600012801590611f28575060008613155b155b15611fbb576000611f3e84600001516127f2565b90506000611f4b886127f2565b9050808213611f8857846020015181838560600151611f6a9190613d4b565b611f749190613c1e565b611f7e9190613bdd565b60a0840152611fb8565b826060015182828760200151611f9e9190613d4b565b611fa89190613c1e565b611fb29190613bdd565b60a08401525b50505b670de0b6b3a76400008160400151670de0b6b3a76400008360200151611fe485600001516127f2565b8551611ffa90611ff5908d90613bdd565b6127f2565b6120049190613ded565b61200e9190613d4b565b6120189190613c1e565b6120229190613d4b565b61202c9190613c1e565b6120369085613bdd565b9350858360000181815161204a9190613bdd565b90525060a081015160608201516120619190613ded565b836020018181516120729190613bdd565b905250600c54604084015260a081015160808201516120919190613bdd565b61209b9083613ded565b915085600b60020160008282546120b29190613bdd565b909155505060a081015160608201516120cb9190613ded565b600e80546000906120dd908490613bdd565b92505081905550670de0b6b3a76400007f00000000000000000000000000000000000000000000000000000000000000006001600160a01b031663f94835646040518163ffffffff1660e01b815260040160206040518083038186803b15801561214657600080fd5b505afa15801561215a573d6000803e3d6000fd5b505050506040513d601f19601f8201168201806040525081019061217e91906139a4565b826080015161218d9190613d4b565b6121979190613c1e565b60c08201819052600a80546000906121b0908490613bdd565b909155505060a081015160c082015160808301516121ce9190613ded565b6121d89190613bdd565b600860008282546121e99190613bdd565b90915550508315806122a757507f00000000000000000000000000000000000000000000000000000000000000006001600160a01b031663c42243c16040518163ffffffff1660e01b815260040160206040518083038186803b15801561224f57600080fd5b505afa158015612263573d6000803e3d6000fd5b505050506040513d601f19601f8201168201806040525081019061228791906139a4565b8461229a670de0b6b3a764000088613d4b565b6122a49190613c1e565b12155b6123015760405162461bcd60e51b815260206004820152602560248201527f50657270657475616c506f6f6c3a20696e73756666696369656e74206c697175604482015264696469747960d81b6064820152608401610426565b7f00000000000000000000000000000000000000000000000000000000000000006001600160a01b0316638ac848ca6040518163ffffffff1660e01b815260040160206040518083038186803b15801561235a57600080fd5b505afa15801561236e573d6000803e3d6000fd5b505050506040513d601f19601f8201168201806040525081019061239291906139a4565b61239c848461320a565b12156123ba5760405162461bcd60e51b815260040161042690613b7a565b6123c5878484613359565b866001600160a01b03167fe9b9a6b9b3b7df275a3b89328628d89ee68f326bff47da3b67e7e56a5eeead9f876123fe8460200151612bb8565b604080519283526020830191909152015b60405180910390a25050600f805460ff191690555050505050565b600f5460009060ff16156124505760405162461bcd60e51b815260040161042690613bbc565b600f805460ff191660011790556000612467612cad565b5090506124748484613426565b92506000600360009054906101000a90046001600160a01b031690506000816001600160a01b03166318160ddd6040518163ffffffff1660e01b815260040160206040518083038186803b1580156124cb57600080fd5b505afa1580156124df573d6000803e3d6000fd5b505050506040513d601f19601f8201168201806040525081019061250391906139a4565b9050600081612513575084612533565b61251c84612bb8565b6125268388613dce565b6125309190613c4c565b90505b6040516340c10f1960e01b81526001600160a01b038881166004830152602482018390528416906340c10f1990604401600060405180830381600087803b15801561257d57600080fd5b505af1158015612591573d6000803e3d6000fd5b5050505061259e86612bf0565b600860008282546125af9190613bdd565b909155505060408051828152602081018890526001600160a01b038916917f06239653922ac7bea6aa2b19dc486b9361821d37712eb796adfd38d81de278ca910160405180910390a2600f805460ff191690559695505050505050565b600f5460ff161561262f5760405162461bcd60e51b815260040161042690613bbc565b600f805460ff1916600117905560048054604051637b51e92760e11b81526001600160a01b0385811693820193909352911690819063f6a3d24e9060240160206040518083038186803b15801561268557600080fd5b505afa158015612699573d6000803e3d6000fd5b505050506040513d601f19601f820116820180604052508101906126bd919061396c565b61271d576040516335313c2160e11b81526001600160a01b038481166004830152821690636a62784290602401600060405180830381600087803b15801561270457600080fd5b505af1158015612718573d6000803e3d6000fd5b505050505b6127278383613426565b9150806001600160a01b031663ac2681c68461274285612bf0565b6040516001600160e01b031960e085901b1681526001600160a01b0390921660048301526024820152604401600060405180830381600087803b15801561278857600080fd5b505af115801561279c573d6000803e3d6000fd5b50505050826001600160a01b03167f278e696bd0cd4a7d1260ced26c40cd01c2b088f441889e4148240ac81069b348836040516127db91815260200190565b60405180910390a25050600f805460ff1916905550565b6000600160ff1b82141561282d5760405162461bcd60e51b8152602060048201526002602482015261414f60f01b6044820152606401610426565b60008212156128445761283f82613e6f565b612846565b815b92915050565b600f5460ff161561286f5760405162461bcd60e51b815260040161042690613bbc565b600f805460ff19166001179055600080612887612cad565b600354604080516318160ddd60e01b815290519395509193506001600160a01b03169160009183916318160ddd91600480820192602092909190829003018186803b1580156128d557600080fd5b505afa1580156128e9573d6000803e3d6000fd5b505050506040513d601f19601f8201168201806040525081019061290d91906139a4565b90506000811161295f5760405162461bcd60e51b815260206004820152601860248201527f54686572652773206e6f204c546f6b656e20737570706c7900000000000000006044820152606401610426565b60008161296b86612bb8565b6129759088613dce565b61297f9190613c4c565b905061298a81612bf0565b6008600082825461299b9190613ded565b9091555050831580612a6d57507f00000000000000000000000000000000000000000000000000000000000000006001600160a01b031663c42243c16040518163ffffffff1660e01b815260040160206040518083038186803b158015612a0157600080fd5b505afa158015612a15573d6000803e3d6000fd5b505050506040513d601f19601f82011682018060405250810190612a3991906139a4565b84670de0b6b3a7640000612a4c84612bf0565b612a569089613ded565b612a609190613d4b565b612a6a9190613c1e565b12155b612ac95760405162461bcd60e51b815260206004820152602760248201527f50657270657475616c506f6f6c3a20706f6f6c20696e73756666696369656e746044820152661036b0b933b4b760c91b6064820152608401610426565b604051632770a7eb60e21b81526001600160a01b03888116600483015260248201889052841690639dc29fac90604401600060405180830381600087803b158015612b1357600080fd5b505af1158015612b27573d6000803e3d6000fd5b50505050612b358782612c2f565b60408051878152602081018390526001600160a01b038916917f0fbf06c058b90cb038a618f8c2acbf6145f8b3570fd1fa56abb8f0f3f05b36e8910161240f565b6000818314612bae57612b8a83600a613ca3565b612b9583600a613ca3565b612b9f9086613dce565b612ba99190613c4c565b612bb0565b835b949350505050565b6000808212156128445760405162461bcd60e51b815260206004820152600360248201526249554f60e81b6044820152606401610426565b60006001600160ff1b038211156128445760405162461bcd60e51b815260206004820152600360248201526255494f60e81b6044820152606401610426565b6000612c49601260015484612b769092919063ffffffff16565b90506000612c65600154601284612b769092919063ffffffff16565b612c6f9084613e2c565b9050612c7a81612bf0565b600a6000828254612c8b9190613bdd565b9091555050600254612ca7906001600160a01b0316858461345e565b50505050565b600954600854906000904381811115612dcf57612dcb7f00000000000000000000000000000000000000000000000000000000000000006001600160a01b0316636bb9e4cb6040518163ffffffff1660e01b815260040160206040518083038186803b158015612d1c57600080fd5b505afa158015612d30573d6000803e3d6000fd5b505050506040513d601f19601f82011682018060405250810190612d54919061388f565b6001600160a01b03166398d5fdca6040518163ffffffff1660e01b8152600401602060405180830381600087803b158015612d8e57600080fd5b505af1158015612da2573d6000803e3d6000fd5b505050506040513d601f19601f82011682018060405250810190612dc691906139a4565b612bf0565b600b555b600d5415612edd576000670de0b6b3a76400007f00000000000000000000000000000000000000000000000000000000000000006001600160a01b031663cfcd67446040518163ffffffff1660e01b815260040160206040518083038186803b158015612e3b57600080fd5b505afa158015612e4f573d6000803e3d6000fd5b505050506040513d601f19601f82011682018060405250810190612e7391906139a4565b600b54600d54670de0b6b3a764000091612e8c91613d4b565b612e969190613c1e565b612ea09190613d4b565b612eaa9190613c1e565b600e54909150612eba9082613ded565b612ec49086613ded565b9450612ecf816127f2565b612ed99085613bdd565b9350505b8181111561315157600d5415613151576000847f00000000000000000000000000000000000000000000000000000000000000006001600160a01b031663e7a06ffe6040518163ffffffff1660e01b815260040160206040518083038186803b158015612f4957600080fd5b505afa158015612f5d573d6000803e3d6000fd5b505050506040513d601f19601f82011682018060405250810190612f8191906139a4565b670de0b6b3a76400007f00000000000000000000000000000000000000000000000000000000000000006001600160a01b031663cfcd67446040518163ffffffff1660e01b815260040160206040518083038186803b158015612fe357600080fd5b505afa158015612ff7573d6000803e3d6000fd5b505050506040513d601f19601f8201168201806040525081019061301b91906139a4565b670de0b6b3a76400007f00000000000000000000000000000000000000000000000000000000000000006001600160a01b031663cfcd67446040518163ffffffff1660e01b815260040160206040518083038186803b15801561307d57600080fd5b505afa158015613091573d6000803e3d6000fd5b505050506040513d601f19601f820116820180604052508101906130b591906139a4565b600b54600d54670de0b6b3a7640000919082906130d3908390613d4b565b6130dd9190613c1e565b6130e79190613d4b565b6130f19190613c1e565b6130fb9190613d4b565b6131059190613c1e565b61310f9190613d4b565b6131199190613c1e565b6131239190613d4b565b61312d9190613c1e565b9050600061313b8484613e2c565b6131459083613d4b565b600c8054909101905550505b600955509091565b61317d60405180606001604052806000815260200160008152602001600081525090565b600061318883611303565b81519193509150600090156131da57600c546040840151845190820390670de0b6b3a7640000906131ba908390613d4b565b6131c49190613c1e565b6131ce9084613bdd565b60408601929092525090505b8015613204576131ea8183613ded565b915080600860008282546131fe9190613bdd565b90915550505b50915091565b8151600090829082901561331f576000670de0b6b3a76400007f00000000000000000000000000000000000000000000000000000000000000006001600160a01b031663cfcd67446040518163ffffffff1660e01b815260040160206040518083038186803b15801561327c57600080fd5b505afa158015613290573d6000803e3d6000fd5b505050506040513d601f19601f820116820180604052508101906132b491906139a4565b600b548851670de0b6b3a7640000916132cc91613d4b565b6132d69190613c1e565b6132e09190613d4b565b6132ea9190613c1e565b90508560200151816132fc9190613ded565b6133069084613bdd565b9250613311816127f2565b61331b9083613bdd565b9150505b80156133475780613338670de0b6b3a764000084613d4b565b6133429190613c1e565b613350565b6001600160ff1b035b95945050505050565b600480546040516388f74d0960e01b81526001600160a01b039091169182916388f74d099161338c918891889101613a56565b600060405180830381600087803b1580156133a657600080fd5b505af11580156133ba573d6000803e3d6000fd5b5050604051631a9c941f60e01b81526001600160a01b0387811660048301526024820186905284169250631a9c941f9150604401600060405180830381600087803b15801561340857600080fd5b505af115801561341c573d6000803e3d6000fd5b5050505050505050565b60008061344b8430613446601260015488612b769092919063ffffffff16565b6134c1565b600154909150612bb09082906012612b76565b6040516001600160a01b0383166024820152604481018290526105d590849063a9059cbb60e01b906064015b60408051601f198184030181529190526020810180516001600160e01b03166001600160e01b0319909316929092179091526135ee565b6002546040516370a0823160e01b81526001600160a01b0384811660048301526000921690829082906370a082319060240160206040518083038186803b15801561350b57600080fd5b505afa15801561351f573d6000803e3d6000fd5b505050506040513d601f19601f8201168201806040525081019061354391906139a4565b905061355a6001600160a01b0383168787876136c0565b6040516370a0823160e01b81526001600160a01b038681166004830152600091908416906370a082319060240160206040518083038186803b15801561359f57600080fd5b505afa1580156135b3573d6000803e3d6000fd5b505050506040513d601f19601f820116820180604052508101906135d791906139a4565b90506135e38282613e2c565b979650505050505050565b6000613643826040518060400160405280602081526020017f5361666545524332303a206c6f772d6c6576656c2063616c6c206661696c6564815250856001600160a01b03166136f89092919063ffffffff16565b8051909150156105d55780806020019051810190613661919061396c565b6105d55760405162461bcd60e51b815260206004820152602a60248201527f5361666545524332303a204552433230206f7065726174696f6e20646964206e6044820152691bdd081cdd58d8d9595960b21b6064820152608401610426565b6040516001600160a01b0380851660248301528316604482015260648101829052612ca79085906323b872dd60e01b9060840161348a565b6060612bb0848460008585843b6137515760405162461bcd60e51b815260206004820152601d60248201527f416464726573733a2063616c6c20746f206e6f6e2d636f6e74726163740000006044820152606401610426565b600080866001600160a01b0316858760405161376d9190613a3a565b60006040518083038185875af1925050503d80600081146137aa576040519150601f19603f3d011682016040523d82523d6000602084013e6137af565b606091505b50915091506135e3828286606083156137c957508161063a565b8251156137d95782518084602001fd5b8160405162461bcd60e51b81526004016104269190613a87565b600060a08284031215613804578081fd5b60405160a0810181811067ffffffffffffffff8211171561382757613827613eb5565b80604052508091508235815260208301356020820152604083013560ff8116811461385157600080fd5b8060408301525060608301356060820152608083013560808201525092915050565b600060208284031215613884578081fd5b813561063a81613ecb565b6000602082840312156138a0578081fd5b815161063a81613ecb565b60008060c083850312156138bd578081fd5b82356138c881613ecb565b91506138d784602085016137f3565b90509250929050565b600060c082840312156138f1578081fd5b82601f8301126138ff578081fd5b60405160c0810181811067ffffffffffffffff8211171561392257613922613eb5565b604052808360c08101861015613936578384fd5b835b600681101561396157813561394c81613ecb565b83526020928301929190910190600101613938565b509195945050505050565b60006020828403121561397d578081fd5b8151801515811461063a578182fd5b60006020828403121561399d578081fd5b5035919050565b6000602082840312156139b5578081fd5b5051919050565b60008060c083850312156139ce578182fd5b823591506138d784602085016137f3565b6000606082840312156139f0578081fd5b6040516060810181811067ffffffffffffffff82111715613a1357613a13613eb5565b80604052508251815260208301516020820152604083015160408201528091505092915050565b60008251613a4c818460208701613e43565b9190910192915050565b6001600160a01b03831681526080810161063a60208301848051825260208082015190830152604090810151910152565b6020815260008251806020840152613aa6816040850160208701613e43565b601f01601f19169190910160400192915050565b60208082526022908201527f50657270657475616c506f6f6c3a20696e76616c6964207472616465566f6c756040820152616d6560f01b606082015260800190565b60208082526018908201527f50657270657475616c506f6f6c3a20302062416d6f756e740000000000000000604082015260600190565b60208082526027908201527f50657270657475616c506f6f6c3a206e6f74207175616c6966696564206c69716040820152663ab4b230ba37b960c91b606082015260800190565b60208082526022908201527f50657270657475616c506f6f6c3a20696e73756666696369656e74206d61726760408201526134b760f11b606082015260800190565b6020808252600790820152667265656e74727960c81b604082015260600190565b600080821280156001600160ff1b0384900385131615613bff57613bff613e89565b600160ff1b8390038412811615613c1857613c18613e89565b50500190565b600082613c2d57613c2d613e9f565b600160ff1b821460001984141615613c4757613c47613e89565b500590565b600082613c5b57613c5b613e9f565b500490565b600181815b80851115613c9b578160001904821115613c8157613c81613e89565b80851615613c8e57918102915b93841c9390800290613c65565b509250929050565b600061063a8383600082613cb957506001612846565b81613cc657506000612846565b8160018114613cdc5760028114613ce657613d02565b6001915050612846565b60ff841115613cf757613cf7613e89565b50506001821b612846565b5060208310610133831016604e8410600b8410161715613d25575081810a612846565b613d2f8383613c60565b8060001904821115613d4357613d43613e89565b029392505050565b60006001600160ff1b0381841382841380821686840486111615613d7157613d71613e89565b600160ff1b84871282811687830589121615613d8f57613d8f613e89565b858712925087820587128484161615613daa57613daa613e89565b87850587128184161615613dc057613dc0613e89565b505050929093029392505050565b6000816000190483118215151615613de857613de8613e89565b500290565b60008083128015600160ff1b850184121615613e0b57613e0b613e89565b6001600160ff1b0384018313811615613e2657613e26613e89565b50500390565b600082821015613e3e57613e3e613e89565b500390565b60005b83811015613e5e578181015183820152602001613e46565b83811115612ca75750506000910152565b6000600160ff1b821415613e8557613e85613e89565b0390565b634e487b7160e01b600052601160045260246000fd5b634e487b7160e01b600052601260045260246000fd5b634e487b7160e01b600052604160045260246000fd5b6001600160a01b03811681146105a657600080fdfea2646970667358221220d4d4357ea6bdfb0a40efa39800b9f1d02ddd3d2b11c17c6fce143190bc8395f564736f6c63430008040033",
  "devdoc": {
    "kind": "dev",
    "methods": {},
    "version": 1
  },
  "userdoc": {
    "kind": "user",
    "methods": {},
    "version": 1
  },
  "storageLayout": {
    "storage": [
      {
        "astId": 7665,
        "contract": "contracts/perpetual_futures/PerpetualPoolLite.sol:PerpetualPoolLite",
        "label": "_initialized",
        "offset": 0,
        "slot": "0",
        "type": "t_bool"
      },
      {
        "astId": 7668,
        "contract": "contracts/perpetual_futures/PerpetualPoolLite.sol:PerpetualPoolLite",
        "label": "_initializing",
        "offset": 1,
        "slot": "0",
        "type": "t_bool"
      },
      {
        "astId": 13994,
        "contract": "contracts/perpetual_futures/PerpetualPoolLite.sol:PerpetualPoolLite",
        "label": "_decimals",
        "offset": 0,
        "slot": "1",
        "type": "t_uint256"
      },
      {
        "astId": 13996,
        "contract": "contracts/perpetual_futures/PerpetualPoolLite.sol:PerpetualPoolLite",
        "label": "_bTokenAddress",
        "offset": 0,
        "slot": "2",
        "type": "t_address"
      },
      {
        "astId": 13998,
        "contract": "contracts/perpetual_futures/PerpetualPoolLite.sol:PerpetualPoolLite",
        "label": "_lTokenAddress",
        "offset": 0,
        "slot": "3",
        "type": "t_address"
      },
      {
        "astId": 14000,
        "contract": "contracts/perpetual_futures/PerpetualPoolLite.sol:PerpetualPoolLite",
        "label": "_pTokenAddress",
        "offset": 0,
        "slot": "4",
        "type": "t_address"
      },
      {
        "astId": 14002,
        "contract": "contracts/perpetual_futures/PerpetualPoolLite.sol:PerpetualPoolLite",
        "label": "_liquidatorQualifierAddress",
        "offset": 0,
        "slot": "5",
        "type": "t_address"
      },
      {
        "astId": 14004,
        "contract": "contracts/perpetual_futures/PerpetualPoolLite.sol:PerpetualPoolLite",
        "label": "_protocolFeeCollector",
        "offset": 0,
        "slot": "6",
        "type": "t_address"
      },
      {
        "astId": 14006,
        "contract": "contracts/perpetual_futures/PerpetualPoolLite.sol:PerpetualPoolLite",
        "label": "_underlyingAddress",
        "offset": 0,
        "slot": "7",
        "type": "t_address"
      },
      {
        "astId": 14013,
        "contract": "contracts/perpetual_futures/PerpetualPoolLite.sol:PerpetualPoolLite",
        "label": "_liquidity",
        "offset": 0,
        "slot": "8",
        "type": "t_int256"
      },
      {
        "astId": 14015,
        "contract": "contracts/perpetual_futures/PerpetualPoolLite.sol:PerpetualPoolLite",
        "label": "_lastUpdateBlock",
        "offset": 0,
        "slot": "9",
        "type": "t_uint256"
      },
      {
        "astId": 14017,
        "contract": "contracts/perpetual_futures/PerpetualPoolLite.sol:PerpetualPoolLite",
        "label": "_protocolFeeAccrued",
        "offset": 0,
        "slot": "10",
        "type": "t_int256"
      },
      {
        "astId": 14020,
        "contract": "contracts/perpetual_futures/PerpetualPoolLite.sol:PerpetualPoolLite",
        "label": "_symbol",
        "offset": 0,
        "slot": "11",
        "type": "t_struct(SymbolInfo)19144_storage"
      },
      {
        "astId": 14022,
        "contract": "contracts/perpetual_futures/PerpetualPoolLite.sol:PerpetualPoolLite",
        "label": "_mutex",
        "offset": 0,
        "slot": "15",
        "type": "t_bool"
      }
    ],
    "types": {
      "t_address": {
        "encoding": "inplace",
        "label": "address",
        "numberOfBytes": "20"
      },
      "t_bool": {
        "encoding": "inplace",
        "label": "bool",
        "numberOfBytes": "1"
      },
      "t_int256": {
        "encoding": "inplace",
        "label": "int256",
        "numberOfBytes": "32"
      },
      "t_struct(SymbolInfo)19144_storage": {
        "encoding": "inplace",
        "label": "struct IPerpetualPoolLite.SymbolInfo",
        "members": [
          {
            "astId": 19137,
            "contract": "contracts/perpetual_futures/PerpetualPoolLite.sol:PerpetualPoolLite",
            "label": "price",
            "offset": 0,
            "slot": "0",
            "type": "t_int256"
          },
          {
            "astId": 19139,
            "contract": "contracts/perpetual_futures/PerpetualPoolLite.sol:PerpetualPoolLite",
            "label": "cumulativeFundingRate",
            "offset": 0,
            "slot": "1",
            "type": "t_int256"
          },
          {
            "astId": 19141,
            "contract": "contracts/perpetual_futures/PerpetualPoolLite.sol:PerpetualPoolLite",
            "label": "tradersNetVolume",
            "offset": 0,
            "slot": "2",
            "type": "t_int256"
          },
          {
            "astId": 19143,
            "contract": "contracts/perpetual_futures/PerpetualPoolLite.sol:PerpetualPoolLite",
            "label": "tradersNetCost",
            "offset": 0,
            "slot": "3",
            "type": "t_int256"
          }
        ],
        "numberOfBytes": "128"
      },
      "t_uint256": {
        "encoding": "inplace",
        "label": "uint256",
        "numberOfBytes": "32"
      }
    }
  }
}