{
  "address": "0x1183F0E75128bcb005B352A437EeBaE56994Dc05",
  "abi": [
    {
      "inputs": [
        {
          "internalType": "address[2]",
          "name": "addresses",
          "type": "address[2]"
        }
      ],
      "stateMutability": "nonpayable",
      "type": "constructor"
    },
    {
      "anonymous": false,
      "inputs": [
        {
          "indexed": true,
          "internalType": "address",
          "name": "account",
          "type": "address"
        },
        {
          "indexed": false,
          "internalType": "uint256",
          "name": "lShares",
          "type": "uint256"
        },
        {
          "indexed": false,
          "internalType": "uint256",
          "name": "bAmount",
          "type": "uint256"
        }
      ],
      "name": "AddLiquidity",
      "type": "event"
    },
    {
      "anonymous": false,
      "inputs": [
        {
          "indexed": true,
          "internalType": "address",
          "name": "account",
          "type": "address"
        },
        {
          "indexed": false,
          "internalType": "uint256",
          "name": "bAmount",
          "type": "uint256"
        }
      ],
      "name": "AddMargin",
      "type": "event"
    },
    {
      "anonymous": false,
      "inputs": [
        {
          "indexed": true,
          "internalType": "address",
          "name": "account",
          "type": "address"
        },
        {
          "indexed": true,
          "internalType": "address",
          "name": "liquidator",
          "type": "address"
        },
        {
          "indexed": false,
          "internalType": "uint256",
          "name": "reward",
          "type": "uint256"
        }
      ],
      "name": "Liquidate",
      "type": "event"
    },
    {
      "anonymous": false,
      "inputs": [
        {
          "indexed": true,
          "internalType": "address",
          "name": "collector",
          "type": "address"
        },
        {
          "indexed": false,
          "internalType": "uint256",
          "name": "amount",
          "type": "uint256"
        }
      ],
      "name": "ProtocolFeeCollection",
      "type": "event"
    },
    {
      "anonymous": false,
      "inputs": [
        {
          "indexed": true,
          "internalType": "address",
          "name": "account",
          "type": "address"
        },
        {
          "indexed": false,
          "internalType": "uint256",
          "name": "lShares",
          "type": "uint256"
        },
        {
          "indexed": false,
          "internalType": "uint256",
          "name": "bAmount",
          "type": "uint256"
        }
      ],
      "name": "RemoveLiquidity",
      "type": "event"
    },
    {
      "anonymous": false,
      "inputs": [
        {
          "indexed": true,
          "internalType": "address",
          "name": "account",
          "type": "address"
        },
        {
          "indexed": false,
          "internalType": "uint256",
          "name": "bAmount",
          "type": "uint256"
        }
      ],
      "name": "RemoveMargin",
      "type": "event"
    },
    {
      "anonymous": false,
      "inputs": [
        {
          "indexed": true,
          "internalType": "address",
          "name": "account",
          "type": "address"
        },
        {
          "indexed": false,
          "internalType": "int256",
          "name": "tradeVolume",
          "type": "int256"
        },
        {
          "indexed": false,
          "internalType": "uint256",
          "name": "price",
          "type": "uint256"
        }
      ],
      "name": "Trade",
      "type": "event"
    },
    {
      "inputs": [
        {
          "internalType": "uint256",
          "name": "bAmount",
          "type": "uint256"
        }
      ],
      "name": "addLiquidity",
      "outputs": [],
      "stateMutability": "nonpayable",
      "type": "function"
    },
    {
      "inputs": [
        {
          "internalType": "uint256",
          "name": "bAmount",
          "type": "uint256"
        },
        {
          "components": [
            {
              "internalType": "uint256",
              "name": "timestamp",
              "type": "uint256"
            },
            {
              "internalType": "uint256",
              "name": "price",
              "type": "uint256"
            },
            {
              "internalType": "uint8",
              "name": "v",
              "type": "uint8"
            },
            {
              "internalType": "bytes32",
              "name": "r",
              "type": "bytes32"
            },
            {
              "internalType": "bytes32",
              "name": "s",
              "type": "bytes32"
            }
          ],
          "internalType": "struct IPerpetualPoolLite.SignedPrice",
          "name": "price",
          "type": "tuple"
        }
      ],
      "name": "addLiquidity",
      "outputs": [],
      "stateMutability": "nonpayable",
      "type": "function"
    },
    {
      "inputs": [
        {
          "internalType": "uint256",
          "name": "bAmount",
          "type": "uint256"
        },
        {
          "components": [
            {
              "internalType": "uint256",
              "name": "timestamp",
              "type": "uint256"
            },
            {
              "internalType": "uint256",
              "name": "price",
              "type": "uint256"
            },
            {
              "internalType": "uint8",
              "name": "v",
              "type": "uint8"
            },
            {
              "internalType": "bytes32",
              "name": "r",
              "type": "bytes32"
            },
            {
              "internalType": "bytes32",
              "name": "s",
              "type": "bytes32"
            }
          ],
          "internalType": "struct IPerpetualPoolLite.SignedPrice",
          "name": "price",
          "type": "tuple"
        }
      ],
      "name": "addMargin",
      "outputs": [],
      "stateMutability": "nonpayable",
      "type": "function"
    },
    {
      "inputs": [
        {
          "internalType": "uint256",
          "name": "bAmount",
          "type": "uint256"
        }
      ],
      "name": "addMargin",
      "outputs": [],
      "stateMutability": "nonpayable",
      "type": "function"
    },
    {
      "inputs": [],
      "name": "collectProtocolFee",
      "outputs": [],
      "stateMutability": "nonpayable",
      "type": "function"
    },
    {
      "inputs": [],
      "name": "getAddresses",
      "outputs": [
        {
          "internalType": "address",
          "name": "bTokenAddress",
          "type": "address"
        },
        {
          "internalType": "address",
          "name": "lTokenAddress",
          "type": "address"
        },
        {
          "internalType": "address",
          "name": "pTokenAddress",
          "type": "address"
        },
        {
          "internalType": "address",
          "name": "liquidatorQualifierAddress",
          "type": "address"
        },
        {
          "internalType": "address",
          "name": "protocolFeeCollector",
          "type": "address"
        },
        {
          "internalType": "address",
          "name": "underlyingAddress",
          "type": "address"
        },
        {
          "internalType": "address",
          "name": "protocolAddress",
          "type": "address"
        }
      ],
      "stateMutability": "view",
      "type": "function"
    },
    {
      "inputs": [],
      "name": "getLastUpdateBlock",
      "outputs": [
        {
          "internalType": "uint256",
          "name": "",
          "type": "uint256"
        }
      ],
      "stateMutability": "view",
      "type": "function"
    },
    {
      "inputs": [],
      "name": "getLiquidity",
      "outputs": [
        {
          "internalType": "int256",
          "name": "",
          "type": "int256"
        }
      ],
      "stateMutability": "view",
      "type": "function"
    },
    {
      "inputs": [],
      "name": "getParameters",
      "outputs": [
        {
          "internalType": "int256",
          "name": "minPoolMarginRatio",
          "type": "int256"
        },
        {
          "internalType": "int256",
          "name": "minInitialMarginRatio",
          "type": "int256"
        },
        {
          "internalType": "int256",
          "name": "minMaintenanceMarginRatio",
          "type": "int256"
        },
        {
          "internalType": "int256",
          "name": "minLiquidationReward",
          "type": "int256"
        },
        {
          "internalType": "int256",
          "name": "maxLiquidationReward",
          "type": "int256"
        },
        {
          "internalType": "int256",
          "name": "liquidationCutRatio",
          "type": "int256"
        },
        {
          "internalType": "int256",
          "name": "protocolFeeCollectRatio",
          "type": "int256"
        }
      ],
      "stateMutability": "view",
      "type": "function"
    },
    {
      "inputs": [],
      "name": "getProtocolFeeAccrued",
      "outputs": [
        {
          "internalType": "int256",
          "name": "",
          "type": "int256"
        }
      ],
      "stateMutability": "view",
      "type": "function"
    },
    {
      "inputs": [],
      "name": "getSymbol",
      "outputs": [
        {
          "components": [
            {
              "internalType": "int256",
              "name": "price",
              "type": "int256"
            },
            {
              "internalType": "int256",
              "name": "cumulativeFundingRate",
              "type": "int256"
            },
            {
              "internalType": "int256",
              "name": "tradersNetVolume",
              "type": "int256"
            },
            {
              "internalType": "int256",
              "name": "tradersNetCost",
              "type": "int256"
            }
          ],
          "internalType": "struct IPerpetualPoolLite.SymbolInfo",
          "name": "",
          "type": "tuple"
        }
      ],
      "stateMutability": "view",
      "type": "function"
    },
    {
      "inputs": [],
      "name": "getSymbolPriceAndMultiplier",
      "outputs": [
        {
          "internalType": "int256",
          "name": "price",
          "type": "int256"
        },
        {
          "internalType": "int256",
          "name": "multiplier",
          "type": "int256"
        }
      ],
      "stateMutability": "view",
      "type": "function"
    },
    {
      "inputs": [
        {
          "internalType": "address",
          "name": "account",
          "type": "address"
        }
      ],
      "name": "getTraderPortfolio",
      "outputs": [
        {
          "components": [
            {
              "internalType": "int256",
              "name": "volume",
              "type": "int256"
            },
            {
              "internalType": "int256",
              "name": "cost",
              "type": "int256"
            },
            {
              "internalType": "int256",
              "name": "lastCumulativeFundingRate",
              "type": "int256"
            }
          ],
          "internalType": "struct IPTokenLite.Position",
          "name": "position",
          "type": "tuple"
        },
        {
          "internalType": "int256",
          "name": "margin",
          "type": "int256"
        }
      ],
      "stateMutability": "view",
      "type": "function"
    },
    {
      "inputs": [
        {
          "internalType": "address[6]",
          "name": "addresses",
          "type": "address[6]"
        }
      ],
      "name": "initialize",
      "outputs": [],
      "stateMutability": "nonpayable",
      "type": "function"
    },
    {
      "inputs": [
        {
          "internalType": "address",
          "name": "account",
          "type": "address"
        }
      ],
      "name": "liquidate",
      "outputs": [],
      "stateMutability": "nonpayable",
      "type": "function"
    },
    {
      "inputs": [
        {
          "internalType": "address",
          "name": "account",
          "type": "address"
        },
        {
          "components": [
            {
              "internalType": "uint256",
              "name": "timestamp",
              "type": "uint256"
            },
            {
              "internalType": "uint256",
              "name": "price",
              "type": "uint256"
            },
            {
              "internalType": "uint8",
              "name": "v",
              "type": "uint8"
            },
            {
              "internalType": "bytes32",
              "name": "r",
              "type": "bytes32"
            },
            {
              "internalType": "bytes32",
              "name": "s",
              "type": "bytes32"
            }
          ],
          "internalType": "struct IPerpetualPoolLite.SignedPrice",
          "name": "price",
          "type": "tuple"
        }
      ],
      "name": "liquidate",
      "outputs": [],
      "stateMutability": "nonpayable",
      "type": "function"
    },
    {
      "inputs": [
        {
          "internalType": "uint256",
          "name": "lShares",
          "type": "uint256"
        }
      ],
      "name": "removeLiquidity",
      "outputs": [],
      "stateMutability": "nonpayable",
      "type": "function"
    },
    {
      "inputs": [
        {
          "internalType": "uint256",
          "name": "lShares",
          "type": "uint256"
        },
        {
          "components": [
            {
              "internalType": "uint256",
              "name": "timestamp",
              "type": "uint256"
            },
            {
              "internalType": "uint256",
              "name": "price",
              "type": "uint256"
            },
            {
              "internalType": "uint8",
              "name": "v",
              "type": "uint8"
            },
            {
              "internalType": "bytes32",
              "name": "r",
              "type": "bytes32"
            },
            {
              "internalType": "bytes32",
              "name": "s",
              "type": "bytes32"
            }
          ],
          "internalType": "struct IPerpetualPoolLite.SignedPrice",
          "name": "price",
          "type": "tuple"
        }
      ],
      "name": "removeLiquidity",
      "outputs": [],
      "stateMutability": "nonpayable",
      "type": "function"
    },
    {
      "inputs": [
        {
          "internalType": "uint256",
          "name": "bAmount",
          "type": "uint256"
        },
        {
          "components": [
            {
              "internalType": "uint256",
              "name": "timestamp",
              "type": "uint256"
            },
            {
              "internalType": "uint256",
              "name": "price",
              "type": "uint256"
            },
            {
              "internalType": "uint8",
              "name": "v",
              "type": "uint8"
            },
            {
              "internalType": "bytes32",
              "name": "r",
              "type": "bytes32"
            },
            {
              "internalType": "bytes32",
              "name": "s",
              "type": "bytes32"
            }
          ],
          "internalType": "struct IPerpetualPoolLite.SignedPrice",
          "name": "price",
          "type": "tuple"
        }
      ],
      "name": "removeMargin",
      "outputs": [],
      "stateMutability": "nonpayable",
      "type": "function"
    },
    {
      "inputs": [
        {
          "internalType": "uint256",
          "name": "bAmount",
          "type": "uint256"
        }
      ],
      "name": "removeMargin",
      "outputs": [],
      "stateMutability": "nonpayable",
      "type": "function"
    },
    {
      "inputs": [
        {
          "internalType": "int256",
          "name": "tradeVolume",
          "type": "int256"
        }
      ],
      "name": "trade",
      "outputs": [],
      "stateMutability": "nonpayable",
      "type": "function"
    },
    {
      "inputs": [
        {
          "internalType": "int256",
          "name": "tradeVolume",
          "type": "int256"
        },
        {
          "components": [
            {
              "internalType": "uint256",
              "name": "timestamp",
              "type": "uint256"
            },
            {
              "internalType": "uint256",
              "name": "price",
              "type": "uint256"
            },
            {
              "internalType": "uint8",
              "name": "v",
              "type": "uint8"
            },
            {
              "internalType": "bytes32",
              "name": "r",
              "type": "bytes32"
            },
            {
              "internalType": "bytes32",
              "name": "s",
              "type": "bytes32"
            }
          ],
          "internalType": "struct IPerpetualPoolLite.SignedPrice",
          "name": "price",
          "type": "tuple"
        }
      ],
      "name": "trade",
      "outputs": [],
      "stateMutability": "nonpayable",
      "type": "function"
    }
  ],
  "transactionHash": "0xcd4b02ae17636b6ec74133f5030984c595a7a506e42b52d4993f658efaec97f2",
  "args": [
    [
      "0x75adbD64C0F04F7a3605D5fd1Db8e4d219b7B385",
      "0x29a6B3c412c342A4257CDd98d74467f5aDFd4AfD"
    ]
  ],
  "solcInputHash": "6ccff64f2b09ceecf2067444a9c2e6cd",
  "bytecode": "0x60a06040523480156200001157600080fd5b5060405162003a6838038062003a6883398101604081905262000034916200008e565b805160601b6001600160601b03191660805251600880546001600160a01b0319166001600160a01b03909216919091179055601260015562000139565b80516001600160a01b03811681146200008957600080fd5b919050565b600060408284031215620000a0578081fd5b82601f830112620000af578081fd5b604080519081016001600160401b0381118282101715620000d457620000d462000123565b8060405250808385604086011115620000eb578384fd5b835b60028110156200011857620001028262000071565b83526020928301929190910190600101620000ed565b509195945050505050565b634e487b7160e01b600052604160045260246000fd5b60805160601c61391062000158600039600061028801526139106000f3fe608060405234801561001057600080fd5b50600436106101425760003560e01c8063a39fac12116100b8578063d608c07d1161007c578063d608c07d14610322578063de61838c1461032a578063dfd198981461033d578063f11f854f1461035a578063f12c9f0e1461036d578063fcd33b51146103a757600080fd5b8063a39fac121461023b578063a43be948146102b7578063a5ea11da146102ca578063b5d4034514610307578063caa4b46a1461031a57600080fd5b80633dc07fda1161010a5780633dc07fda146101c957806351c6590a146101dc5780635756e84c146101ef57806375fe9c7f146102025780637a2e87aa146102155780639c8f9f231461022857600080fd5b806307e2ee0f146101475780630910a5101461015e57806314e841b914610166578063150704011461017b5780632f865568146101b6575b600080fd5b600a545b6040519081526020015b60405180910390f35b60095461014b565b6101796101743660046133b6565b6103ba565b005b6101836103fa565b60405161015591908151815260208083015190820152604080830151908201526060918201519181019190915260800190565b6101796101c436600461326d565b610452565b6101796101d7366004613386565b61050a565b6101796101ea366004613386565b61055d565b6101796101fd3660046133b6565b610587565b6101796102103660046133b6565b6105ba565b6101796102233660046132da565b6105ed565b610179610236366004613386565b610725565b600254600354600454600554600654600754604080516001600160a01b039788168152958716602087015293861693850193909352908416606084015283166080830152821660a08201527f000000000000000000000000000000000000000000000000000000000000000090911660c082015260e001610155565b6101796102c5366004613386565b61077a565b6102d26107a4565b604080519788526020880196909652948601939093526060850191909152608084015260a083015260c082015260e001610155565b6101796103153660046133b6565b610b6f565b610179610bcd565b600b5461014b565b6101796103383660046132a5565b610cf3565b610345610db9565b60408051928352602083019190915201610155565b610179610368366004613386565b610e50565b61038061037b36600461326d565b610e7a565b60408051835181526020808501519082015292810151908301526060820152608001610155565b6101796103b53660046133b6565b610fa8565b600082116103e35760405162461bcd60e51b81526004016103da906134f6565b60405180910390fd5b6103ec81611001565b6103f63383611122565b5050565b6104256040518060800160405280600081526020016000815260200160008152602001600081525090565b5060408051608081018252600c548152600d546020820152600e5491810191909152600f54606082015290565b60055433906001600160a01b031615806104e457506005546040516337c203bd60e21b81526001600160a01b0383811660048301529091169063df080ef49060240160206040518083038186803b1580156104ac57600080fd5b505afa1580156104c0573d6000803e3d6000fd5b505050506040513d601f19601f820116820180604052508101906104e49190613366565b6105005760405162461bcd60e51b81526004016103da9061352d565b6103f681836112ba565b8015801590610534575080670de0b6b3a76400006105288183613618565b6105329190613745565b145b6105505760405162461bcd60e51b81526004016103da906134b4565b61055a33826117db565b50565b6000811161057d5760405162461bcd60e51b81526004016103da906134f6565b61055a3382611ee4565b600082116105a75760405162461bcd60e51b81526004016103da906134f6565b6105b081611001565b6103f633836120c1565b600082116105da5760405162461bcd60e51b81526004016103da906134f6565b6105e381611001565b6103f63383611ee4565b600054610100900460ff1680610606575060005460ff16155b6106695760405162461bcd60e51b815260206004820152602e60248201527f496e697469616c697a61626c653a20636f6e747261637420697320616c72656160448201526d191e481a5b9a5d1a585b1a5e995960921b60648201526084016103da565b600054610100900460ff1615801561068b576000805461ffff19166101011790555b8151600280546001600160a01b03199081166001600160a01b0393841617909155602084015160038054831691841691909117905560408401516004805483169184169190911790556060840151600580548316918416919091179055608084015160068054831691841691909117905560a084015160078054909216921691909117905580156103f6576000805461ff00191690555050565b600081116107705760405162461bcd60e51b815260206004820152601860248201527750657270657475616c506f6f6c3a2030206c53686172657360401b60448201526064016103da565b61055a33826122a7565b6000811161079a5760405162461bcd60e51b81526004016103da906134f6565b61055a33826120c1565b6000806000806000806000600860009054906101000a90046001600160a01b03166001600160a01b031663c42243c16040518163ffffffff1660e01b815260040160206040518083038186803b1580156107fd57600080fd5b505afa158015610811573d6000803e3d6000fd5b505050506040513d601f19601f82011682018060405250810190610835919061339e565b600860009054906101000a90046001600160a01b03166001600160a01b0316638ac848ca6040518163ffffffff1660e01b815260040160206040518083038186803b15801561088357600080fd5b505afa158015610897573d6000803e3d6000fd5b505050506040513d601f19601f820116820180604052508101906108bb919061339e565b600860009054906101000a90046001600160a01b03166001600160a01b0316630adf8e926040518163ffffffff1660e01b815260040160206040518083038186803b15801561090957600080fd5b505afa15801561091d573d6000803e3d6000fd5b505050506040513d601f19601f82011682018060405250810190610941919061339e565b600860009054906101000a90046001600160a01b03166001600160a01b031663ddd18d306040518163ffffffff1660e01b815260040160206040518083038186803b15801561098f57600080fd5b505afa1580156109a3573d6000803e3d6000fd5b505050506040513d601f19601f820116820180604052508101906109c7919061339e565b600860009054906101000a90046001600160a01b03166001600160a01b031663ab78ace46040518163ffffffff1660e01b815260040160206040518083038186803b158015610a1557600080fd5b505afa158015610a29573d6000803e3d6000fd5b505050506040513d601f19601f82011682018060405250810190610a4d919061339e565b600860009054906101000a90046001600160a01b03166001600160a01b03166346d2d2d86040518163ffffffff1660e01b815260040160206040518083038186803b158015610a9b57600080fd5b505afa158015610aaf573d6000803e3d6000fd5b505050506040513d601f19601f82011682018060405250810190610ad3919061339e565b600860009054906101000a90046001600160a01b03166001600160a01b031663f94835646040518163ffffffff1660e01b815260040160206040518083038186803b158015610b2157600080fd5b505afa158015610b35573d6000803e3d6000fd5b505050506040513d601f19601f82011682018060405250810190610b59919061339e565b959d949c50929a50909850965094509092509050565b60008211610bba5760405162461bcd60e51b815260206004820152601860248201527750657270657475616c506f6f6c3a2030206c53686172657360401b60448201526064016103da565b610bc381611001565b6103f633836122a7565b6001546002546040516370a0823160e01b8152306004820152600092610c5c9290916012916001600160a01b0316906370a082319060240160206040518083038186803b158015610c1d57600080fd5b505afa158015610c31573d6000803e3d6000fd5b505050506040513d601f19601f82011682018060405250810190610c55919061339e565b9190612576565b90506000610c6b600b546125ba565b905081811115610c785750805b610c81816125f6565b600b6000828254610c9291906137e7565b9091555050600654610cad906001600160a01b031682612635565b6006546040518281526001600160a01b03909116907fdc9b9c7c232fac9d635ce55b58e41cca2c16aa6ad39a73973ce276d479ad6f2d9060200160405180910390a25050565b60055433906001600160a01b03161580610d8557506005546040516337c203bd60e21b81526001600160a01b0383811660048301529091169063df080ef49060240160206040518083038186803b158015610d4d57600080fd5b505afa158015610d61573d6000803e3d6000fd5b505050506040513d601f19601f82011682018060405250810190610d859190613366565b610da15760405162461bcd60e51b81526004016103da9061352d565b610daa82611001565b610db481846112ba565b505050565b600080600c60000154600860009054906101000a90046001600160a01b03166001600160a01b031663cfcd67446040518163ffffffff1660e01b815260040160206040518083038186803b158015610e1057600080fd5b505afa158015610e24573d6000803e3d6000fd5b505050506040513d601f19601f82011682018060405250810190610e48919061339e565b915091509091565b60008111610e705760405162461bcd60e51b81526004016103da906134f6565b61055a3382611122565b610e9e60405180606001604052806000815260200160008152602001600081525090565b600480546040516316c1973960e01b81526001600160a01b03858116938201939093526000929091169081906316c197399060240160606040518083038186803b158015610eeb57600080fd5b505afa158015610eff573d6000803e3d6000fd5b505050506040513d601f19601f82011682018060405250810190610f2391906133d9565b604051637c27c4d160e11b81526001600160a01b0386811660048301529194509082169063f84f89a29060240160206040518083038186803b158015610f6857600080fd5b505afa158015610f7c573d6000803e3d6000fd5b505050506040513d601f19601f82011682018060405250810190610fa0919061339e565b915050915091565b8115801590610fd2575081670de0b6b3a7640000610fc68183613618565b610fd09190613745565b145b610fee5760405162461bcd60e51b81526004016103da906134b4565b610ff781611001565b6103f633836117db565b600860009054906101000a90046001600160a01b03166001600160a01b0316636bb9e4cb6040518163ffffffff1660e01b815260040160206040518083038186803b15801561104f57600080fd5b505afa158015611063573d6000803e3d6000fd5b505050506040513d601f19601f820116820180604052508101906110879190613289565b6007548251602084015160408086015160608701516080880151925162da15e960e71b81526001600160a01b0396871660048201526024810195909552604485019390935260ff166064840152608483019190915260a4820152911690636d0af4809060c401600060405180830381600087803b15801561110757600080fd5b505af115801561111b573d6000803e3d6000fd5b5050505050565b60105460ff16156111455760405162461bcd60e51b81526004016103da906135b6565b6010805460ff1916600117905561115a6126b3565b505060008061116884612b07565b915091506000611177846125f6565b905081811261119657508061118b816125ba565b9350600091506111a3565b6111a081836137e7565b91505b600860009054906101000a90046001600160a01b03166001600160a01b0316638ac848ca6040518163ffffffff1660e01b815260040160206040518083038186803b1580156111f157600080fd5b505afa158015611205573d6000803e3d6000fd5b505050506040513d601f19601f82011682018060405250810190611229919061339e565b6112338484612bb8565b12156112515760405162461bcd60e51b81526004016103da90613574565b61125c858484612cfe565b6112668585612635565b846001600160a01b03167f318a9cd646c737e6331915189b674d6d06ae71b28df0f50e7a6dfe101a129387856040516112a191815260200190565b60405180910390a250506010805460ff19169055505050565b60105460ff16156112dd5760405162461bcd60e51b81526004016103da906135b6565b6010805460ff191660011790556112f26126b3565b505060008061130083612b07565b91509150600860009054906101000a90046001600160a01b03166001600160a01b0316630adf8e926040518163ffffffff1660e01b815260040160206040518083038186803b15801561135257600080fd5b505afa158015611366573d6000803e3d6000fd5b505050506040513d601f19601f8201168201806040525081019061138a919061339e565b6113948383612bb8565b126113e15760405162461bcd60e51b815260206004820152601f60248201527f50657270657475616c506f6f6c3a2063616e6e6f74206c69717569646174650060448201526064016103da565b81518190156114f7578251600e80546000906113fe9084906137e7565b90915550506020830151600f805460009061141a9084906137e7565b9091555050602080840151600854604080516333f359d160e21b815290519293670de0b6b3a7640000936001600160a01b039093169263cfcd6744926004808201939291829003018186803b15801561147257600080fd5b505afa158015611486573d6000803e3d6000fd5b505050506040513d601f19601f820116820180604052508101906114aa919061339e565b600c548651670de0b6b3a7640000916114c291613745565b6114cc9190613618565b6114d69190613745565b6114e09190613618565b6114ea91906137e7565b6114f490826135d7565b90505b600080600860009054906101000a90046001600160a01b03166001600160a01b031663ddd18d306040518163ffffffff1660e01b815260040160206040518083038186803b15801561154857600080fd5b505afa15801561155c573d6000803e3d6000fd5b505050506040513d601f19601f82011682018060405250810190611580919061339e565b90506000600860009054906101000a90046001600160a01b03166001600160a01b031663ab78ace46040518163ffffffff1660e01b815260040160206040518083038186803b1580156115d257600080fd5b505afa1580156115e6573d6000803e3d6000fd5b505050506040513d601f19601f8201168201806040525081019061160a919061339e565b905081841361161b578192506116e5565b80841261162a578092506116e5565b81670de0b6b3a7640000600860009054906101000a90046001600160a01b03166001600160a01b03166346d2d2d86040518163ffffffff1660e01b815260040160206040518083038186803b15801561168257600080fd5b505afa158015611696573d6000803e3d6000fd5b505050506040513d601f19601f820116820180604052508101906116ba919061339e565b6116c485886137e7565b6116ce9190613745565b6116d89190613618565b6116e291906135d7565b92505b6116ef83866137e7565b6009600082825461170091906135d7565b90915550506004805460405163226bf2d160e21b81526001600160a01b038a8116938201939093529116906389afcb4490602401600060405180830381600087803b15801561174e57600080fd5b505af1158015611762573d6000803e3d6000fd5b5050505061177888611773856125ba565b612635565b876001600160a01b0316876001600160a01b03167faef3faf684172084346f7dc2cc3bb1328d1cc23caec12dd9a82d4a4e56c00b176117b6866125ba565b60405190815260200160405180910390a350506010805460ff19169055505050505050565b60105460ff16156117fe5760405162461bcd60e51b81526004016103da906135b6565b6010805460ff191660011790556000806118166126b3565b9150915060008061182686612b07565b9150915061186a6040518060e00160405280600081526020016000815260200160008152602001600081526020016000815260200160008152602001600081525090565b600e548152600c54602080830191909152600854604080516333f359d160e21b815290516001600160a01b039092169263cfcd674492600480840193829003018186803b1580156118ba57600080fd5b505afa1580156118ce573d6000803e3d6000fd5b505050506040513d601f19601f820116820180604052508101906118f2919061339e565b604082018190526020820151670de0b6b3a764000091908290611915908a613745565b61191f9190613618565b6119299190613745565b6119339190613618565b606082015260085460408051638b3415b960e01b81529051670de0b6b3a7640000926001600160a01b031691638b3415b9916004808301926020929190829003018186803b15801561198457600080fd5b505afa158015611998573d6000803e3d6000fd5b505050506040513d601f19601f820116820180604052508101906119bc919061339e565b6119c98360600151612dcb565b6119d39190613745565b6119dd9190613618565b608082015282516000138015906119f5575060008612155b158015611a1257508251600012801590611a10575060008613155b155b15611aa3576000611a268460000151612dcb565b90506000611a3388612dcb565b9050808213611a7057846020015181838560600151611a529190613745565b611a5c9190613618565b611a6691906135d7565b60a0840152611aa0565b826060015182828760200151611a869190613745565b611a909190613618565b611a9a91906135d7565b60a08401525b50505b670de0b6b3a76400008160400151670de0b6b3a76400008360200151611acc8560000151612dcb565b8551611ae290611add908d906135d7565b612dcb565b611aec91906137e7565b611af69190613745565b611b009190613618565b611b0a9190613745565b611b149190613618565b611b1e90856135d7565b93508583600001818151611b3291906135d7565b90525060a08101516060820151611b4991906137e7565b83602001818151611b5a91906135d7565b905250600d54604084015260a08101516080820151611b7991906135d7565b611b8390836137e7565b915085600c6002016000828254611b9a91906135d7565b909155505060a08101516060820151611bb391906137e7565b600f8054600090611bc59084906135d7565b909155505060085460408051633e520d5960e21b81529051670de0b6b3a7640000926001600160a01b03169163f9483564916004808301926020929190829003018186803b158015611c1657600080fd5b505afa158015611c2a573d6000803e3d6000fd5b505050506040513d601f19601f82011682018060405250810190611c4e919061339e565b8260800151611c5d9190613745565b611c679190613618565b60c08201819052600b8054600090611c809084906135d7565b909155505060a081015160c08201516080830151611c9e91906137e7565b611ca891906135d7565b60096000828254611cb991906135d7565b9091555050831580611d6c5750600860009054906101000a90046001600160a01b03166001600160a01b031663c42243c16040518163ffffffff1660e01b815260040160206040518083038186803b158015611d1457600080fd5b505afa158015611d28573d6000803e3d6000fd5b505050506040513d601f19601f82011682018060405250810190611d4c919061339e565b84611d5f670de0b6b3a764000088613745565b611d699190613618565b12155b611dc65760405162461bcd60e51b815260206004820152602560248201527f50657270657475616c506f6f6c3a20696e73756666696369656e74206c697175604482015264696469747960d81b60648201526084016103da565b600860009054906101000a90046001600160a01b03166001600160a01b0316638ac848ca6040518163ffffffff1660e01b815260040160206040518083038186803b158015611e1457600080fd5b505afa158015611e28573d6000803e3d6000fd5b505050506040513d601f19601f82011682018060405250810190611e4c919061339e565b611e568484612bb8565b1215611e745760405162461bcd60e51b81526004016103da90613574565b611e7f878484612cfe565b866001600160a01b03167fe9b9a6b9b3b7df275a3b89328628d89ee68f326bff47da3b67e7e56a5eeead9f87611eb884602001516125ba565b604080519283526020830191909152015b60405180910390a250506010805460ff191690555050505050565b60105460ff1615611f075760405162461bcd60e51b81526004016103da906135b6565b6010805460ff191660011790556000611f1e6126b3565b509050611f2b8383612e18565b91506000600360009054906101000a90046001600160a01b031690506000816001600160a01b03166318160ddd6040518163ffffffff1660e01b815260040160206040518083038186803b158015611f8257600080fd5b505afa158015611f96573d6000803e3d6000fd5b505050506040513d601f19601f82011682018060405250810190611fba919061339e565b9050600081611fca575083611fea565b611fd3846125ba565b611fdd83876137c8565b611fe79190613646565b90505b6040516340c10f1960e01b81526001600160a01b038781166004830152602482018390528416906340c10f1990604401600060405180830381600087803b15801561203457600080fd5b505af1158015612048573d6000803e3d6000fd5b50505050612055856125f6565b6009600082825461206691906135d7565b909155505060408051828152602081018790526001600160a01b038816917f06239653922ac7bea6aa2b19dc486b9361821d37712eb796adfd38d81de278ca910160405180910390a250506010805460ff1916905550505050565b60105460ff16156120e45760405162461bcd60e51b81526004016103da906135b6565b6010805460ff191660011790556120fb8282612e18565b60048054604051637b51e92760e11b81526001600160a01b03868116938201939093529293501690819063f6a3d24e9060240160206040518083038186803b15801561214657600080fd5b505afa15801561215a573d6000803e3d6000fd5b505050506040513d601f19601f8201168201806040525081019061217e9190613366565b6121de576040516335313c2160e11b81526001600160a01b038481166004830152821690636a62784290602401600060405180830381600087803b1580156121c557600080fd5b505af11580156121d9573d6000803e3d6000fd5b505050505b806001600160a01b031663ac2681c6846121f7856125f6565b6040516001600160e01b031960e085901b1681526001600160a01b0390921660048301526024820152604401600060405180830381600087803b15801561223d57600080fd5b505af1158015612251573d6000803e3d6000fd5b50505050826001600160a01b03167f278e696bd0cd4a7d1260ced26c40cd01c2b088f441889e4148240ac81069b3488360405161229091815260200190565b60405180910390a250506010805460ff1916905550565b60105460ff16156122ca5760405162461bcd60e51b81526004016103da906135b6565b6010805460ff191660011790556000806122e26126b3565b600354604080516318160ddd60e01b815290519395509193506001600160a01b03169160009183916318160ddd91600480820192602092909190829003018186803b15801561233057600080fd5b505afa158015612344573d6000803e3d6000fd5b505050506040513d601f19601f82011682018060405250810190612368919061339e565b9050600081612376866125ba565b61238090886137c8565b61238a9190613646565b9050612395816125f6565b600960008282546123a691906137e7565b909155505083158061246d5750600860009054906101000a90046001600160a01b03166001600160a01b031663c42243c16040518163ffffffff1660e01b815260040160206040518083038186803b15801561240157600080fd5b505afa158015612415573d6000803e3d6000fd5b505050506040513d601f19601f82011682018060405250810190612439919061339e565b84670de0b6b3a764000061244c846125f6565b61245690896137e7565b6124609190613745565b61246a9190613618565b12155b6124c95760405162461bcd60e51b815260206004820152602760248201527f50657270657475616c506f6f6c3a20706f6f6c20696e73756666696369656e746044820152661036b0b933b4b760c91b60648201526084016103da565b604051632770a7eb60e21b81526001600160a01b03888116600483015260248201889052841690639dc29fac90604401600060405180830381600087803b15801561251357600080fd5b505af1158015612527573d6000803e3d6000fd5b505050506125358782612635565b60408051878152602081018390526001600160a01b038916917f0fbf06c058b90cb038a618f8c2acbf6145f8b3570fd1fa56abb8f0f3f05b36e89101611ec9565b60008183146125ae5761258a83600a61369d565b61259583600a61369d565b61259f90866137c8565b6125a99190613646565b6125b0565b835b90505b9392505050565b6000808212156125f25760405162461bcd60e51b815260206004820152600360248201526249554f60e81b60448201526064016103da565b5090565b60006001600160ff1b038211156125f25760405162461bcd60e51b815260206004820152600360248201526255494f60e81b60448201526064016103da565b600061264f6012600154846125769092919063ffffffff16565b9050600061266b6001546012846125769092919063ffffffff16565b6126759084613826565b9050612680816125f6565b600b600082825461269191906135d7565b90915550506002546126ad906001600160a01b03168584612e58565b50505050565b600a546009549060009043818111156127bf5760085460408051636bb9e4cb60e01b815290516127bb926001600160a01b031691636bb9e4cb916004808301926020929190829003018186803b15801561270c57600080fd5b505afa158015612720573d6000803e3d6000fd5b505050506040513d601f19601f820116820180604052508101906127449190613289565b6001600160a01b03166398d5fdca6040518163ffffffff1660e01b8152600401602060405180830381600087803b15801561277e57600080fd5b505af1158015612792573d6000803e3d6000fd5b505050506040513d601f19601f820116820180604052508101906127b6919061339e565b6125f6565b600c555b600e54156128c2576000670de0b6b3a7640000600860009054906101000a90046001600160a01b03166001600160a01b031663cfcd67446040518163ffffffff1660e01b815260040160206040518083038186803b15801561282057600080fd5b505afa158015612834573d6000803e3d6000fd5b505050506040513d601f19601f82011682018060405250810190612858919061339e565b600c54600e54670de0b6b3a76400009161287191613745565b61287b9190613618565b6128859190613745565b61288f9190613618565b600f5490915061289f90826137e7565b6128a990866137e7565b94506128b481612dcb565b6128be90856135d7565b9350505b81811115612aff57600e5415612aff57600084600860009054906101000a90046001600160a01b03166001600160a01b031663e7a06ffe6040518163ffffffff1660e01b815260040160206040518083038186803b15801561292357600080fd5b505afa158015612937573d6000803e3d6000fd5b505050506040513d601f19601f8201168201806040525081019061295b919061339e565b600854604080516333f359d160e21b81529051670de0b6b3a7640000926001600160a01b03169163cfcd6744916004808301926020929190829003018186803b1580156129a757600080fd5b505afa1580156129bb573d6000803e3d6000fd5b505050506040513d601f19601f820116820180604052508101906129df919061339e565b600854604080516333f359d160e21b81529051670de0b6b3a7640000926001600160a01b03169163cfcd6744916004808301926020929190829003018186803b158015612a2b57600080fd5b505afa158015612a3f573d6000803e3d6000fd5b505050506040513d601f19601f82011682018060405250810190612a63919061339e565b600c54600e54670de0b6b3a764000091908290612a81908390613745565b612a8b9190613618565b612a959190613745565b612a9f9190613618565b612aa99190613745565b612ab39190613618565b612abd9190613745565b612ac79190613618565b612ad19190613745565b612adb9190613618565b90506000612ae98484613826565b612af39083613745565b600d8054909101905550505b600a55509091565b612b2b60405180606001604052806000815260200160008152602001600081525090565b6000612b3683610e7a565b8151919350915060009015612b8857600d546040840151845190820390670de0b6b3a764000090612b68908390613745565b612b729190613618565b612b7c90846135d7565b60408601929092525090505b8015612bb257612b9881836137e7565b91508060096000828254612bac91906135d7565b90915550505b50915091565b81516000908290829015612cc2576000670de0b6b3a7640000600860009054906101000a90046001600160a01b03166001600160a01b031663cfcd67446040518163ffffffff1660e01b815260040160206040518083038186803b158015612c1f57600080fd5b505afa158015612c33573d6000803e3d6000fd5b505050506040513d601f19601f82011682018060405250810190612c57919061339e565b600c548851670de0b6b3a764000091612c6f91613745565b612c799190613618565b612c839190613745565b612c8d9190613618565b9050856020015181612c9f91906137e7565b612ca990846135d7565b9250612cb481612dcb565b612cbe90836135d7565b9150505b8015612cea5780612cdb670de0b6b3a764000084613745565b612ce59190613618565b612cf3565b6001600160ff1b035b925050505b92915050565b600480546040516388f74d0960e01b81526001600160a01b039091169182916388f74d0991612d31918891889101613450565b600060405180830381600087803b158015612d4b57600080fd5b505af1158015612d5f573d6000803e3d6000fd5b5050604051631a9c941f60e01b81526001600160a01b0387811660048301526024820186905284169250631a9c941f9150604401600060405180830381600087803b158015612dad57600080fd5b505af1158015612dc1573d6000803e3d6000fd5b5050505050505050565b6000600160ff1b821415612e065760405162461bcd60e51b8152602060048201526002602482015261414f60f01b60448201526064016103da565b60008212156125f257612cf882613869565b600080612e3d8430612e386012600154886125769092919063ffffffff16565b612ebb565b600154909150612e509082906012612576565b949350505050565b6040516001600160a01b038316602482015260448101829052610db490849063a9059cbb60e01b906064015b60408051601f198184030181529190526020810180516001600160e01b03166001600160e01b031990931692909217909152612fe8565b6002546040516370a0823160e01b81526001600160a01b0384811660048301526000921690829082906370a082319060240160206040518083038186803b158015612f0557600080fd5b505afa158015612f19573d6000803e3d6000fd5b505050506040513d601f19601f82011682018060405250810190612f3d919061339e565b9050612f546001600160a01b0383168787876130ba565b6040516370a0823160e01b81526001600160a01b038681166004830152600091908416906370a082319060240160206040518083038186803b158015612f9957600080fd5b505afa158015612fad573d6000803e3d6000fd5b505050506040513d601f19601f82011682018060405250810190612fd1919061339e565b9050612fdd8282613826565b979650505050505050565b600061303d826040518060400160405280602081526020017f5361666545524332303a206c6f772d6c6576656c2063616c6c206661696c6564815250856001600160a01b03166130f29092919063ffffffff16565b805190915015610db4578080602001905181019061305b9190613366565b610db45760405162461bcd60e51b815260206004820152602a60248201527f5361666545524332303a204552433230206f7065726174696f6e20646964206e6044820152691bdd081cdd58d8d9595960b21b60648201526084016103da565b6040516001600160a01b03808516602483015283166044820152606481018290526126ad9085906323b872dd60e01b90608401612e84565b60606125b0848460008585843b61314b5760405162461bcd60e51b815260206004820152601d60248201527f416464726573733a2063616c6c20746f206e6f6e2d636f6e747261637400000060448201526064016103da565b600080866001600160a01b031685876040516131679190613434565b60006040518083038185875af1925050503d80600081146131a4576040519150601f19603f3d011682016040523d82523d6000602084013e6131a9565b606091505b5091509150612fdd828286606083156131c35750816125b3565b8251156131d35782518084602001fd5b8160405162461bcd60e51b81526004016103da9190613481565b600060a082840312156131fe578081fd5b60405160a0810181811067ffffffffffffffff82111715613221576132216138af565b80604052508091508235815260208301356020820152604083013560ff8116811461324b57600080fd5b8060408301525060608301356060820152608083013560808201525092915050565b60006020828403121561327e578081fd5b81356125b3816138c5565b60006020828403121561329a578081fd5b81516125b3816138c5565b60008060c083850312156132b7578081fd5b82356132c2816138c5565b91506132d184602085016131ed565b90509250929050565b600060c082840312156132eb578081fd5b82601f8301126132f9578081fd5b60405160c0810181811067ffffffffffffffff8211171561331c5761331c6138af565b604052808360c08101861015613330578384fd5b835b600681101561335b578135613346816138c5565b83526020928301929190910190600101613332565b509195945050505050565b600060208284031215613377578081fd5b815180151581146125b3578182fd5b600060208284031215613397578081fd5b5035919050565b6000602082840312156133af578081fd5b5051919050565b60008060c083850312156133c8578182fd5b823591506132d184602085016131ed565b6000606082840312156133ea578081fd5b6040516060810181811067ffffffffffffffff8211171561340d5761340d6138af565b80604052508251815260208301516020820152604083015160408201528091505092915050565b6000825161344681846020870161383d565b9190910192915050565b6001600160a01b0383168152608081016125b360208301848051825260208082015190830152604090810151910152565b60208152600082518060208401526134a081604085016020870161383d565b601f01601f19169190910160400192915050565b60208082526022908201527f50657270657475616c506f6f6c3a20696e76616c6964207472616465566f6c756040820152616d6560f01b606082015260800190565b60208082526018908201527f50657270657475616c506f6f6c3a20302062416d6f756e740000000000000000604082015260600190565b60208082526027908201527f50657270657475616c506f6f6c3a206e6f74207175616c6966696564206c69716040820152663ab4b230ba37b960c91b606082015260800190565b60208082526022908201527f50657270657475616c506f6f6c3a20696e73756666696369656e74206d61726760408201526134b760f11b606082015260800190565b6020808252600790820152667265656e74727960c81b604082015260600190565b600080821280156001600160ff1b03849003851316156135f9576135f9613883565b600160ff1b839003841281161561361257613612613883565b50500190565b60008261362757613627613899565b600160ff1b82146000198414161561364157613641613883565b500590565b60008261365557613655613899565b500490565b600181815b8085111561369557816000190482111561367b5761367b613883565b8085161561368857918102915b93841c939080029061365f565b509250929050565b60006125b383836000826136b357506001612cf8565b816136c057506000612cf8565b81600181146136d657600281146136e0576136fc565b6001915050612cf8565b60ff8411156136f1576136f1613883565b50506001821b612cf8565b5060208310610133831016604e8410600b841016171561371f575081810a612cf8565b613729838361365a565b806000190482111561373d5761373d613883565b029392505050565b60006001600160ff1b038184138284138082168684048611161561376b5761376b613883565b600160ff1b8487128281168783058912161561378957613789613883565b8587129250878205871284841616156137a4576137a4613883565b878505871281841616156137ba576137ba613883565b505050929093029392505050565b60008160001904831182151516156137e2576137e2613883565b500290565b60008083128015600160ff1b85018412161561380557613805613883565b6001600160ff1b038401831381161561382057613820613883565b50500390565b60008282101561383857613838613883565b500390565b60005b83811015613858578181015183820152602001613840565b838111156126ad5750506000910152565b6000600160ff1b82141561387f5761387f613883565b0390565b634e487b7160e01b600052601160045260246000fd5b634e487b7160e01b600052601260045260246000fd5b634e487b7160e01b600052604160045260246000fd5b6001600160a01b038116811461055a57600080fdfea26469706673582212205b74bc9aea71f93d2a20c4fd620eaadbe341be1b7550eb0379797728db924a5b64736f6c63430008040033",
  "devdoc": {
    "kind": "dev",
    "methods": {},
    "version": 1
  },
  "userdoc": {
    "kind": "user",
    "methods": {},
    "version": 1
  },
  "storageLayout": {
    "storage": [
      {
        "astId": 5461,
        "contract": "contracts/perpetual_futures/PerpetualPoolLite.sol:PerpetualPoolLite",
        "label": "_initialized",
        "offset": 0,
        "slot": "0",
        "type": "t_bool"
      },
      {
        "astId": 5464,
        "contract": "contracts/perpetual_futures/PerpetualPoolLite.sol:PerpetualPoolLite",
        "label": "_initializing",
        "offset": 1,
        "slot": "0",
        "type": "t_bool"
      },
      {
        "astId": 11439,
        "contract": "contracts/perpetual_futures/PerpetualPoolLite.sol:PerpetualPoolLite",
        "label": "_decimals",
        "offset": 0,
        "slot": "1",
        "type": "t_uint256"
      },
      {
        "astId": 11441,
        "contract": "contracts/perpetual_futures/PerpetualPoolLite.sol:PerpetualPoolLite",
        "label": "_bTokenAddress",
        "offset": 0,
        "slot": "2",
        "type": "t_address"
      },
      {
        "astId": 11443,
        "contract": "contracts/perpetual_futures/PerpetualPoolLite.sol:PerpetualPoolLite",
        "label": "_lTokenAddress",
        "offset": 0,
        "slot": "3",
        "type": "t_address"
      },
      {
        "astId": 11445,
        "contract": "contracts/perpetual_futures/PerpetualPoolLite.sol:PerpetualPoolLite",
        "label": "_pTokenAddress",
        "offset": 0,
        "slot": "4",
        "type": "t_address"
      },
      {
        "astId": 11447,
        "contract": "contracts/perpetual_futures/PerpetualPoolLite.sol:PerpetualPoolLite",
        "label": "_liquidatorQualifierAddress",
        "offset": 0,
        "slot": "5",
        "type": "t_address"
      },
      {
        "astId": 11449,
        "contract": "contracts/perpetual_futures/PerpetualPoolLite.sol:PerpetualPoolLite",
        "label": "_protocolFeeCollector",
        "offset": 0,
        "slot": "6",
        "type": "t_address"
      },
      {
        "astId": 11451,
        "contract": "contracts/perpetual_futures/PerpetualPoolLite.sol:PerpetualPoolLite",
        "label": "_underlyingAddress",
        "offset": 0,
        "slot": "7",
        "type": "t_address"
      },
      {
        "astId": 11456,
        "contract": "contracts/perpetual_futures/PerpetualPoolLite.sol:PerpetualPoolLite",
        "label": "_protocolParameters",
        "offset": 0,
        "slot": "8",
        "type": "t_contract(FuturesProtocolParameters)19218"
      },
      {
        "astId": 11458,
        "contract": "contracts/perpetual_futures/PerpetualPoolLite.sol:PerpetualPoolLite",
        "label": "_liquidity",
        "offset": 0,
        "slot": "9",
        "type": "t_int256"
      },
      {
        "astId": 11460,
        "contract": "contracts/perpetual_futures/PerpetualPoolLite.sol:PerpetualPoolLite",
        "label": "_lastUpdateBlock",
        "offset": 0,
        "slot": "10",
        "type": "t_uint256"
      },
      {
        "astId": 11462,
        "contract": "contracts/perpetual_futures/PerpetualPoolLite.sol:PerpetualPoolLite",
        "label": "_protocolFeeAccrued",
        "offset": 0,
        "slot": "11",
        "type": "t_int256"
      },
      {
        "astId": 11465,
        "contract": "contracts/perpetual_futures/PerpetualPoolLite.sol:PerpetualPoolLite",
        "label": "_symbol",
        "offset": 0,
        "slot": "12",
        "type": "t_struct(SymbolInfo)16214_storage"
      },
      {
        "astId": 11467,
        "contract": "contracts/perpetual_futures/PerpetualPoolLite.sol:PerpetualPoolLite",
        "label": "_mutex",
        "offset": 0,
        "slot": "16",
        "type": "t_bool"
      }
    ],
    "types": {
      "t_address": {
        "encoding": "inplace",
        "label": "address",
        "numberOfBytes": "20"
      },
      "t_bool": {
        "encoding": "inplace",
        "label": "bool",
        "numberOfBytes": "1"
      },
      "t_contract(FuturesProtocolParameters)19218": {
        "encoding": "inplace",
        "label": "contract FuturesProtocolParameters",
        "numberOfBytes": "20"
      },
      "t_int256": {
        "encoding": "inplace",
        "label": "int256",
        "numberOfBytes": "32"
      },
      "t_struct(SymbolInfo)16214_storage": {
        "encoding": "inplace",
        "label": "struct IPerpetualPoolLite.SymbolInfo",
        "members": [
          {
            "astId": 16207,
            "contract": "contracts/perpetual_futures/PerpetualPoolLite.sol:PerpetualPoolLite",
            "label": "price",
            "offset": 0,
            "slot": "0",
            "type": "t_int256"
          },
          {
            "astId": 16209,
            "contract": "contracts/perpetual_futures/PerpetualPoolLite.sol:PerpetualPoolLite",
            "label": "cumulativeFundingRate",
            "offset": 0,
            "slot": "1",
            "type": "t_int256"
          },
          {
            "astId": 16211,
            "contract": "contracts/perpetual_futures/PerpetualPoolLite.sol:PerpetualPoolLite",
            "label": "tradersNetVolume",
            "offset": 0,
            "slot": "2",
            "type": "t_int256"
          },
          {
            "astId": 16213,
            "contract": "contracts/perpetual_futures/PerpetualPoolLite.sol:PerpetualPoolLite",
            "label": "tradersNetCost",
            "offset": 0,
            "slot": "3",
            "type": "t_int256"
          }
        ],
        "numberOfBytes": "128"
      },
      "t_uint256": {
        "encoding": "inplace",
        "label": "uint256",
        "numberOfBytes": "32"
      }
    }
  }
}