{
  "address": "0x54Ba0cC954Aa5444f101c0d9C99Bcbb02F557040",
  "abi": [
    {
      "inputs": [
        {
          "internalType": "address[2]",
          "name": "addresses",
          "type": "address[2]"
        }
      ],
      "stateMutability": "nonpayable",
      "type": "constructor"
    },
    {
      "anonymous": false,
      "inputs": [
        {
          "indexed": true,
          "internalType": "address",
          "name": "account",
          "type": "address"
        },
        {
          "indexed": false,
          "internalType": "uint256",
          "name": "lShares",
          "type": "uint256"
        },
        {
          "indexed": false,
          "internalType": "uint256",
          "name": "bAmount",
          "type": "uint256"
        }
      ],
      "name": "AddLiquidity",
      "type": "event"
    },
    {
      "anonymous": false,
      "inputs": [
        {
          "indexed": true,
          "internalType": "address",
          "name": "account",
          "type": "address"
        },
        {
          "indexed": false,
          "internalType": "uint256",
          "name": "bAmount",
          "type": "uint256"
        }
      ],
      "name": "AddMargin",
      "type": "event"
    },
    {
      "anonymous": false,
      "inputs": [
        {
          "indexed": true,
          "internalType": "address",
          "name": "account",
          "type": "address"
        },
        {
          "indexed": true,
          "internalType": "address",
          "name": "liquidator",
          "type": "address"
        },
        {
          "indexed": false,
          "internalType": "uint256",
          "name": "reward",
          "type": "uint256"
        }
      ],
      "name": "Liquidate",
      "type": "event"
    },
    {
      "anonymous": false,
      "inputs": [
        {
          "indexed": true,
          "internalType": "address",
          "name": "collector",
          "type": "address"
        },
        {
          "indexed": false,
          "internalType": "uint256",
          "name": "amount",
          "type": "uint256"
        }
      ],
      "name": "ProtocolFeeCollection",
      "type": "event"
    },
    {
      "anonymous": false,
      "inputs": [
        {
          "indexed": true,
          "internalType": "address",
          "name": "account",
          "type": "address"
        },
        {
          "indexed": false,
          "internalType": "uint256",
          "name": "lShares",
          "type": "uint256"
        },
        {
          "indexed": false,
          "internalType": "uint256",
          "name": "bAmount",
          "type": "uint256"
        }
      ],
      "name": "RemoveLiquidity",
      "type": "event"
    },
    {
      "anonymous": false,
      "inputs": [
        {
          "indexed": true,
          "internalType": "address",
          "name": "account",
          "type": "address"
        },
        {
          "indexed": false,
          "internalType": "uint256",
          "name": "bAmount",
          "type": "uint256"
        }
      ],
      "name": "RemoveMargin",
      "type": "event"
    },
    {
      "anonymous": false,
      "inputs": [
        {
          "indexed": true,
          "internalType": "address",
          "name": "account",
          "type": "address"
        },
        {
          "indexed": false,
          "internalType": "int256",
          "name": "tradeVolume",
          "type": "int256"
        },
        {
          "indexed": false,
          "internalType": "uint256",
          "name": "price",
          "type": "uint256"
        }
      ],
      "name": "Trade",
      "type": "event"
    },
    {
      "inputs": [
        {
          "internalType": "uint256",
          "name": "bAmount",
          "type": "uint256"
        }
      ],
      "name": "addLiquidity",
      "outputs": [],
      "stateMutability": "nonpayable",
      "type": "function"
    },
    {
      "inputs": [
        {
          "internalType": "uint256",
          "name": "bAmount",
          "type": "uint256"
        },
        {
          "components": [
            {
              "internalType": "uint256",
              "name": "timestamp",
              "type": "uint256"
            },
            {
              "internalType": "uint256",
              "name": "price",
              "type": "uint256"
            },
            {
              "internalType": "uint8",
              "name": "v",
              "type": "uint8"
            },
            {
              "internalType": "bytes32",
              "name": "r",
              "type": "bytes32"
            },
            {
              "internalType": "bytes32",
              "name": "s",
              "type": "bytes32"
            }
          ],
          "internalType": "struct IPerpetualPoolLite.SignedPrice",
          "name": "price",
          "type": "tuple"
        }
      ],
      "name": "addLiquidity",
      "outputs": [],
      "stateMutability": "nonpayable",
      "type": "function"
    },
    {
      "inputs": [
        {
          "internalType": "uint256",
          "name": "bAmount",
          "type": "uint256"
        },
        {
          "components": [
            {
              "internalType": "uint256",
              "name": "timestamp",
              "type": "uint256"
            },
            {
              "internalType": "uint256",
              "name": "price",
              "type": "uint256"
            },
            {
              "internalType": "uint8",
              "name": "v",
              "type": "uint8"
            },
            {
              "internalType": "bytes32",
              "name": "r",
              "type": "bytes32"
            },
            {
              "internalType": "bytes32",
              "name": "s",
              "type": "bytes32"
            }
          ],
          "internalType": "struct IPerpetualPoolLite.SignedPrice",
          "name": "price",
          "type": "tuple"
        }
      ],
      "name": "addMargin",
      "outputs": [],
      "stateMutability": "nonpayable",
      "type": "function"
    },
    {
      "inputs": [
        {
          "internalType": "uint256",
          "name": "bAmount",
          "type": "uint256"
        }
      ],
      "name": "addMargin",
      "outputs": [],
      "stateMutability": "nonpayable",
      "type": "function"
    },
    {
      "inputs": [],
      "name": "collectProtocolFee",
      "outputs": [],
      "stateMutability": "nonpayable",
      "type": "function"
    },
    {
      "inputs": [],
      "name": "getAddresses",
      "outputs": [
        {
          "internalType": "address",
          "name": "bTokenAddress",
          "type": "address"
        },
        {
          "internalType": "address",
          "name": "lTokenAddress",
          "type": "address"
        },
        {
          "internalType": "address",
          "name": "pTokenAddress",
          "type": "address"
        },
        {
          "internalType": "address",
          "name": "liquidatorQualifierAddress",
          "type": "address"
        },
        {
          "internalType": "address",
          "name": "protocolFeeCollector",
          "type": "address"
        },
        {
          "internalType": "address",
          "name": "underlyingAddress",
          "type": "address"
        },
        {
          "internalType": "address",
          "name": "protocolAddress",
          "type": "address"
        }
      ],
      "stateMutability": "view",
      "type": "function"
    },
    {
      "inputs": [],
      "name": "getFundingRates",
      "outputs": [
        {
          "internalType": "int256",
          "name": "totalDynamicEquity",
          "type": "int256"
        },
        {
          "internalType": "int256",
          "name": "totalAbsCost",
          "type": "int256"
        },
        {
          "internalType": "int256",
          "name": "cumulativeFundingRate",
          "type": "int256"
        }
      ],
      "stateMutability": "view",
      "type": "function"
    },
    {
      "inputs": [],
      "name": "getLastUpdateBlock",
      "outputs": [
        {
          "internalType": "uint256",
          "name": "",
          "type": "uint256"
        }
      ],
      "stateMutability": "view",
      "type": "function"
    },
    {
      "inputs": [],
      "name": "getLiquidity",
      "outputs": [
        {
          "internalType": "int256",
          "name": "",
          "type": "int256"
        }
      ],
      "stateMutability": "view",
      "type": "function"
    },
    {
      "inputs": [],
      "name": "getParameters",
      "outputs": [
        {
          "internalType": "int256",
          "name": "minPoolMarginRatio",
          "type": "int256"
        },
        {
          "internalType": "int256",
          "name": "minInitialMarginRatio",
          "type": "int256"
        },
        {
          "internalType": "int256",
          "name": "minMaintenanceMarginRatio",
          "type": "int256"
        },
        {
          "internalType": "int256",
          "name": "minLiquidationReward",
          "type": "int256"
        },
        {
          "internalType": "int256",
          "name": "maxLiquidationReward",
          "type": "int256"
        },
        {
          "internalType": "int256",
          "name": "liquidationCutRatio",
          "type": "int256"
        },
        {
          "internalType": "int256",
          "name": "protocolFeeCollectRatio",
          "type": "int256"
        }
      ],
      "stateMutability": "view",
      "type": "function"
    },
    {
      "inputs": [],
      "name": "getProtocolFeeAccrued",
      "outputs": [
        {
          "internalType": "int256",
          "name": "",
          "type": "int256"
        }
      ],
      "stateMutability": "view",
      "type": "function"
    },
    {
      "inputs": [],
      "name": "getSymbol",
      "outputs": [
        {
          "components": [
            {
              "internalType": "int256",
              "name": "price",
              "type": "int256"
            },
            {
              "internalType": "int256",
              "name": "cumulativeFundingRate",
              "type": "int256"
            },
            {
              "internalType": "int256",
              "name": "tradersNetVolume",
              "type": "int256"
            },
            {
              "internalType": "int256",
              "name": "tradersNetCost",
              "type": "int256"
            }
          ],
          "internalType": "struct IPerpetualPoolLite.SymbolInfo",
          "name": "",
          "type": "tuple"
        }
      ],
      "stateMutability": "view",
      "type": "function"
    },
    {
      "inputs": [],
      "name": "getSymbolPriceAndMultiplier",
      "outputs": [
        {
          "internalType": "int256",
          "name": "price",
          "type": "int256"
        },
        {
          "internalType": "int256",
          "name": "multiplier",
          "type": "int256"
        }
      ],
      "stateMutability": "view",
      "type": "function"
    },
    {
      "inputs": [
        {
          "internalType": "address",
          "name": "account",
          "type": "address"
        }
      ],
      "name": "getTraderPortfolio",
      "outputs": [
        {
          "components": [
            {
              "internalType": "int256",
              "name": "volume",
              "type": "int256"
            },
            {
              "internalType": "int256",
              "name": "cost",
              "type": "int256"
            },
            {
              "internalType": "int256",
              "name": "lastCumulativeFundingRate",
              "type": "int256"
            }
          ],
          "internalType": "struct IPTokenLite.Position",
          "name": "position",
          "type": "tuple"
        },
        {
          "internalType": "int256",
          "name": "margin",
          "type": "int256"
        }
      ],
      "stateMutability": "view",
      "type": "function"
    },
    {
      "inputs": [
        {
          "internalType": "address[6]",
          "name": "addresses",
          "type": "address[6]"
        }
      ],
      "name": "initialize",
      "outputs": [],
      "stateMutability": "nonpayable",
      "type": "function"
    },
    {
      "inputs": [
        {
          "internalType": "address",
          "name": "account",
          "type": "address"
        }
      ],
      "name": "liquidate",
      "outputs": [],
      "stateMutability": "nonpayable",
      "type": "function"
    },
    {
      "inputs": [
        {
          "internalType": "address",
          "name": "account",
          "type": "address"
        },
        {
          "components": [
            {
              "internalType": "uint256",
              "name": "timestamp",
              "type": "uint256"
            },
            {
              "internalType": "uint256",
              "name": "price",
              "type": "uint256"
            },
            {
              "internalType": "uint8",
              "name": "v",
              "type": "uint8"
            },
            {
              "internalType": "bytes32",
              "name": "r",
              "type": "bytes32"
            },
            {
              "internalType": "bytes32",
              "name": "s",
              "type": "bytes32"
            }
          ],
          "internalType": "struct IPerpetualPoolLite.SignedPrice",
          "name": "price",
          "type": "tuple"
        }
      ],
      "name": "liquidate",
      "outputs": [],
      "stateMutability": "nonpayable",
      "type": "function"
    },
    {
      "inputs": [
        {
          "internalType": "uint256",
          "name": "lShares",
          "type": "uint256"
        }
      ],
      "name": "removeLiquidity",
      "outputs": [],
      "stateMutability": "nonpayable",
      "type": "function"
    },
    {
      "inputs": [
        {
          "internalType": "uint256",
          "name": "lShares",
          "type": "uint256"
        },
        {
          "components": [
            {
              "internalType": "uint256",
              "name": "timestamp",
              "type": "uint256"
            },
            {
              "internalType": "uint256",
              "name": "price",
              "type": "uint256"
            },
            {
              "internalType": "uint8",
              "name": "v",
              "type": "uint8"
            },
            {
              "internalType": "bytes32",
              "name": "r",
              "type": "bytes32"
            },
            {
              "internalType": "bytes32",
              "name": "s",
              "type": "bytes32"
            }
          ],
          "internalType": "struct IPerpetualPoolLite.SignedPrice",
          "name": "price",
          "type": "tuple"
        }
      ],
      "name": "removeLiquidity",
      "outputs": [],
      "stateMutability": "nonpayable",
      "type": "function"
    },
    {
      "inputs": [
        {
          "internalType": "uint256",
          "name": "bAmount",
          "type": "uint256"
        },
        {
          "components": [
            {
              "internalType": "uint256",
              "name": "timestamp",
              "type": "uint256"
            },
            {
              "internalType": "uint256",
              "name": "price",
              "type": "uint256"
            },
            {
              "internalType": "uint8",
              "name": "v",
              "type": "uint8"
            },
            {
              "internalType": "bytes32",
              "name": "r",
              "type": "bytes32"
            },
            {
              "internalType": "bytes32",
              "name": "s",
              "type": "bytes32"
            }
          ],
          "internalType": "struct IPerpetualPoolLite.SignedPrice",
          "name": "price",
          "type": "tuple"
        }
      ],
      "name": "removeMargin",
      "outputs": [],
      "stateMutability": "nonpayable",
      "type": "function"
    },
    {
      "inputs": [
        {
          "internalType": "uint256",
          "name": "bAmount",
          "type": "uint256"
        }
      ],
      "name": "removeMargin",
      "outputs": [],
      "stateMutability": "nonpayable",
      "type": "function"
    },
    {
      "inputs": [
        {
          "internalType": "int256",
          "name": "tradeVolume",
          "type": "int256"
        }
      ],
      "name": "trade",
      "outputs": [],
      "stateMutability": "nonpayable",
      "type": "function"
    },
    {
      "inputs": [
        {
          "internalType": "int256",
          "name": "tradeVolume",
          "type": "int256"
        },
        {
          "components": [
            {
              "internalType": "uint256",
              "name": "timestamp",
              "type": "uint256"
            },
            {
              "internalType": "uint256",
              "name": "price",
              "type": "uint256"
            },
            {
              "internalType": "uint8",
              "name": "v",
              "type": "uint8"
            },
            {
              "internalType": "bytes32",
              "name": "r",
              "type": "bytes32"
            },
            {
              "internalType": "bytes32",
              "name": "s",
              "type": "bytes32"
            }
          ],
          "internalType": "struct IPerpetualPoolLite.SignedPrice",
          "name": "price",
          "type": "tuple"
        }
      ],
      "name": "trade",
      "outputs": [],
      "stateMutability": "nonpayable",
      "type": "function"
    }
  ],
  "transactionHash": "0x57ff51fb9c69f648da26e89853690439edb73dd7cc1237579c773e0093f4fa2d",
  "args": [
    [
      "0x242f3ee310253b6bAD181637379D7997Bfdc7012",
      "0x8CcC3926534ea15dfD3888788F8b4f7bAfceb59b"
    ]
  ],
  "solcInputHash": "cad3e9ec40506369670c8a9d880f69f9",
  "bytecode": "0x60c06040523480156200001157600080fd5b50604051620040e4380380620040e4833981016040819052620000349162000074565b80516001600160601b0319606091821b81166080529151901b1660a0526200011f565b80516001600160a01b03811681146200006f57600080fd5b919050565b60006040828403121562000086578081fd5b82601f83011262000095578081fd5b604080519081016001600160401b0381118282101715620000ba57620000ba62000109565b8060405250808385604086011115620000d1578384fd5b835b6002811015620000fe57620000e88262000057565b83526020928301929190910190600101620000d3565b509195945050505050565b634e487b7160e01b600052604160045260246000fd5b60805160601c60a05160601c613ec76200021d600039600081816106100152818161071d015281816107b70152818161085101528181610b8e01528181610c1f01528181610cb001528181610d4101528181610dd201528181610e6301528181610ef4015281816111ee01528181611438015281816115e5015281816117510152818161188701528181611968015281816119fd01528181611ab801528181611d2201528181611df10152818161209b015281816121a4015281816122af0152818161295101528181612c6e01528181612d8d01528181612e9b01528181612f3501528181612fcf01526131ce015260006102b60152613ec76000f3fe608060405234801561001057600080fd5b506004361061014d5760003560e01c80639c8f9f23116100c3578063d608c07d1161007c578063d608c07d14610350578063de61838c14610358578063dfd198981461036b578063f11f854f14610388578063f12c9f0e1461039b578063fcd33b51146103d557600080fd5b80639c8f9f2314610256578063a39fac1214610269578063a43be948146102e5578063a5ea11da146102f8578063b5d4034514610335578063caa4b46a1461034857600080fd5b80633dc07fda116101155780633dc07fda146101d457806351c6590a146101e75780635756e84c146101fa57806371ffb8cb1461020d57806375fe9c7f146102305780637a2e87aa1461024357600080fd5b806307e2ee0f146101525780630910a5101461016957806314e841b91461017157806315070401146101865780632f865568146101c1575b600080fd5b6009545b6040519081526020015b60405180910390f35b600854610156565b61018461017f36600461396d565b6103e8565b005b61018e610428565b60405161016091908151815260208083015190820152604080830151908201526060918201519181019190915260800190565b6101846101cf366004613824565b610480565b6101846101e236600461393d565b610538565b6101846101f536600461393d565b61058b565b61018461020836600461396d565b6105b5565b6102156105e8565b60408051938452602084019290925290820152606001610160565b61018461023e36600461396d565b610994565b610184610251366004613891565b6109c7565b61018461026436600461393d565b610b02565b600254600354600454600554600654600754604080516001600160a01b039788168152958716602087015293861693850193909352908416606084015283166080830152821660a08201527f000000000000000000000000000000000000000000000000000000000000000090911660c082015260e001610160565b6101846102f336600461393d565b610b57565b610300610b81565b604080519788526020880196909652948601939093526060850191909152608084015260a083015260c082015260e001610160565b61018461034336600461396d565b610f99565b610184610ff7565b600a54610156565b61018461036636600461385c565b61111d565b6103736111e3565b60408051928352602083019190915201610160565b61018461039636600461393d565b611285565b6103ae6103a9366004613824565b6112af565b60408051835181526020808501519082015292810151908301526060820152608001610160565b6101846103e336600461396d565b6113dd565b600082116104115760405162461bcd60e51b815260040161040890613aad565b60405180910390fd5b61041a81611436565b6104243383611562565b5050565b6104536040518060800160405280600081526020016000815260200160008152602001600081525090565b5060408051608081018252600b548152600c546020820152600d5491810191909152600e54606082015290565b60055433906001600160a01b0316158061051257506005546040516337c203bd60e21b81526001600160a01b0383811660048301529091169063df080ef49060240160206040518083038186803b1580156104da57600080fd5b505afa1580156104ee573d6000803e3d6000fd5b505050506040513d601f19601f82011682018060405250810190610512919061391d565b61052e5760405162461bcd60e51b815260040161040890613ae4565b6104248183611705565b8015801590610562575080670de0b6b3a76400006105568183613bcf565b6105609190613cfc565b145b61057e5760405162461bcd60e51b815260040161040890613a6b565b6105883382611c68565b50565b600081116105ab5760405162461bcd60e51b815260040161040890613aad565b61058833826123d6565b600082116105d55760405162461bcd60e51b815260040161040890613aad565b6105de81611436565b61042433836125b3565b600954600b54600854600d549092600092839243919015610708576000670de0b6b3a76400007f00000000000000000000000000000000000000000000000000000000000000006001600160a01b031663cfcd67446040518163ffffffff1660e01b815260040160206040518083038186803b15801561066757600080fd5b505afa15801561067b573d6000803e3d6000fd5b505050506040513d601f19601f8201168201806040525081019061069f9190613955565b600d54670de0b6b3a7640000906106b7908690613cfc565b6106c19190613bcf565b6106cb9190613cfc565b6106d59190613bcf565b600e549091506106e59082613d9e565b6106ef9088613d9e565b96506106fa81612799565b6107049087613b8e565b9550505b8282111561098c57600d541561098c576000867f00000000000000000000000000000000000000000000000000000000000000006001600160a01b031663e7a06ffe6040518163ffffffff1660e01b815260040160206040518083038186803b15801561077457600080fd5b505afa158015610788573d6000803e3d6000fd5b505050506040513d601f19601f820116820180604052508101906107ac9190613955565b670de0b6b3a76400007f00000000000000000000000000000000000000000000000000000000000000006001600160a01b031663cfcd67446040518163ffffffff1660e01b815260040160206040518083038186803b15801561080e57600080fd5b505afa158015610822573d6000803e3d6000fd5b505050506040513d601f19601f820116820180604052508101906108469190613955565b670de0b6b3a76400007f00000000000000000000000000000000000000000000000000000000000000006001600160a01b031663cfcd67446040518163ffffffff1660e01b815260040160206040518083038186803b1580156108a857600080fd5b505afa1580156108bc573d6000803e3d6000fd5b505050506040513d601f19601f820116820180604052508101906108e09190613955565b670de0b6b3a764000088670de0b6b3a76400008a600b600201546109049190613cfc565b61090e9190613bcf565b6109189190613cfc565b6109229190613bcf565b61092c9190613cfc565b6109369190613bcf565b6109409190613cfc565b61094a9190613bcf565b6109549190613cfc565b61095e9190613bcf565b9050600061096c8585613ddd565b6109769083613cfc565b600c54909150610987908290613b8e565b955050505b505050909192565b600082116109b45760405162461bcd60e51b815260040161040890613aad565b6109bd81611436565b61042433836123d6565b600054610100900460ff16806109e0575060005460ff16155b610a435760405162461bcd60e51b815260206004820152602e60248201527f496e697469616c697a61626c653a20636f6e747261637420697320616c72656160448201526d191e481a5b9a5d1a585b1a5e995960921b6064820152608401610408565b600054610100900460ff16158015610a65576000805461ffff19166101011790555b8151600280546001600160a01b03199081166001600160a01b0393841617909155602084015160038054831691841691909117905560408401516004805483169184169190911790556060840151600580548316918416919091179055608084015160068054831691841691909117815560a08501516007805490931693169290921790556001558015610424576000805461ff00191690555050565b60008111610b4d5760405162461bcd60e51b815260206004820152601860248201527750657270657475616c506f6f6c3a2030206c53686172657360401b6044820152606401610408565b61058833826127f3565b60008111610b775760405162461bcd60e51b815260040161040890613aad565b61058833826125b3565b60008060008060008060007f00000000000000000000000000000000000000000000000000000000000000006001600160a01b031663c42243c16040518163ffffffff1660e01b815260040160206040518083038186803b158015610be557600080fd5b505afa158015610bf9573d6000803e3d6000fd5b505050506040513d601f19601f82011682018060405250810190610c1d9190613955565b7f00000000000000000000000000000000000000000000000000000000000000006001600160a01b0316638ac848ca6040518163ffffffff1660e01b815260040160206040518083038186803b158015610c7657600080fd5b505afa158015610c8a573d6000803e3d6000fd5b505050506040513d601f19601f82011682018060405250810190610cae9190613955565b7f00000000000000000000000000000000000000000000000000000000000000006001600160a01b0316630adf8e926040518163ffffffff1660e01b815260040160206040518083038186803b158015610d0757600080fd5b505afa158015610d1b573d6000803e3d6000fd5b505050506040513d601f19601f82011682018060405250810190610d3f9190613955565b7f00000000000000000000000000000000000000000000000000000000000000006001600160a01b031663ddd18d306040518163ffffffff1660e01b815260040160206040518083038186803b158015610d9857600080fd5b505afa158015610dac573d6000803e3d6000fd5b505050506040513d601f19601f82011682018060405250810190610dd09190613955565b7f00000000000000000000000000000000000000000000000000000000000000006001600160a01b031663ab78ace46040518163ffffffff1660e01b815260040160206040518083038186803b158015610e2957600080fd5b505afa158015610e3d573d6000803e3d6000fd5b505050506040513d601f19601f82011682018060405250810190610e619190613955565b7f00000000000000000000000000000000000000000000000000000000000000006001600160a01b03166346d2d2d86040518163ffffffff1660e01b815260040160206040518083038186803b158015610eba57600080fd5b505afa158015610ece573d6000803e3d6000fd5b505050506040513d601f19601f82011682018060405250810190610ef29190613955565b7f00000000000000000000000000000000000000000000000000000000000000006001600160a01b031663f94835646040518163ffffffff1660e01b815260040160206040518083038186803b158015610f4b57600080fd5b505afa158015610f5f573d6000803e3d6000fd5b505050506040513d601f19601f82011682018060405250810190610f839190613955565b959d949c50929a50909850965094509092509050565b60008211610fe45760405162461bcd60e51b815260206004820152601860248201527750657270657475616c506f6f6c3a2030206c53686172657360401b6044820152606401610408565b610fed81611436565b61042433836127f3565b6001546002546040516370a0823160e01b81523060048201526000926110869290916012916001600160a01b0316906370a082319060240160206040518083038186803b15801561104757600080fd5b505afa15801561105b573d6000803e3d6000fd5b505050506040513d601f19601f8201168201806040525081019061107f9190613955565b9190612b1d565b90506000611095600a54612b61565b9050818111156110a25750805b6110ab81612b99565b600a60008282546110bc9190613d9e565b90915550506006546110d7906001600160a01b031682612bd8565b6006546040518281526001600160a01b03909116907fdc9b9c7c232fac9d635ce55b58e41cca2c16aa6ad39a73973ce276d479ad6f2d9060200160405180910390a25050565b60055433906001600160a01b031615806111af57506005546040516337c203bd60e21b81526001600160a01b0383811660048301529091169063df080ef49060240160206040518083038186803b15801561117757600080fd5b505afa15801561118b573d6000803e3d6000fd5b505050506040513d601f19601f820116820180604052508101906111af919061391d565b6111cb5760405162461bcd60e51b815260040161040890613ae4565b6111d482611436565b6111de8184611705565b505050565b600080600b600001547f00000000000000000000000000000000000000000000000000000000000000006001600160a01b031663cfcd67446040518163ffffffff1660e01b815260040160206040518083038186803b15801561124557600080fd5b505afa158015611259573d6000803e3d6000fd5b505050506040513d601f19601f8201168201806040525081019061127d9190613955565b915091509091565b600081116112a55760405162461bcd60e51b815260040161040890613aad565b6105883382611562565b6112d360405180606001604052806000815260200160008152602001600081525090565b600480546040516316c1973960e01b81526001600160a01b03858116938201939093526000929091169081906316c197399060240160606040518083038186803b15801561132057600080fd5b505afa158015611334573d6000803e3d6000fd5b505050506040513d601f19601f820116820180604052508101906113589190613990565b604051637c27c4d160e11b81526001600160a01b0386811660048301529194509082169063f84f89a29060240160206040518083038186803b15801561139d57600080fd5b505afa1580156113b1573d6000803e3d6000fd5b505050506040513d601f19601f820116820180604052508101906113d59190613955565b915050915091565b8115801590611407575081670de0b6b3a76400006113fb8183613bcf565b6114059190613cfc565b145b6114235760405162461bcd60e51b815260040161040890613a6b565b61142c81611436565b6104243383611c68565b7f00000000000000000000000000000000000000000000000000000000000000006001600160a01b0316636bb9e4cb6040518163ffffffff1660e01b815260040160206040518083038186803b15801561148f57600080fd5b505afa1580156114a3573d6000803e3d6000fd5b505050506040513d601f19601f820116820180604052508101906114c79190613840565b6007548251602084015160408086015160608701516080880151925162da15e960e71b81526001600160a01b0396871660048201526024810195909552604485019390935260ff166064840152608483019190915260a4820152911690636d0af4809060c401600060405180830381600087803b15801561154757600080fd5b505af115801561155b573d6000803e3d6000fd5b5050505050565b600f5460ff16156115855760405162461bcd60e51b815260040161040890613b6d565b600f805460ff1916600117905561159a612c56565b50506000806115a884613102565b9150915060006115b784612b99565b90508181126115d65750806115cb81612b61565b9350600091506115e3565b6115e08183613d9e565b91505b7f00000000000000000000000000000000000000000000000000000000000000006001600160a01b0316638ac848ca6040518163ffffffff1660e01b815260040160206040518083038186803b15801561163c57600080fd5b505afa158015611650573d6000803e3d6000fd5b505050506040513d601f19601f820116820180604052508101906116749190613955565b61167e84846131b3565b121561169c5760405162461bcd60e51b815260040161040890613b2b565b6116a7858484613302565b6116b18585612bd8565b846001600160a01b03167f318a9cd646c737e6331915189b674d6d06ae71b28df0f50e7a6dfe101a129387856040516116ec91815260200190565b60405180910390a25050600f805460ff19169055505050565b600f5460ff16156117285760405162461bcd60e51b815260040161040890613b6d565b600f805460ff1916600117905561173d612c56565b505060008061174b83613102565b915091507f00000000000000000000000000000000000000000000000000000000000000006001600160a01b0316630adf8e926040518163ffffffff1660e01b815260040160206040518083038186803b1580156117a857600080fd5b505afa1580156117bc573d6000803e3d6000fd5b505050506040513d601f19601f820116820180604052508101906117e09190613955565b6117ea83836131b3565b126118375760405162461bcd60e51b815260206004820152601f60248201527f50657270657475616c506f6f6c3a2063616e6e6f74206c6971756964617465006044820152606401610408565b8151819015611963578251600d8054600090611854908490613d9e565b90915550506020830151600e8054600090611870908490613d9e565b925050819055508260200151670de0b6b3a76400007f00000000000000000000000000000000000000000000000000000000000000006001600160a01b031663cfcd67446040518163ffffffff1660e01b815260040160206040518083038186803b1580156118de57600080fd5b505afa1580156118f2573d6000803e3d6000fd5b505050506040513d601f19601f820116820180604052508101906119169190613955565b600b548651670de0b6b3a76400009161192e91613cfc565b6119389190613bcf565b6119429190613cfc565b61194c9190613bcf565b6119569190613d9e565b6119609082613b8e565b90505b6000807f00000000000000000000000000000000000000000000000000000000000000006001600160a01b031663ddd18d306040518163ffffffff1660e01b815260040160206040518083038186803b1580156119bf57600080fd5b505afa1580156119d3573d6000803e3d6000fd5b505050506040513d601f19601f820116820180604052508101906119f79190613955565b905060007f00000000000000000000000000000000000000000000000000000000000000006001600160a01b031663ab78ace46040518163ffffffff1660e01b815260040160206040518083038186803b158015611a5457600080fd5b505afa158015611a68573d6000803e3d6000fd5b505050506040513d601f19601f82011682018060405250810190611a8c9190613955565b9050818413611a9d57819250611b72565b808412611aac57809250611b72565b81670de0b6b3a76400007f00000000000000000000000000000000000000000000000000000000000000006001600160a01b03166346d2d2d86040518163ffffffff1660e01b815260040160206040518083038186803b158015611b0f57600080fd5b505afa158015611b23573d6000803e3d6000fd5b505050506040513d601f19601f82011682018060405250810190611b479190613955565b611b518588613d9e565b611b5b9190613cfc565b611b659190613bcf565b611b6f9190613b8e565b92505b611b7c8386613d9e565b60086000828254611b8d9190613b8e565b90915550506004805460405163226bf2d160e21b81526001600160a01b038a8116938201939093529116906389afcb4490602401600060405180830381600087803b158015611bdb57600080fd5b505af1158015611bef573d6000803e3d6000fd5b50505050611c0588611c0085612b61565b612bd8565b876001600160a01b0316876001600160a01b03167faef3faf684172084346f7dc2cc3bb1328d1cc23caec12dd9a82d4a4e56c00b17611c4386612b61565b60405190815260200160405180910390a35050600f805460ff19169055505050505050565b600f5460ff1615611c8b5760405162461bcd60e51b815260040161040890613b6d565b600f805460ff19166001179055600080611ca3612c56565b91509150600080611cb386613102565b91509150611cf76040518060e00160405280600081526020016000815260200160008152602001600081526020016000815260200160008152602001600081525090565b600d548152600b54602080830191909152604080516333f359d160e21b815290516001600160a01b037f0000000000000000000000000000000000000000000000000000000000000000169263cfcd67449260048082019391829003018186803b158015611d6457600080fd5b505afa158015611d78573d6000803e3d6000fd5b505050506040513d601f19601f82011682018060405250810190611d9c9190613955565b604082018190526020820151670de0b6b3a764000091908290611dbf908a613cfc565b611dc99190613bcf565b611dd39190613cfc565b611ddd9190613bcf565b816060018181525050670de0b6b3a76400007f00000000000000000000000000000000000000000000000000000000000000006001600160a01b0316638b3415b96040518163ffffffff1660e01b815260040160206040518083038186803b158015611e4857600080fd5b505afa158015611e5c573d6000803e3d6000fd5b505050506040513d601f19601f82011682018060405250810190611e809190613955565b611e8d8360600151612799565b611e979190613cfc565b611ea19190613bcf565b60808201528251600013801590611eb9575060008612155b158015611ed657508251600012801590611ed4575060008613155b155b15611f67576000611eea8460000151612799565b90506000611ef788612799565b9050808213611f3457846020015181838560600151611f169190613cfc565b611f209190613bcf565b611f2a9190613b8e565b60a0840152611f64565b826060015182828760200151611f4a9190613cfc565b611f549190613bcf565b611f5e9190613b8e565b60a08401525b50505b670de0b6b3a76400008160400151670de0b6b3a76400008360200151611f908560000151612799565b8551611fa690611fa1908d90613b8e565b612799565b611fb09190613d9e565b611fba9190613cfc565b611fc49190613bcf565b611fce9190613cfc565b611fd89190613bcf565b611fe29085613b8e565b93508583600001818151611ff69190613b8e565b90525060a0810151606082015161200d9190613d9e565b8360200181815161201e9190613b8e565b905250600c54604084015260a0810151608082015161203d9190613b8e565b6120479083613d9e565b915085600b600201600082825461205e9190613b8e565b909155505060a081015160608201516120779190613d9e565b600e8054600090612089908490613b8e565b92505081905550670de0b6b3a76400007f00000000000000000000000000000000000000000000000000000000000000006001600160a01b031663f94835646040518163ffffffff1660e01b815260040160206040518083038186803b1580156120f257600080fd5b505afa158015612106573d6000803e3d6000fd5b505050506040513d601f19601f8201168201806040525081019061212a9190613955565b82608001516121399190613cfc565b6121439190613bcf565b60c08201819052600a805460009061215c908490613b8e565b909155505060a081015160c0820151608083015161217a9190613d9e565b6121849190613b8e565b600860008282546121959190613b8e565b909155505083158061225357507f00000000000000000000000000000000000000000000000000000000000000006001600160a01b031663c42243c16040518163ffffffff1660e01b815260040160206040518083038186803b1580156121fb57600080fd5b505afa15801561220f573d6000803e3d6000fd5b505050506040513d601f19601f820116820180604052508101906122339190613955565b84612246670de0b6b3a764000088613cfc565b6122509190613bcf565b12155b6122ad5760405162461bcd60e51b815260206004820152602560248201527f50657270657475616c506f6f6c3a20696e73756666696369656e74206c697175604482015264696469747960d81b6064820152608401610408565b7f00000000000000000000000000000000000000000000000000000000000000006001600160a01b0316638ac848ca6040518163ffffffff1660e01b815260040160206040518083038186803b15801561230657600080fd5b505afa15801561231a573d6000803e3d6000fd5b505050506040513d601f19601f8201168201806040525081019061233e9190613955565b61234884846131b3565b12156123665760405162461bcd60e51b815260040161040890613b2b565b612371878484613302565b866001600160a01b03167fe9b9a6b9b3b7df275a3b89328628d89ee68f326bff47da3b67e7e56a5eeead9f876123aa8460200151612b61565b604080519283526020830191909152015b60405180910390a25050600f805460ff191690555050505050565b600f5460ff16156123f95760405162461bcd60e51b815260040161040890613b6d565b600f805460ff191660011790556000612410612c56565b50905061241d83836133cf565b91506000600360009054906101000a90046001600160a01b031690506000816001600160a01b03166318160ddd6040518163ffffffff1660e01b815260040160206040518083038186803b15801561247457600080fd5b505afa158015612488573d6000803e3d6000fd5b505050506040513d601f19601f820116820180604052508101906124ac9190613955565b90506000816124bc5750836124dc565b6124c584612b61565b6124cf8387613d7f565b6124d99190613bfd565b90505b6040516340c10f1960e01b81526001600160a01b038781166004830152602482018390528416906340c10f1990604401600060405180830381600087803b15801561252657600080fd5b505af115801561253a573d6000803e3d6000fd5b5050505061254785612b99565b600860008282546125589190613b8e565b909155505060408051828152602081018790526001600160a01b038816917f06239653922ac7bea6aa2b19dc486b9361821d37712eb796adfd38d81de278ca910160405180910390a25050600f805460ff1916905550505050565b600f5460ff16156125d65760405162461bcd60e51b815260040161040890613b6d565b600f805460ff1916600117905560048054604051637b51e92760e11b81526001600160a01b0385811693820193909352911690819063f6a3d24e9060240160206040518083038186803b15801561262c57600080fd5b505afa158015612640573d6000803e3d6000fd5b505050506040513d601f19601f82011682018060405250810190612664919061391d565b6126c4576040516335313c2160e11b81526001600160a01b038481166004830152821690636a62784290602401600060405180830381600087803b1580156126ab57600080fd5b505af11580156126bf573d6000803e3d6000fd5b505050505b6126ce83836133cf565b9150806001600160a01b031663ac2681c6846126e985612b99565b6040516001600160e01b031960e085901b1681526001600160a01b0390921660048301526024820152604401600060405180830381600087803b15801561272f57600080fd5b505af1158015612743573d6000803e3d6000fd5b50505050826001600160a01b03167f278e696bd0cd4a7d1260ced26c40cd01c2b088f441889e4148240ac81069b3488360405161278291815260200190565b60405180910390a25050600f805460ff1916905550565b6000600160ff1b8214156127d45760405162461bcd60e51b8152602060048201526002602482015261414f60f01b6044820152606401610408565b60008212156127eb576127e682613e20565b6127ed565b815b92915050565b600f5460ff16156128165760405162461bcd60e51b815260040161040890613b6d565b600f805460ff1916600117905560008061282e612c56565b600354604080516318160ddd60e01b815290519395509193506001600160a01b03169160009183916318160ddd91600480820192602092909190829003018186803b15801561287c57600080fd5b505afa158015612890573d6000803e3d6000fd5b505050506040513d601f19601f820116820180604052508101906128b49190613955565b9050600081116129065760405162461bcd60e51b815260206004820152601860248201527f54686572652773206e6f204c546f6b656e20737570706c7900000000000000006044820152606401610408565b60008161291286612b61565b61291c9088613d7f565b6129269190613bfd565b905061293181612b99565b600860008282546129429190613d9e565b9091555050831580612a1457507f00000000000000000000000000000000000000000000000000000000000000006001600160a01b031663c42243c16040518163ffffffff1660e01b815260040160206040518083038186803b1580156129a857600080fd5b505afa1580156129bc573d6000803e3d6000fd5b505050506040513d601f19601f820116820180604052508101906129e09190613955565b84670de0b6b3a76400006129f384612b99565b6129fd9089613d9e565b612a079190613cfc565b612a119190613bcf565b12155b612a705760405162461bcd60e51b815260206004820152602760248201527f50657270657475616c506f6f6c3a20706f6f6c20696e73756666696369656e746044820152661036b0b933b4b760c91b6064820152608401610408565b604051632770a7eb60e21b81526001600160a01b03888116600483015260248201889052841690639dc29fac90604401600060405180830381600087803b158015612aba57600080fd5b505af1158015612ace573d6000803e3d6000fd5b50505050612adc8782612bd8565b60408051878152602081018390526001600160a01b038916917f0fbf06c058b90cb038a618f8c2acbf6145f8b3570fd1fa56abb8f0f3f05b36e891016123bb565b6000818314612b5557612b3183600a613c54565b612b3c83600a613c54565b612b469086613d7f565b612b509190613bfd565b612b57565b835b90505b9392505050565b6000808212156127eb5760405162461bcd60e51b815260206004820152600360248201526249554f60e81b6044820152606401610408565b60006001600160ff1b038211156127eb5760405162461bcd60e51b815260206004820152600360248201526255494f60e81b6044820152606401610408565b6000612bf2601260015484612b1d9092919063ffffffff16565b90506000612c0e600154601284612b1d9092919063ffffffff16565b612c189084613ddd565b9050612c2381612b99565b600a6000828254612c349190613b8e565b9091555050600254612c50906001600160a01b0316858461340f565b50505050565b600954600854906000904381811115612d7857612d747f00000000000000000000000000000000000000000000000000000000000000006001600160a01b0316636bb9e4cb6040518163ffffffff1660e01b815260040160206040518083038186803b158015612cc557600080fd5b505afa158015612cd9573d6000803e3d6000fd5b505050506040513d601f19601f82011682018060405250810190612cfd9190613840565b6001600160a01b03166398d5fdca6040518163ffffffff1660e01b8152600401602060405180830381600087803b158015612d3757600080fd5b505af1158015612d4b573d6000803e3d6000fd5b505050506040513d601f19601f82011682018060405250810190612d6f9190613955565b612b99565b600b555b600d5415612e86576000670de0b6b3a76400007f00000000000000000000000000000000000000000000000000000000000000006001600160a01b031663cfcd67446040518163ffffffff1660e01b815260040160206040518083038186803b158015612de457600080fd5b505afa158015612df8573d6000803e3d6000fd5b505050506040513d601f19601f82011682018060405250810190612e1c9190613955565b600b54600d54670de0b6b3a764000091612e3591613cfc565b612e3f9190613bcf565b612e499190613cfc565b612e539190613bcf565b600e54909150612e639082613d9e565b612e6d9086613d9e565b9450612e7881612799565b612e829085613b8e565b9350505b818111156130fa57600d54156130fa576000847f00000000000000000000000000000000000000000000000000000000000000006001600160a01b031663e7a06ffe6040518163ffffffff1660e01b815260040160206040518083038186803b158015612ef257600080fd5b505afa158015612f06573d6000803e3d6000fd5b505050506040513d601f19601f82011682018060405250810190612f2a9190613955565b670de0b6b3a76400007f00000000000000000000000000000000000000000000000000000000000000006001600160a01b031663cfcd67446040518163ffffffff1660e01b815260040160206040518083038186803b158015612f8c57600080fd5b505afa158015612fa0573d6000803e3d6000fd5b505050506040513d601f19601f82011682018060405250810190612fc49190613955565b670de0b6b3a76400007f00000000000000000000000000000000000000000000000000000000000000006001600160a01b031663cfcd67446040518163ffffffff1660e01b815260040160206040518083038186803b15801561302657600080fd5b505afa15801561303a573d6000803e3d6000fd5b505050506040513d601f19601f8201168201806040525081019061305e9190613955565b600b54600d54670de0b6b3a76400009190829061307c908390613cfc565b6130869190613bcf565b6130909190613cfc565b61309a9190613bcf565b6130a49190613cfc565b6130ae9190613bcf565b6130b89190613cfc565b6130c29190613bcf565b6130cc9190613cfc565b6130d69190613bcf565b905060006130e48484613ddd565b6130ee9083613cfc565b600c8054909101905550505b600955509091565b61312660405180606001604052806000815260200160008152602001600081525090565b6000613131836112af565b815191935091506000901561318357600c546040840151845190820390670de0b6b3a764000090613163908390613cfc565b61316d9190613bcf565b6131779084613b8e565b60408601929092525090505b80156131ad576131938183613d9e565b915080600860008282546131a79190613b8e565b90915550505b50915091565b815160009082908290156132c8576000670de0b6b3a76400007f00000000000000000000000000000000000000000000000000000000000000006001600160a01b031663cfcd67446040518163ffffffff1660e01b815260040160206040518083038186803b15801561322557600080fd5b505afa158015613239573d6000803e3d6000fd5b505050506040513d601f19601f8201168201806040525081019061325d9190613955565b600b548851670de0b6b3a76400009161327591613cfc565b61327f9190613bcf565b6132899190613cfc565b6132939190613bcf565b90508560200151816132a59190613d9e565b6132af9084613b8e565b92506132ba81612799565b6132c49083613b8e565b9150505b80156132f057806132e1670de0b6b3a764000084613cfc565b6132eb9190613bcf565b6132f9565b6001600160ff1b035b95945050505050565b600480546040516388f74d0960e01b81526001600160a01b039091169182916388f74d0991613335918891889101613a07565b600060405180830381600087803b15801561334f57600080fd5b505af1158015613363573d6000803e3d6000fd5b5050604051631a9c941f60e01b81526001600160a01b0387811660048301526024820186905284169250631a9c941f9150604401600060405180830381600087803b1580156133b157600080fd5b505af11580156133c5573d6000803e3d6000fd5b5050505050505050565b6000806133f484306133ef601260015488612b1d9092919063ffffffff16565b613472565b6001549091506134079082906012612b1d565b949350505050565b6040516001600160a01b0383166024820152604481018290526111de90849063a9059cbb60e01b906064015b60408051601f198184030181529190526020810180516001600160e01b03166001600160e01b03199093169290921790915261359f565b6002546040516370a0823160e01b81526001600160a01b0384811660048301526000921690829082906370a082319060240160206040518083038186803b1580156134bc57600080fd5b505afa1580156134d0573d6000803e3d6000fd5b505050506040513d601f19601f820116820180604052508101906134f49190613955565b905061350b6001600160a01b038316878787613671565b6040516370a0823160e01b81526001600160a01b038681166004830152600091908416906370a082319060240160206040518083038186803b15801561355057600080fd5b505afa158015613564573d6000803e3d6000fd5b505050506040513d601f19601f820116820180604052508101906135889190613955565b90506135948282613ddd565b979650505050505050565b60006135f4826040518060400160405280602081526020017f5361666545524332303a206c6f772d6c6576656c2063616c6c206661696c6564815250856001600160a01b03166136a99092919063ffffffff16565b8051909150156111de5780806020019051810190613612919061391d565b6111de5760405162461bcd60e51b815260206004820152602a60248201527f5361666545524332303a204552433230206f7065726174696f6e20646964206e6044820152691bdd081cdd58d8d9595960b21b6064820152608401610408565b6040516001600160a01b0380851660248301528316604482015260648101829052612c509085906323b872dd60e01b9060840161343b565b6060612b57848460008585843b6137025760405162461bcd60e51b815260206004820152601d60248201527f416464726573733a2063616c6c20746f206e6f6e2d636f6e74726163740000006044820152606401610408565b600080866001600160a01b0316858760405161371e91906139eb565b60006040518083038185875af1925050503d806000811461375b576040519150601f19603f3d011682016040523d82523d6000602084013e613760565b606091505b50915091506135948282866060831561377a575081612b5a565b82511561378a5782518084602001fd5b8160405162461bcd60e51b81526004016104089190613a38565b600060a082840312156137b5578081fd5b60405160a0810181811067ffffffffffffffff821117156137d8576137d8613e66565b80604052508091508235815260208301356020820152604083013560ff8116811461380257600080fd5b8060408301525060608301356060820152608083013560808201525092915050565b600060208284031215613835578081fd5b8135612b5a81613e7c565b600060208284031215613851578081fd5b8151612b5a81613e7c565b60008060c0838503121561386e578081fd5b823561387981613e7c565b915061388884602085016137a4565b90509250929050565b600060c082840312156138a2578081fd5b82601f8301126138b0578081fd5b60405160c0810181811067ffffffffffffffff821117156138d3576138d3613e66565b604052808360c081018610156138e7578384fd5b835b60068110156139125781356138fd81613e7c565b835260209283019291909101906001016138e9565b509195945050505050565b60006020828403121561392e578081fd5b81518015158114612b5a578182fd5b60006020828403121561394e578081fd5b5035919050565b600060208284031215613966578081fd5b5051919050565b60008060c0838503121561397f578182fd5b8235915061388884602085016137a4565b6000606082840312156139a1578081fd5b6040516060810181811067ffffffffffffffff821117156139c4576139c4613e66565b80604052508251815260208301516020820152604083015160408201528091505092915050565b600082516139fd818460208701613df4565b9190910192915050565b6001600160a01b038316815260808101612b5a60208301848051825260208082015190830152604090810151910152565b6020815260008251806020840152613a57816040850160208701613df4565b601f01601f19169190910160400192915050565b60208082526022908201527f50657270657475616c506f6f6c3a20696e76616c6964207472616465566f6c756040820152616d6560f01b606082015260800190565b60208082526018908201527f50657270657475616c506f6f6c3a20302062416d6f756e740000000000000000604082015260600190565b60208082526027908201527f50657270657475616c506f6f6c3a206e6f74207175616c6966696564206c69716040820152663ab4b230ba37b960c91b606082015260800190565b60208082526022908201527f50657270657475616c506f6f6c3a20696e73756666696369656e74206d61726760408201526134b760f11b606082015260800190565b6020808252600790820152667265656e74727960c81b604082015260600190565b600080821280156001600160ff1b0384900385131615613bb057613bb0613e3a565b600160ff1b8390038412811615613bc957613bc9613e3a565b50500190565b600082613bde57613bde613e50565b600160ff1b821460001984141615613bf857613bf8613e3a565b500590565b600082613c0c57613c0c613e50565b500490565b600181815b80851115613c4c578160001904821115613c3257613c32613e3a565b80851615613c3f57918102915b93841c9390800290613c16565b509250929050565b6000612b5a8383600082613c6a575060016127ed565b81613c77575060006127ed565b8160018114613c8d5760028114613c9757613cb3565b60019150506127ed565b60ff841115613ca857613ca8613e3a565b50506001821b6127ed565b5060208310610133831016604e8410600b8410161715613cd6575081810a6127ed565b613ce08383613c11565b8060001904821115613cf457613cf4613e3a565b029392505050565b60006001600160ff1b0381841382841380821686840486111615613d2257613d22613e3a565b600160ff1b84871282811687830589121615613d4057613d40613e3a565b858712925087820587128484161615613d5b57613d5b613e3a565b87850587128184161615613d7157613d71613e3a565b505050929093029392505050565b6000816000190483118215151615613d9957613d99613e3a565b500290565b60008083128015600160ff1b850184121615613dbc57613dbc613e3a565b6001600160ff1b0384018313811615613dd757613dd7613e3a565b50500390565b600082821015613def57613def613e3a565b500390565b60005b83811015613e0f578181015183820152602001613df7565b83811115612c505750506000910152565b6000600160ff1b821415613e3657613e36613e3a565b0390565b634e487b7160e01b600052601160045260246000fd5b634e487b7160e01b600052601260045260246000fd5b634e487b7160e01b600052604160045260246000fd5b6001600160a01b038116811461058857600080fdfea2646970667358221220d09435f480b85eb9e2e9d057fa1bd6326c8fdd9163c73bdaa87aa86fe354533b64736f6c63430008040033",
  "devdoc": {
    "kind": "dev",
    "methods": {},
    "version": 1
  },
  "userdoc": {
    "kind": "user",
    "methods": {},
    "version": 1
  },
  "storageLayout": {
    "storage": [
      {
        "astId": 7665,
        "contract": "contracts/perpetual_futures/PerpetualPoolLite.sol:PerpetualPoolLite",
        "label": "_initialized",
        "offset": 0,
        "slot": "0",
        "type": "t_bool"
      },
      {
        "astId": 7668,
        "contract": "contracts/perpetual_futures/PerpetualPoolLite.sol:PerpetualPoolLite",
        "label": "_initializing",
        "offset": 1,
        "slot": "0",
        "type": "t_bool"
      },
      {
        "astId": 13994,
        "contract": "contracts/perpetual_futures/PerpetualPoolLite.sol:PerpetualPoolLite",
        "label": "_decimals",
        "offset": 0,
        "slot": "1",
        "type": "t_uint256"
      },
      {
        "astId": 13996,
        "contract": "contracts/perpetual_futures/PerpetualPoolLite.sol:PerpetualPoolLite",
        "label": "_bTokenAddress",
        "offset": 0,
        "slot": "2",
        "type": "t_address"
      },
      {
        "astId": 13998,
        "contract": "contracts/perpetual_futures/PerpetualPoolLite.sol:PerpetualPoolLite",
        "label": "_lTokenAddress",
        "offset": 0,
        "slot": "3",
        "type": "t_address"
      },
      {
        "astId": 14000,
        "contract": "contracts/perpetual_futures/PerpetualPoolLite.sol:PerpetualPoolLite",
        "label": "_pTokenAddress",
        "offset": 0,
        "slot": "4",
        "type": "t_address"
      },
      {
        "astId": 14002,
        "contract": "contracts/perpetual_futures/PerpetualPoolLite.sol:PerpetualPoolLite",
        "label": "_liquidatorQualifierAddress",
        "offset": 0,
        "slot": "5",
        "type": "t_address"
      },
      {
        "astId": 14004,
        "contract": "contracts/perpetual_futures/PerpetualPoolLite.sol:PerpetualPoolLite",
        "label": "_protocolFeeCollector",
        "offset": 0,
        "slot": "6",
        "type": "t_address"
      },
      {
        "astId": 14006,
        "contract": "contracts/perpetual_futures/PerpetualPoolLite.sol:PerpetualPoolLite",
        "label": "_underlyingAddress",
        "offset": 0,
        "slot": "7",
        "type": "t_address"
      },
      {
        "astId": 14013,
        "contract": "contracts/perpetual_futures/PerpetualPoolLite.sol:PerpetualPoolLite",
        "label": "_liquidity",
        "offset": 0,
        "slot": "8",
        "type": "t_int256"
      },
      {
        "astId": 14015,
        "contract": "contracts/perpetual_futures/PerpetualPoolLite.sol:PerpetualPoolLite",
        "label": "_lastUpdateBlock",
        "offset": 0,
        "slot": "9",
        "type": "t_uint256"
      },
      {
        "astId": 14017,
        "contract": "contracts/perpetual_futures/PerpetualPoolLite.sol:PerpetualPoolLite",
        "label": "_protocolFeeAccrued",
        "offset": 0,
        "slot": "10",
        "type": "t_int256"
      },
      {
        "astId": 14020,
        "contract": "contracts/perpetual_futures/PerpetualPoolLite.sol:PerpetualPoolLite",
        "label": "_symbol",
        "offset": 0,
        "slot": "11",
        "type": "t_struct(SymbolInfo)19044_storage"
      },
      {
        "astId": 14022,
        "contract": "contracts/perpetual_futures/PerpetualPoolLite.sol:PerpetualPoolLite",
        "label": "_mutex",
        "offset": 0,
        "slot": "15",
        "type": "t_bool"
      }
    ],
    "types": {
      "t_address": {
        "encoding": "inplace",
        "label": "address",
        "numberOfBytes": "20"
      },
      "t_bool": {
        "encoding": "inplace",
        "label": "bool",
        "numberOfBytes": "1"
      },
      "t_int256": {
        "encoding": "inplace",
        "label": "int256",
        "numberOfBytes": "32"
      },
      "t_struct(SymbolInfo)19044_storage": {
        "encoding": "inplace",
        "label": "struct IPerpetualPoolLite.SymbolInfo",
        "members": [
          {
            "astId": 19037,
            "contract": "contracts/perpetual_futures/PerpetualPoolLite.sol:PerpetualPoolLite",
            "label": "price",
            "offset": 0,
            "slot": "0",
            "type": "t_int256"
          },
          {
            "astId": 19039,
            "contract": "contracts/perpetual_futures/PerpetualPoolLite.sol:PerpetualPoolLite",
            "label": "cumulativeFundingRate",
            "offset": 0,
            "slot": "1",
            "type": "t_int256"
          },
          {
            "astId": 19041,
            "contract": "contracts/perpetual_futures/PerpetualPoolLite.sol:PerpetualPoolLite",
            "label": "tradersNetVolume",
            "offset": 0,
            "slot": "2",
            "type": "t_int256"
          },
          {
            "astId": 19043,
            "contract": "contracts/perpetual_futures/PerpetualPoolLite.sol:PerpetualPoolLite",
            "label": "tradersNetCost",
            "offset": 0,
            "slot": "3",
            "type": "t_int256"
          }
        ],
        "numberOfBytes": "128"
      },
      "t_uint256": {
        "encoding": "inplace",
        "label": "uint256",
        "numberOfBytes": "32"
      }
    }
  }
}