{
  "contractName": "PodManager",
  "abi": [
    {
      "inputs": [
        {
          "internalType": "address",
          "name": "_podWithdrawManagerAddress",
          "type": "address"
        },
        {
          "internalType": "address",
          "name": "_governanceAddress",
          "type": "address"
        },
        {
          "internalType": "address",
          "name": "_creationManager",
          "type": "address"
        },
        {
          "internalType": "address",
          "name": "_distributionManagerImplementationAddress",
          "type": "address"
        }
      ],
      "stateMutability": "nonpayable",
      "type": "constructor"
    },
    {
      "anonymous": false,
      "inputs": [
        {
          "indexed": true,
          "internalType": "address",
          "name": "podAddress",
          "type": "address"
        }
      ],
      "name": "CreatePod",
      "type": "event"
    },
    {
      "anonymous": false,
      "inputs": [
        {
          "indexed": true,
          "internalType": "address",
          "name": "investor",
          "type": "address"
        },
        {
          "indexed": true,
          "internalType": "address",
          "name": "podAddress",
          "type": "address"
        },
        {
          "indexed": false,
          "internalType": "uint256",
          "name": "amount",
          "type": "uint256"
        }
      ],
      "name": "InvestPod",
      "type": "event"
    },
    {
      "anonymous": false,
      "inputs": [
        {
          "indexed": false,
          "internalType": "uint256",
          "name": "id",
          "type": "uint256"
        }
      ],
      "name": "PodProposalCreated",
      "type": "event"
    },
    {
      "anonymous": false,
      "inputs": [
        {
          "indexed": false,
          "internalType": "uint256",
          "name": "id",
          "type": "uint256"
        },
        {
          "indexed": false,
          "internalType": "address",
          "name": "voter",
          "type": "address"
        }
      ],
      "name": "ProposalVoted",
      "type": "event"
    },
    {
      "anonymous": false,
      "inputs": [
        {
          "indexed": true,
          "internalType": "address",
          "name": "podAddress",
          "type": "address"
        },
        {
          "indexed": false,
          "internalType": "uint256",
          "name": "nftId",
          "type": "uint256"
        },
        {
          "indexed": false,
          "internalType": "uint256",
          "name": "_mediaId",
          "type": "uint256"
        }
      ],
      "name": "UploadMedia",
      "type": "event"
    },
    {
      "inputs": [],
      "name": "ADMIN",
      "outputs": [
        {
          "internalType": "bytes32",
          "name": "",
          "type": "bytes32"
        }
      ],
      "stateMutability": "view",
      "type": "function",
      "constant": true
    },
    {
      "inputs": [],
      "name": "FUNDED_STATE",
      "outputs": [
        {
          "internalType": "bytes32",
          "name": "",
          "type": "bytes32"
        }
      ],
      "stateMutability": "view",
      "type": "function",
      "constant": true
    },
    {
      "inputs": [],
      "name": "FUNDING_STATE",
      "outputs": [
        {
          "internalType": "bytes32",
          "name": "",
          "type": "bytes32"
        }
      ],
      "stateMutability": "view",
      "type": "function",
      "constant": true
    },
    {
      "inputs": [],
      "name": "PRECISION",
      "outputs": [
        {
          "internalType": "uint256",
          "name": "",
          "type": "uint256"
        }
      ],
      "stateMutability": "view",
      "type": "function",
      "constant": true
    },
    {
      "inputs": [
        {
          "internalType": "uint256",
          "name": "",
          "type": "uint256"
        }
      ],
      "name": "podProposals",
      "outputs": [
        {
          "components": [
            {
              "internalType": "address[]",
              "name": "owners",
              "type": "address[]"
            },
            {
              "internalType": "address",
              "name": "podAddress",
              "type": "address"
            },
            {
              "internalType": "uint64",
              "name": "fundingDate",
              "type": "uint64"
            },
            {
              "internalType": "address",
              "name": "fundingToken",
              "type": "address"
            },
            {
              "internalType": "uint64",
              "name": "fundingTokenPrice",
              "type": "uint64"
            },
            {
              "internalType": "uint256",
              "name": "fundingTarget",
              "type": "uint256"
            }
          ],
          "internalType": "struct Pod",
          "name": "pod",
          "type": "tuple"
        },
        {
          "internalType": "uint256",
          "name": "start",
          "type": "uint256"
        },
        {
          "internalType": "uint256",
          "name": "votes",
          "type": "uint256"
        },
        {
          "internalType": "uint256",
          "name": "royaltyPercentage",
          "type": "uint256"
        },
        {
          "internalType": "uint256",
          "name": "investorShare",
          "type": "uint256"
        },
        {
          "components": [
            {
              "internalType": "string",
              "name": "podTokenName",
              "type": "string"
            },
            {
              "internalType": "string",
              "name": "podTokenSymbol",
              "type": "string"
            }
          ],
          "internalType": "struct PodDescription",
          "name": "podDescription",
          "type": "tuple"
        },
        {
          "internalType": "uint256",
          "name": "copyrightTokenSupply",
          "type": "uint256"
        }
      ],
      "stateMutability": "view",
      "type": "function",
      "constant": true
    },
    {
      "inputs": [
        {
          "internalType": "address",
          "name": "",
          "type": "address"
        },
        {
          "internalType": "address",
          "name": "",
          "type": "address"
        }
      ],
      "name": "podToTokensClaimable",
      "outputs": [
        {
          "internalType": "uint256",
          "name": "",
          "type": "uint256"
        }
      ],
      "stateMutability": "view",
      "type": "function",
      "constant": true
    },
    {
      "inputs": [
        {
          "components": [
            {
              "internalType": "address[]",
              "name": "owners",
              "type": "address[]"
            },
            {
              "internalType": "address",
              "name": "podAddress",
              "type": "address"
            },
            {
              "internalType": "uint64",
              "name": "fundingDate",
              "type": "uint64"
            },
            {
              "internalType": "address",
              "name": "fundingToken",
              "type": "address"
            },
            {
              "internalType": "uint64",
              "name": "fundingTokenPrice",
              "type": "uint64"
            },
            {
              "internalType": "uint256",
              "name": "fundingTarget",
              "type": "uint256"
            }
          ],
          "internalType": "struct Pod",
          "name": "_pod",
          "type": "tuple"
        },
        {
          "internalType": "uint256[]",
          "name": "_mediaIds",
          "type": "uint256[]"
        },
        {
          "internalType": "uint256",
          "name": "_royaltyPercentage",
          "type": "uint256"
        },
        {
          "components": [
            {
              "internalType": "string",
              "name": "podTokenName",
              "type": "string"
            },
            {
              "internalType": "string",
              "name": "podTokenSymbol",
              "type": "string"
            }
          ],
          "internalType": "struct PodDescription",
          "name": "_podDescription",
          "type": "tuple"
        },
        {
          "internalType": "uint256",
          "name": "_copyrightTokenSupply",
          "type": "uint256"
        },
        {
          "internalType": "uint256",
          "name": "_investorShare",
          "type": "uint256"
        },
        {
          "internalType": "uint256[]",
          "name": "_copyrightAllocation",
          "type": "uint256[]"
        }
      ],
      "name": "registerPodProposal",
      "outputs": [],
      "stateMutability": "nonpayable",
      "type": "function"
    },
    {
      "inputs": [
        {
          "internalType": "uint256",
          "name": "id",
          "type": "uint256"
        }
      ],
      "name": "voteForPodProposal",
      "outputs": [],
      "stateMutability": "nonpayable",
      "type": "function"
    },
    {
      "inputs": [
        {
          "internalType": "uint256",
          "name": "id",
          "type": "uint256"
        }
      ],
      "name": "executePodProposal",
      "outputs": [],
      "stateMutability": "nonpayable",
      "type": "function"
    },
    {
      "inputs": [
        {
          "internalType": "address",
          "name": "_podAddress",
          "type": "address"
        },
        {
          "internalType": "uint256",
          "name": "_amount",
          "type": "uint256"
        }
      ],
      "name": "investPod",
      "outputs": [],
      "stateMutability": "nonpayable",
      "type": "function"
    },
    {
      "inputs": [
        {
          "internalType": "address",
          "name": "_podAddress",
          "type": "address"
        }
      ],
      "name": "claimPodTokens",
      "outputs": [],
      "stateMutability": "nonpayable",
      "type": "function"
    },
    {
      "inputs": [
        {
          "internalType": "address",
          "name": "_podAddress",
          "type": "address"
        },
        {
          "internalType": "uint256",
          "name": "_mediaId",
          "type": "uint256"
        },
        {
          "internalType": "string",
          "name": "_uri",
          "type": "string"
        }
      ],
      "name": "uploadMedia",
      "outputs": [],
      "stateMutability": "nonpayable",
      "type": "function"
    },
    {
      "inputs": [
        {
          "internalType": "address",
          "name": "_podAddress",
          "type": "address"
        }
      ],
      "name": "getPodInfo",
      "outputs": [
        {
          "components": [
            {
              "internalType": "bytes32",
              "name": "status",
              "type": "bytes32"
            },
            {
              "internalType": "uint256",
              "name": "raisedFunds",
              "type": "uint256"
            },
            {
              "internalType": "uint256[]",
              "name": "mediaIds",
              "type": "uint256[]"
            },
            {
              "internalType": "uint256[]",
              "name": "registeredMediaIds",
              "type": "uint256[]"
            },
            {
              "internalType": "address",
              "name": "nftContract",
              "type": "address"
            },
            {
              "internalType": "address",
              "name": "distributionManagerAddress",
              "type": "address"
            },
            {
              "components": [
                {
                  "internalType": "address[]",
                  "name": "owners",
                  "type": "address[]"
                },
                {
                  "internalType": "address",
                  "name": "podAddress",
                  "type": "address"
                },
                {
                  "internalType": "uint64",
                  "name": "fundingDate",
                  "type": "uint64"
                },
                {
                  "internalType": "address",
                  "name": "fundingToken",
                  "type": "address"
                },
                {
                  "internalType": "uint64",
                  "name": "fundingTokenPrice",
                  "type": "uint64"
                },
                {
                  "internalType": "uint256",
                  "name": "fundingTarget",
                  "type": "uint256"
                }
              ],
              "internalType": "struct Pod",
              "name": "pod",
              "type": "tuple"
            },
            {
              "internalType": "address",
              "name": "copyrightToken",
              "type": "address"
            },
            {
              "internalType": "uint256",
              "name": "copyrightSupplyInvestors",
              "type": "uint256"
            }
          ],
          "internalType": "struct PodInfo",
          "name": "podInfo",
          "type": "tuple"
        }
      ],
      "stateMutability": "view",
      "type": "function",
      "constant": true
    },
    {
      "inputs": [
        {
          "internalType": "address",
          "name": "podAddress",
          "type": "address"
        },
        {
          "internalType": "uint256",
          "name": "mediaId",
          "type": "uint256"
        }
      ],
      "name": "isUploadedMedia",
      "outputs": [
        {
          "internalType": "bool",
          "name": "",
          "type": "bool"
        }
      ],
      "stateMutability": "view",
      "type": "function",
      "constant": true
    }
  ],
  "bytecode": "0x61010060405260006002553480156200001757600080fd5b506040516200589b3803806200589b83398181016040528101906200003d91906200019b565b8373ffffffffffffffffffffffffffffffffffffffff1660808173ffffffffffffffffffffffffffffffffffffffff1660601b815250508273ffffffffffffffffffffffffffffffffffffffff1660a08173ffffffffffffffffffffffffffffffffffffffff1660601b815250508173ffffffffffffffffffffffffffffffffffffffff1660c08173ffffffffffffffffffffffffffffffffffffffff1660601b815250508173ffffffffffffffffffffffffffffffffffffffff16622181b46040518163ffffffff1660e01b8152600401600060405180830381600087803b1580156200012a57600080fd5b505af11580156200013f573d6000803e3d6000fd5b505050508073ffffffffffffffffffffffffffffffffffffffff1660e08173ffffffffffffffffffffffffffffffffffffffff1660601b815250505050505062000260565b600081519050620001958162000246565b92915050565b60008060008060808587031215620001b857620001b762000241565b5b6000620001c88782880162000184565b9450506020620001db8782880162000184565b9350506040620001ee8782880162000184565b9250506060620002018782880162000184565b91505092959194509250565b60006200021a8262000221565b9050919050565b600073ffffffffffffffffffffffffffffffffffffffff82169050919050565b600080fd5b62000251816200020d565b81146200025d57600080fd5b50565b60805160601c60a05160601c60c05160601c60e05160601c6155e0620002bb600039600061188e0152600081816115b7015281816116b001526117c2015260008181610b3f0152612f9501526000611d0c01526155e06000f3fe608060405234801561001057600080fd5b50600436106100ea5760003560e01c80634b4fdc5f1161008c578063aaf5eb6811610066578063aaf5eb681461024f578063b8dbc1b61461026d578063b9e067ba1461029d578063ca7d793b146102b9576100ea565b80634b4fdc5f146101cd5780636f24b0531461020357806399d3d80114610233576100ea565b8063214340d9116100c8578063214340d91461015b5780632a0acc6a146101775780633aa42819146101955780634248d4db146101b1576100ea565b806301d8b562146100ef5780630827f77d1461011f5780631010a08b1461013d575b600080fd5b61010960048036038101906101049190613a8a565b6102d5565b6040516101169190614b5c565b60405180910390f35b610127610741565b604051610134919061471e565b60405180910390f35b610145610765565b604051610152919061471e565b60405180910390f35b61017560048036038101906101709190613b64565b610789565b005b61017f610b19565b60405161018c919061471e565b60405180910390f35b6101af60048036038101906101aa9190613c05565b610b3d565b005b6101cb60048036038101906101c69190613d1f565b611103565b005b6101e760048036038101906101e29190613d1f565b611f0f565b6040516101fa9796959493929190614b7e565b60405180910390f35b61021d60048036038101906102189190613ae4565b612231565b60405161022a9190614bfb565b60405180910390f35b61024d60048036038101906102489190613b24565b612256565b005b610257612a80565b6040516102649190614bfb565b60405180910390f35b61028760048036038101906102829190613b24565b612a8c565b6040516102949190614703565b60405180910390f35b6102b760048036038101906102b29190613a8a565b612b6e565b005b6102d360048036038101906102ce9190613d1f565b612f3a565b005b6102dd6133e6565b60008060008473ffffffffffffffffffffffffffffffffffffffff1673ffffffffffffffffffffffffffffffffffffffff1681526020019081526020016000206002018054905011610364576040517f08c379a000000000000000000000000000000000000000000000000000000000815260040161035b9061497c565b60405180910390fd5b6000808373ffffffffffffffffffffffffffffffffffffffff1673ffffffffffffffffffffffffffffffffffffffff1681526020019081526020016000206040518061012001604052908160008201548152602001600182015481526020016002820180548060200260200160405190810160405280929190818152602001828054801561041157602002820191906000526020600020905b8154815260200190600101908083116103fd575b505050505081526020016003820180548060200260200160405190810160405280929190818152602001828054801561046957602002820191906000526020600020905b815481526020019060010190808311610455575b505050505081526020016004820160009054906101000a900473ffffffffffffffffffffffffffffffffffffffff1673ffffffffffffffffffffffffffffffffffffffff1673ffffffffffffffffffffffffffffffffffffffff1681526020016005820160009054906101000a900473ffffffffffffffffffffffffffffffffffffffff1673ffffffffffffffffffffffffffffffffffffffff1673ffffffffffffffffffffffffffffffffffffffff168152602001600682016040518060c0016040529081600082018054806020026020016040519081016040528092919081815260200182805480156105b357602002820191906000526020600020905b8160009054906101000a900473ffffffffffffffffffffffffffffffffffffffff1673ffffffffffffffffffffffffffffffffffffffff1681526020019060010190808311610569575b505050505081526020016001820160009054906101000a900473ffffffffffffffffffffffffffffffffffffffff1673ffffffffffffffffffffffffffffffffffffffff1673ffffffffffffffffffffffffffffffffffffffff1681526020016001820160149054906101000a900467ffffffffffffffff1667ffffffffffffffff1667ffffffffffffffff1681526020016002820160009054906101000a900473ffffffffffffffffffffffffffffffffffffffff1673ffffffffffffffffffffffffffffffffffffffff1673ffffffffffffffffffffffffffffffffffffffff1681526020016002820160149054906101000a900467ffffffffffffffff1667ffffffffffffffff1667ffffffffffffffff1681526020016003820154815250508152602001600a820160009054906101000a900473ffffffffffffffffffffffffffffffffffffffff1673ffffffffffffffffffffffffffffffffffffffff1673ffffffffffffffffffffffffffffffffffffffff168152602001600b820154815250509050919050565b7f1b051eabb191097272b9187f0c5c3152a0c5088405d4a327a4e5e5242f29cfca81565b7f2097e2e0f370945c0a82a75d599dd83e8cd76a11910f1819fdadc112dd2e811581565b6000610794856102d5565b9050428160c001516040015167ffffffffffffffff1611156107eb576040517f08c379a00000000000000000000000000000000000000000000000000000000081526004016107e290614abc565b60405180910390fd5b8060c0015160a001518160200151101561083a576040517f08c379a0000000000000000000000000000000000000000000000000000000008152600401610831906149bc565b60405180910390fd5b6000805b6000808873ffffffffffffffffffffffffffffffffffffffff1673ffffffffffffffffffffffffffffffffffffffff16815260200190815260200160002060060160000180549050811015610959573373ffffffffffffffffffffffffffffffffffffffff166000808973ffffffffffffffffffffffffffffffffffffffff1673ffffffffffffffffffffffffffffffffffffffff16815260200190815260200160002060060160000182815481106108fa576108f96150b4565b5b9060005260206000200160009054906101000a900473ffffffffffffffffffffffffffffffffffffffff1673ffffffffffffffffffffffffffffffffffffffff16141561094657600191505b808061095190614fde565b91505061083e565b508061099a576040517f08c379a000000000000000000000000000000000000000000000000000000000815260040161099190614afc565b60405180910390fd5b6109a48686612a8c565b156109e4576040517f08c379a00000000000000000000000000000000000000000000000000000000081526004016109db90614b1c565b60405180910390fd5b816080015173ffffffffffffffffffffffffffffffffffffffff1663d3fc9864878787876040518563ffffffff1660e01b8152600401610a2794939291906146c3565b600060405180830381600087803b158015610a4157600080fd5b505af1158015610a55573d6000803e3d6000fd5b505050506000808773ffffffffffffffffffffffffffffffffffffffff1673ffffffffffffffffffffffffffffffffffffffff1681526020019081526020016000206003018590806001815401808255809150506001900390600052602060002001600090919091909150558573ffffffffffffffffffffffffffffffffffffffff167ff0123728833f1849e274a7c3fce8821a238c3a6dd312813810723684aab2e46f8687604051610b09929190614c3f565b60405180910390a2505050505050565b7fdf8b4c520ffe197c5343c6f5aec59570151ef9a492f2c624fd45ddde6135ec4281565b7f000000000000000000000000000000000000000000000000000000000000000073ffffffffffffffffffffffffffffffffffffffff166319cdff598a606001516040518263ffffffff1660e01b8152600401610b9a91906145a9565b60206040518083038186803b158015610bb257600080fd5b505afa158015610bc6573d6000803e3d6000fd5b505050506040513d601f19601f82011682018060405250810190610bea9190613bd8565b610c29576040517f08c379a0000000000000000000000000000000000000000000000000000000008152600401610c20906149fc565b60405180910390fd5b6000896080015167ffffffffffffffff1611610c7a576040517f08c379a0000000000000000000000000000000000000000000000000000000008152600401610c719061499c565b60405180910390fd5b600089600001515111610cc2576040517f08c379a0000000000000000000000000000000000000000000000000000000008152600401610cb9906148bc565b60405180910390fd5b60008888905011610d08576040517f08c379a0000000000000000000000000000000000000000000000000000000008152600401610cff906148fc565b60405180910390fd5b6001896000015151610d1a9190614dab565b8282905014610d5e576040517f08c379a0000000000000000000000000000000000000000000000000000000008152600401610d5590614a5c565b60405180910390fd5b600080600090505b83839050811015610dac57838382818110610d8457610d836150b4565b5b9050602002013582610d969190614dab565b9150600181610da59190614dab565b9050610d66565b5060648114610df0576040517f08c379a0000000000000000000000000000000000000000000000000000000008152600401610de790614a7c565b60405180910390fd5b6040518061012001604052808b8152602001428152602001600081526020018a8a80806020026020016040519081016040528093929190818152602001838360200280828437600081840152601f19601f82011690508083019250505050505050815260200188815260200185815260200187610e6c90614f26565b8152602001868152602001848480806020026020016040519081016040528093929190818152602001838360200280828437600081840152601f19601f820116905080830192505050505050508152506003600060025481526020019081526020016000206000820151816000016000820151816000019080519060200190610ef692919061347d565b5060208201518160010160006101000a81548173ffffffffffffffffffffffffffffffffffffffff021916908373ffffffffffffffffffffffffffffffffffffffff16021790555060408201518160010160146101000a81548167ffffffffffffffff021916908367ffffffffffffffff16021790555060608201518160020160006101000a81548173ffffffffffffffffffffffffffffffffffffffff021916908373ffffffffffffffffffffffffffffffffffffffff16021790555060808201518160020160146101000a81548167ffffffffffffffff021916908367ffffffffffffffff16021790555060a0820151816003015550506020820151816004015560408201518160050155606082015181600601908051906020019061101f929190613507565b506080820151816007015560a0820151816008015560c0820151816009016000820151816000019080519060200190611059929190613554565b506020820151816001019080519060200190611076929190613554565b50505060e082015181600b015561010082015181600c0190805190602001906110a0929190613507565b509050507fff0ab45f3bc6a366a0cee506a8b1c6b2412e66c65d35a210ce760d9de8a53e916002546040516110d59190614bfb565b60405180910390a16001600260008282546110f09190614dab565b9250508190555050505050505050505050565b60006003600083815260200190815260200160002060405180610120016040529081600082016040518060c0016040529081600082018054806020026020016040519081016040528092919081815260200182805480156111b957602002820191906000526020600020905b8160009054906101000a900473ffffffffffffffffffffffffffffffffffffffff1673ffffffffffffffffffffffffffffffffffffffff168152602001906001019080831161116f575b505050505081526020016001820160009054906101000a900473ffffffffffffffffffffffffffffffffffffffff1673ffffffffffffffffffffffffffffffffffffffff1673ffffffffffffffffffffffffffffffffffffffff1681526020016001820160149054906101000a900467ffffffffffffffff1667ffffffffffffffff1667ffffffffffffffff1681526020016002820160009054906101000a900473ffffffffffffffffffffffffffffffffffffffff1673ffffffffffffffffffffffffffffffffffffffff1673ffffffffffffffffffffffffffffffffffffffff1681526020016002820160149054906101000a900467ffffffffffffffff1667ffffffffffffffff1667ffffffffffffffff168152602001600382015481525050815260200160048201548152602001600582015481526020016006820180548060200260200160405190810160405280929190818152602001828054801561134357602002820191906000526020600020905b81548152602001906001019080831161132f575b5050505050815260200160078201548152602001600882015481526020016009820160405180604001604052908160008201805461138090614f7b565b80601f01602080910402602001604051908101604052809291908181526020018280546113ac90614f7b565b80156113f95780601f106113ce576101008083540402835291602001916113f9565b820191906000526020600020905b8154815290600101906020018083116113dc57829003601f168201915b5050505050815260200160018201805461141290614f7b565b80601f016020809104026020016040519081016040528092919081815260200182805461143e90614f7b565b801561148b5780601f106114605761010080835404028352916020019161148b565b820191906000526020600020905b81548152906001019060200180831161146e57829003601f168201915b5050505050815250508152602001600b8201548152602001600c82018054806020026020016040519081016040528092919081815260200182805480156114f157602002820191906000526020600020905b8154815260200190600101908083116114dd575b5050505050815250509050600081600001519050806000015151600360008581526020019081526020016000206005015414611562576040517f08c379a000000000000000000000000000000000000000000000000000000000815260040161155990614a3c565b60405180910390fd5b42816040015167ffffffffffffffff1610156115b3576040517f08c379a00000000000000000000000000000000000000000000000000000000081526004016115aa90614a9c565b60405180910390fd5b60007f000000000000000000000000000000000000000000000000000000000000000073ffffffffffffffffffffffffffffffffffffffff1663fd4eb0d78460c00151600001518560c00151602001516040518363ffffffff1660e01b8152600401611620929190614739565b602060405180830381600087803b15801561163a57600080fd5b505af115801561164e573d6000803e3d6000fd5b505050506040513d601f19601f820116820180604052508101906116729190613ab7565b905080826020019073ffffffffffffffffffffffffffffffffffffffff16908173ffffffffffffffffffffffffffffffffffffffff168152505060007f000000000000000000000000000000000000000000000000000000000000000073ffffffffffffffffffffffffffffffffffffffff1663258d79e98560c00151600001516040516020016117039190614867565b6040516020818303038152906040528660c001516020015160405160200161172b9190614832565b60405160208183030381529060405286600001518861010001518960e001516040518663ffffffff1660e01b815260040161176a9594939291906147c3565b602060405180830381600087803b15801561178457600080fd5b505af1158015611798573d6000803e3d6000fd5b505050506040513d601f19601f820116820180604052508101906117bc9190613ab7565b905060007f000000000000000000000000000000000000000000000000000000000000000073ffffffffffffffffffffffffffffffffffffffff166353fe2d918660c00151600001518760c00151602001518689608001516040518563ffffffff1660e01b81526004016118339493929190614770565b602060405180830381600087803b15801561184d57600080fd5b505af1158015611861573d6000803e3d6000fd5b505050506040513d601f19601f820116820180604052508101906118859190613ab7565b905060006118b27f0000000000000000000000000000000000000000000000000000000000000000613311565b90508073ffffffffffffffffffffffffffffffffffffffff1663acbe4484858760600151868a60c00151600001518b60c00151602001518c60a001516040518763ffffffff1660e01b815260040161190f969594939291906145c4565b600060405180830381600087803b15801561192957600080fd5b505af115801561193d573d6000803e3d6000fd5b505050506040518061012001604052807f1b051eabb191097272b9187f0c5c3152a0c5088405d4a327a4e5e5242f29cfca81526020016000815260200187606001518152602001600067ffffffffffffffff81111561199f5761199e6150e3565b5b6040519080825280602002602001820160405280156119cd5781602001602082028036833780820191505090505b5081526020018373ffffffffffffffffffffffffffffffffffffffff1681526020018273ffffffffffffffffffffffffffffffffffffffff1681526020018681526020018473ffffffffffffffffffffffffffffffffffffffff168152602001606488610100015160018a610100015151611a489190614e8c565b81518110611a5957611a586150b4565b5b60200260200101518960e00151611a709190614e32565b611a7a9190614e01565b8152506000808673ffffffffffffffffffffffffffffffffffffffff1673ffffffffffffffffffffffffffffffffffffffff16815260200190815260200160002060008201518160000155602082015181600101556040820151816002019080519060200190611aeb929190613507565b506060820151816003019080519060200190611b08929190613507565b5060808201518160040160006101000a81548173ffffffffffffffffffffffffffffffffffffffff021916908373ffffffffffffffffffffffffffffffffffffffff16021790555060a08201518160050160006101000a81548173ffffffffffffffffffffffffffffffffffffffff021916908373ffffffffffffffffffffffffffffffffffffffff16021790555060c0820151816006016000820151816000019080519060200190611bbc92919061347d565b5060208201518160010160006101000a81548173ffffffffffffffffffffffffffffffffffffffff021916908373ffffffffffffffffffffffffffffffffffffffff16021790555060408201518160010160146101000a81548167ffffffffffffffff021916908367ffffffffffffffff16021790555060608201518160020160006101000a81548173ffffffffffffffffffffffffffffffffffffffff021916908373ffffffffffffffffffffffffffffffffffffffff16021790555060808201518160020160146101000a81548167ffffffffffffffff021916908367ffffffffffffffff16021790555060a08201518160030155505060e082015181600a0160006101000a81548173ffffffffffffffffffffffffffffffffffffffff021916908373ffffffffffffffffffffffffffffffffffffffff16021790555061010082015181600b01559050507f000000000000000000000000000000000000000000000000000000000000000073ffffffffffffffffffffffffffffffffffffffff1663ecfcb72a8587600001516040518363ffffffff1660e01b8152600401611d6992919061466a565b600060405180830381600087803b158015611d8357600080fd5b505af1158015611d97573d6000803e3d6000fd5b505050508373ffffffffffffffffffffffffffffffffffffffff167f41bc6022ac8da2e453cffc5ba42349a2880637ef8d0d5944339a022a6739f36060405160405180910390a260036000888152602001908152602001600020600080820160008082016000611e0791906135da565b6001820160006101000a81549073ffffffffffffffffffffffffffffffffffffffff02191690556001820160146101000a81549067ffffffffffffffff02191690556002820160006101000a81549073ffffffffffffffffffffffffffffffffffffffff02191690556002820160146101000a81549067ffffffffffffffff02191690556003820160009055505060048201600090556005820160009055600682016000611eb591906135fb565b600782016000905560088201600090556009820160008082016000611eda919061361c565b600182016000611eea919061361c565b5050600b820160009055600c82016000611f0491906135fb565b505050505050505050565b6003602052806000526040600020600091509050806000016040518060c001604052908160008201805480602002602001604051908101604052809291908181526020018280548015611fb757602002820191906000526020600020905b8160009054906101000a900473ffffffffffffffffffffffffffffffffffffffff1673ffffffffffffffffffffffffffffffffffffffff1681526020019060010190808311611f6d575b505050505081526020016001820160009054906101000a900473ffffffffffffffffffffffffffffffffffffffff1673ffffffffffffffffffffffffffffffffffffffff1673ffffffffffffffffffffffffffffffffffffffff1681526020016001820160149054906101000a900467ffffffffffffffff1667ffffffffffffffff1667ffffffffffffffff1681526020016002820160009054906101000a900473ffffffffffffffffffffffffffffffffffffffff1673ffffffffffffffffffffffffffffffffffffffff1673ffffffffffffffffffffffffffffffffffffffff1681526020016002820160149054906101000a900467ffffffffffffffff1667ffffffffffffffff1667ffffffffffffffff168152602001600382015481525050908060040154908060050154908060070154908060080154908060090160405180604001604052908160008201805461211290614f7b565b80601f016020809104026020016040519081016040528092919081815260200182805461213e90614f7b565b801561218b5780601f106121605761010080835404028352916020019161218b565b820191906000526020600020905b81548152906001019060200180831161216e57829003601f168201915b505050505081526020016001820180546121a490614f7b565b80601f01602080910402602001604051908101604052809291908181526020018280546121d090614f7b565b801561221d5780601f106121f25761010080835404028352916020019161221d565b820191906000526020600020905b81548152906001019060200180831161220057829003601f168201915b5050505050815250509080600b0154905087565b6001602052816000526040600020602052806000526040600020600091509150505481565b60008111612299576040517f08c379a00000000000000000000000000000000000000000000000000000000081526004016122909061493c565b60405180910390fd5b60008060008473ffffffffffffffffffffffffffffffffffffffff1673ffffffffffffffffffffffffffffffffffffffff1681526020019081526020016000206040518061012001604052908160008201548152602001600182015481526020016002820180548060200260200160405190810160405280929190818152602001828054801561234857602002820191906000526020600020905b815481526020019060010190808311612334575b50505050508152602001600382018054806020026020016040519081016040528092919081815260200182805480156123a057602002820191906000526020600020905b81548152602001906001019080831161238c575b505050505081526020016004820160009054906101000a900473ffffffffffffffffffffffffffffffffffffffff1673ffffffffffffffffffffffffffffffffffffffff1673ffffffffffffffffffffffffffffffffffffffff1681526020016005820160009054906101000a900473ffffffffffffffffffffffffffffffffffffffff1673ffffffffffffffffffffffffffffffffffffffff1673ffffffffffffffffffffffffffffffffffffffff168152602001600682016040518060c0016040529081600082018054806020026020016040519081016040528092919081815260200182805480156124ea57602002820191906000526020600020905b8160009054906101000a900473ffffffffffffffffffffffffffffffffffffffff1673ffffffffffffffffffffffffffffffffffffffff16815260200190600101908083116124a0575b505050505081526020016001820160009054906101000a900473ffffffffffffffffffffffffffffffffffffffff1673ffffffffffffffffffffffffffffffffffffffff1673ffffffffffffffffffffffffffffffffffffffff1681526020016001820160149054906101000a900467ffffffffffffffff1667ffffffffffffffff1667ffffffffffffffff1681526020016002820160009054906101000a900473ffffffffffffffffffffffffffffffffffffffff1673ffffffffffffffffffffffffffffffffffffffff1673ffffffffffffffffffffffffffffffffffffffff1681526020016002820160149054906101000a900467ffffffffffffffff1667ffffffffffffffff1667ffffffffffffffff1681526020016003820154815250508152602001600a820160009054906101000a900473ffffffffffffffffffffffffffffffffffffffff1673ffffffffffffffffffffffffffffffffffffffff1673ffffffffffffffffffffffffffffffffffffffff168152602001600b820154815250509050428160c001516040015167ffffffffffffffff1610156126c8576040517f08c379a00000000000000000000000000000000000000000000000000000000081526004016126bf90614abc565b60405180910390fd5b7f1b051eabb191097272b9187f0c5c3152a0c5088405d4a327a4e5e5242f29cfca81600001511461272e576040517f08c379a0000000000000000000000000000000000000000000000000000000008152600401612725906149dc565b60405180910390fd5b600081602001518260c0015160a001516127489190614e8c565b905080831015612756578290505b60008260c001516080015167ffffffffffffffff16670de0b6b3a76400008361277f9190614e32565b6127899190614e01565b9050600081116127ce576040517f08c379a00000000000000000000000000000000000000000000000000000000081526004016127c590614adc565b60405180910390fd5b8260c0015160a001518284602001516127e79190614dab565b10612853577f2097e2e0f370945c0a82a75d599dd83e8cd76a11910f1819fdadc112dd2e81156000808773ffffffffffffffffffffffffffffffffffffffff1673ffffffffffffffffffffffffffffffffffffffff168152602001908152602001600020600001819055505b816000808773ffffffffffffffffffffffffffffffffffffffff1673ffffffffffffffffffffffffffffffffffffffff16815260200190815260200160002060010160008282546128a49190614dab565b925050819055508260c001516060015173ffffffffffffffffffffffffffffffffffffffff166323b872dd3387856040518463ffffffff1660e01b81526004016128f093929190614633565b602060405180830381600087803b15801561290a57600080fd5b505af115801561291e573d6000803e3d6000fd5b505050506040513d601f19601f820116820180604052508101906129429190613bd8565b612981576040517f08c379a000000000000000000000000000000000000000000000000000000000815260040161297890614b3c565b60405180910390fd5b80600160008773ffffffffffffffffffffffffffffffffffffffff1673ffffffffffffffffffffffffffffffffffffffff16815260200190815260200160002060003373ffffffffffffffffffffffffffffffffffffffff1673ffffffffffffffffffffffffffffffffffffffff1681526020019081526020016000206000828254612a0d9190614dab565b925050819055508473ffffffffffffffffffffffffffffffffffffffff163373ffffffffffffffffffffffffffffffffffffffff167fe86f7ab5646f63a78eb2a6d0c3a4db0e00b37efbdf9c10dfc356cf3cfc7e154084604051612a719190614bfb565b60405180910390a35050505050565b670de0b6b3a764000081565b600080600090505b6000808573ffffffffffffffffffffffffffffffffffffffff1673ffffffffffffffffffffffffffffffffffffffff16815260200190815260200160002060030180549050811015612b6257826000808673ffffffffffffffffffffffffffffffffffffffff1673ffffffffffffffffffffffffffffffffffffffff1681526020019081526020016000206003018281548110612b3457612b336150b4565b5b90600052602060002001541415612b4f576001915050612b68565b8080612b5a90614fde565b915050612a94565b50600090505b92915050565b6000612b79826102d5565b90508060c001516040015167ffffffffffffffff16421015612bd0576040517f08c379a0000000000000000000000000000000000000000000000000000000008152600401612bc790614abc565b60405180910390fd5b8060c0015160a0015181602001511015612c1f576040517f08c379a0000000000000000000000000000000000000000000000000000000008152600401612c16906149bc565b60405180910390fd5b8060c001516020015173ffffffffffffffffffffffffffffffffffffffff166340c10f1933600160008673ffffffffffffffffffffffffffffffffffffffff1673ffffffffffffffffffffffffffffffffffffffff16815260200190815260200160002060003373ffffffffffffffffffffffffffffffffffffffff1673ffffffffffffffffffffffffffffffffffffffff168152602001908152602001600020546040518363ffffffff1660e01b8152600401612cde92919061469a565b600060405180830381600087803b158015612cf857600080fd5b505af1158015612d0c573d6000803e3d6000fd5b5050505060008160c001516080015167ffffffffffffffff16670de0b6b3a76400006000808673ffffffffffffffffffffffffffffffffffffffff1673ffffffffffffffffffffffffffffffffffffffff16815260200190815260200160002060010154612d7a9190614e32565b612d849190614e01565b9050600081600160008673ffffffffffffffffffffffffffffffffffffffff1673ffffffffffffffffffffffffffffffffffffffff16815260200190815260200160002060003373ffffffffffffffffffffffffffffffffffffffff1673ffffffffffffffffffffffffffffffffffffffff16815260200190815260200160002054846101000151612e169190614e32565b612e209190614e01565b90508260e0015173ffffffffffffffffffffffffffffffffffffffff1663a9059cbb33836040518363ffffffff1660e01b8152600401612e6192919061469a565b602060405180830381600087803b158015612e7b57600080fd5b505af1158015612e8f573d6000803e3d6000fd5b505050506040513d601f19601f82011682018060405250810190612eb39190613bd8565b50600160008573ffffffffffffffffffffffffffffffffffffffff1673ffffffffffffffffffffffffffffffffffffffff16815260200190815260200160002060003373ffffffffffffffffffffffffffffffffffffffff1673ffffffffffffffffffffffffffffffffffffffff1681526020019081526020016000206000905550505050565b6000600360008381526020019081526020016000206004015411612f93576040517f08c379a0000000000000000000000000000000000000000000000000000000008152600401612f8a906148dc565b60405180910390fd5b7f000000000000000000000000000000000000000000000000000000000000000073ffffffffffffffffffffffffffffffffffffffff1663905bc7da6040518163ffffffff1660e01b815260040160206040518083038186803b158015612ff957600080fd5b505afa15801561300d573d6000803e3d6000fd5b505050506040513d601f19601f820116820180604052508101906130319190613d4c565b6003600083815260200190815260200160002060040154426130539190614e8c565b1115613094576040517f08c379a000000000000000000000000000000000000000000000000000000000815260040161308b9061495c565b60405180910390fd5b6004600082815260200190815260200160002060003373ffffffffffffffffffffffffffffffffffffffff1673ffffffffffffffffffffffffffffffffffffffff16815260200190815260200160002060009054906101000a900460ff1615613132576040517f08c379a00000000000000000000000000000000000000000000000000000000081526004016131299061489c565b60405180910390fd5b6000805b60036000848152602001908152602001600020600001600001805490508110156131fc573373ffffffffffffffffffffffffffffffffffffffff1660036000858152602001908152602001600020600001600001828154811061319c5761319b6150b4565b5b9060005260206000200160009054906101000a900473ffffffffffffffffffffffffffffffffffffffff1673ffffffffffffffffffffffffffffffffffffffff1614156131e857600191505b6001816131f59190614dab565b9050613136565b508061323d576040517f08c379a00000000000000000000000000000000000000000000000000000000081526004016132349061491c565b60405180910390fd5b60016003600084815260200190815260200160002060050160008282546132649190614dab565b9250508190555060016004600084815260200190815260200160002060003373ffffffffffffffffffffffffffffffffffffffff1673ffffffffffffffffffffffffffffffffffffffff16815260200190815260200160002060006101000a81548160ff0219169083151502179055507f34647120636ce03d739347e28e9d1bdd34fd03d066ae60439fb1be2721ad16cd8233604051613305929190614c16565b60405180910390a15050565b60006040517f3d602d80600a3d3981f3363d3d373d3d3d363d7300000000000000000000000081528260601b60148201527f5af43d82803e903d91602b57fd5bf3000000000000000000000000000000000060288201526037816000f0915050600073ffffffffffffffffffffffffffffffffffffffff168173ffffffffffffffffffffffffffffffffffffffff1614156133e1576040517f08c379a00000000000000000000000000000000000000000000000000000000081526004016133d890614a1c565b60405180910390fd5b919050565b60405180610120016040528060008019168152602001600081526020016060815260200160608152602001600073ffffffffffffffffffffffffffffffffffffffff168152602001600073ffffffffffffffffffffffffffffffffffffffff16815260200161345361365c565b8152602001600073ffffffffffffffffffffffffffffffffffffffff168152602001600081525090565b8280548282559060005260206000209081019282156134f6579160200282015b828111156134f55782518260006101000a81548173ffffffffffffffffffffffffffffffffffffffff021916908373ffffffffffffffffffffffffffffffffffffffff1602179055509160200191906001019061349d565b5b50905061350391906136d2565b5090565b828054828255906000526020600020908101928215613543579160200282015b82811115613542578251825591602001919060010190613527565b5b50905061355091906136d2565b5090565b82805461356090614f7b565b90600052602060002090601f01602090048101928261358257600085556135c9565b82601f1061359b57805160ff19168380011785556135c9565b828001600101855582156135c9579182015b828111156135c85782518255916020019190600101906135ad565b5b5090506135d691906136d2565b5090565b50805460008255906000526020600020908101906135f891906136d2565b50565b508054600082559060005260206000209081019061361991906136d2565b50565b50805461362890614f7b565b6000825580601f1061363a5750613659565b601f01602090049060005260206000209081019061365891906136d2565b5b50565b6040518060c0016040528060608152602001600073ffffffffffffffffffffffffffffffffffffffff168152602001600067ffffffffffffffff168152602001600073ffffffffffffffffffffffffffffffffffffffff168152602001600067ffffffffffffffff168152602001600081525090565b5b808211156136eb5760008160009055506001016136d3565b5090565b60006137026136fd84614c8d565b614c68565b905080838252602082019050828560208602820111156137255761372461512b565b5b60005b85811015613755578161373b88826137a1565b845260208401935060208301925050600181019050613728565b5050509392505050565b600061377261376d84614cb9565b614c68565b90508281526020810184848401111561378e5761378d615130565b5b613799848285614f39565b509392505050565b6000813590506137b08161554e565b92915050565b6000815190506137c58161554e565b92915050565b600082601f8301126137e0576137df615117565b5b81356137f08482602086016136ef565b91505092915050565b60008083601f84011261380f5761380e615117565b5b8235905067ffffffffffffffff81111561382c5761382b615112565b5b6020830191508360208202830111156138485761384761512b565b5b9250929050565b60008151905061385e81615565565b92915050565b60008083601f84011261387a57613879615117565b5b8235905067ffffffffffffffff81111561389757613896615112565b5b6020830191508360018202830111156138b3576138b261512b565b5b9250929050565b600082601f8301126138cf576138ce615117565b5b81356138df84826020860161375f565b91505092915050565b6000604082840312156138fe576138fd61511c565b5b81905092915050565b60006040828403121561391d5761391c615121565b5b6139276040614c68565b9050600082013567ffffffffffffffff81111561394757613946615126565b5b613953848285016138ba565b600083015250602082013567ffffffffffffffff81111561397757613976615126565b5b613983848285016138ba565b60208301525092915050565b600060c082840312156139a5576139a4615121565b5b6139af60c0614c68565b9050600082013567ffffffffffffffff8111156139cf576139ce615126565b5b6139db848285016137cb565b60008301525060206139ef848285016137a1565b6020830152506040613a0384828501613a75565b6040830152506060613a17848285016137a1565b6060830152506080613a2b84828501613a75565b60808301525060a0613a3f84828501613a4b565b60a08301525092915050565b600081359050613a5a8161557c565b92915050565b600081519050613a6f8161557c565b92915050565b600081359050613a8481615593565b92915050565b600060208284031215613aa057613a9f61513a565b5b6000613aae848285016137a1565b91505092915050565b600060208284031215613acd57613acc61513a565b5b6000613adb848285016137b6565b91505092915050565b60008060408385031215613afb57613afa61513a565b5b6000613b09858286016137a1565b9250506020613b1a858286016137a1565b9150509250929050565b60008060408385031215613b3b57613b3a61513a565b5b6000613b49858286016137a1565b9250506020613b5a85828601613a4b565b9150509250929050565b60008060008060608587031215613b7e57613b7d61513a565b5b6000613b8c878288016137a1565b9450506020613b9d87828801613a4b565b935050604085013567ffffffffffffffff811115613bbe57613bbd615135565b5b613bca87828801613864565b925092505092959194509250565b600060208284031215613bee57613bed61513a565b5b6000613bfc8482850161384f565b91505092915050565b600080600080600080600080600060e08a8c031215613c2757613c2661513a565b5b60008a013567ffffffffffffffff811115613c4557613c44615135565b5b613c518c828d0161398f565b99505060208a013567ffffffffffffffff811115613c7257613c71615135565b5b613c7e8c828d016137f9565b98509850506040613c918c828d01613a4b565b96505060608a013567ffffffffffffffff811115613cb257613cb1615135565b5b613cbe8c828d016138e8565b9550506080613ccf8c828d01613a4b565b94505060a0613ce08c828d01613a4b565b93505060c08a013567ffffffffffffffff811115613d0157613d00615135565b5b613d0d8c828d016137f9565b92509250509295985092959850929598565b600060208284031215613d3557613d3461513a565b5b6000613d4384828501613a4b565b91505092915050565b600060208284031215613d6257613d6161513a565b5b6000613d7084828501613a60565b91505092915050565b6000613d858383613da9565b60208301905092915050565b6000613d9d838361457c565b60208301905092915050565b613db281614ec0565b82525050565b613dc181614ec0565b82525050565b6000613dd282614d0a565b613ddc8185614d45565b9350613de783614cea565b8060005b83811015613e18578151613dff8882613d79565b9750613e0a83614d2b565b925050600181019050613deb565b5085935050505092915050565b6000613e3082614d0a565b613e3a8185614d56565b9350613e4583614cea565b8060005b83811015613e76578151613e5d8882613d79565b9750613e6883614d2b565b925050600181019050613e49565b5085935050505092915050565b6000613e8e82614d15565b613e988185614d67565b9350613ea383614cfa565b8060005b83811015613ed4578151613ebb8882613d91565b9750613ec683614d38565b925050600181019050613ea7565b5085935050505092915050565b6000613eec82614d15565b613ef68185614d78565b9350613f0183614cfa565b8060005b83811015613f32578151613f198882613d91565b9750613f2483614d38565b925050600181019050613f05565b5085935050505092915050565b613f4881614ed2565b82525050565b613f5781614ede565b82525050565b613f6681614ede565b82525050565b6000613f788385614d9a565b9350613f85838584614f39565b613f8e8361513f565b840190509392505050565b6000613fa482614d20565b613fae8185614d89565b9350613fbe818560208601614f48565b613fc78161513f565b840191505092915050565b6000613fdd82614d20565b613fe78185614d9a565b9350613ff7818560208601614f48565b6140008161513f565b840191505092915050565b6000614018600183614d9a565b915061402382615150565b602082019050919050565b600061403b601583614d9a565b915061404682615179565b602082019050919050565b600061405e600a83614d9a565b9150614069826151a2565b602082019050919050565b6000614081600983614d9a565b915061408c826151cb565b602082019050919050565b60006140a4601683614d9a565b91506140af826151f4565b602082019050919050565b60006140c7600983614d9a565b91506140d28261521d565b602082019050919050565b60006140ea601483614d9a565b91506140f582615246565b602082019050919050565b600061410d600e83614d9a565b91506141188261526f565b602082019050919050565b6000614130601383614d9a565b915061413b82615298565b602082019050919050565b6000614153600e83614d9a565b915061415e826152c1565b602082019050919050565b6000614176601383614d9a565b9150614181826152ea565b602082019050919050565b6000614199601a83614d9a565b91506141a482615313565b602082019050919050565b60006141bc600e83614d9a565b91506141c78261533c565b602082019050919050565b60006141df601f83614d9a565b91506141ea82615365565b602082019050919050565b6000614202601683614d9a565b915061420d8261538e565b602082019050919050565b6000614225601583614d9a565b9150614230826153b7565b602082019050919050565b6000614248601c83614d9a565b9150614253826153e0565b602082019050919050565b600061426b601a83614d9a565b915061427682615409565b602082019050919050565b600061428e601483614d9a565b915061429982615432565b602082019050919050565b60006142b1601883614d9a565b91506142bc8261545b565b602082019050919050565b60006142d4601283614d9a565b91506142df82615484565b602082019050919050565b60006142f7602083614d9a565b9150614302826154ad565b602082019050919050565b600061431a602583614d9a565b9150614325826154d6565b604082019050919050565b600061433d601683614d9a565b915061434882615525565b602082019050919050565b600060408301600083015184820360008601526143708282613f99565b9150506020830151848203602086015261438a8282613f99565b9150508091505092915050565b6000610120830160008301516143b06000860182613f4e565b5060208301516143c3602086018261457c565b50604083015184820360408601526143db8282613e83565b915050606083015184820360608601526143f58282613e83565b915050608083015161440a6080860182613da9565b5060a083015161441d60a0860182613da9565b5060c083015184820360c0860152614435828261446a565b91505060e083015161444a60e0860182613da9565b5061010083015161445f61010086018261457c565b508091505092915050565b600060c08301600083015184820360008601526144878282613dc7565b915050602083015161449c6020860182613da9565b5060408301516144af604086018261459a565b5060608301516144c26060860182613da9565b5060808301516144d5608086018261459a565b5060a08301516144e860a086018261457c565b508091505092915050565b600060c08301600083015184820360008601526145108282613dc7565b91505060208301516145256020860182613da9565b506040830151614538604086018261459a565b50606083015161454b6060860182613da9565b50608083015161455e608086018261459a565b5060a083015161457160a086018261457c565b508091505092915050565b61458581614f08565b82525050565b61459481614f08565b82525050565b6145a381614f12565b82525050565b60006020820190506145be6000830184613db8565b92915050565b600060c0820190506145d96000830189613db8565b6145e66020830188613db8565b6145f36040830187613db8565b81810360608301526146058186613fd2565b905081810360808301526146198185613fd2565b905061462860a083018461458b565b979650505050505050565b60006060820190506146486000830186613db8565b6146556020830185613db8565b614662604083018461458b565b949350505050565b600060408201905061467f6000830185613db8565b81810360208301526146918184613e25565b90509392505050565b60006040820190506146af6000830185613db8565b6146bc602083018461458b565b9392505050565b60006060820190506146d86000830187613db8565b6146e5602083018661458b565b81810360408301526146f8818486613f6c565b905095945050505050565b60006020820190506147186000830184613f3f565b92915050565b60006020820190506147336000830184613f5d565b92915050565b600060408201905081810360008301526147538185613fd2565b905081810360208301526147678184613fd2565b90509392505050565b6000608082019050818103600083015261478a8187613fd2565b9050818103602083015261479e8186613fd2565b90506147ad6040830185613db8565b6147ba606083018461458b565b95945050505050565b600060a08201905081810360008301526147dd8188613fd2565b905081810360208301526147f18187613fd2565b905081810360408301526148058186613e25565b905081810360608301526148198185613ee1565b9050614828608083018461458b565b9695505050505050565b6000604082019050818103600083015261484c8184613fd2565b9050818103602083015261485f8161400b565b905092915050565b600060408201905081810360008301526148818184613fd2565b9050818103602083015261489481614051565b905092915050565b600060208201905081810360008301526148b58161402e565b9050919050565b600060208201905081810360008301526148d581614074565b9050919050565b600060208201905081810360008301526148f581614097565b9050919050565b60006020820190508181036000830152614915816140ba565b9050919050565b60006020820190508181036000830152614935816140dd565b9050919050565b6000602082019050818103600083015261495581614100565b9050919050565b6000602082019050818103600083015261497581614123565b9050919050565b6000602082019050818103600083015261499581614146565b9050919050565b600060208201905081810360008301526149b581614169565b9050919050565b600060208201905081810360008301526149d58161418c565b9050919050565b600060208201905081810360008301526149f5816141af565b9050919050565b60006020820190508181036000830152614a15816141d2565b9050919050565b60006020820190508181036000830152614a35816141f5565b9050919050565b60006020820190508181036000830152614a5581614218565b9050919050565b60006020820190508181036000830152614a758161423b565b9050919050565b60006020820190508181036000830152614a958161425e565b9050919050565b60006020820190508181036000830152614ab581614281565b9050919050565b60006020820190508181036000830152614ad5816142a4565b9050919050565b60006020820190508181036000830152614af5816142c7565b9050919050565b60006020820190508181036000830152614b15816142ea565b9050919050565b60006020820190508181036000830152614b358161430d565b9050919050565b60006020820190508181036000830152614b5581614330565b9050919050565b60006020820190508181036000830152614b768184614397565b905092915050565b600060e0820190508181036000830152614b98818a6144f3565b9050614ba7602083018961458b565b614bb4604083018861458b565b614bc1606083018761458b565b614bce608083018661458b565b81810360a0830152614be08185614353565b9050614bef60c083018461458b565b98975050505050505050565b6000602082019050614c10600083018461458b565b92915050565b6000604082019050614c2b600083018561458b565b614c386020830184613db8565b9392505050565b6000604082019050614c54600083018561458b565b614c61602083018461458b565b9392505050565b6000614c72614c83565b9050614c7e8282614fad565b919050565b6000604051905090565b600067ffffffffffffffff821115614ca857614ca76150e3565b5b602082029050602081019050919050565b600067ffffffffffffffff821115614cd457614cd36150e3565b5b614cdd8261513f565b9050602081019050919050565b6000819050602082019050919050565b6000819050602082019050919050565b600081519050919050565b600081519050919050565b600081519050919050565b6000602082019050919050565b6000602082019050919050565b600082825260208201905092915050565b600082825260208201905092915050565b600082825260208201905092915050565b600082825260208201905092915050565b600082825260208201905092915050565b600082825260208201905092915050565b6000614db682614f08565b9150614dc183614f08565b9250827fffffffffffffffffffffffffffffffffffffffffffffffffffffffffffffffff03821115614df657614df5615027565b5b828201905092915050565b6000614e0c82614f08565b9150614e1783614f08565b925082614e2757614e26615056565b5b828204905092915050565b6000614e3d82614f08565b9150614e4883614f08565b9250817fffffffffffffffffffffffffffffffffffffffffffffffffffffffffffffffff0483118215151615614e8157614e80615027565b5b828202905092915050565b6000614e9782614f08565b9150614ea283614f08565b925082821015614eb557614eb4615027565b5b828203905092915050565b6000614ecb82614ee8565b9050919050565b60008115159050919050565b6000819050919050565b600073ffffffffffffffffffffffffffffffffffffffff82169050919050565b6000819050919050565b600067ffffffffffffffff82169050919050565b6000614f323683613907565b9050919050565b82818337600083830152505050565b60005b83811015614f66578082015181840152602081019050614f4b565b83811115614f75576000848401525b50505050565b60006002820490506001821680614f9357607f821691505b60208210811415614fa757614fa6615085565b5b50919050565b614fb68261513f565b810181811067ffffffffffffffff82111715614fd557614fd46150e3565b5b80604052505050565b6000614fe982614f08565b91507fffffffffffffffffffffffffffffffffffffffffffffffffffffffffffffffff82141561501c5761501b615027565b5b600182019050919050565b7f4e487b7100000000000000000000000000000000000000000000000000000000600052601160045260246000fd5b7f4e487b7100000000000000000000000000000000000000000000000000000000600052601260045260246000fd5b7f4e487b7100000000000000000000000000000000000000000000000000000000600052602260045260246000fd5b7f4e487b7100000000000000000000000000000000000000000000000000000000600052603260045260246000fd5b7f4e487b7100000000000000000000000000000000000000000000000000000000600052604160045260246000fd5b600080fd5b600080fd5b600080fd5b600080fd5b600080fd5b600080fd5b600080fd5b600080fd5b600080fd5b6000601f19601f8301169050919050565b7f4300000000000000000000000000000000000000000000000000000000000000600082015250565b7f4163636f756e7420616c726561647920766f7465640000000000000000000000600082015250565b7f20436f7079726967687400000000000000000000000000000000000000000000600082015250565b7f4e6f206f776e6572730000000000000000000000000000000000000000000000600082015250565b7f50726f706f73616c20646f65736e277420657869737400000000000000000000600082015250565b7f4e6f206d65646961730000000000000000000000000000000000000000000000600082015250565b7f4f6e6c79206f776e6572732063616e20766f7465000000000000000000000000600082015250565b7f496e76616c696420616d6f756e74000000000000000000000000000000000000600082015250565b7f566f74696e6720706572696f6420656e64656400000000000000000000000000600082015250565b7f556e6578697374656e7420706f64000000000000000000000000000000000000600082015250565b7f496e76616c696420546f6b656e20507269636500000000000000000000000000600082015250565b7f46756e64696e6720746172676574206e6f742072656163686564000000000000600082015250565b7f496e76616c696420737461747573000000000000000000000000000000000000600082015250565b7f496e76616c696420617373657420666f722066756e64696e6720746f6b656e00600082015250565b7f455243313136373a20637265617465206661696c656400000000000000000000600082015250565b7f50726f706f73616c206e6f742061636365707465640000000000000000000000600082015250565b7f496e76616c696420636f7079726967687420616c6c6f636174696f6e00000000600082015250565b7f57726f6e6720636f7079726967687420616c6c6f636174696f6e000000000000600082015250565b7f46756e64696e6720646174652072656163686564000000000000000000000000600082015250565b7f46756e64696e672064617465206e6f7420726561636865640000000000000000600082015250565b7f3020746f6b656e7320746f2072657475726e0000000000000000000000000000600082015250565b7f4f6e6c79206f776e6572732063616e2075706c6f616420746865204d65646961600082015250565b7f4d656469612069642069732077726f6e67206f7220616c72656164792075706c60008201527f6f61646564000000000000000000000000000000000000000000000000000000602082015250565b7f4661696c20746f207472616e736665722066756e647300000000000000000000600082015250565b61555781614ec0565b811461556257600080fd5b50565b61556e81614ed2565b811461557957600080fd5b50565b61558581614f08565b811461559057600080fd5b50565b61559c81614f12565b81146155a757600080fd5b5056fea26469706673582212208480cb41bde2e4ab4da972e827125f9fd6902cd4fd007c390031addb7bd7b79f64736f6c63430008060033",
  "immutableReferences": {
    "3504": [
      {
        "length": 32,
        "start": 7436
      }
    ],
    "3506": [
      {
        "length": 32,
        "start": 2879
      },
      {
        "length": 32,
        "start": 12181
      }
    ],
    "3508": [
      {
        "length": 32,
        "start": 5559
      },
      {
        "length": 32,
        "start": 5808
      },
      {
        "length": 32,
        "start": 6082
      }
    ],
    "3510": [
      {
        "length": 32,
        "start": 6286
      }
    ]
  },
  "source": "// SPDX-License-Identifier: MIT\npragma solidity ^0.8.0;\n\nimport \"@openzeppelin/contracts/token/ERC20/ERC20.sol\";\nimport \"@openzeppelin/contracts/utils/Counters.sol\";\nimport \"./implementations/PodToken.sol\";\nimport \"./implementations/CopyrightToken.sol\";\nimport \"./implementations/ERC721WithRoyalty.sol\";\nimport \"./implementations/DistributionManager.sol\";\nimport \"./PodWithdrawManager.sol\";\nimport \"./Governance.sol\";\nimport \"./CreationManager.sol\";\nimport \"./Structs.sol\";\n\n/**\n * @title pod contracts deployer and manager\n * @author Eric Nordelo\n */\ncontract PodManager {\n    using Counters for Counters.Counter;\n\n    bytes32 public constant FUNDING_STATE = keccak256(\"FUNDING_STATE\");\n    bytes32 public constant FUNDED_STATE = keccak256(\"FUDED\");\n    bytes32 public constant ADMIN = keccak256(\"ADMIN\");\n    uint256 public constant PRECISION = 10**18;\n\n    address private immutable podWithdrawManagerAddress;\n    address private immutable governanceAddress;\n    address private immutable creationManager;\n    address private immutable distributionManagerImplementationAddress;\n\n    mapping(address => PodInfo) private _pods;\n    mapping(address => mapping(address => uint256)) public podToTokensClaimable;\n\n    uint256 private nextProposalId = 0;\n    mapping(uint256 => PodProposal) public podProposals;\n    mapping(uint256 => mapping(address => bool)) private podProposalToAccountToVoted;\n\n    event PodProposalCreated(uint256 id);\n    event ProposalVoted(uint256 id, address voter);\n    event CreatePod(address indexed podAddress);\n    event InvestPod(address indexed investor, address indexed podAddress, uint256 amount);\n    event UploadMedia(address indexed podAddress, uint256 nftId, uint256 _mediaId);\n\n    constructor(\n        address _podWithdrawManagerAddress,\n        address _governanceAddress,\n        address _creationManager,\n        address _distributionManagerImplementationAddress\n    ) {\n        // _setupRole(DEFAULT_ADMIN_ROLE, msg.sender);\n        // _setupRole(ADMIN, msg.sender);\n\n        podWithdrawManagerAddress = _podWithdrawManagerAddress;\n        governanceAddress = _governanceAddress;\n        creationManager = _creationManager;\n        CreationManager(_creationManager).setPodManagerAddress();\n        distributionManagerImplementationAddress = _distributionManagerImplementationAddress;\n    }\n\n    /**\n     * @param _copyrightAllocation order must match _pod.owners + last position for investors\n     */\n    function registerPodProposal(\n        Pod memory _pod,\n        uint256[] calldata _mediaIds,\n        uint256 _royaltyPercentage,\n        PodDescription calldata _podDescription,\n        uint256 _copyrightTokenSupply,\n        uint256 _investorShare,\n        uint256[] calldata _copyrightAllocation\n    ) external {\n        require(\n            Governance(governanceAddress).assetWhitelisted(_pod.fundingToken),\n            \"Invalid asset for funding token\"\n        );\n        require(_pod.fundingTokenPrice > 0, \"Invalid Token Price\");\n        require(_pod.owners.length > 0, \"No owners\");\n        require(_mediaIds.length > 0, \"No medias\");\n        require(_copyrightAllocation.length == _pod.owners.length + 1, \"Invalid copyright allocation\");\n        uint256 copyrightAllocationSum;\n        for (uint256 i = 0; i < _copyrightAllocation.length; i += 1) {\n            copyrightAllocationSum += _copyrightAllocation[i];\n        }\n        require(copyrightAllocationSum == 100, \"Wrong copyright allocation\");\n\n        podProposals[nextProposalId] = PodProposal({\n            pod: _pod,\n            start: block.timestamp,\n            votes: 0,\n            mediaIds: _mediaIds,\n            royaltyPercentage: _royaltyPercentage,\n            investorShare: _investorShare,\n            podDescription: _podDescription,\n            copyrightTokenSupply: _copyrightTokenSupply,\n            copyrightAllocation: _copyrightAllocation\n        });\n\n        emit PodProposalCreated(nextProposalId);\n\n        nextProposalId += 1;\n    }\n\n    function voteForPodProposal(uint256 id) external {\n        require(podProposals[id].start > 0, \"Proposal doesn't exist\");\n        require(\n            block.timestamp - podProposals[id].start <= Governance(governanceAddress).getPodVotingPeriod(),\n            \"Voting period ended\"\n        );\n        require(!podProposalToAccountToVoted[id][msg.sender], \"Account already voted\");\n        bool senderFoundInOwners = false;\n        for (uint256 i = 0; i < podProposals[id].pod.owners.length; i += 1) {\n            if (podProposals[id].pod.owners[i] == msg.sender) {\n                senderFoundInOwners = true;\n            }\n        }\n        require(senderFoundInOwners, \"Only owners can vote\");\n\n        podProposals[id].votes += 1;\n        podProposalToAccountToVoted[id][msg.sender] = true;\n\n        emit ProposalVoted(id, msg.sender);\n    }\n\n    function executePodProposal(uint256 id) external {\n        PodProposal memory _podProposal = podProposals[id];\n        Pod memory _pod = _podProposal.pod;\n        require(podProposals[id].votes == _pod.owners.length, \"Proposal not accepted\");\n        require(_pod.fundingDate >= block.timestamp, \"Funding date reached\");\n\n        address podAddress = CreationManager(creationManager).createPodToken(\n            _podProposal.podDescription.podTokenName,\n            _podProposal.podDescription.podTokenSymbol\n        );\n        _pod.podAddress = podAddress;\n\n        address copyrightToken = CreationManager(creationManager).createCopyrightToken(\n            string(abi.encode(_podProposal.podDescription.podTokenName, \" Copyright\")),\n            string(abi.encode(_podProposal.podDescription.podTokenSymbol, \"C\")),\n            _pod.owners,\n            _podProposal.copyrightAllocation,\n            _podProposal.copyrightTokenSupply\n        );\n\n        address erc721WithRoyalty = CreationManager(creationManager).createErc721WithRoyalty(\n            _podProposal.podDescription.podTokenName,\n            _podProposal.podDescription.podTokenSymbol,\n            podAddress,\n            _podProposal.royaltyPercentage\n        );\n\n        address distributionManager = Clones.clone(distributionManagerImplementationAddress);\n        DistributionManager(distributionManager).initialize(\n            podAddress,\n            _pod.fundingToken,\n            copyrightToken,\n            _podProposal.podDescription.podTokenName,\n            _podProposal.podDescription.podTokenSymbol,\n            _podProposal.investorShare\n        );\n\n        _pods[podAddress] = PodInfo({\n            status: FUNDING_STATE,\n            mediaIds: _podProposal.mediaIds,\n            registeredMediaIds: new uint256[](0),\n            raisedFunds: 0,\n            nftContract: erc721WithRoyalty,\n            pod: _pod,\n            copyrightToken: copyrightToken,\n            copyrightSupplyInvestors: (_podProposal.copyrightTokenSupply *\n                _podProposal.copyrightAllocation[_podProposal.copyrightAllocation.length - 1]) / 100,\n            distributionManagerAddress: distributionManager\n        });\n\n        // save the pod owners\n        PodWithdrawManager(podWithdrawManagerAddress).savePodOwners(podAddress, _pod.owners);\n\n        emit CreatePod(podAddress);\n\n        delete podProposals[id];\n    }\n\n    /**\n     * @notice allows investors to invest on a pod\n     * @dev using check-effect-interaction pattern to avoid reentrancy\n     * @param _podAddress the address of pod\n     * @param _amount the amount to invest\n     */\n    function investPod(address _podAddress, uint256 _amount) external {\n        require(_amount > 0, \"Invalid amount\");\n\n        PodInfo memory podInfo = _pods[_podAddress];\n\n        require(podInfo.pod.fundingDate >= block.timestamp, \"Funding date not reached\");\n        require(podInfo.status == FUNDING_STATE, \"Invalid status\");\n\n        uint256 amountToInvest = podInfo.pod.fundingTarget - podInfo.raisedFunds;\n        if (_amount < amountToInvest) {\n            amountToInvest = _amount;\n        }\n\n        uint256 tokensToReturn = (amountToInvest * PRECISION) / podInfo.pod.fundingTokenPrice;\n        require(tokensToReturn > 0, \"0 tokens to return\");\n        // update pod status\n        if (podInfo.raisedFunds + amountToInvest >= podInfo.pod.fundingTarget) {\n            _pods[_podAddress].status = FUNDED_STATE;\n        }\n        _pods[_podAddress].raisedFunds += amountToInvest;\n\n        // make the transfers (should have the allowance)\n        require(\n            ERC20(podInfo.pod.fundingToken).transferFrom(msg.sender, _podAddress, amountToInvest),\n            \"Fail to transfer funds\"\n        );\n\n        podToTokensClaimable[_podAddress][msg.sender] += tokensToReturn;\n\n        emit InvestPod(msg.sender, _podAddress, amountToInvest);\n    }\n\n    function claimPodTokens(address _podAddress) external {\n        PodInfo memory podInfo = getPodInfo(_podAddress);\n        require(block.timestamp >= podInfo.pod.fundingDate, \"Funding date not reached\");\n        require(podInfo.raisedFunds >= podInfo.pod.fundingTarget, \"Funding target not reached\");\n\n        PodToken(podInfo.pod.podAddress).mint(msg.sender, podToTokensClaimable[_podAddress][msg.sender]);\n\n        uint256 totalPodTokensSold = (_pods[_podAddress].raisedFunds * PRECISION) /\n            podInfo.pod.fundingTokenPrice;\n        uint256 copyrightTokensToSend = (podInfo.copyrightSupplyInvestors *\n            podToTokensClaimable[_podAddress][msg.sender]) / totalPodTokensSold;\n        CopyrightToken(podInfo.copyrightToken).transfer(msg.sender, copyrightTokensToSend);\n        delete podToTokensClaimable[_podAddress][msg.sender];\n    }\n\n    /**\n     * @notice allows media creators to upload a new media to a given pod\n     */\n    function uploadMedia(\n        address _podAddress,\n        uint256 _mediaId,\n        string calldata _uri\n    ) external {\n        PodInfo memory podInfo = getPodInfo(_podAddress);\n        require(podInfo.pod.fundingDate <= block.timestamp, \"Funding date not reached\");\n        require(podInfo.raisedFunds >= podInfo.pod.fundingTarget, \"Funding target not reached\");\n        bool isOwner = false;\n        for (uint256 i = 0; i < _pods[_podAddress].pod.owners.length; i++) {\n            if (_pods[_podAddress].pod.owners[i] == msg.sender) {\n                isOwner = true;\n            }\n        }\n        require(isOwner, \"Only owners can upload the Media\");\n        require(!isUploadedMedia(_podAddress, _mediaId), \"Media id is wrong or already uploaded\");\n\n        ERC721WithRoyalty(podInfo.nftContract).mint(_podAddress, _mediaId, _uri);\n        _pods[_podAddress].registeredMediaIds.push(_mediaId);\n\n        // emit the event if the creation was successful\n        emit UploadMedia(_podAddress, _mediaId, _mediaId);\n    }\n\n    /**\n     * @dev helper to get a pod checking if exists\n     */\n    function getPodInfo(address _podAddress) public view returns (PodInfo memory podInfo) {\n        require(_pods[_podAddress].mediaIds.length > 0, \"Unexistent pod\");\n        podInfo = _pods[_podAddress];\n    }\n\n    function isUploadedMedia(address podAddress, uint256 mediaId) public view returns (bool) {\n        for (uint256 i = 0; i < _pods[podAddress].registeredMediaIds.length; i++) {\n            if (_pods[podAddress].registeredMediaIds[i] == mediaId) {\n                return true;\n            }\n        }\n        return false;\n    }\n}\n",
  "sourcePath": "/Users/angelsatorresalmenara/Desktop/privi-pods-smart-contract/contracts/PodManager.sol",
  "compiler": {
    "name": "solc",
    "version": "0.8.6+commit.11564f7e.Emscripten.clang"
  },
  "schemaVersion": "3.4.3",
  "updatedAt": "2021-10-08T21:06:54.733Z",
  "networkType": "ethereum",
  "devdoc": {
    "author": "Eric Nordelo",
    "kind": "dev",
    "methods": {
      "getPodInfo(address)": {
        "details": "helper to get a pod checking if exists"
      },
      "investPod(address,uint256)": {
        "details": "using check-effect-interaction pattern to avoid reentrancy",
        "params": {
          "_amount": "the amount to invest",
          "_podAddress": "the address of pod"
        }
      },
      "registerPodProposal((address[],address,uint64,address,uint64,uint256),uint256[],uint256,(string,string),uint256,uint256,uint256[])": {
        "params": {
          "_copyrightAllocation": "order must match _pod.owners + last position for investors"
        }
      }
    },
    "title": "pod contracts deployer and manager",
    "version": 1
  },
  "userdoc": {
    "kind": "user",
    "methods": {
      "investPod(address,uint256)": {
        "notice": "allows investors to invest on a pod"
      },
      "uploadMedia(address,uint256,string)": {
        "notice": "allows media creators to upload a new media to a given pod"
      }
    },
    "version": 1
  }
}