{
  "contractName": "PodManager",
  "abi": [
    {
      "inputs": [
        {
          "internalType": "address",
          "name": "_podWithdrawManagerAddress",
          "type": "address"
        },
        {
          "internalType": "address",
          "name": "_governanceAddress",
          "type": "address"
        },
        {
          "internalType": "address",
          "name": "_creationManager",
          "type": "address"
        },
        {
          "internalType": "address",
          "name": "_distributionManagerImplementationAddress",
          "type": "address"
        }
      ],
      "stateMutability": "nonpayable",
      "type": "constructor"
    },
    {
      "anonymous": false,
      "inputs": [
        {
          "indexed": true,
          "internalType": "address",
          "name": "podAddress",
          "type": "address"
        }
      ],
      "name": "CreatePod",
      "type": "event"
    },
    {
      "anonymous": false,
      "inputs": [
        {
          "indexed": true,
          "internalType": "address",
          "name": "podAddress",
          "type": "address"
        }
      ],
      "name": "DisposePod",
      "type": "event"
    },
    {
      "anonymous": false,
      "inputs": [
        {
          "indexed": true,
          "internalType": "address",
          "name": "investor",
          "type": "address"
        },
        {
          "indexed": true,
          "internalType": "address",
          "name": "podAddress",
          "type": "address"
        },
        {
          "indexed": false,
          "internalType": "uint256",
          "name": "amount",
          "type": "uint256"
        }
      ],
      "name": "InvestPod",
      "type": "event"
    },
    {
      "anonymous": false,
      "inputs": [
        {
          "indexed": false,
          "internalType": "address",
          "name": "account",
          "type": "address"
        }
      ],
      "name": "Paused",
      "type": "event"
    },
    {
      "anonymous": false,
      "inputs": [
        {
          "indexed": false,
          "internalType": "uint256",
          "name": "id",
          "type": "uint256"
        }
      ],
      "name": "PodProposalCreated",
      "type": "event"
    },
    {
      "anonymous": false,
      "inputs": [
        {
          "indexed": false,
          "internalType": "uint256",
          "name": "id",
          "type": "uint256"
        },
        {
          "indexed": false,
          "internalType": "address",
          "name": "voter",
          "type": "address"
        }
      ],
      "name": "ProposalVoted",
      "type": "event"
    },
    {
      "anonymous": false,
      "inputs": [
        {
          "indexed": true,
          "internalType": "bytes32",
          "name": "role",
          "type": "bytes32"
        },
        {
          "indexed": true,
          "internalType": "bytes32",
          "name": "previousAdminRole",
          "type": "bytes32"
        },
        {
          "indexed": true,
          "internalType": "bytes32",
          "name": "newAdminRole",
          "type": "bytes32"
        }
      ],
      "name": "RoleAdminChanged",
      "type": "event"
    },
    {
      "anonymous": false,
      "inputs": [
        {
          "indexed": true,
          "internalType": "bytes32",
          "name": "role",
          "type": "bytes32"
        },
        {
          "indexed": true,
          "internalType": "address",
          "name": "account",
          "type": "address"
        },
        {
          "indexed": true,
          "internalType": "address",
          "name": "sender",
          "type": "address"
        }
      ],
      "name": "RoleGranted",
      "type": "event"
    },
    {
      "anonymous": false,
      "inputs": [
        {
          "indexed": true,
          "internalType": "bytes32",
          "name": "role",
          "type": "bytes32"
        },
        {
          "indexed": true,
          "internalType": "address",
          "name": "account",
          "type": "address"
        },
        {
          "indexed": true,
          "internalType": "address",
          "name": "sender",
          "type": "address"
        }
      ],
      "name": "RoleRevoked",
      "type": "event"
    },
    {
      "anonymous": false,
      "inputs": [
        {
          "indexed": false,
          "internalType": "address",
          "name": "account",
          "type": "address"
        }
      ],
      "name": "Unpaused",
      "type": "event"
    },
    {
      "anonymous": false,
      "inputs": [
        {
          "indexed": true,
          "internalType": "address",
          "name": "podAddress",
          "type": "address"
        },
        {
          "indexed": false,
          "internalType": "uint256",
          "name": "nftId",
          "type": "uint256"
        },
        {
          "indexed": false,
          "internalType": "uint256",
          "name": "_mediaId",
          "type": "uint256"
        }
      ],
      "name": "UploadMedia",
      "type": "event"
    },
    {
      "inputs": [],
      "name": "ADMIN",
      "outputs": [
        {
          "internalType": "bytes32",
          "name": "",
          "type": "bytes32"
        }
      ],
      "stateMutability": "view",
      "type": "function",
      "constant": true
    },
    {
      "inputs": [],
      "name": "DEFAULT_ADMIN_ROLE",
      "outputs": [
        {
          "internalType": "bytes32",
          "name": "",
          "type": "bytes32"
        }
      ],
      "stateMutability": "view",
      "type": "function",
      "constant": true
    },
    {
      "inputs": [],
      "name": "DISPOSED_STATE",
      "outputs": [
        {
          "internalType": "bytes32",
          "name": "",
          "type": "bytes32"
        }
      ],
      "stateMutability": "view",
      "type": "function",
      "constant": true
    },
    {
      "inputs": [],
      "name": "FUNDED_STATE",
      "outputs": [
        {
          "internalType": "bytes32",
          "name": "",
          "type": "bytes32"
        }
      ],
      "stateMutability": "view",
      "type": "function",
      "constant": true
    },
    {
      "inputs": [],
      "name": "FUNDING_STATE",
      "outputs": [
        {
          "internalType": "bytes32",
          "name": "",
          "type": "bytes32"
        }
      ],
      "stateMutability": "view",
      "type": "function",
      "constant": true
    },
    {
      "inputs": [],
      "name": "PRECISION",
      "outputs": [
        {
          "internalType": "uint256",
          "name": "",
          "type": "uint256"
        }
      ],
      "stateMutability": "view",
      "type": "function",
      "constant": true
    },
    {
      "inputs": [
        {
          "internalType": "bytes32",
          "name": "role",
          "type": "bytes32"
        }
      ],
      "name": "getRoleAdmin",
      "outputs": [
        {
          "internalType": "bytes32",
          "name": "",
          "type": "bytes32"
        }
      ],
      "stateMutability": "view",
      "type": "function",
      "constant": true
    },
    {
      "inputs": [
        {
          "internalType": "bytes32",
          "name": "role",
          "type": "bytes32"
        },
        {
          "internalType": "address",
          "name": "account",
          "type": "address"
        }
      ],
      "name": "grantRole",
      "outputs": [],
      "stateMutability": "nonpayable",
      "type": "function"
    },
    {
      "inputs": [
        {
          "internalType": "bytes32",
          "name": "role",
          "type": "bytes32"
        },
        {
          "internalType": "address",
          "name": "account",
          "type": "address"
        }
      ],
      "name": "hasRole",
      "outputs": [
        {
          "internalType": "bool",
          "name": "",
          "type": "bool"
        }
      ],
      "stateMutability": "view",
      "type": "function",
      "constant": true
    },
    {
      "inputs": [],
      "name": "paused",
      "outputs": [
        {
          "internalType": "bool",
          "name": "",
          "type": "bool"
        }
      ],
      "stateMutability": "view",
      "type": "function",
      "constant": true
    },
    {
      "inputs": [
        {
          "internalType": "uint256",
          "name": "",
          "type": "uint256"
        }
      ],
      "name": "podProposals",
      "outputs": [
        {
          "components": [
            {
              "internalType": "address[]",
              "name": "owners",
              "type": "address[]"
            },
            {
              "internalType": "address",
              "name": "podAddress",
              "type": "address"
            },
            {
              "internalType": "uint64",
              "name": "fundingDate",
              "type": "uint64"
            },
            {
              "internalType": "address",
              "name": "fundingToken",
              "type": "address"
            },
            {
              "internalType": "uint64",
              "name": "fundingTokenPrice",
              "type": "uint64"
            },
            {
              "internalType": "uint256",
              "name": "fundingTarget",
              "type": "uint256"
            }
          ],
          "internalType": "struct Pod",
          "name": "pod",
          "type": "tuple"
        },
        {
          "internalType": "uint256",
          "name": "start",
          "type": "uint256"
        },
        {
          "internalType": "uint256",
          "name": "votes",
          "type": "uint256"
        },
        {
          "internalType": "uint256",
          "name": "royaltyPercentage",
          "type": "uint256"
        },
        {
          "components": [
            {
              "internalType": "string",
              "name": "podTokenName",
              "type": "string"
            },
            {
              "internalType": "string",
              "name": "podTokenSymbol",
              "type": "string"
            }
          ],
          "internalType": "struct PodDescription",
          "name": "podDescription",
          "type": "tuple"
        },
        {
          "internalType": "uint256",
          "name": "copyrightTokenSupply",
          "type": "uint256"
        }
      ],
      "stateMutability": "view",
      "type": "function",
      "constant": true
    },
    {
      "inputs": [
        {
          "internalType": "bytes32",
          "name": "role",
          "type": "bytes32"
        },
        {
          "internalType": "address",
          "name": "account",
          "type": "address"
        }
      ],
      "name": "renounceRole",
      "outputs": [],
      "stateMutability": "nonpayable",
      "type": "function"
    },
    {
      "inputs": [
        {
          "internalType": "bytes32",
          "name": "role",
          "type": "bytes32"
        },
        {
          "internalType": "address",
          "name": "account",
          "type": "address"
        }
      ],
      "name": "revokeRole",
      "outputs": [],
      "stateMutability": "nonpayable",
      "type": "function"
    },
    {
      "inputs": [
        {
          "internalType": "bytes4",
          "name": "interfaceId",
          "type": "bytes4"
        }
      ],
      "name": "supportsInterface",
      "outputs": [
        {
          "internalType": "bool",
          "name": "",
          "type": "bool"
        }
      ],
      "stateMutability": "view",
      "type": "function",
      "constant": true
    },
    {
      "inputs": [],
      "name": "pause",
      "outputs": [],
      "stateMutability": "nonpayable",
      "type": "function"
    },
    {
      "inputs": [
        {
          "components": [
            {
              "internalType": "address[]",
              "name": "owners",
              "type": "address[]"
            },
            {
              "internalType": "address",
              "name": "podAddress",
              "type": "address"
            },
            {
              "internalType": "uint64",
              "name": "fundingDate",
              "type": "uint64"
            },
            {
              "internalType": "address",
              "name": "fundingToken",
              "type": "address"
            },
            {
              "internalType": "uint64",
              "name": "fundingTokenPrice",
              "type": "uint64"
            },
            {
              "internalType": "uint256",
              "name": "fundingTarget",
              "type": "uint256"
            }
          ],
          "internalType": "struct Pod",
          "name": "_pod",
          "type": "tuple"
        },
        {
          "internalType": "uint256[]",
          "name": "_mediaIds",
          "type": "uint256[]"
        },
        {
          "internalType": "uint256",
          "name": "_royaltyPercentage",
          "type": "uint256"
        },
        {
          "components": [
            {
              "internalType": "string",
              "name": "podTokenName",
              "type": "string"
            },
            {
              "internalType": "string",
              "name": "podTokenSymbol",
              "type": "string"
            }
          ],
          "internalType": "struct PodDescription",
          "name": "_podDescription",
          "type": "tuple"
        },
        {
          "internalType": "uint256",
          "name": "_copyrightTokenSupply",
          "type": "uint256"
        },
        {
          "internalType": "uint256[]",
          "name": "_copyrightAllocation",
          "type": "uint256[]"
        }
      ],
      "name": "registerPodProposal",
      "outputs": [],
      "stateMutability": "nonpayable",
      "type": "function"
    },
    {
      "inputs": [
        {
          "internalType": "uint256",
          "name": "id",
          "type": "uint256"
        }
      ],
      "name": "voteForPodProposal",
      "outputs": [],
      "stateMutability": "nonpayable",
      "type": "function"
    },
    {
      "inputs": [
        {
          "internalType": "uint256",
          "name": "id",
          "type": "uint256"
        }
      ],
      "name": "executePodProposal",
      "outputs": [],
      "stateMutability": "nonpayable",
      "type": "function"
    },
    {
      "inputs": [
        {
          "internalType": "address",
          "name": "_podAddress",
          "type": "address"
        },
        {
          "internalType": "uint256",
          "name": "_amount",
          "type": "uint256"
        }
      ],
      "name": "investPod",
      "outputs": [],
      "stateMutability": "nonpayable",
      "type": "function"
    },
    {
      "inputs": [
        {
          "internalType": "address",
          "name": "_podAddress",
          "type": "address"
        }
      ],
      "name": "claimPodTokens",
      "outputs": [],
      "stateMutability": "nonpayable",
      "type": "function"
    },
    {
      "inputs": [
        {
          "internalType": "address",
          "name": "_podAddress",
          "type": "address"
        },
        {
          "internalType": "uint256",
          "name": "_mediaId",
          "type": "uint256"
        }
      ],
      "name": "uploadMedia",
      "outputs": [],
      "stateMutability": "nonpayable",
      "type": "function"
    },
    {
      "inputs": [
        {
          "internalType": "address",
          "name": "_podAddress",
          "type": "address"
        }
      ],
      "name": "disposePod",
      "outputs": [],
      "stateMutability": "nonpayable",
      "type": "function"
    },
    {
      "inputs": [
        {
          "internalType": "address",
          "name": "_podAddress",
          "type": "address"
        }
      ],
      "name": "getPodInfo",
      "outputs": [
        {
          "components": [
            {
              "internalType": "bytes32",
              "name": "status",
              "type": "bytes32"
            },
            {
              "internalType": "uint256",
              "name": "raisedFunds",
              "type": "uint256"
            },
            {
              "internalType": "uint256[]",
              "name": "mediaIds",
              "type": "uint256[]"
            },
            {
              "internalType": "uint256[]",
              "name": "registeredMediaIds",
              "type": "uint256[]"
            },
            {
              "internalType": "address",
              "name": "nftContract",
              "type": "address"
            },
            {
              "internalType": "address",
              "name": "distributionManagerAddress",
              "type": "address"
            },
            {
              "components": [
                {
                  "internalType": "address[]",
                  "name": "owners",
                  "type": "address[]"
                },
                {
                  "internalType": "address",
                  "name": "podAddress",
                  "type": "address"
                },
                {
                  "internalType": "uint64",
                  "name": "fundingDate",
                  "type": "uint64"
                },
                {
                  "internalType": "address",
                  "name": "fundingToken",
                  "type": "address"
                },
                {
                  "internalType": "uint64",
                  "name": "fundingTokenPrice",
                  "type": "uint64"
                },
                {
                  "internalType": "uint256",
                  "name": "fundingTarget",
                  "type": "uint256"
                }
              ],
              "internalType": "struct Pod",
              "name": "pod",
              "type": "tuple"
            },
            {
              "internalType": "address",
              "name": "copyrightToken",
              "type": "address"
            },
            {
              "internalType": "uint256",
              "name": "copyrightSupplyInvestors",
              "type": "uint256"
            }
          ],
          "internalType": "struct PodInfo",
          "name": "podInfo",
          "type": "tuple"
        }
      ],
      "stateMutability": "view",
      "type": "function",
      "constant": true
    },
    {
      "inputs": [
        {
          "internalType": "address",
          "name": "podAddress",
          "type": "address"
        },
        {
          "internalType": "address",
          "name": "account",
          "type": "address"
        }
      ],
      "name": "isOwner",
      "outputs": [
        {
          "internalType": "bool",
          "name": "",
          "type": "bool"
        }
      ],
      "stateMutability": "view",
      "type": "function",
      "constant": true
    },
    {
      "inputs": [
        {
          "internalType": "address",
          "name": "podAddress",
          "type": "address"
        },
        {
          "internalType": "uint256",
          "name": "mediaId",
          "type": "uint256"
        }
      ],
      "name": "isUploadedMedia",
      "outputs": [
        {
          "internalType": "bool",
          "name": "",
          "type": "bool"
        }
      ],
      "stateMutability": "view",
      "type": "function",
      "constant": true
    }
  ],
  "bytecode": "0x61010060405260006005553480156200001757600080fd5b50604051620062e7380380620062e783398181016040528101906200003d91906200037e565b6000600160006101000a81548160ff0219169083151502179055506001600281905550620000756000801b33620001ee60201b60201c565b620000a77fdf8b4c520ffe197c5343c6f5aec59570151ef9a492f2c624fd45ddde6135ec4233620001ee60201b60201c565b8373ffffffffffffffffffffffffffffffffffffffff1660808173ffffffffffffffffffffffffffffffffffffffff1660601b815250508273ffffffffffffffffffffffffffffffffffffffff1660a08173ffffffffffffffffffffffffffffffffffffffff1660601b815250508173ffffffffffffffffffffffffffffffffffffffff1660c08173ffffffffffffffffffffffffffffffffffffffff1660601b815250508173ffffffffffffffffffffffffffffffffffffffff16622181b46040518163ffffffff1660e01b8152600401600060405180830381600087803b1580156200019457600080fd5b505af1158015620001a9573d6000803e3d6000fd5b505050508073ffffffffffffffffffffffffffffffffffffffff1660e08173ffffffffffffffffffffffffffffffffffffffff1660601b815250505050505062000443565b6200020082826200020460201b60201c565b5050565b620002168282620002f560201b60201c565b620002f157600160008084815260200190815260200160002060000160008373ffffffffffffffffffffffffffffffffffffffff1673ffffffffffffffffffffffffffffffffffffffff16815260200190815260200160002060006101000a81548160ff021916908315150217905550620002966200035f60201b60201c565b73ffffffffffffffffffffffffffffffffffffffff168173ffffffffffffffffffffffffffffffffffffffff16837f2f8788117e7eff1d82e926ec794901d17c78024a50270940304540a733656f0d60405160405180910390a45b5050565b600080600084815260200190815260200160002060000160008373ffffffffffffffffffffffffffffffffffffffff1673ffffffffffffffffffffffffffffffffffffffff16815260200190815260200160002060009054906101000a900460ff16905092915050565b600033905090565b600081519050620003788162000429565b92915050565b600080600080608085870312156200039b576200039a62000424565b5b6000620003ab8782880162000367565b9450506020620003be8782880162000367565b9350506040620003d18782880162000367565b9250506060620003e48782880162000367565b91505092959194509250565b6000620003fd8262000404565b9050919050565b600073ffffffffffffffffffffffffffffffffffffffff82169050919050565b600080fd5b6200043481620003f0565b81146200044057600080fd5b50565b60805160601c60a05160601c60c05160601c60e05160601c615e496200049e60003960006112a8015260008181610fd2015281816110cb01526111dc015260008181611de30152613034015260006116f00152615e496000f3fe608060405234801561001057600080fd5b50600436106101735760003560e01c80637ddc02d4116100de578063aaf5eb6811610097578063b9e067ba11610071578063b9e067ba1461044f578063c356d37c1461046b578063ca7d793b14610489578063d547741f146104a557610173565b8063aaf5eb68146103e5578063affb3eb514610403578063b8dbc1b61461041f57610173565b80637ddc02d4146103255780638456cb591461035557806390bbb3121461035f57806391d148541461037b57806399d3d801146103ab578063a217fddf146103c757610173565b80632f2ff15d116101305780632f2ff15d1461026257806336568abe1461027e5780634248d4db1461029a5780634b4fdc5f146102b65780635c975abb146102eb5780637b409fb91461030957610173565b806301d8b5621461017857806301ffc9a7146101a85780630827f77d146101d85780631010a08b146101f6578063248a9ca3146102145780632a0acc6a14610244575b600080fd5b610192600480360381019061018d9190614052565b6104c1565b60405161019f9190615271565b60405180910390f35b6101c260048036038101906101bd91906141c6565b61092f565b6040516101cf9190614d76565b60405180910390f35b6101e06109a9565b6040516101ed9190614d91565b60405180910390f35b6101fe6109cd565b60405161020b9190614d91565b60405180910390f35b61022e60048036038101906102299190614159565b6109f1565b60405161023b9190614d91565b60405180910390f35b61024c610a10565b6040516102599190614d91565b60405180910390f35b61027c60048036038101906102779190614186565b610a34565b005b61029860048036038101906102939190614186565b610a5d565b005b6102b460048036038101906102af91906142fa565b610ae0565b005b6102d060048036038101906102cb91906142fa565b6117cb565b6040516102e296959493929190615293565b60405180910390f35b6102f3611ae7565b6040516103009190614d76565b60405180910390f35b610323600480360381019061031e9190614052565b611afe565b005b61033f600480360381019061033a91906140ac565b611c25565b60405161034c9190614d76565b60405180910390f35b61035d611d5c565b005b610379600480360381019061037491906141f3565b611d99565b005b61039560048036038101906103909190614186565b612395565b6040516103a29190614d76565b60405180910390f35b6103c560048036038101906103c091906140ec565b6123ff565b005b6103cf612863565b6040516103dc9190614d91565b60405180910390f35b6103ed61286a565b6040516103fa9190615302565b60405180910390f35b61041d600480360381019061041891906140ec565b612870565b005b610439600480360381019061043491906140ec565b612b85565b6040516104469190614d76565b60405180910390f35b61046960048036038101906104649190614052565b612c6a565b005b610473612fc6565b6040516104809190614d91565b60405180910390f35b6104a3600480360381019061049e91906142fa565b612fea565b005b6104bf60048036038101906104ba9190614186565b6133b0565b005b6104c9613a5c565b6000600360008473ffffffffffffffffffffffffffffffffffffffff1673ffffffffffffffffffffffffffffffffffffffff1681526020019081526020016000206002018054905011610551576040517f08c379a000000000000000000000000000000000000000000000000000000000815260040161054890615011565b60405180910390fd5b600360008373ffffffffffffffffffffffffffffffffffffffff1673ffffffffffffffffffffffffffffffffffffffff168152602001908152602001600020604051806101200160405290816000820154815260200160018201548152602001600282018054806020026020016040519081016040528092919081815260200182805480156105ff57602002820191906000526020600020905b8154815260200190600101908083116105eb575b505050505081526020016003820180548060200260200160405190810160405280929190818152602001828054801561065757602002820191906000526020600020905b815481526020019060010190808311610643575b505050505081526020016004820160009054906101000a900473ffffffffffffffffffffffffffffffffffffffff1673ffffffffffffffffffffffffffffffffffffffff1673ffffffffffffffffffffffffffffffffffffffff1681526020016005820160009054906101000a900473ffffffffffffffffffffffffffffffffffffffff1673ffffffffffffffffffffffffffffffffffffffff1673ffffffffffffffffffffffffffffffffffffffff168152602001600682016040518060c0016040529081600082018054806020026020016040519081016040528092919081815260200182805480156107a157602002820191906000526020600020905b8160009054906101000a900473ffffffffffffffffffffffffffffffffffffffff1673ffffffffffffffffffffffffffffffffffffffff1681526020019060010190808311610757575b505050505081526020016001820160009054906101000a900473ffffffffffffffffffffffffffffffffffffffff1673ffffffffffffffffffffffffffffffffffffffff1673ffffffffffffffffffffffffffffffffffffffff1681526020016001820160149054906101000a900467ffffffffffffffff1667ffffffffffffffff1667ffffffffffffffff1681526020016002820160009054906101000a900473ffffffffffffffffffffffffffffffffffffffff1673ffffffffffffffffffffffffffffffffffffffff1673ffffffffffffffffffffffffffffffffffffffff1681526020016002820160149054906101000a900467ffffffffffffffff1667ffffffffffffffff1667ffffffffffffffff1681526020016003820154815250508152602001600a820160009054906101000a900473ffffffffffffffffffffffffffffffffffffffff1673ffffffffffffffffffffffffffffffffffffffff1673ffffffffffffffffffffffffffffffffffffffff168152602001600b820154815250509050919050565b60007f7965db0b000000000000000000000000000000000000000000000000000000007bffffffffffffffffffffffffffffffffffffffffffffffffffffffff1916827bffffffffffffffffffffffffffffffffffffffffffffffffffffffff191614806109a257506109a1826133d9565b5b9050919050565b7f1b051eabb191097272b9187f0c5c3152a0c5088405d4a327a4e5e5242f29cfca81565b7f2097e2e0f370945c0a82a75d599dd83e8cd76a11910f1819fdadc112dd2e811581565b6000806000838152602001908152602001600020600101549050919050565b7fdf8b4c520ffe197c5343c6f5aec59570151ef9a492f2c624fd45ddde6135ec4281565b610a3d826109f1565b610a4e81610a49613443565b61344b565b610a5883836134e8565b505050565b610a65613443565b73ffffffffffffffffffffffffffffffffffffffff168173ffffffffffffffffffffffffffffffffffffffff1614610ad2576040517f08c379a0000000000000000000000000000000000000000000000000000000008152600401610ac990615251565b60405180910390fd5b610adc82826135c8565b5050565b610ae8611ae7565b15610b28576040517f08c379a0000000000000000000000000000000000000000000000000000000008152600401610b1f906150b1565b60405180910390fd5b60006006600083815260200190815260200160002060405180610100016040529081600082016040518060c001604052908160008201805480602002602001604051908101604052809291908181526020018280548015610bde57602002820191906000526020600020905b8160009054906101000a900473ffffffffffffffffffffffffffffffffffffffff1673ffffffffffffffffffffffffffffffffffffffff1681526020019060010190808311610b94575b505050505081526020016001820160009054906101000a900473ffffffffffffffffffffffffffffffffffffffff1673ffffffffffffffffffffffffffffffffffffffff1673ffffffffffffffffffffffffffffffffffffffff1681526020016001820160149054906101000a900467ffffffffffffffff1667ffffffffffffffff1667ffffffffffffffff1681526020016002820160009054906101000a900473ffffffffffffffffffffffffffffffffffffffff1673ffffffffffffffffffffffffffffffffffffffff1673ffffffffffffffffffffffffffffffffffffffff1681526020016002820160149054906101000a900467ffffffffffffffff1667ffffffffffffffff1667ffffffffffffffff1681526020016003820154815250508152602001600482015481526020016005820154815260200160068201805480602002602001604051908101604052809291908181526020018280548015610d6857602002820191906000526020600020905b815481526020019060010190808311610d54575b505050505081526020016007820154815260200160088201604051806040016040529081600082018054610d9b906156e3565b80601f0160208091040260200160405190810160405280929190818152602001828054610dc7906156e3565b8015610e145780601f10610de957610100808354040283529160200191610e14565b820191906000526020600020905b815481529060010190602001808311610df757829003601f168201915b50505050508152602001600182018054610e2d906156e3565b80601f0160208091040260200160405190810160405280929190818152602001828054610e59906156e3565b8015610ea65780601f10610e7b57610100808354040283529160200191610ea6565b820191906000526020600020905b815481529060010190602001808311610e8957829003601f168201915b5050505050815250508152602001600a8201548152602001600b8201805480602002602001604051908101604052809291908181526020018280548015610f0c57602002820191906000526020600020905b815481526020019060010190808311610ef8575b5050505050815250509050600081600001519050806000015151600660008581526020019081526020016000206005015414610f7d576040517f08c379a0000000000000000000000000000000000000000000000000000000008152600401610f74906150f1565b60405180910390fd5b42816040015167ffffffffffffffff161015610fce576040517f08c379a0000000000000000000000000000000000000000000000000000000008152600401610fc590615171565b60405180910390fd5b60007f000000000000000000000000000000000000000000000000000000000000000073ffffffffffffffffffffffffffffffffffffffff1663fd4eb0d78460a00151600001518560a00151602001516040518363ffffffff1660e01b815260040161103b929190614dce565b602060405180830381600087803b15801561105557600080fd5b505af1158015611069573d6000803e3d6000fd5b505050506040513d601f19601f8201168201806040525081019061108d919061407f565b905080826020019073ffffffffffffffffffffffffffffffffffffffff16908173ffffffffffffffffffffffffffffffffffffffff168152505060007f000000000000000000000000000000000000000000000000000000000000000073ffffffffffffffffffffffffffffffffffffffff1663258d79e98560a001516000015160405160200161111e9190614efc565b6040516020818303038152906040528660a00151602001516040516020016111469190614ec7565b60405160208183030381529060405286600001518860e001518960c001516040518663ffffffff1660e01b8152600401611184959493929190614e58565b602060405180830381600087803b15801561119e57600080fd5b505af11580156111b2573d6000803e3d6000fd5b505050506040513d601f19601f820116820180604052508101906111d6919061407f565b905060007f000000000000000000000000000000000000000000000000000000000000000073ffffffffffffffffffffffffffffffffffffffff166353fe2d918660a00151600001518760a00151602001518689608001516040518563ffffffff1660e01b815260040161124d9493929190614e05565b602060405180830381600087803b15801561126757600080fd5b505af115801561127b573d6000803e3d6000fd5b505050506040513d601f19601f8201168201806040525081019061129f919061407f565b905060006112cc7f00000000000000000000000000000000000000000000000000000000000000006136a9565b90508073ffffffffffffffffffffffffffffffffffffffff1663c0c53b8b858760600151866040518463ffffffff1660e01b815260040161130f93929190614caf565b600060405180830381600087803b15801561132957600080fd5b505af115801561133d573d6000803e3d6000fd5b505050506040518061012001604052807f1b051eabb191097272b9187f0c5c3152a0c5088405d4a327a4e5e5242f29cfca81526020016000815260200187606001518152602001600067ffffffffffffffff81111561139f5761139e615802565b5b6040519080825280602002602001820160405280156113cd5781602001602082028036833780820191505090505b5081526020018373ffffffffffffffffffffffffffffffffffffffff1681526020018273ffffffffffffffffffffffffffffffffffffffff1681526020018681526020018473ffffffffffffffffffffffffffffffffffffffff1681526020018760e0015160018960e0015151611444919061559e565b81518110611455576114546157d3565b5b6020026020010151815250600360008673ffffffffffffffffffffffffffffffffffffffff1673ffffffffffffffffffffffffffffffffffffffff168152602001908152602001600020600082015181600001556020820151816001015560408201518160020190805190602001906114cf929190613af3565b5060608201518160030190805190602001906114ec929190613af3565b5060808201518160040160006101000a81548173ffffffffffffffffffffffffffffffffffffffff021916908373ffffffffffffffffffffffffffffffffffffffff16021790555060a08201518160050160006101000a81548173ffffffffffffffffffffffffffffffffffffffff021916908373ffffffffffffffffffffffffffffffffffffffff16021790555060c08201518160060160008201518160000190805190602001906115a0929190613b40565b5060208201518160010160006101000a81548173ffffffffffffffffffffffffffffffffffffffff021916908373ffffffffffffffffffffffffffffffffffffffff16021790555060408201518160010160146101000a81548167ffffffffffffffff021916908367ffffffffffffffff16021790555060608201518160020160006101000a81548173ffffffffffffffffffffffffffffffffffffffff021916908373ffffffffffffffffffffffffffffffffffffffff16021790555060808201518160020160146101000a81548167ffffffffffffffff021916908367ffffffffffffffff16021790555060a08201518160030155505060e082015181600a0160006101000a81548173ffffffffffffffffffffffffffffffffffffffff021916908373ffffffffffffffffffffffffffffffffffffffff16021790555061010082015181600b01559050507f000000000000000000000000000000000000000000000000000000000000000073ffffffffffffffffffffffffffffffffffffffff1663ecfcb72a8587600001516040518363ffffffff1660e01b815260040161174d929190614d1d565b600060405180830381600087803b15801561176757600080fd5b505af115801561177b573d6000803e3d6000fd5b505050508373ffffffffffffffffffffffffffffffffffffffff167f41bc6022ac8da2e453cffc5ba42349a2880637ef8d0d5944339a022a6739f36060405160405180910390a250505050505050565b6006602052806000526040600020600091509050806000016040518060c00160405290816000820180548060200260200160405190810160405280929190818152602001828054801561187357602002820191906000526020600020905b8160009054906101000a900473ffffffffffffffffffffffffffffffffffffffff1673ffffffffffffffffffffffffffffffffffffffff1681526020019060010190808311611829575b505050505081526020016001820160009054906101000a900473ffffffffffffffffffffffffffffffffffffffff1673ffffffffffffffffffffffffffffffffffffffff1673ffffffffffffffffffffffffffffffffffffffff1681526020016001820160149054906101000a900467ffffffffffffffff1667ffffffffffffffff1667ffffffffffffffff1681526020016002820160009054906101000a900473ffffffffffffffffffffffffffffffffffffffff1673ffffffffffffffffffffffffffffffffffffffff1673ffffffffffffffffffffffffffffffffffffffff1681526020016002820160149054906101000a900467ffffffffffffffff1667ffffffffffffffff1667ffffffffffffffff16815260200160038201548152505090806004015490806005015490806007015490806008016040518060400160405290816000820180546119c8906156e3565b80601f01602080910402602001604051908101604052809291908181526020018280546119f4906156e3565b8015611a415780601f10611a1657610100808354040283529160200191611a41565b820191906000526020600020905b815481529060010190602001808311611a2457829003601f168201915b50505050508152602001600182018054611a5a906156e3565b80601f0160208091040260200160405190810160405280929190818152602001828054611a86906156e3565b8015611ad35780601f10611aa857610100808354040283529160200191611ad3565b820191906000526020600020905b815481529060010190602001808311611ab657829003601f168201915b5050505050815250509080600a0154905086565b6000600160009054906101000a900460ff16905090565b6000611b09826104c1565b90508060c0015160a001518160200151108015611b375750428160c001516040015167ffffffffffffffff16115b15611b77576040517f08c379a0000000000000000000000000000000000000000000000000000000008152600401611b6e90615211565b60405180910390fd5b7f192eeb9228e010bc296a3485b9a2f358ca83ebae22f90419552aa6a137524b53600360008473ffffffffffffffffffffffffffffffffffffffff1673ffffffffffffffffffffffffffffffffffffffff168152602001908152602001600020600001819055508173ffffffffffffffffffffffffffffffffffffffff167ff3fed802a1214b6e54d516b78c0809c478d0d9f01ce30899ffcb432cf9a072c160405160405180910390a25050565b600080600090505b600360008573ffffffffffffffffffffffffffffffffffffffff1673ffffffffffffffffffffffffffffffffffffffff16815260200190815260200160002060060160000180549050811015611d50578273ffffffffffffffffffffffffffffffffffffffff16600360008673ffffffffffffffffffffffffffffffffffffffff1673ffffffffffffffffffffffffffffffffffffffff1681526020019081526020016000206006016000018281548110611ceb57611cea6157d3565b5b9060005260206000200160009054906101000a900473ffffffffffffffffffffffffffffffffffffffff1673ffffffffffffffffffffffffffffffffffffffff161415611d3c576001915050611d56565b600181611d4991906154bd565b9050611c2d565b50600090505b92915050565b7fdf8b4c520ffe197c5343c6f5aec59570151ef9a492f2c624fd45ddde6135ec42611d8e81611d89613443565b61344b565b611d9661377e565b50565b611da1611ae7565b15611de1576040517f08c379a0000000000000000000000000000000000000000000000000000000008152600401611dd8906150b1565b60405180910390fd5b7f000000000000000000000000000000000000000000000000000000000000000073ffffffffffffffffffffffffffffffffffffffff166319cdff5989606001516040518263ffffffff1660e01b8152600401611e3e9190614c94565b60206040518083038186803b158015611e5657600080fd5b505afa158015611e6a573d6000803e3d6000fd5b505050506040513d601f19601f82011682018060405250810190611e8e919061412c565b611ecd576040517f08c379a0000000000000000000000000000000000000000000000000000000008152600401611ec490615091565b60405180910390fd5b6000886080015167ffffffffffffffff1611611f1e576040517f08c379a0000000000000000000000000000000000000000000000000000000008152600401611f1590615031565b60405180910390fd5b600088600001515111611f66576040517f08c379a0000000000000000000000000000000000000000000000000000000008152600401611f5d90614f71565b60405180910390fd5b60008787905011611fac576040517f08c379a0000000000000000000000000000000000000000000000000000000008152600401611fa390614f91565b60405180910390fd5b6001886000015151611fbe91906154bd565b8282905014612002576040517f08c379a0000000000000000000000000000000000000000000000000000000008152600401611ff990615131565b60405180910390fd5b600080600090505b8383905081101561205057838382818110612028576120276157d3565b5b905060200201358261203a91906154bd565b915060018161204991906154bd565b905061200a565b5060648114612094576040517f08c379a000000000000000000000000000000000000000000000000000000000815260040161208b90615151565b60405180910390fd5b6040518061010001604052808a815260200142815260200160008152602001898980806020026020016040519081016040528093929190818152602001838360200280828437600081840152601f19601f8201169050808301925050505050505081526020018781526020018661210a90615664565b8152602001858152602001848480806020026020016040519081016040528093929190818152602001838360200280828437600081840152601f19601f820116905080830192505050505050508152506006600060055481526020019081526020016000206000820151816000016000820151816000019080519060200190612194929190613b40565b5060208201518160010160006101000a81548173ffffffffffffffffffffffffffffffffffffffff021916908373ffffffffffffffffffffffffffffffffffffffff16021790555060408201518160010160146101000a81548167ffffffffffffffff021916908367ffffffffffffffff16021790555060608201518160020160006101000a81548173ffffffffffffffffffffffffffffffffffffffff021916908373ffffffffffffffffffffffffffffffffffffffff16021790555060808201518160020160146101000a81548167ffffffffffffffff021916908367ffffffffffffffff16021790555060a082015181600301555050602082015181600401556040820151816005015560608201518160060190805190602001906122bd929190613af3565b506080820151816007015560a08201518160080160008201518160000190805190602001906122ed929190613bca565b50602082015181600101908051906020019061230a929190613bca565b50505060c082015181600a015560e082015181600b019080519060200190612333929190613af3565b509050507fff0ab45f3bc6a366a0cee506a8b1c6b2412e66c65d35a210ce760d9de8a53e916005546040516123689190615302565b60405180910390a160016005600082825461238391906154bd565b92505081905550505050505050505050565b600080600084815260200190815260200160002060000160008373ffffffffffffffffffffffffffffffffffffffff1673ffffffffffffffffffffffffffffffffffffffff16815260200190815260200160002060009054906101000a900460ff16905092915050565b612407611ae7565b15612447576040517f08c379a000000000000000000000000000000000000000000000000000000000815260040161243e906150b1565b60405180910390fd5b6000811161248a576040517f08c379a000000000000000000000000000000000000000000000000000000000815260040161248190614fd1565b60405180910390fd5b6000612495836104c1565b9050428160c001516040015167ffffffffffffffff1610156124ec576040517f08c379a00000000000000000000000000000000000000000000000000000000081526004016124e390615171565b60405180910390fd5b7f1b051eabb191097272b9187f0c5c3152a0c5088405d4a327a4e5e5242f29cfca816000015114612552576040517f08c379a000000000000000000000000000000000000000000000000000000000815260040161254990615071565b60405180910390fd5b600081602001518260c0015160a0015161256c919061559e565b90508083101561257a578290505b60008260c001516080015167ffffffffffffffff166127108361259d9190615544565b6125a79190615513565b9050600081116125ec576040517f08c379a00000000000000000000000000000000000000000000000000000000081526004016125e390615191565b60405180910390fd5b8260c0015160a0015182846020015161260591906154bd565b10612672577f2097e2e0f370945c0a82a75d599dd83e8cd76a11910f1819fdadc112dd2e8115600360008773ffffffffffffffffffffffffffffffffffffffff1673ffffffffffffffffffffffffffffffffffffffff168152602001908152602001600020600001819055505b81600360008773ffffffffffffffffffffffffffffffffffffffff1673ffffffffffffffffffffffffffffffffffffffff16815260200190815260200160002060010160008282546126c491906154bd565b925050819055508260c001516060015173ffffffffffffffffffffffffffffffffffffffff166323b872dd3387856040518463ffffffff1660e01b815260040161271093929190614ce6565b602060405180830381600087803b15801561272a57600080fd5b505af115801561273e573d6000803e3d6000fd5b505050506040513d601f19601f82011682018060405250810190612762919061412c565b6127a1576040517f08c379a0000000000000000000000000000000000000000000000000000000008152600401612798906151f1565b60405180910390fd5b80600460003373ffffffffffffffffffffffffffffffffffffffff1673ffffffffffffffffffffffffffffffffffffffff16815260200190815260200160002060008282546127f091906154bd565b925050819055508473ffffffffffffffffffffffffffffffffffffffff163373ffffffffffffffffffffffffffffffffffffffff167fe86f7ab5646f63a78eb2a6d0c3a4db0e00b37efbdf9c10dfc356cf3cfc7e1540846040516128549190615302565b60405180910390a35050505050565b6000801b81565b61271081565b7f192eeb9228e010bc296a3485b9a2f358ca83ebae22f90419552aa6a137524b53600360008473ffffffffffffffffffffffffffffffffffffffff1673ffffffffffffffffffffffffffffffffffffffff168152602001908152602001600020600001541415612915576040517f08c379a000000000000000000000000000000000000000000000000000000000815260040161290c90615111565b60405180910390fd5b61291f8233611c25565b61295e576040517f08c379a0000000000000000000000000000000000000000000000000000000008152600401612955906151b1565b60405180910390fd5b6129688282612b85565b6129a7576040517f08c379a000000000000000000000000000000000000000000000000000000000815260040161299e906151d1565b60405180910390fd5b60006129b2836104c1565b9050806080015173ffffffffffffffffffffffffffffffffffffffff166340c10f19846001600360008873ffffffffffffffffffffffffffffffffffffffff1673ffffffffffffffffffffffffffffffffffffffff16815260200190815260200160002060030180549050612a2791906154bd565b6040518363ffffffff1660e01b8152600401612a44929190614d4d565b600060405180830381600087803b158015612a5e57600080fd5b505af1158015612a72573d6000803e3d6000fd5b50505050600360008473ffffffffffffffffffffffffffffffffffffffff1673ffffffffffffffffffffffffffffffffffffffff1681526020019081526020016000206003018290806001815401808255809150506001900390600052602060002001600090919091909150558273ffffffffffffffffffffffffffffffffffffffff167ff0123728833f1849e274a7c3fce8821a238c3a6dd312813810723684aab2e46f6001600360008773ffffffffffffffffffffffffffffffffffffffff1673ffffffffffffffffffffffffffffffffffffffff16815260200190815260200160002060030180549050612b6991906154bd565b84604051612b78929190615346565b60405180910390a2505050565b600080600090505b600360008573ffffffffffffffffffffffffffffffffffffffff1673ffffffffffffffffffffffffffffffffffffffff16815260200190815260200160002060030180549050811015612c5e5782600360008673ffffffffffffffffffffffffffffffffffffffff1673ffffffffffffffffffffffffffffffffffffffff1681526020019081526020016000206003018281548110612c2f57612c2e6157d3565b5b90600052602060002001541415612c4a576001915050612c64565b600181612c5791906154bd565b9050612b8d565b50600090505b92915050565b600280541415612caf576040517f08c379a0000000000000000000000000000000000000000000000000000000008152600401612ca690615231565b60405180910390fd5b600280819055506000612cc1826104c1565b9050428160c001516040015167ffffffffffffffff161015612d18576040517f08c379a0000000000000000000000000000000000000000000000000000000008152600401612d0f90615171565b60405180910390fd5b8060c0015160a0015181602001511015612d67576040517f08c379a0000000000000000000000000000000000000000000000000000000008152600401612d5e90615051565b60405180910390fd5b8060c001516020015173ffffffffffffffffffffffffffffffffffffffff166340c10f1933600460003373ffffffffffffffffffffffffffffffffffffffff1673ffffffffffffffffffffffffffffffffffffffff168152602001908152602001600020546040518363ffffffff1660e01b8152600401612de9929190614d4d565b600060405180830381600087803b158015612e0357600080fd5b505af1158015612e17573d6000803e3d6000fd5b5050505060008160c001516020015173ffffffffffffffffffffffffffffffffffffffff166318160ddd6040518163ffffffff1660e01b815260040160206040518083038186803b158015612e6b57600080fd5b505afa158015612e7f573d6000803e3d6000fd5b505050506040513d601f19601f82011682018060405250810190612ea39190614327565b9050600081600460003373ffffffffffffffffffffffffffffffffffffffff1673ffffffffffffffffffffffffffffffffffffffff16815260200190815260200160002054846101000151612ef89190615544565b612f029190615513565b90508260e0015173ffffffffffffffffffffffffffffffffffffffff166340c10f1930836040518363ffffffff1660e01b8152600401612f43929190614d4d565b600060405180830381600087803b158015612f5d57600080fd5b505af1158015612f71573d6000803e3d6000fd5b50505050600460003373ffffffffffffffffffffffffffffffffffffffff1673ffffffffffffffffffffffffffffffffffffffff16815260200190815260200160002060009055505050600160028190555050565b7f192eeb9228e010bc296a3485b9a2f358ca83ebae22f90419552aa6a137524b5381565b612ff2611ae7565b15613032576040517f08c379a0000000000000000000000000000000000000000000000000000000008152600401613029906150b1565b60405180910390fd5b7f000000000000000000000000000000000000000000000000000000000000000073ffffffffffffffffffffffffffffffffffffffff1663905bc7da6040518163ffffffff1660e01b815260040160206040518083038186803b15801561309857600080fd5b505afa1580156130ac573d6000803e3d6000fd5b505050506040513d601f19601f820116820180604052508101906130d09190614327565b6006600083815260200190815260200160002060040154426130f2919061559e565b1115613133576040517f08c379a000000000000000000000000000000000000000000000000000000000815260040161312a90614ff1565b60405180910390fd5b6007600082815260200190815260200160002060003373ffffffffffffffffffffffffffffffffffffffff1673ffffffffffffffffffffffffffffffffffffffff16815260200190815260200160002060009054906101000a900460ff16156131d1576040517f08c379a00000000000000000000000000000000000000000000000000000000081526004016131c890614f51565b60405180910390fd5b6000805b600660008481526020019081526020016000206000016000018054905081101561329b573373ffffffffffffffffffffffffffffffffffffffff1660066000858152602001908152602001600020600001600001828154811061323b5761323a6157d3565b5b9060005260206000200160009054906101000a900473ffffffffffffffffffffffffffffffffffffffff1673ffffffffffffffffffffffffffffffffffffffff16141561328757600191505b60018161329491906154bd565b90506131d5565b50806132dc576040517f08c379a00000000000000000000000000000000000000000000000000000000081526004016132d390614fb1565b60405180910390fd5b600160066000848152602001908152602001600020600501600082825461330391906154bd565b9250508190555060016007600084815260200190815260200160002060003373ffffffffffffffffffffffffffffffffffffffff1673ffffffffffffffffffffffffffffffffffffffff16815260200190815260200160002060006101000a81548160ff0219169083151502179055507f34647120636ce03d739347e28e9d1bdd34fd03d066ae60439fb1be2721ad16cd82336040516133a492919061531d565b60405180910390a15050565b6133b9826109f1565b6133ca816133c5613443565b61344b565b6133d483836135c8565b505050565b60007f01ffc9a7000000000000000000000000000000000000000000000000000000007bffffffffffffffffffffffffffffffffffffffffffffffffffffffff1916827bffffffffffffffffffffffffffffffffffffffffffffffffffffffff1916149050919050565b600033905090565b6134558282612395565b6134e45761347a8173ffffffffffffffffffffffffffffffffffffffff166014613820565b6134888360001c6020613820565b604051602001613499929190614c5a565b6040516020818303038152906040526040517f08c379a00000000000000000000000000000000000000000000000000000000081526004016134db9190614dac565b60405180910390fd5b5050565b6134f28282612395565b6135c457600160008084815260200190815260200160002060000160008373ffffffffffffffffffffffffffffffffffffffff1673ffffffffffffffffffffffffffffffffffffffff16815260200190815260200160002060006101000a81548160ff021916908315150217905550613569613443565b73ffffffffffffffffffffffffffffffffffffffff168173ffffffffffffffffffffffffffffffffffffffff16837f2f8788117e7eff1d82e926ec794901d17c78024a50270940304540a733656f0d60405160405180910390a45b5050565b6135d28282612395565b156136a557600080600084815260200190815260200160002060000160008373ffffffffffffffffffffffffffffffffffffffff1673ffffffffffffffffffffffffffffffffffffffff16815260200190815260200160002060006101000a81548160ff02191690831515021790555061364a613443565b73ffffffffffffffffffffffffffffffffffffffff168173ffffffffffffffffffffffffffffffffffffffff16837ff6391f5c32d9c69d2a47ea670b442974b53935d1edc7fd64eb21e047a839171b60405160405180910390a45b5050565b60006040517f3d602d80600a3d3981f3363d3d373d3d3d363d7300000000000000000000000081528260601b60148201527f5af43d82803e903d91602b57fd5bf3000000000000000000000000000000000060288201526037816000f0915050600073ffffffffffffffffffffffffffffffffffffffff168173ffffffffffffffffffffffffffffffffffffffff161415613779576040517f08c379a0000000000000000000000000000000000000000000000000000000008152600401613770906150d1565b60405180910390fd5b919050565b613786611ae7565b156137c6576040517f08c379a00000000000000000000000000000000000000000000000000000000081526004016137bd906150b1565b60405180910390fd5b60018060006101000a81548160ff0219169083151502179055507f62e78cea01bee320cd4e420270b5ea74000d11b0c9f74754ebdbfc544b05a258613809613443565b6040516138169190614c94565b60405180910390a1565b6060600060028360026138339190615544565b61383d91906154bd565b67ffffffffffffffff81111561385657613855615802565b5b6040519080825280601f01601f1916602001820160405280156138885781602001600182028036833780820191505090505b5090507f3000000000000000000000000000000000000000000000000000000000000000816000815181106138c0576138bf6157d3565b5b60200101907effffffffffffffffffffffffffffffffffffffffffffffffffffffffffffff1916908160001a9053507f780000000000000000000000000000000000000000000000000000000000000081600181518110613924576139236157d3565b5b60200101907effffffffffffffffffffffffffffffffffffffffffffffffffffffffffffff1916908160001a905350600060018460026139649190615544565b61396e91906154bd565b90505b6001811115613a0e577f3031323334353637383961626364656600000000000000000000000000000000600f8616601081106139b0576139af6157d3565b5b1a60f81b8282815181106139c7576139c66157d3565b5b60200101907effffffffffffffffffffffffffffffffffffffffffffffffffffffffffffff1916908160001a905350600485901c945080613a07906156b9565b9050613971565b5060008414613a52576040517f08c379a0000000000000000000000000000000000000000000000000000000008152600401613a4990614f31565b60405180910390fd5b8091505092915050565b60405180610120016040528060008019168152602001600081526020016060815260200160608152602001600073ffffffffffffffffffffffffffffffffffffffff168152602001600073ffffffffffffffffffffffffffffffffffffffff168152602001613ac9613c50565b8152602001600073ffffffffffffffffffffffffffffffffffffffff168152602001600081525090565b828054828255906000526020600020908101928215613b2f579160200282015b82811115613b2e578251825591602001919060010190613b13565b5b509050613b3c9190613cc6565b5090565b828054828255906000526020600020908101928215613bb9579160200282015b82811115613bb85782518260006101000a81548173ffffffffffffffffffffffffffffffffffffffff021916908373ffffffffffffffffffffffffffffffffffffffff16021790555091602001919060010190613b60565b5b509050613bc69190613cc6565b5090565b828054613bd6906156e3565b90600052602060002090601f016020900481019282613bf85760008555613c3f565b82601f10613c1157805160ff1916838001178555613c3f565b82800160010185558215613c3f579182015b82811115613c3e578251825591602001919060010190613c23565b5b509050613c4c9190613cc6565b5090565b6040518060c0016040528060608152602001600073ffffffffffffffffffffffffffffffffffffffff168152602001600067ffffffffffffffff168152602001600073ffffffffffffffffffffffffffffffffffffffff168152602001600067ffffffffffffffff168152602001600081525090565b5b80821115613cdf576000816000905550600101613cc7565b5090565b6000613cf6613cf184615394565b61536f565b90508083825260208201905082856020860282011115613d1957613d1861584a565b5b60005b85811015613d495781613d2f8882613d95565b845260208401935060208301925050600181019050613d1c565b5050509392505050565b6000613d66613d61846153c0565b61536f565b905082815260208101848484011115613d8257613d8161584f565b5b613d8d848285615677565b509392505050565b600081359050613da481615d89565b92915050565b600081519050613db981615d89565b92915050565b600082601f830112613dd457613dd3615836565b5b8135613de4848260208601613ce3565b91505092915050565b60008083601f840112613e0357613e02615836565b5b8235905067ffffffffffffffff811115613e2057613e1f615831565b5b602083019150836020820283011115613e3c57613e3b61584a565b5b9250929050565b600081519050613e5281615da0565b92915050565b600081359050613e6781615db7565b92915050565b600081359050613e7c81615dce565b92915050565b600082601f830112613e9757613e96615836565b5b8135613ea7848260208601613d53565b91505092915050565b600060408284031215613ec657613ec561583b565b5b81905092915050565b600060408284031215613ee557613ee4615840565b5b613eef604061536f565b9050600082013567ffffffffffffffff811115613f0f57613f0e615845565b5b613f1b84828501613e82565b600083015250602082013567ffffffffffffffff811115613f3f57613f3e615845565b5b613f4b84828501613e82565b60208301525092915050565b600060c08284031215613f6d57613f6c615840565b5b613f7760c061536f565b9050600082013567ffffffffffffffff811115613f9757613f96615845565b5b613fa384828501613dbf565b6000830152506020613fb784828501613d95565b6020830152506040613fcb8482850161403d565b6040830152506060613fdf84828501613d95565b6060830152506080613ff38482850161403d565b60808301525060a061400784828501614013565b60a08301525092915050565b60008135905061402281615de5565b92915050565b60008151905061403781615de5565b92915050565b60008135905061404c81615dfc565b92915050565b60006020828403121561406857614067615859565b5b600061407684828501613d95565b91505092915050565b60006020828403121561409557614094615859565b5b60006140a384828501613daa565b91505092915050565b600080604083850312156140c3576140c2615859565b5b60006140d185828601613d95565b92505060206140e285828601613d95565b9150509250929050565b6000806040838503121561410357614102615859565b5b600061411185828601613d95565b925050602061412285828601614013565b9150509250929050565b60006020828403121561414257614141615859565b5b600061415084828501613e43565b91505092915050565b60006020828403121561416f5761416e615859565b5b600061417d84828501613e58565b91505092915050565b6000806040838503121561419d5761419c615859565b5b60006141ab85828601613e58565b92505060206141bc85828601613d95565b9150509250929050565b6000602082840312156141dc576141db615859565b5b60006141ea84828501613e6d565b91505092915050565b60008060008060008060008060c0898b03121561421357614212615859565b5b600089013567ffffffffffffffff81111561423157614230615854565b5b61423d8b828c01613f57565b985050602089013567ffffffffffffffff81111561425e5761425d615854565b5b61426a8b828c01613ded565b9750975050604061427d8b828c01614013565b955050606089013567ffffffffffffffff81111561429e5761429d615854565b5b6142aa8b828c01613eb0565b94505060806142bb8b828c01614013565b93505060a089013567ffffffffffffffff8111156142dc576142db615854565b5b6142e88b828c01613ded565b92509250509295985092959890939650565b6000602082840312156143105761430f615859565b5b600061431e84828501614013565b91505092915050565b60006020828403121561433d5761433c615859565b5b600061434b84828501614028565b91505092915050565b60006143608383614384565b60208301905092915050565b60006143788383614c2d565b60208301905092915050565b61438d816155d2565b82525050565b61439c816155d2565b82525050565b60006143ad82615411565b6143b7818561544c565b93506143c2836153f1565b8060005b838110156143f35781516143da8882614354565b97506143e583615432565b9250506001810190506143c6565b5085935050505092915050565b600061440b82615411565b614415818561545d565b9350614420836153f1565b8060005b838110156144515781516144388882614354565b975061444383615432565b925050600181019050614424565b5085935050505092915050565b60006144698261541c565b614473818561546e565b935061447e83615401565b8060005b838110156144af578151614496888261436c565b97506144a18361543f565b925050600181019050614482565b5085935050505092915050565b60006144c78261541c565b6144d1818561547f565b93506144dc83615401565b8060005b8381101561450d5781516144f4888261436c565b97506144ff8361543f565b9250506001810190506144e0565b5085935050505092915050565b614523816155e4565b82525050565b614532816155f0565b82525050565b614541816155f0565b82525050565b600061455282615427565b61455c8185615490565b935061456c818560208601615686565b6145758161585e565b840191505092915050565b600061458b82615427565b61459581856154a1565b93506145a5818560208601615686565b6145ae8161585e565b840191505092915050565b60006145c482615427565b6145ce81856154b2565b93506145de818560208601615686565b80840191505092915050565b60006145f76001836154a1565b91506146028261586f565b602082019050919050565b600061461a6020836154a1565b915061462582615898565b602082019050919050565b600061463d6015836154a1565b9150614648826158c1565b602082019050919050565b6000614660600a836154a1565b915061466b826158ea565b602082019050919050565b60006146836009836154a1565b915061468e82615913565b602082019050919050565b60006146a66009836154a1565b91506146b18261593c565b602082019050919050565b60006146c96014836154a1565b91506146d482615965565b602082019050919050565b60006146ec600e836154a1565b91506146f78261598e565b602082019050919050565b600061470f6013836154a1565b915061471a826159b7565b602082019050919050565b6000614732600e836154a1565b915061473d826159e0565b602082019050919050565b60006147556013836154a1565b915061476082615a09565b602082019050919050565b6000614778601a836154a1565b915061478382615a32565b602082019050919050565b600061479b600e836154a1565b91506147a682615a5b565b602082019050919050565b60006147be601f836154a1565b91506147c982615a84565b602082019050919050565b60006147e16010836154a1565b91506147ec82615aad565b602082019050919050565b60006148046016836154a1565b915061480f82615ad6565b602082019050919050565b60006148276015836154a1565b915061483282615aff565b602082019050919050565b600061484a6018836154a1565b915061485582615b28565b602082019050919050565b600061486d601c836154a1565b915061487882615b51565b602082019050919050565b6000614890601a836154a1565b915061489b82615b7a565b602082019050919050565b60006148b36018836154a1565b91506148be82615ba3565b602082019050919050565b60006148d66012836154a1565b91506148e182615bcc565b602082019050919050565b60006148f96020836154a1565b915061490482615bf5565b602082019050919050565b600061491c6025836154a1565b915061492782615c1e565b604082019050919050565b600061493f6016836154a1565b915061494a82615c6d565b602082019050919050565b60006149626010836154a1565b915061496d82615c96565b602082019050919050565b60006149856017836154b2565b915061499082615cbf565b601782019050919050565b60006149a8601f836154a1565b91506149b382615ce8565b602082019050919050565b60006149cb6011836154b2565b91506149d682615d11565b601182019050919050565b60006149ee602f836154a1565b91506149f982615d3a565b604082019050919050565b60006040830160008301518482036000860152614a218282614547565b91505060208301518482036020860152614a3b8282614547565b9150508091505092915050565b600061012083016000830151614a616000860182614529565b506020830151614a746020860182614c2d565b5060408301518482036040860152614a8c828261445e565b91505060608301518482036060860152614aa6828261445e565b9150506080830151614abb6080860182614384565b5060a0830151614ace60a0860182614384565b5060c083015184820360c0860152614ae68282614b1b565b91505060e0830151614afb60e0860182614384565b50610100830151614b10610100860182614c2d565b508091505092915050565b600060c0830160008301518482036000860152614b3882826143a2565b9150506020830151614b4d6020860182614384565b506040830151614b606040860182614c4b565b506060830151614b736060860182614384565b506080830151614b866080860182614c4b565b5060a0830151614b9960a0860182614c2d565b508091505092915050565b600060c0830160008301518482036000860152614bc182826143a2565b9150506020830151614bd66020860182614384565b506040830151614be96040860182614c4b565b506060830151614bfc6060860182614384565b506080830151614c0f6080860182614c4b565b5060a0830151614c2260a0860182614c2d565b508091505092915050565b614c3681615646565b82525050565b614c4581615646565b82525050565b614c5481615650565b82525050565b6000614c6582614978565b9150614c7182856145b9565b9150614c7c826149be565b9150614c8882846145b9565b91508190509392505050565b6000602082019050614ca96000830184614393565b92915050565b6000606082019050614cc46000830186614393565b614cd16020830185614393565b614cde6040830184614393565b949350505050565b6000606082019050614cfb6000830186614393565b614d086020830185614393565b614d156040830184614c3c565b949350505050565b6000604082019050614d326000830185614393565b8181036020830152614d448184614400565b90509392505050565b6000604082019050614d626000830185614393565b614d6f6020830184614c3c565b9392505050565b6000602082019050614d8b600083018461451a565b92915050565b6000602082019050614da66000830184614538565b92915050565b60006020820190508181036000830152614dc68184614580565b905092915050565b60006040820190508181036000830152614de88185614580565b90508181036020830152614dfc8184614580565b90509392505050565b60006080820190508181036000830152614e1f8187614580565b90508181036020830152614e338186614580565b9050614e426040830185614393565b614e4f6060830184614c3c565b95945050505050565b600060a0820190508181036000830152614e728188614580565b90508181036020830152614e868187614580565b90508181036040830152614e9a8186614400565b90508181036060830152614eae81856144bc565b9050614ebd6080830184614c3c565b9695505050505050565b60006040820190508181036000830152614ee18184614580565b90508181036020830152614ef4816145ea565b905092915050565b60006040820190508181036000830152614f168184614580565b90508181036020830152614f2981614653565b905092915050565b60006020820190508181036000830152614f4a8161460d565b9050919050565b60006020820190508181036000830152614f6a81614630565b9050919050565b60006020820190508181036000830152614f8a81614676565b9050919050565b60006020820190508181036000830152614faa81614699565b9050919050565b60006020820190508181036000830152614fca816146bc565b9050919050565b60006020820190508181036000830152614fea816146df565b9050919050565b6000602082019050818103600083015261500a81614702565b9050919050565b6000602082019050818103600083015261502a81614725565b9050919050565b6000602082019050818103600083015261504a81614748565b9050919050565b6000602082019050818103600083015261506a8161476b565b9050919050565b6000602082019050818103600083015261508a8161478e565b9050919050565b600060208201905081810360008301526150aa816147b1565b9050919050565b600060208201905081810360008301526150ca816147d4565b9050919050565b600060208201905081810360008301526150ea816147f7565b9050919050565b6000602082019050818103600083015261510a8161481a565b9050919050565b6000602082019050818103600083015261512a8161483d565b9050919050565b6000602082019050818103600083015261514a81614860565b9050919050565b6000602082019050818103600083015261516a81614883565b9050919050565b6000602082019050818103600083015261518a816148a6565b9050919050565b600060208201905081810360008301526151aa816148c9565b9050919050565b600060208201905081810360008301526151ca816148ec565b9050919050565b600060208201905081810360008301526151ea8161490f565b9050919050565b6000602082019050818103600083015261520a81614932565b9050919050565b6000602082019050818103600083015261522a81614955565b9050919050565b6000602082019050818103600083015261524a8161499b565b9050919050565b6000602082019050818103600083015261526a816149e1565b9050919050565b6000602082019050818103600083015261528b8184614a48565b905092915050565b600060c08201905081810360008301526152ad8189614ba4565b90506152bc6020830188614c3c565b6152c96040830187614c3c565b6152d66060830186614c3c565b81810360808301526152e88185614a04565b90506152f760a0830184614c3c565b979650505050505050565b60006020820190506153176000830184614c3c565b92915050565b60006040820190506153326000830185614c3c565b61533f6020830184614393565b9392505050565b600060408201905061535b6000830185614c3c565b6153686020830184614c3c565b9392505050565b600061537961538a565b90506153858282615715565b919050565b6000604051905090565b600067ffffffffffffffff8211156153af576153ae615802565b5b602082029050602081019050919050565b600067ffffffffffffffff8211156153db576153da615802565b5b6153e48261585e565b9050602081019050919050565b6000819050602082019050919050565b6000819050602082019050919050565b600081519050919050565b600081519050919050565b600081519050919050565b6000602082019050919050565b6000602082019050919050565b600082825260208201905092915050565b600082825260208201905092915050565b600082825260208201905092915050565b600082825260208201905092915050565b600082825260208201905092915050565b600082825260208201905092915050565b600081905092915050565b60006154c882615646565b91506154d383615646565b9250827fffffffffffffffffffffffffffffffffffffffffffffffffffffffffffffffff0382111561550857615507615746565b5b828201905092915050565b600061551e82615646565b915061552983615646565b92508261553957615538615775565b5b828204905092915050565b600061554f82615646565b915061555a83615646565b9250817fffffffffffffffffffffffffffffffffffffffffffffffffffffffffffffffff048311821515161561559357615592615746565b5b828202905092915050565b60006155a982615646565b91506155b483615646565b9250828210156155c7576155c6615746565b5b828203905092915050565b60006155dd82615626565b9050919050565b60008115159050919050565b6000819050919050565b60007fffffffff0000000000000000000000000000000000000000000000000000000082169050919050565b600073ffffffffffffffffffffffffffffffffffffffff82169050919050565b6000819050919050565b600067ffffffffffffffff82169050919050565b60006156703683613ecf565b9050919050565b82818337600083830152505050565b60005b838110156156a4578082015181840152602081019050615689565b838111156156b3576000848401525b50505050565b60006156c482615646565b915060008214156156d8576156d7615746565b5b600182039050919050565b600060028204905060018216806156fb57607f821691505b6020821081141561570f5761570e6157a4565b5b50919050565b61571e8261585e565b810181811067ffffffffffffffff8211171561573d5761573c615802565b5b80604052505050565b7f4e487b7100000000000000000000000000000000000000000000000000000000600052601160045260246000fd5b7f4e487b7100000000000000000000000000000000000000000000000000000000600052601260045260246000fd5b7f4e487b7100000000000000000000000000000000000000000000000000000000600052602260045260246000fd5b7f4e487b7100000000000000000000000000000000000000000000000000000000600052603260045260246000fd5b7f4e487b7100000000000000000000000000000000000000000000000000000000600052604160045260246000fd5b600080fd5b600080fd5b600080fd5b600080fd5b600080fd5b600080fd5b600080fd5b600080fd5b600080fd5b6000601f19601f8301169050919050565b7f4300000000000000000000000000000000000000000000000000000000000000600082015250565b7f537472696e67733a20686578206c656e67746820696e73756666696369656e74600082015250565b7f4163636f756e7420616c726561647920766f7465640000000000000000000000600082015250565b7f20436f7079726967687400000000000000000000000000000000000000000000600082015250565b7f4e6f206f776e6572730000000000000000000000000000000000000000000000600082015250565b7f4e6f206d65646961730000000000000000000000000000000000000000000000600082015250565b7f4f6e6c79206f776e6572732063616e20766f7465000000000000000000000000600082015250565b7f496e76616c696420616d6f756e74000000000000000000000000000000000000600082015250565b7f566f74696e6720706572696f6420656e64656400000000000000000000000000600082015250565b7f556e6578697374656e7420706f64000000000000000000000000000000000000600082015250565b7f496e76616c696420546f6b656e20507269636500000000000000000000000000600082015250565b7f46756e64696e6720746172676574206e6f742072656163686564000000000000600082015250565b7f496e76616c696420737461747573000000000000000000000000000000000000600082015250565b7f496e76616c696420617373657420666f722066756e64696e6720746f6b656e00600082015250565b7f5061757361626c653a2070617573656400000000000000000000000000000000600082015250565b7f455243313136373a20637265617465206661696c656400000000000000000000600082015250565b7f50726f706f73616c206e6f742061636365707465640000000000000000000000600082015250565b7f556e6578697374656e206f7220696e76616c696420706f640000000000000000600082015250565b7f496e76616c696420636f7079726967687420616c6c6f636174696f6e00000000600082015250565b7f57726f6e6720636f7079726967687420616c6c6f636174696f6e000000000000600082015250565b7f46756e64696e67206461746520696e2074686520706173740000000000000000600082015250565b7f3020746f6b656e7320746f2072657475726e0000000000000000000000000000600082015250565b7f4f6e6c79206f776e6572732063616e2075706c6f616420746865204d65646961600082015250565b7f4d656469612069642069732077726f6e67206f7220616c72656164792075706c60008201527f6f61646564000000000000000000000000000000000000000000000000000000602082015250565b7f4661696c20746f207472616e736665722066756e647300000000000000000000600082015250565b7f556e646973706f7361626c6520706f6400000000000000000000000000000000600082015250565b7f416363657373436f6e74726f6c3a206163636f756e7420000000000000000000600082015250565b7f5265656e7472616e637947756172643a207265656e7472616e742063616c6c00600082015250565b7f206973206d697373696e6720726f6c6520000000000000000000000000000000600082015250565b7f416363657373436f6e74726f6c3a2063616e206f6e6c792072656e6f756e636560008201527f20726f6c657320666f722073656c660000000000000000000000000000000000602082015250565b615d92816155d2565b8114615d9d57600080fd5b50565b615da9816155e4565b8114615db457600080fd5b50565b615dc0816155f0565b8114615dcb57600080fd5b50565b615dd7816155fa565b8114615de257600080fd5b50565b615dee81615646565b8114615df957600080fd5b50565b615e0581615650565b8114615e1057600080fd5b5056fea2646970667358221220f67397bdf8bd9d30fffa1672a37f4566a92665051bd7fd4957a377585b05137d64736f6c63430008060033",
  "immutableReferences": {
    "3582": [
      {
        "length": 32,
        "start": 5872
      }
    ],
    "3584": [
      {
        "length": 32,
        "start": 7651
      },
      {
        "length": 32,
        "start": 12340
      }
    ],
    "3586": [
      {
        "length": 32,
        "start": 4050
      },
      {
        "length": 32,
        "start": 4299
      },
      {
        "length": 32,
        "start": 4572
      }
    ],
    "3588": [
      {
        "length": 32,
        "start": 4776
      }
    ]
  },
  "source": "// SPDX-License-Identifier: MIT\npragma solidity ^0.8.0;\n\nimport \"@openzeppelin/contracts/token/ERC20/ERC20.sol\";\nimport \"@openzeppelin/contracts/access/AccessControl.sol\";\nimport \"@openzeppelin/contracts/security/Pausable.sol\";\nimport \"@openzeppelin/contracts/utils/Counters.sol\";\nimport \"@openzeppelin/contracts/security/ReentrancyGuard.sol\";\nimport \"./implementations/PodToken.sol\";\nimport \"./implementations/CopyrightToken.sol\";\nimport \"./implementations/ERC721WithRoyalty.sol\";\nimport \"./implementations/DistributionManager.sol\";\nimport \"./PodWithdrawManager.sol\";\nimport \"./Governance.sol\";\nimport \"./CreationManager.sol\";\nimport \"./Structs.sol\";\n\n/**\n * @title pod contracts deployer and manager\n * @author Eric Nordelo\n */\ncontract PodManager is AccessControl, Pausable, ReentrancyGuard {\n    using Counters for Counters.Counter;\n\n    uint256 public constant PRECISION = 10000;\n    bytes32 public constant FUNDING_STATE = keccak256(\"FUNDING_STATE\");\n    bytes32 public constant FUNDED_STATE = keccak256(\"FUDED\");\n    bytes32 public constant DISPOSED_STATE = keccak256(\"DISPOSED\");\n    bytes32 public constant ADMIN = keccak256(\"ADMIN\");\n    // bytes32 public constant WITHDRAW_MANAGER_ROLE = keccak256(\"WITHDRAW_MANAGER_ROLE\");\n\n    address private immutable podWithdrawManagerAddress;\n    address private immutable governanceAddress;\n    address private immutable creationManager;\n    address private immutable distributionManagerImplementationAddress;\n\n    mapping(address => PodInfo) private _pods;\n    mapping(address => uint256) private _podTokensClaimable;\n\n    uint256 private nextProposalId = 0;\n    mapping(uint256 => PodProposal) public podProposals;\n    mapping(uint256 => mapping(address => bool)) private podProposalToAccountToVoted;\n\n    event PodProposalCreated(uint256 id);\n    event ProposalVoted(uint256 id, address voter);\n    event CreatePod(address indexed podAddress);\n    event InvestPod(address indexed investor, address indexed podAddress, uint256 amount);\n    event UploadMedia(address indexed podAddress, uint256 nftId, uint256 _mediaId);\n    event DisposePod(address indexed podAddress);\n\n    constructor(\n        address _podWithdrawManagerAddress,\n        address _governanceAddress,\n        address _creationManager,\n        address _distributionManagerImplementationAddress\n    ) {\n        _setupRole(DEFAULT_ADMIN_ROLE, msg.sender);\n        _setupRole(ADMIN, msg.sender);\n\n        podWithdrawManagerAddress = _podWithdrawManagerAddress;\n        governanceAddress = _governanceAddress;\n        creationManager = _creationManager;\n        CreationManager(_creationManager).setPodManagerAddress();\n        distributionManagerImplementationAddress = _distributionManagerImplementationAddress;\n    }\n\n    /**\n     * @notice allows admins to pause the contract\n     */\n    function pause() external onlyRole(ADMIN) {\n        _pause();\n    }\n\n    /**\n     * @param _copyrightAllocation order must match _pod.owners + last position for investors\n     */\n    function registerPodProposal(\n        Pod memory _pod,\n        uint256[] calldata _mediaIds,\n        uint256 _royaltyPercentage,\n        PodDescription calldata _podDescription,\n        uint256 _copyrightTokenSupply,\n        uint256[] calldata _copyrightAllocation\n    ) external whenNotPaused {\n        require(\n            Governance(governanceAddress).assetWhitelisted(_pod.fundingToken),\n            \"Invalid asset for funding token\"\n        );\n        require(_pod.fundingTokenPrice > 0, \"Invalid Token Price\");\n        require(_pod.owners.length > 0, \"No owners\");\n        require(_mediaIds.length > 0, \"No medias\");\n        require(_copyrightAllocation.length == _pod.owners.length + 1, \"Invalid copyright allocation\");\n        uint256 copyrightAllocationSum;\n        for (uint256 i = 0; i < _copyrightAllocation.length; i += 1) {\n            copyrightAllocationSum += _copyrightAllocation[i];\n        }\n        require(copyrightAllocationSum == 100, \"Wrong copyright allocation\");\n\n        podProposals[nextProposalId] = PodProposal({\n            pod: _pod,\n            start: block.timestamp,\n            votes: 0,\n            mediaIds: _mediaIds,\n            royaltyPercentage: _royaltyPercentage,\n            podDescription: _podDescription,\n            copyrightTokenSupply: _copyrightTokenSupply,\n            copyrightAllocation: _copyrightAllocation\n        });\n\n        emit PodProposalCreated(nextProposalId);\n\n        nextProposalId += 1;\n    }\n\n    function voteForPodProposal(uint256 id) external whenNotPaused {\n        require(\n            block.timestamp - podProposals[id].start <= Governance(governanceAddress).getPodVotingPeriod(),\n            \"Voting period ended\"\n        );\n        require(!podProposalToAccountToVoted[id][msg.sender], \"Account already voted\");\n        bool senderFoundInOwners = false;\n        for (uint256 i = 0; i < podProposals[id].pod.owners.length; i += 1) {\n            if (podProposals[id].pod.owners[i] == msg.sender) {\n                senderFoundInOwners = true;\n            }\n        }\n        require(senderFoundInOwners, \"Only owners can vote\");\n\n        podProposals[id].votes += 1;\n        podProposalToAccountToVoted[id][msg.sender] = true;\n\n        emit ProposalVoted(id, msg.sender);\n    }\n\n    function executePodProposal(uint256 id) external whenNotPaused {\n        PodProposal memory _podProposal = podProposals[id];\n        Pod memory _pod = _podProposal.pod;\n        require(podProposals[id].votes == _pod.owners.length, \"Proposal not accepted\");\n        require(_pod.fundingDate >= block.timestamp, \"Funding date in the past\");\n\n        address podAddress = CreationManager(creationManager).createPodToken(\n            _podProposal.podDescription.podTokenName,\n            _podProposal.podDescription.podTokenSymbol\n        );\n        _pod.podAddress = podAddress;\n\n        address copyrightToken = CreationManager(creationManager).createCopyrightToken(\n            string(abi.encode(_podProposal.podDescription.podTokenName, \" Copyright\")),\n            string(abi.encode(_podProposal.podDescription.podTokenSymbol, \"C\")),\n            _pod.owners,\n            _podProposal.copyrightAllocation,\n            _podProposal.copyrightTokenSupply\n        );\n\n        address erc721WithRoyalty = CreationManager(creationManager).createErc721WithRoyalty(\n            _podProposal.podDescription.podTokenName,\n            _podProposal.podDescription.podTokenSymbol,\n            podAddress,\n            _podProposal.royaltyPercentage\n        );\n\n        address distributionManager = Clones.clone(distributionManagerImplementationAddress);\n        //TODO: we need to pass proper copyright fraction token address here\n        DistributionManager(distributionManager).initialize(podAddress, _pod.fundingToken, copyrightToken);\n\n        _pods[podAddress] = PodInfo({\n            status: FUNDING_STATE,\n            mediaIds: _podProposal.mediaIds,\n            registeredMediaIds: new uint256[](0),\n            raisedFunds: 0,\n            nftContract: erc721WithRoyalty,\n            pod: _pod,\n            copyrightToken: copyrightToken,\n            copyrightSupplyInvestors: _podProposal.copyrightAllocation[\n                _podProposal.copyrightAllocation.length - 1\n            ],\n            distributionManagerAddress: distributionManager\n        });\n\n        // save the pod owners\n        PodWithdrawManager(podWithdrawManagerAddress).savePodOwners(podAddress, _pod.owners);\n\n        emit CreatePod(podAddress);\n    }\n\n    /**\n     * @notice allows investors to invest on a pod\n     * @dev using check-effect-interaction pattern to avoid reentrancy\n     * @param _podAddress the address of pod\n     * @param _amount the amount to invest\n     */\n    function investPod(address _podAddress, uint256 _amount) external whenNotPaused {\n        require(_amount > 0, \"Invalid amount\");\n\n        // get pod info\n        PodInfo memory podInfo = getPodInfo(_podAddress);\n\n        // solhint-disable-next-line\n        require(podInfo.pod.fundingDate >= block.timestamp, \"Funding date in the past\");\n        require(podInfo.status == FUNDING_STATE, \"Invalid status\");\n\n        uint256 amountToInvest = podInfo.pod.fundingTarget - podInfo.raisedFunds;\n        if (_amount < amountToInvest) {\n            amountToInvest = _amount;\n        }\n\n        uint256 tokensToReturn = (amountToInvest * PRECISION) / podInfo.pod.fundingTokenPrice;\n        require(tokensToReturn > 0, \"0 tokens to return\");\n\n        // update pod status\n        if (podInfo.raisedFunds + amountToInvest >= podInfo.pod.fundingTarget) {\n            _pods[_podAddress].status = FUNDED_STATE;\n        }\n        _pods[_podAddress].raisedFunds += amountToInvest;\n\n        // make the transfers (should have the allowance)\n        require(\n            ERC20(podInfo.pod.fundingToken).transferFrom(msg.sender, _podAddress, amountToInvest),\n            \"Fail to transfer funds\"\n        );\n\n        _podTokensClaimable[msg.sender] += tokensToReturn;\n\n        emit InvestPod(msg.sender, _podAddress, amountToInvest);\n    }\n\n    function claimPodTokens(address _podAddress) external nonReentrant {\n        PodInfo memory podInfo = getPodInfo(_podAddress);\n        require(podInfo.pod.fundingDate >= block.timestamp, \"Funding date in the past\");\n        require(podInfo.raisedFunds >= podInfo.pod.fundingTarget, \"Funding target not reached\");\n\n        PodToken(podInfo.pod.podAddress).mint(msg.sender, _podTokensClaimable[msg.sender]);\n\n        uint256 totalSupplyPodTokens = PodToken(podInfo.pod.podAddress).totalSupply();\n        uint256 copyrightTokensToSend = (podInfo.copyrightSupplyInvestors * _podTokensClaimable[msg.sender]) /\n            totalSupplyPodTokens;\n        CopyrightToken(podInfo.copyrightToken).mint(address(this), copyrightTokensToSend);\n\n        delete _podTokensClaimable[msg.sender];\n    }\n\n    /**\n     * @notice allows media creators to upload a new media to a given pod\n     */\n    function uploadMedia(address _podAddress, uint256 _mediaId) external {\n        require(_pods[_podAddress].status != DISPOSED_STATE, \"Unexisten or invalid pod\");\n        require(isOwner(_podAddress, msg.sender), \"Only owners can upload the Media\");\n        require(isUploadedMedia(_podAddress, _mediaId), \"Media id is wrong or already uploaded\");\n\n        // get pod info\n        PodInfo memory podInfo = getPodInfo(_podAddress);\n\n        ERC721WithRoyalty(podInfo.nftContract).mint(\n            _podAddress,\n            _pods[_podAddress].registeredMediaIds.length + 1\n        );\n        _pods[_podAddress].registeredMediaIds.push(_mediaId);\n\n        // emit the event if the creation was successful\n        emit UploadMedia(_podAddress, _pods[_podAddress].registeredMediaIds.length + 1, _mediaId);\n    }\n\n    /**\n     * @notice allows the disposing of a pod when funding target is not reached\n     */\n    function disposePod(address _podAddress) external {\n        PodInfo memory podInfo = getPodInfo(_podAddress);\n\n        if (podInfo.raisedFunds < podInfo.pod.fundingTarget && podInfo.pod.fundingDate > block.timestamp) {\n            revert(\"Undisposable pod\");\n        }\n\n        // set the status to disposed\n        _pods[_podAddress].status = DISPOSED_STATE;\n\n        // emit the event if the dispose was successful\n        emit DisposePod(_podAddress);\n    }\n\n    /**\n     * @dev helper to get a pod checking if exists\n     */\n    function getPodInfo(address _podAddress) public view returns (PodInfo memory podInfo) {\n        require(_pods[_podAddress].mediaIds.length > 0, \"Unexistent pod\");\n        podInfo = _pods[_podAddress];\n    }\n\n    function isOwner(address podAddress, address account) public view returns (bool) {\n        for (uint256 i = 0; i < _pods[podAddress].pod.owners.length; i += 1) {\n            if (_pods[podAddress].pod.owners[i] == account) {\n                return true;\n            }\n        }\n        return false;\n    }\n\n    function isUploadedMedia(address podAddress, uint256 mediaId) public view returns (bool) {\n        for (uint256 i = 0; i < _pods[podAddress].registeredMediaIds.length; i += 1) {\n            if (_pods[podAddress].registeredMediaIds[i] == mediaId) {\n                return true;\n            }\n        }\n        return false;\n    }\n}\n",
  "sourcePath": "/Users/angelsatorresalmenara/Desktop/privi-pod/contracts/PodManager.sol",
  "compiler": {
    "name": "solc",
    "version": "0.8.6+commit.11564f7e.Emscripten.clang"
  },
  "schemaVersion": "3.4.3",
  "updatedAt": "2021-09-17T14:51:05.051Z",
  "networkType": "ethereum",
  "devdoc": {
    "author": "Eric Nordelo",
    "kind": "dev",
    "methods": {
      "getPodInfo(address)": {
        "details": "helper to get a pod checking if exists"
      },
      "getRoleAdmin(bytes32)": {
        "details": "Returns the admin role that controls `role`. See {grantRole} and {revokeRole}. To change a role's admin, use {_setRoleAdmin}."
      },
      "grantRole(bytes32,address)": {
        "details": "Grants `role` to `account`. If `account` had not been already granted `role`, emits a {RoleGranted} event. Requirements: - the caller must have ``role``'s admin role."
      },
      "hasRole(bytes32,address)": {
        "details": "Returns `true` if `account` has been granted `role`."
      },
      "investPod(address,uint256)": {
        "details": "using check-effect-interaction pattern to avoid reentrancy",
        "params": {
          "_amount": "the amount to invest",
          "_podAddress": "the address of pod"
        }
      },
      "paused()": {
        "details": "Returns true if the contract is paused, and false otherwise."
      },
      "registerPodProposal((address[],address,uint64,address,uint64,uint256),uint256[],uint256,(string,string),uint256,uint256[])": {
        "params": {
          "_copyrightAllocation": "order must match _pod.owners + last position for investors"
        }
      },
      "renounceRole(bytes32,address)": {
        "details": "Revokes `role` from the calling account. Roles are often managed via {grantRole} and {revokeRole}: this function's purpose is to provide a mechanism for accounts to lose their privileges if they are compromised (such as when a trusted device is misplaced). If the calling account had been granted `role`, emits a {RoleRevoked} event. Requirements: - the caller must be `account`."
      },
      "revokeRole(bytes32,address)": {
        "details": "Revokes `role` from `account`. If `account` had been granted `role`, emits a {RoleRevoked} event. Requirements: - the caller must have ``role``'s admin role."
      },
      "supportsInterface(bytes4)": {
        "details": "See {IERC165-supportsInterface}."
      }
    },
    "title": "pod contracts deployer and manager",
    "version": 1
  },
  "userdoc": {
    "kind": "user",
    "methods": {
      "disposePod(address)": {
        "notice": "allows the disposing of a pod when funding target is not reached"
      },
      "investPod(address,uint256)": {
        "notice": "allows investors to invest on a pod"
      },
      "pause()": {
        "notice": "allows admins to pause the contract"
      },
      "uploadMedia(address,uint256)": {
        "notice": "allows media creators to upload a new media to a given pod"
      }
    },
    "version": 1
  }
}