{
  "contractName": "PodManager",
  "abi": [
    {
      "inputs": [
        {
          "internalType": "address",
          "name": "_podWithdrawManagerAddress",
          "type": "address"
        },
        {
          "internalType": "address",
          "name": "_governanceAddress",
          "type": "address"
        },
        {
          "internalType": "address",
          "name": "_creationManager",
          "type": "address"
        },
        {
          "internalType": "address",
          "name": "_distributionManagerImplementationAddress",
          "type": "address"
        },
        {
          "internalType": "address",
          "name": "_copyrightNFT",
          "type": "address"
        }
      ],
      "stateMutability": "nonpayable",
      "type": "constructor"
    },
    {
      "anonymous": false,
      "inputs": [
        {
          "indexed": true,
          "internalType": "address",
          "name": "podAddress",
          "type": "address"
        }
      ],
      "name": "CreatePod",
      "type": "event"
    },
    {
      "anonymous": false,
      "inputs": [
        {
          "indexed": true,
          "internalType": "address",
          "name": "investor",
          "type": "address"
        },
        {
          "indexed": true,
          "internalType": "address",
          "name": "podAddress",
          "type": "address"
        },
        {
          "indexed": false,
          "internalType": "uint256",
          "name": "amount",
          "type": "uint256"
        }
      ],
      "name": "InvestPod",
      "type": "event"
    },
    {
      "anonymous": false,
      "inputs": [
        {
          "indexed": false,
          "internalType": "uint256",
          "name": "id",
          "type": "uint256"
        }
      ],
      "name": "PodProposalCreated",
      "type": "event"
    },
    {
      "anonymous": false,
      "inputs": [
        {
          "indexed": false,
          "internalType": "uint256",
          "name": "id",
          "type": "uint256"
        },
        {
          "indexed": false,
          "internalType": "address",
          "name": "voter",
          "type": "address"
        }
      ],
      "name": "ProposalVoted",
      "type": "event"
    },
    {
      "anonymous": false,
      "inputs": [
        {
          "indexed": true,
          "internalType": "address",
          "name": "podAddress",
          "type": "address"
        },
        {
          "indexed": false,
          "internalType": "uint256",
          "name": "nftId",
          "type": "uint256"
        },
        {
          "indexed": false,
          "internalType": "uint256",
          "name": "_mediaId",
          "type": "uint256"
        }
      ],
      "name": "UploadMedia",
      "type": "event"
    },
    {
      "inputs": [],
      "name": "FUNDED_STATE",
      "outputs": [
        {
          "internalType": "bytes32",
          "name": "",
          "type": "bytes32"
        }
      ],
      "stateMutability": "view",
      "type": "function",
      "constant": true
    },
    {
      "inputs": [],
      "name": "FUNDING_STATE",
      "outputs": [
        {
          "internalType": "bytes32",
          "name": "",
          "type": "bytes32"
        }
      ],
      "stateMutability": "view",
      "type": "function",
      "constant": true
    },
    {
      "inputs": [],
      "name": "PRECISION",
      "outputs": [
        {
          "internalType": "uint256",
          "name": "",
          "type": "uint256"
        }
      ],
      "stateMutability": "view",
      "type": "function",
      "constant": true
    },
    {
      "inputs": [
        {
          "internalType": "uint256",
          "name": "",
          "type": "uint256"
        }
      ],
      "name": "podProposals",
      "outputs": [
        {
          "components": [
            {
              "internalType": "address[]",
              "name": "owners",
              "type": "address[]"
            },
            {
              "internalType": "address",
              "name": "podAddress",
              "type": "address"
            },
            {
              "internalType": "uint64",
              "name": "fundingDate",
              "type": "uint64"
            },
            {
              "internalType": "address",
              "name": "fundingToken",
              "type": "address"
            },
            {
              "internalType": "uint64",
              "name": "fundingTokenPrice",
              "type": "uint64"
            },
            {
              "internalType": "uint256",
              "name": "fundingTarget",
              "type": "uint256"
            }
          ],
          "internalType": "struct Pod",
          "name": "pod",
          "type": "tuple"
        },
        {
          "internalType": "uint256",
          "name": "start",
          "type": "uint256"
        },
        {
          "internalType": "uint256",
          "name": "votes",
          "type": "uint256"
        },
        {
          "internalType": "uint16",
          "name": "royaltyPercentage",
          "type": "uint16"
        },
        {
          "internalType": "uint256",
          "name": "investorShare",
          "type": "uint256"
        },
        {
          "components": [
            {
              "internalType": "string",
              "name": "podTokenName",
              "type": "string"
            },
            {
              "internalType": "string",
              "name": "podTokenSymbol",
              "type": "string"
            }
          ],
          "internalType": "struct PodDescription",
          "name": "podDescription",
          "type": "tuple"
        },
        {
          "internalType": "uint256",
          "name": "copyrightTokenSupply",
          "type": "uint256"
        }
      ],
      "stateMutability": "view",
      "type": "function",
      "constant": true
    },
    {
      "inputs": [
        {
          "internalType": "address",
          "name": "",
          "type": "address"
        },
        {
          "internalType": "address",
          "name": "",
          "type": "address"
        }
      ],
      "name": "podToTokensClaimable",
      "outputs": [
        {
          "internalType": "uint256",
          "name": "",
          "type": "uint256"
        }
      ],
      "stateMutability": "view",
      "type": "function",
      "constant": true
    },
    {
      "inputs": [],
      "name": "traxSongsRouterAddress",
      "outputs": [
        {
          "internalType": "address",
          "name": "",
          "type": "address"
        }
      ],
      "stateMutability": "view",
      "type": "function",
      "constant": true
    },
    {
      "inputs": [
        {
          "internalType": "address",
          "name": "traxSongsRouterAddress_",
          "type": "address"
        }
      ],
      "name": "setTraxSongsRouterAddress",
      "outputs": [],
      "stateMutability": "nonpayable",
      "type": "function"
    },
    {
      "inputs": [
        {
          "components": [
            {
              "internalType": "address[]",
              "name": "owners",
              "type": "address[]"
            },
            {
              "internalType": "address",
              "name": "podAddress",
              "type": "address"
            },
            {
              "internalType": "uint64",
              "name": "fundingDate",
              "type": "uint64"
            },
            {
              "internalType": "address",
              "name": "fundingToken",
              "type": "address"
            },
            {
              "internalType": "uint64",
              "name": "fundingTokenPrice",
              "type": "uint64"
            },
            {
              "internalType": "uint256",
              "name": "fundingTarget",
              "type": "uint256"
            }
          ],
          "internalType": "struct Pod",
          "name": "_pod",
          "type": "tuple"
        },
        {
          "internalType": "uint256[]",
          "name": "_mediaIds",
          "type": "uint256[]"
        },
        {
          "internalType": "uint16",
          "name": "_royaltyPercentage",
          "type": "uint16"
        },
        {
          "components": [
            {
              "internalType": "string",
              "name": "podTokenName",
              "type": "string"
            },
            {
              "internalType": "string",
              "name": "podTokenSymbol",
              "type": "string"
            }
          ],
          "internalType": "struct PodDescription",
          "name": "_podDescription",
          "type": "tuple"
        },
        {
          "internalType": "uint256",
          "name": "_investorShare",
          "type": "uint256"
        },
        {
          "internalType": "uint256[]",
          "name": "_copyrightAllocation",
          "type": "uint256[]"
        }
      ],
      "name": "registerPodProposal",
      "outputs": [],
      "stateMutability": "nonpayable",
      "type": "function"
    },
    {
      "inputs": [
        {
          "internalType": "uint256",
          "name": "id",
          "type": "uint256"
        }
      ],
      "name": "voteForPodProposal",
      "outputs": [],
      "stateMutability": "nonpayable",
      "type": "function"
    },
    {
      "inputs": [
        {
          "internalType": "address",
          "name": "_podAddress",
          "type": "address"
        },
        {
          "internalType": "uint256",
          "name": "_amount",
          "type": "uint256"
        }
      ],
      "name": "investPod",
      "outputs": [],
      "stateMutability": "nonpayable",
      "type": "function"
    },
    {
      "inputs": [
        {
          "internalType": "address",
          "name": "_podAddress",
          "type": "address"
        }
      ],
      "name": "claimPodTokens",
      "outputs": [],
      "stateMutability": "nonpayable",
      "type": "function"
    },
    {
      "inputs": [
        {
          "internalType": "address",
          "name": "_podAddress",
          "type": "address"
        },
        {
          "internalType": "uint256",
          "name": "_mediaId",
          "type": "uint256"
        },
        {
          "internalType": "string",
          "name": "_uri",
          "type": "string"
        }
      ],
      "name": "uploadMedia",
      "outputs": [],
      "stateMutability": "nonpayable",
      "type": "function"
    },
    {
      "inputs": [
        {
          "internalType": "address",
          "name": "_podAddress",
          "type": "address"
        }
      ],
      "name": "getPodInfo",
      "outputs": [
        {
          "components": [
            {
              "internalType": "bytes32",
              "name": "status",
              "type": "bytes32"
            },
            {
              "internalType": "uint256",
              "name": "raisedFunds",
              "type": "uint256"
            },
            {
              "internalType": "uint256[]",
              "name": "mediaIds",
              "type": "uint256[]"
            },
            {
              "internalType": "uint256[]",
              "name": "registeredMediaIds",
              "type": "uint256[]"
            },
            {
              "internalType": "address",
              "name": "nftContract",
              "type": "address"
            },
            {
              "internalType": "address",
              "name": "distributionManagerAddress",
              "type": "address"
            },
            {
              "components": [
                {
                  "internalType": "address[]",
                  "name": "owners",
                  "type": "address[]"
                },
                {
                  "internalType": "address",
                  "name": "podAddress",
                  "type": "address"
                },
                {
                  "internalType": "uint64",
                  "name": "fundingDate",
                  "type": "uint64"
                },
                {
                  "internalType": "address",
                  "name": "fundingToken",
                  "type": "address"
                },
                {
                  "internalType": "uint64",
                  "name": "fundingTokenPrice",
                  "type": "uint64"
                },
                {
                  "internalType": "uint256",
                  "name": "fundingTarget",
                  "type": "uint256"
                }
              ],
              "internalType": "struct Pod",
              "name": "pod",
              "type": "tuple"
            },
            {
              "internalType": "address",
              "name": "copyrightToken",
              "type": "address"
            },
            {
              "internalType": "address",
              "name": "copyrightNftContract",
              "type": "address"
            },
            {
              "internalType": "uint256",
              "name": "copyrightSupplyInvestors",
              "type": "uint256"
            },
            {
              "internalType": "uint256[]",
              "name": "copyrightAllocation",
              "type": "uint256[]"
            },
            {
              "internalType": "uint256",
              "name": "copyrightTokenSupply",
              "type": "uint256"
            }
          ],
          "internalType": "struct PodInfo",
          "name": "podInfo",
          "type": "tuple"
        }
      ],
      "stateMutability": "view",
      "type": "function",
      "constant": true
    },
    {
      "inputs": [
        {
          "internalType": "address",
          "name": "podAddress",
          "type": "address"
        },
        {
          "internalType": "uint256",
          "name": "mediaId",
          "type": "uint256"
        }
      ],
      "name": "isUploadedMedia",
      "outputs": [
        {
          "internalType": "bool",
          "name": "",
          "type": "bool"
        }
      ],
      "stateMutability": "view",
      "type": "function",
      "constant": true
    }
  ],
  "bytecode": "0x61012060405260006003553480156200001757600080fd5b50604051620060543803806200605483398181016040528101906200003d9190620001d4565b8473ffffffffffffffffffffffffffffffffffffffff1660808173ffffffffffffffffffffffffffffffffffffffff1660601b815250508373ffffffffffffffffffffffffffffffffffffffff1660a08173ffffffffffffffffffffffffffffffffffffffff1660601b815250508273ffffffffffffffffffffffffffffffffffffffff1660c08173ffffffffffffffffffffffffffffffffffffffff1660601b815250508273ffffffffffffffffffffffffffffffffffffffff16622181b46040518163ffffffff1660e01b8152600401600060405180830381600087803b1580156200012a57600080fd5b505af11580156200013f573d6000803e3d6000fd5b505050508173ffffffffffffffffffffffffffffffffffffffff1660e08173ffffffffffffffffffffffffffffffffffffffff1660601b815250508073ffffffffffffffffffffffffffffffffffffffff166101008173ffffffffffffffffffffffffffffffffffffffff1660601b815250505050505050620002af565b600081519050620001ce8162000295565b92915050565b600080600080600060a08688031215620001f357620001f262000290565b5b60006200020388828901620001bd565b95505060206200021688828901620001bd565b94505060406200022988828901620001bd565b93505060606200023c88828901620001bd565b92505060806200024f88828901620001bd565b9150509295509295909350565b6000620002698262000270565b9050919050565b600073ffffffffffffffffffffffffffffffffffffffff82169050919050565b600080fd5b620002a0816200025c565b8114620002ac57600080fd5b50565b60805160601c60a05160601c60c05160601c60e05160601c6101005160601c615d356200031f6000396000612cb501526000612f69015260008181612cdf01528181612e9d0152613121015260008181610f3101526123e50152600081816131bf015261369b0152615d356000f3fe608060405234801561001057600080fd5b50600436106100ea5760003560e01c8063813ab6581161008c578063b8dbc1b611610066578063b8dbc1b614610251578063b9e067ba14610281578063ca7d793b1461029d578063f41385dc146102b9576100ea565b8063813ab658146101f957806399d3d80114610217578063aaf5eb6814610233576100ea565b8063214340d9116100c8578063214340d91461015b5780634b4fdc5f146101775780636f24b053146101ad5780637f9c69c4146101dd576100ea565b806301d8b562146100ef5780630827f77d1461011f5780631010a08b1461013d575b600080fd5b6101096004803603810190610104919061407a565b6102d5565b6040516101169190615229565b60405180910390f35b6101276107fb565b6040516101349190614e2c565b60405180910390f35b61014561081f565b6040516101529190614e2c565b60405180910390f35b61017560048036038101906101709190614154565b610843565b005b610191600480360381019061018c9190614329565b610bda565b6040516101a4979695949392919061524b565b60405180910390f35b6101c760048036038101906101c291906140d4565b610f0a565b6040516101d491906152c8565b60405180910390f35b6101f760048036038101906101f29190614222565b610f2f565b005b610201611646565b60405161020e9190614ca9565b60405180910390f35b610231600480360381019061022c9190614114565b61166a565b005b61023b612078565b60405161024891906152c8565b60405180910390f35b61026b60048036038101906102669190614114565b612084565b6040516102789190614e11565b60405180910390f35b61029b6004803603810190610296919061407a565b612168565b005b6102b760048036038101906102b29190614329565b61238a565b005b6102d360048036038101906102ce919061407a565b6127a5565b005b6102dd613981565b6000600160008473ffffffffffffffffffffffffffffffffffffffff1673ffffffffffffffffffffffffffffffffffffffff1681526020019081526020016000206002018054905011610365576040517f08c379a000000000000000000000000000000000000000000000000000000000815260040161035c90615049565b60405180910390fd5b600160008373ffffffffffffffffffffffffffffffffffffffff1673ffffffffffffffffffffffffffffffffffffffff1681526020019081526020016000206040518061018001604052908160008201548152602001600182015481526020016002820180548060200260200160405190810160405280929190818152602001828054801561041357602002820191906000526020600020905b8154815260200190600101908083116103ff575b505050505081526020016003820180548060200260200160405190810160405280929190818152602001828054801561046b57602002820191906000526020600020905b815481526020019060010190808311610457575b505050505081526020016004820160009054906101000a900473ffffffffffffffffffffffffffffffffffffffff1673ffffffffffffffffffffffffffffffffffffffff1673ffffffffffffffffffffffffffffffffffffffff1681526020016005820160009054906101000a900473ffffffffffffffffffffffffffffffffffffffff1673ffffffffffffffffffffffffffffffffffffffff1673ffffffffffffffffffffffffffffffffffffffff168152602001600682016040518060c0016040529081600082018054806020026020016040519081016040528092919081815260200182805480156105b557602002820191906000526020600020905b8160009054906101000a900473ffffffffffffffffffffffffffffffffffffffff1673ffffffffffffffffffffffffffffffffffffffff168152602001906001019080831161056b575b505050505081526020016001820160009054906101000a900473ffffffffffffffffffffffffffffffffffffffff1673ffffffffffffffffffffffffffffffffffffffff1673ffffffffffffffffffffffffffffffffffffffff1681526020016001820160149054906101000a900467ffffffffffffffff1667ffffffffffffffff1667ffffffffffffffff1681526020016002820160009054906101000a900473ffffffffffffffffffffffffffffffffffffffff1673ffffffffffffffffffffffffffffffffffffffff1673ffffffffffffffffffffffffffffffffffffffff1681526020016002820160149054906101000a900467ffffffffffffffff1667ffffffffffffffff1667ffffffffffffffff1681526020016003820154815250508152602001600a820160009054906101000a900473ffffffffffffffffffffffffffffffffffffffff1673ffffffffffffffffffffffffffffffffffffffff1673ffffffffffffffffffffffffffffffffffffffff168152602001600b820160009054906101000a900473ffffffffffffffffffffffffffffffffffffffff1673ffffffffffffffffffffffffffffffffffffffff1673ffffffffffffffffffffffffffffffffffffffff168152602001600c8201548152602001600d82018054806020026020016040519081016040528092919081815260200182805480156107e157602002820191906000526020600020905b8154815260200190600101908083116107cd575b50505050508152602001600e820154815250509050919050565b7f1b051eabb191097272b9187f0c5c3152a0c5088405d4a327a4e5e5242f29cfca81565b7f2097e2e0f370945c0a82a75d599dd83e8cd76a11910f1819fdadc112dd2e811581565b600061084e856102d5565b9050428160c001516040015167ffffffffffffffff1611156108a5576040517f08c379a000000000000000000000000000000000000000000000000000000000815260040161089c90615189565b60405180910390fd5b8060c0015160a00151816020015110156108f4576040517f08c379a00000000000000000000000000000000000000000000000000000000081526004016108eb90615089565b60405180910390fd5b6000805b600160008873ffffffffffffffffffffffffffffffffffffffff1673ffffffffffffffffffffffffffffffffffffffff16815260200190815260200160002060060160000180549050811015610a15573373ffffffffffffffffffffffffffffffffffffffff16600160008973ffffffffffffffffffffffffffffffffffffffff1673ffffffffffffffffffffffffffffffffffffffff16815260200190815260200160002060060160000182815481106109b6576109b5615789565b5b9060005260206000200160009054906101000a900473ffffffffffffffffffffffffffffffffffffffff1673ffffffffffffffffffffffffffffffffffffffff161415610a0257600191505b8080610a0d906156b3565b9150506108f8565b5080610a56576040517f08c379a0000000000000000000000000000000000000000000000000000000008152600401610a4d906151c9565b60405180910390fd5b610a608686612084565b15610aa0576040517f08c379a0000000000000000000000000000000000000000000000000000000008152600401610a97906151e9565b60405180910390fd5b816080015173ffffffffffffffffffffffffffffffffffffffff166356d30bf88360a001518787876040518563ffffffff1660e01b8152600401610ae79493929190614dd1565b600060405180830381600087803b158015610b0157600080fd5b505af1158015610b15573d6000803e3d6000fd5b50505050600160008773ffffffffffffffffffffffffffffffffffffffff1673ffffffffffffffffffffffffffffffffffffffff1681526020019081526020016000206003018590806001815401808255809150506001900390600052602060002001600090919091909150558573ffffffffffffffffffffffffffffffffffffffff167ff0123728833f1849e274a7c3fce8821a238c3a6dd312813810723684aab2e46f8687604051610bca92919061530c565b60405180910390a2505050505050565b6004602052806000526040600020600091509050806000016040518060c001604052908160008201805480602002602001604051908101604052809291908181526020018280548015610c8257602002820191906000526020600020905b8160009054906101000a900473ffffffffffffffffffffffffffffffffffffffff1673ffffffffffffffffffffffffffffffffffffffff1681526020019060010190808311610c38575b505050505081526020016001820160009054906101000a900473ffffffffffffffffffffffffffffffffffffffff1673ffffffffffffffffffffffffffffffffffffffff1673ffffffffffffffffffffffffffffffffffffffff1681526020016001820160149054906101000a900467ffffffffffffffff1667ffffffffffffffff1667ffffffffffffffff1681526020016002820160009054906101000a900473ffffffffffffffffffffffffffffffffffffffff1673ffffffffffffffffffffffffffffffffffffffff1673ffffffffffffffffffffffffffffffffffffffff1681526020016002820160149054906101000a900467ffffffffffffffff1667ffffffffffffffff1667ffffffffffffffff168152602001600382015481525050908060040154908060050154908060070160009054906101000a900461ffff169080600801549080600901604051806040016040529081600082018054610deb90615650565b80601f0160208091040260200160405190810160405280929190818152602001828054610e1790615650565b8015610e645780601f10610e3957610100808354040283529160200191610e64565b820191906000526020600020905b815481529060010190602001808311610e4757829003601f168201915b50505050508152602001600182018054610e7d90615650565b80601f0160208091040260200160405190810160405280929190818152602001828054610ea990615650565b8015610ef65780601f10610ecb57610100808354040283529160200191610ef6565b820191906000526020600020905b815481529060010190602001808311610ed957829003601f168201915b5050505050815250509080600b0154905087565b6002602052816000526040600020602052806000526040600020600091509150505481565b7f000000000000000000000000000000000000000000000000000000000000000073ffffffffffffffffffffffffffffffffffffffff166319cdff5989606001516040518263ffffffff1660e01b8152600401610f8c9190614ca9565b60206040518083038186803b158015610fa457600080fd5b505afa158015610fb8573d6000803e3d6000fd5b505050506040513d601f19601f82011682018060405250810190610fdc91906141c8565b61101b576040517f08c379a0000000000000000000000000000000000000000000000000000000008152600401611012906150c9565b60405180910390fd5b6000886080015167ffffffffffffffff161161106c576040517f08c379a000000000000000000000000000000000000000000000000000000000815260040161106390615069565b60405180910390fd5b6000886000015151116110b4576040517f08c379a00000000000000000000000000000000000000000000000000000000081526004016110ab90614f89565b60405180910390fd5b600087879050116110fa576040517f08c379a00000000000000000000000000000000000000000000000000000000081526004016110f190614fc9565b60405180910390fd5b600188600001515161110c9190615472565b8282905014611150576040517f08c379a000000000000000000000000000000000000000000000000000000000815260040161114790615129565b60405180910390fd5b600080600090505b8383905081101561119e5783838281811061117657611175615789565b5b90506020020135826111889190615472565b91506001816111979190615472565b9050611158565b50606481146111e2576040517f08c379a00000000000000000000000000000000000000000000000000000000081526004016111d990615149565b60405180910390fd5b6000670de0b6b3a7640000606485856001888890506112019190615553565b81811061121157611210615789565b5b905060200201358c6080015167ffffffffffffffff168d60a0015161123691906154c8565b61124091906154c8565b61124a91906154c8565b61125491906154f9565b90506040518061012001604052808b8152602001428152602001600181526020018a8a80806020026020016040519081016040528093929190818152602001838360200280828437600081840152601f19601f8201169050808301925050505050505081526020018861ffff168152602001868152602001876112d6906155fb565b8152602001828152602001858580806020026020016040519081016040528093929190818152602001838360200280828437600081840152601f19601f820116905080830192505050505050508152506004600060035481526020019081526020016000206000820151816000016000820151816000019080519060200190611360929190613a43565b5060208201518160010160006101000a81548173ffffffffffffffffffffffffffffffffffffffff021916908373ffffffffffffffffffffffffffffffffffffffff16021790555060408201518160010160146101000a81548167ffffffffffffffff021916908367ffffffffffffffff16021790555060608201518160020160006101000a81548173ffffffffffffffffffffffffffffffffffffffff021916908373ffffffffffffffffffffffffffffffffffffffff16021790555060808201518160020160146101000a81548167ffffffffffffffff021916908367ffffffffffffffff16021790555060a08201518160030155505060208201518160040155604082015181600501556060820151816006019080519060200190611489929190613acd565b5060808201518160070160006101000a81548161ffff021916908361ffff16021790555060a0820151816008015560c08201518160090160008201518160000190805190602001906114dc929190613b1a565b5060208201518160010190805190602001906114f9929190613b1a565b50505060e082015181600b015561010082015181600c019080519060200190611523929190613acd565b50905050600160056000600354815260200190815260200160002060003373ffffffffffffffffffffffffffffffffffffffff1673ffffffffffffffffffffffffffffffffffffffff16815260200190815260200160002060006101000a81548160ff0219169083151502179055507fff0ab45f3bc6a366a0cee506a8b1c6b2412e66c65d35a210ce760d9de8a53e916003546040516115c391906152c8565b60405180910390a17f34647120636ce03d739347e28e9d1bdd34fd03d066ae60439fb1be2721ad16cd600354336040516115fe9291906152e3565b60405180910390a160018a600001515114156116205761161f6003546127e8565b5b6001600360008282546116339190615472565b9250508190555050505050505050505050565b60008054906101000a900473ffffffffffffffffffffffffffffffffffffffff1681565b600081116116ad576040517f08c379a00000000000000000000000000000000000000000000000000000000081526004016116a490615009565b60405180910390fd5b6000600160008473ffffffffffffffffffffffffffffffffffffffff1673ffffffffffffffffffffffffffffffffffffffff1681526020019081526020016000206040518061018001604052908160008201548152602001600182015481526020016002820180548060200260200160405190810160405280929190818152602001828054801561175d57602002820191906000526020600020905b815481526020019060010190808311611749575b50505050508152602001600382018054806020026020016040519081016040528092919081815260200182805480156117b557602002820191906000526020600020905b8154815260200190600101908083116117a1575b505050505081526020016004820160009054906101000a900473ffffffffffffffffffffffffffffffffffffffff1673ffffffffffffffffffffffffffffffffffffffff1673ffffffffffffffffffffffffffffffffffffffff1681526020016005820160009054906101000a900473ffffffffffffffffffffffffffffffffffffffff1673ffffffffffffffffffffffffffffffffffffffff1673ffffffffffffffffffffffffffffffffffffffff168152602001600682016040518060c0016040529081600082018054806020026020016040519081016040528092919081815260200182805480156118ff57602002820191906000526020600020905b8160009054906101000a900473ffffffffffffffffffffffffffffffffffffffff1673ffffffffffffffffffffffffffffffffffffffff16815260200190600101908083116118b5575b505050505081526020016001820160009054906101000a900473ffffffffffffffffffffffffffffffffffffffff1673ffffffffffffffffffffffffffffffffffffffff1673ffffffffffffffffffffffffffffffffffffffff1681526020016001820160149054906101000a900467ffffffffffffffff1667ffffffffffffffff1667ffffffffffffffff1681526020016002820160009054906101000a900473ffffffffffffffffffffffffffffffffffffffff1673ffffffffffffffffffffffffffffffffffffffff1673ffffffffffffffffffffffffffffffffffffffff1681526020016002820160149054906101000a900467ffffffffffffffff1667ffffffffffffffff1667ffffffffffffffff1681526020016003820154815250508152602001600a820160009054906101000a900473ffffffffffffffffffffffffffffffffffffffff1673ffffffffffffffffffffffffffffffffffffffff1673ffffffffffffffffffffffffffffffffffffffff168152602001600b820160009054906101000a900473ffffffffffffffffffffffffffffffffffffffff1673ffffffffffffffffffffffffffffffffffffffff1673ffffffffffffffffffffffffffffffffffffffff168152602001600c8201548152602001600d8201805480602002602001604051908101604052809291908181526020018280548015611b2b57602002820191906000526020600020905b815481526020019060010190808311611b17575b50505050508152602001600e820154815250509050428160c001516040015167ffffffffffffffff161015611b95576040517f08c379a0000000000000000000000000000000000000000000000000000000008152600401611b8c90615189565b60405180910390fd5b7f1b051eabb191097272b9187f0c5c3152a0c5088405d4a327a4e5e5242f29cfca816000015114611bfb576040517f08c379a0000000000000000000000000000000000000000000000000000000008152600401611bf2906150a9565b60405180910390fd5b600081602001518260c0015160a00151611c159190615553565b905080831015611c23578290505b60008260c001516080015167ffffffffffffffff16670de0b6b3a764000083611c4c91906154f9565b611c5691906154c8565b905060008111611c9b576040517f08c379a0000000000000000000000000000000000000000000000000000000008152600401611c92906151a9565b60405180910390fd5b81600160008773ffffffffffffffffffffffffffffffffffffffff1673ffffffffffffffffffffffffffffffffffffffff1681526020019081526020016000206001016000828254611ced9190615472565b925050819055508260c0015160a00151600160008773ffffffffffffffffffffffffffffffffffffffff1673ffffffffffffffffffffffffffffffffffffffff1681526020019081526020016000206001015410611ea3577f2097e2e0f370945c0a82a75d599dd83e8cd76a11910f1819fdadc112dd2e8115600160008773ffffffffffffffffffffffffffffffffffffffff1673ffffffffffffffffffffffffffffffffffffffff1681526020019081526020016000206000018190555060005b8360c001516000015151811015611ea1578360e0015173ffffffffffffffffffffffffffffffffffffffff166340c10f198560c00151600001518381518110611dfb57611dfa615789565b5b602002602001015160648761016001518861014001518681518110611e2357611e22615789565b5b6020026020010151611e3591906154f9565b611e3f91906154c8565b6040518363ffffffff1660e01b8152600401611e5c929190614da8565b600060405180830381600087803b158015611e7657600080fd5b505af1158015611e8a573d6000803e3d6000fd5b505050508080611e99906156b3565b915050611daf565b505b8260c001516060015173ffffffffffffffffffffffffffffffffffffffff166323b872dd3387856040518463ffffffff1660e01b8152600401611ee893929190614d41565b602060405180830381600087803b158015611f0257600080fd5b505af1158015611f16573d6000803e3d6000fd5b505050506040513d601f19601f82011682018060405250810190611f3a91906141c8565b611f79576040517f08c379a0000000000000000000000000000000000000000000000000000000008152600401611f7090615209565b60405180910390fd5b80600260008773ffffffffffffffffffffffffffffffffffffffff1673ffffffffffffffffffffffffffffffffffffffff16815260200190815260200160002060003373ffffffffffffffffffffffffffffffffffffffff1673ffffffffffffffffffffffffffffffffffffffff16815260200190815260200160002060008282546120059190615472565b925050819055508473ffffffffffffffffffffffffffffffffffffffff163373ffffffffffffffffffffffffffffffffffffffff167fe86f7ab5646f63a78eb2a6d0c3a4db0e00b37efbdf9c10dfc356cf3cfc7e15408460405161206991906152c8565b60405180910390a35050505050565b670de0b6b3a764000081565b600080600090505b600160008573ffffffffffffffffffffffffffffffffffffffff1673ffffffffffffffffffffffffffffffffffffffff1681526020019081526020016000206003018054905081101561215c5782600160008673ffffffffffffffffffffffffffffffffffffffff1673ffffffffffffffffffffffffffffffffffffffff168152602001908152602001600020600301828154811061212e5761212d615789565b5b90600052602060002001541415612149576001915050612162565b8080612154906156b3565b91505061208c565b50600090505b92915050565b6000612173826102d5565b90508060c001516040015167ffffffffffffffff164210156121ca576040517f08c379a00000000000000000000000000000000000000000000000000000000081526004016121c190615189565b60405180910390fd5b8060c0015160a0015181602001511015612219576040517f08c379a000000000000000000000000000000000000000000000000000000000815260040161221090615089565b60405180910390fd5b8060e0015173ffffffffffffffffffffffffffffffffffffffff166340c10f1933600260008673ffffffffffffffffffffffffffffffffffffffff1673ffffffffffffffffffffffffffffffffffffffff16815260200190815260200160002060003373ffffffffffffffffffffffffffffffffffffffff1673ffffffffffffffffffffffffffffffffffffffff168152602001908152602001600020546040518363ffffffff1660e01b81526004016122d4929190614da8565b600060405180830381600087803b1580156122ee57600080fd5b505af1158015612302573d6000803e3d6000fd5b50505050600260008373ffffffffffffffffffffffffffffffffffffffff1673ffffffffffffffffffffffffffffffffffffffff16815260200190815260200160002060003373ffffffffffffffffffffffffffffffffffffffff1673ffffffffffffffffffffffffffffffffffffffff168152602001908152602001600020600090555050565b60006004600083815260200190815260200160002060040154116123e3576040517f08c379a00000000000000000000000000000000000000000000000000000000081526004016123da90614fa9565b60405180910390fd5b7f000000000000000000000000000000000000000000000000000000000000000073ffffffffffffffffffffffffffffffffffffffff1663905bc7da6040518163ffffffff1660e01b815260040160206040518083038186803b15801561244957600080fd5b505afa15801561245d573d6000803e3d6000fd5b505050506040513d601f19601f820116820180604052508101906124819190614356565b6004600083815260200190815260200160002060040154426124a39190615553565b11156124e4576040517f08c379a00000000000000000000000000000000000000000000000000000000081526004016124db90615029565b60405180910390fd5b6005600082815260200190815260200160002060003373ffffffffffffffffffffffffffffffffffffffff1673ffffffffffffffffffffffffffffffffffffffff16815260200190815260200160002060009054906101000a900460ff1615612582576040517f08c379a000000000000000000000000000000000000000000000000000000000815260040161257990614f69565b60405180910390fd5b6000805b600460008481526020019081526020016000206000016000018054905081101561264c573373ffffffffffffffffffffffffffffffffffffffff166004600085815260200190815260200160002060000160000182815481106125ec576125eb615789565b5b9060005260206000200160009054906101000a900473ffffffffffffffffffffffffffffffffffffffff1673ffffffffffffffffffffffffffffffffffffffff16141561263857600191505b6001816126459190615472565b9050612586565b508061268d576040517f08c379a000000000000000000000000000000000000000000000000000000000815260040161268490614fe9565b60405180910390fd5b60016004600084815260200190815260200160002060050160008282546126b49190615472565b9250508190555060016005600084815260200190815260200160002060003373ffffffffffffffffffffffffffffffffffffffff1673ffffffffffffffffffffffffffffffffffffffff16815260200190815260200160002060006101000a81548160ff0219169083151502179055507f34647120636ce03d739347e28e9d1bdd34fd03d066ae60439fb1be2721ad16cd82336040516127559291906152e3565b60405180910390a16004600083815260200190815260200160002060000160000180549050600460008481526020019081526020016000206005015414156127a1576127a0826127e8565b5b5050565b806000806101000a81548173ffffffffffffffffffffffffffffffffffffffff021916908373ffffffffffffffffffffffffffffffffffffffff16021790555050565b60006004600083815260200190815260200160002060405180610120016040529081600082016040518060c00160405290816000820180548060200260200160405190810160405280929190818152602001828054801561289e57602002820191906000526020600020905b8160009054906101000a900473ffffffffffffffffffffffffffffffffffffffff1673ffffffffffffffffffffffffffffffffffffffff1681526020019060010190808311612854575b505050505081526020016001820160009054906101000a900473ffffffffffffffffffffffffffffffffffffffff1673ffffffffffffffffffffffffffffffffffffffff1673ffffffffffffffffffffffffffffffffffffffff1681526020016001820160149054906101000a900467ffffffffffffffff1667ffffffffffffffff1667ffffffffffffffff1681526020016002820160009054906101000a900473ffffffffffffffffffffffffffffffffffffffff1673ffffffffffffffffffffffffffffffffffffffff1673ffffffffffffffffffffffffffffffffffffffff1681526020016002820160149054906101000a900467ffffffffffffffff1667ffffffffffffffff1667ffffffffffffffff1681526020016003820154815250508152602001600482015481526020016005820154815260200160068201805480602002602001604051908101604052809291908181526020018280548015612a2857602002820191906000526020600020905b815481526020019060010190808311612a14575b505050505081526020016007820160009054906101000a900461ffff1661ffff1661ffff1681526020016008820154815260200160098201604051806040016040529081600082018054612a7b90615650565b80601f0160208091040260200160405190810160405280929190818152602001828054612aa790615650565b8015612af45780601f10612ac957610100808354040283529160200191612af4565b820191906000526020600020905b815481529060010190602001808311612ad757829003601f168201915b50505050508152602001600182018054612b0d90615650565b80601f0160208091040260200160405190810160405280929190818152602001828054612b3990615650565b8015612b865780601f10612b5b57610100808354040283529160200191612b86565b820191906000526020600020905b815481529060010190602001808311612b6957829003601f168201915b5050505050815250508152602001600b8201548152602001600c8201805480602002602001604051908101604052809291908181526020018280548015612bec57602002820191906000526020600020905b815481526020019060010190808311612bd8575b5050505050815250509050600081600001519050806000015151600460008581526020019081526020016000206005015414612c5d576040517f08c379a0000000000000000000000000000000000000000000000000000000008152600401612c5490615109565b60405180910390fd5b42816040015167ffffffffffffffff161015612cae576040517f08c379a0000000000000000000000000000000000000000000000000000000008152600401612ca590615169565b60405180910390fd5b6000612cd97f00000000000000000000000000000000000000000000000000000000000000006138ac565b905060007f000000000000000000000000000000000000000000000000000000000000000073ffffffffffffffffffffffffffffffffffffffff1663d0d6b1078560c0015160000151604051602001612d329190614c43565b6040516020818303038152906040528660c0015160200151604051602001612d5a9190614c21565b604051602081830303815290604052856040518463ffffffff1660e01b8152600401612d8893929190614e70565b602060405180830381600087803b158015612da257600080fd5b505af1158015612db6573d6000803e3d6000fd5b505050506040513d601f19601f82011682018060405250810190612dda91906140a7565b90508173ffffffffffffffffffffffffffffffffffffffff1663077f224a8560c0015160000151604051602001612e119190614c65565b6040516020818303038152906040528660c0015160200151604051602001612e399190614c87565b604051602081830303815290604052846040518463ffffffff1660e01b8152600401612e6793929190614e70565b600060405180830381600087803b158015612e8157600080fd5b505af1158015612e95573d6000803e3d6000fd5b5050505060007f000000000000000000000000000000000000000000000000000000000000000073ffffffffffffffffffffffffffffffffffffffff166367e8daa78660c00151600001518760c00151602001518589608001516040518563ffffffff1660e01b8152600401612f0e9493929190614f16565b602060405180830381600087803b158015612f2857600080fd5b505af1158015612f3c573d6000803e3d6000fd5b505050506040513d601f19601f82011682018060405250810190612f6091906140a7565b90506000612f8d7f00000000000000000000000000000000000000000000000000000000000000006138ac565b905060008173ffffffffffffffffffffffffffffffffffffffff1663483b4f118760600151868a60c00151600001518b60c00151602001518c60a001518b8a6040518863ffffffff1660e01b8152600401612fee9796959493929190614cc4565b602060405180830381600087803b15801561300857600080fd5b505af115801561301c573d6000803e3d6000fd5b505050506040513d601f19601f8201168201806040525081019061304091906140a7565b90508373ffffffffffffffffffffffffffffffffffffffff1663db0ed6a08860c00151600001516040516020016130779190614c43565b6040516020818303038152906040528960c001516020015160405160200161309f9190614c21565b6040516020818303038152906040528885306040518663ffffffff1660e01b81526004016130d1959493929190614eb5565b600060405180830381600087803b1580156130eb57600080fd5b505af11580156130ff573d6000803e3d6000fd5b505050508373ffffffffffffffffffffffffffffffffffffffff16632f2ff15d7f000000000000000000000000000000000000000000000000000000000000000073ffffffffffffffffffffffffffffffffffffffff1663e1b086196040518163ffffffff1660e01b815260040160206040518083038186803b15801561318557600080fd5b505afa158015613199573d6000803e3d6000fd5b505050506040513d601f19601f820116820180604052508101906131bd91906141f5565b7f00000000000000000000000000000000000000000000000000000000000000006040518363ffffffff1660e01b81526004016131fb929190614e47565b600060405180830381600087803b15801561321557600080fd5b505af1158015613229573d6000803e3d6000fd5b505050506040518061018001604052807f1b051eabb191097272b9187f0c5c3152a0c5088405d4a327a4e5e5242f29cfca81526020016000815260200188606001518152602001600067ffffffffffffffff81111561328b5761328a6157b8565b5b6040519080825280602002602001820160405280156132b95781602001602082028036833780820191505090505b5081526020018473ffffffffffffffffffffffffffffffffffffffff1681526020018373ffffffffffffffffffffffffffffffffffffffff1681526020018781526020018573ffffffffffffffffffffffffffffffffffffffff1681526020018473ffffffffffffffffffffffffffffffffffffffff168152602001606489610100015160018b6101000151516133509190615553565b8151811061336157613360615789565b5b60200260200101518a60e0015161337891906154f9565b61338291906154c8565b815260200188610100015181526020018860e00151815250600160008673ffffffffffffffffffffffffffffffffffffffff1673ffffffffffffffffffffffffffffffffffffffff16815260200190815260200160002060008201518160000155602082015181600101556040820151816002019080519060200190613409929190613acd565b506060820151816003019080519060200190613426929190613acd565b5060808201518160040160006101000a81548173ffffffffffffffffffffffffffffffffffffffff021916908373ffffffffffffffffffffffffffffffffffffffff16021790555060a08201518160050160006101000a81548173ffffffffffffffffffffffffffffffffffffffff021916908373ffffffffffffffffffffffffffffffffffffffff16021790555060c08201518160060160008201518160000190805190602001906134da929190613a43565b5060208201518160010160006101000a81548173ffffffffffffffffffffffffffffffffffffffff021916908373ffffffffffffffffffffffffffffffffffffffff16021790555060408201518160010160146101000a81548167ffffffffffffffff021916908367ffffffffffffffff16021790555060608201518160020160006101000a81548173ffffffffffffffffffffffffffffffffffffffff021916908373ffffffffffffffffffffffffffffffffffffffff16021790555060808201518160020160146101000a81548167ffffffffffffffff021916908367ffffffffffffffff16021790555060a08201518160030155505060e082015181600a0160006101000a81548173ffffffffffffffffffffffffffffffffffffffff021916908373ffffffffffffffffffffffffffffffffffffffff16021790555061010082015181600b0160006101000a81548173ffffffffffffffffffffffffffffffffffffffff021916908373ffffffffffffffffffffffffffffffffffffffff16021790555061012082015181600c015561014082015181600d01908051906020019061368a929190613acd565b5061016082015181600e01559050507f000000000000000000000000000000000000000000000000000000000000000073ffffffffffffffffffffffffffffffffffffffff1663ecfcb72a8588600001516040518363ffffffff1660e01b81526004016136f8929190614d78565b600060405180830381600087803b15801561371257600080fd5b505af1158015613726573d6000803e3d6000fd5b505050508373ffffffffffffffffffffffffffffffffffffffff167f41bc6022ac8da2e453cffc5ba42349a2880637ef8d0d5944339a022a6739f36060405160405180910390a2600460008981526020019081526020016000206000808201600080820160006137969190613ba0565b6001820160006101000a81549073ffffffffffffffffffffffffffffffffffffffff02191690556001820160146101000a81549067ffffffffffffffff02191690556002820160006101000a81549073ffffffffffffffffffffffffffffffffffffffff02191690556002820160146101000a81549067ffffffffffffffff021916905560038201600090555050600482016000905560058201600090556006820160006138449190613bc1565b6007820160006101000a81549061ffff0219169055600882016000905560098201600080820160006138769190613be2565b6001820160006138869190613be2565b5050600b820160009055600c820160006138a09190613bc1565b50505050505050505050565b60006040517f3d602d80600a3d3981f3363d3d373d3d3d363d7300000000000000000000000081528260601b60148201527f5af43d82803e903d91602b57fd5bf3000000000000000000000000000000000060288201526037816000f0915050600073ffffffffffffffffffffffffffffffffffffffff168173ffffffffffffffffffffffffffffffffffffffff16141561397c576040517f08c379a0000000000000000000000000000000000000000000000000000000008152600401613973906150e9565b60405180910390fd5b919050565b60405180610180016040528060008019168152602001600081526020016060815260200160608152602001600073ffffffffffffffffffffffffffffffffffffffff168152602001600073ffffffffffffffffffffffffffffffffffffffff1681526020016139ee613c22565b8152602001600073ffffffffffffffffffffffffffffffffffffffff168152602001600073ffffffffffffffffffffffffffffffffffffffff1681526020016000815260200160608152602001600081525090565b828054828255906000526020600020908101928215613abc579160200282015b82811115613abb5782518260006101000a81548173ffffffffffffffffffffffffffffffffffffffff021916908373ffffffffffffffffffffffffffffffffffffffff16021790555091602001919060010190613a63565b5b509050613ac99190613c98565b5090565b828054828255906000526020600020908101928215613b09579160200282015b82811115613b08578251825591602001919060010190613aed565b5b509050613b169190613c98565b5090565b828054613b2690615650565b90600052602060002090601f016020900481019282613b485760008555613b8f565b82601f10613b6157805160ff1916838001178555613b8f565b82800160010185558215613b8f579182015b82811115613b8e578251825591602001919060010190613b73565b5b509050613b9c9190613c98565b5090565b5080546000825590600052602060002090810190613bbe9190613c98565b50565b5080546000825590600052602060002090810190613bdf9190613c98565b50565b508054613bee90615650565b6000825580601f10613c005750613c1f565b601f016020900490600052602060002090810190613c1e9190613c98565b5b50565b6040518060c0016040528060608152602001600073ffffffffffffffffffffffffffffffffffffffff168152602001600067ffffffffffffffff168152602001600073ffffffffffffffffffffffffffffffffffffffff168152602001600067ffffffffffffffff168152602001600081525090565b5b80821115613cb1576000816000905550600101613c99565b5090565b6000613cc8613cc38461535a565b615335565b90508083825260208201905082856020860282011115613ceb57613cea615800565b5b60005b85811015613d1b5781613d018882613d67565b845260208401935060208301925050600181019050613cee565b5050509392505050565b6000613d38613d3384615386565b615335565b905082815260208101848484011115613d5457613d53615805565b5b613d5f84828561560e565b509392505050565b600081359050613d7681615c75565b92915050565b600081519050613d8b81615c75565b92915050565b600082601f830112613da657613da56157ec565b5b8135613db6848260208601613cb5565b91505092915050565b60008083601f840112613dd557613dd46157ec565b5b8235905067ffffffffffffffff811115613df257613df16157e7565b5b602083019150836020820283011115613e0e57613e0d615800565b5b9250929050565b600081519050613e2481615c8c565b92915050565b600081519050613e3981615ca3565b92915050565b60008083601f840112613e5557613e546157ec565b5b8235905067ffffffffffffffff811115613e7257613e716157e7565b5b602083019150836001820283011115613e8e57613e8d615800565b5b9250929050565b600082601f830112613eaa57613ea96157ec565b5b8135613eba848260208601613d25565b91505092915050565b600060408284031215613ed957613ed86157f1565b5b81905092915050565b600060408284031215613ef857613ef76157f6565b5b613f026040615335565b9050600082013567ffffffffffffffff811115613f2257613f216157fb565b5b613f2e84828501613e95565b600083015250602082013567ffffffffffffffff811115613f5257613f516157fb565b5b613f5e84828501613e95565b60208301525092915050565b600060c08284031215613f8057613f7f6157f6565b5b613f8a60c0615335565b9050600082013567ffffffffffffffff811115613faa57613fa96157fb565b5b613fb684828501613d91565b6000830152506020613fca84828501613d67565b6020830152506040613fde84828501614065565b6040830152506060613ff284828501613d67565b606083015250608061400684828501614065565b60808301525060a061401a8482850161403b565b60a08301525092915050565b60008135905061403581615cba565b92915050565b60008135905061404a81615cd1565b92915050565b60008151905061405f81615cd1565b92915050565b60008135905061407481615ce8565b92915050565b6000602082840312156140905761408f61580f565b5b600061409e84828501613d67565b91505092915050565b6000602082840312156140bd576140bc61580f565b5b60006140cb84828501613d7c565b91505092915050565b600080604083850312156140eb576140ea61580f565b5b60006140f985828601613d67565b925050602061410a85828601613d67565b9150509250929050565b6000806040838503121561412b5761412a61580f565b5b600061413985828601613d67565b925050602061414a8582860161403b565b9150509250929050565b6000806000806060858703121561416e5761416d61580f565b5b600061417c87828801613d67565b945050602061418d8782880161403b565b935050604085013567ffffffffffffffff8111156141ae576141ad61580a565b5b6141ba87828801613e3f565b925092505092959194509250565b6000602082840312156141de576141dd61580f565b5b60006141ec84828501613e15565b91505092915050565b60006020828403121561420b5761420a61580f565b5b600061421984828501613e2a565b91505092915050565b60008060008060008060008060c0898b0312156142425761424161580f565b5b600089013567ffffffffffffffff8111156142605761425f61580a565b5b61426c8b828c01613f6a565b985050602089013567ffffffffffffffff81111561428d5761428c61580a565b5b6142998b828c01613dbf565b975097505060406142ac8b828c01614026565b955050606089013567ffffffffffffffff8111156142cd576142cc61580a565b5b6142d98b828c01613ec3565b94505060806142ea8b828c0161403b565b93505060a089013567ffffffffffffffff81111561430b5761430a61580a565b5b6143178b828c01613dbf565b92509250509295985092959890939650565b60006020828403121561433f5761433e61580f565b5b600061434d8482850161403b565b91505092915050565b60006020828403121561436c5761436b61580f565b5b600061437a84828501614050565b91505092915050565b600061438f83836143b3565b60208301905092915050565b60006143a78383614bf4565b60208301905092915050565b6143bc81615587565b82525050565b6143cb81615587565b82525050565b60006143dc826153d7565b6143e68185615412565b93506143f1836153b7565b8060005b838110156144225781516144098882614383565b9750614414836153f8565b9250506001810190506143f5565b5085935050505092915050565b600061443a826153d7565b6144448185615423565b935061444f836153b7565b8060005b838110156144805781516144678882614383565b9750614472836153f8565b925050600181019050614453565b5085935050505092915050565b6000614498826153e2565b6144a28185615434565b93506144ad836153c7565b8060005b838110156144de5781516144c5888261439b565b97506144d083615405565b9250506001810190506144b1565b5085935050505092915050565b6144f481615599565b82525050565b614503816155a5565b82525050565b614512816155a5565b82525050565b60006145248385615456565b935061453183858461560e565b61453a83615814565b840190509392505050565b6000614550826153ed565b61455a8185615445565b935061456a81856020860161561d565b61457381615814565b840191505092915050565b6000614589826153ed565b6145938185615456565b93506145a381856020860161561d565b6145ac81615814565b840191505092915050565b60006145c2826153ed565b6145cc8185615467565b93506145dc81856020860161561d565b80840191505092915050565b60006145f5600183615467565b915061460082615825565b600182019050919050565b6000614618601583615456565b91506146238261584e565b602082019050919050565b600061463b600a83615467565b915061464682615877565b600a82019050919050565b600061465e600983615456565b9150614669826158a0565b602082019050919050565b6000614681601683615456565b915061468c826158c9565b602082019050919050565b60006146a4600983615456565b91506146af826158f2565b602082019050919050565b60006146c7601483615456565b91506146d28261591b565b602082019050919050565b60006146ea600e83615456565b91506146f582615944565b602082019050919050565b600061470d601383615456565b91506147188261596d565b602082019050919050565b6000614730600e83615456565b915061473b82615996565b602082019050919050565b6000614753601383615456565b915061475e826159bf565b602082019050919050565b6000614776601a83615456565b9150614781826159e8565b602082019050919050565b6000614799601383615467565b91506147a482615a11565b601382019050919050565b60006147bc600e83615456565b91506147c782615a3a565b602082019050919050565b60006147df601f83615456565b91506147ea82615a63565b602082019050919050565b6000614802601683615456565b915061480d82615a8c565b602082019050919050565b6000614825601583615456565b915061483082615ab5565b602082019050919050565b6000614848601c83615456565b915061485382615ade565b602082019050919050565b600061486b601a83615456565b915061487682615b07565b602082019050919050565b600061488e601483615456565b915061489982615b30565b602082019050919050565b60006148b1601883615456565b91506148bc82615b59565b602082019050919050565b60006148d4601283615456565b91506148df82615b82565b602082019050919050565b60006148f7602083615456565b915061490282615bab565b602082019050919050565b600061491a602583615456565b915061492582615bd4565b604082019050919050565b600061493d601683615456565b915061494882615c23565b602082019050919050565b6000614960600283615467565b915061496b82615c4c565b600282019050919050565b600060408301600083015184820360008601526149938282614545565b915050602083015184820360208601526149ad8282614545565b9150508091505092915050565b6000610180830160008301516149d360008601826144fa565b5060208301516149e66020860182614bf4565b50604083015184820360408601526149fe828261448d565b91505060608301518482036060860152614a18828261448d565b9150506080830151614a2d60808601826143b3565b5060a0830151614a4060a08601826143b3565b5060c083015184820360c0860152614a588282614ad3565b91505060e0830151614a6d60e08601826143b3565b50610100830151614a826101008601826143b3565b50610120830151614a97610120860182614bf4565b50610140830151848203610140860152614ab1828261448d565b915050610160830151614ac8610160860182614bf4565b508091505092915050565b600060c0830160008301518482036000860152614af082826143d1565b9150506020830151614b0560208601826143b3565b506040830151614b186040860182614c12565b506060830151614b2b60608601826143b3565b506080830151614b3e6080860182614c12565b5060a0830151614b5160a0860182614bf4565b508091505092915050565b600060c0830160008301518482036000860152614b7982826143d1565b9150506020830151614b8e60208601826143b3565b506040830151614ba16040860182614c12565b506060830151614bb460608601826143b3565b506080830151614bc76080860182614c12565b5060a0830151614bda60a0860182614bf4565b508091505092915050565b614bee816155af565b82525050565b614bfd816155dd565b82525050565b614c0c816155dd565b82525050565b614c1b816155e7565b82525050565b6000614c2d82846145b7565b9150614c38826145e8565b915081905092915050565b6000614c4f82846145b7565b9150614c5a8261462e565b915081905092915050565b6000614c7182846145b7565b9150614c7c8261478c565b915081905092915050565b6000614c9382846145b7565b9150614c9e82614953565b915081905092915050565b6000602082019050614cbe60008301846143c2565b92915050565b600060e082019050614cd9600083018a6143c2565b614ce660208301896143c2565b8181036040830152614cf8818861457e565b90508181036060830152614d0c818761457e565b9050614d1b6080830186614c03565b614d2860a08301856143c2565b614d3560c08301846143c2565b98975050505050505050565b6000606082019050614d5660008301866143c2565b614d6360208301856143c2565b614d706040830184614c03565b949350505050565b6000604082019050614d8d60008301856143c2565b8181036020830152614d9f818461442f565b90509392505050565b6000604082019050614dbd60008301856143c2565b614dca6020830184614c03565b9392505050565b6000606082019050614de660008301876143c2565b614df36020830186614c03565b8181036040830152614e06818486614518565b905095945050505050565b6000602082019050614e2660008301846144eb565b92915050565b6000602082019050614e416000830184614509565b92915050565b6000604082019050614e5c6000830185614509565b614e6960208301846143c2565b9392505050565b60006060820190508181036000830152614e8a818661457e565b90508181036020830152614e9e818561457e565b9050614ead60408301846143c2565b949350505050565b600060a0820190508181036000830152614ecf818861457e565b90508181036020830152614ee3818761457e565b9050614ef260408301866143c2565b614eff60608301856143c2565b614f0c60808301846143c2565b9695505050505050565b60006080820190508181036000830152614f30818761457e565b90508181036020830152614f44818661457e565b9050614f5360408301856143c2565b614f606060830184614be5565b95945050505050565b60006020820190508181036000830152614f828161460b565b9050919050565b60006020820190508181036000830152614fa281614651565b9050919050565b60006020820190508181036000830152614fc281614674565b9050919050565b60006020820190508181036000830152614fe281614697565b9050919050565b60006020820190508181036000830152615002816146ba565b9050919050565b60006020820190508181036000830152615022816146dd565b9050919050565b6000602082019050818103600083015261504281614700565b9050919050565b6000602082019050818103600083015261506281614723565b9050919050565b6000602082019050818103600083015261508281614746565b9050919050565b600060208201905081810360008301526150a281614769565b9050919050565b600060208201905081810360008301526150c2816147af565b9050919050565b600060208201905081810360008301526150e2816147d2565b9050919050565b60006020820190508181036000830152615102816147f5565b9050919050565b6000602082019050818103600083015261512281614818565b9050919050565b600060208201905081810360008301526151428161483b565b9050919050565b600060208201905081810360008301526151628161485e565b9050919050565b6000602082019050818103600083015261518281614881565b9050919050565b600060208201905081810360008301526151a2816148a4565b9050919050565b600060208201905081810360008301526151c2816148c7565b9050919050565b600060208201905081810360008301526151e2816148ea565b9050919050565b600060208201905081810360008301526152028161490d565b9050919050565b6000602082019050818103600083015261522281614930565b9050919050565b6000602082019050818103600083015261524381846149ba565b905092915050565b600060e0820190508181036000830152615265818a614b5c565b90506152746020830189614c03565b6152816040830188614c03565b61528e6060830187614be5565b61529b6080830186614c03565b81810360a08301526152ad8185614976565b90506152bc60c0830184614c03565b98975050505050505050565b60006020820190506152dd6000830184614c03565b92915050565b60006040820190506152f86000830185614c03565b61530560208301846143c2565b9392505050565b60006040820190506153216000830185614c03565b61532e6020830184614c03565b9392505050565b600061533f615350565b905061534b8282615682565b919050565b6000604051905090565b600067ffffffffffffffff821115615375576153746157b8565b5b602082029050602081019050919050565b600067ffffffffffffffff8211156153a1576153a06157b8565b5b6153aa82615814565b9050602081019050919050565b6000819050602082019050919050565b6000819050602082019050919050565b600081519050919050565b600081519050919050565b600081519050919050565b6000602082019050919050565b6000602082019050919050565b600082825260208201905092915050565b600082825260208201905092915050565b600082825260208201905092915050565b600082825260208201905092915050565b600082825260208201905092915050565b600081905092915050565b600061547d826155dd565b9150615488836155dd565b9250827fffffffffffffffffffffffffffffffffffffffffffffffffffffffffffffffff038211156154bd576154bc6156fc565b5b828201905092915050565b60006154d3826155dd565b91506154de836155dd565b9250826154ee576154ed61572b565b5b828204905092915050565b6000615504826155dd565b915061550f836155dd565b9250817fffffffffffffffffffffffffffffffffffffffffffffffffffffffffffffffff0483118215151615615548576155476156fc565b5b828202905092915050565b600061555e826155dd565b9150615569836155dd565b92508282101561557c5761557b6156fc565b5b828203905092915050565b6000615592826155bd565b9050919050565b60008115159050919050565b6000819050919050565b600061ffff82169050919050565b600073ffffffffffffffffffffffffffffffffffffffff82169050919050565b6000819050919050565b600067ffffffffffffffff82169050919050565b60006156073683613ee2565b9050919050565b82818337600083830152505050565b60005b8381101561563b578082015181840152602081019050615620565b8381111561564a576000848401525b50505050565b6000600282049050600182168061566857607f821691505b6020821081141561567c5761567b61575a565b5b50919050565b61568b82615814565b810181811067ffffffffffffffff821117156156aa576156a96157b8565b5b80604052505050565b60006156be826155dd565b91507fffffffffffffffffffffffffffffffffffffffffffffffffffffffffffffffff8214156156f1576156f06156fc565b5b600182019050919050565b7f4e487b7100000000000000000000000000000000000000000000000000000000600052601160045260246000fd5b7f4e487b7100000000000000000000000000000000000000000000000000000000600052601260045260246000fd5b7f4e487b7100000000000000000000000000000000000000000000000000000000600052602260045260246000fd5b7f4e487b7100000000000000000000000000000000000000000000000000000000600052603260045260246000fd5b7f4e487b7100000000000000000000000000000000000000000000000000000000600052604160045260246000fd5b600080fd5b600080fd5b600080fd5b600080fd5b600080fd5b600080fd5b600080fd5b600080fd5b600080fd5b6000601f19601f8301169050919050565b7f4300000000000000000000000000000000000000000000000000000000000000600082015250565b7f4163636f756e7420616c726561647920766f7465640000000000000000000000600082015250565b7f20436f7079726967687400000000000000000000000000000000000000000000600082015250565b7f4e6f206f776e6572730000000000000000000000000000000000000000000000600082015250565b7f50726f706f73616c20646f65736e277420657869737400000000000000000000600082015250565b7f4e6f206d65646961730000000000000000000000000000000000000000000000600082015250565b7f4f6e6c79206f776e6572732063616e20766f7465000000000000000000000000600082015250565b7f496e76616c696420616d6f756e74000000000000000000000000000000000000600082015250565b7f566f74696e6720706572696f6420656e64656400000000000000000000000000600082015250565b7f556e6578697374656e7420706f64000000000000000000000000000000000000600082015250565b7f496e76616c696420546f6b656e20507269636500000000000000000000000000600082015250565b7f46756e64696e6720746172676574206e6f742072656163686564000000000000600082015250565b7f20526f79616c747920436f6c6c656374696f6e00000000000000000000000000600082015250565b7f496e76616c696420737461747573000000000000000000000000000000000000600082015250565b7f496e76616c696420617373657420666f722066756e64696e6720746f6b656e00600082015250565b7f455243313136373a20637265617465206661696c656400000000000000000000600082015250565b7f50726f706f73616c206e6f742061636365707465640000000000000000000000600082015250565b7f496e76616c696420636f7079726967687420616c6c6f636174696f6e00000000600082015250565b7f57726f6e6720636f7079726967687420616c6c6f636174696f6e000000000000600082015250565b7f46756e64696e6720646174652072656163686564000000000000000000000000600082015250565b7f46756e64696e672064617465206e6f7420726561636865640000000000000000600082015250565b7f3020746f6b656e7320746f2072657475726e0000000000000000000000000000600082015250565b7f4f6e6c79206f776e6572732063616e2075706c6f616420746865204d65646961600082015250565b7f4d656469612069642069732077726f6e67206f7220616c72656164792075706c60008201527f6f61646564000000000000000000000000000000000000000000000000000000602082015250565b7f4661696c20746f207472616e736665722066756e647300000000000000000000600082015250565b7f5f52000000000000000000000000000000000000000000000000000000000000600082015250565b615c7e81615587565b8114615c8957600080fd5b50565b615c9581615599565b8114615ca057600080fd5b50565b615cac816155a5565b8114615cb757600080fd5b50565b615cc3816155af565b8114615cce57600080fd5b50565b615cda816155dd565b8114615ce557600080fd5b50565b615cf1816155e7565b8114615cfc57600080fd5b5056fea26469706673582212200f86cd3dddd60e805ef91a163889f89a0f846774628d7f6f200233f5b2dfb3a164736f6c63430008060033",
  "immutableReferences": {
    "9394": [
      {
        "length": 32,
        "start": 12735
      },
      {
        "length": 32,
        "start": 13979
      }
    ],
    "9396": [
      {
        "length": 32,
        "start": 3889
      },
      {
        "length": 32,
        "start": 9189
      }
    ],
    "9398": [
      {
        "length": 32,
        "start": 11487
      },
      {
        "length": 32,
        "start": 11933
      },
      {
        "length": 32,
        "start": 12577
      }
    ],
    "9400": [
      {
        "length": 32,
        "start": 12137
      }
    ],
    "9402": [
      {
        "length": 32,
        "start": 11445
      }
    ]
  },
  "source": "// SPDX-License-Identifier: MIT\npragma solidity ^0.8.0;\n\nimport \"@openzeppelin/contracts/token/ERC20/ERC20.sol\";\nimport \"@openzeppelin/contracts/utils/Counters.sol\";\nimport \"./implementations/PodToken.sol\";\nimport \"./implementations/CopyrightToken.sol\";\nimport \"./implementations/CopyrightNFT.sol\";\nimport \"./implementations/ERC721Royalty/ERC721WithRoyalty.sol\";\nimport \"./implementations/DistributionManager.sol\";\nimport \"./interfaces/ISongsRouter.sol\";\nimport \"./PodWithdrawManager.sol\";\nimport \"./Governance.sol\";\nimport \"./CreationManager.sol\";\nimport \"./Structs.sol\";\n\n/**\n * @title pod contracts deployer and manager\n * @author Eric Nordelo\n */\ncontract PodManager {\n    using Counters for Counters.Counter;\n\n    bytes32 public constant FUNDING_STATE = keccak256(\"FUNDING_STATE\");\n    bytes32 public constant FUNDED_STATE = keccak256(\"FUDED\");\n    uint256 public constant PRECISION = 10**18;\n\n    address private immutable podWithdrawManagerAddress;\n    address private immutable governanceAddress;\n    address private immutable creationManager;\n    address private immutable distributionManagerImplementationAddress;\n    address private immutable copyrightNFT;\n\n    address public traxSongsRouterAddress;\n\n    mapping(address => PodInfo) private _pods;\n    mapping(address => mapping(address => uint256)) public podToTokensClaimable;\n\n    uint256 private nextProposalId = 0;\n    mapping(uint256 => PodProposal) public podProposals;\n    mapping(uint256 => mapping(address => bool)) private podProposalToAccountToVoted;\n\n    event PodProposalCreated(uint256 id);\n    event ProposalVoted(uint256 id, address voter);\n    event CreatePod(address indexed podAddress);\n    event InvestPod(address indexed investor, address indexed podAddress, uint256 amount);\n    event UploadMedia(address indexed podAddress, uint256 nftId, uint256 _mediaId);\n\n    constructor(\n        address _podWithdrawManagerAddress,\n        address _governanceAddress,\n        address _creationManager,\n        address _distributionManagerImplementationAddress,\n        address _copyrightNFT\n    ) {\n        // _setupRole(DEFAULT_ADMIN_ROLE, msg.sender);\n        // _setupRole(ADMIN, msg.sender);\n\n        podWithdrawManagerAddress = _podWithdrawManagerAddress;\n        governanceAddress = _governanceAddress;\n        creationManager = _creationManager;\n        CreationManager(_creationManager).setPodManagerAddress();\n        distributionManagerImplementationAddress = _distributionManagerImplementationAddress;\n        copyrightNFT = _copyrightNFT;\n    }\n\n    function setTraxSongsRouterAddress(address traxSongsRouterAddress_) external {\n        traxSongsRouterAddress = traxSongsRouterAddress_;\n    }\n\n    /**\n     * @param _copyrightAllocation order must match _pod.owners + last position for investors\n     */\n    function registerPodProposal(\n        Pod memory _pod,\n        uint256[] calldata _mediaIds,\n        uint16 _royaltyPercentage,\n        PodDescription calldata _podDescription,\n        uint256 _investorShare,\n        uint256[] calldata _copyrightAllocation\n    ) external {\n        require(\n            Governance(governanceAddress).assetWhitelisted(_pod.fundingToken),\n            \"Invalid asset for funding token\"\n        );\n        require(_pod.fundingTokenPrice > 0, \"Invalid Token Price\");\n        require(_pod.owners.length > 0, \"No owners\");\n        require(_mediaIds.length > 0, \"No medias\");\n        require(_copyrightAllocation.length == _pod.owners.length + 1, \"Invalid copyright allocation\");\n        uint256 copyrightAllocationSum;\n        for (uint256 i = 0; i < _copyrightAllocation.length; i += 1) {\n            copyrightAllocationSum += _copyrightAllocation[i];\n        }\n        require(copyrightAllocationSum == 100, \"Wrong copyright allocation\");\n\n        uint256 _copyrightTokenSupply = (_pod.fundingTarget /\n            _pod.fundingTokenPrice /\n            _copyrightAllocation[_copyrightAllocation.length - 1] /\n            100) * PRECISION;\n\n        podProposals[nextProposalId] = PodProposal({\n            pod: _pod,\n            start: block.timestamp,\n            votes: 1,\n            mediaIds: _mediaIds,\n            royaltyPercentage: _royaltyPercentage,\n            investorShare: _investorShare,\n            podDescription: _podDescription,\n            copyrightTokenSupply: _copyrightTokenSupply,\n            copyrightAllocation: _copyrightAllocation\n        });\n        podProposalToAccountToVoted[nextProposalId][msg.sender] = true;\n\n        emit PodProposalCreated(nextProposalId);\n        emit ProposalVoted(nextProposalId, msg.sender);\n\n        if (_pod.owners.length == 1) {\n            _executePodProposal(nextProposalId);\n        }\n\n        nextProposalId += 1;\n    }\n\n    function voteForPodProposal(uint256 id) external {\n        require(podProposals[id].start > 0, \"Proposal doesn't exist\");\n        require(\n            block.timestamp - podProposals[id].start <= Governance(governanceAddress).getPodVotingPeriod(),\n            \"Voting period ended\"\n        );\n        require(!podProposalToAccountToVoted[id][msg.sender], \"Account already voted\");\n        bool senderFoundInOwners = false;\n        for (uint256 i = 0; i < podProposals[id].pod.owners.length; i += 1) {\n            if (podProposals[id].pod.owners[i] == msg.sender) {\n                senderFoundInOwners = true;\n            }\n        }\n        require(senderFoundInOwners, \"Only owners can vote\");\n\n        podProposals[id].votes += 1;\n        podProposalToAccountToVoted[id][msg.sender] = true;\n\n        emit ProposalVoted(id, msg.sender);\n\n        if (podProposals[id].votes == podProposals[id].pod.owners.length) {\n            _executePodProposal(id);\n        }\n    }\n\n    function _executePodProposal(uint256 id) internal {\n        PodProposal memory _podProposal = podProposals[id];\n        Pod memory _pod = _podProposal.pod;\n        require(podProposals[id].votes == _pod.owners.length, \"Proposal not accepted\");\n        require(_pod.fundingDate >= block.timestamp, \"Funding date reached\");\n\n        address copyrightNFTInstance = Clones.clone(copyrightNFT);\n        address podAddress = CreationManager(creationManager).createCopyrightToken(\n            string(abi.encodePacked(_podProposal.podDescription.podTokenName, \" Copyright\")),\n            string(abi.encodePacked(_podProposal.podDescription.podTokenSymbol, \"C\")),\n            copyrightNFTInstance\n        );\n\n        CopyrightNFT(copyrightNFTInstance).initialize(\n            string(abi.encodePacked(_podProposal.podDescription.podTokenName, \" Royalty Collection\")),\n            string(abi.encodePacked(_podProposal.podDescription.podTokenSymbol, \"_R\")),\n            podAddress\n        );\n\n        address erc721WithRoyalty = CreationManager(creationManager).createErc721WithRoyalty(\n            _podProposal.podDescription.podTokenName,\n            _podProposal.podDescription.podTokenSymbol,\n            podAddress,\n            _podProposal.royaltyPercentage\n        );\n\n        address distributionManager = Clones.clone(distributionManagerImplementationAddress);\n        address stakingNFT = DistributionManager(distributionManager).initialize(\n            _pod.fundingToken,\n            podAddress,\n            _podProposal.podDescription.podTokenName,\n            _podProposal.podDescription.podTokenSymbol,\n            _podProposal.investorShare,\n            copyrightNFTInstance,\n            erc721WithRoyalty\n        );\n\n        CopyrightToken(podAddress).initialize(\n            string(abi.encodePacked(_podProposal.podDescription.podTokenName, \" Copyright\")),\n            string(abi.encodePacked(_podProposal.podDescription.podTokenSymbol, \"C\")),\n            copyrightNFTInstance,\n            stakingNFT,\n            address(this)\n        );\n        CopyrightToken(podAddress).grantRole(\n            CreationManager(creationManager).WITHDRAW_MANAGER_ROLE(),\n            podWithdrawManagerAddress\n        );\n\n        _pods[podAddress] = PodInfo({\n            status: FUNDING_STATE,\n            mediaIds: _podProposal.mediaIds,\n            registeredMediaIds: new uint256[](0),\n            raisedFunds: 0,\n            nftContract: erc721WithRoyalty,\n            pod: _pod,\n            copyrightToken: podAddress,\n            copyrightNftContract: erc721WithRoyalty,\n            copyrightSupplyInvestors: (_podProposal.copyrightTokenSupply *\n                _podProposal.copyrightAllocation[_podProposal.copyrightAllocation.length - 1]) / 100,\n            distributionManagerAddress: distributionManager,\n            copyrightAllocation: _podProposal.copyrightAllocation,\n            copyrightTokenSupply: _podProposal.copyrightTokenSupply\n        });\n\n        // save the pod owners\n        PodWithdrawManager(podWithdrawManagerAddress).savePodOwners(podAddress, _pod.owners);\n\n        emit CreatePod(podAddress);\n\n        delete podProposals[id];\n    }\n\n    /**\n     * @notice allows investors to invest on a pod\n     * @dev using check-effect-interaction pattern to avoid reentrancy\n     * @param _podAddress the address of pod\n     * @param _amount the amount to invest\n     */\n    function investPod(address _podAddress, uint256 _amount) external {\n        require(_amount > 0, \"Invalid amount\");\n\n        PodInfo memory podInfo = _pods[_podAddress];\n\n        require(podInfo.pod.fundingDate >= block.timestamp, \"Funding date not reached\");\n        require(podInfo.status == FUNDING_STATE, \"Invalid status\");\n\n        uint256 amountToInvest = podInfo.pod.fundingTarget - podInfo.raisedFunds;\n        if (_amount < amountToInvest) {\n            amountToInvest = _amount;\n        }\n\n        uint256 tokensToReturn = (amountToInvest * PRECISION) / podInfo.pod.fundingTokenPrice;\n        require(tokensToReturn > 0, \"0 tokens to return\");\n        _pods[_podAddress].raisedFunds += amountToInvest;\n        // update pod status\n        if (_pods[_podAddress].raisedFunds >= podInfo.pod.fundingTarget) {\n            _pods[_podAddress].status = FUNDED_STATE;\n            for (uint256 i = 0; i < podInfo.pod.owners.length; i++) {\n                CopyrightToken(podInfo.copyrightToken).mint(\n                    podInfo.pod.owners[i],\n                    (podInfo.copyrightAllocation[i] * podInfo.copyrightTokenSupply) / 100\n                );\n            }\n        }\n\n        // make the transfers (should have the allowance)\n        require(\n            ERC20(podInfo.pod.fundingToken).transferFrom(msg.sender, _podAddress, amountToInvest),\n            \"Fail to transfer funds\"\n        );\n\n        podToTokensClaimable[_podAddress][msg.sender] += tokensToReturn;\n\n        emit InvestPod(msg.sender, _podAddress, amountToInvest);\n    }\n\n    function claimPodTokens(address _podAddress) external {\n        PodInfo memory podInfo = getPodInfo(_podAddress);\n        require(block.timestamp >= podInfo.pod.fundingDate, \"Funding date not reached\");\n        require(podInfo.raisedFunds >= podInfo.pod.fundingTarget, \"Funding target not reached\");\n\n        CopyrightToken(podInfo.copyrightToken).mint(\n            msg.sender,\n            podToTokensClaimable[_podAddress][msg.sender]\n        );\n        delete podToTokensClaimable[_podAddress][msg.sender];\n    }\n\n    /**\n     * @notice allows media creators to upload a new media to a given pod\n     */\n    function uploadMedia(\n        address _podAddress,\n        uint256 _mediaId,\n        string calldata _uri\n    ) external {\n        PodInfo memory podInfo = getPodInfo(_podAddress);\n        require(podInfo.pod.fundingDate <= block.timestamp, \"Funding date not reached\");\n        require(podInfo.raisedFunds >= podInfo.pod.fundingTarget, \"Funding target not reached\");\n        bool isOwner = false;\n        for (uint256 i = 0; i < _pods[_podAddress].pod.owners.length; i++) {\n            if (_pods[_podAddress].pod.owners[i] == msg.sender) {\n                isOwner = true;\n            }\n        }\n        require(isOwner, \"Only owners can upload the Media\");\n        require(!isUploadedMedia(_podAddress, _mediaId), \"Media id is wrong or already uploaded\");\n\n        ERC721WithRoyalty(podInfo.nftContract).mintWithId(podInfo.distributionManagerAddress, _mediaId, _uri);\n        _pods[_podAddress].registeredMediaIds.push(_mediaId);\n\n        // // stake token in trax app\n        // ERC721WithRoyalty(podInfo.nftContract).approve(traxSongsRouterAddress, _mediaId);\n        // ISongsRouter(traxSongsRouterAddress).stake(podInfo.nftContract, _mediaId, address(this));\n\n        // emit the event if the creation was successful\n        emit UploadMedia(_podAddress, _mediaId, _mediaId);\n    }\n\n    /**\n     * @dev helper to get a pod checking if exists\n     */\n    function getPodInfo(address _podAddress) public view returns (PodInfo memory podInfo) {\n        require(_pods[_podAddress].mediaIds.length > 0, \"Unexistent pod\");\n        podInfo = _pods[_podAddress];\n    }\n\n    function isUploadedMedia(address podAddress, uint256 mediaId) public view returns (bool) {\n        for (uint256 i = 0; i < _pods[podAddress].registeredMediaIds.length; i++) {\n            if (_pods[podAddress].registeredMediaIds[i] == mediaId) {\n                return true;\n            }\n        }\n        return false;\n    }\n}\n",
  "sourcePath": "/Users/angelsatorresalmenara/Desktop/privi-pods-smart-contract/contracts/PodManager.sol",
  "compiler": {
    "name": "solc",
    "version": "0.8.6+commit.11564f7e.Emscripten.clang"
  },
  "schemaVersion": "3.4.3",
  "updatedAt": "2021-11-16T21:43:00.199Z",
  "networkType": "ethereum",
  "devdoc": {
    "author": "Eric Nordelo",
    "kind": "dev",
    "methods": {
      "getPodInfo(address)": {
        "details": "helper to get a pod checking if exists"
      },
      "investPod(address,uint256)": {
        "details": "using check-effect-interaction pattern to avoid reentrancy",
        "params": {
          "_amount": "the amount to invest",
          "_podAddress": "the address of pod"
        }
      },
      "registerPodProposal((address[],address,uint64,address,uint64,uint256),uint256[],uint16,(string,string),uint256,uint256[])": {
        "params": {
          "_copyrightAllocation": "order must match _pod.owners + last position for investors"
        }
      }
    },
    "title": "pod contracts deployer and manager",
    "version": 1
  },
  "userdoc": {
    "kind": "user",
    "methods": {
      "investPod(address,uint256)": {
        "notice": "allows investors to invest on a pod"
      },
      "uploadMedia(address,uint256,string)": {
        "notice": "allows media creators to upload a new media to a given pod"
      }
    },
    "version": 1
  }
}