{
  "contractName": "PodToken",
  "abi": [
    {
      "inputs": [],
      "stateMutability": "nonpayable",
      "type": "constructor"
    },
    {
      "anonymous": false,
      "inputs": [
        {
          "indexed": true,
          "internalType": "address",
          "name": "owner",
          "type": "address"
        },
        {
          "indexed": true,
          "internalType": "address",
          "name": "spender",
          "type": "address"
        },
        {
          "indexed": false,
          "internalType": "uint256",
          "name": "value",
          "type": "uint256"
        }
      ],
      "name": "Approval",
      "type": "event"
    },
    {
      "anonymous": false,
      "inputs": [
        {
          "indexed": false,
          "internalType": "address",
          "name": "account",
          "type": "address"
        }
      ],
      "name": "Paused",
      "type": "event"
    },
    {
      "anonymous": false,
      "inputs": [
        {
          "indexed": true,
          "internalType": "bytes32",
          "name": "role",
          "type": "bytes32"
        },
        {
          "indexed": true,
          "internalType": "bytes32",
          "name": "previousAdminRole",
          "type": "bytes32"
        },
        {
          "indexed": true,
          "internalType": "bytes32",
          "name": "newAdminRole",
          "type": "bytes32"
        }
      ],
      "name": "RoleAdminChanged",
      "type": "event"
    },
    {
      "anonymous": false,
      "inputs": [
        {
          "indexed": true,
          "internalType": "bytes32",
          "name": "role",
          "type": "bytes32"
        },
        {
          "indexed": true,
          "internalType": "address",
          "name": "account",
          "type": "address"
        },
        {
          "indexed": true,
          "internalType": "address",
          "name": "sender",
          "type": "address"
        }
      ],
      "name": "RoleGranted",
      "type": "event"
    },
    {
      "anonymous": false,
      "inputs": [
        {
          "indexed": true,
          "internalType": "bytes32",
          "name": "role",
          "type": "bytes32"
        },
        {
          "indexed": true,
          "internalType": "address",
          "name": "account",
          "type": "address"
        },
        {
          "indexed": true,
          "internalType": "address",
          "name": "sender",
          "type": "address"
        }
      ],
      "name": "RoleRevoked",
      "type": "event"
    },
    {
      "anonymous": false,
      "inputs": [
        {
          "indexed": true,
          "internalType": "address",
          "name": "from",
          "type": "address"
        },
        {
          "indexed": true,
          "internalType": "address",
          "name": "to",
          "type": "address"
        },
        {
          "indexed": false,
          "internalType": "uint256",
          "name": "value",
          "type": "uint256"
        }
      ],
      "name": "Transfer",
      "type": "event"
    },
    {
      "anonymous": false,
      "inputs": [
        {
          "indexed": false,
          "internalType": "address",
          "name": "account",
          "type": "address"
        }
      ],
      "name": "Unpaused",
      "type": "event"
    },
    {
      "inputs": [],
      "name": "DEFAULT_ADMIN_ROLE",
      "outputs": [
        {
          "internalType": "bytes32",
          "name": "",
          "type": "bytes32"
        }
      ],
      "stateMutability": "view",
      "type": "function",
      "constant": true
    },
    {
      "inputs": [],
      "name": "WITHDRAW_MANAGER_ROLE",
      "outputs": [
        {
          "internalType": "bytes32",
          "name": "",
          "type": "bytes32"
        }
      ],
      "stateMutability": "view",
      "type": "function",
      "constant": true
    },
    {
      "inputs": [
        {
          "internalType": "address",
          "name": "owner",
          "type": "address"
        },
        {
          "internalType": "address",
          "name": "spender",
          "type": "address"
        }
      ],
      "name": "allowance",
      "outputs": [
        {
          "internalType": "uint256",
          "name": "",
          "type": "uint256"
        }
      ],
      "stateMutability": "view",
      "type": "function",
      "constant": true
    },
    {
      "inputs": [
        {
          "internalType": "address",
          "name": "spender",
          "type": "address"
        },
        {
          "internalType": "uint256",
          "name": "amount",
          "type": "uint256"
        }
      ],
      "name": "approve",
      "outputs": [
        {
          "internalType": "bool",
          "name": "",
          "type": "bool"
        }
      ],
      "stateMutability": "nonpayable",
      "type": "function"
    },
    {
      "inputs": [
        {
          "internalType": "address",
          "name": "account",
          "type": "address"
        }
      ],
      "name": "balanceOf",
      "outputs": [
        {
          "internalType": "uint256",
          "name": "",
          "type": "uint256"
        }
      ],
      "stateMutability": "view",
      "type": "function",
      "constant": true
    },
    {
      "inputs": [],
      "name": "decimals",
      "outputs": [
        {
          "internalType": "uint8",
          "name": "",
          "type": "uint8"
        }
      ],
      "stateMutability": "view",
      "type": "function",
      "constant": true
    },
    {
      "inputs": [
        {
          "internalType": "address",
          "name": "spender",
          "type": "address"
        },
        {
          "internalType": "uint256",
          "name": "subtractedValue",
          "type": "uint256"
        }
      ],
      "name": "decreaseAllowance",
      "outputs": [
        {
          "internalType": "bool",
          "name": "",
          "type": "bool"
        }
      ],
      "stateMutability": "nonpayable",
      "type": "function"
    },
    {
      "inputs": [
        {
          "internalType": "bytes32",
          "name": "role",
          "type": "bytes32"
        }
      ],
      "name": "getRoleAdmin",
      "outputs": [
        {
          "internalType": "bytes32",
          "name": "",
          "type": "bytes32"
        }
      ],
      "stateMutability": "view",
      "type": "function",
      "constant": true
    },
    {
      "inputs": [
        {
          "internalType": "bytes32",
          "name": "role",
          "type": "bytes32"
        },
        {
          "internalType": "address",
          "name": "account",
          "type": "address"
        }
      ],
      "name": "grantRole",
      "outputs": [],
      "stateMutability": "nonpayable",
      "type": "function"
    },
    {
      "inputs": [
        {
          "internalType": "bytes32",
          "name": "role",
          "type": "bytes32"
        },
        {
          "internalType": "address",
          "name": "account",
          "type": "address"
        }
      ],
      "name": "hasRole",
      "outputs": [
        {
          "internalType": "bool",
          "name": "",
          "type": "bool"
        }
      ],
      "stateMutability": "view",
      "type": "function",
      "constant": true
    },
    {
      "inputs": [
        {
          "internalType": "address",
          "name": "spender",
          "type": "address"
        },
        {
          "internalType": "uint256",
          "name": "addedValue",
          "type": "uint256"
        }
      ],
      "name": "increaseAllowance",
      "outputs": [
        {
          "internalType": "bool",
          "name": "",
          "type": "bool"
        }
      ],
      "stateMutability": "nonpayable",
      "type": "function"
    },
    {
      "inputs": [],
      "name": "paused",
      "outputs": [
        {
          "internalType": "bool",
          "name": "",
          "type": "bool"
        }
      ],
      "stateMutability": "view",
      "type": "function",
      "constant": true
    },
    {
      "inputs": [
        {
          "internalType": "bytes32",
          "name": "role",
          "type": "bytes32"
        },
        {
          "internalType": "address",
          "name": "account",
          "type": "address"
        }
      ],
      "name": "renounceRole",
      "outputs": [],
      "stateMutability": "nonpayable",
      "type": "function"
    },
    {
      "inputs": [
        {
          "internalType": "bytes32",
          "name": "role",
          "type": "bytes32"
        },
        {
          "internalType": "address",
          "name": "account",
          "type": "address"
        }
      ],
      "name": "revokeRole",
      "outputs": [],
      "stateMutability": "nonpayable",
      "type": "function"
    },
    {
      "inputs": [
        {
          "internalType": "bytes4",
          "name": "interfaceId",
          "type": "bytes4"
        }
      ],
      "name": "supportsInterface",
      "outputs": [
        {
          "internalType": "bool",
          "name": "",
          "type": "bool"
        }
      ],
      "stateMutability": "view",
      "type": "function",
      "constant": true
    },
    {
      "inputs": [],
      "name": "totalSupply",
      "outputs": [
        {
          "internalType": "uint256",
          "name": "",
          "type": "uint256"
        }
      ],
      "stateMutability": "view",
      "type": "function",
      "constant": true
    },
    {
      "inputs": [
        {
          "internalType": "string",
          "name": "_name",
          "type": "string"
        },
        {
          "internalType": "string",
          "name": "_symbol",
          "type": "string"
        },
        {
          "internalType": "address",
          "name": "manager",
          "type": "address"
        }
      ],
      "name": "initialize",
      "outputs": [],
      "stateMutability": "nonpayable",
      "type": "function"
    },
    {
      "inputs": [],
      "name": "pause",
      "outputs": [],
      "stateMutability": "nonpayable",
      "type": "function"
    },
    {
      "inputs": [],
      "name": "unpause",
      "outputs": [],
      "stateMutability": "nonpayable",
      "type": "function"
    },
    {
      "inputs": [
        {
          "internalType": "address",
          "name": "to",
          "type": "address"
        },
        {
          "internalType": "uint256",
          "name": "amount",
          "type": "uint256"
        }
      ],
      "name": "mint",
      "outputs": [],
      "stateMutability": "nonpayable",
      "type": "function"
    },
    {
      "inputs": [
        {
          "internalType": "address",
          "name": "to",
          "type": "address"
        },
        {
          "internalType": "uint256",
          "name": "amount",
          "type": "uint256"
        }
      ],
      "name": "burn",
      "outputs": [],
      "stateMutability": "nonpayable",
      "type": "function"
    },
    {
      "inputs": [
        {
          "internalType": "address",
          "name": "to",
          "type": "address"
        },
        {
          "internalType": "uint256",
          "name": "amount",
          "type": "uint256"
        },
        {
          "internalType": "address",
          "name": "tokenAddress",
          "type": "address"
        }
      ],
      "name": "transferContractBalance",
      "outputs": [],
      "stateMutability": "nonpayable",
      "type": "function"
    },
    {
      "inputs": [
        {
          "internalType": "address",
          "name": "recipient",
          "type": "address"
        },
        {
          "internalType": "uint256",
          "name": "amount",
          "type": "uint256"
        }
      ],
      "name": "transfer",
      "outputs": [
        {
          "internalType": "bool",
          "name": "",
          "type": "bool"
        }
      ],
      "stateMutability": "nonpayable",
      "type": "function"
    },
    {
      "inputs": [
        {
          "internalType": "address",
          "name": "sender",
          "type": "address"
        },
        {
          "internalType": "address",
          "name": "recipient",
          "type": "address"
        },
        {
          "internalType": "uint256",
          "name": "amount",
          "type": "uint256"
        }
      ],
      "name": "transferFrom",
      "outputs": [
        {
          "internalType": "bool",
          "name": "",
          "type": "bool"
        }
      ],
      "stateMutability": "nonpayable",
      "type": "function"
    },
    {
      "inputs": [
        {
          "internalType": "address",
          "name": "investor",
          "type": "address"
        },
        {
          "internalType": "address",
          "name": "fundingToken",
          "type": "address"
        },
        {
          "internalType": "uint256",
          "name": "amount",
          "type": "uint256"
        }
      ],
      "name": "returnPodTokens",
      "outputs": [],
      "stateMutability": "nonpayable",
      "type": "function"
    },
    {
      "inputs": [],
      "name": "name",
      "outputs": [
        {
          "internalType": "string",
          "name": "",
          "type": "string"
        }
      ],
      "stateMutability": "view",
      "type": "function",
      "constant": true
    },
    {
      "inputs": [],
      "name": "symbol",
      "outputs": [
        {
          "internalType": "string",
          "name": "",
          "type": "string"
        }
      ],
      "stateMutability": "view",
      "type": "function",
      "constant": true
    }
  ],
  "bytecode": "0x60806040523480156200001157600080fd5b506040518060400160405280601e81526020017f507269766920506f6420546f6b656e20496d706c656d656e746174696f6e00008152506040518060400160405280600581526020017f70504f4454000000000000000000000000000000000000000000000000000000815250816003908051906020019062000096929190620000d3565b508060049080519060200190620000af929190620000d3565b5050506000600560006101000a81548160ff021916908315150217905550620001e8565b828054620000e19062000183565b90600052602060002090601f01602090048101928262000105576000855562000151565b82601f106200012057805160ff191683800117855562000151565b8280016001018555821562000151579182015b828111156200015057825182559160200191906001019062000133565b5b50905062000160919062000164565b5090565b5b808211156200017f57600081600090555060010162000165565b5090565b600060028204905060018216806200019c57607f821691505b60208210811415620001b357620001b2620001b9565b5b50919050565b7f4e487b7100000000000000000000000000000000000000000000000000000000600052602260045260246000fd5b61329980620001f86000396000f3fe608060405234801561001057600080fd5b50600436106101a95760003560e01c806340c10f19116100f9578063a217fddf11610097578063cfc82dab11610071578063cfc82dab146104ce578063d547741f146104ea578063dd62ed3e14610506578063e1b0861914610536576101a9565b8063a217fddf14610450578063a457c2d71461046e578063a9059cbb1461049e576101a9565b80638456cb59116100d35780638456cb59146103dc57806391d14854146103e657806395d89b41146104165780639dc29fac14610434576101a9565b806340c10f19146103725780635c975abb1461038e57806370a08231146103ac576101a9565b806323b872dd11610166578063313ce56711610140578063313ce567146102fe57806336568abe1461031c57806339509351146103385780633f4ba83a14610368576101a9565b806323b872dd14610282578063248a9ca3146102b25780632f2ff15d146102e2576101a9565b806301ffc9a7146101ae57806306fdde03146101de578063077f224a146101fc578063095ea7b31461021857806318160ddd1461024857806319da806214610266575b600080fd5b6101c860048036038101906101c391906122cf565b610554565b6040516101d5919061278a565b60405180910390f35b6101e66105ce565b6040516101f391906127c0565b60405180910390f35b610216600480360381019061021191906122fc565b610660565b005b610232600480360381019061022d91906121a2565b610781565b60405161023f919061278a565b60405180910390f35b61025061079f565b60405161025d9190612a02565b60405180910390f35b610280600480360381019061027b919061214f565b6107a9565b005b61029c6004803603810190610297919061214f565b6108ad565b6040516102a9919061278a565b60405180910390f35b6102cc60048036038101906102c79190612262565b61090b565b6040516102d991906127a5565b60405180910390f35b6102fc60048036038101906102f7919061228f565b61092b565b005b610306610954565b6040516103139190612a1d565b60405180910390f35b6103366004803603810190610331919061228f565b61095d565b005b610352600480360381019061034d91906121a2565b6109e0565b60405161035f919061278a565b60405180910390f35b610370610a8c565b005b61038c600480360381019061038791906121a2565b610aac565b005b610396610ad0565b6040516103a3919061278a565b60405180910390f35b6103c660048036038101906103c191906120e2565b610ae7565b6040516103d39190612a02565b60405180910390f35b6103e4610b2f565b005b61040060048036038101906103fb919061228f565b610b4f565b60405161040d919061278a565b60405180910390f35b61041e610bba565b60405161042b91906127c0565b60405180910390f35b61044e600480360381019061044991906121a2565b610c4c565b005b610458610c70565b60405161046591906127a5565b60405180910390f35b610488600480360381019061048391906121a2565b610c77565b604051610495919061278a565b60405180910390f35b6104b860048036038101906104b391906121a2565b610d62565b6040516104c5919061278a565b60405180910390f35b6104e860048036038101906104e391906121e2565b610dbe565b005b61050460048036038101906104ff919061228f565b610f93565b005b610520600480360381019061051b919061210f565b610fbc565b60405161052d9190612a02565b60405180910390f35b61053e611043565b60405161054b91906127a5565b60405180910390f35b60007f7965db0b000000000000000000000000000000000000000000000000000000007bffffffffffffffffffffffffffffffffffffffffffffffffffffffff1916827bffffffffffffffffffffffffffffffffffffffffffffffffffffffff191614806105c757506105c682611067565b5b9050919050565b6060600880546105dd90612c2b565b80601f016020809104026020016040519081016040528092919081815260200182805461060990612c2b565b80156106565780601f1061062b57610100808354040283529160200191610656565b820191906000526020600020905b81548152906001019060200180831161063957829003601f168201915b5050505050905090565b600760019054906101000a900460ff16806106885750600760009054906101000a900460ff16155b6106c7576040517f08c379a00000000000000000000000000000000000000000000000000000000081526004016106be906128e2565b60405180910390fd5b6000600760019054906101000a900460ff161590508015610719576001600760016101000a81548160ff0219169083151502179055506001600760006101000a81548160ff0219169083151502179055505b85856008919061072a929190611f6b565b5083836009919061073c929190611f6b565b5061074a6000801b336110d1565b6107576000801b836110d1565b8015610779576000600760016101000a81548160ff0219169083151502179055505b505050505050565b600061079561078e6110df565b84846110e7565b6001905092915050565b6000600254905090565b7fbe4b8ff2378fafab5b779323935cef89cecb6bffd2e15c86526a218902195a356107db816107d66110df565b6112b2565b8273ffffffffffffffffffffffffffffffffffffffff1663a9059cbb85846040518363ffffffff1660e01b8152600401610816929190612761565b602060405180830381600087803b15801561083057600080fd5b505af1158015610844573d6000803e3d6000fd5b505050506040513d601f19601f820116820180604052508101906108689190612235565b6108a7576040517f08c379a000000000000000000000000000000000000000000000000000000000815260040161089e906128a2565b60405180910390fd5b50505050565b60006108b7610ad0565b156108f7576040517f08c379a00000000000000000000000000000000000000000000000000000000081526004016108ee906128c2565b60405180910390fd5b61090284848461134f565b90509392505050565b600060066000838152602001908152602001600020600101549050919050565b6109348261090b565b610945816109406110df565b6112b2565b61094f8383611447565b505050565b60006012905090565b6109656110df565b73ffffffffffffffffffffffffffffffffffffffff168173ffffffffffffffffffffffffffffffffffffffff16146109d2576040517f08c379a00000000000000000000000000000000000000000000000000000000081526004016109c9906129c2565b60405180910390fd5b6109dc8282611528565b5050565b6000610a826109ed6110df565b8484600160006109fb6110df565b73ffffffffffffffffffffffffffffffffffffffff1673ffffffffffffffffffffffffffffffffffffffff16815260200190815260200160002060008873ffffffffffffffffffffffffffffffffffffffff1673ffffffffffffffffffffffffffffffffffffffff16815260200190815260200160002054610a7d9190612a5f565b6110e7565b6001905092915050565b6000801b610aa181610a9c6110df565b6112b2565b610aa961160a565b50565b6000801b610ac181610abc6110df565b6112b2565b610acb83836116ac565b505050565b6000600560009054906101000a900460ff16905090565b60008060008373ffffffffffffffffffffffffffffffffffffffff1673ffffffffffffffffffffffffffffffffffffffff168152602001908152602001600020549050919050565b6000801b610b4481610b3f6110df565b6112b2565b610b4c61180c565b50565b60006006600084815260200190815260200160002060000160008373ffffffffffffffffffffffffffffffffffffffff1673ffffffffffffffffffffffffffffffffffffffff16815260200190815260200160002060009054906101000a900460ff16905092915050565b606060098054610bc990612c2b565b80601f0160208091040260200160405190810160405280929190818152602001828054610bf590612c2b565b8015610c425780601f10610c1757610100808354040283529160200191610c42565b820191906000526020600020905b815481529060010190602001808311610c2557829003601f168201915b5050505050905090565b6000801b610c6181610c5c6110df565b6112b2565b610c6b83836118af565b505050565b6000801b81565b60008060016000610c866110df565b73ffffffffffffffffffffffffffffffffffffffff1673ffffffffffffffffffffffffffffffffffffffff16815260200190815260200160002060008573ffffffffffffffffffffffffffffffffffffffff1673ffffffffffffffffffffffffffffffffffffffff16815260200190815260200160002054905082811015610d43576040517f08c379a0000000000000000000000000000000000000000000000000000000008152600401610d3a906129a2565b60405180910390fd5b610d57610d4e6110df565b858584036110e7565b600191505092915050565b6000610d6c610ad0565b15610dac576040517f08c379a0000000000000000000000000000000000000000000000000000000008152600401610da3906128c2565b60405180910390fd5b610db68383611a86565b905092915050565b7fbe4b8ff2378fafab5b779323935cef89cecb6bffd2e15c86526a218902195a35610df081610deb6110df565b6112b2565b60008273ffffffffffffffffffffffffffffffffffffffff166370a08231306040518263ffffffff1660e01b8152600401610e2b9190612746565b60206040518083038186803b158015610e4357600080fd5b505afa158015610e57573d6000803e3d6000fd5b505050506040513d601f19601f82011682018060405250810190610e7b9190612391565b905083811015610ec0576040517f08c379a0000000000000000000000000000000000000000000000000000000008152600401610eb790612982565b60405180910390fd5b8273ffffffffffffffffffffffffffffffffffffffff1663a9059cbb86866040518363ffffffff1660e01b8152600401610efb929190612761565b602060405180830381600087803b158015610f1557600080fd5b505af1158015610f29573d6000803e3d6000fd5b505050506040513d601f19601f82011682018060405250810190610f4d9190612235565b610f8c576040517f08c379a0000000000000000000000000000000000000000000000000000000008152600401610f83906128a2565b60405180910390fd5b5050505050565b610f9c8261090b565b610fad81610fa86110df565b6112b2565b610fb78383611528565b505050565b6000600160008473ffffffffffffffffffffffffffffffffffffffff1673ffffffffffffffffffffffffffffffffffffffff16815260200190815260200160002060008373ffffffffffffffffffffffffffffffffffffffff1673ffffffffffffffffffffffffffffffffffffffff16815260200190815260200160002054905092915050565b7fbe4b8ff2378fafab5b779323935cef89cecb6bffd2e15c86526a218902195a3581565b60007f01ffc9a7000000000000000000000000000000000000000000000000000000007bffffffffffffffffffffffffffffffffffffffffffffffffffffffff1916827bffffffffffffffffffffffffffffffffffffffffffffffffffffffff1916149050919050565b6110db8282611447565b5050565b600033905090565b600073ffffffffffffffffffffffffffffffffffffffff168373ffffffffffffffffffffffffffffffffffffffff161415611157576040517f08c379a000000000000000000000000000000000000000000000000000000000815260040161114e90612962565b60405180910390fd5b600073ffffffffffffffffffffffffffffffffffffffff168273ffffffffffffffffffffffffffffffffffffffff1614156111c7576040517f08c379a00000000000000000000000000000000000000000000000000000000081526004016111be90612862565b60405180910390fd5b80600160008573ffffffffffffffffffffffffffffffffffffffff1673ffffffffffffffffffffffffffffffffffffffff16815260200190815260200160002060008473ffffffffffffffffffffffffffffffffffffffff1673ffffffffffffffffffffffffffffffffffffffff168152602001908152602001600020819055508173ffffffffffffffffffffffffffffffffffffffff168373ffffffffffffffffffffffffffffffffffffffff167f8c5be1e5ebec7d5bd14f71427d1e84f3dd0314c0f7b2291e5b200ac8c7c3b925836040516112a59190612a02565b60405180910390a3505050565b6112bc8282610b4f565b61134b576112e18173ffffffffffffffffffffffffffffffffffffffff166014611aa4565b6112ef8360001c6020611aa4565b60405160200161130092919061270c565b6040516020818303038152906040526040517f08c379a000000000000000000000000000000000000000000000000000000000815260040161134291906127c0565b60405180910390fd5b5050565b600061135c848484611ce0565b6000600160008673ffffffffffffffffffffffffffffffffffffffff1673ffffffffffffffffffffffffffffffffffffffff16815260200190815260200160002060006113a76110df565b73ffffffffffffffffffffffffffffffffffffffff1673ffffffffffffffffffffffffffffffffffffffff16815260200190815260200160002054905082811015611427576040517f08c379a000000000000000000000000000000000000000000000000000000000815260040161141e90612902565b60405180910390fd5b61143b856114336110df565b8584036110e7565b60019150509392505050565b6114518282610b4f565b6115245760016006600084815260200190815260200160002060000160008373ffffffffffffffffffffffffffffffffffffffff1673ffffffffffffffffffffffffffffffffffffffff16815260200190815260200160002060006101000a81548160ff0219169083151502179055506114c96110df565b73ffffffffffffffffffffffffffffffffffffffff168173ffffffffffffffffffffffffffffffffffffffff16837f2f8788117e7eff1d82e926ec794901d17c78024a50270940304540a733656f0d60405160405180910390a45b5050565b6115328282610b4f565b156116065760006006600084815260200190815260200160002060000160008373ffffffffffffffffffffffffffffffffffffffff1673ffffffffffffffffffffffffffffffffffffffff16815260200190815260200160002060006101000a81548160ff0219169083151502179055506115ab6110df565b73ffffffffffffffffffffffffffffffffffffffff168173ffffffffffffffffffffffffffffffffffffffff16837ff6391f5c32d9c69d2a47ea670b442974b53935d1edc7fd64eb21e047a839171b60405160405180910390a45b5050565b611612610ad0565b611651576040517f08c379a000000000000000000000000000000000000000000000000000000000815260040161164890612822565b60405180910390fd5b6000600560006101000a81548160ff0219169083151502179055507f5db9ee0a495bf2e6ff9c91a7834c1ba4fdd244a5e8aa4e537bd38aeae4b073aa6116956110df565b6040516116a29190612746565b60405180910390a1565b600073ffffffffffffffffffffffffffffffffffffffff168273ffffffffffffffffffffffffffffffffffffffff16141561171c576040517f08c379a0000000000000000000000000000000000000000000000000000000008152600401611713906129e2565b60405180910390fd5b61172860008383611f61565b806002600082825461173a9190612a5f565b92505081905550806000808473ffffffffffffffffffffffffffffffffffffffff1673ffffffffffffffffffffffffffffffffffffffff168152602001908152602001600020600082825461178f9190612a5f565b925050819055508173ffffffffffffffffffffffffffffffffffffffff16600073ffffffffffffffffffffffffffffffffffffffff167fddf252ad1be2c89b69c2b068fc378daa952ba7f163c4a11628f55a4df523b3ef836040516117f49190612a02565b60405180910390a361180860008383611f66565b5050565b611814610ad0565b15611854576040517f08c379a000000000000000000000000000000000000000000000000000000000815260040161184b906128c2565b60405180910390fd5b6001600560006101000a81548160ff0219169083151502179055507f62e78cea01bee320cd4e420270b5ea74000d11b0c9f74754ebdbfc544b05a2586118986110df565b6040516118a59190612746565b60405180910390a1565b600073ffffffffffffffffffffffffffffffffffffffff168273ffffffffffffffffffffffffffffffffffffffff16141561191f576040517f08c379a000000000000000000000000000000000000000000000000000000000815260040161191690612922565b60405180910390fd5b61192b82600083611f61565b60008060008473ffffffffffffffffffffffffffffffffffffffff1673ffffffffffffffffffffffffffffffffffffffff168152602001908152602001600020549050818110156119b1576040517f08c379a00000000000000000000000000000000000000000000000000000000081526004016119a890612842565b60405180910390fd5b8181036000808573ffffffffffffffffffffffffffffffffffffffff1673ffffffffffffffffffffffffffffffffffffffff168152602001908152602001600020819055508160026000828254611a089190612b0f565b92505081905550600073ffffffffffffffffffffffffffffffffffffffff168373ffffffffffffffffffffffffffffffffffffffff167fddf252ad1be2c89b69c2b068fc378daa952ba7f163c4a11628f55a4df523b3ef84604051611a6d9190612a02565b60405180910390a3611a8183600084611f66565b505050565b6000611a9a611a936110df565b8484611ce0565b6001905092915050565b606060006002836002611ab79190612ab5565b611ac19190612a5f565b67ffffffffffffffff811115611ada57611ad9612cea565b5b6040519080825280601f01601f191660200182016040528015611b0c5781602001600182028036833780820191505090505b5090507f300000000000000000000000000000000000000000000000000000000000000081600081518110611b4457611b43612cbb565b5b60200101907effffffffffffffffffffffffffffffffffffffffffffffffffffffffffffff1916908160001a9053507f780000000000000000000000000000000000000000000000000000000000000081600181518110611ba857611ba7612cbb565b5b60200101907effffffffffffffffffffffffffffffffffffffffffffffffffffffffffffff1916908160001a90535060006001846002611be89190612ab5565b611bf29190612a5f565b90505b6001811115611c92577f3031323334353637383961626364656600000000000000000000000000000000600f861660108110611c3457611c33612cbb565b5b1a60f81b828281518110611c4b57611c4a612cbb565b5b60200101907effffffffffffffffffffffffffffffffffffffffffffffffffffffffffffff1916908160001a905350600485901c945080611c8b90612c01565b9050611bf5565b5060008414611cd6576040517f08c379a0000000000000000000000000000000000000000000000000000000008152600401611ccd906127e2565b60405180910390fd5b8091505092915050565b600073ffffffffffffffffffffffffffffffffffffffff168373ffffffffffffffffffffffffffffffffffffffff161415611d50576040517f08c379a0000000000000000000000000000000000000000000000000000000008152600401611d4790612942565b60405180910390fd5b600073ffffffffffffffffffffffffffffffffffffffff168273ffffffffffffffffffffffffffffffffffffffff161415611dc0576040517f08c379a0000000000000000000000000000000000000000000000000000000008152600401611db790612802565b60405180910390fd5b611dcb838383611f61565b60008060008573ffffffffffffffffffffffffffffffffffffffff1673ffffffffffffffffffffffffffffffffffffffff16815260200190815260200160002054905081811015611e51576040517f08c379a0000000000000000000000000000000000000000000000000000000008152600401611e4890612882565b60405180910390fd5b8181036000808673ffffffffffffffffffffffffffffffffffffffff1673ffffffffffffffffffffffffffffffffffffffff16815260200190815260200160002081905550816000808573ffffffffffffffffffffffffffffffffffffffff1673ffffffffffffffffffffffffffffffffffffffff1681526020019081526020016000206000828254611ee49190612a5f565b925050819055508273ffffffffffffffffffffffffffffffffffffffff168473ffffffffffffffffffffffffffffffffffffffff167fddf252ad1be2c89b69c2b068fc378daa952ba7f163c4a11628f55a4df523b3ef84604051611f489190612a02565b60405180910390a3611f5b848484611f66565b50505050565b505050565b505050565b828054611f7790612c2b565b90600052602060002090601f016020900481019282611f995760008555611fe0565b82601f10611fb257803560ff1916838001178555611fe0565b82800160010185558215611fe0579182015b82811115611fdf578235825591602001919060010190611fc4565b5b509050611fed9190611ff1565b5090565b5b8082111561200a576000816000905550600101611ff2565b5090565b60008135905061201d816131f0565b92915050565b60008151905061203281613207565b92915050565b6000813590506120478161321e565b92915050565b60008135905061205c81613235565b92915050565b60008083601f84011261207857612077612d1e565b5b8235905067ffffffffffffffff81111561209557612094612d19565b5b6020830191508360018202830111156120b1576120b0612d23565b5b9250929050565b6000813590506120c78161324c565b92915050565b6000815190506120dc8161324c565b92915050565b6000602082840312156120f8576120f7612d2d565b5b60006121068482850161200e565b91505092915050565b6000806040838503121561212657612125612d2d565b5b60006121348582860161200e565b92505060206121458582860161200e565b9150509250929050565b60008060006060848603121561216857612167612d2d565b5b60006121768682870161200e565b93505060206121878682870161200e565b9250506040612198868287016120b8565b9150509250925092565b600080604083850312156121b9576121b8612d2d565b5b60006121c78582860161200e565b92505060206121d8858286016120b8565b9150509250929050565b6000806000606084860312156121fb576121fa612d2d565b5b60006122098682870161200e565b935050602061221a868287016120b8565b925050604061222b8682870161200e565b9150509250925092565b60006020828403121561224b5761224a612d2d565b5b600061225984828501612023565b91505092915050565b60006020828403121561227857612277612d2d565b5b600061228684828501612038565b91505092915050565b600080604083850312156122a6576122a5612d2d565b5b60006122b485828601612038565b92505060206122c58582860161200e565b9150509250929050565b6000602082840312156122e5576122e4612d2d565b5b60006122f38482850161204d565b91505092915050565b60008060008060006060868803121561231857612317612d2d565b5b600086013567ffffffffffffffff81111561233657612335612d28565b5b61234288828901612062565b9550955050602086013567ffffffffffffffff81111561236557612364612d28565b5b61237188828901612062565b935093505060406123848882890161200e565b9150509295509295909350565b6000602082840312156123a7576123a6612d2d565b5b60006123b5848285016120cd565b91505092915050565b6123c781612b43565b82525050565b6123d681612b55565b82525050565b6123e581612b61565b82525050565b60006123f682612a38565b6124008185612a43565b9350612410818560208601612bce565b61241981612d32565b840191505092915050565b600061242f82612a38565b6124398185612a54565b9350612449818560208601612bce565b80840191505092915050565b6000612462602083612a43565b915061246d82612d43565b602082019050919050565b6000612485602383612a43565b915061249082612d6c565b604082019050919050565b60006124a8601483612a43565b91506124b382612dbb565b602082019050919050565b60006124cb602283612a43565b91506124d682612de4565b604082019050919050565b60006124ee602283612a43565b91506124f982612e33565b604082019050919050565b6000612511602683612a43565b915061251c82612e82565b604082019050919050565b6000612534601083612a43565b915061253f82612ed1565b602082019050919050565b6000612557601083612a43565b915061256282612efa565b602082019050919050565b600061257a602e83612a43565b915061258582612f23565b604082019050919050565b600061259d602883612a43565b91506125a882612f72565b604082019050919050565b60006125c0602183612a43565b91506125cb82612fc1565b604082019050919050565b60006125e3602583612a43565b91506125ee82613010565b604082019050919050565b6000612606602483612a43565b91506126118261305f565b604082019050919050565b6000612629601183612a43565b9150612634826130ae565b602082019050919050565b600061264c601783612a54565b9150612657826130d7565b601782019050919050565b600061266f602583612a43565b915061267a82613100565b604082019050919050565b6000612692601183612a54565b915061269d8261314f565b601182019050919050565b60006126b5602f83612a43565b91506126c082613178565b604082019050919050565b60006126d8601f83612a43565b91506126e3826131c7565b602082019050919050565b6126f781612bb7565b82525050565b61270681612bc1565b82525050565b60006127178261263f565b91506127238285612424565b915061272e82612685565b915061273a8284612424565b91508190509392505050565b600060208201905061275b60008301846123be565b92915050565b600060408201905061277660008301856123be565b61278360208301846126ee565b9392505050565b600060208201905061279f60008301846123cd565b92915050565b60006020820190506127ba60008301846123dc565b92915050565b600060208201905081810360008301526127da81846123eb565b905092915050565b600060208201905081810360008301526127fb81612455565b9050919050565b6000602082019050818103600083015261281b81612478565b9050919050565b6000602082019050818103600083015261283b8161249b565b9050919050565b6000602082019050818103600083015261285b816124be565b9050919050565b6000602082019050818103600083015261287b816124e1565b9050919050565b6000602082019050818103600083015261289b81612504565b9050919050565b600060208201905081810360008301526128bb81612527565b9050919050565b600060208201905081810360008301526128db8161254a565b9050919050565b600060208201905081810360008301526128fb8161256d565b9050919050565b6000602082019050818103600083015261291b81612590565b9050919050565b6000602082019050818103600083015261293b816125b3565b9050919050565b6000602082019050818103600083015261295b816125d6565b9050919050565b6000602082019050818103600083015261297b816125f9565b9050919050565b6000602082019050818103600083015261299b8161261c565b9050919050565b600060208201905081810360008301526129bb81612662565b9050919050565b600060208201905081810360008301526129db816126a8565b9050919050565b600060208201905081810360008301526129fb816126cb565b9050919050565b6000602082019050612a1760008301846126ee565b92915050565b6000602082019050612a3260008301846126fd565b92915050565b600081519050919050565b600082825260208201905092915050565b600081905092915050565b6000612a6a82612bb7565b9150612a7583612bb7565b9250827fffffffffffffffffffffffffffffffffffffffffffffffffffffffffffffffff03821115612aaa57612aa9612c5d565b5b828201905092915050565b6000612ac082612bb7565b9150612acb83612bb7565b9250817fffffffffffffffffffffffffffffffffffffffffffffffffffffffffffffffff0483118215151615612b0457612b03612c5d565b5b828202905092915050565b6000612b1a82612bb7565b9150612b2583612bb7565b925082821015612b3857612b37612c5d565b5b828203905092915050565b6000612b4e82612b97565b9050919050565b60008115159050919050565b6000819050919050565b60007fffffffff0000000000000000000000000000000000000000000000000000000082169050919050565b600073ffffffffffffffffffffffffffffffffffffffff82169050919050565b6000819050919050565b600060ff82169050919050565b60005b83811015612bec578082015181840152602081019050612bd1565b83811115612bfb576000848401525b50505050565b6000612c0c82612bb7565b91506000821415612c2057612c1f612c5d565b5b600182039050919050565b60006002820490506001821680612c4357607f821691505b60208210811415612c5757612c56612c8c565b5b50919050565b7f4e487b7100000000000000000000000000000000000000000000000000000000600052601160045260246000fd5b7f4e487b7100000000000000000000000000000000000000000000000000000000600052602260045260246000fd5b7f4e487b7100000000000000000000000000000000000000000000000000000000600052603260045260246000fd5b7f4e487b7100000000000000000000000000000000000000000000000000000000600052604160045260246000fd5b600080fd5b600080fd5b600080fd5b600080fd5b600080fd5b6000601f19601f8301169050919050565b7f537472696e67733a20686578206c656e67746820696e73756666696369656e74600082015250565b7f45524332303a207472616e7366657220746f20746865207a65726f206164647260008201527f6573730000000000000000000000000000000000000000000000000000000000602082015250565b7f5061757361626c653a206e6f7420706175736564000000000000000000000000600082015250565b7f45524332303a206275726e20616d6f756e7420657863656564732062616c616e60008201527f6365000000000000000000000000000000000000000000000000000000000000602082015250565b7f45524332303a20617070726f766520746f20746865207a65726f20616464726560008201527f7373000000000000000000000000000000000000000000000000000000000000602082015250565b7f45524332303a207472616e7366657220616d6f756e742065786365656473206260008201527f616c616e63650000000000000000000000000000000000000000000000000000602082015250565b7f4661696c20746f207472616e7366657200000000000000000000000000000000600082015250565b7f5061757361626c653a2070617573656400000000000000000000000000000000600082015250565b7f496e697469616c697a61626c653a20636f6e747261637420697320616c72656160008201527f647920696e697469616c697a6564000000000000000000000000000000000000602082015250565b7f45524332303a207472616e7366657220616d6f756e742065786365656473206160008201527f6c6c6f77616e6365000000000000000000000000000000000000000000000000602082015250565b7f45524332303a206275726e2066726f6d20746865207a65726f2061646472657360008201527f7300000000000000000000000000000000000000000000000000000000000000602082015250565b7f45524332303a207472616e736665722066726f6d20746865207a65726f20616460008201527f6472657373000000000000000000000000000000000000000000000000000000602082015250565b7f45524332303a20617070726f76652066726f6d20746865207a65726f2061646460008201527f7265737300000000000000000000000000000000000000000000000000000000602082015250565b7f496e737566696369656e742066756e6473000000000000000000000000000000600082015250565b7f416363657373436f6e74726f6c3a206163636f756e7420000000000000000000600082015250565b7f45524332303a2064656372656173656420616c6c6f77616e63652062656c6f7760008201527f207a65726f000000000000000000000000000000000000000000000000000000602082015250565b7f206973206d697373696e6720726f6c6520000000000000000000000000000000600082015250565b7f416363657373436f6e74726f6c3a2063616e206f6e6c792072656e6f756e636560008201527f20726f6c657320666f722073656c660000000000000000000000000000000000602082015250565b7f45524332303a206d696e7420746f20746865207a65726f206164647265737300600082015250565b6131f981612b43565b811461320457600080fd5b50565b61321081612b55565b811461321b57600080fd5b50565b61322781612b61565b811461323257600080fd5b50565b61323e81612b6b565b811461324957600080fd5b50565b61325581612bb7565b811461326057600080fd5b5056fea26469706673582212207d48faddb5237d5b288cff614a4addee5cbc286821d633799d09b20a333a3bca64736f6c63430008060033",
  "immutableReferences": {},
  "source": "// SPDX-License-Identifier: MIT\npragma solidity ^0.8.0;\n\nimport \"@openzeppelin/contracts/token/ERC20/ERC20.sol\";\nimport \"@openzeppelin/contracts/security/Pausable.sol\";\nimport \"@openzeppelin/contracts/access/AccessControl.sol\";\nimport \"@openzeppelin/contracts/proxy/utils/Initializable.sol\";\n\n/**\n * @title the implementation to clone on each pod creation\n * @author Eric Nordelo\n */\ncontract PodToken is ERC20, Pausable, AccessControl, Initializable {\n    bytes32 public constant WITHDRAW_MANAGER_ROLE = keccak256(\"WITHDRAW_MANAGER_ROLE\");\n    uint256 private constant PRICE_PRECISION = 10**18;\n\n    string private _proxiedName;\n    string private _proxiedSymbol;\n\n    // solhint-disable-next-line\n    constructor() ERC20(\"Privi Pod Token Implementation\", \"pPODT\") {}\n\n    /**\n     * @notice ensures that the pod token contract begins paused and with the default admin\n     */\n    function initialize(\n        string calldata _name,\n        string calldata _symbol,\n        address manager\n    ) external initializer {\n        _proxiedName = _name;\n        _proxiedSymbol = _symbol;\n\n        // _pause();\n        _setupRole(DEFAULT_ADMIN_ROLE, msg.sender);\n        _setupRole(DEFAULT_ADMIN_ROLE, manager);\n    }\n\n    function pause() public onlyRole(DEFAULT_ADMIN_ROLE) {\n        _pause();\n    }\n\n    function unpause() public onlyRole(DEFAULT_ADMIN_ROLE) {\n        _unpause();\n    }\n\n    function mint(address to, uint256 amount) public onlyRole(DEFAULT_ADMIN_ROLE) {\n        _mint(to, amount);\n    }\n\n    function burn(address to, uint256 amount) public onlyRole(DEFAULT_ADMIN_ROLE) {\n        _burn(to, amount);\n    }\n\n    function transferContractBalance(\n        address to,\n        uint256 amount,\n        address tokenAddress\n    ) external onlyRole(WITHDRAW_MANAGER_ROLE) {\n        uint256 balance = ERC20(tokenAddress).balanceOf(address(this));\n        require(balance >= amount, \"Insuficient funds\");\n\n        require(ERC20(tokenAddress).transfer(to, amount), \"Fail to transfer\");\n    }\n\n    /**\n     * @dev ensures that only minting is allowed when paused\n     */\n    function transfer(address recipient, uint256 amount) public override whenNotPaused returns (bool) {\n        return super.transfer(recipient, amount);\n    }\n\n    /**\n     * @dev ensures that only minting is allowed when paused\n     */\n    function transferFrom(\n        address sender,\n        address recipient,\n        uint256 amount\n    ) public override whenNotPaused returns (bool) {\n        return super.transferFrom(sender, recipient, amount);\n    }\n\n    /**\n     * @notice allows the return of funds after a pod disposal\n     */\n    function returnPodTokens(\n        address investor,\n        address fundingToken,\n        uint256 amount\n    ) external onlyRole(WITHDRAW_MANAGER_ROLE) {\n        require(ERC20(fundingToken).transfer(investor, amount), \"Fail to transfer\");\n    }\n\n    function name() public view virtual override returns (string memory) {\n        return _proxiedName;\n    }\n\n    function symbol() public view virtual override returns (string memory) {\n        return _proxiedSymbol;\n    }\n}\n",
  "sourcePath": "/Users/angelsatorresalmenara/Desktop/privi-pods-smart-contract/contracts/implementations/PodToken.sol",
  "compiler": {
    "name": "solc",
    "version": "0.8.6+commit.11564f7e.Emscripten.clang"
  },
  "schemaVersion": "3.4.3",
  "updatedAt": "2021-10-08T21:06:04.972Z",
  "networkType": "ethereum",
  "devdoc": {
    "author": "Eric Nordelo",
    "kind": "dev",
    "methods": {
      "allowance(address,address)": {
        "details": "See {IERC20-allowance}."
      },
      "approve(address,uint256)": {
        "details": "See {IERC20-approve}. Requirements: - `spender` cannot be the zero address."
      },
      "balanceOf(address)": {
        "details": "See {IERC20-balanceOf}."
      },
      "decimals()": {
        "details": "Returns the number of decimals used to get its user representation. For example, if `decimals` equals `2`, a balance of `505` tokens should be displayed to a user as `5.05` (`505 / 10 ** 2`). Tokens usually opt for a value of 18, imitating the relationship between Ether and Wei. This is the value {ERC20} uses, unless this function is overridden; NOTE: This information is only used for _display_ purposes: it in no way affects any of the arithmetic of the contract, including {IERC20-balanceOf} and {IERC20-transfer}."
      },
      "decreaseAllowance(address,uint256)": {
        "details": "Atomically decreases the allowance granted to `spender` by the caller. This is an alternative to {approve} that can be used as a mitigation for problems described in {IERC20-approve}. Emits an {Approval} event indicating the updated allowance. Requirements: - `spender` cannot be the zero address. - `spender` must have allowance for the caller of at least `subtractedValue`."
      },
      "getRoleAdmin(bytes32)": {
        "details": "Returns the admin role that controls `role`. See {grantRole} and {revokeRole}. To change a role's admin, use {_setRoleAdmin}."
      },
      "grantRole(bytes32,address)": {
        "details": "Grants `role` to `account`. If `account` had not been already granted `role`, emits a {RoleGranted} event. Requirements: - the caller must have ``role``'s admin role."
      },
      "hasRole(bytes32,address)": {
        "details": "Returns `true` if `account` has been granted `role`."
      },
      "increaseAllowance(address,uint256)": {
        "details": "Atomically increases the allowance granted to `spender` by the caller. This is an alternative to {approve} that can be used as a mitigation for problems described in {IERC20-approve}. Emits an {Approval} event indicating the updated allowance. Requirements: - `spender` cannot be the zero address."
      },
      "name()": {
        "details": "Returns the name of the token."
      },
      "paused()": {
        "details": "Returns true if the contract is paused, and false otherwise."
      },
      "renounceRole(bytes32,address)": {
        "details": "Revokes `role` from the calling account. Roles are often managed via {grantRole} and {revokeRole}: this function's purpose is to provide a mechanism for accounts to lose their privileges if they are compromised (such as when a trusted device is misplaced). If the calling account had been granted `role`, emits a {RoleRevoked} event. Requirements: - the caller must be `account`."
      },
      "revokeRole(bytes32,address)": {
        "details": "Revokes `role` from `account`. If `account` had been granted `role`, emits a {RoleRevoked} event. Requirements: - the caller must have ``role``'s admin role."
      },
      "supportsInterface(bytes4)": {
        "details": "See {IERC165-supportsInterface}."
      },
      "symbol()": {
        "details": "Returns the symbol of the token, usually a shorter version of the name."
      },
      "totalSupply()": {
        "details": "See {IERC20-totalSupply}."
      },
      "transfer(address,uint256)": {
        "details": "ensures that only minting is allowed when paused"
      },
      "transferFrom(address,address,uint256)": {
        "details": "ensures that only minting is allowed when paused"
      }
    },
    "title": "the implementation to clone on each pod creation",
    "version": 1
  },
  "userdoc": {
    "kind": "user",
    "methods": {
      "initialize(string,string,address)": {
        "notice": "ensures that the pod token contract begins paused and with the default admin"
      },
      "returnPodTokens(address,address,uint256)": {
        "notice": "allows the return of funds after a pod disposal"
      }
    },
    "version": 1
  }
}