{
  "contractName": "PodWithdrawManager",
  "abi": [
    {
      "inputs": [],
      "stateMutability": "nonpayable",
      "type": "constructor"
    },
    {
      "anonymous": false,
      "inputs": [
        {
          "indexed": true,
          "internalType": "address",
          "name": "podAddress",
          "type": "address"
        },
        {
          "indexed": true,
          "internalType": "address",
          "name": "recipient",
          "type": "address"
        },
        {
          "indexed": false,
          "internalType": "uint256",
          "name": "amount",
          "type": "uint256"
        },
        {
          "indexed": true,
          "internalType": "uint256",
          "name": "proposalId",
          "type": "uint256"
        }
      ],
      "name": "ApproveWithdrawProposal",
      "type": "event"
    },
    {
      "anonymous": false,
      "inputs": [
        {
          "indexed": true,
          "internalType": "address",
          "name": "podAddress",
          "type": "address"
        },
        {
          "indexed": true,
          "internalType": "address",
          "name": "recipient",
          "type": "address"
        },
        {
          "indexed": false,
          "internalType": "uint256",
          "name": "amount",
          "type": "uint256"
        },
        {
          "indexed": true,
          "internalType": "uint256",
          "name": "proposalId",
          "type": "uint256"
        }
      ],
      "name": "CreateWithdrawProposal",
      "type": "event"
    },
    {
      "anonymous": false,
      "inputs": [
        {
          "indexed": true,
          "internalType": "address",
          "name": "podAddress",
          "type": "address"
        },
        {
          "indexed": true,
          "internalType": "address",
          "name": "recipient",
          "type": "address"
        },
        {
          "indexed": false,
          "internalType": "uint256",
          "name": "amount",
          "type": "uint256"
        },
        {
          "indexed": true,
          "internalType": "uint256",
          "name": "proposalId",
          "type": "uint256"
        }
      ],
      "name": "DenyWithdrawProposal",
      "type": "event"
    },
    {
      "anonymous": false,
      "inputs": [
        {
          "indexed": true,
          "internalType": "address",
          "name": "podAddress",
          "type": "address"
        },
        {
          "indexed": true,
          "internalType": "address",
          "name": "recipient",
          "type": "address"
        },
        {
          "indexed": false,
          "internalType": "uint256",
          "name": "amount",
          "type": "uint256"
        },
        {
          "indexed": true,
          "internalType": "uint256",
          "name": "proposalId",
          "type": "uint256"
        }
      ],
      "name": "ExpireWithdrawProposal",
      "type": "event"
    },
    {
      "anonymous": false,
      "inputs": [
        {
          "indexed": true,
          "internalType": "bytes32",
          "name": "role",
          "type": "bytes32"
        },
        {
          "indexed": true,
          "internalType": "bytes32",
          "name": "previousAdminRole",
          "type": "bytes32"
        },
        {
          "indexed": true,
          "internalType": "bytes32",
          "name": "newAdminRole",
          "type": "bytes32"
        }
      ],
      "name": "RoleAdminChanged",
      "type": "event"
    },
    {
      "anonymous": false,
      "inputs": [
        {
          "indexed": true,
          "internalType": "bytes32",
          "name": "role",
          "type": "bytes32"
        },
        {
          "indexed": true,
          "internalType": "address",
          "name": "account",
          "type": "address"
        },
        {
          "indexed": true,
          "internalType": "address",
          "name": "sender",
          "type": "address"
        }
      ],
      "name": "RoleGranted",
      "type": "event"
    },
    {
      "anonymous": false,
      "inputs": [
        {
          "indexed": true,
          "internalType": "bytes32",
          "name": "role",
          "type": "bytes32"
        },
        {
          "indexed": true,
          "internalType": "address",
          "name": "account",
          "type": "address"
        },
        {
          "indexed": true,
          "internalType": "address",
          "name": "sender",
          "type": "address"
        }
      ],
      "name": "RoleRevoked",
      "type": "event"
    },
    {
      "anonymous": false,
      "inputs": [
        {
          "indexed": true,
          "internalType": "address",
          "name": "voter",
          "type": "address"
        },
        {
          "indexed": true,
          "internalType": "address",
          "name": "podAddress",
          "type": "address"
        },
        {
          "indexed": true,
          "internalType": "uint256",
          "name": "proposalId",
          "type": "uint256"
        }
      ],
      "name": "VoteWithdrawProposal",
      "type": "event"
    },
    {
      "inputs": [],
      "name": "ADMIN",
      "outputs": [
        {
          "internalType": "bytes32",
          "name": "",
          "type": "bytes32"
        }
      ],
      "stateMutability": "view",
      "type": "function",
      "constant": true
    },
    {
      "inputs": [],
      "name": "DEFAULT_ADMIN_ROLE",
      "outputs": [
        {
          "internalType": "bytes32",
          "name": "",
          "type": "bytes32"
        }
      ],
      "stateMutability": "view",
      "type": "function",
      "constant": true
    },
    {
      "inputs": [
        {
          "internalType": "bytes32",
          "name": "role",
          "type": "bytes32"
        }
      ],
      "name": "getRoleAdmin",
      "outputs": [
        {
          "internalType": "bytes32",
          "name": "",
          "type": "bytes32"
        }
      ],
      "stateMutability": "view",
      "type": "function",
      "constant": true
    },
    {
      "inputs": [
        {
          "internalType": "bytes32",
          "name": "role",
          "type": "bytes32"
        },
        {
          "internalType": "address",
          "name": "account",
          "type": "address"
        }
      ],
      "name": "grantRole",
      "outputs": [],
      "stateMutability": "nonpayable",
      "type": "function"
    },
    {
      "inputs": [
        {
          "internalType": "bytes32",
          "name": "role",
          "type": "bytes32"
        },
        {
          "internalType": "address",
          "name": "account",
          "type": "address"
        }
      ],
      "name": "hasRole",
      "outputs": [
        {
          "internalType": "bool",
          "name": "",
          "type": "bool"
        }
      ],
      "stateMutability": "view",
      "type": "function",
      "constant": true
    },
    {
      "inputs": [],
      "name": "podManagerContractAddress",
      "outputs": [
        {
          "internalType": "address",
          "name": "",
          "type": "address"
        }
      ],
      "stateMutability": "view",
      "type": "function",
      "constant": true
    },
    {
      "inputs": [
        {
          "internalType": "bytes32",
          "name": "role",
          "type": "bytes32"
        },
        {
          "internalType": "address",
          "name": "account",
          "type": "address"
        }
      ],
      "name": "renounceRole",
      "outputs": [],
      "stateMutability": "nonpayable",
      "type": "function"
    },
    {
      "inputs": [
        {
          "internalType": "bytes32",
          "name": "role",
          "type": "bytes32"
        },
        {
          "internalType": "address",
          "name": "account",
          "type": "address"
        }
      ],
      "name": "revokeRole",
      "outputs": [],
      "stateMutability": "nonpayable",
      "type": "function"
    },
    {
      "inputs": [
        {
          "internalType": "bytes4",
          "name": "interfaceId",
          "type": "bytes4"
        }
      ],
      "name": "supportsInterface",
      "outputs": [
        {
          "internalType": "bool",
          "name": "",
          "type": "bool"
        }
      ],
      "stateMutability": "view",
      "type": "function",
      "constant": true
    },
    {
      "inputs": [
        {
          "internalType": "address",
          "name": "_podManagerContractAddress",
          "type": "address"
        }
      ],
      "name": "setPodManagerContractAddress",
      "outputs": [],
      "stateMutability": "nonpayable",
      "type": "function"
    },
    {
      "inputs": [
        {
          "internalType": "address",
          "name": "_podAddress",
          "type": "address"
        },
        {
          "internalType": "address[]",
          "name": "_owners",
          "type": "address[]"
        }
      ],
      "name": "savePodOwners",
      "outputs": [],
      "stateMutability": "nonpayable",
      "type": "function"
    },
    {
      "inputs": [
        {
          "internalType": "address",
          "name": "_recipient",
          "type": "address"
        },
        {
          "internalType": "address",
          "name": "_podAddress",
          "type": "address"
        },
        {
          "internalType": "uint256",
          "name": "_amount",
          "type": "uint256"
        }
      ],
      "name": "createWithdrawProposal",
      "outputs": [],
      "stateMutability": "nonpayable",
      "type": "function"
    },
    {
      "inputs": [
        {
          "internalType": "uint256",
          "name": "_proposalId",
          "type": "uint256"
        },
        {
          "internalType": "bool",
          "name": "_vote",
          "type": "bool"
        }
      ],
      "name": "voteWithdrawProposal",
      "outputs": [],
      "stateMutability": "nonpayable",
      "type": "function"
    },
    {
      "inputs": [
        {
          "internalType": "address",
          "name": "_podAddress",
          "type": "address"
        }
      ],
      "name": "returnPodTokens",
      "outputs": [],
      "stateMutability": "nonpayable",
      "type": "function"
    },
    {
      "inputs": [
        {
          "internalType": "uint256",
          "name": "_proposalId",
          "type": "uint256"
        }
      ],
      "name": "getUpdateMediaProposal",
      "outputs": [
        {
          "components": [
            {
              "internalType": "uint128",
              "name": "positiveVotesCount",
              "type": "uint128"
            },
            {
              "internalType": "uint128",
              "name": "negativeVotesCount",
              "type": "uint128"
            },
            {
              "internalType": "address",
              "name": "podAddress",
              "type": "address"
            },
            {
              "internalType": "address",
              "name": "recipient",
              "type": "address"
            },
            {
              "internalType": "uint64",
              "name": "minApprovals",
              "type": "uint64"
            },
            {
              "internalType": "uint64",
              "name": "maxDenials",
              "type": "uint64"
            },
            {
              "internalType": "uint64",
              "name": "date",
              "type": "uint64"
            },
            {
              "internalType": "uint64",
              "name": "duration",
              "type": "uint64"
            },
            {
              "internalType": "uint256",
              "name": "amount",
              "type": "uint256"
            }
          ],
          "internalType": "struct WithdrawProposal",
          "name": "",
          "type": "tuple"
        }
      ],
      "stateMutability": "view",
      "type": "function",
      "constant": true
    }
  ],
  "bytecode": "0x60806040523480156200001157600080fd5b50620000276000801b336200005f60201b60201c565b620000597fdf8b4c520ffe197c5343c6f5aec59570151ef9a492f2c624fd45ddde6135ec42336200005f60201b60201c565b620001d8565b6200007182826200007560201b60201c565b5050565b6200008782826200016660201b60201c565b6200016257600160008084815260200190815260200160002060000160008373ffffffffffffffffffffffffffffffffffffffff1673ffffffffffffffffffffffffffffffffffffffff16815260200190815260200160002060006101000a81548160ff02191690831515021790555062000107620001d060201b60201c565b73ffffffffffffffffffffffffffffffffffffffff168173ffffffffffffffffffffffffffffffffffffffff16837f2f8788117e7eff1d82e926ec794901d17c78024a50270940304540a733656f0d60405160405180910390a45b5050565b600080600084815260200190815260200160002060000160008373ffffffffffffffffffffffffffffffffffffffff1673ffffffffffffffffffffffffffffffffffffffff16815260200190815260200160002060009054906101000a900460ff16905092915050565b600033905090565b61379b80620001e86000396000f3fe608060405234801561001057600080fd5b50600436106100f55760003560e01c8063664c04d611610097578063b3310f4f11610066578063b3310f4f14610284578063b4401e5f146102a0578063d547741f146102bc578063ecfcb72a146102d8576100f5565b8063664c04d6146101fc57806391d148541461021a5780639c24e58e1461024a578063a217fddf14610266576100f5565b80632aeef099116100d35780632aeef099146101785780632f2ff15d146101a857806336568abe146101c457806360e019d2146101e0576100f5565b806301ffc9a7146100fa578063248a9ca31461012a5780632a0acc6a1461015a575b600080fd5b610114600480360381019061010f91906129e7565b6102f4565b6040516101219190612eda565b60405180910390f35b610144600480360381019061013f919061297a565b61036e565b6040516101519190612ef5565b60405180910390f35b61016261038d565b60405161016f9190612ef5565b60405180910390f35b610192600480360381019061018d9190612a5d565b6103b1565b60405161019f9190613032565b60405180910390f35b6101c260048036038101906101bd91906129a7565b610649565b005b6101de60048036038101906101d991906129a7565b610672565b005b6101fa60048036038101906101f591906128cb565b6106f5565b005b610204610abb565b6040516102119190612e28565b60405180910390f35b610234600480360381019061022f91906129a7565b610ae1565b6040516102419190612eda565b60405180910390f35b610264600480360381019061025f919061289e565b610b4b565b005b61026e610e9c565b60405161027b9190612ef5565b60405180910390f35b61029e60048036038101906102999190612ab7565b610ea3565b005b6102ba60048036038101906102b5919061289e565b611b06565b005b6102d660048036038101906102d191906129a7565b611b7d565b005b6102f260048036038101906102ed919061291e565b611ba6565b005b60007f7965db0b000000000000000000000000000000000000000000000000000000007bffffffffffffffffffffffffffffffffffffffffffffffffffffffff1916827bffffffffffffffffffffffffffffffffffffffffffffffffffffffff19161480610367575061036682611c31565b5b9050919050565b6000806000838152602001908152602001600020600101549050919050565b7fdf8b4c520ffe197c5343c6f5aec59570151ef9a492f2c624fd45ddde6135ec4281565b6103b96122ac565b600060036000848152602001908152602001600020604051806101200160405290816000820160009054906101000a90046fffffffffffffffffffffffffffffffff166fffffffffffffffffffffffffffffffff166fffffffffffffffffffffffffffffffff1681526020016000820160109054906101000a90046fffffffffffffffffffffffffffffffff166fffffffffffffffffffffffffffffffff166fffffffffffffffffffffffffffffffff1681526020016001820160009054906101000a900473ffffffffffffffffffffffffffffffffffffffff1673ffffffffffffffffffffffffffffffffffffffff1673ffffffffffffffffffffffffffffffffffffffff1681526020016002820160009054906101000a900473ffffffffffffffffffffffffffffffffffffffff1673ffffffffffffffffffffffffffffffffffffffff1673ffffffffffffffffffffffffffffffffffffffff1681526020016002820160149054906101000a900467ffffffffffffffff1667ffffffffffffffff1667ffffffffffffffff1681526020016003820160009054906101000a900467ffffffffffffffff1667ffffffffffffffff1667ffffffffffffffff1681526020016003820160089054906101000a900467ffffffffffffffff1667ffffffffffffffff1667ffffffffffffffff1681526020016003820160109054906101000a900467ffffffffffffffff1667ffffffffffffffff1667ffffffffffffffff16815260200160048201548152505090506000816080015167ffffffffffffffff161415610640576040517f08c379a000000000000000000000000000000000000000000000000000000000815260040161063790612fb2565b60405180910390fd5b80915050919050565b6106528261036e565b6106638161065e611c9b565b611ca3565b61066d8383611d40565b505050565b61067a611c9b565b73ffffffffffffffffffffffffffffffffffffffff168173ffffffffffffffffffffffffffffffffffffffff16146106e7576040517f08c379a00000000000000000000000000000000000000000000000000000000081526004016106de90613012565b60405180910390fd5b6106f18282611e20565b5050565b6106ff6001611f01565b600061070b6001611f17565b905060006107193385611f25565b9050600081121561075f576040517f08c379a000000000000000000000000000000000000000000000000000000000815260040161075690612f32565b60405180910390fd5b600060405180610120016040528060006fffffffffffffffffffffffffffffffff16815260200160006fffffffffffffffffffffffffffffffff1681526020018673ffffffffffffffffffffffffffffffffffffffff1681526020018773ffffffffffffffffffffffffffffffffffffffff168152602001600560008873ffffffffffffffffffffffffffffffffffffffff1673ffffffffffffffffffffffffffffffffffffffff1681526020019081526020016000208054905067ffffffffffffffff168152602001600167ffffffffffffffff1681526020014267ffffffffffffffff16815260200162093a8067ffffffffffffffff168152602001858152509050806003600085815260200190815260200160002060008201518160000160006101000a8154816fffffffffffffffffffffffffffffffff02191690836fffffffffffffffffffffffffffffffff16021790555060208201518160000160106101000a8154816fffffffffffffffffffffffffffffffff02191690836fffffffffffffffffffffffffffffffff16021790555060408201518160010160006101000a81548173ffffffffffffffffffffffffffffffffffffffff021916908373ffffffffffffffffffffffffffffffffffffffff16021790555060608201518160020160006101000a81548173ffffffffffffffffffffffffffffffffffffffff021916908373ffffffffffffffffffffffffffffffffffffffff16021790555060808201518160020160146101000a81548167ffffffffffffffff021916908367ffffffffffffffff16021790555060a08201518160030160006101000a81548167ffffffffffffffff021916908367ffffffffffffffff16021790555060c08201518160030160086101000a81548167ffffffffffffffff021916908367ffffffffffffffff16021790555060e08201518160030160106101000a81548167ffffffffffffffff021916908367ffffffffffffffff1602179055506101008201518160040155905050828673ffffffffffffffffffffffffffffffffffffffff168673ffffffffffffffffffffffffffffffffffffffff167fa32fc483f3fde5d15cd935b2f3500cdbac9a04280cf6e1c360f457ed0557d05b87604051610aab919061304e565b60405180910390a4505050505050565b600260009054906101000a900473ffffffffffffffffffffffffffffffffffffffff1681565b600080600084815260200190815260200160002060000160008373ffffffffffffffffffffffffffffffffffffffff1673ffffffffffffffffffffffffffffffffffffffff16815260200190815260200160002060009054906101000a900460ff16905092915050565b6000600260009054906101000a900473ffffffffffffffffffffffffffffffffffffffff1673ffffffffffffffffffffffffffffffffffffffff166301d8b562836040518263ffffffff1660e01b8152600401610ba89190612e28565b60006040518083038186803b158015610bc057600080fd5b505afa158015610bd4573d6000803e3d6000fd5b505050506040513d6000823e3d601f19601f82011682018060405250810190610bfd9190612a14565b9050428160c001516040015167ffffffffffffffff161115610c54576040517f08c379a0000000000000000000000000000000000000000000000000000000008152600401610c4b90612fd2565b60405180910390fd5b8060c0015160a00151816020015110610ca2576040517f08c379a0000000000000000000000000000000000000000000000000000000008152600401610c9990612ff2565b60405180910390fd5b6000600260009054906101000a900473ffffffffffffffffffffffffffffffffffffffff1673ffffffffffffffffffffffffffffffffffffffff16636f24b05384336040518363ffffffff1660e01b8152600401610d01929190612e43565b60206040518083038186803b158015610d1957600080fd5b505afa158015610d2d573d6000803e3d6000fd5b505050506040513d601f19601f82011682018060405250810190610d519190612a8a565b90506000600260009054906101000a900473ffffffffffffffffffffffffffffffffffffffff1673ffffffffffffffffffffffffffffffffffffffff1663aaf5eb686040518163ffffffff1660e01b815260040160206040518083038186803b158015610dbd57600080fd5b505afa158015610dd1573d6000803e3d6000fd5b505050506040513d601f19601f82011682018060405250810190610df59190612a8a565b8360c001516080015167ffffffffffffffff1683610e139190613218565b610e1d91906131e7565b90508373ffffffffffffffffffffffffffffffffffffffff166319da8062338560c0015160600151846040518463ffffffff1660e01b8152600401610e6493929190612e6c565b600060405180830381600087803b158015610e7e57600080fd5b505af1158015610e92573d6000803e3d6000fd5b5050505050505050565b6000801b81565b60006003600084815260200190815260200160002060020160149054906101000a900467ffffffffffffffff1667ffffffffffffffff161415610f1b576040517f08c379a0000000000000000000000000000000000000000000000000000000008152600401610f1290612fb2565b60405180910390fd5b600060036000848152602001908152602001600020604051806101200160405290816000820160009054906101000a90046fffffffffffffffffffffffffffffffff166fffffffffffffffffffffffffffffffff166fffffffffffffffffffffffffffffffff1681526020016000820160109054906101000a90046fffffffffffffffffffffffffffffffff166fffffffffffffffffffffffffffffffff166fffffffffffffffffffffffffffffffff1681526020016001820160009054906101000a900473ffffffffffffffffffffffffffffffffffffffff1673ffffffffffffffffffffffffffffffffffffffff1673ffffffffffffffffffffffffffffffffffffffff1681526020016002820160009054906101000a900473ffffffffffffffffffffffffffffffffffffffff1673ffffffffffffffffffffffffffffffffffffffff1673ffffffffffffffffffffffffffffffffffffffff1681526020016002820160149054906101000a900467ffffffffffffffff1667ffffffffffffffff1667ffffffffffffffff1681526020016003820160009054906101000a900467ffffffffffffffff1667ffffffffffffffff1667ffffffffffffffff1681526020016003820160089054906101000a900467ffffffffffffffff1667ffffffffffffffff1667ffffffffffffffff1681526020016003820160109054906101000a900467ffffffffffffffff1667ffffffffffffffff1667ffffffffffffffff16815260200160048201548152505090506000611160338360400151611f25565b905060008112156111a6576040517f08c379a000000000000000000000000000000000000000000000000000000000815260040161119d90612f72565b60405180910390fd5b6004600085815260200190815260200160002060003373ffffffffffffffffffffffffffffffffffffffff1673ffffffffffffffffffffffffffffffffffffffff16815260200190815260200160002060009054906101000a900460ff1615611244576040517f08c379a000000000000000000000000000000000000000000000000000000000815260040161123b90612f92565b60405180910390fd5b60016004600086815260200190815260200160002060003373ffffffffffffffffffffffffffffffffffffffff1673ffffffffffffffffffffffffffffffffffffffff16815260200190815260200160002060006101000a81548160ff021916908315150217905550428260e001518360c001516112c291906131a9565b67ffffffffffffffff1610156114685760036000858152602001908152602001600020600080820160006101000a8154906fffffffffffffffffffffffffffffffff02191690556000820160106101000a8154906fffffffffffffffffffffffffffffffff02191690556001820160006101000a81549073ffffffffffffffffffffffffffffffffffffffff02191690556002820160006101000a81549073ffffffffffffffffffffffffffffffffffffffff02191690556002820160146101000a81549067ffffffffffffffff02191690556003820160006101000a81549067ffffffffffffffff02191690556003820160086101000a81549067ffffffffffffffff02191690556003820160106101000a81549067ffffffffffffffff02191690556004820160009055505083826060015173ffffffffffffffffffffffffffffffffffffffff16836040015173ffffffffffffffffffffffffffffffffffffffff167f14f7a931e15e38da47fbd312052d122b2468fbd4eda9db0bda482cf9c8e0e3f885610100015160405161145b919061304e565b60405180910390a4611b00565b821561185757816080015167ffffffffffffffff166001836000015161148e919061310d565b6fffffffffffffffffffffffffffffffff1614156117795760036000858152602001908152602001600020600080820160006101000a8154906fffffffffffffffffffffffffffffffff02191690556000820160106101000a8154906fffffffffffffffffffffffffffffffff02191690556001820160006101000a81549073ffffffffffffffffffffffffffffffffffffffff02191690556002820160006101000a81549073ffffffffffffffffffffffffffffffffffffffff02191690556002820160146101000a81549067ffffffffffffffff02191690556003820160006101000a81549067ffffffffffffffff02191690556003820160086101000a81549067ffffffffffffffff02191690556003820160106101000a81549067ffffffffffffffff0219169055600482016000905550506000600260009054906101000a900473ffffffffffffffffffffffffffffffffffffffff1673ffffffffffffffffffffffffffffffffffffffff166301d8b56284604001516040518263ffffffff1660e01b81526004016116259190612e28565b60006040518083038186803b15801561163d57600080fd5b505afa158015611651573d6000803e3d6000fd5b505050506040513d6000823e3d601f19601f8201168201806040525081019061167a9190612a14565b9050826040015173ffffffffffffffffffffffffffffffffffffffff1663cfc82dab84606001518561010001518460c00151606001516040518463ffffffff1660e01b81526004016116ce93929190612ea3565b600060405180830381600087803b1580156116e857600080fd5b505af11580156116fc573d6000803e3d6000fd5b5050505084836060015173ffffffffffffffffffffffffffffffffffffffff16846040015173ffffffffffffffffffffffffffffffffffffffff167f0136f246c5141769cccada45c79897b16323d4eeaaa00602977cad10fcbfbaf486610100015160405161176b919061304e565b60405180910390a450611852565b60036000858152602001908152602001600020600001600081819054906101000a90046fffffffffffffffffffffffffffffffff16809291906117bb906133ae565b91906101000a8154816fffffffffffffffffffffffffffffffff02191690836fffffffffffffffffffffffffffffffff1602179055505083826040015173ffffffffffffffffffffffffffffffffffffffff163373ffffffffffffffffffffffffffffffffffffffff167f070f5734fbf17e22389e6227c8d6b3c83f038a95acbc51a1465b9fca6b99b25f60405160405180910390a45b611aff565b8160a0015167ffffffffffffffff1660018360200151611877919061310d565b6fffffffffffffffffffffffffffffffff161415611a255760036000858152602001908152602001600020600080820160006101000a8154906fffffffffffffffffffffffffffffffff02191690556000820160106101000a8154906fffffffffffffffffffffffffffffffff02191690556001820160006101000a81549073ffffffffffffffffffffffffffffffffffffffff02191690556002820160006101000a81549073ffffffffffffffffffffffffffffffffffffffff02191690556002820160146101000a81549067ffffffffffffffff02191690556003820160006101000a81549067ffffffffffffffff02191690556003820160086101000a81549067ffffffffffffffff02191690556003820160106101000a81549067ffffffffffffffff02191690556004820160009055505083826060015173ffffffffffffffffffffffffffffffffffffffff16836040015173ffffffffffffffffffffffffffffffffffffffff167fb6596f064b5e4cd43777d11153839a8b7c162a6e641ef1143f8eb36442c9afa3856101000151604051611a18919061304e565b60405180910390a4611afe565b60036000858152602001908152602001600020600001601081819054906101000a90046fffffffffffffffffffffffffffffffff1680929190611a67906133ae565b91906101000a8154816fffffffffffffffffffffffffffffffff02191690836fffffffffffffffffffffffffffffffff1602179055505083826040015173ffffffffffffffffffffffffffffffffffffffff163373ffffffffffffffffffffffffffffffffffffffff167f070f5734fbf17e22389e6227c8d6b3c83f038a95acbc51a1465b9fca6b99b25f60405160405180910390a45b5b5b50505050565b7fdf8b4c520ffe197c5343c6f5aec59570151ef9a492f2c624fd45ddde6135ec42611b3881611b33611c9b565b611ca3565b81600260006101000a81548173ffffffffffffffffffffffffffffffffffffffff021916908373ffffffffffffffffffffffffffffffffffffffff1602179055505050565b611b868261036e565b611b9781611b92611c9b565b611ca3565b611ba18383611e20565b505050565b7fdf8b4c520ffe197c5343c6f5aec59570151ef9a492f2c624fd45ddde6135ec42611bd881611bd3611c9b565b611ca3565b81600560008573ffffffffffffffffffffffffffffffffffffffff1673ffffffffffffffffffffffffffffffffffffffff1681526020019081526020016000209080519060200190611c2b929190612370565b50505050565b60007f01ffc9a7000000000000000000000000000000000000000000000000000000007bffffffffffffffffffffffffffffffffffffffffffffffffffffffff1916827bffffffffffffffffffffffffffffffffffffffffffffffffffffffff1916149050919050565b600033905090565b611cad8282610ae1565b611d3c57611cd28173ffffffffffffffffffffffffffffffffffffffff166014612070565b611ce08360001c6020612070565b604051602001611cf1929190612dee565b6040516020818303038152906040526040517f08c379a0000000000000000000000000000000000000000000000000000000008152600401611d339190612f10565b60405180910390fd5b5050565b611d4a8282610ae1565b611e1c57600160008084815260200190815260200160002060000160008373ffffffffffffffffffffffffffffffffffffffff1673ffffffffffffffffffffffffffffffffffffffff16815260200190815260200160002060006101000a81548160ff021916908315150217905550611dc1611c9b565b73ffffffffffffffffffffffffffffffffffffffff168173ffffffffffffffffffffffffffffffffffffffff16837f2f8788117e7eff1d82e926ec794901d17c78024a50270940304540a733656f0d60405160405180910390a45b5050565b611e2a8282610ae1565b15611efd57600080600084815260200190815260200160002060000160008373ffffffffffffffffffffffffffffffffffffffff1673ffffffffffffffffffffffffffffffffffffffff16815260200190815260200160002060006101000a81548160ff021916908315150217905550611ea2611c9b565b73ffffffffffffffffffffffffffffffffffffffff168173ffffffffffffffffffffffffffffffffffffffff16837ff6391f5c32d9c69d2a47ea670b442974b53935d1edc7fd64eb21e047a839171b60405160405180910390a45b5050565b6001816000016000828254019250508190555050565b600081600001549050919050565b600080600560008473ffffffffffffffffffffffffffffffffffffffff1673ffffffffffffffffffffffffffffffffffffffff16815260200190815260200160002080549050905060005b81811015612044578473ffffffffffffffffffffffffffffffffffffffff16600560008673ffffffffffffffffffffffffffffffffffffffff1673ffffffffffffffffffffffffffffffffffffffff1681526020019081526020016000208281548110611fe057611fdf61348e565b5b9060005260206000200160009054906101000a900473ffffffffffffffffffffffffffffffffffffffff1673ffffffffffffffffffffffffffffffffffffffff16141561203157809250505061206a565b808061203c906133e7565b915050611f70565b507fffffffffffffffffffffffffffffffffffffffffffffffffffffffffffffffff9150505b92915050565b6060600060028360026120839190613218565b61208d9190613153565b67ffffffffffffffff8111156120a6576120a56134bd565b5b6040519080825280601f01601f1916602001820160405280156120d85781602001600182028036833780820191505090505b5090507f3000000000000000000000000000000000000000000000000000000000000000816000815181106121105761210f61348e565b5b60200101907effffffffffffffffffffffffffffffffffffffffffffffffffffffffffffff1916908160001a9053507f7800000000000000000000000000000000000000000000000000000000000000816001815181106121745761217361348e565b5b60200101907effffffffffffffffffffffffffffffffffffffffffffffffffffffffffffff1916908160001a905350600060018460026121b49190613218565b6121be9190613153565b90505b600181111561225e577f3031323334353637383961626364656600000000000000000000000000000000600f861660108110612200576121ff61348e565b5b1a60f81b8282815181106122175761221661348e565b5b60200101907effffffffffffffffffffffffffffffffffffffffffffffffffffffffffffff1916908160001a905350600485901c94508061225790613353565b90506121c1565b50600084146122a2576040517f08c379a000000000000000000000000000000000000000000000000000000000815260040161229990612f52565b60405180910390fd5b8091505092915050565b60405180610120016040528060006fffffffffffffffffffffffffffffffff16815260200160006fffffffffffffffffffffffffffffffff168152602001600073ffffffffffffffffffffffffffffffffffffffff168152602001600073ffffffffffffffffffffffffffffffffffffffff168152602001600067ffffffffffffffff168152602001600067ffffffffffffffff168152602001600067ffffffffffffffff168152602001600067ffffffffffffffff168152602001600081525090565b8280548282559060005260206000209081019282156123e9579160200282015b828111156123e85782518260006101000a81548173ffffffffffffffffffffffffffffffffffffffff021916908373ffffffffffffffffffffffffffffffffffffffff16021790555091602001919060010190612390565b5b5090506123f691906123fa565b5090565b5b808211156124135760008160009055506001016123fb565b5090565b600061242a6124258461308e565b613069565b9050808382526020820190508285602086028201111561244d5761244c6134fb565b5b60005b8581101561247d57816124638882612567565b845260208401935060208301925050600181019050612450565b5050509392505050565b600061249a6124958461308e565b613069565b905080838252602082019050828560208602820111156124bd576124bc6134fb565b5b60005b858110156124ed57816124d3888261257c565b8452602084019350602083019250506001810190506124c0565b5050509392505050565b600061250a612505846130ba565b613069565b9050808382526020820190508285602086028201111561252d5761252c6134fb565b5b60005b8581101561255d57816125438882612874565b845260208401935060208301925050600181019050612530565b5050509392505050565b600081359050612576816136db565b92915050565b60008151905061258b816136db565b92915050565b600082601f8301126125a6576125a56134ec565b5b81356125b6848260208601612417565b91505092915050565b600082601f8301126125d4576125d36134ec565b5b81516125e4848260208601612487565b91505092915050565b600082601f830112612602576126016134ec565b5b81516126128482602086016124f7565b91505092915050565b60008135905061262a816136f2565b92915050565b60008135905061263f81613709565b92915050565b60008151905061265481613709565b92915050565b60008135905061266981613720565b92915050565b60006101208284031215612686576126856134f1565b5b612691610120613069565b905060006126a184828501612645565b60008301525060206126b584828501612874565b602083015250604082015167ffffffffffffffff8111156126d9576126d86134f6565b5b6126e5848285016125ed565b604083015250606082015167ffffffffffffffff811115612709576127086134f6565b5b612715848285016125ed565b60608301525060806127298482850161257c565b60808301525060a061273d8482850161257c565b60a08301525060c082015167ffffffffffffffff811115612761576127606134f6565b5b61276d848285016127a3565b60c08301525060e06127818482850161257c565b60e08301525061010061279684828501612874565b6101008301525092915050565b600060c082840312156127b9576127b86134f1565b5b6127c360c0613069565b9050600082015167ffffffffffffffff8111156127e3576127e26134f6565b5b6127ef848285016125bf565b60008301525060206128038482850161257c565b602083015250604061281784828501612889565b604083015250606061282b8482850161257c565b606083015250608061283f84828501612889565b60808301525060a061285384828501612874565b60a08301525092915050565b60008135905061286e81613737565b92915050565b60008151905061288381613737565b92915050565b6000815190506128988161374e565b92915050565b6000602082840312156128b4576128b3613505565b5b60006128c284828501612567565b91505092915050565b6000806000606084860312156128e4576128e3613505565b5b60006128f286828701612567565b935050602061290386828701612567565b92505060406129148682870161285f565b9150509250925092565b6000806040838503121561293557612934613505565b5b600061294385828601612567565b925050602083013567ffffffffffffffff81111561296457612963613500565b5b61297085828601612591565b9150509250929050565b6000602082840312156129905761298f613505565b5b600061299e84828501612630565b91505092915050565b600080604083850312156129be576129bd613505565b5b60006129cc85828601612630565b92505060206129dd85828601612567565b9150509250929050565b6000602082840312156129fd576129fc613505565b5b6000612a0b8482850161265a565b91505092915050565b600060208284031215612a2a57612a29613505565b5b600082015167ffffffffffffffff811115612a4857612a47613500565b5b612a548482850161266f565b91505092915050565b600060208284031215612a7357612a72613505565b5b6000612a818482850161285f565b91505092915050565b600060208284031215612aa057612a9f613505565b5b6000612aae84828501612874565b91505092915050565b60008060408385031215612ace57612acd613505565b5b6000612adc8582860161285f565b9250506020612aed8582860161261b565b9150509250929050565b612b0081613272565b82525050565b612b0f81613272565b82525050565b612b1e81613284565b82525050565b612b2d81613290565b82525050565b6000612b3e826130e6565b612b4881856130f1565b9350612b58818560208601613320565b612b618161350a565b840191505092915050565b6000612b77826130e6565b612b818185613102565b9350612b91818560208601613320565b80840191505092915050565b6000612baa6011836130f1565b9150612bb58261351b565b602082019050919050565b6000612bcd6020836130f1565b9150612bd882613544565b602082019050919050565b6000612bf0600d836130f1565b9150612bfb8261356d565b602082019050919050565b6000612c136013836130f1565b9150612c1e82613596565b602082019050919050565b6000612c366013836130f1565b9150612c41826135bf565b602082019050919050565b6000612c596018836130f1565b9150612c64826135e8565b602082019050919050565b6000612c7c601783613102565b9150612c8782613611565b601782019050919050565b6000612c9f6016836130f1565b9150612caa8261363a565b602082019050919050565b6000612cc2601183613102565b9150612ccd82613663565b601182019050919050565b6000612ce5602f836130f1565b9150612cf08261368c565b604082019050919050565b61012082016000820151612d126000850182612db2565b506020820151612d256020850182612db2565b506040820151612d386040850182612af7565b506060820151612d4b6060850182612af7565b506080820151612d5e6080850182612ddf565b5060a0820151612d7160a0850182612ddf565b5060c0820151612d8460c0850182612ddf565b5060e0820151612d9760e0850182612ddf565b50610100820151612dac610100850182612dc1565b50505050565b612dbb816132c6565b82525050565b612dca81613302565b82525050565b612dd981613302565b82525050565b612de88161330c565b82525050565b6000612df982612c6f565b9150612e058285612b6c565b9150612e1082612cb5565b9150612e1c8284612b6c565b91508190509392505050565b6000602082019050612e3d6000830184612b06565b92915050565b6000604082019050612e586000830185612b06565b612e656020830184612b06565b9392505050565b6000606082019050612e816000830186612b06565b612e8e6020830185612b06565b612e9b6040830184612dd0565b949350505050565b6000606082019050612eb86000830186612b06565b612ec56020830185612dd0565b612ed26040830184612b06565b949350505050565b6000602082019050612eef6000830184612b15565b92915050565b6000602082019050612f0a6000830184612b24565b92915050565b60006020820190508181036000830152612f2a8184612b33565b905092915050565b60006020820190508181036000830152612f4b81612b9d565b9050919050565b60006020820190508181036000830152612f6b81612bc0565b9050919050565b60006020820190508181036000830152612f8b81612be3565b9050919050565b60006020820190508181036000830152612fab81612c06565b9050919050565b60006020820190508181036000830152612fcb81612c29565b9050919050565b60006020820190508181036000830152612feb81612c4c565b9050919050565b6000602082019050818103600083015261300b81612c92565b9050919050565b6000602082019050818103600083015261302b81612cd8565b9050919050565b6000610120820190506130486000830184612cfb565b92915050565b60006020820190506130636000830184612dd0565b92915050565b6000613073613084565b905061307f828261337d565b919050565b6000604051905090565b600067ffffffffffffffff8211156130a9576130a86134bd565b5b602082029050602081019050919050565b600067ffffffffffffffff8211156130d5576130d46134bd565b5b602082029050602081019050919050565b600081519050919050565b600082825260208201905092915050565b600081905092915050565b6000613118826132c6565b9150613123836132c6565b9250826fffffffffffffffffffffffffffffffff0382111561314857613147613430565b5b828201905092915050565b600061315e82613302565b915061316983613302565b9250827fffffffffffffffffffffffffffffffffffffffffffffffffffffffffffffffff0382111561319e5761319d613430565b5b828201905092915050565b60006131b48261330c565b91506131bf8361330c565b92508267ffffffffffffffff038211156131dc576131db613430565b5b828201905092915050565b60006131f282613302565b91506131fd83613302565b92508261320d5761320c61345f565b5b828204905092915050565b600061322382613302565b915061322e83613302565b9250817fffffffffffffffffffffffffffffffffffffffffffffffffffffffffffffffff048311821515161561326757613266613430565b5b828202905092915050565b600061327d826132e2565b9050919050565b60008115159050919050565b6000819050919050565b60007fffffffff0000000000000000000000000000000000000000000000000000000082169050919050565b60006fffffffffffffffffffffffffffffffff82169050919050565b600073ffffffffffffffffffffffffffffffffffffffff82169050919050565b6000819050919050565b600067ffffffffffffffff82169050919050565b60005b8381101561333e578082015181840152602081019050613323565b8381111561334d576000848401525b50505050565b600061335e82613302565b9150600082141561337257613371613430565b5b600182039050919050565b6133868261350a565b810181811067ffffffffffffffff821117156133a5576133a46134bd565b5b80604052505050565b60006133b9826132c6565b91506fffffffffffffffffffffffffffffffff8214156133dc576133db613430565b5b600182019050919050565b60006133f282613302565b91507fffffffffffffffffffffffffffffffffffffffffffffffffffffffffffffffff82141561342557613424613430565b5b600182019050919050565b7f4e487b7100000000000000000000000000000000000000000000000000000000600052601160045260246000fd5b7f4e487b7100000000000000000000000000000000000000000000000000000000600052601260045260246000fd5b7f4e487b7100000000000000000000000000000000000000000000000000000000600052603260045260246000fd5b7f4e487b7100000000000000000000000000000000000000000000000000000000600052604160045260246000fd5b600080fd5b600080fd5b600080fd5b600080fd5b600080fd5b600080fd5b6000601f19601f8301169050919050565b7f496e76616c696420726571756573746572000000000000000000000000000000600082015250565b7f537472696e67733a20686578206c656e67746820696e73756666696369656e74600082015250565b7f496e76616c6964206f776e657200000000000000000000000000000000000000600082015250565b7f4f776e657220616c726561647920766f74656400000000000000000000000000600082015250565b7f556e6578697374656e742070726f706f73616c00000000000000000000000000600082015250565b7f46756e64696e672064617465206e6f7420726561636865640000000000000000600082015250565b7f416363657373436f6e74726f6c3a206163636f756e7420000000000000000000600082015250565b7f46756e64696e6720746172676574207265616368656400000000000000000000600082015250565b7f206973206d697373696e6720726f6c6520000000000000000000000000000000600082015250565b7f416363657373436f6e74726f6c3a2063616e206f6e6c792072656e6f756e636560008201527f20726f6c657320666f722073656c660000000000000000000000000000000000602082015250565b6136e481613272565b81146136ef57600080fd5b50565b6136fb81613284565b811461370657600080fd5b50565b61371281613290565b811461371d57600080fd5b50565b6137298161329a565b811461373457600080fd5b50565b61374081613302565b811461374b57600080fd5b50565b6137578161330c565b811461376257600080fd5b5056fea26469706673582212200f96ca2d0e5d28786ca007abc0893035444f5d0fa9f8b0cbbc02958bba50c73564736f6c63430008060033",
  "immutableReferences": {},
  "source": "// SPDX-License-Identifier: MIT\npragma solidity ^0.8.0;\n\nimport \"@openzeppelin/contracts/access/AccessControl.sol\";\nimport \"@openzeppelin/contracts/utils/Counters.sol\";\nimport \"./PodManager.sol\";\nimport \"./Structs.sol\";\nimport \"./implementations/PodToken.sol\";\n\n/**\n * @title manager for pod withdrawals\n * @author Eric Nordelo\n * @notice manages the withdrawals proposals and the multisign logic\n */\ncontract PodWithdrawManager is AccessControl {\n    using Counters for Counters.Counter;\n\n    Counters.Counter private _withdrawProposalIds;\n\n    bytes32 public constant ADMIN = keccak256(\"ADMIN\");\n    uint64 private constant PROPOSAL_DURATION = 1 weeks;\n\n    address public podManagerContractAddress;\n\n    // map from Id to WithdrawProposal\n    mapping(uint256 => WithdrawProposal) private _withdrawProposals;\n    // stores a mapping of owners and if already voted by proposalId\n    mapping(uint256 => mapping(address => bool)) private _withdrawProposalsVoted;\n    mapping(address => address[]) private _podsOwners;\n\n    event CreateWithdrawProposal(\n        address indexed podAddress,\n        address indexed recipient,\n        uint256 amount,\n        uint256 indexed proposalId\n    );\n    event ApproveWithdrawProposal(\n        address indexed podAddress,\n        address indexed recipient,\n        uint256 amount,\n        uint256 indexed proposalId\n    );\n    event DenyWithdrawProposal(\n        address indexed podAddress,\n        address indexed recipient,\n        uint256 amount,\n        uint256 indexed proposalId\n    );\n    event VoteWithdrawProposal(address indexed voter, address indexed podAddress, uint256 indexed proposalId);\n    event ExpireWithdrawProposal(\n        address indexed podAddress,\n        address indexed recipient,\n        uint256 amount,\n        uint256 indexed proposalId\n    );\n\n    constructor() {\n        _setupRole(DEFAULT_ADMIN_ROLE, msg.sender);\n        _setupRole(ADMIN, msg.sender);\n    }\n\n    /**\n     * @notice sets the addresses to support integration\n     * @param _podManagerContractAddress the address of the Privi NFT contract\n     */\n    function setPodManagerContractAddress(address _podManagerContractAddress) external onlyRole(ADMIN) {\n        podManagerContractAddress = _podManagerContractAddress;\n    }\n\n    /**\n     * @notice save the owners for multisig feature\n     * @param _podAddress the address of the pod\n     * @param _owners the array of the owners\n     */\n    function savePodOwners(address _podAddress, address[] memory _owners) external onlyRole(ADMIN) {\n        _podsOwners[_podAddress] = _owners;\n    }\n\n    /**\n     * @notice create a proposal for withdraw funds\n     * @param _recipient the recipient of the transfer\n     * @param _podAddress the address of the pod\n     * @param _amount the amount of the funding token to withdraw\n     */\n    function createWithdrawProposal(\n        address _recipient,\n        address _podAddress,\n        uint256 _amount\n    ) external {\n        _withdrawProposalIds.increment();\n\n        uint256 proposalId = _withdrawProposalIds.current();\n\n        int256 index = getOwnerIndex(msg.sender, _podAddress);\n        require(index >= 0, \"Invalid requester\");\n\n        WithdrawProposal memory _withdrawProposal = WithdrawProposal({\n            minApprovals: uint64(_podsOwners[_podAddress].length),\n            maxDenials: 1,\n            positiveVotesCount: 0,\n            negativeVotesCount: 0,\n            podAddress: _podAddress,\n            recipient: _recipient,\n            amount: _amount,\n            date: uint64(block.timestamp),\n            duration: PROPOSAL_DURATION\n        });\n\n        // save the proposal for voting\n        _withdrawProposals[proposalId] = _withdrawProposal;\n\n        emit CreateWithdrawProposal(_podAddress, _recipient, _amount, proposalId);\n    }\n\n    /**\n     * @notice allows owners to vote withdraw proposals for pods\n     * @param _proposalId the id of the withdraw proposal\n     * @param _vote the actual vote: true or false\n     */\n    function voteWithdrawProposal(uint256 _proposalId, bool _vote) external {\n        require(_withdrawProposals[_proposalId].minApprovals != 0, \"Unexistent proposal\");\n\n        WithdrawProposal memory withdrawProposal = _withdrawProposals[_proposalId];\n\n        int256 index = getOwnerIndex(msg.sender, withdrawProposal.podAddress);\n        require(index >= 0, \"Invalid owner\");\n\n        require(!_withdrawProposalsVoted[_proposalId][msg.sender], \"Owner already voted\");\n\n        _withdrawProposalsVoted[_proposalId][msg.sender] = true;\n\n        // check if expired\n        // solhint-disable-next-line\n        if (withdrawProposal.date + withdrawProposal.duration < block.timestamp) {\n            // delete the recover gas\n            delete _withdrawProposals[_proposalId];\n            emit ExpireWithdrawProposal(\n                withdrawProposal.podAddress,\n                withdrawProposal.recipient,\n                withdrawProposal.amount,\n                _proposalId\n            );\n        } else {\n            // if the vote is positive\n            if (_vote) {\n                // if is the last vote to approve\n                if (withdrawProposal.positiveVotesCount + 1 == withdrawProposal.minApprovals) {\n                    delete _withdrawProposals[_proposalId];\n\n                    PodInfo memory podInfo = PodManager(podManagerContractAddress).getPodInfo(\n                        withdrawProposal.podAddress\n                    );\n                    // make the transfer\n                    PodToken(withdrawProposal.podAddress).transferContractBalance(\n                        withdrawProposal.recipient,\n                        withdrawProposal.amount,\n                        podInfo.pod.fundingToken\n                    );\n\n                    emit ApproveWithdrawProposal(\n                        withdrawProposal.podAddress,\n                        withdrawProposal.recipient,\n                        withdrawProposal.amount,\n                        _proposalId\n                    );\n                } else {\n                    // update the proposal and emit the event\n                    _withdrawProposals[_proposalId].positiveVotesCount++;\n                    emit VoteWithdrawProposal(msg.sender, withdrawProposal.podAddress, _proposalId);\n                }\n            }\n            // if the vote is negative\n            else {\n                // if is the last vote to deny\n                if (withdrawProposal.negativeVotesCount + 1 == withdrawProposal.maxDenials) {\n                    // delete the proposal and emit the event\n                    delete _withdrawProposals[_proposalId];\n                    emit DenyWithdrawProposal(\n                        withdrawProposal.podAddress,\n                        withdrawProposal.recipient,\n                        withdrawProposal.amount,\n                        _proposalId\n                    );\n                } else {\n                    // update the proposal and emit the event\n                    _withdrawProposals[_proposalId].negativeVotesCount++;\n                    emit VoteWithdrawProposal(msg.sender, withdrawProposal.podAddress, _proposalId);\n                }\n            }\n        }\n    }\n\n    /**\n     * @notice allows the return of funds after a pod disposal\n     */\n    function returnPodTokens(address _podAddress) external {\n        PodInfo memory podInfo = PodManager(podManagerContractAddress).getPodInfo(_podAddress);\n        require(podInfo.pod.fundingDate <= block.timestamp, \"Funding date not reached\");\n        require(podInfo.raisedFunds < podInfo.pod.fundingTarget, \"Funding target reached\");\n        uint256 claimableAmount = PodManager(podManagerContractAddress).podToTokensClaimable(\n            _podAddress,\n            msg.sender\n        );\n        uint256 amountToReturn = (claimableAmount * podInfo.pod.fundingTokenPrice) /\n            PodManager(podManagerContractAddress).PRECISION();\n        PodToken(_podAddress).returnPodTokens(msg.sender, podInfo.pod.fundingToken, amountToReturn);\n    }\n\n    /**\n     * @notice proposal struct getter\n     * @param _proposalId The id of the withdraw proposal\n     * @return the WithdrawProposal object\n     */\n    function getUpdateMediaProposal(uint256 _proposalId) external view returns (WithdrawProposal memory) {\n        WithdrawProposal memory withdrawProposal = _withdrawProposals[_proposalId];\n        require(withdrawProposal.minApprovals != 0, \"Unexistent proposal\");\n        return withdrawProposal;\n    }\n\n    /**\n     * @param _owner The address of the owner to look for\n     * @param _podAddress The address of the pod\n     * @return The index\n     */\n    function getOwnerIndex(address _owner, address _podAddress) internal view returns (int256) {\n        uint256 count = _podsOwners[_podAddress].length;\n        for (uint256 i = 0; i < count; i++) {\n            if (_podsOwners[_podAddress][i] == _owner) {\n                return int256(i);\n            }\n        }\n        return -1;\n    }\n}\n",
  "sourcePath": "/Users/angelsatorresalmenara/Desktop/privi-pods-smart-contract/contracts/PodWithdrawManager.sol",
  "compiler": {
    "name": "solc",
    "version": "0.8.6+commit.11564f7e.Emscripten.clang"
  },
  "schemaVersion": "3.4.3",
  "updatedAt": "2021-10-08T21:06:54.781Z",
  "networkType": "ethereum",
  "devdoc": {
    "author": "Eric Nordelo",
    "kind": "dev",
    "methods": {
      "createWithdrawProposal(address,address,uint256)": {
        "params": {
          "_amount": "the amount of the funding token to withdraw",
          "_podAddress": "the address of the pod",
          "_recipient": "the recipient of the transfer"
        }
      },
      "getRoleAdmin(bytes32)": {
        "details": "Returns the admin role that controls `role`. See {grantRole} and {revokeRole}. To change a role's admin, use {_setRoleAdmin}."
      },
      "getUpdateMediaProposal(uint256)": {
        "params": {
          "_proposalId": "The id of the withdraw proposal"
        },
        "returns": {
          "_0": "the WithdrawProposal object"
        }
      },
      "grantRole(bytes32,address)": {
        "details": "Grants `role` to `account`. If `account` had not been already granted `role`, emits a {RoleGranted} event. Requirements: - the caller must have ``role``'s admin role."
      },
      "hasRole(bytes32,address)": {
        "details": "Returns `true` if `account` has been granted `role`."
      },
      "renounceRole(bytes32,address)": {
        "details": "Revokes `role` from the calling account. Roles are often managed via {grantRole} and {revokeRole}: this function's purpose is to provide a mechanism for accounts to lose their privileges if they are compromised (such as when a trusted device is misplaced). If the calling account had been granted `role`, emits a {RoleRevoked} event. Requirements: - the caller must be `account`."
      },
      "revokeRole(bytes32,address)": {
        "details": "Revokes `role` from `account`. If `account` had been granted `role`, emits a {RoleRevoked} event. Requirements: - the caller must have ``role``'s admin role."
      },
      "savePodOwners(address,address[])": {
        "params": {
          "_owners": "the array of the owners",
          "_podAddress": "the address of the pod"
        }
      },
      "setPodManagerContractAddress(address)": {
        "params": {
          "_podManagerContractAddress": "the address of the Privi NFT contract"
        }
      },
      "supportsInterface(bytes4)": {
        "details": "See {IERC165-supportsInterface}."
      },
      "voteWithdrawProposal(uint256,bool)": {
        "params": {
          "_proposalId": "the id of the withdraw proposal",
          "_vote": "the actual vote: true or false"
        }
      }
    },
    "title": "manager for pod withdrawals",
    "version": 1
  },
  "userdoc": {
    "kind": "user",
    "methods": {
      "createWithdrawProposal(address,address,uint256)": {
        "notice": "create a proposal for withdraw funds"
      },
      "getUpdateMediaProposal(uint256)": {
        "notice": "proposal struct getter"
      },
      "returnPodTokens(address)": {
        "notice": "allows the return of funds after a pod disposal"
      },
      "savePodOwners(address,address[])": {
        "notice": "save the owners for multisig feature"
      },
      "setPodManagerContractAddress(address)": {
        "notice": "sets the addresses to support integration"
      },
      "voteWithdrawProposal(uint256,bool)": {
        "notice": "allows owners to vote withdraw proposals for pods"
      }
    },
    "notice": "manages the withdrawals proposals and the multisign logic",
    "version": 1
  }
}