{
  "address": "0x8409AA9193782794d27075F7F3d6bd463F29FA0b",
  "abi": [
    {
      "inputs": [
        {
          "components": [
            {
              "internalType": "address",
              "name": "linkToken",
              "type": "address"
            },
            {
              "internalType": "address",
              "name": "chainlinkNode",
              "type": "address"
            },
            {
              "internalType": "string",
              "name": "jobId",
              "type": "string"
            },
            {
              "internalType": "string",
              "name": "uintJobId",
              "type": "string"
            },
            {
              "internalType": "uint256",
              "name": "nodeFee",
              "type": "uint256"
            }
          ],
          "internalType": "struct APIOracleInfo",
          "name": "_oracleInfo",
          "type": "tuple"
        }
      ],
      "stateMutability": "nonpayable",
      "type": "constructor"
    },
    {
      "anonymous": false,
      "inputs": [
        {
          "indexed": true,
          "internalType": "bytes32",
          "name": "id",
          "type": "bytes32"
        }
      ],
      "name": "ChainlinkCancelled",
      "type": "event"
    },
    {
      "anonymous": false,
      "inputs": [
        {
          "indexed": true,
          "internalType": "bytes32",
          "name": "id",
          "type": "bytes32"
        }
      ],
      "name": "ChainlinkFulfilled",
      "type": "event"
    },
    {
      "anonymous": false,
      "inputs": [
        {
          "indexed": true,
          "internalType": "bytes32",
          "name": "id",
          "type": "bytes32"
        }
      ],
      "name": "ChainlinkRequested",
      "type": "event"
    },
    {
      "anonymous": false,
      "inputs": [
        {
          "indexed": true,
          "internalType": "address",
          "name": "previousOwner",
          "type": "address"
        },
        {
          "indexed": true,
          "internalType": "address",
          "name": "newOwner",
          "type": "address"
        }
      ],
      "name": "OwnershipTransferred",
      "type": "event"
    },
    {
      "inputs": [],
      "name": "apiURL",
      "outputs": [
        {
          "internalType": "string",
          "name": "",
          "type": "string"
        }
      ],
      "stateMutability": "view",
      "type": "function"
    },
    {
      "inputs": [],
      "name": "booleanjobId",
      "outputs": [
        {
          "internalType": "bytes32",
          "name": "",
          "type": "bytes32"
        }
      ],
      "stateMutability": "view",
      "type": "function"
    },
    {
      "inputs": [],
      "name": "chainlinkNode",
      "outputs": [
        {
          "internalType": "address",
          "name": "",
          "type": "address"
        }
      ],
      "stateMutability": "view",
      "type": "function"
    },
    {
      "inputs": [],
      "name": "linkToken",
      "outputs": [
        {
          "internalType": "address",
          "name": "",
          "type": "address"
        }
      ],
      "stateMutability": "view",
      "type": "function"
    },
    {
      "inputs": [],
      "name": "nodeFee",
      "outputs": [
        {
          "internalType": "uint256",
          "name": "",
          "type": "uint256"
        }
      ],
      "stateMutability": "view",
      "type": "function"
    },
    {
      "inputs": [],
      "name": "owner",
      "outputs": [
        {
          "internalType": "address",
          "name": "",
          "type": "address"
        }
      ],
      "stateMutability": "view",
      "type": "function"
    },
    {
      "inputs": [
        {
          "internalType": "bytes32",
          "name": "requestId",
          "type": "bytes32"
        },
        {
          "internalType": "uint256",
          "name": "buybackPrice",
          "type": "uint256"
        }
      ],
      "name": "processBuybackPriceResponse",
      "outputs": [],
      "stateMutability": "nonpayable",
      "type": "function"
    },
    {
      "inputs": [
        {
          "internalType": "bytes32",
          "name": "requestId",
          "type": "bytes32"
        },
        {
          "internalType": "bool",
          "name": "verified",
          "type": "bool"
        }
      ],
      "name": "processResponse",
      "outputs": [],
      "stateMutability": "nonpayable",
      "type": "function"
    },
    {
      "inputs": [],
      "name": "renounceOwnership",
      "outputs": [],
      "stateMutability": "nonpayable",
      "type": "function"
    },
    {
      "inputs": [],
      "name": "token",
      "outputs": [
        {
          "internalType": "string",
          "name": "",
          "type": "string"
        }
      ],
      "stateMutability": "view",
      "type": "function"
    },
    {
      "inputs": [
        {
          "internalType": "address",
          "name": "newOwner",
          "type": "address"
        }
      ],
      "name": "transferOwnership",
      "outputs": [],
      "stateMutability": "nonpayable",
      "type": "function"
    },
    {
      "inputs": [],
      "name": "uint256JobId",
      "outputs": [
        {
          "internalType": "bytes32",
          "name": "",
          "type": "bytes32"
        }
      ],
      "stateMutability": "view",
      "type": "function"
    },
    {
      "inputs": [
        {
          "internalType": "address",
          "name": "ethereumCollection",
          "type": "address"
        }
      ],
      "name": "updateBuybackPrice",
      "outputs": [
        {
          "internalType": "bytes32",
          "name": "requestId",
          "type": "bytes32"
        }
      ],
      "stateMutability": "nonpayable",
      "type": "function"
    },
    {
      "inputs": [
        {
          "internalType": "address",
          "name": "ethereumCollection",
          "type": "address"
        },
        {
          "internalType": "uint256",
          "name": "tokenId",
          "type": "uint256"
        },
        {
          "internalType": "uint256",
          "name": "currentState",
          "type": "uint256"
        },
        {
          "internalType": "uint256",
          "name": "nonce",
          "type": "uint256"
        }
      ],
      "name": "verifyTokenInCollection",
      "outputs": [
        {
          "internalType": "bytes32",
          "name": "requestId",
          "type": "bytes32"
        }
      ],
      "stateMutability": "nonpayable",
      "type": "function"
    },
    {
      "inputs": [
        {
          "internalType": "address",
          "name": "collectionId",
          "type": "address"
        }
      ],
      "name": "whitelistCollection",
      "outputs": [],
      "stateMutability": "nonpayable",
      "type": "function"
    }
  ],
  "transactionHash": "0x7839a189398c2ed2ad120cb885cd656d311f60c4caa2fe867459732745473667",
  "args": [
    {
      "chainlinkNode": "0x0dc63a45c513bef5b84555d3fe56c227caa8e13e",
      "linkToken": "0x326C977E6efc84E512bB9C30f76E30c160eD06FB",
      "jobId": "531caa20390041ce8b05f5249b74776a",
      "uintJobId": "dcf1800fb9d443cdb512070046852c2d",
      "nodeFee": "100000000000000000"
    }
  ],
  "solcInputHash": "9cd843add4fd8e43f28cc692719e78bf",
  "bytecode": "0x608060405260016004553480156200001657600080fd5b5060405162001f1738038062001f178339810160408190526200003991620002db565b620000443362000117565b8051600d80546001600160a01b03199081166001600160a01b03938416179091556020808401516009805490931693169290921790556040820151620000939162000169811b620009a217901c565b600a81905550620000b381606001516200016960201b620009a21760201c565b600b556080810151600c556040805160608101909152602f80825262001ee860208301398051620000ed9160089160209091019062000187565b50600d54600280546001600160a01b0319166001600160a01b039092169190911790555062000455565b600680546001600160a01b038381166001600160a01b0319831681179093556040519116919082907f8be0079c531659141344cd1fd0a4f28419497f9722a3daafe3b4186f6b6457e090600090a35050565b805160009082906200017e5750600092915050565b50506020015190565b828054620001959062000402565b90600052602060002090601f016020900481019282620001b9576000855562000204565b82601f10620001d457805160ff191683800117855562000204565b8280016001018555821562000204579182015b8281111562000204578251825591602001919060010190620001e7565b506200021292915062000216565b5090565b5b8082111562000212576000815560010162000217565b80516001600160a01b03811681146200024557600080fd5b919050565b600082601f8301126200025b578081fd5b81516001600160401b038111156200027757620002776200043f565b60206200028d601f8301601f19168201620003cf565b8281528582848701011115620002a1578384fd5b835b83811015620002c0578581018301518282018401528201620002a3565b83811115620002d157848385840101525b5095945050505050565b600060208284031215620002ed578081fd5b81516001600160401b038082111562000304578283fd5b9083019060a0828603121562000318578283fd5b62000322620003a4565b6200032d836200022d565b81526200033d602084016200022d565b602082015260408301518281111562000354578485fd5b62000362878286016200024a565b6040830152506060830151828111156200037a578485fd5b62000388878286016200024a565b6060830152506080830151608082015280935050505092915050565b60405160a081016001600160401b0381118282101715620003c957620003c96200043f565b60405290565b604051601f8201601f191681016001600160401b0381118282101715620003fa57620003fa6200043f565b604052919050565b600181811c908216806200041757607f821691505b602082108114156200043957634e487b7160e01b600052602260045260246000fd5b50919050565b634e487b7160e01b600052604160045260246000fd5b611a8380620004656000396000f3fe608060405234801561001057600080fd5b50600436106100f55760003560e01c80638c7a666111610097578063f07029b911610066578063f07029b9146101d9578063f2fde38b146101ec578063f4162530146101ff578063fc0c546a1461020857600080fd5b80638c7a66611461018d5780638da5cb5b146101a0578063bce66e0a146101b1578063c10aaf26146101c657600080fd5b806357970e93116100d357806357970e93146101325780635ef608461461015d578063715018a6146101725780638b619cea1461017a57600080fd5b8063197bd444146100fa57806340faaae814610116578063502c73b01461011f575b600080fd5b610103600b5481565b6040519081526020015b60405180910390f35b610103600a5481565b61010361012d3660046113ba565b610210565b600d54610145906001600160a01b031681565b6040516001600160a01b03909116815260200161010d565b61017061016b366004611428565b610377565b005b6101706104f2565b6101036101883660046113d4565b610528565b61017061019b366004611457565b610752565b6006546001600160a01b0316610145565b6101b961081e565b60405161010d919061171b565b6101706101d43660046113ba565b6108ac565b600954610145906001600160a01b031681565b6101706101fa3660046113ba565b6108fa565b610103600c5481565b6101b9610995565b3360009081526010602052604081205460ff166102685760405162461bcd60e51b815260206004820152601160248201527024b73b30b634b2103932b8bab2b9ba32b960791b60448201526064015b60405180910390fd5b600061027e600b5430638c7a666160e01b6109bf565b90506102d9816040518060400160405280600381526020016219d95d60ea1b81525060086102b4876001600160a01b03166109e4565b6040516020016102c592919061153c565b604051602081830303815290604052610b47565b61031d81604051806040016040528060048152602001630e0c2e8d60e31b81525060405180604001604052806005815260200164707269636560d81b815250610b47565b600954600c54610338916001600160a01b0316908390610b6a565b60408051602080820183523382526000848152600f90915291909120905181546001600160a01b0319166001600160a01b039091161790559392505050565b60008281526005602052604090205482906001600160a01b031633146103af5760405162461bcd60e51b815260040161025f90611763565b60008181526005602052604080822080546001600160a01b03191690555182917f7cc135e0cebb02c3480ae5d74d377283180a2601f8f644edf7987b009316c63a91a26000838152600e60209081526040808320815160808101835281546001600160a01b03908116825260018301541693810193909352600281015491830191909152600380820154606084019160ff9091169081111561046157634e487b7160e01b600052602160045260246000fd5b600381111561048057634e487b7160e01b600052602160045260246000fd5b9052506020810151604051636332fb8b60e01b81529192506001600160a01b031690636332fb8b906104ba908790859088906004016116b2565b600060405180830381600087803b1580156104d457600080fd5b505af11580156104e8573d6000803e3d6000fd5b5050505050505050565b6006546001600160a01b0316331461051c5760405162461bcd60e51b815260040161025f9061172e565b6105266000610b89565b565b3360009081526010602052604081205460ff1661057b5760405162461bcd60e51b815260206004820152601160248201527024b73b30b634b2103932b8bab2b9ba32b960791b604482015260640161025f565b6000610591600a5430635ef6084660e01b6109bf565b90506105ec816040518060400160405280600381526020016219d95d60ea1b81525060086105c78a6001600160a01b03166109e4565b6105d08a610bdb565b6105d989610bdb565b6040516020016102c5949392919061158a565b61063181604051806040016040528060048152602001630e0c2e8d60e31b815250604051806040016040528060068152602001651b1bd8dad95960d21b815250610b47565b600954600c5461064c916001600160a01b0316908390610b6a565b91506040518060800160405280876001600160a01b03168152602001336001600160a01b0316815260200186815260200185600381111561069d57634e487b7160e01b600052602160045260246000fd5b60038111156106bc57634e487b7160e01b600052602160045260246000fd5b90526000838152600e6020908152604091829020835181546001600160a01b039182166001600160a01b0319918216178355928501516001808401805492909316919094161790559183015160028301556060830151600380840180549293909260ff191691849081111561074157634e487b7160e01b600052602160045260246000fd5b021790555090505050949350505050565b60008281526005602052604090205482906001600160a01b0316331461078a5760405162461bcd60e51b815260040161025f90611763565b60008181526005602052604080822080546001600160a01b03191690555182917f7cc135e0cebb02c3480ae5d74d377283180a2601f8f644edf7987b009316c63a91a26000838152600f602090815260409182902082519182018352546001600160a01b03168082529151638c7a666160e01b81526004810186905260248101859052909190638c7a6661906044016104ba565b6008805461082b906119af565b80601f0160208091040260200160405190810160405280929190818152602001828054610857906119af565b80156108a45780601f10610879576101008083540402835291602001916108a4565b820191906000526020600020905b81548152906001019060200180831161088757829003601f168201915b505050505081565b6006546001600160a01b031633146108d65760405162461bcd60e51b815260040161025f9061172e565b6001600160a01b03166000908152601060205260409020805460ff19166001179055565b6006546001600160a01b031633146109245760405162461bcd60e51b815260040161025f9061172e565b6001600160a01b0381166109895760405162461bcd60e51b815260206004820152602660248201527f4f776e61626c653a206e6577206f776e657220697320746865207a65726f206160448201526564647265737360d01b606482015260840161025f565b61099281610b89565b50565b6007805461082b906119af565b805160009082906109b65750600092915050565b50506020015190565b6109c7611368565b6109cf611368565b6109db81868686610d20565b95945050505050565b60408051602880825260608281019093526000919060208201818036833701905050905060005b6014811015610b40576000610a21826013611949565b610a2c906008611909565b610a37906002611861565b610a4a906001600160a01b0387166117e8565b60f81b9050600060108260f81c610a6191906117fc565b60f81b905060008160f81c6010610a789190611928565b8360f81c610a869190611960565b60f81b9050610a9482610d5d565b85610aa0866002611909565b81518110610abe57634e487b7160e01b600052603260045260246000fd5b60200101906001600160f81b031916908160001a905350610ade81610d5d565b85610aea866002611909565b610af59060016117ab565b81518110610b1357634e487b7160e01b600052603260045260246000fd5b60200101906001600160f81b031916908160001a9053505050508080610b38906119e4565b915050610a0b565b5092915050565b6080830151610b569083610d98565b6080830151610b659082610d98565b505050565b6000610b8184848460016320214ca360e11b610daf565b949350505050565b600680546001600160a01b038381166001600160a01b0319831681179093556040519116919082907f8be0079c531659141344cd1fd0a4f28419497f9722a3daafe3b4186f6b6457e090600090a35050565b606081610bff5750506040805180820190915260018152600360fc1b602082015290565b6000825b8015610c295781610c13816119e4565b9250610c229050600a826117e8565b9050610c03565b60008267ffffffffffffffff811115610c5257634e487b7160e01b600052604160045260246000fd5b6040519080825280601f01601f191660200182016040528015610c7c576020820181803683370190505b509050825b8515610d1757610c92600182611949565b90506000610ca1600a886117e8565b610cac90600a611909565b610cb69088611949565b610cc19060306117c3565b905060008160f81b905080848481518110610cec57634e487b7160e01b600052603260045260246000fd5b60200101906001600160f81b031916908160001a905350610d0e600a896117e8565b97505050610c81565b50949350505050565b610d28611368565b610d388560800151610100610fbb565b50509183526001600160a01b031660208301526001600160e01b031916604082015290565b6000600a60f883901c1015610d8457610d7b60f883901c60306117c3565b60f81b92915050565b610d7b60f883901c60576117c3565b919050565b610da58260038351611026565b610b6582826110fa565b6004546040516bffffffffffffffffffffffff193060601b166020820152603481019190915260009060540160408051808303601f19018152918152815160209283012060045460608901526000818152600590935281832080546001600160a01b0319166001600160a01b038b16179055905190925082917fb5e6e01e79f91267dc17b4e6314d5d4d03593d2ceee0fbb452b750bd70ea5af991a2600082600080886000015189602001518a604001518b606001518a8d6080015160000151604051602401610e86989796959493929190611623565b60408051601f198184030181529181526020820180516001600160e01b03166001600160e01b0319909416939093179092526002549151630200057560e51b81529092506001600160a01b0390911690634000aea090610eee908a908990869060040161168b565b602060405180830381600087803b158015610f0857600080fd5b505af1158015610f1c573d6000803e3d6000fd5b505050506040513d601f19601f82011682018060405250810190610f40919061140c565b610f985760405162461bcd60e51b815260206004820152602360248201527f756e61626c6520746f207472616e73666572416e6443616c6c20746f206f7261604482015262636c6560e81b606482015260840161025f565b600160046000828254610fab91906117ab565b9091555091979650505050505050565b604080518082019091526060815260006020820152610fdb6020836119ff565b1561100357610feb6020836119ff565b610ff6906020611949565b61100090836117ab565b91505b506020808301829052604080518085526000815283019091019052815b92915050565b60178111611047576110418360e0600585901b168317611128565b50505050565b60ff811161107157611064836018611fe0600586901b1617611128565b506110418382600161114d565b61ffff811161109c5761108f836019611fe0600586901b1617611128565b506110418382600261114d565b63ffffffff81116110c9576110bc83601a611fe0600586901b1617611128565b506110418382600461114d565b67ffffffffffffffff8111610b65576110ed83601b611fe0600586901b1617611128565b506110418382600861114d565b60408051808201909152606081526000602082015261112183846000015151848551611173565b9392505050565b604080518082019091526060815260006020820152611121838460000151518461125d565b604080518082019091526060815260006020820152610b818485600001515185856112b9565b604080518082019091526060815260006020820152825182111561119657600080fd5b60208501516111a583866117ab565b11156111d8576111d8856111c8876020015187866111c391906117ab565b61133a565b6111d3906002611909565b611351565b6000808651805187602083010193508088870111156111f75787860182525b505050602084015b6020841061123757805182526112166020836117ab565b91506112236020826117ab565b9050611230602085611949565b93506111ff565b51815160001960208690036101000a019081169019919091161790525083949350505050565b604080518082019091526060815260006020820152836020015183106112925761129284856020015160026111d39190611909565b8351805160208583010184815350808514156112af576001810182525b5093949350505050565b60408051808201909152606081526000602082015260208501516112dd85846117ab565b11156112f1576112f1856111c886856117ab565b6000600161130184610100611861565b61130b9190611949565b905085518386820101858319825116178152508051848701111561132f5783860181525b509495945050505050565b60008183111561134b575081611020565b50919050565b815161135d8383610fbb565b5061104183826110fa565b6040805160a0810182526000808252602080830182905282840182905260608084018390528451808601909552845283015290608082015290565b80356001600160a01b0381168114610d9357600080fd5b6000602082840312156113cb578081fd5b611121826113a3565b600080600080608085870312156113e9578283fd5b6113f2856113a3565b966020860135965060408601359560600135945092505050565b60006020828403121561141d578081fd5b815161112181611a3f565b6000806040838503121561143a578182fd5b82359150602083013561144c81611a3f565b809150509250929050565b60008060408385031215611469578182fd5b50508035926020909101359150565b60008151808452611490816020860160208601611983565b601f01601f19169290920160200192915050565b8054600090600181811c90808316806114be57607f831692505b60208084108214156114de57634e487b7160e01b86526022600452602486fd5b8180156114f2576001811461150357611530565b60ff19861689528489019650611530565b60008881526020902060005b868110156115285781548b82015290850190830161150f565b505084890196505b50505050505092915050565b600061154882856114a4565b7f67657470726963653f636f6e7472616374416464726573733d307800000000008152835161157e81601b840160208801611983565b01601b01949350505050565b600061159682876114a4565b730eccae4d2ccf27ec6ded8d8cac6e8d2dedc7a60f60631b815285516115c3816014840160208a01611983565b6826746f6b656e49643d60b81b6014929091019182015284516115ed81601d840160208901611983565b66266e6f6e63653d60c81b601d92909101918201528351611615816024840160208801611983565b016024019695505050505050565b6001600160a01b0389811682526020820189905260408201889052861660608201526001600160e01b03198516608082015260a0810184905260c0810183905261010060e0820181905260009061167c83820185611478565b9b9a5050505050505050505050565b60018060a01b03841681528260208201526060604082015260006109db6060830184611478565b600060c08201905084825260018060a01b03808551166020840152806020860151166040840152506040840151606083015260608401516004811061170757634e487b7160e01b600052602160045260246000fd5b608083015291151560a09091015292915050565b6020815260006111216020830184611478565b6020808252818101527f4f776e61626c653a2063616c6c6572206973206e6f7420746865206f776e6572604082015260600190565b60208082526028908201527f536f75726365206d75737420626520746865206f7261636c65206f6620746865604082015267081c995c5d595cdd60c21b606082015260800190565b600082198211156117be576117be611a13565b500190565b600060ff821660ff84168060ff038211156117e0576117e0611a13565b019392505050565b6000826117f7576117f7611a29565b500490565b600060ff83168061180f5761180f611a29565b8060ff84160491505092915050565b600181815b8085111561185957816000190482111561183f5761183f611a13565b8085161561184c57918102915b93841c9390800290611823565b509250929050565b6000611121838360008261187757506001611020565b8161188457506000611020565b816001811461189a57600281146118a4576118c0565b6001915050611020565b60ff8411156118b5576118b5611a13565b50506001821b611020565b5060208310610133831016604e8410600b84101617156118e3575081810a611020565b6118ed838361181e565b806000190482111561190157611901611a13565b029392505050565b600081600019048311821515161561192357611923611a13565b500290565b600060ff821660ff84168160ff048111821515161561190157611901611a13565b60008282101561195b5761195b611a13565b500390565b600060ff821660ff84168082101561197a5761197a611a13565b90039392505050565b60005b8381101561199e578181015183820152602001611986565b838111156110415750506000910152565b600181811c908216806119c357607f821691505b6020821081141561134b57634e487b7160e01b600052602260045260246000fd5b60006000198214156119f8576119f8611a13565b5060010190565b600082611a0e57611a0e611a29565b500690565b634e487b7160e01b600052601160045260246000fd5b634e487b7160e01b600052601260045260246000fd5b801515811461099257600080fdfea26469706673582212202aa93e9f58c1574c25d08af13331e9411111e0a9d8eb8af09ae5f6e2f85a329164736f6c6343000804003368747470733a2f2f6e66742d76616c696461746f722d68776b37782e6f6e6469676974616c6f6365616e2e6170702f",
  "devdoc": {
    "details": "the ownership will be transferred after deployment to the router contract",
    "kind": "dev",
    "methods": {
      "owner()": {
        "details": "Returns the address of the current owner."
      },
      "processBuybackPriceResponse(bytes32,uint256)": {
        "details": "function to process the oracle response (only callable from oracle)",
        "params": {
          "buybackPrice": "the new buyback price",
          "requestId": "the id of the request to the Chainlink oracle"
        }
      },
      "processResponse(bytes32,bool)": {
        "details": "function to process the oracle response (only callable from oracle)",
        "params": {
          "requestId": "the id of the request to the Chainlink oracle",
          "verified": "wether the nft is locked or not on ethereum"
        }
      },
      "renounceOwnership()": {
        "details": "Leaves the contract without owner. It will not be possible to call `onlyOwner` functions anymore. Can only be called by the current owner. NOTE: Renouncing ownership will leave the contract without an owner, thereby removing any functionality that is only available to the owner."
      },
      "transferOwnership(address)": {
        "details": "Transfers ownership of the contract to a new account (`newOwner`). Can only be called by the current owner."
      },
      "updateBuybackPrice(address)": {
        "details": "call to get the new buyback price      this method can be called only from the collection manager contract",
        "returns": {
          "requestId": "the id of the request to the Chainlink oracle"
        }
      },
      "verifyTokenInCollection(address,uint256,uint256,uint256)": {
        "details": "call to verify if a token is locked in ethereum vault,      this method can be called only from the collection manager contract",
        "params": {
          "currentState": "the current state",
          "ethereumCollection": "the collection address in ethereum",
          "nonce": "the nonce",
          "tokenId": "the id of the nft in the synthetic collection"
        },
        "returns": {
          "requestId": "the id of the request to the Chainlink oracle"
        }
      },
      "whitelistCollection(address)": {
        "details": "whitelist collections in order to allow calling this contract (only router can whitelist after deploying the proxy, the router contract owns this one)",
        "params": {
          "collectionId": "the collection manager (sythetic collection from polygon)"
        }
      }
    },
    "stateVariables": {
      "token": {
        "details": "oracle configuration parameters"
      }
    },
    "version": 1
  },
  "userdoc": {
    "kind": "user",
    "methods": {},
    "version": 1
  },
  "storageLayout": {
    "storage": [
      {
        "astId": 318,
        "contract": "contracts/polygon/chainlink/PolygonValidatorOracle.sol:PolygonValidatorOracle",
        "label": "ens",
        "offset": 0,
        "slot": "0",
        "type": "t_contract(ENSInterface)1083"
      },
      {
        "astId": 320,
        "contract": "contracts/polygon/chainlink/PolygonValidatorOracle.sol:PolygonValidatorOracle",
        "label": "ensNode",
        "offset": 0,
        "slot": "1",
        "type": "t_bytes32"
      },
      {
        "astId": 323,
        "contract": "contracts/polygon/chainlink/PolygonValidatorOracle.sol:PolygonValidatorOracle",
        "label": "link",
        "offset": 0,
        "slot": "2",
        "type": "t_contract(LinkTokenInterface)1178"
      },
      {
        "astId": 326,
        "contract": "contracts/polygon/chainlink/PolygonValidatorOracle.sol:PolygonValidatorOracle",
        "label": "oracle",
        "offset": 0,
        "slot": "3",
        "type": "t_contract(OperatorInterface)1260"
      },
      {
        "astId": 329,
        "contract": "contracts/polygon/chainlink/PolygonValidatorOracle.sol:PolygonValidatorOracle",
        "label": "requestCount",
        "offset": 0,
        "slot": "4",
        "type": "t_uint256"
      },
      {
        "astId": 333,
        "contract": "contracts/polygon/chainlink/PolygonValidatorOracle.sol:PolygonValidatorOracle",
        "label": "pendingRequests",
        "offset": 0,
        "slot": "5",
        "type": "t_mapping(t_bytes32,t_address)"
      },
      {
        "astId": 4235,
        "contract": "contracts/polygon/chainlink/PolygonValidatorOracle.sol:PolygonValidatorOracle",
        "label": "_owner",
        "offset": 0,
        "slot": "6",
        "type": "t_address"
      },
      {
        "astId": 21706,
        "contract": "contracts/polygon/chainlink/PolygonValidatorOracle.sol:PolygonValidatorOracle",
        "label": "token",
        "offset": 0,
        "slot": "7",
        "type": "t_string_storage"
      },
      {
        "astId": 21708,
        "contract": "contracts/polygon/chainlink/PolygonValidatorOracle.sol:PolygonValidatorOracle",
        "label": "apiURL",
        "offset": 0,
        "slot": "8",
        "type": "t_string_storage"
      },
      {
        "astId": 21710,
        "contract": "contracts/polygon/chainlink/PolygonValidatorOracle.sol:PolygonValidatorOracle",
        "label": "chainlinkNode",
        "offset": 0,
        "slot": "9",
        "type": "t_address"
      },
      {
        "astId": 21712,
        "contract": "contracts/polygon/chainlink/PolygonValidatorOracle.sol:PolygonValidatorOracle",
        "label": "booleanjobId",
        "offset": 0,
        "slot": "10",
        "type": "t_bytes32"
      },
      {
        "astId": 21714,
        "contract": "contracts/polygon/chainlink/PolygonValidatorOracle.sol:PolygonValidatorOracle",
        "label": "uint256JobId",
        "offset": 0,
        "slot": "11",
        "type": "t_bytes32"
      },
      {
        "astId": 21716,
        "contract": "contracts/polygon/chainlink/PolygonValidatorOracle.sol:PolygonValidatorOracle",
        "label": "nodeFee",
        "offset": 0,
        "slot": "12",
        "type": "t_uint256"
      },
      {
        "astId": 21718,
        "contract": "contracts/polygon/chainlink/PolygonValidatorOracle.sol:PolygonValidatorOracle",
        "label": "linkToken",
        "offset": 0,
        "slot": "13",
        "type": "t_address"
      },
      {
        "astId": 21723,
        "contract": "contracts/polygon/chainlink/PolygonValidatorOracle.sol:PolygonValidatorOracle",
        "label": "_verifyRequests",
        "offset": 0,
        "slot": "14",
        "type": "t_mapping(t_bytes32,t_struct(VerifyRequest)21678_storage)"
      },
      {
        "astId": 21728,
        "contract": "contracts/polygon/chainlink/PolygonValidatorOracle.sol:PolygonValidatorOracle",
        "label": "_updateRequests",
        "offset": 0,
        "slot": "15",
        "type": "t_mapping(t_bytes32,t_struct(UpdateRequest)21681_storage)"
      },
      {
        "astId": 21732,
        "contract": "contracts/polygon/chainlink/PolygonValidatorOracle.sol:PolygonValidatorOracle",
        "label": "_whitelistedCollections",
        "offset": 0,
        "slot": "16",
        "type": "t_mapping(t_address,t_bool)"
      }
    ],
    "types": {
      "t_address": {
        "encoding": "inplace",
        "label": "address",
        "numberOfBytes": "20"
      },
      "t_bool": {
        "encoding": "inplace",
        "label": "bool",
        "numberOfBytes": "1"
      },
      "t_bytes32": {
        "encoding": "inplace",
        "label": "bytes32",
        "numberOfBytes": "32"
      },
      "t_contract(ENSInterface)1083": {
        "encoding": "inplace",
        "label": "contract ENSInterface",
        "numberOfBytes": "20"
      },
      "t_contract(LinkTokenInterface)1178": {
        "encoding": "inplace",
        "label": "contract LinkTokenInterface",
        "numberOfBytes": "20"
      },
      "t_contract(OperatorInterface)1260": {
        "encoding": "inplace",
        "label": "contract OperatorInterface",
        "numberOfBytes": "20"
      },
      "t_enum(State)23369": {
        "encoding": "inplace",
        "label": "enum State",
        "numberOfBytes": "1"
      },
      "t_mapping(t_address,t_bool)": {
        "encoding": "mapping",
        "key": "t_address",
        "label": "mapping(address => bool)",
        "numberOfBytes": "32",
        "value": "t_bool"
      },
      "t_mapping(t_bytes32,t_address)": {
        "encoding": "mapping",
        "key": "t_bytes32",
        "label": "mapping(bytes32 => address)",
        "numberOfBytes": "32",
        "value": "t_address"
      },
      "t_mapping(t_bytes32,t_struct(UpdateRequest)21681_storage)": {
        "encoding": "mapping",
        "key": "t_bytes32",
        "label": "mapping(bytes32 => struct UpdateRequest)",
        "numberOfBytes": "32",
        "value": "t_struct(UpdateRequest)21681_storage"
      },
      "t_mapping(t_bytes32,t_struct(VerifyRequest)21678_storage)": {
        "encoding": "mapping",
        "key": "t_bytes32",
        "label": "mapping(bytes32 => struct VerifyRequest)",
        "numberOfBytes": "32",
        "value": "t_struct(VerifyRequest)21678_storage"
      },
      "t_string_storage": {
        "encoding": "bytes",
        "label": "string",
        "numberOfBytes": "32"
      },
      "t_struct(UpdateRequest)21681_storage": {
        "encoding": "inplace",
        "label": "struct UpdateRequest",
        "members": [
          {
            "astId": 21680,
            "contract": "contracts/polygon/chainlink/PolygonValidatorOracle.sol:PolygonValidatorOracle",
            "label": "syntheticCollection",
            "offset": 0,
            "slot": "0",
            "type": "t_address"
          }
        ],
        "numberOfBytes": "32"
      },
      "t_struct(VerifyRequest)21678_storage": {
        "encoding": "inplace",
        "label": "struct VerifyRequest",
        "members": [
          {
            "astId": 21670,
            "contract": "contracts/polygon/chainlink/PolygonValidatorOracle.sol:PolygonValidatorOracle",
            "label": "originalCollection",
            "offset": 0,
            "slot": "0",
            "type": "t_address"
          },
          {
            "astId": 21672,
            "contract": "contracts/polygon/chainlink/PolygonValidatorOracle.sol:PolygonValidatorOracle",
            "label": "syntheticCollection",
            "offset": 0,
            "slot": "1",
            "type": "t_address"
          },
          {
            "astId": 21674,
            "contract": "contracts/polygon/chainlink/PolygonValidatorOracle.sol:PolygonValidatorOracle",
            "label": "tokenId",
            "offset": 0,
            "slot": "2",
            "type": "t_uint256"
          },
          {
            "astId": 21677,
            "contract": "contracts/polygon/chainlink/PolygonValidatorOracle.sol:PolygonValidatorOracle",
            "label": "previousState",
            "offset": 0,
            "slot": "3",
            "type": "t_enum(State)23369"
          }
        ],
        "numberOfBytes": "128"
      },
      "t_uint256": {
        "encoding": "inplace",
        "label": "uint256",
        "numberOfBytes": "32"
      }
    }
  }
}