{
  "address": "0xd4599ce52CcF082bc0a7a6770076c0070Ed7e843",
  "abi": [
    {
      "inputs": [],
      "name": "getFeeAccrued",
      "outputs": [
        {
          "internalType": "int256",
          "name": "",
          "type": "int256"
        }
      ],
      "stateMutability": "view",
      "type": "function"
    },
    {
      "inputs": [],
      "name": "getLastUpdateBlock",
      "outputs": [
        {
          "internalType": "uint256",
          "name": "",
          "type": "uint256"
        }
      ],
      "stateMutability": "view",
      "type": "function"
    },
    {
      "inputs": [],
      "name": "getLiquidity",
      "outputs": [
        {
          "internalType": "int256",
          "name": "",
          "type": "int256"
        }
      ],
      "stateMutability": "view",
      "type": "function"
    },
    {
      "inputs": [],
      "name": "getProtocolAddresses",
      "outputs": [
        {
          "internalType": "address",
          "name": "bTokenAddress",
          "type": "address"
        },
        {
          "internalType": "address",
          "name": "lTokenAddress",
          "type": "address"
        },
        {
          "internalType": "address",
          "name": "pTokenAddress",
          "type": "address"
        },
        {
          "internalType": "address",
          "name": "liquidatorQualifierAddress",
          "type": "address"
        },
        {
          "internalType": "address",
          "name": "protocolFeeCollector",
          "type": "address"
        },
        {
          "internalType": "address",
          "name": "underlyingAddress",
          "type": "address"
        },
        {
          "internalType": "address",
          "name": "protocolAddress",
          "type": "address"
        }
      ],
      "stateMutability": "view",
      "type": "function"
    },
    {
      "inputs": [],
      "name": "getProtocolParameters",
      "outputs": [
        {
          "internalType": "int256",
          "name": "minPoolMarginRatio",
          "type": "int256"
        },
        {
          "internalType": "int256",
          "name": "minInitialMarginRatio",
          "type": "int256"
        },
        {
          "internalType": "int256",
          "name": "minMaintenanceMarginRatio",
          "type": "int256"
        },
        {
          "internalType": "int256",
          "name": "minLiquidationReward",
          "type": "int256"
        },
        {
          "internalType": "int256",
          "name": "maxLiquidationReward",
          "type": "int256"
        },
        {
          "internalType": "int256",
          "name": "liquidationCutRatio",
          "type": "int256"
        },
        {
          "internalType": "int256",
          "name": "protocolFeeCollectRatio",
          "type": "int256"
        }
      ],
      "stateMutability": "view",
      "type": "function"
    },
    {
      "inputs": [
        {
          "internalType": "address",
          "name": "account",
          "type": "address"
        }
      ],
      "name": "getTraderMarginRatio",
      "outputs": [
        {
          "internalType": "int256",
          "name": "",
          "type": "int256"
        }
      ],
      "stateMutability": "view",
      "type": "function"
    },
    {
      "inputs": [
        {
          "internalType": "address",
          "name": "account",
          "type": "address"
        }
      ],
      "name": "getTraderPortfolio",
      "outputs": [
        {
          "components": [
            {
              "internalType": "int256",
              "name": "volume",
              "type": "int256"
            },
            {
              "internalType": "int256",
              "name": "cost",
              "type": "int256"
            },
            {
              "internalType": "int256",
              "name": "lastCumulativeFundingRate",
              "type": "int256"
            }
          ],
          "internalType": "struct IPTokenLite.Position",
          "name": "position",
          "type": "tuple"
        },
        {
          "internalType": "int256",
          "name": "margin",
          "type": "int256"
        }
      ],
      "stateMutability": "view",
      "type": "function"
    },
    {
      "inputs": [
        {
          "internalType": "address",
          "name": "_poolAddress",
          "type": "address"
        }
      ],
      "name": "initialize",
      "outputs": [],
      "stateMutability": "nonpayable",
      "type": "function"
    },
    {
      "inputs": [],
      "name": "poolAddress",
      "outputs": [
        {
          "internalType": "address",
          "name": "",
          "type": "address"
        }
      ],
      "stateMutability": "view",
      "type": "function"
    }
  ],
  "transactionHash": "0x861296b95839f476f7164d84b37717705e8fe3959a2b2175b31f260be7962605",
  "args": [],
  "solcInputHash": "c4f982ba355f4fad187ef6ebb13cfa70",
  "bytecode": "0x608060405234801561001057600080fd5b50610b0c806100206000396000f3fe608060405234801561001057600080fd5b50600436106100935760003560e01c806382dea2581161006657806382dea258146100f4578063a1774da014610107578063c4d66de814610158578063c58aad871461016d578063f12c9f0e146101aa57600080fd5b8063010442171461009857806307e2ee0f146100b35780630910a510146100bb5780631755ff21146100c3575b600080fd5b6100a06101e4565b6040519081526020015b60405180910390f35b6100a0610270565b6100a06102bf565b6000546100dc906201000090046001600160a01b031681565b6040516001600160a01b0390911681526020016100aa565b6100a061010236600461078b565b61030e565b61010f61046e565b604080516001600160a01b039889168152968816602088015294871694860194909452918516606085015284166080840152831660a083015290911660c082015260e0016100aa565b61016b61016636600461078b565b610514565b005b6101756105ef565b604080519788526020880196909652948601939093526060850191909152608084015260a083015260c082015260e0016100aa565b6101bd6101b836600461078b565b61067f565b604080518351815260208085015190820152928101519083015260608201526080016100aa565b60008060029054906101000a90046001600160a01b03166001600160a01b031663d608c07d6040518163ffffffff1660e01b815260040160206040518083038186803b15801561023357600080fd5b505afa158015610247573d6000803e3d6000fd5b505050506040513d601f19601f8201168201806040525081019061026b9190610849565b905090565b60008060029054906101000a90046001600160a01b03166001600160a01b03166307e2ee0f6040518163ffffffff1660e01b815260040160206040518083038186803b15801561023357600080fd5b60008060029054906101000a90046001600160a01b03166001600160a01b0316630910a5106040518163ffffffff1660e01b815260040160206040518083038186803b15801561023357600080fd5b600080600061031c8461067f565b91509150600080600060029054906101000a90046001600160a01b03166001600160a01b031663dfd198986040518163ffffffff1660e01b8152600401604080518083038186803b15801561037057600080fd5b505afa158015610384573d6000803e3d6000fd5b505050506040513d601f19601f820116820180604052508101906103a89190610861565b85519193509150839060009015610431576000670de0b6b3a764000084670de0b6b3a7640000878a600001516103de91906109cc565b6103e89190610992565b6103f291906109cc565b6103fc9190610992565b905086602001518161040e9190610a4f565b6104189084610951565b925061042381610731565b61042d9083610951565b9150505b8015610459578061044a670de0b6b3a7640000846109cc565b6104549190610992565b610462565b6001600160ff1b035b98975050505050505050565b60008060008060008060008060029054906101000a90046001600160a01b03166001600160a01b031663a39fac126040518163ffffffff1660e01b815260040160e06040518083038186803b1580156104c657600080fd5b505afa1580156104da573d6000803e3d6000fd5b505050506040513d601f19601f820116820180604052508101906104fe91906107ae565b959d949c50929a50909850965094509092509050565b600054610100900460ff168061052d575060005460ff16155b6105955760405162461bcd60e51b815260206004820152602e60248201527f496e697469616c697a61626c653a20636f6e747261637420697320616c72656160448201526d191e481a5b9a5d1a585b1a5e995960921b60648201526084015b60405180910390fd5b600054610100900460ff161580156105b7576000805461ffff19166101011790555b6000805462010000600160b01b031916620100006001600160a01b0385160217905580156105eb576000805461ff00191690555b5050565b60008060008060008060008060029054906101000a90046001600160a01b03166001600160a01b031663a5ea11da6040518163ffffffff1660e01b815260040160e06040518083038186803b15801561064757600080fd5b505afa15801561065b573d6000803e3d6000fd5b505050506040513d601f19601f820116820180604052508101906104fe9190610884565b6106a360405180606001604052806000815260200160008152602001600081525090565b600080546040516378964f8760e11b81526001600160a01b038581166004830152620100009092049091169063f12c9f0e9060240160806040518083038186803b1580156106f057600080fd5b505afa158015610704573d6000803e3d6000fd5b505050506040513d601f19601f8201168201806040525081019061072891906108d7565b91509150915091565b6000600160ff1b82141561076c5760405162461bcd60e51b8152602060048201526002602482015261414f60f01b604482015260640161058c565b60008212156107835761077e82610a8e565b610785565b815b92915050565b60006020828403121561079c578081fd5b81356107a781610abe565b9392505050565b600080600080600080600060e0888a0312156107c8578283fd5b87516107d381610abe565b60208901519097506107e481610abe565b60408901519096506107f581610abe565b606089015190955061080681610abe565b608089015190945061081781610abe565b60a089015190935061082881610abe565b60c089015190925061083981610abe565b8091505092959891949750929550565b60006020828403121561085a578081fd5b5051919050565b60008060408385031215610873578182fd5b505080516020909101519092909150565b600080600080600080600060e0888a03121561089e578283fd5b5050855160208701516040880151606089015160808a015160a08b015160c0909b0151949c939b50919990985090965094509092509050565b60008082840360808112156108ea578283fd5b60608112156108f7578283fd5b506040516060810181811067ffffffffffffffff8211171561092757634e487b7160e01b84526041600452602484fd5b60409081528451825260208086015190830152848101519082015260609093015192949293505050565b600080821280156001600160ff1b038490038513161561097357610973610aa8565b600160ff1b839003841281161561098c5761098c610aa8565b50500190565b6000826109ad57634e487b7160e01b81526012600452602481fd5b600160ff1b8214600019841416156109c7576109c7610aa8565b500590565b60006001600160ff1b03818413828413808216868404861116156109f2576109f2610aa8565b600160ff1b84871282811687830589121615610a1057610a10610aa8565b858712925087820587128484161615610a2b57610a2b610aa8565b87850587128184161615610a4157610a41610aa8565b505050929093029392505050565b60008083128015600160ff1b850184121615610a6d57610a6d610aa8565b6001600160ff1b0384018313811615610a8857610a88610aa8565b50500390565b6000600160ff1b821415610aa457610aa4610aa8565b0390565b634e487b7160e01b600052601160045260246000fd5b6001600160a01b0381168114610ad357600080fd5b5056fea2646970667358221220203f475b3028ee4a7f54382b28fb0f9cbf1f3c6c22a72d6afe68e922aefea88e64736f6c63430008040033",
  "devdoc": {
    "kind": "dev",
    "methods": {},
    "version": 1
  },
  "userdoc": {
    "kind": "user",
    "methods": {},
    "version": 1
  },
  "storageLayout": {
    "storage": [
      {
        "astId": 5461,
        "contract": "contracts/perpetual_futures/PoolInfo.sol:PoolInfo",
        "label": "_initialized",
        "offset": 0,
        "slot": "0",
        "type": "t_bool"
      },
      {
        "astId": 5464,
        "contract": "contracts/perpetual_futures/PoolInfo.sol:PoolInfo",
        "label": "_initializing",
        "offset": 1,
        "slot": "0",
        "type": "t_bool"
      },
      {
        "astId": 13559,
        "contract": "contracts/perpetual_futures/PoolInfo.sol:PoolInfo",
        "label": "poolAddress",
        "offset": 2,
        "slot": "0",
        "type": "t_address"
      }
    ],
    "types": {
      "t_address": {
        "encoding": "inplace",
        "label": "address",
        "numberOfBytes": "20"
      },
      "t_bool": {
        "encoding": "inplace",
        "label": "bool",
        "numberOfBytes": "1"
      }
    }
  }
}