{
  "address": "0xE3e26A32B78E793725DD877D753c7bc854F8bcaf",
  "abi": [
    {
      "inputs": [],
      "name": "getFeeAccrued",
      "outputs": [
        {
          "internalType": "int256",
          "name": "",
          "type": "int256"
        }
      ],
      "stateMutability": "view",
      "type": "function"
    },
    {
      "inputs": [],
      "name": "getFundingRates",
      "outputs": [
        {
          "internalType": "int256",
          "name": "totalDynamicEquity",
          "type": "int256"
        },
        {
          "internalType": "int256",
          "name": "totalAbsCost",
          "type": "int256"
        },
        {
          "internalType": "int256",
          "name": "cumulativeFundingRate",
          "type": "int256"
        }
      ],
      "stateMutability": "view",
      "type": "function"
    },
    {
      "inputs": [],
      "name": "getLastUpdateBlock",
      "outputs": [
        {
          "internalType": "uint256",
          "name": "",
          "type": "uint256"
        }
      ],
      "stateMutability": "view",
      "type": "function"
    },
    {
      "inputs": [],
      "name": "getLiquidity",
      "outputs": [
        {
          "internalType": "int256",
          "name": "",
          "type": "int256"
        }
      ],
      "stateMutability": "view",
      "type": "function"
    },
    {
      "inputs": [],
      "name": "getProtocolAddresses",
      "outputs": [
        {
          "internalType": "address",
          "name": "bTokenAddress",
          "type": "address"
        },
        {
          "internalType": "address",
          "name": "lTokenAddress",
          "type": "address"
        },
        {
          "internalType": "address",
          "name": "pTokenAddress",
          "type": "address"
        },
        {
          "internalType": "address",
          "name": "liquidatorQualifierAddress",
          "type": "address"
        },
        {
          "internalType": "address",
          "name": "protocolFeeCollector",
          "type": "address"
        },
        {
          "internalType": "address",
          "name": "underlyingAddress",
          "type": "address"
        },
        {
          "internalType": "address",
          "name": "protocolAddress",
          "type": "address"
        }
      ],
      "stateMutability": "view",
      "type": "function"
    },
    {
      "inputs": [],
      "name": "getProtocolParameters",
      "outputs": [
        {
          "internalType": "int256",
          "name": "minPoolMarginRatio",
          "type": "int256"
        },
        {
          "internalType": "int256",
          "name": "minInitialMarginRatio",
          "type": "int256"
        },
        {
          "internalType": "int256",
          "name": "minMaintenanceMarginRatio",
          "type": "int256"
        },
        {
          "internalType": "int256",
          "name": "minLiquidationReward",
          "type": "int256"
        },
        {
          "internalType": "int256",
          "name": "maxLiquidationReward",
          "type": "int256"
        },
        {
          "internalType": "int256",
          "name": "liquidationCutRatio",
          "type": "int256"
        },
        {
          "internalType": "int256",
          "name": "protocolFeeCollectRatio",
          "type": "int256"
        }
      ],
      "stateMutability": "view",
      "type": "function"
    },
    {
      "inputs": [
        {
          "internalType": "address",
          "name": "account",
          "type": "address"
        }
      ],
      "name": "getTraderMarginRatio",
      "outputs": [
        {
          "internalType": "int256",
          "name": "",
          "type": "int256"
        }
      ],
      "stateMutability": "view",
      "type": "function"
    },
    {
      "inputs": [
        {
          "internalType": "address",
          "name": "account",
          "type": "address"
        }
      ],
      "name": "getTraderPortfolio",
      "outputs": [
        {
          "components": [
            {
              "internalType": "int256",
              "name": "volume",
              "type": "int256"
            },
            {
              "internalType": "int256",
              "name": "cost",
              "type": "int256"
            },
            {
              "internalType": "int256",
              "name": "lastCumulativeFundingRate",
              "type": "int256"
            }
          ],
          "internalType": "struct IPTokenLite.Position",
          "name": "position",
          "type": "tuple"
        },
        {
          "internalType": "int256",
          "name": "margin",
          "type": "int256"
        }
      ],
      "stateMutability": "view",
      "type": "function"
    },
    {
      "inputs": [
        {
          "internalType": "address",
          "name": "_poolAddress",
          "type": "address"
        }
      ],
      "name": "initialize",
      "outputs": [],
      "stateMutability": "nonpayable",
      "type": "function"
    },
    {
      "inputs": [],
      "name": "poolAddress",
      "outputs": [
        {
          "internalType": "address",
          "name": "",
          "type": "address"
        }
      ],
      "stateMutability": "view",
      "type": "function"
    }
  ],
  "transactionHash": "0xba904f66cad6328aace191bc0f8da8b4bddfbb03b9062507efa21348d2a76ce9",
  "args": [],
  "solcInputHash": "9cd843add4fd8e43f28cc692719e78bf",
  "bytecode": "0x608060405234801561001057600080fd5b50610bfd806100206000396000f3fe608060405234801561001057600080fd5b506004361061009e5760003560e01c806382dea2581161006657806382dea25814610122578063a1774da014610135578063c4d66de814610186578063c58aad871461019b578063f12c9f0e146101d857600080fd5b806301044217146100a357806307e2ee0f146100be5780630910a510146100c65780631755ff21146100ce57806371ffb8cb146100ff575b600080fd5b6100ab610212565b6040519081526020015b60405180910390f35b6100ab61029e565b6100ab6102ed565b6000546100e7906201000090046001600160a01b031681565b6040516001600160a01b0390911681526020016100b5565b61010761033c565b604080519384526020840192909252908201526060016100b5565b6100ab61013036600461084f565b6103d2565b61013d610532565b604080516001600160a01b039889168152968816602088015294871694860194909452918516606085015284166080840152831660a083015290911660c082015260e0016100b5565b61019961019436600461084f565b6105d8565b005b6101a36106b3565b604080519788526020880196909652948601939093526060850191909152608084015260a083015260c082015260e0016100b5565b6101eb6101e636600461084f565b610743565b604080518351815260208085015190820152928101519083015260608201526080016100b5565b60008060029054906101000a90046001600160a01b03166001600160a01b031663d608c07d6040518163ffffffff1660e01b815260040160206040518083038186803b15801561026157600080fd5b505afa158015610275573d6000803e3d6000fd5b505050506040513d601f19601f82011682018060405250810190610299919061090d565b905090565b60008060029054906101000a90046001600160a01b03166001600160a01b03166307e2ee0f6040518163ffffffff1660e01b815260040160206040518083038186803b15801561026157600080fd5b60008060029054906101000a90046001600160a01b03166001600160a01b0316630910a5106040518163ffffffff1660e01b815260040160206040518083038186803b15801561026157600080fd5b60008060008060029054906101000a90046001600160a01b03166001600160a01b03166371ffb8cb6040518163ffffffff1660e01b815260040160606040518083038186803b15801561038e57600080fd5b505afa1580156103a2573d6000803e3d6000fd5b505050506040513d601f19601f820116820180604052508101906103c69190610948565b91959094509092509050565b60008060006103e084610743565b91509150600080600060029054906101000a90046001600160a01b03166001600160a01b031663dfd198986040518163ffffffff1660e01b8152600401604080518083038186803b15801561043457600080fd5b505afa158015610448573d6000803e3d6000fd5b505050506040513d601f19601f8201168201806040525081019061046c9190610925565b855191935091508390600090156104f5576000670de0b6b3a764000084670de0b6b3a7640000878a600001516104a29190610abd565b6104ac9190610a83565b6104b69190610abd565b6104c09190610a83565b90508660200151816104d29190610b40565b6104dc9084610a42565b92506104e7816107f5565b6104f19083610a42565b9150505b801561051d578061050e670de0b6b3a764000084610abd565b6105189190610a83565b610526565b6001600160ff1b035b98975050505050505050565b60008060008060008060008060029054906101000a90046001600160a01b03166001600160a01b031663a39fac126040518163ffffffff1660e01b815260040160e06040518083038186803b15801561058a57600080fd5b505afa15801561059e573d6000803e3d6000fd5b505050506040513d601f19601f820116820180604052508101906105c29190610872565b959d949c50929a50909850965094509092509050565b600054610100900460ff16806105f1575060005460ff16155b6106595760405162461bcd60e51b815260206004820152602e60248201527f496e697469616c697a61626c653a20636f6e747261637420697320616c72656160448201526d191e481a5b9a5d1a585b1a5e995960921b60648201526084015b60405180910390fd5b600054610100900460ff1615801561067b576000805461ffff19166101011790555b6000805462010000600160b01b031916620100006001600160a01b0385160217905580156106af576000805461ff00191690555b5050565b60008060008060008060008060029054906101000a90046001600160a01b03166001600160a01b031663a5ea11da6040518163ffffffff1660e01b815260040160e06040518083038186803b15801561070b57600080fd5b505afa15801561071f573d6000803e3d6000fd5b505050506040513d601f19601f820116820180604052508101906105c29190610975565b61076760405180606001604052806000815260200160008152602001600081525090565b600080546040516378964f8760e11b81526001600160a01b038581166004830152620100009092049091169063f12c9f0e9060240160806040518083038186803b1580156107b457600080fd5b505afa1580156107c8573d6000803e3d6000fd5b505050506040513d601f19601f820116820180604052508101906107ec91906109c8565b91509150915091565b6000600160ff1b8214156108305760405162461bcd60e51b8152602060048201526002602482015261414f60f01b6044820152606401610650565b60008212156108475761084282610b7f565b610849565b815b92915050565b600060208284031215610860578081fd5b813561086b81610baf565b9392505050565b600080600080600080600060e0888a03121561088c578283fd5b875161089781610baf565b60208901519097506108a881610baf565b60408901519096506108b981610baf565b60608901519095506108ca81610baf565b60808901519094506108db81610baf565b60a08901519093506108ec81610baf565b60c08901519092506108fd81610baf565b8091505092959891949750929550565b60006020828403121561091e578081fd5b5051919050565b60008060408385031215610937578182fd5b505080516020909101519092909150565b60008060006060848603121561095c578283fd5b8351925060208401519150604084015190509250925092565b600080600080600080600060e0888a03121561098f578283fd5b5050855160208701516040880151606089015160808a015160a08b015160c0909b0151949c939b50919990985090965094509092509050565b60008082840360808112156109db578283fd5b60608112156109e8578283fd5b506040516060810181811067ffffffffffffffff82111715610a1857634e487b7160e01b84526041600452602484fd5b60409081528451825260208086015190830152848101519082015260609093015192949293505050565b600080821280156001600160ff1b0384900385131615610a6457610a64610b99565b600160ff1b8390038412811615610a7d57610a7d610b99565b50500190565b600082610a9e57634e487b7160e01b81526012600452602481fd5b600160ff1b821460001984141615610ab857610ab8610b99565b500590565b60006001600160ff1b0381841382841380821686840486111615610ae357610ae3610b99565b600160ff1b84871282811687830589121615610b0157610b01610b99565b858712925087820587128484161615610b1c57610b1c610b99565b87850587128184161615610b3257610b32610b99565b505050929093029392505050565b60008083128015600160ff1b850184121615610b5e57610b5e610b99565b6001600160ff1b0384018313811615610b7957610b79610b99565b50500390565b6000600160ff1b821415610b9557610b95610b99565b0390565b634e487b7160e01b600052601160045260246000fd5b6001600160a01b0381168114610bc457600080fd5b5056fea26469706673582212200dd75a59576f7c1bfe59a23d4632a76d40d1a2a9815030dd5b27235533f50d8964736f6c63430008040033",
  "devdoc": {
    "kind": "dev",
    "methods": {},
    "version": 1
  },
  "userdoc": {
    "kind": "user",
    "methods": {},
    "version": 1
  },
  "storageLayout": {
    "storage": [
      {
        "astId": 7665,
        "contract": "contracts/perpetual_futures/PoolInfo.sol:PoolInfo",
        "label": "_initialized",
        "offset": 0,
        "slot": "0",
        "type": "t_bool"
      },
      {
        "astId": 7668,
        "contract": "contracts/perpetual_futures/PoolInfo.sol:PoolInfo",
        "label": "_initializing",
        "offset": 1,
        "slot": "0",
        "type": "t_bool"
      },
      {
        "astId": 16094,
        "contract": "contracts/perpetual_futures/PoolInfo.sol:PoolInfo",
        "label": "poolAddress",
        "offset": 2,
        "slot": "0",
        "type": "t_address"
      }
    ],
    "types": {
      "t_address": {
        "encoding": "inplace",
        "label": "address",
        "numberOfBytes": "20"
      },
      "t_bool": {
        "encoding": "inplace",
        "label": "bool",
        "numberOfBytes": "1"
      }
    }
  }
}