{
  "contractName": "PRIVIERC721",
  "abi": [
    {
      "inputs": [
        {
          "internalType": "string",
          "name": "name",
          "type": "string"
        },
        {
          "internalType": "string",
          "name": "symbol",
          "type": "string"
        }
      ],
      "stateMutability": "nonpayable",
      "type": "constructor"
    },
    {
      "anonymous": false,
      "inputs": [
        {
          "indexed": true,
          "internalType": "address",
          "name": "owner",
          "type": "address"
        },
        {
          "indexed": true,
          "internalType": "address",
          "name": "approved",
          "type": "address"
        },
        {
          "indexed": true,
          "internalType": "uint256",
          "name": "tokenId",
          "type": "uint256"
        }
      ],
      "name": "Approval",
      "type": "event"
    },
    {
      "anonymous": false,
      "inputs": [
        {
          "indexed": true,
          "internalType": "address",
          "name": "owner",
          "type": "address"
        },
        {
          "indexed": true,
          "internalType": "address",
          "name": "operator",
          "type": "address"
        },
        {
          "indexed": false,
          "internalType": "bool",
          "name": "approved",
          "type": "bool"
        }
      ],
      "name": "ApprovalForAll",
      "type": "event"
    },
    {
      "anonymous": false,
      "inputs": [
        {
          "indexed": true,
          "internalType": "address",
          "name": "from",
          "type": "address"
        },
        {
          "indexed": true,
          "internalType": "address",
          "name": "to",
          "type": "address"
        },
        {
          "indexed": true,
          "internalType": "uint256",
          "name": "tokenId",
          "type": "uint256"
        }
      ],
      "name": "Transfer",
      "type": "event"
    },
    {
      "inputs": [
        {
          "internalType": "address",
          "name": "to",
          "type": "address"
        },
        {
          "internalType": "uint256",
          "name": "tokenId",
          "type": "uint256"
        }
      ],
      "name": "approve",
      "outputs": [],
      "stateMutability": "nonpayable",
      "type": "function"
    },
    {
      "inputs": [
        {
          "internalType": "address",
          "name": "owner",
          "type": "address"
        }
      ],
      "name": "balanceOf",
      "outputs": [
        {
          "internalType": "uint256",
          "name": "",
          "type": "uint256"
        }
      ],
      "stateMutability": "view",
      "type": "function",
      "constant": true
    },
    {
      "inputs": [
        {
          "internalType": "uint256",
          "name": "tokenId",
          "type": "uint256"
        }
      ],
      "name": "getApproved",
      "outputs": [
        {
          "internalType": "address",
          "name": "",
          "type": "address"
        }
      ],
      "stateMutability": "view",
      "type": "function",
      "constant": true
    },
    {
      "inputs": [
        {
          "internalType": "address",
          "name": "owner",
          "type": "address"
        },
        {
          "internalType": "address",
          "name": "operator",
          "type": "address"
        }
      ],
      "name": "isApprovedForAll",
      "outputs": [
        {
          "internalType": "bool",
          "name": "",
          "type": "bool"
        }
      ],
      "stateMutability": "view",
      "type": "function",
      "constant": true
    },
    {
      "inputs": [],
      "name": "name",
      "outputs": [
        {
          "internalType": "string",
          "name": "",
          "type": "string"
        }
      ],
      "stateMutability": "view",
      "type": "function",
      "constant": true
    },
    {
      "inputs": [
        {
          "internalType": "uint256",
          "name": "tokenId",
          "type": "uint256"
        }
      ],
      "name": "ownerOf",
      "outputs": [
        {
          "internalType": "address",
          "name": "",
          "type": "address"
        }
      ],
      "stateMutability": "view",
      "type": "function",
      "constant": true
    },
    {
      "inputs": [
        {
          "internalType": "address",
          "name": "from",
          "type": "address"
        },
        {
          "internalType": "address",
          "name": "to",
          "type": "address"
        },
        {
          "internalType": "uint256",
          "name": "tokenId",
          "type": "uint256"
        }
      ],
      "name": "safeTransferFrom",
      "outputs": [],
      "stateMutability": "nonpayable",
      "type": "function"
    },
    {
      "inputs": [
        {
          "internalType": "address",
          "name": "from",
          "type": "address"
        },
        {
          "internalType": "address",
          "name": "to",
          "type": "address"
        },
        {
          "internalType": "uint256",
          "name": "tokenId",
          "type": "uint256"
        },
        {
          "internalType": "bytes",
          "name": "_data",
          "type": "bytes"
        }
      ],
      "name": "safeTransferFrom",
      "outputs": [],
      "stateMutability": "nonpayable",
      "type": "function"
    },
    {
      "inputs": [
        {
          "internalType": "address",
          "name": "operator",
          "type": "address"
        },
        {
          "internalType": "bool",
          "name": "approved",
          "type": "bool"
        }
      ],
      "name": "setApprovalForAll",
      "outputs": [],
      "stateMutability": "nonpayable",
      "type": "function"
    },
    {
      "inputs": [
        {
          "internalType": "bytes4",
          "name": "interfaceId",
          "type": "bytes4"
        }
      ],
      "name": "supportsInterface",
      "outputs": [
        {
          "internalType": "bool",
          "name": "",
          "type": "bool"
        }
      ],
      "stateMutability": "view",
      "type": "function",
      "constant": true
    },
    {
      "inputs": [],
      "name": "symbol",
      "outputs": [
        {
          "internalType": "string",
          "name": "",
          "type": "string"
        }
      ],
      "stateMutability": "view",
      "type": "function",
      "constant": true
    },
    {
      "inputs": [
        {
          "internalType": "uint256",
          "name": "tokenId",
          "type": "uint256"
        }
      ],
      "name": "tokenURI",
      "outputs": [
        {
          "internalType": "string",
          "name": "",
          "type": "string"
        }
      ],
      "stateMutability": "view",
      "type": "function",
      "constant": true
    },
    {
      "inputs": [
        {
          "internalType": "address",
          "name": "from",
          "type": "address"
        },
        {
          "internalType": "address",
          "name": "to",
          "type": "address"
        },
        {
          "internalType": "uint256",
          "name": "tokenId",
          "type": "uint256"
        }
      ],
      "name": "transferFrom",
      "outputs": [],
      "stateMutability": "nonpayable",
      "type": "function"
    },
    {
      "inputs": [],
      "name": "baseURI",
      "outputs": [
        {
          "internalType": "string",
          "name": "",
          "type": "string"
        }
      ],
      "stateMutability": "view",
      "type": "function",
      "constant": true
    },
    {
      "inputs": [
        {
          "internalType": "uint256",
          "name": "tokenId",
          "type": "uint256"
        }
      ],
      "name": "exists",
      "outputs": [
        {
          "internalType": "bool",
          "name": "",
          "type": "bool"
        }
      ],
      "stateMutability": "view",
      "type": "function",
      "constant": true
    },
    {
      "inputs": [
        {
          "internalType": "address",
          "name": "to",
          "type": "address"
        },
        {
          "internalType": "uint256",
          "name": "tokenId",
          "type": "uint256"
        }
      ],
      "name": "mint",
      "outputs": [],
      "stateMutability": "nonpayable",
      "type": "function"
    },
    {
      "inputs": [
        {
          "internalType": "address",
          "name": "to",
          "type": "address"
        },
        {
          "internalType": "uint256",
          "name": "tokenId",
          "type": "uint256"
        },
        {
          "internalType": "bytes",
          "name": "_data",
          "type": "bytes"
        }
      ],
      "name": "safeMint",
      "outputs": [],
      "stateMutability": "nonpayable",
      "type": "function"
    },
    {
      "inputs": [
        {
          "internalType": "address",
          "name": "to",
          "type": "address"
        },
        {
          "internalType": "uint256",
          "name": "tokenId",
          "type": "uint256"
        }
      ],
      "name": "safeMint",
      "outputs": [],
      "stateMutability": "nonpayable",
      "type": "function"
    },
    {
      "inputs": [
        {
          "internalType": "uint256",
          "name": "tokenId",
          "type": "uint256"
        }
      ],
      "name": "burn",
      "outputs": [],
      "stateMutability": "nonpayable",
      "type": "function"
    }
  ],
  "bytecode": "0x60806040523480156200001157600080fd5b5060405162001b2238038062001b2283398101604081905262000034916200020a565b604080518082018252600b8082527f50524956494552433732310000000000000000000000000000000000000000006020808401828152855180870190965292855284015281519192916200008c91600091620000ad565b508051620000a2906001906020840190620000ad565b5050505050620002f9565b828054620000bb9062000274565b90600052602060002090601f016020900481019282620000df57600085556200012a565b82601f10620000fa57805160ff19168380011785556200012a565b828001600101855582156200012a579182015b828111156200012a5782518255916020019190600101906200010d565b50620001389291506200013c565b5090565b5b808211156200013857600081556001016200013d565b600082601f8301126200016557600080fd5b81516001604060020a0380821115620001825762000182620002ca565b604051601f8301601f19908116603f01168101908282118183101715620001ad57620001ad620002ca565b81604052838152602092508683858801011115620001ca57600080fd5b600091505b83821015620001ee5785820183015181830184015290820190620001cf565b83821115620002005760008385830101525b9695505050505050565b600080604083850312156200021e57600080fd5b82516001604060020a03808211156200023657600080fd5b620002448683870162000153565b935060208501519150808211156200025b57600080fd5b506200026a8582860162000153565b9150509250929050565b6002810460018216806200028957607f821691505b60208210811415620002c4577f4e487b7100000000000000000000000000000000000000000000000000000000600052602260045260246000fd5b50919050565b7f4e487b7100000000000000000000000000000000000000000000000000000000600052604160045260246000fd5b61181980620003096000396000f3fe608060405234801561001057600080fd5b506004361061013e576000357c0100000000000000000000000000000000000000000000000000000000900480636352211e116100ca578063a14481941161008e578063a144819414610276578063a22cb46514610289578063b88d4fde1461029c578063c87b56dd146102af578063e985e9c5146102c257600080fd5b80636352211e1461021f5780636c0360eb1461023257806370a082311461023a5780638832e6e31461025b57806395d89b411461026e57600080fd5b806323b872dd1161011157806323b872dd146101c057806340c10f19146101d357806342842e0e146101e657806342966c68146101f95780634f558e791461020c57600080fd5b806301ffc9a71461014357806306fdde031461016b578063081812fc14610180578063095ea7b3146101ab575b600080fd5b6101566101513660046114d6565b6102fe565b60405190151581526020015b60405180910390f35b61017361039b565b60405161016291906115c0565b61019361018e366004611510565b61042d565b604051600160a060020a039091168152602001610162565b6101be6101b9366004611455565b6104db565b005b6101be6101ce366004611375565b610613565b6101be6101e1366004611455565b610647565b6101be6101f4366004611375565b610655565b6101be610207366004611510565b610670565b61015661021a366004611510565b61067c565b61019361022d366004611510565b61069b565b610173610729565b61024d610248366004611327565b610745565b604051908152602001610162565b6101be61026936600461147f565b6107e2565b6101736107ed565b6101be610284366004611455565b6107fc565b6101be610297366004611419565b610806565b6101be6102aa3660046113b1565b6108ce565b6101736102bd366004611510565b610909565b6101566102d0366004611342565b600160a060020a03918216600090815260056020908152604080832093909416825291909152205460ff1690565b6000600160e060020a031982167f80ac58cd0000000000000000000000000000000000000000000000000000000014806103615750600160e060020a031982167f5b5e139f00000000000000000000000000000000000000000000000000000000145b8061039557507f01ffc9a700000000000000000000000000000000000000000000000000000000600160e060020a03198316145b92915050565b6060600080546103aa906116fc565b80601f01602080910402602001604051908101604052809291908181526020018280546103d6906116fc565b80156104235780601f106103f857610100808354040283529160200191610423565b820191906000526020600020905b81548152906001019060200180831161040657829003601f168201915b5050505050905090565b600081815260026020526040812054600160a060020a03166104bf5760405160e560020a62461bcd02815260206004820152602c60248201527f4552433732313a20617070726f76656420717565727920666f72206e6f6e657860448201527f697374656e7420746f6b656e000000000000000000000000000000000000000060648201526084015b60405180910390fd5b50600090815260046020526040902054600160a060020a031690565b60006104e68261069b565b905080600160a060020a031683600160a060020a031614156105735760405160e560020a62461bcd02815260206004820152602160248201527f4552433732313a20617070726f76616c20746f2063757272656e74206f776e6560448201527f720000000000000000000000000000000000000000000000000000000000000060648201526084016104b6565b33600160a060020a038216148061058f575061058f81336102d0565b6106045760405160e560020a62461bcd02815260206004820152603860248201527f4552433732313a20617070726f76652063616c6c6572206973206e6f74206f7760448201527f6e6572206e6f7220617070726f76656420666f7220616c6c000000000000000060648201526084016104b6565b61060e8383610a02565b505050565b61061d3382610a7d565b61063c5760405160e560020a62461bcd0281526004016104b690611630565b61060e838383610b88565b6106518282610d68565b5050565b61060e838383604051806020016040528060008152506108ce565b61067981610ebd565b50565b600081815260026020526040812054600160a060020a03161515610395565b600081815260026020526040812054600160a060020a0316806103955760405160e560020a62461bcd02815260206004820152602960248201527f4552433732313a206f776e657220717565727920666f72206e6f6e657869737460448201527f656e7420746f6b656e000000000000000000000000000000000000000000000060648201526084016104b6565b606061074060408051602081019091526000815290565b905090565b6000600160a060020a0382166107c65760405160e560020a62461bcd02815260206004820152602a60248201527f4552433732313a2062616c616e636520717565727920666f7220746865207a6560448201527f726f20616464726573730000000000000000000000000000000000000000000060648201526084016104b6565b50600160a060020a031660009081526003602052604090205490565b61060e838383610f65565b6060600180546103aa906116fc565b6106518282610f9b565b600160a060020a0382163314156108625760405160e560020a62461bcd02815260206004820152601960248201527f4552433732313a20617070726f766520746f2063616c6c65720000000000000060448201526064016104b6565b336000818152600560209081526040808320600160a060020a03871680855290835292819020805460ff191686151590811790915590519081529192917f17307eab39ab6107e8899845ad3d59bd9653f200f220920489ca2b5937696c31910160405180910390a35050565b6108d83383610a7d565b6108f75760405160e560020a62461bcd0281526004016104b690611630565b61090384848484610fb5565b50505050565b600081815260026020526040902054606090600160a060020a03166109995760405160e560020a62461bcd02815260206004820152602f60248201527f4552433732314d657461646174613a2055524920717565727920666f72206e6f60448201527f6e6578697374656e7420746f6b656e000000000000000000000000000000000060648201526084016104b6565b60006109b060408051602081019091526000815290565b905060008151116109d057604051806020016040528060008152506109fb565b806109da84610feb565b6040516020016109eb929190611555565b6040516020818303038152906040525b9392505050565b6000818152600460205260409020805473ffffffffffffffffffffffffffffffffffffffff1916600160a060020a0384169081179091558190610a448261069b565b600160a060020a03167f8c5be1e5ebec7d5bd14f71427d1e84f3dd0314c0f7b2291e5b200ac8c7c3b92560405160405180910390a45050565b600081815260026020526040812054600160a060020a0316610b0a5760405160e560020a62461bcd02815260206004820152602c60248201527f4552433732313a206f70657261746f7220717565727920666f72206e6f6e657860448201527f697374656e7420746f6b656e000000000000000000000000000000000000000060648201526084016104b6565b6000610b158361069b565b905080600160a060020a031684600160a060020a03161480610b50575083600160a060020a0316610b458461042d565b600160a060020a0316145b80610b805750600160a060020a0380821660009081526005602090815260408083209388168352929052205460ff165b949350505050565b82600160a060020a0316610b9b8261069b565b600160a060020a031614610c1a5760405160e560020a62461bcd02815260206004820152602960248201527f4552433732313a207472616e73666572206f6620746f6b656e2074686174206960448201527f73206e6f74206f776e000000000000000000000000000000000000000000000060648201526084016104b6565b600160a060020a038216610c985760405160e560020a62461bcd028152602060048201526024808201527f4552433732313a207472616e7366657220746f20746865207a65726f2061646460448201527f726573730000000000000000000000000000000000000000000000000000000060648201526084016104b6565b610ca3600082610a02565b600160a060020a0383166000908152600360205260408120805460019290610ccc9084906116b9565b9091555050600160a060020a0382166000908152600360205260408120805460019290610cfa90849061168d565b9091555050600081815260026020526040808220805473ffffffffffffffffffffffffffffffffffffffff1916600160a060020a0386811691821790925591518493918716917fddf252ad1be2c89b69c2b068fc378daa952ba7f163c4a11628f55a4df523b3ef91a4505050565b600160a060020a038216610dc15760405160e560020a62461bcd02815260206004820181905260248201527f4552433732313a206d696e7420746f20746865207a65726f206164647265737360448201526064016104b6565b600081815260026020526040902054600160a060020a031615610e295760405160e560020a62461bcd02815260206004820152601c60248201527f4552433732313a20746f6b656e20616c7265616479206d696e7465640000000060448201526064016104b6565b600160a060020a0382166000908152600360205260408120805460019290610e5290849061168d565b9091555050600081815260026020526040808220805473ffffffffffffffffffffffffffffffffffffffff1916600160a060020a03861690811790915590518392907fddf252ad1be2c89b69c2b068fc378daa952ba7f163c4a11628f55a4df523b3ef908290a45050565b6000610ec88261069b565b9050610ed5600083610a02565b600160a060020a0381166000908152600360205260408120805460019290610efe9084906116b9565b9091555050600082815260026020526040808220805473ffffffffffffffffffffffffffffffffffffffff1916905551839190600160a060020a038416907fddf252ad1be2c89b69c2b068fc378daa952ba7f163c4a11628f55a4df523b3ef908390a45050565b610f6f8383610d68565b610f7c600084848461113c565b61060e5760405160e560020a62461bcd0281526004016104b6906115d3565b610651828260405180602001604052806000815250610f65565b610fc0848484610b88565b610fcc8484848461113c565b6109035760405160e560020a62461bcd0281526004016104b6906115d3565b60608161102b57505060408051808201909152600181527f3000000000000000000000000000000000000000000000000000000000000000602082015290565b8160005b8115611055578061103f8161173a565b915061104e9050600a836116a5565b915061102f565b60008167ffffffffffffffff811115611070576110706117b4565b6040519080825280601f01601f19166020018201604052801561109a576020820181803683370190505b5090505b8415610b80576110af6001836116b9565b91506110bc600a86611755565b6110c790603061168d565b7f0100000000000000000000000000000000000000000000000000000000000000028183815181106110fb576110fb61179b565b60200101907effffffffffffffffffffffffffffffffffffffffffffffffffffffffffffff1916908160001a905350611135600a866116a5565b945061109e565b6000600160a060020a0384163b15611273576040517f150b7a02000000000000000000000000000000000000000000000000000000008152600160a060020a0385169063150b7a0290611199903390899088908890600401611584565b602060405180830381600087803b1580156111b357600080fd5b505af19250505080156111e3575060408051601f3d908101601f191682019092526111e0918101906114f3565b60015b611240573d808015611211576040519150601f19603f3d011682016040523d82523d6000602084013e611216565b606091505b5080516112385760405160e560020a62461bcd0281526004016104b6906115d3565b805181602001fd5b600160e060020a0319167f150b7a0200000000000000000000000000000000000000000000000000000000149050610b80565b506001949350505050565b8035600160a060020a038116811461129557600080fd5b919050565b600082601f8301126112ab57600080fd5b813567ffffffffffffffff808211156112c6576112c66117b4565b604051601f8301601f19908116603f011681019082821181831017156112ee576112ee6117b4565b8160405283815286602085880101111561130757600080fd5b836020870160208301376000602085830101528094505050505092915050565b60006020828403121561133957600080fd5b6109fb8261127e565b6000806040838503121561135557600080fd5b61135e8361127e565b915061136c6020840161127e565b90509250929050565b60008060006060848603121561138a57600080fd5b6113938461127e565b92506113a16020850161127e565b9150604084013590509250925092565b600080600080608085870312156113c757600080fd5b6113d08561127e565b93506113de6020860161127e565b925060408501359150606085013567ffffffffffffffff81111561140157600080fd5b61140d8782880161129a565b91505092959194509250565b6000806040838503121561142c57600080fd5b6114358361127e565b91506020830135801515811461144a57600080fd5b809150509250929050565b6000806040838503121561146857600080fd5b6114718361127e565b946020939093013593505050565b60008060006060848603121561149457600080fd5b61149d8461127e565b925060208401359150604084013567ffffffffffffffff8111156114c057600080fd5b6114cc8682870161129a565b9150509250925092565b6000602082840312156114e857600080fd5b81356109fb816117cd565b60006020828403121561150557600080fd5b81516109fb816117cd565b60006020828403121561152257600080fd5b5035919050565b600081518084526115418160208601602086016116d0565b601f01601f19169290920160200192915050565b600083516115678184602088016116d0565b83519083019061157b8183602088016116d0565b01949350505050565b6000600160a060020a038087168352808616602084015250836040830152608060608301526115b66080830184611529565b9695505050505050565b6020815260006109fb6020830184611529565b60208082526032908201527f4552433732313a207472616e7366657220746f206e6f6e20455243373231526560408201527f63656976657220696d706c656d656e7465720000000000000000000000000000606082015260800190565b60208082526031908201527f4552433732313a207472616e736665722063616c6c6572206973206e6f74206f60408201527f776e6572206e6f7220617070726f766564000000000000000000000000000000606082015260800190565b600082198211156116a0576116a0611769565b500190565b6000826116b4576116b4611782565b500490565b6000828210156116cb576116cb611769565b500390565b60005b838110156116eb5781810151838201526020016116d3565b838111156109035750506000910152565b60028104600182168061171057607f821691505b602082108114156117345760e060020a634e487b7102600052602260045260246000fd5b50919050565b600060001982141561174e5761174e611769565b5060010190565b60008261176457611764611782565b500690565b60e060020a634e487b7102600052601160045260246000fd5b60e060020a634e487b7102600052601260045260246000fd5b60e060020a634e487b7102600052603260045260246000fd5b60e060020a634e487b7102600052604160045260246000fd5b600160e060020a03198116811461067957600080fdfea2646970667358221220b24b56a9a1aebab0a1a60b64c557e8f49a7edea9e3a6e56ab522c2f884b0aafc64736f6c63430008060033",
  "immutableReferences": {},
  "source": "// SPDX-License-Identifier: UNLICENSED\r\n\r\npragma solidity ^0.8.6;\r\n\r\nimport \"@openzeppelin/contracts/token/ERC721/ERC721.sol\";\r\n\r\n/**\r\n * @title PRIVIERC721\r\n * This mock just provides a public safeMint, mint, and burn functions for testing purposes\r\n */\r\ncontract PRIVIERC721 is ERC721 {\r\n    constructor(string memory name, string memory symbol)\r\n        ERC721(\"PRIVIERC721\", \"PRIVIERC721\")\r\n    {}\r\n\r\n    function baseURI() public view returns (string memory) {\r\n        return _baseURI();\r\n    }\r\n\r\n    function exists(uint256 tokenId) public view returns (bool) {\r\n        return _exists(tokenId);\r\n    }\r\n\r\n    function mint(address to, uint256 tokenId) public {\r\n        _mint(to, tokenId);\r\n    }\r\n\r\n    function safeMint(address to, uint256 tokenId) public {\r\n        _safeMint(to, tokenId);\r\n    }\r\n\r\n    function safeMint(\r\n        address to,\r\n        uint256 tokenId,\r\n        bytes memory _data\r\n    ) public {\r\n        _safeMint(to, tokenId, _data);\r\n    }\r\n\r\n    function burn(uint256 tokenId) public {\r\n        _burn(tokenId);\r\n    }\r\n}\r\n",
  "sourcePath": "/Users/angelsatorresalmenara/Privi-Polygon/privi-ERC721/contracts/PRIVIERC721.sol",
  "compiler": {
    "name": "solc",
    "version": "0.8.6+commit.11564f7e.Emscripten.clang"
  },
  "schemaVersion": "3.4.3",
  "updatedAt": "2021-09-02T17:33:44.284Z",
  "networkType": "ethereum",
  "devdoc": {
    "kind": "dev",
    "methods": {
      "approve(address,uint256)": {
        "details": "See {IERC721-approve}."
      },
      "balanceOf(address)": {
        "details": "See {IERC721-balanceOf}."
      },
      "getApproved(uint256)": {
        "details": "See {IERC721-getApproved}."
      },
      "isApprovedForAll(address,address)": {
        "details": "See {IERC721-isApprovedForAll}."
      },
      "name()": {
        "details": "See {IERC721Metadata-name}."
      },
      "ownerOf(uint256)": {
        "details": "See {IERC721-ownerOf}."
      },
      "safeTransferFrom(address,address,uint256)": {
        "details": "See {IERC721-safeTransferFrom}."
      },
      "safeTransferFrom(address,address,uint256,bytes)": {
        "details": "See {IERC721-safeTransferFrom}."
      },
      "setApprovalForAll(address,bool)": {
        "details": "See {IERC721-setApprovalForAll}."
      },
      "supportsInterface(bytes4)": {
        "details": "See {IERC165-supportsInterface}."
      },
      "symbol()": {
        "details": "See {IERC721Metadata-symbol}."
      },
      "tokenURI(uint256)": {
        "details": "See {IERC721Metadata-tokenURI}."
      },
      "transferFrom(address,address,uint256)": {
        "details": "See {IERC721-transferFrom}."
      }
    },
    "title": "PRIVIERC721 This mock just provides a public safeMint, mint, and burn functions for testing purposes",
    "version": 1
  },
  "userdoc": {
    "kind": "user",
    "methods": {},
    "version": 1
  }
}