{
  "address": "0xAf2945bec882eE83fa63B1b532Df726023563c5f",
  "abi": [
    {
      "inputs": [
        {
          "internalType": "uint256",
          "name": "flippingInterval_",
          "type": "uint256"
        },
        {
          "internalType": "uint256",
          "name": "flippingReward_",
          "type": "uint256"
        },
        {
          "internalType": "uint256",
          "name": "flippingAmount_",
          "type": "uint256"
        },
        {
          "internalType": "uint256",
          "name": "auctionDuration_",
          "type": "uint256"
        },
        {
          "internalType": "address",
          "name": "governanceContractAddress_",
          "type": "address"
        },
        {
          "internalType": "address",
          "name": "fundingTokenAddress_",
          "type": "address"
        }
      ],
      "stateMutability": "nonpayable",
      "type": "constructor"
    },
    {
      "anonymous": false,
      "inputs": [
        {
          "indexed": false,
          "internalType": "uint256",
          "name": "from",
          "type": "uint256"
        },
        {
          "indexed": false,
          "internalType": "uint256",
          "name": "to",
          "type": "uint256"
        }
      ],
      "name": "AuctionDurationUpdated",
      "type": "event"
    },
    {
      "anonymous": false,
      "inputs": [
        {
          "indexed": false,
          "internalType": "uint256",
          "name": "from",
          "type": "uint256"
        },
        {
          "indexed": false,
          "internalType": "uint256",
          "name": "to",
          "type": "uint256"
        }
      ],
      "name": "FlippingAmountUpdated",
      "type": "event"
    },
    {
      "anonymous": false,
      "inputs": [
        {
          "indexed": false,
          "internalType": "uint256",
          "name": "from",
          "type": "uint256"
        },
        {
          "indexed": false,
          "internalType": "uint256",
          "name": "to",
          "type": "uint256"
        }
      ],
      "name": "FlippingIntervalUpdated",
      "type": "event"
    },
    {
      "anonymous": false,
      "inputs": [
        {
          "indexed": false,
          "internalType": "uint256",
          "name": "from",
          "type": "uint256"
        },
        {
          "indexed": false,
          "internalType": "uint256",
          "name": "to",
          "type": "uint256"
        }
      ],
      "name": "FlippingRewardUpdated",
      "type": "event"
    },
    {
      "anonymous": false,
      "inputs": [
        {
          "indexed": false,
          "internalType": "address",
          "name": "from",
          "type": "address"
        },
        {
          "indexed": false,
          "internalType": "address",
          "name": "to",
          "type": "address"
        }
      ],
      "name": "FundingTokenAddressUpdated",
      "type": "event"
    },
    {
      "anonymous": false,
      "inputs": [
        {
          "indexed": true,
          "internalType": "address",
          "name": "previousOwner",
          "type": "address"
        },
        {
          "indexed": true,
          "internalType": "address",
          "name": "newOwner",
          "type": "address"
        }
      ],
      "name": "OwnershipTransferred",
      "type": "event"
    },
    {
      "anonymous": false,
      "inputs": [
        {
          "indexed": false,
          "internalType": "uint256",
          "name": "from",
          "type": "uint256"
        },
        {
          "indexed": false,
          "internalType": "uint256",
          "name": "to",
          "type": "uint256"
        }
      ],
      "name": "RecoveryThresholdUpdated",
      "type": "event"
    },
    {
      "inputs": [],
      "name": "auctionDuration",
      "outputs": [
        {
          "internalType": "uint256",
          "name": "",
          "type": "uint256"
        }
      ],
      "stateMutability": "view",
      "type": "function"
    },
    {
      "inputs": [],
      "name": "flippingAmount",
      "outputs": [
        {
          "internalType": "uint256",
          "name": "",
          "type": "uint256"
        }
      ],
      "stateMutability": "view",
      "type": "function"
    },
    {
      "inputs": [],
      "name": "flippingInterval",
      "outputs": [
        {
          "internalType": "uint256",
          "name": "",
          "type": "uint256"
        }
      ],
      "stateMutability": "view",
      "type": "function"
    },
    {
      "inputs": [],
      "name": "flippingReward",
      "outputs": [
        {
          "internalType": "uint256",
          "name": "",
          "type": "uint256"
        }
      ],
      "stateMutability": "view",
      "type": "function"
    },
    {
      "inputs": [],
      "name": "fundingTokenAddress",
      "outputs": [
        {
          "internalType": "address",
          "name": "",
          "type": "address"
        }
      ],
      "stateMutability": "view",
      "type": "function"
    },
    {
      "inputs": [],
      "name": "owner",
      "outputs": [
        {
          "internalType": "address",
          "name": "",
          "type": "address"
        }
      ],
      "stateMutability": "view",
      "type": "function"
    },
    {
      "inputs": [],
      "name": "recoveryThreshold",
      "outputs": [
        {
          "internalType": "uint256",
          "name": "",
          "type": "uint256"
        }
      ],
      "stateMutability": "view",
      "type": "function"
    },
    {
      "inputs": [],
      "name": "renounceOwnership",
      "outputs": [],
      "stateMutability": "nonpayable",
      "type": "function"
    },
    {
      "inputs": [
        {
          "internalType": "uint256",
          "name": "auctionDuration_",
          "type": "uint256"
        }
      ],
      "name": "setAuctionDuration",
      "outputs": [],
      "stateMutability": "nonpayable",
      "type": "function"
    },
    {
      "inputs": [
        {
          "internalType": "uint256",
          "name": "flippingAmount_",
          "type": "uint256"
        }
      ],
      "name": "setFlippingAmount",
      "outputs": [],
      "stateMutability": "nonpayable",
      "type": "function"
    },
    {
      "inputs": [
        {
          "internalType": "uint256",
          "name": "flippingInterval_",
          "type": "uint256"
        }
      ],
      "name": "setFlippingInterval",
      "outputs": [],
      "stateMutability": "nonpayable",
      "type": "function"
    },
    {
      "inputs": [
        {
          "internalType": "uint256",
          "name": "flippingReward_",
          "type": "uint256"
        }
      ],
      "name": "setFlippingReward",
      "outputs": [],
      "stateMutability": "nonpayable",
      "type": "function"
    },
    {
      "inputs": [
        {
          "internalType": "address",
          "name": "fundingTokenAddress_",
          "type": "address"
        }
      ],
      "name": "setFundingTokenAddress",
      "outputs": [],
      "stateMutability": "nonpayable",
      "type": "function"
    },
    {
      "inputs": [
        {
          "internalType": "uint256",
          "name": "recoveryThreshold_",
          "type": "uint256"
        }
      ],
      "name": "setRecoveryThreshold",
      "outputs": [],
      "stateMutability": "nonpayable",
      "type": "function"
    },
    {
      "inputs": [
        {
          "internalType": "address",
          "name": "newOwner",
          "type": "address"
        }
      ],
      "name": "transferOwnership",
      "outputs": [],
      "stateMutability": "nonpayable",
      "type": "function"
    }
  ],
  "transactionHash": "0xbadef88a10fb2963b5723dadb27d34a8ad03052ad7e1ce08319a3822df8e7ffb",
  "args": [
    "60",
    "1000000000000000000",
    "10000000000000000000",
    "600",
    "0x7d994063E2C98b2F49b13418Fc3FE58c45DdcC0D",
    "0x2cA48b8c2d574b282FDAB69545646983A94a3286"
  ],
  "solcInputHash": "cad3e9ec40506369670c8a9d880f69f9",
  "bytecode": "0x60806040523480156200001157600080fd5b5060405162000d8e38038062000d8e8339810160408190526200003491620003f4565b6200003f33620002b6565b60008511620000865760405162461bcd60e51b815260206004820152600e60248201526d125b9d985b1a590814995dd85c9960921b60448201526064015b60405180910390fd5b60008411620000c95760405162461bcd60e51b815260206004820152600e60248201526d125b9d985b1a5908105b5bdd5b9d60921b60448201526064016200007d565b838510620001255760405162461bcd60e51b815260206004820152602260248201527f5265776172642073686f756c64206265206c6f776572207468616e20416d6f756044820152611b9d60f21b60648201526084016200007d565b600086116200019d5760405162461bcd60e51b815260206004820152603360248201527f466c697070696e6720496e74657276616c2073686f756c64206265206772656160448201527f746572207468616e203135206d696e757465730000000000000000000000000060648201526084016200007d565b60008311620002065760405162461bcd60e51b815260206004820152602e60248201527f41756374696f6e206475726174696f6e2073686f756c6420626520677265617460448201526d32b9103a3430b71018903437bab960911b60648201526084016200007d565b6001600160a01b0381166200026a5760405162461bcd60e51b815260206004820152602360248201527f46756e64696e6720746f6b656e20616464726573732063616e2774206265207a60448201526265726f60e81b60648201526084016200007d565b6001869055600285905560038490556004839055600680546001600160a01b0319166001600160a01b03831617905561012c600555620002aa8262000306565b50505050505062000450565b600080546001600160a01b038381166001600160a01b0319831681178455604051919092169283917f8be0079c531659141344cd1fd0a4f28419497f9722a3daafe3b4186f6b6457e09190a35050565b6000546001600160a01b03163314620003625760405162461bcd60e51b815260206004820181905260248201527f4f776e61626c653a2063616c6c6572206973206e6f7420746865206f776e657260448201526064016200007d565b6001600160a01b038116620003c95760405162461bcd60e51b815260206004820152602660248201527f4f776e61626c653a206e6577206f776e657220697320746865207a65726f206160448201526564647265737360d01b60648201526084016200007d565b620003d481620002b6565b50565b80516001600160a01b0381168114620003ef57600080fd5b919050565b60008060008060008060c087890312156200040d578182fd5b865195506020870151945060408701519350606087015192506200043460808801620003d7565b91506200044460a08801620003d7565b90509295509295509295565b61092e80620004606000396000f3fe608060405234801561001057600080fd5b50600436106100f55760003560e01c8063715018a611610097578063a497e67411610066578063a497e674146101c3578063b94d25ce146101d6578063ed41f4b6146101df578063f2fde38b146101f257600080fd5b8063715018a61461018e5780637668733214610196578063780d111c1461019f5780638da5cb5b146101b257600080fd5b80631c8123d6116100d35780631c8123d6146101345780634c538fde1461013d57806357a5647414610168578063686ed5541461017b57600080fd5b80630361ce06146100fa5780630cbf54c81461010f5780631861779d1461012b575b600080fd5b61010d610108366004610869565b610205565b005b61011860045481565b6040519081526020015b60405180910390f35b61011860025481565b61011860055481565b600654610150906001600160a01b031681565b6040516001600160a01b039091168152602001610122565b61010d61017636600461083b565b6102db565b61010d610189366004610869565b6103d0565b61010d61049d565b61011860015481565b61010d6101ad366004610869565b6104d3565b6000546001600160a01b0316610150565b61010d6101d1366004610869565b6105a7565b61011860035481565b61010d6101ed366004610869565b610679565b61010d61020036600461083b565b610750565b6000546001600160a01b031633146102385760405162461bcd60e51b815260040161022f906108c3565b60405180910390fd5b600081116102795760405162461bcd60e51b815260206004820152600e60248201526d125b9d985b1a590814995dd85c9960921b604482015260640161022f565b600354811061029a5760405162461bcd60e51b815260040161022f90610881565b60025460408051918252602082018390527f34f644019deaaaaaa25ac68ab50376b41a0e1a1597a41f02b72ce866de0dd020910160405180910390a1600255565b6000546001600160a01b031633146103055760405162461bcd60e51b815260040161022f906108c3565b6001600160a01b0381166103675760405162461bcd60e51b815260206004820152602360248201527f46756e64696e6720746f6b656e20616464726573732063616e2774206265207a60448201526265726f60e81b606482015260840161022f565b600654604080516001600160a01b03928316815291831660208301527fc5cefea480b73d3ef36ca31ff2a57b804f7a20b543b0da600e8ca01184e9f516910160405180910390a1600680546001600160a01b0319166001600160a01b0392909216919091179055565b6000546001600160a01b031633146103fa5760405162461bcd60e51b815260040161022f906108c3565b6000811161043b5760405162461bcd60e51b815260206004820152600e60248201526d125b9d985b1a5908105b5bdd5b9d60921b604482015260640161022f565b806002541061045c5760405162461bcd60e51b815260040161022f90610881565b60035460408051918252602082018390527fabc13449d83d03230da32b813b159a591bd0c9966ca34e6de709a4279326d359910160405180910390a1600355565b6000546001600160a01b031633146104c75760405162461bcd60e51b815260040161022f906108c3565b6104d160006107eb565b565b6000546001600160a01b031633146104fd5760405162461bcd60e51b815260040161022f906108c3565b600081116105665760405162461bcd60e51b815260206004820152603060248201527f5265636f76657279207468726573686f6c642073686f756c642062652067726560448201526f30ba32b9103a3430b71018903437bab960811b606482015260840161022f565b60055460408051918252602082018390527f571443fd1f6bc49f66c5eb4ef348f67346606700567b78caa0fd0cf154afdbb6910160405180910390a1600555565b6000546001600160a01b031633146105d15760405162461bcd60e51b815260040161022f906108c3565b600081116106385760405162461bcd60e51b815260206004820152602e60248201527f41756374696f6e206475726174696f6e2073686f756c6420626520677265617460448201526d32b9103a3430b71018903437bab960911b606482015260840161022f565b60045460408051918252602082018390527f9702db1e67fa6b64b8288101859f3b327a978f15d66e12ad769e5bbf30814d28910160405180910390a1600455565b6000546001600160a01b031633146106a35760405162461bcd60e51b815260040161022f906108c3565b6000811161070f5760405162461bcd60e51b815260206004820152603360248201527f466c697070696e6720496e74657276616c2073686f756c642062652067726561604482015272746572207468616e203135206d696e7574657360681b606482015260840161022f565b60015460408051918252602082018390527fc67277816f3513e1c8db603b782a8295d6896aef6438e0c46fe9a2ddef2ced18910160405180910390a1600155565b6000546001600160a01b0316331461077a5760405162461bcd60e51b815260040161022f906108c3565b6001600160a01b0381166107df5760405162461bcd60e51b815260206004820152602660248201527f4f776e61626c653a206e6577206f776e657220697320746865207a65726f206160448201526564647265737360d01b606482015260840161022f565b6107e8816107eb565b50565b600080546001600160a01b038381166001600160a01b0319831681178455604051919092169283917f8be0079c531659141344cd1fd0a4f28419497f9722a3daafe3b4186f6b6457e09190a35050565b60006020828403121561084c578081fd5b81356001600160a01b0381168114610862578182fd5b9392505050565b60006020828403121561087a578081fd5b5035919050565b60208082526022908201527f5265776172642073686f756c64206265206c6f776572207468616e20416d6f756040820152611b9d60f21b606082015260800190565b6020808252818101527f4f776e61626c653a2063616c6c6572206973206e6f7420746865206f776e657260408201526060019056fea2646970667358221220973078cb5d6c75bf8ce294e69f8dcf52104fe2ff6427ea51b2842f97b4b2f85864736f6c63430008040033",
  "devdoc": {
    "kind": "dev",
    "methods": {
      "constructor": {
        "details": "sets the default (initial) values of the parameters      also transfers the ownership to the governance"
      },
      "owner()": {
        "details": "Returns the address of the current owner."
      },
      "renounceOwnership()": {
        "details": "Leaves the contract without owner. It will not be possible to call `onlyOwner` functions anymore. Can only be called by the current owner. NOTE: Renouncing ownership will leave the contract without an owner, thereby removing any functionality that is only available to the owner."
      },
      "transferOwnership(address)": {
        "details": "Transfers ownership of the contract to a new account (`newOwner`). Can only be called by the current owner."
      }
    },
    "title": "parameters controlled by governance",
    "version": 1
  },
  "userdoc": {
    "kind": "user",
    "methods": {},
    "notice": "the owner of this contract is the timelock controller of the governance feature",
    "version": 1
  },
  "storageLayout": {
    "storage": [
      {
        "astId": 4235,
        "contract": "contracts/polygon/governance/ProtocolParameters.sol:ProtocolParameters",
        "label": "_owner",
        "offset": 0,
        "slot": "0",
        "type": "t_address"
      },
      {
        "astId": 22694,
        "contract": "contracts/polygon/governance/ProtocolParameters.sol:ProtocolParameters",
        "label": "flippingInterval",
        "offset": 0,
        "slot": "1",
        "type": "t_uint256"
      },
      {
        "astId": 22696,
        "contract": "contracts/polygon/governance/ProtocolParameters.sol:ProtocolParameters",
        "label": "flippingReward",
        "offset": 0,
        "slot": "2",
        "type": "t_uint256"
      },
      {
        "astId": 22698,
        "contract": "contracts/polygon/governance/ProtocolParameters.sol:ProtocolParameters",
        "label": "flippingAmount",
        "offset": 0,
        "slot": "3",
        "type": "t_uint256"
      },
      {
        "astId": 22700,
        "contract": "contracts/polygon/governance/ProtocolParameters.sol:ProtocolParameters",
        "label": "auctionDuration",
        "offset": 0,
        "slot": "4",
        "type": "t_uint256"
      },
      {
        "astId": 22702,
        "contract": "contracts/polygon/governance/ProtocolParameters.sol:ProtocolParameters",
        "label": "recoveryThreshold",
        "offset": 0,
        "slot": "5",
        "type": "t_uint256"
      },
      {
        "astId": 22704,
        "contract": "contracts/polygon/governance/ProtocolParameters.sol:ProtocolParameters",
        "label": "fundingTokenAddress",
        "offset": 0,
        "slot": "6",
        "type": "t_address"
      }
    ],
    "types": {
      "t_address": {
        "encoding": "inplace",
        "label": "address",
        "numberOfBytes": "20"
      },
      "t_uint256": {
        "encoding": "inplace",
        "label": "uint256",
        "numberOfBytes": "32"
      }
    }
  }
}