{
  "address": "0x57FeFEFbb010e9CFa9d5D754bCd38aD322f131Ea",
  "abi": [
    {
      "inputs": [
        {
          "internalType": "uint256",
          "name": "jotsSupply_",
          "type": "uint256"
        },
        {
          "internalType": "uint256",
          "name": "flippingInterval_",
          "type": "uint256"
        },
        {
          "internalType": "uint256",
          "name": "flippingReward_",
          "type": "uint256"
        },
        {
          "internalType": "uint256",
          "name": "flippingAmount_",
          "type": "uint256"
        },
        {
          "internalType": "uint256",
          "name": "auctionDuration_",
          "type": "uint256"
        },
        {
          "internalType": "address",
          "name": "governanceContractAddress_",
          "type": "address"
        }
      ],
      "stateMutability": "nonpayable",
      "type": "constructor"
    },
    {
      "anonymous": false,
      "inputs": [
        {
          "indexed": false,
          "internalType": "uint256",
          "name": "value",
          "type": "uint256"
        }
      ],
      "name": "AuctionDurationUpdated",
      "type": "event"
    },
    {
      "anonymous": false,
      "inputs": [
        {
          "indexed": false,
          "internalType": "uint256",
          "name": "value",
          "type": "uint256"
        }
      ],
      "name": "FlippingAmountUpdated",
      "type": "event"
    },
    {
      "anonymous": false,
      "inputs": [
        {
          "indexed": false,
          "internalType": "uint256",
          "name": "value",
          "type": "uint256"
        }
      ],
      "name": "FlippingIntervalUpdated",
      "type": "event"
    },
    {
      "anonymous": false,
      "inputs": [
        {
          "indexed": false,
          "internalType": "uint256",
          "name": "value",
          "type": "uint256"
        }
      ],
      "name": "FlippingRewardUpdated",
      "type": "event"
    },
    {
      "anonymous": false,
      "inputs": [
        {
          "indexed": false,
          "internalType": "uint256",
          "name": "value",
          "type": "uint256"
        }
      ],
      "name": "JotsSupplyUpdated",
      "type": "event"
    },
    {
      "anonymous": false,
      "inputs": [
        {
          "indexed": true,
          "internalType": "address",
          "name": "previousOwner",
          "type": "address"
        },
        {
          "indexed": true,
          "internalType": "address",
          "name": "newOwner",
          "type": "address"
        }
      ],
      "name": "OwnershipTransferred",
      "type": "event"
    },
    {
      "inputs": [],
      "name": "auctionDuration",
      "outputs": [
        {
          "internalType": "uint256",
          "name": "",
          "type": "uint256"
        }
      ],
      "stateMutability": "view",
      "type": "function"
    },
    {
      "inputs": [],
      "name": "flippingAmount",
      "outputs": [
        {
          "internalType": "uint256",
          "name": "",
          "type": "uint256"
        }
      ],
      "stateMutability": "view",
      "type": "function"
    },
    {
      "inputs": [],
      "name": "flippingInterval",
      "outputs": [
        {
          "internalType": "uint256",
          "name": "",
          "type": "uint256"
        }
      ],
      "stateMutability": "view",
      "type": "function"
    },
    {
      "inputs": [],
      "name": "flippingReward",
      "outputs": [
        {
          "internalType": "uint256",
          "name": "",
          "type": "uint256"
        }
      ],
      "stateMutability": "view",
      "type": "function"
    },
    {
      "inputs": [],
      "name": "jotsSupply",
      "outputs": [
        {
          "internalType": "uint256",
          "name": "",
          "type": "uint256"
        }
      ],
      "stateMutability": "view",
      "type": "function"
    },
    {
      "inputs": [],
      "name": "owner",
      "outputs": [
        {
          "internalType": "address",
          "name": "",
          "type": "address"
        }
      ],
      "stateMutability": "view",
      "type": "function"
    },
    {
      "inputs": [],
      "name": "renounceOwnership",
      "outputs": [],
      "stateMutability": "nonpayable",
      "type": "function"
    },
    {
      "inputs": [
        {
          "internalType": "uint256",
          "name": "auctionDuration_",
          "type": "uint256"
        }
      ],
      "name": "setAuctionDuration",
      "outputs": [],
      "stateMutability": "nonpayable",
      "type": "function"
    },
    {
      "inputs": [
        {
          "internalType": "uint256",
          "name": "flippingAmount_",
          "type": "uint256"
        }
      ],
      "name": "setFlippingAmount",
      "outputs": [],
      "stateMutability": "nonpayable",
      "type": "function"
    },
    {
      "inputs": [
        {
          "internalType": "uint256",
          "name": "flippingInterval_",
          "type": "uint256"
        }
      ],
      "name": "setFlippingInterval",
      "outputs": [],
      "stateMutability": "nonpayable",
      "type": "function"
    },
    {
      "inputs": [
        {
          "internalType": "uint256",
          "name": "flippingReward_",
          "type": "uint256"
        }
      ],
      "name": "setFlippingReward",
      "outputs": [],
      "stateMutability": "nonpayable",
      "type": "function"
    },
    {
      "inputs": [
        {
          "internalType": "uint256",
          "name": "jotsSupply_",
          "type": "uint256"
        }
      ],
      "name": "setJotsSupply",
      "outputs": [],
      "stateMutability": "nonpayable",
      "type": "function"
    },
    {
      "inputs": [
        {
          "internalType": "address",
          "name": "newOwner",
          "type": "address"
        }
      ],
      "name": "transferOwnership",
      "outputs": [],
      "stateMutability": "nonpayable",
      "type": "function"
    }
  ],
  "transactionHash": "0xc6c99c5fbe6a4fb7373b0f03f0af5ac3a71313bcbc4f9c2779a1ef4bdeabc778",
  "args": [
    "100000000000000000000000",
    "1200",
    "1000000000000000000",
    "10000000000000000000",
    "604800",
    "0x7d994063E2C98b2F49b13418Fc3FE58c45DdcC0D"
  ],
  "solcInputHash": "132443149dfad9bd20f829ec0662bcff",
  "bytecode": "0x608060405234801561001057600080fd5b50604051610b8a380380610b8a83398101604081905261002f91610390565b61003833610275565b6000841161007e5760405162461bcd60e51b815260206004820152600e60248201526d125b9d985b1a590814995dd85c9960921b60448201526064015b60405180910390fd5b600083116100bf5760405162461bcd60e51b815260206004820152600e60248201526d125b9d985b1a5908105b5bdd5b9d60921b6044820152606401610075565b8284106101195760405162461bcd60e51b815260206004820152602260248201527f5265776172642073686f756c64206265206c6f776572207468616e20416d6f756044820152611b9d60f21b6064820152608401610075565b600086116101695760405162461bcd60e51b815260206004820152601360248201527f496e76616c6964204a6f747320537570706c79000000000000000000000000006044820152606401610075565b61038485116101e05760405162461bcd60e51b815260206004820152603360248201527f466c697070696e6720496e74657276616c2073686f756c64206265206772656160448201527f746572207468616e203135206d696e75746573000000000000000000000000006064820152608401610075565b610e1082116102485760405162461bcd60e51b815260206004820152602e60248201527f41756374696f6e206475726174696f6e2073686f756c6420626520677265617460448201526d32b9103a3430b71018903437bab960911b6064820152608401610075565b6001869055600285905560038490556004839055600582905561026a816102c5565b5050505050506103f2565b600080546001600160a01b038381166001600160a01b0319831681178455604051919092169283917f8be0079c531659141344cd1fd0a4f28419497f9722a3daafe3b4186f6b6457e09190a35050565b6000546001600160a01b0316331461031f5760405162461bcd60e51b815260206004820181905260248201527f4f776e61626c653a2063616c6c6572206973206e6f7420746865206f776e65726044820152606401610075565b6001600160a01b0381166103845760405162461bcd60e51b815260206004820152602660248201527f4f776e61626c653a206e6577206f776e657220697320746865207a65726f206160448201526564647265737360d01b6064820152608401610075565b61038d81610275565b50565b60008060008060008060c087890312156103a8578182fd5b86516020880151604089015160608a015160808b015160a08c0151949a50929850909650945092506001600160a01b03811681146103e4578182fd5b809150509295509295509295565b610789806104016000396000f3fe608060405234801561001057600080fd5b50600436106100cf5760003560e01c8063766873321161008c578063a497e67411610066578063a497e67414610169578063b94d25ce1461017c578063ed41f4b614610185578063f2fde38b1461019857600080fd5b806376687332146101325780638148cab31461013b5780638da5cb5b1461014e57600080fd5b80630361ce06146100d45780630cbf54c8146100e95780631861779d1461010557806341e559e61461010e578063686ed55414610117578063715018a61461012a575b600080fd5b6100e76100e23660046106c4565b6101ab565b005b6100f260055481565b6040519081526020015b60405180910390f35b6100f260035481565b6100f260015481565b6100e76101253660046106c4565b61027c565b6100e761033d565b6100f260025481565b6100e76101493660046106c4565b610373565b6000546040516001600160a01b0390911681526020016100fc565b6100e76101773660046106c4565b610418565b6100f260045481565b6100e76101933660046106c4565b6104df565b6100e76101a6366004610696565b6105ab565b6000546001600160a01b031633146101de5760405162461bcd60e51b81526004016101d59061071e565b60405180910390fd5b6000811161021f5760405162461bcd60e51b815260206004820152600e60248201526d125b9d985b1a590814995dd85c9960921b60448201526064016101d5565b60045481106102405760405162461bcd60e51b81526004016101d5906106dc565b60038190556040518181527f0fa8f8d6f616abcaff165b36274c1d25db91432a484037fee0c3df292bcfd3c7906020015b60405180910390a150565b6000546001600160a01b031633146102a65760405162461bcd60e51b81526004016101d59061071e565b600081116102e75760405162461bcd60e51b815260206004820152600e60248201526d125b9d985b1a5908105b5bdd5b9d60921b60448201526064016101d5565b80600354106103085760405162461bcd60e51b81526004016101d5906106dc565b60048190556040518181527fe8d9aeb1d5f778e619e639e40f0b7d2ea511290857c537675c3bd85f7e83548f90602001610271565b6000546001600160a01b031633146103675760405162461bcd60e51b81526004016101d59061071e565b6103716000610646565b565b6000546001600160a01b0316331461039d5760405162461bcd60e51b81526004016101d59061071e565b600081116103e35760405162461bcd60e51b8152602060048201526013602482015272496e76616c6964204a6f747320537570706c7960681b60448201526064016101d5565b60018190556040518181527f93b9276845376c0543076e97219c38dc7844ccc68b13486454d1fb928cf2736a90602001610271565b6000546001600160a01b031633146104425760405162461bcd60e51b81526004016101d59061071e565b610e1081116104aa5760405162461bcd60e51b815260206004820152602e60248201527f41756374696f6e206475726174696f6e2073686f756c6420626520677265617460448201526d32b9103a3430b71018903437bab960911b60648201526084016101d5565b60058190556040518181527faab6389d8f1c16ba1deb6e9831f5c5442cf4fcf99bf5bfa867460be408a9111890602001610271565b6000546001600160a01b031633146105095760405162461bcd60e51b81526004016101d59061071e565b61038481116105765760405162461bcd60e51b815260206004820152603360248201527f466c697070696e6720496e74657276616c2073686f756c642062652067726561604482015272746572207468616e203135206d696e7574657360681b60648201526084016101d5565b60028190556040518181527fc28ccb88074a7798b56fa365639855d8ffa5991bca1492991c7ed26df2c699ef90602001610271565b6000546001600160a01b031633146105d55760405162461bcd60e51b81526004016101d59061071e565b6001600160a01b03811661063a5760405162461bcd60e51b815260206004820152602660248201527f4f776e61626c653a206e6577206f776e657220697320746865207a65726f206160448201526564647265737360d01b60648201526084016101d5565b61064381610646565b50565b600080546001600160a01b038381166001600160a01b0319831681178455604051919092169283917f8be0079c531659141344cd1fd0a4f28419497f9722a3daafe3b4186f6b6457e09190a35050565b6000602082840312156106a7578081fd5b81356001600160a01b03811681146106bd578182fd5b9392505050565b6000602082840312156106d5578081fd5b5035919050565b60208082526022908201527f5265776172642073686f756c64206265206c6f776572207468616e20416d6f756040820152611b9d60f21b606082015260800190565b6020808252818101527f4f776e61626c653a2063616c6c6572206973206e6f7420746865206f776e657260408201526060019056fea26469706673582212209d4a74fc5dd632977e83e8e4c9ccb846358fc81bdc000ba52f36efb6ffbd27ac64736f6c63430008040033",
  "devdoc": {
    "kind": "dev",
    "methods": {
      "constructor": {
        "details": "sets the default (initial) values of the parameters      also transfers the ownership to the governance"
      },
      "owner()": {
        "details": "Returns the address of the current owner."
      },
      "renounceOwnership()": {
        "details": "Leaves the contract without owner. It will not be possible to call `onlyOwner` functions anymore. Can only be called by the current owner. NOTE: Renouncing ownership will leave the contract without an owner, thereby removing any functionality that is only available to the owner."
      },
      "transferOwnership(address)": {
        "details": "Transfers ownership of the contract to a new account (`newOwner`). Can only be called by the current owner."
      }
    },
    "title": "parameters controlled by governance",
    "version": 1
  },
  "userdoc": {
    "kind": "user",
    "methods": {},
    "notice": "the owner of this contract is the timelock controller of the governance feature",
    "version": 1
  },
  "storageLayout": {
    "storage": [
      {
        "astId": 2647,
        "contract": "contracts/polygon/governance/ProtocolParameters.sol:ProtocolParameters",
        "label": "_owner",
        "offset": 0,
        "slot": "0",
        "type": "t_address"
      },
      {
        "astId": 14043,
        "contract": "contracts/polygon/governance/ProtocolParameters.sol:ProtocolParameters",
        "label": "jotsSupply",
        "offset": 0,
        "slot": "1",
        "type": "t_uint256"
      },
      {
        "astId": 14045,
        "contract": "contracts/polygon/governance/ProtocolParameters.sol:ProtocolParameters",
        "label": "flippingInterval",
        "offset": 0,
        "slot": "2",
        "type": "t_uint256"
      },
      {
        "astId": 14047,
        "contract": "contracts/polygon/governance/ProtocolParameters.sol:ProtocolParameters",
        "label": "flippingReward",
        "offset": 0,
        "slot": "3",
        "type": "t_uint256"
      },
      {
        "astId": 14049,
        "contract": "contracts/polygon/governance/ProtocolParameters.sol:ProtocolParameters",
        "label": "flippingAmount",
        "offset": 0,
        "slot": "4",
        "type": "t_uint256"
      },
      {
        "astId": 14051,
        "contract": "contracts/polygon/governance/ProtocolParameters.sol:ProtocolParameters",
        "label": "auctionDuration",
        "offset": 0,
        "slot": "5",
        "type": "t_uint256"
      }
    ],
    "types": {
      "t_address": {
        "encoding": "inplace",
        "label": "address",
        "numberOfBytes": "20"
      },
      "t_uint256": {
        "encoding": "inplace",
        "label": "uint256",
        "numberOfBytes": "32"
      }
    }
  }
}