{
  "address": "0x870Fb3e4959270F3d76a3BE0A4f050d60EB98836",
  "abi": [
    {
      "inputs": [
        {
          "internalType": "uint256",
          "name": "flippingInterval_",
          "type": "uint256"
        },
        {
          "internalType": "uint256",
          "name": "flippingReward_",
          "type": "uint256"
        },
        {
          "internalType": "uint256",
          "name": "flippingAmount_",
          "type": "uint256"
        },
        {
          "internalType": "uint256",
          "name": "auctionDuration_",
          "type": "uint256"
        },
        {
          "internalType": "address",
          "name": "governanceContractAddress_",
          "type": "address"
        }
      ],
      "stateMutability": "nonpayable",
      "type": "constructor"
    },
    {
      "anonymous": false,
      "inputs": [
        {
          "indexed": false,
          "internalType": "uint256",
          "name": "from",
          "type": "uint256"
        },
        {
          "indexed": false,
          "internalType": "uint256",
          "name": "to",
          "type": "uint256"
        }
      ],
      "name": "AuctionDurationUpdated",
      "type": "event"
    },
    {
      "anonymous": false,
      "inputs": [
        {
          "indexed": false,
          "internalType": "uint256",
          "name": "from",
          "type": "uint256"
        },
        {
          "indexed": false,
          "internalType": "uint256",
          "name": "to",
          "type": "uint256"
        }
      ],
      "name": "FlippingAmountUpdated",
      "type": "event"
    },
    {
      "anonymous": false,
      "inputs": [
        {
          "indexed": false,
          "internalType": "uint256",
          "name": "from",
          "type": "uint256"
        },
        {
          "indexed": false,
          "internalType": "uint256",
          "name": "to",
          "type": "uint256"
        }
      ],
      "name": "FlippingIntervalUpdated",
      "type": "event"
    },
    {
      "anonymous": false,
      "inputs": [
        {
          "indexed": false,
          "internalType": "uint256",
          "name": "from",
          "type": "uint256"
        },
        {
          "indexed": false,
          "internalType": "uint256",
          "name": "to",
          "type": "uint256"
        }
      ],
      "name": "FlippingRewardUpdated",
      "type": "event"
    },
    {
      "anonymous": false,
      "inputs": [
        {
          "indexed": true,
          "internalType": "address",
          "name": "previousOwner",
          "type": "address"
        },
        {
          "indexed": true,
          "internalType": "address",
          "name": "newOwner",
          "type": "address"
        }
      ],
      "name": "OwnershipTransferred",
      "type": "event"
    },
    {
      "anonymous": false,
      "inputs": [
        {
          "indexed": false,
          "internalType": "uint256",
          "name": "from",
          "type": "uint256"
        },
        {
          "indexed": false,
          "internalType": "uint256",
          "name": "to",
          "type": "uint256"
        }
      ],
      "name": "RecoveryThresholdUpdated",
      "type": "event"
    },
    {
      "inputs": [],
      "name": "auctionDuration",
      "outputs": [
        {
          "internalType": "uint256",
          "name": "",
          "type": "uint256"
        }
      ],
      "stateMutability": "view",
      "type": "function"
    },
    {
      "inputs": [],
      "name": "flippingAmount",
      "outputs": [
        {
          "internalType": "uint256",
          "name": "",
          "type": "uint256"
        }
      ],
      "stateMutability": "view",
      "type": "function"
    },
    {
      "inputs": [],
      "name": "flippingInterval",
      "outputs": [
        {
          "internalType": "uint256",
          "name": "",
          "type": "uint256"
        }
      ],
      "stateMutability": "view",
      "type": "function"
    },
    {
      "inputs": [],
      "name": "flippingReward",
      "outputs": [
        {
          "internalType": "uint256",
          "name": "",
          "type": "uint256"
        }
      ],
      "stateMutability": "view",
      "type": "function"
    },
    {
      "inputs": [],
      "name": "owner",
      "outputs": [
        {
          "internalType": "address",
          "name": "",
          "type": "address"
        }
      ],
      "stateMutability": "view",
      "type": "function"
    },
    {
      "inputs": [],
      "name": "recoveryThreshold",
      "outputs": [
        {
          "internalType": "uint256",
          "name": "",
          "type": "uint256"
        }
      ],
      "stateMutability": "view",
      "type": "function"
    },
    {
      "inputs": [],
      "name": "renounceOwnership",
      "outputs": [],
      "stateMutability": "nonpayable",
      "type": "function"
    },
    {
      "inputs": [
        {
          "internalType": "uint256",
          "name": "auctionDuration_",
          "type": "uint256"
        }
      ],
      "name": "setAuctionDuration",
      "outputs": [],
      "stateMutability": "nonpayable",
      "type": "function"
    },
    {
      "inputs": [
        {
          "internalType": "uint256",
          "name": "flippingAmount_",
          "type": "uint256"
        }
      ],
      "name": "setFlippingAmount",
      "outputs": [],
      "stateMutability": "nonpayable",
      "type": "function"
    },
    {
      "inputs": [
        {
          "internalType": "uint256",
          "name": "flippingInterval_",
          "type": "uint256"
        }
      ],
      "name": "setFlippingInterval",
      "outputs": [],
      "stateMutability": "nonpayable",
      "type": "function"
    },
    {
      "inputs": [
        {
          "internalType": "uint256",
          "name": "flippingReward_",
          "type": "uint256"
        }
      ],
      "name": "setFlippingReward",
      "outputs": [],
      "stateMutability": "nonpayable",
      "type": "function"
    },
    {
      "inputs": [
        {
          "internalType": "uint256",
          "name": "recoveryThreshold_",
          "type": "uint256"
        }
      ],
      "name": "setRecoveryThreshold",
      "outputs": [],
      "stateMutability": "nonpayable",
      "type": "function"
    },
    {
      "inputs": [
        {
          "internalType": "address",
          "name": "newOwner",
          "type": "address"
        }
      ],
      "name": "transferOwnership",
      "outputs": [],
      "stateMutability": "nonpayable",
      "type": "function"
    }
  ],
  "transactionHash": "0x3d90bfe9e7f87622d2977f87700fd302e74bb130e9a0db0cd56d371f5d3cd30a",
  "args": [
    "60",
    "1000000000000000000",
    "10000000000000000000",
    "600",
    "0x7d994063E2C98b2F49b13418Fc3FE58c45DdcC0D"
  ],
  "solcInputHash": "17c9b40754d0f542f8cd7cb195ec76b6",
  "bytecode": "0x608060405234801561001057600080fd5b50604051610b88380380610b8883398101604081905261002f9161033f565b61003833610224565b6000841161007e5760405162461bcd60e51b815260206004820152600e60248201526d125b9d985b1a590814995dd85c9960921b60448201526064015b60405180910390fd5b600083116100bf5760405162461bcd60e51b815260206004820152600e60248201526d125b9d985b1a5908105b5bdd5b9d60921b6044820152606401610075565b8284106101195760405162461bcd60e51b815260206004820152602260248201527f5265776172642073686f756c64206265206c6f776572207468616e20416d6f756044820152611b9d60f21b6064820152608401610075565b6000851161018f5760405162461bcd60e51b815260206004820152603360248201527f466c697070696e6720496e74657276616c2073686f756c64206265206772656160448201527f746572207468616e203135206d696e75746573000000000000000000000000006064820152608401610075565b61012c82116101f75760405162461bcd60e51b815260206004820152602e60248201527f41756374696f6e206475726174696f6e2073686f756c6420626520677265617460448201526d32b9103a3430b71018903437bab960911b6064820152608401610075565b600185905560028490556003839055600482905561012c60055561021a81610274565b5050505050610398565b600080546001600160a01b038381166001600160a01b0319831681178455604051919092169283917f8be0079c531659141344cd1fd0a4f28419497f9722a3daafe3b4186f6b6457e09190a35050565b6000546001600160a01b031633146102ce5760405162461bcd60e51b815260206004820181905260248201527f4f776e61626c653a2063616c6c6572206973206e6f7420746865206f776e65726044820152606401610075565b6001600160a01b0381166103335760405162461bcd60e51b815260206004820152602660248201527f4f776e61626c653a206e6577206f776e657220697320746865207a65726f206160448201526564647265737360d01b6064820152608401610075565b61033c81610224565b50565b600080600080600060a08688031215610356578081fd5b855160208701516040880151606089015160808a0151939850919650945092506001600160a01b038116811461038a578182fd5b809150509295509295909350565b6107e1806103a76000396000f3fe608060405234801561001057600080fd5b50600436106100cf5760003560e01c8063766873321161008c578063a497e67411610066578063a497e67414610169578063b94d25ce1461017c578063ed41f4b614610185578063f2fde38b1461019857600080fd5b80637668733214610132578063780d111c1461013b5780638da5cb5b1461014e57600080fd5b80630361ce06146100d45780630cbf54c8146100e95780631861779d146101055780631c8123d61461010e578063686ed55414610117578063715018a61461012a575b600080fd5b6100e76100e236600461071c565b6101ab565b005b6100f260045481565b6040519081526020015b60405180910390f35b6100f260025481565b6100f260055481565b6100e761012536600461071c565b610281565b6100e761034e565b6100f260015481565b6100e761014936600461071c565b610384565b6000546040516001600160a01b0390911681526020016100fc565b6100e761017736600461071c565b610458565b6100f260035481565b6100e761019336600461071c565b61052b565b6100e76101a63660046106ee565b610603565b6000546001600160a01b031633146101de5760405162461bcd60e51b81526004016101d590610776565b60405180910390fd5b6000811161021f5760405162461bcd60e51b815260206004820152600e60248201526d125b9d985b1a590814995dd85c9960921b60448201526064016101d5565b60035481106102405760405162461bcd60e51b81526004016101d590610734565b60025460408051918252602082018390527f34f644019deaaaaaa25ac68ab50376b41a0e1a1597a41f02b72ce866de0dd020910160405180910390a1600255565b6000546001600160a01b031633146102ab5760405162461bcd60e51b81526004016101d590610776565b600081116102ec5760405162461bcd60e51b815260206004820152600e60248201526d125b9d985b1a5908105b5bdd5b9d60921b60448201526064016101d5565b806002541061030d5760405162461bcd60e51b81526004016101d590610734565b60035460408051918252602082018390527fabc13449d83d03230da32b813b159a591bd0c9966ca34e6de709a4279326d359910160405180910390a1600355565b6000546001600160a01b031633146103785760405162461bcd60e51b81526004016101d590610776565b610382600061069e565b565b6000546001600160a01b031633146103ae5760405162461bcd60e51b81526004016101d590610776565b600081116104175760405162461bcd60e51b815260206004820152603060248201527f5265636f76657279207468726573686f6c642073686f756c642062652067726560448201526f30ba32b9103a3430b71018903437bab960811b60648201526084016101d5565b60055460408051918252602082018390527f571443fd1f6bc49f66c5eb4ef348f67346606700567b78caa0fd0cf154afdbb6910160405180910390a1600555565b6000546001600160a01b031633146104825760405162461bcd60e51b81526004016101d590610776565b610e1081116104ea5760405162461bcd60e51b815260206004820152602e60248201527f41756374696f6e206475726174696f6e2073686f756c6420626520677265617460448201526d32b9103a3430b71018903437bab960911b60648201526084016101d5565b60045460408051918252602082018390527f9702db1e67fa6b64b8288101859f3b327a978f15d66e12ad769e5bbf30814d28910160405180910390a1600455565b6000546001600160a01b031633146105555760405162461bcd60e51b81526004016101d590610776565b61038481116105c25760405162461bcd60e51b815260206004820152603360248201527f466c697070696e6720496e74657276616c2073686f756c642062652067726561604482015272746572207468616e203135206d696e7574657360681b60648201526084016101d5565b60015460408051918252602082018390527fc67277816f3513e1c8db603b782a8295d6896aef6438e0c46fe9a2ddef2ced18910160405180910390a1600155565b6000546001600160a01b0316331461062d5760405162461bcd60e51b81526004016101d590610776565b6001600160a01b0381166106925760405162461bcd60e51b815260206004820152602660248201527f4f776e61626c653a206e6577206f776e657220697320746865207a65726f206160448201526564647265737360d01b60648201526084016101d5565b61069b8161069e565b50565b600080546001600160a01b038381166001600160a01b0319831681178455604051919092169283917f8be0079c531659141344cd1fd0a4f28419497f9722a3daafe3b4186f6b6457e09190a35050565b6000602082840312156106ff578081fd5b81356001600160a01b0381168114610715578182fd5b9392505050565b60006020828403121561072d578081fd5b5035919050565b60208082526022908201527f5265776172642073686f756c64206265206c6f776572207468616e20416d6f756040820152611b9d60f21b606082015260800190565b6020808252818101527f4f776e61626c653a2063616c6c6572206973206e6f7420746865206f776e657260408201526060019056fea26469706673582212203c4594d451a7a256d0269d8769bbea2335240270b7fae97f1325da2f4f99fcb464736f6c63430008040033",
  "devdoc": {
    "kind": "dev",
    "methods": {
      "constructor": {
        "details": "sets the default (initial) values of the parameters      also transfers the ownership to the governance"
      },
      "owner()": {
        "details": "Returns the address of the current owner."
      },
      "renounceOwnership()": {
        "details": "Leaves the contract without owner. It will not be possible to call `onlyOwner` functions anymore. Can only be called by the current owner. NOTE: Renouncing ownership will leave the contract without an owner, thereby removing any functionality that is only available to the owner."
      },
      "transferOwnership(address)": {
        "details": "Transfers ownership of the contract to a new account (`newOwner`). Can only be called by the current owner."
      }
    },
    "title": "parameters controlled by governance",
    "version": 1
  },
  "userdoc": {
    "kind": "user",
    "methods": {},
    "notice": "the owner of this contract is the timelock controller of the governance feature",
    "version": 1
  },
  "storageLayout": {
    "storage": [
      {
        "astId": 2652,
        "contract": "contracts/polygon/governance/ProtocolParameters.sol:ProtocolParameters",
        "label": "_owner",
        "offset": 0,
        "slot": "0",
        "type": "t_address"
      },
      {
        "astId": 19168,
        "contract": "contracts/polygon/governance/ProtocolParameters.sol:ProtocolParameters",
        "label": "flippingInterval",
        "offset": 0,
        "slot": "1",
        "type": "t_uint256"
      },
      {
        "astId": 19170,
        "contract": "contracts/polygon/governance/ProtocolParameters.sol:ProtocolParameters",
        "label": "flippingReward",
        "offset": 0,
        "slot": "2",
        "type": "t_uint256"
      },
      {
        "astId": 19172,
        "contract": "contracts/polygon/governance/ProtocolParameters.sol:ProtocolParameters",
        "label": "flippingAmount",
        "offset": 0,
        "slot": "3",
        "type": "t_uint256"
      },
      {
        "astId": 19174,
        "contract": "contracts/polygon/governance/ProtocolParameters.sol:ProtocolParameters",
        "label": "auctionDuration",
        "offset": 0,
        "slot": "4",
        "type": "t_uint256"
      },
      {
        "astId": 19176,
        "contract": "contracts/polygon/governance/ProtocolParameters.sol:ProtocolParameters",
        "label": "recoveryThreshold",
        "offset": 0,
        "slot": "5",
        "type": "t_uint256"
      }
    ],
    "types": {
      "t_address": {
        "encoding": "inplace",
        "label": "address",
        "numberOfBytes": "20"
      },
      "t_uint256": {
        "encoding": "inplace",
        "label": "uint256",
        "numberOfBytes": "32"
      }
    }
  }
}