{
  "address": "0x80DF795d858d91D1783E80C1bcBB580B87DEa2A6",
  "abi": [
    {
      "inputs": [
        {
          "internalType": "uint256",
          "name": "flippingInterval_",
          "type": "uint256"
        },
        {
          "internalType": "uint256",
          "name": "flippingReward_",
          "type": "uint256"
        },
        {
          "internalType": "uint256",
          "name": "flippingAmount_",
          "type": "uint256"
        },
        {
          "internalType": "uint256",
          "name": "auctionDuration_",
          "type": "uint256"
        },
        {
          "internalType": "address",
          "name": "governanceContractAddress_",
          "type": "address"
        },
        {
          "internalType": "address",
          "name": "fundingTokenAddress_",
          "type": "address"
        },
        {
          "internalType": "uint256",
          "name": "liquidityPerpetualPercentage_",
          "type": "uint256"
        },
        {
          "internalType": "uint256",
          "name": "liquidityUniswapPercentage_",
          "type": "uint256"
        }
      ],
      "stateMutability": "nonpayable",
      "type": "constructor"
    },
    {
      "anonymous": false,
      "inputs": [
        {
          "indexed": false,
          "internalType": "uint256",
          "name": "from",
          "type": "uint256"
        },
        {
          "indexed": false,
          "internalType": "uint256",
          "name": "to",
          "type": "uint256"
        }
      ],
      "name": "AuctionDurationUpdated",
      "type": "event"
    },
    {
      "anonymous": false,
      "inputs": [
        {
          "indexed": false,
          "internalType": "uint256",
          "name": "from",
          "type": "uint256"
        },
        {
          "indexed": false,
          "internalType": "uint256",
          "name": "to",
          "type": "uint256"
        }
      ],
      "name": "FlippingAmountUpdated",
      "type": "event"
    },
    {
      "anonymous": false,
      "inputs": [
        {
          "indexed": false,
          "internalType": "uint256",
          "name": "from",
          "type": "uint256"
        },
        {
          "indexed": false,
          "internalType": "uint256",
          "name": "to",
          "type": "uint256"
        }
      ],
      "name": "FlippingIntervalUpdated",
      "type": "event"
    },
    {
      "anonymous": false,
      "inputs": [
        {
          "indexed": false,
          "internalType": "uint256",
          "name": "from",
          "type": "uint256"
        },
        {
          "indexed": false,
          "internalType": "uint256",
          "name": "to",
          "type": "uint256"
        }
      ],
      "name": "FlippingRewardUpdated",
      "type": "event"
    },
    {
      "anonymous": false,
      "inputs": [
        {
          "indexed": false,
          "internalType": "address",
          "name": "from",
          "type": "address"
        },
        {
          "indexed": false,
          "internalType": "address",
          "name": "to",
          "type": "address"
        }
      ],
      "name": "FundingTokenAddressUpdated",
      "type": "event"
    },
    {
      "anonymous": false,
      "inputs": [
        {
          "indexed": false,
          "internalType": "uint256",
          "name": "perpetualFrom",
          "type": "uint256"
        },
        {
          "indexed": false,
          "internalType": "uint256",
          "name": "uniswapFrom",
          "type": "uint256"
        },
        {
          "indexed": false,
          "internalType": "uint256",
          "name": "perpetualTo",
          "type": "uint256"
        },
        {
          "indexed": false,
          "internalType": "uint256",
          "name": "uniswapTo",
          "type": "uint256"
        }
      ],
      "name": "LiquidityPercentagesUpdated",
      "type": "event"
    },
    {
      "anonymous": false,
      "inputs": [
        {
          "indexed": true,
          "internalType": "address",
          "name": "previousOwner",
          "type": "address"
        },
        {
          "indexed": true,
          "internalType": "address",
          "name": "newOwner",
          "type": "address"
        }
      ],
      "name": "OwnershipTransferred",
      "type": "event"
    },
    {
      "anonymous": false,
      "inputs": [
        {
          "indexed": false,
          "internalType": "uint256",
          "name": "from",
          "type": "uint256"
        },
        {
          "indexed": false,
          "internalType": "uint256",
          "name": "to",
          "type": "uint256"
        }
      ],
      "name": "RecoveryThresholdUpdated",
      "type": "event"
    },
    {
      "anonymous": false,
      "inputs": [
        {
          "indexed": false,
          "internalType": "uint256",
          "name": "from",
          "type": "uint256"
        },
        {
          "indexed": false,
          "internalType": "uint256",
          "name": "to",
          "type": "uint256"
        }
      ],
      "name": "StakerShareUpdated",
      "type": "event"
    },
    {
      "inputs": [],
      "name": "auctionDuration",
      "outputs": [
        {
          "internalType": "uint256",
          "name": "",
          "type": "uint256"
        }
      ],
      "stateMutability": "view",
      "type": "function"
    },
    {
      "inputs": [],
      "name": "flippingAmount",
      "outputs": [
        {
          "internalType": "uint256",
          "name": "",
          "type": "uint256"
        }
      ],
      "stateMutability": "view",
      "type": "function"
    },
    {
      "inputs": [],
      "name": "flippingInterval",
      "outputs": [
        {
          "internalType": "uint256",
          "name": "",
          "type": "uint256"
        }
      ],
      "stateMutability": "view",
      "type": "function"
    },
    {
      "inputs": [],
      "name": "flippingReward",
      "outputs": [
        {
          "internalType": "uint256",
          "name": "",
          "type": "uint256"
        }
      ],
      "stateMutability": "view",
      "type": "function"
    },
    {
      "inputs": [],
      "name": "fundingTokenAddress",
      "outputs": [
        {
          "internalType": "address",
          "name": "",
          "type": "address"
        }
      ],
      "stateMutability": "view",
      "type": "function"
    },
    {
      "inputs": [],
      "name": "liquidityPerpetualPercentage",
      "outputs": [
        {
          "internalType": "uint256",
          "name": "",
          "type": "uint256"
        }
      ],
      "stateMutability": "view",
      "type": "function"
    },
    {
      "inputs": [],
      "name": "liquidityUniswapPercentage",
      "outputs": [
        {
          "internalType": "uint256",
          "name": "",
          "type": "uint256"
        }
      ],
      "stateMutability": "view",
      "type": "function"
    },
    {
      "inputs": [],
      "name": "owner",
      "outputs": [
        {
          "internalType": "address",
          "name": "",
          "type": "address"
        }
      ],
      "stateMutability": "view",
      "type": "function"
    },
    {
      "inputs": [],
      "name": "recoveryThreshold",
      "outputs": [
        {
          "internalType": "uint256",
          "name": "",
          "type": "uint256"
        }
      ],
      "stateMutability": "view",
      "type": "function"
    },
    {
      "inputs": [],
      "name": "renounceOwnership",
      "outputs": [],
      "stateMutability": "nonpayable",
      "type": "function"
    },
    {
      "inputs": [
        {
          "internalType": "uint256",
          "name": "auctionDuration_",
          "type": "uint256"
        }
      ],
      "name": "setAuctionDuration",
      "outputs": [],
      "stateMutability": "nonpayable",
      "type": "function"
    },
    {
      "inputs": [
        {
          "internalType": "uint256",
          "name": "flippingAmount_",
          "type": "uint256"
        }
      ],
      "name": "setFlippingAmount",
      "outputs": [],
      "stateMutability": "nonpayable",
      "type": "function"
    },
    {
      "inputs": [
        {
          "internalType": "uint256",
          "name": "flippingInterval_",
          "type": "uint256"
        }
      ],
      "name": "setFlippingInterval",
      "outputs": [],
      "stateMutability": "nonpayable",
      "type": "function"
    },
    {
      "inputs": [
        {
          "internalType": "uint256",
          "name": "flippingReward_",
          "type": "uint256"
        }
      ],
      "name": "setFlippingReward",
      "outputs": [],
      "stateMutability": "nonpayable",
      "type": "function"
    },
    {
      "inputs": [
        {
          "internalType": "address",
          "name": "fundingTokenAddress_",
          "type": "address"
        }
      ],
      "name": "setFundingTokenAddress",
      "outputs": [],
      "stateMutability": "nonpayable",
      "type": "function"
    },
    {
      "inputs": [
        {
          "internalType": "uint256",
          "name": "liquidityUniswapPercentage_",
          "type": "uint256"
        },
        {
          "internalType": "uint256",
          "name": "liquidityPerpetualPercentage_",
          "type": "uint256"
        }
      ],
      "name": "setLiquidityPercentages",
      "outputs": [],
      "stateMutability": "nonpayable",
      "type": "function"
    },
    {
      "inputs": [
        {
          "internalType": "uint256",
          "name": "recoveryThreshold_",
          "type": "uint256"
        }
      ],
      "name": "setRecoveryThreshold",
      "outputs": [],
      "stateMutability": "nonpayable",
      "type": "function"
    },
    {
      "inputs": [
        {
          "internalType": "uint256",
          "name": "stakerShare_",
          "type": "uint256"
        }
      ],
      "name": "setStakerShare",
      "outputs": [],
      "stateMutability": "nonpayable",
      "type": "function"
    },
    {
      "inputs": [],
      "name": "stakerShare",
      "outputs": [
        {
          "internalType": "uint256",
          "name": "",
          "type": "uint256"
        }
      ],
      "stateMutability": "view",
      "type": "function"
    },
    {
      "inputs": [
        {
          "internalType": "address",
          "name": "newOwner",
          "type": "address"
        }
      ],
      "name": "transferOwnership",
      "outputs": [],
      "stateMutability": "nonpayable",
      "type": "function"
    }
  ],
  "transactionHash": "0xf5df2ec81bc7328c3fbdd1817f4d13f63ad542aaa280cb60c9c25af1cc27b6d6",
  "args": [
    "1200",
    "1000000000000000000",
    "10000000000000000000",
    "604800",
    "0x7d994063E2C98b2F49b13418Fc3FE58c45DdcC0D",
    "0x2cA48b8c2d574b282FDAB69545646983A94a3286",
    "0",
    "100"
  ],
  "solcInputHash": "0cc6fa82c0eeb27ece16b294b847bb89",
  "bytecode": "0x60806040523480156200001157600080fd5b50604051620010e8380380620010e883398101604081905262000034916200047b565b6200003f336200033d565b60008711620000865760405162461bcd60e51b815260206004820152600e60248201526d125b9d985b1a590814995dd85c9960921b60448201526064015b60405180910390fd5b60008611620000c95760405162461bcd60e51b815260206004820152600e60248201526d125b9d985b1a5908105b5bdd5b9d60921b60448201526064016200007d565b858710620001255760405162461bcd60e51b815260206004820152602260248201527f5265776172642073686f756c64206265206c6f776572207468616e20416d6f756044820152611b9d60f21b60648201526084016200007d565b61038488116200019e5760405162461bcd60e51b815260206004820152603360248201527f466c697070696e6720496e74657276616c2073686f756c64206265206772656160448201527f746572207468616e203135206d696e757465730000000000000000000000000060648201526084016200007d565b610e108511620002085760405162461bcd60e51b815260206004820152602e60248201527f41756374696f6e206475726174696f6e2073686f756c6420626520677265617460448201526d32b9103a3430b71018903437bab960911b60648201526084016200007d565b6001600160a01b0383166200026c5760405162461bcd60e51b815260206004820152602360248201527f46756e64696e6720746f6b656e20616464726573732063616e2774206265207a60448201526265726f60e81b60648201526084016200007d565b620002788183620004eb565b606414620002e05760405162461bcd60e51b815260206004820152602e60248201527f756e697377617020616e642070657270657475616c2070657263656e7461676560448201526d073206d7573742073756d203130360941b60648201526084016200007d565b6001889055600287905560038690556004859055600680546001600160a01b0319166001600160a01b03851617905560088290556009819055662386f26fc100006007556200032f846200038d565b505050505050505062000510565b600080546001600160a01b038381166001600160a01b0319831681178455604051919092169283917f8be0079c531659141344cd1fd0a4f28419497f9722a3daafe3b4186f6b6457e09190a35050565b6000546001600160a01b03163314620003e95760405162461bcd60e51b815260206004820181905260248201527f4f776e61626c653a2063616c6c6572206973206e6f7420746865206f776e657260448201526064016200007d565b6001600160a01b038116620004505760405162461bcd60e51b815260206004820152602660248201527f4f776e61626c653a206e6577206f776e657220697320746865207a65726f206160448201526564647265737360d01b60648201526084016200007d565b6200045b816200033d565b50565b80516001600160a01b03811681146200047657600080fd5b919050565b600080600080600080600080610100898b03121562000498578384fd5b88519750602089015196506040890151955060608901519450620004bf60808a016200045e565b9350620004cf60a08a016200045e565b60c08a015160e0909a0151989b979a5095989497939692505050565b600082198211156200050b57634e487b7160e01b81526011600452602481fd5b500190565b610bc880620005206000396000f3fe608060405234801561001057600080fd5b506004361061012c5760003560e01c806376687332116100ad578063a497e67411610071578063a497e67414610232578063b94d25ce14610245578063c956cd631461024e578063ed41f4b614610257578063f2fde38b1461026a57600080fd5b806376687332146101e9578063780d111c146101f2578063818bfa07146102055780638792ed8a146102185780638da5cb5b1461022157600080fd5b80634c538fde116100f45780634c538fde1461018757806357a56474146101b25780635af72079146101c5578063686ed554146101ce578063715018a6146101e157600080fd5b80630361ce06146101315780630cbf54c8146101465780631861779d146101625780631c8123d61461016b578063383c590014610174575b600080fd5b61014461013f366004610abe565b61027d565b005b61014f60045481565b6040519081526020015b60405180910390f35b61014f60025481565b61014f60055481565b610144610182366004610ad6565b610353565b60065461019a906001600160a01b031681565b6040516001600160a01b039091168152602001610159565b6101446101c0366004610a90565b610422565b61014f60075481565b6101446101dc366004610abe565b610517565b6101446105e4565b61014f60015481565b610144610200366004610abe565b61061a565b610144610213366004610abe565b6106ef565b61014f60085481565b6000546001600160a01b031661019a565b610144610240366004610abe565b6107fa565b61014f60035481565b61014f60095481565b610144610265366004610abe565b6108cd565b610144610278366004610a90565b6109a5565b6000546001600160a01b031633146102b05760405162461bcd60e51b81526004016102a790610b39565b60405180910390fd5b600081116102f15760405162461bcd60e51b815260206004820152600e60248201526d125b9d985b1a590814995dd85c9960921b60448201526064016102a7565b60035481106103125760405162461bcd60e51b81526004016102a790610af7565b60025460408051918252602082018390527f34f644019deaaaaaa25ac68ab50376b41a0e1a1597a41f02b72ce866de0dd020910160405180910390a1600255565b6000546001600160a01b0316331461037d5760405162461bcd60e51b81526004016102a790610b39565b6103878183610b6e565b6064146103cc5760405162461bcd60e51b8152602060048201526013602482015272056616c756573206d7573742073756d2031303606c1b60448201526064016102a7565b6008546009546040805192835260208301919091528101829052606081018390527f90026ad8f4e7c533c4695fb6e6d26085d7951aa64cda3c507043a92cbcb276129060800160405180910390a1600855600955565b6000546001600160a01b0316331461044c5760405162461bcd60e51b81526004016102a790610b39565b6001600160a01b0381166104ae5760405162461bcd60e51b815260206004820152602360248201527f46756e64696e6720746f6b656e20616464726573732063616e2774206265207a60448201526265726f60e81b60648201526084016102a7565b600654604080516001600160a01b03928316815291831660208301527fc5cefea480b73d3ef36ca31ff2a57b804f7a20b543b0da600e8ca01184e9f516910160405180910390a1600680546001600160a01b0319166001600160a01b0392909216919091179055565b6000546001600160a01b031633146105415760405162461bcd60e51b81526004016102a790610b39565b600081116105825760405162461bcd60e51b815260206004820152600e60248201526d125b9d985b1a5908105b5bdd5b9d60921b60448201526064016102a7565b80600254106105a35760405162461bcd60e51b81526004016102a790610af7565b60035460408051918252602082018390527fabc13449d83d03230da32b813b159a591bd0c9966ca34e6de709a4279326d359910160405180910390a1600355565b6000546001600160a01b0316331461060e5760405162461bcd60e51b81526004016102a790610b39565b6106186000610a40565b565b6000546001600160a01b031633146106445760405162461bcd60e51b81526004016102a790610b39565b610e1081116106ae5760405162461bcd60e51b815260206004820152603060248201527f5265636f76657279207468726573686f6c642073686f756c642062652067726560448201526f30ba32b9103a3430b71018903437bab960811b60648201526084016102a7565b60055460408051918252602082018390527f571443fd1f6bc49f66c5eb4ef348f67346606700567b78caa0fd0cf154afdbb6910160405180910390a1600555565b6000546001600160a01b031633146107195760405162461bcd60e51b81526004016102a790610b39565b600081116107695760405162461bcd60e51b815260206004820152601760248201527f5374616b65722073686172652063616e2774206265203000000000000000000060448201526064016102a7565b670de0b6b3a76400008111156107b95760405162461bcd60e51b81526020600482015260156024820152740a6e8c2d6cae440e6d0c2e4ca40e8dede40d0d2ced605b1b60448201526064016102a7565b60075460408051918252602082018390527f782bfd2f90bdf72b9ec6643a97cbf4cb63f686b87233390032feb19beabdbbbc910160405180910390a1600755565b6000546001600160a01b031633146108245760405162461bcd60e51b81526004016102a790610b39565b610e10811161088c5760405162461bcd60e51b815260206004820152602e60248201527f41756374696f6e206475726174696f6e2073686f756c6420626520677265617460448201526d32b9103a3430b71018903437bab960911b60648201526084016102a7565b60045460408051918252602082018390527f9702db1e67fa6b64b8288101859f3b327a978f15d66e12ad769e5bbf30814d28910160405180910390a1600455565b6000546001600160a01b031633146108f75760405162461bcd60e51b81526004016102a790610b39565b61038481116109645760405162461bcd60e51b815260206004820152603360248201527f466c697070696e6720496e74657276616c2073686f756c642062652067726561604482015272746572207468616e203135206d696e7574657360681b60648201526084016102a7565b60015460408051918252602082018390527fc67277816f3513e1c8db603b782a8295d6896aef6438e0c46fe9a2ddef2ced18910160405180910390a1600155565b6000546001600160a01b031633146109cf5760405162461bcd60e51b81526004016102a790610b39565b6001600160a01b038116610a345760405162461bcd60e51b815260206004820152602660248201527f4f776e61626c653a206e6577206f776e657220697320746865207a65726f206160448201526564647265737360d01b60648201526084016102a7565b610a3d81610a40565b50565b600080546001600160a01b038381166001600160a01b0319831681178455604051919092169283917f8be0079c531659141344cd1fd0a4f28419497f9722a3daafe3b4186f6b6457e09190a35050565b600060208284031215610aa1578081fd5b81356001600160a01b0381168114610ab7578182fd5b9392505050565b600060208284031215610acf578081fd5b5035919050565b60008060408385031215610ae8578081fd5b50508035926020909101359150565b60208082526022908201527f5265776172642073686f756c64206265206c6f776572207468616e20416d6f756040820152611b9d60f21b606082015260800190565b6020808252818101527f4f776e61626c653a2063616c6c6572206973206e6f7420746865206f776e6572604082015260600190565b60008219821115610b8d57634e487b7160e01b81526011600452602481fd5b50019056fea2646970667358221220cd87ebd2bd95c66949b74840a05ece117477d400ea5d611df67a9a02f634961964736f6c63430008040033",
  "devdoc": {
    "kind": "dev",
    "methods": {
      "constructor": {
        "details": "sets the default (initial) values of the parameters      also transfers the ownership to the governance"
      },
      "owner()": {
        "details": "Returns the address of the current owner."
      },
      "renounceOwnership()": {
        "details": "Leaves the contract without owner. It will not be possible to call `onlyOwner` functions anymore. Can only be called by the current owner. NOTE: Renouncing ownership will leave the contract without an owner, thereby removing any functionality that is only available to the owner."
      },
      "transferOwnership(address)": {
        "details": "Transfers ownership of the contract to a new account (`newOwner`). Can only be called by the current owner."
      }
    },
    "title": "parameters controlled by governance",
    "version": 1
  },
  "userdoc": {
    "kind": "user",
    "methods": {},
    "notice": "the owner of this contract is the timelock controller of the governance feature",
    "version": 1
  },
  "storageLayout": {
    "storage": [
      {
        "astId": 4235,
        "contract": "contracts/polygon/governance/ProtocolParameters.sol:ProtocolParameters",
        "label": "_owner",
        "offset": 0,
        "slot": "0",
        "type": "t_address"
      },
      {
        "astId": 22931,
        "contract": "contracts/polygon/governance/ProtocolParameters.sol:ProtocolParameters",
        "label": "flippingInterval",
        "offset": 0,
        "slot": "1",
        "type": "t_uint256"
      },
      {
        "astId": 22933,
        "contract": "contracts/polygon/governance/ProtocolParameters.sol:ProtocolParameters",
        "label": "flippingReward",
        "offset": 0,
        "slot": "2",
        "type": "t_uint256"
      },
      {
        "astId": 22935,
        "contract": "contracts/polygon/governance/ProtocolParameters.sol:ProtocolParameters",
        "label": "flippingAmount",
        "offset": 0,
        "slot": "3",
        "type": "t_uint256"
      },
      {
        "astId": 22937,
        "contract": "contracts/polygon/governance/ProtocolParameters.sol:ProtocolParameters",
        "label": "auctionDuration",
        "offset": 0,
        "slot": "4",
        "type": "t_uint256"
      },
      {
        "astId": 22939,
        "contract": "contracts/polygon/governance/ProtocolParameters.sol:ProtocolParameters",
        "label": "recoveryThreshold",
        "offset": 0,
        "slot": "5",
        "type": "t_uint256"
      },
      {
        "astId": 22941,
        "contract": "contracts/polygon/governance/ProtocolParameters.sol:ProtocolParameters",
        "label": "fundingTokenAddress",
        "offset": 0,
        "slot": "6",
        "type": "t_address"
      },
      {
        "astId": 22943,
        "contract": "contracts/polygon/governance/ProtocolParameters.sol:ProtocolParameters",
        "label": "stakerShare",
        "offset": 0,
        "slot": "7",
        "type": "t_uint256"
      },
      {
        "astId": 22945,
        "contract": "contracts/polygon/governance/ProtocolParameters.sol:ProtocolParameters",
        "label": "liquidityPerpetualPercentage",
        "offset": 0,
        "slot": "8",
        "type": "t_uint256"
      },
      {
        "astId": 22947,
        "contract": "contracts/polygon/governance/ProtocolParameters.sol:ProtocolParameters",
        "label": "liquidityUniswapPercentage",
        "offset": 0,
        "slot": "9",
        "type": "t_uint256"
      }
    ],
    "types": {
      "t_address": {
        "encoding": "inplace",
        "label": "address",
        "numberOfBytes": "20"
      },
      "t_uint256": {
        "encoding": "inplace",
        "label": "uint256",
        "numberOfBytes": "32"
      }
    }
  }
}