{
  "address": "0x55f39768fd5f277a69669F814b8C4B1f831bfb77",
  "abi": [
    {
      "inputs": [
        {
          "internalType": "uint256",
          "name": "flippingInterval_",
          "type": "uint256"
        },
        {
          "internalType": "uint256",
          "name": "flippingReward_",
          "type": "uint256"
        },
        {
          "internalType": "uint256",
          "name": "flippingAmount_",
          "type": "uint256"
        },
        {
          "internalType": "uint256",
          "name": "auctionDuration_",
          "type": "uint256"
        },
        {
          "internalType": "address",
          "name": "governanceContractAddress_",
          "type": "address"
        },
        {
          "internalType": "address",
          "name": "fundingTokenAddress_",
          "type": "address"
        },
        {
          "internalType": "uint256",
          "name": "liquidityPerpetualPercentage_",
          "type": "uint256"
        },
        {
          "internalType": "uint256",
          "name": "liquidityUniswapPercentage_",
          "type": "uint256"
        },
        {
          "internalType": "uint256",
          "name": "buybackPrice_",
          "type": "uint256"
        }
      ],
      "stateMutability": "nonpayable",
      "type": "constructor"
    },
    {
      "anonymous": false,
      "inputs": [
        {
          "indexed": false,
          "internalType": "uint256",
          "name": "from",
          "type": "uint256"
        },
        {
          "indexed": false,
          "internalType": "uint256",
          "name": "to",
          "type": "uint256"
        }
      ],
      "name": "AuctionDurationUpdated",
      "type": "event"
    },
    {
      "anonymous": false,
      "inputs": [
        {
          "indexed": false,
          "internalType": "uint256",
          "name": "from",
          "type": "uint256"
        },
        {
          "indexed": false,
          "internalType": "uint256",
          "name": "to",
          "type": "uint256"
        }
      ],
      "name": "BuybackPriceUpdated",
      "type": "event"
    },
    {
      "anonymous": false,
      "inputs": [
        {
          "indexed": false,
          "internalType": "uint256",
          "name": "from",
          "type": "uint256"
        },
        {
          "indexed": false,
          "internalType": "uint256",
          "name": "to",
          "type": "uint256"
        }
      ],
      "name": "FlippingAmountUpdated",
      "type": "event"
    },
    {
      "anonymous": false,
      "inputs": [
        {
          "indexed": false,
          "internalType": "uint256",
          "name": "from",
          "type": "uint256"
        },
        {
          "indexed": false,
          "internalType": "uint256",
          "name": "to",
          "type": "uint256"
        }
      ],
      "name": "FlippingIntervalUpdated",
      "type": "event"
    },
    {
      "anonymous": false,
      "inputs": [
        {
          "indexed": false,
          "internalType": "uint256",
          "name": "from",
          "type": "uint256"
        },
        {
          "indexed": false,
          "internalType": "uint256",
          "name": "to",
          "type": "uint256"
        }
      ],
      "name": "FlippingRewardUpdated",
      "type": "event"
    },
    {
      "anonymous": false,
      "inputs": [
        {
          "indexed": false,
          "internalType": "address",
          "name": "from",
          "type": "address"
        },
        {
          "indexed": false,
          "internalType": "address",
          "name": "to",
          "type": "address"
        }
      ],
      "name": "FundingTokenAddressUpdated",
      "type": "event"
    },
    {
      "anonymous": false,
      "inputs": [
        {
          "indexed": false,
          "internalType": "uint256",
          "name": "perpetualFrom",
          "type": "uint256"
        },
        {
          "indexed": false,
          "internalType": "uint256",
          "name": "uniswapFrom",
          "type": "uint256"
        },
        {
          "indexed": false,
          "internalType": "uint256",
          "name": "perpetualTo",
          "type": "uint256"
        },
        {
          "indexed": false,
          "internalType": "uint256",
          "name": "uniswapTo",
          "type": "uint256"
        }
      ],
      "name": "LiquidityPercentagesUpdated",
      "type": "event"
    },
    {
      "anonymous": false,
      "inputs": [
        {
          "indexed": true,
          "internalType": "address",
          "name": "previousOwner",
          "type": "address"
        },
        {
          "indexed": true,
          "internalType": "address",
          "name": "newOwner",
          "type": "address"
        }
      ],
      "name": "OwnershipTransferred",
      "type": "event"
    },
    {
      "anonymous": false,
      "inputs": [
        {
          "indexed": false,
          "internalType": "uint256",
          "name": "from",
          "type": "uint256"
        },
        {
          "indexed": false,
          "internalType": "uint256",
          "name": "to",
          "type": "uint256"
        }
      ],
      "name": "RecoveryThresholdUpdated",
      "type": "event"
    },
    {
      "inputs": [],
      "name": "auctionDuration",
      "outputs": [
        {
          "internalType": "uint256",
          "name": "",
          "type": "uint256"
        }
      ],
      "stateMutability": "view",
      "type": "function"
    },
    {
      "inputs": [],
      "name": "buybackPrice",
      "outputs": [
        {
          "internalType": "uint256",
          "name": "",
          "type": "uint256"
        }
      ],
      "stateMutability": "view",
      "type": "function"
    },
    {
      "inputs": [],
      "name": "flippingAmount",
      "outputs": [
        {
          "internalType": "uint256",
          "name": "",
          "type": "uint256"
        }
      ],
      "stateMutability": "view",
      "type": "function"
    },
    {
      "inputs": [],
      "name": "flippingInterval",
      "outputs": [
        {
          "internalType": "uint256",
          "name": "",
          "type": "uint256"
        }
      ],
      "stateMutability": "view",
      "type": "function"
    },
    {
      "inputs": [],
      "name": "flippingReward",
      "outputs": [
        {
          "internalType": "uint256",
          "name": "",
          "type": "uint256"
        }
      ],
      "stateMutability": "view",
      "type": "function"
    },
    {
      "inputs": [],
      "name": "fundingTokenAddress",
      "outputs": [
        {
          "internalType": "address",
          "name": "",
          "type": "address"
        }
      ],
      "stateMutability": "view",
      "type": "function"
    },
    {
      "inputs": [],
      "name": "liquidityPerpetualPercentage",
      "outputs": [
        {
          "internalType": "uint256",
          "name": "",
          "type": "uint256"
        }
      ],
      "stateMutability": "view",
      "type": "function"
    },
    {
      "inputs": [],
      "name": "liquidityUniswapPercentage",
      "outputs": [
        {
          "internalType": "uint256",
          "name": "",
          "type": "uint256"
        }
      ],
      "stateMutability": "view",
      "type": "function"
    },
    {
      "inputs": [],
      "name": "owner",
      "outputs": [
        {
          "internalType": "address",
          "name": "",
          "type": "address"
        }
      ],
      "stateMutability": "view",
      "type": "function"
    },
    {
      "inputs": [],
      "name": "recoveryThreshold",
      "outputs": [
        {
          "internalType": "uint256",
          "name": "",
          "type": "uint256"
        }
      ],
      "stateMutability": "view",
      "type": "function"
    },
    {
      "inputs": [],
      "name": "renounceOwnership",
      "outputs": [],
      "stateMutability": "nonpayable",
      "type": "function"
    },
    {
      "inputs": [
        {
          "internalType": "uint256",
          "name": "auctionDuration_",
          "type": "uint256"
        }
      ],
      "name": "setAuctionDuration",
      "outputs": [],
      "stateMutability": "nonpayable",
      "type": "function"
    },
    {
      "inputs": [
        {
          "internalType": "uint256",
          "name": "buybackPrice_",
          "type": "uint256"
        }
      ],
      "name": "setBuybackPrice",
      "outputs": [],
      "stateMutability": "nonpayable",
      "type": "function"
    },
    {
      "inputs": [
        {
          "internalType": "uint256",
          "name": "flippingAmount_",
          "type": "uint256"
        }
      ],
      "name": "setFlippingAmount",
      "outputs": [],
      "stateMutability": "nonpayable",
      "type": "function"
    },
    {
      "inputs": [
        {
          "internalType": "uint256",
          "name": "flippingInterval_",
          "type": "uint256"
        }
      ],
      "name": "setFlippingInterval",
      "outputs": [],
      "stateMutability": "nonpayable",
      "type": "function"
    },
    {
      "inputs": [
        {
          "internalType": "uint256",
          "name": "flippingReward_",
          "type": "uint256"
        }
      ],
      "name": "setFlippingReward",
      "outputs": [],
      "stateMutability": "nonpayable",
      "type": "function"
    },
    {
      "inputs": [
        {
          "internalType": "address",
          "name": "fundingTokenAddress_",
          "type": "address"
        }
      ],
      "name": "setFundingTokenAddress",
      "outputs": [],
      "stateMutability": "nonpayable",
      "type": "function"
    },
    {
      "inputs": [
        {
          "internalType": "uint256",
          "name": "liquidityUniswapPercentage_",
          "type": "uint256"
        },
        {
          "internalType": "uint256",
          "name": "liquidityPerpetualPercentage_",
          "type": "uint256"
        }
      ],
      "name": "setLiquidityPercentages",
      "outputs": [],
      "stateMutability": "nonpayable",
      "type": "function"
    },
    {
      "inputs": [
        {
          "internalType": "uint256",
          "name": "recoveryThreshold_",
          "type": "uint256"
        }
      ],
      "name": "setRecoveryThreshold",
      "outputs": [],
      "stateMutability": "nonpayable",
      "type": "function"
    },
    {
      "inputs": [
        {
          "internalType": "address",
          "name": "newOwner",
          "type": "address"
        }
      ],
      "name": "transferOwnership",
      "outputs": [],
      "stateMutability": "nonpayable",
      "type": "function"
    }
  ],
  "transactionHash": "0x99fca5e854413e0361c99e4b0aff911daf84ab2bfd76a6e12d25d6e36b1a0c29",
  "args": [
    "1200",
    "1000000000000000000",
    "10000000000000000000",
    "604800",
    "0x7d994063E2C98b2F49b13418Fc3FE58c45DdcC0D",
    "0x2cA48b8c2d574b282FDAB69545646983A94a3286",
    "0",
    "100",
    "1000000"
  ],
  "solcInputHash": "07ffe27adea0d2a812eeb9c1248703cf",
  "bytecode": "0x60806040523480156200001157600080fd5b50604051620010f2380380620010f28339810160408190526200003491620004c8565b6200003f336200038a565b60008811620000865760405162461bcd60e51b815260206004820152600e60248201526d125b9d985b1a590814995dd85c9960921b60448201526064015b60405180910390fd5b60008711620000c95760405162461bcd60e51b815260206004820152600e60248201526d125b9d985b1a5908105b5bdd5b9d60921b60448201526064016200007d565b868810620001255760405162461bcd60e51b815260206004820152602260248201527f5265776172642073686f756c64206265206c6f776572207468616e20416d6f756044820152611b9d60f21b60648201526084016200007d565b61038489116200019e5760405162461bcd60e51b815260206004820152603360248201527f466c697070696e6720496e74657276616c2073686f756c64206265206772656160448201527f746572207468616e203135206d696e757465730000000000000000000000000060648201526084016200007d565b610e108611620002085760405162461bcd60e51b815260206004820152602e60248201527f41756374696f6e206475726174696f6e2073686f756c6420626520677265617460448201526d32b9103a3430b71018903437bab960911b60648201526084016200007d565b6001600160a01b0384166200026c5760405162461bcd60e51b815260206004820152602360248201527f46756e64696e6720746f6b656e20616464726573732063616e2774206265207a60448201526265726f60e81b60648201526084016200007d565b60008111620002be5760405162461bcd60e51b815260206004820152601b60248201527f4275796261636b2070726963652063616e2774206265207a65726f000000000060448201526064016200007d565b620002ca828462000543565b606414620003325760405162461bcd60e51b815260206004820152602e60248201527f756e697377617020616e642070657270657475616c2070657263656e7461676560448201526d073206d7573742073756d203130360941b60648201526084016200007d565b6001899055600288905560038790556004869055600680546001600160a01b0319166001600160a01b0386161790556008839055600982905560078190556200037b85620003da565b50505050505050505062000568565b600080546001600160a01b038381166001600160a01b0319831681178455604051919092169283917f8be0079c531659141344cd1fd0a4f28419497f9722a3daafe3b4186f6b6457e09190a35050565b6000546001600160a01b03163314620004365760405162461bcd60e51b815260206004820181905260248201527f4f776e61626c653a2063616c6c6572206973206e6f7420746865206f776e657260448201526064016200007d565b6001600160a01b0381166200049d5760405162461bcd60e51b815260206004820152602660248201527f4f776e61626c653a206e6577206f776e657220697320746865207a65726f206160448201526564647265737360d01b60648201526084016200007d565b620004a8816200038a565b50565b80516001600160a01b0381168114620004c357600080fd5b919050565b60008060008060008060008060006101208a8c031215620004e7578485fd5b8951985060208a0151975060408a0151965060608a015195506200050e60808b01620004ab565b94506200051e60a08b01620004ab565b935060c08a0151925060e08a015191506101008a015190509295985092959850929598565b600082198211156200056357634e487b7160e01b81526011600452602481fd5b500190565b610b7a80620005786000396000f3fe608060405234801561001057600080fd5b506004361061012c5760003560e01c806376687332116100ad578063a497e67411610071578063a497e67414610232578063b94d25ce14610245578063c956cd631461024e578063ed41f4b614610257578063f2fde38b1461026a57600080fd5b806376687332146101f3578063780d111c146101fc5780638792ed8a1461020f5780638da5cb5b146102185780639c76a6ac1461022957600080fd5b80634c538fde116100f45780634c538fde1461018757806357a56474146101b25780635d29ce27146101c5578063686ed554146101d8578063715018a6146101eb57600080fd5b80630361ce06146101315780630cbf54c8146101465780631861779d146101625780631c8123d61461016b578063383c590014610174575b600080fd5b61014461013f366004610a70565b61027d565b005b61014f60045481565b6040519081526020015b60405180910390f35b61014f60025481565b61014f60055481565b610144610182366004610a88565b610353565b60065461019a906001600160a01b031681565b6040516001600160a01b039091168152602001610159565b6101446101c0366004610a42565b610422565b6101446101d3366004610a70565b610517565b6101446101e6366004610a70565b6105d4565b6101446106a1565b61014f60015481565b61014461020a366004610a70565b6106d7565b61014f60085481565b6000546001600160a01b031661019a565b61014f60075481565b610144610240366004610a70565b6107ac565b61014f60035481565b61014f60095481565b610144610265366004610a70565b61087f565b610144610278366004610a42565b610957565b6000546001600160a01b031633146102b05760405162461bcd60e51b81526004016102a790610aeb565b60405180910390fd5b600081116102f15760405162461bcd60e51b815260206004820152600e60248201526d125b9d985b1a590814995dd85c9960921b60448201526064016102a7565b60035481106103125760405162461bcd60e51b81526004016102a790610aa9565b60025460408051918252602082018390527f34f644019deaaaaaa25ac68ab50376b41a0e1a1597a41f02b72ce866de0dd020910160405180910390a1600255565b6000546001600160a01b0316331461037d5760405162461bcd60e51b81526004016102a790610aeb565b6103878183610b20565b6064146103cc5760405162461bcd60e51b8152602060048201526013602482015272056616c756573206d7573742073756d2031303606c1b60448201526064016102a7565b6008546009546040805192835260208301919091528101829052606081018390527f90026ad8f4e7c533c4695fb6e6d26085d7951aa64cda3c507043a92cbcb276129060800160405180910390a1600855600955565b6000546001600160a01b0316331461044c5760405162461bcd60e51b81526004016102a790610aeb565b6001600160a01b0381166104ae5760405162461bcd60e51b815260206004820152602360248201527f46756e64696e6720746f6b656e20616464726573732063616e2774206265207a60448201526265726f60e81b60648201526084016102a7565b600654604080516001600160a01b03928316815291831660208301527fc5cefea480b73d3ef36ca31ff2a57b804f7a20b543b0da600e8ca01184e9f516910160405180910390a1600680546001600160a01b0319166001600160a01b0392909216919091179055565b6000546001600160a01b031633146105415760405162461bcd60e51b81526004016102a790610aeb565b6000600754116105935760405162461bcd60e51b815260206004820152601b60248201527f4275796261636b2070726963652063616e2774206265207a65726f000000000060448201526064016102a7565b60075460408051918252602082018390527fb48f99c0ab590887cc8ad53c390b47e7225916f398ae7f688f5a5241379517f8910160405180910390a1600755565b6000546001600160a01b031633146105fe5760405162461bcd60e51b81526004016102a790610aeb565b6000811161063f5760405162461bcd60e51b815260206004820152600e60248201526d125b9d985b1a5908105b5bdd5b9d60921b60448201526064016102a7565b80600254106106605760405162461bcd60e51b81526004016102a790610aa9565b60035460408051918252602082018390527fabc13449d83d03230da32b813b159a591bd0c9966ca34e6de709a4279326d359910160405180910390a1600355565b6000546001600160a01b031633146106cb5760405162461bcd60e51b81526004016102a790610aeb565b6106d560006109f2565b565b6000546001600160a01b031633146107015760405162461bcd60e51b81526004016102a790610aeb565b610e10811161076b5760405162461bcd60e51b815260206004820152603060248201527f5265636f76657279207468726573686f6c642073686f756c642062652067726560448201526f30ba32b9103a3430b71018903437bab960811b60648201526084016102a7565b60055460408051918252602082018390527f571443fd1f6bc49f66c5eb4ef348f67346606700567b78caa0fd0cf154afdbb6910160405180910390a1600555565b6000546001600160a01b031633146107d65760405162461bcd60e51b81526004016102a790610aeb565b610e10811161083e5760405162461bcd60e51b815260206004820152602e60248201527f41756374696f6e206475726174696f6e2073686f756c6420626520677265617460448201526d32b9103a3430b71018903437bab960911b60648201526084016102a7565b60045460408051918252602082018390527f9702db1e67fa6b64b8288101859f3b327a978f15d66e12ad769e5bbf30814d28910160405180910390a1600455565b6000546001600160a01b031633146108a95760405162461bcd60e51b81526004016102a790610aeb565b61038481116109165760405162461bcd60e51b815260206004820152603360248201527f466c697070696e6720496e74657276616c2073686f756c642062652067726561604482015272746572207468616e203135206d696e7574657360681b60648201526084016102a7565b60015460408051918252602082018390527fc67277816f3513e1c8db603b782a8295d6896aef6438e0c46fe9a2ddef2ced18910160405180910390a1600155565b6000546001600160a01b031633146109815760405162461bcd60e51b81526004016102a790610aeb565b6001600160a01b0381166109e65760405162461bcd60e51b815260206004820152602660248201527f4f776e61626c653a206e6577206f776e657220697320746865207a65726f206160448201526564647265737360d01b60648201526084016102a7565b6109ef816109f2565b50565b600080546001600160a01b038381166001600160a01b0319831681178455604051919092169283917f8be0079c531659141344cd1fd0a4f28419497f9722a3daafe3b4186f6b6457e09190a35050565b600060208284031215610a53578081fd5b81356001600160a01b0381168114610a69578182fd5b9392505050565b600060208284031215610a81578081fd5b5035919050565b60008060408385031215610a9a578081fd5b50508035926020909101359150565b60208082526022908201527f5265776172642073686f756c64206265206c6f776572207468616e20416d6f756040820152611b9d60f21b606082015260800190565b6020808252818101527f4f776e61626c653a2063616c6c6572206973206e6f7420746865206f776e6572604082015260600190565b60008219821115610b3f57634e487b7160e01b81526011600452602481fd5b50019056fea2646970667358221220e87f4c1077ecae8b8193d02d62e605b5ab7b5d7717fdd5e62028bff89e19d13b64736f6c63430008040033",
  "devdoc": {
    "kind": "dev",
    "methods": {
      "constructor": {
        "details": "sets the default (initial) values of the parameters      also transfers the ownership to the governance"
      },
      "owner()": {
        "details": "Returns the address of the current owner."
      },
      "renounceOwnership()": {
        "details": "Leaves the contract without owner. It will not be possible to call `onlyOwner` functions anymore. Can only be called by the current owner. NOTE: Renouncing ownership will leave the contract without an owner, thereby removing any functionality that is only available to the owner."
      },
      "transferOwnership(address)": {
        "details": "Transfers ownership of the contract to a new account (`newOwner`). Can only be called by the current owner."
      }
    },
    "title": "parameters controlled by governance",
    "version": 1
  },
  "userdoc": {
    "kind": "user",
    "methods": {},
    "notice": "the owner of this contract is the timelock controller of the governance feature",
    "version": 1
  },
  "storageLayout": {
    "storage": [
      {
        "astId": 4235,
        "contract": "contracts/polygon/governance/ProtocolParameters.sol:ProtocolParameters",
        "label": "_owner",
        "offset": 0,
        "slot": "0",
        "type": "t_address"
      },
      {
        "astId": 22770,
        "contract": "contracts/polygon/governance/ProtocolParameters.sol:ProtocolParameters",
        "label": "flippingInterval",
        "offset": 0,
        "slot": "1",
        "type": "t_uint256"
      },
      {
        "astId": 22772,
        "contract": "contracts/polygon/governance/ProtocolParameters.sol:ProtocolParameters",
        "label": "flippingReward",
        "offset": 0,
        "slot": "2",
        "type": "t_uint256"
      },
      {
        "astId": 22774,
        "contract": "contracts/polygon/governance/ProtocolParameters.sol:ProtocolParameters",
        "label": "flippingAmount",
        "offset": 0,
        "slot": "3",
        "type": "t_uint256"
      },
      {
        "astId": 22776,
        "contract": "contracts/polygon/governance/ProtocolParameters.sol:ProtocolParameters",
        "label": "auctionDuration",
        "offset": 0,
        "slot": "4",
        "type": "t_uint256"
      },
      {
        "astId": 22778,
        "contract": "contracts/polygon/governance/ProtocolParameters.sol:ProtocolParameters",
        "label": "recoveryThreshold",
        "offset": 0,
        "slot": "5",
        "type": "t_uint256"
      },
      {
        "astId": 22780,
        "contract": "contracts/polygon/governance/ProtocolParameters.sol:ProtocolParameters",
        "label": "fundingTokenAddress",
        "offset": 0,
        "slot": "6",
        "type": "t_address"
      },
      {
        "astId": 22782,
        "contract": "contracts/polygon/governance/ProtocolParameters.sol:ProtocolParameters",
        "label": "buybackPrice",
        "offset": 0,
        "slot": "7",
        "type": "t_uint256"
      },
      {
        "astId": 22784,
        "contract": "contracts/polygon/governance/ProtocolParameters.sol:ProtocolParameters",
        "label": "liquidityPerpetualPercentage",
        "offset": 0,
        "slot": "8",
        "type": "t_uint256"
      },
      {
        "astId": 22786,
        "contract": "contracts/polygon/governance/ProtocolParameters.sol:ProtocolParameters",
        "label": "liquidityUniswapPercentage",
        "offset": 0,
        "slot": "9",
        "type": "t_uint256"
      }
    ],
    "types": {
      "t_address": {
        "encoding": "inplace",
        "label": "address",
        "numberOfBytes": "20"
      },
      "t_uint256": {
        "encoding": "inplace",
        "label": "uint256",
        "numberOfBytes": "32"
      }
    }
  }
}