{
  "address": "0xB3A1aDbf2aA87611A7A94C5b1081654381D5db7c",
  "abi": [
    {
      "inputs": [
        {
          "internalType": "string",
          "name": "name_",
          "type": "string"
        },
        {
          "internalType": "string",
          "name": "symbol_",
          "type": "string"
        }
      ],
      "stateMutability": "nonpayable",
      "type": "constructor"
    },
    {
      "anonymous": false,
      "inputs": [
        {
          "indexed": true,
          "internalType": "address",
          "name": "owner",
          "type": "address"
        },
        {
          "indexed": true,
          "internalType": "address",
          "name": "operator",
          "type": "address"
        },
        {
          "indexed": true,
          "internalType": "uint256",
          "name": "tokenId",
          "type": "uint256"
        }
      ],
      "name": "Approval",
      "type": "event"
    },
    {
      "anonymous": false,
      "inputs": [
        {
          "indexed": true,
          "internalType": "address",
          "name": "owner",
          "type": "address"
        },
        {
          "indexed": true,
          "internalType": "address",
          "name": "operator",
          "type": "address"
        },
        {
          "indexed": false,
          "internalType": "bool",
          "name": "approved",
          "type": "bool"
        }
      ],
      "name": "ApprovalForAll",
      "type": "event"
    },
    {
      "anonymous": false,
      "inputs": [
        {
          "indexed": true,
          "internalType": "address",
          "name": "from",
          "type": "address"
        },
        {
          "indexed": true,
          "internalType": "address",
          "name": "to",
          "type": "address"
        },
        {
          "indexed": true,
          "internalType": "uint256",
          "name": "tokenId",
          "type": "uint256"
        }
      ],
      "name": "Transfer",
      "type": "event"
    },
    {
      "anonymous": false,
      "inputs": [
        {
          "indexed": true,
          "internalType": "address",
          "name": "owner",
          "type": "address"
        },
        {
          "indexed": false,
          "internalType": "int256",
          "name": "amount",
          "type": "int256"
        }
      ],
      "name": "UpdateMargin",
      "type": "event"
    },
    {
      "anonymous": false,
      "inputs": [
        {
          "indexed": true,
          "internalType": "address",
          "name": "owner",
          "type": "address"
        },
        {
          "indexed": false,
          "internalType": "int256",
          "name": "volume",
          "type": "int256"
        },
        {
          "indexed": false,
          "internalType": "int256",
          "name": "cost",
          "type": "int256"
        },
        {
          "indexed": false,
          "internalType": "int256",
          "name": "lastCumulativeFundingRate",
          "type": "int256"
        }
      ],
      "name": "UpdatePosition",
      "type": "event"
    },
    {
      "inputs": [
        {
          "internalType": "address",
          "name": "owner",
          "type": "address"
        },
        {
          "internalType": "int256",
          "name": "delta",
          "type": "int256"
        }
      ],
      "name": "addMargin",
      "outputs": [],
      "stateMutability": "nonpayable",
      "type": "function"
    },
    {
      "inputs": [
        {
          "internalType": "address",
          "name": "operator",
          "type": "address"
        },
        {
          "internalType": "uint256",
          "name": "tokenId",
          "type": "uint256"
        }
      ],
      "name": "approve",
      "outputs": [],
      "stateMutability": "nonpayable",
      "type": "function"
    },
    {
      "inputs": [
        {
          "internalType": "address",
          "name": "owner",
          "type": "address"
        }
      ],
      "name": "balanceOf",
      "outputs": [
        {
          "internalType": "uint256",
          "name": "",
          "type": "uint256"
        }
      ],
      "stateMutability": "view",
      "type": "function"
    },
    {
      "inputs": [
        {
          "internalType": "address",
          "name": "owner",
          "type": "address"
        }
      ],
      "name": "burn",
      "outputs": [],
      "stateMutability": "nonpayable",
      "type": "function"
    },
    {
      "inputs": [
        {
          "internalType": "address",
          "name": "owner",
          "type": "address"
        }
      ],
      "name": "exists",
      "outputs": [
        {
          "internalType": "bool",
          "name": "",
          "type": "bool"
        }
      ],
      "stateMutability": "view",
      "type": "function"
    },
    {
      "inputs": [
        {
          "internalType": "uint256",
          "name": "tokenId",
          "type": "uint256"
        }
      ],
      "name": "getApproved",
      "outputs": [
        {
          "internalType": "address",
          "name": "",
          "type": "address"
        }
      ],
      "stateMutability": "view",
      "type": "function"
    },
    {
      "inputs": [
        {
          "internalType": "address",
          "name": "owner",
          "type": "address"
        }
      ],
      "name": "getMargin",
      "outputs": [
        {
          "internalType": "int256",
          "name": "",
          "type": "int256"
        }
      ],
      "stateMutability": "view",
      "type": "function"
    },
    {
      "inputs": [],
      "name": "getNumPositionHolders",
      "outputs": [
        {
          "internalType": "uint256",
          "name": "",
          "type": "uint256"
        }
      ],
      "stateMutability": "view",
      "type": "function"
    },
    {
      "inputs": [
        {
          "internalType": "address",
          "name": "owner",
          "type": "address"
        }
      ],
      "name": "getPosition",
      "outputs": [
        {
          "components": [
            {
              "internalType": "int256",
              "name": "volume",
              "type": "int256"
            },
            {
              "internalType": "int256",
              "name": "cost",
              "type": "int256"
            },
            {
              "internalType": "int256",
              "name": "lastCumulativeFundingRate",
              "type": "int256"
            }
          ],
          "internalType": "struct IPTokenLite.Position",
          "name": "",
          "type": "tuple"
        }
      ],
      "stateMutability": "view",
      "type": "function"
    },
    {
      "inputs": [
        {
          "internalType": "address",
          "name": "owner",
          "type": "address"
        }
      ],
      "name": "getTokenId",
      "outputs": [
        {
          "internalType": "uint256",
          "name": "",
          "type": "uint256"
        }
      ],
      "stateMutability": "view",
      "type": "function"
    },
    {
      "inputs": [
        {
          "internalType": "address",
          "name": "owner",
          "type": "address"
        },
        {
          "internalType": "address",
          "name": "operator",
          "type": "address"
        }
      ],
      "name": "isApprovedForAll",
      "outputs": [
        {
          "internalType": "bool",
          "name": "",
          "type": "bool"
        }
      ],
      "stateMutability": "view",
      "type": "function"
    },
    {
      "inputs": [
        {
          "internalType": "address",
          "name": "owner",
          "type": "address"
        }
      ],
      "name": "mint",
      "outputs": [],
      "stateMutability": "nonpayable",
      "type": "function"
    },
    {
      "inputs": [],
      "name": "name",
      "outputs": [
        {
          "internalType": "string",
          "name": "",
          "type": "string"
        }
      ],
      "stateMutability": "view",
      "type": "function"
    },
    {
      "inputs": [
        {
          "internalType": "uint256",
          "name": "tokenId",
          "type": "uint256"
        }
      ],
      "name": "ownerOf",
      "outputs": [
        {
          "internalType": "address",
          "name": "",
          "type": "address"
        }
      ],
      "stateMutability": "view",
      "type": "function"
    },
    {
      "inputs": [],
      "name": "pool",
      "outputs": [
        {
          "internalType": "address",
          "name": "",
          "type": "address"
        }
      ],
      "stateMutability": "view",
      "type": "function"
    },
    {
      "inputs": [
        {
          "internalType": "address",
          "name": "from",
          "type": "address"
        },
        {
          "internalType": "address",
          "name": "to",
          "type": "address"
        },
        {
          "internalType": "uint256",
          "name": "tokenId",
          "type": "uint256"
        }
      ],
      "name": "safeTransferFrom",
      "outputs": [],
      "stateMutability": "nonpayable",
      "type": "function"
    },
    {
      "inputs": [
        {
          "internalType": "address",
          "name": "from",
          "type": "address"
        },
        {
          "internalType": "address",
          "name": "to",
          "type": "address"
        },
        {
          "internalType": "uint256",
          "name": "tokenId",
          "type": "uint256"
        },
        {
          "internalType": "bytes",
          "name": "data",
          "type": "bytes"
        }
      ],
      "name": "safeTransferFrom",
      "outputs": [],
      "stateMutability": "nonpayable",
      "type": "function"
    },
    {
      "inputs": [
        {
          "internalType": "address",
          "name": "operator",
          "type": "address"
        },
        {
          "internalType": "bool",
          "name": "approved",
          "type": "bool"
        }
      ],
      "name": "setApprovalForAll",
      "outputs": [],
      "stateMutability": "nonpayable",
      "type": "function"
    },
    {
      "inputs": [
        {
          "internalType": "address",
          "name": "newPool",
          "type": "address"
        }
      ],
      "name": "setPool",
      "outputs": [],
      "stateMutability": "nonpayable",
      "type": "function"
    },
    {
      "inputs": [
        {
          "internalType": "bytes4",
          "name": "interfaceId",
          "type": "bytes4"
        }
      ],
      "name": "supportsInterface",
      "outputs": [
        {
          "internalType": "bool",
          "name": "",
          "type": "bool"
        }
      ],
      "stateMutability": "view",
      "type": "function"
    },
    {
      "inputs": [],
      "name": "symbol",
      "outputs": [
        {
          "internalType": "string",
          "name": "",
          "type": "string"
        }
      ],
      "stateMutability": "view",
      "type": "function"
    },
    {
      "inputs": [],
      "name": "totalMinted",
      "outputs": [
        {
          "internalType": "uint256",
          "name": "",
          "type": "uint256"
        }
      ],
      "stateMutability": "view",
      "type": "function"
    },
    {
      "inputs": [],
      "name": "totalSupply",
      "outputs": [
        {
          "internalType": "uint256",
          "name": "",
          "type": "uint256"
        }
      ],
      "stateMutability": "view",
      "type": "function"
    },
    {
      "inputs": [
        {
          "internalType": "address",
          "name": "from",
          "type": "address"
        },
        {
          "internalType": "address",
          "name": "to",
          "type": "address"
        },
        {
          "internalType": "uint256",
          "name": "tokenId",
          "type": "uint256"
        }
      ],
      "name": "transferFrom",
      "outputs": [],
      "stateMutability": "nonpayable",
      "type": "function"
    },
    {
      "inputs": [
        {
          "internalType": "address",
          "name": "owner",
          "type": "address"
        },
        {
          "internalType": "int256",
          "name": "margin",
          "type": "int256"
        }
      ],
      "name": "updateMargin",
      "outputs": [],
      "stateMutability": "nonpayable",
      "type": "function"
    },
    {
      "inputs": [
        {
          "internalType": "address",
          "name": "owner",
          "type": "address"
        },
        {
          "components": [
            {
              "internalType": "int256",
              "name": "volume",
              "type": "int256"
            },
            {
              "internalType": "int256",
              "name": "cost",
              "type": "int256"
            },
            {
              "internalType": "int256",
              "name": "lastCumulativeFundingRate",
              "type": "int256"
            }
          ],
          "internalType": "struct IPTokenLite.Position",
          "name": "position",
          "type": "tuple"
        }
      ],
      "name": "updatePosition",
      "outputs": [],
      "stateMutability": "nonpayable",
      "type": "function"
    }
  ],
  "transactionHash": "0x93bc79b817c7a851e363e7ceb4b8620570b631b05f3c4003aa308c4c7163707e",
  "args": [
    "Privi Exchange Position Token",
    "pPT"
  ],
  "solcInputHash": "607a69e31484798c31354cc363f2d7ae",
  "bytecode": "0x60806040523480156200001157600080fd5b5060405162001bd838038062001bd8833981016040819052620000349162000269565b620000466301ffc9a760e01b6200008c565b620000586380ac58cd60e01b6200008c565b81516200006d90600590602085019062000110565b5080516200008390600690602084019062000110565b50505062000323565b6001600160e01b03198082161415620000eb5760405162461bcd60e51b815260206004820152601c60248201527f4552433136353a20696e76616c696420696e7465726661636520696400000000604482015260640160405180910390fd5b6001600160e01b0319166000908152602081905260409020805460ff19166001179055565b8280546200011e90620002d0565b90600052602060002090601f0160209004810192826200014257600085556200018d565b82601f106200015d57805160ff19168380011785556200018d565b828001600101855582156200018d579182015b828111156200018d57825182559160200191906001019062000170565b506200019b9291506200019f565b5090565b5b808211156200019b5760008155600101620001a0565b600082601f830112620001c7578081fd5b81516001600160401b0380821115620001e457620001e46200030d565b604051601f8301601f19908116603f011681019082821181831017156200020f576200020f6200030d565b816040528381526020925086838588010111156200022b578485fd5b8491505b838210156200024e57858201830151818301840152908201906200022f565b838211156200025f57848385830101525b9695505050505050565b600080604083850312156200027c578182fd5b82516001600160401b038082111562000293578384fd5b620002a186838701620001b6565b93506020850151915080821115620002b7578283fd5b50620002c685828601620001b6565b9150509250929050565b600181811c90821680620002e557607f821691505b602082108114156200030757634e487b7160e01b600052602260045260246000fd5b50919050565b634e487b7160e01b600052604160045260246000fd5b6118a580620003336000396000f3fe608060405234801561001057600080fd5b506004361061018e5760003560e01c80636a627842116100de578063a2309ff811610097578063e985e9c511610071578063e985e9c51461037e578063f153768614610391578063f6a3d24e146103a4578063f84f89a2146103b757600080fd5b8063a2309ff814610350578063ac2681c614610358578063b88d4fde1461036b57600080fd5b80636a627842146102e957806370a08231146102fc57806388f74d091461030f57806389afcb441461032257806395d89b4114610335578063a22cb4651461033d57600080fd5b806316f0115b1161014b57806323b872dd1161012557806323b872dd1461029d57806342842e0e146102b05780634437152a146102c35780636352211e146102d657600080fd5b806316f0115b1461027157806318160ddd146102825780631a9c941f1461028a57600080fd5b806301ffc9a71461019357806306fdde03146101d5578063081812fc146101ea578063095ea7b31461021557806314f2c2601461022a57806316c197391461023c575b600080fd5b6101c06101a13660046115e0565b6001600160e01b03191660009081526020819052604090205460ff1690565b60405190151581526020015b60405180910390f35b6101dd6103ed565b6040516101cc91906116b5565b6101fd6101f8366004611618565b61047f565b6040516001600160a01b0390911681526020016101cc565b610228610223366004611539565b61050b565b005b600c545b6040519081526020016101cc565b61024f61024a3660046113c0565b6105cd565b60408051825181526020808401519082015291810151908201526060016101cc565b6007546001600160a01b03166101fd565b60095461022e565b610228610298366004611539565b61063c565b6102286102ab36600461140c565b6106c3565b6102286102be36600461140c565b6106df565b6102286102d13660046113c0565b6106fa565b6101fd6102e4366004611618565b61078a565b6102286102f73660046113c0565b61080d565b61022e61030a3660046113c0565b610931565b61022861031d366004611562565b610953565b6102286103303660046113c0565b610a7d565b6101dd610b9f565b61022861034b3660046114ff565b610bae565b60085461022e565b610228610366366004611539565b610c83565b610228610379366004611447565b610d41565b6101c061038c3660046113da565b610d5f565b61022e61039f3660046113c0565b610de3565b6101c06103b23660046113c0565b610e54565b61022e6103c53660046113c0565b6001600160a01b03166000908152600160209081526040808320548352600a90915290205490565b6060600580546103fc906117a8565b80601f0160208091040260200160405190810160405280929190818152602001828054610428906117a8565b80156104755780601f1061044a57610100808354040283529160200191610475565b820191906000526020600020905b81548152906001019060200180831161045857829003601f168201915b5050505050905090565b60008181526002602052604081205482906001600160a01b03166104ea5760405162461bcd60e51b815260206004820152601b60248201527f4552433732313a206e6f6e6578697374656e7420746f6b656e4964000000000060448201526064015b60405180910390fd5b6000838152600360205260409020546001600160a01b031691505b50919050565b6105148161078a565b6001600160a01b0316336001600160a01b0316146105745760405162461bcd60e51b815260206004820181905260248201527f4552433732312e617070726f76653a2063616c6c6572206e6f74206f776e657260448201526064016104e1565b60008181526003602052604080822080546001600160a01b0319166001600160a01b0386169081179091559051839233917f8c5be1e5ebec7d5bd14f71427d1e84f3dd0314c0f7b2291e5b200ac8c7c3b9259190a45050565b6105f160405180606001604052806000815260200160008152602001600081525090565b506001600160a01b03166000908152600160208181526040808420548452600b8252928390208351606081018552815481529281015491830191909152600201549181019190915290565b6007546001600160a01b031633146106665760405162461bcd60e51b81526004016104e1906116c8565b6001600160a01b0382166000818152600160209081526040808320548352600a82529182902084905590518381527f19b12734a92b05dca61848b299f0f8feb8ca9861f2e9805fcb673ccdde1113ac910160405180910390a25050565b6106cf33848484610e65565b6106da838383611031565b505050565b6106da83838360405180602001604052806000815250610d41565b6007546001600160a01b0316158061071c57506007546001600160a01b031633145b6107685760405162461bcd60e51b815260206004820152601b60248201527f4c546f6b656e2e736574506f6f6c3a206e6f7420616c6c6f776564000000000060448201526064016104e1565b600780546001600160a01b0319166001600160a01b0392909216919091179055565b60008181526002602052604081205482906001600160a01b03166107f05760405162461bcd60e51b815260206004820152601b60248201527f4552433732313a206e6f6e6578697374656e7420746f6b656e4964000000000060448201526064016104e1565b50506000908152600260205260409020546001600160a01b031690565b6007546001600160a01b031633146108375760405162461bcd60e51b81526004016104e1906116c8565b60098054906000610847836117dd565b9190505550600060086000815461085d906117dd565b91829055506000818152600260205260409020549091506001600160a01b0316156108ca5760405162461bcd60e51b815260206004820152601d60248201527f50546f6b656e2e6d696e743a206578697374656e7420746f6b656e496400000060448201526064016104e1565b6001600160a01b0382166000818152600160209081526040808320859055848352600290915280822080546001600160a01b0319168417905551839291907fddf252ad1be2c89b69c2b068fc378daa952ba7f163c4a11628f55a4df523b3ef908290a45050565b600061093c826110bd565b61094757600061094a565b60015b60ff1692915050565b6007546001600160a01b0316331461097d5760405162461bcd60e51b81526004016104e1906116c8565b6001600160a01b0382166000908152600160209081526040808320548352600b9091529020548151811580156109b257508015155b156109d157600c80549060006109c7836117dd565b91905055506109f9565b81158015906109de575080155b156109f957600c80549060006109f383611791565b91905055505b6001600160a01b0384166000818152600160208181526040808420548452600b825292839020875180825588830151938201849055888501516002909201829055845190815291820192909252918201527f69bbdb7f76e37244169df3de05c093148c618f1e44c748d8ee450284438be7ea9060600160405180910390a250505050565b6007546001600160a01b03163314610aa75760405162461bcd60e51b81526004016104e1906116c8565b6001600160a01b038116600090815260016020526040812054600980549192610acf83611791565b90915550506001600160a01b03821660009081526001602090815260408083208390558383526002825280832080546001600160a01b03199081169091556003835281842080549091169055600a8252808320839055600b90915290205415610b4857600c8054906000610b4283611791565b91905055505b6000818152600b602052604080822082815560018101839055600201829055518291906001600160a01b038516907fddf252ad1be2c89b69c2b068fc378daa952ba7f163c4a11628f55a4df523b3ef908390a45050565b6060600680546103fc906117a8565b610bb7336110bd565b610c175760405162461bcd60e51b815260206004820152602b60248201527f4552433732312e736574417070726f76616c466f72416c6c3a206e6f6e65786960448201526a39ba32b73a1037bbb732b960a91b60648201526084016104e1565b3360008181526004602090815260408083206001600160a01b03871680855290835292819020805460ff191686151590811790915590519081529192917f17307eab39ab6107e8899845ad3d59bd9653f200f220920489ca2b5937696c31910160405180910390a35050565b6007546001600160a01b03163314610cad5760405162461bcd60e51b81526004016104e1906116c8565b6001600160a01b0382166000908152600160209081526040808320548352600a909152812054610cde908390611724565b6001600160a01b0384166000818152600160209081526040808320548352600a825291829020849055905183815292935090917f19b12734a92b05dca61848b299f0f8feb8ca9861f2e9805fcb673ccdde1113ac910160405180910390a2505050565b610d4d33858585610e65565b610d59848484846110da565b50505050565b600082610d6b816110bd565b610db35760405162461bcd60e51b815260206004820152601960248201527822a9219b99189d103737b732bc34b9ba32b73a1037bbb732b960391b60448201526064016104e1565b50506001600160a01b03918216600090815260046020908152604080832093909416825291909152205460ff1690565b600081610def816110bd565b610e375760405162461bcd60e51b815260206004820152601960248201527822a9219b99189d103737b732bc34b9ba32b73a1037bbb732b960391b60448201526064016104e1565b50506001600160a01b031660009081526001602052604090205490565b6000610e5f826110bd565b92915050565b610e6e8161078a565b6001600160a01b0316836001600160a01b031614610ee05760405162461bcd60e51b815260206004820152602960248201527f4552433732312e5f76616c69646174655472616e736665723a206e6f74206f776044820152683732b2103a37b5b2b760b91b60648201526084016104e1565b6001600160a01b03821615801590610efe5750610efc826110bd565b155b610f635760405162461bcd60e51b815260206004820152603060248201527f4552433732312e5f76616c69646174655472616e736665723a20746f2061646460448201526f07265737320657869737473206f7220360841b60648201526084016104e1565b826001600160a01b0316846001600160a01b03161480610f9c57506000818152600360205260409020546001600160a01b038581169116145b80610fcc57506001600160a01b0380841660009081526004602090815260408083209388168352929052205460ff165b610d595760405162461bcd60e51b815260206004820152603060248201527f4552433732312e5f76616c69646174655472616e736665723a206e6f74206f7760448201526f1b995c881b9bdc88185c1c1c9bdd995960821b60648201526084016104e1565b6001600160a01b0380841660008181526001602081815260408084208490558684526003825280842080546001600160a01b03199081169091559588168085529282528084208790558684526002909152808320805490951682179094559251849392917fddf252ad1be2c89b69c2b068fc378daa952ba7f163c4a11628f55a4df523b3ef91a4505050565b6001600160a01b0316600090815260016020526040902054151590565b6110e5848484611031565b6110f184848484611158565b610d595760405162461bcd60e51b815260206004820152603260248201527f4552433732313a207472616e7366657220746f206e6f6e20455243373231526560448201527131b2b4bb32b91034b6b83632b6b2b73a32b960711b60648201526084016104e1565b60006001600160a01b0384163b61117157506001611222565b60006111f263150b7a0260e01b338887876040516024016111959493929190611678565b604051602081830303815290604052906001600160e01b0319166020820180516001600160e01b03838183161783525050505060405180606001604052806032815260200161183e603291396001600160a01b038816919061122a565b905060008180602001905181019061120a91906115fc565b6001600160e01b031916630a85bd0160e11b14925050505b949350505050565b60606112398484600085611243565b90505b9392505050565b6060824710156112a45760405162461bcd60e51b815260206004820152602660248201527f416464726573733a20696e73756666696369656e742062616c616e636520666f6044820152651c8818d85b1b60d21b60648201526084016104e1565b843b6112f25760405162461bcd60e51b815260206004820152601d60248201527f416464726573733a2063616c6c20746f206e6f6e2d636f6e747261637400000060448201526064016104e1565b600080866001600160a01b0316858760405161130e919061165c565b60006040518083038185875af1925050503d806000811461134b576040519150601f19603f3d011682016040523d82523d6000602084013e611350565b606091505b509150915061136082828661136b565b979650505050505050565b6060831561137a57508161123c565b82511561138a5782518084602001fd5b8160405162461bcd60e51b81526004016104e191906116b5565b80356001600160a01b03811681146113bb57600080fd5b919050565b6000602082840312156113d1578081fd5b61123c826113a4565b600080604083850312156113ec578081fd5b6113f5836113a4565b9150611403602084016113a4565b90509250929050565b600080600060608486031215611420578081fd5b611429846113a4565b9250611437602085016113a4565b9150604084013590509250925092565b6000806000806080858703121561145c578081fd5b611465856113a4565b935060206114748187016113a4565b935060408601359250606086013567ffffffffffffffff80821115611497578384fd5b818801915088601f8301126114aa578384fd5b8135818111156114bc576114bc61180e565b6114ce601f8201601f191685016116f3565b915080825289848285010111156114e3578485fd5b8084840185840137810190920192909252939692955090935050565b60008060408385031215611511578182fd5b61151a836113a4565b91506020830135801515811461152e578182fd5b809150509250929050565b6000806040838503121561154b578182fd5b611554836113a4565b946020939093013593505050565b6000808284036080811215611575578283fd5b61157e846113a4565b92506060601f1982011215611591578182fd5b506040516060810181811067ffffffffffffffff821117156115b5576115b561180e565b8060405250602084013581526040840135602082015260608401356040820152809150509250929050565b6000602082840312156115f1578081fd5b813561123c81611824565b60006020828403121561160d578081fd5b815161123c81611824565b600060208284031215611629578081fd5b5035919050565b60008151808452611648816020860160208601611765565b601f01601f19169290920160200192915050565b6000825161166e818460208701611765565b9190910192915050565b6001600160a01b03858116825284166020820152604081018390526080606082018190526000906116ab90830184611630565b9695505050505050565b60208152600061123c6020830184611630565b60208082526011908201527014151bdad95b8e881bdb9b1e481c1bdbdb607a1b604082015260600190565b604051601f8201601f1916810167ffffffffffffffff8111828210171561171c5761171c61180e565b604052919050565b600080821280156001600160ff1b0384900385131615611746576117466117f8565b600160ff1b839003841281161561175f5761175f6117f8565b50500190565b60005b83811015611780578181015183820152602001611768565b83811115610d595750506000910152565b6000816117a0576117a06117f8565b506000190190565b600181811c908216806117bc57607f821691505b6020821081141561050557634e487b7160e01b600052602260045260246000fd5b60006000198214156117f1576117f16117f8565b5060010190565b634e487b7160e01b600052601160045260246000fd5b634e487b7160e01b600052604160045260246000fd5b6001600160e01b03198116811461183a57600080fd5b5056fe4552433732313a207472616e7366657220746f206e6f6e20455243373231526563656976657220696d706c656d656e746572a2646970667358221220cb494a8260e578c8370baeb829f7966a5db5876185a7ac22169c0eb076068d3464736f6c63430008040033",
  "devdoc": {
    "kind": "dev",
    "methods": {
      "approve(address,uint256)": {
        "details": "Gives permission to `operator` to transfer `tokenId` token to another account. The approval is cleared when the token is transferred. Only a single account can be approved at a time, so approving the zero address clears previous approvals. Requirements: - The caller must own the token or be an approved operator. - `tokenId` must exist. Emits an {Approval} event."
      },
      "balanceOf(address)": {
        "details": "Returns the number of tokens in `owner`'s account."
      },
      "getApproved(uint256)": {
        "details": "Returns the account approved for `tokenId` token. Requirements: - `tokenId` must exist."
      },
      "getTokenId(address)": {
        "details": "Returns the 'tokenId' owned by 'owner' Requirements:  - `owner` must exist"
      },
      "isApprovedForAll(address,address)": {
        "details": "Returns if the `operator` is allowed to manage all of the assets of `owner`. See {setApprovalForAll}"
      },
      "ownerOf(uint256)": {
        "details": "Returns the owner of the `tokenId` token. Requirements: - `tokenId` must exist."
      },
      "safeTransferFrom(address,address,uint256)": {
        "details": "Safely transfers `tokenId` token from `from` to `to`, checking first that contract recipients are aware of the ERC721 protocol to prevent tokens from being forever locked. Requirements: - `from` cannot be the zero address. - `to` cannot be the zero address. - `tokenId` token must exist and be owned by `from`. - If the caller is not `from`, it must be have been allowed to move this token   by either {approve} or {setApprovalForAll}. - If `to` refers to a smart contract, it must implement   {IERC721Receiver-onERC721Received}, which is called upon a safe transfer. Emits a {Transfer} event."
      },
      "safeTransferFrom(address,address,uint256,bytes)": {
        "details": "Safely transfers `tokenId` token from `from` to `to`. Requirements: - `from` cannot be the zero address. - `to` cannot be the zero address. - `tokenId` token must exist and be owned by `from`. - If the caller is not `from`, it must be approved to move this token   by either {approve} or {setApprovalForAll}. - If `to` refers to a smart contract, it must implement   {IERC721Receiver-onERC721Received}, which is called upon a safe transfer. Emits a {Transfer} event."
      },
      "setApprovalForAll(address,bool)": {
        "details": "Approve or remove `operator` as an operator for the caller. Operators can call {transferFrom} or {safeTransferFrom} for any token owned by the caller. Requirements: - The `operator` cannot be the caller. Emits an {ApprovalForAll} event."
      },
      "supportsInterface(bytes4)": {
        "details": "See {IERC165-supportsInterface}. Time complexity O(1), guaranteed to always use less than 30 000 gas."
      },
      "transferFrom(address,address,uint256)": {
        "details": "Transfers `tokenId` token from `from` to `to`. WARNING: Usage of this method is discouraged, use {safeTransferFrom} whenever possible. Requirements: - `from` cannot be the zero address. - `to` cannot be the zero address. - `tokenId` token must be owned by `from`. - If the caller is not `from`, it must be approved to move this token   by either {approve} or {setApprovalForAll}. Emits a {Transfer} event."
      }
    },
    "version": 1
  },
  "userdoc": {
    "kind": "user",
    "methods": {},
    "version": 1
  },
  "storageLayout": {
    "storage": [
      {
        "astId": 20981,
        "contract": "contracts/polygon/perpetual_futures/tokens/PTokenLite.sol:PTokenLite",
        "label": "_supportedInterfaces",
        "offset": 0,
        "slot": "0",
        "type": "t_mapping(t_bytes4,t_bool)"
      },
      {
        "astId": 21366,
        "contract": "contracts/polygon/perpetual_futures/tokens/PTokenLite.sol:PTokenLite",
        "label": "_ownerTokenId",
        "offset": 0,
        "slot": "1",
        "type": "t_mapping(t_address,t_uint256)"
      },
      {
        "astId": 21370,
        "contract": "contracts/polygon/perpetual_futures/tokens/PTokenLite.sol:PTokenLite",
        "label": "_tokenIdOwner",
        "offset": 0,
        "slot": "2",
        "type": "t_mapping(t_uint256,t_address)"
      },
      {
        "astId": 21374,
        "contract": "contracts/polygon/perpetual_futures/tokens/PTokenLite.sol:PTokenLite",
        "label": "_tokenIdOperator",
        "offset": 0,
        "slot": "3",
        "type": "t_mapping(t_uint256,t_address)"
      },
      {
        "astId": 21380,
        "contract": "contracts/polygon/perpetual_futures/tokens/PTokenLite.sol:PTokenLite",
        "label": "_ownerOperator",
        "offset": 0,
        "slot": "4",
        "type": "t_mapping(t_address,t_mapping(t_address,t_bool))"
      },
      {
        "astId": 22005,
        "contract": "contracts/polygon/perpetual_futures/tokens/PTokenLite.sol:PTokenLite",
        "label": "_name",
        "offset": 0,
        "slot": "5",
        "type": "t_string_storage"
      },
      {
        "astId": 22007,
        "contract": "contracts/polygon/perpetual_futures/tokens/PTokenLite.sol:PTokenLite",
        "label": "_symbol",
        "offset": 0,
        "slot": "6",
        "type": "t_string_storage"
      },
      {
        "astId": 22009,
        "contract": "contracts/polygon/perpetual_futures/tokens/PTokenLite.sol:PTokenLite",
        "label": "_pool",
        "offset": 0,
        "slot": "7",
        "type": "t_address"
      },
      {
        "astId": 22011,
        "contract": "contracts/polygon/perpetual_futures/tokens/PTokenLite.sol:PTokenLite",
        "label": "_totalMinted",
        "offset": 0,
        "slot": "8",
        "type": "t_uint256"
      },
      {
        "astId": 22013,
        "contract": "contracts/polygon/perpetual_futures/tokens/PTokenLite.sol:PTokenLite",
        "label": "_totalSupply",
        "offset": 0,
        "slot": "9",
        "type": "t_uint256"
      },
      {
        "astId": 22017,
        "contract": "contracts/polygon/perpetual_futures/tokens/PTokenLite.sol:PTokenLite",
        "label": "_tokenIdMargin",
        "offset": 0,
        "slot": "10",
        "type": "t_mapping(t_uint256,t_int256)"
      },
      {
        "astId": 22022,
        "contract": "contracts/polygon/perpetual_futures/tokens/PTokenLite.sol:PTokenLite",
        "label": "_tokenIdPosition",
        "offset": 0,
        "slot": "11",
        "type": "t_mapping(t_uint256,t_struct(Position)19691_storage)"
      },
      {
        "astId": 22024,
        "contract": "contracts/polygon/perpetual_futures/tokens/PTokenLite.sol:PTokenLite",
        "label": "_numPositionHolders",
        "offset": 0,
        "slot": "12",
        "type": "t_uint256"
      }
    ],
    "types": {
      "t_address": {
        "encoding": "inplace",
        "label": "address",
        "numberOfBytes": "20"
      },
      "t_bool": {
        "encoding": "inplace",
        "label": "bool",
        "numberOfBytes": "1"
      },
      "t_bytes4": {
        "encoding": "inplace",
        "label": "bytes4",
        "numberOfBytes": "4"
      },
      "t_int256": {
        "encoding": "inplace",
        "label": "int256",
        "numberOfBytes": "32"
      },
      "t_mapping(t_address,t_bool)": {
        "encoding": "mapping",
        "key": "t_address",
        "label": "mapping(address => bool)",
        "numberOfBytes": "32",
        "value": "t_bool"
      },
      "t_mapping(t_address,t_mapping(t_address,t_bool))": {
        "encoding": "mapping",
        "key": "t_address",
        "label": "mapping(address => mapping(address => bool))",
        "numberOfBytes": "32",
        "value": "t_mapping(t_address,t_bool)"
      },
      "t_mapping(t_address,t_uint256)": {
        "encoding": "mapping",
        "key": "t_address",
        "label": "mapping(address => uint256)",
        "numberOfBytes": "32",
        "value": "t_uint256"
      },
      "t_mapping(t_bytes4,t_bool)": {
        "encoding": "mapping",
        "key": "t_bytes4",
        "label": "mapping(bytes4 => bool)",
        "numberOfBytes": "32",
        "value": "t_bool"
      },
      "t_mapping(t_uint256,t_address)": {
        "encoding": "mapping",
        "key": "t_uint256",
        "label": "mapping(uint256 => address)",
        "numberOfBytes": "32",
        "value": "t_address"
      },
      "t_mapping(t_uint256,t_int256)": {
        "encoding": "mapping",
        "key": "t_uint256",
        "label": "mapping(uint256 => int256)",
        "numberOfBytes": "32",
        "value": "t_int256"
      },
      "t_mapping(t_uint256,t_struct(Position)19691_storage)": {
        "encoding": "mapping",
        "key": "t_uint256",
        "label": "mapping(uint256 => struct IPTokenLite.Position)",
        "numberOfBytes": "32",
        "value": "t_struct(Position)19691_storage"
      },
      "t_string_storage": {
        "encoding": "bytes",
        "label": "string",
        "numberOfBytes": "32"
      },
      "t_struct(Position)19691_storage": {
        "encoding": "inplace",
        "label": "struct IPTokenLite.Position",
        "members": [
          {
            "astId": 19686,
            "contract": "contracts/polygon/perpetual_futures/tokens/PTokenLite.sol:PTokenLite",
            "label": "volume",
            "offset": 0,
            "slot": "0",
            "type": "t_int256"
          },
          {
            "astId": 19688,
            "contract": "contracts/polygon/perpetual_futures/tokens/PTokenLite.sol:PTokenLite",
            "label": "cost",
            "offset": 0,
            "slot": "1",
            "type": "t_int256"
          },
          {
            "astId": 19690,
            "contract": "contracts/polygon/perpetual_futures/tokens/PTokenLite.sol:PTokenLite",
            "label": "lastCumulativeFundingRate",
            "offset": 0,
            "slot": "2",
            "type": "t_int256"
          }
        ],
        "numberOfBytes": "96"
      },
      "t_uint256": {
        "encoding": "inplace",
        "label": "uint256",
        "numberOfBytes": "32"
      }
    }
  }
}