{
  "address": "0x4F2A8BC91D748cC32049A1e249cd6972221d86c1",
  "abi": [
    {
      "anonymous": false,
      "inputs": [
        {
          "indexed": true,
          "internalType": "address",
          "name": "owner",
          "type": "address"
        },
        {
          "indexed": true,
          "internalType": "address",
          "name": "approved",
          "type": "address"
        },
        {
          "indexed": true,
          "internalType": "uint256",
          "name": "tokenId",
          "type": "uint256"
        }
      ],
      "name": "Approval",
      "type": "event"
    },
    {
      "anonymous": false,
      "inputs": [
        {
          "indexed": true,
          "internalType": "address",
          "name": "owner",
          "type": "address"
        },
        {
          "indexed": true,
          "internalType": "address",
          "name": "operator",
          "type": "address"
        },
        {
          "indexed": false,
          "internalType": "bool",
          "name": "approved",
          "type": "bool"
        }
      ],
      "name": "ApprovalForAll",
      "type": "event"
    },
    {
      "anonymous": false,
      "inputs": [
        {
          "indexed": true,
          "internalType": "address",
          "name": "from",
          "type": "address"
        },
        {
          "indexed": true,
          "internalType": "address",
          "name": "to",
          "type": "address"
        },
        {
          "indexed": true,
          "internalType": "uint256",
          "name": "tokenId",
          "type": "uint256"
        }
      ],
      "name": "Transfer",
      "type": "event"
    },
    {
      "anonymous": false,
      "inputs": [
        {
          "indexed": true,
          "internalType": "address",
          "name": "owner",
          "type": "address"
        },
        {
          "indexed": false,
          "internalType": "int256",
          "name": "amount",
          "type": "int256"
        }
      ],
      "name": "UpdateMargin",
      "type": "event"
    },
    {
      "anonymous": false,
      "inputs": [
        {
          "indexed": true,
          "internalType": "address",
          "name": "owner",
          "type": "address"
        },
        {
          "indexed": false,
          "internalType": "int256",
          "name": "volume",
          "type": "int256"
        },
        {
          "indexed": false,
          "internalType": "int256",
          "name": "cost",
          "type": "int256"
        },
        {
          "indexed": false,
          "internalType": "int256",
          "name": "lastCumulativeFundingRate",
          "type": "int256"
        }
      ],
      "name": "UpdatePosition",
      "type": "event"
    },
    {
      "inputs": [
        {
          "internalType": "address",
          "name": "owner",
          "type": "address"
        },
        {
          "internalType": "int256",
          "name": "delta",
          "type": "int256"
        }
      ],
      "name": "addMargin",
      "outputs": [],
      "stateMutability": "nonpayable",
      "type": "function"
    },
    {
      "inputs": [
        {
          "internalType": "address",
          "name": "operator",
          "type": "address"
        },
        {
          "internalType": "uint256",
          "name": "tokenId",
          "type": "uint256"
        }
      ],
      "name": "approve",
      "outputs": [],
      "stateMutability": "nonpayable",
      "type": "function"
    },
    {
      "inputs": [
        {
          "internalType": "address",
          "name": "owner",
          "type": "address"
        }
      ],
      "name": "balanceOf",
      "outputs": [
        {
          "internalType": "uint256",
          "name": "",
          "type": "uint256"
        }
      ],
      "stateMutability": "view",
      "type": "function"
    },
    {
      "inputs": [
        {
          "internalType": "address",
          "name": "owner",
          "type": "address"
        }
      ],
      "name": "burn",
      "outputs": [],
      "stateMutability": "nonpayable",
      "type": "function"
    },
    {
      "inputs": [
        {
          "internalType": "address",
          "name": "owner",
          "type": "address"
        }
      ],
      "name": "exists",
      "outputs": [
        {
          "internalType": "bool",
          "name": "",
          "type": "bool"
        }
      ],
      "stateMutability": "view",
      "type": "function"
    },
    {
      "inputs": [
        {
          "internalType": "uint256",
          "name": "tokenId",
          "type": "uint256"
        }
      ],
      "name": "getApproved",
      "outputs": [
        {
          "internalType": "address",
          "name": "",
          "type": "address"
        }
      ],
      "stateMutability": "view",
      "type": "function"
    },
    {
      "inputs": [
        {
          "internalType": "address",
          "name": "owner",
          "type": "address"
        }
      ],
      "name": "getMargin",
      "outputs": [
        {
          "internalType": "int256",
          "name": "",
          "type": "int256"
        }
      ],
      "stateMutability": "view",
      "type": "function"
    },
    {
      "inputs": [],
      "name": "getNumPositionHolders",
      "outputs": [
        {
          "internalType": "uint256",
          "name": "",
          "type": "uint256"
        }
      ],
      "stateMutability": "view",
      "type": "function"
    },
    {
      "inputs": [
        {
          "internalType": "address",
          "name": "owner",
          "type": "address"
        }
      ],
      "name": "getPosition",
      "outputs": [
        {
          "components": [
            {
              "internalType": "int256",
              "name": "volume",
              "type": "int256"
            },
            {
              "internalType": "int256",
              "name": "cost",
              "type": "int256"
            },
            {
              "internalType": "int256",
              "name": "lastCumulativeFundingRate",
              "type": "int256"
            }
          ],
          "internalType": "struct IPTokenLite.Position",
          "name": "",
          "type": "tuple"
        }
      ],
      "stateMutability": "view",
      "type": "function"
    },
    {
      "inputs": [
        {
          "internalType": "address",
          "name": "owner",
          "type": "address"
        }
      ],
      "name": "getTokenId",
      "outputs": [
        {
          "internalType": "uint256",
          "name": "",
          "type": "uint256"
        }
      ],
      "stateMutability": "view",
      "type": "function"
    },
    {
      "inputs": [
        {
          "internalType": "string",
          "name": "name_",
          "type": "string"
        },
        {
          "internalType": "string",
          "name": "symbol_",
          "type": "string"
        }
      ],
      "name": "initialize",
      "outputs": [],
      "stateMutability": "nonpayable",
      "type": "function"
    },
    {
      "inputs": [
        {
          "internalType": "address",
          "name": "owner",
          "type": "address"
        },
        {
          "internalType": "address",
          "name": "operator",
          "type": "address"
        }
      ],
      "name": "isApprovedForAll",
      "outputs": [
        {
          "internalType": "bool",
          "name": "",
          "type": "bool"
        }
      ],
      "stateMutability": "view",
      "type": "function"
    },
    {
      "inputs": [
        {
          "internalType": "address",
          "name": "owner",
          "type": "address"
        }
      ],
      "name": "mint",
      "outputs": [],
      "stateMutability": "nonpayable",
      "type": "function"
    },
    {
      "inputs": [],
      "name": "name",
      "outputs": [
        {
          "internalType": "string",
          "name": "",
          "type": "string"
        }
      ],
      "stateMutability": "view",
      "type": "function"
    },
    {
      "inputs": [
        {
          "internalType": "uint256",
          "name": "tokenId",
          "type": "uint256"
        }
      ],
      "name": "ownerOf",
      "outputs": [
        {
          "internalType": "address",
          "name": "",
          "type": "address"
        }
      ],
      "stateMutability": "view",
      "type": "function"
    },
    {
      "inputs": [],
      "name": "pool",
      "outputs": [
        {
          "internalType": "address",
          "name": "",
          "type": "address"
        }
      ],
      "stateMutability": "view",
      "type": "function"
    },
    {
      "inputs": [
        {
          "internalType": "address",
          "name": "from",
          "type": "address"
        },
        {
          "internalType": "address",
          "name": "to",
          "type": "address"
        },
        {
          "internalType": "uint256",
          "name": "tokenId",
          "type": "uint256"
        }
      ],
      "name": "safeTransferFrom",
      "outputs": [],
      "stateMutability": "nonpayable",
      "type": "function"
    },
    {
      "inputs": [
        {
          "internalType": "address",
          "name": "from",
          "type": "address"
        },
        {
          "internalType": "address",
          "name": "to",
          "type": "address"
        },
        {
          "internalType": "uint256",
          "name": "tokenId",
          "type": "uint256"
        },
        {
          "internalType": "bytes",
          "name": "data",
          "type": "bytes"
        }
      ],
      "name": "safeTransferFrom",
      "outputs": [],
      "stateMutability": "nonpayable",
      "type": "function"
    },
    {
      "inputs": [
        {
          "internalType": "address",
          "name": "operator",
          "type": "address"
        },
        {
          "internalType": "bool",
          "name": "approved",
          "type": "bool"
        }
      ],
      "name": "setApprovalForAll",
      "outputs": [],
      "stateMutability": "nonpayable",
      "type": "function"
    },
    {
      "inputs": [
        {
          "internalType": "address",
          "name": "newPool",
          "type": "address"
        }
      ],
      "name": "setPool",
      "outputs": [],
      "stateMutability": "nonpayable",
      "type": "function"
    },
    {
      "inputs": [
        {
          "internalType": "bytes4",
          "name": "interfaceId",
          "type": "bytes4"
        }
      ],
      "name": "supportsInterface",
      "outputs": [
        {
          "internalType": "bool",
          "name": "",
          "type": "bool"
        }
      ],
      "stateMutability": "view",
      "type": "function"
    },
    {
      "inputs": [],
      "name": "symbol",
      "outputs": [
        {
          "internalType": "string",
          "name": "",
          "type": "string"
        }
      ],
      "stateMutability": "view",
      "type": "function"
    },
    {
      "inputs": [],
      "name": "totalMinted",
      "outputs": [
        {
          "internalType": "uint256",
          "name": "",
          "type": "uint256"
        }
      ],
      "stateMutability": "view",
      "type": "function"
    },
    {
      "inputs": [],
      "name": "totalSupply",
      "outputs": [
        {
          "internalType": "uint256",
          "name": "",
          "type": "uint256"
        }
      ],
      "stateMutability": "view",
      "type": "function"
    },
    {
      "inputs": [
        {
          "internalType": "address",
          "name": "from",
          "type": "address"
        },
        {
          "internalType": "address",
          "name": "to",
          "type": "address"
        },
        {
          "internalType": "uint256",
          "name": "tokenId",
          "type": "uint256"
        }
      ],
      "name": "transferFrom",
      "outputs": [],
      "stateMutability": "nonpayable",
      "type": "function"
    },
    {
      "inputs": [
        {
          "internalType": "address",
          "name": "owner",
          "type": "address"
        },
        {
          "internalType": "int256",
          "name": "margin",
          "type": "int256"
        }
      ],
      "name": "updateMargin",
      "outputs": [],
      "stateMutability": "nonpayable",
      "type": "function"
    },
    {
      "inputs": [
        {
          "internalType": "address",
          "name": "owner",
          "type": "address"
        },
        {
          "components": [
            {
              "internalType": "int256",
              "name": "volume",
              "type": "int256"
            },
            {
              "internalType": "int256",
              "name": "cost",
              "type": "int256"
            },
            {
              "internalType": "int256",
              "name": "lastCumulativeFundingRate",
              "type": "int256"
            }
          ],
          "internalType": "struct IPTokenLite.Position",
          "name": "position",
          "type": "tuple"
        }
      ],
      "name": "updatePosition",
      "outputs": [],
      "stateMutability": "nonpayable",
      "type": "function"
    }
  ],
  "transactionHash": "0x2ba918d73d90e45de6fd8f7b0ef5451423c086442cf6de10a453b2a4abc0af35",
  "args": [],
  "solcInputHash": "9cd843add4fd8e43f28cc692719e78bf",
  "bytecode": "0x608060405234801561001057600080fd5b506100216301ffc9a760e01b610036565b6100316380ac58cd60e01b610036565b6100b9565b6001600160e01b031980821614156100945760405162461bcd60e51b815260206004820152601c60248201527f4552433136353a20696e76616c696420696e7465726661636520696400000000604482015260640160405180910390fd5b6001600160e01b0319166000908152602081905260409020805460ff19166001179055565b611b6d806100c86000396000f3fe608060405234801561001057600080fd5b50600436106101a95760003560e01c80636352211e116100f9578063a2309ff811610097578063e985e9c511610071578063e985e9c5146103ac578063f1537686146103bf578063f6a3d24e146103d2578063f84f89a2146103e557600080fd5b8063a2309ff81461037e578063ac2681c614610386578063b88d4fde1461039957600080fd5b806388f74d09116100d357806388f74d091461033d57806389afcb441461035057806395d89b4114610363578063a22cb4651461036b57600080fd5b80636352211e146103045780636a6278421461031757806370a082311461032a57600080fd5b806316f0115b1161016657806323b872dd1161014057806323b872dd146102b857806342842e0e146102cb5780634437152a146102de5780634cd88b76146102f157600080fd5b806316f0115b1461028c57806318160ddd1461029d5780631a9c941f146102a557600080fd5b806301ffc9a7146101ae57806306fdde03146101f0578063081812fc14610205578063095ea7b31461023057806314f2c2601461024557806316c1973914610257575b600080fd5b6101db6101bc366004611878565b6001600160e01b03191660009081526020819052604090205460ff1690565b60405190151581526020015b60405180910390f35b6101f861041b565b6040516101e791906119ae565b610218610213366004611911565b6104ad565b6040516001600160a01b0390911681526020016101e7565b61024361023e3660046117d1565b610539565b005b600e545b6040519081526020016101e7565b61026a610265366004611697565b6105fb565b60408051825181526020808401519082015291810151908201526060016101e7565b6008546001600160a01b0316610218565b600a54610249565b6102436102b33660046117d1565b61066a565b6102436102c63660046116e3565b6106f1565b6102436102d93660046116e3565b61070d565b6102436102ec366004611697565b610728565b6102436102ff3660046118b0565b6107b8565b610218610312366004611911565b6108b4565b610243610325366004611697565b610937565b610249610338366004611697565b610a5b565b61024361034b3660046117fa565b610a7d565b61024361035e366004611697565b610ba7565b6101f8610cc9565b610243610379366004611797565b610cd8565b600954610249565b6102436103943660046117d1565b610dad565b6102436103a736600461171e565b610e6b565b6101db6103ba3660046116b1565b610e89565b6102496103cd366004611697565b610f0d565b6101db6103e0366004611697565b610f7e565b6102496103f3366004611697565b6001600160a01b03166000908152600160209081526040808320548352600c90915290205490565b60606006805461042a90611a70565b80601f016020809104026020016040519081016040528092919081815260200182805461045690611a70565b80156104a35780601f10610478576101008083540402835291602001916104a3565b820191906000526020600020905b81548152906001019060200180831161048657829003601f168201915b5050505050905090565b60008181526002602052604081205482906001600160a01b03166105185760405162461bcd60e51b815260206004820152601b60248201527f4552433732313a206e6f6e6578697374656e7420746f6b656e4964000000000060448201526064015b60405180910390fd5b6000838152600360205260409020546001600160a01b031691505b50919050565b610542816108b4565b6001600160a01b0316336001600160a01b0316146105a25760405162461bcd60e51b815260206004820181905260248201527f4552433732312e617070726f76653a2063616c6c6572206e6f74206f776e6572604482015260640161050f565b60008181526003602052604080822080546001600160a01b0319166001600160a01b0386169081179091559051839233917f8c5be1e5ebec7d5bd14f71427d1e84f3dd0314c0f7b2291e5b200ac8c7c3b9259190a45050565b61061f60405180606001604052806000815260200160008152602001600081525090565b506001600160a01b03166000908152600160208181526040808420548452600d8252928390208351606081018552815481529281015491830191909152600201549181019190915290565b6008546001600160a01b031633146106945760405162461bcd60e51b815260040161050f906119c1565b6001600160a01b0382166000818152600160209081526040808320548352600c82529182902084905590518381527f19b12734a92b05dca61848b299f0f8feb8ca9861f2e9805fcb673ccdde1113ac910160405180910390a25050565b6106fd33848484610f8f565b61070883838361115b565b505050565b61070883838360405180602001604052806000815250610e6b565b6008546001600160a01b0316158061074a57506008546001600160a01b031633145b6107965760405162461bcd60e51b815260206004820152601b60248201527f50546f6b656e2e736574506f6f6c3a206e6f7420616c6c6f7765640000000000604482015260640161050f565b600880546001600160a01b0319166001600160a01b0392909216919091179055565b600554610100900460ff16806107d1575060055460ff16155b6108345760405162461bcd60e51b815260206004820152602e60248201527f496e697469616c697a61626c653a20636f6e747261637420697320616c72656160448201526d191e481a5b9a5d1a585b1a5e995960921b606482015260840161050f565b600554610100900460ff16158015610856576005805461ffff19166101011790555b825161086990600690602086019061154d565b50815161087d90600790602085019061154d565b5061088e6380ac58cd60e01b6111e7565b61089e6301ffc9a760e01b6111e7565b8015610708576005805461ff0019169055505050565b60008181526002602052604081205482906001600160a01b031661091a5760405162461bcd60e51b815260206004820152601b60248201527f4552433732313a206e6f6e6578697374656e7420746f6b656e49640000000000604482015260640161050f565b50506000908152600260205260409020546001600160a01b031690565b6008546001600160a01b031633146109615760405162461bcd60e51b815260040161050f906119c1565b600a805490600061097183611aa5565b9190505550600060096000815461098790611aa5565b91829055506000818152600260205260409020549091506001600160a01b0316156109f45760405162461bcd60e51b815260206004820152601d60248201527f50546f6b656e2e6d696e743a206578697374656e7420746f6b656e4964000000604482015260640161050f565b6001600160a01b0382166000818152600160209081526040808320859055848352600290915280822080546001600160a01b0319168417905551839291907fddf252ad1be2c89b69c2b068fc378daa952ba7f163c4a11628f55a4df523b3ef908290a45050565b6000610a6682611266565b610a71576000610a74565b60015b60ff1692915050565b6008546001600160a01b03163314610aa75760405162461bcd60e51b815260040161050f906119c1565b6001600160a01b0382166000908152600160209081526040808320548352600d909152902054815181158015610adc57508015155b15610afb57600e8054906000610af183611aa5565b9190505550610b23565b8115801590610b08575080155b15610b2357600e8054906000610b1d83611a59565b91905055505b6001600160a01b0384166000818152600160208181526040808420548452600d825292839020875180825588830151938201849055888501516002909201829055845190815291820192909252918201527f69bbdb7f76e37244169df3de05c093148c618f1e44c748d8ee450284438be7ea9060600160405180910390a250505050565b6008546001600160a01b03163314610bd15760405162461bcd60e51b815260040161050f906119c1565b6001600160a01b038116600090815260016020526040812054600a80549192610bf983611a59565b90915550506001600160a01b03821660009081526001602090815260408083208390558383526002825280832080546001600160a01b03199081169091556003835281842080549091169055600c8252808320839055600d90915290205415610c7257600e8054906000610c6c83611a59565b91905055505b6000818152600d602052604080822082815560018101839055600201829055518291906001600160a01b038516907fddf252ad1be2c89b69c2b068fc378daa952ba7f163c4a11628f55a4df523b3ef908390a45050565b60606007805461042a90611a70565b610ce133611266565b610d415760405162461bcd60e51b815260206004820152602b60248201527f4552433732312e736574417070726f76616c466f72416c6c3a206e6f6e65786960448201526a39ba32b73a1037bbb732b960a91b606482015260840161050f565b3360008181526004602090815260408083206001600160a01b03871680855290835292819020805460ff191686151590811790915590519081529192917f17307eab39ab6107e8899845ad3d59bd9653f200f220920489ca2b5937696c31910160405180910390a35050565b6008546001600160a01b03163314610dd75760405162461bcd60e51b815260040161050f906119c1565b6001600160a01b0382166000908152600160209081526040808320548352600c909152812054610e089083906119ec565b6001600160a01b0384166000818152600160209081526040808320548352600c825291829020849055905183815292935090917f19b12734a92b05dca61848b299f0f8feb8ca9861f2e9805fcb673ccdde1113ac910160405180910390a2505050565b610e7733858585610f8f565b610e8384848484611283565b50505050565b600082610e9581611266565b610edd5760405162461bcd60e51b815260206004820152601960248201527822a9219b99189d103737b732bc34b9ba32b73a1037bbb732b960391b604482015260640161050f565b50506001600160a01b03918216600090815260046020908152604080832093909416825291909152205460ff1690565b600081610f1981611266565b610f615760405162461bcd60e51b815260206004820152601960248201527822a9219b99189d103737b732bc34b9ba32b73a1037bbb732b960391b604482015260640161050f565b50506001600160a01b031660009081526001602052604090205490565b6000610f8982611266565b92915050565b610f98816108b4565b6001600160a01b0316836001600160a01b03161461100a5760405162461bcd60e51b815260206004820152602960248201527f4552433732312e5f76616c69646174655472616e736665723a206e6f74206f776044820152683732b2103a37b5b2b760b91b606482015260840161050f565b6001600160a01b03821615801590611028575061102682611266565b155b61108d5760405162461bcd60e51b815260206004820152603060248201527f4552433732312e5f76616c69646174655472616e736665723a20746f2061646460448201526f07265737320657869737473206f7220360841b606482015260840161050f565b826001600160a01b0316846001600160a01b031614806110c657506000818152600360205260409020546001600160a01b038581169116145b806110f657506001600160a01b0380841660009081526004602090815260408083209388168352929052205460ff165b610e835760405162461bcd60e51b815260206004820152603060248201527f4552433732312e5f76616c69646174655472616e736665723a206e6f74206f7760448201526f1b995c881b9bdc88185c1c1c9bdd995960821b606482015260840161050f565b6001600160a01b0380841660008181526001602081815260408084208490558684526003825280842080546001600160a01b03199081169091559588168085529282528084208790558684526002909152808320805490951682179094559251849392917fddf252ad1be2c89b69c2b068fc378daa952ba7f163c4a11628f55a4df523b3ef91a4505050565b6001600160e01b031980821614156112415760405162461bcd60e51b815260206004820152601c60248201527f4552433136353a20696e76616c696420696e7465726661636520696400000000604482015260640161050f565b6001600160e01b0319166000908152602081905260409020805460ff19166001179055565b6001600160a01b0316600090815260016020526040902054151590565b61128e84848461115b565b61129a84848484611301565b610e835760405162461bcd60e51b815260206004820152603260248201527f4552433732313a207472616e7366657220746f206e6f6e20455243373231526560448201527131b2b4bb32b91034b6b83632b6b2b73a32b960711b606482015260840161050f565b60006001600160a01b0384163b61131a575060016113cb565b600061139b63150b7a0260e01b3388878760405160240161133e9493929190611971565b604051602081830303815290604052906001600160e01b0319166020820180516001600160e01b038381831617835250505050604051806060016040528060328152602001611b06603291396001600160a01b03881691906113d3565b90506000818060200190518101906113b39190611894565b6001600160e01b031916630a85bd0160e11b14925050505b949350505050565b60606113e284846000856113ec565b90505b9392505050565b60608247101561144d5760405162461bcd60e51b815260206004820152602660248201527f416464726573733a20696e73756666696369656e742062616c616e636520666f6044820152651c8818d85b1b60d21b606482015260840161050f565b843b61149b5760405162461bcd60e51b815260206004820152601d60248201527f416464726573733a2063616c6c20746f206e6f6e2d636f6e7472616374000000604482015260640161050f565b600080866001600160a01b031685876040516114b79190611955565b60006040518083038185875af1925050503d80600081146114f4576040519150601f19603f3d011682016040523d82523d6000602084013e6114f9565b606091505b5091509150611509828286611514565b979650505050505050565b606083156115235750816113e5565b8251156115335782518084602001fd5b8160405162461bcd60e51b815260040161050f91906119ae565b82805461155990611a70565b90600052602060002090601f01602090048101928261157b57600085556115c1565b82601f1061159457805160ff19168380011785556115c1565b828001600101855582156115c1579182015b828111156115c15782518255916020019190600101906115a6565b506115cd9291506115d1565b5090565b5b808211156115cd57600081556001016115d2565b600067ffffffffffffffff8084111561160157611601611ad6565b604051601f8501601f19908116603f0116810190828211818310171561162957611629611ad6565b8160405280935085815286868601111561164257600080fd5b858560208301376000602087830101525050509392505050565b80356001600160a01b038116811461167357600080fd5b919050565b600082601f830112611688578081fd5b6113e5838335602085016115e6565b6000602082840312156116a8578081fd5b6113e58261165c565b600080604083850312156116c3578081fd5b6116cc8361165c565b91506116da6020840161165c565b90509250929050565b6000806000606084860312156116f7578081fd5b6117008461165c565b925061170e6020850161165c565b9150604084013590509250925092565b60008060008060808587031215611733578081fd5b61173c8561165c565b935061174a6020860161165c565b925060408501359150606085013567ffffffffffffffff81111561176c578182fd5b8501601f8101871361177c578182fd5b61178b878235602084016115e6565b91505092959194509250565b600080604083850312156117a9578182fd5b6117b28361165c565b9150602083013580151581146117c6578182fd5b809150509250929050565b600080604083850312156117e3578182fd5b6117ec8361165c565b946020939093013593505050565b600080828403608081121561180d578283fd5b6118168461165c565b92506060601f1982011215611829578182fd5b506040516060810181811067ffffffffffffffff8211171561184d5761184d611ad6565b8060405250602084013581526040840135602082015260608401356040820152809150509250929050565b600060208284031215611889578081fd5b81356113e581611aec565b6000602082840312156118a5578081fd5b81516113e581611aec565b600080604083850312156118c2578182fd5b823567ffffffffffffffff808211156118d9578384fd5b6118e586838701611678565b935060208501359150808211156118fa578283fd5b5061190785828601611678565b9150509250929050565b600060208284031215611922578081fd5b5035919050565b60008151808452611941816020860160208601611a2d565b601f01601f19169290920160200192915050565b60008251611967818460208701611a2d565b9190910192915050565b6001600160a01b03858116825284166020820152604081018390526080606082018190526000906119a490830184611929565b9695505050505050565b6020815260006113e56020830184611929565b60208082526011908201527014151bdad95b8e881bdb9b1e481c1bdbdb607a1b604082015260600190565b600080821280156001600160ff1b0384900385131615611a0e57611a0e611ac0565b600160ff1b8390038412811615611a2757611a27611ac0565b50500190565b60005b83811015611a48578181015183820152602001611a30565b83811115610e835750506000910152565b600081611a6857611a68611ac0565b506000190190565b600181811c90821680611a8457607f821691505b6020821081141561053357634e487b7160e01b600052602260045260246000fd5b6000600019821415611ab957611ab9611ac0565b5060010190565b634e487b7160e01b600052601160045260246000fd5b634e487b7160e01b600052604160045260246000fd5b6001600160e01b031981168114611b0257600080fd5b5056fe4552433732313a207472616e7366657220746f206e6f6e20455243373231526563656976657220696d706c656d656e746572a26469706673582212201b8e10805db1af355489526864eeb12ffae81ab31f23285a06cd98f4b07db8d764736f6c63430008040033",
  "devdoc": {
    "kind": "dev",
    "methods": {
      "balanceOf(address)": {
        "details": "Returns the number of tokens in ``owner``'s account."
      },
      "getApproved(uint256)": {
        "details": "Returns the account approved for `tokenId` token. Requirements: - `tokenId` must exist."
      },
      "isApprovedForAll(address,address)": {
        "details": "Returns if the `operator` is allowed to manage all of the assets of `owner`. See {setApprovalForAll}"
      },
      "ownerOf(uint256)": {
        "details": "Returns the owner of the `tokenId` token. Requirements: - `tokenId` must exist."
      },
      "safeTransferFrom(address,address,uint256)": {
        "details": "Safely transfers `tokenId` token from `from` to `to`, checking first that contract recipients are aware of the ERC721 protocol to prevent tokens from being forever locked. Requirements: - `from` cannot be the zero address. - `to` cannot be the zero address. - `tokenId` token must exist and be owned by `from`. - If the caller is not `from`, it must be have been allowed to move this token by either {approve} or {setApprovalForAll}. - If `to` refers to a smart contract, it must implement {IERC721Receiver-onERC721Received}, which is called upon a safe transfer. Emits a {Transfer} event."
      },
      "safeTransferFrom(address,address,uint256,bytes)": {
        "details": "Safely transfers `tokenId` token from `from` to `to`. Requirements: - `from` cannot be the zero address. - `to` cannot be the zero address. - `tokenId` token must exist and be owned by `from`. - If the caller is not `from`, it must be approved to move this token by either {approve} or {setApprovalForAll}. - If `to` refers to a smart contract, it must implement {IERC721Receiver-onERC721Received}, which is called upon a safe transfer. Emits a {Transfer} event."
      },
      "supportsInterface(bytes4)": {
        "details": "See {IERC165-supportsInterface}. Time complexity O(1), guaranteed to always use less than 30 000 gas."
      },
      "transferFrom(address,address,uint256)": {
        "details": "Transfers `tokenId` token from `from` to `to`. WARNING: Usage of this method is discouraged, use {safeTransferFrom} whenever possible. Requirements: - `from` cannot be the zero address. - `to` cannot be the zero address. - `tokenId` token must be owned by `from`. - If the caller is not `from`, it must be approved to move this token by either {approve} or {setApprovalForAll}. Emits a {Transfer} event."
      }
    },
    "version": 1
  },
  "userdoc": {
    "kind": "user",
    "methods": {},
    "version": 1
  },
  "storageLayout": {
    "storage": [
      {
        "astId": 17258,
        "contract": "contracts/perpetual_futures/tokens/PTokenLite.sol:PTokenLite",
        "label": "_supportedInterfaces",
        "offset": 0,
        "slot": "0",
        "type": "t_mapping(t_bytes4,t_bool)"
      },
      {
        "astId": 17325,
        "contract": "contracts/perpetual_futures/tokens/PTokenLite.sol:PTokenLite",
        "label": "_ownerTokenId",
        "offset": 0,
        "slot": "1",
        "type": "t_mapping(t_address,t_uint256)"
      },
      {
        "astId": 17329,
        "contract": "contracts/perpetual_futures/tokens/PTokenLite.sol:PTokenLite",
        "label": "_tokenIdOwner",
        "offset": 0,
        "slot": "2",
        "type": "t_mapping(t_uint256,t_address)"
      },
      {
        "astId": 17333,
        "contract": "contracts/perpetual_futures/tokens/PTokenLite.sol:PTokenLite",
        "label": "_tokenIdOperator",
        "offset": 0,
        "slot": "3",
        "type": "t_mapping(t_uint256,t_address)"
      },
      {
        "astId": 17339,
        "contract": "contracts/perpetual_futures/tokens/PTokenLite.sol:PTokenLite",
        "label": "_ownerOperator",
        "offset": 0,
        "slot": "4",
        "type": "t_mapping(t_address,t_mapping(t_address,t_bool))"
      },
      {
        "astId": 7665,
        "contract": "contracts/perpetual_futures/tokens/PTokenLite.sol:PTokenLite",
        "label": "_initialized",
        "offset": 0,
        "slot": "5",
        "type": "t_bool"
      },
      {
        "astId": 7668,
        "contract": "contracts/perpetual_futures/tokens/PTokenLite.sol:PTokenLite",
        "label": "_initializing",
        "offset": 1,
        "slot": "5",
        "type": "t_bool"
      },
      {
        "astId": 17817,
        "contract": "contracts/perpetual_futures/tokens/PTokenLite.sol:PTokenLite",
        "label": "_name",
        "offset": 0,
        "slot": "6",
        "type": "t_string_storage"
      },
      {
        "astId": 17819,
        "contract": "contracts/perpetual_futures/tokens/PTokenLite.sol:PTokenLite",
        "label": "_symbol",
        "offset": 0,
        "slot": "7",
        "type": "t_string_storage"
      },
      {
        "astId": 17821,
        "contract": "contracts/perpetual_futures/tokens/PTokenLite.sol:PTokenLite",
        "label": "_pool",
        "offset": 0,
        "slot": "8",
        "type": "t_address"
      },
      {
        "astId": 17823,
        "contract": "contracts/perpetual_futures/tokens/PTokenLite.sol:PTokenLite",
        "label": "_totalMinted",
        "offset": 0,
        "slot": "9",
        "type": "t_uint256"
      },
      {
        "astId": 17825,
        "contract": "contracts/perpetual_futures/tokens/PTokenLite.sol:PTokenLite",
        "label": "_totalSupply",
        "offset": 0,
        "slot": "10",
        "type": "t_uint256"
      },
      {
        "astId": 17827,
        "contract": "contracts/perpetual_futures/tokens/PTokenLite.sol:PTokenLite",
        "label": "_collectionManager",
        "offset": 0,
        "slot": "11",
        "type": "t_address"
      },
      {
        "astId": 17831,
        "contract": "contracts/perpetual_futures/tokens/PTokenLite.sol:PTokenLite",
        "label": "_tokenIdMargin",
        "offset": 0,
        "slot": "12",
        "type": "t_mapping(t_uint256,t_int256)"
      },
      {
        "astId": 17836,
        "contract": "contracts/perpetual_futures/tokens/PTokenLite.sol:PTokenLite",
        "label": "_tokenIdPosition",
        "offset": 0,
        "slot": "13",
        "type": "t_mapping(t_uint256,t_struct(Position)19360_storage)"
      },
      {
        "astId": 17838,
        "contract": "contracts/perpetual_futures/tokens/PTokenLite.sol:PTokenLite",
        "label": "_numPositionHolders",
        "offset": 0,
        "slot": "14",
        "type": "t_uint256"
      }
    ],
    "types": {
      "t_address": {
        "encoding": "inplace",
        "label": "address",
        "numberOfBytes": "20"
      },
      "t_bool": {
        "encoding": "inplace",
        "label": "bool",
        "numberOfBytes": "1"
      },
      "t_bytes4": {
        "encoding": "inplace",
        "label": "bytes4",
        "numberOfBytes": "4"
      },
      "t_int256": {
        "encoding": "inplace",
        "label": "int256",
        "numberOfBytes": "32"
      },
      "t_mapping(t_address,t_bool)": {
        "encoding": "mapping",
        "key": "t_address",
        "label": "mapping(address => bool)",
        "numberOfBytes": "32",
        "value": "t_bool"
      },
      "t_mapping(t_address,t_mapping(t_address,t_bool))": {
        "encoding": "mapping",
        "key": "t_address",
        "label": "mapping(address => mapping(address => bool))",
        "numberOfBytes": "32",
        "value": "t_mapping(t_address,t_bool)"
      },
      "t_mapping(t_address,t_uint256)": {
        "encoding": "mapping",
        "key": "t_address",
        "label": "mapping(address => uint256)",
        "numberOfBytes": "32",
        "value": "t_uint256"
      },
      "t_mapping(t_bytes4,t_bool)": {
        "encoding": "mapping",
        "key": "t_bytes4",
        "label": "mapping(bytes4 => bool)",
        "numberOfBytes": "32",
        "value": "t_bool"
      },
      "t_mapping(t_uint256,t_address)": {
        "encoding": "mapping",
        "key": "t_uint256",
        "label": "mapping(uint256 => address)",
        "numberOfBytes": "32",
        "value": "t_address"
      },
      "t_mapping(t_uint256,t_int256)": {
        "encoding": "mapping",
        "key": "t_uint256",
        "label": "mapping(uint256 => int256)",
        "numberOfBytes": "32",
        "value": "t_int256"
      },
      "t_mapping(t_uint256,t_struct(Position)19360_storage)": {
        "encoding": "mapping",
        "key": "t_uint256",
        "label": "mapping(uint256 => struct IPTokenLite.Position)",
        "numberOfBytes": "32",
        "value": "t_struct(Position)19360_storage"
      },
      "t_string_storage": {
        "encoding": "bytes",
        "label": "string",
        "numberOfBytes": "32"
      },
      "t_struct(Position)19360_storage": {
        "encoding": "inplace",
        "label": "struct IPTokenLite.Position",
        "members": [
          {
            "astId": 19355,
            "contract": "contracts/perpetual_futures/tokens/PTokenLite.sol:PTokenLite",
            "label": "volume",
            "offset": 0,
            "slot": "0",
            "type": "t_int256"
          },
          {
            "astId": 19357,
            "contract": "contracts/perpetual_futures/tokens/PTokenLite.sol:PTokenLite",
            "label": "cost",
            "offset": 0,
            "slot": "1",
            "type": "t_int256"
          },
          {
            "astId": 19359,
            "contract": "contracts/perpetual_futures/tokens/PTokenLite.sol:PTokenLite",
            "label": "lastCumulativeFundingRate",
            "offset": 0,
            "slot": "2",
            "type": "t_int256"
          }
        ],
        "numberOfBytes": "96"
      },
      "t_uint256": {
        "encoding": "inplace",
        "label": "uint256",
        "numberOfBytes": "32"
      }
    }
  }
}