{
  "address": "0xA8c0ceC9C6ba4f24565caFd827C7fE00f9b4467E",
  "abi": [
    {
      "inputs": [
        {
          "components": [
            {
              "internalType": "address",
              "name": "vrfCoordinator",
              "type": "address"
            },
            {
              "internalType": "address",
              "name": "linkToken",
              "type": "address"
            },
            {
              "internalType": "bytes32",
              "name": "keyHash",
              "type": "bytes32"
            },
            {
              "internalType": "uint256",
              "name": "vrfFee",
              "type": "uint256"
            }
          ],
          "internalType": "struct VRFOracleInfo",
          "name": "_oracleInfo",
          "type": "tuple"
        }
      ],
      "stateMutability": "nonpayable",
      "type": "constructor"
    },
    {
      "anonymous": false,
      "inputs": [
        {
          "indexed": true,
          "internalType": "address",
          "name": "previousOwner",
          "type": "address"
        },
        {
          "indexed": true,
          "internalType": "address",
          "name": "newOwner",
          "type": "address"
        }
      ],
      "name": "OwnershipTransferred",
      "type": "event"
    },
    {
      "inputs": [],
      "name": "getRandomNumber",
      "outputs": [
        {
          "internalType": "bytes32",
          "name": "requestId",
          "type": "bytes32"
        }
      ],
      "stateMutability": "nonpayable",
      "type": "function"
    },
    {
      "inputs": [],
      "name": "owner",
      "outputs": [
        {
          "internalType": "address",
          "name": "",
          "type": "address"
        }
      ],
      "stateMutability": "view",
      "type": "function"
    },
    {
      "inputs": [
        {
          "internalType": "bytes32",
          "name": "requestId",
          "type": "bytes32"
        },
        {
          "internalType": "uint256",
          "name": "randomness",
          "type": "uint256"
        }
      ],
      "name": "rawFulfillRandomness",
      "outputs": [],
      "stateMutability": "nonpayable",
      "type": "function"
    },
    {
      "inputs": [],
      "name": "renounceOwnership",
      "outputs": [],
      "stateMutability": "nonpayable",
      "type": "function"
    },
    {
      "inputs": [
        {
          "internalType": "address",
          "name": "newOwner",
          "type": "address"
        }
      ],
      "name": "transferOwnership",
      "outputs": [],
      "stateMutability": "nonpayable",
      "type": "function"
    },
    {
      "inputs": [
        {
          "internalType": "address",
          "name": "collectionId",
          "type": "address"
        }
      ],
      "name": "whitelistCollection",
      "outputs": [],
      "stateMutability": "nonpayable",
      "type": "function"
    }
  ],
  "transactionHash": "0xeecb21bb95179a5b6bfa9985bcb31355a25f5fb25b0add56c95ba34b505e1cdb",
  "args": [
    {
      "vrfCoordinator": "0x8C7382F9D8f56b33781fE506E897a4F1e2d17255",
      "linkToken": "0x326C977E6efc84E512bB9C30f76E30c160eD06FB",
      "keyHash": "0x6e75b569a01ef56d18cab6a8e71e6600d6ce853834d4a5748b720d06f878b3a4",
      "vrfFee": "100000000000000"
    }
  ],
  "solcInputHash": "0cc6fa82c0eeb27ece16b294b847bb89",
  "bytecode": "0x61010060405234801561001157600080fd5b50604051610a1e380380610a1e833981016040819052610030916100e1565b805160208201516001600160601b0319606092831b811660a052911b1660805261005f61005a3390565b610073565b604081015160c0526060015160e05261015d565b600180546001600160a01b038381166001600160a01b0319831681179093556040519116919082907f8be0079c531659141344cd1fd0a4f28419497f9722a3daafe3b4186f6b6457e090600090a35050565b80516001600160a01b03811681146100dc57600080fd5b919050565b6000608082840312156100f2578081fd5b604051608081016001600160401b038111828210171561012057634e487b7160e01b83526041600452602483fd5b60405261012c836100c5565b815261013a602084016100c5565b602082015260408301516040820152606083015160608201528091505092915050565b60805160601c60a05160601c60c05160e05161086d6101b16000396000818161025b01526103870152600061036601526000818161012a015261057701526000818161027d0152610548015261086d6000f3fe608060405234801561001057600080fd5b50600436106100625760003560e01c8063715018a6146100675780638da5cb5b1461007157806394985ddd14610091578063c10aaf26146100a4578063dbdff2c1146100b7578063f2fde38b146100cd575b600080fd5b61006f6100e0565b005b6001546040516001600160a01b0390911681526020015b60405180910390f35b61006f61009f36600461071b565b61011f565b61006f6100b23660046106cd565b6101a5565b6100bf6101f3565b604051908152602001610088565b61006f6100db3660046106cd565b6103ce565b6001546001600160a01b031633146101135760405162461bcd60e51b815260040161010a906107be565b60405180910390fd5b61011d6000610469565b565b336001600160a01b037f000000000000000000000000000000000000000000000000000000000000000016146101975760405162461bcd60e51b815260206004820152601f60248201527f4f6e6c7920565246436f6f7264696e61746f722063616e2066756c66696c6c00604482015260640161010a565b6101a182826104bb565b5050565b6001546001600160a01b031633146101cf5760405162461bcd60e51b815260040161010a906107be565b6001600160a01b03166000908152600360205260409020805460ff19166001179055565b3360009081526003602052604081205460ff166102465760405162461bcd60e51b815260206004820152601160248201527024b73b30b634b2103932b8bab2b9ba32b960791b604482015260640161010a565b6040516370a0823160e01b81523060048201527f0000000000000000000000000000000000000000000000000000000000000000907f00000000000000000000000000000000000000000000000000000000000000006001600160a01b0316906370a082319060240160206040518083038186803b1580156102c757600080fd5b505afa1580156102db573d6000803e3d6000fd5b505050506040513d601f19601f820116820180604052508101906102ff919061073c565b10156103615760405162461bcd60e51b815260206004820152602b60248201527f4e6f7420656e6f756768204c494e4b202d2066696c6c20636f6e74726163742060448201526a1dda5d1a0819985d58d95d60aa1b606482015260840161010a565b6103ab7f00000000000000000000000000000000000000000000000000000000000000007f0000000000000000000000000000000000000000000000000000000000000000610544565b600081815260026020526040902080546001600160a01b03191633179055919050565b6001546001600160a01b031633146103f85760405162461bcd60e51b815260040161010a906107be565b6001600160a01b03811661045d5760405162461bcd60e51b815260206004820152602660248201527f4f776e61626c653a206e6577206f776e657220697320746865207a65726f206160448201526564647265737360d01b606482015260840161010a565b61046681610469565b50565b600180546001600160a01b038381166001600160a01b0319831681179093556040519116919082907f8be0079c531659141344cd1fd0a4f28419497f9722a3daafe3b4186f6b6457e090600090a35050565b6000828152600260208190526040909120546001600160a01b03169063072ac5f3906104e79084610817565b846040518363ffffffff1660e01b815260040161050e929190918252602082015260400190565b600060405180830381600087803b15801561052857600080fd5b505af115801561053c573d6000803e3d6000fd5b505050505050565b60007f00000000000000000000000000000000000000000000000000000000000000006001600160a01b0316634000aea07f0000000000000000000000000000000000000000000000000000000000000000848660006040516020016105b4929190918252602082015260400190565b6040516020818303038152906040526040518463ffffffff1660e01b81526004016105e193929190610754565b602060405180830381600087803b1580156105fb57600080fd5b505af115801561060f573d6000803e3d6000fd5b505050506040513d601f19601f8201168201806040525081019061063391906106fb565b5060008381526020818152604080832054815180840188905280830185905230606082015260808082018390528351808303909101815260a09091019092528151918301919091208684529290915261068d9060016107f3565b6000858152602081815260409182902092909255805180830187905280820184905281518082038301815260609091019091528051910120949350505050565b6000602082840312156106de578081fd5b81356001600160a01b03811681146106f4578182fd5b9392505050565b60006020828403121561070c578081fd5b815180151581146106f4578182fd5b6000806040838503121561072d578081fd5b50508035926020909101359150565b60006020828403121561074d578081fd5b5051919050565b60018060a01b0384168152600060208481840152606060408401528351806060850152825b8181101561079557858101830151858201608001528201610779565b818111156107a65783608083870101525b50601f01601f19169290920160800195945050505050565b6020808252818101527f4f776e61626c653a2063616c6c6572206973206e6f7420746865206f776e6572604082015260600190565b6000821982111561081257634e487b7160e01b81526011600452602481fd5b500190565b60008261083257634e487b7160e01b81526012600452602481fd5b50069056fea2646970667358221220690c9ed40154872a11058bc9fe4e8e19df74266265507820387f2442d22a48a864736f6c63430008040033",
  "devdoc": {
    "details": "the ownership will be transferred after deployment to the router contract",
    "kind": "dev",
    "methods": {
      "constructor": {
        "details": "constructor inherits VRFConsumerBase"
      },
      "getRandomNumber()": {
        "details": "requests randomness"
      },
      "owner()": {
        "details": "Returns the address of the current owner."
      },
      "renounceOwnership()": {
        "details": "Leaves the contract without owner. It will not be possible to call `onlyOwner` functions anymore. Can only be called by the current owner. NOTE: Renouncing ownership will leave the contract without an owner, thereby removing any functionality that is only available to the owner."
      },
      "transferOwnership(address)": {
        "details": "Transfers ownership of the contract to a new account (`newOwner`). Can only be called by the current owner."
      },
      "whitelistCollection(address)": {
        "details": "whitelist collections to get random from this contract"
      }
    },
    "version": 1
  },
  "userdoc": {
    "kind": "user",
    "methods": {},
    "version": 1
  },
  "storageLayout": {
    "storage": [
      {
        "astId": 879,
        "contract": "contracts/polygon/chainlink/RandomNumberConsumer.sol:RandomNumberConsumer",
        "label": "nonces",
        "offset": 0,
        "slot": "0",
        "type": "t_mapping(t_bytes32,t_uint256)"
      },
      {
        "astId": 4235,
        "contract": "contracts/polygon/chainlink/RandomNumberConsumer.sol:RandomNumberConsumer",
        "label": "_owner",
        "offset": 0,
        "slot": "1",
        "type": "t_address"
      },
      {
        "astId": 22035,
        "contract": "contracts/polygon/chainlink/RandomNumberConsumer.sol:RandomNumberConsumer",
        "label": "_requestIdToCollection",
        "offset": 0,
        "slot": "2",
        "type": "t_mapping(t_bytes32,t_address)"
      },
      {
        "astId": 22039,
        "contract": "contracts/polygon/chainlink/RandomNumberConsumer.sol:RandomNumberConsumer",
        "label": "_whitelistedCollections",
        "offset": 0,
        "slot": "3",
        "type": "t_mapping(t_address,t_bool)"
      }
    ],
    "types": {
      "t_address": {
        "encoding": "inplace",
        "label": "address",
        "numberOfBytes": "20"
      },
      "t_bool": {
        "encoding": "inplace",
        "label": "bool",
        "numberOfBytes": "1"
      },
      "t_bytes32": {
        "encoding": "inplace",
        "label": "bytes32",
        "numberOfBytes": "32"
      },
      "t_mapping(t_address,t_bool)": {
        "encoding": "mapping",
        "key": "t_address",
        "label": "mapping(address => bool)",
        "numberOfBytes": "32",
        "value": "t_bool"
      },
      "t_mapping(t_bytes32,t_address)": {
        "encoding": "mapping",
        "key": "t_bytes32",
        "label": "mapping(bytes32 => address)",
        "numberOfBytes": "32",
        "value": "t_address"
      },
      "t_mapping(t_bytes32,t_uint256)": {
        "encoding": "mapping",
        "key": "t_bytes32",
        "label": "mapping(bytes32 => uint256)",
        "numberOfBytes": "32",
        "value": "t_uint256"
      },
      "t_uint256": {
        "encoding": "inplace",
        "label": "uint256",
        "numberOfBytes": "32"
      }
    }
  }
}