{
  "address": "0x8660D82C3e2142d5B77B5F01bEfF8b3b2aAd29D6",
  "abi": [
    {
      "inputs": [],
      "stateMutability": "nonpayable",
      "type": "constructor"
    },
    {
      "anonymous": false,
      "inputs": [
        {
          "indexed": true,
          "internalType": "bytes32",
          "name": "role",
          "type": "bytes32"
        },
        {
          "indexed": true,
          "internalType": "bytes32",
          "name": "previousAdminRole",
          "type": "bytes32"
        },
        {
          "indexed": true,
          "internalType": "bytes32",
          "name": "newAdminRole",
          "type": "bytes32"
        }
      ],
      "name": "RoleAdminChanged",
      "type": "event"
    },
    {
      "anonymous": false,
      "inputs": [
        {
          "indexed": true,
          "internalType": "bytes32",
          "name": "role",
          "type": "bytes32"
        },
        {
          "indexed": true,
          "internalType": "address",
          "name": "account",
          "type": "address"
        },
        {
          "indexed": true,
          "internalType": "address",
          "name": "sender",
          "type": "address"
        }
      ],
      "name": "RoleGranted",
      "type": "event"
    },
    {
      "anonymous": false,
      "inputs": [
        {
          "indexed": true,
          "internalType": "bytes32",
          "name": "role",
          "type": "bytes32"
        },
        {
          "indexed": true,
          "internalType": "address",
          "name": "account",
          "type": "address"
        },
        {
          "indexed": true,
          "internalType": "address",
          "name": "sender",
          "type": "address"
        }
      ],
      "name": "RoleRevoked",
      "type": "event"
    },
    {
      "inputs": [],
      "name": "DEFAULT_ADMIN_ROLE",
      "outputs": [
        {
          "internalType": "bytes32",
          "name": "",
          "type": "bytes32"
        }
      ],
      "stateMutability": "view",
      "type": "function"
    },
    {
      "inputs": [],
      "name": "MANAGER",
      "outputs": [
        {
          "internalType": "bytes32",
          "name": "",
          "type": "bytes32"
        }
      ],
      "stateMutability": "view",
      "type": "function"
    },
    {
      "inputs": [
        {
          "internalType": "uint256",
          "name": "liquidity_",
          "type": "uint256"
        },
        {
          "internalType": "uint256",
          "name": "jots_",
          "type": "uint256"
        }
      ],
      "name": "addRedemableBalance",
      "outputs": [],
      "stateMutability": "nonpayable",
      "type": "function"
    },
    {
      "inputs": [],
      "name": "fundingTokenAddress",
      "outputs": [
        {
          "internalType": "address",
          "name": "",
          "type": "address"
        }
      ],
      "stateMutability": "view",
      "type": "function"
    },
    {
      "inputs": [
        {
          "internalType": "bytes32",
          "name": "role",
          "type": "bytes32"
        }
      ],
      "name": "getRoleAdmin",
      "outputs": [
        {
          "internalType": "bytes32",
          "name": "",
          "type": "bytes32"
        }
      ],
      "stateMutability": "view",
      "type": "function"
    },
    {
      "inputs": [
        {
          "internalType": "bytes32",
          "name": "role",
          "type": "bytes32"
        },
        {
          "internalType": "address",
          "name": "account",
          "type": "address"
        }
      ],
      "name": "grantRole",
      "outputs": [],
      "stateMutability": "nonpayable",
      "type": "function"
    },
    {
      "inputs": [
        {
          "internalType": "bytes32",
          "name": "role",
          "type": "bytes32"
        },
        {
          "internalType": "address",
          "name": "account",
          "type": "address"
        }
      ],
      "name": "hasRole",
      "outputs": [
        {
          "internalType": "bool",
          "name": "",
          "type": "bool"
        }
      ],
      "stateMutability": "view",
      "type": "function"
    },
    {
      "inputs": [
        {
          "internalType": "address",
          "name": "jot_",
          "type": "address"
        },
        {
          "internalType": "address",
          "name": "fundingToken_",
          "type": "address"
        },
        {
          "internalType": "address",
          "name": "syntheticCollection_",
          "type": "address"
        }
      ],
      "name": "initialize",
      "outputs": [],
      "stateMutability": "nonpayable",
      "type": "function"
    },
    {
      "inputs": [],
      "name": "jotAddress",
      "outputs": [
        {
          "internalType": "address",
          "name": "",
          "type": "address"
        }
      ],
      "stateMutability": "view",
      "type": "function"
    },
    {
      "inputs": [],
      "name": "jotsToRedeem",
      "outputs": [
        {
          "internalType": "uint256",
          "name": "",
          "type": "uint256"
        }
      ],
      "stateMutability": "view",
      "type": "function"
    },
    {
      "inputs": [],
      "name": "managerAddress",
      "outputs": [
        {
          "internalType": "address",
          "name": "",
          "type": "address"
        }
      ],
      "stateMutability": "view",
      "type": "function"
    },
    {
      "inputs": [
        {
          "internalType": "uint256",
          "name": "amountOfJots_",
          "type": "uint256"
        }
      ],
      "name": "redeem",
      "outputs": [],
      "stateMutability": "nonpayable",
      "type": "function"
    },
    {
      "inputs": [
        {
          "internalType": "bytes32",
          "name": "role",
          "type": "bytes32"
        },
        {
          "internalType": "address",
          "name": "account",
          "type": "address"
        }
      ],
      "name": "renounceRole",
      "outputs": [],
      "stateMutability": "nonpayable",
      "type": "function"
    },
    {
      "inputs": [
        {
          "internalType": "bytes32",
          "name": "role",
          "type": "bytes32"
        },
        {
          "internalType": "address",
          "name": "account",
          "type": "address"
        }
      ],
      "name": "revokeRole",
      "outputs": [],
      "stateMutability": "nonpayable",
      "type": "function"
    },
    {
      "inputs": [
        {
          "internalType": "bytes4",
          "name": "interfaceId",
          "type": "bytes4"
        }
      ],
      "name": "supportsInterface",
      "outputs": [
        {
          "internalType": "bool",
          "name": "",
          "type": "bool"
        }
      ],
      "stateMutability": "view",
      "type": "function"
    },
    {
      "inputs": [],
      "name": "totalLiquidityToRedeeem",
      "outputs": [
        {
          "internalType": "uint256",
          "name": "",
          "type": "uint256"
        }
      ],
      "stateMutability": "view",
      "type": "function"
    }
  ],
  "transactionHash": "0xd3322d31782e3916ef76eab15ec97c224619636510ab0442ef7b3ccaebf21e7b",
  "args": [],
  "solcInputHash": "0cc6fa82c0eeb27ece16b294b847bb89",
  "bytecode": "0x608060405234801561001057600080fd5b50600054610100900460ff168061002a575060005460ff16155b6100915760405162461bcd60e51b815260206004820152602e60248201527f496e697469616c697a61626c653a20636f6e747261637420697320616c72656160448201526d191e481a5b9a5d1a585b1a5e995960921b606482015260840160405180910390fd5b600054610100900460ff161580156100b3576000805461ffff19166101011790555b80156100c5576000805461ff00191690555b50610d74806100d56000396000f3fe608060405234801561001057600080fd5b50600436106101005760003560e01c8063888584e311610097578063c0c53b8b11610066578063c0c53b8b1461022c578063cf73a1bc1461023f578063d547741f14610252578063db006a751461026557600080fd5b8063888584e3146101ff57806391d1485414610208578063a217fddf1461021b578063be44db741461022357600080fd5b806336568abe116100d357806336568abe1461019b5780634bc4d599146101ae5780634c538fde146101d95780635ff44eb9146101ec57600080fd5b806301ffc9a7146101055780631b2df8501461012d578063248a9ca3146101625780632f2ff15d14610186575b600080fd5b610118610113366004610b86565b610278565b60405190151581526020015b60405180910390f35b6101547faf290d8680820aad922855f39b306097b20e28774d6c1ad35a20325630c3a02c81565b604051908152602001610124565b610154610170366004610b43565b6000908152600160208190526040909120015490565b610199610194366004610b5b565b6102af565b005b6101996101a9366004610b5b565b6102db565b6002546101c1906001600160a01b031681565b6040516001600160a01b039091168152602001610124565b6003546101c1906001600160a01b031681565b6101996101fa366004610bae565b61035e565b61015460065481565b610118610216366004610b5b565b6103be565b610154600081565b61015460055481565b61019961023a366004610ae1565b6103e9565b6004546101c1906001600160a01b031681565b610199610260366004610b5b565b61059e565b610199610273366004610b43565b6105c5565b60006001600160e01b03198216637965db0b60e01b14806102a957506301ffc9a760e01b6001600160e01b03198316145b92915050565b600082815260016020819052604090912001546102cc813361079c565b6102d68383610800565b505050565b6001600160a01b03811633146103505760405162461bcd60e51b815260206004820152602f60248201527f416363657373436f6e74726f6c3a2063616e206f6e6c792072656e6f756e636560448201526e103937b632b9903337b91039b2b63360891b60648201526084015b60405180910390fd5b61035a828261086b565b5050565b7faf290d8680820aad922855f39b306097b20e28774d6c1ad35a20325630c3a02c610389813361079c565b826005600082825461039b9190610c77565b9250508190555081600660008282546103b49190610c77565b9091555050505050565b60009182526001602090815260408084206001600160a01b0393909316845291905290205460ff1690565b600054610100900460ff1680610402575060005460ff16155b6104655760405162461bcd60e51b815260206004820152602e60248201527f496e697469616c697a61626c653a20636f6e747261637420697320616c72656160448201526d191e481a5b9a5d1a585b1a5e995960921b6064820152608401610347565b600054610100900460ff16158015610487576000805461ffff19166101011790555b6001600160a01b0384166104d15760405162461bcd60e51b815260206004820152601160248201527024b73b30b634b2102537ba103a37b5b2b760791b6044820152606401610347565b6001600160a01b03831661051f5760405162461bcd60e51b815260206004820152601560248201527424b73b30b634b210333ab73234b733903a37b5b2b760591b6044820152606401610347565b600280546001600160a01b038087166001600160a01b0319928316179092556003805486841690831617905560048054928516929091169190911790556105867faf290d8680820aad922855f39b306097b20e28774d6c1ad35a20325630c3a02c836108d2565b8015610598576000805461ff00191690555b50505050565b600082815260016020819052604090912001546105bb813361079c565b6102d6838361086b565b600081116106155760405162461bcd60e51b815260206004820152601f60248201527f416d6f756e742073686f756c642062652067726561746572207468616e2030006044820152606401610347565b8060065410156106605760405162461bcd60e51b8152602060048201526016602482015275139bdd08195b9bdd59da081d1bdad95b9cc81b19599d60521b6044820152606401610347565b6000600654826005546106739190610caf565b61067d9190610c8f565b905080600560008282546106919190610cce565b9250508190555081600660008282546106aa9190610cce565b909155505060035460405163a9059cbb60e01b8152336004820152602481018390526001600160a01b039091169063a9059cbb90604401602060405180830381600087803b1580156106fb57600080fd5b505af115801561070f573d6000803e3d6000fd5b505050506040513d601f19601f820116820180604052508101906107339190610b23565b5060025460405163079cc67960e41b8152336004820152602481018490526001600160a01b03909116906379cc679090604401600060405180830381600087803b15801561078057600080fd5b505af1158015610794573d6000803e3d6000fd5b505050505050565b6107a682826103be565b61035a576107be816001600160a01b031660146108dc565b6107c98360206108dc565b6040516020016107da929190610bcf565b60408051601f198184030181529082905262461bcd60e51b825261034791600401610c44565b61080a82826103be565b61035a5760008281526001602081815260408084206001600160a01b0386168086529252808420805460ff19169093179092559051339285917f2f8788117e7eff1d82e926ec794901d17c78024a50270940304540a733656f0d9190a45050565b61087582826103be565b1561035a5760008281526001602090815260408083206001600160a01b0385168085529252808320805460ff1916905551339285917ff6391f5c32d9c69d2a47ea670b442974b53935d1edc7fd64eb21e047a839171b9190a45050565b61035a8282610800565b606060006108eb836002610caf565b6108f6906002610c77565b67ffffffffffffffff81111561091c57634e487b7160e01b600052604160045260246000fd5b6040519080825280601f01601f191660200182016040528015610946576020820181803683370190505b509050600360fc1b8160008151811061096f57634e487b7160e01b600052603260045260246000fd5b60200101906001600160f81b031916908160001a905350600f60fb1b816001815181106109ac57634e487b7160e01b600052603260045260246000fd5b60200101906001600160f81b031916908160001a90535060006109d0846002610caf565b6109db906001610c77565b90505b6001811115610a6f576f181899199a1a9b1b9c1cb0b131b232b360811b85600f1660108110610a1d57634e487b7160e01b600052603260045260246000fd5b1a60f81b828281518110610a4157634e487b7160e01b600052603260045260246000fd5b60200101906001600160f81b031916908160001a90535060049490941c93610a6881610d11565b90506109de565b508315610abe5760405162461bcd60e51b815260206004820181905260248201527f537472696e67733a20686578206c656e67746820696e73756666696369656e746044820152606401610347565b9392505050565b80356001600160a01b0381168114610adc57600080fd5b919050565b600080600060608486031215610af5578283fd5b610afe84610ac5565b9250610b0c60208501610ac5565b9150610b1a60408501610ac5565b90509250925092565b600060208284031215610b34578081fd5b81518015158114610abe578182fd5b600060208284031215610b54578081fd5b5035919050565b60008060408385031215610b6d578182fd5b82359150610b7d60208401610ac5565b90509250929050565b600060208284031215610b97578081fd5b81356001600160e01b031981168114610abe578182fd5b60008060408385031215610bc0578182fd5b50508035926020909101359150565b7f416363657373436f6e74726f6c3a206163636f756e7420000000000000000000815260008351610c07816017850160208801610ce5565b7001034b99036b4b9b9b4b733903937b6329607d1b6017918401918201528351610c38816028840160208801610ce5565b01602801949350505050565b6020815260008251806020840152610c63816040850160208701610ce5565b601f01601f19169190910160400192915050565b60008219821115610c8a57610c8a610d28565b500190565b600082610caa57634e487b7160e01b81526012600452602481fd5b500490565b6000816000190483118215151615610cc957610cc9610d28565b500290565b600082821015610ce057610ce0610d28565b500390565b60005b83811015610d00578181015183820152602001610ce8565b838111156105985750506000910152565b600081610d2057610d20610d28565b506000190190565b634e487b7160e01b600052601160045260246000fdfea26469706673582212204204e9c568a2ba6ed3309c1de2a33355abadb101d081f159f5d9f258145d582564736f6c63430008040033",
  "devdoc": {
    "author": "priviprotocol",
    "kind": "dev",
    "methods": {
      "addRedemableBalance(uint256,uint256)": {
        "details": "setter for redeemable values updates (only from collection manager)",
        "params": {
          "jots_": "the increase on redeemable jots",
          "liquidity_": "the increase on redeemable liquidity"
        }
      },
      "constructor": {
        "details": "the initializer modifier is to lock the implementation initialization"
      },
      "getRoleAdmin(bytes32)": {
        "details": "Returns the admin role that controls `role`. See {grantRole} and {revokeRole}. To change a role's admin, use {_setRoleAdmin}."
      },
      "grantRole(bytes32,address)": {
        "details": "Grants `role` to `account`. If `account` had not been already granted `role`, emits a {RoleGranted} event. Requirements: - the caller must have ``role``'s admin role."
      },
      "hasRole(bytes32,address)": {
        "details": "Returns `true` if `account` has been granted `role`."
      },
      "initialize(address,address,address)": {
        "details": "initialize the proxy contract",
        "params": {
          "fundingToken_": "the address of the funding token",
          "jot_": "the address of the jot corresponding token"
        }
      },
      "redeem(uint256)": {
        "params": {
          "amountOfJots_": "the amount of jots to burn"
        }
      },
      "renounceRole(bytes32,address)": {
        "details": "Revokes `role` from the calling account. Roles are often managed via {grantRole} and {revokeRole}: this function's purpose is to provide a mechanism for accounts to lose their privileges if they are compromised (such as when a trusted device is misplaced). If the calling account had been granted `role`, emits a {RoleRevoked} event. Requirements: - the caller must be `account`."
      },
      "revokeRole(bytes32,address)": {
        "details": "Revokes `role` from `account`. If `account` had been granted `role`, emits a {RoleRevoked} event. Requirements: - the caller must have ``role``'s admin role."
      },
      "supportsInterface(bytes4)": {
        "details": "See {IERC165-supportsInterface}."
      }
    },
    "version": 1
  },
  "userdoc": {
    "kind": "user",
    "methods": {
      "fundingTokenAddress()": {
        "notice": "the address of the funding token used"
      },
      "jotAddress()": {
        "notice": "the address of the jot corresponding token"
      },
      "jotsToRedeem()": {
        "notice": "the total value in jots available to redeem"
      },
      "managerAddress()": {
        "notice": "the address of the synthetic collection"
      },
      "redeem(uint256)": {
        "notice": "allows to retrieve funding token from jots, to burn the supply left         by buyback calls without enough owner supply         the user should approve the jots to be burned before calling this function"
      },
      "totalLiquidityToRedeeem()": {
        "notice": "the total value in funding token available to redeem"
      }
    },
    "notice": "funds paid by owners on buyback events are sent to this contract",
    "version": 1
  },
  "storageLayout": {
    "storage": [
      {
        "astId": 7665,
        "contract": "contracts/polygon/implementations/RedemptionPool.sol:RedemptionPool",
        "label": "_initialized",
        "offset": 0,
        "slot": "0",
        "type": "t_bool"
      },
      {
        "astId": 7668,
        "contract": "contracts/polygon/implementations/RedemptionPool.sol:RedemptionPool",
        "label": "_initializing",
        "offset": 1,
        "slot": "0",
        "type": "t_bool"
      },
      {
        "astId": 3872,
        "contract": "contracts/polygon/implementations/RedemptionPool.sol:RedemptionPool",
        "label": "_roles",
        "offset": 0,
        "slot": "1",
        "type": "t_mapping(t_bytes32,t_struct(RoleData)3867_storage)"
      },
      {
        "astId": 24576,
        "contract": "contracts/polygon/implementations/RedemptionPool.sol:RedemptionPool",
        "label": "jotAddress",
        "offset": 0,
        "slot": "2",
        "type": "t_address"
      },
      {
        "astId": 24579,
        "contract": "contracts/polygon/implementations/RedemptionPool.sol:RedemptionPool",
        "label": "fundingTokenAddress",
        "offset": 0,
        "slot": "3",
        "type": "t_address"
      },
      {
        "astId": 24582,
        "contract": "contracts/polygon/implementations/RedemptionPool.sol:RedemptionPool",
        "label": "managerAddress",
        "offset": 0,
        "slot": "4",
        "type": "t_address"
      },
      {
        "astId": 24585,
        "contract": "contracts/polygon/implementations/RedemptionPool.sol:RedemptionPool",
        "label": "totalLiquidityToRedeeem",
        "offset": 0,
        "slot": "5",
        "type": "t_uint256"
      },
      {
        "astId": 24588,
        "contract": "contracts/polygon/implementations/RedemptionPool.sol:RedemptionPool",
        "label": "jotsToRedeem",
        "offset": 0,
        "slot": "6",
        "type": "t_uint256"
      }
    ],
    "types": {
      "t_address": {
        "encoding": "inplace",
        "label": "address",
        "numberOfBytes": "20"
      },
      "t_bool": {
        "encoding": "inplace",
        "label": "bool",
        "numberOfBytes": "1"
      },
      "t_bytes32": {
        "encoding": "inplace",
        "label": "bytes32",
        "numberOfBytes": "32"
      },
      "t_mapping(t_address,t_bool)": {
        "encoding": "mapping",
        "key": "t_address",
        "label": "mapping(address => bool)",
        "numberOfBytes": "32",
        "value": "t_bool"
      },
      "t_mapping(t_bytes32,t_struct(RoleData)3867_storage)": {
        "encoding": "mapping",
        "key": "t_bytes32",
        "label": "mapping(bytes32 => struct AccessControl.RoleData)",
        "numberOfBytes": "32",
        "value": "t_struct(RoleData)3867_storage"
      },
      "t_struct(RoleData)3867_storage": {
        "encoding": "inplace",
        "label": "struct AccessControl.RoleData",
        "members": [
          {
            "astId": 3864,
            "contract": "contracts/polygon/implementations/RedemptionPool.sol:RedemptionPool",
            "label": "members",
            "offset": 0,
            "slot": "0",
            "type": "t_mapping(t_address,t_bool)"
          },
          {
            "astId": 3866,
            "contract": "contracts/polygon/implementations/RedemptionPool.sol:RedemptionPool",
            "label": "adminRole",
            "offset": 0,
            "slot": "1",
            "type": "t_bytes32"
          }
        ],
        "numberOfBytes": "64"
      },
      "t_uint256": {
        "encoding": "inplace",
        "label": "uint256",
        "numberOfBytes": "32"
      }
    }
  }
}