{
  "contractName": "Settings",
  "abi": [
    {
      "inputs": [],
      "stateMutability": "nonpayable",
      "type": "constructor"
    },
    {
      "anonymous": false,
      "inputs": [
        {
          "indexed": false,
          "internalType": "address",
          "name": "_asset",
          "type": "address"
        },
        {
          "indexed": false,
          "internalType": "bool",
          "name": "_whitelisted",
          "type": "bool"
        }
      ],
      "name": "AssetWhitelisted",
      "type": "event"
    },
    {
      "anonymous": false,
      "inputs": [
        {
          "indexed": true,
          "internalType": "address",
          "name": "previousOwner",
          "type": "address"
        },
        {
          "indexed": true,
          "internalType": "address",
          "name": "newOwner",
          "type": "address"
        }
      ],
      "name": "OwnershipTransferred",
      "type": "event"
    },
    {
      "anonymous": false,
      "inputs": [
        {
          "indexed": false,
          "internalType": "uint256",
          "name": "_old",
          "type": "uint256"
        },
        {
          "indexed": false,
          "internalType": "uint256",
          "name": "_new",
          "type": "uint256"
        }
      ],
      "name": "UpdateCuratorFee",
      "type": "event"
    },
    {
      "anonymous": false,
      "inputs": [
        {
          "indexed": false,
          "internalType": "address",
          "name": "_old",
          "type": "address"
        },
        {
          "indexed": false,
          "internalType": "address",
          "name": "_new",
          "type": "address"
        }
      ],
      "name": "UpdateFeeReceiver",
      "type": "event"
    },
    {
      "anonymous": false,
      "inputs": [
        {
          "indexed": false,
          "internalType": "uint256",
          "name": "_old",
          "type": "uint256"
        },
        {
          "indexed": false,
          "internalType": "uint256",
          "name": "_new",
          "type": "uint256"
        }
      ],
      "name": "UpdateGovernanceFee",
      "type": "event"
    },
    {
      "anonymous": false,
      "inputs": [
        {
          "indexed": false,
          "internalType": "uint256",
          "name": "_old",
          "type": "uint256"
        },
        {
          "indexed": false,
          "internalType": "uint256",
          "name": "_new",
          "type": "uint256"
        }
      ],
      "name": "UpdateMaxAuctionLength",
      "type": "event"
    },
    {
      "anonymous": false,
      "inputs": [
        {
          "indexed": false,
          "internalType": "uint256",
          "name": "_old",
          "type": "uint256"
        },
        {
          "indexed": false,
          "internalType": "uint256",
          "name": "_new",
          "type": "uint256"
        }
      ],
      "name": "UpdateMaxReserveFactor",
      "type": "event"
    },
    {
      "anonymous": false,
      "inputs": [
        {
          "indexed": false,
          "internalType": "uint256",
          "name": "_old",
          "type": "uint256"
        },
        {
          "indexed": false,
          "internalType": "uint256",
          "name": "_new",
          "type": "uint256"
        }
      ],
      "name": "UpdateMinAuctionLength",
      "type": "event"
    },
    {
      "anonymous": false,
      "inputs": [
        {
          "indexed": false,
          "internalType": "uint256",
          "name": "_old",
          "type": "uint256"
        },
        {
          "indexed": false,
          "internalType": "uint256",
          "name": "_new",
          "type": "uint256"
        }
      ],
      "name": "UpdateMinBidIncrease",
      "type": "event"
    },
    {
      "anonymous": false,
      "inputs": [
        {
          "indexed": false,
          "internalType": "uint256",
          "name": "_old",
          "type": "uint256"
        },
        {
          "indexed": false,
          "internalType": "uint256",
          "name": "_new",
          "type": "uint256"
        }
      ],
      "name": "UpdateMinReserveFactor",
      "type": "event"
    },
    {
      "anonymous": false,
      "inputs": [
        {
          "indexed": false,
          "internalType": "uint256",
          "name": "_old",
          "type": "uint256"
        },
        {
          "indexed": false,
          "internalType": "uint256",
          "name": "_new",
          "type": "uint256"
        }
      ],
      "name": "UpdateMinVotePercentage",
      "type": "event"
    },
    {
      "inputs": [
        {
          "internalType": "address",
          "name": "",
          "type": "address"
        }
      ],
      "name": "assetWhitelisted",
      "outputs": [
        {
          "internalType": "bool",
          "name": "",
          "type": "bool"
        }
      ],
      "stateMutability": "view",
      "type": "function"
    },
    {
      "inputs": [],
      "name": "feeReceiver",
      "outputs": [
        {
          "internalType": "address payable",
          "name": "",
          "type": "address"
        }
      ],
      "stateMutability": "view",
      "type": "function"
    },
    {
      "inputs": [],
      "name": "governanceFee",
      "outputs": [
        {
          "internalType": "uint256",
          "name": "",
          "type": "uint256"
        }
      ],
      "stateMutability": "view",
      "type": "function"
    },
    {
      "inputs": [],
      "name": "maxAuctionLength",
      "outputs": [
        {
          "internalType": "uint256",
          "name": "",
          "type": "uint256"
        }
      ],
      "stateMutability": "view",
      "type": "function"
    },
    {
      "inputs": [],
      "name": "maxCuratorFee",
      "outputs": [
        {
          "internalType": "uint256",
          "name": "",
          "type": "uint256"
        }
      ],
      "stateMutability": "view",
      "type": "function"
    },
    {
      "inputs": [],
      "name": "maxGovFee",
      "outputs": [
        {
          "internalType": "uint256",
          "name": "",
          "type": "uint256"
        }
      ],
      "stateMutability": "view",
      "type": "function"
    },
    {
      "inputs": [],
      "name": "maxMaxAuctionLength",
      "outputs": [
        {
          "internalType": "uint256",
          "name": "",
          "type": "uint256"
        }
      ],
      "stateMutability": "view",
      "type": "function"
    },
    {
      "inputs": [],
      "name": "maxMinBidIncrease",
      "outputs": [
        {
          "internalType": "uint256",
          "name": "",
          "type": "uint256"
        }
      ],
      "stateMutability": "view",
      "type": "function"
    },
    {
      "inputs": [],
      "name": "maxReserveFactor",
      "outputs": [
        {
          "internalType": "uint256",
          "name": "",
          "type": "uint256"
        }
      ],
      "stateMutability": "view",
      "type": "function"
    },
    {
      "inputs": [],
      "name": "minAuctionLength",
      "outputs": [
        {
          "internalType": "uint256",
          "name": "",
          "type": "uint256"
        }
      ],
      "stateMutability": "view",
      "type": "function"
    },
    {
      "inputs": [],
      "name": "minBidIncrease",
      "outputs": [
        {
          "internalType": "uint256",
          "name": "",
          "type": "uint256"
        }
      ],
      "stateMutability": "view",
      "type": "function"
    },
    {
      "inputs": [],
      "name": "minMinAuctionLength",
      "outputs": [
        {
          "internalType": "uint256",
          "name": "",
          "type": "uint256"
        }
      ],
      "stateMutability": "view",
      "type": "function"
    },
    {
      "inputs": [],
      "name": "minMinBidIncrease",
      "outputs": [
        {
          "internalType": "uint256",
          "name": "",
          "type": "uint256"
        }
      ],
      "stateMutability": "view",
      "type": "function"
    },
    {
      "inputs": [],
      "name": "minReserveFactor",
      "outputs": [
        {
          "internalType": "uint256",
          "name": "",
          "type": "uint256"
        }
      ],
      "stateMutability": "view",
      "type": "function"
    },
    {
      "inputs": [],
      "name": "minVotePercentage",
      "outputs": [
        {
          "internalType": "uint256",
          "name": "",
          "type": "uint256"
        }
      ],
      "stateMutability": "view",
      "type": "function"
    },
    {
      "inputs": [],
      "name": "owner",
      "outputs": [
        {
          "internalType": "address",
          "name": "",
          "type": "address"
        }
      ],
      "stateMutability": "view",
      "type": "function"
    },
    {
      "inputs": [],
      "name": "renounceOwnership",
      "outputs": [],
      "stateMutability": "nonpayable",
      "type": "function"
    },
    {
      "inputs": [
        {
          "internalType": "address",
          "name": "newOwner",
          "type": "address"
        }
      ],
      "name": "transferOwnership",
      "outputs": [],
      "stateMutability": "nonpayable",
      "type": "function"
    },
    {
      "inputs": [
        {
          "internalType": "uint256",
          "name": "_length",
          "type": "uint256"
        }
      ],
      "name": "setMaxAuctionLength",
      "outputs": [],
      "stateMutability": "nonpayable",
      "type": "function"
    },
    {
      "inputs": [
        {
          "internalType": "uint256",
          "name": "_length",
          "type": "uint256"
        }
      ],
      "name": "setMinAuctionLength",
      "outputs": [],
      "stateMutability": "nonpayable",
      "type": "function"
    },
    {
      "inputs": [
        {
          "internalType": "uint256",
          "name": "_fee",
          "type": "uint256"
        }
      ],
      "name": "setGovernanceFee",
      "outputs": [],
      "stateMutability": "nonpayable",
      "type": "function"
    },
    {
      "inputs": [
        {
          "internalType": "uint256",
          "name": "_fee",
          "type": "uint256"
        }
      ],
      "name": "setMaxCuratorFee",
      "outputs": [],
      "stateMutability": "nonpayable",
      "type": "function"
    },
    {
      "inputs": [
        {
          "internalType": "uint256",
          "name": "_min",
          "type": "uint256"
        }
      ],
      "name": "setMinBidIncrease",
      "outputs": [],
      "stateMutability": "nonpayable",
      "type": "function"
    },
    {
      "inputs": [
        {
          "internalType": "uint256",
          "name": "_min",
          "type": "uint256"
        }
      ],
      "name": "setMinVotePercentage",
      "outputs": [],
      "stateMutability": "nonpayable",
      "type": "function"
    },
    {
      "inputs": [
        {
          "internalType": "uint256",
          "name": "_factor",
          "type": "uint256"
        }
      ],
      "name": "setMaxReserveFactor",
      "outputs": [],
      "stateMutability": "nonpayable",
      "type": "function"
    },
    {
      "inputs": [
        {
          "internalType": "uint256",
          "name": "_factor",
          "type": "uint256"
        }
      ],
      "name": "setMinReserveFactor",
      "outputs": [],
      "stateMutability": "nonpayable",
      "type": "function"
    },
    {
      "inputs": [
        {
          "internalType": "address payable",
          "name": "_receiver",
          "type": "address"
        }
      ],
      "name": "setFeeReceiver",
      "outputs": [],
      "stateMutability": "nonpayable",
      "type": "function"
    },
    {
      "inputs": [
        {
          "internalType": "address",
          "name": "asset",
          "type": "address"
        }
      ],
      "name": "whitelistAsset",
      "outputs": [],
      "stateMutability": "nonpayable",
      "type": "function"
    },
    {
      "inputs": [
        {
          "internalType": "address",
          "name": "asset",
          "type": "address"
        }
      ],
      "name": "blacklistAsset",
      "outputs": [],
      "stateMutability": "nonpayable",
      "type": "function"
    }
  ],
  "bytecode": "0x608060405234801561001057600080fd5b50610033610025640100000000610072810204565b640100000000610076810204565b621275006001556203f48060025560098054600160a060020a0319163317905560c86008556113886007556032600555606460045560fa6006556100c6565b3390565b60008054600160a060020a03838116600160a060020a0319831681178455604051919092169283917f8be0079c531659141344cd1fd0a4f28419497f9722a3daafe3b4186f6b6457e09190a35050565b611225806100d56000396000f3fe608060405234801561001057600080fd5b50600436106101ec576000357c010000000000000000000000000000000000000000000000000000000090048063715018a611610121578063a0b335e3116100bf578063e61103e31161008e578063e61103e314610359578063efdcd9741461036c578063f2fde38b1461037f578063fcd81e32146102e3576101ec565b8063a0b335e31461032e578063affdafd814610336578063b3f0067414610349578063d213b90014610351576101ec565b806384810309116100fb57806384810309146102eb5780638a364bc1146102fe5780638da5cb5b146103065780639665eb0f1461031b576101ec565b8063715018a6146102d35780637c513c0f146102db578063846a4dd2146102e3576101ec565b806332977c731161018e5780635410bfc9116101685780635410bfc91461029257806357c74c6c1461029a5780636109f5b5146102ad5780636fc83db3146102c0576101ec565b806332977c731461026f57806332a6933014610277578063339f87ed1461028a576101ec565b806318fee3bf116101ca57806318fee3bf1461021f57806319cdff59146102345780631a58364c146102545780632dafbe3c1461025c576101ec565b806309990a96146101f15780630e519ef91461020f5780630ea90a1214610217575b600080fd5b6101f9610392565b60405161020691906111c3565b60405180910390f35b6101f9610398565b6101f961039e565b61023261022d366004610dc3565b6103a4565b005b610247610242366004610da0565b610453565b6040516102069190610e24565b6101f9610468565b61023261026a366004610da0565b61046f565b6101f9610574565b610232610285366004610dc3565b61057a565b6101f9610620565b6101f9610625565b6102326102a8366004610dc3565b61062b565b6102326102bb366004610dc3565b6106d2565b6102326102ce366004610dc3565b610754565b610232610820565b6101f961086e565b6101f9610874565b6102326102f9366004610dc3565b610879565b6101f961091f565b61030e610925565b6040516102069190610ddb565b610232610329366004610dc3565b610934565b6101f96109fe565b610232610344366004610dc3565b610a04565b61030e610ad0565b6101f9610adf565b610232610367366004610da0565b610ae6565b61023261037a366004610da0565b610be7565b61023261038d366004610da0565b610cc8565b60085481565b60015481565b60035481565b6103ac610d3f565b600160a060020a03166103bd610925565b600160a060020a0316146103ef5760405160e560020a62461bcd0281526004016103e690611044565b60405180910390fd5b60075481106104135760405160e560020a62461bcd0281526004016103e690610e66565b7fa93910a1e82dcd753b639a2ff1def7bf84d6bb1bf6fe79212d0d9ae72afc6cfa600854826040516104469291906111cc565b60405180910390a1600855565b600a6020526000908152604090205460ff1681565b6249d40081565b610477610d3f565b600160a060020a0316610488610925565b600160a060020a0316146104b15760405160e560020a62461bcd0281526004016103e690611044565b600160a060020a0381166104da5760405160e560020a62461bcd0281526004016103e690610efa565b600160a060020a0381166000908152600a602052604090205460ff16156105165760405160e560020a62461bcd0281526004016103e690610fd6565b7ff58fb4d7d0d5f94847cb4a01d76409805828abe1c32cd54d578e5aa54dbedb6e816001604051610548929190610e09565b60405180910390a1600160a060020a03166000908152600a60205260409020805460ff19166001179055565b60065481565b610582610d3f565b600160a060020a0316610593610925565b600160a060020a0316146105bc5760405160e560020a62461bcd0281526004016103e690611044565b60648111156105e05760405160e560020a62461bcd0281526004016103e69061111e565b7f11b96af861c45de0c17127383516c92fc2a9d50eff86ea831b69e76a3fa87e2f600354826040516106139291906111cc565b60405180910390a1600355565b600a81565b60075481565b610633610d3f565b600160a060020a0316610644610925565b600160a060020a03161461066d5760405160e560020a62461bcd0281526004016103e690611044565b6103e88111156106925760405160e560020a62461bcd0281526004016103e69061118c565b7ff8298d9709c2527c6ec1e2c605c5a163b44b0520bdd80335d5faba17e3f38fb8600654826040516106c59291906111cc565b60405180910390a1600655565b6106da610d3f565b600160a060020a03166106eb610925565b600160a060020a0316146107145760405160e560020a62461bcd0281526004016103e690611044565b7f283f7179cc13a8f90c3123b415b98ca8a0ca9619eed3c981db52809ab62700f9600354826040516107479291906111cc565b60405180910390a1600455565b61075c610d3f565b600160a060020a031661076d610925565b600160a060020a0316146107965760405160e560020a62461bcd0281526004016103e690611044565b620151808110156107bc5760405160e560020a62461bcd0281526004016103e690611079565b60015481106107e05760405160e560020a62461bcd0281526004016103e6906110b0565b7f055017e5b2f20973817c668e2f744e7c1b68a6f20332f25bb7b9bbb2f0c7eca7600254826040516108139291906111cc565b60405180910390a1600255565b610828610d3f565b600160a060020a0316610839610925565b600160a060020a0316146108625760405160e560020a62461bcd0281526004016103e690611044565b61086c6000610d43565b565b60055481565b606481565b610881610d3f565b600160a060020a0316610892610925565b600160a060020a0316146108bb5760405160e560020a62461bcd0281526004016103e690611044565b60085481116108df5760405160e560020a62461bcd0281526004016103e69061100d565b7febec08ac4f5f91f0463f6e09a9b1729f1cbea09d240d8a1807ed6b9cd171ef19600754826040516109129291906111cc565b60405180910390a1600755565b60045481565b600054600160a060020a031690565b61093c610d3f565b600160a060020a031661094d610925565b600160a060020a0316146109765760405160e560020a62461bcd0281526004016103e690611044565b606481111561099a5760405160e560020a62461bcd0281526004016103e690610f68565b600a8110156109be5760405160e560020a62461bcd0281526004016103e690610f31565b7f3995c181714327dbf0232c3b20873e87ca6978b6418eec0f97a1447c5a4c43fc600554826040516109f19291906111cc565b60405180910390a1600555565b60025481565b610a0c610d3f565b600160a060020a0316610a1d610925565b600160a060020a031614610a465760405160e560020a62461bcd0281526004016103e690611044565b6249d400811115610a6c5760405160e560020a62461bcd0281526004016103e690610e2f565b6002548111610a905760405160e560020a62461bcd0281526004016103e690610f9f565b7f06684837277f012a4c3a13c8ec0e53d85b843e328a811a8f5f25f5e1456d9f5960015482604051610ac39291906111cc565b60405180910390a1600155565b600954600160a060020a031681565b6201518081565b610aee610d3f565b600160a060020a0316610aff610925565b600160a060020a031614610b285760405160e560020a62461bcd0281526004016103e690611044565b600160a060020a038116610b515760405160e560020a62461bcd0281526004016103e690610efa565b600160a060020a0381166000908152600a602052604090205460ff16610b8c5760405160e560020a62461bcd0281526004016103e6906110e7565b7ff58fb4d7d0d5f94847cb4a01d76409805828abe1c32cd54d578e5aa54dbedb6e816000604051610bbe929190610e09565b60405180910390a1600160a060020a03166000908152600a60205260409020805460ff19169055565b610bef610d3f565b600160a060020a0316610c00610925565b600160a060020a031614610c295760405160e560020a62461bcd0281526004016103e690611044565b600160a060020a038116610c525760405160e560020a62461bcd0281526004016103e690611155565b6009546040517f2861448678f0be67f11bfb5481b3e3b4cfeb3acc6126ad60a05f95bfc653066691610c9191600160a060020a03909116908490610def565b60405180910390a16009805473ffffffffffffffffffffffffffffffffffffffff1916600160a060020a0392909216919091179055565b610cd0610d3f565b600160a060020a0316610ce1610925565b600160a060020a031614610d0a5760405160e560020a62461bcd0281526004016103e690611044565b600160a060020a038116610d335760405160e560020a62461bcd0281526004016103e690610e9d565b610d3c81610d43565b50565b3390565b60008054600160a060020a0383811673ffffffffffffffffffffffffffffffffffffffff19831681178455604051919092169283917f8be0079c531659141344cd1fd0a4f28419497f9722a3daafe3b4186f6b6457e09190a35050565b600060208284031215610db1578081fd5b8135610dbc816111da565b9392505050565b600060208284031215610dd4578081fd5b5035919050565b600160a060020a0391909116815260200190565b600160a060020a0392831681529116602082015260400190565b600160a060020a039290921682521515602082015260400190565b901515815260200190565b6020808252601b908201527f6d61782061756374696f6e206c656e67746820746f6f20686967680000000000604082015260600190565b6020808252601b908201527f6d696e207265736572766520666163746f7220746f6f20686967680000000000604082015260600190565b60208082526026908201527f4f776e61626c653a206e6577206f776e657220697320746865207a65726f206160408201527f6464726573730000000000000000000000000000000000000000000000000000606082015260800190565b6020808252601f908201527f617373657420746f6b656e20616464726573732063616e6e6f74206265203000604082015260600190565b60208082526018908201527f6d696e2062696420696e63726561736520746f6f206c6f770000000000000000604082015260600190565b60208082526019908201527f6d696e2062696420696e63726561736520746f6f206869676800000000000000604082015260600190565b6020808252601a908201527f6d61782061756374696f6e206c656e67746820746f6f206c6f77000000000000604082015260600190565b60208082526013908201527f616c72656164792077686974656c697374656400000000000000000000000000604082015260600190565b6020808252601a908201527f6d6178207265736572766520666163746f7220746f6f206c6f77000000000000604082015260600190565b6020808252818101527f4f776e61626c653a2063616c6c6572206973206e6f7420746865206f776e6572604082015260600190565b6020808252601a908201527f6d696e2061756374696f6e206c656e67746820746f6f206c6f77000000000000604082015260600190565b6020808252601b908201527f6d696e2061756374696f6e206c656e67746820746f6f20686967680000000000604082015260600190565b60208082526013908201527f776173206e6f742077686974656c697374656400000000000000000000000000604082015260600190565b6020808252600c908201527f66656520746f6f20686967680000000000000000000000000000000000000000604082015260600190565b6020808252601b908201527f666565732063616e6e6f7420676f20746f203020616464726573730000000000604082015260600190565b6020808252601c908201527f6d696e20766f74652070657263656e7461676520746f6f206869676800000000604082015260600190565b90815260200190565b918252602082015260400190565b600160a060020a0381168114610d3c57600080fdfea2646970667358221220f4b6a3e24520683737492f553f99e645664b6a632063c0bef47b5fb9c390793664736f6c63430008010033",
  "immutableReferences": {},
  "source": "//SPDX-License-Identifier: MIT\npragma solidity ^0.8.0;\n\nimport \"@openzeppelin/contracts/access/Ownable.sol\";\nimport \"./Interfaces/ISettings.sol\";\n\ncontract Settings is Ownable, ISettings {\n    /// @notice the maximum auction length\n    uint256 public override maxAuctionLength;\n\n    /// @notice the longest an auction can ever be\n    uint256 public constant maxMaxAuctionLength = 8 weeks;\n\n    /// @notice the minimum auction length\n    uint256 public override minAuctionLength;\n\n    /// @notice the shortest an auction can ever be\n    uint256 public constant minMinAuctionLength = 1 days;\n\n    /// @notice governance fee max\n    uint256 public override governanceFee;\n\n    /// @notice 10% fee is max\n    uint256 public constant maxGovFee = 100;\n\n    /// @notice max curator fee\n    uint256 public override maxCuratorFee;\n\n    /// @notice the % bid increase required for a new bid\n    uint256 public override minBidIncrease;\n\n    /// @notice 10% bid increase is max\n    uint256 public constant maxMinBidIncrease = 100;\n\n    /// @notice 1% bid increase is min\n    uint256 public constant minMinBidIncrease = 10;\n\n    /// @notice the % of tokens required to be voting for an auction to start\n    uint256 public override minVotePercentage;\n\n    /// @notice the max % increase over the initial\n    uint256 public override maxReserveFactor;\n\n    /// @notice the max % decrease from the initial\n    uint256 public override minReserveFactor;\n\n    /// @notice the address who receives auction fees\n    address payable public override feeReceiver;\n\n    /// @notice the mapping which shows the asset whitelisted\n    mapping(address => bool) public override assetWhitelisted;\n\n    event UpdateMaxAuctionLength(uint256 _old, uint256 _new);\n\n    event UpdateMinAuctionLength(uint256 _old, uint256 _new);\n\n    event UpdateGovernanceFee(uint256 _old, uint256 _new);\n\n    event UpdateCuratorFee(uint256 _old, uint256 _new);\n\n    event UpdateMinBidIncrease(uint256 _old, uint256 _new);\n\n    event UpdateMinVotePercentage(uint256 _old, uint256 _new);\n\n    event UpdateMaxReserveFactor(uint256 _old, uint256 _new);\n\n    event UpdateMinReserveFactor(uint256 _old, uint256 _new);\n\n    event UpdateFeeReceiver(address _old, address _new);\n\n    event AssetWhitelisted(address _asset, bool _whitelisted);\n\n    constructor() {\n        maxAuctionLength = 2 weeks;\n        minAuctionLength = 3 days;\n        feeReceiver = payable(msg.sender);\n        minReserveFactor = 200; // 20%\n        maxReserveFactor = 5000; // 500%\n        minBidIncrease = 50; // 5%\n        maxCuratorFee = 100;\n        minVotePercentage = 250; // 25%\n    }\n\n    function setMaxAuctionLength(uint256 _length) external onlyOwner {\n        require(_length <= maxMaxAuctionLength, \"max auction length too high\");\n        require(_length > minAuctionLength, \"max auction length too low\");\n\n        emit UpdateMaxAuctionLength(maxAuctionLength, _length);\n\n        maxAuctionLength = _length;\n    }\n\n    function setMinAuctionLength(uint256 _length) external onlyOwner {\n        require(_length >= minMinAuctionLength, \"min auction length too low\");\n        require(_length < maxAuctionLength, \"min auction length too high\");\n\n        emit UpdateMinAuctionLength(minAuctionLength, _length);\n\n        minAuctionLength = _length;\n    }\n\n    function setGovernanceFee(uint256 _fee) external onlyOwner {\n        require(_fee <= maxGovFee, \"fee too high\");\n\n        emit UpdateGovernanceFee(governanceFee, _fee);\n\n        governanceFee = _fee;\n    }\n\n    function setMaxCuratorFee(uint256 _fee) external onlyOwner {\n        emit UpdateCuratorFee(governanceFee, _fee);\n\n        maxCuratorFee = _fee;\n    }\n\n    function setMinBidIncrease(uint256 _min) external onlyOwner {\n        require(_min <= maxMinBidIncrease, \"min bid increase too high\");\n        require(_min >= minMinBidIncrease, \"min bid increase too low\");\n\n        emit UpdateMinBidIncrease(minBidIncrease, _min);\n\n        minBidIncrease = _min;\n    }\n\n    function setMinVotePercentage(uint256 _min) external onlyOwner {\n        // 1000 is 100%\n        require(_min <= 1000, \"min vote percentage too high\");\n\n        emit UpdateMinVotePercentage(minVotePercentage, _min);\n\n        minVotePercentage = _min;\n    }\n\n    function setMaxReserveFactor(uint256 _factor) external onlyOwner {\n        require(_factor > minReserveFactor, \"max reserve factor too low\");\n\n        emit UpdateMaxReserveFactor(maxReserveFactor, _factor);\n\n        maxReserveFactor = _factor;\n    }\n\n    function setMinReserveFactor(uint256 _factor) external onlyOwner {\n        require(_factor < maxReserveFactor, \"min reserve factor too high\");\n\n        emit UpdateMinReserveFactor(minReserveFactor, _factor);\n\n        minReserveFactor = _factor;\n    }\n\n    function setFeeReceiver(address payable _receiver) external onlyOwner {\n        require(_receiver != address(0), \"fees cannot go to 0 address\");\n\n        emit UpdateFeeReceiver(feeReceiver, _receiver);\n\n        feeReceiver = _receiver;\n    }\n\n    function whitelistAsset(address asset) external onlyOwner {\n        require(asset != address(0), \"asset token address cannot be 0\");\n        require(!assetWhitelisted[asset], \"already whitelisted\");\n\n        emit AssetWhitelisted(asset, true);\n\n        assetWhitelisted[asset] = true;\n    }\n\n    function blacklistAsset(address asset) external onlyOwner {\n        require(asset != address(0), \"asset token address cannot be 0\");\n        require(assetWhitelisted[asset], \"was not whitelisted\");\n\n        emit AssetWhitelisted(asset, false);\n\n        assetWhitelisted[asset] = false;\n    }\n}\n",
  "sourcePath": "/Users/mac/Documents/Privi/Privi-Polygon/privi-nft-fractionalize/contracts/Settings.sol",
  "compiler": {
    "name": "solc",
    "version": "0.8.1+commit.df193b15.Emscripten.clang"
  },
  "schemaVersion": "3.4.3",
  "updatedAt": "2021-09-06T16:51:29.027Z",
  "devdoc": {
    "kind": "dev",
    "methods": {
      "owner()": {
        "details": "Returns the address of the current owner."
      },
      "renounceOwnership()": {
        "details": "Leaves the contract without owner. It will not be possible to call `onlyOwner` functions anymore. Can only be called by the current owner. NOTE: Renouncing ownership will leave the contract without an owner, thereby removing any functionality that is only available to the owner."
      },
      "transferOwnership(address)": {
        "details": "Transfers ownership of the contract to a new account (`newOwner`). Can only be called by the current owner."
      }
    },
    "version": 1
  },
  "userdoc": {
    "kind": "user",
    "methods": {
      "assetWhitelisted(address)": {
        "notice": "the mapping which shows the asset whitelisted"
      },
      "feeReceiver()": {
        "notice": "the address who receives auction fees"
      },
      "governanceFee()": {
        "notice": "governance fee max"
      },
      "maxAuctionLength()": {
        "notice": "the maximum auction length"
      },
      "maxCuratorFee()": {
        "notice": "max curator fee"
      },
      "maxGovFee()": {
        "notice": "10% fee is max"
      },
      "maxMaxAuctionLength()": {
        "notice": "the longest an auction can ever be"
      },
      "maxMinBidIncrease()": {
        "notice": "10% bid increase is max"
      },
      "maxReserveFactor()": {
        "notice": "the max % increase over the initial"
      },
      "minAuctionLength()": {
        "notice": "the minimum auction length"
      },
      "minBidIncrease()": {
        "notice": "the % bid increase required for a new bid"
      },
      "minMinAuctionLength()": {
        "notice": "the shortest an auction can ever be"
      },
      "minMinBidIncrease()": {
        "notice": "1% bid increase is min"
      },
      "minReserveFactor()": {
        "notice": "the max % decrease from the initial"
      },
      "minVotePercentage()": {
        "notice": "the % of tokens required to be voting for an auction to start"
      }
    },
    "version": 1
  }
}