{
  "address": "0x835825CfCC9E3F94Ee794A511769102B0d4ee46A",
  "abi": [
    {
      "inputs": [
        {
          "internalType": "address",
          "name": "tokenBlueprint",
          "type": "address"
        }
      ],
      "stateMutability": "nonpayable",
      "type": "constructor"
    },
    {
      "anonymous": false,
      "inputs": [
        {
          "indexed": false,
          "internalType": "address",
          "name": "token",
          "type": "address"
        },
        {
          "indexed": false,
          "internalType": "address",
          "name": "owner",
          "type": "address"
        },
        {
          "indexed": false,
          "internalType": "address",
          "name": "spawner",
          "type": "address"
        },
        {
          "indexed": false,
          "internalType": "uint256",
          "name": "totalCap",
          "type": "uint256"
        },
        {
          "indexed": false,
          "internalType": "uint256",
          "name": "initial",
          "type": "uint256"
        },
        {
          "indexed": false,
          "internalType": "uint256",
          "name": "reserved",
          "type": "uint256"
        },
        {
          "indexed": false,
          "internalType": "string",
          "name": "logoUrl",
          "type": "string"
        }
      ],
      "name": "TokenSpawned",
      "type": "event"
    },
    {
      "inputs": [],
      "name": "OWNER_ROLE",
      "outputs": [
        {
          "internalType": "bytes32",
          "name": "",
          "type": "bytes32"
        }
      ],
      "stateMutability": "view",
      "type": "function"
    },
    {
      "inputs": [
        {
          "internalType": "string",
          "name": "name",
          "type": "string"
        },
        {
          "internalType": "string",
          "name": "symbol",
          "type": "string"
        },
        {
          "internalType": "uint256",
          "name": "totalCap",
          "type": "uint256"
        },
        {
          "internalType": "uint256",
          "name": "initialMint",
          "type": "uint256"
        },
        {
          "internalType": "uint256",
          "name": "tax",
          "type": "uint256"
        },
        {
          "internalType": "address",
          "name": "taxTo",
          "type": "address"
        },
        {
          "internalType": "string",
          "name": "logoUrl",
          "type": "string"
        }
      ],
      "name": "spawn",
      "outputs": [],
      "stateMutability": "nonpayable",
      "type": "function"
    },
    {
      "inputs": [
        {
          "internalType": "address",
          "name": "owner",
          "type": "address"
        },
        {
          "internalType": "string",
          "name": "name",
          "type": "string"
        },
        {
          "internalType": "string",
          "name": "symbol",
          "type": "string"
        },
        {
          "internalType": "uint256",
          "name": "totalCap",
          "type": "uint256"
        },
        {
          "internalType": "uint256",
          "name": "initialMint",
          "type": "uint256"
        },
        {
          "internalType": "uint256",
          "name": "tax",
          "type": "uint256"
        },
        {
          "internalType": "address",
          "name": "taxTo",
          "type": "address"
        },
        {
          "internalType": "string",
          "name": "logoUrl",
          "type": "string"
        }
      ],
      "name": "spawnFor",
      "outputs": [],
      "stateMutability": "nonpayable",
      "type": "function"
    }
  ],
  "transactionHash": "0xb8c9b85a740c62e31902ec1cca376c0c9bc0ea9fbc0476d52b6d5a320285c25b",
  "args": [
    "0x9b58a6d15722d726f1C78783423B55a7925f9248"
  ],
  "solcInputHash": "0244788a5b9956875cde8a99f66f055c",
  "bytecode": "0x60a060405234801561001057600080fd5b5060405161084138038061084183398101604081905261002f9161009e565b6001600160a01b0381166100895760405162461bcd60e51b815260206004820152601f60248201527f496e76616c6964206164647265737320746f6b656e20626c75657072696e7400604482015260640160405180910390fd5b60601b6001600160601b0319166080526100cc565b6000602082840312156100af578081fd5b81516001600160a01b03811681146100c5578182fd5b9392505050565b60805160601c6107516100f06000396000818160ae01526101a601526107516000f3fe608060405234801561001057600080fd5b50600436106100415760003560e01c80632a13256e14610046578063738496141461005b578063e58378bb1461006e575b600080fd5b61005961005436600461041c565b6100a7565b005b6100596100693660046104e8565b61019f565b6100957fb19546dff01e856fb3f010c267a7b1c60363cf8a4664e21cc89c26224620214e81565b60405190815260200160405180910390f35b60006100d27f0000000000000000000000000000000000000000000000000000000000000000610296565b604051635cfeb05b60e11b81529091506001600160a01b0382169063b9fd60b690610111908d908d908d908d908d908d908d908d908d90600401610668565b600060405180830381600087803b15801561012b57600080fd5b505af115801561013f573d6000803e3d6000fd5b505050507f38a75dd5c0cee71ee9424748f99eb1465e3f7576a4018252afadf998d5505687818b338a8a8b8d61017591906106e2565b898960405161018b989796959493929190610614565b60405180910390a150505050505050505050565b60006101ca7f0000000000000000000000000000000000000000000000000000000000000000610296565b604051635cfeb05b60e11b81529091506001600160a01b0382169063b9fd60b6906102099033908d908d908d908d908d908d908d908d90600401610668565b600060405180830381600087803b15801561022357600080fd5b505af1158015610237573d6000803e3d6000fd5b505050507f38a75dd5c0cee71ee9424748f99eb1465e3f7576a4018252afadf998d55056878133338a8a8b8d61026d91906106e2565b8989604051610283989796959493929190610614565b60405180910390a1505050505050505050565b6000604051733d602d80600a3d3981f3363d3d373d3d3d363d7360601b81528260601b60148201526e5af43d82803e903d91602b57fd5bf360881b60288201526037816000f09150506001600160a01b0381166103325760405162461bcd60e51b8152602060048201526016602482015275115490cc4c4d8dce8818dc99585d194819985a5b195960521b604482015260640160405180910390fd5b919050565b80356001600160a01b038116811461033257600080fd5b60008083601f84011261035f578081fd5b50813567ffffffffffffffff811115610376578182fd5b60208301915083602082850101111561038e57600080fd5b9250929050565b600082601f8301126103a5578081fd5b813567ffffffffffffffff808211156103c0576103c0610705565b604051601f8301601f19908116603f011681019082821181831017156103e8576103e8610705565b81604052838152866020858801011115610400578485fd5b8360208701602083013792830160200193909352509392505050565b60008060008060008060008060006101008a8c03121561043a578485fd5b6104438a610337565b985060208a013567ffffffffffffffff8082111561045f578687fd5b61046b8d838e01610395565b995060408c0135915080821115610480578687fd5b61048c8d838e01610395565b985060608c0135975060808c0135965060a08c013595506104af60c08d01610337565b945060e08c01359150808211156104c4578384fd5b506104d18c828d0161034e565b915080935050809150509295985092959850929598565b60008060008060008060008060e0898b031215610503578384fd5b883567ffffffffffffffff8082111561051a578586fd5b6105268c838d01610395565b995060208b013591508082111561053b578586fd5b6105478c838d01610395565b985060408b0135975060608b0135965060808b0135955061056a60a08c01610337565b945060c08b013591508082111561057f578384fd5b5061058c8b828c0161034e565b999c989b5096995094979396929594505050565b81835281816020850137506000828201602090810191909152601f909101601f19169091010190565b60008151808452815b818110156105ee576020818501810151868301820152016105d2565b818111156105ff5782602083870101525b50601f01601f19169290920160200192915050565b600060018060a01b03808b168352808a1660208401528089166040840152508660608301528560808301528460a083015260e060c083015261065a60e0830184866105a0565b9a9950505050505050505050565b6001600160a01b038a811682526101006020830181905260009161068e8483018d6105c9565b915083820360408501526106a2828c6105c9565b91508960608501528860808501528760a085015280871660c08501525082810360e08401526106d28185876105a0565b9c9b505050505050505050505050565b60008282101561070057634e487b7160e01b81526011600452602481fd5b500390565b634e487b7160e01b600052604160045260246000fdfea26469706673582212207bb74f5c153327c4e2e8a615c5c681f8ff385c86e29f3902f654e37e5c8799b964736f6c63430008040033",
  "devdoc": {
    "kind": "dev",
    "methods": {},
    "version": 1
  },
  "userdoc": {
    "kind": "user",
    "methods": {},
    "version": 1
  },
  "storageLayout": {
    "storage": [],
    "types": null
  }
}