{
  "contractName": "SongsRouterMock",
  "abi": [
    {
      "inputs": [
        {
          "internalType": "address",
          "name": "collection_",
          "type": "address"
        },
        {
          "internalType": "uint256",
          "name": "tokenId_",
          "type": "uint256"
        },
        {
          "internalType": "address",
          "name": "artistRevenueAccount_",
          "type": "address"
        }
      ],
      "name": "stake",
      "outputs": [],
      "stateMutability": "nonpayable",
      "type": "function"
    }
  ],
  "bytecode": "0x608060405234801561001057600080fd5b50610173806100206000396000f3fe608060405234801561001057600080fd5b506004361061002b5760003560e01c8063294091cd14610030575b600080fd5b61004a6004803603810190610045919061007b565b61004c565b005b505050565b6000813590506100608161010f565b92915050565b60008135905061007581610126565b92915050565b6000806000606084860312156100945761009361010a565b5b60006100a286828701610051565b93505060206100b386828701610066565b92505060406100c486828701610051565b9150509250925092565b60006100d9826100e0565b9050919050565b600073ffffffffffffffffffffffffffffffffffffffff82169050919050565b6000819050919050565b600080fd5b610118816100ce565b811461012357600080fd5b50565b61012f81610100565b811461013a57600080fd5b5056fea26469706673582212202ac99093705ec6ef2b35a3fd23c262dcebc99e5b39e6445e6d1ab66022d0f0cb64736f6c63430008060033",
  "immutableReferences": {},
  "source": "// SPDX-License-Identifier: MIT\npragma solidity ^0.8.4;\n\ncontract SongsRouterMock {\n    function stake(\n        address collection_,\n        uint256 tokenId_,\n        address artistRevenueAccount_\n    ) external {} // solhint-disable-line\n}\n",
  "sourcePath": "/Users/angelsatorresalmenara/Desktop/privi-pods-smart-contract/contracts/mocks/SoungsRouterMock.sol",
  "compiler": {
    "name": "solc",
    "version": "0.8.6+commit.11564f7e.Emscripten.clang"
  },
  "schemaVersion": "3.4.3",
  "updatedAt": "2021-11-16T21:43:00.179Z",
  "networkType": "ethereum",
  "devdoc": {
    "kind": "dev",
    "methods": {},
    "version": 1
  },
  "userdoc": {
    "kind": "user",
    "methods": {},
    "version": 1
  }
}