{
  "contractName": "StakingGovernance",
  "abi": [
    {
      "inputs": [],
      "stateMutability": "nonpayable",
      "type": "constructor"
    },
    {
      "anonymous": false,
      "inputs": [
        {
          "indexed": false,
          "internalType": "uint256",
          "name": "proposalId",
          "type": "uint256"
        }
      ],
      "name": "ProposalCanceled",
      "type": "event"
    },
    {
      "anonymous": false,
      "inputs": [
        {
          "indexed": false,
          "internalType": "uint256",
          "name": "proposalId",
          "type": "uint256"
        },
        {
          "indexed": false,
          "internalType": "address",
          "name": "proposer",
          "type": "address"
        },
        {
          "indexed": false,
          "internalType": "address[]",
          "name": "targets",
          "type": "address[]"
        },
        {
          "indexed": false,
          "internalType": "uint256[]",
          "name": "values",
          "type": "uint256[]"
        },
        {
          "indexed": false,
          "internalType": "string[]",
          "name": "signatures",
          "type": "string[]"
        },
        {
          "indexed": false,
          "internalType": "bytes[]",
          "name": "calldatas",
          "type": "bytes[]"
        },
        {
          "indexed": false,
          "internalType": "uint256",
          "name": "startBlock",
          "type": "uint256"
        },
        {
          "indexed": false,
          "internalType": "uint256",
          "name": "endBlock",
          "type": "uint256"
        },
        {
          "indexed": false,
          "internalType": "string",
          "name": "description",
          "type": "string"
        }
      ],
      "name": "ProposalCreated",
      "type": "event"
    },
    {
      "anonymous": false,
      "inputs": [
        {
          "indexed": false,
          "internalType": "uint256",
          "name": "proposalId",
          "type": "uint256"
        }
      ],
      "name": "ProposalExecuted",
      "type": "event"
    },
    {
      "anonymous": false,
      "inputs": [
        {
          "indexed": false,
          "internalType": "uint256",
          "name": "oldQuorumNumerator",
          "type": "uint256"
        },
        {
          "indexed": false,
          "internalType": "uint256",
          "name": "newQuorumNumerator",
          "type": "uint256"
        }
      ],
      "name": "QuorumNumeratorUpdated",
      "type": "event"
    },
    {
      "anonymous": false,
      "inputs": [
        {
          "indexed": true,
          "internalType": "address",
          "name": "voter",
          "type": "address"
        },
        {
          "indexed": false,
          "internalType": "uint256",
          "name": "proposalId",
          "type": "uint256"
        },
        {
          "indexed": false,
          "internalType": "uint8",
          "name": "support",
          "type": "uint8"
        },
        {
          "indexed": false,
          "internalType": "uint256",
          "name": "weight",
          "type": "uint256"
        },
        {
          "indexed": false,
          "internalType": "string",
          "name": "reason",
          "type": "string"
        }
      ],
      "name": "VoteCast",
      "type": "event"
    },
    {
      "inputs": [],
      "name": "BALLOT_TYPEHASH",
      "outputs": [
        {
          "internalType": "bytes32",
          "name": "",
          "type": "bytes32"
        }
      ],
      "stateMutability": "view",
      "type": "function",
      "constant": true
    },
    {
      "inputs": [],
      "name": "COUNTING_MODE",
      "outputs": [
        {
          "internalType": "string",
          "name": "",
          "type": "string"
        }
      ],
      "stateMutability": "pure",
      "type": "function",
      "constant": true
    },
    {
      "inputs": [
        {
          "internalType": "uint256",
          "name": "proposalId",
          "type": "uint256"
        },
        {
          "internalType": "uint8",
          "name": "support",
          "type": "uint8"
        }
      ],
      "name": "castVote",
      "outputs": [
        {
          "internalType": "uint256",
          "name": "",
          "type": "uint256"
        }
      ],
      "stateMutability": "nonpayable",
      "type": "function"
    },
    {
      "inputs": [
        {
          "internalType": "uint256",
          "name": "proposalId",
          "type": "uint256"
        },
        {
          "internalType": "uint8",
          "name": "support",
          "type": "uint8"
        },
        {
          "internalType": "uint8",
          "name": "v",
          "type": "uint8"
        },
        {
          "internalType": "bytes32",
          "name": "r",
          "type": "bytes32"
        },
        {
          "internalType": "bytes32",
          "name": "s",
          "type": "bytes32"
        }
      ],
      "name": "castVoteBySig",
      "outputs": [
        {
          "internalType": "uint256",
          "name": "",
          "type": "uint256"
        }
      ],
      "stateMutability": "nonpayable",
      "type": "function"
    },
    {
      "inputs": [
        {
          "internalType": "uint256",
          "name": "proposalId",
          "type": "uint256"
        },
        {
          "internalType": "uint8",
          "name": "support",
          "type": "uint8"
        },
        {
          "internalType": "string",
          "name": "reason",
          "type": "string"
        }
      ],
      "name": "castVoteWithReason",
      "outputs": [
        {
          "internalType": "uint256",
          "name": "",
          "type": "uint256"
        }
      ],
      "stateMutability": "nonpayable",
      "type": "function"
    },
    {
      "inputs": [
        {
          "internalType": "address[]",
          "name": "targets",
          "type": "address[]"
        },
        {
          "internalType": "uint256[]",
          "name": "values",
          "type": "uint256[]"
        },
        {
          "internalType": "bytes[]",
          "name": "calldatas",
          "type": "bytes[]"
        },
        {
          "internalType": "bytes32",
          "name": "descriptionHash",
          "type": "bytes32"
        }
      ],
      "name": "execute",
      "outputs": [
        {
          "internalType": "uint256",
          "name": "",
          "type": "uint256"
        }
      ],
      "stateMutability": "payable",
      "type": "function",
      "payable": true
    },
    {
      "inputs": [
        {
          "internalType": "uint256",
          "name": "proposalId",
          "type": "uint256"
        },
        {
          "internalType": "address",
          "name": "account",
          "type": "address"
        }
      ],
      "name": "hasVoted",
      "outputs": [
        {
          "internalType": "bool",
          "name": "",
          "type": "bool"
        }
      ],
      "stateMutability": "view",
      "type": "function",
      "constant": true
    },
    {
      "inputs": [
        {
          "internalType": "address[]",
          "name": "targets",
          "type": "address[]"
        },
        {
          "internalType": "uint256[]",
          "name": "values",
          "type": "uint256[]"
        },
        {
          "internalType": "bytes[]",
          "name": "calldatas",
          "type": "bytes[]"
        },
        {
          "internalType": "bytes32",
          "name": "descriptionHash",
          "type": "bytes32"
        }
      ],
      "name": "hashProposal",
      "outputs": [
        {
          "internalType": "uint256",
          "name": "",
          "type": "uint256"
        }
      ],
      "stateMutability": "pure",
      "type": "function",
      "constant": true
    },
    {
      "inputs": [],
      "name": "name",
      "outputs": [
        {
          "internalType": "string",
          "name": "",
          "type": "string"
        }
      ],
      "stateMutability": "view",
      "type": "function",
      "constant": true
    },
    {
      "inputs": [
        {
          "internalType": "uint256",
          "name": "proposalId",
          "type": "uint256"
        }
      ],
      "name": "proposalDeadline",
      "outputs": [
        {
          "internalType": "uint256",
          "name": "",
          "type": "uint256"
        }
      ],
      "stateMutability": "view",
      "type": "function",
      "constant": true
    },
    {
      "inputs": [
        {
          "internalType": "uint256",
          "name": "proposalId",
          "type": "uint256"
        }
      ],
      "name": "proposalSnapshot",
      "outputs": [
        {
          "internalType": "uint256",
          "name": "",
          "type": "uint256"
        }
      ],
      "stateMutability": "view",
      "type": "function",
      "constant": true
    },
    {
      "inputs": [
        {
          "internalType": "uint256",
          "name": "proposalId",
          "type": "uint256"
        }
      ],
      "name": "proposalVotes",
      "outputs": [
        {
          "internalType": "uint256",
          "name": "againstVotes",
          "type": "uint256"
        },
        {
          "internalType": "uint256",
          "name": "forVotes",
          "type": "uint256"
        },
        {
          "internalType": "uint256",
          "name": "abstainVotes",
          "type": "uint256"
        }
      ],
      "stateMutability": "view",
      "type": "function",
      "constant": true
    },
    {
      "inputs": [],
      "name": "quorumDenominator",
      "outputs": [
        {
          "internalType": "uint256",
          "name": "",
          "type": "uint256"
        }
      ],
      "stateMutability": "view",
      "type": "function",
      "constant": true
    },
    {
      "inputs": [],
      "name": "quorumNumerator",
      "outputs": [
        {
          "internalType": "uint256",
          "name": "",
          "type": "uint256"
        }
      ],
      "stateMutability": "view",
      "type": "function",
      "constant": true
    },
    {
      "inputs": [
        {
          "internalType": "bytes4",
          "name": "interfaceId",
          "type": "bytes4"
        }
      ],
      "name": "supportsInterface",
      "outputs": [
        {
          "internalType": "bool",
          "name": "",
          "type": "bool"
        }
      ],
      "stateMutability": "view",
      "type": "function",
      "constant": true
    },
    {
      "inputs": [],
      "name": "token",
      "outputs": [
        {
          "internalType": "contract ERC20VotesUpgradeable",
          "name": "",
          "type": "address"
        }
      ],
      "stateMutability": "view",
      "type": "function",
      "constant": true
    },
    {
      "inputs": [
        {
          "internalType": "uint256",
          "name": "newQuorumNumerator",
          "type": "uint256"
        }
      ],
      "name": "updateQuorumNumerator",
      "outputs": [],
      "stateMutability": "nonpayable",
      "type": "function"
    },
    {
      "inputs": [],
      "name": "version",
      "outputs": [
        {
          "internalType": "string",
          "name": "",
          "type": "string"
        }
      ],
      "stateMutability": "view",
      "type": "function",
      "constant": true
    },
    {
      "inputs": [
        {
          "internalType": "address",
          "name": "_token",
          "type": "address"
        }
      ],
      "name": "initialize",
      "outputs": [],
      "stateMutability": "nonpayable",
      "type": "function"
    },
    {
      "inputs": [],
      "name": "votingDelay",
      "outputs": [
        {
          "internalType": "uint256",
          "name": "",
          "type": "uint256"
        }
      ],
      "stateMutability": "pure",
      "type": "function",
      "constant": true
    },
    {
      "inputs": [],
      "name": "votingPeriod",
      "outputs": [
        {
          "internalType": "uint256",
          "name": "",
          "type": "uint256"
        }
      ],
      "stateMutability": "pure",
      "type": "function",
      "constant": true
    },
    {
      "inputs": [],
      "name": "proposalThreshold",
      "outputs": [
        {
          "internalType": "uint256",
          "name": "",
          "type": "uint256"
        }
      ],
      "stateMutability": "view",
      "type": "function",
      "constant": true
    },
    {
      "inputs": [
        {
          "internalType": "uint256",
          "name": "blockNumber",
          "type": "uint256"
        }
      ],
      "name": "quorum",
      "outputs": [
        {
          "internalType": "uint256",
          "name": "",
          "type": "uint256"
        }
      ],
      "stateMutability": "view",
      "type": "function",
      "constant": true
    },
    {
      "inputs": [
        {
          "internalType": "address",
          "name": "account",
          "type": "address"
        },
        {
          "internalType": "uint256",
          "name": "blockNumber",
          "type": "uint256"
        }
      ],
      "name": "getVotes",
      "outputs": [
        {
          "internalType": "uint256",
          "name": "",
          "type": "uint256"
        }
      ],
      "stateMutability": "view",
      "type": "function",
      "constant": true
    },
    {
      "inputs": [
        {
          "internalType": "address[]",
          "name": "targets",
          "type": "address[]"
        },
        {
          "internalType": "uint256[]",
          "name": "values",
          "type": "uint256[]"
        },
        {
          "internalType": "bytes[]",
          "name": "calldatas",
          "type": "bytes[]"
        },
        {
          "internalType": "string",
          "name": "description",
          "type": "string"
        }
      ],
      "name": "propose",
      "outputs": [
        {
          "internalType": "uint256",
          "name": "",
          "type": "uint256"
        }
      ],
      "stateMutability": "nonpayable",
      "type": "function"
    },
    {
      "inputs": [
        {
          "internalType": "uint256",
          "name": "proposalId",
          "type": "uint256"
        }
      ],
      "name": "state",
      "outputs": [
        {
          "internalType": "enum IGovernorUpgradeable.ProposalState",
          "name": "",
          "type": "uint8"
        }
      ],
      "stateMutability": "view",
      "type": "function",
      "constant": true
    }
  ],
  "bytecode": "0x60806040523480156200001157600080fd5b50600060019054906101000a900460ff168062000039575060008054906101000a900460ff16155b6200007b576040517f08c379a000000000000000000000000000000000000000000000000000000000815260040162000072906200011c565b60405180910390fd5b60008060019054906101000a900460ff161590508015620000cc576001600060016101000a81548160ff02191690831515021790555060016000806101000a81548160ff0219169083151502179055505b8015620000ee5760008060016101000a81548160ff0219169083151502179055505b506200019e565b600062000104602e836200013e565b915062000111826200014f565b604082019050919050565b600060208201905081810360008301526200013781620000f5565b9050919050565b600082825260208201905092915050565b7f496e697469616c697a61626c653a20636f6e747261637420697320616c72656160008201527f647920696e697469616c697a6564000000000000000000000000000000000000602082015250565b61516d80620001ae6000396000f3fe6080604052600436106101815760003560e01c80637b3c71d3116100d1578063c4d66de81161008a578063deaaa7cc11610064578063deaaa7cc14610601578063eb9019d41461062c578063f8ce560a14610669578063fc0c546a146106a657610181565b8063c4d66de814610570578063c59057e414610599578063dd4e2ba5146105d657610181565b80637b3c71d3146104385780637d5e81e21461047557806397c3d334146104b2578063a7713a70146104dd578063b58131b014610508578063c01f9e371461053357610181565b80633932abb11161013e57806343859632116101185780634385963214610354578063544ffc9c1461039157806354fd4d50146103d057806356781388146103fb57610181565b80633932abb1146102af5780633bccf4fd146102da5780633e4f49e61461031757610181565b806301ffc9a71461018657806302a251a3146101c357806306f3f9e6146101ee57806306fdde03146102175780632656227d146102425780632d63f69314610272575b600080fd5b34801561019257600080fd5b506101ad60048036038101906101a891906136ff565b6106d1565b6040516101ba9190613fc3565b60405180910390f35b3480156101cf57600080fd5b506101d861074b565b6040516101e59190614340565b60405180910390f35b3480156101fa57600080fd5b506102156004803603810190610210919061372c565b610755565b005b34801561022357600080fd5b5061022c6107dd565b60405161023991906140fe565b60405180910390f35b61025c6004803603810190610257919061356d565b61086f565b6040516102699190614340565b60405180910390f35b34801561027e57600080fd5b506102996004803603810190610294919061372c565b6109a3565b6040516102a69190614340565b60405180910390f35b3480156102bb57600080fd5b506102c4610a11565b6040516102d19190614340565b60405180910390f35b3480156102e657600080fd5b5061030160048036038101906102fc919061387a565b610a1a565b60405161030e9190614340565b60405180910390f35b34801561032357600080fd5b5061033e6004803603810190610339919061372c565b610aa4565b60405161034b91906140e3565b60405180910390f35b34801561036057600080fd5b5061037b60048036038101906103769190613786565b610be3565b6040516103889190613fc3565b60405180910390f35b34801561039d57600080fd5b506103b860048036038101906103b3919061372c565b610c4f565b6040516103c793929190614434565b60405180910390f35b3480156103dc57600080fd5b506103e5610c88565b6040516103f291906140fe565b60405180910390f35b34801561040757600080fd5b50610422600480360381019061041d91906137c6565b610cc5565b60405161042f9190614340565b60405180910390f35b34801561044457600080fd5b5061045f600480360381019061045a9190613806565b610cf6565b60405161046c9190614340565b60405180910390f35b34801561048157600080fd5b5061049c60048036038101906104979190613628565b610d5e565b6040516104a99190614340565b60405180910390f35b3480156104be57600080fd5b506104c7610d76565b6040516104d49190614340565b60405180910390f35b3480156104e957600080fd5b506104f2610d7f565b6040516104ff9190614340565b60405180910390f35b34801561051457600080fd5b5061051d610d8a565b60405161052a9190614340565b60405180910390f35b34801561053f57600080fd5b5061055a6004803603810190610555919061372c565b610ebb565b6040516105679190614340565b60405180910390f35b34801561057c57600080fd5b50610597600480360381019061059291906134d3565b610f29565b005b3480156105a557600080fd5b506105c060048036038101906105bb919061356d565b6110a6565b6040516105cd9190614340565b60405180910390f35b3480156105e257600080fd5b506105eb6110e2565b6040516105f891906140fe565b60405180910390f35b34801561060d57600080fd5b5061061661111f565b6040516106239190613fde565b60405180910390f35b34801561063857600080fd5b50610653600480360381019061064e919061352d565b611143565b6040516106609190614340565b60405180910390f35b34801561067557600080fd5b50610690600480360381019061068b919061372c565b611157565b60405161069d9190614340565b60405180910390f35b3480156106b257600080fd5b506106bb611169565b6040516106c891906140c8565b60405180910390f35b60007fbf26d897000000000000000000000000000000000000000000000000000000007bffffffffffffffffffffffffffffffffffffffffffffffffffffffff1916827bffffffffffffffffffffffffffffffffffffffffffffffffffffffff19161480610744575061074382611190565b5b9050919050565b600061b2fa905090565b61075d6111fa565b73ffffffffffffffffffffffffffffffffffffffff1661077b611202565b73ffffffffffffffffffffffffffffffffffffffff16146107d1576040517f08c379a00000000000000000000000000000000000000000000000000000000081526004016107c890614140565b60405180910390fd5b6107da8161120a565b50565b606060cb80546107ec90614994565b80601f016020809104026020016040519081016040528092919081815260200182805461081890614994565b80156108655780601f1061083a57610100808354040283529160200191610865565b820191906000526020600020905b81548152906001019060200180831161084857829003601f168201915b5050505050905090565b60008061087e868686866110a6565b9050600061088b82610aa4565b9050600460078111156108a1576108a0614aa8565b5b8160078111156108b4576108b3614aa8565b5b14806108e45750600560078111156108cf576108ce614aa8565b5b8160078111156108e2576108e1614aa8565b5b145b610923576040517f08c379a000000000000000000000000000000000000000000000000000000000815260040161091a906142c0565b60405180910390fd5b600160cc600084815260200190815260200160002060020160006101000a81548160ff0219169083151502179055507f712ae1383f79ac853f8d882153778e0260ef8f03b504e2866e0593e04d2b291f826040516109819190614340565b60405180910390a161099682888888886112a1565b8192505050949350505050565b6000610a0060cc60008481526020019081526020016000206000016040518060200160405290816000820160009054906101000a900467ffffffffffffffff1667ffffffffffffffff1667ffffffffffffffff16815250506113b0565b67ffffffffffffffff169050919050565b60006001905090565b600080610a7b610a737f150214d74d59b7d1e90c73fc22ef3d991dd0a76b046543d4d80ab92d2a50328f8989604051602001610a589392919061404c565b604051602081830303815290604052805190602001206113be565b8686866113d8565b9050610a9887828860405180602001604052806000815250611403565b91505095945050505050565b600080610ab083611557565b905060016007811115610ac657610ac5614aa8565b5b816007811115610ad957610ad8614aa8565b5b14610ae75780915050610bde565b600061016160009054906101000a900473ffffffffffffffffffffffffffffffffffffffff1673ffffffffffffffffffffffffffffffffffffffff16638e539e8c610b31866109a3565b6040518263ffffffff1660e01b8152600401610b4d9190614340565b60206040518083038186803b158015610b6557600080fd5b505afa158015610b79573d6000803e3d6000fd5b505050506040513d601f19601f82011682018060405250810190610b9d9190613759565b90506000610baa85610c4f565b509150506064603383610bbd91906147ca565b610bc79190614799565b811015610bd5576001610bd8565b60045b93505050505b919050565b600061012f600084815260200190815260200160002060030160008373ffffffffffffffffffffffffffffffffffffffff1673ffffffffffffffffffffffffffffffffffffffff16815260200190815260200160002060009054906101000a900460ff16905092915050565b60008060008061012f60008681526020019081526020016000209050806000015481600101548260020154935093509350509193909250565b60606040518060400160405280600181526020017f3100000000000000000000000000000000000000000000000000000000000000815250905090565b600080610cd0611202565b9050610ced84828560405180602001604052806000815250611403565b91505092915050565b600080610d01611202565b9050610d5386828787878080601f016020809104026020016040519081016040528093929190818152602001838380828437600081840152601f19601f82011690508083019250505050505050611403565b915050949350505050565b6000610d6c8585858561171e565b9050949350505050565b60006064905090565b600061019454905090565b600060646101c660009054906101000a900473ffffffffffffffffffffffffffffffffffffffff1673ffffffffffffffffffffffffffffffffffffffff1663b9e6616c6040518163ffffffff1660e01b815260040160206040518083038186803b158015610df757600080fd5b505afa158015610e0b573d6000803e3d6000fd5b505050506040513d601f19601f82011682018060405250810190610e2f9190613500565b73ffffffffffffffffffffffffffffffffffffffff166318160ddd6040518163ffffffff1660e01b815260040160206040518083038186803b158015610e7457600080fd5b505afa158015610e88573d6000803e3d6000fd5b505050506040513d601f19601f82011682018060405250810190610eac9190613759565b610eb69190614799565b905090565b6000610f1860cc60008481526020019081526020016000206001016040518060200160405290816000820160009054906101000a900467ffffffffffffffff1667ffffffffffffffff1667ffffffffffffffff16815250506113b0565b67ffffffffffffffff169050919050565b600060019054906101000a900460ff1680610f4f575060008054906101000a900460ff16155b610f8e576040517f08c379a0000000000000000000000000000000000000000000000000000000008152600401610f8590614240565b60405180910390fd5b60008060019054906101000a900460ff161590508015610fde576001600060016101000a81548160ff02191690831515021790555060016000806101000a81548160ff0219169083151502179055505b61101c6040518060400160405280601181526020017f5374616b696e67476f7665726e616e6365000000000000000000000000000000815250611795565b6110246118a1565b61102c61199a565b61103582611a93565b61103f6033611b8e565b816101c660006101000a81548173ffffffffffffffffffffffffffffffffffffffff021916908373ffffffffffffffffffffffffffffffffffffffff16021790555080156110a25760008060016101000a81548160ff0219169083151502179055505b5050565b6000848484846040516020016110bf9493929190613f69565b6040516020818303038152906040528051906020012060001c9050949350505050565b60606040518060400160405280602081526020017f737570706f72743d627261766f2671756f72756d3d666f722c6162737461696e815250905090565b7f150214d74d59b7d1e90c73fc22ef3d991dd0a76b046543d4d80ab92d2a50328f81565b600061114f8383611c89565b905092915050565b600061116282611d41565b9050919050565b61016160009054906101000a900473ffffffffffffffffffffffffffffffffffffffff1681565b60007f01ffc9a7000000000000000000000000000000000000000000000000000000007bffffffffffffffffffffffffffffffffffffffffffffffffffffffff1916827bffffffffffffffffffffffffffffffffffffffffffffffffffffffff1916149050919050565b600030905090565b600033905090565b611212610d76565b811115611254576040517f08c379a000000000000000000000000000000000000000000000000000000000815260040161124b90614160565b60405180910390fd5b600061019454905081610194819055507f0553476bf02ef2726e8ce5ced78d63e26e602e4a2257b1f559418e24b4633997818360405161129592919061440b565b60405180910390a15050565b600060405180606001604052806027815260200161511160279139905060005b85518110156113a7576000808783815181106112e0576112df614b06565b5b602002602001015173ffffffffffffffffffffffffffffffffffffffff1687848151811061131157611310614b06565b5b602002602001015187858151811061132c5761132b614b06565b5b60200260200101516040516113419190613ef2565b60006040518083038185875af1925050503d806000811461137e576040519150601f19603f3d011682016040523d82523d6000602084013e611383565b606091505b5091509150611393828286611e1a565b505050806113a0906149f7565b90506112c1565b50505050505050565b600081600001519050919050565b60006113d16113cb611e81565b83611ec1565b9050919050565b60008060006113e987878787611ef4565b915091506113f681612001565b8192505050949350505050565b60008060cc600087815260200190815260200160002090506001600781111561142f5761142e614aa8565b5b61143887610aa4565b600781111561144a57611449614aa8565b5b1461148a576040517f08c379a000000000000000000000000000000000000000000000000000000000815260040161148190614220565b60405180910390fd5b60006114e8866114d9846000016040518060200160405290816000820160009054906101000a900467ffffffffffffffff1667ffffffffffffffff1667ffffffffffffffff16815250506113b0565b67ffffffffffffffff16611143565b90506114f6878787846121d6565b8573ffffffffffffffffffffffffffffffffffffffff167fb8e138887d0aa13bab447e82de9d5c1777041ecd21ca36ba824ff1e6c07ddda488878488604051611542949392919061446b565b60405180910390a28092505050949350505050565b60008060cc6000848152602001908152602001600020604051806080016040529081600082016040518060200160405290816000820160009054906101000a900467ffffffffffffffff1667ffffffffffffffff1667ffffffffffffffff16815250508152602001600182016040518060200160405290816000820160009054906101000a900467ffffffffffffffff1667ffffffffffffffff1667ffffffffffffffff168152505081526020016002820160009054906101000a900460ff161515151581526020016002820160019054906101000a900460ff1615151515815250509050806040015115611650576007915050611719565b806060015115611664576002915050611719565b61167181600001516123dd565b15611680576000915050611719565b61168d81602001516123dd565b1561169c576001915050611719565b6116a981602001516123f7565b156116de576116b783612423565b80156116c857506116c78361246b565b5b6116d35760036116d6565b60045b915050611719565b6040517f08c379a0000000000000000000000000000000000000000000000000000000008152600401611710906142e0565b60405180910390fd5b919050565b6000611728610d8a565b61173e336001436117399190614824565b611143565b101561177f576040517f08c379a000000000000000000000000000000000000000000000000000000000815260040161177690614180565b60405180910390fd5b61178b85858585612497565b9050949350505050565b600060019054906101000a900460ff16806117bb575060008054906101000a900460ff16155b6117fa576040517f08c379a00000000000000000000000000000000000000000000000000000000081526004016117f190614240565b60405180910390fd5b60008060019054906101000a900460ff16159050801561184a576001600060016101000a81548160ff02191690831515021790555060016000806101000a81548160ff0219169083151502179055505b611852612737565b61185a612810565b61186b82611866610c88565b6128e9565b6118736129ec565b61187c82612ac5565b801561189d5760008060016101000a81548160ff0219169083151502179055505b5050565b600060019054906101000a900460ff16806118c7575060008054906101000a900460ff16155b611906576040517f08c379a00000000000000000000000000000000000000000000000000000000081526004016118fd90614240565b60405180910390fd5b60008060019054906101000a900460ff161590508015611956576001600060016101000a81548160ff02191690831515021790555060016000806101000a81548160ff0219169083151502179055505b61195e612737565b611966612810565b61196e6129ec565b611976612bb6565b80156119975760008060016101000a81548160ff0219169083151502179055505b50565b600060019054906101000a900460ff16806119c0575060008054906101000a900460ff16155b6119ff576040517f08c379a00000000000000000000000000000000000000000000000000000000081526004016119f690614240565b60405180910390fd5b60008060019054906101000a900460ff161590508015611a4f576001600060016101000a81548160ff02191690831515021790555060016000806101000a81548160ff0219169083151502179055505b611a57612737565b611a5f612810565b611a676129ec565b611a6f612c8f565b8015611a905760008060016101000a81548160ff0219169083151502179055505b50565b600060019054906101000a900460ff1680611ab9575060008054906101000a900460ff16155b611af8576040517f08c379a0000000000000000000000000000000000000000000000000000000008152600401611aef90614240565b60405180910390fd5b60008060019054906101000a900460ff161590508015611b48576001600060016101000a81548160ff02191690831515021790555060016000806101000a81548160ff0219169083151502179055505b611b50612737565b611b58612810565b611b606129ec565b611b6982612d68565b8015611b8a5760008060016101000a81548160ff0219169083151502179055505b5050565b600060019054906101000a900460ff1680611bb4575060008054906101000a900460ff16155b611bf3576040517f08c379a0000000000000000000000000000000000000000000000000000000008152600401611bea90614240565b60405180910390fd5b60008060019054906101000a900460ff161590508015611c43576001600060016101000a81548160ff02191690831515021790555060016000806101000a81548160ff0219169083151502179055505b611c4b612737565b611c53612810565b611c5b6129ec565b611c6482612e84565b8015611c855760008060016101000a81548160ff0219169083151502179055505b5050565b600061016160009054906101000a900473ffffffffffffffffffffffffffffffffffffffff1673ffffffffffffffffffffffffffffffffffffffff16633a46b1a884846040518363ffffffff1660e01b8152600401611ce9929190613f40565b60206040518083038186803b158015611d0157600080fd5b505afa158015611d15573d6000803e3d6000fd5b505050506040513d601f19601f82011682018060405250810190611d399190613759565b905092915050565b6000611d4b610d76565b611d53610d7f565b61016160009054906101000a900473ffffffffffffffffffffffffffffffffffffffff1673ffffffffffffffffffffffffffffffffffffffff16638e539e8c856040518263ffffffff1660e01b8152600401611daf9190614340565b60206040518083038186803b158015611dc757600080fd5b505afa158015611ddb573d6000803e3d6000fd5b505050506040513d601f19601f82011682018060405250810190611dff9190613759565b611e0991906147ca565b611e139190614799565b9050919050565b60608315611e2a57829050611e7a565b600083511115611e3d5782518084602001fd5b816040517f08c379a0000000000000000000000000000000000000000000000000000000008152600401611e7191906140fe565b60405180910390fd5b9392505050565b6000611ebc7f8b73c3c69bb8fe3d512ecc4cf759cc79239f7b179b0ffacaa9a75d522b39400f611eaf612f67565b611eb7612f71565b612f7b565b905090565b60008282604051602001611ed6929190613f09565b60405160208183030381529060405280519060200120905092915050565b6000807f7fffffffffffffffffffffffffffffff5d576e7357a4501ddfe92f46681b20a08360001c1115611f2f576000600391509150611ff8565b601b8560ff1614158015611f475750601c8560ff1614155b15611f59576000600491509150611ff8565b600060018787878760405160008152602001604052604051611f7e9493929190614083565b6020604051602081039080840390855afa158015611fa0573d6000803e3d6000fd5b505050602060405103519050600073ffffffffffffffffffffffffffffffffffffffff168173ffffffffffffffffffffffffffffffffffffffff161415611fef57600060019250925050611ff8565b80600092509250505b94509492505050565b6000600481111561201557612014614aa8565b5b81600481111561202857612027614aa8565b5b1415612033576121d3565b6001600481111561204757612046614aa8565b5b81600481111561205a57612059614aa8565b5b141561209b576040517f08c379a000000000000000000000000000000000000000000000000000000000815260040161209290614120565b60405180910390fd5b600260048111156120af576120ae614aa8565b5b8160048111156120c2576120c1614aa8565b5b1415612103576040517f08c379a00000000000000000000000000000000000000000000000000000000081526004016120fa906141a0565b60405180910390fd5b6003600481111561211757612116614aa8565b5b81600481111561212a57612129614aa8565b5b141561216b576040517f08c379a0000000000000000000000000000000000000000000000000000000008152600401612162906141e0565b60405180910390fd5b60048081111561217e5761217d614aa8565b5b81600481111561219157612190614aa8565b5b14156121d2576040517f08c379a00000000000000000000000000000000000000000000000000000000081526004016121c990614280565b60405180910390fd5b5b50565b600061012f600086815260200190815260200160002090508060030160008573ffffffffffffffffffffffffffffffffffffffff1673ffffffffffffffffffffffffffffffffffffffff16815260200190815260200160002060009054906101000a900460ff161561227d576040517f08c379a000000000000000000000000000000000000000000000000000000000815260040161227490614200565b60405180910390fd5b60018160030160008673ffffffffffffffffffffffffffffffffffffffff1673ffffffffffffffffffffffffffffffffffffffff16815260200190815260200160002060006101000a81548160ff021916908315150217905550600060028111156122eb576122ea614aa8565b5b60ff168360ff161415612318578181600001600082825461230c9190614705565b925050819055506123d6565b6001600281111561232c5761232b614aa8565b5b60ff168360ff161415612359578181600101600082825461234d9190614705565b925050819055506123d5565b60028081111561236c5761236b614aa8565b5b60ff168360ff161415612399578181600201600082825461238d9190614705565b925050819055506123d4565b6040517f08c379a00000000000000000000000000000000000000000000000000000000081526004016123cb90614300565b60405180910390fd5b5b5b5050505050565b600043826000015167ffffffffffffffff16119050919050565b600061240282612fb5565b801561241c575043826000015167ffffffffffffffff1611155b9050919050565b60008061012f60008481526020019081526020016000209050806002015481600101546124509190614705565b61246161245c856109a3565b611157565b1115915050919050565b60008061012f600084815260200190815260200160002090508060000154816001015411915050919050565b6000806124ad86868686805190602001206110a6565b905084518651146124f3576040517f08c379a00000000000000000000000000000000000000000000000000000000081526004016124ea906141c0565b60405180910390fd5b8351865114612537576040517f08c379a000000000000000000000000000000000000000000000000000000000815260040161252e906141c0565b60405180910390fd5b600086511161257b576040517f08c379a000000000000000000000000000000000000000000000000000000000815260040161257290614260565b60405180910390fd5b600060cc600083815260200190815260200160002090506125db816000016040518060200160405290816000820160009054906101000a900467ffffffffffffffff1667ffffffffffffffff1667ffffffffffffffff1681525050612fcf565b61261a576040517f08c379a000000000000000000000000000000000000000000000000000000000815260040161261190614320565b60405180910390fd5b600061262c612627610a11565b612fe9565b61263543612fe9565b61263f919061475b565b9050600061265361264e61074b565b612fe9565b8261265e919061475b565b9050612676828460000161304090919063ffffffff16565b61268c818460010161304090919063ffffffff16565b7f7d84a6263ae0d98d3329bd7b46bb4e8d6f98cd35a7adb45c274c8b7fd5ebd5e0846126b6611202565b8b8b8d5167ffffffffffffffff8111156126d3576126d2614b35565b5b60405190808252806020026020018201604052801561270657816020015b60608152602001906001900390816126f15790505b508c88888e6040516127209998979695949392919061435b565b60405180910390a183945050505050949350505050565b600060019054906101000a900460ff168061275d575060008054906101000a900460ff16155b61279c576040517f08c379a000000000000000000000000000000000000000000000000000000000815260040161279390614240565b60405180910390fd5b60008060019054906101000a900460ff1615905080156127ec576001600060016101000a81548160ff02191690831515021790555060016000806101000a81548160ff0219169083151502179055505b801561280d5760008060016101000a81548160ff0219169083151502179055505b50565b600060019054906101000a900460ff1680612836575060008054906101000a900460ff16155b612875576040517f08c379a000000000000000000000000000000000000000000000000000000000815260040161286c90614240565b60405180910390fd5b60008060019054906101000a900460ff1615905080156128c5576001600060016101000a81548160ff02191690831515021790555060016000806101000a81548160ff0219169083151502179055505b80156128e65760008060016101000a81548160ff0219169083151502179055505b50565b600060019054906101000a900460ff168061290f575060008054906101000a900460ff16155b61294e576040517f08c379a000000000000000000000000000000000000000000000000000000000815260040161294590614240565b60405180910390fd5b60008060019054906101000a900460ff16159050801561299e576001600060016101000a81548160ff02191690831515021790555060016000806101000a81548160ff0219169083151502179055505b6000838051906020012090506000838051906020012090508160658190555080606681905550505080156129e75760008060016101000a81548160ff0219169083151502179055505b505050565b600060019054906101000a900460ff1680612a12575060008054906101000a900460ff16155b612a51576040517f08c379a0000000000000000000000000000000000000000000000000000000008152600401612a4890614240565b60405180910390fd5b60008060019054906101000a900460ff161590508015612aa1576001600060016101000a81548160ff02191690831515021790555060016000806101000a81548160ff0219169083151502179055505b8015612ac25760008060016101000a81548160ff0219169083151502179055505b50565b600060019054906101000a900460ff1680612aeb575060008054906101000a900460ff16155b612b2a576040517f08c379a0000000000000000000000000000000000000000000000000000000008152600401612b2190614240565b60405180910390fd5b60008060019054906101000a900460ff161590508015612b7a576001600060016101000a81548160ff02191690831515021790555060016000806101000a81548160ff0219169083151502179055505b8160cb9080519060200190612b9092919061306f565b508015612bb25760008060016101000a81548160ff0219169083151502179055505b5050565b600060019054906101000a900460ff1680612bdc575060008054906101000a900460ff16155b612c1b576040517f08c379a0000000000000000000000000000000000000000000000000000000008152600401612c1290614240565b60405180910390fd5b60008060019054906101000a900460ff161590508015612c6b576001600060016101000a81548160ff02191690831515021790555060016000806101000a81548160ff0219169083151502179055505b8015612c8c5760008060016101000a81548160ff0219169083151502179055505b50565b600060019054906101000a900460ff1680612cb5575060008054906101000a900460ff16155b612cf4576040517f08c379a0000000000000000000000000000000000000000000000000000000008152600401612ceb90614240565b60405180910390fd5b60008060019054906101000a900460ff161590508015612d44576001600060016101000a81548160ff02191690831515021790555060016000806101000a81548160ff0219169083151502179055505b8015612d655760008060016101000a81548160ff0219169083151502179055505b50565b600060019054906101000a900460ff1680612d8e575060008054906101000a900460ff16155b612dcd576040517f08c379a0000000000000000000000000000000000000000000000000000000008152600401612dc490614240565b60405180910390fd5b60008060019054906101000a900460ff161590508015612e1d576001600060016101000a81548160ff02191690831515021790555060016000806101000a81548160ff0219169083151502179055505b8161016160006101000a81548173ffffffffffffffffffffffffffffffffffffffff021916908373ffffffffffffffffffffffffffffffffffffffff1602179055508015612e805760008060016101000a81548160ff0219169083151502179055505b5050565b600060019054906101000a900460ff1680612eaa575060008054906101000a900460ff16155b612ee9576040517f08c379a0000000000000000000000000000000000000000000000000000000008152600401612ee090614240565b60405180910390fd5b60008060019054906101000a900460ff161590508015612f39576001600060016101000a81548160ff02191690831515021790555060016000806101000a81548160ff0219169083151502179055505b612f428261120a565b8015612f635760008060016101000a81548160ff0219169083151502179055505b5050565b6000606554905090565b6000606654905090565b60008383834630604051602001612f96959493929190613ff9565b6040516020818303038152906040528051906020012090509392505050565b600080826000015167ffffffffffffffff16119050919050565b600080826000015167ffffffffffffffff16149050919050565b600067ffffffffffffffff8016821115613038576040517f08c379a000000000000000000000000000000000000000000000000000000000815260040161302f906142a0565b60405180910390fd5b819050919050565b808260000160006101000a81548167ffffffffffffffff021916908367ffffffffffffffff1602179055505050565b82805461307b90614994565b90600052602060002090601f01602090048101928261309d57600085556130e4565b82601f106130b657805160ff19168380011785556130e4565b828001600101855582156130e4579182015b828111156130e35782518255916020019190600101906130c8565b5b5090506130f191906130f5565b5090565b5b8082111561310e5760008160009055506001016130f6565b5090565b6000613125613120846144dc565b6144b7565b9050808382526020820190508285602086028201111561314857613147614b6e565b5b60005b85811015613178578161315e8882613304565b84526020840193506020830192505060018101905061314b565b5050509392505050565b600061319561319084614508565b6144b7565b905080838252602082019050828560208602820111156131b8576131b7614b6e565b5b60005b8581101561320657813567ffffffffffffffff8111156131de576131dd614b69565b5b8086016131eb89826133e2565b855260208501945060208401935050506001810190506131bb565b5050509392505050565b600061322361321e84614534565b6144b7565b9050808382526020820190508285602086028201111561324657613245614b6e565b5b60005b85811015613276578161325c8882613494565b845260208401935060208301925050600181019050613249565b5050509392505050565b600061329361328e84614560565b6144b7565b9050828152602081018484840111156132af576132ae614b73565b5b6132ba848285614952565b509392505050565b60006132d56132d084614591565b6144b7565b9050828152602081018484840111156132f1576132f0614b73565b5b6132fc848285614952565b509392505050565b6000813590506133138161509d565b92915050565b6000815190506133288161509d565b92915050565b600082601f83011261334357613342614b69565b5b8135613353848260208601613112565b91505092915050565b600082601f83011261337157613370614b69565b5b8135613381848260208601613182565b91505092915050565b600082601f83011261339f5761339e614b69565b5b81356133af848260208601613210565b91505092915050565b6000813590506133c7816150b4565b92915050565b6000813590506133dc816150cb565b92915050565b600082601f8301126133f7576133f6614b69565b5b8135613407848260208601613280565b91505092915050565b60008083601f84011261342657613425614b69565b5b8235905067ffffffffffffffff81111561344357613442614b64565b5b60208301915083600182028301111561345f5761345e614b6e565b5b9250929050565b600082601f83011261347b5761347a614b69565b5b813561348b8482602086016132c2565b91505092915050565b6000813590506134a3816150e2565b92915050565b6000815190506134b8816150e2565b92915050565b6000813590506134cd816150f9565b92915050565b6000602082840312156134e9576134e8614b7d565b5b60006134f784828501613304565b91505092915050565b60006020828403121561351657613515614b7d565b5b600061352484828501613319565b91505092915050565b6000806040838503121561354457613543614b7d565b5b600061355285828601613304565b925050602061356385828601613494565b9150509250929050565b6000806000806080858703121561358757613586614b7d565b5b600085013567ffffffffffffffff8111156135a5576135a4614b78565b5b6135b18782880161332e565b945050602085013567ffffffffffffffff8111156135d2576135d1614b78565b5b6135de8782880161338a565b935050604085013567ffffffffffffffff8111156135ff576135fe614b78565b5b61360b8782880161335c565b925050606061361c878288016133b8565b91505092959194509250565b6000806000806080858703121561364257613641614b7d565b5b600085013567ffffffffffffffff8111156136605761365f614b78565b5b61366c8782880161332e565b945050602085013567ffffffffffffffff81111561368d5761368c614b78565b5b6136998782880161338a565b935050604085013567ffffffffffffffff8111156136ba576136b9614b78565b5b6136c68782880161335c565b925050606085013567ffffffffffffffff8111156136e7576136e6614b78565b5b6136f387828801613466565b91505092959194509250565b60006020828403121561371557613714614b7d565b5b6000613723848285016133cd565b91505092915050565b60006020828403121561374257613741614b7d565b5b600061375084828501613494565b91505092915050565b60006020828403121561376f5761376e614b7d565b5b600061377d848285016134a9565b91505092915050565b6000806040838503121561379d5761379c614b7d565b5b60006137ab85828601613494565b92505060206137bc85828601613304565b9150509250929050565b600080604083850312156137dd576137dc614b7d565b5b60006137eb85828601613494565b92505060206137fc858286016134be565b9150509250929050565b600080600080606085870312156138205761381f614b7d565b5b600061382e87828801613494565b945050602061383f878288016134be565b935050604085013567ffffffffffffffff8111156138605761385f614b78565b5b61386c87828801613410565b925092505092959194509250565b600080600080600060a0868803121561389657613895614b7d565b5b60006138a488828901613494565b95505060206138b5888289016134be565b94505060406138c6888289016134be565b93505060606138d7888289016133b8565b92505060806138e8888289016133b8565b9150509295509295909350565b6000613901838361394d565b60208301905092915050565b60006139198383613b46565b905092915050565b600061392d8383613bce565b905092915050565b60006139418383613eb6565b60208301905092915050565b61395681614858565b82525050565b61396581614858565b82525050565b600061397682614602565b6139808185614678565b935061398b836145c2565b8060005b838110156139bc5781516139a388826138f5565b97506139ae83614644565b92505060018101905061398f565b5085935050505092915050565b60006139d48261460d565b6139de8185614689565b9350836020820285016139f0856145d2565b8060005b85811015613a2c5784840389528151613a0d858261390d565b9450613a1883614651565b925060208a019950506001810190506139f4565b50829750879550505050505092915050565b6000613a4982614618565b613a53818561469a565b935083602082028501613a65856145e2565b8060005b85811015613aa15784840389528151613a828582613921565b9450613a8d8361465e565b925060208a01995050600181019050613a69565b50829750879550505050505092915050565b6000613abe82614623565b613ac881856146ab565b9350613ad3836145f2565b8060005b83811015613b04578151613aeb8882613935565b9750613af68361466b565b925050600181019050613ad7565b5085935050505092915050565b613b1a8161486a565b82525050565b613b2981614876565b82525050565b613b40613b3b82614876565b614a40565b82525050565b6000613b518261462e565b613b5b81856146bc565b9350613b6b818560208601614961565b613b7481614b82565b840191505092915050565b6000613b8a8261462e565b613b9481856146cd565b9350613ba4818560208601614961565b80840191505092915050565b613bb98161490a565b82525050565b613bc88161492e565b82525050565b6000613bd982614639565b613be381856146d8565b9350613bf3818560208601614961565b613bfc81614b82565b840191505092915050565b6000613c1282614639565b613c1c81856146e9565b9350613c2c818560208601614961565b613c3581614b82565b840191505092915050565b6000613c4d6018836146e9565b9150613c5882614b93565b602082019050919050565b6000613c706018836146e9565b9150613c7b82614bbc565b602082019050919050565b6000613c936043836146e9565b9150613c9e82614be5565b606082019050919050565b6000613cb66043836146e9565b9150613cc182614c5a565b606082019050919050565b6000613cd9601f836146e9565b9150613ce482614ccf565b602082019050919050565b6000613cfc6002836146fa565b9150613d0782614cf8565b600282019050919050565b6000613d1f6021836146e9565b9150613d2a82614d21565b604082019050919050565b6000613d426022836146e9565b9150613d4d82614d70565b604082019050919050565b6000613d656027836146e9565b9150613d7082614dbf565b604082019050919050565b6000613d886023836146e9565b9150613d9382614e0e565b604082019050919050565b6000613dab602e836146e9565b9150613db682614e5d565b604082019050919050565b6000613dce6018836146e9565b9150613dd982614eac565b602082019050919050565b6000613df16022836146e9565b9150613dfc82614ed5565b604082019050919050565b6000613e146026836146e9565b9150613e1f82614f24565b604082019050919050565b6000613e376021836146e9565b9150613e4282614f73565b604082019050919050565b6000613e5a601d836146e9565b9150613e6582614fc2565b602082019050919050565b6000613e7d6035836146e9565b9150613e8882614feb565b604082019050919050565b6000613ea06021836146e9565b9150613eab8261503a565b604082019050919050565b613ebf816148df565b82525050565b613ece816148df565b82525050565b613edd81614940565b82525050565b613eec816148fd565b82525050565b6000613efe8284613b7f565b915081905092915050565b6000613f1482613cef565b9150613f208285613b2f565b602082019150613f308284613b2f565b6020820191508190509392505050565b6000604082019050613f55600083018561395c565b613f626020830184613ec5565b9392505050565b60006080820190508181036000830152613f83818761396b565b90508181036020830152613f978186613ab3565b90508181036040830152613fab81856139c9565b9050613fba6060830184613b20565b95945050505050565b6000602082019050613fd86000830184613b11565b92915050565b6000602082019050613ff36000830184613b20565b92915050565b600060a08201905061400e6000830188613b20565b61401b6020830187613b20565b6140286040830186613b20565b6140356060830185613ec5565b614042608083018461395c565b9695505050505050565b60006060820190506140616000830186613b20565b61406e6020830185613ec5565b61407b6040830184613ee3565b949350505050565b60006080820190506140986000830187613b20565b6140a56020830186613ee3565b6140b26040830185613b20565b6140bf6060830184613b20565b95945050505050565b60006020820190506140dd6000830184613bb0565b92915050565b60006020820190506140f86000830184613bbf565b92915050565b600060208201905081810360008301526141188184613c07565b905092915050565b6000602082019050818103600083015261413981613c40565b9050919050565b6000602082019050818103600083015261415981613c63565b9050919050565b6000602082019050818103600083015261417981613c86565b9050919050565b6000602082019050818103600083015261419981613ca9565b9050919050565b600060208201905081810360008301526141b981613ccc565b9050919050565b600060208201905081810360008301526141d981613d12565b9050919050565b600060208201905081810360008301526141f981613d35565b9050919050565b6000602082019050818103600083015261421981613d58565b9050919050565b6000602082019050818103600083015261423981613d7b565b9050919050565b6000602082019050818103600083015261425981613d9e565b9050919050565b6000602082019050818103600083015261427981613dc1565b9050919050565b6000602082019050818103600083015261429981613de4565b9050919050565b600060208201905081810360008301526142b981613e07565b9050919050565b600060208201905081810360008301526142d981613e2a565b9050919050565b600060208201905081810360008301526142f981613e4d565b9050919050565b6000602082019050818103600083015261431981613e70565b9050919050565b6000602082019050818103600083015261433981613e93565b9050919050565b60006020820190506143556000830184613ec5565b92915050565b600061012082019050614371600083018c613ec5565b61437e602083018b61395c565b8181036040830152614390818a61396b565b905081810360608301526143a48189613ab3565b905081810360808301526143b88188613a3e565b905081810360a08301526143cc81876139c9565b90506143db60c0830186613ed4565b6143e860e0830185613ed4565b8181036101008301526143fb8184613c07565b90509a9950505050505050505050565b60006040820190506144206000830185613ec5565b61442d6020830184613ec5565b9392505050565b60006060820190506144496000830186613ec5565b6144566020830185613ec5565b6144636040830184613ec5565b949350505050565b60006080820190506144806000830187613ec5565b61448d6020830186613ee3565b61449a6040830185613ec5565b81810360608301526144ac8184613c07565b905095945050505050565b60006144c16144d2565b90506144cd82826149c6565b919050565b6000604051905090565b600067ffffffffffffffff8211156144f7576144f6614b35565b5b602082029050602081019050919050565b600067ffffffffffffffff82111561452357614522614b35565b5b602082029050602081019050919050565b600067ffffffffffffffff82111561454f5761454e614b35565b5b602082029050602081019050919050565b600067ffffffffffffffff82111561457b5761457a614b35565b5b61458482614b82565b9050602081019050919050565b600067ffffffffffffffff8211156145ac576145ab614b35565b5b6145b582614b82565b9050602081019050919050565b6000819050602082019050919050565b6000819050602082019050919050565b6000819050602082019050919050565b6000819050602082019050919050565b600081519050919050565b600081519050919050565b600081519050919050565b600081519050919050565b600081519050919050565b600081519050919050565b6000602082019050919050565b6000602082019050919050565b6000602082019050919050565b6000602082019050919050565b600082825260208201905092915050565b600082825260208201905092915050565b600082825260208201905092915050565b600082825260208201905092915050565b600082825260208201905092915050565b600081905092915050565b600082825260208201905092915050565b600082825260208201905092915050565b600081905092915050565b6000614710826148df565b915061471b836148df565b9250827fffffffffffffffffffffffffffffffffffffffffffffffffffffffffffffffff038211156147505761474f614a4a565b5b828201905092915050565b6000614766826148e9565b9150614771836148e9565b92508267ffffffffffffffff0382111561478e5761478d614a4a565b5b828201905092915050565b60006147a4826148df565b91506147af836148df565b9250826147bf576147be614a79565b5b828204905092915050565b60006147d5826148df565b91506147e0836148df565b9250817fffffffffffffffffffffffffffffffffffffffffffffffffffffffffffffffff048311821515161561481957614818614a4a565b5b828202905092915050565b600061482f826148df565b915061483a836148df565b92508282101561484d5761484c614a4a565b5b828203905092915050565b6000614863826148bf565b9050919050565b60008115159050919050565b6000819050919050565b60007fffffffff0000000000000000000000000000000000000000000000000000000082169050919050565b60008190506148ba82615089565b919050565b600073ffffffffffffffffffffffffffffffffffffffff82169050919050565b6000819050919050565b600067ffffffffffffffff82169050919050565b600060ff82169050919050565b60006149158261491c565b9050919050565b6000614927826148bf565b9050919050565b6000614939826148ac565b9050919050565b600061494b826148e9565b9050919050565b82818337600083830152505050565b60005b8381101561497f578082015181840152602081019050614964565b8381111561498e576000848401525b50505050565b600060028204905060018216806149ac57607f821691505b602082108114156149c0576149bf614ad7565b5b50919050565b6149cf82614b82565b810181811067ffffffffffffffff821117156149ee576149ed614b35565b5b80604052505050565b6000614a02826148df565b91507fffffffffffffffffffffffffffffffffffffffffffffffffffffffffffffffff821415614a3557614a34614a4a565b5b600182019050919050565b6000819050919050565b7f4e487b7100000000000000000000000000000000000000000000000000000000600052601160045260246000fd5b7f4e487b7100000000000000000000000000000000000000000000000000000000600052601260045260246000fd5b7f4e487b7100000000000000000000000000000000000000000000000000000000600052602160045260246000fd5b7f4e487b7100000000000000000000000000000000000000000000000000000000600052602260045260246000fd5b7f4e487b7100000000000000000000000000000000000000000000000000000000600052603260045260246000fd5b7f4e487b7100000000000000000000000000000000000000000000000000000000600052604160045260246000fd5b600080fd5b600080fd5b600080fd5b600080fd5b600080fd5b600080fd5b6000601f19601f8301169050919050565b7f45434453413a20696e76616c6964207369676e61747572650000000000000000600082015250565b7f476f7665726e6f723a206f6e6c79476f7665726e616e63650000000000000000600082015250565b7f476f7665726e6f72566f74657351756f72756d4672616374696f6e3a2071756f60008201527f72756d4e756d657261746f72206f7665722071756f72756d44656e6f6d696e6160208201527f746f720000000000000000000000000000000000000000000000000000000000604082015250565b7f476f7665726e6f72436f6d7061746962696c697479427261766f3a2070726f7060008201527f6f73657220766f7465732062656c6f772070726f706f73616c2074687265736860208201527f6f6c640000000000000000000000000000000000000000000000000000000000604082015250565b7f45434453413a20696e76616c6964207369676e6174757265206c656e67746800600082015250565b7f1901000000000000000000000000000000000000000000000000000000000000600082015250565b7f476f7665726e6f723a20696e76616c69642070726f706f73616c206c656e677460008201527f6800000000000000000000000000000000000000000000000000000000000000602082015250565b7f45434453413a20696e76616c6964207369676e6174757265202773272076616c60008201527f7565000000000000000000000000000000000000000000000000000000000000602082015250565b7f476f7665726e6f72566f74696e6753696d706c653a20766f746520616c72656160008201527f6479206361737400000000000000000000000000000000000000000000000000602082015250565b7f476f7665726e6f723a20766f7465206e6f742063757272656e746c792061637460008201527f6976650000000000000000000000000000000000000000000000000000000000602082015250565b7f496e697469616c697a61626c653a20636f6e747261637420697320616c72656160008201527f647920696e697469616c697a6564000000000000000000000000000000000000602082015250565b7f476f7665726e6f723a20656d7074792070726f706f73616c0000000000000000600082015250565b7f45434453413a20696e76616c6964207369676e6174757265202776272076616c60008201527f7565000000000000000000000000000000000000000000000000000000000000602082015250565b7f53616665436173743a2076616c756520646f65736e27742066697420696e203660008201527f3420626974730000000000000000000000000000000000000000000000000000602082015250565b7f476f7665726e6f723a2070726f706f73616c206e6f742073756363657373667560008201527f6c00000000000000000000000000000000000000000000000000000000000000602082015250565b7f476f7665726e6f723a20756e6b6e6f776e2070726f706f73616c206964000000600082015250565b7f476f7665726e6f72566f74696e6753696d706c653a20696e76616c696420766160008201527f6c756520666f7220656e756d20566f7465547970650000000000000000000000602082015250565b7f476f7665726e6f723a2070726f706f73616c20616c726561647920657869737460008201527f7300000000000000000000000000000000000000000000000000000000000000602082015250565b6008811061509a57615099614aa8565b5b50565b6150a681614858565b81146150b157600080fd5b50565b6150bd81614876565b81146150c857600080fd5b50565b6150d481614880565b81146150df57600080fd5b50565b6150eb816148df565b81146150f657600080fd5b50565b615102816148fd565b811461510d57600080fd5b5056fe476f7665726e6f723a2063616c6c20726576657274656420776974686f7574206d657373616765a2646970667358221220219bf3f70be37e1297e9e1201bf00ee909d5d521f59c2b511992ecd7cb887dd964736f6c63430008060033",
  "immutableReferences": {},
  "source": "// SPDX-License-Identifier: MIT\npragma solidity ^0.8.2;\n\nimport \"@openzeppelin/contracts-upgradeable/governance/GovernorUpgradeable.sol\";\nimport \"@openzeppelin/contracts-upgradeable/governance/extensions/GovernorProposalThresholdUpgradeable.sol\";\nimport \"@openzeppelin/contracts-upgradeable/governance/extensions/GovernorCountingSimpleUpgradeable.sol\";\nimport \"@openzeppelin/contracts-upgradeable/governance/extensions/GovernorVotesUpgradeable.sol\";\nimport \"@openzeppelin/contracts-upgradeable/governance/extensions/GovernorVotesQuorumFractionUpgradeable.sol\";\nimport \"@openzeppelin/contracts-upgradeable/proxy/utils/Initializable.sol\";\n\nimport {CopyrightToken} from \"./CopyrightToken.sol\";\nimport {StakingERC721} from \"./StakingERC721.sol\";\n\ncontract StakingGovernance is\n    Initializable,\n    GovernorUpgradeable,\n    GovernorProposalThresholdUpgradeable,\n    GovernorCountingSimpleUpgradeable,\n    GovernorVotesUpgradeable,\n    GovernorVotesQuorumFractionUpgradeable\n{\n    StakingERC721 private _stakingToken;\n\n    // solhint-disable-next-line\n    constructor() initializer {}\n\n    function initialize(address _token) public initializer {\n        __Governor_init(\"StakingGovernance\");\n        __GovernorProposalThreshold_init();\n        __GovernorCountingSimple_init();\n        __GovernorVotes_init(ERC20VotesUpgradeable(_token));\n        __GovernorVotesQuorumFraction_init(51);\n\n        _stakingToken = StakingERC721(_token);\n    }\n\n    function votingDelay() public pure override returns (uint256) {\n        return 1; // 1 block\n    }\n\n    function votingPeriod() public pure override returns (uint256) {\n        return 45818; // 1 week\n    }\n\n    function proposalThreshold() public view override returns (uint256) {\n        // set the proposal threshold to 1 percent of the total supply\n        return CopyrightToken(_stakingToken.copyrightToken()).totalSupply() / 100;\n    }\n\n    // The following functions are overrides required by Solidity.\n\n    function quorum(uint256 blockNumber)\n        public\n        view\n        override(IGovernorUpgradeable, GovernorVotesQuorumFractionUpgradeable)\n        returns (uint256)\n    {\n        return super.quorum(blockNumber);\n    }\n\n    function getVotes(address account, uint256 blockNumber)\n        public\n        view\n        override(IGovernorUpgradeable, GovernorVotesUpgradeable)\n        returns (uint256)\n    {\n        return super.getVotes(account, blockNumber);\n    }\n\n    function propose(\n        address[] memory targets,\n        uint256[] memory values,\n        bytes[] memory calldatas,\n        string memory description\n    ) public override(GovernorUpgradeable, GovernorProposalThresholdUpgradeable) returns (uint256) {\n        return super.propose(targets, values, calldatas, description);\n    }\n\n    /**\n     * @dev Overriden version of the {Governor-state} function.\n     */\n    function state(uint256 proposalId) public view virtual override returns (ProposalState) {\n        ProposalState status = super.state(proposalId);\n\n        if (status != ProposalState.Active) {\n            return status;\n        }\n\n        // get the total supply when the voting started\n        uint256 supply = token.getPastTotalSupply(proposalSnapshot(proposalId));\n\n        (, uint256 forVotes, ) = proposalVotes(proposalId);\n\n        // finish the voting if 51 percent of for votes is reached\n        return forVotes >= (supply * 51) / 100 ? ProposalState.Succeeded : ProposalState.Active;\n    }\n}\n",
  "sourcePath": "/Users/angelsatorresalmenara/Desktop/privi-pods-smart-contract/contracts/implementations/StakingGovernance.sol",
  "compiler": {
    "name": "solc",
    "version": "0.8.6+commit.11564f7e.Emscripten.clang"
  },
  "schemaVersion": "3.4.3",
  "updatedAt": "2021-11-16T21:41:36.130Z",
  "networkType": "ethereum",
  "devdoc": {
    "kind": "dev",
    "methods": {
      "COUNTING_MODE()": {
        "details": "See {IGovernor-COUNTING_MODE}."
      },
      "castVote(uint256,uint8)": {
        "details": "See {IGovernor-castVote}."
      },
      "castVoteBySig(uint256,uint8,uint8,bytes32,bytes32)": {
        "details": "See {IGovernor-castVoteBySig}."
      },
      "castVoteWithReason(uint256,uint8,string)": {
        "details": "See {IGovernor-castVoteWithReason}."
      },
      "execute(address[],uint256[],bytes[],bytes32)": {
        "details": "See {IGovernor-execute}."
      },
      "hasVoted(uint256,address)": {
        "details": "See {IGovernor-hasVoted}."
      },
      "hashProposal(address[],uint256[],bytes[],bytes32)": {
        "details": "See {IGovernor-hashProposal}. The proposal id is produced by hashing the RLC encoded `targets` array, the `values` array, the `calldatas` array and the descriptionHash (bytes32 which itself is the keccak256 hash of the description string). This proposal id can be produced from the proposal data which is part of the {ProposalCreated} event. It can even be computed in advance, before the proposal is submitted. Note that the chainId and the governor address are not part of the proposal id computation. Consequently, the same proposal (with same operation and same description) will have the same id if submitted on multiple governors accross multiple networks. This also means that in order to execute the same operation twice (on the same governor) the proposer will have to change the description in order to avoid proposal id conflicts."
      },
      "name()": {
        "details": "See {IGovernor-name}."
      },
      "proposalDeadline(uint256)": {
        "details": "See {IGovernor-proposalDeadline}."
      },
      "proposalSnapshot(uint256)": {
        "details": "See {IGovernor-proposalSnapshot}."
      },
      "proposalThreshold()": {
        "details": "Part of the Governor Bravo's interface: _\"The number of votes required in order for a voter to become a proposer\"_."
      },
      "proposalVotes(uint256)": {
        "details": "Accessor to the internal vote counts."
      },
      "state(uint256)": {
        "details": "Overriden version of the {Governor-state} function."
      },
      "supportsInterface(bytes4)": {
        "details": "See {IERC165-supportsInterface}."
      },
      "version()": {
        "details": "See {IGovernor-version}."
      },
      "votingDelay()": {
        "details": "delay, in number of block, between the proposal is created and the vote starts. This can be increassed to leave time for users to buy voting power, of delegate it, before the voting of a proposal starts."
      },
      "votingPeriod()": {
        "details": "delay, in number of blocks, between the vote start and vote ends. Note: the {votingDelay} can delay the start of the vote. This must be considered when setting the voting duration compared to the voting delay."
      }
    },
    "version": 1
  },
  "userdoc": {
    "kind": "user",
    "methods": {
      "votingDelay()": {
        "notice": "module:user-config"
      },
      "votingPeriod()": {
        "notice": "module:user-config"
      }
    },
    "version": 1
  }
}