{
  "contractName": "StakingERC721",
  "abi": [
    {
      "inputs": [],
      "stateMutability": "nonpayable",
      "type": "constructor"
    },
    {
      "anonymous": false,
      "inputs": [
        {
          "indexed": true,
          "internalType": "address",
          "name": "owner",
          "type": "address"
        },
        {
          "indexed": true,
          "internalType": "address",
          "name": "approved",
          "type": "address"
        },
        {
          "indexed": true,
          "internalType": "uint256",
          "name": "tokenId",
          "type": "uint256"
        }
      ],
      "name": "Approval",
      "type": "event"
    },
    {
      "anonymous": false,
      "inputs": [
        {
          "indexed": true,
          "internalType": "address",
          "name": "owner",
          "type": "address"
        },
        {
          "indexed": true,
          "internalType": "address",
          "name": "operator",
          "type": "address"
        },
        {
          "indexed": false,
          "internalType": "bool",
          "name": "approved",
          "type": "bool"
        }
      ],
      "name": "ApprovalForAll",
      "type": "event"
    },
    {
      "anonymous": false,
      "inputs": [
        {
          "indexed": true,
          "internalType": "address",
          "name": "delegator",
          "type": "address"
        },
        {
          "indexed": true,
          "internalType": "address",
          "name": "fromDelegate",
          "type": "address"
        },
        {
          "indexed": true,
          "internalType": "address",
          "name": "toDelegate",
          "type": "address"
        }
      ],
      "name": "DelegateChanged",
      "type": "event"
    },
    {
      "anonymous": false,
      "inputs": [
        {
          "indexed": true,
          "internalType": "address",
          "name": "delegate",
          "type": "address"
        },
        {
          "indexed": false,
          "internalType": "uint256",
          "name": "previousBalance",
          "type": "uint256"
        },
        {
          "indexed": false,
          "internalType": "uint256",
          "name": "newBalance",
          "type": "uint256"
        }
      ],
      "name": "DelegateVotesChanged",
      "type": "event"
    },
    {
      "anonymous": false,
      "inputs": [
        {
          "indexed": true,
          "internalType": "address",
          "name": "from",
          "type": "address"
        },
        {
          "indexed": true,
          "internalType": "address",
          "name": "to",
          "type": "address"
        },
        {
          "indexed": true,
          "internalType": "uint256",
          "name": "tokenId",
          "type": "uint256"
        }
      ],
      "name": "Transfer",
      "type": "event"
    },
    {
      "inputs": [
        {
          "internalType": "address",
          "name": "to",
          "type": "address"
        },
        {
          "internalType": "uint256",
          "name": "tokenId",
          "type": "uint256"
        }
      ],
      "name": "approve",
      "outputs": [],
      "stateMutability": "nonpayable",
      "type": "function"
    },
    {
      "inputs": [
        {
          "internalType": "address",
          "name": "owner",
          "type": "address"
        }
      ],
      "name": "balanceOf",
      "outputs": [
        {
          "internalType": "uint256",
          "name": "",
          "type": "uint256"
        }
      ],
      "stateMutability": "view",
      "type": "function",
      "constant": true
    },
    {
      "inputs": [
        {
          "internalType": "address",
          "name": "account",
          "type": "address"
        },
        {
          "internalType": "uint32",
          "name": "pos",
          "type": "uint32"
        }
      ],
      "name": "checkpoints",
      "outputs": [
        {
          "components": [
            {
              "internalType": "uint32",
              "name": "fromBlock",
              "type": "uint32"
            },
            {
              "internalType": "uint224",
              "name": "votes",
              "type": "uint224"
            }
          ],
          "internalType": "struct ERC20VotesCompliant.Checkpoint",
          "name": "",
          "type": "tuple"
        }
      ],
      "stateMutability": "view",
      "type": "function",
      "constant": true
    },
    {
      "inputs": [],
      "name": "copyrightToken",
      "outputs": [
        {
          "internalType": "address",
          "name": "",
          "type": "address"
        }
      ],
      "stateMutability": "view",
      "type": "function",
      "constant": true
    },
    {
      "inputs": [
        {
          "internalType": "address",
          "name": "delegatee",
          "type": "address"
        }
      ],
      "name": "delegate",
      "outputs": [],
      "stateMutability": "nonpayable",
      "type": "function"
    },
    {
      "inputs": [
        {
          "internalType": "uint256",
          "name": "tokenId",
          "type": "uint256"
        }
      ],
      "name": "getApproved",
      "outputs": [
        {
          "internalType": "address",
          "name": "",
          "type": "address"
        }
      ],
      "stateMutability": "view",
      "type": "function",
      "constant": true
    },
    {
      "inputs": [
        {
          "internalType": "uint256",
          "name": "blockNumber",
          "type": "uint256"
        }
      ],
      "name": "getPastTotalSupply",
      "outputs": [
        {
          "internalType": "uint256",
          "name": "",
          "type": "uint256"
        }
      ],
      "stateMutability": "view",
      "type": "function",
      "constant": true
    },
    {
      "inputs": [
        {
          "internalType": "address",
          "name": "account",
          "type": "address"
        },
        {
          "internalType": "uint256",
          "name": "blockNumber",
          "type": "uint256"
        }
      ],
      "name": "getPastVotes",
      "outputs": [
        {
          "internalType": "uint256",
          "name": "",
          "type": "uint256"
        }
      ],
      "stateMutability": "view",
      "type": "function",
      "constant": true
    },
    {
      "inputs": [
        {
          "internalType": "address",
          "name": "account",
          "type": "address"
        }
      ],
      "name": "getVotes",
      "outputs": [
        {
          "internalType": "uint256",
          "name": "",
          "type": "uint256"
        }
      ],
      "stateMutability": "view",
      "type": "function",
      "constant": true
    },
    {
      "inputs": [
        {
          "internalType": "address",
          "name": "owner",
          "type": "address"
        },
        {
          "internalType": "address",
          "name": "operator",
          "type": "address"
        }
      ],
      "name": "isApprovedForAll",
      "outputs": [
        {
          "internalType": "bool",
          "name": "",
          "type": "bool"
        }
      ],
      "stateMutability": "view",
      "type": "function",
      "constant": true
    },
    {
      "inputs": [
        {
          "internalType": "address",
          "name": "account",
          "type": "address"
        }
      ],
      "name": "numCheckpoints",
      "outputs": [
        {
          "internalType": "uint32",
          "name": "",
          "type": "uint32"
        }
      ],
      "stateMutability": "view",
      "type": "function",
      "constant": true
    },
    {
      "inputs": [
        {
          "internalType": "uint256",
          "name": "tokenId",
          "type": "uint256"
        }
      ],
      "name": "ownerOf",
      "outputs": [
        {
          "internalType": "address",
          "name": "",
          "type": "address"
        }
      ],
      "stateMutability": "view",
      "type": "function",
      "constant": true
    },
    {
      "inputs": [
        {
          "internalType": "address",
          "name": "from",
          "type": "address"
        },
        {
          "internalType": "address",
          "name": "to",
          "type": "address"
        },
        {
          "internalType": "uint256",
          "name": "tokenId",
          "type": "uint256"
        }
      ],
      "name": "safeTransferFrom",
      "outputs": [],
      "stateMutability": "nonpayable",
      "type": "function"
    },
    {
      "inputs": [
        {
          "internalType": "address",
          "name": "from",
          "type": "address"
        },
        {
          "internalType": "address",
          "name": "to",
          "type": "address"
        },
        {
          "internalType": "uint256",
          "name": "tokenId",
          "type": "uint256"
        },
        {
          "internalType": "bytes",
          "name": "_data",
          "type": "bytes"
        }
      ],
      "name": "safeTransferFrom",
      "outputs": [],
      "stateMutability": "nonpayable",
      "type": "function"
    },
    {
      "inputs": [
        {
          "internalType": "address",
          "name": "operator",
          "type": "address"
        },
        {
          "internalType": "bool",
          "name": "approved",
          "type": "bool"
        }
      ],
      "name": "setApprovalForAll",
      "outputs": [],
      "stateMutability": "nonpayable",
      "type": "function"
    },
    {
      "inputs": [],
      "name": "stakingGovernance",
      "outputs": [
        {
          "internalType": "address",
          "name": "",
          "type": "address"
        }
      ],
      "stateMutability": "view",
      "type": "function",
      "constant": true
    },
    {
      "inputs": [
        {
          "internalType": "bytes4",
          "name": "interfaceId",
          "type": "bytes4"
        }
      ],
      "name": "supportsInterface",
      "outputs": [
        {
          "internalType": "bool",
          "name": "",
          "type": "bool"
        }
      ],
      "stateMutability": "view",
      "type": "function",
      "constant": true
    },
    {
      "inputs": [
        {
          "internalType": "uint256",
          "name": "tokenId",
          "type": "uint256"
        }
      ],
      "name": "tokenURI",
      "outputs": [
        {
          "internalType": "string",
          "name": "",
          "type": "string"
        }
      ],
      "stateMutability": "view",
      "type": "function",
      "constant": true
    },
    {
      "inputs": [
        {
          "internalType": "address",
          "name": "from",
          "type": "address"
        },
        {
          "internalType": "address",
          "name": "to",
          "type": "address"
        },
        {
          "internalType": "uint256",
          "name": "tokenId",
          "type": "uint256"
        }
      ],
      "name": "transferFrom",
      "outputs": [],
      "stateMutability": "nonpayable",
      "type": "function"
    },
    {
      "inputs": [
        {
          "internalType": "string",
          "name": "_name",
          "type": "string"
        },
        {
          "internalType": "string",
          "name": "_symbol",
          "type": "string"
        },
        {
          "internalType": "address",
          "name": "_copyrightToken",
          "type": "address"
        },
        {
          "internalType": "address",
          "name": "_stakingGovernance",
          "type": "address"
        }
      ],
      "name": "initialize",
      "outputs": [],
      "stateMutability": "nonpayable",
      "type": "function"
    },
    {
      "inputs": [],
      "name": "name",
      "outputs": [
        {
          "internalType": "string",
          "name": "",
          "type": "string"
        }
      ],
      "stateMutability": "view",
      "type": "function",
      "constant": true
    },
    {
      "inputs": [],
      "name": "symbol",
      "outputs": [
        {
          "internalType": "string",
          "name": "",
          "type": "string"
        }
      ],
      "stateMutability": "view",
      "type": "function",
      "constant": true
    },
    {
      "inputs": [
        {
          "internalType": "address",
          "name": "to",
          "type": "address"
        },
        {
          "internalType": "uint256",
          "name": "stakeAmount",
          "type": "uint256"
        },
        {
          "internalType": "uint256",
          "name": "totalShares",
          "type": "uint256"
        }
      ],
      "name": "createPosition",
      "outputs": [
        {
          "internalType": "uint256",
          "name": "id",
          "type": "uint256"
        }
      ],
      "stateMutability": "nonpayable",
      "type": "function"
    },
    {
      "inputs": [
        {
          "internalType": "address",
          "name": "owner",
          "type": "address"
        }
      ],
      "name": "getPositions",
      "outputs": [
        {
          "internalType": "uint256[]",
          "name": "",
          "type": "uint256[]"
        }
      ],
      "stateMutability": "view",
      "type": "function",
      "constant": true
    },
    {
      "inputs": [
        {
          "internalType": "uint256",
          "name": "id",
          "type": "uint256"
        }
      ],
      "name": "getPosition",
      "outputs": [
        {
          "internalType": "uint256",
          "name": "stake",
          "type": "uint256"
        },
        {
          "internalType": "uint256",
          "name": "totalShares",
          "type": "uint256"
        }
      ],
      "stateMutability": "view",
      "type": "function",
      "constant": true
    },
    {
      "inputs": [
        {
          "internalType": "uint256",
          "name": "id",
          "type": "uint256"
        },
        {
          "internalType": "address",
          "name": "owner",
          "type": "address"
        },
        {
          "internalType": "uint256",
          "name": "amount",
          "type": "uint256"
        },
        {
          "internalType": "uint256",
          "name": "totalShares",
          "type": "uint256"
        }
      ],
      "name": "decreasePosition",
      "outputs": [],
      "stateMutability": "nonpayable",
      "type": "function"
    },
    {
      "inputs": [
        {
          "internalType": "uint256",
          "name": "id",
          "type": "uint256"
        },
        {
          "internalType": "address",
          "name": "owner",
          "type": "address"
        },
        {
          "internalType": "uint256",
          "name": "totalShares",
          "type": "uint256"
        }
      ],
      "name": "setPositionTotalShares",
      "outputs": [],
      "stateMutability": "nonpayable",
      "type": "function"
    },
    {
      "inputs": [
        {
          "internalType": "uint256",
          "name": "id",
          "type": "uint256"
        },
        {
          "internalType": "uint256",
          "name": "totalAccumulatedShares",
          "type": "uint256"
        }
      ],
      "name": "calculateReward",
      "outputs": [
        {
          "internalType": "uint256",
          "name": "reward",
          "type": "uint256"
        }
      ],
      "stateMutability": "view",
      "type": "function",
      "constant": true
    },
    {
      "inputs": [
        {
          "internalType": "address",
          "name": "account",
          "type": "address"
        }
      ],
      "name": "delegates",
      "outputs": [
        {
          "internalType": "address",
          "name": "",
          "type": "address"
        }
      ],
      "stateMutability": "view",
      "type": "function",
      "constant": true
    },
    {
      "inputs": [
        {
          "internalType": "bool",
          "name": "increase",
          "type": "bool"
        },
        {
          "internalType": "uint256",
          "name": "delta",
          "type": "uint256"
        }
      ],
      "name": "writeSupplyCheckpoint",
      "outputs": [],
      "stateMutability": "nonpayable",
      "type": "function"
    }
  ],
  "bytecode": "0x60806040523480156200001157600080fd5b50604051806020016040528060008152506040518060200160405280600081525081600090805190602001906200004a9291906200006c565b508060019080519060200190620000639291906200006c565b50505062000181565b8280546200007a906200011c565b90600052602060002090601f0160209004810192826200009e5760008555620000ea565b82601f10620000b957805160ff1916838001178555620000ea565b82800160010185558215620000ea579182015b82811115620000e9578251825591602001919060010190620000cc565b5b509050620000f99190620000fd565b5090565b5b8082111562000118576000816000905550600101620000fe565b5090565b600060028204905060018216806200013557607f821691505b602082108114156200014c576200014b62000152565b5b50919050565b7f4e487b7100000000000000000000000000000000000000000000000000000000600052602260045260246000fd5b61495b80620001916000396000f3fe608060405234801561001057600080fd5b50600436106101da5760003560e01c80636fcfff4511610104578063a0d96435116100a2578063c87b56dd11610071578063c87b56dd146105af578063e985e9c5146105df578063eb02c3011461060f578063f1127ed814610640576101da565b8063a0d964351461053d578063a22cb46514610559578063b88d4fde14610575578063b9e6616c14610591576101da565b80638e539e8c116100de5780638e539e8c146104a35780638f15b414146104d357806395d89b41146104ef5780639ab24eb01461050d576101da565b80636fcfff451461041357806370a082311461044357806375a08cce14610473576101da565b8063360434621161017c5780634fe0b6331161014b5780634fe0b6331461037b578063587cde1e146103975780635c19a95c146103c75780636352211e146103e3576101da565b806336043462146102e35780633a46b1a8146102ff5780633eeb530e1461032f57806342842e0e1461035f576101da565b8063095ea7b3116101b8578063095ea7b31461025d57806313ed084614610279578063176492ac146102a957806323b872dd146102c7576101da565b806301ffc9a7146101df57806306fdde031461020f578063081812fc1461022d575b600080fd5b6101f960048036038101906101f491906133e0565b610670565b6040516102069190613b1a565b60405180910390f35b610217610752565b6040516102249190613b35565b60405180910390f35b610247600480360381019061024291906134d9565b6107e4565b6040516102549190613a91565b60405180910390f35b610277600480360381019061027291906132cd565b610869565b005b610293600480360381019061028e91906135c0565b610981565b6040516102a09190613df2565b60405180910390f35b6102b16109e1565b6040516102be9190613a91565b60405180910390f35b6102e160048036038101906102dc91906131b7565b610a07565b005b6102fd60048036038101906102f89190613559565b610a67565b005b610319600480360381019061031491906132cd565b610d59565b6040516103269190613df2565b60405180910390f35b6103496004803603810190610344919061314a565b610ded565b6040516103569190613af8565b60405180910390f35b610379600480360381019061037491906131b7565b610e84565b005b610395600480360381019061039091906133a0565b610ea4565b005b6103b160048036038101906103ac919061314a565b610f56565b6040516103be9190613a91565b60405180910390f35b6103e160048036038101906103dc919061314a565b611059565b005b6103fd60048036038101906103f891906134d9565b611066565b60405161040a9190613a91565b60405180910390f35b61042d6004803603810190610428919061314a565b611118565b60405161043a9190613e36565b60405180910390f35b61045d6004803603810190610458919061314a565b61116c565b60405161046a9190613df2565b60405180910390f35b61048d6004803603810190610488919061330d565b611224565b60405161049a9190613df2565b60405180910390f35b6104bd60048036038101906104b891906134d9565b6112fd565b6040516104ca9190613df2565b60405180910390f35b6104ed60048036038101906104e8919061343a565b611353565b005b6104f76114e5565b6040516105049190613b35565b60405180910390f35b6105276004803603810190610522919061314a565b611577565b6040516105349190613df2565b60405180910390f35b61055760048036038101906105529190613506565b611688565b005b610573600480360381019061056e919061328d565b61171e565b005b61058f600480360381019061058a919061320a565b61189f565b005b610599611901565b6040516105a69190613a91565b60405180910390f35b6105c960048036038101906105c491906134d9565b611927565b6040516105d69190613b35565b60405180910390f35b6105f960048036038101906105f49190613177565b6119ce565b6040516106069190613b1a565b60405180910390f35b610629600480360381019061062491906134d9565b611a62565b604051610637929190613e0d565b60405180910390f35b61065a60048036038101906106559190613360565b611a9c565b6040516106679190613dd7565b60405180910390f35b60007f80ac58cd000000000000000000000000000000000000000000000000000000007bffffffffffffffffffffffffffffffffffffffffffffffffffffffff1916827bffffffffffffffffffffffffffffffffffffffffffffffffffffffff1916148061073b57507f5b5e139f000000000000000000000000000000000000000000000000000000007bffffffffffffffffffffffffffffffffffffffffffffffffffffffff1916827bffffffffffffffffffffffffffffffffffffffffffffffffffffffff1916145b8061074b575061074a82611bac565b5b9050919050565b6060600a805461076190614157565b80601f016020809104026020016040519081016040528092919081815260200182805461078d90614157565b80156107da5780601f106107af576101008083540402835291602001916107da565b820191906000526020600020905b8154815290600101906020018083116107bd57829003601f168201915b5050505050905090565b60006107ef82611c16565b61082e576040517f08c379a000000000000000000000000000000000000000000000000000000000815260040161082590613cf7565b60405180910390fd5b6004600083815260200190815260200160002060009054906101000a900473ffffffffffffffffffffffffffffffffffffffff169050919050565b600061087482611066565b90508073ffffffffffffffffffffffffffffffffffffffff168373ffffffffffffffffffffffffffffffffffffffff1614156108e5576040517f08c379a00000000000000000000000000000000000000000000000000000000081526004016108dc90613d77565b60405180910390fd5b8073ffffffffffffffffffffffffffffffffffffffff16610904611c82565b73ffffffffffffffffffffffffffffffffffffffff16148061093357506109328161092d611c82565b6119ce565b5b610972576040517f08c379a000000000000000000000000000000000000000000000000000000000815260040161096990613c57565b60405180910390fd5b61097c8383611c8a565b505050565b6000670de0b6b3a7640000600d600085815260200190815260200160002060000154600d600086815260200190815260200160002060010154846109c59190614035565b6109cf9190613fdb565b6109d99190613faa565b905092915050565b601060009054906101000a900473ffffffffffffffffffffffffffffffffffffffff1681565b610a18610a12611c82565b82611d43565b610a57576040517f08c379a0000000000000000000000000000000000000000000000000000000008152600401610a4e90613d97565b60405180910390fd5b610a62838383611e21565b505050565b8273ffffffffffffffffffffffffffffffffffffffff16610a8785611066565b73ffffffffffffffffffffffffffffffffffffffff1614610add576040517f08c379a0000000000000000000000000000000000000000000000000000000008152600401610ad490613b77565b60405180910390fd5b600d600085815260200190815260200160002060000154821415610cf657610b048461207d565b60005b600e60008573ffffffffffffffffffffffffffffffffffffffff1673ffffffffffffffffffffffffffffffffffffffff16815260200190815260200160002080549050811015610cca576000600e60008673ffffffffffffffffffffffffffffffffffffffff1673ffffffffffffffffffffffffffffffffffffffff168152602001908152602001600020905085818381548110610ba857610ba76142c1565b5b90600052602060002001541415610cb6578060018280549050610bcb9190614035565b81548110610bdc57610bdb6142c1565b5b9060005260206000200154600e60008773ffffffffffffffffffffffffffffffffffffffff1673ffffffffffffffffffffffffffffffffffffffff1681526020019081526020016000208381548110610c3857610c376142c1565b5b9060005260206000200181905550600e60008673ffffffffffffffffffffffffffffffffffffffff1673ffffffffffffffffffffffffffffffffffffffff16815260200190815260200160002060018280549050610c969190614035565b81548110610ca757610ca66142c1565b5b90600052602060002001600090555b508080610cc2906141ba565b915050610b07565b50600d600085815260200190815260200160002060008082016000905560018201600090555050610d53565b81600d60008681526020019081526020016000206000016000828254610d1c9190614035565b9250508190555080600d600086815260200190815260200160002060010181905550610d52610d4a84610f56565b60008461218e565b5b50505050565b6000438210610d9d576040517f08c379a0000000000000000000000000000000000000000000000000000000008152600401610d9490613b57565b60405180910390fd5b610de5600860008573ffffffffffffffffffffffffffffffffffffffff1673ffffffffffffffffffffffffffffffffffffffff16815260200190815260200160002083612387565b905092915050565b6060600e60008373ffffffffffffffffffffffffffffffffffffffff1673ffffffffffffffffffffffffffffffffffffffff168152602001908152602001600020805480602002602001604051908101604052809291908181526020018280548015610e7857602002820191906000526020600020905b815481526020019060010190808311610e64575b50505050509050919050565b610e9f8383836040518060200160405280600081525061189f565b505050565b600f60009054906101000a900473ffffffffffffffffffffffffffffffffffffffff1673ffffffffffffffffffffffffffffffffffffffff163373ffffffffffffffffffffffffffffffffffffffff1614610f34576040517f08c379a0000000000000000000000000000000000000000000000000000000008152600401610f2b90613bd7565b60405180910390fd5b610f50600983610f4657612493610f4a565b6124a95b836124bf565b50505050565b60008073ffffffffffffffffffffffffffffffffffffffff16600760008473ffffffffffffffffffffffffffffffffffffffff1673ffffffffffffffffffffffffffffffffffffffff16815260200190815260200160002060009054906101000a900473ffffffffffffffffffffffffffffffffffffffff1673ffffffffffffffffffffffffffffffffffffffff161415610ff15781611052565b600760008373ffffffffffffffffffffffffffffffffffffffff1673ffffffffffffffffffffffffffffffffffffffff16815260200190815260200160002060009054906101000a900473ffffffffffffffffffffffffffffffffffffffff165b9050919050565b6110633382612737565b50565b6000806002600084815260200190815260200160002060009054906101000a900473ffffffffffffffffffffffffffffffffffffffff169050600073ffffffffffffffffffffffffffffffffffffffff168173ffffffffffffffffffffffffffffffffffffffff16141561110f576040517f08c379a000000000000000000000000000000000000000000000000000000000815260040161110690613c97565b60405180910390fd5b80915050919050565b6000611165600860008473ffffffffffffffffffffffffffffffffffffffff1673ffffffffffffffffffffffffffffffffffffffff16815260200190815260200160002080549050612851565b9050919050565b60008073ffffffffffffffffffffffffffffffffffffffff168273ffffffffffffffffffffffffffffffffffffffff1614156111dd576040517f08c379a00000000000000000000000000000000000000000000000000000000081526004016111d490613c77565b60405180910390fd5b600360008373ffffffffffffffffffffffffffffffffffffffff1673ffffffffffffffffffffffffffffffffffffffff168152602001908152602001600020549050919050565b6000611230600c6128a4565b61123a600c6128ba565b905061124684826128c8565b61125a600061125486610f56565b8561218e565b82600d60008381526020019081526020016000206000018190555081600d600083815260200190815260200160002060010181905550600e60008573ffffffffffffffffffffffffffffffffffffffff1673ffffffffffffffffffffffffffffffffffffffff1681526020019081526020016000208190806001815401808255809150506001900390600052602060002001600090919091909150559392505050565b6000438210611341576040517f08c379a000000000000000000000000000000000000000000000000000000000815260040161133890613b57565b60405180910390fd5b61134c600983612387565b9050919050565b600660019054906101000a900460ff168061137b5750600660009054906101000a900460ff16155b6113ba576040517f08c379a00000000000000000000000000000000000000000000000000000000081526004016113b190613cb7565b60405180910390fd5b6000600660019054906101000a900460ff16159050801561140c576001600660016101000a81548160ff0219169083151502179055506001600660006101000a81548160ff0219169083151502179055505b84600a9080519060200190611422929190612f0b565b5083600b9080519060200190611439929190612f0b565b5082600f60006101000a81548173ffffffffffffffffffffffffffffffffffffffff021916908373ffffffffffffffffffffffffffffffffffffffff16021790555081601060006101000a81548173ffffffffffffffffffffffffffffffffffffffff021916908373ffffffffffffffffffffffffffffffffffffffff16021790555080156114de576000600660016101000a81548160ff0219169083151502179055505b5050505050565b6060600b80546114f490614157565b80601f016020809104026020016040519081016040528092919081815260200182805461152090614157565b801561156d5780601f106115425761010080835404028352916020019161156d565b820191906000526020600020905b81548152906001019060200180831161155057829003601f168201915b5050505050905090565b600080600860008473ffffffffffffffffffffffffffffffffffffffff1673ffffffffffffffffffffffffffffffffffffffff1681526020019081526020016000208054905090506000811461165f57600860008473ffffffffffffffffffffffffffffffffffffffff1673ffffffffffffffffffffffffffffffffffffffff1681526020019081526020016000206001826116139190614035565b81548110611624576116236142c1565b5b9060005260206000200160000160049054906101000a90047bffffffffffffffffffffffffffffffffffffffffffffffffffffffff16611662565b60005b7bffffffffffffffffffffffffffffffffffffffffffffffffffffffff16915050919050565b8173ffffffffffffffffffffffffffffffffffffffff166116a884611066565b73ffffffffffffffffffffffffffffffffffffffff16146116fe576040517f08c379a00000000000000000000000000000000000000000000000000000000081526004016116f590613b77565b60405180910390fd5b80600d600085815260200190815260200160002060010181905550505050565b611726611c82565b73ffffffffffffffffffffffffffffffffffffffff168273ffffffffffffffffffffffffffffffffffffffff161415611794576040517f08c379a000000000000000000000000000000000000000000000000000000000815260040161178b90613c17565b60405180910390fd5b80600560006117a1611c82565b73ffffffffffffffffffffffffffffffffffffffff1673ffffffffffffffffffffffffffffffffffffffff16815260200190815260200160002060008473ffffffffffffffffffffffffffffffffffffffff1673ffffffffffffffffffffffffffffffffffffffff16815260200190815260200160002060006101000a81548160ff0219169083151502179055508173ffffffffffffffffffffffffffffffffffffffff1661184e611c82565b73ffffffffffffffffffffffffffffffffffffffff167f17307eab39ab6107e8899845ad3d59bd9653f200f220920489ca2b5937696c31836040516118939190613b1a565b60405180910390a35050565b6118b06118aa611c82565b83611d43565b6118ef576040517f08c379a00000000000000000000000000000000000000000000000000000000081526004016118e690613d97565b60405180910390fd5b6118fb84848484612a96565b50505050565b600f60009054906101000a900473ffffffffffffffffffffffffffffffffffffffff1681565b606061193282611c16565b611971576040517f08c379a000000000000000000000000000000000000000000000000000000000815260040161196890613d57565b60405180910390fd5b600061197b612af2565b9050600081511161199b57604051806020016040528060008152506119c6565b806119a584612b09565b6040516020016119b6929190613a6d565b6040516020818303038152906040525b915050919050565b6000600560008473ffffffffffffffffffffffffffffffffffffffff1673ffffffffffffffffffffffffffffffffffffffff16815260200190815260200160002060008373ffffffffffffffffffffffffffffffffffffffff1673ffffffffffffffffffffffffffffffffffffffff16815260200190815260200160002060009054906101000a900460ff16905092915050565b600080600d6000848152602001908152602001600020600001549150600d6000848152602001908152602001600020600101549050915091565b611aa4612f91565b600860008473ffffffffffffffffffffffffffffffffffffffff1673ffffffffffffffffffffffffffffffffffffffff1681526020019081526020016000208263ffffffff1681548110611afb57611afa6142c1565b5b906000526020600020016040518060400160405290816000820160009054906101000a900463ffffffff1663ffffffff1663ffffffff1681526020016000820160049054906101000a90047bffffffffffffffffffffffffffffffffffffffffffffffffffffffff167bffffffffffffffffffffffffffffffffffffffffffffffffffffffff167bffffffffffffffffffffffffffffffffffffffffffffffffffffffff1681525050905092915050565b60007f01ffc9a7000000000000000000000000000000000000000000000000000000007bffffffffffffffffffffffffffffffffffffffffffffffffffffffff1916827bffffffffffffffffffffffffffffffffffffffffffffffffffffffff1916149050919050565b60008073ffffffffffffffffffffffffffffffffffffffff166002600084815260200190815260200160002060009054906101000a900473ffffffffffffffffffffffffffffffffffffffff1673ffffffffffffffffffffffffffffffffffffffff1614159050919050565b600033905090565b816004600083815260200190815260200160002060006101000a81548173ffffffffffffffffffffffffffffffffffffffff021916908373ffffffffffffffffffffffffffffffffffffffff160217905550808273ffffffffffffffffffffffffffffffffffffffff16611cfd83611066565b73ffffffffffffffffffffffffffffffffffffffff167f8c5be1e5ebec7d5bd14f71427d1e84f3dd0314c0f7b2291e5b200ac8c7c3b92560405160405180910390a45050565b6000611d4e82611c16565b611d8d576040517f08c379a0000000000000000000000000000000000000000000000000000000008152600401611d8490613c37565b60405180910390fd5b6000611d9883611066565b90508073ffffffffffffffffffffffffffffffffffffffff168473ffffffffffffffffffffffffffffffffffffffff161480611e0757508373ffffffffffffffffffffffffffffffffffffffff16611def846107e4565b73ffffffffffffffffffffffffffffffffffffffff16145b80611e185750611e1781856119ce565b5b91505092915050565b8273ffffffffffffffffffffffffffffffffffffffff16611e4182611066565b73ffffffffffffffffffffffffffffffffffffffff1614611e97576040517f08c379a0000000000000000000000000000000000000000000000000000000008152600401611e8e90613d37565b60405180910390fd5b600073ffffffffffffffffffffffffffffffffffffffff168273ffffffffffffffffffffffffffffffffffffffff161415611f07576040517f08c379a0000000000000000000000000000000000000000000000000000000008152600401611efe90613bf7565b60405180910390fd5b611f12838383612c6a565b611f1d600082611c8a565b6001600360008573ffffffffffffffffffffffffffffffffffffffff1673ffffffffffffffffffffffffffffffffffffffff1681526020019081526020016000206000828254611f6d9190614035565b925050819055506001600360008473ffffffffffffffffffffffffffffffffffffffff1673ffffffffffffffffffffffffffffffffffffffff1681526020019081526020016000206000828254611fc49190613f54565b92505081905550816002600083815260200190815260200160002060006101000a81548173ffffffffffffffffffffffffffffffffffffffff021916908373ffffffffffffffffffffffffffffffffffffffff160217905550808273ffffffffffffffffffffffffffffffffffffffff168473ffffffffffffffffffffffffffffffffffffffff167fddf252ad1be2c89b69c2b068fc378daa952ba7f163c4a11628f55a4df523b3ef60405160405180910390a4505050565b600061208882611066565b905061209681600084612c6a565b6120a1600083611c8a565b6001600360008373ffffffffffffffffffffffffffffffffffffffff1673ffffffffffffffffffffffffffffffffffffffff16815260200190815260200160002060008282546120f19190614035565b925050819055506002600083815260200190815260200160002060006101000a81549073ffffffffffffffffffffffffffffffffffffffff021916905581600073ffffffffffffffffffffffffffffffffffffffff168273ffffffffffffffffffffffffffffffffffffffff167fddf252ad1be2c89b69c2b068fc378daa952ba7f163c4a11628f55a4df523b3ef60405160405180910390a45050565b8173ffffffffffffffffffffffffffffffffffffffff168373ffffffffffffffffffffffffffffffffffffffff16141580156121ca5750600081115b1561238257600073ffffffffffffffffffffffffffffffffffffffff168373ffffffffffffffffffffffffffffffffffffffff16146122a857600080612251600860008773ffffffffffffffffffffffffffffffffffffffff1673ffffffffffffffffffffffffffffffffffffffff168152602001908152602001600020612493856124bf565b915091508473ffffffffffffffffffffffffffffffffffffffff167fdec2bacdd2f05b59de34da9b523dff8be42e5e38e818c82fdb0bae774387a724838360405161229d929190613e0d565b60405180910390a250505b600073ffffffffffffffffffffffffffffffffffffffff168273ffffffffffffffffffffffffffffffffffffffff16146123815760008061232a600860008673ffffffffffffffffffffffffffffffffffffffff1673ffffffffffffffffffffffffffffffffffffffff1681526020019081526020016000206124a9856124bf565b915091508373ffffffffffffffffffffffffffffffffffffffff167fdec2bacdd2f05b59de34da9b523dff8be42e5e38e818c82fdb0bae774387a7248383604051612376929190613e0d565b60405180910390a250505b5b505050565b6000808380549050905060005b818110156124065760006123a88284612ccb565b9050848682815481106123be576123bd6142c1565b5b9060005260206000200160000160009054906101000a900463ffffffff1663ffffffff1611156123f057809250612400565b6001816123fd9190613f54565b91505b50612394565b60008214612468578460018361241c9190614035565b8154811061242d5761242c6142c1565b5b9060005260206000200160000160049054906101000a90047bffffffffffffffffffffffffffffffffffffffffffffffffffffffff1661246b565b60005b7bffffffffffffffffffffffffffffffffffffffffffffffffffffffff169250505092915050565b600081836124a19190614035565b905092915050565b600081836124b79190613f54565b905092915050565b6000806000858054905090506000811461252d57856001826124e19190614035565b815481106124f2576124f16142c1565b5b9060005260206000200160000160049054906101000a90047bffffffffffffffffffffffffffffffffffffffffffffffffffffffff16612530565b60005b7bffffffffffffffffffffffffffffffffffffffffffffffffffffffff16925061255e83858763ffffffff16565b91506000811180156125b15750438660018361257a9190614035565b8154811061258b5761258a6142c1565b5b9060005260206000200160000160009054906101000a900463ffffffff1663ffffffff16145b1561263e576125bf82612cf1565b866001836125cd9190614035565b815481106125de576125dd6142c1565b5b9060005260206000200160000160046101000a8154817bffffffffffffffffffffffffffffffffffffffffffffffffffffffff02191690837bffffffffffffffffffffffffffffffffffffffffffffffffffffffff16021790555061272e565b85604051806040016040528061265343612851565b63ffffffff16815260200161266785612cf1565b7bffffffffffffffffffffffffffffffffffffffffffffffffffffffff168152509080600181540180825580915050600190039060005260206000200160009091909190915060008201518160000160006101000a81548163ffffffff021916908363ffffffff16021790555060208201518160000160046101000a8154817bffffffffffffffffffffffffffffffffffffffffffffffffffffffff02191690837bffffffffffffffffffffffffffffffffffffffffffffffffffffffff16021790555050505b50935093915050565b600061274283610f56565b9050600061274f8461116c565b905082600760008673ffffffffffffffffffffffffffffffffffffffff1673ffffffffffffffffffffffffffffffffffffffff16815260200190815260200160002060006101000a81548173ffffffffffffffffffffffffffffffffffffffff021916908373ffffffffffffffffffffffffffffffffffffffff1602179055508273ffffffffffffffffffffffffffffffffffffffff168273ffffffffffffffffffffffffffffffffffffffff168573ffffffffffffffffffffffffffffffffffffffff167f3134e8a2e6d97e929a7e54011ea5485d7d196dd5f0ba4d4ef95803e8e3fc257f60405160405180910390a461284b82848361218e565b50505050565b600063ffffffff801682111561289c576040517f08c379a000000000000000000000000000000000000000000000000000000000815260040161289390613db7565b60405180910390fd5b819050919050565b6001816000016000828254019250508190555050565b600081600001549050919050565b600073ffffffffffffffffffffffffffffffffffffffff168273ffffffffffffffffffffffffffffffffffffffff161415612938576040517f08c379a000000000000000000000000000000000000000000000000000000000815260040161292f90613cd7565b60405180910390fd5b61294181611c16565b15612981576040517f08c379a000000000000000000000000000000000000000000000000000000000815260040161297890613bb7565b60405180910390fd5b61298d60008383612c6a565b6001600360008473ffffffffffffffffffffffffffffffffffffffff1673ffffffffffffffffffffffffffffffffffffffff16815260200190815260200160002060008282546129dd9190613f54565b92505081905550816002600083815260200190815260200160002060006101000a81548173ffffffffffffffffffffffffffffffffffffffff021916908373ffffffffffffffffffffffffffffffffffffffff160217905550808273ffffffffffffffffffffffffffffffffffffffff16600073ffffffffffffffffffffffffffffffffffffffff167fddf252ad1be2c89b69c2b068fc378daa952ba7f163c4a11628f55a4df523b3ef60405160405180910390a45050565b612aa1848484611e21565b612aad84848484612d5c565b612aec576040517f08c379a0000000000000000000000000000000000000000000000000000000008152600401612ae390613b97565b60405180910390fd5b50505050565b606060405180602001604052806000815250905090565b60606000821415612b51576040518060400160405280600181526020017f30000000000000000000000000000000000000000000000000000000000000008152509050612c65565b600082905060005b60008214612b83578080612b6c906141ba565b915050600a82612b7c9190613faa565b9150612b59565b60008167ffffffffffffffff811115612b9f57612b9e6142f0565b5b6040519080825280601f01601f191660200182016040528015612bd15781602001600182028036833780820191505090505b5090505b60008514612c5e57600182612bea9190614035565b9150600a85612bf99190614203565b6030612c059190613f54565b60f81b818381518110612c1b57612c1a6142c1565b5b60200101907effffffffffffffffffffffffffffffffffffffffffffffffffffffffffffff1916908160001a905350600a85612c579190613faa565b9450612bd5565b8093505050505b919050565b612c75838383612ef3565b6000600d6000838152602001908152602001600020600001541115612cc657612cc5612ca084610f56565b612ca984610f56565b600d60008581526020019081526020016000206000015461218e565b5b505050565b60006002828418612cdc9190613faa565b828416612ce99190613f54565b905092915050565b60007bffffffffffffffffffffffffffffffffffffffffffffffffffffffff8016821115612d54576040517f08c379a0000000000000000000000000000000000000000000000000000000008152600401612d4b90613d17565b60405180910390fd5b819050919050565b6000612d7d8473ffffffffffffffffffffffffffffffffffffffff16612ef8565b15612ee6578373ffffffffffffffffffffffffffffffffffffffff1663150b7a02612da6611c82565b8786866040518563ffffffff1660e01b8152600401612dc89493929190613aac565b602060405180830381600087803b158015612de257600080fd5b505af1925050508015612e1357506040513d601f19601f82011682018060405250810190612e10919061340d565b60015b612e96573d8060008114612e43576040519150601f19603f3d011682016040523d82523d6000602084013e612e48565b606091505b50600081511415612e8e576040517f08c379a0000000000000000000000000000000000000000000000000000000008152600401612e8590613b97565b60405180910390fd5b805181602001fd5b63150b7a0260e01b7bffffffffffffffffffffffffffffffffffffffffffffffffffffffff1916817bffffffffffffffffffffffffffffffffffffffffffffffffffffffff191614915050612eeb565b600190505b949350505050565b505050565b600080823b905060008111915050919050565b828054612f1790614157565b90600052602060002090601f016020900481019282612f395760008555612f80565b82601f10612f5257805160ff1916838001178555612f80565b82800160010185558215612f80579182015b82811115612f7f578251825591602001919060010190612f64565b5b509050612f8d9190612fcf565b5090565b6040518060400160405280600063ffffffff16815260200160007bffffffffffffffffffffffffffffffffffffffffffffffffffffffff1681525090565b5b80821115612fe8576000816000905550600101612fd0565b5090565b6000612fff612ffa84613e76565b613e51565b90508281526020810184848401111561301b5761301a614324565b5b613026848285614115565b509392505050565b600061304161303c84613ea7565b613e51565b90508281526020810184848401111561305d5761305c614324565b5b613068848285614115565b509392505050565b60008135905061307f816148b2565b92915050565b600081359050613094816148c9565b92915050565b6000813590506130a9816148e0565b92915050565b6000815190506130be816148e0565b92915050565b600082601f8301126130d9576130d861431f565b5b81356130e9848260208601612fec565b91505092915050565b600082601f8301126131075761310661431f565b5b813561311784826020860161302e565b91505092915050565b60008135905061312f816148f7565b92915050565b6000813590506131448161490e565b92915050565b6000602082840312156131605761315f61432e565b5b600061316e84828501613070565b91505092915050565b6000806040838503121561318e5761318d61432e565b5b600061319c85828601613070565b92505060206131ad85828601613070565b9150509250929050565b6000806000606084860312156131d0576131cf61432e565b5b60006131de86828701613070565b93505060206131ef86828701613070565b925050604061320086828701613120565b9150509250925092565b600080600080608085870312156132245761322361432e565b5b600061323287828801613070565b945050602061324387828801613070565b935050604061325487828801613120565b925050606085013567ffffffffffffffff81111561327557613274614329565b5b613281878288016130c4565b91505092959194509250565b600080604083850312156132a4576132a361432e565b5b60006132b285828601613070565b92505060206132c385828601613085565b9150509250929050565b600080604083850312156132e4576132e361432e565b5b60006132f285828601613070565b925050602061330385828601613120565b9150509250929050565b6000806000606084860312156133265761332561432e565b5b600061333486828701613070565b935050602061334586828701613120565b925050604061335686828701613120565b9150509250925092565b600080604083850312156133775761337661432e565b5b600061338585828601613070565b925050602061339685828601613135565b9150509250929050565b600080604083850312156133b7576133b661432e565b5b60006133c585828601613085565b92505060206133d685828601613120565b9150509250929050565b6000602082840312156133f6576133f561432e565b5b60006134048482850161309a565b91505092915050565b6000602082840312156134235761342261432e565b5b6000613431848285016130af565b91505092915050565b600080600080608085870312156134545761345361432e565b5b600085013567ffffffffffffffff81111561347257613471614329565b5b61347e878288016130f2565b945050602085013567ffffffffffffffff81111561349f5761349e614329565b5b6134ab878288016130f2565b93505060406134bc87828801613070565b92505060606134cd87828801613070565b91505092959194509250565b6000602082840312156134ef576134ee61432e565b5b60006134fd84828501613120565b91505092915050565b60008060006060848603121561351f5761351e61432e565b5b600061352d86828701613120565b935050602061353e86828701613070565b925050604061354f86828701613120565b9150509250925092565b600080600080608085870312156135735761357261432e565b5b600061358187828801613120565b945050602061359287828801613070565b93505060406135a387828801613120565b92505060606135b487828801613120565b91505092959194509250565b600080604083850312156135d7576135d661432e565b5b60006135e585828601613120565b92505060206135f685828601613120565b9150509250929050565b600061360c8383613a31565b60208301905092915050565b61362181614069565b82525050565b600061363282613ee8565b61363c8185613f16565b935061364783613ed8565b8060005b8381101561367857815161365f8882613600565b975061366a83613f09565b92505060018101905061364b565b5085935050505092915050565b61368e8161407b565b82525050565b600061369f82613ef3565b6136a98185613f27565b93506136b9818560208601614124565b6136c281614333565b840191505092915050565b60006136d882613efe565b6136e28185613f38565b93506136f2818560208601614124565b6136fb81614333565b840191505092915050565b600061371182613efe565b61371b8185613f49565b935061372b818560208601614124565b80840191505092915050565b6000613744601f83613f38565b915061374f82614344565b602082019050919050565b6000613767602383613f38565b91506137728261436d565b604082019050919050565b600061378a603283613f38565b9150613795826143bc565b604082019050919050565b60006137ad601c83613f38565b91506137b88261440b565b602082019050919050565b60006137d0600e83613f38565b91506137db82614434565b602082019050919050565b60006137f3602483613f38565b91506137fe8261445d565b604082019050919050565b6000613816601983613f38565b9150613821826144ac565b602082019050919050565b6000613839602c83613f38565b9150613844826144d5565b604082019050919050565b600061385c603883613f38565b915061386782614524565b604082019050919050565b600061387f602a83613f38565b915061388a82614573565b604082019050919050565b60006138a2602983613f38565b91506138ad826145c2565b604082019050919050565b60006138c5602e83613f38565b91506138d082614611565b604082019050919050565b60006138e8602083613f38565b91506138f382614660565b602082019050919050565b600061390b602c83613f38565b915061391682614689565b604082019050919050565b600061392e602783613f38565b9150613939826146d8565b604082019050919050565b6000613951602983613f38565b915061395c82614727565b604082019050919050565b6000613974602f83613f38565b915061397f82614776565b604082019050919050565b6000613997602183613f38565b91506139a2826147c5565b604082019050919050565b60006139ba603183613f38565b91506139c582614814565b604082019050919050565b60006139dd602683613f38565b91506139e882614863565b604082019050919050565b604082016000820151613a096000850182613a4f565b506020820151613a1c6020850182613a22565b50505050565b613a2b816140d3565b82525050565b613a3a816140fb565b82525050565b613a49816140fb565b82525050565b613a5881614105565b82525050565b613a6781614105565b82525050565b6000613a798285613706565b9150613a858284613706565b91508190509392505050565b6000602082019050613aa66000830184613618565b92915050565b6000608082019050613ac16000830187613618565b613ace6020830186613618565b613adb6040830185613a40565b8181036060830152613aed8184613694565b905095945050505050565b60006020820190508181036000830152613b128184613627565b905092915050565b6000602082019050613b2f6000830184613685565b92915050565b60006020820190508181036000830152613b4f81846136cd565b905092915050565b60006020820190508181036000830152613b7081613737565b9050919050565b60006020820190508181036000830152613b908161375a565b9050919050565b60006020820190508181036000830152613bb08161377d565b9050919050565b60006020820190508181036000830152613bd0816137a0565b9050919050565b60006020820190508181036000830152613bf0816137c3565b9050919050565b60006020820190508181036000830152613c10816137e6565b9050919050565b60006020820190508181036000830152613c3081613809565b9050919050565b60006020820190508181036000830152613c508161382c565b9050919050565b60006020820190508181036000830152613c708161384f565b9050919050565b60006020820190508181036000830152613c9081613872565b9050919050565b60006020820190508181036000830152613cb081613895565b9050919050565b60006020820190508181036000830152613cd0816138b8565b9050919050565b60006020820190508181036000830152613cf0816138db565b9050919050565b60006020820190508181036000830152613d10816138fe565b9050919050565b60006020820190508181036000830152613d3081613921565b9050919050565b60006020820190508181036000830152613d5081613944565b9050919050565b60006020820190508181036000830152613d7081613967565b9050919050565b60006020820190508181036000830152613d908161398a565b9050919050565b60006020820190508181036000830152613db0816139ad565b9050919050565b60006020820190508181036000830152613dd0816139d0565b9050919050565b6000604082019050613dec60008301846139f3565b92915050565b6000602082019050613e076000830184613a40565b92915050565b6000604082019050613e226000830185613a40565b613e2f6020830184613a40565b9392505050565b6000602082019050613e4b6000830184613a5e565b92915050565b6000613e5b613e6c565b9050613e678282614189565b919050565b6000604051905090565b600067ffffffffffffffff821115613e9157613e906142f0565b5b613e9a82614333565b9050602081019050919050565b600067ffffffffffffffff821115613ec257613ec16142f0565b5b613ecb82614333565b9050602081019050919050565b6000819050602082019050919050565b600081519050919050565b600081519050919050565b600081519050919050565b6000602082019050919050565b600082825260208201905092915050565b600082825260208201905092915050565b600082825260208201905092915050565b600081905092915050565b6000613f5f826140fb565b9150613f6a836140fb565b9250827fffffffffffffffffffffffffffffffffffffffffffffffffffffffffffffffff03821115613f9f57613f9e614234565b5b828201905092915050565b6000613fb5826140fb565b9150613fc0836140fb565b925082613fd057613fcf614263565b5b828204905092915050565b6000613fe6826140fb565b9150613ff1836140fb565b9250817fffffffffffffffffffffffffffffffffffffffffffffffffffffffffffffffff048311821515161561402a57614029614234565b5b828202905092915050565b6000614040826140fb565b915061404b836140fb565b92508282101561405e5761405d614234565b5b828203905092915050565b6000614074826140b3565b9050919050565b60008115159050919050565b60007fffffffff0000000000000000000000000000000000000000000000000000000082169050919050565b600073ffffffffffffffffffffffffffffffffffffffff82169050919050565b60007bffffffffffffffffffffffffffffffffffffffffffffffffffffffff82169050919050565b6000819050919050565b600063ffffffff82169050919050565b82818337600083830152505050565b60005b83811015614142578082015181840152602081019050614127565b83811115614151576000848401525b50505050565b6000600282049050600182168061416f57607f821691505b6020821081141561418357614182614292565b5b50919050565b61419282614333565b810181811067ffffffffffffffff821117156141b1576141b06142f0565b5b80604052505050565b60006141c5826140fb565b91507fffffffffffffffffffffffffffffffffffffffffffffffffffffffffffffffff8214156141f8576141f7614234565b5b600182019050919050565b600061420e826140fb565b9150614219836140fb565b92508261422957614228614263565b5b828206905092915050565b7f4e487b7100000000000000000000000000000000000000000000000000000000600052601160045260246000fd5b7f4e487b7100000000000000000000000000000000000000000000000000000000600052601260045260246000fd5b7f4e487b7100000000000000000000000000000000000000000000000000000000600052602260045260246000fd5b7f4e487b7100000000000000000000000000000000000000000000000000000000600052603260045260246000fd5b7f4e487b7100000000000000000000000000000000000000000000000000000000600052604160045260246000fd5b600080fd5b600080fd5b600080fd5b600080fd5b6000601f19601f8301169050919050565b7f4552433230566f7465733a20626c6f636b206e6f7420796574206d696e656400600082015250565b7f43616e6e6f742075706461746520706f736974696f6e206966206e6f74206f7760008201527f6e65720000000000000000000000000000000000000000000000000000000000602082015250565b7f4552433732313a207472616e7366657220746f206e6f6e20455243373231526560008201527f63656976657220696d706c656d656e7465720000000000000000000000000000602082015250565b7f4552433732313a20746f6b656e20616c7265616479206d696e74656400000000600082015250565b7f496e76616c69642063616c6c6572000000000000000000000000000000000000600082015250565b7f4552433732313a207472616e7366657220746f20746865207a65726f2061646460008201527f7265737300000000000000000000000000000000000000000000000000000000602082015250565b7f4552433732313a20617070726f766520746f2063616c6c657200000000000000600082015250565b7f4552433732313a206f70657261746f7220717565727920666f72206e6f6e657860008201527f697374656e7420746f6b656e0000000000000000000000000000000000000000602082015250565b7f4552433732313a20617070726f76652063616c6c6572206973206e6f74206f7760008201527f6e6572206e6f7220617070726f76656420666f7220616c6c0000000000000000602082015250565b7f4552433732313a2062616c616e636520717565727920666f7220746865207a6560008201527f726f206164647265737300000000000000000000000000000000000000000000602082015250565b7f4552433732313a206f776e657220717565727920666f72206e6f6e657869737460008201527f656e7420746f6b656e0000000000000000000000000000000000000000000000602082015250565b7f496e697469616c697a61626c653a20636f6e747261637420697320616c72656160008201527f647920696e697469616c697a6564000000000000000000000000000000000000602082015250565b7f4552433732313a206d696e7420746f20746865207a65726f2061646472657373600082015250565b7f4552433732313a20617070726f76656420717565727920666f72206e6f6e657860008201527f697374656e7420746f6b656e0000000000000000000000000000000000000000602082015250565b7f53616665436173743a2076616c756520646f65736e27742066697420696e203260008201527f3234206269747300000000000000000000000000000000000000000000000000602082015250565b7f4552433732313a207472616e73666572206f6620746f6b656e2074686174206960008201527f73206e6f74206f776e0000000000000000000000000000000000000000000000602082015250565b7f4552433732314d657461646174613a2055524920717565727920666f72206e6f60008201527f6e6578697374656e7420746f6b656e0000000000000000000000000000000000602082015250565b7f4552433732313a20617070726f76616c20746f2063757272656e74206f776e6560008201527f7200000000000000000000000000000000000000000000000000000000000000602082015250565b7f4552433732313a207472616e736665722063616c6c6572206973206e6f74206f60008201527f776e6572206e6f7220617070726f766564000000000000000000000000000000602082015250565b7f53616665436173743a2076616c756520646f65736e27742066697420696e203360008201527f3220626974730000000000000000000000000000000000000000000000000000602082015250565b6148bb81614069565b81146148c657600080fd5b50565b6148d28161407b565b81146148dd57600080fd5b50565b6148e981614087565b81146148f457600080fd5b50565b614900816140fb565b811461490b57600080fd5b50565b61491781614105565b811461492257600080fd5b5056fea2646970667358221220533a13bc7c4f505f5017ce933782c33a58c2a6736e97ccecad8dd235537c088164736f6c63430008060033",
  "immutableReferences": {},
  "source": "// SPDX-License-Identifier: MIT\npragma solidity ^0.8.0;\n\nimport \"@openzeppelin/contracts/token/ERC721/ERC721.sol\";\nimport \"@openzeppelin/contracts/utils/Counters.sol\";\nimport \"@openzeppelin/contracts/proxy/utils/Initializable.sol\";\nimport \"../extensions/ERC20VotesCompliant.sol\";\n\ncontract StakingERC721 is ERC721, Initializable, ERC20VotesCompliant {\n    using Counters for Counters.Counter;\n\n    struct Position {\n        uint256 stake;\n        uint256 totalShares;\n    }\n\n    string private _proxyName;\n\n    string private _proxySymbol;\n\n    Counters.Counter private idGen;\n\n    mapping(uint256 => Position) private positions;\n\n    mapping(address => uint256[]) private positionOwnership;\n\n    /// @notice the address of the corresponding copyright token\n    address public copyrightToken;\n\n    /// @notice the address of the corresponding staking governance\n    address public stakingGovernance;\n\n    // solhint-disable-next-line\n    constructor() ERC721(\"\", \"\") {}\n\n    function initialize(\n        string memory _name,\n        string memory _symbol,\n        address _copyrightToken,\n        address _stakingGovernance\n    ) external initializer {\n        _proxyName = _name;\n        _proxySymbol = _symbol;\n        copyrightToken = _copyrightToken;\n        stakingGovernance = _stakingGovernance;\n    }\n\n    function name() public view virtual override returns (string memory) {\n        return _proxyName;\n    }\n\n    function symbol() public view virtual override returns (string memory) {\n        return _proxySymbol;\n    }\n\n    function createPosition(\n        address to,\n        uint256 stakeAmount,\n        uint256 totalShares\n    ) external returns (uint256 id) {\n        idGen.increment();\n        id = idGen.current();\n\n        _mint(to, id);\n\n        _moveVotingPower(address(0), delegates(to), stakeAmount);\n\n        positions[id].stake = stakeAmount;\n        positions[id].totalShares = totalShares;\n\n        positionOwnership[to].push(id);\n    }\n\n    function getPositions(address owner) external view returns (uint256[] memory) {\n        return positionOwnership[owner];\n    }\n\n    function getPosition(uint256 id) external view returns (uint256 stake, uint256 totalShares) {\n        stake = positions[id].stake;\n        totalShares = positions[id].totalShares;\n    }\n\n    function decreasePosition(\n        uint256 id,\n        address owner,\n        uint256 amount,\n        uint256 totalShares\n    ) external {\n        require(ownerOf(id) == owner, \"Cannot update position if not owner\");\n        if (amount == positions[id].stake) {\n            _burn(id);\n\n            for (uint256 i = 0; i < positionOwnership[owner].length; i++) {\n                uint256[] storage ids = positionOwnership[owner];\n                if (ids[i] == id) {\n                    positionOwnership[owner][i] = ids[ids.length - 1];\n                    delete positionOwnership[owner][ids.length - 1];\n                }\n            }\n            delete positions[id];\n        } else {\n            positions[id].stake -= amount;\n            positions[id].totalShares = totalShares;\n\n            // if balance is not burned no transfer occurs, so the voting power should be moved manually\n            _moveVotingPower(delegates(owner), address(0), amount);\n        }\n    }\n\n    function setPositionTotalShares(\n        uint256 id,\n        address owner,\n        uint256 totalShares\n    ) external {\n        require(ownerOf(id) == owner, \"Cannot update position if not owner\");\n        positions[id].totalShares = totalShares;\n    }\n\n    function calculateReward(uint256 id, uint256 totalAccumulatedShares)\n        external\n        view\n        returns (uint256 reward)\n    {\n        reward = ((totalAccumulatedShares - positions[id].totalShares) * positions[id].stake) / 10**18;\n    }\n\n    /**\n     * @dev Get the address `account` is currently delegating to.\n     */\n    function delegates(address account) public view override returns (address) {\n        return _delegates[account] != address(0) ? _delegates[account] : account;\n    }\n\n    function writeSupplyCheckpoint(bool increase, uint256 delta) external {\n        require(msg.sender == copyrightToken, \"Invalid caller\");\n        _writeCheckpoint(_totalSupplyCheckpoints, increase ? _add : _subtract, delta);\n    }\n\n    /**\n     * @dev Move voting power when tokens are transferred.\n     *\n     * Emits a {DelegateVotesChanged} event.\n     */\n    function _beforeTokenTransfer(\n        address from,\n        address to,\n        uint256 id\n    ) internal virtual override {\n        super._beforeTokenTransfer(from, to, id);\n\n        // when minting the amount will be 0, so minting should be treated apart\n        if (positions[id].stake > 0) {\n            _moveVotingPower(delegates(from), delegates(to), positions[id].stake);\n        }\n    }\n\n    /**\n     * @dev Change delegation for `delegator` to `delegatee`.\n     *\n     * Emits events {DelegateChanged} and {DelegateVotesChanged}.\n     */\n    function _delegate(address delegator, address delegatee) internal override {\n        address currentDelegate = delegates(delegator);\n        uint256 delegatorBalance = balanceOf(delegator);\n        _delegates[delegator] = delegatee;\n\n        emit DelegateChanged(delegator, currentDelegate, delegatee);\n\n        _moveVotingPower(currentDelegate, delegatee, delegatorBalance);\n    }\n}\n",
  "sourcePath": "/Users/angelsatorresalmenara/Desktop/privi-pods-smart-contract/contracts/implementations/StakingERC721.sol",
  "compiler": {
    "name": "solc",
    "version": "0.8.6+commit.11564f7e.Emscripten.clang"
  },
  "schemaVersion": "3.4.3",
  "updatedAt": "2021-11-16T21:41:36.105Z",
  "networkType": "ethereum",
  "devdoc": {
    "kind": "dev",
    "methods": {
      "approve(address,uint256)": {
        "details": "See {IERC721-approve}."
      },
      "balanceOf(address)": {
        "details": "See {IERC721-balanceOf}."
      },
      "checkpoints(address,uint32)": {
        "details": "Get the `pos`-th checkpoint for `account`."
      },
      "delegate(address)": {
        "details": "Delegate votes from the sender to `delegatee`."
      },
      "delegates(address)": {
        "details": "Get the address `account` is currently delegating to."
      },
      "getApproved(uint256)": {
        "details": "See {IERC721-getApproved}."
      },
      "getPastTotalSupply(uint256)": {
        "details": "Retrieve the `totalSupply` at the end of `blockNumber`. Note, this value is the sum of all balances. It is but NOT the sum of all the delegated votes! Requirements: - `blockNumber` must have been already mined"
      },
      "getPastVotes(address,uint256)": {
        "details": "Retrieve the number of votes for `account` at the end of `blockNumber`. Requirements: - `blockNumber` must have been already mined"
      },
      "getVotes(address)": {
        "details": "Gets the current votes balance for `account`"
      },
      "isApprovedForAll(address,address)": {
        "details": "See {IERC721-isApprovedForAll}."
      },
      "name()": {
        "details": "See {IERC721Metadata-name}."
      },
      "numCheckpoints(address)": {
        "details": "Get number of checkpoints for `account`."
      },
      "ownerOf(uint256)": {
        "details": "See {IERC721-ownerOf}."
      },
      "safeTransferFrom(address,address,uint256)": {
        "details": "See {IERC721-safeTransferFrom}."
      },
      "safeTransferFrom(address,address,uint256,bytes)": {
        "details": "See {IERC721-safeTransferFrom}."
      },
      "setApprovalForAll(address,bool)": {
        "details": "See {IERC721-setApprovalForAll}."
      },
      "supportsInterface(bytes4)": {
        "details": "See {IERC165-supportsInterface}."
      },
      "symbol()": {
        "details": "See {IERC721Metadata-symbol}."
      },
      "tokenURI(uint256)": {
        "details": "See {IERC721Metadata-tokenURI}."
      },
      "transferFrom(address,address,uint256)": {
        "details": "See {IERC721-transferFrom}."
      }
    },
    "version": 1
  },
  "userdoc": {
    "kind": "user",
    "methods": {
      "copyrightToken()": {
        "notice": "the address of the corresponding copyright token"
      },
      "stakingGovernance()": {
        "notice": "the address of the corresponding staking governance"
      }
    },
    "version": 1
  }
}