{
  "address": "0x261Cd34ED028B5dbe7E1d9dA8dA83Bf092174B13",
  "abi": [
    {
      "inputs": [
        {
          "internalType": "address",
          "name": "signatory_",
          "type": "address"
        }
      ],
      "stateMutability": "nonpayable",
      "type": "constructor"
    },
    {
      "inputs": [],
      "name": "getPrice",
      "outputs": [
        {
          "internalType": "uint256",
          "name": "",
          "type": "uint256"
        }
      ],
      "stateMutability": "view",
      "type": "function"
    },
    {
      "inputs": [
        {
          "internalType": "address",
          "name": "protocolParameters_",
          "type": "address"
        }
      ],
      "name": "initialize",
      "outputs": [],
      "stateMutability": "nonpayable",
      "type": "function"
    },
    {
      "inputs": [],
      "name": "price",
      "outputs": [
        {
          "internalType": "uint256",
          "name": "",
          "type": "uint256"
        }
      ],
      "stateMutability": "view",
      "type": "function"
    },
    {
      "inputs": [],
      "name": "signatory",
      "outputs": [
        {
          "internalType": "address",
          "name": "",
          "type": "address"
        }
      ],
      "stateMutability": "view",
      "type": "function"
    },
    {
      "inputs": [],
      "name": "timestamp",
      "outputs": [
        {
          "internalType": "uint256",
          "name": "",
          "type": "uint256"
        }
      ],
      "stateMutability": "view",
      "type": "function"
    },
    {
      "inputs": [
        {
          "internalType": "address",
          "name": "address_",
          "type": "address"
        },
        {
          "internalType": "uint256",
          "name": "timestamp_",
          "type": "uint256"
        },
        {
          "internalType": "uint256",
          "name": "price_",
          "type": "uint256"
        },
        {
          "internalType": "uint8",
          "name": "v_",
          "type": "uint8"
        },
        {
          "internalType": "bytes32",
          "name": "r_",
          "type": "bytes32"
        },
        {
          "internalType": "bytes32",
          "name": "s_",
          "type": "bytes32"
        }
      ],
      "name": "updatePrice",
      "outputs": [],
      "stateMutability": "nonpayable",
      "type": "function"
    }
  ],
  "transactionHash": "0xa791714f40be999a020545845e9291b097173495caf17b8d22c4d638b92d406d",
  "args": [
    "0x7d994063E2C98b2F49b13418Fc3FE58c45DdcC0D"
  ],
  "solcInputHash": "0cc6fa82c0eeb27ece16b294b847bb89",
  "bytecode": "0x60c060405234801561001057600080fd5b5060405161065338038061065383398101604081905261002f9161004c565b6001600160601b0319606091821b1660805233901b60a05261007a565b60006020828403121561005d578081fd5b81516001600160a01b0381168114610073578182fd5b9392505050565b60805160601c60a05160601c6105a86100ab60003960006103f70152600081816081015261022001526105a86000f3fe608060405234801561001057600080fd5b50600436106100625760003560e01c80636d0af48014610067578063913123ca1461007c57806398d5fdca146100c0578063a035b1fe146100d6578063b80777ea146100df578063c4d66de8146100e8575b600080fd5b61007a6100753660046104d9565b6100fb565b005b6100a37f000000000000000000000000000000000000000000000000000000000000000081565b6040516001600160a01b0390911681526020015b60405180910390f35b6100c8610270565b6040519081526020016100b7565b6100c860025481565b6100c860015481565b61007a6100f63660046104b8565b61034e565b60015480861115610267578360ff16601b148061011b57508360ff16601c145b15610267576040516bffffffffffffffffffffffff19606089901b16602082015260348101879052605481018690526000906074016040516020818303038152906040528051906020012090506000816040516020016101a791907f19457468657265756d205369676e6564204d6573736167653a0a3332000000008152601c810191909152603c0190565b60408051601f198184030181528282528051602091820120600080855291840180845281905260ff8a169284019290925260608301889052608083018790529092509060019060a0016020604051602081039080840390855afa158015610212573d6000803e3d6000fd5b5050506020604051035190507f00000000000000000000000000000000000000000000000000000000000000006001600160a01b0316816001600160a01b0316141561026357600189905560028890555b5050505b50505050505050565b60008060029054906101000a90046001600160a01b03166001600160a01b031663aa8f881f6040518163ffffffff1660e01b815260040160206040518083038186803b1580156102bf57600080fd5b505afa1580156102d3573d6000803e3d6000fd5b505050506040513d601f19601f820116820180604052508101906102f79190610537565b600154610304904261054f565b11156103475760405162461bcd60e51b815260206004820152600d60248201526c141c9a58d948195e1c1a5c9959609a1b60448201526064015b60405180910390fd5b5060025490565b600054610100900460ff1680610367575060005460ff16155b6103ca5760405162461bcd60e51b815260206004820152602e60248201527f496e697469616c697a61626c653a20636f6e747261637420697320616c72656160448201526d191e481a5b9a5d1a585b1a5e995960921b606482015260840161033e565b600054610100900460ff161580156103ec576000805461ffff19166101011790555b336001600160a01b037f000000000000000000000000000000000000000000000000000000000000000016146104645760405162461bcd60e51b815260206004820152601c60248201527f4f6e6c79206465706c6f7965722063616e20696e697469616c697a6500000000604482015260640161033e565b6000805462010000600160b01b031916620100006001600160a01b038516021790558015610498576000805461ff00191690555b5050565b80356001600160a01b03811681146104b357600080fd5b919050565b6000602082840312156104c9578081fd5b6104d28261049c565b9392505050565b60008060008060008060c087890312156104f1578182fd5b6104fa8761049c565b95506020870135945060408701359350606087013560ff8116811461051d578283fd5b9598949750929560808101359460a0909101359350915050565b600060208284031215610548578081fd5b5051919050565b60008282101561056d57634e487b7160e01b81526011600452602481fd5b50039056fea264697066735822122077bfaf1667311a1fb6cb05016100092448e6bc615193c1c2e32ea8407ce25a0264736f6c63430008040033",
  "devdoc": {
    "kind": "dev",
    "methods": {},
    "version": 1
  },
  "userdoc": {
    "kind": "user",
    "methods": {},
    "version": 1
  },
  "storageLayout": {
    "storage": [
      {
        "astId": 7665,
        "contract": "contracts/perpetual_futures/SymbolOracleOffChain.sol:SymbolOracleOffChain",
        "label": "_initialized",
        "offset": 0,
        "slot": "0",
        "type": "t_bool"
      },
      {
        "astId": 7668,
        "contract": "contracts/perpetual_futures/SymbolOracleOffChain.sol:SymbolOracleOffChain",
        "label": "_initializing",
        "offset": 1,
        "slot": "0",
        "type": "t_bool"
      },
      {
        "astId": 16331,
        "contract": "contracts/perpetual_futures/SymbolOracleOffChain.sol:SymbolOracleOffChain",
        "label": "_protocolParameters",
        "offset": 2,
        "slot": "0",
        "type": "t_contract(FuturesProtocolParameters)22605"
      },
      {
        "astId": 16333,
        "contract": "contracts/perpetual_futures/SymbolOracleOffChain.sol:SymbolOracleOffChain",
        "label": "timestamp",
        "offset": 0,
        "slot": "1",
        "type": "t_uint256"
      },
      {
        "astId": 16335,
        "contract": "contracts/perpetual_futures/SymbolOracleOffChain.sol:SymbolOracleOffChain",
        "label": "price",
        "offset": 0,
        "slot": "2",
        "type": "t_uint256"
      }
    ],
    "types": {
      "t_bool": {
        "encoding": "inplace",
        "label": "bool",
        "numberOfBytes": "1"
      },
      "t_contract(FuturesProtocolParameters)22605": {
        "encoding": "inplace",
        "label": "contract FuturesProtocolParameters",
        "numberOfBytes": "20"
      },
      "t_uint256": {
        "encoding": "inplace",
        "label": "uint256",
        "numberOfBytes": "32"
      }
    }
  }
}