{
  "address": "0x184a0C8f5AE6d8279eB5Bf55F2b74C45eCcf2845",
  "abi": [
    {
      "inputs": [
        {
          "internalType": "address",
          "name": "randomConsumerAddress_",
          "type": "address"
        },
        {
          "internalType": "address",
          "name": "validatorAddress_",
          "type": "address"
        }
      ],
      "stateMutability": "nonpayable",
      "type": "constructor"
    },
    {
      "anonymous": false,
      "inputs": [
        {
          "indexed": false,
          "internalType": "bytes32",
          "name": "requestId",
          "type": "bytes32"
        }
      ],
      "name": "BuybackPriceUpdateRequested",
      "type": "event"
    },
    {
      "anonymous": false,
      "inputs": [
        {
          "indexed": false,
          "internalType": "bytes32",
          "name": "requestId",
          "type": "bytes32"
        },
        {
          "indexed": false,
          "internalType": "uint256",
          "name": "price",
          "type": "uint256"
        }
      ],
      "name": "BuybackPriceUpdated",
      "type": "event"
    },
    {
      "anonymous": false,
      "inputs": [
        {
          "indexed": true,
          "internalType": "bytes32",
          "name": "requestId",
          "type": "bytes32"
        },
        {
          "indexed": true,
          "internalType": "address",
          "name": "player",
          "type": "address"
        },
        {
          "indexed": true,
          "internalType": "uint256",
          "name": "tokenId",
          "type": "uint256"
        },
        {
          "indexed": false,
          "internalType": "uint256",
          "name": "prediction",
          "type": "uint256"
        }
      ],
      "name": "CoinFlipped",
      "type": "event"
    },
    {
      "anonymous": false,
      "inputs": [
        {
          "indexed": true,
          "internalType": "bytes32",
          "name": "requestId",
          "type": "bytes32"
        },
        {
          "indexed": true,
          "internalType": "uint256",
          "name": "tokenId",
          "type": "uint256"
        },
        {
          "indexed": false,
          "internalType": "uint256",
          "name": "prediction",
          "type": "uint256"
        },
        {
          "indexed": false,
          "internalType": "uint256",
          "name": "randomResult",
          "type": "uint256"
        }
      ],
      "name": "FlipProcessed",
      "type": "event"
    },
    {
      "anonymous": false,
      "inputs": [
        {
          "indexed": true,
          "internalType": "bytes32",
          "name": "role",
          "type": "bytes32"
        },
        {
          "indexed": true,
          "internalType": "bytes32",
          "name": "previousAdminRole",
          "type": "bytes32"
        },
        {
          "indexed": true,
          "internalType": "bytes32",
          "name": "newAdminRole",
          "type": "bytes32"
        }
      ],
      "name": "RoleAdminChanged",
      "type": "event"
    },
    {
      "anonymous": false,
      "inputs": [
        {
          "indexed": true,
          "internalType": "bytes32",
          "name": "role",
          "type": "bytes32"
        },
        {
          "indexed": true,
          "internalType": "address",
          "name": "account",
          "type": "address"
        },
        {
          "indexed": true,
          "internalType": "address",
          "name": "sender",
          "type": "address"
        }
      ],
      "name": "RoleGranted",
      "type": "event"
    },
    {
      "anonymous": false,
      "inputs": [
        {
          "indexed": true,
          "internalType": "bytes32",
          "name": "role",
          "type": "bytes32"
        },
        {
          "indexed": true,
          "internalType": "address",
          "name": "account",
          "type": "address"
        },
        {
          "indexed": true,
          "internalType": "address",
          "name": "sender",
          "type": "address"
        }
      ],
      "name": "RoleRevoked",
      "type": "event"
    },
    {
      "anonymous": false,
      "inputs": [
        {
          "indexed": false,
          "internalType": "uint256",
          "name": "tokenID",
          "type": "uint256"
        },
        {
          "indexed": false,
          "internalType": "address",
          "name": "newOwner",
          "type": "address"
        }
      ],
      "name": "TokenReassigned",
      "type": "event"
    },
    {
      "anonymous": false,
      "inputs": [
        {
          "indexed": true,
          "internalType": "bytes32",
          "name": "requestId",
          "type": "bytes32"
        },
        {
          "indexed": false,
          "internalType": "address",
          "name": "from",
          "type": "address"
        },
        {
          "indexed": false,
          "internalType": "uint256",
          "name": "tokenId",
          "type": "uint256"
        }
      ],
      "name": "VerificationRequested",
      "type": "event"
    },
    {
      "anonymous": false,
      "inputs": [
        {
          "indexed": true,
          "internalType": "bytes32",
          "name": "requestId",
          "type": "bytes32"
        },
        {
          "indexed": false,
          "internalType": "address",
          "name": "originalCollection",
          "type": "address"
        },
        {
          "indexed": false,
          "internalType": "address",
          "name": "syntheticCollection",
          "type": "address"
        },
        {
          "indexed": false,
          "internalType": "uint256",
          "name": "tokenId",
          "type": "uint256"
        },
        {
          "indexed": false,
          "internalType": "bool",
          "name": "verified",
          "type": "bool"
        }
      ],
      "name": "VerifyResponseReceived",
      "type": "event"
    },
    {
      "inputs": [],
      "name": "AUCTION_MANAGER",
      "outputs": [
        {
          "internalType": "bytes32",
          "name": "",
          "type": "bytes32"
        }
      ],
      "stateMutability": "view",
      "type": "function"
    },
    {
      "inputs": [],
      "name": "AuctionsManagerAddress",
      "outputs": [
        {
          "internalType": "address",
          "name": "",
          "type": "address"
        }
      ],
      "stateMutability": "view",
      "type": "function"
    },
    {
      "inputs": [],
      "name": "DEFAULT_ADMIN_ROLE",
      "outputs": [
        {
          "internalType": "bytes32",
          "name": "",
          "type": "bytes32"
        }
      ],
      "stateMutability": "view",
      "type": "function"
    },
    {
      "inputs": [],
      "name": "RANDOM_ORACLE",
      "outputs": [
        {
          "internalType": "bytes32",
          "name": "",
          "type": "bytes32"
        }
      ],
      "stateMutability": "view",
      "type": "function"
    },
    {
      "inputs": [],
      "name": "ROUTER",
      "outputs": [
        {
          "internalType": "bytes32",
          "name": "",
          "type": "bytes32"
        }
      ],
      "stateMutability": "view",
      "type": "function"
    },
    {
      "inputs": [],
      "name": "VALIDATOR_ORACLE",
      "outputs": [
        {
          "internalType": "bytes32",
          "name": "",
          "type": "bytes32"
        }
      ],
      "stateMutability": "view",
      "type": "function"
    },
    {
      "inputs": [
        {
          "internalType": "uint256",
          "name": "tokenId_",
          "type": "uint256"
        },
        {
          "internalType": "uint256",
          "name": "amountToBuy_",
          "type": "uint256"
        }
      ],
      "name": "buyJotTokens",
      "outputs": [],
      "stateMutability": "nonpayable",
      "type": "function"
    },
    {
      "inputs": [
        {
          "internalType": "uint256",
          "name": "tokenId",
          "type": "uint256"
        }
      ],
      "name": "buyback",
      "outputs": [],
      "stateMutability": "nonpayable",
      "type": "function"
    },
    {
      "inputs": [],
      "name": "buybackPrice",
      "outputs": [
        {
          "internalType": "uint256",
          "name": "",
          "type": "uint256"
        }
      ],
      "stateMutability": "view",
      "type": "function"
    },
    {
      "inputs": [
        {
          "internalType": "uint256",
          "name": "tokenId",
          "type": "uint256"
        }
      ],
      "name": "buybackRequiredAmount",
      "outputs": [
        {
          "internalType": "uint256",
          "name": "buybackAmount",
          "type": "uint256"
        },
        {
          "internalType": "uint256",
          "name": "fundingLeft",
          "type": "uint256"
        },
        {
          "internalType": "uint256",
          "name": "jotsLeft",
          "type": "uint256"
        }
      ],
      "stateMutability": "view",
      "type": "function"
    },
    {
      "inputs": [
        {
          "internalType": "uint256",
          "name": "syntheticId",
          "type": "uint256"
        },
        {
          "internalType": "uint256",
          "name": "newOriginalId",
          "type": "uint256"
        },
        {
          "internalType": "string",
          "name": "metadata",
          "type": "string"
        },
        {
          "internalType": "address",
          "name": "caller",
          "type": "address"
        }
      ],
      "name": "change",
      "outputs": [],
      "stateMutability": "nonpayable",
      "type": "function"
    },
    {
      "inputs": [
        {
          "internalType": "uint256",
          "name": "",
          "type": "uint256"
        }
      ],
      "name": "changeNonces",
      "outputs": [
        {
          "internalType": "uint256",
          "name": "nonce",
          "type": "uint256"
        },
        {
          "internalType": "uint256",
          "name": "newTokenId",
          "type": "uint256"
        },
        {
          "internalType": "address",
          "name": "owner",
          "type": "address"
        }
      ],
      "stateMutability": "view",
      "type": "function"
    },
    {
      "inputs": [
        {
          "internalType": "uint256",
          "name": "tokenId_",
          "type": "uint256"
        },
        {
          "internalType": "uint256",
          "name": "amount_",
          "type": "uint256"
        }
      ],
      "name": "decreaseSellingSupply",
      "outputs": [],
      "stateMutability": "nonpayable",
      "type": "function"
    },
    {
      "inputs": [
        {
          "internalType": "uint256",
          "name": "tokenId_",
          "type": "uint256"
        },
        {
          "internalType": "uint256",
          "name": "amountToDeposit_",
          "type": "uint256"
        }
      ],
      "name": "depositJotTokens",
      "outputs": [],
      "stateMutability": "nonpayable",
      "type": "function"
    },
    {
      "inputs": [],
      "name": "erc721address",
      "outputs": [
        {
          "internalType": "address",
          "name": "",
          "type": "address"
        }
      ],
      "stateMutability": "view",
      "type": "function"
    },
    {
      "inputs": [
        {
          "internalType": "uint256",
          "name": "tokenId",
          "type": "uint256"
        },
        {
          "internalType": "uint256",
          "name": "amount",
          "type": "uint256"
        }
      ],
      "name": "exchangeOwnerJot",
      "outputs": [],
      "stateMutability": "nonpayable",
      "type": "function"
    },
    {
      "inputs": [
        {
          "internalType": "uint256",
          "name": "tokenId",
          "type": "uint256"
        },
        {
          "internalType": "uint64",
          "name": "prediction",
          "type": "uint64"
        }
      ],
      "name": "flipJot",
      "outputs": [],
      "stateMutability": "nonpayable",
      "type": "function"
    },
    {
      "inputs": [],
      "name": "fundingTokenAddress",
      "outputs": [
        {
          "internalType": "address",
          "name": "",
          "type": "address"
        }
      ],
      "stateMutability": "view",
      "type": "function"
    },
    {
      "inputs": [
        {
          "internalType": "uint256",
          "name": "tokenId",
          "type": "uint256"
        }
      ],
      "name": "getFundingLeftAndBuybackAmount",
      "outputs": [
        {
          "internalType": "uint256",
          "name": "jotsLeft",
          "type": "uint256"
        },
        {
          "internalType": "uint256",
          "name": "fundingLeft",
          "type": "uint256"
        },
        {
          "internalType": "uint256",
          "name": "buybackAmount",
          "type": "uint256"
        }
      ],
      "stateMutability": "view",
      "type": "function"
    },
    {
      "inputs": [
        {
          "internalType": "bytes32",
          "name": "role",
          "type": "bytes32"
        }
      ],
      "name": "getRoleAdmin",
      "outputs": [
        {
          "internalType": "bytes32",
          "name": "",
          "type": "bytes32"
        }
      ],
      "stateMutability": "view",
      "type": "function"
    },
    {
      "inputs": [
        {
          "internalType": "uint256",
          "name": "tokenId",
          "type": "uint256"
        },
        {
          "internalType": "uint256",
          "name": "buyAmount",
          "type": "uint256"
        }
      ],
      "name": "getSalePrice",
      "outputs": [
        {
          "internalType": "uint256",
          "name": "",
          "type": "uint256"
        }
      ],
      "stateMutability": "view",
      "type": "function"
    },
    {
      "inputs": [
        {
          "internalType": "bytes32",
          "name": "role",
          "type": "bytes32"
        },
        {
          "internalType": "address",
          "name": "account",
          "type": "address"
        }
      ],
      "name": "grantRole",
      "outputs": [],
      "stateMutability": "nonpayable",
      "type": "function"
    },
    {
      "inputs": [
        {
          "internalType": "bytes32",
          "name": "role",
          "type": "bytes32"
        },
        {
          "internalType": "address",
          "name": "account",
          "type": "address"
        }
      ],
      "name": "hasRole",
      "outputs": [
        {
          "internalType": "bool",
          "name": "",
          "type": "bool"
        }
      ],
      "stateMutability": "view",
      "type": "function"
    },
    {
      "inputs": [
        {
          "internalType": "uint256",
          "name": "tokenId_",
          "type": "uint256"
        },
        {
          "internalType": "uint256",
          "name": "amount_",
          "type": "uint256"
        }
      ],
      "name": "increaseSellingSupply",
      "outputs": [],
      "stateMutability": "nonpayable",
      "type": "function"
    },
    {
      "inputs": [
        {
          "internalType": "address",
          "name": "jotAddress_",
          "type": "address"
        },
        {
          "internalType": "address",
          "name": "originalCollectionAddress_",
          "type": "address"
        },
        {
          "internalType": "address",
          "name": "erc721address_",
          "type": "address"
        },
        {
          "internalType": "address",
          "name": "auctionManagerAddress_",
          "type": "address"
        },
        {
          "internalType": "address",
          "name": "protocol_",
          "type": "address"
        },
        {
          "internalType": "address",
          "name": "jotPool_",
          "type": "address"
        },
        {
          "internalType": "address",
          "name": "redemptionPool_",
          "type": "address"
        },
        {
          "internalType": "address",
          "name": "swapAddress_",
          "type": "address"
        }
      ],
      "name": "initialize",
      "outputs": [],
      "stateMutability": "nonpayable",
      "type": "function"
    },
    {
      "inputs": [
        {
          "internalType": "uint256",
          "name": "tokenId",
          "type": "uint256"
        }
      ],
      "name": "isAllowedToFlip",
      "outputs": [
        {
          "internalType": "bool",
          "name": "",
          "type": "bool"
        }
      ],
      "stateMutability": "view",
      "type": "function"
    },
    {
      "inputs": [
        {
          "internalType": "uint256",
          "name": "tokenId",
          "type": "uint256"
        },
        {
          "internalType": "address",
          "name": "caller",
          "type": "address"
        }
      ],
      "name": "isOwner",
      "outputs": [
        {
          "internalType": "bool",
          "name": "",
          "type": "bool"
        }
      ],
      "stateMutability": "view",
      "type": "function"
    },
    {
      "inputs": [
        {
          "internalType": "uint256",
          "name": "tokenId",
          "type": "uint256"
        }
      ],
      "name": "isSyntheticNFTCreated",
      "outputs": [
        {
          "internalType": "bool",
          "name": "",
          "type": "bool"
        }
      ],
      "stateMutability": "view",
      "type": "function"
    },
    {
      "inputs": [
        {
          "internalType": "uint256",
          "name": "tokenId",
          "type": "uint256"
        }
      ],
      "name": "isSyntheticNFTFractionalised",
      "outputs": [
        {
          "internalType": "bool",
          "name": "",
          "type": "bool"
        }
      ],
      "stateMutability": "view",
      "type": "function"
    },
    {
      "inputs": [],
      "name": "jotAddress",
      "outputs": [
        {
          "internalType": "address",
          "name": "",
          "type": "address"
        }
      ],
      "stateMutability": "view",
      "type": "function"
    },
    {
      "inputs": [],
      "name": "jotPool",
      "outputs": [
        {
          "internalType": "address",
          "name": "",
          "type": "address"
        }
      ],
      "stateMutability": "view",
      "type": "function"
    },
    {
      "inputs": [
        {
          "internalType": "uint256",
          "name": "tokenId",
          "type": "uint256"
        }
      ],
      "name": "lockedNFT",
      "outputs": [
        {
          "internalType": "bool",
          "name": "",
          "type": "bool"
        }
      ],
      "stateMutability": "view",
      "type": "function"
    },
    {
      "inputs": [
        {
          "internalType": "uint256",
          "name": "",
          "type": "uint256"
        }
      ],
      "name": "nonces",
      "outputs": [
        {
          "internalType": "uint256",
          "name": "",
          "type": "uint256"
        }
      ],
      "stateMutability": "view",
      "type": "function"
    },
    {
      "inputs": [],
      "name": "originalCollectionAddress",
      "outputs": [
        {
          "internalType": "address",
          "name": "",
          "type": "address"
        }
      ],
      "stateMutability": "view",
      "type": "function"
    },
    {
      "inputs": [
        {
          "internalType": "uint256",
          "name": "",
          "type": "uint256"
        },
        {
          "internalType": "uint256",
          "name": "",
          "type": "uint256"
        }
      ],
      "name": "ownersByNonce",
      "outputs": [
        {
          "internalType": "address",
          "name": "",
          "type": "address"
        }
      ],
      "stateMutability": "view",
      "type": "function"
    },
    {
      "inputs": [],
      "name": "poolAddress",
      "outputs": [
        {
          "internalType": "address",
          "name": "",
          "type": "address"
        }
      ],
      "stateMutability": "view",
      "type": "function"
    },
    {
      "inputs": [
        {
          "internalType": "bytes32",
          "name": "requestId_",
          "type": "bytes32"
        },
        {
          "internalType": "uint256",
          "name": "buybackPrice_",
          "type": "uint256"
        }
      ],
      "name": "processBuybackPriceResponse",
      "outputs": [],
      "stateMutability": "nonpayable",
      "type": "function"
    },
    {
      "inputs": [
        {
          "internalType": "uint256",
          "name": "randomNumber",
          "type": "uint256"
        },
        {
          "internalType": "bytes32",
          "name": "requestId",
          "type": "bytes32"
        }
      ],
      "name": "processFlipResult",
      "outputs": [],
      "stateMutability": "nonpayable",
      "type": "function"
    },
    {
      "inputs": [
        {
          "internalType": "bytes32",
          "name": "requestId",
          "type": "bytes32"
        },
        {
          "components": [
            {
              "internalType": "address",
              "name": "originalCollection",
              "type": "address"
            },
            {
              "internalType": "address",
              "name": "syntheticCollection",
              "type": "address"
            },
            {
              "internalType": "uint256",
              "name": "tokenId",
              "type": "uint256"
            },
            {
              "internalType": "enum State",
              "name": "previousState",
              "type": "uint8"
            }
          ],
          "internalType": "struct VerifyRequest",
          "name": "requestData",
          "type": "tuple"
        },
        {
          "internalType": "bool",
          "name": "verified",
          "type": "bool"
        }
      ],
      "name": "processVerifyResponse",
      "outputs": [],
      "stateMutability": "nonpayable",
      "type": "function"
    },
    {
      "inputs": [],
      "name": "protocol",
      "outputs": [
        {
          "internalType": "address",
          "name": "",
          "type": "address"
        }
      ],
      "stateMutability": "view",
      "type": "function"
    },
    {
      "inputs": [
        {
          "internalType": "uint256",
          "name": "nftId_",
          "type": "uint256"
        },
        {
          "internalType": "address",
          "name": "newOwner_",
          "type": "address"
        }
      ],
      "name": "reassignNFT",
      "outputs": [],
      "stateMutability": "nonpayable",
      "type": "function"
    },
    {
      "inputs": [
        {
          "internalType": "uint256",
          "name": "tokenId",
          "type": "uint256"
        }
      ],
      "name": "recoverToken",
      "outputs": [],
      "stateMutability": "nonpayable",
      "type": "function"
    },
    {
      "inputs": [],
      "name": "redemptionPool",
      "outputs": [
        {
          "internalType": "address",
          "name": "",
          "type": "address"
        }
      ],
      "stateMutability": "view",
      "type": "function"
    },
    {
      "inputs": [
        {
          "internalType": "uint256",
          "name": "tokenId_",
          "type": "uint256"
        },
        {
          "internalType": "uint256",
          "name": "supplyToKeep_",
          "type": "uint256"
        },
        {
          "internalType": "uint256",
          "name": "priceFraction_",
          "type": "uint256"
        },
        {
          "internalType": "address",
          "name": "nftOwner_",
          "type": "address"
        },
        {
          "internalType": "string",
          "name": "metadata_",
          "type": "string"
        }
      ],
      "name": "register",
      "outputs": [
        {
          "internalType": "uint256",
          "name": "syntheticId",
          "type": "uint256"
        }
      ],
      "stateMutability": "nonpayable",
      "type": "function"
    },
    {
      "inputs": [
        {
          "internalType": "bytes32",
          "name": "role",
          "type": "bytes32"
        },
        {
          "internalType": "address",
          "name": "account",
          "type": "address"
        }
      ],
      "name": "renounceRole",
      "outputs": [],
      "stateMutability": "nonpayable",
      "type": "function"
    },
    {
      "inputs": [
        {
          "internalType": "bytes32",
          "name": "role",
          "type": "bytes32"
        },
        {
          "internalType": "address",
          "name": "account",
          "type": "address"
        }
      ],
      "name": "revokeRole",
      "outputs": [],
      "stateMutability": "nonpayable",
      "type": "function"
    },
    {
      "inputs": [
        {
          "internalType": "uint256",
          "name": "tokenId",
          "type": "uint256"
        },
        {
          "internalType": "bool",
          "name": "value",
          "type": "bool"
        }
      ],
      "name": "setFlip",
      "outputs": [],
      "stateMutability": "nonpayable",
      "type": "function"
    },
    {
      "inputs": [
        {
          "internalType": "uint256",
          "name": "tokenId",
          "type": "uint256"
        },
        {
          "internalType": "string",
          "name": "metadata",
          "type": "string"
        }
      ],
      "name": "setMetadata",
      "outputs": [],
      "stateMutability": "nonpayable",
      "type": "function"
    },
    {
      "inputs": [
        {
          "internalType": "bytes4",
          "name": "interfaceId",
          "type": "bytes4"
        }
      ],
      "name": "supportsInterface",
      "outputs": [
        {
          "internalType": "bool",
          "name": "",
          "type": "bool"
        }
      ],
      "stateMutability": "view",
      "type": "function"
    },
    {
      "inputs": [],
      "name": "syntheticProtocolRouterAddress",
      "outputs": [
        {
          "internalType": "address",
          "name": "",
          "type": "address"
        }
      ],
      "stateMutability": "view",
      "type": "function"
    },
    {
      "inputs": [
        {
          "internalType": "uint256",
          "name": "",
          "type": "uint256"
        }
      ],
      "name": "tokens",
      "outputs": [
        {
          "internalType": "uint256",
          "name": "originalTokenID",
          "type": "uint256"
        },
        {
          "internalType": "uint256",
          "name": "ownerSupply",
          "type": "uint256"
        },
        {
          "internalType": "uint256",
          "name": "sellingSupply",
          "type": "uint256"
        },
        {
          "internalType": "uint256",
          "name": "soldSupply",
          "type": "uint256"
        },
        {
          "internalType": "uint256",
          "name": "liquiditySold",
          "type": "uint256"
        },
        {
          "internalType": "uint256",
          "name": "fractionPrices",
          "type": "uint256"
        },
        {
          "internalType": "uint256",
          "name": "lastFlipTime",
          "type": "uint256"
        },
        {
          "internalType": "enum State",
          "name": "state",
          "type": "uint8"
        }
      ],
      "stateMutability": "view",
      "type": "function"
    },
    {
      "inputs": [],
      "name": "updateBuybackPrice",
      "outputs": [
        {
          "internalType": "bytes32",
          "name": "requestId",
          "type": "bytes32"
        }
      ],
      "stateMutability": "nonpayable",
      "type": "function"
    },
    {
      "inputs": [
        {
          "internalType": "uint256",
          "name": "tokenId_",
          "type": "uint256"
        },
        {
          "internalType": "uint256",
          "name": "newFractionPrice_",
          "type": "uint256"
        }
      ],
      "name": "updatePriceFraction",
      "outputs": [],
      "stateMutability": "nonpayable",
      "type": "function"
    },
    {
      "inputs": [
        {
          "internalType": "uint256",
          "name": "tokenId",
          "type": "uint256"
        }
      ],
      "name": "verify",
      "outputs": [],
      "stateMutability": "nonpayable",
      "type": "function"
    },
    {
      "inputs": [
        {
          "internalType": "uint256",
          "name": "tokenId",
          "type": "uint256"
        },
        {
          "internalType": "uint256",
          "name": "amount",
          "type": "uint256"
        }
      ],
      "name": "withdrawFundingTokens",
      "outputs": [],
      "stateMutability": "nonpayable",
      "type": "function"
    },
    {
      "inputs": [
        {
          "internalType": "uint256",
          "name": "tokenId_",
          "type": "uint256"
        },
        {
          "internalType": "uint256",
          "name": "amountToWithdraw_",
          "type": "uint256"
        }
      ],
      "name": "withdrawJotTokens",
      "outputs": [],
      "stateMutability": "nonpayable",
      "type": "function"
    }
  ],
  "transactionHash": "0xe3992f3882ac4b08ec3256f04c0cd60d64c234d544abf6c58b2181f223922339",
  "args": [
    "0x9E88541E93ad3098ca794c6AB29Dc82DE797293F",
    "0xe8AaC1e4c0Db8b1600DbEfEf940da4F1Ca2669f5"
  ],
  "solcInputHash": "c52e01a340bf853cde1f5923e7ceb686",
  "bytecode": "0x60c06040523480156200001157600080fd5b5060405162004cbd38038062004cbd83398101604081905262000034916200012c565b600154610100900460ff16806200004e575060015460ff16155b620000b65760405162461bcd60e51b815260206004820152602e60248201527f496e697469616c697a61626c653a20636f6e747261637420697320616c72656160448201526d191e481a5b9a5d1a585b1a5e995960921b606482015260840160405180910390fd5b600154610100900460ff16158015620000d9576001805461ffff19166101011790555b6001600160601b0319606084811b821660805283901b1660a052801562000106576001805461ff00191690555b50505062000163565b80516001600160a01b03811681146200012757600080fd5b919050565b600080604083850312156200013f578182fd5b6200014a836200010f565b91506200015a602084016200010f565b90509250929050565b60805160601c60a05160601c614b2762000196600039600081816115ce01526128880152600061144a0152614b276000f3fe608060405234801561001057600080fd5b50600436106103785760003560e01c80636e26115c116101d357806391d1485411610104578063cb1a233d116100a2578063e445a5021161007c578063e445a50214610894578063ecf70d37146108a7578063ee2af58d146108c9578063f0b38250146108dc57600080fd5b8063cb1a233d1461084c578063cd87eb521461085f578063d547741f1461088157600080fd5b8063a217fddf116100de578063a217fddf146107f7578063ab8f2b1b146107ff578063abacac2514610812578063b1da4db71461083957600080fd5b806391d14854146107c85780639c76a6ac146107db578063a03bf2b3146107e457600080fd5b8063886747cd116101715780638aab42741161014b5780638aab42741461077c5780638c7a66611461078f5780638ce74426146107a2578063900035b3146107b557600080fd5b8063886747cd1461074357806389736a90146107565780638a29e2de1461076957600080fd5b80637c4950c7116101ad5780637c4950c7146106ae5780637e0aa10c146106c157806383a131001461071d5780638753367f1461073057600080fd5b80636e26115c1461067557806373233ea61461068857806379a9fa1c1461069b57600080fd5b806339fb284e116102ad578063578410141161024b5780635a5d096c116102255780635a5d096c146106295780635c9207361461063c5780635ea172d01461064f5780636332fb8b1461066257600080fd5b806357841014146105c157806358e8bcb7146105ef578063593aa2831461061657600080fd5b80634c4e03f9116102875780634c4e03f9146105205780634c538fde146105335780634d81bea1146105465780634f64b2be1461055957600080fd5b806339fb284e146104d35780634bc4d599146104fa5780634c4b206b1461050d57600080fd5b80631c06b6ba1161031a5780632f2ff15d116102f45780632f2ff15d1461049057806330218c30146104a357806332fe7b26146104ab57806336568abe146104c057600080fd5b80631c06b6ba14610447578063248a9ca31461045a57806326964e511461047d57600080fd5b80630f1203d0116103565780630f1203d0146103cd578063141a468c146103f85780631755ff21146104265780631bfc23571461042e57600080fd5b806301ffc9a71461037d57806302d79652146103a5578063072ac5f3146103ba575b600080fd5b61039061038b366004614527565b610910565b60405190151581526020015b60405180910390f35b6103b86103b336600461442d565b610921565b005b6103b86103c8366004614506565b610cfe565b6002546103e0906001600160a01b031681565b6040516001600160a01b03909116815260200161039c565b6104186104063660046143fd565b600e6020526000908152604090205481565b60405190815260200161039c565b6103e061114c565b6001546103e0906201000090046001600160a01b031681565b6103b8610455366004614506565b6111ce565b6104186104683660046143fd565b60009081526020819052604090206001015490565b6103b861048b3660046146f3565b6113b4565b6103b861049e36600461442d565b611583565b6104186115a9565b610418600080516020614ad283398151915281565b6103b86104ce36600461442d565b611688565b6104187fc55a74c743a5d6aff6a82963adf054e2367242c4a636870f26b8ee90910968d081565b6009546103e0906001600160a01b031681565b6011546103e0906001600160a01b031681565b6103b861052e366004614506565b611706565b600a546103e0906001600160a01b031681565b6103b86105543660046145c1565b611974565b6105ad6105673660046143fd565b600d602052600090815260409020805460018201546002830154600384015460048501546005860154600687015460079097015495969495939492939192909160ff1688565b60405161039c989796959493929190614919565b6105d46105cf3660046143fd565b6119ea565b6040805193845260208401929092529082015260600161039c565b6104187fe87beaa2684453d25a1f0e3e7002e109b34fc4f132f115c9a7707901e792751381565b6103b86106243660046145e5565b611a2a565b61039061063736600461442d565b611c8a565b6103b861064a366004614506565b611d1d565b61041861065d366004614689565b611f5d565b6103b861067036600461445c565b6121fa565b6103b8610683366004614629565b61235e565b6103906106963660046143fd565b6125e1565b6103b86106a93660046143fd565b61262e565b6013546103e0906001600160a01b031681565b6106f96106cf3660046143fd565b600f602052600090815260409020805460018201546002909201549091906001600160a01b031683565b6040805193845260208401929092526001600160a01b03169082015260600161039c565b6008546103e0906001600160a01b031681565b6103b861073e3660046143fd565b6126ec565b6103b8610751366004614506565b612948565b6103b8610764366004614506565b612a9b565b6103b8610777366004614292565b612bbc565b61041861078a366004614506565b612de9565b6103b861079d366004614506565b612e0f565b6007546103e0906001600160a01b031681565b6105d46107c33660046143fd565b612e81565b6103906107d636600461442d565b612f4a565b610418600b5481565b6103b86107f2366004614506565b612f73565b610418600081565b6103b861080d366004614506565b6130e3565b6104187f747c8a75243ae2ca1d188aaaeab610daf9d97e45b6513baed451ebf0b9ec74fd81565b6012546103e0906001600160a01b031681565b6103b861085a3660046143fd565b6131d4565b61039061086d3660046143fd565b6000908152600d6020526040902054151590565b6103b861088f36600461442d565b613367565b6103906108a23660046143fd565b61338d565b6103906108b53660046143fd565b600090815260056020526040902054151590565b6103b86108d7366004614506565b6135f9565b6103e06108ea366004614506565b60106020908152600092835260408084209091529082529020546001600160a01b031681565b600061091b826137bd565b92915050565b7fc55a74c743a5d6aff6a82963adf054e2367242c4a636870f26b8ee90910968d061094c81336137f2565b60115460405163c87b56dd60e01b8152600481018590526000916001600160a01b03169063c87b56dd9060240160006040518083038186803b15801561099157600080fd5b505afa1580156109a5573d6000803e3d6000fd5b505050506040513d6000823e601f3d908101601f191682016040526109cd919081019061454f565b6000858152600d6020526040908190208054601154925163dbf5132560e01b815260048101899052939450909290916001600160a01b03169063dbf5132590602401600060405180830381600087803b158015610a2957600080fd5b505af1158015610a3d573d6000803e3d6000fd5b5050601154604051636902622f60e11b8152600093506001600160a01b03909116915063d204c45e90610a769089908890600401614803565b602060405180830381600087803b158015610a9057600080fd5b505af1158015610aa4573d6000803e3d6000fd5b505050506040513d601f19601f82011682018060405250810190610ac89190614415565b60008381526005602090815260408083208490558051610100810182528381529182018390528101829052606081018290526080810182905260a0810182905260c0810182905291925060e0820190815250600d6000898152602001908152602001600020600082015181600001556020820151816001015560408201518160020155606082015181600301556080820151816004015560a0820151816005015560c0820151816006015560e08201518160070160006101000a81548160ff02191690836003811115610bab57634e487b7160e01b600052602160045260246000fd5b021790555090505060405180610100016040528083815260200169021e19e0c9bab24000008152602001600081526020016000815260200160008152602001600081526020016000815260200160026003811115610c1957634e487b7160e01b600052602160045260246000fd5b815250600d6000838152602001908152602001600020600082015181600001556020820151816001015560408201518160020155606082015181600301556080820151816004015560a0820151816005015560c0820151816006015560e08201518160070160006101000a81548160ff02191690836003811115610cad57634e487b7160e01b600052602160045260246000fd5b021790555050604080518381526001600160a01b03891660208201527fae0df3ed3f99b751fb0a740538790a748856958d5737ad5ae138454ed7e053e492500160405180910390a150505050505050565b7fe87beaa2684453d25a1f0e3e7002e109b34fc4f132f115c9a7707901e7927513610d2981336137f2565b600080600760009054906101000a90046001600160a01b03166001600160a01b031663b94d25ce6040518163ffffffff1660e01b815260040160206040518083038186803b158015610d7a57600080fd5b505afa158015610d8e573d6000803e3d6000fd5b505050506040513d601f19601f82011682018060405250810190610db29190614415565b90506000600760009054906101000a90046001600160a01b03166001600160a01b0316631861779d6040518163ffffffff1660e01b815260040160206040518083038186803b158015610e0457600080fd5b505afa158015610e18573d6000803e3d6000fd5b505050506040513d601f19601f82011682018060405250810190610e3c9190614415565b6000868152600460209081526040808320815160608101835281548082526001928301546001600160401b03811683870152600160401b90046001600160a01b0316828501528552600d9093529220918201549293509180851115610e9f578094505b84841115610eab578493505b88610f4d5784826001016000828254610ec49190614a28565b909155505060208301516001600160401b03168914610ee557849550610f25565b610eef8486614a28565b600089815260046020526040902060010154600954919750610f25916001600160a01b0390811691600160401b90041686613856565b8515610f4857601254600954610f48916001600160a01b03918216911688613856565b611085565b82602001516001600160401b03168914610f6957849550610ffb565b610f738486614a28565b60095460125460008b8152600460208190526040918290206001015491516311c9479960e21b8152949a506001600160a01b03938416946347251e6494610fc894811693600160401b900416918a91016147df565b600060405180830381600087803b158015610fe257600080fd5b505af1158015610ff6573d6000803e3d6000fd5b505050505b8515611085578582600101600082825461101591906149d1565b90915550506009546012546040516311c9479960e21b81526001600160a01b03928316926347251e64926110529291169030908b906004016147df565b600060405180830381600087803b15801561106c57600080fd5b505af1158015611080573d6000803e3d6000fd5b505050505b60018201546110f55760015483516040516316bfb45760e11b81526004810191909152620100009091046001600160a01b031690632d7f68ae90602401600060405180830381600087803b1580156110dc57600080fd5b505af11580156110f0573d6000803e3d6000fd5b505050505b8251602080850151604080516001600160401b0390921682529181018c90528a917f10c2415cd62b00f83e15c907a08b12444e71bcc1645322f97a631df735fe49e3910160405180910390a3505050505050505050565b600954604080516324dead2f60e11b815290516000926001600160a01b0316916349bd5a5e916004808301926020929190829003018186803b15801561119157600080fd5b505afa1580156111a5573d6000803e3d6000fd5b505050506040513d601f19601f820116820180604052508101906111c99190614276565b905090565b6000828152600d602052604090206111e5836125e1565b1561120b5760405162461bcd60e51b815260040161120290614866565b60405180910390fd5b6112158333611c8a565b61125b5760405162461bcd60e51b81526020600482015260176024820152764f6e6c79206f776e65722063616e20776974686472617760481b6044820152606401611202565b80600101548211156112a45760405162461bcd60e51b81526020600482015260126024820152714e6f7420656e6f7567682062616c616e636560701b6044820152606401611202565b818160010160008282546112b89190614a28565b909155505060095460405163a9059cbb60e01b8152336004820152602481018490526001600160a01b039091169063a9059cbb90604401602060405180830381600087803b15801561130957600080fd5b505af115801561131d573d6000803e3d6000fd5b505050506040513d601f19601f8201168201806040525081019061134191906143e1565b5060018101546113af576001546040516316bfb45760e11b815260048101859052620100009091046001600160a01b031690632d7f68ae90602401600060405180830381600087803b15801561139657600080fd5b505af11580156113aa573d6000803e3d6000fd5b505050505b505050565b6000828152600d602052604090206113cb8361338d565b6114175760405162461bcd60e51b815260206004820152601760248201527f466c6970206973206e6f7420616c6c6f776564207965740000000000000000006044820152606401611202565b611420836125e1565b1561143d5760405162461bcd60e51b815260040161120290614866565b42816006018190555060007f00000000000000000000000000000000000000000000000000000000000000006001600160a01b031663dbdff2c16040518163ffffffff1660e01b8152600401602060405180830381600087803b1580156114a357600080fd5b505af11580156114b7573d6000803e3d6000fd5b505050506040513d601f19601f820116820180604052508101906114db9190614415565b604080516060810182528681526001600160401b038681166020808401828152338587018181526000898152600485528890209651875591516001909601805492516001600160a01b0316600160401b026001600160e01b031990931696909516959095171790925592519283529293508692909184917ff3430182a8f4149cb1910574795295555b8119134718716b9f3e5024189a64a5910160405180910390a450505050565b60008281526020819052604090206001015461159f81336137f2565b6113af83836138b9565b600854604051630502c73b60e41b81526001600160a01b0391821660048201526000917f0000000000000000000000000000000000000000000000000000000000000000169063502c73b090602401602060405180830381600087803b15801561161257600080fd5b505af1158015611626573d6000803e3d6000fd5b505050506040513d601f19601f8201168201806040525081019061164a9190614415565b90507fbe2b5ab4e879a268995b8af0c68a310c39e8c1573b4c283ef80e3c64125499b98160405161167d91815260200190565b60405180910390a190565b6001600160a01b03811633146116f85760405162461bcd60e51b815260206004820152602f60248201527f416363657373436f6e74726f6c3a2063616e206f6e6c792072656e6f756e636560448201526e103937b632b9903337b91039b2b63360891b6064820152608401611202565b611702828261393d565b5050565b6000828152600d6020526040908190206011549151634f558e7960e01b81526004810185905290916001600160a01b031690634f558e799060240160206040518083038186803b15801561175957600080fd5b505afa15801561176d573d6000803e3d6000fd5b505050506040513d601f19601f8201168201806040525081019061179191906143e1565b6117d45760405162461bcd60e51b8152602060048201526014602482015273151bdad95b881b9bdd081c9959da5cdd195c995960621b6044820152606401611202565b60405163d52cb9cb60e01b81526004810182905260248101839052600090737Ad9c9dD4B6aB6a07F7Eb4d76ca94440c433842F9063d52cb9cb9060440160206040518083038186803b15801561182957600080fd5b505af415801561183d573d6000803e3d6000fd5b505050506040513d601f19601f820116820180604052508101906118619190614415565b600a546040516323b872dd60e01b81529192506001600160a01b0316906323b872dd90611896903390309086906004016147df565b602060405180830381600087803b1580156118b057600080fd5b505af11580156118c4573d6000803e3d6000fd5b505050506040513d601f19601f820116820180604052508101906118e891906143e1565b5060095460405163a9059cbb60e01b8152336004820152602481018590526001600160a01b039091169063a9059cbb90604401602060405180830381600087803b15801561193557600080fd5b505af1158015611949573d6000803e3d6000fd5b505050506040513d601f19601f8201168201806040525081019061196d91906143e1565b5050505050565b61197e8233611c8a565b6119ca5760405162461bcd60e51b815260206004820152601a60248201527f4f6e6c79206f776e65722063616e206368616e676520666c69700000000000006044820152606401611202565b600091825260066020526040909120805460ff1916911515919091179055565b60008060006119f8846125e1565b15611a155760405162461bcd60e51b815260040161120290614866565b611a1e84612e81565b96909550909350915050565b6000828152600d602052604090206002600782015460ff166003811115611a6157634e487b7160e01b600052602160045260246000fd5b1415611aba5760405162461bcd60e51b815260206004820152602260248201527f43616e2774206368616e6765206d657461646174612061667465722076657269604482015261667960f01b6064820152608401611202565b6001600782015460ff166003811115611ae357634e487b7160e01b600052602160045260246000fd5b1415611b3f5760405162461bcd60e51b815260206004820152602560248201527f43616e2774206368616e6765206d65746164617461207768696c6520766572696044820152646679696e6760d81b6064820152608401611202565b6011546040516331a9108f60e11b8152600481018590526000916001600160a01b031690636352211e9060240160206040518083038186803b158015611b8457600080fd5b505afa158015611b98573d6000803e3d6000fd5b505050506040513d601f19601f82011682018060405250810190611bbc9190614276565b9050336001600160a01b03821614611c205760405162461bcd60e51b815260206004820152602160248201527f596f7520617265206e6f7420746865206f776e6572206f6620746865204e46546044820152602160f81b6064820152608401611202565b60115460405163593aa28360e01b81526001600160a01b039091169063593aa28390611c529087908790600401614900565b600060405180830381600087803b158015611c6c57600080fd5b505af1158015611c80573d6000803e3d6000fd5b5050505050505050565b6011546040516331a9108f60e11b8152600481018490526000916001600160a01b0384811692911690636352211e9060240160206040518083038186803b158015611cd457600080fd5b505afa158015611ce8573d6000803e3d6000fd5b505050506040513d601f19601f82011682018060405250810190611d0c9190614276565b6001600160a01b0316149392505050565b6000828152600d6020526040902060010154811115611d7e5760405162461bcd60e51b815260206004820152601f60248201527f45786368616e676520616d6f756e7420657863656564732062616c616e6365006044820152606401611202565b6003546040805160028082526060820183526001600160a01b0390931692600092602083019080368337505060095482519293506001600160a01b031691839150600090611ddc57634e487b7160e01b600052603260045260246000fd5b6001600160a01b039283166020918202929092010152600a54825191169082906001908110611e1b57634e487b7160e01b600052603260045260246000fd5b6001600160a01b039092166020928302919091018201526000858152600d909152604081206001018054859290611e53908490614a28565b90915550506000848152600d6020526040902060010154611ed2576001546040516316bfb45760e11b815260048101869052620100009091046001600160a01b031690632d7f68ae90602401600060405180830381600087803b158015611eb957600080fd5b505af1158015611ecd573d6000803e3d6000fd5b505050505b6040516338ed173960e01b81526001600160a01b038316906338ed173990611f07908690600090869033904290600401614890565b600060405180830381600087803b158015611f2157600080fd5b505af1158015611f35573d6000803e3d6000fd5b505050506040513d6000823e601f3d908101601f1916820160405261196d919081019061433a565b6000600080516020614ad2833981519152611f7881336137f2565b60008781526005602052604090205415611fd45760405162461bcd60e51b815260206004820181905260248201527f53796e746865746963204e465420616c72656164792067656e657261746564216044820152606401611202565b601154604051636902622f60e11b81526001600160a01b039091169063d204c45e906120069087908790600401614803565b602060405180830381600087803b15801561202057600080fd5b505af1158015612034573d6000803e3d6000fd5b505050506040513d601f19601f820116820180604052508101906120589190614415565b915060006120708769021e19e0c9bab2400000614a28565b905060006040518061010001604052808a8152602001898152602001838152602001600081526020016000815260200188815260200160008152602001600060038111156120ce57634e487b7160e01b600052602160045260246000fd5b815250905080600d6000868152602001908152602001600020600082015181600001556020820151816001015560408201518160020155606082015181600301556080820151816004015560a0820151816005015560c0820151816006015560e08201518160070160006101000a81548160ff0219169083600381111561216557634e487b7160e01b600052602160045260246000fd5b02179055505050876121d5576001546040516316bfb45760e11b815260048101869052620100009091046001600160a01b031690632d7f68ae90602401600060405180830381600087803b1580156121bc57600080fd5b505af11580156121d0573d6000803e3d6000fd5b505050505b5050506000818152600660205260409020805460ff1916600117905595945050505050565b7f747c8a75243ae2ca1d188aaaeab610daf9d97e45b6513baed451ebf0b9ec74fd61222581336137f2565b6040808401516000908152600d6020522082156122bd5760078101805460ff191660021790556009546040516340c10f1960e01b815230600482015269021e19e0c9bab240000060248201526001600160a01b03909116906340c10f1990604401600060405180830381600087803b1580156122a057600080fd5b505af11580156122b4573d6000803e3d6000fd5b505050506122f4565b606084015160078201805460ff191660018360038111156122ee57634e487b7160e01b600052602160045260246000fd5b02179055505b835160208086015160408088015181516001600160a01b039586168152949092169284019290925290820152831515606082015285907fcf5cb568c779c24ae423fed9236ba737105872c7e0b13ebb2fd578233747825a9060800160405180910390a25050505050565b600080516020614ad283398151915261237781336137f2565b6000858152600d6020526040902060018101546123c95760405162461bcd60e51b815260206004820152601060248201526f10d85b89dd0818994818da185b99d95960821b6044820152606401611202565b6002600782015460ff1660038111156123f257634e487b7160e01b600052602160045260246000fd5b146124345760405162461bcd60e51b8152602060048201526012602482015271151bdad95b881b9bdd081d995c9a599a595960721b6044820152606401611202565b6011546040516331a9108f60e11b8152600481018890526001600160a01b03858116921690636352211e9060240160206040518083038186803b15801561247a57600080fd5b505afa15801561248e573d6000803e3d6000fd5b505050506040513d601f19601f820116820180604052508101906124b29190614276565b6001600160a01b0316146124f95760405162461bcd60e51b815260206004820152600e60248201526d14da1bdd5b19081bdddb8813919560921b6044820152606401611202565b80546000908152600f602052604081208054909160019183919061251e9084906149d1565b9091555050600181018690556002810180546001600160a01b038681166001600160a01b03199092169190911790915560078301805460ff19166003179055825460009081526005602052604080822082905588855588825290819020899055601154905163593aa28360e01b815291169063593aa283906125a6908a908990600401614900565b600060405180830381600087803b1580156125c057600080fd5b505af11580156125d4573d6000803e3d6000fd5b5050505050505050505050565b6000818152600d602052604081206002600782015460ff16600381111561261857634e487b7160e01b600052602160045260246000fd5b14158061262757506001810154155b9392505050565b600c5461263d9061012c6149d1565b421061268b5760405162461bcd60e51b815260206004820152601d60248201527f4275796261636b207072696365207570646174652072657175697265640000006044820152606401611202565b6126958133611c8a565b6126b15760405162461bcd60e51b81526004016112029061483a565b6126ba816125e1565b156126d75760405162461bcd60e51b815260040161120290614866565b6126e0816139a2565b6126e981613d43565b50565b6000818152600d6020526040908190206011549151634f558e7960e01b81526004810184905290916001600160a01b031690634f558e799060240160206040518083038186803b15801561273f57600080fd5b505afa158015612753573d6000803e3d6000fd5b505050506040513d601f19601f8201168201806040525081019061277791906143e1565b6127ba5760405162461bcd60e51b8152602060048201526014602482015273151bdad95b881b9bdd081c9959da5cdd195c995960621b6044820152606401611202565b6002600782015460ff1660038111156127e357634e487b7160e01b600052602160045260246000fd5b141561282a5760405162461bcd60e51b8152602060048201526016602482015275151bdad95b88185b1c9958591e481d995c9a599a595960521b6044820152606401611202565b60078101805460ff1916600190811790915560085482546000908152600e602090815260408083205481516345b0ce7560e11b81526001600160a01b03958616600482015260248101899052604481019690965260648601525191937f000000000000000000000000000000000000000000000000000000000000000090931692638b619cea926084808301939282900301818787803b1580156128cd57600080fd5b505af11580156128e1573d6000803e3d6000fd5b505050506040513d601f19601f820116820180604052508101906129059190614415565b604080513381526020810186905291925082917faf92676e6ce91b92427009a49e22fa6d354ed418db8d0965bca4232dcf3e658f910160405180910390a2505050565b6000828152600d602052604090206129608333611c8a565b6129a55760405162461bcd60e51b815260206004820152601660248201527513db9b1e481bdddb995c8818d85b8819195c1bdcda5d60521b6044820152606401611202565b604051630654881960e51b81526004810182905260248101839052737Ad9c9dD4B6aB6a07F7Eb4d76ca94440c433842F9063ca9103209060440160006040518083038186803b1580156129f757600080fd5b505af4158015612a0b573d6000803e3d6000fd5b50506009546040516323b872dd60e01b81526001600160a01b0390911692506323b872dd9150612a43903390309087906004016147df565b602060405180830381600087803b158015612a5d57600080fd5b505af1158015612a71573d6000803e3d6000fd5b505050506040513d601f19601f82011682018060405250810190612a9591906143e1565b50505050565b6011546040516331a9108f60e11b81526004810184905233916001600160a01b031690636352211e9060240160206040518083038186803b158015612adf57600080fd5b505afa158015612af3573d6000803e3d6000fd5b505050506040513d601f19601f82011682018060405250810190612b179190614276565b6001600160a01b031614612b3d5760405162461bcd60e51b81526004016112029061483a565b6000828152600d6020526040908190209051630451aa3960e11b8152600481019190915260248101829052737Ad9c9dD4B6aB6a07F7Eb4d76ca94440c433842F906308a35472906044015b60006040518083038186803b158015612ba057600080fd5b505af4158015612bb4573d6000803e3d6000fd5b505050505050565b600154610100900460ff1680612bd5575060015460ff16155b612c385760405162461bcd60e51b815260206004820152602e60248201527f496e697469616c697a61626c653a20636f6e747261637420697320616c72656160448201526d191e481a5b9a5d1a585b1a5e995960921b6064820152608401611202565b600154610100900460ff16158015612c5a576001805461ffff19166101011790555b600980546001600160a01b03199081166001600160a01b038c8116919091179092556011805482168a84161790556008805482168b841617905560028054339083161790556001805462010000600160b01b031916620100008a8516021790556007805482168884169081179091556012805483168885161790556013805483168785161790556003805490921692851692909217905560408051632629c7ef60e11b81529051634c538fde91600481810192602092909190829003018186803b158015612d2757600080fd5b505afa158015612d3b573d6000803e3d6000fd5b505050506040513d601f19601f82011682018060405250810190612d5f9190614276565b600a80546001600160a01b0319166001600160a01b0392909216919091179055612d8a600033613dfb565b612da2600080516020614ad283398151915233613dfb565b612dcc7fc55a74c743a5d6aff6a82963adf054e2367242c4a636870f26b8ee90910968d087613dfb565b8015612dde576001805461ff00191690555b505050505050505050565b6000828152600d60205260408120600501548190612e079084614a09565b949350505050565b7f747c8a75243ae2ca1d188aaaeab610daf9d97e45b6513baed451ebf0b9ec74fd612e3a81336137f2565b600b82905542600c5560408051848152602081018490527fb6479ea2703e76c8b5d9b262a24a0a76b6d232e57777321500a831d1ff4ae424910160405180910390a1505050565b6000818152600d60205260408120600281015460018201548392839290918391612eaa916149d1565b90508160040154935069021e19e0c9bab24000008110612edf57612ed869021e19e0c9bab240000082614a28565b9450612f41565b600b54670de0b6b3a764000090612f008369021e19e0c9bab2400000614a28565b612f0a9190614a09565b612f1491906149e9565b92508315612f4157828410612f3457612f2d8385614a28565b9350612f41565b612f3e8484614a28565b92505b50509193909250565b6000918252602082815260408084206001600160a01b0393909316845291905290205460ff1690565b6000828152600d60205260409020612f8a836125e1565b15612fa75760405162461bcd60e51b815260040161120290614866565b612fb18333611c8a565b612ff75760405162461bcd60e51b81526020600482015260176024820152764f6e6c79206f776e65722063616e20776974686472617760481b6044820152606401611202565b80600401548211156130405760405162461bcd60e51b81526020600482015260126024820152714e6f7420656e6f7567682062616c616e636560701b6044820152606401611202565b600a5460405163a9059cbb60e01b8152336004820152602481018490526001600160a01b039091169063a9059cbb90604401602060405180830381600087803b15801561308c57600080fd5b505af11580156130a0573d6000803e3d6000fd5b505050506040513d601f19601f820116820180604052508101906130c491906143e1565b50818160040160008282546130d99190614a28565b9091555050505050565b6011546040516331a9108f60e11b81526004810184905233916001600160a01b031690636352211e9060240160206040518083038186803b15801561312757600080fd5b505afa15801561313b573d6000803e3d6000fd5b505050506040513d601f19601f8201168201806040525081019061315f9190614276565b6001600160a01b0316146131855760405162461bcd60e51b81526004016112029061483a565b6000828152600d6020526040908190209051630c66c75560e21b8152600481019190915260248101829052737Ad9c9dD4B6aB6a07F7Eb4d76ca94440c433842F9063319b1d5490604401612b88565b600154604051637b5f398960e01b815260048101839052620100009091046001600160a01b031690637b5f39899060240160206040518083038186803b15801561321d57600080fd5b505afa158015613231573d6000803e3d6000fd5b505050506040513d601f19601f8201168201806040525081019061325591906143e1565b6132a15760405162461bcd60e51b815260206004820152601860248201527f546f6b656e206973206e6f74207265636f76657261626c6500000000000000006044820152606401611202565b6132ab8133611c8a565b6132c75760405162461bcd60e51b81526004016112029061483a565b6009546132e9906001600160a01b0316333069021e19e0c9bab2400000613e05565b6000818152600d60205260409081902069021e19e0c9bab2400000600191820155549051630532ab5d60e11b815260048101839052620100009091046001600160a01b031690630a6556ba906024015b600060405180830381600087803b15801561335357600080fd5b505af115801561196d573d6000803e3d6000fd5b60008281526020819052604090206001015461338381336137f2565b6113af838361393d565b60008181526006602052604081205460ff1680156134225750601154604051634f558e7960e01b8152600481018490526001600160a01b0390911690634f558e799060240160206040518083038186803b1580156133ea57600080fd5b505afa1580156133fe573d6000803e3d6000fd5b505050506040513d601f19601f8201168201806040525081019061342291906143e1565b80156134ce5750600760009054906101000a90046001600160a01b03166001600160a01b031663766873326040518163ffffffff1660e01b815260040160206040518083038186803b15801561347757600080fd5b505afa15801561348b573d6000803e3d6000fd5b505050506040513d601f19601f820116820180604052508101906134af9190614415565b6000838152600d60205260409020600601546134cb9042614a28565b10155b80156135dc5750600760009054906101000a90046001600160a01b03166001600160a01b031663b94d25ce6040518163ffffffff1660e01b815260040160206040518083038186803b15801561352357600080fd5b505afa158015613537573d6000803e3d6000fd5b505050506040513d601f19601f8201168201806040525081019061355b9190614415565b6009546012546040516370a0823160e01b81526001600160a01b0391821660048201529116906370a082319060240160206040518083038186803b1580156135a257600080fd5b505afa1580156135b6573d6000803e3d6000fd5b505050506040513d601f19601f820116820180604052508101906135da9190614415565b115b801561091b57506000828152600d6020526040902054151561091b565b6011546040516331a9108f60e11b81526004810184905233916001600160a01b031690636352211e9060240160206040518083038186803b15801561363d57600080fd5b505afa158015613651573d6000803e3d6000fd5b505050506040513d601f19601f820116820180604052508101906136759190614276565b6001600160a01b0316146136cb5760405162461bcd60e51b815260206004820152601760248201527f4f6e6c79206f776e65722063616e20696e6372656173650000000000000000006044820152606401611202565b6000828152600d6020526040908190209051633e8626f560e11b8152600481019190915260248101829052737Ad9c9dD4B6aB6a07F7Eb4d76ca94440c433842F90637d0c4dea9060440160006040518083038186803b15801561372d57600080fd5b505af4158015613741573d6000803e3d6000fd5b5050506000838152600d602052604090206001015415159050611702576001546040516316bfb45760e11b815260048101849052620100009091046001600160a01b031690632d7f68ae90602401600060405180830381600087803b1580156137a957600080fd5b505af1158015612bb4573d6000803e3d6000fd5b60006001600160e01b03198216637965db0b60e01b148061091b57506301ffc9a760e01b6001600160e01b031983161461091b565b6137fc8282612f4a565b61170257613814816001600160a01b03166014613e26565b61381f836020613e26565b60405160200161383092919061476a565b60408051601f198184030181529082905262461bcd60e51b825261120291600401614827565b6040516001600160a01b0383166024820152604481018290526113af90849063a9059cbb60e01b906064015b60408051601f198184030181529190526020810180516001600160e01b03166001600160e01b031990931692909217909152614007565b6138c38282612f4a565b611702576000828152602081815260408083206001600160a01b03851684529091529020805460ff191660011790556138f93390565b6001600160a01b0316816001600160a01b0316837f2f8788117e7eff1d82e926ec794901d17c78024a50270940304540a733656f0d60405160405180910390a45050565b6139478282612f4a565b15611702576000828152602081815260408083206001600160a01b0385168085529252808320805460ff1916905551339285917ff6391f5c32d9c69d2a47ea670b442974b53935d1edc7fd64eb21e047a839171b9190a45050565b6000818152600d60205260408120600281015460018201549192916139c791906149d1565b905060008060006139d786612e81565b925092509250600069021e19e0c9bab24000008510613a005769021e19e0c9bab2400000613a02565b845b600954604051630852cd8d60e31b8152600481018390529192506001600160a01b0316906342966c6890602401600060405180830381600087803b158015613a4957600080fd5b505af1158015613a5d573d6000803e3d6000fd5b505050506000821115613c2d576009546013546001600160a01b039182169163395093519116613a978469021e19e0c9bab2400000614a28565b6040516001600160e01b031960e085901b1681526001600160a01b0390921660048301526024820152604401602060405180830381600087803b158015613add57600080fd5b505af1158015613af1573d6000803e3d6000fd5b505050506040513d601f19601f82011682018060405250810190613b1591906143e1565b50601354600b546001600160a01b0390911690635ff44eb9908490613b3a90826149e9565b613b4c90670de0b6b3a7640000614a09565b6040516001600160e01b031960e085901b16815260048101929092526024820152604401600060405180830381600087803b158015613b8a57600080fd5b505af1158015613b9e573d6000803e3d6000fd5b5050600a546013546040516323b872dd60e01b81526001600160a01b0392831694506323b872dd9350613bd9923392169087906004016147df565b602060405180830381600087803b158015613bf357600080fd5b505af1158015613c07573d6000803e3d6000fd5b505050506040513d601f19601f82011682018060405250810190613c2b91906143e1565b505b8215613cb957600a5460405163a9059cbb60e01b8152336004820152602481018590526001600160a01b039091169063a9059cbb90604401602060405180830381600087803b158015613c7f57600080fd5b505af1158015613c93573d6000803e3d6000fd5b505050506040513d601f19601f82011682018060405250810190613cb791906143e1565b505b83156113aa5760095460405163a9059cbb60e01b8152336004820152602481018690526001600160a01b039091169063a9059cbb90604401602060405180830381600087803b158015613d0b57600080fd5b505af1158015613d1f573d6000803e3d6000fd5b505050506040513d601f19601f82011682018060405250810190611c8091906143e1565b6000818152600d6020908152604080832080548452600e83528184205460108452828520818652909352922080546001600160a01b03191633179055613d8a8160016149d1565b82546000908152600e6020526040902055613da4836140d9565b50546000908152600560208181526040808420849055938352600d9052918120818155600181018290556002810182905560038101829055600481018290559182018190556006820155600701805460ff19169055565b61170282826138b9565b612a95846323b872dd60e01b858585604051602401613882939291906147df565b60606000613e35836002614a09565b613e409060026149d1565b6001600160401b03811115613e6557634e487b7160e01b600052604160045260246000fd5b6040519080825280601f01601f191660200182016040528015613e8f576020820181803683370190505b509050600360fc1b81600081518110613eb857634e487b7160e01b600052603260045260246000fd5b60200101906001600160f81b031916908160001a905350600f60fb1b81600181518110613ef557634e487b7160e01b600052603260045260246000fd5b60200101906001600160f81b031916908160001a9053506000613f19846002614a09565b613f249060016149d1565b90505b6001811115613fb8576f181899199a1a9b1b9c1cb0b131b232b360811b85600f1660108110613f6657634e487b7160e01b600052603260045260246000fd5b1a60f81b828281518110613f8a57634e487b7160e01b600052603260045260246000fd5b60200101906001600160f81b031916908160001a90535060049490941c93613fb181614a6b565b9050613f27565b5083156126275760405162461bcd60e51b815260206004820181905260248201527f537472696e67733a20686578206c656e67746820696e73756666696369656e746044820152606401611202565b600061405c826040518060400160405280602081526020017f5361666545524332303a206c6f772d6c6576656c2063616c6c206661696c6564815250856001600160a01b031661410a9092919063ffffffff16565b8051909150156113af578080602001905181019061407a91906143e1565b6113af5760405162461bcd60e51b815260206004820152602a60248201527f5361666545524332303a204552433230206f7065726174696f6e20646964206e6044820152691bdd081cdd58d8d9595960b21b6064820152608401611202565b60115460405163dbf5132560e01b8152600481018390526001600160a01b039091169063dbf5132590602401613339565b6060612e07848460008585843b6141635760405162461bcd60e51b815260206004820152601d60248201527f416464726573733a2063616c6c20746f206e6f6e2d636f6e74726163740000006044820152606401611202565b600080866001600160a01b0316858760405161417f919061474e565b60006040518083038185875af1925050503d80600081146141bc576040519150601f19603f3d011682016040523d82523d6000602084013e6141c1565b606091505b50915091506141d18282866141dc565b979650505050505050565b606083156141eb575081612627565b8251156141fb5782518084602001fd5b8160405162461bcd60e51b81526004016112029190614827565b803561422081614ac3565b919050565b600082601f830112614235578081fd5b8135614248614243826149aa565b61497a565b81815284602083860101111561425c578283fd5b816020850160208301379081016020019190915292915050565b600060208284031215614287578081fd5b815161262781614aae565b600080600080600080600080610100898b0312156142ae578384fd5b88356142b981614aae565b975060208901356142c981614aae565b965060408901356142d981614aae565b955060608901356142e981614aae565b945060808901356142f981614aae565b935060a089013561430981614aae565b925060c089013561431981614aae565b915060e089013561432981614aae565b809150509295985092959890939650565b6000602080838503121561434c578182fd5b82516001600160401b0380821115614362578384fd5b818501915085601f830112614375578384fd5b81518181111561438757614387614a98565b8060051b915061439884830161497a565b8181528481019084860184860187018a10156143b2578788fd5b8795505b838610156143d45780518352600195909501949186019186016143b6565b5098975050505050505050565b6000602082840312156143f2578081fd5b815161262781614ac3565b60006020828403121561440e578081fd5b5035919050565b600060208284031215614426578081fd5b5051919050565b6000806040838503121561443f578182fd5b82359150602083013561445181614aae565b809150509250929050565b600080600083850360c0811215614471578182fd5b843593506080601f1982011215614486578182fd5b50604051608081018181106001600160401b03821117156144a9576144a9614a98565b60405260208501356144ba81614aae565b815260408501356144ca81614aae565b6020820152606085013560408201526080850135600481106144ea578283fd5b606082015291506144fd60a08501614215565b90509250925092565b60008060408385031215614518578182fd5b50508035926020909101359150565b600060208284031215614538578081fd5b81356001600160e01b031981168114612627578182fd5b600060208284031215614560578081fd5b81516001600160401b03811115614575578182fd5b8201601f81018413614585578182fd5b8051614593614243826149aa565b8181528560208385010111156145a7578384fd5b6145b8826020830160208601614a3f565b95945050505050565b600080604083850312156145d3578182fd5b82359150602083013561445181614ac3565b600080604083850312156145f7578182fd5b8235915060208301356001600160401b03811115614613578182fd5b61461f85828601614225565b9150509250929050565b6000806000806080858703121561463e578182fd5b843593506020850135925060408501356001600160401b03811115614661578283fd5b61466d87828801614225565b925050606085013561467e81614aae565b939692955090935050565b600080600080600060a086880312156146a0578283fd5b85359450602086013593506040860135925060608601356146c081614aae565b915060808601356001600160401b038111156146da578182fd5b6146e688828901614225565b9150509295509295909350565b60008060408385031215614705578182fd5b8235915060208301356001600160401b0381168114614451578182fd5b6000815180845261473a816020860160208601614a3f565b601f01601f19169290920160200192915050565b60008251614760818460208701614a3f565b9190910192915050565b7f416363657373436f6e74726f6c3a206163636f756e74200000000000000000008152600083516147a2816017850160208801614a3f565b7001034b99036b4b9b9b4b733903937b6329607d1b60179184019182015283516147d3816028840160208801614a3f565b01602801949350505050565b6001600160a01b039384168152919092166020820152604081019190915260600190565b6001600160a01b0383168152604060208201819052600090612e0790830184614722565b6020815260006126276020830184614722565b60208082526012908201527113db9b1e481bdddb995c88185b1b1bddd95960721b604082015260600190565b60208082526010908201526f546f6b656e206973206c6f636b65642160801b604082015260600190565b600060a082018783526020878185015260a0604085015281875180845260c0860191508289019350845b818110156148df5784516001600160a01b0316835293830193918301916001016148ba565b50506001600160a01b03969096166060850152505050608001529392505050565b828152604060208201526000612e076040830184614722565b6000610100820190508982528860208301528760408301528660608301528560808301528460a08301528360c08301526004831061496757634e487b7160e01b600052602160045260246000fd5b8260e08301529998505050505050505050565b604051601f8201601f191681016001600160401b03811182821017156149a2576149a2614a98565b604052919050565b60006001600160401b038211156149c3576149c3614a98565b50601f01601f191660200190565b600082198211156149e4576149e4614a82565b500190565b600082614a0457634e487b7160e01b81526012600452602481fd5b500490565b6000816000190483118215151615614a2357614a23614a82565b500290565b600082821015614a3a57614a3a614a82565b500390565b60005b83811015614a5a578181015183820152602001614a42565b83811115612a955750506000910152565b600081614a7a57614a7a614a82565b506000190190565b634e487b7160e01b600052601160045260246000fd5b634e487b7160e01b600052604160045260246000fd5b6001600160a01b03811681146126e957600080fd5b80151581146126e957600080fdfeeb4fd9f47c063b511700e1c8e94e2fa4088ffca1fdcef1e60edf1beecd1b2e64a2646970667358221220638e0b37550265eb930e428543283818913c908e2d32c5393ee534f43b4c645a64736f6c63430008040033",
  "deployedBytecode": "0x608060405234801561001057600080fd5b50600436106103785760003560e01c80636e26115c116101d357806391d1485411610104578063cb1a233d116100a2578063e445a5021161007c578063e445a50214610894578063ecf70d37146108a7578063ee2af58d146108c9578063f0b38250146108dc57600080fd5b8063cb1a233d1461084c578063cd87eb521461085f578063d547741f1461088157600080fd5b8063a217fddf116100de578063a217fddf146107f7578063ab8f2b1b146107ff578063abacac2514610812578063b1da4db71461083957600080fd5b806391d14854146107c85780639c76a6ac146107db578063a03bf2b3146107e457600080fd5b8063886747cd116101715780638aab42741161014b5780638aab42741461077c5780638c7a66611461078f5780638ce74426146107a2578063900035b3146107b557600080fd5b8063886747cd1461074357806389736a90146107565780638a29e2de1461076957600080fd5b80637c4950c7116101ad5780637c4950c7146106ae5780637e0aa10c146106c157806383a131001461071d5780638753367f1461073057600080fd5b80636e26115c1461067557806373233ea61461068857806379a9fa1c1461069b57600080fd5b806339fb284e116102ad578063578410141161024b5780635a5d096c116102255780635a5d096c146106295780635c9207361461063c5780635ea172d01461064f5780636332fb8b1461066257600080fd5b806357841014146105c157806358e8bcb7146105ef578063593aa2831461061657600080fd5b80634c4e03f9116102875780634c4e03f9146105205780634c538fde146105335780634d81bea1146105465780634f64b2be1461055957600080fd5b806339fb284e146104d35780634bc4d599146104fa5780634c4b206b1461050d57600080fd5b80631c06b6ba1161031a5780632f2ff15d116102f45780632f2ff15d1461049057806330218c30146104a357806332fe7b26146104ab57806336568abe146104c057600080fd5b80631c06b6ba14610447578063248a9ca31461045a57806326964e511461047d57600080fd5b80630f1203d0116103565780630f1203d0146103cd578063141a468c146103f85780631755ff21146104265780631bfc23571461042e57600080fd5b806301ffc9a71461037d57806302d79652146103a5578063072ac5f3146103ba575b600080fd5b61039061038b366004614527565b610910565b60405190151581526020015b60405180910390f35b6103b86103b336600461442d565b610921565b005b6103b86103c8366004614506565b610cfe565b6002546103e0906001600160a01b031681565b6040516001600160a01b03909116815260200161039c565b6104186104063660046143fd565b600e6020526000908152604090205481565b60405190815260200161039c565b6103e061114c565b6001546103e0906201000090046001600160a01b031681565b6103b8610455366004614506565b6111ce565b6104186104683660046143fd565b60009081526020819052604090206001015490565b6103b861048b3660046146f3565b6113b4565b6103b861049e36600461442d565b611583565b6104186115a9565b610418600080516020614ad283398151915281565b6103b86104ce36600461442d565b611688565b6104187fc55a74c743a5d6aff6a82963adf054e2367242c4a636870f26b8ee90910968d081565b6009546103e0906001600160a01b031681565b6011546103e0906001600160a01b031681565b6103b861052e366004614506565b611706565b600a546103e0906001600160a01b031681565b6103b86105543660046145c1565b611974565b6105ad6105673660046143fd565b600d602052600090815260409020805460018201546002830154600384015460048501546005860154600687015460079097015495969495939492939192909160ff1688565b60405161039c989796959493929190614919565b6105d46105cf3660046143fd565b6119ea565b6040805193845260208401929092529082015260600161039c565b6104187fe87beaa2684453d25a1f0e3e7002e109b34fc4f132f115c9a7707901e792751381565b6103b86106243660046145e5565b611a2a565b61039061063736600461442d565b611c8a565b6103b861064a366004614506565b611d1d565b61041861065d366004614689565b611f5d565b6103b861067036600461445c565b6121fa565b6103b8610683366004614629565b61235e565b6103906106963660046143fd565b6125e1565b6103b86106a93660046143fd565b61262e565b6013546103e0906001600160a01b031681565b6106f96106cf3660046143fd565b600f602052600090815260409020805460018201546002909201549091906001600160a01b031683565b6040805193845260208401929092526001600160a01b03169082015260600161039c565b6008546103e0906001600160a01b031681565b6103b861073e3660046143fd565b6126ec565b6103b8610751366004614506565b612948565b6103b8610764366004614506565b612a9b565b6103b8610777366004614292565b612bbc565b61041861078a366004614506565b612de9565b6103b861079d366004614506565b612e0f565b6007546103e0906001600160a01b031681565b6105d46107c33660046143fd565b612e81565b6103906107d636600461442d565b612f4a565b610418600b5481565b6103b86107f2366004614506565b612f73565b610418600081565b6103b861080d366004614506565b6130e3565b6104187f747c8a75243ae2ca1d188aaaeab610daf9d97e45b6513baed451ebf0b9ec74fd81565b6012546103e0906001600160a01b031681565b6103b861085a3660046143fd565b6131d4565b61039061086d3660046143fd565b6000908152600d6020526040902054151590565b6103b861088f36600461442d565b613367565b6103906108a23660046143fd565b61338d565b6103906108b53660046143fd565b600090815260056020526040902054151590565b6103b86108d7366004614506565b6135f9565b6103e06108ea366004614506565b60106020908152600092835260408084209091529082529020546001600160a01b031681565b600061091b826137bd565b92915050565b7fc55a74c743a5d6aff6a82963adf054e2367242c4a636870f26b8ee90910968d061094c81336137f2565b60115460405163c87b56dd60e01b8152600481018590526000916001600160a01b03169063c87b56dd9060240160006040518083038186803b15801561099157600080fd5b505afa1580156109a5573d6000803e3d6000fd5b505050506040513d6000823e601f3d908101601f191682016040526109cd919081019061454f565b6000858152600d6020526040908190208054601154925163dbf5132560e01b815260048101899052939450909290916001600160a01b03169063dbf5132590602401600060405180830381600087803b158015610a2957600080fd5b505af1158015610a3d573d6000803e3d6000fd5b5050601154604051636902622f60e11b8152600093506001600160a01b03909116915063d204c45e90610a769089908890600401614803565b602060405180830381600087803b158015610a9057600080fd5b505af1158015610aa4573d6000803e3d6000fd5b505050506040513d601f19601f82011682018060405250810190610ac89190614415565b60008381526005602090815260408083208490558051610100810182528381529182018390528101829052606081018290526080810182905260a0810182905260c0810182905291925060e0820190815250600d6000898152602001908152602001600020600082015181600001556020820151816001015560408201518160020155606082015181600301556080820151816004015560a0820151816005015560c0820151816006015560e08201518160070160006101000a81548160ff02191690836003811115610bab57634e487b7160e01b600052602160045260246000fd5b021790555090505060405180610100016040528083815260200169021e19e0c9bab24000008152602001600081526020016000815260200160008152602001600081526020016000815260200160026003811115610c1957634e487b7160e01b600052602160045260246000fd5b815250600d6000838152602001908152602001600020600082015181600001556020820151816001015560408201518160020155606082015181600301556080820151816004015560a0820151816005015560c0820151816006015560e08201518160070160006101000a81548160ff02191690836003811115610cad57634e487b7160e01b600052602160045260246000fd5b021790555050604080518381526001600160a01b03891660208201527fae0df3ed3f99b751fb0a740538790a748856958d5737ad5ae138454ed7e053e492500160405180910390a150505050505050565b7fe87beaa2684453d25a1f0e3e7002e109b34fc4f132f115c9a7707901e7927513610d2981336137f2565b600080600760009054906101000a90046001600160a01b03166001600160a01b031663b94d25ce6040518163ffffffff1660e01b815260040160206040518083038186803b158015610d7a57600080fd5b505afa158015610d8e573d6000803e3d6000fd5b505050506040513d601f19601f82011682018060405250810190610db29190614415565b90506000600760009054906101000a90046001600160a01b03166001600160a01b0316631861779d6040518163ffffffff1660e01b815260040160206040518083038186803b158015610e0457600080fd5b505afa158015610e18573d6000803e3d6000fd5b505050506040513d601f19601f82011682018060405250810190610e3c9190614415565b6000868152600460209081526040808320815160608101835281548082526001928301546001600160401b03811683870152600160401b90046001600160a01b0316828501528552600d9093529220918201549293509180851115610e9f578094505b84841115610eab578493505b88610f4d5784826001016000828254610ec49190614a28565b909155505060208301516001600160401b03168914610ee557849550610f25565b610eef8486614a28565b600089815260046020526040902060010154600954919750610f25916001600160a01b0390811691600160401b90041686613856565b8515610f4857601254600954610f48916001600160a01b03918216911688613856565b611085565b82602001516001600160401b03168914610f6957849550610ffb565b610f738486614a28565b60095460125460008b8152600460208190526040918290206001015491516311c9479960e21b8152949a506001600160a01b03938416946347251e6494610fc894811693600160401b900416918a91016147df565b600060405180830381600087803b158015610fe257600080fd5b505af1158015610ff6573d6000803e3d6000fd5b505050505b8515611085578582600101600082825461101591906149d1565b90915550506009546012546040516311c9479960e21b81526001600160a01b03928316926347251e64926110529291169030908b906004016147df565b600060405180830381600087803b15801561106c57600080fd5b505af1158015611080573d6000803e3d6000fd5b505050505b60018201546110f55760015483516040516316bfb45760e11b81526004810191909152620100009091046001600160a01b031690632d7f68ae90602401600060405180830381600087803b1580156110dc57600080fd5b505af11580156110f0573d6000803e3d6000fd5b505050505b8251602080850151604080516001600160401b0390921682529181018c90528a917f10c2415cd62b00f83e15c907a08b12444e71bcc1645322f97a631df735fe49e3910160405180910390a3505050505050505050565b600954604080516324dead2f60e11b815290516000926001600160a01b0316916349bd5a5e916004808301926020929190829003018186803b15801561119157600080fd5b505afa1580156111a5573d6000803e3d6000fd5b505050506040513d601f19601f820116820180604052508101906111c99190614276565b905090565b6000828152600d602052604090206111e5836125e1565b1561120b5760405162461bcd60e51b815260040161120290614866565b60405180910390fd5b6112158333611c8a565b61125b5760405162461bcd60e51b81526020600482015260176024820152764f6e6c79206f776e65722063616e20776974686472617760481b6044820152606401611202565b80600101548211156112a45760405162461bcd60e51b81526020600482015260126024820152714e6f7420656e6f7567682062616c616e636560701b6044820152606401611202565b818160010160008282546112b89190614a28565b909155505060095460405163a9059cbb60e01b8152336004820152602481018490526001600160a01b039091169063a9059cbb90604401602060405180830381600087803b15801561130957600080fd5b505af115801561131d573d6000803e3d6000fd5b505050506040513d601f19601f8201168201806040525081019061134191906143e1565b5060018101546113af576001546040516316bfb45760e11b815260048101859052620100009091046001600160a01b031690632d7f68ae90602401600060405180830381600087803b15801561139657600080fd5b505af11580156113aa573d6000803e3d6000fd5b505050505b505050565b6000828152600d602052604090206113cb8361338d565b6114175760405162461bcd60e51b815260206004820152601760248201527f466c6970206973206e6f7420616c6c6f776564207965740000000000000000006044820152606401611202565b611420836125e1565b1561143d5760405162461bcd60e51b815260040161120290614866565b42816006018190555060007f00000000000000000000000000000000000000000000000000000000000000006001600160a01b031663dbdff2c16040518163ffffffff1660e01b8152600401602060405180830381600087803b1580156114a357600080fd5b505af11580156114b7573d6000803e3d6000fd5b505050506040513d601f19601f820116820180604052508101906114db9190614415565b604080516060810182528681526001600160401b038681166020808401828152338587018181526000898152600485528890209651875591516001909601805492516001600160a01b0316600160401b026001600160e01b031990931696909516959095171790925592519283529293508692909184917ff3430182a8f4149cb1910574795295555b8119134718716b9f3e5024189a64a5910160405180910390a450505050565b60008281526020819052604090206001015461159f81336137f2565b6113af83836138b9565b600854604051630502c73b60e41b81526001600160a01b0391821660048201526000917f0000000000000000000000000000000000000000000000000000000000000000169063502c73b090602401602060405180830381600087803b15801561161257600080fd5b505af1158015611626573d6000803e3d6000fd5b505050506040513d601f19601f8201168201806040525081019061164a9190614415565b90507fbe2b5ab4e879a268995b8af0c68a310c39e8c1573b4c283ef80e3c64125499b98160405161167d91815260200190565b60405180910390a190565b6001600160a01b03811633146116f85760405162461bcd60e51b815260206004820152602f60248201527f416363657373436f6e74726f6c3a2063616e206f6e6c792072656e6f756e636560448201526e103937b632b9903337b91039b2b63360891b6064820152608401611202565b611702828261393d565b5050565b6000828152600d6020526040908190206011549151634f558e7960e01b81526004810185905290916001600160a01b031690634f558e799060240160206040518083038186803b15801561175957600080fd5b505afa15801561176d573d6000803e3d6000fd5b505050506040513d601f19601f8201168201806040525081019061179191906143e1565b6117d45760405162461bcd60e51b8152602060048201526014602482015273151bdad95b881b9bdd081c9959da5cdd195c995960621b6044820152606401611202565b60405163d52cb9cb60e01b8152600481018290526024810183905260009073__$56fc4e5f3f11a8c61fa94696167f06073e$__9063d52cb9cb9060440160206040518083038186803b15801561182957600080fd5b505af415801561183d573d6000803e3d6000fd5b505050506040513d601f19601f820116820180604052508101906118619190614415565b600a546040516323b872dd60e01b81529192506001600160a01b0316906323b872dd90611896903390309086906004016147df565b602060405180830381600087803b1580156118b057600080fd5b505af11580156118c4573d6000803e3d6000fd5b505050506040513d601f19601f820116820180604052508101906118e891906143e1565b5060095460405163a9059cbb60e01b8152336004820152602481018590526001600160a01b039091169063a9059cbb90604401602060405180830381600087803b15801561193557600080fd5b505af1158015611949573d6000803e3d6000fd5b505050506040513d601f19601f8201168201806040525081019061196d91906143e1565b5050505050565b61197e8233611c8a565b6119ca5760405162461bcd60e51b815260206004820152601a60248201527f4f6e6c79206f776e65722063616e206368616e676520666c69700000000000006044820152606401611202565b600091825260066020526040909120805460ff1916911515919091179055565b60008060006119f8846125e1565b15611a155760405162461bcd60e51b815260040161120290614866565b611a1e84612e81565b96909550909350915050565b6000828152600d602052604090206002600782015460ff166003811115611a6157634e487b7160e01b600052602160045260246000fd5b1415611aba5760405162461bcd60e51b815260206004820152602260248201527f43616e2774206368616e6765206d657461646174612061667465722076657269604482015261667960f01b6064820152608401611202565b6001600782015460ff166003811115611ae357634e487b7160e01b600052602160045260246000fd5b1415611b3f5760405162461bcd60e51b815260206004820152602560248201527f43616e2774206368616e6765206d65746164617461207768696c6520766572696044820152646679696e6760d81b6064820152608401611202565b6011546040516331a9108f60e11b8152600481018590526000916001600160a01b031690636352211e9060240160206040518083038186803b158015611b8457600080fd5b505afa158015611b98573d6000803e3d6000fd5b505050506040513d601f19601f82011682018060405250810190611bbc9190614276565b9050336001600160a01b03821614611c205760405162461bcd60e51b815260206004820152602160248201527f596f7520617265206e6f7420746865206f776e6572206f6620746865204e46546044820152602160f81b6064820152608401611202565b60115460405163593aa28360e01b81526001600160a01b039091169063593aa28390611c529087908790600401614900565b600060405180830381600087803b158015611c6c57600080fd5b505af1158015611c80573d6000803e3d6000fd5b5050505050505050565b6011546040516331a9108f60e11b8152600481018490526000916001600160a01b0384811692911690636352211e9060240160206040518083038186803b158015611cd457600080fd5b505afa158015611ce8573d6000803e3d6000fd5b505050506040513d601f19601f82011682018060405250810190611d0c9190614276565b6001600160a01b0316149392505050565b6000828152600d6020526040902060010154811115611d7e5760405162461bcd60e51b815260206004820152601f60248201527f45786368616e676520616d6f756e7420657863656564732062616c616e6365006044820152606401611202565b6003546040805160028082526060820183526001600160a01b0390931692600092602083019080368337505060095482519293506001600160a01b031691839150600090611ddc57634e487b7160e01b600052603260045260246000fd5b6001600160a01b039283166020918202929092010152600a54825191169082906001908110611e1b57634e487b7160e01b600052603260045260246000fd5b6001600160a01b039092166020928302919091018201526000858152600d909152604081206001018054859290611e53908490614a28565b90915550506000848152600d6020526040902060010154611ed2576001546040516316bfb45760e11b815260048101869052620100009091046001600160a01b031690632d7f68ae90602401600060405180830381600087803b158015611eb957600080fd5b505af1158015611ecd573d6000803e3d6000fd5b505050505b6040516338ed173960e01b81526001600160a01b038316906338ed173990611f07908690600090869033904290600401614890565b600060405180830381600087803b158015611f2157600080fd5b505af1158015611f35573d6000803e3d6000fd5b505050506040513d6000823e601f3d908101601f1916820160405261196d919081019061433a565b6000600080516020614ad2833981519152611f7881336137f2565b60008781526005602052604090205415611fd45760405162461bcd60e51b815260206004820181905260248201527f53796e746865746963204e465420616c72656164792067656e657261746564216044820152606401611202565b601154604051636902622f60e11b81526001600160a01b039091169063d204c45e906120069087908790600401614803565b602060405180830381600087803b15801561202057600080fd5b505af1158015612034573d6000803e3d6000fd5b505050506040513d601f19601f820116820180604052508101906120589190614415565b915060006120708769021e19e0c9bab2400000614a28565b905060006040518061010001604052808a8152602001898152602001838152602001600081526020016000815260200188815260200160008152602001600060038111156120ce57634e487b7160e01b600052602160045260246000fd5b815250905080600d6000868152602001908152602001600020600082015181600001556020820151816001015560408201518160020155606082015181600301556080820151816004015560a0820151816005015560c0820151816006015560e08201518160070160006101000a81548160ff0219169083600381111561216557634e487b7160e01b600052602160045260246000fd5b02179055505050876121d5576001546040516316bfb45760e11b815260048101869052620100009091046001600160a01b031690632d7f68ae90602401600060405180830381600087803b1580156121bc57600080fd5b505af11580156121d0573d6000803e3d6000fd5b505050505b5050506000818152600660205260409020805460ff1916600117905595945050505050565b7f747c8a75243ae2ca1d188aaaeab610daf9d97e45b6513baed451ebf0b9ec74fd61222581336137f2565b6040808401516000908152600d6020522082156122bd5760078101805460ff191660021790556009546040516340c10f1960e01b815230600482015269021e19e0c9bab240000060248201526001600160a01b03909116906340c10f1990604401600060405180830381600087803b1580156122a057600080fd5b505af11580156122b4573d6000803e3d6000fd5b505050506122f4565b606084015160078201805460ff191660018360038111156122ee57634e487b7160e01b600052602160045260246000fd5b02179055505b835160208086015160408088015181516001600160a01b039586168152949092169284019290925290820152831515606082015285907fcf5cb568c779c24ae423fed9236ba737105872c7e0b13ebb2fd578233747825a9060800160405180910390a25050505050565b600080516020614ad283398151915261237781336137f2565b6000858152600d6020526040902060018101546123c95760405162461bcd60e51b815260206004820152601060248201526f10d85b89dd0818994818da185b99d95960821b6044820152606401611202565b6002600782015460ff1660038111156123f257634e487b7160e01b600052602160045260246000fd5b146124345760405162461bcd60e51b8152602060048201526012602482015271151bdad95b881b9bdd081d995c9a599a595960721b6044820152606401611202565b6011546040516331a9108f60e11b8152600481018890526001600160a01b03858116921690636352211e9060240160206040518083038186803b15801561247a57600080fd5b505afa15801561248e573d6000803e3d6000fd5b505050506040513d601f19601f820116820180604052508101906124b29190614276565b6001600160a01b0316146124f95760405162461bcd60e51b815260206004820152600e60248201526d14da1bdd5b19081bdddb8813919560921b6044820152606401611202565b80546000908152600f602052604081208054909160019183919061251e9084906149d1565b9091555050600181018690556002810180546001600160a01b038681166001600160a01b03199092169190911790915560078301805460ff19166003179055825460009081526005602052604080822082905588855588825290819020899055601154905163593aa28360e01b815291169063593aa283906125a6908a908990600401614900565b600060405180830381600087803b1580156125c057600080fd5b505af11580156125d4573d6000803e3d6000fd5b5050505050505050505050565b6000818152600d602052604081206002600782015460ff16600381111561261857634e487b7160e01b600052602160045260246000fd5b14158061262757506001810154155b9392505050565b600c5461263d9061012c6149d1565b421061268b5760405162461bcd60e51b815260206004820152601d60248201527f4275796261636b207072696365207570646174652072657175697265640000006044820152606401611202565b6126958133611c8a565b6126b15760405162461bcd60e51b81526004016112029061483a565b6126ba816125e1565b156126d75760405162461bcd60e51b815260040161120290614866565b6126e0816139a2565b6126e981613d43565b50565b6000818152600d6020526040908190206011549151634f558e7960e01b81526004810184905290916001600160a01b031690634f558e799060240160206040518083038186803b15801561273f57600080fd5b505afa158015612753573d6000803e3d6000fd5b505050506040513d601f19601f8201168201806040525081019061277791906143e1565b6127ba5760405162461bcd60e51b8152602060048201526014602482015273151bdad95b881b9bdd081c9959da5cdd195c995960621b6044820152606401611202565b6002600782015460ff1660038111156127e357634e487b7160e01b600052602160045260246000fd5b141561282a5760405162461bcd60e51b8152602060048201526016602482015275151bdad95b88185b1c9958591e481d995c9a599a595960521b6044820152606401611202565b60078101805460ff1916600190811790915560085482546000908152600e602090815260408083205481516345b0ce7560e11b81526001600160a01b03958616600482015260248101899052604481019690965260648601525191937f000000000000000000000000000000000000000000000000000000000000000090931692638b619cea926084808301939282900301818787803b1580156128cd57600080fd5b505af11580156128e1573d6000803e3d6000fd5b505050506040513d601f19601f820116820180604052508101906129059190614415565b604080513381526020810186905291925082917faf92676e6ce91b92427009a49e22fa6d354ed418db8d0965bca4232dcf3e658f910160405180910390a2505050565b6000828152600d602052604090206129608333611c8a565b6129a55760405162461bcd60e51b815260206004820152601660248201527513db9b1e481bdddb995c8818d85b8819195c1bdcda5d60521b6044820152606401611202565b604051630654881960e51b8152600481018290526024810183905273__$56fc4e5f3f11a8c61fa94696167f06073e$__9063ca9103209060440160006040518083038186803b1580156129f757600080fd5b505af4158015612a0b573d6000803e3d6000fd5b50506009546040516323b872dd60e01b81526001600160a01b0390911692506323b872dd9150612a43903390309087906004016147df565b602060405180830381600087803b158015612a5d57600080fd5b505af1158015612a71573d6000803e3d6000fd5b505050506040513d601f19601f82011682018060405250810190612a9591906143e1565b50505050565b6011546040516331a9108f60e11b81526004810184905233916001600160a01b031690636352211e9060240160206040518083038186803b158015612adf57600080fd5b505afa158015612af3573d6000803e3d6000fd5b505050506040513d601f19601f82011682018060405250810190612b179190614276565b6001600160a01b031614612b3d5760405162461bcd60e51b81526004016112029061483a565b6000828152600d6020526040908190209051630451aa3960e11b815260048101919091526024810182905273__$56fc4e5f3f11a8c61fa94696167f06073e$__906308a35472906044015b60006040518083038186803b158015612ba057600080fd5b505af4158015612bb4573d6000803e3d6000fd5b505050505050565b600154610100900460ff1680612bd5575060015460ff16155b612c385760405162461bcd60e51b815260206004820152602e60248201527f496e697469616c697a61626c653a20636f6e747261637420697320616c72656160448201526d191e481a5b9a5d1a585b1a5e995960921b6064820152608401611202565b600154610100900460ff16158015612c5a576001805461ffff19166101011790555b600980546001600160a01b03199081166001600160a01b038c8116919091179092556011805482168a84161790556008805482168b841617905560028054339083161790556001805462010000600160b01b031916620100008a8516021790556007805482168884169081179091556012805483168885161790556013805483168785161790556003805490921692851692909217905560408051632629c7ef60e11b81529051634c538fde91600481810192602092909190829003018186803b158015612d2757600080fd5b505afa158015612d3b573d6000803e3d6000fd5b505050506040513d601f19601f82011682018060405250810190612d5f9190614276565b600a80546001600160a01b0319166001600160a01b0392909216919091179055612d8a600033613dfb565b612da2600080516020614ad283398151915233613dfb565b612dcc7fc55a74c743a5d6aff6a82963adf054e2367242c4a636870f26b8ee90910968d087613dfb565b8015612dde576001805461ff00191690555b505050505050505050565b6000828152600d60205260408120600501548190612e079084614a09565b949350505050565b7f747c8a75243ae2ca1d188aaaeab610daf9d97e45b6513baed451ebf0b9ec74fd612e3a81336137f2565b600b82905542600c5560408051848152602081018490527fb6479ea2703e76c8b5d9b262a24a0a76b6d232e57777321500a831d1ff4ae424910160405180910390a1505050565b6000818152600d60205260408120600281015460018201548392839290918391612eaa916149d1565b90508160040154935069021e19e0c9bab24000008110612edf57612ed869021e19e0c9bab240000082614a28565b9450612f41565b600b54670de0b6b3a764000090612f008369021e19e0c9bab2400000614a28565b612f0a9190614a09565b612f1491906149e9565b92508315612f4157828410612f3457612f2d8385614a28565b9350612f41565b612f3e8484614a28565b92505b50509193909250565b6000918252602082815260408084206001600160a01b0393909316845291905290205460ff1690565b6000828152600d60205260409020612f8a836125e1565b15612fa75760405162461bcd60e51b815260040161120290614866565b612fb18333611c8a565b612ff75760405162461bcd60e51b81526020600482015260176024820152764f6e6c79206f776e65722063616e20776974686472617760481b6044820152606401611202565b80600401548211156130405760405162461bcd60e51b81526020600482015260126024820152714e6f7420656e6f7567682062616c616e636560701b6044820152606401611202565b600a5460405163a9059cbb60e01b8152336004820152602481018490526001600160a01b039091169063a9059cbb90604401602060405180830381600087803b15801561308c57600080fd5b505af11580156130a0573d6000803e3d6000fd5b505050506040513d601f19601f820116820180604052508101906130c491906143e1565b50818160040160008282546130d99190614a28565b9091555050505050565b6011546040516331a9108f60e11b81526004810184905233916001600160a01b031690636352211e9060240160206040518083038186803b15801561312757600080fd5b505afa15801561313b573d6000803e3d6000fd5b505050506040513d601f19601f8201168201806040525081019061315f9190614276565b6001600160a01b0316146131855760405162461bcd60e51b81526004016112029061483a565b6000828152600d6020526040908190209051630c66c75560e21b815260048101919091526024810182905273__$56fc4e5f3f11a8c61fa94696167f06073e$__9063319b1d5490604401612b88565b600154604051637b5f398960e01b815260048101839052620100009091046001600160a01b031690637b5f39899060240160206040518083038186803b15801561321d57600080fd5b505afa158015613231573d6000803e3d6000fd5b505050506040513d601f19601f8201168201806040525081019061325591906143e1565b6132a15760405162461bcd60e51b815260206004820152601860248201527f546f6b656e206973206e6f74207265636f76657261626c6500000000000000006044820152606401611202565b6132ab8133611c8a565b6132c75760405162461bcd60e51b81526004016112029061483a565b6009546132e9906001600160a01b0316333069021e19e0c9bab2400000613e05565b6000818152600d60205260409081902069021e19e0c9bab2400000600191820155549051630532ab5d60e11b815260048101839052620100009091046001600160a01b031690630a6556ba906024015b600060405180830381600087803b15801561335357600080fd5b505af115801561196d573d6000803e3d6000fd5b60008281526020819052604090206001015461338381336137f2565b6113af838361393d565b60008181526006602052604081205460ff1680156134225750601154604051634f558e7960e01b8152600481018490526001600160a01b0390911690634f558e799060240160206040518083038186803b1580156133ea57600080fd5b505afa1580156133fe573d6000803e3d6000fd5b505050506040513d601f19601f8201168201806040525081019061342291906143e1565b80156134ce5750600760009054906101000a90046001600160a01b03166001600160a01b031663766873326040518163ffffffff1660e01b815260040160206040518083038186803b15801561347757600080fd5b505afa15801561348b573d6000803e3d6000fd5b505050506040513d601f19601f820116820180604052508101906134af9190614415565b6000838152600d60205260409020600601546134cb9042614a28565b10155b80156135dc5750600760009054906101000a90046001600160a01b03166001600160a01b031663b94d25ce6040518163ffffffff1660e01b815260040160206040518083038186803b15801561352357600080fd5b505afa158015613537573d6000803e3d6000fd5b505050506040513d601f19601f8201168201806040525081019061355b9190614415565b6009546012546040516370a0823160e01b81526001600160a01b0391821660048201529116906370a082319060240160206040518083038186803b1580156135a257600080fd5b505afa1580156135b6573d6000803e3d6000fd5b505050506040513d601f19601f820116820180604052508101906135da9190614415565b115b801561091b57506000828152600d6020526040902054151561091b565b6011546040516331a9108f60e11b81526004810184905233916001600160a01b031690636352211e9060240160206040518083038186803b15801561363d57600080fd5b505afa158015613651573d6000803e3d6000fd5b505050506040513d601f19601f820116820180604052508101906136759190614276565b6001600160a01b0316146136cb5760405162461bcd60e51b815260206004820152601760248201527f4f6e6c79206f776e65722063616e20696e6372656173650000000000000000006044820152606401611202565b6000828152600d6020526040908190209051633e8626f560e11b815260048101919091526024810182905273__$56fc4e5f3f11a8c61fa94696167f06073e$__90637d0c4dea9060440160006040518083038186803b15801561372d57600080fd5b505af4158015613741573d6000803e3d6000fd5b5050506000838152600d602052604090206001015415159050611702576001546040516316bfb45760e11b815260048101849052620100009091046001600160a01b031690632d7f68ae90602401600060405180830381600087803b1580156137a957600080fd5b505af1158015612bb4573d6000803e3d6000fd5b60006001600160e01b03198216637965db0b60e01b148061091b57506301ffc9a760e01b6001600160e01b031983161461091b565b6137fc8282612f4a565b61170257613814816001600160a01b03166014613e26565b61381f836020613e26565b60405160200161383092919061476a565b60408051601f198184030181529082905262461bcd60e51b825261120291600401614827565b6040516001600160a01b0383166024820152604481018290526113af90849063a9059cbb60e01b906064015b60408051601f198184030181529190526020810180516001600160e01b03166001600160e01b031990931692909217909152614007565b6138c38282612f4a565b611702576000828152602081815260408083206001600160a01b03851684529091529020805460ff191660011790556138f93390565b6001600160a01b0316816001600160a01b0316837f2f8788117e7eff1d82e926ec794901d17c78024a50270940304540a733656f0d60405160405180910390a45050565b6139478282612f4a565b15611702576000828152602081815260408083206001600160a01b0385168085529252808320805460ff1916905551339285917ff6391f5c32d9c69d2a47ea670b442974b53935d1edc7fd64eb21e047a839171b9190a45050565b6000818152600d60205260408120600281015460018201549192916139c791906149d1565b905060008060006139d786612e81565b925092509250600069021e19e0c9bab24000008510613a005769021e19e0c9bab2400000613a02565b845b600954604051630852cd8d60e31b8152600481018390529192506001600160a01b0316906342966c6890602401600060405180830381600087803b158015613a4957600080fd5b505af1158015613a5d573d6000803e3d6000fd5b505050506000821115613c2d576009546013546001600160a01b039182169163395093519116613a978469021e19e0c9bab2400000614a28565b6040516001600160e01b031960e085901b1681526001600160a01b0390921660048301526024820152604401602060405180830381600087803b158015613add57600080fd5b505af1158015613af1573d6000803e3d6000fd5b505050506040513d601f19601f82011682018060405250810190613b1591906143e1565b50601354600b546001600160a01b0390911690635ff44eb9908490613b3a90826149e9565b613b4c90670de0b6b3a7640000614a09565b6040516001600160e01b031960e085901b16815260048101929092526024820152604401600060405180830381600087803b158015613b8a57600080fd5b505af1158015613b9e573d6000803e3d6000fd5b5050600a546013546040516323b872dd60e01b81526001600160a01b0392831694506323b872dd9350613bd9923392169087906004016147df565b602060405180830381600087803b158015613bf357600080fd5b505af1158015613c07573d6000803e3d6000fd5b505050506040513d601f19601f82011682018060405250810190613c2b91906143e1565b505b8215613cb957600a5460405163a9059cbb60e01b8152336004820152602481018590526001600160a01b039091169063a9059cbb90604401602060405180830381600087803b158015613c7f57600080fd5b505af1158015613c93573d6000803e3d6000fd5b505050506040513d601f19601f82011682018060405250810190613cb791906143e1565b505b83156113aa5760095460405163a9059cbb60e01b8152336004820152602481018690526001600160a01b039091169063a9059cbb90604401602060405180830381600087803b158015613d0b57600080fd5b505af1158015613d1f573d6000803e3d6000fd5b505050506040513d601f19601f82011682018060405250810190611c8091906143e1565b6000818152600d6020908152604080832080548452600e83528184205460108452828520818652909352922080546001600160a01b03191633179055613d8a8160016149d1565b82546000908152600e6020526040902055613da4836140d9565b50546000908152600560208181526040808420849055938352600d9052918120818155600181018290556002810182905560038101829055600481018290559182018190556006820155600701805460ff19169055565b61170282826138b9565b612a95846323b872dd60e01b858585604051602401613882939291906147df565b60606000613e35836002614a09565b613e409060026149d1565b6001600160401b03811115613e6557634e487b7160e01b600052604160045260246000fd5b6040519080825280601f01601f191660200182016040528015613e8f576020820181803683370190505b509050600360fc1b81600081518110613eb857634e487b7160e01b600052603260045260246000fd5b60200101906001600160f81b031916908160001a905350600f60fb1b81600181518110613ef557634e487b7160e01b600052603260045260246000fd5b60200101906001600160f81b031916908160001a9053506000613f19846002614a09565b613f249060016149d1565b90505b6001811115613fb8576f181899199a1a9b1b9c1cb0b131b232b360811b85600f1660108110613f6657634e487b7160e01b600052603260045260246000fd5b1a60f81b828281518110613f8a57634e487b7160e01b600052603260045260246000fd5b60200101906001600160f81b031916908160001a90535060049490941c93613fb181614a6b565b9050613f27565b5083156126275760405162461bcd60e51b815260206004820181905260248201527f537472696e67733a20686578206c656e67746820696e73756666696369656e746044820152606401611202565b600061405c826040518060400160405280602081526020017f5361666545524332303a206c6f772d6c6576656c2063616c6c206661696c6564815250856001600160a01b031661410a9092919063ffffffff16565b8051909150156113af578080602001905181019061407a91906143e1565b6113af5760405162461bcd60e51b815260206004820152602a60248201527f5361666545524332303a204552433230206f7065726174696f6e20646964206e6044820152691bdd081cdd58d8d9595960b21b6064820152608401611202565b60115460405163dbf5132560e01b8152600481018390526001600160a01b039091169063dbf5132590602401613339565b6060612e07848460008585843b6141635760405162461bcd60e51b815260206004820152601d60248201527f416464726573733a2063616c6c20746f206e6f6e2d636f6e74726163740000006044820152606401611202565b600080866001600160a01b0316858760405161417f919061474e565b60006040518083038185875af1925050503d80600081146141bc576040519150601f19603f3d011682016040523d82523d6000602084013e6141c1565b606091505b50915091506141d18282866141dc565b979650505050505050565b606083156141eb575081612627565b8251156141fb5782518084602001fd5b8160405162461bcd60e51b81526004016112029190614827565b803561422081614ac3565b919050565b600082601f830112614235578081fd5b8135614248614243826149aa565b61497a565b81815284602083860101111561425c578283fd5b816020850160208301379081016020019190915292915050565b600060208284031215614287578081fd5b815161262781614aae565b600080600080600080600080610100898b0312156142ae578384fd5b88356142b981614aae565b975060208901356142c981614aae565b965060408901356142d981614aae565b955060608901356142e981614aae565b945060808901356142f981614aae565b935060a089013561430981614aae565b925060c089013561431981614aae565b915060e089013561432981614aae565b809150509295985092959890939650565b6000602080838503121561434c578182fd5b82516001600160401b0380821115614362578384fd5b818501915085601f830112614375578384fd5b81518181111561438757614387614a98565b8060051b915061439884830161497a565b8181528481019084860184860187018a10156143b2578788fd5b8795505b838610156143d45780518352600195909501949186019186016143b6565b5098975050505050505050565b6000602082840312156143f2578081fd5b815161262781614ac3565b60006020828403121561440e578081fd5b5035919050565b600060208284031215614426578081fd5b5051919050565b6000806040838503121561443f578182fd5b82359150602083013561445181614aae565b809150509250929050565b600080600083850360c0811215614471578182fd5b843593506080601f1982011215614486578182fd5b50604051608081018181106001600160401b03821117156144a9576144a9614a98565b60405260208501356144ba81614aae565b815260408501356144ca81614aae565b6020820152606085013560408201526080850135600481106144ea578283fd5b606082015291506144fd60a08501614215565b90509250925092565b60008060408385031215614518578182fd5b50508035926020909101359150565b600060208284031215614538578081fd5b81356001600160e01b031981168114612627578182fd5b600060208284031215614560578081fd5b81516001600160401b03811115614575578182fd5b8201601f81018413614585578182fd5b8051614593614243826149aa565b8181528560208385010111156145a7578384fd5b6145b8826020830160208601614a3f565b95945050505050565b600080604083850312156145d3578182fd5b82359150602083013561445181614ac3565b600080604083850312156145f7578182fd5b8235915060208301356001600160401b03811115614613578182fd5b61461f85828601614225565b9150509250929050565b6000806000806080858703121561463e578182fd5b843593506020850135925060408501356001600160401b03811115614661578283fd5b61466d87828801614225565b925050606085013561467e81614aae565b939692955090935050565b600080600080600060a086880312156146a0578283fd5b85359450602086013593506040860135925060608601356146c081614aae565b915060808601356001600160401b038111156146da578182fd5b6146e688828901614225565b9150509295509295909350565b60008060408385031215614705578182fd5b8235915060208301356001600160401b0381168114614451578182fd5b6000815180845261473a816020860160208601614a3f565b601f01601f19169290920160200192915050565b60008251614760818460208701614a3f565b9190910192915050565b7f416363657373436f6e74726f6c3a206163636f756e74200000000000000000008152600083516147a2816017850160208801614a3f565b7001034b99036b4b9b9b4b733903937b6329607d1b60179184019182015283516147d3816028840160208801614a3f565b01602801949350505050565b6001600160a01b039384168152919092166020820152604081019190915260600190565b6001600160a01b0383168152604060208201819052600090612e0790830184614722565b6020815260006126276020830184614722565b60208082526012908201527113db9b1e481bdddb995c88185b1b1bddd95960721b604082015260600190565b60208082526010908201526f546f6b656e206973206c6f636b65642160801b604082015260600190565b600060a082018783526020878185015260a0604085015281875180845260c0860191508289019350845b818110156148df5784516001600160a01b0316835293830193918301916001016148ba565b50506001600160a01b03969096166060850152505050608001529392505050565b828152604060208201526000612e076040830184614722565b6000610100820190508982528860208301528760408301528660608301528560808301528460a08301528360c08301526004831061496757634e487b7160e01b600052602160045260246000fd5b8260e08301529998505050505050505050565b604051601f8201601f191681016001600160401b03811182821017156149a2576149a2614a98565b604052919050565b60006001600160401b038211156149c3576149c3614a98565b50601f01601f191660200190565b600082198211156149e4576149e4614a82565b500190565b600082614a0457634e487b7160e01b81526012600452602481fd5b500490565b6000816000190483118215151615614a2357614a23614a82565b500290565b600082821015614a3a57614a3a614a82565b500390565b60005b83811015614a5a578181015183820152602001614a42565b83811115612a955750506000910152565b600081614a7a57614a7a614a82565b506000190190565b634e487b7160e01b600052601160045260246000fd5b634e487b7160e01b600052604160045260246000fd5b6001600160a01b03811681146126e957600080fd5b80151581146126e957600080fdfeeb4fd9f47c063b511700e1c8e94e2fa4088ffca1fdcef1e60edf1beecd1b2e64a2646970667358221220638e0b37550265eb930e428543283818913c908e2d32c5393ee534f43b4c645a64736f6c63430008040033",
  "libraries": {
    "SyntheticTokenLibrary": "0x7Ad9c9dD4B6aB6a07F7Eb4d76ca94440c433842F"
  },
  "devdoc": {
    "author": "priviprotocol",
    "kind": "dev",
    "methods": {
      "buyJotTokens(uint256,uint256)": {
        "params": {
          "amountToBuy_": "the amount of jots to buy",
          "tokenId_": "the id of the synthetic nft"
        }
      },
      "constructor": {
        "details": "initializes some immutable variables and lock the implementation contract      for further initializations (with the initializer modifier)",
        "params": {
          "randomConsumerAddress_": "the address of the vrf Chainlink node",
          "validatorAddress_": "the address of the polygon validator Chainlink node"
        }
      },
      "decreaseSellingSupply(uint256,uint256)": {
        "details": "caller must be the owner of the NFT",
        "params": {
          "amount_": "the amount of jots to transfer to supply",
          "tokenId_": "the id of the synthetic nft"
        }
      },
      "depositJotTokens(uint256,uint256)": {
        "params": {
          "amountToDeposit_": "the amount of jots to deposit",
          "tokenId_": "the id of the synthetic nft"
        }
      },
      "getFundingLeftAndBuybackAmount(uint256)": {
        "details": "helper for the execute buyback function"
      },
      "getRoleAdmin(bytes32)": {
        "details": "Returns the admin role that controls `role`. See {grantRole} and {revokeRole}. To change a role's admin, use {_setRoleAdmin}."
      },
      "grantRole(bytes32,address)": {
        "details": "Grants `role` to `account`. If `account` had not been already granted `role`, emits a {RoleGranted} event. Requirements: - the caller must have ``role``'s admin role."
      },
      "hasRole(bytes32,address)": {
        "details": "Returns `true` if `account` has been granted `role`."
      },
      "increaseSellingSupply(uint256,uint256)": {
        "details": "caller must be the owner of the NFT",
        "params": {
          "amount_": "the amount of jots to transfer from supply",
          "tokenId_": "the id of the synthetic nft"
        }
      },
      "initialize(address,address,address,address,address,address,address,address)": {
        "details": "initialize the proxy contract",
        "params": {
          "auctionManagerAddress_": "the auctions manager fabric address",
          "erc721address_": "the address of the synthetic erc721 contract handled by this",
          "jotAddress_": "the address of the jot contract for this collection",
          "jotPool_": "the address of the corresponding jot pool",
          "originalCollectionAddress_": "the original collection address",
          "protocol_": "the address of the protocol parameters contract (governance parameters)",
          "redemptionPool_": "the address of the corresponding redemption pool",
          "swapAddress_": "the address of the uniswapV2Pair"
        }
      },
      "processBuybackPriceResponse(bytes32,uint256)": {
        "details": "processes the oracle response for buyback price updates",
        "params": {
          "buybackPrice_": "the new buyback price",
          "requestId_": "the id of the Chainlink request"
        }
      },
      "reassignNFT(uint256,address)": {
        "details": "allows the callback after finishing an auction to reassign the NFT to the winner",
        "params": {
          "newOwner_": "the winner of the auction account",
          "nftId_": "the id of the auctioned synthetic token"
        }
      },
      "register(uint256,uint256,uint256,address,string)": {
        "details": "through this the router can register tokens",
        "params": {
          "metadata_": "the metadata (the ipfs url) of the nft",
          "nftOwner_": "the owner of the synthetic nft",
          "priceFraction_": "the price fraction for buying",
          "supplyToKeep_": "the supply that the owner decides to keep",
          "tokenId_": "the original token id"
        },
        "returns": {
          "syntheticId": "the id of the newly registered token"
        }
      },
      "renounceRole(bytes32,address)": {
        "details": "Revokes `role` from the calling account. Roles are often managed via {grantRole} and {revokeRole}: this function's purpose is to provide a mechanism for accounts to lose their privileges if they are compromised (such as when a trusted device is misplaced). If the calling account had been granted `role`, emits a {RoleRevoked} event. Requirements: - the caller must be `account`."
      },
      "revokeRole(bytes32,address)": {
        "details": "Revokes `role` from `account`. If `account` had been granted `role`, emits a {RoleRevoked} event. Requirements: - the caller must have ``role``'s admin role."
      },
      "supportsInterface(bytes4)": {
        "details": "See {IERC165-supportsInterface}."
      },
      "updatePriceFraction(uint256,uint256)": {
        "details": "caller must be the owner of the NFT",
        "params": {
          "newFractionPrice_": "the new value of the fraction price",
          "tokenId_": "the id of the synthetic nft"
        }
      }
    },
    "stateVariables": {
      "_flips": {
        "details": "mapping the request id from Chainlink with the flip input data"
      },
      "changeNonces": {
        "details": "nonce to count the changes of an original collection token id      in order to avoid double change (with the second one keeping the synthetic playing)"
      },
      "nonces": {
        "details": "the nonce to avoid double verification (quantity of exits for original token id)"
      }
    },
    "title": "synthetic collection abstraction contract",
    "version": 1
  },
  "userdoc": {
    "kind": "user",
    "methods": {
      "AUCTION_MANAGER()": {
        "notice": "role of the auctions manager fabric contract"
      },
      "AuctionsManagerAddress()": {
        "notice": "the address of the auctions manager fabric contract"
      },
      "RANDOM_ORACLE()": {
        "notice": "role of the vrf chainlink oracle"
      },
      "ROUTER()": {
        "notice": "role of the router contract"
      },
      "VALIDATOR_ORACLE()": {
        "notice": "role of the polygon validator chainlink oracle for verifications"
      },
      "buyJotTokens(uint256,uint256)": {
        "notice": "allows the caller to buy jots using the funding token"
      },
      "buyback(uint256)": {
        "notice": "Buy token back. Caller needs to pre-approve a transaction worth the amount returned by the getRequiredFundingForBuyback(uint256 tokenId) function"
      },
      "change(uint256,uint256,string,address)": {
        "notice": "change an NFT for another one of the same collection"
      },
      "decreaseSellingSupply(uint256,uint256)": {
        "notice": "decrease selling supply for a given NFT"
      },
      "depositJotTokens(uint256,uint256)": {
        "notice": "allows the caller to deposit jots"
      },
      "erc721address()": {
        "notice": "Synthetic NFT Address  for this collection"
      },
      "fundingTokenAddress()": {
        "notice": "funding token address"
      },
      "increaseSellingSupply(uint256,uint256)": {
        "notice": "increase selling supply for a given NFT"
      },
      "isSyntheticNFTCreated(uint256)": {
        "notice": "public function. Checks if an NFT has been already fractionalized"
      },
      "isSyntheticNFTFractionalised(uint256)": {
        "notice": "public function. Checks if an NFT has been already fractionalised."
      },
      "jotAddress()": {
        "notice": "jot Address for this collection"
      },
      "originalCollectionAddress()": {
        "notice": "address of the original collection"
      },
      "poolAddress()": {
        "notice": "returns the Quickswap pool address"
      },
      "syntheticProtocolRouterAddress()": {
        "notice": "the address of the protocol router"
      },
      "tokens(uint256)": {
        "notice": "data for each token"
      },
      "updateBuybackPrice()": {
        "notice": "allows users to update buyback price for buyback"
      },
      "updatePriceFraction(uint256,uint256)": {
        "notice": "update the price of a fraction for a given NFT"
      },
      "verify(uint256)": {
        "notice": "this method calls chainlink oracle and         verifies if the NFT has been locked on NFTVaultManager. In addition         gets the metadata of the NFT"
      }
    },
    "version": 1
  },
  "storageLayout": {
    "storage": [
      {
        "astId": 3872,
        "contract": "contracts/polygon/implementations/SyntheticCollectionManager.sol:SyntheticCollectionManager",
        "label": "_roles",
        "offset": 0,
        "slot": "0",
        "type": "t_mapping(t_bytes32,t_struct(RoleData)3867_storage)"
      },
      {
        "astId": 7665,
        "contract": "contracts/polygon/implementations/SyntheticCollectionManager.sol:SyntheticCollectionManager",
        "label": "_initialized",
        "offset": 0,
        "slot": "1",
        "type": "t_bool"
      },
      {
        "astId": 7668,
        "contract": "contracts/polygon/implementations/SyntheticCollectionManager.sol:SyntheticCollectionManager",
        "label": "_initializing",
        "offset": 1,
        "slot": "1",
        "type": "t_bool"
      },
      {
        "astId": 24343,
        "contract": "contracts/polygon/implementations/SyntheticCollectionManager.sol:SyntheticCollectionManager",
        "label": "AuctionsManagerAddress",
        "offset": 2,
        "slot": "1",
        "type": "t_address"
      },
      {
        "astId": 24346,
        "contract": "contracts/polygon/implementations/SyntheticCollectionManager.sol:SyntheticCollectionManager",
        "label": "syntheticProtocolRouterAddress",
        "offset": 0,
        "slot": "2",
        "type": "t_address"
      },
      {
        "astId": 24348,
        "contract": "contracts/polygon/implementations/SyntheticCollectionManager.sol:SyntheticCollectionManager",
        "label": "_swapAddress",
        "offset": 0,
        "slot": "3",
        "type": "t_address"
      },
      {
        "astId": 24354,
        "contract": "contracts/polygon/implementations/SyntheticCollectionManager.sol:SyntheticCollectionManager",
        "label": "_flips",
        "offset": 0,
        "slot": "4",
        "type": "t_mapping(t_bytes32,t_struct(Flip)24276_storage)"
      },
      {
        "astId": 24358,
        "contract": "contracts/polygon/implementations/SyntheticCollectionManager.sol:SyntheticCollectionManager",
        "label": "_originalToSynthetic",
        "offset": 0,
        "slot": "5",
        "type": "t_mapping(t_uint256,t_uint256)"
      },
      {
        "astId": 24362,
        "contract": "contracts/polygon/implementations/SyntheticCollectionManager.sol:SyntheticCollectionManager",
        "label": "canFlip",
        "offset": 0,
        "slot": "6",
        "type": "t_mapping(t_uint256,t_bool)"
      },
      {
        "astId": 24364,
        "contract": "contracts/polygon/implementations/SyntheticCollectionManager.sol:SyntheticCollectionManager",
        "label": "protocol",
        "offset": 0,
        "slot": "7",
        "type": "t_address"
      },
      {
        "astId": 24367,
        "contract": "contracts/polygon/implementations/SyntheticCollectionManager.sol:SyntheticCollectionManager",
        "label": "originalCollectionAddress",
        "offset": 0,
        "slot": "8",
        "type": "t_address"
      },
      {
        "astId": 24370,
        "contract": "contracts/polygon/implementations/SyntheticCollectionManager.sol:SyntheticCollectionManager",
        "label": "jotAddress",
        "offset": 0,
        "slot": "9",
        "type": "t_address"
      },
      {
        "astId": 24373,
        "contract": "contracts/polygon/implementations/SyntheticCollectionManager.sol:SyntheticCollectionManager",
        "label": "fundingTokenAddress",
        "offset": 0,
        "slot": "10",
        "type": "t_address"
      },
      {
        "astId": 24375,
        "contract": "contracts/polygon/implementations/SyntheticCollectionManager.sol:SyntheticCollectionManager",
        "label": "buybackPrice",
        "offset": 0,
        "slot": "11",
        "type": "t_uint256"
      },
      {
        "astId": 24377,
        "contract": "contracts/polygon/implementations/SyntheticCollectionManager.sol:SyntheticCollectionManager",
        "label": "_buybackPriceLastUpdate",
        "offset": 0,
        "slot": "12",
        "type": "t_uint256"
      },
      {
        "astId": 24383,
        "contract": "contracts/polygon/implementations/SyntheticCollectionManager.sol:SyntheticCollectionManager",
        "label": "tokens",
        "offset": 0,
        "slot": "13",
        "type": "t_mapping(t_uint256,t_struct(TokenData)24269_storage)"
      },
      {
        "astId": 24388,
        "contract": "contracts/polygon/implementations/SyntheticCollectionManager.sol:SyntheticCollectionManager",
        "label": "nonces",
        "offset": 0,
        "slot": "14",
        "type": "t_mapping(t_uint256,t_uint256)"
      },
      {
        "astId": 24394,
        "contract": "contracts/polygon/implementations/SyntheticCollectionManager.sol:SyntheticCollectionManager",
        "label": "changeNonces",
        "offset": 0,
        "slot": "15",
        "type": "t_mapping(t_uint256,t_struct(ChangeNonce)24283_storage)"
      },
      {
        "astId": 24400,
        "contract": "contracts/polygon/implementations/SyntheticCollectionManager.sol:SyntheticCollectionManager",
        "label": "ownersByNonce",
        "offset": 0,
        "slot": "16",
        "type": "t_mapping(t_uint256,t_mapping(t_uint256,t_address))"
      },
      {
        "astId": 24403,
        "contract": "contracts/polygon/implementations/SyntheticCollectionManager.sol:SyntheticCollectionManager",
        "label": "erc721address",
        "offset": 0,
        "slot": "17",
        "type": "t_address"
      },
      {
        "astId": 24405,
        "contract": "contracts/polygon/implementations/SyntheticCollectionManager.sol:SyntheticCollectionManager",
        "label": "jotPool",
        "offset": 0,
        "slot": "18",
        "type": "t_address"
      },
      {
        "astId": 24407,
        "contract": "contracts/polygon/implementations/SyntheticCollectionManager.sol:SyntheticCollectionManager",
        "label": "redemptionPool",
        "offset": 0,
        "slot": "19",
        "type": "t_address"
      }
    ],
    "types": {
      "t_address": {
        "encoding": "inplace",
        "label": "address",
        "numberOfBytes": "20"
      },
      "t_bool": {
        "encoding": "inplace",
        "label": "bool",
        "numberOfBytes": "1"
      },
      "t_bytes32": {
        "encoding": "inplace",
        "label": "bytes32",
        "numberOfBytes": "32"
      },
      "t_enum(State)23059": {
        "encoding": "inplace",
        "label": "enum State",
        "numberOfBytes": "1"
      },
      "t_mapping(t_address,t_bool)": {
        "encoding": "mapping",
        "key": "t_address",
        "label": "mapping(address => bool)",
        "numberOfBytes": "32",
        "value": "t_bool"
      },
      "t_mapping(t_bytes32,t_struct(Flip)24276_storage)": {
        "encoding": "mapping",
        "key": "t_bytes32",
        "label": "mapping(bytes32 => struct Flip)",
        "numberOfBytes": "32",
        "value": "t_struct(Flip)24276_storage"
      },
      "t_mapping(t_bytes32,t_struct(RoleData)3867_storage)": {
        "encoding": "mapping",
        "key": "t_bytes32",
        "label": "mapping(bytes32 => struct AccessControl.RoleData)",
        "numberOfBytes": "32",
        "value": "t_struct(RoleData)3867_storage"
      },
      "t_mapping(t_uint256,t_address)": {
        "encoding": "mapping",
        "key": "t_uint256",
        "label": "mapping(uint256 => address)",
        "numberOfBytes": "32",
        "value": "t_address"
      },
      "t_mapping(t_uint256,t_bool)": {
        "encoding": "mapping",
        "key": "t_uint256",
        "label": "mapping(uint256 => bool)",
        "numberOfBytes": "32",
        "value": "t_bool"
      },
      "t_mapping(t_uint256,t_mapping(t_uint256,t_address))": {
        "encoding": "mapping",
        "key": "t_uint256",
        "label": "mapping(uint256 => mapping(uint256 => address))",
        "numberOfBytes": "32",
        "value": "t_mapping(t_uint256,t_address)"
      },
      "t_mapping(t_uint256,t_struct(ChangeNonce)24283_storage)": {
        "encoding": "mapping",
        "key": "t_uint256",
        "label": "mapping(uint256 => struct ChangeNonce)",
        "numberOfBytes": "32",
        "value": "t_struct(ChangeNonce)24283_storage"
      },
      "t_mapping(t_uint256,t_struct(TokenData)24269_storage)": {
        "encoding": "mapping",
        "key": "t_uint256",
        "label": "mapping(uint256 => struct TokenData)",
        "numberOfBytes": "32",
        "value": "t_struct(TokenData)24269_storage"
      },
      "t_mapping(t_uint256,t_uint256)": {
        "encoding": "mapping",
        "key": "t_uint256",
        "label": "mapping(uint256 => uint256)",
        "numberOfBytes": "32",
        "value": "t_uint256"
      },
      "t_struct(ChangeNonce)24283_storage": {
        "encoding": "inplace",
        "label": "struct ChangeNonce",
        "members": [
          {
            "astId": 24278,
            "contract": "contracts/polygon/implementations/SyntheticCollectionManager.sol:SyntheticCollectionManager",
            "label": "nonce",
            "offset": 0,
            "slot": "0",
            "type": "t_uint256"
          },
          {
            "astId": 24280,
            "contract": "contracts/polygon/implementations/SyntheticCollectionManager.sol:SyntheticCollectionManager",
            "label": "newTokenId",
            "offset": 0,
            "slot": "1",
            "type": "t_uint256"
          },
          {
            "astId": 24282,
            "contract": "contracts/polygon/implementations/SyntheticCollectionManager.sol:SyntheticCollectionManager",
            "label": "owner",
            "offset": 0,
            "slot": "2",
            "type": "t_address"
          }
        ],
        "numberOfBytes": "96"
      },
      "t_struct(Flip)24276_storage": {
        "encoding": "inplace",
        "label": "struct Flip",
        "members": [
          {
            "astId": 24271,
            "contract": "contracts/polygon/implementations/SyntheticCollectionManager.sol:SyntheticCollectionManager",
            "label": "tokenId",
            "offset": 0,
            "slot": "0",
            "type": "t_uint256"
          },
          {
            "astId": 24273,
            "contract": "contracts/polygon/implementations/SyntheticCollectionManager.sol:SyntheticCollectionManager",
            "label": "prediction",
            "offset": 0,
            "slot": "1",
            "type": "t_uint64"
          },
          {
            "astId": 24275,
            "contract": "contracts/polygon/implementations/SyntheticCollectionManager.sol:SyntheticCollectionManager",
            "label": "player",
            "offset": 8,
            "slot": "1",
            "type": "t_address"
          }
        ],
        "numberOfBytes": "64"
      },
      "t_struct(RoleData)3867_storage": {
        "encoding": "inplace",
        "label": "struct AccessControl.RoleData",
        "members": [
          {
            "astId": 3864,
            "contract": "contracts/polygon/implementations/SyntheticCollectionManager.sol:SyntheticCollectionManager",
            "label": "members",
            "offset": 0,
            "slot": "0",
            "type": "t_mapping(t_address,t_bool)"
          },
          {
            "astId": 3866,
            "contract": "contracts/polygon/implementations/SyntheticCollectionManager.sol:SyntheticCollectionManager",
            "label": "adminRole",
            "offset": 0,
            "slot": "1",
            "type": "t_bytes32"
          }
        ],
        "numberOfBytes": "64"
      },
      "t_struct(TokenData)24269_storage": {
        "encoding": "inplace",
        "label": "struct TokenData",
        "members": [
          {
            "astId": 24253,
            "contract": "contracts/polygon/implementations/SyntheticCollectionManager.sol:SyntheticCollectionManager",
            "label": "originalTokenID",
            "offset": 0,
            "slot": "0",
            "type": "t_uint256"
          },
          {
            "astId": 24255,
            "contract": "contracts/polygon/implementations/SyntheticCollectionManager.sol:SyntheticCollectionManager",
            "label": "ownerSupply",
            "offset": 0,
            "slot": "1",
            "type": "t_uint256"
          },
          {
            "astId": 24257,
            "contract": "contracts/polygon/implementations/SyntheticCollectionManager.sol:SyntheticCollectionManager",
            "label": "sellingSupply",
            "offset": 0,
            "slot": "2",
            "type": "t_uint256"
          },
          {
            "astId": 24259,
            "contract": "contracts/polygon/implementations/SyntheticCollectionManager.sol:SyntheticCollectionManager",
            "label": "soldSupply",
            "offset": 0,
            "slot": "3",
            "type": "t_uint256"
          },
          {
            "astId": 24261,
            "contract": "contracts/polygon/implementations/SyntheticCollectionManager.sol:SyntheticCollectionManager",
            "label": "liquiditySold",
            "offset": 0,
            "slot": "4",
            "type": "t_uint256"
          },
          {
            "astId": 24263,
            "contract": "contracts/polygon/implementations/SyntheticCollectionManager.sol:SyntheticCollectionManager",
            "label": "fractionPrices",
            "offset": 0,
            "slot": "5",
            "type": "t_uint256"
          },
          {
            "astId": 24265,
            "contract": "contracts/polygon/implementations/SyntheticCollectionManager.sol:SyntheticCollectionManager",
            "label": "lastFlipTime",
            "offset": 0,
            "slot": "6",
            "type": "t_uint256"
          },
          {
            "astId": 24268,
            "contract": "contracts/polygon/implementations/SyntheticCollectionManager.sol:SyntheticCollectionManager",
            "label": "state",
            "offset": 0,
            "slot": "7",
            "type": "t_enum(State)23059"
          }
        ],
        "numberOfBytes": "256"
      },
      "t_uint256": {
        "encoding": "inplace",
        "label": "uint256",
        "numberOfBytes": "32"
      },
      "t_uint64": {
        "encoding": "inplace",
        "label": "uint64",
        "numberOfBytes": "8"
      }
    }
  }
}