{
  "address": "0x6624Efc329069aC9b072682b114422dD5B71c061",
  "abi": [
    {
      "inputs": [
        {
          "internalType": "address",
          "name": "swapAddress_",
          "type": "address"
        },
        {
          "internalType": "address",
          "name": "jot_",
          "type": "address"
        },
        {
          "internalType": "address",
          "name": "jotPool_",
          "type": "address"
        },
        {
          "internalType": "address",
          "name": "collectionManager_",
          "type": "address"
        },
        {
          "internalType": "address",
          "name": "syntheticNFT_",
          "type": "address"
        },
        {
          "internalType": "address",
          "name": "auctionManager_",
          "type": "address"
        },
        {
          "internalType": "address",
          "name": "protocol_",
          "type": "address"
        },
        {
          "internalType": "address",
          "name": "fundingTokenAddress_",
          "type": "address"
        },
        {
          "internalType": "address",
          "name": "randomConsumerAddress_",
          "type": "address"
        },
        {
          "internalType": "address",
          "name": "validatorAddress_",
          "type": "address"
        },
        {
          "internalType": "address",
          "name": "perpetualPoolLiteAddress_",
          "type": "address"
        },
        {
          "internalType": "address",
          "name": "oracleAddress_",
          "type": "address"
        }
      ],
      "stateMutability": "nonpayable",
      "type": "constructor"
    },
    {
      "anonymous": false,
      "inputs": [
        {
          "indexed": false,
          "internalType": "uint256",
          "name": "collectionManagerID",
          "type": "uint256"
        },
        {
          "indexed": false,
          "internalType": "address",
          "name": "collectionManagerAddress",
          "type": "address"
        },
        {
          "indexed": false,
          "internalType": "address",
          "name": "jotAddress",
          "type": "address"
        },
        {
          "indexed": false,
          "internalType": "address",
          "name": "jotPoolAddress",
          "type": "address"
        },
        {
          "indexed": false,
          "internalType": "address",
          "name": "syntheticNFTAddress",
          "type": "address"
        },
        {
          "indexed": false,
          "internalType": "address",
          "name": "quickSwapAddress",
          "type": "address"
        },
        {
          "indexed": false,
          "internalType": "address",
          "name": "auctionAddress",
          "type": "address"
        }
      ],
      "name": "CollectionManagerRegistered",
      "type": "event"
    },
    {
      "anonymous": false,
      "inputs": [
        {
          "indexed": true,
          "internalType": "address",
          "name": "previousOwner",
          "type": "address"
        },
        {
          "indexed": true,
          "internalType": "address",
          "name": "newOwner",
          "type": "address"
        }
      ],
      "name": "OwnershipTransferred",
      "type": "event"
    },
    {
      "anonymous": false,
      "inputs": [
        {
          "indexed": true,
          "internalType": "bytes32",
          "name": "role",
          "type": "bytes32"
        },
        {
          "indexed": true,
          "internalType": "bytes32",
          "name": "previousAdminRole",
          "type": "bytes32"
        },
        {
          "indexed": true,
          "internalType": "bytes32",
          "name": "newAdminRole",
          "type": "bytes32"
        }
      ],
      "name": "RoleAdminChanged",
      "type": "event"
    },
    {
      "anonymous": false,
      "inputs": [
        {
          "indexed": true,
          "internalType": "bytes32",
          "name": "role",
          "type": "bytes32"
        },
        {
          "indexed": true,
          "internalType": "address",
          "name": "account",
          "type": "address"
        },
        {
          "indexed": true,
          "internalType": "address",
          "name": "sender",
          "type": "address"
        }
      ],
      "name": "RoleGranted",
      "type": "event"
    },
    {
      "anonymous": false,
      "inputs": [
        {
          "indexed": true,
          "internalType": "bytes32",
          "name": "role",
          "type": "bytes32"
        },
        {
          "indexed": true,
          "internalType": "address",
          "name": "account",
          "type": "address"
        },
        {
          "indexed": true,
          "internalType": "address",
          "name": "sender",
          "type": "address"
        }
      ],
      "name": "RoleRevoked",
      "type": "event"
    },
    {
      "anonymous": false,
      "inputs": [
        {
          "indexed": false,
          "internalType": "address",
          "name": "collectionAddress",
          "type": "address"
        },
        {
          "indexed": false,
          "internalType": "uint256",
          "name": "syntheticID",
          "type": "uint256"
        },
        {
          "indexed": false,
          "internalType": "uint256",
          "name": "previousID",
          "type": "uint256"
        },
        {
          "indexed": false,
          "internalType": "uint256",
          "name": "newID",
          "type": "uint256"
        }
      ],
      "name": "TokenChanged",
      "type": "event"
    },
    {
      "anonymous": false,
      "inputs": [
        {
          "indexed": false,
          "internalType": "address",
          "name": "collectionManagerAddress",
          "type": "address"
        },
        {
          "indexed": false,
          "internalType": "uint256",
          "name": "collectionManagerID",
          "type": "uint256"
        },
        {
          "indexed": false,
          "internalType": "uint256",
          "name": "syntheticTokenId",
          "type": "uint256"
        }
      ],
      "name": "TokenRegistered",
      "type": "event"
    },
    {
      "inputs": [],
      "name": "DEFAULT_ADMIN_ROLE",
      "outputs": [
        {
          "internalType": "bytes32",
          "name": "",
          "type": "bytes32"
        }
      ],
      "stateMutability": "view",
      "type": "function"
    },
    {
      "inputs": [],
      "name": "ORACLE",
      "outputs": [
        {
          "internalType": "bytes32",
          "name": "",
          "type": "bytes32"
        }
      ],
      "stateMutability": "view",
      "type": "function"
    },
    {
      "inputs": [
        {
          "internalType": "address",
          "name": "collection",
          "type": "address"
        },
        {
          "internalType": "uint256",
          "name": "syntheticID",
          "type": "uint256"
        },
        {
          "internalType": "uint256",
          "name": "newOriginalTokenID",
          "type": "uint256"
        }
      ],
      "name": "changeNFT",
      "outputs": [],
      "stateMutability": "nonpayable",
      "type": "function"
    },
    {
      "inputs": [
        {
          "internalType": "address",
          "name": "collection",
          "type": "address"
        }
      ],
      "name": "getCollectionID",
      "outputs": [
        {
          "internalType": "uint256",
          "name": "",
          "type": "uint256"
        }
      ],
      "stateMutability": "view",
      "type": "function"
    },
    {
      "inputs": [
        {
          "internalType": "address",
          "name": "collection",
          "type": "address"
        }
      ],
      "name": "getCollectionManagerAddress",
      "outputs": [
        {
          "internalType": "address",
          "name": "",
          "type": "address"
        }
      ],
      "stateMutability": "view",
      "type": "function"
    },
    {
      "inputs": [
        {
          "internalType": "uint256",
          "name": "collectionID",
          "type": "uint256"
        }
      ],
      "name": "getCollectionManagerAddress",
      "outputs": [
        {
          "internalType": "address",
          "name": "",
          "type": "address"
        }
      ],
      "stateMutability": "view",
      "type": "function"
    },
    {
      "inputs": [
        {
          "internalType": "address",
          "name": "collection",
          "type": "address"
        }
      ],
      "name": "getJotPoolAddress",
      "outputs": [
        {
          "internalType": "address",
          "name": "",
          "type": "address"
        }
      ],
      "stateMutability": "view",
      "type": "function"
    },
    {
      "inputs": [
        {
          "internalType": "address",
          "name": "collection",
          "type": "address"
        }
      ],
      "name": "getJotsAddress",
      "outputs": [
        {
          "internalType": "address",
          "name": "",
          "type": "address"
        }
      ],
      "stateMutability": "view",
      "type": "function"
    },
    {
      "inputs": [
        {
          "internalType": "uint256",
          "name": "collectionID",
          "type": "uint256"
        }
      ],
      "name": "getOriginalCollectionAddress",
      "outputs": [
        {
          "internalType": "address",
          "name": "",
          "type": "address"
        }
      ],
      "stateMutability": "view",
      "type": "function"
    },
    {
      "inputs": [
        {
          "internalType": "bytes32",
          "name": "role",
          "type": "bytes32"
        }
      ],
      "name": "getRoleAdmin",
      "outputs": [
        {
          "internalType": "bytes32",
          "name": "",
          "type": "bytes32"
        }
      ],
      "stateMutability": "view",
      "type": "function"
    },
    {
      "inputs": [
        {
          "internalType": "bytes32",
          "name": "role",
          "type": "bytes32"
        },
        {
          "internalType": "address",
          "name": "account",
          "type": "address"
        }
      ],
      "name": "grantRole",
      "outputs": [],
      "stateMutability": "nonpayable",
      "type": "function"
    },
    {
      "inputs": [
        {
          "internalType": "bytes32",
          "name": "role",
          "type": "bytes32"
        },
        {
          "internalType": "address",
          "name": "account",
          "type": "address"
        }
      ],
      "name": "hasRole",
      "outputs": [
        {
          "internalType": "bool",
          "name": "",
          "type": "bool"
        }
      ],
      "stateMutability": "view",
      "type": "function"
    },
    {
      "inputs": [
        {
          "internalType": "address",
          "name": "collection",
          "type": "address"
        },
        {
          "internalType": "uint256",
          "name": "tokenId",
          "type": "uint256"
        }
      ],
      "name": "isNFTVerified",
      "outputs": [
        {
          "internalType": "bool",
          "name": "",
          "type": "bool"
        }
      ],
      "stateMutability": "view",
      "type": "function"
    },
    {
      "inputs": [
        {
          "internalType": "address",
          "name": "collection",
          "type": "address"
        }
      ],
      "name": "isSyntheticCollectionRegistered",
      "outputs": [
        {
          "internalType": "bool",
          "name": "",
          "type": "bool"
        }
      ],
      "stateMutability": "view",
      "type": "function"
    },
    {
      "inputs": [
        {
          "internalType": "address",
          "name": "collection",
          "type": "address"
        },
        {
          "internalType": "uint256",
          "name": "tokenId",
          "type": "uint256"
        }
      ],
      "name": "isSyntheticNFTCreated",
      "outputs": [
        {
          "internalType": "bool",
          "name": "",
          "type": "bool"
        }
      ],
      "stateMutability": "view",
      "type": "function"
    },
    {
      "inputs": [],
      "name": "oracleAddress",
      "outputs": [
        {
          "internalType": "address",
          "name": "",
          "type": "address"
        }
      ],
      "stateMutability": "view",
      "type": "function"
    },
    {
      "inputs": [],
      "name": "owner",
      "outputs": [
        {
          "internalType": "address",
          "name": "",
          "type": "address"
        }
      ],
      "stateMutability": "view",
      "type": "function"
    },
    {
      "inputs": [],
      "name": "protocolVaults",
      "outputs": [
        {
          "internalType": "uint256",
          "name": "_value",
          "type": "uint256"
        }
      ],
      "stateMutability": "view",
      "type": "function"
    },
    {
      "inputs": [
        {
          "internalType": "address",
          "name": "collection",
          "type": "address"
        },
        {
          "internalType": "uint256",
          "name": "tokenId",
          "type": "uint256"
        },
        {
          "internalType": "uint256",
          "name": "supplyToKeep",
          "type": "uint256"
        },
        {
          "internalType": "uint256",
          "name": "priceFraction",
          "type": "uint256"
        },
        {
          "internalType": "string",
          "name": "originalName",
          "type": "string"
        },
        {
          "internalType": "string",
          "name": "originalSymbol",
          "type": "string"
        }
      ],
      "name": "registerNFT",
      "outputs": [],
      "stateMutability": "nonpayable",
      "type": "function"
    },
    {
      "inputs": [],
      "name": "renounceOwnership",
      "outputs": [],
      "stateMutability": "nonpayable",
      "type": "function"
    },
    {
      "inputs": [
        {
          "internalType": "bytes32",
          "name": "role",
          "type": "bytes32"
        },
        {
          "internalType": "address",
          "name": "account",
          "type": "address"
        }
      ],
      "name": "renounceRole",
      "outputs": [],
      "stateMutability": "nonpayable",
      "type": "function"
    },
    {
      "inputs": [
        {
          "internalType": "bytes32",
          "name": "role",
          "type": "bytes32"
        },
        {
          "internalType": "address",
          "name": "account",
          "type": "address"
        }
      ],
      "name": "revokeRole",
      "outputs": [],
      "stateMutability": "nonpayable",
      "type": "function"
    },
    {
      "inputs": [
        {
          "internalType": "bytes4",
          "name": "interfaceId",
          "type": "bytes4"
        }
      ],
      "name": "supportsInterface",
      "outputs": [
        {
          "internalType": "bool",
          "name": "",
          "type": "bool"
        }
      ],
      "stateMutability": "view",
      "type": "function"
    },
    {
      "inputs": [],
      "name": "swapAddress",
      "outputs": [
        {
          "internalType": "address",
          "name": "",
          "type": "address"
        }
      ],
      "stateMutability": "view",
      "type": "function"
    },
    {
      "inputs": [
        {
          "internalType": "address",
          "name": "newOwner",
          "type": "address"
        }
      ],
      "name": "transferOwnership",
      "outputs": [],
      "stateMutability": "nonpayable",
      "type": "function"
    },
    {
      "inputs": [
        {
          "internalType": "address",
          "name": "collection",
          "type": "address"
        },
        {
          "internalType": "uint256",
          "name": "tokenId",
          "type": "uint256"
        }
      ],
      "name": "verifyNFT",
      "outputs": [],
      "stateMutability": "nonpayable",
      "type": "function"
    }
  ],
  "transactionHash": "0x25dc85170db94c4a376059f4bfdc89196cb41e8b508b84ef369db738687ca806",
  "args": [
    "0x4CeBfcDA07A08B1C7169E5eb77AC117FF87EEae9",
    "0x873F0165C1F4Cf810345ab32Ef78bFB3B5F9A802",
    "0x766c4b4B076fa9270B69438211Fd2159dAcC795B",
    "0x531966F5B6825150cc875d0ae70f83fBd9D8E03e",
    "0x2d237ac6A5D3B9dc5cBFD26FD954502Fc451F582",
    "0x9aA7136C2FB4008489B14102ebFcEe1d1cF97fA1",
    "0xB476F1D01a301F322e567F87A089F4b5EC2d6Ee3",
    "0x873F0165C1F4Cf810345ab32Ef78bFB3B5F9A802",
    "0x57b32ecF8Ea19203E88c057451A75AE0F08C9c2e",
    "0x100bbBc6247095Cc603E30D79EA52641Ba8a57d2",
    "0xE409e138362Ea53125e46732f17d4E758c06dDEe",
    "0xC5324aE5b70712F24602b5b2b13618356c44B965"
  ],
  "solcInputHash": "542df11a51384663afab6084c0b3d00f",
  "bytecode": "0x60806040523480156200001157600080fd5b506040516200245638038062002456833981016040819052620000349162000246565b6200003f3362000127565b601080546001600160a01b03199081166001600160a01b038f8116919091179092556002805482168e84161790556003805482168d84161790556004805482168c84161790556005805482168b84161790556006805482168a8416179055600780548216898416179055600880548216888416179055600980548216878416179055600a80548216868416179055600b80548216858416179055600c8054909116918316919091179055620001157f352d05fe3946dbe49277552ba941e744d5a96d9c60bc1ba0ea5f1d3ae000f7c88262000179565b5050505050505050505050506200033a565b600180546001600160a01b038381166001600160a01b0319831681179093556040519116919082907f8be0079c531659141344cd1fd0a4f28419497f9722a3daafe3b4186f6b6457e090600090a35050565b62000185828262000189565b5050565b6000828152602081815260408083206001600160a01b038516845290915290205460ff1662000185576000828152602081815260408083206001600160a01b03851684529091529020805460ff19166001179055620001e53390565b6001600160a01b0316816001600160a01b0316837f2f8788117e7eff1d82e926ec794901d17c78024a50270940304540a733656f0d60405160405180910390a45050565b80516001600160a01b03811681146200024157600080fd5b919050565b6000806000806000806000806000806000806101808d8f03121562000269578788fd5b620002748d62000229565b9b506200028460208e0162000229565b9a506200029460408e0162000229565b9950620002a460608e0162000229565b9850620002b460808e0162000229565b9750620002c460a08e0162000229565b9650620002d460c08e0162000229565b9550620002e460e08e0162000229565b9450620002f56101008e0162000229565b9350620003066101208e0162000229565b9250620003176101408e0162000229565b9150620003286101608e0162000229565b90509295989b509295989b509295989b565b61210c806200034a6000396000f3fe608060405234801561001057600080fd5b506004361061018e5760003560e01c806380f6d782116100de578063c3e7e12d11610097578063d547741f11610071578063d547741f14610421578063f1edbfa514610434578063f2fde38b14610447578063ff8efe571461045a57600080fd5b8063c3e7e12d146103a0578063cf479511146103b3578063d33b1d93146103e457600080fd5b806380f6d7821461033b5780638da5cb5b1461034e57806391d148541461035f57806398a3398414610372578063a217fddf14610385578063a89ae4ba1461038d57600080fd5b806338013f021161014b578063622203be11610125578063622203be146102c8578063715018a6146102f15780637546d985146102f95780637690aff61461032857600080fd5b806338013f021461025f578063509f64501461028657806356f4f1f0146102b557600080fd5b806301ffc9a71461019357806306c8d971146101bb5780630be68a71146101d3578063248a9ca3146102145780632f2ff15d1461023757806336568abe1461024c575b600080fd5b6101a66101a1366004611db7565b61046d565b60405190151581526020015b60405180910390f35b600f546101c59081565b6040519081526020016101b2565b6101fc6101e1366004611d58565b6000908152600e60205260409020546001600160a01b031690565b6040516001600160a01b0390911681526020016101b2565b6101c5610222366004611d58565b60009081526020819052604090206001015490565b61024a610245366004611d88565b6104a4565b005b61024a61025a366004611d88565b6104cf565b6101c57f352d05fe3946dbe49277552ba941e744d5a96d9c60bc1ba0ea5f1d3ae000f7c881565b6101fc610294366004611c12565b6001600160a01b039081166000908152600d60205260409020600301541690565b6101fc6102c3366004611c12565b610552565b6101c56102d6366004611c12565b6001600160a01b03166000908152600d602052604090205490565b61024a610573565b6101fc610307366004611c12565b6001600160a01b039081166000908152600d60205260409020600201541690565b6101a6610336366004611c4a565b6105d9565b6010546101fc906001600160a01b031681565b6001546001600160a01b03166101fc565b6101a661036d366004611d88565b6106b4565b61024a610380366004611ca9565b6106dd565b6101c5600081565b600c546101fc906001600160a01b031681565b6101a66103ae366004611c4a565b61122e565b6101a66103c1366004611c12565b6001600160a01b039081166000908152600d602052604090206001015416151590565b6101fc6103f2366004611d58565b6000908152600e60209081526040808320546001600160a01b039081168452600d909252909120600101541690565b61024a61042f366004611d88565b6113aa565b61024a610442366004611c4a565b6113d0565b61024a610455366004611c12565b6114b4565b61024a610468366004611c75565b61157f565b60006001600160e01b03198216637965db0b60e01b148061049e57506301ffc9a760e01b6001600160e01b03198316145b92915050565b6000828152602081905260409020600101546104c081336116cd565b6104ca8383611731565b505050565b6001600160a01b03811633146105445760405162461bcd60e51b815260206004820152602f60248201527f416363657373436f6e74726f6c3a2063616e206f6e6c792072656e6f756e636560448201526e103937b632b9903337b91039b2b63360891b60648201526084015b60405180910390fd5b61054e82826117b5565b5050565b6001600160a01b039081166000908152600d60205260409020600101541690565b6001546001600160a01b031633146105cd5760405162461bcd60e51b815260206004820181905260248201527f4f776e61626c653a2063616c6c6572206973206e6f7420746865206f776e6572604482015260640161053b565b6105d7600061181a565b565b60006105e5838361122e565b6106265760405162461bcd60e51b8152602060048201526012602482015271139195081b9bdd081c9959da5cdd195c995960721b604482015260640161053b565b600061063184610552565b6040516337b6d96b60e01b8152600481018590529091506001600160a01b038216906337b6d96b9060240160206040518083038186803b15801561067457600080fd5b505afa158015610688573d6000803e3d6000fd5b505050506040513d601f19601f820116820180604052508101906106ac9190611d38565b949350505050565b6000918252602082815260408084206001600160a01b0393909316845291905290205460ff1690565b6001600160a01b0386166107285760405162461bcd60e51b815260206004820152601260248201527124b73b30b634b21031b7b63632b1ba34b7b760711b604482015260640161053b565b600080610734600f5490565b6001600160a01b03808a166000908152600d60205260409020600101549192501661112757600254600090610771906001600160a01b031661186c565b9050806001600160a01b0316638f15b414866040516020016107939190611e0b565b604051602081830303815290604052866040516020016107b39190611f15565b60408051808303601f190181529082905260105460085460e086901b6001600160e01b03191684526107f894936001600160a01b039283169290911690600401611f92565b600060405180830381600087803b15801561081257600080fd5b505af1158015610826573d6000803e3d6000fd5b50506003546000925061084291506001600160a01b031661186c565b60405163189acdbd60e31b81526001600160a01b0384811660048301529192509082169063c4d66de890602401600060405180830381600087803b15801561088957600080fd5b505af115801561089d573d6000803e3d6000fd5b5050600554600092506108b991506001600160a01b031661186c565b6004549091506108d1906001600160a01b031661186c565b94506000859050806001600160a01b03166335876476858e85600660009054906101000a90046001600160a01b0316600760009054906101000a90046001600160a01b0316600860009054906101000a90046001600160a01b03168a6040518863ffffffff1660e01b815260040161098b97969594939291906001600160a01b03978816815295871660208701529386166040860152918516606085015284166080840152831660a083015290911660c082015260e00190565b600060405180830381600087803b1580156109a557600080fd5b505af11580156109b9573d6000803e3d6000fd5b505060065460408051630e61f93f60e01b815290516001600160a01b039092169350632f2ff15d92508391630e61f93f91600480820192602092909190829003018186803b158015610a0a57600080fd5b505afa158015610a1e573d6000803e3d6000fd5b505050506040513d601f19601f82011682018060405250810190610a429190611d70565b6040516001600160e01b031960e084901b16815260048101919091526001600160a01b0389166024820152604401600060405180830381600087803b158015610a8a57600080fd5b505af1158015610a9e573d6000803e3d6000fd5b50505050806001600160a01b0316632f2ff15d826001600160a01b03166358e8bcb76040518163ffffffff1660e01b815260040160206040518083038186803b158015610aea57600080fd5b505afa158015610afe573d6000803e3d6000fd5b505050506040513d601f19601f82011682018060405250810190610b229190611d70565b60095460405160e084901b6001600160e01b031916815260048101929092526001600160a01b03166024820152604401600060405180830381600087803b158015610b6c57600080fd5b505af1158015610b80573d6000803e3d6000fd5b50505050806001600160a01b0316632f2ff15d826001600160a01b031663abacac256040518163ffffffff1660e01b815260040160206040518083038186803b158015610bcc57600080fd5b505afa158015610be0573d6000803e3d6000fd5b505050506040513d601f19601f82011682018060405250810190610c049190611d70565b600a5460405160e084901b6001600160e01b031916815260048101929092526001600160a01b03166024820152604401600060405180830381600087803b158015610c4e57600080fd5b505af1158015610c62573d6000803e3d6000fd5b50505050836001600160a01b0316632f2ff15d856001600160a01b031663fe6d81246040518163ffffffff1660e01b815260040160206040518083038186803b158015610cae57600080fd5b505afa158015610cc2573d6000803e3d6000fd5b505050506040513d601f19601f82011682018060405250810190610ce69190611d70565b6040516001600160e01b031960e084901b16815260048101919091526001600160a01b0389166024820152604401600060405180830381600087803b158015610d2e57600080fd5b505af1158015610d42573d6000803e3d6000fd5b5050604051635df8122f60e01b81526001600160a01b038981166004830152868116602483015287169250635df8122f9150604401600060405180830381600087803b158015610d9157600080fd5b505af1158015610da5573d6000803e3d6000fd5b50505050816001600160a01b031663077f224a89604051602001610dc99190611e68565b60405160208183030381529060405289604051602001610de99190611e3d565b604051602081830303815290604052896040518463ffffffff1660e01b8152600401610e1793929190611f54565b600060405180830381600087803b158015610e3157600080fd5b505af1158015610e45573d6000803e3d6000fd5b505050506040518060e00160405280868152602001876001600160a01b03168152602001856001600160a01b03168152602001846001600160a01b03168152602001836001600160a01b0316815260200189815260200188815250600d60008e6001600160a01b03166001600160a01b031681526020019081526020016000206000820151816000015560208201518160010160006101000a8154816001600160a01b0302191690836001600160a01b0316021790555060408201518160020160006101000a8154816001600160a01b0302191690836001600160a01b0316021790555060608201518160030160006101000a8154816001600160a01b0302191690836001600160a01b0316021790555060808201518160040160006101000a8154816001600160a01b0302191690836001600160a01b0316021790555060a0820151816005019080519060200190610f9f929190611af2565b5060c08201518051610fbb916006840191602090910190611af2565b5050506000858152600e60205260409081902080546001600160a01b0319166001600160a01b038981169182179092556009549251636085579360e11b8152600481019190915291169063c10aaf2690602401600060405180830381600087803b15801561102857600080fd5b505af115801561103c573d6000803e3d6000fd5b5050600a54604051636085579360e11b81526001600160a01b038a81166004830152909116925063c10aaf269150602401600060405180830381600087803b15801561108757600080fd5b505af115801561109b573d6000803e3d6000fd5b5050601054600654604080518a81526001600160a01b038c811660208301528a8116828401528981166060830152888116608083015293841660a08201529290911660c0830152517fdb595a2e01de1a3565029850b15a01fe70d01ff6821102bf11662390f1adf9b393509081900360e0019150a161111e600f80546001019055565b50505050611148565b6001600160a01b038089166000908152600d60205260409020600101541691505b604051633ea9715960e21b815260048101889052602481018790526044810186905282906000906001600160a01b0383169063faa5c56490606401602060405180830381600087803b15801561119d57600080fd5b505af11580156111b1573d6000803e3d6000fd5b505050506040513d601f19601f820116820180604052508101906111d59190611d70565b604080516001600160a01b0387168152602081018690529081018290529091507f74700b9b42b2dd56732c1bf098db59ffb8e972345b7d1d6dc2fe9cbca8bc22ec9060600160405180910390a150505050505050505050565b6001600160a01b038083166000908152600d602052604081206001015490911661129a5760405162461bcd60e51b815260206004820152601960248201527f436f6c6c656374696f6e206e6f74207265676973746572656400000000000000604482015260640161053b565b6001600160a01b038084166000908152600d60209081526040808320600101548151634c4b206b60e01b815291519416938492634c4b206b9260048082019391829003018186803b1580156112ee57600080fd5b505afa158015611302573d6000803e3d6000fd5b505050506040513d601f19601f820116820180604052508101906113269190611c2e565b604051634f558e7960e01b8152600481018690529091506001600160a01b03821690634f558e799060240160206040518083038186803b15801561136957600080fd5b505afa15801561137d573d6000803e3d6000fd5b505050506040513d601f19601f820116820180604052508101906113a19190611d38565b95945050505050565b6000828152602081905260409020600101546113c681336116cd565b6104ca83836117b5565b7f352d05fe3946dbe49277552ba941e744d5a96d9c60bc1ba0ea5f1d3ae000f7c86113fb81336116cd565b611405838361122e565b6114465760405162461bcd60e51b8152602060048201526012602482015271139195081b9bdd081c9959da5cdd195c995960721b604482015260640161053b565b600061145184610552565b604051638753367f60e01b8152600481018590529091506001600160a01b03821690638753367f90602401600060405180830381600087803b15801561149657600080fd5b505af11580156114aa573d6000803e3d6000fd5b5050505050505050565b6001546001600160a01b0316331461150e5760405162461bcd60e51b815260206004820181905260248201527f4f776e61626c653a2063616c6c6572206973206e6f7420746865206f776e6572604482015260640161053b565b6001600160a01b0381166115735760405162461bcd60e51b815260206004820152602660248201527f4f776e61626c653a206e6577206f776e657220697320746865207a65726f206160448201526564647265737360d01b606482015260840161053b565b61157c8161181a565b50565b600061158a84610552565b6040516260dfe560e71b81526004810185905290915081906000906001600160a01b0383169063306ff2809060240160206040518083038186803b1580156115d157600080fd5b505afa1580156115e5573d6000803e3d6000fd5b505050506040513d601f19601f820116820180604052508101906116099190611d70565b60405163019eee0960e41b815260048101879052602481018690523360448201529091506001600160a01b038316906319eee09090606401600060405180830381600087803b15801561165b57600080fd5b505af115801561166f573d6000803e3d6000fd5b5050604080516001600160a01b038a16815260208101899052908101849052606081018790527f40e9541ee89adfc7044a77557cd8350059f0a055e154407df3accf210b0116df9250608001905060405180910390a1505050505050565b6116d782826106b4565b61054e576116ef816001600160a01b03166014611909565b6116fa836020611909565b60405160200161170b929190611ea0565b60408051601f198184030181529082905262461bcd60e51b825261053b91600401611f41565b61173b82826106b4565b61054e576000828152602081815260408083206001600160a01b03851684529091529020805460ff191660011790556117713390565b6001600160a01b0316816001600160a01b0316837f2f8788117e7eff1d82e926ec794901d17c78024a50270940304540a733656f0d60405160405180910390a45050565b6117bf82826106b4565b1561054e576000828152602081815260408083206001600160a01b0385168085529252808320805460ff1916905551339285917ff6391f5c32d9c69d2a47ea670b442974b53935d1edc7fd64eb21e047a839171b9190a45050565b600180546001600160a01b038381166001600160a01b0319831681179093556040519116919082907f8be0079c531659141344cd1fd0a4f28419497f9722a3daafe3b4186f6b6457e090600090a35050565b6000604051733d602d80600a3d3981f3363d3d373d3d3d363d7360601b81528260601b60148201526e5af43d82803e903d91602b57fd5bf360881b60288201526037816000f09150506001600160a01b0381166119045760405162461bcd60e51b8152602060048201526016602482015275115490cc4c4d8dce8818dc99585d194819985a5b195960521b604482015260640161053b565b919050565b60606000611918836002611ff4565b611923906002611fdc565b67ffffffffffffffff81111561194957634e487b7160e01b600052604160045260246000fd5b6040519080825280601f01601f191660200182016040528015611973576020820181803683370190505b509050600360fc1b8160008151811061199c57634e487b7160e01b600052603260045260246000fd5b60200101906001600160f81b031916908160001a905350600f60fb1b816001815181106119d957634e487b7160e01b600052603260045260246000fd5b60200101906001600160f81b031916908160001a90535060006119fd846002611ff4565b611a08906001611fdc565b90505b6001811115611a9c576f181899199a1a9b1b9c1cb0b131b232b360811b85600f1660108110611a4a57634e487b7160e01b600052603260045260246000fd5b1a60f81b828281518110611a6e57634e487b7160e01b600052603260045260246000fd5b60200101906001600160f81b031916908160001a90535060049490941c93611a9581612043565b9050611a0b565b508315611aeb5760405162461bcd60e51b815260206004820181905260248201527f537472696e67733a20686578206c656e67746820696e73756666696369656e74604482015260640161053b565b9392505050565b828054611afe9061205a565b90600052602060002090601f016020900481019282611b205760008555611b66565b82601f10611b3957805160ff1916838001178555611b66565b82800160010185558215611b66579182015b82811115611b66578251825591602001919060010190611b4b565b50611b72929150611b76565b5090565b5b80821115611b725760008155600101611b77565b600082601f830112611b9b578081fd5b813567ffffffffffffffff80821115611bb657611bb66120ab565b604051601f8301601f19908116603f01168101908282118183101715611bde57611bde6120ab565b81604052838152866020858801011115611bf6578485fd5b8360208701602083013792830160200193909352509392505050565b600060208284031215611c23578081fd5b8135611aeb816120c1565b600060208284031215611c3f578081fd5b8151611aeb816120c1565b60008060408385031215611c5c578081fd5b8235611c67816120c1565b946020939093013593505050565b600080600060608486031215611c89578081fd5b8335611c94816120c1565b95602085013595506040909401359392505050565b60008060008060008060c08789031215611cc1578182fd5b8635611ccc816120c1565b9550602087013594506040870135935060608701359250608087013567ffffffffffffffff80821115611cfd578384fd5b611d098a838b01611b8b565b935060a0890135915080821115611d1e578283fd5b50611d2b89828a01611b8b565b9150509295509295509295565b600060208284031215611d49578081fd5b81518015158114611aeb578182fd5b600060208284031215611d69578081fd5b5035919050565b600060208284031215611d81578081fd5b5051919050565b60008060408385031215611d9a578182fd5b823591506020830135611dac816120c1565b809150509250929050565b600060208284031215611dc8578081fd5b81356001600160e01b031981168114611aeb578182fd5b60008151808452611df7816020860160208601612013565b601f01601f19169290920160200192915050565b690283934bb34902537ba160b51b815260008251611e3081600a850160208701612013565b91909101600a0192915050565b6270535f60e81b815260008251611e5b816003850160208701612013565b9190910160030192915050565b6f0283934bb349029bcb73a3432ba34b1960851b815260008251611e93816010850160208701612013565b9190910160100192915050565b7f416363657373436f6e74726f6c3a206163636f756e7420000000000000000000815260008351611ed8816017850160208801612013565b7001034b99036b4b9b9b4b733903937b6329607d1b6017918401918201528351611f09816028840160208801612013565b01602801949350505050565b634a4f545f60e01b815260008251611f34816004850160208701612013565b9190910160040192915050565b602081526000611aeb6020830184611ddf565b606081526000611f676060830186611ddf565b8281036020840152611f798186611ddf565b91505060018060a01b0383166040830152949350505050565b608081526000611fa56080830187611ddf565b8281036020840152611fb78187611ddf565b6001600160a01b03958616604085015293909416606090920191909152509392505050565b60008219821115611fef57611fef612095565b500190565b600081600019048311821515161561200e5761200e612095565b500290565b60005b8381101561202e578181015183820152602001612016565b8381111561203d576000848401525b50505050565b60008161205257612052612095565b506000190190565b600181811c9082168061206e57607f821691505b6020821081141561208f57634e487b7160e01b600052602260045260246000fd5b50919050565b634e487b7160e01b600052601160045260246000fd5b634e487b7160e01b600052604160045260246000fd5b6001600160a01b038116811461157c57600080fdfea2646970667358221220c1681d4abb30002f5b19a60a32a80b63fddf36949da2c94e420a5eca61c6bd2c64736f6c63430008040033",
  "devdoc": {
    "kind": "dev",
    "methods": {
      "getRoleAdmin(bytes32)": {
        "details": "Returns the admin role that controls `role`. See {grantRole} and {revokeRole}. To change a role's admin, use {_setRoleAdmin}."
      },
      "grantRole(bytes32,address)": {
        "details": "Grants `role` to `account`. If `account` had not been already granted `role`, emits a {RoleGranted} event. Requirements: - the caller must have ``role``'s admin role."
      },
      "hasRole(bytes32,address)": {
        "details": "Returns `true` if `account` has been granted `role`."
      },
      "owner()": {
        "details": "Returns the address of the current owner."
      },
      "registerNFT(address,uint256,uint256,uint256,string,string)": {
        "params": {
          "collection": "the address of the synthetic collection",
          "originalName": "the original collection name",
          "originalSymbol": "the original collection symbol",
          "priceFraction": "the price for a fraction",
          "supplyToKeep": "supply to keep",
          "tokenId": "the token id"
        }
      },
      "renounceOwnership()": {
        "details": "Leaves the contract without owner. It will not be possible to call `onlyOwner` functions anymore. Can only be called by the current owner. NOTE: Renouncing ownership will leave the contract without an owner, thereby removing any functionality that is only available to the owner."
      },
      "renounceRole(bytes32,address)": {
        "details": "Revokes `role` from the calling account. Roles are often managed via {grantRole} and {revokeRole}: this function's purpose is to provide a mechanism for accounts to lose their privileges if they are compromised (such as when a trusted device is misplaced). If the calling account had been granted `role`, emits a {RoleRevoked} event. Requirements: - the caller must be `account`."
      },
      "revokeRole(bytes32,address)": {
        "details": "Revokes `role` from `account`. If `account` had been granted `role`, emits a {RoleRevoked} event. Requirements: - the caller must have ``role``'s admin role."
      },
      "supportsInterface(bytes4)": {
        "details": "See {IERC165-supportsInterface}."
      },
      "transferOwnership(address)": {
        "details": "Transfers ownership of the contract to a new account (`newOwner`). Can only be called by the current owner."
      }
    },
    "stateVariables": {
      "_collectionIdToAddress": {
        "details": "get collection address from ID"
      },
      "_collections": {
        "details": "collections map. collection address => collection data"
      },
      "_jot": {
        "details": "implementation addresses for proxies"
      }
    },
    "version": 1
  },
  "userdoc": {
    "kind": "user",
    "methods": {
      "changeNFT(address,uint256,uint256)": {
        "notice": "change an NFT for another one"
      },
      "getCollectionID(address)": {
        "notice": "get collection ID from collection address"
      },
      "getCollectionManagerAddress(address)": {
        "notice": "get collection manager address from collection address"
      },
      "getCollectionManagerAddress(uint256)": {
        "notice": "get collection manager address from collection ID"
      },
      "getJotPoolAddress(address)": {
        "notice": "getter for Jot Pool Address of a collection"
      },
      "getJotsAddress(address)": {
        "notice": "getter for Jot Address of a collection"
      },
      "getOriginalCollectionAddress(uint256)": {
        "notice": "get collection address from collection ID"
      },
      "isNFTVerified(address,uint256)": {
        "notice": "checks whether a Synthetic has been verified or not"
      },
      "isSyntheticCollectionRegistered(address)": {
        "notice": "checks whether a collection is registered or not"
      },
      "isSyntheticNFTCreated(address,uint256)": {
        "notice": "checks whether a Synthetic NFT has been created for a given NFT or not"
      },
      "protocolVaults()": {
        "notice": "number of registered collections"
      },
      "registerNFT(address,uint256,uint256,uint256,string,string)": {
        "notice": "register an NFT collection"
      },
      "swapAddress()": {
        "notice": "QuickSwap address"
      },
      "verifyNFT(address,uint256)": {
        "notice": "verify a synthetic NFT"
      }
    },
    "version": 1
  },
  "storageLayout": {
    "storage": [
      {
        "astId": 2284,
        "contract": "contracts/polygon/SyntheticProtocolRouter.sol:SyntheticProtocolRouter",
        "label": "_roles",
        "offset": 0,
        "slot": "0",
        "type": "t_mapping(t_bytes32,t_struct(RoleData)2279_storage)"
      },
      {
        "astId": 2647,
        "contract": "contracts/polygon/SyntheticProtocolRouter.sol:SyntheticProtocolRouter",
        "label": "_owner",
        "offset": 0,
        "slot": "1",
        "type": "t_address"
      },
      {
        "astId": 11528,
        "contract": "contracts/polygon/SyntheticProtocolRouter.sol:SyntheticProtocolRouter",
        "label": "_jot",
        "offset": 0,
        "slot": "2",
        "type": "t_address"
      },
      {
        "astId": 11530,
        "contract": "contracts/polygon/SyntheticProtocolRouter.sol:SyntheticProtocolRouter",
        "label": "_jotPool",
        "offset": 0,
        "slot": "3",
        "type": "t_address"
      },
      {
        "astId": 11532,
        "contract": "contracts/polygon/SyntheticProtocolRouter.sol:SyntheticProtocolRouter",
        "label": "_collectionManager",
        "offset": 0,
        "slot": "4",
        "type": "t_address"
      },
      {
        "astId": 11534,
        "contract": "contracts/polygon/SyntheticProtocolRouter.sol:SyntheticProtocolRouter",
        "label": "_syntheticNFT",
        "offset": 0,
        "slot": "5",
        "type": "t_address"
      },
      {
        "astId": 11536,
        "contract": "contracts/polygon/SyntheticProtocolRouter.sol:SyntheticProtocolRouter",
        "label": "_auctionManager",
        "offset": 0,
        "slot": "6",
        "type": "t_address"
      },
      {
        "astId": 11538,
        "contract": "contracts/polygon/SyntheticProtocolRouter.sol:SyntheticProtocolRouter",
        "label": "_protocol",
        "offset": 0,
        "slot": "7",
        "type": "t_address"
      },
      {
        "astId": 11540,
        "contract": "contracts/polygon/SyntheticProtocolRouter.sol:SyntheticProtocolRouter",
        "label": "_fundingTokenAddress",
        "offset": 0,
        "slot": "8",
        "type": "t_address"
      },
      {
        "astId": 11542,
        "contract": "contracts/polygon/SyntheticProtocolRouter.sol:SyntheticProtocolRouter",
        "label": "_randomConsumerAddress",
        "offset": 0,
        "slot": "9",
        "type": "t_address"
      },
      {
        "astId": 11544,
        "contract": "contracts/polygon/SyntheticProtocolRouter.sol:SyntheticProtocolRouter",
        "label": "_validatorAddress",
        "offset": 0,
        "slot": "10",
        "type": "t_address"
      },
      {
        "astId": 11546,
        "contract": "contracts/polygon/SyntheticProtocolRouter.sol:SyntheticProtocolRouter",
        "label": "_perpetualPoolLiteAddress",
        "offset": 0,
        "slot": "11",
        "type": "t_address"
      },
      {
        "astId": 11548,
        "contract": "contracts/polygon/SyntheticProtocolRouter.sol:SyntheticProtocolRouter",
        "label": "oracleAddress",
        "offset": 0,
        "slot": "12",
        "type": "t_address"
      },
      {
        "astId": 11554,
        "contract": "contracts/polygon/SyntheticProtocolRouter.sol:SyntheticProtocolRouter",
        "label": "_collections",
        "offset": 0,
        "slot": "13",
        "type": "t_mapping(t_address,t_struct(SyntheticCollection)11497_storage)"
      },
      {
        "astId": 11559,
        "contract": "contracts/polygon/SyntheticProtocolRouter.sol:SyntheticProtocolRouter",
        "label": "_collectionIdToAddress",
        "offset": 0,
        "slot": "14",
        "type": "t_mapping(t_uint256,t_address)"
      },
      {
        "astId": 11563,
        "contract": "contracts/polygon/SyntheticProtocolRouter.sol:SyntheticProtocolRouter",
        "label": "protocolVaults",
        "offset": 0,
        "slot": "15",
        "type": "t_struct(Counter)8522_storage"
      },
      {
        "astId": 11566,
        "contract": "contracts/polygon/SyntheticProtocolRouter.sol:SyntheticProtocolRouter",
        "label": "swapAddress",
        "offset": 0,
        "slot": "16",
        "type": "t_address"
      }
    ],
    "types": {
      "t_address": {
        "encoding": "inplace",
        "label": "address",
        "numberOfBytes": "20"
      },
      "t_bool": {
        "encoding": "inplace",
        "label": "bool",
        "numberOfBytes": "1"
      },
      "t_bytes32": {
        "encoding": "inplace",
        "label": "bytes32",
        "numberOfBytes": "32"
      },
      "t_mapping(t_address,t_bool)": {
        "encoding": "mapping",
        "key": "t_address",
        "label": "mapping(address => bool)",
        "numberOfBytes": "32",
        "value": "t_bool"
      },
      "t_mapping(t_address,t_struct(SyntheticCollection)11497_storage)": {
        "encoding": "mapping",
        "key": "t_address",
        "label": "mapping(address => struct SyntheticCollection)",
        "numberOfBytes": "32",
        "value": "t_struct(SyntheticCollection)11497_storage"
      },
      "t_mapping(t_bytes32,t_struct(RoleData)2279_storage)": {
        "encoding": "mapping",
        "key": "t_bytes32",
        "label": "mapping(bytes32 => struct AccessControl.RoleData)",
        "numberOfBytes": "32",
        "value": "t_struct(RoleData)2279_storage"
      },
      "t_mapping(t_uint256,t_address)": {
        "encoding": "mapping",
        "key": "t_uint256",
        "label": "mapping(uint256 => address)",
        "numberOfBytes": "32",
        "value": "t_address"
      },
      "t_string_storage": {
        "encoding": "bytes",
        "label": "string",
        "numberOfBytes": "32"
      },
      "t_struct(Counter)8522_storage": {
        "encoding": "inplace",
        "label": "struct Counters.Counter",
        "members": [
          {
            "astId": 8521,
            "contract": "contracts/polygon/SyntheticProtocolRouter.sol:SyntheticProtocolRouter",
            "label": "_value",
            "offset": 0,
            "slot": "0",
            "type": "t_uint256"
          }
        ],
        "numberOfBytes": "32"
      },
      "t_struct(RoleData)2279_storage": {
        "encoding": "inplace",
        "label": "struct AccessControl.RoleData",
        "members": [
          {
            "astId": 2276,
            "contract": "contracts/polygon/SyntheticProtocolRouter.sol:SyntheticProtocolRouter",
            "label": "members",
            "offset": 0,
            "slot": "0",
            "type": "t_mapping(t_address,t_bool)"
          },
          {
            "astId": 2278,
            "contract": "contracts/polygon/SyntheticProtocolRouter.sol:SyntheticProtocolRouter",
            "label": "adminRole",
            "offset": 0,
            "slot": "1",
            "type": "t_bytes32"
          }
        ],
        "numberOfBytes": "64"
      },
      "t_struct(SyntheticCollection)11497_storage": {
        "encoding": "inplace",
        "label": "struct SyntheticCollection",
        "members": [
          {
            "astId": 11484,
            "contract": "contracts/polygon/SyntheticProtocolRouter.sol:SyntheticProtocolRouter",
            "label": "collectionID",
            "offset": 0,
            "slot": "0",
            "type": "t_uint256"
          },
          {
            "astId": 11486,
            "contract": "contracts/polygon/SyntheticProtocolRouter.sol:SyntheticProtocolRouter",
            "label": "collectionManagerAddress",
            "offset": 0,
            "slot": "1",
            "type": "t_address"
          },
          {
            "astId": 11488,
            "contract": "contracts/polygon/SyntheticProtocolRouter.sol:SyntheticProtocolRouter",
            "label": "jotAddress",
            "offset": 0,
            "slot": "2",
            "type": "t_address"
          },
          {
            "astId": 11490,
            "contract": "contracts/polygon/SyntheticProtocolRouter.sol:SyntheticProtocolRouter",
            "label": "jotPoolAddress",
            "offset": 0,
            "slot": "3",
            "type": "t_address"
          },
          {
            "astId": 11492,
            "contract": "contracts/polygon/SyntheticProtocolRouter.sol:SyntheticProtocolRouter",
            "label": "syntheticNFTAddress",
            "offset": 0,
            "slot": "4",
            "type": "t_address"
          },
          {
            "astId": 11494,
            "contract": "contracts/polygon/SyntheticProtocolRouter.sol:SyntheticProtocolRouter",
            "label": "originalName",
            "offset": 0,
            "slot": "5",
            "type": "t_string_storage"
          },
          {
            "astId": 11496,
            "contract": "contracts/polygon/SyntheticProtocolRouter.sol:SyntheticProtocolRouter",
            "label": "originalSymbol",
            "offset": 0,
            "slot": "6",
            "type": "t_string_storage"
          }
        ],
        "numberOfBytes": "224"
      },
      "t_uint256": {
        "encoding": "inplace",
        "label": "uint256",
        "numberOfBytes": "32"
      }
    }
  }
}