{
  "address": "0x76181736FfB6d260875F5dD53BF947717b63E98e",
  "abi": [
    {
      "inputs": [
        {
          "internalType": "address",
          "name": "randomConsumerAddress_",
          "type": "address"
        },
        {
          "internalType": "address",
          "name": "validatorAddress_",
          "type": "address"
        }
      ],
      "stateMutability": "nonpayable",
      "type": "constructor"
    },
    {
      "anonymous": false,
      "inputs": [
        {
          "indexed": false,
          "internalType": "bytes32",
          "name": "requestId",
          "type": "bytes32"
        }
      ],
      "name": "BuybackPriceUpdateRequested",
      "type": "event"
    },
    {
      "anonymous": false,
      "inputs": [
        {
          "indexed": false,
          "internalType": "bytes32",
          "name": "requestId",
          "type": "bytes32"
        },
        {
          "indexed": false,
          "internalType": "uint256",
          "name": "price",
          "type": "uint256"
        }
      ],
      "name": "BuybackPriceUpdated",
      "type": "event"
    },
    {
      "anonymous": false,
      "inputs": [
        {
          "indexed": true,
          "internalType": "bytes32",
          "name": "requestId",
          "type": "bytes32"
        },
        {
          "indexed": true,
          "internalType": "address",
          "name": "player",
          "type": "address"
        },
        {
          "indexed": true,
          "internalType": "uint256",
          "name": "tokenId",
          "type": "uint256"
        },
        {
          "indexed": false,
          "internalType": "uint256",
          "name": "prediction",
          "type": "uint256"
        }
      ],
      "name": "CoinFlipped",
      "type": "event"
    },
    {
      "anonymous": false,
      "inputs": [
        {
          "indexed": true,
          "internalType": "bytes32",
          "name": "requestId",
          "type": "bytes32"
        },
        {
          "indexed": true,
          "internalType": "uint256",
          "name": "tokenId",
          "type": "uint256"
        },
        {
          "indexed": false,
          "internalType": "uint256",
          "name": "prediction",
          "type": "uint256"
        },
        {
          "indexed": false,
          "internalType": "uint256",
          "name": "randomResult",
          "type": "uint256"
        }
      ],
      "name": "FlipProcessed",
      "type": "event"
    },
    {
      "anonymous": false,
      "inputs": [
        {
          "indexed": false,
          "internalType": "uint256",
          "name": "tokenId",
          "type": "uint256"
        },
        {
          "indexed": false,
          "internalType": "uint256",
          "name": "fundingSent",
          "type": "uint256"
        },
        {
          "indexed": false,
          "internalType": "uint256",
          "name": "lShares",
          "type": "uint256"
        }
      ],
      "name": "LiquidityAddedToFuturePool",
      "type": "event"
    },
    {
      "anonymous": false,
      "inputs": [
        {
          "indexed": false,
          "internalType": "uint256",
          "name": "tokenId",
          "type": "uint256"
        },
        {
          "indexed": false,
          "internalType": "uint256",
          "name": "jotAmount",
          "type": "uint256"
        },
        {
          "indexed": false,
          "internalType": "uint256",
          "name": "fundingAmount",
          "type": "uint256"
        },
        {
          "indexed": false,
          "internalType": "uint256",
          "name": "liquidity",
          "type": "uint256"
        }
      ],
      "name": "LiquidityAddedToQuickswap",
      "type": "event"
    },
    {
      "anonymous": false,
      "inputs": [
        {
          "indexed": false,
          "internalType": "uint256",
          "name": "tokenId",
          "type": "uint256"
        },
        {
          "indexed": false,
          "internalType": "uint256",
          "name": "fundingReceived",
          "type": "uint256"
        },
        {
          "indexed": false,
          "internalType": "uint256",
          "name": "lShares",
          "type": "uint256"
        }
      ],
      "name": "LiquidityRemovedFromFuturePool",
      "type": "event"
    },
    {
      "anonymous": false,
      "inputs": [
        {
          "indexed": false,
          "internalType": "uint256",
          "name": "tokenId",
          "type": "uint256"
        },
        {
          "indexed": false,
          "internalType": "uint256",
          "name": "jotAmount",
          "type": "uint256"
        },
        {
          "indexed": false,
          "internalType": "uint256",
          "name": "fundingAmount",
          "type": "uint256"
        },
        {
          "indexed": false,
          "internalType": "uint256",
          "name": "liquidity",
          "type": "uint256"
        }
      ],
      "name": "LiquidityRemovedFromQuickswap",
      "type": "event"
    },
    {
      "anonymous": false,
      "inputs": [
        {
          "indexed": true,
          "internalType": "bytes32",
          "name": "role",
          "type": "bytes32"
        },
        {
          "indexed": true,
          "internalType": "bytes32",
          "name": "previousAdminRole",
          "type": "bytes32"
        },
        {
          "indexed": true,
          "internalType": "bytes32",
          "name": "newAdminRole",
          "type": "bytes32"
        }
      ],
      "name": "RoleAdminChanged",
      "type": "event"
    },
    {
      "anonymous": false,
      "inputs": [
        {
          "indexed": true,
          "internalType": "bytes32",
          "name": "role",
          "type": "bytes32"
        },
        {
          "indexed": true,
          "internalType": "address",
          "name": "account",
          "type": "address"
        },
        {
          "indexed": true,
          "internalType": "address",
          "name": "sender",
          "type": "address"
        }
      ],
      "name": "RoleGranted",
      "type": "event"
    },
    {
      "anonymous": false,
      "inputs": [
        {
          "indexed": true,
          "internalType": "bytes32",
          "name": "role",
          "type": "bytes32"
        },
        {
          "indexed": true,
          "internalType": "address",
          "name": "account",
          "type": "address"
        },
        {
          "indexed": true,
          "internalType": "address",
          "name": "sender",
          "type": "address"
        }
      ],
      "name": "RoleRevoked",
      "type": "event"
    },
    {
      "anonymous": false,
      "inputs": [
        {
          "indexed": false,
          "internalType": "uint256",
          "name": "tokenID",
          "type": "uint256"
        },
        {
          "indexed": false,
          "internalType": "address",
          "name": "newOwner",
          "type": "address"
        }
      ],
      "name": "TokenReassigned",
      "type": "event"
    },
    {
      "anonymous": false,
      "inputs": [
        {
          "indexed": true,
          "internalType": "bytes32",
          "name": "requestId",
          "type": "bytes32"
        },
        {
          "indexed": false,
          "internalType": "address",
          "name": "from",
          "type": "address"
        },
        {
          "indexed": false,
          "internalType": "uint256",
          "name": "tokenId",
          "type": "uint256"
        }
      ],
      "name": "VerificationRequested",
      "type": "event"
    },
    {
      "anonymous": false,
      "inputs": [
        {
          "indexed": true,
          "internalType": "bytes32",
          "name": "requestId",
          "type": "bytes32"
        },
        {
          "indexed": false,
          "internalType": "address",
          "name": "originalCollection",
          "type": "address"
        },
        {
          "indexed": false,
          "internalType": "address",
          "name": "syntheticCollection",
          "type": "address"
        },
        {
          "indexed": false,
          "internalType": "uint256",
          "name": "tokenId",
          "type": "uint256"
        },
        {
          "indexed": false,
          "internalType": "bool",
          "name": "verified",
          "type": "bool"
        }
      ],
      "name": "VerifyResponseReceived",
      "type": "event"
    },
    {
      "inputs": [],
      "name": "AUCTION_MANAGER",
      "outputs": [
        {
          "internalType": "bytes32",
          "name": "",
          "type": "bytes32"
        }
      ],
      "stateMutability": "view",
      "type": "function"
    },
    {
      "inputs": [
        {
          "internalType": "uint256",
          "name": "tokenId",
          "type": "uint256"
        },
        {
          "internalType": "uint256",
          "name": "amount",
          "type": "uint256"
        }
      ],
      "name": "AddLiquidityToFuturePool",
      "outputs": [],
      "stateMutability": "nonpayable",
      "type": "function"
    },
    {
      "inputs": [],
      "name": "AuctionsManagerAddress",
      "outputs": [
        {
          "internalType": "address",
          "name": "",
          "type": "address"
        }
      ],
      "stateMutability": "view",
      "type": "function"
    },
    {
      "inputs": [],
      "name": "DEFAULT_ADMIN_ROLE",
      "outputs": [
        {
          "internalType": "bytes32",
          "name": "",
          "type": "bytes32"
        }
      ],
      "stateMutability": "view",
      "type": "function"
    },
    {
      "inputs": [],
      "name": "RANDOM_ORACLE",
      "outputs": [
        {
          "internalType": "bytes32",
          "name": "",
          "type": "bytes32"
        }
      ],
      "stateMutability": "view",
      "type": "function"
    },
    {
      "inputs": [],
      "name": "ROUTER",
      "outputs": [
        {
          "internalType": "bytes32",
          "name": "",
          "type": "bytes32"
        }
      ],
      "stateMutability": "view",
      "type": "function"
    },
    {
      "inputs": [],
      "name": "VALIDATOR_ORACLE",
      "outputs": [
        {
          "internalType": "bytes32",
          "name": "",
          "type": "bytes32"
        }
      ],
      "stateMutability": "view",
      "type": "function"
    },
    {
      "inputs": [
        {
          "internalType": "uint256",
          "name": "tokenId",
          "type": "uint256"
        },
        {
          "internalType": "uint256",
          "name": "amount",
          "type": "uint256"
        }
      ],
      "name": "addLiquidityToQuickswap",
      "outputs": [],
      "stateMutability": "nonpayable",
      "type": "function"
    },
    {
      "inputs": [
        {
          "internalType": "uint256",
          "name": "tokenId_",
          "type": "uint256"
        },
        {
          "internalType": "uint256",
          "name": "amountToBuy_",
          "type": "uint256"
        }
      ],
      "name": "buyJotTokens",
      "outputs": [],
      "stateMutability": "nonpayable",
      "type": "function"
    },
    {
      "inputs": [
        {
          "internalType": "uint256",
          "name": "tokenId",
          "type": "uint256"
        }
      ],
      "name": "buyback",
      "outputs": [],
      "stateMutability": "nonpayable",
      "type": "function"
    },
    {
      "inputs": [],
      "name": "buybackPrice",
      "outputs": [
        {
          "internalType": "uint256",
          "name": "",
          "type": "uint256"
        }
      ],
      "stateMutability": "view",
      "type": "function"
    },
    {
      "inputs": [
        {
          "internalType": "uint256",
          "name": "tokenId",
          "type": "uint256"
        }
      ],
      "name": "buybackRequiredAmount",
      "outputs": [
        {
          "internalType": "uint256",
          "name": "buybackAmount",
          "type": "uint256"
        },
        {
          "internalType": "uint256",
          "name": "fundingLeft",
          "type": "uint256"
        },
        {
          "internalType": "uint256",
          "name": "jotsLeft",
          "type": "uint256"
        }
      ],
      "stateMutability": "view",
      "type": "function"
    },
    {
      "inputs": [
        {
          "internalType": "uint256",
          "name": "syntheticId",
          "type": "uint256"
        },
        {
          "internalType": "uint256",
          "name": "newOriginalId",
          "type": "uint256"
        },
        {
          "internalType": "string",
          "name": "metadata",
          "type": "string"
        },
        {
          "internalType": "address",
          "name": "caller",
          "type": "address"
        }
      ],
      "name": "change",
      "outputs": [],
      "stateMutability": "nonpayable",
      "type": "function"
    },
    {
      "inputs": [
        {
          "internalType": "uint256",
          "name": "",
          "type": "uint256"
        }
      ],
      "name": "changeNonces",
      "outputs": [
        {
          "internalType": "uint256",
          "name": "nonce",
          "type": "uint256"
        },
        {
          "internalType": "uint256",
          "name": "newTokenId",
          "type": "uint256"
        },
        {
          "internalType": "address",
          "name": "owner",
          "type": "address"
        }
      ],
      "stateMutability": "view",
      "type": "function"
    },
    {
      "inputs": [
        {
          "internalType": "uint256",
          "name": "tokenId",
          "type": "uint256"
        },
        {
          "internalType": "uint256",
          "name": "amount",
          "type": "uint256"
        }
      ],
      "name": "claimLiquidityTokens",
      "outputs": [],
      "stateMutability": "nonpayable",
      "type": "function"
    },
    {
      "inputs": [
        {
          "internalType": "uint256",
          "name": "tokenId_",
          "type": "uint256"
        },
        {
          "internalType": "uint256",
          "name": "amount_",
          "type": "uint256"
        }
      ],
      "name": "decreaseSellingSupply",
      "outputs": [],
      "stateMutability": "nonpayable",
      "type": "function"
    },
    {
      "inputs": [
        {
          "internalType": "uint256",
          "name": "tokenId_",
          "type": "uint256"
        },
        {
          "internalType": "uint256",
          "name": "amountToDeposit_",
          "type": "uint256"
        }
      ],
      "name": "depositJotTokens",
      "outputs": [],
      "stateMutability": "nonpayable",
      "type": "function"
    },
    {
      "inputs": [],
      "name": "erc721address",
      "outputs": [
        {
          "internalType": "address",
          "name": "",
          "type": "address"
        }
      ],
      "stateMutability": "view",
      "type": "function"
    },
    {
      "inputs": [
        {
          "internalType": "uint256",
          "name": "tokenId",
          "type": "uint256"
        },
        {
          "internalType": "uint256",
          "name": "amount",
          "type": "uint256"
        }
      ],
      "name": "exchangeOwnerJot",
      "outputs": [],
      "stateMutability": "nonpayable",
      "type": "function"
    },
    {
      "inputs": [
        {
          "internalType": "uint256",
          "name": "tokenId",
          "type": "uint256"
        },
        {
          "internalType": "uint64",
          "name": "prediction",
          "type": "uint64"
        }
      ],
      "name": "flipJot",
      "outputs": [],
      "stateMutability": "nonpayable",
      "type": "function"
    },
    {
      "inputs": [],
      "name": "fundingTokenAddress",
      "outputs": [
        {
          "internalType": "address",
          "name": "",
          "type": "address"
        }
      ],
      "stateMutability": "view",
      "type": "function"
    },
    {
      "inputs": [
        {
          "internalType": "uint256",
          "name": "tokenId",
          "type": "uint256"
        }
      ],
      "name": "getAccruedReward",
      "outputs": [
        {
          "internalType": "uint256",
          "name": "",
          "type": "uint256"
        },
        {
          "internalType": "uint256",
          "name": "",
          "type": "uint256"
        }
      ],
      "stateMutability": "view",
      "type": "function"
    },
    {
      "inputs": [
        {
          "internalType": "uint256",
          "name": "tokenId",
          "type": "uint256"
        }
      ],
      "name": "getAvailableJotsForBuyback",
      "outputs": [
        {
          "internalType": "uint256",
          "name": "totalJots",
          "type": "uint256"
        },
        {
          "internalType": "uint256",
          "name": "totalFunding",
          "type": "uint256"
        }
      ],
      "stateMutability": "view",
      "type": "function"
    },
    {
      "inputs": [
        {
          "internalType": "uint256",
          "name": "tokenId",
          "type": "uint256"
        }
      ],
      "name": "getJotAmountLeft",
      "outputs": [
        {
          "internalType": "uint256",
          "name": "",
          "type": "uint256"
        }
      ],
      "stateMutability": "view",
      "type": "function"
    },
    {
      "inputs": [
        {
          "internalType": "uint256",
          "name": "tokenId",
          "type": "uint256"
        }
      ],
      "name": "getJotFractionPrice",
      "outputs": [
        {
          "internalType": "uint256",
          "name": "",
          "type": "uint256"
        }
      ],
      "stateMutability": "view",
      "type": "function"
    },
    {
      "inputs": [
        {
          "internalType": "uint256",
          "name": "tokenId",
          "type": "uint256"
        }
      ],
      "name": "getLiquidityTokens",
      "outputs": [
        {
          "internalType": "uint256",
          "name": "",
          "type": "uint256"
        }
      ],
      "stateMutability": "view",
      "type": "function"
    },
    {
      "inputs": [
        {
          "internalType": "uint256",
          "name": "tokenId",
          "type": "uint256"
        }
      ],
      "name": "getOriginalID",
      "outputs": [
        {
          "internalType": "uint256",
          "name": "",
          "type": "uint256"
        }
      ],
      "stateMutability": "view",
      "type": "function"
    },
    {
      "inputs": [
        {
          "internalType": "uint256",
          "name": "tokenId",
          "type": "uint256"
        }
      ],
      "name": "getOwnerSupply",
      "outputs": [
        {
          "internalType": "uint256",
          "name": "",
          "type": "uint256"
        }
      ],
      "stateMutability": "view",
      "type": "function"
    },
    {
      "inputs": [
        {
          "internalType": "bytes32",
          "name": "role",
          "type": "bytes32"
        }
      ],
      "name": "getRoleAdmin",
      "outputs": [
        {
          "internalType": "bytes32",
          "name": "",
          "type": "bytes32"
        }
      ],
      "stateMutability": "view",
      "type": "function"
    },
    {
      "inputs": [
        {
          "internalType": "uint256",
          "name": "tokenId",
          "type": "uint256"
        },
        {
          "internalType": "uint256",
          "name": "buyAmount",
          "type": "uint256"
        }
      ],
      "name": "getSalePrice",
      "outputs": [
        {
          "internalType": "uint256",
          "name": "",
          "type": "uint256"
        }
      ],
      "stateMutability": "view",
      "type": "function"
    },
    {
      "inputs": [
        {
          "internalType": "uint256",
          "name": "tokenId",
          "type": "uint256"
        }
      ],
      "name": "getSellingSupply",
      "outputs": [
        {
          "internalType": "uint256",
          "name": "",
          "type": "uint256"
        }
      ],
      "stateMutability": "view",
      "type": "function"
    },
    {
      "inputs": [
        {
          "internalType": "uint256",
          "name": "tokenId",
          "type": "uint256"
        }
      ],
      "name": "getSoldSupply",
      "outputs": [
        {
          "internalType": "uint256",
          "name": "",
          "type": "uint256"
        }
      ],
      "stateMutability": "view",
      "type": "function"
    },
    {
      "inputs": [
        {
          "internalType": "uint256",
          "name": "tokenId_",
          "type": "uint256"
        }
      ],
      "name": "getSyntheticNFTOwner",
      "outputs": [
        {
          "internalType": "address",
          "name": "",
          "type": "address"
        }
      ],
      "stateMutability": "view",
      "type": "function"
    },
    {
      "inputs": [
        {
          "internalType": "uint256",
          "name": "tokenId",
          "type": "uint256"
        }
      ],
      "name": "getTokenURI",
      "outputs": [
        {
          "internalType": "string",
          "name": "",
          "type": "string"
        }
      ],
      "stateMutability": "view",
      "type": "function"
    },
    {
      "inputs": [
        {
          "internalType": "uint256",
          "name": "tokenId",
          "type": "uint256"
        }
      ],
      "name": "getliquiditySold",
      "outputs": [
        {
          "internalType": "uint256",
          "name": "",
          "type": "uint256"
        }
      ],
      "stateMutability": "view",
      "type": "function"
    },
    {
      "inputs": [
        {
          "internalType": "bytes32",
          "name": "role",
          "type": "bytes32"
        },
        {
          "internalType": "address",
          "name": "account",
          "type": "address"
        }
      ],
      "name": "grantRole",
      "outputs": [],
      "stateMutability": "nonpayable",
      "type": "function"
    },
    {
      "inputs": [
        {
          "internalType": "bytes32",
          "name": "role",
          "type": "bytes32"
        },
        {
          "internalType": "address",
          "name": "account",
          "type": "address"
        }
      ],
      "name": "hasRole",
      "outputs": [
        {
          "internalType": "bool",
          "name": "",
          "type": "bool"
        }
      ],
      "stateMutability": "view",
      "type": "function"
    },
    {
      "inputs": [
        {
          "internalType": "uint256",
          "name": "tokenId_",
          "type": "uint256"
        },
        {
          "internalType": "uint256",
          "name": "amount_",
          "type": "uint256"
        }
      ],
      "name": "increaseSellingSupply",
      "outputs": [],
      "stateMutability": "nonpayable",
      "type": "function"
    },
    {
      "inputs": [
        {
          "internalType": "address",
          "name": "jotAddress_",
          "type": "address"
        },
        {
          "internalType": "address",
          "name": "originalCollectionAddress_",
          "type": "address"
        },
        {
          "internalType": "address",
          "name": "erc721address_",
          "type": "address"
        },
        {
          "internalType": "address",
          "name": "auctionManagerAddress_",
          "type": "address"
        },
        {
          "internalType": "address",
          "name": "protocol_",
          "type": "address"
        },
        {
          "internalType": "address",
          "name": "jotPool_",
          "type": "address"
        },
        {
          "internalType": "address",
          "name": "redemptionPool_",
          "type": "address"
        },
        {
          "internalType": "address",
          "name": "swapAddress_",
          "type": "address"
        },
        {
          "internalType": "address",
          "name": "liquidityCalculatorAddress_",
          "type": "address"
        }
      ],
      "name": "initialize",
      "outputs": [],
      "stateMutability": "nonpayable",
      "type": "function"
    },
    {
      "inputs": [
        {
          "internalType": "uint256",
          "name": "tokenId",
          "type": "uint256"
        }
      ],
      "name": "isAllowedToFlip",
      "outputs": [
        {
          "internalType": "bool",
          "name": "",
          "type": "bool"
        }
      ],
      "stateMutability": "view",
      "type": "function"
    },
    {
      "inputs": [
        {
          "internalType": "uint256",
          "name": "tokenId",
          "type": "uint256"
        },
        {
          "internalType": "address",
          "name": "caller",
          "type": "address"
        }
      ],
      "name": "isOwner",
      "outputs": [
        {
          "internalType": "bool",
          "name": "",
          "type": "bool"
        }
      ],
      "stateMutability": "view",
      "type": "function"
    },
    {
      "inputs": [
        {
          "internalType": "uint256",
          "name": "tokenId",
          "type": "uint256"
        }
      ],
      "name": "isSyntheticNFTCreated",
      "outputs": [
        {
          "internalType": "bool",
          "name": "",
          "type": "bool"
        }
      ],
      "stateMutability": "view",
      "type": "function"
    },
    {
      "inputs": [
        {
          "internalType": "uint256",
          "name": "tokenId",
          "type": "uint256"
        }
      ],
      "name": "isSyntheticNFTFractionalised",
      "outputs": [
        {
          "internalType": "bool",
          "name": "",
          "type": "bool"
        }
      ],
      "stateMutability": "view",
      "type": "function"
    },
    {
      "inputs": [
        {
          "internalType": "uint256",
          "name": "tokenId",
          "type": "uint256"
        }
      ],
      "name": "isVerified",
      "outputs": [
        {
          "internalType": "bool",
          "name": "",
          "type": "bool"
        }
      ],
      "stateMutability": "view",
      "type": "function"
    },
    {
      "inputs": [],
      "name": "jotAddress",
      "outputs": [
        {
          "internalType": "address",
          "name": "",
          "type": "address"
        }
      ],
      "stateMutability": "view",
      "type": "function"
    },
    {
      "inputs": [],
      "name": "jotPool",
      "outputs": [
        {
          "internalType": "address",
          "name": "",
          "type": "address"
        }
      ],
      "stateMutability": "view",
      "type": "function"
    },
    {
      "inputs": [
        {
          "internalType": "uint256",
          "name": "tokenId",
          "type": "uint256"
        }
      ],
      "name": "lockedNFT",
      "outputs": [
        {
          "internalType": "bool",
          "name": "",
          "type": "bool"
        }
      ],
      "stateMutability": "view",
      "type": "function"
    },
    {
      "inputs": [
        {
          "internalType": "uint256",
          "name": "",
          "type": "uint256"
        }
      ],
      "name": "nonces",
      "outputs": [
        {
          "internalType": "uint256",
          "name": "",
          "type": "uint256"
        }
      ],
      "stateMutability": "view",
      "type": "function"
    },
    {
      "inputs": [],
      "name": "originalCollectionAddress",
      "outputs": [
        {
          "internalType": "address",
          "name": "",
          "type": "address"
        }
      ],
      "stateMutability": "view",
      "type": "function"
    },
    {
      "inputs": [
        {
          "internalType": "uint256",
          "name": "",
          "type": "uint256"
        },
        {
          "internalType": "uint256",
          "name": "",
          "type": "uint256"
        }
      ],
      "name": "ownersByNonce",
      "outputs": [
        {
          "internalType": "address",
          "name": "",
          "type": "address"
        }
      ],
      "stateMutability": "view",
      "type": "function"
    },
    {
      "inputs": [],
      "name": "perpetualPoolLiteAddress",
      "outputs": [
        {
          "internalType": "address",
          "name": "",
          "type": "address"
        }
      ],
      "stateMutability": "view",
      "type": "function"
    },
    {
      "inputs": [],
      "name": "poolAddress",
      "outputs": [
        {
          "internalType": "address",
          "name": "",
          "type": "address"
        }
      ],
      "stateMutability": "view",
      "type": "function"
    },
    {
      "inputs": [
        {
          "internalType": "bytes32",
          "name": "requestId_",
          "type": "bytes32"
        },
        {
          "internalType": "uint256",
          "name": "buybackPrice_",
          "type": "uint256"
        }
      ],
      "name": "processBuybackPriceResponse",
      "outputs": [],
      "stateMutability": "nonpayable",
      "type": "function"
    },
    {
      "inputs": [
        {
          "internalType": "uint256",
          "name": "randomNumber",
          "type": "uint256"
        },
        {
          "internalType": "bytes32",
          "name": "requestId",
          "type": "bytes32"
        }
      ],
      "name": "processFlipResult",
      "outputs": [],
      "stateMutability": "nonpayable",
      "type": "function"
    },
    {
      "inputs": [
        {
          "internalType": "bytes32",
          "name": "requestId",
          "type": "bytes32"
        },
        {
          "components": [
            {
              "internalType": "address",
              "name": "originalCollection",
              "type": "address"
            },
            {
              "internalType": "address",
              "name": "syntheticCollection",
              "type": "address"
            },
            {
              "internalType": "uint256",
              "name": "tokenId",
              "type": "uint256"
            },
            {
              "internalType": "enum State",
              "name": "previousState",
              "type": "uint8"
            }
          ],
          "internalType": "struct VerifyRequest",
          "name": "requestData",
          "type": "tuple"
        },
        {
          "internalType": "bool",
          "name": "verified",
          "type": "bool"
        }
      ],
      "name": "processVerifyResponse",
      "outputs": [],
      "stateMutability": "nonpayable",
      "type": "function"
    },
    {
      "inputs": [],
      "name": "protocol",
      "outputs": [
        {
          "internalType": "contract ProtocolParameters",
          "name": "",
          "type": "address"
        }
      ],
      "stateMutability": "view",
      "type": "function"
    },
    {
      "inputs": [
        {
          "internalType": "uint256",
          "name": "nftId_",
          "type": "uint256"
        },
        {
          "internalType": "address",
          "name": "newOwner_",
          "type": "address"
        }
      ],
      "name": "reassignNFT",
      "outputs": [],
      "stateMutability": "nonpayable",
      "type": "function"
    },
    {
      "inputs": [
        {
          "internalType": "uint256",
          "name": "tokenId",
          "type": "uint256"
        }
      ],
      "name": "recoverToken",
      "outputs": [],
      "stateMutability": "nonpayable",
      "type": "function"
    },
    {
      "inputs": [],
      "name": "redemptionPool",
      "outputs": [
        {
          "internalType": "address",
          "name": "",
          "type": "address"
        }
      ],
      "stateMutability": "view",
      "type": "function"
    },
    {
      "inputs": [
        {
          "internalType": "uint256",
          "name": "tokenId_",
          "type": "uint256"
        },
        {
          "internalType": "uint256",
          "name": "supplyToKeep_",
          "type": "uint256"
        },
        {
          "internalType": "uint256",
          "name": "priceFraction_",
          "type": "uint256"
        },
        {
          "internalType": "address",
          "name": "nftOwner_",
          "type": "address"
        },
        {
          "internalType": "string",
          "name": "metadata_",
          "type": "string"
        }
      ],
      "name": "register",
      "outputs": [
        {
          "internalType": "uint256",
          "name": "syntheticId",
          "type": "uint256"
        }
      ],
      "stateMutability": "nonpayable",
      "type": "function"
    },
    {
      "inputs": [
        {
          "internalType": "uint256",
          "name": "tokenId",
          "type": "uint256"
        }
      ],
      "name": "removeLiquidityFromPool",
      "outputs": [],
      "stateMutability": "nonpayable",
      "type": "function"
    },
    {
      "inputs": [
        {
          "internalType": "bytes32",
          "name": "role",
          "type": "bytes32"
        },
        {
          "internalType": "address",
          "name": "account",
          "type": "address"
        }
      ],
      "name": "renounceRole",
      "outputs": [],
      "stateMutability": "nonpayable",
      "type": "function"
    },
    {
      "inputs": [
        {
          "internalType": "bytes32",
          "name": "role",
          "type": "bytes32"
        },
        {
          "internalType": "address",
          "name": "account",
          "type": "address"
        }
      ],
      "name": "revokeRole",
      "outputs": [],
      "stateMutability": "nonpayable",
      "type": "function"
    },
    {
      "inputs": [
        {
          "internalType": "uint256",
          "name": "tokenId",
          "type": "uint256"
        },
        {
          "internalType": "bool",
          "name": "value",
          "type": "bool"
        }
      ],
      "name": "setFlip",
      "outputs": [],
      "stateMutability": "nonpayable",
      "type": "function"
    },
    {
      "inputs": [
        {
          "internalType": "uint256",
          "name": "tokenId",
          "type": "uint256"
        },
        {
          "internalType": "string",
          "name": "metadata",
          "type": "string"
        }
      ],
      "name": "setMetadata",
      "outputs": [],
      "stateMutability": "nonpayable",
      "type": "function"
    },
    {
      "inputs": [
        {
          "internalType": "address",
          "name": "perpetualPoolLiteAddress_",
          "type": "address"
        }
      ],
      "name": "setPerpetualPoolLiteAddress",
      "outputs": [],
      "stateMutability": "nonpayable",
      "type": "function"
    },
    {
      "inputs": [
        {
          "internalType": "bytes4",
          "name": "interfaceId",
          "type": "bytes4"
        }
      ],
      "name": "supportsInterface",
      "outputs": [
        {
          "internalType": "bool",
          "name": "",
          "type": "bool"
        }
      ],
      "stateMutability": "view",
      "type": "function"
    },
    {
      "inputs": [],
      "name": "syntheticProtocolRouterAddress",
      "outputs": [
        {
          "internalType": "address",
          "name": "",
          "type": "address"
        }
      ],
      "stateMutability": "view",
      "type": "function"
    },
    {
      "inputs": [
        {
          "internalType": "uint256",
          "name": "",
          "type": "uint256"
        }
      ],
      "name": "tokens",
      "outputs": [
        {
          "internalType": "uint256",
          "name": "originalTokenID",
          "type": "uint256"
        },
        {
          "internalType": "uint256",
          "name": "ownerSupply",
          "type": "uint256"
        },
        {
          "internalType": "uint256",
          "name": "sellingSupply",
          "type": "uint256"
        },
        {
          "internalType": "uint256",
          "name": "soldSupply",
          "type": "uint256"
        },
        {
          "internalType": "uint256",
          "name": "liquiditySold",
          "type": "uint256"
        },
        {
          "internalType": "uint256",
          "name": "fractionPrices",
          "type": "uint256"
        },
        {
          "internalType": "uint256",
          "name": "lastFlipTime",
          "type": "uint256"
        },
        {
          "internalType": "uint256",
          "name": "liquidityTokenBalance",
          "type": "uint256"
        },
        {
          "internalType": "uint256",
          "name": "perpetualFuturesLShares",
          "type": "uint256"
        },
        {
          "internalType": "enum State",
          "name": "state",
          "type": "uint8"
        }
      ],
      "stateMutability": "view",
      "type": "function"
    },
    {
      "inputs": [],
      "name": "updateBuybackPrice",
      "outputs": [
        {
          "internalType": "bytes32",
          "name": "requestId",
          "type": "bytes32"
        }
      ],
      "stateMutability": "nonpayable",
      "type": "function"
    },
    {
      "inputs": [
        {
          "internalType": "uint256",
          "name": "tokenId_",
          "type": "uint256"
        },
        {
          "internalType": "uint256",
          "name": "newFractionPrice_",
          "type": "uint256"
        }
      ],
      "name": "updatePriceFraction",
      "outputs": [],
      "stateMutability": "nonpayable",
      "type": "function"
    },
    {
      "inputs": [
        {
          "internalType": "uint256",
          "name": "tokenId",
          "type": "uint256"
        }
      ],
      "name": "verify",
      "outputs": [],
      "stateMutability": "nonpayable",
      "type": "function"
    },
    {
      "inputs": [
        {
          "internalType": "uint256",
          "name": "tokenId",
          "type": "uint256"
        },
        {
          "internalType": "uint256",
          "name": "amount",
          "type": "uint256"
        }
      ],
      "name": "withdrawFundingTokens",
      "outputs": [],
      "stateMutability": "nonpayable",
      "type": "function"
    },
    {
      "inputs": [
        {
          "internalType": "uint256",
          "name": "tokenId_",
          "type": "uint256"
        },
        {
          "internalType": "uint256",
          "name": "amountToWithdraw_",
          "type": "uint256"
        }
      ],
      "name": "withdrawJotTokens",
      "outputs": [],
      "stateMutability": "nonpayable",
      "type": "function"
    },
    {
      "inputs": [
        {
          "internalType": "uint256",
          "name": "tokenId",
          "type": "uint256"
        },
        {
          "internalType": "uint256",
          "name": "amount",
          "type": "uint256"
        }
      ],
      "name": "withdrawLiquidityFromFuturePool",
      "outputs": [],
      "stateMutability": "nonpayable",
      "type": "function"
    },
    {
      "inputs": [
        {
          "internalType": "uint256",
          "name": "tokenId",
          "type": "uint256"
        },
        {
          "internalType": "uint256",
          "name": "amount",
          "type": "uint256"
        }
      ],
      "name": "withdrawLiquidityFromQuickswap",
      "outputs": [],
      "stateMutability": "nonpayable",
      "type": "function"
    }
  ],
  "transactionHash": "0xdb4b01253694d9363f3cc98f5ead5acf59eba503f43e546884cbc27f94879fa3",
  "args": [
    "0xA8c0ceC9C6ba4f24565caFd827C7fE00f9b4467E",
    "0x8dbcDd092CA1C8570a28c120ea01EB4c008e9d6b"
  ],
  "solcInputHash": "0cc6fa82c0eeb27ece16b294b847bb89",
  "bytecode": "0x60c06040523480156200001157600080fd5b5060405162005fe538038062005fe583398101604081905262000034916200012c565b600154610100900460ff16806200004e575060015460ff16155b620000b65760405162461bcd60e51b815260206004820152602e60248201527f496e697469616c697a61626c653a20636f6e747261637420697320616c72656160448201526d191e481a5b9a5d1a585b1a5e995960921b606482015260840160405180910390fd5b600154610100900460ff16158015620000d9576001805461ffff19166101011790555b6001600160601b0319606084811b821660805283901b1660a052801562000106576001805461ff00191690555b50505062000163565b80516001600160a01b03811681146200012757600080fd5b919050565b600080604083850312156200013f578182fd5b6200014a836200010f565b91506200015a602084016200010f565b90509250929050565b60805160601c60a05160601c615e4f62000196600039600081816114dd0152612b790152600061134b0152615e4f6000f3fe608060405234801561001057600080fd5b50600436106104545760003560e01c806373233ea611610241578063a03bf2b31161013b578063cd87eb52116100c3578063e445a50211610087578063e445a50214610b66578063ecf70d3714610b79578063ee2af58d14610b9b578063f0b3825014610bae578063f5e95acb14610be257600080fd5b8063cd87eb5214610ae8578063d3c4ea9214610b0a578063d547741f14610b1d578063df04698e14610b30578063e028ba7f14610b5357600080fd5b8063b1da4db71161010a578063b1da4db714610a79578063b495383714610a8c578063b82ad76814610a9f578063bd4a363914610ab2578063cb1a233d14610ad557600080fd5b8063a03bf2b314610a24578063a217fddf14610a37578063ab8f2b1b14610a3f578063abacac2514610a5257600080fd5b8063886747cd116101c95780638d49d4641161018d5780638d49d464146109cf5780638f2e5b02146109e257806391d14854146109f55780639c76a6ac14610a085780639d806b5414610a1157600080fd5b8063886747cd1461097057806389736a90146109835780638aab4274146109965780638c7a6661146109a95780638ce74426146109bc57600080fd5b80637e0aa10c116102105780637e0aa10c146108a357806383a13100146108ff578063843fb4d4146109125780638753367f146109355780638810cf5f1461094857600080fd5b806373233ea6146108475780637984f1981461085a57806379a9fa1c1461087d5780637c4950c71461089057600080fd5b806336568abe116103525780634d81bea1116102da5780635a5d096c1161029e5780635a5d096c146107e85780635c920736146107fb5780635ea172d01461080e5780636332fb8b146108215780636e26115c1461083457600080fd5b80634d81bea1146106f55780634f64b2be14610708578063578410141461078057806358e8bcb7146107ae578063593aa283146107d557600080fd5b80633bb3a24d116103215780633bb3a24d146106895780634bc4d599146106a95780634c4b206b146106bc5780634c4e03f9146106cf5780634c538fde146106e257600080fd5b806336568abe1461063b57806336b64fc21461064e57806337b6d96b1461066157806339fb284e1461067457600080fd5b80631bfc2357116103e05780632f2ff15d116103a45780632f2ff15d146105d857806330218c30146105eb578063306ff280146105f357806332d9b7861461061357806332fe7b261461062657600080fd5b80631bfc2357146105635780631c06b6ba1461057c578063248a9ca31461058f57806326964e51146105b257806326aa143b146105c557600080fd5b806307972c481161042757806307972c48146104da5780630f1203d0146104fd578063141a468c146105285780631755ff21146105485780631a179a511461055057600080fd5b806301ffc9a714610459578063025fdcb21461048157806302d79652146104b2578063072ac5f3146104c7575b600080fd5b61046c6104673660046156c5565b610bf5565b60405190151581526020015b60405180910390f35b6104a461048f3660046155a3565b6000908152600f602052604090206002015490565b604051908152602001610478565b6104c56104c03660046155d3565b610c06565b005b6104c56104d53660046156a4565b611043565b6104a46104e83660046155a3565b6000908152600f602052604090206005015490565b600254610510906001600160a01b031681565b6040516001600160a01b039091168152602001610478565b6104a46105363660046155a3565b60106020526000908152604090205481565b610510611073565b600354610510906001600160a01b031681565b600154610510906201000090046001600160a01b031681565b6104c561058a3660046156a4565b6110f5565b6104a461059d3660046155a3565b60009081526020819052604090206001015490565b6104c56105c0366004615933565b6112b5565b6104a46105d33660046155a3565b61148a565b6104c56105e63660046155d3565b6114b3565b6104a46114d9565b6104a46106013660046155a3565b6000908152600f602052604090205490565b6104c56106213660046156a4565b6115ac565b6104a4600080516020615dfa83398151915281565b6104c56106493660046155d3565b611869565b6104c561065c3660046153ec565b6118e7565b61046c61066f3660046155a3565b611923565b6104a4600080516020615dda83398151915281565b61069c6106973660046155a3565b611962565b6040516104789190615a81565b600b54610510906001600160a01b031681565b601354610510906001600160a01b031681565b6104c56106dd3660046156a4565b6119e3565b600c54610510906001600160a01b031681565b6104c56107033660046157ae565b611c51565b61076a6107163660046155a3565b600f6020526000908152604090208054600182015460028301546003840154600485015460058601546006870154600788015460088901546009909901549798969795969495939492939192909160ff168a565b6040516104789a99989796959493929190615c0f565b61079361078e3660046155a3565b611cc7565b60408051938452602084019290925290820152606001610478565b6104a47fe87beaa2684453d25a1f0e3e7002e109b34fc4f132f115c9a7707901e792751381565b6104c56107e33660046157d2565b611d1a565b61046c6107f63660046155d3565b611f7a565b6104c56108093660046156a4565b61200d565b6104a461081c3660046158c8565b61224d565b6104c561082f366004615602565b61250e565b6104c561084236600461583a565b612673565b61046c6108553660046155a3565b6128d5565b6104a46108683660046155a3565b6000908152600f602052604090206001015490565b6104c561088b3660046155a3565b61291f565b601554610510906001600160a01b031681565b6108db6108b13660046155a3565b6011602052600090815260409020805460018201546002909201549091906001600160a01b031683565b6040805193845260208401929092526001600160a01b031690820152606001610478565b600a54610510906001600160a01b031681565b6104a46109203660046155a3565b6000908152600f602052604090206007015490565b6104c56109433660046155a3565b6129dd565b61095b6109563660046155a3565b612c37565b60408051928352602083019190915201610478565b6104c561097e3660046156a4565b612dd0565b6104c56109913660046156a4565b612f23565b6104a46109a43660046156a4565b613044565b6104c56109b73660046156a4565b61306a565b600954610510906001600160a01b031681565b6104c56109dd3660046156a4565b6130d4565b61095b6109f03660046155a3565b613481565b61046c610a033660046155d3565b61352c565b6104a4600d5481565b6104c5610a1f3660046156a4565b613555565b6104c5610a323660046156a4565b61366a565b6104a4600081565b6104c5610a4d3660046156a4565b6137b5565b6104a47f747c8a75243ae2ca1d188aaaeab610daf9d97e45b6513baed451ebf0b9ec74fd81565b601454610510906001600160a01b031681565b6104c5610a9a3660046156a4565b6138a6565b610510610aad3660046155a3565b613952565b6104a4610ac03660046155a3565b6000908152600f602052604090206004015490565b6104c5610ae33660046155a3565b6139cf565b61046c610af63660046155a3565b6000908152600f6020526040902054151590565b6104c5610b183660046155a3565b613b62565b6104c5610b2b3660046155d3565b613bb3565b6104a4610b3e3660046155a3565b6000908152600f602052604090206003015490565b6104c5610b613660046156a4565b613bd9565b61046c610b743660046155a3565b613c85565b61046c610b873660046155a3565b600090815260076020526040902054151590565b6104c5610ba93660046156a4565b613ef1565b610510610bbc3660046156a4565b60126020908152600092835260408084209091529082529020546001600160a01b031681565b6104c5610bf0366004615424565b6140b5565b6000610c00826142dc565b92915050565b600080516020615dda833981519152610c1f8133614311565b60135460405163c87b56dd60e01b8152600481018590526000916001600160a01b03169063c87b56dd9060240160006040518083038186803b158015610c6457600080fd5b505afa158015610c78573d6000803e3d6000fd5b505050506040513d6000823e601f3d908101601f19168201604052610ca091908101906156ed565b6000858152600f6020526040908190208054601354925163dbf5132560e01b815260048101899052939450909290916001600160a01b03169063dbf5132590602401600060405180830381600087803b158015610cfc57600080fd5b505af1158015610d10573d6000803e3d6000fd5b5050601354604051636902622f60e11b8152600093506001600160a01b03909116915063d204c45e90610d499089908890600401615a44565b602060405180830381600087803b158015610d6357600080fd5b505af1158015610d77573d6000803e3d6000fd5b505050506040513d601f19601f82011682018060405250810190610d9b91906155bb565b905080600760008481526020019081526020016000208190555060405180610140016040528060008152602001600081526020016000815260200160008152602001600081526020016000815260200160008152602001600081526020016000815260200160006003811115610e2157634e487b7160e01b600052602160045260246000fd5b815250600f6000898152602001908152602001600020600082015181600001556020820151816001015560408201518160020155606082015181600301556080820151816004015560a0820151816005015560c0820151816006015560e0820151816007015561010082015181600801556101208201518160090160006101000a81548160ff02191690836003811115610ecb57634e487b7160e01b600052602160045260246000fd5b021790555090505060405180610140016040528083815260200169021e19e0c9bab240000081526020016000815260200160008152602001600081526020016000815260200160008152602001600081526020016000815260200160026003811115610f4757634e487b7160e01b600052602160045260246000fd5b815250600f6000838152602001908152602001600020600082015181600001556020820151816001015560408201518160020155606082015181600301556080820151816004015560a0820151816005015560c0820151816006015560e0820151816007015561010082015181600801556101208201518160090160006101000a81548160ff02191690836003811115610ff157634e487b7160e01b600052602160045260246000fd5b021790555050604080518381526001600160a01b03891660208201527fae0df3ed3f99b751fb0a740538790a748856958d5737ad5ae138454ed7e053e49250015b60405180910390a150505050505050565b7fe87beaa2684453d25a1f0e3e7002e109b34fc4f132f115c9a7707901e792751361106e8133614311565b505050565b600b54604080516324dead2f60e11b815290516000926001600160a01b0316916349bd5a5e916004808301926020929190829003018186803b1580156110b857600080fd5b505afa1580156110cc573d6000803e3d6000fd5b505050506040513d601f19601f820116820180604052508101906110f09190615408565b905090565b6000828152600f6020526040902061110c836128d5565b156111325760405162461bcd60e51b815260040161112990615b5c565b60405180910390fd5b61113c8333611f7a565b6111825760405162461bcd60e51b81526020600482015260176024820152764f6e6c79206f776e65722063616e20776974686472617760481b6044820152606401611129565b80600101548211156111a65760405162461bcd60e51b815260040161112990615a94565b818160010160008282546111ba9190615d30565b9091555050600b5460405163a9059cbb60e01b81526001600160a01b039091169063a9059cbb906111f19033908690600401615a68565b602060405180830381600087803b15801561120b57600080fd5b505af115801561121f573d6000803e3d6000fd5b505050506040513d601f19601f820116820180604052508101906112439190615587565b50600181015461106e576001546040516316bfb45760e11b815260048101859052620100009091046001600160a01b031690632d7f68ae90602401600060405180830381600087803b15801561129857600080fd5b505af11580156112ac573d6000803e3d6000fd5b50505050505050565b6000828152600f602052604090206112cc83613c85565b6113185760405162461bcd60e51b815260206004820152601760248201527f466c6970206973206e6f7420616c6c6f776564207965740000000000000000006044820152606401611129565b611321836128d5565b1561133e5760405162461bcd60e51b815260040161112990615b5c565b42816006018190555060007f00000000000000000000000000000000000000000000000000000000000000006001600160a01b031663dbdff2c16040518163ffffffff1660e01b8152600401602060405180830381600087803b1580156113a457600080fd5b505af11580156113b8573d6000803e3d6000fd5b505050506040513d601f19601f820116820180604052508101906113dc91906155bb565b6040805160608101825286815267ffffffffffffffff8681166020808401828152338587018181526000898152600685528890209651875591516001909601805492516001600160a01b031668010000000000000000026001600160e01b031990931696909516959095171790925592519283529293508692909184917ff3430182a8f4149cb1910574795295555b8119134718716b9f3e5024189a64a5910160405180910390a450505050565b6000818152600f60205260408120600381015460028201546114ac9190615d30565b9392505050565b6000828152602081905260409020600101546114cf8133614311565b61106e8383614375565b60007f00000000000000000000000000000000000000000000000000000000000000006001600160a01b03166330218c306040518163ffffffff1660e01b8152600401602060405180830381600087803b15801561153657600080fd5b505af115801561154a573d6000803e3d6000fd5b505050506040513d601f19601f8201168201806040525081019061156e91906155bb565b90507fbe2b5ab4e879a268995b8af0c68a310c39e8c1573b4c283ef80e3c64125499b9816040516115a191815260200190565b60405180910390a190565b6013546040516331a9108f60e11b81526004810184905233916001600160a01b031690636352211e9060240160206040518083038186803b1580156115f057600080fd5b505afa158015611604573d6000803e3d6000fd5b505050506040513d601f19601f820116820180604052508101906116289190615408565b6001600160a01b03161461164e5760405162461bcd60e51b815260040161112990615b34565b600081116116965760405162461bcd60e51b8152602060048201526015602482015274416d6f756e742063616e2774206265207a65726f2160581b6044820152606401611129565b6000828152600f60205260409020600401548110156116c75760405162461bcd60e51b815260040161112990615aec565b600c5460035460405163095ea7b360e01b81526001600160a01b039283169263095ea7b3926116fd929116908590600401615a68565b602060405180830381600087803b15801561171757600080fd5b505af115801561172b573d6000803e3d6000fd5b505050506040513d601f19601f8201168201806040525081019061174f9190615587565b5060035460405163366996df60e11b8152600481018390526000916001600160a01b031690636cd32dbe90602401602060405180830381600087803b15801561179757600080fd5b505af11580156117ab573d6000803e3d6000fd5b505050506040513d601f19601f820116820180604052508101906117cf91906155bb565b905081600f600085815260200190815260200160002060040160008282546117f79190615d30565b90915550506000838152600f60205260408120600801805483929061181d908490615cd9565b909155505060408051848152602081018490529081018290527fccdaef8d1f978683be235d737d97085fe1c2a4de55c94d9fbcf91a67dc6fd797906060015b60405180910390a1505050565b6001600160a01b03811633146118d95760405162461bcd60e51b815260206004820152602f60248201527f416363657373436f6e74726f6c3a2063616e206f6e6c792072656e6f756e636560448201526e103937b632b9903337b91039b2b63360891b6064820152608401611129565b6118e382826143f9565b5050565b600080516020615dfa8339815191526119008133614311565b50600380546001600160a01b0319166001600160a01b0392909216919091179055565b600060026000838152600f602052604090206009015460ff16600381111561195b57634e487b7160e01b600052602160045260246000fd5b1492915050565b60135460405163c87b56dd60e01b8152600481018390526060916001600160a01b03169063c87b56dd9060240160006040518083038186803b1580156119a757600080fd5b505afa1580156119bb573d6000803e3d6000fd5b505050506040513d6000823e601f3d908101601f19168201604052610c0091908101906156ed565b6000828152600f6020526040908190206013549151634f558e7960e01b81526004810185905290916001600160a01b031690634f558e799060240160206040518083038186803b158015611a3657600080fd5b505afa158015611a4a573d6000803e3d6000fd5b505050506040513d601f19601f82011682018060405250810190611a6e9190615587565b611ab15760405162461bcd60e51b8152602060048201526014602482015273151bdad95b881b9bdd081c9959da5cdd195c995960621b6044820152606401611129565b60405163d52cb9cb60e01b8152600481018290526024810183905260009073dd31c8D6Df3f508aA0AE81eE20cd9e87FCB8Cf589063d52cb9cb9060440160206040518083038186803b158015611b0657600080fd5b505af4158015611b1a573d6000803e3d6000fd5b505050506040513d601f19601f82011682018060405250810190611b3e91906155bb565b600c546040516323b872dd60e01b81529192506001600160a01b0316906323b872dd90611b7390339030908690600401615a20565b602060405180830381600087803b158015611b8d57600080fd5b505af1158015611ba1573d6000803e3d6000fd5b505050506040513d601f19601f82011682018060405250810190611bc59190615587565b50600b5460405163a9059cbb60e01b81526001600160a01b039091169063a9059cbb90611bf89033908790600401615a68565b602060405180830381600087803b158015611c1257600080fd5b505af1158015611c26573d6000803e3d6000fd5b505050506040513d601f19601f82011682018060405250810190611c4a9190615587565b5050505050565b611c5b8233611f7a565b611ca75760405162461bcd60e51b815260206004820152601a60248201527f4f6e6c79206f776e65722063616e206368616e676520666c69700000000000006044820152606401611129565b600091825260086020526040909120805460ff1916911515919091179055565b6000806000611cd5846128d5565b15611cf25760405162461bcd60e51b815260040161112990615b5c565b600080611cfe86612c37565b91509150611d0c828261445e565b989097509095509350505050565b6000828152600f602052604090206002600982015460ff166003811115611d5157634e487b7160e01b600052602160045260246000fd5b1415611daa5760405162461bcd60e51b815260206004820152602260248201527f43616e2774206368616e6765206d657461646174612061667465722076657269604482015261667960f01b6064820152608401611129565b6001600982015460ff166003811115611dd357634e487b7160e01b600052602160045260246000fd5b1415611e2f5760405162461bcd60e51b815260206004820152602560248201527f43616e2774206368616e6765206d65746164617461207768696c6520766572696044820152646679696e6760d81b6064820152608401611129565b6013546040516331a9108f60e11b8152600481018590526000916001600160a01b031690636352211e9060240160206040518083038186803b158015611e7457600080fd5b505afa158015611e88573d6000803e3d6000fd5b505050506040513d601f19601f82011682018060405250810190611eac9190615408565b9050336001600160a01b03821614611f105760405162461bcd60e51b815260206004820152602160248201527f596f7520617265206e6f7420746865206f776e6572206f6620746865204e46546044820152602160f81b6064820152608401611129565b60135460405163593aa28360e01b81526001600160a01b039091169063593aa28390611f429087908790600401615bf6565b600060405180830381600087803b158015611f5c57600080fd5b505af1158015611f70573d6000803e3d6000fd5b5050505050505050565b6013546040516331a9108f60e11b8152600481018490526000916001600160a01b0384811692911690636352211e9060240160206040518083038186803b158015611fc457600080fd5b505afa158015611fd8573d6000803e3d6000fd5b505050506040513d601f19601f82011682018060405250810190611ffc9190615408565b6001600160a01b0316149392505050565b6000828152600f602052604090206001015481111561206e5760405162461bcd60e51b815260206004820152601f60248201527f45786368616e676520616d6f756e7420657863656564732062616c616e6365006044820152606401611129565b6004546040805160028082526060820183526001600160a01b03909316926000926020830190803683375050600b5482519293506001600160a01b0316918391506000906120cc57634e487b7160e01b600052603260045260246000fd5b6001600160a01b039283166020918202929092010152600c5482519116908290600190811061210b57634e487b7160e01b600052603260045260246000fd5b6001600160a01b039092166020928302919091018201526000858152600f909152604081206001018054859290612143908490615d30565b90915550506000848152600f60205260409020600101546121c2576001546040516316bfb45760e11b815260048101869052620100009091046001600160a01b031690632d7f68ae90602401600060405180830381600087803b1580156121a957600080fd5b505af11580156121bd573d6000803e3d6000fd5b505050505b6040516338ed173960e01b81526001600160a01b038316906338ed1739906121f7908690600090869033904290600401615b86565b600060405180830381600087803b15801561221157600080fd5b505af1158015612225573d6000803e3d6000fd5b505050506040513d6000823e601f3d908101601f19168201604052611c4a91908101906154df565b6000600080516020615dfa8339815191526122688133614311565b600087815260076020526040902054156122c45760405162461bcd60e51b815260206004820181905260248201527f53796e746865746963204e465420616c72656164792067656e657261746564216044820152606401611129565b601354604051636902622f60e11b81526001600160a01b039091169063d204c45e906122f69087908790600401615a44565b602060405180830381600087803b15801561231057600080fd5b505af1158015612324573d6000803e3d6000fd5b505050506040513d601f19601f8201168201806040525081019061234891906155bb565b915060006123608769021e19e0c9bab2400000615d30565b905060006040518061014001604052808a81526020018981526020018381526020016000815260200160008152602001888152602001600081526020016000815260200160008152602001600060038111156123cc57634e487b7160e01b600052602160045260246000fd5b815250905080600f6000868152602001908152602001600020600082015181600001556020820151816001015560408201518160020155606082015181600301556080820151816004015560a0820151816005015560c0820151816006015560e0820151816007015561010082015181600801556101208201518160090160006101000a81548160ff0219169083600381111561247957634e487b7160e01b600052602160045260246000fd5b02179055505050876124e9576001546040516316bfb45760e11b815260048101869052620100009091046001600160a01b031690632d7f68ae90602401600060405180830381600087803b1580156124d057600080fd5b505af11580156124e4573d6000803e3d6000fd5b505050505b5050506000818152600860205260409020805460ff1916600117905595945050505050565b7f747c8a75243ae2ca1d188aaaeab610daf9d97e45b6513baed451ebf0b9ec74fd6125398133614311565b6040808401516000908152600f6020522082156125d25760098101805460ff19166002179055600b546040516340c10f1960e01b81526001600160a01b03909116906340c10f199061259b90309069021e19e0c9bab240000090600401615a68565b600060405180830381600087803b1580156125b557600080fd5b505af11580156125c9573d6000803e3d6000fd5b50505050612609565b606084015160098201805460ff1916600183600381111561260357634e487b7160e01b600052602160045260246000fd5b02179055505b835160208086015160408088015181516001600160a01b039586168152949092169284019290925290820152831515606082015285907fcf5cb568c779c24ae423fed9236ba737105872c7e0b13ebb2fd578233747825a9060800160405180910390a25050505050565b600080516020615dfa83398151915261268c8133614311565b6000858152600f6020526040902060018101546126de5760405162461bcd60e51b815260206004820152601060248201526f10d85b89dd0818994818da185b99d95960821b6044820152606401611129565b6002600982015460ff16600381111561270757634e487b7160e01b600052602160045260246000fd5b146127495760405162461bcd60e51b8152602060048201526012602482015271151bdad95b881b9bdd081d995c9a599a595960721b6044820152606401611129565b6013546040516331a9108f60e11b8152600481018890526001600160a01b03858116921690636352211e9060240160206040518083038186803b15801561278f57600080fd5b505afa1580156127a3573d6000803e3d6000fd5b505050506040513d601f19601f820116820180604052508101906127c79190615408565b6001600160a01b0316146127ed5760405162461bcd60e51b815260040161112990615b34565b8054600090815260116020526040812080549091600191839190612812908490615cd9565b9091555050600181018690556002810180546001600160a01b038681166001600160a01b03199092169190911790915560098301805460ff19166003179055825460009081526007602052604080822082905588855588825290819020899055601354905163593aa28360e01b815291169063593aa2839061289a908a908990600401615bf6565b600060405180830381600087803b1580156128b457600080fd5b505af11580156128c8573d6000803e3d6000fd5b5050505050505050505050565b6000818152600f602052604081206002600982015460ff16600381111561290c57634e487b7160e01b600052602160045260246000fd5b1415806114ac5750600101541592915050565b600e5461292e9061012c615cd9565b421061297c5760405162461bcd60e51b815260206004820152601d60248201527f4275796261636b207072696365207570646174652072657175697265640000006044820152606401611129565b6129868133611f7a565b6129a25760405162461bcd60e51b815260040161112990615ac0565b6129ab816128d5565b156129c85760405162461bcd60e51b815260040161112990615b5c565b6129d181614597565b6129da81614938565b50565b6000818152600f6020526040908190206013549151634f558e7960e01b81526004810184905290916001600160a01b031690634f558e799060240160206040518083038186803b158015612a3057600080fd5b505afa158015612a44573d6000803e3d6000fd5b505050506040513d601f19601f82011682018060405250810190612a689190615587565b612aab5760405162461bcd60e51b8152602060048201526014602482015273151bdad95b881b9bdd081c9959da5cdd195c995960621b6044820152606401611129565b6002600982015460ff166003811115612ad457634e487b7160e01b600052602160045260246000fd5b1415612b1b5760405162461bcd60e51b8152602060048201526016602482015275151bdad95b88185b1c9958591e481d995c9a599a595960521b6044820152606401611129565b60098101805460ff19166001908117909155600a54825460009081526010602090815260408083205481516345b0ce7560e11b81526001600160a01b03958616600482015260248101899052604481019690965260648601525191937f000000000000000000000000000000000000000000000000000000000000000090931692638b619cea926084808301939282900301818787803b158015612bbe57600080fd5b505af1158015612bd2573d6000803e3d6000fd5b505050506040513d601f19601f82011682018060405250810190612bf691906155bb565b9050807faf92676e6ce91b92427009a49e22fa6d354ed418db8d0965bca4232dcf3e658f3385604051612c2a929190615a68565b60405180910390a2505050565b6000818152600f60205260408120819081612c50611073565b9050600082600701549050600080836001600160a01b0316630902f1ac6040518163ffffffff1660e01b815260040160606040518083038186803b158015612c9757600080fd5b505afa158015612cab573d6000803e3d6000fd5b505050506040513d601f19601f82011682018060405250810190612ccf9190615760565b50915091506000846001600160a01b03166318160ddd6040518163ffffffff1660e01b815260040160206040518083038186803b158015612d0f57600080fd5b505afa158015612d23573d6000803e3d6000fd5b505050506040513d601f19601f82011682018060405250810190612d4791906155bb565b905060008115612d965781612d656001600160701b03861687615d11565b612d6f9190615cf1565b905081612d856001600160701b03851687615d11565b612d8f9190615cf1565b9750612da3565b826001600160701b031697505b8087600201548860010154612db89190615cd9565b612dc29190615cd9565b985050505050505050915091565b6000828152600f60205260409020612de88333611f7a565b612e2d5760405162461bcd60e51b815260206004820152601660248201527513db9b1e481bdddb995c8818d85b8819195c1bdcda5d60521b6044820152606401611129565b604051630654881960e51b8152600481018290526024810183905273dd31c8D6Df3f508aA0AE81eE20cd9e87FCB8Cf589063ca9103209060440160006040518083038186803b158015612e7f57600080fd5b505af4158015612e93573d6000803e3d6000fd5b5050600b546040516323b872dd60e01b81526001600160a01b0390911692506323b872dd9150612ecb90339030908790600401615a20565b602060405180830381600087803b158015612ee557600080fd5b505af1158015612ef9573d6000803e3d6000fd5b505050506040513d601f19601f82011682018060405250810190612f1d9190615587565b50505050565b6013546040516331a9108f60e11b81526004810184905233916001600160a01b031690636352211e9060240160206040518083038186803b158015612f6757600080fd5b505afa158015612f7b573d6000803e3d6000fd5b505050506040513d601f19601f82011682018060405250810190612f9f9190615408565b6001600160a01b031614612fc55760405162461bcd60e51b815260040161112990615ac0565b6000828152600f6020526040908190209051630451aa3960e11b815260048101919091526024810182905273dd31c8D6Df3f508aA0AE81eE20cd9e87FCB8Cf58906308a35472906044015b60006040518083038186803b15801561302857600080fd5b505af415801561303c573d6000803e3d6000fd5b505050505050565b6000828152600f602052604081206005015481906130629084615d11565b949350505050565b7f747c8a75243ae2ca1d188aaaeab610daf9d97e45b6513baed451ebf0b9ec74fd6130958133614311565b600d82905542600e5560408051848152602081018490527fb6479ea2703e76c8b5d9b262a24a0a76b6d232e57777321500a831d1ff4ae424910161185c565b6000828152600f60205260409081902060135491516331a9108f60e11b815260048101859052909133916001600160a01b0390911690636352211e9060240160206040518083038186803b15801561312b57600080fd5b505afa15801561313f573d6000803e3d6000fd5b505050506040513d601f19601f820116820180604052508101906131639190615408565b6001600160a01b0316146131895760405162461bcd60e51b815260040161112990615b34565b60008160030154116131d25760405162461bcd60e51b8152602060048201526012602482015271736f6c64537570706c79206973207a65726f60701b6044820152606401611129565b80600401548210156131f65760405162461bcd60e51b815260040161112990615aec565b806001015482101561321a5760405162461bcd60e51b815260040161112990615aec565b60048054600b5460405163095ea7b360e01b81526001600160a01b0392831693919092169163095ea7b391613253918591889101615a68565b602060405180830381600087803b15801561326d57600080fd5b505af1158015613281573d6000803e3d6000fd5b505050506040513d601f19601f820116820180604052508101906132a59190615587565b50600c546004805460405163095ea7b360e01b81526001600160a01b039384169363095ea7b3936132dc9390911691889101615a68565b602060405180830381600087803b1580156132f657600080fd5b505af115801561330a573d6000803e3d6000fd5b505050506040513d601f19601f8201168201806040525081019061332e9190615587565b50600b54600c5460405162e8e33760e81b81526001600160a01b0392831660048201529082166024820152604481018590526064810185905260006084820181905260a482018190523060c48301524260e4830152918291829185169063e8e337009061010401606060405180830381600087803b1580156133af57600080fd5b505af11580156133c3573d6000803e3d6000fd5b505050506040513d601f19601f820116820180604052508101906133e7919061589b565b925092509250828560010160008282546134019190615d30565b925050819055508185600401600082825461341c9190615d30565b92505081905550808560070160008282546134379190615cd9565b90915550506040805188815260208101859052908101839052606081018290527febe3c64c4e0aa36f2591dabdc2ea8922042da54fa0a283ae1ef74ed00495622790608001611032565b60055460009081906001600160a01b031663f4e5ff0d61349f611073565b6000868152600f6020526040908190206007015490516001600160e01b031960e085901b1681526134d4929190600401615a68565b604080518083038186803b1580156134eb57600080fd5b505afa1580156134ff573d6000803e3d6000fd5b505050506040513d601f19601f820116820180604052508101906135239190615817565b91509150915091565b6000918252602082815260408084206001600160a01b0393909316845291905290205460ff1690565b61355f8233611f7a565b6135a35760405162461bcd60e51b81526020600482015260156024820152742cb7ba9030b932903737ba103a34329037bbb732b960591b6044820152606401611129565b6000828152600f6020526040902060070154808211156136055760405162461bcd60e51b815260206004820152601e60248201527f4e6f7420656e6f756768206c697175696469747920617661696c61626c6500006044820152606401611129565b600061360f611073565b905082600f600086815260200190815260200160002060070160008282546136379190615d30565b909155505060405163a9059cbb60e01b81526001600160a01b0382169063a9059cbb90611bf89033908790600401615a68565b6000828152600f60205260409020613681836128d5565b1561369e5760405162461bcd60e51b815260040161112990615b5c565b6136a88333611f7a565b6136ee5760405162461bcd60e51b81526020600482015260176024820152764f6e6c79206f776e65722063616e20776974686472617760481b6044820152606401611129565b80600401548211156137125760405162461bcd60e51b815260040161112990615a94565b600c5460405163a9059cbb60e01b81526001600160a01b039091169063a9059cbb906137449033908690600401615a68565b602060405180830381600087803b15801561375e57600080fd5b505af1158015613772573d6000803e3d6000fd5b505050506040513d601f19601f820116820180604052508101906137969190615587565b50818160040160008282546137ab9190615d30565b9091555050505050565b6013546040516331a9108f60e11b81526004810184905233916001600160a01b031690636352211e9060240160206040518083038186803b1580156137f957600080fd5b505afa15801561380d573d6000803e3d6000fd5b505050506040513d601f19601f820116820180604052508101906138319190615408565b6001600160a01b0316146138575760405162461bcd60e51b815260040161112990615ac0565b6000828152600f6020526040908190209051630c66c75560e21b815260048101919091526024810182905273dd31c8D6Df3f508aA0AE81eE20cd9e87FCB8Cf589063319b1d5490604401613010565b6013546040516331a9108f60e11b81526004810184905233916001600160a01b031690636352211e9060240160206040518083038186803b1580156138ea57600080fd5b505afa1580156138fe573d6000803e3d6000fd5b505050506040513d601f19601f820116820180604052508101906139229190615408565b6001600160a01b0316146139485760405162461bcd60e51b815260040161112990615b34565b6118e382826149fe565b6013546040516331a9108f60e11b8152600481018390526000916001600160a01b031690636352211e9060240160206040518083038186803b15801561399757600080fd5b505afa1580156139ab573d6000803e3d6000fd5b505050506040513d601f19601f82011682018060405250810190610c009190615408565b600154604051637b5f398960e01b815260048101839052620100009091046001600160a01b031690637b5f39899060240160206040518083038186803b158015613a1857600080fd5b505afa158015613a2c573d6000803e3d6000fd5b505050506040513d601f19601f82011682018060405250810190613a509190615587565b613a9c5760405162461bcd60e51b815260206004820152601860248201527f546f6b656e206973206e6f74207265636f76657261626c6500000000000000006044820152606401611129565b613aa68133611f7a565b613ac25760405162461bcd60e51b815260040161112990615ac0565b600b54613ae4906001600160a01b0316333069021e19e0c9bab2400000614c79565b6000818152600f60205260409081902069021e19e0c9bab2400000600191820155549051630532ab5d60e11b815260048101839052620100009091046001600160a01b031690630a6556ba906024015b600060405180830381600087803b158015613b4e57600080fd5b505af1158015611c4a573d6000803e3d6000fd5b600080516020615dda833981519152613b7b8133614311565b6000828152600f6020526040902060080154613b9783826149fe565b6000838152600f602052604090206007015461303c8482614cd1565b600082815260208190526040902060010154613bcf8133614311565b61106e83836143f9565b6013546040516331a9108f60e11b81526004810184905233916001600160a01b031690636352211e9060240160206040518083038186803b158015613c1d57600080fd5b505afa158015613c31573d6000803e3d6000fd5b505050506040513d601f19601f82011682018060405250810190613c559190615408565b6001600160a01b031614613c7b5760405162461bcd60e51b815260040161112990615b34565b612f1d8282614cd1565b60008181526008602052604081205460ff168015613d1a5750601354604051634f558e7960e01b8152600481018490526001600160a01b0390911690634f558e799060240160206040518083038186803b158015613ce257600080fd5b505afa158015613cf6573d6000803e3d6000fd5b505050506040513d601f19601f82011682018060405250810190613d1a9190615587565b8015613dc65750600960009054906101000a90046001600160a01b03166001600160a01b031663766873326040518163ffffffff1660e01b815260040160206040518083038186803b158015613d6f57600080fd5b505afa158015613d83573d6000803e3d6000fd5b505050506040513d601f19601f82011682018060405250810190613da791906155bb565b6000838152600f6020526040902060060154613dc39042615d30565b10155b8015613ed45750600960009054906101000a90046001600160a01b03166001600160a01b031663b94d25ce6040518163ffffffff1660e01b815260040160206040518083038186803b158015613e1b57600080fd5b505afa158015613e2f573d6000803e3d6000fd5b505050506040513d601f19601f82011682018060405250810190613e5391906155bb565b600b546014546040516370a0823160e01b81526001600160a01b0391821660048201529116906370a082319060240160206040518083038186803b158015613e9a57600080fd5b505afa158015613eae573d6000803e3d6000fd5b505050506040513d601f19601f82011682018060405250810190613ed291906155bb565b115b8015610c0057506000828152600f60205260409020541515610c00565b6013546040516331a9108f60e11b81526004810184905233916001600160a01b031690636352211e9060240160206040518083038186803b158015613f3557600080fd5b505afa158015613f49573d6000803e3d6000fd5b505050506040513d601f19601f82011682018060405250810190613f6d9190615408565b6001600160a01b031614613fc35760405162461bcd60e51b815260206004820152601760248201527f4f6e6c79206f776e65722063616e20696e6372656173650000000000000000006044820152606401611129565b6000828152600f6020526040908190209051633e8626f560e11b815260048101919091526024810182905273dd31c8D6Df3f508aA0AE81eE20cd9e87FCB8Cf5890637d0c4dea9060440160006040518083038186803b15801561402557600080fd5b505af4158015614039573d6000803e3d6000fd5b5050506000838152600f6020526040902060010154151590506118e3576001546040516316bfb45760e11b815260048101849052620100009091046001600160a01b031690632d7f68ae90602401600060405180830381600087803b1580156140a157600080fd5b505af115801561303c573d6000803e3d6000fd5b600154610100900460ff16806140ce575060015460ff16155b6141315760405162461bcd60e51b815260206004820152602e60248201527f496e697469616c697a61626c653a20636f6e747261637420697320616c72656160448201526d191e481a5b9a5d1a585b1a5e995960921b6064820152608401611129565b600154610100900460ff16158015614153576001805461ffff19166101011790555b600b80546001600160a01b03199081166001600160a01b038d8116919091179092556013805482168b8416179055600a805482168c841617905560028054339083161790556001805462010000600160b01b031916620100008b851602179055600980548216898416908117909155601480548316898516179055601580548316888516179055600480548316878516178155600580549093169386169390931790915560408051632629c7ef60e11b815290519192634c538fde928282019260209290829003018186803b15801561422b57600080fd5b505afa15801561423f573d6000803e3d6000fd5b505050506040513d601f19601f820116820180604052508101906142639190615408565b600c80546001600160a01b0319166001600160a01b039290921691909117905561428e600033614f7a565b6142a6600080516020615dfa83398151915233614f7a565b6142be600080516020615dda83398151915288614f7a565b80156142d0576001805461ff00191690555b50505050505050505050565b60006001600160e01b03198216637965db0b60e01b1480610c0057506301ffc9a760e01b6001600160e01b0319831614610c00565b61431b828261352c565b6118e357614333816001600160a01b03166014614f84565b61433e836020614f84565b60405160200161434f9291906159ab565b60408051601f198184030181529082905262461bcd60e51b825261112991600401615a81565b61437f828261352c565b6118e3576000828152602081815260408083206001600160a01b03851684529091529020805460ff191660011790556143b53390565b6001600160a01b0316816001600160a01b0316837f2f8788117e7eff1d82e926ec794901d17c78024a50270940304540a733656f0d60405160405180910390a45050565b614403828261352c565b156118e3576000828152602081815260408083206001600160a01b0385168085529252808320805460ff1916905551339285917ff6391f5c32d9c69d2a47ea670b442974b53935d1edc7fd64eb21e047a839171b9190a45050565b6000818169021e19e0c9bab24000008511156144925750600061448b69021e19e0c9bab240000086615d30565b9250614590565b8115614558576000670de0b6b3a7640000600d54846144b19190615d11565b6144bb9190615cf1565b905069021e19e0c9bab24000006144d28783615cd9565b111561452c5760006144ee69021e19e0c9bab240000088615d30565b90506000670de0b6b3a7640000600d54836145099190615d11565b6145139190615cf1565b905061451f8186615d30565b9450600093505050614552565b806145418769021e19e0c9bab2400000615d30565b61454b9190615d30565b9150600092505b50614590565b600d54670de0b6b3a7640000906145798769021e19e0c9bab2400000615d30565b6145839190615d11565b61458d9190615cf1565b90505b9250925092565b6000818152600f6020526040812060078101549091906145b8908490614cd1565b9150506000826002015483600101546145d19190615cd9565b905060008060006145e2848661445e565b925092509250600069021e19e0c9bab2400000851061460b5769021e19e0c9bab240000061460d565b845b600b54604051630852cd8d60e31b8152600481018390529192506001600160a01b0316906342966c6890602401600060405180830381600087803b15801561465457600080fd5b505af1158015614668573d6000803e3d6000fd5b50505050600082111561481757600b546015546001600160a01b0391821691633950935191166146a28469021e19e0c9bab2400000615d30565b6040518363ffffffff1660e01b81526004016146bf929190615a68565b602060405180830381600087803b1580156146d957600080fd5b505af11580156146ed573d6000803e3d6000fd5b505050506040513d601f19601f820116820180604052508101906147119190615587565b50601554600d546001600160a01b0390911690635ff44eb99084906147369082615cf1565b6040516001600160e01b031960e085901b16815260048101929092526024820152604401600060405180830381600087803b15801561477457600080fd5b505af1158015614788573d6000803e3d6000fd5b5050600c546015546040516323b872dd60e01b81526001600160a01b0392831694506323b872dd93506147c392339216908790600401615a20565b602060405180830381600087803b1580156147dd57600080fd5b505af11580156147f1573d6000803e3d6000fd5b505050506040513d601f19601f820116820180604052508101906148159190615587565b505b82156148a357600c5460405163a9059cbb60e01b81526001600160a01b039091169063a9059cbb9061484f9033908790600401615a68565b602060405180830381600087803b15801561486957600080fd5b505af115801561487d573d6000803e3d6000fd5b505050506040513d601f19601f820116820180604052508101906148a19190615587565b505b8315611f7057600b5460405163a9059cbb60e01b81526001600160a01b039091169063a9059cbb906148db9033908890600401615a68565b602060405180830381600087803b1580156148f557600080fd5b505af1158015614909573d6000803e3d6000fd5b505050506040513d601f19601f8201168201806040525081019061492d9190615587565b505050505050505050565b6000818152600f6020908152604080832080548452601083528184205460128452828520818652909352922080546001600160a01b0319163317905561497f816001615cd9565b825460009081526010602052604090205561499983615166565b50546000908152600760208181526040808420849055938352600f90529181208181556001810182905560028101829055600381018290556004810182905560058101829055600681018290559182018190556008820155600901805460ff19169055565b60008111614a455760405162461bcd60e51b8152602060048201526014602482015273416d6f756e742063616e2774206265207a65726f60601b6044820152606401611129565b6000828152600f6020526040902060080154811115614a765760405162461bcd60e51b815260040161112990615a94565b600c546040516370a0823160e01b81523060048201526000916001600160a01b0316906370a082319060240160206040518083038186803b158015614aba57600080fd5b505afa158015614ace573d6000803e3d6000fd5b505050506040513d601f19601f82011682018060405250810190614af291906155bb565b600354604051639c8f9f2360e01b8152600481018590529192506001600160a01b031690639c8f9f2390602401600060405180830381600087803b158015614b3957600080fd5b505af1158015614b4d573d6000803e3d6000fd5b5050600c546040516370a0823160e01b8152306004820152600093506001600160a01b0390911691506370a082319060240160206040518083038186803b158015614b9757600080fd5b505afa158015614bab573d6000803e3d6000fd5b505050506040513d601f19601f82011682018060405250810190614bcf91906155bb565b9050614bdb8282615d30565b6000858152600f602052604081206004018054909190614bfc908490615cd9565b90915550506000848152600f602052604081206008018054859290614c22908490615d30565b909155507fad63b7791c98703a4c235cc5a71aa764e4ab8063138091cb5bb0f43321544821905084614c548484615d30565b604080519283526020830191909152810185905260600160405180910390a150505050565b612f1d846323b872dd60e01b858585604051602401614c9a93929190615a20565b60408051601f198184030181529190526020810180516001600160e01b03166001600160e01b031990931692909217909152615197565b6000828152600f60205260408120819083614d255760405162461bcd60e51b8152602060048201526014602482015273416d6f756e742063616e2774206265207a65726f60601b6044820152606401611129565b8381600701541015614d885760405162461bcd60e51b815260206004820152602660248201527f54686572652773206e6f7420656e6f756768206c697175696469747920617661604482015265696c61626c6560d01b6064820152608401611129565b6004546001600160a01b03166000614d9e611073565b6004805460405163095ea7b360e01b81529293506001600160a01b038085169363095ea7b393614dd493909216918b9101615a68565b602060405180830381600087803b158015614dee57600080fd5b505af1158015614e02573d6000803e3d6000fd5b505050506040513d601f19601f82011682018060405250810190614e269190615587565b50600b54600c54604051635d5155ef60e11b81526001600160a01b03928316600482015290821660248201526044810188905260006064820181905260848201523060a48201524260c48201529083169063baa2abde9060e4016040805180830381600087803b158015614e9957600080fd5b505af1158015614ead573d6000803e3d6000fd5b505050506040513d601f19601f82011682018060405250810190614ed19190615817565b809550819650505084836001016000828254614eed9190615cd9565b9250508190555083836004016000828254614f089190615cd9565b9250508190555085836007016000828254614f239190615cd9565b90915550506040805188815260208101879052908101859052606081018790527f4bbab538c72d65d52ce272c553c13c64bd1a26e5c6a57996a04fe074d1faccc49060800160405180910390a15050509250929050565b6118e38282614375565b60606000614f93836002615d11565b614f9e906002615cd9565b67ffffffffffffffff811115614fc457634e487b7160e01b600052604160045260246000fd5b6040519080825280601f01601f191660200182016040528015614fee576020820181803683370190505b509050600360fc1b8160008151811061501757634e487b7160e01b600052603260045260246000fd5b60200101906001600160f81b031916908160001a905350600f60fb1b8160018151811061505457634e487b7160e01b600052603260045260246000fd5b60200101906001600160f81b031916908160001a9053506000615078846002615d11565b615083906001615cd9565b90505b6001811115615117576f181899199a1a9b1b9c1cb0b131b232b360811b85600f16601081106150c557634e487b7160e01b600052603260045260246000fd5b1a60f81b8282815181106150e957634e487b7160e01b600052603260045260246000fd5b60200101906001600160f81b031916908160001a90535060049490941c9361511081615d73565b9050615086565b5083156114ac5760405162461bcd60e51b815260206004820181905260248201527f537472696e67733a20686578206c656e67746820696e73756666696369656e746044820152606401611129565b60135460405163dbf5132560e01b8152600481018390526001600160a01b039091169063dbf5132590602401613b34565b60006151ec826040518060400160405280602081526020017f5361666545524332303a206c6f772d6c6576656c2063616c6c206661696c6564815250856001600160a01b03166152699092919063ffffffff16565b80519091501561106e578080602001905181019061520a9190615587565b61106e5760405162461bcd60e51b815260206004820152602a60248201527f5361666545524332303a204552433230206f7065726174696f6e20646964206e6044820152691bdd081cdd58d8d9595960b21b6064820152608401611129565b6060613062848460008585843b6152c25760405162461bcd60e51b815260206004820152601d60248201527f416464726573733a2063616c6c20746f206e6f6e2d636f6e74726163740000006044820152606401611129565b600080866001600160a01b031685876040516152de919061598f565b60006040518083038185875af1925050503d806000811461531b576040519150601f19603f3d011682016040523d82523d6000602084013e615320565b606091505b509150915061533082828661533b565b979650505050505050565b6060831561534a5750816114ac565b82511561535a5782518084602001fd5b8160405162461bcd60e51b81526004016111299190615a81565b803561537f81615dcb565b919050565b600082601f830112615394578081fd5b81356153a76153a282615cb1565b615c80565b8181528460208386010111156153bb578283fd5b816020850160208301379081016020019190915292915050565b80516001600160701b038116811461537f57600080fd5b6000602082840312156153fd578081fd5b81356114ac81615db6565b600060208284031215615419578081fd5b81516114ac81615db6565b60008060008060008060008060006101208a8c031215615442578485fd5b893561544d81615db6565b985060208a013561545d81615db6565b975060408a013561546d81615db6565b965060608a013561547d81615db6565b955060808a013561548d81615db6565b945060a08a013561549d81615db6565b935060c08a01356154ad81615db6565b925060e08a01356154bd81615db6565b91506101008a01356154ce81615db6565b809150509295985092959850929598565b600060208083850312156154f1578182fd5b825167ffffffffffffffff80821115615508578384fd5b818501915085601f83011261551b578384fd5b81518181111561552d5761552d615da0565b8060051b915061553e848301615c80565b8181528481019084860184860187018a1015615558578788fd5b8795505b8386101561557a57805183526001959095019491860191860161555c565b5098975050505050505050565b600060208284031215615598578081fd5b81516114ac81615dcb565b6000602082840312156155b4578081fd5b5035919050565b6000602082840312156155cc578081fd5b5051919050565b600080604083850312156155e5578182fd5b8235915060208301356155f781615db6565b809150509250929050565b600080600083850360c0811215615617578182fd5b843593506080601f198201121561562c578182fd5b506040516080810181811067ffffffffffffffff8211171561565057615650615da0565b604052602085013561566181615db6565b8152604085013561567181615db6565b602082015260608501356040820152608085013560048110615691578283fd5b6060820152915061458d60a08501615374565b600080604083850312156156b6578182fd5b50508035926020909101359150565b6000602082840312156156d6578081fd5b81356001600160e01b0319811681146114ac578182fd5b6000602082840312156156fe578081fd5b815167ffffffffffffffff811115615714578182fd5b8201601f81018413615724578182fd5b80516157326153a282615cb1565b818152856020838501011115615746578384fd5b615757826020830160208601615d47565b95945050505050565b600080600060608486031215615774578081fd5b61577d846153d5565b925061578b602085016153d5565b9150604084015163ffffffff811681146157a3578182fd5b809150509250925092565b600080604083850312156157c0578182fd5b8235915060208301356155f781615dcb565b600080604083850312156157e4578182fd5b82359150602083013567ffffffffffffffff811115615801578182fd5b61580d85828601615384565b9150509250929050565b60008060408385031215615829578182fd5b505080516020909101519092909150565b6000806000806080858703121561584f578182fd5b8435935060208501359250604085013567ffffffffffffffff811115615873578283fd5b61587f87828801615384565b925050606085013561589081615db6565b939692955090935050565b6000806000606084860312156158af578081fd5b8351925060208401519150604084015190509250925092565b600080600080600060a086880312156158df578283fd5b85359450602086013593506040860135925060608601356158ff81615db6565b9150608086013567ffffffffffffffff81111561591a578182fd5b61592688828901615384565b9150509295509295909350565b60008060408385031215615945578182fd5b82359150602083013567ffffffffffffffff811681146155f7578182fd5b6000815180845261597b816020860160208601615d47565b601f01601f19169290920160200192915050565b600082516159a1818460208701615d47565b9190910192915050565b7f416363657373436f6e74726f6c3a206163636f756e74200000000000000000008152600083516159e3816017850160208801615d47565b7001034b99036b4b9b9b4b733903937b6329607d1b6017918401918201528351615a14816028840160208801615d47565b01602801949350505050565b6001600160a01b039384168152919092166020820152604081019190915260600190565b6001600160a01b038316815260406020820181905260009061306290830184615963565b6001600160a01b03929092168252602082015260400190565b6020815260006114ac6020830184615963565b6020808252601290820152714e6f7420656e6f7567682062616c616e636560701b604082015260600190565b60208082526012908201527113db9b1e481bdddb995c88185b1b1bddd95960721b604082015260600190565b60208082526028908201527f416d6f756e742069732067726561746572207468616e20617661696c61626c656040820152672066756e64696e6760c01b606082015260800190565b6020808252600e908201526d14da1bdd5b19081bdddb8813919560921b604082015260600190565b60208082526010908201526f546f6b656e206973206c6f636b65642160801b604082015260600190565b600060a082018783526020878185015260a0604085015281875180845260c0860191508289019350845b81811015615bd55784516001600160a01b031683529383019391830191600101615bb0565b50506001600160a01b03969096166060850152505050608001529392505050565b8281526040602082015260006130626040830184615963565b6000610140820190508b82528a60208301528960408301528860608301528760808301528660a08301528560c08301528460e08301528361010083015260048310615c6a57634e487b7160e01b600052602160045260246000fd5b826101208301529b9a5050505050505050505050565b604051601f8201601f1916810167ffffffffffffffff81118282101715615ca957615ca9615da0565b604052919050565b600067ffffffffffffffff821115615ccb57615ccb615da0565b50601f01601f191660200190565b60008219821115615cec57615cec615d8a565b500190565b600082615d0c57634e487b7160e01b81526012600452602481fd5b500490565b6000816000190483118215151615615d2b57615d2b615d8a565b500290565b600082821015615d4257615d42615d8a565b500390565b60005b83811015615d62578181015183820152602001615d4a565b83811115612f1d5750506000910152565b600081615d8257615d82615d8a565b506000190190565b634e487b7160e01b600052601160045260246000fd5b634e487b7160e01b600052604160045260246000fd5b6001600160a01b03811681146129da57600080fd5b80151581146129da57600080fdfec55a74c743a5d6aff6a82963adf054e2367242c4a636870f26b8ee90910968d0eb4fd9f47c063b511700e1c8e94e2fa4088ffca1fdcef1e60edf1beecd1b2e64a26469706673582212209b26cb28ec0d6bb8583fe7cda81c96b52a05b845c581a1670e85b15e6b5bb89f64736f6c63430008040033",
  "deployedBytecode": "0x608060405234801561001057600080fd5b50600436106104545760003560e01c806373233ea611610241578063a03bf2b31161013b578063cd87eb52116100c3578063e445a50211610087578063e445a50214610b66578063ecf70d3714610b79578063ee2af58d14610b9b578063f0b3825014610bae578063f5e95acb14610be257600080fd5b8063cd87eb5214610ae8578063d3c4ea9214610b0a578063d547741f14610b1d578063df04698e14610b30578063e028ba7f14610b5357600080fd5b8063b1da4db71161010a578063b1da4db714610a79578063b495383714610a8c578063b82ad76814610a9f578063bd4a363914610ab2578063cb1a233d14610ad557600080fd5b8063a03bf2b314610a24578063a217fddf14610a37578063ab8f2b1b14610a3f578063abacac2514610a5257600080fd5b8063886747cd116101c95780638d49d4641161018d5780638d49d464146109cf5780638f2e5b02146109e257806391d14854146109f55780639c76a6ac14610a085780639d806b5414610a1157600080fd5b8063886747cd1461097057806389736a90146109835780638aab4274146109965780638c7a6661146109a95780638ce74426146109bc57600080fd5b80637e0aa10c116102105780637e0aa10c146108a357806383a13100146108ff578063843fb4d4146109125780638753367f146109355780638810cf5f1461094857600080fd5b806373233ea6146108475780637984f1981461085a57806379a9fa1c1461087d5780637c4950c71461089057600080fd5b806336568abe116103525780634d81bea1116102da5780635a5d096c1161029e5780635a5d096c146107e85780635c920736146107fb5780635ea172d01461080e5780636332fb8b146108215780636e26115c1461083457600080fd5b80634d81bea1146106f55780634f64b2be14610708578063578410141461078057806358e8bcb7146107ae578063593aa283146107d557600080fd5b80633bb3a24d116103215780633bb3a24d146106895780634bc4d599146106a95780634c4b206b146106bc5780634c4e03f9146106cf5780634c538fde146106e257600080fd5b806336568abe1461063b57806336b64fc21461064e57806337b6d96b1461066157806339fb284e1461067457600080fd5b80631bfc2357116103e05780632f2ff15d116103a45780632f2ff15d146105d857806330218c30146105eb578063306ff280146105f357806332d9b7861461061357806332fe7b261461062657600080fd5b80631bfc2357146105635780631c06b6ba1461057c578063248a9ca31461058f57806326964e51146105b257806326aa143b146105c557600080fd5b806307972c481161042757806307972c48146104da5780630f1203d0146104fd578063141a468c146105285780631755ff21146105485780631a179a511461055057600080fd5b806301ffc9a714610459578063025fdcb21461048157806302d79652146104b2578063072ac5f3146104c7575b600080fd5b61046c6104673660046156c5565b610bf5565b60405190151581526020015b60405180910390f35b6104a461048f3660046155a3565b6000908152600f602052604090206002015490565b604051908152602001610478565b6104c56104c03660046155d3565b610c06565b005b6104c56104d53660046156a4565b611043565b6104a46104e83660046155a3565b6000908152600f602052604090206005015490565b600254610510906001600160a01b031681565b6040516001600160a01b039091168152602001610478565b6104a46105363660046155a3565b60106020526000908152604090205481565b610510611073565b600354610510906001600160a01b031681565b600154610510906201000090046001600160a01b031681565b6104c561058a3660046156a4565b6110f5565b6104a461059d3660046155a3565b60009081526020819052604090206001015490565b6104c56105c0366004615933565b6112b5565b6104a46105d33660046155a3565b61148a565b6104c56105e63660046155d3565b6114b3565b6104a46114d9565b6104a46106013660046155a3565b6000908152600f602052604090205490565b6104c56106213660046156a4565b6115ac565b6104a4600080516020615dfa83398151915281565b6104c56106493660046155d3565b611869565b6104c561065c3660046153ec565b6118e7565b61046c61066f3660046155a3565b611923565b6104a4600080516020615dda83398151915281565b61069c6106973660046155a3565b611962565b6040516104789190615a81565b600b54610510906001600160a01b031681565b601354610510906001600160a01b031681565b6104c56106dd3660046156a4565b6119e3565b600c54610510906001600160a01b031681565b6104c56107033660046157ae565b611c51565b61076a6107163660046155a3565b600f6020526000908152604090208054600182015460028301546003840154600485015460058601546006870154600788015460088901546009909901549798969795969495939492939192909160ff168a565b6040516104789a99989796959493929190615c0f565b61079361078e3660046155a3565b611cc7565b60408051938452602084019290925290820152606001610478565b6104a47fe87beaa2684453d25a1f0e3e7002e109b34fc4f132f115c9a7707901e792751381565b6104c56107e33660046157d2565b611d1a565b61046c6107f63660046155d3565b611f7a565b6104c56108093660046156a4565b61200d565b6104a461081c3660046158c8565b61224d565b6104c561082f366004615602565b61250e565b6104c561084236600461583a565b612673565b61046c6108553660046155a3565b6128d5565b6104a46108683660046155a3565b6000908152600f602052604090206001015490565b6104c561088b3660046155a3565b61291f565b601554610510906001600160a01b031681565b6108db6108b13660046155a3565b6011602052600090815260409020805460018201546002909201549091906001600160a01b031683565b6040805193845260208401929092526001600160a01b031690820152606001610478565b600a54610510906001600160a01b031681565b6104a46109203660046155a3565b6000908152600f602052604090206007015490565b6104c56109433660046155a3565b6129dd565b61095b6109563660046155a3565b612c37565b60408051928352602083019190915201610478565b6104c561097e3660046156a4565b612dd0565b6104c56109913660046156a4565b612f23565b6104a46109a43660046156a4565b613044565b6104c56109b73660046156a4565b61306a565b600954610510906001600160a01b031681565b6104c56109dd3660046156a4565b6130d4565b61095b6109f03660046155a3565b613481565b61046c610a033660046155d3565b61352c565b6104a4600d5481565b6104c5610a1f3660046156a4565b613555565b6104c5610a323660046156a4565b61366a565b6104a4600081565b6104c5610a4d3660046156a4565b6137b5565b6104a47f747c8a75243ae2ca1d188aaaeab610daf9d97e45b6513baed451ebf0b9ec74fd81565b601454610510906001600160a01b031681565b6104c5610a9a3660046156a4565b6138a6565b610510610aad3660046155a3565b613952565b6104a4610ac03660046155a3565b6000908152600f602052604090206004015490565b6104c5610ae33660046155a3565b6139cf565b61046c610af63660046155a3565b6000908152600f6020526040902054151590565b6104c5610b183660046155a3565b613b62565b6104c5610b2b3660046155d3565b613bb3565b6104a4610b3e3660046155a3565b6000908152600f602052604090206003015490565b6104c5610b613660046156a4565b613bd9565b61046c610b743660046155a3565b613c85565b61046c610b873660046155a3565b600090815260076020526040902054151590565b6104c5610ba93660046156a4565b613ef1565b610510610bbc3660046156a4565b60126020908152600092835260408084209091529082529020546001600160a01b031681565b6104c5610bf0366004615424565b6140b5565b6000610c00826142dc565b92915050565b600080516020615dda833981519152610c1f8133614311565b60135460405163c87b56dd60e01b8152600481018590526000916001600160a01b03169063c87b56dd9060240160006040518083038186803b158015610c6457600080fd5b505afa158015610c78573d6000803e3d6000fd5b505050506040513d6000823e601f3d908101601f19168201604052610ca091908101906156ed565b6000858152600f6020526040908190208054601354925163dbf5132560e01b815260048101899052939450909290916001600160a01b03169063dbf5132590602401600060405180830381600087803b158015610cfc57600080fd5b505af1158015610d10573d6000803e3d6000fd5b5050601354604051636902622f60e11b8152600093506001600160a01b03909116915063d204c45e90610d499089908890600401615a44565b602060405180830381600087803b158015610d6357600080fd5b505af1158015610d77573d6000803e3d6000fd5b505050506040513d601f19601f82011682018060405250810190610d9b91906155bb565b905080600760008481526020019081526020016000208190555060405180610140016040528060008152602001600081526020016000815260200160008152602001600081526020016000815260200160008152602001600081526020016000815260200160006003811115610e2157634e487b7160e01b600052602160045260246000fd5b815250600f6000898152602001908152602001600020600082015181600001556020820151816001015560408201518160020155606082015181600301556080820151816004015560a0820151816005015560c0820151816006015560e0820151816007015561010082015181600801556101208201518160090160006101000a81548160ff02191690836003811115610ecb57634e487b7160e01b600052602160045260246000fd5b021790555090505060405180610140016040528083815260200169021e19e0c9bab240000081526020016000815260200160008152602001600081526020016000815260200160008152602001600081526020016000815260200160026003811115610f4757634e487b7160e01b600052602160045260246000fd5b815250600f6000838152602001908152602001600020600082015181600001556020820151816001015560408201518160020155606082015181600301556080820151816004015560a0820151816005015560c0820151816006015560e0820151816007015561010082015181600801556101208201518160090160006101000a81548160ff02191690836003811115610ff157634e487b7160e01b600052602160045260246000fd5b021790555050604080518381526001600160a01b03891660208201527fae0df3ed3f99b751fb0a740538790a748856958d5737ad5ae138454ed7e053e49250015b60405180910390a150505050505050565b7fe87beaa2684453d25a1f0e3e7002e109b34fc4f132f115c9a7707901e792751361106e8133614311565b505050565b600b54604080516324dead2f60e11b815290516000926001600160a01b0316916349bd5a5e916004808301926020929190829003018186803b1580156110b857600080fd5b505afa1580156110cc573d6000803e3d6000fd5b505050506040513d601f19601f820116820180604052508101906110f09190615408565b905090565b6000828152600f6020526040902061110c836128d5565b156111325760405162461bcd60e51b815260040161112990615b5c565b60405180910390fd5b61113c8333611f7a565b6111825760405162461bcd60e51b81526020600482015260176024820152764f6e6c79206f776e65722063616e20776974686472617760481b6044820152606401611129565b80600101548211156111a65760405162461bcd60e51b815260040161112990615a94565b818160010160008282546111ba9190615d30565b9091555050600b5460405163a9059cbb60e01b81526001600160a01b039091169063a9059cbb906111f19033908690600401615a68565b602060405180830381600087803b15801561120b57600080fd5b505af115801561121f573d6000803e3d6000fd5b505050506040513d601f19601f820116820180604052508101906112439190615587565b50600181015461106e576001546040516316bfb45760e11b815260048101859052620100009091046001600160a01b031690632d7f68ae90602401600060405180830381600087803b15801561129857600080fd5b505af11580156112ac573d6000803e3d6000fd5b50505050505050565b6000828152600f602052604090206112cc83613c85565b6113185760405162461bcd60e51b815260206004820152601760248201527f466c6970206973206e6f7420616c6c6f776564207965740000000000000000006044820152606401611129565b611321836128d5565b1561133e5760405162461bcd60e51b815260040161112990615b5c565b42816006018190555060007f00000000000000000000000000000000000000000000000000000000000000006001600160a01b031663dbdff2c16040518163ffffffff1660e01b8152600401602060405180830381600087803b1580156113a457600080fd5b505af11580156113b8573d6000803e3d6000fd5b505050506040513d601f19601f820116820180604052508101906113dc91906155bb565b6040805160608101825286815267ffffffffffffffff8681166020808401828152338587018181526000898152600685528890209651875591516001909601805492516001600160a01b031668010000000000000000026001600160e01b031990931696909516959095171790925592519283529293508692909184917ff3430182a8f4149cb1910574795295555b8119134718716b9f3e5024189a64a5910160405180910390a450505050565b6000818152600f60205260408120600381015460028201546114ac9190615d30565b9392505050565b6000828152602081905260409020600101546114cf8133614311565b61106e8383614375565b60007f00000000000000000000000000000000000000000000000000000000000000006001600160a01b03166330218c306040518163ffffffff1660e01b8152600401602060405180830381600087803b15801561153657600080fd5b505af115801561154a573d6000803e3d6000fd5b505050506040513d601f19601f8201168201806040525081019061156e91906155bb565b90507fbe2b5ab4e879a268995b8af0c68a310c39e8c1573b4c283ef80e3c64125499b9816040516115a191815260200190565b60405180910390a190565b6013546040516331a9108f60e11b81526004810184905233916001600160a01b031690636352211e9060240160206040518083038186803b1580156115f057600080fd5b505afa158015611604573d6000803e3d6000fd5b505050506040513d601f19601f820116820180604052508101906116289190615408565b6001600160a01b03161461164e5760405162461bcd60e51b815260040161112990615b34565b600081116116965760405162461bcd60e51b8152602060048201526015602482015274416d6f756e742063616e2774206265207a65726f2160581b6044820152606401611129565b6000828152600f60205260409020600401548110156116c75760405162461bcd60e51b815260040161112990615aec565b600c5460035460405163095ea7b360e01b81526001600160a01b039283169263095ea7b3926116fd929116908590600401615a68565b602060405180830381600087803b15801561171757600080fd5b505af115801561172b573d6000803e3d6000fd5b505050506040513d601f19601f8201168201806040525081019061174f9190615587565b5060035460405163366996df60e11b8152600481018390526000916001600160a01b031690636cd32dbe90602401602060405180830381600087803b15801561179757600080fd5b505af11580156117ab573d6000803e3d6000fd5b505050506040513d601f19601f820116820180604052508101906117cf91906155bb565b905081600f600085815260200190815260200160002060040160008282546117f79190615d30565b90915550506000838152600f60205260408120600801805483929061181d908490615cd9565b909155505060408051848152602081018490529081018290527fccdaef8d1f978683be235d737d97085fe1c2a4de55c94d9fbcf91a67dc6fd797906060015b60405180910390a1505050565b6001600160a01b03811633146118d95760405162461bcd60e51b815260206004820152602f60248201527f416363657373436f6e74726f6c3a2063616e206f6e6c792072656e6f756e636560448201526e103937b632b9903337b91039b2b63360891b6064820152608401611129565b6118e382826143f9565b5050565b600080516020615dfa8339815191526119008133614311565b50600380546001600160a01b0319166001600160a01b0392909216919091179055565b600060026000838152600f602052604090206009015460ff16600381111561195b57634e487b7160e01b600052602160045260246000fd5b1492915050565b60135460405163c87b56dd60e01b8152600481018390526060916001600160a01b03169063c87b56dd9060240160006040518083038186803b1580156119a757600080fd5b505afa1580156119bb573d6000803e3d6000fd5b505050506040513d6000823e601f3d908101601f19168201604052610c0091908101906156ed565b6000828152600f6020526040908190206013549151634f558e7960e01b81526004810185905290916001600160a01b031690634f558e799060240160206040518083038186803b158015611a3657600080fd5b505afa158015611a4a573d6000803e3d6000fd5b505050506040513d601f19601f82011682018060405250810190611a6e9190615587565b611ab15760405162461bcd60e51b8152602060048201526014602482015273151bdad95b881b9bdd081c9959da5cdd195c995960621b6044820152606401611129565b60405163d52cb9cb60e01b8152600481018290526024810183905260009073__$56fc4e5f3f11a8c61fa94696167f06073e$__9063d52cb9cb9060440160206040518083038186803b158015611b0657600080fd5b505af4158015611b1a573d6000803e3d6000fd5b505050506040513d601f19601f82011682018060405250810190611b3e91906155bb565b600c546040516323b872dd60e01b81529192506001600160a01b0316906323b872dd90611b7390339030908690600401615a20565b602060405180830381600087803b158015611b8d57600080fd5b505af1158015611ba1573d6000803e3d6000fd5b505050506040513d601f19601f82011682018060405250810190611bc59190615587565b50600b5460405163a9059cbb60e01b81526001600160a01b039091169063a9059cbb90611bf89033908790600401615a68565b602060405180830381600087803b158015611c1257600080fd5b505af1158015611c26573d6000803e3d6000fd5b505050506040513d601f19601f82011682018060405250810190611c4a9190615587565b5050505050565b611c5b8233611f7a565b611ca75760405162461bcd60e51b815260206004820152601a60248201527f4f6e6c79206f776e65722063616e206368616e676520666c69700000000000006044820152606401611129565b600091825260086020526040909120805460ff1916911515919091179055565b6000806000611cd5846128d5565b15611cf25760405162461bcd60e51b815260040161112990615b5c565b600080611cfe86612c37565b91509150611d0c828261445e565b989097509095509350505050565b6000828152600f602052604090206002600982015460ff166003811115611d5157634e487b7160e01b600052602160045260246000fd5b1415611daa5760405162461bcd60e51b815260206004820152602260248201527f43616e2774206368616e6765206d657461646174612061667465722076657269604482015261667960f01b6064820152608401611129565b6001600982015460ff166003811115611dd357634e487b7160e01b600052602160045260246000fd5b1415611e2f5760405162461bcd60e51b815260206004820152602560248201527f43616e2774206368616e6765206d65746164617461207768696c6520766572696044820152646679696e6760d81b6064820152608401611129565b6013546040516331a9108f60e11b8152600481018590526000916001600160a01b031690636352211e9060240160206040518083038186803b158015611e7457600080fd5b505afa158015611e88573d6000803e3d6000fd5b505050506040513d601f19601f82011682018060405250810190611eac9190615408565b9050336001600160a01b03821614611f105760405162461bcd60e51b815260206004820152602160248201527f596f7520617265206e6f7420746865206f776e6572206f6620746865204e46546044820152602160f81b6064820152608401611129565b60135460405163593aa28360e01b81526001600160a01b039091169063593aa28390611f429087908790600401615bf6565b600060405180830381600087803b158015611f5c57600080fd5b505af1158015611f70573d6000803e3d6000fd5b5050505050505050565b6013546040516331a9108f60e11b8152600481018490526000916001600160a01b0384811692911690636352211e9060240160206040518083038186803b158015611fc457600080fd5b505afa158015611fd8573d6000803e3d6000fd5b505050506040513d601f19601f82011682018060405250810190611ffc9190615408565b6001600160a01b0316149392505050565b6000828152600f602052604090206001015481111561206e5760405162461bcd60e51b815260206004820152601f60248201527f45786368616e676520616d6f756e7420657863656564732062616c616e6365006044820152606401611129565b6004546040805160028082526060820183526001600160a01b03909316926000926020830190803683375050600b5482519293506001600160a01b0316918391506000906120cc57634e487b7160e01b600052603260045260246000fd5b6001600160a01b039283166020918202929092010152600c5482519116908290600190811061210b57634e487b7160e01b600052603260045260246000fd5b6001600160a01b039092166020928302919091018201526000858152600f909152604081206001018054859290612143908490615d30565b90915550506000848152600f60205260409020600101546121c2576001546040516316bfb45760e11b815260048101869052620100009091046001600160a01b031690632d7f68ae90602401600060405180830381600087803b1580156121a957600080fd5b505af11580156121bd573d6000803e3d6000fd5b505050505b6040516338ed173960e01b81526001600160a01b038316906338ed1739906121f7908690600090869033904290600401615b86565b600060405180830381600087803b15801561221157600080fd5b505af1158015612225573d6000803e3d6000fd5b505050506040513d6000823e601f3d908101601f19168201604052611c4a91908101906154df565b6000600080516020615dfa8339815191526122688133614311565b600087815260076020526040902054156122c45760405162461bcd60e51b815260206004820181905260248201527f53796e746865746963204e465420616c72656164792067656e657261746564216044820152606401611129565b601354604051636902622f60e11b81526001600160a01b039091169063d204c45e906122f69087908790600401615a44565b602060405180830381600087803b15801561231057600080fd5b505af1158015612324573d6000803e3d6000fd5b505050506040513d601f19601f8201168201806040525081019061234891906155bb565b915060006123608769021e19e0c9bab2400000615d30565b905060006040518061014001604052808a81526020018981526020018381526020016000815260200160008152602001888152602001600081526020016000815260200160008152602001600060038111156123cc57634e487b7160e01b600052602160045260246000fd5b815250905080600f6000868152602001908152602001600020600082015181600001556020820151816001015560408201518160020155606082015181600301556080820151816004015560a0820151816005015560c0820151816006015560e0820151816007015561010082015181600801556101208201518160090160006101000a81548160ff0219169083600381111561247957634e487b7160e01b600052602160045260246000fd5b02179055505050876124e9576001546040516316bfb45760e11b815260048101869052620100009091046001600160a01b031690632d7f68ae90602401600060405180830381600087803b1580156124d057600080fd5b505af11580156124e4573d6000803e3d6000fd5b505050505b5050506000818152600860205260409020805460ff1916600117905595945050505050565b7f747c8a75243ae2ca1d188aaaeab610daf9d97e45b6513baed451ebf0b9ec74fd6125398133614311565b6040808401516000908152600f6020522082156125d25760098101805460ff19166002179055600b546040516340c10f1960e01b81526001600160a01b03909116906340c10f199061259b90309069021e19e0c9bab240000090600401615a68565b600060405180830381600087803b1580156125b557600080fd5b505af11580156125c9573d6000803e3d6000fd5b50505050612609565b606084015160098201805460ff1916600183600381111561260357634e487b7160e01b600052602160045260246000fd5b02179055505b835160208086015160408088015181516001600160a01b039586168152949092169284019290925290820152831515606082015285907fcf5cb568c779c24ae423fed9236ba737105872c7e0b13ebb2fd578233747825a9060800160405180910390a25050505050565b600080516020615dfa83398151915261268c8133614311565b6000858152600f6020526040902060018101546126de5760405162461bcd60e51b815260206004820152601060248201526f10d85b89dd0818994818da185b99d95960821b6044820152606401611129565b6002600982015460ff16600381111561270757634e487b7160e01b600052602160045260246000fd5b146127495760405162461bcd60e51b8152602060048201526012602482015271151bdad95b881b9bdd081d995c9a599a595960721b6044820152606401611129565b6013546040516331a9108f60e11b8152600481018890526001600160a01b03858116921690636352211e9060240160206040518083038186803b15801561278f57600080fd5b505afa1580156127a3573d6000803e3d6000fd5b505050506040513d601f19601f820116820180604052508101906127c79190615408565b6001600160a01b0316146127ed5760405162461bcd60e51b815260040161112990615b34565b8054600090815260116020526040812080549091600191839190612812908490615cd9565b9091555050600181018690556002810180546001600160a01b038681166001600160a01b03199092169190911790915560098301805460ff19166003179055825460009081526007602052604080822082905588855588825290819020899055601354905163593aa28360e01b815291169063593aa2839061289a908a908990600401615bf6565b600060405180830381600087803b1580156128b457600080fd5b505af11580156128c8573d6000803e3d6000fd5b5050505050505050505050565b6000818152600f602052604081206002600982015460ff16600381111561290c57634e487b7160e01b600052602160045260246000fd5b1415806114ac5750600101541592915050565b600e5461292e9061012c615cd9565b421061297c5760405162461bcd60e51b815260206004820152601d60248201527f4275796261636b207072696365207570646174652072657175697265640000006044820152606401611129565b6129868133611f7a565b6129a25760405162461bcd60e51b815260040161112990615ac0565b6129ab816128d5565b156129c85760405162461bcd60e51b815260040161112990615b5c565b6129d181614597565b6129da81614938565b50565b6000818152600f6020526040908190206013549151634f558e7960e01b81526004810184905290916001600160a01b031690634f558e799060240160206040518083038186803b158015612a3057600080fd5b505afa158015612a44573d6000803e3d6000fd5b505050506040513d601f19601f82011682018060405250810190612a689190615587565b612aab5760405162461bcd60e51b8152602060048201526014602482015273151bdad95b881b9bdd081c9959da5cdd195c995960621b6044820152606401611129565b6002600982015460ff166003811115612ad457634e487b7160e01b600052602160045260246000fd5b1415612b1b5760405162461bcd60e51b8152602060048201526016602482015275151bdad95b88185b1c9958591e481d995c9a599a595960521b6044820152606401611129565b60098101805460ff19166001908117909155600a54825460009081526010602090815260408083205481516345b0ce7560e11b81526001600160a01b03958616600482015260248101899052604481019690965260648601525191937f000000000000000000000000000000000000000000000000000000000000000090931692638b619cea926084808301939282900301818787803b158015612bbe57600080fd5b505af1158015612bd2573d6000803e3d6000fd5b505050506040513d601f19601f82011682018060405250810190612bf691906155bb565b9050807faf92676e6ce91b92427009a49e22fa6d354ed418db8d0965bca4232dcf3e658f3385604051612c2a929190615a68565b60405180910390a2505050565b6000818152600f60205260408120819081612c50611073565b9050600082600701549050600080836001600160a01b0316630902f1ac6040518163ffffffff1660e01b815260040160606040518083038186803b158015612c9757600080fd5b505afa158015612cab573d6000803e3d6000fd5b505050506040513d601f19601f82011682018060405250810190612ccf9190615760565b50915091506000846001600160a01b03166318160ddd6040518163ffffffff1660e01b815260040160206040518083038186803b158015612d0f57600080fd5b505afa158015612d23573d6000803e3d6000fd5b505050506040513d601f19601f82011682018060405250810190612d4791906155bb565b905060008115612d965781612d656001600160701b03861687615d11565b612d6f9190615cf1565b905081612d856001600160701b03851687615d11565b612d8f9190615cf1565b9750612da3565b826001600160701b031697505b8087600201548860010154612db89190615cd9565b612dc29190615cd9565b985050505050505050915091565b6000828152600f60205260409020612de88333611f7a565b612e2d5760405162461bcd60e51b815260206004820152601660248201527513db9b1e481bdddb995c8818d85b8819195c1bdcda5d60521b6044820152606401611129565b604051630654881960e51b8152600481018290526024810183905273__$56fc4e5f3f11a8c61fa94696167f06073e$__9063ca9103209060440160006040518083038186803b158015612e7f57600080fd5b505af4158015612e93573d6000803e3d6000fd5b5050600b546040516323b872dd60e01b81526001600160a01b0390911692506323b872dd9150612ecb90339030908790600401615a20565b602060405180830381600087803b158015612ee557600080fd5b505af1158015612ef9573d6000803e3d6000fd5b505050506040513d601f19601f82011682018060405250810190612f1d9190615587565b50505050565b6013546040516331a9108f60e11b81526004810184905233916001600160a01b031690636352211e9060240160206040518083038186803b158015612f6757600080fd5b505afa158015612f7b573d6000803e3d6000fd5b505050506040513d601f19601f82011682018060405250810190612f9f9190615408565b6001600160a01b031614612fc55760405162461bcd60e51b815260040161112990615ac0565b6000828152600f6020526040908190209051630451aa3960e11b815260048101919091526024810182905273__$56fc4e5f3f11a8c61fa94696167f06073e$__906308a35472906044015b60006040518083038186803b15801561302857600080fd5b505af415801561303c573d6000803e3d6000fd5b505050505050565b6000828152600f602052604081206005015481906130629084615d11565b949350505050565b7f747c8a75243ae2ca1d188aaaeab610daf9d97e45b6513baed451ebf0b9ec74fd6130958133614311565b600d82905542600e5560408051848152602081018490527fb6479ea2703e76c8b5d9b262a24a0a76b6d232e57777321500a831d1ff4ae424910161185c565b6000828152600f60205260409081902060135491516331a9108f60e11b815260048101859052909133916001600160a01b0390911690636352211e9060240160206040518083038186803b15801561312b57600080fd5b505afa15801561313f573d6000803e3d6000fd5b505050506040513d601f19601f820116820180604052508101906131639190615408565b6001600160a01b0316146131895760405162461bcd60e51b815260040161112990615b34565b60008160030154116131d25760405162461bcd60e51b8152602060048201526012602482015271736f6c64537570706c79206973207a65726f60701b6044820152606401611129565b80600401548210156131f65760405162461bcd60e51b815260040161112990615aec565b806001015482101561321a5760405162461bcd60e51b815260040161112990615aec565b60048054600b5460405163095ea7b360e01b81526001600160a01b0392831693919092169163095ea7b391613253918591889101615a68565b602060405180830381600087803b15801561326d57600080fd5b505af1158015613281573d6000803e3d6000fd5b505050506040513d601f19601f820116820180604052508101906132a59190615587565b50600c546004805460405163095ea7b360e01b81526001600160a01b039384169363095ea7b3936132dc9390911691889101615a68565b602060405180830381600087803b1580156132f657600080fd5b505af115801561330a573d6000803e3d6000fd5b505050506040513d601f19601f8201168201806040525081019061332e9190615587565b50600b54600c5460405162e8e33760e81b81526001600160a01b0392831660048201529082166024820152604481018590526064810185905260006084820181905260a482018190523060c48301524260e4830152918291829185169063e8e337009061010401606060405180830381600087803b1580156133af57600080fd5b505af11580156133c3573d6000803e3d6000fd5b505050506040513d601f19601f820116820180604052508101906133e7919061589b565b925092509250828560010160008282546134019190615d30565b925050819055508185600401600082825461341c9190615d30565b92505081905550808560070160008282546134379190615cd9565b90915550506040805188815260208101859052908101839052606081018290527febe3c64c4e0aa36f2591dabdc2ea8922042da54fa0a283ae1ef74ed00495622790608001611032565b60055460009081906001600160a01b031663f4e5ff0d61349f611073565b6000868152600f6020526040908190206007015490516001600160e01b031960e085901b1681526134d4929190600401615a68565b604080518083038186803b1580156134eb57600080fd5b505afa1580156134ff573d6000803e3d6000fd5b505050506040513d601f19601f820116820180604052508101906135239190615817565b91509150915091565b6000918252602082815260408084206001600160a01b0393909316845291905290205460ff1690565b61355f8233611f7a565b6135a35760405162461bcd60e51b81526020600482015260156024820152742cb7ba9030b932903737ba103a34329037bbb732b960591b6044820152606401611129565b6000828152600f6020526040902060070154808211156136055760405162461bcd60e51b815260206004820152601e60248201527f4e6f7420656e6f756768206c697175696469747920617661696c61626c6500006044820152606401611129565b600061360f611073565b905082600f600086815260200190815260200160002060070160008282546136379190615d30565b909155505060405163a9059cbb60e01b81526001600160a01b0382169063a9059cbb90611bf89033908790600401615a68565b6000828152600f60205260409020613681836128d5565b1561369e5760405162461bcd60e51b815260040161112990615b5c565b6136a88333611f7a565b6136ee5760405162461bcd60e51b81526020600482015260176024820152764f6e6c79206f776e65722063616e20776974686472617760481b6044820152606401611129565b80600401548211156137125760405162461bcd60e51b815260040161112990615a94565b600c5460405163a9059cbb60e01b81526001600160a01b039091169063a9059cbb906137449033908690600401615a68565b602060405180830381600087803b15801561375e57600080fd5b505af1158015613772573d6000803e3d6000fd5b505050506040513d601f19601f820116820180604052508101906137969190615587565b50818160040160008282546137ab9190615d30565b9091555050505050565b6013546040516331a9108f60e11b81526004810184905233916001600160a01b031690636352211e9060240160206040518083038186803b1580156137f957600080fd5b505afa15801561380d573d6000803e3d6000fd5b505050506040513d601f19601f820116820180604052508101906138319190615408565b6001600160a01b0316146138575760405162461bcd60e51b815260040161112990615ac0565b6000828152600f6020526040908190209051630c66c75560e21b815260048101919091526024810182905273__$56fc4e5f3f11a8c61fa94696167f06073e$__9063319b1d5490604401613010565b6013546040516331a9108f60e11b81526004810184905233916001600160a01b031690636352211e9060240160206040518083038186803b1580156138ea57600080fd5b505afa1580156138fe573d6000803e3d6000fd5b505050506040513d601f19601f820116820180604052508101906139229190615408565b6001600160a01b0316146139485760405162461bcd60e51b815260040161112990615b34565b6118e382826149fe565b6013546040516331a9108f60e11b8152600481018390526000916001600160a01b031690636352211e9060240160206040518083038186803b15801561399757600080fd5b505afa1580156139ab573d6000803e3d6000fd5b505050506040513d601f19601f82011682018060405250810190610c009190615408565b600154604051637b5f398960e01b815260048101839052620100009091046001600160a01b031690637b5f39899060240160206040518083038186803b158015613a1857600080fd5b505afa158015613a2c573d6000803e3d6000fd5b505050506040513d601f19601f82011682018060405250810190613a509190615587565b613a9c5760405162461bcd60e51b815260206004820152601860248201527f546f6b656e206973206e6f74207265636f76657261626c6500000000000000006044820152606401611129565b613aa68133611f7a565b613ac25760405162461bcd60e51b815260040161112990615ac0565b600b54613ae4906001600160a01b0316333069021e19e0c9bab2400000614c79565b6000818152600f60205260409081902069021e19e0c9bab2400000600191820155549051630532ab5d60e11b815260048101839052620100009091046001600160a01b031690630a6556ba906024015b600060405180830381600087803b158015613b4e57600080fd5b505af1158015611c4a573d6000803e3d6000fd5b600080516020615dda833981519152613b7b8133614311565b6000828152600f6020526040902060080154613b9783826149fe565b6000838152600f602052604090206007015461303c8482614cd1565b600082815260208190526040902060010154613bcf8133614311565b61106e83836143f9565b6013546040516331a9108f60e11b81526004810184905233916001600160a01b031690636352211e9060240160206040518083038186803b158015613c1d57600080fd5b505afa158015613c31573d6000803e3d6000fd5b505050506040513d601f19601f82011682018060405250810190613c559190615408565b6001600160a01b031614613c7b5760405162461bcd60e51b815260040161112990615b34565b612f1d8282614cd1565b60008181526008602052604081205460ff168015613d1a5750601354604051634f558e7960e01b8152600481018490526001600160a01b0390911690634f558e799060240160206040518083038186803b158015613ce257600080fd5b505afa158015613cf6573d6000803e3d6000fd5b505050506040513d601f19601f82011682018060405250810190613d1a9190615587565b8015613dc65750600960009054906101000a90046001600160a01b03166001600160a01b031663766873326040518163ffffffff1660e01b815260040160206040518083038186803b158015613d6f57600080fd5b505afa158015613d83573d6000803e3d6000fd5b505050506040513d601f19601f82011682018060405250810190613da791906155bb565b6000838152600f6020526040902060060154613dc39042615d30565b10155b8015613ed45750600960009054906101000a90046001600160a01b03166001600160a01b031663b94d25ce6040518163ffffffff1660e01b815260040160206040518083038186803b158015613e1b57600080fd5b505afa158015613e2f573d6000803e3d6000fd5b505050506040513d601f19601f82011682018060405250810190613e5391906155bb565b600b546014546040516370a0823160e01b81526001600160a01b0391821660048201529116906370a082319060240160206040518083038186803b158015613e9a57600080fd5b505afa158015613eae573d6000803e3d6000fd5b505050506040513d601f19601f82011682018060405250810190613ed291906155bb565b115b8015610c0057506000828152600f60205260409020541515610c00565b6013546040516331a9108f60e11b81526004810184905233916001600160a01b031690636352211e9060240160206040518083038186803b158015613f3557600080fd5b505afa158015613f49573d6000803e3d6000fd5b505050506040513d601f19601f82011682018060405250810190613f6d9190615408565b6001600160a01b031614613fc35760405162461bcd60e51b815260206004820152601760248201527f4f6e6c79206f776e65722063616e20696e6372656173650000000000000000006044820152606401611129565b6000828152600f6020526040908190209051633e8626f560e11b815260048101919091526024810182905273__$56fc4e5f3f11a8c61fa94696167f06073e$__90637d0c4dea9060440160006040518083038186803b15801561402557600080fd5b505af4158015614039573d6000803e3d6000fd5b5050506000838152600f6020526040902060010154151590506118e3576001546040516316bfb45760e11b815260048101849052620100009091046001600160a01b031690632d7f68ae90602401600060405180830381600087803b1580156140a157600080fd5b505af115801561303c573d6000803e3d6000fd5b600154610100900460ff16806140ce575060015460ff16155b6141315760405162461bcd60e51b815260206004820152602e60248201527f496e697469616c697a61626c653a20636f6e747261637420697320616c72656160448201526d191e481a5b9a5d1a585b1a5e995960921b6064820152608401611129565b600154610100900460ff16158015614153576001805461ffff19166101011790555b600b80546001600160a01b03199081166001600160a01b038d8116919091179092556013805482168b8416179055600a805482168c841617905560028054339083161790556001805462010000600160b01b031916620100008b851602179055600980548216898416908117909155601480548316898516179055601580548316888516179055600480548316878516178155600580549093169386169390931790915560408051632629c7ef60e11b815290519192634c538fde928282019260209290829003018186803b15801561422b57600080fd5b505afa15801561423f573d6000803e3d6000fd5b505050506040513d601f19601f820116820180604052508101906142639190615408565b600c80546001600160a01b0319166001600160a01b039290921691909117905561428e600033614f7a565b6142a6600080516020615dfa83398151915233614f7a565b6142be600080516020615dda83398151915288614f7a565b80156142d0576001805461ff00191690555b50505050505050505050565b60006001600160e01b03198216637965db0b60e01b1480610c0057506301ffc9a760e01b6001600160e01b0319831614610c00565b61431b828261352c565b6118e357614333816001600160a01b03166014614f84565b61433e836020614f84565b60405160200161434f9291906159ab565b60408051601f198184030181529082905262461bcd60e51b825261112991600401615a81565b61437f828261352c565b6118e3576000828152602081815260408083206001600160a01b03851684529091529020805460ff191660011790556143b53390565b6001600160a01b0316816001600160a01b0316837f2f8788117e7eff1d82e926ec794901d17c78024a50270940304540a733656f0d60405160405180910390a45050565b614403828261352c565b156118e3576000828152602081815260408083206001600160a01b0385168085529252808320805460ff1916905551339285917ff6391f5c32d9c69d2a47ea670b442974b53935d1edc7fd64eb21e047a839171b9190a45050565b6000818169021e19e0c9bab24000008511156144925750600061448b69021e19e0c9bab240000086615d30565b9250614590565b8115614558576000670de0b6b3a7640000600d54846144b19190615d11565b6144bb9190615cf1565b905069021e19e0c9bab24000006144d28783615cd9565b111561452c5760006144ee69021e19e0c9bab240000088615d30565b90506000670de0b6b3a7640000600d54836145099190615d11565b6145139190615cf1565b905061451f8186615d30565b9450600093505050614552565b806145418769021e19e0c9bab2400000615d30565b61454b9190615d30565b9150600092505b50614590565b600d54670de0b6b3a7640000906145798769021e19e0c9bab2400000615d30565b6145839190615d11565b61458d9190615cf1565b90505b9250925092565b6000818152600f6020526040812060078101549091906145b8908490614cd1565b9150506000826002015483600101546145d19190615cd9565b905060008060006145e2848661445e565b925092509250600069021e19e0c9bab2400000851061460b5769021e19e0c9bab240000061460d565b845b600b54604051630852cd8d60e31b8152600481018390529192506001600160a01b0316906342966c6890602401600060405180830381600087803b15801561465457600080fd5b505af1158015614668573d6000803e3d6000fd5b50505050600082111561481757600b546015546001600160a01b0391821691633950935191166146a28469021e19e0c9bab2400000615d30565b6040518363ffffffff1660e01b81526004016146bf929190615a68565b602060405180830381600087803b1580156146d957600080fd5b505af11580156146ed573d6000803e3d6000fd5b505050506040513d601f19601f820116820180604052508101906147119190615587565b50601554600d546001600160a01b0390911690635ff44eb99084906147369082615cf1565b6040516001600160e01b031960e085901b16815260048101929092526024820152604401600060405180830381600087803b15801561477457600080fd5b505af1158015614788573d6000803e3d6000fd5b5050600c546015546040516323b872dd60e01b81526001600160a01b0392831694506323b872dd93506147c392339216908790600401615a20565b602060405180830381600087803b1580156147dd57600080fd5b505af11580156147f1573d6000803e3d6000fd5b505050506040513d601f19601f820116820180604052508101906148159190615587565b505b82156148a357600c5460405163a9059cbb60e01b81526001600160a01b039091169063a9059cbb9061484f9033908790600401615a68565b602060405180830381600087803b15801561486957600080fd5b505af115801561487d573d6000803e3d6000fd5b505050506040513d601f19601f820116820180604052508101906148a19190615587565b505b8315611f7057600b5460405163a9059cbb60e01b81526001600160a01b039091169063a9059cbb906148db9033908890600401615a68565b602060405180830381600087803b1580156148f557600080fd5b505af1158015614909573d6000803e3d6000fd5b505050506040513d601f19601f8201168201806040525081019061492d9190615587565b505050505050505050565b6000818152600f6020908152604080832080548452601083528184205460128452828520818652909352922080546001600160a01b0319163317905561497f816001615cd9565b825460009081526010602052604090205561499983615166565b50546000908152600760208181526040808420849055938352600f90529181208181556001810182905560028101829055600381018290556004810182905560058101829055600681018290559182018190556008820155600901805460ff19169055565b60008111614a455760405162461bcd60e51b8152602060048201526014602482015273416d6f756e742063616e2774206265207a65726f60601b6044820152606401611129565b6000828152600f6020526040902060080154811115614a765760405162461bcd60e51b815260040161112990615a94565b600c546040516370a0823160e01b81523060048201526000916001600160a01b0316906370a082319060240160206040518083038186803b158015614aba57600080fd5b505afa158015614ace573d6000803e3d6000fd5b505050506040513d601f19601f82011682018060405250810190614af291906155bb565b600354604051639c8f9f2360e01b8152600481018590529192506001600160a01b031690639c8f9f2390602401600060405180830381600087803b158015614b3957600080fd5b505af1158015614b4d573d6000803e3d6000fd5b5050600c546040516370a0823160e01b8152306004820152600093506001600160a01b0390911691506370a082319060240160206040518083038186803b158015614b9757600080fd5b505afa158015614bab573d6000803e3d6000fd5b505050506040513d601f19601f82011682018060405250810190614bcf91906155bb565b9050614bdb8282615d30565b6000858152600f602052604081206004018054909190614bfc908490615cd9565b90915550506000848152600f602052604081206008018054859290614c22908490615d30565b909155507fad63b7791c98703a4c235cc5a71aa764e4ab8063138091cb5bb0f43321544821905084614c548484615d30565b604080519283526020830191909152810185905260600160405180910390a150505050565b612f1d846323b872dd60e01b858585604051602401614c9a93929190615a20565b60408051601f198184030181529190526020810180516001600160e01b03166001600160e01b031990931692909217909152615197565b6000828152600f60205260408120819083614d255760405162461bcd60e51b8152602060048201526014602482015273416d6f756e742063616e2774206265207a65726f60601b6044820152606401611129565b8381600701541015614d885760405162461bcd60e51b815260206004820152602660248201527f54686572652773206e6f7420656e6f756768206c697175696469747920617661604482015265696c61626c6560d01b6064820152608401611129565b6004546001600160a01b03166000614d9e611073565b6004805460405163095ea7b360e01b81529293506001600160a01b038085169363095ea7b393614dd493909216918b9101615a68565b602060405180830381600087803b158015614dee57600080fd5b505af1158015614e02573d6000803e3d6000fd5b505050506040513d601f19601f82011682018060405250810190614e269190615587565b50600b54600c54604051635d5155ef60e11b81526001600160a01b03928316600482015290821660248201526044810188905260006064820181905260848201523060a48201524260c48201529083169063baa2abde9060e4016040805180830381600087803b158015614e9957600080fd5b505af1158015614ead573d6000803e3d6000fd5b505050506040513d601f19601f82011682018060405250810190614ed19190615817565b809550819650505084836001016000828254614eed9190615cd9565b9250508190555083836004016000828254614f089190615cd9565b9250508190555085836007016000828254614f239190615cd9565b90915550506040805188815260208101879052908101859052606081018790527f4bbab538c72d65d52ce272c553c13c64bd1a26e5c6a57996a04fe074d1faccc49060800160405180910390a15050509250929050565b6118e38282614375565b60606000614f93836002615d11565b614f9e906002615cd9565b67ffffffffffffffff811115614fc457634e487b7160e01b600052604160045260246000fd5b6040519080825280601f01601f191660200182016040528015614fee576020820181803683370190505b509050600360fc1b8160008151811061501757634e487b7160e01b600052603260045260246000fd5b60200101906001600160f81b031916908160001a905350600f60fb1b8160018151811061505457634e487b7160e01b600052603260045260246000fd5b60200101906001600160f81b031916908160001a9053506000615078846002615d11565b615083906001615cd9565b90505b6001811115615117576f181899199a1a9b1b9c1cb0b131b232b360811b85600f16601081106150c557634e487b7160e01b600052603260045260246000fd5b1a60f81b8282815181106150e957634e487b7160e01b600052603260045260246000fd5b60200101906001600160f81b031916908160001a90535060049490941c9361511081615d73565b9050615086565b5083156114ac5760405162461bcd60e51b815260206004820181905260248201527f537472696e67733a20686578206c656e67746820696e73756666696369656e746044820152606401611129565b60135460405163dbf5132560e01b8152600481018390526001600160a01b039091169063dbf5132590602401613b34565b60006151ec826040518060400160405280602081526020017f5361666545524332303a206c6f772d6c6576656c2063616c6c206661696c6564815250856001600160a01b03166152699092919063ffffffff16565b80519091501561106e578080602001905181019061520a9190615587565b61106e5760405162461bcd60e51b815260206004820152602a60248201527f5361666545524332303a204552433230206f7065726174696f6e20646964206e6044820152691bdd081cdd58d8d9595960b21b6064820152608401611129565b6060613062848460008585843b6152c25760405162461bcd60e51b815260206004820152601d60248201527f416464726573733a2063616c6c20746f206e6f6e2d636f6e74726163740000006044820152606401611129565b600080866001600160a01b031685876040516152de919061598f565b60006040518083038185875af1925050503d806000811461531b576040519150601f19603f3d011682016040523d82523d6000602084013e615320565b606091505b509150915061533082828661533b565b979650505050505050565b6060831561534a5750816114ac565b82511561535a5782518084602001fd5b8160405162461bcd60e51b81526004016111299190615a81565b803561537f81615dcb565b919050565b600082601f830112615394578081fd5b81356153a76153a282615cb1565b615c80565b8181528460208386010111156153bb578283fd5b816020850160208301379081016020019190915292915050565b80516001600160701b038116811461537f57600080fd5b6000602082840312156153fd578081fd5b81356114ac81615db6565b600060208284031215615419578081fd5b81516114ac81615db6565b60008060008060008060008060006101208a8c031215615442578485fd5b893561544d81615db6565b985060208a013561545d81615db6565b975060408a013561546d81615db6565b965060608a013561547d81615db6565b955060808a013561548d81615db6565b945060a08a013561549d81615db6565b935060c08a01356154ad81615db6565b925060e08a01356154bd81615db6565b91506101008a01356154ce81615db6565b809150509295985092959850929598565b600060208083850312156154f1578182fd5b825167ffffffffffffffff80821115615508578384fd5b818501915085601f83011261551b578384fd5b81518181111561552d5761552d615da0565b8060051b915061553e848301615c80565b8181528481019084860184860187018a1015615558578788fd5b8795505b8386101561557a57805183526001959095019491860191860161555c565b5098975050505050505050565b600060208284031215615598578081fd5b81516114ac81615dcb565b6000602082840312156155b4578081fd5b5035919050565b6000602082840312156155cc578081fd5b5051919050565b600080604083850312156155e5578182fd5b8235915060208301356155f781615db6565b809150509250929050565b600080600083850360c0811215615617578182fd5b843593506080601f198201121561562c578182fd5b506040516080810181811067ffffffffffffffff8211171561565057615650615da0565b604052602085013561566181615db6565b8152604085013561567181615db6565b602082015260608501356040820152608085013560048110615691578283fd5b6060820152915061458d60a08501615374565b600080604083850312156156b6578182fd5b50508035926020909101359150565b6000602082840312156156d6578081fd5b81356001600160e01b0319811681146114ac578182fd5b6000602082840312156156fe578081fd5b815167ffffffffffffffff811115615714578182fd5b8201601f81018413615724578182fd5b80516157326153a282615cb1565b818152856020838501011115615746578384fd5b615757826020830160208601615d47565b95945050505050565b600080600060608486031215615774578081fd5b61577d846153d5565b925061578b602085016153d5565b9150604084015163ffffffff811681146157a3578182fd5b809150509250925092565b600080604083850312156157c0578182fd5b8235915060208301356155f781615dcb565b600080604083850312156157e4578182fd5b82359150602083013567ffffffffffffffff811115615801578182fd5b61580d85828601615384565b9150509250929050565b60008060408385031215615829578182fd5b505080516020909101519092909150565b6000806000806080858703121561584f578182fd5b8435935060208501359250604085013567ffffffffffffffff811115615873578283fd5b61587f87828801615384565b925050606085013561589081615db6565b939692955090935050565b6000806000606084860312156158af578081fd5b8351925060208401519150604084015190509250925092565b600080600080600060a086880312156158df578283fd5b85359450602086013593506040860135925060608601356158ff81615db6565b9150608086013567ffffffffffffffff81111561591a578182fd5b61592688828901615384565b9150509295509295909350565b60008060408385031215615945578182fd5b82359150602083013567ffffffffffffffff811681146155f7578182fd5b6000815180845261597b816020860160208601615d47565b601f01601f19169290920160200192915050565b600082516159a1818460208701615d47565b9190910192915050565b7f416363657373436f6e74726f6c3a206163636f756e74200000000000000000008152600083516159e3816017850160208801615d47565b7001034b99036b4b9b9b4b733903937b6329607d1b6017918401918201528351615a14816028840160208801615d47565b01602801949350505050565b6001600160a01b039384168152919092166020820152604081019190915260600190565b6001600160a01b038316815260406020820181905260009061306290830184615963565b6001600160a01b03929092168252602082015260400190565b6020815260006114ac6020830184615963565b6020808252601290820152714e6f7420656e6f7567682062616c616e636560701b604082015260600190565b60208082526012908201527113db9b1e481bdddb995c88185b1b1bddd95960721b604082015260600190565b60208082526028908201527f416d6f756e742069732067726561746572207468616e20617661696c61626c656040820152672066756e64696e6760c01b606082015260800190565b6020808252600e908201526d14da1bdd5b19081bdddb8813919560921b604082015260600190565b60208082526010908201526f546f6b656e206973206c6f636b65642160801b604082015260600190565b600060a082018783526020878185015260a0604085015281875180845260c0860191508289019350845b81811015615bd55784516001600160a01b031683529383019391830191600101615bb0565b50506001600160a01b03969096166060850152505050608001529392505050565b8281526040602082015260006130626040830184615963565b6000610140820190508b82528a60208301528960408301528860608301528760808301528660a08301528560c08301528460e08301528361010083015260048310615c6a57634e487b7160e01b600052602160045260246000fd5b826101208301529b9a5050505050505050505050565b604051601f8201601f1916810167ffffffffffffffff81118282101715615ca957615ca9615da0565b604052919050565b600067ffffffffffffffff821115615ccb57615ccb615da0565b50601f01601f191660200190565b60008219821115615cec57615cec615d8a565b500190565b600082615d0c57634e487b7160e01b81526012600452602481fd5b500490565b6000816000190483118215151615615d2b57615d2b615d8a565b500290565b600082821015615d4257615d42615d8a565b500390565b60005b83811015615d62578181015183820152602001615d4a565b83811115612f1d5750506000910152565b600081615d8257615d82615d8a565b506000190190565b634e487b7160e01b600052601160045260246000fd5b634e487b7160e01b600052604160045260246000fd5b6001600160a01b03811681146129da57600080fd5b80151581146129da57600080fdfec55a74c743a5d6aff6a82963adf054e2367242c4a636870f26b8ee90910968d0eb4fd9f47c063b511700e1c8e94e2fa4088ffca1fdcef1e60edf1beecd1b2e64a26469706673582212209b26cb28ec0d6bb8583fe7cda81c96b52a05b845c581a1670e85b15e6b5bb89f64736f6c63430008040033",
  "libraries": {
    "SyntheticTokenLibrary": "0xdd31c8D6Df3f508aA0AE81eE20cd9e87FCB8Cf58"
  },
  "devdoc": {
    "author": "priviprotocol",
    "kind": "dev",
    "methods": {
      "buyJotTokens(uint256,uint256)": {
        "params": {
          "amountToBuy_": "the amount of jots to buy",
          "tokenId_": "the id of the synthetic nft"
        }
      },
      "constructor": {
        "details": "initializes some immutable variables and lock the implementation contract      for further initializations (with the initializer modifier)",
        "params": {
          "randomConsumerAddress_": "the address of the vrf Chainlink node",
          "validatorAddress_": "the address of the polygon validator Chainlink node"
        }
      },
      "decreaseSellingSupply(uint256,uint256)": {
        "details": "caller must be the owner of the NFT",
        "params": {
          "amount_": "the amount of jots to transfer to supply",
          "tokenId_": "the id of the synthetic nft"
        }
      },
      "depositJotTokens(uint256,uint256)": {
        "params": {
          "amountToDeposit_": "the amount of jots to deposit",
          "tokenId_": "the id of the synthetic nft"
        }
      },
      "getRoleAdmin(bytes32)": {
        "details": "Returns the admin role that controls `role`. See {grantRole} and {revokeRole}. To change a role's admin, use {_setRoleAdmin}."
      },
      "getSyntheticNFTOwner(uint256)": {
        "params": {
          "tokenId_": "the id of the NFT"
        }
      },
      "grantRole(bytes32,address)": {
        "details": "Grants `role` to `account`. If `account` had not been already granted `role`, emits a {RoleGranted} event. Requirements: - the caller must have ``role``'s admin role."
      },
      "hasRole(bytes32,address)": {
        "details": "Returns `true` if `account` has been granted `role`."
      },
      "increaseSellingSupply(uint256,uint256)": {
        "details": "caller must be the owner of the NFT",
        "params": {
          "amount_": "the amount of jots to transfer from supply",
          "tokenId_": "the id of the synthetic nft"
        }
      },
      "initialize(address,address,address,address,address,address,address,address,address)": {
        "details": "initialize the proxy contract",
        "params": {
          "auctionManagerAddress_": "the auctions manager fabric address",
          "erc721address_": "the address of the synthetic erc721 contract handled by this",
          "jotAddress_": "the address of the jot contract for this collection",
          "jotPool_": "the address of the corresponding jot pool",
          "originalCollectionAddress_": "the original collection address",
          "protocol_": "the address of the protocol parameters contract (governance parameters)",
          "redemptionPool_": "the address of the corresponding redemption pool",
          "swapAddress_": "the address of the uniswapV2Pair"
        }
      },
      "processBuybackPriceResponse(bytes32,uint256)": {
        "details": "processes the oracle response for buyback price updates",
        "params": {
          "buybackPrice_": "the new buyback price",
          "requestId_": "the id of the Chainlink request"
        }
      },
      "reassignNFT(uint256,address)": {
        "details": "allows the callback after finishing an auction to reassign the NFT to the winner",
        "params": {
          "newOwner_": "the winner of the auction account",
          "nftId_": "the id of the auctioned synthetic token"
        }
      },
      "register(uint256,uint256,uint256,address,string)": {
        "details": "through this the router can register tokens",
        "params": {
          "metadata_": "the metadata (the ipfs url) of the nft",
          "nftOwner_": "the owner of the synthetic nft",
          "priceFraction_": "the price fraction for buying",
          "supplyToKeep_": "the supply that the owner decides to keep",
          "tokenId_": "the original token id"
        },
        "returns": {
          "syntheticId": "the id of the newly registered token"
        }
      },
      "renounceRole(bytes32,address)": {
        "details": "Revokes `role` from the calling account. Roles are often managed via {grantRole} and {revokeRole}: this function's purpose is to provide a mechanism for accounts to lose their privileges if they are compromised (such as when a trusted device is misplaced). If the calling account had been granted `role`, emits a {RoleRevoked} event. Requirements: - the caller must be `account`."
      },
      "revokeRole(bytes32,address)": {
        "details": "Revokes `role` from `account`. If `account` had been granted `role`, emits a {RoleRevoked} event. Requirements: - the caller must have ``role``'s admin role."
      },
      "supportsInterface(bytes4)": {
        "details": "See {IERC165-supportsInterface}."
      },
      "updatePriceFraction(uint256,uint256)": {
        "details": "caller must be the owner of the NFT",
        "params": {
          "newFractionPrice_": "the new value of the fraction price",
          "tokenId_": "the id of the synthetic nft"
        }
      }
    },
    "stateVariables": {
      "_flips": {
        "details": "mapping the request id from Chainlink with the flip input data"
      },
      "changeNonces": {
        "details": "nonce to count the changes of an original collection token id      in order to avoid double change (with the second one keeping the synthetic playing)"
      },
      "nonces": {
        "details": "the nonce to avoid double verification (quantity of exits for original token id)"
      }
    },
    "title": "synthetic collection abstraction contract",
    "version": 1
  },
  "userdoc": {
    "kind": "user",
    "methods": {
      "AUCTION_MANAGER()": {
        "notice": "role of the auctions manager fabric contract"
      },
      "AddLiquidityToFuturePool(uint256,uint256)": {
        "notice": "add available liquidity to Perpetual Pool"
      },
      "AuctionsManagerAddress()": {
        "notice": "the address of the auctions manager fabric contract"
      },
      "RANDOM_ORACLE()": {
        "notice": "role of the vrf chainlink oracle"
      },
      "ROUTER()": {
        "notice": "role of the router contract"
      },
      "VALIDATOR_ORACLE()": {
        "notice": "role of the polygon validator chainlink oracle for verifications"
      },
      "addLiquidityToQuickswap(uint256,uint256)": {
        "notice": "add available liquidity for a given token to UniSwap pool"
      },
      "buyJotTokens(uint256,uint256)": {
        "notice": "allows the caller to buy jots using the funding token"
      },
      "buyback(uint256)": {
        "notice": "Buy token back. Caller needs to pre-approve a transaction worth the amount returned by the getRequiredFundingForBuyback(uint256 tokenId) function"
      },
      "change(uint256,uint256,string,address)": {
        "notice": "change an NFT for another one of the same collection"
      },
      "claimLiquidityTokens(uint256,uint256)": {
        "notice": "Claim Liquidity Tokens"
      },
      "decreaseSellingSupply(uint256,uint256)": {
        "notice": "decrease selling supply for a given NFT"
      },
      "depositJotTokens(uint256,uint256)": {
        "notice": "allows the caller to deposit jots"
      },
      "erc721address()": {
        "notice": "Synthetic NFT Address  for this collection"
      },
      "fundingTokenAddress()": {
        "notice": "funding token address"
      },
      "getAccruedReward(uint256)": {
        "notice": "returns the accrued reward by QuickSwap pool LP for a given fractionalization"
      },
      "getAvailableJotsForBuyback(uint256)": {
        "notice": "returns funds owned by token, in Jots and Funding, in contract and in UniSwap"
      },
      "getSyntheticNFTOwner(uint256)": {
        "notice": "get the owner of the NFT"
      },
      "increaseSellingSupply(uint256,uint256)": {
        "notice": "increase selling supply for a given NFT"
      },
      "isSyntheticNFTCreated(uint256)": {
        "notice": "public function. Checks if an NFT has been already fractionalized"
      },
      "isSyntheticNFTFractionalised(uint256)": {
        "notice": "public function. Checks if an NFT has been already fractionalised."
      },
      "jotAddress()": {
        "notice": "jot Address for this collection"
      },
      "originalCollectionAddress()": {
        "notice": "address of the original collection"
      },
      "poolAddress()": {
        "notice": "returns the Quickswap pool address"
      },
      "syntheticProtocolRouterAddress()": {
        "notice": "the address of the protocol router"
      },
      "tokens(uint256)": {
        "notice": "data for each token"
      },
      "updateBuybackPrice()": {
        "notice": "allows users to update buyback price for buyback"
      },
      "updatePriceFraction(uint256,uint256)": {
        "notice": "update the price of a fraction for a given NFT"
      },
      "verify(uint256)": {
        "notice": "this method calls chainlink oracle and  verifies if the NFT has been locked on NFTVaultManager. In addition  gets the metadata of the NFT"
      }
    },
    "version": 1
  },
  "storageLayout": {
    "storage": [
      {
        "astId": 3872,
        "contract": "contracts/polygon/implementations/SyntheticCollectionManager.sol:SyntheticCollectionManager",
        "label": "_roles",
        "offset": 0,
        "slot": "0",
        "type": "t_mapping(t_bytes32,t_struct(RoleData)3867_storage)"
      },
      {
        "astId": 7665,
        "contract": "contracts/polygon/implementations/SyntheticCollectionManager.sol:SyntheticCollectionManager",
        "label": "_initialized",
        "offset": 0,
        "slot": "1",
        "type": "t_bool"
      },
      {
        "astId": 7668,
        "contract": "contracts/polygon/implementations/SyntheticCollectionManager.sol:SyntheticCollectionManager",
        "label": "_initializing",
        "offset": 1,
        "slot": "1",
        "type": "t_bool"
      },
      {
        "astId": 24822,
        "contract": "contracts/polygon/implementations/SyntheticCollectionManager.sol:SyntheticCollectionManager",
        "label": "AuctionsManagerAddress",
        "offset": 2,
        "slot": "1",
        "type": "t_address"
      },
      {
        "astId": 24825,
        "contract": "contracts/polygon/implementations/SyntheticCollectionManager.sol:SyntheticCollectionManager",
        "label": "syntheticProtocolRouterAddress",
        "offset": 0,
        "slot": "2",
        "type": "t_address"
      },
      {
        "astId": 24827,
        "contract": "contracts/polygon/implementations/SyntheticCollectionManager.sol:SyntheticCollectionManager",
        "label": "perpetualPoolLiteAddress",
        "offset": 0,
        "slot": "3",
        "type": "t_address"
      },
      {
        "astId": 24829,
        "contract": "contracts/polygon/implementations/SyntheticCollectionManager.sol:SyntheticCollectionManager",
        "label": "_swapAddress",
        "offset": 0,
        "slot": "4",
        "type": "t_address"
      },
      {
        "astId": 24831,
        "contract": "contracts/polygon/implementations/SyntheticCollectionManager.sol:SyntheticCollectionManager",
        "label": "_liquidityCalculatorAddress",
        "offset": 0,
        "slot": "5",
        "type": "t_address"
      },
      {
        "astId": 24837,
        "contract": "contracts/polygon/implementations/SyntheticCollectionManager.sol:SyntheticCollectionManager",
        "label": "_flips",
        "offset": 0,
        "slot": "6",
        "type": "t_mapping(t_bytes32,t_struct(Flip)24754_storage)"
      },
      {
        "astId": 24841,
        "contract": "contracts/polygon/implementations/SyntheticCollectionManager.sol:SyntheticCollectionManager",
        "label": "_originalToSynthetic",
        "offset": 0,
        "slot": "7",
        "type": "t_mapping(t_uint256,t_uint256)"
      },
      {
        "astId": 24845,
        "contract": "contracts/polygon/implementations/SyntheticCollectionManager.sol:SyntheticCollectionManager",
        "label": "canFlip",
        "offset": 0,
        "slot": "8",
        "type": "t_mapping(t_uint256,t_bool)"
      },
      {
        "astId": 24848,
        "contract": "contracts/polygon/implementations/SyntheticCollectionManager.sol:SyntheticCollectionManager",
        "label": "protocol",
        "offset": 0,
        "slot": "9",
        "type": "t_contract(ProtocolParameters)23339"
      },
      {
        "astId": 24851,
        "contract": "contracts/polygon/implementations/SyntheticCollectionManager.sol:SyntheticCollectionManager",
        "label": "originalCollectionAddress",
        "offset": 0,
        "slot": "10",
        "type": "t_address"
      },
      {
        "astId": 24854,
        "contract": "contracts/polygon/implementations/SyntheticCollectionManager.sol:SyntheticCollectionManager",
        "label": "jotAddress",
        "offset": 0,
        "slot": "11",
        "type": "t_address"
      },
      {
        "astId": 24857,
        "contract": "contracts/polygon/implementations/SyntheticCollectionManager.sol:SyntheticCollectionManager",
        "label": "fundingTokenAddress",
        "offset": 0,
        "slot": "12",
        "type": "t_address"
      },
      {
        "astId": 24859,
        "contract": "contracts/polygon/implementations/SyntheticCollectionManager.sol:SyntheticCollectionManager",
        "label": "buybackPrice",
        "offset": 0,
        "slot": "13",
        "type": "t_uint256"
      },
      {
        "astId": 24861,
        "contract": "contracts/polygon/implementations/SyntheticCollectionManager.sol:SyntheticCollectionManager",
        "label": "_buybackPriceLastUpdate",
        "offset": 0,
        "slot": "14",
        "type": "t_uint256"
      },
      {
        "astId": 24867,
        "contract": "contracts/polygon/implementations/SyntheticCollectionManager.sol:SyntheticCollectionManager",
        "label": "tokens",
        "offset": 0,
        "slot": "15",
        "type": "t_mapping(t_uint256,t_struct(TokenData)24747_storage)"
      },
      {
        "astId": 24872,
        "contract": "contracts/polygon/implementations/SyntheticCollectionManager.sol:SyntheticCollectionManager",
        "label": "nonces",
        "offset": 0,
        "slot": "16",
        "type": "t_mapping(t_uint256,t_uint256)"
      },
      {
        "astId": 24878,
        "contract": "contracts/polygon/implementations/SyntheticCollectionManager.sol:SyntheticCollectionManager",
        "label": "changeNonces",
        "offset": 0,
        "slot": "17",
        "type": "t_mapping(t_uint256,t_struct(ChangeNonce)24761_storage)"
      },
      {
        "astId": 24884,
        "contract": "contracts/polygon/implementations/SyntheticCollectionManager.sol:SyntheticCollectionManager",
        "label": "ownersByNonce",
        "offset": 0,
        "slot": "18",
        "type": "t_mapping(t_uint256,t_mapping(t_uint256,t_address))"
      },
      {
        "astId": 24887,
        "contract": "contracts/polygon/implementations/SyntheticCollectionManager.sol:SyntheticCollectionManager",
        "label": "erc721address",
        "offset": 0,
        "slot": "19",
        "type": "t_address"
      },
      {
        "astId": 24889,
        "contract": "contracts/polygon/implementations/SyntheticCollectionManager.sol:SyntheticCollectionManager",
        "label": "jotPool",
        "offset": 0,
        "slot": "20",
        "type": "t_address"
      },
      {
        "astId": 24891,
        "contract": "contracts/polygon/implementations/SyntheticCollectionManager.sol:SyntheticCollectionManager",
        "label": "redemptionPool",
        "offset": 0,
        "slot": "21",
        "type": "t_address"
      }
    ],
    "types": {
      "t_address": {
        "encoding": "inplace",
        "label": "address",
        "numberOfBytes": "20"
      },
      "t_bool": {
        "encoding": "inplace",
        "label": "bool",
        "numberOfBytes": "1"
      },
      "t_bytes32": {
        "encoding": "inplace",
        "label": "bytes32",
        "numberOfBytes": "32"
      },
      "t_contract(ProtocolParameters)23339": {
        "encoding": "inplace",
        "label": "contract ProtocolParameters",
        "numberOfBytes": "20"
      },
      "t_enum(State)23366": {
        "encoding": "inplace",
        "label": "enum State",
        "numberOfBytes": "1"
      },
      "t_mapping(t_address,t_bool)": {
        "encoding": "mapping",
        "key": "t_address",
        "label": "mapping(address => bool)",
        "numberOfBytes": "32",
        "value": "t_bool"
      },
      "t_mapping(t_bytes32,t_struct(Flip)24754_storage)": {
        "encoding": "mapping",
        "key": "t_bytes32",
        "label": "mapping(bytes32 => struct Flip)",
        "numberOfBytes": "32",
        "value": "t_struct(Flip)24754_storage"
      },
      "t_mapping(t_bytes32,t_struct(RoleData)3867_storage)": {
        "encoding": "mapping",
        "key": "t_bytes32",
        "label": "mapping(bytes32 => struct AccessControl.RoleData)",
        "numberOfBytes": "32",
        "value": "t_struct(RoleData)3867_storage"
      },
      "t_mapping(t_uint256,t_address)": {
        "encoding": "mapping",
        "key": "t_uint256",
        "label": "mapping(uint256 => address)",
        "numberOfBytes": "32",
        "value": "t_address"
      },
      "t_mapping(t_uint256,t_bool)": {
        "encoding": "mapping",
        "key": "t_uint256",
        "label": "mapping(uint256 => bool)",
        "numberOfBytes": "32",
        "value": "t_bool"
      },
      "t_mapping(t_uint256,t_mapping(t_uint256,t_address))": {
        "encoding": "mapping",
        "key": "t_uint256",
        "label": "mapping(uint256 => mapping(uint256 => address))",
        "numberOfBytes": "32",
        "value": "t_mapping(t_uint256,t_address)"
      },
      "t_mapping(t_uint256,t_struct(ChangeNonce)24761_storage)": {
        "encoding": "mapping",
        "key": "t_uint256",
        "label": "mapping(uint256 => struct ChangeNonce)",
        "numberOfBytes": "32",
        "value": "t_struct(ChangeNonce)24761_storage"
      },
      "t_mapping(t_uint256,t_struct(TokenData)24747_storage)": {
        "encoding": "mapping",
        "key": "t_uint256",
        "label": "mapping(uint256 => struct TokenData)",
        "numberOfBytes": "32",
        "value": "t_struct(TokenData)24747_storage"
      },
      "t_mapping(t_uint256,t_uint256)": {
        "encoding": "mapping",
        "key": "t_uint256",
        "label": "mapping(uint256 => uint256)",
        "numberOfBytes": "32",
        "value": "t_uint256"
      },
      "t_struct(ChangeNonce)24761_storage": {
        "encoding": "inplace",
        "label": "struct ChangeNonce",
        "members": [
          {
            "astId": 24756,
            "contract": "contracts/polygon/implementations/SyntheticCollectionManager.sol:SyntheticCollectionManager",
            "label": "nonce",
            "offset": 0,
            "slot": "0",
            "type": "t_uint256"
          },
          {
            "astId": 24758,
            "contract": "contracts/polygon/implementations/SyntheticCollectionManager.sol:SyntheticCollectionManager",
            "label": "newTokenId",
            "offset": 0,
            "slot": "1",
            "type": "t_uint256"
          },
          {
            "astId": 24760,
            "contract": "contracts/polygon/implementations/SyntheticCollectionManager.sol:SyntheticCollectionManager",
            "label": "owner",
            "offset": 0,
            "slot": "2",
            "type": "t_address"
          }
        ],
        "numberOfBytes": "96"
      },
      "t_struct(Flip)24754_storage": {
        "encoding": "inplace",
        "label": "struct Flip",
        "members": [
          {
            "astId": 24749,
            "contract": "contracts/polygon/implementations/SyntheticCollectionManager.sol:SyntheticCollectionManager",
            "label": "tokenId",
            "offset": 0,
            "slot": "0",
            "type": "t_uint256"
          },
          {
            "astId": 24751,
            "contract": "contracts/polygon/implementations/SyntheticCollectionManager.sol:SyntheticCollectionManager",
            "label": "prediction",
            "offset": 0,
            "slot": "1",
            "type": "t_uint64"
          },
          {
            "astId": 24753,
            "contract": "contracts/polygon/implementations/SyntheticCollectionManager.sol:SyntheticCollectionManager",
            "label": "player",
            "offset": 8,
            "slot": "1",
            "type": "t_address"
          }
        ],
        "numberOfBytes": "64"
      },
      "t_struct(RoleData)3867_storage": {
        "encoding": "inplace",
        "label": "struct AccessControl.RoleData",
        "members": [
          {
            "astId": 3864,
            "contract": "contracts/polygon/implementations/SyntheticCollectionManager.sol:SyntheticCollectionManager",
            "label": "members",
            "offset": 0,
            "slot": "0",
            "type": "t_mapping(t_address,t_bool)"
          },
          {
            "astId": 3866,
            "contract": "contracts/polygon/implementations/SyntheticCollectionManager.sol:SyntheticCollectionManager",
            "label": "adminRole",
            "offset": 0,
            "slot": "1",
            "type": "t_bytes32"
          }
        ],
        "numberOfBytes": "64"
      },
      "t_struct(TokenData)24747_storage": {
        "encoding": "inplace",
        "label": "struct TokenData",
        "members": [
          {
            "astId": 24727,
            "contract": "contracts/polygon/implementations/SyntheticCollectionManager.sol:SyntheticCollectionManager",
            "label": "originalTokenID",
            "offset": 0,
            "slot": "0",
            "type": "t_uint256"
          },
          {
            "astId": 24729,
            "contract": "contracts/polygon/implementations/SyntheticCollectionManager.sol:SyntheticCollectionManager",
            "label": "ownerSupply",
            "offset": 0,
            "slot": "1",
            "type": "t_uint256"
          },
          {
            "astId": 24731,
            "contract": "contracts/polygon/implementations/SyntheticCollectionManager.sol:SyntheticCollectionManager",
            "label": "sellingSupply",
            "offset": 0,
            "slot": "2",
            "type": "t_uint256"
          },
          {
            "astId": 24733,
            "contract": "contracts/polygon/implementations/SyntheticCollectionManager.sol:SyntheticCollectionManager",
            "label": "soldSupply",
            "offset": 0,
            "slot": "3",
            "type": "t_uint256"
          },
          {
            "astId": 24735,
            "contract": "contracts/polygon/implementations/SyntheticCollectionManager.sol:SyntheticCollectionManager",
            "label": "liquiditySold",
            "offset": 0,
            "slot": "4",
            "type": "t_uint256"
          },
          {
            "astId": 24737,
            "contract": "contracts/polygon/implementations/SyntheticCollectionManager.sol:SyntheticCollectionManager",
            "label": "fractionPrices",
            "offset": 0,
            "slot": "5",
            "type": "t_uint256"
          },
          {
            "astId": 24739,
            "contract": "contracts/polygon/implementations/SyntheticCollectionManager.sol:SyntheticCollectionManager",
            "label": "lastFlipTime",
            "offset": 0,
            "slot": "6",
            "type": "t_uint256"
          },
          {
            "astId": 24741,
            "contract": "contracts/polygon/implementations/SyntheticCollectionManager.sol:SyntheticCollectionManager",
            "label": "liquidityTokenBalance",
            "offset": 0,
            "slot": "7",
            "type": "t_uint256"
          },
          {
            "astId": 24743,
            "contract": "contracts/polygon/implementations/SyntheticCollectionManager.sol:SyntheticCollectionManager",
            "label": "perpetualFuturesLShares",
            "offset": 0,
            "slot": "8",
            "type": "t_uint256"
          },
          {
            "astId": 24746,
            "contract": "contracts/polygon/implementations/SyntheticCollectionManager.sol:SyntheticCollectionManager",
            "label": "state",
            "offset": 0,
            "slot": "9",
            "type": "t_enum(State)23366"
          }
        ],
        "numberOfBytes": "320"
      },
      "t_uint256": {
        "encoding": "inplace",
        "label": "uint256",
        "numberOfBytes": "32"
      },
      "t_uint64": {
        "encoding": "inplace",
        "label": "uint64",
        "numberOfBytes": "8"
      }
    }
  }
}