{
  "address": "0xD1ca2e0583B282b5047c708772345B58b34B3479",
  "abi": [
    {
      "inputs": [
        {
          "internalType": "address",
          "name": "swapAddress_",
          "type": "address"
        },
        {
          "internalType": "address",
          "name": "jot_",
          "type": "address"
        },
        {
          "internalType": "address",
          "name": "jotPool_",
          "type": "address"
        },
        {
          "internalType": "address",
          "name": "collectionManager_",
          "type": "address"
        },
        {
          "internalType": "address",
          "name": "syntheticNFT_",
          "type": "address"
        },
        {
          "internalType": "address",
          "name": "auctionManager_",
          "type": "address"
        },
        {
          "internalType": "address",
          "name": "fundingTokenAddress_",
          "type": "address"
        },
        {
          "internalType": "address",
          "name": "randomConsumerAddress_",
          "type": "address"
        },
        {
          "internalType": "address",
          "name": "validatorAddress_",
          "type": "address"
        },
        {
          "components": [
            {
              "internalType": "address",
              "name": "lTokenLite_",
              "type": "address"
            },
            {
              "internalType": "address",
              "name": "pTokenLite_",
              "type": "address"
            },
            {
              "internalType": "address",
              "name": "perpetualPoolLiteAddress_",
              "type": "address"
            }
          ],
          "internalType": "struct FuturesParametersContracts",
          "name": "futuresParameters",
          "type": "tuple"
        },
        {
          "components": [
            {
              "internalType": "address",
              "name": "fractionalizeProtocol",
              "type": "address"
            },
            {
              "internalType": "address",
              "name": "futuresProtocol",
              "type": "address"
            }
          ],
          "internalType": "struct ProtocolParametersContracts",
          "name": "protocolParameters",
          "type": "tuple"
        }
      ],
      "stateMutability": "nonpayable",
      "type": "constructor"
    },
    {
      "anonymous": false,
      "inputs": [
        {
          "indexed": false,
          "internalType": "uint256",
          "name": "collectionManagerID",
          "type": "uint256"
        },
        {
          "indexed": false,
          "internalType": "address",
          "name": "collectionManagerAddress",
          "type": "address"
        },
        {
          "indexed": false,
          "internalType": "address",
          "name": "jotAddress",
          "type": "address"
        },
        {
          "indexed": false,
          "internalType": "address",
          "name": "jotPoolAddress",
          "type": "address"
        },
        {
          "indexed": false,
          "internalType": "address",
          "name": "jotPairAddress",
          "type": "address"
        },
        {
          "indexed": false,
          "internalType": "address",
          "name": "syntheticNFTAddress",
          "type": "address"
        },
        {
          "indexed": false,
          "internalType": "address",
          "name": "quickSwapAddress",
          "type": "address"
        },
        {
          "indexed": false,
          "internalType": "address",
          "name": "auctionAddress",
          "type": "address"
        },
        {
          "indexed": false,
          "internalType": "address",
          "name": "lTokenLite_",
          "type": "address"
        },
        {
          "indexed": false,
          "internalType": "address",
          "name": "pTokenLite_",
          "type": "address"
        },
        {
          "indexed": false,
          "internalType": "address",
          "name": "perpetualPoolLiteAddress_",
          "type": "address"
        }
      ],
      "name": "CollectionManagerRegistered",
      "type": "event"
    },
    {
      "anonymous": false,
      "inputs": [
        {
          "indexed": true,
          "internalType": "address",
          "name": "previousOwner",
          "type": "address"
        },
        {
          "indexed": true,
          "internalType": "address",
          "name": "newOwner",
          "type": "address"
        }
      ],
      "name": "OwnershipTransferred",
      "type": "event"
    },
    {
      "anonymous": false,
      "inputs": [
        {
          "indexed": true,
          "internalType": "bytes32",
          "name": "role",
          "type": "bytes32"
        },
        {
          "indexed": true,
          "internalType": "bytes32",
          "name": "previousAdminRole",
          "type": "bytes32"
        },
        {
          "indexed": true,
          "internalType": "bytes32",
          "name": "newAdminRole",
          "type": "bytes32"
        }
      ],
      "name": "RoleAdminChanged",
      "type": "event"
    },
    {
      "anonymous": false,
      "inputs": [
        {
          "indexed": true,
          "internalType": "bytes32",
          "name": "role",
          "type": "bytes32"
        },
        {
          "indexed": true,
          "internalType": "address",
          "name": "account",
          "type": "address"
        },
        {
          "indexed": true,
          "internalType": "address",
          "name": "sender",
          "type": "address"
        }
      ],
      "name": "RoleGranted",
      "type": "event"
    },
    {
      "anonymous": false,
      "inputs": [
        {
          "indexed": true,
          "internalType": "bytes32",
          "name": "role",
          "type": "bytes32"
        },
        {
          "indexed": true,
          "internalType": "address",
          "name": "account",
          "type": "address"
        },
        {
          "indexed": true,
          "internalType": "address",
          "name": "sender",
          "type": "address"
        }
      ],
      "name": "RoleRevoked",
      "type": "event"
    },
    {
      "anonymous": false,
      "inputs": [
        {
          "indexed": false,
          "internalType": "address",
          "name": "collectionAddress",
          "type": "address"
        },
        {
          "indexed": false,
          "internalType": "uint256",
          "name": "syntheticID",
          "type": "uint256"
        },
        {
          "indexed": false,
          "internalType": "uint256",
          "name": "previousID",
          "type": "uint256"
        },
        {
          "indexed": false,
          "internalType": "uint256",
          "name": "newID",
          "type": "uint256"
        }
      ],
      "name": "TokenChanged",
      "type": "event"
    },
    {
      "anonymous": false,
      "inputs": [
        {
          "indexed": false,
          "internalType": "address",
          "name": "collectionManagerAddress",
          "type": "address"
        },
        {
          "indexed": false,
          "internalType": "uint256",
          "name": "collectionManagerID",
          "type": "uint256"
        },
        {
          "indexed": false,
          "internalType": "uint256",
          "name": "syntheticTokenId",
          "type": "uint256"
        }
      ],
      "name": "TokenRegistered",
      "type": "event"
    },
    {
      "inputs": [],
      "name": "DEFAULT_ADMIN_ROLE",
      "outputs": [
        {
          "internalType": "bytes32",
          "name": "",
          "type": "bytes32"
        }
      ],
      "stateMutability": "view",
      "type": "function"
    },
    {
      "inputs": [
        {
          "internalType": "address",
          "name": "collection",
          "type": "address"
        },
        {
          "internalType": "uint256",
          "name": "syntheticID",
          "type": "uint256"
        },
        {
          "internalType": "uint256",
          "name": "newOriginalTokenID",
          "type": "uint256"
        }
      ],
      "name": "changeNFT",
      "outputs": [],
      "stateMutability": "nonpayable",
      "type": "function"
    },
    {
      "inputs": [
        {
          "internalType": "address",
          "name": "collection",
          "type": "address"
        }
      ],
      "name": "getCollectionID",
      "outputs": [
        {
          "internalType": "uint256",
          "name": "",
          "type": "uint256"
        }
      ],
      "stateMutability": "view",
      "type": "function"
    },
    {
      "inputs": [
        {
          "internalType": "address",
          "name": "collection",
          "type": "address"
        }
      ],
      "name": "getCollectionManagerAddress",
      "outputs": [
        {
          "internalType": "address",
          "name": "",
          "type": "address"
        }
      ],
      "stateMutability": "view",
      "type": "function"
    },
    {
      "inputs": [
        {
          "internalType": "uint256",
          "name": "collectionID",
          "type": "uint256"
        }
      ],
      "name": "getCollectionManagerAddressFromId",
      "outputs": [
        {
          "internalType": "address",
          "name": "",
          "type": "address"
        }
      ],
      "stateMutability": "view",
      "type": "function"
    },
    {
      "inputs": [
        {
          "internalType": "address",
          "name": "collection",
          "type": "address"
        }
      ],
      "name": "getCollectionPerpetualPoolAddress",
      "outputs": [
        {
          "internalType": "address",
          "name": "",
          "type": "address"
        }
      ],
      "stateMutability": "view",
      "type": "function"
    },
    {
      "inputs": [
        {
          "internalType": "address",
          "name": "collection",
          "type": "address"
        }
      ],
      "name": "getCollectionUniswapPair",
      "outputs": [
        {
          "internalType": "address",
          "name": "",
          "type": "address"
        }
      ],
      "stateMutability": "view",
      "type": "function"
    },
    {
      "inputs": [
        {
          "internalType": "address",
          "name": "collection",
          "type": "address"
        }
      ],
      "name": "getCollectionlTokenAddress",
      "outputs": [
        {
          "internalType": "address",
          "name": "",
          "type": "address"
        }
      ],
      "stateMutability": "view",
      "type": "function"
    },
    {
      "inputs": [
        {
          "internalType": "address",
          "name": "collection",
          "type": "address"
        }
      ],
      "name": "getCollectionpTokenAddress",
      "outputs": [
        {
          "internalType": "address",
          "name": "",
          "type": "address"
        }
      ],
      "stateMutability": "view",
      "type": "function"
    },
    {
      "inputs": [
        {
          "internalType": "address",
          "name": "collection",
          "type": "address"
        }
      ],
      "name": "getJotPoolAddress",
      "outputs": [
        {
          "internalType": "address",
          "name": "",
          "type": "address"
        }
      ],
      "stateMutability": "view",
      "type": "function"
    },
    {
      "inputs": [
        {
          "internalType": "address",
          "name": "collection",
          "type": "address"
        }
      ],
      "name": "getJotsAddress",
      "outputs": [
        {
          "internalType": "address",
          "name": "",
          "type": "address"
        }
      ],
      "stateMutability": "view",
      "type": "function"
    },
    {
      "inputs": [
        {
          "internalType": "uint256",
          "name": "collectionID",
          "type": "uint256"
        }
      ],
      "name": "getOriginalCollectionAddress",
      "outputs": [
        {
          "internalType": "address",
          "name": "",
          "type": "address"
        }
      ],
      "stateMutability": "view",
      "type": "function"
    },
    {
      "inputs": [
        {
          "internalType": "bytes32",
          "name": "role",
          "type": "bytes32"
        }
      ],
      "name": "getRoleAdmin",
      "outputs": [
        {
          "internalType": "bytes32",
          "name": "",
          "type": "bytes32"
        }
      ],
      "stateMutability": "view",
      "type": "function"
    },
    {
      "inputs": [
        {
          "internalType": "bytes32",
          "name": "role",
          "type": "bytes32"
        },
        {
          "internalType": "address",
          "name": "account",
          "type": "address"
        }
      ],
      "name": "grantRole",
      "outputs": [],
      "stateMutability": "nonpayable",
      "type": "function"
    },
    {
      "inputs": [
        {
          "internalType": "bytes32",
          "name": "role",
          "type": "bytes32"
        },
        {
          "internalType": "address",
          "name": "account",
          "type": "address"
        }
      ],
      "name": "hasRole",
      "outputs": [
        {
          "internalType": "bool",
          "name": "",
          "type": "bool"
        }
      ],
      "stateMutability": "view",
      "type": "function"
    },
    {
      "inputs": [
        {
          "internalType": "address",
          "name": "collection",
          "type": "address"
        },
        {
          "internalType": "uint256",
          "name": "tokenId",
          "type": "uint256"
        }
      ],
      "name": "isNFTVerified",
      "outputs": [
        {
          "internalType": "bool",
          "name": "",
          "type": "bool"
        }
      ],
      "stateMutability": "view",
      "type": "function"
    },
    {
      "inputs": [
        {
          "internalType": "address",
          "name": "collection",
          "type": "address"
        }
      ],
      "name": "isSyntheticCollectionRegistered",
      "outputs": [
        {
          "internalType": "bool",
          "name": "",
          "type": "bool"
        }
      ],
      "stateMutability": "view",
      "type": "function"
    },
    {
      "inputs": [
        {
          "internalType": "address",
          "name": "collection",
          "type": "address"
        },
        {
          "internalType": "uint256",
          "name": "tokenId",
          "type": "uint256"
        }
      ],
      "name": "isSyntheticNFTCreated",
      "outputs": [
        {
          "internalType": "bool",
          "name": "",
          "type": "bool"
        }
      ],
      "stateMutability": "view",
      "type": "function"
    },
    {
      "inputs": [],
      "name": "owner",
      "outputs": [
        {
          "internalType": "address",
          "name": "",
          "type": "address"
        }
      ],
      "stateMutability": "view",
      "type": "function"
    },
    {
      "inputs": [],
      "name": "protocolVaults",
      "outputs": [
        {
          "internalType": "uint256",
          "name": "_value",
          "type": "uint256"
        }
      ],
      "stateMutability": "view",
      "type": "function"
    },
    {
      "inputs": [
        {
          "internalType": "address",
          "name": "collection",
          "type": "address"
        },
        {
          "internalType": "uint256",
          "name": "tokenId",
          "type": "uint256"
        },
        {
          "internalType": "uint256",
          "name": "supplyToKeep",
          "type": "uint256"
        },
        {
          "internalType": "uint256",
          "name": "priceFraction",
          "type": "uint256"
        },
        {
          "internalType": "string",
          "name": "originalName",
          "type": "string"
        },
        {
          "internalType": "string",
          "name": "originalSymbol",
          "type": "string"
        },
        {
          "internalType": "string",
          "name": "metadata",
          "type": "string"
        }
      ],
      "name": "registerNFT",
      "outputs": [],
      "stateMutability": "nonpayable",
      "type": "function"
    },
    {
      "inputs": [],
      "name": "renounceOwnership",
      "outputs": [],
      "stateMutability": "nonpayable",
      "type": "function"
    },
    {
      "inputs": [
        {
          "internalType": "bytes32",
          "name": "role",
          "type": "bytes32"
        },
        {
          "internalType": "address",
          "name": "account",
          "type": "address"
        }
      ],
      "name": "renounceRole",
      "outputs": [],
      "stateMutability": "nonpayable",
      "type": "function"
    },
    {
      "inputs": [
        {
          "internalType": "bytes32",
          "name": "role",
          "type": "bytes32"
        },
        {
          "internalType": "address",
          "name": "account",
          "type": "address"
        }
      ],
      "name": "revokeRole",
      "outputs": [],
      "stateMutability": "nonpayable",
      "type": "function"
    },
    {
      "inputs": [
        {
          "internalType": "bytes4",
          "name": "interfaceId",
          "type": "bytes4"
        }
      ],
      "name": "supportsInterface",
      "outputs": [
        {
          "internalType": "bool",
          "name": "",
          "type": "bool"
        }
      ],
      "stateMutability": "view",
      "type": "function"
    },
    {
      "inputs": [],
      "name": "swapAddress",
      "outputs": [
        {
          "internalType": "address",
          "name": "",
          "type": "address"
        }
      ],
      "stateMutability": "view",
      "type": "function"
    },
    {
      "inputs": [
        {
          "internalType": "address",
          "name": "newOwner",
          "type": "address"
        }
      ],
      "name": "transferOwnership",
      "outputs": [],
      "stateMutability": "nonpayable",
      "type": "function"
    },
    {
      "inputs": [
        {
          "internalType": "address",
          "name": "collection",
          "type": "address"
        },
        {
          "internalType": "uint256",
          "name": "tokenId",
          "type": "uint256"
        }
      ],
      "name": "verifyNFT",
      "outputs": [],
      "stateMutability": "nonpayable",
      "type": "function"
    }
  ],
  "transactionHash": "0x15f66af77aa0a1086969ca05ae46533066893a1092da36d89e698cec516ccd05",
  "args": [
    "0x4CeBfcDA07A08B1C7169E5eb77AC117FF87EEae9",
    "0xf9C9D1056C71BE3544fC446c4deF28eb9548FED5",
    "0x849F6920B41c4a4F46179900Ba1332eEA2cb3457",
    "0x0f7b04f0B1F60bc723662efC6fee73601c1d655c",
    "0xAA278F8ea1572B63fC6C2f4A42Be5f19Ba518679",
    "0xcd9Cb9e5Fb1e03b2f90E9EbbaFd3816C117dD56B",
    "0x2cA48b8c2d574b282FDAB69545646983A94a3286",
    "0xDC236b964a4CD110e5889a93a4897AB4d68c73d6",
    "0x6FcaF8EB522021754f0eEae1F99868613b5b5B49",
    {
      "lTokenLite_": "0x0000000000000000000000000000000000000000",
      "pTokenLite_": "0x0000000000000000000000000000000000000000",
      "perpetualPoolLiteAddress_": "0x4ed0fAC4e991cF7f5a67B170dCF14323BF962690"
    },
    {
      "fractionalizeProtocol": "0xa02Cd1Dc550fd58437Bc92248514e8cE989aA2A0",
      "futuresProtocol": "0x0925080c2Fbf3c2b143c440ac7471d07b229E3CA"
    }
  ],
  "solcInputHash": "19a87d2b3d24959a95e3bc151b512906",
  "bytecode": "0x60806040523480156200001157600080fd5b5060405162002cc138038062002cc183398101604081905262000034916200021b565b6200003f336200013e565b601280546001600160a01b03199081166001600160a01b039d8e16179091556002805482169b8d169b909b17909a55600380548b16998c1699909917909855600480548a16978b1697909717909655600580548916958a1695909517909455600680548816938916939093179092558451600780548816918916919091179055602094850151600880548816918916919091179055600980548716918816919091179055600a80548616918716919091179055600b805485169186169190911790558051600d8054851691861691909117905590810151600e8054841691851691909117905560400151600c805490921692169190911790556200037e565b600180546001600160a01b038381166001600160a01b0319831681179093556040519116919082907f8be0079c531659141344cd1fd0a4f28419497f9722a3daafe3b4186f6b6457e090600090a35050565b80516001600160a01b0381168114620001a857600080fd5b919050565b600060408284031215620001bf578081fd5b604080519081016001600160401b0381118282101715620001ee57634e487b7160e01b83526041600452602483fd5b604052905080620001ff8362000190565b81526200020f6020840162000190565b60208201525092915050565b60008060008060008060008060008060008b8d036101c08112156200023e578788fd5b620002498d62000190565b9b506200025960208e0162000190565b9a506200026960408e0162000190565b99506200027960608e0162000190565b98506200028960808e0162000190565b97506200029960a08e0162000190565b9650620002a960c08e0162000190565b9550620002b960e08e0162000190565b9450620002ca6101008e0162000190565b9350606061011f1982011215620002df578283fd5b50620002ea62000347565b620002f96101208e0162000190565b81526200030a6101408e0162000190565b60208201526200031e6101608e0162000190565b60408201529150620003358d6101808e01620001ad565b90509295989b509295989b9093969950565b604051606081016001600160401b03811182821017156200037857634e487b7160e01b600052604160045260246000fd5b60405290565b612933806200038e6000396000f3fe608060405234801561001057600080fd5b50600436106101c45760003560e01c80637546d985116100f9578063cf44e24411610097578063f0cfe6b911610071578063f0cfe6b9146104bd578063f1edbfa5146104ec578063f2fde38b146104ff578063ff8efe571461051257600080fd5b8063cf44e2441461044a578063cf47951114610479578063d547741f146104aa57600080fd5b80638da5cb5b116100d35780638da5cb5b1461040b57806391d148541461041c578063a217fddf1461042f578063c3e7e12d1461043757600080fd5b80637546d985146103b65780637690aff6146103e557806380f6d782146103f857600080fd5b806335777ee111610166578063509f645011610140578063509f64501461034357806356f4f1f014610372578063622203be14610385578063715018a6146103ae57600080fd5b806335777ee1146102c457806336568abe1461030157806336d683681461031457600080fd5b80630be68a71116101a25780630be68a7114610250578063218bff3914610279578063248a9ca31461028e5780632f2ff15d146102b157600080fd5b806301ffc9a7146101c9578063064e9553146101f157806306c8d97114610238575b600080fd5b6101dc6101d73660046123f5565b610525565b60405190151581526020015b60405180910390f35b6102206101ff36600461222b565b6001600160a01b039081166000908152600f60205260409020600401541690565b6040516001600160a01b0390911681526020016101e8565b6011546102429081565b6040519081526020016101e8565b61022061025e366004612396565b6000908152601060205260409020546001600160a01b031690565b61028c6102873660046122c2565b61055c565b005b61024261029c366004612396565b60009081526020819052604090206001015490565b61028c6102bf3660046123c6565b611353565b6102206102d2366004612396565b6000908152601060209081526040808320546001600160a01b039081168452600f909252909120600101541690565b61028c61030f3660046123c6565b61137e565b61022061032236600461222b565b6001600160a01b039081166000908152600f60205260409020600901541690565b61022061035136600461222b565b6001600160a01b039081166000908152600f60205260409020600301541690565b61022061038036600461222b565b6113fc565b61024261039336600461222b565b6001600160a01b03166000908152600f602052604090205490565b61028c61141d565b6102206103c436600461222b565b6001600160a01b039081166000908152600f60205260409020600201541690565b6101dc6103f3366004612263565b611483565b601254610220906001600160a01b031681565b6001546001600160a01b0316610220565b6101dc61042a3660046123c6565b61155e565b610242600081565b6101dc610445366004612263565b611587565b61022061045836600461222b565b6001600160a01b039081166000908152600f60205260409020600a01541690565b6101dc61048736600461222b565b6001600160a01b039081166000908152600f602052604090206001015416151590565b61028c6104b83660046123c6565b611703565b6102206104cb36600461222b565b6001600160a01b039081166000908152600f60205260409020600801541690565b61028c6104fa366004612263565b611729565b61028c61050d36600461222b565b611796565b61028c61052036600461228e565b611861565b60006001600160e01b03198216637965db0b60e01b148061055657506301ffc9a760e01b6001600160e01b03198316145b92915050565b6001600160a01b0387166105ac5760405162461bcd60e51b815260206004820152601260248201527124b73b30b634b21031b7b63632b1ba34b7b760711b60448201526064015b60405180910390fd5b6001600160a01b038088166000908152600f6020526040812060010154909116611246576002546000906105e8906001600160a01b03166119af565b9050806001600160a01b0316638f15b4148660405160200161060a9190612482565b6040516020818303038152906040528660405160200161062a9190612661565b60408051808303601f190181529082905260125460095460e086901b6001600160e01b031916845261066f94936001600160a01b039283169290911690600401612786565b600060405180830381600087803b15801561068957600080fd5b505af115801561069d573d6000803e3d6000fd5b5050600354600092506106b991506001600160a01b03166119af565b6009546040519192506001600160a01b0380841692632016a0d292869216906106e6908b906020016125b6565b6040516020818303038152906040528a60405160200161070691906124b4565b6040516020818303038152906040526040518563ffffffff1660e01b8152600401610734949392919061268d565b600060405180830381600087803b15801561074e57600080fd5b505af1158015610762573d6000803e3d6000fd5b50506005546000925061077e91506001600160a01b03166119af565b600454909150610796906001600160a01b03166119af565b9350836001600160a01b0316638a29e2de848d84600660009054906101000a90046001600160a01b0316600760009054906101000a90046001600160a01b0316600960009054906101000a90046001600160a01b031689601260009054906101000a90046001600160a01b03166040518963ffffffff1660e01b815260040161086b9897969594939291906001600160a01b0398891681529688166020880152948716604087015292861660608601529085166080850152841660a0840152831660c083015290911660e08201526101000190565b600060405180830381600087803b15801561088557600080fd5b505af1158015610899573d6000803e3d6000fd5b505060065460408051630e61f93f60e01b815290516001600160a01b039092169350632f2ff15d92508391630e61f93f91600480820192602092909190829003018186803b1580156108ea57600080fd5b505afa1580156108fe573d6000803e3d6000fd5b505050506040513d601f19601f8201168201806040525081019061092291906123ae565b6040516001600160e01b031960e084901b16815260048101919091526001600160a01b0387166024820152604401600060405180830381600087803b15801561096a57600080fd5b505af115801561097e573d6000803e3d6000fd5b50505050836001600160a01b0316632f2ff15d856001600160a01b03166358e8bcb76040518163ffffffff1660e01b815260040160206040518083038186803b1580156109ca57600080fd5b505afa1580156109de573d6000803e3d6000fd5b505050506040513d601f19601f82011682018060405250810190610a0291906123ae565b600a5460405160e084901b6001600160e01b031916815260048101929092526001600160a01b03166024820152604401600060405180830381600087803b158015610a4c57600080fd5b505af1158015610a60573d6000803e3d6000fd5b50505050836001600160a01b0316632f2ff15d856001600160a01b031663abacac256040518163ffffffff1660e01b815260040160206040518083038186803b158015610aac57600080fd5b505afa158015610ac0573d6000803e3d6000fd5b505050506040513d601f19601f82011682018060405250810190610ae491906123ae565b600b5460405160e084901b6001600160e01b031916815260048101929092526001600160a01b03166024820152604401600060405180830381600087803b158015610b2e57600080fd5b505af1158015610b42573d6000803e3d6000fd5b50505050826001600160a01b0316632f2ff15d846001600160a01b031663fe6d81246040518163ffffffff1660e01b815260040160206040518083038186803b158015610b8e57600080fd5b505afa158015610ba2573d6000803e3d6000fd5b505050506040513d601f19601f82011682018060405250810190610bc691906123ae565b6040516001600160e01b031960e084901b16815260048101919091526001600160a01b0387166024820152604401600060405180830381600087803b158015610c0e57600080fd5b505af1158015610c22573d6000803e3d6000fd5b5050604051635df8122f60e01b81526001600160a01b038781166004830152858116602483015286169250635df8122f9150604401600060405180830381600087803b158015610c7157600080fd5b505af1158015610c85573d6000803e3d6000fd5b50505050806001600160a01b031663077f224a88604051602001610ca99190612560565b60405160208183030381529060405288604051602001610cc99190612542565b604051602081830303815290604052876040518463ffffffff1660e01b8152600401610cf793929190612748565b600060405180830381600087803b158015610d1157600080fd5b505af1158015610d25573d6000803e3d6000fd5b5050600a54604051636085579360e11b81526001600160a01b038881166004830152909116925063c10aaf269150602401600060405180830381600087803b158015610d7057600080fd5b505af1158015610d84573d6000803e3d6000fd5b5050600b54604051636085579360e11b81526001600160a01b038881166004830152909116925063c10aaf269150602401600060405180830381600087803b158015610dcf57600080fd5b505af1158015610de3573d6000803e3d6000fd5b50505050610e0a604080516060810182526000808252602082018190529181019190915290565b600d546001600160a01b039081168252600e5481166020830152600c541660408201526000610e3b89898f85611a4c565b9050604051806101600160405280610e5260115490565b8152602001876001600160a01b03168152602001866001600160a01b03168152602001856001600160a01b03168152602001866001600160a01b03166349bd5a5e6040518163ffffffff1660e01b815260040160206040518083038186803b158015610ebd57600080fd5b505afa158015610ed1573d6000803e3d6000fd5b505050506040513d601f19601f82011682018060405250810190610ef59190612247565b6001600160a01b03168152602001846001600160a01b031681526020018a815260200189815260200182600001516001600160a01b0316815260200182602001516001600160a01b0316815260200182604001516001600160a01b0316815250600f60008f6001600160a01b03166001600160a01b031681526020019081526020016000206000820151816000015560208201518160010160006101000a8154816001600160a01b0302191690836001600160a01b0316021790555060408201518160020160006101000a8154816001600160a01b0302191690836001600160a01b0316021790555060608201518160030160006101000a8154816001600160a01b0302191690836001600160a01b0316021790555060808201518160040160006101000a8154816001600160a01b0302191690836001600160a01b0316021790555060a08201518160050160006101000a8154816001600160a01b0302191690836001600160a01b0316021790555060c082015181600601908051906020019061108192919061210b565b5060e0820151805161109d91600784019160209091019061210b565b506101008201516008820180546001600160a01b03199081166001600160a01b0393841617909155610120840151600984018054831691841691909117905561014090930151600a9092018054841692821692909217909155601180546000908152601060205260409020805490931691891691909117909155547f9007845258c39e384eca71e49fdbe4863bcde1cdd3ca397debba6123fbc5c8b690878787896001600160a01b03166349bd5a5e6040518163ffffffff1660e01b815260040160206040518083038186803b15801561117657600080fd5b505afa15801561118a573d6000803e3d6000fd5b505050506040513d601f19601f820116820180604052508101906111ae9190612247565b60125460065488516020808b01516040808d015181519b8c526001600160a01b039a8b16938c0193909352978916978a019790975294871660608901529286166080880152858b1660a088015290851660c0870152841660e08601528316610100850152908216610120840152166101408201526101600160405180910390a161123c601180546001019055565b5050505050611266565b506001600160a01b038088166000908152600f6020526040902060010154165b6040516305ea172d60e41b815281906000906001600160a01b03831690635ea172d09061129f908c908c908c9033908b906004016127d0565b602060405180830381600087803b1580156112b957600080fd5b505af11580156112cd573d6000803e3d6000fd5b505050506040513d601f19601f820116820180604052508101906112f191906123ae565b90507f74700b9b42b2dd56732c1bf098db59ffb8e972345b7d1d6dc2fe9cbca8bc22ec8361131e60115490565b604080516001600160a01b0390931683526020830191909152810183905260600160405180910390a150505050505050505050565b60008281526020819052604090206001015461136f8133611d83565b6113798383611de7565b505050565b6001600160a01b03811633146113ee5760405162461bcd60e51b815260206004820152602f60248201527f416363657373436f6e74726f6c3a2063616e206f6e6c792072656e6f756e636560448201526e103937b632b9903337b91039b2b63360891b60648201526084016105a3565b6113f88282611e6b565b5050565b6001600160a01b039081166000908152600f60205260409020600101541690565b6001546001600160a01b031633146114775760405162461bcd60e51b815260206004820181905260248201527f4f776e61626c653a2063616c6c6572206973206e6f7420746865206f776e657260448201526064016105a3565b6114816000611ed0565b565b600061148f8383611587565b6114d05760405162461bcd60e51b8152602060048201526012602482015271139195081b9bdd081c9959da5cdd195c995960721b60448201526064016105a3565b60006114db846113fc565b6040516337b6d96b60e01b8152600481018590529091506001600160a01b038216906337b6d96b9060240160206040518083038186803b15801561151e57600080fd5b505afa158015611532573d6000803e3d6000fd5b505050506040513d601f19601f820116820180604052508101906115569190612376565b949350505050565b6000918252602082815260408084206001600160a01b0393909316845291905290205460ff1690565b6001600160a01b038083166000908152600f60205260408120600101549091166115f35760405162461bcd60e51b815260206004820152601960248201527f436f6c6c656374696f6e206e6f7420726567697374657265640000000000000060448201526064016105a3565b6001600160a01b038084166000908152600f60209081526040808320600101548151634c4b206b60e01b815291519416938492634c4b206b9260048082019391829003018186803b15801561164757600080fd5b505afa15801561165b573d6000803e3d6000fd5b505050506040513d601f19601f8201168201806040525081019061167f9190612247565b604051634f558e7960e01b8152600481018690529091506001600160a01b03821690634f558e799060240160206040518083038186803b1580156116c257600080fd5b505afa1580156116d6573d6000803e3d6000fd5b505050506040513d601f19601f820116820180604052508101906116fa9190612376565b95945050505050565b60008281526020819052604090206001015461171f8133611d83565b6113798383611e6b565b6000611734836113fc565b604051638753367f60e01b8152600481018490529091506001600160a01b03821690638753367f90602401600060405180830381600087803b15801561177957600080fd5b505af115801561178d573d6000803e3d6000fd5b50505050505050565b6001546001600160a01b031633146117f05760405162461bcd60e51b815260206004820181905260248201527f4f776e61626c653a2063616c6c6572206973206e6f7420746865206f776e657260448201526064016105a3565b6001600160a01b0381166118555760405162461bcd60e51b815260206004820152602660248201527f4f776e61626c653a206e6577206f776e657220697320746865207a65726f206160448201526564647265737360d01b60648201526084016105a3565b61185e81611ed0565b50565b600061186c846113fc565b6040516260dfe560e71b81526004810185905290915081906000906001600160a01b0383169063306ff2809060240160206040518083038186803b1580156118b357600080fd5b505afa1580156118c7573d6000803e3d6000fd5b505050506040513d601f19601f820116820180604052508101906118eb91906123ae565b60405163019eee0960e41b815260048101879052602481018690523360448201529091506001600160a01b038316906319eee09090606401600060405180830381600087803b15801561193d57600080fd5b505af1158015611951573d6000803e3d6000fd5b5050604080516001600160a01b038a16815260208101899052908101849052606081018790527f40e9541ee89adfc7044a77557cd8350059f0a055e154407df3accf210b0116df9250608001905060405180910390a1505050505050565b6000604051733d602d80600a3d3981f3363d3d373d3d3d363d7360601b81528260601b60148201526e5af43d82803e903d91602b57fd5bf360881b60288201526037816000f09150506001600160a01b038116611a475760405162461bcd60e51b8152602060048201526016602482015275115490cc4c4d8dce8818dc99585d194819985a5b195960521b60448201526064016105a3565b919050565b6040805160608101825260008082526020820181905291810191909152600d54600090611a81906001600160a01b03166119af565b9050806001600160a01b0316634cd88b7687604051602001611aa39190612508565b60405160208183030381529060405287604051602001611ac391906124dd565b6040516020818303038152906040526040518363ffffffff1660e01b8152600401611aef929190612723565b600060405180830381600087803b158015611b0957600080fd5b505af1158015611b1d573d6000803e3d6000fd5b5050600e5460009250611b3991506001600160a01b03166119af565b9050806001600160a01b0316634cd88b7688604051602001611b5b9190612449565b60405160208183030381529060405288604051602001611b7b9190612598565b6040516020818303038152906040526040518363ffffffff1660e01b8152600401611ba7929190612723565b600060405180830381600087803b158015611bc157600080fd5b505af1158015611bd5573d6000803e3d6000fd5b5050600c5460009250611bf191506001600160a01b03166119af565b6040805160c0810182526009546001600160a01b039081168252868116602083015285811682840152600354811660608301819052608083015289811660a08301529151633d1743d560e11b815292935090831691637a2e87aa91611c58916004016126d6565b600060405180830381600087803b158015611c7257600080fd5b505af1158015611c86573d6000803e3d6000fd5b505060405163221b8a9560e11b81526001600160a01b03848116600483015286169250634437152a9150602401600060405180830381600087803b158015611ccd57600080fd5b505af1158015611ce1573d6000803e3d6000fd5b505060405163221b8a9560e11b81526001600160a01b03848116600483015285169250634437152a9150602401600060405180830381600087803b158015611d2857600080fd5b505af1158015611d3c573d6000803e3d6000fd5b505050506040518060600160405280846001600160a01b03168152602001836001600160a01b03168152602001826001600160a01b03168152509350505050949350505050565b611d8d828261155e565b6113f857611da5816001600160a01b03166014611f22565b611db0836020611f22565b604051602001611dc19291906125ec565b60408051601f198184030181529082905262461bcd60e51b82526105a391600401612710565b611df1828261155e565b6113f8576000828152602081815260408083206001600160a01b03851684529091529020805460ff19166001179055611e273390565b6001600160a01b0316816001600160a01b0316837f2f8788117e7eff1d82e926ec794901d17c78024a50270940304540a733656f0d60405160405180910390a45050565b611e75828261155e565b156113f8576000828152602081815260408083206001600160a01b0385168085529252808320805460ff1916905551339285917ff6391f5c32d9c69d2a47ea670b442974b53935d1edc7fd64eb21e047a839171b9190a45050565b600180546001600160a01b038381166001600160a01b0319831681179093556040519116919082907f8be0079c531659141344cd1fd0a4f28419497f9722a3daafe3b4186f6b6457e090600090a35050565b60606000611f3183600261281b565b611f3c906002612803565b67ffffffffffffffff811115611f6257634e487b7160e01b600052604160045260246000fd5b6040519080825280601f01601f191660200182016040528015611f8c576020820181803683370190505b509050600360fc1b81600081518110611fb557634e487b7160e01b600052603260045260246000fd5b60200101906001600160f81b031916908160001a905350600f60fb1b81600181518110611ff257634e487b7160e01b600052603260045260246000fd5b60200101906001600160f81b031916908160001a905350600061201684600261281b565b612021906001612803565b90505b60018111156120b5576f181899199a1a9b1b9c1cb0b131b232b360811b85600f166010811061206357634e487b7160e01b600052603260045260246000fd5b1a60f81b82828151811061208757634e487b7160e01b600052603260045260246000fd5b60200101906001600160f81b031916908160001a90535060049490941c936120ae8161286a565b9050612024565b5083156121045760405162461bcd60e51b815260206004820181905260248201527f537472696e67733a20686578206c656e67746820696e73756666696369656e7460448201526064016105a3565b9392505050565b82805461211790612881565b90600052602060002090601f016020900481019282612139576000855561217f565b82601f1061215257805160ff191683800117855561217f565b8280016001018555821561217f579182015b8281111561217f578251825591602001919060010190612164565b5061218b92915061218f565b5090565b5b8082111561218b5760008155600101612190565b600082601f8301126121b4578081fd5b813567ffffffffffffffff808211156121cf576121cf6128d2565b604051601f8301601f19908116603f011681019082821181831017156121f7576121f76128d2565b8160405283815286602085880101111561220f578485fd5b8360208701602083013792830160200193909352509392505050565b60006020828403121561223c578081fd5b8135612104816128e8565b600060208284031215612258578081fd5b8151612104816128e8565b60008060408385031215612275578081fd5b8235612280816128e8565b946020939093013593505050565b6000806000606084860312156122a2578081fd5b83356122ad816128e8565b95602085013595506040909401359392505050565b600080600080600080600060e0888a0312156122dc578283fd5b87356122e7816128e8565b9650602088013595506040880135945060608801359350608088013567ffffffffffffffff80821115612318578485fd5b6123248b838c016121a4565b945060a08a0135915080821115612339578384fd5b6123458b838c016121a4565b935060c08a013591508082111561235a578283fd5b506123678a828b016121a4565b91505092959891949750929550565b600060208284031215612387578081fd5b81518015158114612104578182fd5b6000602082840312156123a7578081fd5b5035919050565b6000602082840312156123bf578081fd5b5051919050565b600080604083850312156123d8578182fd5b8235915060208301356123ea816128e8565b809150509250929050565b600060208284031215612406578081fd5b81356001600160e01b031981168114612104578182fd5b6000815180845261243581602086016020860161283a565b601f01601f19169290920160200192915050565b7002837b9b4ba34b7b710233aba3ab932b99607d1b81526000825161247581601185016020870161283a565b9190910160110192915050565b690283934bb34902537ba160b51b8152600082516124a781600a85016020870161283a565b91909101600a0192915050565b600160fd1b8152600082516124d081600185016020870161283a565b9190910160010192915050565b624c465f60e81b8152600082516124fb81600385016020870161283a565b9190910160030192915050565b7102634b8bab4b234ba3c90233aba3ab932b9960751b81526000825161253581601285016020870161283a565b9190910160120192915050565b6270535f60e81b8152600082516124fb81600385016020870161283a565b6f0283934bb349029bcb73a3432ba34b1960851b81526000825161258b81601085016020870161283a565b9190910160100192915050565b6250465f60e81b8152600082516124fb81600385016020870161283a565b6d0283934bb34902537ba2837b7b6160951b8152600082516125df81600e85016020870161283a565b91909101600e0192915050565b7f416363657373436f6e74726f6c3a206163636f756e742000000000000000000081526000835161262481601785016020880161283a565b7001034b99036b4b9b9b4b733903937b6329607d1b601791840191820152835161265581602884016020880161283a565b01602801949350505050565b634a4f545f60e01b81526000825161268081600485016020870161283a565b9190910160040192915050565b6001600160a01b038581168252841660208201526080604082018190526000906126b99083018561241d565b82810360608401526126cb818561241d565b979650505050505050565b60c08101818360005b60068110156127075781516001600160a01b03168352602092830192909101906001016126df565b50505092915050565b602081526000612104602083018461241d565b604081526000612736604083018561241d565b82810360208401526116fa818561241d565b60608152600061275b606083018661241d565b828103602084015261276d818661241d565b91505060018060a01b0383166040830152949350505050565b608081526000612799608083018761241d565b82810360208401526127ab818761241d565b6001600160a01b03958616604085015293909416606090920191909152509392505050565b85815284602082015283604082015260018060a01b038316606082015260a0608082015260006126cb60a083018461241d565b60008219821115612816576128166128bc565b500190565b6000816000190483118215151615612835576128356128bc565b500290565b60005b8381101561285557818101518382015260200161283d565b83811115612864576000848401525b50505050565b600081612879576128796128bc565b506000190190565b600181811c9082168061289557607f821691505b602082108114156128b657634e487b7160e01b600052602260045260246000fd5b50919050565b634e487b7160e01b600052601160045260246000fd5b634e487b7160e01b600052604160045260246000fd5b6001600160a01b038116811461185e57600080fdfea2646970667358221220ec7455b474dfcb157958b4969863f66ca6176fb1c736eeeb0c07d970c973686b64736f6c63430008040033",
  "devdoc": {
    "kind": "dev",
    "methods": {
      "getRoleAdmin(bytes32)": {
        "details": "Returns the admin role that controls `role`. See {grantRole} and {revokeRole}. To change a role's admin, use {_setRoleAdmin}."
      },
      "grantRole(bytes32,address)": {
        "details": "Grants `role` to `account`. If `account` had not been already granted `role`, emits a {RoleGranted} event. Requirements: - the caller must have ``role``'s admin role."
      },
      "hasRole(bytes32,address)": {
        "details": "Returns `true` if `account` has been granted `role`."
      },
      "owner()": {
        "details": "Returns the address of the current owner."
      },
      "registerNFT(address,uint256,uint256,uint256,string,string,string)": {
        "params": {
          "collection": "the address of the synthetic collection",
          "originalName": "the original collection name",
          "originalSymbol": "the original collection symbol",
          "priceFraction": "the price for a fraction",
          "supplyToKeep": "supply to keep",
          "tokenId": "the token id"
        }
      },
      "renounceOwnership()": {
        "details": "Leaves the contract without owner. It will not be possible to call `onlyOwner` functions anymore. Can only be called by the current owner. NOTE: Renouncing ownership will leave the contract without an owner, thereby removing any functionality that is only available to the owner."
      },
      "renounceRole(bytes32,address)": {
        "details": "Revokes `role` from the calling account. Roles are often managed via {grantRole} and {revokeRole}: this function's purpose is to provide a mechanism for accounts to lose their privileges if they are compromised (such as when a trusted device is misplaced). If the calling account had been granted `role`, emits a {RoleRevoked} event. Requirements: - the caller must be `account`."
      },
      "revokeRole(bytes32,address)": {
        "details": "Revokes `role` from `account`. If `account` had been granted `role`, emits a {RoleRevoked} event. Requirements: - the caller must have ``role``'s admin role."
      },
      "supportsInterface(bytes4)": {
        "details": "See {IERC165-supportsInterface}."
      },
      "transferOwnership(address)": {
        "details": "Transfers ownership of the contract to a new account (`newOwner`). Can only be called by the current owner."
      }
    },
    "stateVariables": {
      "_collectionIdToAddress": {
        "details": "get collection address from ID"
      },
      "_collections": {
        "details": "collections map. collection address => collection data"
      },
      "_jot": {
        "details": "implementation addresses for proxies"
      }
    },
    "version": 1
  },
  "userdoc": {
    "kind": "user",
    "methods": {
      "changeNFT(address,uint256,uint256)": {
        "notice": "change an NFT for another one"
      },
      "getCollectionID(address)": {
        "notice": "get collection ID from collection address"
      },
      "getCollectionManagerAddress(address)": {
        "notice": "get collection manager address from collection address"
      },
      "getCollectionManagerAddressFromId(uint256)": {
        "notice": "get collection manager address from collection ID"
      },
      "getJotPoolAddress(address)": {
        "notice": "getter for Jot Pool Address of a collection"
      },
      "getJotsAddress(address)": {
        "notice": "getter for Jot Address of a collection"
      },
      "getOriginalCollectionAddress(uint256)": {
        "notice": "get collection address from collection ID"
      },
      "isNFTVerified(address,uint256)": {
        "notice": "checks whether a Synthetic has been verified or not"
      },
      "isSyntheticCollectionRegistered(address)": {
        "notice": "checks whether a collection is registered or not"
      },
      "isSyntheticNFTCreated(address,uint256)": {
        "notice": "checks whether a Synthetic NFT has been created for a given NFT or not"
      },
      "protocolVaults()": {
        "notice": "number of registered collections"
      },
      "registerNFT(address,uint256,uint256,uint256,string,string,string)": {
        "notice": "register an NFT collection"
      },
      "swapAddress()": {
        "notice": "QuickSwap address"
      },
      "verifyNFT(address,uint256)": {
        "notice": "verify a synthetic NFT"
      }
    },
    "version": 1
  },
  "storageLayout": {
    "storage": [
      {
        "astId": 2284,
        "contract": "contracts/polygon/SyntheticProtocolRouter.sol:SyntheticProtocolRouter",
        "label": "_roles",
        "offset": 0,
        "slot": "0",
        "type": "t_mapping(t_bytes32,t_struct(RoleData)2279_storage)"
      },
      {
        "astId": 2647,
        "contract": "contracts/polygon/SyntheticProtocolRouter.sol:SyntheticProtocolRouter",
        "label": "_owner",
        "offset": 0,
        "slot": "1",
        "type": "t_address"
      },
      {
        "astId": 16503,
        "contract": "contracts/polygon/SyntheticProtocolRouter.sol:SyntheticProtocolRouter",
        "label": "_jot",
        "offset": 0,
        "slot": "2",
        "type": "t_address"
      },
      {
        "astId": 16505,
        "contract": "contracts/polygon/SyntheticProtocolRouter.sol:SyntheticProtocolRouter",
        "label": "_jotPool",
        "offset": 0,
        "slot": "3",
        "type": "t_address"
      },
      {
        "astId": 16507,
        "contract": "contracts/polygon/SyntheticProtocolRouter.sol:SyntheticProtocolRouter",
        "label": "_collectionManager",
        "offset": 0,
        "slot": "4",
        "type": "t_address"
      },
      {
        "astId": 16509,
        "contract": "contracts/polygon/SyntheticProtocolRouter.sol:SyntheticProtocolRouter",
        "label": "_syntheticNFT",
        "offset": 0,
        "slot": "5",
        "type": "t_address"
      },
      {
        "astId": 16511,
        "contract": "contracts/polygon/SyntheticProtocolRouter.sol:SyntheticProtocolRouter",
        "label": "_auctionManager",
        "offset": 0,
        "slot": "6",
        "type": "t_address"
      },
      {
        "astId": 16513,
        "contract": "contracts/polygon/SyntheticProtocolRouter.sol:SyntheticProtocolRouter",
        "label": "_protocol",
        "offset": 0,
        "slot": "7",
        "type": "t_address"
      },
      {
        "astId": 16515,
        "contract": "contracts/polygon/SyntheticProtocolRouter.sol:SyntheticProtocolRouter",
        "label": "_futuresProtocol",
        "offset": 0,
        "slot": "8",
        "type": "t_address"
      },
      {
        "astId": 16517,
        "contract": "contracts/polygon/SyntheticProtocolRouter.sol:SyntheticProtocolRouter",
        "label": "_fundingTokenAddress",
        "offset": 0,
        "slot": "9",
        "type": "t_address"
      },
      {
        "astId": 16519,
        "contract": "contracts/polygon/SyntheticProtocolRouter.sol:SyntheticProtocolRouter",
        "label": "_randomConsumerAddress",
        "offset": 0,
        "slot": "10",
        "type": "t_address"
      },
      {
        "astId": 16521,
        "contract": "contracts/polygon/SyntheticProtocolRouter.sol:SyntheticProtocolRouter",
        "label": "_validatorAddress",
        "offset": 0,
        "slot": "11",
        "type": "t_address"
      },
      {
        "astId": 16523,
        "contract": "contracts/polygon/SyntheticProtocolRouter.sol:SyntheticProtocolRouter",
        "label": "_perpetualPoolLiteAddress",
        "offset": 0,
        "slot": "12",
        "type": "t_address"
      },
      {
        "astId": 16525,
        "contract": "contracts/polygon/SyntheticProtocolRouter.sol:SyntheticProtocolRouter",
        "label": "_lTokenLite",
        "offset": 0,
        "slot": "13",
        "type": "t_address"
      },
      {
        "astId": 16527,
        "contract": "contracts/polygon/SyntheticProtocolRouter.sol:SyntheticProtocolRouter",
        "label": "_pTokenLite",
        "offset": 0,
        "slot": "14",
        "type": "t_address"
      },
      {
        "astId": 16533,
        "contract": "contracts/polygon/SyntheticProtocolRouter.sol:SyntheticProtocolRouter",
        "label": "_collections",
        "offset": 0,
        "slot": "15",
        "type": "t_mapping(t_address,t_struct(SyntheticCollection)16460_storage)"
      },
      {
        "astId": 16538,
        "contract": "contracts/polygon/SyntheticProtocolRouter.sol:SyntheticProtocolRouter",
        "label": "_collectionIdToAddress",
        "offset": 0,
        "slot": "16",
        "type": "t_mapping(t_uint256,t_address)"
      },
      {
        "astId": 16542,
        "contract": "contracts/polygon/SyntheticProtocolRouter.sol:SyntheticProtocolRouter",
        "label": "protocolVaults",
        "offset": 0,
        "slot": "17",
        "type": "t_struct(Counter)8584_storage"
      },
      {
        "astId": 16545,
        "contract": "contracts/polygon/SyntheticProtocolRouter.sol:SyntheticProtocolRouter",
        "label": "swapAddress",
        "offset": 0,
        "slot": "18",
        "type": "t_address"
      }
    ],
    "types": {
      "t_address": {
        "encoding": "inplace",
        "label": "address",
        "numberOfBytes": "20"
      },
      "t_bool": {
        "encoding": "inplace",
        "label": "bool",
        "numberOfBytes": "1"
      },
      "t_bytes32": {
        "encoding": "inplace",
        "label": "bytes32",
        "numberOfBytes": "32"
      },
      "t_mapping(t_address,t_bool)": {
        "encoding": "mapping",
        "key": "t_address",
        "label": "mapping(address => bool)",
        "numberOfBytes": "32",
        "value": "t_bool"
      },
      "t_mapping(t_address,t_struct(SyntheticCollection)16460_storage)": {
        "encoding": "mapping",
        "key": "t_address",
        "label": "mapping(address => struct SyntheticCollection)",
        "numberOfBytes": "32",
        "value": "t_struct(SyntheticCollection)16460_storage"
      },
      "t_mapping(t_bytes32,t_struct(RoleData)2279_storage)": {
        "encoding": "mapping",
        "key": "t_bytes32",
        "label": "mapping(bytes32 => struct AccessControl.RoleData)",
        "numberOfBytes": "32",
        "value": "t_struct(RoleData)2279_storage"
      },
      "t_mapping(t_uint256,t_address)": {
        "encoding": "mapping",
        "key": "t_uint256",
        "label": "mapping(uint256 => address)",
        "numberOfBytes": "32",
        "value": "t_address"
      },
      "t_string_storage": {
        "encoding": "bytes",
        "label": "string",
        "numberOfBytes": "32"
      },
      "t_struct(Counter)8584_storage": {
        "encoding": "inplace",
        "label": "struct Counters.Counter",
        "members": [
          {
            "astId": 8583,
            "contract": "contracts/polygon/SyntheticProtocolRouter.sol:SyntheticProtocolRouter",
            "label": "_value",
            "offset": 0,
            "slot": "0",
            "type": "t_uint256"
          }
        ],
        "numberOfBytes": "32"
      },
      "t_struct(RoleData)2279_storage": {
        "encoding": "inplace",
        "label": "struct AccessControl.RoleData",
        "members": [
          {
            "astId": 2276,
            "contract": "contracts/polygon/SyntheticProtocolRouter.sol:SyntheticProtocolRouter",
            "label": "members",
            "offset": 0,
            "slot": "0",
            "type": "t_mapping(t_address,t_bool)"
          },
          {
            "astId": 2278,
            "contract": "contracts/polygon/SyntheticProtocolRouter.sol:SyntheticProtocolRouter",
            "label": "adminRole",
            "offset": 0,
            "slot": "1",
            "type": "t_bytes32"
          }
        ],
        "numberOfBytes": "64"
      },
      "t_struct(SyntheticCollection)16460_storage": {
        "encoding": "inplace",
        "label": "struct SyntheticCollection",
        "members": [
          {
            "astId": 16439,
            "contract": "contracts/polygon/SyntheticProtocolRouter.sol:SyntheticProtocolRouter",
            "label": "collectionID",
            "offset": 0,
            "slot": "0",
            "type": "t_uint256"
          },
          {
            "astId": 16441,
            "contract": "contracts/polygon/SyntheticProtocolRouter.sol:SyntheticProtocolRouter",
            "label": "collectionManagerAddress",
            "offset": 0,
            "slot": "1",
            "type": "t_address"
          },
          {
            "astId": 16443,
            "contract": "contracts/polygon/SyntheticProtocolRouter.sol:SyntheticProtocolRouter",
            "label": "jotAddress",
            "offset": 0,
            "slot": "2",
            "type": "t_address"
          },
          {
            "astId": 16445,
            "contract": "contracts/polygon/SyntheticProtocolRouter.sol:SyntheticProtocolRouter",
            "label": "jotPoolAddress",
            "offset": 0,
            "slot": "3",
            "type": "t_address"
          },
          {
            "astId": 16447,
            "contract": "contracts/polygon/SyntheticProtocolRouter.sol:SyntheticProtocolRouter",
            "label": "jotPairAddress",
            "offset": 0,
            "slot": "4",
            "type": "t_address"
          },
          {
            "astId": 16449,
            "contract": "contracts/polygon/SyntheticProtocolRouter.sol:SyntheticProtocolRouter",
            "label": "syntheticNFTAddress",
            "offset": 0,
            "slot": "5",
            "type": "t_address"
          },
          {
            "astId": 16451,
            "contract": "contracts/polygon/SyntheticProtocolRouter.sol:SyntheticProtocolRouter",
            "label": "originalName",
            "offset": 0,
            "slot": "6",
            "type": "t_string_storage"
          },
          {
            "astId": 16453,
            "contract": "contracts/polygon/SyntheticProtocolRouter.sol:SyntheticProtocolRouter",
            "label": "originalSymbol",
            "offset": 0,
            "slot": "7",
            "type": "t_string_storage"
          },
          {
            "astId": 16455,
            "contract": "contracts/polygon/SyntheticProtocolRouter.sol:SyntheticProtocolRouter",
            "label": "lTokenAddress",
            "offset": 0,
            "slot": "8",
            "type": "t_address"
          },
          {
            "astId": 16457,
            "contract": "contracts/polygon/SyntheticProtocolRouter.sol:SyntheticProtocolRouter",
            "label": "pTokenAddress",
            "offset": 0,
            "slot": "9",
            "type": "t_address"
          },
          {
            "astId": 16459,
            "contract": "contracts/polygon/SyntheticProtocolRouter.sol:SyntheticProtocolRouter",
            "label": "perpetualPoolLiteAddress",
            "offset": 0,
            "slot": "10",
            "type": "t_address"
          }
        ],
        "numberOfBytes": "352"
      },
      "t_uint256": {
        "encoding": "inplace",
        "label": "uint256",
        "numberOfBytes": "32"
      }
    }
  }
}