{
  "address": "0x15cC5745b2374510A99222a843bed116ad6Cd9D7",
  "abi": [
    {
      "inputs": [],
      "stateMutability": "nonpayable",
      "type": "constructor"
    },
    {
      "anonymous": false,
      "inputs": [
        {
          "indexed": true,
          "internalType": "address",
          "name": "owner",
          "type": "address"
        },
        {
          "indexed": true,
          "internalType": "address",
          "name": "approved",
          "type": "address"
        },
        {
          "indexed": true,
          "internalType": "uint256",
          "name": "tokenId",
          "type": "uint256"
        }
      ],
      "name": "Approval",
      "type": "event"
    },
    {
      "anonymous": false,
      "inputs": [
        {
          "indexed": true,
          "internalType": "address",
          "name": "owner",
          "type": "address"
        },
        {
          "indexed": true,
          "internalType": "address",
          "name": "operator",
          "type": "address"
        },
        {
          "indexed": false,
          "internalType": "bool",
          "name": "approved",
          "type": "bool"
        }
      ],
      "name": "ApprovalForAll",
      "type": "event"
    },
    {
      "anonymous": false,
      "inputs": [
        {
          "indexed": true,
          "internalType": "bytes32",
          "name": "role",
          "type": "bytes32"
        },
        {
          "indexed": true,
          "internalType": "bytes32",
          "name": "previousAdminRole",
          "type": "bytes32"
        },
        {
          "indexed": true,
          "internalType": "bytes32",
          "name": "newAdminRole",
          "type": "bytes32"
        }
      ],
      "name": "RoleAdminChanged",
      "type": "event"
    },
    {
      "anonymous": false,
      "inputs": [
        {
          "indexed": true,
          "internalType": "bytes32",
          "name": "role",
          "type": "bytes32"
        },
        {
          "indexed": true,
          "internalType": "address",
          "name": "account",
          "type": "address"
        },
        {
          "indexed": true,
          "internalType": "address",
          "name": "sender",
          "type": "address"
        }
      ],
      "name": "RoleGranted",
      "type": "event"
    },
    {
      "anonymous": false,
      "inputs": [
        {
          "indexed": true,
          "internalType": "bytes32",
          "name": "role",
          "type": "bytes32"
        },
        {
          "indexed": true,
          "internalType": "address",
          "name": "account",
          "type": "address"
        },
        {
          "indexed": true,
          "internalType": "address",
          "name": "sender",
          "type": "address"
        }
      ],
      "name": "RoleRevoked",
      "type": "event"
    },
    {
      "anonymous": false,
      "inputs": [
        {
          "indexed": true,
          "internalType": "address",
          "name": "from",
          "type": "address"
        },
        {
          "indexed": true,
          "internalType": "address",
          "name": "to",
          "type": "address"
        },
        {
          "indexed": true,
          "internalType": "uint256",
          "name": "tokenId",
          "type": "uint256"
        }
      ],
      "name": "Transfer",
      "type": "event"
    },
    {
      "inputs": [],
      "name": "DEFAULT_ADMIN_ROLE",
      "outputs": [
        {
          "internalType": "bytes32",
          "name": "",
          "type": "bytes32"
        }
      ],
      "stateMutability": "view",
      "type": "function"
    },
    {
      "inputs": [],
      "name": "MANAGER",
      "outputs": [
        {
          "internalType": "bytes32",
          "name": "",
          "type": "bytes32"
        }
      ],
      "stateMutability": "view",
      "type": "function"
    },
    {
      "inputs": [
        {
          "internalType": "address",
          "name": "to",
          "type": "address"
        },
        {
          "internalType": "uint256",
          "name": "tokenId",
          "type": "uint256"
        }
      ],
      "name": "approve",
      "outputs": [],
      "stateMutability": "nonpayable",
      "type": "function"
    },
    {
      "inputs": [
        {
          "internalType": "address",
          "name": "owner",
          "type": "address"
        }
      ],
      "name": "balanceOf",
      "outputs": [
        {
          "internalType": "uint256",
          "name": "",
          "type": "uint256"
        }
      ],
      "stateMutability": "view",
      "type": "function"
    },
    {
      "inputs": [
        {
          "internalType": "uint256",
          "name": "tokenId",
          "type": "uint256"
        }
      ],
      "name": "exists",
      "outputs": [
        {
          "internalType": "bool",
          "name": "",
          "type": "bool"
        }
      ],
      "stateMutability": "view",
      "type": "function"
    },
    {
      "inputs": [
        {
          "internalType": "uint256",
          "name": "tokenId",
          "type": "uint256"
        }
      ],
      "name": "getApproved",
      "outputs": [
        {
          "internalType": "address",
          "name": "",
          "type": "address"
        }
      ],
      "stateMutability": "view",
      "type": "function"
    },
    {
      "inputs": [
        {
          "internalType": "bytes32",
          "name": "role",
          "type": "bytes32"
        }
      ],
      "name": "getRoleAdmin",
      "outputs": [
        {
          "internalType": "bytes32",
          "name": "",
          "type": "bytes32"
        }
      ],
      "stateMutability": "view",
      "type": "function"
    },
    {
      "inputs": [
        {
          "internalType": "bytes32",
          "name": "role",
          "type": "bytes32"
        },
        {
          "internalType": "address",
          "name": "account",
          "type": "address"
        }
      ],
      "name": "grantRole",
      "outputs": [],
      "stateMutability": "nonpayable",
      "type": "function"
    },
    {
      "inputs": [
        {
          "internalType": "bytes32",
          "name": "role",
          "type": "bytes32"
        },
        {
          "internalType": "address",
          "name": "account",
          "type": "address"
        }
      ],
      "name": "hasRole",
      "outputs": [
        {
          "internalType": "bool",
          "name": "",
          "type": "bool"
        }
      ],
      "stateMutability": "view",
      "type": "function"
    },
    {
      "inputs": [
        {
          "internalType": "string",
          "name": "name_",
          "type": "string"
        },
        {
          "internalType": "string",
          "name": "symbol_",
          "type": "string"
        },
        {
          "internalType": "address",
          "name": "collectionManager_",
          "type": "address"
        }
      ],
      "name": "initialize",
      "outputs": [],
      "stateMutability": "nonpayable",
      "type": "function"
    },
    {
      "inputs": [
        {
          "internalType": "address",
          "name": "owner",
          "type": "address"
        },
        {
          "internalType": "address",
          "name": "operator",
          "type": "address"
        }
      ],
      "name": "isApprovedForAll",
      "outputs": [
        {
          "internalType": "bool",
          "name": "",
          "type": "bool"
        }
      ],
      "stateMutability": "view",
      "type": "function"
    },
    {
      "inputs": [],
      "name": "name",
      "outputs": [
        {
          "internalType": "string",
          "name": "",
          "type": "string"
        }
      ],
      "stateMutability": "view",
      "type": "function"
    },
    {
      "inputs": [
        {
          "internalType": "uint256",
          "name": "tokenId",
          "type": "uint256"
        }
      ],
      "name": "ownerOf",
      "outputs": [
        {
          "internalType": "address",
          "name": "",
          "type": "address"
        }
      ],
      "stateMutability": "view",
      "type": "function"
    },
    {
      "inputs": [
        {
          "internalType": "bytes32",
          "name": "role",
          "type": "bytes32"
        },
        {
          "internalType": "address",
          "name": "account",
          "type": "address"
        }
      ],
      "name": "renounceRole",
      "outputs": [],
      "stateMutability": "nonpayable",
      "type": "function"
    },
    {
      "inputs": [
        {
          "internalType": "bytes32",
          "name": "role",
          "type": "bytes32"
        },
        {
          "internalType": "address",
          "name": "account",
          "type": "address"
        }
      ],
      "name": "revokeRole",
      "outputs": [],
      "stateMutability": "nonpayable",
      "type": "function"
    },
    {
      "inputs": [
        {
          "internalType": "uint256",
          "name": "tokenId",
          "type": "uint256"
        }
      ],
      "name": "safeBurn",
      "outputs": [],
      "stateMutability": "nonpayable",
      "type": "function"
    },
    {
      "inputs": [
        {
          "internalType": "address",
          "name": "to",
          "type": "address"
        },
        {
          "internalType": "uint256",
          "name": "tokenId",
          "type": "uint256"
        },
        {
          "internalType": "string",
          "name": "metadata",
          "type": "string"
        }
      ],
      "name": "safeMint",
      "outputs": [],
      "stateMutability": "nonpayable",
      "type": "function"
    },
    {
      "inputs": [
        {
          "internalType": "address",
          "name": "from",
          "type": "address"
        },
        {
          "internalType": "address",
          "name": "to",
          "type": "address"
        },
        {
          "internalType": "uint256",
          "name": "tokenId",
          "type": "uint256"
        }
      ],
      "name": "safeTransferFrom",
      "outputs": [],
      "stateMutability": "nonpayable",
      "type": "function"
    },
    {
      "inputs": [
        {
          "internalType": "address",
          "name": "from",
          "type": "address"
        },
        {
          "internalType": "address",
          "name": "to",
          "type": "address"
        },
        {
          "internalType": "uint256",
          "name": "tokenId",
          "type": "uint256"
        },
        {
          "internalType": "bytes",
          "name": "_data",
          "type": "bytes"
        }
      ],
      "name": "safeTransferFrom",
      "outputs": [],
      "stateMutability": "nonpayable",
      "type": "function"
    },
    {
      "inputs": [
        {
          "internalType": "address",
          "name": "operator",
          "type": "address"
        },
        {
          "internalType": "bool",
          "name": "approved",
          "type": "bool"
        }
      ],
      "name": "setApprovalForAll",
      "outputs": [],
      "stateMutability": "nonpayable",
      "type": "function"
    },
    {
      "inputs": [
        {
          "internalType": "bytes4",
          "name": "interfaceId",
          "type": "bytes4"
        }
      ],
      "name": "supportsInterface",
      "outputs": [
        {
          "internalType": "bool",
          "name": "",
          "type": "bool"
        }
      ],
      "stateMutability": "view",
      "type": "function"
    },
    {
      "inputs": [],
      "name": "symbol",
      "outputs": [
        {
          "internalType": "string",
          "name": "",
          "type": "string"
        }
      ],
      "stateMutability": "view",
      "type": "function"
    },
    {
      "inputs": [
        {
          "internalType": "uint256",
          "name": "tokenId",
          "type": "uint256"
        }
      ],
      "name": "tokenURI",
      "outputs": [
        {
          "internalType": "string",
          "name": "",
          "type": "string"
        }
      ],
      "stateMutability": "view",
      "type": "function"
    },
    {
      "inputs": [
        {
          "internalType": "address",
          "name": "from",
          "type": "address"
        },
        {
          "internalType": "address",
          "name": "to",
          "type": "address"
        },
        {
          "internalType": "uint256",
          "name": "tokenId",
          "type": "uint256"
        }
      ],
      "name": "transferFrom",
      "outputs": [],
      "stateMutability": "nonpayable",
      "type": "function"
    }
  ],
  "transactionHash": "0x10d7747abdd3f4904384e2ac23ebce59fca513da6022482e2b3114f2f9777dae",
  "args": [],
  "solcInputHash": "b678ce448aaf9d1f33edf54bd5af6af5",
  "bytecode": "0x60806040523480156200001157600080fd5b50604080518082018252601681527f507269766920436f6c6c656374696f6e20546f6b656e000000000000000000006020808301918252835180850190945260038452621410d560ea1b908401528151919291620000729160009162000091565b5080516200008890600190602084019062000091565b50505062000174565b8280546200009f9062000137565b90600052602060002090601f016020900481019282620000c357600085556200010e565b82601f10620000de57805160ff19168380011785556200010e565b828001600101855582156200010e579182015b828111156200010e578251825591602001919060010190620000f1565b506200011c92915062000120565b5090565b5b808211156200011c576000815560010162000121565b600181811c908216806200014c57607f821691505b602082108114156200016e57634e487b7160e01b600052602260045260246000fd5b50919050565b611dce80620001846000396000f3fe608060405234801561001057600080fd5b50600436106101585760003560e01c80636352211e116100c3578063b88d4fde1161007c578063b88d4fde146102ee578063c87b56dd14610301578063cd279c7c14610314578063d547741f14610327578063dbf513251461033a578063e985e9c51461034d57600080fd5b80636352211e1461029257806370a08231146102a557806391d14854146102b857806395d89b41146102cb578063a217fddf146102d3578063a22cb465146102db57600080fd5b806323b872dd1161011557806323b872dd14610210578063248a9ca3146102235780632f2ff15d1461024657806336568abe1461025957806342842e0e1461026c5780634f558e791461027f57600080fd5b806301ffc9a71461015d57806306fdde0314610185578063077f224a1461019a578063081812fc146101af578063095ea7b3146101da5780631b2df850146101ed575b600080fd5b61017061016b366004611a1c565b610389565b60405190151581526020015b60405180910390f35b61018d61039a565b60405161017c9190611ba3565b6101ad6101a8366004611a54565b61042c565b005b6101c26101bd3660046119e2565b610542565b6040516001600160a01b03909116815260200161017c565b6101ad6101e8366004611948565b6105d7565b610202600080516020611d7983398151915281565b60405190815260200161017c565b6101ad61021e36600461185e565b6106ed565b6102026102313660046119e2565b60009081526007602052604090206001015490565b6101ad6102543660046119fa565b61071e565b6101ad6102673660046119fa565b610744565b6101ad61027a36600461185e565b6107c2565b61017061028d3660046119e2565b6107dd565b6101c26102a03660046119e2565b6107fc565b6102026102b3366004611812565b610873565b6101706102c63660046119fa565b6108fa565b61018d610925565b610202600081565b6101ad6102e9366004611912565b610934565b6101ad6102fc366004611899565b6109f9565b61018d61030f3660046119e2565b610a2b565b6101ad610322366004611971565b610b48565b6101ad6103353660046119fa565b610b91565b6101ad6103483660046119e2565b610bb7565b61017061035b36600461182c565b6001600160a01b03918216600090815260056020908152604080832093909416825291909152205460ff1690565b600061039482610c01565b92915050565b6060600980546103a990611cea565b80601f01602080910402602001604051908101604052809291908181526020018280546103d590611cea565b80156104225780601f106103f757610100808354040283529160200191610422565b820191906000526020600020905b81548152906001019060200180831161040557829003601f168201915b5050505050905090565b600654610100900460ff1680610445575060065460ff16155b6104ad5760405162461bcd60e51b815260206004820152602e60248201527f496e697469616c697a61626c653a20636f6e747261637420697320616c72656160448201526d191e481a5b9a5d1a585b1a5e995960921b60648201526084015b60405180910390fd5b600654610100900460ff161580156104cf576006805461ffff19166101011790555b83516104e29060099060208701906116c8565b5082516104f690600a9060208601906116c8565b50600b80546001600160a01b0319166001600160a01b03841617905561052a600080516020611d7983398151915283610c26565b801561053c576006805461ff00191690555b50505050565b6000818152600260205260408120546001600160a01b03166105bb5760405162461bcd60e51b815260206004820152602c60248201527f4552433732313a20617070726f76656420717565727920666f72206e6f6e657860448201526b34b9ba32b73a103a37b5b2b760a11b60648201526084016104a4565b506000908152600460205260409020546001600160a01b031690565b60006105e2826107fc565b9050806001600160a01b0316836001600160a01b031614156106505760405162461bcd60e51b815260206004820152602160248201527f4552433732313a20617070726f76616c20746f2063757272656e74206f776e656044820152603960f91b60648201526084016104a4565b336001600160a01b038216148061066c575061066c813361035b565b6106de5760405162461bcd60e51b815260206004820152603860248201527f4552433732313a20617070726f76652063616c6c6572206973206e6f74206f7760448201527f6e6572206e6f7220617070726f76656420666f7220616c6c000000000000000060648201526084016104a4565b6106e88383610c30565b505050565b6106f73382610c9e565b6107135760405162461bcd60e51b81526004016104a490611c08565b6106e8838383610d95565b60008281526007602052604090206001015461073a8133610f40565b6106e88383610fa4565b6001600160a01b03811633146107b45760405162461bcd60e51b815260206004820152602f60248201527f416363657373436f6e74726f6c3a2063616e206f6e6c792072656e6f756e636560448201526e103937b632b9903337b91039b2b63360891b60648201526084016104a4565b6107be828261102a565b5050565b6106e8838383604051806020016040528060008152506109f9565b6000818152600260205260408120546001600160a01b03161515610394565b6000818152600260205260408120546001600160a01b0316806103945760405162461bcd60e51b815260206004820152602960248201527f4552433732313a206f776e657220717565727920666f72206e6f6e657869737460448201526832b73a103a37b5b2b760b91b60648201526084016104a4565b60006001600160a01b0382166108de5760405162461bcd60e51b815260206004820152602a60248201527f4552433732313a2062616c616e636520717565727920666f7220746865207a65604482015269726f206164647265737360b01b60648201526084016104a4565b506001600160a01b031660009081526003602052604090205490565b60009182526007602090815260408084206001600160a01b0393909316845291905290205460ff1690565b6060600a80546103a990611cea565b6001600160a01b03821633141561098d5760405162461bcd60e51b815260206004820152601960248201527f4552433732313a20617070726f766520746f2063616c6c65720000000000000060448201526064016104a4565b3360008181526005602090815260408083206001600160a01b03871680855290835292819020805460ff191686151590811790915590519081529192917f17307eab39ab6107e8899845ad3d59bd9653f200f220920489ca2b5937696c31910160405180910390a35050565b610a033383610c9e565b610a1f5760405162461bcd60e51b81526004016104a490611c08565b61053c84848484611091565b6000818152600260205260409020546060906001600160a01b0316610aaa5760405162461bcd60e51b815260206004820152602f60248201527f4552433732314d657461646174613a2055524920717565727920666f72206e6f60448201526e3732bc34b9ba32b73a103a37b5b2b760891b60648201526084016104a4565b60008281526008602052604090208054610ac390611cea565b80601f0160208091040260200160405190810160405280929190818152602001828054610aef90611cea565b8015610b3c5780601f10610b1157610100808354040283529160200191610b3c565b820191906000526020600020905b815481529060010190602001808311610b1f57829003601f168201915b50505050509050919050565b600080516020611d79833981519152610b618133610f40565b610b6b84846110c4565b60008381526008602090815260409091208351610b8a928501906116c8565b5050505050565b600082815260076020526040902060010154610bad8133610f40565b6106e8838361102a565b600080516020611d79833981519152610bd08133610f40565b610bd982611212565b6040805160208082018084526000808452868152600890925292902090516106e892906116c8565b60006001600160e01b03198216637965db0b60e01b14806103945750610394826112b9565b6107be8282610fa4565b600081815260046020526040902080546001600160a01b0319166001600160a01b0384169081179091558190610c65826107fc565b6001600160a01b03167f8c5be1e5ebec7d5bd14f71427d1e84f3dd0314c0f7b2291e5b200ac8c7c3b92560405160405180910390a45050565b6000818152600260205260408120546001600160a01b0316610d175760405162461bcd60e51b815260206004820152602c60248201527f4552433732313a206f70657261746f7220717565727920666f72206e6f6e657860448201526b34b9ba32b73a103a37b5b2b760a11b60648201526084016104a4565b6000610d22836107fc565b9050806001600160a01b0316846001600160a01b03161480610d5d5750836001600160a01b0316610d5284610542565b6001600160a01b0316145b80610d8d57506001600160a01b0380821660009081526005602090815260408083209388168352929052205460ff165b949350505050565b826001600160a01b0316610da8826107fc565b6001600160a01b031614610e105760405162461bcd60e51b815260206004820152602960248201527f4552433732313a207472616e73666572206f6620746f6b656e2074686174206960448201526839903737ba1037bbb760b91b60648201526084016104a4565b6001600160a01b038216610e725760405162461bcd60e51b8152602060048201526024808201527f4552433732313a207472616e7366657220746f20746865207a65726f206164646044820152637265737360e01b60648201526084016104a4565b610e7d838383611309565b610e88600082610c30565b6001600160a01b0383166000908152600360205260408120805460019290610eb1908490611c90565b90915550506001600160a01b0382166000908152600360205260408120805460019290610edf908490611c59565b909155505060008181526002602052604080822080546001600160a01b0319166001600160a01b0386811691821790925591518493918716917fddf252ad1be2c89b69c2b068fc378daa952ba7f163c4a11628f55a4df523b3ef91a4505050565b610f4a82826108fa565b6107be57610f62816001600160a01b031660146113d2565b610f6d8360206113d2565b604051602001610f7e929190611af1565b60408051601f198184030181529082905262461bcd60e51b82526104a491600401611ba3565b610fae82826108fa565b6107be5760008281526007602090815260408083206001600160a01b03851684529091529020805460ff19166001179055610fe63390565b6001600160a01b0316816001600160a01b0316837f2f8788117e7eff1d82e926ec794901d17c78024a50270940304540a733656f0d60405160405180910390a45050565b61103482826108fa565b156107be5760008281526007602090815260408083206001600160a01b0385168085529252808320805460ff1916905551339285917ff6391f5c32d9c69d2a47ea670b442974b53935d1edc7fd64eb21e047a839171b9190a45050565b61109c848484610d95565b6110a8848484846115bb565b61053c5760405162461bcd60e51b81526004016104a490611bb6565b6001600160a01b03821661111a5760405162461bcd60e51b815260206004820181905260248201527f4552433732313a206d696e7420746f20746865207a65726f206164647265737360448201526064016104a4565b6000818152600260205260409020546001600160a01b03161561117f5760405162461bcd60e51b815260206004820152601c60248201527f4552433732313a20746f6b656e20616c7265616479206d696e7465640000000060448201526064016104a4565b61118b60008383611309565b6001600160a01b03821660009081526003602052604081208054600192906111b4908490611c59565b909155505060008181526002602052604080822080546001600160a01b0319166001600160a01b03861690811790915590518392907fddf252ad1be2c89b69c2b068fc378daa952ba7f163c4a11628f55a4df523b3ef908290a45050565b600061121d826107fc565b905061122b81600084611309565b611236600083610c30565b6001600160a01b038116600090815260036020526040812080546001929061125f908490611c90565b909155505060008281526002602052604080822080546001600160a01b0319169055518391906001600160a01b038416907fddf252ad1be2c89b69c2b068fc378daa952ba7f163c4a11628f55a4df523b3ef908390a45050565b60006001600160e01b031982166380ac58cd60e01b14806112ea57506001600160e01b03198216635b5e139f60e01b145b8061039457506301ffc9a760e01b6001600160e01b0319831614610394565b600b5460405163945633c160e01b8152600481018390526001600160a01b039091169063945633c19060240160206040518083038186803b15801561134d57600080fd5b505afa158015611361573d6000803e3d6000fd5b505050506040513d601f19601f8201168201806040525081019061138591906119c6565b156106e85760405162461bcd60e51b815260206004820152601f60248201527f546f6b656e206973206c6f636b656420616e642061756374696f6e61626c650060448201526064016104a4565b606060006113e1836002611c71565b6113ec906002611c59565b67ffffffffffffffff81111561141257634e487b7160e01b600052604160045260246000fd5b6040519080825280601f01601f19166020018201604052801561143c576020820181803683370190505b509050600360fc1b8160008151811061146557634e487b7160e01b600052603260045260246000fd5b60200101906001600160f81b031916908160001a905350600f60fb1b816001815181106114a257634e487b7160e01b600052603260045260246000fd5b60200101906001600160f81b031916908160001a90535060006114c6846002611c71565b6114d1906001611c59565b90505b6001811115611565576f181899199a1a9b1b9c1cb0b131b232b360811b85600f166010811061151357634e487b7160e01b600052603260045260246000fd5b1a60f81b82828151811061153757634e487b7160e01b600052603260045260246000fd5b60200101906001600160f81b031916908160001a90535060049490941c9361155e81611cd3565b90506114d4565b5083156115b45760405162461bcd60e51b815260206004820181905260248201527f537472696e67733a20686578206c656e67746820696e73756666696369656e7460448201526064016104a4565b9392505050565b60006001600160a01b0384163b156116bd57604051630a85bd0160e11b81526001600160a01b0385169063150b7a02906115ff903390899088908890600401611b66565b602060405180830381600087803b15801561161957600080fd5b505af1925050508015611649575060408051601f3d908101601f1916820190925261164691810190611a38565b60015b6116a3573d808015611677576040519150601f19603f3d011682016040523d82523d6000602084013e61167c565b606091505b50805161169b5760405162461bcd60e51b81526004016104a490611bb6565b805181602001fd5b6001600160e01b031916630a85bd0160e11b149050610d8d565b506001949350505050565b8280546116d490611cea565b90600052602060002090601f0160209004810192826116f6576000855561173c565b82601f1061170f57805160ff191683800117855561173c565b8280016001018555821561173c579182015b8281111561173c578251825591602001919060010190611721565b5061174892915061174c565b5090565b5b80821115611748576000815560010161174d565b600067ffffffffffffffff8084111561177c5761177c611d3b565b604051601f8501601f19908116603f011681019082821181831017156117a4576117a4611d3b565b816040528093508581528686860111156117bd57600080fd5b858560208301376000602087830101525050509392505050565b80356001600160a01b03811681146117ee57600080fd5b919050565b600082601f830112611803578081fd5b6115b483833560208501611761565b600060208284031215611823578081fd5b6115b4826117d7565b6000806040838503121561183e578081fd5b611847836117d7565b9150611855602084016117d7565b90509250929050565b600080600060608486031215611872578081fd5b61187b846117d7565b9250611889602085016117d7565b9150604084013590509250925092565b600080600080608085870312156118ae578081fd5b6118b7856117d7565b93506118c5602086016117d7565b925060408501359150606085013567ffffffffffffffff8111156118e7578182fd5b8501601f810187136118f7578182fd5b61190687823560208401611761565b91505092959194509250565b60008060408385031215611924578182fd5b61192d836117d7565b9150602083013561193d81611d51565b809150509250929050565b6000806040838503121561195a578182fd5b611963836117d7565b946020939093013593505050565b600080600060608486031215611985578283fd5b61198e846117d7565b925060208401359150604084013567ffffffffffffffff8111156119b0578182fd5b6119bc868287016117f3565b9150509250925092565b6000602082840312156119d7578081fd5b81516115b481611d51565b6000602082840312156119f3578081fd5b5035919050565b60008060408385031215611a0c578182fd5b82359150611855602084016117d7565b600060208284031215611a2d578081fd5b81356115b481611d62565b600060208284031215611a49578081fd5b81516115b481611d62565b600080600060608486031215611a68578081fd5b833567ffffffffffffffff80821115611a7f578283fd5b611a8b878388016117f3565b94506020860135915080821115611aa0578283fd5b50611aad868287016117f3565b925050611abc604085016117d7565b90509250925092565b60008151808452611add816020860160208601611ca7565b601f01601f19169290920160200192915050565b7f416363657373436f6e74726f6c3a206163636f756e7420000000000000000000815260008351611b29816017850160208801611ca7565b7001034b99036b4b9b9b4b733903937b6329607d1b6017918401918201528351611b5a816028840160208801611ca7565b01602801949350505050565b6001600160a01b0385811682528416602082015260408101839052608060608201819052600090611b9990830184611ac5565b9695505050505050565b6020815260006115b46020830184611ac5565b60208082526032908201527f4552433732313a207472616e7366657220746f206e6f6e20455243373231526560408201527131b2b4bb32b91034b6b83632b6b2b73a32b960711b606082015260800190565b60208082526031908201527f4552433732313a207472616e736665722063616c6c6572206973206e6f74206f6040820152701ddb995c881b9bdc88185c1c1c9bdd9959607a1b606082015260800190565b60008219821115611c6c57611c6c611d25565b500190565b6000816000190483118215151615611c8b57611c8b611d25565b500290565b600082821015611ca257611ca2611d25565b500390565b60005b83811015611cc2578181015183820152602001611caa565b8381111561053c5750506000910152565b600081611ce257611ce2611d25565b506000190190565b600181811c90821680611cfe57607f821691505b60208210811415611d1f57634e487b7160e01b600052602260045260246000fd5b50919050565b634e487b7160e01b600052601160045260246000fd5b634e487b7160e01b600052604160045260246000fd5b8015158114611d5f57600080fd5b50565b6001600160e01b031981168114611d5f57600080fdfeaf290d8680820aad922855f39b306097b20e28774d6c1ad35a20325630c3a02ca26469706673582212200b5a279db8be044349eda987c18125cbdec3f4cb65f919c622182b95182c2cd764736f6c63430008040033",
  "devdoc": {
    "kind": "dev",
    "methods": {
      "approve(address,uint256)": {
        "details": "See {IERC721-approve}."
      },
      "balanceOf(address)": {
        "details": "See {IERC721-balanceOf}."
      },
      "getApproved(uint256)": {
        "details": "See {IERC721-getApproved}."
      },
      "getRoleAdmin(bytes32)": {
        "details": "Returns the admin role that controls `role`. See {grantRole} and {revokeRole}. To change a role's admin, use {_setRoleAdmin}."
      },
      "grantRole(bytes32,address)": {
        "details": "Grants `role` to `account`. If `account` had not been already granted `role`, emits a {RoleGranted} event. Requirements: - the caller must have ``role``'s admin role."
      },
      "hasRole(bytes32,address)": {
        "details": "Returns `true` if `account` has been granted `role`."
      },
      "isApprovedForAll(address,address)": {
        "details": "See {IERC721-isApprovedForAll}."
      },
      "name()": {
        "details": "See {IERC721Metadata-name}."
      },
      "ownerOf(uint256)": {
        "details": "See {IERC721-ownerOf}."
      },
      "renounceRole(bytes32,address)": {
        "details": "Revokes `role` from the calling account. Roles are often managed via {grantRole} and {revokeRole}: this function's purpose is to provide a mechanism for accounts to lose their privileges if they are compromised (such as when a trusted device is misplaced). If the calling account had been granted `role`, emits a {RoleRevoked} event. Requirements: - the caller must be `account`."
      },
      "revokeRole(bytes32,address)": {
        "details": "Revokes `role` from `account`. If `account` had been granted `role`, emits a {RoleRevoked} event. Requirements: - the caller must have ``role``'s admin role."
      },
      "safeTransferFrom(address,address,uint256)": {
        "details": "See {IERC721-safeTransferFrom}."
      },
      "safeTransferFrom(address,address,uint256,bytes)": {
        "details": "See {IERC721-safeTransferFrom}."
      },
      "setApprovalForAll(address,bool)": {
        "details": "See {IERC721-setApprovalForAll}."
      },
      "symbol()": {
        "details": "See {IERC721Metadata-symbol}."
      },
      "tokenURI(uint256)": {
        "details": "See {IERC721Metadata-tokenURI}."
      },
      "transferFrom(address,address,uint256)": {
        "details": "See {IERC721-transferFrom}."
      }
    },
    "version": 1
  },
  "userdoc": {
    "kind": "user",
    "methods": {},
    "version": 1
  },
  "storageLayout": {
    "storage": [
      {
        "astId": 5252,
        "contract": "contracts/polygon/implementations/SyntheticNFT.sol:SyntheticNFT",
        "label": "_name",
        "offset": 0,
        "slot": "0",
        "type": "t_string_storage"
      },
      {
        "astId": 5254,
        "contract": "contracts/polygon/implementations/SyntheticNFT.sol:SyntheticNFT",
        "label": "_symbol",
        "offset": 0,
        "slot": "1",
        "type": "t_string_storage"
      },
      {
        "astId": 5258,
        "contract": "contracts/polygon/implementations/SyntheticNFT.sol:SyntheticNFT",
        "label": "_owners",
        "offset": 0,
        "slot": "2",
        "type": "t_mapping(t_uint256,t_address)"
      },
      {
        "astId": 5262,
        "contract": "contracts/polygon/implementations/SyntheticNFT.sol:SyntheticNFT",
        "label": "_balances",
        "offset": 0,
        "slot": "3",
        "type": "t_mapping(t_address,t_uint256)"
      },
      {
        "astId": 5266,
        "contract": "contracts/polygon/implementations/SyntheticNFT.sol:SyntheticNFT",
        "label": "_tokenApprovals",
        "offset": 0,
        "slot": "4",
        "type": "t_mapping(t_uint256,t_address)"
      },
      {
        "astId": 5272,
        "contract": "contracts/polygon/implementations/SyntheticNFT.sol:SyntheticNFT",
        "label": "_operatorApprovals",
        "offset": 0,
        "slot": "5",
        "type": "t_mapping(t_address,t_mapping(t_address,t_bool))"
      },
      {
        "astId": 3462,
        "contract": "contracts/polygon/implementations/SyntheticNFT.sol:SyntheticNFT",
        "label": "_initialized",
        "offset": 0,
        "slot": "6",
        "type": "t_bool"
      },
      {
        "astId": 3465,
        "contract": "contracts/polygon/implementations/SyntheticNFT.sol:SyntheticNFT",
        "label": "_initializing",
        "offset": 1,
        "slot": "6",
        "type": "t_bool"
      },
      {
        "astId": 290,
        "contract": "contracts/polygon/implementations/SyntheticNFT.sol:SyntheticNFT",
        "label": "_roles",
        "offset": 0,
        "slot": "7",
        "type": "t_mapping(t_bytes32,t_struct(RoleData)285_storage)"
      },
      {
        "astId": 13017,
        "contract": "contracts/polygon/implementations/SyntheticNFT.sol:SyntheticNFT",
        "label": "_tokenMetadata",
        "offset": 0,
        "slot": "8",
        "type": "t_mapping(t_uint256,t_string_storage)"
      },
      {
        "astId": 13019,
        "contract": "contracts/polygon/implementations/SyntheticNFT.sol:SyntheticNFT",
        "label": "_proxiedName",
        "offset": 0,
        "slot": "9",
        "type": "t_string_storage"
      },
      {
        "astId": 13021,
        "contract": "contracts/polygon/implementations/SyntheticNFT.sol:SyntheticNFT",
        "label": "_proxiedSymbol",
        "offset": 0,
        "slot": "10",
        "type": "t_string_storage"
      },
      {
        "astId": 13023,
        "contract": "contracts/polygon/implementations/SyntheticNFT.sol:SyntheticNFT",
        "label": "_collectionManager",
        "offset": 0,
        "slot": "11",
        "type": "t_address"
      }
    ],
    "types": {
      "t_address": {
        "encoding": "inplace",
        "label": "address",
        "numberOfBytes": "20"
      },
      "t_bool": {
        "encoding": "inplace",
        "label": "bool",
        "numberOfBytes": "1"
      },
      "t_bytes32": {
        "encoding": "inplace",
        "label": "bytes32",
        "numberOfBytes": "32"
      },
      "t_mapping(t_address,t_bool)": {
        "encoding": "mapping",
        "key": "t_address",
        "label": "mapping(address => bool)",
        "numberOfBytes": "32",
        "value": "t_bool"
      },
      "t_mapping(t_address,t_mapping(t_address,t_bool))": {
        "encoding": "mapping",
        "key": "t_address",
        "label": "mapping(address => mapping(address => bool))",
        "numberOfBytes": "32",
        "value": "t_mapping(t_address,t_bool)"
      },
      "t_mapping(t_address,t_uint256)": {
        "encoding": "mapping",
        "key": "t_address",
        "label": "mapping(address => uint256)",
        "numberOfBytes": "32",
        "value": "t_uint256"
      },
      "t_mapping(t_bytes32,t_struct(RoleData)285_storage)": {
        "encoding": "mapping",
        "key": "t_bytes32",
        "label": "mapping(bytes32 => struct AccessControl.RoleData)",
        "numberOfBytes": "32",
        "value": "t_struct(RoleData)285_storage"
      },
      "t_mapping(t_uint256,t_address)": {
        "encoding": "mapping",
        "key": "t_uint256",
        "label": "mapping(uint256 => address)",
        "numberOfBytes": "32",
        "value": "t_address"
      },
      "t_mapping(t_uint256,t_string_storage)": {
        "encoding": "mapping",
        "key": "t_uint256",
        "label": "mapping(uint256 => string)",
        "numberOfBytes": "32",
        "value": "t_string_storage"
      },
      "t_string_storage": {
        "encoding": "bytes",
        "label": "string",
        "numberOfBytes": "32"
      },
      "t_struct(RoleData)285_storage": {
        "encoding": "inplace",
        "label": "struct AccessControl.RoleData",
        "members": [
          {
            "astId": 282,
            "contract": "contracts/polygon/implementations/SyntheticNFT.sol:SyntheticNFT",
            "label": "members",
            "offset": 0,
            "slot": "0",
            "type": "t_mapping(t_address,t_bool)"
          },
          {
            "astId": 284,
            "contract": "contracts/polygon/implementations/SyntheticNFT.sol:SyntheticNFT",
            "label": "adminRole",
            "offset": 0,
            "slot": "1",
            "type": "t_bytes32"
          }
        ],
        "numberOfBytes": "64"
      },
      "t_uint256": {
        "encoding": "inplace",
        "label": "uint256",
        "numberOfBytes": "32"
      }
    }
  }
}