{
  "address": "0x43Ea42C8E69b74d96cf857679474f55013AcAAF0",
  "abi": [
    {
      "inputs": [
        {
          "internalType": "address",
          "name": "randomConsumerAddress",
          "type": "address"
        },
        {
          "internalType": "address",
          "name": "validatorAddress",
          "type": "address"
        }
      ],
      "stateMutability": "nonpayable",
      "type": "constructor"
    },
    {
      "anonymous": false,
      "inputs": [
        {
          "indexed": true,
          "internalType": "bytes32",
          "name": "requestId",
          "type": "bytes32"
        },
        {
          "indexed": true,
          "internalType": "address",
          "name": "player",
          "type": "address"
        },
        {
          "indexed": true,
          "internalType": "uint256",
          "name": "tokenId",
          "type": "uint256"
        },
        {
          "indexed": false,
          "internalType": "uint256",
          "name": "prediction",
          "type": "uint256"
        }
      ],
      "name": "CoinFlipped",
      "type": "event"
    },
    {
      "anonymous": false,
      "inputs": [
        {
          "indexed": true,
          "internalType": "bytes32",
          "name": "requestId",
          "type": "bytes32"
        },
        {
          "indexed": true,
          "internalType": "uint256",
          "name": "tokenId",
          "type": "uint256"
        },
        {
          "indexed": false,
          "internalType": "uint256",
          "name": "prediction",
          "type": "uint256"
        },
        {
          "indexed": false,
          "internalType": "uint256",
          "name": "randomResult",
          "type": "uint256"
        }
      ],
      "name": "FlipProcessed",
      "type": "event"
    },
    {
      "anonymous": false,
      "inputs": [],
      "name": "LiquidityAdded",
      "type": "event"
    },
    {
      "anonymous": false,
      "inputs": [
        {
          "indexed": false,
          "internalType": "uint256",
          "name": "jotAmount",
          "type": "uint256"
        },
        {
          "indexed": false,
          "internalType": "uint256",
          "name": "fundingAmount",
          "type": "uint256"
        }
      ],
      "name": "LiquidityRemoved",
      "type": "event"
    },
    {
      "anonymous": false,
      "inputs": [
        {
          "indexed": true,
          "internalType": "bytes32",
          "name": "role",
          "type": "bytes32"
        },
        {
          "indexed": true,
          "internalType": "bytes32",
          "name": "previousAdminRole",
          "type": "bytes32"
        },
        {
          "indexed": true,
          "internalType": "bytes32",
          "name": "newAdminRole",
          "type": "bytes32"
        }
      ],
      "name": "RoleAdminChanged",
      "type": "event"
    },
    {
      "anonymous": false,
      "inputs": [
        {
          "indexed": true,
          "internalType": "bytes32",
          "name": "role",
          "type": "bytes32"
        },
        {
          "indexed": true,
          "internalType": "address",
          "name": "account",
          "type": "address"
        },
        {
          "indexed": true,
          "internalType": "address",
          "name": "sender",
          "type": "address"
        }
      ],
      "name": "RoleGranted",
      "type": "event"
    },
    {
      "anonymous": false,
      "inputs": [
        {
          "indexed": true,
          "internalType": "bytes32",
          "name": "role",
          "type": "bytes32"
        },
        {
          "indexed": true,
          "internalType": "address",
          "name": "account",
          "type": "address"
        },
        {
          "indexed": true,
          "internalType": "address",
          "name": "sender",
          "type": "address"
        }
      ],
      "name": "RoleRevoked",
      "type": "event"
    },
    {
      "anonymous": false,
      "inputs": [
        {
          "indexed": false,
          "internalType": "uint256",
          "name": "tokenID",
          "type": "uint256"
        },
        {
          "indexed": false,
          "internalType": "address",
          "name": "newOwner",
          "type": "address"
        }
      ],
      "name": "TokenReassigned",
      "type": "event"
    },
    {
      "anonymous": false,
      "inputs": [
        {
          "indexed": true,
          "internalType": "bytes32",
          "name": "requestId",
          "type": "bytes32"
        },
        {
          "indexed": false,
          "internalType": "address",
          "name": "from",
          "type": "address"
        },
        {
          "indexed": false,
          "internalType": "uint256",
          "name": "tokenId",
          "type": "uint256"
        }
      ],
      "name": "VerificationRequested",
      "type": "event"
    },
    {
      "anonymous": false,
      "inputs": [
        {
          "indexed": true,
          "internalType": "bytes32",
          "name": "requestId",
          "type": "bytes32"
        },
        {
          "indexed": false,
          "internalType": "address",
          "name": "originalCollection",
          "type": "address"
        },
        {
          "indexed": false,
          "internalType": "address",
          "name": "syntheticCollection",
          "type": "address"
        },
        {
          "indexed": false,
          "internalType": "uint256",
          "name": "tokenId",
          "type": "uint256"
        },
        {
          "indexed": false,
          "internalType": "bool",
          "name": "verified",
          "type": "bool"
        }
      ],
      "name": "VerifyResponseReceived",
      "type": "event"
    },
    {
      "inputs": [],
      "name": "AUCTION_MANAGER",
      "outputs": [
        {
          "internalType": "bytes32",
          "name": "",
          "type": "bytes32"
        }
      ],
      "stateMutability": "view",
      "type": "function"
    },
    {
      "inputs": [],
      "name": "DEFAULT_ADMIN_ROLE",
      "outputs": [
        {
          "internalType": "bytes32",
          "name": "",
          "type": "bytes32"
        }
      ],
      "stateMutability": "view",
      "type": "function"
    },
    {
      "inputs": [],
      "name": "RANDOM_ORACLE",
      "outputs": [
        {
          "internalType": "bytes32",
          "name": "",
          "type": "bytes32"
        }
      ],
      "stateMutability": "view",
      "type": "function"
    },
    {
      "inputs": [],
      "name": "ROUTER",
      "outputs": [
        {
          "internalType": "bytes32",
          "name": "",
          "type": "bytes32"
        }
      ],
      "stateMutability": "view",
      "type": "function"
    },
    {
      "inputs": [],
      "name": "VALIDATOR_ORACLE",
      "outputs": [
        {
          "internalType": "bytes32",
          "name": "",
          "type": "bytes32"
        }
      ],
      "stateMutability": "view",
      "type": "function"
    },
    {
      "inputs": [
        {
          "internalType": "uint256",
          "name": "tokenId",
          "type": "uint256"
        }
      ],
      "name": "addLiquidityToPool",
      "outputs": [],
      "stateMutability": "nonpayable",
      "type": "function"
    },
    {
      "inputs": [],
      "name": "auctionsManagerAddress",
      "outputs": [
        {
          "internalType": "address",
          "name": "",
          "type": "address"
        }
      ],
      "stateMutability": "view",
      "type": "function"
    },
    {
      "inputs": [
        {
          "internalType": "uint256",
          "name": "tokenId",
          "type": "uint256"
        },
        {
          "internalType": "uint256",
          "name": "buyAmount",
          "type": "uint256"
        }
      ],
      "name": "buyJotTokens",
      "outputs": [],
      "stateMutability": "nonpayable",
      "type": "function"
    },
    {
      "inputs": [
        {
          "internalType": "uint256",
          "name": "syntheticId",
          "type": "uint256"
        },
        {
          "internalType": "uint256",
          "name": "newOriginalId",
          "type": "uint256"
        },
        {
          "internalType": "string",
          "name": "metadata",
          "type": "string"
        },
        {
          "internalType": "address",
          "name": "caller",
          "type": "address"
        }
      ],
      "name": "change",
      "outputs": [],
      "stateMutability": "nonpayable",
      "type": "function"
    },
    {
      "inputs": [
        {
          "internalType": "uint256",
          "name": "",
          "type": "uint256"
        }
      ],
      "name": "changeNonces",
      "outputs": [
        {
          "internalType": "uint256",
          "name": "nonce",
          "type": "uint256"
        },
        {
          "internalType": "uint256",
          "name": "newTokenId",
          "type": "uint256"
        },
        {
          "internalType": "address",
          "name": "owner",
          "type": "address"
        }
      ],
      "stateMutability": "view",
      "type": "function"
    },
    {
      "inputs": [
        {
          "internalType": "uint256",
          "name": "tokenId",
          "type": "uint256"
        },
        {
          "internalType": "uint256",
          "name": "amount",
          "type": "uint256"
        }
      ],
      "name": "claimLiquidityTokens",
      "outputs": [],
      "stateMutability": "nonpayable",
      "type": "function"
    },
    {
      "inputs": [
        {
          "internalType": "uint256",
          "name": "tokenId",
          "type": "uint256"
        },
        {
          "internalType": "uint256",
          "name": "amount",
          "type": "uint256"
        }
      ],
      "name": "decreaseSellingSupply",
      "outputs": [],
      "stateMutability": "nonpayable",
      "type": "function"
    },
    {
      "inputs": [
        {
          "internalType": "uint256",
          "name": "tokenId",
          "type": "uint256"
        },
        {
          "internalType": "uint256",
          "name": "amount",
          "type": "uint256"
        }
      ],
      "name": "depositJots",
      "outputs": [],
      "stateMutability": "nonpayable",
      "type": "function"
    },
    {
      "inputs": [],
      "name": "erc721address",
      "outputs": [
        {
          "internalType": "address",
          "name": "",
          "type": "address"
        }
      ],
      "stateMutability": "view",
      "type": "function"
    },
    {
      "inputs": [
        {
          "internalType": "uint256",
          "name": "tokenId",
          "type": "uint256"
        },
        {
          "internalType": "uint256",
          "name": "amount",
          "type": "uint256"
        }
      ],
      "name": "exchangeOwnerJot",
      "outputs": [],
      "stateMutability": "nonpayable",
      "type": "function"
    },
    {
      "inputs": [
        {
          "internalType": "uint256",
          "name": "tokenId",
          "type": "uint256"
        }
      ],
      "name": "exitProtocol",
      "outputs": [],
      "stateMutability": "nonpayable",
      "type": "function"
    },
    {
      "inputs": [
        {
          "internalType": "uint256",
          "name": "tokenId",
          "type": "uint256"
        },
        {
          "internalType": "uint64",
          "name": "prediction",
          "type": "uint64"
        }
      ],
      "name": "flipJot",
      "outputs": [],
      "stateMutability": "nonpayable",
      "type": "function"
    },
    {
      "inputs": [],
      "name": "fundingTokenAddress",
      "outputs": [
        {
          "internalType": "address",
          "name": "",
          "type": "address"
        }
      ],
      "stateMutability": "view",
      "type": "function"
    },
    {
      "inputs": [
        {
          "internalType": "uint256",
          "name": "tokenId",
          "type": "uint256"
        }
      ],
      "name": "getAccruedReward",
      "outputs": [
        {
          "internalType": "uint256",
          "name": "",
          "type": "uint256"
        }
      ],
      "stateMutability": "view",
      "type": "function"
    },
    {
      "inputs": [],
      "name": "getContractJotsBalance",
      "outputs": [
        {
          "internalType": "uint256",
          "name": "",
          "type": "uint256"
        }
      ],
      "stateMutability": "view",
      "type": "function"
    },
    {
      "inputs": [],
      "name": "getFundingTokenAllowance",
      "outputs": [
        {
          "internalType": "uint256",
          "name": "",
          "type": "uint256"
        }
      ],
      "stateMutability": "view",
      "type": "function"
    },
    {
      "inputs": [
        {
          "internalType": "uint256",
          "name": "tokenId",
          "type": "uint256"
        }
      ],
      "name": "getJotAmountLeft",
      "outputs": [
        {
          "internalType": "uint256",
          "name": "",
          "type": "uint256"
        }
      ],
      "stateMutability": "view",
      "type": "function"
    },
    {
      "inputs": [
        {
          "internalType": "uint256",
          "name": "tokenId",
          "type": "uint256"
        }
      ],
      "name": "getJotFractionPrice",
      "outputs": [
        {
          "internalType": "uint256",
          "name": "",
          "type": "uint256"
        }
      ],
      "stateMutability": "view",
      "type": "function"
    },
    {
      "inputs": [
        {
          "internalType": "uint256",
          "name": "tokenId",
          "type": "uint256"
        }
      ],
      "name": "getOriginalID",
      "outputs": [
        {
          "internalType": "uint256",
          "name": "",
          "type": "uint256"
        }
      ],
      "stateMutability": "view",
      "type": "function"
    },
    {
      "inputs": [
        {
          "internalType": "uint256",
          "name": "tokenId",
          "type": "uint256"
        }
      ],
      "name": "getOwnerSupply",
      "outputs": [
        {
          "internalType": "uint256",
          "name": "",
          "type": "uint256"
        }
      ],
      "stateMutability": "view",
      "type": "function"
    },
    {
      "inputs": [
        {
          "internalType": "bytes32",
          "name": "role",
          "type": "bytes32"
        }
      ],
      "name": "getRoleAdmin",
      "outputs": [
        {
          "internalType": "bytes32",
          "name": "",
          "type": "bytes32"
        }
      ],
      "stateMutability": "view",
      "type": "function"
    },
    {
      "inputs": [
        {
          "internalType": "uint256",
          "name": "tokenId",
          "type": "uint256"
        },
        {
          "internalType": "uint256",
          "name": "buyAmount",
          "type": "uint256"
        }
      ],
      "name": "getSalePrice",
      "outputs": [
        {
          "internalType": "uint256",
          "name": "",
          "type": "uint256"
        }
      ],
      "stateMutability": "view",
      "type": "function"
    },
    {
      "inputs": [
        {
          "internalType": "uint256",
          "name": "tokenId",
          "type": "uint256"
        }
      ],
      "name": "getSellingSupply",
      "outputs": [
        {
          "internalType": "uint256",
          "name": "",
          "type": "uint256"
        }
      ],
      "stateMutability": "view",
      "type": "function"
    },
    {
      "inputs": [
        {
          "internalType": "uint256",
          "name": "tokenId",
          "type": "uint256"
        }
      ],
      "name": "getSoldSupply",
      "outputs": [
        {
          "internalType": "uint256",
          "name": "",
          "type": "uint256"
        }
      ],
      "stateMutability": "view",
      "type": "function"
    },
    {
      "inputs": [
        {
          "internalType": "uint256",
          "name": "tokenId",
          "type": "uint256"
        }
      ],
      "name": "getSyntheticNFTOwner",
      "outputs": [
        {
          "internalType": "address",
          "name": "",
          "type": "address"
        }
      ],
      "stateMutability": "view",
      "type": "function"
    },
    {
      "inputs": [
        {
          "internalType": "uint256",
          "name": "tokenId",
          "type": "uint256"
        }
      ],
      "name": "getTokenURI",
      "outputs": [
        {
          "internalType": "string",
          "name": "",
          "type": "string"
        }
      ],
      "stateMutability": "view",
      "type": "function"
    },
    {
      "inputs": [
        {
          "internalType": "uint256",
          "name": "tokenId",
          "type": "uint256"
        }
      ],
      "name": "getliquiditySold",
      "outputs": [
        {
          "internalType": "uint256",
          "name": "",
          "type": "uint256"
        }
      ],
      "stateMutability": "view",
      "type": "function"
    },
    {
      "inputs": [
        {
          "internalType": "bytes32",
          "name": "role",
          "type": "bytes32"
        },
        {
          "internalType": "address",
          "name": "account",
          "type": "address"
        }
      ],
      "name": "grantRole",
      "outputs": [],
      "stateMutability": "nonpayable",
      "type": "function"
    },
    {
      "inputs": [
        {
          "internalType": "bytes32",
          "name": "role",
          "type": "bytes32"
        },
        {
          "internalType": "address",
          "name": "account",
          "type": "address"
        }
      ],
      "name": "hasRole",
      "outputs": [
        {
          "internalType": "bool",
          "name": "",
          "type": "bool"
        }
      ],
      "stateMutability": "view",
      "type": "function"
    },
    {
      "inputs": [
        {
          "internalType": "uint256",
          "name": "tokenId",
          "type": "uint256"
        },
        {
          "internalType": "uint256",
          "name": "amount",
          "type": "uint256"
        }
      ],
      "name": "increaseSellingSupply",
      "outputs": [],
      "stateMutability": "nonpayable",
      "type": "function"
    },
    {
      "inputs": [
        {
          "internalType": "address",
          "name": "_jotAddress",
          "type": "address"
        },
        {
          "internalType": "address",
          "name": "originalCollectionAddress_",
          "type": "address"
        },
        {
          "internalType": "address",
          "name": "_erc721address",
          "type": "address"
        },
        {
          "internalType": "address",
          "name": "auctionManagerAddress_",
          "type": "address"
        },
        {
          "internalType": "address",
          "name": "protocol_",
          "type": "address"
        },
        {
          "internalType": "address",
          "name": "jotPool_",
          "type": "address"
        },
        {
          "internalType": "address",
          "name": "swapAddress",
          "type": "address"
        }
      ],
      "name": "initialize",
      "outputs": [],
      "stateMutability": "nonpayable",
      "type": "function"
    },
    {
      "inputs": [
        {
          "internalType": "uint256",
          "name": "tokenId",
          "type": "uint256"
        }
      ],
      "name": "isAllowedToFlip",
      "outputs": [
        {
          "internalType": "bool",
          "name": "",
          "type": "bool"
        }
      ],
      "stateMutability": "view",
      "type": "function"
    },
    {
      "inputs": [
        {
          "internalType": "uint256",
          "name": "tokenId",
          "type": "uint256"
        }
      ],
      "name": "isSyntheticNFTCreated",
      "outputs": [
        {
          "internalType": "bool",
          "name": "",
          "type": "bool"
        }
      ],
      "stateMutability": "view",
      "type": "function"
    },
    {
      "inputs": [
        {
          "internalType": "uint256",
          "name": "tokenId",
          "type": "uint256"
        }
      ],
      "name": "isSyntheticNFTFractionalised",
      "outputs": [
        {
          "internalType": "bool",
          "name": "",
          "type": "bool"
        }
      ],
      "stateMutability": "view",
      "type": "function"
    },
    {
      "inputs": [
        {
          "internalType": "uint256",
          "name": "tokenId",
          "type": "uint256"
        }
      ],
      "name": "isVerified",
      "outputs": [
        {
          "internalType": "bool",
          "name": "",
          "type": "bool"
        }
      ],
      "stateMutability": "view",
      "type": "function"
    },
    {
      "inputs": [],
      "name": "jotAddress",
      "outputs": [
        {
          "internalType": "address",
          "name": "",
          "type": "address"
        }
      ],
      "stateMutability": "view",
      "type": "function"
    },
    {
      "inputs": [],
      "name": "jotPool",
      "outputs": [
        {
          "internalType": "address",
          "name": "",
          "type": "address"
        }
      ],
      "stateMutability": "view",
      "type": "function"
    },
    {
      "inputs": [],
      "name": "jotsSupply",
      "outputs": [
        {
          "internalType": "uint256",
          "name": "",
          "type": "uint256"
        }
      ],
      "stateMutability": "view",
      "type": "function"
    },
    {
      "inputs": [
        {
          "internalType": "uint256",
          "name": "tokenId",
          "type": "uint256"
        }
      ],
      "name": "lockedNFT",
      "outputs": [
        {
          "internalType": "bool",
          "name": "",
          "type": "bool"
        }
      ],
      "stateMutability": "view",
      "type": "function"
    },
    {
      "inputs": [
        {
          "internalType": "uint256",
          "name": "",
          "type": "uint256"
        }
      ],
      "name": "nonces",
      "outputs": [
        {
          "internalType": "uint256",
          "name": "",
          "type": "uint256"
        }
      ],
      "stateMutability": "view",
      "type": "function"
    },
    {
      "inputs": [],
      "name": "originalCollectionAddress",
      "outputs": [
        {
          "internalType": "address",
          "name": "",
          "type": "address"
        }
      ],
      "stateMutability": "view",
      "type": "function"
    },
    {
      "inputs": [
        {
          "internalType": "uint256",
          "name": "",
          "type": "uint256"
        },
        {
          "internalType": "uint256",
          "name": "",
          "type": "uint256"
        }
      ],
      "name": "ownersByNonce",
      "outputs": [
        {
          "internalType": "address",
          "name": "",
          "type": "address"
        }
      ],
      "stateMutability": "view",
      "type": "function"
    },
    {
      "inputs": [],
      "name": "poolAddress",
      "outputs": [
        {
          "internalType": "address",
          "name": "",
          "type": "address"
        }
      ],
      "stateMutability": "view",
      "type": "function"
    },
    {
      "inputs": [
        {
          "internalType": "uint256",
          "name": "randomNumber",
          "type": "uint256"
        },
        {
          "internalType": "bytes32",
          "name": "requestId",
          "type": "bytes32"
        }
      ],
      "name": "processFlipResult",
      "outputs": [],
      "stateMutability": "nonpayable",
      "type": "function"
    },
    {
      "inputs": [
        {
          "internalType": "bytes32",
          "name": "requestId",
          "type": "bytes32"
        },
        {
          "components": [
            {
              "internalType": "address",
              "name": "originalCollection",
              "type": "address"
            },
            {
              "internalType": "address",
              "name": "syntheticCollection",
              "type": "address"
            },
            {
              "internalType": "uint256",
              "name": "tokenId",
              "type": "uint256"
            },
            {
              "internalType": "enum State",
              "name": "previousState",
              "type": "uint8"
            }
          ],
          "internalType": "struct VerifyRequest",
          "name": "requestData",
          "type": "tuple"
        },
        {
          "internalType": "bool",
          "name": "verified",
          "type": "bool"
        }
      ],
      "name": "processVerifyResponse",
      "outputs": [],
      "stateMutability": "nonpayable",
      "type": "function"
    },
    {
      "inputs": [],
      "name": "protocol",
      "outputs": [
        {
          "internalType": "contract ProtocolParameters",
          "name": "",
          "type": "address"
        }
      ],
      "stateMutability": "view",
      "type": "function"
    },
    {
      "inputs": [
        {
          "internalType": "uint256",
          "name": "nftId_",
          "type": "uint256"
        },
        {
          "internalType": "address",
          "name": "newOwner_",
          "type": "address"
        }
      ],
      "name": "reassignNFT",
      "outputs": [],
      "stateMutability": "nonpayable",
      "type": "function"
    },
    {
      "inputs": [
        {
          "internalType": "uint256",
          "name": "tokenId",
          "type": "uint256"
        }
      ],
      "name": "recoverToken",
      "outputs": [],
      "stateMutability": "nonpayable",
      "type": "function"
    },
    {
      "inputs": [
        {
          "internalType": "uint256",
          "name": "tokenId",
          "type": "uint256"
        },
        {
          "internalType": "uint256",
          "name": "supplyToKeep",
          "type": "uint256"
        },
        {
          "internalType": "uint256",
          "name": "priceFraction",
          "type": "uint256"
        },
        {
          "internalType": "address",
          "name": "nftOwner",
          "type": "address"
        },
        {
          "internalType": "string",
          "name": "metadata",
          "type": "string"
        }
      ],
      "name": "register",
      "outputs": [
        {
          "internalType": "uint256",
          "name": "",
          "type": "uint256"
        }
      ],
      "stateMutability": "nonpayable",
      "type": "function"
    },
    {
      "inputs": [
        {
          "internalType": "uint256",
          "name": "tokenId",
          "type": "uint256"
        },
        {
          "internalType": "address",
          "name": "caller",
          "type": "address"
        }
      ],
      "name": "removeLiquidityFromPool",
      "outputs": [],
      "stateMutability": "nonpayable",
      "type": "function"
    },
    {
      "inputs": [
        {
          "internalType": "bytes32",
          "name": "role",
          "type": "bytes32"
        },
        {
          "internalType": "address",
          "name": "account",
          "type": "address"
        }
      ],
      "name": "renounceRole",
      "outputs": [],
      "stateMutability": "nonpayable",
      "type": "function"
    },
    {
      "inputs": [
        {
          "internalType": "bytes32",
          "name": "role",
          "type": "bytes32"
        },
        {
          "internalType": "address",
          "name": "account",
          "type": "address"
        }
      ],
      "name": "revokeRole",
      "outputs": [],
      "stateMutability": "nonpayable",
      "type": "function"
    },
    {
      "inputs": [
        {
          "internalType": "uint256",
          "name": "tokenId",
          "type": "uint256"
        },
        {
          "internalType": "string",
          "name": "metadata",
          "type": "string"
        }
      ],
      "name": "setMetadata",
      "outputs": [],
      "stateMutability": "nonpayable",
      "type": "function"
    },
    {
      "inputs": [
        {
          "internalType": "bytes4",
          "name": "interfaceId",
          "type": "bytes4"
        }
      ],
      "name": "supportsInterface",
      "outputs": [
        {
          "internalType": "bool",
          "name": "",
          "type": "bool"
        }
      ],
      "stateMutability": "view",
      "type": "function"
    },
    {
      "inputs": [],
      "name": "syntheticProtocolRouterAddress",
      "outputs": [
        {
          "internalType": "address",
          "name": "",
          "type": "address"
        }
      ],
      "stateMutability": "view",
      "type": "function"
    },
    {
      "inputs": [],
      "name": "tokenCounter",
      "outputs": [
        {
          "internalType": "uint256",
          "name": "_value",
          "type": "uint256"
        }
      ],
      "stateMutability": "view",
      "type": "function"
    },
    {
      "inputs": [
        {
          "internalType": "uint256",
          "name": "",
          "type": "uint256"
        }
      ],
      "name": "tokens",
      "outputs": [
        {
          "internalType": "uint256",
          "name": "originalTokenID",
          "type": "uint256"
        },
        {
          "internalType": "uint256",
          "name": "ownerSupply",
          "type": "uint256"
        },
        {
          "internalType": "uint256",
          "name": "sellingSupply",
          "type": "uint256"
        },
        {
          "internalType": "uint256",
          "name": "soldSupply",
          "type": "uint256"
        },
        {
          "internalType": "uint256",
          "name": "liquiditySupply",
          "type": "uint256"
        },
        {
          "internalType": "uint256",
          "name": "liquiditySold",
          "type": "uint256"
        },
        {
          "internalType": "uint256",
          "name": "fractionPrices",
          "type": "uint256"
        },
        {
          "internalType": "uint256",
          "name": "lastFlipTime",
          "type": "uint256"
        },
        {
          "internalType": "uint256",
          "name": "liquidityTokenBalance",
          "type": "uint256"
        },
        {
          "internalType": "uint256",
          "name": "UniswapJotLiquidity",
          "type": "uint256"
        },
        {
          "internalType": "uint256",
          "name": "UniswapFundingLiquidity",
          "type": "uint256"
        },
        {
          "internalType": "enum State",
          "name": "state",
          "type": "uint8"
        }
      ],
      "stateMutability": "view",
      "type": "function"
    },
    {
      "inputs": [
        {
          "internalType": "uint256",
          "name": "tokenId",
          "type": "uint256"
        },
        {
          "internalType": "uint256",
          "name": "newFractionPrice",
          "type": "uint256"
        }
      ],
      "name": "updatePriceFraction",
      "outputs": [],
      "stateMutability": "nonpayable",
      "type": "function"
    },
    {
      "inputs": [
        {
          "internalType": "uint256",
          "name": "tokenId",
          "type": "uint256"
        }
      ],
      "name": "verify",
      "outputs": [],
      "stateMutability": "nonpayable",
      "type": "function"
    },
    {
      "inputs": [
        {
          "internalType": "uint256",
          "name": "tokenId",
          "type": "uint256"
        },
        {
          "internalType": "uint256",
          "name": "amount",
          "type": "uint256"
        }
      ],
      "name": "withdrawJots",
      "outputs": [],
      "stateMutability": "nonpayable",
      "type": "function"
    }
  ],
  "transactionHash": "0x150fd5b9ebbfe73bed14fc20d5b2af3a1dee7b2e6d8b7d7cd306421489904ea4",
  "args": [
    "0xB5Fbb95bDdFF0403aDB3dB9A801df42d60cEDccc",
    "0xf1d3704B47F511f72dBD1F2c4c7ba962F00142AD"
  ],
  "solcInputHash": "6d40a5b7e20cfc4e4c2bf5080eb49d2b",
  "bytecode": "0x60c06040523480156200001157600080fd5b50604051620056b4380380620056b4833981016040819052620000349162000070565b6001600160601b0319606092831b8116608052911b1660a052620000a7565b80516001600160a01b03811681146200006b57600080fd5b919050565b6000806040838503121562000083578182fd5b6200008e8362000053565b91506200009e6020840162000053565b90509250929050565b60805160601c60a05160601c6155e1620000d36000396000613001015260006114b601526155e16000f3fe608060405234801561001057600080fd5b50600436106103db5760003560e01c80635ea172d01161020a5780639d806b5411610125578063cb1a233d116100b8578063df04698e11610087578063df04698e146109cb578063e445a502146109ee578063ecf70d3714610a01578063ee2af58d14610a23578063f0b3825014610a3657600080fd5b8063cb1a233d14610979578063cd87eb521461098c578063d082e381146109ae578063d547741f146109b857600080fd5b8063b1da4db7116100f4578063b1da4db71461091d578063b82ad76814610930578063b9e11a1814610943578063bd4a36391461095657600080fd5b80639d806b54146108c8578063a217fddf146108db578063ab8f2b1b146108e3578063abacac25146108f657600080fd5b8063846ed3c51161019d5780638ce744261161016c5780638ce744261461086c5780638f2e5b021461087f57806391d14854146108a25780639364c738146108b557600080fd5b8063846ed3c5146108205780638753367f1461083357806389736a90146108465780638aab42741461085957600080fd5b806373233ea6116101d957806373233ea61461077b5780637984f1981461078e5780637e0aa10c146107b157806383a131001461080d57600080fd5b80635ea172d01461073a5780636332fb8b1461074d57806369243a16146107605780636e26115c1461076857600080fd5b806335876476116102fa5780634c4e03f91161028d57806358e8bcb71161025c57806358e8bcb7146106da578063593aa283146107015780635c920736146107145780635de0e3c91461072757600080fd5b80634c4e03f9146106195780634c538fde1461062c5780634f64b2be1461063f5780635763c393146106c757600080fd5b80633bb3a24d116102c95780633bb3a24d146105ca57806341e559e6146105ea5780634bc4d599146105f35780634c4b206b1461060657600080fd5b8063358764761461057c57806336568abe1461058f57806337b6d96b146105a257806339fb284e146105b557600080fd5b8063141a468c1161037257806326aa143b1161034157806326aa143b1461052e5780632f2ff15d14610541578063306ff2801461055457806332fe7b261461056757600080fd5b8063141a468c146104d05780631755ff21146104f0578063248a9ca3146104f857806326964e511461051b57600080fd5b806304939d3c116103ae57806304939d3c14610456578063072ac5f31461048757806307972c481461049a5780630f1203d0146104bd57600080fd5b806301ffc9a7146103e057806302434ee514610408578063025fdcb21461041e57806302d7965214610441575b600080fd5b6103f36103ee366004614e66565b610a6a565b60405190151581526020015b60405180910390f35b610410610a7b565b6040519081526020016103ff565b61041061042c366004614d5d565b6000908152600c602052604090206002015490565b61045461044f366004614d8d565b610b03565b005b60015461046f906201000090046001600160a01b031681565b6040516001600160a01b0390911681526020016103ff565b610454610495366004614f4e565b610fa2565b6104106104a8366004614d5d565b6000908152600c602052604090206006015490565b60075461046f906001600160a01b031681565b6104106104de366004614d5d565b600d6020526000908152604090205481565b61046f61139e565b610410610506366004614d5d565b60009081526020819052604090206001015490565b6104546105293660046150cd565b61141b565b61041061053c366004614d5d565b6115ef565b61045461054f366004614d8d565b611618565b610410610562366004614d5d565b611643565b61041060008051602061558c83398151915281565b61045461058a366004614c05565b611710565b61045461059d366004614d8d565b61192c565b6103f36105b0366004614d5d565b6119aa565b61041060008051602061556c83398151915281565b6105dd6105d8366004614d5d565b611aa1565b6040516103ff919061521d565b61041060025481565b600a5461046f906001600160a01b031681565b60105461046f906001600160a01b031681565b610454610627366004614f4e565b611b22565b600b5461046f906001600160a01b031681565b6106af61064d366004614d5d565b600c60205260009081526040902080546001820154600283015460038401546004850154600586015460068701546007880154600889015460098a0154600a8b0154600b909b0154999a98999798969795969495939492939192909160ff168c565b6040516103ff9c9b9a99989796959493929190615393565b6104546106d5366004614d5d565b611e10565b6104107fe87beaa2684453d25a1f0e3e7002e109b34fc4f132f115c9a7707901e792751381565b61045461070f366004614f6f565b6120b4565b610454610722366004614f4e565b6122d0565b610454610735366004614d8d565b612517565b610410610748366004615063565b61253a565b61045461075b366004614dbc565b612882565b610410612979565b610454610776366004614fd6565b6129aa565b6103f3610789366004614d5d565b612c10565b61041061079c366004614d5d565b6000908152600c602052604090206001015490565b6107e96107bf366004614d5d565b600e602052600090815260409020805460018201546002909201549091906001600160a01b031683565b6040805193845260208401929092526001600160a01b0316908201526060016103ff565b60095461046f906001600160a01b031681565b61045461082e366004614f4e565b612c39565b610454610841366004614d5d565b612e8c565b610454610854366004614f4e565b6130bf565b610410610867366004614f4e565b6131cb565b60085461046f906001600160a01b031681565b61041061088d366004614d5d565b6000908152600c602052604090206008015490565b6103f36108b0366004614d8d565b6131f1565b6104546108c3366004614d5d565b61321a565b6104546108d6366004614f4e565b61349c565b610410600081565b6104546108f1366004614f4e565b61368c565b6104107f747c8a75243ae2ca1d188aaaeab610daf9d97e45b6513baed451ebf0b9ec74fd81565b60115461046f906001600160a01b031681565b61046f61093e366004614d5d565b61383c565b610454610951366004614f4e565b6138b9565b610410610964366004614d5d565b6000908152600c602052604090206005015490565b610454610987366004614d5d565b613add565b6103f361099a366004614d5d565b6000908152600c6020526040902054151590565b6006546104109081565b6104546109c6366004614d8d565b613d10565b6104106109d9366004614d5d565b6000908152600c602052604090206003015490565b6103f36109fc366004614d5d565b613d36565b6103f3610a0f366004614d5d565b600090815260046020526040902054151590565b610454610a31366004614f4e565b613f8a565b61046f610a44366004614f4e565b600f6020908152600092835260408084209091529082529020546001600160a01b031681565b6000610a7582614129565b92915050565b600b54604051636eb1769f60e11b81523360048201523060248201526000916001600160a01b03169063dd62ed3e906044015b60206040518083038186803b158015610ac657600080fd5b505afa158015610ada573d6000803e3d6000fd5b505050506040513d601f19601f82011682018060405250810190610afe9190614d75565b905090565b60008051602061556c833981519152610b1c813361415e565b60105460405163c87b56dd60e01b8152600481018590526000916001600160a01b03169063c87b56dd9060240160006040518083038186803b158015610b6157600080fd5b505afa158015610b75573d6000803e3d6000fd5b505050506040513d6000823e601f3d908101601f19168201604052610b9d9190810190614e8e565b6000858152600c6020526040902060018101549192509015610bcf57634e487b7160e01b600052600160045260246000fd5b6000858152600c60205260409081902054601054915163dbf5132560e01b81526004810188905290916001600160a01b03169063dbf5132590602401600060405180830381600087803b158015610c2557600080fd5b505af1158015610c39573d6000803e3d6000fd5b505050506000610c4860065490565b601054604051633349e71f60e21b81529192506001600160a01b03169063cd279c7c90610c7d908990859089906004016151f6565b600060405180830381600087803b158015610c9757600080fd5b505af1158015610cab573d6000803e3d6000fd5b50505050806004600084815260200190815260200160002081905550604051806101800160405280600081526020016000815260200160008152602001600081526020016000815260200160008152602001600081526020016000815260200160008152602001600081526020016000815260200160006003811115610d4157634e487b7160e01b600052602160045260246000fd5b815250600c6000898152602001908152602001600020600082015181600001556020820151816001015560408201518160020155606082015181600301556080820151816004015560a0820151816005015560c0820151816006015560e082015181600701556101008201518160080155610120820151816009015561014082015181600a015561016082015181600b0160006101000a81548160ff02191690836003811115610e0157634e487b7160e01b600052602160045260246000fd5b0217905550905050600069021e19e0c9bab2400000905060405180610180016040528084815260200182815260200160008152602001600081526020016000815260200160008152602001600081526020016000815260200160008152602001600081526020016000815260200160026003811115610e9057634e487b7160e01b600052602160045260246000fd5b815250600c6000848152602001908152602001600020600082015181600001556020820151816001015560408201518160020155606082015181600301556080820151816004015560a0820151816005015560c0820151816006015560e082015181600701556101008201518160080155610120820151816009015561014082015181600a015561016082015181600b0160006101000a81548160ff02191690836003811115610f5057634e487b7160e01b600052602160045260246000fd5b021790555050604080518481526001600160a01b038a1660208201527fae0df3ed3f99b751fb0a740538790a748856958d5737ad5ae138454ed7e053e492500160405180910390a15050505050505050565b7fe87beaa2684453d25a1f0e3e7002e109b34fc4f132f115c9a7707901e7927513610fcd813361415e565b600080600860009054906101000a90046001600160a01b03166001600160a01b031663b94d25ce6040518163ffffffff1660e01b815260040160206040518083038186803b15801561101e57600080fd5b505afa158015611032573d6000803e3d6000fd5b505050506040513d601f19601f820116820180604052508101906110569190614d75565b90506000600860009054906101000a90046001600160a01b03166001600160a01b0316631861779d6040518163ffffffff1660e01b815260040160206040518083038186803b1580156110a857600080fd5b505afa1580156110bc573d6000803e3d6000fd5b505050506040513d601f19601f820116820180604052508101906110e09190614d75565b6000868152600360209081526040808320815160608101835281548082526001928301546001600160401b03811683870152600160401b90046001600160a01b0316828501528552600c9093529220918201549293509180851115611143578094505b8484111561114f578493505b886111f1578482600101600082825461116891906154c2565b909155505060208301516001600160401b03168914611189578495506111c9565b61119384866154c2565b600089815260036020526040902060010154600a549197506111c9916001600160a01b0390811691600160401b900416866141c2565b85156111ec57601154600a546111ec916001600160a01b039182169116886141c2565b6112d7565b84826001016000828254611205919061546b565b909155505060208301516001600160401b0316891461122657849550611266565b61123084866154c2565b600089815260036020526040902060010154600a54919750611266916001600160a01b0390811691600160401b900416866141c2565b85156112d757600a546011546040516311c9479960e21b81526001600160a01b03928316926347251e64926112a49291169030908b906004016151b9565b600060405180830381600087803b1580156112be57600080fd5b505af11580156112d2573d6000803e3d6000fd5b505050505b60018201546113475760015483516040516316bfb45760e11b81526004810191909152620100009091046001600160a01b031690632d7f68ae90602401600060405180830381600087803b15801561132e57600080fd5b505af1158015611342573d6000803e3d6000fd5b505050505b8251602080850151604080516001600160401b0390921682529181018c90528a917f10c2415cd62b00f83e15c907a08b12444e71bcc1645322f97a631df735fe49e3910160405180910390a3505050505050505050565b600a54604080516324dead2f60e11b815290516000926001600160a01b0316916349bd5a5e916004808301926020929190829003018186803b1580156113e357600080fd5b505afa1580156113f7573d6000803e3d6000fd5b505050506040513d601f19601f82011682018060405250810190610afe9190614be9565b6000828152600c6020526040902061143283613d36565b6114835760405162461bcd60e51b815260206004820152601760248201527f466c6970206973206e6f7420616c6c6f7765642079657400000000000000000060448201526064015b60405180910390fd5b61148c83612c10565b156114a95760405162461bcd60e51b815260040161147a906152e0565b42816007018190555060007f00000000000000000000000000000000000000000000000000000000000000006001600160a01b031663dbdff2c16040518163ffffffff1660e01b8152600401602060405180830381600087803b15801561150f57600080fd5b505af1158015611523573d6000803e3d6000fd5b505050506040513d601f19601f820116820180604052508101906115479190614d75565b604080516060810182528681526001600160401b038681166020808401828152338587018181526000898152600385528890209651875591516001909601805492516001600160a01b0316600160401b026001600160e01b031990931696909516959095171790925592519283529293508692909184917ff3430182a8f4149cb1910574795295555b8119134718716b9f3e5024189a64a5910160405180910390a450505050565b6000818152600c602052604081206003810154600282015461161191906154c2565b9392505050565b600082815260208190526040902060010154611634813361415e565b61163e8383614218565b505050565b601054604051634f558e7960e01b8152600481018390526000916001600160a01b031690634f558e799060240160206040518083038186803b15801561168857600080fd5b505afa15801561169c573d6000803e3d6000fd5b505050506040513d601f19601f820116820180604052508101906116c09190614d41565b6116fd5760405162461bcd60e51b815260206004820152600e60248201526d139195081b9bdd081b5a5b9d195960921b604482015260640161147a565b506000908152600c602052604090205490565b600154610100900460ff1680611729575060015460ff16155b61178c5760405162461bcd60e51b815260206004820152602e60248201527f496e697469616c697a61626c653a20636f6e747261637420697320616c72656160448201526d191e481a5b9a5d1a585b1a5e995960921b606482015260840161147a565b600154610100900460ff161580156117ae576001805461ffff19166101011790555b600a80546001600160a01b03199081166001600160a01b038b8116919091179092556010805482168984161790556009805482168a841617905560078054339083161790556001805462010000600160b01b03191662010000898516021790556008805482168784169081179091556011805483168785161790556005805490921692851692909217905569021e19e0c9bab240000060025560408051632629c7ef60e11b81529051634c538fde91600481810192602092909190829003018186803b15801561187d57600080fd5b505afa158015611891573d6000803e3d6000fd5b505050506040513d601f19601f820116820180604052508101906118b59190614be9565b600b80546001600160a01b0319166001600160a01b03929092169190911790556118e060003361429c565b6118f860008051602061558c8339815191523361429c565b61191060008051602061556c8339815191528661429c565b8015611922576001805461ff00191690555b5050505050505050565b6001600160a01b038116331461199c5760405162461bcd60e51b815260206004820152602f60248201527f416363657373436f6e74726f6c3a2063616e206f6e6c792072656e6f756e636560448201526e103937b632b9903337b91039b2b63360891b606482015260840161147a565b6119a682826142a6565b5050565b601054604051634f558e7960e01b8152600481018390526000916001600160a01b031690634f558e799060240160206040518083038186803b1580156119ef57600080fd5b505afa158015611a03573d6000803e3d6000fd5b505050506040513d601f19601f82011682018060405250810190611a279190614d41565b611a645760405162461bcd60e51b815260206004820152600e60248201526d139195081b9bdd081b5a5b9d195960921b604482015260640161147a565b60026000838152600c60205260409020600b015460ff166003811115611a9a57634e487b7160e01b600052602160045260246000fd5b1492915050565b60105460405163c87b56dd60e01b8152600481018390526060916001600160a01b03169063c87b56dd9060240160006040518083038186803b158015611ae657600080fd5b505afa158015611afa573d6000803e3d6000fd5b505050506040513d6000823e601f3d908101601f19168201604052610a759190810190614e8e565b6000828152600c6020526040908190206010549151634f558e7960e01b81526004810185905290916001600160a01b031690634f558e799060240160206040518083038186803b158015611b7557600080fd5b505afa158015611b89573d6000803e3d6000fd5b505050506040513d601f19601f82011682018060405250810190611bad9190614d41565b611bc95760405162461bcd60e51b815260040161147a90615230565b611bd283612c10565b15611bef5760405162461bcd60e51b815260040161147a906152e0565b60008211611c3f5760405162461bcd60e51b815260206004820152601960248201527f42757920616d6f756e742063616e2774206265207a65726f2100000000000000604482015260640161147a565b600081600301548260020154611c5591906154c2565b905082811015611c63578092505b6000670de0b6b3a7640000836006015485611c7e91906154a3565b611c889190615483565b905080611cc95760405162461bcd60e51b815260206004820152600f60248201526e4e6f20746f6b656e73206c6566742160881b604482015260640161147a565b600b546040516323b872dd60e01b81526001600160a01b03909116906323b872dd90611cfd903390309086906004016151b9565b602060405180830381600087803b158015611d1757600080fd5b505af1158015611d2b573d6000803e3d6000fd5b505050506040513d601f19601f82011682018060405250810190611d4f9190614d41565b50600a5460405163a9059cbb60e01b81526001600160a01b039091169063a9059cbb90611d8290339088906004016151dd565b602060405180830381600087803b158015611d9c57600080fd5b505af1158015611db0573d6000803e3d6000fd5b505050506040513d601f19601f82011682018060405250810190611dd49190614d41565b5083836003016000828254611de9919061546b565b9250508190555080836005016000828254611e04919061546b565b90915550505050505050565b6005546000828152600c6020526040902060038101546001600160a01b0390921691611e735760405162461bcd60e51b8152602060048201526012602482015271736f6c64537570706c79206973207a65726f60701b604482015260640161147a565b600480820154600580840154600a54915460405163095ea7b360e01b8152939491936001600160a01b039384169363095ea7b393611eb793909116918791016151dd565b602060405180830381600087803b158015611ed157600080fd5b505af1158015611ee5573d6000803e3d6000fd5b505050506040513d601f19601f82011682018060405250810190611f099190614d41565b50600b5460055460405163095ea7b360e01b81526001600160a01b039283169263095ea7b392611f409291169085906004016151dd565b602060405180830381600087803b158015611f5a57600080fd5b505af1158015611f6e573d6000803e3d6000fd5b505050506040513d601f19601f82011682018060405250810190611f929190614d41565b50600a54600b5460405162e8e33760e81b81526001600160a01b0392831660048201529082166024820152604481018490526064810183905260006084820181905260a482018190523060c48301524260e4830152918291829188169063e8e337009061010401606060405180830381600087803b15801561201357600080fd5b505af1158015612027573d6000803e3d6000fd5b505050506040513d601f19601f8201168201806040525081019061204b9190615036565b60009a8b52600c6020526040909a206004810180548490039055600581018054839003905560028101805484900390556003810180548390039055600881018054909b01909a5560098a018054909201909155600a909801805490980190975550505050505050565b6000828152600c602052604090206002600b82015460ff1660038111156120eb57634e487b7160e01b600052602160045260246000fd5b14156121445760405162461bcd60e51b815260206004820152602260248201527f43616e2774206368616e6765206d657461646174612061667465722076657269604482015261667960f01b606482015260840161147a565b6001600b82015460ff16600381111561216d57634e487b7160e01b600052602160045260246000fd5b14156121c95760405162461bcd60e51b815260206004820152602560248201527f43616e2774206368616e6765206d65746164617461207768696c6520766572696044820152646679696e6760d81b606482015260840161147a565b6010546040516331a9108f60e11b8152600481018590526000916001600160a01b031690636352211e9060240160206040518083038186803b15801561220e57600080fd5b505afa158015612222573d6000803e3d6000fd5b505050506040513d601f19601f820116820180604052508101906122469190614be9565b9050336001600160a01b038216146122705760405162461bcd60e51b815260040161147a9061525e565b60105460405163593aa28360e01b81526001600160a01b039091169063593aa283906122a2908790879060040161537a565b600060405180830381600087803b1580156122bc57600080fd5b505af1158015611922573d6000803e3d6000fd5b6000828152600c60205260409020600101548111156123315760405162461bcd60e51b815260206004820152601f60248201527f45786368616e676520616d6f756e7420657863656564732062616c616e636500604482015260640161147a565b6005546040805160028082526060820183526001600160a01b03909316926000926020830190803683375050600a5482519293506001600160a01b03169183915060009061238f57634e487b7160e01b600052603260045260246000fd5b6001600160a01b039283166020918202929092010152600b548251911690829060019081106123ce57634e487b7160e01b600052603260045260246000fd5b6001600160a01b039092166020928302919091018201526000858152600c9091526040812060010180548592906124069084906154c2565b90915550506000848152600c6020526040902060010154612485576001546040516316bfb45760e11b815260048101869052620100009091046001600160a01b031690632d7f68ae90602401600060405180830381600087803b15801561246c57600080fd5b505af1158015612480573d6000803e3d6000fd5b505050505b6040516338ed173960e01b81526001600160a01b038316906338ed1739906124ba90869060009086903390429060040161530a565b600060405180830381600087803b1580156124d457600080fd5b505af11580156124e8573d6000803e3d6000fd5b505050506040513d6000823e601f3d908101601f191682016040526125109190810190614c9a565b5050505050565b60008051602061556c833981519152612530813361415e565b61163e838361430b565b600060008051602061558c833981519152612555813361415e565b600085116125a55760405162461bcd60e51b815260206004820152601b60248201527f70726963654672616374696f6e2063616e2774206265207a65726f0000000000604482015260640161147a565b600087815260046020526040902054156126015760405162461bcd60e51b815260206004820181905260248201527f53796e746865746963204e465420616c72656164792067656e65726174656421604482015260640161147a565b600061260c60065490565b905061261985828661469c565b600a546002546040516340c10f1960e01b81526001600160a01b03909216916340c10f199161264d913091906004016151dd565b600060405180830381600087803b15801561266757600080fd5b505af115801561267b573d6000803e3d6000fd5b50505050600060028860025461269191906154c2565b61269b9190615483565b905060006002896002546126af91906154c2565b6126b99190615483565b905060006040518061018001604052808c81526020018b815260200184815260200160008152602001838152602001600081526020018a8152602001600081526020016000815260200160008152602001600081526020016000600381111561273257634e487b7160e01b600052602160045260246000fd5b815250905080600c6000868152602001908152602001600020600082015181600001556020820151816001015560408201518160020155606082015181600301556080820151816004015560a0820151816005015560c0820151816006015560e082015181600701556101008201518160080155610120820151816009015561014082015181600a015561016082015181600b0160006101000a81548160ff021916908360038111156127f557634e487b7160e01b600052602160045260246000fd5b0217905550505089612865576001546040516316bfb45760e11b815260048101869052620100009091046001600160a01b031690632d7f68ae90602401600060405180830381600087803b15801561284c57600080fd5b505af1158015612860573d6000803e3d6000fd5b505050505b612873600680546001019055565b50919998505050505050505050565b7f747c8a75243ae2ca1d188aaaeab610daf9d97e45b6513baed451ebf0b9ec74fd6128ad813361415e565b6040808401516000908152600c6020522082156128d857600b8101805460ff1916600217905561290f565b6060840151600b8201805460ff1916600183600381111561290957634e487b7160e01b600052602160045260246000fd5b02179055505b835160208086015160408088015181516001600160a01b039586168152949092169284019290925290820152831515606082015285907fcf5cb568c779c24ae423fed9236ba737105872c7e0b13ebb2fd578233747825a9060800160405180910390a25050505050565b600a546040516370a0823160e01b81523060048201526000916001600160a01b0316906370a0823190602401610aae565b60008051602061558c8339815191526129c3813361415e565b6000858152600c602052604090206001810154612a155760405162461bcd60e51b815260206004820152601060248201526f10d85b89dd0818994818da185b99d95960821b604482015260640161147a565b6002600b82015460ff166003811115612a3e57634e487b7160e01b600052602160045260246000fd5b14612a805760405162461bcd60e51b8152602060048201526012602482015271151bdad95b881b9bdd081d995c9a599a595960721b604482015260640161147a565b6010546040516331a9108f60e11b8152600481018890526001600160a01b03858116921690636352211e9060240160206040518083038186803b158015612ac657600080fd5b505afa158015612ada573d6000803e3d6000fd5b505050506040513d601f19601f82011682018060405250810190612afe9190614be9565b6001600160a01b031614612b455760405162461bcd60e51b815260206004820152600e60248201526d14da1bdd5b19081bdddb8813919560921b604482015260640161147a565b80546000908152600e6020526040812080549091600191839190612b6a90849061546b565b9091555050600181018690556002810180546001600160a01b038681166001600160a01b031990921691909117909155600b8301805460ff1916600317905586835560105460405163593aa28360e01b815291169063593aa28390612bd5908a90899060040161537a565b600060405180830381600087803b158015612bef57600080fd5b505af1158015612c03573d6000803e3d6000fd5b5050505050505050505050565b6000818152600c60205260408120612c27836119aa565b15806116115750600101541592915050565b60008111612c815760405162461bcd60e51b8152602060048201526015602482015274416d6f756e742063616e2774206265207a65726f2160581b604482015260640161147a565b6010546040516331a9108f60e11b8152600481018490526001600160a01b03909116906000908290636352211e9060240160206040518083038186803b158015612cca57600080fd5b505afa158015612cde573d6000803e3d6000fd5b505050506040513d601f19601f82011682018060405250810190612d029190614be9565b90506001600160a01b0381163314612d2c5760405162461bcd60e51b815260040161147a9061529f565b612d3584612c10565b15612d525760405162461bcd60e51b815260040161147a906152e0565b6000848152600c6020526040812060010154612d6f90859061546b565b905069021e19e0c9bab2400000811115612de45760405162461bcd60e51b815260206004820152603060248201527f596f752063616e2774206465706f736974206d6f7265207468616e207468652060448201526f129bdd0814dd5c1c1b1e481b1a5b5a5d60821b606482015260840161147a565b600a546040516323b872dd60e01b81526001600160a01b03909116906323b872dd90612e18903390309089906004016151b9565b602060405180830381600087803b158015612e3257600080fd5b505af1158015612e46573d6000803e3d6000fd5b505050506040513d601f19601f82011682018060405250810190612e6a9190614d41565b506000858152600c602052604081206001018054869290611e0490849061546b565b6000818152600c6020526040908190206010549151634f558e7960e01b81526004810184905290916001600160a01b031690634f558e799060240160206040518083038186803b158015612edf57600080fd5b505afa158015612ef3573d6000803e3d6000fd5b505050506040513d601f19601f82011682018060405250810190612f179190614d41565b612f335760405162461bcd60e51b815260040161147a90615230565b6002600b82015460ff166003811115612f5c57634e487b7160e01b600052602160045260246000fd5b1415612fa35760405162461bcd60e51b8152602060048201526016602482015275151bdad95b88185b1c9958591e481d995c9a599a595960521b604482015260640161147a565b600b8101805460ff1916600190811790915560095482546000908152600d602090815260408083205481516345b0ce7560e11b81526001600160a01b03958616600482015260248101899052604481019690965260648601525191937f000000000000000000000000000000000000000000000000000000000000000090931692638b619cea926084808301939282900301818787803b15801561304657600080fd5b505af115801561305a573d6000803e3d6000fd5b505050506040513d601f19601f8201168201806040525081019061307e9190614d75565b9050807faf92676e6ce91b92427009a49e22fa6d354ed418db8d0965bca4232dcf3e658f33856040516130b29291906151dd565b60405180910390a2505050565b601054604051634f558e7960e01b8152600481018490526001600160a01b0390911690634f558e799060240160206040518083038186803b15801561310357600080fd5b505afa158015613117573d6000803e3d6000fd5b505050506040513d601f19601f8201168201806040525081019061313b9190614d41565b6131575760405162461bcd60e51b815260040161147a90615230565b6000828152600c6020526040902061316e83612c10565b1561318b5760405162461bcd60e51b815260040161147a906152e0565b6131948361383c565b6001600160a01b0316336001600160a01b0316146131c45760405162461bcd60e51b815260040161147a9061525e565b6006015550565b6000828152600c602052604081206006015481906131e990846154a3565b949350505050565b6000918252602082815260408084206001600160a01b0393909316845291905290205460ff1690565b6000818152600c602052604090819020600181015460105492516331a9108f60e11b8152600481018590529192909133916001600160a01b031690636352211e9060240160206040518083038186803b15801561327657600080fd5b505afa15801561328a573d6000803e3d6000fd5b505050506040513d601f19601f820116820180604052508101906132ae9190614be9565b6001600160a01b0316146132f95760405162461bcd60e51b815260206004820152601260248201527113db9b1e481bdddb995c88185b1b1bddd95960721b604482015260640161147a565b6002600b83015460ff16600381111561332257634e487b7160e01b600052602160045260246000fd5b146133665760405162461bcd60e51b81526020600482015260146024820152734f6e6c7920766572696669656420746f6b656e7360601b604482015260640161147a565b69021e19e0c9bab24000008110156133cc5760405162461bcd60e51b8152602060048201526024808201527f496e73756666696369656e74206a6f7420737570706c7920696e20746865207460448201526337b5b2b760e11b606482015260840161147a565b81546000908152600d6020908152604080832054868452600f835281842081855290925290912080546001600160a01b0319163317905561340e81600161546b565b83546000908152600d6020526040902055613428846146d0565b5050546000908152600460208181526040808420849055938352600c90529181208181556001810182905560028101829055600381018290559182018190556005820181905560068201819055600782018190556008820181905560098201819055600a820155600b01805460ff19169055565b6010546040516331a9108f60e11b8152600481018490526000916001600160a01b031690636352211e9060240160206040518083038186803b1580156134e157600080fd5b505afa1580156134f5573d6000803e3d6000fd5b505050506040513d601f19601f820116820180604052508101906135199190614be9565b9050336001600160a01b0382161461356b5760405162461bcd60e51b81526020600482015260156024820152742cb7ba9030b932903737ba103a34329037bbb732b960591b604482015260640161147a565b6000838152600c6020526040902060080154808311156135cd5760405162461bcd60e51b815260206004820152601e60248201527f4e6f7420656e6f756768206c697175696469747920617661696c61626c650000604482015260640161147a565b60006135d761139e565b905083600c600087815260200190815260200160002060080160008282546135ff91906154c2565b909155505060405163a9059cbb60e01b81526001600160a01b0382169063a9059cbb9061363290339088906004016151dd565b602060405180830381600087803b15801561364c57600080fd5b505af1158015613660573d6000803e3d6000fd5b505050506040513d601f19601f820116820180604052508101906136849190614d41565b505050505050565b6136958261383c565b6001600160a01b0316336001600160a01b0316146136c55760405162461bcd60e51b815260040161147a9061525e565b6000828152600c602052604090206136dc83612c10565b156136f95760405162461bcd60e51b815260040161147a906152e0565b613704600283615483565b816004015410156137655760405162461bcd60e51b815260206004820152602560248201527f596f7520646f206e6f74206861766520656e6f756768206c6971756964697479604482015264081b19599d60da1b606482015260840161147a565b613770600283615483565b816002015410156137d65760405162461bcd60e51b815260206004820152602a60248201527f596f7520646f206e6f74206861766520656e6f7567682073656c6c696e6720736044820152691d5c1c1b1e481b19599d60b21b606482015260840161147a565b818160010160008282546137ea919061546b565b909155506137fb9050600283615483565b81600201600082825461380e91906154c2565b9091555061381f9050600283615483565b81600401600082825461383291906154c2565b9091555050505050565b6010546040516331a9108f60e11b8152600481018390526000916001600160a01b031690636352211e9060240160206040518083038186803b15801561388157600080fd5b505afa158015613895573d6000803e3d6000fd5b505050506040513d601f19601f82011682018060405250810190610a759190614be9565b6010546040516331a9108f60e11b8152600481018490526001600160a01b03909116906000908290636352211e9060240160206040518083038186803b15801561390257600080fd5b505afa158015613916573d6000803e3d6000fd5b505050506040513d601f19601f8201168201806040525081019061393a9190614be9565b90506001600160a01b03811633146139645760405162461bcd60e51b815260040161147a9061529f565b61396d84612c10565b1561398a5760405162461bcd60e51b815260040161147a906152e0565b6000848152600c60205260409020600101548311156139e05760405162461bcd60e51b81526020600482015260126024820152714e6f7420656e6f7567682062616c616e636560701b604482015260640161147a565b6000848152600c602052604081206001018054859290613a019084906154c2565b9091555050600a5460405163a9059cbb60e01b81526001600160a01b039091169063a9059cbb90613a3890339087906004016151dd565b602060405180830381600087803b158015613a5257600080fd5b505af1158015613a66573d6000803e3d6000fd5b505050506040513d601f19601f82011682018060405250810190613a8a9190614d41565b506000848152600c6020526040902060010154613ad7576001546040516316bfb45760e11b815260048101869052620100009091046001600160a01b031690632d7f68ae906024016122a2565b50505050565b600154604051637b5f398960e01b815260048101839052620100009091046001600160a01b031690637b5f39899060240160206040518083038186803b158015613b2657600080fd5b505afa158015613b3a573d6000803e3d6000fd5b505050506040513d601f19601f82011682018060405250810190613b5e9190614d41565b613baa5760405162461bcd60e51b815260206004820152601860248201527f546f6b656e206973206e6f74207265636f76657261626c650000000000000000604482015260640161147a565b6010546040516331a9108f60e11b81526004810183905233916001600160a01b031690636352211e9060240160206040518083038186803b158015613bee57600080fd5b505afa158015613c02573d6000803e3d6000fd5b505050506040513d601f19601f82011682018060405250810190613c269190614be9565b6001600160a01b031614613c715760405162461bcd60e51b815260206004820152601260248201527113db9b1e481bdddb995c88185b1b1bddd95960721b604482015260640161147a565b600a54613c93906001600160a01b0316333069021e19e0c9bab240000061473b565b6000818152600c60205260409081902069021e19e0c9bab2400000600191820155549051630532ab5d60e11b815260048101839052620100009091046001600160a01b031690630a6556ba90602401600060405180830381600087803b158015613cfc57600080fd5b505af1158015612510573d6000803e3d6000fd5b600082815260208190526040902060010154613d2c813361415e565b61163e83836142a6565b601054604051634f558e7960e01b8152600481018390526000916001600160a01b031690634f558e799060240160206040518083038186803b158015613d7b57600080fd5b505afa158015613d8f573d6000803e3d6000fd5b505050506040513d601f19601f82011682018060405250810190613db39190614d41565b8015613e5f5750600860009054906101000a90046001600160a01b03166001600160a01b031663766873326040518163ffffffff1660e01b815260040160206040518083038186803b158015613e0857600080fd5b505afa158015613e1c573d6000803e3d6000fd5b505050506040513d601f19601f82011682018060405250810190613e409190614d75565b6000838152600c6020526040902060070154613e5c90426154c2565b10155b8015613f6d5750600860009054906101000a90046001600160a01b03166001600160a01b031663b94d25ce6040518163ffffffff1660e01b815260040160206040518083038186803b158015613eb457600080fd5b505afa158015613ec8573d6000803e3d6000fd5b505050506040513d601f19601f82011682018060405250810190613eec9190614d75565b600a546011546040516370a0823160e01b81526001600160a01b0391821660048201529116906370a082319060240160206040518083038186803b158015613f3357600080fd5b505afa158015613f47573d6000803e3d6000fd5b505050506040513d601f19601f82011682018060405250810190613f6b9190614d75565b115b8015610a7557506000828152600c60205260409020541515610a75565b6000828152600c60205260409020613fa18361383c565b6001600160a01b0316336001600160a01b031614613fd15760405162461bcd60e51b815260040161147a9061525e565b613fda83612c10565b15613ff75760405162461bcd60e51b815260040161147a906152e0565b81816001015410156140565760405162461bcd60e51b815260206004820152602260248201527f596f7520646f206e6f74206861766520656e6f75676820746f6b656e73206c65604482015261199d60f21b606482015260840161147a565b8181600101600082825461406a91906154c2565b9091555061407b9050600283615483565b81600201600082825461408e919061546b565b9091555061409f9050600283615483565b8160040160008282546140b2919061546b565b9091555050600181015461163e576001546040516316bfb45760e11b815260048101859052620100009091046001600160a01b031690632d7f68ae906024015b600060405180830381600087803b15801561410c57600080fd5b505af1158015614120573d6000803e3d6000fd5b50505050505050565b60006001600160e01b03198216637965db0b60e01b1480610a7557506301ffc9a760e01b6001600160e01b0319831614610a75565b61416882826131f1565b6119a657614180816001600160a01b0316601461475c565b61418b83602061475c565b60405160200161419c929190615144565b60408051601f198184030181529082905262461bcd60e51b825261147a9160040161521d565b61163e8363a9059cbb60e01b84846040516024016141e19291906151dd565b60408051601f198184030181529190526020810180516001600160e01b03166001600160e01b03199093169290921790915261493d565b61422282826131f1565b6119a6576000828152602081815260408083206001600160a01b03851684529091529020805460ff191660011790556142583390565b6001600160a01b0316816001600160a01b0316837f2f8788117e7eff1d82e926ec794901d17c78024a50270940304540a733656f0d60405160405180910390a45050565b6119a68282614218565b6142b082826131f1565b156119a6576000828152602081815260408083206001600160a01b0385168085529252808320805460ff1916905551339285917ff6391f5c32d9c69d2a47ea670b442974b53935d1edc7fd64eb21e047a839171b9190a45050565b6000828152600c60209081526040808320600a5482516324dead2f60e11b815292519194936001600160a01b03909116926349bd5a5e9260048083019392829003018186803b15801561435d57600080fd5b505afa158015614371573d6000803e3d6000fd5b505050506040513d601f19601f820116820180604052508101906143959190614be9565b6009830154600a840154600885015460055460405163095ea7b360e01b81529495509293919290916001600160a01b038087169263095ea7b3926143e1929091169085906004016151dd565b602060405180830381600087803b1580156143fb57600080fd5b505af115801561440f573d6000803e3d6000fd5b505050506040513d601f19601f820116820180604052508101906144339190614d41565b506000806000866001600160a01b0316630902f1ac6040518163ffffffff1660e01b815260040160606040518083038186803b15801561447257600080fd5b505afa158015614486573d6000803e3d6000fd5b505050506040513d601f19601f820116820180604052508101906144aa9190614f00565b919450925090506001600160701b0383168611156144cf57826001600160701b031695505b816001600160701b03168511156144ed57816001600160701b031694505b600554600a54600b54604051635d5155ef60e11b81526001600160a01b03928316600482015290821660248201526044810187905260648101899052608481018890523060a48201524260c48201529116906000908190839063baa2abde9060e4016040805180830381600087803b15801561456857600080fd5b505af115801561457c573d6000803e3d6000fd5b505050506040513d601f19601f820116820180604052508101906145a09190614fb3565b600a54604051632770a7eb60e21b81529294509092506001600160a01b031690639dc29fac906145d690309086906004016151dd565b600060405180830381600087803b1580156145f057600080fd5b505af1158015614604573d6000803e3d6000fd5b5050600b5460405163a9059cbb60e01b81526001600160a01b03909116925063a9059cbb915061463a908f9085906004016151dd565b602060405180830381600087803b15801561465457600080fd5b505af1158015614668573d6000803e3d6000fd5b505050506040513d601f19601f8201168201806040525081019061468c9190614d41565b5050505050505050505050505050565b601054604051633349e71f60e21b81526001600160a01b039091169063cd279c7c906140f2908690869086906004016151f6565b60105460405163dbf5132560e01b8152600481018390526001600160a01b039091169063dbf5132590602401600060405180830381600087803b15801561471657600080fd5b505af115801561472a573d6000803e3d6000fd5b505050506147386006614a0f565b50565b613ad7846323b872dd60e01b8585856040516024016141e1939291906151b9565b6060600061476b8360026154a3565b61477690600261546b565b6001600160401b0381111561479b57634e487b7160e01b600052604160045260246000fd5b6040519080825280601f01601f1916602001820160405280156147c5576020820181803683370190505b509050600360fc1b816000815181106147ee57634e487b7160e01b600052603260045260246000fd5b60200101906001600160f81b031916908160001a905350600f60fb1b8160018151811061482b57634e487b7160e01b600052603260045260246000fd5b60200101906001600160f81b031916908160001a905350600061484f8460026154a3565b61485a90600161546b565b90505b60018111156148ee576f181899199a1a9b1b9c1cb0b131b232b360811b85600f166010811061489c57634e487b7160e01b600052603260045260246000fd5b1a60f81b8282815181106148c057634e487b7160e01b600052603260045260246000fd5b60200101906001600160f81b031916908160001a90535060049490941c936148e781615505565b905061485d565b5083156116115760405162461bcd60e51b815260206004820181905260248201527f537472696e67733a20686578206c656e67746820696e73756666696369656e74604482015260640161147a565b6000614992826040518060400160405280602081526020017f5361666545524332303a206c6f772d6c6576656c2063616c6c206661696c6564815250856001600160a01b0316614a669092919063ffffffff16565b80519091501561163e57808060200190518101906149b09190614d41565b61163e5760405162461bcd60e51b815260206004820152602a60248201527f5361666545524332303a204552433230206f7065726174696f6e20646964206e6044820152691bdd081cdd58d8d9595960b21b606482015260840161147a565b805480614a5e5760405162461bcd60e51b815260206004820152601b60248201527f436f756e7465723a2064656372656d656e74206f766572666c6f770000000000604482015260640161147a565b600019019055565b60606131e9848460008585843b614abf5760405162461bcd60e51b815260206004820152601d60248201527f416464726573733a2063616c6c20746f206e6f6e2d636f6e7472616374000000604482015260640161147a565b600080866001600160a01b03168587604051614adb9190615128565b60006040518083038185875af1925050503d8060008114614b18576040519150601f19603f3d011682016040523d82523d6000602084013e614b1d565b606091505b5091509150614b2d828286614b38565b979650505050505050565b60608315614b47575081611611565b825115614b575782518084602001fd5b8160405162461bcd60e51b815260040161147a919061521d565b8035614b7c8161555d565b919050565b600082601f830112614b91578081fd5b8135614ba4614b9f82615444565b615414565b818152846020838601011115614bb8578283fd5b816020850160208301379081016020019190915292915050565b80516001600160701b0381168114614b7c57600080fd5b600060208284031215614bfa578081fd5b815161161181615548565b600080600080600080600060e0888a031215614c1f578283fd5b8735614c2a81615548565b96506020880135614c3a81615548565b95506040880135614c4a81615548565b94506060880135614c5a81615548565b93506080880135614c6a81615548565b925060a0880135614c7a81615548565b915060c0880135614c8a81615548565b8091505092959891949750929550565b60006020808385031215614cac578182fd5b82516001600160401b0380821115614cc2578384fd5b818501915085601f830112614cd5578384fd5b815181811115614ce757614ce7615532565b8060051b9150614cf8848301615414565b8181528481019084860184860187018a1015614d12578788fd5b8795505b83861015614d34578051835260019590950194918601918601614d16565b5098975050505050505050565b600060208284031215614d52578081fd5b81516116118161555d565b600060208284031215614d6e578081fd5b5035919050565b600060208284031215614d86578081fd5b5051919050565b60008060408385031215614d9f578182fd5b823591506020830135614db181615548565b809150509250929050565b600080600083850360c0811215614dd1578182fd5b843593506080601f1982011215614de6578182fd5b50604051608081018181106001600160401b0382111715614e0957614e09615532565b6040526020850135614e1a81615548565b81526040850135614e2a81615548565b602082015260608501356040820152608085013560048110614e4a578283fd5b60608201529150614e5d60a08501614b71565b90509250925092565b600060208284031215614e77578081fd5b81356001600160e01b031981168114611611578182fd5b600060208284031215614e9f578081fd5b81516001600160401b03811115614eb4578182fd5b8201601f81018413614ec4578182fd5b8051614ed2614b9f82615444565b818152856020838501011115614ee6578384fd5b614ef78260208301602086016154d9565b95945050505050565b600080600060608486031215614f14578081fd5b614f1d84614bd2565b9250614f2b60208501614bd2565b9150604084015163ffffffff81168114614f43578182fd5b809150509250925092565b60008060408385031215614f60578182fd5b50508035926020909101359150565b60008060408385031215614f81578182fd5b8235915060208301356001600160401b03811115614f9d578182fd5b614fa985828601614b81565b9150509250929050565b60008060408385031215614fc5578182fd5b505080516020909101519092909150565b60008060008060808587031215614feb578182fd5b843593506020850135925060408501356001600160401b0381111561500e578283fd5b61501a87828801614b81565b925050606085013561502b81615548565b939692955090935050565b60008060006060848603121561504a578081fd5b8351925060208401519150604084015190509250925092565b600080600080600060a0868803121561507a578283fd5b853594506020860135935060408601359250606086013561509a81615548565b915060808601356001600160401b038111156150b4578182fd5b6150c088828901614b81565b9150509295509295909350565b600080604083850312156150df578182fd5b8235915060208301356001600160401b0381168114614db1578182fd5b600081518084526151148160208601602086016154d9565b601f01601f19169290920160200192915050565b6000825161513a8184602087016154d9565b9190910192915050565b7f416363657373436f6e74726f6c3a206163636f756e742000000000000000000081526000835161517c8160178501602088016154d9565b7001034b99036b4b9b9b4b733903937b6329607d1b60179184019182015283516151ad8160288401602088016154d9565b01602801949350505050565b6001600160a01b039384168152919092166020820152604081019190915260600190565b6001600160a01b03929092168252602082015260400190565b60018060a01b0384168152826020820152606060408201526000614ef760608301846150fc565b60208152600061161160208301846150fc565b602080825260149082015273151bdad95b881b9bdd081c9959da5cdd195c995960621b604082015260600190565b60208082526021908201527f596f7520617265206e6f7420746865206f776e6572206f6620746865204e46546040820152602160f81b606082015260800190565b60208082526021908201527f796f7520617265206e6f7420746865206f776e6572206f6620746865204e46546040820152602160f81b606082015260800190565b60208082526010908201526f546f6b656e206973206c6f636b65642160801b604082015260600190565b600060a082018783526020878185015260a0604085015281875180845260c0860191508289019350845b818110156153595784516001600160a01b031683529383019391830191600101615334565b50506001600160a01b03969096166060850152505050608001529392505050565b8281526040602082015260006131e960408301846150fc565b6000610180820190508d82528c60208301528b60408301528a60608301528960808301528860a08301528760c08301528660e0830152856101008301528461012083015283610140830152600483106153fc57634e487b7160e01b600052602160045260246000fd5b826101608301529d9c50505050505050505050505050565b604051601f8201601f191681016001600160401b038111828210171561543c5761543c615532565b604052919050565b60006001600160401b0382111561545d5761545d615532565b50601f01601f191660200190565b6000821982111561547e5761547e61551c565b500190565b60008261549e57634e487b7160e01b81526012600452602481fd5b500490565b60008160001904831182151516156154bd576154bd61551c565b500290565b6000828210156154d4576154d461551c565b500390565b60005b838110156154f45781810151838201526020016154dc565b83811115613ad75750506000910152565b6000816155145761551461551c565b506000190190565b634e487b7160e01b600052601160045260246000fd5b634e487b7160e01b600052604160045260246000fd5b6001600160a01b038116811461473857600080fd5b801515811461473857600080fdfec55a74c743a5d6aff6a82963adf054e2367242c4a636870f26b8ee90910968d0eb4fd9f47c063b511700e1c8e94e2fa4088ffca1fdcef1e60edf1beecd1b2e64a2646970667358221220d71827f40358cd32e3025ec9d20069b4880cddeab09448461ab3860aed3da20464736f6c63430008040033",
  "devdoc": {
    "kind": "dev",
    "methods": {
      "getRoleAdmin(bytes32)": {
        "details": "Returns the admin role that controls `role`. See {grantRole} and {revokeRole}. To change a role's admin, use {_setRoleAdmin}."
      },
      "grantRole(bytes32,address)": {
        "details": "Grants `role` to `account`. If `account` had not been already granted `role`, emits a {RoleGranted} event. Requirements: - the caller must have ``role``'s admin role."
      },
      "hasRole(bytes32,address)": {
        "details": "Returns `true` if `account` has been granted `role`."
      },
      "renounceRole(bytes32,address)": {
        "details": "Revokes `role` from the calling account. Roles are often managed via {grantRole} and {revokeRole}: this function's purpose is to provide a mechanism for accounts to lose their privileges if they are compromised (such as when a trusted device is misplaced). If the calling account had been granted `role`, emits a {RoleRevoked} event. Requirements: - the caller must be `account`."
      },
      "revokeRole(bytes32,address)": {
        "details": "Revokes `role` from `account`. If `account` had been granted `role`, emits a {RoleRevoked} event. Requirements: - the caller must have ``role``'s admin role."
      },
      "supportsInterface(bytes4)": {
        "details": "See {IERC165-supportsInterface}."
      }
    },
    "stateVariables": {
      "_flips": {
        "details": "mapping the request id with the flip input data"
      },
      "changeNonces": {
        "details": "nonce to count the changes of an original collection token id      in order to avoid double change (with the second one keeping the synthetic playing)"
      },
      "jotsSupply": {
        "details": "ERC20 totalSupply (governance) parameter TODO: get from governance"
      },
      "nonces": {
        "details": "the nonce to avoid double verification (quantity of exits for original token id)"
      }
    },
    "version": 1
  },
  "userdoc": {
    "kind": "user",
    "methods": {
      "addLiquidityToPool(uint256)": {
        "notice": "add available liquidity for a given token to UniSwap pool"
      },
      "buyJotTokens(uint256,uint256)": {
        "notice": "allows the caller to buy jots using the Funding token"
      },
      "change(uint256,uint256,string,address)": {
        "notice": "change an NFT for another one of the same collection"
      },
      "claimLiquidityTokens(uint256,uint256)": {
        "notice": "Claim Liquidity Tokens"
      },
      "decreaseSellingSupply(uint256,uint256)": {
        "notice": "decrease selling supply for a given NFT caller must be the owner of the NFT"
      },
      "erc721address()": {
        "notice": "Synthetic NFT Address  for this collection"
      },
      "exitProtocol(uint256)": {
        "notice": "allows to exit the protocol (retrieve the token)"
      },
      "fundingTokenAddress()": {
        "notice": "funding token address"
      },
      "getAccruedReward(uint256)": {
        "notice": "returns the accrued reward by QuickSwap pool LP for a given fractionalization"
      },
      "getSyntheticNFTOwner(uint256)": {
        "notice": "Get the owner of the NFT"
      },
      "increaseSellingSupply(uint256,uint256)": {
        "notice": "increase selling supply for a given NFT caller must be the owner of the NFT"
      },
      "isSyntheticNFTCreated(uint256)": {
        "notice": "public function. Checks if an NFT has been already fractionalized"
      },
      "isSyntheticNFTFractionalised(uint256)": {
        "notice": "public function. Checks if an NFT has been already fractionalised."
      },
      "jotAddress()": {
        "notice": "jot Address for this collection"
      },
      "originalCollectionAddress()": {
        "notice": "address of the original collection"
      },
      "poolAddress()": {
        "notice": "returns the Quickswap pool address"
      },
      "register(uint256,uint256,uint256,address,string)": {
        "notice": "First it updates counter syntheticID++. Then:  generateSyntheticNFT(address, id)  Interacts with JOT contract for that address and: (a) Mints JotSupply (governance parameter) (b) Register ownerSupply (DO NOT SEND HIM/HER) (c) Register sellingSupply = (JotSupply-supplyToKeep)/2 (d) Register soldSupply = 0 (e) Register liquiditySupply = (JotSupply-supplyToKeep)/2. (f) Register liquiditySold = 0"
      },
      "removeLiquidityFromPool(uint256,address)": {
        "notice": "Remove liquidity from pool only callable by AuctionsManager"
      },
      "syntheticProtocolRouterAddress()": {
        "notice": "the address of the Protocol Router"
      },
      "tokens(uint256)": {
        "notice": "data for each token"
      },
      "updatePriceFraction(uint256,uint256)": {
        "notice": "update the price of a fraction for a given NFT caller must be the owner"
      },
      "verify(uint256)": {
        "notice": "This method calls chainlink oracle and verifies if the NFT has been locked on NFTVaultManager. In addition gets the metadata of the NFT"
      }
    },
    "version": 1
  },
  "storageLayout": {
    "storage": [
      {
        "astId": 2289,
        "contract": "contracts/polygon/implementations/SyntheticCollectionManager.sol:SyntheticCollectionManager",
        "label": "_roles",
        "offset": 0,
        "slot": "0",
        "type": "t_mapping(t_bytes32,t_struct(RoleData)2284_storage)"
      },
      {
        "astId": 5461,
        "contract": "contracts/polygon/implementations/SyntheticCollectionManager.sol:SyntheticCollectionManager",
        "label": "_initialized",
        "offset": 0,
        "slot": "1",
        "type": "t_bool"
      },
      {
        "astId": 5464,
        "contract": "contracts/polygon/implementations/SyntheticCollectionManager.sol:SyntheticCollectionManager",
        "label": "_initializing",
        "offset": 1,
        "slot": "1",
        "type": "t_bool"
      },
      {
        "astId": 21233,
        "contract": "contracts/polygon/implementations/SyntheticCollectionManager.sol:SyntheticCollectionManager",
        "label": "auctionsManagerAddress",
        "offset": 2,
        "slot": "1",
        "type": "t_address"
      },
      {
        "astId": 21236,
        "contract": "contracts/polygon/implementations/SyntheticCollectionManager.sol:SyntheticCollectionManager",
        "label": "jotsSupply",
        "offset": 0,
        "slot": "2",
        "type": "t_uint256"
      },
      {
        "astId": 21242,
        "contract": "contracts/polygon/implementations/SyntheticCollectionManager.sol:SyntheticCollectionManager",
        "label": "_flips",
        "offset": 0,
        "slot": "3",
        "type": "t_mapping(t_bytes32,t_struct(Flip)21166_storage)"
      },
      {
        "astId": 21246,
        "contract": "contracts/polygon/implementations/SyntheticCollectionManager.sol:SyntheticCollectionManager",
        "label": "_originalToSynthetic",
        "offset": 0,
        "slot": "4",
        "type": "t_mapping(t_uint256,t_uint256)"
      },
      {
        "astId": 21248,
        "contract": "contracts/polygon/implementations/SyntheticCollectionManager.sol:SyntheticCollectionManager",
        "label": "_swapAddress",
        "offset": 0,
        "slot": "5",
        "type": "t_address"
      },
      {
        "astId": 21251,
        "contract": "contracts/polygon/implementations/SyntheticCollectionManager.sol:SyntheticCollectionManager",
        "label": "tokenCounter",
        "offset": 0,
        "slot": "6",
        "type": "t_struct(Counter)8589_storage"
      },
      {
        "astId": 21254,
        "contract": "contracts/polygon/implementations/SyntheticCollectionManager.sol:SyntheticCollectionManager",
        "label": "syntheticProtocolRouterAddress",
        "offset": 0,
        "slot": "7",
        "type": "t_address"
      },
      {
        "astId": 21257,
        "contract": "contracts/polygon/implementations/SyntheticCollectionManager.sol:SyntheticCollectionManager",
        "label": "protocol",
        "offset": 0,
        "slot": "8",
        "type": "t_contract(ProtocolParameters)20079"
      },
      {
        "astId": 21260,
        "contract": "contracts/polygon/implementations/SyntheticCollectionManager.sol:SyntheticCollectionManager",
        "label": "originalCollectionAddress",
        "offset": 0,
        "slot": "9",
        "type": "t_address"
      },
      {
        "astId": 21263,
        "contract": "contracts/polygon/implementations/SyntheticCollectionManager.sol:SyntheticCollectionManager",
        "label": "jotAddress",
        "offset": 0,
        "slot": "10",
        "type": "t_address"
      },
      {
        "astId": 21266,
        "contract": "contracts/polygon/implementations/SyntheticCollectionManager.sol:SyntheticCollectionManager",
        "label": "fundingTokenAddress",
        "offset": 0,
        "slot": "11",
        "type": "t_address"
      },
      {
        "astId": 21272,
        "contract": "contracts/polygon/implementations/SyntheticCollectionManager.sol:SyntheticCollectionManager",
        "label": "tokens",
        "offset": 0,
        "slot": "12",
        "type": "t_mapping(t_uint256,t_struct(TokenData)21159_storage)"
      },
      {
        "astId": 21277,
        "contract": "contracts/polygon/implementations/SyntheticCollectionManager.sol:SyntheticCollectionManager",
        "label": "nonces",
        "offset": 0,
        "slot": "13",
        "type": "t_mapping(t_uint256,t_uint256)"
      },
      {
        "astId": 21283,
        "contract": "contracts/polygon/implementations/SyntheticCollectionManager.sol:SyntheticCollectionManager",
        "label": "changeNonces",
        "offset": 0,
        "slot": "14",
        "type": "t_mapping(t_uint256,t_struct(ChangeNonce)21173_storage)"
      },
      {
        "astId": 21289,
        "contract": "contracts/polygon/implementations/SyntheticCollectionManager.sol:SyntheticCollectionManager",
        "label": "ownersByNonce",
        "offset": 0,
        "slot": "15",
        "type": "t_mapping(t_uint256,t_mapping(t_uint256,t_address))"
      },
      {
        "astId": 21292,
        "contract": "contracts/polygon/implementations/SyntheticCollectionManager.sol:SyntheticCollectionManager",
        "label": "erc721address",
        "offset": 0,
        "slot": "16",
        "type": "t_address"
      },
      {
        "astId": 21294,
        "contract": "contracts/polygon/implementations/SyntheticCollectionManager.sol:SyntheticCollectionManager",
        "label": "jotPool",
        "offset": 0,
        "slot": "17",
        "type": "t_address"
      }
    ],
    "types": {
      "t_address": {
        "encoding": "inplace",
        "label": "address",
        "numberOfBytes": "20"
      },
      "t_bool": {
        "encoding": "inplace",
        "label": "bool",
        "numberOfBytes": "1"
      },
      "t_bytes32": {
        "encoding": "inplace",
        "label": "bytes32",
        "numberOfBytes": "32"
      },
      "t_contract(ProtocolParameters)20079": {
        "encoding": "inplace",
        "label": "contract ProtocolParameters",
        "numberOfBytes": "20"
      },
      "t_enum(State)20106": {
        "encoding": "inplace",
        "label": "enum State",
        "numberOfBytes": "1"
      },
      "t_mapping(t_address,t_bool)": {
        "encoding": "mapping",
        "key": "t_address",
        "label": "mapping(address => bool)",
        "numberOfBytes": "32",
        "value": "t_bool"
      },
      "t_mapping(t_bytes32,t_struct(Flip)21166_storage)": {
        "encoding": "mapping",
        "key": "t_bytes32",
        "label": "mapping(bytes32 => struct Flip)",
        "numberOfBytes": "32",
        "value": "t_struct(Flip)21166_storage"
      },
      "t_mapping(t_bytes32,t_struct(RoleData)2284_storage)": {
        "encoding": "mapping",
        "key": "t_bytes32",
        "label": "mapping(bytes32 => struct AccessControl.RoleData)",
        "numberOfBytes": "32",
        "value": "t_struct(RoleData)2284_storage"
      },
      "t_mapping(t_uint256,t_address)": {
        "encoding": "mapping",
        "key": "t_uint256",
        "label": "mapping(uint256 => address)",
        "numberOfBytes": "32",
        "value": "t_address"
      },
      "t_mapping(t_uint256,t_mapping(t_uint256,t_address))": {
        "encoding": "mapping",
        "key": "t_uint256",
        "label": "mapping(uint256 => mapping(uint256 => address))",
        "numberOfBytes": "32",
        "value": "t_mapping(t_uint256,t_address)"
      },
      "t_mapping(t_uint256,t_struct(ChangeNonce)21173_storage)": {
        "encoding": "mapping",
        "key": "t_uint256",
        "label": "mapping(uint256 => struct ChangeNonce)",
        "numberOfBytes": "32",
        "value": "t_struct(ChangeNonce)21173_storage"
      },
      "t_mapping(t_uint256,t_struct(TokenData)21159_storage)": {
        "encoding": "mapping",
        "key": "t_uint256",
        "label": "mapping(uint256 => struct TokenData)",
        "numberOfBytes": "32",
        "value": "t_struct(TokenData)21159_storage"
      },
      "t_mapping(t_uint256,t_uint256)": {
        "encoding": "mapping",
        "key": "t_uint256",
        "label": "mapping(uint256 => uint256)",
        "numberOfBytes": "32",
        "value": "t_uint256"
      },
      "t_struct(ChangeNonce)21173_storage": {
        "encoding": "inplace",
        "label": "struct ChangeNonce",
        "members": [
          {
            "astId": 21168,
            "contract": "contracts/polygon/implementations/SyntheticCollectionManager.sol:SyntheticCollectionManager",
            "label": "nonce",
            "offset": 0,
            "slot": "0",
            "type": "t_uint256"
          },
          {
            "astId": 21170,
            "contract": "contracts/polygon/implementations/SyntheticCollectionManager.sol:SyntheticCollectionManager",
            "label": "newTokenId",
            "offset": 0,
            "slot": "1",
            "type": "t_uint256"
          },
          {
            "astId": 21172,
            "contract": "contracts/polygon/implementations/SyntheticCollectionManager.sol:SyntheticCollectionManager",
            "label": "owner",
            "offset": 0,
            "slot": "2",
            "type": "t_address"
          }
        ],
        "numberOfBytes": "96"
      },
      "t_struct(Counter)8589_storage": {
        "encoding": "inplace",
        "label": "struct Counters.Counter",
        "members": [
          {
            "astId": 8588,
            "contract": "contracts/polygon/implementations/SyntheticCollectionManager.sol:SyntheticCollectionManager",
            "label": "_value",
            "offset": 0,
            "slot": "0",
            "type": "t_uint256"
          }
        ],
        "numberOfBytes": "32"
      },
      "t_struct(Flip)21166_storage": {
        "encoding": "inplace",
        "label": "struct Flip",
        "members": [
          {
            "astId": 21161,
            "contract": "contracts/polygon/implementations/SyntheticCollectionManager.sol:SyntheticCollectionManager",
            "label": "tokenId",
            "offset": 0,
            "slot": "0",
            "type": "t_uint256"
          },
          {
            "astId": 21163,
            "contract": "contracts/polygon/implementations/SyntheticCollectionManager.sol:SyntheticCollectionManager",
            "label": "prediction",
            "offset": 0,
            "slot": "1",
            "type": "t_uint64"
          },
          {
            "astId": 21165,
            "contract": "contracts/polygon/implementations/SyntheticCollectionManager.sol:SyntheticCollectionManager",
            "label": "player",
            "offset": 8,
            "slot": "1",
            "type": "t_address"
          }
        ],
        "numberOfBytes": "64"
      },
      "t_struct(RoleData)2284_storage": {
        "encoding": "inplace",
        "label": "struct AccessControl.RoleData",
        "members": [
          {
            "astId": 2281,
            "contract": "contracts/polygon/implementations/SyntheticCollectionManager.sol:SyntheticCollectionManager",
            "label": "members",
            "offset": 0,
            "slot": "0",
            "type": "t_mapping(t_address,t_bool)"
          },
          {
            "astId": 2283,
            "contract": "contracts/polygon/implementations/SyntheticCollectionManager.sol:SyntheticCollectionManager",
            "label": "adminRole",
            "offset": 0,
            "slot": "1",
            "type": "t_bytes32"
          }
        ],
        "numberOfBytes": "64"
      },
      "t_struct(TokenData)21159_storage": {
        "encoding": "inplace",
        "label": "struct TokenData",
        "members": [
          {
            "astId": 21135,
            "contract": "contracts/polygon/implementations/SyntheticCollectionManager.sol:SyntheticCollectionManager",
            "label": "originalTokenID",
            "offset": 0,
            "slot": "0",
            "type": "t_uint256"
          },
          {
            "astId": 21137,
            "contract": "contracts/polygon/implementations/SyntheticCollectionManager.sol:SyntheticCollectionManager",
            "label": "ownerSupply",
            "offset": 0,
            "slot": "1",
            "type": "t_uint256"
          },
          {
            "astId": 21139,
            "contract": "contracts/polygon/implementations/SyntheticCollectionManager.sol:SyntheticCollectionManager",
            "label": "sellingSupply",
            "offset": 0,
            "slot": "2",
            "type": "t_uint256"
          },
          {
            "astId": 21141,
            "contract": "contracts/polygon/implementations/SyntheticCollectionManager.sol:SyntheticCollectionManager",
            "label": "soldSupply",
            "offset": 0,
            "slot": "3",
            "type": "t_uint256"
          },
          {
            "astId": 21143,
            "contract": "contracts/polygon/implementations/SyntheticCollectionManager.sol:SyntheticCollectionManager",
            "label": "liquiditySupply",
            "offset": 0,
            "slot": "4",
            "type": "t_uint256"
          },
          {
            "astId": 21145,
            "contract": "contracts/polygon/implementations/SyntheticCollectionManager.sol:SyntheticCollectionManager",
            "label": "liquiditySold",
            "offset": 0,
            "slot": "5",
            "type": "t_uint256"
          },
          {
            "astId": 21147,
            "contract": "contracts/polygon/implementations/SyntheticCollectionManager.sol:SyntheticCollectionManager",
            "label": "fractionPrices",
            "offset": 0,
            "slot": "6",
            "type": "t_uint256"
          },
          {
            "astId": 21149,
            "contract": "contracts/polygon/implementations/SyntheticCollectionManager.sol:SyntheticCollectionManager",
            "label": "lastFlipTime",
            "offset": 0,
            "slot": "7",
            "type": "t_uint256"
          },
          {
            "astId": 21151,
            "contract": "contracts/polygon/implementations/SyntheticCollectionManager.sol:SyntheticCollectionManager",
            "label": "liquidityTokenBalance",
            "offset": 0,
            "slot": "8",
            "type": "t_uint256"
          },
          {
            "astId": 21153,
            "contract": "contracts/polygon/implementations/SyntheticCollectionManager.sol:SyntheticCollectionManager",
            "label": "UniswapJotLiquidity",
            "offset": 0,
            "slot": "9",
            "type": "t_uint256"
          },
          {
            "astId": 21155,
            "contract": "contracts/polygon/implementations/SyntheticCollectionManager.sol:SyntheticCollectionManager",
            "label": "UniswapFundingLiquidity",
            "offset": 0,
            "slot": "10",
            "type": "t_uint256"
          },
          {
            "astId": 21158,
            "contract": "contracts/polygon/implementations/SyntheticCollectionManager.sol:SyntheticCollectionManager",
            "label": "state",
            "offset": 0,
            "slot": "11",
            "type": "t_enum(State)20106"
          }
        ],
        "numberOfBytes": "384"
      },
      "t_uint256": {
        "encoding": "inplace",
        "label": "uint256",
        "numberOfBytes": "32"
      },
      "t_uint64": {
        "encoding": "inplace",
        "label": "uint64",
        "numberOfBytes": "8"
      }
    }
  }
}