{
  "address": "0x31dd089352fe52a68161FD6cE8019A7675291024",
  "abi": [
    {
      "inputs": [
        {
          "internalType": "address",
          "name": "swapAddress_",
          "type": "address"
        },
        {
          "internalType": "address",
          "name": "jot_",
          "type": "address"
        },
        {
          "internalType": "address",
          "name": "jotPool_",
          "type": "address"
        },
        {
          "internalType": "address",
          "name": "collectionManager_",
          "type": "address"
        },
        {
          "internalType": "address",
          "name": "syntheticNFT_",
          "type": "address"
        },
        {
          "internalType": "address",
          "name": "auctionManager_",
          "type": "address"
        },
        {
          "internalType": "address",
          "name": "protocol_",
          "type": "address"
        },
        {
          "internalType": "address",
          "name": "fundingTokenAddress_",
          "type": "address"
        },
        {
          "internalType": "address",
          "name": "randomConsumerAddress_",
          "type": "address"
        },
        {
          "internalType": "address",
          "name": "perpetualPoolLiteAddress_",
          "type": "address"
        },
        {
          "internalType": "address",
          "name": "oracleAddress_",
          "type": "address"
        }
      ],
      "stateMutability": "nonpayable",
      "type": "constructor"
    },
    {
      "anonymous": false,
      "inputs": [
        {
          "indexed": false,
          "internalType": "uint256",
          "name": "collectionManagerID",
          "type": "uint256"
        },
        {
          "indexed": false,
          "internalType": "address",
          "name": "collectionManagerAddress",
          "type": "address"
        },
        {
          "indexed": false,
          "internalType": "address",
          "name": "jotAddress",
          "type": "address"
        },
        {
          "indexed": false,
          "internalType": "address",
          "name": "jotPoolAddress",
          "type": "address"
        },
        {
          "indexed": false,
          "internalType": "address",
          "name": "syntheticNFTAddress",
          "type": "address"
        },
        {
          "indexed": false,
          "internalType": "address",
          "name": "quickSwapAddress",
          "type": "address"
        },
        {
          "indexed": false,
          "internalType": "address",
          "name": "auctionAddress",
          "type": "address"
        }
      ],
      "name": "CollectionManagerRegistered",
      "type": "event"
    },
    {
      "anonymous": false,
      "inputs": [
        {
          "indexed": true,
          "internalType": "address",
          "name": "previousOwner",
          "type": "address"
        },
        {
          "indexed": true,
          "internalType": "address",
          "name": "newOwner",
          "type": "address"
        }
      ],
      "name": "OwnershipTransferred",
      "type": "event"
    },
    {
      "anonymous": false,
      "inputs": [
        {
          "indexed": true,
          "internalType": "bytes32",
          "name": "role",
          "type": "bytes32"
        },
        {
          "indexed": true,
          "internalType": "bytes32",
          "name": "previousAdminRole",
          "type": "bytes32"
        },
        {
          "indexed": true,
          "internalType": "bytes32",
          "name": "newAdminRole",
          "type": "bytes32"
        }
      ],
      "name": "RoleAdminChanged",
      "type": "event"
    },
    {
      "anonymous": false,
      "inputs": [
        {
          "indexed": true,
          "internalType": "bytes32",
          "name": "role",
          "type": "bytes32"
        },
        {
          "indexed": true,
          "internalType": "address",
          "name": "account",
          "type": "address"
        },
        {
          "indexed": true,
          "internalType": "address",
          "name": "sender",
          "type": "address"
        }
      ],
      "name": "RoleGranted",
      "type": "event"
    },
    {
      "anonymous": false,
      "inputs": [
        {
          "indexed": true,
          "internalType": "bytes32",
          "name": "role",
          "type": "bytes32"
        },
        {
          "indexed": true,
          "internalType": "address",
          "name": "account",
          "type": "address"
        },
        {
          "indexed": true,
          "internalType": "address",
          "name": "sender",
          "type": "address"
        }
      ],
      "name": "RoleRevoked",
      "type": "event"
    },
    {
      "anonymous": false,
      "inputs": [
        {
          "indexed": false,
          "internalType": "address",
          "name": "collectionManagerAddress",
          "type": "address"
        },
        {
          "indexed": false,
          "internalType": "uint256",
          "name": "collectionManagerID",
          "type": "uint256"
        },
        {
          "indexed": false,
          "internalType": "uint256",
          "name": "syntheticTokenId",
          "type": "uint256"
        }
      ],
      "name": "TokenRegistered",
      "type": "event"
    },
    {
      "inputs": [],
      "name": "DEFAULT_ADMIN_ROLE",
      "outputs": [
        {
          "internalType": "bytes32",
          "name": "",
          "type": "bytes32"
        }
      ],
      "stateMutability": "view",
      "type": "function"
    },
    {
      "inputs": [],
      "name": "ORACLE",
      "outputs": [
        {
          "internalType": "bytes32",
          "name": "",
          "type": "bytes32"
        }
      ],
      "stateMutability": "view",
      "type": "function"
    },
    {
      "inputs": [
        {
          "internalType": "address",
          "name": "collection",
          "type": "address"
        }
      ],
      "name": "getCollectionID",
      "outputs": [
        {
          "internalType": "uint256",
          "name": "",
          "type": "uint256"
        }
      ],
      "stateMutability": "view",
      "type": "function"
    },
    {
      "inputs": [
        {
          "internalType": "address",
          "name": "collection",
          "type": "address"
        }
      ],
      "name": "getCollectionManagerAddress",
      "outputs": [
        {
          "internalType": "address",
          "name": "",
          "type": "address"
        }
      ],
      "stateMutability": "view",
      "type": "function"
    },
    {
      "inputs": [
        {
          "internalType": "uint256",
          "name": "collectionID",
          "type": "uint256"
        }
      ],
      "name": "getCollectionManagerAddress",
      "outputs": [
        {
          "internalType": "address",
          "name": "",
          "type": "address"
        }
      ],
      "stateMutability": "view",
      "type": "function"
    },
    {
      "inputs": [
        {
          "internalType": "address",
          "name": "collection",
          "type": "address"
        }
      ],
      "name": "getJotPoolAddress",
      "outputs": [
        {
          "internalType": "address",
          "name": "",
          "type": "address"
        }
      ],
      "stateMutability": "view",
      "type": "function"
    },
    {
      "inputs": [
        {
          "internalType": "address",
          "name": "collection",
          "type": "address"
        }
      ],
      "name": "getJotsAddress",
      "outputs": [
        {
          "internalType": "address",
          "name": "",
          "type": "address"
        }
      ],
      "stateMutability": "view",
      "type": "function"
    },
    {
      "inputs": [
        {
          "internalType": "uint256",
          "name": "collectionID",
          "type": "uint256"
        }
      ],
      "name": "getOriginalCollectionAddress",
      "outputs": [
        {
          "internalType": "address",
          "name": "",
          "type": "address"
        }
      ],
      "stateMutability": "view",
      "type": "function"
    },
    {
      "inputs": [
        {
          "internalType": "bytes32",
          "name": "role",
          "type": "bytes32"
        }
      ],
      "name": "getRoleAdmin",
      "outputs": [
        {
          "internalType": "bytes32",
          "name": "",
          "type": "bytes32"
        }
      ],
      "stateMutability": "view",
      "type": "function"
    },
    {
      "inputs": [
        {
          "internalType": "bytes32",
          "name": "role",
          "type": "bytes32"
        },
        {
          "internalType": "address",
          "name": "account",
          "type": "address"
        }
      ],
      "name": "grantRole",
      "outputs": [],
      "stateMutability": "nonpayable",
      "type": "function"
    },
    {
      "inputs": [
        {
          "internalType": "bytes32",
          "name": "role",
          "type": "bytes32"
        },
        {
          "internalType": "address",
          "name": "account",
          "type": "address"
        }
      ],
      "name": "hasRole",
      "outputs": [
        {
          "internalType": "bool",
          "name": "",
          "type": "bool"
        }
      ],
      "stateMutability": "view",
      "type": "function"
    },
    {
      "inputs": [
        {
          "internalType": "address",
          "name": "collection",
          "type": "address"
        },
        {
          "internalType": "uint256",
          "name": "tokenId",
          "type": "uint256"
        }
      ],
      "name": "isNFTVerified",
      "outputs": [
        {
          "internalType": "bool",
          "name": "",
          "type": "bool"
        }
      ],
      "stateMutability": "view",
      "type": "function"
    },
    {
      "inputs": [
        {
          "internalType": "address",
          "name": "collection",
          "type": "address"
        }
      ],
      "name": "isSyntheticCollectionRegistered",
      "outputs": [
        {
          "internalType": "bool",
          "name": "",
          "type": "bool"
        }
      ],
      "stateMutability": "view",
      "type": "function"
    },
    {
      "inputs": [
        {
          "internalType": "address",
          "name": "collection",
          "type": "address"
        },
        {
          "internalType": "uint256",
          "name": "tokenId",
          "type": "uint256"
        }
      ],
      "name": "isSyntheticNFTCreated",
      "outputs": [
        {
          "internalType": "bool",
          "name": "",
          "type": "bool"
        }
      ],
      "stateMutability": "view",
      "type": "function"
    },
    {
      "inputs": [],
      "name": "oracleAddress",
      "outputs": [
        {
          "internalType": "address",
          "name": "",
          "type": "address"
        }
      ],
      "stateMutability": "view",
      "type": "function"
    },
    {
      "inputs": [],
      "name": "owner",
      "outputs": [
        {
          "internalType": "address",
          "name": "",
          "type": "address"
        }
      ],
      "stateMutability": "view",
      "type": "function"
    },
    {
      "inputs": [],
      "name": "protocolVaults",
      "outputs": [
        {
          "internalType": "uint256",
          "name": "_value",
          "type": "uint256"
        }
      ],
      "stateMutability": "view",
      "type": "function"
    },
    {
      "inputs": [
        {
          "internalType": "address",
          "name": "collection",
          "type": "address"
        },
        {
          "internalType": "uint256",
          "name": "tokenId",
          "type": "uint256"
        },
        {
          "internalType": "uint256",
          "name": "supplyToKeep",
          "type": "uint256"
        },
        {
          "internalType": "uint256",
          "name": "priceFraction",
          "type": "uint256"
        },
        {
          "internalType": "string",
          "name": "originalName",
          "type": "string"
        },
        {
          "internalType": "string",
          "name": "originalSymbol",
          "type": "string"
        }
      ],
      "name": "registerNFT",
      "outputs": [],
      "stateMutability": "nonpayable",
      "type": "function"
    },
    {
      "inputs": [],
      "name": "renounceOwnership",
      "outputs": [],
      "stateMutability": "nonpayable",
      "type": "function"
    },
    {
      "inputs": [
        {
          "internalType": "bytes32",
          "name": "role",
          "type": "bytes32"
        },
        {
          "internalType": "address",
          "name": "account",
          "type": "address"
        }
      ],
      "name": "renounceRole",
      "outputs": [],
      "stateMutability": "nonpayable",
      "type": "function"
    },
    {
      "inputs": [
        {
          "internalType": "bytes32",
          "name": "role",
          "type": "bytes32"
        },
        {
          "internalType": "address",
          "name": "account",
          "type": "address"
        }
      ],
      "name": "revokeRole",
      "outputs": [],
      "stateMutability": "nonpayable",
      "type": "function"
    },
    {
      "inputs": [
        {
          "internalType": "bytes4",
          "name": "interfaceId",
          "type": "bytes4"
        }
      ],
      "name": "supportsInterface",
      "outputs": [
        {
          "internalType": "bool",
          "name": "",
          "type": "bool"
        }
      ],
      "stateMutability": "view",
      "type": "function"
    },
    {
      "inputs": [],
      "name": "swapAddress",
      "outputs": [
        {
          "internalType": "address",
          "name": "",
          "type": "address"
        }
      ],
      "stateMutability": "view",
      "type": "function"
    },
    {
      "inputs": [
        {
          "internalType": "address",
          "name": "newOwner",
          "type": "address"
        }
      ],
      "name": "transferOwnership",
      "outputs": [],
      "stateMutability": "nonpayable",
      "type": "function"
    },
    {
      "inputs": [
        {
          "internalType": "address",
          "name": "collection",
          "type": "address"
        },
        {
          "internalType": "uint256",
          "name": "tokenId",
          "type": "uint256"
        }
      ],
      "name": "verifyNFT",
      "outputs": [],
      "stateMutability": "nonpayable",
      "type": "function"
    }
  ],
  "transactionHash": "0x92eaff33b975bcae39d3d5a3ce878e986fed98c2afc81afcadd25f9e8086db8f",
  "args": [
    "0x4CeBfcDA07A08B1C7169E5eb77AC117FF87EEae9",
    "0x2d78C028cD5357c33f7307a65c48afa8aCaADbA7",
    "0xD0EA600841Dcae540266e9855021487eD355D04C",
    "0xE3D20D6B89B5603e66b4625778fc85226FAf00D7",
    "0x15cC5745b2374510A99222a843bed116ad6Cd9D7",
    "0x0B7D487B2E998eC1dD73A45f430d3EFc72Ff660E",
    "0x4b12F013EecD7646da87d2f9aeBb489c9464F874",
    "0x2d78C028cD5357c33f7307a65c48afa8aCaADbA7",
    "0x81A5366C31eC96dA376fb078367B56421afE517B",
    "0xE409e138362Ea53125e46732f17d4E758c06dDEe",
    "0xC5324aE5b70712F24602b5b2b13618356c44B965"
  ],
  "solcInputHash": "b678ce448aaf9d1f33edf54bd5af6af5",
  "bytecode": "0x60806040523480156200001157600080fd5b506040516200214538038062002145833981016040819052620000349162000239565b6200003f336200011a565b600f80546001600160a01b03199081166001600160a01b038e8116919091179092556002805482168d84161790556003805482168c84161790556004805482168b84161790556005805482168a8416179055600680548216898416179055600780548216888416179055600880548216878416179055600980548216868416179055600a80548216858416179055600b8054909116918316919091179055620001097f352d05fe3946dbe49277552ba941e744d5a96d9c60bc1ba0ea5f1d3ae000f7c8826200016c565b50505050505050505050506200031b565b600180546001600160a01b038381166001600160a01b0319831681179093556040519116919082907f8be0079c531659141344cd1fd0a4f28419497f9722a3daafe3b4186f6b6457e090600090a35050565b6200017882826200017c565b5050565b6000828152602081815260408083206001600160a01b038516845290915290205460ff1662000178576000828152602081815260408083206001600160a01b03851684529091529020805460ff19166001179055620001d83390565b6001600160a01b0316816001600160a01b0316837f2f8788117e7eff1d82e926ec794901d17c78024a50270940304540a733656f0d60405160405180910390a45050565b80516001600160a01b03811681146200023457600080fd5b919050565b60008060008060008060008060008060006101608c8e0312156200025b578687fd5b620002668c6200021c565b9a506200027660208d016200021c565b99506200028660408d016200021c565b98506200029660608d016200021c565b9750620002a660808d016200021c565b9650620002b660a08d016200021c565b9550620002c660c08d016200021c565b9450620002d660e08d016200021c565b9350620002e76101008d016200021c565b9250620002f86101208d016200021c565b9150620003096101408d016200021c565b90509295989b509295989b9093969950565b611e1a806200032b6000396000f3fe608060405234801561001057600080fd5b50600436106101735760003560e01c80637690aff6116100de578063a89ae4ba11610097578063d33b1d9311610071578063d33b1d93146103e5578063d547741f14610422578063f1edbfa514610435578063f2fde38b1461044857600080fd5b8063a89ae4ba1461038e578063c3e7e12d146103a1578063cf479511146103b457600080fd5b80637690aff61461032957806380f6d7821461033c5780638da5cb5b1461034f57806391d148541461036057806398a3398414610373578063a217fddf1461038657600080fd5b806338013f021161013057806338013f0214610244578063509f64501461026b57806356f4f1f01461029a578063622203be146102c9578063715018a6146102f25780637546d985146102fa57600080fd5b806301ffc9a71461017857806306c8d971146101a05780630be68a71146101b8578063248a9ca3146101f95780632f2ff15d1461021c57806336568abe14610231575b600080fd5b61018b610186366004611ac5565b61045b565b60405190151581526020015b60405180910390f35b600e546101aa9081565b604051908152602001610197565b6101e16101c6366004611a66565b6000908152600d60205260409020546001600160a01b031690565b6040516001600160a01b039091168152602001610197565b6101aa610207366004611a66565b60009081526020819052604090206001015490565b61022f61022a366004611a96565b610492565b005b61022f61023f366004611a96565b6104bd565b6101aa7f352d05fe3946dbe49277552ba941e744d5a96d9c60bc1ba0ea5f1d3ae000f7c881565b6101e1610279366004611954565b6001600160a01b039081166000908152600c60205260409020600301541690565b6101e16102a8366004611954565b6001600160a01b039081166000908152600c60205260409020600101541690565b6101aa6102d7366004611954565b6001600160a01b03166000908152600c602052604090205490565b61022f610540565b6101e1610308366004611954565b6001600160a01b039081166000908152600c60205260409020600201541690565b61018b61033736600461198c565b6105a6565b600f546101e1906001600160a01b031681565b6001546001600160a01b03166101e1565b61018b61036e366004611a96565b610696565b61022f6103813660046119b7565b6106bf565b6101aa600081565b600b546101e1906001600160a01b031681565b61018b6103af36600461198c565b6110a9565b61018b6103c2366004611954565b6001600160a01b039081166000908152600c602052604090206001015416151590565b6101e16103f3366004611a66565b6000908152600d60209081526040808320546001600160a01b039081168452600c909252909120600101541690565b61022f610430366004611a96565b611225565b61022f61044336600461198c565b61124b565b61022f610456366004611954565b611344565b60006001600160e01b03198216637965db0b60e01b148061048c57506301ffc9a760e01b6001600160e01b03198316145b92915050565b6000828152602081905260409020600101546104ae813361140f565b6104b88383611473565b505050565b6001600160a01b03811633146105325760405162461bcd60e51b815260206004820152602f60248201527f416363657373436f6e74726f6c3a2063616e206f6e6c792072656e6f756e636560448201526e103937b632b9903337b91039b2b63360891b60648201526084015b60405180910390fd5b61053c82826114f7565b5050565b6001546001600160a01b0316331461059a5760405162461bcd60e51b815260206004820181905260248201527f4f776e61626c653a2063616c6c6572206973206e6f7420746865206f776e65726044820152606401610529565b6105a4600061155c565b565b60006105b283836110a9565b6105f35760405162461bcd60e51b8152602060048201526012602482015271139195081b9bdd081c9959da5cdd195c995960721b6044820152606401610529565b6001600160a01b038084166000908152600c60205260408120600101549091166040516337b6d96b60e01b8152600481018590529091506001600160a01b038216906337b6d96b9060240160206040518083038186803b15801561065657600080fd5b505afa15801561066a573d6000803e3d6000fd5b505050506040513d601f19601f8201168201806040525081019061068e9190611a46565b949350505050565b6000918252602082815260408084206001600160a01b0393909316845291905290205460ff1690565b6001600160a01b03861661070a5760405162461bcd60e51b815260206004820152601260248201527124b73b30b634b21031b7b63632b1ba34b7b760711b6044820152606401610529565b600080610716600e5490565b6001600160a01b03808a166000908152600c602052604090206001015491925016610fc857600254600090610753906001600160a01b03166115ae565b9050806001600160a01b0316638f15b414866040516020016107759190611b19565b604051602081830303815290604052866040516020016107959190611c23565b60408051808303601f1901815290829052600f5460085460e086901b6001600160e01b03191684526107da94936001600160a01b039283169290911690600401611ca0565b600060405180830381600087803b1580156107f457600080fd5b505af1158015610808573d6000803e3d6000fd5b50506003546000925061082491506001600160a01b03166115ae565b60405163189acdbd60e31b81526001600160a01b0384811660048301529192509082169063c4d66de890602401600060405180830381600087803b15801561086b57600080fd5b505af115801561087f573d6000803e3d6000fd5b50506005546000925061089b91506001600160a01b03166115ae565b6004549091506108b3906001600160a01b03166115ae565b94506000859050806001600160a01b03166335876476858e85600660009054906101000a90046001600160a01b0316600760009054906101000a90046001600160a01b0316600860009054906101000a90046001600160a01b03168a6040518863ffffffff1660e01b815260040161096d97969594939291906001600160a01b03978816815295871660208701529386166040860152918516606085015284166080840152831660a083015290911660c082015260e00190565b600060405180830381600087803b15801561098757600080fd5b505af115801561099b573d6000803e3d6000fd5b505060065460408051630e61f93f60e01b815290516001600160a01b039092169350632f2ff15d92508391630e61f93f91600480820192602092909190829003018186803b1580156109ec57600080fd5b505afa158015610a00573d6000803e3d6000fd5b505050506040513d601f19601f82011682018060405250810190610a249190611a7e565b6040516001600160e01b031960e084901b16815260048101919091526001600160a01b0389166024820152604401600060405180830381600087803b158015610a6c57600080fd5b505af1158015610a80573d6000803e3d6000fd5b50505050806001600160a01b0316632f2ff15d826001600160a01b03166358e8bcb76040518163ffffffff1660e01b815260040160206040518083038186803b158015610acc57600080fd5b505afa158015610ae0573d6000803e3d6000fd5b505050506040513d601f19601f82011682018060405250810190610b049190611a7e565b60095460405160e084901b6001600160e01b031916815260048101929092526001600160a01b03166024820152604401600060405180830381600087803b158015610b4e57600080fd5b505af1158015610b62573d6000803e3d6000fd5b50505050836001600160a01b0316632f2ff15d856001600160a01b031663fe6d81246040518163ffffffff1660e01b815260040160206040518083038186803b158015610bae57600080fd5b505afa158015610bc2573d6000803e3d6000fd5b505050506040513d601f19601f82011682018060405250810190610be69190611a7e565b6040516001600160e01b031960e084901b16815260048101919091526001600160a01b0389166024820152604401600060405180830381600087803b158015610c2e57600080fd5b505af1158015610c42573d6000803e3d6000fd5b5050604051635df8122f60e01b81526001600160a01b038981166004830152868116602483015287169250635df8122f9150604401600060405180830381600087803b158015610c9157600080fd5b505af1158015610ca5573d6000803e3d6000fd5b50505050816001600160a01b031663077f224a89604051602001610cc99190611b76565b60405160208183030381529060405289604051602001610ce99190611b4b565b604051602081830303815290604052896040518463ffffffff1660e01b8152600401610d1793929190611c62565b600060405180830381600087803b158015610d3157600080fd5b505af1158015610d45573d6000803e3d6000fd5b505050506040518060e00160405280868152602001876001600160a01b03168152602001856001600160a01b03168152602001846001600160a01b03168152602001836001600160a01b0316815260200189815260200188815250600c60008e6001600160a01b03166001600160a01b031681526020019081526020016000206000820151816000015560208201518160010160006101000a8154816001600160a01b0302191690836001600160a01b0316021790555060408201518160020160006101000a8154816001600160a01b0302191690836001600160a01b0316021790555060608201518160030160006101000a8154816001600160a01b0302191690836001600160a01b0316021790555060808201518160040160006101000a8154816001600160a01b0302191690836001600160a01b0316021790555060a0820151816005019080519060200190610e9f929190611834565b5060c08201518051610ebb916006840191602090910190611834565b5050506000858152600d60205260409081902080546001600160a01b0319166001600160a01b038981169182179092556009549251636085579360e11b8152600481019190915291169063c10aaf2690602401600060405180830381600087803b158015610f2857600080fd5b505af1158015610f3c573d6000803e3d6000fd5b5050600f54600654604080518a81526001600160a01b038c811660208301528a8116828401528981166060830152888116608083015293841660a08201529290911660c0830152517fdb595a2e01de1a3565029850b15a01fe70d01ff6821102bf11662390f1adf9b393509081900360e0019150a1610fbf600e80546001019055565b50505050610fe9565b6001600160a01b038089166000908152600c60205260409020600101541691505b604051633ea9715960e21b815260048101889052602481018790526044810186905282906001600160a01b0382169063faa5c56490606401600060405180830381600087803b15801561103b57600080fd5b505af115801561104f573d6000803e3d6000fd5b5050604080516001600160a01b0387168152602081018690529081018b90527f74700b9b42b2dd56732c1bf098db59ffb8e972345b7d1d6dc2fe9cbca8bc22ec9250606001905060405180910390a1505050505050505050565b6001600160a01b038083166000908152600c60205260408120600101549091166111155760405162461bcd60e51b815260206004820152601960248201527f436f6c6c656374696f6e206e6f742072656769737465726564000000000000006044820152606401610529565b6001600160a01b038084166000908152600c60209081526040808320600101548151634c4b206b60e01b815291519416938492634c4b206b9260048082019391829003018186803b15801561116957600080fd5b505afa15801561117d573d6000803e3d6000fd5b505050506040513d601f19601f820116820180604052508101906111a19190611970565b604051634f558e7960e01b8152600481018690529091506001600160a01b03821690634f558e799060240160206040518083038186803b1580156111e457600080fd5b505afa1580156111f8573d6000803e3d6000fd5b505050506040513d601f19601f8201168201806040525081019061121c9190611a46565b95945050505050565b600082815260208190526040902060010154611241813361140f565b6104b883836114f7565b7f352d05fe3946dbe49277552ba941e744d5a96d9c60bc1ba0ea5f1d3ae000f7c8611276813361140f565b61128083836110a9565b6112c15760405162461bcd60e51b8152602060048201526012602482015271139195081b9bdd081c9959da5cdd195c995960721b6044820152606401610529565b6001600160a01b038084166000908152600c6020526040812060010154909116604051638753367f60e01b8152600481018590529091506001600160a01b03821690638753367f90602401600060405180830381600087803b15801561132657600080fd5b505af115801561133a573d6000803e3d6000fd5b5050505050505050565b6001546001600160a01b0316331461139e5760405162461bcd60e51b815260206004820181905260248201527f4f776e61626c653a2063616c6c6572206973206e6f7420746865206f776e65726044820152606401610529565b6001600160a01b0381166114035760405162461bcd60e51b815260206004820152602660248201527f4f776e61626c653a206e6577206f776e657220697320746865207a65726f206160448201526564647265737360d01b6064820152608401610529565b61140c8161155c565b50565b6114198282610696565b61053c57611431816001600160a01b0316601461164b565b61143c83602061164b565b60405160200161144d929190611bae565b60408051601f198184030181529082905262461bcd60e51b825261052991600401611c4f565b61147d8282610696565b61053c576000828152602081815260408083206001600160a01b03851684529091529020805460ff191660011790556114b33390565b6001600160a01b0316816001600160a01b0316837f2f8788117e7eff1d82e926ec794901d17c78024a50270940304540a733656f0d60405160405180910390a45050565b6115018282610696565b1561053c576000828152602081815260408083206001600160a01b0385168085529252808320805460ff1916905551339285917ff6391f5c32d9c69d2a47ea670b442974b53935d1edc7fd64eb21e047a839171b9190a45050565b600180546001600160a01b038381166001600160a01b0319831681179093556040519116919082907f8be0079c531659141344cd1fd0a4f28419497f9722a3daafe3b4186f6b6457e090600090a35050565b6000604051733d602d80600a3d3981f3363d3d373d3d3d363d7360601b81528260601b60148201526e5af43d82803e903d91602b57fd5bf360881b60288201526037816000f09150506001600160a01b0381166116465760405162461bcd60e51b8152602060048201526016602482015275115490cc4c4d8dce8818dc99585d194819985a5b195960521b6044820152606401610529565b919050565b6060600061165a836002611d02565b611665906002611cea565b67ffffffffffffffff81111561168b57634e487b7160e01b600052604160045260246000fd5b6040519080825280601f01601f1916602001820160405280156116b5576020820181803683370190505b509050600360fc1b816000815181106116de57634e487b7160e01b600052603260045260246000fd5b60200101906001600160f81b031916908160001a905350600f60fb1b8160018151811061171b57634e487b7160e01b600052603260045260246000fd5b60200101906001600160f81b031916908160001a905350600061173f846002611d02565b61174a906001611cea565b90505b60018111156117de576f181899199a1a9b1b9c1cb0b131b232b360811b85600f166010811061178c57634e487b7160e01b600052603260045260246000fd5b1a60f81b8282815181106117b057634e487b7160e01b600052603260045260246000fd5b60200101906001600160f81b031916908160001a90535060049490941c936117d781611d51565b905061174d565b50831561182d5760405162461bcd60e51b815260206004820181905260248201527f537472696e67733a20686578206c656e67746820696e73756666696369656e746044820152606401610529565b9392505050565b82805461184090611d68565b90600052602060002090601f01602090048101928261186257600085556118a8565b82601f1061187b57805160ff19168380011785556118a8565b828001600101855582156118a8579182015b828111156118a857825182559160200191906001019061188d565b506118b49291506118b8565b5090565b5b808211156118b457600081556001016118b9565b600082601f8301126118dd578081fd5b813567ffffffffffffffff808211156118f8576118f8611db9565b604051601f8301601f19908116603f0116810190828211818310171561192057611920611db9565b81604052838152866020858801011115611938578485fd5b8360208701602083013792830160200193909352509392505050565b600060208284031215611965578081fd5b813561182d81611dcf565b600060208284031215611981578081fd5b815161182d81611dcf565b6000806040838503121561199e578081fd5b82356119a981611dcf565b946020939093013593505050565b60008060008060008060c087890312156119cf578182fd5b86356119da81611dcf565b9550602087013594506040870135935060608701359250608087013567ffffffffffffffff80821115611a0b578384fd5b611a178a838b016118cd565b935060a0890135915080821115611a2c578283fd5b50611a3989828a016118cd565b9150509295509295509295565b600060208284031215611a57578081fd5b8151801515811461182d578182fd5b600060208284031215611a77578081fd5b5035919050565b600060208284031215611a8f578081fd5b5051919050565b60008060408385031215611aa8578182fd5b823591506020830135611aba81611dcf565b809150509250929050565b600060208284031215611ad6578081fd5b81356001600160e01b03198116811461182d578182fd5b60008151808452611b05816020860160208601611d21565b601f01601f19169290920160200192915050565b690283934bb34902537ba160b51b815260008251611b3e81600a850160208701611d21565b91909101600a0192915050565b6270535f60e81b815260008251611b69816003850160208701611d21565b9190910160030192915050565b6f0283934bb349029bcb73a3432ba34b1960851b815260008251611ba1816010850160208701611d21565b9190910160100192915050565b7f416363657373436f6e74726f6c3a206163636f756e7420000000000000000000815260008351611be6816017850160208801611d21565b7001034b99036b4b9b9b4b733903937b6329607d1b6017918401918201528351611c17816028840160208801611d21565b01602801949350505050565b634a4f545f60e01b815260008251611c42816004850160208701611d21565b9190910160040192915050565b60208152600061182d6020830184611aed565b606081526000611c756060830186611aed565b8281036020840152611c878186611aed565b91505060018060a01b0383166040830152949350505050565b608081526000611cb36080830187611aed565b8281036020840152611cc58187611aed565b6001600160a01b03958616604085015293909416606090920191909152509392505050565b60008219821115611cfd57611cfd611da3565b500190565b6000816000190483118215151615611d1c57611d1c611da3565b500290565b60005b83811015611d3c578181015183820152602001611d24565b83811115611d4b576000848401525b50505050565b600081611d6057611d60611da3565b506000190190565b600181811c90821680611d7c57607f821691505b60208210811415611d9d57634e487b7160e01b600052602260045260246000fd5b50919050565b634e487b7160e01b600052601160045260246000fd5b634e487b7160e01b600052604160045260246000fd5b6001600160a01b038116811461140c57600080fdfea264697066735822122024dfff53daf3c7f69602c86e11b0ba0d083e19c5774074b7cdba459e20e4747a64736f6c63430008040033",
  "devdoc": {
    "kind": "dev",
    "methods": {
      "getRoleAdmin(bytes32)": {
        "details": "Returns the admin role that controls `role`. See {grantRole} and {revokeRole}. To change a role's admin, use {_setRoleAdmin}."
      },
      "grantRole(bytes32,address)": {
        "details": "Grants `role` to `account`. If `account` had not been already granted `role`, emits a {RoleGranted} event. Requirements: - the caller must have ``role``'s admin role."
      },
      "hasRole(bytes32,address)": {
        "details": "Returns `true` if `account` has been granted `role`."
      },
      "owner()": {
        "details": "Returns the address of the current owner."
      },
      "registerNFT(address,uint256,uint256,uint256,string,string)": {
        "params": {
          "collection": "the address of the synthetic collection",
          "originalName": "the original collection name",
          "originalSymbol": "the original collection symbol",
          "priceFraction": "the price for a fraction",
          "supplyToKeep": "supply to keep",
          "tokenId": "the token id"
        }
      },
      "renounceOwnership()": {
        "details": "Leaves the contract without owner. It will not be possible to call `onlyOwner` functions anymore. Can only be called by the current owner. NOTE: Renouncing ownership will leave the contract without an owner, thereby removing any functionality that is only available to the owner."
      },
      "renounceRole(bytes32,address)": {
        "details": "Revokes `role` from the calling account. Roles are often managed via {grantRole} and {revokeRole}: this function's purpose is to provide a mechanism for accounts to lose their privileges if they are compromised (such as when a trusted device is misplaced). If the calling account had been granted `role`, emits a {RoleRevoked} event. Requirements: - the caller must be `account`."
      },
      "revokeRole(bytes32,address)": {
        "details": "Revokes `role` from `account`. If `account` had been granted `role`, emits a {RoleRevoked} event. Requirements: - the caller must have ``role``'s admin role."
      },
      "supportsInterface(bytes4)": {
        "details": "See {IERC165-supportsInterface}."
      },
      "transferOwnership(address)": {
        "details": "Transfers ownership of the contract to a new account (`newOwner`). Can only be called by the current owner."
      }
    },
    "stateVariables": {
      "_collectionIdToAddress": {
        "details": "get collection address from ID"
      },
      "_collections": {
        "details": "collections map. collection address => collection data"
      },
      "_jot": {
        "details": "implementation addresses for proxies"
      }
    },
    "version": 1
  },
  "userdoc": {
    "events": {
      "CollectionManagerRegistered(uint256,address,address,address,address,address,address)": {
        "notice": "Events"
      }
    },
    "kind": "user",
    "methods": {
      "constructor": {
        "notice": "Constructor"
      },
      "getCollectionID(address)": {
        "notice": "get collection ID from collection address"
      },
      "getCollectionManagerAddress(address)": {
        "notice": "get collection manager address from collection address"
      },
      "getCollectionManagerAddress(uint256)": {
        "notice": "get collection manager address from collection ID"
      },
      "getJotPoolAddress(address)": {
        "notice": "getter for Jot Pool Address of a collection"
      },
      "getJotsAddress(address)": {
        "notice": "getter for Jot Address of a collection"
      },
      "getOriginalCollectionAddress(uint256)": {
        "notice": "get collection address from collection ID"
      },
      "isNFTVerified(address,uint256)": {
        "notice": "checks whether a Synthetic has been verified or not"
      },
      "isSyntheticCollectionRegistered(address)": {
        "notice": "checks whether a collection is registered or not"
      },
      "isSyntheticNFTCreated(address,uint256)": {
        "notice": "checks whether a Synthetic NFT has been created for a given NFT or not"
      },
      "protocolVaults()": {
        "notice": "number of registered collections"
      },
      "registerNFT(address,uint256,uint256,uint256,string,string)": {
        "notice": "register an NFT collection"
      },
      "swapAddress()": {
        "notice": "QuickSwap address"
      },
      "verifyNFT(address,uint256)": {
        "notice": "verify a synthetic NFT"
      }
    },
    "version": 1
  },
  "storageLayout": {
    "storage": [
      {
        "astId": 290,
        "contract": "contracts/polygon/SyntheticProtocolRouter.sol:SyntheticProtocolRouter",
        "label": "_roles",
        "offset": 0,
        "slot": "0",
        "type": "t_mapping(t_bytes32,t_struct(RoleData)285_storage)"
      },
      {
        "astId": 653,
        "contract": "contracts/polygon/SyntheticProtocolRouter.sol:SyntheticProtocolRouter",
        "label": "_owner",
        "offset": 0,
        "slot": "1",
        "type": "t_address"
      },
      {
        "astId": 9347,
        "contract": "contracts/polygon/SyntheticProtocolRouter.sol:SyntheticProtocolRouter",
        "label": "_jot",
        "offset": 0,
        "slot": "2",
        "type": "t_address"
      },
      {
        "astId": 9349,
        "contract": "contracts/polygon/SyntheticProtocolRouter.sol:SyntheticProtocolRouter",
        "label": "_jotPool",
        "offset": 0,
        "slot": "3",
        "type": "t_address"
      },
      {
        "astId": 9351,
        "contract": "contracts/polygon/SyntheticProtocolRouter.sol:SyntheticProtocolRouter",
        "label": "_collectionManager",
        "offset": 0,
        "slot": "4",
        "type": "t_address"
      },
      {
        "astId": 9353,
        "contract": "contracts/polygon/SyntheticProtocolRouter.sol:SyntheticProtocolRouter",
        "label": "_syntheticNFT",
        "offset": 0,
        "slot": "5",
        "type": "t_address"
      },
      {
        "astId": 9355,
        "contract": "contracts/polygon/SyntheticProtocolRouter.sol:SyntheticProtocolRouter",
        "label": "_auctionManager",
        "offset": 0,
        "slot": "6",
        "type": "t_address"
      },
      {
        "astId": 9357,
        "contract": "contracts/polygon/SyntheticProtocolRouter.sol:SyntheticProtocolRouter",
        "label": "_protocol",
        "offset": 0,
        "slot": "7",
        "type": "t_address"
      },
      {
        "astId": 9359,
        "contract": "contracts/polygon/SyntheticProtocolRouter.sol:SyntheticProtocolRouter",
        "label": "_fundingTokenAddress",
        "offset": 0,
        "slot": "8",
        "type": "t_address"
      },
      {
        "astId": 9361,
        "contract": "contracts/polygon/SyntheticProtocolRouter.sol:SyntheticProtocolRouter",
        "label": "_randomConsumerAddress",
        "offset": 0,
        "slot": "9",
        "type": "t_address"
      },
      {
        "astId": 9363,
        "contract": "contracts/polygon/SyntheticProtocolRouter.sol:SyntheticProtocolRouter",
        "label": "_perpetualPoolLiteAddress",
        "offset": 0,
        "slot": "10",
        "type": "t_address"
      },
      {
        "astId": 9365,
        "contract": "contracts/polygon/SyntheticProtocolRouter.sol:SyntheticProtocolRouter",
        "label": "oracleAddress",
        "offset": 0,
        "slot": "11",
        "type": "t_address"
      },
      {
        "astId": 9371,
        "contract": "contracts/polygon/SyntheticProtocolRouter.sol:SyntheticProtocolRouter",
        "label": "_collections",
        "offset": 0,
        "slot": "12",
        "type": "t_mapping(t_address,t_struct(SyntheticCollection)9317_storage)"
      },
      {
        "astId": 9376,
        "contract": "contracts/polygon/SyntheticProtocolRouter.sol:SyntheticProtocolRouter",
        "label": "_collectionIdToAddress",
        "offset": 0,
        "slot": "13",
        "type": "t_mapping(t_uint256,t_address)"
      },
      {
        "astId": 9380,
        "contract": "contracts/polygon/SyntheticProtocolRouter.sol:SyntheticProtocolRouter",
        "label": "protocolVaults",
        "offset": 0,
        "slot": "14",
        "type": "t_struct(Counter)6528_storage"
      },
      {
        "astId": 9383,
        "contract": "contracts/polygon/SyntheticProtocolRouter.sol:SyntheticProtocolRouter",
        "label": "swapAddress",
        "offset": 0,
        "slot": "15",
        "type": "t_address"
      }
    ],
    "types": {
      "t_address": {
        "encoding": "inplace",
        "label": "address",
        "numberOfBytes": "20"
      },
      "t_bool": {
        "encoding": "inplace",
        "label": "bool",
        "numberOfBytes": "1"
      },
      "t_bytes32": {
        "encoding": "inplace",
        "label": "bytes32",
        "numberOfBytes": "32"
      },
      "t_mapping(t_address,t_bool)": {
        "encoding": "mapping",
        "key": "t_address",
        "label": "mapping(address => bool)",
        "numberOfBytes": "32",
        "value": "t_bool"
      },
      "t_mapping(t_address,t_struct(SyntheticCollection)9317_storage)": {
        "encoding": "mapping",
        "key": "t_address",
        "label": "mapping(address => struct SyntheticCollection)",
        "numberOfBytes": "32",
        "value": "t_struct(SyntheticCollection)9317_storage"
      },
      "t_mapping(t_bytes32,t_struct(RoleData)285_storage)": {
        "encoding": "mapping",
        "key": "t_bytes32",
        "label": "mapping(bytes32 => struct AccessControl.RoleData)",
        "numberOfBytes": "32",
        "value": "t_struct(RoleData)285_storage"
      },
      "t_mapping(t_uint256,t_address)": {
        "encoding": "mapping",
        "key": "t_uint256",
        "label": "mapping(uint256 => address)",
        "numberOfBytes": "32",
        "value": "t_address"
      },
      "t_string_storage": {
        "encoding": "bytes",
        "label": "string",
        "numberOfBytes": "32"
      },
      "t_struct(Counter)6528_storage": {
        "encoding": "inplace",
        "label": "struct Counters.Counter",
        "members": [
          {
            "astId": 6527,
            "contract": "contracts/polygon/SyntheticProtocolRouter.sol:SyntheticProtocolRouter",
            "label": "_value",
            "offset": 0,
            "slot": "0",
            "type": "t_uint256"
          }
        ],
        "numberOfBytes": "32"
      },
      "t_struct(RoleData)285_storage": {
        "encoding": "inplace",
        "label": "struct AccessControl.RoleData",
        "members": [
          {
            "astId": 282,
            "contract": "contracts/polygon/SyntheticProtocolRouter.sol:SyntheticProtocolRouter",
            "label": "members",
            "offset": 0,
            "slot": "0",
            "type": "t_mapping(t_address,t_bool)"
          },
          {
            "astId": 284,
            "contract": "contracts/polygon/SyntheticProtocolRouter.sol:SyntheticProtocolRouter",
            "label": "adminRole",
            "offset": 0,
            "slot": "1",
            "type": "t_bytes32"
          }
        ],
        "numberOfBytes": "64"
      },
      "t_struct(SyntheticCollection)9317_storage": {
        "encoding": "inplace",
        "label": "struct SyntheticCollection",
        "members": [
          {
            "astId": 9304,
            "contract": "contracts/polygon/SyntheticProtocolRouter.sol:SyntheticProtocolRouter",
            "label": "collectionID",
            "offset": 0,
            "slot": "0",
            "type": "t_uint256"
          },
          {
            "astId": 9306,
            "contract": "contracts/polygon/SyntheticProtocolRouter.sol:SyntheticProtocolRouter",
            "label": "collectionManagerAddress",
            "offset": 0,
            "slot": "1",
            "type": "t_address"
          },
          {
            "astId": 9308,
            "contract": "contracts/polygon/SyntheticProtocolRouter.sol:SyntheticProtocolRouter",
            "label": "jotAddress",
            "offset": 0,
            "slot": "2",
            "type": "t_address"
          },
          {
            "astId": 9310,
            "contract": "contracts/polygon/SyntheticProtocolRouter.sol:SyntheticProtocolRouter",
            "label": "jotPoolAddress",
            "offset": 0,
            "slot": "3",
            "type": "t_address"
          },
          {
            "astId": 9312,
            "contract": "contracts/polygon/SyntheticProtocolRouter.sol:SyntheticProtocolRouter",
            "label": "syntheticNFTAddress",
            "offset": 0,
            "slot": "4",
            "type": "t_address"
          },
          {
            "astId": 9314,
            "contract": "contracts/polygon/SyntheticProtocolRouter.sol:SyntheticProtocolRouter",
            "label": "originalName",
            "offset": 0,
            "slot": "5",
            "type": "t_string_storage"
          },
          {
            "astId": 9316,
            "contract": "contracts/polygon/SyntheticProtocolRouter.sol:SyntheticProtocolRouter",
            "label": "originalSymbol",
            "offset": 0,
            "slot": "6",
            "type": "t_string_storage"
          }
        ],
        "numberOfBytes": "224"
      },
      "t_uint256": {
        "encoding": "inplace",
        "label": "uint256",
        "numberOfBytes": "32"
      }
    }
  }
}