{
  "address": "0x809390ED08D827aa39981c05d1e4466491585a7A",
  "abi": [
    {
      "inputs": [
        {
          "internalType": "address",
          "name": "randomConsumerAddress_",
          "type": "address"
        },
        {
          "internalType": "address",
          "name": "validatorAddress_",
          "type": "address"
        }
      ],
      "stateMutability": "nonpayable",
      "type": "constructor"
    },
    {
      "anonymous": false,
      "inputs": [
        {
          "indexed": false,
          "internalType": "bytes32",
          "name": "requestId",
          "type": "bytes32"
        }
      ],
      "name": "BuybackPriceUpdateRequested",
      "type": "event"
    },
    {
      "anonymous": false,
      "inputs": [
        {
          "indexed": true,
          "internalType": "bytes32",
          "name": "requestId",
          "type": "bytes32"
        },
        {
          "indexed": true,
          "internalType": "address",
          "name": "player",
          "type": "address"
        },
        {
          "indexed": true,
          "internalType": "uint256",
          "name": "tokenId",
          "type": "uint256"
        },
        {
          "indexed": false,
          "internalType": "uint256",
          "name": "prediction",
          "type": "uint256"
        }
      ],
      "name": "CoinFlipped",
      "type": "event"
    },
    {
      "anonymous": false,
      "inputs": [
        {
          "indexed": true,
          "internalType": "bytes32",
          "name": "requestId",
          "type": "bytes32"
        },
        {
          "indexed": true,
          "internalType": "uint256",
          "name": "tokenId",
          "type": "uint256"
        },
        {
          "indexed": false,
          "internalType": "uint256",
          "name": "prediction",
          "type": "uint256"
        },
        {
          "indexed": false,
          "internalType": "uint256",
          "name": "randomResult",
          "type": "uint256"
        }
      ],
      "name": "FlipProcessed",
      "type": "event"
    },
    {
      "anonymous": false,
      "inputs": [
        {
          "indexed": false,
          "internalType": "uint256",
          "name": "tokenId",
          "type": "uint256"
        },
        {
          "indexed": false,
          "internalType": "uint256",
          "name": "jotAmount",
          "type": "uint256"
        },
        {
          "indexed": false,
          "internalType": "uint256",
          "name": "fundingAmount",
          "type": "uint256"
        },
        {
          "indexed": false,
          "internalType": "uint256",
          "name": "liquidity",
          "type": "uint256"
        }
      ],
      "name": "LiquidityAddedToQuickswap",
      "type": "event"
    },
    {
      "anonymous": false,
      "inputs": [
        {
          "indexed": false,
          "internalType": "uint256",
          "name": "tokenId",
          "type": "uint256"
        },
        {
          "indexed": false,
          "internalType": "uint256",
          "name": "jotAmount",
          "type": "uint256"
        },
        {
          "indexed": false,
          "internalType": "uint256",
          "name": "fundingAmount",
          "type": "uint256"
        },
        {
          "indexed": false,
          "internalType": "uint256",
          "name": "liquidity",
          "type": "uint256"
        }
      ],
      "name": "LiquidityRemovedFromQuickswap",
      "type": "event"
    },
    {
      "anonymous": false,
      "inputs": [
        {
          "indexed": true,
          "internalType": "bytes32",
          "name": "role",
          "type": "bytes32"
        },
        {
          "indexed": true,
          "internalType": "bytes32",
          "name": "previousAdminRole",
          "type": "bytes32"
        },
        {
          "indexed": true,
          "internalType": "bytes32",
          "name": "newAdminRole",
          "type": "bytes32"
        }
      ],
      "name": "RoleAdminChanged",
      "type": "event"
    },
    {
      "anonymous": false,
      "inputs": [
        {
          "indexed": true,
          "internalType": "bytes32",
          "name": "role",
          "type": "bytes32"
        },
        {
          "indexed": true,
          "internalType": "address",
          "name": "account",
          "type": "address"
        },
        {
          "indexed": true,
          "internalType": "address",
          "name": "sender",
          "type": "address"
        }
      ],
      "name": "RoleGranted",
      "type": "event"
    },
    {
      "anonymous": false,
      "inputs": [
        {
          "indexed": true,
          "internalType": "bytes32",
          "name": "role",
          "type": "bytes32"
        },
        {
          "indexed": true,
          "internalType": "address",
          "name": "account",
          "type": "address"
        },
        {
          "indexed": true,
          "internalType": "address",
          "name": "sender",
          "type": "address"
        }
      ],
      "name": "RoleRevoked",
      "type": "event"
    },
    {
      "anonymous": false,
      "inputs": [
        {
          "indexed": true,
          "internalType": "bytes32",
          "name": "requestId",
          "type": "bytes32"
        },
        {
          "indexed": false,
          "internalType": "address",
          "name": "from",
          "type": "address"
        },
        {
          "indexed": false,
          "internalType": "uint256",
          "name": "tokenId",
          "type": "uint256"
        }
      ],
      "name": "VerificationRequested",
      "type": "event"
    },
    {
      "anonymous": false,
      "inputs": [
        {
          "indexed": true,
          "internalType": "bytes32",
          "name": "requestId",
          "type": "bytes32"
        },
        {
          "indexed": false,
          "internalType": "address",
          "name": "originalCollection",
          "type": "address"
        },
        {
          "indexed": false,
          "internalType": "address",
          "name": "syntheticCollection",
          "type": "address"
        },
        {
          "indexed": false,
          "internalType": "uint256",
          "name": "tokenId",
          "type": "uint256"
        },
        {
          "indexed": false,
          "internalType": "bool",
          "name": "verified",
          "type": "bool"
        }
      ],
      "name": "VerifyResponseReceived",
      "type": "event"
    },
    {
      "inputs": [],
      "name": "AUCTION_MANAGER",
      "outputs": [
        {
          "internalType": "bytes32",
          "name": "",
          "type": "bytes32"
        }
      ],
      "stateMutability": "view",
      "type": "function"
    },
    {
      "inputs": [],
      "name": "AuctionsManagerAddress",
      "outputs": [
        {
          "internalType": "address",
          "name": "",
          "type": "address"
        }
      ],
      "stateMutability": "view",
      "type": "function"
    },
    {
      "inputs": [],
      "name": "DEFAULT_ADMIN_ROLE",
      "outputs": [
        {
          "internalType": "bytes32",
          "name": "",
          "type": "bytes32"
        }
      ],
      "stateMutability": "view",
      "type": "function"
    },
    {
      "inputs": [],
      "name": "RANDOM_ORACLE",
      "outputs": [
        {
          "internalType": "bytes32",
          "name": "",
          "type": "bytes32"
        }
      ],
      "stateMutability": "view",
      "type": "function"
    },
    {
      "inputs": [],
      "name": "ROUTER",
      "outputs": [
        {
          "internalType": "bytes32",
          "name": "",
          "type": "bytes32"
        }
      ],
      "stateMutability": "view",
      "type": "function"
    },
    {
      "inputs": [],
      "name": "VALIDATOR_ORACLE",
      "outputs": [
        {
          "internalType": "bytes32",
          "name": "",
          "type": "bytes32"
        }
      ],
      "stateMutability": "view",
      "type": "function"
    },
    {
      "inputs": [
        {
          "internalType": "uint256",
          "name": "tokenId",
          "type": "uint256"
        },
        {
          "internalType": "uint256",
          "name": "amount",
          "type": "uint256"
        }
      ],
      "name": "addLiquidityToFuturePool",
      "outputs": [],
      "stateMutability": "nonpayable",
      "type": "function"
    },
    {
      "inputs": [
        {
          "internalType": "uint256",
          "name": "tokenId",
          "type": "uint256"
        },
        {
          "internalType": "uint256",
          "name": "amount",
          "type": "uint256"
        }
      ],
      "name": "addLiquidityToQuickswap",
      "outputs": [],
      "stateMutability": "nonpayable",
      "type": "function"
    },
    {
      "inputs": [
        {
          "internalType": "uint256",
          "name": "tokenId_",
          "type": "uint256"
        },
        {
          "internalType": "uint256",
          "name": "amountToBuy_",
          "type": "uint256"
        }
      ],
      "name": "buyJotTokens",
      "outputs": [],
      "stateMutability": "nonpayable",
      "type": "function"
    },
    {
      "inputs": [
        {
          "internalType": "uint256",
          "name": "tokenId",
          "type": "uint256"
        }
      ],
      "name": "buyback",
      "outputs": [],
      "stateMutability": "nonpayable",
      "type": "function"
    },
    {
      "inputs": [],
      "name": "buybackPrice",
      "outputs": [
        {
          "internalType": "uint256",
          "name": "",
          "type": "uint256"
        }
      ],
      "stateMutability": "view",
      "type": "function"
    },
    {
      "inputs": [
        {
          "internalType": "uint256",
          "name": "tokenId",
          "type": "uint256"
        }
      ],
      "name": "buybackRequiredAmount",
      "outputs": [
        {
          "internalType": "uint256",
          "name": "buybackAmount",
          "type": "uint256"
        },
        {
          "internalType": "uint256",
          "name": "fundingLeft",
          "type": "uint256"
        },
        {
          "internalType": "uint256",
          "name": "jotsLeft",
          "type": "uint256"
        }
      ],
      "stateMutability": "view",
      "type": "function"
    },
    {
      "inputs": [
        {
          "internalType": "uint256",
          "name": "syntheticId",
          "type": "uint256"
        },
        {
          "internalType": "uint256",
          "name": "newOriginalId",
          "type": "uint256"
        },
        {
          "internalType": "string",
          "name": "metadata",
          "type": "string"
        },
        {
          "internalType": "address",
          "name": "caller",
          "type": "address"
        }
      ],
      "name": "change",
      "outputs": [],
      "stateMutability": "nonpayable",
      "type": "function"
    },
    {
      "inputs": [
        {
          "internalType": "uint256",
          "name": "",
          "type": "uint256"
        }
      ],
      "name": "changeNonces",
      "outputs": [
        {
          "internalType": "uint256",
          "name": "nonce",
          "type": "uint256"
        },
        {
          "internalType": "uint256",
          "name": "newTokenId",
          "type": "uint256"
        },
        {
          "internalType": "address",
          "name": "owner",
          "type": "address"
        }
      ],
      "stateMutability": "view",
      "type": "function"
    },
    {
      "inputs": [
        {
          "internalType": "uint256",
          "name": "tokenId",
          "type": "uint256"
        },
        {
          "internalType": "uint256",
          "name": "amount",
          "type": "uint256"
        }
      ],
      "name": "claimLiquidityTokens",
      "outputs": [],
      "stateMutability": "nonpayable",
      "type": "function"
    },
    {
      "inputs": [
        {
          "internalType": "uint256",
          "name": "tokenId_",
          "type": "uint256"
        },
        {
          "internalType": "uint256",
          "name": "amount_",
          "type": "uint256"
        }
      ],
      "name": "decreaseSellingSupply",
      "outputs": [],
      "stateMutability": "nonpayable",
      "type": "function"
    },
    {
      "inputs": [
        {
          "internalType": "uint256",
          "name": "tokenId_",
          "type": "uint256"
        },
        {
          "internalType": "uint256",
          "name": "amountToDeposit_",
          "type": "uint256"
        }
      ],
      "name": "depositJotTokens",
      "outputs": [],
      "stateMutability": "nonpayable",
      "type": "function"
    },
    {
      "inputs": [],
      "name": "erc721address",
      "outputs": [
        {
          "internalType": "address",
          "name": "",
          "type": "address"
        }
      ],
      "stateMutability": "view",
      "type": "function"
    },
    {
      "inputs": [
        {
          "internalType": "uint256",
          "name": "tokenId",
          "type": "uint256"
        },
        {
          "internalType": "uint256",
          "name": "amount",
          "type": "uint256"
        }
      ],
      "name": "exchangeOwnerJot",
      "outputs": [],
      "stateMutability": "nonpayable",
      "type": "function"
    },
    {
      "inputs": [
        {
          "internalType": "uint256",
          "name": "tokenId",
          "type": "uint256"
        },
        {
          "internalType": "uint64",
          "name": "prediction",
          "type": "uint64"
        }
      ],
      "name": "flipJot",
      "outputs": [],
      "stateMutability": "nonpayable",
      "type": "function"
    },
    {
      "inputs": [],
      "name": "fundingTokenAddress",
      "outputs": [
        {
          "internalType": "address",
          "name": "",
          "type": "address"
        }
      ],
      "stateMutability": "view",
      "type": "function"
    },
    {
      "inputs": [
        {
          "internalType": "uint256",
          "name": "tokenId",
          "type": "uint256"
        }
      ],
      "name": "getAccruedReward",
      "outputs": [
        {
          "internalType": "uint256",
          "name": "",
          "type": "uint256"
        },
        {
          "internalType": "uint256",
          "name": "",
          "type": "uint256"
        }
      ],
      "stateMutability": "view",
      "type": "function"
    },
    {
      "inputs": [
        {
          "internalType": "uint256",
          "name": "tokenId",
          "type": "uint256"
        }
      ],
      "name": "getAvailableJotsForBuyback",
      "outputs": [
        {
          "internalType": "uint256",
          "name": "totalJots",
          "type": "uint256"
        },
        {
          "internalType": "uint256",
          "name": "totalFunding",
          "type": "uint256"
        }
      ],
      "stateMutability": "view",
      "type": "function"
    },
    {
      "inputs": [
        {
          "internalType": "uint256",
          "name": "tokenId",
          "type": "uint256"
        }
      ],
      "name": "getJotAmountLeft",
      "outputs": [
        {
          "internalType": "uint256",
          "name": "",
          "type": "uint256"
        }
      ],
      "stateMutability": "view",
      "type": "function"
    },
    {
      "inputs": [
        {
          "internalType": "bytes32",
          "name": "role",
          "type": "bytes32"
        }
      ],
      "name": "getRoleAdmin",
      "outputs": [
        {
          "internalType": "bytes32",
          "name": "",
          "type": "bytes32"
        }
      ],
      "stateMutability": "view",
      "type": "function"
    },
    {
      "inputs": [
        {
          "internalType": "uint256",
          "name": "tokenId",
          "type": "uint256"
        },
        {
          "internalType": "uint256",
          "name": "buyAmount",
          "type": "uint256"
        }
      ],
      "name": "getSalePrice",
      "outputs": [
        {
          "internalType": "uint256",
          "name": "",
          "type": "uint256"
        }
      ],
      "stateMutability": "view",
      "type": "function"
    },
    {
      "inputs": [
        {
          "internalType": "bytes32",
          "name": "role",
          "type": "bytes32"
        },
        {
          "internalType": "address",
          "name": "account",
          "type": "address"
        }
      ],
      "name": "grantRole",
      "outputs": [],
      "stateMutability": "nonpayable",
      "type": "function"
    },
    {
      "inputs": [
        {
          "internalType": "bytes32",
          "name": "role",
          "type": "bytes32"
        },
        {
          "internalType": "address",
          "name": "account",
          "type": "address"
        }
      ],
      "name": "hasRole",
      "outputs": [
        {
          "internalType": "bool",
          "name": "",
          "type": "bool"
        }
      ],
      "stateMutability": "view",
      "type": "function"
    },
    {
      "inputs": [
        {
          "internalType": "uint256",
          "name": "tokenId_",
          "type": "uint256"
        },
        {
          "internalType": "uint256",
          "name": "amount_",
          "type": "uint256"
        }
      ],
      "name": "increaseSellingSupply",
      "outputs": [],
      "stateMutability": "nonpayable",
      "type": "function"
    },
    {
      "inputs": [
        {
          "internalType": "address",
          "name": "jotAddress_",
          "type": "address"
        },
        {
          "internalType": "address",
          "name": "originalCollectionAddress_",
          "type": "address"
        },
        {
          "internalType": "address",
          "name": "erc721address_",
          "type": "address"
        },
        {
          "internalType": "address",
          "name": "auctionManagerAddress_",
          "type": "address"
        },
        {
          "internalType": "address",
          "name": "protocol_",
          "type": "address"
        },
        {
          "internalType": "address",
          "name": "jotPool_",
          "type": "address"
        },
        {
          "internalType": "address",
          "name": "redemptionPool_",
          "type": "address"
        },
        {
          "internalType": "address",
          "name": "swapAddress_",
          "type": "address"
        },
        {
          "internalType": "address",
          "name": "liquidityCalculatorAddress_",
          "type": "address"
        }
      ],
      "name": "initialize",
      "outputs": [],
      "stateMutability": "nonpayable",
      "type": "function"
    },
    {
      "inputs": [
        {
          "internalType": "uint256",
          "name": "tokenId",
          "type": "uint256"
        }
      ],
      "name": "isAllowedToFlip",
      "outputs": [
        {
          "internalType": "bool",
          "name": "",
          "type": "bool"
        }
      ],
      "stateMutability": "view",
      "type": "function"
    },
    {
      "inputs": [
        {
          "internalType": "uint256",
          "name": "tokenId",
          "type": "uint256"
        },
        {
          "internalType": "address",
          "name": "caller",
          "type": "address"
        }
      ],
      "name": "isOwner",
      "outputs": [
        {
          "internalType": "bool",
          "name": "",
          "type": "bool"
        }
      ],
      "stateMutability": "view",
      "type": "function"
    },
    {
      "inputs": [
        {
          "internalType": "uint256",
          "name": "tokenId",
          "type": "uint256"
        }
      ],
      "name": "isSyntheticNFTCreated",
      "outputs": [
        {
          "internalType": "bool",
          "name": "",
          "type": "bool"
        }
      ],
      "stateMutability": "view",
      "type": "function"
    },
    {
      "inputs": [
        {
          "internalType": "uint256",
          "name": "tokenId",
          "type": "uint256"
        }
      ],
      "name": "isSyntheticNFTFractionalised",
      "outputs": [
        {
          "internalType": "bool",
          "name": "",
          "type": "bool"
        }
      ],
      "stateMutability": "view",
      "type": "function"
    },
    {
      "inputs": [],
      "name": "jotAddress",
      "outputs": [
        {
          "internalType": "address",
          "name": "",
          "type": "address"
        }
      ],
      "stateMutability": "view",
      "type": "function"
    },
    {
      "inputs": [],
      "name": "jotPool",
      "outputs": [
        {
          "internalType": "address",
          "name": "",
          "type": "address"
        }
      ],
      "stateMutability": "view",
      "type": "function"
    },
    {
      "inputs": [
        {
          "internalType": "uint256",
          "name": "tokenId",
          "type": "uint256"
        }
      ],
      "name": "lockedNFT",
      "outputs": [
        {
          "internalType": "bool",
          "name": "",
          "type": "bool"
        }
      ],
      "stateMutability": "view",
      "type": "function"
    },
    {
      "inputs": [
        {
          "internalType": "uint256",
          "name": "",
          "type": "uint256"
        }
      ],
      "name": "nonces",
      "outputs": [
        {
          "internalType": "uint256",
          "name": "",
          "type": "uint256"
        }
      ],
      "stateMutability": "view",
      "type": "function"
    },
    {
      "inputs": [],
      "name": "originalCollectionAddress",
      "outputs": [
        {
          "internalType": "address",
          "name": "",
          "type": "address"
        }
      ],
      "stateMutability": "view",
      "type": "function"
    },
    {
      "inputs": [
        {
          "internalType": "uint256",
          "name": "",
          "type": "uint256"
        },
        {
          "internalType": "uint256",
          "name": "",
          "type": "uint256"
        }
      ],
      "name": "ownersByNonce",
      "outputs": [
        {
          "internalType": "address",
          "name": "",
          "type": "address"
        }
      ],
      "stateMutability": "view",
      "type": "function"
    },
    {
      "inputs": [],
      "name": "perpetualPoolLiteAddress",
      "outputs": [
        {
          "internalType": "address",
          "name": "",
          "type": "address"
        }
      ],
      "stateMutability": "view",
      "type": "function"
    },
    {
      "inputs": [],
      "name": "poolAddress",
      "outputs": [
        {
          "internalType": "address",
          "name": "",
          "type": "address"
        }
      ],
      "stateMutability": "view",
      "type": "function"
    },
    {
      "inputs": [
        {
          "internalType": "bytes32",
          "name": "requestId_",
          "type": "bytes32"
        },
        {
          "internalType": "uint256",
          "name": "buybackPrice_",
          "type": "uint256"
        }
      ],
      "name": "processBuybackPriceResponse",
      "outputs": [],
      "stateMutability": "nonpayable",
      "type": "function"
    },
    {
      "inputs": [
        {
          "internalType": "uint256",
          "name": "randomNumber",
          "type": "uint256"
        },
        {
          "internalType": "bytes32",
          "name": "requestId",
          "type": "bytes32"
        }
      ],
      "name": "processFlipResult",
      "outputs": [],
      "stateMutability": "nonpayable",
      "type": "function"
    },
    {
      "inputs": [
        {
          "internalType": "bytes32",
          "name": "requestId",
          "type": "bytes32"
        },
        {
          "components": [
            {
              "internalType": "address",
              "name": "originalCollection",
              "type": "address"
            },
            {
              "internalType": "address",
              "name": "syntheticCollection",
              "type": "address"
            },
            {
              "internalType": "uint256",
              "name": "tokenId",
              "type": "uint256"
            },
            {
              "internalType": "enum State",
              "name": "previousState",
              "type": "uint8"
            }
          ],
          "internalType": "struct VerifyRequest",
          "name": "requestData",
          "type": "tuple"
        },
        {
          "internalType": "bool",
          "name": "verified",
          "type": "bool"
        }
      ],
      "name": "processVerifyResponse",
      "outputs": [],
      "stateMutability": "nonpayable",
      "type": "function"
    },
    {
      "inputs": [],
      "name": "protocol",
      "outputs": [
        {
          "internalType": "address",
          "name": "",
          "type": "address"
        }
      ],
      "stateMutability": "view",
      "type": "function"
    },
    {
      "inputs": [
        {
          "internalType": "uint256",
          "name": "nftId_",
          "type": "uint256"
        },
        {
          "internalType": "address",
          "name": "newOwner_",
          "type": "address"
        }
      ],
      "name": "reassignNFT",
      "outputs": [],
      "stateMutability": "nonpayable",
      "type": "function"
    },
    {
      "inputs": [
        {
          "internalType": "uint256",
          "name": "tokenId",
          "type": "uint256"
        }
      ],
      "name": "recoverToken",
      "outputs": [],
      "stateMutability": "nonpayable",
      "type": "function"
    },
    {
      "inputs": [],
      "name": "redemptionPool",
      "outputs": [
        {
          "internalType": "address",
          "name": "",
          "type": "address"
        }
      ],
      "stateMutability": "view",
      "type": "function"
    },
    {
      "inputs": [
        {
          "internalType": "uint256",
          "name": "tokenId_",
          "type": "uint256"
        },
        {
          "internalType": "uint256",
          "name": "supplyToKeep_",
          "type": "uint256"
        },
        {
          "internalType": "uint256",
          "name": "priceFraction_",
          "type": "uint256"
        },
        {
          "internalType": "address",
          "name": "nftOwner_",
          "type": "address"
        },
        {
          "internalType": "string",
          "name": "metadata_",
          "type": "string"
        }
      ],
      "name": "register",
      "outputs": [
        {
          "internalType": "uint256",
          "name": "syntheticId",
          "type": "uint256"
        }
      ],
      "stateMutability": "nonpayable",
      "type": "function"
    },
    {
      "inputs": [
        {
          "internalType": "uint256",
          "name": "tokenId",
          "type": "uint256"
        }
      ],
      "name": "removeLiquidityFromPool",
      "outputs": [],
      "stateMutability": "nonpayable",
      "type": "function"
    },
    {
      "inputs": [
        {
          "internalType": "bytes32",
          "name": "role",
          "type": "bytes32"
        },
        {
          "internalType": "address",
          "name": "account",
          "type": "address"
        }
      ],
      "name": "renounceRole",
      "outputs": [],
      "stateMutability": "nonpayable",
      "type": "function"
    },
    {
      "inputs": [
        {
          "internalType": "bytes32",
          "name": "role",
          "type": "bytes32"
        },
        {
          "internalType": "address",
          "name": "account",
          "type": "address"
        }
      ],
      "name": "revokeRole",
      "outputs": [],
      "stateMutability": "nonpayable",
      "type": "function"
    },
    {
      "inputs": [
        {
          "internalType": "uint256",
          "name": "tokenId",
          "type": "uint256"
        },
        {
          "internalType": "bool",
          "name": "value",
          "type": "bool"
        }
      ],
      "name": "setFlip",
      "outputs": [],
      "stateMutability": "nonpayable",
      "type": "function"
    },
    {
      "inputs": [
        {
          "internalType": "uint256",
          "name": "tokenId",
          "type": "uint256"
        },
        {
          "internalType": "string",
          "name": "metadata",
          "type": "string"
        }
      ],
      "name": "setMetadata",
      "outputs": [],
      "stateMutability": "nonpayable",
      "type": "function"
    },
    {
      "inputs": [
        {
          "internalType": "address",
          "name": "perpetualPoolLiteAddress_",
          "type": "address"
        }
      ],
      "name": "setPerpetualPoolLiteAddress",
      "outputs": [],
      "stateMutability": "nonpayable",
      "type": "function"
    },
    {
      "inputs": [
        {
          "internalType": "bytes4",
          "name": "interfaceId",
          "type": "bytes4"
        }
      ],
      "name": "supportsInterface",
      "outputs": [
        {
          "internalType": "bool",
          "name": "",
          "type": "bool"
        }
      ],
      "stateMutability": "view",
      "type": "function"
    },
    {
      "inputs": [],
      "name": "syntheticProtocolRouterAddress",
      "outputs": [
        {
          "internalType": "address",
          "name": "",
          "type": "address"
        }
      ],
      "stateMutability": "view",
      "type": "function"
    },
    {
      "inputs": [
        {
          "internalType": "uint256",
          "name": "",
          "type": "uint256"
        }
      ],
      "name": "tokens",
      "outputs": [
        {
          "internalType": "uint256",
          "name": "originalTokenID",
          "type": "uint256"
        },
        {
          "internalType": "uint256",
          "name": "ownerSupply",
          "type": "uint256"
        },
        {
          "internalType": "uint256",
          "name": "sellingSupply",
          "type": "uint256"
        },
        {
          "internalType": "uint256",
          "name": "soldSupply",
          "type": "uint256"
        },
        {
          "internalType": "uint256",
          "name": "liquiditySold",
          "type": "uint256"
        },
        {
          "internalType": "uint256",
          "name": "fractionPrices",
          "type": "uint256"
        },
        {
          "internalType": "uint256",
          "name": "lastFlipTime",
          "type": "uint256"
        },
        {
          "internalType": "uint256",
          "name": "liquidityTokenBalance",
          "type": "uint256"
        },
        {
          "internalType": "uint256",
          "name": "perpetualFuturesLShares",
          "type": "uint256"
        },
        {
          "internalType": "enum State",
          "name": "state",
          "type": "uint8"
        }
      ],
      "stateMutability": "view",
      "type": "function"
    },
    {
      "inputs": [],
      "name": "updateBuybackPrice",
      "outputs": [
        {
          "internalType": "bytes32",
          "name": "requestId",
          "type": "bytes32"
        }
      ],
      "stateMutability": "nonpayable",
      "type": "function"
    },
    {
      "inputs": [
        {
          "internalType": "uint256",
          "name": "tokenId_",
          "type": "uint256"
        },
        {
          "internalType": "uint256",
          "name": "newFractionPrice_",
          "type": "uint256"
        }
      ],
      "name": "updatePriceFraction",
      "outputs": [],
      "stateMutability": "nonpayable",
      "type": "function"
    },
    {
      "inputs": [
        {
          "internalType": "uint256",
          "name": "tokenId",
          "type": "uint256"
        }
      ],
      "name": "verify",
      "outputs": [],
      "stateMutability": "nonpayable",
      "type": "function"
    },
    {
      "inputs": [
        {
          "internalType": "uint256",
          "name": "tokenId",
          "type": "uint256"
        },
        {
          "internalType": "uint256",
          "name": "amount",
          "type": "uint256"
        }
      ],
      "name": "withdrawFundingTokens",
      "outputs": [],
      "stateMutability": "nonpayable",
      "type": "function"
    },
    {
      "inputs": [
        {
          "internalType": "uint256",
          "name": "tokenId_",
          "type": "uint256"
        },
        {
          "internalType": "uint256",
          "name": "amountToWithdraw_",
          "type": "uint256"
        }
      ],
      "name": "withdrawJotTokens",
      "outputs": [],
      "stateMutability": "nonpayable",
      "type": "function"
    },
    {
      "inputs": [
        {
          "internalType": "uint256",
          "name": "tokenId",
          "type": "uint256"
        },
        {
          "internalType": "uint256",
          "name": "amount",
          "type": "uint256"
        }
      ],
      "name": "withdrawLiquidityFromFuturePool",
      "outputs": [],
      "stateMutability": "nonpayable",
      "type": "function"
    },
    {
      "inputs": [
        {
          "internalType": "uint256",
          "name": "tokenId",
          "type": "uint256"
        },
        {
          "internalType": "uint256",
          "name": "amount",
          "type": "uint256"
        }
      ],
      "name": "withdrawLiquidityFromQuickswap",
      "outputs": [],
      "stateMutability": "nonpayable",
      "type": "function"
    }
  ],
  "transactionHash": "0xa3182e324f6a57c4f8b26ac2f38ee91842581c723c8c9737b9eabb8166f56da8",
  "args": [
    "0xc1cFda38f5c2c05D268E86D219521A64Ff0aE4Ff",
    "0xCd5a62a7aD9b2e19aa3386b654728EE9B1e75cCF"
  ],
  "solcInputHash": "34885e7a093b1857f8bf3aa939a3910e",
  "bytecode": "0x60c06040523480156200001157600080fd5b50604051620061813803806200618183398101604081905262000034916200012c565b600154610100900460ff16806200004e575060015460ff16155b620000b65760405162461bcd60e51b815260206004820152602e60248201527f496e697469616c697a61626c653a20636f6e747261637420697320616c72656160448201526d191e481a5b9a5d1a585b1a5e995960921b606482015260840160405180910390fd5b600154610100900460ff16158015620000d9576001805461ffff19166101011790555b6001600160601b0319606084811b821660805283901b1660a052801562000106576001805461ff00191690555b50505062000163565b80516001600160a01b03811681146200012757600080fd5b919050565b600080604083850312156200013f578182fd5b6200014a836200010f565b91506200015a602084016200010f565b90509250929050565b60805160601c60a05160601c615feb62000196600039600081816117660152612b04015260006115b90152615feb6000f3fe608060405234801561001057600080fd5b50600436106103e65760003560e01c806379a9fa1c1161020a578063a03bf2b311610125578063cd87eb52116100b8578063e445a50211610087578063e445a502146109c0578063ecf70d37146109d3578063ee2af58d146109f5578063f0b3825014610a08578063f5e95acb14610a3c57600080fd5b8063cd87eb5214610965578063d3c4ea9214610987578063d547741f1461099a578063e028ba7f146109ad57600080fd5b8063b1da4db7116100f4578063b1da4db714610919578063b49538371461092c578063c700395b1461093f578063cb1a233d1461095257600080fd5b8063a03bf2b3146108c4578063a217fddf146108d7578063ab8f2b1b146108df578063abacac25146108f257600080fd5b80638aab42741161019d5780638f2e5b021161016c5780638f2e5b021461088257806391d14854146108955780639c76a6ac146108a85780639d806b54146108b157600080fd5b80638aab4274146108365780638c7a6661146108495780638ce744261461085c5780638d49d4641461086f57600080fd5b80638753367f116101d95780638753367f146107d55780638810cf5f146107e8578063886747cd1461081057806389736a901461082357600080fd5b806379a9fa1c146107405780637c4950c7146107535780637e0aa10c1461076657806383a13100146107c257600080fd5b806336b64fc21161030557806357841014116102985780635c920736116102675780635c920736146106e15780635ea172d0146106f45780636332fb8b146107075780636e26115c1461071a57806373233ea61461072d57600080fd5b8063578410141461066657806358e8bcb714610694578063593aa283146106bb5780635a5d096c146106ce57600080fd5b80634c4e03f9116102d45780634c4e03f9146105b55780634c538fde146105c85780634d81bea1146105db5780634f64b2be146105ee57600080fd5b806336b64fc21461056757806339fb284e1461057a5780634bc4d5991461058f5780634c4b206b146105a257600080fd5b80631c06b6ba1161037d5780632f2ff15d1161034c5780632f2ff15d1461052457806330218c301461053757806332fe7b261461053f57806336568abe1461055457600080fd5b80631c06b6ba146104c8578063248a9ca3146104db57806326964e51146104fe57806326aa143b1461051157600080fd5b8063141a468c116103b9578063141a468c146104665780631755ff21146104945780631a179a511461049c5780631bfc2357146104af57600080fd5b806301ffc9a7146103eb57806302d7965214610413578063072ac5f3146104285780630f1203d01461043b575b600080fd5b6103fe6103f9366004615846565b610a4f565b60405190151581526020015b60405180910390f35b61042661042136600461574c565b610a60565b005b610426610436366004615825565b610e5b565b60025461044e906001600160a01b031681565b6040516001600160a01b03909116815260200161040a565b61048661047436600461571c565b60106020526000908152604090205481565b60405190815260200161040a565b61044e6112a9565b60035461044e906001600160a01b031681565b60015461044e906201000090046001600160a01b031681565b6104266104d6366004615825565b61132b565b6104866104e936600461571c565b60009081526020819052604090206001015490565b61042661050c366004615ab0565b611523565b61048661051f36600461571c565b6116f2565b61042661053236600461574c565b61171b565b610486611741565b610486600080516020615f9683398151915281565b61042661056236600461574c565b611820565b610426610575366004615566565b61189e565b610486600080516020615f7683398151915281565b600b5461044e906001600160a01b031681565b60135461044e906001600160a01b031681565b6104266105c3366004615825565b6118da565b600c5461044e906001600160a01b031681565b6104266105e936600461592e565b611b48565b6106506105fc36600461571c565b600f6020526000908152604090208054600182015460028301546003840154600485015460058601546006870154600788015460088901546009909901549798969795969495939492939192909160ff168a565b60405161040a9a99989796959493929190615dad565b61067961067436600461571c565b611bbe565b6040805193845260208401929092529082015260600161040a565b6104867fe87beaa2684453d25a1f0e3e7002e109b34fc4f132f115c9a7707901e792751381565b6104266106c9366004615952565b611ca5565b6103fe6106dc36600461574c565b611f05565b6104266106ef366004615825565b611f98565b610486610702366004615a46565b6121d8565b61042661071536600461577b565b612499565b6104266107283660046159b9565b6125fe565b6103fe61073b36600461571c565b612860565b61042661074e36600461571c565b6128aa565b60155461044e906001600160a01b031681565b61079e61077436600461571c565b6011602052600090815260409020805460018201546002909201549091906001600160a01b031683565b6040805193845260208401929092526001600160a01b03169082015260600161040a565b600a5461044e906001600160a01b031681565b6104266107e336600461571c565b612968565b6107fb6107f636600461571c565b612bc2565b6040805192835260208301919091520161040a565b61042661081e366004615825565b612d5b565b610426610831366004615825565b612eae565b610486610844366004615825565b612fcf565b610426610857366004615825565b612ff5565b60095461044e906001600160a01b031681565b61042661087d366004615825565b61302b565b6107fb61089036600461571c565b61346f565b6103fe6108a336600461574c565b61351a565b610486600d5481565b6104266108bf366004615825565b613543565b6104266108d2366004615825565b61364f565b610486600081565b6104266108ed366004615825565b61379a565b6104867f747c8a75243ae2ca1d188aaaeab610daf9d97e45b6513baed451ebf0b9ec74fd81565b60145461044e906001600160a01b031681565b61042661093a366004615825565b61388b565b61042661094d366004615825565b613937565b61042661096036600461571c565b613ba8565b6103fe61097336600461571c565b6000908152600f6020526040902054151590565b61042661099536600461571c565b613d3b565b6104266109a836600461574c565b613d98565b6104266109bb366004615825565b613dbe565b6103fe6109ce36600461571c565b613e6a565b6103fe6109e136600461571c565b600090815260076020526040902054151590565b610426610a03366004615825565b6140d6565b61044e610a16366004615825565b60126020908152600092835260408084209091529082529020546001600160a01b031681565b610426610a4a36600461559e565b61429a565b6000610a5a826144c1565b92915050565b600080516020615f76833981519152610a7981336144f6565b60135460405163c87b56dd60e01b8152600481018590526000916001600160a01b03169063c87b56dd9060240160006040518083038186803b158015610abe57600080fd5b505afa158015610ad2573d6000803e3d6000fd5b505050506040513d6000823e601f3d908101601f19168201604052610afa919081019061586e565b6000858152600f6020526040908190208054601354925163dbf5132560e01b815260048101899052939450909290916001600160a01b03169063dbf5132590602401600060405180830381600087803b158015610b5657600080fd5b505af1158015610b6a573d6000803e3d6000fd5b5050601354604051636902622f60e11b8152600093506001600160a01b03909116915063d204c45e90610ba39089908890600401615bc0565b602060405180830381600087803b158015610bbd57600080fd5b505af1158015610bd1573d6000803e3d6000fd5b505050506040513d601f19601f82011682018060405250810190610bf59190615734565b905080600760008481526020019081526020016000208190555060405180610140016040528060008152602001600081526020016000815260200160008152602001600081526020016000815260200160008152602001600081526020016000815260200160006003811115610c7b57634e487b7160e01b600052602160045260246000fd5b815250600f6000898152602001908152602001600020600082015181600001556020820151816001015560408201518160020155606082015181600301556080820151816004015560a0820151816005015560c0820151816006015560e0820151816007015561010082015181600801556101208201518160090160006101000a81548160ff02191690836003811115610d2557634e487b7160e01b600052602160045260246000fd5b021790555090505060405180610140016040528083815260200169021e19e0c9bab240000081526020016000815260200160008152602001600081526020016000815260200160008152602001600081526020016000815260200160026003811115610da157634e487b7160e01b600052602160045260246000fd5b815250600f6000838152602001908152602001600020600082015181600001556020820151816001015560408201518160020155606082015181600301556080820151816004015560a0820151816005015560c0820151816006015560e0820151816007015561010082015181600801556101208201518160090160006101000a81548160ff02191690836003811115610e4b57634e487b7160e01b600052602160045260246000fd5b0217905550505050505050505050565b7fe87beaa2684453d25a1f0e3e7002e109b34fc4f132f115c9a7707901e7927513610e8681336144f6565b600080600960009054906101000a90046001600160a01b03166001600160a01b031663b94d25ce6040518163ffffffff1660e01b815260040160206040518083038186803b158015610ed757600080fd5b505afa158015610eeb573d6000803e3d6000fd5b505050506040513d601f19601f82011682018060405250810190610f0f9190615734565b90506000600960009054906101000a90046001600160a01b03166001600160a01b0316631861779d6040518163ffffffff1660e01b815260040160206040518083038186803b158015610f6157600080fd5b505afa158015610f75573d6000803e3d6000fd5b505050506040513d601f19601f82011682018060405250810190610f999190615734565b6000868152600660209081526040808320815160608101835281548082526001928301546001600160401b03811683870152600160401b90046001600160a01b0316828501528552600f9093529220918201549293509180851115610ffc578094505b84841115611008578493505b886110aa57848260010160008282546110219190615ecc565b909155505060208301516001600160401b0316891461104257849550611082565b61104c8486615ecc565b600089815260066020526040902060010154600b54919750611082916001600160a01b0390811691600160401b9004168661455a565b85156110a557601454600b546110a5916001600160a01b0391821691168861455a565b6111e2565b82602001516001600160401b031689146110c657849550611158565b6110d08486615ecc565b600b5460145460008b815260066020526040908190206001015490516311c9479960e21b81529399506001600160a01b03928316936347251e649361112593811692600160401b900416908990600401615b9c565b600060405180830381600087803b15801561113f57600080fd5b505af1158015611153573d6000803e3d6000fd5b505050505b85156111e257858260010160008282546111729190615e75565b9091555050600b546014546040516311c9479960e21b81526001600160a01b03928316926347251e64926111af9291169030908b90600401615b9c565b600060405180830381600087803b1580156111c957600080fd5b505af11580156111dd573d6000803e3d6000fd5b505050505b60018201546112525760015483516040516316bfb45760e11b81526004810191909152620100009091046001600160a01b031690632d7f68ae90602401600060405180830381600087803b15801561123957600080fd5b505af115801561124d573d6000803e3d6000fd5b505050505b8251602080850151604080516001600160401b0390921682529181018c90528a917f10c2415cd62b00f83e15c907a08b12444e71bcc1645322f97a631df735fe49e3910160405180910390a3505050505050505050565b600b54604080516324dead2f60e11b815290516000926001600160a01b0316916349bd5a5e916004808301926020929190829003018186803b1580156112ee57600080fd5b505afa158015611302573d6000803e3d6000fd5b505050506040513d601f19601f820116820180604052508101906113269190615582565b905090565b6000828152600f6020526040902061134283612860565b156113685760405162461bcd60e51b815260040161135f90615cfa565b60405180910390fd5b6113728333611f05565b6113b85760405162461bcd60e51b81526020600482015260176024820152764f6e6c79206f776e65722063616e20776974686472617760481b604482015260640161135f565b6113ef60405180604001604052806011815260200170746f6b656e2e6f776e6572537570706c7960781b81525082600101546145b0565b80600101548211156114135760405162461bcd60e51b815260040161135f90615c32565b818160010160008282546114279190615ecc565b9091555050600b5460405163a9059cbb60e01b81526001600160a01b039091169063a9059cbb9061145e9033908690600401615be4565b602060405180830381600087803b15801561147857600080fd5b505af115801561148c573d6000803e3d6000fd5b505050506040513d601f19601f820116820180604052508101906114b09190615700565b50600181015461151e576001546040516316bfb45760e11b815260048101859052620100009091046001600160a01b031690632d7f68ae90602401600060405180830381600087803b15801561150557600080fd5b505af1158015611519573d6000803e3d6000fd5b505050505b505050565b6000828152600f6020526040902061153a83613e6a565b6115865760405162461bcd60e51b815260206004820152601760248201527f466c6970206973206e6f7420616c6c6f77656420796574000000000000000000604482015260640161135f565b61158f83612860565b156115ac5760405162461bcd60e51b815260040161135f90615cfa565b42816006018190555060007f00000000000000000000000000000000000000000000000000000000000000006001600160a01b031663dbdff2c16040518163ffffffff1660e01b8152600401602060405180830381600087803b15801561161257600080fd5b505af1158015611626573d6000803e3d6000fd5b505050506040513d601f19601f8201168201806040525081019061164a9190615734565b604080516060810182528681526001600160401b038681166020808401828152338587018181526000898152600685528890209651875591516001909601805492516001600160a01b0316600160401b026001600160e01b031990931696909516959095171790925592519283529293508692909184917ff3430182a8f4149cb1910574795295555b8119134718716b9f3e5024189a64a5910160405180910390a450505050565b6000818152600f60205260408120600381015460028201546117149190615ecc565b9392505050565b60008281526020819052604090206001015461173781336144f6565b61151e83836145f5565b600a54604051630502c73b60e41b81526001600160a01b0391821660048201526000917f0000000000000000000000000000000000000000000000000000000000000000169063502c73b090602401602060405180830381600087803b1580156117aa57600080fd5b505af11580156117be573d6000803e3d6000fd5b505050506040513d601f19601f820116820180604052508101906117e29190615734565b90507fbe2b5ab4e879a268995b8af0c68a310c39e8c1573b4c283ef80e3c64125499b98160405161181591815260200190565b60405180910390a190565b6001600160a01b03811633146118905760405162461bcd60e51b815260206004820152602f60248201527f416363657373436f6e74726f6c3a2063616e206f6e6c792072656e6f756e636560448201526e103937b632b9903337b91039b2b63360891b606482015260840161135f565b61189a8282614679565b5050565b600080516020615f968339815191526118b781336144f6565b50600380546001600160a01b0319166001600160a01b0392909216919091179055565b6000828152600f6020526040908190206013549151634f558e7960e01b81526004810185905290916001600160a01b031690634f558e799060240160206040518083038186803b15801561192d57600080fd5b505afa158015611941573d6000803e3d6000fd5b505050506040513d601f19601f820116820180604052508101906119659190615700565b6119a85760405162461bcd60e51b8152602060048201526014602482015273151bdad95b881b9bdd081c9959da5cdd195c995960621b604482015260640161135f565b60405163d52cb9cb60e01b8152600481018290526024810183905260009073697bB9ED8fa7fc8bf6cCFF12cf1FB64027A2E5B59063d52cb9cb9060440160206040518083038186803b1580156119fd57600080fd5b505af4158015611a11573d6000803e3d6000fd5b505050506040513d601f19601f82011682018060405250810190611a359190615734565b600c546040516323b872dd60e01b81529192506001600160a01b0316906323b872dd90611a6a90339030908690600401615b9c565b602060405180830381600087803b158015611a8457600080fd5b505af1158015611a98573d6000803e3d6000fd5b505050506040513d601f19601f82011682018060405250810190611abc9190615700565b50600b5460405163a9059cbb60e01b81526001600160a01b039091169063a9059cbb90611aef9033908790600401615be4565b602060405180830381600087803b158015611b0957600080fd5b505af1158015611b1d573d6000803e3d6000fd5b505050506040513d601f19601f82011682018060405250810190611b419190615700565b5050505050565b611b528233611f05565b611b9e5760405162461bcd60e51b815260206004820152601a60248201527f4f6e6c79206f776e65722063616e206368616e676520666c6970000000000000604482015260640161135f565b600091825260086020526040909120805460ff1916911515919091179055565b6000806000611bcc84612860565b15611be95760405162461bcd60e51b815260040161135f90615cfa565b600080611bf586612bc2565b600554600d5460405163cfcbe04560e01b8152600481018590526024810184905269021e19e0c9bab2400000604482015260648101919091529294509092506001600160a01b03169063cfcbe0459060840160606040518083038186803b158015611c5f57600080fd5b505afa158015611c73573d6000803e3d6000fd5b505050506040513d601f19601f82011682018060405250810190611c979190615a19565b989097509095509350505050565b6000828152600f602052604090206002600982015460ff166003811115611cdc57634e487b7160e01b600052602160045260246000fd5b1415611d355760405162461bcd60e51b815260206004820152602260248201527f43616e2774206368616e6765206d657461646174612061667465722076657269604482015261667960f01b606482015260840161135f565b6001600982015460ff166003811115611d5e57634e487b7160e01b600052602160045260246000fd5b1415611dba5760405162461bcd60e51b815260206004820152602560248201527f43616e2774206368616e6765206d65746164617461207768696c6520766572696044820152646679696e6760d81b606482015260840161135f565b6013546040516331a9108f60e11b8152600481018590526000916001600160a01b031690636352211e9060240160206040518083038186803b158015611dff57600080fd5b505afa158015611e13573d6000803e3d6000fd5b505050506040513d601f19601f82011682018060405250810190611e379190615582565b9050336001600160a01b03821614611e9b5760405162461bcd60e51b815260206004820152602160248201527f596f7520617265206e6f7420746865206f776e6572206f6620746865204e46546044820152602160f81b606482015260840161135f565b60135460405163593aa28360e01b81526001600160a01b039091169063593aa28390611ecd9087908790600401615d94565b600060405180830381600087803b158015611ee757600080fd5b505af1158015611efb573d6000803e3d6000fd5b5050505050505050565b6013546040516331a9108f60e11b8152600481018490526000916001600160a01b0384811692911690636352211e9060240160206040518083038186803b158015611f4f57600080fd5b505afa158015611f63573d6000803e3d6000fd5b505050506040513d601f19601f82011682018060405250810190611f879190615582565b6001600160a01b0316149392505050565b6000828152600f6020526040902060010154811115611ff95760405162461bcd60e51b815260206004820152601f60248201527f45786368616e676520616d6f756e7420657863656564732062616c616e636500604482015260640161135f565b6004546040805160028082526060820183526001600160a01b03909316926000926020830190803683375050600b5482519293506001600160a01b03169183915060009061205757634e487b7160e01b600052603260045260246000fd5b6001600160a01b039283166020918202929092010152600c5482519116908290600190811061209657634e487b7160e01b600052603260045260246000fd5b6001600160a01b039092166020928302919091018201526000858152600f9091526040812060010180548592906120ce908490615ecc565b90915550506000848152600f602052604090206001015461214d576001546040516316bfb45760e11b815260048101869052620100009091046001600160a01b031690632d7f68ae90602401600060405180830381600087803b15801561213457600080fd5b505af1158015612148573d6000803e3d6000fd5b505050505b6040516338ed173960e01b81526001600160a01b038316906338ed173990612182908690600090869033904290600401615d24565b600060405180830381600087803b15801561219c57600080fd5b505af11580156121b0573d6000803e3d6000fd5b505050506040513d6000823e601f3d908101601f19168201604052611b419190810190615659565b6000600080516020615f968339815191526121f381336144f6565b6000878152600760205260409020541561224f5760405162461bcd60e51b815260206004820181905260248201527f53796e746865746963204e465420616c72656164792067656e65726174656421604482015260640161135f565b601354604051636902622f60e11b81526001600160a01b039091169063d204c45e906122819087908790600401615bc0565b602060405180830381600087803b15801561229b57600080fd5b505af11580156122af573d6000803e3d6000fd5b505050506040513d601f19601f820116820180604052508101906122d39190615734565b915060006122eb8769021e19e0c9bab2400000615ecc565b905060006040518061014001604052808a815260200189815260200183815260200160008152602001600081526020018881526020016000815260200160008152602001600081526020016000600381111561235757634e487b7160e01b600052602160045260246000fd5b815250905080600f6000868152602001908152602001600020600082015181600001556020820151816001015560408201518160020155606082015181600301556080820151816004015560a0820151816005015560c0820151816006015560e0820151816007015561010082015181600801556101208201518160090160006101000a81548160ff0219169083600381111561240457634e487b7160e01b600052602160045260246000fd5b0217905550505087612474576001546040516316bfb45760e11b815260048101869052620100009091046001600160a01b031690632d7f68ae90602401600060405180830381600087803b15801561245b57600080fd5b505af115801561246f573d6000803e3d6000fd5b505050505b5050506000818152600860205260409020805460ff1916600117905595945050505050565b7f747c8a75243ae2ca1d188aaaeab610daf9d97e45b6513baed451ebf0b9ec74fd6124c481336144f6565b6040808401516000908152600f60205220821561255d5760098101805460ff19166002179055600b546040516340c10f1960e01b81526001600160a01b03909116906340c10f199061252690309069021e19e0c9bab240000090600401615be4565b600060405180830381600087803b15801561254057600080fd5b505af1158015612554573d6000803e3d6000fd5b50505050612594565b606084015160098201805460ff1916600183600381111561258e57634e487b7160e01b600052602160045260246000fd5b02179055505b835160208086015160408088015181516001600160a01b039586168152949092169284019290925290820152831515606082015285907fcf5cb568c779c24ae423fed9236ba737105872c7e0b13ebb2fd578233747825a9060800160405180910390a25050505050565b600080516020615f9683398151915261261781336144f6565b6000858152600f6020526040902060018101546126695760405162461bcd60e51b815260206004820152601060248201526f10d85b89dd0818994818da185b99d95960821b604482015260640161135f565b6002600982015460ff16600381111561269257634e487b7160e01b600052602160045260246000fd5b146126d45760405162461bcd60e51b8152602060048201526012602482015271151bdad95b881b9bdd081d995c9a599a595960721b604482015260640161135f565b6013546040516331a9108f60e11b8152600481018890526001600160a01b03858116921690636352211e9060240160206040518083038186803b15801561271a57600080fd5b505afa15801561272e573d6000803e3d6000fd5b505050506040513d601f19601f820116820180604052508101906127529190615582565b6001600160a01b0316146127785760405162461bcd60e51b815260040161135f90615cd2565b805460009081526011602052604081208054909160019183919061279d908490615e75565b9091555050600181018690556002810180546001600160a01b038681166001600160a01b03199092169190911790915560098301805460ff19166003179055825460009081526007602052604080822082905588855588825290819020899055601354905163593aa28360e01b815291169063593aa28390612825908a908990600401615d94565b600060405180830381600087803b15801561283f57600080fd5b505af1158015612853573d6000803e3d6000fd5b5050505050505050505050565b6000818152600f602052604081206002600982015460ff16600381111561289757634e487b7160e01b600052602160045260246000fd5b1415806117145750600101541592915050565b600e546128b99061012c615e75565b42106129075760405162461bcd60e51b815260206004820152601d60248201527f4275796261636b20707269636520757064617465207265717569726564000000604482015260640161135f565b6129118133611f05565b61292d5760405162461bcd60e51b815260040161135f90615c5e565b61293681612860565b156129535760405162461bcd60e51b815260040161135f90615cfa565b61295c816146de565b61296581614b16565b50565b6000818152600f6020526040908190206013549151634f558e7960e01b81526004810184905290916001600160a01b031690634f558e799060240160206040518083038186803b1580156129bb57600080fd5b505afa1580156129cf573d6000803e3d6000fd5b505050506040513d601f19601f820116820180604052508101906129f39190615700565b612a365760405162461bcd60e51b8152602060048201526014602482015273151bdad95b881b9bdd081c9959da5cdd195c995960621b604482015260640161135f565b6002600982015460ff166003811115612a5f57634e487b7160e01b600052602160045260246000fd5b1415612aa65760405162461bcd60e51b8152602060048201526016602482015275151bdad95b88185b1c9958591e481d995c9a599a595960521b604482015260640161135f565b60098101805460ff19166001908117909155600a54825460009081526010602090815260408083205481516345b0ce7560e11b81526001600160a01b03958616600482015260248101899052604481019690965260648601525191937f000000000000000000000000000000000000000000000000000000000000000090931692638b619cea926084808301939282900301818787803b158015612b4957600080fd5b505af1158015612b5d573d6000803e3d6000fd5b505050506040513d601f19601f82011682018060405250810190612b819190615734565b9050807faf92676e6ce91b92427009a49e22fa6d354ed418db8d0965bca4232dcf3e658f3385604051612bb5929190615be4565b60405180910390a2505050565b6000818152600f60205260408120819081612bdb6112a9565b9050600082600701549050600080836001600160a01b0316630902f1ac6040518163ffffffff1660e01b815260040160606040518083038186803b158015612c2257600080fd5b505afa158015612c36573d6000803e3d6000fd5b505050506040513d601f19601f82011682018060405250810190612c5a91906158e0565b50915091506000846001600160a01b03166318160ddd6040518163ffffffff1660e01b815260040160206040518083038186803b158015612c9a57600080fd5b505afa158015612cae573d6000803e3d6000fd5b505050506040513d601f19601f82011682018060405250810190612cd29190615734565b905060008115612d215781612cf06001600160701b03861687615ead565b612cfa9190615e8d565b905081612d106001600160701b03851687615ead565b612d1a9190615e8d565b9750612d2e565b826001600160701b031697505b8087600201548860010154612d439190615e75565b612d4d9190615e75565b985050505050505050915091565b6000828152600f60205260409020612d738333611f05565b612db85760405162461bcd60e51b815260206004820152601660248201527513db9b1e481bdddb995c8818d85b8819195c1bdcda5d60521b604482015260640161135f565b604051630654881960e51b8152600481018290526024810183905273697bB9ED8fa7fc8bf6cCFF12cf1FB64027A2E5B59063ca9103209060440160006040518083038186803b158015612e0a57600080fd5b505af4158015612e1e573d6000803e3d6000fd5b5050600b546040516323b872dd60e01b81526001600160a01b0390911692506323b872dd9150612e5690339030908790600401615b9c565b602060405180830381600087803b158015612e7057600080fd5b505af1158015612e84573d6000803e3d6000fd5b505050506040513d601f19601f82011682018060405250810190612ea89190615700565b50505050565b6013546040516331a9108f60e11b81526004810184905233916001600160a01b031690636352211e9060240160206040518083038186803b158015612ef257600080fd5b505afa158015612f06573d6000803e3d6000fd5b505050506040513d601f19601f82011682018060405250810190612f2a9190615582565b6001600160a01b031614612f505760405162461bcd60e51b815260040161135f90615c5e565b6000828152600f6020526040908190209051630451aa3960e11b815260048101919091526024810182905273697bB9ED8fa7fc8bf6cCFF12cf1FB64027A2E5B5906308a35472906044015b60006040518083038186803b158015612fb357600080fd5b505af4158015612fc7573d6000803e3d6000fd5b505050505050565b6000828152600f60205260408120600501548190612fed9084615ead565b949350505050565b7f747c8a75243ae2ca1d188aaaeab610daf9d97e45b6513baed451ebf0b9ec74fd61302081336144f6565b50600d555042600e55565b6000828152600f60205260409081902060135491516331a9108f60e11b815260048101859052909133916001600160a01b0390911690636352211e9060240160206040518083038186803b15801561308257600080fd5b505afa158015613096573d6000803e3d6000fd5b505050506040513d601f19601f820116820180604052508101906130ba9190615582565b6001600160a01b0316146130e05760405162461bcd60e51b815260040161135f90615cd2565b60008160030154116131295760405162461bcd60e51b8152602060048201526012602482015271736f6c64537570706c79206973207a65726f60701b604482015260640161135f565b806004015482111561314d5760405162461bcd60e51b815260040161135f90615c8a565b60006131576112a9565b9050600080826001600160a01b0316630902f1ac6040518163ffffffff1660e01b815260040160606040518083038186803b15801561319557600080fd5b505afa1580156131a9573d6000803e3d6000fd5b505050506040513d601f19601f820116820180604052508101906131cd91906158e0565b50915091506000826001600160701b03161180156131f457506000816001600160701b0316115b6132395760405162461bcd60e51b81526020600482015260166024820152754e6f20726573657276657320617661696c61626c652160501b604482015260640161135f565b60048054600b54600187015460405163095ea7b360e01b81526001600160a01b0393841694929093169263095ea7b392613277928692909101615be4565b602060405180830381600087803b15801561329157600080fd5b505af11580156132a5573d6000803e3d6000fd5b505050506040513d601f19601f820116820180604052508101906132c99190615700565b50600c546004805460405163095ea7b360e01b81526001600160a01b039384169363095ea7b39361330093909116918b9101615be4565b602060405180830381600087803b15801561331a57600080fd5b505af115801561332e573d6000803e3d6000fd5b505050506040513d601f19601f820116820180604052508101906133529190615700565b50600b54600c54600187015460405162e8e33760e81b81526001600160a01b039384166004820152918316602483015260448201526064810188905260006084820181905260a482018190523060c48301524260e4830152918291829185169063e8e337009061010401606060405180830381600087803b1580156133d657600080fd5b505af11580156133ea573d6000803e3d6000fd5b505050506040513d601f19601f8201168201806040525081019061340e9190615a19565b925092509250828860010160008282546134289190615ecc565b92505081905550818860040160008282546134439190615ecc565b925050819055508088600701600082825461345e9190615e75565b909155505050505050505050505050565b60055460009081906001600160a01b031663f4e5ff0d61348d6112a9565b6000868152600f6020526040908190206007015490516001600160e01b031960e085901b1681526134c2929190600401615be4565b604080518083038186803b1580156134d957600080fd5b505afa1580156134ed573d6000803e3d6000fd5b505050506040513d601f19601f820116820180604052508101906135119190615996565b91509150915091565b6000918252602082815260408084206001600160a01b0393909316845291905290205460ff1690565b61354d8233611f05565b6135915760405162461bcd60e51b81526020600482015260156024820152742cb7ba9030b932903737ba103a34329037bbb732b960591b604482015260640161135f565b6000828152600f6020526040902060070154808211156135f35760405162461bcd60e51b815260206004820152601e60248201527f4e6f7420656e6f756768206c697175696469747920617661696c61626c650000604482015260640161135f565b6000838152600f602052604081206007018054849290613614908490615ecc565b9091555061362290506112a9565b6001600160a01b031663a9059cbb33846040518363ffffffff1660e01b8152600401612e56929190615be4565b6000828152600f6020526040902061366683612860565b156136835760405162461bcd60e51b815260040161135f90615cfa565b61368d8333611f05565b6136d35760405162461bcd60e51b81526020600482015260176024820152764f6e6c79206f776e65722063616e20776974686472617760481b604482015260640161135f565b80600401548211156136f75760405162461bcd60e51b815260040161135f90615c32565b600c5460405163a9059cbb60e01b81526001600160a01b039091169063a9059cbb906137299033908690600401615be4565b602060405180830381600087803b15801561374357600080fd5b505af1158015613757573d6000803e3d6000fd5b505050506040513d601f19601f8201168201806040525081019061377b9190615700565b50818160040160008282546137909190615ecc565b9091555050505050565b6013546040516331a9108f60e11b81526004810184905233916001600160a01b031690636352211e9060240160206040518083038186803b1580156137de57600080fd5b505afa1580156137f2573d6000803e3d6000fd5b505050506040513d601f19601f820116820180604052508101906138169190615582565b6001600160a01b03161461383c5760405162461bcd60e51b815260040161135f90615c5e565b6000828152600f6020526040908190209051630c66c75560e21b815260048101919091526024810182905273697bB9ED8fa7fc8bf6cCFF12cf1FB64027A2E5B59063319b1d5490604401612f9b565b6013546040516331a9108f60e11b81526004810184905233916001600160a01b031690636352211e9060240160206040518083038186803b1580156138cf57600080fd5b505afa1580156138e3573d6000803e3d6000fd5b505050506040513d601f19601f820116820180604052508101906139079190615582565b6001600160a01b03161461392d5760405162461bcd60e51b815260040161135f90615cd2565b61189a8282614bdc565b6013546040516331a9108f60e11b81526004810184905233916001600160a01b031690636352211e9060240160206040518083038186803b15801561397b57600080fd5b505afa15801561398f573d6000803e3d6000fd5b505050506040513d601f19601f820116820180604052508101906139b39190615582565b6001600160a01b0316146139d95760405162461bcd60e51b815260040161135f90615cd2565b60008111613a215760405162461bcd60e51b8152602060048201526015602482015274416d6f756e742063616e2774206265207a65726f2160581b604482015260640161135f565b6000828152600f6020526040902060040154811115613a525760405162461bcd60e51b815260040161135f90615c8a565b600c5460035460405163095ea7b360e01b81526001600160a01b039283169263095ea7b392613a88929116908590600401615be4565b602060405180830381600087803b158015613aa257600080fd5b505af1158015613ab6573d6000803e3d6000fd5b505050506040513d601f19601f82011682018060405250810190613ada9190615700565b5060035460405163366996df60e11b8152600481018390526000916001600160a01b031690636cd32dbe90602401602060405180830381600087803b158015613b2257600080fd5b505af1158015613b36573d6000803e3d6000fd5b505050506040513d601f19601f82011682018060405250810190613b5a9190615734565b905081600f60008581526020019081526020016000206004016000828254613b829190615ecc565b90915550506000838152600f602052604081206008018054839290613790908490615e75565b600154604051637b5f398960e01b815260048101839052620100009091046001600160a01b031690637b5f39899060240160206040518083038186803b158015613bf157600080fd5b505afa158015613c05573d6000803e3d6000fd5b505050506040513d601f19601f82011682018060405250810190613c299190615700565b613c755760405162461bcd60e51b815260206004820152601860248201527f546f6b656e206973206e6f74207265636f76657261626c650000000000000000604482015260640161135f565b613c7f8133611f05565b613c9b5760405162461bcd60e51b815260040161135f90615c5e565b600b54613cbd906001600160a01b0316333069021e19e0c9bab2400000614e0b565b6000818152600f60205260409081902069021e19e0c9bab2400000600191820155549051630532ab5d60e11b815260048101839052620100009091046001600160a01b031690630a6556ba906024015b600060405180830381600087803b158015613d2757600080fd5b505af1158015611b41573d6000803e3d6000fd5b600080516020615f76833981519152613d5481336144f6565b6000828152600f60205260409020600801548015613d7657613d768382614bdc565b6000838152600f60205260409020600701548015612ea857612fc78482614e2c565b600082815260208190526040902060010154613db481336144f6565b61151e8383614679565b6013546040516331a9108f60e11b81526004810184905233916001600160a01b031690636352211e9060240160206040518083038186803b158015613e0257600080fd5b505afa158015613e16573d6000803e3d6000fd5b505050506040513d601f19601f82011682018060405250810190613e3a9190615582565b6001600160a01b031614613e605760405162461bcd60e51b815260040161135f90615cd2565b612ea88282614e2c565b60008181526008602052604081205460ff168015613eff5750601354604051634f558e7960e01b8152600481018490526001600160a01b0390911690634f558e799060240160206040518083038186803b158015613ec757600080fd5b505afa158015613edb573d6000803e3d6000fd5b505050506040513d601f19601f82011682018060405250810190613eff9190615700565b8015613fab5750600960009054906101000a90046001600160a01b03166001600160a01b031663766873326040518163ffffffff1660e01b815260040160206040518083038186803b158015613f5457600080fd5b505afa158015613f68573d6000803e3d6000fd5b505050506040513d601f19601f82011682018060405250810190613f8c9190615734565b6000838152600f6020526040902060060154613fa89042615ecc565b10155b80156140b95750600960009054906101000a90046001600160a01b03166001600160a01b031663b94d25ce6040518163ffffffff1660e01b815260040160206040518083038186803b15801561400057600080fd5b505afa158015614014573d6000803e3d6000fd5b505050506040513d601f19601f820116820180604052508101906140389190615734565b600b546014546040516370a0823160e01b81526001600160a01b0391821660048201529116906370a082319060240160206040518083038186803b15801561407f57600080fd5b505afa158015614093573d6000803e3d6000fd5b505050506040513d601f19601f820116820180604052508101906140b79190615734565b115b8015610a5a57506000828152600f60205260409020541515610a5a565b6013546040516331a9108f60e11b81526004810184905233916001600160a01b031690636352211e9060240160206040518083038186803b15801561411a57600080fd5b505afa15801561412e573d6000803e3d6000fd5b505050506040513d601f19601f820116820180604052508101906141529190615582565b6001600160a01b0316146141a85760405162461bcd60e51b815260206004820152601760248201527f4f6e6c79206f776e65722063616e20696e637265617365000000000000000000604482015260640161135f565b6000828152600f6020526040908190209051633e8626f560e11b815260048101919091526024810182905273697bB9ED8fa7fc8bf6cCFF12cf1FB64027A2E5B590637d0c4dea9060440160006040518083038186803b15801561420a57600080fd5b505af415801561421e573d6000803e3d6000fd5b5050506000838152600f60205260409020600101541515905061189a576001546040516316bfb45760e11b815260048101849052620100009091046001600160a01b031690632d7f68ae90602401600060405180830381600087803b15801561428657600080fd5b505af1158015612fc7573d6000803e3d6000fd5b600154610100900460ff16806142b3575060015460ff16155b6143165760405162461bcd60e51b815260206004820152602e60248201527f496e697469616c697a61626c653a20636f6e747261637420697320616c72656160448201526d191e481a5b9a5d1a585b1a5e995960921b606482015260840161135f565b600154610100900460ff16158015614338576001805461ffff19166101011790555b600b80546001600160a01b03199081166001600160a01b038d8116919091179092556013805482168b8416179055600a805482168c841617905560028054339083161790556001805462010000600160b01b031916620100008b851602179055600980548216898416908117909155601480548316898516179055601580548316888516179055600480548316878516178155600580549093169386169390931790915560408051632629c7ef60e11b815290519192634c538fde928282019260209290829003018186803b15801561441057600080fd5b505afa158015614424573d6000803e3d6000fd5b505050506040513d601f19601f820116820180604052508101906144489190615582565b600c80546001600160a01b0319166001600160a01b03929092169190911790556144736000336150d4565b61448b600080516020615f96833981519152336150d4565b6144a3600080516020615f76833981519152886150d4565b80156144b5576001805461ff00191690555b50505050505050505050565b60006001600160e01b03198216637965db0b60e01b1480610a5a57506301ffc9a760e01b6001600160e01b0319831614610a5a565b614500828261351a565b61189a57614518816001600160a01b031660146150de565b6145238360206150de565b604051602001614534929190615b27565b60408051601f198184030181529082905262461bcd60e51b825261135f91600401615bfd565b61151e8363a9059cbb60e01b8484604051602401614579929190615be4565b60408051601f198184030181529190526020810180516001600160e01b03166001600160e01b0319909316929092179091526152bf565b61189a82826040516024016145c6929190615c10565b60408051601f198184030181529190526020810180516001600160e01b03166309710a9d60e41b179052615391565b6145ff828261351a565b61189a576000828152602081815260408083206001600160a01b03851684529091529020805460ff191660011790556146353390565b6001600160a01b0316816001600160a01b0316837f2f8788117e7eff1d82e926ec794901d17c78024a50270940304540a733656f0d60405160405180910390a45050565b614683828261351a565b1561189a576000828152602081815260408083206001600160a01b0385168085529252808320805460ff1916905551339285917ff6391f5c32d9c69d2a47ea670b442974b53935d1edc7fd64eb21e047a839171b9190a45050565b6000818152600f6020526040812060078101549091906146ff908490614e2c565b9150506000826002015483600101546147189190615e75565b600554600d5460405163cfcbe04560e01b8152600481018490526024810186905269021e19e0c9bab240000060448201526064810191909152919250600091829182916001600160a01b039091169063cfcbe0459060840160606040518083038186803b15801561478857600080fd5b505afa15801561479c573d6000803e3d6000fd5b505050506040513d601f19601f820116820180604052508101906147c09190615a19565b925092509250600069021e19e0c9bab240000085106147e95769021e19e0c9bab24000006147eb565b845b600b54604051630852cd8d60e31b8152600481018390529192506001600160a01b0316906342966c6890602401600060405180830381600087803b15801561483257600080fd5b505af1158015614846573d6000803e3d6000fd5b5050505060008211156149f557600b546015546001600160a01b0391821691633950935191166148808469021e19e0c9bab2400000615ecc565b6040518363ffffffff1660e01b815260040161489d929190615be4565b602060405180830381600087803b1580156148b757600080fd5b505af11580156148cb573d6000803e3d6000fd5b505050506040513d601f19601f820116820180604052508101906148ef9190615700565b50601554600d546001600160a01b0390911690635ff44eb99084906149149082615e8d565b6040516001600160e01b031960e085901b16815260048101929092526024820152604401600060405180830381600087803b15801561495257600080fd5b505af1158015614966573d6000803e3d6000fd5b5050600c546015546040516323b872dd60e01b81526001600160a01b0392831694506323b872dd93506149a192339216908790600401615b9c565b602060405180830381600087803b1580156149bb57600080fd5b505af11580156149cf573d6000803e3d6000fd5b505050506040513d601f19601f820116820180604052508101906149f39190615700565b505b8215614a8157600c5460405163a9059cbb60e01b81526001600160a01b039091169063a9059cbb90614a2d9033908790600401615be4565b602060405180830381600087803b158015614a4757600080fd5b505af1158015614a5b573d6000803e3d6000fd5b505050506040513d601f19601f82011682018060405250810190614a7f9190615700565b505b8315611efb57600b5460405163a9059cbb60e01b81526001600160a01b039091169063a9059cbb90614ab99033908890600401615be4565b602060405180830381600087803b158015614ad357600080fd5b505af1158015614ae7573d6000803e3d6000fd5b505050506040513d601f19601f82011682018060405250810190614b0b9190615700565b505050505050505050565b6000818152600f6020908152604080832080548452601083528184205460128452828520818652909352922080546001600160a01b03191633179055614b5d816001615e75565b8254600090815260106020526040902055614b77836153b2565b50546000908152600760208181526040808420849055938352600f90529181208181556001810182905560028101829055600381018290556004810182905560058101829055600681018290559182018190556008820155600901805460ff19169055565b60008111614c235760405162461bcd60e51b8152602060048201526014602482015273416d6f756e742063616e2774206265207a65726f60601b604482015260640161135f565b6000828152600f6020526040902060080154811115614c545760405162461bcd60e51b815260040161135f90615c32565b600c546040516370a0823160e01b81523060048201526000916001600160a01b0316906370a082319060240160206040518083038186803b158015614c9857600080fd5b505afa158015614cac573d6000803e3d6000fd5b505050506040513d601f19601f82011682018060405250810190614cd09190615734565b600354604051639c8f9f2360e01b8152600481018590529192506001600160a01b031690639c8f9f2390602401600060405180830381600087803b158015614d1757600080fd5b505af1158015614d2b573d6000803e3d6000fd5b5050600c546040516370a0823160e01b8152306004820152600093506001600160a01b0390911691506370a082319060240160206040518083038186803b158015614d7557600080fd5b505afa158015614d89573d6000803e3d6000fd5b505050506040513d601f19601f82011682018060405250810190614dad9190615734565b9050614db98282615ecc565b6000858152600f602052604081206004018054909190614dda908490615e75565b90915550506000848152600f602052604081206008018054859290614e00908490615ecc565b909155505050505050565b612ea8846323b872dd60e01b85858560405160240161457993929190615b9c565b6000828152600f60205260408120819083614e4e5760008092509250506150cd565b8381600701541015614eb15760405162461bcd60e51b815260206004820152602660248201527f54686572652773206e6f7420656e6f756768206c697175696469747920617661604482015265696c61626c6560d01b606482015260840161135f565b6004546001600160a01b03166000614ec76112a9565b6004805460405163095ea7b360e01b81529293506001600160a01b038085169363095ea7b393614efd93909216918b9101615be4565b602060405180830381600087803b158015614f1757600080fd5b505af1158015614f2b573d6000803e3d6000fd5b505050506040513d601f19601f82011682018060405250810190614f4f9190615700565b50600c54600b5460009182916001600160a01b03918216911610614f8557600c54600b546001600160a01b039182169116614f99565b600b54600c546001600160a01b0391821691165b604051635d5155ef60e11b81526001600160a01b0380841660048301528083166024830152604482018c9052600060648301819052608483018190523060a48401524260c4840152939550919350829187169063baa2abde9060e4016040805180830381600087803b15801561500e57600080fd5b505af1158015615022573d6000803e3d6000fd5b505050506040513d601f19601f820116820180604052508101906150469190615996565b600c54600b549294509092506001600160a01b0390811691161061506b57808261506e565b81815b809950819a5050508887600101600082825461508a9190615e75565b92505081905550878760040160008282546150a59190615e75565b92505081905550898760070160008282546150c09190615e75565b9091555050505050505050505b9250929050565b61189a82826145f5565b606060006150ed836002615ead565b6150f8906002615e75565b6001600160401b0381111561511d57634e487b7160e01b600052604160045260246000fd5b6040519080825280601f01601f191660200182016040528015615147576020820181803683370190505b509050600360fc1b8160008151811061517057634e487b7160e01b600052603260045260246000fd5b60200101906001600160f81b031916908160001a905350600f60fb1b816001815181106151ad57634e487b7160e01b600052603260045260246000fd5b60200101906001600160f81b031916908160001a90535060006151d1846002615ead565b6151dc906001615e75565b90505b6001811115615270576f181899199a1a9b1b9c1cb0b131b232b360811b85600f166010811061521e57634e487b7160e01b600052603260045260246000fd5b1a60f81b82828151811061524257634e487b7160e01b600052603260045260246000fd5b60200101906001600160f81b031916908160001a90535060049490941c9361526981615f0f565b90506151df565b5083156117145760405162461bcd60e51b815260206004820181905260248201527f537472696e67733a20686578206c656e67746820696e73756666696369656e74604482015260640161135f565b6000615314826040518060400160405280602081526020017f5361666545524332303a206c6f772d6c6576656c2063616c6c206661696c6564815250856001600160a01b03166153e39092919063ffffffff16565b80519091501561151e57808060200190518101906153329190615700565b61151e5760405162461bcd60e51b815260206004820152602a60248201527f5361666545524332303a204552433230206f7065726174696f6e20646964206e6044820152691bdd081cdd58d8d9595960b21b606482015260840161135f565b80516a636f6e736f6c652e6c6f67602083016000808483855afa5050505050565b60135460405163dbf5132560e01b8152600481018390526001600160a01b039091169063dbf5132590602401613d0d565b6060612fed848460008585843b61543c5760405162461bcd60e51b815260206004820152601d60248201527f416464726573733a2063616c6c20746f206e6f6e2d636f6e7472616374000000604482015260640161135f565b600080866001600160a01b031685876040516154589190615b0b565b60006040518083038185875af1925050503d8060008114615495576040519150601f19603f3d011682016040523d82523d6000602084013e61549a565b606091505b50915091506154aa8282866154b5565b979650505050505050565b606083156154c4575081611714565b8251156154d45782518084602001fd5b8160405162461bcd60e51b815260040161135f9190615bfd565b80356154f981615f67565b919050565b600082601f83011261550e578081fd5b813561552161551c82615e4e565b615e1e565b818152846020838601011115615535578283fd5b816020850160208301379081016020019190915292915050565b80516001600160701b03811681146154f957600080fd5b600060208284031215615577578081fd5b813561171481615f52565b600060208284031215615593578081fd5b815161171481615f52565b60008060008060008060008060006101208a8c0312156155bc578485fd5b89356155c781615f52565b985060208a01356155d781615f52565b975060408a01356155e781615f52565b965060608a01356155f781615f52565b955060808a013561560781615f52565b945060a08a013561561781615f52565b935060c08a013561562781615f52565b925060e08a013561563781615f52565b91506101008a013561564881615f52565b809150509295985092959850929598565b6000602080838503121561566b578182fd5b82516001600160401b0380821115615681578384fd5b818501915085601f830112615694578384fd5b8151818111156156a6576156a6615f3c565b8060051b91506156b7848301615e1e565b8181528481019084860184860187018a10156156d1578788fd5b8795505b838610156156f35780518352600195909501949186019186016156d5565b5098975050505050505050565b600060208284031215615711578081fd5b815161171481615f67565b60006020828403121561572d578081fd5b5035919050565b600060208284031215615745578081fd5b5051919050565b6000806040838503121561575e578182fd5b82359150602083013561577081615f52565b809150509250929050565b600080600083850360c0811215615790578182fd5b843593506080601f19820112156157a5578182fd5b50604051608081018181106001600160401b03821117156157c8576157c8615f3c565b60405260208501356157d981615f52565b815260408501356157e981615f52565b602082015260608501356040820152608085013560048110615809578283fd5b6060820152915061581c60a085016154ee565b90509250925092565b60008060408385031215615837578182fd5b50508035926020909101359150565b600060208284031215615857578081fd5b81356001600160e01b031981168114611714578182fd5b60006020828403121561587f578081fd5b81516001600160401b03811115615894578182fd5b8201601f810184136158a4578182fd5b80516158b261551c82615e4e565b8181528560208385010111156158c6578384fd5b6158d7826020830160208601615ee3565b95945050505050565b6000806000606084860312156158f4578081fd5b6158fd8461554f565b925061590b6020850161554f565b9150604084015163ffffffff81168114615923578182fd5b809150509250925092565b60008060408385031215615940578182fd5b82359150602083013561577081615f67565b60008060408385031215615964578182fd5b8235915060208301356001600160401b03811115615980578182fd5b61598c858286016154fe565b9150509250929050565b600080604083850312156159a8578182fd5b505080516020909101519092909150565b600080600080608085870312156159ce578182fd5b843593506020850135925060408501356001600160401b038111156159f1578283fd5b6159fd878288016154fe565b9250506060850135615a0e81615f52565b939692955090935050565b600080600060608486031215615a2d578081fd5b8351925060208401519150604084015190509250925092565b600080600080600060a08688031215615a5d578283fd5b8535945060208601359350604086013592506060860135615a7d81615f52565b915060808601356001600160401b03811115615a97578182fd5b615aa3888289016154fe565b9150509295509295909350565b60008060408385031215615ac2578182fd5b8235915060208301356001600160401b0381168114615770578182fd5b60008151808452615af7816020860160208601615ee3565b601f01601f19169290920160200192915050565b60008251615b1d818460208701615ee3565b9190910192915050565b7f416363657373436f6e74726f6c3a206163636f756e7420000000000000000000815260008351615b5f816017850160208801615ee3565b7001034b99036b4b9b9b4b733903937b6329607d1b6017918401918201528351615b90816028840160208801615ee3565b01602801949350505050565b6001600160a01b039384168152919092166020820152604081019190915260600190565b6001600160a01b0383168152604060208201819052600090612fed90830184615adf565b6001600160a01b03929092168252602082015260400190565b6020815260006117146020830184615adf565b604081526000615c236040830185615adf565b90508260208301529392505050565b6020808252601290820152714e6f7420656e6f7567682062616c616e636560701b604082015260600190565b60208082526012908201527113db9b1e481bdddb995c88185b1b1bddd95960721b604082015260600190565b60208082526028908201527f416d6f756e742069732067726561746572207468616e20617661696c61626c656040820152672066756e64696e6760c01b606082015260800190565b6020808252600e908201526d14da1bdd5b19081bdddb8813919560921b604082015260600190565b60208082526010908201526f546f6b656e206973206c6f636b65642160801b604082015260600190565b600060a082018783526020878185015260a0604085015281875180845260c0860191508289019350845b81811015615d735784516001600160a01b031683529383019391830191600101615d4e565b50506001600160a01b03969096166060850152505050608001529392505050565b828152604060208201526000612fed6040830184615adf565b6000610140820190508b82528a60208301528960408301528860608301528760808301528660a08301528560c08301528460e08301528361010083015260048310615e0857634e487b7160e01b600052602160045260246000fd5b826101208301529b9a5050505050505050505050565b604051601f8201601f191681016001600160401b0381118282101715615e4657615e46615f3c565b604052919050565b60006001600160401b03821115615e6757615e67615f3c565b50601f01601f191660200190565b60008219821115615e8857615e88615f26565b500190565b600082615ea857634e487b7160e01b81526012600452602481fd5b500490565b6000816000190483118215151615615ec757615ec7615f26565b500290565b600082821015615ede57615ede615f26565b500390565b60005b83811015615efe578181015183820152602001615ee6565b83811115612ea85750506000910152565b600081615f1e57615f1e615f26565b506000190190565b634e487b7160e01b600052601160045260246000fd5b634e487b7160e01b600052604160045260246000fd5b6001600160a01b038116811461296557600080fd5b801515811461296557600080fdfec55a74c743a5d6aff6a82963adf054e2367242c4a636870f26b8ee90910968d0eb4fd9f47c063b511700e1c8e94e2fa4088ffca1fdcef1e60edf1beecd1b2e64a2646970667358221220e7265aaafa69bda3f3532a60535d36b5259f1e9f063049677c8ba3906b0161b664736f6c63430008040033",
  "deployedBytecode": "0x608060405234801561001057600080fd5b50600436106103e65760003560e01c806379a9fa1c1161020a578063a03bf2b311610125578063cd87eb52116100b8578063e445a50211610087578063e445a502146109c0578063ecf70d37146109d3578063ee2af58d146109f5578063f0b3825014610a08578063f5e95acb14610a3c57600080fd5b8063cd87eb5214610965578063d3c4ea9214610987578063d547741f1461099a578063e028ba7f146109ad57600080fd5b8063b1da4db7116100f4578063b1da4db714610919578063b49538371461092c578063c700395b1461093f578063cb1a233d1461095257600080fd5b8063a03bf2b3146108c4578063a217fddf146108d7578063ab8f2b1b146108df578063abacac25146108f257600080fd5b80638aab42741161019d5780638f2e5b021161016c5780638f2e5b021461088257806391d14854146108955780639c76a6ac146108a85780639d806b54146108b157600080fd5b80638aab4274146108365780638c7a6661146108495780638ce744261461085c5780638d49d4641461086f57600080fd5b80638753367f116101d95780638753367f146107d55780638810cf5f146107e8578063886747cd1461081057806389736a901461082357600080fd5b806379a9fa1c146107405780637c4950c7146107535780637e0aa10c1461076657806383a13100146107c257600080fd5b806336b64fc21161030557806357841014116102985780635c920736116102675780635c920736146106e15780635ea172d0146106f45780636332fb8b146107075780636e26115c1461071a57806373233ea61461072d57600080fd5b8063578410141461066657806358e8bcb714610694578063593aa283146106bb5780635a5d096c146106ce57600080fd5b80634c4e03f9116102d45780634c4e03f9146105b55780634c538fde146105c85780634d81bea1146105db5780634f64b2be146105ee57600080fd5b806336b64fc21461056757806339fb284e1461057a5780634bc4d5991461058f5780634c4b206b146105a257600080fd5b80631c06b6ba1161037d5780632f2ff15d1161034c5780632f2ff15d1461052457806330218c301461053757806332fe7b261461053f57806336568abe1461055457600080fd5b80631c06b6ba146104c8578063248a9ca3146104db57806326964e51146104fe57806326aa143b1461051157600080fd5b8063141a468c116103b9578063141a468c146104665780631755ff21146104945780631a179a511461049c5780631bfc2357146104af57600080fd5b806301ffc9a7146103eb57806302d7965214610413578063072ac5f3146104285780630f1203d01461043b575b600080fd5b6103fe6103f9366004615846565b610a4f565b60405190151581526020015b60405180910390f35b61042661042136600461574c565b610a60565b005b610426610436366004615825565b610e5b565b60025461044e906001600160a01b031681565b6040516001600160a01b03909116815260200161040a565b61048661047436600461571c565b60106020526000908152604090205481565b60405190815260200161040a565b61044e6112a9565b60035461044e906001600160a01b031681565b60015461044e906201000090046001600160a01b031681565b6104266104d6366004615825565b61132b565b6104866104e936600461571c565b60009081526020819052604090206001015490565b61042661050c366004615ab0565b611523565b61048661051f36600461571c565b6116f2565b61042661053236600461574c565b61171b565b610486611741565b610486600080516020615f9683398151915281565b61042661056236600461574c565b611820565b610426610575366004615566565b61189e565b610486600080516020615f7683398151915281565b600b5461044e906001600160a01b031681565b60135461044e906001600160a01b031681565b6104266105c3366004615825565b6118da565b600c5461044e906001600160a01b031681565b6104266105e936600461592e565b611b48565b6106506105fc36600461571c565b600f6020526000908152604090208054600182015460028301546003840154600485015460058601546006870154600788015460088901546009909901549798969795969495939492939192909160ff168a565b60405161040a9a99989796959493929190615dad565b61067961067436600461571c565b611bbe565b6040805193845260208401929092529082015260600161040a565b6104867fe87beaa2684453d25a1f0e3e7002e109b34fc4f132f115c9a7707901e792751381565b6104266106c9366004615952565b611ca5565b6103fe6106dc36600461574c565b611f05565b6104266106ef366004615825565b611f98565b610486610702366004615a46565b6121d8565b61042661071536600461577b565b612499565b6104266107283660046159b9565b6125fe565b6103fe61073b36600461571c565b612860565b61042661074e36600461571c565b6128aa565b60155461044e906001600160a01b031681565b61079e61077436600461571c565b6011602052600090815260409020805460018201546002909201549091906001600160a01b031683565b6040805193845260208401929092526001600160a01b03169082015260600161040a565b600a5461044e906001600160a01b031681565b6104266107e336600461571c565b612968565b6107fb6107f636600461571c565b612bc2565b6040805192835260208301919091520161040a565b61042661081e366004615825565b612d5b565b610426610831366004615825565b612eae565b610486610844366004615825565b612fcf565b610426610857366004615825565b612ff5565b60095461044e906001600160a01b031681565b61042661087d366004615825565b61302b565b6107fb61089036600461571c565b61346f565b6103fe6108a336600461574c565b61351a565b610486600d5481565b6104266108bf366004615825565b613543565b6104266108d2366004615825565b61364f565b610486600081565b6104266108ed366004615825565b61379a565b6104867f747c8a75243ae2ca1d188aaaeab610daf9d97e45b6513baed451ebf0b9ec74fd81565b60145461044e906001600160a01b031681565b61042661093a366004615825565b61388b565b61042661094d366004615825565b613937565b61042661096036600461571c565b613ba8565b6103fe61097336600461571c565b6000908152600f6020526040902054151590565b61042661099536600461571c565b613d3b565b6104266109a836600461574c565b613d98565b6104266109bb366004615825565b613dbe565b6103fe6109ce36600461571c565b613e6a565b6103fe6109e136600461571c565b600090815260076020526040902054151590565b610426610a03366004615825565b6140d6565b61044e610a16366004615825565b60126020908152600092835260408084209091529082529020546001600160a01b031681565b610426610a4a36600461559e565b61429a565b6000610a5a826144c1565b92915050565b600080516020615f76833981519152610a7981336144f6565b60135460405163c87b56dd60e01b8152600481018590526000916001600160a01b03169063c87b56dd9060240160006040518083038186803b158015610abe57600080fd5b505afa158015610ad2573d6000803e3d6000fd5b505050506040513d6000823e601f3d908101601f19168201604052610afa919081019061586e565b6000858152600f6020526040908190208054601354925163dbf5132560e01b815260048101899052939450909290916001600160a01b03169063dbf5132590602401600060405180830381600087803b158015610b5657600080fd5b505af1158015610b6a573d6000803e3d6000fd5b5050601354604051636902622f60e11b8152600093506001600160a01b03909116915063d204c45e90610ba39089908890600401615bc0565b602060405180830381600087803b158015610bbd57600080fd5b505af1158015610bd1573d6000803e3d6000fd5b505050506040513d601f19601f82011682018060405250810190610bf59190615734565b905080600760008481526020019081526020016000208190555060405180610140016040528060008152602001600081526020016000815260200160008152602001600081526020016000815260200160008152602001600081526020016000815260200160006003811115610c7b57634e487b7160e01b600052602160045260246000fd5b815250600f6000898152602001908152602001600020600082015181600001556020820151816001015560408201518160020155606082015181600301556080820151816004015560a0820151816005015560c0820151816006015560e0820151816007015561010082015181600801556101208201518160090160006101000a81548160ff02191690836003811115610d2557634e487b7160e01b600052602160045260246000fd5b021790555090505060405180610140016040528083815260200169021e19e0c9bab240000081526020016000815260200160008152602001600081526020016000815260200160008152602001600081526020016000815260200160026003811115610da157634e487b7160e01b600052602160045260246000fd5b815250600f6000838152602001908152602001600020600082015181600001556020820151816001015560408201518160020155606082015181600301556080820151816004015560a0820151816005015560c0820151816006015560e0820151816007015561010082015181600801556101208201518160090160006101000a81548160ff02191690836003811115610e4b57634e487b7160e01b600052602160045260246000fd5b0217905550505050505050505050565b7fe87beaa2684453d25a1f0e3e7002e109b34fc4f132f115c9a7707901e7927513610e8681336144f6565b600080600960009054906101000a90046001600160a01b03166001600160a01b031663b94d25ce6040518163ffffffff1660e01b815260040160206040518083038186803b158015610ed757600080fd5b505afa158015610eeb573d6000803e3d6000fd5b505050506040513d601f19601f82011682018060405250810190610f0f9190615734565b90506000600960009054906101000a90046001600160a01b03166001600160a01b0316631861779d6040518163ffffffff1660e01b815260040160206040518083038186803b158015610f6157600080fd5b505afa158015610f75573d6000803e3d6000fd5b505050506040513d601f19601f82011682018060405250810190610f999190615734565b6000868152600660209081526040808320815160608101835281548082526001928301546001600160401b03811683870152600160401b90046001600160a01b0316828501528552600f9093529220918201549293509180851115610ffc578094505b84841115611008578493505b886110aa57848260010160008282546110219190615ecc565b909155505060208301516001600160401b0316891461104257849550611082565b61104c8486615ecc565b600089815260066020526040902060010154600b54919750611082916001600160a01b0390811691600160401b9004168661455a565b85156110a557601454600b546110a5916001600160a01b0391821691168861455a565b6111e2565b82602001516001600160401b031689146110c657849550611158565b6110d08486615ecc565b600b5460145460008b815260066020526040908190206001015490516311c9479960e21b81529399506001600160a01b03928316936347251e649361112593811692600160401b900416908990600401615b9c565b600060405180830381600087803b15801561113f57600080fd5b505af1158015611153573d6000803e3d6000fd5b505050505b85156111e257858260010160008282546111729190615e75565b9091555050600b546014546040516311c9479960e21b81526001600160a01b03928316926347251e64926111af9291169030908b90600401615b9c565b600060405180830381600087803b1580156111c957600080fd5b505af11580156111dd573d6000803e3d6000fd5b505050505b60018201546112525760015483516040516316bfb45760e11b81526004810191909152620100009091046001600160a01b031690632d7f68ae90602401600060405180830381600087803b15801561123957600080fd5b505af115801561124d573d6000803e3d6000fd5b505050505b8251602080850151604080516001600160401b0390921682529181018c90528a917f10c2415cd62b00f83e15c907a08b12444e71bcc1645322f97a631df735fe49e3910160405180910390a3505050505050505050565b600b54604080516324dead2f60e11b815290516000926001600160a01b0316916349bd5a5e916004808301926020929190829003018186803b1580156112ee57600080fd5b505afa158015611302573d6000803e3d6000fd5b505050506040513d601f19601f820116820180604052508101906113269190615582565b905090565b6000828152600f6020526040902061134283612860565b156113685760405162461bcd60e51b815260040161135f90615cfa565b60405180910390fd5b6113728333611f05565b6113b85760405162461bcd60e51b81526020600482015260176024820152764f6e6c79206f776e65722063616e20776974686472617760481b604482015260640161135f565b6113ef60405180604001604052806011815260200170746f6b656e2e6f776e6572537570706c7960781b81525082600101546145b0565b80600101548211156114135760405162461bcd60e51b815260040161135f90615c32565b818160010160008282546114279190615ecc565b9091555050600b5460405163a9059cbb60e01b81526001600160a01b039091169063a9059cbb9061145e9033908690600401615be4565b602060405180830381600087803b15801561147857600080fd5b505af115801561148c573d6000803e3d6000fd5b505050506040513d601f19601f820116820180604052508101906114b09190615700565b50600181015461151e576001546040516316bfb45760e11b815260048101859052620100009091046001600160a01b031690632d7f68ae90602401600060405180830381600087803b15801561150557600080fd5b505af1158015611519573d6000803e3d6000fd5b505050505b505050565b6000828152600f6020526040902061153a83613e6a565b6115865760405162461bcd60e51b815260206004820152601760248201527f466c6970206973206e6f7420616c6c6f77656420796574000000000000000000604482015260640161135f565b61158f83612860565b156115ac5760405162461bcd60e51b815260040161135f90615cfa565b42816006018190555060007f00000000000000000000000000000000000000000000000000000000000000006001600160a01b031663dbdff2c16040518163ffffffff1660e01b8152600401602060405180830381600087803b15801561161257600080fd5b505af1158015611626573d6000803e3d6000fd5b505050506040513d601f19601f8201168201806040525081019061164a9190615734565b604080516060810182528681526001600160401b038681166020808401828152338587018181526000898152600685528890209651875591516001909601805492516001600160a01b0316600160401b026001600160e01b031990931696909516959095171790925592519283529293508692909184917ff3430182a8f4149cb1910574795295555b8119134718716b9f3e5024189a64a5910160405180910390a450505050565b6000818152600f60205260408120600381015460028201546117149190615ecc565b9392505050565b60008281526020819052604090206001015461173781336144f6565b61151e83836145f5565b600a54604051630502c73b60e41b81526001600160a01b0391821660048201526000917f0000000000000000000000000000000000000000000000000000000000000000169063502c73b090602401602060405180830381600087803b1580156117aa57600080fd5b505af11580156117be573d6000803e3d6000fd5b505050506040513d601f19601f820116820180604052508101906117e29190615734565b90507fbe2b5ab4e879a268995b8af0c68a310c39e8c1573b4c283ef80e3c64125499b98160405161181591815260200190565b60405180910390a190565b6001600160a01b03811633146118905760405162461bcd60e51b815260206004820152602f60248201527f416363657373436f6e74726f6c3a2063616e206f6e6c792072656e6f756e636560448201526e103937b632b9903337b91039b2b63360891b606482015260840161135f565b61189a8282614679565b5050565b600080516020615f968339815191526118b781336144f6565b50600380546001600160a01b0319166001600160a01b0392909216919091179055565b6000828152600f6020526040908190206013549151634f558e7960e01b81526004810185905290916001600160a01b031690634f558e799060240160206040518083038186803b15801561192d57600080fd5b505afa158015611941573d6000803e3d6000fd5b505050506040513d601f19601f820116820180604052508101906119659190615700565b6119a85760405162461bcd60e51b8152602060048201526014602482015273151bdad95b881b9bdd081c9959da5cdd195c995960621b604482015260640161135f565b60405163d52cb9cb60e01b8152600481018290526024810183905260009073__$56fc4e5f3f11a8c61fa94696167f06073e$__9063d52cb9cb9060440160206040518083038186803b1580156119fd57600080fd5b505af4158015611a11573d6000803e3d6000fd5b505050506040513d601f19601f82011682018060405250810190611a359190615734565b600c546040516323b872dd60e01b81529192506001600160a01b0316906323b872dd90611a6a90339030908690600401615b9c565b602060405180830381600087803b158015611a8457600080fd5b505af1158015611a98573d6000803e3d6000fd5b505050506040513d601f19601f82011682018060405250810190611abc9190615700565b50600b5460405163a9059cbb60e01b81526001600160a01b039091169063a9059cbb90611aef9033908790600401615be4565b602060405180830381600087803b158015611b0957600080fd5b505af1158015611b1d573d6000803e3d6000fd5b505050506040513d601f19601f82011682018060405250810190611b419190615700565b5050505050565b611b528233611f05565b611b9e5760405162461bcd60e51b815260206004820152601a60248201527f4f6e6c79206f776e65722063616e206368616e676520666c6970000000000000604482015260640161135f565b600091825260086020526040909120805460ff1916911515919091179055565b6000806000611bcc84612860565b15611be95760405162461bcd60e51b815260040161135f90615cfa565b600080611bf586612bc2565b600554600d5460405163cfcbe04560e01b8152600481018590526024810184905269021e19e0c9bab2400000604482015260648101919091529294509092506001600160a01b03169063cfcbe0459060840160606040518083038186803b158015611c5f57600080fd5b505afa158015611c73573d6000803e3d6000fd5b505050506040513d601f19601f82011682018060405250810190611c979190615a19565b989097509095509350505050565b6000828152600f602052604090206002600982015460ff166003811115611cdc57634e487b7160e01b600052602160045260246000fd5b1415611d355760405162461bcd60e51b815260206004820152602260248201527f43616e2774206368616e6765206d657461646174612061667465722076657269604482015261667960f01b606482015260840161135f565b6001600982015460ff166003811115611d5e57634e487b7160e01b600052602160045260246000fd5b1415611dba5760405162461bcd60e51b815260206004820152602560248201527f43616e2774206368616e6765206d65746164617461207768696c6520766572696044820152646679696e6760d81b606482015260840161135f565b6013546040516331a9108f60e11b8152600481018590526000916001600160a01b031690636352211e9060240160206040518083038186803b158015611dff57600080fd5b505afa158015611e13573d6000803e3d6000fd5b505050506040513d601f19601f82011682018060405250810190611e379190615582565b9050336001600160a01b03821614611e9b5760405162461bcd60e51b815260206004820152602160248201527f596f7520617265206e6f7420746865206f776e6572206f6620746865204e46546044820152602160f81b606482015260840161135f565b60135460405163593aa28360e01b81526001600160a01b039091169063593aa28390611ecd9087908790600401615d94565b600060405180830381600087803b158015611ee757600080fd5b505af1158015611efb573d6000803e3d6000fd5b5050505050505050565b6013546040516331a9108f60e11b8152600481018490526000916001600160a01b0384811692911690636352211e9060240160206040518083038186803b158015611f4f57600080fd5b505afa158015611f63573d6000803e3d6000fd5b505050506040513d601f19601f82011682018060405250810190611f879190615582565b6001600160a01b0316149392505050565b6000828152600f6020526040902060010154811115611ff95760405162461bcd60e51b815260206004820152601f60248201527f45786368616e676520616d6f756e7420657863656564732062616c616e636500604482015260640161135f565b6004546040805160028082526060820183526001600160a01b03909316926000926020830190803683375050600b5482519293506001600160a01b03169183915060009061205757634e487b7160e01b600052603260045260246000fd5b6001600160a01b039283166020918202929092010152600c5482519116908290600190811061209657634e487b7160e01b600052603260045260246000fd5b6001600160a01b039092166020928302919091018201526000858152600f9091526040812060010180548592906120ce908490615ecc565b90915550506000848152600f602052604090206001015461214d576001546040516316bfb45760e11b815260048101869052620100009091046001600160a01b031690632d7f68ae90602401600060405180830381600087803b15801561213457600080fd5b505af1158015612148573d6000803e3d6000fd5b505050505b6040516338ed173960e01b81526001600160a01b038316906338ed173990612182908690600090869033904290600401615d24565b600060405180830381600087803b15801561219c57600080fd5b505af11580156121b0573d6000803e3d6000fd5b505050506040513d6000823e601f3d908101601f19168201604052611b419190810190615659565b6000600080516020615f968339815191526121f381336144f6565b6000878152600760205260409020541561224f5760405162461bcd60e51b815260206004820181905260248201527f53796e746865746963204e465420616c72656164792067656e65726174656421604482015260640161135f565b601354604051636902622f60e11b81526001600160a01b039091169063d204c45e906122819087908790600401615bc0565b602060405180830381600087803b15801561229b57600080fd5b505af11580156122af573d6000803e3d6000fd5b505050506040513d601f19601f820116820180604052508101906122d39190615734565b915060006122eb8769021e19e0c9bab2400000615ecc565b905060006040518061014001604052808a815260200189815260200183815260200160008152602001600081526020018881526020016000815260200160008152602001600081526020016000600381111561235757634e487b7160e01b600052602160045260246000fd5b815250905080600f6000868152602001908152602001600020600082015181600001556020820151816001015560408201518160020155606082015181600301556080820151816004015560a0820151816005015560c0820151816006015560e0820151816007015561010082015181600801556101208201518160090160006101000a81548160ff0219169083600381111561240457634e487b7160e01b600052602160045260246000fd5b0217905550505087612474576001546040516316bfb45760e11b815260048101869052620100009091046001600160a01b031690632d7f68ae90602401600060405180830381600087803b15801561245b57600080fd5b505af115801561246f573d6000803e3d6000fd5b505050505b5050506000818152600860205260409020805460ff1916600117905595945050505050565b7f747c8a75243ae2ca1d188aaaeab610daf9d97e45b6513baed451ebf0b9ec74fd6124c481336144f6565b6040808401516000908152600f60205220821561255d5760098101805460ff19166002179055600b546040516340c10f1960e01b81526001600160a01b03909116906340c10f199061252690309069021e19e0c9bab240000090600401615be4565b600060405180830381600087803b15801561254057600080fd5b505af1158015612554573d6000803e3d6000fd5b50505050612594565b606084015160098201805460ff1916600183600381111561258e57634e487b7160e01b600052602160045260246000fd5b02179055505b835160208086015160408088015181516001600160a01b039586168152949092169284019290925290820152831515606082015285907fcf5cb568c779c24ae423fed9236ba737105872c7e0b13ebb2fd578233747825a9060800160405180910390a25050505050565b600080516020615f9683398151915261261781336144f6565b6000858152600f6020526040902060018101546126695760405162461bcd60e51b815260206004820152601060248201526f10d85b89dd0818994818da185b99d95960821b604482015260640161135f565b6002600982015460ff16600381111561269257634e487b7160e01b600052602160045260246000fd5b146126d45760405162461bcd60e51b8152602060048201526012602482015271151bdad95b881b9bdd081d995c9a599a595960721b604482015260640161135f565b6013546040516331a9108f60e11b8152600481018890526001600160a01b03858116921690636352211e9060240160206040518083038186803b15801561271a57600080fd5b505afa15801561272e573d6000803e3d6000fd5b505050506040513d601f19601f820116820180604052508101906127529190615582565b6001600160a01b0316146127785760405162461bcd60e51b815260040161135f90615cd2565b805460009081526011602052604081208054909160019183919061279d908490615e75565b9091555050600181018690556002810180546001600160a01b038681166001600160a01b03199092169190911790915560098301805460ff19166003179055825460009081526007602052604080822082905588855588825290819020899055601354905163593aa28360e01b815291169063593aa28390612825908a908990600401615d94565b600060405180830381600087803b15801561283f57600080fd5b505af1158015612853573d6000803e3d6000fd5b5050505050505050505050565b6000818152600f602052604081206002600982015460ff16600381111561289757634e487b7160e01b600052602160045260246000fd5b1415806117145750600101541592915050565b600e546128b99061012c615e75565b42106129075760405162461bcd60e51b815260206004820152601d60248201527f4275796261636b20707269636520757064617465207265717569726564000000604482015260640161135f565b6129118133611f05565b61292d5760405162461bcd60e51b815260040161135f90615c5e565b61293681612860565b156129535760405162461bcd60e51b815260040161135f90615cfa565b61295c816146de565b61296581614b16565b50565b6000818152600f6020526040908190206013549151634f558e7960e01b81526004810184905290916001600160a01b031690634f558e799060240160206040518083038186803b1580156129bb57600080fd5b505afa1580156129cf573d6000803e3d6000fd5b505050506040513d601f19601f820116820180604052508101906129f39190615700565b612a365760405162461bcd60e51b8152602060048201526014602482015273151bdad95b881b9bdd081c9959da5cdd195c995960621b604482015260640161135f565b6002600982015460ff166003811115612a5f57634e487b7160e01b600052602160045260246000fd5b1415612aa65760405162461bcd60e51b8152602060048201526016602482015275151bdad95b88185b1c9958591e481d995c9a599a595960521b604482015260640161135f565b60098101805460ff19166001908117909155600a54825460009081526010602090815260408083205481516345b0ce7560e11b81526001600160a01b03958616600482015260248101899052604481019690965260648601525191937f000000000000000000000000000000000000000000000000000000000000000090931692638b619cea926084808301939282900301818787803b158015612b4957600080fd5b505af1158015612b5d573d6000803e3d6000fd5b505050506040513d601f19601f82011682018060405250810190612b819190615734565b9050807faf92676e6ce91b92427009a49e22fa6d354ed418db8d0965bca4232dcf3e658f3385604051612bb5929190615be4565b60405180910390a2505050565b6000818152600f60205260408120819081612bdb6112a9565b9050600082600701549050600080836001600160a01b0316630902f1ac6040518163ffffffff1660e01b815260040160606040518083038186803b158015612c2257600080fd5b505afa158015612c36573d6000803e3d6000fd5b505050506040513d601f19601f82011682018060405250810190612c5a91906158e0565b50915091506000846001600160a01b03166318160ddd6040518163ffffffff1660e01b815260040160206040518083038186803b158015612c9a57600080fd5b505afa158015612cae573d6000803e3d6000fd5b505050506040513d601f19601f82011682018060405250810190612cd29190615734565b905060008115612d215781612cf06001600160701b03861687615ead565b612cfa9190615e8d565b905081612d106001600160701b03851687615ead565b612d1a9190615e8d565b9750612d2e565b826001600160701b031697505b8087600201548860010154612d439190615e75565b612d4d9190615e75565b985050505050505050915091565b6000828152600f60205260409020612d738333611f05565b612db85760405162461bcd60e51b815260206004820152601660248201527513db9b1e481bdddb995c8818d85b8819195c1bdcda5d60521b604482015260640161135f565b604051630654881960e51b8152600481018290526024810183905273__$56fc4e5f3f11a8c61fa94696167f06073e$__9063ca9103209060440160006040518083038186803b158015612e0a57600080fd5b505af4158015612e1e573d6000803e3d6000fd5b5050600b546040516323b872dd60e01b81526001600160a01b0390911692506323b872dd9150612e5690339030908790600401615b9c565b602060405180830381600087803b158015612e7057600080fd5b505af1158015612e84573d6000803e3d6000fd5b505050506040513d601f19601f82011682018060405250810190612ea89190615700565b50505050565b6013546040516331a9108f60e11b81526004810184905233916001600160a01b031690636352211e9060240160206040518083038186803b158015612ef257600080fd5b505afa158015612f06573d6000803e3d6000fd5b505050506040513d601f19601f82011682018060405250810190612f2a9190615582565b6001600160a01b031614612f505760405162461bcd60e51b815260040161135f90615c5e565b6000828152600f6020526040908190209051630451aa3960e11b815260048101919091526024810182905273__$56fc4e5f3f11a8c61fa94696167f06073e$__906308a35472906044015b60006040518083038186803b158015612fb357600080fd5b505af4158015612fc7573d6000803e3d6000fd5b505050505050565b6000828152600f60205260408120600501548190612fed9084615ead565b949350505050565b7f747c8a75243ae2ca1d188aaaeab610daf9d97e45b6513baed451ebf0b9ec74fd61302081336144f6565b50600d555042600e55565b6000828152600f60205260409081902060135491516331a9108f60e11b815260048101859052909133916001600160a01b0390911690636352211e9060240160206040518083038186803b15801561308257600080fd5b505afa158015613096573d6000803e3d6000fd5b505050506040513d601f19601f820116820180604052508101906130ba9190615582565b6001600160a01b0316146130e05760405162461bcd60e51b815260040161135f90615cd2565b60008160030154116131295760405162461bcd60e51b8152602060048201526012602482015271736f6c64537570706c79206973207a65726f60701b604482015260640161135f565b806004015482111561314d5760405162461bcd60e51b815260040161135f90615c8a565b60006131576112a9565b9050600080826001600160a01b0316630902f1ac6040518163ffffffff1660e01b815260040160606040518083038186803b15801561319557600080fd5b505afa1580156131a9573d6000803e3d6000fd5b505050506040513d601f19601f820116820180604052508101906131cd91906158e0565b50915091506000826001600160701b03161180156131f457506000816001600160701b0316115b6132395760405162461bcd60e51b81526020600482015260166024820152754e6f20726573657276657320617661696c61626c652160501b604482015260640161135f565b60048054600b54600187015460405163095ea7b360e01b81526001600160a01b0393841694929093169263095ea7b392613277928692909101615be4565b602060405180830381600087803b15801561329157600080fd5b505af11580156132a5573d6000803e3d6000fd5b505050506040513d601f19601f820116820180604052508101906132c99190615700565b50600c546004805460405163095ea7b360e01b81526001600160a01b039384169363095ea7b39361330093909116918b9101615be4565b602060405180830381600087803b15801561331a57600080fd5b505af115801561332e573d6000803e3d6000fd5b505050506040513d601f19601f820116820180604052508101906133529190615700565b50600b54600c54600187015460405162e8e33760e81b81526001600160a01b039384166004820152918316602483015260448201526064810188905260006084820181905260a482018190523060c48301524260e4830152918291829185169063e8e337009061010401606060405180830381600087803b1580156133d657600080fd5b505af11580156133ea573d6000803e3d6000fd5b505050506040513d601f19601f8201168201806040525081019061340e9190615a19565b925092509250828860010160008282546134289190615ecc565b92505081905550818860040160008282546134439190615ecc565b925050819055508088600701600082825461345e9190615e75565b909155505050505050505050505050565b60055460009081906001600160a01b031663f4e5ff0d61348d6112a9565b6000868152600f6020526040908190206007015490516001600160e01b031960e085901b1681526134c2929190600401615be4565b604080518083038186803b1580156134d957600080fd5b505afa1580156134ed573d6000803e3d6000fd5b505050506040513d601f19601f820116820180604052508101906135119190615996565b91509150915091565b6000918252602082815260408084206001600160a01b0393909316845291905290205460ff1690565b61354d8233611f05565b6135915760405162461bcd60e51b81526020600482015260156024820152742cb7ba9030b932903737ba103a34329037bbb732b960591b604482015260640161135f565b6000828152600f6020526040902060070154808211156135f35760405162461bcd60e51b815260206004820152601e60248201527f4e6f7420656e6f756768206c697175696469747920617661696c61626c650000604482015260640161135f565b6000838152600f602052604081206007018054849290613614908490615ecc565b9091555061362290506112a9565b6001600160a01b031663a9059cbb33846040518363ffffffff1660e01b8152600401612e56929190615be4565b6000828152600f6020526040902061366683612860565b156136835760405162461bcd60e51b815260040161135f90615cfa565b61368d8333611f05565b6136d35760405162461bcd60e51b81526020600482015260176024820152764f6e6c79206f776e65722063616e20776974686472617760481b604482015260640161135f565b80600401548211156136f75760405162461bcd60e51b815260040161135f90615c32565b600c5460405163a9059cbb60e01b81526001600160a01b039091169063a9059cbb906137299033908690600401615be4565b602060405180830381600087803b15801561374357600080fd5b505af1158015613757573d6000803e3d6000fd5b505050506040513d601f19601f8201168201806040525081019061377b9190615700565b50818160040160008282546137909190615ecc565b9091555050505050565b6013546040516331a9108f60e11b81526004810184905233916001600160a01b031690636352211e9060240160206040518083038186803b1580156137de57600080fd5b505afa1580156137f2573d6000803e3d6000fd5b505050506040513d601f19601f820116820180604052508101906138169190615582565b6001600160a01b03161461383c5760405162461bcd60e51b815260040161135f90615c5e565b6000828152600f6020526040908190209051630c66c75560e21b815260048101919091526024810182905273__$56fc4e5f3f11a8c61fa94696167f06073e$__9063319b1d5490604401612f9b565b6013546040516331a9108f60e11b81526004810184905233916001600160a01b031690636352211e9060240160206040518083038186803b1580156138cf57600080fd5b505afa1580156138e3573d6000803e3d6000fd5b505050506040513d601f19601f820116820180604052508101906139079190615582565b6001600160a01b03161461392d5760405162461bcd60e51b815260040161135f90615cd2565b61189a8282614bdc565b6013546040516331a9108f60e11b81526004810184905233916001600160a01b031690636352211e9060240160206040518083038186803b15801561397b57600080fd5b505afa15801561398f573d6000803e3d6000fd5b505050506040513d601f19601f820116820180604052508101906139b39190615582565b6001600160a01b0316146139d95760405162461bcd60e51b815260040161135f90615cd2565b60008111613a215760405162461bcd60e51b8152602060048201526015602482015274416d6f756e742063616e2774206265207a65726f2160581b604482015260640161135f565b6000828152600f6020526040902060040154811115613a525760405162461bcd60e51b815260040161135f90615c8a565b600c5460035460405163095ea7b360e01b81526001600160a01b039283169263095ea7b392613a88929116908590600401615be4565b602060405180830381600087803b158015613aa257600080fd5b505af1158015613ab6573d6000803e3d6000fd5b505050506040513d601f19601f82011682018060405250810190613ada9190615700565b5060035460405163366996df60e11b8152600481018390526000916001600160a01b031690636cd32dbe90602401602060405180830381600087803b158015613b2257600080fd5b505af1158015613b36573d6000803e3d6000fd5b505050506040513d601f19601f82011682018060405250810190613b5a9190615734565b905081600f60008581526020019081526020016000206004016000828254613b829190615ecc565b90915550506000838152600f602052604081206008018054839290613790908490615e75565b600154604051637b5f398960e01b815260048101839052620100009091046001600160a01b031690637b5f39899060240160206040518083038186803b158015613bf157600080fd5b505afa158015613c05573d6000803e3d6000fd5b505050506040513d601f19601f82011682018060405250810190613c299190615700565b613c755760405162461bcd60e51b815260206004820152601860248201527f546f6b656e206973206e6f74207265636f76657261626c650000000000000000604482015260640161135f565b613c7f8133611f05565b613c9b5760405162461bcd60e51b815260040161135f90615c5e565b600b54613cbd906001600160a01b0316333069021e19e0c9bab2400000614e0b565b6000818152600f60205260409081902069021e19e0c9bab2400000600191820155549051630532ab5d60e11b815260048101839052620100009091046001600160a01b031690630a6556ba906024015b600060405180830381600087803b158015613d2757600080fd5b505af1158015611b41573d6000803e3d6000fd5b600080516020615f76833981519152613d5481336144f6565b6000828152600f60205260409020600801548015613d7657613d768382614bdc565b6000838152600f60205260409020600701548015612ea857612fc78482614e2c565b600082815260208190526040902060010154613db481336144f6565b61151e8383614679565b6013546040516331a9108f60e11b81526004810184905233916001600160a01b031690636352211e9060240160206040518083038186803b158015613e0257600080fd5b505afa158015613e16573d6000803e3d6000fd5b505050506040513d601f19601f82011682018060405250810190613e3a9190615582565b6001600160a01b031614613e605760405162461bcd60e51b815260040161135f90615cd2565b612ea88282614e2c565b60008181526008602052604081205460ff168015613eff5750601354604051634f558e7960e01b8152600481018490526001600160a01b0390911690634f558e799060240160206040518083038186803b158015613ec757600080fd5b505afa158015613edb573d6000803e3d6000fd5b505050506040513d601f19601f82011682018060405250810190613eff9190615700565b8015613fab5750600960009054906101000a90046001600160a01b03166001600160a01b031663766873326040518163ffffffff1660e01b815260040160206040518083038186803b158015613f5457600080fd5b505afa158015613f68573d6000803e3d6000fd5b505050506040513d601f19601f82011682018060405250810190613f8c9190615734565b6000838152600f6020526040902060060154613fa89042615ecc565b10155b80156140b95750600960009054906101000a90046001600160a01b03166001600160a01b031663b94d25ce6040518163ffffffff1660e01b815260040160206040518083038186803b15801561400057600080fd5b505afa158015614014573d6000803e3d6000fd5b505050506040513d601f19601f820116820180604052508101906140389190615734565b600b546014546040516370a0823160e01b81526001600160a01b0391821660048201529116906370a082319060240160206040518083038186803b15801561407f57600080fd5b505afa158015614093573d6000803e3d6000fd5b505050506040513d601f19601f820116820180604052508101906140b79190615734565b115b8015610a5a57506000828152600f60205260409020541515610a5a565b6013546040516331a9108f60e11b81526004810184905233916001600160a01b031690636352211e9060240160206040518083038186803b15801561411a57600080fd5b505afa15801561412e573d6000803e3d6000fd5b505050506040513d601f19601f820116820180604052508101906141529190615582565b6001600160a01b0316146141a85760405162461bcd60e51b815260206004820152601760248201527f4f6e6c79206f776e65722063616e20696e637265617365000000000000000000604482015260640161135f565b6000828152600f6020526040908190209051633e8626f560e11b815260048101919091526024810182905273__$56fc4e5f3f11a8c61fa94696167f06073e$__90637d0c4dea9060440160006040518083038186803b15801561420a57600080fd5b505af415801561421e573d6000803e3d6000fd5b5050506000838152600f60205260409020600101541515905061189a576001546040516316bfb45760e11b815260048101849052620100009091046001600160a01b031690632d7f68ae90602401600060405180830381600087803b15801561428657600080fd5b505af1158015612fc7573d6000803e3d6000fd5b600154610100900460ff16806142b3575060015460ff16155b6143165760405162461bcd60e51b815260206004820152602e60248201527f496e697469616c697a61626c653a20636f6e747261637420697320616c72656160448201526d191e481a5b9a5d1a585b1a5e995960921b606482015260840161135f565b600154610100900460ff16158015614338576001805461ffff19166101011790555b600b80546001600160a01b03199081166001600160a01b038d8116919091179092556013805482168b8416179055600a805482168c841617905560028054339083161790556001805462010000600160b01b031916620100008b851602179055600980548216898416908117909155601480548316898516179055601580548316888516179055600480548316878516178155600580549093169386169390931790915560408051632629c7ef60e11b815290519192634c538fde928282019260209290829003018186803b15801561441057600080fd5b505afa158015614424573d6000803e3d6000fd5b505050506040513d601f19601f820116820180604052508101906144489190615582565b600c80546001600160a01b0319166001600160a01b03929092169190911790556144736000336150d4565b61448b600080516020615f96833981519152336150d4565b6144a3600080516020615f76833981519152886150d4565b80156144b5576001805461ff00191690555b50505050505050505050565b60006001600160e01b03198216637965db0b60e01b1480610a5a57506301ffc9a760e01b6001600160e01b0319831614610a5a565b614500828261351a565b61189a57614518816001600160a01b031660146150de565b6145238360206150de565b604051602001614534929190615b27565b60408051601f198184030181529082905262461bcd60e51b825261135f91600401615bfd565b61151e8363a9059cbb60e01b8484604051602401614579929190615be4565b60408051601f198184030181529190526020810180516001600160e01b03166001600160e01b0319909316929092179091526152bf565b61189a82826040516024016145c6929190615c10565b60408051601f198184030181529190526020810180516001600160e01b03166309710a9d60e41b179052615391565b6145ff828261351a565b61189a576000828152602081815260408083206001600160a01b03851684529091529020805460ff191660011790556146353390565b6001600160a01b0316816001600160a01b0316837f2f8788117e7eff1d82e926ec794901d17c78024a50270940304540a733656f0d60405160405180910390a45050565b614683828261351a565b1561189a576000828152602081815260408083206001600160a01b0385168085529252808320805460ff1916905551339285917ff6391f5c32d9c69d2a47ea670b442974b53935d1edc7fd64eb21e047a839171b9190a45050565b6000818152600f6020526040812060078101549091906146ff908490614e2c565b9150506000826002015483600101546147189190615e75565b600554600d5460405163cfcbe04560e01b8152600481018490526024810186905269021e19e0c9bab240000060448201526064810191909152919250600091829182916001600160a01b039091169063cfcbe0459060840160606040518083038186803b15801561478857600080fd5b505afa15801561479c573d6000803e3d6000fd5b505050506040513d601f19601f820116820180604052508101906147c09190615a19565b925092509250600069021e19e0c9bab240000085106147e95769021e19e0c9bab24000006147eb565b845b600b54604051630852cd8d60e31b8152600481018390529192506001600160a01b0316906342966c6890602401600060405180830381600087803b15801561483257600080fd5b505af1158015614846573d6000803e3d6000fd5b5050505060008211156149f557600b546015546001600160a01b0391821691633950935191166148808469021e19e0c9bab2400000615ecc565b6040518363ffffffff1660e01b815260040161489d929190615be4565b602060405180830381600087803b1580156148b757600080fd5b505af11580156148cb573d6000803e3d6000fd5b505050506040513d601f19601f820116820180604052508101906148ef9190615700565b50601554600d546001600160a01b0390911690635ff44eb99084906149149082615e8d565b6040516001600160e01b031960e085901b16815260048101929092526024820152604401600060405180830381600087803b15801561495257600080fd5b505af1158015614966573d6000803e3d6000fd5b5050600c546015546040516323b872dd60e01b81526001600160a01b0392831694506323b872dd93506149a192339216908790600401615b9c565b602060405180830381600087803b1580156149bb57600080fd5b505af11580156149cf573d6000803e3d6000fd5b505050506040513d601f19601f820116820180604052508101906149f39190615700565b505b8215614a8157600c5460405163a9059cbb60e01b81526001600160a01b039091169063a9059cbb90614a2d9033908790600401615be4565b602060405180830381600087803b158015614a4757600080fd5b505af1158015614a5b573d6000803e3d6000fd5b505050506040513d601f19601f82011682018060405250810190614a7f9190615700565b505b8315611efb57600b5460405163a9059cbb60e01b81526001600160a01b039091169063a9059cbb90614ab99033908890600401615be4565b602060405180830381600087803b158015614ad357600080fd5b505af1158015614ae7573d6000803e3d6000fd5b505050506040513d601f19601f82011682018060405250810190614b0b9190615700565b505050505050505050565b6000818152600f6020908152604080832080548452601083528184205460128452828520818652909352922080546001600160a01b03191633179055614b5d816001615e75565b8254600090815260106020526040902055614b77836153b2565b50546000908152600760208181526040808420849055938352600f90529181208181556001810182905560028101829055600381018290556004810182905560058101829055600681018290559182018190556008820155600901805460ff19169055565b60008111614c235760405162461bcd60e51b8152602060048201526014602482015273416d6f756e742063616e2774206265207a65726f60601b604482015260640161135f565b6000828152600f6020526040902060080154811115614c545760405162461bcd60e51b815260040161135f90615c32565b600c546040516370a0823160e01b81523060048201526000916001600160a01b0316906370a082319060240160206040518083038186803b158015614c9857600080fd5b505afa158015614cac573d6000803e3d6000fd5b505050506040513d601f19601f82011682018060405250810190614cd09190615734565b600354604051639c8f9f2360e01b8152600481018590529192506001600160a01b031690639c8f9f2390602401600060405180830381600087803b158015614d1757600080fd5b505af1158015614d2b573d6000803e3d6000fd5b5050600c546040516370a0823160e01b8152306004820152600093506001600160a01b0390911691506370a082319060240160206040518083038186803b158015614d7557600080fd5b505afa158015614d89573d6000803e3d6000fd5b505050506040513d601f19601f82011682018060405250810190614dad9190615734565b9050614db98282615ecc565b6000858152600f602052604081206004018054909190614dda908490615e75565b90915550506000848152600f602052604081206008018054859290614e00908490615ecc565b909155505050505050565b612ea8846323b872dd60e01b85858560405160240161457993929190615b9c565b6000828152600f60205260408120819083614e4e5760008092509250506150cd565b8381600701541015614eb15760405162461bcd60e51b815260206004820152602660248201527f54686572652773206e6f7420656e6f756768206c697175696469747920617661604482015265696c61626c6560d01b606482015260840161135f565b6004546001600160a01b03166000614ec76112a9565b6004805460405163095ea7b360e01b81529293506001600160a01b038085169363095ea7b393614efd93909216918b9101615be4565b602060405180830381600087803b158015614f1757600080fd5b505af1158015614f2b573d6000803e3d6000fd5b505050506040513d601f19601f82011682018060405250810190614f4f9190615700565b50600c54600b5460009182916001600160a01b03918216911610614f8557600c54600b546001600160a01b039182169116614f99565b600b54600c546001600160a01b0391821691165b604051635d5155ef60e11b81526001600160a01b0380841660048301528083166024830152604482018c9052600060648301819052608483018190523060a48401524260c4840152939550919350829187169063baa2abde9060e4016040805180830381600087803b15801561500e57600080fd5b505af1158015615022573d6000803e3d6000fd5b505050506040513d601f19601f820116820180604052508101906150469190615996565b600c54600b549294509092506001600160a01b0390811691161061506b57808261506e565b81815b809950819a5050508887600101600082825461508a9190615e75565b92505081905550878760040160008282546150a59190615e75565b92505081905550898760070160008282546150c09190615e75565b9091555050505050505050505b9250929050565b61189a82826145f5565b606060006150ed836002615ead565b6150f8906002615e75565b6001600160401b0381111561511d57634e487b7160e01b600052604160045260246000fd5b6040519080825280601f01601f191660200182016040528015615147576020820181803683370190505b509050600360fc1b8160008151811061517057634e487b7160e01b600052603260045260246000fd5b60200101906001600160f81b031916908160001a905350600f60fb1b816001815181106151ad57634e487b7160e01b600052603260045260246000fd5b60200101906001600160f81b031916908160001a90535060006151d1846002615ead565b6151dc906001615e75565b90505b6001811115615270576f181899199a1a9b1b9c1cb0b131b232b360811b85600f166010811061521e57634e487b7160e01b600052603260045260246000fd5b1a60f81b82828151811061524257634e487b7160e01b600052603260045260246000fd5b60200101906001600160f81b031916908160001a90535060049490941c9361526981615f0f565b90506151df565b5083156117145760405162461bcd60e51b815260206004820181905260248201527f537472696e67733a20686578206c656e67746820696e73756666696369656e74604482015260640161135f565b6000615314826040518060400160405280602081526020017f5361666545524332303a206c6f772d6c6576656c2063616c6c206661696c6564815250856001600160a01b03166153e39092919063ffffffff16565b80519091501561151e57808060200190518101906153329190615700565b61151e5760405162461bcd60e51b815260206004820152602a60248201527f5361666545524332303a204552433230206f7065726174696f6e20646964206e6044820152691bdd081cdd58d8d9595960b21b606482015260840161135f565b80516a636f6e736f6c652e6c6f67602083016000808483855afa5050505050565b60135460405163dbf5132560e01b8152600481018390526001600160a01b039091169063dbf5132590602401613d0d565b6060612fed848460008585843b61543c5760405162461bcd60e51b815260206004820152601d60248201527f416464726573733a2063616c6c20746f206e6f6e2d636f6e7472616374000000604482015260640161135f565b600080866001600160a01b031685876040516154589190615b0b565b60006040518083038185875af1925050503d8060008114615495576040519150601f19603f3d011682016040523d82523d6000602084013e61549a565b606091505b50915091506154aa8282866154b5565b979650505050505050565b606083156154c4575081611714565b8251156154d45782518084602001fd5b8160405162461bcd60e51b815260040161135f9190615bfd565b80356154f981615f67565b919050565b600082601f83011261550e578081fd5b813561552161551c82615e4e565b615e1e565b818152846020838601011115615535578283fd5b816020850160208301379081016020019190915292915050565b80516001600160701b03811681146154f957600080fd5b600060208284031215615577578081fd5b813561171481615f52565b600060208284031215615593578081fd5b815161171481615f52565b60008060008060008060008060006101208a8c0312156155bc578485fd5b89356155c781615f52565b985060208a01356155d781615f52565b975060408a01356155e781615f52565b965060608a01356155f781615f52565b955060808a013561560781615f52565b945060a08a013561561781615f52565b935060c08a013561562781615f52565b925060e08a013561563781615f52565b91506101008a013561564881615f52565b809150509295985092959850929598565b6000602080838503121561566b578182fd5b82516001600160401b0380821115615681578384fd5b818501915085601f830112615694578384fd5b8151818111156156a6576156a6615f3c565b8060051b91506156b7848301615e1e565b8181528481019084860184860187018a10156156d1578788fd5b8795505b838610156156f35780518352600195909501949186019186016156d5565b5098975050505050505050565b600060208284031215615711578081fd5b815161171481615f67565b60006020828403121561572d578081fd5b5035919050565b600060208284031215615745578081fd5b5051919050565b6000806040838503121561575e578182fd5b82359150602083013561577081615f52565b809150509250929050565b600080600083850360c0811215615790578182fd5b843593506080601f19820112156157a5578182fd5b50604051608081018181106001600160401b03821117156157c8576157c8615f3c565b60405260208501356157d981615f52565b815260408501356157e981615f52565b602082015260608501356040820152608085013560048110615809578283fd5b6060820152915061581c60a085016154ee565b90509250925092565b60008060408385031215615837578182fd5b50508035926020909101359150565b600060208284031215615857578081fd5b81356001600160e01b031981168114611714578182fd5b60006020828403121561587f578081fd5b81516001600160401b03811115615894578182fd5b8201601f810184136158a4578182fd5b80516158b261551c82615e4e565b8181528560208385010111156158c6578384fd5b6158d7826020830160208601615ee3565b95945050505050565b6000806000606084860312156158f4578081fd5b6158fd8461554f565b925061590b6020850161554f565b9150604084015163ffffffff81168114615923578182fd5b809150509250925092565b60008060408385031215615940578182fd5b82359150602083013561577081615f67565b60008060408385031215615964578182fd5b8235915060208301356001600160401b03811115615980578182fd5b61598c858286016154fe565b9150509250929050565b600080604083850312156159a8578182fd5b505080516020909101519092909150565b600080600080608085870312156159ce578182fd5b843593506020850135925060408501356001600160401b038111156159f1578283fd5b6159fd878288016154fe565b9250506060850135615a0e81615f52565b939692955090935050565b600080600060608486031215615a2d578081fd5b8351925060208401519150604084015190509250925092565b600080600080600060a08688031215615a5d578283fd5b8535945060208601359350604086013592506060860135615a7d81615f52565b915060808601356001600160401b03811115615a97578182fd5b615aa3888289016154fe565b9150509295509295909350565b60008060408385031215615ac2578182fd5b8235915060208301356001600160401b0381168114615770578182fd5b60008151808452615af7816020860160208601615ee3565b601f01601f19169290920160200192915050565b60008251615b1d818460208701615ee3565b9190910192915050565b7f416363657373436f6e74726f6c3a206163636f756e7420000000000000000000815260008351615b5f816017850160208801615ee3565b7001034b99036b4b9b9b4b733903937b6329607d1b6017918401918201528351615b90816028840160208801615ee3565b01602801949350505050565b6001600160a01b039384168152919092166020820152604081019190915260600190565b6001600160a01b0383168152604060208201819052600090612fed90830184615adf565b6001600160a01b03929092168252602082015260400190565b6020815260006117146020830184615adf565b604081526000615c236040830185615adf565b90508260208301529392505050565b6020808252601290820152714e6f7420656e6f7567682062616c616e636560701b604082015260600190565b60208082526012908201527113db9b1e481bdddb995c88185b1b1bddd95960721b604082015260600190565b60208082526028908201527f416d6f756e742069732067726561746572207468616e20617661696c61626c656040820152672066756e64696e6760c01b606082015260800190565b6020808252600e908201526d14da1bdd5b19081bdddb8813919560921b604082015260600190565b60208082526010908201526f546f6b656e206973206c6f636b65642160801b604082015260600190565b600060a082018783526020878185015260a0604085015281875180845260c0860191508289019350845b81811015615d735784516001600160a01b031683529383019391830191600101615d4e565b50506001600160a01b03969096166060850152505050608001529392505050565b828152604060208201526000612fed6040830184615adf565b6000610140820190508b82528a60208301528960408301528860608301528760808301528660a08301528560c08301528460e08301528361010083015260048310615e0857634e487b7160e01b600052602160045260246000fd5b826101208301529b9a5050505050505050505050565b604051601f8201601f191681016001600160401b0381118282101715615e4657615e46615f3c565b604052919050565b60006001600160401b03821115615e6757615e67615f3c565b50601f01601f191660200190565b60008219821115615e8857615e88615f26565b500190565b600082615ea857634e487b7160e01b81526012600452602481fd5b500490565b6000816000190483118215151615615ec757615ec7615f26565b500290565b600082821015615ede57615ede615f26565b500390565b60005b83811015615efe578181015183820152602001615ee6565b83811115612ea85750506000910152565b600081615f1e57615f1e615f26565b506000190190565b634e487b7160e01b600052601160045260246000fd5b634e487b7160e01b600052604160045260246000fd5b6001600160a01b038116811461296557600080fd5b801515811461296557600080fdfec55a74c743a5d6aff6a82963adf054e2367242c4a636870f26b8ee90910968d0eb4fd9f47c063b511700e1c8e94e2fa4088ffca1fdcef1e60edf1beecd1b2e64a2646970667358221220e7265aaafa69bda3f3532a60535d36b5259f1e9f063049677c8ba3906b0161b664736f6c63430008040033",
  "libraries": {
    "SyntheticTokenLibrary": "0x697bB9ED8fa7fc8bf6cCFF12cf1FB64027A2E5B5"
  },
  "devdoc": {
    "author": "priviprotocol",
    "kind": "dev",
    "methods": {
      "buyJotTokens(uint256,uint256)": {
        "params": {
          "amountToBuy_": "the amount of jots to buy",
          "tokenId_": "the id of the synthetic nft"
        }
      },
      "constructor": {
        "details": "initializes some immutable variables and lock the implementation contract      for further initializations (with the initializer modifier)",
        "params": {
          "randomConsumerAddress_": "the address of the vrf Chainlink node",
          "validatorAddress_": "the address of the polygon validator Chainlink node"
        }
      },
      "decreaseSellingSupply(uint256,uint256)": {
        "details": "caller must be the owner of the NFT",
        "params": {
          "amount_": "the amount of jots to transfer to supply",
          "tokenId_": "the id of the synthetic nft"
        }
      },
      "depositJotTokens(uint256,uint256)": {
        "params": {
          "amountToDeposit_": "the amount of jots to deposit",
          "tokenId_": "the id of the synthetic nft"
        }
      },
      "getRoleAdmin(bytes32)": {
        "details": "Returns the admin role that controls `role`. See {grantRole} and {revokeRole}. To change a role's admin, use {_setRoleAdmin}."
      },
      "grantRole(bytes32,address)": {
        "details": "Grants `role` to `account`. If `account` had not been already granted `role`, emits a {RoleGranted} event. Requirements: - the caller must have ``role``'s admin role."
      },
      "hasRole(bytes32,address)": {
        "details": "Returns `true` if `account` has been granted `role`."
      },
      "increaseSellingSupply(uint256,uint256)": {
        "details": "caller must be the owner of the NFT",
        "params": {
          "amount_": "the amount of jots to transfer from supply",
          "tokenId_": "the id of the synthetic nft"
        }
      },
      "initialize(address,address,address,address,address,address,address,address,address)": {
        "details": "initialize the proxy contract",
        "params": {
          "auctionManagerAddress_": "the auctions manager fabric address",
          "erc721address_": "the address of the synthetic erc721 contract handled by this",
          "jotAddress_": "the address of the jot contract for this collection",
          "jotPool_": "the address of the corresponding jot pool",
          "originalCollectionAddress_": "the original collection address",
          "protocol_": "the address of the protocol parameters contract (governance parameters)",
          "redemptionPool_": "the address of the corresponding redemption pool",
          "swapAddress_": "the address of the uniswapV2Pair"
        }
      },
      "processBuybackPriceResponse(bytes32,uint256)": {
        "details": "processes the oracle response for buyback price updates",
        "params": {
          "buybackPrice_": "the new buyback price",
          "requestId_": "the id of the Chainlink request"
        }
      },
      "reassignNFT(uint256,address)": {
        "details": "allows the callback after finishing an auction to reassign the NFT to the winner",
        "params": {
          "newOwner_": "the winner of the auction account",
          "nftId_": "the id of the auctioned synthetic token"
        }
      },
      "register(uint256,uint256,uint256,address,string)": {
        "details": "through this the router can register tokens",
        "params": {
          "metadata_": "the metadata (the ipfs url) of the nft",
          "nftOwner_": "the owner of the synthetic nft",
          "priceFraction_": "the price fraction for buying",
          "supplyToKeep_": "the supply that the owner decides to keep",
          "tokenId_": "the original token id"
        },
        "returns": {
          "syntheticId": "the id of the newly registered token"
        }
      },
      "renounceRole(bytes32,address)": {
        "details": "Revokes `role` from the calling account. Roles are often managed via {grantRole} and {revokeRole}: this function's purpose is to provide a mechanism for accounts to lose their privileges if they are compromised (such as when a trusted device is misplaced). If the calling account had been granted `role`, emits a {RoleRevoked} event. Requirements: - the caller must be `account`."
      },
      "revokeRole(bytes32,address)": {
        "details": "Revokes `role` from `account`. If `account` had been granted `role`, emits a {RoleRevoked} event. Requirements: - the caller must have ``role``'s admin role."
      },
      "supportsInterface(bytes4)": {
        "details": "See {IERC165-supportsInterface}."
      },
      "updatePriceFraction(uint256,uint256)": {
        "details": "caller must be the owner of the NFT",
        "params": {
          "newFractionPrice_": "the new value of the fraction price",
          "tokenId_": "the id of the synthetic nft"
        }
      }
    },
    "stateVariables": {
      "_flips": {
        "details": "mapping the request id from Chainlink with the flip input data"
      },
      "changeNonces": {
        "details": "nonce to count the changes of an original collection token id      in order to avoid double change (with the second one keeping the synthetic playing)"
      },
      "nonces": {
        "details": "the nonce to avoid double verification (quantity of exits for original token id)"
      }
    },
    "title": "synthetic collection abstraction contract",
    "version": 1
  },
  "userdoc": {
    "kind": "user",
    "methods": {
      "AUCTION_MANAGER()": {
        "notice": "role of the auctions manager fabric contract"
      },
      "AuctionsManagerAddress()": {
        "notice": "the address of the auctions manager fabric contract"
      },
      "RANDOM_ORACLE()": {
        "notice": "role of the vrf chainlink oracle"
      },
      "ROUTER()": {
        "notice": "role of the router contract"
      },
      "VALIDATOR_ORACLE()": {
        "notice": "role of the polygon validator chainlink oracle for verifications"
      },
      "addLiquidityToFuturePool(uint256,uint256)": {
        "notice": "add available liquidity to Perpetual Pool"
      },
      "addLiquidityToQuickswap(uint256,uint256)": {
        "notice": "add available liquidity for a given token to UniSwap pool"
      },
      "buyJotTokens(uint256,uint256)": {
        "notice": "allows the caller to buy jots using the funding token"
      },
      "buyback(uint256)": {
        "notice": "Buy token back. Caller needs to pre-approve a transaction worth the amount returned by the getRequiredFundingForBuyback(uint256 tokenId) function"
      },
      "change(uint256,uint256,string,address)": {
        "notice": "change an NFT for another one of the same collection"
      },
      "claimLiquidityTokens(uint256,uint256)": {
        "notice": "Claim Liquidity Tokens"
      },
      "decreaseSellingSupply(uint256,uint256)": {
        "notice": "decrease selling supply for a given NFT"
      },
      "depositJotTokens(uint256,uint256)": {
        "notice": "allows the caller to deposit jots"
      },
      "erc721address()": {
        "notice": "Synthetic NFT Address  for this collection"
      },
      "fundingTokenAddress()": {
        "notice": "funding token address"
      },
      "getAccruedReward(uint256)": {
        "notice": "returns the accrued reward by QuickSwap pool LP for a given fractionalization"
      },
      "getAvailableJotsForBuyback(uint256)": {
        "notice": "returns funds owned by token, in Jots and Funding, in contract and in UniSwap"
      },
      "increaseSellingSupply(uint256,uint256)": {
        "notice": "increase selling supply for a given NFT"
      },
      "isSyntheticNFTCreated(uint256)": {
        "notice": "public function. Checks if an NFT has been already fractionalized"
      },
      "isSyntheticNFTFractionalised(uint256)": {
        "notice": "public function. Checks if an NFT has been already fractionalised."
      },
      "jotAddress()": {
        "notice": "jot Address for this collection"
      },
      "originalCollectionAddress()": {
        "notice": "address of the original collection"
      },
      "poolAddress()": {
        "notice": "returns the Quickswap pool address"
      },
      "syntheticProtocolRouterAddress()": {
        "notice": "the address of the protocol router"
      },
      "tokens(uint256)": {
        "notice": "data for each token"
      },
      "updateBuybackPrice()": {
        "notice": "allows users to update buyback price for buyback"
      },
      "updatePriceFraction(uint256,uint256)": {
        "notice": "update the price of a fraction for a given NFT"
      },
      "verify(uint256)": {
        "notice": "this method calls chainlink oracle and         verifies if the NFT has been locked on NFTVaultManager. In addition         gets the metadata of the NFT"
      }
    },
    "version": 1
  },
  "storageLayout": {
    "storage": [
      {
        "astId": 3872,
        "contract": "contracts/polygon/implementations/SyntheticCollectionManager.sol:SyntheticCollectionManager",
        "label": "_roles",
        "offset": 0,
        "slot": "0",
        "type": "t_mapping(t_bytes32,t_struct(RoleData)3867_storage)"
      },
      {
        "astId": 7665,
        "contract": "contracts/polygon/implementations/SyntheticCollectionManager.sol:SyntheticCollectionManager",
        "label": "_initialized",
        "offset": 0,
        "slot": "1",
        "type": "t_bool"
      },
      {
        "astId": 7668,
        "contract": "contracts/polygon/implementations/SyntheticCollectionManager.sol:SyntheticCollectionManager",
        "label": "_initializing",
        "offset": 1,
        "slot": "1",
        "type": "t_bool"
      },
      {
        "astId": 24963,
        "contract": "contracts/polygon/implementations/SyntheticCollectionManager.sol:SyntheticCollectionManager",
        "label": "AuctionsManagerAddress",
        "offset": 2,
        "slot": "1",
        "type": "t_address"
      },
      {
        "astId": 24966,
        "contract": "contracts/polygon/implementations/SyntheticCollectionManager.sol:SyntheticCollectionManager",
        "label": "syntheticProtocolRouterAddress",
        "offset": 0,
        "slot": "2",
        "type": "t_address"
      },
      {
        "astId": 24968,
        "contract": "contracts/polygon/implementations/SyntheticCollectionManager.sol:SyntheticCollectionManager",
        "label": "perpetualPoolLiteAddress",
        "offset": 0,
        "slot": "3",
        "type": "t_address"
      },
      {
        "astId": 24970,
        "contract": "contracts/polygon/implementations/SyntheticCollectionManager.sol:SyntheticCollectionManager",
        "label": "_swapAddress",
        "offset": 0,
        "slot": "4",
        "type": "t_address"
      },
      {
        "astId": 24972,
        "contract": "contracts/polygon/implementations/SyntheticCollectionManager.sol:SyntheticCollectionManager",
        "label": "_liquidityCalculatorAddress",
        "offset": 0,
        "slot": "5",
        "type": "t_address"
      },
      {
        "astId": 24978,
        "contract": "contracts/polygon/implementations/SyntheticCollectionManager.sol:SyntheticCollectionManager",
        "label": "_flips",
        "offset": 0,
        "slot": "6",
        "type": "t_mapping(t_bytes32,t_struct(Flip)24895_storage)"
      },
      {
        "astId": 24982,
        "contract": "contracts/polygon/implementations/SyntheticCollectionManager.sol:SyntheticCollectionManager",
        "label": "_originalToSynthetic",
        "offset": 0,
        "slot": "7",
        "type": "t_mapping(t_uint256,t_uint256)"
      },
      {
        "astId": 24986,
        "contract": "contracts/polygon/implementations/SyntheticCollectionManager.sol:SyntheticCollectionManager",
        "label": "canFlip",
        "offset": 0,
        "slot": "8",
        "type": "t_mapping(t_uint256,t_bool)"
      },
      {
        "astId": 24988,
        "contract": "contracts/polygon/implementations/SyntheticCollectionManager.sol:SyntheticCollectionManager",
        "label": "protocol",
        "offset": 0,
        "slot": "9",
        "type": "t_address"
      },
      {
        "astId": 24991,
        "contract": "contracts/polygon/implementations/SyntheticCollectionManager.sol:SyntheticCollectionManager",
        "label": "originalCollectionAddress",
        "offset": 0,
        "slot": "10",
        "type": "t_address"
      },
      {
        "astId": 24994,
        "contract": "contracts/polygon/implementations/SyntheticCollectionManager.sol:SyntheticCollectionManager",
        "label": "jotAddress",
        "offset": 0,
        "slot": "11",
        "type": "t_address"
      },
      {
        "astId": 24997,
        "contract": "contracts/polygon/implementations/SyntheticCollectionManager.sol:SyntheticCollectionManager",
        "label": "fundingTokenAddress",
        "offset": 0,
        "slot": "12",
        "type": "t_address"
      },
      {
        "astId": 24999,
        "contract": "contracts/polygon/implementations/SyntheticCollectionManager.sol:SyntheticCollectionManager",
        "label": "buybackPrice",
        "offset": 0,
        "slot": "13",
        "type": "t_uint256"
      },
      {
        "astId": 25001,
        "contract": "contracts/polygon/implementations/SyntheticCollectionManager.sol:SyntheticCollectionManager",
        "label": "_buybackPriceLastUpdate",
        "offset": 0,
        "slot": "14",
        "type": "t_uint256"
      },
      {
        "astId": 25007,
        "contract": "contracts/polygon/implementations/SyntheticCollectionManager.sol:SyntheticCollectionManager",
        "label": "tokens",
        "offset": 0,
        "slot": "15",
        "type": "t_mapping(t_uint256,t_struct(TokenData)24888_storage)"
      },
      {
        "astId": 25012,
        "contract": "contracts/polygon/implementations/SyntheticCollectionManager.sol:SyntheticCollectionManager",
        "label": "nonces",
        "offset": 0,
        "slot": "16",
        "type": "t_mapping(t_uint256,t_uint256)"
      },
      {
        "astId": 25018,
        "contract": "contracts/polygon/implementations/SyntheticCollectionManager.sol:SyntheticCollectionManager",
        "label": "changeNonces",
        "offset": 0,
        "slot": "17",
        "type": "t_mapping(t_uint256,t_struct(ChangeNonce)24902_storage)"
      },
      {
        "astId": 25024,
        "contract": "contracts/polygon/implementations/SyntheticCollectionManager.sol:SyntheticCollectionManager",
        "label": "ownersByNonce",
        "offset": 0,
        "slot": "18",
        "type": "t_mapping(t_uint256,t_mapping(t_uint256,t_address))"
      },
      {
        "astId": 25027,
        "contract": "contracts/polygon/implementations/SyntheticCollectionManager.sol:SyntheticCollectionManager",
        "label": "erc721address",
        "offset": 0,
        "slot": "19",
        "type": "t_address"
      },
      {
        "astId": 25029,
        "contract": "contracts/polygon/implementations/SyntheticCollectionManager.sol:SyntheticCollectionManager",
        "label": "jotPool",
        "offset": 0,
        "slot": "20",
        "type": "t_address"
      },
      {
        "astId": 25031,
        "contract": "contracts/polygon/implementations/SyntheticCollectionManager.sol:SyntheticCollectionManager",
        "label": "redemptionPool",
        "offset": 0,
        "slot": "21",
        "type": "t_address"
      }
    ],
    "types": {
      "t_address": {
        "encoding": "inplace",
        "label": "address",
        "numberOfBytes": "20"
      },
      "t_bool": {
        "encoding": "inplace",
        "label": "bool",
        "numberOfBytes": "1"
      },
      "t_bytes32": {
        "encoding": "inplace",
        "label": "bytes32",
        "numberOfBytes": "32"
      },
      "t_enum(State)23374": {
        "encoding": "inplace",
        "label": "enum State",
        "numberOfBytes": "1"
      },
      "t_mapping(t_address,t_bool)": {
        "encoding": "mapping",
        "key": "t_address",
        "label": "mapping(address => bool)",
        "numberOfBytes": "32",
        "value": "t_bool"
      },
      "t_mapping(t_bytes32,t_struct(Flip)24895_storage)": {
        "encoding": "mapping",
        "key": "t_bytes32",
        "label": "mapping(bytes32 => struct Flip)",
        "numberOfBytes": "32",
        "value": "t_struct(Flip)24895_storage"
      },
      "t_mapping(t_bytes32,t_struct(RoleData)3867_storage)": {
        "encoding": "mapping",
        "key": "t_bytes32",
        "label": "mapping(bytes32 => struct AccessControl.RoleData)",
        "numberOfBytes": "32",
        "value": "t_struct(RoleData)3867_storage"
      },
      "t_mapping(t_uint256,t_address)": {
        "encoding": "mapping",
        "key": "t_uint256",
        "label": "mapping(uint256 => address)",
        "numberOfBytes": "32",
        "value": "t_address"
      },
      "t_mapping(t_uint256,t_bool)": {
        "encoding": "mapping",
        "key": "t_uint256",
        "label": "mapping(uint256 => bool)",
        "numberOfBytes": "32",
        "value": "t_bool"
      },
      "t_mapping(t_uint256,t_mapping(t_uint256,t_address))": {
        "encoding": "mapping",
        "key": "t_uint256",
        "label": "mapping(uint256 => mapping(uint256 => address))",
        "numberOfBytes": "32",
        "value": "t_mapping(t_uint256,t_address)"
      },
      "t_mapping(t_uint256,t_struct(ChangeNonce)24902_storage)": {
        "encoding": "mapping",
        "key": "t_uint256",
        "label": "mapping(uint256 => struct ChangeNonce)",
        "numberOfBytes": "32",
        "value": "t_struct(ChangeNonce)24902_storage"
      },
      "t_mapping(t_uint256,t_struct(TokenData)24888_storage)": {
        "encoding": "mapping",
        "key": "t_uint256",
        "label": "mapping(uint256 => struct TokenData)",
        "numberOfBytes": "32",
        "value": "t_struct(TokenData)24888_storage"
      },
      "t_mapping(t_uint256,t_uint256)": {
        "encoding": "mapping",
        "key": "t_uint256",
        "label": "mapping(uint256 => uint256)",
        "numberOfBytes": "32",
        "value": "t_uint256"
      },
      "t_struct(ChangeNonce)24902_storage": {
        "encoding": "inplace",
        "label": "struct ChangeNonce",
        "members": [
          {
            "astId": 24897,
            "contract": "contracts/polygon/implementations/SyntheticCollectionManager.sol:SyntheticCollectionManager",
            "label": "nonce",
            "offset": 0,
            "slot": "0",
            "type": "t_uint256"
          },
          {
            "astId": 24899,
            "contract": "contracts/polygon/implementations/SyntheticCollectionManager.sol:SyntheticCollectionManager",
            "label": "newTokenId",
            "offset": 0,
            "slot": "1",
            "type": "t_uint256"
          },
          {
            "astId": 24901,
            "contract": "contracts/polygon/implementations/SyntheticCollectionManager.sol:SyntheticCollectionManager",
            "label": "owner",
            "offset": 0,
            "slot": "2",
            "type": "t_address"
          }
        ],
        "numberOfBytes": "96"
      },
      "t_struct(Flip)24895_storage": {
        "encoding": "inplace",
        "label": "struct Flip",
        "members": [
          {
            "astId": 24890,
            "contract": "contracts/polygon/implementations/SyntheticCollectionManager.sol:SyntheticCollectionManager",
            "label": "tokenId",
            "offset": 0,
            "slot": "0",
            "type": "t_uint256"
          },
          {
            "astId": 24892,
            "contract": "contracts/polygon/implementations/SyntheticCollectionManager.sol:SyntheticCollectionManager",
            "label": "prediction",
            "offset": 0,
            "slot": "1",
            "type": "t_uint64"
          },
          {
            "astId": 24894,
            "contract": "contracts/polygon/implementations/SyntheticCollectionManager.sol:SyntheticCollectionManager",
            "label": "player",
            "offset": 8,
            "slot": "1",
            "type": "t_address"
          }
        ],
        "numberOfBytes": "64"
      },
      "t_struct(RoleData)3867_storage": {
        "encoding": "inplace",
        "label": "struct AccessControl.RoleData",
        "members": [
          {
            "astId": 3864,
            "contract": "contracts/polygon/implementations/SyntheticCollectionManager.sol:SyntheticCollectionManager",
            "label": "members",
            "offset": 0,
            "slot": "0",
            "type": "t_mapping(t_address,t_bool)"
          },
          {
            "astId": 3866,
            "contract": "contracts/polygon/implementations/SyntheticCollectionManager.sol:SyntheticCollectionManager",
            "label": "adminRole",
            "offset": 0,
            "slot": "1",
            "type": "t_bytes32"
          }
        ],
        "numberOfBytes": "64"
      },
      "t_struct(TokenData)24888_storage": {
        "encoding": "inplace",
        "label": "struct TokenData",
        "members": [
          {
            "astId": 24868,
            "contract": "contracts/polygon/implementations/SyntheticCollectionManager.sol:SyntheticCollectionManager",
            "label": "originalTokenID",
            "offset": 0,
            "slot": "0",
            "type": "t_uint256"
          },
          {
            "astId": 24870,
            "contract": "contracts/polygon/implementations/SyntheticCollectionManager.sol:SyntheticCollectionManager",
            "label": "ownerSupply",
            "offset": 0,
            "slot": "1",
            "type": "t_uint256"
          },
          {
            "astId": 24872,
            "contract": "contracts/polygon/implementations/SyntheticCollectionManager.sol:SyntheticCollectionManager",
            "label": "sellingSupply",
            "offset": 0,
            "slot": "2",
            "type": "t_uint256"
          },
          {
            "astId": 24874,
            "contract": "contracts/polygon/implementations/SyntheticCollectionManager.sol:SyntheticCollectionManager",
            "label": "soldSupply",
            "offset": 0,
            "slot": "3",
            "type": "t_uint256"
          },
          {
            "astId": 24876,
            "contract": "contracts/polygon/implementations/SyntheticCollectionManager.sol:SyntheticCollectionManager",
            "label": "liquiditySold",
            "offset": 0,
            "slot": "4",
            "type": "t_uint256"
          },
          {
            "astId": 24878,
            "contract": "contracts/polygon/implementations/SyntheticCollectionManager.sol:SyntheticCollectionManager",
            "label": "fractionPrices",
            "offset": 0,
            "slot": "5",
            "type": "t_uint256"
          },
          {
            "astId": 24880,
            "contract": "contracts/polygon/implementations/SyntheticCollectionManager.sol:SyntheticCollectionManager",
            "label": "lastFlipTime",
            "offset": 0,
            "slot": "6",
            "type": "t_uint256"
          },
          {
            "astId": 24882,
            "contract": "contracts/polygon/implementations/SyntheticCollectionManager.sol:SyntheticCollectionManager",
            "label": "liquidityTokenBalance",
            "offset": 0,
            "slot": "7",
            "type": "t_uint256"
          },
          {
            "astId": 24884,
            "contract": "contracts/polygon/implementations/SyntheticCollectionManager.sol:SyntheticCollectionManager",
            "label": "perpetualFuturesLShares",
            "offset": 0,
            "slot": "8",
            "type": "t_uint256"
          },
          {
            "astId": 24887,
            "contract": "contracts/polygon/implementations/SyntheticCollectionManager.sol:SyntheticCollectionManager",
            "label": "state",
            "offset": 0,
            "slot": "9",
            "type": "t_enum(State)23374"
          }
        ],
        "numberOfBytes": "320"
      },
      "t_uint256": {
        "encoding": "inplace",
        "label": "uint256",
        "numberOfBytes": "32"
      },
      "t_uint64": {
        "encoding": "inplace",
        "label": "uint64",
        "numberOfBytes": "8"
      }
    }
  }
}