{
  "address": "0x9850133E54d9ebF924f0AD489FD4dCCC8954ede7",
  "abi": [
    {
      "inputs": [],
      "stateMutability": "nonpayable",
      "type": "constructor"
    },
    {
      "anonymous": false,
      "inputs": [
        {
          "indexed": true,
          "internalType": "address",
          "name": "owner",
          "type": "address"
        },
        {
          "indexed": true,
          "internalType": "address",
          "name": "approved",
          "type": "address"
        },
        {
          "indexed": true,
          "internalType": "uint256",
          "name": "tokenId",
          "type": "uint256"
        }
      ],
      "name": "Approval",
      "type": "event"
    },
    {
      "anonymous": false,
      "inputs": [
        {
          "indexed": true,
          "internalType": "address",
          "name": "owner",
          "type": "address"
        },
        {
          "indexed": true,
          "internalType": "address",
          "name": "operator",
          "type": "address"
        },
        {
          "indexed": false,
          "internalType": "bool",
          "name": "approved",
          "type": "bool"
        }
      ],
      "name": "ApprovalForAll",
      "type": "event"
    },
    {
      "anonymous": false,
      "inputs": [
        {
          "indexed": true,
          "internalType": "bytes32",
          "name": "role",
          "type": "bytes32"
        },
        {
          "indexed": true,
          "internalType": "bytes32",
          "name": "previousAdminRole",
          "type": "bytes32"
        },
        {
          "indexed": true,
          "internalType": "bytes32",
          "name": "newAdminRole",
          "type": "bytes32"
        }
      ],
      "name": "RoleAdminChanged",
      "type": "event"
    },
    {
      "anonymous": false,
      "inputs": [
        {
          "indexed": true,
          "internalType": "bytes32",
          "name": "role",
          "type": "bytes32"
        },
        {
          "indexed": true,
          "internalType": "address",
          "name": "account",
          "type": "address"
        },
        {
          "indexed": true,
          "internalType": "address",
          "name": "sender",
          "type": "address"
        }
      ],
      "name": "RoleGranted",
      "type": "event"
    },
    {
      "anonymous": false,
      "inputs": [
        {
          "indexed": true,
          "internalType": "bytes32",
          "name": "role",
          "type": "bytes32"
        },
        {
          "indexed": true,
          "internalType": "address",
          "name": "account",
          "type": "address"
        },
        {
          "indexed": true,
          "internalType": "address",
          "name": "sender",
          "type": "address"
        }
      ],
      "name": "RoleRevoked",
      "type": "event"
    },
    {
      "anonymous": false,
      "inputs": [
        {
          "indexed": true,
          "internalType": "address",
          "name": "from",
          "type": "address"
        },
        {
          "indexed": true,
          "internalType": "address",
          "name": "to",
          "type": "address"
        },
        {
          "indexed": true,
          "internalType": "uint256",
          "name": "tokenId",
          "type": "uint256"
        }
      ],
      "name": "Transfer",
      "type": "event"
    },
    {
      "inputs": [],
      "name": "DEFAULT_ADMIN_ROLE",
      "outputs": [
        {
          "internalType": "bytes32",
          "name": "",
          "type": "bytes32"
        }
      ],
      "stateMutability": "view",
      "type": "function"
    },
    {
      "inputs": [],
      "name": "MANAGER",
      "outputs": [
        {
          "internalType": "bytes32",
          "name": "",
          "type": "bytes32"
        }
      ],
      "stateMutability": "view",
      "type": "function"
    },
    {
      "inputs": [
        {
          "internalType": "address",
          "name": "to",
          "type": "address"
        },
        {
          "internalType": "uint256",
          "name": "tokenId",
          "type": "uint256"
        }
      ],
      "name": "approve",
      "outputs": [],
      "stateMutability": "nonpayable",
      "type": "function"
    },
    {
      "inputs": [
        {
          "internalType": "address",
          "name": "owner",
          "type": "address"
        }
      ],
      "name": "balanceOf",
      "outputs": [
        {
          "internalType": "uint256",
          "name": "",
          "type": "uint256"
        }
      ],
      "stateMutability": "view",
      "type": "function"
    },
    {
      "inputs": [
        {
          "internalType": "uint256",
          "name": "tokenId",
          "type": "uint256"
        }
      ],
      "name": "exists",
      "outputs": [
        {
          "internalType": "bool",
          "name": "",
          "type": "bool"
        }
      ],
      "stateMutability": "view",
      "type": "function"
    },
    {
      "inputs": [
        {
          "internalType": "uint256",
          "name": "tokenId",
          "type": "uint256"
        }
      ],
      "name": "getApproved",
      "outputs": [
        {
          "internalType": "address",
          "name": "",
          "type": "address"
        }
      ],
      "stateMutability": "view",
      "type": "function"
    },
    {
      "inputs": [
        {
          "internalType": "bytes32",
          "name": "role",
          "type": "bytes32"
        }
      ],
      "name": "getRoleAdmin",
      "outputs": [
        {
          "internalType": "bytes32",
          "name": "",
          "type": "bytes32"
        }
      ],
      "stateMutability": "view",
      "type": "function"
    },
    {
      "inputs": [
        {
          "internalType": "bytes32",
          "name": "role",
          "type": "bytes32"
        },
        {
          "internalType": "address",
          "name": "account",
          "type": "address"
        }
      ],
      "name": "grantRole",
      "outputs": [],
      "stateMutability": "nonpayable",
      "type": "function"
    },
    {
      "inputs": [
        {
          "internalType": "bytes32",
          "name": "role",
          "type": "bytes32"
        },
        {
          "internalType": "address",
          "name": "account",
          "type": "address"
        }
      ],
      "name": "hasRole",
      "outputs": [
        {
          "internalType": "bool",
          "name": "",
          "type": "bool"
        }
      ],
      "stateMutability": "view",
      "type": "function"
    },
    {
      "inputs": [
        {
          "internalType": "string",
          "name": "name_",
          "type": "string"
        },
        {
          "internalType": "string",
          "name": "symbol_",
          "type": "string"
        },
        {
          "internalType": "address",
          "name": "collectionManager_",
          "type": "address"
        }
      ],
      "name": "initialize",
      "outputs": [],
      "stateMutability": "nonpayable",
      "type": "function"
    },
    {
      "inputs": [
        {
          "internalType": "address",
          "name": "owner",
          "type": "address"
        },
        {
          "internalType": "address",
          "name": "operator",
          "type": "address"
        }
      ],
      "name": "isApprovedForAll",
      "outputs": [
        {
          "internalType": "bool",
          "name": "",
          "type": "bool"
        }
      ],
      "stateMutability": "view",
      "type": "function"
    },
    {
      "inputs": [],
      "name": "name",
      "outputs": [
        {
          "internalType": "string",
          "name": "",
          "type": "string"
        }
      ],
      "stateMutability": "view",
      "type": "function"
    },
    {
      "inputs": [
        {
          "internalType": "uint256",
          "name": "tokenId",
          "type": "uint256"
        }
      ],
      "name": "ownerOf",
      "outputs": [
        {
          "internalType": "address",
          "name": "",
          "type": "address"
        }
      ],
      "stateMutability": "view",
      "type": "function"
    },
    {
      "inputs": [
        {
          "internalType": "bytes32",
          "name": "role",
          "type": "bytes32"
        },
        {
          "internalType": "address",
          "name": "account",
          "type": "address"
        }
      ],
      "name": "renounceRole",
      "outputs": [],
      "stateMutability": "nonpayable",
      "type": "function"
    },
    {
      "inputs": [
        {
          "internalType": "bytes32",
          "name": "role",
          "type": "bytes32"
        },
        {
          "internalType": "address",
          "name": "account",
          "type": "address"
        }
      ],
      "name": "revokeRole",
      "outputs": [],
      "stateMutability": "nonpayable",
      "type": "function"
    },
    {
      "inputs": [
        {
          "internalType": "uint256",
          "name": "tokenId",
          "type": "uint256"
        }
      ],
      "name": "safeBurn",
      "outputs": [],
      "stateMutability": "nonpayable",
      "type": "function"
    },
    {
      "inputs": [
        {
          "internalType": "address",
          "name": "to",
          "type": "address"
        },
        {
          "internalType": "string",
          "name": "metadata",
          "type": "string"
        }
      ],
      "name": "safeMint",
      "outputs": [
        {
          "internalType": "uint256",
          "name": "tokenId",
          "type": "uint256"
        }
      ],
      "stateMutability": "nonpayable",
      "type": "function"
    },
    {
      "inputs": [
        {
          "internalType": "address",
          "name": "from",
          "type": "address"
        },
        {
          "internalType": "address",
          "name": "to",
          "type": "address"
        },
        {
          "internalType": "uint256",
          "name": "tokenId",
          "type": "uint256"
        }
      ],
      "name": "safeTransferFrom",
      "outputs": [],
      "stateMutability": "nonpayable",
      "type": "function"
    },
    {
      "inputs": [
        {
          "internalType": "address",
          "name": "from",
          "type": "address"
        },
        {
          "internalType": "address",
          "name": "to",
          "type": "address"
        },
        {
          "internalType": "uint256",
          "name": "tokenId",
          "type": "uint256"
        },
        {
          "internalType": "bytes",
          "name": "_data",
          "type": "bytes"
        }
      ],
      "name": "safeTransferFrom",
      "outputs": [],
      "stateMutability": "nonpayable",
      "type": "function"
    },
    {
      "inputs": [
        {
          "internalType": "address",
          "name": "operator",
          "type": "address"
        },
        {
          "internalType": "bool",
          "name": "approved",
          "type": "bool"
        }
      ],
      "name": "setApprovalForAll",
      "outputs": [],
      "stateMutability": "nonpayable",
      "type": "function"
    },
    {
      "inputs": [
        {
          "internalType": "uint256",
          "name": "tokenId",
          "type": "uint256"
        },
        {
          "internalType": "string",
          "name": "metadata",
          "type": "string"
        }
      ],
      "name": "setMetadata",
      "outputs": [],
      "stateMutability": "nonpayable",
      "type": "function"
    },
    {
      "inputs": [
        {
          "internalType": "bytes4",
          "name": "interfaceId",
          "type": "bytes4"
        }
      ],
      "name": "supportsInterface",
      "outputs": [
        {
          "internalType": "bool",
          "name": "",
          "type": "bool"
        }
      ],
      "stateMutability": "view",
      "type": "function"
    },
    {
      "inputs": [],
      "name": "symbol",
      "outputs": [
        {
          "internalType": "string",
          "name": "",
          "type": "string"
        }
      ],
      "stateMutability": "view",
      "type": "function"
    },
    {
      "inputs": [],
      "name": "tokenCounter",
      "outputs": [
        {
          "internalType": "uint256",
          "name": "_value",
          "type": "uint256"
        }
      ],
      "stateMutability": "view",
      "type": "function"
    },
    {
      "inputs": [
        {
          "internalType": "uint256",
          "name": "tokenId",
          "type": "uint256"
        }
      ],
      "name": "tokenURI",
      "outputs": [
        {
          "internalType": "string",
          "name": "",
          "type": "string"
        }
      ],
      "stateMutability": "view",
      "type": "function"
    },
    {
      "inputs": [
        {
          "internalType": "address",
          "name": "from",
          "type": "address"
        },
        {
          "internalType": "address",
          "name": "to",
          "type": "address"
        },
        {
          "internalType": "uint256",
          "name": "tokenId",
          "type": "uint256"
        }
      ],
      "name": "transferFrom",
      "outputs": [],
      "stateMutability": "nonpayable",
      "type": "function"
    }
  ],
  "transactionHash": "0x1f0d433097e6bd1ea90f03546be286815b7349e9bf4a60a2ce2a30e9ae83f5cf",
  "args": [],
  "solcInputHash": "0cc6fa82c0eeb27ece16b294b847bb89",
  "bytecode": "0x608060405234801561001057600080fd5b50611e62806100206000396000f3fe608060405234801561001057600080fd5b506004361061018e5760003560e01c80636352211e116100de578063b88d4fde11610097578063d204c45e11610071578063d204c45e14610368578063d547741f1461037b578063dbf513251461038e578063e985e9c5146103a157600080fd5b8063b88d4fde14610338578063c87b56dd1461034b578063d082e3811461035e57600080fd5b80636352211e146102dc57806370a08231146102ef57806391d148541461030257806395d89b4114610315578063a217fddf1461031d578063a22cb4651461032557600080fd5b806323b872dd1161014b57806336568abe1161012557806336568abe1461029057806342842e0e146102a35780634f558e79146102b6578063593aa283146102c957600080fd5b806323b872dd14610246578063248a9ca3146102595780632f2ff15d1461027d57600080fd5b806301ffc9a71461019357806306fdde03146101bb578063077f224a146101d0578063081812fc146101e5578063095ea7b3146102105780631b2df85014610223575b600080fd5b6101a66101a1366004611a32565b6103dd565b60405190151581526020015b60405180910390f35b6101c3610423565b6040516101b29190611be8565b6101e36101de366004611a6a565b6104b5565b005b6101f86101f33660046119f8565b6105cb565b6040516001600160a01b0390911681526020016101b2565b6101e361021e3660046119b3565b610653565b610238600080516020611e0d83398151915281565b6040519081526020016101b2565b6101e361025436600461187d565b610769565b6102386102673660046119f8565b6000908152600160208190526040909120015490565b6101e361028b366004611a10565b61079a565b6101e361029e366004611a10565b6107c1565b6101e36102b136600461187d565b61083f565b6101a66102c43660046119f8565b61085a565b6101e36102d7366004611adb565b610865565b6101f86102ea3660046119f8565b6108c2565b6102386102fd366004611831565b610939565b6101a6610310366004611a10565b6109c0565b6101c36109eb565b610238600081565b6101e3610333366004611931565b6109fa565b6101e36103463660046118b8565b610abf565b6101c36103593660046119f8565b610af1565b6002546102389081565b610238610376366004611967565b610bb6565b6101e3610389366004611a10565b610c15565b6101e361039c3660046119f8565b610c3c565b6101a66103af36600461184b565b6001600160a01b03918216600090815260076020908152604080832093909416825291909152205460ff1690565b60006001600160e01b031982166380ac58cd60e01b148061040e57506001600160e01b03198216635b5e139f60e01b145b8061041d575061041d82610c86565b92915050565b60606008805461043290611d7e565b80601f016020809104026020016040519081016040528092919081815260200182805461045e90611d7e565b80156104ab5780601f10610480576101008083540402835291602001916104ab565b820191906000526020600020905b81548152906001019060200180831161048e57829003601f168201915b5050505050905090565b600054610100900460ff16806104ce575060005460ff16155b6105365760405162461bcd60e51b815260206004820152602e60248201527f496e697469616c697a61626c653a20636f6e747261637420697320616c72656160448201526d191e481a5b9a5d1a585b1a5e995960921b60648201526084015b60405180910390fd5b600054610100900460ff16158015610558576000805461ffff19166101011790555b835161056b9060089060208701906116e7565b50825161057f9060099060208601906116e7565b50600a80546001600160a01b0319166001600160a01b0384161790556105b3600080516020611e0d83398151915283610cbb565b80156105c5576000805461ff00191690555b50505050565b60006105d682610cc5565b6106375760405162461bcd60e51b815260206004820152602c60248201527f4552433732313a20617070726f76656420717565727920666f72206e6f6e657860448201526b34b9ba32b73a103a37b5b2b760a11b606482015260840161052d565b506000908152600660205260409020546001600160a01b031690565b600061065e826108c2565b9050806001600160a01b0316836001600160a01b031614156106cc5760405162461bcd60e51b815260206004820152602160248201527f4552433732313a20617070726f76616c20746f2063757272656e74206f776e656044820152603960f91b606482015260840161052d565b336001600160a01b03821614806106e857506106e881336103af565b61075a5760405162461bcd60e51b815260206004820152603860248201527f4552433732313a20617070726f76652063616c6c6572206973206e6f74206f7760448201527f6e6572206e6f7220617070726f76656420666f7220616c6c0000000000000000606482015260840161052d565b6107648383610ce2565b505050565b6107733382610d50565b61078f5760405162461bcd60e51b815260040161052d90611c9c565b610764838383610e3a565b600082815260016020819052604090912001546107b78133610fe5565b6107648383611049565b6001600160a01b03811633146108315760405162461bcd60e51b815260206004820152602f60248201527f416363657373436f6e74726f6c3a2063616e206f6e6c792072656e6f756e636560448201526e103937b632b9903337b91039b2b63360891b606482015260840161052d565b61083b82826110b4565b5050565b61076483838360405180602001604052806000815250610abf565b600061041d82610cc5565b600080516020611e0d83398151915261087e8133610fe5565b61088783610cc5565b6108a35760405162461bcd60e51b815260040161052d90611c4d565b600083815260036020908152604090912083516105c5928501906116e7565b6000818152600460205260408120546001600160a01b03168061041d5760405162461bcd60e51b815260206004820152602960248201527f4552433732313a206f776e657220717565727920666f72206e6f6e657869737460448201526832b73a103a37b5b2b760b91b606482015260840161052d565b60006001600160a01b0382166109a45760405162461bcd60e51b815260206004820152602a60248201527f4552433732313a2062616c616e636520717565727920666f7220746865207a65604482015269726f206164647265737360b01b606482015260840161052d565b506001600160a01b031660009081526005602052604090205490565b60009182526001602090815260408084206001600160a01b0393909316845291905290205460ff1690565b60606009805461043290611d7e565b6001600160a01b038216331415610a535760405162461bcd60e51b815260206004820152601960248201527f4552433732313a20617070726f766520746f2063616c6c657200000000000000604482015260640161052d565b3360008181526007602090815260408083206001600160a01b03871680855290835292819020805460ff191686151590811790915590519081529192917f17307eab39ab6107e8899845ad3d59bd9653f200f220920489ca2b5937696c31910160405180910390a35050565b610ac93383610d50565b610ae55760405162461bcd60e51b815260040161052d90611c9c565b6105c58484848461111b565b6060610afc82610cc5565b610b185760405162461bcd60e51b815260040161052d90611c4d565b60008281526003602052604090208054610b3190611d7e565b80601f0160208091040260200160405190810160405280929190818152602001828054610b5d90611d7e565b8015610baa5780601f10610b7f57610100808354040283529160200191610baa565b820191906000526020600020905b815481529060010190602001808311610b8d57829003601f168201915b50505050509050919050565b6000600080516020611e0d833981519152610bd18133610fe5565b6002549150610be4600280546001019055565b610bee848361114e565b60008281526003602090815260409091208451610c0d928601906116e7565b505092915050565b60008281526001602081905260409091200154610c328133610fe5565b61076483836110b4565b600080516020611e0d833981519152610c558133610fe5565b610c5e8261128d565b60408051602080820180845260008084528681526003909252929020905161076492906116e7565b60006001600160e01b03198216637965db0b60e01b148061041d57506301ffc9a760e01b6001600160e01b031983161461041d565b61083b8282611049565b6000908152600460205260409020546001600160a01b0316151590565b600081815260066020526040902080546001600160a01b0319166001600160a01b0384169081179091558190610d17826108c2565b6001600160a01b03167f8c5be1e5ebec7d5bd14f71427d1e84f3dd0314c0f7b2291e5b200ac8c7c3b92560405160405180910390a45050565b6000610d5b82610cc5565b610dbc5760405162461bcd60e51b815260206004820152602c60248201527f4552433732313a206f70657261746f7220717565727920666f72206e6f6e657860448201526b34b9ba32b73a103a37b5b2b760a11b606482015260840161052d565b6000610dc7836108c2565b9050806001600160a01b0316846001600160a01b03161480610e025750836001600160a01b0316610df7846105cb565b6001600160a01b0316145b80610e3257506001600160a01b0380821660009081526007602090815260408083209388168352929052205460ff165b949350505050565b826001600160a01b0316610e4d826108c2565b6001600160a01b031614610eb55760405162461bcd60e51b815260206004820152602960248201527f4552433732313a207472616e73666572206f6620746f6b656e2074686174206960448201526839903737ba1037bbb760b91b606482015260840161052d565b6001600160a01b038216610f175760405162461bcd60e51b8152602060048201526024808201527f4552433732313a207472616e7366657220746f20746865207a65726f206164646044820152637265737360e01b606482015260840161052d565b610f22838383611328565b610f2d600082610ce2565b6001600160a01b0383166000908152600560205260408120805460019290610f56908490611d24565b90915550506001600160a01b0382166000908152600560205260408120805460019290610f84908490611ced565b909155505060008181526004602052604080822080546001600160a01b0319166001600160a01b0386811691821790925591518493918716917fddf252ad1be2c89b69c2b068fc378daa952ba7f163c4a11628f55a4df523b3ef91a4505050565b610fef82826109c0565b61083b57611007816001600160a01b031660146113f1565b6110128360206113f1565b604051602001611023929190611b36565b60408051601f198184030181529082905262461bcd60e51b825261052d91600401611be8565b61105382826109c0565b61083b5760008281526001602081815260408084206001600160a01b0386168086529252808420805460ff19169093179092559051339285917f2f8788117e7eff1d82e926ec794901d17c78024a50270940304540a733656f0d9190a45050565b6110be82826109c0565b1561083b5760008281526001602090815260408083206001600160a01b0385168085529252808320805460ff1916905551339285917ff6391f5c32d9c69d2a47ea670b442974b53935d1edc7fd64eb21e047a839171b9190a45050565b611126848484610e3a565b611132848484846115da565b6105c55760405162461bcd60e51b815260040161052d90611bfb565b6001600160a01b0382166111a45760405162461bcd60e51b815260206004820181905260248201527f4552433732313a206d696e7420746f20746865207a65726f2061646472657373604482015260640161052d565b6111ad81610cc5565b156111fa5760405162461bcd60e51b815260206004820152601c60248201527f4552433732313a20746f6b656e20616c7265616479206d696e74656400000000604482015260640161052d565b61120660008383611328565b6001600160a01b038216600090815260056020526040812080546001929061122f908490611ced565b909155505060008181526004602052604080822080546001600160a01b0319166001600160a01b03861690811790915590518392907fddf252ad1be2c89b69c2b068fc378daa952ba7f163c4a11628f55a4df523b3ef908290a45050565b6000611298826108c2565b90506112a5600083610ce2565b6001600160a01b03811660009081526005602052604081208054600192906112ce908490611d24565b909155505060008281526004602052604080822080546001600160a01b0319169055518391906001600160a01b038416907fddf252ad1be2c89b69c2b068fc378daa952ba7f163c4a11628f55a4df523b3ef908390a45050565b61133181610cc5565b1561076457600a546040516339919f5360e11b8152600481018390526001600160a01b03909116906373233ea69060240160206040518083038186803b15801561137a57600080fd5b505afa15801561138e573d6000803e3d6000fd5b505050506040513d601f19601f820116820180604052508101906113b291906119dc565b156107645760405162461bcd60e51b815260206004820152600f60248201526e151bdad95b881a5cc81b1bd8dad959608a1b604482015260640161052d565b60606000611400836002611d05565b61140b906002611ced565b67ffffffffffffffff81111561143157634e487b7160e01b600052604160045260246000fd5b6040519080825280601f01601f19166020018201604052801561145b576020820181803683370190505b509050600360fc1b8160008151811061148457634e487b7160e01b600052603260045260246000fd5b60200101906001600160f81b031916908160001a905350600f60fb1b816001815181106114c157634e487b7160e01b600052603260045260246000fd5b60200101906001600160f81b031916908160001a90535060006114e5846002611d05565b6114f0906001611ced565b90505b6001811115611584576f181899199a1a9b1b9c1cb0b131b232b360811b85600f166010811061153257634e487b7160e01b600052603260045260246000fd5b1a60f81b82828151811061155657634e487b7160e01b600052603260045260246000fd5b60200101906001600160f81b031916908160001a90535060049490941c9361157d81611d67565b90506114f3565b5083156115d35760405162461bcd60e51b815260206004820181905260248201527f537472696e67733a20686578206c656e67746820696e73756666696369656e74604482015260640161052d565b9392505050565b60006001600160a01b0384163b156116dc57604051630a85bd0160e11b81526001600160a01b0385169063150b7a029061161e903390899088908890600401611bab565b602060405180830381600087803b15801561163857600080fd5b505af1925050508015611668575060408051601f3d908101601f1916820190925261166591810190611a4e565b60015b6116c2573d808015611696576040519150601f19603f3d011682016040523d82523d6000602084013e61169b565b606091505b5080516116ba5760405162461bcd60e51b815260040161052d90611bfb565b805181602001fd5b6001600160e01b031916630a85bd0160e11b149050610e32565b506001949350505050565b8280546116f390611d7e565b90600052602060002090601f016020900481019282611715576000855561175b565b82601f1061172e57805160ff191683800117855561175b565b8280016001018555821561175b579182015b8281111561175b578251825591602001919060010190611740565b5061176792915061176b565b5090565b5b80821115611767576000815560010161176c565b600067ffffffffffffffff8084111561179b5761179b611dcf565b604051601f8501601f19908116603f011681019082821181831017156117c3576117c3611dcf565b816040528093508581528686860111156117dc57600080fd5b858560208301376000602087830101525050509392505050565b80356001600160a01b038116811461180d57600080fd5b919050565b600082601f830112611822578081fd5b6115d383833560208501611780565b600060208284031215611842578081fd5b6115d3826117f6565b6000806040838503121561185d578081fd5b611866836117f6565b9150611874602084016117f6565b90509250929050565b600080600060608486031215611891578081fd5b61189a846117f6565b92506118a8602085016117f6565b9150604084013590509250925092565b600080600080608085870312156118cd578081fd5b6118d6856117f6565b93506118e4602086016117f6565b925060408501359150606085013567ffffffffffffffff811115611906578182fd5b8501601f81018713611916578182fd5b61192587823560208401611780565b91505092959194509250565b60008060408385031215611943578182fd5b61194c836117f6565b9150602083013561195c81611de5565b809150509250929050565b60008060408385031215611979578182fd5b611982836117f6565b9150602083013567ffffffffffffffff81111561199d578182fd5b6119a985828601611812565b9150509250929050565b600080604083850312156119c5578182fd5b6119ce836117f6565b946020939093013593505050565b6000602082840312156119ed578081fd5b81516115d381611de5565b600060208284031215611a09578081fd5b5035919050565b60008060408385031215611a22578182fd5b82359150611874602084016117f6565b600060208284031215611a43578081fd5b81356115d381611df6565b600060208284031215611a5f578081fd5b81516115d381611df6565b600080600060608486031215611a7e578283fd5b833567ffffffffffffffff80821115611a95578485fd5b611aa187838801611812565b94506020860135915080821115611ab6578384fd5b50611ac386828701611812565b925050611ad2604085016117f6565b90509250925092565b60008060408385031215611aed578182fd5b82359150602083013567ffffffffffffffff81111561199d578182fd5b60008151808452611b22816020860160208601611d3b565b601f01601f19169290920160200192915050565b7f416363657373436f6e74726f6c3a206163636f756e7420000000000000000000815260008351611b6e816017850160208801611d3b565b7001034b99036b4b9b9b4b733903937b6329607d1b6017918401918201528351611b9f816028840160208801611d3b565b01602801949350505050565b6001600160a01b0385811682528416602082015260408101839052608060608201819052600090611bde90830184611b0a565b9695505050505050565b6020815260006115d36020830184611b0a565b60208082526032908201527f4552433732313a207472616e7366657220746f206e6f6e20455243373231526560408201527131b2b4bb32b91034b6b83632b6b2b73a32b960711b606082015260800190565b6020808252602f908201527f4552433732314d657461646174613a2055524920717565727920666f72206e6f60408201526e3732bc34b9ba32b73a103a37b5b2b760891b606082015260800190565b60208082526031908201527f4552433732313a207472616e736665722063616c6c6572206973206e6f74206f6040820152701ddb995c881b9bdc88185c1c1c9bdd9959607a1b606082015260800190565b60008219821115611d0057611d00611db9565b500190565b6000816000190483118215151615611d1f57611d1f611db9565b500290565b600082821015611d3657611d36611db9565b500390565b60005b83811015611d56578181015183820152602001611d3e565b838111156105c55750506000910152565b600081611d7657611d76611db9565b506000190190565b600181811c90821680611d9257607f821691505b60208210811415611db357634e487b7160e01b600052602260045260246000fd5b50919050565b634e487b7160e01b600052601160045260246000fd5b634e487b7160e01b600052604160045260246000fd5b8015158114611df357600080fd5b50565b6001600160e01b031981168114611df357600080fdfeaf290d8680820aad922855f39b306097b20e28774d6c1ad35a20325630c3a02ca26469706673582212200a69a8eea6bbc1ca614a3dc88b523c86119fcb482bf90d2153176bfeccc9a43464736f6c63430008040033",
  "devdoc": {
    "kind": "dev",
    "methods": {
      "approve(address,uint256)": {
        "details": "Gives permission to `to` to transfer `tokenId` token to another account. The approval is cleared when the token is transferred. Only a single account can be approved at a time, so approving the zero address clears previous approvals. Requirements: - The caller must own the token or be an approved operator. - `tokenId` must exist. Emits an {Approval} event."
      },
      "balanceOf(address)": {
        "details": "Returns the number of tokens in ``owner``'s account."
      },
      "getApproved(uint256)": {
        "details": "Returns the account approved for `tokenId` token. Requirements: - `tokenId` must exist."
      },
      "getRoleAdmin(bytes32)": {
        "details": "Returns the admin role that controls `role`. See {grantRole} and {revokeRole}. To change a role's admin, use {_setRoleAdmin}."
      },
      "grantRole(bytes32,address)": {
        "details": "Grants `role` to `account`. If `account` had not been already granted `role`, emits a {RoleGranted} event. Requirements: - the caller must have ``role``'s admin role."
      },
      "hasRole(bytes32,address)": {
        "details": "Returns `true` if `account` has been granted `role`."
      },
      "isApprovedForAll(address,address)": {
        "details": "Returns if the `operator` is allowed to manage all of the assets of `owner`. See {setApprovalForAll}"
      },
      "name()": {
        "details": "Returns the token collection name."
      },
      "ownerOf(uint256)": {
        "details": "Returns the owner of the `tokenId` token. Requirements: - `tokenId` must exist."
      },
      "renounceRole(bytes32,address)": {
        "details": "Revokes `role` from the calling account. Roles are often managed via {grantRole} and {revokeRole}: this function's purpose is to provide a mechanism for accounts to lose their privileges if they are compromised (such as when a trusted device is misplaced). If the calling account had been granted `role`, emits a {RoleRevoked} event. Requirements: - the caller must be `account`."
      },
      "revokeRole(bytes32,address)": {
        "details": "Revokes `role` from `account`. If `account` had been granted `role`, emits a {RoleRevoked} event. Requirements: - the caller must have ``role``'s admin role."
      },
      "safeTransferFrom(address,address,uint256)": {
        "details": "Safely transfers `tokenId` token from `from` to `to`, checking first that contract recipients are aware of the ERC721 protocol to prevent tokens from being forever locked. Requirements: - `from` cannot be the zero address. - `to` cannot be the zero address. - `tokenId` token must exist and be owned by `from`. - If the caller is not `from`, it must be have been allowed to move this token by either {approve} or {setApprovalForAll}. - If `to` refers to a smart contract, it must implement {IERC721Receiver-onERC721Received}, which is called upon a safe transfer. Emits a {Transfer} event."
      },
      "symbol()": {
        "details": "Returns the token collection symbol."
      },
      "tokenURI(uint256)": {
        "details": "See {IERC721Metadata-tokenURI}."
      },
      "transferFrom(address,address,uint256)": {
        "details": "Transfers `tokenId` token from `from` to `to`. WARNING: Usage of this method is discouraged, use {safeTransferFrom} whenever possible. Requirements: - `from` cannot be the zero address. - `to` cannot be the zero address. - `tokenId` token must be owned by `from`. - If the caller is not `from`, it must be approved to move this token by either {approve} or {setApprovalForAll}. Emits a {Transfer} event."
      }
    },
    "version": 1
  },
  "userdoc": {
    "kind": "user",
    "methods": {},
    "version": 1
  },
  "storageLayout": {
    "storage": [
      {
        "astId": 7665,
        "contract": "contracts/polygon/implementations/SyntheticNFT.sol:SyntheticNFT",
        "label": "_initialized",
        "offset": 0,
        "slot": "0",
        "type": "t_bool"
      },
      {
        "astId": 7668,
        "contract": "contracts/polygon/implementations/SyntheticNFT.sol:SyntheticNFT",
        "label": "_initializing",
        "offset": 1,
        "slot": "0",
        "type": "t_bool"
      },
      {
        "astId": 3872,
        "contract": "contracts/polygon/implementations/SyntheticNFT.sol:SyntheticNFT",
        "label": "_roles",
        "offset": 0,
        "slot": "1",
        "type": "t_mapping(t_bytes32,t_struct(RoleData)3867_storage)"
      },
      {
        "astId": 27584,
        "contract": "contracts/polygon/implementations/SyntheticNFT.sol:SyntheticNFT",
        "label": "tokenCounter",
        "offset": 0,
        "slot": "2",
        "type": "t_struct(Counter)10793_storage"
      },
      {
        "astId": 27593,
        "contract": "contracts/polygon/implementations/SyntheticNFT.sol:SyntheticNFT",
        "label": "_tokenMetadata",
        "offset": 0,
        "slot": "3",
        "type": "t_mapping(t_uint256,t_string_storage)"
      },
      {
        "astId": 27597,
        "contract": "contracts/polygon/implementations/SyntheticNFT.sol:SyntheticNFT",
        "label": "_owners",
        "offset": 0,
        "slot": "4",
        "type": "t_mapping(t_uint256,t_address)"
      },
      {
        "astId": 27601,
        "contract": "contracts/polygon/implementations/SyntheticNFT.sol:SyntheticNFT",
        "label": "_balances",
        "offset": 0,
        "slot": "5",
        "type": "t_mapping(t_address,t_uint256)"
      },
      {
        "astId": 27605,
        "contract": "contracts/polygon/implementations/SyntheticNFT.sol:SyntheticNFT",
        "label": "_tokenApprovals",
        "offset": 0,
        "slot": "6",
        "type": "t_mapping(t_uint256,t_address)"
      },
      {
        "astId": 27611,
        "contract": "contracts/polygon/implementations/SyntheticNFT.sol:SyntheticNFT",
        "label": "_operatorApprovals",
        "offset": 0,
        "slot": "7",
        "type": "t_mapping(t_address,t_mapping(t_address,t_bool))"
      },
      {
        "astId": 27613,
        "contract": "contracts/polygon/implementations/SyntheticNFT.sol:SyntheticNFT",
        "label": "_name",
        "offset": 0,
        "slot": "8",
        "type": "t_string_storage"
      },
      {
        "astId": 27615,
        "contract": "contracts/polygon/implementations/SyntheticNFT.sol:SyntheticNFT",
        "label": "_symbol",
        "offset": 0,
        "slot": "9",
        "type": "t_string_storage"
      },
      {
        "astId": 27617,
        "contract": "contracts/polygon/implementations/SyntheticNFT.sol:SyntheticNFT",
        "label": "_collectionManager",
        "offset": 0,
        "slot": "10",
        "type": "t_address"
      }
    ],
    "types": {
      "t_address": {
        "encoding": "inplace",
        "label": "address",
        "numberOfBytes": "20"
      },
      "t_bool": {
        "encoding": "inplace",
        "label": "bool",
        "numberOfBytes": "1"
      },
      "t_bytes32": {
        "encoding": "inplace",
        "label": "bytes32",
        "numberOfBytes": "32"
      },
      "t_mapping(t_address,t_bool)": {
        "encoding": "mapping",
        "key": "t_address",
        "label": "mapping(address => bool)",
        "numberOfBytes": "32",
        "value": "t_bool"
      },
      "t_mapping(t_address,t_mapping(t_address,t_bool))": {
        "encoding": "mapping",
        "key": "t_address",
        "label": "mapping(address => mapping(address => bool))",
        "numberOfBytes": "32",
        "value": "t_mapping(t_address,t_bool)"
      },
      "t_mapping(t_address,t_uint256)": {
        "encoding": "mapping",
        "key": "t_address",
        "label": "mapping(address => uint256)",
        "numberOfBytes": "32",
        "value": "t_uint256"
      },
      "t_mapping(t_bytes32,t_struct(RoleData)3867_storage)": {
        "encoding": "mapping",
        "key": "t_bytes32",
        "label": "mapping(bytes32 => struct AccessControl.RoleData)",
        "numberOfBytes": "32",
        "value": "t_struct(RoleData)3867_storage"
      },
      "t_mapping(t_uint256,t_address)": {
        "encoding": "mapping",
        "key": "t_uint256",
        "label": "mapping(uint256 => address)",
        "numberOfBytes": "32",
        "value": "t_address"
      },
      "t_mapping(t_uint256,t_string_storage)": {
        "encoding": "mapping",
        "key": "t_uint256",
        "label": "mapping(uint256 => string)",
        "numberOfBytes": "32",
        "value": "t_string_storage"
      },
      "t_string_storage": {
        "encoding": "bytes",
        "label": "string",
        "numberOfBytes": "32"
      },
      "t_struct(Counter)10793_storage": {
        "encoding": "inplace",
        "label": "struct Counters.Counter",
        "members": [
          {
            "astId": 10792,
            "contract": "contracts/polygon/implementations/SyntheticNFT.sol:SyntheticNFT",
            "label": "_value",
            "offset": 0,
            "slot": "0",
            "type": "t_uint256"
          }
        ],
        "numberOfBytes": "32"
      },
      "t_struct(RoleData)3867_storage": {
        "encoding": "inplace",
        "label": "struct AccessControl.RoleData",
        "members": [
          {
            "astId": 3864,
            "contract": "contracts/polygon/implementations/SyntheticNFT.sol:SyntheticNFT",
            "label": "members",
            "offset": 0,
            "slot": "0",
            "type": "t_mapping(t_address,t_bool)"
          },
          {
            "astId": 3866,
            "contract": "contracts/polygon/implementations/SyntheticNFT.sol:SyntheticNFT",
            "label": "adminRole",
            "offset": 0,
            "slot": "1",
            "type": "t_bytes32"
          }
        ],
        "numberOfBytes": "64"
      },
      "t_uint256": {
        "encoding": "inplace",
        "label": "uint256",
        "numberOfBytes": "32"
      }
    }
  }
}