{
  "address": "0x252aa98B2DC4A303f20AC5A93B5dc871de7F4Ca8",
  "abi": [
    {
      "inputs": [
        {
          "internalType": "address",
          "name": "randomConsumerAddress_",
          "type": "address"
        },
        {
          "internalType": "address",
          "name": "validatorAddress_",
          "type": "address"
        }
      ],
      "stateMutability": "nonpayable",
      "type": "constructor"
    },
    {
      "anonymous": false,
      "inputs": [
        {
          "indexed": true,
          "internalType": "bytes32",
          "name": "requestId",
          "type": "bytes32"
        },
        {
          "indexed": true,
          "internalType": "address",
          "name": "player",
          "type": "address"
        },
        {
          "indexed": true,
          "internalType": "uint256",
          "name": "tokenId",
          "type": "uint256"
        },
        {
          "indexed": false,
          "internalType": "uint256",
          "name": "prediction",
          "type": "uint256"
        }
      ],
      "name": "CoinFlipped",
      "type": "event"
    },
    {
      "anonymous": false,
      "inputs": [
        {
          "indexed": true,
          "internalType": "bytes32",
          "name": "requestId",
          "type": "bytes32"
        },
        {
          "indexed": true,
          "internalType": "uint256",
          "name": "tokenId",
          "type": "uint256"
        },
        {
          "indexed": false,
          "internalType": "uint256",
          "name": "prediction",
          "type": "uint256"
        },
        {
          "indexed": false,
          "internalType": "uint256",
          "name": "randomResult",
          "type": "uint256"
        }
      ],
      "name": "FlipProcessed",
      "type": "event"
    },
    {
      "anonymous": false,
      "inputs": [
        {
          "indexed": false,
          "internalType": "uint256",
          "name": "jotAmount",
          "type": "uint256"
        },
        {
          "indexed": false,
          "internalType": "uint256",
          "name": "fundingAmount",
          "type": "uint256"
        }
      ],
      "name": "LiquidityRemoved",
      "type": "event"
    },
    {
      "anonymous": false,
      "inputs": [
        {
          "indexed": true,
          "internalType": "bytes32",
          "name": "role",
          "type": "bytes32"
        },
        {
          "indexed": true,
          "internalType": "bytes32",
          "name": "previousAdminRole",
          "type": "bytes32"
        },
        {
          "indexed": true,
          "internalType": "bytes32",
          "name": "newAdminRole",
          "type": "bytes32"
        }
      ],
      "name": "RoleAdminChanged",
      "type": "event"
    },
    {
      "anonymous": false,
      "inputs": [
        {
          "indexed": true,
          "internalType": "bytes32",
          "name": "role",
          "type": "bytes32"
        },
        {
          "indexed": true,
          "internalType": "address",
          "name": "account",
          "type": "address"
        },
        {
          "indexed": true,
          "internalType": "address",
          "name": "sender",
          "type": "address"
        }
      ],
      "name": "RoleGranted",
      "type": "event"
    },
    {
      "anonymous": false,
      "inputs": [
        {
          "indexed": true,
          "internalType": "bytes32",
          "name": "role",
          "type": "bytes32"
        },
        {
          "indexed": true,
          "internalType": "address",
          "name": "account",
          "type": "address"
        },
        {
          "indexed": true,
          "internalType": "address",
          "name": "sender",
          "type": "address"
        }
      ],
      "name": "RoleRevoked",
      "type": "event"
    },
    {
      "anonymous": false,
      "inputs": [
        {
          "indexed": false,
          "internalType": "uint256",
          "name": "tokenID",
          "type": "uint256"
        },
        {
          "indexed": false,
          "internalType": "address",
          "name": "newOwner",
          "type": "address"
        }
      ],
      "name": "TokenReassigned",
      "type": "event"
    },
    {
      "anonymous": false,
      "inputs": [
        {
          "indexed": true,
          "internalType": "bytes32",
          "name": "requestId",
          "type": "bytes32"
        },
        {
          "indexed": false,
          "internalType": "address",
          "name": "from",
          "type": "address"
        },
        {
          "indexed": false,
          "internalType": "uint256",
          "name": "tokenId",
          "type": "uint256"
        }
      ],
      "name": "VerificationRequested",
      "type": "event"
    },
    {
      "anonymous": false,
      "inputs": [
        {
          "indexed": true,
          "internalType": "bytes32",
          "name": "requestId",
          "type": "bytes32"
        },
        {
          "indexed": false,
          "internalType": "address",
          "name": "originalCollection",
          "type": "address"
        },
        {
          "indexed": false,
          "internalType": "address",
          "name": "syntheticCollection",
          "type": "address"
        },
        {
          "indexed": false,
          "internalType": "uint256",
          "name": "tokenId",
          "type": "uint256"
        },
        {
          "indexed": false,
          "internalType": "bool",
          "name": "verified",
          "type": "bool"
        }
      ],
      "name": "VerifyResponseReceived",
      "type": "event"
    },
    {
      "inputs": [],
      "name": "AUCTION_MANAGER",
      "outputs": [
        {
          "internalType": "bytes32",
          "name": "",
          "type": "bytes32"
        }
      ],
      "stateMutability": "view",
      "type": "function"
    },
    {
      "inputs": [],
      "name": "DEFAULT_ADMIN_ROLE",
      "outputs": [
        {
          "internalType": "bytes32",
          "name": "",
          "type": "bytes32"
        }
      ],
      "stateMutability": "view",
      "type": "function"
    },
    {
      "inputs": [],
      "name": "RANDOM_ORACLE",
      "outputs": [
        {
          "internalType": "bytes32",
          "name": "",
          "type": "bytes32"
        }
      ],
      "stateMutability": "view",
      "type": "function"
    },
    {
      "inputs": [],
      "name": "ROUTER",
      "outputs": [
        {
          "internalType": "bytes32",
          "name": "",
          "type": "bytes32"
        }
      ],
      "stateMutability": "view",
      "type": "function"
    },
    {
      "inputs": [],
      "name": "VALIDATOR_ORACLE",
      "outputs": [
        {
          "internalType": "bytes32",
          "name": "",
          "type": "bytes32"
        }
      ],
      "stateMutability": "view",
      "type": "function"
    },
    {
      "inputs": [
        {
          "internalType": "uint256",
          "name": "tokenId",
          "type": "uint256"
        }
      ],
      "name": "addLiquidityToPool",
      "outputs": [],
      "stateMutability": "nonpayable",
      "type": "function"
    },
    {
      "inputs": [],
      "name": "auctionsManagerAddress",
      "outputs": [
        {
          "internalType": "address",
          "name": "",
          "type": "address"
        }
      ],
      "stateMutability": "view",
      "type": "function"
    },
    {
      "inputs": [
        {
          "internalType": "uint256",
          "name": "tokenId_",
          "type": "uint256"
        },
        {
          "internalType": "uint256",
          "name": "amountToBuy_",
          "type": "uint256"
        }
      ],
      "name": "buyJotTokens",
      "outputs": [],
      "stateMutability": "nonpayable",
      "type": "function"
    },
    {
      "inputs": [
        {
          "internalType": "uint256",
          "name": "tokenId",
          "type": "uint256"
        }
      ],
      "name": "buyback",
      "outputs": [],
      "stateMutability": "nonpayable",
      "type": "function"
    },
    {
      "inputs": [],
      "name": "buybackPrice",
      "outputs": [
        {
          "internalType": "uint256",
          "name": "",
          "type": "uint256"
        }
      ],
      "stateMutability": "view",
      "type": "function"
    },
    {
      "inputs": [
        {
          "internalType": "uint256",
          "name": "tokenId",
          "type": "uint256"
        }
      ],
      "name": "buybackRequiredAmount",
      "outputs": [
        {
          "internalType": "uint256",
          "name": "buybackAmount",
          "type": "uint256"
        },
        {
          "internalType": "uint256",
          "name": "fundingLeft",
          "type": "uint256"
        },
        {
          "internalType": "uint256",
          "name": "jotsLeft",
          "type": "uint256"
        }
      ],
      "stateMutability": "view",
      "type": "function"
    },
    {
      "inputs": [
        {
          "internalType": "uint256",
          "name": "syntheticId",
          "type": "uint256"
        },
        {
          "internalType": "uint256",
          "name": "newOriginalId",
          "type": "uint256"
        },
        {
          "internalType": "string",
          "name": "metadata",
          "type": "string"
        },
        {
          "internalType": "address",
          "name": "caller",
          "type": "address"
        }
      ],
      "name": "change",
      "outputs": [],
      "stateMutability": "nonpayable",
      "type": "function"
    },
    {
      "inputs": [
        {
          "internalType": "uint256",
          "name": "",
          "type": "uint256"
        }
      ],
      "name": "changeNonces",
      "outputs": [
        {
          "internalType": "uint256",
          "name": "nonce",
          "type": "uint256"
        },
        {
          "internalType": "uint256",
          "name": "newTokenId",
          "type": "uint256"
        },
        {
          "internalType": "address",
          "name": "owner",
          "type": "address"
        }
      ],
      "stateMutability": "view",
      "type": "function"
    },
    {
      "inputs": [
        {
          "internalType": "uint256",
          "name": "tokenId",
          "type": "uint256"
        },
        {
          "internalType": "uint256",
          "name": "amount",
          "type": "uint256"
        }
      ],
      "name": "claimLiquidityTokens",
      "outputs": [],
      "stateMutability": "nonpayable",
      "type": "function"
    },
    {
      "inputs": [
        {
          "internalType": "uint256",
          "name": "tokenId_",
          "type": "uint256"
        },
        {
          "internalType": "uint256",
          "name": "amount_",
          "type": "uint256"
        }
      ],
      "name": "decreaseSellingSupply",
      "outputs": [],
      "stateMutability": "nonpayable",
      "type": "function"
    },
    {
      "inputs": [
        {
          "internalType": "uint256",
          "name": "tokenId_",
          "type": "uint256"
        },
        {
          "internalType": "uint256",
          "name": "amountToDeposit_",
          "type": "uint256"
        }
      ],
      "name": "depositJotTokens",
      "outputs": [],
      "stateMutability": "nonpayable",
      "type": "function"
    },
    {
      "inputs": [],
      "name": "erc721address",
      "outputs": [
        {
          "internalType": "address",
          "name": "",
          "type": "address"
        }
      ],
      "stateMutability": "view",
      "type": "function"
    },
    {
      "inputs": [
        {
          "internalType": "uint256",
          "name": "tokenId",
          "type": "uint256"
        },
        {
          "internalType": "uint256",
          "name": "amount",
          "type": "uint256"
        }
      ],
      "name": "exchangeOwnerJot",
      "outputs": [],
      "stateMutability": "nonpayable",
      "type": "function"
    },
    {
      "inputs": [
        {
          "internalType": "uint256",
          "name": "tokenId",
          "type": "uint256"
        },
        {
          "internalType": "uint64",
          "name": "prediction",
          "type": "uint64"
        }
      ],
      "name": "flipJot",
      "outputs": [],
      "stateMutability": "nonpayable",
      "type": "function"
    },
    {
      "inputs": [],
      "name": "fundingTokenAddress",
      "outputs": [
        {
          "internalType": "address",
          "name": "",
          "type": "address"
        }
      ],
      "stateMutability": "view",
      "type": "function"
    },
    {
      "inputs": [
        {
          "internalType": "uint256",
          "name": "tokenId",
          "type": "uint256"
        }
      ],
      "name": "getAccruedReward",
      "outputs": [
        {
          "internalType": "uint256",
          "name": "",
          "type": "uint256"
        }
      ],
      "stateMutability": "view",
      "type": "function"
    },
    {
      "inputs": [
        {
          "internalType": "uint256",
          "name": "tokenId",
          "type": "uint256"
        }
      ],
      "name": "getAvailableJotsForBuyback",
      "outputs": [
        {
          "internalType": "uint256",
          "name": "totalJots",
          "type": "uint256"
        },
        {
          "internalType": "uint256",
          "name": "totalFunding",
          "type": "uint256"
        }
      ],
      "stateMutability": "view",
      "type": "function"
    },
    {
      "inputs": [
        {
          "internalType": "uint256",
          "name": "tokenId",
          "type": "uint256"
        }
      ],
      "name": "getJotAmountLeft",
      "outputs": [
        {
          "internalType": "uint256",
          "name": "",
          "type": "uint256"
        }
      ],
      "stateMutability": "view",
      "type": "function"
    },
    {
      "inputs": [
        {
          "internalType": "uint256",
          "name": "tokenId",
          "type": "uint256"
        }
      ],
      "name": "getJotFractionPrice",
      "outputs": [
        {
          "internalType": "uint256",
          "name": "",
          "type": "uint256"
        }
      ],
      "stateMutability": "view",
      "type": "function"
    },
    {
      "inputs": [
        {
          "internalType": "uint256",
          "name": "tokenId",
          "type": "uint256"
        }
      ],
      "name": "getOriginalID",
      "outputs": [
        {
          "internalType": "uint256",
          "name": "",
          "type": "uint256"
        }
      ],
      "stateMutability": "view",
      "type": "function"
    },
    {
      "inputs": [
        {
          "internalType": "uint256",
          "name": "tokenId",
          "type": "uint256"
        }
      ],
      "name": "getOwnerSupply",
      "outputs": [
        {
          "internalType": "uint256",
          "name": "",
          "type": "uint256"
        }
      ],
      "stateMutability": "view",
      "type": "function"
    },
    {
      "inputs": [
        {
          "internalType": "bytes32",
          "name": "role",
          "type": "bytes32"
        }
      ],
      "name": "getRoleAdmin",
      "outputs": [
        {
          "internalType": "bytes32",
          "name": "",
          "type": "bytes32"
        }
      ],
      "stateMutability": "view",
      "type": "function"
    },
    {
      "inputs": [
        {
          "internalType": "uint256",
          "name": "tokenId",
          "type": "uint256"
        },
        {
          "internalType": "uint256",
          "name": "buyAmount",
          "type": "uint256"
        }
      ],
      "name": "getSalePrice",
      "outputs": [
        {
          "internalType": "uint256",
          "name": "",
          "type": "uint256"
        }
      ],
      "stateMutability": "view",
      "type": "function"
    },
    {
      "inputs": [
        {
          "internalType": "uint256",
          "name": "tokenId",
          "type": "uint256"
        }
      ],
      "name": "getSellingSupply",
      "outputs": [
        {
          "internalType": "uint256",
          "name": "",
          "type": "uint256"
        }
      ],
      "stateMutability": "view",
      "type": "function"
    },
    {
      "inputs": [
        {
          "internalType": "uint256",
          "name": "tokenId",
          "type": "uint256"
        }
      ],
      "name": "getSoldSupply",
      "outputs": [
        {
          "internalType": "uint256",
          "name": "",
          "type": "uint256"
        }
      ],
      "stateMutability": "view",
      "type": "function"
    },
    {
      "inputs": [
        {
          "internalType": "uint256",
          "name": "tokenId_",
          "type": "uint256"
        }
      ],
      "name": "getSyntheticNFTOwner",
      "outputs": [
        {
          "internalType": "address",
          "name": "",
          "type": "address"
        }
      ],
      "stateMutability": "view",
      "type": "function"
    },
    {
      "inputs": [
        {
          "internalType": "uint256",
          "name": "tokenId",
          "type": "uint256"
        }
      ],
      "name": "getTokenURI",
      "outputs": [
        {
          "internalType": "string",
          "name": "",
          "type": "string"
        }
      ],
      "stateMutability": "view",
      "type": "function"
    },
    {
      "inputs": [
        {
          "internalType": "uint256",
          "name": "tokenId",
          "type": "uint256"
        }
      ],
      "name": "getliquiditySold",
      "outputs": [
        {
          "internalType": "uint256",
          "name": "",
          "type": "uint256"
        }
      ],
      "stateMutability": "view",
      "type": "function"
    },
    {
      "inputs": [
        {
          "internalType": "bytes32",
          "name": "role",
          "type": "bytes32"
        },
        {
          "internalType": "address",
          "name": "account",
          "type": "address"
        }
      ],
      "name": "grantRole",
      "outputs": [],
      "stateMutability": "nonpayable",
      "type": "function"
    },
    {
      "inputs": [
        {
          "internalType": "bytes32",
          "name": "role",
          "type": "bytes32"
        },
        {
          "internalType": "address",
          "name": "account",
          "type": "address"
        }
      ],
      "name": "hasRole",
      "outputs": [
        {
          "internalType": "bool",
          "name": "",
          "type": "bool"
        }
      ],
      "stateMutability": "view",
      "type": "function"
    },
    {
      "inputs": [
        {
          "internalType": "uint256",
          "name": "tokenId_",
          "type": "uint256"
        },
        {
          "internalType": "uint256",
          "name": "amount_",
          "type": "uint256"
        }
      ],
      "name": "increaseSellingSupply",
      "outputs": [],
      "stateMutability": "nonpayable",
      "type": "function"
    },
    {
      "inputs": [
        {
          "internalType": "address",
          "name": "jotAddress_",
          "type": "address"
        },
        {
          "internalType": "address",
          "name": "originalCollectionAddress_",
          "type": "address"
        },
        {
          "internalType": "address",
          "name": "erc721address_",
          "type": "address"
        },
        {
          "internalType": "address",
          "name": "auctionManagerAddress_",
          "type": "address"
        },
        {
          "internalType": "address",
          "name": "protocol_",
          "type": "address"
        },
        {
          "internalType": "address",
          "name": "jotPool_",
          "type": "address"
        },
        {
          "internalType": "address",
          "name": "redemptionPool_",
          "type": "address"
        },
        {
          "internalType": "address",
          "name": "swapAddress_",
          "type": "address"
        }
      ],
      "name": "initialize",
      "outputs": [],
      "stateMutability": "nonpayable",
      "type": "function"
    },
    {
      "inputs": [
        {
          "internalType": "uint256",
          "name": "tokenId",
          "type": "uint256"
        }
      ],
      "name": "isAllowedToFlip",
      "outputs": [
        {
          "internalType": "bool",
          "name": "",
          "type": "bool"
        }
      ],
      "stateMutability": "view",
      "type": "function"
    },
    {
      "inputs": [
        {
          "internalType": "uint256",
          "name": "tokenId",
          "type": "uint256"
        }
      ],
      "name": "isSyntheticNFTCreated",
      "outputs": [
        {
          "internalType": "bool",
          "name": "",
          "type": "bool"
        }
      ],
      "stateMutability": "view",
      "type": "function"
    },
    {
      "inputs": [
        {
          "internalType": "uint256",
          "name": "tokenId",
          "type": "uint256"
        }
      ],
      "name": "isSyntheticNFTFractionalised",
      "outputs": [
        {
          "internalType": "bool",
          "name": "",
          "type": "bool"
        }
      ],
      "stateMutability": "view",
      "type": "function"
    },
    {
      "inputs": [
        {
          "internalType": "uint256",
          "name": "tokenId",
          "type": "uint256"
        }
      ],
      "name": "isVerified",
      "outputs": [
        {
          "internalType": "bool",
          "name": "",
          "type": "bool"
        }
      ],
      "stateMutability": "view",
      "type": "function"
    },
    {
      "inputs": [],
      "name": "jotAddress",
      "outputs": [
        {
          "internalType": "address",
          "name": "",
          "type": "address"
        }
      ],
      "stateMutability": "view",
      "type": "function"
    },
    {
      "inputs": [],
      "name": "jotPool",
      "outputs": [
        {
          "internalType": "address",
          "name": "",
          "type": "address"
        }
      ],
      "stateMutability": "view",
      "type": "function"
    },
    {
      "inputs": [
        {
          "internalType": "uint256",
          "name": "tokenId",
          "type": "uint256"
        }
      ],
      "name": "lockedNFT",
      "outputs": [
        {
          "internalType": "bool",
          "name": "",
          "type": "bool"
        }
      ],
      "stateMutability": "view",
      "type": "function"
    },
    {
      "inputs": [
        {
          "internalType": "uint256",
          "name": "",
          "type": "uint256"
        }
      ],
      "name": "nonces",
      "outputs": [
        {
          "internalType": "uint256",
          "name": "",
          "type": "uint256"
        }
      ],
      "stateMutability": "view",
      "type": "function"
    },
    {
      "inputs": [],
      "name": "originalCollectionAddress",
      "outputs": [
        {
          "internalType": "address",
          "name": "",
          "type": "address"
        }
      ],
      "stateMutability": "view",
      "type": "function"
    },
    {
      "inputs": [
        {
          "internalType": "uint256",
          "name": "",
          "type": "uint256"
        },
        {
          "internalType": "uint256",
          "name": "",
          "type": "uint256"
        }
      ],
      "name": "ownersByNonce",
      "outputs": [
        {
          "internalType": "address",
          "name": "",
          "type": "address"
        }
      ],
      "stateMutability": "view",
      "type": "function"
    },
    {
      "inputs": [],
      "name": "poolAddress",
      "outputs": [
        {
          "internalType": "address",
          "name": "",
          "type": "address"
        }
      ],
      "stateMutability": "view",
      "type": "function"
    },
    {
      "inputs": [
        {
          "internalType": "uint256",
          "name": "randomNumber",
          "type": "uint256"
        },
        {
          "internalType": "bytes32",
          "name": "requestId",
          "type": "bytes32"
        }
      ],
      "name": "processFlipResult",
      "outputs": [],
      "stateMutability": "nonpayable",
      "type": "function"
    },
    {
      "inputs": [
        {
          "internalType": "bytes32",
          "name": "requestId",
          "type": "bytes32"
        },
        {
          "components": [
            {
              "internalType": "address",
              "name": "originalCollection",
              "type": "address"
            },
            {
              "internalType": "address",
              "name": "syntheticCollection",
              "type": "address"
            },
            {
              "internalType": "uint256",
              "name": "tokenId",
              "type": "uint256"
            },
            {
              "internalType": "enum State",
              "name": "previousState",
              "type": "uint8"
            }
          ],
          "internalType": "struct VerifyRequest",
          "name": "requestData",
          "type": "tuple"
        },
        {
          "internalType": "bool",
          "name": "verified",
          "type": "bool"
        }
      ],
      "name": "processVerifyResponse",
      "outputs": [],
      "stateMutability": "nonpayable",
      "type": "function"
    },
    {
      "inputs": [],
      "name": "protocol",
      "outputs": [
        {
          "internalType": "contract ProtocolParameters",
          "name": "",
          "type": "address"
        }
      ],
      "stateMutability": "view",
      "type": "function"
    },
    {
      "inputs": [
        {
          "internalType": "uint256",
          "name": "nftId_",
          "type": "uint256"
        },
        {
          "internalType": "address",
          "name": "newOwner_",
          "type": "address"
        }
      ],
      "name": "reassignNFT",
      "outputs": [],
      "stateMutability": "nonpayable",
      "type": "function"
    },
    {
      "inputs": [
        {
          "internalType": "uint256",
          "name": "tokenId",
          "type": "uint256"
        }
      ],
      "name": "recoverToken",
      "outputs": [],
      "stateMutability": "nonpayable",
      "type": "function"
    },
    {
      "inputs": [],
      "name": "redemptionPool",
      "outputs": [
        {
          "internalType": "address",
          "name": "",
          "type": "address"
        }
      ],
      "stateMutability": "view",
      "type": "function"
    },
    {
      "inputs": [
        {
          "internalType": "uint256",
          "name": "tokenId_",
          "type": "uint256"
        },
        {
          "internalType": "uint256",
          "name": "supplyToKeep_",
          "type": "uint256"
        },
        {
          "internalType": "uint256",
          "name": "priceFraction_",
          "type": "uint256"
        },
        {
          "internalType": "address",
          "name": "nftOwner_",
          "type": "address"
        },
        {
          "internalType": "string",
          "name": "metadata_",
          "type": "string"
        }
      ],
      "name": "register",
      "outputs": [
        {
          "internalType": "uint256",
          "name": "syntheticId",
          "type": "uint256"
        }
      ],
      "stateMutability": "nonpayable",
      "type": "function"
    },
    {
      "inputs": [
        {
          "internalType": "uint256",
          "name": "tokenId",
          "type": "uint256"
        }
      ],
      "name": "removeLiquidityFromPool",
      "outputs": [],
      "stateMutability": "nonpayable",
      "type": "function"
    },
    {
      "inputs": [
        {
          "internalType": "bytes32",
          "name": "role",
          "type": "bytes32"
        },
        {
          "internalType": "address",
          "name": "account",
          "type": "address"
        }
      ],
      "name": "renounceRole",
      "outputs": [],
      "stateMutability": "nonpayable",
      "type": "function"
    },
    {
      "inputs": [
        {
          "internalType": "bytes32",
          "name": "role",
          "type": "bytes32"
        },
        {
          "internalType": "address",
          "name": "account",
          "type": "address"
        }
      ],
      "name": "revokeRole",
      "outputs": [],
      "stateMutability": "nonpayable",
      "type": "function"
    },
    {
      "inputs": [
        {
          "internalType": "uint256",
          "name": "tokenId",
          "type": "uint256"
        },
        {
          "internalType": "string",
          "name": "metadata",
          "type": "string"
        }
      ],
      "name": "setMetadata",
      "outputs": [],
      "stateMutability": "nonpayable",
      "type": "function"
    },
    {
      "inputs": [
        {
          "internalType": "address",
          "name": "perpetualPoolLiteAddress_",
          "type": "address"
        }
      ],
      "name": "setPerpetualPoolLiteAddress",
      "outputs": [],
      "stateMutability": "nonpayable",
      "type": "function"
    },
    {
      "inputs": [
        {
          "internalType": "bytes4",
          "name": "interfaceId",
          "type": "bytes4"
        }
      ],
      "name": "supportsInterface",
      "outputs": [
        {
          "internalType": "bool",
          "name": "",
          "type": "bool"
        }
      ],
      "stateMutability": "view",
      "type": "function"
    },
    {
      "inputs": [],
      "name": "syntheticProtocolRouterAddress",
      "outputs": [
        {
          "internalType": "address",
          "name": "",
          "type": "address"
        }
      ],
      "stateMutability": "view",
      "type": "function"
    },
    {
      "inputs": [],
      "name": "tokenCounter",
      "outputs": [
        {
          "internalType": "uint256",
          "name": "_value",
          "type": "uint256"
        }
      ],
      "stateMutability": "view",
      "type": "function"
    },
    {
      "inputs": [
        {
          "internalType": "uint256",
          "name": "",
          "type": "uint256"
        }
      ],
      "name": "tokens",
      "outputs": [
        {
          "internalType": "uint256",
          "name": "originalTokenID",
          "type": "uint256"
        },
        {
          "internalType": "uint256",
          "name": "ownerSupply",
          "type": "uint256"
        },
        {
          "internalType": "uint256",
          "name": "sellingSupply",
          "type": "uint256"
        },
        {
          "internalType": "uint256",
          "name": "soldSupply",
          "type": "uint256"
        },
        {
          "internalType": "uint256",
          "name": "liquiditySupply",
          "type": "uint256"
        },
        {
          "internalType": "uint256",
          "name": "liquiditySold",
          "type": "uint256"
        },
        {
          "internalType": "uint256",
          "name": "fractionPrices",
          "type": "uint256"
        },
        {
          "internalType": "uint256",
          "name": "lastFlipTime",
          "type": "uint256"
        },
        {
          "internalType": "uint256",
          "name": "liquidityTokenBalance",
          "type": "uint256"
        },
        {
          "internalType": "uint256",
          "name": "uniswapJotLiquidity",
          "type": "uint256"
        },
        {
          "internalType": "uint256",
          "name": "uniswapFundingLiquidity",
          "type": "uint256"
        },
        {
          "internalType": "enum State",
          "name": "state",
          "type": "uint8"
        }
      ],
      "stateMutability": "view",
      "type": "function"
    },
    {
      "inputs": [
        {
          "internalType": "uint256",
          "name": "tokenId_",
          "type": "uint256"
        },
        {
          "internalType": "uint256",
          "name": "newFractionPrice_",
          "type": "uint256"
        }
      ],
      "name": "updatePriceFraction",
      "outputs": [],
      "stateMutability": "nonpayable",
      "type": "function"
    },
    {
      "inputs": [
        {
          "internalType": "uint256",
          "name": "tokenId",
          "type": "uint256"
        }
      ],
      "name": "verify",
      "outputs": [],
      "stateMutability": "nonpayable",
      "type": "function"
    },
    {
      "inputs": [
        {
          "internalType": "uint256",
          "name": "tokenId_",
          "type": "uint256"
        },
        {
          "internalType": "uint256",
          "name": "amountToWithdraw_",
          "type": "uint256"
        }
      ],
      "name": "withdrawJotTokens",
      "outputs": [],
      "stateMutability": "nonpayable",
      "type": "function"
    }
  ],
  "transactionHash": "0xaaf8ae8f30466b00053523ae2f90e9062d39746972778b85eea70ebbb928f3a5",
  "args": [
    "0x424825163512886F1D2f43cd8C55B1E141cfB53E",
    "0xb3Ade02297d1B8c74bDEee1Da415D79240B8429b"
  ],
  "solcInputHash": "cad3e9ec40506369670c8a9d880f69f9",
  "bytecode": "0x60c06040523480156200001157600080fd5b5060405162005c1538038062005c1583398101604081905262000034916200012c565b600154610100900460ff16806200004e575060015460ff16155b620000b65760405162461bcd60e51b815260206004820152602e60248201527f496e697469616c697a61626c653a20636f6e747261637420697320616c72656160448201526d191e481a5b9a5d1a585b1a5e995960921b606482015260840160405180910390fd5b600154610100900460ff16158015620000d9576001805461ffff19166101011790555b6001600160601b0319606084811b821660805283901b1660a052801562000106576001805461ff00191690555b50505062000163565b80516001600160a01b03811681146200012757600080fd5b919050565b600080604083850312156200013f578182fd5b6200014a836200010f565b91506200015a602084016200010f565b90509250929050565b60805160601c60a05160601c615a866200018f6000396000612ee0015260006116ec0152615a866000f3fe608060405234801561001057600080fd5b50600436106103f15760003560e01c80636e26115c116102155780639d806b5411610125578063cd87eb52116100b8578063df04698e11610087578063df04698e14610a54578063e445a50214610a77578063ecf70d3714610a8a578063ee2af58d14610aac578063f0b3825014610abf57600080fd5b8063cd87eb5214610a02578063d082e38114610a24578063d3c4ea9214610a2e578063d547741f14610a4157600080fd5b8063b1da4db7116100f4578063b1da4db7146109a6578063b82ad768146109b9578063bd4a3639146109cc578063cb1a233d146109ef57600080fd5b80639d806b5414610951578063a217fddf14610964578063ab8f2b1b1461096c578063abacac251461097f57600080fd5b80638810cf5f116101a85780638aab4274116101775780638aab4274146108ec5780638ce74426146108ff5780638f2e5b021461091257806391d14854146109355780639c76a6ac1461094857600080fd5b80638810cf5f1461088b578063886747cd146108b357806389736a90146108c65780638a29e2de146108d957600080fd5b80637c4950c7116101e45780637c4950c7146107f65780637e0aa10c1461080957806383a13100146108655780638753367f1461087857600080fd5b80636e26115c1461079a57806373233ea6146107ad5780637984f198146107c057806379a9fa1c146107e357600080fd5b806336568abe116103105780634c538fde116102a357806358e8bcb71161027257806358e8bcb714610727578063593aa2831461074e5780635c920736146107615780635ea172d0146107745780636332fb8b1461078757600080fd5b80634c538fde1461064b5780634f64b2be1461065e5780635763c393146106e657806357841014146106f957600080fd5b80633bb3a24d116102df5780633bb3a24d146105f25780634bc4d599146106125780634c4b206b146106255780634c4e03f91461063857600080fd5b806336568abe146105a457806336b64fc2146105b757806337b6d96b146105ca57806339fb284e146105dd57600080fd5b80631755ff211161038857806326aa143b1161035757806326aa143b146105495780632f2ff15d1461055c578063306ff2801461056f57806332fe7b261461058f57600080fd5b80631755ff21146104f85780631c06b6ba14610500578063248a9ca31461051357806326964e511461053657600080fd5b8063072ac5f3116103c4578063072ac5f31461048f57806307972c48146104a25780630f1203d0146104c5578063141a468c146104d857600080fd5b806301ffc9a7146103f6578063025fdcb21461041e57806302d796521461044f57806304939d3c14610464575b600080fd5b61040961040436600461538f565b610af3565b60405190151581526020015b60405180910390f35b61044161042c36600461528f565b6000908152600e602052604090206002015490565b604051908152602001610415565b61046261045d3660046152bf565b610b04565b005b600454610477906001600160a01b031681565b6040516001600160a01b039091168152602001610415565b61046261049d366004615477565b610f80565b6104416104b036600461528f565b6000908152600e602052604090206006015490565b600554610477906001600160a01b031681565b6104416104e636600461528f565b600f6020526000908152604090205481565b610477611372565b61046261050e366004615477565b6113f4565b61044161052136600461528f565b60009081526020819052604090206001015490565b6104626105443660046155f6565b611656565b61044161055736600461528f565b611825565b61046261056a3660046152bf565b61184e565b61044161057d36600461528f565b6000908152600e602052604090205490565b610441600080516020615a3183398151915281565b6104626105b23660046152bf565b611874565b6104626105c53660046150ec565b6118f2565b6104096105d836600461528f565b61192e565b610441600080516020615a1183398151915281565b61060561060036600461528f565b61196d565b6040516104159190615746565b600c54610477906001600160a01b031681565b601254610477906001600160a01b031681565b610462610646366004615477565b6119ee565b600d54610477906001600160a01b031681565b6106ce61066c36600461528f565b600e60205260009081526040902080546001820154600283015460038401546004850154600586015460068701546007880154600889015460098a0154600a8b0154600b909b0154999a98999798969795969495939492939192909160ff168c565b6040516104159c9b9a99989796959493929190615838565b6104626106f436600461528f565b611c5c565b61070c61070736600461528f565b61205f565b60408051938452602084019290925290820152606001610415565b6104417fe87beaa2684453d25a1f0e3e7002e109b34fc4f132f115c9a7707901e792751381565b61046261075c366004615498565b6120b2565b61046261076f366004615477565b612312565b61044161078236600461558c565b61254b565b6104626107953660046152ee565b6128a3565b6104626107a83660046154ff565b61299a565b6104096107bb36600461528f565b612c1d565b6104416107ce36600461528f565b6000908152600e602052604090206001015490565b6104626107f136600461528f565b612c67565b601454610477906001600160a01b031681565b61084161081736600461528f565b6010602052600090815260409020805460018201546002909201549091906001600160a01b031683565b6040805193845260208401929092526001600160a01b031690820152606001610415565b600b54610477906001600160a01b031681565b61046261088636600461528f565b612d44565b61089e61089936600461528f565b612f9e565b60408051928352602083019190915201610415565b6104626108c1366004615477565b6131b9565b6104626108d4366004615477565b61338d565b6104626108e7366004615124565b6134a9565b6104416108fa366004615477565b6136bf565b600a54610477906001600160a01b031681565b61044161092036600461528f565b6000908152600e602052604090206008015490565b6104096109433660046152bf565b6136e5565b61044160035481565b61046261095f366004615477565b61370e565b610441600081565b61046261097a366004615477565b6138fe565b6104417f747c8a75243ae2ca1d188aaaeab610daf9d97e45b6513baed451ebf0b9ec74fd81565b601354610477906001600160a01b031681565b6104776109c736600461528f565b6139f2565b6104416109da36600461528f565b6000908152600e602052604090206005015490565b6104626109fd36600461528f565b613a6f565b610409610a1036600461528f565b6000908152600e6020526040902054151590565b6002546104419081565b610462610a3c36600461528f565b613c74565b610462610a4f3660046152bf565b613d75565b610441610a6236600461528f565b6000908152600e602052604090206003015490565b610409610a8536600461528f565b613d9b565b610409610a9836600461528f565b600090815260096020526040902054151590565b610462610aba366004615477565b613fef565b610477610acd366004615477565b60116020908152600092835260408084209091529082529020546001600160a01b031681565b6000610afe8261417a565b92915050565b600080516020615a11833981519152610b1d81336141af565b60125460405163c87b56dd60e01b8152600481018590526000916001600160a01b03169063c87b56dd9060240160006040518083038186803b158015610b6257600080fd5b505afa158015610b76573d6000803e3d6000fd5b505050506040513d6000823e601f3d908101601f19168201604052610b9e91908101906153b7565b6000858152600e6020526040908190208054601254925163dbf5132560e01b815260048101899052939450909290916001600160a01b03169063dbf5132590602401600060405180830381600087803b158015610bfa57600080fd5b505af1158015610c0e573d6000803e3d6000fd5b505050506000610c1d60025490565b9050610c2d600280546001019055565b601254604051633349e71f60e21b81526001600160a01b039091169063cd279c7c90610c619089908590899060040161571f565b600060405180830381600087803b158015610c7b57600080fd5b505af1158015610c8f573d6000803e3d6000fd5b50505050806009600084815260200190815260200160002081905550604051806101800160405280600081526020016000815260200160008152602001600081526020016000815260200160008152602001600081526020016000815260200160008152602001600081526020016000815260200160006003811115610d2557634e487b7160e01b600052602160045260246000fd5b815250600e6000898152602001908152602001600020600082015181600001556020820151816001015560408201518160020155606082015181600301556080820151816004015560a0820151816005015560c0820151816006015560e082015181600701556101008201518160080155610120820151816009015561014082015181600a015561016082015181600b0160006101000a81548160ff02191690836003811115610de557634e487b7160e01b600052602160045260246000fd5b021790555090505060405180610180016040528083815260200169021e19e0c9bab2400000815260200160008152602001600081526020016000815260200160008152602001600081526020016000815260200160008152602001600081526020016000815260200160026003811115610e6f57634e487b7160e01b600052602160045260246000fd5b815250600e6000838152602001908152602001600020600082015181600001556020820151816001015560408201518160020155606082015181600301556080820151816004015560a0820151816005015560c0820151816006015560e082015181600701556101008201518160080155610120820151816009015561014082015181600a015561016082015181600b0160006101000a81548160ff02191690836003811115610f2f57634e487b7160e01b600052602160045260246000fd5b021790555050604080518381526001600160a01b03891660208201527fae0df3ed3f99b751fb0a740538790a748856958d5737ad5ae138454ed7e053e492500160405180910390a150505050505050565b7fe87beaa2684453d25a1f0e3e7002e109b34fc4f132f115c9a7707901e7927513610fab81336141af565b600080600a60009054906101000a90046001600160a01b03166001600160a01b031663b94d25ce6040518163ffffffff1660e01b815260040160206040518083038186803b158015610ffc57600080fd5b505afa158015611010573d6000803e3d6000fd5b505050506040513d601f19601f8201168201806040525081019061103491906152a7565b90506000600a60009054906101000a90046001600160a01b03166001600160a01b0316631861779d6040518163ffffffff1660e01b815260040160206040518083038186803b15801561108657600080fd5b505afa15801561109a573d6000803e3d6000fd5b505050506040513d601f19601f820116820180604052508101906110be91906152a7565b6000868152600860209081526040808320815160608101835281548082526001928301546001600160401b03811683870152600160401b90046001600160a01b0316828501528552600e9093529220918201549293509180851115611121578094505b8484111561112d578493505b886111cf57848260010160008282546111469190615967565b909155505060208301516001600160401b03168914611167578495506111a7565b6111718486615967565b600089815260086020526040902060010154600c549197506111a7916001600160a01b0390811691600160401b90041686614213565b85156111ca57601354600c546111ca916001600160a01b03918216911688614213565b6112b5565b848260010160008282546111e39190615910565b909155505060208301516001600160401b0316891461120457849550611244565b61120e8486615967565b600089815260086020526040902060010154600c54919750611244916001600160a01b0390811691600160401b90041686614213565b85156112b557600c546013546040516311c9479960e21b81526001600160a01b03928316926347251e64926112829291169030908b906004016156e2565b600060405180830381600087803b15801561129c57600080fd5b505af11580156112b0573d6000803e3d6000fd5b505050505b600182015461131b576004805484516040516316bfb45760e11b8152928301526001600160a01b031690632d7f68ae90602401600060405180830381600087803b15801561130257600080fd5b505af1158015611316573d6000803e3d6000fd5b505050505b8251602080850151604080516001600160401b0390921682529181018c90528a917f10c2415cd62b00f83e15c907a08b12444e71bcc1645322f97a631df735fe49e3910160405180910390a3505050505050505050565b600c54604080516324dead2f60e11b815290516000926001600160a01b0316916349bd5a5e916004808301926020929190829003018186803b1580156113b757600080fd5b505afa1580156113cb573d6000803e3d6000fd5b505050506040513d601f19601f820116820180604052508101906113ef9190615108565b905090565b6000828152600e6020526040902061140b83612c1d565b156114315760405162461bcd60e51b815260040161142890615785565b60405180910390fd5b6012546040516331a9108f60e11b81526004810185905233916001600160a01b031690636352211e9060240160206040518083038186803b15801561147557600080fd5b505afa158015611489573d6000803e3d6000fd5b505050506040513d601f19601f820116820180604052508101906114ad9190615108565b6001600160a01b0316146115035760405162461bcd60e51b815260206004820152601760248201527f4f6e6c79206f776e65722063616e2077697468647261770000000000000000006044820152606401611428565b806001015482111561154c5760405162461bcd60e51b81526020600482015260126024820152714e6f7420656e6f7567682062616c616e636560701b6044820152606401611428565b818160010160008282546115609190615967565b9091555050600c5460405163a9059cbb60e01b81526001600160a01b039091169063a9059cbb906115979033908690600401615706565b602060405180830381600087803b1580156115b157600080fd5b505af11580156115c5573d6000803e3d6000fd5b505050506040513d601f19601f820116820180604052508101906115e99190615273565b50600181015461165157600480546040516316bfb45760e11b81529182018590526001600160a01b031690632d7f68ae906024015b600060405180830381600087803b15801561163857600080fd5b505af115801561164c573d6000803e3d6000fd5b505050505b505050565b6000828152600e6020526040902061166d83613d9b565b6116b95760405162461bcd60e51b815260206004820152601760248201527f466c6970206973206e6f7420616c6c6f776564207965740000000000000000006044820152606401611428565b6116c283612c1d565b156116df5760405162461bcd60e51b815260040161142890615785565b42816007018190555060007f00000000000000000000000000000000000000000000000000000000000000006001600160a01b031663dbdff2c16040518163ffffffff1660e01b8152600401602060405180830381600087803b15801561174557600080fd5b505af1158015611759573d6000803e3d6000fd5b505050506040513d601f19601f8201168201806040525081019061177d91906152a7565b604080516060810182528681526001600160401b038681166020808401828152338587018181526000898152600885528890209651875591516001909601805492516001600160a01b0316600160401b026001600160e01b031990931696909516959095171790925592519283529293508692909184917ff3430182a8f4149cb1910574795295555b8119134718716b9f3e5024189a64a5910160405180910390a450505050565b6000818152600e60205260408120600381015460028201546118479190615967565b9392505050565b60008281526020819052604090206001015461186a81336141af565b6116518383614269565b6001600160a01b03811633146118e45760405162461bcd60e51b815260206004820152602f60248201527f416363657373436f6e74726f6c3a2063616e206f6e6c792072656e6f756e636560448201526e103937b632b9903337b91039b2b63360891b6064820152608401611428565b6118ee82826142ed565b5050565b600080516020615a3183398151915261190b81336141af565b50600680546001600160a01b0319166001600160a01b0392909216919091179055565b600060026000838152600e60205260409020600b015460ff16600381111561196657634e487b7160e01b600052602160045260246000fd5b1492915050565b60125460405163c87b56dd60e01b8152600481018390526060916001600160a01b03169063c87b56dd9060240160006040518083038186803b1580156119b257600080fd5b505afa1580156119c6573d6000803e3d6000fd5b505050506040513d6000823e601f3d908101601f19168201604052610afe91908101906153b7565b6000828152600e6020526040908190206012549151634f558e7960e01b81526004810185905290916001600160a01b031690634f558e799060240160206040518083038186803b158015611a4157600080fd5b505afa158015611a55573d6000803e3d6000fd5b505050506040513d601f19601f82011682018060405250810190611a799190615273565b611abc5760405162461bcd60e51b8152602060048201526014602482015273151bdad95b881b9bdd081c9959da5cdd195c995960621b6044820152606401611428565b60405163d52cb9cb60e01b815260048101829052602481018390526000907330512A759119e08597915f40957af28Ef13B90Bd9063d52cb9cb9060440160206040518083038186803b158015611b1157600080fd5b505af4158015611b25573d6000803e3d6000fd5b505050506040513d601f19601f82011682018060405250810190611b4991906152a7565b600d546040516323b872dd60e01b81529192506001600160a01b0316906323b872dd90611b7e903390309086906004016156e2565b602060405180830381600087803b158015611b9857600080fd5b505af1158015611bac573d6000803e3d6000fd5b505050506040513d601f19601f82011682018060405250810190611bd09190615273565b50600c5460405163a9059cbb60e01b81526001600160a01b039091169063a9059cbb90611c039033908790600401615706565b602060405180830381600087803b158015611c1d57600080fd5b505af1158015611c31573d6000803e3d6000fd5b505050506040513d601f19601f82011682018060405250810190611c559190615273565b5050505050565b6007546000828152600e6020526040902060038101546001600160a01b0390921691611cbf5760405162461bcd60e51b8152602060048201526012602482015271736f6c64537570706c79206973207a65726f60701b6044820152606401611428565b6004808201546005830154600c5460075460405163095ea7b360e01b8152939492936001600160a01b039283169363095ea7b393611d01931691879101615706565b602060405180830381600087803b158015611d1b57600080fd5b505af1158015611d2f573d6000803e3d6000fd5b505050506040513d601f19601f82011682018060405250810190611d539190615273565b50600d5460075460405163095ea7b360e01b81526001600160a01b039283169263095ea7b392611d8a929116908590600401615706565b602060405180830381600087803b158015611da457600080fd5b505af1158015611db8573d6000803e3d6000fd5b505050506040513d601f19601f82011682018060405250810190611ddc9190615273565b50600c54600d5460405162e8e33760e81b81526001600160a01b0392831660048201529082166024820152604481018490526064810183905260006084820181905260a482018190523060c48301524260e4830152918291829188169063e8e337009061010401606060405180830381600087803b158015611e5d57600080fd5b505af1158015611e71573d6000803e3d6000fd5b505050506040513d601f19601f82011682018060405250810190611e95919061555f565b92509250925083821015611f9a576000611eaf8386615967565b600d5460065460405163095ea7b360e01b81529293506001600160a01b039182169263095ea7b392611ee79216908590600401615706565b602060405180830381600087803b158015611f0157600080fd5b505af1158015611f15573d6000803e3d6000fd5b505050506040513d601f19601f82011682018060405250810190611f399190615273565b506006546040516328e32c8560e11b8152600481018390526001600160a01b03909116906351c6590a90602401600060405180830381600087803b158015611f8057600080fd5b505af1158015611f94573d6000803e3d6000fd5b50505050505b82866004016000828254611fae9190615967565b9250508190555083866005016000828254611fc99190615967565b9250508190555082866002016000828254611fe49190615967565b9250508190555083866003016000828254611fff9190615967565b925050819055508086600801600082825461201a9190615910565b92505081905550828660090160008282546120359190615910565b925050819055508186600a0160008282546120509190615910565b90915550505050505050505050565b600080600061206d84612c1d565b1561208a5760405162461bcd60e51b815260040161142890615785565b60008061209686612f9e565b915091506120a48282614352565b989097509095509350505050565b6000828152600e602052604090206002600b82015460ff1660038111156120e957634e487b7160e01b600052602160045260246000fd5b14156121425760405162461bcd60e51b815260206004820152602260248201527f43616e2774206368616e6765206d657461646174612061667465722076657269604482015261667960f01b6064820152608401611428565b6001600b82015460ff16600381111561216b57634e487b7160e01b600052602160045260246000fd5b14156121c75760405162461bcd60e51b815260206004820152602560248201527f43616e2774206368616e6765206d65746164617461207768696c6520766572696044820152646679696e6760d81b6064820152608401611428565b6012546040516331a9108f60e11b8152600481018590526000916001600160a01b031690636352211e9060240160206040518083038186803b15801561220c57600080fd5b505afa158015612220573d6000803e3d6000fd5b505050506040513d601f19601f820116820180604052508101906122449190615108565b9050336001600160a01b038216146122a85760405162461bcd60e51b815260206004820152602160248201527f596f7520617265206e6f7420746865206f776e6572206f6620746865204e46546044820152602160f81b6064820152608401611428565b60125460405163593aa28360e01b81526001600160a01b039091169063593aa283906122da908790879060040161581f565b600060405180830381600087803b1580156122f457600080fd5b505af1158015612308573d6000803e3d6000fd5b5050505050505050565b6000828152600e60205260409020600101548111156123735760405162461bcd60e51b815260206004820152601f60248201527f45786368616e676520616d6f756e7420657863656564732062616c616e6365006044820152606401611428565b6007546040805160028082526060820183526001600160a01b03909316926000926020830190803683375050600c5482519293506001600160a01b0316918391506000906123d157634e487b7160e01b600052603260045260246000fd5b6001600160a01b039283166020918202929092010152600d5482519116908290600190811061241057634e487b7160e01b600052603260045260246000fd5b6001600160a01b039092166020928302919091018201526000858152600e909152604081206001018054859290612448908490615967565b90915550506000848152600e60205260409020600101546124c057600480546040516316bfb45760e11b81529182018690526001600160a01b031690632d7f68ae90602401600060405180830381600087803b1580156124a757600080fd5b505af11580156124bb573d6000803e3d6000fd5b505050505b6040516338ed173960e01b81526001600160a01b038316906338ed1739906124f59086906000908690339042906004016157af565b600060405180830381600087803b15801561250f57600080fd5b505af1158015612523573d6000803e3d6000fd5b505050506040513d6000823e601f3d908101601f19168201604052611c5591908101906151cc565b6000600080516020615a3183398151915261256681336141af565b600087815260096020526040902054156125c25760405162461bcd60e51b815260206004820181905260248201527f53796e746865746963204e465420616c72656164792067656e657261746564216044820152606401611428565b60025491506125d5600280546001019055565b601254604051633349e71f60e21b81526001600160a01b039091169063cd279c7c906126099087908690889060040161571f565b600060405180830381600087803b15801561262357600080fd5b505af1158015612637573d6000803e3d6000fd5b5050600c546040516340c10f1960e01b81526001600160a01b0390911692506340c10f19915061267790309069021e19e0c9bab240000090600401615706565b600060405180830381600087803b15801561269157600080fd5b505af11580156126a5573d6000803e3d6000fd5b50505050600060028769021e19e0c9bab24000006126c39190615967565b6126cd9190615928565b9050600060026126e78969021e19e0c9bab2400000615967565b6126f19190615928565b905060006040518061018001604052808b81526020018a81526020018481526020016000815260200183815260200160008152602001898152602001600081526020016000815260200160008152602001600081526020016000600381111561276a57634e487b7160e01b600052602160045260246000fd5b815250905080600e6000878152602001908152602001600020600082015181600001556020820151816001015560408201518160020155606082015181600301556080820151816004015560a0820151816005015560c0820151816006015560e082015181600701556101008201518160080155610120820151816009015561014082015181600a015561016082015181600b0160006101000a81548160ff0219169083600381111561282d57634e487b7160e01b600052602160045260246000fd5b021790555050508861289657600480546040516316bfb45760e11b81529182018790526001600160a01b031690632d7f68ae90602401600060405180830381600087803b15801561287d57600080fd5b505af1158015612891573d6000803e3d6000fd5b505050505b5050505095945050505050565b7f747c8a75243ae2ca1d188aaaeab610daf9d97e45b6513baed451ebf0b9ec74fd6128ce81336141af565b6040808401516000908152600e6020522082156128f957600b8101805460ff19166002179055612930565b6060840151600b8201805460ff1916600183600381111561292a57634e487b7160e01b600052602160045260246000fd5b02179055505b835160208086015160408088015181516001600160a01b039586168152949092169284019290925290820152831515606082015285907fcf5cb568c779c24ae423fed9236ba737105872c7e0b13ebb2fd578233747825a9060800160405180910390a25050505050565b600080516020615a318339815191526129b381336141af565b6000858152600e602052604090206001810154612a055760405162461bcd60e51b815260206004820152601060248201526f10d85b89dd0818994818da185b99d95960821b6044820152606401611428565b6002600b82015460ff166003811115612a2e57634e487b7160e01b600052602160045260246000fd5b14612a705760405162461bcd60e51b8152602060048201526012602482015271151bdad95b881b9bdd081d995c9a599a595960721b6044820152606401611428565b6012546040516331a9108f60e11b8152600481018890526001600160a01b03858116921690636352211e9060240160206040518083038186803b158015612ab657600080fd5b505afa158015612aca573d6000803e3d6000fd5b505050506040513d601f19601f82011682018060405250810190612aee9190615108565b6001600160a01b031614612b355760405162461bcd60e51b815260206004820152600e60248201526d14da1bdd5b19081bdddb8813919560921b6044820152606401611428565b8054600090815260106020526040812080549091600191839190612b5a908490615910565b9091555050600181018690556002810180546001600160a01b038681166001600160a01b031990921691909117909155600b8301805460ff19166003179055825460009081526009602052604080822082905588855588825290819020899055601254905163593aa28360e01b815291169063593aa28390612be2908a90899060040161581f565b600060405180830381600087803b158015612bfc57600080fd5b505af1158015612c10573d6000803e3d6000fd5b5050505050505050505050565b6000818152600e602052604081206002600b82015460ff166003811115612c5457634e487b7160e01b600052602160045260246000fd5b1415806118475750600101541592915050565b6012546040516331a9108f60e11b81526004810183905233916001600160a01b031690636352211e9060240160206040518083038186803b158015612cab57600080fd5b505afa158015612cbf573d6000803e3d6000fd5b505050506040513d601f19601f82011682018060405250810190612ce39190615108565b6001600160a01b031614612d095760405162461bcd60e51b815260040161142890615759565b612d1281612c1d565b15612d2f5760405162461bcd60e51b815260040161142890615785565b612d388161448b565b612d4181614840565b50565b6000818152600e6020526040908190206012549151634f558e7960e01b81526004810184905290916001600160a01b031690634f558e799060240160206040518083038186803b158015612d9757600080fd5b505afa158015612dab573d6000803e3d6000fd5b505050506040513d601f19601f82011682018060405250810190612dcf9190615273565b612e125760405162461bcd60e51b8152602060048201526014602482015273151bdad95b881b9bdd081c9959da5cdd195c995960621b6044820152606401611428565b6002600b82015460ff166003811115612e3b57634e487b7160e01b600052602160045260246000fd5b1415612e825760405162461bcd60e51b8152602060048201526016602482015275151bdad95b88185b1c9958591e481d995c9a599a595960521b6044820152606401611428565b600b818101805460ff19166001908117909155905482546000908152600f602090815260408083205481516345b0ce7560e11b81526001600160a01b03958616600482015260248101899052604481019690965260648601525191937f000000000000000000000000000000000000000000000000000000000000000090931692638b619cea926084808301939282900301818787803b158015612f2557600080fd5b505af1158015612f39573d6000803e3d6000fd5b505050506040513d601f19601f82011682018060405250810190612f5d91906152a7565b9050807faf92676e6ce91b92427009a49e22fa6d354ed418db8d0965bca4232dcf3e658f3385604051612f91929190615706565b60405180910390a2505050565b6000818152600e60209081526040808320600c5482516324dead2f60e11b815292518594929385936001600160a01b03909316926349bd5a5e92600480840193829003018186803b158015612ff257600080fd5b505afa158015613006573d6000803e3d6000fd5b505050506040513d601f19601f8201168201806040525081019061302a9190615108565b9050600082600801549050600080836001600160a01b0316630902f1ac6040518163ffffffff1660e01b815260040160606040518083038186803b15801561307157600080fd5b505afa158015613085573d6000803e3d6000fd5b505050506040513d601f19601f820116820180604052508101906130a99190615429565b50915091506000846001600160a01b03166318160ddd6040518163ffffffff1660e01b815260040160206040518083038186803b1580156130e957600080fd5b505afa1580156130fd573d6000803e3d6000fd5b505050506040513d601f19601f8201168201806040525081019061312191906152a7565b905060008115613170578161313f6001600160701b03861687615948565b6131499190615928565b90508161315f6001600160701b03851687615948565b6131699190615928565b975061317d565b826001600160701b031697505b808760040154886002015489600101546131979190615910565b6131a19190615910565b6131ab9190615910565b985050505050505050915091565b6000828152600e60205260409081902060125491516331a9108f60e11b815260048101859052909133916001600160a01b0390911690636352211e9060240160206040518083038186803b15801561321057600080fd5b505afa158015613224573d6000803e3d6000fd5b505050506040513d601f19601f820116820180604052508101906132489190615108565b6001600160a01b0316146132975760405162461bcd60e51b815260206004820152601660248201527513db9b1e481bdddb995c8818d85b8819195c1bdcda5d60521b6044820152606401611428565b604051630654881960e51b815260048101829052602481018390527330512A759119e08597915f40957af28Ef13B90Bd9063ca9103209060440160006040518083038186803b1580156132e957600080fd5b505af41580156132fd573d6000803e3d6000fd5b5050600c546040516323b872dd60e01b81526001600160a01b0390911692506323b872dd9150613335903390309087906004016156e2565b602060405180830381600087803b15801561334f57600080fd5b505af1158015613363573d6000803e3d6000fd5b505050506040513d601f19601f820116820180604052508101906133879190615273565b50505050565b6000828152600e60205260409081902060125491516331a9108f60e11b815260048101859052909133916001600160a01b0390911690636352211e9060240160206040518083038186803b1580156133e457600080fd5b505afa1580156133f8573d6000803e3d6000fd5b505050506040513d601f19601f8201168201806040525081019061341c9190615108565b6001600160a01b0316146134425760405162461bcd60e51b815260040161142890615759565b604051630451aa3960e11b815260048101829052602481018390527330512A759119e08597915f40957af28Ef13B90Bd906308a35472906044015b60006040518083038186803b15801561349557600080fd5b505af415801561164c573d6000803e3d6000fd5b600154610100900460ff16806134c2575060015460ff16155b6135255760405162461bcd60e51b815260206004820152602e60248201527f496e697469616c697a61626c653a20636f6e747261637420697320616c72656160448201526d191e481a5b9a5d1a585b1a5e995960921b6064820152608401611428565b600154610100900460ff16158015613547576001805461ffff19166101011790555b600c80546001600160a01b03199081166001600160a01b038c8116919091179092556012805482168a8416179055600b805482168b84161790556005805433908316179055600480548216898416178155600a80548316898516908117909155601380548416898616179055601480548416888616179055670de0b6b3a7640000600355600780549093169386169390931790915560408051632629c7ef60e11b81529051634c538fde92828101926020929190829003018186803b15801561360f57600080fd5b505afa158015613623573d6000803e3d6000fd5b505050506040513d601f19601f820116820180604052508101906136479190615108565b600d80546001600160a01b0319166001600160a01b0392909216919091179055613672600033614917565b61368a600080516020615a3183398151915233614917565b6136a2600080516020615a1183398151915287614917565b80156136b4576001805461ff00191690555b505050505050505050565b6000828152600e602052604081206006015481906136dd9084615948565b949350505050565b6000918252602082815260408084206001600160a01b0393909316845291905290205460ff1690565b6012546040516331a9108f60e11b8152600481018490526000916001600160a01b031690636352211e9060240160206040518083038186803b15801561375357600080fd5b505afa158015613767573d6000803e3d6000fd5b505050506040513d601f19601f8201168201806040525081019061378b9190615108565b9050336001600160a01b038216146137dd5760405162461bcd60e51b81526020600482015260156024820152742cb7ba9030b932903737ba103a34329037bbb732b960591b6044820152606401611428565b6000838152600e60205260409020600801548083111561383f5760405162461bcd60e51b815260206004820152601e60248201527f4e6f7420656e6f756768206c697175696469747920617661696c61626c6500006044820152606401611428565b6000613849611372565b905083600e600087815260200190815260200160002060080160008282546138719190615967565b909155505060405163a9059cbb60e01b81526001600160a01b0382169063a9059cbb906138a49033908890600401615706565b602060405180830381600087803b1580156138be57600080fd5b505af11580156138d2573d6000803e3d6000fd5b505050506040513d601f19601f820116820180604052508101906138f69190615273565b505050505050565b6000828152600e60205260409081902060125491516331a9108f60e11b815260048101859052909133916001600160a01b0390911690636352211e9060240160206040518083038186803b15801561395557600080fd5b505afa158015613969573d6000803e3d6000fd5b505050506040513d601f19601f8201168201806040525081019061398d9190615108565b6001600160a01b0316146139b35760405162461bcd60e51b815260040161142890615759565b604051630c66c75560e21b815260048101829052602481018390527330512A759119e08597915f40957af28Ef13B90Bd9063319b1d549060440161347d565b6012546040516331a9108f60e11b8152600481018390526000916001600160a01b031690636352211e9060240160206040518083038186803b158015613a3757600080fd5b505afa158015613a4b573d6000803e3d6000fd5b505050506040513d601f19601f82011682018060405250810190610afe9190615108565b60048054604051637b5f398960e01b81529182018390526001600160a01b031690637b5f39899060240160206040518083038186803b158015613ab157600080fd5b505afa158015613ac5573d6000803e3d6000fd5b505050506040513d601f19601f82011682018060405250810190613ae99190615273565b613b355760405162461bcd60e51b815260206004820152601860248201527f546f6b656e206973206e6f74207265636f76657261626c6500000000000000006044820152606401611428565b6012546040516331a9108f60e11b81526004810183905233916001600160a01b031690636352211e9060240160206040518083038186803b158015613b7957600080fd5b505afa158015613b8d573d6000803e3d6000fd5b505050506040513d601f19601f82011682018060405250810190613bb19190615108565b6001600160a01b031614613bd75760405162461bcd60e51b815260040161142890615759565b600c54613bf9906001600160a01b0316333069021e19e0c9bab2400000614921565b6000818152600e60205260409081902069021e19e0c9bab2400000600190910155600480549151630532ab5d60e11b81529081018390526001600160a01b0390911690630a6556ba906024015b600060405180830381600087803b158015613c6057600080fd5b505af1158015611c55573d6000803e3d6000fd5b600080516020615a11833981519152613c8d81336141af565b6012546040516331a9108f60e11b8152600481018490526000916001600160a01b031690636352211e9060240160206040518083038186803b158015613cd257600080fd5b505afa158015613ce6573d6000803e3d6000fd5b505050506040513d601f19601f82011682018060405250810190613d0a9190615108565b9050600080613d1885614942565b6000878152600e6020526040812060010180549395509193508492613d3e908490615910565b9091555050600d5460405163a9059cbb60e01b81526001600160a01b039091169063a9059cbb906138a49086908590600401615706565b600082815260208190526040902060010154613d9181336141af565b61165183836142ed565b601254604051634f558e7960e01b8152600481018390526000916001600160a01b031690634f558e799060240160206040518083038186803b158015613de057600080fd5b505afa158015613df4573d6000803e3d6000fd5b505050506040513d601f19601f82011682018060405250810190613e189190615273565b8015613ec45750600a60009054906101000a90046001600160a01b03166001600160a01b031663766873326040518163ffffffff1660e01b815260040160206040518083038186803b158015613e6d57600080fd5b505afa158015613e81573d6000803e3d6000fd5b505050506040513d601f19601f82011682018060405250810190613ea591906152a7565b6000838152600e6020526040902060070154613ec19042615967565b10155b8015613fd25750600a60009054906101000a90046001600160a01b03166001600160a01b031663b94d25ce6040518163ffffffff1660e01b815260040160206040518083038186803b158015613f1957600080fd5b505afa158015613f2d573d6000803e3d6000fd5b505050506040513d601f19601f82011682018060405250810190613f5191906152a7565b600c546013546040516370a0823160e01b81526001600160a01b0391821660048201529116906370a082319060240160206040518083038186803b158015613f9857600080fd5b505afa158015613fac573d6000803e3d6000fd5b505050506040513d601f19601f82011682018060405250810190613fd091906152a7565b115b8015610afe57506000828152600e60205260409020541515610afe565b6000828152600e60205260409081902060125491516331a9108f60e11b815260048101859052909133916001600160a01b0390911690636352211e9060240160206040518083038186803b15801561404657600080fd5b505afa15801561405a573d6000803e3d6000fd5b505050506040513d601f19601f8201168201806040525081019061407e9190615108565b6001600160a01b0316146140d45760405162461bcd60e51b815260206004820152601760248201527f4f6e6c79206f776e65722063616e20696e6372656173650000000000000000006044820152606401611428565b604051633e8626f560e11b815260048101829052602481018390527330512A759119e08597915f40957af28Ef13B90Bd90637d0c4dea9060440160006040518083038186803b15801561412657600080fd5b505af415801561413a573d6000803e3d6000fd5b5050505080600101546000141561165157600480546040516316bfb45760e11b81529182018590526001600160a01b031690632d7f68ae9060240161161e565b60006001600160e01b03198216637965db0b60e01b1480610afe57506301ffc9a760e01b6001600160e01b0319831614610afe565b6141b982826136e5565b6118ee576141d1816001600160a01b03166014614c85565b6141dc836020614c85565b6040516020016141ed92919061566d565b60408051601f198184030181529082905262461bcd60e51b825261142891600401615746565b6116518363a9059cbb60e01b8484604051602401614232929190615706565b60408051601f198184030181529190526020810180516001600160e01b03166001600160e01b031990931692909217909152614e66565b61427382826136e5565b6118ee576000828152602081815260408083206001600160a01b03851684529091529020805460ff191660011790556142a93390565b6001600160a01b0316816001600160a01b0316837f2f8788117e7eff1d82e926ec794901d17c78024a50270940304540a733656f0d60405160405180910390a45050565b6142f782826136e5565b156118ee576000828152602081815260408083206001600160a01b0385168085529252808320805460ff1916905551339285917ff6391f5c32d9c69d2a47ea670b442974b53935d1edc7fd64eb21e047a839171b9190a45050565b6000818169021e19e0c9bab24000008511156143865750600061437f69021e19e0c9bab240000086615967565b9250614484565b811561444c576000670de0b6b3a7640000600354846143a59190615948565b6143af9190615928565b905069021e19e0c9bab24000006143c68783615910565b11156144205760006143e269021e19e0c9bab240000088615967565b90506000670de0b6b3a7640000600354836143fd9190615948565b6144079190615928565b90506144138186615967565b9450600093505050614446565b806144358769021e19e0c9bab2400000615967565b61443f9190615967565b9150600092505b50614484565b600354670de0b6b3a76400009061446d8769021e19e0c9bab2400000615967565b6144779190615948565b6144819190615928565b90505b9250925092565b6000818152600e6020526040812090806144a484614942565b915091506000828460040154856002015486600101546144c49190615910565b6144ce9190615910565b6144d89190615910565b905060008060006144e98486614352565b925092509250600069021e19e0c9bab240000085106145125769021e19e0c9bab2400000614514565b845b600c54604051630852cd8d60e31b8152600481018390529192506001600160a01b0316906342966c6890602401600060405180830381600087803b15801561455b57600080fd5b505af115801561456f573d6000803e3d6000fd5b50505050600082111561471e57600c546014546001600160a01b0391821691633950935191166145a98469021e19e0c9bab2400000615967565b6040518363ffffffff1660e01b81526004016145c6929190615706565b602060405180830381600087803b1580156145e057600080fd5b505af11580156145f4573d6000803e3d6000fd5b505050506040513d601f19601f820116820180604052508101906146189190615273565b506014546003546001600160a01b0390911690635ff44eb990849061463d9082615928565b6040516001600160e01b031960e085901b16815260048101929092526024820152604401600060405180830381600087803b15801561467b57600080fd5b505af115801561468f573d6000803e3d6000fd5b5050600d546014546040516323b872dd60e01b81526001600160a01b0392831694506323b872dd93506146ca923392169087906004016156e2565b602060405180830381600087803b1580156146e457600080fd5b505af11580156146f8573d6000803e3d6000fd5b505050506040513d601f19601f8201168201806040525081019061471c9190615273565b505b82156147aa57600d5460405163a9059cbb60e01b81526001600160a01b039091169063a9059cbb906147569033908790600401615706565b602060405180830381600087803b15801561477057600080fd5b505af1158015614784573d6000803e3d6000fd5b505050506040513d601f19601f820116820180604052508101906147a89190615273565b505b83156136b457600c5460405163a9059cbb60e01b81526001600160a01b039091169063a9059cbb906147e29033908890600401615706565b602060405180830381600087803b1580156147fc57600080fd5b505af1158015614810573d6000803e3d6000fd5b505050506040513d601f19601f820116820180604052508101906148349190615273565b50505050505050505050565b6000818152600e6020908152604080832080548452600f83528184205485855260118452828520818652909352922080546001600160a01b0319163317905561488a816001615910565b82546000908152600f60205260409020556148a483614f38565b50546000908152600960208181526040808420849055938352600e90529181208181556001810182905560028101829055600381018290556004810182905560058101829055600681018290556007810182905560088101829055918201819055600a820155600b01805460ff19169055565b6118ee8282614269565b613387846323b872dd60e01b858585604051602401614232939291906156e2565b6000818152600e60209081526040808320600c5482516324dead2f60e11b815292518594929385936001600160a01b03909316926349bd5a5e92600480840193829003018186803b15801561499657600080fd5b505afa1580156149aa573d6000803e3d6000fd5b505050506040513d601f19601f820116820180604052508101906149ce9190615108565b6009830154600a840154600885015492935090918015806149ed575082155b806149f6575081155b15614a0b575060009788975095505050505050565b60075460405163095ea7b360e01b81526001600160a01b038681169263095ea7b392614a3f92909116908590600401615706565b602060405180830381600087803b158015614a5957600080fd5b505af1158015614a6d573d6000803e3d6000fd5b505050506040513d601f19601f82011682018060405250810190614a919190615273565b506000806000866001600160a01b0316630902f1ac6040518163ffffffff1660e01b815260040160606040518083038186803b158015614ad057600080fd5b505afa158015614ae4573d6000803e3d6000fd5b505050506040513d601f19601f82011682018060405250810190614b089190615429565b919450925090506001600160701b038316861115614b2d57826001600160701b031695505b816001600160701b0316851115614b4b57816001600160701b031694505b6001600160701b0383161580614b6857506001600160701b038216155b15614b80575060009a8b9a5098505050505050505050565b600754600c54600d54604051635d5155ef60e11b81526001600160a01b03928316600482015290821660248201526044810187905260648101899052608481018890523060a48201524260c48201529116906000908190839063baa2abde9060e4016040805180830381600087803b158015614bfb57600080fd5b505af1158015614c0f573d6000803e3d6000fd5b505050506040513d601f19601f82011682018060405250810190614c3391906154dc565b60408051838152602081018390529294509092507f6f0f96292ae0038c04f9b6bab30f185d9ca02c471d0983f563f2a4f674aef137910160405180910390a1909d909c509a5050505050505050505050565b60606000614c94836002615948565b614c9f906002615910565b6001600160401b03811115614cc457634e487b7160e01b600052604160045260246000fd5b6040519080825280601f01601f191660200182016040528015614cee576020820181803683370190505b509050600360fc1b81600081518110614d1757634e487b7160e01b600052603260045260246000fd5b60200101906001600160f81b031916908160001a905350600f60fb1b81600181518110614d5457634e487b7160e01b600052603260045260246000fd5b60200101906001600160f81b031916908160001a9053506000614d78846002615948565b614d83906001615910565b90505b6001811115614e17576f181899199a1a9b1b9c1cb0b131b232b360811b85600f1660108110614dc557634e487b7160e01b600052603260045260246000fd5b1a60f81b828281518110614de957634e487b7160e01b600052603260045260246000fd5b60200101906001600160f81b031916908160001a90535060049490941c93614e10816159aa565b9050614d86565b5083156118475760405162461bcd60e51b815260206004820181905260248201527f537472696e67733a20686578206c656e67746820696e73756666696369656e746044820152606401611428565b6000614ebb826040518060400160405280602081526020017f5361666545524332303a206c6f772d6c6576656c2063616c6c206661696c6564815250856001600160a01b0316614f699092919063ffffffff16565b8051909150156116515780806020019051810190614ed99190615273565b6116515760405162461bcd60e51b815260206004820152602a60248201527f5361666545524332303a204552433230206f7065726174696f6e20646964206e6044820152691bdd081cdd58d8d9595960b21b6064820152608401611428565b60125460405163dbf5132560e01b8152600481018390526001600160a01b039091169063dbf5132590602401613c46565b60606136dd848460008585843b614fc25760405162461bcd60e51b815260206004820152601d60248201527f416464726573733a2063616c6c20746f206e6f6e2d636f6e74726163740000006044820152606401611428565b600080866001600160a01b03168587604051614fde9190615651565b60006040518083038185875af1925050503d806000811461501b576040519150601f19603f3d011682016040523d82523d6000602084013e615020565b606091505b509150915061503082828661503b565b979650505050505050565b6060831561504a575081611847565b82511561505a5782518084602001fd5b8160405162461bcd60e51b81526004016114289190615746565b803561507f81615a02565b919050565b600082601f830112615094578081fd5b81356150a76150a2826158e9565b6158b9565b8181528460208386010111156150bb578283fd5b816020850160208301379081016020019190915292915050565b80516001600160701b038116811461507f57600080fd5b6000602082840312156150fd578081fd5b8135611847816159ed565b600060208284031215615119578081fd5b8151611847816159ed565b600080600080600080600080610100898b031215615140578384fd5b883561514b816159ed565b9750602089013561515b816159ed565b9650604089013561516b816159ed565b9550606089013561517b816159ed565b9450608089013561518b816159ed565b935060a089013561519b816159ed565b925060c08901356151ab816159ed565b915060e08901356151bb816159ed565b809150509295985092959890939650565b600060208083850312156151de578182fd5b82516001600160401b03808211156151f4578384fd5b818501915085601f830112615207578384fd5b815181811115615219576152196159d7565b8060051b915061522a8483016158b9565b8181528481019084860184860187018a1015615244578788fd5b8795505b83861015615266578051835260019590950194918601918601615248565b5098975050505050505050565b600060208284031215615284578081fd5b815161184781615a02565b6000602082840312156152a0578081fd5b5035919050565b6000602082840312156152b8578081fd5b5051919050565b600080604083850312156152d1578182fd5b8235915060208301356152e3816159ed565b809150509250929050565b600080600083850360c0811215615303578182fd5b843593506080601f1982011215615318578182fd5b50604051608081018181106001600160401b038211171561533b5761533b6159d7565b604052602085013561534c816159ed565b8152604085013561535c816159ed565b60208201526060850135604082015260808501356004811061537c578283fd5b6060820152915061448160a08501615074565b6000602082840312156153a0578081fd5b81356001600160e01b031981168114611847578182fd5b6000602082840312156153c8578081fd5b81516001600160401b038111156153dd578182fd5b8201601f810184136153ed578182fd5b80516153fb6150a2826158e9565b81815285602083850101111561540f578384fd5b61542082602083016020860161597e565b95945050505050565b60008060006060848603121561543d578081fd5b615446846150d5565b9250615454602085016150d5565b9150604084015163ffffffff8116811461546c578182fd5b809150509250925092565b60008060408385031215615489578182fd5b50508035926020909101359150565b600080604083850312156154aa578182fd5b8235915060208301356001600160401b038111156154c6578182fd5b6154d285828601615084565b9150509250929050565b600080604083850312156154ee578182fd5b505080516020909101519092909150565b60008060008060808587031215615514578182fd5b843593506020850135925060408501356001600160401b03811115615537578283fd5b61554387828801615084565b9250506060850135615554816159ed565b939692955090935050565b600080600060608486031215615573578081fd5b8351925060208401519150604084015190509250925092565b600080600080600060a086880312156155a3578283fd5b85359450602086013593506040860135925060608601356155c3816159ed565b915060808601356001600160401b038111156155dd578182fd5b6155e988828901615084565b9150509295509295909350565b60008060408385031215615608578182fd5b8235915060208301356001600160401b03811681146152e3578182fd5b6000815180845261563d81602086016020860161597e565b601f01601f19169290920160200192915050565b6000825161566381846020870161597e565b9190910192915050565b7f416363657373436f6e74726f6c3a206163636f756e74200000000000000000008152600083516156a581601785016020880161597e565b7001034b99036b4b9b9b4b733903937b6329607d1b60179184019182015283516156d681602884016020880161597e565b01602801949350505050565b6001600160a01b039384168152919092166020820152604081019190915260600190565b6001600160a01b03929092168252602082015260400190565b60018060a01b03841681528260208201526060604082015260006154206060830184615625565b6020815260006118476020830184615625565b60208082526012908201527113db9b1e481bdddb995c88185b1b1bddd95960721b604082015260600190565b60208082526010908201526f546f6b656e206973206c6f636b65642160801b604082015260600190565b600060a082018783526020878185015260a0604085015281875180845260c0860191508289019350845b818110156157fe5784516001600160a01b0316835293830193918301916001016157d9565b50506001600160a01b03969096166060850152505050608001529392505050565b8281526040602082015260006136dd6040830184615625565b6000610180820190508d82528c60208301528b60408301528a60608301528960808301528860a08301528760c08301528660e0830152856101008301528461012083015283610140830152600483106158a157634e487b7160e01b600052602160045260246000fd5b826101608301529d9c50505050505050505050505050565b604051601f8201601f191681016001600160401b03811182821017156158e1576158e16159d7565b604052919050565b60006001600160401b03821115615902576159026159d7565b50601f01601f191660200190565b60008219821115615923576159236159c1565b500190565b60008261594357634e487b7160e01b81526012600452602481fd5b500490565b6000816000190483118215151615615962576159626159c1565b500290565b600082821015615979576159796159c1565b500390565b60005b83811015615999578181015183820152602001615981565b838111156133875750506000910152565b6000816159b9576159b96159c1565b506000190190565b634e487b7160e01b600052601160045260246000fd5b634e487b7160e01b600052604160045260246000fd5b6001600160a01b0381168114612d4157600080fd5b8015158114612d4157600080fdfec55a74c743a5d6aff6a82963adf054e2367242c4a636870f26b8ee90910968d0eb4fd9f47c063b511700e1c8e94e2fa4088ffca1fdcef1e60edf1beecd1b2e64a2646970667358221220c0a0fbdcb4e2b0afdcfa7562c554aee1e72ce485642f45593f87341579af78cb64736f6c63430008040033",
  "deployedBytecode": "0x608060405234801561001057600080fd5b50600436106103f15760003560e01c80636e26115c116102155780639d806b5411610125578063cd87eb52116100b8578063df04698e11610087578063df04698e14610a54578063e445a50214610a77578063ecf70d3714610a8a578063ee2af58d14610aac578063f0b3825014610abf57600080fd5b8063cd87eb5214610a02578063d082e38114610a24578063d3c4ea9214610a2e578063d547741f14610a4157600080fd5b8063b1da4db7116100f4578063b1da4db7146109a6578063b82ad768146109b9578063bd4a3639146109cc578063cb1a233d146109ef57600080fd5b80639d806b5414610951578063a217fddf14610964578063ab8f2b1b1461096c578063abacac251461097f57600080fd5b80638810cf5f116101a85780638aab4274116101775780638aab4274146108ec5780638ce74426146108ff5780638f2e5b021461091257806391d14854146109355780639c76a6ac1461094857600080fd5b80638810cf5f1461088b578063886747cd146108b357806389736a90146108c65780638a29e2de146108d957600080fd5b80637c4950c7116101e45780637c4950c7146107f65780637e0aa10c1461080957806383a13100146108655780638753367f1461087857600080fd5b80636e26115c1461079a57806373233ea6146107ad5780637984f198146107c057806379a9fa1c146107e357600080fd5b806336568abe116103105780634c538fde116102a357806358e8bcb71161027257806358e8bcb714610727578063593aa2831461074e5780635c920736146107615780635ea172d0146107745780636332fb8b1461078757600080fd5b80634c538fde1461064b5780634f64b2be1461065e5780635763c393146106e657806357841014146106f957600080fd5b80633bb3a24d116102df5780633bb3a24d146105f25780634bc4d599146106125780634c4b206b146106255780634c4e03f91461063857600080fd5b806336568abe146105a457806336b64fc2146105b757806337b6d96b146105ca57806339fb284e146105dd57600080fd5b80631755ff211161038857806326aa143b1161035757806326aa143b146105495780632f2ff15d1461055c578063306ff2801461056f57806332fe7b261461058f57600080fd5b80631755ff21146104f85780631c06b6ba14610500578063248a9ca31461051357806326964e511461053657600080fd5b8063072ac5f3116103c4578063072ac5f31461048f57806307972c48146104a25780630f1203d0146104c5578063141a468c146104d857600080fd5b806301ffc9a7146103f6578063025fdcb21461041e57806302d796521461044f57806304939d3c14610464575b600080fd5b61040961040436600461538f565b610af3565b60405190151581526020015b60405180910390f35b61044161042c36600461528f565b6000908152600e602052604090206002015490565b604051908152602001610415565b61046261045d3660046152bf565b610b04565b005b600454610477906001600160a01b031681565b6040516001600160a01b039091168152602001610415565b61046261049d366004615477565b610f80565b6104416104b036600461528f565b6000908152600e602052604090206006015490565b600554610477906001600160a01b031681565b6104416104e636600461528f565b600f6020526000908152604090205481565b610477611372565b61046261050e366004615477565b6113f4565b61044161052136600461528f565b60009081526020819052604090206001015490565b6104626105443660046155f6565b611656565b61044161055736600461528f565b611825565b61046261056a3660046152bf565b61184e565b61044161057d36600461528f565b6000908152600e602052604090205490565b610441600080516020615a3183398151915281565b6104626105b23660046152bf565b611874565b6104626105c53660046150ec565b6118f2565b6104096105d836600461528f565b61192e565b610441600080516020615a1183398151915281565b61060561060036600461528f565b61196d565b6040516104159190615746565b600c54610477906001600160a01b031681565b601254610477906001600160a01b031681565b610462610646366004615477565b6119ee565b600d54610477906001600160a01b031681565b6106ce61066c36600461528f565b600e60205260009081526040902080546001820154600283015460038401546004850154600586015460068701546007880154600889015460098a0154600a8b0154600b909b0154999a98999798969795969495939492939192909160ff168c565b6040516104159c9b9a99989796959493929190615838565b6104626106f436600461528f565b611c5c565b61070c61070736600461528f565b61205f565b60408051938452602084019290925290820152606001610415565b6104417fe87beaa2684453d25a1f0e3e7002e109b34fc4f132f115c9a7707901e792751381565b61046261075c366004615498565b6120b2565b61046261076f366004615477565b612312565b61044161078236600461558c565b61254b565b6104626107953660046152ee565b6128a3565b6104626107a83660046154ff565b61299a565b6104096107bb36600461528f565b612c1d565b6104416107ce36600461528f565b6000908152600e602052604090206001015490565b6104626107f136600461528f565b612c67565b601454610477906001600160a01b031681565b61084161081736600461528f565b6010602052600090815260409020805460018201546002909201549091906001600160a01b031683565b6040805193845260208401929092526001600160a01b031690820152606001610415565b600b54610477906001600160a01b031681565b61046261088636600461528f565b612d44565b61089e61089936600461528f565b612f9e565b60408051928352602083019190915201610415565b6104626108c1366004615477565b6131b9565b6104626108d4366004615477565b61338d565b6104626108e7366004615124565b6134a9565b6104416108fa366004615477565b6136bf565b600a54610477906001600160a01b031681565b61044161092036600461528f565b6000908152600e602052604090206008015490565b6104096109433660046152bf565b6136e5565b61044160035481565b61046261095f366004615477565b61370e565b610441600081565b61046261097a366004615477565b6138fe565b6104417f747c8a75243ae2ca1d188aaaeab610daf9d97e45b6513baed451ebf0b9ec74fd81565b601354610477906001600160a01b031681565b6104776109c736600461528f565b6139f2565b6104416109da36600461528f565b6000908152600e602052604090206005015490565b6104626109fd36600461528f565b613a6f565b610409610a1036600461528f565b6000908152600e6020526040902054151590565b6002546104419081565b610462610a3c36600461528f565b613c74565b610462610a4f3660046152bf565b613d75565b610441610a6236600461528f565b6000908152600e602052604090206003015490565b610409610a8536600461528f565b613d9b565b610409610a9836600461528f565b600090815260096020526040902054151590565b610462610aba366004615477565b613fef565b610477610acd366004615477565b60116020908152600092835260408084209091529082529020546001600160a01b031681565b6000610afe8261417a565b92915050565b600080516020615a11833981519152610b1d81336141af565b60125460405163c87b56dd60e01b8152600481018590526000916001600160a01b03169063c87b56dd9060240160006040518083038186803b158015610b6257600080fd5b505afa158015610b76573d6000803e3d6000fd5b505050506040513d6000823e601f3d908101601f19168201604052610b9e91908101906153b7565b6000858152600e6020526040908190208054601254925163dbf5132560e01b815260048101899052939450909290916001600160a01b03169063dbf5132590602401600060405180830381600087803b158015610bfa57600080fd5b505af1158015610c0e573d6000803e3d6000fd5b505050506000610c1d60025490565b9050610c2d600280546001019055565b601254604051633349e71f60e21b81526001600160a01b039091169063cd279c7c90610c619089908590899060040161571f565b600060405180830381600087803b158015610c7b57600080fd5b505af1158015610c8f573d6000803e3d6000fd5b50505050806009600084815260200190815260200160002081905550604051806101800160405280600081526020016000815260200160008152602001600081526020016000815260200160008152602001600081526020016000815260200160008152602001600081526020016000815260200160006003811115610d2557634e487b7160e01b600052602160045260246000fd5b815250600e6000898152602001908152602001600020600082015181600001556020820151816001015560408201518160020155606082015181600301556080820151816004015560a0820151816005015560c0820151816006015560e082015181600701556101008201518160080155610120820151816009015561014082015181600a015561016082015181600b0160006101000a81548160ff02191690836003811115610de557634e487b7160e01b600052602160045260246000fd5b021790555090505060405180610180016040528083815260200169021e19e0c9bab2400000815260200160008152602001600081526020016000815260200160008152602001600081526020016000815260200160008152602001600081526020016000815260200160026003811115610e6f57634e487b7160e01b600052602160045260246000fd5b815250600e6000838152602001908152602001600020600082015181600001556020820151816001015560408201518160020155606082015181600301556080820151816004015560a0820151816005015560c0820151816006015560e082015181600701556101008201518160080155610120820151816009015561014082015181600a015561016082015181600b0160006101000a81548160ff02191690836003811115610f2f57634e487b7160e01b600052602160045260246000fd5b021790555050604080518381526001600160a01b03891660208201527fae0df3ed3f99b751fb0a740538790a748856958d5737ad5ae138454ed7e053e492500160405180910390a150505050505050565b7fe87beaa2684453d25a1f0e3e7002e109b34fc4f132f115c9a7707901e7927513610fab81336141af565b600080600a60009054906101000a90046001600160a01b03166001600160a01b031663b94d25ce6040518163ffffffff1660e01b815260040160206040518083038186803b158015610ffc57600080fd5b505afa158015611010573d6000803e3d6000fd5b505050506040513d601f19601f8201168201806040525081019061103491906152a7565b90506000600a60009054906101000a90046001600160a01b03166001600160a01b0316631861779d6040518163ffffffff1660e01b815260040160206040518083038186803b15801561108657600080fd5b505afa15801561109a573d6000803e3d6000fd5b505050506040513d601f19601f820116820180604052508101906110be91906152a7565b6000868152600860209081526040808320815160608101835281548082526001928301546001600160401b03811683870152600160401b90046001600160a01b0316828501528552600e9093529220918201549293509180851115611121578094505b8484111561112d578493505b886111cf57848260010160008282546111469190615967565b909155505060208301516001600160401b03168914611167578495506111a7565b6111718486615967565b600089815260086020526040902060010154600c549197506111a7916001600160a01b0390811691600160401b90041686614213565b85156111ca57601354600c546111ca916001600160a01b03918216911688614213565b6112b5565b848260010160008282546111e39190615910565b909155505060208301516001600160401b0316891461120457849550611244565b61120e8486615967565b600089815260086020526040902060010154600c54919750611244916001600160a01b0390811691600160401b90041686614213565b85156112b557600c546013546040516311c9479960e21b81526001600160a01b03928316926347251e64926112829291169030908b906004016156e2565b600060405180830381600087803b15801561129c57600080fd5b505af11580156112b0573d6000803e3d6000fd5b505050505b600182015461131b576004805484516040516316bfb45760e11b8152928301526001600160a01b031690632d7f68ae90602401600060405180830381600087803b15801561130257600080fd5b505af1158015611316573d6000803e3d6000fd5b505050505b8251602080850151604080516001600160401b0390921682529181018c90528a917f10c2415cd62b00f83e15c907a08b12444e71bcc1645322f97a631df735fe49e3910160405180910390a3505050505050505050565b600c54604080516324dead2f60e11b815290516000926001600160a01b0316916349bd5a5e916004808301926020929190829003018186803b1580156113b757600080fd5b505afa1580156113cb573d6000803e3d6000fd5b505050506040513d601f19601f820116820180604052508101906113ef9190615108565b905090565b6000828152600e6020526040902061140b83612c1d565b156114315760405162461bcd60e51b815260040161142890615785565b60405180910390fd5b6012546040516331a9108f60e11b81526004810185905233916001600160a01b031690636352211e9060240160206040518083038186803b15801561147557600080fd5b505afa158015611489573d6000803e3d6000fd5b505050506040513d601f19601f820116820180604052508101906114ad9190615108565b6001600160a01b0316146115035760405162461bcd60e51b815260206004820152601760248201527f4f6e6c79206f776e65722063616e2077697468647261770000000000000000006044820152606401611428565b806001015482111561154c5760405162461bcd60e51b81526020600482015260126024820152714e6f7420656e6f7567682062616c616e636560701b6044820152606401611428565b818160010160008282546115609190615967565b9091555050600c5460405163a9059cbb60e01b81526001600160a01b039091169063a9059cbb906115979033908690600401615706565b602060405180830381600087803b1580156115b157600080fd5b505af11580156115c5573d6000803e3d6000fd5b505050506040513d601f19601f820116820180604052508101906115e99190615273565b50600181015461165157600480546040516316bfb45760e11b81529182018590526001600160a01b031690632d7f68ae906024015b600060405180830381600087803b15801561163857600080fd5b505af115801561164c573d6000803e3d6000fd5b505050505b505050565b6000828152600e6020526040902061166d83613d9b565b6116b95760405162461bcd60e51b815260206004820152601760248201527f466c6970206973206e6f7420616c6c6f776564207965740000000000000000006044820152606401611428565b6116c283612c1d565b156116df5760405162461bcd60e51b815260040161142890615785565b42816007018190555060007f00000000000000000000000000000000000000000000000000000000000000006001600160a01b031663dbdff2c16040518163ffffffff1660e01b8152600401602060405180830381600087803b15801561174557600080fd5b505af1158015611759573d6000803e3d6000fd5b505050506040513d601f19601f8201168201806040525081019061177d91906152a7565b604080516060810182528681526001600160401b038681166020808401828152338587018181526000898152600885528890209651875591516001909601805492516001600160a01b0316600160401b026001600160e01b031990931696909516959095171790925592519283529293508692909184917ff3430182a8f4149cb1910574795295555b8119134718716b9f3e5024189a64a5910160405180910390a450505050565b6000818152600e60205260408120600381015460028201546118479190615967565b9392505050565b60008281526020819052604090206001015461186a81336141af565b6116518383614269565b6001600160a01b03811633146118e45760405162461bcd60e51b815260206004820152602f60248201527f416363657373436f6e74726f6c3a2063616e206f6e6c792072656e6f756e636560448201526e103937b632b9903337b91039b2b63360891b6064820152608401611428565b6118ee82826142ed565b5050565b600080516020615a3183398151915261190b81336141af565b50600680546001600160a01b0319166001600160a01b0392909216919091179055565b600060026000838152600e60205260409020600b015460ff16600381111561196657634e487b7160e01b600052602160045260246000fd5b1492915050565b60125460405163c87b56dd60e01b8152600481018390526060916001600160a01b03169063c87b56dd9060240160006040518083038186803b1580156119b257600080fd5b505afa1580156119c6573d6000803e3d6000fd5b505050506040513d6000823e601f3d908101601f19168201604052610afe91908101906153b7565b6000828152600e6020526040908190206012549151634f558e7960e01b81526004810185905290916001600160a01b031690634f558e799060240160206040518083038186803b158015611a4157600080fd5b505afa158015611a55573d6000803e3d6000fd5b505050506040513d601f19601f82011682018060405250810190611a799190615273565b611abc5760405162461bcd60e51b8152602060048201526014602482015273151bdad95b881b9bdd081c9959da5cdd195c995960621b6044820152606401611428565b60405163d52cb9cb60e01b8152600481018290526024810183905260009073__$56fc4e5f3f11a8c61fa94696167f06073e$__9063d52cb9cb9060440160206040518083038186803b158015611b1157600080fd5b505af4158015611b25573d6000803e3d6000fd5b505050506040513d601f19601f82011682018060405250810190611b4991906152a7565b600d546040516323b872dd60e01b81529192506001600160a01b0316906323b872dd90611b7e903390309086906004016156e2565b602060405180830381600087803b158015611b9857600080fd5b505af1158015611bac573d6000803e3d6000fd5b505050506040513d601f19601f82011682018060405250810190611bd09190615273565b50600c5460405163a9059cbb60e01b81526001600160a01b039091169063a9059cbb90611c039033908790600401615706565b602060405180830381600087803b158015611c1d57600080fd5b505af1158015611c31573d6000803e3d6000fd5b505050506040513d601f19601f82011682018060405250810190611c559190615273565b5050505050565b6007546000828152600e6020526040902060038101546001600160a01b0390921691611cbf5760405162461bcd60e51b8152602060048201526012602482015271736f6c64537570706c79206973207a65726f60701b6044820152606401611428565b6004808201546005830154600c5460075460405163095ea7b360e01b8152939492936001600160a01b039283169363095ea7b393611d01931691879101615706565b602060405180830381600087803b158015611d1b57600080fd5b505af1158015611d2f573d6000803e3d6000fd5b505050506040513d601f19601f82011682018060405250810190611d539190615273565b50600d5460075460405163095ea7b360e01b81526001600160a01b039283169263095ea7b392611d8a929116908590600401615706565b602060405180830381600087803b158015611da457600080fd5b505af1158015611db8573d6000803e3d6000fd5b505050506040513d601f19601f82011682018060405250810190611ddc9190615273565b50600c54600d5460405162e8e33760e81b81526001600160a01b0392831660048201529082166024820152604481018490526064810183905260006084820181905260a482018190523060c48301524260e4830152918291829188169063e8e337009061010401606060405180830381600087803b158015611e5d57600080fd5b505af1158015611e71573d6000803e3d6000fd5b505050506040513d601f19601f82011682018060405250810190611e95919061555f565b92509250925083821015611f9a576000611eaf8386615967565b600d5460065460405163095ea7b360e01b81529293506001600160a01b039182169263095ea7b392611ee79216908590600401615706565b602060405180830381600087803b158015611f0157600080fd5b505af1158015611f15573d6000803e3d6000fd5b505050506040513d601f19601f82011682018060405250810190611f399190615273565b506006546040516328e32c8560e11b8152600481018390526001600160a01b03909116906351c6590a90602401600060405180830381600087803b158015611f8057600080fd5b505af1158015611f94573d6000803e3d6000fd5b50505050505b82866004016000828254611fae9190615967565b9250508190555083866005016000828254611fc99190615967565b9250508190555082866002016000828254611fe49190615967565b9250508190555083866003016000828254611fff9190615967565b925050819055508086600801600082825461201a9190615910565b92505081905550828660090160008282546120359190615910565b925050819055508186600a0160008282546120509190615910565b90915550505050505050505050565b600080600061206d84612c1d565b1561208a5760405162461bcd60e51b815260040161142890615785565b60008061209686612f9e565b915091506120a48282614352565b989097509095509350505050565b6000828152600e602052604090206002600b82015460ff1660038111156120e957634e487b7160e01b600052602160045260246000fd5b14156121425760405162461bcd60e51b815260206004820152602260248201527f43616e2774206368616e6765206d657461646174612061667465722076657269604482015261667960f01b6064820152608401611428565b6001600b82015460ff16600381111561216b57634e487b7160e01b600052602160045260246000fd5b14156121c75760405162461bcd60e51b815260206004820152602560248201527f43616e2774206368616e6765206d65746164617461207768696c6520766572696044820152646679696e6760d81b6064820152608401611428565b6012546040516331a9108f60e11b8152600481018590526000916001600160a01b031690636352211e9060240160206040518083038186803b15801561220c57600080fd5b505afa158015612220573d6000803e3d6000fd5b505050506040513d601f19601f820116820180604052508101906122449190615108565b9050336001600160a01b038216146122a85760405162461bcd60e51b815260206004820152602160248201527f596f7520617265206e6f7420746865206f776e6572206f6620746865204e46546044820152602160f81b6064820152608401611428565b60125460405163593aa28360e01b81526001600160a01b039091169063593aa283906122da908790879060040161581f565b600060405180830381600087803b1580156122f457600080fd5b505af1158015612308573d6000803e3d6000fd5b5050505050505050565b6000828152600e60205260409020600101548111156123735760405162461bcd60e51b815260206004820152601f60248201527f45786368616e676520616d6f756e7420657863656564732062616c616e6365006044820152606401611428565b6007546040805160028082526060820183526001600160a01b03909316926000926020830190803683375050600c5482519293506001600160a01b0316918391506000906123d157634e487b7160e01b600052603260045260246000fd5b6001600160a01b039283166020918202929092010152600d5482519116908290600190811061241057634e487b7160e01b600052603260045260246000fd5b6001600160a01b039092166020928302919091018201526000858152600e909152604081206001018054859290612448908490615967565b90915550506000848152600e60205260409020600101546124c057600480546040516316bfb45760e11b81529182018690526001600160a01b031690632d7f68ae90602401600060405180830381600087803b1580156124a757600080fd5b505af11580156124bb573d6000803e3d6000fd5b505050505b6040516338ed173960e01b81526001600160a01b038316906338ed1739906124f59086906000908690339042906004016157af565b600060405180830381600087803b15801561250f57600080fd5b505af1158015612523573d6000803e3d6000fd5b505050506040513d6000823e601f3d908101601f19168201604052611c5591908101906151cc565b6000600080516020615a3183398151915261256681336141af565b600087815260096020526040902054156125c25760405162461bcd60e51b815260206004820181905260248201527f53796e746865746963204e465420616c72656164792067656e657261746564216044820152606401611428565b60025491506125d5600280546001019055565b601254604051633349e71f60e21b81526001600160a01b039091169063cd279c7c906126099087908690889060040161571f565b600060405180830381600087803b15801561262357600080fd5b505af1158015612637573d6000803e3d6000fd5b5050600c546040516340c10f1960e01b81526001600160a01b0390911692506340c10f19915061267790309069021e19e0c9bab240000090600401615706565b600060405180830381600087803b15801561269157600080fd5b505af11580156126a5573d6000803e3d6000fd5b50505050600060028769021e19e0c9bab24000006126c39190615967565b6126cd9190615928565b9050600060026126e78969021e19e0c9bab2400000615967565b6126f19190615928565b905060006040518061018001604052808b81526020018a81526020018481526020016000815260200183815260200160008152602001898152602001600081526020016000815260200160008152602001600081526020016000600381111561276a57634e487b7160e01b600052602160045260246000fd5b815250905080600e6000878152602001908152602001600020600082015181600001556020820151816001015560408201518160020155606082015181600301556080820151816004015560a0820151816005015560c0820151816006015560e082015181600701556101008201518160080155610120820151816009015561014082015181600a015561016082015181600b0160006101000a81548160ff0219169083600381111561282d57634e487b7160e01b600052602160045260246000fd5b021790555050508861289657600480546040516316bfb45760e11b81529182018790526001600160a01b031690632d7f68ae90602401600060405180830381600087803b15801561287d57600080fd5b505af1158015612891573d6000803e3d6000fd5b505050505b5050505095945050505050565b7f747c8a75243ae2ca1d188aaaeab610daf9d97e45b6513baed451ebf0b9ec74fd6128ce81336141af565b6040808401516000908152600e6020522082156128f957600b8101805460ff19166002179055612930565b6060840151600b8201805460ff1916600183600381111561292a57634e487b7160e01b600052602160045260246000fd5b02179055505b835160208086015160408088015181516001600160a01b039586168152949092169284019290925290820152831515606082015285907fcf5cb568c779c24ae423fed9236ba737105872c7e0b13ebb2fd578233747825a9060800160405180910390a25050505050565b600080516020615a318339815191526129b381336141af565b6000858152600e602052604090206001810154612a055760405162461bcd60e51b815260206004820152601060248201526f10d85b89dd0818994818da185b99d95960821b6044820152606401611428565b6002600b82015460ff166003811115612a2e57634e487b7160e01b600052602160045260246000fd5b14612a705760405162461bcd60e51b8152602060048201526012602482015271151bdad95b881b9bdd081d995c9a599a595960721b6044820152606401611428565b6012546040516331a9108f60e11b8152600481018890526001600160a01b03858116921690636352211e9060240160206040518083038186803b158015612ab657600080fd5b505afa158015612aca573d6000803e3d6000fd5b505050506040513d601f19601f82011682018060405250810190612aee9190615108565b6001600160a01b031614612b355760405162461bcd60e51b815260206004820152600e60248201526d14da1bdd5b19081bdddb8813919560921b6044820152606401611428565b8054600090815260106020526040812080549091600191839190612b5a908490615910565b9091555050600181018690556002810180546001600160a01b038681166001600160a01b031990921691909117909155600b8301805460ff19166003179055825460009081526009602052604080822082905588855588825290819020899055601254905163593aa28360e01b815291169063593aa28390612be2908a90899060040161581f565b600060405180830381600087803b158015612bfc57600080fd5b505af1158015612c10573d6000803e3d6000fd5b5050505050505050505050565b6000818152600e602052604081206002600b82015460ff166003811115612c5457634e487b7160e01b600052602160045260246000fd5b1415806118475750600101541592915050565b6012546040516331a9108f60e11b81526004810183905233916001600160a01b031690636352211e9060240160206040518083038186803b158015612cab57600080fd5b505afa158015612cbf573d6000803e3d6000fd5b505050506040513d601f19601f82011682018060405250810190612ce39190615108565b6001600160a01b031614612d095760405162461bcd60e51b815260040161142890615759565b612d1281612c1d565b15612d2f5760405162461bcd60e51b815260040161142890615785565b612d388161448b565b612d4181614840565b50565b6000818152600e6020526040908190206012549151634f558e7960e01b81526004810184905290916001600160a01b031690634f558e799060240160206040518083038186803b158015612d9757600080fd5b505afa158015612dab573d6000803e3d6000fd5b505050506040513d601f19601f82011682018060405250810190612dcf9190615273565b612e125760405162461bcd60e51b8152602060048201526014602482015273151bdad95b881b9bdd081c9959da5cdd195c995960621b6044820152606401611428565b6002600b82015460ff166003811115612e3b57634e487b7160e01b600052602160045260246000fd5b1415612e825760405162461bcd60e51b8152602060048201526016602482015275151bdad95b88185b1c9958591e481d995c9a599a595960521b6044820152606401611428565b600b818101805460ff19166001908117909155905482546000908152600f602090815260408083205481516345b0ce7560e11b81526001600160a01b03958616600482015260248101899052604481019690965260648601525191937f000000000000000000000000000000000000000000000000000000000000000090931692638b619cea926084808301939282900301818787803b158015612f2557600080fd5b505af1158015612f39573d6000803e3d6000fd5b505050506040513d601f19601f82011682018060405250810190612f5d91906152a7565b9050807faf92676e6ce91b92427009a49e22fa6d354ed418db8d0965bca4232dcf3e658f3385604051612f91929190615706565b60405180910390a2505050565b6000818152600e60209081526040808320600c5482516324dead2f60e11b815292518594929385936001600160a01b03909316926349bd5a5e92600480840193829003018186803b158015612ff257600080fd5b505afa158015613006573d6000803e3d6000fd5b505050506040513d601f19601f8201168201806040525081019061302a9190615108565b9050600082600801549050600080836001600160a01b0316630902f1ac6040518163ffffffff1660e01b815260040160606040518083038186803b15801561307157600080fd5b505afa158015613085573d6000803e3d6000fd5b505050506040513d601f19601f820116820180604052508101906130a99190615429565b50915091506000846001600160a01b03166318160ddd6040518163ffffffff1660e01b815260040160206040518083038186803b1580156130e957600080fd5b505afa1580156130fd573d6000803e3d6000fd5b505050506040513d601f19601f8201168201806040525081019061312191906152a7565b905060008115613170578161313f6001600160701b03861687615948565b6131499190615928565b90508161315f6001600160701b03851687615948565b6131699190615928565b975061317d565b826001600160701b031697505b808760040154886002015489600101546131979190615910565b6131a19190615910565b6131ab9190615910565b985050505050505050915091565b6000828152600e60205260409081902060125491516331a9108f60e11b815260048101859052909133916001600160a01b0390911690636352211e9060240160206040518083038186803b15801561321057600080fd5b505afa158015613224573d6000803e3d6000fd5b505050506040513d601f19601f820116820180604052508101906132489190615108565b6001600160a01b0316146132975760405162461bcd60e51b815260206004820152601660248201527513db9b1e481bdddb995c8818d85b8819195c1bdcda5d60521b6044820152606401611428565b604051630654881960e51b8152600481018290526024810183905273__$56fc4e5f3f11a8c61fa94696167f06073e$__9063ca9103209060440160006040518083038186803b1580156132e957600080fd5b505af41580156132fd573d6000803e3d6000fd5b5050600c546040516323b872dd60e01b81526001600160a01b0390911692506323b872dd9150613335903390309087906004016156e2565b602060405180830381600087803b15801561334f57600080fd5b505af1158015613363573d6000803e3d6000fd5b505050506040513d601f19601f820116820180604052508101906133879190615273565b50505050565b6000828152600e60205260409081902060125491516331a9108f60e11b815260048101859052909133916001600160a01b0390911690636352211e9060240160206040518083038186803b1580156133e457600080fd5b505afa1580156133f8573d6000803e3d6000fd5b505050506040513d601f19601f8201168201806040525081019061341c9190615108565b6001600160a01b0316146134425760405162461bcd60e51b815260040161142890615759565b604051630451aa3960e11b8152600481018290526024810183905273__$56fc4e5f3f11a8c61fa94696167f06073e$__906308a35472906044015b60006040518083038186803b15801561349557600080fd5b505af415801561164c573d6000803e3d6000fd5b600154610100900460ff16806134c2575060015460ff16155b6135255760405162461bcd60e51b815260206004820152602e60248201527f496e697469616c697a61626c653a20636f6e747261637420697320616c72656160448201526d191e481a5b9a5d1a585b1a5e995960921b6064820152608401611428565b600154610100900460ff16158015613547576001805461ffff19166101011790555b600c80546001600160a01b03199081166001600160a01b038c8116919091179092556012805482168a8416179055600b805482168b84161790556005805433908316179055600480548216898416178155600a80548316898516908117909155601380548416898616179055601480548416888616179055670de0b6b3a7640000600355600780549093169386169390931790915560408051632629c7ef60e11b81529051634c538fde92828101926020929190829003018186803b15801561360f57600080fd5b505afa158015613623573d6000803e3d6000fd5b505050506040513d601f19601f820116820180604052508101906136479190615108565b600d80546001600160a01b0319166001600160a01b0392909216919091179055613672600033614917565b61368a600080516020615a3183398151915233614917565b6136a2600080516020615a1183398151915287614917565b80156136b4576001805461ff00191690555b505050505050505050565b6000828152600e602052604081206006015481906136dd9084615948565b949350505050565b6000918252602082815260408084206001600160a01b0393909316845291905290205460ff1690565b6012546040516331a9108f60e11b8152600481018490526000916001600160a01b031690636352211e9060240160206040518083038186803b15801561375357600080fd5b505afa158015613767573d6000803e3d6000fd5b505050506040513d601f19601f8201168201806040525081019061378b9190615108565b9050336001600160a01b038216146137dd5760405162461bcd60e51b81526020600482015260156024820152742cb7ba9030b932903737ba103a34329037bbb732b960591b6044820152606401611428565b6000838152600e60205260409020600801548083111561383f5760405162461bcd60e51b815260206004820152601e60248201527f4e6f7420656e6f756768206c697175696469747920617661696c61626c6500006044820152606401611428565b6000613849611372565b905083600e600087815260200190815260200160002060080160008282546138719190615967565b909155505060405163a9059cbb60e01b81526001600160a01b0382169063a9059cbb906138a49033908890600401615706565b602060405180830381600087803b1580156138be57600080fd5b505af11580156138d2573d6000803e3d6000fd5b505050506040513d601f19601f820116820180604052508101906138f69190615273565b505050505050565b6000828152600e60205260409081902060125491516331a9108f60e11b815260048101859052909133916001600160a01b0390911690636352211e9060240160206040518083038186803b15801561395557600080fd5b505afa158015613969573d6000803e3d6000fd5b505050506040513d601f19601f8201168201806040525081019061398d9190615108565b6001600160a01b0316146139b35760405162461bcd60e51b815260040161142890615759565b604051630c66c75560e21b8152600481018290526024810183905273__$56fc4e5f3f11a8c61fa94696167f06073e$__9063319b1d549060440161347d565b6012546040516331a9108f60e11b8152600481018390526000916001600160a01b031690636352211e9060240160206040518083038186803b158015613a3757600080fd5b505afa158015613a4b573d6000803e3d6000fd5b505050506040513d601f19601f82011682018060405250810190610afe9190615108565b60048054604051637b5f398960e01b81529182018390526001600160a01b031690637b5f39899060240160206040518083038186803b158015613ab157600080fd5b505afa158015613ac5573d6000803e3d6000fd5b505050506040513d601f19601f82011682018060405250810190613ae99190615273565b613b355760405162461bcd60e51b815260206004820152601860248201527f546f6b656e206973206e6f74207265636f76657261626c6500000000000000006044820152606401611428565b6012546040516331a9108f60e11b81526004810183905233916001600160a01b031690636352211e9060240160206040518083038186803b158015613b7957600080fd5b505afa158015613b8d573d6000803e3d6000fd5b505050506040513d601f19601f82011682018060405250810190613bb19190615108565b6001600160a01b031614613bd75760405162461bcd60e51b815260040161142890615759565b600c54613bf9906001600160a01b0316333069021e19e0c9bab2400000614921565b6000818152600e60205260409081902069021e19e0c9bab2400000600190910155600480549151630532ab5d60e11b81529081018390526001600160a01b0390911690630a6556ba906024015b600060405180830381600087803b158015613c6057600080fd5b505af1158015611c55573d6000803e3d6000fd5b600080516020615a11833981519152613c8d81336141af565b6012546040516331a9108f60e11b8152600481018490526000916001600160a01b031690636352211e9060240160206040518083038186803b158015613cd257600080fd5b505afa158015613ce6573d6000803e3d6000fd5b505050506040513d601f19601f82011682018060405250810190613d0a9190615108565b9050600080613d1885614942565b6000878152600e6020526040812060010180549395509193508492613d3e908490615910565b9091555050600d5460405163a9059cbb60e01b81526001600160a01b039091169063a9059cbb906138a49086908590600401615706565b600082815260208190526040902060010154613d9181336141af565b61165183836142ed565b601254604051634f558e7960e01b8152600481018390526000916001600160a01b031690634f558e799060240160206040518083038186803b158015613de057600080fd5b505afa158015613df4573d6000803e3d6000fd5b505050506040513d601f19601f82011682018060405250810190613e189190615273565b8015613ec45750600a60009054906101000a90046001600160a01b03166001600160a01b031663766873326040518163ffffffff1660e01b815260040160206040518083038186803b158015613e6d57600080fd5b505afa158015613e81573d6000803e3d6000fd5b505050506040513d601f19601f82011682018060405250810190613ea591906152a7565b6000838152600e6020526040902060070154613ec19042615967565b10155b8015613fd25750600a60009054906101000a90046001600160a01b03166001600160a01b031663b94d25ce6040518163ffffffff1660e01b815260040160206040518083038186803b158015613f1957600080fd5b505afa158015613f2d573d6000803e3d6000fd5b505050506040513d601f19601f82011682018060405250810190613f5191906152a7565b600c546013546040516370a0823160e01b81526001600160a01b0391821660048201529116906370a082319060240160206040518083038186803b158015613f9857600080fd5b505afa158015613fac573d6000803e3d6000fd5b505050506040513d601f19601f82011682018060405250810190613fd091906152a7565b115b8015610afe57506000828152600e60205260409020541515610afe565b6000828152600e60205260409081902060125491516331a9108f60e11b815260048101859052909133916001600160a01b0390911690636352211e9060240160206040518083038186803b15801561404657600080fd5b505afa15801561405a573d6000803e3d6000fd5b505050506040513d601f19601f8201168201806040525081019061407e9190615108565b6001600160a01b0316146140d45760405162461bcd60e51b815260206004820152601760248201527f4f6e6c79206f776e65722063616e20696e6372656173650000000000000000006044820152606401611428565b604051633e8626f560e11b8152600481018290526024810183905273__$56fc4e5f3f11a8c61fa94696167f06073e$__90637d0c4dea9060440160006040518083038186803b15801561412657600080fd5b505af415801561413a573d6000803e3d6000fd5b5050505080600101546000141561165157600480546040516316bfb45760e11b81529182018590526001600160a01b031690632d7f68ae9060240161161e565b60006001600160e01b03198216637965db0b60e01b1480610afe57506301ffc9a760e01b6001600160e01b0319831614610afe565b6141b982826136e5565b6118ee576141d1816001600160a01b03166014614c85565b6141dc836020614c85565b6040516020016141ed92919061566d565b60408051601f198184030181529082905262461bcd60e51b825261142891600401615746565b6116518363a9059cbb60e01b8484604051602401614232929190615706565b60408051601f198184030181529190526020810180516001600160e01b03166001600160e01b031990931692909217909152614e66565b61427382826136e5565b6118ee576000828152602081815260408083206001600160a01b03851684529091529020805460ff191660011790556142a93390565b6001600160a01b0316816001600160a01b0316837f2f8788117e7eff1d82e926ec794901d17c78024a50270940304540a733656f0d60405160405180910390a45050565b6142f782826136e5565b156118ee576000828152602081815260408083206001600160a01b0385168085529252808320805460ff1916905551339285917ff6391f5c32d9c69d2a47ea670b442974b53935d1edc7fd64eb21e047a839171b9190a45050565b6000818169021e19e0c9bab24000008511156143865750600061437f69021e19e0c9bab240000086615967565b9250614484565b811561444c576000670de0b6b3a7640000600354846143a59190615948565b6143af9190615928565b905069021e19e0c9bab24000006143c68783615910565b11156144205760006143e269021e19e0c9bab240000088615967565b90506000670de0b6b3a7640000600354836143fd9190615948565b6144079190615928565b90506144138186615967565b9450600093505050614446565b806144358769021e19e0c9bab2400000615967565b61443f9190615967565b9150600092505b50614484565b600354670de0b6b3a76400009061446d8769021e19e0c9bab2400000615967565b6144779190615948565b6144819190615928565b90505b9250925092565b6000818152600e6020526040812090806144a484614942565b915091506000828460040154856002015486600101546144c49190615910565b6144ce9190615910565b6144d89190615910565b905060008060006144e98486614352565b925092509250600069021e19e0c9bab240000085106145125769021e19e0c9bab2400000614514565b845b600c54604051630852cd8d60e31b8152600481018390529192506001600160a01b0316906342966c6890602401600060405180830381600087803b15801561455b57600080fd5b505af115801561456f573d6000803e3d6000fd5b50505050600082111561471e57600c546014546001600160a01b0391821691633950935191166145a98469021e19e0c9bab2400000615967565b6040518363ffffffff1660e01b81526004016145c6929190615706565b602060405180830381600087803b1580156145e057600080fd5b505af11580156145f4573d6000803e3d6000fd5b505050506040513d601f19601f820116820180604052508101906146189190615273565b506014546003546001600160a01b0390911690635ff44eb990849061463d9082615928565b6040516001600160e01b031960e085901b16815260048101929092526024820152604401600060405180830381600087803b15801561467b57600080fd5b505af115801561468f573d6000803e3d6000fd5b5050600d546014546040516323b872dd60e01b81526001600160a01b0392831694506323b872dd93506146ca923392169087906004016156e2565b602060405180830381600087803b1580156146e457600080fd5b505af11580156146f8573d6000803e3d6000fd5b505050506040513d601f19601f8201168201806040525081019061471c9190615273565b505b82156147aa57600d5460405163a9059cbb60e01b81526001600160a01b039091169063a9059cbb906147569033908790600401615706565b602060405180830381600087803b15801561477057600080fd5b505af1158015614784573d6000803e3d6000fd5b505050506040513d601f19601f820116820180604052508101906147a89190615273565b505b83156136b457600c5460405163a9059cbb60e01b81526001600160a01b039091169063a9059cbb906147e29033908890600401615706565b602060405180830381600087803b1580156147fc57600080fd5b505af1158015614810573d6000803e3d6000fd5b505050506040513d601f19601f820116820180604052508101906148349190615273565b50505050505050505050565b6000818152600e6020908152604080832080548452600f83528184205485855260118452828520818652909352922080546001600160a01b0319163317905561488a816001615910565b82546000908152600f60205260409020556148a483614f38565b50546000908152600960208181526040808420849055938352600e90529181208181556001810182905560028101829055600381018290556004810182905560058101829055600681018290556007810182905560088101829055918201819055600a820155600b01805460ff19169055565b6118ee8282614269565b613387846323b872dd60e01b858585604051602401614232939291906156e2565b6000818152600e60209081526040808320600c5482516324dead2f60e11b815292518594929385936001600160a01b03909316926349bd5a5e92600480840193829003018186803b15801561499657600080fd5b505afa1580156149aa573d6000803e3d6000fd5b505050506040513d601f19601f820116820180604052508101906149ce9190615108565b6009830154600a840154600885015492935090918015806149ed575082155b806149f6575081155b15614a0b575060009788975095505050505050565b60075460405163095ea7b360e01b81526001600160a01b038681169263095ea7b392614a3f92909116908590600401615706565b602060405180830381600087803b158015614a5957600080fd5b505af1158015614a6d573d6000803e3d6000fd5b505050506040513d601f19601f82011682018060405250810190614a919190615273565b506000806000866001600160a01b0316630902f1ac6040518163ffffffff1660e01b815260040160606040518083038186803b158015614ad057600080fd5b505afa158015614ae4573d6000803e3d6000fd5b505050506040513d601f19601f82011682018060405250810190614b089190615429565b919450925090506001600160701b038316861115614b2d57826001600160701b031695505b816001600160701b0316851115614b4b57816001600160701b031694505b6001600160701b0383161580614b6857506001600160701b038216155b15614b80575060009a8b9a5098505050505050505050565b600754600c54600d54604051635d5155ef60e11b81526001600160a01b03928316600482015290821660248201526044810187905260648101899052608481018890523060a48201524260c48201529116906000908190839063baa2abde9060e4016040805180830381600087803b158015614bfb57600080fd5b505af1158015614c0f573d6000803e3d6000fd5b505050506040513d601f19601f82011682018060405250810190614c3391906154dc565b60408051838152602081018390529294509092507f6f0f96292ae0038c04f9b6bab30f185d9ca02c471d0983f563f2a4f674aef137910160405180910390a1909d909c509a5050505050505050505050565b60606000614c94836002615948565b614c9f906002615910565b6001600160401b03811115614cc457634e487b7160e01b600052604160045260246000fd5b6040519080825280601f01601f191660200182016040528015614cee576020820181803683370190505b509050600360fc1b81600081518110614d1757634e487b7160e01b600052603260045260246000fd5b60200101906001600160f81b031916908160001a905350600f60fb1b81600181518110614d5457634e487b7160e01b600052603260045260246000fd5b60200101906001600160f81b031916908160001a9053506000614d78846002615948565b614d83906001615910565b90505b6001811115614e17576f181899199a1a9b1b9c1cb0b131b232b360811b85600f1660108110614dc557634e487b7160e01b600052603260045260246000fd5b1a60f81b828281518110614de957634e487b7160e01b600052603260045260246000fd5b60200101906001600160f81b031916908160001a90535060049490941c93614e10816159aa565b9050614d86565b5083156118475760405162461bcd60e51b815260206004820181905260248201527f537472696e67733a20686578206c656e67746820696e73756666696369656e746044820152606401611428565b6000614ebb826040518060400160405280602081526020017f5361666545524332303a206c6f772d6c6576656c2063616c6c206661696c6564815250856001600160a01b0316614f699092919063ffffffff16565b8051909150156116515780806020019051810190614ed99190615273565b6116515760405162461bcd60e51b815260206004820152602a60248201527f5361666545524332303a204552433230206f7065726174696f6e20646964206e6044820152691bdd081cdd58d8d9595960b21b6064820152608401611428565b60125460405163dbf5132560e01b8152600481018390526001600160a01b039091169063dbf5132590602401613c46565b60606136dd848460008585843b614fc25760405162461bcd60e51b815260206004820152601d60248201527f416464726573733a2063616c6c20746f206e6f6e2d636f6e74726163740000006044820152606401611428565b600080866001600160a01b03168587604051614fde9190615651565b60006040518083038185875af1925050503d806000811461501b576040519150601f19603f3d011682016040523d82523d6000602084013e615020565b606091505b509150915061503082828661503b565b979650505050505050565b6060831561504a575081611847565b82511561505a5782518084602001fd5b8160405162461bcd60e51b81526004016114289190615746565b803561507f81615a02565b919050565b600082601f830112615094578081fd5b81356150a76150a2826158e9565b6158b9565b8181528460208386010111156150bb578283fd5b816020850160208301379081016020019190915292915050565b80516001600160701b038116811461507f57600080fd5b6000602082840312156150fd578081fd5b8135611847816159ed565b600060208284031215615119578081fd5b8151611847816159ed565b600080600080600080600080610100898b031215615140578384fd5b883561514b816159ed565b9750602089013561515b816159ed565b9650604089013561516b816159ed565b9550606089013561517b816159ed565b9450608089013561518b816159ed565b935060a089013561519b816159ed565b925060c08901356151ab816159ed565b915060e08901356151bb816159ed565b809150509295985092959890939650565b600060208083850312156151de578182fd5b82516001600160401b03808211156151f4578384fd5b818501915085601f830112615207578384fd5b815181811115615219576152196159d7565b8060051b915061522a8483016158b9565b8181528481019084860184860187018a1015615244578788fd5b8795505b83861015615266578051835260019590950194918601918601615248565b5098975050505050505050565b600060208284031215615284578081fd5b815161184781615a02565b6000602082840312156152a0578081fd5b5035919050565b6000602082840312156152b8578081fd5b5051919050565b600080604083850312156152d1578182fd5b8235915060208301356152e3816159ed565b809150509250929050565b600080600083850360c0811215615303578182fd5b843593506080601f1982011215615318578182fd5b50604051608081018181106001600160401b038211171561533b5761533b6159d7565b604052602085013561534c816159ed565b8152604085013561535c816159ed565b60208201526060850135604082015260808501356004811061537c578283fd5b6060820152915061448160a08501615074565b6000602082840312156153a0578081fd5b81356001600160e01b031981168114611847578182fd5b6000602082840312156153c8578081fd5b81516001600160401b038111156153dd578182fd5b8201601f810184136153ed578182fd5b80516153fb6150a2826158e9565b81815285602083850101111561540f578384fd5b61542082602083016020860161597e565b95945050505050565b60008060006060848603121561543d578081fd5b615446846150d5565b9250615454602085016150d5565b9150604084015163ffffffff8116811461546c578182fd5b809150509250925092565b60008060408385031215615489578182fd5b50508035926020909101359150565b600080604083850312156154aa578182fd5b8235915060208301356001600160401b038111156154c6578182fd5b6154d285828601615084565b9150509250929050565b600080604083850312156154ee578182fd5b505080516020909101519092909150565b60008060008060808587031215615514578182fd5b843593506020850135925060408501356001600160401b03811115615537578283fd5b61554387828801615084565b9250506060850135615554816159ed565b939692955090935050565b600080600060608486031215615573578081fd5b8351925060208401519150604084015190509250925092565b600080600080600060a086880312156155a3578283fd5b85359450602086013593506040860135925060608601356155c3816159ed565b915060808601356001600160401b038111156155dd578182fd5b6155e988828901615084565b9150509295509295909350565b60008060408385031215615608578182fd5b8235915060208301356001600160401b03811681146152e3578182fd5b6000815180845261563d81602086016020860161597e565b601f01601f19169290920160200192915050565b6000825161566381846020870161597e565b9190910192915050565b7f416363657373436f6e74726f6c3a206163636f756e74200000000000000000008152600083516156a581601785016020880161597e565b7001034b99036b4b9b9b4b733903937b6329607d1b60179184019182015283516156d681602884016020880161597e565b01602801949350505050565b6001600160a01b039384168152919092166020820152604081019190915260600190565b6001600160a01b03929092168252602082015260400190565b60018060a01b03841681528260208201526060604082015260006154206060830184615625565b6020815260006118476020830184615625565b60208082526012908201527113db9b1e481bdddb995c88185b1b1bddd95960721b604082015260600190565b60208082526010908201526f546f6b656e206973206c6f636b65642160801b604082015260600190565b600060a082018783526020878185015260a0604085015281875180845260c0860191508289019350845b818110156157fe5784516001600160a01b0316835293830193918301916001016157d9565b50506001600160a01b03969096166060850152505050608001529392505050565b8281526040602082015260006136dd6040830184615625565b6000610180820190508d82528c60208301528b60408301528a60608301528960808301528860a08301528760c08301528660e0830152856101008301528461012083015283610140830152600483106158a157634e487b7160e01b600052602160045260246000fd5b826101608301529d9c50505050505050505050505050565b604051601f8201601f191681016001600160401b03811182821017156158e1576158e16159d7565b604052919050565b60006001600160401b03821115615902576159026159d7565b50601f01601f191660200190565b60008219821115615923576159236159c1565b500190565b60008261594357634e487b7160e01b81526012600452602481fd5b500490565b6000816000190483118215151615615962576159626159c1565b500290565b600082821015615979576159796159c1565b500390565b60005b83811015615999578181015183820152602001615981565b838111156133875750506000910152565b6000816159b9576159b96159c1565b506000190190565b634e487b7160e01b600052601160045260246000fd5b634e487b7160e01b600052604160045260246000fd5b6001600160a01b0381168114612d4157600080fd5b8015158114612d4157600080fdfec55a74c743a5d6aff6a82963adf054e2367242c4a636870f26b8ee90910968d0eb4fd9f47c063b511700e1c8e94e2fa4088ffca1fdcef1e60edf1beecd1b2e64a2646970667358221220c0a0fbdcb4e2b0afdcfa7562c554aee1e72ce485642f45593f87341579af78cb64736f6c63430008040033",
  "libraries": {
    "SyntheticTokenLibrary": "0x30512A759119e08597915f40957af28Ef13B90Bd"
  },
  "devdoc": {
    "author": "priviprotocol",
    "kind": "dev",
    "methods": {
      "buyJotTokens(uint256,uint256)": {
        "params": {
          "amountToBuy_": "the amount of jots to buy",
          "tokenId_": "the id of the synthetic nft"
        }
      },
      "constructor": {
        "details": "initializes some immutable variables and lock the implementation contract      for further initializations (with the initializer modifier)",
        "params": {
          "randomConsumerAddress_": "the address of the vrf Chainlink node",
          "validatorAddress_": "the address of the polygon validator Chainlink node"
        }
      },
      "decreaseSellingSupply(uint256,uint256)": {
        "details": "caller must be the owner of the NFT",
        "params": {
          "amount_": "the amount of jots to transfer to supply",
          "tokenId_": "the id of the synthetic nft"
        }
      },
      "depositJotTokens(uint256,uint256)": {
        "params": {
          "amountToDeposit_": "the amount of jots to deposit",
          "tokenId_": "the id of the synthetic nft"
        }
      },
      "getRoleAdmin(bytes32)": {
        "details": "Returns the admin role that controls `role`. See {grantRole} and {revokeRole}. To change a role's admin, use {_setRoleAdmin}."
      },
      "getSyntheticNFTOwner(uint256)": {
        "params": {
          "tokenId_": "the id of the NFT"
        }
      },
      "grantRole(bytes32,address)": {
        "details": "Grants `role` to `account`. If `account` had not been already granted `role`, emits a {RoleGranted} event. Requirements: - the caller must have ``role``'s admin role."
      },
      "hasRole(bytes32,address)": {
        "details": "Returns `true` if `account` has been granted `role`."
      },
      "increaseSellingSupply(uint256,uint256)": {
        "details": "caller must be the owner of the NFT",
        "params": {
          "amount_": "the amount of jots to transfer from supply",
          "tokenId_": "the id of the synthetic nft"
        }
      },
      "initialize(address,address,address,address,address,address,address,address)": {
        "details": "initialize the proxy contract",
        "params": {
          "auctionManagerAddress_": "the auctions manager fabric address",
          "erc721address_": "the address of the synthetic erc721 contract handled by this",
          "jotAddress_": "the address of the jot contract for this collection",
          "jotPool_": "the address of the corresponding jot pool",
          "originalCollectionAddress_": "the original collection address",
          "protocol_": "the address of the protocol parameters contract (governance parameters)",
          "redemptionPool_": "the address of the corresponding redemption pool",
          "swapAddress_": "the address of the uniswapV2Pair"
        }
      },
      "reassignNFT(uint256,address)": {
        "details": "allows the callback after finishing an auction to reassign the NFT to the winner",
        "params": {
          "newOwner_": "the winner of the auction account",
          "nftId_": "the id of the auctioned synthetic token"
        }
      },
      "register(uint256,uint256,uint256,address,string)": {
        "details": "through this the router can register tokens",
        "params": {
          "metadata_": "the metadata (the ipfs url) of the nft",
          "nftOwner_": "the owner of the synthetic nft",
          "priceFraction_": "the price fraction for buying",
          "supplyToKeep_": "the supply that the owner decides to keep",
          "tokenId_": "the original token id"
        },
        "returns": {
          "syntheticId": "the id of the newly registered token"
        }
      },
      "removeLiquidityFromPool(uint256)": {
        "details": "remove liquidity from pool only callable by AuctionsManager"
      },
      "renounceRole(bytes32,address)": {
        "details": "Revokes `role` from the calling account. Roles are often managed via {grantRole} and {revokeRole}: this function's purpose is to provide a mechanism for accounts to lose their privileges if they are compromised (such as when a trusted device is misplaced). If the calling account had been granted `role`, emits a {RoleRevoked} event. Requirements: - the caller must be `account`."
      },
      "revokeRole(bytes32,address)": {
        "details": "Revokes `role` from `account`. If `account` had been granted `role`, emits a {RoleRevoked} event. Requirements: - the caller must have ``role``'s admin role."
      },
      "supportsInterface(bytes4)": {
        "details": "See {IERC165-supportsInterface}."
      },
      "updatePriceFraction(uint256,uint256)": {
        "details": "caller must be the owner of the NFT",
        "params": {
          "newFractionPrice_": "the new value of the fraction price",
          "tokenId_": "the id of the synthetic nft"
        }
      }
    },
    "stateVariables": {
      "_flips": {
        "details": "mapping the request id from Chainlink with the flip input data"
      },
      "changeNonces": {
        "details": "nonce to count the changes of an original collection token id      in order to avoid double change (with the second one keeping the synthetic playing)"
      },
      "nonces": {
        "details": "the nonce to avoid double verification (quantity of exits for original token id)"
      }
    },
    "title": "synthetic collection abstraction contract",
    "version": 1
  },
  "userdoc": {
    "kind": "user",
    "methods": {
      "AUCTION_MANAGER()": {
        "notice": "role of the auctions manager fabric contract"
      },
      "RANDOM_ORACLE()": {
        "notice": "role of the vrf chainlink oracle"
      },
      "ROUTER()": {
        "notice": "role of the router contract"
      },
      "VALIDATOR_ORACLE()": {
        "notice": "role of the polygon validator chainlink oracle for verifications"
      },
      "addLiquidityToPool(uint256)": {
        "notice": "add available liquidity for a given token to UniSwap pool"
      },
      "auctionsManagerAddress()": {
        "notice": "the address of the auctions manager fabric contract"
      },
      "buyJotTokens(uint256,uint256)": {
        "notice": "allows the caller to buy jots using the funding token"
      },
      "buyback(uint256)": {
        "notice": "Buy token back. Caller needs to pre-approve a transaction worth the amount returned by the getRequiredFundingForBuyback(uint256 tokenId) function"
      },
      "change(uint256,uint256,string,address)": {
        "notice": "change an NFT for another one of the same collection"
      },
      "claimLiquidityTokens(uint256,uint256)": {
        "notice": "Claim Liquidity Tokens"
      },
      "decreaseSellingSupply(uint256,uint256)": {
        "notice": "decrease selling supply for a given NFT"
      },
      "depositJotTokens(uint256,uint256)": {
        "notice": "allows the caller to deposit jots"
      },
      "erc721address()": {
        "notice": "Synthetic NFT Address  for this collection"
      },
      "fundingTokenAddress()": {
        "notice": "funding token address"
      },
      "getAccruedReward(uint256)": {
        "notice": "returns the accrued reward by QuickSwap pool LP for a given fractionalization"
      },
      "getAvailableJotsForBuyback(uint256)": {
        "notice": "returns funds owned by token, in Jots and Funding, in contract and in UniSwap"
      },
      "getSyntheticNFTOwner(uint256)": {
        "notice": "get the owner of the NFT"
      },
      "increaseSellingSupply(uint256,uint256)": {
        "notice": "increase selling supply for a given NFT"
      },
      "isSyntheticNFTCreated(uint256)": {
        "notice": "public function. Checks if an NFT has been already fractionalized"
      },
      "isSyntheticNFTFractionalised(uint256)": {
        "notice": "public function. Checks if an NFT has been already fractionalised."
      },
      "jotAddress()": {
        "notice": "jot Address for this collection"
      },
      "originalCollectionAddress()": {
        "notice": "address of the original collection"
      },
      "poolAddress()": {
        "notice": "returns the Quickswap pool address"
      },
      "syntheticProtocolRouterAddress()": {
        "notice": "the address of the protocol router"
      },
      "tokens(uint256)": {
        "notice": "data for each token"
      },
      "updatePriceFraction(uint256,uint256)": {
        "notice": "update the price of a fraction for a given NFT"
      },
      "verify(uint256)": {
        "notice": "this method calls chainlink oracle and         verifies if the NFT has been locked on NFTVaultManager. In addition         gets the metadata of the NFT"
      }
    },
    "version": 1
  },
  "storageLayout": {
    "storage": [
      {
        "astId": 3872,
        "contract": "contracts/polygon/implementations/SyntheticCollectionManager.sol:SyntheticCollectionManager",
        "label": "_roles",
        "offset": 0,
        "slot": "0",
        "type": "t_mapping(t_bytes32,t_struct(RoleData)3867_storage)"
      },
      {
        "astId": 7665,
        "contract": "contracts/polygon/implementations/SyntheticCollectionManager.sol:SyntheticCollectionManager",
        "label": "_initialized",
        "offset": 0,
        "slot": "1",
        "type": "t_bool"
      },
      {
        "astId": 7668,
        "contract": "contracts/polygon/implementations/SyntheticCollectionManager.sol:SyntheticCollectionManager",
        "label": "_initializing",
        "offset": 1,
        "slot": "1",
        "type": "t_bool"
      },
      {
        "astId": 24325,
        "contract": "contracts/polygon/implementations/SyntheticCollectionManager.sol:SyntheticCollectionManager",
        "label": "tokenCounter",
        "offset": 0,
        "slot": "2",
        "type": "t_struct(Counter)10793_storage"
      },
      {
        "astId": 24327,
        "contract": "contracts/polygon/implementations/SyntheticCollectionManager.sol:SyntheticCollectionManager",
        "label": "buybackPrice",
        "offset": 0,
        "slot": "3",
        "type": "t_uint256"
      },
      {
        "astId": 24330,
        "contract": "contracts/polygon/implementations/SyntheticCollectionManager.sol:SyntheticCollectionManager",
        "label": "auctionsManagerAddress",
        "offset": 0,
        "slot": "4",
        "type": "t_address"
      },
      {
        "astId": 24333,
        "contract": "contracts/polygon/implementations/SyntheticCollectionManager.sol:SyntheticCollectionManager",
        "label": "syntheticProtocolRouterAddress",
        "offset": 0,
        "slot": "5",
        "type": "t_address"
      },
      {
        "astId": 24335,
        "contract": "contracts/polygon/implementations/SyntheticCollectionManager.sol:SyntheticCollectionManager",
        "label": "_perpetualPoolLiteAddress",
        "offset": 0,
        "slot": "6",
        "type": "t_address"
      },
      {
        "astId": 24337,
        "contract": "contracts/polygon/implementations/SyntheticCollectionManager.sol:SyntheticCollectionManager",
        "label": "_swapAddress",
        "offset": 0,
        "slot": "7",
        "type": "t_address"
      },
      {
        "astId": 24343,
        "contract": "contracts/polygon/implementations/SyntheticCollectionManager.sol:SyntheticCollectionManager",
        "label": "_flips",
        "offset": 0,
        "slot": "8",
        "type": "t_mapping(t_bytes32,t_struct(Flip)24244_storage)"
      },
      {
        "astId": 24347,
        "contract": "contracts/polygon/implementations/SyntheticCollectionManager.sol:SyntheticCollectionManager",
        "label": "_originalToSynthetic",
        "offset": 0,
        "slot": "9",
        "type": "t_mapping(t_uint256,t_uint256)"
      },
      {
        "astId": 24350,
        "contract": "contracts/polygon/implementations/SyntheticCollectionManager.sol:SyntheticCollectionManager",
        "label": "protocol",
        "offset": 0,
        "slot": "10",
        "type": "t_contract(ProtocolParameters)22992"
      },
      {
        "astId": 24353,
        "contract": "contracts/polygon/implementations/SyntheticCollectionManager.sol:SyntheticCollectionManager",
        "label": "originalCollectionAddress",
        "offset": 0,
        "slot": "11",
        "type": "t_address"
      },
      {
        "astId": 24356,
        "contract": "contracts/polygon/implementations/SyntheticCollectionManager.sol:SyntheticCollectionManager",
        "label": "jotAddress",
        "offset": 0,
        "slot": "12",
        "type": "t_address"
      },
      {
        "astId": 24359,
        "contract": "contracts/polygon/implementations/SyntheticCollectionManager.sol:SyntheticCollectionManager",
        "label": "fundingTokenAddress",
        "offset": 0,
        "slot": "13",
        "type": "t_address"
      },
      {
        "astId": 24365,
        "contract": "contracts/polygon/implementations/SyntheticCollectionManager.sol:SyntheticCollectionManager",
        "label": "tokens",
        "offset": 0,
        "slot": "14",
        "type": "t_mapping(t_uint256,t_struct(TokenData)24237_storage)"
      },
      {
        "astId": 24370,
        "contract": "contracts/polygon/implementations/SyntheticCollectionManager.sol:SyntheticCollectionManager",
        "label": "nonces",
        "offset": 0,
        "slot": "15",
        "type": "t_mapping(t_uint256,t_uint256)"
      },
      {
        "astId": 24376,
        "contract": "contracts/polygon/implementations/SyntheticCollectionManager.sol:SyntheticCollectionManager",
        "label": "changeNonces",
        "offset": 0,
        "slot": "16",
        "type": "t_mapping(t_uint256,t_struct(ChangeNonce)24251_storage)"
      },
      {
        "astId": 24382,
        "contract": "contracts/polygon/implementations/SyntheticCollectionManager.sol:SyntheticCollectionManager",
        "label": "ownersByNonce",
        "offset": 0,
        "slot": "17",
        "type": "t_mapping(t_uint256,t_mapping(t_uint256,t_address))"
      },
      {
        "astId": 24385,
        "contract": "contracts/polygon/implementations/SyntheticCollectionManager.sol:SyntheticCollectionManager",
        "label": "erc721address",
        "offset": 0,
        "slot": "18",
        "type": "t_address"
      },
      {
        "astId": 24387,
        "contract": "contracts/polygon/implementations/SyntheticCollectionManager.sol:SyntheticCollectionManager",
        "label": "jotPool",
        "offset": 0,
        "slot": "19",
        "type": "t_address"
      },
      {
        "astId": 24389,
        "contract": "contracts/polygon/implementations/SyntheticCollectionManager.sol:SyntheticCollectionManager",
        "label": "redemptionPool",
        "offset": 0,
        "slot": "20",
        "type": "t_address"
      }
    ],
    "types": {
      "t_address": {
        "encoding": "inplace",
        "label": "address",
        "numberOfBytes": "20"
      },
      "t_bool": {
        "encoding": "inplace",
        "label": "bool",
        "numberOfBytes": "1"
      },
      "t_bytes32": {
        "encoding": "inplace",
        "label": "bytes32",
        "numberOfBytes": "32"
      },
      "t_contract(ProtocolParameters)22992": {
        "encoding": "inplace",
        "label": "contract ProtocolParameters",
        "numberOfBytes": "20"
      },
      "t_enum(State)23019": {
        "encoding": "inplace",
        "label": "enum State",
        "numberOfBytes": "1"
      },
      "t_mapping(t_address,t_bool)": {
        "encoding": "mapping",
        "key": "t_address",
        "label": "mapping(address => bool)",
        "numberOfBytes": "32",
        "value": "t_bool"
      },
      "t_mapping(t_bytes32,t_struct(Flip)24244_storage)": {
        "encoding": "mapping",
        "key": "t_bytes32",
        "label": "mapping(bytes32 => struct Flip)",
        "numberOfBytes": "32",
        "value": "t_struct(Flip)24244_storage"
      },
      "t_mapping(t_bytes32,t_struct(RoleData)3867_storage)": {
        "encoding": "mapping",
        "key": "t_bytes32",
        "label": "mapping(bytes32 => struct AccessControl.RoleData)",
        "numberOfBytes": "32",
        "value": "t_struct(RoleData)3867_storage"
      },
      "t_mapping(t_uint256,t_address)": {
        "encoding": "mapping",
        "key": "t_uint256",
        "label": "mapping(uint256 => address)",
        "numberOfBytes": "32",
        "value": "t_address"
      },
      "t_mapping(t_uint256,t_mapping(t_uint256,t_address))": {
        "encoding": "mapping",
        "key": "t_uint256",
        "label": "mapping(uint256 => mapping(uint256 => address))",
        "numberOfBytes": "32",
        "value": "t_mapping(t_uint256,t_address)"
      },
      "t_mapping(t_uint256,t_struct(ChangeNonce)24251_storage)": {
        "encoding": "mapping",
        "key": "t_uint256",
        "label": "mapping(uint256 => struct ChangeNonce)",
        "numberOfBytes": "32",
        "value": "t_struct(ChangeNonce)24251_storage"
      },
      "t_mapping(t_uint256,t_struct(TokenData)24237_storage)": {
        "encoding": "mapping",
        "key": "t_uint256",
        "label": "mapping(uint256 => struct TokenData)",
        "numberOfBytes": "32",
        "value": "t_struct(TokenData)24237_storage"
      },
      "t_mapping(t_uint256,t_uint256)": {
        "encoding": "mapping",
        "key": "t_uint256",
        "label": "mapping(uint256 => uint256)",
        "numberOfBytes": "32",
        "value": "t_uint256"
      },
      "t_struct(ChangeNonce)24251_storage": {
        "encoding": "inplace",
        "label": "struct ChangeNonce",
        "members": [
          {
            "astId": 24246,
            "contract": "contracts/polygon/implementations/SyntheticCollectionManager.sol:SyntheticCollectionManager",
            "label": "nonce",
            "offset": 0,
            "slot": "0",
            "type": "t_uint256"
          },
          {
            "astId": 24248,
            "contract": "contracts/polygon/implementations/SyntheticCollectionManager.sol:SyntheticCollectionManager",
            "label": "newTokenId",
            "offset": 0,
            "slot": "1",
            "type": "t_uint256"
          },
          {
            "astId": 24250,
            "contract": "contracts/polygon/implementations/SyntheticCollectionManager.sol:SyntheticCollectionManager",
            "label": "owner",
            "offset": 0,
            "slot": "2",
            "type": "t_address"
          }
        ],
        "numberOfBytes": "96"
      },
      "t_struct(Counter)10793_storage": {
        "encoding": "inplace",
        "label": "struct Counters.Counter",
        "members": [
          {
            "astId": 10792,
            "contract": "contracts/polygon/implementations/SyntheticCollectionManager.sol:SyntheticCollectionManager",
            "label": "_value",
            "offset": 0,
            "slot": "0",
            "type": "t_uint256"
          }
        ],
        "numberOfBytes": "32"
      },
      "t_struct(Flip)24244_storage": {
        "encoding": "inplace",
        "label": "struct Flip",
        "members": [
          {
            "astId": 24239,
            "contract": "contracts/polygon/implementations/SyntheticCollectionManager.sol:SyntheticCollectionManager",
            "label": "tokenId",
            "offset": 0,
            "slot": "0",
            "type": "t_uint256"
          },
          {
            "astId": 24241,
            "contract": "contracts/polygon/implementations/SyntheticCollectionManager.sol:SyntheticCollectionManager",
            "label": "prediction",
            "offset": 0,
            "slot": "1",
            "type": "t_uint64"
          },
          {
            "astId": 24243,
            "contract": "contracts/polygon/implementations/SyntheticCollectionManager.sol:SyntheticCollectionManager",
            "label": "player",
            "offset": 8,
            "slot": "1",
            "type": "t_address"
          }
        ],
        "numberOfBytes": "64"
      },
      "t_struct(RoleData)3867_storage": {
        "encoding": "inplace",
        "label": "struct AccessControl.RoleData",
        "members": [
          {
            "astId": 3864,
            "contract": "contracts/polygon/implementations/SyntheticCollectionManager.sol:SyntheticCollectionManager",
            "label": "members",
            "offset": 0,
            "slot": "0",
            "type": "t_mapping(t_address,t_bool)"
          },
          {
            "astId": 3866,
            "contract": "contracts/polygon/implementations/SyntheticCollectionManager.sol:SyntheticCollectionManager",
            "label": "adminRole",
            "offset": 0,
            "slot": "1",
            "type": "t_bytes32"
          }
        ],
        "numberOfBytes": "64"
      },
      "t_struct(TokenData)24237_storage": {
        "encoding": "inplace",
        "label": "struct TokenData",
        "members": [
          {
            "astId": 24213,
            "contract": "contracts/polygon/implementations/SyntheticCollectionManager.sol:SyntheticCollectionManager",
            "label": "originalTokenID",
            "offset": 0,
            "slot": "0",
            "type": "t_uint256"
          },
          {
            "astId": 24215,
            "contract": "contracts/polygon/implementations/SyntheticCollectionManager.sol:SyntheticCollectionManager",
            "label": "ownerSupply",
            "offset": 0,
            "slot": "1",
            "type": "t_uint256"
          },
          {
            "astId": 24217,
            "contract": "contracts/polygon/implementations/SyntheticCollectionManager.sol:SyntheticCollectionManager",
            "label": "sellingSupply",
            "offset": 0,
            "slot": "2",
            "type": "t_uint256"
          },
          {
            "astId": 24219,
            "contract": "contracts/polygon/implementations/SyntheticCollectionManager.sol:SyntheticCollectionManager",
            "label": "soldSupply",
            "offset": 0,
            "slot": "3",
            "type": "t_uint256"
          },
          {
            "astId": 24221,
            "contract": "contracts/polygon/implementations/SyntheticCollectionManager.sol:SyntheticCollectionManager",
            "label": "liquiditySupply",
            "offset": 0,
            "slot": "4",
            "type": "t_uint256"
          },
          {
            "astId": 24223,
            "contract": "contracts/polygon/implementations/SyntheticCollectionManager.sol:SyntheticCollectionManager",
            "label": "liquiditySold",
            "offset": 0,
            "slot": "5",
            "type": "t_uint256"
          },
          {
            "astId": 24225,
            "contract": "contracts/polygon/implementations/SyntheticCollectionManager.sol:SyntheticCollectionManager",
            "label": "fractionPrices",
            "offset": 0,
            "slot": "6",
            "type": "t_uint256"
          },
          {
            "astId": 24227,
            "contract": "contracts/polygon/implementations/SyntheticCollectionManager.sol:SyntheticCollectionManager",
            "label": "lastFlipTime",
            "offset": 0,
            "slot": "7",
            "type": "t_uint256"
          },
          {
            "astId": 24229,
            "contract": "contracts/polygon/implementations/SyntheticCollectionManager.sol:SyntheticCollectionManager",
            "label": "liquidityTokenBalance",
            "offset": 0,
            "slot": "8",
            "type": "t_uint256"
          },
          {
            "astId": 24231,
            "contract": "contracts/polygon/implementations/SyntheticCollectionManager.sol:SyntheticCollectionManager",
            "label": "uniswapJotLiquidity",
            "offset": 0,
            "slot": "9",
            "type": "t_uint256"
          },
          {
            "astId": 24233,
            "contract": "contracts/polygon/implementations/SyntheticCollectionManager.sol:SyntheticCollectionManager",
            "label": "uniswapFundingLiquidity",
            "offset": 0,
            "slot": "10",
            "type": "t_uint256"
          },
          {
            "astId": 24236,
            "contract": "contracts/polygon/implementations/SyntheticCollectionManager.sol:SyntheticCollectionManager",
            "label": "state",
            "offset": 0,
            "slot": "11",
            "type": "t_enum(State)23019"
          }
        ],
        "numberOfBytes": "384"
      },
      "t_uint256": {
        "encoding": "inplace",
        "label": "uint256",
        "numberOfBytes": "32"
      },
      "t_uint64": {
        "encoding": "inplace",
        "label": "uint64",
        "numberOfBytes": "8"
      }
    }
  }
}