{
  "contractName": "TokenVault",
  "abi": [
    {
      "inputs": [
        {
          "internalType": "address",
          "name": "_settings",
          "type": "address"
        }
      ],
      "stateMutability": "nonpayable",
      "type": "constructor"
    },
    {
      "anonymous": false,
      "inputs": [
        {
          "indexed": true,
          "internalType": "address",
          "name": "owner",
          "type": "address"
        },
        {
          "indexed": true,
          "internalType": "address",
          "name": "spender",
          "type": "address"
        },
        {
          "indexed": false,
          "internalType": "uint256",
          "name": "value",
          "type": "uint256"
        }
      ],
      "name": "Approval",
      "type": "event"
    },
    {
      "anonymous": false,
      "inputs": [
        {
          "indexed": true,
          "internalType": "address",
          "name": "buyer",
          "type": "address"
        },
        {
          "indexed": false,
          "internalType": "uint256",
          "name": "price",
          "type": "uint256"
        }
      ],
      "name": "Bid",
      "type": "event"
    },
    {
      "anonymous": false,
      "inputs": [
        {
          "indexed": true,
          "internalType": "address",
          "name": "owner",
          "type": "address"
        },
        {
          "indexed": false,
          "internalType": "uint256",
          "name": "shares",
          "type": "uint256"
        }
      ],
      "name": "Cash",
      "type": "event"
    },
    {
      "anonymous": false,
      "inputs": [
        {
          "indexed": true,
          "internalType": "address",
          "name": "user",
          "type": "address"
        },
        {
          "indexed": false,
          "internalType": "uint256",
          "name": "price",
          "type": "uint256"
        }
      ],
      "name": "PriceUpdate",
      "type": "event"
    },
    {
      "anonymous": false,
      "inputs": [
        {
          "indexed": true,
          "internalType": "address",
          "name": "redeemer",
          "type": "address"
        }
      ],
      "name": "Redeem",
      "type": "event"
    },
    {
      "anonymous": false,
      "inputs": [
        {
          "indexed": true,
          "internalType": "address",
          "name": "buyer",
          "type": "address"
        },
        {
          "indexed": false,
          "internalType": "uint256",
          "name": "price",
          "type": "uint256"
        }
      ],
      "name": "Start",
      "type": "event"
    },
    {
      "anonymous": false,
      "inputs": [
        {
          "indexed": true,
          "internalType": "address",
          "name": "from",
          "type": "address"
        },
        {
          "indexed": true,
          "internalType": "address",
          "name": "to",
          "type": "address"
        },
        {
          "indexed": false,
          "internalType": "uint256",
          "name": "value",
          "type": "uint256"
        }
      ],
      "name": "Transfer",
      "type": "event"
    },
    {
      "anonymous": false,
      "inputs": [
        {
          "indexed": true,
          "internalType": "address",
          "name": "buyer",
          "type": "address"
        },
        {
          "indexed": false,
          "internalType": "uint256",
          "name": "price",
          "type": "uint256"
        }
      ],
      "name": "Won",
      "type": "event"
    },
    {
      "inputs": [
        {
          "internalType": "address",
          "name": "owner",
          "type": "address"
        },
        {
          "internalType": "address",
          "name": "spender",
          "type": "address"
        }
      ],
      "name": "allowance",
      "outputs": [
        {
          "internalType": "uint256",
          "name": "",
          "type": "uint256"
        }
      ],
      "stateMutability": "view",
      "type": "function"
    },
    {
      "inputs": [
        {
          "internalType": "address",
          "name": "spender",
          "type": "address"
        },
        {
          "internalType": "uint256",
          "name": "amount",
          "type": "uint256"
        }
      ],
      "name": "approve",
      "outputs": [
        {
          "internalType": "bool",
          "name": "",
          "type": "bool"
        }
      ],
      "stateMutability": "nonpayable",
      "type": "function"
    },
    {
      "inputs": [],
      "name": "asset",
      "outputs": [
        {
          "internalType": "contract ERC20",
          "name": "",
          "type": "address"
        }
      ],
      "stateMutability": "view",
      "type": "function"
    },
    {
      "inputs": [],
      "name": "auctionEnd",
      "outputs": [
        {
          "internalType": "uint256",
          "name": "",
          "type": "uint256"
        }
      ],
      "stateMutability": "view",
      "type": "function"
    },
    {
      "inputs": [],
      "name": "auctionLength",
      "outputs": [
        {
          "internalType": "uint256",
          "name": "",
          "type": "uint256"
        }
      ],
      "stateMutability": "view",
      "type": "function"
    },
    {
      "inputs": [],
      "name": "auctionState",
      "outputs": [
        {
          "internalType": "enum TokenVault.State",
          "name": "",
          "type": "uint8"
        }
      ],
      "stateMutability": "view",
      "type": "function"
    },
    {
      "inputs": [
        {
          "internalType": "address",
          "name": "account",
          "type": "address"
        }
      ],
      "name": "balanceOf",
      "outputs": [
        {
          "internalType": "uint256",
          "name": "",
          "type": "uint256"
        }
      ],
      "stateMutability": "view",
      "type": "function"
    },
    {
      "inputs": [],
      "name": "curator",
      "outputs": [
        {
          "internalType": "address",
          "name": "",
          "type": "address"
        }
      ],
      "stateMutability": "view",
      "type": "function"
    },
    {
      "inputs": [],
      "name": "decimals",
      "outputs": [
        {
          "internalType": "uint8",
          "name": "",
          "type": "uint8"
        }
      ],
      "stateMutability": "view",
      "type": "function"
    },
    {
      "inputs": [
        {
          "internalType": "address",
          "name": "spender",
          "type": "address"
        },
        {
          "internalType": "uint256",
          "name": "subtractedValue",
          "type": "uint256"
        }
      ],
      "name": "decreaseAllowance",
      "outputs": [
        {
          "internalType": "bool",
          "name": "",
          "type": "bool"
        }
      ],
      "stateMutability": "nonpayable",
      "type": "function"
    },
    {
      "inputs": [],
      "name": "fee",
      "outputs": [
        {
          "internalType": "uint256",
          "name": "",
          "type": "uint256"
        }
      ],
      "stateMutability": "view",
      "type": "function"
    },
    {
      "inputs": [],
      "name": "id",
      "outputs": [
        {
          "internalType": "uint256",
          "name": "",
          "type": "uint256"
        }
      ],
      "stateMutability": "view",
      "type": "function"
    },
    {
      "inputs": [
        {
          "internalType": "address",
          "name": "spender",
          "type": "address"
        },
        {
          "internalType": "uint256",
          "name": "addedValue",
          "type": "uint256"
        }
      ],
      "name": "increaseAllowance",
      "outputs": [
        {
          "internalType": "bool",
          "name": "",
          "type": "bool"
        }
      ],
      "stateMutability": "nonpayable",
      "type": "function"
    },
    {
      "inputs": [],
      "name": "lastClaimed",
      "outputs": [
        {
          "internalType": "uint256",
          "name": "",
          "type": "uint256"
        }
      ],
      "stateMutability": "view",
      "type": "function"
    },
    {
      "inputs": [],
      "name": "livePrice",
      "outputs": [
        {
          "internalType": "uint256",
          "name": "",
          "type": "uint256"
        }
      ],
      "stateMutability": "view",
      "type": "function"
    },
    {
      "inputs": [],
      "name": "name",
      "outputs": [
        {
          "internalType": "string",
          "name": "",
          "type": "string"
        }
      ],
      "stateMutability": "view",
      "type": "function"
    },
    {
      "inputs": [],
      "name": "nft",
      "outputs": [
        {
          "internalType": "contract FNFT",
          "name": "",
          "type": "address"
        }
      ],
      "stateMutability": "view",
      "type": "function"
    },
    {
      "inputs": [
        {
          "internalType": "address",
          "name": "",
          "type": "address"
        },
        {
          "internalType": "address",
          "name": "",
          "type": "address"
        },
        {
          "internalType": "uint256",
          "name": "",
          "type": "uint256"
        },
        {
          "internalType": "bytes",
          "name": "",
          "type": "bytes"
        }
      ],
      "name": "onERC721Received",
      "outputs": [
        {
          "internalType": "bytes4",
          "name": "",
          "type": "bytes4"
        }
      ],
      "stateMutability": "nonpayable",
      "type": "function"
    },
    {
      "inputs": [],
      "name": "reserveTotal",
      "outputs": [
        {
          "internalType": "uint256",
          "name": "",
          "type": "uint256"
        }
      ],
      "stateMutability": "view",
      "type": "function"
    },
    {
      "inputs": [],
      "name": "settings",
      "outputs": [
        {
          "internalType": "address",
          "name": "",
          "type": "address"
        }
      ],
      "stateMutability": "view",
      "type": "function"
    },
    {
      "inputs": [],
      "name": "symbol",
      "outputs": [
        {
          "internalType": "string",
          "name": "",
          "type": "string"
        }
      ],
      "stateMutability": "view",
      "type": "function"
    },
    {
      "inputs": [],
      "name": "token",
      "outputs": [
        {
          "internalType": "address",
          "name": "",
          "type": "address"
        }
      ],
      "stateMutability": "view",
      "type": "function"
    },
    {
      "inputs": [],
      "name": "totalSupply",
      "outputs": [
        {
          "internalType": "uint256",
          "name": "",
          "type": "uint256"
        }
      ],
      "stateMutability": "view",
      "type": "function"
    },
    {
      "inputs": [
        {
          "internalType": "address",
          "name": "recipient",
          "type": "address"
        },
        {
          "internalType": "uint256",
          "name": "amount",
          "type": "uint256"
        }
      ],
      "name": "transfer",
      "outputs": [
        {
          "internalType": "bool",
          "name": "",
          "type": "bool"
        }
      ],
      "stateMutability": "nonpayable",
      "type": "function"
    },
    {
      "inputs": [
        {
          "internalType": "address",
          "name": "sender",
          "type": "address"
        },
        {
          "internalType": "address",
          "name": "recipient",
          "type": "address"
        },
        {
          "internalType": "uint256",
          "name": "amount",
          "type": "uint256"
        }
      ],
      "name": "transferFrom",
      "outputs": [
        {
          "internalType": "bool",
          "name": "",
          "type": "bool"
        }
      ],
      "stateMutability": "nonpayable",
      "type": "function"
    },
    {
      "inputs": [
        {
          "internalType": "address",
          "name": "",
          "type": "address"
        }
      ],
      "name": "userPrices",
      "outputs": [
        {
          "internalType": "uint256",
          "name": "",
          "type": "uint256"
        }
      ],
      "stateMutability": "view",
      "type": "function"
    },
    {
      "inputs": [],
      "name": "vaultClosed",
      "outputs": [
        {
          "internalType": "bool",
          "name": "",
          "type": "bool"
        }
      ],
      "stateMutability": "view",
      "type": "function"
    },
    {
      "inputs": [],
      "name": "votingTokens",
      "outputs": [
        {
          "internalType": "uint256",
          "name": "",
          "type": "uint256"
        }
      ],
      "stateMutability": "view",
      "type": "function"
    },
    {
      "inputs": [],
      "name": "weth",
      "outputs": [
        {
          "internalType": "address",
          "name": "",
          "type": "address"
        }
      ],
      "stateMutability": "view",
      "type": "function"
    },
    {
      "inputs": [],
      "name": "winning",
      "outputs": [
        {
          "internalType": "address payable",
          "name": "",
          "type": "address"
        }
      ],
      "stateMutability": "view",
      "type": "function"
    },
    {
      "inputs": [],
      "name": "withETH",
      "outputs": [
        {
          "internalType": "bool",
          "name": "",
          "type": "bool"
        }
      ],
      "stateMutability": "view",
      "type": "function"
    },
    {
      "inputs": [
        {
          "internalType": "address",
          "name": "_curator",
          "type": "address"
        },
        {
          "internalType": "address",
          "name": "_token",
          "type": "address"
        },
        {
          "internalType": "uint256",
          "name": "_id",
          "type": "uint256"
        },
        {
          "internalType": "uint256",
          "name": "_supply",
          "type": "uint256"
        },
        {
          "internalType": "uint256",
          "name": "_listPrice",
          "type": "uint256"
        },
        {
          "internalType": "uint256",
          "name": "_fee",
          "type": "uint256"
        },
        {
          "internalType": "string",
          "name": "_name",
          "type": "string"
        },
        {
          "internalType": "string",
          "name": "_symbol",
          "type": "string"
        },
        {
          "internalType": "address",
          "name": "_asset",
          "type": "address"
        }
      ],
      "name": "initialize",
      "outputs": [],
      "stateMutability": "nonpayable",
      "type": "function"
    },
    {
      "inputs": [],
      "name": "reservePrice",
      "outputs": [
        {
          "internalType": "uint256",
          "name": "",
          "type": "uint256"
        }
      ],
      "stateMutability": "view",
      "type": "function"
    },
    {
      "inputs": [
        {
          "internalType": "address",
          "name": "_curator",
          "type": "address"
        }
      ],
      "name": "kickCurator",
      "outputs": [],
      "stateMutability": "nonpayable",
      "type": "function"
    },
    {
      "inputs": [
        {
          "internalType": "address",
          "name": "_user",
          "type": "address"
        }
      ],
      "name": "removeReserve",
      "outputs": [],
      "stateMutability": "nonpayable",
      "type": "function"
    },
    {
      "inputs": [
        {
          "internalType": "address",
          "name": "_curator",
          "type": "address"
        }
      ],
      "name": "updateCurator",
      "outputs": [],
      "stateMutability": "nonpayable",
      "type": "function"
    },
    {
      "inputs": [
        {
          "internalType": "uint256",
          "name": "_length",
          "type": "uint256"
        }
      ],
      "name": "updateAuctionLength",
      "outputs": [],
      "stateMutability": "nonpayable",
      "type": "function"
    },
    {
      "inputs": [
        {
          "internalType": "uint256",
          "name": "_fee",
          "type": "uint256"
        }
      ],
      "name": "updateFee",
      "outputs": [],
      "stateMutability": "nonpayable",
      "type": "function"
    },
    {
      "inputs": [],
      "name": "claimFees",
      "outputs": [],
      "stateMutability": "nonpayable",
      "type": "function"
    },
    {
      "inputs": [
        {
          "internalType": "uint256",
          "name": "_new",
          "type": "uint256"
        }
      ],
      "name": "updateUserPrice",
      "outputs": [],
      "stateMutability": "nonpayable",
      "type": "function"
    },
    {
      "inputs": [],
      "name": "startWithETH",
      "outputs": [],
      "stateMutability": "payable",
      "type": "function"
    },
    {
      "inputs": [
        {
          "internalType": "uint256",
          "name": "amount",
          "type": "uint256"
        }
      ],
      "name": "start",
      "outputs": [],
      "stateMutability": "nonpayable",
      "type": "function"
    },
    {
      "inputs": [],
      "name": "bidWithETH",
      "outputs": [],
      "stateMutability": "payable",
      "type": "function"
    },
    {
      "inputs": [
        {
          "internalType": "uint256",
          "name": "amount",
          "type": "uint256"
        }
      ],
      "name": "bid",
      "outputs": [],
      "stateMutability": "nonpayable",
      "type": "function"
    },
    {
      "inputs": [],
      "name": "end",
      "outputs": [],
      "stateMutability": "nonpayable",
      "type": "function"
    },
    {
      "inputs": [],
      "name": "redeem",
      "outputs": [],
      "stateMutability": "nonpayable",
      "type": "function"
    },
    {
      "inputs": [],
      "name": "cashWithETH",
      "outputs": [],
      "stateMutability": "nonpayable",
      "type": "function"
    },
    {
      "inputs": [],
      "name": "cash",
      "outputs": [],
      "stateMutability": "nonpayable",
      "type": "function"
    }
  ],
  "bytecode": "0x60a06040523480156200001157600080fd5b506040516200637538038062006375833981016040819052620000349162000055565b600160a060020a03166c010000000000000000000000000260805262000085565b60006020828403121562000067578081fd5b8151600160a060020a03811681146200007e578182fd5b9392505050565b6080516c0100000000000000000000000090046162546200012160003960008181610a9a01528181610b9801528181610c3d01528181610f56015281816113a00152818161147f0152818161162c0152818161170b0152818161189e01528181611ad301528181611d29015281816122fc0152818161257301528181612823015281816129130152818161325001526132ee01526162546000f3fe608060405260043610620002d65760003560e060020a9004806380436fe0116200017f578063c50115c911620000d7578063ddca3f431162000089578063ddca3f43146200081b578063e06174e41462000833578063e66f53b7146200084b578063e92955491462000863578063efbe1c1c146200086d578063fc0c546a146200088557620002d6565b8063c50115c91462000772578063c91de649146200077c578063ca8aa74214620007a1578063d294f09314620007c6578063db2e1eed14620007de578063dd62ed3e14620007f657620002d6565b80639a4e6d3411620001315780639a4e6d3414620006c8578063a457c2d714620006e0578063a9059cbb1462000705578063adc1b956146200072a578063af640d0f1462000742578063be040fb0146200075a57620002d6565b806380436fe01462000611578063853a1b9014620006365780639012c4a8146200064e57806395805dad146200067357806395d89b411462000698578063961be39114620006b057620002d6565b806336c2857411620002335780635c9920fc11620001e55780635c9920fc14620005585780636a77571414620005705780636da84e6c146200059557806370a0823114620005ad5780637b5581ed14620005d25780637fb4509914620005ea57620002d6565b806336c28574146200049f57806338d52e0f14620004b75780633950935114620004de5780633fc8cef31462000503578063454a2ab3146200051b57806347ccca02146200054057620002d6565b806323b872dd116200028d57806323b872dd14620003d95780632a24f46c14620003fe5780632a44f12014620004165780632bf33bd9146200043b578063313ce5671462000460578063325c25a2146200048757620002d6565b806306fdde0314620002db578063095ea7b3146200030b5780630c6a62dd146200033f578063120049c11462000366578063150b7a02146200037e57806318160ddd14620003b2575b600080fd5b348015620002e857600080fd5b50620002f36200089d565b604051620003029190620041fb565b60405180910390f35b3480156200031857600080fd5b50620003306200032a36600462004058565b62000937565b60405162000302919062004191565b3480156200034c57600080fd5b50620003646200035e36600462003e47565b62000958565b005b3480156200037357600080fd5b5062000330620009b3565b3480156200038b57600080fd5b50620003a36200039d36600462003f07565b620009c3565b6040516200030291906200419c565b348015620003bf57600080fd5b50620003ca620009ec565b604051620003029190620041f2565b348015620003e657600080fd5b5062000330620003f836600462003ec2565b620009f2565b3480156200040b57600080fd5b50620003ca62000a92565b3480156200042357600080fd5b50620003646200043536600462003e47565b62000a98565b3480156200044857600080fd5b50620003646200045a366004620040a8565b62000b66565b3480156200046d57600080fd5b506200047862000d00565b60405162000302919062004e29565b3480156200049457600080fd5b50620003ca62000d05565b348015620004ac57600080fd5b506200036462000d0b565b348015620004c457600080fd5b50620004cf62000e4a565b60405162000302919062004126565b348015620004eb57600080fd5b5062000330620004fd36600462004058565b62000e59565b3480156200051057600080fd5b50620004cf62000eb5565b3480156200052857600080fd5b50620003646200053a366004620040a8565b62000ecd565b3480156200054d57600080fd5b50620004cf62001282565b3480156200056557600080fd5b506200033062001291565b3480156200057d57600080fd5b50620003646200058f366004620040a8565b6200129a565b348015620005a257600080fd5b50620003ca62001861565b348015620005ba57600080fd5b50620003ca620005cc36600462003e47565b62001867565b348015620005df57600080fd5b50620003ca62001886565b348015620005f757600080fd5b50620006026200188c565b604051620003029190620041c6565b3480156200061e57600080fd5b50620003646200063036600462003e47565b6200189c565b3480156200064357600080fd5b50620004cf62001a92565b3480156200065b57600080fd5b50620003646200066d366004620040a8565b62001aa1565b3480156200068057600080fd5b506200036462000692366004620040a8565b62001b9f565b348015620006a557600080fd5b50620002f362001e98565b348015620006bd57600080fd5b506200036462001ea9565b348015620006d557600080fd5b50620003ca62002075565b348015620006ed57600080fd5b5062000330620006ff36600462004058565b6200207b565b3480156200071257600080fd5b50620003306200072436600462004058565b62002100565b3480156200073757600080fd5b50620003ca62002118565b3480156200074f57600080fd5b50620003ca6200211e565b3480156200076757600080fd5b506200036462002124565b6200036462002274565b3480156200078957600080fd5b50620003ca6200079b36600462003e47565b620024b6565b348015620007ae57600080fd5b5062000364620007c036600462003f8d565b620024c8565b348015620007d357600080fd5b5062000364620027b7565b348015620007eb57600080fd5b50620003ca620027c3565b3480156200080357600080fd5b50620003ca6200081536600462003e85565b620027f0565b3480156200082857600080fd5b50620003ca6200281b565b3480156200084057600080fd5b50620004cf62002821565b3480156200085857600080fd5b50620004cf62002845565b6200036462002854565b3480156200087a57600080fd5b506200036462002a73565b3480156200089257600080fd5b50620004cf62002bfa565b606060368054620008ae9062004ee1565b80601f0160208091040260200160405190810160405280929190818152602001828054620008dc9062004ee1565b80156200092d5780601f1062000901576101008083540402835291602001916200092d565b820191906000526020600020905b8154815290600101906020018083116200090f57829003601f168201915b5050505050905090565b60006200094f6200094762002c09565b848462002c0d565b50600192915050565b609e54600160a060020a03163314620009915760405160e560020a62461bcd02815260040162000988906200472a565b60405180910390fd5b609e8054600160a060020a031916600160a060020a0392909216919091179055565b609e5460a060020a900460ff1681565b7f150b7a0200000000000000000000000000000000000000000000000000000000949350505050565b60355490565b600062000a0184848462002ccf565b600160a060020a03841660009081526034602052604081208162000a2462002c09565b600160a060020a0316600160a060020a031681526020019081526020016000205490508281101562000a6d5760405160e560020a62461bcd028152600401620009889062004852565b62000a858562000a7c62002c09565b85840362002c0d565b60019150505b9392505050565b60995481565b7f0000000000000000000000000000000000000000000000000000000000000000600160a060020a0316638da5cb5b6040518163ffffffff1660e060020a02815260040160206040518083038186803b15801562000af557600080fd5b505afa15801562000b0a573d6000803e3d6000fd5b505050506040513d601f19601f8201168201806040525081019062000b30919062003e66565b600160a060020a031633600160a060020a031614620009915760405160e560020a62461bcd0281526004016200098890620044a3565b609e54600160a060020a0316331462000b965760405160e560020a62461bcd02815260040162000988906200472a565b7f0000000000000000000000000000000000000000000000000000000000000000600160a060020a031663a0b335e36040518163ffffffff1660e060020a028152600401602060405180830381600087803b15801562000bf557600080fd5b505af115801562000c0a573d6000803e3d6000fd5b505050506040513d601f19601f8201168201806040525081019062000c309190620040c1565b811015801562000cd957507f0000000000000000000000000000000000000000000000000000000000000000600160a060020a0316630e519ef96040518163ffffffff1660e060020a028152600401602060405180830381600087803b15801562000c9a57600080fd5b505af115801562000caf573d6000803e3d6000fd5b505050506040513d601f19601f8201168201806040525081019062000cd59190620040c1565b8111155b62000cfb5760405160e560020a62461bcd02815260040162000988906200481b565b609a55565b601290565b609a5481565b609e5460a060020a900460ff1662000d3a5760405160e560020a62461bcd028152600401620009889062004761565b6002609d5460a060020a900460ff16600381111562000d6c5760e060020a634e487b7102600052602160045260246000fd5b1462000d8f5760405160e560020a62461bcd028152600401620009889062004df2565b600062000d9c3362001867565b90506000811162000dc45760405160e560020a62461bcd028152600401620009889062004435565b600062000dd0620009ec565b62000ddd30318462004e76565b62000de9919062004e52565b905062000df7338362002e13565b62000e03338262002f18565b33600160a060020a03167f730831a1e4aa2d187ddd8e03d7beeac760a3927da5f112d645e0f8df7494b3678260405162000e3e9190620041f2565b60405180910390a25050565b609f54600160a060020a031681565b60006200094f62000e6962002c09565b84846034600062000e7962002c09565b600160a060020a03908116825260208083019390935260409182016000908120918b168152925290205462000eaf919062004e37565b62002c0d565b73c02aaa39b223fe8d0a0e5c4f27ead9083c756cc281565b609e5460a060020a900460ff161562000efd5760405160e560020a62461bcd028152600401620009889062004cb9565b6001609d5460a060020a900460ff16600381111562000f2f5760e060020a634e487b7102600052602160045260246000fd5b1462000f525760405160e560020a62461bcd0281526004016200098890620043fe565b60007f0000000000000000000000000000000000000000000000000000000000000000600160a060020a0316637c513c0f6040518163ffffffff1660e060020a028152600401602060405180830381600087803b15801562000fb357600080fd5b505af115801562000fc8573d6000803e3d6000fd5b505050506040513d601f19601f8201168201806040525081019062000fee9190620040c1565b62000ffc906103e862004e37565b905080609c546200100e919062004e76565b6200101c836103e862004e76565b1015620010405760405160e560020a62461bcd028152600401620009889062004b91565b609f546040517fdd62ed3e000000000000000000000000000000000000000000000000000000008152600091600160a060020a03169063dd62ed3e906200108e903390309060040162004153565b60206040518083038186803b158015620010a757600080fd5b505afa158015620010bc573d6000803e3d6000fd5b505050506040513d601f19601f82011682018060405250810190620010e29190620040c1565b9050828110156200110a5760405160e560020a62461bcd028152600401620009889062004d84565b6099544210620011315760405160e560020a62461bcd0281526004016200098890620048af565b609f546200114b90600160a060020a031633308662003109565b610384426099546200115e919062004e98565b116200118057610384609960008282546200117a919062004e37565b90915550505b609f54609d54609c546040517fa9059cbb000000000000000000000000000000000000000000000000000000008152600160a060020a039384169363a9059cbb93620011d2939116916004016200413a565b602060405180830381600087803b158015620011ed57600080fd5b505af115801562001202573d6000803e3d6000fd5b505050506040513d601f19601f8201168201806040525081019062001228919062004086565b50609c839055609d8054600160a060020a031916339081179091556040517fe684a55f31b79eca403df938249029212a5925ec6be8012e099b45bc1019e5d29062001275908690620041f2565b60405180910390a2505050565b60a554600160a060020a031681565b60a25460ff1681565b6000609d5460a060020a900460ff166003811115620012cc5760e060020a634e487b7102600052602160045260246000fd5b14620012ef5760405160e560020a62461bcd028152600401620009889062004bff565b33600090815260a4602052604090205481811415620013255760405160e560020a62461bcd028152600401620009889062004cf0565b6000620013323362001867565b905060a354600014156200135a5760a381905562001351838262004e76565b609b556200181d565b60a354811480156200136b57508115155b156200137d5762001351838262004e76565b816200159f57600060a354609b5462001397919062004e52565b905060006103e87f0000000000000000000000000000000000000000000000000000000000000000600160a060020a03166309990a966040518163ffffffff1660e060020a028152600401602060405180830381600087803b158015620013fd57600080fd5b505af115801562001412573d6000803e3d6000fd5b505050506040513d601f19601f82011682018060405250810190620014389190620040c1565b62001444908462004e76565b62001450919062004e52565b905080851015620014785760405160e560020a62461bcd02815260040162000988906200430d565b60006103e87f0000000000000000000000000000000000000000000000000000000000000000600160a060020a0316635410bfc96040518163ffffffff1660e060020a028152600401602060405180830381600087803b158015620014dc57600080fd5b505af1158015620014f1573d6000803e3d6000fd5b505050506040513d601f19601f82011682018060405250810190620015179190620040c1565b62001523908562004e76565b6200152f919062004e52565b905080861115620015575760405160e560020a62461bcd028152600401620009889062004bc8565b8360a360008282546200156b919062004e37565b909155506200157d9050868562004e76565b609b600082825462001590919062004e37565b909155506200181d9350505050565b82620015ea578060a36000828254620015b9919062004e98565b90915550620015cb9050828262004e76565b609b6000828254620015de919062004e98565b909155506200181d9050565b60008160a354620015fc919062004e98565b62001608838562004e76565b609b5462001617919062004e98565b62001623919062004e52565b905060006103e87f0000000000000000000000000000000000000000000000000000000000000000600160a060020a03166309990a966040518163ffffffff1660e060020a028152600401602060405180830381600087803b1580156200168957600080fd5b505af11580156200169e573d6000803e3d6000fd5b505050506040513d601f19601f82011682018060405250810190620016c49190620040c1565b620016d0908462004e76565b620016dc919062004e52565b905080851015620017045760405160e560020a62461bcd02815260040162000988906200430d565b60006103e87f0000000000000000000000000000000000000000000000000000000000000000600160a060020a0316635410bfc96040518163ffffffff1660e060020a028152600401602060405180830381600087803b1580156200176857600080fd5b505af11580156200177d573d6000803e3d6000fd5b505050506040513d601f19601f82011682018060405250810190620017a39190620040c1565b620017af908562004e76565b620017bb919062004e52565b905080861115620017e35760405160e560020a62461bcd028152600401620009889062004bc8565b620017ef858562004e76565b620017fb878662004e76565b609b546200180a919062004e37565b62001816919062004e98565b609b555050505b33600081815260a4602052604090819020859055517f64e6e7bd72b853c4e62fd6ceaca05a104700c70a4cb567c75c7f2242ba7f037c9062001275908690620041f2565b609c5481565b600160a060020a0381166000908152603360205260409020545b919050565b609b5481565b609d5460a060020a900460ff1681565b7f0000000000000000000000000000000000000000000000000000000000000000600160a060020a0316638da5cb5b6040518163ffffffff1660e060020a02815260040160206040518083038186803b158015620018f957600080fd5b505afa1580156200190e573d6000803e3d6000fd5b505050506040513d601f19601f8201168201806040525081019062001934919062003e66565b600160a060020a031633600160a060020a0316146200196a5760405160e560020a62461bcd028152600401620009889062004a32565b6000609d5460a060020a900460ff1660038111156200199c5760e060020a634e487b7102600052602160045260246000fd5b14620019bf5760405160e560020a62461bcd028152600401620009889062004bff565b600160a060020a038116600090815260a4602052604090205480620019fb5760405160e560020a62461bcd028152600401620009889062004cf0565b600062001a088362001867565b90508060a3600082825462001a1e919062004e98565b9091555062001a309050828262004e76565b609b600082825462001a43919062004e98565b9091555050600160a060020a038316600081815260a46020526040808220829055517f64e6e7bd72b853c4e62fd6ceaca05a104700c70a4cb567c75c7f2242ba7f037c916200127591620041f2565b609d54600160a060020a031681565b609e54600160a060020a0316331462001ad15760405160e560020a62461bcd02815260040162000988906200472a565b7f0000000000000000000000000000000000000000000000000000000000000000600160a060020a0316638a364bc16040518163ffffffff1660e060020a028152600401602060405180830381600087803b15801562001b3057600080fd5b505af115801562001b45573d6000803e3d6000fd5b505050506040513d601f19601f8201168201806040525081019062001b6b9190620040c1565b81111562001b905760405160e560020a62461bcd0281526004016200098890620048e6565b62001b9a62003192565b60a055565b609e5460a060020a900460ff161562001bcf5760405160e560020a62461bcd028152600401620009889062004cb9565b6000609d5460a060020a900460ff16600381111562001c015760e060020a634e487b7102600052602160045260246000fd5b1462001c245760405160e560020a62461bcd0281526004016200098890620042d6565b62001c2e620027c3565b81101562001c535760405160e560020a62461bcd028152600401620009889062004537565b609f546040517fdd62ed3e000000000000000000000000000000000000000000000000000000008152600091600160a060020a03169063dd62ed3e9062001ca1903390309060040162004153565b60206040518083038186803b15801562001cba57600080fd5b505afa15801562001ccf573d6000803e3d6000fd5b505050506040513d601f19601f8201168201806040525081019062001cf59190620040c1565b90508181101562001d1d5760405160e560020a62461bcd028152600401620009889062004242565b62001d27620009ec565b7f0000000000000000000000000000000000000000000000000000000000000000600160a060020a03166332977c736040518163ffffffff1660e060020a028152600401602060405180830381600087803b15801562001d8657600080fd5b505af115801562001d9b573d6000803e3d6000fd5b505050506040513d601f19601f8201168201806040525081019062001dc19190620040c1565b62001dcd919062004e76565b60a35462001dde906103e862004e76565b101562001e025760405160e560020a62461bcd0281526004016200098890620046bc565b609f5462001e1c90600160a060020a031633308562003109565b609a5462001e2b904262004e37565b609955609d8054609c84905574ff0000000000000000000000000000000000000000191660a060020a17600160a060020a031916339081179091556040517fcfb9c5312b25ec7b809d61e638df25f749eae5d5c25399e1c93d1d319bfd58219062000e3e908590620041f2565b606060378054620008ae9062004ee1565b609e5460a060020a900460ff161562001ed95760405160e560020a62461bcd0281526004016200098890620046f3565b6002609d5460a060020a900460ff16600381111562001f0b5760e060020a634e487b7102600052602160045260246000fd5b1462001f2e5760405160e560020a62461bcd028152600401620009889062004df2565b600062001f3b3362001867565b90506000811162001f635760405160e560020a62461bcd028152600401620009889062004435565b600062001f6f620009ec565b62001f7c30318462004e76565b62001f88919062004e52565b905062001f96338362002e13565b609f546040517fa9059cbb000000000000000000000000000000000000000000000000000000008152600160a060020a039091169063a9059cbb9062001fe390339085906004016200413a565b602060405180830381600087803b15801562001ffe57600080fd5b505af115801562002013573d6000803e3d6000fd5b505050506040513d601f19601f8201168201806040525081019062002039919062004086565b5033600160a060020a03167f730831a1e4aa2d187ddd8e03d7beeac760a3927da5f112d645e0f8df7494b3678260405162000e3e9190620041f2565b60a35481565b600080603460006200208c62002c09565b600160a060020a0390811682526020808301939093526040918201600090812091881681529252902054905082811015620020de5760405160e560020a62461bcd028152600401620009889062004d27565b620020f6620020ec62002c09565b8585840362002c0d565b5060019392505050565b60006200094f6200211062002c09565b848462002ccf565b60a15481565b60985481565b6000609d5460a060020a900460ff166003811115620021565760e060020a634e487b7102600052602160045260246000fd5b14620021795760405160e560020a62461bcd02815260040162000988906200446c565b6200218e3362002188620009ec565b62002e13565b6097546098546040517f23b872dd000000000000000000000000000000000000000000000000000000008152600160a060020a03909216916323b872dd91620021de91309133916004016200416d565b600060405180830381600087803b158015620021f957600080fd5b505af11580156200220e573d6000803e3d6000fd5b5050609d805474ff0000000000000000000000000000000000000000191674030000000000000000000000000000000000000000179055505060405133907fd1b5ea7fe0f1c2fa09d49c2aa9b2200664ba57a734f1d95481d95b7f99af991c90600090a2565b609e5460a060020a900460ff16620022a35760405160e560020a62461bcd028152600401620009889062004943565b6001609d5460a060020a900460ff166003811115620022d55760e060020a634e487b7102600052602160045260246000fd5b14620022f85760405160e560020a62461bcd0281526004016200098890620043fe565b60007f0000000000000000000000000000000000000000000000000000000000000000600160a060020a0316637c513c0f6040518163ffffffff1660e060020a028152600401602060405180830381600087803b1580156200235957600080fd5b505af11580156200236e573d6000803e3d6000fd5b505050506040513d601f19601f82011682018060405250810190620023949190620040c1565b620023a2906103e862004e37565b905080609c54620023b4919062004e76565b620023c2346103e862004e76565b1015620023e65760405160e560020a62461bcd028152600401620009889062004b91565b60995442106200240d5760405160e560020a62461bcd0281526004016200098890620048af565b6103844260995462002420919062004e98565b116200244257610384609960008282546200243c919062004e37565b90915550505b609d54609c546200245d91600160a060020a03169062003403565b34609c819055609d8054600160a060020a0319163390811790915560405190917fe684a55f31b79eca403df938249029212a5925ec6be8012e099b45bc1019e5d291620024ab9190620041f2565b60405180910390a250565b60a46020526000908152604090205481565b600054610100900460ff1680620024e2575060005460ff16155b620025045760405160e560020a62461bcd0281526004016200098890620047be565b600054610100900460ff1615801562002530576000805460ff1961ff0019909116610100171660011790555b600160a060020a0382161580806200260057506040517f19cdff59000000000000000000000000000000000000000000000000000000008152600160a060020a037f000000000000000000000000000000000000000000000000000000000000000016906319cdff5990620025aa90869060040162004126565b602060405180830381600087803b158015620025c557600080fd5b505af1158015620025da573d6000803e3d6000fd5b505050506040513d601f19601f8201168201806040525081019062002600919062004086565b620026225760405160e560020a62461bcd02815260040162000988906200465f565b6200262e858562003598565b620026386200362d565b8484604051620026489062003ce7565b6200265592919062004210565b604051809103906000f08015801562002672573d6000803e3d6000fd5b5060a58054600160a060020a0319908116600160a060020a039384161790915560978054909116918c169190911790556098899055620026b3888862004e76565b609b8190555062093a80609a819055508a609e60006101000a815481600160a060020a030219169083600160a060020a0316021790555080609e60146101000a81548160ff021916908315150217905550609e60149054906101000a900460ff166200273557609f8054600160a060020a031916600160a060020a0385161790555b60a08690554260a15586156200274c57876200274f565b60005b60a355609d805474ff0000000000000000000000000000000000000000191690556200277c8b89620036b5565b50600160a060020a038a16600090815260a4602052604090208690558015620027ab576000805461ff00191690555b50505050505050505050565b620027c162003192565b565b600060a354600014620027e85760a354609b54620027e2919062004e52565b620027eb565b60005b905090565b600160a060020a03918216600090815260346020908152604080832093909416825291909152205490565b60a05481565b7f000000000000000000000000000000000000000000000000000000000000000081565b609e54600160a060020a031681565b609e5460a060020a900460ff16620028835760405160e560020a62461bcd02815260040162000988906200456e565b6000609d5460a060020a900460ff166003811115620028b55760e060020a634e487b7102600052602160045260246000fd5b14620028d85760405160e560020a62461bcd0281526004016200098890620042d6565b620028e2620027c3565b341015620029075760405160e560020a62461bcd028152600401620009889062004537565b62002911620009ec565b7f0000000000000000000000000000000000000000000000000000000000000000600160a060020a03166332977c736040518163ffffffff1660e060020a028152600401602060405180830381600087803b1580156200297057600080fd5b505af115801562002985573d6000803e3d6000fd5b505050506040513d601f19601f82011682018060405250810190620029ab9190620040c1565b620029b7919062004e76565b60a354620029c8906103e862004e76565b1015620029ec5760405160e560020a62461bcd0281526004016200098890620046bc565b609a54620029fb904262004e37565b609955609d805434609c81905574ff00000000000000000000000000000000000000001990911660a060020a17600160a060020a031916339081179092556040517fcfb9c5312b25ec7b809d61e638df25f749eae5d5c25399e1c93d1d319bfd58219162002a6991620041f2565b60405180910390a2565b6001609d5460a060020a900460ff16600381111562002aa55760e060020a634e487b7102600052602160045260246000fd5b1462002ac85760405160e560020a62461bcd028152600401620009889062004afd565b60995442101562002af05760405160e560020a62461bcd0281526004016200098890620045cb565b62002afa62003192565b609754609d546098546040517f23b872dd000000000000000000000000000000000000000000000000000000008152600160a060020a03938416936323b872dd9362002b5093309392909116916004016200416d565b600060405180830381600087803b15801562002b6b57600080fd5b505af115801562002b80573d6000803e3d6000fd5b5050609d805474ff00000000000000000000000000000000000000001916740200000000000000000000000000000000000000001790819055609c54604051600160a060020a0390921693507f8b01f9dd0400d6a1e84369a5fb8f6033934856ffa8ebadd707dca302ab551695925062002a6991620041f2565b609754600160a060020a031681565b3390565b600160a060020a03831662002c395760405160e560020a62461bcd028152600401620009889062004a69565b600160a060020a03821662002c655760405160e560020a62461bcd0281526004016200098890620043a1565b600160a060020a0380841660008181526034602090815260408083209487168084529490915290819020849055517f8c5be1e5ebec7d5bd14f71427d1e84f3dd0314c0f7b2291e5b200ac8c7c3b9259062002cc2908590620041f2565b60405180910390a3505050565b600160a060020a03831662002cfb5760405160e560020a62461bcd0281526004016200098890620049d5565b600160a060020a03821662002d275760405160e560020a62461bcd028152600401620009889062004279565b62002d348383836200378d565b600160a060020a0383166000908152603360205260409020548181101562002d735760405160e560020a62461bcd0281526004016200098890620044da565b600160a060020a0380851660009081526033602052604080822085850390559185168152908120805484929062002dac90849062004e37565b9250508190555082600160a060020a031684600160a060020a03167fddf252ad1be2c89b69c2b068fc378daa952ba7f163c4a11628f55a4df523b3ef8460405162002df89190620041f2565b60405180910390a362002e0d84848462002f13565b50505050565b600160a060020a03821662002e3f5760405160e560020a62461bcd028152600401620009889062004978565b62002e4d826000836200378d565b600160a060020a0382166000908152603360205260409020548181101562002e8c5760405160e560020a62461bcd028152600401620009889062004344565b600160a060020a038316600090815260336020526040812083830390556035805484929062002ebd90849062004e98565b9091555050604051600090600160a060020a038516907fddf252ad1be2c89b69c2b068fc378daa952ba7f163c4a11628f55a4df523b3ef9062002f02908690620041f2565b60405180910390a362002f13836000845b505050565b62002f2c82600160a060020a0316620039f1565b15620030ce5773c02aaa39b223fe8d0a0e5c4f27ead9083c756cc2600160a060020a031663d0e30db0826040518263ffffffff1660e060020a0281526004016000604051808303818588803b15801562002f8557600080fd5b505af115801562002f9a573d6000803e3d6000fd5b50506040517f70a0823100000000000000000000000000000000000000000000000000000000815273c02aaa39b223fe8d0a0e5c4f27ead9083c756cc2935063a9059cbb925085915083906370a082319062002ffb90309060040162004126565b60206040518083038186803b1580156200301457600080fd5b505afa15801562003029573d6000803e3d6000fd5b505050506040513d601f19601f820116820180604052508101906200304f9190620040c1565b6040518363ffffffff1660e060020a028152600401620030719291906200413a565b602060405180830381600087803b1580156200308c57600080fd5b505af1158015620030a1573d6000803e3d6000fd5b505050506040513d601f19601f82011682018060405250810190620030c7919062004086565b5062003105565b604051600160a060020a0383169082156108fc029083906000818181858888f1935050505015801562002f13573d6000803e3d6000fd5b5050565b62002e0d846323b872dd60e060020a0285858560405160240162003130939291906200416d565b60408051601f198184030181529190526020810180517bffffffffffffffffffffffffffffffffffffffffffffffffffffffff167bffffffffffffffffffffffffffffffffffffffffffffffffffffffff1990931692909217909152620039f7565b6002609d5460a060020a900460ff166003811115620031c45760e060020a634e487b7102600052602160045260246000fd5b1415620031e85760405160e560020a62461bcd028152600401620009889062004b34565b60006103e8620031f7620009ec565b60a05462003206919062004e76565b62003212919062004e52565b90506000620032266301e133808362004e52565b9050600060a154426200323a919062004e98565b905060006200324a838362004e76565b905060007f0000000000000000000000000000000000000000000000000000000000000000600160a060020a031663b3f006746040518163ffffffff1660e060020a028152600401602060405180830381600087803b158015620032ad57600080fd5b505af1158015620032c2573d6000803e3d6000fd5b505050506040513d601f19601f82011682018060405250810190620032e8919062003e66565b905060007f0000000000000000000000000000000000000000000000000000000000000000600160a060020a0316630ea90a126040518163ffffffff1660e060020a028152600401602060405180830381600087803b1580156200334b57600080fd5b505af115801562003360573d6000803e3d6000fd5b505050506040513d601f19601f82011682018060405250810190620033869190620040c1565b90506103e862003395620009ec565b620033a1908362004e76565b620033ad919062004e52565b9550620033bf6301e133808762004e52565b94506000620033cf868662004e76565b4260a155609e54909150620033ee90600160a060020a031685620036b5565b620033fa8382620036b5565b50505050505050565b73c02aaa39b223fe8d0a0e5c4f27ead9083c756cc2600160a060020a031663d0e30db0826040518263ffffffff1660e060020a0281526004016000604051808303818588803b1580156200345657600080fd5b505af11580156200346b573d6000803e3d6000fd5b50506040517f70a0823100000000000000000000000000000000000000000000000000000000815273c02aaa39b223fe8d0a0e5c4f27ead9083c756cc2935063a9059cbb925085915083906370a0823190620034cc90309060040162004126565b60206040518083038186803b158015620034e557600080fd5b505afa158015620034fa573d6000803e3d6000fd5b505050506040513d601f19601f82011682018060405250810190620035209190620040c1565b6040518363ffffffff1660e060020a028152600401620035429291906200413a565b602060405180830381600087803b1580156200355d57600080fd5b505af115801562003572573d6000803e3d6000fd5b505050506040513d601f19601f8201168201806040525081019062002f13919062004086565b600054610100900460ff1680620035b2575060005460ff16155b620035d45760405160e560020a62461bcd0281526004016200098890620047be565b600054610100900460ff1615801562003600576000805460ff1961ff0019909116610100171660011790555b6200360a62003a91565b62003616838362003b0d565b801562002f13576000805461ff0019169055505050565b600054610100900460ff168062003647575060005460ff16155b620036695760405160e560020a62461bcd0281526004016200098890620047be565b600054610100900460ff1615801562003695576000805460ff1961ff0019909116610100171660011790555b6200369f62003a91565b8015620036b2576000805461ff00191690555b50565b600160a060020a038216620036e15760405160e560020a62461bcd028152600401620009889062004dbb565b620036ef600083836200378d565b806035600082825462003703919062004e37565b9091555050600160a060020a038216600090815260336020526040812080548392906200373290849062004e37565b9091555050604051600160a060020a038316906000907fddf252ad1be2c89b69c2b068fc378daa952ba7f163c4a11628f55a4df523b3ef9062003777908590620041f2565b60405180910390a3620031056000838362002f13565b80620037998462001867565b1415620038205760a5546040517f89afcb44000000000000000000000000000000000000000000000000000000008152600160a060020a03909116906389afcb4490620037eb90869060040162004126565b600060405180830381600087803b1580156200380657600080fd5b505af11580156200381b573d6000803e3d6000fd5b505050505b6200382b8262001867565b620038b05760a5546040517f6a627842000000000000000000000000000000000000000000000000000000008152600160a060020a0390911690636a627842906200387b90859060040162004126565b600060405180830381600087803b1580156200389657600080fd5b505af1158015620038ab573d6000803e3d6000fd5b505050505b600160a060020a03831615801590620038f857506000609d5460a060020a900460ff166003811115620038f65760e060020a634e487b7102600052602160045260246000fd5b145b1562002f1357600160a060020a03808416600090815260a46020526040808220549285168252902054808214620039ea578062003974578260a3600082825462003943919062004e98565b90915550620039559050828462004e76565b609b600082825462003968919062004e98565b90915550620039ea9050565b81620039b3578260a360008282546200398e919062004e37565b90915550620039a09050818462004e76565b609b600082825462003968919062004e37565b620039bf828462004e76565b620039cb828562004e76565b609b54620039da919062004e37565b620039e6919062004e98565b609b555b5050505050565b3b151590565b600062003a4e826040518060400160405280602081526020017f5361666545524332303a206c6f772d6c6576656c2063616c6c206661696c656481525085600160a060020a031662003bb89092919063ffffffff16565b80519091501562002f13578080602001905181019062003a6f919062004086565b62002f135760405160e560020a62461bcd028152600401620009889062004c5c565b600054610100900460ff168062003aab575060005460ff16155b62003acd5760405160e560020a62461bcd0281526004016200098890620047be565b600054610100900460ff161580156200369f576000805460ff1961ff0019909116610100171660011790558015620036b2576000805461ff001916905550565b600054610100900460ff168062003b27575060005460ff16155b62003b495760405160e560020a62461bcd0281526004016200098890620047be565b600054610100900460ff1615801562003b75576000805460ff1961ff0019909116610100171660011790555b825162003b8a90603690602086019062003cf5565b50815162003ba090603790602085019062003cf5565b50801562002f13576000805461ff0019169055505050565b606062003bc9848460008562003bd1565b949350505050565b6060303183111562003bfa5760405160e560020a62461bcd028152600401620009889062004602565b62003c0585620039f1565b62003c275760405160e560020a62461bcd028152600401620009889062004ac6565b60008086600160a060020a0316858760405162003c45919062004108565b60006040518083038185875af1925050503d806000811462003c84576040519150601f19603f3d011682016040523d82523d6000602084013e62003c89565b606091505b509150915062003c9b82828662003ca6565b979650505050505050565b6060831562003cb757508162000a8b565b82511562003cc85782518084602001fd5b8160405160e560020a62461bcd028152600401620009889190620041fb565b6112b58062004f6a83390190565b82805462003d039062004ee1565b90600052602060002090601f01602090048101928262003d27576000855562003d72565b82601f1062003d4257805160ff191683800117855562003d72565b8280016001018555821562003d72579182015b8281111562003d7257825182559160200191906001019062003d55565b5062003d8092915062003d84565b5090565b5b8082111562003d80576000815560010162003d85565b600067ffffffffffffffff8084111562003db95762003db962004f3a565b604051601f8501601f19908116603f0116810190828211818310171562003de45762003de462004f3a565b8160405280935085815286868601111562003dfe57600080fd5b858560208301376000602087830101525050509392505050565b8035620018818162004f53565b600082601f83011262003e36578081fd5b62000a8b8383356020850162003d9b565b60006020828403121562003e59578081fd5b813562000a8b8162004f53565b60006020828403121562003e78578081fd5b815162000a8b8162004f53565b6000806040838503121562003e98578081fd5b823562003ea58162004f53565b9150602083013562003eb78162004f53565b809150509250929050565b60008060006060848603121562003ed7578081fd5b833562003ee48162004f53565b9250602084013562003ef68162004f53565b929592945050506040919091013590565b6000806000806080858703121562003f1d578081fd5b843562003f2a8162004f53565b9350602085013562003f3c8162004f53565b925060408501359150606085013567ffffffffffffffff81111562003f5f578182fd5b8501601f8101871362003f70578182fd5b62003f818782356020840162003d9b565b91505092959194509250565b60008060008060008060008060006101208a8c03121562003fac578485fd5b893562003fb98162004f53565b985060208a013562003fcb8162004f53565b975060408a0135965060608a0135955060808a0135945060a08a0135935060c08a013567ffffffffffffffff8082111562004004578485fd5b620040128d838e0162003e25565b945060e08c013591508082111562004028578384fd5b50620040378c828d0162003e25565b925050620040496101008b0162003e18565b90509295985092959850929598565b600080604083850312156200406b578182fd5b8235620040788162004f53565b946020939093013593505050565b60006020828403121562004098578081fd5b8151801515811462000a8b578182fd5b600060208284031215620040ba578081fd5b5035919050565b600060208284031215620040d3578081fd5b5051919050565b60008151808452620040f481602086016020860162004eb2565b601f01601f19169290920160200192915050565b600082516200411c81846020870162004eb2565b9190910192915050565b600160a060020a0391909116815260200190565b600160a060020a03929092168252602082015260400190565b600160a060020a0392831681529116602082015260400190565b600160a060020a039384168152919092166020820152604081019190915260600190565b901515815260200190565b7bffffffffffffffffffffffffffffffffffffffffffffffffffffffff1991909116815260200190565b6020810160048310620041ec5760e060020a634e487b7102600052602160045260246000fd5b91905290565b90815260200190565b60006020825262000a8b6020830184620040da565b600060408252620042256040830185620040da565b8281036020840152620042398185620040da565b95945050505050565b6020808252601f908201527f73746172743a636865636b2074686520746f6b656e20616c6c6f77616e636500604082015260600190565b60208082526023908201527f45524332303a207472616e7366657220746f20746865207a65726f206164647260408201527f6573730000000000000000000000000000000000000000000000000000000000606082015260800190565b60208082526017908201527f73746172743a6e6f2061756374696f6e20737461727473000000000000000000604082015260600190565b6020808252601c908201527f7570646174653a7265736572766520707269636520746f6f206c6f7700000000604082015260600190565b60208082526022908201527f45524332303a206275726e20616d6f756e7420657863656564732062616c616e60408201527f6365000000000000000000000000000000000000000000000000000000000000606082015260800190565b60208082526022908201527f45524332303a20617070726f766520746f20746865207a65726f20616464726560408201527f7373000000000000000000000000000000000000000000000000000000000000606082015260800190565b60208082526017908201527f6269643a61756374696f6e206973206e6f74206c697665000000000000000000604082015260600190565b6020808252601a908201527f636173683a6e6f20746f6b656e7320746f2063617368206f7574000000000000604082015260600190565b60208082526013908201527f72656465656d3a6e6f2072656465656d696e6700000000000000000000000000604082015260600190565b6020808252600c908201527f6b69636b3a6e6f7420676f760000000000000000000000000000000000000000604082015260600190565b60208082526026908201527f45524332303a207472616e7366657220616d6f756e742065786365656473206260408201527f616c616e63650000000000000000000000000000000000000000000000000000606082015260800190565b60208082526011908201527f73746172743a746f6f206c6f7720626964000000000000000000000000000000604082015260600190565b60208082526022908201527f73746172743a7468652072657365727665206173736574206973206e6f74204560408201527f5448000000000000000000000000000000000000000000000000000000000000606082015260800190565b60208082526010908201527f656e643a61756374696f6e206c69766500000000000000000000000000000000604082015260600190565b60208082526026908201527f416464726573733a20696e73756666696369656e742062616c616e636520666f60408201527f722063616c6c0000000000000000000000000000000000000000000000000000606082015260800190565b6020808252602b908201527f696e697469616c697a65723a20617373657420746f6b656e206973206e6f742060408201527f77686974656c6973746564000000000000000000000000000000000000000000606082015260800190565b60208082526017908201527f73746172743a6e6f7420656e6f75676820766f74657273000000000000000000604082015260600190565b6020808252601d908201527f636173683a746865207265736572766520617373657420697320455448000000604082015260600190565b60208082526012908201527f7570646174653a6e6f742063757261746f720000000000000000000000000000604082015260600190565b60208082526021908201527f636173683a7468652072657365727665206173736574206973206e6f7420455460408201527f4800000000000000000000000000000000000000000000000000000000000000606082015260800190565b6020808252602e908201527f496e697469616c697a61626c653a20636f6e747261637420697320616c72656160408201527f647920696e697469616c697a6564000000000000000000000000000000000000606082015260800190565b6020808252601d908201527f7570646174653a696e76616c69642061756374696f6e206c656e677468000000604082015260600190565b60208082526028908201527f45524332303a207472616e7366657220616d6f756e742065786365656473206160408201527f6c6c6f77616e6365000000000000000000000000000000000000000000000000606082015260800190565b60208082526011908201527f6269643a61756374696f6e20656e646564000000000000000000000000000000604082015260600190565b60208082526024908201527f7570646174653a63616e6e6f7420696e6372656173652066656520746869732060408201527f6869676800000000000000000000000000000000000000000000000000000000606082015260800190565b6020808252818101527f6269643a7468652072657365727665206173736574206973206e6f7420455448604082015260600190565b60208082526021908201527f45524332303a206275726e2066726f6d20746865207a65726f2061646472657360408201527f7300000000000000000000000000000000000000000000000000000000000000606082015260800190565b60208082526025908201527f45524332303a207472616e736665722066726f6d20746865207a65726f20616460408201527f6472657373000000000000000000000000000000000000000000000000000000606082015260800190565b6020808252600e908201527f72656d6f76653a6e6f7420676f76000000000000000000000000000000000000604082015260600190565b60208082526024908201527f45524332303a20617070726f76652066726f6d20746865207a65726f2061646460408201527f7265737300000000000000000000000000000000000000000000000000000000606082015260800190565b6020808252601d908201527f416464726573733a2063616c6c20746f206e6f6e2d636f6e7472616374000000604082015260600190565b6020808252601c908201527f656e643a7661756c742068617320616c726561647920636c6f73656400000000604082015260600190565b60208082526025908201527f636c61696d3a63616e6e6f7420636c61696d2061667465722061756374696f6e60408201527f20656e6473000000000000000000000000000000000000000000000000000000606082015260800190565b6020808252600f908201527f6269643a746f6f206c6f77206269640000000000000000000000000000000000604082015260600190565b6020808252601d908201527f7570646174653a7265736572766520707269636520746f6f2068696768000000604082015260600190565b60208082526027908201527f7570646174653a61756374696f6e206c6976652063616e6e6f7420757064617460408201527f6520707269636500000000000000000000000000000000000000000000000000606082015260800190565b6020808252602a908201527f5361666545524332303a204552433230206f7065726174696f6e20646964206e60408201527f6f74207375636365656400000000000000000000000000000000000000000000606082015260800190565b6020808252601e908201527f73746172743a7468652072657365727665206173736574206973204554480000604082015260600190565b60208082526014908201527f7570646174653a6e6f7420616e20757064617465000000000000000000000000604082015260600190565b60208082526025908201527f45524332303a2064656372656173656420616c6c6f77616e63652062656c6f7760408201527f207a65726f000000000000000000000000000000000000000000000000000000606082015260800190565b6020808252601d908201527f6269643a636865636b2074686520746f6b656e20616c6c6f77616e6365000000604082015260600190565b6020808252601f908201527f45524332303a206d696e7420746f20746865207a65726f206164647265737300604082015260600190565b60208082526019908201527f636173683a7661756c74206e6f7420636c6f7365642079657400000000000000604082015260600190565b60ff91909116815260200190565b6000821982111562004e4d5762004e4d62004f21565b500190565b60008262004e715760e060020a634e487b710281526012600452602481fd5b500490565b600081600019048311821515161562004e935762004e9362004f21565b500290565b60008282101562004ead5762004ead62004f21565b500390565b60005b8381101562004ecf57818101518382015260200162004eb5565b8381111562002e0d5750506000910152565b60028104600182168062004ef657607f821691505b6020821081141562004f1b5760e060020a634e487b7102600052602260045260246000fd5b50919050565b60e060020a634e487b7102600052601160045260246000fd5b60e060020a634e487b7102600052604160045260246000fd5b600160a060020a0381168114620036b257600080fdfe60e0604052601b60a08190527f68747470733a2f2f7572692e6672616374696f6e616c2e6172742f000000000060c0908152620000409160079190620001c5565b503480156200004e57600080fd5b50604051620012b5380380620012b583398101604081905262000071916200031e565b815162000086906004906020850190620001c5565b5080516200009c906005906020840190620001c5565b506c010000000000000000000000003302608052620000e47f80ac58cd0000000000000000000000000000000000000000000000000000000064010000000062000120810204565b620001187f5b5e139f0000000000000000000000000000000000000000000000000000000064010000000062000120810204565b505062000441565b7fffffffff00000000000000000000000000000000000000000000000000000000808216141562000188576040517f08c379a00000000000000000000000000000000000000000000000000000000081526004016200017f9062000385565b60405180910390fd5b7fffffffff00000000000000000000000000000000000000000000000000000000166000908152602081905260409020805460ff19166001179055565b828054620001d390620003bc565b90600052602060002090601f016020900481019282620001f7576000855562000242565b82601f106200021257805160ff191683800117855562000242565b8280016001018555821562000242579182015b828111156200024257825182559160200191906001019062000225565b506200025092915062000254565b5090565b5b8082111562000250576000815560010162000255565b600082601f8301126200027c578081fd5b81516001604060020a038082111562000299576200029962000412565b604051601f8301601f19908116603f01168101908282118183101715620002c457620002c462000412565b81604052838152602092508683858801011115620002e0578485fd5b8491505b83821015620003035785820183015181830184015290820190620002e4565b838211156200031457848385830101525b9695505050505050565b6000806040838503121562000331578182fd5b82516001604060020a038082111562000348578384fd5b62000356868387016200026b565b935060208501519150808211156200036c578283fd5b506200037b858286016200026b565b9150509250929050565b6020808252601c908201527f4552433136353a20696e76616c696420696e7465726661636520696400000000604082015260600190565b600281046001821680620003d157607f821691505b602082108114156200040c577f4e487b7100000000000000000000000000000000000000000000000000000000600052602260045260246000fd5b50919050565b7f4e487b7100000000000000000000000000000000000000000000000000000000600052604160045260246000fd5b6080516c010000000000000000000000009004610e3a6200047b60003960008181610367015281816104ce015261067b0152610e3a6000f3fe608060405234801561001057600080fd5b5060043610610128576000357c0100000000000000000000000000000000000000000000000000000000900480636c0360eb116100bf578063a22cb4651161008e578063a22cb46514610217578063b88d4fde14610225578063c87b56dd14610233578063e985e9c514610246578063fbfa77cf1461025957610128565b80636c0360eb146101d457806370a08231146101dc57806389afcb44146101fc57806395d89b411461020f57610128565b806323b872dd116100fb57806323b872dd146101a057806342842e0e146101a05780636352211e146101ae5780636a627842146101c157610128565b806301ffc9a71461012d57806306fdde0314610156578063081812fc1461016b578063095ea7b31461018b575b600080fd5b61014061013b366004610b44565b610261565b60405161014d9190610bdc565b60405180910390f35b61015e6102ad565b60405161014d9190610be7565b61017e610179366004610b81565b61033b565b60405161014d9190610bc8565b61019e610199366004610b1b565b610128565b005b61019e6101993660046109d1565b61017e6101bc366004610b81565b610341565b61019e6101cf36600461097e565b61035c565b61015e6103b5565b6101ef6101ea36600461097e565b610447565b60405161014d9190610cd4565b61019e61020a36600461097e565b6104c3565b61015e610501565b61019e610199366004610ae1565b61019e610199366004610a0c565b61015e610241366004610b81565b610514565b61014061025436600461099f565b610671565b61017e610679565b600061026c8261069d565b806102a557507bffffffffffffffffffffffffffffffffffffffffffffffffffffffff19821660009081526020819052604090205460ff165b90505b919050565b600480546102ba90610d4c565b80601f01602080910402602001604051908101604052809291908181526020018280546102e690610d4c565b80156103335780601f1061030857610100808354040283529160200191610333565b820191906000526020600020905b81548152906001019060200180831161031657829003601f168201915b505050505081565b50600090565b600090815260036020526040902054600160a060020a031690565b33600160a060020a037f0000000000000000000000000000000000000000000000000000000000000000161461039157600080fd5b600180549060006103a183610d8a565b91905055506103b2816001546106e4565b50565b6060600780546103c490610d4c565b80601f01602080910402602001604051908101604052809291908181526020018280546103f090610d4c565b801561043d5780601f106104125761010080835404028352916020019161043d565b820191906000526020600020905b81548152906001019060200180831161042057829003601f168201915b5050505050905090565b6000600160a060020a038216610492576040517f08c379a000000000000000000000000000000000000000000000000000000000815260040161048990610c1a565b60405180910390fd5b600160a060020a038216600090815260026020526040902054156104b75760016104ba565b60005b60ff1692915050565b33600160a060020a037f000000000000000000000000000000000000000000000000000000000000000016146104f857600080fd5b6103b281610758565b600580546102ba90610d4c565b50505050565b606061051f826107ce565b610555576040517f08c379a000000000000000000000000000000000000000000000000000000000815260040161048990610c77565b6000828152600660205260408120805461056e90610d4c565b80601f016020809104026020016040519081016040528092919081815260200182805461059a90610d4c565b80156105e75780601f106105bc576101008083540402835291602001916105e7565b820191906000526020600020905b8154815290600101906020018083116105ca57829003601f168201915b5050505050905060006105f86103b5565b905080516000141561060c575090506102a8565b81511561063e578082604051602001610626929190610b99565b604051602081830303815290604052925050506102a8565b80610648856107eb565b604051602001610659929190610b99565b60405160208183030381529060405292505050919050565b600092915050565b7f000000000000000000000000000000000000000000000000000000000000000081565b7bffffffffffffffffffffffffffffffffffffffffffffffffffffffff1981167f01ffc9a70000000000000000000000000000000000000000000000000000000014919050565b600160a060020a03821660008181526002602090815260408083208590558483526003909152808220805473ffffffffffffffffffffffffffffffffffffffff19168417905551839291907fddf252ad1be2c89b69c2b068fc378daa952ba7f163c4a11628f55a4df523b3ef908290a45050565b600160a060020a03811660008181526002602090815260408083208054908490558084526003909252808320805473ffffffffffffffffffffffffffffffffffffffff191690555190928392917fddf252ad1be2c89b69c2b068fc378daa952ba7f163c4a11628f55a4df523b3ef908390a45050565b600090815260036020526040902054600160a060020a0316151590565b60608161082c575060408051808201909152600181527f300000000000000000000000000000000000000000000000000000000000000060208201526102a8565b8160005b8115610856578061084081610d8a565b915061084f9050600a83610cf5565b9150610830565b60008167ffffffffffffffff8111156108825760e060020a634e487b7102600052604160045260246000fd5b6040519080825280601f01601f1916602001820160405280156108ac576020820181803683370190505b5090505b841561095f576108c1600183610d09565b91506108ce600a86610da5565b6108d9906030610cdd565b7f01000000000000000000000000000000000000000000000000000000000000000281838151811061091e5760e060020a634e487b7102600052603260045260246000fd5b60200101907effffffffffffffffffffffffffffffffffffffffffffffffffffffffffffff1916908160001a905350610958600a86610cf5565b94506108b0565b949350505050565b8035600160a060020a03811681146102a857600080fd5b60006020828403121561098f578081fd5b61099882610967565b9392505050565b600080604083850312156109b1578081fd5b6109ba83610967565b91506109c860208401610967565b90509250929050565b6000806000606084860312156109e5578081fd5b6109ee84610967565b92506109fc60208501610967565b9150604084013590509250925092565b60008060008060808587031215610a21578081fd5b610a2a85610967565b9350610a3860208601610967565b925060408501359150606085013567ffffffffffffffff80821115610a5b578283fd5b818701915087601f830112610a6e578283fd5b813581811115610a8057610a80610deb565b604051601f8201601f19908116603f01168101908382118183101715610aa857610aa8610deb565b816040528281528a6020848701011115610ac0578586fd5b82602086016020830137918201602001949094529598949750929550505050565b60008060408385031215610af3578182fd5b610afc83610967565b915060208301358015158114610b10578182fd5b809150509250929050565b60008060408385031215610b2d578182fd5b610b3683610967565b946020939093013593505050565b600060208284031215610b55578081fd5b81357bffffffffffffffffffffffffffffffffffffffffffffffffffffffff1981168114610998578182fd5b600060208284031215610b92578081fd5b5035919050565b60008351610bab818460208801610d20565b835190830190610bbf818360208801610d20565b01949350505050565b600160a060020a0391909116815260200190565b901515815260200190565b6000602082528251806020840152610c06816040850160208701610d20565b601f01601f19169190910160400192915050565b6020808252602a908201527f4552433732313a2062616c616e636520717565727920666f7220746865207a6560408201527f726f206164647265737300000000000000000000000000000000000000000000606082015260800190565b6020808252602f908201527f4552433732314d657461646174613a2055524920717565727920666f72206e6f60408201527f6e6578697374656e7420746f6b656e0000000000000000000000000000000000606082015260800190565b90815260200190565b60008219821115610cf057610cf0610db9565b500190565b600082610d0457610d04610dd2565b500490565b600082821015610d1b57610d1b610db9565b500390565b60005b83811015610d3b578181015183820152602001610d23565b8381111561050e5750506000910152565b600281046001821680610d6057607f821691505b60208210811415610d845760e060020a634e487b7102600052602260045260246000fd5b50919050565b6000600019821415610d9e57610d9e610db9565b5060010190565b600082610db457610db4610dd2565b500690565b60e060020a634e487b7102600052601160045260246000fd5b60e060020a634e487b7102600052601260045260246000fd5b60e060020a634e487b7102600052604160045260246000fdfea2646970667358221220cb9d68c4c3bd228480ba98f4b28c2b98075a1f2d0b38da591910df9ef3894c5964736f6c63430008010033a2646970667358221220c10bfaf4df7d46b3854fe95530bd3748be49ea5663314541c616f5cfd28df1b164736f6c63430008010033",
  "immutableReferences": {
    "3735": [
      {
        "length": 32,
        "start": 2714
      },
      {
        "length": 32,
        "start": 2968
      },
      {
        "length": 32,
        "start": 3133
      },
      {
        "length": 32,
        "start": 3926
      },
      {
        "length": 32,
        "start": 5024
      },
      {
        "length": 32,
        "start": 5247
      },
      {
        "length": 32,
        "start": 5676
      },
      {
        "length": 32,
        "start": 5899
      },
      {
        "length": 32,
        "start": 6302
      },
      {
        "length": 32,
        "start": 6867
      },
      {
        "length": 32,
        "start": 7465
      },
      {
        "length": 32,
        "start": 8956
      },
      {
        "length": 32,
        "start": 9587
      },
      {
        "length": 32,
        "start": 10275
      },
      {
        "length": 32,
        "start": 10515
      },
      {
        "length": 32,
        "start": 12880
      },
      {
        "length": 32,
        "start": 13038
      }
    ]
  },
  "source": "//SPDX-License-Identifier: MIT\npragma solidity ^0.8.0;\n\nimport \"./Interfaces/IWETH.sol\";\nimport \"@openzeppelin/contracts/utils/math/Math.sol\";\nimport \"@openzeppelin/contracts/token/ERC20/ERC20.sol\";\nimport \"@openzeppelin/contracts/token/ERC20/utils/SafeERC20.sol\";\nimport \"@openzeppelin/contracts/token/ERC721/ERC721.sol\";\nimport \"@openzeppelin/contracts/token/ERC721/utils/ERC721Holder.sol\";\nimport \"@openzeppelin/contracts-upgradeable/token/ERC721/utils/ERC721HolderUpgradeable.sol\";\nimport \"@openzeppelin/contracts-upgradeable/token/ERC20/ERC20Upgradeable.sol\";\n\nimport \"./Settings.sol\";\nimport \"./FNFT.sol\";\n\ncontract TokenVault is ERC20Upgradeable, ERC721HolderUpgradeable {\n    using SafeERC20 for ERC20;\n    using Address for address;\n\n    /// -----------------------------------\n    /// -------- BASIC INFORMATION --------\n    /// -----------------------------------\n\n    /// @notice weth address\n    address public constant weth = 0xC02aaA39b223FE8D0A0e5C4F27eAD9083C756Cc2;\n\n    /// -----------------------------------\n    /// -------- TOKEN INFORMATION --------\n    /// -----------------------------------\n\n    /// @notice the ERC721 token address of the vault's token\n    address public token;\n\n    /// @notice the ERC721 token ID of the vault's token\n    uint256 public id;\n\n    /// -------------------------------------\n    /// -------- AUCTION INFORMATION --------\n    /// -------------------------------------\n\n    /// @notice the unix timestamp end time of the token auction\n    uint256 public auctionEnd;\n\n    /// @notice the length of auctions\n    uint256 public auctionLength;\n\n    /// @notice reservePrice * votingTokens\n    uint256 public reserveTotal;\n\n    /// @notice the current price of the token during an auction\n    uint256 public livePrice;\n\n    /// @notice the current user winning the token auction\n    address payable public winning;\n\n    enum State {\n        inactive,\n        live,\n        ended,\n        redeemed\n    }\n\n    State public auctionState;\n\n    /// -----------------------------------\n    /// -------- VAULT INFORMATION --------\n    /// -----------------------------------\n\n    /// @notice the governance contract which gets paid in ETH\n    address public immutable settings;\n\n    /// @notice the address who initially deposited the NFT\n    address public curator;\n\n    /// @notice a boolean to indicate if the reserve asset is ETH or not\n    bool public withETH;\n\n    /// @notice the reserve asset token ERC20\n    ERC20 public asset;\n\n    /// @notice the AUM fee paid to the curator yearly. 3 decimals. ie. 100 = 10%\n    uint256 public fee;\n\n    /// @notice the last timestamp where fees were claimed\n    uint256 public lastClaimed;\n\n    /// @notice a boolean to indicate if the vault has closed\n    bool public vaultClosed;\n\n    /// @notice the number of ownership tokens voting on the reserve price at any given time\n    uint256 public votingTokens;\n\n    /// @notice a mapping of users to their desired token price\n    mapping(address => uint256) public userPrices;\n\n    /// @notice a non transferable NFT\n    FNFT public nft;\n\n    /// ------------------------\n    /// -------- EVENTS --------\n    /// ------------------------\n\n    /// @notice An event emitted when a user updates their price\n    event PriceUpdate(address indexed user, uint256 price);\n\n    /// @notice An event emitted when an auction starts\n    event Start(address indexed buyer, uint256 price);\n\n    /// @notice An event emitted when a bid is made\n    event Bid(address indexed buyer, uint256 price);\n\n    /// @notice An event emitted when an auction is won\n    event Won(address indexed buyer, uint256 price);\n\n    /// @notice An event emitted when someone redeems all tokens for the NFT\n    event Redeem(address indexed redeemer);\n\n    /// @notice An event emitted when someone cashes in ERC20 tokens for ETH from an ERC721 token sale\n    event Cash(address indexed owner, uint256 shares);\n\n    constructor(address _settings) {\n        settings = _settings;\n    }\n\n    function initialize(\n        address _curator,\n        address _token,\n        uint256 _id,\n        uint256 _supply,\n        uint256 _listPrice,\n        uint256 _fee,\n        string memory _name,\n        string memory _symbol,\n        address _asset\n    ) external initializer {\n        // initialize inherited contracts\n\n        bool _withETH = _asset == address(0);\n        require(\n            _withETH || ISettings(settings).assetWhitelisted(_asset),\n            \"initializer: asset token is not whitelisted\"\n        );\n\n        __ERC20_init(_name, _symbol);\n        __ERC721Holder_init();\n        nft = new FNFT(_name, _symbol);\n        // set storage variables\n        token = _token;\n        id = _id;\n        reserveTotal = _listPrice * _supply;\n        auctionLength = 7 days;\n        curator = _curator;\n        withETH = _withETH;\n        if (!withETH) {\n            asset = ERC20(_asset);\n        }\n        fee = _fee;\n        lastClaimed = block.timestamp;\n        votingTokens = _listPrice == 0 ? 0 : _supply;\n\n        auctionState = State.inactive;\n\n        _mint(_curator, _supply);\n        userPrices[_curator] = _listPrice;\n    }\n\n    /// --------------------------------\n    /// -------- VIEW FUNCTIONS --------\n    /// --------------------------------\n\n    function reservePrice() public view returns (uint256) {\n        return votingTokens == 0 ? 0 : reserveTotal / votingTokens;\n    }\n\n    /// -------------------------------\n    /// -------- GOV FUNCTIONS --------\n    /// -------------------------------\n\n    /// @notice allow governance to boot a bad actor curator\n    /// @param _curator the new curator\n    function kickCurator(address _curator) external {\n        require(msg.sender == Ownable(settings).owner(), \"kick:not gov\");\n\n        curator = _curator;\n    }\n\n    /// @notice allow governance to remove bad reserve prices\n    function removeReserve(address _user) external {\n        require(msg.sender == Ownable(settings).owner(), \"remove:not gov\");\n        require(\n            auctionState == State.inactive,\n            \"update:auction live cannot update price\"\n        );\n\n        uint256 old = userPrices[_user];\n        require(0 != old, \"update:not an update\");\n        uint256 weight = balanceOf(_user);\n\n        votingTokens -= weight;\n        reserveTotal -= weight * old;\n\n        userPrices[_user] = 0;\n\n        emit PriceUpdate(_user, 0);\n    }\n\n    /// -----------------------------------\n    /// -------- CURATOR FUNCTIONS --------\n    /// -----------------------------------\n\n    /// @notice allow curator to update the curator address\n    /// @param _curator the new curator\n    function updateCurator(address _curator) external {\n        require(msg.sender == curator, \"update:not curator\");\n\n        curator = _curator;\n    }\n\n    /// @notice allow curator to update the auction length\n    /// @param _length the new base price\n    function updateAuctionLength(uint256 _length) external {\n        require(msg.sender == curator, \"update:not curator\");\n        require(\n            _length >= ISettings(settings).minAuctionLength() &&\n                _length <= ISettings(settings).maxAuctionLength(),\n            \"update:invalid auction length\"\n        );\n\n        auctionLength = _length;\n    }\n\n    /// @notice allow the curator to change their fee\n    /// @param _fee the new fee\n    function updateFee(uint256 _fee) external {\n        require(msg.sender == curator, \"update:not curator\");\n        require(\n            _fee <= ISettings(settings).maxCuratorFee(),\n            \"update:cannot increase fee this high\"\n        );\n\n        _claimFees();\n\n        fee = _fee;\n    }\n\n    /// @notice external function to claim fees for the curator and governance\n    function claimFees() external {\n        _claimFees();\n    }\n\n    /// @dev interal fuction to calculate and mint fees\n    function _claimFees() internal {\n        require(\n            auctionState != State.ended,\n            \"claim:cannot claim after auction ends\"\n        );\n\n        // get how much in fees the curator would make in a year\n        uint256 currentAnnualFee = (fee * totalSupply()) / 1000;\n        // get how much that is per second;\n        uint256 feePerSecond = currentAnnualFee / 31536000;\n        // get how many seconds they are eligible to claim\n        uint256 sinceLastClaim = block.timestamp - lastClaimed;\n        // get the amount of tokens to mint\n        uint256 curatorMint = sinceLastClaim * feePerSecond;\n\n        // now lets do the same for governance\n        address govAddress = ISettings(settings).feeReceiver();\n        uint256 govFee = ISettings(settings).governanceFee();\n        currentAnnualFee = (govFee * totalSupply()) / 1000;\n        feePerSecond = currentAnnualFee / 31536000;\n        uint256 govMint = sinceLastClaim * feePerSecond;\n\n        lastClaimed = block.timestamp;\n\n        _mint(curator, curatorMint);\n        _mint(govAddress, govMint);\n    }\n\n    /// --------------------------------\n    /// -------- CORE FUNCTIONS --------\n    /// --------------------------------\n\n    /// @notice a function for an end user to update their desired sale price\n    /// @param _new the desired price in ETH\n    function updateUserPrice(uint256 _new) external {\n        require(\n            auctionState == State.inactive,\n            \"update:auction live cannot update price\"\n        );\n        uint256 old = userPrices[msg.sender];\n        require(_new != old, \"update:not an update\");\n        uint256 weight = balanceOf(msg.sender);\n\n        if (votingTokens == 0) {\n            votingTokens = weight;\n            reserveTotal = weight * _new;\n        }\n        // they are the only one voting\n        else if (weight == votingTokens && old != 0) {\n            reserveTotal = weight * _new;\n        }\n        // previously they were not voting\n        else if (old == 0) {\n            uint256 averageReserve = reserveTotal / votingTokens;\n\n            uint256 reservePriceMin = (averageReserve *\n                ISettings(settings).minReserveFactor()) / 1000;\n            require(_new >= reservePriceMin, \"update:reserve price too low\");\n            uint256 reservePriceMax = (averageReserve *\n                ISettings(settings).maxReserveFactor()) / 1000;\n            require(_new <= reservePriceMax, \"update:reserve price too high\");\n\n            votingTokens += weight;\n            reserveTotal += weight * _new;\n        }\n        // they no longer want to vote\n        else if (_new == 0) {\n            votingTokens -= weight;\n            reserveTotal -= weight * old;\n        }\n        // they are updating their vote\n        else {\n            uint256 averageReserve = (reserveTotal - (old * weight)) /\n                (votingTokens - weight);\n\n            uint256 reservePriceMin = (averageReserve *\n                ISettings(settings).minReserveFactor()) / 1000;\n            require(_new >= reservePriceMin, \"update:reserve price too low\");\n            uint256 reservePriceMax = (averageReserve *\n                ISettings(settings).maxReserveFactor()) / 1000;\n            require(_new <= reservePriceMax, \"update:reserve price too high\");\n\n            reserveTotal = reserveTotal + (weight * _new) - (weight * old);\n        }\n\n        userPrices[msg.sender] = _new;\n\n        emit PriceUpdate(msg.sender, _new);\n    }\n\n    /// @notice an internal function used to update sender and receivers price on token transfer\n    /// @param _from the ERC20 token sender\n    /// @param _to the ERC20 token receiver\n    /// @param _amount the ERC20 token amount\n    function _beforeTokenTransfer(\n        address _from,\n        address _to,\n        uint256 _amount\n    ) internal virtual override {\n        // burn their NFT\n        if (balanceOf(_from) == _amount) {\n            nft.burn(_from);\n        }\n        // mint them an NFT\n        if (balanceOf(_to) == 0) {\n            nft.mint(_to);\n        }\n        if (_from != address(0) && auctionState == State.inactive) {\n            uint256 fromPrice = userPrices[_from];\n            uint256 toPrice = userPrices[_to];\n\n            // only do something if users have different reserve price\n            if (toPrice != fromPrice) {\n                // new holder is not a voter\n                if (toPrice == 0) {\n                    // get the average reserve price ignoring the senders amount\n                    votingTokens -= _amount;\n                    reserveTotal -= _amount * fromPrice;\n                }\n                // old holder is not a voter\n                else if (fromPrice == 0) {\n                    votingTokens += _amount;\n                    reserveTotal += _amount * toPrice;\n                }\n                // both holders are voters\n                else {\n                    reserveTotal =\n                        reserveTotal +\n                        (_amount * toPrice) -\n                        (_amount * fromPrice);\n                }\n            }\n        }\n    }\n\n    /// @notice kick off an auction. Must send reservePrice in ETH\n    function startWithETH() external payable {\n        require(withETH, \"start:the reserve asset is not ETH\");\n        require(auctionState == State.inactive, \"start:no auction starts\");\n        require(msg.value >= reservePrice(), \"start:too low bid\");\n        require(\n            votingTokens * 1000 >=\n                ISettings(settings).minVotePercentage() * totalSupply(),\n            \"start:not enough voters\"\n        );\n\n        auctionEnd = block.timestamp + auctionLength;\n        auctionState = State.live;\n\n        livePrice = msg.value;\n        winning = payable(msg.sender);\n\n        emit Start(msg.sender, msg.value);\n    }\n\n    /// @notice kick off an auction. Must send reservePrice in asset\n    function start(uint256 amount) external {\n        require(!withETH, \"start:the reserve asset is ETH\");\n        require(auctionState == State.inactive, \"start:no auction starts\");\n        require(amount >= reservePrice(), \"start:too low bid\");\n        uint256 allowance = asset.allowance(msg.sender, address(this));\n        require(allowance >= amount, \"start:check the token allowance\");\n        require(\n            votingTokens * 1000 >=\n                ISettings(settings).minVotePercentage() * totalSupply(),\n            \"start:not enough voters\"\n        );\n        asset.safeTransferFrom(msg.sender, address(this), amount);\n\n        auctionEnd = block.timestamp + auctionLength;\n        auctionState = State.live;\n\n        livePrice = amount;\n        winning = payable(msg.sender);\n\n        emit Start(msg.sender, amount);\n    }\n\n    /// @notice an external function to bid on purchasing the vaults NFT. The msg.value is the bid amount\n    function bidWithETH() external payable {\n        require(withETH, \"bid:the reserve asset is not ETH\");\n        require(auctionState == State.live, \"bid:auction is not live\");\n        uint256 increase = ISettings(settings).minBidIncrease() + 1000;\n        require(msg.value * 1000 >= livePrice * increase, \"bid:too low bid\");\n        require(block.timestamp < auctionEnd, \"bid:auction ended\");\n\n        // If bid is within 15 minutes of auction end, extend auction\n        if (auctionEnd - block.timestamp <= 15 minutes) {\n            auctionEnd += 15 minutes;\n        }\n\n        _sendWETH(winning, livePrice);\n\n        livePrice = msg.value;\n        winning = payable(msg.sender);\n\n        emit Bid(msg.sender, msg.value);\n    }\n\n    /// @notice an external function to bid on purchasing the vaults NFT. bid with asset ERC20 token\n    function bid(uint256 amount) external {\n        require(!withETH, \"start:the reserve asset is ETH\");\n        require(auctionState == State.live, \"bid:auction is not live\");\n        uint256 increase = ISettings(settings).minBidIncrease() + 1000;\n        require(amount * 1000 >= livePrice * increase, \"bid:too low bid\");\n        uint256 allowance = asset.allowance(msg.sender, address(this));\n        require(allowance >= amount, \"bid:check the token allowance\");\n        require(block.timestamp < auctionEnd, \"bid:auction ended\");\n        asset.safeTransferFrom(msg.sender, address(this), amount);\n\n        // If bid is within 15 minutes of auction end, extend auction\n        if (auctionEnd - block.timestamp <= 15 minutes) {\n            auctionEnd += 15 minutes;\n        }\n\n        asset.transfer(winning, livePrice);\n\n        livePrice = amount;\n        winning = payable(msg.sender);\n\n        emit Bid(msg.sender, amount);\n    }\n\n    /// @notice an external function to end an auction after the timer has run out\n    function end() external {\n        require(auctionState == State.live, \"end:vault has already closed\");\n        require(block.timestamp >= auctionEnd, \"end:auction live\");\n\n        _claimFees();\n\n        // transfer erc721 to winner\n        IERC721(token).transferFrom(address(this), winning, id);\n\n        auctionState = State.ended;\n\n        emit Won(winning, livePrice);\n    }\n\n    /// @notice an external function to burn all ERC20 tokens to receive the ERC721 token\n    function redeem() external {\n        require(auctionState == State.inactive, \"redeem:no redeeming\");\n        _burn(msg.sender, totalSupply());\n\n        // transfer erc721 to redeemer\n        IERC721(token).transferFrom(address(this), msg.sender, id);\n\n        auctionState = State.redeemed;\n\n        emit Redeem(msg.sender);\n    }\n\n    /// @notice an external function to burn ERC20 tokens to receive ETH from ERC721 token purchase\n    function cashWithETH() external {\n        require(withETH, \"cash:the reserve asset is not ETH\");\n        require(auctionState == State.ended, \"cash:vault not closed yet\");\n        uint256 bal = balanceOf(msg.sender);\n        require(bal > 0, \"cash:no tokens to cash out\");\n        uint256 share = (bal * address(this).balance) / totalSupply();\n        _burn(msg.sender, bal);\n\n        _sendETHOrWETH(payable(msg.sender), share);\n\n        emit Cash(msg.sender, share);\n    }\n\n    /// @notice an external function to burn ERC20 tokens to receive asset ERC20 tokens from ERC721 token purchase\n    function cash() external {\n        require(!withETH, \"cash:the reserve asset is ETH\");\n        require(auctionState == State.ended, \"cash:vault not closed yet\");\n        uint256 bal = balanceOf(msg.sender);\n        require(bal > 0, \"cash:no tokens to cash out\");\n        uint256 share = (bal * address(this).balance) / totalSupply();\n        _burn(msg.sender, bal);\n\n        asset.transfer(msg.sender, share);\n\n        emit Cash(msg.sender, share);\n    }\n\n    /// @dev internal helper function to send ETH and WETH on failure\n    function _sendWETH(address who, uint256 amount) internal {\n        IWETH(weth).deposit{value: amount}();\n        IWETH(weth).transfer(who, IWETH(weth).balanceOf(address(this)));\n    }\n\n    /// @dev internal helper function to send ETH and WETH on failure\n    function _sendETHOrWETH(address who, uint256 amount) internal {\n        // contracts get bet WETH because they can be mean\n        if (who.isContract()) {\n            IWETH(weth).deposit{value: amount}();\n            IWETH(weth).transfer(who, IWETH(weth).balanceOf(address(this)));\n        } else {\n            payable(who).transfer(amount);\n        }\n    }\n}\n",
  "sourcePath": "/Users/mac/Documents/Privi/Privi-Polygon/privi-nft-fractionalize/contracts/ERC721TokenVault.sol",
  "compiler": {
    "name": "solc",
    "version": "0.8.1+commit.df193b15.Emscripten.clang"
  },
  "schemaVersion": "3.4.3",
  "updatedAt": "2021-09-06T16:51:28.984Z",
  "devdoc": {
    "kind": "dev",
    "methods": {
      "allowance(address,address)": {
        "details": "See {IERC20-allowance}."
      },
      "approve(address,uint256)": {
        "details": "See {IERC20-approve}. Requirements: - `spender` cannot be the zero address."
      },
      "balanceOf(address)": {
        "details": "See {IERC20-balanceOf}."
      },
      "decimals()": {
        "details": "Returns the number of decimals used to get its user representation. For example, if `decimals` equals `2`, a balance of `505` tokens should be displayed to a user as `5.05` (`505 / 10 ** 2`). Tokens usually opt for a value of 18, imitating the relationship between Ether and Wei. This is the value {ERC20} uses, unless this function is overridden; NOTE: This information is only used for _display_ purposes: it in no way affects any of the arithmetic of the contract, including {IERC20-balanceOf} and {IERC20-transfer}."
      },
      "decreaseAllowance(address,uint256)": {
        "details": "Atomically decreases the allowance granted to `spender` by the caller. This is an alternative to {approve} that can be used as a mitigation for problems described in {IERC20-approve}. Emits an {Approval} event indicating the updated allowance. Requirements: - `spender` cannot be the zero address. - `spender` must have allowance for the caller of at least `subtractedValue`."
      },
      "increaseAllowance(address,uint256)": {
        "details": "Atomically increases the allowance granted to `spender` by the caller. This is an alternative to {approve} that can be used as a mitigation for problems described in {IERC20-approve}. Emits an {Approval} event indicating the updated allowance. Requirements: - `spender` cannot be the zero address."
      },
      "kickCurator(address)": {
        "params": {
          "_curator": "the new curator"
        }
      },
      "name()": {
        "details": "Returns the name of the token."
      },
      "onERC721Received(address,address,uint256,bytes)": {
        "details": "See {IERC721Receiver-onERC721Received}. Always returns `IERC721Receiver.onERC721Received.selector`."
      },
      "symbol()": {
        "details": "Returns the symbol of the token, usually a shorter version of the name."
      },
      "totalSupply()": {
        "details": "See {IERC20-totalSupply}."
      },
      "transfer(address,uint256)": {
        "details": "See {IERC20-transfer}. Requirements: - `recipient` cannot be the zero address. - the caller must have a balance of at least `amount`."
      },
      "transferFrom(address,address,uint256)": {
        "details": "See {IERC20-transferFrom}. Emits an {Approval} event indicating the updated allowance. This is not required by the EIP. See the note at the beginning of {ERC20}. Requirements: - `sender` and `recipient` cannot be the zero address. - `sender` must have a balance of at least `amount`. - the caller must have allowance for ``sender``'s tokens of at least `amount`."
      },
      "updateAuctionLength(uint256)": {
        "params": {
          "_length": "the new base price"
        }
      },
      "updateCurator(address)": {
        "params": {
          "_curator": "the new curator"
        }
      },
      "updateFee(uint256)": {
        "params": {
          "_fee": "the new fee"
        }
      },
      "updateUserPrice(uint256)": {
        "params": {
          "_new": "the desired price in ETH"
        }
      }
    },
    "version": 1
  },
  "userdoc": {
    "events": {
      "Bid(address,uint256)": {
        "notice": "An event emitted when a bid is made"
      },
      "Cash(address,uint256)": {
        "notice": "An event emitted when someone cashes in ERC20 tokens for ETH from an ERC721 token sale"
      },
      "PriceUpdate(address,uint256)": {
        "notice": "An event emitted when a user updates their price"
      },
      "Redeem(address)": {
        "notice": "An event emitted when someone redeems all tokens for the NFT"
      },
      "Start(address,uint256)": {
        "notice": "An event emitted when an auction starts"
      },
      "Won(address,uint256)": {
        "notice": "An event emitted when an auction is won"
      }
    },
    "kind": "user",
    "methods": {
      "asset()": {
        "notice": "the reserve asset token ERC20"
      },
      "auctionEnd()": {
        "notice": "the unix timestamp end time of the token auction"
      },
      "auctionLength()": {
        "notice": "the length of auctions"
      },
      "bid(uint256)": {
        "notice": "an external function to bid on purchasing the vaults NFT. bid with asset ERC20 token"
      },
      "bidWithETH()": {
        "notice": "an external function to bid on purchasing the vaults NFT. The msg.value is the bid amount"
      },
      "cash()": {
        "notice": "an external function to burn ERC20 tokens to receive asset ERC20 tokens from ERC721 token purchase"
      },
      "cashWithETH()": {
        "notice": "an external function to burn ERC20 tokens to receive ETH from ERC721 token purchase"
      },
      "claimFees()": {
        "notice": "external function to claim fees for the curator and governance"
      },
      "curator()": {
        "notice": "the address who initially deposited the NFT"
      },
      "end()": {
        "notice": "an external function to end an auction after the timer has run out"
      },
      "fee()": {
        "notice": "the AUM fee paid to the curator yearly. 3 decimals. ie. 100 = 10%"
      },
      "id()": {
        "notice": "the ERC721 token ID of the vault's token"
      },
      "kickCurator(address)": {
        "notice": "allow governance to boot a bad actor curator"
      },
      "lastClaimed()": {
        "notice": "the last timestamp where fees were claimed"
      },
      "livePrice()": {
        "notice": "the current price of the token during an auction"
      },
      "nft()": {
        "notice": "a non transferable NFT"
      },
      "redeem()": {
        "notice": "an external function to burn all ERC20 tokens to receive the ERC721 token"
      },
      "removeReserve(address)": {
        "notice": "allow governance to remove bad reserve prices"
      },
      "reservePrice()": {
        "notice": "-------------------------------- -------- VIEW FUNCTIONS -------- --------------------------------"
      },
      "reserveTotal()": {
        "notice": "reservePrice * votingTokens"
      },
      "settings()": {
        "notice": "the governance contract which gets paid in ETH"
      },
      "start(uint256)": {
        "notice": "kick off an auction. Must send reservePrice in asset"
      },
      "startWithETH()": {
        "notice": "kick off an auction. Must send reservePrice in ETH"
      },
      "token()": {
        "notice": "the ERC721 token address of the vault's token"
      },
      "updateAuctionLength(uint256)": {
        "notice": "allow curator to update the auction length"
      },
      "updateCurator(address)": {
        "notice": "allow curator to update the curator address"
      },
      "updateFee(uint256)": {
        "notice": "allow the curator to change their fee"
      },
      "updateUserPrice(uint256)": {
        "notice": "a function for an end user to update their desired sale price"
      },
      "userPrices(address)": {
        "notice": "a mapping of users to their desired token price"
      },
      "vaultClosed()": {
        "notice": "a boolean to indicate if the vault has closed"
      },
      "votingTokens()": {
        "notice": "the number of ownership tokens voting on the reserve price at any given time"
      },
      "weth()": {
        "notice": "weth address"
      },
      "winning()": {
        "notice": "the current user winning the token auction"
      },
      "withETH()": {
        "notice": "a boolean to indicate if the reserve asset is ETH or not"
      }
    },
    "version": 1
  }
}