{
  "address": "0xEf95388341EFE831198335A66A2bA08815d4b052",
  "abi": [
    {
      "inputs": [
        {
          "internalType": "address",
          "name": "_factory",
          "type": "address"
        },
        {
          "internalType": "address",
          "name": "_WETH",
          "type": "address"
        }
      ],
      "stateMutability": "nonpayable",
      "type": "constructor"
    },
    {
      "inputs": [],
      "name": "WETH",
      "outputs": [
        {
          "internalType": "address",
          "name": "",
          "type": "address"
        }
      ],
      "stateMutability": "view",
      "type": "function"
    },
    {
      "inputs": [
        {
          "internalType": "address",
          "name": "tokenA",
          "type": "address"
        },
        {
          "internalType": "address",
          "name": "tokenB",
          "type": "address"
        },
        {
          "internalType": "uint256",
          "name": "amountADesired",
          "type": "uint256"
        },
        {
          "internalType": "uint256",
          "name": "amountBDesired",
          "type": "uint256"
        },
        {
          "internalType": "uint256",
          "name": "amountAMin",
          "type": "uint256"
        },
        {
          "internalType": "uint256",
          "name": "amountBMin",
          "type": "uint256"
        },
        {
          "internalType": "address",
          "name": "to",
          "type": "address"
        },
        {
          "internalType": "uint256",
          "name": "deadline",
          "type": "uint256"
        }
      ],
      "name": "addLiquidity",
      "outputs": [
        {
          "internalType": "uint256",
          "name": "amountA",
          "type": "uint256"
        },
        {
          "internalType": "uint256",
          "name": "amountB",
          "type": "uint256"
        },
        {
          "internalType": "uint256",
          "name": "liquidity",
          "type": "uint256"
        }
      ],
      "stateMutability": "nonpayable",
      "type": "function"
    },
    {
      "inputs": [
        {
          "internalType": "address",
          "name": "token",
          "type": "address"
        },
        {
          "internalType": "uint256",
          "name": "amountTokenDesired",
          "type": "uint256"
        },
        {
          "internalType": "uint256",
          "name": "amountTokenMin",
          "type": "uint256"
        },
        {
          "internalType": "uint256",
          "name": "amountETHMin",
          "type": "uint256"
        },
        {
          "internalType": "address",
          "name": "to",
          "type": "address"
        },
        {
          "internalType": "uint256",
          "name": "deadline",
          "type": "uint256"
        }
      ],
      "name": "addLiquidityETH",
      "outputs": [
        {
          "internalType": "uint256",
          "name": "amountToken",
          "type": "uint256"
        },
        {
          "internalType": "uint256",
          "name": "amountETH",
          "type": "uint256"
        },
        {
          "internalType": "uint256",
          "name": "liquidity",
          "type": "uint256"
        }
      ],
      "stateMutability": "payable",
      "type": "function"
    },
    {
      "inputs": [],
      "name": "factory",
      "outputs": [
        {
          "internalType": "address",
          "name": "",
          "type": "address"
        }
      ],
      "stateMutability": "view",
      "type": "function"
    },
    {
      "inputs": [
        {
          "internalType": "uint256",
          "name": "amountOut",
          "type": "uint256"
        },
        {
          "internalType": "uint256",
          "name": "reserveIn",
          "type": "uint256"
        },
        {
          "internalType": "uint256",
          "name": "reserveOut",
          "type": "uint256"
        }
      ],
      "name": "getAmountIn",
      "outputs": [
        {
          "internalType": "uint256",
          "name": "amountIn",
          "type": "uint256"
        }
      ],
      "stateMutability": "pure",
      "type": "function"
    },
    {
      "inputs": [
        {
          "internalType": "uint256",
          "name": "amountIn",
          "type": "uint256"
        },
        {
          "internalType": "uint256",
          "name": "reserveIn",
          "type": "uint256"
        },
        {
          "internalType": "uint256",
          "name": "reserveOut",
          "type": "uint256"
        }
      ],
      "name": "getAmountOut",
      "outputs": [
        {
          "internalType": "uint256",
          "name": "amountOut",
          "type": "uint256"
        }
      ],
      "stateMutability": "pure",
      "type": "function"
    },
    {
      "inputs": [
        {
          "internalType": "uint256",
          "name": "amountOut",
          "type": "uint256"
        },
        {
          "internalType": "address[]",
          "name": "path",
          "type": "address[]"
        }
      ],
      "name": "getAmountsIn",
      "outputs": [
        {
          "internalType": "uint256[]",
          "name": "amounts",
          "type": "uint256[]"
        }
      ],
      "stateMutability": "view",
      "type": "function"
    },
    {
      "inputs": [
        {
          "internalType": "uint256",
          "name": "amountIn",
          "type": "uint256"
        },
        {
          "internalType": "address[]",
          "name": "path",
          "type": "address[]"
        }
      ],
      "name": "getAmountsOut",
      "outputs": [
        {
          "internalType": "uint256[]",
          "name": "amounts",
          "type": "uint256[]"
        }
      ],
      "stateMutability": "view",
      "type": "function"
    },
    {
      "inputs": [],
      "name": "getBlockTimestamp",
      "outputs": [
        {
          "internalType": "uint256",
          "name": "blockNumber",
          "type": "uint256"
        }
      ],
      "stateMutability": "nonpayable",
      "type": "function"
    },
    {
      "inputs": [
        {
          "internalType": "uint256",
          "name": "amountA",
          "type": "uint256"
        },
        {
          "internalType": "uint256",
          "name": "reserveA",
          "type": "uint256"
        },
        {
          "internalType": "uint256",
          "name": "reserveB",
          "type": "uint256"
        }
      ],
      "name": "quote",
      "outputs": [
        {
          "internalType": "uint256",
          "name": "amountB",
          "type": "uint256"
        }
      ],
      "stateMutability": "pure",
      "type": "function"
    },
    {
      "inputs": [
        {
          "internalType": "address",
          "name": "tokenA",
          "type": "address"
        },
        {
          "internalType": "address",
          "name": "tokenB",
          "type": "address"
        },
        {
          "internalType": "uint256",
          "name": "liquidity",
          "type": "uint256"
        },
        {
          "internalType": "uint256",
          "name": "amountAMin",
          "type": "uint256"
        },
        {
          "internalType": "uint256",
          "name": "amountBMin",
          "type": "uint256"
        },
        {
          "internalType": "address",
          "name": "to",
          "type": "address"
        },
        {
          "internalType": "uint256",
          "name": "deadline",
          "type": "uint256"
        }
      ],
      "name": "removeLiquidity",
      "outputs": [
        {
          "internalType": "uint256",
          "name": "amountA",
          "type": "uint256"
        },
        {
          "internalType": "uint256",
          "name": "amountB",
          "type": "uint256"
        }
      ],
      "stateMutability": "nonpayable",
      "type": "function"
    },
    {
      "inputs": [
        {
          "internalType": "address",
          "name": "token",
          "type": "address"
        },
        {
          "internalType": "uint256",
          "name": "liquidity",
          "type": "uint256"
        },
        {
          "internalType": "uint256",
          "name": "amountTokenMin",
          "type": "uint256"
        },
        {
          "internalType": "uint256",
          "name": "amountETHMin",
          "type": "uint256"
        },
        {
          "internalType": "address",
          "name": "to",
          "type": "address"
        },
        {
          "internalType": "uint256",
          "name": "deadline",
          "type": "uint256"
        }
      ],
      "name": "removeLiquidityETH",
      "outputs": [
        {
          "internalType": "uint256",
          "name": "amountToken",
          "type": "uint256"
        },
        {
          "internalType": "uint256",
          "name": "amountETH",
          "type": "uint256"
        }
      ],
      "stateMutability": "nonpayable",
      "type": "function"
    },
    {
      "inputs": [
        {
          "internalType": "address",
          "name": "token",
          "type": "address"
        },
        {
          "internalType": "uint256",
          "name": "liquidity",
          "type": "uint256"
        },
        {
          "internalType": "uint256",
          "name": "amountTokenMin",
          "type": "uint256"
        },
        {
          "internalType": "uint256",
          "name": "amountETHMin",
          "type": "uint256"
        },
        {
          "internalType": "address",
          "name": "to",
          "type": "address"
        },
        {
          "internalType": "uint256",
          "name": "deadline",
          "type": "uint256"
        }
      ],
      "name": "removeLiquidityETHSupportingFeeOnTransferTokens",
      "outputs": [
        {
          "internalType": "uint256",
          "name": "amountETH",
          "type": "uint256"
        }
      ],
      "stateMutability": "nonpayable",
      "type": "function"
    },
    {
      "inputs": [
        {
          "internalType": "address",
          "name": "token",
          "type": "address"
        },
        {
          "internalType": "uint256",
          "name": "liquidity",
          "type": "uint256"
        },
        {
          "internalType": "uint256",
          "name": "amountTokenMin",
          "type": "uint256"
        },
        {
          "internalType": "uint256",
          "name": "amountETHMin",
          "type": "uint256"
        },
        {
          "internalType": "address",
          "name": "to",
          "type": "address"
        },
        {
          "internalType": "uint256",
          "name": "deadline",
          "type": "uint256"
        },
        {
          "internalType": "bool",
          "name": "approveMax",
          "type": "bool"
        },
        {
          "internalType": "uint8",
          "name": "v",
          "type": "uint8"
        },
        {
          "internalType": "bytes32",
          "name": "r",
          "type": "bytes32"
        },
        {
          "internalType": "bytes32",
          "name": "s",
          "type": "bytes32"
        }
      ],
      "name": "removeLiquidityETHWithPermit",
      "outputs": [
        {
          "internalType": "uint256",
          "name": "amountToken",
          "type": "uint256"
        },
        {
          "internalType": "uint256",
          "name": "amountETH",
          "type": "uint256"
        }
      ],
      "stateMutability": "nonpayable",
      "type": "function"
    },
    {
      "inputs": [
        {
          "internalType": "address",
          "name": "token",
          "type": "address"
        },
        {
          "internalType": "uint256",
          "name": "liquidity",
          "type": "uint256"
        },
        {
          "internalType": "uint256",
          "name": "amountTokenMin",
          "type": "uint256"
        },
        {
          "internalType": "uint256",
          "name": "amountETHMin",
          "type": "uint256"
        },
        {
          "internalType": "address",
          "name": "to",
          "type": "address"
        },
        {
          "internalType": "uint256",
          "name": "deadline",
          "type": "uint256"
        },
        {
          "internalType": "bool",
          "name": "approveMax",
          "type": "bool"
        },
        {
          "internalType": "uint8",
          "name": "v",
          "type": "uint8"
        },
        {
          "internalType": "bytes32",
          "name": "r",
          "type": "bytes32"
        },
        {
          "internalType": "bytes32",
          "name": "s",
          "type": "bytes32"
        }
      ],
      "name": "removeLiquidityETHWithPermitSupportingFeeOnTransferTokens",
      "outputs": [
        {
          "internalType": "uint256",
          "name": "amountETH",
          "type": "uint256"
        }
      ],
      "stateMutability": "nonpayable",
      "type": "function"
    },
    {
      "inputs": [
        {
          "internalType": "address",
          "name": "tokenA",
          "type": "address"
        },
        {
          "internalType": "address",
          "name": "tokenB",
          "type": "address"
        },
        {
          "internalType": "uint256",
          "name": "liquidity",
          "type": "uint256"
        },
        {
          "internalType": "uint256",
          "name": "amountAMin",
          "type": "uint256"
        },
        {
          "internalType": "uint256",
          "name": "amountBMin",
          "type": "uint256"
        },
        {
          "internalType": "address",
          "name": "to",
          "type": "address"
        },
        {
          "internalType": "uint256",
          "name": "deadline",
          "type": "uint256"
        },
        {
          "internalType": "bool",
          "name": "approveMax",
          "type": "bool"
        },
        {
          "internalType": "uint8",
          "name": "v",
          "type": "uint8"
        },
        {
          "internalType": "bytes32",
          "name": "r",
          "type": "bytes32"
        },
        {
          "internalType": "bytes32",
          "name": "s",
          "type": "bytes32"
        }
      ],
      "name": "removeLiquidityWithPermit",
      "outputs": [
        {
          "internalType": "uint256",
          "name": "amountA",
          "type": "uint256"
        },
        {
          "internalType": "uint256",
          "name": "amountB",
          "type": "uint256"
        }
      ],
      "stateMutability": "nonpayable",
      "type": "function"
    },
    {
      "inputs": [
        {
          "internalType": "uint256",
          "name": "amountOut",
          "type": "uint256"
        },
        {
          "internalType": "address[]",
          "name": "path",
          "type": "address[]"
        },
        {
          "internalType": "address",
          "name": "to",
          "type": "address"
        },
        {
          "internalType": "uint256",
          "name": "deadline",
          "type": "uint256"
        }
      ],
      "name": "swapETHForExactTokens",
      "outputs": [
        {
          "internalType": "uint256[]",
          "name": "amounts",
          "type": "uint256[]"
        }
      ],
      "stateMutability": "payable",
      "type": "function"
    },
    {
      "inputs": [
        {
          "internalType": "uint256",
          "name": "amountOutMin",
          "type": "uint256"
        },
        {
          "internalType": "address[]",
          "name": "path",
          "type": "address[]"
        },
        {
          "internalType": "address",
          "name": "to",
          "type": "address"
        },
        {
          "internalType": "uint256",
          "name": "deadline",
          "type": "uint256"
        }
      ],
      "name": "swapExactETHForTokens",
      "outputs": [
        {
          "internalType": "uint256[]",
          "name": "amounts",
          "type": "uint256[]"
        }
      ],
      "stateMutability": "payable",
      "type": "function"
    },
    {
      "inputs": [
        {
          "internalType": "uint256",
          "name": "amountOutMin",
          "type": "uint256"
        },
        {
          "internalType": "address[]",
          "name": "path",
          "type": "address[]"
        },
        {
          "internalType": "address",
          "name": "to",
          "type": "address"
        },
        {
          "internalType": "uint256",
          "name": "deadline",
          "type": "uint256"
        }
      ],
      "name": "swapExactETHForTokensSupportingFeeOnTransferTokens",
      "outputs": [],
      "stateMutability": "payable",
      "type": "function"
    },
    {
      "inputs": [
        {
          "internalType": "uint256",
          "name": "amountIn",
          "type": "uint256"
        },
        {
          "internalType": "uint256",
          "name": "amountOutMin",
          "type": "uint256"
        },
        {
          "internalType": "address[]",
          "name": "path",
          "type": "address[]"
        },
        {
          "internalType": "address",
          "name": "to",
          "type": "address"
        },
        {
          "internalType": "uint256",
          "name": "deadline",
          "type": "uint256"
        }
      ],
      "name": "swapExactTokensForETH",
      "outputs": [
        {
          "internalType": "uint256[]",
          "name": "amounts",
          "type": "uint256[]"
        }
      ],
      "stateMutability": "nonpayable",
      "type": "function"
    },
    {
      "inputs": [
        {
          "internalType": "uint256",
          "name": "amountIn",
          "type": "uint256"
        },
        {
          "internalType": "uint256",
          "name": "amountOutMin",
          "type": "uint256"
        },
        {
          "internalType": "address[]",
          "name": "path",
          "type": "address[]"
        },
        {
          "internalType": "address",
          "name": "to",
          "type": "address"
        },
        {
          "internalType": "uint256",
          "name": "deadline",
          "type": "uint256"
        }
      ],
      "name": "swapExactTokensForETHSupportingFeeOnTransferTokens",
      "outputs": [],
      "stateMutability": "nonpayable",
      "type": "function"
    },
    {
      "inputs": [
        {
          "internalType": "uint256",
          "name": "amountIn",
          "type": "uint256"
        },
        {
          "internalType": "uint256",
          "name": "amountOutMin",
          "type": "uint256"
        },
        {
          "internalType": "address[]",
          "name": "path",
          "type": "address[]"
        },
        {
          "internalType": "address",
          "name": "to",
          "type": "address"
        },
        {
          "internalType": "uint256",
          "name": "deadline",
          "type": "uint256"
        }
      ],
      "name": "swapExactTokensForTokens",
      "outputs": [
        {
          "internalType": "uint256[]",
          "name": "amounts",
          "type": "uint256[]"
        }
      ],
      "stateMutability": "nonpayable",
      "type": "function"
    },
    {
      "inputs": [
        {
          "internalType": "uint256",
          "name": "amountIn",
          "type": "uint256"
        },
        {
          "internalType": "uint256",
          "name": "amountOutMin",
          "type": "uint256"
        },
        {
          "internalType": "address[]",
          "name": "path",
          "type": "address[]"
        },
        {
          "internalType": "address",
          "name": "to",
          "type": "address"
        },
        {
          "internalType": "uint256",
          "name": "deadline",
          "type": "uint256"
        }
      ],
      "name": "swapExactTokensForTokensSupportingFeeOnTransferTokens",
      "outputs": [],
      "stateMutability": "nonpayable",
      "type": "function"
    },
    {
      "inputs": [
        {
          "internalType": "uint256",
          "name": "amountOut",
          "type": "uint256"
        },
        {
          "internalType": "uint256",
          "name": "amountInMax",
          "type": "uint256"
        },
        {
          "internalType": "address[]",
          "name": "path",
          "type": "address[]"
        },
        {
          "internalType": "address",
          "name": "to",
          "type": "address"
        },
        {
          "internalType": "uint256",
          "name": "deadline",
          "type": "uint256"
        }
      ],
      "name": "swapTokensForExactETH",
      "outputs": [
        {
          "internalType": "uint256[]",
          "name": "amounts",
          "type": "uint256[]"
        }
      ],
      "stateMutability": "nonpayable",
      "type": "function"
    },
    {
      "inputs": [
        {
          "internalType": "uint256",
          "name": "amountOut",
          "type": "uint256"
        },
        {
          "internalType": "uint256",
          "name": "amountInMax",
          "type": "uint256"
        },
        {
          "internalType": "address[]",
          "name": "path",
          "type": "address[]"
        },
        {
          "internalType": "address",
          "name": "to",
          "type": "address"
        },
        {
          "internalType": "uint256",
          "name": "deadline",
          "type": "uint256"
        }
      ],
      "name": "swapTokensForExactTokens",
      "outputs": [
        {
          "internalType": "uint256[]",
          "name": "amounts",
          "type": "uint256[]"
        }
      ],
      "stateMutability": "nonpayable",
      "type": "function"
    },
    {
      "stateMutability": "payable",
      "type": "receive"
    }
  ],
  "transactionHash": "0x5588445aaba5084d98dfeed0d3497c0f2a5d63710f456a9f1ef97b6a6b666693",
  "args": [
    "0x353CbF87397a420333d6e23F19811b06bD3eE6Cd",
    "0xB89F6a0cB2673D866256bcdeFb32095bD0806494"
  ],
  "solcInputHash": "eda35a3b3acc752f7dbd20825c7113d2",
  "bytecode": "0x60c060405234801561001057600080fd5b506040516200479c3803806200479c8339818101604052604081101561003557600080fd5b5080516020909101516001600160601b0319606092831b8116608052911b1660a05260805160601c60a05160601c614617620001856000398061017a5280610d145280610d4f5280610e46528061106452806113ee5280611554528061191b5280611a155280611acb5280611b9d5280611ce35280611d6b5280611fb0528061202b52806120da52806121a6528061223b52806122af52806127ad5280612a205280612a765280612aaa5280612b1e5280612cbe5280612e015280612e89525080610ed45280610fab528061112a5280611163528061129e528061147c528061153252806116a25280611c305280611d9d5280611f0052806122e1528061253a5280612732528061275b528061278b52806128f85280612a545280612d515280612ebb528061376252806137a55280613a885280613c07528061403752806140e5528061416552506146176000f3fe60806040526004361061016a5760003560e01c806385f8c259116100d1578063baa2abde1161008a578063ded9382a11610064578063ded9382a14610b0a578063e8e3370014610b7d578063f305d71914610bfd578063fb3bdb4114610c43576101a3565b8063baa2abde146109e3578063c45a015514610a40578063d06ca61f14610a55576101a3565b806385f8c259146107d95780638803dbee1461080f578063ad5c4648146108a5578063ad615dec146108d6578063af2979eb1461090c578063b6f9de951461095f576101a3565b80634a25d94a116101235780634a25d94a1461050b5780635b0d5984146105a15780635c11d79514610614578063791ac947146106aa578063796b89b9146107405780637ff36ab514610755576101a3565b806302751cec146101a8578063054d50d41461021457806318cbafe51461025c5780631f00ca74146103425780632195995c146103f757806338ed173914610475576101a3565b366101a357336001600160a01b037f000000000000000000000000000000000000000000000000000000000000000016146101a157fe5b005b600080fd5b3480156101b457600080fd5b506101fb600480360360c08110156101cb57600080fd5b506001600160a01b0381358116916020810135916040820135916060810135916080820135169060a00135610cc7565b6040805192835260208301919091528051918290030190f35b34801561022057600080fd5b5061024a6004803603606081101561023757600080fd5b5080359060208101359060400135610de1565b60408051918252519081900360200190f35b34801561026857600080fd5b506102f2600480360360a081101561027f57600080fd5b813591602081013591810190606081016040820135600160201b8111156102a557600080fd5b8201836020820111156102b757600080fd5b803590602001918460208302840111600160201b831117156102d857600080fd5b91935091506001600160a01b038135169060200135610df6565b60408051602080825283518183015283519192839290830191858101910280838360005b8381101561032e578181015183820152602001610316565b505050509050019250505060405180910390f35b34801561034e57600080fd5b506102f26004803603604081101561036557600080fd5b81359190810190604081016020820135600160201b81111561038657600080fd5b82018360208201111561039857600080fd5b803590602001918460208302840111600160201b831117156103b957600080fd5b919080806020026020016040519081016040528093929190818152602001838360200280828437600092019190915250929550611123945050505050565b34801561040357600080fd5b506101fb600480360361016081101561041b57600080fd5b506001600160a01b038135811691602081013582169160408201359160608101359160808201359160a08101359091169060c08101359060e081013515159060ff6101008201351690610120810135906101400135611159565b34801561048157600080fd5b506102f2600480360360a081101561049857600080fd5b813591602081013591810190606081016040820135600160201b8111156104be57600080fd5b8201836020820111156104d057600080fd5b803590602001918460208302840111600160201b831117156104f157600080fd5b91935091506001600160a01b038135169060200135611253565b34801561051757600080fd5b506102f2600480360360a081101561052e57600080fd5b813591602081013591810190606081016040820135600160201b81111561055457600080fd5b82018360208201111561056657600080fd5b803590602001918460208302840111600160201b8311171561058757600080fd5b91935091506001600160a01b03813516906020013561139e565b3480156105ad57600080fd5b5061024a60048036036101408110156105c557600080fd5b506001600160a01b0381358116916020810135916040820135916060810135916080820135169060a08101359060c081013515159060ff60e0820135169061010081013590610120013561152a565b34801561062057600080fd5b506101a1600480360360a081101561063757600080fd5b813591602081013591810190606081016040820135600160201b81111561065d57600080fd5b82018360208201111561066f57600080fd5b803590602001918460208302840111600160201b8311171561069057600080fd5b91935091506001600160a01b038135169060200135611638565b3480156106b657600080fd5b506101a1600480360360a08110156106cd57600080fd5b813591602081013591810190606081016040820135600160201b8111156106f357600080fd5b82018360208201111561070557600080fd5b803590602001918460208302840111600160201b8311171561072657600080fd5b91935091506001600160a01b0381351690602001356118cd565b34801561074c57600080fd5b5061024a611b51565b6102f26004803603608081101561076b57600080fd5b81359190810190604081016020820135600160201b81111561078c57600080fd5b82018360208201111561079e57600080fd5b803590602001918460208302840111600160201b831117156107bf57600080fd5b91935091506001600160a01b038135169060200135611b55565b3480156107e557600080fd5b5061024a600480360360608110156107fc57600080fd5b5080359060208101359060400135611ea8565b34801561081b57600080fd5b506102f2600480360360a081101561083257600080fd5b813591602081013591810190606081016040820135600160201b81111561085857600080fd5b82018360208201111561086a57600080fd5b803590602001918460208302840111600160201b8311171561088b57600080fd5b91935091506001600160a01b038135169060200135611eb5565b3480156108b157600080fd5b506108ba611fae565b604080516001600160a01b039092168252519081900360200190f35b3480156108e257600080fd5b5061024a600480360360608110156108f957600080fd5b5080359060208101359060400135611fd2565b34801561091857600080fd5b5061024a600480360360c081101561092f57600080fd5b506001600160a01b0381358116916020810135916040820135916060810135916080820135169060a00135611fdf565b6101a16004803603608081101561097557600080fd5b81359190810190604081016020820135600160201b81111561099657600080fd5b8201836020820111156109a857600080fd5b803590602001918460208302840111600160201b831117156109c957600080fd5b91935091506001600160a01b038135169060200135612160565b3480156109ef57600080fd5b506101fb600480360360e0811015610a0657600080fd5b506001600160a01b038135811691602081013582169160408201359160608101359160808201359160a08101359091169060c001356124ec565b348015610a4c57600080fd5b506108ba612730565b348015610a6157600080fd5b506102f260048036036040811015610a7857600080fd5b81359190810190604081016020820135600160201b811115610a9957600080fd5b820183602082011115610aab57600080fd5b803590602001918460208302840111600160201b83111715610acc57600080fd5b919080806020026020016040519081016040528093929190818152602001838360200280828437600092019190915250929550612754945050505050565b348015610b1657600080fd5b506101fb6004803603610140811015610b2e57600080fd5b506001600160a01b0381358116916020810135916040820135916060810135916080820135169060a08101359060c081013515159060ff60e08201351690610100810135906101200135612781565b348015610b8957600080fd5b50610bdf6004803603610100811015610ba157600080fd5b506001600160a01b038135811691602081013582169160408201359160608101359160808201359160a08101359160c0820135169060e00135612895565b60408051938452602084019290925282820152519081900360600190f35b610bdf600480360360c0811015610c1357600080fd5b506001600160a01b0381358116916020810135916040820135916060810135916080820135169060a001356129d1565b6102f260048036036080811015610c5957600080fd5b81359190810190604081016020820135600160201b811115610c7a57600080fd5b820183602082011115610c8c57600080fd5b803590602001918460208302840111600160201b83111715610cad57600080fd5b91935091506001600160a01b038135169060200135612c76565b6000808242811015610d0e576040805162461bcd60e51b815260206004820152601860248201526000805160206145c2833981519152604482015290519081900360640190fd5b610d3d897f00000000000000000000000000000000000000000000000000000000000000008a8a8a308a6124ec565b9093509150610d4d898685612ff8565b7f00000000000000000000000000000000000000000000000000000000000000006001600160a01b0316632e1a7d4d836040518263ffffffff1660e01b815260040180828152602001915050600060405180830381600087803b158015610db357600080fd5b505af1158015610dc7573d6000803e3d6000fd5b50505050610dd58583613162565b50965096945050505050565b6000610dee84848461325a565b949350505050565b60608142811015610e3c576040805162461bcd60e51b815260206004820152601860248201526000805160206145c2833981519152604482015290519081900360640190fd5b6001600160a01b037f00000000000000000000000000000000000000000000000000000000000000001686866000198101818110610e7657fe5b905060200201356001600160a01b03166001600160a01b031614610ecf576040805162461bcd60e51b815260206004820152601d60248201526000805160206144df833981519152604482015290519081900360640190fd5b610f2d7f00000000000000000000000000000000000000000000000000000000000000008988888080602002602001604051908101604052809392919081815260200183836020028082843760009201919091525061334a92505050565b91508682600184510381518110610f4057fe5b60200260200101511015610f855760405162461bcd60e51b815260040180806020018281038252602b815260200180614548602b913960400191505060405180910390fd5b61102386866000818110610f9557fe5b905060200201356001600160a01b0316336110097f00000000000000000000000000000000000000000000000000000000000000008a8a6000818110610fd757fe5b905060200201356001600160a01b03168b8b6001818110610ff457fe5b905060200201356001600160a01b0316613496565b8560008151811061101657fe5b6020026020010151613556565b611062828787808060200260200160405190810160405280939291908181526020018383602002808284376000920191909152503092506136b3915050565b7f00000000000000000000000000000000000000000000000000000000000000006001600160a01b0316632e1a7d4d836001855103815181106110a157fe5b60200260200101516040518263ffffffff1660e01b815260040180828152602001915050600060405180830381600087803b1580156110df57600080fd5b505af11580156110f3573d6000803e3d6000fd5b50505050611118848360018551038151811061110b57fe5b6020026020010151613162565b509695505050505050565b60606111507f000000000000000000000000000000000000000000000000000000000000000084846138f9565b90505b92915050565b60008060006111897f00000000000000000000000000000000000000000000000000000000000000008f8f613496565b9050600087611198578c61119c565b6000195b6040805163d505accf60e01b815233600482015230602482015260448101839052606481018c905260ff8a16608482015260a4810189905260c4810188905290519192506001600160a01b0384169163d505accf9160e48082019260009290919082900301818387803b15801561121257600080fd5b505af1158015611226573d6000803e3d6000fd5b505050506112398f8f8f8f8f8f8f6124ec565b809450819550505050509b509b9950505050505050505050565b60608142811015611299576040805162461bcd60e51b815260206004820152601860248201526000805160206145c2833981519152604482015290519081900360640190fd5b6112f77f00000000000000000000000000000000000000000000000000000000000000008988888080602002602001604051908101604052809392919081815260200183836020028082843760009201919091525061334a92505050565b9150868260018451038151811061130a57fe5b6020026020010151101561134f5760405162461bcd60e51b815260040180806020018281038252602b815260200180614548602b913960400191505060405180910390fd5b61135f86866000818110610f9557fe5b611118828787808060200260200160405190810160405280939291908181526020018383602002808284376000920191909152508992506136b3915050565b606081428110156113e4576040805162461bcd60e51b815260206004820152601860248201526000805160206145c2833981519152604482015290519081900360640190fd5b6001600160a01b037f0000000000000000000000000000000000000000000000000000000000000000168686600019810181811061141e57fe5b905060200201356001600160a01b03166001600160a01b031614611477576040805162461bcd60e51b815260206004820152601d60248201526000805160206144df833981519152604482015290519081900360640190fd5b6114d57f0000000000000000000000000000000000000000000000000000000000000000898888808060200260200160405190810160405280939291908181526020018383602002808284376000920191909152506138f992505050565b915086826000815181106114e557fe5b60200260200101511115610f855760405162461bcd60e51b81526004018080602001828103825260278152602001806144b86027913960400191505060405180910390fd5b6000806115787f00000000000000000000000000000000000000000000000000000000000000008d7f0000000000000000000000000000000000000000000000000000000000000000613496565b9050600086611587578b61158b565b6000195b6040805163d505accf60e01b815233600482015230602482015260448101839052606481018b905260ff8916608482015260a4810188905260c4810187905290519192506001600160a01b0384169163d505accf9160e48082019260009290919082900301818387803b15801561160157600080fd5b505af1158015611615573d6000803e3d6000fd5b505050506116278d8d8d8d8d8d611fdf565b9d9c50505050505050505050505050565b804281101561167c576040805162461bcd60e51b815260206004820152601860248201526000805160206145c2833981519152604482015290519081900360640190fd5b6116f18585600081811061168c57fe5b905060200201356001600160a01b0316336116eb7f0000000000000000000000000000000000000000000000000000000000000000898960008181106116ce57fe5b905060200201356001600160a01b03168a8a6001818110610ff457fe5b8a613556565b60008585600019810181811061170357fe5b905060200201356001600160a01b03166001600160a01b03166370a08231856040518263ffffffff1660e01b815260040180826001600160a01b03166001600160a01b0316815260200191505060206040518083038186803b15801561176857600080fd5b505afa15801561177c573d6000803e3d6000fd5b505050506040513d602081101561179257600080fd5b505160408051602088810282810182019093528882529293506117d4929091899189918291850190849080828437600092019190915250889250613a31915050565b8661188682888860001981018181106117e957fe5b905060200201356001600160a01b03166001600160a01b03166370a08231886040518263ffffffff1660e01b815260040180826001600160a01b03166001600160a01b0316815260200191505060206040518083038186803b15801561184e57600080fd5b505afa158015611862573d6000803e3d6000fd5b505050506040513d602081101561187857600080fd5b50519063ffffffff613d3c16565b10156118c35760405162461bcd60e51b815260040180806020018281038252602b815260200180614548602b913960400191505060405180910390fd5b5050505050505050565b8042811015611911576040805162461bcd60e51b815260206004820152601860248201526000805160206145c2833981519152604482015290519081900360640190fd5b6001600160a01b037f0000000000000000000000000000000000000000000000000000000000000000168585600019810181811061194b57fe5b905060200201356001600160a01b03166001600160a01b0316146119a4576040805162461bcd60e51b815260206004820152601d60248201526000805160206144df833981519152604482015290519081900360640190fd5b6119b48585600081811061168c57fe5b6119f2858580806020026020016040519081016040528093929190818152602001838360200280828437600092019190915250309250613a31915050565b604080516370a0823160e01b815230600482015290516000916001600160a01b037f000000000000000000000000000000000000000000000000000000000000000016916370a0823191602480820192602092909190829003018186803b158015611a5c57600080fd5b505afa158015611a70573d6000803e3d6000fd5b505050506040513d6020811015611a8657600080fd5b5051905086811015611ac95760405162461bcd60e51b815260040180806020018281038252602b815260200180614548602b913960400191505060405180910390fd5b7f00000000000000000000000000000000000000000000000000000000000000006001600160a01b0316632e1a7d4d826040518263ffffffff1660e01b815260040180828152602001915050600060405180830381600087803b158015611b2f57600080fd5b505af1158015611b43573d6000803e3d6000fd5b505050506118c38482613162565b4290565b60608142811015611b9b576040805162461bcd60e51b815260206004820152601860248201526000805160206145c2833981519152604482015290519081900360640190fd5b7f00000000000000000000000000000000000000000000000000000000000000006001600160a01b031686866000818110611bd257fe5b905060200201356001600160a01b03166001600160a01b031614611c2b576040805162461bcd60e51b815260206004820152601d60248201526000805160206144df833981519152604482015290519081900360640190fd5b611c897f00000000000000000000000000000000000000000000000000000000000000003488888080602002602001604051908101604052809392919081815260200183836020028082843760009201919091525061334a92505050565b91508682600184510381518110611c9c57fe5b60200260200101511015611ce15760405162461bcd60e51b815260040180806020018281038252602b815260200180614548602b913960400191505060405180910390fd5b7f00000000000000000000000000000000000000000000000000000000000000006001600160a01b031663d0e30db083600081518110611d1d57fe5b60200260200101516040518263ffffffff1660e01b81526004016000604051808303818588803b158015611d5057600080fd5b505af1158015611d64573d6000803e3d6000fd5b50505050507f00000000000000000000000000000000000000000000000000000000000000006001600160a01b031663a9059cbb611dc97f0000000000000000000000000000000000000000000000000000000000000000898960008181106116ce57fe5b84600081518110611dd657fe5b60200260200101516040518363ffffffff1660e01b815260040180836001600160a01b03166001600160a01b0316815260200182815260200192505050602060405180830381600087803b158015611e2d57600080fd5b505af1158015611e41573d6000803e3d6000fd5b505050506040513d6020811015611e5757600080fd5b5051611e5f57fe5b611e9e828787808060200260200160405190810160405280939291908181526020018383602002808284376000920191909152508992506136b3915050565b5095945050505050565b6000610dee848484613d8c565b60608142811015611efb576040805162461bcd60e51b815260206004820152601860248201526000805160206145c2833981519152604482015290519081900360640190fd5b611f597f0000000000000000000000000000000000000000000000000000000000000000898888808060200260200160405190810160405280939291908181526020018383602002808284376000920191909152506138f992505050565b91508682600081518110611f6957fe5b6020026020010151111561134f5760405162461bcd60e51b81526004018080602001828103825260278152602001806144b86027913960400191505060405180910390fd5b7f000000000000000000000000000000000000000000000000000000000000000081565b6000610dee848484613e7c565b60008142811015612025576040805162461bcd60e51b815260206004820152601860248201526000805160206145c2833981519152604482015290519081900360640190fd5b612054887f000000000000000000000000000000000000000000000000000000000000000089898930896124ec565b604080516370a0823160e01b815230600482015290519194506120d892508a9187916001600160a01b038416916370a0823191602480820192602092909190829003018186803b1580156120a757600080fd5b505afa1580156120bb573d6000803e3d6000fd5b505050506040513d60208110156120d157600080fd5b5051612ff8565b7f00000000000000000000000000000000000000000000000000000000000000006001600160a01b0316632e1a7d4d836040518263ffffffff1660e01b815260040180828152602001915050600060405180830381600087803b15801561213e57600080fd5b505af1158015612152573d6000803e3d6000fd5b505050506111188483613162565b80428110156121a4576040805162461bcd60e51b815260206004820152601860248201526000805160206145c2833981519152604482015290519081900360640190fd5b7f00000000000000000000000000000000000000000000000000000000000000006001600160a01b0316858560008181106121db57fe5b905060200201356001600160a01b03166001600160a01b031614612234576040805162461bcd60e51b815260206004820152601d60248201526000805160206144df833981519152604482015290519081900360640190fd5b60003490507f00000000000000000000000000000000000000000000000000000000000000006001600160a01b031663d0e30db0826040518263ffffffff1660e01b81526004016000604051808303818588803b15801561229457600080fd5b505af11580156122a8573d6000803e3d6000fd5b50505050507f00000000000000000000000000000000000000000000000000000000000000006001600160a01b031663a9059cbb61230d7f0000000000000000000000000000000000000000000000000000000000000000898960008181106116ce57fe5b836040518363ffffffff1660e01b815260040180836001600160a01b03166001600160a01b0316815260200182815260200192505050602060405180830381600087803b15801561235d57600080fd5b505af1158015612371573d6000803e3d6000fd5b505050506040513d602081101561238757600080fd5b505161238f57fe5b6000868660001981018181106123a157fe5b905060200201356001600160a01b03166001600160a01b03166370a08231866040518263ffffffff1660e01b815260040180826001600160a01b03166001600160a01b0316815260200191505060206040518083038186803b15801561240657600080fd5b505afa15801561241a573d6000803e3d6000fd5b505050506040513d602081101561243057600080fd5b505160408051602089810282810182019093528982529293506124729290918a918a918291850190849080828437600092019190915250899250613a31915050565b87611886828989600019810181811061248757fe5b905060200201356001600160a01b03166001600160a01b03166370a08231896040518263ffffffff1660e01b815260040180826001600160a01b03166001600160a01b0316815260200191505060206040518083038186803b15801561184e57600080fd5b6000808242811015612533576040805162461bcd60e51b815260206004820152601860248201526000805160206145c2833981519152604482015290519081900360640190fd5b60006125607f00000000000000000000000000000000000000000000000000000000000000008c8c613496565b604080516323b872dd60e01b81523360048201526001600160a01b03831660248201819052604482018d9052915192935090916323b872dd916064808201926020929091908290030181600087803b1580156125bb57600080fd5b505af11580156125cf573d6000803e3d6000fd5b505050506040513d60208110156125e557600080fd5b50506040805163226bf2d160e21b81526001600160a01b03888116600483015282516000938493928616926389afcb44926024808301939282900301818787803b15801561263257600080fd5b505af1158015612646573d6000803e3d6000fd5b505050506040513d604081101561265c57600080fd5b508051602090910151909250905060006126768e8e613f28565b509050806001600160a01b03168e6001600160a01b03161461269957818361269c565b82825b90975095508a8710156126e05760405162461bcd60e51b81526004018080602001828103825260268152602001806144ff6026913960400191505060405180910390fd5b8986101561271f5760405162461bcd60e51b81526004018080602001828103825260268152602001806144456026913960400191505060405180910390fd5b505050505097509795505050505050565b7f000000000000000000000000000000000000000000000000000000000000000081565b60606111507f0000000000000000000000000000000000000000000000000000000000000000848461334a565b60008060006127d17f00000000000000000000000000000000000000000000000000000000000000008e7f0000000000000000000000000000000000000000000000000000000000000000613496565b90506000876127e0578c6127e4565b6000195b6040805163d505accf60e01b815233600482015230602482015260448101839052606481018c905260ff8a16608482015260a4810189905260c4810188905290519192506001600160a01b0384169163d505accf9160e48082019260009290919082900301818387803b15801561285a57600080fd5b505af115801561286e573d6000803e3d6000fd5b505050506128808e8e8e8e8e8e610cc7565b909f909e509c50505050505050505050505050565b600080600083428110156128de576040805162461bcd60e51b815260206004820152601860248201526000805160206145c2833981519152604482015290519081900360640190fd5b6128ec8c8c8c8c8c8c614006565b9094509250600061291e7f00000000000000000000000000000000000000000000000000000000000000008e8e613496565b905061292c8d338388613556565b6129388c338387613556565b806001600160a01b0316636a627842886040518263ffffffff1660e01b815260040180826001600160a01b03166001600160a01b03168152602001915050602060405180830381600087803b15801561299057600080fd5b505af11580156129a4573d6000803e3d6000fd5b505050506040513d60208110156129ba57600080fd5b5051949d939c50939a509198505050505050505050565b60008060008342811015612a1a576040805162461bcd60e51b815260206004820152601860248201526000805160206145c2833981519152604482015290519081900360640190fd5b612a488a7f00000000000000000000000000000000000000000000000000000000000000008b348c8c614006565b90945092506000612a9a7f00000000000000000000000000000000000000000000000000000000000000008c7f0000000000000000000000000000000000000000000000000000000000000000613496565b9050612aa88b338388613556565b7f00000000000000000000000000000000000000000000000000000000000000006001600160a01b031663d0e30db0856040518263ffffffff1660e01b81526004016000604051808303818588803b158015612b0357600080fd5b505af1158015612b17573d6000803e3d6000fd5b50505050507f00000000000000000000000000000000000000000000000000000000000000006001600160a01b031663a9059cbb82866040518363ffffffff1660e01b815260040180836001600160a01b03166001600160a01b0316815260200182815260200192505050602060405180830381600087803b158015612b9c57600080fd5b505af1158015612bb0573d6000803e3d6000fd5b505050506040513d6020811015612bc657600080fd5b5051612bce57fe5b806001600160a01b0316636a627842886040518263ffffffff1660e01b815260040180826001600160a01b03166001600160a01b03168152602001915050602060405180830381600087803b158015612c2657600080fd5b505af1158015612c3a573d6000803e3d6000fd5b505050506040513d6020811015612c5057600080fd5b5051925034841015612c6857612c6833853403613162565b505096509650969350505050565b60608142811015612cbc576040805162461bcd60e51b815260206004820152601860248201526000805160206145c2833981519152604482015290519081900360640190fd5b7f00000000000000000000000000000000000000000000000000000000000000006001600160a01b031686866000818110612cf357fe5b905060200201356001600160a01b03166001600160a01b031614612d4c576040805162461bcd60e51b815260206004820152601d60248201526000805160206144df833981519152604482015290519081900360640190fd5b612daa7f0000000000000000000000000000000000000000000000000000000000000000888888808060200260200160405190810160405280939291908181526020018383602002808284376000920191909152506138f992505050565b91503482600081518110612dba57fe5b60200260200101511115612dff5760405162461bcd60e51b81526004018080602001828103825260278152602001806144b86027913960400191505060405180910390fd5b7f00000000000000000000000000000000000000000000000000000000000000006001600160a01b031663d0e30db083600081518110612e3b57fe5b60200260200101516040518263ffffffff1660e01b81526004016000604051808303818588803b158015612e6e57600080fd5b505af1158015612e82573d6000803e3d6000fd5b50505050507f00000000000000000000000000000000000000000000000000000000000000006001600160a01b031663a9059cbb612ee77f0000000000000000000000000000000000000000000000000000000000000000898960008181106116ce57fe5b84600081518110612ef457fe5b60200260200101516040518363ffffffff1660e01b815260040180836001600160a01b03166001600160a01b0316815260200182815260200192505050602060405180830381600087803b158015612f4b57600080fd5b505af1158015612f5f573d6000803e3d6000fd5b505050506040513d6020811015612f7557600080fd5b5051612f7d57fe5b612fbc828787808060200260200160405190810160405280939291908181526020018383602002808284376000920191909152508992506136b3915050565b81600081518110612fc957fe5b6020026020010151341115611e9e57611e9e3383600081518110612fe957fe5b60200260200101513403613162565b604080516001600160a01b038481166024830152604480830185905283518084039091018152606490920183526020820180516001600160e01b031663a9059cbb60e01b178152925182516000946060949389169392918291908083835b602083106130755780518252601f199092019160209182019101613056565b6001836020036101000a0380198251168184511680821785525050505050509050019150506000604051808303816000865af19150503d80600081146130d7576040519150601f19603f3d011682016040523d82523d6000602084013e6130dc565b606091505b509150915081801561310a57508051158061310a575080806020019051602081101561310757600080fd5b50515b61315b576040805162461bcd60e51b815260206004820152601f60248201527f5472616e7366657248656c7065723a205452414e534645525f4641494c454400604482015290519081900360640190fd5b5050505050565b604080516000808252602082019092526001600160a01b0384169083906040518082805190602001908083835b602083106131ae5780518252601f19909201916020918201910161318f565b6001836020036101000a03801982511681845116808217855250505050505090500191505060006040518083038185875af1925050503d8060008114613210576040519150601f19603f3d011682016040523d82523d6000602084013e613215565b606091505b50509050806132555760405162461bcd60e51b81526004018080602001828103825260238152602001806145256023913960400191505060405180910390fd5b505050565b600080841161329a5760405162461bcd60e51b815260040180806020018281038252602b815260200180614597602b913960400191505060405180910390fd5b6000831180156132aa5750600082115b6132e55760405162461bcd60e51b815260040180806020018281038252602881526020018061446b6028913960400191505060405180910390fd5b60006132f9856103e563ffffffff61427a16565b9050600061330d828563ffffffff61427a16565b9050600061333383613327886103e863ffffffff61427a16565b9063ffffffff6142dd16565b905080828161333e57fe5b04979650505050505050565b60606002825110156133a3576040805162461bcd60e51b815260206004820152601e60248201527f556e697377617056324c6962726172793a20494e56414c49445f504154480000604482015290519081900360640190fd5b815167ffffffffffffffff811180156133bb57600080fd5b506040519080825280602002602001820160405280156133e5578160200160208202803683370190505b50905082816000815181106133f657fe5b60200260200101818152505060005b600183510381101561348e576000806134488786858151811061342457fe5b602002602001015187866001018151811061343b57fe5b602002602001015161432c565b9150915061346a84848151811061345b57fe5b6020026020010151838361325a565b84846001018151811061347957fe5b60209081029190910101525050600101613405565b509392505050565b60008060006134a58585613f28565b604080516bffffffffffffffffffffffff19606094851b811660208084019190915293851b81166034830152825160288184030181526048830184528051908501206001600160f81b031960688401529a90941b9093166069840152607d8301989098527f96e8ac4277198ff8b6f785478aa9a39f403cb768dd02cbee326c3e7da348845f609d808401919091528851808403909101815260bd909201909752805196019590952095945050505050565b604080516001600160a01b0385811660248301528481166044830152606480830185905283518084039091018152608490920183526020820180516001600160e01b03166323b872dd60e01b17815292518251600094606094938a169392918291908083835b602083106135db5780518252601f1990920191602091820191016135bc565b6001836020036101000a0380198251168184511680821785525050505050509050019150506000604051808303816000865af19150503d806000811461363d576040519150601f19603f3d011682016040523d82523d6000602084013e613642565b606091505b5091509150818015613670575080511580613670575080806020019051602081101561366d57600080fd5b50515b6136ab5760405162461bcd60e51b81526004018080602001828103825260248152602001806145736024913960400191505060405180910390fd5b505050505050565b60005b60018351038110156138f3576000808483815181106136d157fe5b60200260200101518584600101815181106136e857fe5b60200260200101519150915060006137008383613f28565b509050600087856001018151811061371457fe5b60200260200101519050600080836001600160a01b0316866001600160a01b03161461374257826000613746565b6000835b91509150600060028a5103881061375d578861379e565b61379e7f0000000000000000000000000000000000000000000000000000000000000000878c8b6002018151811061379157fe5b6020026020010151613496565b90506137cb7f00000000000000000000000000000000000000000000000000000000000000008888613496565b6001600160a01b031663022c0d9f84848460006040519080825280601f01601f191660200182016040528015613808576020820181803683370190505b506040518563ffffffff1660e01b815260040180858152602001848152602001836001600160a01b03166001600160a01b0316815260200180602001828103825283818151815260200191508051906020019080838360005b83811015613879578181015183820152602001613861565b50505050905090810190601f1680156138a65780820380516001836020036101000a031916815260200191505b5095505050505050600060405180830381600087803b1580156138c857600080fd5b505af11580156138dc573d6000803e3d6000fd5b5050600190990198506136b6975050505050505050565b50505050565b6060600282511015613952576040805162461bcd60e51b815260206004820152601e60248201527f556e697377617056324c6962726172793a20494e56414c49445f504154480000604482015290519081900360640190fd5b815167ffffffffffffffff8111801561396a57600080fd5b50604051908082528060200260200182016040528015613994578160200160208202803683370190505b50905082816001835103815181106139a857fe5b60209081029190910101528151600019015b801561348e576000806139ea878660018603815181106139d657fe5b602002602001015187868151811061343b57fe5b91509150613a0c8484815181106139fd57fe5b60200260200101518383613d8c565b846001850381518110613a1b57fe5b60209081029190910101525050600019016139ba565b60005b600183510381101561325557600080848381518110613a4f57fe5b6020026020010151858460010181518110613a6657fe5b6020026020010151915091506000613a7e8383613f28565b5090506000613aae7f00000000000000000000000000000000000000000000000000000000000000008585613496565b9050600080600080846001600160a01b0316630902f1ac6040518163ffffffff1660e01b815260040160606040518083038186803b158015613aef57600080fd5b505afa158015613b03573d6000803e3d6000fd5b505050506040513d6060811015613b1957600080fd5b5080516020909101516001600160701b0391821693501690506000806001600160a01b038a811690891614613b4f578284613b52565b83835b91509150613bb0828b6001600160a01b03166370a082318a6040518263ffffffff1660e01b815260040180826001600160a01b03166001600160a01b0316815260200191505060206040518083038186803b15801561184e57600080fd5b9550613bbd86838361325a565b945050505050600080856001600160a01b0316886001600160a01b031614613be757826000613beb565b6000835b91509150600060028c51038a10613c02578a613c36565b613c367f0000000000000000000000000000000000000000000000000000000000000000898e8d6002018151811061379157fe5b604080516000808252602082019283905263022c0d9f60e01b835260248201878152604483018790526001600160a01b038086166064850152608060848501908152845160a48601819052969750908c169563022c0d9f958a958a958a9591949193919260c486019290918190849084905b83811015613cc0578181015183820152602001613ca8565b50505050905090810190601f168015613ced5780820380516001836020036101000a031916815260200191505b5095505050505050600060405180830381600087803b158015613d0f57600080fd5b505af1158015613d23573d6000803e3d6000fd5b50506001909b019a50613a349950505050505050505050565b80820382811115611153576040805162461bcd60e51b815260206004820152601560248201527464732d6d6174682d7375622d756e646572666c6f7760581b604482015290519081900360640190fd5b6000808411613dcc5760405162461bcd60e51b815260040180806020018281038252602c8152602001806143f4602c913960400191505060405180910390fd5b600083118015613ddc5750600082115b613e175760405162461bcd60e51b815260040180806020018281038252602881526020018061446b6028913960400191505060405180910390fd5b6000613e3b6103e8613e2f868863ffffffff61427a16565b9063ffffffff61427a16565b90506000613e556103e5613e2f868963ffffffff613d3c16565b9050613e726001828481613e6557fe5b049063ffffffff6142dd16565b9695505050505050565b6000808411613ebc5760405162461bcd60e51b81526004018080602001828103825260258152602001806144936025913960400191505060405180910390fd5b600083118015613ecc5750600082115b613f075760405162461bcd60e51b815260040180806020018281038252602881526020018061446b6028913960400191505060405180910390fd5b82613f18858463ffffffff61427a16565b81613f1f57fe5b04949350505050565b600080826001600160a01b0316846001600160a01b03161415613f7c5760405162461bcd60e51b81526004018080602001828103825260258152602001806144206025913960400191505060405180910390fd5b826001600160a01b0316846001600160a01b031610613f9c578284613f9f565b83835b90925090506001600160a01b038216613fff576040805162461bcd60e51b815260206004820152601e60248201527f556e697377617056324c6962726172793a205a45524f5f414444524553530000604482015290519081900360640190fd5b9250929050565b6040805163e6a4390560e01b81526001600160a01b03888116600483015287811660248301529151600092839283927f00000000000000000000000000000000000000000000000000000000000000009092169163e6a4390591604480820192602092909190829003018186803b15801561408057600080fd5b505afa158015614094573d6000803e3d6000fd5b505050506040513d60208110156140aa57600080fd5b50516001600160a01b0316141561415d57604080516364e329cb60e11b81526001600160a01b038a81166004830152898116602483015291517f00000000000000000000000000000000000000000000000000000000000000009092169163c9c65396916044808201926020929091908290030181600087803b15801561413057600080fd5b505af1158015614144573d6000803e3d6000fd5b505050506040513d602081101561415a57600080fd5b50505b60008061418b7f00000000000000000000000000000000000000000000000000000000000000008b8b61432c565b9150915081600014801561419d575080155b156141ad5787935086925061426d565b60006141ba898484613e7c565b905087811161420d57858110156142025760405162461bcd60e51b81526004018080602001828103825260268152602001806144456026913960400191505060405180910390fd5b88945092508261426b565b600061421a898486613e7c565b90508981111561422657fe5b878110156142655760405162461bcd60e51b81526004018080602001828103825260268152602001806144ff6026913960400191505060405180910390fd5b94508793505b505b5050965096945050505050565b60008115806142955750508082028282828161429257fe5b04145b611153576040805162461bcd60e51b815260206004820152601460248201527364732d6d6174682d6d756c2d6f766572666c6f7760601b604482015290519081900360640190fd5b80820182811015611153576040805162461bcd60e51b815260206004820152601460248201527364732d6d6174682d6164642d6f766572666c6f7760601b604482015290519081900360640190fd5b600080600061433b8585613f28565b50905060008061434c888888613496565b6001600160a01b0316630902f1ac6040518163ffffffff1660e01b815260040160606040518083038186803b15801561438457600080fd5b505afa158015614398573d6000803e3d6000fd5b505050506040513d60608110156143ae57600080fd5b5080516020909101516001600160701b0391821693501690506001600160a01b03878116908416146143e15780826143e4565b81815b9099909850965050505050505056fe556e697377617056324c6962726172793a20494e53554646494349454e545f4f55545055545f414d4f554e54556e697377617056324c6962726172793a204944454e544943414c5f414444524553534553556e69737761705632526f757465723a20494e53554646494349454e545f425f414d4f554e54556e697377617056324c6962726172793a20494e53554646494349454e545f4c4951554944495459556e697377617056324c6962726172793a20494e53554646494349454e545f414d4f554e54556e69737761705632526f757465723a204558434553534956455f494e5055545f414d4f554e54556e69737761705632526f757465723a20494e56414c49445f50415448000000556e69737761705632526f757465723a20494e53554646494349454e545f415f414d4f554e545472616e7366657248656c7065723a204554485f5452414e534645525f4641494c4544556e69737761705632526f757465723a20494e53554646494349454e545f4f55545055545f414d4f554e545472616e7366657248656c7065723a205452414e534645525f46524f4d5f4641494c4544556e697377617056324c6962726172793a20494e53554646494349454e545f494e5055545f414d4f554e54556e69737761705632526f757465723a20455850495245440000000000000000a264697066735822122083a017b8715a4c9434712118e969d6b7b91b7f97e83a4ab52ba440f343229bf264736f6c63430006060033",
  "devdoc": {
    "methods": {}
  },
  "userdoc": {
    "methods": {}
  },
  "storageLayout": {
    "storage": [],
    "types": null
  }
}