{
  "address": "0xB360A4045C67e02d1407449862781081B4457864",
  "abi": [
    {
      "inputs": [
        {
          "internalType": "address",
          "name": "nftAuction_",
          "type": "address"
        }
      ],
      "stateMutability": "nonpayable",
      "type": "constructor"
    },
    {
      "anonymous": false,
      "inputs": [
        {
          "indexed": true,
          "internalType": "address",
          "name": "collection",
          "type": "address"
        },
        {
          "indexed": true,
          "internalType": "uint256",
          "name": "nftId",
          "type": "uint256"
        },
        {
          "indexed": false,
          "internalType": "address",
          "name": "auctionContract",
          "type": "address"
        },
        {
          "indexed": false,
          "internalType": "uint256",
          "name": "openingBid",
          "type": "uint256"
        }
      ],
      "name": "AuctionStarted",
      "type": "event"
    },
    {
      "anonymous": false,
      "inputs": [
        {
          "indexed": true,
          "internalType": "bytes32",
          "name": "role",
          "type": "bytes32"
        },
        {
          "indexed": true,
          "internalType": "bytes32",
          "name": "previousAdminRole",
          "type": "bytes32"
        },
        {
          "indexed": true,
          "internalType": "bytes32",
          "name": "newAdminRole",
          "type": "bytes32"
        }
      ],
      "name": "RoleAdminChanged",
      "type": "event"
    },
    {
      "anonymous": false,
      "inputs": [
        {
          "indexed": true,
          "internalType": "bytes32",
          "name": "role",
          "type": "bytes32"
        },
        {
          "indexed": true,
          "internalType": "address",
          "name": "account",
          "type": "address"
        },
        {
          "indexed": true,
          "internalType": "address",
          "name": "sender",
          "type": "address"
        }
      ],
      "name": "RoleGranted",
      "type": "event"
    },
    {
      "anonymous": false,
      "inputs": [
        {
          "indexed": true,
          "internalType": "bytes32",
          "name": "role",
          "type": "bytes32"
        },
        {
          "indexed": true,
          "internalType": "address",
          "name": "account",
          "type": "address"
        },
        {
          "indexed": true,
          "internalType": "address",
          "name": "sender",
          "type": "address"
        }
      ],
      "name": "RoleRevoked",
      "type": "event"
    },
    {
      "inputs": [],
      "name": "DEFAULT_ADMIN_ROLE",
      "outputs": [
        {
          "internalType": "bytes32",
          "name": "",
          "type": "bytes32"
        }
      ],
      "stateMutability": "view",
      "type": "function"
    },
    {
      "inputs": [
        {
          "internalType": "bytes32",
          "name": "role",
          "type": "bytes32"
        }
      ],
      "name": "getRoleAdmin",
      "outputs": [
        {
          "internalType": "bytes32",
          "name": "",
          "type": "bytes32"
        }
      ],
      "stateMutability": "view",
      "type": "function"
    },
    {
      "inputs": [
        {
          "internalType": "bytes32",
          "name": "role",
          "type": "bytes32"
        },
        {
          "internalType": "address",
          "name": "account",
          "type": "address"
        }
      ],
      "name": "grantRole",
      "outputs": [],
      "stateMutability": "nonpayable",
      "type": "function"
    },
    {
      "inputs": [
        {
          "internalType": "bytes32",
          "name": "role",
          "type": "bytes32"
        },
        {
          "internalType": "address",
          "name": "account",
          "type": "address"
        }
      ],
      "name": "hasRole",
      "outputs": [
        {
          "internalType": "bool",
          "name": "",
          "type": "bool"
        }
      ],
      "stateMutability": "view",
      "type": "function"
    },
    {
      "inputs": [
        {
          "internalType": "address",
          "name": "protocol_",
          "type": "address"
        },
        {
          "internalType": "address",
          "name": "router_",
          "type": "address"
        }
      ],
      "name": "initialize",
      "outputs": [],
      "stateMutability": "nonpayable",
      "type": "function"
    },
    {
      "inputs": [],
      "name": "protocol",
      "outputs": [
        {
          "internalType": "contract ProtocolParameters",
          "name": "",
          "type": "address"
        }
      ],
      "stateMutability": "view",
      "type": "function"
    },
    {
      "inputs": [
        {
          "internalType": "address",
          "name": "collection_",
          "type": "address"
        },
        {
          "internalType": "uint256",
          "name": "nftId_",
          "type": "uint256"
        },
        {
          "internalType": "address",
          "name": "newOwner_",
          "type": "address"
        },
        {
          "internalType": "uint256",
          "name": "jotsSupply_",
          "type": "uint256"
        }
      ],
      "name": "reassignNFT",
      "outputs": [],
      "stateMutability": "nonpayable",
      "type": "function"
    },
    {
      "inputs": [
        {
          "internalType": "bytes32",
          "name": "role",
          "type": "bytes32"
        },
        {
          "internalType": "address",
          "name": "account",
          "type": "address"
        }
      ],
      "name": "renounceRole",
      "outputs": [],
      "stateMutability": "nonpayable",
      "type": "function"
    },
    {
      "inputs": [
        {
          "internalType": "bytes32",
          "name": "role",
          "type": "bytes32"
        },
        {
          "internalType": "address",
          "name": "account",
          "type": "address"
        }
      ],
      "name": "revokeRole",
      "outputs": [],
      "stateMutability": "nonpayable",
      "type": "function"
    },
    {
      "inputs": [],
      "name": "router",
      "outputs": [
        {
          "internalType": "contract SyntheticProtocolRouter",
          "name": "",
          "type": "address"
        }
      ],
      "stateMutability": "view",
      "type": "function"
    },
    {
      "inputs": [
        {
          "internalType": "address",
          "name": "collection_",
          "type": "address"
        },
        {
          "internalType": "uint256",
          "name": "nftId_",
          "type": "uint256"
        },
        {
          "internalType": "uint256",
          "name": "openingBid_",
          "type": "uint256"
        }
      ],
      "name": "startAuction",
      "outputs": [],
      "stateMutability": "nonpayable",
      "type": "function"
    },
    {
      "inputs": [
        {
          "internalType": "bytes4",
          "name": "interfaceId",
          "type": "bytes4"
        }
      ],
      "name": "supportsInterface",
      "outputs": [
        {
          "internalType": "bool",
          "name": "",
          "type": "bool"
        }
      ],
      "stateMutability": "view",
      "type": "function"
    },
    {
      "inputs": [
        {
          "internalType": "address",
          "name": "collection_",
          "type": "address"
        },
        {
          "internalType": "uint256",
          "name": "nftId_",
          "type": "uint256"
        }
      ],
      "name": "whitelistNFT",
      "outputs": [],
      "stateMutability": "nonpayable",
      "type": "function"
    }
  ],
  "transactionHash": "0x8f01e6af3eaab4ea4ad7d2f8bc8f655fd41d11775ecbe1f64d5087e9fe5afad4",
  "args": [
    "0x6364Ee7708449FeF8B49DFC1675fC07a730aCeF0"
  ],
  "solcInputHash": "764cef18eaa6ebac3e5dc75fbe85c889",
  "bytecode": "0x60a060405234801561001057600080fd5b506040516200140e3803806200140e8339810160408190526100319161011f565b6001600160601b0319606082901b1660805261006d7f503cf060389b91af8851125bd70ce66d16d12330718b103fc7674ef6d27e70c933610073565b5061014d565b61007d8282610081565b5050565b6000828152602081815260408083206001600160a01b038516845290915290205460ff1661007d576000828152602081815260408083206001600160a01b03851684529091529020805460ff191660011790556100db3390565b6001600160a01b0316816001600160a01b0316837f2f8788117e7eff1d82e926ec794901d17c78024a50270940304540a733656f0d60405160405180910390a45050565b600060208284031215610130578081fd5b81516001600160a01b0381168114610146578182fd5b9392505050565b60805160601c6112a26200016c600039600061076901526112a26000f3fe608060405234801561001057600080fd5b50600436106100cf5760003560e01c806356dd47551161008c57806391d148541161006657806391d14854146101d2578063a217fddf146101e5578063d547741f146101ed578063f887ea401461020057600080fd5b806356dd47551461017b5780637b2c29891461018e5780638ce74426146101a157600080fd5b806301ffc9a7146100d45780630dea9626146100fc578063248a9ca3146101115780632f2ff15d1461014257806336568abe14610155578063485cc95514610168575b600080fd5b6100e76100e23660046110d8565b610213565b60405190151581526020015b60405180910390f35b61010f61010a366004611001565b61024a565b005b61013461011f36600461109c565b60009081526020819052604090206001015490565b6040519081526020016100f3565b61010f6101503660046110b4565b6102e5565b61010f6101633660046110b4565b610310565b61010f610176366004610f9e565b610393565b61010f610189366004611048565b6104b4565b61010f61019c366004610fd6565b610afa565b6001546101ba906201000090046001600160a01b031681565b6040516001600160a01b0390911681526020016100f3565b6100e76101e03660046110b4565b610b56565b610134600081565b61010f6101fb3660046110b4565b610b7f565b6002546101ba906001600160a01b031681565b60006001600160e01b03198216637965db0b60e01b148061024457506301ffc9a760e01b6001600160e01b03198316145b92915050565b7f2a86bfecab7c1dc1a00b694d14a5a3c91a3ce748c12f853f875c4c7b4b254eb76102758133610ba5565b604051631d69a5ff60e01b8152600481018590526001600160a01b03848116602483015260448201849052861690631d69a5ff90606401600060405180830381600087803b1580156102c657600080fd5b505af11580156102da573d6000803e3d6000fd5b505050505050505050565b6000828152602081905260409020600101546103018133610ba5565b61030b8383610c09565b505050565b6001600160a01b03811633146103855760405162461bcd60e51b815260206004820152602f60248201527f416363657373436f6e74726f6c3a2063616e206f6e6c792072656e6f756e636560448201526e103937b632b9903337b91039b2b63360891b60648201526084015b60405180910390fd5b61038f8282610c8d565b5050565b600154610100900460ff16806103ac575060015460ff16155b61040f5760405162461bcd60e51b815260206004820152602e60248201527f496e697469616c697a61626c653a20636f6e747261637420697320616c72656160448201526d191e481a5b9a5d1a585b1a5e995960921b606482015260840161037c565b600154610100900460ff16158015610431576001805461ffff19166101011790555b7f503cf060389b91af8851125bd70ce66d16d12330718b103fc7674ef6d27e70c961045c8133610ba5565b506001805462010000600160b01b031916620100006001600160a01b038681169190910291909117909155600280546001600160a01b031916918416919091179055801561030b576001805461ff0019169055505050565b6000600160029054906101000a90046001600160a01b03166001600160a01b03166341e559e66040518163ffffffff1660e01b815260040160206040518083038186803b15801561050457600080fd5b505afa158015610518573d6000803e3d6000fd5b505050506040513d601f19601f8201168201806040525081019061053c9190611100565b6001600160a01b038516600090815260036020908152604080832087845290915290205490915060ff166105b25760405162461bcd60e51b815260206004820152601860248201527f546f6b656e2063616e27742062652061756374696f6e65640000000000000000604482015260640161037c565b808210156105f85760405162461bcd60e51b81526020600482015260136024820152724f70656e696e672062696420746f6f206c6f7760681b604482015260640161037c565b60025460405163c3e7e12d60e01b81526001600160a01b038681166004830152602482018690529091169063c3e7e12d9060440160206040518083038186803b15801561064457600080fd5b505afa158015610658573d6000803e3d6000fd5b505050506040513d601f19601f8201168201806040525081019061067c919061107c565b6106bf5760405162461bcd60e51b81526020600482015260146024820152732737b7103932b3b4b9ba32b932b2103a37b5b2b760611b604482015260640161037c565b6001600160a01b038481166000818152600360209081526040808320888452909152808220805460ff191690556002549051637546d98560e01b8152600481019390935290921690637546d9859060240160206040518083038186803b15801561072857600080fd5b505afa15801561073c573d6000803e3d6000fd5b505050506040513d601f19601f820116820180604052508101906107609190610f82565b9050600061078d7f0000000000000000000000000000000000000000000000000000000000000000610cf2565b60025460405163166090cf60e01b81526001600160a01b03898116600483015292935082841692636a3370d792899287929091169063166090cf9060240160206040518083038186803b1580156107e357600080fd5b505afa1580156107f7573d6000803e3d6000fd5b505050506040513d601f19601f8201168201806040525081019061081b9190610f82565b60025460405163056f4f1f60e41b81526001600160a01b038d81166004830152909116906356f4f1f09060240160206040518083038186803b15801561086057600080fd5b505afa158015610874573d6000803e3d6000fd5b505050506040513d601f19601f820116820180604052508101906108989190610f82565b888a600160029054906101000a90046001600160a01b03166001600160a01b0316630cbf54c86040518163ffffffff1660e01b815260040160206040518083038186803b1580156108e857600080fd5b505afa1580156108fc573d6000803e3d6000fd5b505050506040513d601f19601f820116820180604052508101906109209190611100565b6040516001600160e01b031960e08a901b16815260048101979097526001600160a01b0395861660248801529385166044870152939091166064850152608484015260a483019190915260c48201523360e482015261010401600060405180830381600087803b15801561099357600080fd5b505af11580156109a7573d6000803e3d6000fd5b505050506109d57f2a86bfecab7c1dc1a00b694d14a5a3c91a3ce748c12f853f875c4c7b4b254eb782610d8f565b6040516323b872dd60e01b81523360048201526001600160a01b038281166024830152604482018690528316906323b872dd90606401602060405180830381600087803b158015610a2557600080fd5b505af1158015610a39573d6000803e3d6000fd5b505050506040513d601f19601f82011682018060405250810190610a5d919061107c565b610aa95760405162461bcd60e51b815260206004820152601760248201527f556e61626c6520746f207472616e73666572206a6f7473000000000000000000604482015260640161037c565b604080516001600160a01b038381168252602082018790528792908916917f3f56989faf73e0fa48db704c98688b152de2669b2c98b59b7e6c22a7998fe5f9910160405180910390a3505050505050565b7f37f0a33db78f4b8b1fc9993513f501082a3b9277a40f61dd84f51f2dd2bd7eaf610b258133610ba5565b506001600160a01b03909116600090815260036020908152604080832093835292905220805460ff19166001179055565b6000918252602082815260408084206001600160a01b0393909316845291905290205460ff1690565b600082815260208190526040902060010154610b9b8133610ba5565b61030b8383610c8d565b610baf8282610b56565b61038f57610bc7816001600160a01b03166014610d99565b610bd2836020610d99565b604051602001610be3929190611118565b60408051601f198184030181529082905262461bcd60e51b825261037c9160040161118d565b610c138282610b56565b61038f576000828152602081815260408083206001600160a01b03851684529091529020805460ff19166001179055610c493390565b6001600160a01b0316816001600160a01b0316837f2f8788117e7eff1d82e926ec794901d17c78024a50270940304540a733656f0d60405160405180910390a45050565b610c978282610b56565b1561038f576000828152602081815260408083206001600160a01b0385168085529252808320805460ff1916905551339285917ff6391f5c32d9c69d2a47ea670b442974b53935d1edc7fd64eb21e047a839171b9190a45050565b6000604051733d602d80600a3d3981f3363d3d373d3d3d363d7360601b81528260601b60148201526e5af43d82803e903d91602b57fd5bf360881b60288201526037816000f09150506001600160a01b038116610d8a5760405162461bcd60e51b8152602060048201526016602482015275115490cc4c4d8dce8818dc99585d194819985a5b195960521b604482015260640161037c565b919050565b61038f8282610c09565b60606000610da88360026111d8565b610db39060026111c0565b67ffffffffffffffff811115610dd957634e487b7160e01b600052604160045260246000fd5b6040519080825280601f01601f191660200182016040528015610e03576020820181803683370190505b509050600360fc1b81600081518110610e2c57634e487b7160e01b600052603260045260246000fd5b60200101906001600160f81b031916908160001a905350600f60fb1b81600181518110610e6957634e487b7160e01b600052603260045260246000fd5b60200101906001600160f81b031916908160001a9053506000610e8d8460026111d8565b610e989060016111c0565b90505b6001811115610f2c576f181899199a1a9b1b9c1cb0b131b232b360811b85600f1660108110610eda57634e487b7160e01b600052603260045260246000fd5b1a60f81b828281518110610efe57634e487b7160e01b600052603260045260246000fd5b60200101906001600160f81b031916908160001a90535060049490941c93610f2581611227565b9050610e9b565b508315610f7b5760405162461bcd60e51b815260206004820181905260248201527f537472696e67733a20686578206c656e67746820696e73756666696369656e74604482015260640161037c565b9392505050565b600060208284031215610f93578081fd5b8151610f7b81611254565b60008060408385031215610fb0578081fd5b8235610fbb81611254565b91506020830135610fcb81611254565b809150509250929050565b60008060408385031215610fe8578182fd5b8235610ff381611254565b946020939093013593505050565b60008060008060808587031215611016578182fd5b843561102181611254565b935060208501359250604085013561103881611254565b9396929550929360600135925050565b60008060006060848603121561105c578283fd5b833561106781611254565b95602085013595506040909401359392505050565b60006020828403121561108d578081fd5b81518015158114610f7b578182fd5b6000602082840312156110ad578081fd5b5035919050565b600080604083850312156110c6578182fd5b823591506020830135610fcb81611254565b6000602082840312156110e9578081fd5b81356001600160e01b031981168114610f7b578182fd5b600060208284031215611111578081fd5b5051919050565b7f416363657373436f6e74726f6c3a206163636f756e74200000000000000000008152600083516111508160178501602088016111f7565b7001034b99036b4b9b9b4b733903937b6329607d1b60179184019182015283516111818160288401602088016111f7565b01602801949350505050565b60208152600082518060208401526111ac8160408501602087016111f7565b601f01601f19169190910160400192915050565b600082198211156111d3576111d361123e565b500190565b60008160001904831182151516156111f2576111f261123e565b500290565b60005b838110156112125781810151838201526020016111fa565b83811115611221576000848401525b50505050565b6000816112365761123661123e565b506000190190565b634e487b7160e01b600052601160045260246000fd5b6001600160a01b038116811461126957600080fd5b5056fea2646970667358221220b5419af7cd39477e90d2b0f12de6ca06ace1bcfd442c13bd9afc12e7acdda09a64736f6c63430008040033",
  "devdoc": {
    "kind": "dev",
    "methods": {
      "getRoleAdmin(bytes32)": {
        "details": "Returns the admin role that controls `role`. See {grantRole} and {revokeRole}. To change a role's admin, use {_setRoleAdmin}."
      },
      "grantRole(bytes32,address)": {
        "details": "Grants `role` to `account`. If `account` had not been already granted `role`, emits a {RoleGranted} event. Requirements: - the caller must have ``role``'s admin role."
      },
      "hasRole(bytes32,address)": {
        "details": "Returns `true` if `account` has been granted `role`."
      },
      "reassignNFT(address,uint256,address,uint256)": {
        "details": "we need to pass the jobSupply here to work well even when the governance      changes this protocol parameter in the middle of the auction"
      },
      "renounceRole(bytes32,address)": {
        "details": "Revokes `role` from the calling account. Roles are often managed via {grantRole} and {revokeRole}: this function's purpose is to provide a mechanism for accounts to lose their privileges if they are compromised (such as when a trusted device is misplaced). If the calling account had been granted `role`, emits a {RoleRevoked} event. Requirements: - the caller must be `account`."
      },
      "revokeRole(bytes32,address)": {
        "details": "Revokes `role` from `account`. If `account` had been granted `role`, emits a {RoleRevoked} event. Requirements: - the caller must have ``role``'s admin role."
      },
      "supportsInterface(bytes4)": {
        "details": "See {IERC165-supportsInterface}."
      }
    },
    "stateVariables": {
      "_nftAuctionImplementation": {
        "details": "the implementation to deploy through minimal proxies"
      }
    },
    "version": 1
  },
  "userdoc": {
    "kind": "user",
    "methods": {},
    "version": 1
  },
  "storageLayout": {
    "storage": [
      {
        "astId": 290,
        "contract": "contracts/polygon/auctions/AuctionsManager.sol:AuctionsManager",
        "label": "_roles",
        "offset": 0,
        "slot": "0",
        "type": "t_mapping(t_bytes32,t_struct(RoleData)285_storage)"
      },
      {
        "astId": 3462,
        "contract": "contracts/polygon/auctions/AuctionsManager.sol:AuctionsManager",
        "label": "_initialized",
        "offset": 0,
        "slot": "1",
        "type": "t_bool"
      },
      {
        "astId": 3465,
        "contract": "contracts/polygon/auctions/AuctionsManager.sol:AuctionsManager",
        "label": "_initializing",
        "offset": 1,
        "slot": "1",
        "type": "t_bool"
      },
      {
        "astId": 9436,
        "contract": "contracts/polygon/auctions/AuctionsManager.sol:AuctionsManager",
        "label": "protocol",
        "offset": 2,
        "slot": "1",
        "type": "t_contract(ProtocolParameters)10432"
      },
      {
        "astId": 9439,
        "contract": "contracts/polygon/auctions/AuctionsManager.sol:AuctionsManager",
        "label": "router",
        "offset": 0,
        "slot": "2",
        "type": "t_contract(SyntheticProtocolRouter)9401"
      },
      {
        "astId": 9445,
        "contract": "contracts/polygon/auctions/AuctionsManager.sol:AuctionsManager",
        "label": "_whitelistedTokens",
        "offset": 0,
        "slot": "3",
        "type": "t_mapping(t_address,t_mapping(t_uint256,t_bool))"
      }
    ],
    "types": {
      "t_address": {
        "encoding": "inplace",
        "label": "address",
        "numberOfBytes": "20"
      },
      "t_bool": {
        "encoding": "inplace",
        "label": "bool",
        "numberOfBytes": "1"
      },
      "t_bytes32": {
        "encoding": "inplace",
        "label": "bytes32",
        "numberOfBytes": "32"
      },
      "t_contract(ProtocolParameters)10432": {
        "encoding": "inplace",
        "label": "contract ProtocolParameters",
        "numberOfBytes": "20"
      },
      "t_contract(SyntheticProtocolRouter)9401": {
        "encoding": "inplace",
        "label": "contract SyntheticProtocolRouter",
        "numberOfBytes": "20"
      },
      "t_mapping(t_address,t_bool)": {
        "encoding": "mapping",
        "key": "t_address",
        "label": "mapping(address => bool)",
        "numberOfBytes": "32",
        "value": "t_bool"
      },
      "t_mapping(t_address,t_mapping(t_uint256,t_bool))": {
        "encoding": "mapping",
        "key": "t_address",
        "label": "mapping(address => mapping(uint256 => bool))",
        "numberOfBytes": "32",
        "value": "t_mapping(t_uint256,t_bool)"
      },
      "t_mapping(t_bytes32,t_struct(RoleData)285_storage)": {
        "encoding": "mapping",
        "key": "t_bytes32",
        "label": "mapping(bytes32 => struct AccessControl.RoleData)",
        "numberOfBytes": "32",
        "value": "t_struct(RoleData)285_storage"
      },
      "t_mapping(t_uint256,t_bool)": {
        "encoding": "mapping",
        "key": "t_uint256",
        "label": "mapping(uint256 => bool)",
        "numberOfBytes": "32",
        "value": "t_bool"
      },
      "t_struct(RoleData)285_storage": {
        "encoding": "inplace",
        "label": "struct AccessControl.RoleData",
        "members": [
          {
            "astId": 282,
            "contract": "contracts/polygon/auctions/AuctionsManager.sol:AuctionsManager",
            "label": "members",
            "offset": 0,
            "slot": "0",
            "type": "t_mapping(t_address,t_bool)"
          },
          {
            "astId": 284,
            "contract": "contracts/polygon/auctions/AuctionsManager.sol:AuctionsManager",
            "label": "adminRole",
            "offset": 0,
            "slot": "1",
            "type": "t_bytes32"
          }
        ],
        "numberOfBytes": "64"
      },
      "t_uint256": {
        "encoding": "inplace",
        "label": "uint256",
        "numberOfBytes": "32"
      }
    }
  }
}