{
  "address": "0x335E21390dd694f9E6089c8F56F98712515e907B",
  "abi": [
    {
      "inputs": [
        {
          "internalType": "address",
          "name": "coordinator",
          "type": "address"
        },
        {
          "internalType": "address",
          "name": "link",
          "type": "address"
        }
      ],
      "stateMutability": "nonpayable",
      "type": "constructor"
    },
    {
      "inputs": [],
      "name": "generateRandom",
      "outputs": [
        {
          "internalType": "uint8",
          "name": "",
          "type": "uint8"
        }
      ],
      "stateMutability": "view",
      "type": "function"
    },
    {
      "inputs": [
        {
          "internalType": "bytes32",
          "name": "requestId",
          "type": "bytes32"
        },
        {
          "internalType": "uint256",
          "name": "randomness",
          "type": "uint256"
        }
      ],
      "name": "rawFulfillRandomness",
      "outputs": [],
      "stateMutability": "nonpayable",
      "type": "function"
    }
  ],
  "transactionHash": "0x6d27938a44c6fbc28d100ef3320efd1e3d34165d684e4c0a56df8b1ba11b3f8f",
  "args": [
    "0x8c7382f9d8f56b33781fe506e897a4f1e2d17255",
    "0x326c977e6efc84e512bb9c30f76e30c160ed06fb"
  ],
  "solcInputHash": "764cef18eaa6ebac3e5dc75fbe85c889",
  "bytecode": "0x60c060405234801561001057600080fd5b506040516101f33803806101f383398101604081905261002f91610069565b6001600160601b0319606092831b811660a052911b1660805261009b565b80516001600160a01b038116811461006457600080fd5b919050565b6000806040838503121561007b578182fd5b6100848361004d565b91506100926020840161004d565b90509250929050565b60805160601c60a05160601c6101316100c2600039600060670152600050506101316000f3fe6080604052348015600f57600080fd5b506004361060325760003560e01c806302e4af0114603757806394985ddd14604b575b600080fd5b604080516000815290519081900360200190f35b605a605636600460db565b605c565b005b336001600160a01b037f0000000000000000000000000000000000000000000000000000000000000000161460d75760405162461bcd60e51b815260206004820152601f60248201527f4f6e6c7920565246436f6f7264696e61746f722063616e2066756c66696c6c00604482015260640160405180910390fd5b5050565b6000806040838503121560ec578182fd5b5050803592602090910135915056fea2646970667358221220ada4273aec6d1f5e7040a422789ca41007d6c678ff38073ab73c6b8f09880e5e64736f6c63430008040033",
  "devdoc": {
    "kind": "dev",
    "methods": {},
    "version": 1
  },
  "userdoc": {
    "kind": "user",
    "methods": {},
    "version": 1
  },
  "storageLayout": {
    "storage": [
      {
        "astId": 79,
        "contract": "contracts/polygon/FlipCoinGenerator.sol:FlipCoinGenerator",
        "label": "nonces",
        "offset": 0,
        "slot": "0",
        "type": "t_mapping(t_bytes32,t_uint256)"
      },
      {
        "astId": 8217,
        "contract": "contracts/polygon/FlipCoinGenerator.sol:FlipCoinGenerator",
        "label": "keyHash",
        "offset": 0,
        "slot": "1",
        "type": "t_bytes32"
      },
      {
        "astId": 8219,
        "contract": "contracts/polygon/FlipCoinGenerator.sol:FlipCoinGenerator",
        "label": "fee",
        "offset": 0,
        "slot": "2",
        "type": "t_uint256"
      },
      {
        "astId": 8221,
        "contract": "contracts/polygon/FlipCoinGenerator.sol:FlipCoinGenerator",
        "label": "randomSeed",
        "offset": 0,
        "slot": "3",
        "type": "t_uint256"
      }
    ],
    "types": {
      "t_bytes32": {
        "encoding": "inplace",
        "label": "bytes32",
        "numberOfBytes": "32"
      },
      "t_mapping(t_bytes32,t_uint256)": {
        "encoding": "mapping",
        "key": "t_bytes32",
        "label": "mapping(bytes32 => uint256)",
        "numberOfBytes": "32",
        "value": "t_uint256"
      },
      "t_uint256": {
        "encoding": "inplace",
        "label": "uint256",
        "numberOfBytes": "32"
      }
    }
  }
}