{
  "address": "0x28C1762864350d3Bd1fa71A1127435B07f3a73D5",
  "abi": [
    {
      "anonymous": false,
      "inputs": [
        {
          "indexed": false,
          "internalType": "address",
          "name": "winner",
          "type": "address"
        },
        {
          "indexed": false,
          "internalType": "uint256",
          "name": "amount",
          "type": "uint256"
        }
      ],
      "name": "AuctionEnded",
      "type": "event"
    },
    {
      "anonymous": false,
      "inputs": [
        {
          "indexed": false,
          "internalType": "address",
          "name": "bidder",
          "type": "address"
        },
        {
          "indexed": false,
          "internalType": "uint256",
          "name": "amount",
          "type": "uint256"
        }
      ],
      "name": "HighestBidIncreased",
      "type": "event"
    },
    {
      "inputs": [],
      "name": "auctionEndTime",
      "outputs": [
        {
          "internalType": "uint256",
          "name": "",
          "type": "uint256"
        }
      ],
      "stateMutability": "view",
      "type": "function"
    },
    {
      "inputs": [],
      "name": "auctionsManager",
      "outputs": [
        {
          "internalType": "address",
          "name": "",
          "type": "address"
        }
      ],
      "stateMutability": "view",
      "type": "function"
    },
    {
      "inputs": [
        {
          "internalType": "uint256",
          "name": "amount_",
          "type": "uint256"
        }
      ],
      "name": "bid",
      "outputs": [],
      "stateMutability": "payable",
      "type": "function"
    },
    {
      "inputs": [],
      "name": "endAuction",
      "outputs": [],
      "stateMutability": "nonpayable",
      "type": "function"
    },
    {
      "inputs": [],
      "name": "highestBid",
      "outputs": [
        {
          "internalType": "uint256",
          "name": "",
          "type": "uint256"
        }
      ],
      "stateMutability": "view",
      "type": "function"
    },
    {
      "inputs": [],
      "name": "highestBidder",
      "outputs": [
        {
          "internalType": "address",
          "name": "",
          "type": "address"
        }
      ],
      "stateMutability": "view",
      "type": "function"
    },
    {
      "inputs": [
        {
          "internalType": "uint256",
          "name": "nftId_",
          "type": "uint256"
        },
        {
          "internalType": "address",
          "name": "jot_",
          "type": "address"
        },
        {
          "internalType": "address",
          "name": "jotPool_",
          "type": "address"
        },
        {
          "internalType": "address",
          "name": "syntheticCollection_",
          "type": "address"
        },
        {
          "internalType": "uint256",
          "name": "jotSupply_",
          "type": "uint256"
        },
        {
          "internalType": "uint256",
          "name": "initialBid_",
          "type": "uint256"
        },
        {
          "internalType": "uint256",
          "name": "auctionDuration_",
          "type": "uint256"
        },
        {
          "internalType": "address",
          "name": "initialBidder_",
          "type": "address"
        }
      ],
      "name": "initialize",
      "outputs": [],
      "stateMutability": "nonpayable",
      "type": "function"
    },
    {
      "inputs": [],
      "name": "jot",
      "outputs": [
        {
          "internalType": "address",
          "name": "",
          "type": "address"
        }
      ],
      "stateMutability": "view",
      "type": "function"
    },
    {
      "inputs": [],
      "name": "jotPool",
      "outputs": [
        {
          "internalType": "address",
          "name": "",
          "type": "address"
        }
      ],
      "stateMutability": "view",
      "type": "function"
    },
    {
      "inputs": [],
      "name": "nftId",
      "outputs": [
        {
          "internalType": "uint256",
          "name": "",
          "type": "uint256"
        }
      ],
      "stateMutability": "view",
      "type": "function"
    },
    {
      "inputs": [],
      "name": "syntheticCollection",
      "outputs": [
        {
          "internalType": "address",
          "name": "",
          "type": "address"
        }
      ],
      "stateMutability": "view",
      "type": "function"
    },
    {
      "inputs": [],
      "name": "withdraw",
      "outputs": [],
      "stateMutability": "nonpayable",
      "type": "function"
    }
  ],
  "transactionHash": "0xf6ac1b211c60c86788f98702b4b1c169dd6196643a1938c83b47699e80382e59",
  "args": [],
  "solcInputHash": "6972bfba4d76c9603a896f1e5fbcd63d",
  "bytecode": "0x608060405234801561001057600080fd5b50610a6a806100206000396000f3fe6080604052600436106100a75760003560e01c8063818fbbdf11610064578063818fbbdf1461017757806391f9015714610197578063b1da4db7146101b7578063c6bc5182146101d7578063d57bde79146101ed578063fe67a54b1461020357600080fd5b80633ccfd60b146100ac57806341913cbd146100c3578063454a2ab3146101005780634b449cba146101135780636a3370d714610137578063808cfb5d14610157575b600080fd5b3480156100b857600080fd5b506100c1610218565b005b3480156100cf57600080fd5b506007546100e3906001600160a01b031681565b6040516001600160a01b0390911681526020015b60405180910390f35b6100c161010e366004610926565b6102ed565b34801561011f57600080fd5b5061012960015481565b6040519081526020016100f7565b34801561014357600080fd5b506100c161015236600461093e565b6104bf565b34801561016357600080fd5b506005546100e3906001600160a01b031681565b34801561018357600080fd5b506008546100e3906001600160a01b031681565b3480156101a357600080fd5b506002546100e3906001600160a01b031681565b3480156101c357600080fd5b506006546100e3906001600160a01b031681565b3480156101e357600080fd5b5061012960045481565b3480156101f957600080fd5b5061012960035481565b34801561020f57600080fd5b506100c16105eb565b3360009081526009602052604090205480156102ea573360008181526009602052604080822091909155600554905163a9059cbb60e01b81526004810192909252602482018390526001600160a01b03169063a9059cbb90604401602060405180830381600087803b15801561028d57600080fd5b505af11580156102a1573d6000803e3d6000fd5b505050506040513d601f19601f820116820180604052508101906102c591906108ff565b6102ea5760405162461bcd60e51b81526004016102e1906109b8565b60405180910390fd5b50565b6001544211156103375760405162461bcd60e51b8152602060048201526015602482015274105d58dd1a5bdb88185b1c9958591e48195b991959605a1b60448201526064016102e1565b60035481116103885760405162461bcd60e51b815260206004820152601d60248201527f546865726520616c72656164792069732061206869676865722062696400000060448201526064016102e1565b6005546040516323b872dd60e01b8152336004820152306024820152604481018390526001600160a01b03909116906323b872dd90606401602060405180830381600087803b1580156103da57600080fd5b505af11580156103ee573d6000803e3d6000fd5b505050506040513d601f19601f8201168201806040525081019061041291906108ff565b61042e5760405162461bcd60e51b81526004016102e1906109b8565b60035415610469576003546002546001600160a01b0316600090815260096020526040812080549091906104639084906109ef565b90915550505b600280546001600160a01b03191633908117909155600382905560408051918252602082018390527ff4757a49b326036464bec6fe419a4ae38c8a02ce3e68bf0809674f6aab8ad300910160405180910390a150565b600054610100900460ff16806104d8575060005460ff16155b61053b5760405162461bcd60e51b815260206004820152602e60248201527f496e697469616c697a61626c653a20636f6e747261637420697320616c72656160448201526d191e481a5b9a5d1a585b1a5e995960921b60648201526084016102e1565b600054610100900460ff1615801561055d576000805461ffff19166101011790555b600489905561056c83426109ef565b6001556003849055600b859055600580546001600160a01b03808b166001600160a01b031992831617909255600680548a8416908316179055600780548984169083161790556002805492851692821692909217909155600880549091163317905580156105e0576000805461ff00191690555b505050505050505050565b6001544210156106355760405162461bcd60e51b8152602060048201526015602482015274105d58dd1a5bdb881b9bdd081e595d08195b991959605a1b60448201526064016102e1565b600a5460ff16156106885760405162461bcd60e51b815260206004820152601e60248201527f546f6b656e2068617320616c7265616479206265656e20636c61696d6564000060448201526064016102e1565b600a805460ff19166001179055600554600b5460405163a9059cbb60e01b81526001600160a01b039092166004830181905260248301919091529063a9059cbb90604401602060405180830381600087803b1580156106e657600080fd5b505af11580156106fa573d6000803e3d6000fd5b505050506040513d601f19601f8201168201806040525081019061071e91906108ff565b61073a5760405162461bcd60e51b81526004016102e1906109b8565b6000600b5460035461074c9190610a07565b111561081557600554600654600b546003546001600160a01b039384169363a9059cbb93169161077b91610a07565b6040516001600160e01b031960e085901b1681526001600160a01b0390921660048301526024820152604401602060405180830381600087803b1580156107c157600080fd5b505af11580156107d5573d6000803e3d6000fd5b505050506040513d601f19601f820116820180604052508101906107f991906108ff565b6108155760405162461bcd60e51b81526004016102e1906109b8565b60085460075460048054600254600b546040516306f54b1360e11b81526001600160a01b03958616948101949094526024840192909252831660448301526064820152911690630dea962690608401600060405180830381600087803b15801561087e57600080fd5b505af1158015610892573d6000803e3d6000fd5b5050600254600354604080516001600160a01b03909316835260208301919091527fdaec4582d5d9595688c8c98545fdd1c696d41c6aeaeb636737e84ed2f5c00eda935001905060405180910390a1565b80356001600160a01b03811681146108fa57600080fd5b919050565b600060208284031215610910578081fd5b8151801515811461091f578182fd5b9392505050565b600060208284031215610937578081fd5b5035919050565b600080600080600080600080610100898b03121561095a578384fd5b8835975061096a60208a016108e3565b965061097860408a016108e3565b955061098660608a016108e3565b94506080890135935060a0890135925060c089013591506109a960e08a016108e3565b90509295985092959890939650565b60208082526017908201527f556e61626c6520746f207472616e73666572206a6f7473000000000000000000604082015260600190565b60008219821115610a0257610a02610a1e565b500190565b600082821015610a1957610a19610a1e565b500390565b634e487b7160e01b600052601160045260246000fdfea26469706673582212207bb22813e2ef0c29bb17fd535f4e67a4a731af4b391daf0eb9fb7daf5c67a60564736f6c63430008040033",
  "devdoc": {
    "kind": "dev",
    "methods": {},
    "version": 1
  },
  "userdoc": {
    "kind": "user",
    "methods": {
      "bid(uint256)": {
        "notice": "bid on the auction. the value will only be refunded if the auction is not won."
      },
      "endAuction()": {
        "notice": "winner can claim the token after auction end time"
      },
      "initialize(uint256,address,address,address,uint256,uint256,uint256,address)": {
        "notice": "create a simple auction"
      },
      "withdraw()": {
        "notice": "withdraw a bid that was overbid."
      }
    },
    "version": 1
  },
  "storageLayout": {
    "storage": [
      {
        "astId": 3196,
        "contract": "contracts/polygon/auctions/NFTAuction.sol:NFTAuction",
        "label": "_initialized",
        "offset": 0,
        "slot": "0",
        "type": "t_bool"
      },
      {
        "astId": 3199,
        "contract": "contracts/polygon/auctions/NFTAuction.sol:NFTAuction",
        "label": "_initializing",
        "offset": 1,
        "slot": "0",
        "type": "t_bool"
      },
      {
        "astId": 9342,
        "contract": "contracts/polygon/auctions/NFTAuction.sol:NFTAuction",
        "label": "auctionEndTime",
        "offset": 0,
        "slot": "1",
        "type": "t_uint256"
      },
      {
        "astId": 9344,
        "contract": "contracts/polygon/auctions/NFTAuction.sol:NFTAuction",
        "label": "highestBidder",
        "offset": 0,
        "slot": "2",
        "type": "t_address"
      },
      {
        "astId": 9346,
        "contract": "contracts/polygon/auctions/NFTAuction.sol:NFTAuction",
        "label": "highestBid",
        "offset": 0,
        "slot": "3",
        "type": "t_uint256"
      },
      {
        "astId": 9348,
        "contract": "contracts/polygon/auctions/NFTAuction.sol:NFTAuction",
        "label": "nftId",
        "offset": 0,
        "slot": "4",
        "type": "t_uint256"
      },
      {
        "astId": 9350,
        "contract": "contracts/polygon/auctions/NFTAuction.sol:NFTAuction",
        "label": "jot",
        "offset": 0,
        "slot": "5",
        "type": "t_address"
      },
      {
        "astId": 9352,
        "contract": "contracts/polygon/auctions/NFTAuction.sol:NFTAuction",
        "label": "jotPool",
        "offset": 0,
        "slot": "6",
        "type": "t_address"
      },
      {
        "astId": 9354,
        "contract": "contracts/polygon/auctions/NFTAuction.sol:NFTAuction",
        "label": "syntheticCollection",
        "offset": 0,
        "slot": "7",
        "type": "t_address"
      },
      {
        "astId": 9356,
        "contract": "contracts/polygon/auctions/NFTAuction.sol:NFTAuction",
        "label": "auctionsManager",
        "offset": 0,
        "slot": "8",
        "type": "t_address"
      },
      {
        "astId": 9360,
        "contract": "contracts/polygon/auctions/NFTAuction.sol:NFTAuction",
        "label": "_pendingReturns",
        "offset": 0,
        "slot": "9",
        "type": "t_mapping(t_address,t_uint256)"
      },
      {
        "astId": 9362,
        "contract": "contracts/polygon/auctions/NFTAuction.sol:NFTAuction",
        "label": "_claimed",
        "offset": 0,
        "slot": "10",
        "type": "t_bool"
      },
      {
        "astId": 9364,
        "contract": "contracts/polygon/auctions/NFTAuction.sol:NFTAuction",
        "label": "_jotSupply",
        "offset": 0,
        "slot": "11",
        "type": "t_uint256"
      }
    ],
    "types": {
      "t_address": {
        "encoding": "inplace",
        "label": "address",
        "numberOfBytes": "20"
      },
      "t_bool": {
        "encoding": "inplace",
        "label": "bool",
        "numberOfBytes": "1"
      },
      "t_mapping(t_address,t_uint256)": {
        "encoding": "mapping",
        "key": "t_address",
        "label": "mapping(address => uint256)",
        "numberOfBytes": "32",
        "value": "t_uint256"
      },
      "t_uint256": {
        "encoding": "inplace",
        "label": "uint256",
        "numberOfBytes": "32"
      }
    }
  }
}