{
  "address": "0x082bb67A7Ca97291E035381626b059C62e3b2707",
  "abi": [
    {
      "inputs": [
        {
          "internalType": "uint256",
          "name": "jotsSupply_",
          "type": "uint256"
        },
        {
          "internalType": "uint256",
          "name": "flippingInterval_",
          "type": "uint256"
        },
        {
          "internalType": "uint256",
          "name": "flippingReward_",
          "type": "uint256"
        },
        {
          "internalType": "uint256",
          "name": "flippingAmount_",
          "type": "uint256"
        },
        {
          "internalType": "uint256",
          "name": "auctionDuration_",
          "type": "uint256"
        },
        {
          "internalType": "address",
          "name": "governanceContractAddress_",
          "type": "address"
        },
        {
          "internalType": "address",
          "name": "futuresOracleAddress_",
          "type": "address"
        },
        {
          "internalType": "uint256",
          "name": "futuresMultiplier_",
          "type": "uint256"
        },
        {
          "internalType": "uint256",
          "name": "futuresFeeRatio_",
          "type": "uint256"
        },
        {
          "internalType": "uint256",
          "name": "futuresFundingRateCoefficient_",
          "type": "uint256"
        }
      ],
      "stateMutability": "nonpayable",
      "type": "constructor"
    },
    {
      "anonymous": false,
      "inputs": [
        {
          "indexed": false,
          "internalType": "uint256",
          "name": "value",
          "type": "uint256"
        }
      ],
      "name": "AuctionDurationUpdated",
      "type": "event"
    },
    {
      "anonymous": false,
      "inputs": [
        {
          "indexed": false,
          "internalType": "address",
          "name": "value",
          "type": "address"
        }
      ],
      "name": "FlipCoinGeneratorUpdated",
      "type": "event"
    },
    {
      "anonymous": false,
      "inputs": [
        {
          "indexed": false,
          "internalType": "uint256",
          "name": "value",
          "type": "uint256"
        }
      ],
      "name": "FlippingAmountUpdated",
      "type": "event"
    },
    {
      "anonymous": false,
      "inputs": [
        {
          "indexed": false,
          "internalType": "uint256",
          "name": "value",
          "type": "uint256"
        }
      ],
      "name": "FlippingIntervalUpdated",
      "type": "event"
    },
    {
      "anonymous": false,
      "inputs": [
        {
          "indexed": false,
          "internalType": "uint256",
          "name": "value",
          "type": "uint256"
        }
      ],
      "name": "FlippingRewardUpdated",
      "type": "event"
    },
    {
      "anonymous": false,
      "inputs": [
        {
          "indexed": false,
          "internalType": "uint256",
          "name": "value",
          "type": "uint256"
        }
      ],
      "name": "FuturesFeeRatioUpdated",
      "type": "event"
    },
    {
      "anonymous": false,
      "inputs": [
        {
          "indexed": false,
          "internalType": "uint256",
          "name": "value",
          "type": "uint256"
        }
      ],
      "name": "FuturesFundingRateCoefficientUpdated",
      "type": "event"
    },
    {
      "anonymous": false,
      "inputs": [
        {
          "indexed": false,
          "internalType": "uint256",
          "name": "value",
          "type": "uint256"
        }
      ],
      "name": "FuturesMultiplierUpdated",
      "type": "event"
    },
    {
      "anonymous": false,
      "inputs": [
        {
          "indexed": false,
          "internalType": "address",
          "name": "value",
          "type": "address"
        }
      ],
      "name": "FuturesOracleAddressUpdated",
      "type": "event"
    },
    {
      "anonymous": false,
      "inputs": [
        {
          "indexed": false,
          "internalType": "uint256",
          "name": "value",
          "type": "uint256"
        }
      ],
      "name": "JotsSupplyUpdated",
      "type": "event"
    },
    {
      "anonymous": false,
      "inputs": [
        {
          "indexed": true,
          "internalType": "address",
          "name": "previousOwner",
          "type": "address"
        },
        {
          "indexed": true,
          "internalType": "address",
          "name": "newOwner",
          "type": "address"
        }
      ],
      "name": "OwnershipTransferred",
      "type": "event"
    },
    {
      "inputs": [],
      "name": "auctionDuration",
      "outputs": [
        {
          "internalType": "uint256",
          "name": "",
          "type": "uint256"
        }
      ],
      "stateMutability": "view",
      "type": "function"
    },
    {
      "inputs": [],
      "name": "flipCoinGenerator",
      "outputs": [
        {
          "internalType": "address",
          "name": "",
          "type": "address"
        }
      ],
      "stateMutability": "view",
      "type": "function"
    },
    {
      "inputs": [],
      "name": "flippingAmount",
      "outputs": [
        {
          "internalType": "uint256",
          "name": "",
          "type": "uint256"
        }
      ],
      "stateMutability": "view",
      "type": "function"
    },
    {
      "inputs": [],
      "name": "flippingInterval",
      "outputs": [
        {
          "internalType": "uint256",
          "name": "",
          "type": "uint256"
        }
      ],
      "stateMutability": "view",
      "type": "function"
    },
    {
      "inputs": [],
      "name": "flippingReward",
      "outputs": [
        {
          "internalType": "uint256",
          "name": "",
          "type": "uint256"
        }
      ],
      "stateMutability": "view",
      "type": "function"
    },
    {
      "inputs": [],
      "name": "futuresFeeRatio",
      "outputs": [
        {
          "internalType": "uint256",
          "name": "",
          "type": "uint256"
        }
      ],
      "stateMutability": "view",
      "type": "function"
    },
    {
      "inputs": [],
      "name": "futuresFundingRateCoefficient",
      "outputs": [
        {
          "internalType": "uint256",
          "name": "",
          "type": "uint256"
        }
      ],
      "stateMutability": "view",
      "type": "function"
    },
    {
      "inputs": [],
      "name": "futuresMultiplier",
      "outputs": [
        {
          "internalType": "uint256",
          "name": "",
          "type": "uint256"
        }
      ],
      "stateMutability": "view",
      "type": "function"
    },
    {
      "inputs": [],
      "name": "futuresOracleAddress",
      "outputs": [
        {
          "internalType": "address",
          "name": "",
          "type": "address"
        }
      ],
      "stateMutability": "view",
      "type": "function"
    },
    {
      "inputs": [],
      "name": "jotsSupply",
      "outputs": [
        {
          "internalType": "uint256",
          "name": "",
          "type": "uint256"
        }
      ],
      "stateMutability": "view",
      "type": "function"
    },
    {
      "inputs": [],
      "name": "owner",
      "outputs": [
        {
          "internalType": "address",
          "name": "",
          "type": "address"
        }
      ],
      "stateMutability": "view",
      "type": "function"
    },
    {
      "inputs": [],
      "name": "renounceOwnership",
      "outputs": [],
      "stateMutability": "nonpayable",
      "type": "function"
    },
    {
      "inputs": [
        {
          "internalType": "uint256",
          "name": "auctionDuration_",
          "type": "uint256"
        }
      ],
      "name": "setAuctionDuration",
      "outputs": [],
      "stateMutability": "nonpayable",
      "type": "function"
    },
    {
      "inputs": [
        {
          "internalType": "uint256",
          "name": "flippingAmount_",
          "type": "uint256"
        }
      ],
      "name": "setFlippingAmount",
      "outputs": [],
      "stateMutability": "nonpayable",
      "type": "function"
    },
    {
      "inputs": [
        {
          "internalType": "uint256",
          "name": "flippingInterval_",
          "type": "uint256"
        }
      ],
      "name": "setFlippingInterval",
      "outputs": [],
      "stateMutability": "nonpayable",
      "type": "function"
    },
    {
      "inputs": [
        {
          "internalType": "uint256",
          "name": "flippingReward_",
          "type": "uint256"
        }
      ],
      "name": "setFlippingReward",
      "outputs": [],
      "stateMutability": "nonpayable",
      "type": "function"
    },
    {
      "inputs": [
        {
          "internalType": "uint256",
          "name": "futuresFeeRatio_",
          "type": "uint256"
        }
      ],
      "name": "setFuturesFeeRatio",
      "outputs": [],
      "stateMutability": "nonpayable",
      "type": "function"
    },
    {
      "inputs": [
        {
          "internalType": "uint256",
          "name": "futuresFundingRateCoefficient_",
          "type": "uint256"
        }
      ],
      "name": "setFuturesFundingRateCoefficient",
      "outputs": [],
      "stateMutability": "nonpayable",
      "type": "function"
    },
    {
      "inputs": [
        {
          "internalType": "uint256",
          "name": "futuresMultiplier_",
          "type": "uint256"
        }
      ],
      "name": "setFuturesMultiplier",
      "outputs": [],
      "stateMutability": "nonpayable",
      "type": "function"
    },
    {
      "inputs": [
        {
          "internalType": "address",
          "name": "futuresOracleAddress_",
          "type": "address"
        }
      ],
      "name": "setFuturesOracleAddress",
      "outputs": [],
      "stateMutability": "nonpayable",
      "type": "function"
    },
    {
      "inputs": [
        {
          "internalType": "uint256",
          "name": "jotsSupply_",
          "type": "uint256"
        }
      ],
      "name": "setJotsSupply",
      "outputs": [],
      "stateMutability": "nonpayable",
      "type": "function"
    },
    {
      "inputs": [
        {
          "internalType": "address",
          "name": "newOwner",
          "type": "address"
        }
      ],
      "name": "transferOwnership",
      "outputs": [],
      "stateMutability": "nonpayable",
      "type": "function"
    }
  ],
  "transactionHash": "0x2d022099671c724ddfbf6e9d59e6a724e744ceb38bfc98780e96fc428641af05",
  "args": [
    100,
    "86400",
    5,
    20,
    "604800",
    "0xA624df4021647bc0D284D07C8008fE249BFeCa2E",
    "0x32C2482C97e075682551C8e5aaf090B071EDD2e5",
    1,
    1,
    1
  ],
  "solcInputHash": "a0ff6122158a21ef914abd43f3dd5f01",
  "bytecode": "0x60806040523480156200001157600080fd5b506040516200117138038062001171833981016040819052620000349162000555565b6200003f3362000417565b60008811620000865760405162461bcd60e51b815260206004820152600e60248201526d125b9d985b1a590814995dd85c9960921b60448201526064015b60405180910390fd5b60008711620000c95760405162461bcd60e51b815260206004820152600e60248201526d125b9d985b1a5908105b5bdd5b9d60921b60448201526064016200007d565b868810620001255760405162461bcd60e51b815260206004820152602260248201527f5265776172642073686f756c64206265206c6f776572207468616e20416d6f756044820152611b9d60f21b60648201526084016200007d565b60008a11620001775760405162461bcd60e51b815260206004820152601360248201527f496e76616c6964204a6f747320537570706c790000000000000000000000000060448201526064016200007d565b6103848911620001f05760405162461bcd60e51b815260206004820152603360248201527f466c697070696e6720496e74657276616c2073686f756c64206265206772656160448201527f746572207468616e203135206d696e757465730000000000000000000000000060648201526084016200007d565b610e1086116200025a5760405162461bcd60e51b815260206004820152602e60248201527f41756374696f6e206475726174696f6e2073686f756c6420626520677265617460448201526d32b9103a3430b71018903437bab960911b60648201526084016200007d565b6001600160a01b038416620002b25760405162461bcd60e51b815260206004820152601c60248201527f4f7261636c6520616464726573732063616e2774206265207a65726f0000000060448201526064016200007d565b60008311620003045760405162461bcd60e51b815260206004820152601a60248201527f496e76616c69642066757475726573206d756c7469706c69657200000000000060448201526064016200007d565b60008211620003565760405162461bcd60e51b815260206004820152601960248201527f496e76616c696420667574757265732066656520726174696f0000000000000060448201526064016200007d565b60008111620003b95760405162461bcd60e51b815260206004820152602860248201527f496e76616c696420667574757265732066756e64696e67207261746520636f6560448201526719999a58da595b9d60c21b60648201526084016200007d565b60018a90556002899055600388905560048790556005869055600780546001600160a01b0319166001600160a01b03861617905560088390556009829055600a819055620004078562000467565b50505050505050505050620005db565b600080546001600160a01b038381166001600160a01b0319831681178455604051919092169283917f8be0079c531659141344cd1fd0a4f28419497f9722a3daafe3b4186f6b6457e09190a35050565b6000546001600160a01b03163314620004c35760405162461bcd60e51b815260206004820181905260248201527f4f776e61626c653a2063616c6c6572206973206e6f7420746865206f776e657260448201526064016200007d565b6001600160a01b0381166200052a5760405162461bcd60e51b815260206004820152602660248201527f4f776e61626c653a206e6577206f776e657220697320746865207a65726f206160448201526564647265737360d01b60648201526084016200007d565b620005358162000417565b50565b80516001600160a01b03811681146200055057600080fd5b919050565b6000806000806000806000806000806101408b8d03121562000575578586fd5b8a51995060208b0151985060408b0151975060608b0151965060808b01519550620005a360a08c0162000538565b9450620005b360c08c0162000538565b935060e08b015192506101008b015191506101208b015190509295989b9194979a5092959850565b610b8680620005eb6000396000f3fe608060405234801561001057600080fd5b50600436106101425760003560e01c80638148cab3116100b8578063bcce87e01161007c578063bcce87e01461025b578063cfcd67441461026e578063d267b50b14610277578063e7a06ffe1461028a578063ed41f4b614610293578063f2fde38b146102a657600080fd5b80638148cab3146102125780638b3415b9146102255780638da5cb5b1461022e578063a497e6741461023f578063b94d25ce1461025257600080fd5b8063625fb06e1161010a578063625fb06e1461019d578063686ed554146101c85780636bb9e4cb146101db578063715018a6146101ee57806376687332146101f65780638097cce3146101ff57600080fd5b80630361ce06146101475780630cbf54c81461015c5780631861779d1461017857806341e559e6146101815780634dac37da1461018a575b600080fd5b61015a610155366004610ac1565b6102b9565b005b61016560055481565b6040519081526020015b60405180910390f35b61016560035481565b61016560015481565b61015a610198366004610ac1565b61038a565b6006546101b0906001600160a01b031681565b6040516001600160a01b03909116815260200161016f565b61015a6101d6366004610ac1565b61043a565b6007546101b0906001600160a01b031681565b61015a6104fb565b61016560025481565b61015a61020d366004610ac1565b610531565b61015a610220366004610ac1565b6105f2565b61016560095481565b6000546001600160a01b03166101b0565b61015a61024d366004610ac1565b610697565b61016560045481565b61015a610269366004610a93565b61075e565b61016560085481565b61015a610285366004610ac1565b61082c565b610165600a5481565b61015a6102a1366004610ac1565b6108dc565b61015a6102b4366004610a93565b6109a8565b6000546001600160a01b031633146102ec5760405162461bcd60e51b81526004016102e390610b1b565b60405180910390fd5b6000811161032d5760405162461bcd60e51b815260206004820152600e60248201526d125b9d985b1a590814995dd85c9960921b60448201526064016102e3565b600454811061034e5760405162461bcd60e51b81526004016102e390610ad9565b60038190556040518181527f0fa8f8d6f616abcaff165b36274c1d25db91432a484037fee0c3df292bcfd3c7906020015b60405180910390a150565b6000546001600160a01b031633146103b45760405162461bcd60e51b81526004016102e390610b1b565b610e1081116104055760405162461bcd60e51b815260206004820152601a60248201527f496e76616c69642066757475726573206d756c7469706c69657200000000000060448201526064016102e3565b60088190556040518181527faa8cb7fe6d2b611c9aa63dcd25098631f9ed4fa5b7d35d78cf0977d3416397f79060200161037f565b6000546001600160a01b031633146104645760405162461bcd60e51b81526004016102e390610b1b565b600081116104a55760405162461bcd60e51b815260206004820152600e60248201526d125b9d985b1a5908105b5bdd5b9d60921b60448201526064016102e3565b80600354106104c65760405162461bcd60e51b81526004016102e390610ad9565b60048190556040518181527fe8d9aeb1d5f778e619e639e40f0b7d2ea511290857c537675c3bd85f7e83548f9060200161037f565b6000546001600160a01b031633146105255760405162461bcd60e51b81526004016102e390610b1b565b61052f6000610a43565b565b6000546001600160a01b0316331461055b5760405162461bcd60e51b81526004016102e390610b1b565b610e1081116105bd5760405162461bcd60e51b815260206004820152602860248201527f496e76616c696420667574757265732066756e64696e67207261746520636f6560448201526719999a58da595b9d60c21b60648201526084016102e3565b600a8190556040518181527f5137db858c99008a677171e83930448e2049159eafd84e2c70c64d63497da33a9060200161037f565b6000546001600160a01b0316331461061c5760405162461bcd60e51b81526004016102e390610b1b565b600081116106625760405162461bcd60e51b8152602060048201526013602482015272496e76616c6964204a6f747320537570706c7960681b60448201526064016102e3565b60018190556040518181527f93b9276845376c0543076e97219c38dc7844ccc68b13486454d1fb928cf2736a9060200161037f565b6000546001600160a01b031633146106c15760405162461bcd60e51b81526004016102e390610b1b565b610e1081116107295760405162461bcd60e51b815260206004820152602e60248201527f41756374696f6e206475726174696f6e2073686f756c6420626520677265617460448201526d32b9103a3430b71018903437bab960911b60648201526084016102e3565b60058190556040518181527faab6389d8f1c16ba1deb6e9831f5c5442cf4fcf99bf5bfa867460be408a911189060200161037f565b6000546001600160a01b031633146107885760405162461bcd60e51b81526004016102e390610b1b565b6001600160a01b0381166107de5760405162461bcd60e51b815260206004820152601c60248201527f4f7261636c6520616464726573732063616e2774206265207a65726f0000000060448201526064016102e3565b600780546001600160a01b0319166001600160a01b0383169081179091556040519081527f7855e0c0a9fb9b75af12c184ecbe7d67b7be41eb42c0857e8c7a2d7b216bc83a9060200161037f565b6000546001600160a01b031633146108565760405162461bcd60e51b81526004016102e390610b1b565b610e1081116108a75760405162461bcd60e51b815260206004820152601960248201527f496e76616c696420667574757265732066656520726174696f0000000000000060448201526064016102e3565b60098190556040518181527f72c6af15f8b5eae83a72eb15811a3f0632a6407ba12be5108bafb6321d7c3b149060200161037f565b6000546001600160a01b031633146109065760405162461bcd60e51b81526004016102e390610b1b565b61038481116109735760405162461bcd60e51b815260206004820152603360248201527f466c697070696e6720496e74657276616c2073686f756c642062652067726561604482015272746572207468616e203135206d696e7574657360681b60648201526084016102e3565b60028190556040518181527fc28ccb88074a7798b56fa365639855d8ffa5991bca1492991c7ed26df2c699ef9060200161037f565b6000546001600160a01b031633146109d25760405162461bcd60e51b81526004016102e390610b1b565b6001600160a01b038116610a375760405162461bcd60e51b815260206004820152602660248201527f4f776e61626c653a206e6577206f776e657220697320746865207a65726f206160448201526564647265737360d01b60648201526084016102e3565b610a4081610a43565b50565b600080546001600160a01b038381166001600160a01b0319831681178455604051919092169283917f8be0079c531659141344cd1fd0a4f28419497f9722a3daafe3b4186f6b6457e09190a35050565b600060208284031215610aa4578081fd5b81356001600160a01b0381168114610aba578182fd5b9392505050565b600060208284031215610ad2578081fd5b5035919050565b60208082526022908201527f5265776172642073686f756c64206265206c6f776572207468616e20416d6f756040820152611b9d60f21b606082015260800190565b6020808252818101527f4f776e61626c653a2063616c6c6572206973206e6f7420746865206f776e657260408201526060019056fea26469706673582212204a4bc0d3ce3a9481cd7f0b3a5db9d658e12093c3383b4ccff6c38c1f6ce9e77964736f6c63430008040033",
  "devdoc": {
    "kind": "dev",
    "methods": {
      "constructor": {
        "details": "sets the default (initial) values of the parameters      also transfers the ownership to the governance"
      },
      "owner()": {
        "details": "Returns the address of the current owner."
      },
      "renounceOwnership()": {
        "details": "Leaves the contract without owner. It will not be possible to call `onlyOwner` functions anymore. Can only be called by the current owner. NOTE: Renouncing ownership will leave the contract without an owner, thereby removing any functionality that is only available to the owner."
      },
      "transferOwnership(address)": {
        "details": "Transfers ownership of the contract to a new account (`newOwner`). Can only be called by the current owner."
      }
    },
    "title": "parameters controlled by governance",
    "version": 1
  },
  "userdoc": {
    "kind": "user",
    "methods": {},
    "notice": "the owner of this contract is the timelock controller of the governance feature",
    "version": 1
  },
  "storageLayout": {
    "storage": [
      {
        "astId": 653,
        "contract": "contracts/polygon/governance/ProtocolParameters.sol:ProtocolParameters",
        "label": "_owner",
        "offset": 0,
        "slot": "0",
        "type": "t_address"
      },
      {
        "astId": 10920,
        "contract": "contracts/polygon/governance/ProtocolParameters.sol:ProtocolParameters",
        "label": "jotsSupply",
        "offset": 0,
        "slot": "1",
        "type": "t_uint256"
      },
      {
        "astId": 10922,
        "contract": "contracts/polygon/governance/ProtocolParameters.sol:ProtocolParameters",
        "label": "flippingInterval",
        "offset": 0,
        "slot": "2",
        "type": "t_uint256"
      },
      {
        "astId": 10924,
        "contract": "contracts/polygon/governance/ProtocolParameters.sol:ProtocolParameters",
        "label": "flippingReward",
        "offset": 0,
        "slot": "3",
        "type": "t_uint256"
      },
      {
        "astId": 10926,
        "contract": "contracts/polygon/governance/ProtocolParameters.sol:ProtocolParameters",
        "label": "flippingAmount",
        "offset": 0,
        "slot": "4",
        "type": "t_uint256"
      },
      {
        "astId": 10928,
        "contract": "contracts/polygon/governance/ProtocolParameters.sol:ProtocolParameters",
        "label": "auctionDuration",
        "offset": 0,
        "slot": "5",
        "type": "t_uint256"
      },
      {
        "astId": 10930,
        "contract": "contracts/polygon/governance/ProtocolParameters.sol:ProtocolParameters",
        "label": "flipCoinGenerator",
        "offset": 0,
        "slot": "6",
        "type": "t_address"
      },
      {
        "astId": 10932,
        "contract": "contracts/polygon/governance/ProtocolParameters.sol:ProtocolParameters",
        "label": "futuresOracleAddress",
        "offset": 0,
        "slot": "7",
        "type": "t_address"
      },
      {
        "astId": 10934,
        "contract": "contracts/polygon/governance/ProtocolParameters.sol:ProtocolParameters",
        "label": "futuresMultiplier",
        "offset": 0,
        "slot": "8",
        "type": "t_uint256"
      },
      {
        "astId": 10936,
        "contract": "contracts/polygon/governance/ProtocolParameters.sol:ProtocolParameters",
        "label": "futuresFeeRatio",
        "offset": 0,
        "slot": "9",
        "type": "t_uint256"
      },
      {
        "astId": 10938,
        "contract": "contracts/polygon/governance/ProtocolParameters.sol:ProtocolParameters",
        "label": "futuresFundingRateCoefficient",
        "offset": 0,
        "slot": "10",
        "type": "t_uint256"
      }
    ],
    "types": {
      "t_address": {
        "encoding": "inplace",
        "label": "address",
        "numberOfBytes": "20"
      },
      "t_uint256": {
        "encoding": "inplace",
        "label": "uint256",
        "numberOfBytes": "32"
      }
    }
  }
}