{
  "address": "0x25037330012416DF2FC8C73ed6729F483c4e30CA",
  "abi": [
    {
      "inputs": [],
      "stateMutability": "nonpayable",
      "type": "constructor"
    },
    {
      "anonymous": false,
      "inputs": [
        {
          "indexed": true,
          "internalType": "address",
          "name": "owner",
          "type": "address"
        },
        {
          "indexed": true,
          "internalType": "address",
          "name": "approved",
          "type": "address"
        },
        {
          "indexed": true,
          "internalType": "uint256",
          "name": "tokenId",
          "type": "uint256"
        }
      ],
      "name": "Approval",
      "type": "event"
    },
    {
      "anonymous": false,
      "inputs": [
        {
          "indexed": true,
          "internalType": "address",
          "name": "owner",
          "type": "address"
        },
        {
          "indexed": true,
          "internalType": "address",
          "name": "operator",
          "type": "address"
        },
        {
          "indexed": false,
          "internalType": "bool",
          "name": "approved",
          "type": "bool"
        }
      ],
      "name": "ApprovalForAll",
      "type": "event"
    },
    {
      "anonymous": false,
      "inputs": [
        {
          "indexed": true,
          "internalType": "bytes32",
          "name": "role",
          "type": "bytes32"
        },
        {
          "indexed": true,
          "internalType": "bytes32",
          "name": "previousAdminRole",
          "type": "bytes32"
        },
        {
          "indexed": true,
          "internalType": "bytes32",
          "name": "newAdminRole",
          "type": "bytes32"
        }
      ],
      "name": "RoleAdminChanged",
      "type": "event"
    },
    {
      "anonymous": false,
      "inputs": [
        {
          "indexed": true,
          "internalType": "bytes32",
          "name": "role",
          "type": "bytes32"
        },
        {
          "indexed": true,
          "internalType": "address",
          "name": "account",
          "type": "address"
        },
        {
          "indexed": true,
          "internalType": "address",
          "name": "sender",
          "type": "address"
        }
      ],
      "name": "RoleGranted",
      "type": "event"
    },
    {
      "anonymous": false,
      "inputs": [
        {
          "indexed": true,
          "internalType": "bytes32",
          "name": "role",
          "type": "bytes32"
        },
        {
          "indexed": true,
          "internalType": "address",
          "name": "account",
          "type": "address"
        },
        {
          "indexed": true,
          "internalType": "address",
          "name": "sender",
          "type": "address"
        }
      ],
      "name": "RoleRevoked",
      "type": "event"
    },
    {
      "anonymous": false,
      "inputs": [
        {
          "indexed": true,
          "internalType": "address",
          "name": "from",
          "type": "address"
        },
        {
          "indexed": true,
          "internalType": "address",
          "name": "to",
          "type": "address"
        },
        {
          "indexed": true,
          "internalType": "uint256",
          "name": "tokenId",
          "type": "uint256"
        }
      ],
      "name": "Transfer",
      "type": "event"
    },
    {
      "inputs": [],
      "name": "DEFAULT_ADMIN_ROLE",
      "outputs": [
        {
          "internalType": "bytes32",
          "name": "",
          "type": "bytes32"
        }
      ],
      "stateMutability": "view",
      "type": "function"
    },
    {
      "inputs": [],
      "name": "MANAGER",
      "outputs": [
        {
          "internalType": "bytes32",
          "name": "",
          "type": "bytes32"
        }
      ],
      "stateMutability": "view",
      "type": "function"
    },
    {
      "inputs": [
        {
          "internalType": "address",
          "name": "to",
          "type": "address"
        },
        {
          "internalType": "uint256",
          "name": "tokenId",
          "type": "uint256"
        }
      ],
      "name": "approve",
      "outputs": [],
      "stateMutability": "nonpayable",
      "type": "function"
    },
    {
      "inputs": [
        {
          "internalType": "address",
          "name": "owner",
          "type": "address"
        }
      ],
      "name": "balanceOf",
      "outputs": [
        {
          "internalType": "uint256",
          "name": "",
          "type": "uint256"
        }
      ],
      "stateMutability": "view",
      "type": "function"
    },
    {
      "inputs": [
        {
          "internalType": "uint256",
          "name": "tokenId",
          "type": "uint256"
        }
      ],
      "name": "exists",
      "outputs": [
        {
          "internalType": "bool",
          "name": "",
          "type": "bool"
        }
      ],
      "stateMutability": "view",
      "type": "function"
    },
    {
      "inputs": [
        {
          "internalType": "uint256",
          "name": "tokenId",
          "type": "uint256"
        }
      ],
      "name": "getApproved",
      "outputs": [
        {
          "internalType": "address",
          "name": "",
          "type": "address"
        }
      ],
      "stateMutability": "view",
      "type": "function"
    },
    {
      "inputs": [
        {
          "internalType": "bytes32",
          "name": "role",
          "type": "bytes32"
        }
      ],
      "name": "getRoleAdmin",
      "outputs": [
        {
          "internalType": "bytes32",
          "name": "",
          "type": "bytes32"
        }
      ],
      "stateMutability": "view",
      "type": "function"
    },
    {
      "inputs": [
        {
          "internalType": "bytes32",
          "name": "role",
          "type": "bytes32"
        },
        {
          "internalType": "address",
          "name": "account",
          "type": "address"
        }
      ],
      "name": "grantRole",
      "outputs": [],
      "stateMutability": "nonpayable",
      "type": "function"
    },
    {
      "inputs": [
        {
          "internalType": "bytes32",
          "name": "role",
          "type": "bytes32"
        },
        {
          "internalType": "address",
          "name": "account",
          "type": "address"
        }
      ],
      "name": "hasRole",
      "outputs": [
        {
          "internalType": "bool",
          "name": "",
          "type": "bool"
        }
      ],
      "stateMutability": "view",
      "type": "function"
    },
    {
      "inputs": [
        {
          "internalType": "string",
          "name": "name_",
          "type": "string"
        },
        {
          "internalType": "string",
          "name": "symbol_",
          "type": "string"
        },
        {
          "internalType": "address",
          "name": "collectionManager",
          "type": "address"
        }
      ],
      "name": "initialize",
      "outputs": [],
      "stateMutability": "nonpayable",
      "type": "function"
    },
    {
      "inputs": [
        {
          "internalType": "address",
          "name": "owner",
          "type": "address"
        },
        {
          "internalType": "address",
          "name": "operator",
          "type": "address"
        }
      ],
      "name": "isApprovedForAll",
      "outputs": [
        {
          "internalType": "bool",
          "name": "",
          "type": "bool"
        }
      ],
      "stateMutability": "view",
      "type": "function"
    },
    {
      "inputs": [],
      "name": "name",
      "outputs": [
        {
          "internalType": "string",
          "name": "",
          "type": "string"
        }
      ],
      "stateMutability": "view",
      "type": "function"
    },
    {
      "inputs": [
        {
          "internalType": "uint256",
          "name": "tokenId",
          "type": "uint256"
        }
      ],
      "name": "ownerOf",
      "outputs": [
        {
          "internalType": "address",
          "name": "",
          "type": "address"
        }
      ],
      "stateMutability": "view",
      "type": "function"
    },
    {
      "inputs": [
        {
          "internalType": "bytes32",
          "name": "role",
          "type": "bytes32"
        },
        {
          "internalType": "address",
          "name": "account",
          "type": "address"
        }
      ],
      "name": "renounceRole",
      "outputs": [],
      "stateMutability": "nonpayable",
      "type": "function"
    },
    {
      "inputs": [
        {
          "internalType": "bytes32",
          "name": "role",
          "type": "bytes32"
        },
        {
          "internalType": "address",
          "name": "account",
          "type": "address"
        }
      ],
      "name": "revokeRole",
      "outputs": [],
      "stateMutability": "nonpayable",
      "type": "function"
    },
    {
      "inputs": [
        {
          "internalType": "uint256",
          "name": "tokenId",
          "type": "uint256"
        }
      ],
      "name": "safeBurn",
      "outputs": [],
      "stateMutability": "nonpayable",
      "type": "function"
    },
    {
      "inputs": [
        {
          "internalType": "address",
          "name": "to",
          "type": "address"
        },
        {
          "internalType": "uint256",
          "name": "tokenId",
          "type": "uint256"
        },
        {
          "internalType": "string",
          "name": "metadata",
          "type": "string"
        }
      ],
      "name": "safeMint",
      "outputs": [],
      "stateMutability": "nonpayable",
      "type": "function"
    },
    {
      "inputs": [
        {
          "internalType": "address",
          "name": "from",
          "type": "address"
        },
        {
          "internalType": "address",
          "name": "to",
          "type": "address"
        },
        {
          "internalType": "uint256",
          "name": "tokenId",
          "type": "uint256"
        }
      ],
      "name": "safeTransferFrom",
      "outputs": [],
      "stateMutability": "nonpayable",
      "type": "function"
    },
    {
      "inputs": [
        {
          "internalType": "address",
          "name": "from",
          "type": "address"
        },
        {
          "internalType": "address",
          "name": "to",
          "type": "address"
        },
        {
          "internalType": "uint256",
          "name": "tokenId",
          "type": "uint256"
        },
        {
          "internalType": "bytes",
          "name": "_data",
          "type": "bytes"
        }
      ],
      "name": "safeTransferFrom",
      "outputs": [],
      "stateMutability": "nonpayable",
      "type": "function"
    },
    {
      "inputs": [
        {
          "internalType": "address",
          "name": "operator",
          "type": "address"
        },
        {
          "internalType": "bool",
          "name": "approved",
          "type": "bool"
        }
      ],
      "name": "setApprovalForAll",
      "outputs": [],
      "stateMutability": "nonpayable",
      "type": "function"
    },
    {
      "inputs": [
        {
          "internalType": "bytes4",
          "name": "interfaceId",
          "type": "bytes4"
        }
      ],
      "name": "supportsInterface",
      "outputs": [
        {
          "internalType": "bool",
          "name": "",
          "type": "bool"
        }
      ],
      "stateMutability": "view",
      "type": "function"
    },
    {
      "inputs": [],
      "name": "symbol",
      "outputs": [
        {
          "internalType": "string",
          "name": "",
          "type": "string"
        }
      ],
      "stateMutability": "view",
      "type": "function"
    },
    {
      "inputs": [
        {
          "internalType": "uint256",
          "name": "tokenId",
          "type": "uint256"
        }
      ],
      "name": "tokenURI",
      "outputs": [
        {
          "internalType": "string",
          "name": "",
          "type": "string"
        }
      ],
      "stateMutability": "view",
      "type": "function"
    },
    {
      "inputs": [
        {
          "internalType": "address",
          "name": "from",
          "type": "address"
        },
        {
          "internalType": "address",
          "name": "to",
          "type": "address"
        },
        {
          "internalType": "uint256",
          "name": "tokenId",
          "type": "uint256"
        }
      ],
      "name": "transferFrom",
      "outputs": [],
      "stateMutability": "nonpayable",
      "type": "function"
    }
  ],
  "transactionHash": "0x2483acc4364446f712c26ffa8ee4435f0a81b3833c168b959713673ddb0ac289",
  "args": [],
  "solcInputHash": "764cef18eaa6ebac3e5dc75fbe85c889",
  "bytecode": "0x60806040523480156200001157600080fd5b50604080518082018252601681527f507269766920436f6c6c656374696f6e20546f6b656e000000000000000000006020808301918252835180850190945260038452621410d560ea1b908401528151919291620000729160009162000091565b5080516200008890600190602084019062000091565b50505062000174565b8280546200009f9062000137565b90600052602060002090601f016020900481019282620000c357600085556200010e565b82601f10620000de57805160ff19168380011785556200010e565b828001600101855582156200010e579182015b828111156200010e578251825591602001919060010190620000f1565b506200011c92915062000120565b5090565b5b808211156200011c576000815560010162000121565b600181811c908216806200014c57607f821691505b602082108114156200016e57634e487b7160e01b600052602260045260246000fd5b50919050565b611ca180620001846000396000f3fe608060405234801561001057600080fd5b50600436106101585760003560e01c80636352211e116100c3578063b88d4fde1161007c578063b88d4fde146102ee578063c87b56dd14610301578063cd279c7c14610314578063d547741f14610327578063dbf513251461033a578063e985e9c51461034d57600080fd5b80636352211e1461029257806370a08231146102a557806391d14854146102b857806395d89b41146102cb578063a217fddf146102d3578063a22cb465146102db57600080fd5b806323b872dd1161011557806323b872dd14610210578063248a9ca3146102235780632f2ff15d1461024657806336568abe1461025957806342842e0e1461026c5780634f558e791461027f57600080fd5b806301ffc9a71461015d57806306fdde0314610185578063077f224a1461019a578063081812fc146101af578063095ea7b3146101da5780631b2df850146101ed575b600080fd5b61017061016b3660046118fd565b610389565b60405190151581526020015b60405180910390f35b61018d61039a565b60405161017c9190611a84565b6101ad6101a8366004611935565b61042c565b005b6101c26101bd3660046118c3565b610527565b6040516001600160a01b03909116815260200161017c565b6101ad6101e8366004611845565b6105bc565b610202600080516020611c4c83398151915281565b60405190815260200161017c565b6101ad61021e366004611757565b6106d2565b6102026102313660046118c3565b60009081526007602052604090206001015490565b6101ad6102543660046118db565b610703565b6101ad6102673660046118db565b610729565b6101ad61027a366004611757565b6107a7565b61017061028d3660046118c3565b6107c2565b6101c26102a03660046118c3565b6107e1565b6102026102b336600461170b565b610858565b6101706102c63660046118db565b6108df565b61018d61090a565b610202600081565b6101ad6102e936600461180b565b610919565b6101ad6102fc366004611792565b6109de565b61018d61030f3660046118c3565b610a10565b6101ad61032236600461186e565b610b2d565b6101ad6103353660046118db565b610b76565b6101ad6103483660046118c3565b610b9c565b61017061035b366004611725565b6001600160a01b03918216600090815260056020908152604080832093909416825291909152205460ff1690565b600061039482610be6565b92915050565b6060600980546103a990611bcb565b80601f01602080910402602001604051908101604052809291908181526020018280546103d590611bcb565b80156104225780601f106103f757610100808354040283529160200191610422565b820191906000526020600020905b81548152906001019060200180831161040557829003601f168201915b5050505050905090565b600654610100900460ff1680610445575060065460ff16155b6104ad5760405162461bcd60e51b815260206004820152602e60248201527f496e697469616c697a61626c653a20636f6e747261637420697320616c72656160448201526d191e481a5b9a5d1a585b1a5e995960921b60648201526084015b60405180910390fd5b600654610100900460ff161580156104cf576006805461ffff19166101011790555b83516104e29060099060208701906115c1565b5082516104f690600a9060208601906115c1565b5061050f600080516020611c4c83398151915283610c0b565b8015610521576006805461ff00191690555b50505050565b6000818152600260205260408120546001600160a01b03166105a05760405162461bcd60e51b815260206004820152602c60248201527f4552433732313a20617070726f76656420717565727920666f72206e6f6e657860448201526b34b9ba32b73a103a37b5b2b760a11b60648201526084016104a4565b506000908152600460205260409020546001600160a01b031690565b60006105c7826107e1565b9050806001600160a01b0316836001600160a01b031614156106355760405162461bcd60e51b815260206004820152602160248201527f4552433732313a20617070726f76616c20746f2063757272656e74206f776e656044820152603960f91b60648201526084016104a4565b336001600160a01b03821614806106515750610651813361035b565b6106c35760405162461bcd60e51b815260206004820152603860248201527f4552433732313a20617070726f76652063616c6c6572206973206e6f74206f7760448201527f6e6572206e6f7220617070726f76656420666f7220616c6c000000000000000060648201526084016104a4565b6106cd8383610c15565b505050565b6106dc3382610c83565b6106f85760405162461bcd60e51b81526004016104a490611ae9565b6106cd838383610d7a565b60008281526007602052604090206001015461071f8133610f1a565b6106cd8383610f7e565b6001600160a01b03811633146107995760405162461bcd60e51b815260206004820152602f60248201527f416363657373436f6e74726f6c3a2063616e206f6e6c792072656e6f756e636560448201526e103937b632b9903337b91039b2b63360891b60648201526084016104a4565b6107a38282611004565b5050565b6106cd838383604051806020016040528060008152506109de565b6000818152600260205260408120546001600160a01b03161515610394565b6000818152600260205260408120546001600160a01b0316806103945760405162461bcd60e51b815260206004820152602960248201527f4552433732313a206f776e657220717565727920666f72206e6f6e657869737460448201526832b73a103a37b5b2b760b91b60648201526084016104a4565b60006001600160a01b0382166108c35760405162461bcd60e51b815260206004820152602a60248201527f4552433732313a2062616c616e636520717565727920666f7220746865207a65604482015269726f206164647265737360b01b60648201526084016104a4565b506001600160a01b031660009081526003602052604090205490565b60009182526007602090815260408084206001600160a01b0393909316845291905290205460ff1690565b6060600a80546103a990611bcb565b6001600160a01b0382163314156109725760405162461bcd60e51b815260206004820152601960248201527f4552433732313a20617070726f766520746f2063616c6c65720000000000000060448201526064016104a4565b3360008181526005602090815260408083206001600160a01b03871680855290835292819020805460ff191686151590811790915590519081529192917f17307eab39ab6107e8899845ad3d59bd9653f200f220920489ca2b5937696c31910160405180910390a35050565b6109e83383610c83565b610a045760405162461bcd60e51b81526004016104a490611ae9565b6105218484848461106b565b6000818152600260205260409020546060906001600160a01b0316610a8f5760405162461bcd60e51b815260206004820152602f60248201527f4552433732314d657461646174613a2055524920717565727920666f72206e6f60448201526e3732bc34b9ba32b73a103a37b5b2b760891b60648201526084016104a4565b60008281526008602052604090208054610aa890611bcb565b80601f0160208091040260200160405190810160405280929190818152602001828054610ad490611bcb565b8015610b215780601f10610af657610100808354040283529160200191610b21565b820191906000526020600020905b815481529060010190602001808311610b0457829003601f168201915b50505050509050919050565b600080516020611c4c833981519152610b468133610f1a565b610b50848461109e565b60008381526008602090815260409091208351610b6f928501906115c1565b5050505050565b600082815260076020526040902060010154610b928133610f1a565b6106cd8383611004565b600080516020611c4c833981519152610bb58133610f1a565b610bbe826111e0565b6040805160208082018084526000808452868152600890925292902090516106cd92906115c1565b60006001600160e01b03198216637965db0b60e01b148061039457506103948261127b565b6107a38282610f7e565b600081815260046020526040902080546001600160a01b0319166001600160a01b0384169081179091558190610c4a826107e1565b6001600160a01b03167f8c5be1e5ebec7d5bd14f71427d1e84f3dd0314c0f7b2291e5b200ac8c7c3b92560405160405180910390a45050565b6000818152600260205260408120546001600160a01b0316610cfc5760405162461bcd60e51b815260206004820152602c60248201527f4552433732313a206f70657261746f7220717565727920666f72206e6f6e657860448201526b34b9ba32b73a103a37b5b2b760a11b60648201526084016104a4565b6000610d07836107e1565b9050806001600160a01b0316846001600160a01b03161480610d425750836001600160a01b0316610d3784610527565b6001600160a01b0316145b80610d7257506001600160a01b0380821660009081526005602090815260408083209388168352929052205460ff165b949350505050565b826001600160a01b0316610d8d826107e1565b6001600160a01b031614610df55760405162461bcd60e51b815260206004820152602960248201527f4552433732313a207472616e73666572206f6620746f6b656e2074686174206960448201526839903737ba1037bbb760b91b60648201526084016104a4565b6001600160a01b038216610e575760405162461bcd60e51b8152602060048201526024808201527f4552433732313a207472616e7366657220746f20746865207a65726f206164646044820152637265737360e01b60648201526084016104a4565b610e62600082610c15565b6001600160a01b0383166000908152600360205260408120805460019290610e8b908490611b71565b90915550506001600160a01b0382166000908152600360205260408120805460019290610eb9908490611b3a565b909155505060008181526002602052604080822080546001600160a01b0319166001600160a01b0386811691821790925591518493918716917fddf252ad1be2c89b69c2b068fc378daa952ba7f163c4a11628f55a4df523b3ef91a4505050565b610f2482826108df565b6107a357610f3c816001600160a01b031660146112cb565b610f478360206112cb565b604051602001610f589291906119d2565b60408051601f198184030181529082905262461bcd60e51b82526104a491600401611a84565b610f8882826108df565b6107a35760008281526007602090815260408083206001600160a01b03851684529091529020805460ff19166001179055610fc03390565b6001600160a01b0316816001600160a01b0316837f2f8788117e7eff1d82e926ec794901d17c78024a50270940304540a733656f0d60405160405180910390a45050565b61100e82826108df565b156107a35760008281526007602090815260408083206001600160a01b0385168085529252808320805460ff1916905551339285917ff6391f5c32d9c69d2a47ea670b442974b53935d1edc7fd64eb21e047a839171b9190a45050565b611076848484610d7a565b611082848484846114b4565b6105215760405162461bcd60e51b81526004016104a490611a97565b6001600160a01b0382166110f45760405162461bcd60e51b815260206004820181905260248201527f4552433732313a206d696e7420746f20746865207a65726f206164647265737360448201526064016104a4565b6000818152600260205260409020546001600160a01b0316156111595760405162461bcd60e51b815260206004820152601c60248201527f4552433732313a20746f6b656e20616c7265616479206d696e7465640000000060448201526064016104a4565b6001600160a01b0382166000908152600360205260408120805460019290611182908490611b3a565b909155505060008181526002602052604080822080546001600160a01b0319166001600160a01b03861690811790915590518392907fddf252ad1be2c89b69c2b068fc378daa952ba7f163c4a11628f55a4df523b3ef908290a45050565b60006111eb826107e1565b90506111f8600083610c15565b6001600160a01b0381166000908152600360205260408120805460019290611221908490611b71565b909155505060008281526002602052604080822080546001600160a01b0319169055518391906001600160a01b038416907fddf252ad1be2c89b69c2b068fc378daa952ba7f163c4a11628f55a4df523b3ef908390a45050565b60006001600160e01b031982166380ac58cd60e01b14806112ac57506001600160e01b03198216635b5e139f60e01b145b8061039457506301ffc9a760e01b6001600160e01b0319831614610394565b606060006112da836002611b52565b6112e5906002611b3a565b67ffffffffffffffff81111561130b57634e487b7160e01b600052604160045260246000fd5b6040519080825280601f01601f191660200182016040528015611335576020820181803683370190505b509050600360fc1b8160008151811061135e57634e487b7160e01b600052603260045260246000fd5b60200101906001600160f81b031916908160001a905350600f60fb1b8160018151811061139b57634e487b7160e01b600052603260045260246000fd5b60200101906001600160f81b031916908160001a90535060006113bf846002611b52565b6113ca906001611b3a565b90505b600181111561145e576f181899199a1a9b1b9c1cb0b131b232b360811b85600f166010811061140c57634e487b7160e01b600052603260045260246000fd5b1a60f81b82828151811061143057634e487b7160e01b600052603260045260246000fd5b60200101906001600160f81b031916908160001a90535060049490941c9361145781611bb4565b90506113cd565b5083156114ad5760405162461bcd60e51b815260206004820181905260248201527f537472696e67733a20686578206c656e67746820696e73756666696369656e7460448201526064016104a4565b9392505050565b60006001600160a01b0384163b156115b657604051630a85bd0160e11b81526001600160a01b0385169063150b7a02906114f8903390899088908890600401611a47565b602060405180830381600087803b15801561151257600080fd5b505af1925050508015611542575060408051601f3d908101601f1916820190925261153f91810190611919565b60015b61159c573d808015611570576040519150601f19603f3d011682016040523d82523d6000602084013e611575565b606091505b5080516115945760405162461bcd60e51b81526004016104a490611a97565b805181602001fd5b6001600160e01b031916630a85bd0160e11b149050610d72565b506001949350505050565b8280546115cd90611bcb565b90600052602060002090601f0160209004810192826115ef5760008555611635565b82601f1061160857805160ff1916838001178555611635565b82800160010185558215611635579182015b8281111561163557825182559160200191906001019061161a565b50611641929150611645565b5090565b5b808211156116415760008155600101611646565b600067ffffffffffffffff8084111561167557611675611c1c565b604051601f8501601f19908116603f0116810190828211818310171561169d5761169d611c1c565b816040528093508581528686860111156116b657600080fd5b858560208301376000602087830101525050509392505050565b80356001600160a01b03811681146116e757600080fd5b919050565b600082601f8301126116fc578081fd5b6114ad8383356020850161165a565b60006020828403121561171c578081fd5b6114ad826116d0565b60008060408385031215611737578081fd5b611740836116d0565b915061174e602084016116d0565b90509250929050565b60008060006060848603121561176b578081fd5b611774846116d0565b9250611782602085016116d0565b9150604084013590509250925092565b600080600080608085870312156117a7578081fd5b6117b0856116d0565b93506117be602086016116d0565b925060408501359150606085013567ffffffffffffffff8111156117e0578182fd5b8501601f810187136117f0578182fd5b6117ff8782356020840161165a565b91505092959194509250565b6000806040838503121561181d578182fd5b611826836116d0565b91506020830135801515811461183a578182fd5b809150509250929050565b60008060408385031215611857578182fd5b611860836116d0565b946020939093013593505050565b600080600060608486031215611882578283fd5b61188b846116d0565b925060208401359150604084013567ffffffffffffffff8111156118ad578182fd5b6118b9868287016116ec565b9150509250925092565b6000602082840312156118d4578081fd5b5035919050565b600080604083850312156118ed578182fd5b8235915061174e602084016116d0565b60006020828403121561190e578081fd5b81356114ad81611c32565b60006020828403121561192a578081fd5b81516114ad81611c32565b600080600060608486031215611949578283fd5b833567ffffffffffffffff80821115611960578485fd5b61196c878388016116ec565b94506020860135915080821115611981578384fd5b5061198e868287016116ec565b92505061199d604085016116d0565b90509250925092565b600081518084526119be816020860160208601611b88565b601f01601f19169290920160200192915050565b7f416363657373436f6e74726f6c3a206163636f756e7420000000000000000000815260008351611a0a816017850160208801611b88565b7001034b99036b4b9b9b4b733903937b6329607d1b6017918401918201528351611a3b816028840160208801611b88565b01602801949350505050565b6001600160a01b0385811682528416602082015260408101839052608060608201819052600090611a7a908301846119a6565b9695505050505050565b6020815260006114ad60208301846119a6565b60208082526032908201527f4552433732313a207472616e7366657220746f206e6f6e20455243373231526560408201527131b2b4bb32b91034b6b83632b6b2b73a32b960711b606082015260800190565b60208082526031908201527f4552433732313a207472616e736665722063616c6c6572206973206e6f74206f6040820152701ddb995c881b9bdc88185c1c1c9bdd9959607a1b606082015260800190565b60008219821115611b4d57611b4d611c06565b500190565b6000816000190483118215151615611b6c57611b6c611c06565b500290565b600082821015611b8357611b83611c06565b500390565b60005b83811015611ba3578181015183820152602001611b8b565b838111156105215750506000910152565b600081611bc357611bc3611c06565b506000190190565b600181811c90821680611bdf57607f821691505b60208210811415611c0057634e487b7160e01b600052602260045260246000fd5b50919050565b634e487b7160e01b600052601160045260246000fd5b634e487b7160e01b600052604160045260246000fd5b6001600160e01b031981168114611c4857600080fd5b5056feaf290d8680820aad922855f39b306097b20e28774d6c1ad35a20325630c3a02ca26469706673582212200aa4413b8d9b40984ee406b322ab832ea5181e0ca17e0c78d41b47afd99c1f4c64736f6c63430008040033",
  "devdoc": {
    "kind": "dev",
    "methods": {
      "approve(address,uint256)": {
        "details": "See {IERC721-approve}."
      },
      "balanceOf(address)": {
        "details": "See {IERC721-balanceOf}."
      },
      "getApproved(uint256)": {
        "details": "See {IERC721-getApproved}."
      },
      "getRoleAdmin(bytes32)": {
        "details": "Returns the admin role that controls `role`. See {grantRole} and {revokeRole}. To change a role's admin, use {_setRoleAdmin}."
      },
      "grantRole(bytes32,address)": {
        "details": "Grants `role` to `account`. If `account` had not been already granted `role`, emits a {RoleGranted} event. Requirements: - the caller must have ``role``'s admin role."
      },
      "hasRole(bytes32,address)": {
        "details": "Returns `true` if `account` has been granted `role`."
      },
      "isApprovedForAll(address,address)": {
        "details": "See {IERC721-isApprovedForAll}."
      },
      "name()": {
        "details": "See {IERC721Metadata-name}."
      },
      "ownerOf(uint256)": {
        "details": "See {IERC721-ownerOf}."
      },
      "renounceRole(bytes32,address)": {
        "details": "Revokes `role` from the calling account. Roles are often managed via {grantRole} and {revokeRole}: this function's purpose is to provide a mechanism for accounts to lose their privileges if they are compromised (such as when a trusted device is misplaced). If the calling account had been granted `role`, emits a {RoleRevoked} event. Requirements: - the caller must be `account`."
      },
      "revokeRole(bytes32,address)": {
        "details": "Revokes `role` from `account`. If `account` had been granted `role`, emits a {RoleRevoked} event. Requirements: - the caller must have ``role``'s admin role."
      },
      "safeTransferFrom(address,address,uint256)": {
        "details": "See {IERC721-safeTransferFrom}."
      },
      "safeTransferFrom(address,address,uint256,bytes)": {
        "details": "See {IERC721-safeTransferFrom}."
      },
      "setApprovalForAll(address,bool)": {
        "details": "See {IERC721-setApprovalForAll}."
      },
      "symbol()": {
        "details": "See {IERC721Metadata-symbol}."
      },
      "tokenURI(uint256)": {
        "details": "See {IERC721Metadata-tokenURI}."
      },
      "transferFrom(address,address,uint256)": {
        "details": "See {IERC721-transferFrom}."
      }
    },
    "version": 1
  },
  "userdoc": {
    "kind": "user",
    "methods": {},
    "version": 1
  },
  "storageLayout": {
    "storage": [
      {
        "astId": 5252,
        "contract": "contracts/polygon/implementations/SyntheticNFT.sol:SyntheticNFT",
        "label": "_name",
        "offset": 0,
        "slot": "0",
        "type": "t_string_storage"
      },
      {
        "astId": 5254,
        "contract": "contracts/polygon/implementations/SyntheticNFT.sol:SyntheticNFT",
        "label": "_symbol",
        "offset": 0,
        "slot": "1",
        "type": "t_string_storage"
      },
      {
        "astId": 5258,
        "contract": "contracts/polygon/implementations/SyntheticNFT.sol:SyntheticNFT",
        "label": "_owners",
        "offset": 0,
        "slot": "2",
        "type": "t_mapping(t_uint256,t_address)"
      },
      {
        "astId": 5262,
        "contract": "contracts/polygon/implementations/SyntheticNFT.sol:SyntheticNFT",
        "label": "_balances",
        "offset": 0,
        "slot": "3",
        "type": "t_mapping(t_address,t_uint256)"
      },
      {
        "astId": 5266,
        "contract": "contracts/polygon/implementations/SyntheticNFT.sol:SyntheticNFT",
        "label": "_tokenApprovals",
        "offset": 0,
        "slot": "4",
        "type": "t_mapping(t_uint256,t_address)"
      },
      {
        "astId": 5272,
        "contract": "contracts/polygon/implementations/SyntheticNFT.sol:SyntheticNFT",
        "label": "_operatorApprovals",
        "offset": 0,
        "slot": "5",
        "type": "t_mapping(t_address,t_mapping(t_address,t_bool))"
      },
      {
        "astId": 3462,
        "contract": "contracts/polygon/implementations/SyntheticNFT.sol:SyntheticNFT",
        "label": "_initialized",
        "offset": 0,
        "slot": "6",
        "type": "t_bool"
      },
      {
        "astId": 3465,
        "contract": "contracts/polygon/implementations/SyntheticNFT.sol:SyntheticNFT",
        "label": "_initializing",
        "offset": 1,
        "slot": "6",
        "type": "t_bool"
      },
      {
        "astId": 290,
        "contract": "contracts/polygon/implementations/SyntheticNFT.sol:SyntheticNFT",
        "label": "_roles",
        "offset": 0,
        "slot": "7",
        "type": "t_mapping(t_bytes32,t_struct(RoleData)285_storage)"
      },
      {
        "astId": 11724,
        "contract": "contracts/polygon/implementations/SyntheticNFT.sol:SyntheticNFT",
        "label": "_tokenMetadata",
        "offset": 0,
        "slot": "8",
        "type": "t_mapping(t_uint256,t_string_storage)"
      },
      {
        "astId": 11726,
        "contract": "contracts/polygon/implementations/SyntheticNFT.sol:SyntheticNFT",
        "label": "_proxiedName",
        "offset": 0,
        "slot": "9",
        "type": "t_string_storage"
      },
      {
        "astId": 11728,
        "contract": "contracts/polygon/implementations/SyntheticNFT.sol:SyntheticNFT",
        "label": "_proxiedSymbol",
        "offset": 0,
        "slot": "10",
        "type": "t_string_storage"
      }
    ],
    "types": {
      "t_address": {
        "encoding": "inplace",
        "label": "address",
        "numberOfBytes": "20"
      },
      "t_bool": {
        "encoding": "inplace",
        "label": "bool",
        "numberOfBytes": "1"
      },
      "t_bytes32": {
        "encoding": "inplace",
        "label": "bytes32",
        "numberOfBytes": "32"
      },
      "t_mapping(t_address,t_bool)": {
        "encoding": "mapping",
        "key": "t_address",
        "label": "mapping(address => bool)",
        "numberOfBytes": "32",
        "value": "t_bool"
      },
      "t_mapping(t_address,t_mapping(t_address,t_bool))": {
        "encoding": "mapping",
        "key": "t_address",
        "label": "mapping(address => mapping(address => bool))",
        "numberOfBytes": "32",
        "value": "t_mapping(t_address,t_bool)"
      },
      "t_mapping(t_address,t_uint256)": {
        "encoding": "mapping",
        "key": "t_address",
        "label": "mapping(address => uint256)",
        "numberOfBytes": "32",
        "value": "t_uint256"
      },
      "t_mapping(t_bytes32,t_struct(RoleData)285_storage)": {
        "encoding": "mapping",
        "key": "t_bytes32",
        "label": "mapping(bytes32 => struct AccessControl.RoleData)",
        "numberOfBytes": "32",
        "value": "t_struct(RoleData)285_storage"
      },
      "t_mapping(t_uint256,t_address)": {
        "encoding": "mapping",
        "key": "t_uint256",
        "label": "mapping(uint256 => address)",
        "numberOfBytes": "32",
        "value": "t_address"
      },
      "t_mapping(t_uint256,t_string_storage)": {
        "encoding": "mapping",
        "key": "t_uint256",
        "label": "mapping(uint256 => string)",
        "numberOfBytes": "32",
        "value": "t_string_storage"
      },
      "t_string_storage": {
        "encoding": "bytes",
        "label": "string",
        "numberOfBytes": "32"
      },
      "t_struct(RoleData)285_storage": {
        "encoding": "inplace",
        "label": "struct AccessControl.RoleData",
        "members": [
          {
            "astId": 282,
            "contract": "contracts/polygon/implementations/SyntheticNFT.sol:SyntheticNFT",
            "label": "members",
            "offset": 0,
            "slot": "0",
            "type": "t_mapping(t_address,t_bool)"
          },
          {
            "astId": 284,
            "contract": "contracts/polygon/implementations/SyntheticNFT.sol:SyntheticNFT",
            "label": "adminRole",
            "offset": 0,
            "slot": "1",
            "type": "t_bytes32"
          }
        ],
        "numberOfBytes": "64"
      },
      "t_uint256": {
        "encoding": "inplace",
        "label": "uint256",
        "numberOfBytes": "32"
      }
    }
  }
}