{
  "address": "0x2A29B8dAD12796A99926D7D1D11BD8fACEC2e979",
  "abi": [
    {
      "inputs": [],
      "stateMutability": "nonpayable",
      "type": "constructor"
    },
    {
      "anonymous": false,
      "inputs": [
        {
          "indexed": true,
          "internalType": "address",
          "name": "owner",
          "type": "address"
        },
        {
          "indexed": true,
          "internalType": "address",
          "name": "approved",
          "type": "address"
        },
        {
          "indexed": true,
          "internalType": "uint256",
          "name": "tokenId",
          "type": "uint256"
        }
      ],
      "name": "Approval",
      "type": "event"
    },
    {
      "anonymous": false,
      "inputs": [
        {
          "indexed": true,
          "internalType": "address",
          "name": "owner",
          "type": "address"
        },
        {
          "indexed": true,
          "internalType": "address",
          "name": "operator",
          "type": "address"
        },
        {
          "indexed": false,
          "internalType": "bool",
          "name": "approved",
          "type": "bool"
        }
      ],
      "name": "ApprovalForAll",
      "type": "event"
    },
    {
      "anonymous": false,
      "inputs": [
        {
          "indexed": true,
          "internalType": "bytes32",
          "name": "role",
          "type": "bytes32"
        },
        {
          "indexed": true,
          "internalType": "bytes32",
          "name": "previousAdminRole",
          "type": "bytes32"
        },
        {
          "indexed": true,
          "internalType": "bytes32",
          "name": "newAdminRole",
          "type": "bytes32"
        }
      ],
      "name": "RoleAdminChanged",
      "type": "event"
    },
    {
      "anonymous": false,
      "inputs": [
        {
          "indexed": true,
          "internalType": "bytes32",
          "name": "role",
          "type": "bytes32"
        },
        {
          "indexed": true,
          "internalType": "address",
          "name": "account",
          "type": "address"
        },
        {
          "indexed": true,
          "internalType": "address",
          "name": "sender",
          "type": "address"
        }
      ],
      "name": "RoleGranted",
      "type": "event"
    },
    {
      "anonymous": false,
      "inputs": [
        {
          "indexed": true,
          "internalType": "bytes32",
          "name": "role",
          "type": "bytes32"
        },
        {
          "indexed": true,
          "internalType": "address",
          "name": "account",
          "type": "address"
        },
        {
          "indexed": true,
          "internalType": "address",
          "name": "sender",
          "type": "address"
        }
      ],
      "name": "RoleRevoked",
      "type": "event"
    },
    {
      "anonymous": false,
      "inputs": [
        {
          "indexed": true,
          "internalType": "address",
          "name": "from",
          "type": "address"
        },
        {
          "indexed": true,
          "internalType": "address",
          "name": "to",
          "type": "address"
        },
        {
          "indexed": true,
          "internalType": "uint256",
          "name": "tokenId",
          "type": "uint256"
        }
      ],
      "name": "Transfer",
      "type": "event"
    },
    {
      "inputs": [],
      "name": "DEFAULT_ADMIN_ROLE",
      "outputs": [
        {
          "internalType": "bytes32",
          "name": "",
          "type": "bytes32"
        }
      ],
      "stateMutability": "view",
      "type": "function"
    },
    {
      "inputs": [],
      "name": "MANAGER",
      "outputs": [
        {
          "internalType": "bytes32",
          "name": "",
          "type": "bytes32"
        }
      ],
      "stateMutability": "view",
      "type": "function"
    },
    {
      "inputs": [
        {
          "internalType": "address",
          "name": "to",
          "type": "address"
        },
        {
          "internalType": "uint256",
          "name": "tokenId",
          "type": "uint256"
        }
      ],
      "name": "approve",
      "outputs": [],
      "stateMutability": "nonpayable",
      "type": "function"
    },
    {
      "inputs": [
        {
          "internalType": "address",
          "name": "owner",
          "type": "address"
        }
      ],
      "name": "balanceOf",
      "outputs": [
        {
          "internalType": "uint256",
          "name": "",
          "type": "uint256"
        }
      ],
      "stateMutability": "view",
      "type": "function"
    },
    {
      "inputs": [
        {
          "internalType": "uint256",
          "name": "tokenId",
          "type": "uint256"
        }
      ],
      "name": "exists",
      "outputs": [
        {
          "internalType": "bool",
          "name": "",
          "type": "bool"
        }
      ],
      "stateMutability": "view",
      "type": "function"
    },
    {
      "inputs": [
        {
          "internalType": "uint256",
          "name": "tokenId",
          "type": "uint256"
        }
      ],
      "name": "getApproved",
      "outputs": [
        {
          "internalType": "address",
          "name": "",
          "type": "address"
        }
      ],
      "stateMutability": "view",
      "type": "function"
    },
    {
      "inputs": [
        {
          "internalType": "bytes32",
          "name": "role",
          "type": "bytes32"
        }
      ],
      "name": "getRoleAdmin",
      "outputs": [
        {
          "internalType": "bytes32",
          "name": "",
          "type": "bytes32"
        }
      ],
      "stateMutability": "view",
      "type": "function"
    },
    {
      "inputs": [
        {
          "internalType": "bytes32",
          "name": "role",
          "type": "bytes32"
        },
        {
          "internalType": "address",
          "name": "account",
          "type": "address"
        }
      ],
      "name": "grantRole",
      "outputs": [],
      "stateMutability": "nonpayable",
      "type": "function"
    },
    {
      "inputs": [
        {
          "internalType": "bytes32",
          "name": "role",
          "type": "bytes32"
        },
        {
          "internalType": "address",
          "name": "account",
          "type": "address"
        }
      ],
      "name": "hasRole",
      "outputs": [
        {
          "internalType": "bool",
          "name": "",
          "type": "bool"
        }
      ],
      "stateMutability": "view",
      "type": "function"
    },
    {
      "inputs": [
        {
          "internalType": "string",
          "name": "name_",
          "type": "string"
        },
        {
          "internalType": "string",
          "name": "symbol_",
          "type": "string"
        }
      ],
      "name": "initialize",
      "outputs": [],
      "stateMutability": "nonpayable",
      "type": "function"
    },
    {
      "inputs": [
        {
          "internalType": "address",
          "name": "owner",
          "type": "address"
        },
        {
          "internalType": "address",
          "name": "operator",
          "type": "address"
        }
      ],
      "name": "isApprovedForAll",
      "outputs": [
        {
          "internalType": "bool",
          "name": "",
          "type": "bool"
        }
      ],
      "stateMutability": "view",
      "type": "function"
    },
    {
      "inputs": [],
      "name": "name",
      "outputs": [
        {
          "internalType": "string",
          "name": "",
          "type": "string"
        }
      ],
      "stateMutability": "view",
      "type": "function"
    },
    {
      "inputs": [
        {
          "internalType": "uint256",
          "name": "tokenId",
          "type": "uint256"
        }
      ],
      "name": "ownerOf",
      "outputs": [
        {
          "internalType": "address",
          "name": "",
          "type": "address"
        }
      ],
      "stateMutability": "view",
      "type": "function"
    },
    {
      "inputs": [
        {
          "internalType": "bytes32",
          "name": "role",
          "type": "bytes32"
        },
        {
          "internalType": "address",
          "name": "account",
          "type": "address"
        }
      ],
      "name": "renounceRole",
      "outputs": [],
      "stateMutability": "nonpayable",
      "type": "function"
    },
    {
      "inputs": [
        {
          "internalType": "bytes32",
          "name": "role",
          "type": "bytes32"
        },
        {
          "internalType": "address",
          "name": "account",
          "type": "address"
        }
      ],
      "name": "revokeRole",
      "outputs": [],
      "stateMutability": "nonpayable",
      "type": "function"
    },
    {
      "inputs": [
        {
          "internalType": "uint256",
          "name": "tokenId",
          "type": "uint256"
        }
      ],
      "name": "safeBurn",
      "outputs": [],
      "stateMutability": "nonpayable",
      "type": "function"
    },
    {
      "inputs": [
        {
          "internalType": "address",
          "name": "to",
          "type": "address"
        },
        {
          "internalType": "uint256",
          "name": "tokenId",
          "type": "uint256"
        },
        {
          "internalType": "string",
          "name": "metadata",
          "type": "string"
        }
      ],
      "name": "safeMint",
      "outputs": [],
      "stateMutability": "nonpayable",
      "type": "function"
    },
    {
      "inputs": [
        {
          "internalType": "address",
          "name": "from",
          "type": "address"
        },
        {
          "internalType": "address",
          "name": "to",
          "type": "address"
        },
        {
          "internalType": "uint256",
          "name": "tokenId",
          "type": "uint256"
        }
      ],
      "name": "safeTransferFrom",
      "outputs": [],
      "stateMutability": "nonpayable",
      "type": "function"
    },
    {
      "inputs": [
        {
          "internalType": "address",
          "name": "from",
          "type": "address"
        },
        {
          "internalType": "address",
          "name": "to",
          "type": "address"
        },
        {
          "internalType": "uint256",
          "name": "tokenId",
          "type": "uint256"
        },
        {
          "internalType": "bytes",
          "name": "_data",
          "type": "bytes"
        }
      ],
      "name": "safeTransferFrom",
      "outputs": [],
      "stateMutability": "nonpayable",
      "type": "function"
    },
    {
      "inputs": [
        {
          "internalType": "address",
          "name": "operator",
          "type": "address"
        },
        {
          "internalType": "bool",
          "name": "approved",
          "type": "bool"
        }
      ],
      "name": "setApprovalForAll",
      "outputs": [],
      "stateMutability": "nonpayable",
      "type": "function"
    },
    {
      "inputs": [
        {
          "internalType": "bytes4",
          "name": "interfaceId",
          "type": "bytes4"
        }
      ],
      "name": "supportsInterface",
      "outputs": [
        {
          "internalType": "bool",
          "name": "",
          "type": "bool"
        }
      ],
      "stateMutability": "view",
      "type": "function"
    },
    {
      "inputs": [],
      "name": "symbol",
      "outputs": [
        {
          "internalType": "string",
          "name": "",
          "type": "string"
        }
      ],
      "stateMutability": "view",
      "type": "function"
    },
    {
      "inputs": [
        {
          "internalType": "uint256",
          "name": "tokenId",
          "type": "uint256"
        }
      ],
      "name": "tokenURI",
      "outputs": [
        {
          "internalType": "string",
          "name": "",
          "type": "string"
        }
      ],
      "stateMutability": "view",
      "type": "function"
    },
    {
      "inputs": [
        {
          "internalType": "address",
          "name": "from",
          "type": "address"
        },
        {
          "internalType": "address",
          "name": "to",
          "type": "address"
        },
        {
          "internalType": "uint256",
          "name": "tokenId",
          "type": "uint256"
        }
      ],
      "name": "transferFrom",
      "outputs": [],
      "stateMutability": "nonpayable",
      "type": "function"
    }
  ],
  "transactionHash": "0x8e515c5f0a6e703287437131bebd0737a9e6c9da0714786af74291b79a50b837",
  "args": [],
  "solcInputHash": "6972bfba4d76c9603a896f1e5fbcd63d",
  "bytecode": "0x60806040523480156200001157600080fd5b50604080518082018252601681527f507269766920436f6c6c656374696f6e20546f6b656e000000000000000000006020808301918252835180850190945260038452621410d560ea1b908401528151919291620000729160009162000091565b5080516200008890600190602084019062000091565b50505062000174565b8280546200009f9062000137565b90600052602060002090601f016020900481019282620000c357600085556200010e565b82601f10620000de57805160ff19168380011785556200010e565b828001600101855582156200010e579182015b828111156200010e578251825591602001919060010190620000f1565b506200011c92915062000120565b5090565b5b808211156200011c576000815560010162000121565b600181811c908216806200014c57607f821691505b602082108114156200016e57634e487b7160e01b600052602260045260246000fd5b50919050565b611ce280620001846000396000f3fe608060405234801561001057600080fd5b50600436106101585760003560e01c80636352211e116100c3578063b88d4fde1161007c578063b88d4fde146102ee578063c87b56dd14610301578063cd279c7c14610314578063d547741f14610327578063dbf513251461033a578063e985e9c51461034d57600080fd5b80636352211e1461029257806370a08231146102a557806391d14854146102b857806395d89b41146102cb578063a217fddf146102d3578063a22cb465146102db57600080fd5b8063248a9ca311610115578063248a9ca3146102105780632f2ff15d1461023357806336568abe1461024657806342842e0e146102595780634cd88b761461026c5780634f558e791461027f57600080fd5b806301ffc9a71461015d57806306fdde0314610185578063081812fc1461019a578063095ea7b3146101c55780631b2df850146101da57806323b872dd146101fd575b600080fd5b61017061016b36600461194e565b610389565b60405190151581526020015b60405180910390f35b61018d61039a565b60405161017c9190611ac5565b6101ad6101a8366004611914565b61042c565b6040516001600160a01b03909116815260200161017c565b6101d86101d3366004611896565b6104c6565b005b6101ef600080516020611c8d83398151915281565b60405190815260200161017c565b6101d861020b3660046117a8565b6105dc565b6101ef61021e366004611914565b60009081526007602052604090206001015490565b6101d861024136600461192c565b61060d565b6101d861025436600461192c565b610633565b6101d86102673660046117a8565b6106b1565b6101d861027a366004611986565b6106cc565b61017061028d366004611914565b6107c0565b6101ad6102a0366004611914565b6107df565b6101ef6102b336600461175c565b610856565b6101706102c636600461192c565b6108dd565b61018d610908565b6101ef600081565b6101d86102e936600461185c565b610917565b6101d86102fc3660046117e3565b6109dc565b61018d61030f366004611914565b610a14565b6101d86103223660046118bf565b610b31565b6101d861033536600461192c565b610b7a565b6101d8610348366004611914565b610ba0565b61017061035b366004611776565b6001600160a01b03918216600090815260056020908152604080832093909416825291909152205460ff1690565b600061039482610bea565b92915050565b6060600980546103a990611c0c565b80601f01602080910402602001604051908101604052809291908181526020018280546103d590611c0c565b80156104225780601f106103f757610100808354040283529160200191610422565b820191906000526020600020905b81548152906001019060200180831161040557829003601f168201915b5050505050905090565b6000818152600260205260408120546001600160a01b03166104aa5760405162461bcd60e51b815260206004820152602c60248201527f4552433732313a20617070726f76656420717565727920666f72206e6f6e657860448201526b34b9ba32b73a103a37b5b2b760a11b60648201526084015b60405180910390fd5b506000908152600460205260409020546001600160a01b031690565b60006104d1826107df565b9050806001600160a01b0316836001600160a01b0316141561053f5760405162461bcd60e51b815260206004820152602160248201527f4552433732313a20617070726f76616c20746f2063757272656e74206f776e656044820152603960f91b60648201526084016104a1565b336001600160a01b038216148061055b575061055b813361035b565b6105cd5760405162461bcd60e51b815260206004820152603860248201527f4552433732313a20617070726f76652063616c6c6572206973206e6f74206f7760448201527f6e6572206e6f7220617070726f76656420666f7220616c6c000000000000000060648201526084016104a1565b6105d78383610c0f565b505050565b6105e63382610c7d565b6106025760405162461bcd60e51b81526004016104a190611b2a565b6105d7838383610d74565b6000828152600760205260409020600101546106298133610f14565b6105d78383610f78565b6001600160a01b03811633146106a35760405162461bcd60e51b815260206004820152602f60248201527f416363657373436f6e74726f6c3a2063616e206f6e6c792072656e6f756e636560448201526e103937b632b9903337b91039b2b63360891b60648201526084016104a1565b6106ad8282610ffe565b5050565b6105d7838383604051806020016040528060008152506109dc565b600654610100900460ff16806106e5575060065460ff16155b6107485760405162461bcd60e51b815260206004820152602e60248201527f496e697469616c697a61626c653a20636f6e747261637420697320616c72656160448201526d191e481a5b9a5d1a585b1a5e995960921b60648201526084016104a1565b600654610100900460ff1615801561076a576006805461ffff19166101011790555b825161077d906009906020860190611612565b50815161079190600a906020850190611612565b506107aa600080516020611c8d83398151915233611065565b80156105d7576006805461ff0019169055505050565b6000818152600260205260408120546001600160a01b03161515610394565b6000818152600260205260408120546001600160a01b0316806103945760405162461bcd60e51b815260206004820152602960248201527f4552433732313a206f776e657220717565727920666f72206e6f6e657869737460448201526832b73a103a37b5b2b760b91b60648201526084016104a1565b60006001600160a01b0382166108c15760405162461bcd60e51b815260206004820152602a60248201527f4552433732313a2062616c616e636520717565727920666f7220746865207a65604482015269726f206164647265737360b01b60648201526084016104a1565b506001600160a01b031660009081526003602052604090205490565b60009182526007602090815260408084206001600160a01b0393909316845291905290205460ff1690565b6060600a80546103a990611c0c565b6001600160a01b0382163314156109705760405162461bcd60e51b815260206004820152601960248201527f4552433732313a20617070726f766520746f2063616c6c65720000000000000060448201526064016104a1565b3360008181526005602090815260408083206001600160a01b03871680855290835292819020805460ff191686151590811790915590519081529192917f17307eab39ab6107e8899845ad3d59bd9653f200f220920489ca2b5937696c31910160405180910390a35050565b6109e63383610c7d565b610a025760405162461bcd60e51b81526004016104a190611b2a565b610a0e8484848461106f565b50505050565b6000818152600260205260409020546060906001600160a01b0316610a935760405162461bcd60e51b815260206004820152602f60248201527f4552433732314d657461646174613a2055524920717565727920666f72206e6f60448201526e3732bc34b9ba32b73a103a37b5b2b760891b60648201526084016104a1565b60008281526008602052604090208054610aac90611c0c565b80601f0160208091040260200160405190810160405280929190818152602001828054610ad890611c0c565b8015610b255780601f10610afa57610100808354040283529160200191610b25565b820191906000526020600020905b815481529060010190602001808311610b0857829003601f168201915b50505050509050919050565b600080516020611c8d833981519152610b4a8133610f14565b610b5484846110a2565b60008381526008602090815260409091208351610b7392850190611612565b5050505050565b600082815260076020526040902060010154610b968133610f14565b6105d78383610ffe565b600080516020611c8d833981519152610bb98133610f14565b610bc2826110bc565b6040805160208082018084526000808452868152600890925292902090516105d79290611612565b60006001600160e01b03198216637965db0b60e01b1480610394575061039482611157565b600081815260046020526040902080546001600160a01b0319166001600160a01b0384169081179091558190610c44826107df565b6001600160a01b03167f8c5be1e5ebec7d5bd14f71427d1e84f3dd0314c0f7b2291e5b200ac8c7c3b92560405160405180910390a45050565b6000818152600260205260408120546001600160a01b0316610cf65760405162461bcd60e51b815260206004820152602c60248201527f4552433732313a206f70657261746f7220717565727920666f72206e6f6e657860448201526b34b9ba32b73a103a37b5b2b760a11b60648201526084016104a1565b6000610d01836107df565b9050806001600160a01b0316846001600160a01b03161480610d3c5750836001600160a01b0316610d318461042c565b6001600160a01b0316145b80610d6c57506001600160a01b0380821660009081526005602090815260408083209388168352929052205460ff165b949350505050565b826001600160a01b0316610d87826107df565b6001600160a01b031614610def5760405162461bcd60e51b815260206004820152602960248201527f4552433732313a207472616e73666572206f6620746f6b656e2074686174206960448201526839903737ba1037bbb760b91b60648201526084016104a1565b6001600160a01b038216610e515760405162461bcd60e51b8152602060048201526024808201527f4552433732313a207472616e7366657220746f20746865207a65726f206164646044820152637265737360e01b60648201526084016104a1565b610e5c600082610c0f565b6001600160a01b0383166000908152600360205260408120805460019290610e85908490611bb2565b90915550506001600160a01b0382166000908152600360205260408120805460019290610eb3908490611b7b565b909155505060008181526002602052604080822080546001600160a01b0319166001600160a01b0386811691821790925591518493918716917fddf252ad1be2c89b69c2b068fc378daa952ba7f163c4a11628f55a4df523b3ef91a4505050565b610f1e82826108dd565b6106ad57610f36816001600160a01b031660146111a7565b610f418360206111a7565b604051602001610f52929190611a13565b60408051601f198184030181529082905262461bcd60e51b82526104a191600401611ac5565b610f8282826108dd565b6106ad5760008281526007602090815260408083206001600160a01b03851684529091529020805460ff19166001179055610fba3390565b6001600160a01b0316816001600160a01b0316837f2f8788117e7eff1d82e926ec794901d17c78024a50270940304540a733656f0d60405160405180910390a45050565b61100882826108dd565b156106ad5760008281526007602090815260408083206001600160a01b0385168085529252808320805460ff1916905551339285917ff6391f5c32d9c69d2a47ea670b442974b53935d1edc7fd64eb21e047a839171b9190a45050565b6106ad8282610f78565b61107a848484610d74565b61108684848484611390565b610a0e5760405162461bcd60e51b81526004016104a190611ad8565b6106ad82826040518060200160405280600081525061149d565b60006110c7826107df565b90506110d4600083610c0f565b6001600160a01b03811660009081526003602052604081208054600192906110fd908490611bb2565b909155505060008281526002602052604080822080546001600160a01b0319169055518391906001600160a01b038416907fddf252ad1be2c89b69c2b068fc378daa952ba7f163c4a11628f55a4df523b3ef908390a45050565b60006001600160e01b031982166380ac58cd60e01b148061118857506001600160e01b03198216635b5e139f60e01b145b8061039457506301ffc9a760e01b6001600160e01b0319831614610394565b606060006111b6836002611b93565b6111c1906002611b7b565b67ffffffffffffffff8111156111e757634e487b7160e01b600052604160045260246000fd5b6040519080825280601f01601f191660200182016040528015611211576020820181803683370190505b509050600360fc1b8160008151811061123a57634e487b7160e01b600052603260045260246000fd5b60200101906001600160f81b031916908160001a905350600f60fb1b8160018151811061127757634e487b7160e01b600052603260045260246000fd5b60200101906001600160f81b031916908160001a905350600061129b846002611b93565b6112a6906001611b7b565b90505b600181111561133a576f181899199a1a9b1b9c1cb0b131b232b360811b85600f16601081106112e857634e487b7160e01b600052603260045260246000fd5b1a60f81b82828151811061130c57634e487b7160e01b600052603260045260246000fd5b60200101906001600160f81b031916908160001a90535060049490941c9361133381611bf5565b90506112a9565b5083156113895760405162461bcd60e51b815260206004820181905260248201527f537472696e67733a20686578206c656e67746820696e73756666696369656e7460448201526064016104a1565b9392505050565b60006001600160a01b0384163b1561149257604051630a85bd0160e11b81526001600160a01b0385169063150b7a02906113d4903390899088908890600401611a88565b602060405180830381600087803b1580156113ee57600080fd5b505af192505050801561141e575060408051601f3d908101601f1916820190925261141b9181019061196a565b60015b611478573d80801561144c576040519150601f19603f3d011682016040523d82523d6000602084013e611451565b606091505b5080516114705760405162461bcd60e51b81526004016104a190611ad8565b805181602001fd5b6001600160e01b031916630a85bd0160e11b149050610d6c565b506001949350505050565b6114a783836114d0565b6114b46000848484611390565b6105d75760405162461bcd60e51b81526004016104a190611ad8565b6001600160a01b0382166115265760405162461bcd60e51b815260206004820181905260248201527f4552433732313a206d696e7420746f20746865207a65726f206164647265737360448201526064016104a1565b6000818152600260205260409020546001600160a01b03161561158b5760405162461bcd60e51b815260206004820152601c60248201527f4552433732313a20746f6b656e20616c7265616479206d696e7465640000000060448201526064016104a1565b6001600160a01b03821660009081526003602052604081208054600192906115b4908490611b7b565b909155505060008181526002602052604080822080546001600160a01b0319166001600160a01b03861690811790915590518392907fddf252ad1be2c89b69c2b068fc378daa952ba7f163c4a11628f55a4df523b3ef908290a45050565b82805461161e90611c0c565b90600052602060002090601f0160209004810192826116405760008555611686565b82601f1061165957805160ff1916838001178555611686565b82800160010185558215611686579182015b8281111561168657825182559160200191906001019061166b565b50611692929150611696565b5090565b5b808211156116925760008155600101611697565b600067ffffffffffffffff808411156116c6576116c6611c5d565b604051601f8501601f19908116603f011681019082821181831017156116ee576116ee611c5d565b8160405280935085815286868601111561170757600080fd5b858560208301376000602087830101525050509392505050565b80356001600160a01b038116811461173857600080fd5b919050565b600082601f83011261174d578081fd5b611389838335602085016116ab565b60006020828403121561176d578081fd5b61138982611721565b60008060408385031215611788578081fd5b61179183611721565b915061179f60208401611721565b90509250929050565b6000806000606084860312156117bc578081fd5b6117c584611721565b92506117d360208501611721565b9150604084013590509250925092565b600080600080608085870312156117f8578081fd5b61180185611721565b935061180f60208601611721565b925060408501359150606085013567ffffffffffffffff811115611831578182fd5b8501601f81018713611841578182fd5b611850878235602084016116ab565b91505092959194509250565b6000806040838503121561186e578182fd5b61187783611721565b91506020830135801515811461188b578182fd5b809150509250929050565b600080604083850312156118a8578182fd5b6118b183611721565b946020939093013593505050565b6000806000606084860312156118d3578283fd5b6118dc84611721565b925060208401359150604084013567ffffffffffffffff8111156118fe578182fd5b61190a8682870161173d565b9150509250925092565b600060208284031215611925578081fd5b5035919050565b6000806040838503121561193e578182fd5b8235915061179f60208401611721565b60006020828403121561195f578081fd5b813561138981611c73565b60006020828403121561197b578081fd5b815161138981611c73565b60008060408385031215611998578182fd5b823567ffffffffffffffff808211156119af578384fd5b6119bb8683870161173d565b935060208501359150808211156119d0578283fd5b506119dd8582860161173d565b9150509250929050565b600081518084526119ff816020860160208601611bc9565b601f01601f19169290920160200192915050565b7f416363657373436f6e74726f6c3a206163636f756e7420000000000000000000815260008351611a4b816017850160208801611bc9565b7001034b99036b4b9b9b4b733903937b6329607d1b6017918401918201528351611a7c816028840160208801611bc9565b01602801949350505050565b6001600160a01b0385811682528416602082015260408101839052608060608201819052600090611abb908301846119e7565b9695505050505050565b60208152600061138960208301846119e7565b60208082526032908201527f4552433732313a207472616e7366657220746f206e6f6e20455243373231526560408201527131b2b4bb32b91034b6b83632b6b2b73a32b960711b606082015260800190565b60208082526031908201527f4552433732313a207472616e736665722063616c6c6572206973206e6f74206f6040820152701ddb995c881b9bdc88185c1c1c9bdd9959607a1b606082015260800190565b60008219821115611b8e57611b8e611c47565b500190565b6000816000190483118215151615611bad57611bad611c47565b500290565b600082821015611bc457611bc4611c47565b500390565b60005b83811015611be4578181015183820152602001611bcc565b83811115610a0e5750506000910152565b600081611c0457611c04611c47565b506000190190565b600181811c90821680611c2057607f821691505b60208210811415611c4157634e487b7160e01b600052602260045260246000fd5b50919050565b634e487b7160e01b600052601160045260246000fd5b634e487b7160e01b600052604160045260246000fd5b6001600160e01b031981168114611c8957600080fd5b5056feaf290d8680820aad922855f39b306097b20e28774d6c1ad35a20325630c3a02ca26469706673582212200373d93e98bfba0311eccdb55455a3cceb86bef6fc493cb6993b339208ab45c364736f6c63430008040033",
  "devdoc": {
    "kind": "dev",
    "methods": {
      "approve(address,uint256)": {
        "details": "See {IERC721-approve}."
      },
      "balanceOf(address)": {
        "details": "See {IERC721-balanceOf}."
      },
      "getApproved(uint256)": {
        "details": "See {IERC721-getApproved}."
      },
      "getRoleAdmin(bytes32)": {
        "details": "Returns the admin role that controls `role`. See {grantRole} and {revokeRole}. To change a role's admin, use {_setRoleAdmin}."
      },
      "grantRole(bytes32,address)": {
        "details": "Grants `role` to `account`. If `account` had not been already granted `role`, emits a {RoleGranted} event. Requirements: - the caller must have ``role``'s admin role."
      },
      "hasRole(bytes32,address)": {
        "details": "Returns `true` if `account` has been granted `role`."
      },
      "isApprovedForAll(address,address)": {
        "details": "See {IERC721-isApprovedForAll}."
      },
      "name()": {
        "details": "See {IERC721Metadata-name}."
      },
      "ownerOf(uint256)": {
        "details": "See {IERC721-ownerOf}."
      },
      "renounceRole(bytes32,address)": {
        "details": "Revokes `role` from the calling account. Roles are often managed via {grantRole} and {revokeRole}: this function's purpose is to provide a mechanism for accounts to lose their privileges if they are compromised (such as when a trusted device is misplaced). If the calling account had been granted `role`, emits a {RoleRevoked} event. Requirements: - the caller must be `account`."
      },
      "revokeRole(bytes32,address)": {
        "details": "Revokes `role` from `account`. If `account` had been granted `role`, emits a {RoleRevoked} event. Requirements: - the caller must have ``role``'s admin role."
      },
      "safeTransferFrom(address,address,uint256)": {
        "details": "See {IERC721-safeTransferFrom}."
      },
      "safeTransferFrom(address,address,uint256,bytes)": {
        "details": "See {IERC721-safeTransferFrom}."
      },
      "setApprovalForAll(address,bool)": {
        "details": "See {IERC721-setApprovalForAll}."
      },
      "symbol()": {
        "details": "See {IERC721Metadata-symbol}."
      },
      "tokenURI(uint256)": {
        "details": "See {IERC721Metadata-tokenURI}."
      },
      "transferFrom(address,address,uint256)": {
        "details": "See {IERC721-transferFrom}."
      }
    },
    "version": 1
  },
  "userdoc": {
    "kind": "user",
    "methods": {},
    "version": 1
  },
  "storageLayout": {
    "storage": [
      {
        "astId": 4986,
        "contract": "contracts/polygon/implementations/SyntheticNFT.sol:SyntheticNFT",
        "label": "_name",
        "offset": 0,
        "slot": "0",
        "type": "t_string_storage"
      },
      {
        "astId": 4988,
        "contract": "contracts/polygon/implementations/SyntheticNFT.sol:SyntheticNFT",
        "label": "_symbol",
        "offset": 0,
        "slot": "1",
        "type": "t_string_storage"
      },
      {
        "astId": 4992,
        "contract": "contracts/polygon/implementations/SyntheticNFT.sol:SyntheticNFT",
        "label": "_owners",
        "offset": 0,
        "slot": "2",
        "type": "t_mapping(t_uint256,t_address)"
      },
      {
        "astId": 4996,
        "contract": "contracts/polygon/implementations/SyntheticNFT.sol:SyntheticNFT",
        "label": "_balances",
        "offset": 0,
        "slot": "3",
        "type": "t_mapping(t_address,t_uint256)"
      },
      {
        "astId": 5000,
        "contract": "contracts/polygon/implementations/SyntheticNFT.sol:SyntheticNFT",
        "label": "_tokenApprovals",
        "offset": 0,
        "slot": "4",
        "type": "t_mapping(t_uint256,t_address)"
      },
      {
        "astId": 5006,
        "contract": "contracts/polygon/implementations/SyntheticNFT.sol:SyntheticNFT",
        "label": "_operatorApprovals",
        "offset": 0,
        "slot": "5",
        "type": "t_mapping(t_address,t_mapping(t_address,t_bool))"
      },
      {
        "astId": 3196,
        "contract": "contracts/polygon/implementations/SyntheticNFT.sol:SyntheticNFT",
        "label": "_initialized",
        "offset": 0,
        "slot": "6",
        "type": "t_bool"
      },
      {
        "astId": 3199,
        "contract": "contracts/polygon/implementations/SyntheticNFT.sol:SyntheticNFT",
        "label": "_initializing",
        "offset": 1,
        "slot": "6",
        "type": "t_bool"
      },
      {
        "astId": 24,
        "contract": "contracts/polygon/implementations/SyntheticNFT.sol:SyntheticNFT",
        "label": "_roles",
        "offset": 0,
        "slot": "7",
        "type": "t_mapping(t_bytes32,t_struct(RoleData)19_storage)"
      },
      {
        "astId": 11190,
        "contract": "contracts/polygon/implementations/SyntheticNFT.sol:SyntheticNFT",
        "label": "_tokenMetadata",
        "offset": 0,
        "slot": "8",
        "type": "t_mapping(t_uint256,t_string_storage)"
      },
      {
        "astId": 11192,
        "contract": "contracts/polygon/implementations/SyntheticNFT.sol:SyntheticNFT",
        "label": "_proxiedName",
        "offset": 0,
        "slot": "9",
        "type": "t_string_storage"
      },
      {
        "astId": 11194,
        "contract": "contracts/polygon/implementations/SyntheticNFT.sol:SyntheticNFT",
        "label": "_proxiedSymbol",
        "offset": 0,
        "slot": "10",
        "type": "t_string_storage"
      }
    ],
    "types": {
      "t_address": {
        "encoding": "inplace",
        "label": "address",
        "numberOfBytes": "20"
      },
      "t_bool": {
        "encoding": "inplace",
        "label": "bool",
        "numberOfBytes": "1"
      },
      "t_bytes32": {
        "encoding": "inplace",
        "label": "bytes32",
        "numberOfBytes": "32"
      },
      "t_mapping(t_address,t_bool)": {
        "encoding": "mapping",
        "key": "t_address",
        "label": "mapping(address => bool)",
        "numberOfBytes": "32",
        "value": "t_bool"
      },
      "t_mapping(t_address,t_mapping(t_address,t_bool))": {
        "encoding": "mapping",
        "key": "t_address",
        "label": "mapping(address => mapping(address => bool))",
        "numberOfBytes": "32",
        "value": "t_mapping(t_address,t_bool)"
      },
      "t_mapping(t_address,t_uint256)": {
        "encoding": "mapping",
        "key": "t_address",
        "label": "mapping(address => uint256)",
        "numberOfBytes": "32",
        "value": "t_uint256"
      },
      "t_mapping(t_bytes32,t_struct(RoleData)19_storage)": {
        "encoding": "mapping",
        "key": "t_bytes32",
        "label": "mapping(bytes32 => struct AccessControl.RoleData)",
        "numberOfBytes": "32",
        "value": "t_struct(RoleData)19_storage"
      },
      "t_mapping(t_uint256,t_address)": {
        "encoding": "mapping",
        "key": "t_uint256",
        "label": "mapping(uint256 => address)",
        "numberOfBytes": "32",
        "value": "t_address"
      },
      "t_mapping(t_uint256,t_string_storage)": {
        "encoding": "mapping",
        "key": "t_uint256",
        "label": "mapping(uint256 => string)",
        "numberOfBytes": "32",
        "value": "t_string_storage"
      },
      "t_string_storage": {
        "encoding": "bytes",
        "label": "string",
        "numberOfBytes": "32"
      },
      "t_struct(RoleData)19_storage": {
        "encoding": "inplace",
        "label": "struct AccessControl.RoleData",
        "members": [
          {
            "astId": 16,
            "contract": "contracts/polygon/implementations/SyntheticNFT.sol:SyntheticNFT",
            "label": "members",
            "offset": 0,
            "slot": "0",
            "type": "t_mapping(t_address,t_bool)"
          },
          {
            "astId": 18,
            "contract": "contracts/polygon/implementations/SyntheticNFT.sol:SyntheticNFT",
            "label": "adminRole",
            "offset": 0,
            "slot": "1",
            "type": "t_bytes32"
          }
        ],
        "numberOfBytes": "64"
      },
      "t_uint256": {
        "encoding": "inplace",
        "label": "uint256",
        "numberOfBytes": "32"
      }
    }
  }
}