{
  "address": "0xd64E814f69Ed1dAA31a3BB4D999aC03622837e0c",
  "abi": [
    {
      "inputs": [],
      "stateMutability": "nonpayable",
      "type": "constructor"
    },
    {
      "anonymous": false,
      "inputs": [
        {
          "indexed": true,
          "internalType": "bytes32",
          "name": "role",
          "type": "bytes32"
        },
        {
          "indexed": true,
          "internalType": "bytes32",
          "name": "previousAdminRole",
          "type": "bytes32"
        },
        {
          "indexed": true,
          "internalType": "bytes32",
          "name": "newAdminRole",
          "type": "bytes32"
        }
      ],
      "name": "RoleAdminChanged",
      "type": "event"
    },
    {
      "anonymous": false,
      "inputs": [
        {
          "indexed": true,
          "internalType": "bytes32",
          "name": "role",
          "type": "bytes32"
        },
        {
          "indexed": true,
          "internalType": "address",
          "name": "account",
          "type": "address"
        },
        {
          "indexed": true,
          "internalType": "address",
          "name": "sender",
          "type": "address"
        }
      ],
      "name": "RoleGranted",
      "type": "event"
    },
    {
      "anonymous": false,
      "inputs": [
        {
          "indexed": true,
          "internalType": "bytes32",
          "name": "role",
          "type": "bytes32"
        },
        {
          "indexed": true,
          "internalType": "address",
          "name": "account",
          "type": "address"
        },
        {
          "indexed": true,
          "internalType": "address",
          "name": "sender",
          "type": "address"
        }
      ],
      "name": "RoleRevoked",
      "type": "event"
    },
    {
      "inputs": [],
      "name": "AUCTION_MANAGER",
      "outputs": [
        {
          "internalType": "bytes32",
          "name": "",
          "type": "bytes32"
        }
      ],
      "stateMutability": "view",
      "type": "function"
    },
    {
      "inputs": [
        {
          "internalType": "uint256",
          "name": "tokenId",
          "type": "uint256"
        },
        {
          "internalType": "uint256",
          "name": "buyAmount",
          "type": "uint256"
        }
      ],
      "name": "BuyJotTokens",
      "outputs": [],
      "stateMutability": "nonpayable",
      "type": "function"
    },
    {
      "inputs": [],
      "name": "DEFAULT_ADMIN_ROLE",
      "outputs": [
        {
          "internalType": "bytes32",
          "name": "",
          "type": "bytes32"
        }
      ],
      "stateMutability": "view",
      "type": "function"
    },
    {
      "inputs": [],
      "name": "ROUTER",
      "outputs": [
        {
          "internalType": "bytes32",
          "name": "",
          "type": "bytes32"
        }
      ],
      "stateMutability": "view",
      "type": "function"
    },
    {
      "inputs": [
        {
          "internalType": "uint256",
          "name": "",
          "type": "uint256"
        }
      ],
      "name": "_jots",
      "outputs": [
        {
          "internalType": "uint256",
          "name": "ownerSupply",
          "type": "uint256"
        },
        {
          "internalType": "uint256",
          "name": "sellingSupply",
          "type": "uint256"
        },
        {
          "internalType": "uint256",
          "name": "soldSupply",
          "type": "uint256"
        },
        {
          "internalType": "uint256",
          "name": "liquiditySupply",
          "type": "uint256"
        },
        {
          "internalType": "uint256",
          "name": "liquiditySold",
          "type": "uint256"
        },
        {
          "internalType": "uint256",
          "name": "fractionPrices",
          "type": "uint256"
        }
      ],
      "stateMutability": "view",
      "type": "function"
    },
    {
      "inputs": [],
      "name": "_originalCollectionAddress",
      "outputs": [
        {
          "internalType": "address",
          "name": "",
          "type": "address"
        }
      ],
      "stateMutability": "view",
      "type": "function"
    },
    {
      "inputs": [],
      "name": "_syntheticProtocolRouterAddress",
      "outputs": [
        {
          "internalType": "address",
          "name": "",
          "type": "address"
        }
      ],
      "stateMutability": "view",
      "type": "function"
    },
    {
      "inputs": [],
      "name": "_tokenCounter",
      "outputs": [
        {
          "internalType": "uint256",
          "name": "_value",
          "type": "uint256"
        }
      ],
      "stateMutability": "view",
      "type": "function"
    },
    {
      "inputs": [
        {
          "internalType": "uint256",
          "name": "",
          "type": "uint256"
        }
      ],
      "name": "_tokens",
      "outputs": [
        {
          "internalType": "bool",
          "name": "",
          "type": "bool"
        }
      ],
      "stateMutability": "view",
      "type": "function"
    },
    {
      "inputs": [
        {
          "internalType": "uint256",
          "name": "tokenId",
          "type": "uint256"
        }
      ],
      "name": "addLiquidityToPool",
      "outputs": [],
      "stateMutability": "nonpayable",
      "type": "function"
    },
    {
      "inputs": [
        {
          "internalType": "uint256",
          "name": "tokenId",
          "type": "uint256"
        },
        {
          "internalType": "uint256",
          "name": "amount",
          "type": "uint256"
        }
      ],
      "name": "decreaseSellingSupply",
      "outputs": [],
      "stateMutability": "nonpayable",
      "type": "function"
    },
    {
      "inputs": [],
      "name": "erc721address",
      "outputs": [
        {
          "internalType": "address",
          "name": "",
          "type": "address"
        }
      ],
      "stateMutability": "view",
      "type": "function"
    },
    {
      "inputs": [
        {
          "internalType": "uint256",
          "name": "tokenId",
          "type": "uint256"
        },
        {
          "internalType": "uint256",
          "name": "prediction",
          "type": "uint256"
        }
      ],
      "name": "flipJot",
      "outputs": [],
      "stateMutability": "nonpayable",
      "type": "function"
    },
    {
      "inputs": [],
      "name": "fundingTokenAddress",
      "outputs": [
        {
          "internalType": "address",
          "name": "",
          "type": "address"
        }
      ],
      "stateMutability": "view",
      "type": "function"
    },
    {
      "inputs": [
        {
          "internalType": "uint256",
          "name": "tokenId",
          "type": "uint256"
        }
      ],
      "name": "getRemainingSupply",
      "outputs": [
        {
          "internalType": "uint256",
          "name": "",
          "type": "uint256"
        }
      ],
      "stateMutability": "view",
      "type": "function"
    },
    {
      "inputs": [
        {
          "internalType": "bytes32",
          "name": "role",
          "type": "bytes32"
        }
      ],
      "name": "getRoleAdmin",
      "outputs": [
        {
          "internalType": "bytes32",
          "name": "",
          "type": "bytes32"
        }
      ],
      "stateMutability": "view",
      "type": "function"
    },
    {
      "inputs": [
        {
          "internalType": "bytes32",
          "name": "role",
          "type": "bytes32"
        },
        {
          "internalType": "address",
          "name": "account",
          "type": "address"
        }
      ],
      "name": "grantRole",
      "outputs": [],
      "stateMutability": "nonpayable",
      "type": "function"
    },
    {
      "inputs": [
        {
          "internalType": "bytes32",
          "name": "role",
          "type": "bytes32"
        },
        {
          "internalType": "address",
          "name": "account",
          "type": "address"
        }
      ],
      "name": "hasRole",
      "outputs": [
        {
          "internalType": "bool",
          "name": "",
          "type": "bool"
        }
      ],
      "stateMutability": "view",
      "type": "function"
    },
    {
      "inputs": [
        {
          "internalType": "uint256",
          "name": "tokenId",
          "type": "uint256"
        },
        {
          "internalType": "uint256",
          "name": "amount",
          "type": "uint256"
        }
      ],
      "name": "increaseSellingSupply",
      "outputs": [],
      "stateMutability": "nonpayable",
      "type": "function"
    },
    {
      "inputs": [
        {
          "internalType": "address",
          "name": "_jotAddress",
          "type": "address"
        },
        {
          "internalType": "address",
          "name": "originalCollectionAddress_",
          "type": "address"
        },
        {
          "internalType": "address",
          "name": "_erc721address",
          "type": "address"
        },
        {
          "internalType": "address",
          "name": "auctionManagerAddress",
          "type": "address"
        },
        {
          "internalType": "address",
          "name": "protocol_",
          "type": "address"
        },
        {
          "internalType": "address",
          "name": "fundingTokenAddress_",
          "type": "address"
        }
      ],
      "name": "initialize",
      "outputs": [],
      "stateMutability": "nonpayable",
      "type": "function"
    },
    {
      "inputs": [
        {
          "internalType": "uint256",
          "name": "tokenId",
          "type": "uint256"
        }
      ],
      "name": "isAllowedToFlip",
      "outputs": [],
      "stateMutability": "view",
      "type": "function"
    },
    {
      "inputs": [
        {
          "internalType": "uint256",
          "name": "tokenId",
          "type": "uint256"
        }
      ],
      "name": "isSyntheticNFTCreated",
      "outputs": [
        {
          "internalType": "bool",
          "name": "",
          "type": "bool"
        }
      ],
      "stateMutability": "view",
      "type": "function"
    },
    {
      "inputs": [
        {
          "internalType": "uint256",
          "name": "tokenId",
          "type": "uint256"
        }
      ],
      "name": "isSyntheticNFTFractionalised",
      "outputs": [
        {
          "internalType": "bool",
          "name": "",
          "type": "bool"
        }
      ],
      "stateMutability": "view",
      "type": "function"
    },
    {
      "inputs": [],
      "name": "jotAddress",
      "outputs": [
        {
          "internalType": "address",
          "name": "",
          "type": "address"
        }
      ],
      "stateMutability": "view",
      "type": "function"
    },
    {
      "inputs": [],
      "name": "poolAddress",
      "outputs": [
        {
          "internalType": "address",
          "name": "",
          "type": "address"
        }
      ],
      "stateMutability": "view",
      "type": "function"
    },
    {
      "inputs": [],
      "name": "protocol",
      "outputs": [
        {
          "internalType": "contract ProtocolParameters",
          "name": "",
          "type": "address"
        }
      ],
      "stateMutability": "view",
      "type": "function"
    },
    {
      "inputs": [
        {
          "internalType": "uint256",
          "name": "nftId_",
          "type": "uint256"
        },
        {
          "internalType": "address",
          "name": "newOwner_",
          "type": "address"
        },
        {
          "internalType": "uint256",
          "name": "jotsSupply_",
          "type": "uint256"
        }
      ],
      "name": "reassignNFT",
      "outputs": [],
      "stateMutability": "nonpayable",
      "type": "function"
    },
    {
      "inputs": [
        {
          "internalType": "uint256",
          "name": "tokenId",
          "type": "uint256"
        },
        {
          "internalType": "uint256",
          "name": "supplyToKeep",
          "type": "uint256"
        },
        {
          "internalType": "uint256",
          "name": "priceFraction",
          "type": "uint256"
        }
      ],
      "name": "register",
      "outputs": [],
      "stateMutability": "nonpayable",
      "type": "function"
    },
    {
      "inputs": [
        {
          "internalType": "bytes32",
          "name": "role",
          "type": "bytes32"
        },
        {
          "internalType": "address",
          "name": "account",
          "type": "address"
        }
      ],
      "name": "renounceRole",
      "outputs": [],
      "stateMutability": "nonpayable",
      "type": "function"
    },
    {
      "inputs": [
        {
          "internalType": "bytes32",
          "name": "role",
          "type": "bytes32"
        },
        {
          "internalType": "address",
          "name": "account",
          "type": "address"
        }
      ],
      "name": "revokeRole",
      "outputs": [],
      "stateMutability": "nonpayable",
      "type": "function"
    },
    {
      "inputs": [
        {
          "internalType": "uint256",
          "name": "tokenId",
          "type": "uint256"
        }
      ],
      "name": "safeBurn",
      "outputs": [],
      "stateMutability": "nonpayable",
      "type": "function"
    },
    {
      "inputs": [
        {
          "internalType": "bytes4",
          "name": "interfaceId",
          "type": "bytes4"
        }
      ],
      "name": "supportsInterface",
      "outputs": [
        {
          "internalType": "bool",
          "name": "",
          "type": "bool"
        }
      ],
      "stateMutability": "view",
      "type": "function"
    },
    {
      "inputs": [],
      "name": "uniswapV2Router",
      "outputs": [
        {
          "internalType": "contract IUniswapV2Router02",
          "name": "",
          "type": "address"
        }
      ],
      "stateMutability": "view",
      "type": "function"
    },
    {
      "inputs": [
        {
          "internalType": "uint256",
          "name": "tokenId",
          "type": "uint256"
        },
        {
          "internalType": "uint256",
          "name": "newFractionPrice",
          "type": "uint256"
        }
      ],
      "name": "updatePriceFraction",
      "outputs": [],
      "stateMutability": "nonpayable",
      "type": "function"
    },
    {
      "inputs": [
        {
          "internalType": "uint256",
          "name": "tokenId",
          "type": "uint256"
        }
      ],
      "name": "verifyNFT",
      "outputs": [
        {
          "internalType": "bool",
          "name": "",
          "type": "bool"
        }
      ],
      "stateMutability": "view",
      "type": "function"
    }
  ],
  "transactionHash": "0xb92d0f1a9a9a01033805041a5a0bc19f479e93601549c15808b2fa6485c5dd40",
  "args": [],
  "solcInputHash": "6972bfba4d76c9603a896f1e5fbcd63d",
  "bytecode": "0x608060405234801561001057600080fd5b50611c45806100206000396000f3fe608060405234801561001057600080fd5b50600436106102115760003560e01c80638c858a1411610125578063cc2a9a5b116100ad578063e445a5021161007c578063e445a5021461050d578063ecf70d371461051e578063ed70554d14610531578063ee2af58d14610554578063faa5c5641461056757600080fd5b8063cc2a9a5b146104b2578063cd87eb52146104c5578063d547741f146104e7578063dbf51325146104fa57600080fd5b806393ed1443116100f457806393ed144314610401578063a217fddf14610413578063ab8f2b1b1461041b578063b7c6fe361461042e578063bc7002f11461044257600080fd5b80638c858a14146103b15780638ce74426146103d157806391d14854146103e45780639230b2bc146103f757600080fd5b806336568abe116101a85780634c538fde116101775780634c538fde146103525780635763c39314610365578063787d43a414610378578063814f32221461038b57806389736a901461039e57600080fd5b806336568abe146102f257806339fb284e146103055780634bc4d5991461032c5780634c4b206b1461033f57600080fd5b80631d69a5ff116101e45780631d69a5ff14610284578063248a9ca3146102995780632f2ff15d146102ca57806332fe7b26146102dd57600080fd5b806301ffc9a71461021657806315d248e71461023e5780631694505e146102695780631755ff211461027c575b600080fd5b6102296102243660046118fe565b61057a565b60405190151581526020015b60405180910390f35b600354610251906001600160a01b031681565b6040516001600160a01b039091168152602001610235565b600d54610251906001600160a01b031681565b61025161058b565b61029761029236600461193e565b61060d565b005b6102bc6102a73660046118b7565b60009081526020819052604090206001015490565b604051908152602001610235565b6102976102d83660046118cf565b61066a565b6102bc600080516020611bf083398151915281565b6102976103003660046118cf565b610695565b6102bc7fc55a74c743a5d6aff6a82963adf054e2367242c4a636870f26b8ee90910968d081565b600954610251906001600160a01b031681565b600c54610251906001600160a01b031681565b600a54610251906001600160a01b031681565b6102976103733660046118b7565b610714565b610297610386366004611975565b610903565b600754610251906001600160a01b031681565b6102976103ac366004611975565b610b52565b6102bc6103bf3660046118b7565b6000908152600b602052604090205490565b600454610251906001600160a01b031681565b6102296103f23660046118cf565b610ba0565b6002546102bc9081565b61029761040f366004611975565b5050565b6102bc600081565b610297610429366004611975565b610bc9565b61022961043c3660046118b7565b50600190565b6104856104503660046118b7565b600b60205260009081526040902080546001820154600283015460038401546004850154600590950154939492939192909186565b604080519687526020870195909552938501929092526060840152608083015260a082015260c001610235565b6102976104c0366004611816565b610d84565b6102296104d33660046118b7565b6000908152600b6020526040902054151590565b6102976104f53660046118cf565b610f5a565b6102976105083660046118b7565b610f80565b61029761051b3660046118b7565b50565b61022961052c3660046118b7565b611001565b61022961053f3660046118b7565b60056020526000908152604090205460ff1681565b610297610562366004611975565b61107e565b610297610575366004611996565b6111a2565b6000610585826112f9565b92915050565b600954604080516324dead2f60e11b815290516000926001600160a01b0316916349bd5a5e916004808301926020929190829003018186803b1580156105d057600080fd5b505afa1580156105e4573d6000803e3d6000fd5b505050506040513d601f19601f8201168201806040525081019061060891906117fa565b905090565b7fc55a74c743a5d6aff6a82963adf054e2367242c4a636870f26b8ee90910968d0610638813361132e565b6000848152600b6020526040902080541561066357634e487b7160e01b600052600160045260246000fd5b5050505050565b600082815260208190526040902060010154610686813361132e565b6106908383611392565b505050565b6001600160a01b038116331461070a5760405162461bcd60e51b815260206004820152602f60248201527f416363657373436f6e74726f6c3a2063616e206f6e6c792072656e6f756e636560448201526e103937b632b9903337b91039b2b63360891b60648201526084015b60405180910390fd5b61040f8282611416565b6000818152600b6020526040908190206003810154600491820154600954600d54945163095ea7b360e01b81526001600160a01b0395861694810194909452602484018390529193909291169063095ea7b390604401602060405180830381600087803b15801561078457600080fd5b505af1158015610798573d6000803e3d6000fd5b505050506040513d601f19601f820116820180604052508101906107bc9190611897565b50600a54600d5460405163095ea7b360e01b81526001600160a01b0391821660048201526024810184905291169063095ea7b390604401602060405180830381600087803b15801561080d57600080fd5b505af1158015610821573d6000803e3d6000fd5b505050506040513d601f19601f820116820180604052508101906108459190611897565b50600d54600954600a5460405162e8e33760e81b81526001600160a01b0392831660048201529082166024820152604481018590526064810184905260006084820181905260a4820181905260c48201524260e482015291169063e8e337009061010401606060405180830381600087803b1580156108c357600080fd5b505af11580156108d7573d6000803e3d6000fd5b505050506040513d601f19601f820116820180604052508101906108fb91906119c1565b505050505050565b6000828152600b602052604081206005015461091f9083611b4b565b9050600081116109695760405162461bcd60e51b8152602060048201526015602482015274416d6f756e742063616e2774206265207a65726f2160581b6044820152606401610701565b6000838152600b60205260408120600281015460019091015461098c9190611b6a565b90508181101561099a578091505b816109d95760405162461bcd60e51b815260206004820152600f60248201526e4e6f20746f6b656e73206c6566742160881b6044820152606401610701565b600a546040516323b872dd60e01b8152336004820152306024820152604481018490526001600160a01b03909116906323b872dd90606401602060405180830381600087803b158015610a2b57600080fd5b505af1158015610a3f573d6000803e3d6000fd5b505050506040513d601f19601f82011682018060405250810190610a639190611897565b506009546040516323b872dd60e01b8152306004820152336024820152604481018590526001600160a01b03909116906323b872dd90606401602060405180830381600087803b158015610ab657600080fd5b505af1158015610aca573d6000803e3d6000fd5b505050506040513d601f19601f82011682018060405250810190610aee9190611897565b506000848152600b602052604081206002018054859290610b10908490611b13565b90915550506000848152600b602052604081206004018054849290610b36908490611b13565b909155505081811415610b4c57610b4c84610714565b50505050565b610b5b8261147b565b6001600160a01b0316336001600160a01b031614610b8b5760405162461bcd60e51b815260040161070190611ad2565b6000918252600b602052604090912060050155565b6000918252602082815260408084206001600160a01b0393909316845291905290205460ff1690565b610bd28261147b565b6001600160a01b0316336001600160a01b031614610c025760405162461bcd60e51b815260040161070190611ad2565b610c0d600282611b2b565b6000838152600b60205260409020600301541015610c7b5760405162461bcd60e51b815260206004820152602560248201527f596f7520646f206e6f74206861766520656e6f756768206c6971756964697479604482015264081b19599d60da1b6064820152608401610701565b610c86600282611b2b565b6000838152600b60205260409020600101541015610cf95760405162461bcd60e51b815260206004820152602a60248201527f596f7520646f206e6f74206861766520656e6f7567682073656c6c696e6720736044820152691d5c1c1b1e481b19599d60b21b6064820152608401610701565b6000828152600b602052604081208054839290610d17908490611b13565b90915550610d289050600282611b2b565b6000838152600b602052604081206001018054909190610d49908490611b6a565b90915550610d5a9050600282611b2b565b6000838152600b602052604081206003018054909190610d7b908490611b6a565b90915550505050565b600154610100900460ff1680610d9d575060015460ff16155b610e005760405162461bcd60e51b815260206004820152602e60248201527f496e697469616c697a61626c653a20636f6e747261637420697320616c72656160448201526d191e481a5b9a5d1a585b1a5e995960921b6064820152608401610701565b600154610100900460ff16158015610e22576001805461ffff19166101011790555b600980546001600160a01b03808a166001600160a01b031992831617909255600c80548884169083161790556007805489841690831617905560038054821633179055600480549286169290911682178155604080516320f2acf360e11b815290516341e559e692828101926020929190829003018186803b158015610ea757600080fd5b505afa158015610ebb573d6000803e3d6000fd5b505050506040513d601f19601f82011682018060405250810190610edf9190611926565b600855600a80546001600160a01b0319166001600160a01b038416179055610f15600080516020611bf0833981519152336114f8565b610f3f7fc55a74c743a5d6aff6a82963adf054e2367242c4a636870f26b8ee90910968d0856114f8565b8015610f51576001805461ff00191690555b50505050505050565b600082815260208190526040902060010154610f76813361132e565b6106908383611416565b600080516020611bf0833981519152610f99813361132e565b600c5460405163dbf5132560e01b8152600481018490526001600160a01b039091169063dbf5132590602401600060405180830381600087803b158015610fdf57600080fd5b505af1158015610ff3573d6000803e3d6000fd5b5050505061040f6002611502565b600c54604051634f558e7960e01b8152600481018390526000916001600160a01b031690634f558e799060240160206040518083038186803b15801561104657600080fd5b505afa15801561105a573d6000803e3d6000fd5b505050506040513d601f19601f820116820180604052508101906105859190611897565b6110878261147b565b6001600160a01b0316336001600160a01b0316146110b75760405162461bcd60e51b815260040161070190611ad2565b6000828152600b60205260409020548111156111205760405162461bcd60e51b815260206004820152602260248201527f596f7520646f206e6f74206861766520656e6f75676820746f6b656e73206c65604482015261199d60f21b6064820152608401610701565b6000828152600b60205260408120805483929061113e908490611b6a565b9091555061114f9050600282611b2b565b6000838152600b602052604081206001018054909190611170908490611b13565b909155506111819050600282611b2b565b6000838152600b602052604081206003018054909190610d7b908490611b13565b600080516020611bf08339815191526111bb813361132e565b6111c9600280546001019055565b60006111e060408051602081019091526000815290565b90506111ed338683611559565b600954600854604051632851206560e21b815230600482015260248101919091526001600160a01b039091169063a144819490604401600060405180830381600087803b15801561123d57600080fd5b505af1158015611251573d6000803e3d6000fd5b5050505060006002856008546112679190611b6a565b6112719190611b2b565b905060006002866008546112859190611b6a565b61128f9190611b2b565b6040805160c0810182529788526020808901948552600089830181815260608b0194855260808b0182815260a08c019a8b529b8252600b90925291909120975188559251600188015591516002870155505160038501555050915160048201559051600590910155565b60006001600160e01b03198216637965db0b60e01b148061058557506301ffc9a760e01b6001600160e01b0319831614610585565b6113388282610ba0565b61040f57611350816001600160a01b03166014611611565b61135b836020611611565b60405160200161136c929190611a1a565b60408051601f198184030181529082905262461bcd60e51b825261070191600401611abf565b61139c8282610ba0565b61040f576000828152602081815260408083206001600160a01b03851684529091529020805460ff191660011790556113d23390565b6001600160a01b0316816001600160a01b0316837f2f8788117e7eff1d82e926ec794901d17c78024a50270940304540a733656f0d60405160405180910390a45050565b6114208282610ba0565b1561040f576000828152602081815260408083206001600160a01b0385168085529252808320805460ff1916905551339285917ff6391f5c32d9c69d2a47ea670b442974b53935d1edc7fd64eb21e047a839171b9190a45050565b600c546040516331a9108f60e11b8152600481018390526000916001600160a01b031690636352211e9060240160206040518083038186803b1580156114c057600080fd5b505afa1580156114d4573d6000803e3d6000fd5b505050506040513d601f19601f8201168201806040525081019061058591906117fa565b61040f8282611392565b8054806115515760405162461bcd60e51b815260206004820152601b60248201527f436f756e7465723a2064656372656d656e74206f766572666c6f7700000000006044820152606401610701565b600019019055565b61156282611001565b156115af5760405162461bcd60e51b815260206004820181905260248201527f53796e746865746963204e465420616c72656164792067656e657261746564216044820152606401610701565b600c54604051633349e71f60e21b81526001600160a01b039091169063cd279c7c906115e390869086908690600401611a8f565b600060405180830381600087803b1580156115fd57600080fd5b505af1158015610f51573d6000803e3d6000fd5b60606000611620836002611b4b565b61162b906002611b13565b67ffffffffffffffff81111561165157634e487b7160e01b600052604160045260246000fd5b6040519080825280601f01601f19166020018201604052801561167b576020820181803683370190505b509050600360fc1b816000815181106116a457634e487b7160e01b600052603260045260246000fd5b60200101906001600160f81b031916908160001a905350600f60fb1b816001815181106116e157634e487b7160e01b600052603260045260246000fd5b60200101906001600160f81b031916908160001a9053506000611705846002611b4b565b611710906001611b13565b90505b60018111156117a4576f181899199a1a9b1b9c1cb0b131b232b360811b85600f166010811061175257634e487b7160e01b600052603260045260246000fd5b1a60f81b82828151811061177657634e487b7160e01b600052603260045260246000fd5b60200101906001600160f81b031916908160001a90535060049490941c9361179d81611bad565b9050611713565b5083156117f35760405162461bcd60e51b815260206004820181905260248201527f537472696e67733a20686578206c656e67746820696e73756666696369656e746044820152606401610701565b9392505050565b60006020828403121561180b578081fd5b81516117f381611bda565b60008060008060008060c0878903121561182e578182fd5b863561183981611bda565b9550602087013561184981611bda565b9450604087013561185981611bda565b9350606087013561186981611bda565b9250608087013561187981611bda565b915060a087013561188981611bda565b809150509295509295509295565b6000602082840312156118a8578081fd5b815180151581146117f3578182fd5b6000602082840312156118c8578081fd5b5035919050565b600080604083850312156118e1578182fd5b8235915060208301356118f381611bda565b809150509250929050565b60006020828403121561190f578081fd5b81356001600160e01b0319811681146117f3578182fd5b600060208284031215611937578081fd5b5051919050565b600080600060608486031215611952578283fd5b83359250602084013561196481611bda565b929592945050506040919091013590565b60008060408385031215611987578182fd5b50508035926020909101359150565b6000806000606084860312156119aa578283fd5b505081359360208301359350604090920135919050565b6000806000606084860312156119d5578283fd5b8351925060208401519150604084015190509250925092565b60008151808452611a06816020860160208601611b81565b601f01601f19169290920160200192915050565b7f416363657373436f6e74726f6c3a206163636f756e7420000000000000000000815260008351611a52816017850160208801611b81565b7001034b99036b4b9b9b4b733903937b6329607d1b6017918401918201528351611a83816028840160208801611b81565b01602801949350505050565b60018060a01b0384168152826020820152606060408201526000611ab660608301846119ee565b95945050505050565b6020815260006117f360208301846119ee565b60208082526021908201527f596f7520617265206e6f7420746865206f776e6572206f6620746865204e46546040820152602160f81b606082015260800190565b60008219821115611b2657611b26611bc4565b500190565b600082611b4657634e487b7160e01b81526012600452602481fd5b500490565b6000816000190483118215151615611b6557611b65611bc4565b500290565b600082821015611b7c57611b7c611bc4565b500390565b60005b83811015611b9c578181015183820152602001611b84565b83811115610b4c5750506000910152565b600081611bbc57611bbc611bc4565b506000190190565b634e487b7160e01b600052601160045260246000fd5b6001600160a01b038116811461051b57600080fdfeeb4fd9f47c063b511700e1c8e94e2fa4088ffca1fdcef1e60edf1beecd1b2e64a2646970667358221220030cd71ee864019a6134275204e036964c353346ead426da6a06568c94c6024c64736f6c63430008040033",
  "devdoc": {
    "kind": "dev",
    "methods": {
      "getRoleAdmin(bytes32)": {
        "details": "Returns the admin role that controls `role`. See {grantRole} and {revokeRole}. To change a role's admin, use {_setRoleAdmin}."
      },
      "grantRole(bytes32,address)": {
        "details": "Grants `role` to `account`. If `account` had not been already granted `role`, emits a {RoleGranted} event. Requirements: - the caller must have ``role``'s admin role."
      },
      "hasRole(bytes32,address)": {
        "details": "Returns `true` if `account` has been granted `role`."
      },
      "reassignNFT(uint256,address,uint256)": {
        "details": "we need to pass the jobSupply here to work well even when the governance      changes this protocol parameter in the middle of the auction"
      },
      "renounceRole(bytes32,address)": {
        "details": "Revokes `role` from the calling account. Roles are often managed via {grantRole} and {revokeRole}: this function's purpose is to provide a mechanism for accounts to lose their privileges if they are compromised (such as when a trusted device is misplaced). If the calling account had been granted `role`, emits a {RoleRevoked} event. Requirements: - the caller must be `account`."
      },
      "revokeRole(bytes32,address)": {
        "details": "Revokes `role` from `account`. If `account` had been granted `role`, emits a {RoleRevoked} event. Requirements: - the caller must have ``role``'s admin role."
      },
      "safeBurn(uint256)": {
        "details": "burn a token"
      },
      "supportsInterface(bytes4)": {
        "details": "See {IERC165-supportsInterface}."
      }
    },
    "stateVariables": {
      "jotsSupply": {
        "details": "ERC20 totalSupply (governance) parameter TODO: get from governance"
      }
    },
    "version": 1
  },
  "userdoc": {
    "kind": "user",
    "methods": {
      "BuyJotTokens(uint256,uint256)": {
        "notice": "allows the caller to buy jots using the Funding token"
      },
      "_jots(uint256)": {
        "notice": "Jot data for each token"
      },
      "_originalCollectionAddress()": {
        "notice": "address of the original collection"
      },
      "_syntheticProtocolRouterAddress()": {
        "notice": "the address of the Protocol Router"
      },
      "addLiquidityToPool(uint256)": {
        "notice": "add available liquidity for a given token to UniSwap pool"
      },
      "decreaseSellingSupply(uint256,uint256)": {
        "notice": "decrease selling supply for a given NFT caller must be the owner of the NFT"
      },
      "erc721address()": {
        "notice": "Synthetic NFT Address  for this collection"
      },
      "fundingTokenAddress()": {
        "notice": "funding token address"
      },
      "increaseSellingSupply(uint256,uint256)": {
        "notice": "increase selling supply for a given NFT caller must be the owner of the NFT"
      },
      "isSyntheticNFTCreated(uint256)": {
        "notice": "public function. Checks if an NFT has been already minted."
      },
      "isSyntheticNFTFractionalised(uint256)": {
        "notice": "public function. Checks if an NFT has been already fractionalised."
      },
      "jotAddress()": {
        "notice": "jot Address for this collection"
      },
      "poolAddress()": {
        "notice": "returns the Quickswap pool address"
      },
      "register(uint256,uint256,uint256)": {
        "notice": "First it updates counter syntheticID++. Then:  generateSyntheticNFT(address, id)  Interacts with JOT contract for that address and: (a) Mints JotSupply (governance parameter) (b) Register ownerSupply (DO NOT SEND HIM/HER) (c) Register sellingSupply = (JotSupply-supplyToKeep)/2 (d) Register soldSupply = 0 (e) Register liquiditySupply = (JotSupply-supplyToKeep)/2. (f) Register liquiditySold = 0"
      },
      "updatePriceFraction(uint256,uint256)": {
        "notice": "update the price of a fraction for a given NFT caller must be the owner"
      },
      "verifyNFT(uint256)": {
        "notice": "This method calls chainlink oracle and verifies if the NFT has been locked on NFTVaultManager. In addition gets the metadata of the NFT"
      }
    },
    "version": 1
  },
  "storageLayout": {
    "storage": [
      {
        "astId": 24,
        "contract": "contracts/polygon/implementations/SyntheticCollectionManager.sol:SyntheticCollectionManager",
        "label": "_roles",
        "offset": 0,
        "slot": "0",
        "type": "t_mapping(t_bytes32,t_struct(RoleData)19_storage)"
      },
      {
        "astId": 3196,
        "contract": "contracts/polygon/implementations/SyntheticCollectionManager.sol:SyntheticCollectionManager",
        "label": "_initialized",
        "offset": 0,
        "slot": "1",
        "type": "t_bool"
      },
      {
        "astId": 3199,
        "contract": "contracts/polygon/implementations/SyntheticCollectionManager.sol:SyntheticCollectionManager",
        "label": "_initializing",
        "offset": 1,
        "slot": "1",
        "type": "t_bool"
      },
      {
        "astId": 10471,
        "contract": "contracts/polygon/implementations/SyntheticCollectionManager.sol:SyntheticCollectionManager",
        "label": "_tokenCounter",
        "offset": 0,
        "slot": "2",
        "type": "t_struct(Counter)6262_storage"
      },
      {
        "astId": 10474,
        "contract": "contracts/polygon/implementations/SyntheticCollectionManager.sol:SyntheticCollectionManager",
        "label": "_syntheticProtocolRouterAddress",
        "offset": 0,
        "slot": "3",
        "type": "t_address"
      },
      {
        "astId": 10477,
        "contract": "contracts/polygon/implementations/SyntheticCollectionManager.sol:SyntheticCollectionManager",
        "label": "protocol",
        "offset": 0,
        "slot": "4",
        "type": "t_contract(ProtocolParameters)10079"
      },
      {
        "astId": 10481,
        "contract": "contracts/polygon/implementations/SyntheticCollectionManager.sol:SyntheticCollectionManager",
        "label": "_tokens",
        "offset": 0,
        "slot": "5",
        "type": "t_mapping(t_uint256,t_bool)"
      },
      {
        "astId": 10485,
        "contract": "contracts/polygon/implementations/SyntheticCollectionManager.sol:SyntheticCollectionManager",
        "label": "_tokenMetadata",
        "offset": 0,
        "slot": "6",
        "type": "t_mapping(t_uint256,t_string_storage)"
      },
      {
        "astId": 10488,
        "contract": "contracts/polygon/implementations/SyntheticCollectionManager.sol:SyntheticCollectionManager",
        "label": "_originalCollectionAddress",
        "offset": 0,
        "slot": "7",
        "type": "t_address"
      },
      {
        "astId": 10491,
        "contract": "contracts/polygon/implementations/SyntheticCollectionManager.sol:SyntheticCollectionManager",
        "label": "jotsSupply",
        "offset": 0,
        "slot": "8",
        "type": "t_uint256"
      },
      {
        "astId": 10494,
        "contract": "contracts/polygon/implementations/SyntheticCollectionManager.sol:SyntheticCollectionManager",
        "label": "jotAddress",
        "offset": 0,
        "slot": "9",
        "type": "t_address"
      },
      {
        "astId": 10497,
        "contract": "contracts/polygon/implementations/SyntheticCollectionManager.sol:SyntheticCollectionManager",
        "label": "fundingTokenAddress",
        "offset": 0,
        "slot": "10",
        "type": "t_address"
      },
      {
        "astId": 10503,
        "contract": "contracts/polygon/implementations/SyntheticCollectionManager.sol:SyntheticCollectionManager",
        "label": "_jots",
        "offset": 0,
        "slot": "11",
        "type": "t_mapping(t_uint256,t_struct(JotsData)10438_storage)"
      },
      {
        "astId": 10506,
        "contract": "contracts/polygon/implementations/SyntheticCollectionManager.sol:SyntheticCollectionManager",
        "label": "erc721address",
        "offset": 0,
        "slot": "12",
        "type": "t_address"
      },
      {
        "astId": 10509,
        "contract": "contracts/polygon/implementations/SyntheticCollectionManager.sol:SyntheticCollectionManager",
        "label": "uniswapV2Router",
        "offset": 0,
        "slot": "13",
        "type": "t_contract(IUniswapV2Router02)8688"
      }
    ],
    "types": {
      "t_address": {
        "encoding": "inplace",
        "label": "address",
        "numberOfBytes": "20"
      },
      "t_bool": {
        "encoding": "inplace",
        "label": "bool",
        "numberOfBytes": "1"
      },
      "t_bytes32": {
        "encoding": "inplace",
        "label": "bytes32",
        "numberOfBytes": "32"
      },
      "t_contract(IUniswapV2Router02)8688": {
        "encoding": "inplace",
        "label": "contract IUniswapV2Router02",
        "numberOfBytes": "20"
      },
      "t_contract(ProtocolParameters)10079": {
        "encoding": "inplace",
        "label": "contract ProtocolParameters",
        "numberOfBytes": "20"
      },
      "t_mapping(t_address,t_bool)": {
        "encoding": "mapping",
        "key": "t_address",
        "label": "mapping(address => bool)",
        "numberOfBytes": "32",
        "value": "t_bool"
      },
      "t_mapping(t_bytes32,t_struct(RoleData)19_storage)": {
        "encoding": "mapping",
        "key": "t_bytes32",
        "label": "mapping(bytes32 => struct AccessControl.RoleData)",
        "numberOfBytes": "32",
        "value": "t_struct(RoleData)19_storage"
      },
      "t_mapping(t_uint256,t_bool)": {
        "encoding": "mapping",
        "key": "t_uint256",
        "label": "mapping(uint256 => bool)",
        "numberOfBytes": "32",
        "value": "t_bool"
      },
      "t_mapping(t_uint256,t_string_storage)": {
        "encoding": "mapping",
        "key": "t_uint256",
        "label": "mapping(uint256 => string)",
        "numberOfBytes": "32",
        "value": "t_string_storage"
      },
      "t_mapping(t_uint256,t_struct(JotsData)10438_storage)": {
        "encoding": "mapping",
        "key": "t_uint256",
        "label": "mapping(uint256 => struct JotsData)",
        "numberOfBytes": "32",
        "value": "t_struct(JotsData)10438_storage"
      },
      "t_string_storage": {
        "encoding": "bytes",
        "label": "string",
        "numberOfBytes": "32"
      },
      "t_struct(Counter)6262_storage": {
        "encoding": "inplace",
        "label": "struct Counters.Counter",
        "members": [
          {
            "astId": 6261,
            "contract": "contracts/polygon/implementations/SyntheticCollectionManager.sol:SyntheticCollectionManager",
            "label": "_value",
            "offset": 0,
            "slot": "0",
            "type": "t_uint256"
          }
        ],
        "numberOfBytes": "32"
      },
      "t_struct(JotsData)10438_storage": {
        "encoding": "inplace",
        "label": "struct JotsData",
        "members": [
          {
            "astId": 10427,
            "contract": "contracts/polygon/implementations/SyntheticCollectionManager.sol:SyntheticCollectionManager",
            "label": "ownerSupply",
            "offset": 0,
            "slot": "0",
            "type": "t_uint256"
          },
          {
            "astId": 10429,
            "contract": "contracts/polygon/implementations/SyntheticCollectionManager.sol:SyntheticCollectionManager",
            "label": "sellingSupply",
            "offset": 0,
            "slot": "1",
            "type": "t_uint256"
          },
          {
            "astId": 10431,
            "contract": "contracts/polygon/implementations/SyntheticCollectionManager.sol:SyntheticCollectionManager",
            "label": "soldSupply",
            "offset": 0,
            "slot": "2",
            "type": "t_uint256"
          },
          {
            "astId": 10433,
            "contract": "contracts/polygon/implementations/SyntheticCollectionManager.sol:SyntheticCollectionManager",
            "label": "liquiditySupply",
            "offset": 0,
            "slot": "3",
            "type": "t_uint256"
          },
          {
            "astId": 10435,
            "contract": "contracts/polygon/implementations/SyntheticCollectionManager.sol:SyntheticCollectionManager",
            "label": "liquiditySold",
            "offset": 0,
            "slot": "4",
            "type": "t_uint256"
          },
          {
            "astId": 10437,
            "contract": "contracts/polygon/implementations/SyntheticCollectionManager.sol:SyntheticCollectionManager",
            "label": "fractionPrices",
            "offset": 0,
            "slot": "5",
            "type": "t_uint256"
          }
        ],
        "numberOfBytes": "192"
      },
      "t_struct(RoleData)19_storage": {
        "encoding": "inplace",
        "label": "struct AccessControl.RoleData",
        "members": [
          {
            "astId": 16,
            "contract": "contracts/polygon/implementations/SyntheticCollectionManager.sol:SyntheticCollectionManager",
            "label": "members",
            "offset": 0,
            "slot": "0",
            "type": "t_mapping(t_address,t_bool)"
          },
          {
            "astId": 18,
            "contract": "contracts/polygon/implementations/SyntheticCollectionManager.sol:SyntheticCollectionManager",
            "label": "adminRole",
            "offset": 0,
            "slot": "1",
            "type": "t_bytes32"
          }
        ],
        "numberOfBytes": "64"
      },
      "t_uint256": {
        "encoding": "inplace",
        "label": "uint256",
        "numberOfBytes": "32"
      }
    }
  }
}