{
  "address": "0xEa8700A3075be4c790bE3cE7f792f5FDC6f37Bb3",
  "abi": [
    {
      "inputs": [
        {
          "internalType": "address",
          "name": "_swapAddress",
          "type": "address"
        },
        {
          "internalType": "address",
          "name": "jot_",
          "type": "address"
        },
        {
          "internalType": "address",
          "name": "jotPool_",
          "type": "address"
        },
        {
          "internalType": "address",
          "name": "collectionManager_",
          "type": "address"
        },
        {
          "internalType": "address",
          "name": "syntheticNFT_",
          "type": "address"
        },
        {
          "internalType": "address",
          "name": "auctionManager_",
          "type": "address"
        },
        {
          "internalType": "address",
          "name": "protocol_",
          "type": "address"
        },
        {
          "internalType": "address",
          "name": "fundingTokenAddress_",
          "type": "address"
        }
      ],
      "stateMutability": "nonpayable",
      "type": "constructor"
    },
    {
      "anonymous": false,
      "inputs": [
        {
          "indexed": true,
          "internalType": "address",
          "name": "previousOwner",
          "type": "address"
        },
        {
          "indexed": true,
          "internalType": "address",
          "name": "newOwner",
          "type": "address"
        }
      ],
      "name": "OwnershipTransferred",
      "type": "event"
    },
    {
      "anonymous": false,
      "inputs": [
        {
          "indexed": false,
          "internalType": "uint256",
          "name": "collectionManagerID",
          "type": "uint256"
        },
        {
          "indexed": false,
          "internalType": "address",
          "name": "collectionManagerAddress",
          "type": "address"
        },
        {
          "indexed": false,
          "internalType": "address",
          "name": "jotAddress",
          "type": "address"
        },
        {
          "indexed": false,
          "internalType": "address",
          "name": "jotStakingAddress",
          "type": "address"
        },
        {
          "indexed": false,
          "internalType": "address",
          "name": "syntheticNFTAddress",
          "type": "address"
        },
        {
          "indexed": false,
          "internalType": "address",
          "name": "quickSwapAddress",
          "type": "address"
        },
        {
          "indexed": false,
          "internalType": "address",
          "name": "auctionAddress",
          "type": "address"
        }
      ],
      "name": "collectionManagerRegistered",
      "type": "event"
    },
    {
      "inputs": [
        {
          "internalType": "address",
          "name": "collection",
          "type": "address"
        }
      ],
      "name": "getCollectionManagerAddress",
      "outputs": [
        {
          "internalType": "address",
          "name": "",
          "type": "address"
        }
      ],
      "stateMutability": "view",
      "type": "function"
    },
    {
      "inputs": [
        {
          "internalType": "address",
          "name": "collection",
          "type": "address"
        }
      ],
      "name": "getJotStakingAddress",
      "outputs": [
        {
          "internalType": "address",
          "name": "",
          "type": "address"
        }
      ],
      "stateMutability": "view",
      "type": "function"
    },
    {
      "inputs": [
        {
          "internalType": "address",
          "name": "collection",
          "type": "address"
        }
      ],
      "name": "getJotsAddress",
      "outputs": [
        {
          "internalType": "address",
          "name": "",
          "type": "address"
        }
      ],
      "stateMutability": "view",
      "type": "function"
    },
    {
      "inputs": [
        {
          "internalType": "address",
          "name": "collection",
          "type": "address"
        }
      ],
      "name": "isSyntheticCollectionRegistered",
      "outputs": [
        {
          "internalType": "bool",
          "name": "",
          "type": "bool"
        }
      ],
      "stateMutability": "view",
      "type": "function"
    },
    {
      "inputs": [
        {
          "internalType": "address",
          "name": "collection",
          "type": "address"
        },
        {
          "internalType": "uint256",
          "name": "tokenId",
          "type": "uint256"
        }
      ],
      "name": "isSyntheticNFTCreated",
      "outputs": [
        {
          "internalType": "bool",
          "name": "",
          "type": "bool"
        }
      ],
      "stateMutability": "view",
      "type": "function"
    },
    {
      "inputs": [],
      "name": "owner",
      "outputs": [
        {
          "internalType": "address",
          "name": "",
          "type": "address"
        }
      ],
      "stateMutability": "view",
      "type": "function"
    },
    {
      "inputs": [],
      "name": "protocolVaults",
      "outputs": [
        {
          "internalType": "uint256",
          "name": "_value",
          "type": "uint256"
        }
      ],
      "stateMutability": "view",
      "type": "function"
    },
    {
      "inputs": [
        {
          "internalType": "address",
          "name": "collection",
          "type": "address"
        },
        {
          "internalType": "uint256",
          "name": "tokenId",
          "type": "uint256"
        },
        {
          "internalType": "uint256",
          "name": "supplyToKeep",
          "type": "uint256"
        },
        {
          "internalType": "uint256",
          "name": "priceFraction",
          "type": "uint256"
        },
        {
          "internalType": "string",
          "name": "originalName",
          "type": "string"
        },
        {
          "internalType": "string",
          "name": "originalSymbol",
          "type": "string"
        }
      ],
      "name": "registerNFT",
      "outputs": [],
      "stateMutability": "nonpayable",
      "type": "function"
    },
    {
      "inputs": [],
      "name": "renounceOwnership",
      "outputs": [],
      "stateMutability": "nonpayable",
      "type": "function"
    },
    {
      "inputs": [],
      "name": "swapAddress",
      "outputs": [
        {
          "internalType": "address",
          "name": "",
          "type": "address"
        }
      ],
      "stateMutability": "view",
      "type": "function"
    },
    {
      "inputs": [
        {
          "internalType": "address",
          "name": "newOwner",
          "type": "address"
        }
      ],
      "name": "transferOwnership",
      "outputs": [],
      "stateMutability": "nonpayable",
      "type": "function"
    }
  ],
  "transactionHash": "0x6d83bde807cbf3fa35d747aaeb400f318424f3e4c8e6595b3ff5a9a94995a6a0",
  "args": [
    "0xbdd4e5660839a088573191A9889A262c0Efc0983",
    "0x133B3d9e7029412d28F0590dAC177B37399e3d7C",
    "0x858C973BDBFa7129724329072208c11460C3F486",
    "0xd64E814f69Ed1dAA31a3BB4D999aC03622837e0c",
    "0x2A29B8dAD12796A99926D7D1D11BD8fACEC2e979",
    "0x4CE19f07440B35530D07F9aE1E38Df3d200c23B4",
    "0x35d04434b62237e9D114b4E06218D3f1A219fD63",
    "0x2cA48b8c2d574b282FDAB69545646983A94a3286"
  ],
  "solcInputHash": "6972bfba4d76c9603a896f1e5fbcd63d",
  "bytecode": "0x60806040523480156200001157600080fd5b5060405162000f9c38038062000f9c83398101604081905262000034916200013e565b6200003f33620000d1565b600980546001600160a01b03199081166001600160a01b039a8b1617909155600180548216988a1698909817909755600280548816968916969096179095556003805487169488169490941790935560048054861692871692909217909155600580548516918616919091179055600680548416918516919091179055600780549092169216919091179055620001e5565b600080546001600160a01b038381166001600160a01b0319831681178455604051919092169283917f8be0079c531659141344cd1fd0a4f28419497f9722a3daafe3b4186f6b6457e09190a35050565b80516001600160a01b03811681146200013957600080fd5b919050565b600080600080600080600080610100898b0312156200015b578384fd5b620001668962000121565b97506200017660208a0162000121565b96506200018660408a0162000121565b95506200019660608a0162000121565b9450620001a660808a0162000121565b9350620001b660a08a0162000121565b9250620001c660c08a0162000121565b9150620001d660e08a0162000121565b90509295985092959890939650565b610da780620001f56000396000f3fe608060405234801561001057600080fd5b50600436106100a95760003560e01c806380f6d7821161007157806380f6d782146101775780638da5cb5b1461018a57806398a339841461019b578063c3e7e12d146101ae578063cf479511146101d1578063f2fde38b146101ff57600080fd5b806306c8d971146100ae578063166090cf146100cb57806356f4f1f014610112578063715018a61461013e5780637546d98514610148575b600080fd5b6008546100b89081565b6040519081526020015b60405180910390f35b6100fa6100d9366004610ad8565b6001600160a01b039081166000908152600a60205260409020600201541690565b6040516001600160a01b0390911681526020016100c2565b6100fa610120366004610ad8565b6001600160a01b039081166000908152600a60205260409020541690565b610146610212565b005b6100fa610156366004610ad8565b6001600160a01b039081166000908152600a60205260409020600101541690565b6009546100fa906001600160a01b031681565b6000546001600160a01b03166100fa565b6101466101a9366004610b22565b61027d565b6101c16101bc366004610af9565b610781565b60405190151581526020016100c2565b6101c16101df366004610ad8565b6001600160a01b039081166000908152600a602052604090205416151590565b61014661020d366004610ad8565b610882565b6000546001600160a01b031633146102715760405162461bcd60e51b815260206004820181905260248201527f4f776e61626c653a2063616c6c6572206973206e6f7420746865206f776e657260448201526064015b60405180910390fd5b61027b600061094d565b565b6001600160a01b038087166000908152600a60205260408120549091166106f0576001546000906102b6906001600160a01b031661099d565b9050806001600160a01b0316638f15b414856040516020016102d89190610bfb565b604051602081830303815290604052856040516020016102f89190610c90565b60408051808303601f190181529082905260095460075460e086901b6001600160e01b031916845261033d94936001600160a01b039283169290911690600401610ce1565b600060405180830381600087803b15801561035757600080fd5b505af115801561036b573d6000803e3d6000fd5b50506002546000925061038791506001600160a01b031661099d565b60405163189acdbd60e31b81526001600160a01b0384811660048301529192509082169063c4d66de890602401600060405180830381600087803b1580156103ce57600080fd5b505af11580156103e2573d6000803e3d6000fd5b5050600454600092506103fe91506001600160a01b031661099d565b9050806001600160a01b0316634cd88b76876040516020016104209190610c58565b604051602081830303815290604052876040516020016104409190610c2d565b6040516020818303038152906040526040518363ffffffff1660e01b815260040161046c929190610cbc565b600060405180830381600087803b15801561048657600080fd5b505af115801561049a573d6000803e3d6000fd5b50506003546104b492506001600160a01b0316905061099d565b60055460065460075460405163cc2a9a5b60e01b81526001600160a01b0388811660048301528f81166024830152868116604483015293841660648201529183166084830152821660a482015291955085169063cc2a9a5b9060c401600060405180830381600087803b15801561052a57600080fd5b505af115801561053e573d6000803e3d6000fd5b505050506040518060800160405280856001600160a01b03168152602001846001600160a01b03168152602001836001600160a01b03168152602001826001600160a01b0316815250600a60008c6001600160a01b03166001600160a01b0316815260200190815260200160002060008201518160000160006101000a8154816001600160a01b0302191690836001600160a01b0316021790555060208201518160010160006101000a8154816001600160a01b0302191690836001600160a01b0316021790555060408201518160020160006101000a8154816001600160a01b0302191690836001600160a01b0316021790555060608201518160030160006101000a8154816001600160a01b0302191690836001600160a01b031602179055509050507f74f876e9c2bb712f83b3d5cb07cce5a4a65dfe93e7454486b32a4bfd2c9f86f361068d60085490565b600954600554604080519384526001600160a01b038981166020860152888116858301528781166060860152868116608086015292831660a0850152911660c0830152519081900360e00190a16106e8600880546001019055565b50505061070d565b506001600160a01b038087166000908152600a6020526040902054165b604051633ea9715960e21b815260048101879052602481018690526044810185905281906001600160a01b0382169063faa5c56490606401600060405180830381600087803b15801561075f57600080fd5b505af1158015610773573d6000803e3d6000fd5b505050505050505050505050565b6001600160a01b038083166000908152600a60205260408120549091166107ea5760405162461bcd60e51b815260206004820152601960248201527f436f6c6c656374696f6e206e6f742072656769737465726564000000000000006044820152606401610268565b6001600160a01b038381166000908152600a60205260409081902054905163ed70554d60e01b8152600481018590529116908190819063ed70554d9060240160206040518083038186803b15801561084157600080fd5b505afa158015610855573d6000803e3d6000fd5b505050506040513d601f19601f820116820180604052508101906108799190610baf565b95945050505050565b6000546001600160a01b031633146108dc5760405162461bcd60e51b815260206004820181905260248201527f4f776e61626c653a2063616c6c6572206973206e6f7420746865206f776e65726044820152606401610268565b6001600160a01b0381166109415760405162461bcd60e51b815260206004820152602660248201527f4f776e61626c653a206e6577206f776e657220697320746865207a65726f206160448201526564647265737360d01b6064820152608401610268565b61094a8161094d565b50565b600080546001600160a01b038381166001600160a01b0319831681178455604051919092169283917f8be0079c531659141344cd1fd0a4f28419497f9722a3daafe3b4186f6b6457e09190a35050565b6000604051733d602d80600a3d3981f3363d3d373d3d3d363d7360601b81528260601b60148201526e5af43d82803e903d91602b57fd5bf360881b60288201526037816000f09150506001600160a01b038116610a355760405162461bcd60e51b8152602060048201526016602482015275115490cc4c4d8dce8818dc99585d194819985a5b195960521b6044820152606401610268565b919050565b80356001600160a01b0381168114610a3557600080fd5b600082601f830112610a61578081fd5b813567ffffffffffffffff80821115610a7c57610a7c610d5b565b604051601f8301601f19908116603f01168101908282118183101715610aa457610aa4610d5b565b81604052838152866020858801011115610abc578485fd5b8360208701602083013792830160200193909352509392505050565b600060208284031215610ae9578081fd5b610af282610a3a565b9392505050565b60008060408385031215610b0b578081fd5b610b1483610a3a565b946020939093013593505050565b60008060008060008060c08789031215610b3a578182fd5b610b4387610a3a565b9550602087013594506040870135935060608701359250608087013567ffffffffffffffff80821115610b74578384fd5b610b808a838b01610a51565b935060a0890135915080821115610b95578283fd5b50610ba289828a01610a51565b9150509295509295509295565b600060208284031215610bc0578081fd5b81518015158114610af2578182fd5b60008151808452610be7816020860160208601610d2b565b601f01601f19169290920160200192915050565b690283934bb34902537ba160b51b815260008251610c2081600a850160208701610d2b565b91909101600a0192915050565b6270535f60e81b815260008251610c4b816003850160208701610d2b565b9190910160030192915050565b6f0283934bb349029bcb73a3432ba34b1960851b815260008251610c83816010850160208701610d2b565b9190910160100192915050565b634a4f545f60e01b815260008251610caf816004850160208701610d2b565b9190910160040192915050565b604081526000610ccf6040830185610bcf565b82810360208401526108798185610bcf565b608081526000610cf46080830187610bcf565b8281036020840152610d068187610bcf565b6001600160a01b03958616604085015293909416606090920191909152509392505050565b60005b83811015610d46578181015183820152602001610d2e565b83811115610d55576000848401525b50505050565b634e487b7160e01b600052604160045260246000fdfea264697066735822122014763fcea1e9979cf907e0787fa0bd5f716ba4cf3d2a3df48090a11643e060df64736f6c63430008040033",
  "devdoc": {
    "kind": "dev",
    "methods": {
      "owner()": {
        "details": "Returns the address of the current owner."
      },
      "registerNFT(address,uint256,uint256,uint256,string,string)": {
        "params": {
          "collection": "the address of the synthetic collection",
          "originalName": "the original collection name",
          "originalSymbol": "the original collection symbol",
          "priceFraction": "the price for a fraction",
          "supplyToKeep": "supply to keep",
          "tokenId": "the token id"
        }
      },
      "renounceOwnership()": {
        "details": "Leaves the contract without owner. It will not be possible to call `onlyOwner` functions anymore. Can only be called by the current owner. NOTE: Renouncing ownership will leave the contract without an owner, thereby removing any functionality that is only available to the owner."
      },
      "transferOwnership(address)": {
        "details": "Transfers ownership of the contract to a new account (`newOwner`). Can only be called by the current owner."
      }
    },
    "stateVariables": {
      "_jot": {
        "details": "implementation addresses for proxies"
      },
      "collections": {
        "details": "collections map. collection address => collection data"
      }
    },
    "version": 1
  },
  "userdoc": {
    "events": {
      "collectionManagerRegistered(uint256,address,address,address,address,address,address)": {
        "notice": "Events"
      }
    },
    "kind": "user",
    "methods": {
      "constructor": {
        "notice": "Constructor"
      },
      "getCollectionManagerAddress(address)": {
        "notice": "getter for Collection Manager Address of a collection"
      },
      "getJotStakingAddress(address)": {
        "notice": "getter for Jot Staking Address of a collection"
      },
      "getJotsAddress(address)": {
        "notice": "getter for Jot Address of a collection"
      },
      "isSyntheticCollectionRegistered(address)": {
        "notice": "checks whether a collection is registered or not"
      },
      "isSyntheticNFTCreated(address,uint256)": {
        "notice": "checks whether a Synthetic NFT has been created for a given NFT or not"
      },
      "protocolVaults()": {
        "notice": "number of registered collections"
      },
      "registerNFT(address,uint256,uint256,uint256,string,string)": {
        "notice": "register an NFT collection"
      },
      "swapAddress()": {
        "notice": "QuickSwap address"
      }
    },
    "version": 1
  },
  "storageLayout": {
    "storage": [
      {
        "astId": 387,
        "contract": "contracts/polygon/SyntheticProtocolRouter.sol:SyntheticProtocolRouter",
        "label": "_owner",
        "offset": 0,
        "slot": "0",
        "type": "t_address"
      },
      {
        "astId": 8718,
        "contract": "contracts/polygon/SyntheticProtocolRouter.sol:SyntheticProtocolRouter",
        "label": "_jot",
        "offset": 0,
        "slot": "1",
        "type": "t_address"
      },
      {
        "astId": 8720,
        "contract": "contracts/polygon/SyntheticProtocolRouter.sol:SyntheticProtocolRouter",
        "label": "_jotPool",
        "offset": 0,
        "slot": "2",
        "type": "t_address"
      },
      {
        "astId": 8722,
        "contract": "contracts/polygon/SyntheticProtocolRouter.sol:SyntheticProtocolRouter",
        "label": "_collectionManager",
        "offset": 0,
        "slot": "3",
        "type": "t_address"
      },
      {
        "astId": 8724,
        "contract": "contracts/polygon/SyntheticProtocolRouter.sol:SyntheticProtocolRouter",
        "label": "_syntheticNFT",
        "offset": 0,
        "slot": "4",
        "type": "t_address"
      },
      {
        "astId": 8726,
        "contract": "contracts/polygon/SyntheticProtocolRouter.sol:SyntheticProtocolRouter",
        "label": "_auctionManager",
        "offset": 0,
        "slot": "5",
        "type": "t_address"
      },
      {
        "astId": 8728,
        "contract": "contracts/polygon/SyntheticProtocolRouter.sol:SyntheticProtocolRouter",
        "label": "_protocol",
        "offset": 0,
        "slot": "6",
        "type": "t_address"
      },
      {
        "astId": 8730,
        "contract": "contracts/polygon/SyntheticProtocolRouter.sol:SyntheticProtocolRouter",
        "label": "fundingTokenAddress",
        "offset": 0,
        "slot": "7",
        "type": "t_address"
      },
      {
        "astId": 8734,
        "contract": "contracts/polygon/SyntheticProtocolRouter.sol:SyntheticProtocolRouter",
        "label": "protocolVaults",
        "offset": 0,
        "slot": "8",
        "type": "t_struct(Counter)6262_storage"
      },
      {
        "astId": 8737,
        "contract": "contracts/polygon/SyntheticProtocolRouter.sol:SyntheticProtocolRouter",
        "label": "swapAddress",
        "offset": 0,
        "slot": "9",
        "type": "t_address"
      },
      {
        "astId": 8743,
        "contract": "contracts/polygon/SyntheticProtocolRouter.sol:SyntheticProtocolRouter",
        "label": "collections",
        "offset": 0,
        "slot": "10",
        "type": "t_mapping(t_address,t_struct(SyntheticCollection)8699_storage)"
      }
    ],
    "types": {
      "t_address": {
        "encoding": "inplace",
        "label": "address",
        "numberOfBytes": "20"
      },
      "t_mapping(t_address,t_struct(SyntheticCollection)8699_storage)": {
        "encoding": "mapping",
        "key": "t_address",
        "label": "mapping(address => struct SyntheticCollection)",
        "numberOfBytes": "32",
        "value": "t_struct(SyntheticCollection)8699_storage"
      },
      "t_struct(Counter)6262_storage": {
        "encoding": "inplace",
        "label": "struct Counters.Counter",
        "members": [
          {
            "astId": 6261,
            "contract": "contracts/polygon/SyntheticProtocolRouter.sol:SyntheticProtocolRouter",
            "label": "_value",
            "offset": 0,
            "slot": "0",
            "type": "t_uint256"
          }
        ],
        "numberOfBytes": "32"
      },
      "t_struct(SyntheticCollection)8699_storage": {
        "encoding": "inplace",
        "label": "struct SyntheticCollection",
        "members": [
          {
            "astId": 8692,
            "contract": "contracts/polygon/SyntheticProtocolRouter.sol:SyntheticProtocolRouter",
            "label": "collectionManagerAddress",
            "offset": 0,
            "slot": "0",
            "type": "t_address"
          },
          {
            "astId": 8694,
            "contract": "contracts/polygon/SyntheticProtocolRouter.sol:SyntheticProtocolRouter",
            "label": "jotAddress",
            "offset": 0,
            "slot": "1",
            "type": "t_address"
          },
          {
            "astId": 8696,
            "contract": "contracts/polygon/SyntheticProtocolRouter.sol:SyntheticProtocolRouter",
            "label": "jotStakingAddress",
            "offset": 0,
            "slot": "2",
            "type": "t_address"
          },
          {
            "astId": 8698,
            "contract": "contracts/polygon/SyntheticProtocolRouter.sol:SyntheticProtocolRouter",
            "label": "syntheticNFTAddress",
            "offset": 0,
            "slot": "3",
            "type": "t_address"
          }
        ],
        "numberOfBytes": "128"
      },
      "t_uint256": {
        "encoding": "inplace",
        "label": "uint256",
        "numberOfBytes": "32"
      }
    }
  }
}