{
  "contractName": "AtomicSwapERC20Mock",
  "abi": [
    {
      "anonymous": false,
      "inputs": [
        {
          "indexed": false,
          "internalType": "bytes32",
          "name": "_swapID",
          "type": "bytes32"
        },
        {
          "indexed": false,
          "internalType": "bytes32",
          "name": "_secretKey",
          "type": "bytes32"
        }
      ],
      "name": "CloseProposal",
      "type": "event"
    },
    {
      "anonymous": false,
      "inputs": [
        {
          "indexed": false,
          "internalType": "bytes32",
          "name": "_swapID",
          "type": "bytes32"
        }
      ],
      "name": "ExpireProposal",
      "type": "event"
    },
    {
      "anonymous": false,
      "inputs": [
        {
          "indexed": false,
          "internalType": "bytes32",
          "name": "_swapID",
          "type": "bytes32"
        },
        {
          "indexed": false,
          "internalType": "address",
          "name": "_withdrawer",
          "type": "address"
        },
        {
          "indexed": false,
          "internalType": "bytes32",
          "name": "_secretLock",
          "type": "bytes32"
        }
      ],
      "name": "OpenProposal",
      "type": "event"
    },
    {
      "inputs": [
        {
          "internalType": "bytes32",
          "name": "_swapID",
          "type": "bytes32"
        },
        {
          "internalType": "bytes32",
          "name": "_secretKey",
          "type": "bytes32"
        }
      ],
      "name": "claimFunds",
      "outputs": [],
      "stateMutability": "nonpayable",
      "type": "function"
    },
    {
      "inputs": [
        {
          "internalType": "bytes32",
          "name": "_swapID",
          "type": "bytes32"
        },
        {
          "internalType": "uint256",
          "name": "_value",
          "type": "uint256"
        },
        {
          "internalType": "address",
          "name": "_contractAddress",
          "type": "address"
        },
        {
          "internalType": "address",
          "name": "_withdrawer",
          "type": "address"
        },
        {
          "internalType": "bytes32",
          "name": "_secretLock",
          "type": "bytes32"
        },
        {
          "internalType": "uint256",
          "name": "_timelock",
          "type": "uint256"
        }
      ],
      "name": "createProposal",
      "outputs": [],
      "stateMutability": "nonpayable",
      "type": "function"
    },
    {
      "inputs": [],
      "name": "fakeBlockTimeStamp",
      "outputs": [
        {
          "internalType": "uint256",
          "name": "",
          "type": "uint256"
        }
      ],
      "stateMutability": "view",
      "type": "function"
    },
    {
      "inputs": [
        {
          "internalType": "bytes32",
          "name": "_swapID",
          "type": "bytes32"
        }
      ],
      "name": "getSecretKey",
      "outputs": [
        {
          "internalType": "bytes32",
          "name": "secretKey",
          "type": "bytes32"
        }
      ],
      "stateMutability": "view",
      "type": "function"
    },
    {
      "inputs": [
        {
          "internalType": "bytes32",
          "name": "_swapID",
          "type": "bytes32"
        }
      ],
      "name": "getSwapInfo",
      "outputs": [
        {
          "internalType": "uint256",
          "name": "timelock",
          "type": "uint256"
        },
        {
          "internalType": "uint256",
          "name": "value",
          "type": "uint256"
        },
        {
          "internalType": "address",
          "name": "contractAddress",
          "type": "address"
        },
        {
          "internalType": "address",
          "name": "withdrawer",
          "type": "address"
        },
        {
          "internalType": "bytes32",
          "name": "secretLock",
          "type": "bytes32"
        }
      ],
      "stateMutability": "view",
      "type": "function"
    },
    {
      "inputs": [
        {
          "internalType": "bytes32",
          "name": "_swapID",
          "type": "bytes32"
        }
      ],
      "name": "refundFunds",
      "outputs": [],
      "stateMutability": "nonpayable",
      "type": "function"
    },
    {
      "inputs": [
        {
          "internalType": "uint256",
          "name": "_now",
          "type": "uint256"
        }
      ],
      "name": "setBlockTimeStamp",
      "outputs": [],
      "stateMutability": "nonpayable",
      "type": "function"
    }
  ],
  "bytecode": "0x608060405234801561001057600080fd5b50610f9b806100206000396000f3fe608060405234801561001057600080fd5b506004361061007d5760003560e01c8063725095031161005b57806372509503146100d7578063756bcd7e146100ea5780639fd70182146100ff578063fc443cd9146101125761007d565b80632d0fc6b4146100825780633269a9b6146100af57806367a2ee6d146100c4575b600080fd5b610095610090366004610a89565b610125565b6040516100a6959493929190610f39565b60405180910390f35b6100c26100bd366004610aa1565b6101a3565b005b6100c26100d2366004610a89565b61041d565b6100c26100e5366004610ac2565b610422565b6100f2610756565b6040516100a69190610ba8565b6100c261010d366004610a89565b61075c565b6100f2610120366004610a89565b610978565b60008181526020818152604091829020825160e0810184528154808252600183015493820184905260028301546001600160a01b03908116958301959095526003830154851660608301819052600484015490951660808301819052600584015460a0840181905260069094015460c0909301929092529590929450565b81600160008281526001602052604090205460ff1660038111156101d757634e487b7160e01b600052602160045260246000fd5b146101fd5760405162461bcd60e51b81526004016101f490610ef6565b60405180910390fd5b600083815260208181526040918290206004015491518592859261022d9284926001600160a01b03169101610b31565b60408051601f198184030181529181528151602092830120600085815292839052912060050154146102715760405162461bcd60e51b81526004016101f490610e56565b60008581526020819052604090206004015485906001600160a01b031633146102ac5760405162461bcd60e51b81526004016101f490610c7d565b600086815260208181526040808320815160e08101835281548152600180830154828601526002808401546001600160a01b03908116848701526003850154811660608501526004850154166080840152600584015460a08401526006909301805460c08401528c87528b905593849052919093208054919392909160ff19169083021790555060608101516080820151602083015160405163a9059cbb60e01b81526001600160a01b0384169263a9059cbb9261036c92600401610b8f565b602060405180830381600087803b15801561038657600080fd5b505af115801561039a573d6000803e3d6000fd5b505050506040513d601f19601f820116820180604052508101906103be9190610a62565b6103da5760405162461bcd60e51b81526004016101f490610db6565b7f41e27b07030aa28d1c62c716585f04d3260fd3c1b2e747329ae1f203732004b5888860405161040b929190610bd0565b60405180910390a15050505050505050565b600255565b856000808281526001602052604090205460ff16600381111561045557634e487b7160e01b600052602160045260246000fd5b146104725760405162461bcd60e51b81526004016101f490610c3b565b604051636eb1769f60e11b815285906001600160a01b0382169063dd62ed3e906104a29033903090600401610b51565b60206040518083038186803b1580156104ba57600080fd5b505afa1580156104ce573d6000803e3d6000fd5b505050506040513d601f19601f820116820180604052508101906104f29190610b19565b8711156105115760405162461bcd60e51b81526004016101f490610e99565b6040516323b872dd60e01b81526001600160a01b038216906323b872dd9061054190339030908c90600401610b6b565b602060405180830381600087803b15801561055b57600080fd5b505af115801561056f573d6000803e3d6000fd5b505050506040513d601f19601f820116820180604052508101906105939190610a62565b6105af5760405162461bcd60e51b81526004016101f490610bde565b60006040518060e00160405280858152602001898152602001336001600160a01b03168152602001886001600160a01b03168152602001876001600160a01b031681526020018681526020016000801b8152509050806000808b8152602001908152602001600020600082015181600001556020820151816001015560408201518160020160006101000a8154816001600160a01b0302191690836001600160a01b0316021790555060608201518160030160006101000a8154816001600160a01b0302191690836001600160a01b0316021790555060808201518160040160006101000a8154816001600160a01b0302191690836001600160a01b0316021790555060a0820151816005015560c0820151816006015590505060018060008b815260200190815260200160002060006101000a81548160ff0219169083600381111561070c57634e487b7160e01b600052602160045260246000fd5b02179055507e1aedab88934e047ebb0abe9ec226ef7f63305ea1a61e2ec49230cae4414a2e89878760405161074393929190610bb1565b60405180910390a1505050505050505050565b60025481565b80600160008281526001602052604090205460ff16600381111561079057634e487b7160e01b600052602160045260246000fd5b146107ad5760405162461bcd60e51b81526004016101f490610ef6565b816107b6610a40565b60008281526020819052604090205411156107e35760405162461bcd60e51b81526004016101f490610d15565b60008381526020819052604090206002015483906001600160a01b0316331461081e5760405162461bcd60e51b81526004016101f490610cca565b600084815260208181526040808320815160e0810183528154815260018083015482860190815260028401546001600160a01b0390811684870190815260038087015483166060870190815260048089015485166080890152600589015460a089015260069098015460c08801528e8b529490985297869020805460ff1916909717909655905195519051935163a9059cbb60e01b815291959485169363a9059cbb936108cb9301610b8f565b602060405180830381600087803b1580156108e557600080fd5b505af11580156108f9573d6000803e3d6000fd5b505050506040513d601f19601f8201168201806040525081019061091d9190610a62565b6109395760405162461bcd60e51b81526004016101f490610d59565b7f18ebe710226b6781b51c7cbba2305e730a5740b7427d6e6399107d0e14c74595866040516109689190610ba8565b60405180910390a1505050505050565b600081600260008281526001602052604090205460ff1660038111156109ae57634e487b7160e01b600052602160045260246000fd5b146109cb5760405162461bcd60e51b81526004016101f490610e13565b505060009081526020818152604091829020825160e0810184528154815260018201549281019290925260028101546001600160a01b039081169383019390935260038101548316606083015260048101549092166080820152600582015460a082015260069091015460c090910181905290565b60025490565b80356001600160a01b0381168114610a5d57600080fd5b919050565b600060208284031215610a73578081fd5b81518015158114610a82578182fd5b9392505050565b600060208284031215610a9a578081fd5b5035919050565b60008060408385031215610ab3578081fd5b50508035926020909101359150565b60008060008060008060c08789031215610ada578182fd5b8635955060208701359450610af160408801610a46565b9350610aff60608801610a46565b92506080870135915060a087013590509295509295509295565b600060208284031215610b2a578081fd5b5051919050565b91825260601b6bffffffffffffffffffffffff1916602082015260340190565b6001600160a01b0392831681529116602082015260400190565b6001600160a01b039384168152919092166020820152604081019190915260600190565b6001600160a01b03929092168252602082015260400190565b90815260200190565b9283526001600160a01b03919091166020830152604082015260600190565b918252602082015260400190565b60208082526032908201527f41746f6d69635377617045524332302e63726561746550726f706f73616c3a2060408201527f5472616e73616374696f6e206661696c65640000000000000000000000000000606082015260800190565b60208082526022908201527f41746f6d69635377617045524332303a2053776170206974206e6f7420656d70604082015261747960f01b606082015260800190565b6020808252602d908201527f41746f6d69635377617045524332303a2043616c6c6572206973206e6f74207460408201526c3432903bb4ba34323930bbb2b960991b606082015260800190565b6020808252602b908201527f41746f6d69635377617045524332303a2043616c6c6572206973206e6f74207460408201526a343290383937b837b9b2b960a91b606082015260800190565b60208082526024908201527f41746f6d69635377617045524332303a2053776170206973206e6f74206578706040820152631a5c995960e21b606082015260800190565b6020808252602f908201527f41746f6d69635377617045524332302e726566756e6446756e64733a2054726160408201527f6e73616374696f6e206661696c65640000000000000000000000000000000000606082015260800190565b6020808252602e908201527f41746f6d69635377617045524332302e636c61696d46756e64733a205472616e60408201527f73616374696f6e206661696c6564000000000000000000000000000000000000606082015260800190565b60208082526023908201527f41746f6d69635377617045524332303a2053776170206973206e6f7420636c6f6040820152621cd95960ea1b606082015260800190565b60208082526023908201527f41746f6d69635377617045524332303a20496e76616c696420736563726574206040820152626b657960e81b606082015260800190565b6020808252603d908201527f41746f6d69635377617045524332302e63726561746550726f706f73616c3a2060408201527f43616c6c657220686173206e6f7420656e6f7567682062616c616e6365000000606082015260800190565b60208082526023908201527f41746f6d69635377617045524332303a2053776170206973206e6f74206f70656040820152621b995960ea1b606082015260800190565b94855260208501939093526001600160a01b039182166040850152166060830152608082015260a0019056fea2646970667358221220a43c76b66d4a5cb43655546a749979c8f97fb3087d9de76bd33a0231f547a26d64736f6c63430008000033",
  "immutableReferences": {},
  "source": "// SPDX-License-Identifier: UNLICENSED\n\npragma solidity ^0.8.0;\n\nimport \"../AtomicSwapERC20.sol\";\n\ncontract AtomicSwapERC20Mock is AtomicSwapERC20{\n    uint256 public fakeBlockTimeStamp;\n\n    function setBlockTimeStamp(uint256 _now) external {\n        fakeBlockTimeStamp = _now;\n    }\n\n    function _getNow() internal override view returns (uint256) {\n        return fakeBlockTimeStamp;\n    }\n}",
  "sourcePath": "/Volumes/Workspace/PRIVI/PRIVIethereum/contracts/AtomicSwap/mocks/AtomicSwapERC20Mock copy.sol",
  "compiler": {
    "name": "solc",
    "version": "0.8.0+commit.c7dfd78e.Emscripten.clang"
  },
  "schemaVersion": "3.3.4",
  "updatedAt": "2021-04-23T14:01:46.036Z",
  "devdoc": {
    "kind": "dev",
    "methods": {},
    "version": 1
  },
  "userdoc": {
    "kind": "user",
    "methods": {},
    "version": 1
  }
}