{
  "contractName": "AtomicSwapERC721Mock",
  "abi": [
    {
      "anonymous": false,
      "inputs": [
        {
          "indexed": false,
          "internalType": "bytes32",
          "name": "_swapID",
          "type": "bytes32"
        },
        {
          "indexed": false,
          "internalType": "bytes32",
          "name": "_secretKey",
          "type": "bytes32"
        }
      ],
      "name": "CloseProposal",
      "type": "event"
    },
    {
      "anonymous": false,
      "inputs": [
        {
          "indexed": false,
          "internalType": "bytes32",
          "name": "_swapID",
          "type": "bytes32"
        }
      ],
      "name": "ExpireProposal",
      "type": "event"
    },
    {
      "anonymous": false,
      "inputs": [
        {
          "indexed": false,
          "internalType": "bytes32",
          "name": "_swapID",
          "type": "bytes32"
        },
        {
          "indexed": false,
          "internalType": "address",
          "name": "_withdrawer",
          "type": "address"
        },
        {
          "indexed": false,
          "internalType": "bytes32",
          "name": "_secretLock",
          "type": "bytes32"
        }
      ],
      "name": "OpenProposal",
      "type": "event"
    },
    {
      "inputs": [
        {
          "internalType": "bytes32",
          "name": "_swapID",
          "type": "bytes32"
        },
        {
          "internalType": "bytes32",
          "name": "_secretKey",
          "type": "bytes32"
        }
      ],
      "name": "claimFunds",
      "outputs": [],
      "stateMutability": "nonpayable",
      "type": "function"
    },
    {
      "inputs": [
        {
          "internalType": "bytes32",
          "name": "_swapID",
          "type": "bytes32"
        },
        {
          "internalType": "uint256",
          "name": "_tokenId",
          "type": "uint256"
        },
        {
          "internalType": "address",
          "name": "_contractAddress",
          "type": "address"
        },
        {
          "internalType": "address",
          "name": "_withdrawer",
          "type": "address"
        },
        {
          "internalType": "bytes32",
          "name": "_secretLock",
          "type": "bytes32"
        },
        {
          "internalType": "uint256",
          "name": "_timelock",
          "type": "uint256"
        }
      ],
      "name": "createProposal",
      "outputs": [],
      "stateMutability": "nonpayable",
      "type": "function"
    },
    {
      "inputs": [],
      "name": "fakeBlockTimeStamp",
      "outputs": [
        {
          "internalType": "uint256",
          "name": "",
          "type": "uint256"
        }
      ],
      "stateMutability": "view",
      "type": "function"
    },
    {
      "inputs": [
        {
          "internalType": "bytes32",
          "name": "_swapID",
          "type": "bytes32"
        }
      ],
      "name": "getSecretKey",
      "outputs": [
        {
          "internalType": "bytes32",
          "name": "secretKey",
          "type": "bytes32"
        }
      ],
      "stateMutability": "view",
      "type": "function"
    },
    {
      "inputs": [
        {
          "internalType": "bytes32",
          "name": "_swapID",
          "type": "bytes32"
        }
      ],
      "name": "getSwapInfo",
      "outputs": [
        {
          "internalType": "uint256",
          "name": "timelock",
          "type": "uint256"
        },
        {
          "internalType": "uint256",
          "name": "tokenId",
          "type": "uint256"
        },
        {
          "internalType": "address",
          "name": "contractAddress",
          "type": "address"
        },
        {
          "internalType": "address",
          "name": "withdrawer",
          "type": "address"
        },
        {
          "internalType": "bytes32",
          "name": "secretLock",
          "type": "bytes32"
        }
      ],
      "stateMutability": "view",
      "type": "function"
    },
    {
      "inputs": [
        {
          "internalType": "address",
          "name": "",
          "type": "address"
        },
        {
          "internalType": "address",
          "name": "",
          "type": "address"
        },
        {
          "internalType": "uint256",
          "name": "",
          "type": "uint256"
        },
        {
          "internalType": "bytes",
          "name": "",
          "type": "bytes"
        }
      ],
      "name": "onERC721Received",
      "outputs": [
        {
          "internalType": "bytes4",
          "name": "",
          "type": "bytes4"
        }
      ],
      "stateMutability": "nonpayable",
      "type": "function"
    },
    {
      "inputs": [
        {
          "internalType": "bytes32",
          "name": "_swapID",
          "type": "bytes32"
        }
      ],
      "name": "refundFunds",
      "outputs": [],
      "stateMutability": "nonpayable",
      "type": "function"
    },
    {
      "inputs": [
        {
          "internalType": "uint256",
          "name": "_now",
          "type": "uint256"
        }
      ],
      "name": "setBlockTimeStamp",
      "outputs": [],
      "stateMutability": "nonpayable",
      "type": "function"
    }
  ],
  "bytecode": "0x608060405234801561001057600080fd5b50610fb3806100206000396000f3fe608060405234801561001057600080fd5b50600436106100885760003560e01c8063725095031161005b5780637250950314610102578063756bcd7e146101155780639fd701821461012a578063fc443cd91461013d57610088565b8063150b7a021461008d5780632d0fc6b4146100b65780633269a9b6146100da57806367a2ee6d146100ef575b600080fd5b6100a061009b366004610a84565b610150565b6040516100ad9190610c9c565b60405180910390f35b6100c96100c4366004610b74565b610160565b6040516100ad959493929190610f23565b6100ed6100e8366004610b8c565b6101de565b005b6100ed6100fd366004610b74565b610420565b6100ed610110366004610bad565b610425565b61011d6107a9565b6040516100ad9190610c66565b6100ed610138366004610b74565b6107af565b61011d61014b366004610b74565b610993565b630a85bd0160e11b949350505050565b60008181526020818152604091829020825160e0810184528154808252600183015493820184905260028301546001600160a01b03908116958301959095526003830154851660608301819052600484015490951660808301819052600584015460a0840181905260069094015460c0909301929092529590929450565b81600160008281526001602052604090205460ff16600381111561021257634e487b7160e01b600052602160045260246000fd5b146102385760405162461bcd60e51b815260040161022f90610dfb565b60405180910390fd5b60008381526020818152604091829020600401549151859285926102689284926001600160a01b03169101610c08565b60408051601f198184030181529181528151602092830120600085815292839052912060050154146102ac5760405162461bcd60e51b815260040161022f90610edf565b60008581526020819052604090206004015485906001600160a01b031633146102e75760405162461bcd60e51b815260040161022f90610e3f565b600086815260208181526040808320815160e08101835281548152600180830154828601526002808401546001600160a01b03908116848701526003850154811660608501526004850154166080840152600584015460a08401526006909301805460c08401528c87528b905593849052919093208054919392909160ff191690830217905550606081015160808201516020830151604051632142170760e11b81526001600160a01b038416926342842e0e926103ab9230929190600401610c42565b600060405180830381600087803b1580156103c557600080fd5b505af11580156103d9573d6000803e3d6000fd5b505050507f41e27b07030aa28d1c62c716585f04d3260fd3c1b2e747329ae1f203732004b5888860405161040e929190610c8e565b60405180910390a15050505050505050565b600255565b856000808281526001602052604090205460ff16600381111561045857634e487b7160e01b600052602160045260246000fd5b146104755760405162461bcd60e51b815260040161022f90610e9c565b6040516331a9108f60e11b8152859033906001600160a01b03831690636352211e906104a5908b90600401610c66565b60206040518083038186803b1580156104bd57600080fd5b505afa1580156104d1573d6000803e3d6000fd5b505050506040513d601f19601f820116820180604052508101906104f59190610a61565b6001600160a01b0316148015610584575060405163e985e9c560e01b81526001600160a01b0382169063e985e9c5906105349033903090600401610c28565b60206040518083038186803b15801561054c57600080fd5b505afa158015610560573d6000803e3d6000fd5b505050506040513d601f19601f820116820180604052508101906105849190610b54565b6105a05760405162461bcd60e51b815260040161022f90610d9e565b604051632142170760e11b81526001600160a01b038216906342842e0e906105d090339030908c90600401610c42565b600060405180830381600087803b1580156105ea57600080fd5b505af11580156105fe573d6000803e3d6000fd5b5050505060006040518060e00160405280858152602001898152602001336001600160a01b03168152602001886001600160a01b03168152602001876001600160a01b031681526020018681526020016000801b8152509050806000808b8152602001908152602001600020600082015181600001556020820151816001015560408201518160020160006101000a8154816001600160a01b0302191690836001600160a01b0316021790555060608201518160030160006101000a8154816001600160a01b0302191690836001600160a01b0316021790555060808201518160040160006101000a8154816001600160a01b0302191690836001600160a01b0316021790555060a0820151816005015560c0820151816006015590505060018060008b815260200190815260200160002060006101000a81548160ff0219169083600381111561075f57634e487b7160e01b600052602160045260246000fd5b02179055507e1aedab88934e047ebb0abe9ec226ef7f63305ea1a61e2ec49230cae4414a2e89878760405161079693929190610c6f565b60405180910390a1505050505050505050565b60025481565b80600160008281526001602052604090205460ff1660038111156107e357634e487b7160e01b600052602160045260246000fd5b146108005760405162461bcd60e51b815260040161022f90610dfb565b81610809610a5b565b60008281526020819052604090205411156108365760405162461bcd60e51b815260040161022f90610cc9565b60008381526020819052604090206002015483906001600160a01b031633146108715760405162461bcd60e51b815260040161022f90610d52565b600084815260208181526040808320815160e0810183528154815260018083015482860190815260028401546001600160a01b0390811684870190815260038087015483166060870190815260048089015485166080890152600589015460a089015260069098015460c08801528e8b529490985297869020805460ff19169097179096559051955190519351632142170760e11b81529195948516936342842e0e93610922933093929101610c42565b600060405180830381600087803b15801561093c57600080fd5b505af1158015610950573d6000803e3d6000fd5b505050507f18ebe710226b6781b51c7cbba2305e730a5740b7427d6e6399107d0e14c74595866040516109839190610c66565b60405180910390a1505050505050565b600081600260008281526001602052604090205460ff1660038111156109c957634e487b7160e01b600052602160045260246000fd5b146109e65760405162461bcd60e51b815260040161022f90610d0e565b505060009081526020818152604091829020825160e0810184528154815260018201549281019290925260028101546001600160a01b039081169383019390935260038101548316606083015260048101549092166080820152600582015460a082015260069091015460c090910181905290565b60025490565b600060208284031215610a72578081fd5b8151610a7d81610f65565b9392505050565b60008060008060808587031215610a99578283fd5b8435610aa481610f65565b9350602085810135610ab581610f65565b935060408601359250606086013567ffffffffffffffff80821115610ad8578384fd5b818801915088601f830112610aeb578384fd5b813581811115610afd57610afd610f4f565b604051601f8201601f1916810185018381118282101715610b2057610b20610f4f565b60405281815283820185018b1015610b36578586fd5b81858501868301379081019093019390935250939692955090935050565b600060208284031215610b65578081fd5b81518015158114610a7d578182fd5b600060208284031215610b85578081fd5b5035919050565b60008060408385031215610b9e578182fd5b50508035926020909101359150565b60008060008060008060c08789031215610bc5578182fd5b86359550602087013594506040870135610bde81610f65565b93506060870135610bee81610f65565b9598949750929560808101359460a0909101359350915050565b91825260601b6bffffffffffffffffffffffff1916602082015260340190565b6001600160a01b0392831681529116602082015260400190565b6001600160a01b039384168152919092166020820152604081019190915260600190565b90815260200190565b9283526001600160a01b03919091166020830152604082015260600190565b918252602082015260400190565b7fffffffff0000000000000000000000000000000000000000000000000000000091909116815260200190565b60208082526025908201527f41746f6d6963537761704552433732313a2053776170206973206e6f742065786040820152641c1a5c995960da1b606082015260800190565b60208082526024908201527f41746f6d6963537761704552433732313a2053776170206973206e6f7420636c6040820152631bdcd95960e21b606082015260800190565b6020808252602c908201527f41746f6d6963537761704552433732313a2043616c6c6572206973206e6f742060408201526b3a343290383937b837b9b2b960a11b606082015260800190565b6020808252603d908201527f41756374696f6e2e63726561746541756374696f6e3a204e6f74206f776e657260408201527f20616e64206f7220636f6e7472616374206e6f7420617070726f766564000000606082015260800190565b60208082526024908201527f41746f6d6963537761704552433732313a2053776170206973206e6f74206f70604082015263195b995960e21b606082015260800190565b6020808252602e908201527f41746f6d6963537761704552433732313a2043616c6c6572206973206e6f742060408201527f7468652077697468647261776572000000000000000000000000000000000000606082015260800190565b60208082526023908201527f41746f6d6963537761704552433732313a2053776170206974206e6f7420656d60408201526270747960e81b606082015260800190565b60208082526024908201527f41746f6d6963537761704552433732313a20496e76616c696420736563726574604082015263206b657960e01b606082015260800190565b94855260208501939093526001600160a01b039182166040850152166060830152608082015260a00190565b634e487b7160e01b600052604160045260246000fd5b6001600160a01b0381168114610f7a57600080fd5b5056fea264697066735822122006ff56a3f4cc655ef392c640dcd57b6fea6823050539d108e23f3502b0449a2864736f6c63430008000033",
  "immutableReferences": {},
  "source": "// SPDX-License-Identifier: UNLICENSED\n\npragma solidity ^0.8.0;\n\nimport \"../AtomicSwapERC721.sol\";\n\ncontract AtomicSwapERC721Mock is AtomicSwapERC721{\n    uint256 public fakeBlockTimeStamp;\n\n    function setBlockTimeStamp(uint256 _now) external {\n        fakeBlockTimeStamp = _now;\n    }\n\n    function _getNow() internal override view returns (uint256) {\n        return fakeBlockTimeStamp;\n    }\n}",
  "sourcePath": "/Volumes/Workspace/PRIVI/PRIVIethereum/contracts/AtomicSwap/mocks/AtomicSwapERC721Mock copy.sol",
  "compiler": {
    "name": "solc",
    "version": "0.8.0+commit.c7dfd78e.Emscripten.clang"
  },
  "schemaVersion": "3.3.4",
  "updatedAt": "2021-04-23T14:01:46.093Z",
  "devdoc": {
    "kind": "dev",
    "methods": {},
    "version": 1
  },
  "userdoc": {
    "kind": "user",
    "methods": {},
    "version": 1
  }
}