{
  "contractName": "AtomicSwapERC1155Mock",
  "abi": [
    {
      "anonymous": false,
      "inputs": [
        {
          "indexed": false,
          "internalType": "bytes32",
          "name": "_swapID",
          "type": "bytes32"
        },
        {
          "indexed": false,
          "internalType": "bytes32",
          "name": "_secretKey",
          "type": "bytes32"
        }
      ],
      "name": "CloseProposal",
      "type": "event"
    },
    {
      "anonymous": false,
      "inputs": [
        {
          "indexed": false,
          "internalType": "bytes32",
          "name": "_swapID",
          "type": "bytes32"
        }
      ],
      "name": "ExpireProposal",
      "type": "event"
    },
    {
      "anonymous": false,
      "inputs": [
        {
          "indexed": false,
          "internalType": "bytes32",
          "name": "_swapID",
          "type": "bytes32"
        },
        {
          "indexed": false,
          "internalType": "address",
          "name": "_withdrawer",
          "type": "address"
        },
        {
          "indexed": false,
          "internalType": "bytes32",
          "name": "_secretLock",
          "type": "bytes32"
        }
      ],
      "name": "OpenProposal",
      "type": "event"
    },
    {
      "inputs": [
        {
          "internalType": "bytes32",
          "name": "_swapID",
          "type": "bytes32"
        },
        {
          "internalType": "bytes32",
          "name": "_secretKey",
          "type": "bytes32"
        }
      ],
      "name": "claimFunds",
      "outputs": [],
      "stateMutability": "nonpayable",
      "type": "function"
    },
    {
      "inputs": [
        {
          "internalType": "bytes32",
          "name": "_swapID",
          "type": "bytes32"
        },
        {
          "internalType": "uint256",
          "name": "_tokenId",
          "type": "uint256"
        },
        {
          "internalType": "uint256",
          "name": "_value",
          "type": "uint256"
        },
        {
          "internalType": "address",
          "name": "_contractAddress",
          "type": "address"
        },
        {
          "internalType": "address",
          "name": "_withdrawer",
          "type": "address"
        },
        {
          "internalType": "bytes32",
          "name": "_secretLock",
          "type": "bytes32"
        },
        {
          "internalType": "uint256",
          "name": "_timelock",
          "type": "uint256"
        }
      ],
      "name": "createProposal",
      "outputs": [],
      "stateMutability": "nonpayable",
      "type": "function"
    },
    {
      "inputs": [],
      "name": "fakeBlockTimeStamp",
      "outputs": [
        {
          "internalType": "uint256",
          "name": "",
          "type": "uint256"
        }
      ],
      "stateMutability": "view",
      "type": "function"
    },
    {
      "inputs": [
        {
          "internalType": "bytes32",
          "name": "_swapID",
          "type": "bytes32"
        }
      ],
      "name": "getSecretKey",
      "outputs": [
        {
          "internalType": "bytes32",
          "name": "secretKey",
          "type": "bytes32"
        }
      ],
      "stateMutability": "view",
      "type": "function"
    },
    {
      "inputs": [
        {
          "internalType": "bytes32",
          "name": "_swapID",
          "type": "bytes32"
        }
      ],
      "name": "getSwapInfo",
      "outputs": [
        {
          "internalType": "uint256",
          "name": "timelock",
          "type": "uint256"
        },
        {
          "internalType": "uint256",
          "name": "tokenId",
          "type": "uint256"
        },
        {
          "internalType": "uint256",
          "name": "value",
          "type": "uint256"
        },
        {
          "internalType": "address",
          "name": "contractAddress",
          "type": "address"
        },
        {
          "internalType": "address",
          "name": "withdrawer",
          "type": "address"
        },
        {
          "internalType": "bytes32",
          "name": "secretLock",
          "type": "bytes32"
        }
      ],
      "stateMutability": "view",
      "type": "function"
    },
    {
      "inputs": [
        {
          "internalType": "address",
          "name": "",
          "type": "address"
        },
        {
          "internalType": "address",
          "name": "",
          "type": "address"
        },
        {
          "internalType": "uint256[]",
          "name": "",
          "type": "uint256[]"
        },
        {
          "internalType": "uint256[]",
          "name": "",
          "type": "uint256[]"
        },
        {
          "internalType": "bytes",
          "name": "",
          "type": "bytes"
        }
      ],
      "name": "onERC1155BatchReceived",
      "outputs": [
        {
          "internalType": "bytes4",
          "name": "",
          "type": "bytes4"
        }
      ],
      "stateMutability": "nonpayable",
      "type": "function"
    },
    {
      "inputs": [
        {
          "internalType": "address",
          "name": "",
          "type": "address"
        },
        {
          "internalType": "address",
          "name": "",
          "type": "address"
        },
        {
          "internalType": "uint256",
          "name": "",
          "type": "uint256"
        },
        {
          "internalType": "uint256",
          "name": "",
          "type": "uint256"
        },
        {
          "internalType": "bytes",
          "name": "",
          "type": "bytes"
        }
      ],
      "name": "onERC1155Received",
      "outputs": [
        {
          "internalType": "bytes4",
          "name": "",
          "type": "bytes4"
        }
      ],
      "stateMutability": "nonpayable",
      "type": "function"
    },
    {
      "inputs": [
        {
          "internalType": "bytes32",
          "name": "_swapID",
          "type": "bytes32"
        }
      ],
      "name": "refundFunds",
      "outputs": [],
      "stateMutability": "nonpayable",
      "type": "function"
    },
    {
      "inputs": [
        {
          "internalType": "bytes4",
          "name": "interfaceId",
          "type": "bytes4"
        }
      ],
      "name": "supportsInterface",
      "outputs": [
        {
          "internalType": "bool",
          "name": "",
          "type": "bool"
        }
      ],
      "stateMutability": "view",
      "type": "function"
    },
    {
      "inputs": [
        {
          "internalType": "uint256",
          "name": "_now",
          "type": "uint256"
        }
      ],
      "name": "setBlockTimeStamp",
      "outputs": [],
      "stateMutability": "nonpayable",
      "type": "function"
    }
  ],
  "bytecode": "0x608060405234801561001057600080fd5b506111a4806100206000396000f3fe608060405234801561001057600080fd5b506004361061009e5760003560e01c80639fd70182116100665780639fd701821461012e578063bc197c8114610141578063ce03d4d014610161578063f23a6e6114610174578063fc443cd9146101875761009e565b806301ffc9a7146100a35780632d0fc6b4146100cc5780633269a9b6146100f157806367a2ee6d14610106578063756bcd7e14610119575b600080fd5b6100b66100b1366004610da8565b61019a565b6040516100c39190610e73565b60405180910390f35b6100df6100da366004610d0d565b6101b4565b6040516100c39695949392919061113a565b6101046100ff366004610d25565b61023f565b005b610104610114366004610d0d565b61048f565b610121610494565b6040516100c39190610e7e565b61010461013c366004610d0d565b61049a565b61015461014f366004610bb9565b61068c565b6040516100c39190610eb4565b61010461016f366004610d46565b6106a0565b610154610182366004610c70565b610a30565b610121610195366004610d0d565b610a42565b6001600160e01b031981166301ffc9a760e01b145b919050565b6000908152602081815260409182902082516101008101845281548082526001830154938201849052600283015494820185905260038301546001600160a01b0390811660608401526004840154811660808401819052600585015490911660a08401819052600685015460c0850181905260079095015460e0909401939093529095939493909290565b81600160008281526001602052604090205460ff16600381111561027357634e487b7160e01b600052602160045260246000fd5b146102995760405162461bcd60e51b815260040161029090610f26565b60405180910390fd5b60008381526020818152604091829020600501549151859285926102c99284926001600160a01b03169101610de8565b60408051601f1981840301815291815281516020928301206000858152928390529120600601541461030d5760405162461bcd60e51b815260040161029090610fb1565b60008581526020819052604090206005015485906001600160a01b031633146103485760405162461bcd60e51b815260040161029090610ec9565b60008681526020818152604080832081516101008101835281548152600180830154828601526002808401548386015260038401546001600160a01b03908116606085015260048501548116608085015260058501541660a0840152600684015460c08401526007909301805460e08401528c87528b905593849052919093208054919392909160ff191690830217905550608081015160a082015160208301516040808501519051637921219560e11b81526001600160a01b0385169363f242432a9361041a933093600401610e22565b600060405180830381600087803b15801561043457600080fd5b505af1158015610448573d6000803e3d6000fd5b505050507f41e27b07030aa28d1c62c716585f04d3260fd3c1b2e747329ae1f203732004b5888860405161047d929190610ea6565b60405180910390a15050505050505050565b600255565b60025481565b80600160008281526001602052604090205460ff1660038111156104ce57634e487b7160e01b600052602160045260246000fd5b146104eb5760405162461bcd60e51b815260040161029090610f26565b816104f4610b13565b60008281526020819052604090205411156105215760405162461bcd60e51b815260040161029090610f6b565b60008381526020819052604090206003015483906001600160a01b0316331461055c5760405162461bcd60e51b8152600401610290906110ed565b6000848152602081815260408083208151610100810183528154815260018083015482860190815260028401548386019081526003808601546001600160a01b039081166060870190815260048089015483166080890190815260058a0154841660a08a015260068a015460c08a015260079099015460e08901528f8c529590995298879020805460ff1916909117905593519551905193519451637921219560e11b8152929686169463f242432a9461061b94309491929101610e22565b600060405180830381600087803b15801561063557600080fd5b505af1158015610649573d6000803e3d6000fd5b505050507f18ebe710226b6781b51c7cbba2305e730a5740b7427d6e6399107d0e14c745958660405161067c9190610e7e565b60405180910390a1505050505050565b63bc197c8160e01b98975050505050505050565b866000808281526001602052604090205460ff1660038111156106d357634e487b7160e01b600052602160045260246000fd5b146106f05760405162461bcd60e51b8152600401610290906110a9565b604051627eeac760e11b8152859087906001600160a01b0383169062fdd58e906107209033908d90600401610e5a565b60206040518083038186803b15801561073857600080fd5b505afa15801561074c573d6000803e3d6000fd5b505050506040513d601f19601f820116820180604052508101906107709190610dd0565b101580156107f7575060405163e985e9c560e01b81526001600160a01b0382169063e985e9c5906107a79033903090600401610e08565b60206040518083038186803b1580156107bf57600080fd5b505afa1580156107d3573d6000803e3d6000fd5b505050506040513d601f19601f820116820180604052508101906107f79190610ce6565b6108135760405162461bcd60e51b81526004016102909061103b565b604051637921219560e11b81526001600160a01b0382169063f242432a9061084590339030908d908d90600401610e22565b600060405180830381600087803b15801561085f57600080fd5b505af1158015610873573d6000803e3d6000fd5b5050505060006040518061010001604052808581526020018a8152602001898152602001336001600160a01b03168152602001886001600160a01b03168152602001876001600160a01b031681526020018681526020016000801b8152509050806000808c815260200190815260200160002060008201518160000155602082015181600101556040820151816002015560608201518160030160006101000a8154816001600160a01b0302191690836001600160a01b0316021790555060808201518160040160006101000a8154816001600160a01b0302191690836001600160a01b0316021790555060a08201518160050160006101000a8154816001600160a01b0302191690836001600160a01b0316021790555060c0820151816006015560e0820151816007015590505060018060008c815260200190815260200160002060006101000a81548160ff021916908360038111156109e557634e487b7160e01b600052602160045260246000fd5b02179055507e1aedab88934e047ebb0abe9ec226ef7f63305ea1a61e2ec49230cae4414a2e8a8787604051610a1c93929190610e87565b60405180910390a150505050505050505050565b63f23a6e6160e01b9695505050505050565b600081600260008281526001602052604090205460ff166003811115610a7857634e487b7160e01b600052602160045260246000fd5b14610a955760405162461bcd60e51b815260040161029090610ff6565b5050600090815260208181526040918290208251610100810184528154815260018201549281019290925260028101549282019290925260038201546001600160a01b03908116606083015260048301548116608083015260058301541660a0820152600682015460c082015260079091015460e090910181905290565b60025490565b80356001600160a01b03811681146101af57600080fd5b60008083601f840112610b41578182fd5b50813567ffffffffffffffff811115610b58578182fd5b6020830191508360208083028501011115610b7257600080fd5b9250929050565b60008083601f840112610b8a578182fd5b50813567ffffffffffffffff811115610ba1578182fd5b602083019150836020828501011115610b7257600080fd5b60008060008060008060008060a0898b031215610bd4578384fd5b610bdd89610b19565b9750610beb60208a01610b19565b9650604089013567ffffffffffffffff80821115610c07578586fd5b610c138c838d01610b30565b909850965060608b0135915080821115610c2b578586fd5b610c378c838d01610b30565b909650945060808b0135915080821115610c4f578384fd5b50610c5c8b828c01610b79565b999c989b5096995094979396929594505050565b60008060008060008060a08789031215610c88578182fd5b610c9187610b19565b9550610c9f60208801610b19565b94506040870135935060608701359250608087013567ffffffffffffffff811115610cc8578283fd5b610cd489828a01610b79565b979a9699509497509295939492505050565b600060208284031215610cf7578081fd5b81518015158114610d06578182fd5b9392505050565b600060208284031215610d1e578081fd5b5035919050565b60008060408385031215610d37578182fd5b50508035926020909101359150565b600080600080600080600060e0888a031215610d60578283fd5b873596506020880135955060408801359450610d7e60608901610b19565b9350610d8c60808901610b19565b925060a0880135915060c0880135905092959891949750929550565b600060208284031215610db9578081fd5b81356001600160e01b031981168114610d06578182fd5b600060208284031215610de1578081fd5b5051919050565b91825260601b6bffffffffffffffffffffffff1916602082015260340190565b6001600160a01b0392831681529116602082015260400190565b6001600160a01b0394851681529290931660208301526040820152606081019190915260a06080820181905260009082015260c00190565b6001600160a01b03929092168252602082015260400190565b901515815260200190565b90815260200190565b9283526001600160a01b03919091166020830152604082015260600190565b918252602082015260400190565b6001600160e01b031991909116815260200190565b6020808252602f908201527f41746f6d696353776170455243313135353a2043616c6c6572206973206e6f7460408201527f2074686520776974686472617765720000000000000000000000000000000000606082015260800190565b60208082526025908201527f41746f6d696353776170455243313135353a2053776170206973206e6f74206f6040820152641c195b995960da1b606082015260800190565b60208082526026908201527f41746f6d696353776170455243313135353a2053776170206973206e6f7420656040820152651e1c1a5c995960d21b606082015260800190565b60208082526025908201527f41746f6d696353776170455243313135353a20496e76616c696420736563726560408201526474206b657960d81b606082015260800190565b60208082526025908201527f41746f6d696353776170455243313135353a2053776170206973206e6f7420636040820152641b1bdcd95960da1b606082015260800190565b60208082526048908201527f41746f6d696353776170455243313135352e63726561746550726f706f73616c60408201527f3a204e6f74206f776e657220616e64206f7220636f6e7472616374206e6f7420606082015267185c1c1c9bdd995960c21b608082015260a00190565b60208082526024908201527f41746f6d696353776170455243313135353a2053776170206974206e6f7420656040820152636d70747960e01b606082015260800190565b6020808252602d908201527f41746f6d696353776170455243313135353a2043616c6c6572206973206e6f7460408201526c103a343290383937b837b9b2b960991b606082015260800190565b958652602086019490945260408501929092526001600160a01b03908116606085015216608083015260a082015260c0019056fea2646970667358221220ecd1a7cc0798d769b1a33131631173b46aea1711513b79be7e84e7ef5861763064736f6c63430008000033",
  "immutableReferences": {},
  "source": "// SPDX-License-Identifier: UNLICENSED\n\npragma solidity ^0.8.0;\n\nimport \"../AtomicSwapERC1155.sol\";\n\ncontract AtomicSwapERC1155Mock is AtomicSwapERC1155{\n    uint256 public fakeBlockTimeStamp;\n\n    function setBlockTimeStamp(uint256 _now) external {\n        fakeBlockTimeStamp = _now;\n    }\n\n    function _getNow() internal override view returns (uint256) {\n        return fakeBlockTimeStamp;\n    }\n}",
  "sourcePath": "/Volumes/Workspace/PRIVI/PRIVIethereum/contracts/AtomicSwap/mocks/AtomicSwapERC1155Mock.sol",
  "compiler": {
    "name": "solc",
    "version": "0.8.0+commit.c7dfd78e.Emscripten.clang"
  },
  "schemaVersion": "3.3.4",
  "updatedAt": "2021-04-23T14:01:45.982Z",
  "devdoc": {
    "kind": "dev",
    "methods": {
      "supportsInterface(bytes4)": {
        "details": "See {IERC165-supportsInterface}."
      }
    },
    "version": 1
  },
  "userdoc": {
    "kind": "user",
    "methods": {},
    "version": 1
  }
}