{
  "contractName": "AtomicSwapERC20",
  "abi": [
    {
      "anonymous": false,
      "inputs": [
        {
          "indexed": false,
          "internalType": "bytes32",
          "name": "_swapID",
          "type": "bytes32"
        },
        {
          "indexed": false,
          "internalType": "bytes32",
          "name": "_secretKey",
          "type": "bytes32"
        }
      ],
      "name": "CloseProposal",
      "type": "event"
    },
    {
      "anonymous": false,
      "inputs": [
        {
          "indexed": false,
          "internalType": "bytes32",
          "name": "_swapID",
          "type": "bytes32"
        }
      ],
      "name": "ExpireProposal",
      "type": "event"
    },
    {
      "anonymous": false,
      "inputs": [
        {
          "indexed": false,
          "internalType": "bytes32",
          "name": "_swapID",
          "type": "bytes32"
        },
        {
          "indexed": false,
          "internalType": "address",
          "name": "_withdrawer",
          "type": "address"
        },
        {
          "indexed": false,
          "internalType": "bytes32",
          "name": "_secretLock",
          "type": "bytes32"
        }
      ],
      "name": "OpenProposal",
      "type": "event"
    },
    {
      "inputs": [
        {
          "internalType": "bytes32",
          "name": "_swapID",
          "type": "bytes32"
        },
        {
          "internalType": "uint256",
          "name": "_value",
          "type": "uint256"
        },
        {
          "internalType": "address",
          "name": "_contractAddress",
          "type": "address"
        },
        {
          "internalType": "address",
          "name": "_withdrawer",
          "type": "address"
        },
        {
          "internalType": "bytes32",
          "name": "_secretLock",
          "type": "bytes32"
        },
        {
          "internalType": "uint256",
          "name": "_timelock",
          "type": "uint256"
        }
      ],
      "name": "createProposal",
      "outputs": [],
      "stateMutability": "nonpayable",
      "type": "function"
    },
    {
      "inputs": [
        {
          "internalType": "bytes32",
          "name": "_swapID",
          "type": "bytes32"
        },
        {
          "internalType": "bytes32",
          "name": "_secretKey",
          "type": "bytes32"
        }
      ],
      "name": "claimFunds",
      "outputs": [],
      "stateMutability": "nonpayable",
      "type": "function"
    },
    {
      "inputs": [
        {
          "internalType": "bytes32",
          "name": "_swapID",
          "type": "bytes32"
        }
      ],
      "name": "refundFunds",
      "outputs": [],
      "stateMutability": "nonpayable",
      "type": "function"
    },
    {
      "inputs": [
        {
          "internalType": "bytes32",
          "name": "_swapID",
          "type": "bytes32"
        }
      ],
      "name": "getSwapInfo",
      "outputs": [
        {
          "internalType": "uint256",
          "name": "timelock",
          "type": "uint256"
        },
        {
          "internalType": "uint256",
          "name": "value",
          "type": "uint256"
        },
        {
          "internalType": "address",
          "name": "contractAddress",
          "type": "address"
        },
        {
          "internalType": "address",
          "name": "withdrawer",
          "type": "address"
        },
        {
          "internalType": "bytes32",
          "name": "secretLock",
          "type": "bytes32"
        }
      ],
      "stateMutability": "view",
      "type": "function"
    },
    {
      "inputs": [
        {
          "internalType": "bytes32",
          "name": "_swapID",
          "type": "bytes32"
        }
      ],
      "name": "getSecretKey",
      "outputs": [
        {
          "internalType": "bytes32",
          "name": "secretKey",
          "type": "bytes32"
        }
      ],
      "stateMutability": "view",
      "type": "function"
    }
  ],
  "bytecode": "0x608060405234801561001057600080fd5b50610f4d806100206000396000f3fe608060405234801561001057600080fd5b50600436106100575760003560e01c80632d0fc6b41461005c5780633269a9b614610089578063725095031461009e5780639fd70182146100b1578063fc443cd9146100c4575b600080fd5b61006f61006a366004610a3b565b6100e4565b604051610080959493929190610eeb565b60405180910390f35b61009c610097366004610a53565b610162565b005b61009c6100ac366004610a74565b6103dc565b61009c6100bf366004610a3b565b610710565b6100d76100d2366004610a3b565b61092c565b6040516100809190610b5a565b60008181526020818152604091829020825160e0810184528154808252600183015493820184905260028301546001600160a01b03908116958301959095526003830154851660608301819052600484015490951660808301819052600584015460a0840181905260069094015460c0909301929092529590929450565b81600160008281526001602052604090205460ff16600381111561019657634e487b7160e01b600052602160045260246000fd5b146101bc5760405162461bcd60e51b81526004016101b390610ea8565b60405180910390fd5b60008381526020818152604091829020600401549151859285926101ec9284926001600160a01b03169101610ae3565b60408051601f198184030181529181528151602092830120600085815292839052912060050154146102305760405162461bcd60e51b81526004016101b390610e08565b60008581526020819052604090206004015485906001600160a01b0316331461026b5760405162461bcd60e51b81526004016101b390610c2f565b600086815260208181526040808320815160e08101835281548152600180830154828601526002808401546001600160a01b03908116848701526003850154811660608501526004850154166080840152600584015460a08401526006909301805460c08401528c87528b905593849052919093208054919392909160ff19169083021790555060608101516080820151602083015160405163a9059cbb60e01b81526001600160a01b0384169263a9059cbb9261032b92600401610b41565b602060405180830381600087803b15801561034557600080fd5b505af1158015610359573d6000803e3d6000fd5b505050506040513d601f19601f8201168201806040525081019061037d9190610a14565b6103995760405162461bcd60e51b81526004016101b390610d68565b7f41e27b07030aa28d1c62c716585f04d3260fd3c1b2e747329ae1f203732004b588886040516103ca929190610b82565b60405180910390a15050505050505050565b856000808281526001602052604090205460ff16600381111561040f57634e487b7160e01b600052602160045260246000fd5b1461042c5760405162461bcd60e51b81526004016101b390610bed565b604051636eb1769f60e11b815285906001600160a01b0382169063dd62ed3e9061045c9033903090600401610b03565b60206040518083038186803b15801561047457600080fd5b505afa158015610488573d6000803e3d6000fd5b505050506040513d601f19601f820116820180604052508101906104ac9190610acb565b8711156104cb5760405162461bcd60e51b81526004016101b390610e4b565b6040516323b872dd60e01b81526001600160a01b038216906323b872dd906104fb90339030908c90600401610b1d565b602060405180830381600087803b15801561051557600080fd5b505af1158015610529573d6000803e3d6000fd5b505050506040513d601f19601f8201168201806040525081019061054d9190610a14565b6105695760405162461bcd60e51b81526004016101b390610b90565b60006040518060e00160405280858152602001898152602001336001600160a01b03168152602001886001600160a01b03168152602001876001600160a01b031681526020018681526020016000801b8152509050806000808b8152602001908152602001600020600082015181600001556020820151816001015560408201518160020160006101000a8154816001600160a01b0302191690836001600160a01b0316021790555060608201518160030160006101000a8154816001600160a01b0302191690836001600160a01b0316021790555060808201518160040160006101000a8154816001600160a01b0302191690836001600160a01b0316021790555060a0820151816005015560c0820151816006015590505060018060008b815260200190815260200160002060006101000a81548160ff021916908360038111156106c657634e487b7160e01b600052602160045260246000fd5b02179055507e1aedab88934e047ebb0abe9ec226ef7f63305ea1a61e2ec49230cae4414a2e8987876040516106fd93929190610b63565b60405180910390a1505050505050505050565b80600160008281526001602052604090205460ff16600381111561074457634e487b7160e01b600052602160045260246000fd5b146107615760405162461bcd60e51b81526004016101b390610ea8565b8161076a6109f4565b60008281526020819052604090205411156107975760405162461bcd60e51b81526004016101b390610cc7565b60008381526020819052604090206002015483906001600160a01b031633146107d25760405162461bcd60e51b81526004016101b390610c7c565b600084815260208181526040808320815160e0810183528154815260018083015482860190815260028401546001600160a01b0390811684870190815260038087015483166060870190815260048089015485166080890152600589015460a089015260069098015460c08801528e8b529490985297869020805460ff1916909717909655905195519051935163a9059cbb60e01b815291959485169363a9059cbb9361087f9301610b41565b602060405180830381600087803b15801561089957600080fd5b505af11580156108ad573d6000803e3d6000fd5b505050506040513d601f19601f820116820180604052508101906108d19190610a14565b6108ed5760405162461bcd60e51b81526004016101b390610d0b565b7f18ebe710226b6781b51c7cbba2305e730a5740b7427d6e6399107d0e14c745958660405161091c9190610b5a565b60405180910390a1505050505050565b600081600260008281526001602052604090205460ff16600381111561096257634e487b7160e01b600052602160045260246000fd5b1461097f5760405162461bcd60e51b81526004016101b390610dc5565b505060009081526020818152604091829020825160e0810184528154815260018201549281019290925260028101546001600160a01b039081169383019390935260038101548316606083015260048101549092166080820152600582015460a082015260069091015460c090910181905290565b4290565b80356001600160a01b0381168114610a0f57600080fd5b919050565b600060208284031215610a25578081fd5b81518015158114610a34578182fd5b9392505050565b600060208284031215610a4c578081fd5b5035919050565b60008060408385031215610a65578081fd5b50508035926020909101359150565b60008060008060008060c08789031215610a8c578182fd5b8635955060208701359450610aa3604088016109f8565b9350610ab1606088016109f8565b92506080870135915060a087013590509295509295509295565b600060208284031215610adc578081fd5b5051919050565b91825260601b6bffffffffffffffffffffffff1916602082015260340190565b6001600160a01b0392831681529116602082015260400190565b6001600160a01b039384168152919092166020820152604081019190915260600190565b6001600160a01b03929092168252602082015260400190565b90815260200190565b9283526001600160a01b03919091166020830152604082015260600190565b918252602082015260400190565b60208082526032908201527f41746f6d69635377617045524332302e63726561746550726f706f73616c3a2060408201527f5472616e73616374696f6e206661696c65640000000000000000000000000000606082015260800190565b60208082526022908201527f41746f6d69635377617045524332303a2053776170206974206e6f7420656d70604082015261747960f01b606082015260800190565b6020808252602d908201527f41746f6d69635377617045524332303a2043616c6c6572206973206e6f74207460408201526c3432903bb4ba34323930bbb2b960991b606082015260800190565b6020808252602b908201527f41746f6d69635377617045524332303a2043616c6c6572206973206e6f74207460408201526a343290383937b837b9b2b960a91b606082015260800190565b60208082526024908201527f41746f6d69635377617045524332303a2053776170206973206e6f74206578706040820152631a5c995960e21b606082015260800190565b6020808252602f908201527f41746f6d69635377617045524332302e726566756e6446756e64733a2054726160408201527f6e73616374696f6e206661696c65640000000000000000000000000000000000606082015260800190565b6020808252602e908201527f41746f6d69635377617045524332302e636c61696d46756e64733a205472616e60408201527f73616374696f6e206661696c6564000000000000000000000000000000000000606082015260800190565b60208082526023908201527f41746f6d69635377617045524332303a2053776170206973206e6f7420636c6f6040820152621cd95960ea1b606082015260800190565b60208082526023908201527f41746f6d69635377617045524332303a20496e76616c696420736563726574206040820152626b657960e81b606082015260800190565b6020808252603d908201527f41746f6d69635377617045524332302e63726561746550726f706f73616c3a2060408201527f43616c6c657220686173206e6f7420656e6f7567682062616c616e6365000000606082015260800190565b60208082526023908201527f41746f6d69635377617045524332303a2053776170206973206e6f74206f70656040820152621b995960ea1b606082015260800190565b94855260208501939093526001600160a01b039182166040850152166060830152608082015260a0019056fea2646970667358221220f75fcf1cbf66e521c60782fb9493b6a922e4fd7bb51461e8a2bd22a34a50751664736f6c63430008000033",
  "immutableReferences": {},
  "source": "// SPDX-License-Identifier: UNLICENSED\n\npragma solidity ^0.8.0;\n\nimport \"@openzeppelin/contracts/utils/Counters.sol\";\nimport \"@openzeppelin/contracts/token/ERC20/IERC20.sol\";\n\ncontract AtomicSwapERC20 {\n    struct Swap {\n        uint256 timelock;\n        uint256 value;\n        address proposer;\n        address contractAddress;\n        address withdrawer;\n        bytes32 secretLock;\n        bytes32 secretKey;\n    }\n\n    /**\n     * @dev Swap States\n     * EMPTY - Default Value\n     * OPEN - Created Proposal\n     * CLOSED - Claimed Funds\n     * EXPIRED - Refund Funds\n     */\n    enum States {EMPTY, OPEN, CLOSED, EXPIRED}\n\n    mapping(bytes32 => Swap) private swaps;\n    mapping(bytes32 => States) private swapStates;\n\n    event OpenProposal(\n        bytes32 _swapID,\n        address _withdrawer,\n        bytes32 _secretLock\n    );\n    event ExpireProposal(bytes32 _swapID);\n    event CloseProposal(bytes32 _swapID, bytes32 _secretKey);\n\n    modifier onlyEmptySwaps(bytes32 _swapID) {\n        require(\n            swapStates[_swapID] == States.EMPTY,\n            \"AtomicSwapERC20: Swap it not empty\"\n        );\n        _;\n    }\n\n    modifier onlyOpenSwaps(bytes32 _swapID) {\n        require(\n            swapStates[_swapID] == States.OPEN,\n            \"AtomicSwapERC20: Swap is not opened\"\n        );\n        _;\n    }\n\n    modifier onlyClosedSwaps(bytes32 _swapID) {\n        require(\n            swapStates[_swapID] == States.CLOSED,\n            \"AtomicSwapERC20: Swap is not closed\"\n        );\n        _;\n    }\n\n    modifier onlyExpirableSwaps(bytes32 _swapID) {\n        require(\n            swaps[_swapID].timelock <= _getNow(),\n            \"AtomicSwapERC20: Swap is not expired\"\n        );\n        _;\n    }\n\n    modifier onlyWithSecretKey(bytes32 _swapID, bytes32 _secretKey) {\n        // TODO: Require _secretKey length to conform to the spec\n        require(\n            swaps[_swapID].secretLock == keccak256(abi.encodePacked(_secretKey, swaps[_swapID].withdrawer)),\n            \"AtomicSwapERC20: Invalid secret key\"\n        );\n        _;\n    }\n\n    modifier onlyWithdrawer(bytes32 _swapID) {\n        require(\n            msg.sender == swaps[_swapID].withdrawer,\n            \"AtomicSwapERC20: Caller is not the withdrawer\"\n        );\n        _;\n    }\n\n    modifier onlyProposer(bytes32 _swapID) {\n        require(\n            msg.sender == swaps[_swapID].proposer,\n            \"AtomicSwapERC20: Caller is not the proposer\"\n        );\n        _;\n    }\n\n    function createProposal(\n        bytes32 _swapID,\n        uint256 _value,\n        address _contractAddress,\n        address _withdrawer,\n        bytes32 _secretLock,\n        uint256 _timelock\n    ) public onlyEmptySwaps(_swapID) {\n        // Transfer value from the token proposer to this contract.\n        IERC20 contractInstance = IERC20(_contractAddress);\n        require(\n            _value <= contractInstance.allowance(msg.sender, address(this)),\n            \"AtomicSwapERC20.createProposal: Caller has not enough balance\"\n        );\n        require(\n            contractInstance.transferFrom(msg.sender, address(this), _value),\n            \"AtomicSwapERC20.createProposal: Transaction failed\"\n        );\n\n        // Store the details of the swap.\n        Swap memory swap =\n        Swap({\n            timelock: _timelock,\n            value: _value,\n            proposer: msg.sender,\n            contractAddress: _contractAddress,\n            withdrawer: _withdrawer,\n            secretLock: _secretLock,\n            secretKey: 0\n        });\n        swaps[_swapID] = swap;\n        swapStates[_swapID] = States.OPEN;\n        emit OpenProposal(_swapID, _withdrawer, _secretLock);\n    }\n\n    function claimFunds(bytes32 _swapID, bytes32 _secretKey)\n        public\n        onlyOpenSwaps(_swapID)\n        onlyWithSecretKey(_swapID, _secretKey)\n        onlyWithdrawer(_swapID)\n    {\n        // Close the swap.\n        Swap memory swap = swaps[_swapID];\n        swaps[_swapID].secretKey = _secretKey;\n        swapStates[_swapID] = States.CLOSED;\n\n        // Transfer the funds from this contract to the withdrawer.\n        IERC20 contractInstance = IERC20(swap.contractAddress);\n        require(\n            contractInstance.transfer(swap.withdrawer, swap.value),\n            \"AtomicSwapERC20.claimFunds: Transaction failed\"\n        );\n\n        emit CloseProposal(_swapID, _secretKey);\n    }\n\n    function refundFunds(bytes32 _swapID)\n        public\n        onlyOpenSwaps(_swapID)\n        onlyExpirableSwaps(_swapID)\n        onlyProposer(_swapID)\n    {\n        // Expire the swap.\n        Swap memory swap = swaps[_swapID];\n        swapStates[_swapID] = States.EXPIRED;\n\n        // Transfer the token from this contract back to the proposer.\n        IERC20 contractInstance = IERC20(swap.contractAddress);\n        require(\n            contractInstance.transfer(swap.proposer, swap.value),\n            \"AtomicSwapERC20.refundFunds: Transaction failed\"\n        );\n\n        emit ExpireProposal(_swapID);\n    }\n\n    function getSwapInfo(bytes32 _swapID)\n        public\n        view\n        returns (\n        uint256 timelock,\n        uint256 value,\n        address contractAddress,\n        address withdrawer,\n        bytes32 secretLock\n        )\n    {\n        Swap memory swap = swaps[_swapID];\n        return (\n        swap.timelock,\n        swap.value,\n        swap.contractAddress,\n        swap.withdrawer,\n        swap.secretLock\n        );\n    }\n\n    function getSecretKey(bytes32 _swapID)\n        public\n        view\n        onlyClosedSwaps(_swapID)\n        returns (bytes32 secretKey)\n    {\n        Swap memory swap = swaps[_swapID];\n        return swap.secretKey;\n    }\n\n    function _getNow() internal view virtual returns (uint256) {\n        return block.timestamp;\n    }\n}\n\n",
  "sourcePath": "/Volumes/Workspace/PRIVI/PRIVIethereum/contracts/AtomicSwap/AtomicSwapERC20.sol",
  "compiler": {
    "name": "solc",
    "version": "0.8.0+commit.c7dfd78e.Emscripten.clang"
  },
  "schemaVersion": "3.3.4",
  "updatedAt": "2021-04-23T14:01:45.818Z",
  "devdoc": {
    "kind": "dev",
    "methods": {},
    "version": 1
  },
  "userdoc": {
    "kind": "user",
    "methods": {},
    "version": 1
  }
}