{
  "contractName": "AtomicSwapERC1155",
  "abi": [
    {
      "anonymous": false,
      "inputs": [
        {
          "indexed": false,
          "internalType": "bytes32",
          "name": "_swapID",
          "type": "bytes32"
        },
        {
          "indexed": false,
          "internalType": "bytes32",
          "name": "_secretKey",
          "type": "bytes32"
        }
      ],
      "name": "CloseProposal",
      "type": "event"
    },
    {
      "anonymous": false,
      "inputs": [
        {
          "indexed": false,
          "internalType": "bytes32",
          "name": "_swapID",
          "type": "bytes32"
        }
      ],
      "name": "ExpireProposal",
      "type": "event"
    },
    {
      "anonymous": false,
      "inputs": [
        {
          "indexed": false,
          "internalType": "bytes32",
          "name": "_swapID",
          "type": "bytes32"
        },
        {
          "indexed": false,
          "internalType": "address",
          "name": "_withdrawer",
          "type": "address"
        },
        {
          "indexed": false,
          "internalType": "bytes32",
          "name": "_secretLock",
          "type": "bytes32"
        }
      ],
      "name": "OpenProposal",
      "type": "event"
    },
    {
      "inputs": [
        {
          "internalType": "bytes4",
          "name": "interfaceId",
          "type": "bytes4"
        }
      ],
      "name": "supportsInterface",
      "outputs": [
        {
          "internalType": "bool",
          "name": "",
          "type": "bool"
        }
      ],
      "stateMutability": "view",
      "type": "function"
    },
    {
      "inputs": [
        {
          "internalType": "bytes32",
          "name": "_swapID",
          "type": "bytes32"
        },
        {
          "internalType": "uint256",
          "name": "_tokenId",
          "type": "uint256"
        },
        {
          "internalType": "uint256",
          "name": "_value",
          "type": "uint256"
        },
        {
          "internalType": "address",
          "name": "_contractAddress",
          "type": "address"
        },
        {
          "internalType": "address",
          "name": "_withdrawer",
          "type": "address"
        },
        {
          "internalType": "bytes32",
          "name": "_secretLock",
          "type": "bytes32"
        },
        {
          "internalType": "uint256",
          "name": "_timelock",
          "type": "uint256"
        }
      ],
      "name": "createProposal",
      "outputs": [],
      "stateMutability": "nonpayable",
      "type": "function"
    },
    {
      "inputs": [
        {
          "internalType": "bytes32",
          "name": "_swapID",
          "type": "bytes32"
        },
        {
          "internalType": "bytes32",
          "name": "_secretKey",
          "type": "bytes32"
        }
      ],
      "name": "claimFunds",
      "outputs": [],
      "stateMutability": "nonpayable",
      "type": "function"
    },
    {
      "inputs": [
        {
          "internalType": "bytes32",
          "name": "_swapID",
          "type": "bytes32"
        }
      ],
      "name": "refundFunds",
      "outputs": [],
      "stateMutability": "nonpayable",
      "type": "function"
    },
    {
      "inputs": [
        {
          "internalType": "bytes32",
          "name": "_swapID",
          "type": "bytes32"
        }
      ],
      "name": "getSwapInfo",
      "outputs": [
        {
          "internalType": "uint256",
          "name": "timelock",
          "type": "uint256"
        },
        {
          "internalType": "uint256",
          "name": "tokenId",
          "type": "uint256"
        },
        {
          "internalType": "uint256",
          "name": "value",
          "type": "uint256"
        },
        {
          "internalType": "address",
          "name": "contractAddress",
          "type": "address"
        },
        {
          "internalType": "address",
          "name": "withdrawer",
          "type": "address"
        },
        {
          "internalType": "bytes32",
          "name": "secretLock",
          "type": "bytes32"
        }
      ],
      "stateMutability": "view",
      "type": "function"
    },
    {
      "inputs": [
        {
          "internalType": "bytes32",
          "name": "_swapID",
          "type": "bytes32"
        }
      ],
      "name": "getSecretKey",
      "outputs": [
        {
          "internalType": "bytes32",
          "name": "secretKey",
          "type": "bytes32"
        }
      ],
      "stateMutability": "view",
      "type": "function"
    },
    {
      "inputs": [
        {
          "internalType": "address",
          "name": "",
          "type": "address"
        },
        {
          "internalType": "address",
          "name": "",
          "type": "address"
        },
        {
          "internalType": "uint256",
          "name": "",
          "type": "uint256"
        },
        {
          "internalType": "uint256",
          "name": "",
          "type": "uint256"
        },
        {
          "internalType": "bytes",
          "name": "",
          "type": "bytes"
        }
      ],
      "name": "onERC1155Received",
      "outputs": [
        {
          "internalType": "bytes4",
          "name": "",
          "type": "bytes4"
        }
      ],
      "stateMutability": "nonpayable",
      "type": "function"
    },
    {
      "inputs": [
        {
          "internalType": "address",
          "name": "",
          "type": "address"
        },
        {
          "internalType": "address",
          "name": "",
          "type": "address"
        },
        {
          "internalType": "uint256[]",
          "name": "",
          "type": "uint256[]"
        },
        {
          "internalType": "uint256[]",
          "name": "",
          "type": "uint256[]"
        },
        {
          "internalType": "bytes",
          "name": "",
          "type": "bytes"
        }
      ],
      "name": "onERC1155BatchReceived",
      "outputs": [
        {
          "internalType": "bytes4",
          "name": "",
          "type": "bytes4"
        }
      ],
      "stateMutability": "nonpayable",
      "type": "function"
    }
  ],
  "bytecode": "0x608060405234801561001057600080fd5b50611166806100206000396000f3fe608060405234801561001057600080fd5b50600436106100885760003560e01c8063bc197c811161005b578063bc197c8114610103578063ce03d4d014610123578063f23a6e6114610136578063fc443cd91461014957610088565b806301ffc9a71461008d5780632d0fc6b4146100b65780633269a9b6146100db5780639fd70182146100f0575b600080fd5b6100a061009b366004610d6a565b610169565b6040516100ad9190610e35565b60405180910390f35b6100c96100c4366004610ccf565b610183565b6040516100ad969594939291906110fc565b6100ee6100e9366004610ce7565b61020e565b005b6100ee6100fe366004610ccf565b61045e565b610116610111366004610b7b565b610650565b6040516100ad9190610e76565b6100ee610131366004610d08565b610664565b610116610144366004610c32565b6109f4565b61015c610157366004610ccf565b610a06565b6040516100ad9190610e40565b6001600160e01b031981166301ffc9a760e01b145b919050565b6000908152602081815260409182902082516101008101845281548082526001830154938201849052600283015494820185905260038301546001600160a01b0390811660608401526004840154811660808401819052600585015490911660a08401819052600685015460c0850181905260079095015460e0909401939093529095939493909290565b81600160008281526001602052604090205460ff16600381111561024257634e487b7160e01b600052602160045260246000fd5b146102685760405162461bcd60e51b815260040161025f90610ee8565b60405180910390fd5b60008381526020818152604091829020600501549151859285926102989284926001600160a01b03169101610daa565b60408051601f198184030181529181528151602092830120600085815292839052912060060154146102dc5760405162461bcd60e51b815260040161025f90610f73565b60008581526020819052604090206005015485906001600160a01b031633146103175760405162461bcd60e51b815260040161025f90610e8b565b60008681526020818152604080832081516101008101835281548152600180830154828601526002808401548386015260038401546001600160a01b03908116606085015260048501548116608085015260058501541660a0840152600684015460c08401526007909301805460e08401528c87528b905593849052919093208054919392909160ff191690830217905550608081015160a082015160208301516040808501519051637921219560e11b81526001600160a01b0385169363f242432a936103e9933093600401610de4565b600060405180830381600087803b15801561040357600080fd5b505af1158015610417573d6000803e3d6000fd5b505050507f41e27b07030aa28d1c62c716585f04d3260fd3c1b2e747329ae1f203732004b5888860405161044c929190610e68565b60405180910390a15050505050505050565b80600160008281526001602052604090205460ff16600381111561049257634e487b7160e01b600052602160045260246000fd5b146104af5760405162461bcd60e51b815260040161025f90610ee8565b816104b8610ad7565b60008281526020819052604090205411156104e55760405162461bcd60e51b815260040161025f90610f2d565b60008381526020819052604090206003015483906001600160a01b031633146105205760405162461bcd60e51b815260040161025f906110af565b6000848152602081815260408083208151610100810183528154815260018083015482860190815260028401548386019081526003808601546001600160a01b039081166060870190815260048089015483166080890190815260058a0154841660a08a015260068a015460c08a015260079099015460e08901528f8c529590995298879020805460ff1916909117905593519551905193519451637921219560e11b8152929686169463f242432a946105df94309491929101610de4565b600060405180830381600087803b1580156105f957600080fd5b505af115801561060d573d6000803e3d6000fd5b505050507f18ebe710226b6781b51c7cbba2305e730a5740b7427d6e6399107d0e14c74595866040516106409190610e40565b60405180910390a1505050505050565b63bc197c8160e01b98975050505050505050565b866000808281526001602052604090205460ff16600381111561069757634e487b7160e01b600052602160045260246000fd5b146106b45760405162461bcd60e51b815260040161025f9061106b565b604051627eeac760e11b8152859087906001600160a01b0383169062fdd58e906106e49033908d90600401610e1c565b60206040518083038186803b1580156106fc57600080fd5b505afa158015610710573d6000803e3d6000fd5b505050506040513d601f19601f820116820180604052508101906107349190610d92565b101580156107bb575060405163e985e9c560e01b81526001600160a01b0382169063e985e9c59061076b9033903090600401610dca565b60206040518083038186803b15801561078357600080fd5b505afa158015610797573d6000803e3d6000fd5b505050506040513d601f19601f820116820180604052508101906107bb9190610ca8565b6107d75760405162461bcd60e51b815260040161025f90610ffd565b604051637921219560e11b81526001600160a01b0382169063f242432a9061080990339030908d908d90600401610de4565b600060405180830381600087803b15801561082357600080fd5b505af1158015610837573d6000803e3d6000fd5b5050505060006040518061010001604052808581526020018a8152602001898152602001336001600160a01b03168152602001886001600160a01b03168152602001876001600160a01b031681526020018681526020016000801b8152509050806000808c815260200190815260200160002060008201518160000155602082015181600101556040820151816002015560608201518160030160006101000a8154816001600160a01b0302191690836001600160a01b0316021790555060808201518160040160006101000a8154816001600160a01b0302191690836001600160a01b0316021790555060a08201518160050160006101000a8154816001600160a01b0302191690836001600160a01b0316021790555060c0820151816006015560e0820151816007015590505060018060008c815260200190815260200160002060006101000a81548160ff021916908360038111156109a957634e487b7160e01b600052602160045260246000fd5b02179055507e1aedab88934e047ebb0abe9ec226ef7f63305ea1a61e2ec49230cae4414a2e8a87876040516109e093929190610e49565b60405180910390a150505050505050505050565b63f23a6e6160e01b9695505050505050565b600081600260008281526001602052604090205460ff166003811115610a3c57634e487b7160e01b600052602160045260246000fd5b14610a595760405162461bcd60e51b815260040161025f90610fb8565b5050600090815260208181526040918290208251610100810184528154815260018201549281019290925260028101549282019290925260038201546001600160a01b03908116606083015260048301548116608083015260058301541660a0820152600682015460c082015260079091015460e090910181905290565b4290565b80356001600160a01b038116811461017e57600080fd5b60008083601f840112610b03578182fd5b50813567ffffffffffffffff811115610b1a578182fd5b6020830191508360208083028501011115610b3457600080fd5b9250929050565b60008083601f840112610b4c578182fd5b50813567ffffffffffffffff811115610b63578182fd5b602083019150836020828501011115610b3457600080fd5b60008060008060008060008060a0898b031215610b96578384fd5b610b9f89610adb565b9750610bad60208a01610adb565b9650604089013567ffffffffffffffff80821115610bc9578586fd5b610bd58c838d01610af2565b909850965060608b0135915080821115610bed578586fd5b610bf98c838d01610af2565b909650945060808b0135915080821115610c11578384fd5b50610c1e8b828c01610b3b565b999c989b5096995094979396929594505050565b60008060008060008060a08789031215610c4a578182fd5b610c5387610adb565b9550610c6160208801610adb565b94506040870135935060608701359250608087013567ffffffffffffffff811115610c8a578283fd5b610c9689828a01610b3b565b979a9699509497509295939492505050565b600060208284031215610cb9578081fd5b81518015158114610cc8578182fd5b9392505050565b600060208284031215610ce0578081fd5b5035919050565b60008060408385031215610cf9578182fd5b50508035926020909101359150565b600080600080600080600060e0888a031215610d22578283fd5b873596506020880135955060408801359450610d4060608901610adb565b9350610d4e60808901610adb565b925060a0880135915060c0880135905092959891949750929550565b600060208284031215610d7b578081fd5b81356001600160e01b031981168114610cc8578182fd5b600060208284031215610da3578081fd5b5051919050565b91825260601b6bffffffffffffffffffffffff1916602082015260340190565b6001600160a01b0392831681529116602082015260400190565b6001600160a01b0394851681529290931660208301526040820152606081019190915260a06080820181905260009082015260c00190565b6001600160a01b03929092168252602082015260400190565b901515815260200190565b90815260200190565b9283526001600160a01b03919091166020830152604082015260600190565b918252602082015260400190565b6001600160e01b031991909116815260200190565b6020808252602f908201527f41746f6d696353776170455243313135353a2043616c6c6572206973206e6f7460408201527f2074686520776974686472617765720000000000000000000000000000000000606082015260800190565b60208082526025908201527f41746f6d696353776170455243313135353a2053776170206973206e6f74206f6040820152641c195b995960da1b606082015260800190565b60208082526026908201527f41746f6d696353776170455243313135353a2053776170206973206e6f7420656040820152651e1c1a5c995960d21b606082015260800190565b60208082526025908201527f41746f6d696353776170455243313135353a20496e76616c696420736563726560408201526474206b657960d81b606082015260800190565b60208082526025908201527f41746f6d696353776170455243313135353a2053776170206973206e6f7420636040820152641b1bdcd95960da1b606082015260800190565b60208082526048908201527f41746f6d696353776170455243313135352e63726561746550726f706f73616c60408201527f3a204e6f74206f776e657220616e64206f7220636f6e7472616374206e6f7420606082015267185c1c1c9bdd995960c21b608082015260a00190565b60208082526024908201527f41746f6d696353776170455243313135353a2053776170206974206e6f7420656040820152636d70747960e01b606082015260800190565b6020808252602d908201527f41746f6d696353776170455243313135353a2043616c6c6572206973206e6f7460408201526c103a343290383937b837b9b2b960991b606082015260800190565b958652602086019490945260408501929092526001600160a01b03908116606085015216608083015260a082015260c0019056fea2646970667358221220146f4ff63223b49418720215b1ae1948d74a8720f4dc400d1dcb12dad4794e5a64736f6c63430008000033",
  "immutableReferences": {},
  "source": "// SPDX-License-Identifier: UNLICENSED\n\npragma solidity ^0.8.0;\n\nimport \"@openzeppelin/contracts/utils/Counters.sol\";\nimport \"@openzeppelin/contracts/token/ERC1155/IERC1155.sol\";\nimport \"@openzeppelin/contracts/token/ERC1155/IERC1155Receiver.sol\";\nimport \"@openzeppelin/contracts/utils/introspection/ERC165.sol\";\n\ncontract AtomicSwapERC1155 is IERC1155Receiver, ERC165 {\n    struct Swap {\n        uint256 timelock;\n        uint256 tokenId;\n        uint256 value;\n        address proposer;\n        address contractAddress;\n        address withdrawer;\n        bytes32 secretLock;\n        bytes32 secretKey;\n    }\n\n    /**\n    * @dev Swap States\n    * EMPTY - Default Value\n    * OPEN - Created Proposal\n    * CLOSED - Claimed Funds\n    * EXPIRED - Refund Funds\n    */\n    enum States {EMPTY, OPEN, CLOSED, EXPIRED}\n\n    mapping(bytes32 => Swap) private swaps;\n    mapping(bytes32 => States) private swapStates;\n\n    event OpenProposal(\n        bytes32 _swapID,\n        address _withdrawer,\n        bytes32 _secretLock\n    );\n    event ExpireProposal(bytes32 _swapID);\n    event CloseProposal(bytes32 _swapID, bytes32 _secretKey);\n\n    modifier onlyEmptySwaps(bytes32 _swapID) {\n        require(\n            swapStates[_swapID] == States.EMPTY,\n            \"AtomicSwapERC1155: Swap it not empty\"\n        );\n        _;\n    }\n\n    modifier onlyOpenSwaps(bytes32 _swapID) {\n        require(\n        swapStates[_swapID] == States.OPEN,\n        \"AtomicSwapERC1155: Swap is not opened\"\n        );\n        _;\n    }\n\n    modifier onlyClosedSwaps(bytes32 _swapID) {\n        require(\n        swapStates[_swapID] == States.CLOSED,\n        \"AtomicSwapERC1155: Swap is not closed\"\n        );\n        _;\n    }\n\n    modifier onlyExpirableSwaps(bytes32 _swapID) {\n        require(\n        swaps[_swapID].timelock <= _getNow(),\n        \"AtomicSwapERC1155: Swap is not expired\"\n        );\n        _;\n    }\n\n    modifier onlyWithSecretKey(bytes32 _swapID, bytes32 _secretKey) {\n        // TODO: Require _secretKey length to conform to the spec\n        require(\n            swaps[_swapID].secretLock == keccak256(abi.encodePacked(_secretKey, swaps[_swapID].withdrawer)),\n            \"AtomicSwapERC1155: Invalid secret key\"\n        );\n        _;\n    }\n\n    modifier onlyWithdrawer(bytes32 _swapID) {\n        require(\n            msg.sender == swaps[_swapID].withdrawer,\n            \"AtomicSwapERC1155: Caller is not the withdrawer\"\n        );\n        _;\n    }\n\n    modifier onlyProposer(bytes32 _swapID) {\n        require(\n            msg.sender == swaps[_swapID].proposer,\n            \"AtomicSwapERC1155: Caller is not the proposer\"\n        );\n        _;\n    }\n\n    function createProposal(\n        bytes32 _swapID,\n        uint256 _tokenId,\n        uint256 _value,\n        address _contractAddress,\n        address _withdrawer,\n        bytes32 _secretLock,\n        uint256 _timelock\n    ) public onlyEmptySwaps(_swapID) {\n        // Transfer token from proposer to this contract.\n        IERC1155 contractInstance = IERC1155(_contractAddress);\n\n        // Check owner of the token is the caller and approved\n        require(\n        contractInstance.balanceOf(msg.sender, _tokenId) >= _value &&\n            contractInstance.isApprovedForAll(msg.sender, address(this)),\n        \"AtomicSwapERC1155.createProposal: Not owner and or contract not approved\"\n        );\n\n        contractInstance.safeTransferFrom(\n        msg.sender,\n            address(this),\n            _tokenId,\n            _value,\n            \"\"\n        );\n\n        // Store the details of the swap.\n        Swap memory swap =\n        Swap({\n            timelock: _timelock,\n            tokenId: _tokenId,\n            value: _value,\n            proposer: msg.sender,\n            contractAddress: _contractAddress,\n            withdrawer: _withdrawer,\n            secretLock: _secretLock,\n            secretKey: 0\n        });\n        swaps[_swapID] = swap;\n        swapStates[_swapID] = States.OPEN;\n        emit OpenProposal(_swapID, _withdrawer, _secretLock);\n    }\n\n    function claimFunds(bytes32 _swapID, bytes32 _secretKey)\n        public\n        onlyOpenSwaps(_swapID)\n        onlyWithSecretKey(_swapID, _secretKey)\n        onlyWithdrawer(_swapID)\n    {\n        // Close the swap.\n        Swap memory swap = swaps[_swapID];\n        swaps[_swapID].secretKey = _secretKey;\n        swapStates[_swapID] = States.CLOSED;\n\n        // Transfer the funds from this contract to the withdrawer.\n        IERC1155 contractInstance = IERC1155(swap.contractAddress);\n        contractInstance.safeTransferFrom(address(this), swap.withdrawer, swap.tokenId, swap.value, \"\");\n\n        emit CloseProposal(_swapID, _secretKey);\n    }\n\n    function refundFunds(bytes32 _swapID)\n        public\n        onlyOpenSwaps(_swapID)\n        onlyExpirableSwaps(_swapID)\n        onlyProposer(_swapID)\n    {\n        // Expire the swap.\n        Swap memory swap = swaps[_swapID];\n        swapStates[_swapID] = States.EXPIRED;\n\n        // Transfer the token from this contract back to the proposer.\n        IERC1155 contractInstance = IERC1155(swap.contractAddress); \n        contractInstance.safeTransferFrom(address(this), swap.proposer, swap.tokenId, swap.value, \"\");\n\n        emit ExpireProposal(_swapID);\n    }\n\n    function getSwapInfo(bytes32 _swapID)\n        public\n        view\n        returns (\n          uint256 timelock,\n          uint256 tokenId,\n          uint256 value,\n          address contractAddress,\n          address withdrawer,\n          bytes32 secretLock\n        )\n    {\n        Swap memory swap = swaps[_swapID];\n        return (\n        swap.timelock,\n        swap.tokenId,\n        swap.value,\n        swap.contractAddress,\n        swap.withdrawer,\n        swap.secretLock\n        );\n    }\n\n    function getSecretKey(bytes32 _swapID)\n        public\n        view\n        onlyClosedSwaps(_swapID)\n        returns (bytes32 secretKey)\n    {\n        Swap memory swap = swaps[_swapID];\n        return swap.secretKey;\n    }\n\n    function _getNow() internal view virtual returns (uint256) {\n        return block.timestamp;\n    }\n\n    function onERC1155Received(\n        address,\n        address,\n        uint256,\n        uint256,\n        bytes calldata\n    )\n    public\n    virtual\n    override\n    returns(bytes4)\n    {\n        return this.onERC1155Received.selector;\n    }\n\n    function onERC1155BatchReceived(\n        address,\n        address,\n        uint256[] calldata,\n        uint256[] calldata,\n        bytes calldata\n    )\n    public\n    virtual\n    override\n    returns(bytes4)\n    {\n        return this.onERC1155BatchReceived.selector;\n    }\n}\n",
  "sourcePath": "/Volumes/Workspace/PRIVI/PRIVIethereum/contracts/AtomicSwap/AtomicSwapERC1155.sol",
  "compiler": {
    "name": "solc",
    "version": "0.8.0+commit.c7dfd78e.Emscripten.clang"
  },
  "schemaVersion": "3.3.4",
  "updatedAt": "2021-04-23T14:01:45.720Z",
  "devdoc": {
    "kind": "dev",
    "methods": {
      "supportsInterface(bytes4)": {
        "details": "See {IERC165-supportsInterface}."
      }
    },
    "version": 1
  },
  "userdoc": {
    "kind": "user",
    "methods": {},
    "version": 1
  }
}