{
  "contractName": "AtomicSwapERC721",
  "abi": [
    {
      "anonymous": false,
      "inputs": [
        {
          "indexed": false,
          "internalType": "bytes32",
          "name": "_swapID",
          "type": "bytes32"
        },
        {
          "indexed": false,
          "internalType": "bytes32",
          "name": "_secretKey",
          "type": "bytes32"
        }
      ],
      "name": "CloseProposal",
      "type": "event"
    },
    {
      "anonymous": false,
      "inputs": [
        {
          "indexed": false,
          "internalType": "bytes32",
          "name": "_swapID",
          "type": "bytes32"
        }
      ],
      "name": "ExpireProposal",
      "type": "event"
    },
    {
      "anonymous": false,
      "inputs": [
        {
          "indexed": false,
          "internalType": "bytes32",
          "name": "_swapID",
          "type": "bytes32"
        },
        {
          "indexed": false,
          "internalType": "address",
          "name": "_withdrawer",
          "type": "address"
        },
        {
          "indexed": false,
          "internalType": "bytes32",
          "name": "_secretLock",
          "type": "bytes32"
        }
      ],
      "name": "OpenProposal",
      "type": "event"
    },
    {
      "inputs": [
        {
          "internalType": "bytes32",
          "name": "_swapID",
          "type": "bytes32"
        },
        {
          "internalType": "uint256",
          "name": "_tokenId",
          "type": "uint256"
        },
        {
          "internalType": "address",
          "name": "_contractAddress",
          "type": "address"
        },
        {
          "internalType": "address",
          "name": "_withdrawer",
          "type": "address"
        },
        {
          "internalType": "bytes32",
          "name": "_secretLock",
          "type": "bytes32"
        },
        {
          "internalType": "uint256",
          "name": "_timelock",
          "type": "uint256"
        }
      ],
      "name": "createProposal",
      "outputs": [],
      "stateMutability": "nonpayable",
      "type": "function"
    },
    {
      "inputs": [
        {
          "internalType": "bytes32",
          "name": "_swapID",
          "type": "bytes32"
        },
        {
          "internalType": "bytes32",
          "name": "_secretKey",
          "type": "bytes32"
        }
      ],
      "name": "claimFunds",
      "outputs": [],
      "stateMutability": "nonpayable",
      "type": "function"
    },
    {
      "inputs": [
        {
          "internalType": "bytes32",
          "name": "_swapID",
          "type": "bytes32"
        }
      ],
      "name": "refundFunds",
      "outputs": [],
      "stateMutability": "nonpayable",
      "type": "function"
    },
    {
      "inputs": [
        {
          "internalType": "bytes32",
          "name": "_swapID",
          "type": "bytes32"
        }
      ],
      "name": "getSwapInfo",
      "outputs": [
        {
          "internalType": "uint256",
          "name": "timelock",
          "type": "uint256"
        },
        {
          "internalType": "uint256",
          "name": "tokenId",
          "type": "uint256"
        },
        {
          "internalType": "address",
          "name": "contractAddress",
          "type": "address"
        },
        {
          "internalType": "address",
          "name": "withdrawer",
          "type": "address"
        },
        {
          "internalType": "bytes32",
          "name": "secretLock",
          "type": "bytes32"
        }
      ],
      "stateMutability": "view",
      "type": "function"
    },
    {
      "inputs": [
        {
          "internalType": "bytes32",
          "name": "_swapID",
          "type": "bytes32"
        }
      ],
      "name": "getSecretKey",
      "outputs": [
        {
          "internalType": "bytes32",
          "name": "secretKey",
          "type": "bytes32"
        }
      ],
      "stateMutability": "view",
      "type": "function"
    },
    {
      "inputs": [
        {
          "internalType": "address",
          "name": "",
          "type": "address"
        },
        {
          "internalType": "address",
          "name": "",
          "type": "address"
        },
        {
          "internalType": "uint256",
          "name": "",
          "type": "uint256"
        },
        {
          "internalType": "bytes",
          "name": "",
          "type": "bytes"
        }
      ],
      "name": "onERC721Received",
      "outputs": [
        {
          "internalType": "bytes4",
          "name": "",
          "type": "bytes4"
        }
      ],
      "stateMutability": "nonpayable",
      "type": "function"
    }
  ],
  "bytecode": "0x608060405234801561001057600080fd5b50610f75806100206000396000f3fe608060405234801561001057600080fd5b50600436106100725760003560e01c8063725095031161005057806372509503146100d95780639fd70182146100ec578063fc443cd9146100ff57610072565b8063150b7a02146100775780632d0fc6b4146100a05780633269a9b6146100c4575b600080fd5b61008a610085366004610a46565b61011f565b6040516100979190610c5e565b60405180910390f35b6100b36100ae366004610b36565b61012f565b604051610097959493929190610ee5565b6100d76100d2366004610b4e565b6101ad565b005b6100d76100e7366004610b6f565b6103ef565b6100d76100fa366004610b36565b610773565b61011261010d366004610b36565b610957565b6040516100979190610c28565b630a85bd0160e11b949350505050565b60008181526020818152604091829020825160e0810184528154808252600183015493820184905260028301546001600160a01b03908116958301959095526003830154851660608301819052600484015490951660808301819052600584015460a0840181905260069094015460c0909301929092529590929450565b81600160008281526001602052604090205460ff1660038111156101e157634e487b7160e01b600052602160045260246000fd5b146102075760405162461bcd60e51b81526004016101fe90610dbd565b60405180910390fd5b60008381526020818152604091829020600401549151859285926102379284926001600160a01b03169101610bca565b60408051601f1981840301815291815281516020928301206000858152928390529120600501541461027b5760405162461bcd60e51b81526004016101fe90610ea1565b60008581526020819052604090206004015485906001600160a01b031633146102b65760405162461bcd60e51b81526004016101fe90610e01565b600086815260208181526040808320815160e08101835281548152600180830154828601526002808401546001600160a01b03908116848701526003850154811660608501526004850154166080840152600584015460a08401526006909301805460c08401528c87528b905593849052919093208054919392909160ff191690830217905550606081015160808201516020830151604051632142170760e11b81526001600160a01b038416926342842e0e9261037a9230929190600401610c04565b600060405180830381600087803b15801561039457600080fd5b505af11580156103a8573d6000803e3d6000fd5b505050507f41e27b07030aa28d1c62c716585f04d3260fd3c1b2e747329ae1f203732004b588886040516103dd929190610c50565b60405180910390a15050505050505050565b856000808281526001602052604090205460ff16600381111561042257634e487b7160e01b600052602160045260246000fd5b1461043f5760405162461bcd60e51b81526004016101fe90610e5e565b6040516331a9108f60e11b8152859033906001600160a01b03831690636352211e9061046f908b90600401610c28565b60206040518083038186803b15801561048757600080fd5b505afa15801561049b573d6000803e3d6000fd5b505050506040513d601f19601f820116820180604052508101906104bf9190610a23565b6001600160a01b031614801561054e575060405163e985e9c560e01b81526001600160a01b0382169063e985e9c5906104fe9033903090600401610bea565b60206040518083038186803b15801561051657600080fd5b505afa15801561052a573d6000803e3d6000fd5b505050506040513d601f19601f8201168201806040525081019061054e9190610b16565b61056a5760405162461bcd60e51b81526004016101fe90610d60565b604051632142170760e11b81526001600160a01b038216906342842e0e9061059a90339030908c90600401610c04565b600060405180830381600087803b1580156105b457600080fd5b505af11580156105c8573d6000803e3d6000fd5b5050505060006040518060e00160405280858152602001898152602001336001600160a01b03168152602001886001600160a01b03168152602001876001600160a01b031681526020018681526020016000801b8152509050806000808b8152602001908152602001600020600082015181600001556020820151816001015560408201518160020160006101000a8154816001600160a01b0302191690836001600160a01b0316021790555060608201518160030160006101000a8154816001600160a01b0302191690836001600160a01b0316021790555060808201518160040160006101000a8154816001600160a01b0302191690836001600160a01b0316021790555060a0820151816005015560c0820151816006015590505060018060008b815260200190815260200160002060006101000a81548160ff0219169083600381111561072957634e487b7160e01b600052602160045260246000fd5b02179055507e1aedab88934e047ebb0abe9ec226ef7f63305ea1a61e2ec49230cae4414a2e89878760405161076093929190610c31565b60405180910390a1505050505050505050565b80600160008281526001602052604090205460ff1660038111156107a757634e487b7160e01b600052602160045260246000fd5b146107c45760405162461bcd60e51b81526004016101fe90610dbd565b816107cd610a1f565b60008281526020819052604090205411156107fa5760405162461bcd60e51b81526004016101fe90610c8b565b60008381526020819052604090206002015483906001600160a01b031633146108355760405162461bcd60e51b81526004016101fe90610d14565b600084815260208181526040808320815160e0810183528154815260018083015482860190815260028401546001600160a01b0390811684870190815260038087015483166060870190815260048089015485166080890152600589015460a089015260069098015460c08801528e8b529490985297869020805460ff19169097179096559051955190519351632142170760e11b81529195948516936342842e0e936108e6933093929101610c04565b600060405180830381600087803b15801561090057600080fd5b505af1158015610914573d6000803e3d6000fd5b505050507f18ebe710226b6781b51c7cbba2305e730a5740b7427d6e6399107d0e14c74595866040516109479190610c28565b60405180910390a1505050505050565b600081600260008281526001602052604090205460ff16600381111561098d57634e487b7160e01b600052602160045260246000fd5b146109aa5760405162461bcd60e51b81526004016101fe90610cd0565b505060009081526020818152604091829020825160e0810184528154815260018201549281019290925260028101546001600160a01b039081169383019390935260038101548316606083015260048101549092166080820152600582015460a082015260069091015460c090910181905290565b4290565b600060208284031215610a34578081fd5b8151610a3f81610f27565b9392505050565b60008060008060808587031215610a5b578283fd5b8435610a6681610f27565b9350602085810135610a7781610f27565b935060408601359250606086013567ffffffffffffffff80821115610a9a578384fd5b818801915088601f830112610aad578384fd5b813581811115610abf57610abf610f11565b604051601f8201601f1916810185018381118282101715610ae257610ae2610f11565b60405281815283820185018b1015610af8578586fd5b81858501868301379081019093019390935250939692955090935050565b600060208284031215610b27578081fd5b81518015158114610a3f578182fd5b600060208284031215610b47578081fd5b5035919050565b60008060408385031215610b60578182fd5b50508035926020909101359150565b60008060008060008060c08789031215610b87578182fd5b86359550602087013594506040870135610ba081610f27565b93506060870135610bb081610f27565b9598949750929560808101359460a0909101359350915050565b91825260601b6bffffffffffffffffffffffff1916602082015260340190565b6001600160a01b0392831681529116602082015260400190565b6001600160a01b039384168152919092166020820152604081019190915260600190565b90815260200190565b9283526001600160a01b03919091166020830152604082015260600190565b918252602082015260400190565b7fffffffff0000000000000000000000000000000000000000000000000000000091909116815260200190565b60208082526025908201527f41746f6d6963537761704552433732313a2053776170206973206e6f742065786040820152641c1a5c995960da1b606082015260800190565b60208082526024908201527f41746f6d6963537761704552433732313a2053776170206973206e6f7420636c6040820152631bdcd95960e21b606082015260800190565b6020808252602c908201527f41746f6d6963537761704552433732313a2043616c6c6572206973206e6f742060408201526b3a343290383937b837b9b2b960a11b606082015260800190565b6020808252603d908201527f41756374696f6e2e63726561746541756374696f6e3a204e6f74206f776e657260408201527f20616e64206f7220636f6e7472616374206e6f7420617070726f766564000000606082015260800190565b60208082526024908201527f41746f6d6963537761704552433732313a2053776170206973206e6f74206f70604082015263195b995960e21b606082015260800190565b6020808252602e908201527f41746f6d6963537761704552433732313a2043616c6c6572206973206e6f742060408201527f7468652077697468647261776572000000000000000000000000000000000000606082015260800190565b60208082526023908201527f41746f6d6963537761704552433732313a2053776170206974206e6f7420656d60408201526270747960e81b606082015260800190565b60208082526024908201527f41746f6d6963537761704552433732313a20496e76616c696420736563726574604082015263206b657960e01b606082015260800190565b94855260208501939093526001600160a01b039182166040850152166060830152608082015260a00190565b634e487b7160e01b600052604160045260246000fd5b6001600160a01b0381168114610f3c57600080fd5b5056fea2646970667358221220a653f5ccfeaf67fd919755e6f584627db2d85b7fe929e78ce3296b9e7b5fad8764736f6c63430008000033",
  "immutableReferences": {},
  "source": "// SPDX-License-Identifier: UNLICENSED\n\npragma solidity ^0.8.0;\n\nimport \"@openzeppelin/contracts/utils/Counters.sol\";\nimport \"@openzeppelin/contracts/token/ERC721/IERC721.sol\";\nimport \"@openzeppelin/contracts/token/ERC721/IERC721Receiver.sol\";\n\ncontract AtomicSwapERC721 is IERC721Receiver {\n    struct Swap {\n        uint256 timelock;\n        uint256 tokenId;\n        address proposer;\n        address contractAddress;\n        address withdrawer;\n        bytes32 secretLock;\n        bytes32 secretKey;\n    }\n\n    /**\n     * @dev Swap States\n     * EMPTY - Default Value\n     * OPEN - Created Proposal\n     * CLOSED - Claimed Funds\n     * EXPIRED - Refund Funds\n     */\n    enum States {EMPTY, OPEN, CLOSED, EXPIRED}\n\n    mapping(bytes32 => Swap) private swaps;\n    mapping(bytes32 => States) private swapStates;\n\n    event OpenProposal(\n        bytes32 _swapID,\n        address _withdrawer,\n        bytes32 _secretLock\n    );\n    event ExpireProposal(bytes32 _swapID);\n    event CloseProposal(bytes32 _swapID, bytes32 _secretKey);\n\n    modifier onlyEmptySwaps(bytes32 _swapID) {\n        require(\n            swapStates[_swapID] == States.EMPTY,\n            \"AtomicSwapERC721: Swap it not empty\"\n        );\n        _;\n    }\n\n    modifier onlyOpenSwaps(bytes32 _swapID) {\n        require(\n            swapStates[_swapID] == States.OPEN,\n            \"AtomicSwapERC721: Swap is not opened\"\n        );\n        _;\n    }\n\n    modifier onlyClosedSwaps(bytes32 _swapID) {\n        require(\n            swapStates[_swapID] == States.CLOSED,\n            \"AtomicSwapERC721: Swap is not closed\"\n        );\n        _;\n    }\n\n    modifier onlyExpirableSwaps(bytes32 _swapID) {\n        require(\n            swaps[_swapID].timelock <= _getNow(),\n            \"AtomicSwapERC721: Swap is not expired\"\n        );\n        _;\n    }\n\n    modifier onlyWithSecretKey(bytes32 _swapID, bytes32 _secretKey) {\n        // TODO: Require _secretKey length to conform to the spec\n        require(\n            swaps[_swapID].secretLock == keccak256(abi.encodePacked(_secretKey, swaps[_swapID].withdrawer)),\n            \"AtomicSwapERC721: Invalid secret key\"\n        );\n        _;\n    }\n\n    modifier onlyWithdrawer(bytes32 _swapID) {\n        require(\n            msg.sender == swaps[_swapID].withdrawer,\n            \"AtomicSwapERC721: Caller is not the withdrawer\"\n        );\n        _;\n    }\n\n    modifier onlyProposer(bytes32 _swapID) {\n        require(\n            msg.sender == swaps[_swapID].proposer,\n            \"AtomicSwapERC721: Caller is not the proposer\"\n        );\n        _;\n    }\n\n    function createProposal(\n        bytes32 _swapID,\n        uint256 _tokenId,\n        address _contractAddress,\n        address _withdrawer,\n        bytes32 _secretLock,\n        uint256 _timelock\n    ) external onlyEmptySwaps(_swapID) {\n        // Transfer token from proposer to this contract.\n        IERC721 contractInstance = IERC721(_contractAddress);\n\n        // Check owner of the token is the caller and approved\n        require(\n            contractInstance.ownerOf(_tokenId) == msg.sender && contractInstance.isApprovedForAll(msg.sender, address(this)),\n            \"Auction.createAuction: Not owner and or contract not approved\"\n        );\n\n        contractInstance.safeTransferFrom(msg.sender, address(this), _tokenId);\n\n        // Store the details of the swap.\n        Swap memory swap =\n        Swap({\n            timelock: _timelock,\n            tokenId: _tokenId,\n            proposer: msg.sender,\n            contractAddress: _contractAddress,\n            withdrawer: _withdrawer,\n            secretLock: _secretLock,\n            secretKey: 0\n        });\n        swaps[_swapID] = swap;\n        swapStates[_swapID] = States.OPEN;\n        emit OpenProposal(_swapID, _withdrawer, _secretLock);\n    }\n\n    function claimFunds(bytes32 _swapID, bytes32 _secretKey)\n        public\n        onlyOpenSwaps(_swapID)\n        onlyWithSecretKey(_swapID, _secretKey)\n        onlyWithdrawer(_swapID)\n    {\n        // Close the swap.\n        Swap memory swap = swaps[_swapID];\n        swaps[_swapID].secretKey = _secretKey;\n        swapStates[_swapID] = States.CLOSED;\n\n        // Transfer the funds from this contract to the withdrawer.\n        IERC721 contractInstance = IERC721(swap.contractAddress);\n        contractInstance.safeTransferFrom(address(this), swap.withdrawer, swap.tokenId);\n\n        emit CloseProposal(_swapID, _secretKey);\n    }\n\n    function refundFunds(bytes32 _swapID)\n        public\n        onlyOpenSwaps(_swapID)\n        onlyExpirableSwaps(_swapID)\n        onlyProposer(_swapID)\n    {\n        // Expire the swap.\n        Swap memory swap = swaps[_swapID];\n        swapStates[_swapID] = States.EXPIRED;\n\n        // Transfer the token from this contract back to the proposer.\n        IERC721 contractInstance = IERC721(swap.contractAddress);\n        contractInstance.safeTransferFrom(address(this), swap.proposer, swap.tokenId);\n\n        emit ExpireProposal(_swapID);\n    }\n\n    function getSwapInfo(bytes32 _swapID)\n        public\n        view\n        returns (\n        uint256 timelock,\n        uint256 tokenId,\n        address contractAddress,\n        address withdrawer,\n        bytes32 secretLock\n        )\n    {\n        Swap memory swap = swaps[_swapID];\n        return (\n        swap.timelock,\n        swap.tokenId,\n        swap.contractAddress,\n        swap.withdrawer,\n        swap.secretLock\n        );\n    }\n\n    function getSecretKey(bytes32 _swapID)\n        public\n        view\n        onlyClosedSwaps(_swapID)\n        returns (bytes32 secretKey)\n    {\n        Swap memory swap = swaps[_swapID];\n        return swap.secretKey;\n    }\n\n    function _getNow() internal view virtual returns (uint256) {\n        return block.timestamp;\n    }\n\n    function onERC721Received(address, address, uint256, bytes memory) public virtual override returns (bytes4) {\n        return this.onERC721Received.selector;\n    }\n}\n",
  "sourcePath": "/Volumes/Workspace/PRIVI/PRIVIethereum/contracts/AtomicSwap/AtomicSwapERC721.sol",
  "compiler": {
    "name": "solc",
    "version": "0.8.0+commit.c7dfd78e.Emscripten.clang"
  },
  "schemaVersion": "3.3.4",
  "updatedAt": "2021-04-23T14:01:45.918Z",
  "devdoc": {
    "kind": "dev",
    "methods": {},
    "version": 1
  },
  "userdoc": {
    "kind": "user",
    "methods": {},
    "version": 1
  }
}