{
  "contractName": "ERC1155Holder",
  "abi": [
    {
      "inputs": [
        {
          "internalType": "bytes4",
          "name": "interfaceId",
          "type": "bytes4"
        }
      ],
      "name": "supportsInterface",
      "outputs": [
        {
          "internalType": "bool",
          "name": "",
          "type": "bool"
        }
      ],
      "stateMutability": "view",
      "type": "function"
    },
    {
      "inputs": [
        {
          "internalType": "address",
          "name": "",
          "type": "address"
        },
        {
          "internalType": "address",
          "name": "",
          "type": "address"
        },
        {
          "internalType": "uint256",
          "name": "",
          "type": "uint256"
        },
        {
          "internalType": "uint256",
          "name": "",
          "type": "uint256"
        },
        {
          "internalType": "bytes",
          "name": "",
          "type": "bytes"
        }
      ],
      "name": "onERC1155Received",
      "outputs": [
        {
          "internalType": "bytes4",
          "name": "",
          "type": "bytes4"
        }
      ],
      "stateMutability": "nonpayable",
      "type": "function"
    },
    {
      "inputs": [
        {
          "internalType": "address",
          "name": "",
          "type": "address"
        },
        {
          "internalType": "address",
          "name": "",
          "type": "address"
        },
        {
          "internalType": "uint256[]",
          "name": "",
          "type": "uint256[]"
        },
        {
          "internalType": "uint256[]",
          "name": "",
          "type": "uint256[]"
        },
        {
          "internalType": "bytes",
          "name": "",
          "type": "bytes"
        }
      ],
      "name": "onERC1155BatchReceived",
      "outputs": [
        {
          "internalType": "bytes4",
          "name": "",
          "type": "bytes4"
        }
      ],
      "stateMutability": "nonpayable",
      "type": "function"
    }
  ],
  "bytecode": "0x608060405234801561001057600080fd5b506103e9806100206000396000f3fe608060405234801561001057600080fd5b50600436106100415760003560e01c806301ffc9a714610046578063bc197c811461006f578063f23a6e611461008f575b600080fd5b610059610054366004610324565b6100a2565b6040516100669190610353565b60405180910390f35b61008261007d36600461021b565b6100cf565b604051610066919061035e565b61008261009d3660046102c1565b6100e0565b60006001600160e01b03198216630271189760e51b14806100c757506100c7826100f1565b90505b919050565b63bc197c8160e01b95945050505050565b63f23a6e6160e01b95945050505050565b6001600160e01b031981166301ffc9a760e01b14919050565b803573ffffffffffffffffffffffffffffffffffffffff811681146100ca57600080fd5b600082601f83011261013e578081fd5b8135602067ffffffffffffffff82111561015a5761015a61039d565b808202610168828201610373565b838152828101908684018388018501891015610182578687fd5b8693505b858410156101a4578035835260019390930192918401918401610186565b50979650505050505050565b600082601f8301126101c0578081fd5b813567ffffffffffffffff8111156101da576101da61039d565b6101ed601f8201601f1916602001610373565b818152846020838601011115610201578283fd5b816020850160208301379081016020019190915292915050565b600080600080600060a08688031215610232578081fd5b61023b8661010a565b94506102496020870161010a565b9350604086013567ffffffffffffffff80821115610265578283fd5b61027189838a0161012e565b94506060880135915080821115610286578283fd5b61029289838a0161012e565b935060808801359150808211156102a7578283fd5b506102b4888289016101b0565b9150509295509295909350565b600080600080600060a086880312156102d8578081fd5b6102e18661010a565b94506102ef6020870161010a565b93506040860135925060608601359150608086013567ffffffffffffffff811115610318578182fd5b6102b4888289016101b0565b600060208284031215610335578081fd5b81356001600160e01b03198116811461034c578182fd5b9392505050565b901515815260200190565b6001600160e01b031991909116815260200190565b60405181810167ffffffffffffffff811182821017156103955761039561039d565b604052919050565b634e487b7160e01b600052604160045260246000fdfea26469706673582212206ea56aa640e393cf6daaacd022fc67ee73b18a1c1f30efebc2cff53fb52a653c64736f6c63430008000033",
  "immutableReferences": {},
  "source": "// SPDX-License-Identifier: MIT\n\npragma solidity ^0.8.0;\n\nimport \"./ERC1155Receiver.sol\";\n\n/**\n * @dev _Available since v3.1._\n */\ncontract ERC1155Holder is ERC1155Receiver {\n    function onERC1155Received(address, address, uint256, uint256, bytes memory) public virtual override returns (bytes4) {\n        return this.onERC1155Received.selector;\n    }\n\n    function onERC1155BatchReceived(address, address, uint256[] memory, uint256[] memory, bytes memory) public virtual override returns (bytes4) {\n        return this.onERC1155BatchReceived.selector;\n    }\n}\n",
  "sourcePath": "@openzeppelin/contracts/token/ERC1155/utils/ERC1155Holder.sol",
  "compiler": {
    "name": "solc",
    "version": "0.8.0+commit.c7dfd78e.Emscripten.clang"
  },
  "schemaVersion": "3.3.4",
  "updatedAt": "2021-04-23T14:01:47.621Z",
  "devdoc": {
    "details": "_Available since v3.1._",
    "kind": "dev",
    "methods": {
      "supportsInterface(bytes4)": {
        "details": "See {IERC165-supportsInterface}."
      }
    },
    "version": 1
  },
  "userdoc": {
    "kind": "user",
    "methods": {},
    "version": 1
  }
}