{
  "contractName": "FakePrivi",
  "abi": [
    {
      "inputs": [
        {
          "internalType": "address",
          "name": "swapManagerAddress",
          "type": "address"
        }
      ],
      "stateMutability": "nonpayable",
      "type": "constructor"
    },
    {
      "anonymous": false,
      "inputs": [
        {
          "indexed": true,
          "internalType": "address",
          "name": "owner",
          "type": "address"
        },
        {
          "indexed": true,
          "internalType": "address",
          "name": "spender",
          "type": "address"
        },
        {
          "indexed": false,
          "internalType": "uint256",
          "name": "value",
          "type": "uint256"
        }
      ],
      "name": "Approval",
      "type": "event"
    },
    {
      "anonymous": false,
      "inputs": [
        {
          "indexed": true,
          "internalType": "bytes32",
          "name": "role",
          "type": "bytes32"
        },
        {
          "indexed": true,
          "internalType": "bytes32",
          "name": "previousAdminRole",
          "type": "bytes32"
        },
        {
          "indexed": true,
          "internalType": "bytes32",
          "name": "newAdminRole",
          "type": "bytes32"
        }
      ],
      "name": "RoleAdminChanged",
      "type": "event"
    },
    {
      "anonymous": false,
      "inputs": [
        {
          "indexed": true,
          "internalType": "bytes32",
          "name": "role",
          "type": "bytes32"
        },
        {
          "indexed": true,
          "internalType": "address",
          "name": "account",
          "type": "address"
        },
        {
          "indexed": true,
          "internalType": "address",
          "name": "sender",
          "type": "address"
        }
      ],
      "name": "RoleGranted",
      "type": "event"
    },
    {
      "anonymous": false,
      "inputs": [
        {
          "indexed": true,
          "internalType": "bytes32",
          "name": "role",
          "type": "bytes32"
        },
        {
          "indexed": true,
          "internalType": "address",
          "name": "account",
          "type": "address"
        },
        {
          "indexed": true,
          "internalType": "address",
          "name": "sender",
          "type": "address"
        }
      ],
      "name": "RoleRevoked",
      "type": "event"
    },
    {
      "anonymous": false,
      "inputs": [
        {
          "indexed": true,
          "internalType": "address",
          "name": "from",
          "type": "address"
        },
        {
          "indexed": true,
          "internalType": "address",
          "name": "to",
          "type": "address"
        },
        {
          "indexed": false,
          "internalType": "uint256",
          "name": "value",
          "type": "uint256"
        }
      ],
      "name": "Transfer",
      "type": "event"
    },
    {
      "inputs": [],
      "name": "DEFAULT_ADMIN_ROLE",
      "outputs": [
        {
          "internalType": "bytes32",
          "name": "",
          "type": "bytes32"
        }
      ],
      "stateMutability": "view",
      "type": "function"
    },
    {
      "inputs": [],
      "name": "NO_LIMIT_ROLE",
      "outputs": [
        {
          "internalType": "bytes32",
          "name": "",
          "type": "bytes32"
        }
      ],
      "stateMutability": "view",
      "type": "function"
    },
    {
      "inputs": [
        {
          "internalType": "address",
          "name": "owner",
          "type": "address"
        },
        {
          "internalType": "address",
          "name": "spender",
          "type": "address"
        }
      ],
      "name": "allowance",
      "outputs": [
        {
          "internalType": "uint256",
          "name": "",
          "type": "uint256"
        }
      ],
      "stateMutability": "view",
      "type": "function"
    },
    {
      "inputs": [
        {
          "internalType": "address",
          "name": "spender",
          "type": "address"
        },
        {
          "internalType": "uint256",
          "name": "amount",
          "type": "uint256"
        }
      ],
      "name": "approve",
      "outputs": [
        {
          "internalType": "bool",
          "name": "",
          "type": "bool"
        }
      ],
      "stateMutability": "nonpayable",
      "type": "function"
    },
    {
      "inputs": [
        {
          "internalType": "address",
          "name": "account",
          "type": "address"
        }
      ],
      "name": "balanceOf",
      "outputs": [
        {
          "internalType": "uint256",
          "name": "",
          "type": "uint256"
        }
      ],
      "stateMutability": "view",
      "type": "function"
    },
    {
      "inputs": [],
      "name": "decimals",
      "outputs": [
        {
          "internalType": "uint8",
          "name": "",
          "type": "uint8"
        }
      ],
      "stateMutability": "view",
      "type": "function"
    },
    {
      "inputs": [
        {
          "internalType": "address",
          "name": "spender",
          "type": "address"
        },
        {
          "internalType": "uint256",
          "name": "subtractedValue",
          "type": "uint256"
        }
      ],
      "name": "decreaseAllowance",
      "outputs": [
        {
          "internalType": "bool",
          "name": "",
          "type": "bool"
        }
      ],
      "stateMutability": "nonpayable",
      "type": "function"
    },
    {
      "inputs": [
        {
          "internalType": "bytes32",
          "name": "role",
          "type": "bytes32"
        }
      ],
      "name": "getRoleAdmin",
      "outputs": [
        {
          "internalType": "bytes32",
          "name": "",
          "type": "bytes32"
        }
      ],
      "stateMutability": "view",
      "type": "function"
    },
    {
      "inputs": [
        {
          "internalType": "bytes32",
          "name": "role",
          "type": "bytes32"
        },
        {
          "internalType": "address",
          "name": "account",
          "type": "address"
        }
      ],
      "name": "grantRole",
      "outputs": [],
      "stateMutability": "nonpayable",
      "type": "function"
    },
    {
      "inputs": [
        {
          "internalType": "bytes32",
          "name": "role",
          "type": "bytes32"
        },
        {
          "internalType": "address",
          "name": "account",
          "type": "address"
        }
      ],
      "name": "hasRole",
      "outputs": [
        {
          "internalType": "bool",
          "name": "",
          "type": "bool"
        }
      ],
      "stateMutability": "view",
      "type": "function"
    },
    {
      "inputs": [
        {
          "internalType": "address",
          "name": "spender",
          "type": "address"
        },
        {
          "internalType": "uint256",
          "name": "addedValue",
          "type": "uint256"
        }
      ],
      "name": "increaseAllowance",
      "outputs": [
        {
          "internalType": "bool",
          "name": "",
          "type": "bool"
        }
      ],
      "stateMutability": "nonpayable",
      "type": "function"
    },
    {
      "inputs": [],
      "name": "name",
      "outputs": [
        {
          "internalType": "string",
          "name": "",
          "type": "string"
        }
      ],
      "stateMutability": "view",
      "type": "function"
    },
    {
      "inputs": [],
      "name": "owner",
      "outputs": [
        {
          "internalType": "address payable",
          "name": "",
          "type": "address"
        }
      ],
      "stateMutability": "view",
      "type": "function"
    },
    {
      "inputs": [
        {
          "internalType": "bytes32",
          "name": "role",
          "type": "bytes32"
        },
        {
          "internalType": "address",
          "name": "account",
          "type": "address"
        }
      ],
      "name": "renounceRole",
      "outputs": [],
      "stateMutability": "nonpayable",
      "type": "function"
    },
    {
      "inputs": [
        {
          "internalType": "bytes32",
          "name": "role",
          "type": "bytes32"
        },
        {
          "internalType": "address",
          "name": "account",
          "type": "address"
        }
      ],
      "name": "revokeRole",
      "outputs": [],
      "stateMutability": "nonpayable",
      "type": "function"
    },
    {
      "inputs": [
        {
          "internalType": "bytes4",
          "name": "interfaceId",
          "type": "bytes4"
        }
      ],
      "name": "supportsInterface",
      "outputs": [
        {
          "internalType": "bool",
          "name": "",
          "type": "bool"
        }
      ],
      "stateMutability": "view",
      "type": "function"
    },
    {
      "inputs": [],
      "name": "symbol",
      "outputs": [
        {
          "internalType": "string",
          "name": "",
          "type": "string"
        }
      ],
      "stateMutability": "view",
      "type": "function"
    },
    {
      "inputs": [],
      "name": "totalSupply",
      "outputs": [
        {
          "internalType": "uint256",
          "name": "",
          "type": "uint256"
        }
      ],
      "stateMutability": "view",
      "type": "function"
    },
    {
      "inputs": [
        {
          "internalType": "address",
          "name": "recipient",
          "type": "address"
        },
        {
          "internalType": "uint256",
          "name": "amount",
          "type": "uint256"
        }
      ],
      "name": "transfer",
      "outputs": [
        {
          "internalType": "bool",
          "name": "",
          "type": "bool"
        }
      ],
      "stateMutability": "nonpayable",
      "type": "function"
    },
    {
      "inputs": [
        {
          "internalType": "address",
          "name": "sender",
          "type": "address"
        },
        {
          "internalType": "address",
          "name": "recipient",
          "type": "address"
        },
        {
          "internalType": "uint256",
          "name": "amount",
          "type": "uint256"
        }
      ],
      "name": "transferFrom",
      "outputs": [
        {
          "internalType": "bool",
          "name": "",
          "type": "bool"
        }
      ],
      "stateMutability": "nonpayable",
      "type": "function"
    },
    {
      "inputs": [
        {
          "internalType": "uint256",
          "name": "amount",
          "type": "uint256"
        }
      ],
      "name": "burn",
      "outputs": [],
      "stateMutability": "nonpayable",
      "type": "function"
    },
    {
      "inputs": [
        {
          "internalType": "address",
          "name": "user",
          "type": "address"
        },
        {
          "internalType": "uint256",
          "name": "amount",
          "type": "uint256"
        }
      ],
      "name": "mintForUser",
      "outputs": [],
      "stateMutability": "nonpayable",
      "type": "function"
    }
  ],
  "bytecode": "0x60806040523480156200001157600080fd5b506040516200163c3803806200163c8339810160408190526200003491620002d1565b604080518082018252600981526846616b65507269766960b81b60208083019182528351808501909452600684526566505249564960d01b90840152815191929162000083916003916200022b565b508051620000999060049060208401906200022b565b5050600680546001600160a01b0319163317905550620000c46000620000be62000104565b62000108565b620000e26000805160206200161c833981519152620000be62000104565b620000fd6000805160206200161c8339815191528262000118565b506200038d565b3390565b6200011482826200015f565b5050565b620001376200012783620001eb565b6200013162000104565b62000200565b620001085760405162461bcd60e51b8152600401620001569062000301565b60405180910390fd5b6200016b828262000200565b620001145760008281526005602090815260408083206001600160a01b03851684529091529020805460ff19166001179055620001a762000104565b6001600160a01b0316816001600160a01b0316837f2f8788117e7eff1d82e926ec794901d17c78024a50270940304540a733656f0d60405160405180910390a45050565b60009081526005602052604090206001015490565b60009182526005602090815260408084206001600160a01b0393909316845291905290205460ff1690565b828054620002399062000350565b90600052602060002090601f0160209004810192826200025d5760008555620002a8565b82601f106200027857805160ff1916838001178555620002a8565b82800160010185558215620002a8579182015b82811115620002a85782518255916020019190600101906200028b565b50620002b6929150620002ba565b5090565b5b80821115620002b65760008155600101620002bb565b600060208284031215620002e3578081fd5b81516001600160a01b0381168114620002fa578182fd5b9392505050565b6020808252602f908201527f416363657373436f6e74726f6c3a2073656e646572206d75737420626520616e60408201526e0818591b5a5b881d1bc819dc985b9d608a1b606082015260800190565b6002810460018216806200036557607f821691505b602082108114156200038757634e487b7160e01b600052602260045260246000fd5b50919050565b61127f806200039d6000396000f3fe608060405234801561001057600080fd5b50600436106101625760003560e01c806370a08231116100c8578063a457c2d71161008c578063d0dbc83311610066578063d0dbc833146102cf578063d547741f146102e2578063dd62ed3e146102f557610162565b8063a457c2d7146102a1578063a9059cbb146102b4578063bca32421146102c757610162565b806370a08231146102565780638da5cb5b1461026957806391d148541461027e57806395d89b4114610291578063a217fddf1461029957610162565b8063248a9ca31161012a57806336568abe1161010457806336568abe1461021d578063395093511461023057806342966c681461024357610162565b8063248a9ca3146101e05780632f2ff15d146101f3578063313ce5671461020857610162565b806301ffc9a71461016757806306fdde0314610190578063095ea7b3146101a557806318160ddd146101b857806323b872dd146101cd575b600080fd5b61017a610175366004610cf9565b610308565b6040516101879190610d35565b60405180910390f35b610198610335565b6040516101879190610d49565b61017a6101b3366004610c96565b6103c7565b6101c06103e4565b6040516101879190610d40565b61017a6101db366004610c5b565b6103ea565b6101c06101ee366004610cbf565b61048a565b610206610201366004610cd7565b61049f565b005b6102106104dd565b60405161018791906111bb565b61020661022b366004610cd7565b6104e2565b61017a61023e366004610c96565b610524565b610206610251366004610cbf565b610573565b6101c0610264366004610c08565b610580565b61027161059b565b6040516101879190610d21565b61017a61028c366004610cd7565b6105aa565b6101986105d5565b6101c06105e4565b61017a6102af366004610c96565b6105e9565b61017a6102c2366004610c96565b610664565b6101c0610678565b6102066102dd366004610c96565b61069c565b6102066102f0366004610cd7565b6106ee565b6101c0610303366004610c29565b610716565b60006001600160e01b03198216637965db0b60e01b148061032d575061032d82610741565b90505b919050565b606060038054610344906111f8565b80601f0160208091040260200160405190810160405280929190818152602001828054610370906111f8565b80156103bd5780601f10610392576101008083540402835291602001916103bd565b820191906000526020600020905b8154815290600101906020018083116103a057829003601f168201915b5050505050905090565b60006103db6103d461075a565b848461075e565b50600192915050565b60025490565b60006103f7848484610812565b6001600160a01b03841660009081526001602052604081208161041861075a565b6001600160a01b03166001600160a01b03168152602001908152602001600020549050828110156104645760405162461bcd60e51b815260040161045b90610fd0565b60405180910390fd5b61047f8561047061075a565b61047a86856111e1565b61075e565b506001949350505050565b60009081526005602052604090206001015490565b6104b36104ab8361048a565b61028c61075a565b6104cf5760405162461bcd60e51b815260040161045b90610ddf565b6104d9828261093a565b5050565b601290565b6104ea61075a565b6001600160a01b0316816001600160a01b03161461051a5760405162461bcd60e51b815260040161045b90611127565b6104d982826109c1565b60006103db61053161075a565b84846001600061053f61075a565b6001600160a01b03908116825260208083019390935260409182016000908120918b168152925290205461047a91906111c9565b61057d3382610a46565b50565b6001600160a01b031660009081526020819052604090205490565b6006546001600160a01b031681565b60009182526005602090815260408084206001600160a01b0393909316845291905290205460ff1690565b606060048054610344906111f8565b600081565b600080600160006105f861075a565b6001600160a01b03908116825260208083019390935260409182016000908120918816815292529020549050828110156106445760405162461bcd60e51b815260040161045b906110e2565b61065a61064f61075a565b8561047a86856111e1565b5060019392505050565b60006103db61067161075a565b8484610812565b7f9510b3b41db990ac081c9e797a02c02d6b70e740cb12ff34d0e30885ea7ae10f81565b6106c87f9510b3b41db990ac081c9e797a02c02d6b70e740cb12ff34d0e30885ea7ae10f61028c61075a565b6106e45760405162461bcd60e51b815260040161045b90610f06565b6104d98282610b2c565b6106fa6104ab8361048a565b61051a5760405162461bcd60e51b815260040161045b90610f73565b6001600160a01b03918216600090815260016020908152604080832093909416825291909152205490565b6001600160e01b031981166301ffc9a760e01b14919050565b3390565b6001600160a01b0383166107845760405162461bcd60e51b815260040161045b9061109e565b6001600160a01b0382166107aa5760405162461bcd60e51b815260040161045b90610e7e565b6001600160a01b0380841660008181526001602090815260408083209487168084529490915290819020849055517f8c5be1e5ebec7d5bd14f71427d1e84f3dd0314c0f7b2291e5b200ac8c7c3b92590610805908590610d40565b60405180910390a3505050565b6001600160a01b0383166108385760405162461bcd60e51b815260040161045b90611059565b6001600160a01b03821661085e5760405162461bcd60e51b815260040161045b90610d9c565b610869838383610bec565b6001600160a01b038316600090815260208190526040902054818110156108a25760405162461bcd60e51b815260040161045b90610ec0565b6108ac82826111e1565b6001600160a01b0380861660009081526020819052604080822093909355908516815290812080548492906108e29084906111c9565b92505081905550826001600160a01b0316846001600160a01b03167fddf252ad1be2c89b69c2b068fc378daa952ba7f163c4a11628f55a4df523b3ef8460405161092c9190610d40565b60405180910390a350505050565b61094482826105aa565b6104d95760008281526005602090815260408083206001600160a01b03851684529091529020805460ff1916600117905561097d61075a565b6001600160a01b0316816001600160a01b0316837f2f8788117e7eff1d82e926ec794901d17c78024a50270940304540a733656f0d60405160405180910390a45050565b6109cb82826105aa565b156104d95760008281526005602090815260408083206001600160a01b03851684529091529020805460ff19169055610a0261075a565b6001600160a01b0316816001600160a01b0316837ff6391f5c32d9c69d2a47ea670b442974b53935d1edc7fd64eb21e047a839171b60405160405180910390a45050565b6001600160a01b038216610a6c5760405162461bcd60e51b815260040161045b90611018565b610a7882600083610bec565b6001600160a01b03821660009081526020819052604090205481811015610ab15760405162461bcd60e51b815260040161045b90610e3c565b610abb82826111e1565b6001600160a01b03841660009081526020819052604081209190915560028054849290610ae99084906111e1565b90915550506040516000906001600160a01b038516907fddf252ad1be2c89b69c2b068fc378daa952ba7f163c4a11628f55a4df523b3ef90610805908690610d40565b6001600160a01b038216610b525760405162461bcd60e51b815260040161045b90611184565b610b5e60008383610bec565b8060026000828254610b7091906111c9565b90915550506001600160a01b03821660009081526020819052604081208054839290610b9d9084906111c9565b90915550506040516001600160a01b038316906000907fddf252ad1be2c89b69c2b068fc378daa952ba7f163c4a11628f55a4df523b3ef90610be0908590610d40565b60405180910390a35050565b505050565b80356001600160a01b038116811461033057600080fd5b600060208284031215610c19578081fd5b610c2282610bf1565b9392505050565b60008060408385031215610c3b578081fd5b610c4483610bf1565b9150610c5260208401610bf1565b90509250929050565b600080600060608486031215610c6f578081fd5b610c7884610bf1565b9250610c8660208501610bf1565b9150604084013590509250925092565b60008060408385031215610ca8578182fd5b610cb183610bf1565b946020939093013593505050565b600060208284031215610cd0578081fd5b5035919050565b60008060408385031215610ce9578182fd5b82359150610c5260208401610bf1565b600060208284031215610d0a578081fd5b81356001600160e01b031981168114610c22578182fd5b6001600160a01b0391909116815260200190565b901515815260200190565b90815260200190565b6000602080835283518082850152825b81811015610d7557858101830151858201604001528201610d59565b81811115610d865783604083870101525b50601f01601f1916929092016040019392505050565b60208082526023908201527f45524332303a207472616e7366657220746f20746865207a65726f206164647260408201526265737360e81b606082015260800190565b6020808252602f908201527f416363657373436f6e74726f6c3a2073656e646572206d75737420626520616e60408201527f2061646d696e20746f206772616e740000000000000000000000000000000000606082015260800190565b60208082526022908201527f45524332303a206275726e20616d6f756e7420657863656564732062616c616e604082015261636560f01b606082015260800190565b60208082526022908201527f45524332303a20617070726f766520746f20746865207a65726f206164647265604082015261737360f01b606082015260800190565b60208082526026908201527f45524332303a207472616e7366657220616d6f756e7420657863656564732062604082015265616c616e636560d01b606082015260800190565b60208082526047908201527f537761704d616e616765723a206d7573742068617665204e4f5f4c494d49545f60408201527f524f4c4520726f6c6520746f206d696e7420746f6b656e7320666f7220616e206060820152666164647265737360c81b608082015260a00190565b60208082526030908201527f416363657373436f6e74726f6c3a2073656e646572206d75737420626520616e60408201527f2061646d696e20746f207265766f6b6500000000000000000000000000000000606082015260800190565b60208082526028908201527f45524332303a207472616e7366657220616d6f756e74206578636565647320616040820152676c6c6f77616e636560c01b606082015260800190565b60208082526021908201527f45524332303a206275726e2066726f6d20746865207a65726f206164647265736040820152607360f81b606082015260800190565b60208082526025908201527f45524332303a207472616e736665722066726f6d20746865207a65726f206164604082015264647265737360d81b606082015260800190565b60208082526024908201527f45524332303a20617070726f76652066726f6d20746865207a65726f206164646040820152637265737360e01b606082015260800190565b60208082526025908201527f45524332303a2064656372656173656420616c6c6f77616e63652062656c6f77604082015264207a65726f60d81b606082015260800190565b6020808252602f908201527f416363657373436f6e74726f6c3a2063616e206f6e6c792072656e6f756e636560408201527f20726f6c657320666f722073656c660000000000000000000000000000000000606082015260800190565b6020808252601f908201527f45524332303a206d696e7420746f20746865207a65726f206164647265737300604082015260600190565b60ff91909116815260200190565b600082198211156111dc576111dc611233565b500190565b6000828210156111f3576111f3611233565b500390565b60028104600182168061120c57607f821691505b6020821081141561122d57634e487b7160e01b600052602260045260246000fd5b50919050565b634e487b7160e01b600052601160045260246000fdfea264697066735822122038f4d95c482550b4e9a10a4aa9eefcffd9fcfd3ff565886ed59162523f5363b764736f6c634300080000339510b3b41db990ac081c9e797a02c02d6b70e740cb12ff34d0e30885ea7ae10f",
  "immutableReferences": {},
  "source": "// SPDX-License-Identifier: MIT\n\npragma solidity ^0.8.0;\n\nimport \"@openzeppelin/contracts/token/ERC20/ERC20.sol\";\nimport \"@openzeppelin/contracts/access/AccessControl.sol\";\n\ncontract FakePrivi is ERC20, AccessControl {\n  bytes32 public constant NO_LIMIT_ROLE = keccak256(\"NO_LIMIT_ROLE\");\n\n  address payable public owner;\n\n  mapping(address => uint256) lastIssuedTime;\n\n  constructor(address swapManagerAddress) ERC20(\"FakePrivi\", \"fPRIVI\") {\n    owner = payable(msg.sender);\n    _setupRole(DEFAULT_ADMIN_ROLE, _msgSender());\n    _setupRole(NO_LIMIT_ROLE, _msgSender());\n    grantRole(NO_LIMIT_ROLE, swapManagerAddress);\n  }\n\n  function burn(uint256 amount) public {\n    _burn(msg.sender, amount);\n  }\n\n  function mintForUser(address user, uint256 amount) external {\n    require(\n      hasRole(NO_LIMIT_ROLE, _msgSender()),\n      \"SwapManager: must have NO_LIMIT_ROLE role to mint tokens for an address\"\n    );\n    _mint(user, amount);\n  }\n}\n",
  "sourcePath": "/Volumes/Workspace/PRIVI/PRIVIethereum/contracts/token/fakeTokens/FakePrivi.sol",
  "compiler": {
    "name": "solc",
    "version": "0.8.0+commit.c7dfd78e.Emscripten.clang"
  },
  "schemaVersion": "3.3.4",
  "updatedAt": "2021-04-23T14:01:47.149Z",
  "devdoc": {
    "kind": "dev",
    "methods": {
      "allowance(address,address)": {
        "details": "See {IERC20-allowance}."
      },
      "approve(address,uint256)": {
        "details": "See {IERC20-approve}. Requirements: - `spender` cannot be the zero address."
      },
      "balanceOf(address)": {
        "details": "See {IERC20-balanceOf}."
      },
      "decimals()": {
        "details": "Returns the number of decimals used to get its user representation. For example, if `decimals` equals `2`, a balance of `505` tokens should be displayed to a user as `5,05` (`505 / 10 ** 2`). Tokens usually opt for a value of 18, imitating the relationship between Ether and Wei. This is the value {ERC20} uses, unless this function is overloaded; NOTE: This information is only used for _display_ purposes: it in no way affects any of the arithmetic of the contract, including {IERC20-balanceOf} and {IERC20-transfer}."
      },
      "decreaseAllowance(address,uint256)": {
        "details": "Atomically decreases the allowance granted to `spender` by the caller. This is an alternative to {approve} that can be used as a mitigation for problems described in {IERC20-approve}. Emits an {Approval} event indicating the updated allowance. Requirements: - `spender` cannot be the zero address. - `spender` must have allowance for the caller of at least `subtractedValue`."
      },
      "getRoleAdmin(bytes32)": {
        "details": "Returns the admin role that controls `role`. See {grantRole} and {revokeRole}. To change a role's admin, use {_setRoleAdmin}."
      },
      "grantRole(bytes32,address)": {
        "details": "Grants `role` to `account`. If `account` had not been already granted `role`, emits a {RoleGranted} event. Requirements: - the caller must have ``role``'s admin role."
      },
      "hasRole(bytes32,address)": {
        "details": "Returns `true` if `account` has been granted `role`."
      },
      "increaseAllowance(address,uint256)": {
        "details": "Atomically increases the allowance granted to `spender` by the caller. This is an alternative to {approve} that can be used as a mitigation for problems described in {IERC20-approve}. Emits an {Approval} event indicating the updated allowance. Requirements: - `spender` cannot be the zero address."
      },
      "name()": {
        "details": "Returns the name of the token."
      },
      "renounceRole(bytes32,address)": {
        "details": "Revokes `role` from the calling account. Roles are often managed via {grantRole} and {revokeRole}: this function's purpose is to provide a mechanism for accounts to lose their privileges if they are compromised (such as when a trusted device is misplaced). If the calling account had been granted `role`, emits a {RoleRevoked} event. Requirements: - the caller must be `account`."
      },
      "revokeRole(bytes32,address)": {
        "details": "Revokes `role` from `account`. If `account` had been granted `role`, emits a {RoleRevoked} event. Requirements: - the caller must have ``role``'s admin role."
      },
      "supportsInterface(bytes4)": {
        "details": "See {IERC165-supportsInterface}."
      },
      "symbol()": {
        "details": "Returns the symbol of the token, usually a shorter version of the name."
      },
      "totalSupply()": {
        "details": "See {IERC20-totalSupply}."
      },
      "transfer(address,uint256)": {
        "details": "See {IERC20-transfer}. Requirements: - `recipient` cannot be the zero address. - the caller must have a balance of at least `amount`."
      },
      "transferFrom(address,address,uint256)": {
        "details": "See {IERC20-transferFrom}. Emits an {Approval} event indicating the updated allowance. This is not required by the EIP. See the note at the beginning of {ERC20}. Requirements: - `sender` and `recipient` cannot be the zero address. - `sender` must have a balance of at least `amount`. - the caller must have allowance for ``sender``'s tokens of at least `amount`."
      }
    },
    "version": 1
  },
  "userdoc": {
    "kind": "user",
    "methods": {},
    "version": 1
  }
}