{
  "contractName": "PRIVIPodERC1155Factory",
  "abi": [
    {
      "inputs": [
        {
          "internalType": "address",
          "name": "bridgeAddress",
          "type": "address"
        }
      ],
      "stateMutability": "nonpayable",
      "type": "constructor"
    },
    {
      "anonymous": false,
      "inputs": [
        {
          "indexed": true,
          "internalType": "string",
          "name": "uri",
          "type": "string"
        },
        {
          "indexed": false,
          "internalType": "address",
          "name": "podAddress",
          "type": "address"
        }
      ],
      "name": "PodCreated",
      "type": "event"
    },
    {
      "anonymous": false,
      "inputs": [
        {
          "indexed": true,
          "internalType": "bytes32",
          "name": "role",
          "type": "bytes32"
        },
        {
          "indexed": true,
          "internalType": "bytes32",
          "name": "previousAdminRole",
          "type": "bytes32"
        },
        {
          "indexed": true,
          "internalType": "bytes32",
          "name": "newAdminRole",
          "type": "bytes32"
        }
      ],
      "name": "RoleAdminChanged",
      "type": "event"
    },
    {
      "anonymous": false,
      "inputs": [
        {
          "indexed": true,
          "internalType": "bytes32",
          "name": "role",
          "type": "bytes32"
        },
        {
          "indexed": true,
          "internalType": "address",
          "name": "account",
          "type": "address"
        },
        {
          "indexed": true,
          "internalType": "address",
          "name": "sender",
          "type": "address"
        }
      ],
      "name": "RoleGranted",
      "type": "event"
    },
    {
      "anonymous": false,
      "inputs": [
        {
          "indexed": true,
          "internalType": "bytes32",
          "name": "role",
          "type": "bytes32"
        },
        {
          "indexed": true,
          "internalType": "address",
          "name": "account",
          "type": "address"
        },
        {
          "indexed": true,
          "internalType": "address",
          "name": "sender",
          "type": "address"
        }
      ],
      "name": "RoleRevoked",
      "type": "event"
    },
    {
      "inputs": [],
      "name": "DEFAULT_ADMIN_ROLE",
      "outputs": [
        {
          "internalType": "bytes32",
          "name": "",
          "type": "bytes32"
        }
      ],
      "stateMutability": "view",
      "type": "function"
    },
    {
      "inputs": [],
      "name": "MODERATOR_ROLE",
      "outputs": [
        {
          "internalType": "bytes32",
          "name": "",
          "type": "bytes32"
        }
      ],
      "stateMutability": "view",
      "type": "function"
    },
    {
      "inputs": [],
      "name": "bridgeManagerAddress",
      "outputs": [
        {
          "internalType": "address",
          "name": "",
          "type": "address"
        }
      ],
      "stateMutability": "view",
      "type": "function"
    },
    {
      "inputs": [
        {
          "internalType": "bytes32",
          "name": "role",
          "type": "bytes32"
        }
      ],
      "name": "getRoleAdmin",
      "outputs": [
        {
          "internalType": "bytes32",
          "name": "",
          "type": "bytes32"
        }
      ],
      "stateMutability": "view",
      "type": "function"
    },
    {
      "inputs": [
        {
          "internalType": "bytes32",
          "name": "role",
          "type": "bytes32"
        },
        {
          "internalType": "address",
          "name": "account",
          "type": "address"
        }
      ],
      "name": "grantRole",
      "outputs": [],
      "stateMutability": "nonpayable",
      "type": "function"
    },
    {
      "inputs": [
        {
          "internalType": "bytes32",
          "name": "role",
          "type": "bytes32"
        },
        {
          "internalType": "address",
          "name": "account",
          "type": "address"
        }
      ],
      "name": "hasRole",
      "outputs": [
        {
          "internalType": "bool",
          "name": "",
          "type": "bool"
        }
      ],
      "stateMutability": "view",
      "type": "function"
    },
    {
      "inputs": [
        {
          "internalType": "string",
          "name": "",
          "type": "string"
        }
      ],
      "name": "podTokenAddressesById",
      "outputs": [
        {
          "internalType": "address",
          "name": "",
          "type": "address"
        }
      ],
      "stateMutability": "view",
      "type": "function"
    },
    {
      "inputs": [
        {
          "internalType": "string",
          "name": "",
          "type": "string"
        }
      ],
      "name": "podTokenAddressesByUri",
      "outputs": [
        {
          "internalType": "address",
          "name": "",
          "type": "address"
        }
      ],
      "stateMutability": "view",
      "type": "function"
    },
    {
      "inputs": [
        {
          "internalType": "bytes32",
          "name": "role",
          "type": "bytes32"
        },
        {
          "internalType": "address",
          "name": "account",
          "type": "address"
        }
      ],
      "name": "renounceRole",
      "outputs": [],
      "stateMutability": "nonpayable",
      "type": "function"
    },
    {
      "inputs": [
        {
          "internalType": "bytes32",
          "name": "role",
          "type": "bytes32"
        },
        {
          "internalType": "address",
          "name": "account",
          "type": "address"
        }
      ],
      "name": "revokeRole",
      "outputs": [],
      "stateMutability": "nonpayable",
      "type": "function"
    },
    {
      "inputs": [
        {
          "internalType": "bytes4",
          "name": "interfaceId",
          "type": "bytes4"
        }
      ],
      "name": "supportsInterface",
      "outputs": [
        {
          "internalType": "bool",
          "name": "",
          "type": "bool"
        }
      ],
      "stateMutability": "view",
      "type": "function"
    },
    {
      "inputs": [],
      "name": "totalPodCreated",
      "outputs": [
        {
          "internalType": "uint256",
          "name": "",
          "type": "uint256"
        }
      ],
      "stateMutability": "view",
      "type": "function"
    },
    {
      "inputs": [
        {
          "internalType": "address",
          "name": "swapManagerAddress",
          "type": "address"
        }
      ],
      "name": "assignRoleSwapManager",
      "outputs": [],
      "stateMutability": "nonpayable",
      "type": "function"
    },
    {
      "inputs": [
        {
          "internalType": "string",
          "name": "uri",
          "type": "string"
        }
      ],
      "name": "getPodAddressByUri",
      "outputs": [
        {
          "internalType": "address",
          "name": "podAddress",
          "type": "address"
        }
      ],
      "stateMutability": "view",
      "type": "function"
    },
    {
      "inputs": [
        {
          "internalType": "string",
          "name": "podId",
          "type": "string"
        }
      ],
      "name": "getPodAddressById",
      "outputs": [
        {
          "internalType": "address",
          "name": "podAddress",
          "type": "address"
        }
      ],
      "stateMutability": "view",
      "type": "function"
    },
    {
      "inputs": [
        {
          "internalType": "string",
          "name": "uri",
          "type": "string"
        },
        {
          "internalType": "string",
          "name": "podId",
          "type": "string"
        }
      ],
      "name": "createPod",
      "outputs": [
        {
          "internalType": "address",
          "name": "podAddress",
          "type": "address"
        }
      ],
      "stateMutability": "nonpayable",
      "type": "function"
    },
    {
      "inputs": [
        {
          "internalType": "string",
          "name": "uri",
          "type": "string"
        },
        {
          "internalType": "address",
          "name": "account",
          "type": "address"
        },
        {
          "internalType": "uint256",
          "name": "tokenId",
          "type": "uint256"
        },
        {
          "internalType": "uint256",
          "name": "amount",
          "type": "uint256"
        },
        {
          "internalType": "bytes",
          "name": "data",
          "type": "bytes"
        }
      ],
      "name": "mintPodTokenByUri",
      "outputs": [],
      "stateMutability": "nonpayable",
      "type": "function"
    },
    {
      "inputs": [
        {
          "internalType": "string",
          "name": "podId",
          "type": "string"
        },
        {
          "internalType": "address",
          "name": "account",
          "type": "address"
        },
        {
          "internalType": "uint256",
          "name": "tokenId",
          "type": "uint256"
        },
        {
          "internalType": "uint256",
          "name": "amount",
          "type": "uint256"
        },
        {
          "internalType": "bytes",
          "name": "data",
          "type": "bytes"
        }
      ],
      "name": "mintPodTokenById",
      "outputs": [],
      "stateMutability": "nonpayable",
      "type": "function"
    },
    {
      "inputs": [
        {
          "internalType": "string",
          "name": "uri",
          "type": "string"
        },
        {
          "internalType": "address",
          "name": "account",
          "type": "address"
        },
        {
          "internalType": "uint256[]",
          "name": "tokenIds",
          "type": "uint256[]"
        },
        {
          "internalType": "uint256[]",
          "name": "amounts",
          "type": "uint256[]"
        },
        {
          "internalType": "bytes",
          "name": "data",
          "type": "bytes"
        }
      ],
      "name": "batchMintPodTokenByUri",
      "outputs": [],
      "stateMutability": "nonpayable",
      "type": "function"
    },
    {
      "inputs": [
        {
          "internalType": "string",
          "name": "podId",
          "type": "string"
        },
        {
          "internalType": "address",
          "name": "account",
          "type": "address"
        },
        {
          "internalType": "uint256[]",
          "name": "tokenIds",
          "type": "uint256[]"
        },
        {
          "internalType": "uint256[]",
          "name": "amounts",
          "type": "uint256[]"
        },
        {
          "internalType": "bytes",
          "name": "data",
          "type": "bytes"
        }
      ],
      "name": "batchMintPodTokenById",
      "outputs": [],
      "stateMutability": "nonpayable",
      "type": "function"
    }
  ],
  "bytecode": "0x60806040523480156200001157600080fd5b5060405162003c5938038062003c59833981016040819052620000349162000166565b6200004a6000620000446200009f565b620000a3565b620000797f71f3d55856e4058ed06ee057d79ada615f65cdf5f9ee88181b914225088f834f620000446200009f565b600180546001600160a01b0319166001600160a01b039290921691909117905562000196565b3390565b620000af8282620000b3565b5050565b620000bf82826200013d565b620000af576000828152602081815260408083206001600160a01b03851684529091529020805460ff19166001179055620000f96200009f565b6001600160a01b0316816001600160a01b0316837f2f8788117e7eff1d82e926ec794901d17c78024a50270940304540a733656f0d60405160405180910390a45050565b6000918252602082815260408084206001600160a01b0393909316845291905290205460ff1690565b60006020828403121562000178578081fd5b81516001600160a01b03811681146200018f578182fd5b9392505050565b613ab380620001a66000396000f3fe60806040523480156200001157600080fd5b5060043610620001485760003560e01c806387b4b09d11620000bd578063d547741f116200007b578063d547741f14620002c4578063dc2e187a14620002db578063de28a86014620002e5578063e792b19414620002fc578063fa5935ee14620003065762000148565b806387b4b09d146200025e5780638d1909ed146200027557806391d14854146200028c578063a217fddf14620002a3578063c49b81b114620002ad5762000148565b80632f2ff15d116200010b5780632f2ff15d14620001f857806336568abe146200020f57806337b7a867146200022657806374496f20146200023d578063797669c914620002545762000148565b806301ffc9a7146200014d5780630d60f1e4146200017c57806322b2edeb14620001a2578063248a9ca314620001b95780632dcfea4214620001df575b600080fd5b620001646200015e36600462000e35565b6200031d565b604051620001739190620012f7565b60405180910390f35b620001936200018d3660046200110e565b6200034d565b604051620001739190620011d7565b62000193620001b336600462000e5f565b62000373565b620001d0620001ca36600462000dee565b620003a9565b60405162000173919062001302565b620001f6620001f036600462000f7a565b620003be565b005b620001f66200020936600462000e07565b620004e3565b620001f66200022036600462000e07565b6200052b565b620001f66200023736600462000ea3565b62000574565b620001f66200024e36600462000ff5565b62000630565b620001d062000749565b620001936200026f3660046200109e565b6200075c565b620001f66200028636600462000dca565b620009c0565b620001646200029d36600462000e07565b62000a1b565b620001d062000a44565b62000193620002be3660046200110e565b62000a49565b620001f6620002d536600462000e07565b62000a6f565b620001d062000a9d565b620001f6620002f636600462000ea3565b62000aa3565b6200019362000b1d565b620001936200031736600462000e5f565b62000b2c565b60006001600160e01b03198216637965db0b60e01b1480620003455750620003458262000b42565b90505b919050565b80516020818301810180516004825292820191909301209152546001600160a01b031681565b60006004838360405162000389929190620011c7565b908152604051908190036020019020546001600160a01b03169392505050565b60009081526020819052604090206001015490565b620003dc60008051602062003a5e8339815191526200029d62000b5b565b620004045760405162461bcd60e51b8152600401620003fb90620016eb565b60405180910390fd5b6001600160a01b0385166200042d5760405162461bcd60e51b8152600401620003fb9062001758565b60008311620004505760405162461bcd60e51b8152600401620003fb90620015e6565b6003878760405162000464929190620011c7565b9081526040519081900360200181205463731133e960e01b82526001600160a01b03169063731133e990620004a6908890889088908890889060040162001246565b600060405180830381600087803b158015620004c157600080fd5b505af1158015620004d6573d6000803e3d6000fd5b5050505050505050505050565b620004fc620004f283620003a9565b6200029d62000b5b565b6200051b5760405162461bcd60e51b8152600401620003fb9062001381565b62000527828262000b5f565b5050565b6200053562000b5b565b6001600160a01b0316816001600160a01b031614620005685760405162461bcd60e51b8152600401620003fb90620017b5565b62000527828262000be9565b6200059260008051602062003a5e8339815191526200029d62000b5b565b620005b15760405162461bcd60e51b8152600401620003fb90620013de565b6001600160a01b038516620005da5760405162461bcd60e51b8152600401620003fb9062001589565b60048787604051620005ee929190620011c7565b90815260405190819003602001812054630fbfeffd60e11b82526001600160a01b031690631f7fdffa90620004a69088908890889088908890600401620011eb565b6200064e60008051602062003a5e8339815191526200029d62000b5b565b6200066d5760405162461bcd60e51b8152600401620003fb90620013de565b6001600160a01b038416620006965760405162461bcd60e51b8152600401620003fb9062001589565b60008211620006b95760405162461bcd60e51b8152600401620003fb906200168e565b60048686604051620006cd929190620011c7565b9081526040519081900360200181205463731133e960e01b82526001600160a01b03169063731133e9906200070d90879087908790879060040162001282565b600060405180830381600087803b1580156200072857600080fd5b505af11580156200073d573d6000803e3d6000fd5b50505050505050505050565b60008051602062003a5e83398151915281565b6000806001600160a01b0316600484846040516200077c929190620011c7565b908152604051908190036020019020546001600160a01b031614620007b55760405162461bcd60e51b8152600401620003fb90620014cf565b60006001600160a01b031660038686604051620007d4929190620011c7565b908152604051908190036020019020546001600160a01b0316146200080d5760405162461bcd60e51b8152600401620003fb9062001643565b6000858530604051620008209062000c71565b6200082e939291906200130b565b604051809103906000f0801580156200084b573d6000803e3d6000fd5b5090508091506001600260008282546200086691906200183f565b92505081905550816003878760405162000882929190620011c7565b908152602001604051809103902060006101000a8154816001600160a01b0302191690836001600160a01b031602179055508160048585604051620008c9929190620011c7565b90815260405190819003602001812080546001600160a01b0393841673ffffffffffffffffffffffffffffffffffffffff1990911617905560015463026a412d60e51b825290911690634d4825a0906200093090899089908290829089906004016200133a565b600060405180830381600087803b1580156200094b57600080fd5b505af115801562000960573d6000803e3d6000fd5b50505050858560405162000976929190620011c7565b60405180910390207fc84bc1fa0709a57027c0460a2e859f1a2376e90445c85eed2242f4d98f2068d683604051620009af9190620011d7565b60405180910390a250949350505050565b620009de60008051602062003a5e8339815191526200029d62000b5b565b620009fd5760405162461bcd60e51b8152600401620003fb906200144c565b62000a1860008051602062003a5e833981519152826200051b565b50565b6000918252602082815260408084206001600160a01b0393909316845291905290205460ff1690565b600081565b80516020818301810180516003825292820191909301209152546001600160a01b031681565b62000a7e620004f283620003a9565b620005685760405162461bcd60e51b8152600401620003fb906200152c565b60025481565b62000ac160008051602062003a5e8339815191526200029d62000b5b565b62000ae05760405162461bcd60e51b8152600401620003fb90620016eb565b6001600160a01b03851662000b095760405162461bcd60e51b8152600401620003fb9062001758565b60038787604051620005ee929190620011c7565b6001546001600160a01b031681565b60006003838360405162000389929190620011c7565b6001600160e01b031981166301ffc9a760e01b14919050565b3390565b62000b6b828262000a1b565b62000527576000828152602081815260408083206001600160a01b03851684529091529020805460ff1916600117905562000ba562000b5b565b6001600160a01b0316816001600160a01b0316837f2f8788117e7eff1d82e926ec794901d17c78024a50270940304540a733656f0d60405160405180910390a45050565b62000bf5828262000a1b565b1562000527576000828152602081815260408083206001600160a01b03851684529091529020805460ff1916905562000c2d62000b5b565b6001600160a01b0316816001600160a01b0316837ff6391f5c32d9c69d2a47ea670b442974b53935d1edc7fd64eb21e047a839171b60405160405180910390a45050565b6121e3806200187b83390190565b600067ffffffffffffffff83111562000c9c5762000c9c62001864565b62000cb1601f8401601f191660200162001812565b905082815283838301111562000cc657600080fd5b828260208301376000602084830101529392505050565b80356001600160a01b03811681146200034857600080fd5b600082601f83011262000d06578081fd5b8135602067ffffffffffffffff82111562000d255762000d2562001864565b80820262000d3582820162001812565b83815282810190868401838801850189101562000d50578687fd5b8693505b8584101562000d7457803583526001939093019291840191840162000d54565b50979650505050505050565b60008083601f84011262000d92578182fd5b50813567ffffffffffffffff81111562000daa578182fd5b60208301915083602082850101111562000dc357600080fd5b9250929050565b60006020828403121562000ddc578081fd5b62000de78262000cdd565b9392505050565b60006020828403121562000e00578081fd5b5035919050565b6000806040838503121562000e1a578081fd5b8235915062000e2c6020840162000cdd565b90509250929050565b60006020828403121562000e47578081fd5b81356001600160e01b03198116811462000de7578182fd5b6000806020838503121562000e72578182fd5b823567ffffffffffffffff81111562000e89578283fd5b62000e978582860162000d80565b90969095509350505050565b600080600080600080600060a0888a03121562000ebe578283fd5b873567ffffffffffffffff8082111562000ed6578485fd5b62000ee48b838c0162000d80565b909950975087915062000efa60208b0162000cdd565b965060408a013591508082111562000f10578485fd5b62000f1e8b838c0162000cf5565b955060608a013591508082111562000f34578485fd5b62000f428b838c0162000cf5565b945060808a013591508082111562000f58578384fd5b5062000f678a828b0162000d80565b989b979a50959850939692959293505050565b600080600080600080600060a0888a03121562000f95578283fd5b873567ffffffffffffffff8082111562000fad578485fd5b62000fbb8b838c0162000d80565b909950975087915062000fd160208b0162000cdd565b965060408a0135955060608a0135945060808a013591508082111562000f58578384fd5b60008060008060008060a087890312156200100e578182fd5b863567ffffffffffffffff8082111562001026578384fd5b620010348a838b0162000d80565b90985096508691506200104a60208a0162000cdd565b9550604089013594506060890135935060808901359150808211156200106e578283fd5b508701601f8101891362001080578182fd5b620010918982356020840162000c7f565b9150509295509295509295565b60008060008060408587031215620010b4578182fd5b843567ffffffffffffffff80821115620010cc578384fd5b620010da8883890162000d80565b90965094506020870135915080821115620010f3578384fd5b50620011028782880162000d80565b95989497509550505050565b60006020828403121562001120578081fd5b813567ffffffffffffffff81111562001137578182fd5b8201601f8101841362001148578182fd5b620011598482356020840162000c7f565b949350505050565b6000815180845260208085019450808401835b83811015620011925781518752958201959082019060010162001174565b509495945050505050565b60008284528282602086013780602084860101526020601f19601f85011685010190509392505050565b6000828483379101908152919050565b6001600160a01b0391909116815260200190565b60006001600160a01b0387168252608060208301526200120f608083018762001161565b828103604084015262001223818762001161565b905082810360608401526200123a8185876200119d565b98975050505050505050565b60006001600160a01b038716825285602083015284604083015260806060830152620012776080830184866200119d565b979650505050505050565b60006001600160a01b038616825260208581840152846040840152608060608401528351806080850152825b81811015620012cc5785810183015185820160a001528201620012ae565b81811115620012de578360a083870101525b50601f01601f19169290920160a0019695505050505050565b901515815260200190565b90815260200190565b600060408252620013216040830185876200119d565b90506001600160a01b0383166020830152949350505050565b600060608252620013506060830187896200119d565b8281036020840152620013658186886200119d565b9150506001600160a01b03831660408301529695505050505050565b6020808252602f908201527f416363657373436f6e74726f6c3a2073656e646572206d75737420626520616e60408201527f2061646d696e20746f206772616e740000000000000000000000000000000000606082015260800190565b60208082526048908201527f5052495649506f6445524331313535466163746f72793a206d7573742068617660408201527f65204d4f44455241544f525f524f4c4520746f20696e7665737420666f722069606082015267373b32b9ba37b91760c11b608082015260a00190565b6020808252604e908201527f5052495649506f6445524331313535466163746f72793a206d7573742068617660408201527f65204d4f44455241544f525f524f4c4520746f2061737369676e20537761704d60608201527f616e616765722061646472657373000000000000000000000000000000000000608082015260a00190565b60208082526033908201527f5052495649506f6445524331313535546f6b656e466163746f72793a20506f6460408201527f20696420616c7265616479206578697374732e00000000000000000000000000606082015260800190565b60208082526030908201527f416363657373436f6e74726f6c3a2073656e646572206d75737420626520616e60408201527f2061646d696e20746f207265766f6b6500000000000000000000000000000000606082015260800190565b6020808252603b908201527f5052495649506f6445524331313535466163746f72793a204163636f756e742060408201527f616464726573732073686f756c64206e6f74206265207a65726f2e0000000000606082015260800190565b60208082526031908201527f5052495649506f6445524331313535466163746f72793a20616d6f756e74207360408201527f686f756c64206e6f74206265207a65726f000000000000000000000000000000606082015260800190565b6020808252602b908201527f5052495649506f6445524331313535466163746f72793a20506f6420616c726560408201526a30b23c9032bc34b9ba399760a91b606082015260800190565b60208082526032908201527f5052495649506f6445524331313535466163746f72793a20616d6f756e74207360408201527f686f756c64206e6f74206265207a65726f2e0000000000000000000000000000606082015260800190565b60208082526047908201527f5052495649506f6445524331313535466163746f72793a206d7573742068617660408201527f65204d4f44455241544f525f524f4c4520746f20696e7665737420666f722069606082015266373b32b9ba37b960c91b608082015260a00190565b6020808252603a908201527f5052495649506f6445524331313535466163746f72793a204163636f756e742060408201527f616464726573732073686f756c64206e6f74206265207a65726f000000000000606082015260800190565b6020808252602f908201527f416363657373436f6e74726f6c3a2063616e206f6e6c792072656e6f756e636560408201527f20726f6c657320666f722073656c660000000000000000000000000000000000606082015260800190565b60405181810167ffffffffffffffff8111828210171562001837576200183762001864565b604052919050565b600082198211156200185f57634e487b7160e01b81526011600452602481fd5b500190565b634e487b7160e01b600052604160045260246000fdfe60806040523480156200001157600080fd5b50604051620021e3380380620021e3833981016040819052620000349162000144565b81620000408162000068565b50600380546001600160a01b0319166001600160a01b0392909216919091179055506200027b565b80516200007d90600290602084019062000081565b5050565b8280546200008f9062000228565b90600052602060002090601f016020900481019282620000b35760008555620000fe565b82601f10620000ce57805160ff1916838001178555620000fe565b82800160010185558215620000fe579182015b82811115620000fe578251825591602001919060010190620000e1565b506200010c92915062000110565b5090565b5b808211156200010c576000815560010162000111565b80516001600160a01b03811681146200013f57600080fd5b919050565b6000806040838503121562000157578182fd5b82516001600160401b03808211156200016e578384fd5b818501915085601f83011262000182578384fd5b81518181111562000197576200019762000265565b6040516020601f8301601f1916820181018481118382101715620001bf57620001bf62000265565b6040528282528483018101891015620001d6578687fd5b8693505b82841015620001f95784840181015182850182015292830192620001da565b828411156200020a57868184840101525b8196506200021a81890162000127565b955050505050509250929050565b6002810460018216806200023d57607f821691505b602082108114156200025f57634e487b7160e01b600052602260045260246000fd5b50919050565b634e487b7160e01b600052604160045260246000fd5b611f58806200028b6000396000f3fe608060405234801561001057600080fd5b50600436106100de5760003560e01c80636b20c4541161008c578063a22cb46511610066578063a22cb465146101cf578063e985e9c5146101e2578063f242432a146101f5578063f5298aca14610208576100de565b80636b20c45414610194578063731133e9146101a75780639d35c161146101ba576100de565b80631f7fdffa116100bd5780631f7fdffa1461014c5780632eb2c2d6146101615780634e1273f414610174576100de565b8062fdd58e146100e357806301ffc9a71461010c5780630e89341c1461012c575b600080fd5b6100f66100f13660046115c8565b61021b565b6040516101039190611d48565b60405180910390f35b61011f61011a366004611734565b610272565b6040516101039190611906565b61013f61013a366004611773565b6102ba565b6040516101039190611911565b61015f61015a3660046114f9565b61034e565b005b61015f61016f36600461137f565b61039a565b610187610182366004611676565b610600565b60405161010391906118c5565b61015f6101a2366004611488565b610720565b61015f6101b5366004611623565b61077a565b6101c26107c0565b6040516101039190611810565b61015f6101dd36600461158e565b6107cf565b61011f6101f036600461134d565b61089d565b61015f610203366004611425565b6108cb565b61015f6102163660046115f1565b610a61565b60006001600160a01b03831661024c5760405162461bcd60e51b8152600401610243906119c9565b60405180910390fd5b506000908152602081815260408083206001600160a01b03949094168352929052205490565b60006001600160e01b03198216636cdb3d1360e11b14806102a357506001600160e01b031982166303a24d0760e21b145b806102b257506102b282610ab6565b90505b919050565b6060600280546102c990611ddc565b80601f01602080910402602001604051908101604052809291908181526020018280546102f590611ddc565b80156103425780601f1061031757610100808354040283529160200191610342565b820191906000526020600020905b81548152906001019060200180831161032557829003601f168201915b50505050509050919050565b6003546001600160a01b0316610362610acf565b6001600160a01b0316146103885760405162461bcd60e51b815260040161024390611aa1565b61039484848484610ad4565b50505050565b81518351146103bb5760405162461bcd60e51b815260040161024390611cbf565b6001600160a01b0384166103e15760405162461bcd60e51b815260040161024390611afe565b6103e9610acf565b6001600160a01b0316856001600160a01b0316148061040f575061040f856101f0610acf565b61042b5760405162461bcd60e51b815260040161024390611b43565b6000610435610acf565b9050610445818787878787610c5c565b60005b845181101561059257600085828151811061047357634e487b7160e01b600052603260045260246000fd5b60200260200101519050600085838151811061049f57634e487b7160e01b600052603260045260246000fd5b602090810291909101810151600084815280835260408082206001600160a01b038e1683529093529190912054909150818110156104ef5760405162461bcd60e51b815260040161024390611be3565b6104f98282611dc5565b60008085815260200190815260200160002060008c6001600160a01b03166001600160a01b03168152602001908152602001600020819055508160008085815260200190815260200160002060008b6001600160a01b03166001600160a01b0316815260200190815260200160002060008282546105779190611dad565b925050819055505050508061058b90611e17565b9050610448565b50846001600160a01b0316866001600160a01b0316826001600160a01b03167f4a39dc06d4c0dbc64b70af90fd698a233a518aa5d07e595d983b8c0526c8f7fb87876040516105e29291906118d8565b60405180910390a46105f8818787878787610c6a565b505050505050565b606081518351146106235760405162461bcd60e51b815260040161024390611c76565b6000835167ffffffffffffffff81111561064d57634e487b7160e01b600052604160045260246000fd5b604051908082528060200260200182016040528015610676578160200160208202803683370190505b50905060005b8451811015610718576106dd8582815181106106a857634e487b7160e01b600052603260045260246000fd5b60200260200101518583815181106106d057634e487b7160e01b600052603260045260246000fd5b602002602001015161021b565b8282815181106106fd57634e487b7160e01b600052603260045260246000fd5b602090810291909101015261071181611e17565b905061067c565b509392505050565b610728610acf565b6001600160a01b0316836001600160a01b0316148061074e575061074e836101f0610acf565b61076a5760405162461bcd60e51b815260040161024390611a58565b610775838383610d78565b505050565b6003546001600160a01b031661078e610acf565b6001600160a01b0316146107b45760405162461bcd60e51b815260040161024390611aa1565b61039484848484610f36565b6003546001600160a01b031681565b816001600160a01b03166107e1610acf565b6001600160a01b031614156108085760405162461bcd60e51b815260040161024390611c2d565b8060016000610815610acf565b6001600160a01b03908116825260208083019390935260409182016000908120918716808252919093529120805460ff191692151592909217909155610859610acf565b6001600160a01b03167f17307eab39ab6107e8899845ad3d59bd9653f200f220920489ca2b5937696c31836040516108919190611906565b60405180910390a35050565b6001600160a01b03918216600090815260016020908152604080832093909416825291909152205460ff1690565b6001600160a01b0384166108f15760405162461bcd60e51b815260040161024390611afe565b6108f9610acf565b6001600160a01b0316856001600160a01b0316148061091f575061091f856101f0610acf565b61093b5760405162461bcd60e51b815260040161024390611a58565b6000610945610acf565b905061096581878761095688611016565b61095f88611016565b87610c5c565b6000848152602081815260408083206001600160a01b038a168452909152902054838110156109a65760405162461bcd60e51b815260040161024390611be3565b6109b08482611dc5565b6000868152602081815260408083206001600160a01b038c811685529252808320939093558816815290812080548692906109ec908490611dad565b92505081905550856001600160a01b0316876001600160a01b0316836001600160a01b03167fc3d58168c5ae7397731d063d5bbf3d657854427343f4c083240f7aacaa2d0f628888604051610a42929190611d51565b60405180910390a4610a5882888888888861106f565b50505050505050565b610a69610acf565b6001600160a01b0316836001600160a01b03161480610a8f5750610a8f836101f0610acf565b610aab5760405162461bcd60e51b815260040161024390611a58565b610775838383611140565b6001600160e01b031981166301ffc9a760e01b14919050565b335b90565b6001600160a01b038416610afa5760405162461bcd60e51b815260040161024390611d07565b8151835114610b1b5760405162461bcd60e51b815260040161024390611cbf565b6000610b25610acf565b9050610b3681600087878787610c5c565b60005b8451811015610bed57838181518110610b6257634e487b7160e01b600052603260045260246000fd5b6020026020010151600080878481518110610b8d57634e487b7160e01b600052603260045260246000fd5b602002602001015181526020019081526020016000206000886001600160a01b03166001600160a01b031681526020019081526020016000206000828254610bd59190611dad565b90915550819050610be581611e17565b915050610b39565b50846001600160a01b031660006001600160a01b0316826001600160a01b03167f4a39dc06d4c0dbc64b70af90fd698a233a518aa5d07e595d983b8c0526c8f7fb8787604051610c3e9291906118d8565b60405180910390a4610c5581600087878787610c6a565b5050505050565b6105f88686868686866105f8565b610c7c846001600160a01b0316611259565b156105f85760405163bc197c8160e01b81526001600160a01b0385169063bc197c8190610cb59089908990889088908890600401611824565b602060405180830381600087803b158015610ccf57600080fd5b505af1925050508015610cff575060408051601f3d908101601f19168201909252610cfc91810190611757565b60015b610d4857610d0b611e64565b80610d165750610d30565b8060405162461bcd60e51b81526004016102439190611911565b60405162461bcd60e51b815260040161024390611924565b6001600160e01b0319811663bc197c8160e01b14610a585760405162461bcd60e51b815260040161024390611981565b6001600160a01b038316610d9e5760405162461bcd60e51b815260040161024390611ba0565b8051825114610dbf5760405162461bcd60e51b815260040161024390611cbf565b6000610dc9610acf565b9050610de981856000868660405180602001604052806000815250610c5c565b60005b8351811015610ed7576000848281518110610e1757634e487b7160e01b600052603260045260246000fd5b602002602001015190506000848381518110610e4357634e487b7160e01b600052603260045260246000fd5b602090810291909101810151600084815280835260408082206001600160a01b038c168352909352919091205490915081811015610e935760405162461bcd60e51b815260040161024390611a14565b610e9d8282611dc5565b6000938452602084815260408086206001600160a01b038c1687529091529093209290925550819050610ecf81611e17565b915050610dec565b5060006001600160a01b0316846001600160a01b0316826001600160a01b03167f4a39dc06d4c0dbc64b70af90fd698a233a518aa5d07e595d983b8c0526c8f7fb8686604051610f289291906118d8565b60405180910390a450505050565b6001600160a01b038416610f5c5760405162461bcd60e51b815260040161024390611d07565b6000610f66610acf565b9050610f788160008761095688611016565b6000848152602081815260408083206001600160a01b038916845290915281208054859290610fa8908490611dad565b92505081905550846001600160a01b031660006001600160a01b0316826001600160a01b03167fc3d58168c5ae7397731d063d5bbf3d657854427343f4c083240f7aacaa2d0f628787604051610fff929190611d51565b60405180910390a4610c558160008787878761106f565b6040805160018082528183019092526060916000919060208083019080368337019050509050828160008151811061105e57634e487b7160e01b600052603260045260246000fd5b602090810291909101015292915050565b611081846001600160a01b0316611259565b156105f85760405163f23a6e6160e01b81526001600160a01b0385169063f23a6e61906110ba9089908990889088908890600401611882565b602060405180830381600087803b1580156110d457600080fd5b505af1925050508015611104575060408051601f3d908101601f1916820190925261110191810190611757565b60015b61111057610d0b611e64565b6001600160e01b0319811663f23a6e6160e01b14610a585760405162461bcd60e51b815260040161024390611981565b6001600160a01b0383166111665760405162461bcd60e51b815260040161024390611ba0565b6000611170610acf565b90506111a08185600061118287611016565b61118b87611016565b60405180602001604052806000815250610c5c565b6000838152602081815260408083206001600160a01b0388168452909152902054828110156111e15760405162461bcd60e51b815260040161024390611a14565b6111eb8382611dc5565b6000858152602081815260408083206001600160a01b03808b16808652919093528184209490945551919291908516907fc3d58168c5ae7397731d063d5bbf3d657854427343f4c083240f7aacaa2d0f629061124a9089908990611d51565b60405180910390a45050505050565b3b151590565b80356001600160a01b03811681146102b557600080fd5b600082601f830112611286578081fd5b8135602061129b61129683611d89565b611d5f565b82815281810190858301838502870184018810156112b7578586fd5b855b858110156112d5578135845292840192908401906001016112b9565b5090979650505050505050565b600082601f8301126112f2578081fd5b813567ffffffffffffffff81111561130c5761130c611e48565b61131f601f8201601f1916602001611d5f565b818152846020838601011115611333578283fd5b816020850160208301379081016020019190915292915050565b6000806040838503121561135f578182fd5b6113688361125f565b91506113766020840161125f565b90509250929050565b600080600080600060a08688031215611396578081fd5b61139f8661125f565b94506113ad6020870161125f565b9350604086013567ffffffffffffffff808211156113c9578283fd5b6113d589838a01611276565b945060608801359150808211156113ea578283fd5b6113f689838a01611276565b9350608088013591508082111561140b578283fd5b50611418888289016112e2565b9150509295509295909350565b600080600080600060a0868803121561143c578081fd5b6114458661125f565b94506114536020870161125f565b93506040860135925060608601359150608086013567ffffffffffffffff81111561147c578182fd5b611418888289016112e2565b60008060006060848603121561149c578283fd5b6114a58461125f565b9250602084013567ffffffffffffffff808211156114c1578384fd5b6114cd87838801611276565b935060408601359150808211156114e2578283fd5b506114ef86828701611276565b9150509250925092565b6000806000806080858703121561150e578384fd5b6115178561125f565b9350602085013567ffffffffffffffff80821115611533578485fd5b61153f88838901611276565b94506040870135915080821115611554578384fd5b61156088838901611276565b93506060870135915080821115611575578283fd5b50611582878288016112e2565b91505092959194509250565b600080604083850312156115a0578182fd5b6115a98361125f565b9150602083013580151581146115bd578182fd5b809150509250929050565b600080604083850312156115da578182fd5b6115e38361125f565b946020939093013593505050565b600080600060608486031215611605578283fd5b61160e8461125f565b95602085013595506040909401359392505050565b60008060008060808587031215611638578182fd5b6116418561125f565b93506020850135925060408501359150606085013567ffffffffffffffff81111561166a578182fd5b611582878288016112e2565b60008060408385031215611688578182fd5b823567ffffffffffffffff8082111561169f578384fd5b818501915085601f8301126116b2578384fd5b813560206116c261129683611d89565b82815281810190858301838502870184018b10156116de578889fd5b8896505b84871015611707576116f38161125f565b8352600196909601959183019183016116e2565b509650508601359250508082111561171d578283fd5b5061172a85828601611276565b9150509250929050565b600060208284031215611745578081fd5b813561175081611f09565b9392505050565b600060208284031215611768578081fd5b815161175081611f09565b600060208284031215611784578081fd5b5035919050565b6000815180845260208085019450808401835b838110156117ba5781518752958201959082019060010161179e565b509495945050505050565b60008151808452815b818110156117ea576020818501810151868301820152016117ce565b818111156117fb5782602083870101525b50601f01601f19169290920160200192915050565b6001600160a01b0391909116815260200190565b60006001600160a01b03808816835280871660208401525060a0604083015261185060a083018661178b565b8281036060840152611862818661178b565b9050828103608084015261187681856117c5565b98975050505050505050565b60006001600160a01b03808816835280871660208401525084604083015283606083015260a060808301526118ba60a08301846117c5565b979650505050505050565b600060208252611750602083018461178b565b6000604082526118eb604083018561178b565b82810360208401526118fd818561178b565b95945050505050565b901515815260200190565b60006020825261175060208301846117c5565b60208082526034908201527f455243313135353a207472616e7366657220746f206e6f6e204552433131353560408201527f526563656976657220696d706c656d656e746572000000000000000000000000606082015260800190565b60208082526028908201527f455243313135353a204552433131353552656365697665722072656a656374656040820152676420746f6b656e7360c01b606082015260800190565b6020808252602b908201527f455243313135353a2062616c616e636520717565727920666f7220746865207a60408201526a65726f206164647265737360a81b606082015260800190565b60208082526024908201527f455243313135353a206275726e20616d6f756e7420657863656564732062616c604082015263616e636560e01b606082015260800190565b60208082526029908201527f455243313135353a2063616c6c6572206973206e6f74206f776e6572206e6f7260408201526808185c1c1c9bdd995960ba1b606082015260800190565b6020808252603a908201527f5052495649506f6445524331313535546f6b656e3a204f6e6c7920466163746f60408201527f72792063616e2063616c6c20746869732066756e6374696f6e2e000000000000606082015260800190565b60208082526025908201527f455243313135353a207472616e7366657220746f20746865207a65726f206164604082015264647265737360d81b606082015260800190565b60208082526032908201527f455243313135353a207472616e736665722063616c6c6572206973206e6f742060408201527f6f776e6572206e6f7220617070726f7665640000000000000000000000000000606082015260800190565b60208082526023908201527f455243313135353a206275726e2066726f6d20746865207a65726f206164647260408201526265737360e81b606082015260800190565b6020808252602a908201527f455243313135353a20696e73756666696369656e742062616c616e636520666f60408201526939103a3930b739b332b960b11b606082015260800190565b60208082526029908201527f455243313135353a2073657474696e6720617070726f76616c20737461747573604082015268103337b91039b2b63360b91b606082015260800190565b60208082526029908201527f455243313135353a206163636f756e747320616e6420696473206c656e677468604082015268040dad2e6dac2e8c6d60bb1b606082015260800190565b60208082526028908201527f455243313135353a2069647320616e6420616d6f756e7473206c656e677468206040820152670dad2e6dac2e8c6d60c31b606082015260800190565b60208082526021908201527f455243313135353a206d696e7420746f20746865207a65726f206164647265736040820152607360f81b606082015260800190565b90815260200190565b918252602082015260400190565b60405181810167ffffffffffffffff81118282101715611d8157611d81611e48565b604052919050565b600067ffffffffffffffff821115611da357611da3611e48565b5060209081020190565b60008219821115611dc057611dc0611e32565b500190565b600082821015611dd757611dd7611e32565b500390565b600281046001821680611df057607f821691505b60208210811415611e1157634e487b7160e01b600052602260045260246000fd5b50919050565b6000600019821415611e2b57611e2b611e32565b5060010190565b634e487b7160e01b600052601160045260246000fd5b634e487b7160e01b600052604160045260246000fd5b60e01c90565b600060443d1015611e7457610ad1565b600481823e6308c379a0611e888251611e5e565b14611e9257610ad1565b6040513d600319016004823e80513d67ffffffffffffffff8160248401118184111715611ec25750505050610ad1565b82840192508251915080821115611edc5750505050610ad1565b503d83016020828401011115611ef457505050610ad1565b601f01601f1916810160200160405291505090565b6001600160e01b031981168114611f1f57600080fd5b5056fea26469706673582212204c08af693e0a3c2675963c8af3dce6b5b8f6dc368954c8a071bdb511e5f9986164736f6c6343000800003371f3d55856e4058ed06ee057d79ada615f65cdf5f9ee88181b914225088f834fa264697066735822122002bf56ca548a1db6732aac7b3c8be15e386f15d61e70fc3c12e30e292ea6b0a864736f6c63430008000033",
  "immutableReferences": {},
  "source": "// SPDX-License-Identifier: MIT\npragma solidity ^0.8.0;\n\nimport \"@openzeppelin/contracts/access/AccessControl.sol\";\nimport \"./token/PRIVIPodERC1155Token.sol\";\nimport \"./interfaces/IBridgeManager.sol\";\n\n/**\n * @title   PRIVIPodERC1155Factory contract\n * @dev     Creates new ERC1155 tokens using a factory pattern\n * @author  PRIVI\n **/\ncontract PRIVIPodERC1155Factory is AccessControl {\n  bytes32 public constant MODERATOR_ROLE = keccak256(\"MODERATOR_ROLE\");\n  address public bridgeManagerAddress;\n  uint256 public totalPodCreated;\n  mapping(string => address) public podTokenAddressesByUri;\n  mapping(string => address) public podTokenAddressesById;\n\n  event PodCreated(string indexed uri, address podAddress);\n\n  /**\n   * @dev Grants `DEFAULT_ADMIN_ROLE` and `MODERATOR_ROLE` to the\n   * account that deploys the contract.\n   *\n   */\n  constructor(address bridgeAddress) {\n    _setupRole(DEFAULT_ADMIN_ROLE, _msgSender());\n    _setupRole(MODERATOR_ROLE, _msgSender());\n    bridgeManagerAddress = bridgeAddress;\n  }\n\n  //TODO: getTotalTokenCreated()\n\n  /**\n   * @notice  Assigns `MODERATOR_ROLE` to SwapManager contract\n   * @param   swapManagerAddress The SwapManager contract address\n   */\n  function assignRoleSwapManager(address swapManagerAddress) external {\n    require(\n      hasRole(MODERATOR_ROLE, _msgSender()),\n      \"PRIVIPodERC1155Factory: must have MODERATOR_ROLE to assign SwapManager address\"\n    );\n    _setupRole(MODERATOR_ROLE, swapManagerAddress);\n  }\n\n  /**\n   * @notice Returns the contract address of the Pod token\n   * @param  uri The Pod URI\n   * @return podAddress The contract address of the Pod token\n   */\n  function getPodAddressByUri(string calldata uri)\n    external\n    view\n    returns (address podAddress)\n  {\n    podAddress = podTokenAddressesByUri[uri];\n  }\n\n  /**\n   * @notice Returns the contract address of the Pod token\n   * @param  podId The Pod Id\n   * @return podAddress The contract address of the Pod token\n   */\n  function getPodAddressById(string calldata podId)\n    external\n    view\n    returns (address podAddress)\n  {\n    podAddress = podTokenAddressesById[podId];\n  }\n\n  /**\n   * @notice Creates an ERC1155 Pod token and registers it in the BridgeManager\n   * @dev    - Pod id must not exist\n   * @param  uri The base URI\n   */\n  function createPod(string calldata uri, string calldata podId)\n    external\n    returns (address podAddress)\n  {\n    // TODO: Check if URI already exists in previous token contracts?\n    // TODO: Check restrictions to create POD tokens\n    // require(\n    //   hasRole(MODERATOR_ROLE, _msgSender()),\n    //   \"PRIVIPodERC1155Factory: must have MODERATOR_ROLE to create pod.\"\n    // );\n    require(\n      podTokenAddressesById[podId] == address(0),\n      \"PRIVIPodERC1155TokenFactory: Pod id already exists.\"\n    );\n    require(\n      podTokenAddressesByUri[uri] == address(0),\n      \"PRIVIPodERC1155Factory: Pod already exists.\"\n    );\n    PRIVIPodERC1155Token podToken =\n      new PRIVIPodERC1155Token(uri, address(this));\n    podAddress = address(podToken);\n\n    totalPodCreated += 1;\n\n    podTokenAddressesByUri[uri] = podAddress;\n    podTokenAddressesById[podId] = podAddress;\n\n    IBridgeManager(bridgeManagerAddress).registerTokenERC1155(\n      uri,\n      uri,\n      podAddress\n    );\n\n    emit PodCreated(uri, podAddress);\n  }\n\n  /**\n   * @notice Mints ERC721 Pod tokens\n   * @dev    - The caller must be MODERATOR_ROLE\n   *         - `account` address can't be zero\n   * @param  uri The base URI\n   * @param  account The destination account to receive minted tokens\n   * @param  tokenId The Pod token identifier\n   * @param  amount The amount of tokens to be minted\n   * @param  data The data to be added (currently not used)\n   */\n  function mintPodTokenByUri(\n    string calldata uri,\n    address account,\n    uint256 tokenId,\n    uint256 amount,\n    bytes calldata data\n  ) external {\n    require(\n      hasRole(MODERATOR_ROLE, _msgSender()),\n      \"PRIVIPodERC1155Factory: must have MODERATOR_ROLE to invest for investor\"\n    );\n    require(\n      account != address(0),\n      \"PRIVIPodERC1155Factory: Account address should not be zero\"\n    );\n    require(amount > 0, \"PRIVIPodERC1155Factory: amount should not be zero\");\n\n    PRIVIPodERC1155Token(podTokenAddressesByUri[uri]).mint(\n      account,\n      tokenId,\n      amount,\n      data\n    );\n  }\n\n  /**\n   * @dev Moderator will mint the amount of pod token for the investor\"s account\n   *\n   * Requirements:\n   *\n   * - the caller must MODERATOR_ROLE to perform this action.\n   */\n  function mintPodTokenById(\n    string calldata podId,\n    address account,\n    uint256 tokenId,\n    uint256 amount,\n    bytes memory data\n  ) external {\n    require(\n      hasRole(MODERATOR_ROLE, _msgSender()),\n      \"PRIVIPodERC1155Factory: must have MODERATOR_ROLE to invest for investor.\"\n    );\n    require(\n      account != address(0),\n      \"PRIVIPodERC1155Factory: Account address should not be zero.\"\n    );\n    require(amount > 0, \"PRIVIPodERC1155Factory: amount should not be zero.\");\n    \n    PRIVIPodERC1155Token(podTokenAddressesById[podId]).mint(\n      account,\n      tokenId,\n      amount,\n      data\n    );\n  }\n\n  /**\n   * @dev Moderator will mint the amount of pod token for the investor\"s account\n   *\n   * Requirements:\n   *\n   * - the caller must MODERATOR_ROLE to perform this action.\n   */\n  function batchMintPodTokenByUri(\n    string calldata uri,\n    address account,\n    uint256[] memory tokenIds,\n    uint256[] memory amounts,\n    bytes calldata data\n  ) external {\n    require(\n      hasRole(MODERATOR_ROLE, _msgSender()),\n      \"PRIVIPodERC1155Factory: must have MODERATOR_ROLE to invest for investor\"\n    );\n    require(\n      account != address(0),\n      \"PRIVIPodERC1155Factory: Account address should not be zero\"\n    );\n    PRIVIPodERC1155Token(podTokenAddressesByUri[uri]).mintBatch(\n      account,\n      tokenIds,\n      amounts,\n      data\n    );\n  }\n\n  /**\n   * @dev Moderator will mint the amount of pod token for the investor\"s account\n   *\n   * Requirements:\n   *\n   * - the caller must MODERATOR_ROLE to perform this action.\n   */\n  function batchMintPodTokenById(\n    string calldata podId,\n    address account,\n    uint256[] memory tokenIds,\n    uint256[] memory amounts,\n    bytes calldata data\n  ) external {\n    require(\n      hasRole(MODERATOR_ROLE, _msgSender()),\n      \"PRIVIPodERC1155Factory: must have MODERATOR_ROLE to invest for investor.\"\n    );\n    require(\n      account != address(0),\n      \"PRIVIPodERC1155Factory: Account address should not be zero.\"\n    );\n    PRIVIPodERC1155Token(podTokenAddressesById[podId]).mintBatch(\n      account,\n      tokenIds,\n      amounts,\n      data\n    );\n  }\n}\n",
  "sourcePath": "/Volumes/Workspace/PRIVI/PRIVIethereum/contracts/PRIVIPodERC1155Factory.sol",
  "compiler": {
    "name": "solc",
    "version": "0.8.0+commit.c7dfd78e.Emscripten.clang"
  },
  "schemaVersion": "3.3.4",
  "updatedAt": "2021-04-23T14:01:46.173Z",
  "devdoc": {
    "author": "PRIVI*",
    "details": "Creates new ERC1155 tokens using a factory pattern",
    "kind": "dev",
    "methods": {
      "assignRoleSwapManager(address)": {
        "params": {
          "swapManagerAddress": "The SwapManager contract address"
        }
      },
      "batchMintPodTokenById(string,address,uint256[],uint256[],bytes)": {
        "details": "Moderator will mint the amount of pod token for the investor\"s account Requirements: - the caller must MODERATOR_ROLE to perform this action."
      },
      "batchMintPodTokenByUri(string,address,uint256[],uint256[],bytes)": {
        "details": "Moderator will mint the amount of pod token for the investor\"s account Requirements: - the caller must MODERATOR_ROLE to perform this action."
      },
      "constructor": {
        "details": "Grants `DEFAULT_ADMIN_ROLE` and `MODERATOR_ROLE` to the account that deploys the contract."
      },
      "createPod(string,string)": {
        "details": "- Pod id must not exist",
        "params": {
          "uri": "The base URI"
        }
      },
      "getPodAddressById(string)": {
        "params": {
          "podId": "The Pod Id"
        },
        "returns": {
          "podAddress": "The contract address of the Pod token"
        }
      },
      "getPodAddressByUri(string)": {
        "params": {
          "uri": "The Pod URI"
        },
        "returns": {
          "podAddress": "The contract address of the Pod token"
        }
      },
      "getRoleAdmin(bytes32)": {
        "details": "Returns the admin role that controls `role`. See {grantRole} and {revokeRole}. To change a role's admin, use {_setRoleAdmin}."
      },
      "grantRole(bytes32,address)": {
        "details": "Grants `role` to `account`. If `account` had not been already granted `role`, emits a {RoleGranted} event. Requirements: - the caller must have ``role``'s admin role."
      },
      "hasRole(bytes32,address)": {
        "details": "Returns `true` if `account` has been granted `role`."
      },
      "mintPodTokenById(string,address,uint256,uint256,bytes)": {
        "details": "Moderator will mint the amount of pod token for the investor\"s account Requirements: - the caller must MODERATOR_ROLE to perform this action."
      },
      "mintPodTokenByUri(string,address,uint256,uint256,bytes)": {
        "details": "- The caller must be MODERATOR_ROLE         - `account` address can't be zero",
        "params": {
          "account": "The destination account to receive minted tokens",
          "amount": "The amount of tokens to be minted",
          "data": "The data to be added (currently not used)",
          "tokenId": "The Pod token identifier",
          "uri": "The base URI"
        }
      },
      "renounceRole(bytes32,address)": {
        "details": "Revokes `role` from the calling account. Roles are often managed via {grantRole} and {revokeRole}: this function's purpose is to provide a mechanism for accounts to lose their privileges if they are compromised (such as when a trusted device is misplaced). If the calling account had been granted `role`, emits a {RoleRevoked} event. Requirements: - the caller must be `account`."
      },
      "revokeRole(bytes32,address)": {
        "details": "Revokes `role` from `account`. If `account` had been granted `role`, emits a {RoleRevoked} event. Requirements: - the caller must have ``role``'s admin role."
      },
      "supportsInterface(bytes4)": {
        "details": "See {IERC165-supportsInterface}."
      }
    },
    "title": "PRIVIPodERC1155Factory contract",
    "version": 1
  },
  "userdoc": {
    "kind": "user",
    "methods": {
      "assignRoleSwapManager(address)": {
        "notice": "Assigns `MODERATOR_ROLE` to SwapManager contract"
      },
      "createPod(string,string)": {
        "notice": "Creates an ERC1155 Pod token and registers it in the BridgeManager"
      },
      "getPodAddressById(string)": {
        "notice": "Returns the contract address of the Pod token"
      },
      "getPodAddressByUri(string)": {
        "notice": "Returns the contract address of the Pod token"
      },
      "mintPodTokenByUri(string,address,uint256,uint256,bytes)": {
        "notice": "Mints ERC721 Pod tokens"
      }
    },
    "version": 1
  }
}