{
  "contractName": "PRIVIPodERC721RoyaltyToken",
  "abi": [
    {
      "inputs": [
        {
          "internalType": "string",
          "name": "name",
          "type": "string"
        },
        {
          "internalType": "string",
          "name": "symbol",
          "type": "string"
        },
        {
          "internalType": "string",
          "name": "baseURI",
          "type": "string"
        },
        {
          "internalType": "address",
          "name": "factory",
          "type": "address"
        },
        {
          "internalType": "uint256",
          "name": "royaltyAmount",
          "type": "uint256"
        },
        {
          "internalType": "address",
          "name": "creator",
          "type": "address"
        }
      ],
      "stateMutability": "nonpayable",
      "type": "constructor"
    },
    {
      "anonymous": false,
      "inputs": [
        {
          "indexed": true,
          "internalType": "address",
          "name": "owner",
          "type": "address"
        },
        {
          "indexed": true,
          "internalType": "address",
          "name": "approved",
          "type": "address"
        },
        {
          "indexed": true,
          "internalType": "uint256",
          "name": "tokenId",
          "type": "uint256"
        }
      ],
      "name": "Approval",
      "type": "event"
    },
    {
      "anonymous": false,
      "inputs": [
        {
          "indexed": true,
          "internalType": "address",
          "name": "owner",
          "type": "address"
        },
        {
          "indexed": true,
          "internalType": "address",
          "name": "operator",
          "type": "address"
        },
        {
          "indexed": false,
          "internalType": "bool",
          "name": "approved",
          "type": "bool"
        }
      ],
      "name": "ApprovalForAll",
      "type": "event"
    },
    {
      "anonymous": false,
      "inputs": [
        {
          "indexed": true,
          "internalType": "address",
          "name": "creator",
          "type": "address"
        },
        {
          "indexed": true,
          "internalType": "address",
          "name": "buyer",
          "type": "address"
        },
        {
          "indexed": true,
          "internalType": "uint256",
          "name": "amount",
          "type": "uint256"
        }
      ],
      "name": "RecievedRoyalties",
      "type": "event"
    },
    {
      "anonymous": false,
      "inputs": [
        {
          "indexed": true,
          "internalType": "address",
          "name": "from",
          "type": "address"
        },
        {
          "indexed": true,
          "internalType": "address",
          "name": "to",
          "type": "address"
        },
        {
          "indexed": true,
          "internalType": "uint256",
          "name": "tokenId",
          "type": "uint256"
        }
      ],
      "name": "Transfer",
      "type": "event"
    },
    {
      "inputs": [
        {
          "internalType": "address",
          "name": "to",
          "type": "address"
        },
        {
          "internalType": "uint256",
          "name": "tokenId",
          "type": "uint256"
        }
      ],
      "name": "approve",
      "outputs": [],
      "stateMutability": "nonpayable",
      "type": "function"
    },
    {
      "inputs": [
        {
          "internalType": "address",
          "name": "owner",
          "type": "address"
        }
      ],
      "name": "balanceOf",
      "outputs": [
        {
          "internalType": "uint256",
          "name": "",
          "type": "uint256"
        }
      ],
      "stateMutability": "view",
      "type": "function"
    },
    {
      "inputs": [
        {
          "internalType": "uint256",
          "name": "tokenId",
          "type": "uint256"
        }
      ],
      "name": "burn",
      "outputs": [],
      "stateMutability": "nonpayable",
      "type": "function"
    },
    {
      "inputs": [
        {
          "internalType": "uint256",
          "name": "tokenId",
          "type": "uint256"
        }
      ],
      "name": "getApproved",
      "outputs": [
        {
          "internalType": "address",
          "name": "",
          "type": "address"
        }
      ],
      "stateMutability": "view",
      "type": "function"
    },
    {
      "inputs": [],
      "name": "hasRoyalties",
      "outputs": [
        {
          "internalType": "bool",
          "name": "",
          "type": "bool"
        }
      ],
      "stateMutability": "pure",
      "type": "function"
    },
    {
      "inputs": [
        {
          "internalType": "address",
          "name": "owner",
          "type": "address"
        },
        {
          "internalType": "address",
          "name": "operator",
          "type": "address"
        }
      ],
      "name": "isApprovedForAll",
      "outputs": [
        {
          "internalType": "bool",
          "name": "",
          "type": "bool"
        }
      ],
      "stateMutability": "view",
      "type": "function"
    },
    {
      "inputs": [],
      "name": "name",
      "outputs": [
        {
          "internalType": "string",
          "name": "",
          "type": "string"
        }
      ],
      "stateMutability": "view",
      "type": "function"
    },
    {
      "inputs": [
        {
          "internalType": "uint256",
          "name": "tokenId",
          "type": "uint256"
        }
      ],
      "name": "ownerOf",
      "outputs": [
        {
          "internalType": "address",
          "name": "",
          "type": "address"
        }
      ],
      "stateMutability": "view",
      "type": "function"
    },
    {
      "inputs": [],
      "name": "parentFactory",
      "outputs": [
        {
          "internalType": "address",
          "name": "",
          "type": "address"
        }
      ],
      "stateMutability": "view",
      "type": "function"
    },
    {
      "inputs": [
        {
          "internalType": "address",
          "name": "_creator",
          "type": "address"
        },
        {
          "internalType": "address",
          "name": "_buyer",
          "type": "address"
        },
        {
          "internalType": "uint256",
          "name": "_amount",
          "type": "uint256"
        }
      ],
      "name": "royaltiesRecieved",
      "outputs": [],
      "stateMutability": "nonpayable",
      "type": "function"
    },
    {
      "inputs": [],
      "name": "royaltyAmount",
      "outputs": [
        {
          "internalType": "uint256",
          "name": "",
          "type": "uint256"
        }
      ],
      "stateMutability": "view",
      "type": "function"
    },
    {
      "inputs": [],
      "name": "royaltyCreator",
      "outputs": [
        {
          "internalType": "address",
          "name": "",
          "type": "address"
        }
      ],
      "stateMutability": "view",
      "type": "function"
    },
    {
      "inputs": [],
      "name": "royaltyInfo",
      "outputs": [
        {
          "internalType": "uint256",
          "name": "",
          "type": "uint256"
        },
        {
          "internalType": "address",
          "name": "",
          "type": "address"
        }
      ],
      "stateMutability": "view",
      "type": "function"
    },
    {
      "inputs": [
        {
          "internalType": "address",
          "name": "from",
          "type": "address"
        },
        {
          "internalType": "address",
          "name": "to",
          "type": "address"
        },
        {
          "internalType": "uint256",
          "name": "tokenId",
          "type": "uint256"
        }
      ],
      "name": "safeTransferFrom",
      "outputs": [],
      "stateMutability": "nonpayable",
      "type": "function"
    },
    {
      "inputs": [
        {
          "internalType": "address",
          "name": "from",
          "type": "address"
        },
        {
          "internalType": "address",
          "name": "to",
          "type": "address"
        },
        {
          "internalType": "uint256",
          "name": "tokenId",
          "type": "uint256"
        },
        {
          "internalType": "bytes",
          "name": "_data",
          "type": "bytes"
        }
      ],
      "name": "safeTransferFrom",
      "outputs": [],
      "stateMutability": "nonpayable",
      "type": "function"
    },
    {
      "inputs": [
        {
          "internalType": "address",
          "name": "operator",
          "type": "address"
        },
        {
          "internalType": "bool",
          "name": "approved",
          "type": "bool"
        }
      ],
      "name": "setApprovalForAll",
      "outputs": [],
      "stateMutability": "nonpayable",
      "type": "function"
    },
    {
      "inputs": [
        {
          "internalType": "bytes4",
          "name": "interfaceId",
          "type": "bytes4"
        }
      ],
      "name": "supportsInterface",
      "outputs": [
        {
          "internalType": "bool",
          "name": "",
          "type": "bool"
        }
      ],
      "stateMutability": "view",
      "type": "function"
    },
    {
      "inputs": [],
      "name": "symbol",
      "outputs": [
        {
          "internalType": "string",
          "name": "",
          "type": "string"
        }
      ],
      "stateMutability": "view",
      "type": "function"
    },
    {
      "inputs": [
        {
          "internalType": "uint256",
          "name": "tokenId",
          "type": "uint256"
        }
      ],
      "name": "tokenURI",
      "outputs": [
        {
          "internalType": "string",
          "name": "",
          "type": "string"
        }
      ],
      "stateMutability": "view",
      "type": "function"
    },
    {
      "inputs": [
        {
          "internalType": "address",
          "name": "from",
          "type": "address"
        },
        {
          "internalType": "address",
          "name": "to",
          "type": "address"
        },
        {
          "internalType": "uint256",
          "name": "tokenId",
          "type": "uint256"
        }
      ],
      "name": "transferFrom",
      "outputs": [],
      "stateMutability": "nonpayable",
      "type": "function"
    },
    {
      "inputs": [
        {
          "internalType": "address",
          "name": "to",
          "type": "address"
        },
        {
          "internalType": "uint256",
          "name": "tokenId",
          "type": "uint256"
        }
      ],
      "name": "mint",
      "outputs": [],
      "stateMutability": "nonpayable",
      "type": "function"
    },
    {
      "inputs": [
        {
          "internalType": "uint256",
          "name": "sellAmount",
          "type": "uint256"
        },
        {
          "internalType": "uint256",
          "name": "tokenId",
          "type": "uint256"
        },
        {
          "internalType": "address",
          "name": "from",
          "type": "address"
        },
        {
          "internalType": "address",
          "name": "to",
          "type": "address"
        }
      ],
      "name": "marketSell",
      "outputs": [],
      "stateMutability": "payable",
      "type": "function"
    },
    {
      "inputs": [],
      "name": "getRoyaltyOwner",
      "outputs": [
        {
          "internalType": "address",
          "name": "",
          "type": "address"
        }
      ],
      "stateMutability": "view",
      "type": "function"
    }
  ],
  "bytecode": "0x60806040523480156200001157600080fd5b5060405162001f2a38038062001f2a833981016040819052620000349162000233565b81818787816000908051906020019062000050929190620000c5565b50805162000066906001906020840190620000c5565b505050600691909155600780546001600160a01b03199081166001600160a01b03938416179091556001600855600980549091169185169190911790558351620000b890600a906020870190620000c5565b5050505050505062000341565b828054620000d390620002ee565b90600052602060002090601f016020900481019282620000f7576000855562000142565b82601f106200011257805160ff191683800117855562000142565b8280016001018555821562000142579182015b828111156200014257825182559160200191906001019062000125565b506200015092915062000154565b5090565b5b8082111562000150576000815560010162000155565b80516001600160a01b03811681146200018357600080fd5b919050565b600082601f83011262000199578081fd5b81516001600160401b0380821115620001b657620001b66200032b565b6040516020601f8401601f1916820181018381118382101715620001de57620001de6200032b565b6040528382528584018101871015620001f5578485fd5b8492505b83831015620002185785830181015182840182015291820191620001f9565b838311156200022957848185840101525b5095945050505050565b60008060008060008060c087890312156200024c578182fd5b86516001600160401b038082111562000263578384fd5b620002718a838b0162000188565b9750602089015191508082111562000287578384fd5b620002958a838b0162000188565b96506040890151915080821115620002ab578384fd5b50620002ba89828a0162000188565b945050620002cb606088016200016b565b925060808701519150620002e260a088016200016b565b90509295509295509295565b6002810460018216806200030357607f821691505b602082108114156200032557634e487b7160e01b600052602260045260246000fd5b50919050565b634e487b7160e01b600052604160045260246000fd5b611bd980620003516000396000f3fe6080604052600436106101705760003560e01c8063656605d6116100d65780639d35c1611161007f578063c87b56dd11610059578063c87b56dd146103d5578063cfd0244b146103f5578063e985e9c51461040857610170565b80639d35c16114610380578063a22cb46514610395578063b88d4fde146103b557610170565b806384a09c27116100b057806384a09c271461034b57806395d89b411461036b5780639822e8c01461021c57610170565b8063656605d6146102f457806370a08231146103095780637c6e551d1461033657610170565b806323b872dd1161013857806342966c681161011257806342966c681461029157806346e80720146102b15780636352211e146102d457610170565b806323b872dd1461023157806340c10f191461025157806342842e0e1461027157610170565b806301ffc9a71461017557806306fdde03146101ab578063081812fc146101cd578063095ea7b3146101fa5780632129cf8f1461021c575b600080fd5b34801561018157600080fd5b5061019561019036600461133d565b610428565b6040516101a29190611480565b60405180910390f35b3480156101b757600080fd5b506101c0610470565b6040516101a2919061148b565b3480156101d957600080fd5b506101ed6101e8366004611375565b610502565b6040516101a29190611430565b34801561020657600080fd5b5061021a610215366004611314565b61054e565b005b34801561022857600080fd5b506101ed6105e6565b34801561023d57600080fd5b5061021a61024c3660046111d3565b6105f5565b34801561025d57600080fd5b5061021a61026c366004611314565b61062d565b34801561027d57600080fd5b5061021a61028c3660046111d3565b610675565b34801561029d57600080fd5b5061021a6102ac366004611375565b610690565b3480156102bd57600080fd5b506102c66106c3565b6040516101a2929190611a3c565b3480156102e057600080fd5b506101ed6102ef366004611375565b6106d6565b34801561030057600080fd5b5061019561070b565b34801561031557600080fd5b50610329610324366004611187565b610710565b6040516101a29190611a33565b34801561034257600080fd5b50610329610754565b34801561035757600080fd5b5061021a6103663660046111d3565b61075a565b34801561037757600080fd5b506101c06107a0565b34801561038c57600080fd5b506101ed6107af565b3480156103a157600080fd5b5061021a6103b03660046112da565b6107be565b3480156103c157600080fd5b5061021a6103d036600461120e565b61088c565b3480156103e157600080fd5b506101c06103f0366004611375565b6108cb565b61021a61040336600461138d565b61094e565b34801561041457600080fd5b506101956104233660046111a1565b610acc565b60006001600160e01b031982166380ac58cd60e01b148061045957506001600160e01b03198216635b5e139f60e01b145b80610468575061046882610afa565b90505b919050565b60606000805461047f90611ae1565b80601f01602080910402602001604051908101604052809291908181526020018280546104ab90611ae1565b80156104f85780601f106104cd576101008083540402835291602001916104f8565b820191906000526020600020905b8154815290600101906020018083116104db57829003601f168201915b5050505050905090565b600061050d82610b13565b6105325760405162461bcd60e51b8152600401610529906117d8565b60405180910390fd5b506000908152600460205260409020546001600160a01b031690565b6000610559826106d6565b9050806001600160a01b0316836001600160a01b0316141561058d5760405162461bcd60e51b815260040161052990611901565b806001600160a01b031661059f610b30565b6001600160a01b031614806105bb57506105bb81610423610b30565b6105d75760405162461bcd60e51b815260040161052990611656565b6105e18383610b34565b505050565b6007546001600160a01b031690565b610606610600610b30565b82610ba2565b6106225760405162461bcd60e51b815260040161052990611942565b6105e1838383610c27565b6009546001600160a01b0316610641610b30565b6001600160a01b0316146106675760405162461bcd60e51b815260040161052990611532565b6106718282610d54565b5050565b6105e18383836040518060200160405280600081525061088c565b61069b610600610b30565b6106b75760405162461bcd60e51b8152600401610529906119d6565b6106c081610e33565b50565b6006546007546001600160a01b03169091565b6000818152600260205260408120546001600160a01b0316806104685760405162461bcd60e51b8152600401610529906116fd565b600190565b60006001600160a01b0382166107385760405162461bcd60e51b8152600401610529906116b3565b506001600160a01b031660009081526003602052604090205490565b60065490565b80826001600160a01b0316846001600160a01b03167f06cb0b9d04d0ac2a93b9b9a93ee6c2511e069efb107c06eee43c85021fbc04ed60405160405180910390a4505050565b60606001805461047f90611ae1565b6009546001600160a01b031681565b6107c6610b30565b6001600160a01b0316826001600160a01b031614156107f75760405162461bcd60e51b8152600401610529906115d3565b8060056000610804610b30565b6001600160a01b03908116825260208083019390935260409182016000908120918716808252919093529120805460ff191692151592909217909155610848610b30565b6001600160a01b03167f17307eab39ab6107e8899845ad3d59bd9653f200f220920489ca2b5937696c31836040516108809190611480565b60405180910390a35050565b61089d610897610b30565b83610ba2565b6108b95760405162461bcd60e51b815260040161052990611942565b6108c584848484610eda565b50505050565b60606108d682610b13565b6108f25760405162461bcd60e51b81526004016105299061186d565b60006108fc610f0d565b9050600081511161091c5760405180602001604052806000815250610947565b8061092684610f1c565b6040516020016109379291906113fe565b6040516020818303038152906040525b9392505050565b600260085414156109715760405162461bcd60e51b81526004016105299061199f565b60026008553484146109955760405162461bcd60e51b815260040161052990611746565b60006064600654346109a79190611a7f565b6109b19190611a6b565b6007546040519192506001600160a01b031690600090829084906109d49061142d565b60006040518083038185875af1925050503d8060008114610a11576040519150601f19603f3d011682016040523d82523d6000602084013e610a16565b606091505b5050905080610a375760405162461bcd60e51b8152600401610529906118ca565b6001600160a01b0385166108fc610a4e8534611a9e565b6040518115909202916000818181858888f19350505050158015610a76573d6000803e3d6000fd5b50610aa78585886040518060400160405280600c81526020016b1c9bde585b1d1e481c185a5960a21b81525061088c565b600754610abe906001600160a01b0316858561075a565b505060016008555050505050565b6001600160a01b03918216600090815260056020908152604080832093909416825291909152205460ff1690565b6001600160e01b031981166301ffc9a760e01b14919050565b6000908152600260205260409020546001600160a01b0316151590565b3390565b600081815260046020526040902080546001600160a01b0319166001600160a01b0384169081179091558190610b69826106d6565b6001600160a01b03167f8c5be1e5ebec7d5bd14f71427d1e84f3dd0314c0f7b2291e5b200ac8c7c3b92560405160405180910390a45050565b6000610bad82610b13565b610bc95760405162461bcd60e51b81526004016105299061160a565b6000610bd4836106d6565b9050806001600160a01b0316846001600160a01b03161480610c0f5750836001600160a01b0316610c0484610502565b6001600160a01b0316145b80610c1f5750610c1f8185610acc565b949350505050565b826001600160a01b0316610c3a826106d6565b6001600160a01b031614610c605760405162461bcd60e51b815260040161052990611824565b6001600160a01b038216610c865760405162461bcd60e51b81526004016105299061158f565b610c918383836105e1565b610c9c600082610b34565b6001600160a01b0383166000908152600360205260408120805460019290610cc5908490611a9e565b90915550506001600160a01b0382166000908152600360205260408120805460019290610cf3908490611a53565b909155505060008181526002602052604080822080546001600160a01b0319166001600160a01b0386811691821790925591518493918716917fddf252ad1be2c89b69c2b068fc378daa952ba7f163c4a11628f55a4df523b3ef91a4505050565b6001600160a01b038216610d7a5760405162461bcd60e51b8152600401610529906117a3565b610d8381610b13565b15610da05760405162461bcd60e51b8152600401610529906114fb565b610dac600083836105e1565b6001600160a01b0382166000908152600360205260408120805460019290610dd5908490611a53565b909155505060008181526002602052604080822080546001600160a01b0319166001600160a01b03861690811790915590518392907fddf252ad1be2c89b69c2b068fc378daa952ba7f163c4a11628f55a4df523b3ef908290a45050565b6000610e3e826106d6565b9050610e4c816000846105e1565b610e57600083610b34565b6001600160a01b0381166000908152600360205260408120805460019290610e80908490611a9e565b909155505060008281526002602052604080822080546001600160a01b0319169055518391906001600160a01b038416907fddf252ad1be2c89b69c2b068fc378daa952ba7f163c4a11628f55a4df523b3ef908390a45050565b610ee5848484610c27565b610ef18484848461104f565b6108c55760405162461bcd60e51b81526004016105299061149e565b6060600a805461047f90611ae1565b606081610f4157506040805180820190915260018152600360fc1b602082015261046b565b8160005b8115610f6b5780610f5581611b1c565b9150610f649050600a83611a6b565b9150610f45565b60008167ffffffffffffffff811115610f9457634e487b7160e01b600052604160045260246000fd5b6040519080825280601f01601f191660200182016040528015610fbe576020820181803683370190505b5090505b8415610c1f57610fd3600183611a9e565b9150610fe0600a86611b37565b610feb906030611a53565b60f81b81838151811061100e57634e487b7160e01b600052603260045260246000fd5b60200101907effffffffffffffffffffffffffffffffffffffffffffffffffffffffffffff1916908160001a905350611048600a86611a6b565b9450610fc2565b6000611063846001600160a01b031661116a565b1561115f57836001600160a01b031663150b7a0261107f610b30565b8786866040518563ffffffff1660e01b81526004016110a19493929190611444565b602060405180830381600087803b1580156110bb57600080fd5b505af19250505080156110eb575060408051601f3d908101601f191682019092526110e891810190611359565b60015b611145573d808015611119576040519150601f19603f3d011682016040523d82523d6000602084013e61111e565b606091505b50805161113d5760405162461bcd60e51b81526004016105299061149e565b805181602001fd5b6001600160e01b031916630a85bd0160e11b149050610c1f565b506001949350505050565b3b151590565b80356001600160a01b038116811461046b57600080fd5b600060208284031215611198578081fd5b61094782611170565b600080604083850312156111b3578081fd5b6111bc83611170565b91506111ca60208401611170565b90509250929050565b6000806000606084860312156111e7578081fd5b6111f084611170565b92506111fe60208501611170565b9150604084013590509250925092565b60008060008060808587031215611223578081fd5b61122c85611170565b9350602061123b818701611170565b935060408601359250606086013567ffffffffffffffff8082111561125e578384fd5b818801915088601f830112611271578384fd5b81358181111561128357611283611b77565b604051601f8201601f19168101850183811182821017156112a6576112a6611b77565b60405281815283820185018b10156112bc578586fd5b81858501868301379081019093019390935250939692955090935050565b600080604083850312156112ec578182fd5b6112f583611170565b915060208301358015158114611309578182fd5b809150509250929050565b60008060408385031215611326578182fd5b61132f83611170565b946020939093013593505050565b60006020828403121561134e578081fd5b813561094781611b8d565b60006020828403121561136a578081fd5b815161094781611b8d565b600060208284031215611386578081fd5b5035919050565b600080600080608085870312156113a2578384fd5b84359350602085013592506113b960408601611170565b91506113c760608601611170565b905092959194509250565b600081518084526113ea816020860160208601611ab5565b601f01601f19169290920160200192915050565b60008351611410818460208801611ab5565b835190830190611424818360208801611ab5565b01949350505050565b90565b6001600160a01b0391909116815260200190565b60006001600160a01b0380871683528086166020840152508360408301526080606083015261147660808301846113d2565b9695505050505050565b901515815260200190565b60006020825261094760208301846113d2565b60208082526032908201527f4552433732313a207472616e7366657220746f206e6f6e20455243373231526560408201527f63656976657220696d706c656d656e7465720000000000000000000000000000606082015260800190565b6020808252601c908201527f4552433732313a20746f6b656e20616c7265616479206d696e74656400000000604082015260600190565b60208082526039908201527f5052495649506f64455243373231546f6b656e3a204f6e6c7920466163746f7260408201527f792063616e2063616c6c20746869732066756e6374696f6e2e00000000000000606082015260800190565b60208082526024908201527f4552433732313a207472616e7366657220746f20746865207a65726f206164646040820152637265737360e01b606082015260800190565b60208082526019908201527f4552433732313a20617070726f766520746f2063616c6c657200000000000000604082015260600190565b6020808252602c908201527f4552433732313a206f70657261746f7220717565727920666f72206e6f6e657860408201526b34b9ba32b73a103a37b5b2b760a11b606082015260800190565b60208082526038908201527f4552433732313a20617070726f76652063616c6c6572206973206e6f74206f7760408201527f6e6572206e6f7220617070726f76656420666f7220616c6c0000000000000000606082015260800190565b6020808252602a908201527f4552433732313a2062616c616e636520717565727920666f7220746865207a65604082015269726f206164647265737360b01b606082015260800190565b60208082526029908201527f4552433732313a206f776e657220717565727920666f72206e6f6e657869737460408201526832b73a103a37b5b2b760b91b606082015260800190565b60208082526039908201527f5052495649506f64455243373231526f79616c7479546f6b656e3a20726f796160408201527f6c747920616d6f756e74206973206e6f7420636f727265637400000000000000606082015260800190565b6020808252818101527f4552433732313a206d696e7420746f20746865207a65726f2061646472657373604082015260600190565b6020808252602c908201527f4552433732313a20617070726f76656420717565727920666f72206e6f6e657860408201526b34b9ba32b73a103a37b5b2b760a11b606082015260800190565b60208082526029908201527f4552433732313a207472616e73666572206f6620746f6b656e2074686174206960408201526839903737ba1037bbb760b91b606082015260800190565b6020808252602f908201527f4552433732314d657461646174613a2055524920717565727920666f72206e6f60408201527f6e6578697374656e7420746f6b656e0000000000000000000000000000000000606082015260800190565b60208082526016908201527f4661696c656420746f2073656e6420726f79616c747900000000000000000000604082015260600190565b60208082526021908201527f4552433732313a20617070726f76616c20746f2063757272656e74206f776e656040820152603960f91b606082015260800190565b60208082526031908201527f4552433732313a207472616e736665722063616c6c6572206973206e6f74206f60408201527f776e6572206e6f7220617070726f766564000000000000000000000000000000606082015260800190565b6020808252601f908201527f5265656e7472616e637947756172643a207265656e7472616e742063616c6c00604082015260600190565b60208082526030908201527f4552433732314275726e61626c653a2063616c6c6572206973206e6f74206f7760408201527f6e6572206e6f7220617070726f76656400000000000000000000000000000000606082015260800190565b90815260200190565b9182526001600160a01b0316602082015260400190565b60008219821115611a6657611a66611b4b565b500190565b600082611a7a57611a7a611b61565b500490565b6000816000190483118215151615611a9957611a99611b4b565b500290565b600082821015611ab057611ab0611b4b565b500390565b60005b83811015611ad0578181015183820152602001611ab8565b838111156108c55750506000910152565b600281046001821680611af557607f821691505b60208210811415611b1657634e487b7160e01b600052602260045260246000fd5b50919050565b6000600019821415611b3057611b30611b4b565b5060010190565b600082611b4657611b46611b61565b500690565b634e487b7160e01b600052601160045260246000fd5b634e487b7160e01b600052601260045260246000fd5b634e487b7160e01b600052604160045260246000fd5b6001600160e01b0319811681146106c057600080fdfea26469706673582212206d19c1bab10f4981a7c4f808f79e86c9655d459948f3b3ac5e2f51e57c9d934e64736f6c63430008000033",
  "immutableReferences": {},
  "source": "// SPDX-License-Identifier: MIT\npragma solidity ^0.8.0;\n\nimport \"@openzeppelin/contracts/token/ERC721/ERC721.sol\";\nimport \"@openzeppelin/contracts/token/ERC721/extensions/ERC721Burnable.sol\";\nimport \"@openzeppelin/contracts/security/ReentrancyGuard.sol\";\nimport \"../abstracts/NFTRoyalty.sol\";\n\n/**\n * @dev {ERC20} token, including:\n *\n *  - ability for holders to burn (destroy) their tokens\n *  - a factoryOnly modifier, that grants mint capabilities only to factory who deployed this pod token contract\n *\n */\ncontract PRIVIPodERC721RoyaltyToken is Context, ERC721Burnable, NFTRoyalty, ReentrancyGuard {\n\n  address public parentFactory;\n\n  string private _baseTokenURI;\n\n  /**\n   * @dev Sets factory address\n   *\n   * See {ERC20-constructor}.\n   */\n  constructor(\n    string memory name,\n    string memory symbol,\n    string memory baseURI,\n    address factory,\n    uint256 royaltyAmount,\n    address creator\n  ) ERC721(name, symbol) NFTRoyalty(royaltyAmount, creator) {\n    parentFactory = factory;\n    _baseTokenURI = baseURI;\n  }\n\n  modifier onlyFactory() {\n    require(\n      _msgSender() == parentFactory,\n      \"PRIVIPodERC721Token: Only Factory can call this function.\"\n    );\n    _;\n  }\n\n  function _baseURI() internal view virtual override returns (string memory) {\n    return _baseTokenURI;\n  }\n\n  /**\n   * @dev Creates `amount` new tokens for `to`.\n   *\n   * See {ERC20-_mint}.\n   *\n   * Requirements:\n   *\n   * - the caller must be factory only.\n   */\n  function mint(address to, uint256 tokenId) public virtual onlyFactory {\n    // We cannot just use balanceOf to create the new tokenId because tokens\n    // can be burned (destroyed)\n    _mint(to, tokenId);\n  }\n\n  /**\n   * @dev Safely transfers `tokenId` token from `from` to `to`, checking first that contract recipients\n   * are aware of the ERC721 protocol to prevent tokens from being forever locked.\n   * Then pay royalty amount.\n   *\n   * Requirements:\n   *\n   * - approval from current owner of token id\n   *\n   * Emits a {RecievedRoyalties} event.\n   *\n   * Problems: TODO: may have reentrancy\n   */\n  function marketSell(\n    uint256 sellAmount,\n    uint256 tokenId,\n    address from,\n    address to\n  ) public payable nonReentrant {\n    // make sure all the fund is deposited here first\n    require(\n      msg.value == sellAmount,\n      \"PRIVIPodERC721RoyaltyToken: royalty amount is not correct\"\n    );\n\n    // pay creator\n    // TODO: needs testing for very low and hi amount\n    uint256 creatorShare = (msg.value * royalty_amount) / 100;\n    address payable royaltyOwner = payable(creator);\n    (bool transferSuccess, ) = royaltyOwner.call{value: creatorShare}(\"\");\n    require(\n        transferSuccess,\n        \"Failed to send royalty\"\n    );\n\n    // pay current owner\n    payable(from).transfer(msg.value - creatorShare);\n\n    // transfer token\n    safeTransferFrom(from, to, tokenId, bytes(\"royalty paid\"));\n\n    // event\n    royaltiesRecieved(creator, to, creatorShare);\n  }\n\n  function getRoyaltyOwner() external view returns(address) {\n      return creator;\n  }\n\n  /*\n  function _beforeTokenTransfer(\n    address from,\n    address to,\n    uint256 tokenId\n  ) internal virtual override(ERC721) {\n    super._beforeTokenTransfer(from, to, tokenId);\n  }\n  */\n}\n",
  "sourcePath": "/Volumes/Workspace/PRIVI/PRIVIethereum/contracts/token/PRIVIPodERC721RoyaltyToken.sol",
  "compiler": {
    "name": "solc",
    "version": "0.8.0+commit.c7dfd78e.Emscripten.clang"
  },
  "schemaVersion": "3.3.4",
  "updatedAt": "2021-04-23T14:01:46.926Z",
  "devdoc": {
    "details": "{ERC20} token, including:  - ability for holders to burn (destroy) their tokens  - a factoryOnly modifier, that grants mint capabilities only to factory who deployed this pod token contract",
    "kind": "dev",
    "methods": {
      "approve(address,uint256)": {
        "details": "See {IERC721-approve}."
      },
      "balanceOf(address)": {
        "details": "See {IERC721-balanceOf}."
      },
      "burn(uint256)": {
        "details": "Burns `tokenId`. See {ERC721-_burn}. Requirements: - The caller must own `tokenId` or be an approved operator."
      },
      "constructor": {
        "details": "Sets factory address See {ERC20-constructor}."
      },
      "getApproved(uint256)": {
        "details": "See {IERC721-getApproved}."
      },
      "isApprovedForAll(address,address)": {
        "details": "See {IERC721-isApprovedForAll}."
      },
      "marketSell(uint256,uint256,address,address)": {
        "details": "Safely transfers `tokenId` token from `from` to `to`, checking first that contract recipients are aware of the ERC721 protocol to prevent tokens from being forever locked. Then pay royalty amount. Requirements: - approval from current owner of token id Emits a {RecievedRoyalties} event. Problems: TODO: may have reentrancy"
      },
      "mint(address,uint256)": {
        "details": "Creates `amount` new tokens for `to`. See {ERC20-_mint}. Requirements: - the caller must be factory only."
      },
      "name()": {
        "details": "See {IERC721Metadata-name}."
      },
      "ownerOf(uint256)": {
        "details": "See {IERC721-ownerOf}."
      },
      "safeTransferFrom(address,address,uint256)": {
        "details": "See {IERC721-safeTransferFrom}."
      },
      "safeTransferFrom(address,address,uint256,bytes)": {
        "details": "See {IERC721-safeTransferFrom}."
      },
      "setApprovalForAll(address,bool)": {
        "details": "See {IERC721-setApprovalForAll}."
      },
      "supportsInterface(bytes4)": {
        "details": "See {IERC165-supportsInterface}."
      },
      "symbol()": {
        "details": "See {IERC721Metadata-symbol}."
      },
      "tokenURI(uint256)": {
        "details": "See {IERC721Metadata-tokenURI}."
      },
      "transferFrom(address,address,uint256)": {
        "details": "See {IERC721-transferFrom}."
      }
    },
    "version": 1
  },
  "userdoc": {
    "events": {
      "RecievedRoyalties(address,address,uint256)": {
        "notice": "(Mandatory) This event is emitted when royalties are transfered."
      }
    },
    "kind": "user",
    "methods": {
      "hasRoyalties()": {
        "notice": "(optional) check if NFT has royalty"
      },
      "royaltiesRecieved(address,address,uint256)": {
        "notice": "(optional) check if NFT has royalty"
      },
      "royaltyAmount()": {
        "notice": "(optional) get royalty amount"
      },
      "royaltyCreator()": {
        "notice": "(optional) get royalty creator address"
      },
      "royaltyInfo()": {
        "notice": "(Mandatory) This Function retrieve royalty info."
      }
    },
    "version": 1
  }
}