{
  "contractName": "PRIVIPodERC1155RoyaltyFactoryWhiteListed",
  "abi": [
    {
      "inputs": [
        {
          "internalType": "address",
          "name": "bridgeAddress",
          "type": "address"
        }
      ],
      "stateMutability": "nonpayable",
      "type": "constructor"
    },
    {
      "anonymous": false,
      "inputs": [
        {
          "indexed": true,
          "internalType": "string",
          "name": "uri",
          "type": "string"
        },
        {
          "indexed": false,
          "internalType": "address",
          "name": "podAddress",
          "type": "address"
        }
      ],
      "name": "PodCreated",
      "type": "event"
    },
    {
      "anonymous": false,
      "inputs": [
        {
          "indexed": true,
          "internalType": "bytes32",
          "name": "role",
          "type": "bytes32"
        },
        {
          "indexed": true,
          "internalType": "bytes32",
          "name": "previousAdminRole",
          "type": "bytes32"
        },
        {
          "indexed": true,
          "internalType": "bytes32",
          "name": "newAdminRole",
          "type": "bytes32"
        }
      ],
      "name": "RoleAdminChanged",
      "type": "event"
    },
    {
      "anonymous": false,
      "inputs": [
        {
          "indexed": true,
          "internalType": "bytes32",
          "name": "role",
          "type": "bytes32"
        },
        {
          "indexed": true,
          "internalType": "address",
          "name": "account",
          "type": "address"
        },
        {
          "indexed": true,
          "internalType": "address",
          "name": "sender",
          "type": "address"
        }
      ],
      "name": "RoleGranted",
      "type": "event"
    },
    {
      "anonymous": false,
      "inputs": [
        {
          "indexed": true,
          "internalType": "bytes32",
          "name": "role",
          "type": "bytes32"
        },
        {
          "indexed": true,
          "internalType": "address",
          "name": "account",
          "type": "address"
        },
        {
          "indexed": true,
          "internalType": "address",
          "name": "sender",
          "type": "address"
        }
      ],
      "name": "RoleRevoked",
      "type": "event"
    },
    {
      "inputs": [],
      "name": "DEFAULT_ADMIN_ROLE",
      "outputs": [
        {
          "internalType": "bytes32",
          "name": "",
          "type": "bytes32"
        }
      ],
      "stateMutability": "view",
      "type": "function"
    },
    {
      "inputs": [],
      "name": "MODERATOR_ROLE",
      "outputs": [
        {
          "internalType": "bytes32",
          "name": "",
          "type": "bytes32"
        }
      ],
      "stateMutability": "view",
      "type": "function"
    },
    {
      "inputs": [],
      "name": "bridgeManagerAddress",
      "outputs": [
        {
          "internalType": "address",
          "name": "",
          "type": "address"
        }
      ],
      "stateMutability": "view",
      "type": "function"
    },
    {
      "inputs": [
        {
          "internalType": "bytes32",
          "name": "role",
          "type": "bytes32"
        }
      ],
      "name": "getRoleAdmin",
      "outputs": [
        {
          "internalType": "bytes32",
          "name": "",
          "type": "bytes32"
        }
      ],
      "stateMutability": "view",
      "type": "function"
    },
    {
      "inputs": [
        {
          "internalType": "bytes32",
          "name": "role",
          "type": "bytes32"
        },
        {
          "internalType": "address",
          "name": "account",
          "type": "address"
        }
      ],
      "name": "grantRole",
      "outputs": [],
      "stateMutability": "nonpayable",
      "type": "function"
    },
    {
      "inputs": [
        {
          "internalType": "bytes32",
          "name": "role",
          "type": "bytes32"
        },
        {
          "internalType": "address",
          "name": "account",
          "type": "address"
        }
      ],
      "name": "hasRole",
      "outputs": [
        {
          "internalType": "bool",
          "name": "",
          "type": "bool"
        }
      ],
      "stateMutability": "view",
      "type": "function"
    },
    {
      "inputs": [
        {
          "internalType": "string",
          "name": "",
          "type": "string"
        }
      ],
      "name": "podTokenAddressesById",
      "outputs": [
        {
          "internalType": "address",
          "name": "",
          "type": "address"
        }
      ],
      "stateMutability": "view",
      "type": "function"
    },
    {
      "inputs": [
        {
          "internalType": "string",
          "name": "",
          "type": "string"
        }
      ],
      "name": "podTokenAddressesByUri",
      "outputs": [
        {
          "internalType": "address",
          "name": "",
          "type": "address"
        }
      ],
      "stateMutability": "view",
      "type": "function"
    },
    {
      "inputs": [
        {
          "internalType": "bytes32",
          "name": "role",
          "type": "bytes32"
        },
        {
          "internalType": "address",
          "name": "account",
          "type": "address"
        }
      ],
      "name": "renounceRole",
      "outputs": [],
      "stateMutability": "nonpayable",
      "type": "function"
    },
    {
      "inputs": [
        {
          "internalType": "bytes32",
          "name": "role",
          "type": "bytes32"
        },
        {
          "internalType": "address",
          "name": "account",
          "type": "address"
        }
      ],
      "name": "revokeRole",
      "outputs": [],
      "stateMutability": "nonpayable",
      "type": "function"
    },
    {
      "inputs": [
        {
          "internalType": "bytes4",
          "name": "interfaceId",
          "type": "bytes4"
        }
      ],
      "name": "supportsInterface",
      "outputs": [
        {
          "internalType": "bool",
          "name": "",
          "type": "bool"
        }
      ],
      "stateMutability": "view",
      "type": "function"
    },
    {
      "inputs": [],
      "name": "totalPodCreated",
      "outputs": [
        {
          "internalType": "uint256",
          "name": "",
          "type": "uint256"
        }
      ],
      "stateMutability": "view",
      "type": "function"
    },
    {
      "inputs": [
        {
          "internalType": "address",
          "name": "swapManagerAddress",
          "type": "address"
        }
      ],
      "name": "assignRoleSwapManager",
      "outputs": [],
      "stateMutability": "nonpayable",
      "type": "function"
    },
    {
      "inputs": [
        {
          "internalType": "string",
          "name": "uri",
          "type": "string"
        }
      ],
      "name": "getPodAddressByUri",
      "outputs": [
        {
          "internalType": "address",
          "name": "podAddress",
          "type": "address"
        }
      ],
      "stateMutability": "view",
      "type": "function"
    },
    {
      "inputs": [
        {
          "internalType": "string",
          "name": "podId",
          "type": "string"
        }
      ],
      "name": "getPodAddressById",
      "outputs": [
        {
          "internalType": "address",
          "name": "podAddress",
          "type": "address"
        }
      ],
      "stateMutability": "view",
      "type": "function"
    },
    {
      "inputs": [
        {
          "internalType": "string",
          "name": "uri",
          "type": "string"
        },
        {
          "internalType": "string",
          "name": "podId",
          "type": "string"
        },
        {
          "internalType": "uint256",
          "name": "royaltyAmount",
          "type": "uint256"
        },
        {
          "internalType": "address",
          "name": "creator",
          "type": "address"
        }
      ],
      "name": "createPod",
      "outputs": [
        {
          "internalType": "address",
          "name": "podAddress",
          "type": "address"
        }
      ],
      "stateMutability": "nonpayable",
      "type": "function"
    },
    {
      "inputs": [
        {
          "internalType": "string",
          "name": "uri",
          "type": "string"
        },
        {
          "internalType": "string",
          "name": "podId",
          "type": "string"
        },
        {
          "internalType": "uint256",
          "name": "royaltyAmount",
          "type": "uint256"
        },
        {
          "internalType": "uint256[]",
          "name": "royaltyShares",
          "type": "uint256[]"
        },
        {
          "internalType": "address[]",
          "name": "creators",
          "type": "address[]"
        }
      ],
      "name": "createMultiCreatorPod",
      "outputs": [
        {
          "internalType": "address",
          "name": "podAddress",
          "type": "address"
        }
      ],
      "stateMutability": "nonpayable",
      "type": "function"
    },
    {
      "inputs": [
        {
          "internalType": "string",
          "name": "uri",
          "type": "string"
        },
        {
          "internalType": "address",
          "name": "account",
          "type": "address"
        },
        {
          "internalType": "uint256",
          "name": "tokenId",
          "type": "uint256"
        },
        {
          "internalType": "uint256",
          "name": "amount",
          "type": "uint256"
        },
        {
          "internalType": "bytes",
          "name": "data",
          "type": "bytes"
        }
      ],
      "name": "mintPodTokenByUri",
      "outputs": [],
      "stateMutability": "nonpayable",
      "type": "function"
    },
    {
      "inputs": [
        {
          "internalType": "string",
          "name": "podId",
          "type": "string"
        },
        {
          "internalType": "address",
          "name": "account",
          "type": "address"
        },
        {
          "internalType": "uint256",
          "name": "tokenId",
          "type": "uint256"
        },
        {
          "internalType": "uint256",
          "name": "amount",
          "type": "uint256"
        },
        {
          "internalType": "bytes",
          "name": "data",
          "type": "bytes"
        }
      ],
      "name": "mintPodTokenById",
      "outputs": [],
      "stateMutability": "nonpayable",
      "type": "function"
    },
    {
      "inputs": [
        {
          "internalType": "string",
          "name": "uri",
          "type": "string"
        },
        {
          "internalType": "address",
          "name": "account",
          "type": "address"
        },
        {
          "internalType": "uint256[]",
          "name": "tokenIds",
          "type": "uint256[]"
        },
        {
          "internalType": "uint256[]",
          "name": "amounts",
          "type": "uint256[]"
        },
        {
          "internalType": "bytes",
          "name": "data",
          "type": "bytes"
        }
      ],
      "name": "batchMintPodTokenByUri",
      "outputs": [],
      "stateMutability": "nonpayable",
      "type": "function"
    },
    {
      "inputs": [
        {
          "internalType": "string",
          "name": "podId",
          "type": "string"
        },
        {
          "internalType": "address",
          "name": "account",
          "type": "address"
        },
        {
          "internalType": "uint256[]",
          "name": "tokenIds",
          "type": "uint256[]"
        },
        {
          "internalType": "uint256[]",
          "name": "amounts",
          "type": "uint256[]"
        },
        {
          "internalType": "bytes",
          "name": "data",
          "type": "bytes"
        }
      ],
      "name": "batchMintPodTokenById",
      "outputs": [],
      "stateMutability": "nonpayable",
      "type": "function"
    },
    {
      "inputs": [
        {
          "internalType": "address",
          "name": "_account",
          "type": "address"
        }
      ],
      "name": "addModerator",
      "outputs": [],
      "stateMutability": "nonpayable",
      "type": "function"
    },
    {
      "inputs": [
        {
          "internalType": "address",
          "name": "_account",
          "type": "address"
        }
      ],
      "name": "removeModerator",
      "outputs": [],
      "stateMutability": "nonpayable",
      "type": "function"
    }
  ],
  "bytecode": "0x60806040523480156200001157600080fd5b506040516200498438038062004984833981016040819052620000349162000166565b6200004a6000620000446200009f565b620000a3565b620000797f71f3d55856e4058ed06ee057d79ada615f65cdf5f9ee88181b914225088f834f620000446200009f565b600180546001600160a01b0319166001600160a01b039290921691909117905562000196565b3390565b620000af8282620000b3565b5050565b620000bf82826200013d565b620000af576000828152602081815260408083206001600160a01b03851684529091529020805460ff19166001179055620000f96200009f565b6001600160a01b0316816001600160a01b0316837f2f8788117e7eff1d82e926ec794901d17c78024a50270940304540a733656f0d60405160405180910390a45050565b6000918252602082815260408084206001600160a01b0393909316845291905290205460ff1690565b60006020828403121562000178578081fd5b81516001600160a01b03811681146200018f578182fd5b9392505050565b6147de80620001a66000396000f3fe60806040523480156200001157600080fd5b5060043610620001a25760003560e01c8063797669c911620000f9578063c49b81b11162000099578063de28a860116200006f578063de28a8601462000384578063e792b194146200039b578063fa5935ee14620003a557620001a2565b8063c49b81b1146200034c578063d547741f1462000363578063dc2e187a146200037a57620001a2565b806391d1485411620000cf57806391d148541462000314578063a217fddf146200032b578063b532e4cb146200033557620001a2565b8063797669c914620002dc578063869d785f14620002e65780638d1909ed14620002fd57620001a2565b80632dcfea42116200016557806337b7a867116200013b57806337b7a8671462000297578063578a5aa014620002ae57806374496f2014620002c557620001a2565b80632dcfea4214620002505780632f2ff15d146200026957806336568abe146200028057620001a2565b806301ffc9a714620001a75780630d60f1e414620001d657806322b2edeb14620001fc578063248a9ca314620002135780632d445dee1462000239575b600080fd5b620001be620001b8366004620011b2565b620003bc565b604051620001cd919062001749565b60405180910390f35b620001ed620001e73660046200152e565b620003ec565b604051620001cd91906200163a565b620001ed6200020d366004620011dc565b62000412565b6200022a620002243660046200116b565b62000448565b604051620001cd919062001754565b620001ed6200024a36600462001400565b6200045d565b6200026762000261366004620012f7565b6200074f565b005b620002676200027a36600462001184565b6200086b565b620002676200029136600462001184565b620008b3565b62000267620002a836600462001220565b620008fc565b620001ed620002bf36600462001372565b620009b8565b62000267620002d6366004620012f7565b62000c60565b6200022a62000cfd565b62000267620002f736600462001147565b62000d10565b620002676200030e36600462001147565b62000d5d565b620001be6200032536600462001184565b62000db5565b6200022a62000dde565b620002676200034636600462001147565b62000de3565b620001ed6200035d3660046200152e565b62000e2d565b620002676200037436600462001184565b62000e53565b6200022a62000e81565b620002676200039536600462001220565b62000e87565b620001ed62000f01565b620001ed620003b6366004620011dc565b62000f10565b60006001600160e01b03198216637965db0b60e01b1480620003e45750620003e48262000f26565b90505b919050565b80516020818301810180516004825292820191909301209152546001600160a01b031681565b600060048383604051620004289291906200162a565b908152604051908190036020019020546001600160a01b03169392505050565b60009081526020819052604090206001015490565b60006200047d600080516020620047898339815191526200032562000f3f565b620004a55760405162461bcd60e51b81526004016200049c90620018a8565b60405180910390fd5b60006001600160a01b031660038989604051620004c49291906200162a565b908152604051908190036020019020546001600160a01b031614620004fd5760405162461bcd60e51b81526004016200049c9062001a38565b60006001600160a01b0316600487876040516200051c9291906200162a565b908152604051908190036020019020546001600160a01b031614620005555760405162461bcd60e51b81526004016200049c90620018ec565b60008284604051620005679062001055565b62000574929190620016e5565b604051809103906000f08015801562000591573d6000803e3d6000fd5b50905060008989308885604051620005a99062001063565b620005b99594939291906200175d565b604051809103906000f080158015620005d6573d6000803e3d6000fd5b509050809250600160026000828254620005f1919062001b46565b925050819055508260038b8b6040516200060d9291906200162a565b908152602001604051809103902060006101000a8154816001600160a01b0302191690836001600160a01b031602179055508260048989604051620006549291906200162a565b90815260405190819003602001812080546001600160a01b0393841673ffffffffffffffffffffffffffffffffffffffff1990911617905560015463026a412d60e51b825290911690634d4825a090620006bb908d908d90829082908a906004016200179d565b600060405180830381600087803b158015620006d657600080fd5b505af1158015620006eb573d6000803e3d6000fd5b505050508989604051620007019291906200162a565b60405180910390207fc84bc1fa0709a57027c0460a2e859f1a2376e90445c85eed2242f4d98f2068d6846040516200073a91906200163a565b60405180910390a25050979650505050505050565b6200076d600080516020620047898339815191526200032562000f3f565b6200078c5760405162461bcd60e51b81526004016200049c90620018a8565b6001600160a01b038516620007b55760405162461bcd60e51b81526004016200049c90620017e4565b60008311620007d85760405162461bcd60e51b81526004016200049c90620019db565b60038787604051620007ec9291906200162a565b9081526040519081900360200181205463731133e960e01b82526001600160a01b03169063731133e9906200082e9088908890889088908890600401620016a9565b600060405180830381600087803b1580156200084957600080fd5b505af11580156200085e573d6000803e3d6000fd5b5050505050505050505050565b620008846200087a8362000448565b6200032562000f3f565b620008a35760405162461bcd60e51b81526004016200049c906200184b565b620008af828262000f43565b5050565b620008bd62000f3f565b6001600160a01b0316816001600160a01b031614620008f05760405162461bcd60e51b81526004016200049c9062001a95565b620008af828262000fcd565b6200091a600080516020620047898339815191526200032562000f3f565b620009395760405162461bcd60e51b81526004016200049c90620018a8565b6001600160a01b038516620009625760405162461bcd60e51b81526004016200049c90620017e4565b60048787604051620009769291906200162a565b90815260405190819003602001812054630fbfeffd60e11b82526001600160a01b031690631f7fdffa906200082e90889088908890889088906004016200164e565b6000620009d8600080516020620047898339815191526200032562000f3f565b620009f75760405162461bcd60e51b81526004016200049c90620018a8565b60006001600160a01b03166003888860405162000a169291906200162a565b908152604051908190036020019020546001600160a01b03161462000a4f5760405162461bcd60e51b81526004016200049c9062001a38565b60006001600160a01b03166004868660405162000a6e9291906200162a565b908152604051908190036020019020546001600160a01b03161462000aa75760405162461bcd60e51b81526004016200049c90620018ec565b6000878730868660405162000abc9062001063565b62000acc9594939291906200175d565b604051809103906000f08015801562000ae9573d6000803e3d6000fd5b50905080915060016002600082825462000b04919062001b46565b92505081905550816003898960405162000b209291906200162a565b908152602001604051809103902060006101000a8154816001600160a01b0302191690836001600160a01b03160217905550816004878760405162000b679291906200162a565b90815260405190819003602001812080546001600160a01b0393841673ffffffffffffffffffffffffffffffffffffffff1990911617905560015463026a412d60e51b825290911690634d4825a09062000bce908b908b908290829089906004016200179d565b600060405180830381600087803b15801562000be957600080fd5b505af115801562000bfe573d6000803e3d6000fd5b50505050878760405162000c149291906200162a565b60405180910390207fc84bc1fa0709a57027c0460a2e859f1a2376e90445c85eed2242f4d98f2068d68360405162000c4d91906200163a565b60405180910390a2509695505050505050565b62000c7e600080516020620047898339815191526200032562000f3f565b62000c9d5760405162461bcd60e51b81526004016200049c90620018a8565b6001600160a01b03851662000cc65760405162461bcd60e51b81526004016200049c90620017e4565b6000831162000ce95760405162461bcd60e51b81526004016200049c90620019db565b60048787604051620007ec9291906200162a565b6000805160206200478983398151915281565b62000d2060006200032562000f3f565b62000d3f5760405162461bcd60e51b81526004016200049c90620019a6565b62000d5a600080516020620047898339815191528262000e53565b50565b62000d7b600080516020620047898339815191526200032562000f3f565b62000d9a5760405162461bcd60e51b81526004016200049c90620018a8565b62000d5a6000805160206200478983398151915282620008a3565b6000918252602082815260408084206001600160a01b0393909316845291905290205460ff1690565b600081565b62000df360006200032562000f3f565b62000e125760405162461bcd60e51b81526004016200049c90620019a6565b62000d5a60008051602062004789833981519152826200086b565b80516020818301810180516003825292820191909301209152546001600160a01b031681565b62000e626200087a8362000448565b620008f05760405162461bcd60e51b81526004016200049c9062001949565b60025481565b62000ea5600080516020620047898339815191526200032562000f3f565b62000ec45760405162461bcd60e51b81526004016200049c90620018a8565b6001600160a01b03851662000eed5760405162461bcd60e51b81526004016200049c90620017e4565b60038787604051620009769291906200162a565b6001546001600160a01b031681565b600060038383604051620004289291906200162a565b6001600160e01b031981166301ffc9a760e01b14919050565b3390565b62000f4f828262000db5565b620008af576000828152602081815260408083206001600160a01b03851684529091529020805460ff1916600117905562000f8962000f3f565b6001600160a01b0316816001600160a01b0316837f2f8788117e7eff1d82e926ec794901d17c78024a50270940304540a733656f0d60405160405180910390a45050565b62000fd9828262000db5565b15620008af576000828152602081815260408083206001600160a01b03851684529091529020805460ff191690556200101162000f3f565b6001600160a01b0316816001600160a01b0316837ff6391f5c32d9c69d2a47ea670b442974b53935d1edc7fd64eb21e047a839171b60405160405180910390a45050565b6108a68062001b8283390190565b612361806200242883390190565b80356001600160a01b0381168114620003e757600080fd5b600082601f8301126200109a578081fd5b81356020620010b3620010ad8362001b1f565b62001af2565b8281528181019085830183850287018401881015620010d0578586fd5b855b85811015620010f057813584529284019290840190600101620010d2565b5090979650505050505050565b60008083601f8401126200110f578182fd5b50813567ffffffffffffffff81111562001127578182fd5b6020830191508360208285010111156200114057600080fd5b9250929050565b60006020828403121562001159578081fd5b620011648262001071565b9392505050565b6000602082840312156200117d578081fd5b5035919050565b6000806040838503121562001197578081fd5b82359150620011a96020840162001071565b90509250929050565b600060208284031215620011c4578081fd5b81356001600160e01b03198116811462001164578182fd5b60008060208385031215620011ef578182fd5b823567ffffffffffffffff81111562001206578283fd5b6200121485828601620010fd565b90969095509350505050565b600080600080600080600060a0888a0312156200123b578283fd5b873567ffffffffffffffff8082111562001253578485fd5b620012618b838c01620010fd565b90995097508791506200127760208b0162001071565b965060408a01359150808211156200128d578485fd5b6200129b8b838c0162001089565b955060608a0135915080821115620012b1578485fd5b620012bf8b838c0162001089565b945060808a0135915080821115620012d5578384fd5b50620012e48a828b01620010fd565b989b979a50959850939692959293505050565b600080600080600080600060a0888a03121562001312578283fd5b873567ffffffffffffffff808211156200132a578485fd5b620013388b838c01620010fd565b90995097508791506200134e60208b0162001071565b965060408a0135955060608a0135945060808a0135915080821115620012d5578384fd5b600080600080600080608087890312156200138b578182fd5b863567ffffffffffffffff80821115620013a3578384fd5b620013b18a838b01620010fd565b90985096506020890135915080821115620013ca578384fd5b50620013d989828a01620010fd565b90955093505060408701359150620013f46060880162001071565b90509295509295509295565b600080600080600080600060a0888a0312156200141b578081fd5b873567ffffffffffffffff8082111562001433578283fd5b620014418b838c01620010fd565b90995097506020915089820135818111156200145b578384fd5b620014698c828d01620010fd565b90985096505060408a0135945060608a01358181111562001488578384fd5b620014968c828d0162001089565b94505060808a013581811115620014ab578384fd5b8a019050601f81018b13620014be578283fd5b8035620014cf620010ad8262001b1f565b81815283810190838501858402850186018f1015620014ec578687fd5b8694505b838510156200151957620015048162001071565b835260019490940193918501918501620014f0565b50809550505050505092959891949750929550565b6000602080838503121562001541578182fd5b823567ffffffffffffffff8082111562001559578384fd5b818501915085601f8301126200156d578384fd5b81358181111562001582576200158262001b6b565b62001596601f8201601f1916850162001af2565b91508082528684828501011115620015ac578485fd5b80848401858401378101909201929092529392505050565b6000815180845260208085019450808401835b83811015620015f557815187529582019590820190600101620015d7565b509495945050505050565b60008284528282602086013780602084860101526020601f19601f85011685010190509392505050565b6000828483379101908152919050565b6001600160a01b0391909116815260200190565b60006001600160a01b038716825260806020830152620016726080830187620015c4565b8281036040840152620016868187620015c4565b905082810360608401526200169d81858762001600565b98975050505050505050565b60006001600160a01b038716825285602083015284604083015260806060830152620016da60808301848662001600565b979650505050505050565b604080825283519082018190526000906020906060840190828701845b82811015620017295781516001600160a01b03168452928401929084019060010162001702565b505050838103828501526200173f8186620015c4565b9695505050505050565b901515815260200190565b90815260200190565b6000608082526200177360808301878962001600565b6001600160a01b039586166020840152604083019490945250921660609092019190915292915050565b600060608252620017b360608301878962001600565b8281036020840152620017c881868862001600565b9150506001600160a01b03831660408301529695505050505050565b60208082526041908201527f5052495649506f6445524331313535526f79616c7479466163746f72793a204160408201527f63636f756e7420616464726573732073686f756c64206e6f74206265207a65726060820152606f60f81b608082015260a00190565b6020808252602f908201527f416363657373436f6e74726f6c3a2073656e646572206d75737420626520616e60408201527f2061646d696e20746f206772616e740000000000000000000000000000000000606082015260800190565b60208082526024908201527f4f776e61626c653a2063616c6c6572206973206e6f7420746865206d6f64657260408201526330ba37b960e11b606082015260800190565b60208082526033908201527f5052495649506f6445524331313535546f6b656e466163746f72793a20506f6460408201527f20696420616c7265616479206578697374732e00000000000000000000000000606082015260800190565b60208082526030908201527f416363657373436f6e74726f6c3a2073656e646572206d75737420626520616e60408201527f2061646d696e20746f207265766f6b6500000000000000000000000000000000606082015260800190565b6020808252818101527f4f776e61626c653a2063616c6c6572206973206e6f74207468652061646d696e604082015260600190565b60208082526038908201527f5052495649506f6445524331313535526f79616c7479466163746f72793a206160408201527f6d6f756e742073686f756c64206e6f74206265207a65726f0000000000000000606082015260800190565b60208082526031908201527f5052495649506f6445524331313535526f79616c7479466163746f72793a205060408201527f6f6420616c726561647920657869737473000000000000000000000000000000606082015260800190565b6020808252602f908201527f416363657373436f6e74726f6c3a2063616e206f6e6c792072656e6f756e636560408201527f20726f6c657320666f722073656c660000000000000000000000000000000000606082015260800190565b60405181810167ffffffffffffffff8111828210171562001b175762001b1762001b6b565b604052919050565b600067ffffffffffffffff82111562001b3c5762001b3c62001b6b565b5060209081020190565b6000821982111562001b6657634e487b7160e01b81526011600452602481fd5b500190565b634e487b7160e01b600052604160045260246000fdfe608060405234801561001057600080fd5b506040516108a63803806108a683398101604081905261002f916101a9565b80518251146100595760405162461bcd60e51b815260040161005090610276565b60405180910390fd5b815161006c906000906020850190610088565b5080516100809060019060208401906100ed565b505050610341565b8280548282559060005260206000209081019282156100dd579160200282015b828111156100dd57825182546001600160a01b0319166001600160a01b039091161782556020909201916001909101906100a8565b506100e9929150610128565b5090565b8280548282559060005260206000209081019282156100dd579160200282015b828111156100dd57825182559160200191906001019061010d565b5b808211156100e95760008155600101610129565b600082601f83011261014d578081fd5b8151602061016261015d83610308565b6102df565b828152818101908583018385028701840188101561017e578586fd5b855b8581101561019c57815184529284019290840190600101610180565b5090979650505050505050565b600080604083850312156101bb578182fd5b82516001600160401b03808211156101d1578384fd5b818501915085601f8301126101e4578384fd5b815160206101f461015d83610308565b82815281810190858301838502870184018b1015610210578889fd5b8896505b848710156102465780516001600160a01b038116811461023257898afd5b835260019690960195918301918301610214565b509188015191965090935050508082111561025f578283fd5b5061026c8582860161013d565b9150509250929050565b60208082526043908201527f4d756c746943726561746f724e66744d616e616765723a2043726561746f727360408201527f20616e642053686172657320617265206e6f74206f662073616d65206c656e676060820152623a341760e91b608082015260a00190565b6040518181016001600160401b03811182821017156103005761030061032b565b604052919050565b60006001600160401b038211156103215761032161032b565b5060209081020190565b634e487b7160e01b600052604160045260246000fd5b610556806103506000396000f3fe60806040526004361061007f5760003560e01c8063ad9adcdc1161004e578063ad9adcdc14610135578063c760a23714610155578063cd53d08e14610175578063d3b97417146101a2576100b0565b80632e1a7d4d146100b557806357a858fc146100d55780636f9fb98a1461010b57806392e6c00414610120576100b0565b366100b057346003600061009360026101c2565b81526020810191909152604001600020556100ae60026101c6565b005b600080fd5b3480156100c157600080fd5b506100ae6100d0366004610406565b6101cf565b3480156100e157600080fd5b506100f56100f0366004610406565b610286565b604051610102919061048f565b60405180910390f35b34801561011757600080fd5b506100f56102a7565b34801561012c57600080fd5b506100f56102ab565b34801561014157600080fd5b506100f56101503660046103d8565b6102b1565b34801561016157600080fd5b506100f5610170366004610406565b6102c3565b34801561018157600080fd5b50610195610190366004610406565b6102d5565b604051610102919061041e565b3480156101ae57600080fd5b506100f56101bd366004610406565b6102ff565b5490565b80546001019055565b600081815481106101f057634e487b7160e01b600052603260045260246000fd5b6000918252602090912001546001600160a01b0316331461022c5760405162461bcd60e51b815260040161022390610432565b60405180910390fd5b6000610237826102ff565b905061024360026101c2565b33600081815260046020526040808220939093559151909183156108fc02918491818181858888f19350505050158015610281573d6000803e3d6000fd5b505050565b6001818154811061029657600080fd5b600091825260209091200154905081565b4790565b60025481565b60046020526000908152604090205481565b60036020526000908152604090205481565b600081815481106102e557600080fd5b6000918252602090912001546001600160a01b0316905081565b6000806004600080858154811061032657634e487b7160e01b600052603260045260246000fd5b60009182526020808320909101546001600160a01b0316835282019290925260400190205490505b61035860026101c2565b81116103d257606460036000838152602001908152602001600020546001858154811061039557634e487b7160e01b600052603260045260246000fd5b90600052602060002001546103aa91906104d0565b6103b491906104b0565b6103be9083610498565b9150806103ca816104ef565b91505061034e565b50919050565b6000602082840312156103e9578081fd5b81356001600160a01b03811681146103ff578182fd5b9392505050565b600060208284031215610417578081fd5b5035919050565b6001600160a01b0391909116815260200190565b60208082526038908201527f4d756c746943726561746f724e66744d616e616765723a20596f75206172652060408201527f6e6f74206f6e65206f66207468652063726561746f72732e0000000000000000606082015260800190565b90815260200190565b600082198211156104ab576104ab61050a565b500190565b6000826104cb57634e487b7160e01b81526012600452602481fd5b500490565b60008160001904831182151516156104ea576104ea61050a565b500290565b60006000198214156105035761050361050a565b5060010190565b634e487b7160e01b600052601160045260246000fdfea2646970667358221220614c7152c64e16c76e68b6b48f879a82ad1463160d1256a69a0ad1f1313eee9364736f6c6343000800003360806040523480156200001157600080fd5b50604051620023613803806200236183398101604081905262000034916200015f565b818185620000428162000083565b50600391909155600480546001600160a01b039283166001600160a01b031991821617909155600580549590921694169390931790925550620002b2915050565b8051620000989060029060208401906200009c565b5050565b828054620000aa906200025f565b90600052602060002090601f016020900481019282620000ce576000855562000119565b82601f10620000e957805160ff191683800117855562000119565b8280016001018555821562000119579182015b8281111562000119578251825591602001919060010190620000fc565b50620001279291506200012b565b5090565b5b808211156200012757600081556001016200012c565b80516001600160a01b03811681146200015a57600080fd5b919050565b6000806000806080858703121562000175578384fd5b84516001600160401b03808211156200018c578586fd5b818701915087601f830112620001a0578586fd5b815181811115620001b557620001b56200029c565b6040516020601f8301601f1916820181018481118382101715620001dd57620001dd6200029c565b60405282825284830181018b1015620001f4578889fd5b8893505b82841015620002175784840181015182850182015292830192620001f8565b828411156200022857888184840101525b81985062000238818b0162000142565b9750505050505060408501519150620002546060860162000142565b905092959194509250565b6002810460018216806200027457607f821691505b602082108114156200029657634e487b7160e01b600052602260045260246000fd5b50919050565b634e487b7160e01b600052604160045260246000fd5b61209f80620002c26000396000f3fe608060405234801561001057600080fd5b50600436106101155760003560e01c8063731133e9116100a25780639d35c161116100715780639d35c1611461023f578063a22cb46514610247578063e985e9c51461025a578063f242432a1461026d578063f5298aca1461028057610115565b8063731133e9146101fc5780637c6e551d1461020f57806384a09c27146102175780639822e8c01461022a57610115565b80632eb2c2d6116100e95780632eb2c2d61461019857806346e80720146101ab5780634e1273f4146101c1578063656605d6146101e15780636b20c454146101e957610115565b8062fdd58e1461011a57806301ffc9a7146101435780630e89341c146101635780631f7fdffa14610183575b600080fd5b61012d6101283660046116ee565b610293565b60405161013a9190611e78565b60405180910390f35b61015661015136600461185a565b6102ea565b60405161013a9190611a2c565b610176610171366004611899565b610332565b60405161013a9190611a37565b61019661019136600461161f565b6103c6565b005b6101966101a636600461146a565b610412565b6101b3610678565b60405161013a929190611e81565b6101d46101cf36600461179c565b61068b565b60405161013a91906119eb565b6101566107ab565b6101966101f73660046115ae565b6107b1565b61019661020a366004611749565b61080b565b61012d610851565b610196610225366004611510565b610857565b61023261089d565b60405161013a9190611936565b6102326108ac565b6101966102553660046116b4565b6108bb565b610156610268366004611438565b610989565b61019661027b36600461154b565b6109b7565b61019661028e366004611717565b610b4d565b60006001600160a01b0383166102c45760405162461bcd60e51b81526004016102bb90611aef565b60405180910390fd5b506000908152602081815260408083206001600160a01b03949094168352929052205490565b60006001600160e01b03198216636cdb3d1360e11b148061031b57506001600160e01b031982166303a24d0760e21b145b8061032a575061032a82610ba2565b90505b919050565b60606002805461034190611f23565b80601f016020809104026020016040519081016040528092919081815260200182805461036d90611f23565b80156103ba5780601f1061038f576101008083540402835291602001916103ba565b820191906000526020600020905b81548152906001019060200180831161039d57829003601f168201915b50505050509050919050565b6005546001600160a01b03166103da610bbb565b6001600160a01b0316146104005760405162461bcd60e51b81526004016102bb90611bc7565b61040c84848484610bbf565b50505050565b81518351146104335760405162461bcd60e51b81526004016102bb90611def565b6001600160a01b0384166104595760405162461bcd60e51b81526004016102bb90611c2e565b610461610bbb565b6001600160a01b0316856001600160a01b03161480610487575061048785610268610bbb565b6104a35760405162461bcd60e51b81526004016102bb90611c73565b60006104ad610bbb565b90506104bd818787878787610d47565b60005b845181101561060a5760008582815181106104eb57634e487b7160e01b600052603260045260246000fd5b60200260200101519050600085838151811061051757634e487b7160e01b600052603260045260246000fd5b602090810291909101810151600084815280835260408082206001600160a01b038e1683529093529190912054909150818110156105675760405162461bcd60e51b81526004016102bb90611d13565b6105718282611f0c565b60008085815260200190815260200160002060008c6001600160a01b03166001600160a01b03168152602001908152602001600020819055508160008085815260200190815260200160002060008b6001600160a01b03166001600160a01b0316815260200190815260200160002060008282546105ef9190611ef4565b925050819055505050508061060390611f5e565b90506104c0565b50846001600160a01b0316866001600160a01b0316826001600160a01b03167f4a39dc06d4c0dbc64b70af90fd698a233a518aa5d07e595d983b8c0526c8f7fb878760405161065a9291906119fe565b60405180910390a4610670818787878787610d55565b505050505050565b6003546004546001600160a01b03169091565b606081518351146106ae5760405162461bcd60e51b81526004016102bb90611da6565b6000835167ffffffffffffffff8111156106d857634e487b7160e01b600052604160045260246000fd5b604051908082528060200260200182016040528015610701578160200160208202803683370190505b50905060005b84518110156107a35761076885828151811061073357634e487b7160e01b600052603260045260246000fd5b602002602001015185838151811061075b57634e487b7160e01b600052603260045260246000fd5b6020026020010151610293565b82828151811061078857634e487b7160e01b600052603260045260246000fd5b602090810291909101015261079c81611f5e565b9050610707565b509392505050565b60015b90565b6107b9610bbb565b6001600160a01b0316836001600160a01b031614806107df57506107df83610268610bbb565b6107fb5760405162461bcd60e51b81526004016102bb90611b7e565b610806838383610e63565b505050565b6005546001600160a01b031661081f610bbb565b6001600160a01b0316146108455760405162461bcd60e51b81526004016102bb90611bc7565b61040c84848484611021565b60035490565b80826001600160a01b0316846001600160a01b03167f06cb0b9d04d0ac2a93b9b9a93ee6c2511e069efb107c06eee43c85021fbc04ed60405160405180910390a4505050565b6004546001600160a01b031690565b6005546001600160a01b031681565b816001600160a01b03166108cd610bbb565b6001600160a01b031614156108f45760405162461bcd60e51b81526004016102bb90611d5d565b8060016000610901610bbb565b6001600160a01b03908116825260208083019390935260409182016000908120918716808252919093529120805460ff191692151592909217909155610945610bbb565b6001600160a01b03167f17307eab39ab6107e8899845ad3d59bd9653f200f220920489ca2b5937696c318360405161097d9190611a2c565b60405180910390a35050565b6001600160a01b03918216600090815260016020908152604080832093909416825291909152205460ff1690565b6001600160a01b0384166109dd5760405162461bcd60e51b81526004016102bb90611c2e565b6109e5610bbb565b6001600160a01b0316856001600160a01b03161480610a0b5750610a0b85610268610bbb565b610a275760405162461bcd60e51b81526004016102bb90611b7e565b6000610a31610bbb565b9050610a51818787610a4288611101565b610a4b88611101565b87610d47565b6000848152602081815260408083206001600160a01b038a16845290915290205483811015610a925760405162461bcd60e51b81526004016102bb90611d13565b610a9c8482611f0c565b6000868152602081815260408083206001600160a01b038c81168552925280832093909355881681529081208054869290610ad8908490611ef4565b92505081905550856001600160a01b0316876001600160a01b0316836001600160a01b03167fc3d58168c5ae7397731d063d5bbf3d657854427343f4c083240f7aacaa2d0f628888604051610b2e929190611e98565b60405180910390a4610b4482888888888861115a565b50505050505050565b610b55610bbb565b6001600160a01b0316836001600160a01b03161480610b7b5750610b7b83610268610bbb565b610b975760405162461bcd60e51b81526004016102bb90611b7e565b61080683838361122b565b6001600160e01b031981166301ffc9a760e01b14919050565b3390565b6001600160a01b038416610be55760405162461bcd60e51b81526004016102bb90611e37565b8151835114610c065760405162461bcd60e51b81526004016102bb90611def565b6000610c10610bbb565b9050610c2181600087878787610d47565b60005b8451811015610cd857838181518110610c4d57634e487b7160e01b600052603260045260246000fd5b6020026020010151600080878481518110610c7857634e487b7160e01b600052603260045260246000fd5b602002602001015181526020019081526020016000206000886001600160a01b03166001600160a01b031681526020019081526020016000206000828254610cc09190611ef4565b90915550819050610cd081611f5e565b915050610c24565b50846001600160a01b031660006001600160a01b0316826001600160a01b03167f4a39dc06d4c0dbc64b70af90fd698a233a518aa5d07e595d983b8c0526c8f7fb8787604051610d299291906119fe565b60405180910390a4610d4081600087878787610d55565b5050505050565b610670868686868686610670565b610d67846001600160a01b0316611344565b156106705760405163bc197c8160e01b81526001600160a01b0385169063bc197c8190610da0908990899088908890889060040161194a565b602060405180830381600087803b158015610dba57600080fd5b505af1925050508015610dea575060408051601f3d908101601f19168201909252610de79181019061187d565b60015b610e3357610df6611fab565b80610e015750610e1b565b8060405162461bcd60e51b81526004016102bb9190611a37565b60405162461bcd60e51b81526004016102bb90611a4a565b6001600160e01b0319811663bc197c8160e01b14610b445760405162461bcd60e51b81526004016102bb90611aa7565b6001600160a01b038316610e895760405162461bcd60e51b81526004016102bb90611cd0565b8051825114610eaa5760405162461bcd60e51b81526004016102bb90611def565b6000610eb4610bbb565b9050610ed481856000868660405180602001604052806000815250610d47565b60005b8351811015610fc2576000848281518110610f0257634e487b7160e01b600052603260045260246000fd5b602002602001015190506000848381518110610f2e57634e487b7160e01b600052603260045260246000fd5b602090810291909101810151600084815280835260408082206001600160a01b038c168352909352919091205490915081811015610f7e5760405162461bcd60e51b81526004016102bb90611b3a565b610f888282611f0c565b6000938452602084815260408086206001600160a01b038c1687529091529093209290925550819050610fba81611f5e565b915050610ed7565b5060006001600160a01b0316846001600160a01b0316826001600160a01b03167f4a39dc06d4c0dbc64b70af90fd698a233a518aa5d07e595d983b8c0526c8f7fb86866040516110139291906119fe565b60405180910390a450505050565b6001600160a01b0384166110475760405162461bcd60e51b81526004016102bb90611e37565b6000611051610bbb565b905061106381600087610a4288611101565b6000848152602081815260408083206001600160a01b038916845290915281208054859290611093908490611ef4565b92505081905550846001600160a01b031660006001600160a01b0316826001600160a01b03167fc3d58168c5ae7397731d063d5bbf3d657854427343f4c083240f7aacaa2d0f6287876040516110ea929190611e98565b60405180910390a4610d408160008787878761115a565b6040805160018082528183019092526060916000919060208083019080368337019050509050828160008151811061114957634e487b7160e01b600052603260045260246000fd5b602090810291909101015292915050565b61116c846001600160a01b0316611344565b156106705760405163f23a6e6160e01b81526001600160a01b0385169063f23a6e61906111a590899089908890889088906004016119a8565b602060405180830381600087803b1580156111bf57600080fd5b505af19250505080156111ef575060408051601f3d908101601f191682019092526111ec9181019061187d565b60015b6111fb57610df6611fab565b6001600160e01b0319811663f23a6e6160e01b14610b445760405162461bcd60e51b81526004016102bb90611aa7565b6001600160a01b0383166112515760405162461bcd60e51b81526004016102bb90611cd0565b600061125b610bbb565b905061128b8185600061126d87611101565b61127687611101565b60405180602001604052806000815250610d47565b6000838152602081815260408083206001600160a01b0388168452909152902054828110156112cc5760405162461bcd60e51b81526004016102bb90611b3a565b6112d68382611f0c565b6000858152602081815260408083206001600160a01b03808b16808652919093528184209490945551919291908516907fc3d58168c5ae7397731d063d5bbf3d657854427343f4c083240f7aacaa2d0f62906113359089908990611e98565b60405180910390a45050505050565b3b151590565b80356001600160a01b038116811461032d57600080fd5b600082601f830112611371578081fd5b8135602061138661138183611ed0565b611ea6565b82815281810190858301838502870184018810156113a2578586fd5b855b858110156113c0578135845292840192908401906001016113a4565b5090979650505050505050565b600082601f8301126113dd578081fd5b813567ffffffffffffffff8111156113f7576113f7611f8f565b61140a601f8201601f1916602001611ea6565b81815284602083860101111561141e578283fd5b816020850160208301379081016020019190915292915050565b6000806040838503121561144a578182fd5b6114538361134a565b91506114616020840161134a565b90509250929050565b600080600080600060a08688031215611481578081fd5b61148a8661134a565b94506114986020870161134a565b9350604086013567ffffffffffffffff808211156114b4578283fd5b6114c089838a01611361565b945060608801359150808211156114d5578283fd5b6114e189838a01611361565b935060808801359150808211156114f6578283fd5b50611503888289016113cd565b9150509295509295909350565b600080600060608486031215611524578283fd5b61152d8461134a565b925061153b6020850161134a565b9150604084013590509250925092565b600080600080600060a08688031215611562578081fd5b61156b8661134a565b94506115796020870161134a565b93506040860135925060608601359150608086013567ffffffffffffffff8111156115a2578182fd5b611503888289016113cd565b6000806000606084860312156115c2578283fd5b6115cb8461134a565b9250602084013567ffffffffffffffff808211156115e7578384fd5b6115f387838801611361565b93506040860135915080821115611608578283fd5b5061161586828701611361565b9150509250925092565b60008060008060808587031215611634578384fd5b61163d8561134a565b9350602085013567ffffffffffffffff80821115611659578485fd5b61166588838901611361565b9450604087013591508082111561167a578384fd5b61168688838901611361565b9350606087013591508082111561169b578283fd5b506116a8878288016113cd565b91505092959194509250565b600080604083850312156116c6578182fd5b6116cf8361134a565b9150602083013580151581146116e3578182fd5b809150509250929050565b60008060408385031215611700578182fd5b6117098361134a565b946020939093013593505050565b60008060006060848603121561172b578081fd5b6117348461134a565b95602085013595506040909401359392505050565b6000806000806080858703121561175e578182fd5b6117678561134a565b93506020850135925060408501359150606085013567ffffffffffffffff811115611790578182fd5b6116a8878288016113cd565b600080604083850312156117ae578182fd5b823567ffffffffffffffff808211156117c5578384fd5b818501915085601f8301126117d8578384fd5b813560206117e861138183611ed0565b82815281810190858301838502870184018b1015611804578889fd5b8896505b8487101561182d576118198161134a565b835260019690960195918301918301611808565b5096505086013592505080821115611843578283fd5b5061185085828601611361565b9150509250929050565b60006020828403121561186b578081fd5b813561187681612050565b9392505050565b60006020828403121561188e578081fd5b815161187681612050565b6000602082840312156118aa578081fd5b5035919050565b6000815180845260208085019450808401835b838110156118e0578151875295820195908201906001016118c4565b509495945050505050565b60008151808452815b81811015611910576020818501810151868301820152016118f4565b818111156119215782602083870101525b50601f01601f19169290920160200192915050565b6001600160a01b0391909116815260200190565b60006001600160a01b03808816835280871660208401525060a0604083015261197660a08301866118b1565b828103606084015261198881866118b1565b9050828103608084015261199c81856118eb565b98975050505050505050565b60006001600160a01b03808816835280871660208401525084604083015283606083015260a060808301526119e060a08301846118eb565b979650505050505050565b60006020825261187660208301846118b1565b600060408252611a1160408301856118b1565b8281036020840152611a2381856118b1565b95945050505050565b901515815260200190565b60006020825261187660208301846118eb565b60208082526034908201527f455243313135353a207472616e7366657220746f206e6f6e204552433131353560408201527f526563656976657220696d706c656d656e746572000000000000000000000000606082015260800190565b60208082526028908201527f455243313135353a204552433131353552656365697665722072656a656374656040820152676420746f6b656e7360c01b606082015260800190565b6020808252602b908201527f455243313135353a2062616c616e636520717565727920666f7220746865207a60408201526a65726f206164647265737360a81b606082015260800190565b60208082526024908201527f455243313135353a206275726e20616d6f756e7420657863656564732062616c604082015263616e636560e01b606082015260800190565b60208082526029908201527f455243313135353a2063616c6c6572206973206e6f74206f776e6572206e6f7260408201526808185c1c1c9bdd995960ba1b606082015260800190565b60208082526041908201527f5052495649506f6445524331313535526f79616c7479546f6b656e3a204f6e6c60408201527f7920466163746f72792063616e2063616c6c20746869732066756e6374696f6e6060820152601760f91b608082015260a00190565b60208082526025908201527f455243313135353a207472616e7366657220746f20746865207a65726f206164604082015264647265737360d81b606082015260800190565b60208082526032908201527f455243313135353a207472616e736665722063616c6c6572206973206e6f742060408201527f6f776e6572206e6f7220617070726f7665640000000000000000000000000000606082015260800190565b60208082526023908201527f455243313135353a206275726e2066726f6d20746865207a65726f206164647260408201526265737360e81b606082015260800190565b6020808252602a908201527f455243313135353a20696e73756666696369656e742062616c616e636520666f60408201526939103a3930b739b332b960b11b606082015260800190565b60208082526029908201527f455243313135353a2073657474696e6720617070726f76616c20737461747573604082015268103337b91039b2b63360b91b606082015260800190565b60208082526029908201527f455243313135353a206163636f756e747320616e6420696473206c656e677468604082015268040dad2e6dac2e8c6d60bb1b606082015260800190565b60208082526028908201527f455243313135353a2069647320616e6420616d6f756e7473206c656e677468206040820152670dad2e6dac2e8c6d60c31b606082015260800190565b60208082526021908201527f455243313135353a206d696e7420746f20746865207a65726f206164647265736040820152607360f81b606082015260800190565b90815260200190565b9182526001600160a01b0316602082015260400190565b918252602082015260400190565b60405181810167ffffffffffffffff81118282101715611ec857611ec8611f8f565b604052919050565b600067ffffffffffffffff821115611eea57611eea611f8f565b5060209081020190565b60008219821115611f0757611f07611f79565b500190565b600082821015611f1e57611f1e611f79565b500390565b600281046001821680611f3757607f821691505b60208210811415611f5857634e487b7160e01b600052602260045260246000fd5b50919050565b6000600019821415611f7257611f72611f79565b5060010190565b634e487b7160e01b600052601160045260246000fd5b634e487b7160e01b600052604160045260246000fd5b60e01c90565b600060443d1015611fbb576107ae565b600481823e6308c379a0611fcf8251611fa5565b14611fd9576107ae565b6040513d600319016004823e80513d67ffffffffffffffff816024840111818411171561200957505050506107ae565b8284019250825191508082111561202357505050506107ae565b503d8301602082840101111561203b575050506107ae565b601f01601f1916810160200160405291505090565b6001600160e01b03198116811461206657600080fd5b5056fea2646970667358221220f07b3d4829745a0c4bfcbd414c0278c724fc66f66fa97af17eae80114fa9954f64736f6c6343000800003371f3d55856e4058ed06ee057d79ada615f65cdf5f9ee88181b914225088f834fa26469706673582212206b8e42a2d4508ebc684bff65aa86775e391b91578aded8d2fe06c3b91fb7a41364736f6c63430008000033",
  "immutableReferences": {},
  "source": "// SPDX-License-Identifier: MIT\npragma solidity ^0.8.0;\n\nimport \"@openzeppelin/contracts/access/AccessControl.sol\";\nimport \"./token/PRIVIPodERC1155RoyaltyToken.sol\";\nimport \"./deployable_managers/MultiCreatorNftManager.sol\";\nimport \"./interfaces/IBridgeManager.sol\";\n\n/**\n * @title   PRIVIPodERC1155RoyaltyFactoryWhiteListed contract\n * @dev     Creates new royalty ERC1155 tokens using a factory pattern\n * @author  PRIVI\n **/\ncontract PRIVIPodERC1155RoyaltyFactoryWhiteListed is AccessControl {\n  bytes32 public constant MODERATOR_ROLE = keccak256(\"MODERATOR_ROLE\");\n  address public bridgeManagerAddress;\n  uint256 public totalPodCreated;\n  mapping(string => address) public podTokenAddressesByUri;\n  mapping(string => address) public podTokenAddressesById;\n\n  event PodCreated(string indexed uri, address podAddress);\n\n  /**\n   * @dev Grants `DEFAULT_ADMIN_ROLE` and `MODERATOR_ROLE` to the\n   * account that deploys the contract.\n   */\n  constructor(address bridgeAddress) {\n    _setupRole(DEFAULT_ADMIN_ROLE, _msgSender());\n    _setupRole(MODERATOR_ROLE, _msgSender());\n    bridgeManagerAddress = bridgeAddress;\n  }\n\n  modifier onlyAdmin() {\n    require(\n      hasRole(DEFAULT_ADMIN_ROLE, _msgSender()),\n      \"Ownable: caller is not the admin\"\n    );\n    _;\n  }\n\n  modifier onlyModerator() {\n    require(\n      hasRole(MODERATOR_ROLE, _msgSender()),\n      \"Ownable: caller is not the moderator\"\n    );\n    _;\n  }\n\n  /**\n   * @notice  Assigns `MODERATOR_ROLE` to SwapManager contract\n   * @param   swapManagerAddress The SwapManager contract address\n   */\n  function assignRoleSwapManager(address swapManagerAddress) external onlyModerator {\n    _setupRole(MODERATOR_ROLE, swapManagerAddress);\n  }\n\n  //TODO: getTotalTokenCreated()\n\n  /**\n   * @notice Returns the contract address of the Pod token\n   * @param  uri The Pod URI\n   * @return podAddress The contract address of the Pod token\n   */\n  function getPodAddressByUri(string calldata uri)\n    external\n    view\n    returns (address podAddress)\n  {\n    podAddress = podTokenAddressesByUri[uri];\n  }\n\n  /**\n   * @notice Returns the contract address of the Pod token\n   * @param  podId The Pod Id\n   * @return podAddress The contract address of the Pod token\n   */\n  function getPodAddressById(string calldata podId)\n    external\n    view\n    returns (address podAddress)\n  {\n    podAddress = podTokenAddressesById[podId];\n  }\n\n  /**\n   * @notice Creates a royalty ERC1155 Pod token and registers it in the BridgeManager\n   * @dev    - Pod URI must not exist\n   * @param  uri The base URI\n   * @param  royaltyAmount The royalty amount to be transfer to the creator\n   * @param  creator The Pod token creator\n   * @return podAddress The contract address of the Pod token created\n   */\n  function createPod(\n    string calldata uri,\n    string calldata podId,\n    uint256 royaltyAmount,\n    address creator\n  ) external onlyModerator returns (address podAddress) {\n    require(\n      podTokenAddressesByUri[uri] == address(0),\n      \"PRIVIPodERC1155RoyaltyFactory: Pod already exists\"\n    );\n\n    require(\n      podTokenAddressesById[podId] == address(0),\n      \"PRIVIPodERC1155TokenFactory: Pod id already exists.\"\n    );\n\n    PRIVIPodERC1155RoyaltyToken podToken =\n      new PRIVIPodERC1155RoyaltyToken(\n        uri,\n        address(this),\n        royaltyAmount,\n        creator\n      );\n    podAddress = address(podToken);\n\n    totalPodCreated += 1;\n\n    podTokenAddressesByUri[uri] = podAddress;\n    podTokenAddressesById[podId] = podAddress;\n\n    IBridgeManager(bridgeManagerAddress).registerTokenERC1155(\n      uri,\n      uri,\n      podAddress\n    );\n\n    emit PodCreated(uri, podAddress);\n  }\n\n  /**\n   * @notice Creates a royalty ERC1155 Pod token generated by multiple \n   * creators and registers it in the BridgeManager\n   * @dev    - Pod URI must not exist\n   * @param  uri The base URI\n   * @param  royaltyAmount The royalty amount to be transfer to the creator\n   * @param  royaltyShares An array of royalty amounts to be shared to creators\n   * @param  creators An array of Pod token creators to receive royalties\n   * @return podAddress The contract address of the Pod token created\n   */\n  function createMultiCreatorPod(\n    string calldata uri,\n    string calldata podId,\n    uint256 royaltyAmount,\n    uint256[] memory royaltyShares,\n    address[] memory creators\n  ) external onlyModerator returns (address podAddress) {\n    require(\n      podTokenAddressesByUri[uri] == address(0),\n      \"PRIVIPodERC1155RoyaltyFactory: Pod already exists\"\n    );\n\n    require(\n      podTokenAddressesById[podId] == address(0),\n      \"PRIVIPodERC1155TokenFactory: Pod id already exists.\"\n    );\n\n    MultiCreatorNftManager multiCreatorManager =\n      new MultiCreatorNftManager(creators, royaltyShares);\n\n    PRIVIPodERC1155RoyaltyToken podToken =\n      new PRIVIPodERC1155RoyaltyToken(\n        uri,\n        address(this),\n        royaltyAmount,\n        address(multiCreatorManager)\n      );\n    podAddress = address(podToken);\n\n    totalPodCreated += 1;\n\n    podTokenAddressesByUri[uri] = podAddress;\n    podTokenAddressesById[podId] = podAddress;\n\n    IBridgeManager(bridgeManagerAddress).registerTokenERC1155(\n      uri,\n      uri,\n      podAddress\n    );\n\n    emit PodCreated(uri, podAddress);\n  }\n\n  /**\n   * @notice Mints ERC1155 Pod tokens\n   * @dev    - The caller must be MODERATOR_ROLE\n   *         - destination address can't be zero\n   *         - amount to be minted must be greater than zero\n   * @param  uri The base URI\n   * @param  account The destination account to receive minted tokens\n   * @param  tokenId The Pod token identifier\n   * @param  amount The amount of tokens to be minted\n   * @param  data The data to be added (currently not used)\n   */\n  function mintPodTokenByUri(\n    string calldata uri,\n    address account,\n    uint256 tokenId,\n    uint256 amount,\n    bytes calldata data\n  ) external onlyModerator {\n    require(\n      account != address(0),\n      \"PRIVIPodERC1155RoyaltyFactory: Account address should not be zero\"\n    );\n    require(amount > 0, \"PRIVIPodERC1155RoyaltyFactory: amount should not be zero\");\n\n    PRIVIPodERC1155RoyaltyToken(podTokenAddressesByUri[uri]).mint(\n      account,\n      tokenId,\n      amount,\n      data\n    );\n  }\n\n  /**\n   * @notice Mints ERC1155 Pod tokens\n   * @dev    - The caller must be MODERATOR_ROLE\n   *         - destination address can't be zero\n   *         - amount to be minted must be greater than zero\n   * @param  podId The Pod Id\n   * @param  account The destination account to receive minted tokens\n   * @param  tokenId The Pod token identifier\n   * @param  amount The amount of tokens to be minted\n   * @param  data The data to be added (currently not used)\n   */\n  function mintPodTokenById(\n    string calldata podId,\n    address account,\n    uint256 tokenId,\n    uint256 amount,\n    bytes calldata data\n  ) external onlyModerator {\n    require(\n      account != address(0),\n      \"PRIVIPodERC1155RoyaltyFactory: Account address should not be zero\"\n    );\n    require(amount > 0, \"PRIVIPodERC1155RoyaltyFactory: amount should not be zero\");\n\n    PRIVIPodERC1155RoyaltyToken(podTokenAddressesById[podId]).mint(\n      account,\n      tokenId,\n      amount,\n      data\n    );\n  }\n\n  /**\n   * @notice Mints a batch of ERC1155 Pod tokens\n   * @dev    - The caller must be MODERATOR_ROLE\n   *         - destination address can't be zero\n   *         - amount to be minted must be greater than zero\n   * @param  uri The base URI\n   * @param  account The destination account to receive minted tokens\n   * @param  tokenIds An array of Pod token identifiers\n   * @param  amounts An array of token amounts to be minted\n   * @param  data The data to be added (currently not used)\n   */\n  function batchMintPodTokenByUri(\n    string calldata uri,\n    address account,\n    uint256[] memory tokenIds,\n    uint256[] memory amounts,\n    bytes calldata data\n  ) external onlyModerator {\n    require(\n      account != address(0),\n      \"PRIVIPodERC1155RoyaltyFactory: Account address should not be zero\"\n    );\n    \n    PRIVIPodERC1155RoyaltyToken(podTokenAddressesByUri[uri]).mintBatch(\n      account,\n      tokenIds,\n      amounts,\n      data\n    );\n  }\n\n  /**\n   * @notice Mints a batch of ERC1155 Pod tokens\n   * @dev    - The caller must be MODERATOR_ROLE\n   *         - destination address can't be zero\n   *         - amount to be minted must be greater than zero\n   * @param  podId The Pod Id\n   * @param  account The destination account to receive minted tokens\n   * @param  tokenIds An array of Pod token identifiers\n   * @param  amounts An array of token amounts to be minted\n   * @param  data The data to be added (currently not used)\n   */\n  function batchMintPodTokenById(\n    string calldata podId,\n    address account,\n    uint256[] memory tokenIds,\n    uint256[] memory amounts,\n    bytes calldata data\n  ) external onlyModerator {\n    require(\n      account != address(0),\n      \"PRIVIPodERC1155RoyaltyFactory: Account address should not be zero\"\n    );\n    \n    PRIVIPodERC1155RoyaltyToken(podTokenAddressesById[podId]).mintBatch(\n      account,\n      tokenIds,\n      amounts,\n      data\n    );\n  }\n\n  function addModerator(address _account) public onlyAdmin {\n    grantRole(MODERATOR_ROLE, _account);\n  }\n\n  function removeModerator(address _account) public onlyAdmin {\n    revokeRole(MODERATOR_ROLE, _account);\n  }\n}\n",
  "sourcePath": "/Volumes/Workspace/PRIVI/PRIVIethereum/contracts/PRIVIPodERC1155RoyaltyFactoryWhiteListed.sol",
  "compiler": {
    "name": "solc",
    "version": "0.8.0+commit.c7dfd78e.Emscripten.clang"
  },
  "schemaVersion": "3.3.4",
  "updatedAt": "2021-04-23T14:01:46.295Z",
  "devdoc": {
    "author": "PRIVI*",
    "details": "Creates new royalty ERC1155 tokens using a factory pattern",
    "kind": "dev",
    "methods": {
      "assignRoleSwapManager(address)": {
        "params": {
          "swapManagerAddress": "The SwapManager contract address"
        }
      },
      "batchMintPodTokenById(string,address,uint256[],uint256[],bytes)": {
        "details": "- The caller must be MODERATOR_ROLE         - destination address can't be zero         - amount to be minted must be greater than zero",
        "params": {
          "account": "The destination account to receive minted tokens",
          "amounts": "An array of token amounts to be minted",
          "data": "The data to be added (currently not used)",
          "podId": "The Pod Id",
          "tokenIds": "An array of Pod token identifiers"
        }
      },
      "batchMintPodTokenByUri(string,address,uint256[],uint256[],bytes)": {
        "details": "- The caller must be MODERATOR_ROLE         - destination address can't be zero         - amount to be minted must be greater than zero",
        "params": {
          "account": "The destination account to receive minted tokens",
          "amounts": "An array of token amounts to be minted",
          "data": "The data to be added (currently not used)",
          "tokenIds": "An array of Pod token identifiers",
          "uri": "The base URI"
        }
      },
      "constructor": {
        "details": "Grants `DEFAULT_ADMIN_ROLE` and `MODERATOR_ROLE` to the account that deploys the contract."
      },
      "createMultiCreatorPod(string,string,uint256,uint256[],address[])": {
        "details": "- Pod URI must not exist",
        "params": {
          "creators": "An array of Pod token creators to receive royalties",
          "royaltyAmount": "The royalty amount to be transfer to the creator",
          "royaltyShares": "An array of royalty amounts to be shared to creators",
          "uri": "The base URI"
        },
        "returns": {
          "podAddress": "The contract address of the Pod token created"
        }
      },
      "createPod(string,string,uint256,address)": {
        "details": "- Pod URI must not exist",
        "params": {
          "creator": "The Pod token creator",
          "royaltyAmount": "The royalty amount to be transfer to the creator",
          "uri": "The base URI"
        },
        "returns": {
          "podAddress": "The contract address of the Pod token created"
        }
      },
      "getPodAddressById(string)": {
        "params": {
          "podId": "The Pod Id"
        },
        "returns": {
          "podAddress": "The contract address of the Pod token"
        }
      },
      "getPodAddressByUri(string)": {
        "params": {
          "uri": "The Pod URI"
        },
        "returns": {
          "podAddress": "The contract address of the Pod token"
        }
      },
      "getRoleAdmin(bytes32)": {
        "details": "Returns the admin role that controls `role`. See {grantRole} and {revokeRole}. To change a role's admin, use {_setRoleAdmin}."
      },
      "grantRole(bytes32,address)": {
        "details": "Grants `role` to `account`. If `account` had not been already granted `role`, emits a {RoleGranted} event. Requirements: - the caller must have ``role``'s admin role."
      },
      "hasRole(bytes32,address)": {
        "details": "Returns `true` if `account` has been granted `role`."
      },
      "mintPodTokenById(string,address,uint256,uint256,bytes)": {
        "details": "- The caller must be MODERATOR_ROLE         - destination address can't be zero         - amount to be minted must be greater than zero",
        "params": {
          "account": "The destination account to receive minted tokens",
          "amount": "The amount of tokens to be minted",
          "data": "The data to be added (currently not used)",
          "podId": "The Pod Id",
          "tokenId": "The Pod token identifier"
        }
      },
      "mintPodTokenByUri(string,address,uint256,uint256,bytes)": {
        "details": "- The caller must be MODERATOR_ROLE         - destination address can't be zero         - amount to be minted must be greater than zero",
        "params": {
          "account": "The destination account to receive minted tokens",
          "amount": "The amount of tokens to be minted",
          "data": "The data to be added (currently not used)",
          "tokenId": "The Pod token identifier",
          "uri": "The base URI"
        }
      },
      "renounceRole(bytes32,address)": {
        "details": "Revokes `role` from the calling account. Roles are often managed via {grantRole} and {revokeRole}: this function's purpose is to provide a mechanism for accounts to lose their privileges if they are compromised (such as when a trusted device is misplaced). If the calling account had been granted `role`, emits a {RoleRevoked} event. Requirements: - the caller must be `account`."
      },
      "revokeRole(bytes32,address)": {
        "details": "Revokes `role` from `account`. If `account` had been granted `role`, emits a {RoleRevoked} event. Requirements: - the caller must have ``role``'s admin role."
      },
      "supportsInterface(bytes4)": {
        "details": "See {IERC165-supportsInterface}."
      }
    },
    "title": "PRIVIPodERC1155RoyaltyFactoryWhiteListed contract",
    "version": 1
  },
  "userdoc": {
    "kind": "user",
    "methods": {
      "assignRoleSwapManager(address)": {
        "notice": "Assigns `MODERATOR_ROLE` to SwapManager contract"
      },
      "batchMintPodTokenById(string,address,uint256[],uint256[],bytes)": {
        "notice": "Mints a batch of ERC1155 Pod tokens"
      },
      "batchMintPodTokenByUri(string,address,uint256[],uint256[],bytes)": {
        "notice": "Mints a batch of ERC1155 Pod tokens"
      },
      "createMultiCreatorPod(string,string,uint256,uint256[],address[])": {
        "notice": "Creates a royalty ERC1155 Pod token generated by multiple  creators and registers it in the BridgeManager"
      },
      "createPod(string,string,uint256,address)": {
        "notice": "Creates a royalty ERC1155 Pod token and registers it in the BridgeManager"
      },
      "getPodAddressById(string)": {
        "notice": "Returns the contract address of the Pod token"
      },
      "getPodAddressByUri(string)": {
        "notice": "Returns the contract address of the Pod token"
      },
      "mintPodTokenById(string,address,uint256,uint256,bytes)": {
        "notice": "Mints ERC1155 Pod tokens"
      },
      "mintPodTokenByUri(string,address,uint256,uint256,bytes)": {
        "notice": "Mints ERC1155 Pod tokens"
      }
    },
    "version": 1
  }
}