{
  "contractName": "PRIVIPodERC20FactoryWhiteListed",
  "abi": [
    {
      "inputs": [
        {
          "internalType": "address",
          "name": "bridgeAddress",
          "type": "address"
        }
      ],
      "stateMutability": "nonpayable",
      "type": "constructor"
    },
    {
      "anonymous": false,
      "inputs": [
        {
          "indexed": true,
          "internalType": "string",
          "name": "podId",
          "type": "string"
        },
        {
          "indexed": false,
          "internalType": "string",
          "name": "podTokenName",
          "type": "string"
        },
        {
          "indexed": false,
          "internalType": "string",
          "name": "podTokenSymbol",
          "type": "string"
        }
      ],
      "name": "PodCreated",
      "type": "event"
    },
    {
      "anonymous": false,
      "inputs": [
        {
          "indexed": true,
          "internalType": "bytes32",
          "name": "role",
          "type": "bytes32"
        },
        {
          "indexed": true,
          "internalType": "bytes32",
          "name": "previousAdminRole",
          "type": "bytes32"
        },
        {
          "indexed": true,
          "internalType": "bytes32",
          "name": "newAdminRole",
          "type": "bytes32"
        }
      ],
      "name": "RoleAdminChanged",
      "type": "event"
    },
    {
      "anonymous": false,
      "inputs": [
        {
          "indexed": true,
          "internalType": "bytes32",
          "name": "role",
          "type": "bytes32"
        },
        {
          "indexed": true,
          "internalType": "address",
          "name": "account",
          "type": "address"
        },
        {
          "indexed": true,
          "internalType": "address",
          "name": "sender",
          "type": "address"
        }
      ],
      "name": "RoleGranted",
      "type": "event"
    },
    {
      "anonymous": false,
      "inputs": [
        {
          "indexed": true,
          "internalType": "bytes32",
          "name": "role",
          "type": "bytes32"
        },
        {
          "indexed": true,
          "internalType": "address",
          "name": "account",
          "type": "address"
        },
        {
          "indexed": true,
          "internalType": "address",
          "name": "sender",
          "type": "address"
        }
      ],
      "name": "RoleRevoked",
      "type": "event"
    },
    {
      "inputs": [],
      "name": "DEFAULT_ADMIN_ROLE",
      "outputs": [
        {
          "internalType": "bytes32",
          "name": "",
          "type": "bytes32"
        }
      ],
      "stateMutability": "view",
      "type": "function"
    },
    {
      "inputs": [],
      "name": "MODERATOR_ROLE",
      "outputs": [
        {
          "internalType": "bytes32",
          "name": "",
          "type": "bytes32"
        }
      ],
      "stateMutability": "view",
      "type": "function"
    },
    {
      "inputs": [],
      "name": "bridgeManagerAddress",
      "outputs": [
        {
          "internalType": "address",
          "name": "",
          "type": "address"
        }
      ],
      "stateMutability": "view",
      "type": "function"
    },
    {
      "inputs": [
        {
          "internalType": "bytes32",
          "name": "role",
          "type": "bytes32"
        }
      ],
      "name": "getRoleAdmin",
      "outputs": [
        {
          "internalType": "bytes32",
          "name": "",
          "type": "bytes32"
        }
      ],
      "stateMutability": "view",
      "type": "function"
    },
    {
      "inputs": [
        {
          "internalType": "bytes32",
          "name": "role",
          "type": "bytes32"
        },
        {
          "internalType": "address",
          "name": "account",
          "type": "address"
        }
      ],
      "name": "grantRole",
      "outputs": [],
      "stateMutability": "nonpayable",
      "type": "function"
    },
    {
      "inputs": [
        {
          "internalType": "bytes32",
          "name": "role",
          "type": "bytes32"
        },
        {
          "internalType": "address",
          "name": "account",
          "type": "address"
        }
      ],
      "name": "hasRole",
      "outputs": [
        {
          "internalType": "bool",
          "name": "",
          "type": "bool"
        }
      ],
      "stateMutability": "view",
      "type": "function"
    },
    {
      "inputs": [
        {
          "internalType": "bytes32",
          "name": "role",
          "type": "bytes32"
        },
        {
          "internalType": "address",
          "name": "account",
          "type": "address"
        }
      ],
      "name": "renounceRole",
      "outputs": [],
      "stateMutability": "nonpayable",
      "type": "function"
    },
    {
      "inputs": [
        {
          "internalType": "bytes32",
          "name": "role",
          "type": "bytes32"
        },
        {
          "internalType": "address",
          "name": "account",
          "type": "address"
        }
      ],
      "name": "revokeRole",
      "outputs": [],
      "stateMutability": "nonpayable",
      "type": "function"
    },
    {
      "inputs": [
        {
          "internalType": "bytes4",
          "name": "interfaceId",
          "type": "bytes4"
        }
      ],
      "name": "supportsInterface",
      "outputs": [
        {
          "internalType": "bool",
          "name": "",
          "type": "bool"
        }
      ],
      "stateMutability": "view",
      "type": "function"
    },
    {
      "inputs": [
        {
          "internalType": "address",
          "name": "swapManagerAddress",
          "type": "address"
        }
      ],
      "name": "assignRoleSwapManager",
      "outputs": [],
      "stateMutability": "nonpayable",
      "type": "function"
    },
    {
      "inputs": [],
      "name": "getTotalTokenCreated",
      "outputs": [
        {
          "internalType": "uint256",
          "name": "totalPods",
          "type": "uint256"
        }
      ],
      "stateMutability": "view",
      "type": "function"
    },
    {
      "inputs": [
        {
          "internalType": "string",
          "name": "podId",
          "type": "string"
        }
      ],
      "name": "getPodAddressById",
      "outputs": [
        {
          "internalType": "address",
          "name": "podAddress",
          "type": "address"
        }
      ],
      "stateMutability": "view",
      "type": "function"
    },
    {
      "inputs": [
        {
          "internalType": "string",
          "name": "tokenSymbol",
          "type": "string"
        }
      ],
      "name": "getPodAddressBySymbol",
      "outputs": [
        {
          "internalType": "address",
          "name": "podAddress",
          "type": "address"
        }
      ],
      "stateMutability": "view",
      "type": "function"
    },
    {
      "inputs": [
        {
          "internalType": "string",
          "name": "podId",
          "type": "string"
        },
        {
          "internalType": "string",
          "name": "podTokenName",
          "type": "string"
        },
        {
          "internalType": "string",
          "name": "podTokenSymbol",
          "type": "string"
        }
      ],
      "name": "createPod",
      "outputs": [
        {
          "internalType": "address",
          "name": "podAddress",
          "type": "address"
        }
      ],
      "stateMutability": "nonpayable",
      "type": "function"
    },
    {
      "inputs": [
        {
          "internalType": "string",
          "name": "podId",
          "type": "string"
        },
        {
          "internalType": "address",
          "name": "account",
          "type": "address"
        },
        {
          "internalType": "uint256",
          "name": "investAmount",
          "type": "uint256"
        }
      ],
      "name": "mintPodTokenById",
      "outputs": [],
      "stateMutability": "nonpayable",
      "type": "function"
    },
    {
      "inputs": [
        {
          "internalType": "string",
          "name": "tokenSymbol",
          "type": "string"
        },
        {
          "internalType": "address",
          "name": "account",
          "type": "address"
        },
        {
          "internalType": "uint256",
          "name": "investAmount",
          "type": "uint256"
        }
      ],
      "name": "mintPodTokenBySymbol",
      "outputs": [],
      "stateMutability": "nonpayable",
      "type": "function"
    },
    {
      "inputs": [
        {
          "internalType": "address",
          "name": "_account",
          "type": "address"
        }
      ],
      "name": "addModerator",
      "outputs": [],
      "stateMutability": "nonpayable",
      "type": "function"
    },
    {
      "inputs": [
        {
          "internalType": "address",
          "name": "_account",
          "type": "address"
        }
      ],
      "name": "removeModerator",
      "outputs": [],
      "stateMutability": "nonpayable",
      "type": "function"
    }
  ],
  "bytecode": "0x60806040523480156200001157600080fd5b506040516200249238038062002492833981016040819052620000349162000166565b6200004a6000620000446200009f565b620000a3565b620000797f71f3d55856e4058ed06ee057d79ada615f65cdf5f9ee88181b914225088f834f620000446200009f565b600180546001600160a01b0319166001600160a01b039290921691909117905562000196565b3390565b620000af8282620000b3565b5050565b620000bf82826200013d565b620000af576000828152602081815260408083206001600160a01b03851684529091529020805460ff19166001179055620000f96200009f565b6001600160a01b0316816001600160a01b0316837f2f8788117e7eff1d82e926ec794901d17c78024a50270940304540a733656f0d60405160405180910390a45050565b6000918252602082815260408084206001600160a01b0393909316845291905290205460ff1690565b60006020828403121562000178578081fd5b81516001600160a01b03811681146200018f578182fd5b9392505050565b6122ec80620001a66000396000f3fe60806040523480156200001157600080fd5b5060043610620001305760003560e01c8063797669c911620000b1578063a217fddf116200007b578063a217fddf146200027e578063b176d4ba1462000288578063b532e4cb146200029f578063d547741f14620002b6578063e792b19414620002cd5762000130565b8063797669c9146200022f578063869d785f14620002395780638d1909ed146200025057806391d1485414620002675762000130565b80632f2ff15d11620000ff5780632f2ff15d14620001ba5780633325a4e414620001d357806336568abe14620001ea578063416aad1e1462000201578063532d9c4414620002185762000130565b806301ffc9a714620001355780630fc09e2e146200016457806322b2edeb146200017d578063248a9ca314620001a3575b600080fd5b6200014c6200014636600462000bdd565b620002d7565b6040516200015b919062000db2565b60405180910390f35b6200016e62000307565b6040516200015b919062000dbd565b620001946200018e36600462000c07565b6200030d565b6040516200015b919062000d85565b6200016e620001b436600462000b96565b62000343565b620001d1620001cb36600462000baf565b62000358565b005b62000194620001e436600462000c07565b620003a9565b620001d1620001fb36600462000baf565b620003bf565b620001946200021236600462000cab565b62000408565b620001d16200022936600462000c4b565b620006b6565b6200016e620007c9565b620001d16200024a36600462000b72565b620007dc565b620001d16200026136600462000b72565b62000829565b6200014c6200027836600462000baf565b62000881565b6200016e620008aa565b620001d16200029936600462000c4b565b620008af565b620001d1620002b036600462000b72565b6200094c565b620001d1620002c736600462000baf565b62000996565b62000194620009c4565b60006001600160e01b03198216637965db0b60e01b1480620002ff5750620002ff82620009d3565b90505b919050565b60025490565b6000600383836040516200032392919062000d75565b908152604051908190036020019020546001600160a01b03169392505050565b60009081526020819052604090206001015490565b62000371620003678362000343565b62000278620009ec565b620003995760405162461bcd60e51b8152600401620003909062000e43565b60405180910390fd5b620003a58282620009f0565b5050565b6000600483836040516200032392919062000d75565b620003c9620009ec565b6001600160a01b0316816001600160a01b031614620003fc5760405162461bcd60e51b81526004016200039090620010d8565b620003a5828262000a7a565b6000620004286000805160206200229783398151915262000278620009ec565b620004475760405162461bcd60e51b8152600401620003909062000ea0565b60006001600160a01b0316600388886040516200046692919062000d75565b908152604051908190036020019020546001600160a01b0316146200049f5760405162461bcd60e51b815260040162000390906200108d565b60006001600160a01b031660048484604051620004be92919062000d75565b908152604051908190036020019020546001600160a01b031614620004f75760405162461bcd60e51b8152600401620003909062000fd3565b600085858585306040516200050c9062000b02565b6200051c95949392919062000dfc565b604051809103906000f08015801562000539573d6000803e3d6000fd5b50905080915060016002600082825462000554919062001135565b9250508190555081600389896040516200057092919062000d75565b908152602001604051809103902060006101000a8154816001600160a01b0302191690836001600160a01b031602179055508160048585604051620005b792919062000d75565b90815260405190819003602001812080546001600160a01b0393841673ffffffffffffffffffffffffffffffffffffffff1990911617905560015463374b216760e21b82529091169063dd2c859c906200061e908990899089908990899060040162000dfc565b600060405180830381600087803b1580156200063957600080fd5b505af11580156200064e573d6000803e3d6000fd5b5050505087876040516200066492919062000d75565b60405180910390207fc0512f6474c9ee949f1cbdc88e43ca774f79b5f1f07d8484696e1cf1a0bd87ce87878787604051620006a3949392919062000dc6565b60405180910390a2509695505050505050565b620006d46000805160206200229783398151915262000278620009ec565b620006f35760405162461bcd60e51b8152600401620003909062000ea0565b6001600160a01b0382166200071c5760405162461bcd60e51b8152600401620003909062001030565b600081116200073f5760405162461bcd60e51b8152600401620003909062000ee4565b600384846040516200075392919062000d75565b908152604051908190036020018120546340c10f1960e01b82526001600160a01b0316906340c10f19906200078f908590859060040162000d99565b600060405180830381600087803b158015620007aa57600080fd5b505af1158015620007bf573d6000803e3d6000fd5b5050505050505050565b6000805160206200229783398151915281565b620007ec600062000278620009ec565b6200080b5760405162461bcd60e51b8152600401620003909062000f9e565b62000826600080516020620022978339815191528262000996565b50565b620008476000805160206200229783398151915262000278620009ec565b620008665760405162461bcd60e51b8152600401620003909062000ea0565b62000826600080516020620022978339815191528262000399565b6000918252602082815260408084206001600160a01b0393909316845291905290205460ff1690565b600081565b620008cd6000805160206200229783398151915262000278620009ec565b620008ec5760405162461bcd60e51b8152600401620003909062000ea0565b6001600160a01b038216620009155760405162461bcd60e51b8152600401620003909062001030565b60008111620009385760405162461bcd60e51b8152600401620003909062000ee4565b600484846040516200075392919062000d75565b6200095c600062000278620009ec565b6200097b5760405162461bcd60e51b8152600401620003909062000f9e565b62000826600080516020620022978339815191528262000358565b620009a5620003678362000343565b620003fc5760405162461bcd60e51b8152600401620003909062000f41565b6001546001600160a01b031681565b6001600160e01b031981166301ffc9a760e01b14919050565b3390565b620009fc828262000881565b620003a5576000828152602081815260408083206001600160a01b03851684529091529020805460ff1916600117905562000a36620009ec565b6001600160a01b0316816001600160a01b0316837f2f8788117e7eff1d82e926ec794901d17c78024a50270940304540a733656f0d60405160405180910390a45050565b62000a86828262000881565b15620003a5576000828152602081815260408083206001600160a01b03851684529091529020805460ff1916905562000abe620009ec565b6001600160a01b0316816001600160a01b0316837ff6391f5c32d9c69d2a47ea670b442974b53935d1edc7fd64eb21e047a839171b60405160405180910390a45050565b61113c806200115b83390190565b80356001600160a01b03811681146200030257600080fd5b60008083601f84011262000b3a578182fd5b50813567ffffffffffffffff81111562000b52578182fd5b60208301915083602082850101111562000b6b57600080fd5b9250929050565b60006020828403121562000b84578081fd5b62000b8f8262000b10565b9392505050565b60006020828403121562000ba8578081fd5b5035919050565b6000806040838503121562000bc2578081fd5b8235915062000bd46020840162000b10565b90509250929050565b60006020828403121562000bef578081fd5b81356001600160e01b03198116811462000b8f578182fd5b6000806020838503121562000c1a578182fd5b823567ffffffffffffffff81111562000c31578283fd5b62000c3f8582860162000b28565b90969095509350505050565b6000806000806060858703121562000c61578182fd5b843567ffffffffffffffff81111562000c78578283fd5b62000c868782880162000b28565b909550935062000c9b90506020860162000b10565b9396929550929360400135925050565b6000806000806000806060878903121562000cc4578182fd5b863567ffffffffffffffff8082111562000cdc578384fd5b62000cea8a838b0162000b28565b9098509650602089013591508082111562000d03578384fd5b62000d118a838b0162000b28565b9096509450604089013591508082111562000d2a578384fd5b5062000d3989828a0162000b28565b979a9699509497509295939492505050565b60008284528282602086013780602084860101526020601f19601f85011685010190509392505050565b6000828483379101908152919050565b6001600160a01b0391909116815260200190565b6001600160a01b03929092168252602082015260400190565b901515815260200190565b90815260200190565b60006040825262000ddc60408301868862000d4b565b828103602084015262000df181858762000d4b565b979650505050505050565b60006060825262000e1260608301878962000d4b565b828103602084015262000e2781868862000d4b565b9150506001600160a01b03831660408301529695505050505050565b6020808252602f908201527f416363657373436f6e74726f6c3a2073656e646572206d75737420626520616e60408201527f2061646d696e20746f206772616e740000000000000000000000000000000000606082015260800190565b60208082526024908201527f4f776e61626c653a2063616c6c6572206973206e6f7420746865206d6f64657260408201526330ba37b960e11b606082015260800190565b60208082526035908201527f5052495649506f644552433230466163746f72793a20696e76657374416d6f7560408201527f6e742073686f756c64206e6f74206265207a65726f0000000000000000000000606082015260800190565b60208082526030908201527f416363657373436f6e74726f6c3a2073656e646572206d75737420626520616e60408201527f2061646d696e20746f207265766f6b6500000000000000000000000000000000606082015260800190565b6020808252818101527f4f776e61626c653a2063616c6c6572206973206e6f74207468652061646d696e604082015260600190565b6020808252602f908201527f5052495649506f644552433230466163746f72793a20506f642073796d626f6c60408201527f20616c7265616479206578697374730000000000000000000000000000000000606082015260800190565b60208082526038908201527f5052495649506f644552433230466163746f72793a204163636f756e7420616460408201527f64726573732073686f756c64206e6f74206265207a65726f0000000000000000606082015260800190565b6020808252602b908201527f5052495649506f644552433230466163746f72793a20506f6420696420616c7260408201526a656164792065786973747360a81b606082015260800190565b6020808252602f908201527f416363657373436f6e74726f6c3a2063616e206f6e6c792072656e6f756e636560408201527f20726f6c657320666f722073656c660000000000000000000000000000000000606082015260800190565b600082198211156200115557634e487b7160e01b81526011600452602481fd5b50019056fe60806040523480156200001157600080fd5b506040516200113c3803806200113c8339810160408190526200003491620001e1565b8251839083906200004d90600390602085019062000090565b5080516200006390600490602084019062000090565b5050600580546001600160a01b0319166001600160a01b03939093169290921790915550620002bd915050565b8280546200009e906200026a565b90600052602060002090601f016020900481019282620000c257600085556200010d565b82601f10620000dd57805160ff19168380011785556200010d565b828001600101855582156200010d579182015b828111156200010d578251825591602001919060010190620000f0565b506200011b9291506200011f565b5090565b5b808211156200011b576000815560010162000120565b600082601f83011262000147578081fd5b81516001600160401b0380821115620001645762000164620002a7565b6040516020601f8401601f19168201810183811183821017156200018c576200018c620002a7565b6040528382528584018101871015620001a3578485fd5b8492505b83831015620001c65785830181015182840182015291820191620001a7565b83831115620001d757848185840101525b5095945050505050565b600080600060608486031215620001f6578283fd5b83516001600160401b03808211156200020d578485fd5b6200021b8783880162000136565b9450602086015191508082111562000231578384fd5b50620002408682870162000136565b604086015190935090506001600160a01b03811681146200025f578182fd5b809150509250925092565b6002810460018216806200027f57607f821691505b60208210811415620002a157634e487b7160e01b600052602260045260246000fd5b50919050565b634e487b7160e01b600052604160045260246000fd5b610e6f80620002cd6000396000f3fe608060405234801561001057600080fd5b50600436106100f55760003560e01c806342966c68116100975780639d35c161116100665780639d35c161146101de578063a457c2d7146101f3578063a9059cbb14610206578063dd62ed3e14610219576100f5565b806342966c681461019d57806370a08231146101b057806379cc6790146101c357806395d89b41146101d6576100f5565b806323b872dd116100d357806323b872dd1461014d578063313ce56714610160578063395093511461017557806340c10f1914610188576100f5565b806306fdde03146100fa578063095ea7b31461011857806318160ddd14610138575b600080fd5b61010261022c565b60405161010f9190610a13565b60405180910390f35b61012b6101263660046109b3565b6102be565b60405161010f9190610a08565b6101406102db565b60405161010f9190610da2565b61012b61015b366004610978565b6102e1565b610168610381565b60405161010f9190610dab565b61012b6101833660046109b3565b610386565b61019b6101963660046109b3565b6103d5565b005b61019b6101ab3660046109dc565b61041d565b6101406101be366004610925565b610431565b61019b6101d13660046109b3565b610450565b6101026104a5565b6101e66104b4565b60405161010f91906109f4565b61012b6102013660046109b3565b6104c3565b61012b6102143660046109b3565b61053e565b610140610227366004610946565b610552565b60606003805461023b90610de8565b80601f016020809104026020016040519081016040528092919081815260200182805461026790610de8565b80156102b45780601f10610289576101008083540402835291602001916102b4565b820191906000526020600020905b81548152906001019060200180831161029757829003601f168201915b5050505050905090565b60006102d26102cb61057d565b8484610581565b50600192915050565b60025490565b60006102ee848484610635565b6001600160a01b03841660009081526001602052604081208161030f61057d565b6001600160a01b03166001600160a01b031681526020019081526020016000205490508281101561035b5760405162461bcd60e51b815260040161035290610b73565b60405180910390fd5b6103768561036761057d565b6103718685610dd1565b610581565b506001949350505050565b601290565b60006102d261039361057d565b8484600160006103a161057d565b6001600160a01b03908116825260208083019390935260409182016000908120918b16815292529020546103719190610db9565b6005546001600160a01b03166103e961057d565b6001600160a01b03161461040f5760405162461bcd60e51b815260040161035290610d45565b610419828261075d565b5050565b61042e61042861057d565b8261081d565b50565b6001600160a01b0381166000908152602081905260409020545b919050565b600061045e8361022761057d565b9050818110156104805760405162461bcd60e51b815260040161035290610bbb565b6104968361048c61057d565b6103718585610dd1565b6104a0838361081d565b505050565b60606004805461023b90610de8565b6005546001600160a01b031681565b600080600160006104d261057d565b6001600160a01b039081168252602080830193909352604091820160009081209188168152925290205490508281101561051e5760405162461bcd60e51b815260040161035290610cc9565b61053461052961057d565b856103718685610dd1565b5060019392505050565b60006102d261054b61057d565b8484610635565b6001600160a01b03918216600090815260016020908152604080832093909416825291909152205490565b3390565b6001600160a01b0383166105a75760405162461bcd60e51b815260040161035290610c85565b6001600160a01b0382166105cd5760405162461bcd60e51b815260040161035290610aeb565b6001600160a01b0380841660008181526001602090815260408083209487168084529490915290819020849055517f8c5be1e5ebec7d5bd14f71427d1e84f3dd0314c0f7b2291e5b200ac8c7c3b92590610628908590610da2565b60405180910390a3505050565b6001600160a01b03831661065b5760405162461bcd60e51b815260040161035290610c40565b6001600160a01b0382166106815760405162461bcd60e51b815260040161035290610a66565b61068c838383610903565b6001600160a01b038316600090815260208190526040902054818110156106c55760405162461bcd60e51b815260040161035290610b2d565b6106cf8282610dd1565b6001600160a01b038086166000908152602081905260408082209390935590851681529081208054849290610705908490610db9565b92505081905550826001600160a01b0316846001600160a01b03167fddf252ad1be2c89b69c2b068fc378daa952ba7f163c4a11628f55a4df523b3ef8460405161074f9190610da2565b60405180910390a350505050565b6001600160a01b0382166107835760405162461bcd60e51b815260040161035290610d0e565b61078f60008383610903565b80600260008282546107a19190610db9565b90915550506001600160a01b038216600090815260208190526040812080548392906107ce908490610db9565b90915550506040516001600160a01b038316906000907fddf252ad1be2c89b69c2b068fc378daa952ba7f163c4a11628f55a4df523b3ef90610811908590610da2565b60405180910390a35050565b6001600160a01b0382166108435760405162461bcd60e51b815260040161035290610bff565b61084f82600083610903565b6001600160a01b038216600090815260208190526040902054818110156108885760405162461bcd60e51b815260040161035290610aa9565b6108928282610dd1565b6001600160a01b038416600090815260208190526040812091909155600280548492906108c0908490610dd1565b90915550506040516000906001600160a01b038516907fddf252ad1be2c89b69c2b068fc378daa952ba7f163c4a11628f55a4df523b3ef90610628908690610da2565b6104a08383836104a0565b80356001600160a01b038116811461044b57600080fd5b600060208284031215610936578081fd5b61093f8261090e565b9392505050565b60008060408385031215610958578081fd5b6109618361090e565b915061096f6020840161090e565b90509250929050565b60008060006060848603121561098c578081fd5b6109958461090e565b92506109a36020850161090e565b9150604084013590509250925092565b600080604083850312156109c5578182fd5b6109ce8361090e565b946020939093013593505050565b6000602082840312156109ed578081fd5b5035919050565b6001600160a01b0391909116815260200190565b901515815260200190565b6000602080835283518082850152825b81811015610a3f57858101830151858201604001528201610a23565b81811115610a505783604083870101525b50601f01601f1916929092016040019392505050565b60208082526023908201527f45524332303a207472616e7366657220746f20746865207a65726f206164647260408201526265737360e81b606082015260800190565b60208082526022908201527f45524332303a206275726e20616d6f756e7420657863656564732062616c616e604082015261636560f01b606082015260800190565b60208082526022908201527f45524332303a20617070726f766520746f20746865207a65726f206164647265604082015261737360f01b606082015260800190565b60208082526026908201527f45524332303a207472616e7366657220616d6f756e7420657863656564732062604082015265616c616e636560d01b606082015260800190565b60208082526028908201527f45524332303a207472616e7366657220616d6f756e74206578636565647320616040820152676c6c6f77616e636560c01b606082015260800190565b60208082526024908201527f45524332303a206275726e20616d6f756e74206578636565647320616c6c6f77604082015263616e636560e01b606082015260800190565b60208082526021908201527f45524332303a206275726e2066726f6d20746865207a65726f206164647265736040820152607360f81b606082015260800190565b60208082526025908201527f45524332303a207472616e736665722066726f6d20746865207a65726f206164604082015264647265737360d81b606082015260800190565b60208082526024908201527f45524332303a20617070726f76652066726f6d20746865207a65726f206164646040820152637265737360e01b606082015260800190565b60208082526025908201527f45524332303a2064656372656173656420616c6c6f77616e63652062656c6f77604082015264207a65726f60d81b606082015260800190565b6020808252601f908201527f45524332303a206d696e7420746f20746865207a65726f206164647265737300604082015260600190565b60208082526038908201527f5052495649506f644552433230546f6b656e3a204f6e6c7920466163746f727960408201527f2063616e2063616c6c20746869732066756e6374696f6e2e0000000000000000606082015260800190565b90815260200190565b60ff91909116815260200190565b60008219821115610dcc57610dcc610e23565b500190565b600082821015610de357610de3610e23565b500390565b600281046001821680610dfc57607f821691505b60208210811415610e1d57634e487b7160e01b600052602260045260246000fd5b50919050565b634e487b7160e01b600052601160045260246000fdfea2646970667358221220935b90031f1b04d291e8ea70a14012ff0581fed9a047c6bbd25bf809a6c8918e64736f6c6343000800003371f3d55856e4058ed06ee057d79ada615f65cdf5f9ee88181b914225088f834fa264697066735822122038b59c0186eb69be06267aff0904ebdb508dbf6bcb1ad59ccf252cd0624c1dba64736f6c63430008000033",
  "immutableReferences": {},
  "source": "// SPDX-License-Identifier: MIT\npragma solidity ^0.8.0;\n\nimport \"@openzeppelin/contracts/access/AccessControl.sol\";\nimport \"./token/PRIVIPodERC20Token.sol\";\nimport \"./interfaces/IBridgeManager.sol\";\n\n/**\n * @title   PRIVIPodERC20FactoryWhiteListed contract\n * @dev     Creates new ERC20 tokens using a factory pattern\n * @author  PRIVI\n **/\ncontract PRIVIPodERC20FactoryWhiteListed is AccessControl {\n  bytes32 public constant MODERATOR_ROLE = keccak256(\"MODERATOR_ROLE\");\n  address public bridgeManagerAddress;\n  uint256 private totalPodCreated;\n  mapping(string => address) private podTokenAddressesById;\n  mapping(string => address) private podTokenAddressesBySymbol;\n\n  event PodCreated(\n    string indexed podId,\n    string podTokenName,\n    string podTokenSymbol\n  );\n\n  modifier onlyAdmin() {\n    require(\n      hasRole(DEFAULT_ADMIN_ROLE, _msgSender()),\n      \"Ownable: caller is not the admin\"\n    );\n    _;\n  }\n\n  modifier onlyModerator() {\n    require(\n      hasRole(MODERATOR_ROLE, _msgSender()),\n      \"Ownable: caller is not the moderator\"\n    );\n    _;\n  }\n\n  /**\n   * @dev\n   * - Grants `DEFAULT_ADMIN_ROLE` and `MODERATOR_ROLE` to the\n   *   account that deploys the contract\n   * - Assigns the bridgeManager address\n   */\n  constructor(address bridgeAddress) {\n    _setupRole(DEFAULT_ADMIN_ROLE, _msgSender());\n    _setupRole(MODERATOR_ROLE, _msgSender());\n    bridgeManagerAddress = bridgeAddress;\n  }\n\n  /**\n   * @notice Assigns `MODERATOR_ROLE` to SwapManager contract\n   * @param  swapManagerAddress The SwapManager contract address\n   */\n  function assignRoleSwapManager(address swapManagerAddress) external onlyModerator {\n    _setupRole(MODERATOR_ROLE, swapManagerAddress);\n  }\n\n  /**\n   * @notice Returns the total amount of Pod tokens created\n   */\n  function getTotalTokenCreated() external view returns (uint256 totalPods) {\n    totalPods = totalPodCreated;\n  }\n\n  /**\n   * @notice Returns the contract address of the Pod token\n   * @param  podId The Pod token identifier\n   * @return podAddress The contract address of the Pod token\n   */\n  function getPodAddressById(string calldata podId)\n    external\n    view\n    returns (address podAddress)\n  {\n    podAddress = podTokenAddressesById[podId];\n  }\n\n  /**\n   * @notice Returns the contract address of the Pod token\n   * @param  tokenSymbol The Pod token symbol (ticker)\n   * @return podAddress The contract address of the Pod token\n   */\n  function getPodAddressBySymbol(string calldata tokenSymbol)\n    external\n    view\n    returns (address podAddress)\n  {\n    podAddress = podTokenAddressesBySymbol[tokenSymbol];\n  }\n\n  /**\n   * @notice Creates an ERC20 Pod token and registers it in the BridgeManager\n   * @dev    - Pod id must not exist\n   *         - Pod name & symbol must not exist\n   *         - Pod name & symbol can't be empty\n   *         - Pod symbol can't be greater than 25 characters\n   * @param  podId The Pod token identifier\n   * @param  podTokenName The Pod token name\n   * @param  podTokenSymbol The Pod token symbol (ticker)\n   * @return podAddress The contract address of the Pod token created\n   */\n  function createPod(\n    string calldata podId,\n    string calldata podTokenName,\n    string calldata podTokenSymbol\n  ) external onlyModerator returns (address podAddress) {\n    require(\n      podTokenAddressesById[podId] == address(0),\n      \"PRIVIPodERC20Factory: Pod id already exists\"\n    );\n    require(\n      podTokenAddressesBySymbol[podTokenSymbol] == address(0),\n      \"PRIVIPodERC20Factory: Pod symbol already exists\"\n    );\n\n    PRIVIPodERC20Token podToken =\n      new PRIVIPodERC20Token(podTokenName, podTokenSymbol, address(this));\n    podAddress = address(podToken);\n\n    totalPodCreated += 1;\n\n    podTokenAddressesById[podId] = podAddress;\n    podTokenAddressesBySymbol[podTokenSymbol] = podAddress;\n\n    IBridgeManager(bridgeManagerAddress).registerTokenERC20(\n      podTokenName,\n      podTokenSymbol,\n      podAddress\n    );\n\n    emit PodCreated(podId, podTokenName, podTokenSymbol);\n  }\n\n  /**\n   * @notice Mints ERC20 Pod tokens\n   * @dev    - The caller must MODERATOR_ROLE\n   *         - `account` address can't be zero\n   *         - 'investAmount` must be greater than zero\n   * @param  podId The Pod token identifier\n   * @param  account The destination account to receive minted tokens\n   * @param  investAmount The amount of tokens to be minted\n   */\n  function mintPodTokenById(\n    string calldata podId,\n    address account,\n    uint256 investAmount\n  ) external onlyModerator {\n    require(\n      account != address(0),\n      \"PRIVIPodERC20Factory: Account address should not be zero\"\n    );\n    require(\n      investAmount > 0,\n      \"PRIVIPodERC20Factory: investAmount should not be zero\"\n    );\n\n    PRIVIPodERC20Token(podTokenAddressesById[podId]).mint(\n      account,\n      investAmount\n    );\n  }\n\n  /**\n   * @notice Mints ERC20 Pod tokens\n   * @dev    - The caller must MODERATOR_ROLE\n   *         - `account` address can't be zero\n   *         - 'investAmount` must be greater than zero\n   * @param  tokenSymbol The Pod token symbol (sticker)\n   * @param  account The destination account to receive minted tokens\n   * @param  investAmount The amount of tokens to be minted\n   */\n  function mintPodTokenBySymbol(\n    string calldata tokenSymbol,\n    address account,\n    uint256 investAmount\n  ) external onlyModerator {\n    require(\n      account != address(0),\n      \"PRIVIPodERC20Factory: Account address should not be zero\"\n    );\n    require(\n      investAmount > 0,\n      \"PRIVIPodERC20Factory: investAmount should not be zero\"\n    );\n\n    PRIVIPodERC20Token(podTokenAddressesBySymbol[tokenSymbol]).mint(\n      account,\n      investAmount\n    );\n  }\n\n  function addModerator(address _account) public onlyAdmin {\n    grantRole(MODERATOR_ROLE, _account);\n  }\n\n  function removeModerator(address _account) public onlyAdmin {\n    revokeRole(MODERATOR_ROLE, _account);\n  }\n}\n",
  "sourcePath": "/Volumes/Workspace/PRIVI/PRIVIethereum/contracts/PRIVIPodERC20FactoryWhiteListed.sol",
  "compiler": {
    "name": "solc",
    "version": "0.8.0+commit.c7dfd78e.Emscripten.clang"
  },
  "schemaVersion": "3.3.4",
  "updatedAt": "2021-04-23T14:01:46.355Z",
  "devdoc": {
    "author": "PRIVI*",
    "details": "Creates new ERC20 tokens using a factory pattern",
    "kind": "dev",
    "methods": {
      "assignRoleSwapManager(address)": {
        "params": {
          "swapManagerAddress": "The SwapManager contract address"
        }
      },
      "constructor": {
        "details": "- Grants `DEFAULT_ADMIN_ROLE` and `MODERATOR_ROLE` to the   account that deploys the contract - Assigns the bridgeManager address"
      },
      "createPod(string,string,string)": {
        "details": "- Pod id must not exist         - Pod name & symbol must not exist         - Pod name & symbol can't be empty         - Pod symbol can't be greater than 25 characters",
        "params": {
          "podId": "The Pod token identifier",
          "podTokenName": "The Pod token name",
          "podTokenSymbol": "The Pod token symbol (ticker)"
        },
        "returns": {
          "podAddress": "The contract address of the Pod token created"
        }
      },
      "getPodAddressById(string)": {
        "params": {
          "podId": "The Pod token identifier"
        },
        "returns": {
          "podAddress": "The contract address of the Pod token"
        }
      },
      "getPodAddressBySymbol(string)": {
        "params": {
          "tokenSymbol": "The Pod token symbol (ticker)"
        },
        "returns": {
          "podAddress": "The contract address of the Pod token"
        }
      },
      "getRoleAdmin(bytes32)": {
        "details": "Returns the admin role that controls `role`. See {grantRole} and {revokeRole}. To change a role's admin, use {_setRoleAdmin}."
      },
      "grantRole(bytes32,address)": {
        "details": "Grants `role` to `account`. If `account` had not been already granted `role`, emits a {RoleGranted} event. Requirements: - the caller must have ``role``'s admin role."
      },
      "hasRole(bytes32,address)": {
        "details": "Returns `true` if `account` has been granted `role`."
      },
      "mintPodTokenById(string,address,uint256)": {
        "details": "- The caller must MODERATOR_ROLE         - `account` address can't be zero         - 'investAmount` must be greater than zero",
        "params": {
          "account": "The destination account to receive minted tokens",
          "investAmount": "The amount of tokens to be minted",
          "podId": "The Pod token identifier"
        }
      },
      "mintPodTokenBySymbol(string,address,uint256)": {
        "details": "- The caller must MODERATOR_ROLE         - `account` address can't be zero         - 'investAmount` must be greater than zero",
        "params": {
          "account": "The destination account to receive minted tokens",
          "investAmount": "The amount of tokens to be minted",
          "tokenSymbol": "The Pod token symbol (sticker)"
        }
      },
      "renounceRole(bytes32,address)": {
        "details": "Revokes `role` from the calling account. Roles are often managed via {grantRole} and {revokeRole}: this function's purpose is to provide a mechanism for accounts to lose their privileges if they are compromised (such as when a trusted device is misplaced). If the calling account had been granted `role`, emits a {RoleRevoked} event. Requirements: - the caller must be `account`."
      },
      "revokeRole(bytes32,address)": {
        "details": "Revokes `role` from `account`. If `account` had been granted `role`, emits a {RoleRevoked} event. Requirements: - the caller must have ``role``'s admin role."
      },
      "supportsInterface(bytes4)": {
        "details": "See {IERC165-supportsInterface}."
      }
    },
    "title": "PRIVIPodERC20FactoryWhiteListed contract",
    "version": 1
  },
  "userdoc": {
    "kind": "user",
    "methods": {
      "assignRoleSwapManager(address)": {
        "notice": "Assigns `MODERATOR_ROLE` to SwapManager contract"
      },
      "createPod(string,string,string)": {
        "notice": "Creates an ERC20 Pod token and registers it in the BridgeManager"
      },
      "getPodAddressById(string)": {
        "notice": "Returns the contract address of the Pod token"
      },
      "getPodAddressBySymbol(string)": {
        "notice": "Returns the contract address of the Pod token"
      },
      "getTotalTokenCreated()": {
        "notice": "Returns the total amount of Pod tokens created"
      },
      "mintPodTokenById(string,address,uint256)": {
        "notice": "Mints ERC20 Pod tokens"
      },
      "mintPodTokenBySymbol(string,address,uint256)": {
        "notice": "Mints ERC20 Pod tokens"
      }
    },
    "version": 1
  }
}