{
  "contractName": "PRIVIPodERC721RoyaltyFactoryWhiteListed",
  "abi": [
    {
      "inputs": [
        {
          "internalType": "address",
          "name": "bridgeAddress",
          "type": "address"
        }
      ],
      "stateMutability": "nonpayable",
      "type": "constructor"
    },
    {
      "anonymous": false,
      "inputs": [
        {
          "indexed": true,
          "internalType": "string",
          "name": "podId",
          "type": "string"
        },
        {
          "indexed": false,
          "internalType": "string",
          "name": "podTokenName",
          "type": "string"
        },
        {
          "indexed": false,
          "internalType": "string",
          "name": "podTokenSymbol",
          "type": "string"
        }
      ],
      "name": "PodCreated",
      "type": "event"
    },
    {
      "anonymous": false,
      "inputs": [
        {
          "indexed": true,
          "internalType": "bytes32",
          "name": "role",
          "type": "bytes32"
        },
        {
          "indexed": true,
          "internalType": "bytes32",
          "name": "previousAdminRole",
          "type": "bytes32"
        },
        {
          "indexed": true,
          "internalType": "bytes32",
          "name": "newAdminRole",
          "type": "bytes32"
        }
      ],
      "name": "RoleAdminChanged",
      "type": "event"
    },
    {
      "anonymous": false,
      "inputs": [
        {
          "indexed": true,
          "internalType": "bytes32",
          "name": "role",
          "type": "bytes32"
        },
        {
          "indexed": true,
          "internalType": "address",
          "name": "account",
          "type": "address"
        },
        {
          "indexed": true,
          "internalType": "address",
          "name": "sender",
          "type": "address"
        }
      ],
      "name": "RoleGranted",
      "type": "event"
    },
    {
      "anonymous": false,
      "inputs": [
        {
          "indexed": true,
          "internalType": "bytes32",
          "name": "role",
          "type": "bytes32"
        },
        {
          "indexed": true,
          "internalType": "address",
          "name": "account",
          "type": "address"
        },
        {
          "indexed": true,
          "internalType": "address",
          "name": "sender",
          "type": "address"
        }
      ],
      "name": "RoleRevoked",
      "type": "event"
    },
    {
      "inputs": [],
      "name": "DEFAULT_ADMIN_ROLE",
      "outputs": [
        {
          "internalType": "bytes32",
          "name": "",
          "type": "bytes32"
        }
      ],
      "stateMutability": "view",
      "type": "function"
    },
    {
      "inputs": [],
      "name": "MODERATOR_ROLE",
      "outputs": [
        {
          "internalType": "bytes32",
          "name": "",
          "type": "bytes32"
        }
      ],
      "stateMutability": "view",
      "type": "function"
    },
    {
      "inputs": [],
      "name": "bridgeManagerAddress",
      "outputs": [
        {
          "internalType": "address",
          "name": "",
          "type": "address"
        }
      ],
      "stateMutability": "view",
      "type": "function"
    },
    {
      "inputs": [
        {
          "internalType": "bytes32",
          "name": "role",
          "type": "bytes32"
        }
      ],
      "name": "getRoleAdmin",
      "outputs": [
        {
          "internalType": "bytes32",
          "name": "",
          "type": "bytes32"
        }
      ],
      "stateMutability": "view",
      "type": "function"
    },
    {
      "inputs": [
        {
          "internalType": "bytes32",
          "name": "role",
          "type": "bytes32"
        },
        {
          "internalType": "address",
          "name": "account",
          "type": "address"
        }
      ],
      "name": "grantRole",
      "outputs": [],
      "stateMutability": "nonpayable",
      "type": "function"
    },
    {
      "inputs": [
        {
          "internalType": "bytes32",
          "name": "role",
          "type": "bytes32"
        },
        {
          "internalType": "address",
          "name": "account",
          "type": "address"
        }
      ],
      "name": "hasRole",
      "outputs": [
        {
          "internalType": "bool",
          "name": "",
          "type": "bool"
        }
      ],
      "stateMutability": "view",
      "type": "function"
    },
    {
      "inputs": [
        {
          "internalType": "bytes32",
          "name": "role",
          "type": "bytes32"
        },
        {
          "internalType": "address",
          "name": "account",
          "type": "address"
        }
      ],
      "name": "renounceRole",
      "outputs": [],
      "stateMutability": "nonpayable",
      "type": "function"
    },
    {
      "inputs": [
        {
          "internalType": "bytes32",
          "name": "role",
          "type": "bytes32"
        },
        {
          "internalType": "address",
          "name": "account",
          "type": "address"
        }
      ],
      "name": "revokeRole",
      "outputs": [],
      "stateMutability": "nonpayable",
      "type": "function"
    },
    {
      "inputs": [
        {
          "internalType": "bytes4",
          "name": "interfaceId",
          "type": "bytes4"
        }
      ],
      "name": "supportsInterface",
      "outputs": [
        {
          "internalType": "bool",
          "name": "",
          "type": "bool"
        }
      ],
      "stateMutability": "view",
      "type": "function"
    },
    {
      "inputs": [
        {
          "internalType": "address",
          "name": "swapManagerAddress",
          "type": "address"
        }
      ],
      "name": "assignRoleSwapManager",
      "outputs": [],
      "stateMutability": "nonpayable",
      "type": "function"
    },
    {
      "inputs": [],
      "name": "getTotalTokenCreated",
      "outputs": [
        {
          "internalType": "uint256",
          "name": "totalPods",
          "type": "uint256"
        }
      ],
      "stateMutability": "view",
      "type": "function"
    },
    {
      "inputs": [
        {
          "internalType": "string",
          "name": "podId",
          "type": "string"
        }
      ],
      "name": "getPodAddressById",
      "outputs": [
        {
          "internalType": "address",
          "name": "podAddress",
          "type": "address"
        }
      ],
      "stateMutability": "view",
      "type": "function"
    },
    {
      "inputs": [
        {
          "internalType": "string",
          "name": "tokenSymbol",
          "type": "string"
        }
      ],
      "name": "getPodAddressBySymbol",
      "outputs": [
        {
          "internalType": "address",
          "name": "podAddress",
          "type": "address"
        }
      ],
      "stateMutability": "view",
      "type": "function"
    },
    {
      "inputs": [
        {
          "internalType": "string",
          "name": "podId",
          "type": "string"
        },
        {
          "internalType": "string",
          "name": "podTokenName",
          "type": "string"
        },
        {
          "internalType": "string",
          "name": "podTokenSymbol",
          "type": "string"
        },
        {
          "internalType": "string",
          "name": "baseURI",
          "type": "string"
        },
        {
          "internalType": "uint256",
          "name": "royaltyAmount",
          "type": "uint256"
        },
        {
          "internalType": "address",
          "name": "creator",
          "type": "address"
        }
      ],
      "name": "createPod",
      "outputs": [
        {
          "internalType": "address",
          "name": "podAddress",
          "type": "address"
        }
      ],
      "stateMutability": "nonpayable",
      "type": "function"
    },
    {
      "inputs": [
        {
          "internalType": "string",
          "name": "podId",
          "type": "string"
        },
        {
          "internalType": "string",
          "name": "podTokenName",
          "type": "string"
        },
        {
          "internalType": "string",
          "name": "podTokenSymbol",
          "type": "string"
        },
        {
          "internalType": "string",
          "name": "baseURI",
          "type": "string"
        },
        {
          "internalType": "uint256",
          "name": "royaltyAmount",
          "type": "uint256"
        },
        {
          "internalType": "uint256[]",
          "name": "royaltyShares",
          "type": "uint256[]"
        },
        {
          "internalType": "address[]",
          "name": "creators",
          "type": "address[]"
        }
      ],
      "name": "createMultiCreatorPod",
      "outputs": [
        {
          "internalType": "address",
          "name": "podAddress",
          "type": "address"
        }
      ],
      "stateMutability": "nonpayable",
      "type": "function"
    },
    {
      "inputs": [
        {
          "internalType": "string",
          "name": "podId",
          "type": "string"
        },
        {
          "internalType": "uint256",
          "name": "tokenId",
          "type": "uint256"
        },
        {
          "internalType": "address",
          "name": "account",
          "type": "address"
        }
      ],
      "name": "mintPodTokenById",
      "outputs": [],
      "stateMutability": "nonpayable",
      "type": "function"
    },
    {
      "inputs": [
        {
          "internalType": "string",
          "name": "tokenSymbol",
          "type": "string"
        },
        {
          "internalType": "uint256",
          "name": "tokenId",
          "type": "uint256"
        },
        {
          "internalType": "address",
          "name": "account",
          "type": "address"
        }
      ],
      "name": "mintPodTokenBySymbol",
      "outputs": [],
      "stateMutability": "nonpayable",
      "type": "function"
    },
    {
      "inputs": [
        {
          "internalType": "address",
          "name": "_account",
          "type": "address"
        }
      ],
      "name": "addModerator",
      "outputs": [],
      "stateMutability": "nonpayable",
      "type": "function"
    },
    {
      "inputs": [
        {
          "internalType": "address",
          "name": "_account",
          "type": "address"
        }
      ],
      "name": "removeModerator",
      "outputs": [],
      "stateMutability": "nonpayable",
      "type": "function"
    }
  ],
  "bytecode": "0x60806040523480156200001157600080fd5b506040516200417838038062004178833981016040819052620000349162000166565b6200004a6000620000446200009f565b620000a3565b620000797f71f3d55856e4058ed06ee057d79ada615f65cdf5f9ee88181b914225088f834f620000446200009f565b600180546001600160a01b0319166001600160a01b039290921691909117905562000196565b3390565b620000af8282620000b3565b5050565b620000bf82826200013d565b620000af576000828152602081815260408083206001600160a01b03851684529091529020805460ff19166001179055620000f96200009f565b6001600160a01b0316816001600160a01b0316837f2f8788117e7eff1d82e926ec794901d17c78024a50270940304540a733656f0d60405160405180910390a45050565b6000918252602082815260408084206001600160a01b0393909316845291905290205460ff1690565b60006020828403121562000178578081fd5b81516001600160a01b03811681146200018f578182fd5b9392505050565b613fd280620001a66000396000f3fe60806040523480156200001157600080fd5b50600436106200013c5760003560e01c8063869d785f11620000bd578063b532e4cb116200007b578063b532e4cb1462000294578063cc6365fd14620002ab578063d547741f14620002c2578063e792b19414620002d9578063e80cae2614620002e3576200013c565b8063869d785f146200022e5780638d1909ed146200024557806391d14854146200025c578063972d08cf1462000273578063a217fddf146200028a576200013c565b80632f2ff15d116200010b5780632f2ff15d14620001c65780633325a4e414620001df57806336568abe14620001f657806354f32c64146200020d578063797669c91462000224576200013c565b806301ffc9a714620001415780630fc09e2e146200017057806322b2edeb1462000189578063248a9ca314620001af575b600080fd5b620001586200015236600462000fad565b620002fa565b6040516200016791906200136a565b60405180910390f35b6200017a6200032a565b60405162000167919062001375565b620001a06200019a36600462000fd7565b62000330565b604051620001679190620012c3565b6200017a620001c036600462000f66565b62000366565b620001dd620001d736600462000f7f565b6200037b565b005b620001a0620001f036600462000fd7565b620003cc565b620001dd6200020736600462000f7f565b620003e2565b620001dd6200021e36600462001228565b6200042b565b6200017a6200051b565b620001dd6200023f36600462000f42565b6200052e565b620001dd6200025636600462000f42565b6200057b565b620001586200026d36600462000f7f565b620005d3565b620001a06200028436600462001102565b620005fc565b6200017a620008f7565b620001dd620002a536600462000f42565b620008fc565b620001dd620002bc36600462001228565b62000946565b620001dd620002d336600462000f7f565b620009c0565b620001a0620009ee565b620001a0620002f43660046200101b565b620009fd565b60006001600160e01b03198216637965db0b60e01b1480620003225750620003228262000cb7565b90505b919050565b60025490565b60006003838360405162000346929190620012b3565b908152604051908190036020019020546001600160a01b03169392505050565b60009081526020819052604090206001015490565b620003946200038a8362000366565b6200026d62000cd0565b620003bc5760405162461bcd60e51b8152600401620003b3906200146c565b60405180910390fd5b620003c8828262000cd4565b5050565b60006004838360405162000346929190620012b3565b620003ec62000cd0565b6001600160a01b0316816001600160a01b0316146200041f5760405162461bcd60e51b8152600401620003b390620016c0565b620003c8828262000d5e565b6200044960008051602062003f7d8339815191526200026d62000cd0565b620004685760405162461bcd60e51b8152600401620003b390620014c9565b6001600160a01b038116620004915760405162461bcd60e51b8152600401620003b39062001659565b60038484604051620004a5929190620012b3565b908152604051908190036020018120546340c10f1960e01b82526001600160a01b0316906340c10f1990620004e19084908690600401620012d7565b600060405180830381600087803b158015620004fc57600080fd5b505af115801562000511573d6000803e3d6000fd5b5050505050505050565b60008051602062003f7d83398151915281565b6200053e60006200026d62000cd0565b6200055d5760405162461bcd60e51b8152600401620003b39062001624565b6200057860008051602062003f7d83398151915282620009c0565b50565b6200059960008051602062003f7d8339815191526200026d62000cd0565b620005b85760405162461bcd60e51b8152600401620003b390620014c9565b6200057860008051602062003f7d83398151915282620003bc565b6000918252602082815260408084206001600160a01b0393909316845291905290205460ff1690565b60006200061c60008051602062003f7d8339815191526200026d62000cd0565b6200063b5760405162461bcd60e51b8152600401620003b390620014c9565b60006001600160a01b031660038d8d6040516200065a929190620012b3565b908152604051908190036020019020546001600160a01b031614620006935760405162461bcd60e51b8152600401620003b390620015c7565b60006001600160a01b031660048989604051620006b2929190620012b3565b908152604051908190036020019020546001600160a01b031614620006eb5760405162461bcd60e51b8152600401620003b3906200150d565b60008284604051620006fd9062000de6565b6200070a929190620012f0565b604051809103906000f08015801562000727573d6000803e3d6000fd5b50905060008b8b8b8b8b8b308c89604051620007439062000df4565b6200075799989796959493929190620013fb565b604051809103906000f08015801562000774573d6000803e3d6000fd5b5090508092506001600260008282546200078f919062001771565b925050819055508260038f8f604051620007ab929190620012b3565b908152602001604051809103902060006101000a8154816001600160a01b0302191690836001600160a01b031602179055508260048b8b604051620007f2929190620012b3565b90815260405190819003602001812080546001600160a01b0393841673ffffffffffffffffffffffffffffffffffffffff1990911617905560015463c082713b60e01b82529091169063c082713b9062000859908f908f908f908f908a90600401620013b4565b600060405180830381600087803b1580156200087457600080fd5b505af115801562000889573d6000803e3d6000fd5b505050508d8d6040516200089f929190620012b3565b60405180910390207fc0512f6474c9ee949f1cbdc88e43ca774f79b5f1f07d8484696e1cf1a0bd87ce8d8d8d8d604051620008de94939291906200137e565b60405180910390a250509b9a5050505050505050505050565b600081565b6200090c60006200026d62000cd0565b6200092b5760405162461bcd60e51b8152600401620003b39062001624565b6200057860008051602062003f7d833981519152826200037b565b6200096460008051602062003f7d8339815191526200026d62000cd0565b620009835760405162461bcd60e51b8152600401620003b390620014c9565b6001600160a01b038116620009ac5760405162461bcd60e51b8152600401620003b39062001659565b60048484604051620004a5929190620012b3565b620009cf6200038a8362000366565b6200041f5760405162461bcd60e51b8152600401620003b3906200156a565b6001546001600160a01b031681565b600062000a1d60008051602062003f7d8339815191526200026d62000cd0565b62000a3c5760405162461bcd60e51b8152600401620003b390620014c9565b60006001600160a01b031660038c8c60405162000a5b929190620012b3565b908152604051908190036020019020546001600160a01b03161462000a945760405162461bcd60e51b8152600401620003b390620015c7565b60006001600160a01b03166004888860405162000ab3929190620012b3565b908152604051908190036020019020546001600160a01b03161462000aec5760405162461bcd60e51b8152600401620003b3906200150d565b6000898989898989308a8a60405162000b059062000df4565b62000b1999989796959493929190620013fb565b604051809103906000f08015801562000b36573d6000803e3d6000fd5b50905080915060016002600082825462000b51919062001771565b925050819055508160038d8d60405162000b6d929190620012b3565b908152602001604051809103902060006101000a8154816001600160a01b0302191690836001600160a01b03160217905550816004898960405162000bb4929190620012b3565b90815260405190819003602001812080546001600160a01b0393841673ffffffffffffffffffffffffffffffffffffffff1990911617905560015463c082713b60e01b82529091169063c082713b9062000c1b908d908d908d908d908990600401620013b4565b600060405180830381600087803b15801562000c3657600080fd5b505af115801562000c4b573d6000803e3d6000fd5b505050508b8b60405162000c61929190620012b3565b60405180910390207fc0512f6474c9ee949f1cbdc88e43ca774f79b5f1f07d8484696e1cf1a0bd87ce8b8b8b8b60405162000ca094939291906200137e565b60405180910390a2509a9950505050505050505050565b6001600160e01b031981166301ffc9a760e01b14919050565b3390565b62000ce08282620005d3565b620003c8576000828152602081815260408083206001600160a01b03851684529091529020805460ff1916600117905562000d1a62000cd0565b6001600160a01b0316816001600160a01b0316837f2f8788117e7eff1d82e926ec794901d17c78024a50270940304540a733656f0d60405160405180910390a45050565b62000d6a8282620005d3565b15620003c8576000828152602081815260408083206001600160a01b03851684529091529020805460ff1916905562000da262000cd0565b6001600160a01b0316816001600160a01b0316837ff6391f5c32d9c69d2a47ea670b442974b53935d1edc7fd64eb21e047a839171b60405160405180910390a45050565b6108a680620017ad83390190565b611f2a806200205383390190565b80356001600160a01b03811681146200032557600080fd5b600082601f83011262000e2b578081fd5b8135602062000e4462000e3e836200174a565b6200171d565b828152818101908583018385028701840188101562000e61578586fd5b855b8581101562000e8a5762000e778262000e02565b8452928401929084019060010162000e63565b5090979650505050505050565b600082601f83011262000ea8578081fd5b8135602062000ebb62000e3e836200174a565b828152818101908583018385028701840188101562000ed8578586fd5b855b8581101562000e8a5781358452928401929084019060010162000eda565b60008083601f84011262000f0a578182fd5b50813567ffffffffffffffff81111562000f22578182fd5b60208301915083602082850101111562000f3b57600080fd5b9250929050565b60006020828403121562000f54578081fd5b62000f5f8262000e02565b9392505050565b60006020828403121562000f78578081fd5b5035919050565b6000806040838503121562000f92578081fd5b8235915062000fa46020840162000e02565b90509250929050565b60006020828403121562000fbf578081fd5b81356001600160e01b03198116811462000f5f578182fd5b6000806020838503121562000fea578182fd5b823567ffffffffffffffff81111562001001578283fd5b6200100f8582860162000ef8565b90969095509350505050565b60008060008060008060008060008060c08b8d0312156200103a578586fd5b8a3567ffffffffffffffff8082111562001052578788fd5b620010608e838f0162000ef8565b909c509a5060208d013591508082111562001079578788fd5b620010878e838f0162000ef8565b909a50985060408d0135915080821115620010a0578788fd5b620010ae8e838f0162000ef8565b909850965060608d0135915080821115620010c7578586fd5b50620010d68d828e0162000ef8565b90955093505060808b01359150620010f160a08c0162000e02565b90509295989b9194979a5092959850565b600080600080600080600080600080600060e08c8e03121562001123578081fd5b67ffffffffffffffff808d3511156200113a578182fd5b620011498e8e358f0162000ef8565b909c509a5060208d01358110156200115f578182fd5b620011718e60208f01358f0162000ef8565b909a50985060408d013581101562001187578182fd5b620011998e60408f01358f0162000ef8565b909850965060608d0135811015620011af578182fd5b620011c18e60608f01358f0162000ef8565b909650945060808d0135935060a08d0135811015620011de578182fd5b620011f08e60a08f01358f0162000e97565b92508060c08e0135111562001203578182fd5b50620012168d60c08e01358e0162000e1a565b90509295989b509295989b9093969950565b600080600080606085870312156200123e578384fd5b843567ffffffffffffffff81111562001255578485fd5b620012638782880162000ef8565b909550935050602085013591506200127e6040860162000e02565b905092959194509250565b60008284528282602086013780602084860101526020601f19601f85011685010190509392505050565b6000828483379101908152919050565b6001600160a01b0391909116815260200190565b6001600160a01b03929092168252602082015260400190565b604080825283519082018190526000906020906060840190828701845b82811015620013345781516001600160a01b0316845292840192908401906001016200130d565b50505083810382850152845180825285830191830190845b8181101562000e8a578351835292840192918401916001016200134c565b901515815260200190565b90815260200190565b6000604082526200139460408301868862001289565b8281036020840152620013a981858762001289565b979650505050505050565b600060608252620013ca60608301878962001289565b8281036020840152620013df81868862001289565b9150506001600160a01b03831660408301529695505050505050565b600060c082526200141160c083018b8d62001289565b828103602084015262001426818a8c62001289565b905082810360408401526200143d81888a62001289565b6001600160a01b03968716606085015260808401959095525050921660a0909201919091529695505050505050565b6020808252602f908201527f416363657373436f6e74726f6c3a2073656e646572206d75737420626520616e60408201527f2061646d696e20746f206772616e740000000000000000000000000000000000606082015260800190565b60208082526024908201527f4f776e61626c653a2063616c6c6572206973206e6f7420746865206d6f64657260408201526330ba37b960e11b606082015260800190565b60208082526038908201527f5052495649506f64455243373231526f79616c7479466163746f72793a20506f60408201527f642073796d626f6c20616c7265616479206578697374732e0000000000000000606082015260800190565b60208082526030908201527f416363657373436f6e74726f6c3a2073656e646572206d75737420626520616e60408201527f2061646d696e20746f207265766f6b6500000000000000000000000000000000606082015260800190565b60208082526034908201527f5052495649506f64455243373231526f79616c7479466163746f72793a20506f60408201527f6420696420616c7265616479206578697374732e000000000000000000000000606082015260800190565b6020808252818101527f4f776e61626c653a2063616c6c6572206973206e6f74207468652061646d696e604082015260600190565b60208082526041908201527f5052495649506f64455243373231526f79616c7479466163746f72793a20416360408201527f636f756e7420616464726573732073686f756c64206e6f74206265207a65726f6060820152601760f91b608082015260a00190565b6020808252602f908201527f416363657373436f6e74726f6c3a2063616e206f6e6c792072656e6f756e636560408201527f20726f6c657320666f722073656c660000000000000000000000000000000000606082015260800190565b60405181810167ffffffffffffffff8111828210171562001742576200174262001796565b604052919050565b600067ffffffffffffffff82111562001767576200176762001796565b5060209081020190565b600082198211156200179157634e487b7160e01b81526011600452602481fd5b500190565b634e487b7160e01b600052604160045260246000fdfe608060405234801561001057600080fd5b506040516108a63803806108a683398101604081905261002f916101a9565b80518251146100595760405162461bcd60e51b815260040161005090610276565b60405180910390fd5b815161006c906000906020850190610088565b5080516100809060019060208401906100ed565b505050610341565b8280548282559060005260206000209081019282156100dd579160200282015b828111156100dd57825182546001600160a01b0319166001600160a01b039091161782556020909201916001909101906100a8565b506100e9929150610128565b5090565b8280548282559060005260206000209081019282156100dd579160200282015b828111156100dd57825182559160200191906001019061010d565b5b808211156100e95760008155600101610129565b600082601f83011261014d578081fd5b8151602061016261015d83610308565b6102df565b828152818101908583018385028701840188101561017e578586fd5b855b8581101561019c57815184529284019290840190600101610180565b5090979650505050505050565b600080604083850312156101bb578182fd5b82516001600160401b03808211156101d1578384fd5b818501915085601f8301126101e4578384fd5b815160206101f461015d83610308565b82815281810190858301838502870184018b1015610210578889fd5b8896505b848710156102465780516001600160a01b038116811461023257898afd5b835260019690960195918301918301610214565b509188015191965090935050508082111561025f578283fd5b5061026c8582860161013d565b9150509250929050565b60208082526043908201527f4d756c746943726561746f724e66744d616e616765723a2043726561746f727360408201527f20616e642053686172657320617265206e6f74206f662073616d65206c656e676060820152623a341760e91b608082015260a00190565b6040518181016001600160401b03811182821017156103005761030061032b565b604052919050565b60006001600160401b038211156103215761032161032b565b5060209081020190565b634e487b7160e01b600052604160045260246000fd5b610556806103506000396000f3fe60806040526004361061007f5760003560e01c8063ad9adcdc1161004e578063ad9adcdc14610135578063c760a23714610155578063cd53d08e14610175578063d3b97417146101a2576100b0565b80632e1a7d4d146100b557806357a858fc146100d55780636f9fb98a1461010b57806392e6c00414610120576100b0565b366100b057346003600061009360026101c2565b81526020810191909152604001600020556100ae60026101c6565b005b600080fd5b3480156100c157600080fd5b506100ae6100d0366004610406565b6101cf565b3480156100e157600080fd5b506100f56100f0366004610406565b610286565b604051610102919061048f565b60405180910390f35b34801561011757600080fd5b506100f56102a7565b34801561012c57600080fd5b506100f56102ab565b34801561014157600080fd5b506100f56101503660046103d8565b6102b1565b34801561016157600080fd5b506100f5610170366004610406565b6102c3565b34801561018157600080fd5b50610195610190366004610406565b6102d5565b604051610102919061041e565b3480156101ae57600080fd5b506100f56101bd366004610406565b6102ff565b5490565b80546001019055565b600081815481106101f057634e487b7160e01b600052603260045260246000fd5b6000918252602090912001546001600160a01b0316331461022c5760405162461bcd60e51b815260040161022390610432565b60405180910390fd5b6000610237826102ff565b905061024360026101c2565b33600081815260046020526040808220939093559151909183156108fc02918491818181858888f19350505050158015610281573d6000803e3d6000fd5b505050565b6001818154811061029657600080fd5b600091825260209091200154905081565b4790565b60025481565b60046020526000908152604090205481565b60036020526000908152604090205481565b600081815481106102e557600080fd5b6000918252602090912001546001600160a01b0316905081565b6000806004600080858154811061032657634e487b7160e01b600052603260045260246000fd5b60009182526020808320909101546001600160a01b0316835282019290925260400190205490505b61035860026101c2565b81116103d257606460036000838152602001908152602001600020546001858154811061039557634e487b7160e01b600052603260045260246000fd5b90600052602060002001546103aa91906104d0565b6103b491906104b0565b6103be9083610498565b9150806103ca816104ef565b91505061034e565b50919050565b6000602082840312156103e9578081fd5b81356001600160a01b03811681146103ff578182fd5b9392505050565b600060208284031215610417578081fd5b5035919050565b6001600160a01b0391909116815260200190565b60208082526038908201527f4d756c746943726561746f724e66744d616e616765723a20596f75206172652060408201527f6e6f74206f6e65206f66207468652063726561746f72732e0000000000000000606082015260800190565b90815260200190565b600082198211156104ab576104ab61050a565b500190565b6000826104cb57634e487b7160e01b81526012600452602481fd5b500490565b60008160001904831182151516156104ea576104ea61050a565b500290565b60006000198214156105035761050361050a565b5060010190565b634e487b7160e01b600052601160045260246000fdfea2646970667358221220614c7152c64e16c76e68b6b48f879a82ad1463160d1256a69a0ad1f1313eee9364736f6c6343000800003360806040523480156200001157600080fd5b5060405162001f2a38038062001f2a833981016040819052620000349162000233565b81818787816000908051906020019062000050929190620000c5565b50805162000066906001906020840190620000c5565b505050600691909155600780546001600160a01b03199081166001600160a01b03938416179091556001600855600980549091169185169190911790558351620000b890600a906020870190620000c5565b5050505050505062000341565b828054620000d390620002ee565b90600052602060002090601f016020900481019282620000f7576000855562000142565b82601f106200011257805160ff191683800117855562000142565b8280016001018555821562000142579182015b828111156200014257825182559160200191906001019062000125565b506200015092915062000154565b5090565b5b8082111562000150576000815560010162000155565b80516001600160a01b03811681146200018357600080fd5b919050565b600082601f83011262000199578081fd5b81516001600160401b0380821115620001b657620001b66200032b565b6040516020601f8401601f1916820181018381118382101715620001de57620001de6200032b565b6040528382528584018101871015620001f5578485fd5b8492505b83831015620002185785830181015182840182015291820191620001f9565b838311156200022957848185840101525b5095945050505050565b60008060008060008060c087890312156200024c578182fd5b86516001600160401b038082111562000263578384fd5b620002718a838b0162000188565b9750602089015191508082111562000287578384fd5b620002958a838b0162000188565b96506040890151915080821115620002ab578384fd5b50620002ba89828a0162000188565b945050620002cb606088016200016b565b925060808701519150620002e260a088016200016b565b90509295509295509295565b6002810460018216806200030357607f821691505b602082108114156200032557634e487b7160e01b600052602260045260246000fd5b50919050565b634e487b7160e01b600052604160045260246000fd5b611bd980620003516000396000f3fe6080604052600436106101705760003560e01c8063656605d6116100d65780639d35c1611161007f578063c87b56dd11610059578063c87b56dd146103d5578063cfd0244b146103f5578063e985e9c51461040857610170565b80639d35c16114610380578063a22cb46514610395578063b88d4fde146103b557610170565b806384a09c27116100b057806384a09c271461034b57806395d89b411461036b5780639822e8c01461021c57610170565b8063656605d6146102f457806370a08231146103095780637c6e551d1461033657610170565b806323b872dd1161013857806342966c681161011257806342966c681461029157806346e80720146102b15780636352211e146102d457610170565b806323b872dd1461023157806340c10f191461025157806342842e0e1461027157610170565b806301ffc9a71461017557806306fdde03146101ab578063081812fc146101cd578063095ea7b3146101fa5780632129cf8f1461021c575b600080fd5b34801561018157600080fd5b5061019561019036600461133d565b610428565b6040516101a29190611480565b60405180910390f35b3480156101b757600080fd5b506101c0610470565b6040516101a2919061148b565b3480156101d957600080fd5b506101ed6101e8366004611375565b610502565b6040516101a29190611430565b34801561020657600080fd5b5061021a610215366004611314565b61054e565b005b34801561022857600080fd5b506101ed6105e6565b34801561023d57600080fd5b5061021a61024c3660046111d3565b6105f5565b34801561025d57600080fd5b5061021a61026c366004611314565b61062d565b34801561027d57600080fd5b5061021a61028c3660046111d3565b610675565b34801561029d57600080fd5b5061021a6102ac366004611375565b610690565b3480156102bd57600080fd5b506102c66106c3565b6040516101a2929190611a3c565b3480156102e057600080fd5b506101ed6102ef366004611375565b6106d6565b34801561030057600080fd5b5061019561070b565b34801561031557600080fd5b50610329610324366004611187565b610710565b6040516101a29190611a33565b34801561034257600080fd5b50610329610754565b34801561035757600080fd5b5061021a6103663660046111d3565b61075a565b34801561037757600080fd5b506101c06107a0565b34801561038c57600080fd5b506101ed6107af565b3480156103a157600080fd5b5061021a6103b03660046112da565b6107be565b3480156103c157600080fd5b5061021a6103d036600461120e565b61088c565b3480156103e157600080fd5b506101c06103f0366004611375565b6108cb565b61021a61040336600461138d565b61094e565b34801561041457600080fd5b506101956104233660046111a1565b610acc565b60006001600160e01b031982166380ac58cd60e01b148061045957506001600160e01b03198216635b5e139f60e01b145b80610468575061046882610afa565b90505b919050565b60606000805461047f90611ae1565b80601f01602080910402602001604051908101604052809291908181526020018280546104ab90611ae1565b80156104f85780601f106104cd576101008083540402835291602001916104f8565b820191906000526020600020905b8154815290600101906020018083116104db57829003601f168201915b5050505050905090565b600061050d82610b13565b6105325760405162461bcd60e51b8152600401610529906117d8565b60405180910390fd5b506000908152600460205260409020546001600160a01b031690565b6000610559826106d6565b9050806001600160a01b0316836001600160a01b0316141561058d5760405162461bcd60e51b815260040161052990611901565b806001600160a01b031661059f610b30565b6001600160a01b031614806105bb57506105bb81610423610b30565b6105d75760405162461bcd60e51b815260040161052990611656565b6105e18383610b34565b505050565b6007546001600160a01b031690565b610606610600610b30565b82610ba2565b6106225760405162461bcd60e51b815260040161052990611942565b6105e1838383610c27565b6009546001600160a01b0316610641610b30565b6001600160a01b0316146106675760405162461bcd60e51b815260040161052990611532565b6106718282610d54565b5050565b6105e18383836040518060200160405280600081525061088c565b61069b610600610b30565b6106b75760405162461bcd60e51b8152600401610529906119d6565b6106c081610e33565b50565b6006546007546001600160a01b03169091565b6000818152600260205260408120546001600160a01b0316806104685760405162461bcd60e51b8152600401610529906116fd565b600190565b60006001600160a01b0382166107385760405162461bcd60e51b8152600401610529906116b3565b506001600160a01b031660009081526003602052604090205490565b60065490565b80826001600160a01b0316846001600160a01b03167f06cb0b9d04d0ac2a93b9b9a93ee6c2511e069efb107c06eee43c85021fbc04ed60405160405180910390a4505050565b60606001805461047f90611ae1565b6009546001600160a01b031681565b6107c6610b30565b6001600160a01b0316826001600160a01b031614156107f75760405162461bcd60e51b8152600401610529906115d3565b8060056000610804610b30565b6001600160a01b03908116825260208083019390935260409182016000908120918716808252919093529120805460ff191692151592909217909155610848610b30565b6001600160a01b03167f17307eab39ab6107e8899845ad3d59bd9653f200f220920489ca2b5937696c31836040516108809190611480565b60405180910390a35050565b61089d610897610b30565b83610ba2565b6108b95760405162461bcd60e51b815260040161052990611942565b6108c584848484610eda565b50505050565b60606108d682610b13565b6108f25760405162461bcd60e51b81526004016105299061186d565b60006108fc610f0d565b9050600081511161091c5760405180602001604052806000815250610947565b8061092684610f1c565b6040516020016109379291906113fe565b6040516020818303038152906040525b9392505050565b600260085414156109715760405162461bcd60e51b81526004016105299061199f565b60026008553484146109955760405162461bcd60e51b815260040161052990611746565b60006064600654346109a79190611a7f565b6109b19190611a6b565b6007546040519192506001600160a01b031690600090829084906109d49061142d565b60006040518083038185875af1925050503d8060008114610a11576040519150601f19603f3d011682016040523d82523d6000602084013e610a16565b606091505b5050905080610a375760405162461bcd60e51b8152600401610529906118ca565b6001600160a01b0385166108fc610a4e8534611a9e565b6040518115909202916000818181858888f19350505050158015610a76573d6000803e3d6000fd5b50610aa78585886040518060400160405280600c81526020016b1c9bde585b1d1e481c185a5960a21b81525061088c565b600754610abe906001600160a01b0316858561075a565b505060016008555050505050565b6001600160a01b03918216600090815260056020908152604080832093909416825291909152205460ff1690565b6001600160e01b031981166301ffc9a760e01b14919050565b6000908152600260205260409020546001600160a01b0316151590565b3390565b600081815260046020526040902080546001600160a01b0319166001600160a01b0384169081179091558190610b69826106d6565b6001600160a01b03167f8c5be1e5ebec7d5bd14f71427d1e84f3dd0314c0f7b2291e5b200ac8c7c3b92560405160405180910390a45050565b6000610bad82610b13565b610bc95760405162461bcd60e51b81526004016105299061160a565b6000610bd4836106d6565b9050806001600160a01b0316846001600160a01b03161480610c0f5750836001600160a01b0316610c0484610502565b6001600160a01b0316145b80610c1f5750610c1f8185610acc565b949350505050565b826001600160a01b0316610c3a826106d6565b6001600160a01b031614610c605760405162461bcd60e51b815260040161052990611824565b6001600160a01b038216610c865760405162461bcd60e51b81526004016105299061158f565b610c918383836105e1565b610c9c600082610b34565b6001600160a01b0383166000908152600360205260408120805460019290610cc5908490611a9e565b90915550506001600160a01b0382166000908152600360205260408120805460019290610cf3908490611a53565b909155505060008181526002602052604080822080546001600160a01b0319166001600160a01b0386811691821790925591518493918716917fddf252ad1be2c89b69c2b068fc378daa952ba7f163c4a11628f55a4df523b3ef91a4505050565b6001600160a01b038216610d7a5760405162461bcd60e51b8152600401610529906117a3565b610d8381610b13565b15610da05760405162461bcd60e51b8152600401610529906114fb565b610dac600083836105e1565b6001600160a01b0382166000908152600360205260408120805460019290610dd5908490611a53565b909155505060008181526002602052604080822080546001600160a01b0319166001600160a01b03861690811790915590518392907fddf252ad1be2c89b69c2b068fc378daa952ba7f163c4a11628f55a4df523b3ef908290a45050565b6000610e3e826106d6565b9050610e4c816000846105e1565b610e57600083610b34565b6001600160a01b0381166000908152600360205260408120805460019290610e80908490611a9e565b909155505060008281526002602052604080822080546001600160a01b0319169055518391906001600160a01b038416907fddf252ad1be2c89b69c2b068fc378daa952ba7f163c4a11628f55a4df523b3ef908390a45050565b610ee5848484610c27565b610ef18484848461104f565b6108c55760405162461bcd60e51b81526004016105299061149e565b6060600a805461047f90611ae1565b606081610f4157506040805180820190915260018152600360fc1b602082015261046b565b8160005b8115610f6b5780610f5581611b1c565b9150610f649050600a83611a6b565b9150610f45565b60008167ffffffffffffffff811115610f9457634e487b7160e01b600052604160045260246000fd5b6040519080825280601f01601f191660200182016040528015610fbe576020820181803683370190505b5090505b8415610c1f57610fd3600183611a9e565b9150610fe0600a86611b37565b610feb906030611a53565b60f81b81838151811061100e57634e487b7160e01b600052603260045260246000fd5b60200101907effffffffffffffffffffffffffffffffffffffffffffffffffffffffffffff1916908160001a905350611048600a86611a6b565b9450610fc2565b6000611063846001600160a01b031661116a565b1561115f57836001600160a01b031663150b7a0261107f610b30565b8786866040518563ffffffff1660e01b81526004016110a19493929190611444565b602060405180830381600087803b1580156110bb57600080fd5b505af19250505080156110eb575060408051601f3d908101601f191682019092526110e891810190611359565b60015b611145573d808015611119576040519150601f19603f3d011682016040523d82523d6000602084013e61111e565b606091505b50805161113d5760405162461bcd60e51b81526004016105299061149e565b805181602001fd5b6001600160e01b031916630a85bd0160e11b149050610c1f565b506001949350505050565b3b151590565b80356001600160a01b038116811461046b57600080fd5b600060208284031215611198578081fd5b61094782611170565b600080604083850312156111b3578081fd5b6111bc83611170565b91506111ca60208401611170565b90509250929050565b6000806000606084860312156111e7578081fd5b6111f084611170565b92506111fe60208501611170565b9150604084013590509250925092565b60008060008060808587031215611223578081fd5b61122c85611170565b9350602061123b818701611170565b935060408601359250606086013567ffffffffffffffff8082111561125e578384fd5b818801915088601f830112611271578384fd5b81358181111561128357611283611b77565b604051601f8201601f19168101850183811182821017156112a6576112a6611b77565b60405281815283820185018b10156112bc578586fd5b81858501868301379081019093019390935250939692955090935050565b600080604083850312156112ec578182fd5b6112f583611170565b915060208301358015158114611309578182fd5b809150509250929050565b60008060408385031215611326578182fd5b61132f83611170565b946020939093013593505050565b60006020828403121561134e578081fd5b813561094781611b8d565b60006020828403121561136a578081fd5b815161094781611b8d565b600060208284031215611386578081fd5b5035919050565b600080600080608085870312156113a2578384fd5b84359350602085013592506113b960408601611170565b91506113c760608601611170565b905092959194509250565b600081518084526113ea816020860160208601611ab5565b601f01601f19169290920160200192915050565b60008351611410818460208801611ab5565b835190830190611424818360208801611ab5565b01949350505050565b90565b6001600160a01b0391909116815260200190565b60006001600160a01b0380871683528086166020840152508360408301526080606083015261147660808301846113d2565b9695505050505050565b901515815260200190565b60006020825261094760208301846113d2565b60208082526032908201527f4552433732313a207472616e7366657220746f206e6f6e20455243373231526560408201527f63656976657220696d706c656d656e7465720000000000000000000000000000606082015260800190565b6020808252601c908201527f4552433732313a20746f6b656e20616c7265616479206d696e74656400000000604082015260600190565b60208082526039908201527f5052495649506f64455243373231546f6b656e3a204f6e6c7920466163746f7260408201527f792063616e2063616c6c20746869732066756e6374696f6e2e00000000000000606082015260800190565b60208082526024908201527f4552433732313a207472616e7366657220746f20746865207a65726f206164646040820152637265737360e01b606082015260800190565b60208082526019908201527f4552433732313a20617070726f766520746f2063616c6c657200000000000000604082015260600190565b6020808252602c908201527f4552433732313a206f70657261746f7220717565727920666f72206e6f6e657860408201526b34b9ba32b73a103a37b5b2b760a11b606082015260800190565b60208082526038908201527f4552433732313a20617070726f76652063616c6c6572206973206e6f74206f7760408201527f6e6572206e6f7220617070726f76656420666f7220616c6c0000000000000000606082015260800190565b6020808252602a908201527f4552433732313a2062616c616e636520717565727920666f7220746865207a65604082015269726f206164647265737360b01b606082015260800190565b60208082526029908201527f4552433732313a206f776e657220717565727920666f72206e6f6e657869737460408201526832b73a103a37b5b2b760b91b606082015260800190565b60208082526039908201527f5052495649506f64455243373231526f79616c7479546f6b656e3a20726f796160408201527f6c747920616d6f756e74206973206e6f7420636f727265637400000000000000606082015260800190565b6020808252818101527f4552433732313a206d696e7420746f20746865207a65726f2061646472657373604082015260600190565b6020808252602c908201527f4552433732313a20617070726f76656420717565727920666f72206e6f6e657860408201526b34b9ba32b73a103a37b5b2b760a11b606082015260800190565b60208082526029908201527f4552433732313a207472616e73666572206f6620746f6b656e2074686174206960408201526839903737ba1037bbb760b91b606082015260800190565b6020808252602f908201527f4552433732314d657461646174613a2055524920717565727920666f72206e6f60408201527f6e6578697374656e7420746f6b656e0000000000000000000000000000000000606082015260800190565b60208082526016908201527f4661696c656420746f2073656e6420726f79616c747900000000000000000000604082015260600190565b60208082526021908201527f4552433732313a20617070726f76616c20746f2063757272656e74206f776e656040820152603960f91b606082015260800190565b60208082526031908201527f4552433732313a207472616e736665722063616c6c6572206973206e6f74206f60408201527f776e6572206e6f7220617070726f766564000000000000000000000000000000606082015260800190565b6020808252601f908201527f5265656e7472616e637947756172643a207265656e7472616e742063616c6c00604082015260600190565b60208082526030908201527f4552433732314275726e61626c653a2063616c6c6572206973206e6f74206f7760408201527f6e6572206e6f7220617070726f76656400000000000000000000000000000000606082015260800190565b90815260200190565b9182526001600160a01b0316602082015260400190565b60008219821115611a6657611a66611b4b565b500190565b600082611a7a57611a7a611b61565b500490565b6000816000190483118215151615611a9957611a99611b4b565b500290565b600082821015611ab057611ab0611b4b565b500390565b60005b83811015611ad0578181015183820152602001611ab8565b838111156108c55750506000910152565b600281046001821680611af557607f821691505b60208210811415611b1657634e487b7160e01b600052602260045260246000fd5b50919050565b6000600019821415611b3057611b30611b4b565b5060010190565b600082611b4657611b46611b61565b500690565b634e487b7160e01b600052601160045260246000fd5b634e487b7160e01b600052601260045260246000fd5b634e487b7160e01b600052604160045260246000fd5b6001600160e01b0319811681146106c057600080fdfea26469706673582212206d19c1bab10f4981a7c4f808f79e86c9655d459948f3b3ac5e2f51e57c9d934e64736f6c6343000800003371f3d55856e4058ed06ee057d79ada615f65cdf5f9ee88181b914225088f834fa26469706673582212208888959afac6262a65d0e339b3f7e70819d0484ce6dab70b8ee6fba55c60df1d64736f6c63430008000033",
  "immutableReferences": {},
  "source": "// SPDX-License-Identifier: MIT\npragma solidity ^0.8.0;\n\nimport \"@openzeppelin/contracts/access/AccessControl.sol\";\nimport \"./token/PRIVIPodERC721RoyaltyToken.sol\";\nimport \"./interfaces/IBridgeManager.sol\";\nimport \"./deployable_managers/MultiCreatorNftManager.sol\";\n\n/**\n * @title   PRIVIPodERC721RoyaltyFactoryWhiteListed contract\n * @dev     Creates new royalty ERC721 tokens using a factory pattern\n * @author  PRIVI\n **/\ncontract PRIVIPodERC721RoyaltyFactoryWhiteListed is AccessControl {\n  bytes32 public constant MODERATOR_ROLE = keccak256(\"MODERATOR_ROLE\");\n  address public bridgeManagerAddress;\n  uint256 private totalPodCreated;\n  mapping(string => address) private podTokenAddressesById;\n  mapping(string => address) private podTokenAddressesBySymbol;\n\n  event PodCreated(\n    string indexed podId,\n    string podTokenName,\n    string podTokenSymbol\n  );\n\n  /**\n   * @dev Grants `DEFAULT_ADMIN_ROLE` and `MODERATOR_ROLE` to the\n   * account that deploys the contract.\n   * - Assigns the bridgeManager address\n   */\n  constructor(address bridgeAddress) {\n    _setupRole(DEFAULT_ADMIN_ROLE, _msgSender());\n    _setupRole(MODERATOR_ROLE, _msgSender());\n    bridgeManagerAddress = bridgeAddress;\n  }\n\n  modifier onlyAdmin() {\n    require(\n      hasRole(DEFAULT_ADMIN_ROLE, _msgSender()),\n      \"Ownable: caller is not the admin\"\n    );\n    _;\n  }\n\n  modifier onlyModerator() {\n    require(\n      hasRole(MODERATOR_ROLE, _msgSender()),\n      \"Ownable: caller is not the moderator\"\n    );\n    _;\n  }\n\n  /**\n   * @notice  Assigns `MODERATOR_ROLE` to SwapManager contract\n   * @param   swapManagerAddress The SwapManager contract address\n   */\n  function assignRoleSwapManager(address swapManagerAddress) external onlyModerator {\n    _setupRole(MODERATOR_ROLE, swapManagerAddress);\n  }\n\n  /**\n   * @notice  Returns the total amount of Pod tokens created\n   */\n  function getTotalTokenCreated() external view returns (uint256 totalPods) {\n    totalPods = totalPodCreated;\n  }\n\n  /**\n   * @notice Returns the contract address of the Pod token\n   * @param  podId The Pod token identifier\n   * @return podAddress The contract address of the Pod token\n   */\n  function getPodAddressById(string calldata podId)\n    external\n    view\n    returns (address podAddress)\n  {\n    podAddress = podTokenAddressesById[podId];\n  }\n\n  /**\n   * @notice Returns the contract address of the Pod token\n   * @param  tokenSymbol The Pod token symbol (ticker)\n   * @return podAddress The contract address of the Pod token\n   */\n  function getPodAddressBySymbol(string calldata tokenSymbol)\n    external\n    view\n    returns (address podAddress)\n  {\n    podAddress = podTokenAddressesBySymbol[tokenSymbol];\n  }\n\n  /**\n   * @notice Creates a royalty ERC721 Pod token and registers it in the BridgeManager\n   * @dev    - Pod id must not exist\n   *         - Pod name & symbol must not exist\n   *         - Pod name & symbol can't be empty\n   *         - Pod symbol can't be greater than 25 characters\n   * @param  podId The Pod token identifier\n   * @param  podTokenName The Pod token name\n   * @param  podTokenSymbol The Pod token symbol (ticker)\n   * @param  baseURI The base URI\n   * @param  royaltyAmount The royalty amount in percentage\n   * @param  creator The Pod token creator to receive royalties\n   * @return podAddress The contract address of the Pod token created\n   */\n  function createPod(\n    string calldata podId,\n    string calldata podTokenName,\n    string calldata podTokenSymbol,\n    string calldata baseURI,\n    uint256 royaltyAmount,\n    address creator\n  ) external onlyModerator returns (address podAddress) {\n    require(\n      podTokenAddressesById[podId] == address(0),\n      \"PRIVIPodERC721RoyaltyFactory: Pod id already exists.\"\n    );\n    require(\n      podTokenAddressesBySymbol[podTokenSymbol] == address(0),\n      \"PRIVIPodERC721RoyaltyFactory: Pod symbol already exists.\"\n    );\n\n    PRIVIPodERC721RoyaltyToken podToken =\n      new PRIVIPodERC721RoyaltyToken(\n        podTokenName,\n        podTokenSymbol,\n        baseURI,\n        address(this),\n        royaltyAmount,\n        creator\n      );\n    podAddress = address(podToken);\n\n    totalPodCreated += 1;\n\n    podTokenAddressesById[podId] = podAddress;\n    podTokenAddressesBySymbol[podTokenSymbol] = podAddress;\n\n    IBridgeManager(bridgeManagerAddress).registerTokenERC721(\n      podTokenName,\n      podTokenSymbol,\n      podAddress\n    );\n\n    emit PodCreated(podId, podTokenName, podTokenSymbol);\n  }\n\n  /**\n   * @notice Creates a royalty ERC721 Pod tokens generated by multiple \n   * creators and registers it in the BridgeManager\n   * @dev    - Pod id must not exist\n   *         - Pod name & symbol must not exist\n   *         - Pod name & symbol can't be empty\n   *         - Pod symbol can't be greater than 25 characters\n   * @param  podId The Pod token identifier\n   * @param  podTokenName The Pod token name\n   * @param  podTokenSymbol The Pod token symbol (ticker)\n   * @param  baseURI The base URI\n   * @param  royaltyAmount The royalty amount in percentage\n   * @param  royaltyShares An array of royalty amounts to be shared to creators\n   * @param  creators An array of Pod token creators to receive royalties\n   * @return podAddress The contract address of the Pod token created\n   */\n  function createMultiCreatorPod(\n    string calldata podId,\n    string calldata podTokenName,\n    string calldata podTokenSymbol,\n    string calldata baseURI,\n    uint256 royaltyAmount,\n    uint256[] memory royaltyShares,\n    address[] memory creators\n  ) external onlyModerator returns (address podAddress) {\n    require(\n      podTokenAddressesById[podId] == address(0),\n      \"PRIVIPodERC721RoyaltyFactory: Pod id already exists.\"\n    );\n    require(\n      podTokenAddressesBySymbol[podTokenSymbol] == address(0),\n      \"PRIVIPodERC721RoyaltyFactory: Pod symbol already exists.\"\n    );\n\n    MultiCreatorNftManager multiCreatorManager =\n      new MultiCreatorNftManager(creators, royaltyShares);\n\n    PRIVIPodERC721RoyaltyToken podToken =\n      new PRIVIPodERC721RoyaltyToken(\n        podTokenName,\n        podTokenSymbol,\n        baseURI,\n        address(this),\n        royaltyAmount,\n        address(multiCreatorManager)\n      );\n    podAddress = address(podToken);\n\n    totalPodCreated += 1;\n\n    podTokenAddressesById[podId] = podAddress;\n    podTokenAddressesBySymbol[podTokenSymbol] = podAddress;\n\n    IBridgeManager(bridgeManagerAddress).registerTokenERC721(\n      podTokenName,\n      podTokenSymbol,\n      podAddress\n    );\n\n    emit PodCreated(podId, podTokenName, podTokenSymbol);\n  }\n\n  /**\n   * @notice Mints royalty ERC721 Pod tokens\n   * @dev    - The caller must be MODERATOR_ROLE\n   *         - `account` address can't be zero\n   * @param  podId The Pod token identifier\n   * @param  account The destination account to receive minted tokens\n   */\n  function mintPodTokenById(string calldata podId, uint256 tokenId, address account) external onlyModerator {\n    require(\n      account != address(0),\n      \"PRIVIPodERC721RoyaltyFactory: Account address should not be zero.\"\n    );\n\n    PRIVIPodERC721RoyaltyToken(podTokenAddressesById[podId]).mint(account, tokenId);\n  }\n\n  /**\n   * @notice Mints royalty ERC721 Pod tokens\n   * @dev    - The caller must be MODERATOR_ROLE\n   *         - `account` address can't be zero\n   * @param  tokenSymbol The Pod token symbol (sticker)\n   * @param  account The destination account to receive minted tokens\n   */\n  function mintPodTokenBySymbol(string calldata tokenSymbol, uint256 tokenId, address account)\n    external onlyModerator\n  {\n    require(\n      account != address(0),\n      \"PRIVIPodERC721RoyaltyFactory: Account address should not be zero.\"\n    );\n\n    PRIVIPodERC721RoyaltyToken(podTokenAddressesBySymbol[tokenSymbol]).mint(\n      account,\n      tokenId\n    );\n  }\n\n  function addModerator(address _account) public onlyAdmin {\n    grantRole(MODERATOR_ROLE, _account);\n  }\n\n  function removeModerator(address _account) public onlyAdmin {\n    revokeRole(MODERATOR_ROLE, _account);\n  }\n}\n",
  "sourcePath": "/Volumes/Workspace/PRIVI/PRIVIethereum/contracts/PRIVIPodERC721RoyaltyFactoryWhiteListed.sol",
  "compiler": {
    "name": "solc",
    "version": "0.8.0+commit.c7dfd78e.Emscripten.clang"
  },
  "schemaVersion": "3.3.4",
  "updatedAt": "2021-04-23T14:01:46.595Z",
  "devdoc": {
    "author": "PRIVI*",
    "details": "Creates new royalty ERC721 tokens using a factory pattern",
    "kind": "dev",
    "methods": {
      "assignRoleSwapManager(address)": {
        "params": {
          "swapManagerAddress": "The SwapManager contract address"
        }
      },
      "constructor": {
        "details": "Grants `DEFAULT_ADMIN_ROLE` and `MODERATOR_ROLE` to the account that deploys the contract. - Assigns the bridgeManager address"
      },
      "createMultiCreatorPod(string,string,string,string,uint256,uint256[],address[])": {
        "details": "- Pod id must not exist         - Pod name & symbol must not exist         - Pod name & symbol can't be empty         - Pod symbol can't be greater than 25 characters",
        "params": {
          "baseURI": "The base URI",
          "creators": "An array of Pod token creators to receive royalties",
          "podId": "The Pod token identifier",
          "podTokenName": "The Pod token name",
          "podTokenSymbol": "The Pod token symbol (ticker)",
          "royaltyAmount": "The royalty amount in percentage",
          "royaltyShares": "An array of royalty amounts to be shared to creators"
        },
        "returns": {
          "podAddress": "The contract address of the Pod token created"
        }
      },
      "createPod(string,string,string,string,uint256,address)": {
        "details": "- Pod id must not exist         - Pod name & symbol must not exist         - Pod name & symbol can't be empty         - Pod symbol can't be greater than 25 characters",
        "params": {
          "baseURI": "The base URI",
          "creator": "The Pod token creator to receive royalties",
          "podId": "The Pod token identifier",
          "podTokenName": "The Pod token name",
          "podTokenSymbol": "The Pod token symbol (ticker)",
          "royaltyAmount": "The royalty amount in percentage"
        },
        "returns": {
          "podAddress": "The contract address of the Pod token created"
        }
      },
      "getPodAddressById(string)": {
        "params": {
          "podId": "The Pod token identifier"
        },
        "returns": {
          "podAddress": "The contract address of the Pod token"
        }
      },
      "getPodAddressBySymbol(string)": {
        "params": {
          "tokenSymbol": "The Pod token symbol (ticker)"
        },
        "returns": {
          "podAddress": "The contract address of the Pod token"
        }
      },
      "getRoleAdmin(bytes32)": {
        "details": "Returns the admin role that controls `role`. See {grantRole} and {revokeRole}. To change a role's admin, use {_setRoleAdmin}."
      },
      "grantRole(bytes32,address)": {
        "details": "Grants `role` to `account`. If `account` had not been already granted `role`, emits a {RoleGranted} event. Requirements: - the caller must have ``role``'s admin role."
      },
      "hasRole(bytes32,address)": {
        "details": "Returns `true` if `account` has been granted `role`."
      },
      "mintPodTokenById(string,uint256,address)": {
        "details": "- The caller must be MODERATOR_ROLE         - `account` address can't be zero",
        "params": {
          "account": "The destination account to receive minted tokens",
          "podId": "The Pod token identifier"
        }
      },
      "mintPodTokenBySymbol(string,uint256,address)": {
        "details": "- The caller must be MODERATOR_ROLE         - `account` address can't be zero",
        "params": {
          "account": "The destination account to receive minted tokens",
          "tokenSymbol": "The Pod token symbol (sticker)"
        }
      },
      "renounceRole(bytes32,address)": {
        "details": "Revokes `role` from the calling account. Roles are often managed via {grantRole} and {revokeRole}: this function's purpose is to provide a mechanism for accounts to lose their privileges if they are compromised (such as when a trusted device is misplaced). If the calling account had been granted `role`, emits a {RoleRevoked} event. Requirements: - the caller must be `account`."
      },
      "revokeRole(bytes32,address)": {
        "details": "Revokes `role` from `account`. If `account` had been granted `role`, emits a {RoleRevoked} event. Requirements: - the caller must have ``role``'s admin role."
      },
      "supportsInterface(bytes4)": {
        "details": "See {IERC165-supportsInterface}."
      }
    },
    "title": "PRIVIPodERC721RoyaltyFactoryWhiteListed contract",
    "version": 1
  },
  "userdoc": {
    "kind": "user",
    "methods": {
      "assignRoleSwapManager(address)": {
        "notice": "Assigns `MODERATOR_ROLE` to SwapManager contract"
      },
      "createMultiCreatorPod(string,string,string,string,uint256,uint256[],address[])": {
        "notice": "Creates a royalty ERC721 Pod tokens generated by multiple  creators and registers it in the BridgeManager"
      },
      "createPod(string,string,string,string,uint256,address)": {
        "notice": "Creates a royalty ERC721 Pod token and registers it in the BridgeManager"
      },
      "getPodAddressById(string)": {
        "notice": "Returns the contract address of the Pod token"
      },
      "getPodAddressBySymbol(string)": {
        "notice": "Returns the contract address of the Pod token"
      },
      "getTotalTokenCreated()": {
        "notice": "Returns the total amount of Pod tokens created"
      },
      "mintPodTokenById(string,uint256,address)": {
        "notice": "Mints royalty ERC721 Pod tokens"
      },
      "mintPodTokenBySymbol(string,uint256,address)": {
        "notice": "Mints royalty ERC721 Pod tokens"
      }
    },
    "version": 1
  }
}