{
  "contractName": "PRIVIPodERC721Token",
  "abi": [
    {
      "inputs": [
        {
          "internalType": "string",
          "name": "name",
          "type": "string"
        },
        {
          "internalType": "string",
          "name": "symbol",
          "type": "string"
        },
        {
          "internalType": "string",
          "name": "baseURI",
          "type": "string"
        },
        {
          "internalType": "address",
          "name": "factory",
          "type": "address"
        }
      ],
      "stateMutability": "nonpayable",
      "type": "constructor"
    },
    {
      "anonymous": false,
      "inputs": [
        {
          "indexed": true,
          "internalType": "address",
          "name": "owner",
          "type": "address"
        },
        {
          "indexed": true,
          "internalType": "address",
          "name": "approved",
          "type": "address"
        },
        {
          "indexed": true,
          "internalType": "uint256",
          "name": "tokenId",
          "type": "uint256"
        }
      ],
      "name": "Approval",
      "type": "event"
    },
    {
      "anonymous": false,
      "inputs": [
        {
          "indexed": true,
          "internalType": "address",
          "name": "owner",
          "type": "address"
        },
        {
          "indexed": true,
          "internalType": "address",
          "name": "operator",
          "type": "address"
        },
        {
          "indexed": false,
          "internalType": "bool",
          "name": "approved",
          "type": "bool"
        }
      ],
      "name": "ApprovalForAll",
      "type": "event"
    },
    {
      "anonymous": false,
      "inputs": [
        {
          "indexed": true,
          "internalType": "address",
          "name": "from",
          "type": "address"
        },
        {
          "indexed": true,
          "internalType": "address",
          "name": "to",
          "type": "address"
        },
        {
          "indexed": true,
          "internalType": "uint256",
          "name": "tokenId",
          "type": "uint256"
        }
      ],
      "name": "Transfer",
      "type": "event"
    },
    {
      "inputs": [
        {
          "internalType": "address",
          "name": "to",
          "type": "address"
        },
        {
          "internalType": "uint256",
          "name": "tokenId",
          "type": "uint256"
        }
      ],
      "name": "approve",
      "outputs": [],
      "stateMutability": "nonpayable",
      "type": "function"
    },
    {
      "inputs": [
        {
          "internalType": "address",
          "name": "owner",
          "type": "address"
        }
      ],
      "name": "balanceOf",
      "outputs": [
        {
          "internalType": "uint256",
          "name": "",
          "type": "uint256"
        }
      ],
      "stateMutability": "view",
      "type": "function"
    },
    {
      "inputs": [
        {
          "internalType": "uint256",
          "name": "tokenId",
          "type": "uint256"
        }
      ],
      "name": "burn",
      "outputs": [],
      "stateMutability": "nonpayable",
      "type": "function"
    },
    {
      "inputs": [
        {
          "internalType": "uint256",
          "name": "tokenId",
          "type": "uint256"
        }
      ],
      "name": "getApproved",
      "outputs": [
        {
          "internalType": "address",
          "name": "",
          "type": "address"
        }
      ],
      "stateMutability": "view",
      "type": "function"
    },
    {
      "inputs": [
        {
          "internalType": "address",
          "name": "owner",
          "type": "address"
        },
        {
          "internalType": "address",
          "name": "operator",
          "type": "address"
        }
      ],
      "name": "isApprovedForAll",
      "outputs": [
        {
          "internalType": "bool",
          "name": "",
          "type": "bool"
        }
      ],
      "stateMutability": "view",
      "type": "function"
    },
    {
      "inputs": [],
      "name": "name",
      "outputs": [
        {
          "internalType": "string",
          "name": "",
          "type": "string"
        }
      ],
      "stateMutability": "view",
      "type": "function"
    },
    {
      "inputs": [
        {
          "internalType": "uint256",
          "name": "tokenId",
          "type": "uint256"
        }
      ],
      "name": "ownerOf",
      "outputs": [
        {
          "internalType": "address",
          "name": "",
          "type": "address"
        }
      ],
      "stateMutability": "view",
      "type": "function"
    },
    {
      "inputs": [],
      "name": "parentFactory",
      "outputs": [
        {
          "internalType": "address",
          "name": "",
          "type": "address"
        }
      ],
      "stateMutability": "view",
      "type": "function"
    },
    {
      "inputs": [
        {
          "internalType": "address",
          "name": "from",
          "type": "address"
        },
        {
          "internalType": "address",
          "name": "to",
          "type": "address"
        },
        {
          "internalType": "uint256",
          "name": "tokenId",
          "type": "uint256"
        }
      ],
      "name": "safeTransferFrom",
      "outputs": [],
      "stateMutability": "nonpayable",
      "type": "function"
    },
    {
      "inputs": [
        {
          "internalType": "address",
          "name": "from",
          "type": "address"
        },
        {
          "internalType": "address",
          "name": "to",
          "type": "address"
        },
        {
          "internalType": "uint256",
          "name": "tokenId",
          "type": "uint256"
        },
        {
          "internalType": "bytes",
          "name": "_data",
          "type": "bytes"
        }
      ],
      "name": "safeTransferFrom",
      "outputs": [],
      "stateMutability": "nonpayable",
      "type": "function"
    },
    {
      "inputs": [
        {
          "internalType": "address",
          "name": "operator",
          "type": "address"
        },
        {
          "internalType": "bool",
          "name": "approved",
          "type": "bool"
        }
      ],
      "name": "setApprovalForAll",
      "outputs": [],
      "stateMutability": "nonpayable",
      "type": "function"
    },
    {
      "inputs": [
        {
          "internalType": "bytes4",
          "name": "interfaceId",
          "type": "bytes4"
        }
      ],
      "name": "supportsInterface",
      "outputs": [
        {
          "internalType": "bool",
          "name": "",
          "type": "bool"
        }
      ],
      "stateMutability": "view",
      "type": "function"
    },
    {
      "inputs": [],
      "name": "symbol",
      "outputs": [
        {
          "internalType": "string",
          "name": "",
          "type": "string"
        }
      ],
      "stateMutability": "view",
      "type": "function"
    },
    {
      "inputs": [
        {
          "internalType": "uint256",
          "name": "tokenId",
          "type": "uint256"
        }
      ],
      "name": "tokenURI",
      "outputs": [
        {
          "internalType": "string",
          "name": "",
          "type": "string"
        }
      ],
      "stateMutability": "view",
      "type": "function"
    },
    {
      "inputs": [
        {
          "internalType": "address",
          "name": "from",
          "type": "address"
        },
        {
          "internalType": "address",
          "name": "to",
          "type": "address"
        },
        {
          "internalType": "uint256",
          "name": "tokenId",
          "type": "uint256"
        }
      ],
      "name": "transferFrom",
      "outputs": [],
      "stateMutability": "nonpayable",
      "type": "function"
    },
    {
      "inputs": [
        {
          "internalType": "address",
          "name": "to",
          "type": "address"
        },
        {
          "internalType": "uint256",
          "name": "tokenId",
          "type": "uint256"
        }
      ],
      "name": "mint",
      "outputs": [],
      "stateMutability": "nonpayable",
      "type": "function"
    }
  ],
  "bytecode": "0x60806040523480156200001157600080fd5b50604051620019d8380380620019d88339810160408190526200003491620001f2565b8351849084906200004d906000906020850190620000a1565b50805162000063906001906020840190620000a1565b5050600680546001600160a01b0319166001600160a01b03841617905550815162000096906007906020850190620000a1565b5050505050620002f3565b828054620000af90620002a0565b90600052602060002090601f016020900481019282620000d357600085556200011e565b82601f10620000ee57805160ff19168380011785556200011e565b828001600101855582156200011e579182015b828111156200011e57825182559160200191906001019062000101565b506200012c92915062000130565b5090565b5b808211156200012c576000815560010162000131565b600082601f83011262000158578081fd5b81516001600160401b0380821115620001755762000175620002dd565b6040516020601f8401601f19168201810183811183821017156200019d576200019d620002dd565b6040528382528584018101871015620001b4578485fd5b8492505b83831015620001d75785830181015182840182015291820191620001b8565b83831115620001e857848185840101525b5095945050505050565b6000806000806080858703121562000208578384fd5b84516001600160401b03808211156200021f578586fd5b6200022d8883890162000147565b9550602087015191508082111562000243578485fd5b620002518883890162000147565b9450604087015191508082111562000267578384fd5b50620002768782880162000147565b606087015190935090506001600160a01b038116811462000295578182fd5b939692955090935050565b600281046001821680620002b557607f821691505b60208210811415620002d757634e487b7160e01b600052602260045260246000fd5b50919050565b634e487b7160e01b600052604160045260246000fd5b6116d580620003036000396000f3fe608060405234801561001057600080fd5b50600436106101005760003560e01c80636352211e11610097578063a22cb46511610066578063a22cb46514610207578063b88d4fde1461021a578063c87b56dd1461022d578063e985e9c51461024057610100565b80636352211e146101c457806370a08231146101d757806395d89b41146101f75780639d35c161146101ff57610100565b806323b872dd116100d357806323b872dd1461017857806340c10f191461018b57806342842e0e1461019e57806342966c68146101b157610100565b806301ffc9a71461010557806306fdde031461012e578063081812fc14610143578063095ea7b314610163575b600080fd5b610118610113366004610f82565b610253565b604051610125919061107d565b60405180910390f35b61013661029b565b6040516101259190611088565b610156610151366004610fba565b61032d565b604051610125919061102d565b610176610171366004610f59565b610379565b005b610176610186366004610e18565b610411565b610176610199366004610f59565b610449565b6101766101ac366004610e18565b610491565b6101766101bf366004610fba565b6104ac565b6101566101d2366004610fba565b6104df565b6101ea6101e5366004610dcc565b610514565b6040516101259190611565565b610136610558565b610156610567565b610176610215366004610f1f565b610576565b610176610228366004610e53565b610644565b61013661023b366004610fba565b610683565b61011861024e366004610de6565b610706565b60006001600160e01b031982166380ac58cd60e01b148061028457506001600160e01b03198216635b5e139f60e01b145b80610293575061029382610734565b90505b919050565b6060600080546102aa906115dd565b80601f01602080910402602001604051908101604052809291908181526020018280546102d6906115dd565b80156103235780601f106102f857610100808354040283529160200191610323565b820191906000526020600020905b81548152906001019060200180831161030657829003601f168201915b5050505050905090565b60006103388261074d565b61035d5760405162461bcd60e51b815260040161035490611378565b60405180910390fd5b506000908152600460205260409020546001600160a01b031690565b6000610384826104df565b9050806001600160a01b0316836001600160a01b031614156103b85760405162461bcd60e51b81526004016103549061146a565b806001600160a01b03166103ca61076a565b6001600160a01b031614806103e657506103e68161024e61076a565b6104025760405162461bcd60e51b815260040161035490611253565b61040c838361076e565b505050565b61042261041c61076a565b826107dc565b61043e5760405162461bcd60e51b8152600401610354906114ab565b61040c838383610861565b6006546001600160a01b031661045d61076a565b6001600160a01b0316146104835760405162461bcd60e51b81526004016103549061112f565b61048d828261098e565b5050565b61040c83838360405180602001604052806000815250610644565b6104b761041c61076a565b6104d35760405162461bcd60e51b815260040161035490611508565b6104dc81610a6d565b50565b6000818152600260205260408120546001600160a01b0316806102935760405162461bcd60e51b8152600401610354906112fa565b60006001600160a01b03821661053c5760405162461bcd60e51b8152600401610354906112b0565b506001600160a01b031660009081526003602052604090205490565b6060600180546102aa906115dd565b6006546001600160a01b031681565b61057e61076a565b6001600160a01b0316826001600160a01b031614156105af5760405162461bcd60e51b8152600401610354906111d0565b80600560006105bc61076a565b6001600160a01b03908116825260208083019390935260409182016000908120918716808252919093529120805460ff19169215159290921790915561060061076a565b6001600160a01b03167f17307eab39ab6107e8899845ad3d59bd9653f200f220920489ca2b5937696c3183604051610638919061107d565b60405180910390a35050565b61065561064f61076a565b836107dc565b6106715760405162461bcd60e51b8152600401610354906114ab565b61067d84848484610b14565b50505050565b606061068e8261074d565b6106aa5760405162461bcd60e51b81526004016103549061140d565b60006106b4610b47565b905060008151116106d457604051806020016040528060008152506106ff565b806106de84610b56565b6040516020016106ef929190610ffe565b6040516020818303038152906040525b9392505050565b6001600160a01b03918216600090815260056020908152604080832093909416825291909152205460ff1690565b6001600160e01b031981166301ffc9a760e01b14919050565b6000908152600260205260409020546001600160a01b0316151590565b3390565b600081815260046020526040902080546001600160a01b0319166001600160a01b03841690811790915581906107a3826104df565b6001600160a01b03167f8c5be1e5ebec7d5bd14f71427d1e84f3dd0314c0f7b2291e5b200ac8c7c3b92560405160405180910390a45050565b60006107e78261074d565b6108035760405162461bcd60e51b815260040161035490611207565b600061080e836104df565b9050806001600160a01b0316846001600160a01b031614806108495750836001600160a01b031661083e8461032d565b6001600160a01b0316145b8061085957506108598185610706565b949350505050565b826001600160a01b0316610874826104df565b6001600160a01b03161461089a5760405162461bcd60e51b8152600401610354906113c4565b6001600160a01b0382166108c05760405162461bcd60e51b81526004016103549061118c565b6108cb838383610c89565b6108d660008261076e565b6001600160a01b03831660009081526003602052604081208054600192906108ff90849061159a565b90915550506001600160a01b038216600090815260036020526040812080546001929061092d90849061156e565b909155505060008181526002602052604080822080546001600160a01b0319166001600160a01b0386811691821790925591518493918716917fddf252ad1be2c89b69c2b068fc378daa952ba7f163c4a11628f55a4df523b3ef91a4505050565b6001600160a01b0382166109b45760405162461bcd60e51b815260040161035490611343565b6109bd8161074d565b156109da5760405162461bcd60e51b8152600401610354906110f8565b6109e660008383610c89565b6001600160a01b0382166000908152600360205260408120805460019290610a0f90849061156e565b909155505060008181526002602052604080822080546001600160a01b0319166001600160a01b03861690811790915590518392907fddf252ad1be2c89b69c2b068fc378daa952ba7f163c4a11628f55a4df523b3ef908290a45050565b6000610a78826104df565b9050610a8681600084610c89565b610a9160008361076e565b6001600160a01b0381166000908152600360205260408120805460019290610aba90849061159a565b909155505060008281526002602052604080822080546001600160a01b0319169055518391906001600160a01b038416907fddf252ad1be2c89b69c2b068fc378daa952ba7f163c4a11628f55a4df523b3ef908390a45050565b610b1f848484610861565b610b2b84848484610c94565b61067d5760405162461bcd60e51b81526004016103549061109b565b6060600780546102aa906115dd565b606081610b7b57506040805180820190915260018152600360fc1b6020820152610296565b8160005b8115610ba55780610b8f81611618565b9150610b9e9050600a83611586565b9150610b7f565b60008167ffffffffffffffff811115610bce57634e487b7160e01b600052604160045260246000fd5b6040519080825280601f01601f191660200182016040528015610bf8576020820181803683370190505b5090505b841561085957610c0d60018361159a565b9150610c1a600a86611633565b610c2590603061156e565b60f81b818381518110610c4857634e487b7160e01b600052603260045260246000fd5b60200101907effffffffffffffffffffffffffffffffffffffffffffffffffffffffffffff1916908160001a905350610c82600a86611586565b9450610bfc565b61040c83838361040c565b6000610ca8846001600160a01b0316610daf565b15610da457836001600160a01b031663150b7a02610cc461076a565b8786866040518563ffffffff1660e01b8152600401610ce69493929190611041565b602060405180830381600087803b158015610d0057600080fd5b505af1925050508015610d30575060408051601f3d908101601f19168201909252610d2d91810190610f9e565b60015b610d8a573d808015610d5e576040519150601f19603f3d011682016040523d82523d6000602084013e610d63565b606091505b508051610d825760405162461bcd60e51b81526004016103549061109b565b805181602001fd5b6001600160e01b031916630a85bd0160e11b149050610859565b506001949350505050565b3b151590565b80356001600160a01b038116811461029657600080fd5b600060208284031215610ddd578081fd5b6106ff82610db5565b60008060408385031215610df8578081fd5b610e0183610db5565b9150610e0f60208401610db5565b90509250929050565b600080600060608486031215610e2c578081fd5b610e3584610db5565b9250610e4360208501610db5565b9150604084013590509250925092565b60008060008060808587031215610e68578081fd5b610e7185610db5565b93506020610e80818701610db5565b935060408601359250606086013567ffffffffffffffff80821115610ea3578384fd5b818801915088601f830112610eb6578384fd5b813581811115610ec857610ec8611673565b604051601f8201601f1916810185018381118282101715610eeb57610eeb611673565b60405281815283820185018b1015610f01578586fd5b81858501868301379081019093019390935250939692955090935050565b60008060408385031215610f31578182fd5b610f3a83610db5565b915060208301358015158114610f4e578182fd5b809150509250929050565b60008060408385031215610f6b578182fd5b610f7483610db5565b946020939093013593505050565b600060208284031215610f93578081fd5b81356106ff81611689565b600060208284031215610faf578081fd5b81516106ff81611689565b600060208284031215610fcb578081fd5b5035919050565b60008151808452610fea8160208601602086016115b1565b601f01601f19169290920160200192915050565b600083516110108184602088016115b1565b8351908301906110248183602088016115b1565b01949350505050565b6001600160a01b0391909116815260200190565b60006001600160a01b038087168352808616602084015250836040830152608060608301526110736080830184610fd2565b9695505050505050565b901515815260200190565b6000602082526106ff6020830184610fd2565b60208082526032908201527f4552433732313a207472616e7366657220746f206e6f6e20455243373231526560408201527f63656976657220696d706c656d656e7465720000000000000000000000000000606082015260800190565b6020808252601c908201527f4552433732313a20746f6b656e20616c7265616479206d696e74656400000000604082015260600190565b60208082526039908201527f5052495649506f64455243373231546f6b656e3a204f6e6c7920466163746f7260408201527f792063616e2063616c6c20746869732066756e6374696f6e2e00000000000000606082015260800190565b60208082526024908201527f4552433732313a207472616e7366657220746f20746865207a65726f206164646040820152637265737360e01b606082015260800190565b60208082526019908201527f4552433732313a20617070726f766520746f2063616c6c657200000000000000604082015260600190565b6020808252602c908201527f4552433732313a206f70657261746f7220717565727920666f72206e6f6e657860408201526b34b9ba32b73a103a37b5b2b760a11b606082015260800190565b60208082526038908201527f4552433732313a20617070726f76652063616c6c6572206973206e6f74206f7760408201527f6e6572206e6f7220617070726f76656420666f7220616c6c0000000000000000606082015260800190565b6020808252602a908201527f4552433732313a2062616c616e636520717565727920666f7220746865207a65604082015269726f206164647265737360b01b606082015260800190565b60208082526029908201527f4552433732313a206f776e657220717565727920666f72206e6f6e657869737460408201526832b73a103a37b5b2b760b91b606082015260800190565b6020808252818101527f4552433732313a206d696e7420746f20746865207a65726f2061646472657373604082015260600190565b6020808252602c908201527f4552433732313a20617070726f76656420717565727920666f72206e6f6e657860408201526b34b9ba32b73a103a37b5b2b760a11b606082015260800190565b60208082526029908201527f4552433732313a207472616e73666572206f6620746f6b656e2074686174206960408201526839903737ba1037bbb760b91b606082015260800190565b6020808252602f908201527f4552433732314d657461646174613a2055524920717565727920666f72206e6f60408201527f6e6578697374656e7420746f6b656e0000000000000000000000000000000000606082015260800190565b60208082526021908201527f4552433732313a20617070726f76616c20746f2063757272656e74206f776e656040820152603960f91b606082015260800190565b60208082526031908201527f4552433732313a207472616e736665722063616c6c6572206973206e6f74206f60408201527f776e6572206e6f7220617070726f766564000000000000000000000000000000606082015260800190565b60208082526030908201527f4552433732314275726e61626c653a2063616c6c6572206973206e6f74206f7760408201527f6e6572206e6f7220617070726f76656400000000000000000000000000000000606082015260800190565b90815260200190565b6000821982111561158157611581611647565b500190565b6000826115955761159561165d565b500490565b6000828210156115ac576115ac611647565b500390565b60005b838110156115cc5781810151838201526020016115b4565b8381111561067d5750506000910152565b6002810460018216806115f157607f821691505b6020821081141561161257634e487b7160e01b600052602260045260246000fd5b50919050565b600060001982141561162c5761162c611647565b5060010190565b6000826116425761164261165d565b500690565b634e487b7160e01b600052601160045260246000fd5b634e487b7160e01b600052601260045260246000fd5b634e487b7160e01b600052604160045260246000fd5b6001600160e01b0319811681146104dc57600080fdfea2646970667358221220a5219ae71e1c1e266b4f48e912ddaf04f5ebc2d82e65c2e2f5d73aefb171cee164736f6c63430008000033",
  "immutableReferences": {},
  "source": "// SPDX-License-Identifier: MIT\n\npragma solidity ^0.8.0;\n\nimport \"@openzeppelin/contracts/utils/Context.sol\";\nimport \"@openzeppelin/contracts/token/ERC721/ERC721.sol\";\nimport \"@openzeppelin/contracts/token/ERC721/extensions/ERC721Burnable.sol\";\n\n/**\n * @dev {ERC20} token, including:\n *\n *  - ability for holders to burn (destroy) their tokens\n *  - a factoryOnly modifier, that grants mint capabilities only to factory who deployed this pod token contract\n *\n */\ncontract PRIVIPodERC721Token is Context, ERC721Burnable {\n  address public parentFactory;\n\n  string private _baseTokenURI;\n\n  /**\n   * @dev Sets factory address\n   *\n   * See {ERC20-constructor}.\n   */\n  constructor(\n    string memory name,\n    string memory symbol,\n    string memory baseURI,\n    address factory\n  ) ERC721(name, symbol) {\n    parentFactory = factory;\n    _baseTokenURI = baseURI;\n  }\n\n  modifier onlyFactory() {\n    require(\n      _msgSender() == parentFactory,\n      \"PRIVIPodERC721Token: Only Factory can call this function.\"\n    );\n    _;\n  }\n\n  function _baseURI() internal view virtual override returns (string memory) {\n    return _baseTokenURI;\n  }\n\n  /**\n   * @dev Creates `amount` new tokens for `to`.\n   *\n   * See {ERC20-_mint}.\n   *\n   * Requirements:\n   *\n   * - the caller must be factory only.\n   */\n  function mint(address to, uint256 tokenId) public virtual onlyFactory {\n    // We cannot just use balanceOf to create the new tokenId because tokens\n    _mint(to, tokenId);\n  }\n\n  function _beforeTokenTransfer(\n    address from,\n    address to,\n    uint256 tokenId\n  ) internal virtual override(ERC721) {\n    super._beforeTokenTransfer(from, to, tokenId);\n  }\n}\n",
  "sourcePath": "/Volumes/Workspace/PRIVI/PRIVIethereum/contracts/token/PRIVIPodERC721Token.sol",
  "compiler": {
    "name": "solc",
    "version": "0.8.0+commit.c7dfd78e.Emscripten.clang"
  },
  "schemaVersion": "3.3.4",
  "updatedAt": "2021-04-23T14:01:46.954Z",
  "devdoc": {
    "details": "{ERC20} token, including:  - ability for holders to burn (destroy) their tokens  - a factoryOnly modifier, that grants mint capabilities only to factory who deployed this pod token contract",
    "kind": "dev",
    "methods": {
      "approve(address,uint256)": {
        "details": "See {IERC721-approve}."
      },
      "balanceOf(address)": {
        "details": "See {IERC721-balanceOf}."
      },
      "burn(uint256)": {
        "details": "Burns `tokenId`. See {ERC721-_burn}. Requirements: - The caller must own `tokenId` or be an approved operator."
      },
      "constructor": {
        "details": "Sets factory address See {ERC20-constructor}."
      },
      "getApproved(uint256)": {
        "details": "See {IERC721-getApproved}."
      },
      "isApprovedForAll(address,address)": {
        "details": "See {IERC721-isApprovedForAll}."
      },
      "mint(address,uint256)": {
        "details": "Creates `amount` new tokens for `to`. See {ERC20-_mint}. Requirements: - the caller must be factory only."
      },
      "name()": {
        "details": "See {IERC721Metadata-name}."
      },
      "ownerOf(uint256)": {
        "details": "See {IERC721-ownerOf}."
      },
      "safeTransferFrom(address,address,uint256)": {
        "details": "See {IERC721-safeTransferFrom}."
      },
      "safeTransferFrom(address,address,uint256,bytes)": {
        "details": "See {IERC721-safeTransferFrom}."
      },
      "setApprovalForAll(address,bool)": {
        "details": "See {IERC721-setApprovalForAll}."
      },
      "supportsInterface(bytes4)": {
        "details": "See {IERC165-supportsInterface}."
      },
      "symbol()": {
        "details": "See {IERC721Metadata-symbol}."
      },
      "tokenURI(uint256)": {
        "details": "See {IERC721Metadata-tokenURI}."
      },
      "transferFrom(address,address,uint256)": {
        "details": "See {IERC721-transferFrom}."
      }
    },
    "version": 1
  },
  "userdoc": {
    "kind": "user",
    "methods": {},
    "version": 1
  }
}