{
  "contractName": "AtomicSwapERC20",
  "abi": [
    {
      "inputs": [
        {
          "internalType": "contract IBridgeManager",
          "name": "_bridge",
          "type": "address"
        }
      ],
      "stateMutability": "nonpayable",
      "type": "constructor"
    },
    {
      "anonymous": false,
      "inputs": [
        {
          "indexed": false,
          "internalType": "bytes32",
          "name": "_swapID",
          "type": "bytes32"
        },
        {
          "indexed": false,
          "internalType": "bytes32",
          "name": "_secretKey",
          "type": "bytes32"
        }
      ],
      "name": "CloseProposal",
      "type": "event"
    },
    {
      "anonymous": false,
      "inputs": [
        {
          "indexed": false,
          "internalType": "bytes32",
          "name": "_swapID",
          "type": "bytes32"
        }
      ],
      "name": "ExpireProposal",
      "type": "event"
    },
    {
      "anonymous": false,
      "inputs": [
        {
          "indexed": false,
          "internalType": "bytes32",
          "name": "_swapID",
          "type": "bytes32"
        },
        {
          "indexed": false,
          "internalType": "address",
          "name": "_withdrawer",
          "type": "address"
        },
        {
          "indexed": false,
          "internalType": "bytes32",
          "name": "_secretLock",
          "type": "bytes32"
        }
      ],
      "name": "OpenProposal",
      "type": "event"
    },
    {
      "inputs": [
        {
          "internalType": "bytes32",
          "name": "_swapID",
          "type": "bytes32"
        },
        {
          "internalType": "uint256",
          "name": "_value",
          "type": "uint256"
        },
        {
          "internalType": "address",
          "name": "_contractAddress",
          "type": "address"
        },
        {
          "internalType": "address",
          "name": "_withdrawer",
          "type": "address"
        },
        {
          "internalType": "bytes32",
          "name": "_secretLock",
          "type": "bytes32"
        },
        {
          "internalType": "uint256",
          "name": "_timelock",
          "type": "uint256"
        }
      ],
      "name": "createProposal",
      "outputs": [],
      "stateMutability": "nonpayable",
      "type": "function"
    },
    {
      "inputs": [
        {
          "internalType": "bytes32",
          "name": "_swapID",
          "type": "bytes32"
        },
        {
          "internalType": "bytes32",
          "name": "_secretKey",
          "type": "bytes32"
        }
      ],
      "name": "claimFunds",
      "outputs": [],
      "stateMutability": "nonpayable",
      "type": "function"
    },
    {
      "inputs": [
        {
          "internalType": "bytes32",
          "name": "_swapID",
          "type": "bytes32"
        }
      ],
      "name": "refundFunds",
      "outputs": [],
      "stateMutability": "nonpayable",
      "type": "function"
    },
    {
      "inputs": [
        {
          "internalType": "bytes32",
          "name": "_swapID",
          "type": "bytes32"
        }
      ],
      "name": "getSwapInfo",
      "outputs": [
        {
          "internalType": "uint256",
          "name": "timelock",
          "type": "uint256"
        },
        {
          "internalType": "uint256",
          "name": "value",
          "type": "uint256"
        },
        {
          "internalType": "address",
          "name": "contractAddress",
          "type": "address"
        },
        {
          "internalType": "address",
          "name": "withdrawer",
          "type": "address"
        },
        {
          "internalType": "bytes32",
          "name": "secretLock",
          "type": "bytes32"
        }
      ],
      "stateMutability": "view",
      "type": "function",
      "constant": true
    },
    {
      "inputs": [
        {
          "internalType": "bytes32",
          "name": "_swapID",
          "type": "bytes32"
        }
      ],
      "name": "getSecretKey",
      "outputs": [
        {
          "internalType": "bytes32",
          "name": "secretKey",
          "type": "bytes32"
        }
      ],
      "stateMutability": "view",
      "type": "function",
      "constant": true
    }
  ],
  "bytecode": "0x608060405234801561001057600080fd5b5060405161117c38038061117c83398101604081905261002f91610054565b600280546001600160a01b0319166001600160a01b0392909216919091179055610082565b600060208284031215610065578081fd5b81516001600160a01b038116811461007b578182fd5b9392505050565b6110eb806100916000396000f3fe608060405234801561001057600080fd5b50600436106100575760003560e01c80632d0fc6b41461005c5780633269a9b614610089578063725095031461009e5780639fd70182146100b1578063fc443cd9146100c4575b600080fd5b61006f61006a366004610ac8565b6100e4565b604051610080959493929190611073565b60405180910390f35b61009c610097366004610ae0565b610162565b005b61009c6100ac366004610b01565b6103bf565b61009c6100bf366004610ac8565b61079d565b6100d76100d2366004610ac8565b6109b9565b6040516100809190610c33565b60008181526020818152604091829020825160e0810184528154808252600183015493820184905260028301546001600160a01b03908116958301959095526003830154851660608301819052600484015490951660808301819052600584015460a0840181905260069094015460c0909301929092529590929450565b81600160008281526001602052604090205460ff16600381111561019657634e487b7160e01b600052602160045260246000fd5b146101bc5760405162461bcd60e51b81526004016101b390611030565b60405180910390fd5b8282806040516020016101cf9190610c33565b60408051601f198184030181529181528151602092830120600085815292839052912060050154146102135760405162461bcd60e51b81526004016101b390610f90565b60008581526020819052604090206004015485906001600160a01b0316331461024e5760405162461bcd60e51b81526004016101b390610d73565b600086815260208181526040808320815160e08101835281548152600180830154828601526002808401546001600160a01b03908116848701526003850154811660608501526004850154166080840152600584015460a08401526006909301805460c08401528c87528b905593849052919093208054919392909160ff19169083021790555060608101516080820151602083015160405163a9059cbb60e01b81526001600160a01b0384169263a9059cbb9261030e92600401610c8e565b602060405180830381600087803b15801561032857600080fd5b505af115801561033c573d6000803e3d6000fd5b505050506040513d601f19601f820116820180604052508101906103609190610aa1565b61037c5760405162461bcd60e51b81526004016101b390610eac565b7f41e27b07030aa28d1c62c716585f04d3260fd3c1b2e747329ae1f203732004b588886040516103ad929190610cc6565b60405180910390a15050505050505050565b856000808281526001602052604090205460ff1660038111156103f257634e487b7160e01b600052602160045260246000fd5b1461040f5760405162461bcd60e51b81526004016101b390610d31565b60025460405163281ecdab60e11b81526000916001600160a01b03169063503d9b5690610440908990600401610c3c565b60006040518083038186803b15801561045857600080fd5b505afa15801561046c573d6000803e3d6000fd5b505050506040513d6000823e601f3d908101601f191682016040526104949190810190610b58565b90508051600014156104b85760405162461bcd60e51b81526004016101b390610f4c565b604051636eb1769f60e11b815286906001600160a01b0382169063dd62ed3e906104e89033903090600401610c50565b60206040518083038186803b15801561050057600080fd5b505afa158015610514573d6000803e3d6000fd5b505050506040513d601f19601f820116820180604052508101906105389190610c1b565b8811156105575760405162461bcd60e51b81526004016101b390610fd3565b6040516323b872dd60e01b81526001600160a01b038216906323b872dd9061058790339030908d90600401610c6a565b602060405180830381600087803b1580156105a157600080fd5b505af11580156105b5573d6000803e3d6000fd5b505050506040513d601f19601f820116820180604052508101906105d99190610aa1565b6105f55760405162461bcd60e51b81526004016101b390610cd4565b60006040518060e001604052808681526020018a8152602001336001600160a01b03168152602001896001600160a01b03168152602001886001600160a01b031681526020018781526020016000801b8152509050806000808c8152602001908152602001600020600082015181600001556020820151816001015560408201518160020160006101000a8154816001600160a01b0302191690836001600160a01b0316021790555060608201518160030160006101000a8154816001600160a01b0302191690836001600160a01b0316021790555060808201518160040160006101000a8154816001600160a01b0302191690836001600160a01b0316021790555060a0820151816005015560c0820151816006015590505060018060008c815260200190815260200160002060006101000a81548160ff0219169083600381111561075257634e487b7160e01b600052602160045260246000fd5b02179055507e1aedab88934e047ebb0abe9ec226ef7f63305ea1a61e2ec49230cae4414a2e8a888860405161078993929190610ca7565b60405180910390a150505050505050505050565b80600160008281526001602052604090205460ff1660038111156107d157634e487b7160e01b600052602160045260246000fd5b146107ee5760405162461bcd60e51b81526004016101b390611030565b816107f7610a81565b60008281526020819052604090205411156108245760405162461bcd60e51b81526004016101b390610e0b565b60008381526020819052604090206002015483906001600160a01b0316331461085f5760405162461bcd60e51b81526004016101b390610dc0565b600084815260208181526040808320815160e0810183528154815260018083015482860190815260028401546001600160a01b0390811684870190815260038087015483166060870190815260048089015485166080890152600589015460a089015260069098015460c08801528e8b529490985297869020805460ff1916909717909655905195519051935163a9059cbb60e01b815291959485169363a9059cbb9361090c9301610c8e565b602060405180830381600087803b15801561092657600080fd5b505af115801561093a573d6000803e3d6000fd5b505050506040513d601f19601f8201168201806040525081019061095e9190610aa1565b61097a5760405162461bcd60e51b81526004016101b390610e4f565b7f18ebe710226b6781b51c7cbba2305e730a5740b7427d6e6399107d0e14c74595866040516109a99190610c33565b60405180910390a1505050505050565b600081600260008281526001602052604090205460ff1660038111156109ef57634e487b7160e01b600052602160045260246000fd5b14610a0c5760405162461bcd60e51b81526004016101b390610f09565b505060009081526020818152604091829020825160e0810184528154815260018201549281019290925260028101546001600160a01b039081169383019390935260038101548316606083015260048101549092166080820152600582015460a082015260069091015460c090910181905290565b4290565b80356001600160a01b0381168114610a9c57600080fd5b919050565b600060208284031215610ab2578081fd5b81518015158114610ac1578182fd5b9392505050565b600060208284031215610ad9578081fd5b5035919050565b60008060408385031215610af2578081fd5b50508035926020909101359150565b60008060008060008060c08789031215610b19578182fd5b8635955060208701359450610b3060408801610a85565b9350610b3e60608801610a85565b92506080870135915060a087013590509295509295509295565b60006020808385031215610b6a578182fd5b825167ffffffffffffffff80821115610b81578384fd5b818501915085601f830112610b94578384fd5b815181811115610ba657610ba661109f565b604051601f8201601f1916810185018381118282101715610bc957610bc961109f565b6040528181528382018501881015610bdf578586fd5b8592505b81831015610c005783830185015181840186015291840191610be3565b81831115610c1057858583830101525b979650505050505050565b600060208284031215610c2c578081fd5b5051919050565b90815260200190565b6001600160a01b0391909116815260200190565b6001600160a01b0392831681529116602082015260400190565b6001600160a01b039384168152919092166020820152604081019190915260600190565b6001600160a01b03929092168252602082015260400190565b9283526001600160a01b03919091166020830152604082015260600190565b918252602082015260400190565b60208082526032908201527f41746f6d69635377617045524332302e63726561746550726f706f73616c3a2060408201527f5472616e73616374696f6e206661696c65640000000000000000000000000000606082015260800190565b60208082526022908201527f41746f6d69635377617045524332303a2053776170206974206e6f7420656d70604082015261747960f01b606082015260800190565b6020808252602d908201527f41746f6d69635377617045524332303a2043616c6c6572206973206e6f74207460408201526c3432903bb4ba34323930bbb2b960991b606082015260800190565b6020808252602b908201527f41746f6d69635377617045524332303a2043616c6c6572206973206e6f74207460408201526a343290383937b837b9b2b960a91b606082015260800190565b60208082526024908201527f41746f6d69635377617045524332303a2053776170206973206e6f74206578706040820152631a5c995960e21b606082015260800190565b6020808252602f908201527f41746f6d69635377617045524332302e726566756e6446756e64733a2054726160408201527f6e73616374696f6e206661696c65640000000000000000000000000000000000606082015260800190565b6020808252602e908201527f41746f6d69635377617045524332302e636c61696d46756e64733a205472616e60408201527f73616374696f6e206661696c6564000000000000000000000000000000000000606082015260800190565b60208082526023908201527f41746f6d69635377617045524332303a2053776170206973206e6f7420636c6f6040820152621cd95960ea1b606082015260800190565b60208082526024908201527f537761704d616e616765723a20546f6b656e206973206e6f7420726567697374604082015263195c995960e21b606082015260800190565b60208082526023908201527f41746f6d69635377617045524332303a20496e76616c696420736563726574206040820152626b657960e81b606082015260800190565b6020808252603d908201527f41746f6d69635377617045524332302e63726561746550726f706f73616c3a2060408201527f43616c6c657220686173206e6f7420656e6f7567682062616c616e6365000000606082015260800190565b60208082526023908201527f41746f6d69635377617045524332303a2053776170206973206e6f74206f70656040820152621b995960ea1b606082015260800190565b94855260208501939093526001600160a01b039182166040850152166060830152608082015260a00190565b634e487b7160e01b600052604160045260246000fdfea26469706673582212207830ee0b29e9ff6946f81492363c5040a419b2b2bd8c8337780f8df5fee1cf0864736f6c63430008000033",
  "immutableReferences": {},
  "source": "// SPDX-License-Identifier: UNLICENSED\r\n\r\npragma solidity ^0.8.0;\r\n\r\nimport \"@openzeppelin/contracts/utils/Counters.sol\";\r\nimport \"@openzeppelin/contracts/token/ERC20/IERC20.sol\";\r\nimport \"../interfaces/IBridgeManager.sol\";\r\n\r\ncontract AtomicSwapERC20 {\r\n    struct Swap {\r\n        uint256 timelock;\r\n        uint256 value;\r\n        address proposer;\r\n        address contractAddress;\r\n        address withdrawer;\r\n        bytes32 secretLock;\r\n        bytes32 secretKey;\r\n    }\r\n\r\n    /**\r\n     * @dev Swap States\r\n     * EMPTY - Default Value\r\n     * OPEN - Created Proposal\r\n     * CLOSED - Claimed Funds\r\n     * EXPIRED - Refund Funds\r\n     */\r\n    enum States {EMPTY, OPEN, CLOSED, EXPIRED}\r\n\r\n    mapping(bytes32 => Swap) private swaps;\r\n    mapping(bytes32 => States) private swapStates;\r\n\r\n    IBridgeManager private bridge;\r\n\r\n    event OpenProposal(\r\n        bytes32 _swapID,\r\n        address _withdrawer,\r\n        bytes32 _secretLock\r\n    );\r\n    event ExpireProposal(bytes32 _swapID);\r\n    event CloseProposal(bytes32 _swapID, bytes32 _secretKey);\r\n\r\n    modifier onlyEmptySwaps(bytes32 _swapID) {\r\n        require(\r\n            swapStates[_swapID] == States.EMPTY,\r\n            \"AtomicSwapERC20: Swap it not empty\"\r\n        );\r\n        _;\r\n    }\r\n\r\n    modifier onlyOpenSwaps(bytes32 _swapID) {\r\n        require(\r\n            swapStates[_swapID] == States.OPEN,\r\n            \"AtomicSwapERC20: Swap is not opened\"\r\n        );\r\n        _;\r\n    }\r\n\r\n    modifier onlyClosedSwaps(bytes32 _swapID) {\r\n        require(\r\n            swapStates[_swapID] == States.CLOSED,\r\n            \"AtomicSwapERC20: Swap is not closed\"\r\n        );\r\n        _;\r\n    }\r\n\r\n    modifier onlyExpirableSwaps(bytes32 _swapID) {\r\n        require(\r\n            swaps[_swapID].timelock <= _getNow(),\r\n            \"AtomicSwapERC20: Swap is not expired\"\r\n        );\r\n        _;\r\n    }\r\n\r\n    modifier onlyWithSecretKey(bytes32 _swapID, bytes32 _secretKey) {\r\n        // TODO: Require _secretKey length to conform to the spec\r\n        require(\r\n            swaps[_swapID].secretLock == keccak256(abi.encodePacked(_secretKey)),\r\n            \"AtomicSwapERC20: Invalid secret key\"\r\n        );\r\n        _;\r\n    }\r\n\r\n    modifier onlyWithdrawer(bytes32 _swapID) {\r\n        require(\r\n            msg.sender == swaps[_swapID].withdrawer,\r\n            \"AtomicSwapERC20: Caller is not the withdrawer\"\r\n        );\r\n        _;\r\n    }\r\n\r\n    modifier onlyProposer(bytes32 _swapID) {\r\n        require(\r\n            msg.sender == swaps[_swapID].proposer,\r\n            \"AtomicSwapERC20: Caller is not the proposer\"\r\n        );\r\n        _;\r\n    }\r\n\r\n    constructor(IBridgeManager _bridge) {\r\n        bridge = _bridge;\r\n    }\r\n\r\n    function createProposal(\r\n        bytes32 _swapID,\r\n        uint256 _value,\r\n        address _contractAddress,\r\n        address _withdrawer,\r\n        bytes32 _secretLock,\r\n        uint256 _timelock\r\n    ) public onlyEmptySwaps(_swapID) {\r\n        string memory symbol = bridge.getErc20SymbolRegistered(_contractAddress);\r\n        require(\r\n            bytes(symbol).length != 0,\r\n            \"SwapManager: Token is not registered\"\r\n        );\r\n        // Transfer value from the token proposer to this contract.\r\n        IERC20 contractInstance = IERC20(_contractAddress);\r\n        require(\r\n            _value <= contractInstance.allowance(msg.sender, address(this)),\r\n            \"AtomicSwapERC20.createProposal: Caller has not enough balance\"\r\n        );\r\n        require(\r\n            contractInstance.transferFrom(msg.sender, address(this), _value),\r\n            \"AtomicSwapERC20.createProposal: Transaction failed\"\r\n        );\r\n\r\n        // Store the details of the swap.\r\n        Swap memory swap =\r\n        Swap({\r\n            timelock: _timelock,\r\n            value: _value,\r\n            proposer: msg.sender,\r\n            contractAddress: _contractAddress,\r\n            withdrawer: _withdrawer,\r\n            secretLock: _secretLock,\r\n            secretKey: 0\r\n        });\r\n        swaps[_swapID] = swap;\r\n        swapStates[_swapID] = States.OPEN;\r\n        emit OpenProposal(_swapID, _withdrawer, _secretLock);\r\n    }\r\n\r\n    function claimFunds(bytes32 _swapID, bytes32 _secretKey)\r\n        public\r\n        onlyOpenSwaps(_swapID)\r\n        onlyWithSecretKey(_swapID, _secretKey)\r\n        onlyWithdrawer(_swapID)\r\n    {\r\n        // Close the swap.\r\n        Swap memory swap = swaps[_swapID];\r\n        swaps[_swapID].secretKey = _secretKey;\r\n        swapStates[_swapID] = States.CLOSED;\r\n\r\n        // Transfer the funds from this contract to the withdrawer.\r\n        IERC20 contractInstance = IERC20(swap.contractAddress);\r\n        require(\r\n            contractInstance.transfer(swap.withdrawer, swap.value),\r\n            \"AtomicSwapERC20.claimFunds: Transaction failed\"\r\n        );\r\n\r\n        emit CloseProposal(_swapID, _secretKey);\r\n    }\r\n\r\n    function refundFunds(bytes32 _swapID)\r\n        public\r\n        onlyOpenSwaps(_swapID)\r\n        onlyExpirableSwaps(_swapID)\r\n        onlyProposer(_swapID)\r\n    {\r\n        // Expire the swap.\r\n        Swap memory swap = swaps[_swapID];\r\n        swapStates[_swapID] = States.EXPIRED;\r\n\r\n        // Transfer the token from this contract back to the proposer.\r\n        IERC20 contractInstance = IERC20(swap.contractAddress);\r\n        require(\r\n            contractInstance.transfer(swap.proposer, swap.value),\r\n            \"AtomicSwapERC20.refundFunds: Transaction failed\"\r\n        );\r\n\r\n        emit ExpireProposal(_swapID);\r\n    }\r\n\r\n    function getSwapInfo(bytes32 _swapID)\r\n        public\r\n        view\r\n        returns (\r\n        uint256 timelock,\r\n        uint256 value,\r\n        address contractAddress,\r\n        address withdrawer,\r\n        bytes32 secretLock\r\n        )\r\n    {\r\n        Swap memory swap = swaps[_swapID];\r\n        return (\r\n        swap.timelock,\r\n        swap.value,\r\n        swap.contractAddress,\r\n        swap.withdrawer,\r\n        swap.secretLock\r\n        );\r\n    }\r\n\r\n    function getSecretKey(bytes32 _swapID)\r\n        public\r\n        view\r\n        onlyClosedSwaps(_swapID)\r\n        returns (bytes32 secretKey)\r\n    {\r\n        Swap memory swap = swaps[_swapID];\r\n        return swap.secretKey;\r\n    }\r\n\r\n    function _getNow() internal view virtual returns (uint256) {\r\n        return block.timestamp;\r\n    }\r\n}\r\n\r\n",
  "sourcePath": "/Users/anthowen/Projects/Privi/PRIVIethereum/contracts/AtomicSwap/AtomicSwapERC20.sol",
  "compiler": {
    "name": "solc",
    "version": "0.8.0+commit.c7dfd78e.Emscripten.clang"
  },
  "schemaVersion": "3.4.1",
  "updatedAt": "2021-07-01T16:35:34.564Z",
  "networkType": "ethereum",
  "devdoc": {
    "kind": "dev",
    "methods": {},
    "version": 1
  },
  "userdoc": {
    "kind": "user",
    "methods": {},
    "version": 1
  }
}