{
  "contractName": "PriviTestToken",
  "abi": [
    {
      "inputs": [
        {
          "internalType": "uint256",
          "name": "initialSupply",
          "type": "uint256"
        }
      ],
      "stateMutability": "nonpayable",
      "type": "constructor"
    },
    {
      "anonymous": false,
      "inputs": [
        {
          "indexed": true,
          "internalType": "address",
          "name": "owner",
          "type": "address"
        },
        {
          "indexed": true,
          "internalType": "address",
          "name": "spender",
          "type": "address"
        },
        {
          "indexed": false,
          "internalType": "uint256",
          "name": "value",
          "type": "uint256"
        }
      ],
      "name": "Approval",
      "type": "event"
    },
    {
      "anonymous": false,
      "inputs": [
        {
          "indexed": true,
          "internalType": "address",
          "name": "previousOwner",
          "type": "address"
        },
        {
          "indexed": true,
          "internalType": "address",
          "name": "newOwner",
          "type": "address"
        }
      ],
      "name": "OwnershipTransferred",
      "type": "event"
    },
    {
      "anonymous": false,
      "inputs": [
        {
          "indexed": false,
          "internalType": "address",
          "name": "from",
          "type": "address"
        },
        {
          "indexed": false,
          "internalType": "address",
          "name": "to",
          "type": "address"
        }
      ],
      "name": "StreamingCreated",
      "type": "event"
    },
    {
      "anonymous": false,
      "inputs": [
        {
          "indexed": true,
          "internalType": "address",
          "name": "from",
          "type": "address"
        },
        {
          "indexed": true,
          "internalType": "address",
          "name": "to",
          "type": "address"
        },
        {
          "indexed": false,
          "internalType": "uint256",
          "name": "value",
          "type": "uint256"
        }
      ],
      "name": "Transfer",
      "type": "event"
    },
    {
      "inputs": [
        {
          "internalType": "address",
          "name": "owner",
          "type": "address"
        },
        {
          "internalType": "address",
          "name": "spender",
          "type": "address"
        }
      ],
      "name": "allowance",
      "outputs": [
        {
          "internalType": "uint256",
          "name": "",
          "type": "uint256"
        }
      ],
      "stateMutability": "view",
      "type": "function"
    },
    {
      "inputs": [
        {
          "internalType": "address",
          "name": "spender",
          "type": "address"
        },
        {
          "internalType": "uint256",
          "name": "amount",
          "type": "uint256"
        }
      ],
      "name": "approve",
      "outputs": [
        {
          "internalType": "bool",
          "name": "",
          "type": "bool"
        }
      ],
      "stateMutability": "nonpayable",
      "type": "function"
    },
    {
      "inputs": [
        {
          "internalType": "uint256",
          "name": "amount",
          "type": "uint256"
        }
      ],
      "name": "burn",
      "outputs": [],
      "stateMutability": "nonpayable",
      "type": "function"
    },
    {
      "inputs": [
        {
          "internalType": "address",
          "name": "account",
          "type": "address"
        },
        {
          "internalType": "uint256",
          "name": "amount",
          "type": "uint256"
        }
      ],
      "name": "burnFrom",
      "outputs": [],
      "stateMutability": "nonpayable",
      "type": "function"
    },
    {
      "inputs": [
        {
          "components": [
            {
              "internalType": "string",
              "name": "stype",
              "type": "string"
            },
            {
              "internalType": "address",
              "name": "senderAddress",
              "type": "address"
            },
            {
              "internalType": "address",
              "name": "receiverAddress",
              "type": "address"
            },
            {
              "internalType": "uint256",
              "name": "amount",
              "type": "uint256"
            },
            {
              "internalType": "uint64",
              "name": "frequency",
              "type": "uint64"
            },
            {
              "internalType": "uint64",
              "name": "startingDate",
              "type": "uint64"
            },
            {
              "internalType": "uint64",
              "name": "endingDate",
              "type": "uint64"
            }
          ],
          "internalType": "struct HelperLibrary.Streaming",
          "name": "_streaming",
          "type": "tuple"
        }
      ],
      "name": "createStreaming",
      "outputs": [],
      "stateMutability": "nonpayable",
      "type": "function"
    },
    {
      "inputs": [
        {
          "internalType": "address",
          "name": "spender",
          "type": "address"
        },
        {
          "internalType": "uint256",
          "name": "subtractedValue",
          "type": "uint256"
        }
      ],
      "name": "decreaseAllowance",
      "outputs": [
        {
          "internalType": "bool",
          "name": "",
          "type": "bool"
        }
      ],
      "stateMutability": "nonpayable",
      "type": "function"
    },
    {
      "inputs": [
        {
          "internalType": "address",
          "name": "_toAddress",
          "type": "address"
        }
      ],
      "name": "getReceiverStreamings",
      "outputs": [
        {
          "components": [
            {
              "internalType": "string",
              "name": "stype",
              "type": "string"
            },
            {
              "internalType": "address",
              "name": "senderAddress",
              "type": "address"
            },
            {
              "internalType": "address",
              "name": "receiverAddress",
              "type": "address"
            },
            {
              "internalType": "uint256",
              "name": "amount",
              "type": "uint256"
            },
            {
              "internalType": "uint64",
              "name": "frequency",
              "type": "uint64"
            },
            {
              "internalType": "uint64",
              "name": "startingDate",
              "type": "uint64"
            },
            {
              "internalType": "uint64",
              "name": "endingDate",
              "type": "uint64"
            }
          ],
          "internalType": "struct HelperLibrary.Streaming[]",
          "name": "",
          "type": "tuple[]"
        }
      ],
      "stateMutability": "view",
      "type": "function"
    },
    {
      "inputs": [
        {
          "internalType": "address",
          "name": "_fromAddress",
          "type": "address"
        }
      ],
      "name": "getSenderStreamings",
      "outputs": [
        {
          "components": [
            {
              "internalType": "string",
              "name": "stype",
              "type": "string"
            },
            {
              "internalType": "address",
              "name": "senderAddress",
              "type": "address"
            },
            {
              "internalType": "address",
              "name": "receiverAddress",
              "type": "address"
            },
            {
              "internalType": "uint256",
              "name": "amount",
              "type": "uint256"
            },
            {
              "internalType": "uint64",
              "name": "frequency",
              "type": "uint64"
            },
            {
              "internalType": "uint64",
              "name": "startingDate",
              "type": "uint64"
            },
            {
              "internalType": "uint64",
              "name": "endingDate",
              "type": "uint64"
            }
          ],
          "internalType": "struct HelperLibrary.Streaming[]",
          "name": "",
          "type": "tuple[]"
        }
      ],
      "stateMutability": "view",
      "type": "function"
    },
    {
      "inputs": [
        {
          "internalType": "address",
          "name": "spender",
          "type": "address"
        },
        {
          "internalType": "uint256",
          "name": "addedValue",
          "type": "uint256"
        }
      ],
      "name": "increaseAllowance",
      "outputs": [
        {
          "internalType": "bool",
          "name": "",
          "type": "bool"
        }
      ],
      "stateMutability": "nonpayable",
      "type": "function"
    },
    {
      "inputs": [],
      "name": "name",
      "outputs": [
        {
          "internalType": "string",
          "name": "",
          "type": "string"
        }
      ],
      "stateMutability": "view",
      "type": "function"
    },
    {
      "inputs": [],
      "name": "owner",
      "outputs": [
        {
          "internalType": "address",
          "name": "",
          "type": "address"
        }
      ],
      "stateMutability": "view",
      "type": "function"
    },
    {
      "inputs": [],
      "name": "renounceOwnership",
      "outputs": [],
      "stateMutability": "nonpayable",
      "type": "function"
    },
    {
      "inputs": [
        {
          "components": [
            {
              "internalType": "string",
              "name": "stype",
              "type": "string"
            },
            {
              "internalType": "address",
              "name": "senderAddress",
              "type": "address"
            },
            {
              "internalType": "address",
              "name": "receiverAddress",
              "type": "address"
            },
            {
              "internalType": "uint256",
              "name": "amount",
              "type": "uint256"
            },
            {
              "internalType": "uint64",
              "name": "frequency",
              "type": "uint64"
            },
            {
              "internalType": "uint64",
              "name": "startingDate",
              "type": "uint64"
            },
            {
              "internalType": "uint64",
              "name": "endingDate",
              "type": "uint64"
            }
          ],
          "internalType": "struct HelperLibrary.Streaming",
          "name": "_streaming",
          "type": "tuple"
        }
      ],
      "name": "stopStreaming",
      "outputs": [],
      "stateMutability": "nonpayable",
      "type": "function"
    },
    {
      "inputs": [
        {
          "internalType": "address",
          "name": "_receiverAddress",
          "type": "address"
        }
      ],
      "name": "stopStreaming",
      "outputs": [],
      "stateMutability": "nonpayable",
      "type": "function"
    },
    {
      "inputs": [],
      "name": "symbol",
      "outputs": [
        {
          "internalType": "string",
          "name": "",
          "type": "string"
        }
      ],
      "stateMutability": "view",
      "type": "function"
    },
    {
      "inputs": [],
      "name": "totalSupply",
      "outputs": [
        {
          "internalType": "uint256",
          "name": "",
          "type": "uint256"
        }
      ],
      "stateMutability": "view",
      "type": "function"
    },
    {
      "inputs": [
        {
          "internalType": "address",
          "name": "recipient",
          "type": "address"
        },
        {
          "internalType": "uint256",
          "name": "amount",
          "type": "uint256"
        }
      ],
      "name": "transfer",
      "outputs": [
        {
          "internalType": "bool",
          "name": "",
          "type": "bool"
        }
      ],
      "stateMutability": "nonpayable",
      "type": "function"
    },
    {
      "inputs": [
        {
          "internalType": "address",
          "name": "sender",
          "type": "address"
        },
        {
          "internalType": "address",
          "name": "recipient",
          "type": "address"
        },
        {
          "internalType": "uint256",
          "name": "amount",
          "type": "uint256"
        }
      ],
      "name": "transferFrom",
      "outputs": [
        {
          "internalType": "bool",
          "name": "",
          "type": "bool"
        }
      ],
      "stateMutability": "nonpayable",
      "type": "function"
    },
    {
      "inputs": [
        {
          "internalType": "address",
          "name": "newOwner",
          "type": "address"
        }
      ],
      "name": "transferOwnership",
      "outputs": [],
      "stateMutability": "nonpayable",
      "type": "function"
    },
    {
      "inputs": [
        {
          "components": [
            {
              "internalType": "string",
              "name": "stype",
              "type": "string"
            },
            {
              "internalType": "address",
              "name": "senderAddress",
              "type": "address"
            },
            {
              "internalType": "address",
              "name": "receiverAddress",
              "type": "address"
            },
            {
              "internalType": "uint256",
              "name": "amount",
              "type": "uint256"
            },
            {
              "internalType": "uint64",
              "name": "frequency",
              "type": "uint64"
            },
            {
              "internalType": "uint64",
              "name": "startingDate",
              "type": "uint64"
            },
            {
              "internalType": "uint64",
              "name": "endingDate",
              "type": "uint64"
            }
          ],
          "internalType": "struct HelperLibrary.Streaming",
          "name": "_streaming",
          "type": "tuple"
        }
      ],
      "name": "updateStreaming",
      "outputs": [],
      "stateMutability": "nonpayable",
      "type": "function"
    },
    {
      "inputs": [
        {
          "internalType": "address",
          "name": "to",
          "type": "address"
        },
        {
          "internalType": "uint256",
          "name": "amount",
          "type": "uint256"
        }
      ],
      "name": "mint",
      "outputs": [],
      "stateMutability": "nonpayable",
      "type": "function"
    },
    {
      "inputs": [],
      "name": "decimals",
      "outputs": [
        {
          "internalType": "uint8",
          "name": "",
          "type": "uint8"
        }
      ],
      "stateMutability": "pure",
      "type": "function"
    },
    {
      "inputs": [
        {
          "internalType": "address",
          "name": "account",
          "type": "address"
        }
      ],
      "name": "balanceOf",
      "outputs": [
        {
          "internalType": "uint256",
          "name": "",
          "type": "uint256"
        }
      ],
      "stateMutability": "view",
      "type": "function"
    }
  ],
  "bytecode": "0x60806040523480156200001157600080fd5b5060405162008948380380620089488339818101604052810190620000379190620027d2565b6040518060400160405280600e81526020017f507269766954657374546f6b656e0000000000000000000000000000000000008152506040518060400160405280600381526020017f50545400000000000000000000000000000000000000000000000000000000008152508160039080519060200190620000bb9291906200262d565b508060049080519060200190620000d49291906200262d565b5050506000620000e9620001cb60201b60201c565b905080600760006101000a81548173ffffffffffffffffffffffffffffffffffffffff021916908373ffffffffffffffffffffffffffffffffffffffff1602179055508073ffffffffffffffffffffffffffffffffffffffff16600073ffffffffffffffffffffffffffffffffffffffff167f8be0079c531659141344cd1fd0a4f28419497f9722a3daafe3b4186f6b6457e060405160405180910390a350620001c4336200019d620001d360201b60201c565b600a620001ab919062002976565b83620001b8919062002ab3565b620001dc60201b60201c565b5062002cc7565b600033905090565b60006009905090565b600073ffffffffffffffffffffffffffffffffffffffff168273ffffffffffffffffffffffffffffffffffffffff1614156200024f576040517f08c379a0000000000000000000000000000000000000000000000000000000008152600401620002469062002836565b60405180910390fd5b62000263600083836200034160201b60201c565b806002600082825462000277919062002886565b92505081905550806000808473ffffffffffffffffffffffffffffffffffffffff1673ffffffffffffffffffffffffffffffffffffffff1681526020019081526020016000206000828254620002ce919062002886565b925050819055508173ffffffffffffffffffffffffffffffffffffffff16600073ffffffffffffffffffffffffffffffffffffffff167fddf252ad1be2c89b69c2b068fc378daa952ba7f163c4a11628f55a4df523b3ef8360405162000335919062002858565b60405180910390a35050565b620003598383836200035e60201b62001cc21760201c565b505050565b6200036f836200038c60201b60201c565b620003878383836200167760201b62001cdb1760201c565b505050565b6000600660008373ffffffffffffffffffffffffffffffffffffffff1673ffffffffffffffffffffffffffffffffffffffff168152602001908152602001600020905060005b818054905081101562000cfe5781818154811062000419577f4e487b7100000000000000000000000000000000000000000000000000000000600052603260045260246000fd5b906000526020600020906005020160040160109054906101000a900467ffffffffffffffff1667ffffffffffffffff1682828154811062000483577f4e487b7100000000000000000000000000000000000000000000000000000000600052603260045260246000fd5b906000526020600020906005020160040160089054906101000a900467ffffffffffffffff1667ffffffffffffffff1610620004e8577f4e487b7100000000000000000000000000000000000000000000000000000000600052600160045260246000fd5b81818154811062000522577f4e487b7100000000000000000000000000000000000000000000000000000000600052603260045260246000fd5b906000526020600020906005020160040160089054906101000a900467ffffffffffffffff1667ffffffffffffffff1642111562000ce85760004283838154811062000597577f4e487b7100000000000000000000000000000000000000000000000000000000600052603260045260246000fd5b906000526020600020906005020160040160109054906101000a900467ffffffffffffffff1667ffffffffffffffff1610620005d457426200063f565b8282815481106200060e577f4e487b7100000000000000000000000000000000000000000000000000000000600052603260045260246000fd5b906000526020600020906005020160040160109054906101000a900467ffffffffffffffff1667ffffffffffffffff165b905060008383815481106200067d577f4e487b7100000000000000000000000000000000000000000000000000000000600052603260045260246000fd5b906000526020600020906005020160040160089054906101000a900467ffffffffffffffff1667ffffffffffffffff1682620006ba919062002b14565b90506000848481548110620006f8577f4e487b7100000000000000000000000000000000000000000000000000000000600052603260045260246000fd5b906000526020600020906005020160040160009054906101000a900467ffffffffffffffff1667ffffffffffffffff168286868154811062000763577f4e487b7100000000000000000000000000000000000000000000000000000000600052603260045260246000fd5b90600052602060002090600502016003015462000781919062002ab3565b6200078d9190620028e3565b9050806000808873ffffffffffffffffffffffffffffffffffffffff1673ffffffffffffffffffffffffffffffffffffffff1681526020019081526020016000206000828254620007df919062002886565b925050819055508060008087878154811062000824577f4e487b7100000000000000000000000000000000000000000000000000000000600052603260045260246000fd5b906000526020600020906005020160010160009054906101000a900473ffffffffffffffffffffffffffffffffffffffff1673ffffffffffffffffffffffffffffffffffffffff1673ffffffffffffffffffffffffffffffffffffffff1681526020019081526020016000206000828254620008a1919062002b14565b92505081905550848481548110620008e2577f4e487b7100000000000000000000000000000000000000000000000000000000600052603260045260246000fd5b906000526020600020906005020160040160109054906101000a900467ffffffffffffffff1667ffffffffffffffff1683106200099c57620009968686868154811062000958577f4e487b7100000000000000000000000000000000000000000000000000000000600052603260045260246000fd5b906000526020600020906005020160010160009054906101000a900473ffffffffffffffffffffffffffffffffffffffff166200167c60201b60201c565b62000ce4565b62000ce36040518060e00160405280878781548110620009e5577f4e487b7100000000000000000000000000000000000000000000000000000000600052603260045260246000fd5b9060005260206000209060050201600001805462000a039062002b66565b80601f016020809104026020016040519081016040528092919081815260200182805462000a319062002b66565b801562000a825780601f1062000a565761010080835404028352916020019162000a82565b820191906000526020600020905b81548152906001019060200180831162000a6457829003601f168201915b5050505050815260200187878154811062000ac6577f4e487b7100000000000000000000000000000000000000000000000000000000600052603260045260246000fd5b906000526020600020906005020160010160009054906101000a900473ffffffffffffffffffffffffffffffffffffffff1673ffffffffffffffffffffffffffffffffffffffff16815260200187878154811062000b4d577f4e487b7100000000000000000000000000000000000000000000000000000000600052603260045260246000fd5b906000526020600020906005020160020160009054906101000a900473ffffffffffffffffffffffffffffffffffffffff1673ffffffffffffffffffffffffffffffffffffffff16815260200187878154811062000bd4577f4e487b7100000000000000000000000000000000000000000000000000000000600052603260045260246000fd5b906000526020600020906005020160030154815260200187878154811062000c25577f4e487b7100000000000000000000000000000000000000000000000000000000600052603260045260246000fd5b906000526020600020906005020160040160009054906101000a900467ffffffffffffffff1667ffffffffffffffff1681526020018567ffffffffffffffff16815260200187878154811062000ca4577f4e487b7100000000000000000000000000000000000000000000000000000000600052603260045260246000fd5b906000526020600020906005020160040160109054906101000a900467ffffffffffffffff1667ffffffffffffffff1681525062001fc060201b60201c565b5b5050505b808062000cf59062002b9c565b915050620003d2565b506000600560008473ffffffffffffffffffffffffffffffffffffffff1673ffffffffffffffffffffffffffffffffffffffff168152602001908152602001600020905060005b8180549050811015620016715781818154811062000d8c577f4e487b7100000000000000000000000000000000000000000000000000000000600052603260045260246000fd5b906000526020600020906005020160040160109054906101000a900467ffffffffffffffff1667ffffffffffffffff1682828154811062000df6577f4e487b7100000000000000000000000000000000000000000000000000000000600052603260045260246000fd5b906000526020600020906005020160040160089054906101000a900467ffffffffffffffff1667ffffffffffffffff161062000e5b577f4e487b7100000000000000000000000000000000000000000000000000000000600052600160045260246000fd5b81818154811062000e95577f4e487b7100000000000000000000000000000000000000000000000000000000600052603260045260246000fd5b906000526020600020906005020160040160089054906101000a900467ffffffffffffffff1667ffffffffffffffff164211156200165b5760004283838154811062000f0a577f4e487b7100000000000000000000000000000000000000000000000000000000600052603260045260246000fd5b906000526020600020906005020160040160109054906101000a900467ffffffffffffffff1667ffffffffffffffff161062000f47574262000fb2565b82828154811062000f81577f4e487b7100000000000000000000000000000000000000000000000000000000600052603260045260246000fd5b906000526020600020906005020160040160109054906101000a900467ffffffffffffffff1667ffffffffffffffff165b9050600083838154811062000ff0577f4e487b7100000000000000000000000000000000000000000000000000000000600052603260045260246000fd5b906000526020600020906005020160040160089054906101000a900467ffffffffffffffff1667ffffffffffffffff16826200102d919062002b14565b905060008484815481106200106b577f4e487b7100000000000000000000000000000000000000000000000000000000600052603260045260246000fd5b906000526020600020906005020160040160009054906101000a900467ffffffffffffffff1667ffffffffffffffff1682868681548110620010d6577f4e487b7100000000000000000000000000000000000000000000000000000000600052603260045260246000fd5b906000526020600020906005020160030154620010f4919062002ab3565b620011009190620028e3565b9050806000808973ffffffffffffffffffffffffffffffffffffffff1673ffffffffffffffffffffffffffffffffffffffff168152602001908152602001600020600082825462001152919062002b14565b925050819055508060008087878154811062001197577f4e487b7100000000000000000000000000000000000000000000000000000000600052603260045260246000fd5b906000526020600020906005020160020160009054906101000a900473ffffffffffffffffffffffffffffffffffffffff1673ffffffffffffffffffffffffffffffffffffffff1673ffffffffffffffffffffffffffffffffffffffff168152602001908152602001600020600082825462001214919062002886565b9250508190555084848154811062001255577f4e487b7100000000000000000000000000000000000000000000000000000000600052603260045260246000fd5b906000526020600020906005020160040160109054906101000a900467ffffffffffffffff1667ffffffffffffffff1683106200130f576200130987868681548110620012cb577f4e487b7100000000000000000000000000000000000000000000000000000000600052603260045260246000fd5b906000526020600020906005020160010160009054906101000a900473ffffffffffffffffffffffffffffffffffffffff166200167c60201b60201c565b62001657565b620016566040518060e0016040528087878154811062001358577f4e487b7100000000000000000000000000000000000000000000000000000000600052603260045260246000fd5b90600052602060002090600502016000018054620013769062002b66565b80601f0160208091040260200160405190810160405280929190818152602001828054620013a49062002b66565b8015620013f55780601f10620013c957610100808354040283529160200191620013f5565b820191906000526020600020905b815481529060010190602001808311620013d757829003601f168201915b5050505050815260200187878154811062001439577f4e487b7100000000000000000000000000000000000000000000000000000000600052603260045260246000fd5b906000526020600020906005020160010160009054906101000a900473ffffffffffffffffffffffffffffffffffffffff1673ffffffffffffffffffffffffffffffffffffffff168152602001878781548110620014c0577f4e487b7100000000000000000000000000000000000000000000000000000000600052603260045260246000fd5b906000526020600020906005020160020160009054906101000a900473ffffffffffffffffffffffffffffffffffffffff1673ffffffffffffffffffffffffffffffffffffffff16815260200187878154811062001547577f4e487b7100000000000000000000000000000000000000000000000000000000600052603260045260246000fd5b906000526020600020906005020160030154815260200187878154811062001598577f4e487b7100000000000000000000000000000000000000000000000000000000600052603260045260246000fd5b906000526020600020906005020160040160009054906101000a900467ffffffffffffffff1667ffffffffffffffff1681526020018567ffffffffffffffff16815260200187878154811062001617577f4e487b7100000000000000000000000000000000000000000000000000000000600052603260045260246000fd5b906000526020600020906005020160040160109054906101000a900467ffffffffffffffff1667ffffffffffffffff1681525062001fc060201b60201c565b5b5050505b8080620016689062002b9c565b91505062000d45565b50505050565b505050565b6000600560008473ffffffffffffffffffffffffffffffffffffffff1673ffffffffffffffffffffffffffffffffffffffff168152602001908152602001600020905060005b818054905081101562001b1a578273ffffffffffffffffffffffffffffffffffffffff1682828154811062001720577f4e487b7100000000000000000000000000000000000000000000000000000000600052603260045260246000fd5b906000526020600020906005020160020160009054906101000a900473ffffffffffffffffffffffffffffffffffffffff1673ffffffffffffffffffffffffffffffffffffffff16141562001b04576001828054905062001782919062002b14565b8114620019f45781600183805490506200179d919062002b14565b81548110620017d5577f4e487b7100000000000000000000000000000000000000000000000000000000600052603260045260246000fd5b90600052602060002090600502018282815481106200181d577f4e487b7100000000000000000000000000000000000000000000000000000000600052603260045260246000fd5b90600052602060002090600502016000820181600001908054620018419062002b66565b6200184e929190620026be565b506001820160009054906101000a900473ffffffffffffffffffffffffffffffffffffffff168160010160006101000a81548173ffffffffffffffffffffffffffffffffffffffff021916908373ffffffffffffffffffffffffffffffffffffffff1602179055506002820160009054906101000a900473ffffffffffffffffffffffffffffffffffffffff168160020160006101000a81548173ffffffffffffffffffffffffffffffffffffffff021916908373ffffffffffffffffffffffffffffffffffffffff160217905550600382015481600301556004820160009054906101000a900467ffffffffffffffff168160040160006101000a81548167ffffffffffffffff021916908367ffffffffffffffff1602179055506004820160089054906101000a900467ffffffffffffffff168160040160086101000a81548167ffffffffffffffff021916908367ffffffffffffffff1602179055506004820160109054906101000a900467ffffffffffffffff168160040160106101000a81548167ffffffffffffffff021916908367ffffffffffffffff1602179055509050505b8180548062001a2c577f4e487b7100000000000000000000000000000000000000000000000000000000600052603160045260246000fd5b60019003818190600052602060002090600502016000808201600062001a53919062002756565b6001820160006101000a81549073ffffffffffffffffffffffffffffffffffffffff02191690556002820160006101000a81549073ffffffffffffffffffffffffffffffffffffffff021916905560038201600090556004820160006101000a81549067ffffffffffffffff02191690556004820160086101000a81549067ffffffffffffffff02191690556004820160106101000a81549067ffffffffffffffff02191690555050905562001b1a565b808062001b119062002b9c565b915050620016c2565b506000600660008473ffffffffffffffffffffffffffffffffffffffff1673ffffffffffffffffffffffffffffffffffffffff168152602001908152602001600020905060005b818054905081101562001fb9578473ffffffffffffffffffffffffffffffffffffffff1682828154811062001bbf577f4e487b7100000000000000000000000000000000000000000000000000000000600052603260045260246000fd5b906000526020600020906005020160010160009054906101000a900473ffffffffffffffffffffffffffffffffffffffff1673ffffffffffffffffffffffffffffffffffffffff16141562001fa3576001828054905062001c21919062002b14565b811462001e9357816001838054905062001c3c919062002b14565b8154811062001c74577f4e487b7100000000000000000000000000000000000000000000000000000000600052603260045260246000fd5b906000526020600020906005020182828154811062001cbc577f4e487b7100000000000000000000000000000000000000000000000000000000600052603260045260246000fd5b9060005260206000209060050201600082018160000190805462001ce09062002b66565b62001ced929190620026be565b506001820160009054906101000a900473ffffffffffffffffffffffffffffffffffffffff168160010160006101000a81548173ffffffffffffffffffffffffffffffffffffffff021916908373ffffffffffffffffffffffffffffffffffffffff1602179055506002820160009054906101000a900473ffffffffffffffffffffffffffffffffffffffff168160020160006101000a81548173ffffffffffffffffffffffffffffffffffffffff021916908373ffffffffffffffffffffffffffffffffffffffff160217905550600382015481600301556004820160009054906101000a900467ffffffffffffffff168160040160006101000a81548167ffffffffffffffff021916908367ffffffffffffffff1602179055506004820160089054906101000a900467ffffffffffffffff168160040160086101000a81548167ffffffffffffffff021916908367ffffffffffffffff1602179055506004820160109054906101000a900467ffffffffffffffff168160040160106101000a81548167ffffffffffffffff021916908367ffffffffffffffff1602179055509050505b8180548062001ecb577f4e487b7100000000000000000000000000000000000000000000000000000000600052603160045260246000fd5b60019003818190600052602060002090600502016000808201600062001ef2919062002756565b6001820160006101000a81549073ffffffffffffffffffffffffffffffffffffffff02191690556002820160006101000a81549073ffffffffffffffffffffffffffffffffffffffff021916905560038201600090556004820160006101000a81549067ffffffffffffffff02191690556004820160086101000a81549067ffffffffffffffff02191690556004820160106101000a81549067ffffffffffffffff02191690555050905562001fb9565b808062001fb09062002b9c565b91505062001b61565b5050505050565b600060056000836020015173ffffffffffffffffffffffffffffffffffffffff1673ffffffffffffffffffffffffffffffffffffffff168152602001908152602001600020905060005b8180549050811015620022f357826040015173ffffffffffffffffffffffffffffffffffffffff168282815481106200206c577f4e487b7100000000000000000000000000000000000000000000000000000000600052603260045260246000fd5b906000526020600020906005020160020160009054906101000a900473ffffffffffffffffffffffffffffffffffffffff1673ffffffffffffffffffffffffffffffffffffffff161415620022dd578260000151828281548110620020fa577f4e487b7100000000000000000000000000000000000000000000000000000000600052603260045260246000fd5b90600052602060002090600502016000019080519060200190620021209291906200262d565b50826060015182828154811062002160577f4e487b7100000000000000000000000000000000000000000000000000000000600052603260045260246000fd5b9060005260206000209060050201600301819055508260800151828281548110620021b4577f4e487b7100000000000000000000000000000000000000000000000000000000600052603260045260246000fd5b906000526020600020906005020160040160006101000a81548167ffffffffffffffff021916908367ffffffffffffffff1602179055508260a001518282815481106200222a577f4e487b7100000000000000000000000000000000000000000000000000000000600052603260045260246000fd5b906000526020600020906005020160040160086101000a81548167ffffffffffffffff021916908367ffffffffffffffff1602179055508260c00151828281548110620022a0577f4e487b7100000000000000000000000000000000000000000000000000000000600052603260045260246000fd5b906000526020600020906005020160040160106101000a81548167ffffffffffffffff021916908367ffffffffffffffff160217905550620022f3565b8080620022ea9062002b9c565b9150506200200a565b50600060066000846040015173ffffffffffffffffffffffffffffffffffffffff1673ffffffffffffffffffffffffffffffffffffffff168152602001908152602001600020905060005b81805490508110156200262757836020015173ffffffffffffffffffffffffffffffffffffffff16828281548110620023a0577f4e487b7100000000000000000000000000000000000000000000000000000000600052603260045260246000fd5b906000526020600020906005020160010160009054906101000a900473ffffffffffffffffffffffffffffffffffffffff1673ffffffffffffffffffffffffffffffffffffffff161415620026115783600001518282815481106200242e577f4e487b7100000000000000000000000000000000000000000000000000000000600052603260045260246000fd5b90600052602060002090600502016000019080519060200190620024549291906200262d565b50836060015182828154811062002494577f4e487b7100000000000000000000000000000000000000000000000000000000600052603260045260246000fd5b9060005260206000209060050201600301819055508360800151828281548110620024e8577f4e487b7100000000000000000000000000000000000000000000000000000000600052603260045260246000fd5b906000526020600020906005020160040160006101000a81548167ffffffffffffffff021916908367ffffffffffffffff1602179055508360a001518282815481106200255e577f4e487b7100000000000000000000000000000000000000000000000000000000600052603260045260246000fd5b906000526020600020906005020160040160086101000a81548167ffffffffffffffff021916908367ffffffffffffffff1602179055508360c00151828281548110620025d4577f4e487b7100000000000000000000000000000000000000000000000000000000600052603260045260246000fd5b906000526020600020906005020160040160106101000a81548167ffffffffffffffff021916908367ffffffffffffffff16021790555062002627565b80806200261e9062002b9c565b9150506200233e565b50505050565b8280546200263b9062002b66565b90600052602060002090601f0160209004810192826200265f5760008555620026ab565b82601f106200267a57805160ff1916838001178555620026ab565b82800160010185558215620026ab579182015b82811115620026aa5782518255916020019190600101906200268d565b5b509050620026ba91906200279c565b5090565b828054620026cc9062002b66565b90600052602060002090601f016020900481019282620026f0576000855562002743565b82601f1062002703578054855562002743565b828001600101855582156200274357600052602060002091601f016020900482015b828111156200274257825482559160010191906001019062002725565b5b5090506200275291906200279c565b5090565b508054620027649062002b66565b6000825580601f1062002778575062002799565b601f0160209004906000526020600020908101906200279891906200279c565b5b50565b5b80821115620027b75760008160009055506001016200279d565b5090565b600081519050620027cc8162002cad565b92915050565b600060208284031215620027e557600080fd5b6000620027f584828501620027bb565b91505092915050565b60006200280d601f8362002875565b91506200281a8262002c84565b602082019050919050565b620028308162002b4f565b82525050565b600060208201905081810360008301526200285181620027fe565b9050919050565b60006020820190506200286f600083018462002825565b92915050565b600082825260208201905092915050565b6000620028938262002b4f565b9150620028a08362002b4f565b9250827fffffffffffffffffffffffffffffffffffffffffffffffffffffffffffffffff03821115620028d857620028d762002bea565b5b828201905092915050565b6000620028f08262002b4f565b9150620028fd8362002b4f565b92508262002910576200290f62002c19565b5b828204905092915050565b6000808291508390505b60018511156200296d5780860481111562002945576200294462002bea565b5b6001851615620029555780820291505b8081029050620029658562002c77565b945062002925565b94509492505050565b6000620029838262002b4f565b9150620029908362002b59565b9250620029bf7fffffffffffffffffffffffffffffffffffffffffffffffffffffffffffffffff8484620029c7565b905092915050565b600082620029d9576001905062002aac565b81620029e9576000905062002aac565b816001811462002a02576002811462002a0d5762002a43565b600191505062002aac565b60ff84111562002a225762002a2162002bea565b5b8360020a91508482111562002a3c5762002a3b62002bea565b5b5062002aac565b5060208310610133831016604e8410600b841016171562002a7d5782820a90508381111562002a775762002a7662002bea565b5b62002aac565b62002a8c84848460016200291b565b9250905081840481111562002aa65762002aa562002bea565b5b81810290505b9392505050565b600062002ac08262002b4f565b915062002acd8362002b4f565b9250817fffffffffffffffffffffffffffffffffffffffffffffffffffffffffffffffff048311821515161562002b095762002b0862002bea565b5b828202905092915050565b600062002b218262002b4f565b915062002b2e8362002b4f565b92508282101562002b445762002b4362002bea565b5b828203905092915050565b6000819050919050565b600060ff82169050919050565b6000600282049050600182168062002b7f57607f821691505b6020821081141562002b965762002b9562002c48565b5b50919050565b600062002ba98262002b4f565b91507fffffffffffffffffffffffffffffffffffffffffffffffffffffffffffffffff82141562002bdf5762002bde62002bea565b5b600182019050919050565b7f4e487b7100000000000000000000000000000000000000000000000000000000600052601160045260246000fd5b7f4e487b7100000000000000000000000000000000000000000000000000000000600052601260045260246000fd5b7f4e487b7100000000000000000000000000000000000000000000000000000000600052602260045260246000fd5b60008160011c9050919050565b7f45524332303a206d696e7420746f20746865207a65726f206164647265737300600082015250565b62002cb88162002b4f565b811462002cc457600080fd5b50565b615c718062002cd76000396000f3fe608060405234801561001057600080fd5b506004361061014d5760003560e01c806370a08231116100c357806395d89b411161007c57806395d89b411461039c578063a457c2d7146103ba578063a9059cbb146103ea578063a987a7361461041a578063dd62ed3e14610436578063f2fde38b146104665761014d565b806370a08231146102dc578063715018a61461030c57806379cc6790146103165780638bede3a4146103325780638da5cb5b1461036257806392bad597146103805761014d565b80632f663c3d116101155780632f663c3d1461021e578063313ce5671461023a578063395093511461025857806340c10f191461028857806342966c68146102a4578063646842be146102c05761014d565b806306fdde0314610152578063095ea7b31461017057806318160ddd146101a057806323b872dd146101be5780632851b85d146101ee575b600080fd5b61015a610482565b604051610167919061512f565b60405180910390f35b61018a60048036038101906101859190614b3c565b610514565b6040516101979190615114565b60405180910390f35b6101a8610532565b6040516101b59190615331565b60405180910390f35b6101d860048036038101906101d39190614aed565b61053c565b6040516101e59190615114565b60405180910390f35b61020860048036038101906102039190614a88565b61063d565b60405161021591906150f2565b60405180910390f35b61023860048036038101906102339190614b78565b6108b9565b005b610242610b57565b60405161024f9190615383565b60405180910390f35b610272600480360381019061026d9190614b3c565b610b60565b60405161027f9190615114565b60405180910390f35b6102a2600480360381019061029d9190614b3c565b610c0c565b005b6102be60048036038101906102b99190614bb9565b610c96565b005b6102da60048036038101906102d59190614b78565b610caa565b005b6102f660048036038101906102f19190614a88565b610d04565b6040516103039190615331565b60405180910390f35b610314610d16565b005b610330600480360381019061032b9190614b3c565b610e53565b005b61034c60048036038101906103479190614a88565b610ed7565b60405161035991906150f2565b60405180910390f35b61036a611153565b60405161037791906150ae565b60405180910390f35b61039a60048036038101906103959190614b78565b61117d565b005b6103a46118d5565b6040516103b1919061512f565b60405180910390f35b6103d460048036038101906103cf9190614b3c565b611967565b6040516103e19190615114565b60405180910390f35b61040460048036038101906103ff9190614b3c565b611a5b565b6040516104119190615114565b60405180910390f35b610434600480360381019061042f9190614a88565b611a79565b005b610450600480360381019061044b9190614ab1565b611a8f565b60405161045d9190615331565b60405180910390f35b610480600480360381019061047b9190614a88565b611b16565b005b60606003805461049190615625565b80601f01602080910402602001604051908101604052809291908181526020018280546104bd90615625565b801561050a5780601f106104df5761010080835404028352916020019161050a565b820191906000526020600020905b8154815290600101906020018083116104ed57829003601f168201915b5050505050905090565b6000610528610521611ce0565b8484611ce8565b6001905092915050565b6000600254905090565b6000610549848484611eb3565b6000600160008673ffffffffffffffffffffffffffffffffffffffff1673ffffffffffffffffffffffffffffffffffffffff1681526020019081526020016000206000610594611ce0565b73ffffffffffffffffffffffffffffffffffffffff1673ffffffffffffffffffffffffffffffffffffffff16815260200190815260200160002054905082811015610614576040517f08c379a000000000000000000000000000000000000000000000000000000000815260040161060b90615211565b60405180910390fd5b61063185610620611ce0565b858461062c9190615546565b611ce8565b60019150509392505050565b6060600660008373ffffffffffffffffffffffffffffffffffffffff1673ffffffffffffffffffffffffffffffffffffffff168152602001908152602001600020805480602002602001604051908101604052809291908181526020016000905b828210156108ae57838290600052602060002090600502016040518060e00160405290816000820180546106d190615625565b80601f01602080910402602001604051908101604052809291908181526020018280546106fd90615625565b801561074a5780601f1061071f5761010080835404028352916020019161074a565b820191906000526020600020905b81548152906001019060200180831161072d57829003601f168201915b505050505081526020016001820160009054906101000a900473ffffffffffffffffffffffffffffffffffffffff1673ffffffffffffffffffffffffffffffffffffffff1673ffffffffffffffffffffffffffffffffffffffff1681526020016002820160009054906101000a900473ffffffffffffffffffffffffffffffffffffffff1673ffffffffffffffffffffffffffffffffffffffff1673ffffffffffffffffffffffffffffffffffffffff168152602001600382015481526020016004820160009054906101000a900467ffffffffffffffff1667ffffffffffffffff1667ffffffffffffffff1681526020016004820160089054906101000a900467ffffffffffffffff1667ffffffffffffffff1667ffffffffffffffff1681526020016004820160109054906101000a900467ffffffffffffffff1667ffffffffffffffff1667ffffffffffffffff16815250508152602001906001019061069e565b505050509050919050565b600181604001516000600560003373ffffffffffffffffffffffffffffffffffffffff1673ffffffffffffffffffffffffffffffffffffffff16815260200190815260200160002090506000805b82805490508110156109d3578373ffffffffffffffffffffffffffffffffffffffff16838281548110610963577f4e487b7100000000000000000000000000000000000000000000000000000000600052603260045260246000fd5b906000526020600020906005020160020160009054906101000a900473ffffffffffffffffffffffffffffffffffffffff1673ffffffffffffffffffffffffffffffffffffffff1614156109c05781806109bc90615688565b9250505b80806109cb90615688565b915050610907565b50808414610a16576040517f08c379a0000000000000000000000000000000000000000000000000000000008152600401610a0d906152d1565b60405180910390fd5b84604051602001610a2690615099565b604051602081830303815290604052805190602001208160000151604051602001610a519190615082565b6040516020818303038152906040528051906020012014610aa7576040517f08c379a0000000000000000000000000000000000000000000000000000000008152600401610a9e906151f1565b60405180910390fd5b600073ffffffffffffffffffffffffffffffffffffffff16816040015173ffffffffffffffffffffffffffffffffffffffff161415610ae557600080fd5b6000816060015111610af657600080fd5b6000816080015167ffffffffffffffff1611610b1157600080fd5b8060c0015167ffffffffffffffff168160a0015167ffffffffffffffff1610610b3957600080fd5b610b468660400151612132565b610b4f866133a3565b505050505050565b60006009905090565b6000610c02610b6d611ce0565b848460016000610b7b611ce0565b73ffffffffffffffffffffffffffffffffffffffff1673ffffffffffffffffffffffffffffffffffffffff16815260200190815260200160002060008873ffffffffffffffffffffffffffffffffffffffff1673ffffffffffffffffffffffffffffffffffffffff16815260200190815260200160002054610bfd9190615465565b611ce8565b6001905092915050565b610c14611ce0565b73ffffffffffffffffffffffffffffffffffffffff16610c32611153565b73ffffffffffffffffffffffffffffffffffffffff1614610c88576040517f08c379a0000000000000000000000000000000000000000000000000000000008152600401610c7f90615231565b60405180910390fd5b610c9282826139f4565b5050565b610ca7610ca1611ce0565b82613b48565b50565b3373ffffffffffffffffffffffffffffffffffffffff16816020015173ffffffffffffffffffffffffffffffffffffffff1614610ce657600080fd5b610cf38160400151612132565b610d01338260400151613d1c565b50565b6000610d0f82614636565b9050919050565b610d1e611ce0565b73ffffffffffffffffffffffffffffffffffffffff16610d3c611153565b73ffffffffffffffffffffffffffffffffffffffff1614610d92576040517f08c379a0000000000000000000000000000000000000000000000000000000008152600401610d8990615231565b60405180910390fd5b600073ffffffffffffffffffffffffffffffffffffffff16600760009054906101000a900473ffffffffffffffffffffffffffffffffffffffff1673ffffffffffffffffffffffffffffffffffffffff167f8be0079c531659141344cd1fd0a4f28419497f9722a3daafe3b4186f6b6457e060405160405180910390a36000600760006101000a81548173ffffffffffffffffffffffffffffffffffffffff021916908373ffffffffffffffffffffffffffffffffffffffff160217905550565b6000610e6683610e61611ce0565b611a8f565b905081811015610eab576040517f08c379a0000000000000000000000000000000000000000000000000000000008152600401610ea290615251565b60405180910390fd5b610ec883610eb7611ce0565b8484610ec39190615546565b611ce8565b610ed28383613b48565b505050565b6060600560008373ffffffffffffffffffffffffffffffffffffffff1673ffffffffffffffffffffffffffffffffffffffff168152602001908152602001600020805480602002602001604051908101604052809291908181526020016000905b8282101561114857838290600052602060002090600502016040518060e0016040529081600082018054610f6b90615625565b80601f0160208091040260200160405190810160405280929190818152602001828054610f9790615625565b8015610fe45780601f10610fb957610100808354040283529160200191610fe4565b820191906000526020600020905b815481529060010190602001808311610fc757829003601f168201915b505050505081526020016001820160009054906101000a900473ffffffffffffffffffffffffffffffffffffffff1673ffffffffffffffffffffffffffffffffffffffff1673ffffffffffffffffffffffffffffffffffffffff1681526020016002820160009054906101000a900473ffffffffffffffffffffffffffffffffffffffff1673ffffffffffffffffffffffffffffffffffffffff1673ffffffffffffffffffffffffffffffffffffffff168152602001600382015481526020016004820160009054906101000a900467ffffffffffffffff1667ffffffffffffffff1667ffffffffffffffff1681526020016004820160089054906101000a900467ffffffffffffffff1667ffffffffffffffff1667ffffffffffffffff1681526020016004820160109054906101000a900467ffffffffffffffff1667ffffffffffffffff1667ffffffffffffffff168152505081526020019060010190610f38565b505050509050919050565b6000600760009054906101000a900473ffffffffffffffffffffffffffffffffffffffff16905090565b600081604001516000600560003373ffffffffffffffffffffffffffffffffffffffff1673ffffffffffffffffffffffffffffffffffffffff16815260200190815260200160002090506000805b8280549050811015611297578373ffffffffffffffffffffffffffffffffffffffff16838281548110611227577f4e487b7100000000000000000000000000000000000000000000000000000000600052603260045260246000fd5b906000526020600020906005020160020160009054906101000a900473ffffffffffffffffffffffffffffffffffffffff1673ffffffffffffffffffffffffffffffffffffffff16141561128457818061128090615688565b9250505b808061128f90615688565b9150506111cb565b508084146112da576040517f08c379a00000000000000000000000000000000000000000000000000000000081526004016112d1906152d1565b60405180910390fd5b846040516020016112ea90615099565b6040516020818303038152906040528051906020012081600001516040516020016113159190615082565b604051602081830303815290604052805190602001201461136b576040517f08c379a0000000000000000000000000000000000000000000000000000000008152600401611362906151f1565b60405180910390fd5b600073ffffffffffffffffffffffffffffffffffffffff16816040015173ffffffffffffffffffffffffffffffffffffffff1614156113a957600080fd5b60008160600151116113ba57600080fd5b6000816080015167ffffffffffffffff16116113d557600080fd5b8060c0015167ffffffffffffffff168160a0015167ffffffffffffffff16106113fd57600080fd5b3373ffffffffffffffffffffffffffffffffffffffff16866020015173ffffffffffffffffffffffffffffffffffffffff161461143957600080fd5b6005806000886020015173ffffffffffffffffffffffffffffffffffffffff1673ffffffffffffffffffffffffffffffffffffffff16815260200190815260200160002080549050111561148c57600080fd5b60006040518060e0016040528088600001518152602001886020015173ffffffffffffffffffffffffffffffffffffffff168152602001886040015173ffffffffffffffffffffffffffffffffffffffff16815260200188606001518152602001886080015167ffffffffffffffff1681526020018860a0015167ffffffffffffffff1681526020018860c0015167ffffffffffffffff16815250905060056000886020015173ffffffffffffffffffffffffffffffffffffffff1673ffffffffffffffffffffffffffffffffffffffff16815260200190815260200160002081908060018154018082558091505060019003906000526020600020906005020160009091909190915060008201518160000190805190602001906115b2929190614794565b5060208201518160010160006101000a81548173ffffffffffffffffffffffffffffffffffffffff021916908373ffffffffffffffffffffffffffffffffffffffff16021790555060408201518160020160006101000a81548173ffffffffffffffffffffffffffffffffffffffff021916908373ffffffffffffffffffffffffffffffffffffffff1602179055506060820151816003015560808201518160040160006101000a81548167ffffffffffffffff021916908367ffffffffffffffff16021790555060a08201518160040160086101000a81548167ffffffffffffffff021916908367ffffffffffffffff16021790555060c08201518160040160106101000a81548167ffffffffffffffff021916908367ffffffffffffffff160217905550505060066000886040015173ffffffffffffffffffffffffffffffffffffffff1673ffffffffffffffffffffffffffffffffffffffff1681526020019081526020016000208190806001815401808255809150506001900390600052602060002090600502016000909190919091506000820151816000019080519060200190611763929190614794565b5060208201518160010160006101000a81548173ffffffffffffffffffffffffffffffffffffffff021916908373ffffffffffffffffffffffffffffffffffffffff16021790555060408201518160020160006101000a81548173ffffffffffffffffffffffffffffffffffffffff021916908373ffffffffffffffffffffffffffffffffffffffff1602179055506060820151816003015560808201518160040160006101000a81548167ffffffffffffffff021916908367ffffffffffffffff16021790555060a08201518160040160086101000a81548167ffffffffffffffff021916908367ffffffffffffffff16021790555060c08201518160040160106101000a81548167ffffffffffffffff021916908367ffffffffffffffff16021790555050507fd1bf06f8a82f858999d370c67575f4d4c5b2fef0499703246ad819d7823880df876020015188604001516040516118c49291906150c9565b60405180910390a150505050505050565b6060600480546118e490615625565b80601f016020809104026020016040519081016040528092919081815260200182805461191090615625565b801561195d5780601f106119325761010080835404028352916020019161195d565b820191906000526020600020905b81548152906001019060200180831161194057829003601f168201915b5050505050905090565b60008060016000611976611ce0565b73ffffffffffffffffffffffffffffffffffffffff1673ffffffffffffffffffffffffffffffffffffffff16815260200190815260200160002060008573ffffffffffffffffffffffffffffffffffffffff1673ffffffffffffffffffffffffffffffffffffffff16815260200190815260200160002054905082811015611a33576040517f08c379a0000000000000000000000000000000000000000000000000000000008152600401611a2a906152f1565b60405180910390fd5b611a50611a3e611ce0565b858584611a4b9190615546565b611ce8565b600191505092915050565b6000611a6f611a68611ce0565b8484611eb3565b6001905092915050565b611a8281612132565b611a8c3382613d1c565b50565b6000600160008473ffffffffffffffffffffffffffffffffffffffff1673ffffffffffffffffffffffffffffffffffffffff16815260200190815260200160002060008373ffffffffffffffffffffffffffffffffffffffff1673ffffffffffffffffffffffffffffffffffffffff16815260200190815260200160002054905092915050565b611b1e611ce0565b73ffffffffffffffffffffffffffffffffffffffff16611b3c611153565b73ffffffffffffffffffffffffffffffffffffffff1614611b92576040517f08c379a0000000000000000000000000000000000000000000000000000000008152600401611b8990615231565b60405180910390fd5b600073ffffffffffffffffffffffffffffffffffffffff168173ffffffffffffffffffffffffffffffffffffffff161415611c02576040517f08c379a0000000000000000000000000000000000000000000000000000000008152600401611bf990615191565b60405180910390fd5b8073ffffffffffffffffffffffffffffffffffffffff16600760009054906101000a900473ffffffffffffffffffffffffffffffffffffffff1673ffffffffffffffffffffffffffffffffffffffff167f8be0079c531659141344cd1fd0a4f28419497f9722a3daafe3b4186f6b6457e060405160405180910390a380600760006101000a81548173ffffffffffffffffffffffffffffffffffffffff021916908373ffffffffffffffffffffffffffffffffffffffff16021790555050565b611ccb83612132565b611cd6838383611cdb565b505050565b505050565b600033905090565b600073ffffffffffffffffffffffffffffffffffffffff168373ffffffffffffffffffffffffffffffffffffffff161415611d58576040517f08c379a0000000000000000000000000000000000000000000000000000000008152600401611d4f906152b1565b60405180910390fd5b600073ffffffffffffffffffffffffffffffffffffffff168273ffffffffffffffffffffffffffffffffffffffff161415611dc8576040517f08c379a0000000000000000000000000000000000000000000000000000000008152600401611dbf906151b1565b60405180910390fd5b80600160008573ffffffffffffffffffffffffffffffffffffffff1673ffffffffffffffffffffffffffffffffffffffff16815260200190815260200160002060008473ffffffffffffffffffffffffffffffffffffffff1673ffffffffffffffffffffffffffffffffffffffff168152602001908152602001600020819055508173ffffffffffffffffffffffffffffffffffffffff168373ffffffffffffffffffffffffffffffffffffffff167f8c5be1e5ebec7d5bd14f71427d1e84f3dd0314c0f7b2291e5b200ac8c7c3b92583604051611ea69190615331565b60405180910390a3505050565b600073ffffffffffffffffffffffffffffffffffffffff168373ffffffffffffffffffffffffffffffffffffffff161415611f23576040517f08c379a0000000000000000000000000000000000000000000000000000000008152600401611f1a90615291565b60405180910390fd5b600073ffffffffffffffffffffffffffffffffffffffff168273ffffffffffffffffffffffffffffffffffffffff161415611f93576040517f08c379a0000000000000000000000000000000000000000000000000000000008152600401611f8a90615151565b60405180910390fd5b611f9e838383614784565b60008060008573ffffffffffffffffffffffffffffffffffffffff1673ffffffffffffffffffffffffffffffffffffffff16815260200190815260200160002054905081811015612024576040517f08c379a000000000000000000000000000000000000000000000000000000000815260040161201b906151d1565b60405180910390fd5b81816120309190615546565b6000808673ffffffffffffffffffffffffffffffffffffffff1673ffffffffffffffffffffffffffffffffffffffff16815260200190815260200160002081905550816000808573ffffffffffffffffffffffffffffffffffffffff1673ffffffffffffffffffffffffffffffffffffffff16815260200190815260200160002060008282546120c09190615465565b925050819055508273ffffffffffffffffffffffffffffffffffffffff168473ffffffffffffffffffffffffffffffffffffffff167fddf252ad1be2c89b69c2b068fc378daa952ba7f163c4a11628f55a4df523b3ef846040516121249190615331565b60405180910390a350505050565b6000600660008373ffffffffffffffffffffffffffffffffffffffff1673ffffffffffffffffffffffffffffffffffffffff168152602001908152602001600020905060005b8180549050811015612a67578181815481106121bd577f4e487b7100000000000000000000000000000000000000000000000000000000600052603260045260246000fd5b906000526020600020906005020160040160109054906101000a900467ffffffffffffffff1667ffffffffffffffff16828281548110612226577f4e487b7100000000000000000000000000000000000000000000000000000000600052603260045260246000fd5b906000526020600020906005020160040160089054906101000a900467ffffffffffffffff1667ffffffffffffffff161061228a577f4e487b7100000000000000000000000000000000000000000000000000000000600052600160045260246000fd5b8181815481106122c3577f4e487b7100000000000000000000000000000000000000000000000000000000600052603260045260246000fd5b906000526020600020906005020160040160089054906101000a900467ffffffffffffffff1667ffffffffffffffff16421115612a5457600042838381548110612336577f4e487b7100000000000000000000000000000000000000000000000000000000600052603260045260246000fd5b906000526020600020906005020160040160109054906101000a900467ffffffffffffffff1667ffffffffffffffff161061237157426123db565b8282815481106123aa577f4e487b7100000000000000000000000000000000000000000000000000000000600052603260045260246000fd5b906000526020600020906005020160040160109054906101000a900467ffffffffffffffff1667ffffffffffffffff165b90506000838381548110612418577f4e487b7100000000000000000000000000000000000000000000000000000000600052603260045260246000fd5b906000526020600020906005020160040160089054906101000a900467ffffffffffffffff1667ffffffffffffffff16826124539190615546565b90506000848481548110612490577f4e487b7100000000000000000000000000000000000000000000000000000000600052603260045260246000fd5b906000526020600020906005020160040160009054906101000a900467ffffffffffffffff1667ffffffffffffffff16828686815481106124fa577f4e487b7100000000000000000000000000000000000000000000000000000000600052603260045260246000fd5b90600052602060002090600502016003015461251691906154ec565b61252091906154bb565b9050806000808873ffffffffffffffffffffffffffffffffffffffff1673ffffffffffffffffffffffffffffffffffffffff16815260200190815260200160002060008282546125709190615465565b92505081905550806000808787815481106125b4577f4e487b7100000000000000000000000000000000000000000000000000000000600052603260045260246000fd5b906000526020600020906005020160010160009054906101000a900473ffffffffffffffffffffffffffffffffffffffff1673ffffffffffffffffffffffffffffffffffffffff1673ffffffffffffffffffffffffffffffffffffffff168152602001908152602001600020600082825461262f9190615546565b9250508190555084848154811061266f577f4e487b7100000000000000000000000000000000000000000000000000000000600052603260045260246000fd5b906000526020600020906005020160040160109054906101000a900467ffffffffffffffff1667ffffffffffffffff16831061271e57612719868686815481106126e2577f4e487b7100000000000000000000000000000000000000000000000000000000600052603260045260246000fd5b906000526020600020906005020160010160009054906101000a900473ffffffffffffffffffffffffffffffffffffffff16613d1c565b612a50565b612a4f6040518060e00160405280878781548110612765577f4e487b7100000000000000000000000000000000000000000000000000000000600052603260045260246000fd5b9060005260206000209060050201600001805461278190615625565b80601f01602080910402602001604051908101604052809291908181526020018280546127ad90615625565b80156127fa5780601f106127cf576101008083540402835291602001916127fa565b820191906000526020600020905b8154815290600101906020018083116127dd57829003601f168201915b5050505050815260200187878154811061283d577f4e487b7100000000000000000000000000000000000000000000000000000000600052603260045260246000fd5b906000526020600020906005020160010160009054906101000a900473ffffffffffffffffffffffffffffffffffffffff1673ffffffffffffffffffffffffffffffffffffffff1681526020018787815481106128c3577f4e487b7100000000000000000000000000000000000000000000000000000000600052603260045260246000fd5b906000526020600020906005020160020160009054906101000a900473ffffffffffffffffffffffffffffffffffffffff1673ffffffffffffffffffffffffffffffffffffffff168152602001878781548110612949577f4e487b7100000000000000000000000000000000000000000000000000000000600052603260045260246000fd5b9060005260206000209060050201600301548152602001878781548110612999577f4e487b7100000000000000000000000000000000000000000000000000000000600052603260045260246000fd5b906000526020600020906005020160040160009054906101000a900467ffffffffffffffff1667ffffffffffffffff1681526020018567ffffffffffffffff168152602001878781548110612a17577f4e487b7100000000000000000000000000000000000000000000000000000000600052603260045260246000fd5b906000526020600020906005020160040160109054906101000a900467ffffffffffffffff1667ffffffffffffffff168152506133a3565b5b5050505b8080612a5f90615688565b915050612178565b506000600560008473ffffffffffffffffffffffffffffffffffffffff1673ffffffffffffffffffffffffffffffffffffffff168152602001908152602001600020905060005b818054905081101561339d57818181548110612af3577f4e487b7100000000000000000000000000000000000000000000000000000000600052603260045260246000fd5b906000526020600020906005020160040160109054906101000a900467ffffffffffffffff1667ffffffffffffffff16828281548110612b5c577f4e487b7100000000000000000000000000000000000000000000000000000000600052603260045260246000fd5b906000526020600020906005020160040160089054906101000a900467ffffffffffffffff1667ffffffffffffffff1610612bc0577f4e487b7100000000000000000000000000000000000000000000000000000000600052600160045260246000fd5b818181548110612bf9577f4e487b7100000000000000000000000000000000000000000000000000000000600052603260045260246000fd5b906000526020600020906005020160040160089054906101000a900467ffffffffffffffff1667ffffffffffffffff1642111561338a57600042838381548110612c6c577f4e487b7100000000000000000000000000000000000000000000000000000000600052603260045260246000fd5b906000526020600020906005020160040160109054906101000a900467ffffffffffffffff1667ffffffffffffffff1610612ca75742612d11565b828281548110612ce0577f4e487b7100000000000000000000000000000000000000000000000000000000600052603260045260246000fd5b906000526020600020906005020160040160109054906101000a900467ffffffffffffffff1667ffffffffffffffff165b90506000838381548110612d4e577f4e487b7100000000000000000000000000000000000000000000000000000000600052603260045260246000fd5b906000526020600020906005020160040160089054906101000a900467ffffffffffffffff1667ffffffffffffffff1682612d899190615546565b90506000848481548110612dc6577f4e487b7100000000000000000000000000000000000000000000000000000000600052603260045260246000fd5b906000526020600020906005020160040160009054906101000a900467ffffffffffffffff1667ffffffffffffffff1682868681548110612e30577f4e487b7100000000000000000000000000000000000000000000000000000000600052603260045260246000fd5b906000526020600020906005020160030154612e4c91906154ec565b612e5691906154bb565b9050806000808973ffffffffffffffffffffffffffffffffffffffff1673ffffffffffffffffffffffffffffffffffffffff1681526020019081526020016000206000828254612ea69190615546565b9250508190555080600080878781548110612eea577f4e487b7100000000000000000000000000000000000000000000000000000000600052603260045260246000fd5b906000526020600020906005020160020160009054906101000a900473ffffffffffffffffffffffffffffffffffffffff1673ffffffffffffffffffffffffffffffffffffffff1673ffffffffffffffffffffffffffffffffffffffff1681526020019081526020016000206000828254612f659190615465565b92505081905550848481548110612fa5577f4e487b7100000000000000000000000000000000000000000000000000000000600052603260045260246000fd5b906000526020600020906005020160040160109054906101000a900467ffffffffffffffff1667ffffffffffffffff1683106130545761304f87868681548110613018577f4e487b7100000000000000000000000000000000000000000000000000000000600052603260045260246000fd5b906000526020600020906005020160010160009054906101000a900473ffffffffffffffffffffffffffffffffffffffff16613d1c565b613386565b6133856040518060e0016040528087878154811061309b577f4e487b7100000000000000000000000000000000000000000000000000000000600052603260045260246000fd5b906000526020600020906005020160000180546130b790615625565b80601f01602080910402602001604051908101604052809291908181526020018280546130e390615625565b80156131305780601f1061310557610100808354040283529160200191613130565b820191906000526020600020905b81548152906001019060200180831161311357829003601f168201915b50505050508152602001878781548110613173577f4e487b7100000000000000000000000000000000000000000000000000000000600052603260045260246000fd5b906000526020600020906005020160010160009054906101000a900473ffffffffffffffffffffffffffffffffffffffff1673ffffffffffffffffffffffffffffffffffffffff1681526020018787815481106131f9577f4e487b7100000000000000000000000000000000000000000000000000000000600052603260045260246000fd5b906000526020600020906005020160020160009054906101000a900473ffffffffffffffffffffffffffffffffffffffff1673ffffffffffffffffffffffffffffffffffffffff16815260200187878154811061327f577f4e487b7100000000000000000000000000000000000000000000000000000000600052603260045260246000fd5b90600052602060002090600502016003015481526020018787815481106132cf577f4e487b7100000000000000000000000000000000000000000000000000000000600052603260045260246000fd5b906000526020600020906005020160040160009054906101000a900467ffffffffffffffff1667ffffffffffffffff1681526020018567ffffffffffffffff16815260200187878154811061334d577f4e487b7100000000000000000000000000000000000000000000000000000000600052603260045260246000fd5b906000526020600020906005020160040160109054906101000a900467ffffffffffffffff1667ffffffffffffffff168152506133a3565b5b5050505b808061339590615688565b915050612aae565b50505050565b600060056000836020015173ffffffffffffffffffffffffffffffffffffffff1673ffffffffffffffffffffffffffffffffffffffff168152602001908152602001600020905060005b81805490508110156136c857826040015173ffffffffffffffffffffffffffffffffffffffff1682828154811061344d577f4e487b7100000000000000000000000000000000000000000000000000000000600052603260045260246000fd5b906000526020600020906005020160020160009054906101000a900473ffffffffffffffffffffffffffffffffffffffff1673ffffffffffffffffffffffffffffffffffffffff1614156136b55782600001518282815481106134d9577f4e487b7100000000000000000000000000000000000000000000000000000000600052603260045260246000fd5b906000526020600020906005020160000190805190602001906134fd929190614794565b50826060015182828154811061353c577f4e487b7100000000000000000000000000000000000000000000000000000000600052603260045260246000fd5b906000526020600020906005020160030181905550826080015182828154811061358f577f4e487b7100000000000000000000000000000000000000000000000000000000600052603260045260246000fd5b906000526020600020906005020160040160006101000a81548167ffffffffffffffff021916908367ffffffffffffffff1602179055508260a00151828281548110613604577f4e487b7100000000000000000000000000000000000000000000000000000000600052603260045260246000fd5b906000526020600020906005020160040160086101000a81548167ffffffffffffffff021916908367ffffffffffffffff1602179055508260c00151828281548110613679577f4e487b7100000000000000000000000000000000000000000000000000000000600052603260045260246000fd5b906000526020600020906005020160040160106101000a81548167ffffffffffffffff021916908367ffffffffffffffff1602179055506136c8565b80806136c090615688565b9150506133ed565b50600060066000846040015173ffffffffffffffffffffffffffffffffffffffff1673ffffffffffffffffffffffffffffffffffffffff168152602001908152602001600020905060005b81805490508110156139ee57836020015173ffffffffffffffffffffffffffffffffffffffff16828281548110613773577f4e487b7100000000000000000000000000000000000000000000000000000000600052603260045260246000fd5b906000526020600020906005020160010160009054906101000a900473ffffffffffffffffffffffffffffffffffffffff1673ffffffffffffffffffffffffffffffffffffffff1614156139db5783600001518282815481106137ff577f4e487b7100000000000000000000000000000000000000000000000000000000600052603260045260246000fd5b90600052602060002090600502016000019080519060200190613823929190614794565b508360600151828281548110613862577f4e487b7100000000000000000000000000000000000000000000000000000000600052603260045260246000fd5b90600052602060002090600502016003018190555083608001518282815481106138b5577f4e487b7100000000000000000000000000000000000000000000000000000000600052603260045260246000fd5b906000526020600020906005020160040160006101000a81548167ffffffffffffffff021916908367ffffffffffffffff1602179055508360a0015182828154811061392a577f4e487b7100000000000000000000000000000000000000000000000000000000600052603260045260246000fd5b906000526020600020906005020160040160086101000a81548167ffffffffffffffff021916908367ffffffffffffffff1602179055508360c0015182828154811061399f577f4e487b7100000000000000000000000000000000000000000000000000000000600052603260045260246000fd5b906000526020600020906005020160040160106101000a81548167ffffffffffffffff021916908367ffffffffffffffff1602179055506139ee565b80806139e690615688565b915050613713565b50505050565b600073ffffffffffffffffffffffffffffffffffffffff168273ffffffffffffffffffffffffffffffffffffffff161415613a64576040517f08c379a0000000000000000000000000000000000000000000000000000000008152600401613a5b90615311565b60405180910390fd5b613a7060008383614784565b8060026000828254613a829190615465565b92505081905550806000808473ffffffffffffffffffffffffffffffffffffffff1673ffffffffffffffffffffffffffffffffffffffff1681526020019081526020016000206000828254613ad79190615465565b925050819055508173ffffffffffffffffffffffffffffffffffffffff16600073ffffffffffffffffffffffffffffffffffffffff167fddf252ad1be2c89b69c2b068fc378daa952ba7f163c4a11628f55a4df523b3ef83604051613b3c9190615331565b60405180910390a35050565b600073ffffffffffffffffffffffffffffffffffffffff168273ffffffffffffffffffffffffffffffffffffffff161415613bb8576040517f08c379a0000000000000000000000000000000000000000000000000000000008152600401613baf90615271565b60405180910390fd5b613bc482600083614784565b60008060008473ffffffffffffffffffffffffffffffffffffffff1673ffffffffffffffffffffffffffffffffffffffff16815260200190815260200160002054905081811015613c4a576040517f08c379a0000000000000000000000000000000000000000000000000000000008152600401613c4190615171565b60405180910390fd5b8181613c569190615546565b6000808573ffffffffffffffffffffffffffffffffffffffff1673ffffffffffffffffffffffffffffffffffffffff168152602001908152602001600020819055508160026000828254613caa9190615546565b92505081905550600073ffffffffffffffffffffffffffffffffffffffff168373ffffffffffffffffffffffffffffffffffffffff167fddf252ad1be2c89b69c2b068fc378daa952ba7f163c4a11628f55a4df523b3ef84604051613d0f9190615331565b60405180910390a3505050565b6000600560008473ffffffffffffffffffffffffffffffffffffffff1673ffffffffffffffffffffffffffffffffffffffff168152602001908152602001600020905060005b81805490508110156141a5578273ffffffffffffffffffffffffffffffffffffffff16828281548110613dbe577f4e487b7100000000000000000000000000000000000000000000000000000000600052603260045260246000fd5b906000526020600020906005020160020160009054906101000a900473ffffffffffffffffffffffffffffffffffffffff1673ffffffffffffffffffffffffffffffffffffffff1614156141925760018280549050613e1d9190615546565b8114614086578160018380549050613e359190615546565b81548110613e6c577f4e487b7100000000000000000000000000000000000000000000000000000000600052603260045260246000fd5b9060005260206000209060050201828281548110613eb3577f4e487b7100000000000000000000000000000000000000000000000000000000600052603260045260246000fd5b90600052602060002090600502016000820181600001908054613ed590615625565b613ee092919061481a565b506001820160009054906101000a900473ffffffffffffffffffffffffffffffffffffffff168160010160006101000a81548173ffffffffffffffffffffffffffffffffffffffff021916908373ffffffffffffffffffffffffffffffffffffffff1602179055506002820160009054906101000a900473ffffffffffffffffffffffffffffffffffffffff168160020160006101000a81548173ffffffffffffffffffffffffffffffffffffffff021916908373ffffffffffffffffffffffffffffffffffffffff160217905550600382015481600301556004820160009054906101000a900467ffffffffffffffff168160040160006101000a81548167ffffffffffffffff021916908367ffffffffffffffff1602179055506004820160089054906101000a900467ffffffffffffffff168160040160086101000a81548167ffffffffffffffff021916908367ffffffffffffffff1602179055506004820160109054906101000a900467ffffffffffffffff168160040160106101000a81548167ffffffffffffffff021916908367ffffffffffffffff1602179055509050505b818054806140bd577f4e487b7100000000000000000000000000000000000000000000000000000000600052603160045260246000fd5b6001900381819060005260206000209060050201600080820160006140e291906148a7565b6001820160006101000a81549073ffffffffffffffffffffffffffffffffffffffff02191690556002820160006101000a81549073ffffffffffffffffffffffffffffffffffffffff021916905560038201600090556004820160006101000a81549067ffffffffffffffff02191690556004820160086101000a81549067ffffffffffffffff02191690556004820160106101000a81549067ffffffffffffffff0219169055505090556141a5565b808061419d90615688565b915050613d62565b506000600660008473ffffffffffffffffffffffffffffffffffffffff1673ffffffffffffffffffffffffffffffffffffffff168152602001908152602001600020905060005b818054905081101561462f578473ffffffffffffffffffffffffffffffffffffffff16828281548110614248577f4e487b7100000000000000000000000000000000000000000000000000000000600052603260045260246000fd5b906000526020600020906005020160010160009054906101000a900473ffffffffffffffffffffffffffffffffffffffff1673ffffffffffffffffffffffffffffffffffffffff16141561461c57600182805490506142a79190615546565b81146145105781600183805490506142bf9190615546565b815481106142f6577f4e487b7100000000000000000000000000000000000000000000000000000000600052603260045260246000fd5b906000526020600020906005020182828154811061433d577f4e487b7100000000000000000000000000000000000000000000000000000000600052603260045260246000fd5b9060005260206000209060050201600082018160000190805461435f90615625565b61436a92919061481a565b506001820160009054906101000a900473ffffffffffffffffffffffffffffffffffffffff168160010160006101000a81548173ffffffffffffffffffffffffffffffffffffffff021916908373ffffffffffffffffffffffffffffffffffffffff1602179055506002820160009054906101000a900473ffffffffffffffffffffffffffffffffffffffff168160020160006101000a81548173ffffffffffffffffffffffffffffffffffffffff021916908373ffffffffffffffffffffffffffffffffffffffff160217905550600382015481600301556004820160009054906101000a900467ffffffffffffffff168160040160006101000a81548167ffffffffffffffff021916908367ffffffffffffffff1602179055506004820160089054906101000a900467ffffffffffffffff168160040160086101000a81548167ffffffffffffffff021916908367ffffffffffffffff1602179055506004820160109054906101000a900467ffffffffffffffff168160040160106101000a81548167ffffffffffffffff021916908367ffffffffffffffff1602179055509050505b81805480614547577f4e487b7100000000000000000000000000000000000000000000000000000000600052603160045260246000fd5b60019003818190600052602060002090600502016000808201600061456c91906148a7565b6001820160006101000a81549073ffffffffffffffffffffffffffffffffffffffff02191690556002820160006101000a81549073ffffffffffffffffffffffffffffffffffffffff021916905560038201600090556004820160006101000a81549067ffffffffffffffff02191690556004820160086101000a81549067ffffffffffffffff02191690556004820160106101000a81549067ffffffffffffffff02191690555050905561462f565b808061462790615688565b9150506141ec565b5050505050565b600073__HelperLibrary_________________________63c3886de76000808573ffffffffffffffffffffffffffffffffffffffff1673ffffffffffffffffffffffffffffffffffffffff16815260200190815260200160002054600660008673ffffffffffffffffffffffffffffffffffffffff1673ffffffffffffffffffffffffffffffffffffffff168152602001908152602001600020600560008773ffffffffffffffffffffffffffffffffffffffff1673ffffffffffffffffffffffffffffffffffffffff1681526020019081526020016000206040518463ffffffff1660e01b815260040161472d9392919061534c565b60206040518083038186803b15801561474557600080fd5b505af4158015614759573d6000803e3d6000fd5b505050506040513d601f19601f8201168201806040525081019061477d9190614be2565b9050919050565b61478f838383611cc2565b505050565b8280546147a090615625565b90600052602060002090601f0160209004810192826147c25760008555614809565b82601f106147db57805160ff1916838001178555614809565b82800160010185558215614809579182015b828111156148085782518255916020019190600101906147ed565b5b50905061481691906148e7565b5090565b82805461482690615625565b90600052602060002090601f0160209004810192826148485760008555614896565b82601f106148595780548555614896565b8280016001018555821561489657600052602060002091601f016020900482015b8281111561489557825482559160010191906001019061487a565b5b5090506148a391906148e7565b5090565b5080546148b390615625565b6000825580601f106148c557506148e4565b601f0160209004906000526020600020908101906148e391906148e7565b5b50565b5b808211156149005760008160009055506001016148e8565b5090565b6000614917614912846153c3565b61539e565b90508281526020810184848401111561492f57600080fd5b61493a8482856155e3565b509392505050565b60008135905061495181615bf6565b92915050565b600082601f83011261496857600080fd5b8135614978848260208601614904565b91505092915050565b600060e0828403121561499357600080fd5b61499d60e061539e565b9050600082013567ffffffffffffffff8111156149b957600080fd5b6149c584828501614957565b60008301525060206149d984828501614942565b60208301525060406149ed84828501614942565b6040830152506060614a0184828501614a49565b6060830152506080614a1584828501614a73565b60808301525060a0614a2984828501614a73565b60a08301525060c0614a3d84828501614a73565b60c08301525092915050565b600081359050614a5881615c0d565b92915050565b600081519050614a6d81615c0d565b92915050565b600081359050614a8281615c24565b92915050565b600060208284031215614a9a57600080fd5b6000614aa884828501614942565b91505092915050565b60008060408385031215614ac457600080fd5b6000614ad285828601614942565b9250506020614ae385828601614942565b9150509250929050565b600080600060608486031215614b0257600080fd5b6000614b1086828701614942565b9350506020614b2186828701614942565b9250506040614b3286828701614a49565b9150509250925092565b60008060408385031215614b4f57600080fd5b6000614b5d85828601614942565b9250506020614b6e85828601614a49565b9150509250929050565b600060208284031215614b8a57600080fd5b600082013567ffffffffffffffff811115614ba457600080fd5b614bb084828501614981565b91505092915050565b600060208284031215614bcb57600080fd5b6000614bd984828501614a49565b91505092915050565b600060208284031215614bf457600080fd5b6000614c0284828501614a5e565b91505092915050565b6000614c178383614f9b565b905092915050565b614c288161557a565b82525050565b614c378161557a565b82525050565b6000614c4882615404565b614c528185615427565b935083602082028501614c64856153f4565b8060005b85811015614ca05784840389528151614c818582614c0b565b9450614c8c8361541a565b925060208a01995050600181019050614c68565b50829750879550505050505092915050565b8082525050565b614cc28161558c565b82525050565b6000614cd38261540f565b614cdd8185615438565b9350614ced8185602086016155f2565b614cf68161578d565b840191505092915050565b6000614d0c8261540f565b614d168185615449565b9350614d268185602086016155f2565b614d2f8161578d565b840191505092915050565b6000614d458261540f565b614d4f818561545a565b9350614d5f8185602086016155f2565b80840191505092915050565b6000614d78602383615449565b9150614d838261579e565b604082019050919050565b6000614d9b602283615449565b9150614da6826157ed565b604082019050919050565b6000614dbe602683615449565b9150614dc98261583c565b604082019050919050565b6000614de1602283615449565b9150614dec8261588b565b604082019050919050565b6000614e04602683615449565b9150614e0f826158da565b604082019050919050565b6000614e2760078361545a565b9150614e3282615929565b600782019050919050565b6000614e4a601f83615449565b9150614e5582615952565b602082019050919050565b6000614e6d602883615449565b9150614e788261597b565b604082019050919050565b6000614e90602083615449565b9150614e9b826159ca565b602082019050919050565b6000614eb3602483615449565b9150614ebe826159f3565b604082019050919050565b6000614ed6602183615449565b9150614ee182615a42565b604082019050919050565b6000614ef9602583615449565b9150614f0482615a91565b604082019050919050565b6000614f1c602483615449565b9150614f2782615ae0565b604082019050919050565b6000614f3f602383615449565b9150614f4a82615b2f565b604082019050919050565b6000614f62602583615449565b9150614f6d82615b7e565b604082019050919050565b6000614f85601f83615449565b9150614f9082615bcd565b602082019050919050565b600060e0830160008301518482036000860152614fb88282614cc8565b9150506020830151614fcd6020860182614c1f565b506040830151614fe06040860182614c1f565b506060830151614ff36060860182615037565b5060808301516150066080860182615064565b5060a083015161501960a0860182615064565b5060c083015161502c60c0860182615064565b508091505092915050565b615040816155b8565b82525050565b61504f816155b8565b82525050565b61505e816155b8565b82525050565b61506d816155c2565b82525050565b61507c816155d6565b82525050565b600061508e8284614d3a565b915081905092915050565b60006150a482614e1a565b9150819050919050565b60006020820190506150c36000830184614c2e565b92915050565b60006040820190506150de6000830185614c2e565b6150eb6020830184614c2e565b9392505050565b6000602082019050818103600083015261510c8184614c3d565b905092915050565b60006020820190506151296000830184614cb9565b92915050565b600060208201905081810360008301526151498184614d01565b905092915050565b6000602082019050818103600083015261516a81614d6b565b9050919050565b6000602082019050818103600083015261518a81614d8e565b9050919050565b600060208201905081810360008301526151aa81614db1565b9050919050565b600060208201905081810360008301526151ca81614dd4565b9050919050565b600060208201905081810360008301526151ea81614df7565b9050919050565b6000602082019050818103600083015261520a81614e3d565b9050919050565b6000602082019050818103600083015261522a81614e60565b9050919050565b6000602082019050818103600083015261524a81614e83565b9050919050565b6000602082019050818103600083015261526a81614ea6565b9050919050565b6000602082019050818103600083015261528a81614ec9565b9050919050565b600060208201905081810360008301526152aa81614eec565b9050919050565b600060208201905081810360008301526152ca81614f0f565b9050919050565b600060208201905081810360008301526152ea81614f32565b9050919050565b6000602082019050818103600083015261530a81614f55565b9050919050565b6000602082019050818103600083015261532a81614f78565b9050919050565b60006020820190506153466000830184615046565b92915050565b60006060820190506153616000830186615055565b61536e6020830185614cb2565b61537b6040830184614cb2565b949350505050565b60006020820190506153986000830184615073565b92915050565b60006153a86153b9565b90506153b48282615657565b919050565b6000604051905090565b600067ffffffffffffffff8211156153de576153dd61575e565b5b6153e78261578d565b9050602081019050919050565b6000819050602082019050919050565b600081519050919050565b600081519050919050565b6000602082019050919050565b600082825260208201905092915050565b600082825260208201905092915050565b600082825260208201905092915050565b600081905092915050565b6000615470826155b8565b915061547b836155b8565b9250827fffffffffffffffffffffffffffffffffffffffffffffffffffffffffffffffff038211156154b0576154af6156d1565b5b828201905092915050565b60006154c6826155b8565b91506154d1836155b8565b9250826154e1576154e0615700565b5b828204905092915050565b60006154f7826155b8565b9150615502836155b8565b9250817fffffffffffffffffffffffffffffffffffffffffffffffffffffffffffffffff048311821515161561553b5761553a6156d1565b5b828202905092915050565b6000615551826155b8565b915061555c836155b8565b92508282101561556f5761556e6156d1565b5b828203905092915050565b600061558582615598565b9050919050565b60008115159050919050565b600073ffffffffffffffffffffffffffffffffffffffff82169050919050565b6000819050919050565b600067ffffffffffffffff82169050919050565b600060ff82169050919050565b82818337600083830152505050565b60005b838110156156105780820151818401526020810190506155f5565b8381111561561f576000848401525b50505050565b6000600282049050600182168061563d57607f821691505b602082108114156156515761565061572f565b5b50919050565b6156608261578d565b810181811067ffffffffffffffff8211171561567f5761567e61575e565b5b80604052505050565b6000615693826155b8565b91507fffffffffffffffffffffffffffffffffffffffffffffffffffffffffffffffff8214156156c6576156c56156d1565b5b600182019050919050565b7f4e487b7100000000000000000000000000000000000000000000000000000000600052601160045260246000fd5b7f4e487b7100000000000000000000000000000000000000000000000000000000600052601260045260246000fd5b7f4e487b7100000000000000000000000000000000000000000000000000000000600052602260045260246000fd5b7f4e487b7100000000000000000000000000000000000000000000000000000000600052604160045260246000fd5b6000601f19601f8301169050919050565b7f45524332303a207472616e7366657220746f20746865207a65726f206164647260008201527f6573730000000000000000000000000000000000000000000000000000000000602082015250565b7f45524332303a206275726e20616d6f756e7420657863656564732062616c616e60008201527f6365000000000000000000000000000000000000000000000000000000000000602082015250565b7f4f776e61626c653a206e6577206f776e657220697320746865207a65726f206160008201527f6464726573730000000000000000000000000000000000000000000000000000602082015250565b7f45524332303a20617070726f766520746f20746865207a65726f20616464726560008201527f7373000000000000000000000000000000000000000000000000000000000000602082015250565b7f45524332303a207472616e7366657220616d6f756e742065786365656473206260008201527f616c616e63650000000000000000000000000000000000000000000000000000602082015250565b7f636c617373696300000000000000000000000000000000000000000000000000600082015250565b7f496e76616c69642074797065206f66206f70656e2073747265616d696e677300600082015250565b7f45524332303a207472616e7366657220616d6f756e742065786365656473206160008201527f6c6c6f77616e6365000000000000000000000000000000000000000000000000602082015250565b7f4f776e61626c653a2063616c6c6572206973206e6f7420746865206f776e6572600082015250565b7f45524332303a206275726e20616d6f756e74206578636565647320616c6c6f7760008201527f616e636500000000000000000000000000000000000000000000000000000000602082015250565b7f45524332303a206275726e2066726f6d20746865207a65726f2061646472657360008201527f7300000000000000000000000000000000000000000000000000000000000000602082015250565b7f45524332303a207472616e736665722066726f6d20746865207a65726f20616460008201527f6472657373000000000000000000000000000000000000000000000000000000602082015250565b7f45524332303a20617070726f76652066726f6d20746865207a65726f2061646460008201527f7265737300000000000000000000000000000000000000000000000000000000602082015250565b7f496e636f7272656374206e756d626572206f66206f70656e2073747265616d6960008201527f6e67730000000000000000000000000000000000000000000000000000000000602082015250565b7f45524332303a2064656372656173656420616c6c6f77616e63652062656c6f7760008201527f207a65726f000000000000000000000000000000000000000000000000000000602082015250565b7f45524332303a206d696e7420746f20746865207a65726f206164647265737300600082015250565b615bff8161557a565b8114615c0a57600080fd5b50565b615c16816155b8565b8114615c2157600080fd5b50565b615c2d816155c2565b8114615c3857600080fd5b5056fea2646970667358221220f993bbd18294585047529867f1a87aa5f677b11e8587a77a4560e9f933ecc62664736f6c63430008010033",
  "immutableReferences": {},
  "source": "// SPDX-License-Identifier: MIT\npragma solidity ^0.8.0;\n\nimport \"@openzeppelin/contracts/access/Ownable.sol\";\nimport \"./ERC20Burnable.sol\";\nimport \"./ERC20Streamable.sol\";\n\ncontract PriviTestToken is ERC20_, ERC20Burnable_, ERC20Streamable, Ownable {\n    constructor(uint256 initialSupply) ERC20_(\"PriviTestToken\", \"PTT\") {\n        // default decimals: 9\n        _mint(msg.sender, initialSupply * 10**decimals());\n    }\n\n    // allow to increment the totalSupply by minting\n    function mint(address to, uint256 amount) public onlyOwner {\n        _mint(to, amount);\n    }\n\n    function decimals() public pure override returns (uint8) {\n        return 9;\n    }\n\n    function balanceOf(address account)\n        public\n        view\n        override(ERC20_, ERC20Streamable)\n        returns (uint256)\n    {\n        return ERC20Streamable.balanceOf(account);\n    }\n\n    // Implementing the pausing mechanism through this hook\n    function _beforeTokenTransfer(\n        address from,\n        address to,\n        uint256 amount\n    ) internal override(ERC20Streamable, ERC20_) {\n        ERC20Streamable._beforeTokenTransfer(from, to, amount);\n    }\n}\n",
  "sourcePath": "/home/ericng/Documents/PRIVI/Privi-Polygon/privi-streaming/contracts/PriviTestToken.sol",
  "compiler": {
    "name": "solc",
    "version": "0.8.1+commit.df193b15.Emscripten.clang"
  },
  "schemaVersion": "3.4.1",
  "updatedAt": "2021-06-16T19:50:57.189Z",
  "devdoc": {
    "kind": "dev",
    "methods": {
      "allowance(address,address)": {
        "details": "See {IERC20-allowance}."
      },
      "approve(address,uint256)": {
        "details": "See {IERC20-approve}. Requirements: - `spender` cannot be the zero address."
      },
      "burn(uint256)": {
        "details": "Destroys `amount` tokens from the caller. See {ERC20-_burn}."
      },
      "burnFrom(address,uint256)": {
        "details": "Destroys `amount` tokens from `account`, deducting from the caller's allowance. See {ERC20-_burn} and {ERC20-allowance}. Requirements: - the caller must have allowance for ``accounts``'s tokens of at least `amount`."
      },
      "decimals()": {
        "details": "Returns the number of decimals used to get its user representation. For example, if `decimals` equals `2`, a balance of `505` tokens should be displayed to a user as `5,05` (`505 / 10 ** 2`). Tokens usually opt for a value of 18, imitating the relationship between Ether and Wei. This is the value {ERC20} uses, unless this function is overridden; NOTE: This information is only used for _display_ purposes: it in no way affects any of the arithmetic of the contract, including {IERC20-balanceOf} and {IERC20-transfer}."
      },
      "decreaseAllowance(address,uint256)": {
        "details": "Atomically decreases the allowance granted to `spender` by the caller. This is an alternative to {approve} that can be used as a mitigation for problems described in {IERC20-approve}. Emits an {Approval} event indicating the updated allowance. Requirements: - `spender` cannot be the zero address. - `spender` must have allowance for the caller of at least `subtractedValue`."
      },
      "increaseAllowance(address,uint256)": {
        "details": "Atomically increases the allowance granted to `spender` by the caller. This is an alternative to {approve} that can be used as a mitigation for problems described in {IERC20-approve}. Emits an {Approval} event indicating the updated allowance. Requirements: - `spender` cannot be the zero address."
      },
      "name()": {
        "details": "Returns the name of the token."
      },
      "owner()": {
        "details": "Returns the address of the current owner."
      },
      "renounceOwnership()": {
        "details": "Leaves the contract without owner. It will not be possible to call `onlyOwner` functions anymore. Can only be called by the current owner. NOTE: Renouncing ownership will leave the contract without an owner, thereby removing any functionality that is only available to the owner."
      },
      "symbol()": {
        "details": "Returns the symbol of the token, usually a shorter version of the name."
      },
      "totalSupply()": {
        "details": "See {IERC20-totalSupply}."
      },
      "transfer(address,uint256)": {
        "details": "See {IERC20-transfer}. Requirements: - `recipient` cannot be the zero address. - the caller must have a balance of at least `amount`."
      },
      "transferFrom(address,address,uint256)": {
        "details": "See {IERC20-transferFrom}. Emits an {Approval} event indicating the updated allowance. This is not required by the EIP. See the note at the beginning of {ERC20}. Requirements: - `sender` and `recipient` cannot be the zero address. - `sender` must have a balance of at least `amount`. - the caller must have allowance for ``sender``'s tokens of at least `amount`."
      },
      "transferOwnership(address)": {
        "details": "Transfers ownership of the contract to a new account (`newOwner`). Can only be called by the current owner."
      }
    },
    "version": 1
  },
  "userdoc": {
    "kind": "user",
    "methods": {},
    "version": 1
  }
}