{
  "contractName": "SocialTokenMock",
  "abi": [
    {
      "inputs": [
        {
          "internalType": "uint256",
          "name": "initialSupply",
          "type": "uint256"
        },
        {
          "internalType": "string",
          "name": "tokenName",
          "type": "string"
        },
        {
          "internalType": "string",
          "name": "tokenSymbol",
          "type": "string"
        }
      ],
      "stateMutability": "nonpayable",
      "type": "constructor"
    },
    {
      "anonymous": false,
      "inputs": [
        {
          "indexed": true,
          "internalType": "address",
          "name": "owner",
          "type": "address"
        },
        {
          "indexed": true,
          "internalType": "address",
          "name": "spender",
          "type": "address"
        },
        {
          "indexed": false,
          "internalType": "uint256",
          "name": "value",
          "type": "uint256"
        }
      ],
      "name": "Approval",
      "type": "event"
    },
    {
      "anonymous": false,
      "inputs": [
        {
          "indexed": true,
          "internalType": "address",
          "name": "previousOwner",
          "type": "address"
        },
        {
          "indexed": true,
          "internalType": "address",
          "name": "newOwner",
          "type": "address"
        }
      ],
      "name": "OwnershipTransferred",
      "type": "event"
    },
    {
      "anonymous": false,
      "inputs": [
        {
          "indexed": true,
          "internalType": "bytes32",
          "name": "role",
          "type": "bytes32"
        },
        {
          "indexed": true,
          "internalType": "bytes32",
          "name": "previousAdminRole",
          "type": "bytes32"
        },
        {
          "indexed": true,
          "internalType": "bytes32",
          "name": "newAdminRole",
          "type": "bytes32"
        }
      ],
      "name": "RoleAdminChanged",
      "type": "event"
    },
    {
      "anonymous": false,
      "inputs": [
        {
          "indexed": true,
          "internalType": "bytes32",
          "name": "role",
          "type": "bytes32"
        },
        {
          "indexed": true,
          "internalType": "address",
          "name": "account",
          "type": "address"
        },
        {
          "indexed": true,
          "internalType": "address",
          "name": "sender",
          "type": "address"
        }
      ],
      "name": "RoleGranted",
      "type": "event"
    },
    {
      "anonymous": false,
      "inputs": [
        {
          "indexed": true,
          "internalType": "bytes32",
          "name": "role",
          "type": "bytes32"
        },
        {
          "indexed": true,
          "internalType": "address",
          "name": "account",
          "type": "address"
        },
        {
          "indexed": true,
          "internalType": "address",
          "name": "sender",
          "type": "address"
        }
      ],
      "name": "RoleRevoked",
      "type": "event"
    },
    {
      "anonymous": false,
      "inputs": [
        {
          "indexed": true,
          "internalType": "address",
          "name": "from",
          "type": "address"
        },
        {
          "indexed": true,
          "internalType": "address",
          "name": "to",
          "type": "address"
        },
        {
          "indexed": true,
          "internalType": "uint256",
          "name": "id",
          "type": "uint256"
        },
        {
          "indexed": false,
          "internalType": "uint64",
          "name": "endingDate",
          "type": "uint64"
        }
      ],
      "name": "StreamingCreated",
      "type": "event"
    },
    {
      "anonymous": false,
      "inputs": [
        {
          "indexed": true,
          "internalType": "address",
          "name": "from",
          "type": "address"
        },
        {
          "indexed": true,
          "internalType": "address",
          "name": "to",
          "type": "address"
        }
      ],
      "name": "StreamingStopped",
      "type": "event"
    },
    {
      "anonymous": false,
      "inputs": [
        {
          "indexed": true,
          "internalType": "address",
          "name": "from",
          "type": "address"
        },
        {
          "indexed": true,
          "internalType": "address",
          "name": "to",
          "type": "address"
        },
        {
          "indexed": true,
          "internalType": "uint256",
          "name": "id",
          "type": "uint256"
        },
        {
          "indexed": false,
          "internalType": "uint64",
          "name": "endingDate",
          "type": "uint64"
        }
      ],
      "name": "StreamingUpdated",
      "type": "event"
    },
    {
      "anonymous": false,
      "inputs": [
        {
          "indexed": true,
          "internalType": "address",
          "name": "from",
          "type": "address"
        },
        {
          "indexed": true,
          "internalType": "address",
          "name": "to",
          "type": "address"
        },
        {
          "indexed": false,
          "internalType": "uint256",
          "name": "value",
          "type": "uint256"
        }
      ],
      "name": "Transfer",
      "type": "event"
    },
    {
      "inputs": [],
      "name": "ADMIN",
      "outputs": [
        {
          "internalType": "bytes32",
          "name": "",
          "type": "bytes32"
        }
      ],
      "stateMutability": "view",
      "type": "function",
      "constant": true
    },
    {
      "inputs": [],
      "name": "DEFAULT_ADMIN_ROLE",
      "outputs": [
        {
          "internalType": "bytes32",
          "name": "",
          "type": "bytes32"
        }
      ],
      "stateMutability": "view",
      "type": "function",
      "constant": true
    },
    {
      "inputs": [
        {
          "internalType": "address",
          "name": "owner",
          "type": "address"
        },
        {
          "internalType": "address",
          "name": "spender",
          "type": "address"
        }
      ],
      "name": "allowance",
      "outputs": [
        {
          "internalType": "uint256",
          "name": "",
          "type": "uint256"
        }
      ],
      "stateMutability": "view",
      "type": "function",
      "constant": true
    },
    {
      "inputs": [
        {
          "internalType": "address",
          "name": "spender",
          "type": "address"
        },
        {
          "internalType": "uint256",
          "name": "amount",
          "type": "uint256"
        }
      ],
      "name": "approve",
      "outputs": [
        {
          "internalType": "bool",
          "name": "",
          "type": "bool"
        }
      ],
      "stateMutability": "nonpayable",
      "type": "function"
    },
    {
      "inputs": [
        {
          "components": [
            {
              "internalType": "string",
              "name": "stype",
              "type": "string"
            },
            {
              "internalType": "address",
              "name": "senderAddress",
              "type": "address"
            },
            {
              "internalType": "address",
              "name": "receiverAddress",
              "type": "address"
            },
            {
              "internalType": "uint256",
              "name": "amountPerSecond",
              "type": "uint256"
            },
            {
              "internalType": "uint64",
              "name": "startingDate",
              "type": "uint64"
            },
            {
              "internalType": "uint64",
              "name": "endingDate",
              "type": "uint64"
            }
          ],
          "internalType": "struct Streaming",
          "name": "_streaming",
          "type": "tuple"
        }
      ],
      "name": "createStreaming",
      "outputs": [
        {
          "internalType": "uint256",
          "name": "newStreamingId",
          "type": "uint256"
        }
      ],
      "stateMutability": "nonpayable",
      "type": "function"
    },
    {
      "inputs": [
        {
          "internalType": "address",
          "name": "spender",
          "type": "address"
        },
        {
          "internalType": "uint256",
          "name": "subtractedValue",
          "type": "uint256"
        }
      ],
      "name": "decreaseAllowance",
      "outputs": [
        {
          "internalType": "bool",
          "name": "",
          "type": "bool"
        }
      ],
      "stateMutability": "nonpayable",
      "type": "function"
    },
    {
      "inputs": [
        {
          "internalType": "bytes32",
          "name": "role",
          "type": "bytes32"
        }
      ],
      "name": "getRoleAdmin",
      "outputs": [
        {
          "internalType": "bytes32",
          "name": "",
          "type": "bytes32"
        }
      ],
      "stateMutability": "view",
      "type": "function",
      "constant": true
    },
    {
      "inputs": [
        {
          "internalType": "uint256",
          "name": "_streamingId",
          "type": "uint256"
        }
      ],
      "name": "getStreaming",
      "outputs": [
        {
          "components": [
            {
              "internalType": "string",
              "name": "stype",
              "type": "string"
            },
            {
              "internalType": "address",
              "name": "senderAddress",
              "type": "address"
            },
            {
              "internalType": "address",
              "name": "receiverAddress",
              "type": "address"
            },
            {
              "internalType": "uint256",
              "name": "amountPerSecond",
              "type": "uint256"
            },
            {
              "internalType": "uint64",
              "name": "startingDate",
              "type": "uint64"
            },
            {
              "internalType": "uint64",
              "name": "endingDate",
              "type": "uint64"
            }
          ],
          "internalType": "struct Streaming",
          "name": "streaming",
          "type": "tuple"
        }
      ],
      "stateMutability": "view",
      "type": "function",
      "constant": true
    },
    {
      "inputs": [
        {
          "internalType": "bytes32",
          "name": "role",
          "type": "bytes32"
        },
        {
          "internalType": "address",
          "name": "account",
          "type": "address"
        }
      ],
      "name": "grantRole",
      "outputs": [],
      "stateMutability": "nonpayable",
      "type": "function"
    },
    {
      "inputs": [
        {
          "internalType": "bytes32",
          "name": "role",
          "type": "bytes32"
        },
        {
          "internalType": "address",
          "name": "account",
          "type": "address"
        }
      ],
      "name": "hasRole",
      "outputs": [
        {
          "internalType": "bool",
          "name": "",
          "type": "bool"
        }
      ],
      "stateMutability": "view",
      "type": "function",
      "constant": true
    },
    {
      "inputs": [
        {
          "internalType": "address",
          "name": "spender",
          "type": "address"
        },
        {
          "internalType": "uint256",
          "name": "addedValue",
          "type": "uint256"
        }
      ],
      "name": "increaseAllowance",
      "outputs": [
        {
          "internalType": "bool",
          "name": "",
          "type": "bool"
        }
      ],
      "stateMutability": "nonpayable",
      "type": "function"
    },
    {
      "inputs": [],
      "name": "name",
      "outputs": [
        {
          "internalType": "string",
          "name": "",
          "type": "string"
        }
      ],
      "stateMutability": "view",
      "type": "function",
      "constant": true
    },
    {
      "inputs": [],
      "name": "owner",
      "outputs": [
        {
          "internalType": "address",
          "name": "",
          "type": "address"
        }
      ],
      "stateMutability": "view",
      "type": "function",
      "constant": true
    },
    {
      "inputs": [],
      "name": "renounceOwnership",
      "outputs": [],
      "stateMutability": "nonpayable",
      "type": "function"
    },
    {
      "inputs": [
        {
          "internalType": "bytes32",
          "name": "role",
          "type": "bytes32"
        },
        {
          "internalType": "address",
          "name": "account",
          "type": "address"
        }
      ],
      "name": "renounceRole",
      "outputs": [],
      "stateMutability": "nonpayable",
      "type": "function"
    },
    {
      "inputs": [
        {
          "internalType": "bytes32",
          "name": "role",
          "type": "bytes32"
        },
        {
          "internalType": "address",
          "name": "account",
          "type": "address"
        }
      ],
      "name": "revokeRole",
      "outputs": [],
      "stateMutability": "nonpayable",
      "type": "function"
    },
    {
      "inputs": [
        {
          "internalType": "address",
          "name": "_streamingManagerAddress",
          "type": "address"
        }
      ],
      "name": "setStreamingManagerAddress",
      "outputs": [],
      "stateMutability": "nonpayable",
      "type": "function"
    },
    {
      "inputs": [
        {
          "internalType": "uint256",
          "name": "_streamingId",
          "type": "uint256"
        }
      ],
      "name": "stopStreaming",
      "outputs": [],
      "stateMutability": "nonpayable",
      "type": "function"
    },
    {
      "inputs": [],
      "name": "streamingManagerAddress",
      "outputs": [
        {
          "internalType": "address",
          "name": "",
          "type": "address"
        }
      ],
      "stateMutability": "view",
      "type": "function",
      "constant": true
    },
    {
      "inputs": [
        {
          "internalType": "bytes4",
          "name": "interfaceId",
          "type": "bytes4"
        }
      ],
      "name": "supportsInterface",
      "outputs": [
        {
          "internalType": "bool",
          "name": "",
          "type": "bool"
        }
      ],
      "stateMutability": "view",
      "type": "function",
      "constant": true
    },
    {
      "inputs": [],
      "name": "symbol",
      "outputs": [
        {
          "internalType": "string",
          "name": "",
          "type": "string"
        }
      ],
      "stateMutability": "view",
      "type": "function",
      "constant": true
    },
    {
      "inputs": [],
      "name": "totalSupply",
      "outputs": [
        {
          "internalType": "uint256",
          "name": "",
          "type": "uint256"
        }
      ],
      "stateMutability": "view",
      "type": "function",
      "constant": true
    },
    {
      "inputs": [
        {
          "internalType": "address",
          "name": "recipient",
          "type": "address"
        },
        {
          "internalType": "uint256",
          "name": "amount",
          "type": "uint256"
        }
      ],
      "name": "transfer",
      "outputs": [
        {
          "internalType": "bool",
          "name": "",
          "type": "bool"
        }
      ],
      "stateMutability": "nonpayable",
      "type": "function"
    },
    {
      "inputs": [
        {
          "internalType": "address",
          "name": "sender",
          "type": "address"
        },
        {
          "internalType": "address",
          "name": "recipient",
          "type": "address"
        },
        {
          "internalType": "uint256",
          "name": "amount",
          "type": "uint256"
        }
      ],
      "name": "transferFrom",
      "outputs": [
        {
          "internalType": "bool",
          "name": "",
          "type": "bool"
        }
      ],
      "stateMutability": "nonpayable",
      "type": "function"
    },
    {
      "inputs": [
        {
          "internalType": "address",
          "name": "newOwner",
          "type": "address"
        }
      ],
      "name": "transferOwnership",
      "outputs": [],
      "stateMutability": "nonpayable",
      "type": "function"
    },
    {
      "inputs": [
        {
          "internalType": "uint256",
          "name": "_streamingId",
          "type": "uint256"
        },
        {
          "components": [
            {
              "internalType": "uint256",
              "name": "amountPerSecond",
              "type": "uint256"
            },
            {
              "internalType": "uint64",
              "name": "endingDate",
              "type": "uint64"
            }
          ],
          "internalType": "struct StreamingUpdateRequest",
          "name": "_streamingUpdateRequest",
          "type": "tuple"
        }
      ],
      "name": "updateStreaming",
      "outputs": [],
      "stateMutability": "nonpayable",
      "type": "function"
    },
    {
      "inputs": [
        {
          "internalType": "address",
          "name": "to",
          "type": "address"
        },
        {
          "internalType": "uint256",
          "name": "amount",
          "type": "uint256"
        }
      ],
      "name": "mint",
      "outputs": [],
      "stateMutability": "nonpayable",
      "type": "function"
    },
    {
      "inputs": [],
      "name": "decimals",
      "outputs": [
        {
          "internalType": "uint8",
          "name": "",
          "type": "uint8"
        }
      ],
      "stateMutability": "pure",
      "type": "function",
      "constant": true
    },
    {
      "inputs": [
        {
          "internalType": "address",
          "name": "account",
          "type": "address"
        }
      ],
      "name": "balanceOf",
      "outputs": [
        {
          "internalType": "uint256",
          "name": "",
          "type": "uint256"
        }
      ],
      "stateMutability": "view",
      "type": "function",
      "constant": true
    }
  ],
  "bytecode": "0x60806040523480156200001157600080fd5b5060405162005904380380620059048339818101604052810190620000379190620006cb565b818181600390805190602001906200005192919062000592565b5080600490805190602001906200006a92919062000592565b505050620000826000801b33620001aa60201b60201c565b620000b47ff23ec0bb4210edd5cba85afd05127efcd2fc6a781bfed49188da1081670b22d833620001aa60201b60201c565b6000620000c6620001c060201b60201c565b905080600d60006101000a81548173ffffffffffffffffffffffffffffffffffffffff021916908373ffffffffffffffffffffffffffffffffffffffff1602179055508073ffffffffffffffffffffffffffffffffffffffff16600073ffffffffffffffffffffffffffffffffffffffff167f8be0079c531659141344cd1fd0a4f28419497f9722a3daafe3b4186f6b6457e060405160405180910390a350620001a1336200017a620001c860201b60201c565b600a6200018891906200093b565b8562000195919062000a78565b620001d160201b60201c565b50505062000ccf565b620001bc82826200033660201b60201c565b5050565b600033905090565b60006012905090565b600073ffffffffffffffffffffffffffffffffffffffff168273ffffffffffffffffffffffffffffffffffffffff16141562000244576040517f08c379a00000000000000000000000000000000000000000000000000000000081526004016200023b90620007d4565b60405180910390fd5b62000258600083836200042860201b60201c565b80600260008282546200026c919062000883565b92505081905550806000808473ffffffffffffffffffffffffffffffffffffffff1673ffffffffffffffffffffffffffffffffffffffff1681526020019081526020016000206000828254620002c3919062000883565b925050819055508173ffffffffffffffffffffffffffffffffffffffff16600073ffffffffffffffffffffffffffffffffffffffff167fddf252ad1be2c89b69c2b068fc378daa952ba7f163c4a11628f55a4df523b3ef836040516200032a9190620007f6565b60405180910390a35050565b6200034882826200044560201b60201c565b620004245760016005600084815260200190815260200160002060000160008373ffffffffffffffffffffffffffffffffffffffff1673ffffffffffffffffffffffffffffffffffffffff16815260200190815260200160002060006101000a81548160ff021916908315150217905550620003c9620001c060201b60201c565b73ffffffffffffffffffffffffffffffffffffffff168173ffffffffffffffffffffffffffffffffffffffff16837f2f8788117e7eff1d82e926ec794901d17c78024a50270940304540a733656f0d60405160405180910390a45b5050565b62000440838383620004b060201b62001d981760201c565b505050565b60006005600084815260200190815260200160002060000160008373ffffffffffffffffffffffffffffffffffffffff1673ffffffffffffffffffffffffffffffffffffffff16815260200190815260200160002060009054906101000a900460ff16905092915050565b600073ffffffffffffffffffffffffffffffffffffffff168373ffffffffffffffffffffffffffffffffffffffff16141580156200050257508062000500846200054a60201b62001e211760201c565b105b1562000545576040517f08c379a00000000000000000000000000000000000000000000000000000000081526004016200053c90620007b2565b60405180910390fd5b505050565b60008060008373ffffffffffffffffffffffffffffffffffffffff1673ffffffffffffffffffffffffffffffffffffffff168152602001908152602001600020549050919050565b828054620005a09062000b26565b90600052602060002090601f016020900481019282620005c4576000855562000610565b82601f10620005df57805160ff191683800117855562000610565b8280016001018555821562000610579182015b828111156200060f578251825591602001919060010190620005f2565b5b5090506200061f919062000623565b5090565b5b808211156200063e57600081600090555060010162000624565b5090565b60006200065962000653846200083c565b62000813565b9050828152602081018484840111156200067257600080fd5b6200067f84828562000af0565b509392505050565b600082601f8301126200069957600080fd5b8151620006ab84826020860162000642565b91505092915050565b600081519050620006c58162000cb5565b92915050565b600080600060608486031215620006e157600080fd5b6000620006f186828701620006b4565b935050602084015167ffffffffffffffff8111156200070f57600080fd5b6200071d8682870162000687565b925050604084015167ffffffffffffffff8111156200073b57600080fd5b620007498682870162000687565b9150509250925092565b60006200076260388362000872565b91506200076f8262000c3d565b604082019050919050565b600062000789601f8362000872565b9150620007968262000c8c565b602082019050919050565b620007ac8162000ad9565b82525050565b60006020820190508181036000830152620007cd8162000753565b9050919050565b60006020820190508181036000830152620007ef816200077a565b9050919050565b60006020820190506200080d6000830184620007a1565b92915050565b60006200081f62000832565b90506200082d828262000b5c565b919050565b6000604051905090565b600067ffffffffffffffff8211156200085a576200085962000bf0565b5b620008658262000c1f565b9050602081019050919050565b600082825260208201905092915050565b6000620008908262000ad9565b91506200089d8362000ad9565b9250827fffffffffffffffffffffffffffffffffffffffffffffffffffffffffffffffff03821115620008d557620008d462000b92565b5b828201905092915050565b6000808291508390505b600185111562000932578086048111156200090a576200090962000b92565b5b60018516156200091a5780820291505b80810290506200092a8562000c30565b9450620008ea565b94509492505050565b6000620009488262000ad9565b9150620009558362000ae3565b9250620009847fffffffffffffffffffffffffffffffffffffffffffffffffffffffffffffffff84846200098c565b905092915050565b6000826200099e576001905062000a71565b81620009ae576000905062000a71565b8160018114620009c75760028114620009d25762000a08565b600191505062000a71565b60ff841115620009e757620009e662000b92565b5b8360020a91508482111562000a015762000a0062000b92565b5b5062000a71565b5060208310610133831016604e8410600b841016171562000a425782820a90508381111562000a3c5762000a3b62000b92565b5b62000a71565b62000a518484846001620008e0565b9250905081840481111562000a6b5762000a6a62000b92565b5b81810290505b9392505050565b600062000a858262000ad9565b915062000a928362000ad9565b9250817fffffffffffffffffffffffffffffffffffffffffffffffffffffffffffffffff048311821515161562000ace5762000acd62000b92565b5b828202905092915050565b6000819050919050565b600060ff82169050919050565b60005b8381101562000b1057808201518184015260208101905062000af3565b8381111562000b20576000848401525b50505050565b6000600282049050600182168062000b3f57607f821691505b6020821081141562000b565762000b5562000bc1565b5b50919050565b62000b678262000c1f565b810181811067ffffffffffffffff8211171562000b895762000b8862000bf0565b5b80604052505050565b7f4e487b7100000000000000000000000000000000000000000000000000000000600052601160045260246000fd5b7f4e487b7100000000000000000000000000000000000000000000000000000000600052602260045260246000fd5b7f4e487b7100000000000000000000000000000000000000000000000000000000600052604160045260246000fd5b6000601f19601f8301169050919050565b60008160011c9050919050565b7f5265616c2062616c616e63652028776968746f75742073747265616d696e677360008201527f29206e6f7420656e6f75676820746f207472616e736665720000000000000000602082015250565b7f45524332303a206d696e7420746f20746865207a65726f206164647265737300600082015250565b62000cc08162000ad9565b811462000ccc57600080fd5b50565b614c258062000cdf6000396000f3fe608060405234801561001057600080fd5b50600436106101cf5760003560e01c806340c10f1911610104578063a217fddf116100a2578063d547741f11610071578063d547741f1461056a578063dd62ed3e14610586578063f1476c34146105b6578063f2fde38b146105d2576101cf565b8063a217fddf146104bc578063a457c2d7146104da578063a9059cbb1461050a578063b8ad6d7c1461053a576101cf565b8063715018a6116100de578063715018a6146104465780638da5cb5b1461045057806391d148541461046e57806395d89b411461049e576101cf565b806340c10f19146103dc57806353fd730c146103f857806370a0823114610416576101cf565b80632a0acc6a11610171578063319f52931161014b578063319f52931461034457806336568abe14610360578063382729fc1461037c57806339509351146103ac576101cf565b80632a0acc6a146102ec5780632f2ff15d1461030a578063313ce56714610326576101cf565b806318160ddd116101ad57806318160ddd146102525780631bc80a251461027057806323b872dd1461028c578063248a9ca3146102bc576101cf565b806301ffc9a7146101d457806306fdde0314610204578063095ea7b314610222575b600080fd5b6101ee60048036038101906101e99190613446565b6105ee565b6040516101fb9190613d06565b60405180910390f35b61020c610668565b6040516102199190613d3c565b60405180910390f35b61023c600480360381019061023791906133a5565b6106fa565b6040516102499190613d06565b60405180910390f35b61025a610718565b604051610267919061416e565b60405180910390f35b61028a600480360381019061028591906134d9565b610722565b005b6102a660048036038101906102a19190613356565b610ae7565b6040516102b39190613d06565b60405180910390f35b6102d660048036038101906102d191906133e1565b610be8565b6040516102e39190613d21565b60405180910390f35b6102f4610c08565b6040516103019190613d21565b60405180910390f35b610324600480360381019061031f919061340a565b610c2c565b005b61032e610c55565b60405161033b91906141a4565b60405180910390f35b61035e600480360381019061035991906132f1565b610c5e565b005b61037a6004803603810190610375919061340a565b610d16565b005b610396600480360381019061039191906134b0565b610d99565b6040516103a3919061403e565b60405180910390f35b6103c660048036038101906103c191906133a5565b610fb9565b6040516103d39190613d06565b60405180910390f35b6103f660048036038101906103f191906133a5565b611065565b005b6104006110ef565b60405161040d9190613cc2565b60405180910390f35b610430600480360381019061042b91906132f1565b611115565b60405161043d919061416e565b60405180910390f35b61044e611127565b005b610458611264565b6040516104659190613cc2565b60405180910390f35b6104886004803603810190610483919061340a565b61128e565b6040516104959190613d06565b60405180910390f35b6104a66112f9565b6040516104b39190613d3c565b60405180910390f35b6104c461138b565b6040516104d19190613d21565b60405180910390f35b6104f460048036038101906104ef91906133a5565b611392565b6040516105019190613d06565b60405180910390f35b610524600480360381019061051f91906133a5565b611486565b6040516105319190613d06565b60405180910390f35b610554600480360381019061054f919061346f565b6114a4565b604051610561919061416e565b60405180910390f35b610584600480360381019061057f919061340a565b611b14565b005b6105a0600480360381019061059b919061331a565b611b3d565b6040516105ad919061416e565b60405180910390f35b6105d060048036038101906105cb91906134b0565b611bc4565b005b6105ec60048036038101906105e791906132f1565b611bec565b005b60007f7965db0b000000000000000000000000000000000000000000000000000000007bffffffffffffffffffffffffffffffffffffffffffffffffffffffff1916827bffffffffffffffffffffffffffffffffffffffffffffffffffffffff19161480610661575061066082611e69565b5b9050919050565b606060038054610677906144af565b80601f01602080910402602001604051908101604052809291908181526020018280546106a3906144af565b80156106f05780601f106106c5576101008083540402835291602001916106f0565b820191906000526020600020905b8154815290600101906020018083116106d357829003601f168201915b5050505050905090565b600061070e610707611ed3565b8484611edb565b6001905092915050565b6000600254905090565b600061072d83610d99565b905081602001602081019061074291906135a0565b67ffffffffffffffff16816080015167ffffffffffffffff1610158061078457504282602001602081019061077791906135a0565b67ffffffffffffffff1611155b806107bf57503373ffffffffffffffffffffffffffffffffffffffff16816020015173ffffffffffffffffffffffffffffffffffffffff1614155b806107cf57506000826000013511155b1561080f576040517f08c379a000000000000000000000000000000000000000000000000000000000815260040161080690613dbe565b60405180910390fd5b428160a0015167ffffffffffffffff16116108335761082e81846120a6565b610ae2565b60008060008373__StreamingLibrary______________________63af5f0009909188600b600c600a8b6040518763ffffffff1660e01b815260040161087e96959493929190614106565b60606040518083038186803b15801561089657600080fd5b505af41580156108aa573d6000803e3d6000fd5b505050506040513d601f19601f820116820180604052508101906108ce9190613551565b925092509250600083111561097157600860009054906101000a900473ffffffffffffffffffffffffffffffffffffffff1673ffffffffffffffffffffffffffffffffffffffff1663a9059cbb8560400151856040518363ffffffff1660e01b815260040161093e929190613cdd565b600060405180830381600087803b15801561095857600080fd5b505af115801561096c573d6000803e3d6000fd5b505050505b80821115610a1c57600860009054906101000a900473ffffffffffffffffffffffffffffffffffffffff1673ffffffffffffffffffffffffffffffffffffffff1663a9059cbb856020015183856109c8919061433c565b6040518363ffffffff1660e01b81526004016109e5929190613cdd565b600060405180830381600087803b1580156109ff57600080fd5b505af1158015610a13573d6000803e3d6000fd5b50505050610a5e565b80821015610a5d57610a5b600760009054906101000a900473ffffffffffffffffffffffffffffffffffffffff168383610a56919061433c565b611486565b505b5b85846040015173ffffffffffffffffffffffffffffffffffffffff16856020015173ffffffffffffffffffffffffffffffffffffffff167fe835a56bf9f5bd21e526fe31a2ae63e29cc62acd36bebaf097bb3364c7ebe035886020016020810190610ac991906135a0565b604051610ad69190614189565b60405180910390a45050505b505050565b6000610af4848484612337565b6000600160008673ffffffffffffffffffffffffffffffffffffffff1673ffffffffffffffffffffffffffffffffffffffff1681526020019081526020016000206000610b3f611ed3565b73ffffffffffffffffffffffffffffffffffffffff1673ffffffffffffffffffffffffffffffffffffffff16815260200190815260200160002054905082811015610bbf576040517f08c379a0000000000000000000000000000000000000000000000000000000008152600401610bb690613ebe565b60405180910390fd5b610bdc85610bcb611ed3565b8584610bd7919061433c565b611edb565b60019150509392505050565b600060056000838152602001908152602001600020600101549050919050565b7ff23ec0bb4210edd5cba85afd05127efcd2fc6a781bfed49188da1081670b22d881565b610c3582610be8565b610c4681610c41611ed3565b6125b6565b610c508383612653565b505050565b60006012905090565b7ff23ec0bb4210edd5cba85afd05127efcd2fc6a781bfed49188da1081670b22d8610c9081610c8b611ed3565b6125b6565b81600760006101000a81548173ffffffffffffffffffffffffffffffffffffffff021916908373ffffffffffffffffffffffffffffffffffffffff16021790555081600860006101000a81548173ffffffffffffffffffffffffffffffffffffffff021916908373ffffffffffffffffffffffffffffffffffffffff1602179055505050565b610d1e611ed3565b73ffffffffffffffffffffffffffffffffffffffff168173ffffffffffffffffffffffffffffffffffffffff1614610d8b576040517f08c379a0000000000000000000000000000000000000000000000000000000008152600401610d8290613ffe565b60405180910390fd5b610d958282612734565b5050565b610da1613023565b600a60008381526020019081526020016000206040518060c0016040529081600082018054610dcf906144af565b80601f0160208091040260200160405190810160405280929190818152602001828054610dfb906144af565b8015610e485780601f10610e1d57610100808354040283529160200191610e48565b820191906000526020600020905b815481529060010190602001808311610e2b57829003601f168201915b505050505081526020016001820160009054906101000a900473ffffffffffffffffffffffffffffffffffffffff1673ffffffffffffffffffffffffffffffffffffffff1673ffffffffffffffffffffffffffffffffffffffff1681526020016002820160009054906101000a900473ffffffffffffffffffffffffffffffffffffffff1673ffffffffffffffffffffffffffffffffffffffff1673ffffffffffffffffffffffffffffffffffffffff168152602001600382015481526020016004820160009054906101000a900467ffffffffffffffff1667ffffffffffffffff1667ffffffffffffffff1681526020016004820160089054906101000a900467ffffffffffffffff1667ffffffffffffffff1667ffffffffffffffff168152505090506000816060015111610fb4576040517f08c379a0000000000000000000000000000000000000000000000000000000008152600401610fab90613f7e565b60405180910390fd5b919050565b600061105b610fc6611ed3565b848460016000610fd4611ed3565b73ffffffffffffffffffffffffffffffffffffffff1673ffffffffffffffffffffffffffffffffffffffff16815260200190815260200160002060008873ffffffffffffffffffffffffffffffffffffffff1673ffffffffffffffffffffffffffffffffffffffff16815260200190815260200160002054611056919061428c565b611edb565b6001905092915050565b61106d611ed3565b73ffffffffffffffffffffffffffffffffffffffff1661108b611264565b73ffffffffffffffffffffffffffffffffffffffff16146110e1576040517f08c379a00000000000000000000000000000000000000000000000000000000081526004016110d890613efe565b60405180910390fd5b6110eb8282612816565b5050565b600760009054906101000a900473ffffffffffffffffffffffffffffffffffffffff1681565b60006111208261296a565b9050919050565b61112f611ed3565b73ffffffffffffffffffffffffffffffffffffffff1661114d611264565b73ffffffffffffffffffffffffffffffffffffffff16146111a3576040517f08c379a000000000000000000000000000000000000000000000000000000000815260040161119a90613efe565b60405180910390fd5b600073ffffffffffffffffffffffffffffffffffffffff16600d60009054906101000a900473ffffffffffffffffffffffffffffffffffffffff1673ffffffffffffffffffffffffffffffffffffffff167f8be0079c531659141344cd1fd0a4f28419497f9722a3daafe3b4186f6b6457e060405160405180910390a36000600d60006101000a81548173ffffffffffffffffffffffffffffffffffffffff021916908373ffffffffffffffffffffffffffffffffffffffff160217905550565b6000600d60009054906101000a900473ffffffffffffffffffffffffffffffffffffffff16905090565b60006005600084815260200190815260200160002060000160008373ffffffffffffffffffffffffffffffffffffffff1673ffffffffffffffffffffffffffffffffffffffff16815260200190815260200160002060009054906101000a900460ff16905092915050565b606060048054611308906144af565b80601f0160208091040260200160405190810160405280929190818152602001828054611334906144af565b80156113815780601f1061135657610100808354040283529160200191611381565b820191906000526020600020905b81548152906001019060200180831161136457829003601f168201915b5050505050905090565b6000801b81565b600080600160006113a1611ed3565b73ffffffffffffffffffffffffffffffffffffffff1673ffffffffffffffffffffffffffffffffffffffff16815260200190815260200160002060008573ffffffffffffffffffffffffffffffffffffffff1673ffffffffffffffffffffffffffffffffffffffff1681526020019081526020016000205490508281101561145e576040517f08c379a000000000000000000000000000000000000000000000000000000000815260040161145590613fde565b60405180910390fd5b61147b611469611ed3565b858584611476919061433c565b611edb565b600191505092915050565b600061149a611493611ed3565b8484612337565b6001905092915050565b6000816040516020016114b690613c73565b6040516020818303038152906040528051906020012081600001516040516020016114e19190613c5c565b6040516020818303038152906040528051906020012014611537576040517f08c379a000000000000000000000000000000000000000000000000000000000815260040161152e90613fbe565b60405180910390fd5b3373ffffffffffffffffffffffffffffffffffffffff16816020015173ffffffffffffffffffffffffffffffffffffffff16146115a9576040517f08c379a00000000000000000000000000000000000000000000000000000000081526004016115a090613e9e565b60405180910390fd5b600073ffffffffffffffffffffffffffffffffffffffff16816040015173ffffffffffffffffffffffffffffffffffffffff16141561161d576040517f08c379a000000000000000000000000000000000000000000000000000000000815260040161161490613e5e565b60405180910390fd5b6000816060015111611664576040517f08c379a000000000000000000000000000000000000000000000000000000000815260040161165b90613f9e565b60405180910390fd5b8260a0015167ffffffffffffffff1642106116b4576040517f08c379a00000000000000000000000000000000000000000000000000000000081526004016116ab90613f1e565b60405180910390fd5b60096000846020015173ffffffffffffffffffffffffffffffffffffffff1673ffffffffffffffffffffffffffffffffffffffff1681526020019081526020016000206000846040015173ffffffffffffffffffffffffffffffffffffffff1673ffffffffffffffffffffffffffffffffffffffff16815260200190815260200160002060009054906101000a900460ff1615611786576040517f08c379a000000000000000000000000000000000000000000000000000000000815260040161177d90613ede565b60405180910390fd5b42836080019067ffffffffffffffff16908167ffffffffffffffff1681525050600083608001518460a001516117bc9190614370565b67ffffffffffffffff1684606001516117d591906142e2565b90506117e033611115565b811115611822576040517f08c379a000000000000000000000000000000000000000000000000000000000815260040161181990613e3e565b60405180910390fd5b61182c6006612c53565b6118366006612c69565b925083600a60008581526020019081526020016000206000820151816000019080519060200190611868929190613099565b5060208201518160010160006101000a81548173ffffffffffffffffffffffffffffffffffffffff021916908373ffffffffffffffffffffffffffffffffffffffff16021790555060408201518160020160006101000a81548173ffffffffffffffffffffffffffffffffffffffff021916908373ffffffffffffffffffffffffffffffffffffffff1602179055506060820151816003015560808201518160040160006101000a81548167ffffffffffffffff021916908367ffffffffffffffff16021790555060a08201518160040160086101000a81548167ffffffffffffffff021916908367ffffffffffffffff160217905550905050600160096000866020015173ffffffffffffffffffffffffffffffffffffffff1673ffffffffffffffffffffffffffffffffffffffff1681526020019081526020016000206000866040015173ffffffffffffffffffffffffffffffffffffffff1673ffffffffffffffffffffffffffffffffffffffff16815260200190815260200160002060006101000a81548160ff0219169083151502179055508373__StreamingLibrary______________________63bec03ca69091600b600c6040518463ffffffff1660e01b8152600401611a3e93929190614060565b60006040518083038186803b158015611a5657600080fd5b505af4158015611a6a573d6000803e3d6000fd5b50505050611a9a600760009054906101000a900473ffffffffffffffffffffffffffffffffffffffff1682611486565b5082846040015173ffffffffffffffffffffffffffffffffffffffff16856020015173ffffffffffffffffffffffffffffffffffffffff167f8c59b05262137c9e0d3f7751e684c716478bf7844409019628c2704a99df63bb8760a00151604051611b059190614189565b60405180910390a45050919050565b611b1d82610be8565b611b2e81611b29611ed3565b6125b6565b611b388383612734565b505050565b6000600160008473ffffffffffffffffffffffffffffffffffffffff1673ffffffffffffffffffffffffffffffffffffffff16815260200190815260200160002060008373ffffffffffffffffffffffffffffffffffffffff1673ffffffffffffffffffffffffffffffffffffffff16815260200190815260200160002054905092915050565b6000611bcf82610d99565b9050611bde8160200151612c77565b611be881836120a6565b5050565b611bf4611ed3565b73ffffffffffffffffffffffffffffffffffffffff16611c12611264565b73ffffffffffffffffffffffffffffffffffffffff1614611c68576040517f08c379a0000000000000000000000000000000000000000000000000000000008152600401611c5f90613efe565b60405180910390fd5b600073ffffffffffffffffffffffffffffffffffffffff168173ffffffffffffffffffffffffffffffffffffffff161415611cd8576040517f08c379a0000000000000000000000000000000000000000000000000000000008152600401611ccf90613dde565b60405180910390fd5b8073ffffffffffffffffffffffffffffffffffffffff16600d60009054906101000a900473ffffffffffffffffffffffffffffffffffffffff1673ffffffffffffffffffffffffffffffffffffffff167f8be0079c531659141344cd1fd0a4f28419497f9722a3daafe3b4186f6b6457e060405160405180910390a380600d60006101000a81548173ffffffffffffffffffffffffffffffffffffffff021916908373ffffffffffffffffffffffffffffffffffffffff16021790555050565b600073ffffffffffffffffffffffffffffffffffffffff168373ffffffffffffffffffffffffffffffffffffffff1614158015611ddc575080611dda84611e21565b105b15611e1c576040517f08c379a0000000000000000000000000000000000000000000000000000000008152600401611e1390613d5e565b60405180910390fd5b505050565b60008060008373ffffffffffffffffffffffffffffffffffffffff1673ffffffffffffffffffffffffffffffffffffffff168152602001908152602001600020549050919050565b60007f01ffc9a7000000000000000000000000000000000000000000000000000000007bffffffffffffffffffffffffffffffffffffffffffffffffffffffff1916827bffffffffffffffffffffffffffffffffffffffffffffffffffffffff1916149050919050565b600033905090565b600073ffffffffffffffffffffffffffffffffffffffff168373ffffffffffffffffffffffffffffffffffffffff161415611f4b576040517f08c379a0000000000000000000000000000000000000000000000000000000008152600401611f4290613f5e565b60405180910390fd5b600073ffffffffffffffffffffffffffffffffffffffff168273ffffffffffffffffffffffffffffffffffffffff161415611fbb576040517f08c379a0000000000000000000000000000000000000000000000000000000008152600401611fb290613dfe565b60405180910390fd5b80600160008573ffffffffffffffffffffffffffffffffffffffff1673ffffffffffffffffffffffffffffffffffffffff16815260200190815260200160002060008473ffffffffffffffffffffffffffffffffffffffff1673ffffffffffffffffffffffffffffffffffffffff168152602001908152602001600020819055508173ffffffffffffffffffffffffffffffffffffffff168373ffffffffffffffffffffffffffffffffffffffff167f8c5be1e5ebec7d5bd14f71427d1e84f3dd0314c0f7b2291e5b200ac8c7c3b92583604051612099919061416e565b60405180910390a3505050565b8160a0015167ffffffffffffffff16826080015167ffffffffffffffff16106120f8577f4e487b7100000000000000000000000000000000000000000000000000000000600052600160045260246000fd5b6000808373__StreamingLibrary______________________63a93eb412909185600b600c600a60096040518763ffffffff1660e01b81526004016121429695949392919061409e565b604080518083038186803b15801561215957600080fd5b505af415801561216d573d6000803e3d6000fd5b505050506040513d601f19601f820116820180604052508101906121919190613515565b91509150600082111561223257600860009054906101000a900473ffffffffffffffffffffffffffffffffffffffff1673ffffffffffffffffffffffffffffffffffffffff1663a9059cbb8560400151846040518363ffffffff1660e01b81526004016121ff929190613cdd565b600060405180830381600087803b15801561221957600080fd5b505af115801561222d573d6000803e3d6000fd5b505050505b60008111156122cf57600860009054906101000a900473ffffffffffffffffffffffffffffffffffffffff1673ffffffffffffffffffffffffffffffffffffffff1663a9059cbb8560400151836040518363ffffffff1660e01b815260040161229c929190613cdd565b600060405180830381600087803b1580156122b657600080fd5b505af11580156122ca573d6000803e3d6000fd5b505050505b836040015173ffffffffffffffffffffffffffffffffffffffff16846020015173ffffffffffffffffffffffffffffffffffffffff167f77aa45170819c6810ea3480ee11861c9b79ed821e326e7d2d58551282b7ed13a60405160405180910390a350505050565b600073ffffffffffffffffffffffffffffffffffffffff168373ffffffffffffffffffffffffffffffffffffffff1614156123a7576040517f08c379a000000000000000000000000000000000000000000000000000000000815260040161239e90613f3e565b60405180910390fd5b600073ffffffffffffffffffffffffffffffffffffffff168273ffffffffffffffffffffffffffffffffffffffff161415612417576040517f08c379a000000000000000000000000000000000000000000000000000000000815260040161240e90613d9e565b60405180910390fd5b612422838383612d19565b60008060008573ffffffffffffffffffffffffffffffffffffffff1673ffffffffffffffffffffffffffffffffffffffff168152602001908152602001600020549050818110156124a8576040517f08c379a000000000000000000000000000000000000000000000000000000000815260040161249f90613e1e565b60405180910390fd5b81816124b4919061433c565b6000808673ffffffffffffffffffffffffffffffffffffffff1673ffffffffffffffffffffffffffffffffffffffff16815260200190815260200160002081905550816000808573ffffffffffffffffffffffffffffffffffffffff1673ffffffffffffffffffffffffffffffffffffffff1681526020019081526020016000206000828254612544919061428c565b925050819055508273ffffffffffffffffffffffffffffffffffffffff168473ffffffffffffffffffffffffffffffffffffffff167fddf252ad1be2c89b69c2b068fc378daa952ba7f163c4a11628f55a4df523b3ef846040516125a8919061416e565b60405180910390a350505050565b6125c0828261128e565b61264f576125e58173ffffffffffffffffffffffffffffffffffffffff166014612d29565b6125f38360001c6020612d29565b604051602001612604929190613c88565b6040516020818303038152906040526040517f08c379a00000000000000000000000000000000000000000000000000000000081526004016126469190613d3c565b60405180910390fd5b5050565b61265d828261128e565b6127305760016005600084815260200190815260200160002060000160008373ffffffffffffffffffffffffffffffffffffffff1673ffffffffffffffffffffffffffffffffffffffff16815260200190815260200160002060006101000a81548160ff0219169083151502179055506126d5611ed3565b73ffffffffffffffffffffffffffffffffffffffff168173ffffffffffffffffffffffffffffffffffffffff16837f2f8788117e7eff1d82e926ec794901d17c78024a50270940304540a733656f0d60405160405180910390a45b5050565b61273e828261128e565b156128125760006005600084815260200190815260200160002060000160008373ffffffffffffffffffffffffffffffffffffffff1673ffffffffffffffffffffffffffffffffffffffff16815260200190815260200160002060006101000a81548160ff0219169083151502179055506127b7611ed3565b73ffffffffffffffffffffffffffffffffffffffff168173ffffffffffffffffffffffffffffffffffffffff16837ff6391f5c32d9c69d2a47ea670b442974b53935d1edc7fd64eb21e047a839171b60405160405180910390a45b5050565b600073ffffffffffffffffffffffffffffffffffffffff168273ffffffffffffffffffffffffffffffffffffffff161415612886576040517f08c379a000000000000000000000000000000000000000000000000000000000815260040161287d9061401e565b60405180910390fd5b61289260008383612d19565b80600260008282546128a4919061428c565b92505081905550806000808473ffffffffffffffffffffffffffffffffffffffff1673ffffffffffffffffffffffffffffffffffffffff16815260200190815260200160002060008282546128f9919061428c565b925050819055508173ffffffffffffffffffffffffffffffffffffffff16600073ffffffffffffffffffffffffffffffffffffffff167fddf252ad1be2c89b69c2b068fc378daa952ba7f163c4a11628f55a4df523b3ef8360405161295e919061416e565b60405180910390a35050565b600080600b60008473ffffffffffffffffffffffffffffffffffffffff1673ffffffffffffffffffffffffffffffffffffffff16815260200190815260200160002060030154600b60008573ffffffffffffffffffffffffffffffffffffffff1673ffffffffffffffffffffffffffffffffffffffff168152602001908152602001600020600201546129fd919061433c565b9050600b60008473ffffffffffffffffffffffffffffffffffffffff1673ffffffffffffffffffffffffffffffffffffffff16815260200190815260200160002060000160000154600b60008573ffffffffffffffffffffffffffffffffffffffff1673ffffffffffffffffffffffffffffffffffffffff16815260200190815260200160002060000160010160009054906101000a900467ffffffffffffffff1667ffffffffffffffff1642612ab4919061433c565b612abe91906142e2565b81612ac9919061428c565b90506000600c60008573ffffffffffffffffffffffffffffffffffffffff1673ffffffffffffffffffffffffffffffffffffffff16815260200190815260200160002060030154600c60008673ffffffffffffffffffffffffffffffffffffffff1673ffffffffffffffffffffffffffffffffffffffff16815260200190815260200160002060020154612b5d919061433c565b9050600c60008573ffffffffffffffffffffffffffffffffffffffff1673ffffffffffffffffffffffffffffffffffffffff16815260200190815260200160002060000160000154600c60008673ffffffffffffffffffffffffffffffffffffffff1673ffffffffffffffffffffffffffffffffffffffff16815260200190815260200160002060000160010160009054906101000a900467ffffffffffffffff1667ffffffffffffffff1642612c14919061433c565b612c1e91906142e2565b81612c29919061428c565b90508082612c3686611e21565b612c40919061428c565b612c4a919061433c565b92505050919050565b6001816000016000828254019250508190555050565b600081600001549050919050565b3373ffffffffffffffffffffffffffffffffffffffff168173ffffffffffffffffffffffffffffffffffffffff161480612cd75750612cd67ff23ec0bb4210edd5cba85afd05127efcd2fc6a781bfed49188da1081670b22d83361128e565b5b612d16576040517f08c379a0000000000000000000000000000000000000000000000000000000008152600401612d0d90613e7e565b60405180910390fd5b50565b612d24838383611d98565b505050565b606060006002836002612d3c91906142e2565b612d46919061428c565b67ffffffffffffffff811115612d85577f4e487b7100000000000000000000000000000000000000000000000000000000600052604160045260246000fd5b6040519080825280601f01601f191660200182016040528015612db75781602001600182028036833780820191505090505b5090507f300000000000000000000000000000000000000000000000000000000000000081600081518110612e15577f4e487b7100000000000000000000000000000000000000000000000000000000600052603260045260246000fd5b60200101907effffffffffffffffffffffffffffffffffffffffffffffffffffffffffffff1916908160001a9053507f780000000000000000000000000000000000000000000000000000000000000081600181518110612e9f577f4e487b7100000000000000000000000000000000000000000000000000000000600052603260045260246000fd5b60200101907effffffffffffffffffffffffffffffffffffffffffffffffffffffffffffff1916908160001a90535060006001846002612edf91906142e2565b612ee9919061428c565b90505b6001811115612fd5577f3031323334353637383961626364656600000000000000000000000000000000600f861660108110612f51577f4e487b7100000000000000000000000000000000000000000000000000000000600052603260045260246000fd5b1a60f81b828281518110612f8e577f4e487b7100000000000000000000000000000000000000000000000000000000600052603260045260246000fd5b60200101907effffffffffffffffffffffffffffffffffffffffffffffffffffffffffffff1916908160001a905350600485901c945080612fce90614485565b9050612eec565b5060008414613019576040517f08c379a000000000000000000000000000000000000000000000000000000000815260040161301090613d7e565b60405180910390fd5b8091505092915050565b6040518060c0016040528060608152602001600073ffffffffffffffffffffffffffffffffffffffff168152602001600073ffffffffffffffffffffffffffffffffffffffff16815260200160008152602001600067ffffffffffffffff168152602001600067ffffffffffffffff1681525090565b8280546130a5906144af565b90600052602060002090601f0160209004810192826130c7576000855561310e565b82601f106130e057805160ff191683800117855561310e565b8280016001018555821561310e579182015b8281111561310d5782518255916020019190600101906130f2565b5b50905061311b919061311f565b5090565b5b80821115613138576000816000905550600101613120565b5090565b600061314f61314a846141e4565b6141bf565b90508281526020810184848401111561316757600080fd5b613172848285614443565b509392505050565b60008135905061318981614b7c565b92915050565b60008135905061319e81614b93565b92915050565b6000813590506131b381614baa565b92915050565b600082601f8301126131ca57600080fd5b81356131da84826020860161313c565b91505092915050565b6000604082840312156131f557600080fd5b81905092915050565b600060c0828403121561321057600080fd5b61321a60c06141bf565b9050600082013567ffffffffffffffff81111561323657600080fd5b613242848285016131b9565b60008301525060206132568482850161317a565b602083015250604061326a8482850161317a565b604083015250606061327e848285016132b2565b6060830152506080613292848285016132dc565b60808301525060a06132a6848285016132dc565b60a08301525092915050565b6000813590506132c181614bc1565b92915050565b6000815190506132d681614bc1565b92915050565b6000813590506132eb81614bd8565b92915050565b60006020828403121561330357600080fd5b60006133118482850161317a565b91505092915050565b6000806040838503121561332d57600080fd5b600061333b8582860161317a565b925050602061334c8582860161317a565b9150509250929050565b60008060006060848603121561336b57600080fd5b60006133798682870161317a565b935050602061338a8682870161317a565b925050604061339b868287016132b2565b9150509250925092565b600080604083850312156133b857600080fd5b60006133c68582860161317a565b92505060206133d7858286016132b2565b9150509250929050565b6000602082840312156133f357600080fd5b60006134018482850161318f565b91505092915050565b6000806040838503121561341d57600080fd5b600061342b8582860161318f565b925050602061343c8582860161317a565b9150509250929050565b60006020828403121561345857600080fd5b6000613466848285016131a4565b91505092915050565b60006020828403121561348157600080fd5b600082013567ffffffffffffffff81111561349b57600080fd5b6134a7848285016131fe565b91505092915050565b6000602082840312156134c257600080fd5b60006134d0848285016132b2565b91505092915050565b600080606083850312156134ec57600080fd5b60006134fa858286016132b2565b925050602061350b858286016131e3565b9150509250929050565b6000806040838503121561352857600080fd5b6000613536858286016132c7565b9250506020613547858286016132c7565b9150509250929050565b60008060006060848603121561356657600080fd5b6000613574868287016132c7565b9350506020613585868287016132c7565b9250506040613596868287016132c7565b9150509250925092565b6000602082840312156135b257600080fd5b60006135c0848285016132dc565b91505092915050565b6135d2816143a4565b82525050565b6135e1816143a4565b82525050565b6135f0816143a4565b82525050565b6135ff816143b6565b82525050565b61360e816143c2565b82525050565b8082525050565b8082525050565b8082525050565b600061363482614215565b61363e8185614220565b935061364e818560208601614452565b6136578161459f565b840191505092915050565b600061366d82614215565b6136778185614231565b9350613687818560208601614452565b6136908161459f565b840191505092915050565b60006136a682614215565b6136b08185614242565b93506136c0818560208601614452565b6136c98161459f565b840191505092915050565b60006136df82614215565b6136e98185614253565b93506136f9818560208601614452565b80840191505092915050565b6000613712603883614231565b915061371d826145b0565b604082019050919050565b6000613735602083614231565b9150613740826145ff565b602082019050919050565b6000613758602383614231565b915061376382614628565b604082019050919050565b600061377b600f83614231565b915061378682614677565b602082019050919050565b600061379e602683614231565b91506137a9826146a0565b604082019050919050565b60006137c1602283614231565b91506137cc826146ef565b604082019050919050565b60006137e4602683614231565b91506137ef8261473e565b604082019050919050565b6000613807600783614253565b91506138128261478d565b600782019050919050565b600061382a601283614231565b9150613835826147b6565b602082019050919050565b600061384d601083614231565b9150613858826147df565b602082019050919050565b6000613870601183614231565b915061387b82614808565b602082019050919050565b6000613893600e83614231565b915061389e82614831565b602082019050919050565b60006138b6602883614231565b91506138c18261485a565b604082019050919050565b60006138d9602683614231565b91506138e4826148a9565b604082019050919050565b60006138fc602083614231565b9150613907826148f8565b602082019050919050565b600061391f601383614231565b915061392a82614921565b602082019050919050565b6000613942602583614231565b915061394d8261494a565b604082019050919050565b6000613965602483614231565b915061397082614999565b604082019050919050565b6000613988601483614231565b9150613993826149e8565b602082019050919050565b60006139ab601983614231565b91506139b682614a11565b602082019050919050565b60006139ce601783614253565b91506139d982614a3a565b601782019050919050565b60006139f1600c83614231565b91506139fc82614a63565b602082019050919050565b6000613a14602583614231565b9150613a1f82614a8c565b604082019050919050565b6000613a37601183614253565b9150613a4282614adb565b601182019050919050565b6000613a5a602f83614231565b9150613a6582614b04565b604082019050919050565b6000613a7d601f83614231565b9150613a8882614b53565b602082019050919050565b60408201613aa4600083018361425e565b613ab16000850182613c11565b50613abf6020830183614275565b613acc6020850182613c3e565b50505050565b600060c0830160008301518482036000860152613aef8282613629565b9150506020830151613b0460208601826135c9565b506040830151613b1760408601826135c9565b506060830151613b2a6060860182613be4565b506080830151613b3d6080860182613c20565b5060a0830151613b5060a0860182613c20565b508091505092915050565b600060c0830160008301518482036000860152613b78828261369b565b9150506020830151613b8d60208601826135e7565b506040830151613ba060408601826135e7565b506060830151613bb36060860182613c11565b506080830151613bc66080860182613c3e565b5060a0830151613bd960a0860182613c3e565b508091505092915050565b613bed81614418565b82525050565b613bfc81614418565b82525050565b613c0b81614418565b82525050565b613c1a81614418565b82525050565b613c2981614422565b82525050565b613c3881614422565b82525050565b613c4781614422565b82525050565b613c5681614436565b82525050565b6000613c6882846136d4565b915081905092915050565b6000613c7e826137fa565b9150819050919050565b6000613c93826139c1565b9150613c9f82856136d4565b9150613caa82613a2a565b9150613cb682846136d4565b91508190509392505050565b6000602082019050613cd760008301846135d8565b92915050565b6000604082019050613cf260008301856135d8565b613cff6020830184613bf3565b9392505050565b6000602082019050613d1b60008301846135f6565b92915050565b6000602082019050613d366000830184613605565b92915050565b60006020820190508181036000830152613d568184613662565b905092915050565b60006020820190508181036000830152613d7781613705565b9050919050565b60006020820190508181036000830152613d9781613728565b9050919050565b60006020820190508181036000830152613db78161374b565b9050919050565b60006020820190508181036000830152613dd78161376e565b9050919050565b60006020820190508181036000830152613df781613791565b9050919050565b60006020820190508181036000830152613e17816137b4565b9050919050565b60006020820190508181036000830152613e37816137d7565b9050919050565b60006020820190508181036000830152613e578161381d565b9050919050565b60006020820190508181036000830152613e7781613840565b9050919050565b60006020820190508181036000830152613e9781613863565b9050919050565b60006020820190508181036000830152613eb781613886565b9050919050565b60006020820190508181036000830152613ed7816138a9565b9050919050565b60006020820190508181036000830152613ef7816138cc565b9050919050565b60006020820190508181036000830152613f17816138ef565b9050919050565b60006020820190508181036000830152613f3781613912565b9050919050565b60006020820190508181036000830152613f5781613935565b9050919050565b60006020820190508181036000830152613f7781613958565b9050919050565b60006020820190508181036000830152613f978161397b565b9050919050565b60006020820190508181036000830152613fb78161399e565b9050919050565b60006020820190508181036000830152613fd7816139e4565b9050919050565b60006020820190508181036000830152613ff781613a07565b9050919050565b6000602082019050818103600083015261401781613a4d565b9050919050565b6000602082019050818103600083015261403781613a70565b9050919050565b600060208201905081810360008301526140588184613ad2565b905092915050565b6000606082019050818103600083015261407a8186613b5b565b9050614089602083018561361b565b614096604083018461361b565b949350505050565b600060c08201905081810360008301526140b88189613b5b565b90506140c76020830188613c02565b6140d4604083018761361b565b6140e1606083018661361b565b6140ee6080830185613622565b6140fb60a0830184613614565b979650505050505050565b600060e08201905081810360008301526141208189613b5b565b905061412f6020830188613c02565b61413c604083018761361b565b614149606083018661361b565b6141566080830185613622565b61416360a0830184613a93565b979650505050505050565b60006020820190506141836000830184613bf3565b92915050565b600060208201905061419e6000830184613c2f565b92915050565b60006020820190506141b96000830184613c4d565b92915050565b60006141c96141da565b90506141d582826144e1565b919050565b6000604051905090565b600067ffffffffffffffff8211156141ff576141fe614570565b5b6142088261459f565b9050602081019050919050565b600081519050919050565b600082825260208201905092915050565b600082825260208201905092915050565b600082825260208201905092915050565b600081905092915050565b600061426d60208401846132b2565b905092915050565b600061428460208401846132dc565b905092915050565b600061429782614418565b91506142a283614418565b9250827fffffffffffffffffffffffffffffffffffffffffffffffffffffffffffffffff038211156142d7576142d6614512565b5b828201905092915050565b60006142ed82614418565b91506142f883614418565b9250817fffffffffffffffffffffffffffffffffffffffffffffffffffffffffffffffff048311821515161561433157614330614512565b5b828202905092915050565b600061434782614418565b915061435283614418565b92508282101561436557614364614512565b5b828203905092915050565b600061437b82614422565b915061438683614422565b92508282101561439957614398614512565b5b828203905092915050565b60006143af826143f8565b9050919050565b60008115159050919050565b6000819050919050565b60007fffffffff0000000000000000000000000000000000000000000000000000000082169050919050565b600073ffffffffffffffffffffffffffffffffffffffff82169050919050565b6000819050919050565b600067ffffffffffffffff82169050919050565b600060ff82169050919050565b82818337600083830152505050565b60005b83811015614470578082015181840152602081019050614455565b8381111561447f576000848401525b50505050565b600061449082614418565b915060008214156144a4576144a3614512565b5b600182039050919050565b600060028204905060018216806144c757607f821691505b602082108114156144db576144da614541565b5b50919050565b6144ea8261459f565b810181811067ffffffffffffffff8211171561450957614508614570565b5b80604052505050565b7f4e487b7100000000000000000000000000000000000000000000000000000000600052601160045260246000fd5b7f4e487b7100000000000000000000000000000000000000000000000000000000600052602260045260246000fd5b7f4e487b7100000000000000000000000000000000000000000000000000000000600052604160045260246000fd5b6000601f19601f8301169050919050565b7f5265616c2062616c616e63652028776968746f75742073747265616d696e677360008201527f29206e6f7420656e6f75676820746f207472616e736665720000000000000000602082015250565b7f537472696e67733a20686578206c656e67746820696e73756666696369656e74600082015250565b7f45524332303a207472616e7366657220746f20746865207a65726f206164647260008201527f6573730000000000000000000000000000000000000000000000000000000000602082015250565b7f496e76616c696420726571756573740000000000000000000000000000000000600082015250565b7f4f776e61626c653a206e6577206f776e657220697320746865207a65726f206160008201527f6464726573730000000000000000000000000000000000000000000000000000602082015250565b7f45524332303a20617070726f766520746f20746865207a65726f20616464726560008201527f7373000000000000000000000000000000000000000000000000000000000000602082015250565b7f45524332303a207472616e7366657220616d6f756e742065786365656473206260008201527f616c616e63650000000000000000000000000000000000000000000000000000602082015250565b7f636c617373696300000000000000000000000000000000000000000000000000600082015250565b7f4e6f7420656e6f7567682062616c616e63650000000000000000000000000000600082015250565b7f496e76616c696420726563656976657200000000000000000000000000000000600082015250565b7f5065726d697373696f6e2064656e696564000000000000000000000000000000600082015250565b7f496e76616c69642073656e646572000000000000000000000000000000000000600082015250565b7f45524332303a207472616e7366657220616d6f756e742065786365656473206160008201527f6c6c6f77616e6365000000000000000000000000000000000000000000000000602082015250565b7f43616e2774206f70656e2074776f2073747265616d7320746f2073616d65206160008201527f6464726573730000000000000000000000000000000000000000000000000000602082015250565b7f4f776e61626c653a2063616c6c6572206973206e6f7420746865206f776e6572600082015250565b7f496e76616c696420656e64696e67206461746500000000000000000000000000600082015250565b7f45524332303a207472616e736665722066726f6d20746865207a65726f20616460008201527f6472657373000000000000000000000000000000000000000000000000000000602082015250565b7f45524332303a20617070726f76652066726f6d20746865207a65726f2061646460008201527f7265737300000000000000000000000000000000000000000000000000000000602082015250565b7f556e6578697374696e672073747265616d696e67000000000000000000000000600082015250565b7f496e76616c696420616d6f756e7420706572207365636f6e6400000000000000600082015250565b7f416363657373436f6e74726f6c3a206163636f756e7420000000000000000000600082015250565b7f496e76616c696420747970650000000000000000000000000000000000000000600082015250565b7f45524332303a2064656372656173656420616c6c6f77616e63652062656c6f7760008201527f207a65726f000000000000000000000000000000000000000000000000000000602082015250565b7f206973206d697373696e6720726f6c6520000000000000000000000000000000600082015250565b7f416363657373436f6e74726f6c3a2063616e206f6e6c792072656e6f756e636560008201527f20726f6c657320666f722073656c660000000000000000000000000000000000602082015250565b7f45524332303a206d696e7420746f20746865207a65726f206164647265737300600082015250565b614b85816143a4565b8114614b9057600080fd5b50565b614b9c816143c2565b8114614ba757600080fd5b50565b614bb3816143cc565b8114614bbe57600080fd5b50565b614bca81614418565b8114614bd557600080fd5b50565b614be181614422565b8114614bec57600080fd5b5056fea264697066735822122008c950e71af222d3a99088914102378514f2054c5509d65417d5e072caf0f58264736f6c63430008010033",
  "immutableReferences": {},
  "source": "// SPDX-License-Identifier: MIT\npragma solidity ^0.8.0;\n\nimport \"@openzeppelin/contracts/token/ERC20/ERC20.sol\";\nimport \"@openzeppelin/contracts/access/Ownable.sol\";\nimport \"../ERC20Streamable.sol\";\n\ncontract SocialTokenMock is ERC20, ERC20Streamable, Ownable {\n    constructor(uint256 initialSupply, string memory tokenName, string memory tokenSymbol) ERC20(tokenName, tokenSymbol) {\n        // default decimals: 18\n        _mint(msg.sender, initialSupply * 10**decimals());\n    }\n\n    // allow to increment the totalSupply by minting\n    function mint(address to, uint256 amount) external onlyOwner {\n        _mint(to, amount);\n    }\n\n    function decimals() public pure override returns (uint8) {\n        return 18;\n    }\n\n    function balanceOf(address account) public view override(ERC20, ERC20Streamable) returns (uint256) {\n        return ERC20Streamable.balanceOf(account);\n    }\n\n    function _beforeTokenTransfer(\n        address from,\n        address to,\n        uint256 amount\n    ) internal view override(ERC20Streamable, ERC20) {\n        ERC20Streamable._beforeTokenTransfer(from, to, amount);\n    }\n}\n",
  "sourcePath": "/home/ericng/Documents/PRIVI/Privi-Polygon/privi-streaming/contracts/Mocks/SocialTokenMock.sol",
  "compiler": {
    "name": "solc",
    "version": "0.8.1+commit.df193b15.Emscripten.clang"
  },
  "schemaVersion": "3.4.1",
  "updatedAt": "2021-07-02T04:25:27.038Z",
  "networkType": "ethereum",
  "devdoc": {
    "kind": "dev",
    "methods": {
      "allowance(address,address)": {
        "details": "See {IERC20-allowance}."
      },
      "approve(address,uint256)": {
        "details": "See {IERC20-approve}. Requirements: - `spender` cannot be the zero address."
      },
      "decimals()": {
        "details": "Returns the number of decimals used to get its user representation. For example, if `decimals` equals `2`, a balance of `505` tokens should be displayed to a user as `5,05` (`505 / 10 ** 2`). Tokens usually opt for a value of 18, imitating the relationship between Ether and Wei. This is the value {ERC20} uses, unless this function is overridden; NOTE: This information is only used for _display_ purposes: it in no way affects any of the arithmetic of the contract, including {IERC20-balanceOf} and {IERC20-transfer}."
      },
      "decreaseAllowance(address,uint256)": {
        "details": "Atomically decreases the allowance granted to `spender` by the caller. This is an alternative to {approve} that can be used as a mitigation for problems described in {IERC20-approve}. Emits an {Approval} event indicating the updated allowance. Requirements: - `spender` cannot be the zero address. - `spender` must have allowance for the caller of at least `subtractedValue`."
      },
      "getRoleAdmin(bytes32)": {
        "details": "Returns the admin role that controls `role`. See {grantRole} and {revokeRole}. To change a role's admin, use {_setRoleAdmin}."
      },
      "grantRole(bytes32,address)": {
        "details": "Grants `role` to `account`. If `account` had not been already granted `role`, emits a {RoleGranted} event. Requirements: - the caller must have ``role``'s admin role."
      },
      "hasRole(bytes32,address)": {
        "details": "Returns `true` if `account` has been granted `role`."
      },
      "increaseAllowance(address,uint256)": {
        "details": "Atomically increases the allowance granted to `spender` by the caller. This is an alternative to {approve} that can be used as a mitigation for problems described in {IERC20-approve}. Emits an {Approval} event indicating the updated allowance. Requirements: - `spender` cannot be the zero address."
      },
      "name()": {
        "details": "Returns the name of the token."
      },
      "owner()": {
        "details": "Returns the address of the current owner."
      },
      "renounceOwnership()": {
        "details": "Leaves the contract without owner. It will not be possible to call `onlyOwner` functions anymore. Can only be called by the current owner. NOTE: Renouncing ownership will leave the contract without an owner, thereby removing any functionality that is only available to the owner."
      },
      "renounceRole(bytes32,address)": {
        "details": "Revokes `role` from the calling account. Roles are often managed via {grantRole} and {revokeRole}: this function's purpose is to provide a mechanism for accounts to lose their privileges if they are compromised (such as when a trusted device is misplaced). If the calling account had been granted `role`, emits a {RoleRevoked} event. Requirements: - the caller must be `account`."
      },
      "revokeRole(bytes32,address)": {
        "details": "Revokes `role` from `account`. If `account` had been granted `role`, emits a {RoleRevoked} event. Requirements: - the caller must have ``role``'s admin role."
      },
      "supportsInterface(bytes4)": {
        "details": "See {IERC165-supportsInterface}."
      },
      "symbol()": {
        "details": "Returns the symbol of the token, usually a shorter version of the name."
      },
      "totalSupply()": {
        "details": "See {IERC20-totalSupply}."
      },
      "transfer(address,uint256)": {
        "details": "See {IERC20-transfer}. Requirements: - `recipient` cannot be the zero address. - the caller must have a balance of at least `amount`."
      },
      "transferFrom(address,address,uint256)": {
        "details": "See {IERC20-transferFrom}. Emits an {Approval} event indicating the updated allowance. This is not required by the EIP. See the note at the beginning of {ERC20}. Requirements: - `sender` and `recipient` cannot be the zero address. - `sender` must have a balance of at least `amount`. - the caller must have allowance for ``sender``'s tokens of at least `amount`."
      },
      "transferOwnership(address)": {
        "details": "Transfers ownership of the contract to a new account (`newOwner`). Can only be called by the current owner."
      }
    },
    "version": 1
  },
  "userdoc": {
    "kind": "user",
    "methods": {},
    "version": 1
  }
}