{
  "contractName": "StreamingManager",
  "abi": [
    {
      "inputs": [
        {
          "internalType": "address",
          "name": "_erc20StreamableAddress",
          "type": "address"
        }
      ],
      "stateMutability": "nonpayable",
      "type": "constructor"
    },
    {
      "inputs": [],
      "name": "erc20StreamableAddress",
      "outputs": [
        {
          "internalType": "address",
          "name": "",
          "type": "address"
        }
      ],
      "stateMutability": "view",
      "type": "function",
      "constant": true
    },
    {
      "inputs": [
        {
          "internalType": "address",
          "name": "_to",
          "type": "address"
        },
        {
          "internalType": "uint256",
          "name": "_amount",
          "type": "uint256"
        }
      ],
      "name": "transfer",
      "outputs": [],
      "stateMutability": "nonpayable",
      "type": "function"
    }
  ],
  "bytecode": "0x60a060405234801561001057600080fd5b5060405161054538038061054583398181016040528101906100329190610084565b8073ffffffffffffffffffffffffffffffffffffffff1660808173ffffffffffffffffffffffffffffffffffffffff1660601b81525050506100f6565b60008151905061007e816100df565b92915050565b60006020828403121561009657600080fd5b60006100a48482850161006f565b91505092915050565b60006100b8826100bf565b9050919050565b600073ffffffffffffffffffffffffffffffffffffffff82169050919050565b6100e8816100ad565b81146100f357600080fd5b50565b60805160601c61042561012060003960008181607701528181609b015261012b01526104256000f3fe608060405234801561001057600080fd5b50600436106100365760003560e01c80639dbabc881461003b578063a9059cbb14610059575b600080fd5b610043610075565b60405161005091906102c4565b60405180910390f35b610073600480360381019061006e919061021e565b610099565b005b7f000000000000000000000000000000000000000000000000000000000000000081565b7f000000000000000000000000000000000000000000000000000000000000000073ffffffffffffffffffffffffffffffffffffffff163373ffffffffffffffffffffffffffffffffffffffff1614610127576040517f08c379a000000000000000000000000000000000000000000000000000000000815260040161011e90610308565b60405180910390fd5b60007f000000000000000000000000000000000000000000000000000000000000000090508073ffffffffffffffffffffffffffffffffffffffff1663a9059cbb84846040518363ffffffff1660e01b81526004016101879291906102df565b602060405180830381600087803b1580156101a157600080fd5b505af11580156101b5573d6000803e3d6000fd5b505050506040513d601f19601f820116820180604052508101906101d9919061025a565b50505050565b6000813590506101ee816103aa565b92915050565b600081519050610203816103c1565b92915050565b600081359050610218816103d8565b92915050565b6000806040838503121561023157600080fd5b600061023f858286016101df565b925050602061025085828601610209565b9150509250929050565b60006020828403121561026c57600080fd5b600061027a848285016101f4565b91505092915050565b61028c81610339565b82525050565b600061029f600e83610328565b91506102aa82610381565b602082019050919050565b6102be81610377565b82525050565b60006020820190506102d96000830184610283565b92915050565b60006040820190506102f46000830185610283565b61030160208301846102b5565b9392505050565b6000602082019050818103600083015261032181610292565b9050919050565b600082825260208201905092915050565b600061034482610357565b9050919050565b60008115159050919050565b600073ffffffffffffffffffffffffffffffffffffffff82169050919050565b6000819050919050565b7f496e76616c69642073656e646572000000000000000000000000000000000000600082015250565b6103b381610339565b81146103be57600080fd5b50565b6103ca8161034b565b81146103d557600080fd5b50565b6103e181610377565b81146103ec57600080fd5b5056fea26469706673582212202a0b05d7a72d7ff86d95bca068890241c22a9674f22098481ef0484741b08eae64736f6c63430008010033",
  "immutableReferences": {
    "1412": [
      {
        "length": 32,
        "start": 119
      },
      {
        "length": 32,
        "start": 155
      },
      {
        "length": 32,
        "start": 299
      }
    ]
  },
  "source": "// SPDX-License-Identifier: MIT\npragma solidity ^0.8.0;\n\nimport \"@openzeppelin/contracts/token/ERC20/ERC20.sol\";\n\ncontract StreamingManager {\n    address public immutable erc20StreamableAddress;\n\n    constructor(address _erc20StreamableAddress) {\n        erc20StreamableAddress = _erc20StreamableAddress;\n    }\n\n    function transfer(address _to, uint256 _amount) external {\n        require(msg.sender == erc20StreamableAddress, \"Invalid sender\");\n        ERC20 token = ERC20(erc20StreamableAddress);\n        token.transfer(_to, _amount);\n    }\n}\n",
  "sourcePath": "/home/ericng/Documents/PRIVI/Privi-Polygon/privi-streaming/contracts/StreamingManager.sol",
  "compiler": {
    "name": "solc",
    "version": "0.8.1+commit.df193b15.Emscripten.clang"
  },
  "schemaVersion": "3.4.1",
  "updatedAt": "2021-07-02T04:25:27.061Z",
  "networkType": "ethereum",
  "devdoc": {
    "kind": "dev",
    "methods": {},
    "version": 1
  },
  "userdoc": {
    "kind": "user",
    "methods": {},
    "version": 1
  }
}