{
  "_format": "hh-sol-artifact-1",
  "contractName": "EthBase",
  "sourceName": "contracts/EthBase.sol",
  "abi": [
    {
      "inputs": [],
      "stateMutability": "nonpayable",
      "type": "constructor"
    },
    {
      "inputs": [
        {
          "internalType": "address",
          "name": "nft",
          "type": "address"
        },
        {
          "internalType": "uint256",
          "name": "tokenId",
          "type": "uint256"
        }
      ],
      "name": "depositNFT",
      "outputs": [],
      "stateMutability": "nonpayable",
      "type": "function"
    },
    {
      "inputs": [
        {
          "internalType": "address",
          "name": "nft",
          "type": "address"
        },
        {
          "internalType": "uint256",
          "name": "tokenId",
          "type": "uint256"
        },
        {
          "internalType": "address",
          "name": "to",
          "type": "address"
        }
      ],
      "name": "withdrawNFT",
      "outputs": [],
      "stateMutability": "nonpayable",
      "type": "function"
    }
  ],
  "bytecode": "0x608060405234801561001057600080fd5b50600080546001600160a01b03191633179055610209806100326000396000f3fe608060405234801561001057600080fd5b50600436106100355760003560e01c8062f2a6ab1461003a5780639b5b9b181461004f575b600080fd5b61004d610048366004610174565b610062565b005b61004d61005d36600461014b565b6100c9565b6040516323b872dd60e01b81526001600160a01b038416906323b872dd90610092903090859087906004016101af565b600060405180830381600087803b1580156100ac57600080fd5b505af11580156100c0573d6000803e3d6000fd5b50505050505050565b6040516323b872dd60e01b81526001600160a01b038316906323b872dd906100f9903390309086906004016101af565b600060405180830381600087803b15801561011357600080fd5b505af1158015610127573d6000803e3d6000fd5b505050505050565b80356001600160a01b038116811461014657600080fd5b919050565b6000806040838503121561015d578182fd5b6101668361012f565b946020939093013593505050565b600080600060608486031215610188578081fd5b6101918461012f565b9250602084013591506101a66040850161012f565b90509250925092565b6001600160a01b03938416815291909216602082015260408101919091526060019056fea2646970667358221220b88326e146096e25d7397aa313d2f36b77e69a6c34af070f48b1b55ee5ae77fa64736f6c63430008000033",
  "linkReferences": {},
  "deployedLinkReferences": {}
}