{
  "_format": "hh-sol-artifact-1",
  "contractName": "EthBase",
  "sourceName": "contracts/EthBase.sol",
  "abi": [
    {
      "inputs": [],
      "stateMutability": "nonpayable",
      "type": "constructor"
    },
    {
      "inputs": [
        {
          "internalType": "address",
          "name": "nft",
          "type": "address"
        },
        {
          "internalType": "uint256",
          "name": "tokenId",
          "type": "uint256"
        }
      ],
      "name": "depositNFT",
      "outputs": [],
      "stateMutability": "nonpayable",
      "type": "function"
    },
    {
      "inputs": [
        {
          "internalType": "address",
          "name": "nft",
          "type": "address"
        },
        {
          "internalType": "uint256",
          "name": "tokenId",
          "type": "uint256"
        },
        {
          "internalType": "address",
          "name": "to",
          "type": "address"
        }
      ],
      "name": "withdrawNFT",
      "outputs": [],
      "stateMutability": "nonpayable",
      "type": "function"
    }
  ],
  "bytecode": "0x608060405234801561001057600080fd5b50600080546001600160a01b03191633179055610220806100326000396000f3fe608060405234801561001057600080fd5b50600436106100355760003560e01c8062f2a6ab1461003a5780639b5b9b181461004f575b600080fd5b61004d61004836600461018b565b610062565b005b61004d61005d366004610162565b6100e0565b6000546001600160a01b0316331461007957600080fd5b6040516323b872dd60e01b81526001600160a01b038416906323b872dd906100a9903090859087906004016101c6565b600060405180830381600087803b1580156100c357600080fd5b505af11580156100d7573d6000803e3d6000fd5b50505050505050565b6040516323b872dd60e01b81526001600160a01b038316906323b872dd90610110903390309086906004016101c6565b600060405180830381600087803b15801561012a57600080fd5b505af115801561013e573d6000803e3d6000fd5b505050505050565b80356001600160a01b038116811461015d57600080fd5b919050565b60008060408385031215610174578182fd5b61017d83610146565b946020939093013593505050565b60008060006060848603121561019f578081fd5b6101a884610146565b9250602084013591506101bd60408501610146565b90509250925092565b6001600160a01b03938416815291909216602082015260408101919091526060019056fea26469706673582212202023b6c28f3a571e0b24508f5cbe58ac9c5b83341c93d09bcaafeba99de9299364736f6c63430008000033",
  "linkReferences": {},
  "deployedLinkReferences": {}
}